AE00TI102209090309/09/202200000000800000000000000007006KGM  00000009354KGM  7114-4020                TERMINAL                 71144020                 0         0         0         0    0    0    00016800000002100000000023000038640000
AE00TI102209090309/09/202200000001100000000000000008237KGM  00000011851KGM  7114-4100-02             TERMINAL                 7114410002               0         0         0         0    0    0    00019800000001800000000034000067320000
AE00TI102209090309/09/202200000002500000000000000014475KGM  00000021680KGM  7116-1471                TERMINAL                 71161471                 0         0         0         0    0    0    00037500000001500000000034000127500000
AE00TI102209090309/09/202200000001600000000000000009893KGM  00000014456KGM  7116-4022                TERMINAL                 71164022                 0         0         0         0    0    0    00021600000001350000000037000079920000
AE00TI102209090309/09/202200000000300000000000000001934KGM  00000002925KGM  7116-4025                TERMINAL                 71164025                 0         0         0         0    0    0    00004800000001600000000034000016320000
AE00TI102209090309/09/202200000001600000000000000011136KGM  00000015843KGM  7116-4100-02             TERMINAL                 7116410002               0         0         0         0    0    0    00024000000001500000000037000088800000
AE00TI102209090309/09/202200000001600000000000000014928KGM  00000018784KGM  7123-1508                CONNECTOR                71231508                 0         0         0         0    0    0    00001600000000100000000226000036160000
AE00TI102209090309/09/202200000000700000000000000004706KGM  00000006703KGM  7126-8850-02             TERMINAL                 7126885002               0         0         0         0    0    0    00006300000000900000000058000036540000
AE00TI102209090309/09/202200000000800000000000000005918KGM  00000008200KGM  7126-8851-02             TERMINAL                 7126885102               0         0         0         0    0    0    00007200000000900000000060000043200000
AE00TI102209090309/09/202200000004000000000000000009592KGM  00000019592KGM  7271-1820-30             CASE SUB ASSY,ECU        7271182030               0         0         0         0    0    0    00000072000000001800009576000068947200
AE00TI102209090309/09/202200000001600000000000000000000KGM  00000000000KGM  7273-2981-0WD            CASSETTE BRACKET         727329810WD              0         0         0         0    0    0    00000160000000010000000000000000000000
AE00TI102209090309/09/202200000002600000000000000000000KGM  00000000000KGM  7273-2981-0WE            CASSETTE BRACKET         727329810WE              0         0         0         0    0    0    00000208000000008000000000000000000000
AE00TI102209090309/09/202200000004700000000000000000000KGM  00000000000KGM  7273-2982-0WD            CASSETTE BRACKET         727329820WD              0         0         0         0    0    0    00000470000000010000000000000000000000
AE00TI102209090309/09/202200000001500000000000000000000KGM  00000000000KGM  7273-2982-0WE            CASSETTE BRACKET         727329820WE              0         0         0         0    0    0    00000225000000015000000000000000000000
AE00TI102209090309/09/202200000003000000000000000000000KGM  00000000000KGM  7273-2983-0WD            CASSETTE BRACKET         727329830WD              0         0         0         0    0    0    00000300000000010000000000000000000000
AE00TI102209090309/09/202200000000300000000000000000000KGM  00000000000KGM  7273-2983-0WE            CASSETTE BRACKET         727329830WE              0         0         0         0    0    0    00000024000000008000000000000000000000
AE00TI102209090309/09/202200000000200000000000000001590KGM  00000002024KGM  7282-1065                CONNECTOR                72821065                 0         0         0         0    0    0    00000300000000150000000415000012450000
AE00TI102209090309/09/202200000000100000000000000001167KGM  00000001372KGM  7282-1248                HOUSING SUB ASSEMBLY     72821248                 0         0         0         0    0    0    00000060000000060000000490000002940000
AE00TI102209090309/09/202200000000100000000000000001356KGM  00000001520KGM  7282-8120                CONNECTOR HOUSING        72828120                 0         0         0         0    0    0    00000300000000300000000212000006360000
AE00TI102209090309/09/202200000000500000000000000006780KGM  00000007600KGM  7282-8120-30             CONNECTOR HOUSING        7282812030               0         0         0         0    0    0    00001500000000300000000000000000000000
AE00TI102209090309/09/202200000000700000000000000009492KGM  00000010640KGM  7282-8120-40             CONNECTOR HOUSING        7282812040               0         0         0         0    0    0    00002100000000300000000215000045150000
AE00TI102209090309/09/202200000000200000000000000001338KGM  00000001865KGM  7283-1140                CONNECTOR HOUSING        72831140                 0         0         0         0    0    0    00000300000000150000000259000007770000
AE00TI102209090309/09/202200000000400000000000000005524KGM  00000006548KGM  7283-1288                CONNECTOR HOUSING        72831288                 0         0         0         0    0    0    00000480000000120000000781000037488000
AE00TI102209090309/09/202200000000700000000000000009674KGM  00000011485KGM  7283-1288-40             CONNECTOR HOUSING        7283128840               0         0         0         0    0    0    00000840000000120000000785000065940000
AE00TI102209090309/09/202200000000100000000000000001032KGM  00000001206KGM  7283-7029-30             CONNECTOR                7283702930               0         0         0         0    0    0    00000600000000600000000231000013860000
AE00TI102209090309/09/202200000000100000000000000000990KGM  00000001249KGM  7283-7526                CONNECTOR HOUSING        72837526                 0         0         0         0    0    0    00000196000000196000000503000009858800
AE00TI102209090309/09/202200000000300000000000000002969KGM  00000003746KGM  7283-7526-30             CONNECTOR HOUSING        7283752630               0         0         0         0    0    0    00000588000000196000000506000029752800
AE00TI102209090309/09/202200000000200000000000000001980KGM  00000002497KGM  7283-7526-40             CONNECTOR HOUSING        7283752640               0         0         0         0    0    0    00000392000000196000000504000019756800
AE00TI102209090309/09/202200000000100000000000000000815KGM  00000001011KGM  7286-1899                HOUSING SUB ASSEMBLY     72861899                 0         0         0         0    0    0    00000033600000033600000853000002866080
AE00TI102209090309/09/202200000000100000000000000000538KGM  00000000690KGM  7287-9323                UNSEALED HOUSING SUB     72879323                 0         0         0         0    0    0    00000240000000240000000146000003504000
AE00TI102209090309/09/202200000000400000000000000002150KGM  00000002760KGM  7287-9323-40             UNSEALED HOUSING SUB     7287932340               0         0         0         0    0    0    00000960000000240000000155000014880000
AE00TI102209090309/09/202200000003500000000000000024024KGM  00000031549KGM  7289-3342-30             HOUSING FEMALE ASS'Y     7289334230               0         0         0         0    0    0    00008400000000240000000191000160440000
