AE00TI102209090509/09/202200000000100000000000000000894KGM  00000001185KGM  7287-9234                JOINT CONNECTOR          72879234                 0         0         0         0    0    0    00000960000000960000000137000013152000
AE00TI102209090509/09/202200000000400000000000000003464KGM  00000004044KGM  7288-3329-30             HOUSING MALE             7288332930               0         0         0         0    0    0    00000600000000150000000354000021240000
AE00TI102209090509/09/202200000000800000000000000005491KGM  00000007211KGM  7289-3342                HOUSING FEMALE ASS'Y     72893342                 0         0         0         0    0    0    00001920000000240000000186000035712000
AE00TI102209090509/09/202200000000300000000000000002518KGM  00000003358KGM  7289-6868-30             SEALED ASSY FEMALE       7289686830               0         0         0         0    0    0    00000756000000252000000332000025099200
AE00TI102209090509/09/202200000001000000000000000012301KGM  00000014226KGM  7327-6533-3W             BATTERY FUSE             732765333W               0         0         0         0    0    0    00000072000000007200010131000072943200
AE00TI102209090509/09/202200000001400000000000000015973KGM  00000018983KGM  7327-6840-3W             BATTERY FUSE             732768403W               0         0         0         0    0    0    00000100800000007200009909000099882720
