AE00TI102209090209/09/202200000000700000000000000003794KGM  00000005049KGM  7147-3642-30             CLIP                     7147364230               0         0         0         0    0    0    00002100000000300000000074000015540000
AE00TI102209090209/09/202200000000200000000000000001654KGM  00000002204KGM  7154-5712-30             CASSETTE R/B             7154571230               0         0         0         0    0    0    00000160000000080000000288000004608000
AE00TI102209090209/09/202200000005600000000000000018514KGM  00000021616KGM  7158-3006-90             RUBBER STOPPER           7158300690               0         0         0         0    0    0    00112000000002000000000016000179200000
AE00TI102209090209/09/202200000002900000000000000009802KGM  00000011200KGM  7158-3009-60             RUBBER STOPPER           7158300960               0         0         0         0    0    0    00058000000002000000000012000069600000
AE00TI102209090209/09/202200000000800000000000000003740KGM  00000004192KGM  7158-3022-80             RUBBER STOPPER           7158302280               0         0         0         0    0    0    00004000000000500000000070000028000000
AE00TI102209090209/09/202200000001500000000000000001860KGM  00000002586KGM  7158-3165-90             WIRE SEAL                7158316590               0         0         0         0    0    0    00060000000004000000000006000036000000
AE00TI102209090209/09/202200000003300000000000000003432KGM  00000005029KGM  7158-3166-60             WIRE SEAL                7158316660               0         0         0         0    0    0    00132000000004000000000004000052800000
AE00TI102209090209/09/202200000002300000000000000001104KGM  00000002217KGM  7158-3167-61             WIRE SEAL                7158316761               0         0         0         0    0    0    00046000000002000000000005000023000000
AE00TI102209090209/09/202200000005400000000000000002592KGM  00000005886KGM  7158-3167-80             WIRE SEAL                7158316780               0         0         0         0    0    0    00108000000002000000000005000054000000
AE00TI102209090209/09/202200000003600000000000000001584KGM  00000003316KGM  7158-3168-80             SEALED                   7158316880               0         0         0         0    0    0    00072000000002000000000004000028800000
AE00TI102209090209/09/202200000001600000000000000002496KGM  00000003266KGM  7158-3169-40             SEALING PLUG             7158316940               0         0         0         0    0    0    00064000000004000000000006000038400000
AE00TI102209090209/09/202200000001000000000000000007621KGM  00000009803KGM  7171-6292                HOUSING                  71716292                 0         0         0         0    0    0    00000180000000018000001240000022320000
AE00TI102209090209/09/202200000000100000000000000001282KGM  00000001477KGM  7182-4941                DOUBLE SIDED             71824941                 0         0         0         0    0    0    00000100000000100000000816000008160000
AE00TI102209090209/09/202200000000100000000000000001059KGM  00000001246KGM  7183-2412                HOUSING                  71832412                 0         0         0         0    0    0    00000160000000160000000155000002480000
AE00TI102209090209/09/202200000000100000000000000000478KGM  00000000760KGM  7183-2413                CONNECTOR HOUSING        71832413                 0         0         0         0    0    0    00000480000000480000000074000003552000
AE00TI102209090209/09/202200000000200000000000000000955KGM  00000001519KGM  7183-2413-30             CONNECTOR HOUSING        7183241330               0         0         0         0    0    0    00000960000000480000000076000007296000
AE00TI102209090209/09/202200000000100000000000000000579KGM  00000000686KGM  7189-9516-40             HOUSING                  7189951640               0         0         0         0    0    0    00000200000000200000000238000004760000
AE00TI102209090209/09/202200000000100000000000000000577KGM  00000000684KGM  7189-9517                HOUSING                  71899517                 0         0         0         0    0    0    00000200000000200000000228000004560000
AE00TI102209090209/09/202200000000500000000000000002918KGM  00000003453KGM  7189-9518-30             HOUSING                  7189951830               0         0         0         0    0    0    00001000000000200000000236000023600000
AE00TI102209090209/09/202200000000300000000000000003090KGM  00000003528KGM  7222-7484-40             CONNECTOR                7222748440               0         0         0         0    0    0    00000300000000100000000758000022740000
AE00TI102209090209/09/202200000000100000000000000000967KGM  00000001097KGM  7222-7564-40             CONNECTOR                7222756440               0         0         0         0    0    0    00000050000000050000001166000005830000
AE00TI102209090209/09/202200000000300000000000000000927KGM  00000001392KGM  7254-7022-3W             ENG BLOCK                725470223W               0         0         0         0    0    0    00000002400000000800005023000001205520
AE00TI102209090209/09/202200000004000000000000000009592KGM  00000019592KGM  7271-1820-30             CASE SUB ASSY,ECU        7271182030               0         0         0         0    0    0    00000072000000001800009576000068947200
AE00TI102209090209/09/202200000000100000000000000000988KGM  00000001172KGM  7283-1030                CONNECTOR                72831030                 0         0         0         0    0    0    00000600000000600000000290000017400000
AE00TI102209090209/09/202200000000500000000000000004388KGM  00000005390KGM  7283-1156                CONNECTOR                72831156                 0         0         0         0    0    0    00000400000000080000000810000032400000
AE00TI102209090209/09/202200000000900000000000000010260KGM  00000011865KGM  7283-1968-30             CONNECTOR                7283196830               0         0         0         0    0    0    00000810000000090000000687000055647000
AE00TI102209090209/09/202200000000100000000000000000380KGM  00000000532KGM  7283-8123                CONNECTOR HOUSING        72838123                 0         0         0         0    0    0    00000400000000400000000138000005520000
AE00TI102209090209/09/202200000000300000000000000002901KGM  00000003503KGM  7286-1917                CONNECTOR MALE ASS'Y     72861917                 0         0         0         0    0    0    00000360000000120000000517000018612000
AE00TI102209090209/09/202200000001000000000000000008537KGM  00000010452KGM  7287-9155                HOUSING FEMALE ASS'Y     72879155                 0         0         0         0    0    0    00000960000000096000000357000034272000
AE00TI102209090209/09/202200000000100000000000000000894KGM  00000001185KGM  7287-9234                JOINT CONNECTOR          72879234                 0         0         0         0    0    0    00000960000000960000000137000013152000
AE00TI102209090209/09/202200000000800000000000000006886KGM  00000008046KGM  7288-3332-30             HOUSING MALE             7288333230               0         0         0         0    0    0    00001200000000150000000354000042480000
AE00TI102209090209/09/202200000000100000000000000000867KGM  00000001012KGM  7288-3335-30             HOUSING MALE             7288333530               0         0         0         0    0    0    00000150000000150000000354000005310000
AE00TI102209090209/09/202200000000700000000000000006069KGM  00000007084KGM  7288-3337-30             HOUSING MALE             7288333730               0         0         0         0    0    0    00001050000000150000000354000037170000
AE00TI102209090209/09/202200000000500000000000000003432KGM  00000004507KGM  7289-3342                HOUSING FEMALE ASS'Y     72893342                 0         0         0         0    0    0    00001200000000240000000186000022320000
AE00TI102209090209/09/202200000000600000000000000004118KGM  00000005408KGM  7289-3342-30             HOUSING FEMALE ASS'Y     7289334230               0         0         0         0    0    0    00001440000000240000000191000027504000
AE00TI102209090209/09/202200000000200000000000000002343KGM  00000002737KGM  7289-5011-30             HOUSING FEMALE ASS'Y     7289501130               0         0         0         0    0    0    00000480000000240000000333000015984000
AE00TI102209090209/09/202200000000400000000000000003317KGM  00000004197KGM  7289-6518-30             HOUSING FEMALE ASS'Y     7289651830               0         0         0         0    0    0    00000480000000120000000598000028704000
AE00TI102209090209/09/202200000000200000000000000001678KGM  00000002238KGM  7289-6868-30             SEALED ASSY FEMALE       7289686830               0         0         0         0    0    0    00000504000000252000000332000016732800
AE00TI102209090209/09/202200000000100000000000000001241KGM  00000001406KGM  7298-1853-10             HOUSING FEMALE ASS'Y     7298185310               0         0         0         0    0    0    00000390000000390000000186000007254000
AE00TI102209090209/09/202200000000100000000000000001097KGM  00000001359KGM  7298-4094-10             HOUSING FEMALE ASS'Y     7298409410               0         0         0         0    0    0    00000338000000338000000241000008145800
AE00TI102209090209/09/202200000003600000000000000047520KGM  00000056520KGM  7470-3082                J/B COMPLETE ASS'Y       74703082                 0         0         0         0    0    0    00000086400000002400031298000270414720
