BI00B32DE    TT2113         2022102018000004535              AV 8 B/R                 CCN000001800000000000FY00000000020221101000000000NNM10 20220909152723    1W    00000010000010466200000000032DE    TVYEV-TV000000000000VT12A085
BI00B32DE    TT2113         2022100618007703750              AVSS 0.3F R              CCN000004000000004000FN00000000020221101000004000NNM20 20220909145819    1W    00000200000000496000000000032DE    TVYEV-TV000000000000VT12A088
BI00B32DE    TT2114         2022101318007704130              AVSS 1.25F B             CCN000000800000000800FN00000000020221101000000800NNM20 20220909150019    1W    00000080000001389000000000032DE    TVYEV-TV000000000000VT22A091
BI00B32DE    TT2113         20221006180D0203790              AVSSH 0.3F L             CCN000004000000004000FN00000000020221101000004000NNM20 20220909145925    1W    00000200000000515000000000032DE    TVYEV-TV000000000000VT12A028
BI00B32DE    TT2114         20221027180D0203957              AVSSH 0.5F R/Y           CCN000001500000000000FY00000000020221101000000000NNM10 20220909152806    1W    00000150000000689000000000032DE    TVYEV-TV000000000000VT22A052
BI00B32DE    TT2112         20221006180D0204140              AVSSH 1.25F W            CCN000001600000001600FN00000000020221101000001600NNM20 20220909145952    1W    00000080000001458000000000032DE    TVYEV-TV000000000000VT429067
BI00B32DE    @TT2113        20221006181E50000ZZ              AVSSCS-S 0.5FX1 DGY/BR   CCN000001200000001200FN00000000020221101000001200NNM20 20220909153829    1W    00000040000001909700000000032DE    TVYEV-TV000000000000VT12A002
BI00B32DE    @TT2113        20221006181E50006ZZ              AVSSCS-S 0.5FX1 DGY/Y    CCN000001200000001200FN00000000020221101000001200NNM20 20220909150553    1W    00000040000001909700000000032DE    TVYEV-TV000000000000VT12A006
BI00B32DE    @TT2113        20221006181E50007ZZ              AVSSCS-S 0.5FX1 DGY/L    CCN000001200000001200FN00000000020221101000001200NNM20 20220909150612    1W    00000040000001909700000000032DE    TVYEV-TV000000000000VT12A004
BI00B32DE    @TT2113        20221006181F21014ZZ              AVSSHCS-S 0.5FX2 B/L     CCN000002400000002400FN00000000020221101000002400NNM20 20220909150631    1W    00000030000002531400000000032DE    TVYEV-TV000000000000VT12A017
BI00B32DE    @TT2113        20221006181F21016ZZ              AVSSHCS-S 0.5FX2 B/BR    CCN000003600000003600FN00000000020221101000003600NNM20 20220909150644    1W    00000030000002531400000000032DE    TVYEV-TV000000000000VT12A016
BI00B32DE    @TT2113        20221006181F21027ZZ              AVSSHCS-S 1.25FX2 B      CCN000002600000002600FN00000000020221101000002600NNM20 20220909150657    1W    00000020000004267300000000032DE    TVYEV-TV000000000000VT12A021
BI00B32DE    @TT2112        20221012181AD2008ZZ              CIVUSAS-S 0.5X2 B        CCN000000400000000000FY00000000020221101000000000NNM10 20220909152850    1W    00000040000002028000000000032DE    TVYEV-TV000000000000VT429002
BI00B32G7    JW2211A MW     2022100618007703990              AVSS 0.5F L              CCN000001500000001500FN00000000020221101000001500NNE   20220909135751    1W    00000150000000674000000000032G7    JIJAI   000000000000JO329006
BI00B32G7    @JW2211A MW    20221006181E48032ZZ              CAVSAS-S 0.3X2 GY/P      CCN000002100000002100FN00000000020221101000002100NNE   20220909135750    1W    00000035000002008700000000032G7    JIJAI   000000000000JO329001
BI00B32G7    @JW2211A MW    20221006181E48040ZZ              CAVSAS-S 0.3X2 GY/V      CCN000003500000003500FN00000000020221101000003500NNE   20220909135750    1W    00000035000002008700000000032G7    JIJAI   000000000000JO329002
BI00B32G7    @JW2211ALMW    20221006181AD2021ZZ              CIVUSAS-S 0.35X2 B(L,GY) CCN000000900000000900FN00000000020221101000000900NNE   20220909135750    1W    00000045000001714000000000032G7    JIJAI   000000000000JP329001
BI00B32G7    JW2211AMMW     202210061801W003930              IVSSH 0.5F B             CCN000005400000005400FN00000000020221101000005400NNE   20220909135752    1W    00000180000000625000000000032G7    JIJAI   000000000000JR329001
BI00B32G7    JW2211AMMW     202210061801W003950              IVSSH 0.5F R             CCN000007200000007200FN00000000020221101000007200NNE   20220909135752    1W    00000180000000625000000000032G7    JIJAI   000000000000JR329004
BI00B32G7    JW2211AMMW     202210061801W003960              IVSSH 0.5F G             CCN000005400000005400FN00000000020221101000005400NNE   20220909135752    1W    00000180000000625000000000032G7    JIJAI   000000000000JR329002
BI00B32G7    JW2211AMMW     202210061801W003990              IVSSH 0.5F L             CCN000041400000041400FN00000000020221101000041400NNE   20220909135752    1W    00000180000000625000000000032G7    JIJAI   000000000000JR329003
BI00B32G7    JW2211AMMW     202210061801W004030              IVSSH 0.75F B            CCN000010400000010400FN00000000020221101000010400NNE   20220909135752    1W    00000130000000882000000000032G7    JIJAI   000000000000JR329005
BI00B32G7    JW2211AMMW     202210061801W004050              IVSSH 0.75F R            CCN000013000000013000FN00000000020221101000013000NNE   20220909135752    1W    00000130000000882000000000032G7    JIJAI   000000000000JR329006
BI00B32G7    JW2211AMMW     202210061801W004070              IVSSH 0.75F Y            CCN000010400000010400FN00000000020221101000010400NNE   20220909135752    1W    00000130000000882000000000032G7    JIJAI   000000000000JR329007
BI00B32G7    JW2211AMMW     202210061801W006940              IVSSH 0.35F W            CCN000017500000017500FN00000000020221101000017500NNE   20220909135752    1W    00000250000000452000000000032G7    JIJAI   000000000000JR329013
BI00B32G7    JW2211AMMW     202210061801W006950              IVSSH 0.35F R            CCN000002500000002500FN00000000020221101000002500NNE   20220909135752    1W    00000250000000452000000000032G7    JIJAI   000000000000JR329011
BI00B32G7    JW2211AMMW     202210061801W006952              IVSSH 0.35F P            CCN000010000000010000FN00000000020221101000010000NNE   20220909135752    1W    00000250000000452000000000032G7    JIJAI   000000000000JR329010
BI00B32G7    JW2211AMMW     202210061801W006960              IVSSH 0.35F G            CCN000007500000007500FN00000000020221101000007500NNE   20220909135752    1W    00000250000000452000000000032G7    JIJAI   000000000000JR329008
BI00B32G7    JW2211AMMW     202210061801W006970              IVSSH 0.35F Y            CCN000025000000025000FN00000000020221101000025000NNE   20220909135752    1W    00000250000000452000000000032G7    JIJAI   000000000000JR329014
BI00B32G7    JW2211AMMW     202210061801W006990              IVSSH 0.35F L            CCN000010000000010000FN00000000020221101000010000NNE   20220909135752    1W    00000250000000452000000000032G7    JIJAI   000000000000JR329009
BI00B32G7    JW2211AMMW     202210061801W006992              IVSSH 0.35F V            CCN000025000000025000FN00000000020221101000025000NNE   20220909135752    1W    00000250000000452000000000032G7    JIJAI   000000000000JR329012
BI00B32J1    @398087        20221003181AD2001ZZ              CIVUSAS-S 0.35X1 B       CCN000014850000014850FN00000000020221001000014850NNE   20220909135406    1W    00000055000001540800000000032J1    UKYEL-BL000000000000KG329001
BI00B32J1    @398087        20221003181AD2002ZZ              CIVUSAS-S 0.35X2 B       CCN000017100000017100FN00000000020221001000017100NNE   20220909135406    1W    00000045000001713700000000032J1    UKYEL-BL000000000000KG329003
BI00B32J1    @398087        20221003181AD2003ZZ              CIVUSAS-S 0.35X3 B       CCN000003500000003500FN00000000020221001000003500NNE   20220909135406    1W    00000035000002172100000000032J1    UKYEL-BL000000000000KG329004
BI00B32J1    @398087        20221003181AD2009ZZ              CIVUSAS-S 0.5X3 B        CCN000000600000000600FN00000000020221001000000600NNE   20220909135406    1W    00000030000002716800000000032J1    UKYEL-BL000000000000KG329002
BI00B32J1    @398087        20221003181E48013ZZ              CAVSAS-S 0.3X3 GY        CCN000000250000000250FN00000000020221001000000250NNE   20220909135406    1W    00000025000002778200000000032J1    UKYEL-BL000000000000KG329005
BI00B32M8    PM2210C MW     2022092818007704160              AVSS 1.25F G             CCN000001600000001600FN00000000020221001000001600NNE   20220909135245    1W    00000080000001389000000000032M8    PMPEMI  000000000000IK229001
BI00B32M8    PM2210C MW     2022092818007704190              AVSS 1.25F L             CCN000000800000000800FN00000000020221001000000800NNE   20220909135245    1W    00000080000001389000000000032M8    PMPEMI  000000000000IK229002
BI00B32M8    PM2210C MW     2022092818007704150              AVSS 1.25F R             CCN000001600000001600FN00000000020221001000001600NNE   20220909135245    1W    00000080000001389000000000032M8    PMPEMI  000000000000IK229003
BI00B32M8    PM2210CTMW     202209281801W003952              IVSSH 0.5F P             CCN000001800000001800FN00000000020221001000001800NNE   20220909135246    1W    00000180000000625000000000032M8    PMPEMI  000000000000IF229001
