AE00TI102209090609/09/202200000001400000000000000009573KGM  00000014175KGM  7116-4231-02             TERMINAL                 7116423102               0         0         0         0    0    0    00036400000002600000000022000080080000
AE00TI102209090609/09/202200000000300000000000000002017KGM  00000002873KGM  7126-8850-02             TERMINAL                 7126885002               0         0         0         0    0    0    00002700000000900000000058000015660000
AE00TI102209090609/09/202200000001200000000000000008878KGM  00000012300KGM  7126-8851-02             TERMINAL                 7126885102               0         0         0         0    0    0    00010800000000900000000060000064800000
AE00TI102209090609/09/202200000000400000000000000001000KGM  00000001224KGM  7158-3003-90             RUBBER STOPPER           7158300390               0         0         0         0    0    0    00008000000002000000000012000009600000
AE00TI102209090609/09/202200000000200000000000000001459KGM  00000001666KGM  7182-2412                HOUSING MALE             71822412                 0         0         0         0    0    0    00000100000000050000000638000006380000
AE00TI102209090609/09/202200000004000000000000000009592KGM  00000019592KGM  7271-1820-30             CASE SUB ASSY,ECU        7271182030               0         0         0         0    0    0    00000072000000001800009576000068947200
AE00TI102209090609/09/202200000000200000000000000001618KGM  00000002058KGM  7282-4576                HOUSING MALE ASS'Y       72824576                 0         0         0         0    0    0    00000480000000240000000221000010608000
AE00TI102209090609/09/202200000000300000000000000002894KGM  00000003524KGM  7282-4577                HOUSING MALE ASS'Y       72824577                 0         0         0         0    0    0    00000720000000240000000229000016488000
AE00TI102209090609/09/202200000000500000000000000003913KGM  00000004963KGM  7282-4578                HOUSING MALE ASS'Y       72824578                 0         0         0         0    0    0    00000600000000120000000255000015300000
AE00TI102209090609/09/202200000000400000000000000004253KGM  00000005133KGM  7282-4855                HOUSING MALE ASS'Y       72824855                 0         0         0         0    0    0    00000480000000120000000347000016656000
AE00TI102209090609/09/202200000000100000000000000000620KGM  00000000732KGM  7282-7040                HOUSING MALE ASS'Y       72827040                 0         0         0         0    0    0    00000120000000120000000687000008244000
AE00TI102209090609/09/202200000000100000000000000000491KGM  00000000604KGM  7282-7420-40             CONNECTOR MALE ASS'Y     7282742040               0         0         0         0    0    0    00000100000000100000000642000006420000
AE00TI102209090609/09/202200000001800000000000000018317KGM  00000022277KGM  7282-9391                HOUSING MALE ASS'Y       72829391                 0         0         0         0    0    0    00002160000000120000000325000070200000
AE00TI102209090609/09/202200000000200000000000000001303KGM  00000001743KGM  7283-4576                HOUSING FEMALE ASS'Y     72834576                 0         0         0         0    0    0    00000960000000480000000128000012288000
AE00TI102209090609/09/202200000000100000000000000000838KGM  00000001058KGM  7283-4578                HOUSING FEMALE ASS'Y     72834578                 0         0         0         0    0    0    00000240000000240000000190000004560000
AE00TI102209090609/09/202200000000100000000000000000724KGM  00000000874KGM  7283-5832                CONNECTOR HOUSING        72835832                 0         0         0         0    0    0    00000240000000240000000206000004944000
AE00TI102209090609/09/202200000000100000000000000000724KGM  00000000874KGM  7283-5832-30             CONNECTOR HOUSING        7283583230               0         0         0         0    0    0    00000240000000240000000208000004992000
AE00TI102209090609/09/202200000000100000000000000000889KGM  00000001132KGM  7283-5843                CONNECTOR                72835843                 0         0         0         0    0    0    00000150000000150000000280000004200000
AE00TI102209090609/09/202200000000200000000000000000888KGM  00000001213KGM  7283-5845                CONNECTOR HOUSING        72835845                 0         0         0         0    0    0    00001200000000600000000133000015960000
AE00TI102209090609/09/202200000000200000000000000000700KGM  00000000925KGM  7283-8721-30             HOUSING FEMALE ASS'Y     7283872130               0         0         0         0    0    0    00000200000000100000000415000008300000
AE00TI102209090609/09/202200000000200000000000000001588KGM  00000001813KGM  7283-8730-30             HOUSING FEMALE ASS'Y     7283873030               0         0         0         0    0    0    00000400000000200000000426000017040000
AE00TI102209090609/09/202200000000400000000000000003642KGM  00000004522KGM  7286-3885                CONNECTOR MALE ASS'Y     72863885                 0         0         0         0    0    0    00000480000000120000000295000014160000
AE00TI102209090609/09/202200000000300000000000000002732KGM  00000003392KGM  7286-3885-40             CONNECTOR MALE ASS'Y     7286388540               0         0         0         0    0    0    00000360000000120000000313000011268000
AE00TI102209090609/09/202200000000200000000000000001955KGM  00000002328KGM  7286-3970                CONNECTOR HOUSING        72863970                 0         0         0         0    0    0    00000022000000011000002089000004595800
AE00TI102209090609/09/202200000001200000000000000009216KGM  00000011736KGM  7286-4097                CONNECTOR MALE ASS'Y     72864097                 0         0         0         0    0    0    00001920000000160000000196000037632000
AE00TI102209090609/09/202200000000200000000000000002122KGM  00000002625KGM  7287-1917                CONNECTOR FEMALE         72871917                 0         0         0         0    0    0    00000480000000240000000253000012144000
AE00TI102209090609/09/202200000000200000000000000002059KGM  00000002499KGM  7287-3885                HYBRID FEMALE ASS'Y      72873885                 0         0         0         0    0    0    00000480000000240000000207000009936000
AE00TI102209090609/09/202200000000100000000000000001030KGM  00000001250KGM  7287-3885-40             HYBRID FEMALE ASS'Y      7287388540               0         0         0         0    0    0    00000240000000240000000216000005184000
AE00TI102209090609/09/202200000000100000000000000001229KGM  00000001449KGM  7287-8999                HOUSING FEMALE ASS'Y     72878999                 0         0         0         0    0    0    00000480000000480000000163000007824000
AE00TI102209090609/09/202200000000100000000000000001229KGM  00000001449KGM  7287-8999-30             HOUSING FEMALE ASS'Y     7287899930               0         0         0         0    0    0    00000480000000480000000168000008064000
AE00TI102209090609/09/202200000000200000000000000002458KGM  00000002898KGM  7287-9000                HOUSING FEMALE ASS'Y     72879000                 0         0         0         0    0    0    00000960000000480000000162000015552000
AE00TI102209090609/09/202200000000100000000000000000388KGM  00000000788KGM  7288-3206                HOUSING MALE ASS'Y       72883206                 0         0         0         0    0    0    00000102000000102000000351000003580200
AE00TI102209090609/09/202200000002000000000000000013728KGM  00000018028KGM  7289-3342                HOUSING FEMALE ASS'Y     72893342                 0         0         0         0    0    0    00004800000000240000000186000089280000
AE00TI102209090609/09/202200000001100000000000000007550KGM  00000009915KGM  7289-3342-30             HOUSING FEMALE ASS'Y     7289334230               0         0         0         0    0    0    00002640000000240000000191000050424000
AE00TI102209090609/09/202200000001000000000000000006864KGM  00000009014KGM  7289-3342-40             HOUSING FEMALE ASS'Y     7289334240               0         0         0         0    0    0    00002400000000240000000192000046080000
AE00TI102209090609/09/202200000002500000000000000017160KGM  00000022535KGM  7289-3342-90             HOUSING FEMALE ASS'Y     7289334290               0         0         0         0    0    0    00006000000000240000000196000117600000
AE00TI102209090609/09/202200000000300000000000000003515KGM  00000004106KGM  7289-5011-30             HOUSING FEMALE ASS'Y     7289501130               0         0         0         0    0    0    00000720000000240000000333000023976000
AE00TI102209090609/09/202200000000100000000000000001351KGM  00000001666KGM  7289-6524-30             HOUSING FEMALE ASS'Y     7289652430               0         0         0         0    0    0    00000024000000024000004757000011416800
AE00TI102209090609/09/202200000000100000000000000001152KGM  00000001362KGM  7289-6547                HOUSING FEMALE ASS'Y     72896547                 0         0         0         0    0    0    00000240000000240000000229000005496000
AE00TI102209090609/09/202200000000400000000000000005116KGM  00000006374KGM  7289-7208-30             HOUSING FEMALE ASS'Y     7289720830               0         0         0         0    0    0    00000096000000024000004419000042422400
AE00TI102209090609/09/202200000000200000000000000002614KGM  00000003244KGM  7289-7211-30             HOUSING FEMALE ASS'Y     7289721130               0         0         0         0    0    0    00000048000000024000004728000022694400
AE00TI102209090609/09/202200000000100000000000000000533KGM  00000000729KGM  7298-2457-90             LIF FEMALE ASSEMBLY      7298245790               0         0         0         0    0    0    00000016800000016800001464000002459520
AE00TI102209090609/09/202200000000100000000000000001162KGM  00000001285KGM  7386-2747                CONNECTOR ASS'Y          73862747                 0         0         0         0    0    0    00000200000000200000000413000008260000
AE00TI102209090609/09/202200000001800000000000000000000KGM  00000000000KGM  7470-5308E               J/B COMPLETE ASS'Y       74705308E                0         0         0         0    0    0    00000018000000001000000000000000000000
AE00TI102209090609/09/202200000001000000000000000000000KGM  00000000000KGM  7470-5784E1              J/B COMPLETE ASS'Y       74705784E1               0         0         0         0    0    0    00000010000000001000000000000000000000
AE00TI102209090709/09/202200000003100000000000000010249KGM  00000011966KGM  7158-3006-90             RUBBER STOPPER           7158300690               0         0         0         0    0    0    00062000000002000000000016000099200000
AE00TI102209090709/09/202200000001100000000000000003718KGM  00000004248KGM  7158-3009-60             RUBBER STOPPER           7158300960               0         0         0         0    0    0    00022000000002000000000012000026400000
AE00TI102209090709/09/202200000001600000000000000001664KGM  00000002438KGM  7158-3166-60             WIRE SEAL                7158316660               0         0         0         0    0    0    00064000000004000000000004000025600000
AE00TI102209090709/09/202200000004400000000000000002112KGM  00000004796KGM  7158-3167-80             WIRE SEAL                7158316780               0         0         0         0    0    0    00088000000002000000000005000044000000
AE00TI102209090709/09/202200000001400000000000000000616KGM  00000001289KGM  7158-3168-80             SEALED                   7158316880               0         0         0         0    0    0    00028000000002000000000004000011200000
AE00TI102209090709/09/202200000000500000000000000000780KGM  00000001021KGM  7158-3169-40             SEALING PLUG             7158316940               0         0         0         0    0    0    00020000000004000000000006000012000000
AE00TI102209090709/09/202200000001200000000000000010445KGM  00000015120KGM  7370-0309                J/B ASS'Y                73700309                 0         0         0         0    0    0    00000019200000001600028585000054883200
AE00TI102209090709/09/202200000001900000000000000025080KGM  00000029830KGM  7470-3082                J/B COMPLETE ASS'Y       74703082                 0         0         0         0    0    0    00000045600000002400031298000142718880
AE00TI102209090709/09/202200000001700000000000000022440KGM  00000026690KGM  7470-4481                J/B COMPLETE ASS'Y       74704481                 0         0         0         0    0    0    00000040800000002400000000000000000000
AE00TI102209090709/09/202200000001200000000000000000000KGM  00000000000KGM  7470-4815D               J/B COMPLETE ASS'Y       74704815D                0         0         0         0    0    0    00000018000000001500000000000000000000
AE00TI102209090709/09/202200000001000000000000000000000KGM  00000000000KGM  7470-4816D               J/B COMPLETE ASS'Y       74704816D                0         0         0         0    0    0    00000015000000001500000000000000000000
AE00TI102209090709/09/202200000000600000000000000000000KGM  00000000000KGM  7470-4818D               J/B COMPLETE ASS'Y       74704818D                0         0         0         0    0    0    00000009000000001500000000000000000000
AE00TI102209090709/09/202200000001500000000000000000000KGM  00000000000KGM  7470-5300E               J/B COMPLETE ASS'Y       74705300E                0         0         0         0    0    0    00000015000000001000000000000000000000
AE00TI102209090709/09/202200000000700000000000000000000KGM  00000000000KGM  7470-5308E               J/B COMPLETE ASS'Y       74705308E                0         0         0         0    0    0    00000007000000001000000000000000000000
AE00TI102209090709/09/202200000001400000000000000000000KGM  00000000000KGM  7470-5784D               J/B COMPLETE ASS'Y       74705784D                0         0         0         0    0    0    00000021000000001500000000000000000000
AE00TI102209090709/09/202200000001100000000000000000000KGM  00000000000KGM  7470-5784E               J/B COMPLETE ASS'Y       74705784E                0         0         0         0    0    0    00000011000000001000000000000000000000
