BI00B1200    O022K50338     202211037298-1187-30             SHUNT RING ASSEMBLY      CCN000030000000030000FN00000000020221201000030000NNE   20220909121722    4N0N  0000100000000064700000076951200    YCYC    005400370024
BI00B1200    Y022L50052     202211177116-4112-02             TERMINAL                 CCN000300000000300000FN00000000020221201000300000NNE   20220909121722    4P0P  0000060000000045000000073821200    YCYC    006400630015
BI00B1200    Y022L50054     202211177196-0648-02             TERMINAL                 CCN000015000000015000FN00000000020221201000015000NNM   20220909121722    4P0P  0000150000000035550000068971200    YCYC    006400630015
BI00B1200    Y022L50055     202211177196-0648-02             TERMINAL                 CCN000015000000015000FN00000000020221201000015000NNM   20220909121722    4P0P  0000150000000035550000068971200    YCYC    006400630015
BI00B32BF    TT22125BMW     202211157114-5748-02             TERMINAL                 CCN000012000000000000FY00000000020221201000000000NNMQ0820220909143331    4P0P  00001200000000444000000737632BF    TTTJYCD 006400630015
BI00B32CA    PTA33032       202211247116-3153-02             TERMINAL FEMALE          CCN000792000000810000FN00000000020230301000810000NNE   20220909121722    4P0P  00002700000000459000000744232CA    YPYPY   006400630015
BI00B32EJ    T220907P02     202210207283-5843                CONNECTOR                CCN000055500000030000FN00000000020221001000030000NNEQ0220220909121722EJ  1N0N  00000150000000889000001132032EJ    EJYKBO  005600390040
BI00B32EJ    T220908P01     202210207116-4104-02             TERMINAL                 CCN000048000000048000FN00000000020221001000048000NNE   20220909121722EJ  4P0P  00001200000000580800000972432EJ    EJYKBO  006400630015
BI00B32EJ    T220908P01     202210207116-4102-02             TERMINAL                 CCN000180000000180000FN00000000020221001000180000NNE   20220909121722EJ  4P0P  00001200000000553200000841432EJ    EJYKBO  006400630015
BI00B32EJ    T220908P01     202210207114-4101-02             TERMINAL                 CCN000045000000045000FN00000000020221001000045000NNE   20220909121722EJ  4P0P  00001500000000675000001003632EJ    EJYKBO  006400630017
BI00B32EJ    T220908P01     202210207116-4100-02             TERMINAL                 CCN000225000000225000FN00000000020221001000225000NNE   20220909121722EJ  4P0P  00001500000000696000000990232EJ    EJYKBO  006400630015
BI00B32EJ    T220908P01     202210207116-2951-02             TERMINAL                 CCN000135000000135000FN00000000020221001000135000NNE   20220909121722EJ  4P0P  00000540000000817600001111832EJ    EJYKBO  006400630015
BI00B32EJ    T220907P02     202210277283-5843                CONNECTOR                CCN000025500000025500FN00000000020221001000025500NNED0220220909121722EJ  1N0N  00000150000000889000001132032EJ    EJYKBO  005600390040
BI00B32G7    #JJ2210E MW    202209227183-2413                CONNECTOR HOUSING        CCN000004800000004800FN00000000020221001000004800NNE   20220909160012    2F0F  00000480000000478100000760032G7    JIJAI   005500360039
BI00B32G7    JJ2211A MW     202210067017-1180-02             TERMINAL                 CCN000072000000072000FN00000000020221101000072000NNE   20220909160047    4P0P  00007200000001065600001229032G7    JIJAI   005100280028
BI00B32G7    JJ2211A MW     202210067114-4021                TERMINAL                 CCN000015000000015000FN00000000020221101000015000NNE   20220909160047    4P0P  00001500000000670500000964132G7    JIJAI   006400630015
BI00B32G7    JJ2211A MW     202210067116-4020                TERMINAL                 CCN000040500000040500FN00000000020221101000040500NNE   20220909160047    4P0P  00001350000000513000000798232G7    JIJAI   006400630015
BI00B32G7    JJ2211A MW     202210067116-4022                TERMINAL                 CCN000013500000013500FN00000000020221101000013500NNE   20220909160047    4P0P  00001350000000618300000903532G7    JIJAI   006400630015
BI00B32G7    JJ2211A MW     202210067116-4780-02             TERMINAL FEMALE          CCN000015000000015000FN00000000020221101000015000NNE   20220909160047    4P0P  00001500000000691500000985732G7    JIJAI   006400630015
BI00B32G7    JJ2211A MW     202210067116-5044-02             TERMINAL                 CCN000064000000064000FN00000000020221101000064000NNE   20220909160047    4P0P  00001600000000641600000986332G7    JIJAI   006400630017
BI00B32G7    JJ2211A MW     202210067116-5750-02             TERMINAL                 CCN000015000000015000FN00000000020221101000015000NNE   20220909160047    4P0P  00001500000000457500000742732G7    JIJAI   006400630015
BI00B32G7    JJ2211A MW     202210067116-5751-02             TERMINAL                 CCN000012000000012000FN00000000020221101000012000NNE   20220909160047    4P0P  00001200000000379200000664432G7    JIJAI   006400630015
BI00B32G7    JJ2211A MW     202210067116-5752-02             TERMINAL                 CCN000021000000021000FN00000000020221101000021000NNE   20220909160047    4P0P  00002100000000571200000856432G7    JIJAI   006400630015
BI00B32G7    JJ2211A MW     202210067116-6041                TERMINAL                 CCN000009000000009000FN00000000020221101000009000NNE   20220909160047    4P0P  00000450000000716000001009632G7    JIJAI   006400630015
BI00B32G7    JJ2211A MW     202210067126-8853-02             TERMINAL                 CCN000015000000015000FN00000000020221101000015000NNE   20220909160047    4P0P  00000750000000562500000847732G7    JIJAI   006400630015
BI00B32G7    JJ2211A MW     202210067126-8855-02             TERMINAL                 CCN000018000000018000FN00000000020221101000018000NNE   20220909160047    4P0P  00000600000000510600000795832G7    JIJAI   006400630015
BI00B32G7    JJ2211A MW     202210067158-3006-90             RUBBER STOPPER           CCN000220000000220000FN00000000020221101000220000NNE   20220909160047    1C0C  00002000000000330600000386032G7    JIJAI   002700430014
BI00B32G7    #JJ2211A MW    202210067158-3003-90             RUBBER STOPPER           CCN000160000000160000FN00000000020221101000160000NNE   20220909160025    2C0C  00002000000000250000000306032G7    JIJAI   002700430014
BI00B32G7    #JJ2211A MW    202210067158-3017                RUBBER STOPPER           CCN000030000000030000FN00000000020221101000030000NNE   20220909160025    2C0C  00001000000000375500000435032G7    JIJAI   002700430014
BI00B32G7    JJ2211AKMW     202210067114-4416-02             TERMINAL MALE            CCN000027000000027000FN00000000020221101000027000NNE   20220909160113    4P0P  00002700000000442800000731032G7    JIJAI   006400630015
BI00B32G7    JJ2211AKMW     202210067298-2509-30             HOUSING FEMALE ASS'Y     CCN000003600000003600FN00000000020221101000003600NNE   20220909160113    4N0N  00000120000000857500001062532G7    JIJAI   005500360039
BI00B32G7    JJ2211ALMW     202210067116-4114-02             TERMINAL                 CCN000021000000021000FN00000000020221101000021000NNE   20220909160133    4P0P  00001050000000693000000981232G7    JIJAI   006400630015
BI00B32G7    JJ2211ALMW     202210067116-4115-02             TERMINAL                 CCN000008400000008400FN00000000020221101000008400NNE   20220909160133    4P0P  00000840000000593000000881232G7    JIJAI   006400630015
BI00B32G7    JJ2211ALMW     202210067116-4116-02             TERMINAL                 CCN000013800000013800FN00000000020221101000013800NNE   20220909160133    4P0P  00000690000000517500000805732G7    JIJAI   006400630015
BI00B32G7    JJ2211AMMW     202210067196-1104-02             TERMINAL                 CCN000180000000180000FN00000000020221101000180000NNE   20220909160142    4P0P  00002250000000441000000726232G7    JIJAI   006400630015
BI00B32G7    JJ2211AMMW     202210067327-6627-3W             BATTERY FUSE             CCN000001800000001824FN00000000020221101000001824NNE   20220909160142    4N0N  00000009600001332300001534632G7    JIJAI   005500360039
BI00B32G7    #JJ2211AMMW    202210067172-5626-90             RUBBER STOPPER           CCN000100000000100000FN00000000020221101000100000NNE   20220909160120    2H0H  00002000000000076400000127832G7    JIJAI   004300270014
BI00B32G7    #JJ2211AMMW    202210067172-5627-60             RUBBER STOPPER           CCN000240000000240000FN00000000020221101000240000NNE   20220909160120    2H0H  00002000000000070400000121832G7    JIJAI   004300270014
BI00B32G7    #JJ2211AMMW    202210067172-5630-40             RUBBER STOPPER           CCN000420000000420000FN00000000020221101000420000NNE   20220909160120    2H0H  00002000000000044000000095132G7    JIJAI   004300270014
BI00B32G7    #JJ2211AMMW    202210067172-5631-60             RUBBER STOPPER           CCN000120000000120000FN00000000020221101000120000NNE   20220909160120    2H0H  00002000000000042000000093132G7    JIJAI   004300270014
BI00B32G7    #JJ2211AMMW    202210067172-5632-10             DUMMY PLUG               CCN000100000000100000FN00000000020221101000100000NNE   20220909160120    2H0H  00002000000000080400000131832G7    JIJAI   004300270014
BI00B32G7    #JJ2211AMMW    202210067289-3622-30             HOUSING FEMALE ASS'Y     CCN000000864000000864FN00000000020221101000000864NNE   20220909160120    2N0N  00000043200000839400001038432G7    JIJAI   005400370024
BI00B32G7    @JJ2211AMMW    202210067287-4098-40             CONNECTOR FEMALE         CCN000002400000002400FN00000000020221101000002400NNE   20220909160132    3N0N  00000240000000672500000908032G7    JIJAI   005500360039
BI00B32H2    TIJ2111        202210177196-1946-02             TERMINAL FEMALE          CCN000009000000000000FY00000000020221101000000000NNMQ0820220909130808    4P0P  00000900000000405000000690232H2    HVYHV   006400630015
BI00B32H2    TIJ2111        202210177196-1947-02             TERMINAL FEMALE          CCN000009000000000000FY00000000020221101000000000NNMQ0820220909130820    4POP  00000900000000407700000692932H2    HVYHV   006400630015
BI00B32H2    #TIJ2111       202210177172-5627-60             RUBBER STOPPER           CCN000020000000000000FY00000000020221101000000000NNMQ0820220909160700    2H0H  00002000000000070400000121832H2    HVYHV   004300270014
BI00B32J1    398203         202210247B58-3070-80             RUBBER STOPPER           CCN000040000000040000FN00000000020221001000040000NNE   20220909121722    1C0C  00004000000000276000000333032J1    UKYEL-BL004300270014
BI00B32J1    398203         202210247114-1475                TERMINAL                 CCN000013500000013500FN00000000020221001000013500NNE   20220909121722    4P0P  00001350000000480600000774232J1    UKYEL-BL006400630015
BI00B32J1    398203         202210247114-1670-02             TERMINAL                 CCN000024000000024000FN00000000020221001000024000NNE   20220909121722    1P0P  00002400000000357600000645832J1    UKYEL-BL006400630015
BI00B32J1    398203         202210247114-6041                TERMINAL                 CCN000032400000032400FN00000000020221001000032400NNE   20220909121722    4P0P  00000360000000580700000824232J1    UKYEL-BL006400630015
BI00B32J1    398203         202210247158-3070-80             RUBBER STOPPER           CCN000120000000120000FN00000000020221001000120000NNE   20220909121722    1C0C  00004000000000276000000333332J1    UKYEL-BL002700430014
BI00B32J1    398203         202210247158-3165-90             WIRE SEAL                CCN000160000000160000FN00000000020221001000160000NNE   20220909121722    1C0C  00004000000000124000000172432J1    UKYEL-BL004300270014
BI00B32J1    398203         202210247282-5574-10             CONNECTOR                CCN000001600000001600FN00000000020221001000001600NNE   20220909121722    4N0N  00000080000001235000001423032J1    UKYEL-BL005600390040
BI00B32J1    398203         202210247298-2509-30             HOUSING FEMALE ASS'Y     CCN000001200000001200FN00000000020221001000001200NNE   20220909121722    4N0N  00000120000000857500001062532J1    UKYEL-BL005500360039
BI00B32J1    398203         202210247327-6890-3W             BATTERY FUSE             CCN000000216000000216FN00000000020221001000000216NNE   20220909121722    4N0N  00000007200001140800001355632J1    UKYEL-BL005500360039
BI00B32J1    #398203        202210247157-3950-80             SEAL RUBBER              CCN000040000000040000FN00000000020221001000040000NNE   20220909121722    2C0C  00004000000000154000000440332J1    UKYEL-BL002700430014
BI00B32J1    #398203        202210247158-3120-90             CONNECTOR WIRE SEAL      CCN000100000000100000FN00000000020221001000100000NNE   20220909121722    2C0C  00002000000000136000000194032J1    UKYEL-BL002700430014
BI00B32J1    #398203        202210247158-3121-80             WIRE SEAL                CCN000020000000020000FN00000000020221001000020000NNE   20220909121722    2C0C  00002000000000118000000187332J1    UKYEL-BL002700430014
BI00B32J1    #398203        202210247183-7725-40             HOUSING                  CCN000060000000060000FN00000000020221001000060000NNE   20220909121722    2F0F  00000600000000840000001040032J1    UKYEL-BL005600390040
BI00B32J1    #398203        202210247283-8226-30             CONNECTOR                CCN000160000000160000FN00000000020221001000160000NNE   20220909121722    2N0N  00000200000000820000001008032J1    UKYEL-BL005400370024
BI00B32J1    398204         202211077158-3165-90             WIRE SEAL                CCN000320000000320000FN00000000020221101000320000NNE   20220909121722    1C0C  00004000000000124000000172432J1    UKYEL-BL004300270014
BI00B32J1    398204         202211077283-8630                CONNECTOR ASS'Y          CCN000012000000012000FN00000000020221101000012000NNE   20220909121722    4N0N  00000600000000540000000701332J1    UKYEL-BL005400370024
BI00B32J1    #398204        202211077157-3821                RUBBER STOPPER           CCN000020000000020000FN00000000020221101000020000NNE   20220909121722    2C0C  00002000000000176000000238032J1    UKYEL-BL002700430014
BI00B32J1    398099         202210037B58-3070-80             RUBBER STOPPER           CCN000920000000920000FN00000000020221001000920000NNM   20220909121722    1C0C  00004000000000276000000333032J1    UKYEL-BL004300270014
BI00B32J1    398099         202210037116-6042                TERMINAL                 CCN000006000000006000FN00000000020221001000006000NNM   20220909121722    4P0P  00000300000000523800000856132J1    UKYEL-BL006400630015
BI00B32J1    398099         202210037158-3070-80             RUBBER STOPPER           CCN000040000000040000FN00000000020221001000040000NNM   20220909121722    1C0C  00004000000000276000000333332J1    UKYEL-BL002700430014
BI00B32J1    398099         202210037158-3165-90             WIRE SEAL                CCN000280000000280000FN00000000020221001000280000NNM   20220909121722    1C0C  00004000000000124000000172432J1    UKYEL-BL004300270014
BI00B32J1    398099         202210037158-3166-60             WIRE SEAL                CCN002160000002160000FN00000000020221001002160000NNM   20220909121722    1C0C  00004000000000104000000152432J1    UKYEL-BL002700430014
BI00B32J1    398099         202210037158-3167-61             WIRE SEAL                CCN000120000000120000FN00000000020221001000120000NNM   20220909121722    1C0C  00002000000000048000000096432J1    UKYEL-BL004300270014
BI00B32J1    398099         202210037158-3167-80             WIRE SEAL                CCN002640000002640000FN00000000020221001002640000NNM   20220909121722    1C0C  00002000000000048000000109032J1    UKYEL-BL002700430014
BI00B32J1    398099         202210037158-3168-80             SEALED                   CCN001240000001240000FN00000000020221001001240000NNM   20220909121722    1C0C  00002000000000044000000092132J1    UKYEL-BL004300260014
BI00B32J1    398099         202210037196-0104-02             TERMINAL                 CCN000038000000038000FN00000000020221001000038000NNM   20220909121722    4P0P  00003800000000570000000956432J1    UKYEL-BL006400630017
BI00B32J1    398099         202210037196-1461-02             TERMINAL FEMALE          CCN000288000000288000FN00000000020221001000288000NNM   20220909121722    4P0P  00002400000000386400000671632J1    UKYEL-BL006400630015
BI00B32J1    398099         202210037282-6448-40             CONNECTOR                CCN000002400000002400FN00000000020221001000002400NNM   20220909121722    4N0N  00000080000000887000001152732J1    UKYEL-BL005600390040
BI00B32J1    398099         202210037283-5846                HOUSING                  CCN000013500000013500FN00000000020221001000013500NNM   20220909121722    1N0N  00000150000000885000001102032J1    UKYEL-BL005600390040
BI00B32J1    398099         202210037283-6448-40             CONNECTOR                CCN000006000000006000FN00000000020221001000006000NNM   20220909121722    4N0N  00000150000001087000001329032J1    UKYEL-BL005600390040
BI00B32J1    398099         202210037283-8630                CONNECTOR ASS'Y          CCN000006000000006000FN00000000020221001000006000NNM   20220909121722    4N0N  00000600000000540000000701332J1    UKYEL-BL005400370024
BI00B32J1    398099         202210037298-1868-80             HOUSING FEMALE ASS'Y     CCN000004800000004800FN00000000020221001000004800NNM   20220909121722    4N0N  00000240000001028600001243532J1    UKYEL-BL005500360039
BI00B32J1    398099         202210037327-6840-3W             BATTERY FUSE             CCN000005976000005976FN00000000020221001000005976NNM   20220909121722    4N0N  00000007200001140900001355932J1    UKYEL-BL005500360039
BI00B32J1    398099         202210037370-0309                J/B ASS'Y                CCN000000320000000320FN00000000020221001000000320NNM   20220909121722    1J0J  00000001600000870400001260032J1    UKYEL-BL005500360039
BI00B32J1    #398099        202210037158-3003-90             RUBBER STOPPER           CCN000020000000020000FN00000000020221001000020000NNM   20220909121722    2C0C  00002000000000250000000306032J1    UKYEL-BL002700430014
BI00B32J1    #398099        202210037282-6457-40             CONNECTOR                CCN000008000000008000FN00000000020221001000008000NNM   20220909121722    2N0N  00000080000001137000001421332J1    UKYEL-BL005600390040
BI00B32J1    #398099        202210037283-8398-40             CONNECTOR                CCN000001540000001540FN00000000020221001000001540NNM   20220909121722    2N0N  00000154000001007000001171332J1    UKYEL-BL005600390023
BI00B32J1    #398099        202210037297-1907-30             HOUSING MALE ASS'Y       CCN000003000000003000FN00000000020221001000003000NNM   20220909121722    2N0N  00000150000000451800000568032J1    UKYEL-BL005400370024
BI00A32J1    398260         202210037114-6041                TERMINAL                 CCN000003600000003600FN00000000020221001000003600NNE   20220909161650    4P0P  00000360000000580700000824232J1    UKYEL-BL006400630015
BI00B32J1    398261         202210247126-8850-02             TERMINAL                 CCN000009000000009000FN00000000020221001000009000NNE   20220909161822    1P0P  00000900000000672300000957532J1    UKYEL-BL006400630015
BI00B32J1    398261         202210247126-8852-02             TERMINAL                 CCN000007500000007500FN00000000020221001000007500NNE   20220909161822    1P0P  00000750000000648000000933232J1    UKYEL-BL006400630015
BI00B32J1    398261         202210247370-0309                J/B ASS'Y                CCN000000032000000032FN00000000020221001000000032NNE   20220909161822    1J0J  00000001600000870400001260032J1    UKYEL-BL005500360039
BI00B32N1    NST2122DCU     202209157283-5845                CONNECTOR HOUSING        CCN000006000000006000FN00000000020220901000006000NNE00020220909160056    1N0N  00000600000000444000000606332N1    TAYIPL  005400370024
BI00B32Q8    EU2210DNMW     202209217287-0192-40             SEALED HOUSING ASS'Y     CCN000000480000000480FN00000000020221001000000480NNE   20220909160205    4N0N  00000048000001092000001322032Q8    EMEMI   005600390040
BI00B32Q8    EU2211CTMW     202209287114-5746-02             TERMINAL                 CCN000021000000021000FN00000000020221101000021000NNE   20220909160229    4P0P  00002100000000695100000988732Q8    EMEMI   006400630015
BI00B32Q8    EU2211CTMW     202209287116-5041-02             TERMINAL                 CCN000090000000090000FN00000000020221101000090000NNE   20220909160229    4P0P  00001500000000583500000868732Q8    EMEMI   006400630015
BI00B32Q8    EU2211CTMW     202209287282-0517                HOUSING MALE ASS'Y       CCN000001080000001080FN00000000020221101000001080NNE   20220909160229    4N0N  00000036000000612000000832032Q8    EMEMI   005600390040
BI00B32Q8    EU2211CTMW     202209287283-1288-40             CONNECTOR HOUSING        CCN000001200000001200FN00000000020221101000001200NNE   20220909160229    1N0N  00000120000001382000001640732Q8    EMEMI   005600390040
BI00B32Q8    EU2211CTMW     202209287283-1928-80             CONNECTOR                CCN000004000000004000FN00000000020221101000004000NNE   20220909160229    4N0N  00000200000001180000001358332Q8    EMEMI   005500360039
BI00B32Q8    EU2211CTMW     202209287283-7064-40             CONNECTOR HOUSING        CCN000000600000000600FN00000000020221101000000600NNE   20220909160229    1N0N  00000060000000585000000752032Q8    EMEMI   005400370024
BI00B32Q8    EU2211CTMW     202209287327-6803                MULTI FUSE               CCN000001680000001680FN00000000020221101000001680NNE   20220909160229    4N0N  00000056000000854600001067032Q8    EMEMI   005400370024
BI00B32Q8    EU2211DTMW     202210057283-1288-40             CONNECTOR HOUSING        CCN000001200000001200FN00000000020221101000001200NNE   20220909160235    1N0N  00000120000001382000001640732Q8    EMEMI   005600390040
BI00B32Q8    EU2211DTMW     202210057283-7064-40             CONNECTOR HOUSING        CCN000000600000000600FN00000000020221101000000600NNE   20220909160235    1N0N  00000060000000585000000752032Q8    EMEMI   005400370024
BI00B32Q8    EU2211ETMW     202210127283-7064-40             CONNECTOR HOUSING        CCN000000600000000600FN00000000020221101000000600NNE   20220909160304    1N0N  00000060000000585000000752032Q8    EMEMI   005400370024
BI00B32Q8    #EU2211ETMW    202210127158-7586-30             BLOCK LIF                CCN000000800000000800FN00000000020221101000000800NNE   20220909160302    2F0F  00000080000000617400000844232Q8    EMEMI   005500360039
BI00B32Q8    EU2211F MW     202209287017-1183-02             TERMINAL                 CCN000027000000027000FN00000000020221101000027000NNE   20220909160330    4P0P  00002700000001139400001307432Q8    EMEMI   005100280028
BI00B32Q8    EU2211FTMW     202210197283-7064-40             CONNECTOR HOUSING        CCN000000600000000600FN00000000020221101000000600NNE   20220909160347    1N0N  00000060000000585000000752032Q8    EMEMI   005400370024
BI00B32Q8    #EU2211G MW    202210057158-3017                RUBBER STOPPER           CCN000030000000030000FN00000000020221101000030000NNE   20220909160355    2C0C  00001000000000375500000435032Q8    EMEMI   002700430014
BI00B32Q8    EU2211H MW     202210127116-4122-02             TERMINAL                 CCN000004500000004500FN00000000020221101000004500NNE   20220909160414    4P0P  00000450000000656600000950232Q8    EMEMI   006400630015
BI00B32R7    R-TAP220402    202209227116-4025                TERMINAL                 CCN000096000000096000FN00000000020221001000096000NNE   20220909121722    4P0P  00001600000000644800000975132R7    IVYCIC  006400630017
BI00B32R7    R-TAP220403    202211037298-1186-40             SQUIB SUB ASS'Y          CCN000010000000010000FN00000000020221101000010000NNE   20220909121722    4N0N  00001000000000650000000774532R7    IVYCIC  005400370024
BI00B32R7    R-TAP220403    202211037298-1186-70             SQUIB SUB ASS'Y          CCN000010000000010000FN00000000020221101000010000NNE   20220909121722    4N0N  00001000000000650000000774532R7    IVYCIC  005400370024
BI00B32R7    R-TAP220404    202210277298-1186-40             SQUIB SUB ASS'Y          CCN000100000000100000FN00000000020221101000100000NNE   20220909121722    4N0N  00001000000000650000000774532R7    IVYCIC  005400370024
BI00B32R7    R-TAP220405    202211037298-1186-40             SQUIB SUB ASS'Y          CCN000070000000070000FN00000000020221101000070000NNE   20220909121722    4N0N  00001000000000650000000774532R7    IVYCIC  005400370024
BI00B32W2    HN2210AWMW     202209277B96-0805-02             TERMINAL FEMALE          CCN000022500000022500FN00000000020221001000022500NNE   20220909121722    4P0P  00002250000000558000000843232W2    HNHNY   006400630015
BI00B32W2    HN2210AWMW     202209277158-3167-80             WIRE SEAL                CCN000020000000020000FN00000000020221001000020000NNE   20220909121722    1C0C  00002000000000048000000109032W2    HNHNY   002700430014
BI00B32W2    HN2210AWMW     202209277298-4094-10             HOUSING FEMALE ASS'Y     CCN000003380000003380FN00000000020221001000003380NNE   20220909121722    4N0N  00000338000001097400001358732W2    HNHNY   005400370024
BI00B32W4    4500200171     202210087017-1181-02             TERMINAL                 CCN000063000000063000FN00000000020221101000063000NNE   20220909121722W41 4P0P  00006300000001089900001266832W41   HJYHK   005100280028
BI00A32W4    4500200151     202210247158-3167-80             WIRE SEAL                CCN000040000000040000FN00000000020221001000040000NNE   20220909121722W4G31C0C  00002000000000048000000109032W4G3  HJYHK-J 002700430014
BI00B32W4    4500200136     202211107114-4100-02             TERMINAL                 CCN000018000000018000FN00000000020221101000018000NNE   20220909121722W46 4P0P  00001800000000748800001077432W46   HJYHK   006400630017
BI00B32W4    4500200136     202211107116-4112-02             TERMINAL                 CCN000018000000018000FN00000000020221101000018000NNE   20220909121722W46 4P0P  00000600000000450000000738232W46   HJYHK   006400630015
BI00B32W4    4500200125     202211107116-4103-02             TERMINAL                 CCN000012000000012000FN00000000020221101000012000NNE   20220909121722W4A24P0P  00001200000000571200000859432W4A2  HJYHK-J 006400630015
BI00B32W4    4500200125     202211107116-4031                TERMINAL                 CCN000007500000007500FN00000000020221101000007500NNE   20220909121722W4A24P0P  00000750000000619500000904732W4A2  HJYHK-J 006400630015
BI00B32W4    4500200125     202211107116-4100-02             TERMINAL                 CCN000045000000045000FN00000000020221101000045000NNE   20220909121722W4A24P0P  00001500000000696000000990232W4A2  HJYHK-J 006400630015
BI00B32W4    4500200124     202211037116-4026                TERMINAL                 CCN000016000000016000FN00000000020221101000016000NNE   20220909121722W4A24P0P  00001600000000664000000994332W4A2  HJYHK-J 006400630017
BI00B32W4    4500200124     202211037116-4104-02             TERMINAL                 CCN000024000000024000FN00000000020221101000024000NNE   20220909121722W4A24P0P  00001200000000580800000972432W4A2  HJYHK-J 006400630015
BI00B32W4    #4500200124    202211037283-8226-30             CONNECTOR                CCN000002000000002000FN00000000020221101000002000NNE   20220909121722W4A22N0N  00000200000000820000001008032W4A2  HJYHK-J 005400370024
BI00B32W4    4500200123     202210277116-4111-02             TERMINAL                 CCN000007500000007500FN00000000020221001000007500NNE   20220909121722W4A24P0P  00000750000000529500000817732W4A2  HJYHK-J 006400630015
BI00B32W4    #4500200123    202210277147-3642-30             CLIP                     CCN000021000000021000FN00000000020221001000021000NNE   20220909121722W4A22F0F  00000300000000542000000721332W4A2  HJYHK-J 005600390040
BI00B32W4    #4500200123    202210277283-4190-30             CONNECTOR                CCN000003360000003360FN00000000020221001000003360NNE   20220909121722W4A22N0N  00000024000000846000001115532W4A2  HJYHK-J 005600390040
BI00B32W4    @4500200120    202211107287-1238-30             HOUSING FEMALE ASS'Y     CCN000003120000003120FN00000000020221101000003120NNE   20220909121722W4N23N0N  00000078000000721100001122032W4N2  HJYHK-J 005500360039
BI00B32W4    4500200118     202210277116-4112-02             TERMINAL                 CCN000006000000006000FN00000000020221001000006000NNE   20220909121722W4N24P0P  00000600000000450000000738232W4N2  HJYHK-J 006400630015
BI00B32W4    4500200118     202210277116-4102-02             TERMINAL                 CCN000024000000024000FN00000000020221001000024000NNE   20220909121722W4N24P0P  00001200000000553200000841432W4N2  HJYHK-J 006400630015
BI00B32W4    4500200118     202210277158-3165-90             WIRE SEAL                CCN000040000000040000FN00000000020221001000040000NNE   20220909121722W4N21C0C  00004000000000124000000172432W4N2  HJYHK-J 004300270014
BI00B32W4    4500200115     202303027283-5574-10             CONNECTOR                CCN000000800000000800FN00000000020230301000000800NNE   20220909121722W4464N0N  00000080000001235000001435232W446  HJYHK   005500360039
BI00B32W4    4500200108     202211107283-5623-60             CONNECTOR                CCN000001600000001600FN00000000020221101000001600NNE   20220909121722W4461N0N  00000160000001546000001846332W446  HJYHK   005600390040
BI00B32W4    4500200108     202211107116-4100-02             TERMINAL                 CCN000135000000135000FN00000000020221101000135000NNE   20220909121722W4464P0P  00001500000000696000000990232W446  HJYHK   006400630015
BI00B32W4    4500200108     202211107116-4111-02             TERMINAL                 CCN000007500000007500FN00000000020221101000007500NNE   20220909121722W4464P0P  00000750000000529500000817732W446  HJYHK   006400630015
BI00B32W4    4500200108     202211107116-4112-02             TERMINAL                 CCN000114000000114000FN00000000020221101000114000NNE   20220909121722W4464P0P  00000600000000450000000738232W446  HJYHK   006400630015
BI00B32W4    4500200108     202211107116-4102-02             TERMINAL                 CCN000132000000132000FN00000000020221101000132000NNE   20220909121722W4464P0P  00001200000000553200000841432W446  HJYHK   006400630015
BI00B32W4    4500200108     202211107116-4026                TERMINAL                 CCN000016000000016000FN00000000020221101000016000NNE   20220909121722W4464P0P  00001600000000664000000994332W446  HJYHK   006400630017
BI00B32W4    4500200108     202211107158-3168-80             SEALED                   CCN000060000000060000FN00000000020221101000060000NNE   20220909121722W4461C0C  00002000000000044000000092132W446  HJYHK   004300260014
BI00B32W4    4500200108     202211107158-3167-80             WIRE SEAL                CCN000120000000120000FN00000000020221101000120000NNE   20220909121722W4461C0C  00002000000000048000000109032W446  HJYHK   002700430014
BI00B32W4    4500200108     202211107116-4101-02             TERMINAL                 CCN000012000000012000FN00000000020221101000012000NNE   20220909121722W4464P0P  00001200000000582000000876232W446  HJYHK   006400630015
BI00B32W4    4500200108     202211107114-4110-02             TERMINAL                 CCN000015000000015000FN00000000020221101000015000NNE   20220909121722W4464P0P  00001500000000901500001230132W446  HJYHK   006400630017
BI00B32W4    4500200108     202211107116-4110-02             TERMINAL                 CCN000009000000009000FN00000000020221101000009000NNE   20220909121722W4464P0P  00000900000000594000000882232W446  HJYHK   006400630015
BI00B32W7    SC2210BJMW     202210127017-1180-02             TERMINAL                 CCN000432000000432000FN00000000020221001000432000NNE   20220909160454    4P0P  00007200000001065600001229032W7    SYSYA-CH005100280028
BI00B32W7    SC2210BJMW     202210127114-1670-02             TERMINAL                 CCN000147000000168000FN00000000020221001000168000NNE   20220909160454    1P0P  00002400000000357600000645832W7    SYSYA-CH006400630015
BI00B32W7    SC2210BJMW     202210127126-8852-02             TERMINAL                 CCN000004000000007500FN00000000020221001000007500NNE   20220909160454    1P0P  00000750000000648000000933232W7    SYSYA-CH006400630015
BI00B32W7    SC2210BJMW     202210127158-3070-80             RUBBER STOPPER           CCN000120000000120000FN00000000020221001000120000NNE   20220909160454    1C0C  00004000000000276000000333332W7    SYSYA-CH002700430014
BI00B32W7    SC2210BJMW     202210127158-3169-40             SEALING PLUG             CCN000040000000040000FN00000000020221001000040000NNE   20220909160454    1C0C  00004000000000156000000204132W7    SYSYA-CH004300260014
BI00B32W7    #SC2210BJMW    202210127123-6387-40             HOUSING FEMALE           CCN000001400000001600FN00000000020221001000001600NNE   20220909160450    2F0F  00000080000000576000000712032W7    SYSYA-CH005400370024
BI00B32W9    #4500200150    202210047158-3120-90             CONNECTOR WIRE SEAL      CCN000020000000020000FN00000000020221001000020000NNE   20220909121722W9  2C0C  00002000000000136000000194032W9    HKYHK   002700430014
BI00B32W9    4500200148     202210047158-3006-90             RUBBER STOPPER           CCN000020000000020000FN00000000020221001000020000NNE   20220909121722W9  1C0C  00002000000000330600000386032W9    HKYHK   002700430014
BI00B32W9    4500200146     202210047116-4025                TERMINAL                 CCN000016000000016000FN00000000020221001000016000NNE   20220909121722W9  4P0P  00001600000000644800000975132W9    HKYHK   006400630017
