AE00TI102209090109/09/202200000000200000000000000001245KGM  00000001524KGM  7174-1849-70             COVER                    7174184970               0         0         0         0    0    0    00005000000002500000000046000023000000
AE00TI102209090109/09/202200000000100000000000000000894KGM  00000001185KGM  7287-9234                JOINT CONNECTOR          72879234                 0         0         0         0    0    0    00000960000000960000000137000013152000
AE00TI102209090109/09/202200000001200000000000000010393KGM  00000012133KGM  7288-3329-30             HOUSING MALE             7288332930               0         0         0         0    0    0    00001800000000150000000354000063720000
AE00TI102209090109/09/202200000000100000000000000000866KGM  00000001011KGM  7288-3330-30             HOUSING MALE             7288333030               0         0         0         0    0    0    00000150000000150000000354000005310000
AE00TI102209090109/09/202200000000600000000000000005164KGM  00000006034KGM  7288-3332-30             HOUSING MALE             7288333230               0         0         0         0    0    0    00000900000000150000000354000031860000
AE00TI102209090109/09/202200000000400000000000000003468KGM  00000004048KGM  7288-3335-30             HOUSING MALE             7288333530               0         0         0         0    0    0    00000600000000150000000354000021240000
AE00TI102209090109/09/202200000000500000000000000003432KGM  00000004507KGM  7289-3342                HOUSING FEMALE ASS'Y     72893342                 0         0         0         0    0    0    00001200000000240000000186000022320000
AE00TI102209090109/09/202200000001200000000000000008237KGM  00000010817KGM  7289-3342-30             HOUSING FEMALE ASS'Y     7289334230               0         0         0         0    0    0    00002880000000240000000191000055008000
AE00TI102209090109/09/202200000001000000000000000011717KGM  00000013686KGM  7289-5011-30             HOUSING FEMALE ASS'Y     7289501130               0         0         0         0    0    0    00002400000000240000000333000079920000
AE00TI102209090109/09/202200000000300000000000000002518KGM  00000003358KGM  7289-6868-30             SEALED ASSY FEMALE       7289686830               0         0         0         0    0    0    00000756000000252000000332000025099200
AE00TI102209090109/09/202200000000200000000000000002216KGM  00000003041KGM  7289-9553-50             SEALED ASSY FEMALE       7289955350               0         0         0         0    0    0    00000588000000294000000252000014817600
AE00TI102209090109/09/202200000000400000000000000003926KGM  00000005160KGM  7298-5993-30             SEALED ASSY FEMALE       7298599330               0         0         0         0    0    0    00000873600000218400000266000023237760
AE00TI102209090109/09/202200000000900000000000000011071KGM  00000012803KGM  7327-6533-3W             BATTERY FUSE             732765333W               0         0         0         0    0    0    00000064800000007200010131000065648880
AE00TI102209090109/09/202200000000500000000000000006662KGM  00000007673KGM  7327-6627-3W             BATTERY FUSE             732766273W               0         0         0         0    0    0    00000048000000009600008444000040531200
AE00TI102209090109/09/202200000004200000000000000047918KGM  00000056948KGM  7327-6840-3W             BATTERY FUSE             732768403W               0         0         0         0    0    0    00000302400000007200009909000299648160
AE00TI102209090109/09/202200000003100000000000000023002KGM  00000034782KGM  7388-2978-30             HOUSING MALE ASS'Y       7388297830               0         0         0         0    0    0    00001488000000048000001790000266352000
AE00TI102209090109/09/202200000001800000000000000023760KGM  00000028260KGM  7470-3082                J/B COMPLETE ASS'Y       74703082                 0         0         0         0    0    0    00000043200000002400031298000135207360
AE00TI102209090109/09/202200000003000000000000000000000KGM  00000000000KGM  7470-5782D               J/B COMPLETE ASS'Y       74705782D                0         0         0         0    0    0    00000045000000001500000000000000000000
AE00TI102209090109/09/202200000001100000000000000000000KGM  00000000000KGM  7470-5784E               J/B COMPLETE ASS'Y       74705784E                0         0         0         0    0    0    00000011000000001000000000000000000000
AE00TI102209090109/09/202200000001800000000000000000000KGM  00000000000KGM  7470-5791E               J/B COMPLETE ASS'Y       74705791E                0         0         0         0    0    0    00000018000000001000000000000000000000
AE00TI102209090109/09/202200000002500000000000000000000KGM  00000000000KGM  7470-5823E               J/B COMPLETE ASS'Y       74705823E                0         0         0         0    0    0    00000025000000001000000000000000000000
