BI00A1200    CE22-MN-0074   202207207173-3295-30             SEALED LEVER             CCN000000720000000000FY00000000020220701000000000NNEQ0820220706161537    1F0F  0000007200000000000000000001200    YCYC    000000000000
BI00A1200    CE22-MN-0074   202207207173-3292-30             SEALED LEVER             CCN000000720000000000FY00000000020220701000000000NNEQ0820220706161537    1F0F  0000007200000000000000000001200    YCYC    000000000000
BI00B1200    2399T52720     202209017195-0547-02             TERMINAL ALUMINIUM       CCN000025500000025500FN00000000020220901000025500NNE   20220706122040    4P0P  0000255000000041820000076021200    YCYC    006400630015
BI00A1200    #H722H50055    202207187047-1664                CLIP                     CCN000006000000006000FN00000000020220801000006000NNE   20220706122040    2F0F  0000060000000065340000083531200    YCYC    005500360039
BI00B1200    Y022J50045     202209157116-4112-02             TERMINAL                 CCN000012000000012000FN00000000020221001000012000NNE   20220706122040    4P0P  0000060000000045000000073821200    YCYC    006400630015
BI00B1200    Y022J50048     202209297298-1145-4W             SQUIB SUB ASS'Y          CCN000020000000020000FN00000000020221001000020000NNM   20220706122040    4N0N  0000100000000078790000094491200    YCYC    005400370024
BI00B1200    Y022J50049     202209297174-1849-70             COVER                    CCN000025000000025000FN00000000020221001000025000NNM   20220706122040    1F0F  0000250000000062250000076191200    YCYC    005400370024
BI00A1200    #CE22-MN-0074  202207207173-3292-30             SEALED LEVER             CCN000000720000000720FN00000000020220701000000720NNEQ0020220706161627    2F0F  0000007200000000000000000001200    YCYC    000000000000
BI00A1200    #CE22-MN-0074  202207207173-3295-30             SEALED LEVER             CCN000000720000000720FN00000000020220701000000720NNEQ0020220706161636    2F0F  0000007200000000000000000001200    YCYC    000000000000
BI00B32CC    CTA32091       202207057289-3342                HOUSING FEMALE ASS'Y     CCN000012000000012000FY00001200020220901000000000NNED0420220706085407    1N0N  00000240000000686400000901432CC    BIYABCBU005500360039
BI00B32DE    TCT2083        202207217283-1289-40             CONNECTOR HOUSING        CCN000001200000001200FN00000000020220801000001200NNMD0020220706122040    1N0N  00000060000000679800000824832DE    TVYEV-TV005400370024
BI00B32DE    TCT2084        202207277283-1289-40             CONNECTOR HOUSING        CCN000006000000006000FN00000000020220801000006000NNMD0020220706122040    1N0N  00000060000000679800000824832DE    TVYEV-TV005400370024
BI00B32DE    TCT2083        202207147287-7599-10             HOUSING FEMALE ASS'Y     CCN000001600000001600FN00000000020220801000001600NNMD0020220706122040    4N0N  00000160000001233600001445632DE    TVYEV-TV005500360039
BI00B32DE    #TCTL2091      202208117114-4022                TERMINAL                 CCN000060000000060000FN00000000020220901000060000NNM   20220706132706    2F0P  00001500000000708000001120632DE    TVYEV-TV006400630015
BI00B32DE    #TCTL2092      202208257114-4022                TERMINAL                 CCN000075000000075000FN00000000020220901000075000NNM   20220706132706    2F0P  00001500000000708000001120632DE    TVYEV-TV006400630015
BI00B32DE    #TCTL2092      202208257125-3236-30             HEAD LAMP CONNECTOR      CCN000002800000002800FN00000000020220901000002800NNM   20220706132706    2F0F  00000280000000945000001085932DE    TVYEV-TV005500360039
BI00B32DE    #TCTL2091      202208117154-5597-30             CASSETTE R/B             CCN000002400000002400FN00000000020220901000002400NNM   20220706132706    2F0F  00000080000000736000000952032DE    TVYEV-TV005500360039
BI00B32DE    #TCTL2092      202208257154-5597-30             CASSETTE R/B             CCN000011200000011200FN00000000020220901000011200NNM   20220706132706    2F0F  00000080000000736000000952032DE    TVYEV-TV005500360039
BI00B32DE    #TCTL2091      202208117157-8991-80             RUBBER STOPPER           CCN000060000000060000FN00000000020220901000060000NNM   20220706132706    2C0C  00002000000000214000000271032DE    TVYEV-TV002700430014
BI00B32DE    #TCTL2092      202208257157-8991-80             RUBBER STOPPER           CCN000100000000100000FN00000000020220901000100000NNM   20220706132706    2C0C  00002000000000214000000271032DE    TVYEV-TV002700430014
BI00B32DE    #TCTL2091      202208117158-3003-90             RUBBER STOPPER           CCN000060000000060000FN00000000020220901000060000NNM   20220706132706    2C0C  00002000000000250000000306032DE    TVYEV-TV002700430014
BI00B32DE    #TCTL2092      202208257158-3003-90             RUBBER STOPPER           CCN000300000000300000FN00000000020220901000300000NNM   20220706132706    2C0C  00002000000000250000000306032DE    TVYEV-TV002700430014
BI00B32DE    #TCTL2091      202208117158-3004-40             RUBBER STOPPER           CCN000060000000060000FN00000000020220901000060000NNM   20220706132706    2C0C  00002000000000234000000306332DE    TVYEV-TV002700430014
BI00B32DE    #TCTL2092      202208257158-3004-40             RUBBER STOPPER           CCN000080000000080000FN00000000020220901000080000NNM   20220706132706    2C0C  00002000000000234000000306332DE    TVYEV-TV002700430014
BI00B32DE    #TCTL2091      202208117158-3005-80             RUBBER STOPPER           CCN000040000000040000FN00000000020220901000040000NNM   20220706132706    2H0H  00002000000000210000000268732DE    TVYEV-TV002700430014
BI00B32DE    #TCTL2092      202208257158-3005-80             RUBBER STOPPER           CCN000040000000040000FN00000000020220901000040000NNM   20220706132706    2H0H  00002000000000210000000268732DE    TVYEV-TV002700430014
BI00B32DE    #TCTL2091      202208117158-3007-10             RUBBER STOPPER           CCN000040000000040000FN00000000020220901000040000NNM   20220706132706    2H0H  00002000000000308000000362732DE    TVYEV-TV002700430014
BI00B32DE    #TCTL2092      202208257158-3007-10             RUBBER STOPPER           CCN000080000000080000FN00000000020220901000080000NNM   20220706132706    2H0H  00002000000000308000000362732DE    TVYEV-TV002700430014
BI00B32DE    #TCTL2091      202208117158-3008-80             RUBBER STOPPER           CCN000020000000020000FN00000000020220901000020000NNM   20220706132706    2C0C  00002000000000288000000343032DE    TVYEV-TV004300270014
BI00B32DE    #TCTL2092      202208257158-3008-80             RUBBER STOPPER           CCN000060000000060000FN00000000020220901000060000NNM   20220706132706    2C0C  00002000000000288000000343032DE    TVYEV-TV004300270014
BI00B32DE    #TCTL2091      202208117158-3015-10             RUBBER STOPPER           CCN000040000000040000FN00000000020220901000040000NNM   20220706132706    2C0C  00001000000000419500000474032DE    TVYEV-TV002700430014
BI00B32DE    #TCTL2092      202208257158-3015-10             RUBBER STOPPER           CCN000070000000070000FN00000000020220901000070000NNM   20220706132706    2C0C  00001000000000419500000474032DE    TVYEV-TV002700430014
BI00B32DE    #TCTL2092      202208257158-3017                RUBBER STOPPER           CCN000010000000010000FN00000000020220901000010000NNM   20220706132706    2C0C  00001000000000375500000435032DE    TVYEV-TV002700430014
BI00B32DE    #TCTL2091      202208117158-3120-90             CONNECTOR WIRE SEAL      CCN000080000000080000FN00000000020220901000080000NNM   20220706132706    2C0C  00002000000000136000000194032DE    TVYEV-TV002700430014
BI00B32DE    #TCTL2092      202208257158-3120-90             CONNECTOR WIRE SEAL      CCN000140000000140000FN00000000020220901000140000NNM   20220706132706    2C0C  00002000000000136000000194032DE    TVYEV-TV002700430014
BI00B32DE    #TCTL2091      202208117158-7584-30             BLOCK LIF                CCN000000800000000800FN00000000020220901000000800NNM   20220706132706    2F0F  00000080000000534500000688532DE    TVYEV-TV005500360039
BI00B32DE    #TCTL2092      202208257158-7584-30             BLOCK LIF                CCN000000800000000800FN00000000020220901000000800NNM   20220706132706    2F0F  00000080000000534500000688532DE    TVYEV-TV005500360039
BI00B32DE    #TCTL2092      202208257158-7586-30             BLOCK LIF                CCN000001600000001600FN00000000020220901000001600NNM   20220706132706    2F0F  00000080000000617400000844232DE    TVYEV-TV005500360039
BI00B32DE    #TCTL2091      202208117172-5629-80             RUBBER STOPPER           CCN000060000000060000FN00000000020220901000060000NNM   20220706132706    2H0H  00002000000000060000000111132DE    TVYEV-TV004300270014
BI00B32DE    #TCTL2092      202208257172-5629-80             RUBBER STOPPER           CCN000060000000060000FN00000000020220901000060000NNM   20220706132706    2H0H  00002000000000060000000111132DE    TVYEV-TV004300270014
BI00B32DE    #TCTL2091      202208117172-5630-40             RUBBER STOPPER           CCN000020000000020000FN00000000020220901000020000NNM   20220706132706    2H0H  00002000000000044000000095132DE    TVYEV-TV004300270014
BI00B32DE    #TCTL2092      202208257172-5630-40             RUBBER STOPPER           CCN000020000000020000FN00000000020220901000020000NNM   20220706132706    2H0H  00002000000000044000000095132DE    TVYEV-TV004300270014
BI00B32DE    #TCTL2091      202208117182-2410                CONNECTOR HOUSING        CCN000001200000001200FN00000000020220901000001200NNM   20220706132706    2F0F  00000120000000959800001245632DE    TVYEV-TV005500360039
BI00B32DE    #TCTL2092      202208257182-2410                CONNECTOR HOUSING        CCN000001200000001200FN00000000020220901000001200NNM   20220706132706    2F0F  00000120000000959800001245632DE    TVYEV-TV005500360039
BI00B32DE    #TCTL2092      202208257183-0521                HOUSING                  CCN000004800000004800FN00000000020220901000004800NNM   20220706132706    2F0F  00000480000001367500001585032DE    TVYEV-TV005500360039
BI00B32DE    #TCTL2091      202208117183-1616-30             CONNECTOR HOUSING        CCN000002400000002400FN00000000020220901000002400NNM   20220706132706    2F0F  00000240000000557500000837132DE    TVYEV-TV005500360039
BI00B32DE    #TCTL2092      202208257183-1616-30             CONNECTOR HOUSING        CCN000002400000002400FN00000000020220901000002400NNM   20220706132706    2F0F  00000240000000557500000837132DE    TVYEV-TV005500360039
BI00B32DE    #TCTL2092      202208257183-2412                HOUSING                  CCN000001600000001600FN00000000020220901000001600NNM   20220706132706    2F0F  00000160000001059200001245632DE    TVYEV-TV005500360039
BI00B32DE    #TCTL2092      202208257183-2413                CONNECTOR HOUSING        CCN000004800000004800FN00000000020220901000004800NNM   20220706132706    2F0F  00000480000000478100000760032DE    TVYEV-TV005500360039
BI00B32DE    #TCTL2091      202208117183-2415-90             CONNECTOR HOUSING        CCN000004800000004800FN00000000020220901000004800NNM   20220706132706    2F0F  00000480000000798200001091432DE    TVYEV-TV005500360039
BI00B32DE    #TCTL2092      202208257183-2415-90             CONNECTOR HOUSING        CCN000004800000004800FN00000000020220901000004800NNM   20220706132706    2F0F  00000480000000798200001091432DE    TVYEV-TV005500360039
BI00B32DE    #TCTL2091      202208117183-2416-90             HOUSING                  CCN000007200000007200FN00000000020220901000007200NNM   20220706132706    2F0F  00000240000001489700001765832DE    TVYEV-TV005500360039
BI00B32DE    #TCTL2092      202208257183-2416-90             HOUSING                  CCN000009600000009600FN00000000020220901000009600NNM   20220706132706    2F0F  00000240000001489700001765832DE    TVYEV-TV005500360039
BI00B32DE    #TCTL2091      202208117183-2418                CONNECTOR HOUSING        CCN000004800000004800FN00000000020220901000004800NNM   20220706132706    2F0F  00000480000000917000001477032DE    TVYEV-TV005500360039
BI00B32DE    #TCTL2091      202208117183-2419                HOUSING                  CCN000004800000004800FN00000000020220901000004800NNM   20220706132706    2F0F  00000480000001065600001352732DE    TVYEV-TV005500360039
BI00B32DE    #TCTL2091      202208117183-7725-40             HOUSING                  CCN000006000000006000FN00000000020220901000006000NNM   20220706132706    2F0F  00000600000000840000001040032DE    TVYEV-TV005600390040
BI00B32DE    #TCTL2092      202208257183-7725-40             HOUSING                  CCN000012000000012000FN00000000020220901000012000NNM   20220706132706    2F0F  00000600000000840000001040032DE    TVYEV-TV005600390040
BI00B32DE    #TCTL2092      202208257187-8856                HOUSING FEMALE           CCN000006000000006000FN00000000020220901000006000NNM   20220706132706    2F0F  00000200000000820000000931532DE    TVYEV-TV005400370024
BI00B32DE    #TCTL2091      202208117188-0149                HLC HOUSING MALE         CCN000017100000017100FN00000000020220901000017100NNM   20220706132706    2F0F  00000090000000809100000923832DE    TVYEV-TV005400370024
BI00B32DE    #TCTL2092      202208257188-0149                HLC HOUSING MALE         CCN000032400000032400FN00000000020220901000032400NNM   20220706132706    2F0F  00000090000000809100000923832DE    TVYEV-TV005400370024
BI00B32DE    #TCTL2091      202208117189-0149                HLC HOUSING FEMALE       CCN000028000000028000FN00000000020220901000028000NNM   20220706132706    2F0F  00000200000000970000001078532DE    TVYEV-TV005400370024
BI00B32DE    #TCTL2092      202208257189-0149                HLC HOUSING FEMALE       CCN000032000000032000FN00000000020220901000032000NNM   20220706132706    2F0F  00000200000000970000001078532DE    TVYEV-TV005400370024
BI00B32DE    #TCTL2091      202208117189-3031-30             HOUSING FEMALE           CCN000004800000004800FN00000000020220901000004800NNM   20220706132706    2F0F  00000240000000928800001365832DE    TVYEV-TV005500360039
BI00B32DE    #TCTL2092      202208257189-3031-30             HOUSING FEMALE           CCN000004800000004800FN00000000020220901000004800NNM   20220706132706    2F0F  00000240000000928800001365832DE    TVYEV-TV005500360039
BI00B32DE    #TCTL2091      202208117189-3036                HOUSING FEMALE           CCN000003200000003200FN00000000020220901000003200NNM   20220706132706    2F0F  00000160000000921600001141632DE    TVYEV-TV005500360039
BI00B32DE    #TCTL2092      202208257189-3036                HOUSING FEMALE           CCN000006400000006400FN00000000020220901000006400NNM   20220706132706    2F0F  00000160000000921600001141632DE    TVYEV-TV005500360039
BI00B32DE    #TCTL2091      202208117198-4980-30             HOUSING FEMALE           CCN000003600000003600FN00000000020220901000003600NNM   20220706132706    2F0F  00000120000000840000000921032DE    TVYEV-TV005400370024
BI00B32DE    #TCTL2092      202208257198-4980-30             HOUSING FEMALE           CCN000006000000006000FN00000000020220901000006000NNM   20220706132706    2F0F  00000120000000840000000921032DE    TVYEV-TV005400370024
BI00B32DE    #TCTL2091      202208117283-1065                CONNECTOR                CCN000007500000007500FN00000000020220901000007500NNM   20220706132706    2N0N  00000250000001152500001310432DE    TVYEV-TV005500360039
BI00B32DE    #TCTL2092      202208257283-1065                CONNECTOR                CCN000015000000015000FN00000000020220901000015000NNM   20220706132706    2N0N  00000250000001152500001310432DE    TVYEV-TV005500360039
BI00B32DE    #TCTL2091      202208117283-1485                CONNECTOR                CCN000004000000004000FN00000000020220901000004000NNM   20220706132706    2N0N  00000200000001160000001340732DE    TVYEV-TV005500360039
BI00B32DE    #TCTL2092      202208257283-1485                CONNECTOR                CCN000004000000004000FN00000000020220901000004000NNM   20220706132706    2N0N  00000200000001160000001340732DE    TVYEV-TV005500360039
BI00B32DE    #TCTL2092      202208257283-5831                CONNECTOR                CCN000003000000003000FN00000000020220901000003000NNM   20220706132706    2N0N  00000300000000750000000880032DE    TVYEV-TV005400370024
BI00B32DE    #TCTL2092      202208257283-5833                CONNECTOR HOUSING        CCN000003640000003640FN00000000020220901000003640NNM   20220706132706    2N0N  00000364000001378000001686732DE    TVYEV-TV005500360039
BI00B32DE    #TCTL2091      202208117283-5834                CONNECTOR ASS'Y          CCN000006480000006480FN00000000020220901000006480NNM   20220706132706    2N0N  00000324000001296000001849732DE    TVYEV-TV005600390040
BI00B32DE    #TCTL2092      202208257283-5834                CONNECTOR ASS'Y          CCN000006480000006480FN00000000020220901000006480NNM   20220706132706    2N0N  00000324000001296000001849732DE    TVYEV-TV005600390040
BI00B32DE    #TCTL2091      202208117283-5834-30             CONNECTOR ASS'Y          CCN000009720000009720FN00000000020220901000009720NNM   20220706132706    2N0N  00000324000001296000001853432DE    TVYEV-TV005600390040
BI00B32DE    #TCTL2092      202208257283-5834-30             CONNECTOR ASS'Y          CCN000009720000009720FN00000000020220901000009720NNM   20220706132706    2N0N  00000324000001296000001853432DE    TVYEV-TV005600390040
BI00B32DE    #TCTL2091      202208117283-5834-40             CONNECTOR ASS'Y          CCN000006480000006480FN00000000020220901000006480NNM   20220706132706    2N0N  00000324000001296000001854332DE    TVYEV-TV005600390040
BI00B32DE    #TCTL2092      202208257283-5834-40             CONNECTOR ASS'Y          CCN000003240000003240FN00000000020220901000003240NNM   20220706132706    2N0N  00000324000001296000001854332DE    TVYEV-TV005600390040
BI00B32DE    #TCTL2091      202208117283-8123-40             CONNECTOR HOUSING        CCN000004000000004000FN00000000020220901000004000NNM   20220706132706    2N0N  00000400000000380000000530032DE    TVYEV-TV005600390023
BI00B32DE    #TCTL2091      202208117287-1670                HOUSING FEMALE ASS'Y     CCN000002800000002800FN00000000020220901000002800NNM   20220706132706    2N0N  00000280000000953100001145132DE    TVYEV-TV005400370024
BI00B32DE    #TCTL2092      202208257287-1670                HOUSING FEMALE ASS'Y     CCN000005600000005600FN00000000020220901000005600NNM   20220706132706    2N0N  00000280000000953100001145132DE    TVYEV-TV005400370024
BI00B32DE    #TCTL2091      202208117287-1671                HOUSING FEMALE ASS'Y     CCN000002000000002000FN00000000020220901000002000NNM   20220706132706    2N0N  00000200000000782600000974632DE    TVYEV-TV005400370024
BI00B32DE    #TCTL2092      202208257287-1671                HOUSING FEMALE ASS'Y     CCN000006000000006000FN00000000020220901000006000NNM   20220706132706    2N0N  00000200000000782600000974632DE    TVYEV-TV005400370024
BI00B32DE    #TCTL2092      202208257289-2913-30             HOUSING FEMALE ASS'Y     CCN000001500000001500FN00000000020220901000001500NNM   20220706132706    2N0N  00000150000000907500001034532DE    TVYEV-TV005400370024
BI00B32DE    #TCTL2091      202208117289-2914                HOUSING FEMALE ASS'Y     CCN000001500000001500FN00000000020220901000001500NNM   20220706132706    2N0N  00000150000000906000001033032DE    TVYEV-TV005400370024
BI00B32DE    #TCTL2092      202208257289-2914                HOUSING FEMALE ASS'Y     CCN000003000000003000FN00000000020220901000003000NNM   20220706132706    2N0N  00000150000000906000001033032DE    TVYEV-TV005400370024
BI00B32DE    #TCTL2091      202208117289-2915-30             HOUSING FEMALE ASS'Y     CCN000001500000001500FN00000000020220901000001500NNM   20220706132706    2N0N  00000150000000964500001091532DE    TVYEV-TV005400370024
BI00B32DE    #TCTL2092      202208257289-2915-30             HOUSING FEMALE ASS'Y     CCN000003000000003000FN00000000020220901000003000NNM   20220706132706    2N0N  00000150000000964500001091532DE    TVYEV-TV005400370024
BI00B32DE    #TCTL2091      202208117289-2916-30             HOUSING FEMALE ASS'Y     CCN000001000000001000FN00000000020220901000001000NNM   20220706132706    2N0N  00000100000000857000001084032DE    TVYEV-TV005400370024
BI00B32DE    #TCTL2092      202208257289-2916-30             HOUSING FEMALE ASS'Y     CCN000003000000003000FN00000000020220901000003000NNM   20220706132706    2N0N  00000100000000857000001084032DE    TVYEV-TV005400370024
BI00B32D1    DFTC2240       202208187017-1181-02             TERMINAL                 CCN000063000000063000FN00000000020221001000063000NNM   20220706122040    4P0P  00006300000001089900001266832D1    TOYOT-K 005100280028
BI00B32D1    DFTC2240       202208187114-4032                TERMINAL                 CCN000007500000007500FN00000000020221001000007500NNM   20220706122040    4P0P  00000750000000735000001063632D1    TOYOT-K 006400630017
BI00B32D1    DFTC2240       202208187114-5748-02             TERMINAL                 CCN000012000000012000FN00000000020221001000012000NNM   20220706122040    4P0P  00001200000000444000000737632D1    TOYOT-K 006400630015
BI00B32D1    DFTC2240       202208187114-5753-02             TERMINAL                 CCN000027000000027000FN00000000020221001000027000NNM   20220706122040    4P0P  00002700000000847800001141432D1    TOYOT-K 006400630015
BI00B32D1    DFTC2240       202208187116-2891-02             TERMINAL                 CCN000015000000015000FN00000000020221001000015000NNM   20220706122040    4P0P  00001500000000982500001145932D1    TOYOT-K 005100280028
BI00B32D1    DFTC2240       202208187116-4110-02             TERMINAL                 CCN000018000000018000FN00000000020221001000018000NNM   20220706122040    4P0P  00000900000000594000000882232D1    TOYOT-K 006400630015
BI00B32D1    DFTC2240       202208187116-4111-02             TERMINAL                 CCN000007500000007500FN00000000020221001000007500NNM   20220706122040    4P0P  00000750000000529500000817732D1    TOYOT-K 006400630015
BI00B32D1    DFTC2240       202208187116-4112-02             TERMINAL                 CCN000012000000012000FN00000000020221001000012000NNM   20220706122040    4P0P  00000600000000450000000738232D1    TOYOT-K 006400630015
BI00B32D1    DFTC2240       202208187116-4415-02             TERMINAL                 CCN000038000000038000FN00000000020221001000038000NNM   20220706122040    4P0P  00003800000000596600000925732D1    TOYOT-K 006400630017
BI00B32D1    DFTC2240       202208187116-5045-02             TERMINAL                 CCN000032000000032000FN00000000020221001000032000NNM   20220706122040    4P0P  00001600000000678400001007132D1    TOYOT-K 006400630017
BI00B32D1    DFTC2240       202208187126-8853-02             TERMINAL                 CCN000007500000007500FN00000000020221001000007500NNM   20220706122040    4P0P  00000750000000562500000847732D1    TOYOT-K 006400630015
BI00B32D1    DFTC2240       202208187126-8854-02             TERMINAL                 CCN000015000000015000FN00000000020221001000015000NNM   20220706122040    4P0P  00000750000000604500000889732D1    TOYOT-K 006400630015
BI00B32D1    DFTC2240       202208187126-8855-02             TERMINAL                 CCN000006000000006000FN00000000020221001000006000NNM   20220706122040    4P0P  00000600000000510600000795832D1    TOYOT-K 006400630015
BI00B32D1    DFTC2240       202208187158-3167-80             WIRE SEAL                CCN000020000000020000FN00000000020221001000020000NNM   20220706122040    1C0C  00002000000000048000000109032D1    TOYOT-K 002700430014
BI00B32D1    DFTC2240       202208187288-6547                CONNECTOR MALE ASS'Y     CCN000005250000005250FN00000000020221001000005250NNM   20220706122040    4N0N  00000075000001205300001340332D1    TOYOT-K 005400370024
BI00B32D1    DFTC2240       202208187289-3342                HOUSING FEMALE ASS'Y     CCN000002400000002400FN00000000020221001000002400NNM   20220706122040    1N0N  00000240000000686400000901432D1    TOYOT-K 005500360039
BI00B32D1    DFTC2240       202208187289-3342-30             HOUSING FEMALE ASS'Y     CCN000012000000012000FN00000000020221001000012000NNM   20220706122040    1N0N  00000240000000686400000901432D1    TOYOT-K 005500360039
BI00B32D1    DFTC2240       202208187289-3342-40             HOUSING FEMALE ASS'Y     CCN000002400000002400FN00000000020221001000002400NNM   20220706122040    1N0N  00000240000000686400000901432D1    TOYOT-K 005500360039
BI00B32D1    DFTC2240       202208187289-3342-90             HOUSING FEMALE ASS'Y     CCN000002400000002400FN00000000020221001000002400NNM   20220706122040    1N0N  00000240000000686400000901432D1    TOYOT-K 005500360039
BI00B32D1    DFTC2240       202208187289-6547                HOUSING FEMALE ASS'Y     CCN000002400000002400FN00000000020221001000002400NNM   20220706122040    1N0N  00000240000001152000001362032D1    TOYOT-K 005500360039
BI00B32D1    DFTC2240       202208187296-0784-02             TERMINAL ALUMINIUM       CCN000024000000024000FN00000000020221001000024000NNM   20220706122040    4P0P  00002400000000480000000765232D1    TOYOT-K 006400630015
BI00B32D1    DFTC2240       202208187327-6731-3W             BATTERY FUSE             CCN000000192000000192FN00000000020221001000000192NNM   20220706122040    4N0N  00000006400000697600000843032D1    TOYOT-K 005400370024
BI00B32D1    DFTC2240       202208187388-2978-30             HOUSING MALE ASS'Y       CCN000000480000000480FN00000000020221001000000480NNM   20220706122040    1N0N  00000048000000742000001122032D1    TOYOT-K 005500360039
BI00B32D1    #DFTC2240      202208187158-3003-90             RUBBER STOPPER           CCN000020000000020000FN00000000020221001000020000NNM   20220706122040    2C0C  00002000000000250000000306032D1    TOYOT-K 002700430014
BI00B32D1    #DFTC2240      202208187158-3004-40             RUBBER STOPPER           CCN000020000000020000FN00000000020221001000020000NNM   20220706122040    2C0C  00002000000000234000000306332D1    TOYOT-K 002700430014
BI00B32D1    #DFTC2240      202208187158-3005-80             RUBBER STOPPER           CCN000020000000020000FN00000000020221001000020000NNM   20220706122040    2H0H  00002000000000210000000268732D1    TOYOT-K 002700430014
BI00B32D1    #DFTC2240      202208187158-3008-80             RUBBER STOPPER           CCN000020000000020000FN00000000020221001000020000NNM   20220706122040    2C0C  00002000000000288000000343032D1    TOYOT-K 004300270014
BI00B32D1    #DFTC2240      202208187158-3017                RUBBER STOPPER           CCN000010000000010000FN00000000020221001000010000NNM   20220706122040    2C0C  00001000000000375500000435032D1    TOYOT-K 002700430014
BI00B32D1    #DFTC2240      202208187189-3037-40             HOUSING FEMALE           CCN000004800000004800FN00000000020221001000004800NNM   20220706122040    2F0F  00000480000000901600001061632D1    TOYOT-K 005500360039
BI00B32G2    SA2207EJMW     202208247470-6239                J/B COMPLETE ASS'Y       CCN000000096000000096FN00000000020220701000000096NNEM0020220706122040    1J0J  00000002400001320000001570032G2    AISUAI  005500360039
BI00B32H7    FS22082DMW     202207087114-4624-02             TERMINAL                 CCN000144000000144000FN00000000020220801000144000NNM00020220706155909    4P0P  00002400000000895200001188832H7    FYFSY   006400630015
BI00B32H7    FS22082DMW     202207087114-4728-08             TERMINAL                 CCN000060000000060000FN00000000020220801000060000NNM00020220706155909    4P0P  00003000000000507000000801232H7    FYFSY   006400630015
BI00B32H7    FS22082DMW     202207087114-5748-02             TERMINAL                 CCN000096000000096000FN00000000020220801000096000NNM00020220706155909    4P0P  00001200000000444000000737632H7    FYFSY   006400630015
BI00B32H7    FS22082DMW     202207087116-1685-02             TERMINAL                 CCN000024000000024000FN00000000020220801000024000NNM00020220706155909    4P0P  00002400000000897600001065232H7    FYFSY   005100280028
BI00B32H7    FS22082DMW     202207087116-3153-08             TERMINAL                 CCN000189000000189000FN00000000020220801000189000NNM00020220706155909    4P0P  00002700000000461700000746932H7    FYFSY   006400630015
BI00B32H7    FS22082DMW     202207087116-4028-08             TERMINAL FEMALE          CCN000064000000064000FN00000000020220801000064000NNM00020220706155909    4P0P  00001600000000652800000981532H7    FYFSY   006400630017
BI00B32H7    FS22082DMW     202207087116-4032                TERMINAL                 CCN000042000000042000FN00000000020220801000042000NNM00020220706155909    4P0P  00000600000000532800000818032H7    FYFSY   006400630015
BI00B32H7    FS22082DMW     202207087116-4037                TERMINAL                 CCN000090000000090000FN00000000020220801000090000NNM00020220706155909    4P0P  00000600000000600000000894232H7    FYFSY   006400630015
BI00B32H7    FS22082DMW     202207087116-5045-02             TERMINAL                 CCN000352000000352000FN00000000020220801000352000NNM00020220706155909    4P0P  00001600000000678400001007132H7    FYFSY   006400630017
BI00B32H7    FS22082DMW     202207087116-5046-02             TERMINAL                 CCN000228000000228000FN00000000020220801000228000NNM00020220706155909    4P0P  00001200000000544800000873532H7    FYFSY   006400630017
BI00B32H7    FS22082DMW     202207087116-6041                TERMINAL                 CCN000022500000022500FN00000000020220801000022500NNM00020220706155909    4P0P  00000450000000716000001009632H7    FYFSY   006400630015
BI00B32H7    FS22082DMW     202207087116-6042                TERMINAL                 CCN000054000000054000FN00000000020220801000054000NNM00020220706155909    4P0P  00000300000000523800000856132H7    FYFSY   006400630015
BI00B32H7    FS22082DMW     202207087126-8853-02             TERMINAL                 CCN000195000000195000FN00000000020220801000195000NNM00020220706155909    4P0P  00000750000000562500000847732H7    FYFSY   006400630015
BI00B32H7    FS22082DMW     202207087196-0396-02             TERMINAL                 CCN000030000000030000FN00000000020220801000030000NNM00020220706155909    4P0P  00001500000000949500001112932H7    FYFSY   002800510028
BI00B32H7    FS22082DMW     202207087196-0510-02             TERMINAL                 CCN000072000000072000FN00000000020220801000072000NNM00020220706155909    4P0P  00002400000000871200001034632H7    FYFSY   002800510028
BI00B32H7    FS22082DMW     202207087196-0805-02             TERMINAL FEMALE          CCN000022500000022500FN00000000020220801000022500NNM00020220706155909    4P0P  00002250000000558000000843232H7    FYFSY   006400630015
BI00B32H7    FS22082DMW     202207087196-1325-02             TERMINAL FEMALE          CCN000180000000180000FN00000000020220801000180000NNM00020220706155909    4P0P  00006000000000450000000778732H7    FYFSY   006400630017
BI00B32H7    FS22082DMW     202207087196-1326-02             TERMINAL FEMALE          CCN000240000000240000FN00000000020220801000240000NNM00020220706155909    4P0P  00006000000000456000000784732H7    FYFSY   006400630017
BI00B32H7    FS22082DMW     202207087196-1327-02             TERMINAL FEMALE          CCN000052000000052000FN00000000020220801000052000NNM00020220706155909    4P0P  00005200000000336000000739532H7    FYFSY   006400630017
BI00B32H7    FS22082DMW     202207087283-1156                CONNECTOR                CCN000001600000001600FN00000000020220801000001600NNM00020220706155909    4N0N  00000080000000877600001078032H7    FYFSY   005600390040
BI00B32H7    FS22082DMW     202207087283-4855                CONNECTOR HOUSING        CCN000016800000016800FN00000000020220801000016800NNM00020220706155909    4N0N  00000240000001188400001400032H7    FYFSY   005500360039
BI00B32H7    FS22082DMW     202207087288-6598-70             HOUSING MALE ASS'Y       CCN000004320000004320FN00000000020220801000004320NNM00020220706155909    4N0N  00000144000001074200001429232H7    FYFSY   005500360039
BI00B32H7    FS22082DMW     202207087295-0785-02             TERMINAL ALUMINIUM       CCN000025500000025500FN00000000020220801000025500NNM00020220706155909    4P0P  00002550000000510000000803632H7    FYFSY   006400630015
BI00B32H7    FS22082DMW     202207087296-0784-02             TERMINAL ALUMINIUM       CCN000096000000096000FN00000000020220801000096000NNM00020220706155909    4P0P  00002400000000480000000765232H7    FYFSY   006400630015
BI00B32H7    FS22082DMW     202207087296-1018-02             TERMINAL ALUMINIUM       CCN000048000000048000FN00000000020220801000048000NNM00020220706155909    4P0P  00001200000000595200000880432H7    FYFSY   006400630015
BI00B32H7    FS22082DMW     202207087296-1024-02             TERMINAL ALUMINIUM       CCN000036000000036000FN00000000020220801000036000NNM00020220706155909    4P0P  00001800000000698400000983632H7    FYFSY   006400630015
BI00B32H7    FS22082DMW     202207087297-3482                JOINT CONNECTOR          CCN000000800000000800FN00000000020220801000000800NNM00020220706155909    4N0N  00000080000000621000000730532H7    FYFSY   005400370024
BI00B32H7    FS22082DMW     202207087298-3484                HOUSING FEMALE ASS'Y     CCN000002700000002700FN00000000020220801000002700NNM00020220706155909    4N0N  00000270000000742500001028732H7    FYFSY   005400370024
BI00B32H7    FS22082DMW     202207087327-6627-3W             BATTERY FUSE             CCN000002304000002304FN00000000020220801000002304NNM00020220706155909    4N0N  00000009600001332300001534632H7    FYFSY   005500360039
BI00B32H7    FS22082DMW     202207087327-6731-3W             BATTERY FUSE             CCN000000576000000576FN00000000020220801000000576NNM00020220706155909    4N0N  00000006400000697600000843032H7    FYFSY   005400370024
BI00B32H7    FS22082DMW     202207087327-6949-30             MULTI FUSE               CCN000000288000000288FN00000000020220801000000288NNM00020220706155909    4N00  00000028800000886700001052632H7    FYFSY   005400370024
BI00B32H7    FS22082DMW     202207087327-6950-30             MULTI FUSE               CCN000000288000000288FN00000000020220801000000288NNM00020220706155909    4N00  00000028800000888700001054632H7    FYFSY   005400370024
BI00B32H7    FS22082DMW     202207087327-6954-30             MULTI FUSE               CCN000000600000000600FN00000000020220801000000600NNM00020220706155909    4N00  00000060000000751600000954332H7    FYFSY   005400370024
BI00B32H7    FS22082DMW     202207087386-9155                CONNECTOR MALE ASS'Y     CCN000006000000006000FN00000000020220801000006000NNM00020220706155909    4N0N  00000060000001244400001369932H7    FYFSY   005400370024
BI00B32J1    395372         202207067298-2507-30             HOUSING FEMALE ASS'Y     CCN000012000000000000FY00000000020220701000000000NNMQ0020220706091002    4N0N  00000120000000713200000914532J1    UKYEL-BL005500360039
BI00B32J1    395372         202207067298-2509-30             HOUSING FEMALE ASS'Y     CCN000016800000000000FY00000000020220701000000000NNMQ0820220706091019    4N0N  00000120000000857500001062532J1    UKYEL-BL005500360039
BI00B32J1    395372         202207067298-2280-30             HOUSING FEMALE ASS'Y     CCN000038000000000000FY00000000020220701000000000NNMQ0820220706091031    4N0N  00000192000001068000001216032J1    UKYEL-BL005500360039
BI00B32K8    #K1220011306   202207227137-2719-50             SEALED CONNECTOR         CCN000030000000030000FN00000000020220801000030000NNMD0720220706122040    2C0C  00000100000000120700000185732K8    ELELCOM 002700430014
BI00B32K8    #K1220011307   202208267137-2719-50             SEALED CONNECTOR         CCN000005000000005000FN00000000020221001000005000NNM   20220706122040    2C0C  00000100000000120700000185732K8    ELELCOM 002700430014
BI00B32N1    GMT2206        202207147283-9457-3W             CONNECTOR                CCN000001320000001320FN00000000020220701000001320NNE   20220706133048    4N0N  00000012000000515000001067032N1    TAYIPL  005600390023
BI00B32N2    2152104040     202207147183-2417                CONNECTOR HOUSING        CCN000002400000002400FN00000000020220801000002400NNM00020220706134227    4F0F  00000240000001137400001297732N2    YWYIPLTC005500360039
BI00B32R7    R-TAP220279    202208257298-1186-40             SQUIB SUB ASS'Y          CCN000050000000050000FN00000000020220801000050000NNED0220220706122040    4N0N  00001000000000650000000774532R7    IVYCIC  005400370024
BI00B32R7    R-TAP220288    202207217298-1186-40             SQUIB SUB ASS'Y          CCN000020000000020000FN00000000020220801000020000NNE   20220706122040    4N0N  00001000000000650000000774532R7    IVYCIC  005400370024
BI00B32R7    R-TAP220288    202207217298-1186-70             SQUIB SUB ASS'Y          CCN000020000000020000FN00000000020220801000020000NNE   20220706122040    4N0N  00001000000000650000000774532R7    IVYCIC  005400370024
BI00B32R7    R-TAP220289    202207217158-3167-80             WIRE SEAL                CCN000040000000040000FN00000000020220801000040000NNE   20220706122040    1C0C  00002000000000048000000109032R7    IVYCIC  002700430014
BI00B32R7    R-TAP220290    202208187158-3169-40             SEALING PLUG             CCN000120000000120000FN00000000020220901000120000NNE   20220706122040    1C0C  00004000000000156000000204132R7    IVYCIC  004300260014
BI00B32U9    TPA235         202208117298-1186-40             SQUIB SUB ASS'Y          CCN000040000000040000FN00000000020220901000040000NNMD0420220706122040U9  4N0N  00001000000000650000000774532U9    YNYNA-E 005400370024
BI00B32U9    TPA235         202208117298-1186-70             SQUIB SUB ASS'Y          CCN000020000000020000FN00000000020220901000020000NNMD0420220706122040U9  4N0N  00001000000000650000000774532U9    YNYNA-E 005400370024
BI00B32U9    TPA235         202208117298-1187-30             SHUNT RING ASSEMBLY      CCN000010000000010000FN00000000020220901000010000NNMD0420220706122040U9  4N0N  00001000000000647000000769532U9    YNYNA-E 005400370024
BI00B32W4    4500188262     202207057158-3167-80             WIRE SEAL                CCN002000000001000000FY00100000020220601000000000NNED0420220706085027W4561C0C  00002000000000048000000109032W456  HJYHK   002700430014
BI00A32W4    4500194361     202207277158-3166-60             WIRE SEAL                CCN000040000000040000FN00000000020220801000040000NNED0020220706142306W4M51C0C  00004000000000104000000152432W4M5  HJYHK-J 002700430014
BI00A32W4    4500194636     202207277283-7028-30             CONNECTOR                CCN000003000000003000FN00000000020220801000003000NNED0020220706144154W4M54N0N  00000300000001452000001681332W4M5  HJYHK-J 005600390040
BI00B32W4    4500196289     202208087283-4577                CONNECTOR HOUSING        CCN000009600000009600FN00000000020220801000009600NNE   20220706122040W9234N0N  00000480000000916800001136832W923  HJYHK   005500360039
BI00B32W4    4500196300     202209087116-4100-02             TERMINAL                 CCN000015000000015000FN00000000020220901000015000NNE   20220706122040W4164P0P  00001500000000696000000990232W416  HJYHK   006400630015
BI00B32W4    4500196300     202209087116-4102-02             TERMINAL                 CCN000012000000012000FN00000000020220901000012000NNE   20220706122040W4164P0P  00001200000000553200000841432W416  HJYHK   006400630015
BI00B32W4    4500196300     202209087114-4100-02             TERMINAL                 CCN000018000000018000FN00000000020220901000018000NNE   20220706122040W4164P0P  00001800000000748800001077432W416  HJYHK   006400630017
BI00B32W4    4500196300     202209087116-4101-02             TERMINAL                 CCN000012000000012000FN00000000020220901000012000NNE   20220706122040W4164P0P  00001200000000582000000876232W416  HJYHK   006400630015
BI00B32W4    4500196300     202209087116-4104-02             TERMINAL                 CCN000024000000024000FN00000000020220901000024000NNE   20220706122040W4164P0P  00001200000000580800000972432W416  HJYHK   006400630015
BI00B32W4    4500196300     202209087114-4110-02             TERMINAL                 CCN000015000000015000FN00000000020220901000015000NNE   20220706122040W4164P0P  00001500000000901500001230132W416  HJYHK   006400630017
BI00B32W4    4500196300     202209087116-4103-02             TERMINAL                 CCN000012000000012000FN00000000020220901000012000NNE   20220706122040W4164P0P  00001200000000571200000859432W416  HJYHK   006400630015
BI00B32W4    4500196300     202209087283-1024                CONNECTOR SUB ASSY       CCN000008000000008000FN00000000020220901000008000NNE   20220706122040W4164N0N  00000200000000400000000522532W416  HJYHK   005400370024
BI00B32W4    4500196300     202209087282-1024                HOUSING MALE             CCN000008000000008000FN00000000020220901000008000NNE   20220706122040W4161N0N  00000100000000458000000580532W416  HJYHK   005400370024
BI00B32W4    4500196300     202209087283-1030                CONNECTOR                CCN000006000000006000FN00000000020220901000006000NNE   20220706122040W4164N0N  00000600000000988000001172032W416  HJYHK   005500360039
BI00B32W4    4500196300     202209087288-6547                CONNECTOR MALE ASS'Y     CCN000012750000012750FN00000000020220901000012750NNE   20220706122040W4164N0N  00000075000001205300001340332W416  HJYHK   005400370024
BI00B32W4    4500196300     202209087289-6547                HOUSING FEMALE ASS'Y     CCN000009600000009600FN00000000020220901000009600NNE   20220706122040W4161N0N  00000240000001152000001362032W416  HJYHK   005500360039
BI00B32W4    4500196300     202209087283-1156                CONNECTOR                CCN000008800000008800FN00000000020220901000008800NNE   20220706122040W4164N0N  00000080000000877600001078032W416  HJYHK   005600390040
BI00B32W4    4500196300     202209087114-4032                TERMINAL                 CCN000007500000007500FN00000000020220901000007500NNE   20220706122040W4164P0P  00000750000000735000001063632W416  HJYHK   006400630017
BI00B32W4    #4500196300    202209087282-4190-30             CONNECTOR                CCN000001440000001440FN00000000020220901000001440NNE   20220706122040W4162N0N  00000024000000801000001071332W416  HJYHK   005600390040
BI00B32W4    #4500196300    202209087283-4190-30             CONNECTOR                CCN000000960000000960FN00000000020220901000000960NNE   20220706122040W4162N0N  00000024000000846000001115532W416  HJYHK   005600390040
BI00B32W4    #4500196300    202209087187-1616                HOUSING FEMALE           CCN000004000000004000FN00000000020220901000004000NNE   20220706122040W4162F0F  00000400000001152000001262032W416  HJYHK   005500360039
BI00B32W4    @4500196300    202209087287-6634                HOUSING FEMALE ASS'Y     CCN000002400000002400FN00000000020220901000002400NNE   20220706122040W4163N0N  00000240000001088400001337032W416  HJYHK   005500360039
BI00B32W4    4500196341     202209087116-4100-02             TERMINAL                 CCN000135000000135000FN00000000020220901000135000NNE   20220706122040W4464P0P  00001500000000696000000990232W446  HJYHK   006400630015
BI00B32W4    4500196341     202209087116-4112-02             TERMINAL                 CCN000084000000084000FN00000000020220901000084000NNE   20220706122040W4464P0P  00000600000000450000000738232W446  HJYHK   006400630015
BI00B32W4    4500196341     202209087116-4102-02             TERMINAL                 CCN000096000000096000FN00000000020220901000096000NNE   20220706122040W4464P0P  00001200000000553200000841432W446  HJYHK   006400630015
BI00B32W4    4500196341     202209087158-3168-80             SEALED                   CCN000040000000040000FN00000000020220901000040000NNE   20220706122040W4461C0C  00002000000000044000000092132W446  HJYHK   004300260014
BI00B32W4    4500196341     202209087158-3167-80             WIRE SEAL                CCN000060000000060000FN00000000020220901000060000NNE   20220706122040W4461C0C  00002000000000048000000109032W446  HJYHK   002700430014
BI00B32W4    4500196341     202209087116-4101-02             TERMINAL                 CCN000048000000048000FN00000000020220901000048000NNE   20220706122040W4464P0P  00001200000000582000000876232W446  HJYHK   006400630015
BI00B32W4    4500196341     202209087116-4103-02             TERMINAL                 CCN000024000000024000FN00000000020220901000024000NNE   20220706122040W4464P0P  00001200000000571200000859432W446  HJYHK   006400630015
BI00B32W4    4500196332     202209087116-4103-02             TERMINAL                 CCN000012000000012000FN00000000020220901000012000NNE   20220706122040W4A24P0P  00001200000000571200000859432W4A2  HJYHK-J 006400630015
BI00B32W4    4500196332     202209087116-4102-02             TERMINAL                 CCN000024000000024000FN00000000020220901000024000NNE   20220706122040W4A24P0P  00001200000000553200000841432W4A2  HJYHK-J 006400630015
BI00B32W4    4500196332     202209087116-4031                TERMINAL                 CCN000007500000007500FN00000000020220901000007500NNE   20220706122040W4A24P0P  00000750000000619500000904732W4A2  HJYHK-J 006400630015
BI00B32W4    4500196332     202209087116-4110-02             TERMINAL                 CCN000009000000009000FN00000000020220901000009000NNE   20220706122040W4A24P0P  00000900000000594000000882232W4A2  HJYHK-J 006400630015
BI00B32W4    4500196332     202209087158-3168-80             SEALED                   CCN000020000000020000FN00000000020220901000020000NNE   20220706122040W4A21C0C  00002000000000044000000092132W4A2  HJYHK-J 004300260014
BI00B32W4    4500196332     202209087116-4112-02             TERMINAL                 CCN000018000000018000FN00000000020220901000018000NNE   20220706122040W4A24P0P  00000600000000450000000738232W4A2  HJYHK-J 006400630015
BI00B32W4    #4500196332    202209087183-7725-40             HOUSING                  CCN000006000000006000FN00000000020220901000006000NNE   20220706122040W4A22F0F  00000600000000840000001040032W4A2  HJYHK-J 005600390040
BI00B32W4    4500196326     202208257283-1020                CONNECTOR                CCN000006000000006000FN00000000020220801000006000NNE   20220706122040W4A24N0N  00000600000000840000001049332W4A2  HJYHK-J 005600390040
BI00B32W4    4500196326     202208257116-4111-02             TERMINAL                 CCN000015000000015000FN00000000020220801000015000NNE   20220706122040W4A24P0P  00000750000000529500000817732W4A2  HJYHK-J 006400630015
BI00B32W4    #4500196326    202208257158-3121-80             WIRE SEAL                CCN000020000000020000FN00000000020220801000020000NNE   20220706122040W4A22C0C  00002000000000118000000187332W4A2  HJYHK-J 002700430014
BI00B32W4    #4500196326    202208257147-3642-30             CLIP                     CCN000009000000009000FN00000000020220801000009000NNE   20220706122040W4A22F0F  00000300000000542000000721332W4A2  HJYHK-J 005600390040
BI00B32W4    #4500196326    202208257283-4190-30             CONNECTOR                CCN000004080000004080FN00000000020220801000004080NNE   20220706122040W4A22N0N  00000024000000846000001115532W4A2  HJYHK-J 005600390040
BI00A32W4    4500196316     202209057116-4025                TERMINAL                 CCN000032000000032000FN00000000020220901000032000NNE   20220706122040W4M54P0P  00001600000000644800000975132W4M5  HJYHK-J 006400630017
BI00A32W4    4500196316     202209057283-7028-30             CONNECTOR                CCN000006000000006000FN00000000020220901000006000NNE   20220706122040W4M54N0N  00000300000001452000001681332W4M5  HJYHK-J 005600390040
BI00A32W4    4500196316     202209057158-3166-60             WIRE SEAL                CCN000040000000040000FN00000000020220901000040000NNE   20220706122040W4M51C0C  00004000000000104000000152432W4M5  HJYHK-J 002700430014
BI00A32W4    4500196316     202209057283-1030                CONNECTOR                CCN000006000000006000FN00000000020220901000006000NNE   20220706122040W4M54N0N  00000600000000988000001172032W4M5  HJYHK-J 005500360039
BI00B32W4    4500196314     202209087283-5843                CONNECTOR                CCN000001500000001500FN00000000020220901000001500NNE   20220706122040W4171N0N  00000150000000889000001132032W417  HJYHK   005600390040
BI00B32W4    #4500196314    202209087183-8927                HOUSING                  CCN000004000000004000FN00000000020220901000004000NNE   20220706122040W4172F0F  00000400000000714000000912732W417  HJYHK   005500360039
BI00B32W4    #4500196314    202209087282-3020                CONNECTOR                CCN000003000000003000FN00000000020220901000003000NNE   20220706122040W4172N0N  00000100000000984000001145432W417  HJYHK   005500360039
BI00B32W4    #4500196314    202209087287-2641                HOUSING FEMALE ASS'Y     CCN000002800000002800FN00000000020220901000002800NNE   20220706122040W4172N0N  00000280000001246000001356032W417  HJYHK   005400370024
BI00A32W4    4500196306     202209057116-4100-02             TERMINAL                 CCN000015000000015000FN00000000020220901000015000NNE   20220706122040W4194P0P  00001500000000696000000990232W419  HJYHK   006400630015
BI00A32W4    4500196306     202209057114-4110-02             TERMINAL                 CCN000015000000015000FN00000000020220901000015000NNE   20220706122040W4194P0P  00001500000000901500001230132W419  HJYHK   006400630017
BI00A32W4    4500196306     202209057283-6568-40             CONNECTOR                CCN000002000000002000FN00000000020220901000002000NNE   20220706122040W4194N0N  00000200000001090000001263032W419  HJYHK   005500360039
BI00A32W4    4500196317     202209127116-4112-02             TERMINAL                 CCN000018000000018000FN00000000020220901000018000NNE   20220706122040W4M54P0P  00000600000000450000000738232W4M5  HJYHK-J 006400630015
BI00A32W4    #4500196317    202209127186-8845                HOUSING MALE             CCN000003000000003000FN00000000020220901000003000NNE   20220706122040W4M52F0F  00000300000000690000000801532W4M5  HJYHK-J 005400370024
BI00B32W4    4500196337     202209087289-9553-50             SEALED ASSY FEMALE       CCN000008820000008820FN00000000020220901000008820NNE   20220706122040W4B74N0N  00000294000001108100001520632W4B7  HJYHK-J 005500360039
BI00B32W4    #4500196337    202209087174-1760-50             CAP                      CCN000003000000003000FN00000000020220901000003000NNE   20220706122040W4B72F0F  00000300000000813600000922632W4B7  HJYHK-J 005400370024
BI00B32W4    4500196350     202211297283-5574-10             CONNECTOR                CCN000000800000000800FN00000000020221201000000800NNE   20220706122040W4464N0N  00000080000001235000001435232W446  HJYHK   005500360039
BI00B32W4    #4500196311    202209227147-3642-30             CLIP                     CCN000075000000075000FN00000000020220901000075000NNE   20220706122040W4172F0F  00000300000000542000000721332W417  HJYHK   005600390040
BI00B32W9    4500194963     202207267289-6868-30             SEALED ASSY FEMALE       CCN000252000000050400FN00000000020220701000050400NNED0420220706122040W9  4N0N  00000252000000839200001119232W9    HKYHK   005500360039
BI00B32W9    #4500196192    202208097157-7812                SEAL RUBBER              CCN000100000000100000FN00000000020220701000100000NNED0220220706144556W9  2C0C  00001000000000137000000202032W9    HKYHK   002700430014
BI00B32W9    #4500196193    202208167157-7812                SEAL RUBBER              CCN000100000000100000FN00000000020220801000100000NNED0220220706144613W9  2C0C  00001000000000137000000202032W9    HKYHK   002700430014
BI00B32W9    4500194963     202208027289-6868-30             SEALED ASSY FEMALE       CCN000050400000050400FN00000000020220701000050400NNED0420220706122040W9  4N0N  00000252000000839200001119232W9    HKYHK   005500360039
BI00B32W9    4500194963     202208097289-6868-30             SEALED ASSY FEMALE       CCN000050400000050400FN00000000020220701000050400NNED0420220706122040W9  4N0N  00000252000000839200001119232W9    HKYHK   005500360039
BI00B32W9    4500194963     202208167289-6868-30             SEALED ASSY FEMALE       CCN000050400000050400FN00000000020220701000050400NNED0420220706122040W9  4N0N  00000252000000839200001119232W9    HKYHK   005500360039
BI00B32W9    4500194963     202208237289-6868-30             SEALED ASSY FEMALE       CCN000050400000050400FN00000000020220701000050400NNED0420220706122040W9  4N0N  00000252000000839200001119232W9    HKYHK   005500360039
BI00B32W9    4500196297     202208307172-5540-80             SEALED WIRE SEAL         CCN000800000000800000FN00000000020220801000800000NNE   20220706122040W9  1C0C  00002000000000186000000234432W9    HKYHK   004300270014
BI00B32W9    4500196297     202208307196-0805-02             TERMINAL FEMALE          CCN000787500000787500FN00000000020220801000787500NNE   20220706122040W9  4P0P  00002250000000558000000843232W9    HKYHK   006400630015
BI00B32W9    4500196297     202208307298-1145-4W             SQUIB SUB ASS'Y          CCN000600000000600000FN00000000020220801000600000NNE   20220706122040W9  4N0N  00001000000000787900000944932W9    HKYHK   005400370024
BI00B32W9    4500196297     202208307174-1849-70             COVER                    CCN000600000000600000FN00000000020220801000600000NNE   20220706122040W9  1F0F  00002500000000622500000761932W9    HKYHK   005400370024
BI00B32W9    4500196297     202208307196-0104-02             TERMINAL                 CCN000304000000304000FN00000000020220801000304000NNE   20220706122040W9  4P0P  00003800000000570000000956432W9    HKYHK   006400630017
BI00B32W9    4500196297     202208307298-4094-10             HOUSING FEMALE ASS'Y     CCN000202800000202800FN00000000020220801000202800NNE   20220706122040W9  4N0N  00000338000001097400001358732W9    HKYHK   005400370024
BI00B32W9    #4500196297    202208307198-1373-60             HOUSING FEMALE           CCN000090000000090000FN00000000020220801000090000NNE   20220706122040W9  2F0F  00000200000000819400000947432W9    HKYHK   005400370024
BI00B32W9    4500196340     202208307116-4231-02             TERMINAL                 CCN000026000000026000FN00000000020220801000026000NNE   20220706122040W9  4P0P  00002600000000683800001012532W9    HKYHK   006400630017
BI00B32W9    4500196340     202208307116-4022                TERMINAL                 CCN000013500000013500FN00000000020220801000013500NNE   20220706122040W9  4P0P  00001350000000618300000903532W9    HKYHK   006400630015
BI00B32W9    4500196340     202208307283-5846                HOUSING                  CCN000003000000003000FN00000000020220801000003000NNE   20220706122040W9  1N0N  00000150000000885000001102032W9    HKYHK   005600390040
BI00B32W9    4500196290     202207197196-0104-02             TERMINAL                 CCN000076000000076000FN00000000020220701000076000NNE   20220706122040W9  4P0P  00003800000000570000000956432W9    HKYHK   006400630017
BI00B32W9    4500196290     202207197298-4094-10             HOUSING FEMALE ASS'Y     CCN000067600000067600FN00000000020220701000067600NNE   20220706122040W9  4N0N  00000338000001097400001358732W9    HKYHK   005400370024
BI00B32W9    4500196295     202209067158-3167-80             WIRE SEAL                CCN000020000000020000FN00000000020220901000020000NNE   20220706122040W9  1C0C  00002000000000048000000109032W9    HKYHK   002700430014
BI00B32W9    4500196299     202208307289-6868-30             SEALED ASSY FEMALE       CCN000509040000509040FN00000000020220801000509040NNE   20220706122040W9  4N0N  00000252000000839200001119232W9    HKYHK   005500360039
BI00B32W9    #4500196293    202207267157-3950-80             SEAL RUBBER              CCN000080000000080000FN00000000020220701000080000NNED0720220706122040W9  2C0C  00004000000000154000000440332W9    HKYHK   002700430014
BI00B32W9    #4500196294    202209067157-3950-80             SEAL RUBBER              CCN000040000000040000FN00000000020220901000040000NNE   20220706122040W9  2C0C  00004000000000154000000440332W9    HKYHK   002700430014
BI00B32W9    4500196338     202208237116-4022                TERMINAL                 CCN000013500000013500FN00000000020220801000013500NNE   20220706122040W9  4P0P  00001350000000618300000903532W9    HKYHK   006400630015
BI00B32X5    PX5TAW206A     202207067195-1479-02             TERMINAL MALE            CCN000024000000024000FY00002400020220701000000000NNED0720220706154644X5  4P0P  00002400000000420000000714232X5    EPYNA-E 006400630015
BI00B32Y1    TA2083A        202207187287-9323                UNSEALED HOUSING SUB     CCN000009600000009600FN00000000020220901000009600NNE   20220706122040    1N0N  00000240000000537600000690032Y1    YAYAS   005600390023
BI00B32Y1    TA2083A        202207187114-6041                TERMINAL                 CCN000018000000018000FN00000000020220901000018000NNE   20220706122040    4P0P  00000360000000580700000824232Y1    YAYAS   006400630015
BI00B32Y1    #TA2083A       202207187189-2978-30             HOUSING FEMALE           CCN000018000000018000FN00000000020220901000018000NNE   20220706122040    2F0F  00000150000000966900001096932Y1    YAYAS   005400370024
BI00B32Y1    #TA2083A       202207187289-2914                HOUSING FEMALE ASS'Y     CCN000015000000015000FN00000000020220901000015000NNE   20220706122040    2N0N  00000150000000906000001033032Y1    YAYAS   005400370024
BI00B32Y1    #TA2083A       202207187289-2915-30             HOUSING FEMALE ASS'Y     CCN000006000000006000FN00000000020220901000006000NNE   20220706122040    2N0N  00000150000000964500001091532Y1    YAYAS   005400370024
BI00B32Y1    #TA2083A       202207187289-2916-30             HOUSING FEMALE ASS'Y     CCN000005000000005000FN00000000020220901000005000NNE   20220706122040    2N0N  00000100000000857000001084032Y1    YAYAS   005400370024
BI00B32Y1    #TA2083A       202207187289-2919-30             HOUSING FEMALE ASS'Y     CCN000010500000010500FN00000000020220901000010500NNE   20220706122040    2N0N  00000150000000907500001034532Y1    YAYAS   005400370024
BI00B32Y4    #CA-TMHM-01    202207217289-2913-30             HOUSING FEMALE ASS'Y     CCN000001500000001500FN00000000020220901000001500NNM   20220706122040    2N0N  00000150000000907500001034532Y4    BIYAB-I 005400370024
BI00B32Y4    #CA-TMHM-01    202207217289-2914-40             HOUSING FEMALE ASS'Y     CCN000001500000001500FN00000000020220901000001500NNM   20220706122040    2N0N  00000150000000904500001031532Y4    BIYAB-I 005400370024
BI00B32Y4    #CA-TMHM-01    202207217289-2915-30             HOUSING FEMALE ASS'Y     CCN000001500000001500FN00000000020220901000001500NNM   20220706122040    2N0N  00000150000000964500001091532Y4    BIYAB-I 005400370024
