AE00TO202208310431/08/202200000016600000000000000173739KGM  00000181855KGM  18000004540              AV 8 W                   AV 8 W                   0         0         0         0    0    0    00000000000166000000000213300035407800
AE00TO202208310431/08/202200000004900000000000000051284KGM  00000053680KGM  18000004543              AV 8 W/B                 AV 8 W/B                 0         0         0         0    0    0    00000000000049000000000213300010451700
AE00TO202208310431/08/202200000000100000000000000000992KGM  00000001041KGM  18007703730              AVSS 03F B               AVSS 03F B               0         0         0         0    0    0    00000000000020000000000011800000236000
AE00TO202208310431/08/202200000004300000000000000043473KGM  00000045576KGM  18007703941              AVSS 05F GY              AVSS 05F GY              0         0         0         0    0    0    00000000000645000000000015800010191000
AE00TO202208310431/08/202200000000200000000000000002022KGM  00000002120KGM  18007703950              AVSS 05F R               AVSS 05F R               0         0         0         0    0    0    00000000000030000000000015800000474000
AE00TO202208310431/08/202200000000100000000000000001011KGM  00000001060KGM  18007703952              AVSS 05F P               AVSS 05F P               0         0         0         0    0    0    00000000000015000000000015800000237000
AE00TO202208310431/08/202200000000100000000000000001011KGM  00000001060KGM  18007703953              AVSS 05F R/B             AVSS 05F R/B             0         0         0         0    0    0    00000000000015000000000015800000237000
AE00TO202208310431/08/202200000000100000000000000001011KGM  00000001060KGM  18007703957              AVSS 05F R/Y             AVSS 05F R/Y             0         0         0         0    0    0    00000000000015000000000015800000237000
AE00TO202208310431/08/202200000001300000000000000013143KGM  00000013779KGM  18007703960              AVSS 05F G               AVSS 05F G               0         0         0         0    0    0    00000000000195000000000015800003081000
AE00TO202208310431/08/202200000000200000000000000002022KGM  00000002120KGM  18007703967              AVSS 05F G/Y             AVSS 05F G/Y             0         0         0         0    0    0    00000000000030000000000015800000474000
AE00TO202208310431/08/202200000000100000000000000001011KGM  00000001060KGM  18007703980              AVSS 05F BR              AVSS 05F BR              0         0         0         0    0    0    00000000000015000000000015800000237000
AE00TO202208310431/08/202200000003400000000000000034374KGM  00000036037KGM  18007703990              AVSS 05F L               AVSS 05F L               0         0         0         0    0    0    00000000000510000000000015800008058000
AE00TO202208310431/08/202200000000100000000000000001011KGM  00000001060KGM  18007703991              AVSS 05F SB              AVSS 05F SB              0         0         0         0    0    0    00000000000015000000000015800000237000
AE00TO202208310431/08/202200000000100000000000000001011KGM  00000001060KGM  18007703992              AVSS 05F V               AVSS 05F V               0         0         0         0    0    0    00000000000015000000000015800000237000
AE00TO202208310431/08/202200000000100000000000000001011KGM  00000001060KGM  18007703997              AVSS 05F L/Y             AVSS 05F L/Y             0         0         0         0    0    0    00000000000015000000000015800000237000
AE00TO202208310431/08/202200000000300000000000000003333KGM  00000003480KGM  18007704140              AVSS 125F W              AVSS 125F W              0         0         0         0    0    0    00000000000024000000000035000000840000
AE00TO202208310431/08/202200000000200000000000000002222KGM  00000002320KGM  18007704160              AVSS 125F G              AVSS 125F G              0         0         0         0    0    0    00000000000016000000000035000000560000
AE00TO202208310431/08/202200000000100000000000000001016KGM  00000001064KGM  18018403951              CAVS 05 O                CAVS 05 O                0         0         0         0    0    0    00000000000015000000000015200000228000
AE00TO202208310431/08/202200000004900000000000000055125KGM  00000057521KGM  1801W003930              IVSSH 05F B              IVSSH 05F B              0         0         0         0    0    0    00000000000882000000000015600013759200
AE00TO202208310431/08/202200000000400000000000000004500KGM  00000004696KGM  1801W003941              IVSSH 05F GY             IVSSH 05F GY             0         0         0         0    0    0    00000000000072000000000015600001123200
AE00TO202208310431/08/202200000002000000000000000022500KGM  00000023478KGM  1801W003970              IVSSH 05F Y              IVSSH 05F Y              0         0         0         0    0    0    00000000000360000000000015600005616000
AE00TO202208310431/08/202200000001900000000000000021375KGM  00000022304KGM  1801W003980              IVSSH 05F BR             IVSSH 05F BR             0         0         0         0    0    0    00000000000342000000000015600005335200
AE00TO202208310431/08/202200000000800000000000000009000KGM  00000009391KGM  1801W003992              IVSSH 05F V              IVSSH 05F V              0         0         0         0    0    0    00000000000144000000000015600002246400
AE00TO202208310431/08/202200000014200000000000000160460KGM  00000167402KGM  1801W006930              IVSSH 035F B             IVSSH 035F B             0         0         0         0    0    0    00000000003550000000000011500040825000
AE00TO202208310431/08/202200000008400000000000000059724KGM  00000063830KGM  180BG3039A9              ALVUS 05 LA              ALVUS 05 LA              0         0         0         0    0    0    00000000002520000000000008100020412000
AE00TO202208310431/08/202200000003500000000000000024885KGM  00000027066KGM  180BG3039AH              ALVUS 05 LA/B            ALVUS 05 LA/B            0         0         0         0    0    0    00000000001050000000000008100008505000
AE00TO202208310431/08/202200000001000000000000000007110KGM  00000007599KGM  180BG3039AM              ALVUS 05 LA/W            ALVUS 05 LA/W            0         0         0         0    0    0    00000000000300000000000008100002430000
AE00TO202208310431/08/202200000002300000000000000016353KGM  00000017610KGM  180BG3039AQ              ALVUS 05 LA/R            ALVUS 05 LA/R            0         0         0         0    0    0    00000000000690000000000008100005589000
AE00TO202208310431/08/202200000002900000000000000020619KGM  00000022202KGM  180BG3039AZ              ALVUS 05 LA/G            ALVUS 05 LA/G            0         0         0         0    0    0    00000000000870000000000008100007047000
AE00TO202208310431/08/202200000000400000000000000002844KGM  00000003061KGM  180BG3039BA              ALVUS 05 LA/Y            ALVUS 05 LA/Y            0         0         0         0    0    0    00000000000120000000000008100000972000
AE00TO202208310431/08/202200000000100000000000000000711KGM  00000000760KGM  180BG3039BH              ALVUS 05 LA/BR           ALVUS 05 LA/BR           0         0         0         0    0    0    00000000000030000000000008100000243000
AE00TO202208310431/08/202200000002400000000000000017064KGM  00000018237KGM  180BG3039BJ              ALVUS 05 LA/L            ALVUS 05 LA/L            0         0         0         0    0    0    00000000000720000000000008100005832000
AE00TO202208310431/08/202200000001000000000000000007110KGM  00000007638KGM  180BG3039BK              ALVUS 05 LA/LG           ALVUS 05 LA/LG           0         0         0         0    0    0    00000000000300000000000008100002430000
AE00TO202208310431/08/202200000000600000000000000004266KGM  00000004794KGM  180BG3039BM              ALVUS 05 LA/GY           ALVUS 05 LA/GY           0         0         0         0    0    0    00000000000180000000000008100001458000
AE00TO202208310431/08/202200000003400000000000000024174KGM  00000026375KGM  180BG3039BN              ALVUS 05 LA/V            ALVUS 05 LA/V            0         0         0         0    0    0    00000000001020000000000008100008262000
AE00TO202208310431/08/202200000001300000000000000009243KGM  00000009879KGM  180BG3039BP              ALVUS 05 LA/P            ALVUS 05 LA/P            0         0         0         0    0    0    00000000000390000000000008100003159000
AE00TO202208310431/08/202200000001300000000000000009243KGM  00000010035KGM  180BG3039BQ              ALVUS 05 LA/SB           ALVUS 05 LA/SB           0         0         0         0    0    0    00000000000390000000000008100003159000
AE00TO202208310431/08/202200000000200000000000000001422KGM  00000001520KGM  180BG3039BR              ALVUS 05 LA/BE           ALVUS 05 LA/BE           0         0         0         0    0    0    00000000000060000000000008100000486000
AE00TO202208310431/08/202200000001400000000000000009789KGM  00000010473KGM  180CY5039AH              ALVSSH 05 LA/B           ALVSSH 05 LA/B           0         0         0         0    0    0    00000000000322000000000010300003316600
AE00TO202208310431/08/202200000001200000000000000008390KGM  00000008977KGM  180CY5039AM              ALVSSH 05 LA/W           ALVSSH 05 LA/W           0         0         0         0    0    0    00000000000276000000000010300002842800
AE00TO202208310431/08/202200000000600000000000000004195KGM  00000004488KGM  180CY5039AZ              ALVSSH 05 LA/G           ALVSSH 05 LA/G           0         0         0         0    0    0    00000000000138000000000010300001421400
AE00TO202208310431/08/202200000000100000000000000001166KGM  00000001215KGM  180D0204140              AVSSH 125F W             AVSSH 125F W             0         0         0         0    0    0    00000000000008000000000036000000288000
AE00TO202208310431/08/202200000000200000000000000001695KGM  00000001793KGM  181AD2001ZZ              CIVUSAS-S 035X1 B        CIVUSAS-S 035X1 B        0         0         0         0    0    0    00000000000011000000000034400000378400
AE00TO202208310431/08/202200000000900000000000000007236KGM  00000007676KGM  181B0910241              CAVSAS 05X2 GY           CAVSAS 05X2 GY           0         0         0         0    0    0    00000000000027000000000061600001663200
AE00TO202208310431/08/202200000000200000000000000001520KGM  00000001618KGM  181E48017ZZ              CAVSAS-S 05X1 GY/G       CAVSAS-S 05X1 GY/G       0         0         0         0    0    0    00000000000008000000000040900000327200
AE00TO202208310431/08/202200000000200000000000000001520KGM  00000001618KGM  181E48019ZZ              CAVSAS-S 05X1 GY/W       CAVSAS-S 05X1 GY/W       0         0         0         0    0    0    00000000000008000000000040900000327200
AE00TO202208310431/08/202200000000100000000000000000764KGM  00000000813KGM  181E50000ZZ              AVSSCS-S 05FX1 DGY/BR    AVSSCS-S 05FX1 DGY/BR    0         0         0         0    0    0    00000000000004000000000050700000202800
AE00TO202208310431/08/202200000000300000000000000002292KGM  00000002438KGM  181E50004ZZ              AVSSCS-S 05FX1 DGY       AVSSCS-S 05FX1 DGY       0         0         0         0    0    0    00000000000012000000000050700000608400
AE00TO202208310431/08/202200000000100000000000000000764KGM  00000000813KGM  181E50006ZZ              AVSSCS-S 05FX1 DGY/Y     AVSSCS-S 05FX1 DGY/Y     0         0         0         0    0    0    00000000000004000000000050700000202800
AE00TO202208310431/08/202200000000200000000000000001858KGM  00000001955KGM  181E50011ZZ              AVSSCS-S 05FX2 DGY/Y     AVSSCS-S 05FX2 DGY/Y     0         0         0         0    0    0    00000000000006000000000071000000426000
AE00TO202208310431/08/202200000007900000000000000059994KGM  00000063905KGM  181F21009ZZ              AVSSHCS-S 05FX2 B        AVSSHCS-S 05FX2 B        0         0         0         0    0    0    00000000000237000000000074200017585400
AE00TO202208310431/08/202200000000700000000000000005316KGM  00000005658KGM  181F21016ZZ              AVSSHCS-S 05FX2 B/BR     AVSSHCS-S 05FX2 B/BR     0         0         0         0    0    0    00000000000021000000000074200001558200
