AE00TO202208310331/08/202200000001700000000000000017793KGM  00000018624KGM  18000004530              AV 8 B                   AV 8 B                   0         0         0         0    0    0    00000000000017000000000213300003626100
AE00TO202208310331/08/202200000001100000000000000011513KGM  00000012051KGM  18000004534              AV 8 B/W                 AV 8 B/W                 0         0         0         0    0    0    00000000000011000000000213300002346300
AE00TO202208310331/08/202200000006200000000000000064890KGM  00000067922KGM  18000004535              AV 8 B/R                 AV 8 B/R                 0         0         0         0    0    0    00000000000062000000000213300013224600
AE00TO202208310331/08/202200000009000000000000000094196KGM  00000098596KGM  18000004540              AV 8 W                   AV 8 W                   0         0         0         0    0    0    00000000000090000000000213300019197000
AE00TO202208310331/08/202200000004500000000000000047098KGM  00000049298KGM  18000004543              AV 8 W/B                 AV 8 W/B                 0         0         0         0    0    0    00000000000045000000000213300009598500
AE00TO202208310331/08/202200000000100000000000000000992KGM  00000001041KGM  18007703730              AVSS 03F B               AVSS 03F B               0         0         0         0    0    0    00000000000020000000000011800000236000
AE00TO202208310331/08/202200000000100000000000000001011KGM  00000001060KGM  18007703900              AVSS 05F P/W             AVSS 05F P/W             0         0         0         0    0    0    00000000000015000000000015800000237000
AE00TO202208310331/08/202200000000100000000000000001011KGM  00000001060KGM  18007703945              AVSS 05F W/R             AVSS 05F W/R             0         0         0         0    0    0    00000000000015000000000015800000237000
AE00TO202208310331/08/202200000001400000000000000015556KGM  00000016240KGM  18007704140              AVSS 125F W              AVSS 125F W              0         0         0         0    0    0    00000000000112000000000035000003920000
AE00TO202208310331/08/202200000000800000000000000008890KGM  00000009280KGM  18007704143              AVSS 125F W/B            AVSS 125F W/B            0         0         0         0    0    0    00000000000064000000000035000002240000
AE00TO202208310331/08/202200000001200000000000000013334KGM  00000013920KGM  18007704160              AVSS 125F G              AVSS 125F G              0         0         0         0    0    0    00000000000096000000000035000003360000
AE00TO202208310331/08/202200000000100000000000000001228KGM  00000001277KGM  1801R70415U              CIVUS 125 BE             CIVUS 125 BE             0         0         0         0    0    0    00000000000010000000000031800000318000
AE00TO202208310331/08/202200000000300000000000000003375KGM  00000003522KGM  1801W003930              IVSSH 05F B              IVSSH 05F B              0         0         0         0    0    0    00000000000054000000000015600000842400
AE00TO202208310331/08/202200000000100000000000000001125KGM  00000001174KGM  1801W003940              IVSSH 05F W              IVSSH 05F W              0         0         0         0    0    0    00000000000018000000000015600000280800
AE00TO202208310331/08/202200000000100000000000000001125KGM  00000001174KGM  1801W003941              IVSSH 05F GY             IVSSH 05F GY             0         0         0         0    0    0    00000000000018000000000015600000280800
AE00TO202208310331/08/202200000000200000000000000002250KGM  00000002348KGM  1801W003943              IVSSH 05F W/B            IVSSH 05F W/B            0         0         0         0    0    0    00000000000036000000000015600000561600
AE00TO202208310331/08/202200000000100000000000000001125KGM  00000001174KGM  1801W003950              IVSSH 05F R              IVSSH 05F R              0         0         0         0    0    0    00000000000018000000000015600000280800
AE00TO202208310331/08/202200000000100000000000000001125KGM  00000001174KGM  1801W003952              IVSSH 05F P              IVSSH 05F P              0         0         0         0    0    0    00000000000018000000000015600000280800
AE00TO202208310331/08/202200000004500000000000000050625KGM  00000052825KGM  1801W003992              IVSSH 05F V              IVSSH 05F V              0         0         0         0    0    0    00000000000810000000000015600012636000
AE00TO202208310331/08/202200000000300000000000000003390KGM  00000003537KGM  1801W006930              IVSSH 035F B             IVSSH 035F B             0         0         0         0    0    0    00000000000075000000000011500000862500
AE00TO202208310331/08/202200000000600000000000000006202KGM  00000006494KGM  180D0203940              AVSSH 05F W              AVSSH 05F W              0         0         0         0    0    0    00000000000090000000000016500001485000
AE00TO202208310331/08/202200000000200000000000000002067KGM  00000002165KGM  180D0203943              AVSSH 05F W/B            AVSSH 05F W/B            0         0         0         0    0    0    00000000000030000000000016500000495000
AE00TO202208310331/08/202200000000200000000000000002333KGM  00000002431KGM  180D0204149              AVSSH 125F W/L           AVSSH 125F W/L           0         0         0         0    0    0    00000000000016000000000036000000576000
AE00TO202208310331/08/202200000000100000000000000000760KGM  00000000809KGM  181AD2003ZZ              CIVUSAS-S 035X3 B        CIVUSAS-S 035X3 B        0         0         0         0    0    0    00000000000003500000000055700000194950
AE00TO202208310331/08/202200000000200000000000000001593KGM  00000001691KGM  181B32116Y9              AVSSCS 03FX2 DGY/P       AVSSCS 03FX2 DGY/P       0         0         0         0    0    0    00000000000007000000000061200000428400
AE00TO202208310331/08/202200000000100000000000000000705KGM  00000000754KGM  181CQ7004ZZ              IVSSHCS-S 05FX2 B(R,G)   IVSSHCS-S 05FX2 B(R,G)   0         0         0         0    0    0    00000000000003000000000073000000219000
AE00TO202208310331/08/202200000000300000000000000002304KGM  00000002451KGM  181E48018ZZ              CAVSAS-S 05X2 GY/SB      CAVSAS-S 05X2 GY/SB      0         0         0         0    0    0    00000000000009000000000056900000512100
AE00TO202208310331/08/202200000000100000000000000000758KGM  00000000807KGM  181E50002ZZ              AVSSCS-S 03FX2 DGY/G     AVSSCS-S 03FX2 DGY/G     0         0         0         0    0    0    00000000000003500000000059700000208950
AE00TO202208310331/08/202200000000100000000000000000764KGM  00000000813KGM  181E50004ZZ              AVSSCS-S 05FX1 DGY       AVSSCS-S 05FX1 DGY       0         0         0         0    0    0    00000000000004000000000050700000202800
AE00TO202208310331/08/202200000000200000000000000001528KGM  00000001626KGM  181E50005ZZ              AVSSCS-S 05FX1 DGY/W     AVSSCS-S 05FX1 DGY/W     0         0         0         0    0    0    00000000000008000000000050700000405600
AE00TO202208310331/08/202200000000100000000000000000764KGM  00000000813KGM  181E50007ZZ              AVSSCS-S 05FX1 DGY/L     AVSSCS-S 05FX1 DGY/L     0         0         0         0    0    0    00000000000004000000000050700000202800
AE00TO202208310331/08/202200000000100000000000000000816KGM  00000000865KGM  181E50027ZZ              AVSSCS-S 05FX3 DGY/G     AVSSCS-S 05FX3 DGY/G     0         0         0         0    0    0    00000000000002500000000092000000230000
AE00TO202208310331/08/202200000008600000000000000065166KGM  00000069371KGM  181E50036ZZ              AVSSCS-S 03FX2 DGY       AVSSCS-S 03FX2 DGY       0         0         0         0    0    0    00000000000301000000000059700017969700
AE00TO202208310331/08/202200000009100000000000000069107KGM  00000073556KGM  181F21009ZZ              AVSSHCS-S 05FX2 B        AVSSHCS-S 05FX2 B        0         0         0         0    0    0    00000000000273000000000074200020256600
AE00TO202208310331/08/202200000000400000000000000003038KGM  00000003233KGM  181F21013ZZ              AVSSHCS-S 05FX2 B/Y      AVSSHCS-S 05FX2 B/Y      0         0         0         0    0    0    00000000000012000000000074200000890400
AE00TO202208310331/08/202200000000800000000000000006075KGM  00000006467KGM  181F21014ZZ              AVSSHCS-S 05FX2 B/L      AVSSHCS-S 05FX2 B/L      0         0         0         0    0    0    00000000000024000000000074200001780800
AE00TO202208310331/08/202200000000800000000000000006075KGM  00000006467KGM  181F21016ZZ              AVSSHCS-S 05FX2 B/BR     AVSSHCS-S 05FX2 B/BR     0         0         0         0    0    0    00000000000024000000000074200001780800
