AE00TI102208310331/08/202200000000500000000000000004339KGM  00000005339KGM  7173-3291-40             LIF LEVER                7173329140               0         0         0         0    0    0    00001200000000240000000142000017040000
AE00TI102208310331/08/202200000000300000000000000003412KGM  00000003893KGM  7183-2417                CONNECTOR HOUSING        71832417                 0         0         0         0    0    0    00000720000000240000000138000009936000
AE00TI102208310331/08/202200000024000000000000000057552KGM  00000117552KGM  7271-1820-30             CASE SUB ASSY,ECU        7271182030               0         0         0         0    0    0    00000432000000001800009576000413683200
AE00TI102208310331/08/202200000000200000000000000001732KGM  00000002022KGM  7288-3329-30             HOUSING MALE             7288332930               0         0         0         0    0    0    00000300000000150000000354000010620000
AE00TI102208310331/08/202200000000100000000000000000867KGM  00000001012KGM  7288-3337-30             HOUSING MALE             7288333730               0         0         0         0    0    0    00000150000000150000000354000005310000
AE00TI102208310331/08/202200000000900000000000000010848KGM  00000012063KGM  7288-6547                CONNECTOR MALE ASS'Y     72886547                 0         0         0         0    0    0    00000675000000075000001125000075937500
AE00TI102208310331/08/202200000000500000000000000003432KGM  00000004507KGM  7289-3342                HOUSING FEMALE ASS'Y     72893342                 0         0         0         0    0    0    00001200000000240000000186000022320000
AE00TI102208310331/08/202200000001500000000000000010296KGM  00000013521KGM  7289-3342-30             HOUSING FEMALE ASS'Y     7289334230               0         0         0         0    0    0    00003600000000240000000191000068760000
AE00TI102208310331/08/202200000000100000000000000001092KGM  00000001295KGM  7298-2278-30             HOUSING FEMALE ASS'Y     7298227830               0         0         0         0    0    0    00000240000000240000000227000005448000
AE00TI102208310331/08/202200000003600000000000000026712KGM  00000040392KGM  7388-2978-30             HOUSING MALE ASS'Y       7388297830               0         0         0         0    0    0    00001728000000048000001790000309312000
