AE00TI102208310231/08/202200000000800000000000000005990KGM  00000008619KGM  7114-4100-02             TERMINAL                 7114410002               0         0         0         0    0    0    00014400000001800000000034000048960000
AE00TI102208310231/08/202200000003200000000000000019152KGM  00000029667KGM  7114-4112-02             TERMINAL                 7114411202               0         0         0         0    0    0    00028800000000900000000051000146880000
AE00TI102208310231/08/202200000000800000000000000006739KGM  00000008581KGM  7116-2871                TERMINAL                 71162871                 0         0         0         0    0    0    00009600000001200000000043000041280000
AE00TI102208310231/08/202200000000900000000000000001535KGM  00000001970KGM  7137-3047-30             UNIT PACKING             7137304730               0         0         0         0    0    0    00000900000000100000000189000017010000
AE00TI102208310231/08/202200000003500000000000000011571KGM  00000013510KGM  7158-3006-90             RUBBER STOPPER           7158300690               0         0         0         0    0    0    00070000000002000000000016000112000000
AE00TI102208310231/08/202200000001500000000000000005070KGM  00000005793KGM  7158-3009-60             RUBBER STOPPER           7158300960               0         0         0         0    0    0    00030000000002000000000012000036000000
AE00TI102208310231/08/202200000000700000000000000001932KGM  00000002333KGM  7158-3070-80             RUBBER STOPPER           7158307080               0         0         0         0    0    0    00028000000004000000000008000022400000
AE00TI102208310231/08/202200000002100000000000000002184KGM  00000003200KGM  7158-3166-60             WIRE SEAL                7158316660               0         0         0         0    0    0    00084000000004000000000004000033600000
AE00TI102208310231/08/202200000005800000000000000002784KGM  00000006322KGM  7158-3167-80             WIRE SEAL                7158316780               0         0         0         0    0    0    00116000000002000000000005000058000000
AE00TI102208310231/08/202200000002800000000000000001232KGM  00000002579KGM  7158-3168-80             SEALED                   7158316880               0         0         0         0    0    0    00056000000002000000000004000022400000
AE00TI102208310231/08/202200000000700000000000000001092KGM  00000001429KGM  7158-3169-40             SEALING PLUG             7158316940               0         0         0         0    0    0    00028000000004000000000006000016800000
AE00TI102208310231/08/202200000001800000000000000003348KGM  00000004219KGM  7172-5540-80             SEALED WIRE SEAL         7172554080               0         0         0         0    0    0    00036000000002000000000010000036000000
AE00TI102208310231/08/202200000000500000000000000002280KGM  00000003706KGM  7195-1463-02             TERMINAL MALE            7195146302               0         0         0         0    0    0    00014250000002850000000014000019950000
AE00TI102208310231/08/202200000001100000000000000014520KGM  00000017270KGM  7470-3082                J/B COMPLETE ASS'Y       74703082                 0         0         0         0    0    0    00000026400000002400031298000082626720
AE00TI102208310231/08/202200000002900000000000000038280KGM  00000045530KGM  7470-4481                J/B COMPLETE ASS'Y       74704481                 0         0         0         0    0    0    00000069600000002400000000000000000000
AE00TI102208310231/08/202200000001600000000000000000000KGM  00000000000KGM  7470-5782D               J/B COMPLETE ASS'Y       74705782D                0         0         0         0    0    0    00000024000000001500000000000000000000
AE00TI102208310231/08/202200000003000000000000000000000KGM  00000000000KGM  7470-5783D               J/B COMPLETE ASS'Y       74705783D                0         0         0         0    0    0    00000045000000001500000000000000000000
