BI00B1200    #2399T52913    202209087198-1373-60             HOUSING FEMALE           CCN000020000000020000FN00000000020221101000020000NNMD0020220831151150    2F0F  0000020000000081940000094741200    YCYC    005400370024
BI00B1200    #2399T52914    202209087198-1373-60             HOUSING FEMALE           CCN000020000000020000FN00000000020221101000020000NNMD0020220831145702    2F0F  0000020000000081940000094741200    YCYC    005400370024
BI00B1200    OHM-202210-01  20220908REEL-A36                 ALUMINUM REEL            PNN000000036000000036FN00000000020220901000000036NNE00020220831121813    1N0N  0000000030000075000000083201200    YCYC    005600540017
BI00B1200    OHM-202210-01  20220908REEL-A32                 ALUMINUM REEL            PNN000000003000000003FN00000000020220901000000003NNE00020220831121813    1N0N  0000000030000073800000082101200    YCYC    005600540017
BI00B1200    OHM-202210-01  20220908REEL-B36                 ALUMINUM REEL            PNN000000009000000009FN00000000020220901000000009NNE00020220831121813    1N0N  0000000030000088200000096601200    YCYC    005600540017
BI00B1200    OHM-202210-01  20220908REEL-B42                 ALUMINUM REEL            PNN000000032000000032FN00000000020220901000000032NNE00020220831121813    1N0N  0000000020000061200000069601200    YCYC    005600540017
BI00B1200    O022K50122     202210277116-4100-02             TERMINAL                 CCN000060000000060000FN00000000020221101000060000NNE   20220831121813    4P0P  0000150000000069600000099021200    YCYC    006400630015
BI00B1200    H322L50011     202211107116-4111-02             TERMINAL                 CCN000007500000007500FN00000000020221201000007500NNE   20220831121813    4P0P  0000075000000052950000081771200    YCYC    006400630015
BI00B1200    CE22-MN-0102   202209227283-5532-40             CONNECTOR                CCN000002000000002000FN00000000020220901000002000NNE   20220831121813    4N0N  0000020000000089500000109401200    YCYC    005500360039
BI00B1200    CE22-MN-0102   202209227283-5534-60             CONNECTOR                CCN000001600000001600FN00000000020220901000001600NNE   20220831121813    4N0N  0000016000000135500000159601200    YCYC    005600390040
BI00B1200    #CE22-MN-0102  202209227282-5532-40             CONNECTOR                CCN000001600000001600FN00000000020220901000001600NNE   20220831121813    2N0N  0000016000000111600000128201200    YCYC    005500360039
BI00B32AF    JTB2094        202209027017-1180-02             TERMINAL                 CCN000432000000432000FN00000000020220901000432000NNM00020220831144445    4P0P  00007200000001065600001229032AF    HBYHVTB 005100280028
BI00B32AF    JTB2094        202209027017-1182-02             TERMINAL                 CCN000135000000135000FN00000000020220901000135000NNM00020220831144445    4P0P  00004500000001165500001318632AF    HBYHVTB 005100280028
BI00B32AF    JTB2094        202209027017-1183-02             TERMINAL                 CCN000027000000027000FN00000000020220901000027000NNM00020220831144445    4P0P  00002700000001139400001307432AF    HBYHVTB 005100280028
BI00B32AF    JTB2094        202209027116-2891-02             TERMINAL                 CCN000015000000015000FN00000000020220901000015000NNM00020220831144421    4P0P  00001500000000982500001145932AF    HBYHVTB 005100280028
BI00B32CA    PTA32090A      202209227114-5096-02             TERMINAL                 CCN000240000000240000FN00000000020220901000240000NNED0720220831121813    4P0P  00003000000000498000000792232CA    YPYPY   006400630015
BI00B32CA    PTA32090A      202209227114-5096-08             TERMINAL                 CCN000030000000030000FN00000000020220901000030000NNED0720220831121813    4P0P  00003000000000498000000792232CA    YPYPY   006400630015
BI00B32CA    PTA32090A      202209227116-3153-02             TERMINAL FEMALE          CCN001215000001215000FN00000000020220901001215000NNED0720220831121813    4P0P  00002700000000459000000744232CA    YPYPY   006400630015
BI00B32CA    PTA32090A      202209227116-3154-02             TERMINAL FEMALE          CCN000324000000324000FN00000000020220901000324000NNED0720220831121813    4P0P  00002700000000469800000755032CA    YPYPY   006400630015
BI00B32CA    PTA32090A      202209227116-4486-02             TERMINAL                 CCN000168000000168000FN00000000020220901000168000NNED0720220831121813    4P0P  00002800000000666400000995132CA    YPYPY   006400630017
BI00B32CA    PTA32090A      202209227158-3167-80             WIRE SEAL                CCN000120000000120000FN00000000020220901000120000NNED0720220831121813    1C0C  00002000000000048000000109032CA    YPYPY   002700430014
BI00B32CA    PTA32090A      202209227196-0510-02             TERMINAL                 CCN000072000000072000FN00000000020220901000072000NNED0720220831121813    4P0P  00002400000000871200001034632CA    YPYPY   002800510028
BI00B32CA    PTA32090A      202209227287-9323                UNSEALED HOUSING SUB     CCN000004800000004800FN00000000020220901000004800NNED0720220831121813    1N0N  00000240000000537600000690032CA    YPYPY   005600390023
BI00B32CA    PTA32090A      202209227289-3342                HOUSING FEMALE ASS'Y     CCN000024000000024000FN00000000020220901000024000NNED0720220831121813    1N0N  00000240000000686400000901432CA    YPYPY   005500360039
BI00B32CA    PTA32090A      202209227289-3342-30             HOUSING FEMALE ASS'Y     CCN000040800000040800FN00000000020220901000040800NNED0720220831121813    1N0N  00000240000000686400000901432CA    YPYPY   005500360039
BI00B32CA    PTA32090A      202209227289-3342-90             HOUSING FEMALE ASS'Y     CCN000012000000012000FN00000000020220901000012000NNED0720220831121813    1N0N  00000240000000686400000901432CA    YPYPY   005500360039
BI00B32CA    PTA32091A      202209227289-3342                HOUSING FEMALE ASS'Y     CCN000062400000062400FN00000000020220901000062400NNED0720220831121813    1N0N  00000240000000686400000901432CA    YPYPY   005500360039
BI00B32CA    PTA32091A      202209227289-3342-30             HOUSING FEMALE ASS'Y     CCN000110400000110400FN00000000020220901000110400NNED0720220831121813    1N0N  00000240000000686400000901432CA    YPYPY   005500360039
BI00B32CA    PTA32091A      202209227289-3342-90             HOUSING FEMALE ASS'Y     CCN000009600000009600FN00000000020220901000009600NNED0720220831121813    1N0N  00000240000000686400000901432CA    YPYPY   005500360039
BI00B32DA    SBT2211        202209297283-5830                CONNECTOR                CCN000048000000024000FN00000000020221101000024000NNMD0420220831121813    1N47  00000600000000954000001104032DA    GBYIPLGB005500360039
BI00B32DA    SBT2211        202211107286-3885-40             CONNECTOR MALE ASS'Y     CCN000057600000019200FN00000000020221101000019200NNMD0420220831121813    1N0N  00000120000000910600001130632DA    GBYIPLGB005500360039
BI00B32DA    SBT2211        202210067283-5830                CONNECTOR                CCN000024000000024000FN00000000020221101000024000NNMD0420220831121813    1N47  00000600000000954000001104032DA    GBYIPLGB005500360039
BI00B32DA    SBT2211        202211177286-3885-40             CONNECTOR MALE ASS'Y     CCN000019200000019200FN00000000020221101000019200NNMD0420220831121813    1N0N  00000120000000910600001130632DA    GBYIPLGB005500360039
BI00B32DA    SBT2211        202211247286-3885-40             CONNECTOR MALE ASS'Y     CCN000019200000019200FN00000000020221101000019200NNMD0420220831121813    1N0N  00000120000000910600001130632DA    GBYIPLGB005500360039
BI00B32DE    TCT2104        202209157114-4486-02             TERMINAL                 CCN000024000000024000FN00000000020221001000024000NNMD0020220831121813    4P0P  00002400000000662400000956032DE    TVYEV-TV006400630015
BI00B32DE    TCT2103        202209157116-1688-02             TERMINAL FEMALE          CCN000021000000021000FN00000000020221001000021000NNMD0020220831121813    4P0P  00002100000000299600000898832DE    TVYEV-TV005100280028
BI00B32DE    TCT2104        202209227116-1688-02             TERMINAL FEMALE          CCN000021000000021000FN00000000020221001000021000NNMD0020220831121813    4P0P  00002100000000299600000898832DE    TVYEV-TV005100280028
BI00B32DE    TCT2103        202209157116-4231-02             TERMINAL                 CCN000260000000052000FN00000000020221001000052000NNMD0020220831121813    4P0P  00002600000000683800001012532DE    TVYEV-TV006400630017
BI00B32DE    TCT2103        202209157283-4576-90             HOUSING FEMALE ASS'Y     CCN000004800000004800FN00000000020221001000004800NNMD0020220831121813    4N0N  00000480000000651300000871332DE    TVYEV-TV005500360039
BI00B32DE    TCT2103        202209227116-4231-02             TERMINAL                 CCN002080000000208000FN00000000020221001000208000NNMD0020220831121813    4P0P  00002600000000683800001012532DE    TVYEV-TV006400630017
BI00T32DE    @ICT209C       202209057183-3190                JOINT CONNECTOR          CCN000003600000003600FN00000000020220901000003600NNE   20220831143303    3F0F  00000360000000457600000667832DE    TVYEV-TV005500360039
BI00T32DE    @ICT2101       202210037183-2510                HOUSING                  CCN000012000000012000FN00000000020221001000012000NNM   20220831154148    3F0F  00000300000001063500001159032DE    TVYEV-TV005400370024
BI00T32DE    @ICT2101       202210037183-3190                JOINT CONNECTOR          CCN000079200000079200FN00000000020221001000079200NNM   20220831154148    3F0F  00000360000000457600000667832DE    TVYEV-TV005500360039
BI00T32DE    @ICT2101       202210037183-8049                CONNECTOR HOUSING        CCN000004000000004000FN00000000020221001000004000NNM   20220831154148    3F0F  00000400000000583600000740032DE    TVYEV-TV005400370024
BI00T32DE    @ICT2101       202210037283-1061                CONNECTOR SUB ASSY       CCN000012000000012000FN00000000020221001000012000NNM   20220831154148    3N0N  00000240000000829700001065032DE    TVYEV-TV005500360039
BI00T32DE    @ICT2101       202210037283-1223-30             HOUSING SUB ASSEMBLY     CCN000009600000009600FN00000000020221001000009600NNM   20220831154148    3N0N  00000480000000749300000998032DE    TVYEV-TV005500360039
BI00T32DE    @ICT2101       202210037283-1556                CONNECTOR ASS'Y          CCN000038400000038400FN00000000020221001000038400NNM   20220831154148    3N0N  00000240000000755000001014032DE    TVYEV-TV005500360039
BI00B32EJ    T220830P01     202209297116-4124-02             TERMINAL                 CCN000006000000006000FN00000000020220901000006000NNE   20220831121813EJ  4P0P  00000300000000459900000753532EJ    EJYKBO  006400630015
BI00B32EJ    T220830P01     202209297196-1461-06             TERMINAL FEMALE          CCN000048000000048000FN00000000020220901000048000NNE   20220831121813EJ  4P0P  00002400000000386400000692932EJ    EJYKBO  006400630015
BI00B32EJ    T220830P01     202209297114-4101-02             TERMINAL                 CCN000015000000015000FN00000000020220901000015000NNE   20220831121813EJ  4P0P  00001500000000675000001003632EJ    EJYKBO  006400630017
BI00B32EJ    T220830P01     202209297116-4120-02             TERMINAL                 CCN000006000000006000FN00000000020220901000006000NNE   20220831121813EJ  4P0P  00000600000000780000001073632EJ    EJYKBO  006400630015
BI00B32EJ    T220830P01     202209297116-4122-02             TERMINAL                 CCN000027000000027000FN00000000020220901000027000NNE   20220831121813EJ  4P0P  00000450000000656600000950232EJ    EJYKBO  006400630015
BI00B32EJ    T220830P01     202209297116-4121-02             TERMINAL                 CCN000027000000027000FN00000000020220901000027000NNE   20220831121813EJ  4P0P  00000450000000618800000912432EJ    EJYKBO  006400630015
BI00B32EJ    T220830P01     202209297116-4112-02             TERMINAL                 CCN000024000000024000FN00000000020220901000024000NNE   20220831121813EJ  4P0P  00000600000000450000000738232EJ    EJYKBO  006400630015
BI00B32EJ    T220830P01     202209297116-4110-02             TERMINAL                 CCN000009000000009000FN00000000020220901000009000NNE   20220831121813EJ  4P0P  00000900000000594000000882232EJ    EJYKBO  006400630015
BI00B32EJ    T220830P01     202209297158-3166-60             WIRE SEAL                CCN000560000000560000FN00000000020220901000560000NNE   20220831121813EJ  1C0C  00004000000000104000000152432EJ    EJYKBO  002700430014
BI00B32EJ    T220830P01     202209297158-3167-80             WIRE SEAL                CCN000480000000480000FN00000000020220901000480000NNE   20220831121813EJ  1C0C  00002000000000048000000109032EJ    EJYKBO  002700430014
BI00B32EJ    T220830P01     202209297158-3169-40             SEALING PLUG             CCN000240000000240000FN00000000020220901000240000NNE   20220831121813EJ  1C0C  00004000000000156000000204132EJ    EJYKBO  004300260014
BI00B32EJ    T220830P01     202209297158-3167-61             WIRE SEAL                CCN000040000000040000FN00000000020220901000040000NNE   20220831121813EJ  1C0C  00002000000000048000000096432EJ    EJYKBO  004300270014
BI00B32EJ    #T220830P01    202209297158-3120-90             CONNECTOR WIRE SEAL      CCN000060000000060000FN00000000020220901000060000NNE   20220831121813EJ  2C0C  00002000000000136000000194032EJ    EJYKBO  002700430014
BI00B32EJ    #T220830P01    202209297123-6423-30             CONNECTOR                CCN000002000000002000FN00000000020220901000002000NNE   20220831121813EJ  2F0F  00000200000001002000001167632EJ    EJYKBO  005600390023
BI00B32EJ    #T220830P01    202209297282-6458-40             CONNECTOR                CCN000001000000001000FN00000000020220901000001000NNE   20220831121813EJ  2N0N  00000100000001206000001350532EJ    EJYKBO  005500360039
BI00B32E2    NY211B         202209147116-1473                TERMINAL                 CCN000027000000027000FN00000000020221101000027000NNE   20220831121813    4P0P  00001350000000523800000809032E2    SPYSE   006400630015
BI00B32E2    NY211B         202209147116-4060-02             TERMINAL                 CCN000024000000024000FN00000000020221101000024000NNE   20220831121813    1P0P  00002400000000511200000984232E2    SPYSE   006400630017
BI00B32E2    NY211B         202209147126-8851-02             TERMINAL                 CCN000009000000009000FN00000000020221101000009000NNE   20220831121813    1P0P  00000900000000739800001025032E2    SPYSE   006400630015
BI00B32E2    NY211B         202209147158-3166-60             WIRE SEAL                CCN000160000000160000FN00000000020221101000160000NNE   20220831121813    1C0C  00004000000000104000000152432E2    SPYSE   002700430014
BI00B32E2    NY211B         202209147286-4097-40             CONNECTOR MALE ASS'Y     CCN000001600000001600FN00000000020221101000001600NNE   20220831121813    1N0N  00000160000000768000000978032E2    SPYSE   005500360039
BI00B32E2    NY211B         202209147288-3337-30             HOUSING MALE             CCN000001500000001500FN00000000020221101000001500NNE   20220831121813    4N0N  00000150000000867000001012032E2    SPYSE   005400370024
BI00B32E2    #NY211B        202209147158-3003-90             RUBBER STOPPER           CCN000020000000020000FN00000000020221101000020000NNE   20220831121813    2C0C  00002000000000250000000306032E2    SPYSE   002700430014
BI00B32E2    #NY211B        202209147158-3015-10             RUBBER STOPPER           CCN000010000000010000FN00000000020221101000010000NNE   20220831121813    2C0C  00001000000000419500000474032E2    SPYSE   002700430014
BI00B32E2    #NY211B        202209147158-3121-80             WIRE SEAL                CCN000040000000040000FN00000000020221101000040000NNE   20220831121813    2C0C  00002000000000118000000187332E2    SPYSE   002700430014
BI00B32E2    #NY211B        202209147183-2419-90             CONNECTOR HOUSING        CCN000004800000004800FN00000000020221101000004800NNE   20220831121813    2F0F  00000480000001113600001400732E2    SPYSE   005500360039
BI00B32E2    #NY211B        202209147289-2912-30             HOUSING FEMALE ASS'Y     CCN000002000000002000FN00000000020221101000002000NNE   20220831121813    2N0N  00000200000000804000000929032E2    SPYSE   005400370024
BI00B32E2    #NY211B        202209147289-2913-30             HOUSING FEMALE ASS'Y     CCN000001500000001500FN00000000020221101000001500NNE   20220831121813    2N0N  00000150000000907500001034532E2    SPYSE   005400370024
BI00B32E2    #NY211B        202209147289-2914                HOUSING FEMALE ASS'Y     CCN000001500000001500FN00000000020221101000001500NNE   20220831121813    2N0N  00000150000000906000001033032E2    SPYSE   005400370024
BI00B32E2    #NY211B        202209147289-2915-30             HOUSING FEMALE ASS'Y     CCN000001500000001500FN00000000020221101000001500NNE   20220831121813    2N0N  00000150000000964500001091532E2    SPYSE   005400370024
BI00B32E2    #NY211B        202209147289-2919-30             HOUSING FEMALE ASS'Y     CCN000001500000001500FN00000000020221101000001500NNE   20220831121813    2N0N  00000150000000907500001034532E2    SPYSE   005400370024
BI00B32GE    DHTC2248       202210067017-1180-02             TERMINAL                 CCN000144000000144000FN00000000020221201000144000NNM   20220831162138    4P0P  00007200000001065600001229032GE    GEYKHT  005100280028
BI00B32GE    DHTC2248       202210067017-1182-02             TERMINAL                 CCN000090000000090000FN00000000020221201000090000NNM   20220831162138    4P0P  00004500000001165500001318632GE    GEYKHT  005100280028
BI00B32GE    DHTC2248       202210067114-4032                TERMINAL                 CCN000090000000090000FN00000000020221201000090000NNM   20220831162138    4P0P  00000750000000735000001063632GE    GEYKHT  006400630017
BI00B32GE    DHTC2248       202210067114-4231-02             TERMINAL                 CCN000018000000018000FN00000000020221201000018000NNM   20220831162138    4P0P  00001800000000554400000848032GE    GEYKHT  006400630015
BI00B32GE    DHTC2248       202210067114-4624-02             TERMINAL                 CCN000072000000072000FN00000000020221201000072000NNM   20220831162138    4P0P  00002400000000895200001188832GE    GEYKHT  006400630015
BI00B32GE    DHTC2248       202210067114-5748-02             TERMINAL                 CCN000300000000300000FN00000000020221201000300000NNM   20220831162138    4P0P  00001200000000444000000737632GE    GEYKHT  006400630015
BI00B32GE    DHTC2248       202210067114-5753-02             TERMINAL                 CCN000756000000756000FN00000000020221201000756000NNM   20220831162138    4P0P  00002700000000847800001141432GE    GEYKHT  006400630015
BI00B32GE    DHTC2248       202210067114-7842-02             TERMINAL MALE            CCN000012000000012000FN00000000020221201000012000NNM   20220831162138    4P0P  00001200000000460800000754432GE    GEYKHT  006400630015
BI00B32GE    DHTC2248       202210067116-1685-02             TERMINAL                 CCN000120000000120000FN00000000020221201000120000NNM   20220831162138    4P0P  00002400000000897600001065232GE    GEYKHT  005100280028
BI00B32GE    DHTC2248       202210067116-2891-02             TERMINAL                 CCN000285000000285000FN00000000020221201000285000NNM   20220831162138    4P0P  00001500000000982500001145932GE    GEYKHT  005100280028
BI00B32GE    DHTC2248       202210067116-4101-02             TERMINAL                 CCN000019600000024000FN00000000020221201000024000NNM   20220831162138    4P0P  00001200000000582000000876232GE    GEYKHT  006400630015
BI00B32GE    DHTC2248       202210067116-4110-02             TERMINAL                 CCN000072000000072000FN00000000020221201000072000NNM   20220831162138    4P0P  00000900000000594000000882232GE    GEYKHT  006400630015
BI00B32GE    DHTC2248       202210067116-4111-02             TERMINAL                 CCN000060000000060000FN00000000020221201000060000NNM   20220831162138    4P0P  00000750000000529500000817732GE    GEYKHT  006400630015
BI00B32GE    DHTC2248       202210067116-4112-02             TERMINAL                 CCN000125000000126000FN00000000020221201000126000NNM   20220831162138    4P0P  00000600000000450000000738232GE    GEYKHT  006400630015
BI00B32GE    DHTC2248       202210067116-4486-02             TERMINAL                 CCN000616000000616000FN00000000020221201000616000NNM   20220831162138    4P0P  00002800000000666400000995132GE    GEYKHT  006400630017
BI00B32GE    DHTC2248       202210067116-5045-02             TERMINAL                 CCN000336000000336000FN00000000020221201000336000NNM   20220831162138    4P0P  00001600000000678400001007132GE    GEYKHT  006400630017
BI00B32GE    DHTC2248       202210067126-8853-02             TERMINAL                 CCN000435000000435000FN00000000020221201000435000NNM   20220831162138    4P0P  00000750000000562500000847732GE    GEYKHT  006400630015
BI00B32GE    DHTC2248       202210067126-8854-02             TERMINAL                 CCN000375000000375000FN00000000020221201000375000NNM   20220831162138    4P0P  00000750000000604500000889732GE    GEYKHT  006400630015
BI00B32GE    DHTC2248       202210067126-8855-02             TERMINAL                 CCN000498000000498000FN00000000020221201000498000NNM   20220831162138    4P0P  00000600000000510600000795832GE    GEYKHT  006400630015
BI00B32GE    DHTC2248       202210067158-3070-80             RUBBER STOPPER           CCN000280000000280000FN00000000020221201000280000NNM   20220831162138    1C0C  00004000000000276000000333332GE    GEYKHT  002700430014
BI00B32GE    DHTC2248       202210067158-3166-60             WIRE SEAL                CCN000160000000160000FN00000000020221201000160000NNM   20220831162138    1C0C  00004000000000104000000152432GE    GEYKHT  002700430014
BI00B32GE    DHTC2248       202210067158-3167-80             WIRE SEAL                CCN000320000000320000FN00000000020221201000320000NNM   20220831162138    1C0C  00002000000000048000000109032GE    GEYKHT  002700430014
BI00B32GE    DHTC2248       202210067173-3291-40             LIF LEVER                CCN000028800000028800FN00000000020221201000028800NNM   20220831162138    1F0F  00000240000000867800001067832GE    GEYKHT  005500360039
BI00B32GE    DHTC2248       202210067195-1479-02             TERMINAL MALE            CCN000024000000024000FN00000000020221201000024000NNM   20220831162138    4P0P  00002400000000420000000714232GE    GEYKHT  006400630015
BI00B32GE    DHTC2248       202210067196-0396-02             TERMINAL                 CCN000075000000075000FN00000000020221201000075000NNM   20220831162138    4P0P  00001500000000949500001112932GE    GEYKHT  002800510028
BI00B32GE    DHTC2248       202210067196-0510-02             TERMINAL                 CCN000096000000096000FN00000000020221201000096000NNM   20220831162138    4P0P  00002400000000871200001034632GE    GEYKHT  002800510028
BI00B32GE    DHTC2248       202210067196-0511-02             TERMINAL                 CCN000024000000024000FN00000000020221201000024000NNM   20220831162138    4P0P  00002400000000916800001080232GE    GEYKHT  002800510028
BI00B32GE    DHTC2248       202210067196-1325-02             TERMINAL FEMALE          CCN000960000000960000FN00000000020221201000960000NNM   20220831162138    4P0P  00006000000000450000000778732GE    GEYKHT  006400630017
BI00B32GE    DHTC2248       202210067196-1326-02             TERMINAL FEMALE          CCN001980000001980000FN00000000020221201001980000NNM   20220831162138    4P0P  00006000000000456000000784732GE    GEYKHT  006400630017
BI00B32GE    DHTC2248       202210067196-1327-02             TERMINAL FEMALE          CCN000156000000156000FN00000000020221201000156000NNM   20220831162138    4P0P  00005200000000336000000739532GE    GEYKHT  006400630017
BI00B32GE    DHTC2248       202210067196-1481-02             TERMINAL FEMALE          CCN000024000000024000FN00000000020221201000024000NNM   20220831162138    4P0P  00002400000000422400000707632GE    GEYKHT  006400630015
BI00B32GE    DHTC2248       202210067196-1482-02             TERMINAL FEMALE          CCN000048000000048000FN00000000020221201000048000NNM   20220831162138    4P0P  00002400000000424800000710032GE    GEYKHT  006400630015
BI00B32GE    DHTC2248       202210067282-4576                HOUSING MALE ASS'Y       CCN000028800000028800FN00000000020221201000028800NNM   20220831162138    4N0N  00000240000000808800001028832GE    GEYKHT  005500360039
BI00B32GE    DHTC2248       202210067283-1156                CONNECTOR                CCN000013600000013600FN00000000020221201000013600NNM   20220831162138    4N0N  00000080000000877600001078032GE    GEYKHT  005600390040
BI00B32GE    DHTC2248       202210067283-1968-30             CONNECTOR                CCN000006300000006300FN00000000020221201000006300NNM   20220831162138    1N0N  00000090000001140000001318332GE    GEYKHT  005600390040
BI00B32GE    DHTC2248       202210067283-5830                CONNECTOR                CCN000006000000006000FN00000000020221201000006000NNM   20220831162138    1N47  00000600000000954000001104032GE    GEYKHT  005500360039
BI00B32GE    DHTC2248       202210067288-6547                CONNECTOR MALE ASS'Y     CCN000020250000020250FN00000000020221201000020250NNM   20220831162138    4N0N  00000075000001205300001340332GE    GEYKHT  005400370024
BI00B32GE    DHTC2248       202210067289-3342                HOUSING FEMALE ASS'Y     CCN000194400000194400FN00000000020221201000194400NNM   20220831162138    1N0N  00000240000000686400000901432GE    GEYKHT  005500360039
BI00B32GE    DHTC2248       202210067289-3342-30             HOUSING FEMALE ASS'Y     CCN000232800000232800FN00000000020221201000232800NNM   20220831162138    1N0N  00000240000000686400000901432GE    GEYKHT  005500360039
BI00B32GE    DHTC2248       202210067289-3342-40             HOUSING FEMALE ASS'Y     CCN000055200000055200FN00000000020221201000055200NNM   20220831162138    1N0N  00000240000000686400000901432GE    GEYKHT  005500360039
BI00B32GE    DHTC2248       202210067289-3342-90             HOUSING FEMALE ASS'Y     CCN000086400000086400FN00000000020221201000086400NNM   20220831162138    1N0N  00000240000000686400000901432GE    GEYKHT  005500360039
BI00B32GE    DHTC2248       202210067289-6518-30             HOUSING FEMALE ASS'Y     CCN000027600000027600FN00000000020221201000027600NNM   20220831162138    1N0N  00000120000000829200001049232GE    GEYKHT  005500360039
BI00B32GE    DHTC2248       202210067289-6547                HOUSING FEMALE ASS'Y     CCN000021600000021600FN00000000020221201000021600NNM   20220831162138    1N0N  00000240000001152000001362032GE    GEYKHT  005500360039
BI00B32GE    DHTC2248       202210067295-0785-02             TERMINAL ALUMINIUM       CCN000025500000025500FN00000000020221201000025500NNM   20220831162138    4P0P  00002550000000510000000803632GE    GEYKHT  006400630015
BI00B32GE    DHTC2248       202210067296-0784-02             TERMINAL ALUMINIUM       CCN000264000000264000FN00000000020221201000264000NNM   20220831162138    4P0P  00002400000000480000000765232GE    GEYKHT  006400630015
BI00B32GE    DHTC2248       202210067296-1020-02             TERMINAL ALUMINIUM       CCN000022500000022500FN00000000020221201000022500NNM   20220831162138    4P0P  00002250000000699800000985032GE    GEYKHT  006400630015
BI00B32GE    DHTC2248       202210067296-1024-02             TERMINAL ALUMINIUM       CCN000036000000036000FN00000000020221201000036000NNM   20220831162138    4P0P  00001800000000698400000983632GE    GEYKHT  006400630015
BI00B32GE    DHTC2248       202210067296-1025-02             TERMINAL ALUMINIUM       CCN000018000000018000FN00000000020221201000018000NNM   20220831162138    4P0P  00001800000000635400000920632GE    GEYKHT  006400630015
BI00B32GE    DHTC2248       202210067297-3482                JOINT CONNECTOR          CCN000072000000072000FN00000000020221201000072000NNM   20220831162138    4N0N  00000080000000621000000730532GE    GEYKHT  005400370024
BI00B32GE    DHTC2248       202210067298-3484                HOUSING FEMALE ASS'Y     CCN000056700000056700FN00000000020221201000056700NNM   20220831162138    4N0N  00000270000000742500001028732GE    GEYKHT  005400370024
BI00B32GE    DHTC2248       202210067298-3484-30             HOUSING FEMALE ASS'Y     CCN000016800000018900FN00000000020221201000018900NNM   20220831162138    4N0N  00000270000000742500001028732GE    GEYKHT  005400370024
BI00B32GE    DHTC2248       202210067327-6731-3W             BATTERY FUSE             CCN000004352000004352FN00000000020221201000004352NNM   20220831162138    4N0N  00000006400000697600000843032GE    GEYKHT  005400370024
BI00B32GE    DHTC2248       202210067327-6801-3W             BATTERY FUSE             CCN000005952000005952FN00000000020221201000005952NNM   20220831162138    4N0N  00000009600000928400001143432GE    GEYKHT  005500360039
BI00B32GE    DHTC2248       202210067327-6803                MULTI FUSE               CCN000002240000002240FN00000000020221201000002240NNM   20220831162138    4N0N  00000056000000854600001067032GE    GEYKHT  005400370024
BI00B32GE    DHTC2248       202210067327-6806                MULTI FUSE               CCN000005600000005600FN00000000020221201000005600NNM   20220831162138    4N0N  00000056000000851500001063932GE    GEYKHT  005400370024
BI00B32GE    DHTC2248       202210067327-6809                MULTI FUSE               CCN000015120000015120FN00000000020221201000015120NNM   20220831162138    4N0N  00000056000000849300001061732GE    GEYKHT  005400370024
BI00B32GE    DHTC2248       202210067327-6930                MULTI FUSE               CCN000003360000003360FN00000000020221201000003360NNM   20220831162138    4N0N  00000056000000848900001031932GE    GEYKHT  005400370024
BI00B32GE    DHTC2248       202210067327-6983-30             MAIN FUSE                CCN000004200000004200FN00000000020221201000004200NNM   20220831162138    4N0N  00000060000000748800000951532GE    GEYKHT  005400370024
BI00B32GE    DHTC2248       202210067327-6985-30             MULTI FUSE               CCN000004608000004608FN00000000020221201000004608NNM   20220831162138    4N0N  00000028800000886100001052032GE    GEYKHT  005400370024
BI00B32GE    DHTC2248       202210067327-6990-30             MULTI FUSE               CCN000004480000004480FN00000000020221201000004480NNM   20220831162138    4NON  00000056000000724000000907032GE    GEYKHT  005400370024
BI00B32GE    DHTC2248       202210067327-6998-30             MULTI FUSE               CCN000004608000004608FN00000000020221201000004608NNM   20220831162138    4N0N  00000028800000886000001051932GE    GEYKHT  005400370024
BI00B32GE    DHTC2248       202210067388-2978-30             HOUSING MALE ASS'Y       CCN000072480000072480FN00000000020221201000072480NNM   20220831162138    1N0N  00000048000000742000001122032GE    GEYKHT  005500360039
BI00B32GE    #DHTC2248      202210067047-5344                RETAINER                 CCN000010000000010000FN00000000020221201000010000NNM   20220831162136    2F0F  00001000000000870000001016032GE    GEYKHT  005600390023
BI00B32GE    #DHTC2248      202210067158-3003-90             RUBBER STOPPER           CCN000700000000700000FN00000000020221201000700000NNM   20220831162136    2C0C  00002000000000250000000306032GE    GEYKHT  002700430014
BI00B32GE    #DHTC2248      202210067158-3004-40             RUBBER STOPPER           CCN000040000000040000FN00000000020221201000040000NNM   20220831162136    2C0C  00002000000000234000000306332GE    GEYKHT  002700430014
BI00B32GE    #DHTC2248      202210067158-3005-80             RUBBER STOPPER           CCN000160000000160000FN00000000020221201000160000NNM   20220831162136    2H0H  00002000000000210000000268732GE    GEYKHT  002700430014
BI00B32GE    #DHTC2248      202210067158-3008-80             RUBBER STOPPER           CCN000340000000340000FN00000000020221201000340000NNM   20220831162136    2C0C  00002000000000288000000343032GE    GEYKHT  004300270014
BI00B32GE    #DHTC2248      202210067158-3015-10             RUBBER STOPPER           CCN000060000000060000FN00000000020221201000060000NNM   20220831162136    2C0C  00001000000000419500000474032GE    GEYKHT  002700430014
BI00B32GE    #DHTC2248      202210067158-3017                RUBBER STOPPER           CCN000150000000150000FN00000000020221201000150000NNM   20220831162136    2C0C  00001000000000375500000435032GE    GEYKHT  002700430014
BI00B32GE    #DHTC2248      202210067158-3374-90             CONNECTOR WIRE SEAL      CCN000040000000040000FN00000000020221201000040000NNM   20220831162136    2H0H  00002000000000172000000229332GE    GEYKHT  002700430014
BI00B32GE    #DHTC2248      202210067172-5625-90             RUBBER STOPPER           CCN000020000000020000FN00000000020221201000020000NNM   20220831162136    2H0H  00002000000000082400000133832GE    GEYKHT  004300270014
BI00B32GE    #DHTC2248      202210067172-5627-60             RUBBER STOPPER           CCN000020000000020000FN00000000020221201000020000NNM   20220831162136    2H0H  00002000000000070400000121832GE    GEYKHT  004300270014
BI00B32GE    #DHTC2248      202210067172-5629-80             RUBBER STOPPER           CCN001100000001100000FN00000000020221201001100000NNM   20220831162136    2H0H  00002000000000060000000111132GE    GEYKHT  004300270014
BI00B32GE    #DHTC2248      202210067172-5630-40             RUBBER STOPPER           CCN000840000000840000FN00000000020221201000840000NNM   20220831162136    2H0H  00002000000000044000000095132GE    GEYKHT  004300270014
BI00B32GE    #DHTC2248      202210067172-5631-60             RUBBER STOPPER           CCN000340000000340000FN00000000020221201000340000NNM   20220831162136    2H0H  00002000000000042000000093132GE    GEYKHT  004300270014
BI00B32GE    #DHTC2248      202210067172-5632-10             DUMMY PLUG               CCN000700000000700000FN00000000020221201000700000NNM   20220831162136    2H0H  00002000000000080400000131832GE    GEYKHT  004300270014
BI00B32GE    #DHTC2248      202210067183-2415-90             CONNECTOR HOUSING        CCN000004800000004800FN00000000020221201000004800NNM   20220831162136    2F0F  00000480000000798200001091432GE    GEYKHT  005500360039
BI00B32GE    #DHTC2248      202210067183-2418-30             CONNECTOR HOUSING        CCN000009600000009600FN00000000020221201000009600NNM   20220831162136    2F0F  00000480000000917000001235332GE    GEYKHT  005500360039
BI00B32GE    #DHTC2248      202210067183-2511                HOUSING                  CCN000003200000003200FN00000000020221201000003200NNM   20220831162136    2F0F  00000160000000972200001242132GE    GEYKHT  005500360039
BI00B32GE    #DHTC2248      202210067183-7725-40             HOUSING                  CCN000006000000006000FN00000000020221201000006000NNM   20220831162136    2F0F  00000600000000840000001040032GE    GEYKHT  005600390040
BI00B32GE    #DHTC2248      202210067189-2978-30             HOUSING FEMALE           CCN000072000000072000FN00000000020221201000072000NNM   20220831162136    2F0F  00000150000000966900001096932GE    GEYKHT  005400370024
BI00B32GE    #DHTC2248      202210067189-3033                HOUSING FEMALE           CCN000028800000028800FN00000000020221201000028800NNM   20220831162136    2F0F  00000160000001211200001431232GE    GEYKHT  005500360039
BI00B32GE    #DHTC2248      202210067189-3036                HOUSING FEMALE           CCN000012800000012800FN00000000020221201000012800NNM   20220831162136    2F0F  00000160000000921600001141632GE    GEYKHT  005500360039
BI00B32GE    #DHTC2248      202210067189-3037-40             HOUSING FEMALE           CCN000004800000004800FN00000000020221201000004800NNM   20220831162136    2F0F  00000480000000901600001061632GE    GEYKHT  005500360039
BI00B32GE    #DHTC2248      202210067198-5394                HOUSING FEMALE           CCN000014400000014400FN00000000020221201000014400NNM   20220831162136    2F0F  00000480000000489700000688832GE    GEYKHT  005500360039
BI00B32GE    #DHTC2248      202210067282-1641                CONNECTOR                CCN000018000000018000FN00000000020221201000018000NNM   20220831162136    2N0N  00000200000000813000000986032GE    GEYKHT  005500360039
BI00B32GE    #DHTC2248      202210067282-7424                CONNECTOR                CCN000008000000008000FN00000000020221201000008000NNM   20220831162136    2N0N  00000400000001064000001243032GE    GEYKHT  005500360039
BI00B32GE    #DHTC2248      202210067283-8226-30             CONNECTOR                CCN000012000000012000FN00000000020221201000012000NNM   20220831162136    2N0N  00000200000000820000001008032GE    GEYKHT  005400370024
BI00B32GE    #DHTC2248      202210067289-2912-40             HOUSING FEMALE ASS'Y     CCN000010000000010000FN00000000020221201000010000NNM   20220831162136    2N0N  00000200000000804000000931032GE    GEYKHT  005400370024
BI00B32GE    #DHTC2248      202210067289-3622-30             HOUSING FEMALE ASS'Y     CCN000006480000006480FN00000000020221201000006480NNM   20220831162136    2N0N  00000043200000839400001038432GE    GEYKHT  005400370024
BI00B32GE    #DHTC2248      202210067289-4200-30             HOUSING FEMALE ASS'Y     CCN000010000000010000FN00000000020221201000010000NNM   20220831162136    2N0N  00000200000000926000001021032GE    GEYKHT  005400370024
BI00T32M1    @ICV2101       202210037183-2510                HOUSING                  CCN000003000000003000FN00000000020221001000003000NNM   20220831121813    3F0F  00000300000001063500001159032M1    VNYEV   005400370024
BI00T32M1    @ICV2101       202210037282-1025                HOUSING SUB ASSEMBLY     CCN000002400000002400FN00000000020221001000002400NNM   20220831121813    3N0N  00000240000001143800001390032M1    VNYEV   005500360039
BI00T32M1    @ICV2101       202210037282-1040                HOUSING SUB ASSEMBLY     CCN000009600000009600FN00000000020221001000009600NNM   20220831121813    3N0N  00000240000001014400001256032M1    VNYEV   005500360039
BI00T32M1    @ICV2101       202210037282-1064-30             CONNECTOR ASS'Y          CCN000056800000056800FN00000000020221001000056800NNM   20220831121813    3N0N  00000080000000907300001140132M1    VNYEV   005500360039
BI00T32M1    @ICV2101       202210037283-1223-30             HOUSING SUB ASSEMBLY     CCN000038400000038400FN00000000020221001000038400NNM   20220831121813    3N0N  00000480000000749300000998032M1    VNYEV   005500360039
BI00T32M1    @ICV2101       202210037283-1556                CONNECTOR ASS'Y          CCN000160800000160800FN00000000020221001000160800NNM   20220831121813    3N0N  00000240000000755000001014032M1    VNYEV   005500360039
BI00B32M3    SM2209BEMW     202209087289-7213-30             HOUSING FEMALE ASS'Y     CCN000001200000000480FN00000000020220901000000480NNEM0020220831130743    4N0N  00000024000001352800001667832M3    SASAMI  005500360039
BI00A32M3    #QA-22-C075    202208317187-8856                HOUSING FEMALE           PNN000014000000012000FY00001200020220801000000000NNEQ0020220831155603    2F0F  00000200000000820000000931532M3    SASAMI  005400370024
BI00A32M3    SM2209BEMW     202209017289-7213-30             HOUSING FEMALE ASS'Y     CCN000000720000000720FN00000000020220901000000720NNED0020220831132014    4N0N  00000024000001352800001667832M3    SASAMI  005500360039
BI00A32M3    #QA-22-C075    202209057187-8856                HOUSING FEMALE           PNN000008000000008000FN00000000020220801000008000NNEQ0020220831165229    2F0F  00000200000000820000000931532M3    SASAMI  005400370024
BI00A32M3    #QA-22-C075    202209087187-8856                HOUSING FEMALE           PNN000010000000010000FN00000000020220801000010000NNEQ0020220831165420    2F0F  00000200000000820000000931532M3    SASAMI  005400370024
BI00B32Q8    EU22114 MW     202209077282-7028-30             CONNECTOR                CCN000002000000002000FN00000000020221101000002000NNMD0020220831165521    1N0N  00000200000001124000001212532Q8    EMEMI   005600390040
BI00A32R7    R-TAP220351    202209087C98-1149-3W             SQUIB SUB ASS'Y          CCN000010000000010000FN00000000020220901000010000NNEM0020220831165142    4N0N  00001000000000785000000922032R7    IVYCIC  005400370024
BI00B32R7    R-TAP220371    202209157116-1685-02             TERMINAL                 CCN000024000000024000FN00000000020220901000024000NNE   20220831121813    4P0P  00002400000000897600001065232R7    IVYCIC  005100280028
BI00B32R7    R-TAP220371    202209157283-1968-30             CONNECTOR                CCN000001800000001800FN00000000020220901000001800NNE   20220831121813    1N0N  00000090000001140000001318332R7    IVYCIC  005600390040
BI00A32U9    TPA240         202209057116-1257-02             TERMINAL                 CCN000048000000048000FN00000000020221001000048000NNMM0020220831121813U9  4P0P  00002400000000518400000847132U9    YNYNA-E 006400630017
BI00A32U9    TPA240         202209057116-4060-02             TERMINAL                 CCN000024000000024000FN00000000020221001000024000NNMM0020220831121813U9  1P0P  00002400000000511200000984232U9    YNYNA-E 006400630017
BI00A32U9    TPA240         202209057158-3166-60             WIRE SEAL                CCN000200000000200000FN00000000020221001000200000NNMM0020220831121813U9  1C0C  00004000000000104000000152432U9    YNYNA-E 002700430014
BI00A32U9    TPA240         202209057158-3167-80             WIRE SEAL                CCN000060000000060000FN00000000020221001000060000NNMM0020220831152635U9  1C0C  00002000000000048000000109032U9    YNYNA-E 002700430014
BI00B32U9    TPA240         202209087289-6868-30             SEALED ASSY FEMALE       CCN000025200000002600FN00000000020221001000002600NNMQ0020220831155804U9  4N0N  00000252000000839200001119232U9    YNYNA-E 005500360039
BI00A32U9    TPA241         202209057116-4231-02             TERMINAL                 CCN000104000000104000FN00000000020221101000104000NNMM0020220831121813U9  4P0P  00002600000000683800001012532U9    YNYNA-E 006400630017
BI00A32U9    TPA241         202209057158-3165-90             WIRE SEAL                CCN000160000000160000FN00000000020221101000160000NNMM0020220831121813U9  1C0C  00004000000000124000000172432U9    YNYNA-E 004300270014
BI00A32U9    TPA241         202209057158-3166-60             WIRE SEAL                CCN000200000000200000FN00000000020221101000200000NNMM0020220831133634U9  1C0C  00004000000000104000000152432U9    YNYNA-E 002700430014
BI00A32U9    TPA241         202209057158-3168-80             SEALED                   CCN000200000000200000FN00000000020221101000200000NNMM0020220831153907U9  1C0C  00002000000000044000000092132U9    YNYNA-E 004300260014
BI00A32U9    TPA241         202209057282-5574-10             CONNECTOR                CCN000040000000040000FN00000000020221101000040000NNMM0020220831121813U9  4N0N  00000080000001235000001423032U9    YNYNA-E 005600390040
BI00B32U9    #TPA241        202209157147-9094                RETAINER                 CCN000018000000006000FN00000000020221101000006000NNMQ0020220831131311U9  2F0F  00000300000000717000000872932U9    YNYNA-E 005500360039
BI00A32U9    #TPA241        202209057282-8395-40             CONNECTOR                CCN000021000000021000FN00000000020221101000021000NNMM0020220831133331U9  2N0N  00000100000001009000001188032U9    YNYNA-E 005500360039
BI00A32U9    #TPA241        202209057283-8397-40             CONNECTOR                CCN000009240000009240FN00000000020221101000009240NNMM0020220831133331U9  2N0N  00000154000001007000001222732U9    YNYNA-E 005600390023
BI00A32U9    TPA242         202209057116-2951-02             TERMINAL                 CCN000108000000108000FN00000000020221101000108000NNMM0020220831121813U9  4P0P  00000540000000817600001111832U9    YNYNA-E 006400630015
BI00A32U9    TPA242         202209057116-4231-02             TERMINAL                 CCN000338000000338000FN00000000020221101000338000NNMM0020220831121813U9  4P0P  00002600000000683800001012532U9    YNYNA-E 006400630017
BI00A32U9    TPA242         202209057158-3006-90             RUBBER STOPPER           CCN000100000000100000FN00000000020221101000100000NNMM0020220831121813U9  1C0C  00002000000000330600000386032U9    YNYNA-E 002700430014
BI00A32U9    TPA242         202209057158-3165-90             WIRE SEAL                CCN000120000000120000FN00000000020221101000120000NNMM0020220831121813U9  1C0C  00004000000000124000000172432U9    YNYNA-E 004300270014
BI00A32U9    TPA242         202209057158-3166-60             WIRE SEAL                CCN000200000000200000FN00000000020221101000200000NNMM0020220831133638U9  1C0C  00004000000000104000000152432U9    YNYNA-E 002700430014
BI00B32U9    TPA242         202209227298-1186-40             SQUIB SUB ASS'Y          CCN000050000000020000FN00000000020221101000020000NNMQ0020220831121813U9  4N0N  00001000000000650000000774532U9    YNYNA-E 005400370024
BI00A32U9    #TPA242        202209057158-3376-50             CONNECTOR WIRE SEAL      CCN000460000000460000FN00000000020221101000460000NNMM0020220831121813U9  2C0C  00002000000000184000000240732U9    YNYNA-E 002700430014
BI00A32U9    #TPA242        202209057282-6457-40             CONNECTOR                CCN000003200000003200FN00000000020221101000003200NNMM0020220831132157U9  2N0N  00000080000001137000001421332U9    YNYNA-E 005600390040
BI00A32U9    TP0415S        202209057116-4231-02             TERMINAL                 CCN000286000000286000FN00000000020221101000286000NNEM0020220831121813U9  4P0P  00002600000000683800001012532U9    YNYNA-E 006400630017
BI00A32U9    TP0415S        202209057158-3165-90             WIRE SEAL                CCN000120000000120000FN00000000020221101000120000NNEM0020220831121813U9  1C0C  00004000000000124000000172432U9    YNYNA-E 004300270014
BI00A32U9    TP0415S        202209057116-2951-02             TERMINAL                 CCN000064800000064800FN00000000020221101000064800NNEM0020220831121813U9  4P0P  00000540000000817600001111832U9    YNYNA-E 006400630015
BI00A32U9    #TP0415S       202209057283-8397-40             CONNECTOR                CCN000009240000009240FN00000000020221101000009240NNEM0020220831131625U9  2N0N  00000154000001007000001222732U9    YNYNA-E 005600390023
BI00A32U9    #TP0415S       202209057282-6446-40             CONNECTOR                CCN000010500000010500FN00000000020221101000010500NNEM0020220831131347U9  2N0N  00000150000001185000001368032U9    YNYNA-E 005500360039
BI00A32U9    #TP0415S       202209057282-6457-40             CONNECTOR                CCN000003200000003200FN00000000020221101000003200NNEM0020220831140645U9  2N0N  00000080000001137000001421332U9    YNYNA-E 005600390040
BI00A32U9    #TP0415S       202209057282-8395-40             CONNECTOR                CCN000034000000034000FN00000000020221101000034000NNEM0020220831131457U9  2N0N  00000100000001009000001188032U9    YNYNA-E 005500360039
BI00A32U9    TP0416S        202209057114-6041                TERMINAL                 CCN000007200000007200FN00000000020221101000007200NNEM0020220831121813U9  4P0P  00000360000000580700000824232U9    YNYNA-E 006400630015
BI00A32U9    TP0416S        202209057116-1257-02             TERMINAL                 CCN000048000000048000FN00000000020221101000048000NNEM0020220831121813U9  4P0P  00002400000000518400000847132U9    YNYNA-E 006400630017
BI00B32U9    TPA243         202209297116-4231-02             TERMINAL                 CCN000286000000234000FN00000000020221101000234000NNMQ0020220831121813U9  4P0P  00002600000000683800001012532U9    YNYNA-E 006400630017
BI00A32U9    TPA243         202209057158-3165-90             WIRE SEAL                CCN000120000000120000FN00000000020221101000120000NNMM0020220831121813U9  1C0C  00004000000000124000000172432U9    YNYNA-E 004300270014
BI00A32U9    #TPA243        202209057282-6446-40             CONNECTOR                CCN000010500000010500FN00000000020221101000010500NNMM0020220831131419U9  2N0N  00000150000001185000001368032U9    YNYNA-E 005500360039
BI00A32U9    #TPA243        202209057282-6457-40             CONNECTOR                CCN000003200000003200FN00000000020221101000003200NNMM0020220831140344U9  2N0N  00000080000001137000001421332U9    YNYNA-E 005600390040
BI00A32U9    #TPA243        202209057282-8395-40             CONNECTOR                CCN000022000000022000FN00000000020221101000022000NNMM0020220831131519U9  2N0N  00000100000001009000001188032U9    YNYNA-E 005500360039
BI00A32U9    TPA240         202209057289-6868-30             SEALED ASSY FEMALE       CCN000022600000022600FN00000000020221001000022600NNMM0020220831121813U9  4N0N  00000252000000839200001119232U9    YNYNA-E 005500360039
BI00A32U9    TPA242         202209057298-1186-40             SQUIB SUB ASS'Y          CCN000030000000030000FN00000000020221101000030000NNMM0020220831121813U9  4N0N  00001000000000650000000774532U9    YNYNA-E 005400370024
BI00A32U9    TPA243         202209057116-4231-02             TERMINAL                 CCN000052000000052000FN00000000020221101000052000NNMM0020220831121813U9  4P0P  00002600000000683800001012532U9    YNYNA-E 006400630017
BI00A32U9    #TPA241        202209057147-9094                RETAINER                 CCN000012000000012000FN00000000020221101000012000NNMM0020220831133331U9  2F0F  00000300000000717000000872932U9    YNYNA-E 005500360039
BI00B32W4    #4500197172    202209157283-4190-30             CONNECTOR                CCN000003360000003360FN00000000020220901000003360NNED0020220831153157W4162N0N  00000024000000846000001115532W416  HJYHK   005600390040
BI00B32W4    4500197473     202209157158-3166-60             WIRE SEAL                CCN000080000000080000FN00000000020220901000080000NNED0020220831163658W4161C0C  00004000000000104000000152432W416  HJYHK   002700430014
BI00B32W4    #4500197473    202209157283-4190-30             CONNECTOR                CCN000004320000004320FN00000000020220901000004320NNED0020220831153221W4162N0N  00000024000000846000001115532W416  HJYHK   005600390040
BI00B32W4    4500197864     202209157283-7028-30             CONNECTOR                CCN000006000000006000FN00000000020221001000006000NNED0020220831152912W4164N0N  00000300000001452000001681332W416  HJYHK   005600390040
BI00B32W4    4500197864     202209157283-1020                CONNECTOR                CCN000006000000006000FN00000000020221001000006000NNED0020220831152932W4164N0N  00000600000000840000001049332W416  HJYHK   005600390040
BI00B32W4    4500198313     202209157283-7028-30             CONNECTOR                CCN000009000000009000FN00000000020221001000009000NNED0020220831152951W4164N0N  00000300000001452000001681332W416  HJYHK   005600390040
BI00B32W4    4500198313     202209157158-3169-40             SEALING PLUG             CCN000080000000080000FN00000000020221001000080000NNED0020220831163721W4161C0C  00004000000000156000000204132W416  HJYHK   004300260014
BI00B32W4    4500198313     202209157283-1020                CONNECTOR                CCN000024000000024000FN00000000020221001000024000NNED0020220831153005W4164N0N  00000600000000840000001049332W416  HJYHK   005600390040
BI00A32W4    4500199508     202209157116-4102-02             TERMINAL                 CCN000012000000012000FN00000000020220901000012000NNE   20220831121813W4334P0P  00001200000000553200000841432W433  HJYHK   006400630015
BI00A32W4    4500199508     202209157116-4112-02             TERMINAL                 CCN000006000000006000FN00000000020220901000006000NNE   20220831121813W4334P0P  00000600000000450000000738232W433  HJYHK   006400630015
BI00A32W4    4500199508     202209157116-4231-02             TERMINAL                 CCN000078000000078000FN00000000020220901000078000NNE   20220831121813W4334P0P  00002600000000683800001012532W433  HJYHK   006400630017
BI00A32W4    4500199508     202209157114-4100-02             TERMINAL                 CCN000036000000036000FN00000000020220901000036000NNE   20220831121813W4334P0P  00001800000000748800001077432W433  HJYHK   006400630017
BI00A32W4    #4500199508    202209157282-8395-40             CONNECTOR                CCN000004000000004000FN00000000020220901000004000NNE   20220831121813W4332N0N  00000100000001009000001188032W433  HJYHK   005500360039
BI00A32W4    4500199511     202209297116-4231-02             TERMINAL                 CCN000130000000130000FN00000000020220901000130000NNE   20220831121813W4334P0P  00002600000000683800001012532W433  HJYHK   006400630017
BI00A32W4    4500199511     202209297116-4112-02             TERMINAL                 CCN000006000000006000FN00000000020220901000006000NNE   20220831121813W4334P0P  00000600000000450000000738232W433  HJYHK   006400630015
BI00A32W4    4500199511     202209297114-4100-02             TERMINAL                 CCN000054000000054000FN00000000020220901000054000NNE   20220831121813W4334P0P  00001800000000748800001077432W433  HJYHK   006400630017
BI00A32W4    4500199511     202209297283-5846                HOUSING                  CCN000003000000003000FN00000000020220901000003000NNE   20220831121813W4331N0N  00000150000000885000001102032W433  HJYHK   005600390040
BI00A32W4    4500199511     202209297116-4102-02             TERMINAL                 CCN000012000000012000FN00000000020220901000012000NNE   20220831121813W4334P0P  00001200000000553200000841432W433  HJYHK   006400630015
BI00A32W4    #4500199511    202209297282-8395-40             CONNECTOR                CCN000007000000007000FN00000000020220901000007000NNE   20220831121813W4332N0N  00000100000001009000001188032W433  HJYHK   005500360039
BI00A32W4    4500199514     202210117116-4112-02             TERMINAL                 CCN000006000000006000FN00000000020221001000006000NNE   20220831121813W4334P0P  00000600000000450000000738232W433  HJYHK   006400630015
BI00B32W4    4500199523     202209137158-3006-90             RUBBER STOPPER           CCN000020000000020000FN00000000020220901000020000NNE   20220831121813W42 1C0C  00002000000000330600000386032W42   HJYHK   002700430014
BI00B32W4    #4500199523    202209137157-7811-80             SEAL RUBBER              CCN000030000000030000FN00000000020220901000030000NNE   20220831121813W42 2C0C  00001000000000105000000182732W42   HJYHK   002700430014
BI00B32W4    #4500199523    202209137157-7812                SEAL RUBBER              CCN000100000000100000FN00000000020220901000100000NNE   20220831121813W42 2C0C  00001000000000137000000202032W42   HJYHK   002700430014
BI00A32W4    4500199526     202209027282-8120                CONNECTOR HOUSING        CCN000006000000006000FN00000000020220801000006000NNED0720220831164905W4511N0N  00000300000001356000001520032W451  HJ32W9  005500360039
BI00B32W4    4500199532     202210207282-8120-40             CONNECTOR HOUSING        CCN000003000000003000FN00000000020221001000003000NNE   20220831121813W4171N0N  00000300000001356000001520032W417  HJYHK   005500360039
BI00B32W4    4500199533     202210277283-5843                CONNECTOR                CCN000003000000003000FN00000000020221001000003000NNE   20220831121813W4171N0N  00000150000000889000001132032W417  HJYHK   005600390040
BI00B32W4    4500199533     202210277114-6041                TERMINAL                 CCN000003600000003600FN00000000020221001000003600NNE   20220831121813W4174P0P  00000360000000580700000824232W417  HJYHK   006400630015
BI00B32W4    #4500199533    202210277183-8927                HOUSING                  CCN000004000000004000FN00000000020221001000004000NNE   20220831121813W4172F0F  00000400000000714000000912732W417  HJYHK   005500360039
BI00B32W4    #4500199533    202210277282-3020                CONNECTOR                CCN000005000000005000FN00000000020221001000005000NNE   20220831121813W4172N0N  00000100000000984000001145432W417  HJYHK   005500360039
BI00B32W4    #4500199533    202210277157-3821                RUBBER STOPPER           CCN000020000000020000FN00000000020221001000020000NNE   20220831121813W4172C0C  00002000000000176000000238032W417  HJYHK   002700430014
BI00B32W4    #4500199533    202210277287-1674                HYBRID FEMALE ASS'Y      CCN000002000000002000FN00000000020221001000002000NNE   20220831121813W4172N0N  00000200000000810800001002832W417  HJYHK   005400370024
BI00B32W4    #4500199534    202211107147-3642-30             CLIP                     CCN000078000000078000FN00000000020221101000078000NNE   20220831121813W4172F0F  00000300000000542000000721332W417  HJYHK   005600390040
BI00B32W4    4500199543     202211017158-3169-40             SEALING PLUG             CCN000360000000360000FN00000000020221101000360000NNE   20220831121813W41 1C0C  00004000000000156000000204132W41   HJYHK   004300260014
BI00B32W4    4500199543     202211017158-3166-60             WIRE SEAL                CCN000760000000760000FN00000000020221101000760000NNE   20220831121813W41 1C0C  00004000000000104000000152432W41   HJYHK   002700430014
BI00B32W4    4500199548     202211017158-3166-60             WIRE SEAL                CCN000120000000120000FN00000000020221101000120000NNE   20220831121813W41 1C0C  00004000000000104000000152432W41   HJYHK   002700430014
BI00B32W4    4500199553     202211017116-1180                TERMINAL                 CCN000078000000078000FN00000000020221101000078000NNE   20220831121813W41 1P0P  00001950000000618200000903432W41   HJYHK   006400630015
BI00B32W4    4500199553     202211017017-1180-02             TERMINAL                 CCN000072000000072000FN00000000020221101000072000NNE   20220831121813W41 4P0P  00007200000001065600001229032W41   HJYHK   005100280028
BI00B32W4    4500199558     202211037116-4100-02             TERMINAL                 CCN000315000000315000FN00000000020221101000315000NNE   20220831121813W4164P0P  00001500000000696000000990232W416  HJYHK   006400630015
BI00B32W4    4500199558     202211037116-4121-02             TERMINAL                 CCN000013500000013500FN00000000020221101000013500NNE   20220831121813W4164P0P  00000450000000618800000912432W416  HJYHK   006400630015
BI00B32W4    4500199558     202211037116-4111-02             TERMINAL                 CCN000007500000007500FN00000000020221101000007500NNE   20220831121813W4164P0P  00000750000000529500000817732W416  HJYHK   006400630015
BI00B32W4    4500199558     202211037116-4112-02             TERMINAL                 CCN000078000000078000FN00000000020221101000078000NNE   20220831121813W4164P0P  00000600000000450000000738232W416  HJYHK   006400630015
BI00B32W4    4500199558     202211037116-4102-02             TERMINAL                 CCN000048000000048000FN00000000020221101000048000NNE   20220831121813W4164P0P  00001200000000553200000841432W416  HJYHK   006400630015
BI00B32W4    4500199558     202211037116-4025                TERMINAL                 CCN000016000000016000FN00000000020221101000016000NNE   20220831121813W4164P0P  00001600000000644800000975132W416  HJYHK   006400630017
BI00B32W4    4500199558     202211037114-4100-02             TERMINAL                 CCN000108000000108000FN00000000020221101000108000NNE   20220831121813W4164P0P  00001800000000748800001077432W416  HJYHK   006400630017
BI00B32W4    4500199558     202211037116-4026                TERMINAL                 CCN000016000000016000FN00000000020221101000016000NNE   20220831121813W4164P0P  00001600000000664000000994332W416  HJYHK   006400630017
BI00B32W4    4500199558     202211037116-4124-02             TERMINAL                 CCN000006000000006000FN00000000020221101000006000NNE   20220831121813W4164P0P  00000300000000459900000753532W416  HJYHK   006400630015
BI00B32W4    4500199558     202211037283-5548-30             CONNECTOR                CCN000001500000001500FN00000000020221101000001500NNE   20220831121813W4164N0N  00000150000001109000001302032W416  HJYHK   005600390040
BI00B32W4    4500199558     202211037126-8853-02             TERMINAL                 CCN000007500000007500FN00000000020221101000007500NNE   20220831121813W4164P0P  00000750000000562500000847732W416  HJYHK   006400630015
BI00B32W4    4500199558     202211037126-8854-02             TERMINAL                 CCN000007500000007500FN00000000020221101000007500NNE   20220831121813W4164P0P  00000750000000604500000889732W416  HJYHK   006400630015
BI00B32W4    4500199558     202211037158-3169-40             SEALING PLUG             CCN000040000000040000FN00000000020221101000040000NNE   20220831121813W4161C0C  00004000000000156000000204132W416  HJYHK   004300260014
BI00B32W4    4500199558     202211037116-4101-02             TERMINAL                 CCN000048000000048000FN00000000020221101000048000NNE   20220831121813W4164P0P  00001200000000582000000876232W416  HJYHK   006400630015
BI00B32W4    4500199558     202211037116-4120-02             TERMINAL                 CCN000006000000006000FN00000000020221101000006000NNE   20220831121813W4164P0P  00000600000000780000001073632W416  HJYHK   006400630015
BI00B32W4    4500199558     202211037114-4101-02             TERMINAL                 CCN000015000000015000FN00000000020221101000015000NNE   20220831121813W4164P0P  00001500000000675000001003632W416  HJYHK   006400630017
BI00B32W4    4500199558     202211037116-4104-02             TERMINAL                 CCN000048000000048000FN00000000020221101000048000NNE   20220831121813W4164P0P  00001200000000580800000972432W416  HJYHK   006400630015
BI00B32W4    4500199558     202211037116-4110-02             TERMINAL                 CCN000009000000009000FN00000000020221101000009000NNE   20220831121813W4164P0P  00000900000000594000000882232W416  HJYHK   006400630015
BI00B32W4    4500199558     202211037116-4103-02             TERMINAL                 CCN000012000000012000FN00000000020221101000012000NNE   20220831121813W4164P0P  00001200000000571200000859432W416  HJYHK   006400630015
BI00B32W4    4500199558     202211037283-1024                CONNECTOR SUB ASSY       CCN000008000000008000FN00000000020221101000008000NNE   20220831121813W4164N0N  00000200000000400000000522532W416  HJYHK   005400370024
BI00B32W4    4500199558     202211037282-1024                HOUSING MALE             CCN000010000000010000FN00000000020221101000010000NNE   20220831121813W4161N0N  00000100000000458000000580532W416  HJYHK   005400370024
BI00B32W4    4500199558     202211037283-1030                CONNECTOR                CCN000012000000012000FN00000000020221101000012000NNE   20220831121813W4164N0N  00000600000000988000001172032W416  HJYHK   005500360039
BI00B32W4    4500199558     202211037288-6547                CONNECTOR MALE ASS'Y     CCN000018000000018000FN00000000020221101000018000NNE   20220831121813W4164N0N  00000075000001205300001340332W416  HJYHK   005400370024
BI00B32W4    4500199558     202211037289-6547                HOUSING FEMALE ASS'Y     CCN000016800000016800FN00000000020221101000016800NNE   20220831121813W4161N0N  00000240000001152000001362032W416  HJYHK   005500360039
BI00B32W4    4500199558     202211037283-1156                CONNECTOR                CCN000011200000011200FN00000000020221101000011200NNE   20220831121813W4164N0N  00000080000000877600001078032W416  HJYHK   005600390040
BI00B32W4    4500199558     202211037114-4032                TERMINAL                 CCN000015000000015000FN00000000020221101000015000NNE   20220831121813W4164P0P  00000750000000735000001063632W416  HJYHK   006400630017
BI00B32W4    #4500199558    202211037282-4190-30             CONNECTOR                CCN000003600000003600FN00000000020221101000003600NNE   20220831121813W4162N0N  00000024000000801000001071332W416  HJYHK   005600390040
BI00B32W4    #4500199558    202211037283-4190-30             CONNECTOR                CCN000003360000003360FN00000000020221101000003360NNE   20220831121813W4162N0N  00000024000000846000001115532W416  HJYHK   005600390040
BI00B32W4    #4500199558    202211037158-3003-90             RUBBER STOPPER           CCN000020000000020000FN00000000020221101000020000NNE   20220831121813W4162C0C  00002000000000250000000306032W416  HJYHK   002700430014
BI00B32W4    #4500199558    202211037187-1616                HOUSING FEMALE           CCN000008000000008000FN00000000020221101000008000NNE   20220831121813W4162F0F  00000400000001152000001262032W416  HJYHK   005500360039
BI00B32W4    @4500199558    202211037287-6634                HOUSING FEMALE ASS'Y     CCN000004800000004800FN00000000020221101000004800NNE   20220831121813W4163N0N  00000240000001088400001337032W416  HJYHK   005500360039
BI00B32W4    4500199567     202211037116-4101-02             TERMINAL                 CCN000012000000012000FN00000000020221101000012000NNE   20220831121813W4L64P0P  00001200000000582000000876232W4L6  HJYHK-K 006400630015
BI00B32W4    4500199567     202211037116-4115-02             TERMINAL                 CCN000008400000008400FN00000000020221101000008400NNE   20220831121813W4L64P0P  00000840000000593000000881232W4L6  HJYHK-K 006400630015
BI00B32W4    4500199567     202211037114-6041                TERMINAL                 CCN000021600000021600FN00000000020221101000021600NNE   20220831121813W4L64P0P  00000360000000580700000824232W4L6  HJYHK-K 006400630015
BI00B32W4    4500199567     202211037283-1156                CONNECTOR                CCN000005600000005600FN00000000020221101000005600NNE   20220831121813W4L64N0N  00000080000000877600001078032W4L6  HJYHK-K 005600390040
BI00B32W4    @4500199567    202211037287-6634                HOUSING FEMALE ASS'Y     CCN000004800000004800FN00000000020221101000004800NNE   20220831121813W4L63N0N  00000240000001088400001337032W4L6  HJYHK-K 005500360039
BI00A32W7    QA-22-C077     202209027283-8630                CONNECTOR ASS'Y          PNN000024000000024000FN00000000020220901000024000NNE   20220831121813    4N0N  00000600000000540000000701332W7    SYSYA-CH005400370024
BI00A32W9    4500199541     202209067114-4100-02             TERMINAL                 CCN000054000000054000FN00000000020220901000054000NNE   20220831164944W9  4P0P  00001800000000748800001077432W9    HKYHK   006400630017
BI00B32W9    4500199561     202209137158-3006-90             RUBBER STOPPER           CCN000020000000020000FN00000000020220901000020000NNE   20220831121813W9  1C0C  00002000000000330600000386032W9    HKYHK   002700430014
BI00B32Y1    TA2111A        202210037158-3166-60             WIRE SEAL                CCN000004000000040000FN00000000020221201000040000NNM   20220831121813    1C0C  00004000000000104000000152432Y1    YAYAS   002700430014
BI00B32Y1    TA2111A        202210037287-9323                UNSEALED HOUSING SUB     CCN000007200000007200FN00000000020221201000007200NNM   20220831121813    1N0N  00000240000000537600000690032Y1    YAYAS   005600390023
BI00B32Y1    TA2112A        202210177287-9323                UNSEALED HOUSING SUB     CCN000004800000004800FN00000000020221201000004800NNM   20220831121813    1N0N  00000240000000537600000690032Y1    YAYAS   005600390023
BI00B32Y1    TA2111A        202210037289-3342-30             HOUSING FEMALE ASS'Y     CCN000019200000019200FN00000000020221201000019200NNM   20220831121813    1N0N  00000240000000686400000901432Y1    YAYAS   005500360039
BI00B32Y1    TA2112A        202210177289-3342-30             HOUSING FEMALE ASS'Y     CCN000016800000016800FN00000000020221201000016800NNM   20220831121813    1N0N  00000240000000686400000901432Y1    YAYAS   005500360039
BI00B32Y1    TA2111A        202210037388-2978-30             HOUSING MALE ASS'Y       CCN000015840000015840FN00000000020221201000015840NNM   20220831121813    1N0N  00000048000000742000001122032Y1    YAYAS   005500360039
BI00B32Y1    TA2112A        202210177388-2978-30             HOUSING MALE ASS'Y       CCN000015360000015360FN00000000020221201000015360NNM   20220831121813    1N0N  00000048000000742000001122032Y1    YAYAS   005500360039
BI00B32Y1    TA2111A        202210037116-4037                TERMINAL                 CCN000019800000024000FN00000000020221201000024000NNM   20220831121813    4P0P  00000600000000600000000894232Y1    YAYAS   006400630015
BI00B32Y1    TA2112A        202210177116-4037                TERMINAL                 CCN000013200000018000FN00000000020221201000018000NNM   20220831121813    4P0P  00000600000000600000000894232Y1    YAYAS   006400630015
BI00B32Y1    TA2111A        202210037114-6041                TERMINAL                 CCN000003600000003600FN00000000020221201000003600NNM   20220831121813    4P0P  00000360000000580700000824232Y1    YAYAS   006400630015
BI00B32Y1    TA2112A        202210177114-6041                TERMINAL                 CCN000003600000003600FN00000000020221201000003600NNM   20220831121813    4P0P  00000360000000580700000824232Y1    YAYAS   006400630015
BI00B32Y1    TA2111A        202210037158-3070-80             RUBBER STOPPER           CCN000040000000040000FN00000000020221201000040000NNM   20220831121813    1C0C  00004000000000276000000333332Y1    YAYAS   002700430014
BI00B32Y1    TA2112A        202210177158-3070-80             RUBBER STOPPER           CCN000040000000040000FN00000000020221201000040000NNM   20220831121813    1C0C  00004000000000276000000333332Y1    YAYAS   002700430014
BI00B32Y1    TA2111A        202210037158-3009-60             RUBBER STOPPER           CCN000280000000280000FN00000000020221201000280000NNM   20220831121813    1C0C  00002000000000338000000386232Y1    YAYAS   002700430014
BI00B32Y1    TA2112A        202210177158-3009-60             RUBBER STOPPER           CCN000260000000260000FN00000000020221201000260000NNM   20220831121813    1C0C  00002000000000338000000386232Y1    YAYAS   002700430014
BI00B32Y1    TA2111A        202210037116-5750-02             TERMINAL                 CCN000090000000090000FN00000000020221201000090000NNM   20220831121813    4P0P  00001500000000457500000742732Y1    YAYAS   006400630015
BI00B32Y1    TA2112A        202210177116-5750-02             TERMINAL                 CCN000075000000075000FN00000000020221201000075000NNM   20220831121813    4P0P  00001500000000457500000742732Y1    YAYAS   006400630015
BI00B32Y1    TA2111A        202210037196-0510-02             TERMINAL                 CCN000024000000024000FN00000000020221201000024000NNM   20220831121813    4P0P  00002400000000871200001034632Y1    YAYAS   002800510028
BI00B32Y1    TA2112A        202210177196-0510-02             TERMINAL                 CCN000024000000024000FN00000000020221201000024000NNM   20220831121813    4P0P  00002400000000871200001034632Y1    YAYAS   002800510028
BI00B32Y1    TA2111A        202210037196-0512-02             TERMINAL                 CCN000021000000021000FN00000000020221201000021000NNM   20220831121813    4P0P  00002100000000871500001034932Y1    YAYAS   002800510028
BI00B32Y1    TA2111A        202210037158-3006-90             RUBBER STOPPER           CCN000540000000540000FN00000000020221201000540000NNM   20220831121813    1C0C  00002000000000330600000386032Y1    YAYAS   002700430014
BI00B32Y1    TA2112A        202210177158-3006-90             RUBBER STOPPER           CCN000540000000540000FN00000000020221201000540000NNM   20220831121813    1C0C  00002000000000330600000386032Y1    YAYAS   002700430014
BI00B32Y1    #TA2111A       202210037158-3005-80             RUBBER STOPPER           CCN000040000000040000FN00000000020221201000040000NNM   20220831121813    2H0H  00002000000000210000000268732Y1    YAYAS   002700430014
BI00B32Y1    #TA2112A       202210177158-3005-80             RUBBER STOPPER           CCN000040000000040000FN00000000020221201000040000NNM   20220831121813    2H0H  00002000000000210000000268732Y1    YAYAS   002700430014
BI00B32Y1    #TA2111A       202210037189-2978-30             HOUSING FEMALE           CCN000009000000009000FN00000000020221201000009000NNM   20220831121813    2F0F  00000150000000966900001096932Y1    YAYAS   005400370024
BI00B32Y1    #TA2112A       202210177189-2978-30             HOUSING FEMALE           CCN000009000000009000FN00000000020221201000009000NNM   20220831121813    2F0F  00000150000000966900001096932Y1    YAYAS   005400370024
BI00B32Y1    #TA2111A       202210037189-3032                HOUSING FEMALE           CCN000014400000014400FN00000000020221201000014400NNM   20220831121813    2F0F  00000160000000788400001018432Y1    YAYAS   005500360039
BI00B32Y1    #TA2112A       202210177189-3032                HOUSING FEMALE           CCN000012800000012800FN00000000020221201000012800NNM   20220831121813    2F0F  00000160000000788400001018432Y1    YAYAS   005500360039
BI00B32Y1    #TA2111A       202210037189-3037                HOUSING FEMALE           CCN000004800000004800FN00000000020221201000004800NNM   20220831121813    2F0F  00000480000000806400001066432Y1    YAYAS   005500360039
BI00B32Y1    #TA2112A       202210177189-3037                HOUSING FEMALE           CCN000004800000004800FN00000000020221201000004800NNM   20220831121813    2F0F  00000480000000806400001066432Y1    YAYAS   005500360039
BI00B32Y1    #TA2111A       202210037289-2912-30             HOUSING FEMALE ASS'Y     CCN000002000000002000FN00000000020221201000002000NNM   20220831121813    2N0N  00000200000000804000000929032Y1    YAYAS   005400370024
BI00B32Y1    #TA2111A       202210037289-2914                HOUSING FEMALE ASS'Y     CCN000004500000004500FN00000000020221201000004500NNM   20220831121813    2N0N  00000150000000906000001033032Y1    YAYAS   005400370024
BI00B32Y1    #TA2112A       202210177289-2914                HOUSING FEMALE ASS'Y     CCN000004500000004500FN00000000020221201000004500NNM   20220831121813    2N0N  00000150000000906000001033032Y1    YAYAS   005400370024
BI00B32Y1    #TA2111A       202210037289-2915-30             HOUSING FEMALE ASS'Y     CCN000007500000007500FN00000000020221201000007500NNM   20220831121813    2N0N  00000150000000964500001091532Y1    YAYAS   005400370024
BI00B32Y1    #TA2112A       202210177289-2915-30             HOUSING FEMALE ASS'Y     CCN000007500000007500FN00000000020221201000007500NNM   20220831121813    2N0N  00000150000000964500001091532Y1    YAYAS   005400370024
BI00B32Y1    #TA2111A       202210037289-2916-30             HOUSING FEMALE ASS'Y     CCN000003000000003000FN00000000020221201000003000NNM   20220831121813    2N0N  00000100000000857000001084032Y1    YAYAS   005400370024
BI00B32Y1    #TA2112A       202210177289-2916-30             HOUSING FEMALE ASS'Y     CCN000003000000003000FN00000000020221201000003000NNM   20220831121813    2N0N  00000100000000857000001084032Y1    YAYAS   005400370024
BI00B32Y1    #TA2111A       202210037289-2918-40             HOUSING FEMALE ASS'Y     CCN000001000000001000FN00000000020221201000001000NNM   20220831121813    2N0N  00000100000001020000001147032Y1    YAYAS   005400370024
BI00B32Y1    #TA2111A       202210037289-2919-30             HOUSING FEMALE ASS'Y     CCN000003000000003000FN00000000020221201000003000NNM   20220831121813    2N0N  00000150000000907500001034532Y1    YAYAS   005400370024
BI00B32Y1    #TA2112A       202210177289-2919-30             HOUSING FEMALE ASS'Y     CCN000003000000003000FN00000000020221201000003000NNM   20220831121813    2N0N  00000150000000907500001034532Y1    YAYAS   005400370024
BI00B32Y1    #TA2111A       202210037154-5597-30             CASSETTE R/B             CCN000028000000028000FN00000000020221201000028000NNM   20220831121813    2F0F  00000080000000736000000952032Y1    YAYAS   005500360039
BI00B32Y1    #TA2112A       202210177154-5597-30             CASSETTE R/B             CCN000027200000027200FN00000000020221201000027200NNM   20220831121813    2F0F  00000080000000736000000952032Y1    YAYAS   005500360039
BI00B32Y1    #TA2111A       202210037158-3008-80             RUBBER STOPPER           CCN000120000000120000FN00000000020221201000120000NNM   20220831121813    2C0C  00002000000000288000000343032Y1    YAYAS   004300270014
BI00B32Y1    #TA2112A       202210177158-3008-80             RUBBER STOPPER           CCN000100000000100000FN00000000020221201000100000NNM   20220831121813    2C0C  00002000000000288000000343032Y1    YAYAS   004300270014
BI00B32Y1    #TA2111A       202210037158-3017                RUBBER STOPPER           CCN000020000000020000FN00000000020221201000020000NNM   20220831121813    2C0C  00001000000000375500000435032Y1    YAYAS   002700430014
BI00B32Y1    #TA2112A       202210177158-3017                RUBBER STOPPER           CCN000010000000010000FN00000000020221201000010000NNM   20220831121813    2C0C  00001000000000375500000435032Y1    YAYAS   002700430014
BI00B32Y1    #TA2111A       202210037158-3003-90             RUBBER STOPPER           CCN000240000000240000FN00000000020221201000240000NNM   20220831121813    2C0C  00002000000000250000000306032Y1    YAYAS   002700430014
BI00B32Y1    #TA2112A       202210177158-3003-90             RUBBER STOPPER           CCN000220000000220000FN00000000020221201000220000NNM   20220831121813    2C0C  00002000000000250000000306032Y1    YAYAS   002700430014
BI00B32Y1    #TA2111A       202210037158-3007-10             RUBBER STOPPER           CCN000040000000040000FN00000000020221201000040000NNM   20220831121813    2H0H  00002000000000308000000362732Y1    YAYAS   002700430014
BI00B32Y1    #TA2112A       202210177158-3007-10             RUBBER STOPPER           CCN000040000000040000FN00000000020221201000040000NNM   20220831121813    2H0H  00002000000000308000000362732Y1    YAYAS   002700430014
BI00B32Y1    #TA2111A       202210037158-3015-10             RUBBER STOPPER           CCN000010000000010000FN00000000020221201000010000NNM   20220831121813    2C0C  00001000000000419500000474032Y1    YAYAS   002700430014
BI00B32Y1    #TA2112A       202210177158-3015-10             RUBBER STOPPER           CCN000010000000010000FN00000000020221201000010000NNM   20220831121813    2C0C  00001000000000419500000474032Y1    YAYAS   002700430014
BI00B32Y2    TAU1251        202209297116-4032                TERMINAL                 CCN000006000000006000FN00000000020230201000006000NNM   20220831121813    4P0P  00000600000000532800000818032Y2    YUYUY   006400630015
BI00B32Y2    TAU1251        202209297158-3070-80             RUBBER STOPPER           CCN000040000000040000FN00000000020230201000040000NNM   20220831121813    1C0C  00004000000000276000000333332Y2    YUYUY   002700430014
BI00B32Y2    TAU1251        202209297196-0510-02             TERMINAL                 CCN000048000000048000FN00000000020230201000048000NNM   20220831121813    4P0P  00002400000000871200001034632Y2    YUYUY   002800510028
BI00B32Y2    TAU1251        202209297282-4855                HOUSING MALE ASS'Y       CCN000001000000001200FN00000000020230201000001200NNM   20220831121813    4N0N  00000120000001063200001283232Y2    YUYUY   005500360039
BI00B32Y2    TAU1251        202209297288-3206                HOUSING MALE ASS'Y       CCN000030600000030600FN00000000020230201000030600NNM   20220831121813    1N0N  00000102000000387600000787632Y2    YUYUY   005500360039
BI00B32Y2    TAU1251        202209297289-3342-30             HOUSING FEMALE ASS'Y     CCN000079200000079200FN00000000020230201000079200NNM   20220831121813    1N0N  00000240000000686400000901432Y2    YUYUY   005500360039
BI00B32Y2    #TAU1251       202209297158-3007-10             RUBBER STOPPER           CCN000040000000040000FN00000000020230201000040000NNM   20220831121813    2H0H  00002000000000308000000362732Y2    YUYUY   002700430014
BI00B32Y2    #TAU1251       202209297158-3008-80             RUBBER STOPPER           CCN000060000000060000FN00000000020230201000060000NNM   20220831121813    2C0C  00002000000000288000000343032Y2    YUYUY   004300270014
BI00B32Y2    #TAU1251       202209297189-3034-30             HOUSING FEMALE           CCN000001600000001600FN00000000020230201000001600NNM   20220831121813    2F0F  00000160000000972800001192832Y2    YUYUY   005500360039
BI00B32Y2    #TAU1251       202209297289-2918-40             HOUSING FEMALE ASS'Y     CCN000011000000011000FN00000000020230201000011000NNM   20220831121813    2N0N  00000100000001020000001147032Y2    YUYUY   005400370024
BI00B32Y6    STAP33011      202210067B72-5540-80             SEALED WIRE SEAL         CCN000020000000020000FN00000000020230101000020000NNM   20220831161127    1C0C  00002000000000186000000234432Y6    BSYBL-S 004300270014
BI00B32Y6    STAP33011      202210067B74-1849-70             COVER                    CCN000025000000025000FN00000000020230101000025000NNM   20220831161127    1F0F  00002500000000622500000761932Y6    BSYBL-S 005400370024
BI00B32Y6    STAP33011      202210067298-1145-4W             SQUIB SUB ASS'Y          CCN000020000000020000FN00000000020230101000020000NNM   20220831161127    4N0N  00001000000000787900000944932Y6    BSYBL-S 005400370024
BI00B32Y6    STAP33011      202210067114-4415-02             TERMINAL MALE            CCN000050000000054000FN00000000020230101000054000NNM   20220831161127    4P0P  00002700000000429300000717532Y6    BSYBL-S 006400630015
BI00B32Y6    STAP33011      202210067116-1685-02             TERMINAL                 CCN000096000000096000FN00000000020230101000096000NNM   20220831161127    4P0P  00002400000000897600001065232Y6    BSYBL-S 005100280028
BI00B32Y6    STAP33011      202210067116-1686-02             TERMINAL                 CCN000021000000021000FN00000000020230101000021000NNM   20220831161127    4P0P  00002100000000869400001021632Y6    BSYBL-S 005100280028
BI00B32Y6    STAP33011      202210067116-4025                TERMINAL                 CCN000020000000032000FN00000000020230101000032000NNM   20220831161127    4P0P  00001600000000644800000975132Y6    BSYBL-S 006400630017
BI00B32Y6    STAP33011      202210067116-5044-02             TERMINAL                 CCN000372000000384000FN00000000020230101000384000NNM   20220831161127    4P0P  00001600000000641600000986332Y6    BSYBL-S 006400630017
BI00B32Y6    STAP33011      202210067158-3009-60             RUBBER STOPPER           CCN000200000000200000FN00000000020230101000200000NNM   20220831161127    1C0C  00002000000000338000000386232Y6    BSYBL-S 002700430014
BI00B32Y6    STAP33011      202210067158-3022-80             RUBBER STOPPER           CCN000005000000005000FN00000000020230101000005000NNM   20220831161127    1C0C  00000500000000467500000524032Y6    BSYBL-S 002700430014
BI00B32Y6    STAP33011      202210067158-3165-90             WIRE SEAL                CCN000120000000120000FN00000000020230101000120000NNM   20220831161127    1C0C  00004000000000124000000172432Y6    BSYBL-S 004300270014
BI00B32Y6    STAP33011      202210067158-3166-60             WIRE SEAL                CCN000040000000040000FN00000000020230101000040000NNM   20220831161127    1C0C  00004000000000104000000152432Y6    BSYBL-S 002700430014
BI00B32Y6    STAP33011      202210067158-3168-80             SEALED                   CCN000040000000040000FN00000000020230101000040000NNM   20220831161127    1C0C  00002000000000044000000092132Y6    BSYBL-S 004300260014
BI00B32Y6    STAP33011      202210067158-3169-40             SEALING PLUG             CCN000080000000080000FN00000000020230101000080000NNM   20220831161127    1C0C  00004000000000156000000204132Y6    BSYBL-S 004300260014
BI00B32Y6    STAP33011      202210067196-0396-02             TERMINAL                 CCN000030000000030000FN00000000020230101000030000NNM   20220831161127    4P0P  00001500000000949500001112932Y6    BSYBL-S 002800510028
BI00B32Y6    STAP33011      202210067196-1102-02             TERMINAL                 CCN000045000000045000FN00000000020230101000045000NNM   20220831161127    4P0P  00002250000000405000000690232Y6    BSYBL-S 006400630015
BI00B32Y6    STAP33011      202210067270-8994                6P MODULE ASSEMBLY       CCN000004000000004000FN00000000020230101000004000NNM   20220831161127    4J0J  00000010000001098600001298632Y6    BSYBL-S 005400370024
BI00B32Y6    STAP33011      202210067282-4578-30             HOUSING MALE ASS'Y       CCN000003600000003600FN00000000020230101000003600NNM   20220831161127    4N0N  00000120000000782600000992632Y6    BSYBL-S 005500360039
BI00B32Y6    STAP33011      202210067283-4854-40             CONNECTOR HOUSING        CCN000004800000004800FN00000000020230101000004800NNM   20220831161127    4N0N  00000240000000694100000914132Y6    BSYBL-S 005500360039
BI00B32Y6    STAP33011      202210067286-1915                CONNECTOR SUB ASSY       CCN000003200000003200FN00000000020230101000003200NNM   20220831161127    4N0N  00000160000000965600001165632Y6    BSYBL-S 005500360039
BI00B32Y6    STAP33011      202210067287-3885-40             HYBRID FEMALE ASS'Y      CCN000002400000002400FN00000000020230101000002400NNM   20220831161127    1N0N  00000240000001029600001249632Y6    BSYBL-S 005500360039
BI00B32Y6    STAP33011      202210067287-9323-40             UNSEALED HOUSING SUB     CCN000004800000004800FN00000000020230101000004800NNM   20220831161127    1N0N  00000240000000537600000690032Y6    BSYBL-S 005600390023
BI00B32Y6    STAP33011      202210067289-3342                HOUSING FEMALE ASS'Y     CCN000014400000014400FN00000000020230101000014400NNM   20220831161127    1N0N  00000240000000686400000901432Y6    BSYBL-S 005500360039
BI00B32Y6    STAP33011      202210067289-3342-30             HOUSING FEMALE ASS'Y     CCN000026400000026400FN00000000020230101000026400NNM   20220831161127    1N0N  00000240000000686400000901432Y6    BSYBL-S 005500360039
BI00B32Y6    STAP33011      202210067289-6868-30             SEALED ASSY FEMALE       CCN000007560000007560FN00000000020230101000007560NNM   20220831161127    4N0N  00000252000000839200001119232Y6    BSYBL-S 005500360039
BI00B32Y6    STAP33011      202210067327-6581-3W             BATTERY FUSE             CCN000000864000000864FN00000000020230101000000864NNM   20220831161127    4N0N  00000007200001230000001422532Y6    BSYBL-S 005500360039
BI00B32Y6    STAP33011      202210067327-6731-3W             BATTERY FUSE             CCN000001024000001024FN00000000020230101000001024NNM   20220831161127    4N0N  00000006400000697600000843032Y6    BSYBL-S 005400370024
BI00B32Y6    STAP33011      202210067388-0313-30             CONNECTOR ASS'Y          CCN000004800000004800FN00000000020230101000004800NNM   20220831161127    4N0N  00000120000000995000001125032Y6    BSYBL-S 005400370024
BI00B32Y6    STAP33011      202210067388-2978-30             HOUSING MALE ASS'Y       CCN000005760000005760FN00000000020230101000005760NNM   20220831161127    1N0N  00000048000000742000001122032Y6    BSYBL-S 005500360039
BI00B32Y6    #STAP33011     202210067154-5597-30             CASSETTE R/B             CCN000004800000004800FN00000000020230101000004800NNM   20220831161123    2F0F  00000080000000736000000952032Y6    BSYBL-S 005500360039
BI00B32Y6    #STAP33011     202210067158-3003-90             RUBBER STOPPER           CCN000140000000140000FN00000000020230101000140000NNM   20220831161123    2C0C  00002000000000250000000306032Y6    BSYBL-S 002700430014
BI00B32Y6    #STAP33011     202210067158-3005-80             RUBBER STOPPER           CCN000020000000020000FN00000000020230101000020000NNM   20220831161123    2H0H  00002000000000210000000268732Y6    BSYBL-S 002700430014
BI00B32Y6    #STAP33011     202210067172-5626-90             RUBBER STOPPER           CCN000020000000020000FN00000000020230101000020000NNM   20220831161123    2H0H  00002000000000076400000127832Y6    BSYBL-S 004300270014
BI00B32Y6    #STAP33011     202210067172-5627-60             RUBBER STOPPER           CCN000080000000080000FN00000000020230101000080000NNM   20220831161123    2H0H  00002000000000070400000121832Y6    BSYBL-S 004300270014
BI00B32Y6    #STAP33011     202210067172-5628-80             DUMMY PLUG               CCN000100000000100000FN00000000020230101000100000NNM   20220831161123    2H0H  00002000000000110600000162032Y6    BSYBL-S 004300270014
BI00B32Y6    #STAP33011     202210067172-5629-80             RUBBER STOPPER           CCN000220000000220000FN00000000020230101000220000NNM   20220831161123    2H0H  00002000000000060000000111132Y6    BSYBL-S 004300270014
BI00B32Y6    #STAP33011     202210067172-5630-40             RUBBER STOPPER           CCN000160000000160000FN00000000020230101000160000NNM   20220831161123    2H0H  00002000000000044000000095132Y6    BSYBL-S 004300270014
BI00B32Y6    #STAP33011     202210067172-5631-60             RUBBER STOPPER           CCN000160000000160000FN00000000020230101000160000NNM   20220831161123    2H0H  00002000000000042000000093132Y6    BSYBL-S 004300270014
BI00B32Y6    #STAP33011     202210067172-5632-10             DUMMY PLUG               CCN000040000000040000FN00000000020230101000040000NNM   20220831161123    2H0H  00002000000000080400000131832Y6    BSYBL-S 004300270014
BI00B32Y6    #STAP33011     202210067183-2414-30             CONNECTOR HOUSING        CCN000024000000024000FN00000000020230101000024000NNM   20220831161123    2F0F  00000480000000779500001061532Y6    BSYBL-S 005500360039
BI00B32Y6    #STAP33011     202210067183-8251-40             HOUSING                  CCN000002400000002400FN00000000020230101000002400NNM   20220831161123    2F0F  00000240000000357600000640032Y6    BSYBL-S 005500360039
BI00B32Y6    #STAP33011     202210067183-8252-40             HOUSING                  CCN000002400000002400FN00000000020230101000002400NNM   20220831161123    2F0F  00000240000000454000000729032Y6    BSYBL-S 005500360039
BI00B32Y6    #STAP33011     202210067189-2978-30             HOUSING FEMALE           CCN000015000000015000FN00000000020230101000015000NNM   20220831161123    2F0F  00000150000000966900001096932Y6    BSYBL-S 005400370024
BI00B32Y6    #STAP33011     202210067189-3032-30             HOUSING FEMALE           CCN000003200000003200FN00000000020230101000003200NNM   20220831161123    2F0F  00000160000000801600001021632Y6    BSYBL-S 005500360039
BI00B32Y6    #STAP33011     202210067189-3033                HOUSING FEMALE           CCN000003200000003200FN00000000020230101000003200NNM   20220831161123    2F0F  00000160000001211200001431232Y6    BSYBL-S 005500360039
BI00B32Y6    #STAP33011     202210067189-3036                HOUSING FEMALE           CCN000003200000003200FN00000000020230101000003200NNM   20220831161123    2F0F  00000160000000921600001141632Y6    BSYBL-S 005500360039
BI00B32Y6    #STAP33011     202210067289-2912-40             HOUSING FEMALE ASS'Y     CCN000004000000004000FN00000000020230101000004000NNM   20220831161123    2N0N  00000200000000804000000931032Y6    BSYBL-S 005400370024
BI00B32Y6    #STAP33011     202210067289-2919-30             HOUSING FEMALE ASS'Y     CCN000001500000001500FN00000000020230101000001500NNM   20220831161123    2N0N  00000150000000907500001034532Y6    BSYBL-S 005400370024
BI00B32Y6    #STAP33011     202210067289-2919-40             HOUSING FEMALE ASS'Y     CCN000003000000003000FN00000000020230101000003000NNM   20220831161123    2N0N  00000150000000910500001037532Y6    BSYBL-S 005400370024
BI00B32Y6    #STAP33011     202210067289-3622-30             HOUSING FEMALE ASS'Y     CCN000002160000002160FN00000000020230101000002160NNM   20220831161123    2N0N  00000043200000839400001038432Y6    BSYBL-S 005400370024
BI00B32Y6    @STAP33011     202210067283-1556                CONNECTOR ASS'Y          CCN000009600000009600FN00000000020230101000009600NNM   20220831161125    3N0N  00000240000000755000001014032Y6    BSYBL-S 005500360039
