AE00TI102208310431/08/202200000000500000000000000005493KGM  00000006493KGM  7270-8994                6P MODULE ASSEMBLY       72708994                 0         0         0         0    0    0    00000050000000010000017952000089760000
AE00TI102208310431/08/202200000001000000000000000013200KGM  00000015700KGM  7470-3082                J/B COMPLETE ASS'Y       74703082                 0         0         0         0    0    0    00000024000000002400031298000075115200
AE00TI102208310431/08/202200000000800000000000000010560KGM  00000012560KGM  7470-4481                J/B COMPLETE ASS'Y       74704481                 0         0         0         0    0    0    00000019200000002400000000000000000000
AE00TI102208310431/08/202200000000300000000000000000000KGM  00000000000KGM  7470-4810E               J/B COMPLETE ASS'Y       74704810E                0         0         0         0    0    0    00000003000000001000000000000000000000
AE00TI102208310431/08/202200000000900000000000000000000KGM  00000000000KGM  7470-4816E               J/B COMPLETE ASS'Y       74704816E                0         0         0         0    0    0    00000009000000001000000000000000000000
AE00TI102208310431/08/202200000000200000000000000000000KGM  00000000000KGM  7470-4816E1              J/B COMPLETE ASS'Y       74704816E1               0         0         0         0    0    0    00000002000000001000000000000000000000
AE00TI102208310431/08/202200000003000000000000000000000KGM  00000000000KGM  7470-5308E               J/B COMPLETE ASS'Y       74705308E                0         0         0         0    0    0    00000030000000001000000000000000000000
AE00TI102208310431/08/202200000000500000000000000000000KGM  00000000000KGM  7470-5782D               J/B COMPLETE ASS'Y       74705782D                0         0         0         0    0    0    00000007500000001500000000000000000000
AE00TI102208310431/08/202200000002500000000000000000000KGM  00000000000KGM  7470-5783D               J/B COMPLETE ASS'Y       74705783D                0         0         0         0    0    0    00000037500000001500000000000000000000
AE00TI102208310431/08/202200000002400000000000000000000KGM  00000000000KGM  7470-5783E               J/B COMPLETE ASS'Y       74705783E                0         0         0         0    0    0    00000024000000001000000000000000000000
AE00TI102208310431/08/202200000004000000000000000000000KGM  00000000000KGM  7470-5791D               J/B COMPLETE ASS'Y       74705791D                0         0         0         0    0    0    00000060000000001500000000000000000000
AE00TI102208310431/08/202200000001000000000000000000000KGM  00000000000KGM  7470-5791E               J/B COMPLETE ASS'Y       74705791E                0         0         0         0    0    0    00000010000000001000000000000000000000
AE00TI102208310431/08/202200000002000000000000000000000KGM  00000000000KGM  7470-5823D               J/B COMPLETE ASS'Y       74705823D                0         0         0         0    0    0    00000030000000001500000000000000000000
AE00TI102208310431/08/202200000000800000000000000000000KGM  00000000000KGM  7470-5823E               J/B COMPLETE ASS'Y       74705823E                0         0         0         0    0    0    00000008000000001000000000000000000000
