AE00TI102208310131/08/202200000000100000000000000001137KGM  00000001298KGM  7183-2417                CONNECTOR HOUSING        71832417                 0         0         0         0    0    0    00000240000000240000000138000003312000
AE00TI102208310131/08/202200000000400000000000000004934KGM  00000005782KGM  7287-7599                HOUSING FEMALE ASS'Y     72877599                 0         0         0         0    0    0    00000640000000160000000350000022400000
AE00TI102208310131/08/202200000000600000000000000005197KGM  00000006067KGM  7288-3329-30             HOUSING MALE             7288332930               0         0         0         0    0    0    00000900000000150000000354000031860000
AE00TI102208310131/08/202200000000800000000000000006936KGM  00000008096KGM  7288-3335-30             HOUSING MALE             7288333530               0         0         0         0    0    0    00001200000000150000000354000042480000
AE00TI102208310131/08/202200000002200000000000000019074KGM  00000022264KGM  7288-3337-30             HOUSING MALE             7288333730               0         0         0         0    0    0    00003300000000150000000354000116820000
AE00TI102208310131/08/202200000000400000000000000003468KGM  00000004048KGM  7288-3339-30             HOUSING MALE             7288333930               0         0         0         0    0    0    00000600000000150000000354000021240000
AE00TI102208310131/08/202200000000400000000000000003301KGM  00000004141KGM  7288-5000                HOUSING MALE ASS'Y       72885000                 0         0         0         0    0    0    00000134400000033600000895000012028800
AE00TI102208310131/08/202200000001500000000000000010296KGM  00000013521KGM  7289-3342                HOUSING FEMALE ASS'Y     72893342                 0         0         0         0    0    0    00003600000000240000000186000066960000
AE00TI102208310131/08/202200000003000000000000000020592KGM  00000027042KGM  7289-3342-30             HOUSING FEMALE ASS'Y     7289334230               0         0         0         0    0    0    00007200000000240000000191000137520000
AE00TI102208310131/08/202200000001100000000000000009121KGM  00000011541KGM  7289-6518-30             HOUSING FEMALE ASS'Y     7289651830               0         0         0         0    0    0    00001320000000120000000598000078936000
AE00TI102208310131/08/202200000000800000000000000008026KGM  00000009636KGM  7298-1865-30             HOUSING FEMALE ASS'Y     7298186530               0         0         0         0    0    0    00001920000000240000000196000037632000
AE00TI102208310131/08/202200000000300000000000000003292KGM  00000004076KGM  7298-4094-10             HOUSING FEMALE ASS'Y     7298409410               0         0         0         0    0    0    00001014000000338000000241000024437400
AE00TI102208310131/08/202200000001400000000000000013930KGM  00000015750KGM  7388-0313-30             CONNECTOR ASS'Y          7388031330               0         0         0         0    0    0    00001680000000120000000376000063168000
AE00TI102208310131/08/202200000013300000000000000098686KGM  00000149226KGM  7388-2978-30             HOUSING MALE ASS'Y       7388297830               0         0         0         0    0    0    00006384000000048000001790001142736000
AE00TI102208310131/08/202200000000500000000000000000000KGM  00000000000KGM  7470-5783D               J/B COMPLETE ASS'Y       74705783D                0         0         0         0    0    0    00000007500000001500000000000000000000
AE00TI102208310131/08/202200000000500000000000000000000KGM  00000000000KGM  7470-5791D               J/B COMPLETE ASS'Y       74705791D                0         0         0         0    0    0    00000007500000001500000000000000000000
AE00TI102208310131/08/202200000002000000000000000000000KGM  00000000000KGM  7470-5791E               J/B COMPLETE ASS'Y       74705791E                0         0         0         0    0    0    00000020000000001000000000000000000000
