BI00B1200    2399T52317     202207117289-5979-30             HOUSING FEMALE ASS'Y     CCN000055440000055440FN00000000020220501000055440NNMD0420220709090722    1N0N  0000002520000085470000106471200    YCYC    005400370024
BI00B32DE    TCT2083        202207277287-1915-40             CONNECTOR ASS'Y          CCN000004800000000000FY00000000020220801000000000NNMQ0920220709094709    1N0N  00000240000000666500000923132DE    TVYEV-TV005500360039
BI00B32DE    TCT2084        202208047287-1915-40             CONNECTOR ASS'Y          CCN000007200000000000FY00000000020220801000000000NNMQ0920220709095112    1N0N  00000240000000666500000923132DE    TVYEV-TV005500360039
BI00B32DE    TCT2082        202207187287-1915-90             CONNECTOR ASS'Y          CCN000007200000007200FN00000000020220801000007200NNM00020220709092929    1N0N  00000240000000666500000923132DE    TVYEV-TV005500360039
BI00B32DE    TCT2083        202207277287-1915-90             CONNECTOR ASS'Y          CCN000009600000000000FY00000000020220801000000000NNMQ0920220709102226    1N0N  00000240000000666500000923132DE    TVYEV-TV005500360039
BI00B32DE    TCT2084        202207187287-1915-90             CONNECTOR ASS'Y          CCN000012000000012000FN00000000020220801000012000NNMD0920220709092103    1N0N  00000240000000666500000923132DE    TVYEV-TV005500360039
BI00B32DE    TCT2092        202208187287-1915-40             CONNECTOR ASS'Y          CCN000004800000000000FY00000000020220901000000000NNMQ0920220709100321    1N0N  00000240000000666500000923132DE    TVYEV-TV005500360039
BI00B32DE    TCT2093        202208257287-1915-40             CONNECTOR ASS'Y          CCN000007200000000000FY00000000020220901000000000NNMQ0920220709100907    1N0N  00000240000000666500000923132DE    TVYEV-TV005500360039
BI00B32DE    TCT2094        202209017287-1915-40             CONNECTOR ASS'Y          CCN000007200000000000FY00000000020220901000000000NNMQ0920220709101230    1N0N  00000240000000666500000923132DE    TVYEV-TV005500360039
BI00B32DE    TCT2091        202208117287-1915-90             CONNECTOR ASS'Y          CCN000004800000000000FY00000000020220901000000000NNMQ0920220709103337    1N0N  00000240000000666500000923132DE    TVYEV-TV005500360039
BI00B32DE    TCT2092        202208187287-1915-90             CONNECTOR ASS'Y          CCN000004800000000000FY00000000020220901000000000NNMQ0920220709103930    1N0N  00000240000000666500000923132DE    TVYEV-TV005500360039
BI00B32DE    TCT2093        202208257287-1915-90             CONNECTOR ASS'Y          CCN000012000000000000FY00000000020220901000000000NNMQ0920220709104345    1N0N  00000240000000666500000923132DE    TVYEV-TV005500360039
BI00B32DE    TCT2094        202209017287-1915-90             CONNECTOR ASS'Y          CCN000012000000000000FY00000000020220901000000000NNMQ0920220709104700    1N0N  00000240000000666500000923132DE    TVYEV-TV005500360039
BI00B32DE    #TCT2083       202207277287-1915-40             CONNECTOR ASS'Y          CCN000004800000004800FN00000000020220801000004800NNEQ0920220709094724    2N0N  00000240000000666500000923132DE    TVYEV-TV005500360039
BI00B32DE    #TCT2084       202208047287-1915-40             CONNECTOR ASS'Y          CCN000007200000007200FN00000000020220801000007200NNEQ0920220709095125    2N0N  00000240000000666500000923132DE    TVYEV-TV005500360039
BI00B32DE    #TCT2092       202208187287-1915-40             CONNECTOR ASS'Y          CCN000004800000004800FN00000000020220901000004800NNMQ0920220709100337    2N0N  00000240000000666500000923132DE    TVYEV-TV005500360039
BI00B32DE    #TCT2093       202208257287-1915-40             CONNECTOR ASS'Y          CCN000007200000007200FN00000000020220901000007200NNMQ0920220709100920    2N0N  00000240000000666500000923132DE    TVYEV-TV005500360039
BI00B32DE    #TCT2094       202209017287-1915-40             CONNECTOR ASS'Y          CCN000007200000007200FN00000000020220901000007200NNMQ0920220709101244    2N0N  00000240000000666500000923132DE    TVYEV-TV005500360039
BI00B32DE    #TCT2083       202207277287-1915-90             CONNECTOR ASS'Y          CCN000009600000009600FN00000000020220801000009600NNEQ0920220709102249    2N0N  00000240000000666500000923132DE    TVYEV-TV005500360039
BI00B32DE    #TCT2091       202208117287-1915-90             CONNECTOR ASS'Y          CCN000004800000004800FN00000000020220801000004800NNMQ0920220709103444    2N0N  00000240000000666500000923132DE    TVYEV-TV005500360039
BI00B32DE    #TCT2092       202208187287-1915-90             CONNECTOR ASS'Y          CCN000004800000004800FN00000000020220901000004800NNMQ0920220709103943    2N0N  00000240000000666500000923132DE    TVYEV-TV005500360039
BI00B32DE    #TCT2093       202208257287-1915-90             CONNECTOR ASS'Y          CCN000012000000012000FN00000000020220901000012000NNMQ0920220709104400    2N0N  00000240000000666500000923132DE    TVYEV-TV005500360039
BI00B32DE    #TCT2094       202209017287-1915-90             CONNECTOR ASS'Y          CCN000012000000012000FN00000000020220901000012000NNMQ0920220709104712    2N0N  00000240000000666500000923132DE    TVYEV-TV005500360039
BI00B32D9    I23609         202208117287-1915-90             CONNECTOR ASS'Y          CCN000002400000000000FY00000000020220901000000000NNMQ0920220709103723    1N0N  00000240000000666500000923132D9    UEHESTO 005500360039
BI00B32D9    #I23609        202208117287-1915-90             CONNECTOR ASS'Y          CCN000002400000002400FN00000000020220901000002400NNMQ0920220709103736    2N0N  00000240000000666500000923132D9    UEHESTO 005500360039
BI00B32E1    NC2091         202207277254-1884-30             PRIMARY PDB BASE         CCN000000108000000108FN00000000020220801000000108NNMD0220220709193953    4N0N  00000003600001160000001390732E1    SPYSE   005600390040
BI00B32E1    NC2093         202207277254-1884-30             PRIMARY PDB BASE         CCN000000036000000036FN00000000020220801000000036NNMD0220220709194040    4N0N  00000003600001160000001390732E1    SPYSE   005600390040
BI00B32E1    NC2101         202207277254-1884-30             PRIMARY PDB BASE         CCN000000144000000144FN00000000020220901000000144NNMD0020220709194019    4N0N  00000003600001160000001390732E1    SPYSE   005600390040
BI00B32E1    NC2063         202207277254-1884-30             PRIMARY PDB BASE         CCN000000036000000036FN00000000020220501000000036NNMD0420220709194007    4N0N  00000003600001160000001390732E1    SPYSE   005600390040
BI00A32E1    NC206C         202207147254-1884-30             PRIMARY PDB BASE         CCN000000252000000252FN00000000020220601000000252NNED0720220709123310    4N0N  00000003600001160000001390732E1    SPYSE   005600390040
BI00B32G2    SA22091 MW     202208107287-1915-40             CONNECTOR ASS'Y          CCN000004800000000000FY00000000020220901000000000NNMQ0920220709095442    1N0N  00000240000000666500000923132G2    AISUAI  005500360039
BI00B32G2    SA22091HMW     202208107287-1915-90             CONNECTOR ASS'Y          CCN000002400000000000FY00000000020220901000000000NNMQ0920220709103230    1N0N  00000240000000666500000923132G2    AISUAI  005500360039
BI00B32G2    SA22092HMW     202208177287-1915-90             CONNECTOR ASS'Y          CCN000002400000000000FY00000000020220901000000000NNMQ0920220709103817    1N0N  00000240000000666500000923132G2    AISUAI  005500360039
BI00B32G2    SA22093HMW     202208247287-1915-90             CONNECTOR ASS'Y          CCN000002400000000000FY00000000020220901000000000NNMQ0920220709104241    1N0N  00000240000000666500000923132G2    AISUAI  005500360039
BI00B32G2    #SA22091 MW    202208107287-1915-40             CONNECTOR ASS'Y          CCN000004800000004800FN00000000020220901000004800NNMQ0920220709095456    2N0N  00000240000000666500000923132G2    AISUAI  005500360039
BI00B32G2    #SA22091HMW    202208107287-1915-90             CONNECTOR ASS'Y          CCN000002400000002400FN00000000020220901000002400NNMQ0920220709103251    2N0N  00000240000000666500000923132G2    AISUAI  005500360039
BI00B32G2    #SA22092HMW    202208177287-1915-90             CONNECTOR ASS'Y          CCN000002400000002400FN00000000020220901000002400NNMQ0920220709103839    2N0N  00000240000000666500000923132G2    AISUAI  005500360039
BI00B32G2    #SA22093HMW    202208247287-1915-90             CONNECTOR ASS'Y          CCN000002400000002400FN00000000020220901000002400NNMQ0920220709104300    2N0N  00000240000000666500000923132G2    AISUAI  005500360039
BI00B32G7    JJ22083MMW     202207277287-1915-90             CONNECTOR ASS'Y          CCN000004800000000000FY00000000020220801000000000NNMQ0920220709102120    1N0N  00000240000000666500000923132G7    JIJAI   005500360039
BI00B32G7    JJ22084MMW     202208047287-1915-90             CONNECTOR ASS'Y          CCN000002400000000000FY00000000020220801000000000NNMQ0920220709102934    1N0N  00000240000000666500000923132G7    JIJAI   005500360039
BI00B32G7    JJ22091MMW     202208187287-1915-90             CONNECTOR ASS'Y          CCN000002400000000000FY00000000020220901000000000NNMQ0920220709104103    1N0N  00000240000000666500000923132G7    JIJAI   005500360039
BI00B32G7    JJ22092MMW     202208257287-1915-90             CONNECTOR ASS'Y          CCN000004800000000000FY00000000020220901000000000NNMQ0920220709104523    1N0N  00000240000000666500000923132G7    JIJAI   005500360039
BI00B32G7    JJ22093MMW     202209017287-1915-90             CONNECTOR ASS'Y          CCN000004800000000000FY00000000020220901000000000NNMQ0920220709104833    1N0N  00000240000000666500000923132G7    JIJAI   005500360039
BI00B32G7    JJ22094MMW     202209087287-1915-90             CONNECTOR ASS'Y          CCN000004800000000000FY00000000020220901000000000NNMQ0920220709105111    1N0N  00000240000000666500000923132G7    JIJAI   005500360039
BI00B32G7    #JJ22083MMW    202207277287-1915-90             CONNECTOR ASS'Y          CCN000004800000004800FN00000000020220801000004800NNMQ0920220709102129    2N0N  00000240000000666500000923132G7    JIJAI   005500360039
BI00B32G7    #JJ22084MMW    202208047287-1915-90             CONNECTOR ASS'Y          CCN000002400000002400FN00000000020220801000002400NNMQ0920220709102945    2N0N  00000240000000666500000923132G7    JIJAI   005500360039
BI00B32G7    #JJ22091MMW    202208187287-1915-90             CONNECTOR ASS'Y          CCN000002400000002400FN00000000020220901000002400NNMQ0920220709104125    2N0N  00000240000000666500000923132G7    JIJAI   005500360039
BI00B32G7    #JJ22092MMW    202208257287-1915-90             CONNECTOR ASS'Y          CCN000004800000004800FN00000000020220901000004800NNMQ0920220709104538    2N0N  00000240000000666500000923132G7    JIJAI   005500360039
BI00B32G7    #JJ22093MMW    202209017287-1915-90             CONNECTOR ASS'Y          CCN000004800000004800FN00000000020220901000004800NNMQ0920220709104845    2N0N  00000240000000666500000923132G7    JIJAI   005500360039
BI00B32G7    #JJ22094MMW    202209087287-1915-90             CONNECTOR ASS'Y          CCN000004800000004800FN00000000020220901000004800NNMQ0920220709105120    2N0N  00000240000000666500000923132G7    JIJAI   005500360039
BI00B32H2    TIJ2082        202207227287-1915-90             CONNECTOR ASS'Y          CCN000002400000000000FY00000000020220801000000000NNMQ0920220709101955    1N0N  00000240000000666500000923132H2    HVYHV   005500360039
BI00B32H2    TIJ2083        202207297287-1915-90             CONNECTOR ASS'Y          CCN000002400000000000FY00000000020220801000000000NNMQ0920220709102426    1N0N  00000240000000666500000923132H2    HVYHV   005500360039
BI00B32H2    TIJ2084        202208057287-1915-90             CONNECTOR ASS'Y          CCN000002400000000000FY00000000020220801000000000NNMQ0920220709103113    1N0N  00000240000000666500000923132H2    HVYHV   005500360039
BI00B32H2    TIJ208J        202207297287-1915-90             CONNECTOR ASS'Y          CCN000002400000000000FY00000000020220801000000000NNEQ0920220709102603    1N0N  00000240000000666500000923132H2    HVYHV   005500360039
BI00B32H2    TIJ2092        202208197287-1915-90             CONNECTOR ASS'Y          CCN000004800000000000FY00000000020220901000000000NNMQ0920220709104156    1N0N  00000240000000666500000923132H2    HVYHV   005500360039
BI00B32H2    TIJ2093        202208267287-1915-90             CONNECTOR ASS'Y          CCN000002400000000000FY00000000020220901000000000NNMQ0920220709104614    1N0N  00000240000000666500000923132H2    HVYHV   005500360039
BI00B32H2    TIJ2094        202209027287-1915-90             CONNECTOR ASS'Y          CCN000004800000000000FY00000000020220901000000000NNMQ0920220709104920    1N0N  00000240000000666500000923132H2    HVYHV   005500360039
BI00B32H2    #TIJ2082       202207227287-1915-90             CONNECTOR ASS'Y          CCN000002400000002400FN00000000020220801000002400NNMQ0920220709102005    2N0N  00000240000000666500000923132H2    HVYHV   005500360039
BI00B32H2    #TIJ2083       202207297287-1915-90             CONNECTOR ASS'Y          CCN000002400000002400FN00000000020220801000002400NNMQ0920220709102532    2N0N  00000240000000666500000923132H2    HVYHV   005500360039
BI00B32H2    #TIJ208J       202207297287-1915-90             CONNECTOR ASS'Y          CCN000002400000002400FN00000000020220801000002400NNEQ0920220709102718    2N0N  00000240000000666500000923132H2    HVYHV   005500360039
BI00B32H2    #TIJ2084       202208057287-1915-90             CONNECTOR ASS'Y          CCN000002400000002400FN00000000020220801000002400NNMQ0920220709103127    2N0N  00000240000000666500000923132H2    HVYHV   005500360039
BI00B32H2    #TIJ2092       202208197287-1915-90             CONNECTOR ASS'Y          CCN000004800000004800FN00000000020220901000004800NNMQ0920220709104211    2N0N  00000240000000666500000923132H2    HVYHV   005500360039
BI00B32H2    #TIJ2093       202208267287-1915-90             CONNECTOR ASS'Y          CCN000002400000002400FN00000000020220901000002400NNMQ0920220709104627    2N0N  00000240000000666500000923132H2    HVYHV   005500360039
BI00B32H2    #TIJ2094       202209027287-1915-90             CONNECTOR ASS'Y          CCN000004800000004800FN00000000020220901000004800NNMQ0920220709104932    2N0N  00000240000000666500000923132H2    HVYHV   005500360039
BI00B32H8    TY22092KMW     202207297287-1915-90             CONNECTOR ASS'Y          CCN000002400000000000FY00000000020220901000000000NNMQ0920220709102736    1N0N  00000240000000666500000923132H8    TYTYC   005500360039
BI00B32H8    #TY22092KMW    202207297287-1915-90             CONNECTOR ASS'Y          CCN000002400000002400FN00000000020220901000002400NNMQ0920220709102747    2N0N  00000240000000666500000923132H8    TYTYC   005500360039
BI00B32M1    TCV2082        202207217287-1915-40             CONNECTOR ASS'Y          CCN000019200000000000FY00000000020220801000000000NNMQ0920220709094622    1N0N  00000240000000666500000923132M1    VNYEV   005500360039
BI00B32M1    TCV2083        202207277287-1915-40             CONNECTOR ASS'Y          CCN000014400000000000FY00000000020220801000000000NNMQ0920220709094832    1N0N  00000240000000666500000923132M1    VNYEV   005500360039
BI00B32M1    TCV2084        202208047287-1915-40             CONNECTOR ASS'Y          CCN000014400000000000FY00000000020220801000000000NNMQ0920220709095201    1N0N  00000240000000666500000923132M1    VNYEV   005500360039
BI00B32M1    TCV2082        202207187287-1915-90             CONNECTOR ASS'Y          CCN000004800000004800FN00000000020220801000004800NNM00020220709093045    1N0N  00000240000000666500000923132M1    VNYEV   005500360039
BI00B32M1    TCV2083        202207277287-1915-90             CONNECTOR ASS'Y          CCN000002400000000000FY00000000020220801000000000NNMQ0920220709102332    1N0N  00000240000000666500000923132M1    VNYEV   005500360039
BI00B32M1    TCV2084        202208047287-1915-90             CONNECTOR ASS'Y          CCN000002400000000000FY00000000020220801000000000NNMQ0920220709102846    1N0N  00000240000000666500000923132M1    VNYEV   005500360039
BI00B32M1    TCV2091        202208117287-1915-40             CONNECTOR ASS'Y          CCN000007200000000000FY00000000020220901000000000NNMQ0920220709095925    1N0N  00000240000000666500000923132M1    VNYEV   005500360039
BI00B32M1    TCV2092        202208187287-1915-40             CONNECTOR ASS'Y          CCN000019200000000000FY00000000020220901000000000NNMQ0920220709100416    1N0N  00000240000000666500000923132M1    VNYEV   005500360039
BI00B32M1    TCV2093        202208257287-1915-40             CONNECTOR ASS'Y          CCN000016800000000000FY00000000020220901000000000NNMQ0920220709100951    1N0N  00000240000000666500000923132M1    VNYEV   005500360039
BI00B32M1    TCV2094        202209017287-1915-40             CONNECTOR ASS'Y          CCN000014400000000000FY00000000020220901000000000NNMQ0920220709101316    1N0N  00000240000000666500000923132M1    VNYEV   005500360039
BI00B32M1    TCV2095        202209087287-1915-40             CONNECTOR ASS'Y          CCN000014400000000000FY00000000020220901000000000NNMQ0920220709101414    1N0N  00000240000000666500000923132M1    VNYEV   005500360039
BI00B32M1    TCV2091        202208117287-1915-90             CONNECTOR ASS'Y          CCN000004800000000000FY00000000020220901000000000NNMQ0920220709103505    1N0N  00000240000000666500000923132M1    VNYEV   005500360039
BI00B32M1    TCV2092        202208187287-1915-90             CONNECTOR ASS'Y          CCN000004800000000000FY00000000020220901000000000NNMQ0920220709104018    1N0N  00000240000000666500000923132M1    VNYEV   005500360039
BI00B32M1    TCV2093        202208257287-1915-90             CONNECTOR ASS'Y          CCN000004800000000000FY00000000020220901000000000NNMQ0920220709104445    1N0N  00000240000000666500000923132M1    VNYEV   005500360039
BI00B32M1    TCV2094        202209017287-1915-90             CONNECTOR ASS'Y          CCN000004800000000000FY00000000020220901000000000NNMQ0920220709104753    1N0N  00000240000000666500000923132M1    VNYEV   005500360039
BI00B32M1    TCV2095        202209087287-1915-90             CONNECTOR ASS'Y          CCN000004800000000000FY00000000020220901000000000NNMQ0920220709105027    1N0N  00000240000000666500000923132M1    VNYEV   005500360039
BI00B32M1    #TCV2082       202207217287-1915-40             CONNECTOR ASS'Y          CCN000019200000019200FN00000000020220701000019200NNEQ0920220709094634    2N0N  00000240000000666500000923132M1    VNYEV   005500360039
BI00B32M1    #TCV2083       202207277287-1915-40             CONNECTOR ASS'Y          CCN000014400000014400FN00000000020220801000014400NNEQ0920220709094845    2N0N  00000240000000666500000923132M1    VNYEV   005500360039
BI00B32M1    #TCV2084       202208047287-1915-40             CONNECTOR ASS'Y          CCN000014400000014400FN00000000020220801000014400NNEQ0920220709095211    2N0N  00000240000000666500000923132M1    VNYEV   005500360039
BI00B32M1    #TCV2091       202208117287-1915-40             CONNECTOR ASS'Y          CCN000007200000007200FN00000000020220801000007200NNMQ0920220709100055    2N0N  00000240000000666500000923132M1    VNYEV   005500360039
BI00B32M1    #TCV2092       202208187287-1915-40             CONNECTOR ASS'Y          CCN000019200000019200FN00000000020220901000019200NNMQ0920220709100427    2N0N  00000240000000666500000923132M1    VNYEV   005500360039
BI00B32M1    #TCV2093       202208257287-1915-40             CONNECTOR ASS'Y          CCN000016800000016800FN00000000020220901000016800NNMQ0920220709101010    2N0N  00000240000000666500000923132M1    VNYEV   005500360039
BI00B32M1    #TCV2094       202209017287-1915-40             CONNECTOR ASS'Y          CCN000014400000014400FN00000000020220901000014400NNMQ0920220709101326    2N0N  00000240000000666500000923132M1    VNYEV   005500360039
BI00B32M1    #TCV2095       202209087287-1915-40             CONNECTOR ASS'Y          CCN000014400000014400FN00000000020220901000014400NNMQ0920220709101403    2N0N  00000240000000666500000923132M1    VNYEV   005500360039
BI00B32M1    #TCV2083       202207277287-1915-90             CONNECTOR ASS'Y          CCN000002400000002400FN00000000020220801000002400NNEQ0920220709102343    2N0N  00000240000000666500000923132M1    VNYEV   005500360039
BI00B32M1    #TCV2084       202208047287-1915-90             CONNECTOR ASS'Y          CCN000002400000002400FN00000000020220801000002400NNEQ0920220709102857    2N0N  00000240000000666500000923132M1    VNYEV   005500360039
BI00B32M1    #TCV2091       202208117287-1915-90             CONNECTOR ASS'Y          CCN000004800000004800FN00000000020220801000004800NNMQ0920220709103515    2N0N  00000240000000666500000923132M1    VNYEV   005500360039
BI00B32M1    #TCV2092       202208187287-1915-90             CONNECTOR ASS'Y          CCN000004800000004800FN00000000020220901000004800NNMQ0920220709104036    2N0N  00000240000000666500000923132M1    VNYEV   005500360039
BI00B32M1    #TCV2093       202208257287-1915-90             CONNECTOR ASS'Y          CCN000004800000004800FN00000000020220901000004800NNMQ0920220709104458    2N0N  00000240000000666500000923132M1    VNYEV   005500360039
BI00B32M1    #TCV2094       202209017287-1915-90             CONNECTOR ASS'Y          CCN000004800000004800FN00000000020220901000004800NNMQ0920220709104809    2N0N  00000240000000666500000923132M1    VNYEV   005500360039
BI00B32M1    #TCV2095       202209087287-1915-90             CONNECTOR ASS'Y          CCN000004800000004800FN00000000020220901000004800NNMQ0920220709105041    2N0N  00000240000000666500000923132M1    VNYEV   005500360039
BI00B32M4    TP2091         202208047287-1915-40             CONNECTOR ASS'Y          CCN000004800000000000FY00000000020220901000000000NNMQ0920220709095239    1N0N  00000240000000666500000923132M4    SISAI   005500360039
BI00B32M4    TP2092         202208117287-1915-40             CONNECTOR ASS'Y          CCN000002400000000000FY00000000020220901000000000NNMQ0920220709095804    1N0N  00000240000000666500000923132M4    SISAI   005500360039
BI00B32M4    #TP2091        202208047287-1915-40             CONNECTOR ASS'Y          CCN000004800000004800FN00000000020220801000004800NNEQ0920220709095426    2N0N  00000240000000666500000923132M4    SISAI   005500360039
BI00B32M4    #TP2092        202208117287-1915-40             CONNECTOR ASS'Y          CCN000002400000002400FN00000000020220801000002400NNMQ0920220709095909    2N0N  00000240000000666500000923132M4    SISAI   005500360039
BI00B32M8    PM22082 MW     202207187287-1915-40             CONNECTOR ASS'Y          CCN000002400000002400FN00000000020220801000002400NNMD0020220709092858    1N0N  00000240000000666500000923132M8    PMPEMI  005500360039
BI00B32M8    PM22091 MW     202208177287-1915-40             CONNECTOR ASS'Y          CCN000002400000000000FY00000000020220901000000000NNMQ0920220709100221    1N0N  00000240000000666500000923132M8    PMPEMI  005500360039
BI00B32M8    PM22092 MW     202208247287-1915-40             CONNECTOR ASS'Y          CCN000004800000000000FY00000000020220901000000000NNMQ0920220709100755    1N0N  00000240000000666500000923132M8    PMPEMI  005500360039
BI00B32M8    PM22093 MW     202208317287-1915-40             CONNECTOR ASS'Y          CCN000004800000000000FY00000000020220901000000000NNMQ0920220709101144    1N0N  00000240000000666500000923132M8    PMPEMI  005500360039
BI00B32M8    #PM22091 MW    202208177287-1915-40             CONNECTOR ASS'Y          CCN000002400000002400FN00000000020220901000002400NNMQ0920220709100236    2N0N  00000240000000666500000923132M8    PMPEMI  005500360039
BI00B32M8    #PM22092 MW    202208247287-1915-40             CONNECTOR ASS'Y          CCN000004800000004800FN00000000020220901000004800NNMQ0920220709100810    2N0N  00000240000000666500000923132M8    PMPEMI  005500360039
BI00B32M8    #PM22093 MW    202208317287-1915-40             CONNECTOR ASS'Y          CCN000004800000004800FN00000000020220901000004800NNMQ0920220709101156    2N0N  00000240000000666500000923132M8    PMPEMI  005500360039
BI00B32N3    NBT209 A3      202208117287-1915-40             CONNECTOR ASS'Y          CCN000002400000000000FY00000000020220901000000000NNMQ0920220709095652    1N0N  00000240000000666500000923132N3    ABYIPL-B005500360039
BI00B32N3    #NBT209 A3     202208117287-1915-40             CONNECTOR ASS'Y          CCN000002400000002400FN00000000020220901000002400NNMQ0920220709095704    2N0N  00000240000000666500000923132N3    ABYIPL-B005500360039
BI00B32Q8    EU22084TMW     202207187287-1915-40             CONNECTOR ASS'Y          CCN000002400000002400FN00000000020220801000002400NNMD0020220709092812    1N0N  00000240000000666500000923132Q8    EMEMI   005500360039
BI00B32Q8    EU22093TMW     202208177287-1915-40             CONNECTOR ASS'Y          CCN000002400000000000FY00000000020220901000000000NNMQ0920220709100118    1N0N  00000240000000666500000923132Q8    EMEMI   005500360039
BI00B32Q8    EU22094TMW     202208107287-1915-40             CONNECTOR ASS'Y          CCN000002400000000000FY00000000020220901000000000NNMD0020220709100631    1N0N  00000240000000666500000923132Q8    EMEMI   005500360039
BI00B32Q8    #EU22093TMW    202208177287-1915-40             CONNECTOR ASS'Y          CCN000002400000002400FN00000000020220901000002400NNMQ0920220709100132    2N0N  00000240000000666500000923132Q8    EMEMI   005500360039
BI00B32Q8    #EU22094TMW    202208107287-1915-40             CONNECTOR ASS'Y          CCN000002400000002400FN00000000020220901000002400NNMQ0920220709100700    2N0N  00000240000000666500000923132Q8    EMEMI   005500360039
BI00B32U5    DI2034         202207297287-1915-40             CONNECTOR ASS'Y          CCN000004800000000000FY00000000020221001000000000NNMQ0920220709095011U5  1N0N  00000240000000666500000923132U5    AMAMSD  005500360039
BI00B32U5    DI2036         202208057287-1915-40             CONNECTOR ASS'Y          CCN000004800000000000FY00000000020221001000000000NNMQ0920220709095541U5  1N0N  00000240000000666500000923132U5    AMAMSD  005500360039
BI00B32U5    DI2037         202208197287-1915-40             CONNECTOR ASS'Y          CCN000004800000000000FY00000000020221001000000000NNMQ0920220709100456U5  1N0N  00000240000000666500000923132U5    AMAMSD  005500360039
BI00B32U5    DI2038         202208267287-1915-40             CONNECTOR ASS'Y          CCN000004800000000000FY00000000020221101000000000NNMQ0920220709101053U5  1N0N  00000240000000666500000923132U5    AMAMSD  005500360039
BI00B32U5    #DI2034        202207297287-1915-40             CONNECTOR ASS'Y          CCN000004800000004800FN00000000020221001000004800NNMQ0920220709095025U5  2N0N  00000240000000666500000923132U5    AMAMSD  005500360039
BI00B32U5    #DI2036        202208057287-1915-40             CONNECTOR ASS'Y          CCN000004800000004800FN00000000020221001000004800NNMQ0920220709095554U5  2N0N  00000240000000666500000923132U5    AMAMSD  005500360039
BI00B32U5    #DI2037        202208197287-1915-40             CONNECTOR ASS'Y          CCN000004800000004800FN00000000020221001000004800NNMQ0920220709100516U5  2N0N  00000240000000666500000923132U5    AMAMSD  005500360039
BI00B32U5    #DI2038        202208267287-1915-40             CONNECTOR ASS'Y          CCN000004800000004800FN00000000020221101000004800NNMQ0920220709101108U5  2N0N  00000240000000666500000923132U5    AMAMSD  005500360039
BI00B32U5    TEST-SPL       202207117116-4037                TERMINAL                 CCN000006000000006000FN00000000020220701000006000NNE   20220709125146    4P0P  00000600000000600000000894232U5    AMAMSD  006400630015
BI00B32U5    TEST-SPL       202207117289-3342                HOUSING FEMALE ASS'Y     CCN000002400000002400FN00000000020220701000002400NNE   20220709125146    1N0N  00000240000000686400000901432U5    AMAMSD  005500360039
BI00B32U5    TEST-SPL       202207117C89-6868-30             SEALED ASSY FEMALE       CCN000002520000002520FN00000000020220701000002520NNE   20220709125146    4N0N  00000252000000839200001119232U5    AMAMSD  005500360039
BI00B32U5    #TEST-SPL      202207117157-3821                RUBBER STOPPER           CCN000020000000020000FN00000000020220701000020000NNE   20220709125144    2C0C  00002000000000176000000238032U5    AMAMSD  002700430014
BI00B32Y6    STAP32111      202208047287-1915-90             CONNECTOR ASS'Y          CCN000007200000000000FY00000000020221101000000000NNMQ0920220709103026    1N0N  00000240000000666500000923132Y6    BSYBL-S 005500360039
BI00B32Y6    #STAP32111     202208047287-1915-90             CONNECTOR ASS'Y          CCN000007200000007200FN00000000020221101000007200NNMQ0920220709103038    2N0N  00000240000000666500000923132Y6    BSYBL-S 005500360039
