AE00TI102208290429/08/202200000000100000000000000000653KGM  00000000835KGM  7047-1664                CLIP                     70471664                 0         0         0         0    0    0    00000600000000600000000187000011220000
AE00TI102208290429/08/202200000000100000000000000000828KGM  00000000986KGM  7124-1026-30             PROTECTOR                7124102630               0         0         0         0    0    0    00000300000000300000000126000003780000
AE00TI102208290429/08/202200000000600000000000000003252KGM  00000004328KGM  7147-3642-30             CLIP                     7147364230               0         0         0         0    0    0    00001800000000300000000074000013320000
AE00TI102208290429/08/202200000000200000000000000001654KGM  00000002204KGM  7154-5712-30             CASSETTE R/B             7154571230               0         0         0         0    0    0    00000160000000080000000288000004608000
AE00TI102208290429/08/202200000000800000000000000006097KGM  00000007842KGM  7171-6292                HOUSING                  71716292                 0         0         0         0    0    0    00000144000000018000001240000017856000
AE00TI102208290429/08/202200000002800000000000000022781KGM  00000025833KGM  7174-1760-50             CAP                      7174176050               0         0         0         0    0    0    00008400000000300000000100000084000000
AE00TI102208290429/08/202200000000400000000000000005128KGM  00000005908KGM  7182-4941                DOUBLE SIDED             71824941                 0         0         0         0    0    0    00000400000000100000000816000032640000
AE00TI102208290429/08/202200000000100000000000000001368KGM  00000001585KGM  7183-0521                HOUSING                  71830521                 0         0         0         0    0    0    00000480000000480000000082000003936000
AE00TI102208290429/08/202200000000100000000000000000951KGM  00000001230KGM  7183-0522                HOUSING                  71830522                 0         0         0         0    0    0    00000240000000240000000113000002712000
AE00TI102208290429/08/202200000000100000000000000000959KGM  00000001191KGM  7183-0522-30             HOUSING                  7183052230               0         0         0         0    0    0    00000240000000240000000121000002904000
AE00TI102208290429/08/202200000000300000000000000001433KGM  00000002279KGM  7183-2413-30             CONNECTOR HOUSING        7183241330               0         0         0         0    0    0    00001440000000480000000076000010944000
AE00TI102208290429/08/202200000000200000000000000001558KGM  00000002122KGM  7183-2414                CONNECTOR HOUSING        71832414                 0         0         0         0    0    0    00000960000000480000000050000004800000
AE00TI102208290429/08/202200000000100000000000000000780KGM  00000001062KGM  7183-2414-30             CONNECTOR HOUSING        7183241430               0         0         0         0    0    0    00000480000000480000000054000002592000
AE00TI102208290429/08/202200000000100000000000000000917KGM  00000001477KGM  7183-2418                CONNECTOR HOUSING        71832418                 0         0         0         0    0    0    00000480000000480000000078000003744000
AE00TI102208290429/08/202200000000300000000000000001893KGM  00000002328KGM  7188-9510-30             HLC HOUSING MALE         7188951030               0         0         0         0    0    0    00000600000000200000000238000014280000
AE00TI102208290429/08/202200000000400000000000000003086KGM  00000003666KGM  7188-9513                HLC HOUSING MALE         71889513                 0         0         0         0    0    0    00000800000000200000000261000020880000
AE00TI102208290429/08/202200000000100000000000000000754KGM  00000000861KGM  7189-9521                HOUSING                  71899521                 0         0         0         0    0    0    00000200000000200000000276000005520000
AE00TI102208290429/08/202200000000800000000000000006026KGM  00000006882KGM  7189-9522-90             HOUSING                  7189952290               0         0         0         0    0    0    00001600000000200000000303000048480000
AE00TI102208290429/08/202200000004000000000000000009504KGM  00000019504KGM  7271-1818-30             CASE SUB ASSY,ECU        7271181830               0         0         0         0    0    0    00000072000000001800009388000067593600
AE00TI102208290429/08/202200000001600000000000000000000KGM  00000000000KGM  7273-2981-0WD            CASSETTE BRACKET         727329810WD              0         0         0         0    0    0    00000160000000010000000000000000000000
AE00TI102208290429/08/202200000002300000000000000000000KGM  00000000000KGM  7273-2981-0WE            CASSETTE BRACKET         727329810WE              0         0         0         0    0    0    00000184000000008000000000000000000000
AE00TI102208290429/08/202200000004200000000000000000000KGM  00000000000KGM  7273-2982-0WD            CASSETTE BRACKET         727329820WD              0         0         0         0    0    0    00000420000000010000000000000000000000
AE00TI102208290429/08/202200000001500000000000000000000KGM  00000000000KGM  7273-2982-0WE            CASSETTE BRACKET         727329820WE              0         0         0         0    0    0    00000225000000015000000000000000000000
AE00TI102208290429/08/202200000002400000000000000000000KGM  00000000000KGM  7273-2983-0WD            CASSETTE BRACKET         727329830WD              0         0         0         0    0    0    00000240000000010000000000000000000000
AE00TI102208290429/08/202200000000100000000000000000795KGM  00000001012KGM  7282-1065                CONNECTOR                72821065                 0         0         0         0    0    0    00000150000000150000000415000006225000
AE00TI102208290429/08/202200000000100000000000000000730KGM  00000000903KGM  7283-1015-10             CONNECTOR                7283101510               0         0         0         0    0    0    00000200000000200000000624000012480000
AE00TI102208290429/08/202200000000100000000000000000669KGM  00000000933KGM  7283-1140                CONNECTOR HOUSING        72831140                 0         0         0         0    0    0    00000150000000150000000259000003885000
AE00TI102208290429/08/202200000000200000000000000001755KGM  00000002156KGM  7283-1156                CONNECTOR                72831156                 0         0         0         0    0    0    00000160000000080000000810000012960000
AE00TI102208290429/08/202200000000100000000000000001160KGM  00000001341KGM  7283-1485                CONNECTOR                72831485                 0         0         0         0    0    0    00000200000000200000000366000007320000
AE00TI102208290429/08/202200000000200000000000000002120KGM  00000002362KGM  7283-7029                CONNECTOR                72837029                 0         0         0         0    0    0    00001200000000600000000227000027240000
AE00TI102208290429/08/202200000000800000000000000007918KGM  00000009989KGM  7283-7526-30             CONNECTOR HOUSING        7283752630               0         0         0         0    0    0    00001568000000196000000506000079340800
AE00TI102208290429/08/202200000000100000000000000000990KGM  00000001249KGM  7283-7526-40             CONNECTOR HOUSING        7283752640               0         0         0         0    0    0    00000196000000196000000504000009878400
AE00TI102208290429/08/202200000001200000000000000010244KGM  00000012542KGM  7287-9155                HOUSING FEMALE ASS'Y     72879155                 0         0         0         0    0    0    00001152000000096000000357000041126400
AE00TI102208290429/08/202200000000500000000000000002688KGM  00000003450KGM  7287-9323                UNSEALED HOUSING SUB     72879323                 0         0         0         0    0    0    00001200000000240000000146000017520000
AE00TI102208290429/08/202200000000600000000000000003226KGM  00000004140KGM  7287-9323-40             UNSEALED HOUSING SUB     7287932340               0         0         0         0    0    0    00001440000000240000000155000022320000
AE00TI102208290429/08/202200000000600000000000000005202KGM  00000006072KGM  7288-3335-30             HOUSING MALE             7288333530               0         0         0         0    0    0    00000900000000150000000354000031860000
AE00TI102208290429/08/202200000000300000000000000002601KGM  00000003036KGM  7288-3339-30             HOUSING MALE             7288333930               0         0         0         0    0    0    00000450000000150000000354000015930000
AE00TI102208290429/08/202200000001100000000000000009077KGM  00000011387KGM  7288-5000                HOUSING MALE ASS'Y       72885000                 0         0         0         0    0    0    00000369600000033600000895000033079200
AE00TI102208290429/08/202200000000200000000000000002004KGM  00000002469KGM  7289-0269                HOUSING SUB ASSEMBLY     72890269                 0         0         0         0    0    0    00000320000000160000000227000007264000
AE00TI102208290429/08/202200000000800000000000000005491KGM  00000007211KGM  7289-3342                HOUSING FEMALE ASS'Y     72893342                 0         0         0         0    0    0    00001920000000240000000186000035712000
AE00TI102208290429/08/202200000011700000000000000080309KGM  00000105464KGM  7289-3342-30             HOUSING FEMALE ASS'Y     7289334230               0         0         0         0    0    0    00028080000000240000000191000536328000
AE00TI102208290429/08/202200000000200000000000000000000KGM  00000000000KGM  7289-3342-30M            HOUSING FEMALE ASS'Y     7289334230M              0         0         0         0    0    0    00000204000000102000000188000003835200
AE00TI102208290429/08/202200000000100000000000000001172KGM  00000001369KGM  7289-5011-30             HOUSING FEMALE ASS'Y     7289501130               0         0         0         0    0    0    00000240000000240000000333000007992000
AE00TI102208290429/08/202200000000200000000000000002195KGM  00000002717KGM  7298-4094-10             HOUSING FEMALE ASS'Y     7298409410               0         0         0         0    0    0    00000676000000338000000241000016291600
