AE00TI102208290229/08/202200000004000000000000000009504KGM  00000019504KGM  7271-1818-30             CASE SUB ASSY,ECU        7271181830               0         0         0         0    0    0    00000072000000001800009388000067593600
AE00TI102208290229/08/202200000001000000000000000006864KGM  00000009014KGM  7289-3342-30             HOUSING FEMALE ASS'Y     7289334230               0         0         0         0    0    0    00002400000000240000000191000045840000
AE00TI102208290229/08/202200000000700000000000000008202KGM  00000009580KGM  7289-5011-30             HOUSING FEMALE ASS'Y     7289501130               0         0         0         0    0    0    00001680000000240000000333000055944000
AE00TI102208290229/08/202200000001800000000000000023760KGM  00000028260KGM  7470-3082                J/B COMPLETE ASS'Y       74703082                 0         0         0         0    0    0    00000043200000002400031298000135207360
AE00TI102208290229/08/202200000001000000000000000000000KGM  00000000000KGM  7470-5782D               J/B COMPLETE ASS'Y       74705782D                0         0         0         0    0    0    00000015000000001500000000000000000000
AE00TI102208290229/08/202200000000500000000000000000000KGM  00000000000KGM  7470-5783D               J/B COMPLETE ASS'Y       74705783D                0         0         0         0    0    0    00000007500000001500000000000000000000
AE00TI102208290229/08/202200000002500000000000000000000KGM  00000000000KGM  7470-5784D               J/B COMPLETE ASS'Y       74705784D                0         0         0         0    0    0    00000037500000001500000000000000000000
AE00TI102208290229/08/202200000007200000000000000000000KGM  00000000000KGM  7470-5784E               J/B COMPLETE ASS'Y       74705784E                0         0         0         0    0    0    00000072000000001000000000000000000000
AE00TI102208290229/08/202200000002000000000000000000000KGM  00000000000KGM  7470-5823D               J/B COMPLETE ASS'Y       74705823D                0         0         0         0    0    0    00000030000000001500000000000000000000
AE00TI102208290229/08/202200000001700000000000000000000KGM  00000000000KGM  7470-5823E               J/B COMPLETE ASS'Y       74705823E                0         0         0         0    0    0    00000017000000001000000000000000000000
