AE00TI102208290729/08/202200000001600000000000000011981KGM  00000017238KGM  7114-4100-02             TERMINAL                 7114410002               0         0         0         0    0    0    00028800000001800000000034000097920000
AE00TI102208290729/08/202200000001300000000000000007781KGM  00000012052KGM  7114-4112-02             TERMINAL                 7114411202               0         0         0         0    0    0    00011700000000900000000051000059670000
AE00TI102208290729/08/202200000000600000000000000003558KGM  00000005287KGM  7116-4115-02             TERMINAL                 7116411502               0         0         0         0    0    0    00005040000000840000000066000033264000
AE00TI102208290729/08/202200000001100000000000000003637KGM  00000004246KGM  7158-3006-90             RUBBER STOPPER           7158300690               0         0         0         0    0    0    00022000000002000000000016000035200000
AE00TI102208290729/08/202200000000900000000000000003042KGM  00000003476KGM  7158-3009-60             RUBBER STOPPER           7158300960               0         0         0         0    0    0    00018000000002000000000012000021600000
AE00TI102208290729/08/202200000000200000000000000000552KGM  00000000667KGM  7158-3070-80             RUBBER STOPPER           7158307080               0         0         0         0    0    0    00008000000004000000000008000006400000
AE00TI102208290729/08/202200000000400000000000000000416KGM  00000000610KGM  7158-3166-60             WIRE SEAL                7158316660               0         0         0         0    0    0    00016000000004000000000004000006400000
AE00TI102208290729/08/202200000001500000000000000000720KGM  00000001635KGM  7158-3167-80             WIRE SEAL                7158316780               0         0         0         0    0    0    00030000000002000000000005000015000000
AE00TI102208290729/08/202200000002300000000000000001012KGM  00000002118KGM  7158-3168-80             SEALED                   7158316880               0         0         0         0    0    0    00046000000002000000000004000018400000
AE00TI102208290729/08/202200000000200000000000000000000KGM  00000000000KGM  7158-6423                7158-6423                71586423                 0         0         0         0    0    0    00001200000001200000000000000000000000
AE00TI102208290729/08/202200000000800000000000000006942KGM  00000008542KGM  7173-3291-40             LIF LEVER                7173329140               0         0         0         0    0    0    00001920000000240000000142000027264000
AE00TI102208290729/08/202200000000500000000000000003113KGM  00000003810KGM  7174-1849-70             COVER                    7174184970               0         0         0         0    0    0    00012500000002500000000046000057500000
AE00TI102208290729/08/202200000000200000000000000000000KGM  00000000000KGM  7183-4577                7183-4577                71834577                 0         0         0         0    0    0    00001200000001200000000000000000000000
AE00TI102208290729/08/202200000001000000000000000004446KGM  00000007298KGM  7196-1460-02             TERMINAL FEMALE          7196146002               0         0         0         0    0    0    00028500000002850000000014000039900000
AE00TI102208290729/08/202200000000900000000000000006912KGM  00000008802KGM  7286-4097                CONNECTOR MALE ASS'Y     72864097                 0         0         0         0    0    0    00001440000000160000000196000028224000
AE00TI102208290729/08/202200000000300000000000000003665KGM  00000004325KGM  7287-8072                HOUSING FEMALE ASS'Y     72878072                 0         0         0         0    0    0    00000720000000240000000247000017784000
AE00TI102208290729/08/202200000000700000000000000004805KGM  00000006310KGM  7289-3342-40             HOUSING FEMALE ASS'Y     7289334240               0         0         0         0    0    0    00001680000000240000000192000032256000
AE00TI102208290729/08/202200000000800000000000000005491KGM  00000007211KGM  7289-3342-90             HOUSING FEMALE ASS'Y     7289334290               0         0         0         0    0    0    00001920000000240000000196000037632000
AE00TI102208290729/08/202200000000100000000000000000702KGM  00000000827KGM  7297-1861-30             HOUSING MALE ASS'Y       7297186130               0         0         0         0    0    0    00000150000000150000000203000003045000
AE00TI102208290729/08/202200000000400000000000000004013KGM  00000004818KGM  7298-1865-30             HOUSING FEMALE ASS'Y     7298186530               0         0         0         0    0    0    00000960000000240000000196000018816000
AE00TI102208290729/08/202200000005300000000000000039326KGM  00000059466KGM  7388-2978-30             HOUSING MALE ASS'Y       7388297830               0         0         0         0    0    0    00002544000000048000001790000455376000
AE00TI102208290729/08/202200000000400000000000000005280KGM  00000006280KGM  7470-3082                J/B COMPLETE ASS'Y       74703082                 0         0         0         0    0    0    00000009600000002400031298000030046080
AE00TI102208290729/08/202200000001100000000000000014520KGM  00000017270KGM  7470-5237                J/B ASS'Y                74705237                 0         0         0         0    0    0    00000026400000002400031359000082787760
AE00TI102208290729/08/202200000001500000000000000000000KGM  00000000000KGM  7470-5307E               J/B COMPLETE ASS'Y       74705307E                0         0         0         0    0    0    00000015000000001000000000000000000000
AE00TI102208290729/08/202200000001100000000000000000000KGM  00000000000KGM  7470-5783E               J/B COMPLETE ASS'Y       74705783E                0         0         0         0    0    0    00000011000000001000000000000000000000
AE00TI102208290729/08/202200000001200000000000000000000KGM  00000000000KGM  7470-5858D               J/B COMPLETE ASS'Y       74705858D                0         0         0         0    0    0    00000012000000001000000000000000000000
