AE00TO202208290129/08/202200000000100000000000000001111KGM  00000001160KGM  18007704135              AVSS 125F B/R            AVSS 125F B/R            0         0         0         0    0    0    00000000000008000000000035000000280000
AE00TO202208290129/08/202200000000100000000000000001111KGM  00000001160KGM  18007704140              AVSS 125F W              AVSS 125F W              0         0         0         0    0    0    00000000000008000000000035000000280000
AE00TO202208290129/08/202200000000200000000000000002222KGM  00000002320KGM  18007704150              AVSS 125F R              AVSS 125F R              0         0         0         0    0    0    00000000000016000000000035000000560000
AE00TO202208290129/08/202200000000100000000000000001111KGM  00000001160KGM  18007704160              AVSS 125F G              AVSS 125F G              0         0         0         0    0    0    00000000000008000000000035000000280000
AE00TO202208290129/08/202200000000100000000000000001168KGM  00000001217KGM  18009604030              AVS 085 B                AVS 085 B                0         0         0         0    0    0    00000000000010000000000024300000243000
AE00TO202208290129/08/202200000003800000000000000035796KGM  00000037654KGM  18018403730              CAVS 03 B                CAVS 03 B                0         0         0         0    0    0    00000000000760000000000010400007904000
AE00TO202208290129/08/202200000000200000000000000001884KGM  00000001982KGM  18018403733              CAVS 03 V/W              CAVS 03 V/W              0         0         0         0    0    0    00000000000040000000000010400000416000
AE00TO202208290129/08/202200000002500000000000000023550KGM  00000024772KGM  18018403740              CAVS 03 W                CAVS 03 W                0         0         0         0    0    0    00000000000500000000000010400005200000
AE00TO202208290129/08/202200000000900000000000000008478KGM  00000008918KGM  18018403749              CAVS 03 W/L              CAVS 03 W/L              0         0         0         0    0    0    00000000000180000000000010400001872000
AE00TO202208290129/08/202200000001800000000000000016956KGM  00000017836KGM  18018403792              CAVS 03 V                CAVS 03 V                0         0         0         0    0    0    00000000000360000000000010400003744000
AE00TO202208290129/08/202200000004500000000000000043425KGM  00000045625KGM  18018404050              CAVS 085 R               CAVS 085 R               0         0         0         0    0    0    00000000000450000000000022900010305000
AE00TO202208290129/08/202200000000200000000000000001930KGM  00000002028KGM  18018404060              CAVS 085 G               CAVS 085 G               0         0         0         0    0    0    00000000000020000000000022900000458000
AE00TO202208290129/08/202200000004100000000000000050348KGM  00000052352KGM  1801R704140              CIVUS 125 W              CIVUS 125 W              0         0         0         0    0    0    00000000000410000000000031800013038000
AE00TO202208290129/08/202200000000400000000000000004912KGM  00000005108KGM  1801R704141              CIVUS 125 GY             CIVUS 125 GY             0         0         0         0    0    0    00000000000040000000000031800001272000
AE00TO202208290129/08/202200000000200000000000000002456KGM  00000002554KGM  1801R704143              CIVUS 125 W/B            CIVUS 125 W/B            0         0         0         0    0    0    00000000000020000000000031800000636000
AE00TO202208290129/08/202200000000900000000000000011052KGM  00000011492KGM  1801R704152              CIVUS 125 P              CIVUS 125 P              0         0         0         0    0    0    00000000000090000000000031800002862000
AE00TO202208290129/08/202200000000100000000000000001125KGM  00000001174KGM  1801W003940              IVSSH 05F W              IVSSH 05F W              0         0         0         0    0    0    00000000000018000000000015600000280800
AE00TO202208290129/08/202200000001800000000000000020250KGM  00000021130KGM  1801W003941              IVSSH 05F GY             IVSSH 05F GY             0         0         0         0    0    0    00000000000324000000000015600005054400
AE00TO202208290129/08/202200000000100000000000000001125KGM  00000001174KGM  1801W003943              IVSSH 05F W/B            IVSSH 05F W/B            0         0         0         0    0    0    00000000000018000000000015600000280800
AE00TO202208290129/08/202200000006500000000000000073125KGM  00000076303KGM  1801W003950              IVSSH 05F R              IVSSH 05F R              0         0         0         0    0    0    00000000001170000000000015600018252000
AE00TO202208290129/08/202200000000800000000000000009000KGM  00000009391KGM  1801W00395U              IVSSH 05F BE             IVSSH 05F BE             0         0         0         0    0    0    00000000000144000000000015600002246400
AE00TO202208290129/08/202200000006300000000000000070875KGM  00000073955KGM  1801W003960              IVSSH 05F G              IVSSH 05F G              0         0         0         0    0    0    00000000001134000000000015600017690400
AE00TO202208290129/08/202200000010900000000000000123170KGM  00000128499KGM  1801W006941              IVSSH 035F GY            IVSSH 035F GY            0         0         0         0    0    0    00000000002725000000000011500031337500
AE00TO202208290129/08/202200000000100000000000000001130KGM  00000001179KGM  1801W006950              IVSSH 035F R             IVSSH 035F R             0         0         0         0    0    0    00000000000025000000000011500000287500
AE00TO202208290129/08/202200000004600000000000000051980KGM  00000054229KGM  1801W006952              IVSSH 035F P             IVSSH 035F P             0         0         0         0    0    0    00000000001150000000000011500013225000
AE00TO202208290129/08/202200000002500000000000000028250KGM  00000029473KGM  1801W00695U              IVSSH 035F BE            IVSSH 035F BE            0         0         0         0    0    0    00000000000625000000000011500007187500
AE00TO202208290129/08/202200000000100000000000000001034KGM  00000001082KGM  180D0203907              AVSSH 05F P/B            AVSSH 05F P/B            0         0         0         0    0    0    00000000000015000000000016500000247500
AE00TO202208290129/08/202200000000900000000000000009302KGM  00000009742KGM  180D0203930              AVSSH 05F B              AVSSH 05F B              0         0         0         0    0    0    00000000000135000000000016500002227500
AE00TO202208290129/08/202200000000200000000000000002067KGM  00000002165KGM  180D0203937              AVSSH 05F B/Y            AVSSH 05F B/Y            0         0         0         0    0    0    00000000000030000000000016500000495000
AE00TO202208290129/08/202200000000100000000000000001034KGM  00000001082KGM  180D0203940              AVSSH 05F W              AVSSH 05F W              0         0         0         0    0    0    00000000000015000000000016500000247500
AE00TO202208290129/08/202200000000100000000000000001034KGM  00000001082KGM  180D0203941              AVSSH 05F GY             AVSSH 05F GY             0         0         0         0    0    0    00000000000015000000000016500000247500
AE00TO202208290129/08/202200000000200000000000000002068KGM  00000002164KGM  180D0203943              AVSSH 05F W/B            AVSSH 05F W/B            0         0         0         0    0    0    00000000000030000000000016500000495000
AE00TO202208290129/08/202200000001000000000000000010335KGM  00000010824KGM  180D0203952              AVSSH 05F P              AVSSH 05F P              0         0         0         0    0    0    00000000000150000000000016500002475000
AE00TO202208290129/08/202200000001400000000000000014469KGM  00000015153KGM  180D0203980              AVSSH 05F BR             AVSSH 05F BR             0         0         0         0    0    0    00000000000210000000000016500003465000
AE00TO202208290129/08/202200000001000000000000000010335KGM  00000010824KGM  180D0203992              AVSSH 05F V              AVSSH 05F V              0         0         0         0    0    0    00000000000150000000000016500002475000
AE00TO202208290129/08/202200000000100000000000000001166KGM  00000001215KGM  180D0204150              AVSSH 125F R             AVSSH 125F R             0         0         0         0    0    0    00000000000008000000000036000000288000
AE00TO202208290129/08/202200000000100000000000000001166KGM  00000001215KGM  180D0204160              AVSSH 125F G             AVSSH 125F G             0         0         0         0    0    0    00000000000008000000000036000000288000
AE00TO202208290129/08/202200000000100000000000000001166KGM  00000001215KGM  180D0204190              AVSSH 125F L             AVSSH 125F L             0         0         0         0    0    0    00000000000008000000000036000000288000
AE00TO202208290129/08/202200000013500000000000000102631KGM  00000109232KGM  181AD2003ZZ              CIVUSAS-S 035X3 B        CIVUSAS-S 035X3 B        0         0         0         0    0    0    00000000000472500000000055700026318250
AE00TO202208290129/08/202200000011800000000000000099117KGM  00000104886KGM  181AD2004ZZ              CIVUSAS-S 035X4 B        CIVUSAS-S 035X4 B        0         0         0         0    0    0    00000000000354000000000067100023753400
AE00TO202208290129/08/202200000000100000000000000000747KGM  00000000795KGM  181B09116K3              CAVSAS 03X2 GY/P         CAVSAS 03X2 GY/P         0         0         0         0    0    0    00000000000003500000000047700000166950
AE00TO202208290129/08/202200000000500000000000000004355KGM  00000004599KGM  181B32102S1              AVSSCS 05FX2 DGY         AVSSCS 05FX2 DGY         0         0         0         0    0    0    00000000000015000000000076200001143000
AE00TO202208290129/08/202200000000300000000000000002613KGM  00000002760KGM  181B32102Y5              AVSSCS 05FX2 DGY/W       AVSSCS 05FX2 DGY/W       0         0         0         0    0    0    00000000000009000000000076200000685800
AE00TO202208290129/08/202200000000200000000000000001742KGM  00000001840KGM  181B32102Y6              AVSSCS 05FX2 DGY/G       AVSSCS 05FX2 DGY/G       0         0         0         0    0    0    00000000000006000000000076200000457200
AE00TO202208290129/08/202200000000100000000000000000871KGM  00000000920KGM  181B32102Z8              AVSSCS 05FX2 DGY/O       AVSSCS 05FX2 DGY/O       0         0         0         0    0    0    00000000000003000000000076200000228600
AE00TO202208290129/08/202200000002900000000000000020446KGM  00000021865KGM  181CQ7003ZZ              IVSSHCS-S 05FX2 B(B,W)   IVSSHCS-S 05FX2 B(B,W)   0         0         0         0    0    0    00000000000087000000000073000006351000
AE00TO202208290129/08/202200000000300000000000000002614KGM  00000002761KGM  181D69004ZZ              AVSSHCS 125FX2 B         AVSSHCS 125FX2 B         0         0         0         0    0    0    00000000000006000000000130800000784800
AE00TO202208290129/08/202200000004500000000000000032198KGM  00000034397KGM  181D6910239              AVSSHCS 05FX2 B/L        AVSSHCS 05FX2 B/L        0         0         0         0    0    0    00000000000135000000000080200010827000
AE00TO202208290129/08/202200000000200000000000000001537KGM  00000001634KGM  181E48027ZZ              CAVSAS-S 05X2 GY/P       CAVSAS-S 05X2 GY/P       0         0         0         0    0    0    00000000000006000000000056900000341400
AE00TO202208290129/08/202200000001000000000000000007683KGM  00000008172KGM  181E48060ZZ              CAVSAS-S 05X2 GY/V       CAVSAS-S 05X2 GY/V       0         0         0         0    0    0    00000000000030000000000056900001707000
AE00TO202208290129/08/202200000000100000000000000000758KGM  00000000807KGM  181E50002ZZ              AVSSCS-S 03FX2 DGY/G     AVSSCS-S 03FX2 DGY/G     0         0         0         0    0    0    00000000000003500000000059700000208950
AE00TO202208290129/08/202200000000100000000000000000758KGM  00000000807KGM  181E50003ZZ              AVSSCS-S 03FX2 DGY/BR    AVSSCS-S 03FX2 DGY/BR    0         0         0         0    0    0    00000000000003500000000059700000208950
AE00TO202208290129/08/202200000000400000000000000003715KGM  00000003911KGM  181E50010ZZ              AVSSCS-S 05FX2 DGY/P     AVSSCS-S 05FX2 DGY/P     0         0         0         0    0    0    00000000000012000000000071000000852000
AE00TO202208290129/08/202200000003600000000000000033437KGM  00000035197KGM  181E50011ZZ              AVSSCS-S 05FX2 DGY/Y     AVSSCS-S 05FX2 DGY/Y     0         0         0         0    0    0    00000000000108000000000071000007668000
AE00TO202208290129/08/202200000000100000000000000000763KGM  00000000812KGM  181F21003ZZ              AVSSHCS-S 05FX1 B/W      AVSSHCS-S 05FX1 B/W      0         0         0         0    0    0    00000000000004000000000054000000216000
AE00TO202208290129/08/202200000000200000000000000001527KGM  00000001624KGM  181F21006ZZ              AVSSHCS-S 05FX1 B/Y      AVSSHCS-S 05FX1 B/Y      0         0         0         0    0    0    00000000000008000000000054000000432000
