BI00B1200    7504T52901     202209087116-4120-02             TERMINAL                 CCN000090000000090000FN00000000020221001000090000NNM   20220829121837    4P0P  0000060000000078000000107361200    YCYC    006400630015
BI00B1200    7504T52902     202209157116-4120-02             TERMINAL                 CCN000090000000090000FN00000000020221001000090000NNM   20220829121837    4P0P  0000060000000078000000107361200    YCYC    006400630015
BI00B1200    7504T52903     202209227116-4120-02             TERMINAL                 CCN000090000000090000FN00000000020221001000090000NNM   20220829121837    4P0P  0000060000000078000000107361200    YCYC    006400630015
BI00B1200    7504T52904     202209297116-4120-02             TERMINAL                 CCN000090000000090000FN00000000020221001000090000NNM   20220829121837    4P0P  0000060000000078000000107361200    YCYC    006400630015
BI00B1200    7504T52905     202210067116-4120-02             TERMINAL                 CCN000090000000090000FN00000000020221001000090000NNM   20220829121837    4P0P  0000060000000078000000107361200    YCYC    006400630015
BI00B1200    7504T52901     202209087116-4121-02             TERMINAL                 CCN000090000000090000FN00000000020221001000090000NNM   20220829121837    4P0P  0000045000000061880000091241200    YCYC    006400630015
BI00B1200    7504T52902     202209157116-4121-02             TERMINAL                 CCN000090000000090000FN00000000020221001000090000NNM   20220829121837    4P0P  0000045000000061880000091241200    YCYC    006400630015
BI00B1200    7504T52903     202209227116-4121-02             TERMINAL                 CCN000090000000090000FN00000000020221001000090000NNM   20220829121837    4P0P  0000045000000061880000091241200    YCYC    006400630015
BI00B1200    7504T52904     202209297116-4121-02             TERMINAL                 CCN000090000000090000FN00000000020221001000090000NNM   20220829121837    4P0P  0000045000000061880000091241200    YCYC    006400630015
BI00B1200    7504T52905     202210067116-4121-02             TERMINAL                 CCN000090000000090000FN00000000020221001000090000NNM   20220829121837    4P0P  0000045000000061880000091241200    YCYC    006400630015
BI00B1200    7504T52901     202209087116-4122-02             TERMINAL                 CCN000090000000090000FN00000000020221001000090000NNM   20220829121837    4P0P  0000045000000065660000095021200    YCYC    006400630015
BI00B1200    7504T52902     202209157116-4122-02             TERMINAL                 CCN000090000000090000FN00000000020221001000090000NNM   20220829121837    4P0P  0000045000000065660000095021200    YCYC    006400630015
BI00B1200    7504T52903     202209227116-4122-02             TERMINAL                 CCN000090000000090000FN00000000020221001000090000NNM   20220829121837    4P0P  0000045000000065660000095021200    YCYC    006400630015
BI00B1200    7504T52904     202209297116-4122-02             TERMINAL                 CCN000090000000090000FN00000000020221001000090000NNM   20220829121837    4P0P  0000045000000065660000095021200    YCYC    006400630015
BI00B1200    7504T52905     202210067116-4122-02             TERMINAL                 CCN000090000000090000FN00000000020221001000090000NNM   20220829121837    4P0P  0000045000000065660000095021200    YCYC    006400630015
BI00B1200    Y022L50022     202211037196-0648-02             TERMINAL                 CCN000015000000015000FN00000000020221201000015000NNM   20220829121837    4P0P  0000150000000035550000068971200    YCYC    006400630015
BI00T32CJ    @JQN2111-I     202211107183-2510                HOUSING                  CCN000018000000018000FN00000000020221101000018000NNM   20220829121837    3F0F  00000300000001063500001159032CJ    QNYHVQN 005400370024
BI00T32CJ    @JQN2111-I     202211107183-3190                JOINT CONNECTOR          CCN000201600000201600FN00000000020221101000201600NNM   20220829121837    3F0F  00000360000000457600000667832CJ    QNYHVQN 005500360039
BI00T32CJ    @JQN2111-I     202211107183-7770-40             HOUSING                  CCN000090000000090000FN00000000020221101000090000NNM   20220829121837    3F0F  00000600000001011000001161032CJ    QNYHVQN 005400370024
BI00T32CJ    @JQN2111-I     202211107283-1223-30             HOUSING SUB ASSEMBLY     CCN000052800000052800FN00000000020221101000052800NNM   20220829121837    3N0N  00000480000000749300000998032CJ    QNYHVQN 005500360039
BI00T32CJ    @JQN2111-I     202211107283-5972                CONNECTOR FEMALE         CCN000009600000009600FN00000000020221101000009600NNM   20220829121837    3N0N  00000480000000550100000763032CJ    QNYHVQN 005500360039
BI00T32CJ    @JQN2111-I     202211107283-5976                CONNECTOR ASS'Y          CCN000028800000028800FN00000000020221101000028800NNM   20220829121837    3N0N  00000480000000840000001083632CJ    QNYHVQN 005500360039
BI00T32CJ    @JQN2111-I     202211107283-8179                CONNECTOR HOUSING        CCN000012000000012000FN00000000020221101000012000NNM   20220829121837    3N0N  00000240000000549600000804032CJ    QNYHVQN 005500360039
BI00B32CJ    JQN210F        202209097116-1685-02             TERMINAL                 CCN000048000000048000FN00000000020221001000048000NNE   20220829121837    4P0P  00002400000000897600001065232CJ    QNYHVQN 005100280028
BI00B32CJ    JQN210F        202209097116-4037                TERMINAL                 CCN000030000000030000FN00000000020221001000030000NNE   20220829121837    4P0P  00000600000000600000000894232CJ    QNYHVQN 006400630015
BI00B32CJ    JQN210F        202209097116-4415-02             TERMINAL                 CCN000228000000228000FN00000000020221001000228000NNE   20220829121837    4P0P  00003800000000596600000925732CJ    QNYHVQN 006400630017
BI00B32CJ    JQN210F        202209097116-6041                TERMINAL                 CCN000004500000004500FN00000000020221001000004500NNE   20220829121837    4P0P  00000450000000716000001009632CJ    QNYHVQN 006400630015
BI00B32CJ    JQN210F        202209097287-8642-40             HOUSING FEMALE ASS'Y     CCN000002800000002800FN00000000020221001000002800NNE   20220829121837    4N0N  00000280000000915600001107632CJ    QNYHVQN 005400370024
BI00B32CJ    #JQN210F       202209167158-3015-10             RUBBER STOPPER           CCN000030000000030000FN00000000020221001000030000NNE   20220829121837    2C0C  00001000000000419500000474032CJ    QNYHVQN 002700430014
BI00B32CJ    JQN210G        202209167116-1685-02             TERMINAL                 CCN000072000000072000FN00000000020221001000072000NNE   20220829121837    4P0P  00002400000000897600001065232CJ    QNYHVQN 005100280028
BI00B32CJ    JQN210G        202209167116-4037                TERMINAL                 CCN000018000000018000FN00000000020221001000018000NNE   20220829121837    4P0P  00000600000000600000000894232CJ    QNYHVQN 006400630015
BI00B32CJ    JQN210G        202209167116-6041                TERMINAL                 CCN000004500000004500FN00000000020221001000004500NNE   20220829121837    4P0P  00000450000000716000001009632CJ    QNYHVQN 006400630015
BI00B32CJ    JQN210G        202209167126-8853-02             TERMINAL                 CCN000030000000030000FN00000000020221001000030000NNE   20220829121837    4P0P  00000750000000562500000847732CJ    QNYHVQN 006400630015
BI00B32CJ    JQN210G        202209167287-8642-40             HOUSING FEMALE ASS'Y     CCN000002800000002800FN00000000020221001000002800NNE   20220829121837    4N0N  00000280000000915600001107632CJ    QNYHVQN 005400370024
BI00B32CJ    #JQN210G       202209167158-3017                RUBBER STOPPER           CCN000010000000010000FN00000000020221001000010000NNE   20220829121837    2C0C  00001000000000375500000435032CJ    QNYHVQN 002700430014
BI00B32CJ    JQN210H        202209237114-6041                TERMINAL                 CCN000003600000003600FN00000000020221001000003600NNE   20220829121837    4P0P  00000360000000580700000824232CJ    QNYHVQN 006400630015
BI00B32CJ    JQN210H        202209237116-1685-02             TERMINAL                 CCN000096000000096000FN00000000020221001000096000NNE   20220829121837    4P0P  00002400000000897600001065232CJ    QNYHVQN 005100280028
BI00B32CJ    JQN210H        202209237116-1686-02             TERMINAL                 CCN000021000000021000FN00000000020221001000021000NNE   20220829121837    4P0P  00002100000000869400001021632CJ    QNYHVQN 005100280028
BI00B32CJ    JQN210H        202209237116-4415-02             TERMINAL                 CCN000152000000152000FN00000000020221001000152000NNE   20220829121837    4P0P  00003800000000596600000925732CJ    QNYHVQN 006400630017
BI00B32CJ    JQN210H        202209237116-6041                TERMINAL                 CCN000004500000004500FN00000000020221001000004500NNE   20220829121837    4P0P  00000450000000716000001009632CJ    QNYHVQN 006400630015
BI00B32CJ    JQN210H        202209237116-6042                TERMINAL                 CCN000009000000009000FN00000000020221001000009000NNE   20220829121837    4P0P  00000300000000523800000856132CJ    QNYHVQN 006400630015
BI00B32CJ    JQN210H        202209237126-8853-02             TERMINAL                 CCN000022500000022500FN00000000020221001000022500NNE   20220829121837    4P0P  00000750000000562500000847732CJ    QNYHVQN 006400630015
BI00B32CJ    JQN210H        202209237158-3165-90             WIRE SEAL                CCN000200000000200000FN00000000020221001000200000NNE   20220829121837    1C0C  00004000000000124000000172432CJ    QNYHVQN 004300270014
BI00B32CJ    JQN210H        202209237388-0317-60             CONNECTOR ASS'Y          CCN000006000000006000FN00000000020221001000006000NNE   20220829121837    4N0N  00000120000001034400001129332CJ    QNYHVQN 005400370024
BI00B32CJ    #JQN210H       202209237047-5654-30             CLIP                     CCN000010000000010000FN00000000020221001000010000NNE   20220829121837    2F0F  00000500000000657000000825332CJ    QNYHVQN 005500360039
BI00B32CJ    #JQN210H       202209237158-3015-10             RUBBER STOPPER           CCN000010000000010000FN00000000020221001000010000NNE   20220829121837    2C0C  00001000000000419500000474032CJ    QNYHVQN 002700430014
BI00B32CJ    JQN210J        202209307116-1686-02             TERMINAL                 CCN000042000000042000FN00000000020221001000042000NNE   20220829121837    4P0P  00002100000000869400001021632CJ    QNYHVQN 005100280028
BI00B32CJ    JQN210J        202209307116-4037                TERMINAL                 CCN000012000000012000FN00000000020221001000012000NNE   20220829121837    4P0P  00000600000000600000000894232CJ    QNYHVQN 006400630015
BI00B32CJ    JQN210J        202209307116-4415-02             TERMINAL                 CCN000152000000152000FN00000000020221001000152000NNE   20220829121837    4P0P  00003800000000596600000925732CJ    QNYHVQN 006400630017
BI00B32CJ    JQN210J        202209307116-6042                TERMINAL                 CCN000009000000009000FN00000000020221001000009000NNE   20220829121837    4P0P  00000300000000523800000856132CJ    QNYHVQN 006400630015
BI00B32CJ    JQN210J        202209307126-8853-02             TERMINAL                 CCN000030000000030000FN00000000020221001000030000NNE   20220829121837    4P0P  00000750000000562500000847732CJ    QNYHVQN 006400630015
BI00B32CJ    JQN210J        202209307158-3165-90             WIRE SEAL                CCN000200000000200000FN00000000020221001000200000NNE   20220829121837    1C0C  00004000000000124000000172432CJ    QNYHVQN 004300270014
BI00B32CJ    JQN210K        202210077116-1180                TERMINAL                 CCN000019500000019500FN00000000020221001000019500NNE   20220829121837    1P0P  00001950000000618200000903432CJ    QNYHVQN 006400630015
BI00B32CJ    JQN2112        202210217017-1180-02             TERMINAL                 CCN000144000000144000FN00000000020221101000144000NNM   20220829121837    4P0P  00007200000001065600001229032CJ    QNYHVQN 005100280028
BI00B32CJ    JQN2113        202210287017-1180-02             TERMINAL                 CCN000144000000144000FN00000000020221101000144000NNM   20220829121837    4P0P  00007200000001065600001229032CJ    QNYHVQN 005100280028
BI00B32CJ    JQN2114        202211047017-1180-02             TERMINAL                 CCN000144000000144000FN00000000020221101000144000NNM   20220829121837    4P0P  00007200000001065600001229032CJ    QNYHVQN 005100280028
BI00B32CJ    JQN2111        202210177017-1181-02             TERMINAL                 CCN000063000000063000FN00000000020221101000063000NNM   20220829121837    4P0P  00006300000001089900001266832CJ    QNYHVQN 005100280028
BI00B32CJ    JQN2113        202210287017-1181-02             TERMINAL                 CCN000063000000063000FN00000000020221101000063000NNM   20220829121837    4P0P  00006300000001089900001266832CJ    QNYHVQN 005100280028
BI00B32CJ    JQN2111        202210177017-1182-02             TERMINAL                 CCN000045000000045000FN00000000020221101000045000NNM   20220829121837    4P0P  00004500000001165500001318632CJ    QNYHVQN 005100280028
BI00B32CJ    JQN2112        202210217017-1182-02             TERMINAL                 CCN000045000000045000FN00000000020221101000045000NNM   20220829121837    4P0P  00004500000001165500001318632CJ    QNYHVQN 005100280028
BI00B32CJ    JQN2113        202210287017-1182-02             TERMINAL                 CCN000090000000090000FN00000000020221101000090000NNM   20220829121837    4P0P  00004500000001165500001318632CJ    QNYHVQN 005100280028
BI00B32CJ    JQN2111        202210177017-1183-02             TERMINAL                 CCN000027000000027000FN00000000020221101000027000NNM   20220829121837    4P0P  00002700000001139400001307432CJ    QNYHVQN 005100280028
BI00B32CJ    JQN2112        202210217017-1183-02             TERMINAL                 CCN000027000000027000FN00000000020221101000027000NNM   20220829121837    4P0P  00002700000001139400001307432CJ    QNYHVQN 005100280028
BI00B32CJ    JQN2113        202210287017-1183-02             TERMINAL                 CCN000027000000027000FN00000000020221101000027000NNM   20220829121837    4P0P  00002700000001139400001307432CJ    QNYHVQN 005100280028
BI00B32CJ    JQN2114        202211047017-1183-02             TERMINAL                 CCN000027000000027000FN00000000020221101000027000NNM   20220829121837    4P0P  00002700000001139400001307432CJ    QNYHVQN 005100280028
BI00B32CJ    JQN2111        202210177114-4020                TERMINAL                 CCN000042000000042000FN00000000020221101000042000NNM   20220829121837    4P0P  00002100000000875700001169332CJ    QNYHVQN 006400630015
BI00B32CJ    JQN2112        202210217114-4020                TERMINAL                 CCN000042000000042000FN00000000020221101000042000NNM   20220829121837    4P0P  00002100000000875700001169332CJ    QNYHVQN 006400630015
BI00B32CJ    JQN2113        202210287114-4020                TERMINAL                 CCN000063000000063000FN00000000020221101000063000NNM   20220829121837    4P0P  00002100000000875700001169332CJ    QNYHVQN 006400630015
BI00B32CJ    JQN2114        202211047114-4020                TERMINAL                 CCN000063000000063000FN00000000020221101000063000NNM   20220829121837    4P0P  00002100000000875700001169332CJ    QNYHVQN 006400630015
BI00B32CJ    JQN2112        202210217114-4021                TERMINAL                 CCN000015000000015000FN00000000020221101000015000NNM   20220829121837    4P0P  00001500000000670500000964132CJ    QNYHVQN 006400630015
BI00B32CJ    JQN2113        202210287114-4021                TERMINAL                 CCN000030000000030000FN00000000020221101000030000NNM   20220829121837    4P0P  00001500000000670500000964132CJ    QNYHVQN 006400630015
BI00B32CJ    JQN2114        202211047114-4021                TERMINAL                 CCN000030000000030000FN00000000020221101000030000NNM   20220829121837    4P0P  00001500000000670500000964132CJ    QNYHVQN 006400630015
BI00B32CJ    JQN2111        202210177114-4031                TERMINAL                 CCN000010500000010500FN00000000020221101000010500NNM   20220829121837    4P0P  00001050000000966000001294632CJ    QNYHVQN 006400630017
BI00B32CJ    JQN2112        202210217114-4031                TERMINAL                 CCN000010500000010500FN00000000020221101000010500NNM   20220829121837    4P0P  00001050000000966000001294632CJ    QNYHVQN 006400630017
BI00B32CJ    JQN2113        202210287114-4031                TERMINAL                 CCN000010500000010500FN00000000020221101000010500NNM   20220829121837    4P0P  00001050000000966000001294632CJ    QNYHVQN 006400630017
BI00B32CJ    JQN2114        202211047114-4031                TERMINAL                 CCN000010500000010500FN00000000020221101000010500NNM   20220829121837    4P0P  00001050000000966000001294632CJ    QNYHVQN 006400630017
BI00B32CJ    JQN2111        202210177114-4032                TERMINAL                 CCN000030000000030000FN00000000020221101000030000NNM   20220829121837    4P0P  00000750000000735000001063632CJ    QNYHVQN 006400630017
BI00B32CJ    JQN2112        202210217114-4032                TERMINAL                 CCN000022500000022500FN00000000020221101000022500NNM   20220829121837    4P0P  00000750000000735000001063632CJ    QNYHVQN 006400630017
BI00B32CJ    JQN2113        202210287114-4032                TERMINAL                 CCN000022500000022500FN00000000020221101000022500NNM   20220829121837    4P0P  00000750000000735000001063632CJ    QNYHVQN 006400630017
BI00B32CJ    JQN2114        202211047114-4032                TERMINAL                 CCN000022500000022500FN00000000020221101000022500NNM   20220829121837    4P0P  00000750000000735000001063632CJ    QNYHVQN 006400630017
BI00B32CJ    JQN2111        202210177114-4231-02             TERMINAL                 CCN000054000000054000FN00000000020221101000054000NNM   20220829121837    4P0P  00001800000000554400000848032CJ    QNYHVQN 006400630015
BI00B32CJ    JQN2112        202210217114-4231-02             TERMINAL                 CCN000072000000072000FN00000000020221101000072000NNM   20220829121837    4P0P  00001800000000554400000848032CJ    QNYHVQN 006400630015
BI00B32CJ    JQN2113        202210287114-4231-02             TERMINAL                 CCN000090000000090000FN00000000020221101000090000NNM   20220829121837    4P0P  00001800000000554400000848032CJ    QNYHVQN 006400630015
BI00B32CJ    JQN2114        202211047114-4231-02             TERMINAL                 CCN000090000000090000FN00000000020221101000090000NNM   20220829121837    4P0P  00001800000000554400000848032CJ    QNYHVQN 006400630015
BI00B32CJ    JQN2114        202211047114-4624-02             TERMINAL                 CCN000024000000024000FN00000000020221101000024000NNM   20220829121837    4P0P  00002400000000895200001188832CJ    QNYHVQN 006400630015
BI00B32CJ    JQN2112        202210217114-4728-02             TERMINAL                 CCN000300000000300000FN00000000020221101000300000NNM   20220829121837    4P0P  00003000000000510000000804232CJ    QNYHVQN 006400630015
BI00B32CJ    JQN2113        202210287114-4728-02             TERMINAL                 CCN000390000000390000FN00000000020221101000390000NNM   20220829121837    4P0P  00003000000000510000000804232CJ    QNYHVQN 006400630015
BI00B32CJ    JQN2114        202211047114-4728-02             TERMINAL                 CCN000330000000330000FN00000000020221101000330000NNM   20220829121837    4P0P  00003000000000510000000804232CJ    QNYHVQN 006400630015
BI00B32CJ    JQN2113        202210287114-4728-08             TERMINAL                 CCN000030000000030000FN00000000020221101000030000NNM   20220829121837    4P0P  00003000000000507000000801232CJ    QNYHVQN 006400630015
BI00B32CJ    JQN2114        202211047114-4728-08             TERMINAL                 CCN000030000000030000FN00000000020221101000030000NNM   20220829121837    4P0P  00003000000000507000000801232CJ    QNYHVQN 006400630015
BI00B32CJ    JQN2112        202210217114-4729-02             TERMINAL                 CCN000060000000060000FN00000000020221101000060000NNM   20220829121837    4P0P  00003000000000516000000810232CJ    QNYHVQN 006400630015
BI00B32CJ    JQN2113        202210287114-4729-02             TERMINAL                 CCN000090000000090000FN00000000020221101000090000NNM   20220829121837    4P0P  00003000000000516000000810232CJ    QNYHVQN 006400630015
BI00B32CJ    JQN2114        202211047114-4729-02             TERMINAL                 CCN000090000000090000FN00000000020221101000090000NNM   20220829121837    4P0P  00003000000000516000000810232CJ    QNYHVQN 006400630015
BI00B32CJ    JQN2112        202210217114-5746-02             TERMINAL                 CCN000042000000042000FN00000000020221101000042000NNM   20220829121837    4P0P  00002100000000695100000988732CJ    QNYHVQN 006400630015
BI00B32CJ    JQN2113        202210287114-5746-02             TERMINAL                 CCN000084000000084000FN00000000020221101000084000NNM   20220829121837    4P0P  00002100000000695100000988732CJ    QNYHVQN 006400630015
BI00B32CJ    JQN2114        202211047114-5746-02             TERMINAL                 CCN000084000000084000FN00000000020221101000084000NNM   20220829121837    4P0P  00002100000000695100000988732CJ    QNYHVQN 006400630015
BI00B32CJ    JQN2112        202210217114-5747-02             TERMINAL                 CCN000108000000108000FN00000000020221101000108000NNM   20220829121837    4P0P  00001800000000626400000920032CJ    QNYHVQN 006400630015
BI00B32CJ    JQN2113        202210287114-5747-02             TERMINAL                 CCN000162000000162000FN00000000020221101000162000NNM   20220829121837    4P0P  00001800000000626400000920032CJ    QNYHVQN 006400630015
BI00B32CJ    JQN2114        202211047114-5747-02             TERMINAL                 CCN000126000000126000FN00000000020221101000126000NNM   20220829121837    4P0P  00001800000000626400000920032CJ    QNYHVQN 006400630015
BI00B32CJ    JQN2111        202210177114-5748-02             TERMINAL                 CCN000024000000024000FN00000000020221101000024000NNM   20220829121837    4P0P  00001200000000444000000737632CJ    QNYHVQN 006400630015
BI00B32CJ    JQN2112        202210217114-5748-02             TERMINAL                 CCN000072000000072000FN00000000020221101000072000NNM   20220829121837    4P0P  00001200000000444000000737632CJ    QNYHVQN 006400630015
BI00B32CJ    JQN2113        202210287114-5748-02             TERMINAL                 CCN000084000000084000FN00000000020221101000084000NNM   20220829121837    4P0P  00001200000000444000000737632CJ    QNYHVQN 006400630015
BI00B32CJ    JQN2114        202211047114-5748-02             TERMINAL                 CCN000072000000072000FN00000000020221101000072000NNM   20220829121837    4P0P  00001200000000444000000737632CJ    QNYHVQN 006400630015
BI00B32CJ    JQN2111        202210177114-5753-02             TERMINAL                 CCN000027000000027000FN00000000020221101000027000NNM   20220829121837    4P0P  00002700000000847800001141432CJ    QNYHVQN 006400630015
BI00B32CJ    JQN2112        202210217114-5753-02             TERMINAL                 CCN000081000000081000FN00000000020221101000081000NNM   20220829121837    4P0P  00002700000000847800001141432CJ    QNYHVQN 006400630015
BI00B32CJ    JQN2113        202210287114-5753-02             TERMINAL                 CCN000027000000027000FN00000000020221101000027000NNM   20220829121837    4P0P  00002700000000847800001141432CJ    QNYHVQN 006400630015
BI00B32CJ    JQN2114        202211047114-5753-02             TERMINAL                 CCN000081000000081000FN00000000020221101000081000NNM   20220829121837    4P0P  00002700000000847800001141432CJ    QNYHVQN 006400630015
BI00B32CJ    JQN2111        202210177114-6041                TERMINAL                 CCN000003600000003600FN00000000020221101000003600NNM   20220829121837    4P0P  00000360000000580700000824232CJ    QNYHVQN 006400630015
BI00B32CJ    JQN2112        202210217114-6041                TERMINAL                 CCN000003600000003600FN00000000020221101000003600NNM   20220829121837    4P0P  00000360000000580700000824232CJ    QNYHVQN 006400630015
BI00B32CJ    JQN2113        202210287114-6041                TERMINAL                 CCN000003600000003600FN00000000020221101000003600NNM   20220829121837    4P0P  00000360000000580700000824232CJ    QNYHVQN 006400630015
BI00B32CJ    JQN2114        202211047114-6041                TERMINAL                 CCN000003600000003600FN00000000020221101000003600NNM   20220829121837    4P0P  00000360000000580700000824232CJ    QNYHVQN 006400630015
BI00B32CJ    JQN2111        202210177116-1180                TERMINAL                 CCN000058500000058500FN00000000020221101000058500NNM   20220829121837    1P0P  00001950000000618200000903432CJ    QNYHVQN 006400630015
BI00B32CJ    JQN2112        202210217116-1180                TERMINAL                 CCN000039000000039000FN00000000020221101000039000NNM   20220829121837    1P0P  00001950000000618200000903432CJ    QNYHVQN 006400630015
BI00B32CJ    JQN2113        202210287116-1180                TERMINAL                 CCN000019500000019500FN00000000020221101000019500NNM   20220829121837    1P0P  00001950000000618200000903432CJ    QNYHVQN 006400630015
BI00B32CJ    JQN2114        202211047116-1180                TERMINAL                 CCN000019500000019500FN00000000020221101000019500NNM   20220829121837    1P0P  00001950000000618200000903432CJ    QNYHVQN 006400630015
BI00B32CJ    JQN2111        202210177116-1685-02             TERMINAL                 CCN000072000000072000FN00000000020221101000072000NNM   20220829121837    4P0P  00002400000000897600001065232CJ    QNYHVQN 005100280028
BI00B32CJ    JQN2112        202210217116-1685-02             TERMINAL                 CCN000048000000048000FN00000000020221101000048000NNM   20220829121837    4P0P  00002400000000897600001065232CJ    QNYHVQN 005100280028
BI00B32CJ    JQN2113        202210287116-1685-02             TERMINAL                 CCN000072000000072000FN00000000020221101000072000NNM   20220829121837    4P0P  00002400000000897600001065232CJ    QNYHVQN 005100280028
BI00B32CJ    JQN2114        202211047116-1685-02             TERMINAL                 CCN000048000000048000FN00000000020221101000048000NNM   20220829121837    4P0P  00002400000000897600001065232CJ    QNYHVQN 005100280028
BI00B32CJ    JQN2111        202210177116-1686-02             TERMINAL                 CCN000021000000021000FN00000000020221101000021000NNM   20220829121837    4P0P  00002100000000869400001021632CJ    QNYHVQN 005100280028
BI00B32CJ    JQN2113        202210287116-1686-02             TERMINAL                 CCN000021000000021000FN00000000020221101000021000NNM   20220829121837    4P0P  00002100000000869400001021632CJ    QNYHVQN 005100280028
BI00B32CJ    JQN2114        202211047116-1686-02             TERMINAL                 CCN000021000000021000FN00000000020221101000021000NNM   20220829121837    4P0P  00002100000000869400001021632CJ    QNYHVQN 005100280028
BI00B32CJ    JQN2113        202210287116-4025                TERMINAL                 CCN000016000000016000FN00000000020221101000016000NNM   20220829121837    4P0P  00001600000000644800000975132CJ    QNYHVQN 006400630017
BI00B32CJ    JQN2112        202210217116-4031                TERMINAL                 CCN000022500000022500FN00000000020221101000022500NNM   20220829121837    4P0P  00000750000000619500000904732CJ    QNYHVQN 006400630015
BI00B32CJ    JQN2113        202210287116-4031                TERMINAL                 CCN000022500000022500FN00000000020221101000022500NNM   20220829121837    4P0P  00000750000000619500000904732CJ    QNYHVQN 006400630015
BI00B32CJ    JQN2114        202211047116-4031                TERMINAL                 CCN000022500000022500FN00000000020221101000022500NNM   20220829121837    4P0P  00000750000000619500000904732CJ    QNYHVQN 006400630015
BI00B32CJ    JQN2112        202210217116-4032                TERMINAL                 CCN000036000000036000FN00000000020221101000036000NNM   20220829121837    4P0P  00000600000000532800000818032CJ    QNYHVQN 006400630015
BI00B32CJ    JQN2113        202210287116-4032                TERMINAL                 CCN000054000000054000FN00000000020221101000054000NNM   20220829121837    4P0P  00000600000000532800000818032CJ    QNYHVQN 006400630015
BI00B32CJ    JQN2114        202211047116-4032                TERMINAL                 CCN000042000000042000FN00000000020221101000042000NNM   20220829121837    4P0P  00000600000000532800000818032CJ    QNYHVQN 006400630015
BI00B32CJ    JQN2111        202210177116-4037                TERMINAL                 CCN000012000000012000FN00000000020221101000012000NNM   20220829121837    4P0P  00000600000000600000000894232CJ    QNYHVQN 006400630015
BI00B32CJ    JQN2112        202210217116-4037                TERMINAL                 CCN000012000000012000FN00000000020221101000012000NNM   20220829121837    4P0P  00000600000000600000000894232CJ    QNYHVQN 006400630015
BI00B32CJ    JQN2113        202210287116-4037                TERMINAL                 CCN000012000000012000FN00000000020221101000012000NNM   20220829121837    4P0P  00000600000000600000000894232CJ    QNYHVQN 006400630015
BI00B32CJ    JQN2114        202211047116-4037                TERMINAL                 CCN000012000000012000FN00000000020221101000012000NNM   20220829121837    4P0P  00000600000000600000000894232CJ    QNYHVQN 006400630015
BI00B32CJ    JQN2113        202210287116-4111-02             TERMINAL                 CCN000007500000007500FN00000000020221101000007500NNM   20220829121837    4P0P  00000750000000529500000817732CJ    QNYHVQN 006400630015
BI00B32CJ    JQN2114        202211047116-4111-02             TERMINAL                 CCN000007500000007500FN00000000020221101000007500NNM   20220829121837    4P0P  00000750000000529500000817732CJ    QNYHVQN 006400630015
BI00B32CJ    JQN2111        202210177116-4121-02             TERMINAL                 CCN000004500000004500FN00000000020221101000004500NNM   20220829121837    4P0P  00000450000000618800000912432CJ    QNYHVQN 006400630015
BI00B32CJ    JQN2112        202210217116-4121-02             TERMINAL                 CCN000004500000004500FN00000000020221101000004500NNM   20220829121837    4P0P  00000450000000618800000912432CJ    QNYHVQN 006400630015
BI00B32CJ    JQN2114        202211047116-4121-02             TERMINAL                 CCN000004500000004500FN00000000020221101000004500NNM   20220829121837    4P0P  00000450000000618800000912432CJ    QNYHVQN 006400630015
BI00B32CJ    JQN2113        202210287116-4231-02             TERMINAL                 CCN000052000000052000FN00000000020221101000052000NNM   20220829121837    4P0P  00002600000000683800001012532CJ    QNYHVQN 006400630017
BI00B32CJ    JQN2114        202211047116-4231-02             TERMINAL                 CCN000052000000052000FN00000000020221101000052000NNM   20220829121837    4P0P  00002600000000683800001012532CJ    QNYHVQN 006400630017
BI00B32CJ    JQN2111        202210177116-4415-02             TERMINAL                 CCN000114000000114000FN00000000020221101000114000NNM   20220829121837    4P0P  00003800000000596600000925732CJ    QNYHVQN 006400630017
BI00B32CJ    JQN2112        202210217116-4415-02             TERMINAL                 CCN000152000000152000FN00000000020221101000152000NNM   20220829121837    4P0P  00003800000000596600000925732CJ    QNYHVQN 006400630017
BI00B32CJ    JQN2113        202210287116-4415-02             TERMINAL                 CCN000114000000114000FN00000000020221101000114000NNM   20220829121837    4P0P  00003800000000596600000925732CJ    QNYHVQN 006400630017
BI00B32CJ    JQN2114        202211047116-4415-02             TERMINAL                 CCN000114000000114000FN00000000020221101000114000NNM   20220829121837    4P0P  00003800000000596600000925732CJ    QNYHVQN 006400630017
BI00B32CJ    JQN2111        202210177116-4416-02             TERMINAL                 CCN000032000000032000FN00000000020221101000032000NNM   20220829121837    4P0P  00003200000000518400000847132CJ    QNYHVQN 006400630017
BI00B32CJ    JQN2112        202210217116-4416-02             TERMINAL                 CCN000064000000064000FN00000000020221101000064000NNM   20220829121837    4P0P  00003200000000518400000847132CJ    QNYHVQN 006400630017
BI00B32CJ    JQN2113        202210287116-4416-02             TERMINAL                 CCN000064000000064000FN00000000020221101000064000NNM   20220829121837    4P0P  00003200000000518400000847132CJ    QNYHVQN 006400630017
BI00B32CJ    JQN2114        202211047116-4416-02             TERMINAL                 CCN000064000000064000FN00000000020221101000064000NNM   20220829121837    4P0P  00003200000000518400000847132CJ    QNYHVQN 006400630017
BI00B32CJ    JQN2111        202210177116-4486-02             TERMINAL                 CCN000168000000168000FN00000000020221101000168000NNM   20220829121837    4P0P  00002800000000666400000995132CJ    QNYHVQN 006400630017
BI00B32CJ    JQN2112        202210217116-4486-02             TERMINAL                 CCN000168000000168000FN00000000020221101000168000NNM   20220829121837    4P0P  00002800000000666400000995132CJ    QNYHVQN 006400630017
BI00B32CJ    JQN2113        202210287116-4486-02             TERMINAL                 CCN000196000000196000FN00000000020221101000196000NNM   20220829121837    4P0P  00002800000000666400000995132CJ    QNYHVQN 006400630017
BI00B32CJ    JQN2114        202211047116-4486-02             TERMINAL                 CCN000168000000168000FN00000000020221101000168000NNM   20220829121837    4P0P  00002800000000666400000995132CJ    QNYHVQN 006400630017
BI00B32CJ    JQN2112        202210217116-5035-02             TERMINAL                 CCN000045000000045000FN00000000020221101000045000NNM   20220829121837    4P0P  00001500000000543000000828232CJ    QNYHVQN 006400630015
BI00B32CJ    JQN2113        202210287116-5035-02             TERMINAL                 CCN000105000000105000FN00000000020221101000105000NNM   20220829121837    4P0P  00001500000000543000000828232CJ    QNYHVQN 006400630015
BI00B32CJ    JQN2114        202211047116-5035-02             TERMINAL                 CCN000090000000090000FN00000000020221101000090000NNM   20220829121837    4P0P  00001500000000543000000828232CJ    QNYHVQN 006400630015
BI00B32CJ    JQN2112        202210217116-5042-02             TERMINAL                 CCN000040500000040500FN00000000020221101000040500NNM   20220829121837    4P0P  00001350000000560300000845532CJ    QNYHVQN 006400630015
BI00B32CJ    JQN2113        202210287116-5042-02             TERMINAL                 CCN000054000000054000FN00000000020221101000054000NNM   20220829121837    4P0P  00001350000000560300000845532CJ    QNYHVQN 006400630015
BI00B32CJ    JQN2114        202211047116-5042-02             TERMINAL                 CCN000054000000054000FN00000000020221101000054000NNM   20220829121837    4P0P  00001350000000560300000845532CJ    QNYHVQN 006400630015
BI00B32CJ    JQN2111        202210177116-5043-02             TERMINAL FEMALE          CCN000024000000024000FN00000000020221101000024000NNM   20220829121837    4P0P  00001200000000559200000844432CJ    QNYHVQN 006400630015
BI00B32CJ    JQN2112        202210217116-5043-02             TERMINAL FEMALE          CCN000048000000048000FN00000000020221101000048000NNM   20220829121837    4P0P  00001200000000559200000844432CJ    QNYHVQN 006400630015
BI00B32CJ    JQN2113        202210287116-5043-02             TERMINAL FEMALE          CCN000048000000048000FN00000000020221101000048000NNM   20220829121837    4P0P  00001200000000559200000844432CJ    QNYHVQN 006400630015
BI00B32CJ    JQN2114        202211047116-5043-02             TERMINAL FEMALE          CCN000048000000048000FN00000000020221101000048000NNM   20220829121837    4P0P  00001200000000559200000844432CJ    QNYHVQN 006400630015
BI00B32CJ    JQN2112        202210217116-5044-02             TERMINAL                 CCN000128000000128000FN00000000020221101000128000NNM   20220829121837    4P0P  00001600000000641600000986332CJ    QNYHVQN 006400630017
BI00B32CJ    JQN2113        202210287116-5044-02             TERMINAL                 CCN000192000000192000FN00000000020221101000192000NNM   20220829121837    4P0P  00001600000000641600000986332CJ    QNYHVQN 006400630017
BI00B32CJ    JQN2114        202211047116-5044-02             TERMINAL                 CCN000176000000176000FN00000000020221101000176000NNM   20220829121837    4P0P  00001600000000641600000986332CJ    QNYHVQN 006400630017
BI00B32CJ    JQN2113        202210287116-5045-02             TERMINAL                 CCN000016000000016000FN00000000020221101000016000NNM   20220829121837    4P0P  00001600000000678400001007132CJ    QNYHVQN 006400630017
BI00B32CJ    JQN2114        202211047116-5045-02             TERMINAL                 CCN000032000000032000FN00000000020221101000032000NNM   20220829121837    4P0P  00001600000000678400001007132CJ    QNYHVQN 006400630017
BI00B32CJ    JQN2113        202210287116-5046-02             TERMINAL                 CCN000012000000012000FN00000000020221101000012000NNM   20220829121837    4P0P  00001200000000544800000873532CJ    QNYHVQN 006400630017
BI00B32CJ    JQN2114        202211047116-5046-02             TERMINAL                 CCN000024000000024000FN00000000020221101000024000NNM   20220829121837    4P0P  00001200000000544800000873532CJ    QNYHVQN 006400630017
BI00B32CJ    JQN2111        202210177116-6041                TERMINAL                 CCN000009000000009000FN00000000020221101000009000NNM   20220829121837    4P0P  00000450000000716000001009632CJ    QNYHVQN 006400630015
BI00B32CJ    JQN2112        202210217116-6041                TERMINAL                 CCN000004500000004500FN00000000020221101000004500NNM   20220829121837    4P0P  00000450000000716000001009632CJ    QNYHVQN 006400630015
BI00B32CJ    JQN2113        202210287116-6041                TERMINAL                 CCN000009000000009000FN00000000020221101000009000NNM   20220829121837    4P0P  00000450000000716000001009632CJ    QNYHVQN 006400630015
BI00B32CJ    JQN2114        202211047116-6041                TERMINAL                 CCN000004500000004500FN00000000020221101000004500NNM   20220829121837    4P0P  00000450000000716000001009632CJ    QNYHVQN 006400630015
BI00B32CJ    JQN2111        202210177116-6042                TERMINAL                 CCN000009000000009000FN00000000020221101000009000NNM   20220829121837    4P0P  00000300000000523800000856132CJ    QNYHVQN 006400630015
BI00B32CJ    JQN2112        202210217116-6042                TERMINAL                 CCN000006000000006000FN00000000020221101000006000NNM   20220829121837    4P0P  00000300000000523800000856132CJ    QNYHVQN 006400630015
BI00B32CJ    JQN2113        202210287116-6042                TERMINAL                 CCN000006000000006000FN00000000020221101000006000NNM   20220829121837    4P0P  00000300000000523800000856132CJ    QNYHVQN 006400630015
BI00B32CJ    JQN2114        202211047116-6042                TERMINAL                 CCN000006000000006000FN00000000020221101000006000NNM   20220829121837    4P0P  00000300000000523800000856132CJ    QNYHVQN 006400630015
BI00B32CJ    JQN2111        202210177126-8853-02             TERMINAL                 CCN000045000000045000FN00000000020221101000045000NNM   20220829121837    4P0P  00000750000000562500000847732CJ    QNYHVQN 006400630015
BI00B32CJ    JQN2112        202210217126-8853-02             TERMINAL                 CCN000030000000030000FN00000000020221101000030000NNM   20220829121837    4P0P  00000750000000562500000847732CJ    QNYHVQN 006400630015
BI00B32CJ    JQN2113        202210287126-8853-02             TERMINAL                 CCN000045000000045000FN00000000020221101000045000NNM   20220829121837    4P0P  00000750000000562500000847732CJ    QNYHVQN 006400630015
BI00B32CJ    JQN2114        202211047126-8853-02             TERMINAL                 CCN000037500000037500FN00000000020221101000037500NNM   20220829121837    4P0P  00000750000000562500000847732CJ    QNYHVQN 006400630015
BI00B32CJ    JQN2112        202210217158-3006-90             RUBBER STOPPER           CCN000020000000020000FN00000000020221101000020000NNM   20220829121837    1C0C  00002000000000330600000386032CJ    QNYHVQN 002700430014
BI00B32CJ    JQN2113        202210287158-3006-90             RUBBER STOPPER           CCN000020000000020000FN00000000020221101000020000NNM   20220829121837    1C0C  00002000000000330600000386032CJ    QNYHVQN 002700430014
BI00B32CJ    JQN2114        202211047158-3006-90             RUBBER STOPPER           CCN000020000000020000FN00000000020221101000020000NNM   20220829121837    1C0C  00002000000000330600000386032CJ    QNYHVQN 002700430014
BI00B32CJ    JQN2112        202210217158-3070-80             RUBBER STOPPER           CCN000040000000040000FN00000000020221101000040000NNM   20220829121837    1C0C  00004000000000276000000333332CJ    QNYHVQN 002700430014
BI00B32CJ    JQN2113        202210287158-3070-80             RUBBER STOPPER           CCN000040000000040000FN00000000020221101000040000NNM   20220829121837    1C0C  00004000000000276000000333332CJ    QNYHVQN 002700430014
BI00B32CJ    JQN2114        202211047158-3070-80             RUBBER STOPPER           CCN000040000000040000FN00000000020221101000040000NNM   20220829121837    1C0C  00004000000000276000000333332CJ    QNYHVQN 002700430014
BI00B32CJ    JQN2111        202210177158-3165-90             WIRE SEAL                CCN000200000000200000FN00000000020221101000200000NNM   20220829121837    1C0C  00004000000000124000000172432CJ    QNYHVQN 004300270014
BI00B32CJ    JQN2112        202210217158-3165-90             WIRE SEAL                CCN000200000000200000FN00000000020221101000200000NNM   20220829121837    1C0C  00004000000000124000000172432CJ    QNYHVQN 004300270014
BI00B32CJ    JQN2114        202211047158-3165-90             WIRE SEAL                CCN000200000000200000FN00000000020221101000200000NNM   20220829121837    1C0C  00004000000000124000000172432CJ    QNYHVQN 004300270014
BI00B32CJ    JQN2113        202210287172-5540-80             SEALED WIRE SEAL         CCN000020000000020000FN00000000020221101000020000NNM   20220829121837    1C0C  00002000000000186000000234432CJ    QNYHVQN 004300270014
BI00B32CJ    JQN2114        202211047172-5540-80             SEALED WIRE SEAL         CCN000020000000020000FN00000000020221101000020000NNM   20220829121837    1C0C  00002000000000186000000234432CJ    QNYHVQN 004300270014
BI00B32CJ    JQN2112        202210217195-1479-02             TERMINAL MALE            CCN000024000000024000FN00000000020221101000024000NNM   20220829121837    4P0P  00002400000000420000000714232CJ    QNYHVQN 006400630015
BI00B32CJ    JQN2113        202210287195-1479-02             TERMINAL MALE            CCN000048000000048000FN00000000020221101000048000NNM   20220829121837    4P0P  00002400000000420000000714232CJ    QNYHVQN 006400630015
BI00B32CJ    JQN2114        202211047195-1479-02             TERMINAL MALE            CCN000024000000024000FN00000000020221101000024000NNM   20220829121837    4P0P  00002400000000420000000714232CJ    QNYHVQN 006400630015
BI00B32CJ    JQN2111        202210177196-0805-02             TERMINAL FEMALE          CCN000022500000022500FN00000000020221101000022500NNM   20220829121837    4P0P  00002250000000558000000843232CJ    QNYHVQN 006400630015
BI00B32CJ    JQN2112        202210217196-0805-02             TERMINAL FEMALE          CCN000022500000022500FN00000000020221101000022500NNM   20220829121837    4P0P  00002250000000558000000843232CJ    QNYHVQN 006400630015
BI00B32CJ    JQN2113        202210287196-0805-02             TERMINAL FEMALE          CCN000045000000045000FN00000000020221101000045000NNM   20220829121837    4P0P  00002250000000558000000843232CJ    QNYHVQN 006400630015
BI00B32CJ    JQN2114        202211047196-0805-02             TERMINAL FEMALE          CCN000045000000045000FN00000000020221101000045000NNM   20220829121837    4P0P  00002250000000558000000843232CJ    QNYHVQN 006400630015
BI00B32CJ    JQN2114        202211047196-1102-02             TERMINAL                 CCN000022500000022500FN00000000020221101000022500NNM   20220829121837    4P0P  00002250000000405000000690232CJ    QNYHVQN 006400630015
BI00B32CJ    JQN2112        202210217196-1103-02             TERMINAL                 CCN000135000000135000FN00000000020221101000135000NNM   20220829121837    4P0P  00002250000000429800000715032CJ    QNYHVQN 006400630015
BI00B32CJ    JQN2113        202210287196-1103-02             TERMINAL                 CCN000180000000180000FN00000000020221101000180000NNM   20220829121837    4P0P  00002250000000429800000715032CJ    QNYHVQN 006400630015
BI00B32CJ    JQN2114        202211047196-1103-02             TERMINAL                 CCN000157500000157500FN00000000020221101000157500NNM   20220829121837    4P0P  00002250000000429800000715032CJ    QNYHVQN 006400630015
BI00B32CJ    JQN2112        202210217196-1104-02             TERMINAL                 CCN000022500000022500FN00000000020221101000022500NNM   20220829121837    4P0P  00002250000000441000000726232CJ    QNYHVQN 006400630015
BI00B32CJ    JQN2113        202210287196-1104-02             TERMINAL                 CCN000022500000022500FN00000000020221101000022500NNM   20220829121837    4P0P  00002250000000441000000726232CJ    QNYHVQN 006400630015
BI00B32CJ    JQN2114        202211047196-1104-02             TERMINAL                 CCN000022500000022500FN00000000020221101000022500NNM   20220829121837    4P0P  00002250000000441000000726232CJ    QNYHVQN 006400630015
BI00B32CJ    JQN2112        202210217196-1325-02             TERMINAL FEMALE          CCN000060000000060000FN00000000020221101000060000NNM   20220829121837    4P0P  00006000000000450000000778732CJ    QNYHVQN 006400630017
BI00B32CJ    JQN2112        202210217196-1326-02             TERMINAL FEMALE          CCN000060000000060000FN00000000020221101000060000NNM   20220829121837    4P0P  00006000000000456000000784732CJ    QNYHVQN 006400630017
BI00B32CJ    JQN2113        202210287196-1326-02             TERMINAL FEMALE          CCN000120000000120000FN00000000020221101000120000NNM   20220829121837    4P0P  00006000000000456000000784732CJ    QNYHVQN 006400630017
BI00B32CJ    JQN2114        202211047196-1326-02             TERMINAL FEMALE          CCN000060000000060000FN00000000020221101000060000NNM   20220829121837    4P0P  00006000000000456000000784732CJ    QNYHVQN 006400630017
BI00B32CJ    JQN2112        202210217196-1481-02             TERMINAL FEMALE          CCN000024000000024000FN00000000020221101000024000NNM   20220829121837    4P0P  00002400000000422400000707632CJ    QNYHVQN 006400630015
BI00B32CJ    JQN2113        202210287196-1481-02             TERMINAL FEMALE          CCN000048000000048000FN00000000020221101000048000NNM   20220829121837    4P0P  00002400000000422400000707632CJ    QNYHVQN 006400630015
BI00B32CJ    JQN2114        202211047196-1481-02             TERMINAL FEMALE          CCN000024000000024000FN00000000020221101000024000NNM   20220829121837    4P0P  00002400000000422400000707632CJ    QNYHVQN 006400630015
BI00B32CJ    JQN2112        202210217282-4576                HOUSING MALE ASS'Y       CCN000004800000004800FN00000000020221101000004800NNM   20220829121837    4N0N  00000240000000808800001028832CJ    QNYHVQN 005500360039
BI00B32CJ    JQN2113        202210287282-4576                HOUSING MALE ASS'Y       CCN000009600000009600FN00000000020221101000009600NNM   20220829121837    4N0N  00000240000000808800001028832CJ    QNYHVQN 005500360039
BI00B32CJ    JQN2114        202211047282-4576                HOUSING MALE ASS'Y       CCN000007200000007200FN00000000020221101000007200NNM   20220829121837    4N0N  00000240000000808800001028832CJ    QNYHVQN 005500360039
BI00B32CJ    JQN2112        202210217282-4578                HOUSING MALE ASS'Y       CCN000001200000001200FN00000000020221101000001200NNM   20220829121837    4N0N  00000120000000782600000992632CJ    QNYHVQN 005500360039
BI00B32CJ    JQN2113        202210287282-4578                HOUSING MALE ASS'Y       CCN000004800000004800FN00000000020221101000004800NNM   20220829121837    4N0N  00000120000000782600000992632CJ    QNYHVQN 005500360039
BI00B32CJ    JQN2114        202211047282-4578                HOUSING MALE ASS'Y       CCN000008400000008400FN00000000020221101000008400NNM   20220829121837    4N0N  00000120000000782600000992632CJ    QNYHVQN 005500360039
BI00B32CJ    JQN2112        202210217283-1156                CONNECTOR                CCN000007200000007200FN00000000020221101000007200NNM   20220829121837    4N0N  00000080000000877600001078032CJ    QNYHVQN 005600390040
BI00B32CJ    JQN2113        202210287283-1156                CONNECTOR                CCN000010400000010400FN00000000020221101000010400NNM   20220829121837    4N0N  00000080000000877600001078032CJ    QNYHVQN 005600390040
BI00B32CJ    JQN2114        202211047283-1156                CONNECTOR                CCN000009600000009600FN00000000020221101000009600NNM   20220829121837    4N0N  00000080000000877600001078032CJ    QNYHVQN 005600390040
BI00B32CJ    JQN2112        202210217283-4576                HOUSING FEMALE ASS'Y     CCN000033600000033600FN00000000020221101000033600NNM   20220829121837    4N0N  00000480000000651300000871332CJ    QNYHVQN 005500360039
BI00B32CJ    JQN2113        202210287283-4576                HOUSING FEMALE ASS'Y     CCN000048000000048000FN00000000020221101000048000NNM   20220829121837    4N0N  00000480000000651300000871332CJ    QNYHVQN 005500360039
BI00B32CJ    JQN2114        202211047283-4576                HOUSING FEMALE ASS'Y     CCN000038400000038400FN00000000020221101000038400NNM   20220829121837    4N0N  00000480000000651300000871332CJ    QNYHVQN 005500360039
BI00B32CJ    JQN2113        202210287283-4576-30             HOUSING FEMALE ASS'Y     CCN000004800000004800FN00000000020221101000004800NNM   20220829121837    4N0N  00000480000000651300000871332CJ    QNYHVQN 005500360039
BI00B32CJ    JQN2114        202211047283-4576-30             HOUSING FEMALE ASS'Y     CCN000004800000004800FN00000000020221101000004800NNM   20220829121837    4N0N  00000480000000651300000871332CJ    QNYHVQN 005500360039
BI00B32CJ    JQN2112        202210217283-4577                CONNECTOR HOUSING        CCN000004800000004800FN00000000020221101000004800NNM   20220829121837    4N0N  00000480000000916800001136832CJ    QNYHVQN 005500360039
BI00B32CJ    JQN2113        202210287283-4577                CONNECTOR HOUSING        CCN000009600000009600FN00000000020221101000009600NNM   20220829121837    4N0N  00000480000000916800001136832CJ    QNYHVQN 005500360039
BI00B32CJ    JQN2114        202211047283-4577                CONNECTOR HOUSING        CCN000004800000004800FN00000000020221101000004800NNM   20220829121837    4N0N  00000480000000916800001136832CJ    QNYHVQN 005500360039
BI00B32CJ    JQN2112        202210217283-4854-40             CONNECTOR HOUSING        CCN000002400000002400FN00000000020221101000002400NNM   20220829121837    4N0N  00000240000000694100000914132CJ    QNYHVQN 005500360039
BI00B32CJ    JQN2113        202210287283-4854-40             CONNECTOR HOUSING        CCN000004800000004800FN00000000020221101000004800NNM   20220829121837    4N0N  00000240000000694100000914132CJ    QNYHVQN 005500360039
BI00B32CJ    JQN2114        202211047283-4854-40             CONNECTOR HOUSING        CCN000004800000004800FN00000000020221101000004800NNM   20220829121837    4N0N  00000240000000694100000914132CJ    QNYHVQN 005500360039
BI00B32CJ    JQN2112        202210217283-5845                CONNECTOR HOUSING        CCN000006000000006000FN00000000020221101000006000NNM   20220829121837    1N0N  00000600000000444000000606332CJ    QNYHVQN 005400370024
BI00B32CJ    JQN2113        202210287283-5845                CONNECTOR HOUSING        CCN000012000000012000FN00000000020221101000012000NNM   20220829121837    1N0N  00000600000000444000000606332CJ    QNYHVQN 005400370024
BI00B32CJ    JQN2114        202211047283-5845                CONNECTOR HOUSING        CCN000006000000006000FN00000000020221101000006000NNM   20220829121837    1N0N  00000600000000444000000606332CJ    QNYHVQN 005400370024
BI00B32CJ    JQN2111        202210177286-1899                HOUSING SUB ASSEMBLY     CCN000003360000003360FN00000000020221101000003360NNM   20220829121837    4N0N  00000033600000814800001010832CJ    QNYHVQN 005400370024
BI00B32CJ    JQN2112        202210217286-1899                HOUSING SUB ASSEMBLY     CCN000002688000002688FN00000000020221101000002688NNM   20220829121837    4N0N  00000033600000814800001010832CJ    QNYHVQN 005400370024
BI00B32CJ    JQN2113        202210287286-1899                HOUSING SUB ASSEMBLY     CCN000003360000003360FN00000000020221101000003360NNM   20220829121837    4N0N  00000033600000814800001010832CJ    QNYHVQN 005400370024
BI00B32CJ    JQN2114        202211047286-1899                HOUSING SUB ASSEMBLY     CCN000003360000003360FN00000000020221101000003360NNM   20220829121837    4N0N  00000033600000814800001010832CJ    QNYHVQN 005400370024
BI00B32CJ    JQN2112        202210217286-1900                CONNECTOR HOUSING        CCN000004800000004800FN00000000020221101000004800NNM   20220829121837    4N0N  00000480000001161600001376632CJ    QNYHVQN 005500360039
BI00B32CJ    JQN2114        202211047286-1900                CONNECTOR HOUSING        CCN000004800000004800FN00000000020221101000004800NNM   20220829121837    4N0N  00000480000001161600001376632CJ    QNYHVQN 005500360039
BI00B32CJ    JQN2113        202210287286-4097                CONNECTOR MALE ASS'Y     CCN000003200000003200FN00000000020221101000003200NNM   20220829121837    1N0N  00000160000000768000000978032CJ    QNYHVQN 005500360039
BI00B32CJ    JQN2114        202211047286-4097                CONNECTOR MALE ASS'Y     CCN000003200000003200FN00000000020221101000003200NNM   20220829121837    1N0N  00000160000000768000000978032CJ    QNYHVQN 005500360039
BI00B32CJ    JQN2111        202210177287-3885                HYBRID FEMALE ASS'Y      CCN000002400000002400FN00000000020221101000002400NNM   20220829121837    1N0N  00000240000001029600001249632CJ    QNYHVQN 005500360039
BI00B32CJ    JQN2112        202210217287-3885                HYBRID FEMALE ASS'Y      CCN000007200000007200FN00000000020221101000007200NNM   20220829121837    1N0N  00000240000001029600001249632CJ    QNYHVQN 005500360039
BI00B32CJ    JQN2113        202210287287-3885                HYBRID FEMALE ASS'Y      CCN000009600000009600FN00000000020221101000009600NNM   20220829121837    1N0N  00000240000001029600001249632CJ    QNYHVQN 005500360039
BI00B32CJ    JQN2114        202211047287-3885                HYBRID FEMALE ASS'Y      CCN000007200000007200FN00000000020221101000007200NNM   20220829121837    1N0N  00000240000001029600001249632CJ    QNYHVQN 005500360039
BI00B32CJ    JQN2111        202210177287-8642-40             HOUSING FEMALE ASS'Y     CCN000002800000002800FN00000000020221101000002800NNM   20220829121837    4N0N  00000280000000915600001107632CJ    QNYHVQN 005400370024
BI00B32CJ    JQN2112        202210217287-8642-40             HOUSING FEMALE ASS'Y     CCN000002800000002800FN00000000020221101000002800NNM   20220829121837    4N0N  00000280000000915600001107632CJ    QNYHVQN 005400370024
BI00B32CJ    JQN2113        202210287287-8642-40             HOUSING FEMALE ASS'Y     CCN000002800000002800FN00000000020221101000002800NNM   20220829121837    4N0N  00000280000000915600001107632CJ    QNYHVQN 005400370024
BI00B32CJ    JQN2114        202211047288-6547                CONNECTOR MALE ASS'Y     CCN000000750000000750FN00000000020221101000000750NNM   20220829121837    4N0N  00000075000001205300001340332CJ    QNYHVQN 005400370024
BI00B32CJ    JQN2111        202210177289-3342                HOUSING FEMALE ASS'Y     CCN000012000000012000FN00000000020221101000012000NNM   20220829121837    1N0N  00000240000000686400000901432CJ    QNYHVQN 005500360039
BI00B32CJ    JQN2112        202210217289-3342                HOUSING FEMALE ASS'Y     CCN000016800000016800FN00000000020221101000016800NNM   20220829121837    1N0N  00000240000000686400000901432CJ    QNYHVQN 005500360039
BI00B32CJ    JQN2113        202210287289-3342                HOUSING FEMALE ASS'Y     CCN000021600000021600FN00000000020221101000021600NNM   20220829121837    1N0N  00000240000000686400000901432CJ    QNYHVQN 005500360039
BI00B32CJ    JQN2114        202211047289-3342                HOUSING FEMALE ASS'Y     CCN000019200000019200FN00000000020221101000019200NNM   20220829121837    1N0N  00000240000000686400000901432CJ    QNYHVQN 005500360039
BI00B32CJ    JQN2111        202210177289-3342-30             HOUSING FEMALE ASS'Y     CCN000012000000012000FN00000000020221101000012000NNM   20220829121837    1N0N  00000240000000686400000901432CJ    QNYHVQN 005500360039
BI00B32CJ    JQN2112        202210217289-3342-30             HOUSING FEMALE ASS'Y     CCN000012000000012000FN00000000020221101000012000NNM   20220829121837    1N0N  00000240000000686400000901432CJ    QNYHVQN 005500360039
BI00B32CJ    JQN2113        202210287289-3342-30             HOUSING FEMALE ASS'Y     CCN000024000000024000FN00000000020221101000024000NNM   20220829121837    1N0N  00000240000000686400000901432CJ    QNYHVQN 005500360039
BI00B32CJ    JQN2114        202211047289-3342-30             HOUSING FEMALE ASS'Y     CCN000024000000024000FN00000000020221101000024000NNM   20220829121837    1N0N  00000240000000686400000901432CJ    QNYHVQN 005500360039
BI00B32CJ    JQN2111        202210177289-3342-40             HOUSING FEMALE ASS'Y     CCN000002400000002400FN00000000020221101000002400NNM   20220829121837    1N0N  00000240000000686400000901432CJ    QNYHVQN 005500360039
BI00B32CJ    JQN2112        202210217289-3342-40             HOUSING FEMALE ASS'Y     CCN000004800000004800FN00000000020221101000004800NNM   20220829121837    1N0N  00000240000000686400000901432CJ    QNYHVQN 005500360039
BI00B32CJ    JQN2113        202210287289-3342-40             HOUSING FEMALE ASS'Y     CCN000002400000002400FN00000000020221101000002400NNM   20220829121837    1N0N  00000240000000686400000901432CJ    QNYHVQN 005500360039
BI00B32CJ    JQN2114        202211047289-3342-40             HOUSING FEMALE ASS'Y     CCN000004800000004800FN00000000020221101000004800NNM   20220829121837    1N0N  00000240000000686400000901432CJ    QNYHVQN 005500360039
BI00B32CJ    JQN2112        202210217289-3342-90             HOUSING FEMALE ASS'Y     CCN000004800000004800FN00000000020221101000004800NNM   20220829121837    1N0N  00000240000000686400000901432CJ    QNYHVQN 005500360039
BI00B32CJ    JQN2113        202210287289-3342-90             HOUSING FEMALE ASS'Y     CCN000012000000012000FN00000000020221101000012000NNM   20220829121837    1N0N  00000240000000686400000901432CJ    QNYHVQN 005500360039
BI00B32CJ    JQN2114        202211047289-3342-90             HOUSING FEMALE ASS'Y     CCN000009600000009600FN00000000020221101000009600NNM   20220829121837    1N0N  00000240000000686400000901432CJ    QNYHVQN 005500360039
BI00B32CJ    JQN2111        202210177289-6868-30             SEALED ASSY FEMALE       CCN000002520000002520FN00000000020221101000002520NNM   20220829121837    4N0N  00000252000000839200001119232CJ    QNYHVQN 005500360039
BI00B32CJ    JQN2112        202210217289-6868-30             SEALED ASSY FEMALE       CCN000002520000002520FN00000000020221101000002520NNM   20220829121837    4N0N  00000252000000839200001119232CJ    QNYHVQN 005500360039
BI00B32CJ    JQN2113        202210287289-6868-30             SEALED ASSY FEMALE       CCN000007560000007560FN00000000020221101000007560NNM   20220829121837    4N0N  00000252000000839200001119232CJ    QNYHVQN 005500360039
BI00B32CJ    JQN2114        202211047289-6868-30             SEALED ASSY FEMALE       CCN000005040000005040FN00000000020221101000005040NNM   20220829121837    4N0N  00000252000000839200001119232CJ    QNYHVQN 005500360039
BI00B32CJ    JQN2112        202210217298-3822-70             HOUSING FEMALE ASS'Y     CCN000002520000002520FN00000000020221101000002520NNM   20220829121837    4N0N  00000252000000776200001077032CJ    QNYHVQN 005500360039
BI00B32CJ    JQN2113        202210287298-3822-70             HOUSING FEMALE ASS'Y     CCN000002520000002520FN00000000020221101000002520NNM   20220829121837    4N0N  00000252000000776200001077032CJ    QNYHVQN 005500360039
BI00B32CJ    JQN2111        202210177298-4094-10             HOUSING FEMALE ASS'Y     CCN000003380000003380FN00000000020221101000003380NNM   20220829121837    4N0N  00000338000001097400001358732CJ    QNYHVQN 005400370024
BI00B32CJ    JQN2112        202210217298-4094-10             HOUSING FEMALE ASS'Y     CCN000003380000003380FN00000000020221101000003380NNM   20220829121837    4N0N  00000338000001097400001358732CJ    QNYHVQN 005400370024
BI00B32CJ    JQN2114        202211047298-4094-10             HOUSING FEMALE ASS'Y     CCN000003380000003380FN00000000020221101000003380NNM   20220829121837    4N0N  00000338000001097400001358732CJ    QNYHVQN 005400370024
BI00B32CJ    JQN2112        202210217327-6987-3W             BATTERY FUSE             CCN000001440000001440FN00000000020221101000001440NNM   20220829121837    4N0N  00000007200000511300000711532CJ    QNYHVQN 005500360039
BI00B32CJ    JQN2113        202210287327-6987-3W             BATTERY FUSE             CCN000002376000002376FN00000000020221101000002376NNM   20220829121837    4N0N  00000007200000511300000711532CJ    QNYHVQN 005500360039
BI00B32CJ    JQN2114        202211047327-6987-3W             BATTERY FUSE             CCN000001944000001944FN00000000020221101000001944NNM   20220829121837    4N0N  00000007200000511300000711532CJ    QNYHVQN 005500360039
BI00B32CJ    JQN2112        202210217386-2747                CONNECTOR ASS'Y          CCN000001500000002000FN00000000020221101000002000NNM   20220829121837    4N0N  00000200000001162000001284532CJ    QNYHVQN 005400370024
BI00B32CJ    JQN2113        202210287386-2747                CONNECTOR ASS'Y          CCN000001500000002000FN00000000020221101000002000NNM   20220829121837    4N0N  00000200000001162000001284532CJ    QNYHVQN 005400370024
BI00B32CJ    JQN2114        202211047386-2747                CONNECTOR ASS'Y          CCN000001000000002000FN00000000020221101000002000NNM   20220829121837    4N0N  00000200000001162000001284532CJ    QNYHVQN 005400370024
BI00B32CJ    JQN2111        202210177388-0317-60             CONNECTOR ASS'Y          CCN000005250000006000FN00000000020221101000006000NNM   20220829121837    4N0N  00000120000001034400001129332CJ    QNYHVQN 005400370024
BI00B32CJ    JQN2112        202210217388-0317-60             CONNECTOR ASS'Y          CCN000004500000004800FN00000000020221101000004800NNM   20220829121837    4N0N  00000120000001034400001129332CJ    QNYHVQN 005400370024
BI00B32CJ    JQN2113        202210287388-0317-60             CONNECTOR ASS'Y          CCN000005250000006000FN00000000020221101000006000NNM   20220829121837    4N0N  00000120000001034400001129332CJ    QNYHVQN 005400370024
BI00B32CJ    JQN2114        202211047388-0317-60             CONNECTOR ASS'Y          CCN000004500000004800FN00000000020221101000004800NNM   20220829121837    4N0N  00000120000001034400001129332CJ    QNYHVQN 005400370024
BI00B32CJ    JQN2111        202210177116-5750-02             TERMINAL                 CCN000030000000030000FN00000000020221101000030000NNM   20220829121837    4P0P  00001500000000457500000742732CJ    QNYHVQN 006400630015
BI00B32CJ    JQN2112        202210217116-5750-02             TERMINAL                 CCN000030000000030000FN00000000020221101000030000NNM   20220829121837    4P0P  00001500000000457500000742732CJ    QNYHVQN 006400630015
BI00B32CJ    JQN2113        202210287116-5750-02             TERMINAL                 CCN000060000000060000FN00000000020221101000060000NNM   20220829121837    4P0P  00001500000000457500000742732CJ    QNYHVQN 006400630015
BI00B32CJ    JQN2114        202211047116-5750-02             TERMINAL                 CCN000075000000075000FN00000000020221101000075000NNM   20220829121837    4P0P  00001500000000457500000742732CJ    QNYHVQN 006400630015
BI00B32CJ    JQN2112        202210217116-5752-02             TERMINAL                 CCN000042000000042000FN00000000020221101000042000NNM   20220829121837    4P0P  00002100000000571200000856432CJ    QNYHVQN 006400630015
BI00B32CJ    JQN2113        202210287116-5752-02             TERMINAL                 CCN000063000000063000FN00000000020221101000063000NNM   20220829121837    4P0P  00002100000000571200000856432CJ    QNYHVQN 006400630015
BI00B32CJ    JQN2114        202211047116-5752-02             TERMINAL                 CCN000063000000063000FN00000000020221101000063000NNM   20220829121837    4P0P  00002100000000571200000856432CJ    QNYHVQN 006400630015
BI00B32CJ    JQN2111        202210177158-3009-60             RUBBER STOPPER           CCN000160000000160000FN00000000020221101000160000NNM   20220829121837    1C0C  00002000000000338000000386232CJ    QNYHVQN 002700430014
BI00B32CJ    JQN2112        202210217158-3009-60             RUBBER STOPPER           CCN000160000000160000FN00000000020221101000160000NNM   20220829121837    1C0C  00002000000000338000000386232CJ    QNYHVQN 002700430014
BI00B32CJ    JQN2113        202210287158-3009-60             RUBBER STOPPER           CCN000180000000180000FN00000000020221101000180000NNM   20220829121837    1C0C  00002000000000338000000386232CJ    QNYHVQN 002700430014
BI00B32CJ    JQN2114        202211047158-3009-60             RUBBER STOPPER           CCN000160000000160000FN00000000020221101000160000NNM   20220829121837    1C0C  00002000000000338000000386232CJ    QNYHVQN 002700430014
BI00B32CJ    #JQN2111       202210177047-5654-30             CLIP                     CCN000010000000010000FN00000000020221101000010000NNM   20220829121837    2F0F  00000500000000657000000825332CJ    QNYHVQN 005500360039
BI00B32CJ    #JQN2112       202210217047-5654-30             CLIP                     CCN000005000000005000FN00000000020221101000005000NNM   20220829121837    2F0F  00000500000000657000000825332CJ    QNYHVQN 005500360039
BI00B32CJ    #JQN2113       202210287047-5654-30             CLIP                     CCN000010000000010000FN00000000020221101000010000NNM   20220829121837    2F0F  00000500000000657000000825332CJ    QNYHVQN 005500360039
BI00B32CJ    #JQN2114       202211047047-5654-30             CLIP                     CCN000005000000005000FN00000000020221101000005000NNM   20220829121837    2F0F  00000500000000657000000825332CJ    QNYHVQN 005500360039
BI00B32CJ    #JQN2112       202210217114-4022                TERMINAL                 CCN000015000000015000FN00000000020221101000015000NNM   20220829121837    2F0P  00001500000000708000001120632CJ    QNYHVQN 006400630015
BI00B32CJ    #JQN2112       202210217123-6347                CONNECTOR HOUSING        CCN000001600000001600FN00000000020221101000001600NNM   20220829121837    2F0F  00000160000000647000000904832CJ    QNYHVQN 005500360039
BI00B32CJ    #JQN2113       202210287123-6347                CONNECTOR HOUSING        CCN000003200000003200FN00000000020221101000003200NNM   20220829121837    2F0F  00000160000000647000000904832CJ    QNYHVQN 005500360039
BI00B32CJ    #JQN2114       202211047123-6347                CONNECTOR HOUSING        CCN000003200000003200FN00000000020221101000003200NNM   20220829121837    2F0F  00000160000000647000000904832CJ    QNYHVQN 005500360039
BI00B32CJ    #JQN2112       202210217158-3003-90             RUBBER STOPPER           CCN000020000000020000FN00000000020221101000020000NNM   20220829121837    2C0C  00002000000000250000000306032CJ    QNYHVQN 002700430014
BI00B32CJ    #JQN2113       202210287158-3003-90             RUBBER STOPPER           CCN000020000000020000FN00000000020221101000020000NNM   20220829121837    2C0C  00002000000000250000000306032CJ    QNYHVQN 002700430014
BI00B32CJ    #JQN2114       202211047158-3003-90             RUBBER STOPPER           CCN000020000000020000FN00000000020221101000020000NNM   20220829121837    2C0C  00002000000000250000000306032CJ    QNYHVQN 002700430014
BI00B32CJ    #JQN2112       202210217158-3005-80             RUBBER STOPPER           CCN000020000000020000FN00000000020221101000020000NNM   20220829121837    2H0H  00002000000000210000000268732CJ    QNYHVQN 002700430014
BI00B32CJ    #JQN2111       202210177158-3008-80             RUBBER STOPPER           CCN000020000000020000FN00000000020221101000020000NNM   20220829121837    2C0C  00002000000000288000000343032CJ    QNYHVQN 004300270014
BI00B32CJ    #JQN2112       202210217158-3008-80             RUBBER STOPPER           CCN000020000000020000FN00000000020221101000020000NNM   20220829121837    2C0C  00002000000000288000000343032CJ    QNYHVQN 004300270014
BI00B32CJ    #JQN2113       202210287158-3008-80             RUBBER STOPPER           CCN000040000000040000FN00000000020221101000040000NNM   20220829121837    2C0C  00002000000000288000000343032CJ    QNYHVQN 004300270014
BI00B32CJ    #JQN2114       202211047158-3008-80             RUBBER STOPPER           CCN000040000000040000FN00000000020221101000040000NNM   20220829121837    2C0C  00002000000000288000000343032CJ    QNYHVQN 004300270014
BI00B32CJ    #JQN2111       202210177158-3015-10             RUBBER STOPPER           CCN000020000000020000FN00000000020221101000020000NNM   20220829121837    2C0C  00001000000000419500000474032CJ    QNYHVQN 002700430014
BI00B32CJ    #JQN2112       202210217158-3015-10             RUBBER STOPPER           CCN000010000000010000FN00000000020221101000010000NNM   20220829121837    2C0C  00001000000000419500000474032CJ    QNYHVQN 002700430014
BI00B32CJ    #JQN2113       202210287158-3015-10             RUBBER STOPPER           CCN000010000000010000FN00000000020221101000010000NNM   20220829121837    2C0C  00001000000000419500000474032CJ    QNYHVQN 002700430014
BI00B32CJ    #JQN2114       202211047158-3015-10             RUBBER STOPPER           CCN000010000000010000FN00000000020221101000010000NNM   20220829121837    2C0C  00001000000000419500000474032CJ    QNYHVQN 002700430014
BI00B32CJ    #JQN2112       202210217158-3017                RUBBER STOPPER           CCN000010000000010000FN00000000020221101000010000NNM   20220829121837    2C0C  00001000000000375500000435032CJ    QNYHVQN 002700430014
BI00B32CJ    #JQN2113       202210287158-3017                RUBBER STOPPER           CCN000010000000010000FN00000000020221101000010000NNM   20220829121837    2C0C  00001000000000375500000435032CJ    QNYHVQN 002700430014
BI00B32CJ    #JQN2111       202210177158-3120-90             CONNECTOR WIRE SEAL      CCN000040000000040000FN00000000020221101000040000NNM   20220829121837    2C0C  00002000000000136000000194032CJ    QNYHVQN 002700430014
BI00B32CJ    #JQN2112       202210217158-3120-90             CONNECTOR WIRE SEAL      CCN000080000000080000FN00000000020221101000080000NNM   20220829121837    2C0C  00002000000000136000000194032CJ    QNYHVQN 002700430014
BI00B32CJ    #JQN2113       202210287158-3120-90             CONNECTOR WIRE SEAL      CCN000080000000080000FN00000000020221101000080000NNM   20220829121837    2C0C  00002000000000136000000194032CJ    QNYHVQN 002700430014
BI00B32CJ    #JQN2114       202211047158-3120-90             CONNECTOR WIRE SEAL      CCN000080000000080000FN00000000020221101000080000NNM   20220829121837    2C0C  00002000000000136000000194032CJ    QNYHVQN 002700430014
BI00B32CJ    #JQN2112       202210217158-3121-80             WIRE SEAL                CCN000020000000020000FN00000000020221101000020000NNM   20220829121837    2C0C  00002000000000118000000187332CJ    QNYHVQN 002700430014
BI00B32CJ    #JQN2113       202210287158-3121-80             WIRE SEAL                CCN000040000000040000FN00000000020221101000040000NNM   20220829121837    2C0C  00002000000000118000000187332CJ    QNYHVQN 002700430014
BI00B32CJ    #JQN2114       202211047158-3121-80             WIRE SEAL                CCN000040000000040000FN00000000020221101000040000NNM   20220829121837    2C0C  00002000000000118000000187332CJ    QNYHVQN 002700430014
BI00B32CJ    #JQN2111       202210177172-5629-80             RUBBER STOPPER           CCN000240000000240000FN00000000020221101000240000NNM   20220829121837    2H0H  00002000000000060000000111132CJ    QNYHVQN 004300270014
BI00B32CJ    #JQN2112       202210217172-5629-80             RUBBER STOPPER           CCN000220000000220000FN00000000020221101000220000NNM   20220829121837    2H0H  00002000000000060000000111132CJ    QNYHVQN 004300270014
BI00B32CJ    #JQN2113       202210287172-5629-80             RUBBER STOPPER           CCN000280000000280000FN00000000020221101000280000NNM   20220829121837    2H0H  00002000000000060000000111132CJ    QNYHVQN 004300270014
BI00B32CJ    #JQN2114       202211047172-5629-80             RUBBER STOPPER           CCN000220000000220000FN00000000020221101000220000NNM   20220829121837    2H0H  00002000000000060000000111132CJ    QNYHVQN 004300270014
BI00B32CJ    #JQN2111       202210177172-5630-40             RUBBER STOPPER           CCN000020000000020000FN00000000020221101000020000NNM   20220829121837    2H0H  00002000000000044000000095132CJ    QNYHVQN 004300270014
BI00B32CJ    #JQN2112       202210217172-5630-40             RUBBER STOPPER           CCN000040000000040000FN00000000020221101000040000NNM   20220829121837    2H0H  00002000000000044000000095132CJ    QNYHVQN 004300270014
BI00B32CJ    #JQN2113       202210287172-5630-40             RUBBER STOPPER           CCN000040000000040000FN00000000020221101000040000NNM   20220829121837    2H0H  00002000000000044000000095132CJ    QNYHVQN 004300270014
BI00B32CJ    #JQN2114       202211047172-5630-40             RUBBER STOPPER           CCN000040000000040000FN00000000020221101000040000NNM   20220829121837    2H0H  00002000000000044000000095132CJ    QNYHVQN 004300270014
BI00B32CJ    #JQN2113       202210287172-5631-60             RUBBER STOPPER           CCN000020000000020000FN00000000020221101000020000NNM   20220829121837    2H0H  00002000000000042000000093132CJ    QNYHVQN 004300270014
BI00B32CJ    #JQN2111       202210177172-5632-10             DUMMY PLUG               CCN000080000000080000FN00000000020221101000080000NNM   20220829121837    2H0H  00002000000000080400000131832CJ    QNYHVQN 004300270014
BI00B32CJ    #JQN2112       202210217172-5632-10             DUMMY PLUG               CCN000100000000100000FN00000000020221101000100000NNM   20220829121837    2H0H  00002000000000080400000131832CJ    QNYHVQN 004300270014
BI00B32CJ    #JQN2113       202210287172-5632-10             DUMMY PLUG               CCN000140000000140000FN00000000020221101000140000NNM   20220829121837    2H0H  00002000000000080400000131832CJ    QNYHVQN 004300270014
BI00B32CJ    #JQN2114       202211047172-5632-10             DUMMY PLUG               CCN000120000000120000FN00000000020221101000120000NNM   20220829121837    2H0H  00002000000000080400000131832CJ    QNYHVQN 004300270014
BI00B32CJ    #JQN2112       202210217183-1616                CONNECTOR HOUSING        CCN000004800000004800FN00000000020221101000004800NNM   20220829121837    2F0F  00000240000000557500000823332CJ    QNYHVQN 005500360039
BI00B32CJ    #JQN2113       202210287183-1616                CONNECTOR HOUSING        CCN000004800000004800FN00000000020221101000004800NNM   20220829121837    2F0F  00000240000000557500000823332CJ    QNYHVQN 005500360039
BI00B32CJ    #JQN2114       202211047183-1616                CONNECTOR HOUSING        CCN000004800000004800FN00000000020221101000004800NNM   20220829121837    2F0F  00000240000000557500000823332CJ    QNYHVQN 005500360039
BI00B32CJ    #JQN2111       202210177183-2413                CONNECTOR HOUSING        CCN000024000000024000FN00000000020221101000024000NNM   20220829121837    2F0F  00000480000000478100000760032CJ    QNYHVQN 005500360039
BI00B32CJ    #JQN2112       202210217183-2413                CONNECTOR HOUSING        CCN000019200000019200FN00000000020221101000019200NNM   20220829121837    2F0F  00000480000000478100000760032CJ    QNYHVQN 005500360039
BI00B32CJ    #JQN2113       202210287183-2413                CONNECTOR HOUSING        CCN000019200000019200FN00000000020221101000019200NNM   20220829121837    2F0F  00000480000000478100000760032CJ    QNYHVQN 005500360039
BI00B32CJ    #JQN2114       202211047183-2413                CONNECTOR HOUSING        CCN000014400000014400FN00000000020221101000014400NNM   20220829121837    2F0F  00000480000000478100000760032CJ    QNYHVQN 005500360039
BI00B32CJ    #JQN2112       202210217183-2415                CONNECTOR HOUSING        CCN000004800000004800FN00000000020221101000004800NNM   20220829121837    2F0F  00000480000000798200001091432CJ    QNYHVQN 005500360039
BI00B32CJ    #JQN2113       202210287183-2415                CONNECTOR HOUSING        CCN000009600000009600FN00000000020221101000009600NNM   20220829121837    2F0F  00000480000000798200001091432CJ    QNYHVQN 005500360039
BI00B32CJ    #JQN2114       202211047183-2415                CONNECTOR HOUSING        CCN000009600000009600FN00000000020221101000009600NNM   20220829121837    2F0F  00000480000000798200001091432CJ    QNYHVQN 005500360039
BI00B32CJ    #JQN2112       202210217183-2415-40             CONNECTOR HOUSING        CCN000004800000004800FN00000000020221101000004800NNM   20220829121837    2F0F  00000480000000798200001091432CJ    QNYHVQN 005500360039
BI00B32CJ    #JQN2113       202210287183-2415-40             CONNECTOR HOUSING        CCN000009600000009600FN00000000020221101000009600NNM   20220829121837    2F0F  00000480000000798200001091432CJ    QNYHVQN 005500360039
BI00B32CJ    #JQN2114       202211047183-2415-40             CONNECTOR HOUSING        CCN000004800000004800FN00000000020221101000004800NNM   20220829121837    2F0F  00000480000000798200001091432CJ    QNYHVQN 005500360039
BI00B32CJ    #JQN2112       202210217183-2418                CONNECTOR HOUSING        CCN000004800000004800FN00000000020221101000004800NNM   20220829121837    2F0F  00000480000000917000001477032CJ    QNYHVQN 005500360039
BI00B32CJ    #JQN2113       202210287183-2418                CONNECTOR HOUSING        CCN000004800000004800FN00000000020221101000004800NNM   20220829121837    2F0F  00000480000000917000001477032CJ    QNYHVQN 005500360039
BI00B32CJ    #JQN2114       202211047183-2418                CONNECTOR HOUSING        CCN000004800000004800FN00000000020221101000004800NNM   20220829121837    2F0F  00000480000000917000001477032CJ    QNYHVQN 005500360039
BI00B32CJ    #JQN2112       202210217183-2418-30             CONNECTOR HOUSING        CCN000004800000004800FN00000000020221101000004800NNM   20220829121837    2F0F  00000480000000917000001235332CJ    QNYHVQN 005500360039
BI00B32CJ    #JQN2113       202210287183-2418-30             CONNECTOR HOUSING        CCN000004800000004800FN00000000020221101000004800NNM   20220829121837    2F0F  00000480000000917000001235332CJ    QNYHVQN 005500360039
BI00B32CJ    #JQN2114       202211047183-2418-30             CONNECTOR HOUSING        CCN000004800000004800FN00000000020221101000004800NNM   20220829121837    2F0F  00000480000000917000001235332CJ    QNYHVQN 005500360039
BI00B32CJ    #JQN2111       202210177183-2419                HOUSING                  CCN000004800000004800FN00000000020221101000004800NNM   20220829121837    2F0F  00000480000001065600001352732CJ    QNYHVQN 005500360039
BI00B32CJ    #JQN2112       202210217183-2419                HOUSING                  CCN000004800000004800FN00000000020221101000004800NNM   20220829121837    2F0F  00000480000001065600001352732CJ    QNYHVQN 005500360039
BI00B32CJ    #JQN2113       202210287183-2419                HOUSING                  CCN000009600000009600FN00000000020221101000009600NNM   20220829121837    2F0F  00000480000001065600001352732CJ    QNYHVQN 005500360039
BI00B32CJ    #JQN2114       202211047183-2419                HOUSING                  CCN000009600000009600FN00000000020221101000009600NNM   20220829121837    2F0F  00000480000001065600001352732CJ    QNYHVQN 005500360039
BI00B32CJ    #JQN2111       202210177186-8851                HOUSING MALE             CCN000003000000003000FN00000000020221101000003000NNM   20220829121837    2F0F  00000100000000782200000906232CJ    QNYHVQN 005400370024
BI00B32CJ    #JQN2112       202210217186-8851                HOUSING MALE             CCN000004000000004000FN00000000020221101000004000NNM   20220829121837    2F0F  00000100000000782200000906232CJ    QNYHVQN 005400370024
BI00B32CJ    #JQN2113       202210287186-8851                HOUSING MALE             CCN000006000000006000FN00000000020221101000006000NNM   20220829121837    2F0F  00000100000000782200000906232CJ    QNYHVQN 005400370024
BI00B32CJ    #JQN2114       202211047186-8851                HOUSING MALE             CCN000005000000005000FN00000000020221101000005000NNM   20220829121837    2F0F  00000100000000782200000906232CJ    QNYHVQN 005400370024
BI00B32CJ    #JQN2111       202210177187-1616                HOUSING FEMALE           CCN000008000000008000FN00000000020221101000008000NNM   20220829121837    2F0F  00000400000001152000001262032CJ    QNYHVQN 005500360039
BI00B32CJ    #JQN2112       202210217187-1616                HOUSING FEMALE           CCN000012000000012000FN00000000020221101000012000NNM   20220829121837    2F0F  00000400000001152000001262032CJ    QNYHVQN 005500360039
BI00B32CJ    #JQN2113       202210287187-1616                HOUSING FEMALE           CCN000012000000012000FN00000000020221101000012000NNM   20220829121837    2F0F  00000400000001152000001262032CJ    QNYHVQN 005500360039
BI00B32CJ    #JQN2114       202211047187-1616                HOUSING FEMALE           CCN000008000000008000FN00000000020221101000008000NNM   20220829121837    2F0F  00000400000001152000001262032CJ    QNYHVQN 005500360039
BI00B32CJ    #JQN2111       202210177189-3038                HOUSING FEMALE           CCN000001600000001600FN00000000020221101000001600NNM   20220829121837    2F0F  00000160000000817600000850132CJ    QNYHVQN 005500360039
BI00B32CJ    #JQN2112       202210217189-3038                HOUSING FEMALE           CCN000003200000003200FN00000000020221101000003200NNM   20220829121837    2F0F  00000160000000817600000850132CJ    QNYHVQN 005500360039
BI00B32CJ    #JQN2113       202210287189-3038                HOUSING FEMALE           CCN000003200000003200FN00000000020221101000003200NNM   20220829121837    2F0F  00000160000000817600000850132CJ    QNYHVQN 005500360039
BI00B32CJ    #JQN2114       202211047189-3038                HOUSING FEMALE           CCN000001600000001600FN00000000020221101000001600NNM   20220829121837    2F0F  00000160000000817600000850132CJ    QNYHVQN 005500360039
BI00B32CJ    #JQN2111       202210177198-5394                HOUSING FEMALE           CCN000019200000019200FN00000000020221101000019200NNM   20220829121837    2F0F  00000480000000489700000688832CJ    QNYHVQN 005500360039
BI00B32CJ    #JQN2112       202210217198-5394                HOUSING FEMALE           CCN000019200000019200FN00000000020221101000019200NNM   20220829121837    2F0F  00000480000000489700000688832CJ    QNYHVQN 005500360039
BI00B32CJ    #JQN2113       202210287198-5394                HOUSING FEMALE           CCN000019200000019200FN00000000020221101000019200NNM   20220829121837    2F0F  00000480000000489700000688832CJ    QNYHVQN 005500360039
BI00B32CJ    #JQN2114       202211047198-5394                HOUSING FEMALE           CCN000014400000014400FN00000000020221101000014400NNM   20220829121837    2F0F  00000480000000489700000688832CJ    QNYHVQN 005500360039
BI00B32CJ    #JQN2111       202210177282-1641                CONNECTOR                CCN000006000000006000FN00000000020221101000006000NNM   20220829121837    2N0N  00000200000000813000000986032CJ    QNYHVQN 005500360039
BI00B32CJ    #JQN2112       202210217282-1641                CONNECTOR                CCN000010000000010000FN00000000020221101000010000NNM   20220829121837    2N0N  00000200000000813000000986032CJ    QNYHVQN 005500360039
BI00B32CJ    #JQN2113       202210287282-1641                CONNECTOR                CCN000010000000010000FN00000000020221101000010000NNM   20220829121837    2N0N  00000200000000813000000986032CJ    QNYHVQN 005500360039
BI00B32CJ    #JQN2114       202211047282-1641                CONNECTOR                CCN000008000000008000FN00000000020221101000008000NNM   20220829121837    2N0N  00000200000000813000000986032CJ    QNYHVQN 005500360039
BI00B32CJ    #JQN2111       202210177282-5528-70             HOUSING MALE ASS'Y       CCN000045000000045000FN00000000020221101000045000NNM   20220829121837    2N0N  00000100000000230000000339032CJ    QNYHVQN 005400370024
BI00B32CJ    #JQN2112       202210217282-5528-70             HOUSING MALE ASS'Y       CCN000023000000023000FN00000000020221101000023000NNM   20220829121837    2N0N  00000100000000230000000339032CJ    QNYHVQN 005400370024
BI00B32CJ    #JQN2113       202210287282-5528-70             HOUSING MALE ASS'Y       CCN000028000000028000FN00000000020221101000028000NNM   20220829121837    2N0N  00000100000000230000000339032CJ    QNYHVQN 005400370024
BI00B32CJ    #JQN2114       202211047282-5528-70             HOUSING MALE ASS'Y       CCN000023000000023000FN00000000020221101000023000NNM   20220829121837    2N0N  00000100000000230000000339032CJ    QNYHVQN 005400370024
BI00B32CJ    #JQN2111       202210177283-8123                CONNECTOR HOUSING        CCN000004000000004000FN00000000020221101000004000NNM   20220829121837    2N0N  00000400000000380000000531732CJ    QNYHVQN 005600390023
BI00B32CJ    #JQN2112       202210217283-8123                CONNECTOR HOUSING        CCN000008000000008000FN00000000020221101000008000NNM   20220829121837    2N0N  00000400000000380000000531732CJ    QNYHVQN 005600390023
BI00B32CJ    #JQN2113       202210287283-8123                CONNECTOR HOUSING        CCN000004000000004000FN00000000020221101000004000NNM   20220829121837    2N0N  00000400000000380000000531732CJ    QNYHVQN 005600390023
BI00B32CJ    #JQN2114       202211047283-8123                CONNECTOR HOUSING        CCN000008000000008000FN00000000020221101000008000NNM   20220829121837    2N0N  00000400000000380000000531732CJ    QNYHVQN 005600390023
BI00B32CJ    #JQN2111       202210177283-8123-40             CONNECTOR HOUSING        CCN000004000000004000FN00000000020221101000004000NNM   20220829121837    2N0N  00000400000000380000000530032CJ    QNYHVQN 005600390023
BI00B32CJ    #JQN2112       202210217283-8123-40             CONNECTOR HOUSING        CCN000008000000008000FN00000000020221101000008000NNM   20220829121837    2N0N  00000400000000380000000530032CJ    QNYHVQN 005600390023
BI00B32CJ    #JQN2113       202210287283-8123-40             CONNECTOR HOUSING        CCN000004000000004000FN00000000020221101000004000NNM   20220829121837    2N0N  00000400000000380000000530032CJ    QNYHVQN 005600390023
BI00B32CJ    #JQN2114       202211047283-8123-40             CONNECTOR HOUSING        CCN000004000000004000FN00000000020221101000004000NNM   20220829121837    2N0N  00000400000000380000000530032CJ    QNYHVQN 005600390023
BI00B32CJ    #JQN2112       202210217286-7860                HOUSING MALE ASS'Y       CCN000006600000007200FN00000000020221101000007200NNM   20220829121837    2N0N  00000080000000951700001139832CJ    QNYHVQN 005400370024
BI00B32CJ    #JQN2113       202210287286-7860                HOUSING MALE ASS'Y       CCN000009600000009600FN00000000020221101000009600NNM   20220829121837    2N0N  00000080000000951700001139832CJ    QNYHVQN 005400370024
BI00B32CJ    #JQN2114       202211047286-7860                HOUSING MALE ASS'Y       CCN000006600000007200FN00000000020221101000007200NNM   20220829121837    2N0N  00000080000000951700001139832CJ    QNYHVQN 005400370024
BI00B32CJ    #JQN2111       202210177287-1669                HOUSING FEMALE ASS'Y     CCN000010000000010000FN00000000020221101000010000NNM   20220829121837    2N0N  00000200000000788800000980832CJ    QNYHVQN 005400370024
BI00B32CJ    #JQN2112       202210217287-1669                HOUSING FEMALE ASS'Y     CCN000016000000016000FN00000000020221101000016000NNM   20220829121837    2N0N  00000200000000788800000980832CJ    QNYHVQN 005400370024
BI00B32CJ    #JQN2113       202210287287-1669                HOUSING FEMALE ASS'Y     CCN000020000000020000FN00000000020221101000020000NNM   20220829121837    2N0N  00000200000000788800000980832CJ    QNYHVQN 005400370024
BI00B32CJ    #JQN2114       202211047287-1669                HOUSING FEMALE ASS'Y     CCN000016000000016000FN00000000020221101000016000NNM   20220829121837    2N0N  00000200000000788800000980832CJ    QNYHVQN 005400370024
BI00B32CJ    #JQN2111       202210177287-1670                HOUSING FEMALE ASS'Y     CCN000014000000014000FN00000000020221101000014000NNM   20220829121837    2N0N  00000280000000953100001145132CJ    QNYHVQN 005400370024
BI00B32CJ    #JQN2112       202210217287-1670                HOUSING FEMALE ASS'Y     CCN000014000000014000FN00000000020221101000014000NNM   20220829121837    2N0N  00000280000000953100001145132CJ    QNYHVQN 005400370024
BI00B32CJ    #JQN2113       202210287287-1670                HOUSING FEMALE ASS'Y     CCN000019600000019600FN00000000020221101000019600NNM   20220829121837    2N0N  00000280000000953100001145132CJ    QNYHVQN 005400370024
BI00B32CJ    #JQN2114       202211047287-1670                HOUSING FEMALE ASS'Y     CCN000016800000016800FN00000000020221101000016800NNM   20220829121837    2N0N  00000280000000953100001145132CJ    QNYHVQN 005400370024
BI00B32CJ    #JQN2111       202210177287-1671                HOUSING FEMALE ASS'Y     CCN000014000000014000FN00000000020221101000014000NNM   20220829121837    2N0N  00000200000000782600000974632CJ    QNYHVQN 005400370024
BI00B32CJ    #JQN2112       202210217287-1671                HOUSING FEMALE ASS'Y     CCN000014000000014000FN00000000020221101000014000NNM   20220829121837    2N0N  00000200000000782600000974632CJ    QNYHVQN 005400370024
BI00B32CJ    #JQN2113       202210287287-1671                HOUSING FEMALE ASS'Y     CCN000020000000020000FN00000000020221101000020000NNM   20220829121837    2N0N  00000200000000782600000974632CJ    QNYHVQN 005400370024
BI00B32CJ    #JQN2114       202211047287-1671                HOUSING FEMALE ASS'Y     CCN000016000000016000FN00000000020221101000016000NNM   20220829121837    2N0N  00000200000000782600000974632CJ    QNYHVQN 005400370024
BI00B32CJ    #JQN2111       202210177287-1674                HYBRID FEMALE ASS'Y      CCN000010000000010000FN00000000020221101000010000NNM   20220829121837    2N0N  00000200000000810800001002832CJ    QNYHVQN 005400370024
BI00B32CJ    #JQN2112       202210217287-1674                HYBRID FEMALE ASS'Y      CCN000014000000014000FN00000000020221101000014000NNM   20220829121837    2N0N  00000200000000810800001002832CJ    QNYHVQN 005400370024
BI00B32CJ    #JQN2113       202210287287-1674                HYBRID FEMALE ASS'Y      CCN000020000000020000FN00000000020221101000020000NNM   20220829121837    2N0N  00000200000000810800001002832CJ    QNYHVQN 005400370024
BI00B32CJ    #JQN2114       202211047287-1674                HYBRID FEMALE ASS'Y      CCN000016000000016000FN00000000020221101000016000NNM   20220829121837    2N0N  00000200000000810800001002832CJ    QNYHVQN 005400370024
BI00B32CJ    #JQN2111       202210177287-1915                CONNECTOR ASS'Y          CCN000009600000009600FN00000000020221101000009600NNM   20220829121837    2N0N  00000240000000666500000923132CJ    QNYHVQN 005500360039
BI00B32CJ    #JQN2112       202210217287-1915                CONNECTOR ASS'Y          CCN000007200000007200FN00000000020221101000007200NNM   20220829121837    2N0N  00000240000000666500000923132CJ    QNYHVQN 005500360039
BI00B32CJ    #JQN2113       202210287287-1915                CONNECTOR ASS'Y          CCN000012000000012000FN00000000020221101000012000NNM   20220829121837    2N0N  00000240000000666500000923132CJ    QNYHVQN 005500360039
BI00B32CJ    #JQN2114       202211047287-1915                CONNECTOR ASS'Y          CCN000009600000009600FN00000000020221101000009600NNM   20220829121837    2N0N  00000240000000666500000923132CJ    QNYHVQN 005500360039
BI00B32CJ    #JQN2112       202210217287-1915-30             CONNECTOR ASS'Y          CCN000002400000002400FN00000000020221101000002400NNM   20220829121837    2N0N  00000240000000666500000923132CJ    QNYHVQN 005500360039
BI00B32CJ    #JQN2113       202210287287-1915-30             CONNECTOR ASS'Y          CCN000004800000004800FN00000000020221101000004800NNM   20220829121837    2N0N  00000240000000666500000923132CJ    QNYHVQN 005500360039
BI00B32CJ    #JQN2114       202211047287-1915-30             CONNECTOR ASS'Y          CCN000004800000004800FN00000000020221101000004800NNM   20220829121837    2N0N  00000240000000666500000923132CJ    QNYHVQN 005500360039
BI00B32CJ    #JQN2111       202210177287-7022                CONNECTOR FEMALE         CCN000001200000001200FN00000000020221101000001200NNM   20220829121837    2NON  00000120000000742800000853032CJ    QNYHVQN 005400370024
BI00B32CJ    #JQN2112       202210217287-7022                CONNECTOR FEMALE         CCN000001200000001200FN00000000020221101000001200NNM   20220829121837    2NON  00000120000000742800000853032CJ    QNYHVQN 005400370024
BI00B32CJ    #JQN2113       202210287287-7022                CONNECTOR FEMALE         CCN000002400000002400FN00000000020221101000002400NNM   20220829121837    2NON  00000120000000742800000853032CJ    QNYHVQN 005400370024
BI00B32CJ    #JQN2114       202211047287-7022                CONNECTOR FEMALE         CCN000001200000001200FN00000000020221101000001200NNM   20220829121837    2NON  00000120000000742800000853032CJ    QNYHVQN 005400370024
BI00B32D1    DGTC2245H      202210207285-1755-0W             HOUSING FEMALE ASS'Y     CCN000001000000001120FN00000000020221001000001120NNED0720220829133659    4N0N  00000014000000000000000000032D1    TOYOT-K 000000000000
BI00B32D1    #DGTC2245H     202210207137-3420-30             UNIT PACKING             CCN000001000000001000FN00000000020221001000001000NNED0720220829133648    2F0F  00000100000000000000000000032D1    TOYOT-K 000000000000
BI00B32D1    #DGTC2245H     202210207185-1757                HOUSING FEMALE           CCN000001000000001000FN00000000020221001000001000NNED0720220829133648    2F0F  00000100000000000000000000032D1    TOYOT-K 000000000000
BI00B32D1    #DGTC2245H     202210207185-6056                REAR COVER               CCN000001000000001440FN00000000020221001000001440NNED0720220829133648    2F0F  00000048000000000000000000032D1    TOYOT-K 000000000000
BI00B32D1    #DGTC2245H     202210207185-9378-51             FRONT HOLDER             CCN000001000000001000FN00000000020221001000001000NNED0720220829133648    2F0F  00000100000000000000000000032D1    TOYOT-K 000000000000
BI00A32J1    397792         202209057298-2507-30             HOUSING FEMALE ASS'Y     CCN000022800000022800FN00000000020220801000022800NNED0720220829121837    4N0N  00000120000000713200000914532J1    UKYEL-BL005500360039
BI00T32K8    #K1220011631   202210077137-2200                CONNECTOR PACKING        CCN000005000000005000FN00000000020230101000005000NNM   20220829121837    2C0C  00000500000000136000000211332K8    ELELCOM 004300270014
BI00A32M3    #QA-22-C075    202208317187-8856                HOUSING FEMALE           PNN000014000000014000FN00000000020220801000014000NNE   20220829121837    2F0F  00000200000000820000000931532M3    SASAMI  005400370024
BI00B32N1    NST2122HCU     202209157114-4020                TERMINAL                 CCN000084000000084000FN00000000020221001000084000NNE   20220829121837    4P0P  00002100000000875700001169332N1    TAYIPL  006400630015
BI00B32N1    NST2122HCU     202209157114-4415-02             TERMINAL MALE            CCN000054000000054000FN00000000020221001000054000NNE   20220829121837    4P0P  00002700000000429300000717532N1    TAYIPL  006400630015
BI00B32N1    NST2122HCU     202209157116-3154-02             TERMINAL FEMALE          CCN000108000000108000FN00000000020221001000108000NNE   20220829121837    4P0P  00002700000000469800000755032N1    TAYIPL  006400630015
BI00B32N1    NST2122HCU     202209157116-4122-02             TERMINAL                 CCN000004500000004500FN00000000020221001000004500NNE   20220829121837    4P0P  00000450000000656600000950232N1    TAYIPL  006400630015
BI00B32N1    NST2122HCU     202209157116-4231-02             TERMINAL                 CCN000026000000026000FN00000000020221001000026000NNE   20220829121837    4P0P  00002600000000683800001012532N1    TAYIPL  006400630017
BI00B32N1    NST2122HCU     202209157116-4416-02             TERMINAL                 CCN000096000000096000FN00000000020221001000096000NNE   20220829121837    4P0P  00003200000000518400000847132N1    TAYIPL  006400630017
BI00B32N1    NST2122HCU     202209157158-3070-80             RUBBER STOPPER           CCN000080000000080000FN00000000020221001000080000NNE   20220829121837    1C0C  00004000000000276000000333332N1    TAYIPL  002700430014
BI00B32N1    NST2122HCU     202209157172-5540-80             SEALED WIRE SEAL         CCN000080000000080000FN00000000020221001000080000NNE   20220829121837    1C0C  00002000000000186000000234432N1    TAYIPL  004300270014
BI00B32N1    NST2122HCU     202209157196-0805-02             TERMINAL FEMALE          CCN000090000000090000FN00000000020221001000090000NNE   20220829121837    4P0P  00002250000000558000000843232N1    TAYIPL  006400630015
BI00B32N1    NST2122HCU     202209157283-5830                CONNECTOR                CCN000054000000054000FN00000000020221001000054000NNE   20220829121837    1N47  00000600000000954000001104032N1    TAYIPL  005500360039
BI00B32N1    NST2122HCU     202209157283-5830-30             CONNECTOR                CCN000060000000060000FN00000000020221001000060000NNE   20220829121837    1N0N  00000600000000954000001104032N1    TAYIPL  005500360039
BI00B32N1    #NST2122HCU    202209157116-4021                TERMINAL                 CCN000027000000027000FN00000000020221001000027000NNE   20220829121837    2F0P  00001350000000534600000868832N1    TAYIPL  006400630015
BI00B32N1    #NST2122HCU    202209157123-7923-40             CONNECTOR                CCN000007500000007500FN00000000020221001000007500NNE   20220829121837    2F0F  00000150000001492500001665932N1    TAYIPL  005600390040
BI00B32N1    #NST2122HCU    202209157157-3646                RUBBER STOPPER           CCN000060000000060000FN00000000020221001000060000NNE   20220829121837    2H0H  00002000000000184000000255232N1    TAYIPL  002700430014
BI00B32N1    #NST2122HCU    202209157157-3950-80             SEAL RUBBER              CCN000040000000040000FN00000000020221001000040000NNE   20220829121837    2C0C  00004000000000154000000440332N1    TAYIPL  002700430014
BI00B32N1    #NST2122HCU    202209157157-7812                SEAL RUBBER              CCN000250000000250000FN00000000020221001000250000NNE   20220829121837    2C0C  00001000000000137000000202032N1    TAYIPL  002700430014
BI00B32N1    #NST2122HCU    202209157157-7897-60             SEAL RUBBER              CCN000010000000010000FN00000000020221001000010000NNE   20220829121837    2C0C  00001000000000132000000214732N1    TAYIPL  002700430014
BI00B32N1    #NST2122HCU    202209157158-3121-80             WIRE SEAL                CCN000120000000120000FN00000000020221001000120000NNE   20220829121837    2C0C  00002000000000118000000187332N1    TAYIPL  002700430014
