BI00B32DE    TT210D         2022091518007703973              AVSS 0.5F Y/B            CCN000001500000001500FN00000000020221001000001500NNE   20220829084700    1W    00000150000000674000000000032DE    TVYEV-TV000000000000VW528007
BI00B32DE    TT210D         2022091518007704130              AVSS 1.25F B             CCN000001600000001600FN00000000020221001000001600NNE   20220829084700    1W    00000080000001389000000000032DE    TVYEV-TV000000000000VW528008
BI00B32DE    TT210D         2022091518007704160              AVSS 1.25F G             CCN000001600000001600FN00000000020221001000001600NNE   20220829084700    1W    00000080000001389000000000032DE    TVYEV-TV000000000000VW528009
BI00B32DE    TT210D         2022091518007704143              AVSS 1.25F W/B           CCN000000800000000800FN00000000020221001000000800NNE   20220829084700    1W    00000080000001389000000000032DE    TVYEV-TV000000000000VW528010
BI00B32DE    TT210D         20220915180D0203980              AVSSH 0.5F BR            CCN000003000000003000FN00000000020221001000003000NNE   20220829084700    1W    00000150000000689000000000032DE    TVYEV-TV000000000000VW528001
BI00B32DE    TT210D         20220915180D0203995              AVSSH 0.5F L/R           CCN000001500000001500FN00000000020221001000001500NNE   20220829084700    1W    00000150000000689000000000032DE    TVYEV-TV000000000000VW528002
BI00B32DE    TT210D         20220915180D0203953              AVSSH 0.5F R/B           CCN000001500000001500FN00000000020221001000001500NNE   20220829084700    1W    00000150000000689000000000032DE    TVYEV-TV000000000000VW528003
BI00B32DE    TT210D         20220915180D0203959              AVSSH 0.5F R/L           CCN000001500000001500FN00000000020221001000001500NNE   20220829084700    1W    00000150000000689000000000032DE    TVYEV-TV000000000000VW528004
BI00B32DE    TT210D         20220915180D0203954              AVSSH 0.5F R/W           CCN000001500000001500FN00000000020221001000001500NNE   20220829084700    1W    00000150000000689000000000032DE    TVYEV-TV000000000000VW528005
BI00B32DE    TT210D         20220915180D0204149              AVSSH 1.25F W/L          CCN000001600000001600FN00000000020221001000001600NNE   20220829084700    1W    00000080000001458000000000032DE    TVYEV-TV000000000000VW528006
BI00B32DE    @TT210D        20220922181E50005ZZ              AVSSCS-S 0.5FX1 DGY/W    CCN000000400000000400FN00000000020221001000000400NNE   20220829084659    1W    00000040000001909700000000032DE    TVYEV-TV000000000000VR129002
BI00B32DE    @TT210D        20220922181E50013ZZ              AVSSCS-S 0.5FX1 DGY/G    CCN000000400000000400FN00000000020221001000000400NNE   20220829084659    1W    00000040000001909700000000032DE    TVYEV-TV000000000000VR129001
BI00B32DE    @TT210D        20220922181E50027ZZ              AVSSCS-S 0.5FX3 DGY/G    CCN000003250000003250FN00000000020221001000003250NNE   20220829084659    1W    00000025000003265000000000032DE    TVYEV-TV000000000000VR129003
BI00B32DE    @TT210D        20220922181F21004ZZ              AVSSHCS-S 0.5FX1 B/R     CCN000000400000000400FN00000000020221001000000400NNE   20220829084659    1W    00000040000001908400000000032DE    TVYEV-TV000000000000VR129004
BI00B32DE    @TT210D        20220922181F21006ZZ              AVSSHCS-S 0.5FX1 B/Y     CCN000000800000000800FN00000000020221001000000800NNE   20220829084659    1W    00000040000001908400000000032DE    TVYEV-TV000000000000VR129005
BI00B32DE    @TT210D        20220922181F21029ZZ              AVSSHCS-S 1.25FX2 B/Y    CCN000000200000000200FN00000000020221001000000200NNE   20220829084659    1W    00000020000004267300000000032DE    TVYEV-TV000000000000VR129006
BI00B32GE    DHTW2247       2022092918000004530              AV 8 B                   CCN000036000000036000FN00000000020221101000036000NNM   20220829085243    1W    00000010000010466200000000032GE    GEYKHT  000000000000RA229063
BI00B32GE    DHTW2247       2022092918000004534              AV 8 B/W                 CCN000003300000003300FN00000000020221101000003300NNM   20220829085243    1W    00000010000010466200000000032GE    GEYKHT  000000000000RA229065
BI00B32GE    DHTW2247       2022092918000004535              AV 8 B/R                 CCN000003300000003300FN00000000020221101000003300NNM   20220829085243    1W    00000010000010466200000000032GE    GEYKHT  000000000000RA229064
BI00B32GE    DHTW2247       2022092918000004540              AV 8 W                   CCN000020000000020000FN00000000020221101000020000NNM   20220829085243    1W    00000010000010466200000000032GE    GEYKHT  000000000000RA229068
BI00B32GE    DHTW2247       2022092918000004543              AV 8 W/B                 CCN000015700000015700FN00000000020221101000015700NNM   20220829085243    1W    00000010000010466200000000032GE    GEYKHT  000000000000RA229069
BI00B32GE    DHTW2247       2022092918000004550              AV 8 R                   CCN000002100000002100FN00000000020221101000002100NNM   20220829085243    1W    00000010000010466200000000032GE    GEYKHT  000000000000RA229067
BI00B32GE    DHTW2247       2022092918000004590              AV 8 L                   CCN000002800000002800FN00000000020221101000002800NNM   20220829085243    1W    00000010000010466200000000032GE    GEYKHT  000000000000RA229066
BI00B32GE    @DHTW2247      20220929181AD2002ZZ              CIVUSAS-S 0.35X2 B       CCN000027000000027000FN00000000020221101000027000NNM   20220829085242    1W    00000045000001713700000000032GE    GEYKHT  000000000000RA229034
BI00B32GE    @DHTW2247      20220929181AD2003ZZ              CIVUSAS-S 0.35X3 B       CCN000015000000015050FN00000000020221101000015050NNM   20220829085242    1W    00000035000002172100000000032GE    GEYKHT  000000000000RA229035
BI00B32GE    @DHTW2247      20220929181AD2004ZZ              CIVUSAS-S 0.35X4 B       CCN000004400000004500FN00000000020221101000004500NNM   20220829085242    1W    00000030000002799900000000032GE    GEYKHT  000000000000RA229036
BI00B32GE    @DHTW2247      20220929181E48031ZZ              CAVSAS-S 0.3X2 GY        CCN000007700000007700FN00000000020221101000007700NNM   20220829085242    1W    00000035000002008700000000032GE    GEYKHT  000000000000RA229037
BI00B32GE    @DHTW2247      20220929181E48037ZZ              CAVSAS-S 0.3X4 GY        CCN000012000000012000FN00000000020221101000012000NNM   20220829085242    1W    00000025000003262000000000032GE    GEYKHT  000000000000RA229039
BI00B32GE    @DHTW2247      20220929181E48041ZZ              CAVSAS-S 0.3X2 GY/R      CCN000009100000009100FN00000000020221101000009100NNM   20220829085242    1W    00000035000002008700000000032GE    GEYKHT  000000000000RA229038
BI00B32GE    @DHTW2247      20220929181E50002ZZ              AVSSCS-S 0.3FX2 DGY/G    CCN000009100000009100FN00000000020221101000009100NNM   20220829085242    1W    00000035000002165000000000032GE    GEYKHT  000000000000RA229046
BI00B32GE    @DHTW2247      20220929181E50004ZZ              AVSSCS-S 0.5FX1 DGY      CCN000017200000017200FN00000000020221101000017200NNM   20220829085242    1W    00000040000001909700000000032GE    GEYKHT  000000000000RA229040
BI00B32GE    @DHTW2247      20220929181E50005ZZ              AVSSCS-S 0.5FX1 DGY/W    CCN000008800000008800FN00000000020221101000008800NNM   20220829085242    1W    00000040000001909700000000032GE    GEYKHT  000000000000RA229042
BI00B32GE    @DHTW2247      20220929181E50006ZZ              AVSSCS-S 0.5FX1 DGY/Y    CCN000002000000002000FN00000000020221101000002000NNM   20220829085242    1W    00000040000001909700000000032GE    GEYKHT  000000000000RA229043
BI00B32GE    @DHTW2247      20220929181E50007ZZ              AVSSCS-S 0.5FX1 DGY/L    CCN000008000000008000FN00000000020221101000008000NNM   20220829085242    1W    00000040000001909700000000032GE    GEYKHT  000000000000RA229041
BI00B32GE    @DHTW2247      20220929181E50016ZZ              AVSSCS-S 0.5FX2 DGY/R    CCN000002100000002100FN00000000020221101000002100NNM   20220829085242    1W    00000030000003096000000000032GE    GEYKHT  000000000000RA229044
BI00B32GE    @DHTW2247      20220929181E50020ZZ              AVSSCS-S 0.3FX2 DGY/R    CCN000005250000005250FN00000000020221101000005250NNM   20220829085242    1W    00000035000002165000000000032GE    GEYKHT  000000000000RA229048
BI00B32GE    @DHTW2247      20220929181E50021ZZ              AVSSCS-S 0.3FX2 DGY/P    CCN000006300000006300FN00000000020221101000006300NNM   20220829085242    1W    00000035000002165000000000032GE    GEYKHT  000000000000RA229047
BI00B32GE    @DHTW2247      20220929181E50036ZZ              AVSSCS-S 0.3FX2 DGY      CCN000008750000008750FN00000000020221101000008750NNM   20220829085242    1W    00000035000002165000000000032GE    GEYKHT  000000000000RA229045
BI00B32GE    @DHTW2247      20220929181F21014ZZ              AVSSHCS-S 0.5FX2 B/L     CCN000003900000003900FN00000000020221101000003900NNM   20220829085242    1W    00000030000002531400000000032GE    GEYKHT  000000000000RA229049
BI00B32M8    PM2210A MW     2022091418007704040              AVSS 0.75F W             CCN000001000000001000FN00000000020221001000001000NNE   20220829083917    1W    00000100000000943000000000032M8    PMPEMI  000000000000IA528001
BI00B32M8    PM2210A MW     2022091418007704150              AVSS 1.25F R             CCN000000800000000800FN00000000020221001000000800NNE   20220829083917    1W    00000080000001389000000000032M8    PMPEMI  000000000000IA528002
BI00B32M8    PM2210ATMW     202209141801W004070              IVSSH 0.75F Y            CCN000001300000001300FN00000000020221001000001300NNE   20220829083918    1W    00000130000000882000000000032M8    PMPEMI  000000000000IB528001
BI00B32N2    2152104174     20220914180D0204159              AVSSH 1.25F R/L          CCN000000800000000800FN00000000020220901000000800NNE   20220829084003    1W    00000080000001458000000000032N2    YWYIPLTC000000000000KV528001
BI00B32W4    4500199350     2022102518018403740              CAVS 0.3 W               CCN000004000000004000FN00000000020221001000004000NNE   20220829105839W41 1W    00000200000000471000000000032W41   HJYHK-J 000000000000OF22A012
BI00B32W4    4500199350     2022102518018403730              CAVS 0.3 B               CCN000010000000010000FN00000000020221001000010000NNE   20220829105839W41 1W    00000200000000471000000000032W41   HJYHK-J 000000000000OF22A006
BI00B32W4    4500199350     2022102518018403750              CAVS 0.3 R               CCN000004000000004000FN00000000020221001000004000NNE   20220829105839W41 1W    00000200000000471000000000032W41   HJYHK-J 000000000000OF22A010
BI00B32W4    4500199350     2022102518018403760              CAVS 0.3 G               CCN000004000000004000FN00000000020221001000004000NNE   20220829105839W41 1W    00000200000000471000000000032W41   HJYHK-J 000000000000OF22A008
BI00B32W4    4500199350     2022102518018403780              CAVS 0.3 BR              CCN000006000000006000FN00000000020221001000006000NNE   20220829105839W41 1W    00000200000000471000000000032W41   HJYHK-J 000000000000OF22A007
BI00B32W4    4500199350     2022102518018403792              CAVS 0.3 V               CCN000008000000008000FN00000000020221001000008000NNE   20220829105839W41 1W    00000200000000471000000000032W41   HJYHK-J 000000000000OF22A011
BI00B32W4    4500199350     2022102518018403741              CAVS 0.3 GY              CCN000002000000002000FN00000000020221001000002000NNE   20220829105839W41 1W    00000200000000471000000000032W41   HJYHK-J 000000000000OF22A009
BI00B32W4    4500199350     2022102518018403749              CAVS 0.3 W/L             CCN000002000000002000FN00000000020221001000002000NNE   20220829105839W41 1W    00000200000000471000000000032W41   HJYHK-J 000000000000OF22A013
BI00B32W4    4500199350     2022102518018403959              CAVS 0.5 R/L             CCN000001500000001500FN00000000020221001000001500NNE   20220829105839W41 1W    00000150000000677000000000032W41   HJYHK-J 000000000000OF22A017
BI00B32W4    4500199350     2022102518018403965              CAVS 0.5 G/R             CCN000001500000001500FN00000000020221001000001500NNE   20220829105839W41 1W    00000150000000677000000000032W41   HJYHK-J 000000000000OF22A015
BI00B32W4    4500199350     2022102518018403973              CAVS 0.5 Y/B             CCN000001500000001500FN00000000020221001000001500NNE   20220829105839W41 1W    00000150000000677000000000032W41   HJYHK-J 000000000000OF22A019
BI00B32W4    4500199350     2022102518018403930              CAVS 0.5 B               CCN000013500000013500FN00000000020221001000013500NNE   20220829105839W41 1W    00000150000000677000000000032W41   HJYHK-J 000000000000OF22A014
BI00B32W4    4500199350     2022102518018403950              CAVS 0.5 R               CCN000019500000019500FN00000000020221001000019500NNE   20220829105839W41 1W    00000150000000677000000000032W41   HJYHK-J 000000000000OF22A016
BI00B32W4    4500199350     2022102518018403992              CAVS 0.5 V               CCN000016500000016500FN00000000020221001000016500NNE   20220829105839W41 1W    00000150000000677000000000032W41   HJYHK-J 000000000000OF22A018
BI00B32W4    4500199350     2022102518018404030              CAVS 0.85 B              CCN000008000000008000FN00000000020221001000008000NNE   20220829105839W41 1W    00000100000000965000000000032W41   HJYHK-J 000000000000OF22A020
BI00B32W4    4500199350     2022102518018404050              CAVS 0.85 R              CCN000007000000007000FN00000000020221001000007000NNE   20220829105839W41 1W    00000100000000965000000000032W41   HJYHK-J 000000000000OF22A023
BI00B32W4    4500199350     2022102518018404060              CAVS 0.85 G              CCN000001000000001000FN00000000020221001000001000NNE   20220829105839W41 1W    00000100000000965000000000032W41   HJYHK-J 000000000000OF22A021
BI00B32W4    4500199350     2022102518018404070              CAVS 0.85 Y              CCN000007000000007000FN00000000020221001000007000NNE   20220829105839W41 1W    00000100000000965000000000032W41   HJYHK-J 000000000000OF22A026
BI00B32W4    4500199350     2022102518018404090              CAVS 0.85 L              CCN000003000000003000FN00000000020221001000003000NNE   20220829105839W41 1W    00000100000000965000000000032W41   HJYHK-J 000000000000OF22A022
BI00B32W4    4500199350     2022102518018404091              CAVS 0.85 SB             CCN000005000000005000FN00000000020221001000005000NNE   20220829105839W41 1W    00000100000000965000000000032W41   HJYHK-J 000000000000OF22A024
BI00B32W4    4500199350     2022102518018404092              CAVS 0.85 V              CCN000003000000003000FN00000000020221001000003000NNE   20220829105839W41 1W    00000100000000965000000000032W41   HJYHK-J 000000000000OF22A025
BI00B32W4    4500199350     2022102518018404130              CAVS 1.25 B              CCN000003200000003200FN00000000020221001000003200NNE   20220829105839W41 1W    00000080000001378000000000032W41   HJYHK-J 000000000000OF22A027
BI00B32W4    4500199350     2022102518018404150              CAVS 1.25 R              CCN000001600000001600FN00000000020221001000001600NNE   20220829105839W41 1W    00000080000001378000000000032W41   HJYHK-J 000000000000OF22A028
BI00B32W4    4500199350     2022102518001403960              AV 0.5F G                CCN000010000000010000FN00000000020221001000010000NNE   20220829105839W41 1W    00000100000000903000000000032W41   HJYHK-J 000000000000OF22A003
BI00B32W4    4500199350     2022102518001403964              AV 0.5F G/W              CCN000006000000006000FN00000000020221001000006000NNE   20220829105839W41 1W    00000100000000903000000000032W41   HJYHK-J 000000000000OF22A004
BI00B32W4    4500199350     2022102518001403930              AV 0.5F B                CCN000003000000003000FN00000000020221001000003000NNE   20220829105839W41 1W    00000100000000903000000000032W41   HJYHK-J 000000000000OF22A002
BI00B32W4    4500199350     2022102518001403946              AV 0.5F W/G              CCN000003000000003000FN00000000020221001000003000NNE   20220829105839W41 1W    00000100000000903000000000032W41   HJYHK-J 000000000000OF22A005
BI00B32W4    @4500199350    20221025181B32116Z6              AVSSCS 0.3FX2 DGY/V      CCN000000700000000700FN00000000020221001000000700NNE   20220829105838W41 1W    00000035000002276000000000032W41   HJYHK-J 000000000000OF22A001
BI00B32W4    4500199363     2022102518018403791              CAVS 0.3 SB              CCN000004000000004000FN00000000020221001000004000NNE   20220829105841W41 1W    00000200000000471000000000032W41   HJYHK-J 000000000000OI22A020
BI00B32W4    4500199363     2022102518018403740              CAVS 0.3 W               CCN000008000000008000FN00000000020221001000008000NNE   20220829105841W41 1W    00000200000000471000000000032W41   HJYHK-J 000000000000OI22A022
BI00B32W4    4500199363     2022102518018403730              CAVS 0.3 B               CCN000020000000020000FN00000000020221001000020000NNE   20220829105841W41 1W    00000200000000471000000000032W41   HJYHK-J 000000000000OI22A007
BI00B32W4    4500199363     2022102518018403750              CAVS 0.3 R               CCN000008000000008000FN00000000020221001000008000NNE   20220829105841W41 1W    00000200000000471000000000032W41   HJYHK-J 000000000000OI22A018
BI00B32W4    4500199363     2022102518018403760              CAVS 0.3 G               CCN000004000000004000FN00000000020221001000004000NNE   20220829105841W41 1W    00000200000000471000000000032W41   HJYHK-J 000000000000OI22A011
BI00B32W4    4500199363     2022102518018403770              CAVS 0.3 Y               CCN000008000000008000FN00000000020221001000008000NNE   20220829105841W41 1W    00000200000000471000000000032W41   HJYHK-J 000000000000OI22A024
BI00B32W4    4500199363     2022102518018403780              CAVS 0.3 BR              CCN000002000000002000FN00000000020221001000002000NNE   20220829105841W41 1W    00000200000000471000000000032W41   HJYHK-J 000000000000OI22A009
BI00B32W4    4500199363     2022102518018403790              CAVS 0.3 L               CCN000004000000004000FN00000000020221001000004000NNE   20220829105841W41 1W    00000200000000471000000000032W41   HJYHK-J 000000000000OI22A013
BI00B32W4    4500199363     2022102518018403792              CAVS 0.3 V               CCN000010000000010000FN00000000020221001000010000NNE   20220829105841W41 1W    00000200000000471000000000032W41   HJYHK-J 000000000000OI22A021
BI00B32W4    4500199363     2022102518018403761              CAVS 0.3 LG              CCN000002000000002000FN00000000020221001000002000NNE   20220829105841W41 1W    00000200000000471000000000032W41   HJYHK-J 000000000000OI22A016
BI00B32W4    4500199363     2022102518018403741              CAVS 0.3 GY              CCN000004000000004000FN00000000020221001000004000NNE   20220829105841W41 1W    00000200000000471000000000032W41   HJYHK-J 000000000000OI22A012
BI00B32W4    4500199363     2022102518018403751              CAVS 0.3 O               CCN000002000000002000FN00000000020221001000002000NNE   20220829105841W41 1W    00000200000000471000000000032W41   HJYHK-J 000000000000OI22A017
BI00B32W4    4500199363     2022102518018403735              CAVS 0.3 B/R             CCN000002000000002000FN00000000020221001000002000NNE   20220829105841W41 1W    00000200000000471000000000032W41   HJYHK-J 000000000000OI22A008
BI00B32W4    4500199363     2022102518018403753              CAVS 0.3 R/B             CCN000002000000002000FN00000000020221001000002000NNE   20220829105841W41 1W    00000200000000471000000000032W41   HJYHK-J 000000000000OI22A019
BI00B32W4    4500199363     2022102518018403793              CAVS 0.3 L/B             CCN000002000000002000FN00000000020221001000002000NNE   20220829105841W41 1W    00000200000000471000000000032W41   HJYHK-J 000000000000OI22A014
BI00B32W4    4500199363     2022102518018403795              CAVS 0.3 L/R             CCN000002000000002000FN00000000020221001000002000NNE   20220829105841W41 1W    00000200000000471000000000032W41   HJYHK-J 000000000000OI22A015
BI00B32W4    4500199363     2022102518018403784              CAVS 0.3 BR/W            CCN000006000000006000FN00000000020221001000006000NNE   20220829105841W41 1W    00000200000000471000000000032W41   HJYHK-J 000000000000OI22A010
BI00B32W4    4500199363     2022102518018403749              CAVS 0.3 W/L             CCN000010000000010000FN00000000020221001000010000NNE   20220829105841W41 1W    00000200000000471000000000032W41   HJYHK-J 000000000000OI22A023
BI00B32W4    4500199363     2022102518018403934              CAVS 0.5 B/W             CCN000003000000003000FN00000000020221001000003000NNE   20220829105841W41 1W    00000150000000677000000000032W41   HJYHK-J 000000000000OI22A026
BI00B32W4    4500199363     2022102518018403930              CAVS 0.5 B               CCN000010500000010500FN00000000020221001000010500NNE   20220829105841W41 1W    00000150000000677000000000032W41   HJYHK-J 000000000000OI22A025
BI00B32W4    4500199363     2022102518018403950              CAVS 0.5 R               CCN000009000000009000FN00000000020221001000009000NNE   20220829105841W41 1W    00000150000000677000000000032W41   HJYHK-J 000000000000OI22A028
BI00B32W4    4500199363     2022102518018403990              CAVS 0.5 L               CCN000001500000001500FN00000000020221001000001500NNE   20220829105841W41 1W    00000150000000677000000000032W41   HJYHK-J 000000000000OI22A027
BI00B32W4    4500199363     2022102518018404194              CAVS 1.25 L/W            CCN000001600000001600FN00000000020221001000001600NNE   20220829105841W41 1W    00000080000001378000000000032W41   HJYHK-J 000000000000OI22A029
BI00B32W4    4500199363     202210251801R706940              CIVUS 0.35 W             CCN000003000000003000FN00000000020221001000003000NNE   20220829105841W41 1W    00000300000000386000000000032W41   HJYHK-J 000000000000OI22A005
BI00B32W4    4500199363     202210251801R706930              CIVUS 0.35 B             CCN000003000000003000FN00000000020221001000003000NNE   20220829105841W41 1W    00000300000000386000000000032W41   HJYHK-J 000000000000OI22A003
BI00B32W4    4500199363     202210251801R706970              CIVUS 0.35 Y             CCN000006000000006000FN00000000020221001000006000NNE   20220829105841W41 1W    00000300000000386000000000032W41   HJYHK-J 000000000000OI22A006
BI00B32W4    4500199363     202210251801R706990              CIVUS 0.35 L             CCN000003000000003000FN00000000020221001000003000NNE   20220829105841W41 1W    00000300000000386000000000032W41   HJYHK-J 000000000000OI22A004
BI00B32W4    @4500199363    20221025181B0911611              CAVSAS 0.3X2 GY/L        CCN000002100000002100FN00000000020221001000002100NNE   20220829105839W41 1W    00000035000002254000000000032W41   HJYHK-J 000000000000OI22A001
BI00B32W4    @4500199363    20221025181B09116K3              CAVSAS 0.3X2 GY/P        CCN000001750000001750FN00000000020221001000001750NNE   20220829105839W41 1W    00000035000002254000000000032W41   HJYHK-J 000000000000OI22A002
