AE00TI102208290329/08/202200000000100000000000000000185KGM  00000000234KGM  7137-3001-30             COVER PACKING            7137300130               0         0         0         0    0    0    00000050000000050000000340000001700000
AE00TI102208290329/08/202200000003100000000000000005286KGM  00000006786KGM  7137-3047-30             UNIT PACKING             7137304730               0         0         0         0    0    0    00003100000000100000000189000058590000
AE00TI102208290329/08/202200000000800000000000000002645KGM  00000003088KGM  7158-3006-90             RUBBER STOPPER           7158300690               0         0         0         0    0    0    00016000000002000000000016000025600000
AE00TI102208290329/08/202200000000800000000000000002704KGM  00000003090KGM  7158-3009-60             RUBBER STOPPER           7158300960               0         0         0         0    0    0    00016000000002000000000012000019200000
AE00TI102208290329/08/202200000002200000000000000006072KGM  00000007333KGM  7158-3070-80             RUBBER STOPPER           7158307080               0         0         0         0    0    0    00088000000004000000000008000070400000
AE00TI102208290329/08/202200000006800000000000000007072KGM  00000010363KGM  7158-3166-60             WIRE SEAL                7158316660               0         0         0         0    0    0    00272000000004000000000004000108800000
AE00TI102208290329/08/202200000014800000000000000007104KGM  00000016132KGM  7158-3167-80             WIRE SEAL                7158316780               0         0         0         0    0    0    00296000000002000000000005000148000000
AE00TI102208290329/08/202200000006200000000000000002728KGM  00000005710KGM  7158-3168-80             SEALED                   7158316880               0         0         0         0    0    0    00124000000002000000000004000049600000
AE00TI102208290329/08/202200000002800000000000000004368KGM  00000005715KGM  7158-3169-40             SEALING PLUG             7158316940               0         0         0         0    0    0    00112000000004000000000006000067200000
AE00TI102208290329/08/202200000002500000000000000016340KGM  00000017543KGM  7172-5403-30             SEALED PACKING           7172540330               0         0         0         0    0    0    00010000000000400000000119000119000000
AE00TI102208290329/08/202200000001200000000000000002232KGM  00000002813KGM  7172-5540-80             SEALED WIRE SEAL         7172554080               0         0         0         0    0    0    00024000000002000000000010000024000000
AE00TI102208290329/08/202200000016000000000000000038016KGM  00000078016KGM  7271-1818-30             CASE SUB ASSY,ECU        7271181830               0         0         0         0    0    0    00000288000000001800009388000270374400
AE00TI102208290329/08/202200000001700000000000000019839KGM  00000023324KGM  7282-1248                HOUSING SUB ASSEMBLY     72821248                 0         0         0         0    0    0    00001020000000060000000490000049980000
AE00TI102208290329/08/202200000000700000000000000008169KGM  00000009604KGM  7282-1248-30             HOUSING SUB ASSEMBLY     7282124830               0         0         0         0    0    0    00000420000000060000000503000021126000
AE00TI102208290329/08/202200000000400000000000000005524KGM  00000006548KGM  7283-1288                CONNECTOR HOUSING        72831288                 0         0         0         0    0    0    00000480000000120000000781000037488000
AE00TI102208290329/08/202200000001300000000000000017953KGM  00000021281KGM  7283-1288-10             CONNECTOR HOUSING        7283128810               0         0         0         0    0    0    00001560000000120000000785000122460000
AE00TI102208290329/08/202200000000700000000000000009674KGM  00000011485KGM  7283-1288-40             CONNECTOR HOUSING        7283128840               0         0         0         0    0    0    00000840000000120000000785000065940000
