AE00TI102208290529/08/202200000000300000000000000000750KGM  00000000918KGM  7158-3003-90             RUBBER STOPPER           7158300390               0         0         0         0    0    0    00006000000002000000000012000007200000
AE00TI102208290529/08/202200000000200000000000000001459KGM  00000001666KGM  7182-2412                HOUSING MALE             71822412                 0         0         0         0    0    0    00000100000000050000000638000006380000
AE00TI102208290529/08/202200000000100000000000000000690KGM  00000000802KGM  7186-8845                HOUSING MALE             71868845                 0         0         0         0    0    0    00000300000000300000000149000004470000
AE00TI102208290529/08/202200000000200000000000000001196KGM  00000001442KGM  7198-1371                HOUSING FEMALE           71981371                 0         0         0         0    0    0    00000400000000200000000107000004280000
AE00TI102208290529/08/202200000000300000000000000002572KGM  00000002986KGM  7198-1372-60             HOUSING FEMALE           7198137260               0         0         0         0    0    0    00000600000000200000000149000008940000
AE00TI102208290529/08/202200000000300000000000000002465KGM  00000002842KGM  7198-1373                HOUSING FEMALE           71981373                 0         0         0         0    0    0    00000600000000200000000115000006900000
AE00TI102208290529/08/202200000004000000000000000009504KGM  00000019504KGM  7271-1818-30             CASE SUB ASSY,ECU        7271181830               0         0         0         0    0    0    00000072000000001800009388000067593600
AE00TI102208290529/08/202200000000300000000000000002894KGM  00000003524KGM  7282-4577                HOUSING MALE ASS'Y       72824577                 0         0         0         0    0    0    00000720000000240000000229000016488000
AE00TI102208290529/08/202200000000600000000000000004696KGM  00000005956KGM  7282-4578                HOUSING MALE ASS'Y       72824578                 0         0         0         0    0    0    00000720000000120000000255000018360000
AE00TI102208290529/08/202200000000500000000000000005316KGM  00000006416KGM  7282-4855                HOUSING MALE ASS'Y       72824855                 0         0         0         0    0    0    00000600000000120000000347000020820000
AE00TI102208290529/08/202200000000100000000000000000230KGM  00000000339KGM  7282-5528-70             HOUSING MALE ASS'Y       7282552870               0         0         0         0    0    0    00000100000000100000000434000004340000
AE00TI102208290529/08/202200000000100000000000000000620KGM  00000000732KGM  7282-7040-30             HOUSING MALE ASS'Y       7282704030               0         0         0         0    0    0    00000120000000120000000702000008424000
AE00TI102208290529/08/202200000001100000000000000011194KGM  00000013614KGM  7282-9391                HOUSING MALE ASS'Y       72829391                 0         0         0         0    0    0    00001320000000120000000325000042900000
AE00TI102208290529/08/202200000000500000000000000003257KGM  00000004357KGM  7283-4576                HOUSING FEMALE ASS'Y     72834576                 0         0         0         0    0    0    00002400000000480000000128000030720000
AE00TI102208290529/08/202200000000100000000000000000651KGM  00000000871KGM  7283-4576-30             HOUSING FEMALE ASS'Y     7283457630               0         0         0         0    0    0    00000480000000480000000131000006288000
AE00TI102208290529/08/202200000000200000000000000001675KGM  00000002115KGM  7283-4578                HOUSING FEMALE ASS'Y     72834578                 0         0         0         0    0    0    00000480000000240000000190000009120000
AE00TI102208290529/08/202200000000400000000000000003816KGM  00000004416KGM  7283-5830                CONNECTOR                72835830                 0         0         0         0    0    0    00002400000000600000000154000036960000
AE00TI102208290529/08/202200000000200000000000000001908KGM  00000002208KGM  7283-5830-30             CONNECTOR                7283583030               0         0         0         0    0    0    00001200000000600000000155000018600000
AE00TI102208290529/08/202200000000100000000000000000724KGM  00000000874KGM  7283-5832                CONNECTOR HOUSING        72835832                 0         0         0         0    0    0    00000240000000240000000206000004944000
AE00TI102208290529/08/202200000000400000000000000003556KGM  00000004528KGM  7283-5843                CONNECTOR                72835843                 0         0         0         0    0    0    00000600000000150000000280000016800000
AE00TI102208290529/08/202200000000200000000000000000888KGM  00000001213KGM  7283-5845                CONNECTOR HOUSING        72835845                 0         0         0         0    0    0    00001200000000600000000133000015960000
AE00TI102208290529/08/202200000000400000000000000003540KGM  00000004408KGM  7283-5846                HOUSING                  72835846                 0         0         0         0    0    0    00000600000000150000000241000014460000
AE00TI102208290529/08/202200000000200000000000000001828KGM  00000002286KGM  7283-6120                CONNECTOR HOUSING        72836120                 0         0         0         0    0    0    00000300000000150000000368000011040000
AE00TI102208290529/08/202200000000600000000000000002100KGM  00000002775KGM  7283-8721-30             HOUSING FEMALE ASS'Y     7283872130               0         0         0         0    0    0    00000600000000100000000415000024900000
AE00TI102208290529/08/202200000000100000000000000000794KGM  00000000907KGM  7283-8730-30             HOUSING FEMALE ASS'Y     7283873030               0         0         0         0    0    0    00000200000000200000000426000008520000
AE00TI102208290529/08/202200000000900000000000000008195KGM  00000010175KGM  7286-3885                CONNECTOR MALE ASS'Y     72863885                 0         0         0         0    0    0    00001080000000120000000295000031860000
AE00TI102208290529/08/202200000000100000000000000000911KGM  00000001131KGM  7286-3885-30             CONNECTOR MALE ASS'Y     7286388530               0         0         0         0    0    0    00000120000000120000000309000003708000
AE00TI102208290529/08/202200000000700000000000000006374KGM  00000007914KGM  7286-3885-40             CONNECTOR MALE ASS'Y     7286388540               0         0         0         0    0    0    00000840000000120000000313000026292000
AE00TI102208290529/08/202200000000100000000000000000667KGM  00000000923KGM  7287-1915                CONNECTOR ASS'Y          72871915                 0         0         0         0    0    0    00000240000000240000000161000003864000
AE00TI102208290529/08/202200000000100000000000000000667KGM  00000000923KGM  7287-1915-30             CONNECTOR ASS'Y          7287191530               0         0         0         0    0    0    00000240000000240000000167000004008000
AE00TI102208290529/08/202200000000200000000000000002122KGM  00000002625KGM  7287-1917                CONNECTOR FEMALE         72871917                 0         0         0         0    0    0    00000480000000240000000253000012144000
AE00TI102208290529/08/202200000000100000000000000000614KGM  00000000834KGM  7287-2705                HOUSING FEMALE ASS'Y     72872705                 0         0         0         0    0    0    00000960000000960000000148000014208000
AE00TI102208290529/08/202200000000500000000000000005148KGM  00000006248KGM  7287-3885                HYBRID FEMALE ASS'Y      72873885                 0         0         0         0    0    0    00001200000000240000000207000024840000
AE00TI102208290529/08/202200000000200000000000000002059KGM  00000002499KGM  7287-3885-40             HYBRID FEMALE ASS'Y      7287388540               0         0         0         0    0    0    00000480000000240000000216000010368000
AE00TI102208290529/08/202200000000500000000000000005832KGM  00000006932KGM  7287-8073                HOUSING FEMALE ASS'Y     72878073                 0         0         0         0    0    0    00001200000000240000000244000029280000
AE00TI102208290529/08/202200000000200000000000000002458KGM  00000002898KGM  7287-8999-30             HOUSING FEMALE ASS'Y     7287899930               0         0         0         0    0    0    00000960000000480000000168000016128000
AE00TI102208290529/08/202200000000300000000000000003686KGM  00000004346KGM  7287-9000                HOUSING FEMALE ASS'Y     72879000                 0         0         0         0    0    0    00001440000000480000000162000023328000
AE00TI102208290529/08/202200000000100000000000000000894KGM  00000001185KGM  7287-9234                JOINT CONNECTOR          72879234                 0         0         0         0    0    0    00000960000000960000000137000013152000
AE00TI102208290529/08/202200000000600000000000000002326KGM  00000004726KGM  7288-3206                HOUSING MALE ASS'Y       72883206                 0         0         0         0    0    0    00000612000000102000000351000021481200
AE00TI102208290529/08/202200000000400000000000000003468KGM  00000004048KGM  7288-3339-30             HOUSING MALE             7288333930               0         0         0         0    0    0    00000600000000150000000354000021240000
AE00TI102208290529/08/202200000005600000000000000038438KGM  00000050478KGM  7289-3342                HOUSING FEMALE ASS'Y     72893342                 0         0         0         0    0    0    00013440000000240000000186000249984000
AE00TI102208290529/08/202200000001500000000000000010296KGM  00000013521KGM  7289-3342-30             HOUSING FEMALE ASS'Y     7289334230               0         0         0         0    0    0    00003600000000240000000191000068760000
AE00TI102208290529/08/202200000001300000000000000008923KGM  00000011718KGM  7289-3342-40             HOUSING FEMALE ASS'Y     7289334240               0         0         0         0    0    0    00003120000000240000000192000059904000
AE00TI102208290529/08/202200000003200000000000000021965KGM  00000028845KGM  7289-3342-90             HOUSING FEMALE ASS'Y     7289334290               0         0         0         0    0    0    00007680000000240000000196000150528000
AE00TI102208290529/08/202200000000300000000000000002740KGM  00000003166KGM  7289-4696-30             HOUSING FEMALE ASS'Y     7289469630               0         0         0         0    0    0    00000600000000200000000410000024600000
AE00TI102208290529/08/202200000000300000000000000004054KGM  00000004999KGM  7289-6524-30             HOUSING FEMALE ASS'Y     7289652430               0         0         0         0    0    0    00000072000000024000004757000034250400
AE00TI102208290529/08/202200000000100000000000000001152KGM  00000001362KGM  7289-6547                HOUSING FEMALE ASS'Y     72896547                 0         0         0         0    0    0    00000240000000240000000229000005496000
AE00TI102208290529/08/202200000000600000000000000005035KGM  00000006715KGM  7289-6868-30             SEALED ASSY FEMALE       7289686830               0         0         0         0    0    0    00001512000000252000000332000050198400
AE00TI102208290529/08/202200000000200000000000000002324KGM  00000002569KGM  7386-2747                CONNECTOR ASS'Y          73862747                 0         0         0         0    0    0    00000400000000200000000413000016520000
AE00TI102208290529/08/202200000000200000000000000002489KGM  00000002740KGM  7386-9155                CONNECTOR MALE ASS'Y     73869155                 0         0         0         0    0    0    00000120000000060000002466000029592000
AE00TI102208290629/08/202200000002000000000000000017408KGM  00000025200KGM  7370-0309                J/B ASS'Y                73700309                 0         0         0         0    0    0    00000032000000001600028585000091472000
AE00TI102208290629/08/202200000001800000000000000023760KGM  00000028260KGM  7470-3082                J/B COMPLETE ASS'Y       74703082                 0         0         0         0    0    0    00000043200000002400031298000135207360
AE00TI102208290629/08/202200000001000000000000000000000KGM  00000000000KGM  7470-5783E               J/B COMPLETE ASS'Y       74705783E                0         0         0         0    0    0    00000010000000001000000000000000000000
AE00TI102208290629/08/202200000003500000000000000000000KGM  00000000000KGM  7470-5784D               J/B COMPLETE ASS'Y       74705784D                0         0         0         0    0    0    00000052500000001500000000000000000000
AE00TI102208290629/08/202200000007200000000000000000000KGM  00000000000KGM  7470-5784E               J/B COMPLETE ASS'Y       74705784E                0         0         0         0    0    0    00000072000000001000000000000000000000
AE00TI102208290629/08/202200000002600000000000000000000KGM  00000000000KGM  7470-5791D               J/B COMPLETE ASS'Y       74705791D                0         0         0         0    0    0    00000039000000001500000000000000000000
AE00TI102208290629/08/202200000002500000000000000000000KGM  00000000000KGM  7470-5791E               J/B COMPLETE ASS'Y       74705791E                0         0         0         0    0    0    00000025000000001000000000000000000000
