AE00TI102208290129/08/202200000000100000000000000000894KGM  00000001185KGM  7287-9234                JOINT CONNECTOR          72879234                 0         0         0         0    0    0    00000960000000960000000137000013152000
AE00TI102208290129/08/202200000001000000000000000008661KGM  00000010120KGM  7288-3338-30             HOUSING MALE             7288333830               0         0         0         0    0    0    00001500000000150000000354000053100000
AE00TI102208290129/08/202200000001400000000000000012138KGM  00000014168KGM  7288-3339-30             HOUSING MALE             7288333930               0         0         0         0    0    0    00002100000000150000000354000074340000
AE00TI102208290129/08/202200000000100000000000000001074KGM  00000001429KGM  7288-6598-70             HOUSING MALE ASS'Y       7288659870               0         0         0         0    0    0    00000144000000144000000911000013118400
AE00TI102208290129/08/202200000001100000000000000007550KGM  00000009915KGM  7289-3342                HOUSING FEMALE ASS'Y     72893342                 0         0         0         0    0    0    00002640000000240000000186000049104000
AE00TI102208290129/08/202200000001800000000000000015106KGM  00000020146KGM  7289-6868-30             SEALED ASSY FEMALE       7289686830               0         0         0         0    0    0    00004536000000252000000332000150595200
AE00TI102208290129/08/202200000003700000000000000037118KGM  00000044567KGM  7298-1865-30             HOUSING FEMALE ASS'Y     7298186530               0         0         0         0    0    0    00008880000000240000000196000174048000
AE00TI102208290129/08/202200000000800000000000000008734KGM  00000010363KGM  7298-2278-30             HOUSING FEMALE ASS'Y     7298227830               0         0         0         0    0    0    00001920000000240000000227000043584000
AE00TI102208290129/08/202200000017000000000000000126140KGM  00000190740KGM  7388-2978-30             HOUSING MALE ASS'Y       7388297830               0         0         0         0    0    0    00008160000000048000001790001460640000
