AE00TO202208290429/08/202200000005200000000000000054424KGM  00000056966KGM  18000004530              AV 8 B                   AV 8 B                   0         0         0         0    0    0    00000000000052000000000213300011091600
AE00TO202208290429/08/202200000004700000000000000049191KGM  00000051489KGM  18000004560              AV 8 G                   AV 8 G                   0         0         0         0    0    0    00000000000047000000000213300010025100
AE00TO202208290429/08/202200000012500000000000000130827KGM  00000136939KGM  18000004590              AV 8 L                   AV 8 L                   0         0         0         0    0    0    00000000000125000000000213300026662500
AE00TO202208290429/08/202200000000100000000000000001011KGM  00000001060KGM  18007703903              AVSS 05F B/O             AVSS 05F B/O             0         0         0         0    0    0    00000000000015000000000015800000237000
AE00TO202208290429/08/202200000000200000000000000002022KGM  00000002120KGM  18007703992              AVSS 05F V               AVSS 05F V               0         0         0         0    0    0    00000000000030000000000015800000474000
AE00TO202208290429/08/202200000000200000000000000002222KGM  00000002320KGM  18007704140              AVSS 125F W              AVSS 125F W              0         0         0         0    0    0    00000000000016000000000035000000560000
AE00TO202208290429/08/202200000004500000000000000043425KGM  00000045625KGM  18018404050              CAVS 085 R               CAVS 085 R               0         0         0         0    0    0    00000000000450000000000022900010305000
AE00TO202208290429/08/202200000003500000000000000033775KGM  00000035486KGM  18018404091              CAVS 085 SB              CAVS 085 SB              0         0         0         0    0    0    00000000000350000000000022900008015000
AE00TO202208290429/08/202200000000400000000000000004912KGM  00000005108KGM  1801R704141              CIVUS 125 GY             CIVUS 125 GY             0         0         0         0    0    0    00000000000040000000000031800001272000
AE00TO202208290429/08/202200000000900000000000000011052KGM  00000011492KGM  1801R704152              CIVUS 125 P              CIVUS 125 P              0         0         0         0    0    0    00000000000090000000000031800002862000
AE00TO202208290429/08/202200000000100000000000000001125KGM  00000001174KGM  1801W003940              IVSSH 05F W              IVSSH 05F W              0         0         0         0    0    0    00000000000018000000000015600000280800
AE00TO202208290429/08/202200000000600000000000000006750KGM  00000007044KGM  1801W003941              IVSSH 05F GY             IVSSH 05F GY             0         0         0         0    0    0    00000000000108000000000015600001684800
AE00TO202208290429/08/202200000001100000000000000012375KGM  00000012913KGM  1801W003950              IVSSH 05F R              IVSSH 05F R              0         0         0         0    0    0    00000000000198000000000015600003088800
AE00TO202208290429/08/202200000004900000000000000055125KGM  00000057521KGM  1801W003952              IVSSH 05F P              IVSSH 05F P              0         0         0         0    0    0    00000000000882000000000015600013759200
AE00TO202208290429/08/202200000000200000000000000002250KGM  00000002348KGM  1801W00395U              IVSSH 05F BE             IVSSH 05F BE             0         0         0         0    0    0    00000000000036000000000015600000561600
AE00TO202208290429/08/202200000002200000000000000024750KGM  00000025826KGM  1801W003960              IVSSH 05F G              IVSSH 05F G              0         0         0         0    0    0    00000000000396000000000015600006177600
AE00TO202208290429/08/202200000000500000000000000005625KGM  00000005870KGM  1801W003961              IVSSH 05F LG             IVSSH 05F LG             0         0         0         0    0    0    00000000000090000000000015600001404000
AE00TO202208290429/08/202200000000300000000000000003375KGM  00000003522KGM  1801W003980              IVSSH 05F BR             IVSSH 05F BR             0         0         0         0    0    0    00000000000054000000000015600000842400
AE00TO202208290429/08/202200000000500000000000000005625KGM  00000005870KGM  1801W003992              IVSSH 05F V              IVSSH 05F V              0         0         0         0    0    0    00000000000090000000000015600001404000
AE00TO202208290429/08/202200000000100000000000000001034KGM  00000001082KGM  180D0203907              AVSSH 05F P/B            AVSSH 05F P/B            0         0         0         0    0    0    00000000000015000000000016500000247500
AE00TO202208290429/08/202200000000700000000000000007235KGM  00000007576KGM  180D0203930              AVSSH 05F B              AVSSH 05F B              0         0         0         0    0    0    00000000000105000000000016500001732500
AE00TO202208290429/08/202200000000100000000000000001034KGM  00000001082KGM  180D0203934              AVSSH 05F B/W            AVSSH 05F B/W            0         0         0         0    0    0    00000000000015000000000016500000247500
AE00TO202208290429/08/202200000000500000000000000005168KGM  00000005412KGM  180D0203937              AVSSH 05F B/Y            AVSSH 05F B/Y            0         0         0         0    0    0    00000000000075000000000016500001237500
AE00TO202208290429/08/202200000001700000000000000017571KGM  00000018401KGM  180D0203940              AVSSH 05F W              AVSSH 05F W              0         0         0         0    0    0    00000000000255000000000016500004207500
AE00TO202208290429/08/202200000000100000000000000001034KGM  00000001082KGM  180D0203943              AVSSH 05F W/B            AVSSH 05F W/B            0         0         0         0    0    0    00000000000015000000000016500000247500
AE00TO202208290429/08/202200000000800000000000000008269KGM  00000008659KGM  180D0203950              AVSSH 05F R              AVSSH 05F R              0         0         0         0    0    0    00000000000120000000000016500001980000
AE00TO202208290429/08/202200000000300000000000000003101KGM  00000003247KGM  180D0203952              AVSSH 05F P              AVSSH 05F P              0         0         0         0    0    0    00000000000045000000000016500000742500
AE00TO202208290429/08/202200000001900000000000000019638KGM  00000020565KGM  180D0203960              AVSSH 05F G              AVSSH 05F G              0         0         0         0    0    0    00000000000285000000000016500004702500
AE00TO202208290429/08/202200000000400000000000000004134KGM  00000004330KGM  180D0203964              AVSSH 05F G/W            AVSSH 05F G/W            0         0         0         0    0    0    00000000000060000000000016500000990000
AE00TO202208290429/08/202200000000200000000000000002068KGM  00000002164KGM  180D0203965              AVSSH 05F G/R            AVSSH 05F G/R            0         0         0         0    0    0    00000000000030000000000016500000495000
AE00TO202208290429/08/202200000000100000000000000001034KGM  00000001082KGM  180D0203967              AVSSH 05F G/Y            AVSSH 05F G/Y            0         0         0         0    0    0    00000000000015000000000016500000247500
AE00TO202208290429/08/202200000000100000000000000001034KGM  00000001082KGM  180D0203970              AVSSH 05F Y              AVSSH 05F Y              0         0         0         0    0    0    00000000000015000000000016500000247500
AE00TO202208290429/08/202200000000100000000000000001034KGM  00000001082KGM  180D0203973              AVSSH 05F Y/B            AVSSH 05F Y/B            0         0         0         0    0    0    00000000000015000000000016500000247500
AE00TO202208290429/08/202200000000100000000000000001034KGM  00000001082KGM  180D0203980              AVSSH 05F BR             AVSSH 05F BR             0         0         0         0    0    0    00000000000015000000000016500000247500
AE00TO202208290429/08/202200000001800000000000000018603KGM  00000019483KGM  180D0203990              AVSSH 05F L              AVSSH 05F L              0         0         0         0    0    0    00000000000270000000000016500004455000
AE00TO202208290429/08/202200000000400000000000000004666KGM  00000004861KGM  180D0204160              AVSSH 125F G             AVSSH 125F G             0         0         0         0    0    0    00000000000032000000000036000001152000
AE00TO202208290429/08/202200000000300000000000000002542KGM  00000002689KGM  181AD2001ZZ              CIVUSAS-S 035X1 B        CIVUSAS-S 035X1 B        0         0         0         0    0    0    00000000000016500000000034400000567600
AE00TO202208290429/08/202200000004500000000000000034702KGM  00000036902KGM  181AD2002ZZ              CIVUSAS-S 035X2 B        CIVUSAS-S 035X2 B        0         0         0         0    0    0    00000000000202500000000044000008910000
AE00TO202208290429/08/202200000000300000000000000002281KGM  00000002427KGM  181AD2003ZZ              CIVUSAS-S 035X3 B        CIVUSAS-S 035X3 B        0         0         0         0    0    0    00000000000010500000000055700000584850
AE00TO202208290429/08/202200000003800000000000000031919KGM  00000033777KGM  181AD2004ZZ              CIVUSAS-S 035X4 B        CIVUSAS-S 035X4 B        0         0         0         0    0    0    00000000000114000000000067100007649400
AE00TO202208290429/08/202200000000100000000000000000820KGM  00000000869KGM  181AD2007ZZ              CIVUSAS-S 05X1 B         CIVUSAS-S 05X1 B         0         0         0         0    0    0    00000000000005000000000039000000195000
AE00TO202208290429/08/202200000000900000000000000007301KGM  00000007740KGM  181AD2008ZZ              CIVUSAS-S 05X2 B         CIVUSAS-S 05X2 B         0         0         0         0    0    0    00000000000036000000000051700001861200
AE00TO202208290429/08/202200000000100000000000000000815KGM  00000000864KGM  181AD2009ZZ              CIVUSAS-S 05X3 B         CIVUSAS-S 05X3 B         0         0         0         0    0    0    00000000000003000000000067300000201900
AE00TO202208290429/08/202200000000300000000000000002411KGM  00000002557KGM  181AD2010ZZ              CIVUSAS-S 05X4 B         CIVUSAS-S 05X4 B         0         0         0         0    0    0    00000000000007500000000084400000633000
AE00TO202208290429/08/202200000000500000000000000004224KGM  00000004469KGM  181AD2013ZZ              CIVUSAS-S 125X2 B        CIVUSAS-S 125X2 B        0         0         0         0    0    0    00000000000011000000000098400001082400
AE00TO202208290429/08/202200000000300000000000000002314KGM  00000002461KGM  181AD2022ZZ              CIVUSAS-S 035X2 B(R,G)   CIVUSAS-S 035X2 B(R,G)   0         0         0         0    0    0    00000000000013500000000044000000594000
AE00TO202208290429/08/202200000000800000000000000005972KGM  00000006364KGM  181B0911611              CAVSAS 03X2 GY/L         CAVSAS 03X2 GY/L         0         0         0         0    0    0    00000000000028000000000047700001335600
AE00TO202208290429/08/202200000000500000000000000003734KGM  00000003976KGM  181B0911641              CAVSAS 03X2 GY           CAVSAS 03X2 GY           0         0         0         0    0    0    00000000000017500000000047700000834750
AE00TO202208290429/08/202200000000100000000000000000789KGM  00000000838KGM  181B09116K3              CAVSAS 03X2 GY/P         CAVSAS 03X2 GY/P         0         0         0         0    0    0    00000000000003500000000047700000166950
AE00TO202208290429/08/202200000000900000000000000007340KGM  00000007780KGM  181B0911941              CAVSAS 03X4 GY           CAVSAS 03X4 GY           0         0         0         0    0    0    00000000000022500000000075100001689750
AE00TO202208290429/08/202200000000200000000000000001593KGM  00000001691KGM  181B32012ZZ              AVSSCS 03FX2 DGY/BR      AVSSCS 03FX2 DGY/BR      0         0         0         0    0    0    00000000000007000000000061200000428400
AE00TO202208290429/08/202200000000200000000000000001742KGM  00000001840KGM  181B32102Z8              AVSSCS 05FX2 DGY/O       AVSSCS 05FX2 DGY/O       0         0         0         0    0    0    00000000000006000000000076200000457200
AE00TO202208290429/08/202200000000100000000000000000797KGM  00000000845KGM  181B32116Y8              AVSSCS 03FX2 DGY/R       AVSSCS 03FX2 DGY/R       0         0         0         0    0    0    00000000000003500000000061200000214200
AE00TO202208290429/08/202200000000500000000000000003983KGM  00000004227KGM  181B32116Y9              AVSSCS 03FX2 DGY/P       AVSSCS 03FX2 DGY/P       0         0         0         0    0    0    00000000000017500000000061200001071000
AE00TO202208290429/08/202200000001200000000000000009558KGM  00000010146KGM  181B32116Z5              AVSSCS 03FX2 DGY/L       AVSSCS 03FX2 DGY/L       0         0         0         0    0    0    00000000000042000000000061200002570400
AE00TO202208290429/08/202200000000500000000000000003983KGM  00000004227KGM  181B32116Z6              AVSSCS 03FX2 DGY/V       AVSSCS 03FX2 DGY/V       0         0         0         0    0    0    00000000000017500000000061200001071000
AE00TO202208290429/08/202200000000300000000000000002115KGM  00000002262KGM  181CQ7003ZZ              IVSSHCS-S 05FX2 B(B,W)   IVSSHCS-S 05FX2 B(B,W)   0         0         0         0    0    0    00000000000009000000000073000000657000
AE00TO202208290429/08/202200000000300000000000000002148KGM  00000002292KGM  181D6910235              AVSSHCS 05FX2 B/R        AVSSHCS 05FX2 B/R        0         0         0         0    0    0    00000000000009000000000080200000721800
AE00TO202208290429/08/202200000000100000000000000000716KGM  00000000764KGM  181D6910237              AVSSHCS 05FX2 B/Y        AVSSHCS 05FX2 B/Y        0         0         0         0    0    0    00000000000003000000000080200000240600
AE00TO202208290429/08/202200000000200000000000000001530KGM  00000001628KGM  181E48011ZZ              CAVSAS-S 03X1 GY/W       CAVSAS-S 03X1 GY/W       0         0         0         0    0    0    00000000000010000000000035500000355000
AE00TO202208290429/08/202200000002300000000000000017671KGM  00000018796KGM  181E48018ZZ              CAVSAS-S 05X2 GY/SB      CAVSAS-S 05X2 GY/SB      0         0         0         0    0    0    00000000000069000000000056900003926100
AE00TO202208290429/08/202200000002300000000000000017671KGM  00000018796KGM  181E48027ZZ              CAVSAS-S 05X2 GY/P       CAVSAS-S 05X2 GY/P       0         0         0         0    0    0    00000000000069000000000056900003926100
AE00TO202208290429/08/202200000000400000000000000003196KGM  00000003392KGM  181E48029ZZ              CAVSAS-S 05X4 GY         CAVSAS-S 05X4 GY         0         0         0         0    0    0    00000000000008000000000101700000813600
AE00TO202208290429/08/202200000000700000000000000005710KGM  00000006050KGM  181E48037ZZ              CAVSAS-S 03X4 GY         CAVSAS-S 03X4 GY         0         0         0         0    0    0    00000000000017500000000079700001394750
AE00TO202208290429/08/202200000000200000000000000001406KGM  00000001504KGM  181E48040ZZ              CAVSAS-S 03X2 GY/V       CAVSAS-S 03X2 GY/V       0         0         0         0    0    0    00000000000007000000000046200000323400
AE00TO202208290429/08/202200000000300000000000000002109KGM  00000002256KGM  181E48041ZZ              CAVSAS-S 03X2 GY/R       CAVSAS-S 03X2 GY/R       0         0         0         0    0    0    00000000000010500000000046200000485100
AE00TO202208290429/08/202200000001300000000000000009988KGM  00000010623KGM  181E48060ZZ              CAVSAS-S 05X2 GY/V       CAVSAS-S 05X2 GY/V       0         0         0         0    0    0    00000000000039000000000056900002219100
AE00TO202208290429/08/202200000000400000000000000003056KGM  00000003252KGM  181E50004ZZ              AVSSCS-S 05FX1 DGY       AVSSCS-S 05FX1 DGY       0         0         0         0    0    0    00000000000016000000000050700000811200
AE00TO202208290429/08/202200000000300000000000000002787KGM  00000002933KGM  181E50010ZZ              AVSSCS-S 05FX2 DGY/P     AVSSCS-S 05FX2 DGY/P     0         0         0         0    0    0    00000000000009000000000071000000639000
AE00TO202208290429/08/202200000002800000000000000026007KGM  00000027375KGM  181E50011ZZ              AVSSCS-S 05FX2 DGY/Y     AVSSCS-S 05FX2 DGY/Y     0         0         0         0    0    0    00000000000084000000000071000005964000
AE00TO202208290429/08/202200000000300000000000000002787KGM  00000002933KGM  181E50016ZZ              AVSSCS-S 05FX2 DGY/R     AVSSCS-S 05FX2 DGY/R     0         0         0         0    0    0    00000000000009000000000071000000639000
AE00TO202208290429/08/202200000000200000000000000001633KGM  00000001730KGM  181E50027ZZ              AVSSCS-S 05FX3 DGY/G     AVSSCS-S 05FX3 DGY/G     0         0         0         0    0    0    00000000000005000000000092000000460000
AE00TO202208290429/08/202200000000100000000000000000712KGM  00000000761KGM  181F21001ZZ              AVSSHCS-S 03FX2 B/Y      AVSSHCS-S 03FX2 B/Y      0         0         0         0    0    0    00000000000003500000000062300000218050
AE00TO202208290429/08/202200000000100000000000000000759KGM  00000000808KGM  181F21015ZZ              AVSSHCS-S 05FX2 B/P      AVSSHCS-S 05FX2 B/P      0         0         0         0    0    0    00000000000003000000000074200000222600
AE00TO202208290429/08/202200000000300000000000000002560KGM  00000002707KGM  181F21031ZZ              AVSSHCS-S 125FX2 B/P     AVSSHCS-S 125FX2 B/P     0         0         0         0    0    0    00000000000006000000000128600000771600
