AE00TI102209240124/09/202200000001600000000000000007517KGM  00000012080KGM  7116-3154-02             TERMINAL FEMALE          7116315402               0         0         0         0    0    0    00043200000002700000000015000064800000
AE00TI102209240124/09/202200000000400000000000000002138KGM  00000003475KGM  7116-4021                TERMINAL                 71164021                 0         0         0         0    0    0    00005400000001350000000028000015120000
AE00TI102209240124/09/202200000000100000000000000000645KGM  00000000975KGM  7116-4025                TERMINAL                 71164025                 0         0         0         0    0    0    00001600000001600000000034000005440000
AE00TI102209240124/09/202200000001600000000000000008851KGM  00000013462KGM  7116-4102-02             TERMINAL                 7116410202               0         0         0         0    0    0    00019200000001200000000037000071040000
AE00TI102209240124/09/202200000000700000000000000004176KGM  00000006480KGM  7116-4415-02             TERMINAL                 7116441502               0         0         0         0    0    0    00026600000003800000000016000042560000
AE00TI102209240124/09/202200000000700000000000000003629KGM  00000005930KGM  7116-4416-02             TERMINAL                 7116441602               0         0         0         0    0    0    00022400000003200000000016000035840000
AE00TI102209240124/09/202200000000600000000000000003375KGM  00000005086KGM  7126-8853-02             TERMINAL                 7126885302               0         0         0         0    0    0    00004500000000750000000057000025650000
AE00TI102209240124/09/202200000002600000000000000008596KGM  00000010036KGM  7158-3006-90             RUBBER STOPPER           7158300690               0         0         0         0    0    0    00052000000002000000000016000083200000
AE00TI102209240124/09/202200000002000000000000000006760KGM  00000007724KGM  7158-3009-60             RUBBER STOPPER           7158300960               0         0         0         0    0    0    00040000000002000000000012000048000000
AE00TI102209240124/09/202200000000800000000000000002208KGM  00000002666KGM  7158-3070-80             RUBBER STOPPER           7158307080               0         0         0         0    0    0    00032000000004000000000008000025600000
AE00TI102209240124/09/202200000002100000000000000002184KGM  00000003200KGM  7158-3166-60             WIRE SEAL                7158316660               0         0         0         0    0    0    00084000000004000000000004000033600000
AE00TI102209240124/09/202200000005300000000000000002544KGM  00000005777KGM  7158-3167-80             WIRE SEAL                7158316780               0         0         0         0    0    0    00106000000002000000000005000053000000
AE00TI102209240124/09/202200000003400000000000000001496KGM  00000003131KGM  7158-3168-80             SEALED                   7158316880               0         0         0         0    0    0    00068000000002000000000004000027200000
AE00TI102209240124/09/202200000001300000000000000002028KGM  00000002653KGM  7158-3169-40             SEALING PLUG             7158316940               0         0         0         0    0    0    00052000000004000000000006000031200000
AE00TI102209240124/09/202200000000500000000000000000930KGM  00000001172KGM  7172-5540-80             SEALED WIRE SEAL         7172554080               0         0         0         0    0    0    00010000000002000000000010000010000000
AE00TI102209240124/09/202200000001000000000000000003555KGM  00000006897KGM  7196-0648-02             TERMINAL                 7196064802               0         0         0         0    0    0    00015000000001500000000023000034500000
AE00TI102209240124/09/202200000004000000000000000009504KGM  00000019504KGM  7271-1818-30             CASE SUB ASSY,ECU        7271181830               0         0         0         0    0    0    00000072000000001800009388000067593600
AE00TI102209240124/09/202200000000100000000000000000866KGM  00000001011KGM  7288-3329-30             HOUSING MALE             7288332930               0         0         0         0    0    0    00000150000000150000000354000005310000
AE00TI102209240124/09/202200000000200000000000000001734KGM  00000002024KGM  7288-3334-30             HOUSING MALE             7288333430               0         0         0         0    0    0    00000300000000150000000354000010620000
AE00TI102209240124/09/202200000002700000000000000018533KGM  00000024338KGM  7289-3342-30             HOUSING FEMALE ASS'Y     7289334230               0         0         0         0    0    0    00006480000000240000000191000123768000
AE00TI102209240124/09/202200000000200000000000000001678KGM  00000002238KGM  7289-6868-30             SEALED ASSY FEMALE       7289686830               0         0         0         0    0    0    00000504000000252000000332000016732800
AE00TI102209240124/09/202200000000600000000000000006654KGM  00000009129KGM  7289-9553-30             SEALED ASSY FEMALE       7289955330               0         0         0         0    0    0    00001764000000294000000245000043218000
AE00TI102209240124/09/202200000002900000000000000032176KGM  00000036528KGM  7327-6424-4W             BATTERY FUSE             732764244W               0         0         0         0    0    0    00000278400000009600007969000221856960
AE00TI102209240124/09/202200000003000000000000000034227KGM  00000040677KGM  7327-6840-3W             BATTERY FUSE             732768403W               0         0         0         0    0    0    00000216000000007200009909000214034400
AE00TI102209240124/09/202200000000300000000000000002985KGM  00000003375KGM  7388-0313-30             CONNECTOR ASS'Y          7388031330               0         0         0         0    0    0    00000360000000120000000376000013536000
