BI00B32AF    TTB209D        202208261801W004350              IVSSH 3 R                CCN000000350000000350FN00000000020220901000000350NNE   20220815145051    1W    00000035000003173100000000032AF    HBYHVTB 000000000000UT228001
BI00B32AF    @TTB209D       20220909181AD2010ZZ              CIVUSAS-S 0.5X4 B        CCN000002000000002000FN00000000020220901000002000NNE   20220815151335    1W    00000025000003214000000000032AF    HBYHVTB 000000000000UX428001
BI00B32AF    @TTB210D       20220923181AD2009ZZ              CIVUSAS-S 0.5X3 B        CCN000000600000000600FN00000000020221001000000600NNE   20220815151336    1W    00000030000002716800000000032AF    HBYHVTB 000000000000UU129002
BI00B32AF    @TTB210E       20220930181AD2001ZZ              CIVUSAS-S 0.35X1 B       CCN000005500000005500FN00000000020221001000005500NNE   20220815151337    1W    00000055000001540800000000032AF    HBYHVTB 000000000000UV229001
BI00B32AF    @TTB210E       20220930181AD2004ZZ              CIVUSAS-S 0.35X4 B       CCN000004500000004500FN00000000020221001000004500NNE   20220815151337    1W    00000030000002799900000000032AF    HBYHVTB 000000000000UV229002
BI00B32AF    @TTB210F       20221007181AD2004ZZ              CIVUSAS-S 0.35X4 B       CCN000004500000004500FN00000000020221001000004500NNE   20220815151338    1W    00000030000002799900000000032AF    HBYHVTB 000000000000UW329001
BI00B32CJ    @TTQ2101       20220819181AD2010ZZ              CIVUSAS-S 0.5X4 B        CCN000001750000001750FN00000000020221001000001750NNM20 20220815084343    1W    00000025000003214000000000032CJ    QNYHVQN 000000000000UQ428007
BI00B32CJ    @TTQ2102       20220902181AD2010ZZ              CIVUSAS-S 0.5X4 B        CCN000002250000002250FN00000000020221001000002250NNM20 20220815084410    1W    00000025000003214000000000032CJ    QNYHVQN 000000000000UQ528015
BI00B32CJ    @TTQ2103       20220902181AD2010ZZ              CIVUSAS-S 0.5X4 B        CCN000002250000002250FN00000000020221001000002250NNM20 20220815084425    1W    00000025000003214000000000032CJ    QNYHVQN 000000000000UQ129018
BI00B32DE    @TT209G        20220901181F21031ZZ              AVSSHCS-S 1.25FX2 B/P    CCN000000400000000400FN00000000020220901000000400NNE   20220815164853    1W    00000020000004267300000000032DE    TVYEV-TV000000000000VQ328001
BI00B32DE    TT210A         2022090818007703741              AVSS 0.3F GY             CCN000002000000002000FN00000000020221001000002000NNE   20220815164855    1W    00000200000000496000000000032DE    TVYEV-TV000000000000VR428018
BI00B32DE    TT210A         2022090818007703750              AVSS 0.3F R              CCN000002000000002000FN00000000020221001000002000NNE   20220815164855    1W    00000200000000496000000000032DE    TVYEV-TV000000000000VR428019
BI00B32DE    TT210A         2022090818007704152              AVSS 1.25F P             CCN000000800000000800FN00000000020221001000000800NNE   20220815164855    1W    00000080000001389000000000032DE    TVYEV-TV000000000000VR428020
BI00B32DE    TT210A         2022090818007704192              AVSS 1.25F V             CCN000000800000000800FN00000000020221001000000800NNE   20220815164855    1W    00000080000001389000000000032DE    TVYEV-TV000000000000VR428021
BI00B32DE    TT210A         20220908180D0203760              AVSSH 0.3F G             CCN000002000000002000FN00000000020221001000002000NNE   20220815164855    1W    00000200000000515000000000032DE    TVYEV-TV000000000000VR428009
BI00B32DE    TT210A         20220908180D0203790              AVSSH 0.3F L             CCN000002000000002000FN00000000020221001000002000NNE   20220815164855    1W    00000200000000515000000000032DE    TVYEV-TV000000000000VR428010
BI00B32DE    TT210A         20220908180D0203792              AVSSH 0.3F V             CCN000002000000002000FN00000000020221001000002000NNE   20220815164855    1W    00000200000000515000000000032DE    TVYEV-TV000000000000VR428011
BI00B32DE    TT210A         20220908180D0203930              AVSSH 0.5F B             CCN000001500000001500FN00000000020221001000001500NNE   20220815164855    1W    00000150000000689000000000032DE    TVYEV-TV000000000000VR428012
BI00B32DE    TT210A         20220908180D0203980              AVSSH 0.5F BR            CCN000001500000001500FN00000000020221001000001500NNE   20220815164855    1W    00000150000000689000000000032DE    TVYEV-TV000000000000VR428013
BI00B32DE    TT210A         20220908180D0203965              AVSSH 0.5F G/R           CCN000001500000001500FN00000000020221001000001500NNE   20220815164855    1W    00000150000000689000000000032DE    TVYEV-TV000000000000VR428014
BI00B32DE    TT210A         20220908180D0203997              AVSSH 0.5F L/Y           CCN000001500000001500FN00000000020221001000001500NNE   20220815164855    1W    00000150000000689000000000032DE    TVYEV-TV000000000000VR428015
BI00B32DE    TT210A         20220908180D0204030              AVSSH 0.75F B            CCN000001000000001000FN00000000020221001000001000NNE   20220815164855    1W    00000100000000934000000000032DE    TVYEV-TV000000000000VR428016
BI00B32DE    TT210A         20220908180D0204153              AVSSH 1.25F R/B          CCN000000800000000800FN00000000020221001000000800NNE   20220815164855    1W    00000080000001458000000000032DE    TVYEV-TV000000000000VR428017
BI00B32DE    @TT210A        20220908181E50000ZZ              AVSSCS-S 0.5FX1 DGY/BR   CCN000000800000000800FN00000000020221001000000800NNE   20220815164854    1W    00000040000001909700000000032DE    TVYEV-TV000000000000VR428001
BI00B32DE    @TT210A        20220908181E50027ZZ              AVSSCS-S 0.5FX3 DGY/G    CCN000000500000000500FN00000000020221001000000500NNE   20220815164854    1W    00000025000003265000000000032DE    TVYEV-TV000000000000VR428002
BI00B32DE    @TT210A        20220908181F21002ZZ              AVSSHCS-S 0.5FX1 B       CCN000002000000002000FN00000000020221001000002000NNE   20220815164854    1W    00000040000001908400000000032DE    TVYEV-TV000000000000VR428003
BI00B32DE    @TT210A        20220908181F21009ZZ              AVSSHCS-S 0.5FX2 B       CCN000001200000001200FN00000000020221001000001200NNE   20220815164854    1W    00000030000002531400000000032DE    TVYEV-TV000000000000VR428004
BI00B32DE    @TT210A        20220908181F21013ZZ              AVSSHCS-S 0.5FX2 B/Y     CCN000000600000000600FN00000000020221001000000600NNE   20220815164854    1W    00000030000002531400000000032DE    TVYEV-TV000000000000VR428006
BI00B32DE    @TT210A        20220908181F21014ZZ              AVSSHCS-S 0.5FX2 B/L     CCN000000600000000600FN00000000020221001000000600NNE   20220815164854    1W    00000030000002531400000000032DE    TVYEV-TV000000000000VR428005
BI00B32DE    @TT210A        20220908181F21028ZZ              AVSSHCS-S 1.25FX2 B/R    CCN000001400000001400FN00000000020221001000001400NNE   20220815164854    1W    00000020000004267300000000032DE    TVYEV-TV000000000000VR428008
BI00B32DE    @TT210A        20220908181F21031ZZ              AVSSHCS-S 1.25FX2 B/P    CCN000000400000000400FN00000000020221001000000400NNE   20220815164854    1W    00000020000004267300000000032DE    TVYEV-TV000000000000VR428007
BI00A32E1    WC208A         2022081618000004553              AV 8 R/B                 CCN000000100000000100FN00000000020220801000000100NNE   20220815102535    1W    00000010000010466200000000032E1    SPYSE   000000000000KB128001
BI00B32GE    DHTW2245       2022091518000004530              AV 8 B                   CCN000021000000021000FN00000000020221101000021000NNE   20220815165151    1W    00000010000010466200000000032GE    GEYKHT  000000000000RA528063
BI00B32GE    DHTW2245       2022091518000004534              AV 8 B/W                 CCN000006100000006100FN00000000020221101000006100NNE   20220815165151    1W    00000010000010466200000000032GE    GEYKHT  000000000000RA528065
BI00B32GE    DHTW2245       2022091518000004535              AV 8 B/R                 CCN000008200000008200FN00000000020221101000008200NNE   20220815165151    1W    00000010000010466200000000032GE    GEYKHT  000000000000RA528064
BI00B32GE    DHTW2245       2022091518000004540              AV 8 W                   CCN000015400000015400FN00000000020221101000015400NNE   20220815165151    1W    00000010000010466200000000032GE    GEYKHT  000000000000RA528068
BI00B32GE    DHTW2245       2022091518000004543              AV 8 W/B                 CCN000013400000013400FN00000000020221101000013400NNE   20220815165151    1W    00000010000010466200000000032GE    GEYKHT  000000000000RA528069
BI00B32GE    DHTW2245       2022091518000004550              AV 8 R                   CCN000002300000002300FN00000000020221101000002300NNE   20220815165151    1W    00000010000010466200000000032GE    GEYKHT  000000000000RA528067
BI00B32GE    DHTW2245       2022091518000004590              AV 8 L                   CCN000008200000008200FN00000000020221101000008200NNE   20220815165151    1W    00000010000010466200000000032GE    GEYKHT  000000000000RA528066
BI00B32GE    @DHTW2245      20220915181AD2002ZZ              CIVUSAS-S 0.35X2 B       CCN000031500000031500FN00000000020221101000031500NNE   20220815165150    1W    00000045000001713700000000032GE    GEYKHT  000000000000RA528034
BI00B32GE    @DHTW2245      20220915181AD2003ZZ              CIVUSAS-S 0.35X3 B       CCN000019500000019600FN00000000020221101000019600NNE   20220815165150    1W    00000035000002172100000000032GE    GEYKHT  000000000000RA528035
BI00B32GE    @DHTW2245      20220915181AD2004ZZ              CIVUSAS-S 0.35X4 B       CCN000028400000028500FN00000000020221101000028500NNE   20220815165150    1W    00000030000002799900000000032GE    GEYKHT  000000000000RA528036
BI00B32GE    @DHTW2245      20220915181E48031ZZ              CAVSAS-S 0.3X2 GY        CCN000007350000007350FN00000000020221101000007350NNE   20220815165150    1W    00000035000002008700000000032GE    GEYKHT  000000000000RA528037
BI00B32GE    @DHTW2245      20220915181E48037ZZ              CAVSAS-S 0.3X4 GY        CCN000016250000016250FN00000000020221101000016250NNE   20220815165150    1W    00000025000003262000000000032GE    GEYKHT  000000000000RA528039
BI00B32GE    @DHTW2245      20220915181E48041ZZ              CAVSAS-S 0.3X2 GY/R      CCN000008750000008750FN00000000020221101000008750NNE   20220815165150    1W    00000035000002008700000000032GE    GEYKHT  000000000000RA528038
BI00B32GE    @DHTW2245      20220915181E50002ZZ              AVSSCS-S 0.3FX2 DGY/G    CCN000014700000014700FN00000000020221101000014700NNE   20220815165150    1W    00000035000002165000000000032GE    GEYKHT  000000000000RA528046
BI00B32GE    @DHTW2245      20220915181E50004ZZ              AVSSCS-S 0.5FX1 DGY      CCN000013600000013600FN00000000020221101000013600NNE   20220815165150    1W    00000040000001909700000000032GE    GEYKHT  000000000000RA528040
BI00B32GE    @DHTW2245      20220915181E50005ZZ              AVSSCS-S 0.5FX1 DGY/W    CCN000006800000006800FN00000000020221101000006800NNE   20220815165150    1W    00000040000001909700000000032GE    GEYKHT  000000000000RA528042
BI00B32GE    @DHTW2245      20220915181E50006ZZ              AVSSCS-S 0.5FX1 DGY/Y    CCN000000800000000800FN00000000020221101000000800NNE   20220815165150    1W    00000040000001909700000000032GE    GEYKHT  000000000000RA528043
BI00B32GE    @DHTW2245      20220915181E50007ZZ              AVSSCS-S 0.5FX1 DGY/L    CCN000008000000008000FN00000000020221101000008000NNE   20220815165150    1W    00000040000001909700000000032GE    GEYKHT  000000000000RA528041
BI00B32GE    @DHTW2245      20220915181E50016ZZ              AVSSCS-S 0.5FX2 DGY/R    CCN000002700000002700FN00000000020221101000002700NNE   20220815165150    1W    00000030000003096000000000032GE    GEYKHT  000000000000RA528044
BI00B32GE    @DHTW2245      20220915181E50020ZZ              AVSSCS-S 0.3FX2 DGY/R    CCN000009450000009450FN00000000020221101000009450NNE   20220815165150    1W    00000035000002165000000000032GE    GEYKHT  000000000000RA528048
BI00B32GE    @DHTW2245      20220915181E50021ZZ              AVSSCS-S 0.3FX2 DGY/P    CCN000010850000010850FN00000000020221101000010850NNE   20220815165150    1W    00000035000002165000000000032GE    GEYKHT  000000000000RA528047
BI00B32GE    @DHTW2245      20220915181E50036ZZ              AVSSCS-S 0.3FX2 DGY      CCN000006650000006650FN00000000020221101000006650NNE   20220815165150    1W    00000035000002165000000000032GE    GEYKHT  000000000000RA528045
BI00B32GE    @DHTW2245      20220915181F21014ZZ              AVSSHCS-S 0.5FX2 B/L     CCN000004800000004800FN00000000020221101000004800NNE   20220815165150    1W    00000030000002531400000000032GE    GEYKHT  000000000000RA528049
BI00B32H8    2209A MW       2022090918007703930              AVSS 0.5F B              CCN000003000000003000FN00000000020220901000003000NNE   20220815163457    1W    00000150000000674000000000032H8    TYTYC   000000000000LN428002
BI00B32H8    2209A MW       2022090918007703935              AVSS 0.5F B/R            CCN000001500000001500FN00000000020220901000001500NNE   20220815163457    1W    00000150000000674000000000032H8    TYTYC   000000000000LN428003
BI00B32H8    2209A MW       2022090918007703937              AVSS 0.5F B/Y            CCN000001500000001500FN00000000020220901000001500NNE   20220815163457    1W    00000150000000674000000000032H8    TYTYC   000000000000LN428004
BI00B32H8    2209A MW       2022090918007703943              AVSS 0.5F W/B            CCN000001500000001500FN00000000020220901000001500NNE   20220815163457    1W    00000150000000674000000000032H8    TYTYC   000000000000LN428005
BI00B32H8    2209A MW       2022090918007703970              AVSS 0.5F Y              CCN000001500000001500FN00000000020220901000001500NNE   20220815163457    1W    00000150000000674000000000032H8    TYTYC   000000000000LN428006
BI00B32H8    2209A MW       2022090918007703973              AVSS 0.5F Y/B            CCN000001500000001500FN00000000020220901000001500NNE   20220815163457    1W    00000150000000674000000000032H8    TYTYC   000000000000LN428007
BI00B32H8    2209A MW       2022090918007703975              AVSS 0.5F Y/R            CCN000001500000001500FN00000000020220901000001500NNE   20220815163457    1W    00000150000000674000000000032H8    TYTYC   000000000000LN428008
BI00B32H8    2209A MW       2022090918007704037              AVSS 0.75F B/Y           CCN000002000000002000FN00000000020220901000002000NNE   20220815163457    1W    00000100000000943000000000032H8    TYTYC   000000000000LN428009
BI00B32H8    2209A MW       2022090918007704060              AVSS 0.75F G             CCN000001000000001000FN00000000020220901000001000NNE   20220815163457    1W    00000100000000943000000000032H8    TYTYC   000000000000LN428010
BI00B32H8    @2209A MW      20220909181B32102S1              AVSSCS 0.5FX2 DGY        CCN000001200000001200FN00000000020220901000001200NNE   20220815163456    1W    00000030000002903000000000032H8    TYTYC   000000000000LN428001
BI00B32H8    2209AIMW       2022090918007704036              AVSS 0.75F B/G           CCN000001000000001000FN00000000020220901000001000NNE   20220815163458    1W    00000100000000943000000000032H8    TYTYC   000000000000LP428001
BI00B32H8    2209AKMW       20220909180D0204143              AVSSH 1.25F W/B          CCN000000800000000800FN00000000020220901000000800NNE   20220815163459    1W    00000080000001458000000000032H8    TYTYC   000000000000LO428003
BI00B32H8    2209AKMW       2022090918007703940              AVSS 0.5F W              CCN000001500000001500FN00000000020220901000001500NNE   20220815163459    1W    00000150000000674000000000032H8    TYTYC   000000000000LO428004
BI00B32H8    @2209AKMW      20220909181B32116Y8              AVSSCS 0.3FX2 DGY/R      CCN000000350000000350FN00000000020220901000000350NNE   20220815163456    1W    00000035000002276000000000032H8    TYTYC   000000000000LO428001
BI00B32H8    @2209AKMW      20220909181E50004ZZ              AVSSCS-S 0.5FX1 DGY      CCN000001200000001200FN00000000020220901000001200NNE   20220815163456    1W    00000040000001909700000000032H8    TYTYC   000000000000LO428002
BI00B32J1    @397333        20220905181AD2002ZZ              CIVUSAS-S 0.35X2 B       CCN000006750000006750FN00000000020220901000006750NNE   20220815150928    1W    00000045000001713700000000032J1    UKYEL-BL000000000000KG428002
BI00B32J1    @397333        20220905181AD2004ZZ              CIVUSAS-S 0.35X4 B       CCN000001800000001800FN00000000020220901000001800NNE   20220815150928    1W    00000030000002799900000000032J1    UKYEL-BL000000000000KG428003
BI00B32J1    @397333        20220905181AD2009ZZ              CIVUSAS-S 0.5X3 B        CCN000000300000000300FN00000000020220901000000300NNE   20220815150928    1W    00000030000002716800000000032J1    UKYEL-BL000000000000KG428001
BI00B32M1    TV208B         2022090118007703730              AVSS 0.3F B              CCN000010000000010000FN00000000020220801000010000NNE   20220815163624    1W    00000200000000496000000000032M1    VNYEV   000000000000VB328002
BI00B32M1    TV208B         2022090118007703760              AVSS 0.3F G              CCN000006000000006000FN00000000020220801000006000NNE   20220815163624    1W    00000200000000496000000000032M1    VNYEV   000000000000VB328003
BI00B32M1    TV208B         2022090118007703752              AVSS 0.3F P              CCN000006000000006000FN00000000020220801000006000NNE   20220815163624    1W    00000200000000496000000000032M1    VNYEV   000000000000VB328004
BI00B32M1    TV208B         2022090118007703750              AVSS 0.3F R              CCN000004000000004000FN00000000020220801000004000NNE   20220815163624    1W    00000200000000496000000000032M1    VNYEV   000000000000VB328005
BI00B32M1    TV208B         2022090118007703792              AVSS 0.3F V              CCN000016000000016000FN00000000020220801000016000NNE   20220815163624    1W    00000200000000496000000000032M1    VNYEV   000000000000VB328006
BI00B32M1    TV208B         2022090118007703930              AVSS 0.5F B              CCN000006000000006000FN00000000020220801000006000NNE   20220815163624    1W    00000150000000674000000000032M1    VNYEV   000000000000VB328007
BI00B32M1    TV208B         2022090118007703941              AVSS 0.5F GY             CCN000009000000009000FN00000000020220801000009000NNE   20220815163624    1W    00000150000000674000000000032M1    VNYEV   000000000000VB328008
BI00B32M1    TV208B         2022090118007703990              AVSS 0.5F L              CCN000006000000006000FN00000000020220801000006000NNE   20220815163624    1W    00000150000000674000000000032M1    VNYEV   000000000000VB328009
BI00B32M1    TV208B         20220901180D0204030              AVSSH 0.75F B            CCN000005000000005000FN00000000020220801000005000NNE   20220815163624    1W    00000100000000934000000000032M1    VNYEV   000000000000VB328001
BI00B32M1    TV208C         2022090118007703730              AVSS 0.3F B              CCN000010000000010000FN00000000020220801000010000NNE   20220815163625    1W    00000200000000496000000000032M1    VNYEV   000000000000VC328002
BI00B32M1    TV208C         2022090118007703760              AVSS 0.3F G              CCN000004000000004000FN00000000020220801000004000NNE   20220815163625    1W    00000200000000496000000000032M1    VNYEV   000000000000VC328003
BI00B32M1    TV208C         2022090118007703752              AVSS 0.3F P              CCN000008000000008000FN00000000020220801000008000NNE   20220815163625    1W    00000200000000496000000000032M1    VNYEV   000000000000VC328004
BI00B32M1    TV208C         2022090118007703750              AVSS 0.3F R              CCN000006000000006000FN00000000020220801000006000NNE   20220815163625    1W    00000200000000496000000000032M1    VNYEV   000000000000VC328005
BI00B32M1    TV208C         2022090118007703792              AVSS 0.3F V              CCN000016000000016000FN00000000020220801000016000NNE   20220815163625    1W    00000200000000496000000000032M1    VNYEV   000000000000VC328006
BI00B32M1    TV208C         2022090118007703930              AVSS 0.5F B              CCN000004500000004500FN00000000020220801000004500NNE   20220815163625    1W    00000150000000674000000000032M1    VNYEV   000000000000VC328007
BI00B32M1    TV208C         2022090118007703941              AVSS 0.5F GY             CCN000010500000010500FN00000000020220801000010500NNE   20220815163625    1W    00000150000000674000000000032M1    VNYEV   000000000000VC328008
BI00B32M1    TV208C         2022090118007703990              AVSS 0.5F L              CCN000004500000004500FN00000000020220801000004500NNE   20220815163625    1W    00000150000000674000000000032M1    VNYEV   000000000000VC328009
BI00B32M1    TV208C         20220901180D0204030              AVSSH 0.75F B            CCN000006000000006000FN00000000020220801000006000NNE   20220815163625    1W    00000100000000934000000000032M1    VNYEV   000000000000VC328001
BI00B32M3    SM2209AEMW     2022090118007704192              AVSS 1.25F V             CCN000001600000001600FN00000000020220901000001600NNE   20220815164346    1W    00000080000001389000000000032M3    SASAMI  000000000000QG328001
BI00B32M3    @SM2209AMMW    20220908181E50011ZZ              AVSSCS-S 0.5FX2 DGY/Y    CCN000000600000000600FN00000000020220901000000600NNE   20220815164345    1W    00000030000003096000000000032M3    SASAMI  000000000000QK428001
BI00B32M3    SM2209B MW     2022090818007703780              AVSS 0.3F BR             CCN000002000000002000FN00000000020220901000002000NNE   20220815164347    1W    00000200000000496000000000032M3    SASAMI  000000000000QL428004
BI00B32M3    SM2209B MW     2022090818007703752              AVSS 0.3F P              CCN000002000000002000FN00000000020220901000002000NNE   20220815164347    1W    00000200000000496000000000032M3    SASAMI  000000000000QL428005
BI00B32M3    SM2209B MW     2022090818007703792              AVSS 0.3F V              CCN000002000000002000FN00000000020220901000002000NNE   20220815164347    1W    00000200000000496000000000032M3    SASAMI  000000000000QL428006
BI00B32M3    SM2209B MW     2022090818007703990              AVSS 0.5F L              CCN000004500000004500FN00000000020220901000004500NNE   20220815164347    1W    00000150000000674000000000032M3    SASAMI  000000000000QL428007
BI00B32M3    SM2209B MW     2022090818007703952              AVSS 0.5F P              CCN000003000000003000FN00000000020220901000003000NNE   20220815164347    1W    00000150000000674000000000032M3    SASAMI  000000000000QL428008
BI00B32M3    SM2209B MW     2022090818007703900              AVSS 0.5F P/W            CCN000003000000003000FN00000000020220901000003000NNE   20220815164347    1W    00000150000000674000000000032M3    SASAMI  000000000000QL428009
BI00B32M3    SM2209B MW     2022090818007703950              AVSS 0.5F R              CCN000001500000001500FN00000000020220901000001500NNE   20220815164347    1W    00000150000000674000000000032M3    SASAMI  000000000000QL428010
BI00B32M3    SM2209B MW     2022090818007704180              AVSS 1.25F BR            CCN000000800000000800FN00000000020220901000000800NNE   20220815164347    1W    00000080000001389000000000032M3    SASAMI  000000000000QL428011
BI00B32M3    SM2209B MW     2022090818007704160              AVSS 1.25F G             CCN000001600000001600FN00000000020220901000001600NNE   20220815164347    1W    00000080000001389000000000032M3    SASAMI  000000000000QL428012
BI00B32M3    SM2209B MW     2022090818007704190              AVSS 1.25F L             CCN000000800000000800FN00000000020220901000000800NNE   20220815164347    1W    00000080000001389000000000032M3    SASAMI  000000000000QL428013
BI00B32M3    SM2209B MW     2022090818007704161              AVSS 1.25F LG            CCN000000800000000800FN00000000020220901000000800NNE   20220815164347    1W    00000080000001389000000000032M3    SASAMI  000000000000QL428014
BI00B32M3    SM2209B MW     2022090818007704150              AVSS 1.25F R             CCN000000800000000800FN00000000020220901000000800NNE   20220815164347    1W    00000080000001389000000000032M3    SASAMI  000000000000QL428015
BI00B32N1    NST2122B       20220908180D0203950              AVSSH 0.5F R             CCN000001500000001500FN00000000020200901000001500NNE   20220815164702    1W    00000150000000689000000000032N1    TAYIPL  000000000000XP428002
BI00B32N1    NST2122B       20220908180D0204130              AVSSH 1.25F B            CCN000000800000000800FN00000000020200901000000800NNE   20220815164702    1W    00000080000001458000000000032N1    TAYIPL  000000000000XP428003
BI00B32N1    @NST2122B      20220908181D6910239              AVSSHCS 0.5FX2 B/L       CCN000000600000000600FN00000000020200901000000600NNE   20220815164701    1W    00000030000002385000000000032N1    TAYIPL  000000000000XP428001
