BI00B1200    Y022I50062     202208187289-9613-30             HOUSING FEMALE ASS'Y     CCN000003840000003840FN00000000020220901000003840NNMD0320220815132615    4N0N  0000002400000126990000154371200    YCYC    005500360039
BI00B1200    2399T52716     202208187289-9613-30             HOUSING FEMALE ASS'Y     CCN000001200000001200FN00000000020220901000001200NNMD0320220815132552    4N0N  0000002400000126990000154371200    YCYC    005500360039
BI00A1200    2399T52837     202208237196-0550-02             TERMINAL ALUMINIUM       CCN000128000000128000FN00000000020220901000128000NNE   20220815122238    4P0P  0000320000000051520000090161200    YCYC    006400630017
BI00B1200    2399T52838     202209297172-5540-80             SEALED WIRE SEAL         CCN000180000000180000FN00000000020221001000180000NNE   20220815122238    1C0C  0000200000000018600000023441200    YCYC    004300270014
BI00B1200    2399T52838     202209297287-9323                UNSEALED HOUSING SUB     CCN000009600000009600FN00000000020221001000009600NNE   20220815122238    1N0N  0000024000000053760000069001200    YCYC    005600390023
BI00B1200    2399T52838     202209297288-3334-30             HOUSING MALE             CCN000001500000001500FN00000000020221001000001500NNE   20220815122238    4N0N  0000015000000086700000101201200    YCYC    005400370024
BI00B1200    2399T52838     202209297289-6523-30             HOUSING FEMALE ASS'Y     CCN000003360000003360FN00000000020221001000003360NNE   20220815122238    4N0N  0000002400000129050000162051200    YCYC    005500360039
BI00B1200    2399T52838     202209297289-6597-70             HOUSING FEMALE ASS'Y     CCN000010800000010800FN00000000020221001000010800NNE   20220815122238    4N0N  0000021600000128950000153951200    YCYC    005500360039
BI00B1200    2399T52838     202209297289-6868-30             SEALED ASSY FEMALE       CCN000085680000085680FN00000000020221001000085680NNE   20220815122238    4N0N  0000025200000083920000111921200    YCYC    005500360039
BI00B1200    #2399T52838    202209297174-1515                FRONT DOOR COVER         CCN000008400000008400FN00000000020221001000008400NNE   20220815122238    2F0F  0000006000000049020000061021200    YCYC    005500360039
BI00B1200    #7960T52802    202209297172-5630-40             RUBBER STOPPER           CCN000080000000080000FN00000000020221001000080000NNE   20220815122238    2H0H  0000200000000004400000009511200    YCYC    004300270014
BI00B1200    #7960T52802    202209297172-5631-60             RUBBER STOPPER           CCN000040000000040000FN00000000020221001000040000NNE   20220815122238    2H0H  0000200000000004200000009311200    YCYC    004300270014
BI00B1200    Y022K50061     202210207116-4112-02             TERMINAL                 CCN000018000000018000FN00000000020221101000018000NNE   20220815122238    4P0P  0000060000000045000000073821200    YCYC    006400630015
BI00B1200    2399T52839     202210067172-5540-80             SEALED WIRE SEAL         CCN000140000000140000FN00000000020221101000140000NNE   20220815122238    1C0C  0000200000000018600000023441200    YCYC    004300270014
BI00B1200    2399T52839     202210067287-9323                UNSEALED HOUSING SUB     CCN000004800000004800FN00000000020221101000004800NNE   20220815122238    1N0N  0000024000000053760000069001200    YCYC    005600390023
BI00B1200    2399T52839     202210067289-6597-70             HOUSING FEMALE ASS'Y     CCN000010800000010800FN00000000020221101000010800NNE   20220815122238    4N0N  0000021600000128950000153951200    YCYC    005500360039
BI00B1200    2399T52839     202210067289-6868-30             SEALED ASSY FEMALE       CCN000083160000083160FN00000000020221101000083160NNE   20220815122238    4N0N  0000025200000083920000111921200    YCYC    005500360039
BI00B1200    #2399T52839    202210067174-1515                FRONT DOOR COVER         CCN000007200000007200FN00000000020221101000007200NNE   20220815122238    2F0F  0000006000000049020000061021200    YCYC    005500360039
BI00B1200    2399T52840     202210067172-5540-80             SEALED WIRE SEAL         CCN000140000000140000FN00000000020221101000140000NNE   20220815122238    1C0C  0000200000000018600000023441200    YCYC    004300270014
BI00B1200    2399T52840     202210067287-9323                UNSEALED HOUSING SUB     CCN000004800000004800FN00000000020221101000004800NNE   20220815122238    1N0N  0000024000000053760000069001200    YCYC    005600390023
BI00B1200    2399T52840     202210067289-6597-70             HOUSING FEMALE ASS'Y     CCN000010800000010800FN00000000020221101000010800NNE   20220815122238    4N0N  0000021600000128950000153951200    YCYC    005500360039
BI00B1200    2399T52840     202210067289-6868-30             SEALED ASSY FEMALE       CCN000083160000083160FN00000000020221101000083160NNE   20220815122238    4N0N  0000025200000083920000111921200    YCYC    005500360039
BI00B1200    #2399T52840    202210067174-1515                FRONT DOOR COVER         CCN000007200000007200FN00000000020221101000007200NNE   20220815122238    2F0F  0000006000000049020000061021200    YCYC    005500360039
BI00B1200    2399T52841     202210207172-5540-80             SEALED WIRE SEAL         CCN000140000000140000FN00000000020221101000140000NNE   20220815122238    1C0C  0000200000000018600000023441200    YCYC    004300270014
BI00B1200    #2399T52841    202210207174-1515                FRONT DOOR COVER         CCN000007200000007200FN00000000020221101000007200NNE   20220815122238    2F0F  0000006000000049020000061021200    YCYC    005500360039
BI00B32AF    JTB2094        202208267297-2287-30             HOUSING MALE ASS'Y       CCN000001200000001200FN00000000020220901000001200NNMD0020220815122238    4N0N  00000120000000473900000590032AF    HBYHVTB 005400370024
BI00B32AF    #JTB2105       202210077183-2414                CONNECTOR HOUSING        CCN000038400000000000FY00000000020221001000000000NNMQ0820220815171059    2F0F  00000480000000779200001061032AF    HBYHVTB 005500360039
BI00B32AF    JTB209G        202208267286-4097                CONNECTOR MALE ASS'Y     CCN000001600000001600FN00000000020220901000001600NNE   20220815122238    1N0N  00000160000000768000000978032AF    HBYHVTB 005500360039
BI00B32AF    JTB209H        202209027282-4578-30             HOUSING MALE ASS'Y       CCN000001200000001200FN00000000020220901000001200NNE   20220815122238    4N0N  00000120000000782600000992632AF    HBYHVTB 005500360039
BI00B32AF    #JTB209H       202209027172-5632-10             DUMMY PLUG               CCN000020000000020000FN00000000020220901000020000NNE   20220815122238    2H0H  00002000000000080400000131832AF    HBYHVTB 004300270014
BI00B32AF    JTB210E        202209097298-2278-30             HOUSING FEMALE ASS'Y     CCN000007200000007200FN00000000020221001000007200NNE   20220815122238    4N0N  00000240000001091700001295432AF    HBYHVTB 005500360039
BI00B32AF    JTB210E        202209097298-2507-30             HOUSING FEMALE ASS'Y     CCN000003600000003600FN00000000020221001000003600NNE   20220815122238    4N0N  00000120000000713200000914532AF    HBYHVTB 005500360039
BI00B32AF    JTB210E        202209097298-2508-30             HOUSING FEMALE ASS'Y     CCN000004800000004800FN00000000020221001000004800NNE   20220815122238    4N0N  00000120000000822000001005032AF    HBYHVTB 005500360039
BI00B32AF    JTB210E        202209097298-2509-30             HOUSING FEMALE ASS'Y     CCN000003600000003600FN00000000020221001000003600NNE   20220815122238    4N0N  00000120000000857500001062532AF    HBYHVTB 005500360039
BI00B32AF    JTB210F        202209167116-5045-02             TERMINAL                 CCN000016000000016000FN00000000020221001000016000NNE   20220815122238    4P0P  00001600000000678400001007132AF    HBYHVTB 006400630017
BI00B32AF    JTB210F        202209167116-5750-02             TERMINAL                 CCN000135000000135000FN00000000020221001000135000NNE   20220815122238    4P0P  00001500000000457500000742732AF    HBYHVTB 006400630015
BI00B32AF    JTB210F        202209167116-5752-02             TERMINAL                 CCN000042000000042000FN00000000020221001000042000NNE   20220815122238    4P0P  00002100000000571200000856432AF    HBYHVTB 006400630015
BI00B32AF    JTB210F        202209167195-1935-02             TERMINAL MALE            CCN000019500000019500FN00000000020221001000019500NNE   20220815122238    4P0P  00001950000000670800000964432AF    HBYHVTB 006400630015
BI00B32AF    JTB210F        202209167196-1103-02             TERMINAL                 CCN000022500000022500FN00000000020221001000022500NNE   20220815122238    4P0P  00002250000000429800000715032AF    HBYHVTB 006400630015
BI00B32AF    JTB210F        202209167196-1104-02             TERMINAL                 CCN000022500000022500FN00000000020221001000022500NNE   20220815122238    4P0P  00002250000000441000000726232AF    HBYHVTB 006400630015
BI00B32AF    JTB210F        202209167196-1462-02             TERMINAL FEMALE          CCN000021000000021000FN00000000020221001000021000NNE   20220815122238    4P0P  00002100000000352800000638032AF    HBYHVTB 006400630015
BI00B32AF    JTB210F        202209167196-1935-02             TERMINAL FEMALE          CCN000018000000018000FN00000000020221001000018000NNE   20220815122238    4P0P  00001800000000534600000819832AF    HBYHVTB 006400630015
BI00B32AF    #JTB210F       202209167123-6423-30             CONNECTOR                CCN000006000000006000FN00000000020221001000006000NNE   20220815122238    2F0F  00000200000001002000001167632AF    HBYHVTB 005600390023
BI00B32AF    #JTB210F       202209167158-3121-80             WIRE SEAL                CCN000020000000020000FN00000000020221001000020000NNE   20220815122238    2C0C  00002000000000118000000187332AF    HBYHVTB 002700430014
BI00B32AF    #JTB210F       202209167172-5629-80             RUBBER STOPPER           CCN000020000000020000FN00000000020221001000020000NNE   20220815122238    2H0H  00002000000000060000000111132AF    HBYHVTB 004300270014
BI00B32AF    #JTB210F       202209167172-5630-40             RUBBER STOPPER           CCN000020000000020000FN00000000020221001000020000NNE   20220815122238    2H0H  00002000000000044000000095132AF    HBYHVTB 004300270014
BI00B32AF    JTB210G        202209237158-3165-90             WIRE SEAL                CCN000080000000080000FN00000000020221001000080000NNE   20220815122238    1C0C  00004000000000124000000172432AF    HBYHVTB 004300270014
BI00B32AF    JTB210G        202209237158-3167-80             WIRE SEAL                CCN000020000000020000FN00000000020221001000020000NNE   20220815122238    1C0C  00002000000000048000000109032AF    HBYHVTB 002700430014
BI00B32AF    JTB210G        202209237196-1102-02             TERMINAL                 CCN000022500000022500FN00000000020221001000022500NNE   20220815122238    4P0P  00002250000000405000000690232AF    HBYHVTB 006400630015
BI00B32AF    JTB210G        202209237196-1103-02             TERMINAL                 CCN000045000000045000FN00000000020221001000045000NNE   20220815122238    4P0P  00002250000000429800000715032AF    HBYHVTB 006400630015
BI00B32AF    JTB210G        202209237196-1326-02             TERMINAL FEMALE          CCN000060000000060000FN00000000020221001000060000NNE   20220815122238    4P0P  00006000000000456000000784732AF    HBYHVTB 006400630017
BI00B32AF    JTB210G        202209237282-4578-30             HOUSING MALE ASS'Y       CCN000002400000002400FN00000000020221001000002400NNE   20220815122238    4N0N  00000120000000782600000992632AF    HBYHVTB 005500360039
BI00B32AF    #JTB210G       202209237172-5629-80             RUBBER STOPPER           CCN000060000000060000FN00000000020221001000060000NNE   20220815122238    2H0H  00002000000000060000000111132AF    HBYHVTB 004300270014
BI00B32AF    #JTB210G       202209237189-3038-30             HOUSING                  CCN000001600000001600FN00000000020221001000001600NNE   20220815122238    2F0F  00000160000000921600001141632AF    HBYHVTB 005500360039
BI00B32B1    A22044         202210077282-5553-30             CONNECTOR                CCN000001000000001000FN00000000020221201000001000NNM   20220815154813B1  4N0N  00000100000001010000001187332B1    AXARNE-M005500360039
BI00B32B1    #A22044        202210077283-8226-30             CONNECTOR                CCN000010000000010000FN00000000020221201000010000NNM   20220815154811B1  2N0N  00000200000000820000001008032B1    AXARNE-M005400370024
BI00B32B7    #A82044        202210077283-8398-40             CONNECTOR                CCN000003080000003080FN00000000020221201000003080NNM   20220815154829B7  2N0N  00000154000001007000001171332B7    AXARNE-M005600390023
BI00B32CA    PTA33022       202210067116-3153-02             TERMINAL FEMALE          CCN000792000000810000FN00000000020230201000810000NNE   20220815154915    4P0P  00002700000000459000000744232CA    YPYPY   006400630015
BI00B32CA    PTA33022       202210067158-3167-61             WIRE SEAL                CCN000020000000020000FN00000000020230201000020000NNE   20220815154915    1C0C  00002000000000048000000096432CA    YPYPY   004300270014
BI00B32CA    PTA33022       202210067158-3167-80             WIRE SEAL                CCN000160000000160000FN00000000020230201000160000NNE   20220815154915    1C0C  00002000000000048000000109032CA    YPYPY   002700430014
BI00B32CA    PTA33022       202210067158-3168-80             SEALED                   CCN000040000000040000FN00000000020230201000040000NNE   20220815154915    1C0C  00002000000000044000000092132CA    YPYPY   004300260014
BI00B32CA    PTA33022       202210067289-3342-30             HOUSING FEMALE ASS'Y     CCN000067200000067200FN00000000020230201000067200NNE   20220815154915    1N0N  00000240000000686400000901432CA    YPYPY   005500360039
BI00B32CA    PTA33022       202210067386-2747                CONNECTOR ASS'Y          CCN000002000000002000FN00000000020230201000002000NNE   20220815154915    4N0N  00000200000001162000001284532CA    YPYPY   005400370024
BI00B32CA    #PTA33022      202210067154-5597-30             CASSETTE R/B             CCN000004800000004800FN00000000020230201000004800NNE   20220815154913    2F0F  00000080000000736000000952032CA    YPYPY   005500360039
BI00B32CA    #PTA33022      202210067189-3032-30             HOUSING FEMALE           CCN000004800000004800FN00000000020230201000004800NNE   20220815154913    2F0F  00000160000000801600001021632CA    YPYPY   005500360039
BI00A32CG    S220616        202208167283-9458-30             CONNECTOR                CCN000001400000001400FN00000000020220801000001400NNEM0020220815162301    4N0N  00000020000000792000000984332CG    ASASIACO005600390023
BI00B32CJ    JQN209F        202208267158-3167-80             WIRE SEAL                CCN000040000000040000FN00000000020220901000040000NNE   20220815122238    1C0C  00002000000000048000000109032CJ    QNYHVQN 002700430014
BI00B32CJ    JQN209G        202209027114-4030                TERMINAL                 CCN000010500000010500FN00000000020220901000010500NNE   20220815122238    4P0P  00001050000000926100001254732CJ    QNYHVQN 006400630017
BI00B32CJ    JQN209G        202209027116-4037                TERMINAL                 CCN000006000000006000FN00000000020220901000006000NNE   20220815122238    4P0P  00000600000000600000000894232CJ    QNYHVQN 006400630015
BI00B32CJ    JQN210C        202209097114-4020                TERMINAL                 CCN000042000000042000FN00000000020221001000042000NNE   20220815122238    4P0P  00002100000000875700001169332CJ    QNYHVQN 006400630015
BI00B32CJ    JQN210C        202209097116-2641                TERMINAL                 CCN000018000000018000FN00000000020221001000018000NNE   20220815122238    4P0P  00001800000001161000001344632CJ    QNYHVQN 005100280028
BI00B32CJ    JQN210C        202209097116-4486-02             TERMINAL                 CCN000084000000084000FN00000000020221001000084000NNE   20220815122238    4P0P  00002800000000666400000995132CJ    QNYHVQN 006400630017
BI00B32CJ    JQN210C        202209097286-1899                HOUSING SUB ASSEMBLY     CCN000001680000001680FN00000000020221001000001680NNE   20220815122238    4N0N  00000033600000814800001010832CJ    QNYHVQN 005400370024
BI00B32CJ    JQN210C        202209097288-6547                CONNECTOR MALE ASS'Y     CCN000001500000001500FN00000000020221001000001500NNE   20220815122238    4N0N  00000075000001205300001340332CJ    QNYHVQN 005400370024
BI00B32CJ    #JQN210C       202209097158-3121-80             WIRE SEAL                CCN000040000000040000FN00000000020221001000040000NNE   20220815122238    2C0C  00002000000000118000000187332CJ    QNYHVQN 002700430014
BI00B32CJ    #JQN210C       202209097282-1641                CONNECTOR                CCN000010000000010000FN00000000020221001000010000NNE   20220815122238    2N0N  00000200000000813000000986032CJ    QNYHVQN 005500360039
BI00B32CJ    JQN210D        202209237195-1480-02             TERMINAL MALE            CCN000024000000024000FN00000000020221001000024000NNE   20220815122238    4P0P  00002400000000422400000716632CJ    QNYHVQN 006400630015
BI00B32CJ    #JQN210D       202209237172-5625-90             RUBBER STOPPER           CCN000020000000020000FN00000000020221001000020000NNE   20220815122238    2H0H  00002000000000082400000133832CJ    QNYHVQN 004300270014
BI00B32CJ    JQN210E        202209307172-5540-80             SEALED WIRE SEAL         CCN000020000000020000FN00000000020221001000020000NNE   20220815122238    1C0C  00002000000000186000000234432CJ    QNYHVQN 004300270014
BI00B32DE    TCT210A        202209087283-1288-40             CONNECTOR HOUSING        CCN000001200000001200FN00000000020221001000001200NNE   20220815122238    1N0N  00000120000001382000001640732DE    TVYEV-TV005600390040
BI00B32DE    TCT210A        202209087283-5830                CONNECTOR                CCN000006000000006000FN00000000020221001000006000NNE   20220815122238    1N47  00000600000000954000001104032DE    TVYEV-TV005500360039
BI00B32DE    TCT210A        202209087289-3342-30             HOUSING FEMALE ASS'Y     CCN000016800000016800FN00000000020221001000016800NNE   20220815122238    1N0N  00000240000000686400000901432DE    TVYEV-TV005500360039
BI00B32DG    #QA-22-C070    202208187282-1026                CONNECTOR HOUSING        PNN000002000000002000FN00000000020220801000002000NNED0020220815160239    2N0N  00000200000000696000000808532DG    BFSAIBF 005400370024
BI00B32D4    #4513522487    202208317047-5344                RETAINER                 CCN000030000000030000FN00000000020220801000030000NNM   20220815161902    2F0F  00001000000000870000001016032D4    YRYRL   005600390023
BI00B32EJ    T220812P01     202209157114-4101-02             TERMINAL                 CCN000075000000075000FN00000000020220901000075000NNE   20220815122238EJ  4P0P  00001500000000675000001003632EJ    EJYKBO  006400630017
BI00B32EJ    T220812P01     202209157114-4110-02             TERMINAL                 CCN000015000000015000FN00000000020220901000015000NNE   20220815122238EJ  4P0P  00001500000000901500001230132EJ    EJYKBO  006400630017
BI00B32EJ    T220812P02     202209157116-2951-02             TERMINAL                 CCN000016200000016200FN00000000020220901000016200NNE   20220815122238EJ  4P0P  00000540000000817600001111832EJ    EJYKBO  006400630015
BI00B32EJ    T220812P02     202209157116-4022                TERMINAL                 CCN000027000000027000FN00000000020220901000027000NNE   20220815122238EJ  4P0P  00001350000000618300000903532EJ    EJYKBO  006400630015
BI00B32EJ    T220812P02     202209157116-4101-02             TERMINAL                 CCN000024000000024000FN00000000020220901000024000NNE   20220815122238EJ  4P0P  00001200000000582000000876232EJ    EJYKBO  006400630015
BI00B32EJ    T220812P02     202209157116-4103-02             TERMINAL                 CCN000024000000024000FN00000000020220901000024000NNE   20220815122238EJ  4P0P  00001200000000571200000859432EJ    EJYKBO  006400630015
BI00B32EJ    T220812P02     202209157116-4122-02             TERMINAL                 CCN000009000000009000FN00000000020220901000009000NNE   20220815122238EJ  4P0P  00000450000000656600000950232EJ    EJYKBO  006400630015
BI00B32EJ    T220812P02     202209157158-3006-90             RUBBER STOPPER           CCN000080000000080000FN00000000020220901000080000NNE   20220815122238EJ  1C0C  00002000000000330600000386032EJ    EJYKBO  002700430014
BI00B32EJ    #T220812P02    202209157123-6423-30             CONNECTOR                CCN000016000000016000FN00000000020220901000016000NNE   20220815122238EJ  2F0F  00000200000001002000001167632EJ    EJYKBO  005600390023
BI00B32EJ    #T220812P02    202209157157-3821                RUBBER STOPPER           CCN000020000000020000FN00000000020220901000020000NNE   20220815122238EJ  2C0C  00002000000000176000000238032EJ    EJYKBO  002700430014
BI00B32EJ    #T220812P02    202209157157-7812                SEAL RUBBER              CCN000020000000020000FN00000000020220901000020000NNE   20220815122238EJ  2C0C  00001000000000137000000202032EJ    EJYKBO  002700430014
BI00B32EJ    #T220812P02    202209157283-8398-40             CONNECTOR                CCN000016940000016940FN00000000020220901000016940NNE   20220815122238EJ  2N0N  00000154000001007000001171332EJ    EJYKBO  005600390023
BI00B32EJ    T220812P03     202209157114-4100-02             TERMINAL                 CCN000090000000090000FN00000000020220901000090000NNE   20220815122238EJ  4P0P  00001800000000748800001077432EJ    EJYKBO  006400630017
BI00B32EJ    T220812P03     202209157114-4101-02             TERMINAL                 CCN000165000000165000FN00000000020220901000165000NNE   20220815122238EJ  4P0P  00001500000000675000001003632EJ    EJYKBO  006400630017
BI00B32EJ    #T220812P04    202209157283-8397-40             CONNECTOR                CCN000010780000010780FN00000000020220901000010780NNE   20220815122238EJ  2N0N  00000154000001007000001222732EJ    EJYKBO  005600390023
BI00B32EJ    #T220812P05    202209157158-3120-90             CONNECTOR WIRE SEAL      CCN000200000000200000FN00000000020220901000200000NNE   20220815122238EJ  2C0C  00002000000000136000000194032EJ    EJYKBO  002700430014
BI00B32G2    SA2209BJMW     202208177196-1946-02             TERMINAL FEMALE          CCN000009000000009000FN00000000020220901000009000NNE00020220815122238    4P0P  00000900000000405000000690232G2    AISUAI  006400630015
BI00B32G7    JJ2210A MW     202209157114-5747-02             TERMINAL                 CCN000018000000018000FN00000000020221001000018000NNE   20220815122238    4P0P  00001800000000626400000920032G7    JIJAI   006400630015
BI00B32G7    JJ2210A MW     202209157116-2891-02             TERMINAL                 CCN000015000000015000FN00000000020221001000015000NNE   20220815122238    4P0P  00001500000000982500001145932G7    JIJAI   005100280028
BI00B32G7    JJ2210A MW     202209157116-2893-02             TERMINAL                 CCN000012000000012000FN00000000020221001000012000NNE   20220815122238    4P0P  00001200000000895200001058632G7    JIJAI   005100280028
BI00B32G7    JJ2210A MW     202209157116-5751-02             TERMINAL                 CCN000012000000012000FN00000000020221001000012000NNE   20220815122238    4P0P  00001200000000379200000664432G7    JIJAI   006400630015
BI00B32G7    JJ2210A MW     202209157116-6042                TERMINAL                 CCN000003000000003000FN00000000020221001000003000NNE   20220815122238    4P0P  00000300000000523800000856132G7    JIJAI   006400630015
BI00B32G7    JJ2210A MW     202209157126-8853-02             TERMINAL                 CCN000015000000015000FN00000000020221001000015000NNE   20220815122238    4P0P  00000750000000562500000847732G7    JIJAI   006400630015
BI00B32G7    JJ2210A MW     202209157126-8855-02             TERMINAL                 CCN000006000000006000FN00000000020221001000006000NNE   20220815122238    4P0P  00000600000000510600000795832G7    JIJAI   006400630015
BI00B32G7    JJ2210A MW     202209157288-3335-30             HOUSING MALE             CCN000001500000001500FN00000000020221001000001500NNE   20220815122238    4N0N  00000150000000867000001012032G7    JIJAI   005400370024
BI00B32G7    #JJ2210A MW    202209157158-3008-80             RUBBER STOPPER           CCN000020000000020000FN00000000020221001000020000NNE   20220815122238    2C0C  00002000000000288000000343032G7    JIJAI   004300270014
BI00B32G7    #JJ2210A MW    202209157158-3015-10             RUBBER STOPPER           CCN000010000000010000FN00000000020221001000010000NNE   20220815122238    2C0C  00001000000000419500000474032G7    JIJAI   002700430014
BI00B32G7    #JJ2210A MW    202209157158-3017                RUBBER STOPPER           CCN000010000000010000FN00000000020221001000010000NNE   20220815122238    2C0C  00001000000000375500000435032G7    JIJAI   002700430014
BI00B32G7    #JJ2210A MW    202209157287-1915                CONNECTOR ASS'Y          CCN000007200000007200FN00000000020221001000007200NNE   20220815122238    2N0N  00000240000000666500000923132G7    JIJAI   005500360039
BI00B32G7    JJ2210AMMW     202209157126-8890-02             FUSE TERMINAL            CCN000006000000006000FN00000000020221001000006000NNE   20220815122238    4P0P  00000600000000465000000750232G7    JIJAI   006400630015
BI00B32G7    JJ2210AMMW     202209157173-3291-40             LIF LEVER                CCN000002400000002400FN00000000020221001000002400NNE   20220815122238    1F0F  00000240000000867800001067832G7    JIJAI   005500360039
BI00B32G7    JJ2210AMMW     202209157195-2046-02             TERMINAL MALE            CCN000008400000008400FN00000000020221001000008400NNE   20220815122238    4P0P  00000840000000818200001111832G7    JIJAI   006400630015
BI00B32G7    JJ2210AMMW     202209157196-1102-02             TERMINAL                 CCN000022500000022500FN00000000020221001000022500NNE   20220815122238    4P0P  00002250000000405000000690232G7    JIJAI   006400630015
BI00B32G7    JJ2210AMMW     202209157196-1481-02             TERMINAL FEMALE          CCN000024000000024000FN00000000020221001000024000NNE   20220815122238    4P0P  00002400000000422400000707632G7    JIJAI   006400630015
BI00B32G7    JJ2210AMMW     202209157196-1935-02             TERMINAL FEMALE          CCN000018000000018000FN00000000020221001000018000NNE   20220815122238    4P0P  00001800000000534600000819832G7    JIJAI   006400630015
BI00B32G7    JJ2210AMMW     202209157196-1937-02             TERMINAL FEMALE          CCN000013500000013500FN00000000020221001000013500NNE   20220815122238    4P0P  00001350000000446900000732132G7    JIJAI   006400630015
BI00B32G7    JJ2210AMMW     202209157196-2032-02             TERMINAL FEMALE          CCN000015000000015000FN00000000020221001000015000NNE   20220815122238    4P0P  00001500000001071000001234432G7    JIJAI   005100280028
BI00B32G7    JJ2210AMMW     202209157327-6627-3W             BATTERY FUSE             CCN000000200000000288FN00000000020221001000000288NNE   20220815122238    4N0N  00000009600001332300001534632G7    JIJAI   005500360039
BI00B32G7    #JJ2210AMMW    202209157172-5627-60             RUBBER STOPPER           CCN000020000000020000FN00000000020221001000020000NNE   20220815122238    2H0H  00002000000000070400000121832G7    JIJAI   004300270014
BI00B32G7    #JJ2210AMMW    202209157172-5629-80             RUBBER STOPPER           CCN000040000000040000FN00000000020221001000040000NNE   20220815122238    2H0H  00002000000000060000000111132G7    JIJAI   004300270014
BI00B32G8    PATA2101A      202209147470-5237                J/B ASS'Y                CCN000000048000000048FN00000000020221001000000048NNE   20220815153245    1J0J  00000002400001320000001570032G8    PSPASI  005500360039
BI00B32H0    QA-22-C060     202208167287-3885-40             HYBRID FEMALE ASS'Y      PNN000002400000002400FN00000000020220801000002400NNE   20220815133719    1N0N  00000240000001029600001249632H0    TTTJY   005500360039
BI00B32H2    TIJ209R        202209027196-1327-02             TERMINAL FEMALE          CCN000052000000052000FN00000000020220901000052000NNE   20220815122238    4P0P  00005200000000336000000739532H2    HVYHV   006400630017
BI00B32H2    TIJ209R        202209027196-1482-02             TERMINAL FEMALE          CCN000024000000024000FN00000000020220901000024000NNE   20220815122238    4P0P  00002400000000424800000710032H2    HVYHV   006400630015
BI00B32H2    TIJ210F        202209097158-3009-60             RUBBER STOPPER           CCN000060000000060000FN00000000020221001000060000NNE   20220815122238    1C0C  00002000000000338000000386232H2    HVYHV   002700430014
BI00B32H2    TIJ210F        202209097196-1104-02             TERMINAL                 CCN000022500000022500FN00000000020221001000022500NNE   20220815122238    4P0P  00002250000000441000000726232H2    HVYHV   006400630015
BI00B32H2    TIJ210F        202209097196-1482-02             TERMINAL FEMALE          CCN000024000000024000FN00000000020221001000024000NNE   20220815122238    4P0P  00002400000000424800000710032H2    HVYHV   006400630015
BI00B32H2    TIJ210G        202209167114-4486-02             TERMINAL                 CCN000024000000024000FN00000000020221001000024000NNE   20220815122238    4P0P  00002400000000662400000956032H2    HVYHV   006400630015
BI00B32H2    TIJ210G        202209167114-5096-08             TERMINAL                 CCN000030000000030000FN00000000020221001000030000NNE   20220815122238    4P0P  00003000000000498000000792232H2    HVYHV   006400630015
BI00B32H2    TIJ210G        202209167116-2640                TERMINAL                 CCN000018000000018000FN00000000020221001000018000NNE   20220815122238    4P0P  00001800000001018800001196632H2    HVYHV   005100280028
BI00B32H2    TIJ210G        202209167116-5752-02             TERMINAL                 CCN000042000000042000FN00000000020221001000042000NNE   20220815122238    4P0P  00002100000000571200000856432H2    HVYHV   006400630015
BI00B32H2    TIJ210G        202209167196-1325-02             TERMINAL FEMALE          CCN000180000000180000FN00000000020221001000180000NNE   20220815122238    4P0P  00006000000000450000000778732H2    HVYHV   006400630017
BI00B32H2    TIJ210G        202209167196-1935-02             TERMINAL FEMALE          CCN000018000000018000FN00000000020221001000018000NNE   20220815122238    4P0P  00001800000000534600000819832H2    HVYHV   006400630015
BI00B32H2    TIJ210G        202209167282-4578                HOUSING MALE ASS'Y       CCN000003600000003600FN00000000020221001000003600NNE   20220815122238    4N0N  00000120000000782600000992632H2    HVYHV   005500360039
BI00B32H2    TIJ210G        202209167283-1222                CONNECTOR                CCN000002400000002400FN00000000020221001000002400NNE   20220815122238    4N0N  00000120000000852000001011032H2    HVYHV   005500360039
BI00B32H2    TIJ210G        202209167283-4577                CONNECTOR HOUSING        CCN000004800000004800FN00000000020221001000004800NNE   20220815122238    4N0N  00000480000000916800001136832H2    HVYHV   005500360039
BI00B32H2    TIJ210G        202209167283-4855                CONNECTOR HOUSING        CCN000007200000007200FN00000000020221001000007200NNE   20220815122238    4N0N  00000240000001188400001400032H2    HVYHV   005500360039
BI00B32H2    TIJ210G        202209167283-7062-90             CONNECTOR HOUSING        CCN000001200000001200FN00000000020221001000001200NNE   20220815122238    1N0N  00000060000000500400000645432H2    HVYHV   005400370024
BI00B32H2    #TIJ210G       202209167283-5834-90             CONNECTOR ASS'Y          CCN000003240000003240FN00000000020221001000003240NNE   20220815122238    2N0N  00000324000001296000001736032H2    HVYHV   005600390040
BI00B32H2    TIJ210H        202209237114-4032                TERMINAL                 CCN000007500000007500FN00000000020221001000007500NNE   20220815122238    4P0P  00000750000000735000001063632H2    HVYHV   006400630017
BI00B32H2    TIJ210H        202209237114-4729-02             TERMINAL                 CCN000030000000030000FN00000000020221001000030000NNE   20220815122238    4P0P  00003000000000516000000810232H2    HVYHV   006400630015
BI00B32H2    TIJ210H        202209237196-1326-02             TERMINAL FEMALE          CCN000180000000180000FN00000000020221001000180000NNE   20220815122238    4P0P  00006000000000456000000784732H2    HVYHV   006400630017
BI00B32H2    TIJ210H        202209237282-1024                HOUSING MALE             CCN000004000000004000FN00000000020221001000004000NNE   20220815122238    1N0N  00000100000000458000000580532H2    HVYHV   005400370024
BI00B32H2    TIJ210H        202209237283-4576                HOUSING FEMALE ASS'Y     CCN000014400000014400FN00000000020221001000014400NNE   20220815122238    4N0N  00000480000000651300000871332H2    HVYHV   005500360039
BI00B32H2    TIJ210H        202209237287-7599                HOUSING FEMALE ASS'Y     CCN000003200000003200FN00000000020221001000003200NNE   20220815122238    4N0N  00000160000001233600001445632H2    HVYHV   005500360039
BI00B32H2    TIJ210H        202209237287-9234                JOINT CONNECTOR          CCN000009600000009600FN00000000020221001000009600NNE   20220815122238    4N0N  00000960000000893800001184832H2    HVYHV   005500360039
BI00B32H2    TIJ210H        202209237289-3342-40             HOUSING FEMALE ASS'Y     CCN000002400000002400FN00000000020221001000002400NNE   20220815122238    1N0N  00000240000000686400000901432H2    HVYHV   005500360039
BI00B32H2    TIJ210H        202209237298-1869-30             HOUSING FEMALE ASS'Y     CCN000001200000001200FN00000000020221001000001200NNE   20220815122238    4N0N  00000120000000737000000939832H2    HVYHV   005500360039
BI00B32H2    TIJ210H        202209237298-2278-30             HOUSING FEMALE ASS'Y     CCN000002400000002400FN00000000020221001000002400NNE   20220815122238    4N0N  00000240000001091700001295432H2    HVYHV   005500360039
BI00B32H2    #TIJ210H       202209237183-2413                CONNECTOR HOUSING        CCN000004800000004800FN00000000020221001000004800NNE   20220815122238    2F0F  00000480000000478100000760032H2    HVYHV   005500360039
BI00B32H2    #TIJ210H       202209237189-3034-30             HOUSING FEMALE           CCN000001600000001600FN00000000020221001000001600NNE   20220815122238    2F0F  00000160000000972800001192832H2    HVYHV   005500360039
BI00B32H2    #TIJ210H       202209237283-1095-30             HOUSING FEMALE ASS'Y     CCN000001000000001000FN00000000020221001000001000NNE   20220815122238    2N0N  00000100000000470000000652532H2    HVYHV   005400370024
BI00B32H2    TIJ210J        202209307114-4032                TERMINAL                 CCN000007500000007500FN00000000020221001000007500NNE   20220815122238    4P0P  00000750000000735000001063632H2    HVYHV   006400630017
BI00B32H2    TIJ210J        202209307116-4020                TERMINAL                 CCN000013500000013500FN00000000020221001000013500NNE   20220815122238    4P0P  00001350000000513000000798232H2    HVYHV   006400630015
BI00B32H2    TIJ210J        202209307116-5044-02             TERMINAL                 CCN000048000000048000FN00000000020221001000048000NNE   20220815122238    4P0P  00001600000000641600000986332H2    HVYHV   006400630017
BI00B32H2    TIJ210J        202209307196-1104-02             TERMINAL                 CCN000022500000022500FN00000000020221001000022500NNE   20220815122238    4P0P  00002250000000441000000726232H2    HVYHV   006400630015
BI00B32H2    TIJ210J        202209307196-1466-02             TERMINAL MALE            CCN000142500000142500FN00000000020221001000142500NNE   20220815122238    4P0P  00002850000000427500000712732H2    HVYHV   006400630015
BI00B32H2    TIJ210J        202209307282-4578-30             HOUSING MALE ASS'Y       CCN000001200000001200FN00000000020221001000001200NNE   20220815122238    4N0N  00000120000000782600000992632H2    HVYHV   005500360039
BI00B32H2    TIJ210J        202209307286-1899                HOUSING SUB ASSEMBLY     CCN000001344000001344FN00000000020221001000001344NNE   20220815122238    4N0N  00000033600000814800001010832H2    HVYHV   005400370024
BI00B32H2    TIJ210J        202209307287-1917                CONNECTOR FEMALE         CCN000002400000002400FN00000000020221001000002400NNE   20220815122238    4N0N  00000240000001060800001312532H2    HVYHV   005500360039
BI00B32H2    TIJ210J        202209307298-2278-30             HOUSING FEMALE ASS'Y     CCN000002400000002400FN00000000020221001000002400NNE   20220815122238    4N0N  00000240000001091700001295432H2    HVYHV   005500360039
BI00B32H2    #TIJ210J       202209307183-2413-40             CONNECTOR HOUSING        CCN000004800000004800FN00000000020221001000004800NNE   20220815122238    2F0F  00000480000000479000000761032H2    HVYHV   005500360039
BI00B32H2    #TIJ210J       202209307183-2416                HOUSING                  CCN000002400000002400FN00000000020221001000002400NNE   20220815122238    2F0F  00000240000001495200001771032H2    HVYHV   005500360039
BI00B32H2    #TIJ210J       202209307189-3031-90             HOUSING FEMALE           CCN000002400000002400FN00000000020221001000002400NNE   20220815122238    2F0F  00000240000000936000001373032H2    HVYHV   005500360039
BI00B32H2    #TIJ210J       202209307282-1210                CONNECTOR MALE ASS'Y     CCN000001000000001000FN00000000020221001000001000NNE   20220815122238    2N0N  00000100000000336000000458532H2    HVYHV   005400370024
BI00B32H2    TIJ210K        202210077196-1466-02             TERMINAL MALE            CCN000028500000028500FN00000000020221001000028500NNE   20220815122238    4P0P  00002850000000427500000712732H2    HVYHV   006400630015
BI00B32H2    TIJ210K        202210077196-1482-02             TERMINAL FEMALE          CCN000024000000024000FN00000000020221001000024000NNE   20220815122238    4P0P  00002400000000424800000710032H2    HVYHV   006400630015
BI00B32H2    TIJ210K        202210077282-4578-30             HOUSING MALE ASS'Y       CCN000001200000001200FN00000000020221001000001200NNE   20220815122238    4N0N  00000120000000782600000992632H2    HVYHV   005500360039
BI00B32H2    TIJ210K        202210077283-4855                CONNECTOR HOUSING        CCN000004800000004800FN00000000020221001000004800NNE   20220815122238    4N0N  00000240000001188400001400032H2    HVYHV   005500360039
BI00B32H2    #TIJ210K       202210077157-3790-90             WIRE SEAL                CCN000020000000020000FN00000000020221001000020000NNE   20220815122238    2C0C  00002000000000176000000232732H2    HVYHV   002700430014
BI00B32H2    #TIJ210K       202210077183-2413-40             CONNECTOR HOUSING        CCN000004800000004800FN00000000020221001000004800NNE   20220815122238    2F0F  00000480000000479000000761032H2    HVYHV   005500360039
BI00B32H2    #TIJ210K       202210077282-1210                CONNECTOR MALE ASS'Y     CCN000001000000001000FN00000000020221001000001000NNE   20220815122238    2N0N  00000100000000336000000458532H2    HVYHV   005400370024
BI00B32M1    #TCV209B       202208257282-5528-70             HOUSING MALE ASS'Y       CCN000001000000001000FN00000000020220901000001000NNE   20220815122238    2N0N  00000100000000230000000339032M1    VNYEV   005400370024
BI00B32M3    SM2209A MW     202209017116-2640                TERMINAL                 CCN000018000000018000FN00000000020220901000018000NNE   20220815122238    4P0P  00001800000001018800001196632M3    SASAMI  005100280028
BI00B32M3    SM2209A MW     202209017116-2641                TERMINAL                 CCN000018000000018000FN00000000020220901000018000NNE   20220815122238    4P0P  00001800000001161000001344632M3    SASAMI  005100280028
BI00B32M3    SM2209A MW     202209017116-3154-02             TERMINAL FEMALE          CCN000054000000054000FN00000000020220901000054000NNE   20220815122238    4P0P  00002700000000469800000755032M3    SASAMI  006400630015
BI00B32M3    SM2209A MW     202209017116-4031                TERMINAL                 CCN000007500000007500FN00000000020220901000007500NNE   20220815122238    4P0P  00000750000000619500000904732M3    SASAMI  006400630015
BI00B32M3    SM2209A MW     202209017116-4032                TERMINAL                 CCN000006000000006000FN00000000020220901000006000NNE   20220815122238    4P0P  00000600000000532800000818032M3    SASAMI  006400630015
BI00B32M3    SM2209A MW     202209017158-3006-90             RUBBER STOPPER           CCN000020000000020000FN00000000020220901000020000NNE   20220815122238    1C0C  00002000000000330600000386032M3    SASAMI  002700430014
BI00B32M3    SM2209A MW     202209017287-3885-40             HYBRID FEMALE ASS'Y      CCN000002400000002400FN00000000020220901000002400NNE   20220815122238    1N0N  00000240000001029600001249632M3    SASAMI  005500360039
BI00B32M3    #SM2209A MW    202209017183-2414                CONNECTOR HOUSING        CCN000004800000004800FN00000000020220901000004800NNE   20220815122238    2F0F  00000480000000779200001061032M3    SASAMI  005500360039
BI00B32M3    @SM2209A MW    202209017283-1223-30             HOUSING SUB ASSEMBLY     CCN000009600000009600FN00000000020220901000009600NNE   20220815122238    3N0N  00000480000000749300000998032M3    SASAMI  005500360039
BI00B32M3    #SM2209ADMW    202209017287-1915-30             CONNECTOR ASS'Y          CCN000002400000002400FN00000000020220901000002400NNE   20220815122238    2N0N  00000240000000666500000923132M3    SASAMI  005500360039
BI00B32M3    SM2209AEMW     202209017289-7212-30             HOUSING FEMALE ASS'Y     CCN000000240000000240FN00000000020220901000000240NNE   20220815122238    4N0N  00000024000001388400001593432M3    SASAMI  005500360039
BI00B32M3    #SM2209AHMW    202209017287-8861                HOUSING FEMALE ASS'Y     CCN000001600000001600FN00000000020220901000001600NNE   20220815122238    2N0N  00000160000000769000000929032M3    SASAMI  005400370024
BI00B32M3    @SM2209AMMW    202209017183-8049                CONNECTOR HOUSING        CCN000004000000004000FN00000000020220901000004000NNE   20220815122238    3F0F  00000400000000583600000740032M3    SASAMI  005400370024
BI00B32N1    #NST2122DCU    202209017157-7812                SEAL RUBBER              CCN000070000000070000FN00000000020220901000070000NNED0020220815131159    2C0C  00001000000000137000000202032N1    TAYIPL  002700430014
BI00B32Q8    EU22104 MW     202208317283-5845                CONNECTOR HOUSING        CCN000006000000006000FN00000000020221001000006000NNMD0020220815131015    1N0N  00000600000000444000000606332Q8    EMEMI   005400370024
BI00B32Q8    #EU22104 MW    202208177158-3121-80             WIRE SEAL                CCN000040000000040000FN00000000020221001000040000NNMD0020220815122238    2C0C  00002000000000118000000187332Q8    EMEMI   002700430014
BI00B32Q8    EU2210B MW     202208247114-4020                TERMINAL                 CCN000042000000042000FN00000000020221001000042000NNED0020220815141128    4P0P  00002100000000875700001169332Q8    EMEMI   006400630015
BI00B32Q8    EU2210C MW     202208247114-4020                TERMINAL                 CCN000042000000042000FN00000000020221001000042000NNED0020220815141151    4P0P  00002100000000875700001169332Q8    EMEMI   006400630015
BI00B32R7    R-TAP220342    202208257116-4121-02             TERMINAL                 CCN000090000000090000FN00000000020220901000090000NNE   20220815122238    4P0P  00000450000000618800000912432R7    IVYCIC  006400630015
BI00B32R7    R-TAP220343    202208257158-3169-40             SEALING PLUG             CCN000080000000080000FN00000000020220901000080000NNE   20220815122238    1C0C  00004000000000156000000204132R7    IVYCIC  004300260014
BI00B32R7    R-TAP220343    202208257289-9553-50             SEALED ASSY FEMALE       CCN000041160000041160FN00000000020220901000041160NNE   20220815122238    4N0N  00000294000001108100001520632R7    IVYCIC  005500360039
BI00B32R7    R-TAP220344    202209017158-3167-80             WIRE SEAL                CCN000020000000020000FN00000000020220901000020000NNE   20220815122238    1C0C  00002000000000048000000109032R7    IVYCIC  002700430014
BI00B32U5    DI2043A        202210077297-3482                JOINT CONNECTOR          CCN000005400000005600FN00000000020221201000005600NNE   20220815155041U5  4N0N  00000080000000621000000730532U5    AMAMSD  005400370024
BI00B32U5    DI2043A        202210077298-3484                HOUSING FEMALE ASS'Y     CCN000002100000002700FN00000000020221201000002700NNE   20220815155041U5  4N0N  00000270000000742500001028732U5    AMAMSD  005400370024
BI00B32U5    DI2044         202210077116-4037                TERMINAL                 CCN000042000000042000FN00000000020221201000042000NNM   20220815155156U5  4P0P  00000600000000600000000894232U5    AMAMSD  006400630015
BI00B32U5    DI2044         202210077297-3482                JOINT CONNECTOR          CCN000003600000004000FN00000000020221201000004000NNM   20220815155156U5  4N0N  00000080000000621000000730532U5    AMAMSD  005400370024
BI00B32U5    DI2044         202210077298-3484                HOUSING FEMALE ASS'Y     CCN000004200000005400FN00000000020221201000005400NNM   20220815155156U5  4N0N  00000270000000742500001028732U5    AMAMSD  005400370024
BI00B32U5    DI2044         202210077017-1182-02             TERMINAL                 CCN000045000000045000FN00000000020221201000045000NNM   20220815155156U5  4P0P  00004500000001165500001318632U5    AMAMSD  005100280028
BI00B32U5    DI2044         202210077116-1685-02             TERMINAL                 CCN000288000000288000FN00000000020221201000288000NNM   20220815155156U5  4P0P  00002400000000897600001065232U5    AMAMSD  005100280028
BI00B32U5    DI2044         202210077116-5045-02             TERMINAL                 CCN000368000000368000FN00000000020221201000368000NNM   20220815155156U5  4P0P  00001600000000678400001007132U5    AMAMSD  006400630017
BI00B32U5    DI2044         202210077116-5046-02             TERMINAL                 CCN000036000000036000FN00000000020221201000036000NNM   20220815155156U5  4P0P  00001200000000544800000873532U5    AMAMSD  006400630017
BI00B32U5    DI2044         202210077158-3167-80             WIRE SEAL                CCN000020000000020000FN00000000020221201000020000NNM   20220815155156U5  1C0C  00002000000000048000000109032U5    AMAMSD  002700430014
BI00B32U5    DI2044         202210077196-1943-02             TERMINAL FEMALE          CCN000012000000012000FN00000000020221201000012000NNM   20220815155156U5  4P0P  00001200000000492000000777232U5    AMAMSD  006400630015
BI00B32U5    DI2044         202210077283-9458-30             CONNECTOR                CCN000002400000002400FN00000000020221201000002400NNM   20220815155156U5  4N0N  00000020000000792000000984332U5    AMAMSD  005600390023
BI00B32U5    DI2044         202210077288-3331-30             HOUSING MALE             CCN000003000000003000FN00000000020221201000003000NNM   20220815155156U5  4N0N  00000150000000866000001010932U5    AMAMSD  005400370024
BI00B32U5    DI2044         202210077327-6985-30             MULTI FUSE               CCN000001152000001152FN00000000020221201000001152NNM   20220815155156U5  4N0N  00000028800000886100001052032U5    AMAMSD  005400370024
BI00B32U5    DI2044         202210077327-6990-30             MULTI FUSE               CCN000002240000002240FN00000000020221201000002240NNM   20220815155156U5  4NON  00000056000000724000000907032U5    AMAMSD  005400370024
BI00B32U5    DI2044         202210077283-9457-3W             CONNECTOR                CCN000002160000002160FN00000000020221201000002160NNM   20220815155156U5  4N0N  00000012000000515000001067032U5    AMAMSD  005600390023
BI00B32U5    #DI2044        202210077158-3017                RUBBER STOPPER           CCN000040000000040000FN00000000020221201000040000NNM   20220815155155U5  2C0C  00001000000000375500000435032U5    AMAMSD  002700430014
BI00B32U5    #DI2044        202210077189-3032                HOUSING FEMALE           CCN000006400000006400FN00000000020221201000006400NNM   20220815155155U5  2F0F  00000160000000788400001018432U5    AMAMSD  005500360039
BI00B32U5    #DI2044        202210077154-5597-30             CASSETTE R/B             CCN000000800000000800FN00000000020221201000000800NNM   20220815155155U5  2F0F  00000080000000736000000952032U5    AMAMSD  005500360039
BI00B32U5    #DI2044        202210077158-3007-10             RUBBER STOPPER           CCN000100000000100000FN00000000020221201000100000NNM   20220815155155U5  2H0H  00002000000000308000000362732U5    AMAMSD  002700430014
BI00B32U5    #DI2044        202210077158-3015-10             RUBBER STOPPER           CCN000030000000030000FN00000000020221201000030000NNM   20220815155155U5  2C0C  00001000000000419500000474032U5    AMAMSD  002700430014
BI00B32U5    #DI2044        202210077282-6446-40             CONNECTOR                CCN000003000000003000FN00000000020221201000003000NNM   20220815155155U5  2N0N  00000150000001185000001368032U5    AMAMSD  005500360039
BI00B32U5    #DI2044        202210077289-4200-30             HOUSING FEMALE ASS'Y     CCN000016000000016000FN00000000020221201000016000NNM   20220815155155U5  2N0N  00000200000000926000001021032U5    AMAMSD  005400370024
BI00B32U9    TP0413S        202209297289-4696-30             HOUSING FEMALE ASS'Y     CCN000008000000008000FN00000000020221101000008000NNE   20220815155218U9  4N0N  00000200000000913400001055432U9    YNYNA-E 005400370024
BI00B32U9    TP0413S        202209297298-1187-30             SHUNT RING ASSEMBLY      CCN000010000000010000FN00000000020221101000010000NNE   20220815155218U9  4N0N  00001000000000647000000769532U9    YNYNA-E 005400370024
BI00B32U9    #TP0413S       202209297B58-3121-80             SEALED CONNECTOR         CCN000200000000200000FN00000000020221101000200000NNE   20220815155216U9  2C0C  00002000000000118000000195032U9    YNYNA-E 004300270014
BI00B32U9    TPA241         202209157114-4030                TERMINAL                 CCN000010500000010500FN00000000020221101000010500NNM   20220815155859U9  4P0P  00001050000000926100001254732U9    YNYNA-E 006400630017
BI00B32U9    TPA241         202209157116-4037                TERMINAL                 CCN000006000000006000FN00000000020221101000006000NNM   20220815155859U9  4P0P  00000600000000600000000894232U9    YNYNA-E 006400630015
BI00B32U9    TPA241         202209157288-6547                CONNECTOR MALE ASS'Y     CCN000002250000002250FN00000000020221101000002250NNM   20220815155859U9  4N0N  00000075000001205300001340332U9    YNYNA-E 005400370024
BI00B32U9    TPA241         202209157289-6547                HOUSING FEMALE ASS'Y     CCN000002400000002400FN00000000020221101000002400NNM   20220815155859U9  1N0N  00000240000001152000001362032U9    YNYNA-E 005500360039
BI00B32U9    TPA241         202209157116-2951-02             TERMINAL                 CCN000048600000048600FN00000000020221101000048600NNM   20220815155859U9  4P0P  00000540000000817600001111832U9    YNYNA-E 006400630015
BI00B32U9    TPA241         202209157116-4231-02             TERMINAL                 CCN000104000000104000FN00000000020221101000104000NNM   20220815155859U9  4P0P  00002600000000683800001012532U9    YNYNA-E 006400630017
BI00B32U9    TPA241         202209157116-5046-02             TERMINAL                 CCN000012000000012000FN00000000020221101000012000NNM   20220815155859U9  4P0P  00001200000000544800000873532U9    YNYNA-E 006400630017
BI00B32U9    TPA241         202209157158-3006-90             RUBBER STOPPER           CCN000080000000080000FN00000000020221101000080000NNM   20220815155859U9  1C0C  00002000000000330600000386032U9    YNYNA-E 002700430014
BI00B32U9    TPA241         202209157158-3165-90             WIRE SEAL                CCN000160000000160000FN00000000020221101000160000NNM   20220815155859U9  1C0C  00004000000000124000000172432U9    YNYNA-E 004300270014
BI00B32U9    TPA241         202209157158-3166-60             WIRE SEAL                CCN000200000000200000FN00000000020221101000200000NNM   20220815155859U9  1C0C  00004000000000104000000152432U9    YNYNA-E 002700430014
BI00B32U9    TPA241         202209157158-3167-80             WIRE SEAL                CCN000180000000180000FN00000000020221101000180000NNM   20220815155859U9  1C0C  00002000000000048000000109032U9    YNYNA-E 002700430014
BI00B32U9    TPA241         202209157158-3168-80             SEALED                   CCN000200000000200000FN00000000020221101000200000NNM   20220815155859U9  1C0C  00002000000000044000000092132U9    YNYNA-E 004300260014
BI00B32U9    TPA241         202209157158-3169-40             SEALING PLUG             CCN000360000000360000FN00000000020221101000360000NNM   20220815155859U9  1C0C  00004000000000156000000204132U9    YNYNA-E 004300260014
BI00B32U9    TPA241         202209157196-0805-02             TERMINAL FEMALE          CCN000067500000067500FN00000000020221101000067500NNM   20220815155859U9  4P0P  00002250000000558000000843232U9    YNYNA-E 006400630015
BI00B32U9    TPA241         202209157282-5574-10             CONNECTOR                CCN000040000000040000FN00000000020221101000040000NNM   20220815155859U9  4N0N  00000080000001235000001423032U9    YNYNA-E 005600390040
BI00B32U9    TPA241         202209157282-5684-10             CONNECTOR                CCN000002400000002400FN00000000020221101000002400NNM   20220815155859U9  4N0N  00000120000001477000001656032U9    YNYNA-E 005600390040
BI00B32U9    TPA241         202209157282-7301-40             CONNECTOR                CCN000001500000001500FN00000000020221101000001500NNM   20220815155859U9  4N0N  00000150000001125000001497932U9    YNYNA-E 005500360039
BI00B32U9    TPA241         202209157283-8599-30             CONNECTOR                CCN000003080000003080FN00000000020221101000003080NNM   20220815155859U9  4N0N  00000154000000947100001157032U9    YNYNA-E 005600390023
BI00B32U9    TPA241         202209157289-4212-80             SEALED HOUSING ASS'Y     CCN000002000000002000FN00000000020221101000002000NNM   20220815155859U9  4N0N  00000200000000848600000978632U9    YNYNA-E 005400370024
BI00B32U9    TPA241         202209157289-6868-30             SEALED ASSY FEMALE       CCN000020160000020160FN00000000020221101000020160NNM   20220815155859U9  4N0N  00000252000000839200001119232U9    YNYNA-E 005500360039
BI00B32U9    TPA241         202209157298-1186-40             SQUIB SUB ASS'Y          CCN000040000000040000FN00000000020221101000040000NNM   20220815155859U9  4N0N  00001000000000650000000774532U9    YNYNA-E 005400370024
BI00B32U9    TPA241         202209157298-1186-70             SQUIB SUB ASS'Y          CCN000020000000020000FN00000000020221101000020000NNM   20220815155859U9  4N0N  00001000000000650000000774532U9    YNYNA-E 005400370024
BI00B32U9    TPA241         202209157298-1187-30             SHUNT RING ASSEMBLY      CCN000010000000010000FN00000000020221101000010000NNM   20220815155859U9  4N0N  00001000000000647000000769532U9    YNYNA-E 005400370024
BI00B32U9    TPA241         202209157298-1149-3W             SQUIB SUB ASS'Y          CCN000010000000010000FN00000000020221101000010000NNM   20220815155859U9  4N0N  00001000000000785000000922032U9    YNYNA-E 005400370024
BI00B32U9    TPA241         202209157B58-3070-80             RUBBER STOPPER           CCN000080000000080000FN00000000020221101000080000NNM   20220815155859U9  1C0C  00004000000000276000000333032U9    YNYNA-E 004300270014
BI00B32U9    #TPA241        202209157147-9094                RETAINER                 CCN000018000000018000FN00000000020221101000018000NNM   20220815155856U9  2F0F  00000300000000717000000872932U9    YNYNA-E 005500360039
BI00B32U9    #TPA241        202209157047-1611-30             CLIP                     CCN000002000000002000FN00000000020221101000002000NNM   20220815155856U9  2F0F  00000200000001600000001739032U9    YNYNA-E 005600390040
BI00B32U9    #TPA241        202209157157-3790-90             WIRE SEAL                CCN000020000000020000FN00000000020221101000020000NNM   20220815155856U9  2C0C  00002000000000176000000232732U9    YNYNA-E 002700430014
BI00B32U9    #TPA241        202209157158-3008-80             RUBBER STOPPER           CCN000020000000020000FN00000000020221101000020000NNM   20220815155856U9  2C0C  00002000000000288000000343032U9    YNYNA-E 004300270014
BI00B32U9    #TPA241        202209157158-3376-50             CONNECTOR WIRE SEAL      CCN000240000000240000FN00000000020221101000240000NNM   20220815155856U9  2C0C  00002000000000184000000240732U9    YNYNA-E 002700430014
BI00B32U9    #TPA241        202209157282-6446-40             CONNECTOR                CCN000006000000006000FN00000000020221101000006000NNM   20220815155856U9  2N0N  00000150000001185000001368032U9    YNYNA-E 005500360039
BI00B32U9    #TPA241        202209157282-6457-40             CONNECTOR                CCN000004800000004800FN00000000020221101000004800NNM   20220815155856U9  2N0N  00000080000001137000001421332U9    YNYNA-E 005600390040
BI00B32U9    #TPA241        202209157282-8395-40             CONNECTOR                CCN000021000000021000FN00000000020221101000021000NNM   20220815155856U9  2N0N  00000100000001009000001188032U9    YNYNA-E 005500360039
BI00B32U9    #TPA241        202209157283-8397-40             CONNECTOR                CCN000009240000009240FN00000000020221101000009240NNM   20220815155856U9  2N0N  00000154000001007000001222732U9    YNYNA-E 005600390023
BI00A32W4    4500196372     202208187114-4100-02             TERMINAL                 CCN000036000000036000FN00000000020220801000036000NNEM0020220815170714W4N24P0P  00001800000000748800001077432W4N2  HJYHK-J 006400630017
BI00A32W4    4500196785     202208187114-4100-02             TERMINAL                 CCN000018000000018000FN00000000020220801000018000NNEM0020220815170755W4N24P0P  00001800000000748800001077432W4N2  HJYHK-J 006400630017
BI00B32W4    #4500198331    202208307157-7812                SEAL RUBBER              CCN000020000000020000FN00000000020220801000020000NNED0020220815131632W42 2C0C  00001000000000137000000202032W42   HJYHK   002700430014
BI00A32W4    4500197262     202209157158-3167-80             WIRE SEAL                CCN000040000000040000FN00000000020220901000040000NNE   20220815144339W9151C0C  00002000000000048000000109032W915  HJYHK   002700430014
BI00A32W4    QA-22-C070     202208187283-1024                CONNECTOR SUB ASSY       PNY000001000000001000FN00000000020220801000001000NNEQ0020220815155313W4164N0N  00000200000000400000000522532W416  HJYHK   005400370024
BI00B32W7    SC2209AJMW     202208177116-4031                TERMINAL                 CCN000007500000007500FN00000000020220901000007500NNED0020220815135931    4P0P  00000750000000619500000904732W7    SYSYA-CH006400630015
BI00B32W7    SC2209AJMW     202208177283-8630                CONNECTOR ASS'Y          CCN000012000000012000FN00000000020220901000012000NNED0020220815135931    4N0N  00000600000000540000000701332W7    SYSYA-CH005400370024
BI00A32W9    4500197262     202208257158-3167-80             WIRE SEAL                CCN000040000000000000FY00000000020220901000000000NNED0020220815111558W9151C0C  00002000000000048000000109032W915  HJYHK   002700430014
BI00B32X5    TIB2044        202210077114-4031                TERMINAL                 CCN000010500000010500FN00000000020221201000010500NNM   20220815160505X5  4P0P  00001050000000966000001294632X5    EPYNA-E 006400630017
BI00B32X5    TIB2044        202210077297-3482                JOINT CONNECTOR          CCN000007200000007200FN00000000020221201000007200NNM   20220815160505X5  4N0N  00000080000000621000000730532X5    EPYNA-E 005400370024
BI00B32X5    TIB2044        202210077298-3484                HOUSING FEMALE ASS'Y     CCN000008400000010800FN00000000020221201000010800NNM   20220815160505X5  4N0N  00000270000000742500001028732X5    EPYNA-E 005400370024
BI00B32X5    TIB2044        202210077114-4486-02             TERMINAL                 CCN000096000000096000FN00000000020221201000096000NNM   20220815160505X5  4P0P  00002400000000662400000956032X5    EPYNA-E 006400630015
BI00B32X5    TIB2044        202210077116-1685-02             TERMINAL                 CCN000072000000072000FN00000000020221201000072000NNM   20220815160505X5  4P0P  00002400000000897600001065232X5    EPYNA-E 005100280028
BI00B32X5    TIB2044        202210077116-2951-02             TERMINAL                 CCN000010800000010800FN00000000020221201000010800NNM   20220815160505X5  4P0P  00000540000000817600001111832X5    EPYNA-E 006400630015
BI00B32X5    TIB2044        202210077195-0783-08             TERMINAL                 CCN000030000000030000FN00000000020221201000030000NNM   20220815160505X5  4P0P  00003000000000507000000801232X5    EPYNA-E 006400630015
BI00B32X5    TIB2044        202210077196-0396-02             TERMINAL                 CCN000030000000030000FN00000000020221201000030000NNM   20220815160505X5  4P0P  00001500000000949500001112932X5    EPYNA-E 002800510028
BI00B32X5    TIB2044        202210077282-5574-10             CONNECTOR                CCN000002400000002400FN00000000020221201000002400NNM   20220815160505X5  4N0N  00000080000001235000001423032X5    EPYNA-E 005600390040
BI00B32X5    TIB2044        202210077288-6598-70             HOUSING MALE ASS'Y       CCN000002880000002880FN00000000020221201000002880NNM   20220815160505X5  4N0N  00000144000001074200001429232X5    EPYNA-E 005500360039
BI00B32X5    TIB2044        202210077327-6834-80             MAIN FUSE                CCN000003600000003600FN00000000020221201000003600NNM   20220815160505X5  4N0N  00000060000000736800000938332X5    EPYNA-E 005400370024
BI00B32X5    TIB2044        202210077327-6872-30             MULTI FUSE               CCN000002304000002304FN00000000020221201000002304NNM   20220815160505X5  4N0N  00000028800000984500001150432X5    EPYNA-E 005400370024
BI00B32X5    TIB2044        202210077327-6878-30             MULTI FUSE               CCN000001440000001440FN00000000020221201000001440NNM   20220815160505X5  4N0N  00000028800000989700001155632X5    EPYNA-E 005400370024
BI00B32X5    TIB2044        202210077327-6882-30             MULTI FUSE               CCN000001440000001440FN00000000020221201000001440NNM   20220815160505X5  4N0N  00000028800001015900001181832X5    EPYNA-E 005400370024
BI00B32X5    TIB2044        202210077388-0313-30             CONNECTOR ASS'Y          CCN000009600000009600FN00000000020221201000009600NNM   20220815160505X5  4N0N  00000120000000995000001125032X5    EPYNA-E 005400370024
BI00B32X5    TIB2044        202210077327-6731-3W             BATTERY FUSE             CCN000001280000001280FN00000000020221201000001280NNM   20220815160505X5  4N0N  00000006400000697600000843032X5    EPYNA-E 005400370024
BI00B32X5    TIB2044        202210077C89-6868-30             SEALED ASSY FEMALE       CCN000005040000005040FN00000000020221201000005040NNM   20220815160505X5  4N0N  00000252000000839200001119232X5    EPYNA-E 005500360039
BI00B32X5    #TIB2044       202210077157-7812                SEAL RUBBER              CCN000010000000010000FN00000000020221201000010000NNM   20220815160502X5  2C0C  00001000000000137000000202032X5    EPYNA-E 002700430014
BI00B32X5    #TIB2044       202210077198-1372                HOUSING FEMALE           CCN000004000000004000FN00000000020221201000004000NNM   20220815160502X5  2F0F  00000200000000857200000982232X5    EPYNA-E 005400370024
BI00B32X5    #TIB2044       202210077198-2458                HOUSING FEMALE           CCN000001760000001760FN00000000020221201000001760NNM   20220815160502X5  2F0F  00000176000000869100001160532X5    EPYNA-E 005400370024
BI00B32X5    #TIB2044       202210077154-3424-30             REAR HOLDER              CCN000009000000009000FN00000000020221201000009000NNM   20220815160502X5  2F0F  00000300000000975000001138632X5    EPYNA-E 005500360039
BI00B32X5    #TIB2044       202210077158-3007-10             RUBBER STOPPER           CCN000140000000140000FN00000000020221201000140000NNM   20220815160502X5  2H0H  00002000000000308000000362732X5    EPYNA-E 002700430014
BI00B32X5    #TIB2044       202210077158-3015-10             RUBBER STOPPER           CCN000010000000010000FN00000000020221201000010000NNM   20220815160502X5  2C0C  00001000000000419500000474032X5    EPYNA-E 002700430014
BI00B32X5    #TIB2044       202210077158-3376-50             CONNECTOR WIRE SEAL      CCN000020000000020000FN00000000020221201000020000NNM   20220815160502X5  2C0C  00002000000000184000000240732X5    EPYNA-E 002700430014
BI00B32X5    #TIB2044       202210077198-1373-60             HOUSING FEMALE           CCN000004000000004000FN00000000020221201000004000NNM   20220815160502X5  2F0F  00000200000000819400000947432X5    EPYNA-E 005400370024
BI00B32X5    #TIB2044       202210077198-4979-30             HOUSING FEMALE           CCN000004000000004000FN00000000020221201000004000NNM   20220815160502X5  2F0F  00000400000000707200000876032X5    EPYNA-E 005400370024
BI00B32X5    #TIB2044       202210077282-8395-40             CONNECTOR                CCN000005000000005000FN00000000020221201000005000NNM   20220815160502X5  2N0N  00000100000001009000001188032X5    EPYNA-E 005500360039
BI00B32X5    TIB2043A       202210077297-3482                JOINT CONNECTOR          CCN000008100000008800FN00000000020221201000008800NNE   20220815161951X5  4N0N  00000080000000621000000730532X5    EPYNA-E 005400370024
BI00B32X5    TIB2043A       202210077298-3484                HOUSING FEMALE ASS'Y     CCN000008400000010800FN00000000020221201000010800NNE   20220815161951X5  4N0N  00000270000000742500001028732X5    EPYNA-E 005400370024
BI00A32X5    TAP77D09C      202208177297-3482                JOINT CONNECTOR          CCN000005400000005600FN00000000020220801000005600NNED0720220815162129X5  4N0N  00000080000000621000000730532X5    EPYNA-E 005400370024
BI00A32X5    TAP77D09C      202208177298-3484                HOUSING FEMALE ASS'Y     CCN000006300000008100FN00000000020220801000008100NNED0720220815162129X5  4N0N  00000270000000742500001028732X5    EPYNA-E 005400370024
BI00B32X5    TIB2042A       202210077297-3482                JOINT CONNECTOR          CCN000008100000008800FN00000000020221201000008800NNE   20220815162608X5  4N0N  00000080000000621000000730532X5    EPYNA-E 005400370024
BI00B32X5    TIB2042A       202210077298-3484                HOUSING FEMALE ASS'Y     CCN000008400000010800FN00000000020221201000010800NNE   20220815162608X5  4N0N  00000270000000742500001028732X5    EPYNA-E 005400370024
