AE00TI102209180218/09/202200000001600000000000000010800KGM  00000016058KGM  7114-4101-02             TERMINAL                 7114410102               0         0         0         0    0    0    00024000000001500000000039000093600000
AE00TI102209180218/09/202200000001400000000000000007182KGM  00000011175KGM  7116-4020                TERMINAL                 71164020                 0         0         0         0    0    0    00018900000001350000000028000052920000
AE00TI102209180218/09/202200000001500000000000000002558KGM  00000003284KGM  7137-3047-30             UNIT PACKING             7137304730               0         0         0         0    0    0    00001500000000100000000189000028350000
AE00TI102209180218/09/202200000004100000000000000013555KGM  00000015826KGM  7158-3006-90             RUBBER STOPPER           7158300690               0         0         0         0    0    0    00082000000002000000000016000131200000
AE00TI102209180218/09/202200000001800000000000000006084KGM  00000006952KGM  7158-3009-60             RUBBER STOPPER           7158300960               0         0         0         0    0    0    00036000000002000000000012000043200000
AE00TI102209180218/09/202200000002100000000000000005796KGM  00000006999KGM  7158-3070-80             RUBBER STOPPER           7158307080               0         0         0         0    0    0    00084000000004000000000008000067200000
AE00TI102209180218/09/202200000001400000000000000001456KGM  00000002134KGM  7158-3166-60             WIRE SEAL                7158316660               0         0         0         0    0    0    00056000000004000000000004000022400000
AE00TI102209180218/09/202200000003500000000000000001680KGM  00000003815KGM  7158-3167-80             WIRE SEAL                7158316780               0         0         0         0    0    0    00070000000002000000000005000035000000
AE00TI102209180218/09/202200000000600000000000000000264KGM  00000000553KGM  7158-3168-80             SEALED                   7158316880               0         0         0         0    0    0    00012000000002000000000004000004800000
AE00TI102209180218/09/202200000001600000000000000008928KGM  00000013491KGM  7196-0805-02             TERMINAL FEMALE          7196080502               0         0         0         0    0    0    00036000000002250000000021000075600000
AE00TI102209180218/09/202200000000400000000000000003096KGM  00000003750KGM  7196-2026-02             TERMINAL FEMALE          7196202602               0         0         0         0    0    0    00007200000001800000000034000024480000
AE00TI102209180218/09/202200000000100000000000000000699KGM  00000000909KGM  7282-4854                HOUSING MALE ASS'Y       72824854                 0         0         0         0    0    0    00000120000000120000000339000004068000
AE00TI102209180218/09/202200000000300000000000000002750KGM  00000003410KGM  7283-4577                CONNECTOR HOUSING        72834577                 0         0         0         0    0    0    00001440000000480000000172000024768000
AE00TI102209180218/09/202200000000100000000000000001234KGM  00000001446KGM  7287-7599                HOUSING FEMALE ASS'Y     72877599                 0         0         0         0    0    0    00000160000000160000000350000005600000
AE00TI102209180218/09/202200000000100000000000000000894KGM  00000001185KGM  7287-9234                JOINT CONNECTOR          72879234                 0         0         0         0    0    0    00000960000000960000000137000013152000
AE00TI102209180218/09/202200000001200000000000000010393KGM  00000012133KGM  7288-3329-30             HOUSING MALE             7288332930               0         0         0         0    0    0    00001800000000150000000354000063720000
AE00TI102209180218/09/202200000000100000000000000000866KGM  00000001011KGM  7288-3330-30             HOUSING MALE             7288333030               0         0         0         0    0    0    00000150000000150000000354000005310000
AE00TI102209180218/09/202200000000500000000000000004330KGM  00000005055KGM  7288-3331-30             HOUSING MALE             7288333130               0         0         0         0    0    0    00000750000000150000000354000026550000
AE00TI102209180218/09/202200000001100000000000000009537KGM  00000011132KGM  7288-3335-30             HOUSING MALE             7288333530               0         0         0         0    0    0    00001650000000150000000354000058410000
AE00TI102209180218/09/202200000000400000000000000003468KGM  00000004048KGM  7288-3337-30             HOUSING MALE             7288333730               0         0         0         0    0    0    00000600000000150000000354000021240000
AE00TI102209180218/09/202200000000300000000000000002601KGM  00000003036KGM  7288-3339-30             HOUSING MALE             7288333930               0         0         0         0    0    0    00000450000000150000000354000015930000
AE00TI102209180218/09/202200000000700000000000000004805KGM  00000006310KGM  7289-3342                HOUSING FEMALE ASS'Y     72893342                 0         0         0         0    0    0    00001680000000240000000186000031248000
AE00TI102209180218/09/202200000003900000000000000026770KGM  00000035155KGM  7289-3342-30             HOUSING FEMALE ASS'Y     7289334230               0         0         0         0    0    0    00009360000000240000000191000178776000
AE00TI102209180218/09/202200000000200000000000000001658KGM  00000002098KGM  7289-6518-30             HOUSING FEMALE ASS'Y     7289651830               0         0         0         0    0    0    00000240000000120000000598000014352000
AE00TI102209180218/09/202200000000500000000000000005016KGM  00000006023KGM  7298-1865-30             HOUSING FEMALE ASS'Y     7298186530               0         0         0         0    0    0    00001200000000240000000196000023520000
AE00TI102209180218/09/202200000000200000000000000002195KGM  00000002717KGM  7298-4094-10             HOUSING FEMALE ASS'Y     7298409410               0         0         0         0    0    0    00000676000000338000000241000016291600
AE00TI102209180218/09/202200000000200000000000000001963KGM  00000002580KGM  7298-5993-30             SEALED ASSY FEMALE       7298599330               0         0         0         0    0    0    00000436800000218400000266000011618880
AE00TI102209180218/09/202200000001300000000000000014832KGM  00000017627KGM  7327-6840-3W             BATTERY FUSE             732768403W               0         0         0         0    0    0    00000093600000007200009909000092748240
AE00TI102209180218/09/202200000002800000000000000020776KGM  00000031416KGM  7388-2978-30             HOUSING MALE ASS'Y       7388297830               0         0         0         0    0    0    00001344000000048000001790000240576000
