AE00TI102209180118/09/202200000001900000000000000003534KGM  00000004454KGM  7B72-5540-80             SEALED WIRE SEAL         7B72554080               0         0         0         0    0    0    00038000000002000000000010000038000000
AE00TI102209180118/09/202200000002100000000000000003581KGM  00000004597KGM  7137-3047-30             UNIT PACKING             7137304730               0         0         0         0    0    0    00002100000000100000000189000039690000
AE00TI102209180118/09/202200000002200000000000000007273KGM  00000008492KGM  7158-3006-90             RUBBER STOPPER           7158300690               0         0         0         0    0    0    00044000000002000000000016000070400000
AE00TI102209180118/09/202200000001500000000000000005070KGM  00000005793KGM  7158-3009-60             RUBBER STOPPER           7158300960               0         0         0         0    0    0    00030000000002000000000012000036000000
AE00TI102209180118/09/202200000000100000000000000000444KGM  00000000502KGM  7158-3023                RUBBER STOPPER           71583023                 0         0         0         0    0    0    00000500000000500000000078000003900000
AE00TI102209180118/09/202200000001000000000000000002760KGM  00000003333KGM  7158-3070-80             RUBBER STOPPER           7158307080               0         0         0         0    0    0    00040000000004000000000008000032000000
AE00TI102209180118/09/202200000002600000000000000002704KGM  00000003962KGM  7158-3166-60             WIRE SEAL                7158316660               0         0         0         0    0    0    00104000000004000000000004000041600000
AE00TI102209180118/09/202200000011700000000000000005616KGM  00000012753KGM  7158-3167-80             WIRE SEAL                7158316780               0         0         0         0    0    0    00234000000002000000000005000117000000
AE00TI102209180118/09/202200000003500000000000000001540KGM  00000003224KGM  7158-3168-80             SEALED                   7158316880               0         0         0         0    0    0    00070000000002000000000004000028000000
AE00TI102209180118/09/202200000000200000000000000000312KGM  00000000408KGM  7158-3169-40             SEALING PLUG             7158316940               0         0         0         0    0    0    00008000000004000000000006000004800000
AE00TI102209180118/09/202200000001600000000000000010458KGM  00000011227KGM  7172-5403-30             SEALED PACKING           7172540330               0         0         0         0    0    0    00006400000000400000000119000076160000
AE00TI102209180118/09/202200000000100000000000000000917KGM  00000001137KGM  7283-4577                CONNECTOR HOUSING        72834577                 0         0         0         0    0    0    00000480000000480000000172000008256000
AE00TI102209180118/09/202200000000100000000000000001234KGM  00000001446KGM  7287-7599                HOUSING FEMALE ASS'Y     72877599                 0         0         0         0    0    0    00000160000000160000000350000005600000
AE00TI102209180118/09/202200000000400000000000000003464KGM  00000004044KGM  7288-3329-30             HOUSING MALE             7288332930               0         0         0         0    0    0    00000600000000150000000354000021240000
AE00TI102209180118/09/202200000000300000000000000002599KGM  00000003034KGM  7288-3330-30             HOUSING MALE             7288333030               0         0         0         0    0    0    00000450000000150000000354000015930000
AE00TI102209180118/09/202200000000200000000000000001732KGM  00000002022KGM  7288-3331-30             HOUSING MALE             7288333130               0         0         0         0    0    0    00000300000000150000000354000010620000
AE00TI102209180118/09/202200000001400000000000000012138KGM  00000014168KGM  7288-3335-30             HOUSING MALE             7288333530               0         0         0         0    0    0    00002100000000150000000354000074340000
AE00TI102209180118/09/202200000000100000000000000000862KGM  00000001006KGM  7288-3340-30             HOUSING MALE             7288334030               0         0         0         0    0    0    00000150000000150000000354000005310000
AE00TI102209180118/09/202200000000400000000000000002746KGM  00000003606KGM  7289-3342                HOUSING FEMALE ASS'Y     72893342                 0         0         0         0    0    0    00000960000000240000000186000017856000
AE00TI102209180118/09/202200000002400000000000000016474KGM  00000021634KGM  7289-3342-30             HOUSING FEMALE ASS'Y     7289334230               0         0         0         0    0    0    00005760000000240000000191000110016000
AE00TI102209180118/09/202200000000200000000000000001658KGM  00000002098KGM  7289-6518-30             HOUSING FEMALE ASS'Y     7289651830               0         0         0         0    0    0    00000240000000120000000598000014352000
AE00TI102209180118/09/202200000001800000000000000018058KGM  00000021681KGM  7298-1865-30             HOUSING FEMALE ASS'Y     7298186530               0         0         0         0    0    0    00004320000000240000000196000084672000
AE00TI102209180118/09/202200000000900000000000000008834KGM  00000011610KGM  7298-5993-30             SEALED ASSY FEMALE       7298599330               0         0         0         0    0    0    00001965600000218400000266000052284960
AE00TI102209180118/09/202200000001600000000000000017752KGM  00000020154KGM  7327-6572-3W             BATTERY FUSE             732765723W               0         0         0         0    0    0    00000153600000009600008162000125368320
AE00TI102209180118/09/202200000003900000000000000044495KGM  00000052880KGM  7327-6840-3W             BATTERY FUSE             732768403W               0         0         0         0    0    0    00000280800000007200009909000278244720
AE00TI102209180118/09/202200000006800000000000000050456KGM  00000076296KGM  7388-2978-30             HOUSING MALE ASS'Y       7388297830               0         0         0         0    0    0    00003264000000048000001790000584256000
