AE00TI102209220622/09/202200000000100000000000000000623KGM  00000000762KGM  7B74-1849-70             COVER                    7B74184970               0         0         0         0    0    0    00002500000002500000000046000011500000
AE00TI102209220622/09/202200000000100000000000000000105KGM  00000000183KGM  7157-7811-80             SEAL RUBBER              7157781180               0         0         0         0    0    0    00001000000001000000000055000005500000
AE00TI102209220622/09/202200000000500000000000000001250KGM  00000001530KGM  7158-3003-90             RUBBER STOPPER           7158300390               0         0         0         0    0    0    00010000000002000000000012000012000000
AE00TI102209220622/09/202200000000100000000000000000718KGM  00000000839KGM  7183-4000                HOUSING FEMALE           71834000                 0         0         0         0    0    0    00000200000000200000000259000005180000
AE00TI102209220622/09/202200000000400000000000000003130KGM  00000003970KGM  7282-4578                HOUSING MALE ASS'Y       72824578                 0         0         0         0    0    0    00000480000000120000000255000012240000
AE00TI102209220622/09/202200000000300000000000000003190KGM  00000003850KGM  7282-4855                HOUSING MALE ASS'Y       72824855                 0         0         0         0    0    0    00000360000000120000000347000012492000
AE00TI102209220622/09/202200000000700000000000000004733KGM  00000005723KGM  7283-1289                CONNECTOR HOUSING        72831289                 0         0         0         0    0    0    00000420000000060000000795000033390000
AE00TI102209220622/09/202200000000100000000000000000676KGM  00000000821KGM  7283-1289-10             CONNECTOR HOUSING        7283128910               0         0         0         0    0    0    00000060000000060000000813000004878000
AE00TI102209220622/09/202200000000600000000000000004054KGM  00000004924KGM  7283-1289-30             CONNECTOR HOUSING        7283128930               0         0         0         0    0    0    00000360000000060000000813000029268000
AE00TI102209220622/09/202200000004100000000000000027872KGM  00000033817KGM  7283-1289-40             CONNECTOR HOUSING        7283128940               0         0         0         0    0    0    00002460000000060000000813000199998000
AE00TI102209220622/09/202200000000100000000000000000651KGM  00000000871KGM  7283-4576-90             HOUSING FEMALE ASS'Y     7283457690               0         0         0         0    0    0    00000480000000480000000133000006384000
AE00TI102209220622/09/202200000000300000000000000002513KGM  00000003173KGM  7283-4578                HOUSING FEMALE ASS'Y     72834578                 0         0         0         0    0    0    00000720000000240000000190000013680000
AE00TI102209220622/09/202200000000100000000000000000954KGM  00000001104KGM  7283-5830-30             CONNECTOR                7283583030               0         0         0         0    0    0    00000600000000600000000155000009300000
AE00TI102209220622/09/202200000000200000000000000001778KGM  00000002264KGM  7283-5843                CONNECTOR                72835843                 0         0         0         0    0    0    00000300000000150000000280000008400000
AE00TI102209220622/09/202200000000400000000000000001776KGM  00000002425KGM  7283-5845                CONNECTOR HOUSING        72835845                 0         0         0         0    0    0    00002400000000600000000133000031920000
AE00TI102209220622/09/202200000000200000000000000000888KGM  00000001213KGM  7283-5845-30             CONNECTOR HOUSING        7283584530               0         0         0         0    0    0    00001200000000600000000133000015960000
AE00TI102209220622/09/202200000000200000000000000001828KGM  00000002286KGM  7283-6120                CONNECTOR HOUSING        72836120                 0         0         0         0    0    0    00000300000000150000000368000011040000
AE00TI102209220622/09/202200000000700000000000000003503KGM  00000004518KGM  7283-7062-30             CONNECTOR HOUSING        7283706230               0         0         0         0    0    0    00000420000000060000000666000027972000
AE00TI102209220622/09/202200000002000000000000000010008KGM  00000012908KGM  7283-7062-40             CONNECTOR HOUSING        7283706240               0         0         0         0    0    0    00001200000000060000000666000079920000
AE00TI102209220622/09/202200000000400000000000000002002KGM  00000002582KGM  7283-7062-90             CONNECTOR HOUSING        7283706290               0         0         0         0    0    0    00000240000000060000000669000016056000
AE00TI102209220622/09/202200000000400000000000000002330KGM  00000002998KGM  7283-7064-10             CONNECTOR HOUSING        7283706410               0         0         0         0    0    0    00000240000000060000000719000017256000
AE00TI102209220622/09/202200000000100000000000000000582KGM  00000000749KGM  7283-7064-30             CONNECTOR HOUSING        7283706430               0         0         0         0    0    0    00000060000000060000000719000004314000
AE00TI102209220622/09/202200000000100000000000000000585KGM  00000000752KGM  7283-7064-40             CONNECTOR HOUSING        7283706440               0         0         0         0    0    0    00000060000000060000000719000004314000
AE00TI102209220622/09/202200000000700000000000000006374KGM  00000007914KGM  7286-3885                CONNECTOR MALE ASS'Y     72863885                 0         0         0         0    0    0    00000840000000120000000295000024780000
AE00TI102209220622/09/202200000000200000000000000001333KGM  00000001846KGM  7287-1915                CONNECTOR ASS'Y          72871915                 0         0         0         0    0    0    00000480000000240000000161000007728000
AE00TI102209220622/09/202200000000300000000000000003089KGM  00000003749KGM  7287-3885                HYBRID FEMALE ASS'Y      72873885                 0         0         0         0    0    0    00000720000000240000000207000014904000
AE00TI102209220622/09/202200000000200000000000000002059KGM  00000002499KGM  7287-3885-30             HYBRID FEMALE ASS'Y      7287388530               0         0         0         0    0    0    00000480000000240000000215000010320000
AE00TI102209220622/09/202200000000200000000000000002059KGM  00000002499KGM  7287-3885-40             HYBRID FEMALE ASS'Y      7287388540               0         0         0         0    0    0    00000480000000240000000216000010368000
AE00TI102209220622/09/202200000000300000000000000003499KGM  00000004159KGM  7287-8073                HOUSING FEMALE ASS'Y     72878073                 0         0         0         0    0    0    00000720000000240000000244000017568000
AE00TI102209220622/09/202200000000100000000000000000894KGM  00000001185KGM  7287-9234                JOINT CONNECTOR          72879234                 0         0         0         0    0    0    00000960000000960000000137000013152000
AE00TI102209220622/09/202200000000600000000000000002326KGM  00000004726KGM  7288-3206                HOUSING MALE ASS'Y       72883206                 0         0         0         0    0    0    00000612000000102000000351000021481200
AE00TI102209220622/09/202200000000400000000000000003464KGM  00000004044KGM  7288-3329-30             HOUSING MALE             7288332930               0         0         0         0    0    0    00000600000000150000000354000021240000
AE00TI102209220622/09/202200000000500000000000000004330KGM  00000005055KGM  7288-3331-30             HOUSING MALE             7288333130               0         0         0         0    0    0    00000750000000150000000354000026550000
AE00TI102209220622/09/202200000000500000000000000004304KGM  00000005029KGM  7288-3332-30             HOUSING MALE             7288333230               0         0         0         0    0    0    00000750000000150000000354000026550000
AE00TI102209220622/09/202200000001500000000000000010296KGM  00000013521KGM  7289-3342                HOUSING FEMALE ASS'Y     72893342                 0         0         0         0    0    0    00003600000000240000000186000066960000
AE00TI102209220622/09/202200000005200000000000000035693KGM  00000046873KGM  7289-3342-30             HOUSING FEMALE ASS'Y     7289334230               0         0         0         0    0    0    00012480000000240000000191000238368000
AE00TI102209220622/09/202200000001000000000000000006864KGM  00000009014KGM  7289-3342-40             HOUSING FEMALE ASS'Y     7289334240               0         0         0         0    0    0    00002400000000240000000192000046080000
AE00TI102209220622/09/202200000001500000000000000010296KGM  00000013521KGM  7289-3342-90             HOUSING FEMALE ASS'Y     7289334290               0         0         0         0    0    0    00003600000000240000000196000070560000
AE00TI102209220622/09/202200000000300000000000000003456KGM  00000004086KGM  7289-6547                HOUSING FEMALE ASS'Y     72896547                 0         0         0         0    0    0    00000720000000240000000229000016488000
AE00TI102209220622/09/202200000000300000000000000002518KGM  00000003358KGM  7289-6868-30             SEALED ASSY FEMALE       7289686830               0         0         0         0    0    0    00000756000000252000000332000025099200
AE00TI102209220622/09/202200000000500000000000000004908KGM  00000006450KGM  7298-5993-30             SEALED ASSY FEMALE       7298599330               0         0         0         0    0    0    00001092000000218400000266000029047200
AE00TI102209220622/09/202200000001000000000000000011095KGM  00000012596KGM  7327-6424-4W             BATTERY FUSE             732764244W               0         0         0         0    0    0    00000096000000009600007969000076502400
AE00TI102209220622/09/202200000000700000000000000007986KGM  00000009491KGM  7327-6840-3W             BATTERY FUSE             732768403W               0         0         0         0    0    0    00000050400000007200009909000049941360
AE00TI102209220622/09/202200000000300000000000000002985KGM  00000003375KGM  7388-0313-30             CONNECTOR ASS'Y          7388031330               0         0         0         0    0    0    00000360000000120000000376000013536000
AE00TI102209220622/09/202200000000600000000000000004452KGM  00000006732KGM  7388-2978-30             HOUSING MALE ASS'Y       7388297830               0         0         0         0    0    0    00000288000000048000001790000051552000
AE00TI102209220722/09/202200000000500000000000000000853KGM  00000001095KGM  7137-3047-30             UNIT PACKING             7137304730               0         0         0         0    0    0    00000500000000100000000189000009450000
AE00TI102209220722/09/202200000001400000000000000004628KGM  00000005404KGM  7158-3006-90             RUBBER STOPPER           7158300690               0         0         0         0    0    0    00028000000002000000000016000044800000
AE00TI102209220722/09/202200000001500000000000000005070KGM  00000005793KGM  7158-3009-60             RUBBER STOPPER           7158300960               0         0         0         0    0    0    00030000000002000000000012000036000000
AE00TI102209220722/09/202200000000700000000000000001932KGM  00000002333KGM  7158-3070-80             RUBBER STOPPER           7158307080               0         0         0         0    0    0    00028000000004000000000008000022400000
AE00TI102209220722/09/202200000000300000000000000000312KGM  00000000457KGM  7158-3166-60             WIRE SEAL                7158316660               0         0         0         0    0    0    00012000000004000000000004000004800000
AE00TI102209220722/09/202200000004600000000000000002208KGM  00000005014KGM  7158-3167-80             WIRE SEAL                7158316780               0         0         0         0    0    0    00092000000002000000000005000046000000
AE00TI102209220722/09/202200000000400000000000000000624KGM  00000000816KGM  7158-3169-40             SEALING PLUG             7158316940               0         0         0         0    0    0    00016000000004000000000006000009600000
AE00TI102209220722/09/202200000000700000000000000001302KGM  00000001641KGM  7172-5540-80             SEALED WIRE SEAL         7172554080               0         0         0         0    0    0    00014000000002000000000010000014000000
AE00TI102209220722/09/202200000000100000000000000001320KGM  00000001570KGM  7470-3082                J/B COMPLETE ASS'Y       74703082                 0         0         0         0    0    0    00000002400000002400031298000007511520
AE00TI102209220722/09/202200000003500000000000000046200KGM  00000054950KGM  7470-4481                J/B COMPLETE ASS'Y       74704481                 0         0         0         0    0    0    00000084000000002400000000000000000000
AE00TI102209220722/09/202200000000800000000000000000000KGM  00000000000KGM  7470-4815D               J/B COMPLETE ASS'Y       74704815D                0         0         0         0    0    0    00000012000000001500000000000000000000
AE00TI102209220722/09/202200000000500000000000000000000KGM  00000000000KGM  7470-4816D               J/B COMPLETE ASS'Y       74704816D                0         0         0         0    0    0    00000007500000001500000000000000000000
AE00TI102209220722/09/202200000000700000000000000000000KGM  00000000000KGM  7470-4818D               J/B COMPLETE ASS'Y       74704818D                0         0         0         0    0    0    00000010500000001500000000000000000000
AE00TI102209220722/09/202200000001000000000000000000000KGM  00000000000KGM  7470-5300E               J/B COMPLETE ASS'Y       74705300E                0         0         0         0    0    0    00000010000000001000000000000000000000
AE00TI102209220722/09/202200000000600000000000000000000KGM  00000000000KGM  7470-5782E               J/B COMPLETE ASS'Y       74705782E                0         0         0         0    0    0    00000006000000001000000000000000000000
AE00TI102209220722/09/202200000000500000000000000000000KGM  00000000000KGM  7470-5784D               J/B COMPLETE ASS'Y       74705784D                0         0         0         0    0    0    00000007500000001500000000000000000000
AE00TI102209220722/09/202200000002000000000000000000000KGM  00000000000KGM  7470-5784E               J/B COMPLETE ASS'Y       74705784E                0         0         0         0    0    0    00000020000000001000000000000000000000
AE00TI102209220722/09/202200000000900000000000000000000KGM  00000000000KGM  7470-5936D               J/B COMPLETE ASS'Y       74705936D                0         0         0         0    0    0    00000013500000001500000000000000000000
