AE00TO202209220422/09/202200000000600000000000000006667KGM  00000006960KGM  18007704130              AVSS 125F B              AVSS 125F B              0         0         0         0    0    0    00000000000048000000000034700001665600
AE00TO202209220422/09/202200000001600000000000000017780KGM  00000018561KGM  18007704140              AVSS 125F W              AVSS 125F W              0         0         0         0    0    0    00000000000128000000000034700004441600
AE00TO202209220422/09/202200000000600000000000000006667KGM  00000006960KGM  18007704143              AVSS 125F W/B            AVSS 125F W/B            0         0         0         0    0    0    00000000000048000000000034700001665600
AE00TO202209220422/09/202200000003300000000000000036669KGM  00000038283KGM  18007704150              AVSS 125F R              AVSS 125F R              0         0         0         0    0    0    00000000000264000000000034700009160800
AE00TO202209220422/09/202200000001300000000000000014445KGM  00000015081KGM  18007704152              AVSS 125F P              AVSS 125F P              0         0         0         0    0    0    00000000000104000000000034700003608800
AE00TO202209220422/09/202200000003200000000000000035558KGM  00000037123KGM  18007704160              AVSS 125F G              AVSS 125F G              0         0         0         0    0    0    00000000000256000000000034700008883200
AE00TO202209220422/09/202200000000600000000000000006668KGM  00000006960KGM  18007704161              AVSS 125F LG             AVSS 125F LG             0         0         0         0    0    0    00000000000048000000000034700001665600
AE00TO202209220422/09/202200000001700000000000000018890KGM  00000019721KGM  18007704180              AVSS 125F BR             AVSS 125F BR             0         0         0         0    0    0    00000000000136000000000034700004719200
AE00TO202209220422/09/202200000003200000000000000035558KGM  00000037123KGM  18007704190              AVSS 125F L              AVSS 125F L              0         0         0         0    0    0    00000000000256000000000034700008883200
AE00TO202209220422/09/202200000001900000000000000021113KGM  00000022042KGM  18007704192              AVSS 125F V              AVSS 125F V              0         0         0         0    0    0    00000000000152000000000034700005274400
AE00TO202209220422/09/202200000002100000000000000019782KGM  00000020809KGM  18018403740              CAVS 03 W                CAVS 03 W                0         0         0         0    0    0    00000000000420000000000010300004326000
AE00TO202209220422/09/202200000000700000000000000006594KGM  00000006936KGM  18018403770              CAVS 03 Y                CAVS 03 Y                0         0         0         0    0    0    00000000000140000000000010300001442000
AE00TO202209220422/09/202200000001800000000000000016956KGM  00000017836KGM  18018403790              CAVS 03 L                CAVS 03 L                0         0         0         0    0    0    00000000000360000000000010300003708000
AE00TO202209220422/09/202200000010400000000000000117000KGM  00000122084KGM  1801W003990              IVSSH 05F L              IVSSH 05F L              0         0         0         0    0    0    00000000001872000000000015400028828800
AE00TO202209220422/09/202200000000100000000000000001147KGM  00000001195KGM  1801W004030              IVSSH 075F B             IVSSH 075F B             0         0         0         0    0    0    00000000000013000000000021500000279500
AE00TO202209220422/09/202200000000100000000000000001130KGM  00000001179KGM  1801W006941              IVSSH 035F GY            IVSSH 035F GY            0         0         0         0    0    0    00000000000025000000000011400000285000
AE00TO202209220422/09/202200000000100000000000000001130KGM  00000001179KGM  1801W006950              IVSSH 035F R             IVSSH 035F R             0         0         0         0    0    0    00000000000025000000000011400000285000
AE00TO202209220422/09/202200000000900000000000000010170KGM  00000010610KGM  1801W006970              IVSSH 035F Y             IVSSH 035F Y             0         0         0         0    0    0    00000000000225000000000011400002565000
AE00TO202209220422/09/202200000000200000000000000002260KGM  00000002358KGM  1801W006990              IVSSH 035F L             IVSSH 035F L             0         0         0         0    0    0    00000000000050000000000011400000570000
AE00TO202209220422/09/202200000003800000000000000042940KGM  00000044798KGM  1801W006991              IVSSH 035F SB            IVSSH 035F SB            0         0         0         0    0    0    00000000000950000000000011400010830000
AE00TO202209220422/09/202200000000700000000000000007236KGM  00000007576KGM  180D0203930              AVSSH 05F B              AVSSH 05F B              0         0         0         0    0    0    00000000000105000000000016300001711500
AE00TO202209220422/09/202200000000400000000000000004135KGM  00000004329KGM  180D0203940              AVSSH 05F W              AVSSH 05F W              0         0         0         0    0    0    00000000000060000000000016300000978000
AE00TO202209220422/09/202200000000500000000000000005169KGM  00000005411KGM  180D0203943              AVSSH 05F W/B            AVSSH 05F W/B            0         0         0         0    0    0    00000000000075000000000016300001222500
AE00TO202209220422/09/202200000001200000000000000012403KGM  00000012988KGM  180D0203950              AVSSH 05F R              AVSSH 05F R              0         0         0         0    0    0    00000000000180000000000016300002934000
AE00TO202209220422/09/202200000000900000000000000009303KGM  00000009741KGM  180D0203960              AVSSH 05F G              AVSSH 05F G              0         0         0         0    0    0    00000000000135000000000016300002200500
AE00TO202209220422/09/202200000000300000000000000003102KGM  00000003246KGM  180D0203961              AVSSH 05F LG             AVSSH 05F LG             0         0         0         0    0    0    00000000000045000000000016300000733500
AE00TO202209220422/09/202200000000100000000000000001034KGM  00000001082KGM  180D0203965              AVSSH 05F G/R            AVSSH 05F G/R            0         0         0         0    0    0    00000000000015000000000016300000244500
AE00TO202209220422/09/202200000000400000000000000004135KGM  00000004329KGM  180D0203970              AVSSH 05F Y              AVSSH 05F Y              0         0         0         0    0    0    00000000000060000000000016300000978000
AE00TO202209220422/09/202200000000100000000000000001034KGM  00000001082KGM  180D0203980              AVSSH 05F BR             AVSSH 05F BR             0         0         0         0    0    0    00000000000015000000000016300000244500
AE00TO202209220422/09/202200000000300000000000000003101KGM  00000003247KGM  180D0203990              AVSSH 05F L              AVSSH 05F L              0         0         0         0    0    0    00000000000045000000000016300000733500
AE00TO202209220422/09/202200000000100000000000000000934KGM  00000000983KGM  180D0204030              AVSSH 075F B             AVSSH 075F B             0         0         0         0    0    0    00000000000010000000000023200000232000
AE00TO202209220422/09/202200000000100000000000000000934KGM  00000000983KGM  180D0204034              AVSSH 075F B/W           AVSSH 075F B/W           0         0         0         0    0    0    00000000000010000000000023200000232000
AE00TO202209220422/09/202200000001600000000000000014944KGM  00000015727KGM  180D0204043              AVSSH 075F W/B           AVSSH 075F W/B           0         0         0         0    0    0    00000000000160000000000023200003712000
AE00TO202209220422/09/202200000000100000000000000000934KGM  00000000983KGM  180D0204049              AVSSH 075F W/L           AVSSH 075F W/L           0         0         0         0    0    0    00000000000010000000000023200000232000
AE00TO202209220422/09/202200000000200000000000000001868KGM  00000001966KGM  180D0204050              AVSSH 075F R             AVSSH 075F R             0         0         0         0    0    0    00000000000020000000000023200000464000
AE00TO202209220422/09/202200000000400000000000000003736KGM  00000003932KGM  180D0204054              AVSSH 075F R/W           AVSSH 075F R/W           0         0         0         0    0    0    00000000000040000000000023200000928000
AE00TO202209220422/09/202200000000100000000000000000934KGM  00000000983KGM  180D0204059              AVSSH 075F R/L           AVSSH 075F R/L           0         0         0         0    0    0    00000000000010000000000023200000232000
AE00TO202209220422/09/202200000000100000000000000000934KGM  00000000983KGM  180D0204060              AVSSH 075F G             AVSSH 075F G             0         0         0         0    0    0    00000000000010000000000023200000232000
AE00TO202209220422/09/202200000000800000000000000007472KGM  00000007863KGM  180D0204080              AVSSH 075F BR            AVSSH 075F BR            0         0         0         0    0    0    00000000000080000000000023200001856000
AE00TO202209220422/09/202200000000100000000000000000934KGM  00000000983KGM  180D0204090              AVSSH 075F L             AVSSH 075F L             0         0         0         0    0    0    00000000000010000000000023200000232000
AE00TO202209220422/09/202200000000100000000000000000934KGM  00000000983KGM  180D0204091              AVSSH 075F SB            AVSSH 075F SB            0         0         0         0    0    0    00000000000010000000000023200000232000
AE00TO202209220422/09/202200000000100000000000000000934KGM  00000000983KGM  180D0204092              AVSSH 075F V             AVSSH 075F V             0         0         0         0    0    0    00000000000010000000000023200000232000
AE00TO202209220422/09/202200000001900000000000000014651KGM  00000015581KGM  181AD2002ZZ              CIVUSAS-S 035X2 B        CIVUSAS-S 035X2 B        0         0         0         0    0    0    00000000000085500000000043700003736350
AE00TO202209220422/09/202200000001000000000000000008111KGM  00000008601KGM  181AD2008ZZ              CIVUSAS-S 05X2 B         CIVUSAS-S 05X2 B         0         0         0         0    0    0    00000000000040000000000051400002056000
AE00TO202209220422/09/202200000002800000000000000022512KGM  00000023881KGM  181B0910241              CAVSAS 05X2 GY           CAVSAS 05X2 GY           0         0         0         0    0    0    00000000000084000000000061200005140800
AE00TO202209220422/09/202200000002000000000000000015933KGM  00000016909KGM  181B32116Y8              AVSSCS 03FX2 DGY/R       AVSSCS 03FX2 DGY/R       0         0         0         0    0    0    00000000000070000000000060900004263000
AE00TO202209220422/09/202200000000400000000000000002863KGM  00000003057KGM  181D6910239              AVSSHCS 05FX2 B/L        AVSSHCS 05FX2 B/L        0         0         0         0    0    0    00000000000012000000000079800000957600
AE00TO202209220422/09/202200000000200000000000000001520KGM  00000001618KGM  181E48017ZZ              CAVSAS-S 05X1 GY/G       CAVSAS-S 05X1 GY/G       0         0         0         0    0    0    00000000000008000000000040600000324800
AE00TO202209220422/09/202200000000300000000000000002280KGM  00000002427KGM  181E48019ZZ              CAVSAS-S 05X1 GY/W       CAVSAS-S 05X1 GY/W       0         0         0         0    0    0    00000000000012000000000040600000487200
AE00TO202209220422/09/202200000001400000000000000010609KGM  00000011293KGM  181E50002ZZ              AVSSCS-S 03FX2 DGY/G     AVSSCS-S 03FX2 DGY/G     0         0         0         0    0    0    00000000000049000000000059400002910600
AE00TO202209220422/09/202200000000400000000000000003056KGM  00000003251KGM  181E50004ZZ              AVSSCS-S 05FX1 DGY       AVSSCS-S 05FX1 DGY       0         0         0         0    0    0    00000000000016000000000050400000806400
AE00TO202209220422/09/202200000002400000000000000018334KGM  00000019506KGM  181E50005ZZ              AVSSCS-S 05FX1 DGY/W     AVSSCS-S 05FX1 DGY/W     0         0         0         0    0    0    00000000000096000000000050400004838400
AE00TO202209220422/09/202200000000900000000000000006875KGM  00000007315KGM  181E50006ZZ              AVSSCS-S 05FX1 DGY/Y     AVSSCS-S 05FX1 DGY/Y     0         0         0         0    0    0    00000000000036000000000050400001814400
AE00TO202209220422/09/202200000001500000000000000011459KGM  00000012191KGM  181E50007ZZ              AVSSCS-S 05FX1 DGY/L     AVSSCS-S 05FX1 DGY/L     0         0         0         0    0    0    00000000000060000000000050400003024000
AE00TO202209220422/09/202200000000300000000000000002273KGM  00000002420KGM  181E50021ZZ              AVSSCS-S 03FX2 DGY/P     AVSSCS-S 03FX2 DGY/P     0         0         0         0    0    0    00000000000010500000000059400000623700
AE00TO202209220422/09/202200000000600000000000000004547KGM  00000004840KGM  181E50036ZZ              AVSSCS-S 03FX2 DGY       AVSSCS-S 03FX2 DGY       0         0         0         0    0    0    00000000000021000000000059400001247400
