BI00A1200    #MKH2022-116   202209267282-1214-51             CONNECTOR                CCN000001000000001000FN00000000020220901000001000NNEM0020220922144754    2N0N  0000010000000112000000129201200    YCYC    005500360039
BI00A1200    #CE22-MN-0109  202209297173-6362                ELEMENT COVER            CCN000005000000000000FY00000000020220901000000000NNED0020220922130152    2F0F  0000018100000094140000118241200    YCYC    005400370024
BI00A1200    CE22-MN-0109   202209277173-6362                ELEMENT COVER            CCN000005430000005430FN00000000020220901000005430NNE   20220922130234    1F0F  0000018100000094140000118241200    YCYC    005400370024
BI00A1200    O022K50439     202210317288-6598-70             HOUSING MALE ASS'Y       CCN000002880000002880FN00000000020221101000002880NNED0020220922131525    4N0N  0000014400000107420000142921200    YCYC    005500360039
BI00B1200    #2399T52A07    202210067174-1270-30             SEALED COVER             CCN000004000000004000FN00000000020221101000004000NNE   20220922131545    2F0F  0000008000000056070000067911200    YCYC    005500360039
BI00B1200    #2399T52A07    202210067174-1760-50             CAP                      CCN000027000000027000FN00000000020221101000027000NNE   20220922131545    2F0F  0000030000000081360000092261200    YCYC    005400370024
BI00B1200    #2399T52A07    202210067189-3036-30             HOUSING FEMALE           CCN000001600000001600FN00000000020221101000001600NNE   20220922131545    2F0F  0000016000000092000000114001200    YCYC    005500360039
BI00B1200    #2399T52A07    202210067289-2912-40             HOUSING FEMALE ASS'Y     CCN000014000000014000FN00000000020221101000014000NNE   20220922131545    2N0N  0000020000000080400000093101200    YCYC    005400370024
BI00B1200    #2399T52A08    202210067174-1270-30             SEALED COVER             CCN000003200000003200FN00000000020221101000003200NNE   20220922131604    2F0F  0000008000000056070000067911200    YCYC    005500360039
BI00B1200    #2399T52A08    202210067174-1760-50             CAP                      CCN000027000000027000FN00000000020221101000027000NNE   20220922131604    2F0F  0000030000000081360000092261200    YCYC    005400370024
BI00B1200    #2399T52A08    202210067289-2912-40             HOUSING FEMALE ASS'Y     CCN000014000000014000FN00000000020221101000014000NNE   20220922131604    2N0N  0000020000000080400000093101200    YCYC    005400370024
BI00B1200    H322L50017     202212017116-4111-02             TERMINAL                 CCN000030000000030000FN00000000020221201000030000NNE   20220922131624    4P0P  0000075000000052950000081771200    YCYC    006400630015
BI00B1200    H322L50018     202212017116-4112-02             TERMINAL                 CCN000018000000018000FN00000000020221201000018000NNE   20220922131639    4P0P  0000060000000045000000073821200    YCYC    006400630015
BI00B1200    Y022L50077     202211247116-4100-02             TERMINAL                 CCN000360000000360000FN00000000020221201000360000NNE   20220922131652    4P0P  0000150000000069600000099021200    YCYC    006400630015
BI00B1200    Y022L50078     202211247116-4112-02             TERMINAL                 CCN000942000000942000FN00000000020221201000942000NNE   20220922131706    4P0P  0000060000000045000000073821200    YCYC    006400630015
BI00B1200    H723B50005     202301267282-5553-10             CONNECTOR                CCN000001000000001000FN00000000020230201000001000NNE   20220922131937    4N0N  0000010000000101800000118301200    YCYC    005500360039
BI00B32AF    JTB2104        202209307114-4020                TERMINAL                 CCN000084000000084000FN00000000020221001000084000NNM00020220922164133    4P0P  00002100000000875700001169332AF    HBYHVTB 006400630015
BI00B32AF    JTB210P        202211117282-4576-40             HOUSING MALE ASS'Y       CCN000002400000002400FN00000000020221001000002400NNED0120220922120834    4N0N  00000240000000808800001028832AF    HBYHVTB 005500360039
BI00B32AG    XG2211BNMW     202209297116-4122-02             TERMINAL                 CCN000013500000013500FN00000000020221101000013500NNED0020220922140144    4P0P  00000450000000656600000950232AG    XGXGY   006400630015
BI00B32A7    ZZ22111LMW     202210127327-6769-3W             BATTERY FUSE             CCN000011904000005760FN00000000020221101000005760NNMD0420220922120834    4N0N  00000009600000933300001133332A7    ZZZZY   005500360039
BI00B32A7    ZZ22112LMW     202211027327-6769-3W             BATTERY FUSE             CCN000006816000006816FN00000000020221101000006816NNMD0420220922120834    4N0N  00000009600000933300001133332A7    ZZZZY   005500360039
BI00B32A7    ZZ22113LMW     202211097327-6769-3W             BATTERY FUSE             CCN000007296000007296FN00000000020221101000007296NNMD0420220922120834    4N0N  00000009600000933300001133332A7    ZZZZY   005500360039
BI00B32A7    ZZ22111LMW     202210267327-6769-3W             BATTERY FUSE             CCN000006144000006144FN00000000020221101000006144NNMD0420220922120834    4N0N  00000009600000933300001133332A7    ZZZZY   005500360039
BI00B32CH    SJ2210FDMW     202210207287-7598                HOUSING FEMALE ASS'Y     CCN000001000000001000FN00000000020221001000001000NNED0720220922120834    4N0N  00000100000000508000000620532CH    SJSAMIJF005400370024
BI00B32DE    TCT2113        202210067114-4728-02             TERMINAL                 CCN000090000000090000FN00000000020221101000090000NNMD0020220922120834    4P0P  00003000000000510000000804232DE    TVYEV-TV006400630015
BI00B32DE    TCT2114        202210067114-4728-02             TERMINAL                 CCN000270000000270000FN00000000020221101000270000NNMD0420220922120834    4P0P  00003000000000510000000804232DE    TVYEV-TV006400630015
BI00B32DE    TCT2114        202210067114-5748-02             TERMINAL                 CCN000012000000012000FN00000000020221101000012000NNMD0020220922120834    4P0P  00001200000000444000000737632DE    TVYEV-TV006400630015
BI00B32DE    TCT2113        202210067116-3153-08             TERMINAL                 CCN000027000000027000FN00000000020221101000027000NNMD0020220922120834    4P0P  00002700000000461700000746932DE    TVYEV-TV006400630015
BI00B32DE    TCT2113        202210067116-5752-02             TERMINAL                 CCN000042000000042000FN00000000020221101000042000NNMD0020220922120834    4P0P  00002100000000571200000856432DE    TVYEV-TV006400630015
BI00B32DE    TCT2113        202210067116-6042                TERMINAL                 CCN000015000000015000FN00000000020221101000015000NNMD0020220922120834    4P0P  00000300000000523800000856132DE    TVYEV-TV006400630015
BI00B32DE    TCT2113        202210067282-4577                HOUSING MALE ASS'Y       CCN000002400000002400FN00000000020221101000002400NNMD0020220922120834    4N0N  00000240000000964800001174832DE    TVYEV-TV005500360039
BI00B32DE    TCT2114        202210067283-4577-30             CONNECTOR HOUSING        CCN000004800000004800FN00000000020221101000004800NNMD0020220922120834    4N0N  00000480000000916800001136832DE    TVYEV-TV005500360039
BI00B32DE    TCT2114        202210067288-6547                CONNECTOR MALE ASS'Y     CCN000001500000001500FN00000000020221101000001500NNMD0020220922120834    4N0N  00000075000001205300001340332DE    TVYEV-TV005400370024
BI00B32DE    TCT2113        202210067289-3342-30             HOUSING FEMALE ASS'Y     CCN000004800000004800FN00000000020221101000004800NNMD0020220922120834    1N0N  00000240000000686400000901432DE    TVYEV-TV005500360039
BI00B32DE    TCT2114        202210067289-3342-90             HOUSING FEMALE ASS'Y     CCN000002400000002400FN00000000020221101000002400NNMD0020220922120834    1N0N  00000240000000686400000901432DE    TVYEV-TV005500360039
BI00B32DE    TCT211A        202210067289-3342-30             HOUSING FEMALE ASS'Y     CCN000007200000007200FN00000000020221101000007200NNED0020220922120834    1N0N  00000240000000686400000901432DE    TVYEV-TV005500360039
BI00B32DE    TCT211B        202210207283-4576                HOUSING FEMALE ASS'Y     CCN000004800000004800FN00000000020221101000004800NNED0420220922120834    4N0N  00000480000000651300000871332DE    TVYEV-TV005500360039
BI00B32DE    #TCT211E       202210207287-1915-40             CONNECTOR ASS'Y          CCN000009600000009600FN00000000020221101000009600NNE   20220922131959    2N0N  00000240000000666500000923132DE    TVYEV-TV005500360039
BI00B32EJ    T220819P02     202209227116-4100-02             TERMINAL                 CCN000015000000015000FY00001500020220901000000000NNED0020220922152138EJ  4P0P  00001500000000696000000990232EJ    EJYKBO  006400630015
BI00B32E2    NY212A         202210057116-1685-02             TERMINAL                 CCN000024000000024000FN00000000020221201000024000NNE   20220922120834    4P0P  00002400000000897600001065232E2    SPYSE   005100280028
BI00B32E2    NY212A         202210057116-5045-02             TERMINAL                 CCN000016000000016000FN00000000020221201000016000NNE   20220922120834    4P0P  00001600000000678400001007132E2    SPYSE   006400630017
BI00B32E2    NY212A         202210057126-8851-02             TERMINAL                 CCN000027000000027000FN00000000020221201000027000NNE   20220922120834    1P0P  00000900000000739800001025032E2    SPYSE   006400630015
BI00B32E2    NY212A         202210057158-3006-90             RUBBER STOPPER           CCN000200000000200000FN00000000020221201000200000NNE   20220922120834    1C0C  00002000000000330600000386032E2    SPYSE   002700430014
BI00B32E2    NY212A         202210057158-3166-60             WIRE SEAL                CCN000480000000480000FN00000000020221201000480000NNE   20220922120834    1C0C  00004000000000104000000152432E2    SPYSE   002700430014
BI00B32E2    #NY212A        202210057158-3121-80             WIRE SEAL                CCN000060000000060000FN00000000020221201000060000NNE   20220922120834    2C0C  00002000000000118000000187332E2    SPYSE   002700430014
BI00B32GE    DHTC2249B      202210207327-6801-3W             BATTERY FUSE             CCN000000672000000672FN00000000020221101000000672NNED0420220922120834    4N0N  00000009600000928400001143432GE    GEYKHT  005500360039
BI00B32GE    DHTC2249B      202210207327-6803                MULTI FUSE               CCN000000560000000560FN00000000020221101000000560NNED0420220922120834    4N0N  00000056000000854600001067032GE    GEYKHT  005400370024
BI00B32GE    DHTC2250       202210207297-3482                JOINT CONNECTOR          CCN000033300000033600FN00000000020221201000033600NNMD0420220922120834    4N0N  00000080000000621000000730532GE    GEYKHT  005400370024
BI00B32GE    DHTC2250       202210207298-3484                HOUSING FEMALE ASS'Y     CCN000018900000018900FN00000000020221201000018900NNMD0420220922120834    4N0N  00000270000000742500001028732GE    GEYKHT  005400370024
BI00B32GE    DHTC2250       202210207298-3484-30             HOUSING FEMALE ASS'Y     CCN000002100000002700FN00000000020221201000002700NNMD0420220922120834    4N0N  00000270000000742500001028732GE    GEYKHT  005400370024
BI00B32GE    DHTC2250       202210207327-6731-3W             BATTERY FUSE             CCN000000256000000256FN00000000020221201000000256NNMD0420220922120834    4N0N  00000006400000697600000843032GE    GEYKHT  005400370024
BI00B32GE    DHTC2250       202210207327-6801-3W             BATTERY FUSE             CCN000002976000002976FN00000000020221201000002976NNMD0420220922120834    4N0N  00000009600000928400001143432GE    GEYKHT  005500360039
BI00B32GE    DHTC2250       202210207327-6803                MULTI FUSE               CCN000001120000001120FN00000000020221201000001120NNMD0420220922120834    4N0N  00000056000000854600001067032GE    GEYKHT  005400370024
BI00B32GE    DHTC2250       202210207327-6806                MULTI FUSE               CCN000003360000003360FN00000000020221201000003360NNMD0420220922120834    4N0N  00000056000000851500001063932GE    GEYKHT  005400370024
BI00B32GE    DHTC2250       202210207327-6809                MULTI FUSE               CCN000006160000006160FN00000000020221201000006160NNMD0420220922120834    4N0N  00000056000000849300001061732GE    GEYKHT  005400370024
BI00B32GE    DHTC2250       202210207327-6930                MULTI FUSE               CCN000002240000002240FN00000000020221201000002240NNMD0420220922120834    4N0N  00000056000000848900001031932GE    GEYKHT  005400370024
BI00B32GE    DHTC2250       202210207327-6983-30             MAIN FUSE                CCN000003000000003000FN00000000020221201000003000NNMD0420220922120834    4N0N  00000060000000748800000951532GE    GEYKHT  005400370024
BI00B32GE    DHTC2250       202210207327-6985-30             MULTI FUSE               CCN000002592000002592FN00000000020221201000002592NNMD0420220922120834    4N0N  00000028800000886100001052032GE    GEYKHT  005400370024
BI00B32GE    DHTC2250       202210207327-6990-30             MULTI FUSE               CCN000002800000002800FN00000000020221201000002800NNMD0420220922120834    4NON  00000056000000724000000907032GE    GEYKHT  005400370024
BI00B32GE    DHTC2250       202210207327-6998-30             MULTI FUSE               CCN000002304000002304FN00000000020221201000002304NNMD0420220922120834    4N0N  00000028800000886000001051932GE    GEYKHT  005400370024
BI00B32GE    DHTC2250       202210207388-2978-30             HOUSING MALE ASS'Y       CCN000027840000027840FN00000000020221201000027840NNMD0420220922120834    1N0N  00000048000000742000001122032GE    GEYKHT  005500360039
BI00B32G7    JJ2211C MW     202210067116-2892-02             TERMINAL                 CCN000012000000012000FN00000000020221101000012000NNE   20220922141801    4P0P  00001200000000818400000981832G7    JIJAI   005100280028
BI00B32G7    JJ2211C MW     202210067288-3337-30             HOUSING MALE             CCN000001500000001500FN00000000020221101000001500NNE   20220922141801    4N0N  00000150000000867000001012032G7    JIJAI   005400370024
BI00B32G7    JJ2211CMMW     202210067114-4728-02             TERMINAL                 CCN000030000000030000FN00000000020221101000030000NNE   20220922141810    4P0P  00003000000000510000000804232G7    JIJAI   006400630015
BI00B32G7    JJ2211CMMW     202210067126-8889-02             FUSE TERMINAL            CCN000006000000006000FN00000000020221101000006000NNE   20220922141810    4P0P  00000600000000448200000733432G7    JIJAI   006400630015
BI00B32G7    JJ2211CMMW     202210067126-8890-02             FUSE TERMINAL            CCN000006000000006000FN00000000020221101000006000NNE   20220922141810    4P0P  00000600000000465000000750232G7    JIJAI   006400630015
BI00B32G7    JJ2211CMMW     202210067126-8892-02             FUSE TERMINAL            CCN000018000000018000FN00000000020221101000018000NNE   20220922141810    4P0P  00000600000000495000000780232G7    JIJAI   006400630015
BI00B32G7    JJ2211CMMW     202210067196-1102-02             TERMINAL                 CCN000045000000045000FN00000000020221101000045000NNE   20220922141810    4P0P  00002250000000405000000690232G7    JIJAI   006400630015
BI00B32G7    JJ2211CMMW     202210067196-1481-02             TERMINAL FEMALE          CCN000048000000048000FN00000000020221101000048000NNE   20220922141810    4P0P  00002400000000422400000707632G7    JIJAI   006400630015
BI00B32G7    JJ2211CMMW     202210067196-1934-02             TERMINAL FEMALE          CCN000019500000019500FN00000000020221101000019500NNE   20220922141810    4P0P  00001950000000561600000846832G7    JIJAI   006400630015
BI00B32G7    JJ2211CMMW     202210067196-1943-02             TERMINAL FEMALE          CCN000012000000012000FN00000000020221101000012000NNE   20220922141810    4P0P  00001200000000492000000777232G7    JIJAI   006400630015
BI00B32G7    JJ2211CMMW     202210067196-1947-02             TERMINAL FEMALE          CCN000009000000009000FN00000000020221101000009000NNE   20220922141810    4POP  00000900000000407700000692932G7    JIJAI   006400630015
BI00B32G7    JJ2211CMMW     202210067196-2032-02             TERMINAL FEMALE          CCN000015000000015000FN00000000020221101000015000NNE   20220922141810    4P0P  00001500000001071000001234432G7    JIJAI   005100280028
BI00B32G7    JJ2211CMMW     202210067289-5979-30             HOUSING FEMALE ASS'Y     CCN000001008000001008FN00000000020221101000001008NNE   20220922141810    1N0N  00000025200000854700001064732G7    JIJAI   005400370024
BI00B32G7    JJ2211CMMW     202210067298-3484-30             HOUSING FEMALE ASS'Y     CCN000002700000002700FN00000000020221101000002700NNE   20220922141810    4N0N  00000270000000742500001028732G7    JIJAI   005400370024
BI00B32H2    TIJ2114        202210217116-4037                TERMINAL                 CCN000012000000012000FN00000000020221101000012000NNMD0020220922135418    4P0P  00000600000000600000000894232H2    HVYHV   006400630015
BI00B32H2    TIJ211D        202210287196-1933-02             TERMINAL FEMALE          CCN000021000000021000FN00000000020221101000021000NNED0020220922140003    4P0P  00002100000000590100000875332H2    HVYHV   006400630015
BI00B32H2    TIJ2114        202210217116-6042                TERMINAL                 CCN000003000000003000FN00000000020221101000003000NNMD0020220922135929    4P0P  00000300000000523800000856132H2    HVYHV   006400630015
BI00B32H2    TIJ210Y        202210077287-3885-30             HYBRID FEMALE ASS'Y      CCN000002400000002400FN00000000020221001000002400NNE   20220922132533    1N0N  00000240000001029600001249632H2    HVYHV   005500360039
BI00B32H2    TIJ211L        202210077116-3153-02             TERMINAL FEMALE          CCN000009000000027000FN00000000020221101000027000NNE   20220922132547    4P0P  00002700000000459000000744232H2    HVYHV   006400630015
BI00B32J1    398385         202211147327-6840-3W             BATTERY FUSE             CCN000004896000004896FN00000000020221001000004896NNMD0220220922120834    4N0N  00000007200001140900001355932J1    UKYEL-BL005500360039
BI00A32J1    #398526        202210037158-3374-90             CONNECTOR WIRE SEAL      CCN000020000000020000FN00000000020221001000020000NNE   20220922120834    2H0H  00002000000000172000000229332J1    UKYEL-BL002700430014
BI00B32K8    #K1220011839   202211047137-2717-50             SEALED CONNECTOR         CCN000004000000004000FN00000000020230101000004000NNM   20220922120834    2C0C  00000400000000212800000284032K8    ELELCOM 002700430014
BI00B32M4    TP2111B        202210067116-4029-08             TERMINAL FEMALE          CCN000016000000016000FN00000000020221101000016000NNE   20220922132613    4P0P  00001600000000670400000999132M4    SISAI   006400630017
BI00B32M4    TP2111B        202210067288-3330-30             HOUSING MALE             CCN000001500000001500FN00000000020221101000001500NNE   20220922132613    4N0N  00000150000000866300001011232M4    SISAI   005400370024
BI00B32M4    #TP2111B       202210067174-2201-30             SEALED COVER             CCN000001000000001000FN00000000020221101000001000NNE   20220922132600    2F0F  00000100000000529500000656432M4    SISAI   005400370024
BI00B32M4    #TP2111B       202210067174-2202-30             SEALED COVER             CCN000001400000001400FN00000000020221101000001400NNE   20220922132600    2F0F  00000140000000658000000735632M4    SISAI   005400370024
BI00B32M4    #TP2111B       202210067289-2914                HOUSING FEMALE ASS'Y     CCN000001500000001500FN00000000020221101000001500NNE   20220922132600    2N0N  00000150000000906000001033032M4    SISAI   005400370024
BI00B32M4    #TP2111B       202210067289-2915-30             HOUSING FEMALE ASS'Y     CCN000001500000001500FN00000000020221101000001500NNE   20220922132600    2N0N  00000150000000964500001091532M4    SISAI   005400370024
BI00B32M4    #TP2111B       202210067289-2916-30             HOUSING FEMALE ASS'Y     CCN000001000000001000FN00000000020221101000001000NNE   20220922132600    2N0N  00000100000000857000001084032M4    SISAI   005400370024
BI00B32M4    #TP2111B       202210067289-4200-30             HOUSING FEMALE ASS'Y     CCN000002000000002000FN00000000020221101000002000NNE   20220922132600    2N0N  00000200000000926000001021032M4    SISAI   005400370024
BI00B32N1    #NST2123ECU    202210207158-3008-80             RUBBER STOPPER           CCN000280000000280000FN00000000020221101000280000NNED0420220922120834    2C0C  00002000000000288000000343032N1    TAYIPL  004300270014
BI00B32Q8    #EU22114TMW    202210197287-7859                HYBRID FEMALE ASS'Y      CCN000001200000000000FY00000000020221101000000000NNMQ0820220922152404    2N0N  00000120000000461600000671632Q8    EMEMI   005500360039
BI00B32R7    R-TAP220415    202210067116-4025                TERMINAL                 CCN000256000000256000FN00000000020221001000256000NNE   20220922132622    4P0P  00001600000000644800000975132R7    IVYCIC  006400630017
BI00B32R7    #R-TAP220420   202210067283-8730-30             HOUSING FEMALE ASS'Y     CCN000006000000006000FN00000000020221001000006000NNE   20220922132653    2N0N  00000200000000794000000906532R7    IVYCIC  005400370024
BI00B32R7    R-TAP220421    202210067158-3167-80             WIRE SEAL                CCN000060000000060000FN00000000020221001000060000NNE   20220922132707    1C0C  00002000000000048000000109032R7    IVYCIC  002700430014
BI00B32R7    R-TAP220416    202210207B74-1849-70             COVER                    CCN000025000000025000FN00000000020221101000025000NNE   20220922132731    1F0F  00002500000000622500000761932R7    IVYCIC  005400370024
BI00B32R7    R-TAP220416    202210207C98-1145-4W             SQUIB SUB ASS'Y          CCN000030000000030000FN00000000020221101000030000NNE   20220922132731    4N0N  00001000000000787900000944932R7    IVYCIC  005400370024
BI00B32R7    R-TAP220417    202210207B74-1849-70             COVER                    CCN000050000000050000FN00000000020221101000050000NNE   20220922132754    1F0F  00002500000000622500000761932R7    IVYCIC  005400370024
BI00B32R7    R-TAP220417    202210207C98-1149-3W             SQUIB SUB ASS'Y          CCN000050000000050000FN00000000020221101000050000NNE   20220922132754    4N0N  00001000000000785000000922032R7    IVYCIC  005400370024
BI00B32R7    R-TAP220418    202210277B74-1849-70             COVER                    CCN000050000000050000FN00000000020221101000050000NNE   20220922132819    1F0F  00002500000000622500000761932R7    IVYCIC  005400370024
BI00B32R7    R-TAP220418    202210277C98-1145-4W             SQUIB SUB ASS'Y          CCN000050000000050000FN00000000020221101000050000NNE   20220922132819    4N0N  00001000000000787900000944932R7    IVYCIC  005400370024
BI00B32R7    R-TAP220419    202210277B74-1849-70             COVER                    CCN000025000000025000FN00000000020221101000025000NNE   20220922132844    1F0F  00002500000000622500000761932R7    IVYCIC  005400370024
BI00B32R7    R-TAP220419    202210277C98-1149-3W             SQUIB SUB ASS'Y          CCN000020000000020000FN00000000020221101000020000NNE   20220922132844    4N0N  00001000000000785000000922032R7    IVYCIC  005400370024
BI00B32R7    R-TAP220422    202211177298-1186-70             SQUIB SUB ASS'Y          CCN000010000000010000FN00000000020221201000010000NNE   20220922132858    4N0N  00001000000000650000000774532R7    IVYCIC  005400370024
BI00A32U9    TP0016E        202209237196-0805-02             TERMINAL FEMALE          CCN000067500000067500FN00000000020220901000067500NNED0720220922120834U9  4P0P  00002250000000558000000843232U9    YNYNA-E 006400630015
BI00B32W4    #4500195610    202209297147-3642-30             CLIP                     CCN000042000000021000FN00000000020220901000021000NNED0420220922120834W4172F0F  00000300000000542000000721332W417  HJYHK   005600390040
BI00A32W4    4500197886     202210067158-3166-60             WIRE SEAL                CCN000040000000000000FY00000000020221001000000000NNEQ0820220922101306W4141C0C  00004000000000104000000152432W414  HJYHK   002700430014
BI00A32W4    4500198461     202209267116-4111-02             TERMINAL                 CCN000007500000007500FN00000000020220901000007500NNEM0020220922151433W4N24P0P  00000750000000529500000817732W4N2  HJYHK-J 006400630015
BI00A32W4    4500198865     202209267116-4111-02             TERMINAL                 CCN000007500000007500FN00000000020221001000007500NNEM0020220922145454W4N24P0P  00000750000000529500000817732W4N2  HJYHK-J 006400630015
BI00A32W4    4500199476     202210317282-4855                HOUSING MALE ASS'Y       CCN000001200000000000FY00000000020221001000000000NNEQ0820220922160010W4M54N0N  00000120000001063200001283232W4M5  HJYHK-J 005500360039
BI00A32W4    4500199626     202209267116-4111-02             TERMINAL                 CCN000030000000030000FN00000000020221001000030000NNEM0020220922145517W4N24P0P  00000750000000529500000817732W4N2  HJYHK-J 006400630015
BI00A32W4    4500200557     202209267116-4111-02             TERMINAL                 CCN000015000000015000FN00000000020221101000015000NNEM0020220922145541W4N24P0P  00000750000000529500000817732W4N2  HJYHK-J 006400630015
BI00A32W4    4500200801     202211217282-4855                HOUSING MALE ASS'Y       CCN000001200000000000FY00000000020221101000000000NNEQ0820220922160027W4M54N0N  00000120000001063200001283232W4M5  HJYHK-J 005500360039
BI00B32W4    #4500195610    202209297147-3642-30             CLIP                     CCN000021000000021000FN00000000020220901000021000NNE00020220922120834W4172F0F  00000300000000542000000721332W417  HJYHK   005600390040
BI00A32W4    4500200827     202211217158-3169-40             SEALING PLUG             CCN000040000000040000FN00000000020221101000040000NNE   20220922140252W4M51C0C  00004000000000156000000204132W4M5  HJYHK-J 004300260014
BI00A32W4    4500200828     202211217158-3166-60             WIRE SEAL                CCN000040000000040000FN00000000020221101000040000NNE   20220922140323W4M51C0C  00004000000000104000000152432W4M5  HJYHK-J 002700430014
BI00A32W4    4500200829     202212087158-3169-40             SEALING PLUG             CCN000040000000040000FN00000000020221201000040000NNE   20220922140401W4761C0C  00004000000000156000000204132W476  HJYHK-J 004300260014
BI00B32W4    4500200830     202211107116-1685-02             TERMINAL                 CCN000216000000216000FN00000000020221101000216000NNE   20220922140442W4594P0P  00002400000000897600001065232W459  HJYHK   005100280028
BI00B32W4    4500200830     202211107126-8853-02             TERMINAL                 CCN000315000000315000FN00000000020221101000315000NNE   20220922140442W4594P0P  00000750000000562500000847732W459  HJYHK   006400630015
BI00B32W4    4500200830     202211107126-8854-02             TERMINAL                 CCN000187500000187500FN00000000020221101000187500NNE   20220922140442W4594P0P  00000750000000604500000889732W459  HJYHK   006400630015
BI00B32W4    4500200830     202211107126-8855-02             TERMINAL                 CCN000162000000162000FN00000000020221101000162000NNE   20220922140442W4594P0P  00000600000000510600000795832W459  HJYHK   006400630015
BI00B32W4    4500200830     202211107116-4028-08             TERMINAL FEMALE          CCN000016000000016000FN00000000020221101000016000NNE   20220922140442W4594P0P  00001600000000652800000981532W459  HJYHK   006400630017
BI00B32W4    4500200830     202211107116-1686-02             TERMINAL                 CCN000105000000105000FN00000000020221101000105000NNE   20220922140442W4594P0P  00002100000000869400001021632W459  HJYHK   005100280028
BI00B32W4    4500200830     202211107114-5096-02             TERMINAL                 CCN000030000000030000FN00000000020221101000030000NNE   20220922140442W4594P0P  00003000000000498000000792232W459  HJYHK   006400630015
BI00B32W4    4500200830     202211107116-2892-02             TERMINAL                 CCN000120000000120000FN00000000020221101000120000NNE   20220922140442W4594P0P  00001200000000818400000981832W459  HJYHK   005100280028
BI00B32W4    4500200830     202211107116-2893-02             TERMINAL                 CCN000156000000156000FN00000000020221101000156000NNE   20220922140442W4594P0P  00001200000000895200001058632W459  HJYHK   005100280028
BI00B32W4    4500200830     202211107282-7420-40             CONNECTOR MALE ASS'Y     CCN000004000000004000FN00000000020221101000004000NNE   20220922140442W4594N0N  00000100000000491000000603532W459  HJYHK   005400370024
BI00B32W4    4500200830     202211107282-4855                HOUSING MALE ASS'Y       CCN000009600000009600FN00000000020221101000009600NNE   20220922140442W4594N0N  00000120000001063200001283232W459  HJYHK   005500360039
BI00B32W4    4500200830     202211107283-7029-40             CONNECTOR                CCN000006000000006000FN00000000020221101000006000NNE   20220922140442W4591N0N  00000600000001026000001200032W459  HJYHK   005600390023
BI00B32W4    4500200830     202211107158-3006-90             RUBBER STOPPER           CCN000080000000080000FN00000000020221101000080000NNE   20220922140442W4591C0C  00002000000000330600000386032W459  HJYHK   002700430014
BI00B32W4    #4500200830    202211107282-1030                CONNECTOR MALE ASS'Y     CCN000011000000011000FN00000000020221101000011000NNE   20220922140425W4592N0N  00000100000000365000000487532W459  HJYHK   005400370024
BI00B32W4    #4500200830    202211107157-3646                RUBBER STOPPER           CCN000020000000020000FN00000000020221101000020000NNE   20220922140425W4592H0H  00002000000000184000000255232W459  HJYHK   002700430014
BI00B32W4    #4500200830    202211107174-1760-50             CAP                      CCN000021000000021000FN00000000020221101000021000NNE   20220922140425W4592F0F  00000300000000813600000922632W459  HJYHK   005400370024
BI00B32W4    #4500200831    202212157174-1760-50             CAP                      CCN000024000000024000FN00000000020221201000024000NNE   20220922140504W4592F0F  00000300000000813600000922632W459  HJYHK   005400370024
BI00B32W4    #4500200832    202301057174-1760-50             CAP                      CCN000024000000024000FN00000000020230101000024000NNE   20220922140538W4592F0F  00000300000000813600000922632W459  HJYHK   005400370024
BI00A32W4    4500200836     202211077283-5548-30             CONNECTOR                CCN000003000000003000FN00000000020221101000003000NNE   20220922140615W4G34N0N  00000150000001109000001302032W4G3  HJYHK-J 005600390040
BI00A32W4    4500200837     202211217116-4112-02             TERMINAL                 CCN000006000000006000FN00000000020221101000006000NNE   20220922140644W4G34P0P  00000600000000450000000738232W4G3  HJYHK-J 006400630015
BI00B32W4    4500200848     202210207116-4022                TERMINAL                 CCN000108000000108000FN00000000020221001000108000NNE   20220922140716W4514P0P  00001350000000618300000903532W451  HJ32W9  006400630015
BI00B32W4    4500200848     202210207116-4026                TERMINAL                 CCN000016000000016000FN00000000020221001000016000NNE   20220922140716W4514P0P  00001600000000664000000994332W451  HJ32W9  006400630017
BI00B32W4    4500200848     202210207116-4231-02             TERMINAL                 CCN000390000000390000FN00000000020221001000390000NNE   20220922140716W4514P0P  00002600000000683800001012532W451  HJ32W9  006400630017
BI00B32W4    4500200848     202210207283-1020                CONNECTOR                CCN000150000000150000FN00000000020221001000150000NNE   20220922140716W4514N0N  00000600000000840000001049332W451  HJ32W9  005600390040
BI00B32W4    4500200848     202210207283-7028-30             CONNECTOR                CCN000006000000006000FN00000000020221001000006000NNE   20220922140716W4514N0N  00000300000001452000001681332W451  HJ32W9  005600390040
BI00B32W4    #4500200848    202210207158-3610-80             RUBBER STOPPER           CCN000012000000012000FN00000000020221001000012000NNE   20220922140712W4512H0H  00000300000000396900000438932W451  HJ32W9  004300270014
BI00B32W4    #4500200848    202210207157-3821                RUBBER STOPPER           CCN000020000000020000FN00000000020221001000020000NNE   20220922140712W4512C0C  00002000000000176000000238032W451  HJ32W9  002700430014
BI00B32W4    #4500200848    202210207186-8845                HOUSING MALE             CCN000003000000003000FN00000000020221001000003000NNE   20220922140712W4512F0F  00000300000000690000000801532W451  HJ32W9  005400370024
BI00B32W4    #4500200848    202210207283-8397-40             CONNECTOR                CCN000016940000016940FN00000000020221001000016940NNE   20220922140712W4512N0N  00000154000001007000001222732W451  HJ32W9  005600390023
BI00B32W4    4500200862     202211177116-4100-02             TERMINAL                 CCN000450000000450000FN00000000020221101000450000NNE   20220922140758W4664P0P  00001500000000696000000990232W466  HJYHK   006400630015
BI00B32W4    4500200862     202211177116-4111-02             TERMINAL                 CCN000015000000015000FN00000000020221101000015000NNE   20220922140758W4664P0P  00000750000000529500000817732W466  HJYHK   006400630015
BI00B32W4    4500200862     202211177116-4112-02             TERMINAL                 CCN000084000000084000FN00000000020221101000084000NNE   20220922140758W4664P0P  00000600000000450000000738232W466  HJYHK   006400630015
BI00B32W4    4500200862     202211177116-4102-02             TERMINAL                 CCN000120000000120000FN00000000020221101000120000NNE   20220922140758W4664P0P  00001200000000553200000841432W466  HJYHK   006400630015
BI00B32W4    4500200862     202211177116-4025                TERMINAL                 CCN000016000000016000FN00000000020221101000016000NNE   20220922140758W4664P0P  00001600000000644800000975132W466  HJYHK   006400630017
BI00B32W4    4500200862     202211177114-4112-02             TERMINAL                 CCN000081000000081000FN00000000020221101000081000NNE   20220922140758W4664P0P  00000900000000598500000927132W466  HJYHK   006400630017
BI00B32W4    4500200862     202211177114-4100-02             TERMINAL                 CCN000252000000252000FN00000000020221101000252000NNE   20220922140758W4664P0P  00001800000000748800001077432W466  HJYHK   006400630017
BI00B32W4    4500200862     202211177116-4026                TERMINAL                 CCN000016000000016000FN00000000020221101000016000NNE   20220922140758W4664P0P  00001600000000664000000994332W466  HJYHK   006400630017
BI00B32W4    4500200862     202211177114-4111-02             TERMINAL                 CCN000012000000012000FN00000000020221101000012000NNE   20220922140758W4664P0P  00001200000000758400001087032W466  HJYHK   006400630017
BI00B32W4    #4500200862    202211177282-4190-30             CONNECTOR                CCN000003120000003120FN00000000020221101000003120NNE   20220922140754W4662N0N  00000024000000801000001071332W466  HJYHK   005600390040
BI00B32W4    #4500200862    202211177283-4190-30             CONNECTOR                CCN000002640000002640FN00000000020221101000002640NNE   20220922140754W4662N0N  00000024000000846000001115532W466  HJYHK   005600390040
BI00B32W4    #4500200862    202211177158-3003-90             RUBBER STOPPER           CCN000020000000020000FN00000000020221101000020000NNE   20220922140754W4662C0C  00002000000000250000000306032W466  HJYHK   002700430014
BI00B32W4    4500200863     202211177283-5548-30             CONNECTOR                CCN000006000000006000FN00000000020221101000006000NNE   20220922140825W4664N0N  00000150000001109000001302032W466  HJYHK   005600390040
BI00B32W4    4500200863     202211177116-4101-02             TERMINAL                 CCN000096000000096000FN00000000020221101000096000NNE   20220922140825W4664P0P  00001200000000582000000876232W466  HJYHK   006400630015
BI00B32W4    4500200863     202211177114-4101-02             TERMINAL                 CCN000045000000045000FN00000000020221101000045000NNE   20220922140825W4664P0P  00001500000000675000001003632W466  HJYHK   006400630017
BI00B32W4    4500200863     202211177116-4104-02             TERMINAL                 CCN000060000000060000FN00000000020221101000060000NNE   20220922140825W4664P0P  00001200000000580800000972432W466  HJYHK   006400630015
BI00B32W4    4500200863     202211177114-4110-02             TERMINAL                 CCN000045000000045000FN00000000020221101000045000NNE   20220922140825W4664P0P  00001500000000901500001230132W466  HJYHK   006400630017
BI00B32W4    4500200863     202211177116-4110-02             TERMINAL                 CCN000036000000036000FN00000000020221101000036000NNE   20220922140825W4664P0P  00000900000000594000000882232W466  HJYHK   006400630015
BI00B32W4    4500200863     202211177116-4103-02             TERMINAL                 CCN000012000000012000FN00000000020221101000012000NNE   20220922140825W4664P0P  00001200000000571200000859432W466  HJYHK   006400630015
BI00B32W4    4500200864     202210067116-4120-02             TERMINAL                 CCN000006000000006000FN00000000020221001000006000NNE   20220922140856W4P74P0P  00000600000000780000001073632W4P7  HJYHK   006400630015
BI00B32W4    4500200864     202210067116-4121-02             TERMINAL                 CCN000018000000018000FN00000000020221001000018000NNE   20220922140856W4P74P0P  00000450000000618800000912432W4P7  HJYHK   006400630015
BI00A32W4    4500200868     202209307283-5548-30             CONNECTOR                CCN000003000000003000FN00000000020220901000003000NNED0720220922142305W4G34N0N  00000150000001109000001302032W4G3  HJYHK-J 005600390040
BI00A32W4    #4500200868    202209307157-3950-80             SEAL RUBBER              CCN000040000000040000FN00000000020220901000040000NNED0720220922142317W4G32C0C  00004000000000154000000440332W4G3  HJYHK-J 002700430014
BI00B32W4    4500200872     202211247116-4100-02             TERMINAL                 CCN000135000000135000FN00000000020221101000135000NNE   20220922141006W4464P0P  00001500000000696000000990232W446  HJYHK   006400630015
BI00B32W4    4500200872     202211247116-4112-02             TERMINAL                 CCN000114000000114000FN00000000020221101000114000NNE   20220922141006W4464P0P  00000600000000450000000738232W446  HJYHK   006400630015
BI00B32W4    4500200872     202211247116-4102-02             TERMINAL                 CCN000156000000156000FN00000000020221101000156000NNE   20220922141006W4464P0P  00001200000000553200000841432W446  HJYHK   006400630015
BI00B32W4    4500200872     202211247116-4025                TERMINAL                 CCN000016000000016000FN00000000020221101000016000NNE   20220922141006W4464P0P  00001600000000644800000975132W446  HJYHK   006400630017
BI00B32W4    4500200872     202211247114-4100-02             TERMINAL                 CCN000036000000036000FN00000000020221101000036000NNE   20220922141006W4464P0P  00001800000000748800001077432W446  HJYHK   006400630017
BI00B32W4    4500200872     202211247158-3168-80             SEALED                   CCN000060000000060000FN00000000020221101000060000NNE   20220922141006W4461C0C  00002000000000044000000092132W446  HJYHK   004300260014
BI00B32W4    4500200872     202211247158-3167-80             WIRE SEAL                CCN000200000000200000FN00000000020221101000200000NNE   20220922141006W4461C0C  00002000000000048000000109032W446  HJYHK   002700430014
BI00B32W4    4500200872     202211247116-4101-02             TERMINAL                 CCN000084000000084000FN00000000020221101000084000NNE   20220922141006W4464P0P  00001200000000582000000876232W446  HJYHK   006400630015
BI00B32W4    4500200872     202211247114-4110-02             TERMINAL                 CCN000015000000015000FN00000000020221101000015000NNE   20220922141006W4464P0P  00001500000000901500001230132W446  HJYHK   006400630017
BI00B32W4    4500200872     202211247116-4103-02             TERMINAL                 CCN000012000000012000FN00000000020221101000012000NNE   20220922141006W4464P0P  00001200000000571200000859432W446  HJYHK   006400630015
BI00B32W4    #4500200872    202211247282-3243-40             CONNECTOR                CCN000001600000001600FN00000000020221101000001600NNE   20220922141002W4462N0N  00000080000001006000001282332W446  HJYHK   005600390040
BI00B32W4    #4500200872    202211247283-8123-40             CONNECTOR HOUSING        CCN000004000000004000FN00000000020221101000004000NNE   20220922141002W4462N0N  00000400000000380000000530032W446  HJYHK   005600390023
BI00B32W4    4500200875     202211247116-4111-02             TERMINAL                 CCN000007500000007500FN00000000020221101000007500NNE   20220922141053W4164P0P  00000750000000529500000817732W416  HJYHK   006400630015
BI00B32W4    4500200875     202211247116-4102-02             TERMINAL                 CCN000024000000024000FN00000000020221101000024000NNE   20220922141053W4164P0P  00001200000000553200000841432W416  HJYHK   006400630015
BI00B32W4    4500200875     202211247114-4100-02             TERMINAL                 CCN000036000000036000FN00000000020221101000036000NNE   20220922141053W4164P0P  00001800000000748800001077432W416  HJYHK   006400630017
BI00B32W4    4500200875     202211247116-4124-02             TERMINAL                 CCN000003000000003000FN00000000020221101000003000NNE   20220922141053W4164P0P  00000300000000459900000753532W416  HJYHK   006400630015
BI00B32W4    4500200875     202211247116-5045-02             TERMINAL                 CCN000016000000016000FN00000000020221101000016000NNE   20220922141053W4164P0P  00001600000000678400001007132W416  HJYHK   006400630017
BI00B32W4    4500200875     202211247283-5548-30             CONNECTOR                CCN000001500000001500FN00000000020221101000001500NNE   20220922141053W4164N0N  00000150000001109000001302032W416  HJYHK   005600390040
BI00B32W4    4500200875     202211247126-8854-02             TERMINAL                 CCN000007500000007500FN00000000020221101000007500NNE   20220922141053W4164P0P  00000750000000604500000889732W416  HJYHK   006400630015
BI00B32W4    4500200875     202211247116-4101-02             TERMINAL                 CCN000036000000036000FN00000000020221101000036000NNE   20220922141053W4164P0P  00001200000000582000000876232W416  HJYHK   006400630015
BI00B32W4    4500200875     202211247116-4120-02             TERMINAL                 CCN000006000000006000FN00000000020221101000006000NNE   20220922141053W4164P0P  00000600000000780000001073632W416  HJYHK   006400630015
BI00B32W4    4500200875     202211247116-4104-02             TERMINAL                 CCN000012000000012000FN00000000020221101000012000NNE   20220922141053W4164P0P  00001200000000580800000972432W416  HJYHK   006400630015
BI00B32W4    4500200875     202211247116-4110-02             TERMINAL                 CCN000018000000018000FN00000000020221101000018000NNE   20220922141053W4164P0P  00000900000000594000000882232W416  HJYHK   006400630015
BI00B32W4    4500200875     202211247283-1024                CONNECTOR SUB ASSY       CCN000008000000008000FN00000000020221101000008000NNE   20220922141053W4164N0N  00000200000000400000000522532W416  HJYHK   005400370024
BI00B32W4    4500200875     202211247282-1024                HOUSING MALE             CCN000009000000009000FN00000000020221101000009000NNE   20220922141053W4161N0N  00000100000000458000000580532W416  HJYHK   005400370024
BI00B32W4    4500200875     202211247283-1030                CONNECTOR                CCN000006000000006000FN00000000020221101000006000NNE   20220922141053W4164N0N  00000600000000988000001172032W416  HJYHK   005500360039
BI00B32W4    4500200875     202211247288-6547                CONNECTOR MALE ASS'Y     CCN000014250000014250FN00000000020221101000014250NNE   20220922141053W4164N0N  00000075000001205300001340332W416  HJYHK   005400370024
BI00B32W4    4500200875     202211247289-6547                HOUSING FEMALE ASS'Y     CCN000012000000012000FN00000000020221101000012000NNE   20220922141053W4161N0N  00000240000001152000001362032W416  HJYHK   005500360039
BI00B32W4    4500200875     202211247283-1156                CONNECTOR                CCN000008000000008000FN00000000020221101000008000NNE   20220922141053W4164N0N  00000080000000877600001078032W416  HJYHK   005600390040
BI00B32W4    4500200875     202211247114-4032                TERMINAL                 CCN000007500000007500FN00000000020221101000007500NNE   20220922141053W4164P0P  00000750000000735000001063632W416  HJYHK   006400630017
BI00B32W4    #4500200875    202211247282-4190-30             CONNECTOR                CCN000001920000001920FN00000000020221101000001920NNE   20220922141036W4162N0N  00000024000000801000001071332W416  HJYHK   005600390040
BI00B32W4    #4500200875    202211247283-4190-30             CONNECTOR                CCN000002160000002160FN00000000020221101000002160NNE   20220922141036W4162N0N  00000024000000846000001115532W416  HJYHK   005600390040
BI00B32W4    #4500200875    202211247158-3004-40             RUBBER STOPPER           CCN000020000000020000FN00000000020221101000020000NNE   20220922141036W4162C0C  00002000000000234000000306332W416  HJYHK   002700430014
BI00B32W4    #4500200875    202211247187-1616                HOUSING FEMALE           CCN000004000000004000FN00000000020221101000004000NNE   20220922141036W4162F0F  00000400000001152000001262032W416  HJYHK   005500360039
BI00B32W4    @4500200875    202211247287-6634                HOUSING FEMALE ASS'Y     CCN000007200000007200FN00000000020221101000007200NNE   20220922141049W4163N0N  00000240000001088400001337032W416  HJYHK   005500360039
BI00B32W4    4500200880     202303167283-5574-10             CONNECTOR                CCN000000800000000800FN00000000020230301000000800NNE   20220922141124W4464N0N  00000080000001235000001435232W446  HJYHK   005500360039
BI00B32W4    4500200898     202212227158-3167-80             WIRE SEAL                CCN000600000000600000FN00000000020221201000600000NNE   20220922141204W4B71C0C  00002000000000048000000109032W4B7  HJYHK-J 002700430014
BI00B32W4    4500200898     202212227158-3169-40             SEALING PLUG             CCN000160000000160000FN00000000020221201000160000NNE   20220922141204W4B71C0C  00004000000000156000000204132W4B7  HJYHK-J 004300260014
BI00B32W4    4500200902     202210067283-1968-30             CONNECTOR                CCN000000900000000900FN00000000020221001000000900NNE   20220922141251W4371N0N  00000090000001140000001318332W437  HJYHK   005600390040
BI00A32W4    4500200903     202211157283-5845                CONNECTOR HOUSING        CCN000006000000006000FN00000000020221101000006000NNE   20220922141326W4L91N0N  00000600000000444000000606332W4L9  HJYHK-J 005400370024
BI00A32W4    4500200903     202211157116-4231-02             TERMINAL                 CCN000026000000026000FN00000000020221101000026000NNE   20220922141326W4L94P0P  00002600000000683800001012532W4L9  HJYHK-J 006400630017
BI00B32W4    4500200905     202211107158-3167-80             WIRE SEAL                CCN000040000000040000FN00000000020221101000040000NNE   20220922141355W4A21C0C  00002000000000048000000109032W4A2  HJYHK-J 002700430014
BI00B32W4    #4500200905    202211107147-3642-30             CLIP                     CCN000027000000027000FN00000000020221101000027000NNE   20220922141351W4A22F0F  00000300000000542000000721332W4A2  HJYHK-J 005600390040
BI00B32W4    4500200906     202211177116-4026                TERMINAL                 CCN000016000000016000FN00000000020221101000016000NNE   20220922141430W4A24P0P  00001600000000664000000994332W4A2  HJYHK-J 006400630017
BI00B32W4    #4500200906    202211177283-8226-30             CONNECTOR                CCN000012000000012000FN00000000020221101000012000NNE   20220922141423W4A22N0N  00000200000000820000001008032W4A2  HJYHK-J 005400370024
BI00B32W4    4500200907     202211247116-4031                TERMINAL                 CCN000015000000015000FN00000000020221101000015000NNE   20220922141451W4A24P0P  00000750000000619500000904732W4A2  HJYHK-J 006400630015
BI00A32W4    4500200914     202211217116-4100-02             TERMINAL                 CCN000015000000015000FN00000000020221101000015000NNE   20220922141521W4O24P0P  00001500000000696000000990232W4O2  HJYHK-J 006400630015
BI00A32W4    4500200914     202211217116-4112-02             TERMINAL                 CCN000012000000012000FN00000000020221101000012000NNE   20220922141521W4O24P0P  00000600000000450000000738232W4O2  HJYHK-J 006400630015
BI00A32W4    4500200914     202211217116-4102-02             TERMINAL                 CCN000036000000036000FN00000000020221101000036000NNE   20220922141521W4O24P0P  00001200000000553200000841432W4O2  HJYHK-J 006400630015
BI00A32W4    4500200914     202211217116-4231-02             TERMINAL                 CCN000026000000026000FN00000000020221101000026000NNE   20220922141521W4O24P0P  00002600000000683800001012532W4O2  HJYHK-J 006400630017
BI00A32W4    4500200914     202211217116-4101-02             TERMINAL                 CCN000012000000012000FN00000000020221101000012000NNE   20220922141521W4O24P0P  00001200000000582000000876232W4O2  HJYHK-J 006400630015
BI00A32W4    4500200914     202211217157-6240-30             REAR HOLDER              CCN000005000000005000FN00000000020221101000005000NNE   20220922141521W4O21F0F  00000500000000545000000716032W4O2  HJYHK-J 005500360039
BI00A32W4    4500200914     202211217114-4110-02             TERMINAL                 CCN000015000000015000FN00000000020221101000015000NNE   20220922141521W4O24P0P  00001500000000901500001230132W4O2  HJYHK-J 006400630017
BI00A32W4    4500200914     202211217116-4110-02             TERMINAL                 CCN000036000000036000FN00000000020221101000036000NNE   20220922141521W4O24P0P  00000900000000594000000882232W4O2  HJYHK-J 006400630015
BI00A32W4    4500200914     202211217282-5574-10             CONNECTOR                CCN000001600000001600FN00000000020221101000001600NNE   20220922141521W4O24N0N  00000080000001235000001423032W4O2  HJYHK-J 005600390040
BI00A32W4    @4500200914    202211217183-8049                CONNECTOR HOUSING        CCN000004000000004000FN00000000020221101000004000NNE   20220922141518W4O23F0F  00000400000000583600000740032W4O2  HJYHK-J 005400370024
BI00A32W4    4500200921     202211247116-4111-02             TERMINAL                 CCN000015000000015000FN00000000020221101000015000NNE   20220922141542W4144P0P  00000750000000529500000817732W414  HJYHK   006400630015
BI00A32W4    4500200921     202211247116-4112-02             TERMINAL                 CCN000012000000012000FN00000000020221101000012000NNE   20220922141542W4144P0P  00000600000000450000000738232W414  HJYHK   006400630015
BI00A32W4    4500200921     202211247116-1473                TERMINAL                 CCN000013500000013500FN00000000020221101000013500NNE   20220922141542W4144P0P  00001350000000523800000809032W414  HJYHK   006400630015
BI00A32W4    #4500200922    202212087158-3654-80             WIRE TUBE                CCN000040000000040000FN00000000020221201000040000NNE   20220922141606W4142H0H  00004000000000104000000152232W414  HJYHK   004300270014
BI00A32W4    4500200926     202212157116-4110-02             TERMINAL                 CCN000009000000009000FN00000000020221201000009000NNE   20220922141648W4494P0P  00000900000000594000000882232W449  HJYHK   006400630015
BI00B32X5    TIB2048        202211047C89-6868-30             SEALED ASSY FEMALE       CCN000012600000012600FN00000000020230101000012600NNMD0420220922120834X5  4N0N  00000252000000839200001119232X5    EPYNA-E 005500360039
