AE00TO202209220222/09/202200000000100000000000000001111KGM  00000001160KGM  18007704140              AVSS 125F W              AVSS 125F W              0         0         0         0    0    0    00000000000008000000000034700000277600
AE00TO202209220222/09/202200000000100000000000000001016KGM  00000001064KGM  18018403952              CAVS 05 P                CAVS 05 P                0         0         0         0    0    0    00000000000015000000000015000000225000
AE00TO202209220222/09/202200000000700000000000000007875KGM  00000008217KGM  1801W003950              IVSSH 05F R              IVSSH 05F R              0         0         0         0    0    0    00000000000126000000000015400001940400
AE00TO202209220222/09/202200000009600000000000000108000KGM  00000112693KGM  1801W003990              IVSSH 05F L              IVSSH 05F L              0         0         0         0    0    0    00000000001728000000000015400026611200
AE00TO202209220222/09/202200000000900000000000000010170KGM  00000010610KGM  1801W006950              IVSSH 035F R             IVSSH 035F R             0         0         0         0    0    0    00000000000225000000000011400002565000
AE00TO202209220222/09/202200000004200000000000000047460KGM  00000049513KGM  1801W006970              IVSSH 035F Y             IVSSH 035F Y             0         0         0         0    0    0    00000000001050000000000011400011970000
AE00TO202209220222/09/202200000000700000000000000007910KGM  00000008252KGM  1801W006990              IVSSH 035F L             IVSSH 035F L             0         0         0         0    0    0    00000000000175000000000011400001995000
AE00TO202209220222/09/202200000001500000000000000015503KGM  00000016235KGM  180D0203930              AVSSH 05F B              AVSSH 05F B              0         0         0         0    0    0    00000000000225000000000016300003667500
AE00TO202209220222/09/202200000000200000000000000002067KGM  00000002165KGM  180D0203937              AVSSH 05F B/Y            AVSSH 05F B/Y            0         0         0         0    0    0    00000000000030000000000016300000489000
AE00TO202209220222/09/202200000000900000000000000009302KGM  00000009742KGM  180D0203940              AVSSH 05F W              AVSSH 05F W              0         0         0         0    0    0    00000000000135000000000016300002200500
AE00TO202209220222/09/202200000000400000000000000004135KGM  00000004329KGM  180D0203943              AVSSH 05F W/B            AVSSH 05F W/B            0         0         0         0    0    0    00000000000060000000000016300000978000
AE00TO202209220222/09/202200000001100000000000000011370KGM  00000011906KGM  180D0203950              AVSSH 05F R              AVSSH 05F R              0         0         0         0    0    0    00000000000165000000000016300002689500
AE00TO202209220222/09/202200000000200000000000000002068KGM  00000002164KGM  180D0203960              AVSSH 05F G              AVSSH 05F G              0         0         0         0    0    0    00000000000030000000000016300000489000
AE00TO202209220222/09/202200000000200000000000000002067KGM  00000002165KGM  180D0203961              AVSSH 05F LG             AVSSH 05F LG             0         0         0         0    0    0    00000000000030000000000016300000489000
AE00TO202209220222/09/202200000000200000000000000002068KGM  00000002164KGM  180D0203963              AVSSH 05F G/B            AVSSH 05F G/B            0         0         0         0    0    0    00000000000030000000000016300000489000
AE00TO202209220222/09/202200000000200000000000000002067KGM  00000002165KGM  180D0203965              AVSSH 05F G/R            AVSSH 05F G/R            0         0         0         0    0    0    00000000000030000000000016300000489000
AE00TO202209220222/09/202200000000200000000000000002067KGM  00000002165KGM  180D0203970              AVSSH 05F Y              AVSSH 05F Y              0         0         0         0    0    0    00000000000030000000000016300000489000
AE00TO202209220222/09/202200000000300000000000000003101KGM  00000003247KGM  180D0203980              AVSSH 05F BR             AVSSH 05F BR             0         0         0         0    0    0    00000000000045000000000016300000733500
AE00TO202209220222/09/202200000003200000000000000033073KGM  00000034637KGM  180D0203990              AVSSH 05F L              AVSSH 05F L              0         0         0         0    0    0    00000000000480000000000016300007824000
AE00TO202209220222/09/202200000000100000000000000001034KGM  00000001082KGM  180D0203992              AVSSH 05F V              AVSSH 05F V              0         0         0         0    0    0    00000000000015000000000016300000244500
AE00TO202209220222/09/202200000000300000000000000003101KGM  00000003247KGM  180D0203994              AVSSH 05F L/W            AVSSH 05F L/W            0         0         0         0    0    0    00000000000045000000000016300000733500
AE00TO202209220222/09/202200000000100000000000000001034KGM  00000001082KGM  180D0203995              AVSSH 05F L/R            AVSSH 05F L/R            0         0         0         0    0    0    00000000000015000000000016300000244500
AE00TO202209220222/09/202200000001100000000000000008483KGM  00000009021KGM  181AD2002ZZ              CIVUSAS-S 035X2 B        CIVUSAS-S 035X2 B        0         0         0         0    0    0    00000000000049500000000043700002163150
AE00TO202209220222/09/202200000001800000000000000015119KGM  00000015999KGM  181AD2004ZZ              CIVUSAS-S 035X4 B        CIVUSAS-S 035X4 B        0         0         0         0    0    0    00000000000054000000000066700003601800
AE00TO202209220222/09/202200000001400000000000000011357KGM  00000012041KGM  181AD2008ZZ              CIVUSAS-S 05X2 B         CIVUSAS-S 05X2 B         0         0         0         0    0    0    00000000000056000000000051400002878400
AE00TO202209220222/09/202200000004500000000000000036180KGM  00000038380KGM  181B0910241              CAVSAS 05X2 GY           CAVSAS 05X2 GY           0         0         0         0    0    0    00000000000135000000000061200008262000
AE00TO202209220222/09/202200000000100000000000000000758KGM  00000000807KGM  181E50002ZZ              AVSSCS-S 03FX2 DGY/G     AVSSCS-S 03FX2 DGY/G     0         0         0         0    0    0    00000000000003500000000059400000207900
AE00TO202209220222/09/202200000000700000000000000005347KGM  00000005689KGM  181E50006ZZ              AVSSCS-S 05FX1 DGY/Y     AVSSCS-S 05FX1 DGY/Y     0         0         0         0    0    0    00000000000028000000000050400001411200
AE00TO202209220222/09/202200000003800000000000000029027KGM  00000030885KGM  181E50007ZZ              AVSSCS-S 05FX1 DGY/L     AVSSCS-S 05FX1 DGY/L     0         0         0         0    0    0    00000000000152000000000050400007660800
AE00TO202209220222/09/202200000006200000000000000046981KGM  00000050011KGM  181E50036ZZ              AVSSCS-S 03FX2 DGY       AVSSCS-S 03FX2 DGY       0         0         0         0    0    0    00000000000217000000000059400012889800
