AE00TI102209220122/09/202200000000200000000000000002220KGM  00000002728KGM  7157-7915-80             REAR HOLDER              7157791580               0         0         0         0    0    0    00002000000001000000000124000024800000
AE00TI102209220122/09/202200000000200000000000000001736KGM  00000002136KGM  7173-3291-40             LIF LEVER                7173329140               0         0         0         0    0    0    00000480000000240000000142000006816000
AE00TI102209220122/09/202200000000100000000000000000623KGM  00000000762KGM  7174-1849-70             COVER                    7174184970               0         0         0         0    0    0    00002500000002500000000046000011500000
AE00TI102209220122/09/202200000001200000000000000010393KGM  00000012133KGM  7288-3329-30             HOUSING MALE             7288332930               0         0         0         0    0    0    00001800000000150000000354000063720000
AE00TI102209220122/09/202200000002100000000000000014414KGM  00000018929KGM  7289-3342-30             HOUSING FEMALE ASS'Y     7289334230               0         0         0         0    0    0    00005040000000240000000191000096264000
AE00TI102209220122/09/202200000000800000000000000006714KGM  00000008954KGM  7289-6868-30             SEALED ASSY FEMALE       7289686830               0         0         0         0    0    0    00002016000000252000000332000066931200
AE00TI102209220122/09/202200000000500000000000000005541KGM  00000007603KGM  7289-9553-50             SEALED ASSY FEMALE       7289955350               0         0         0         0    0    0    00001470000000294000000252000037044000
AE00TI102209220122/09/202200000000100000000000000001097KGM  00000001359KGM  7298-4094-10             HOUSING FEMALE ASS'Y     7298409410               0         0         0         0    0    0    00000338000000338000000241000008145800
AE00TI102209220122/09/202200000000300000000000000002945KGM  00000003870KGM  7298-5993-30             SEALED ASSY FEMALE       7298599330               0         0         0         0    0    0    00000655200000218400000266000017428320
AE00TI102209220122/09/202200000001600000000000000017752KGM  00000020154KGM  7327-6572-3W             BATTERY FUSE             732765723W               0         0         0         0    0    0    00000153600000009600008162000125368320
AE00TI102209220122/09/202200000001000000000000000011409KGM  00000013559KGM  7327-6840-3W             BATTERY FUSE             732768403W               0         0         0         0    0    0    00000072000000007200009909000071344800
AE00TI102209220122/09/202200000000800000000000000007960KGM  00000009000KGM  7388-0313-30             CONNECTOR ASS'Y          7388031330               0         0         0         0    0    0    00000960000000120000000376000036096000
AE00TI102209220122/09/202200000001000000000000000007420KGM  00000011220KGM  7388-2978-30             HOUSING MALE ASS'Y       7388297830               0         0         0         0    0    0    00000480000000048000001790000085920000
AE00TI102209220122/09/202200000001800000000000000023760KGM  00000028260KGM  7470-3082                J/B COMPLETE ASS'Y       74703082                 0         0         0         0    0    0    00000043200000002400031298000135207360
AE00TI102209220122/09/202200000002000000000000000000000KGM  00000000000KGM  7470-5308E               J/B COMPLETE ASS'Y       74705308E                0         0         0         0    0    0    00000020000000001000000000000000000000
AE00TI102209220122/09/202200000001400000000000000000000KGM  00000000000KGM  7470-5782D               J/B COMPLETE ASS'Y       74705782D                0         0         0         0    0    0    00000021000000001500000000000000000000
AE00TI102209220122/09/202200000001800000000000000000000KGM  00000000000KGM  7470-5783E               J/B COMPLETE ASS'Y       74705783E                0         0         0         0    0    0    00000018000000001000000000000000000000
AE00TI102209220122/09/202200000001500000000000000000000KGM  00000000000KGM  7470-5791D               J/B COMPLETE ASS'Y       74705791D                0         0         0         0    0    0    00000022500000001500000000000000000000
AE00TI102209220122/09/202200000002000000000000000000000KGM  00000000000KGM  7470-5791E               J/B COMPLETE ASS'Y       74705791E                0         0         0         0    0    0    00000020000000001000000000000000000000
AE00TI102209220122/09/202200000001100000000000000005434KGM  00000007271KGM  7470-5934                J/B COMPLETE ASS'Y       74705934                 0         0         0         0    0    0    00000011000000001000000000000000000000
AE00TI102209220122/09/202200000004100000000000000020254KGM  00000027101KGM  7470-5935                J/B COMPLETE ASS'Y       74705935                 0         0         0         0    0    0    00000041000000001000000000000000000000
