AE00TI102209220522/09/202200000001600000000000000014424KGM  00000019682KGM  7114-4110-02             TERMINAL                 7114411002               0         0         0         0    0    0    00024000000001500000000049000117600000
AE00TI102209220522/09/202200000001600000000000000008160KGM  00000012867KGM  7114-4728-02             TERMINAL                 7114472802               0         0         0         0    0    0    00048000000003000000000014000067200000
AE00TI102209220522/09/202200000001600000000000000008256KGM  00000012963KGM  7114-4729-02             TERMINAL                 7114472902               0         0         0         0    0    0    00048000000003000000000015000072000000
AE00TI102209220522/09/202200000001600000000000000007517KGM  00000012080KGM  7116-3154-02             TERMINAL FEMALE          7116315402               0         0         0         0    0    0    00043200000002700000000015000064800000
AE00TI102209220522/09/202200000004600000000000000023598KGM  00000036717KGM  7116-4020                TERMINAL                 71164020                 0         0         0         0    0    0    00062100000001350000000028000173880000
AE00TI102209220522/09/202200000002300000000000000014830KGM  00000022427KGM  7116-4025                TERMINAL                 71164025                 0         0         0         0    0    0    00036800000001600000000034000125120000
AE00TI102209220522/09/202200000000700000000000000003629KGM  00000005930KGM  7116-4416-02             TERMINAL                 7116441602               0         0         0         0    0    0    00022400000003200000000016000035840000
AE00TI102209220522/09/202200000000100000000000000000730KGM  00000000833KGM  7182-2412                HOUSING MALE             71822412                 0         0         0         0    0    0    00000050000000050000000638000003190000
AE00TI102209220522/09/202200000000200000000000000001436KGM  00000001678KGM  7183-4000                HOUSING FEMALE           71834000                 0         0         0         0    0    0    00000400000000200000000259000010360000
AE00TI102209220522/09/202200000001100000000000000008900KGM  00000010162KGM  7188-0149                HLC HOUSING MALE         71880149                 0         0         0         0    0    0    00000990000000090000000530000052470000
AE00TI102209220522/09/202200000012000000000000000028512KGM  00000058512KGM  7271-1818-30             CASE SUB ASSY,ECU        7271181830               0         0         0         0    0    0    00000216000000001800009388000202780800
AE00TI102209220522/09/202200000000100000000000000000230KGM  00000000339KGM  7282-5528-70             HOUSING MALE ASS'Y       7282552870               0         0         0         0    0    0    00000100000000100000000434000004340000
AE00TI102209220522/09/202200000000400000000000000002002KGM  00000002582KGM  7283-7062-90             CONNECTOR HOUSING        7283706290               0         0         0         0    0    0    00000240000000060000000669000016056000
AE00TI102209220522/09/202200000000400000000000000000000KGM  00000000000KGM  7289-3342-30M            HOUSING FEMALE ASS'Y     7289334230M              0         0         0         0    0    0    00000408000000102000000188000007670400
AE00TI102209220522/09/202200000000100000000000000000942KGM  00000001087KGM  7382-7523                JOINT CONNECTOR          73827523                 0         0         0         0    0    0    00000120000000120000000571000006852000
