AE00TI102209220222/09/202200000008000000000000000007960KGM  00000019960KGM  7140-1977-30             UPPER COVER              7140197730               0         0         0         0    0    0    00000080000000001000002698000021584000
AE00TI102209220222/09/202200000000100000000000000000827KGM  00000001102KGM  7154-5712-30             CASSETTE R/B             7154571230               0         0         0         0    0    0    00000080000000080000000288000002304000
AE00TI102209220222/09/202200000003000000000000000009918KGM  00000011580KGM  7158-3006-90             RUBBER STOPPER           7158300690               0         0         0         0    0    0    00060000000002000000000016000096000000
AE00TI102209220222/09/202200000001600000000000000005408KGM  00000006179KGM  7158-3009-60             RUBBER STOPPER           7158300960               0         0         0         0    0    0    00032000000002000000000012000038400000
AE00TI102209220222/09/202200000001600000000000000004416KGM  00000005333KGM  7158-3070-80             RUBBER STOPPER           7158307080               0         0         0         0    0    0    00064000000004000000000008000051200000
AE00TI102209220222/09/202200000001900000000000000001976KGM  00000002896KGM  7158-3166-60             WIRE SEAL                7158316660               0         0         0         0    0    0    00076000000004000000000004000030400000
AE00TI102209220222/09/202200000006200000000000000002976KGM  00000006758KGM  7158-3167-80             WIRE SEAL                7158316780               0         0         0         0    0    0    00124000000002000000000005000062000000
AE00TI102209220222/09/202200000002000000000000000000880KGM  00000001842KGM  7158-3168-80             SEALED                   7158316880               0         0         0         0    0    0    00040000000002000000000004000016000000
AE00TI102209220222/09/202200000001300000000000000002028KGM  00000002653KGM  7158-3169-40             SEALING PLUG             7158316940               0         0         0         0    0    0    00052000000004000000000006000031200000
AE00TI102209220222/09/202200000001400000000000000018747KGM  00000020847KGM  7171-6291                HOUSING MALE             71716291                 0         0         0         0    0    0    00000268800000019200001625000043680000
AE00TI102209220222/09/202200000001000000000000000007621KGM  00000009803KGM  7171-6292                HOUSING                  71716292                 0         0         0         0    0    0    00000180000000018000001240000022320000
AE00TI102209220222/09/202200000001900000000000000003534KGM  00000004454KGM  7172-5540-80             SEALED WIRE SEAL         7172554080               0         0         0         0    0    0    00038000000002000000000010000038000000
AE00TI102209220222/09/202200000000200000000000000001184KGM  00000001424KGM  7174-1164                COVER                    71741164                 0         0         0         0    0    0    00000160000000080000000173000002768000
AE00TI102209220222/09/202200000000100000000000000001282KGM  00000001477KGM  7182-4941                DOUBLE SIDED             71824941                 0         0         0         0    0    0    00000100000000100000000816000008160000
AE00TI102209220222/09/202200000000100000000000000000959KGM  00000001191KGM  7183-0522-30             HOUSING                  7183052230               0         0         0         0    0    0    00000240000000240000000121000002904000
AE00TI102209220222/09/202200000000200000000000000002118KGM  00000002491KGM  7183-2412                HOUSING                  71832412                 0         0         0         0    0    0    00000320000000160000000155000004960000
AE00TI102209220222/09/202200000000400000000000000001912KGM  00000003040KGM  7183-2413                CONNECTOR HOUSING        71832413                 0         0         0         0    0    0    00001920000000480000000074000014208000
AE00TI102209220222/09/202200000000200000000000000000955KGM  00000001519KGM  7183-2413-30             CONNECTOR HOUSING        7183241330               0         0         0         0    0    0    00000960000000480000000076000007296000
AE00TI102209220222/09/202200000000100000000000000000779KGM  00000001061KGM  7183-2414                CONNECTOR HOUSING        71832414                 0         0         0         0    0    0    00000480000000480000000050000002400000
AE00TI102209220222/09/202200000000100000000000000000917KGM  00000001477KGM  7183-2418                CONNECTOR HOUSING        71832418                 0         0         0         0    0    0    00000480000000480000000078000003744000
AE00TI102209220222/09/202200000000100000000000000001414KGM  00000001737KGM  7187-3970                CONNECTOR FLAME          71873970                 0         0         0         0    0    0    00000036800000036800000832000003061760
AE00TI102209220222/09/202200000000100000000000000000637KGM  00000000782KGM  7188-9508-40             HLC HOUSING MALE         7188950840               0         0         0         0    0    0    00000200000000200000000240000004800000
AE00TI102209220222/09/202200000000100000000000000000626KGM  00000000771KGM  7188-9509                HLC HOUSING MALE         71889509                 0         0         0         0    0    0    00000200000000200000000231000004620000
AE00TI102209220222/09/202200000000200000000000000001262KGM  00000001552KGM  7188-9510-30             HLC HOUSING MALE         7188951030               0         0         0         0    0    0    00000400000000200000000238000009520000
AE00TI102209220222/09/202200000000100000000000000000627KGM  00000000772KGM  7188-9511-80             HLC HOUSING MALE         7188951180               0         0         0         0    0    0    00000200000000200000000245000004900000
AE00TI102209220222/09/202200000000100000000000000000771KGM  00000000916KGM  7188-9513                HLC HOUSING MALE         71889513                 0         0         0         0    0    0    00000200000000200000000261000005220000
AE00TI102209220222/09/202200000000100000000000000000779KGM  00000000924KGM  7188-9514-90             HLC HOUSING MALE         7188951490               0         0         0         0    0    0    00000200000000200000000275000005500000
AE00TI102209220222/09/202200000000400000000000000002315KGM  00000002743KGM  7189-9516-40             HOUSING                  7189951640               0         0         0         0    0    0    00000800000000200000000238000019040000
AE00TI102209220222/09/202200000000200000000000000001153KGM  00000001367KGM  7189-9517                HOUSING                  71899517                 0         0         0         0    0    0    00000400000000200000000228000009120000
AE00TI102209220222/09/202200000000300000000000000001751KGM  00000002072KGM  7189-9518-30             HOUSING                  7189951830               0         0         0         0    0    0    00000600000000200000000236000014160000
AE00TI102209220222/09/202200000000300000000000000001738KGM  00000002059KGM  7189-9519-80             HOUSING                  7189951980               0         0         0         0    0    0    00000600000000200000000243000014580000
AE00TI102209220222/09/202200000000400000000000000004120KGM  00000004704KGM  7222-7484-40             CONNECTOR                7222748440               0         0         0         0    0    0    00000400000000100000000758000030320000
AE00TI102209220222/09/202200000000400000000000000003866KGM  00000004500KGM  7222-7564-30             CONNECTOR                7222756430               0         0         0         0    0    0    00000200000000050000001175000023500000
AE00TI102209220222/09/202200000000600000000000000005802KGM  00000006582KGM  7222-7564-40             CONNECTOR                7222756440               0         0         0         0    0    0    00000300000000050000001166000034980000
AE00TI102209220222/09/202200000000200000000000000001398KGM  00000001818KGM  7282-4854                HOUSING MALE ASS'Y       72824854                 0         0         0         0    0    0    00000240000000120000000339000008136000
AE00TI102209220222/09/202200000000300000000000000003372KGM  00000003638KGM  7282-7028-30             CONNECTOR                7282702830               0         0         0         0    0    0    00000600000000200000000248000014880000
AE00TI102209220222/09/202200000000300000000000000002633KGM  00000003234KGM  7283-1156                CONNECTOR                72831156                 0         0         0         0    0    0    00000240000000080000000810000019440000
AE00TI102209220222/09/202200000000100000000000000001140KGM  00000001318KGM  7283-1968-30             CONNECTOR                7283196830               0         0         0         0    0    0    00000090000000090000000687000006183000
AE00TI102209220222/09/202200000000100000000000000000917KGM  00000001137KGM  7283-4577                CONNECTOR HOUSING        72834577                 0         0         0         0    0    0    00000480000000480000000172000008256000
AE00TI102209220222/09/202200000000200000000000000001356KGM  00000001891KGM  7283-6036                CONNECTOR HOUSING        72836036                 0         0         0         0    0    0    00000320000000160000000260000008320000
AE00TI102209220222/09/202200000000100000000000000001452KGM  00000001681KGM  7283-7028-30             CONNECTOR                7283702830               0         0         0         0    0    0    00000300000000300000000520000015600000
AE00TI102209220222/09/202200000000100000000000000000380KGM  00000000532KGM  7283-8123                CONNECTOR HOUSING        72838123                 0         0         0         0    0    0    00000400000000400000000138000005520000
AE00TI102209220222/09/202200000000100000000000000000580KGM  00000000755KGM  7284-2665-3W             PROTECTOR                728426653W               0         0         0         0    0    0    00000010000000010000002432000002432000
AE00TI102209220222/09/202200000000200000000000000001934KGM  00000002336KGM  7286-1917                CONNECTOR MALE ASS'Y     72861917                 0         0         0         0    0    0    00000240000000120000000517000012408000
AE00TI102209220222/09/202200000000900000000000000007683KGM  00000009407KGM  7287-9155                HOUSING FEMALE ASS'Y     72879155                 0         0         0         0    0    0    00000864000000096000000357000030844800
AE00TI102209220222/09/202200000000300000000000000002059KGM  00000002704KGM  7289-3342-30             HOUSING FEMALE ASS'Y     7289334230               0         0         0         0    0    0    00000720000000240000000191000013752000
AE00TI102209220222/09/202200000001600000000000000013675KGM  00000017035KGM  7289-5979-30             HOUSING FEMALE ASS'Y     7289597930               0         0         0         0    0    0    00000403200000025200001346000054270720
AE00TI102209220222/09/202200000000100000000000000000829KGM  00000001049KGM  7289-6518-30             HOUSING FEMALE ASS'Y     7289651830               0         0         0         0    0    0    00000120000000120000000598000007176000
AE00TI102209220222/09/202200000001400000000000000011749KGM  00000015669KGM  7289-6868-30             SEALED ASSY FEMALE       7289686830               0         0         0         0    0    0    00003528000000252000000332000117129600
AE00TI102209220222/09/202200000000400000000000000004792KGM  00000006464KGM  7341-5305-40             SOCKET PLUG              7341530540               0         0         0         0    0    0    00000800000000200000000437000034960000
