AE00TI102209220322/09/202200000020000000000000000047520KGM  00000097520KGM  7271-1818-30             CASE SUB ASSY,ECU        7271181830               0         0         0         0    0    0    00000360000000001800009388000337968000
AE00TI102209220322/09/202200000002400000000000000013416KGM  00000019416KGM  7370-0310                J/B ASS'Y                73700310                 0         0         0         0    0    0    00000024000000001000031643000075943200
AE00TI102209220322/09/202200000001800000000000000023760KGM  00000028260KGM  7470-3082                J/B COMPLETE ASS'Y       74703082                 0         0         0         0    0    0    00000043200000002400031298000135207360
AE00TI102209220322/09/202200000000400000000000000000000KGM  00000000000KGM  7470-5783E               J/B COMPLETE ASS'Y       74705783E                0         0         0         0    0    0    00000004000000001000000000000000000000
AE00TI102209220322/09/202200000001500000000000000000000KGM  00000000000KGM  7470-5791D               J/B COMPLETE ASS'Y       74705791D                0         0         0         0    0    0    00000022500000001500000000000000000000
AE00TI102209220322/09/202200000001000000000000000000000KGM  00000000000KGM  7470-5823E               J/B COMPLETE ASS'Y       74705823E                0         0         0         0    0    0    00000010000000001000000000000000000000
AE00TI102209220322/09/202200000000800000000000000000000KGM  00000000000KGM  7470-5927D               J/B COMPLETE ASS'Y       74705927D                0         0         0         0    0    0    00000012000000001500000000000000000000
AE00TI102209220322/09/202200000000400000000000000000000KGM  00000000000KGM  7470-5927E               J/B COMPLETE ASS'Y       74705927E                0         0         0         0    0    0    00000004000000001000000000000000000000
