AE00TO202209220122/09/202200000000100000000000000001047KGM  00000001096KGM  18000004543              AV 8 W/B                 AV 8 W/B                 0         0         0         0    0    0    00000000000001000000000211100000211100
AE00TO202209220122/09/202200000001600000000000000016746KGM  00000017529KGM  18000004550              AV 8 R                   AV 8 R                   0         0         0         0    0    0    00000000000016000000000211100003377600
AE00TO202209220122/09/202200000000200000000000000002093KGM  00000002191KGM  18000004560              AV 8 G                   AV 8 G                   0         0         0         0    0    0    00000000000002000000000211100000422200
AE00TO202209220122/09/202200000000100000000000000001047KGM  00000001096KGM  18000004570              AV 8 Y                   AV 8 Y                   0         0         0         0    0    0    00000000000001000000000211100000211100
AE00TO202209220122/09/202200000000300000000000000003140KGM  00000003287KGM  18000004590              AV 8 L                   AV 8 L                   0         0         0         0    0    0    00000000000003000000000211100000633300
AE00TO202209220122/09/202200000000800000000000000007224KGM  00000007615KGM  18001403960              AV 05F G                 AV 05F G                 0         0         0         0    0    0    00000000000080000000000017000001360000
AE00TO202209220122/09/202200000000700000000000000006321KGM  00000006663KGM  18001403964              AV 05F G/W               AV 05F G/W               0         0         0         0    0    0    00000000000070000000000017000001190000
AE00TO202209220122/09/202200000000100000000000000000943KGM  00000000992KGM  18007704035              AVSS 075F B/R            AVSS 075F B/R            0         0         0         0    0    0    00000000000010000000000022300000223000
AE00TO202209220122/09/202200000003600000000000000040003KGM  00000041763KGM  18007704140              AVSS 125F W              AVSS 125F W              0         0         0         0    0    0    00000000000288000000000034700009993600
AE00TO202209220122/09/202200000000900000000000000010001KGM  00000010441KGM  18007704152              AVSS 125F P              AVSS 125F P              0         0         0         0    0    0    00000000000072000000000034700002498400
AE00TO202209220122/09/202200000000100000000000000000942KGM  00000000991KGM  18018403763              CAVS 03 G/B              CAVS 03 G/B              0         0         0         0    0    0    00000000000020000000000010300000206000
AE00TO202209220122/09/202200000000100000000000000001016KGM  00000001064KGM  18018403914              CAVS 05 L/O              CAVS 05 L/O              0         0         0         0    0    0    00000000000015000000000015000000225000
AE00TO202209220122/09/202200000000100000000000000001016KGM  00000001064KGM  18018403930              CAVS 05 B                CAVS 05 B                0         0         0         0    0    0    00000000000015000000000015000000225000
AE00TO202209220122/09/202200000000100000000000000001016KGM  00000001064KGM  18018403950              CAVS 05 R                CAVS 05 R                0         0         0         0    0    0    00000000000015000000000015000000225000
AE00TO202209220122/09/202200000002600000000000000026405KGM  00000027674KGM  18018403952              CAVS 05 P                CAVS 05 P                0         0         0         0    0    0    00000000000390000000000015000005850000
AE00TO202209220122/09/202200000000700000000000000007109KGM  00000007451KGM  18018403970              CAVS 05 Y                CAVS 05 Y                0         0         0         0    0    0    00000000000105000000000015000001575000
AE00TO202209220122/09/202200000000100000000000000001016KGM  00000001064KGM  18018403973              CAVS 05 Y/B              CAVS 05 Y/B              0         0         0         0    0    0    00000000000015000000000015000000225000
AE00TO202209220122/09/202200000000200000000000000002031KGM  00000002129KGM  18018403975              CAVS 05 Y/R              CAVS 05 Y/R              0         0         0         0    0    0    00000000000030000000000015000000450000
AE00TO202209220122/09/202200000000200000000000000002032KGM  00000002128KGM  18018403980              CAVS 05 BR               CAVS 05 BR               0         0         0         0    0    0    00000000000030000000000015000000450000
AE00TO202209220122/09/202200000004400000000000000044682KGM  00000046833KGM  18018403990              CAVS 05 L                CAVS 05 L                0         0         0         0    0    0    00000000000660000000000015000009900000
AE00TO202209220122/09/202200000000400000000000000004062KGM  00000004258KGM  18018403993              CAVS 05 L/B              CAVS 05 L/B              0         0         0         0    0    0    00000000000060000000000015000000900000
AE00TO202209220122/09/202200000000200000000000000002031KGM  00000002129KGM  18018403997              CAVS 05 L/Y              CAVS 05 L/Y              0         0         0         0    0    0    00000000000030000000000015000000450000
AE00TO202209220122/09/202200000019300000000000000217125KGM  00000226562KGM  1801W003950              IVSSH 05F R              IVSSH 05F R              0         0         0         0    0    0    00000000003474000000000015400053499600
AE00TO202209220122/09/202200000000900000000000000010125KGM  00000010566KGM  1801W003990              IVSSH 05F L              IVSSH 05F L              0         0         0         0    0    0    00000000000162000000000015400002494800
AE00TO202209220122/09/202200000002200000000000000024860KGM  00000025936KGM  1801W006950              IVSSH 035F R             IVSSH 035F R             0         0         0         0    0    0    00000000000550000000000011400006270000
AE00TO202209220122/09/202200000012100000000000000136730KGM  00000142646KGM  1801W006990              IVSSH 035F L             IVSSH 035F L             0         0         0         0    0    0    00000000003025000000000011400034485000
AE00TO202209220122/09/202200000000300000000000000003101KGM  00000003247KGM  180D0203930              AVSSH 05F B              AVSSH 05F B              0         0         0         0    0    0    00000000000045000000000016300000733500
AE00TO202209220122/09/202200000001900000000000000019637KGM  00000020565KGM  180D0203940              AVSSH 05F W              AVSSH 05F W              0         0         0         0    0    0    00000000000285000000000016300004645500
AE00TO202209220122/09/202200000001400000000000000014470KGM  00000015153KGM  180D0203943              AVSSH 05F W/B            AVSSH 05F W/B            0         0         0         0    0    0    00000000000210000000000016300003423000
AE00TO202209220122/09/202200000000200000000000000002068KGM  00000002164KGM  180D0203950              AVSSH 05F R              AVSSH 05F R              0         0         0         0    0    0    00000000000030000000000016300000489000
AE00TO202209220122/09/202200000000100000000000000001034KGM  00000001082KGM  180D0203960              AVSSH 05F G              AVSSH 05F G              0         0         0         0    0    0    00000000000015000000000016300000244500
AE00TO202209220122/09/202200000000200000000000000002068KGM  00000002164KGM  180D0203970              AVSSH 05F Y              AVSSH 05F Y              0         0         0         0    0    0    00000000000030000000000016300000489000
AE00TO202209220122/09/202200000001200000000000000012402KGM  00000012989KGM  180D0203992              AVSSH 05F V              AVSSH 05F V              0         0         0         0    0    0    00000000000180000000000016300002934000
AE00TO202209220122/09/202200000000300000000000000003499KGM  00000003646KGM  180D0204130              AVSSH 125F B             AVSSH 125F B             0         0         0         0    0    0    00000000000024000000000035700000856800
AE00TO202209220122/09/202200000001900000000000000014652KGM  00000015580KGM  181AD2002ZZ              CIVUSAS-S 035X2 B        CIVUSAS-S 035X2 B        0         0         0         0    0    0    00000000000085500000000043700003736350
AE00TO202209220122/09/202200000001200000000000000010080KGM  00000010666KGM  181AD2004ZZ              CIVUSAS-S 035X4 B        CIVUSAS-S 035X4 B        0         0         0         0    0    0    00000000000036000000000066700002401200
AE00TO202209220122/09/202200000004500000000000000036180KGM  00000038380KGM  181B0910241              CAVSAS 05X2 GY           CAVSAS 05X2 GY           0         0         0         0    0    0    00000000000135000000000061200008262000
AE00TO202209220122/09/202200000009700000000000000084478KGM  00000089221KGM  181B32102S1              AVSSCS 05FX2 DGY         AVSSCS 05FX2 DGY         0         0         0         0    0    0    00000000000291000000000075800022057800
AE00TO202209220122/09/202200000000700000000000000006097KGM  00000006438KGM  181B32102Y5              AVSSCS 05FX2 DGY/W       AVSSCS 05FX2 DGY/W       0         0         0         0    0    0    00000000000021000000000075800001591800
AE00TO202209220122/09/202200000001600000000000000013936KGM  00000014717KGM  181B32102Y6              AVSSCS 05FX2 DGY/G       AVSSCS 05FX2 DGY/G       0         0         0         0    0    0    00000000000048000000000075800003638400
AE00TO202209220122/09/202200000000900000000000000007839KGM  00000008278KGM  181B32102Y9              AVSSCS 05FX2 DGY/P       AVSSCS 05FX2 DGY/P       0         0         0         0    0    0    00000000000027000000000075800002046600
AE00TO202209220122/09/202200000000200000000000000001742KGM  00000001840KGM  181B32102Z8              AVSSCS 05FX2 DGY/O       AVSSCS 05FX2 DGY/O       0         0         0         0    0    0    00000000000006000000000075800000454800
AE00TO202209220122/09/202200000000200000000000000001516KGM  00000001614KGM  181E50002ZZ              AVSSCS-S 03FX2 DGY/G     AVSSCS-S 03FX2 DGY/G     0         0         0         0    0    0    00000000000007000000000059400000415800
AE00TO202209220122/09/202200000004200000000000000032083KGM  00000034136KGM  181E50005ZZ              AVSSCS-S 05FX1 DGY/W     AVSSCS-S 05FX1 DGY/W     0         0         0         0    0    0    00000000000168000000000050400008467200
AE00TO202209220122/09/202200000000300000000000000002292KGM  00000002438KGM  181E50007ZZ              AVSSCS-S 05FX1 DGY/L     AVSSCS-S 05FX1 DGY/L     0         0         0         0    0    0    00000000000012000000000050400000604800
AE00TO202209220122/09/202200000000300000000000000002273KGM  00000002420KGM  181E50020ZZ              AVSSCS-S 03FX2 DGY/R     AVSSCS-S 03FX2 DGY/R     0         0         0         0    0    0    00000000000010500000000059400000623700
AE00TO202209220122/09/202200000014600000000000000110631KGM  00000117769KGM  181E50036ZZ              AVSSCS-S 03FX2 DGY       AVSSCS-S 03FX2 DGY       0         0         0         0    0    0    00000000000511000000000059400030353400
AE00TO202209220122/09/202200000003900000000000000029771KGM  00000031678KGM  181F21002ZZ              AVSSHCS-S 05FX1 B        AVSSHCS-S 05FX1 B        0         0         0         0    0    0    00000000000156000000000053700008377200
AE00TO202209220122/09/202200000001600000000000000012214KGM  00000012995KGM  181F21003ZZ              AVSSHCS-S 05FX1 B/W      AVSSHCS-S 05FX1 B/W      0         0         0         0    0    0    00000000000064000000000053700003436800
