AE00TI102210030103/10/202200000003200000000000000005926KGM  00000007475KGM  7137-3001-30             COVER PACKING            7137300130               0         0         0         0    0    0    00001600000000050000000340000054400000
AE00TI102210030103/10/202200000000400000000000000000682KGM  00000000876KGM  7137-3047-30             UNIT PACKING             7137304730               0         0         0         0    0    0    00000400000000100000000189000007560000
AE00TI102210030103/10/202200000001200000000000000006504KGM  00000008656KGM  7147-3642-30             CLIP                     7147364230               0         0         0         0    0    0    00003600000000300000000074000026640000
AE00TI102210030103/10/202200000007100000000000000023473KGM  00000027406KGM  7158-3006-90             RUBBER STOPPER           7158300690               0         0         0         0    0    0    00142000000002000000000016000227200000
AE00TI102210030103/10/202200000007000000000000000023660KGM  00000027034KGM  7158-3009-60             RUBBER STOPPER           7158300960               0         0         0         0    0    0    00140000000002000000000012000168000000
AE00TI102210030103/10/202200000002500000000000000011688KGM  00000013100KGM  7158-3022-80             RUBBER STOPPER           7158302280               0         0         0         0    0    0    00012500000000500000000070000087500000
AE00TI102210030103/10/202200000002700000000000000003348KGM  00000004655KGM  7158-3165-90             WIRE SEAL                7158316590               0         0         0         0    0    0    00108000000004000000000006000064800000
AE00TI102210030103/10/202200000007600000000000000007904KGM  00000011582KGM  7158-3166-60             WIRE SEAL                7158316660               0         0         0         0    0    0    00304000000004000000000004000121600000
AE00TI102210030103/10/202200000014700000000000000007056KGM  00000016023KGM  7158-3167-80             WIRE SEAL                7158316780               0         0         0         0    0    0    00294000000002000000000005000147000000
AE00TI102210030103/10/202200000000200000000000000000088KGM  00000000184KGM  7158-3168-80             SEALED                   7158316880               0         0         0         0    0    0    00004000000002000000000004000001600000
AE00TI102210030103/10/202200000000600000000000000000936KGM  00000001225KGM  7158-3169-40             SEALING PLUG             7158316940               0         0         0         0    0    0    00024000000004000000000006000014400000
AE00TI102210030103/10/202200000000300000000000000001373KGM  00000001518KGM  7172-5402-30             SEAL RUBBER              7172540230               0         0         0         0    0    0    00002400000000800000000077000018480000
AE00TI102210030103/10/202200000000500000000000000000000KGM  00000000000KGM  7470-5823D               J/B COMPLETE ASS'Y       74705823D                0         0         0         0    0    0    00000007500000001500000000000000000000
AE00TI102210030103/10/202200000003100000000000000000000KGM  00000000000KGM  7470-5823E               J/B COMPLETE ASS'Y       74705823E                0         0         0         0    0    0    00000031000000001000000000000000000000
AE00TI102210030103/10/202200000002000000000000000000000KGM  00000000000KGM  7470-5927D               J/B COMPLETE ASS'Y       74705927D                0         0         0         0    0    0    00000030000000001500000000000000000000
AE00TI102210030103/10/202200000001000000000000000000000KGM  00000000000KGM  7470-5927E               J/B COMPLETE ASS'Y       74705927E                0         0         0         0    0    0    00000010000000001000000000000000000000
AE00TI102210030103/10/202200000000100000000000000000000KGM  00000000000KGM  7470-5937D               J/B COMPLETE ASS'Y       74705937D                0         0         0         0    0    0    00000001500000001500000000000000000000
