AE00TO202210030103/10/202200000004500000000000000047098KGM  00000049298KGM  18000004540              AV 8 W                   AV 8 W                   0         0         0         0    0    0    00000000000045000000000213400009603000
AE00TO202210030103/10/202200000004500000000000000047098KGM  00000049298KGM  18000004543              AV 8 W/B                 AV 8 W/B                 0         0         0         0    0    0    00000000000045000000000213400009603000
AE00TO202210030103/10/202200000000700000000000000007327KGM  00000007669KGM  18000004580              AV 8 BR                  AV 8 BR                  0         0         0         0    0    0    00000000000007000000000213400001493800
AE00TO202210030103/10/202200000000500000000000000005078KGM  00000005322KGM  18018403990              CAVS 05 L                CAVS 05 L                0         0         0         0    0    0    00000000000075000000000015200001140000
AE00TO202210030103/10/202200000000200000000000000002250KGM  00000002348KGM  1801W003940              IVSSH 05F W              IVSSH 05F W              0         0         0         0    0    0    00000000000036000000000015600000561600
AE00TO202210030103/10/202200000001700000000000000019125KGM  00000019957KGM  1801W003961              IVSSH 05F LG             IVSSH 05F LG             0         0         0         0    0    0    00000000000306000000000015600004773600
AE00TO202210030103/10/202200000011500000000000000129375KGM  00000134998KGM  1801W003990              IVSSH 05F L              IVSSH 05F L              0         0         0         0    0    0    00000000002070000000000015600032292000
AE00TO202210030103/10/202200000000600000000000000006879KGM  00000007173KGM  1801W004030              IVSSH 075F B             IVSSH 075F B             0         0         0         0    0    0    00000000000078000000000021700001692600
AE00TO202210030103/10/202200000000100000000000000001147KGM  00000001195KGM  1801W004040              IVSSH 075F W             IVSSH 075F W             0         0         0         0    0    0    00000000000013000000000021700000282100
AE00TO202210030103/10/202200000000100000000000000001147KGM  00000001195KGM  1801W004043              IVSSH 075F W/B           IVSSH 075F W/B           0         0         0         0    0    0    00000000000013000000000021700000282100
AE00TO202210030103/10/202200000000700000000000000008026KGM  00000008368KGM  1801W004050              IVSSH 075F R             IVSSH 075F R             0         0         0         0    0    0    00000000000091000000000021700001974700
AE00TO202210030103/10/202200000000400000000000000004587KGM  00000004781KGM  1801W004052              IVSSH 075F P             IVSSH 075F P             0         0         0         0    0    0    00000000000052000000000021700001128400
AE00TO202210030103/10/202200000000500000000000000005733KGM  00000005977KGM  1801W004060              IVSSH 075F G             IVSSH 075F G             0         0         0         0    0    0    00000000000065000000000021700001410500
AE00TO202210030103/10/202200000000500000000000000005733KGM  00000005977KGM  1801W004070              IVSSH 075F Y             IVSSH 075F Y             0         0         0         0    0    0    00000000000065000000000021700001410500
AE00TO202210030103/10/202200000000100000000000000001147KGM  00000001195KGM  1801W004080              IVSSH 075F BR            IVSSH 075F BR            0         0         0         0    0    0    00000000000013000000000021700000282100
AE00TO202210030103/10/202200000000100000000000000001147KGM  00000001195KGM  1801W004090              IVSSH 075F L             IVSSH 075F L             0         0         0         0    0    0    00000000000013000000000021700000282100
AE00TO202210030103/10/202200000000200000000000000002293KGM  00000002391KGM  1801W004092              IVSSH 075F V             IVSSH 075F V             0         0         0         0    0    0    00000000000026000000000021700000564200
AE00TO202210030103/10/202200000002300000000000000026452KGM  00000027577KGM  1801W004230              IVSSH 2F B               IVSSH 2F B               0         0         0         0    0    0    00000000000126500000000056100007096650
AE00TO202210030103/10/202200000000200000000000000002300KGM  00000002398KGM  1801W004240              IVSSH 2F W               IVSSH 2F W               0         0         0         0    0    0    00000000000011000000000056100000617100
AE00TO202210030103/10/202200000000600000000000000006901KGM  00000007194KGM  1801W004243              IVSSH 2F W/B             IVSSH 2F W/B             0         0         0         0    0    0    00000000000033000000000056100001851300
AE00TO202210030103/10/202200000000400000000000000004600KGM  00000004796KGM  1801W004250              IVSSH 2F R               IVSSH 2F R               0         0         0         0    0    0    00000000000022000000000056100001234200
AE00TO202210030103/10/202200000000300000000000000003101KGM  00000003247KGM  180D0203940              AVSSH 05F W              AVSSH 05F W              0         0         0         0    0    0    00000000000045000000000016500000742500
AE00TO202210030103/10/202200000000200000000000000002068KGM  00000002164KGM  180D0203943              AVSSH 05F W/B            AVSSH 05F W/B            0         0         0         0    0    0    00000000000030000000000016500000495000
AE00TO202210030103/10/202200000003500000000000000029399KGM  00000031110KGM  181AD2004ZZ              CIVUSAS-S 035X4 B        CIVUSAS-S 035X4 B        0         0         0         0    0    0    00000000000105000000000067200007056000
AE00TO202210030103/10/202200000013500000000000000096593KGM  00000103193KGM  181D6910239              AVSSHCS 05FX2 B/L        AVSSHCS 05FX2 B/L        0         0         0         0    0    0    00000000000405000000000080200032481000
AE00TO202210030103/10/202200000001600000000000000012222KGM  00000013004KGM  181E50004ZZ              AVSSCS-S 05FX1 DGY       AVSSCS-S 05FX1 DGY       0         0         0         0    0    0    00000000000064000000000050700003244800
AE00TO202210030103/10/202200000000500000000000000003819KGM  00000004064KGM  181E50007ZZ              AVSSCS-S 05FX1 DGY/L     AVSSCS-S 05FX1 DGY/L     0         0         0         0    0    0    00000000000020000000000050700001014000
AE00TO202210030103/10/202200000003400000000000000025954KGM  00000027616KGM  181F21002ZZ              AVSSHCS-S 05FX1 B        AVSSHCS-S 05FX1 B        0         0         0         0    0    0    00000000000136000000000054000007344000
AE00TO202210030103/10/202200000000900000000000000006870KGM  00000007310KGM  181F21008ZZ              AVSSHCS-S 05FX1 B/V      AVSSHCS-S 05FX1 B/V      0         0         0         0    0    0    00000000000036000000000054000001944000
AE00TO202210030103/10/202200000001100000000000000009388KGM  00000009926KGM  181F21027ZZ              AVSSHCS-S 125FX2 B       AVSSHCS-S 125FX2 B       0         0         0         0    0    0    00000000000022000000000128700002831400
AE00TO202210030103/10/202200000001000000000000000008535KGM  00000009023KGM  181F21028ZZ              AVSSHCS-S 125FX2 B/R     AVSSHCS-S 125FX2 B/R     0         0         0         0    0    0    00000000000020000000000128700002574000
AE00TO202210030103/10/202200000000200000000000000001707KGM  00000001805KGM  181F21029ZZ              AVSSHCS-S 125FX2 B/Y     AVSSHCS-S 125FX2 B/Y     0         0         0         0    0    0    00000000000004000000000128700000514800
AE00TO202210030103/10/202200000001900000000000000016216KGM  00000017144KGM  181F21031ZZ              AVSSHCS-S 125FX2 B/P     AVSSHCS-S 125FX2 B/P     0         0         0         0    0    0    00000000000038000000000128700004890600
