BI00B1200    #7242T52801    202209227187-3356                JOINT CONNECTOR          CCN000003600000003600FN00000000020221001000003600NNM   20220727121045    2F0F  0000012000000075960000102441200    YCYC    005600390040
BI00B1200    #7242T52801    202209227187-3358-30             JOINT CONNECTOR          CCN000004800000004800FN00000000020221001000004800NNM   20220727121045    2F0F  0000012000000067320000094041200    YCYC    005600390040
BI00B1200    #7242T52801    202209227187-3359-60             JOINT CONNECTOR          CCN000003600000003600FN00000000020221001000003600NNM   20220727121045    2F0F  0000012000000076320000103041200    YCYC    005600390040
BI00B1200    #7242T52801    202209227187-3360                JOINT CONNECTOR          CCN000003600000003600FN00000000020221001000003600NNM   20220727121045    2F0F  0000012000000075960000102681200    YCYC    005600390040
BI00B1200    7360T52801     202209017126-8890-02             FUSE TERMINAL            CCN000006000000006000FN00000000020221001000006000NNM   20220727121045    4P0P  0000060000000046500000075021200    YCYC    006400630015
BI00B1200    7360T52802     202209087126-8890-02             FUSE TERMINAL            CCN000006000000006000FN00000000020221001000006000NNM   20220727121045    4P0P  0000060000000046500000075021200    YCYC    006400630015
BI00B1200    7360T52801     202209017126-8892-02             FUSE TERMINAL            CCN000012000000012000FN00000000020221001000012000NNM   20220727121045    4P0P  0000060000000049500000078021200    YCYC    006400630015
BI00B1200    7360T52802     202209087126-8892-02             FUSE TERMINAL            CCN000006000000006000FN00000000020221001000006000NNM   20220727121045    4P0P  0000060000000049500000078021200    YCYC    006400630015
BI00B1200    7360T52803     202209157126-8892-02             FUSE TERMINAL            CCN000006000000006000FN00000000020221001000006000NNM   20220727121045    4P0P  0000060000000049500000078021200    YCYC    006400630015
BI00B1200    7360T52801     202209017173-3291-40             LIF LEVER                CCN000002400000002400FN00000000020221001000002400NNM   20220727121045    1F0F  0000024000000086780000106781200    YCYC    005500360039
BI00B1200    7360T52802     202209087173-3291-40             LIF LEVER                CCN000002400000002400FN00000000020221001000002400NNM   20220727121045    1F0F  0000024000000086780000106781200    YCYC    005500360039
BI00B1200    7360T52801     202209017195-0783-08             TERMINAL                 CCN000030000000030000FN00000000020221001000030000NNM   20220727121045    4P0P  0000300000000050700000080121200    YCYC    006400630015
BI00B1200    7360T52801     202209017196-1102-02             TERMINAL                 CCN000022500000022500FN00000000020221001000022500NNM   20220727121045    4P0P  0000225000000040500000069021200    YCYC    006400630015
BI00B1200    7360T52802     202209087196-1102-02             TERMINAL                 CCN000022500000022500FN00000000020221001000022500NNM   20220727121045    4P0P  0000225000000040500000069021200    YCYC    006400630015
BI00B1200    7360T52803     202209157196-1102-02             TERMINAL                 CCN000022500000022500FN00000000020221001000022500NNM   20220727121045    4P0P  0000225000000040500000069021200    YCYC    006400630015
BI00B1200    7360T52801     202209017196-1103-02             TERMINAL                 CCN000405000000405000FN00000000020221001000405000NNM   20220727121045    4P0P  0000225000000042980000071501200    YCYC    006400630015
BI00B1200    7360T52802     202209087196-1103-02             TERMINAL                 CCN000382500000382500FN00000000020221001000382500NNM   20220727121045    4P0P  0000225000000042980000071501200    YCYC    006400630015
BI00B1200    7360T52803     202209157196-1103-02             TERMINAL                 CCN000382500000382500FN00000000020221001000382500NNM   20220727121045    4P0P  0000225000000042980000071501200    YCYC    006400630015
BI00B1200    7360T52801     202209017196-1104-02             TERMINAL                 CCN000112500000112500FN00000000020221001000112500NNM   20220727121045    4P0P  0000225000000044100000072621200    YCYC    006400630015
BI00B1200    7360T52802     202209087196-1104-02             TERMINAL                 CCN000112500000112500FN00000000020221001000112500NNM   20220727121045    4P0P  0000225000000044100000072621200    YCYC    006400630015
BI00B1200    7360T52803     202209157196-1104-02             TERMINAL                 CCN000090000000090000FN00000000020221001000090000NNM   20220727121045    4P0P  0000225000000044100000072621200    YCYC    006400630015
BI00B1200    7360T52801     202209017196-1482-02             TERMINAL FEMALE          CCN000024000000024000FN00000000020221001000024000NNM   20220727121045    4P0P  0000240000000042480000071001200    YCYC    006400630015
BI00B1200    7360T52801     202209017196-1943-02             TERMINAL FEMALE          CCN000012000000012000FN00000000020221001000012000NNM   20220727121045    4P0P  0000120000000049200000077721200    YCYC    006400630015
BI00B1200    7360T52802     202209087196-1943-02             TERMINAL FEMALE          CCN000012000000012000FN00000000020221001000012000NNM   20220727121045    4P0P  0000120000000049200000077721200    YCYC    006400630015
BI00B1200    7360T52801     202209017196-1944-02             TERMINAL FEMALE          CCN000012000000012000FN00000000020221001000012000NNM   20220727121045    4P0P  0000120000000050160000078681200    YCYC    006400630015
BI00B1200    7360T52801     202209017288-3329-30             HOUSING MALE             CCN000004500000004500FN00000000020221001000004500NNM   20220727121045    4N0N  0000015000000086610000101111200    YCYC    005400370024
BI00B1200    7360T52802     202209087288-3329-30             HOUSING MALE             CCN000004500000004500FN00000000020221001000004500NNM   20220727121045    4N0N  0000015000000086610000101111200    YCYC    005400370024
BI00B1200    7360T52803     202209157288-3329-30             HOUSING MALE             CCN000004500000004500FN00000000020221001000004500NNM   20220727121045    4N0N  0000015000000086610000101111200    YCYC    005400370024
BI00B1200    7360T52801     202209017288-3334-30             HOUSING MALE             CCN000007500000007500FN00000000020221001000007500NNM   20220727121045    4N0N  0000015000000086700000101201200    YCYC    005400370024
BI00B1200    7360T52802     202209087288-3334-30             HOUSING MALE             CCN000007500000007500FN00000000020221001000007500NNM   20220727121045    4N0N  0000015000000086700000101201200    YCYC    005400370024
BI00B1200    7360T52803     202209157288-3334-30             HOUSING MALE             CCN000007500000007500FN00000000020221001000007500NNM   20220727121045    4N0N  0000015000000086700000101201200    YCYC    005400370024
BI00B1200    7360T52801     202209017288-3335-30             HOUSING MALE             CCN000004500000004500FN00000000020221001000004500NNM   20220727121045    4N0N  0000015000000086700000101201200    YCYC    005400370024
BI00B1200    7360T52802     202209087288-3335-30             HOUSING MALE             CCN000004500000004500FN00000000020221001000004500NNM   20220727121045    4N0N  0000015000000086700000101201200    YCYC    005400370024
BI00B1200    7360T52803     202209157288-3335-30             HOUSING MALE             CCN000004500000004500FN00000000020221001000004500NNM   20220727121045    4N0N  0000015000000086700000101201200    YCYC    005400370024
BI00B1200    7360T52801     202209017288-3336-30             HOUSING MALE             CCN000001500000001500FN00000000020221001000001500NNM   20220727121045    4N0N  0000015000000086700000101201200    YCYC    005400370024
BI00B1200    7360T52801     202209017288-3337-30             HOUSING MALE             CCN000004500000004500FN00000000020221001000004500NNM   20220727121045    4N0N  0000015000000086700000101201200    YCYC    005400370024
BI00B1200    7360T52802     202209087288-3337-30             HOUSING MALE             CCN000004500000004500FN00000000020221001000004500NNM   20220727121045    4N0N  0000015000000086700000101201200    YCYC    005400370024
BI00B1200    7360T52803     202209157288-3337-30             HOUSING MALE             CCN000003000000003000FN00000000020221001000003000NNM   20220727121045    4N0N  0000015000000086700000101201200    YCYC    005400370024
BI00B1200    7360T52801     202209017288-3338-30             HOUSING MALE             CCN000001500000001500FN00000000020221001000001500NNM   20220727121045    4N0N  0000015000000086610000101201200    YCYC    005400370024
BI00B1200    7360T52802     202209087288-3338-30             HOUSING MALE             CCN000001500000001500FN00000000020221001000001500NNM   20220727121045    4N0N  0000015000000086610000101201200    YCYC    005400370024
BI00B1200    7360T52803     202209157288-3338-30             HOUSING MALE             CCN000001500000001500FN00000000020221001000001500NNM   20220727121045    4N0N  0000015000000086610000101201200    YCYC    005400370024
BI00B1200    7360T52801     202209017288-3340-30             HOUSING MALE             CCN000009000000009000FN00000000020221001000009000NNM   20220727121045    4N0N  0000015000000086150000100641200    YCYC    005400370024
BI00B1200    7360T52802     202209087288-3340-30             HOUSING MALE             CCN000007500000007500FN00000000020221001000007500NNM   20220727121045    4N0N  0000015000000086150000100641200    YCYC    005400370024
BI00B1200    7360T52803     202209157288-3340-30             HOUSING MALE             CCN000007500000007500FN00000000020221001000007500NNM   20220727121045    4N0N  0000015000000086150000100641200    YCYC    005400370024
BI00B1200    7360T52801     202209017288-6598-70             HOUSING MALE ASS'Y       CCN000002880000002880FN00000000020221001000002880NNM   20220727121045    4N0N  0000014400000107420000142921200    YCYC    005500360039
BI00B1200    7360T52802     202209087288-6598-70             HOUSING MALE ASS'Y       CCN000002880000002880FN00000000020221001000002880NNM   20220727121045    4N0N  0000014400000107420000142921200    YCYC    005500360039
BI00B1200    7360T52803     202209157288-6598-70             HOUSING MALE ASS'Y       CCN000001440000001440FN00000000020221001000001440NNM   20220727121045    4N0N  0000014400000107420000142921200    YCYC    005500360039
BI00B1200    7360T52801     202209017289-3342-30             HOUSING FEMALE ASS'Y     CCN000031200000031200FN00000000020221001000031200NNM   20220727121045    1N0N  0000024000000068640000090141200    YCYC    005500360039
BI00B1200    7360T52802     202209087289-3342-30             HOUSING FEMALE ASS'Y     CCN000028800000028800FN00000000020221001000028800NNM   20220727121045    1N0N  0000024000000068640000090141200    YCYC    005500360039
BI00B1200    7360T52803     202209157289-3342-30             HOUSING FEMALE ASS'Y     CCN000028800000028800FN00000000020221001000028800NNM   20220727121045    1N0N  0000024000000068640000090141200    YCYC    005500360039
BI00B1200    7360T52801     202209017289-6518-30             HOUSING FEMALE ASS'Y     CCN000001200000001200FN00000000020221001000001200NNM   20220727121045    1N0N  0000012000000082920000104921200    YCYC    005500360039
BI00B1200    7360T52802     202209087289-6518-30             HOUSING FEMALE ASS'Y     CCN000001200000001200FN00000000020221001000001200NNM   20220727121045    1N0N  0000012000000082920000104921200    YCYC    005500360039
BI00B1200    7360T52803     202209157289-6518-30             HOUSING FEMALE ASS'Y     CCN000001200000001200FN00000000020221001000001200NNM   20220727121045    1N0N  0000012000000082920000104921200    YCYC    005500360039
BI00B1200    7360T52801     202209017327-6809                MULTI FUSE               CCN000001120000001120FN00000000020221001000001120NNM   20220727121045    4N0N  0000005600000084930000106171200    YCYC    005400370024
BI00B1200    7360T52802     202209087327-6809                MULTI FUSE               CCN000000560000000560FN00000000020221001000000560NNM   20220727121045    4N0N  0000005600000084930000106171200    YCYC    005400370024
BI00B1200    7360T52803     202209157327-6809                MULTI FUSE               CCN000000560000000560FN00000000020221001000000560NNM   20220727121045    4N0N  0000005600000084930000106171200    YCYC    005400370024
BI00B1200    7360T52801     202209017388-2978-30             HOUSING MALE ASS'Y       CCN000003840000003840FN00000000020221001000003840NNM   20220727121045    1N0N  0000004800000074200000112201200    YCYC    005500360039
BI00B1200    7360T52802     202209087388-2978-30             HOUSING MALE ASS'Y       CCN000003840000003840FN00000000020221001000003840NNM   20220727121045    1N0N  0000004800000074200000112201200    YCYC    005500360039
BI00B1200    7360T52803     202209157388-2978-30             HOUSING MALE ASS'Y       CCN000003840000003840FN00000000020221001000003840NNM   20220727121045    1N0N  0000004800000074200000112201200    YCYC    005500360039
BI00B1200    #7360T52801    202209017172-5625-90             RUBBER STOPPER           CCN000040000000040000FN00000000020221001000040000NNM   20220727121045    2H0H  0000200000000008240000013381200    YCYC    004300270014
BI00B1200    #7360T52802    202209087172-5625-90             RUBBER STOPPER           CCN000040000000040000FN00000000020221001000040000NNM   20220727121045    2H0H  0000200000000008240000013381200    YCYC    004300270014
BI00B1200    #7360T52803    202209157172-5625-90             RUBBER STOPPER           CCN000040000000040000FN00000000020221001000040000NNM   20220727121045    2H0H  0000200000000008240000013381200    YCYC    004300270014
BI00B1200    #7360T52801    202209017172-5626-90             RUBBER STOPPER           CCN000040000000040000FN00000000020221001000040000NNM   20220727121045    2H0H  0000200000000007640000012781200    YCYC    004300270014
BI00B1200    #7360T52802    202209087172-5626-90             RUBBER STOPPER           CCN000020000000020000FN00000000020221001000020000NNM   20220727121045    2H0H  0000200000000007640000012781200    YCYC    004300270014
BI00B1200    #7360T52803    202209157172-5626-90             RUBBER STOPPER           CCN000020000000020000FN00000000020221001000020000NNM   20220727121045    2H0H  0000200000000007640000012781200    YCYC    004300270014
BI00B1200    #7360T52801    202209017172-5627-60             RUBBER STOPPER           CCN000040000000040000FN00000000020221001000040000NNM   20220727121045    2H0H  0000200000000007040000012181200    YCYC    004300270014
BI00B1200    #7360T52802    202209087172-5627-60             RUBBER STOPPER           CCN000020000000020000FN00000000020221001000020000NNM   20220727121045    2H0H  0000200000000007040000012181200    YCYC    004300270014
BI00B1200    #7360T52803    202209157172-5627-60             RUBBER STOPPER           CCN000020000000020000FN00000000020221001000020000NNM   20220727121045    2H0H  0000200000000007040000012181200    YCYC    004300270014
BI00B1200    #7360T52801    202209017172-5628-80             DUMMY PLUG               CCN000040000000040000FN00000000020221001000040000NNM   20220727121045    2H0H  0000200000000011060000016201200    YCYC    004300270014
BI00B1200    #7360T52802    202209087172-5628-80             DUMMY PLUG               CCN000040000000040000FN00000000020221001000040000NNM   20220727121045    2H0H  0000200000000011060000016201200    YCYC    004300270014
BI00B1200    #7360T52803    202209157172-5628-80             DUMMY PLUG               CCN000020000000020000FN00000000020221001000020000NNM   20220727121045    2H0H  0000200000000011060000016201200    YCYC    004300270014
BI00B1200    #7360T52801    202209017172-5629-80             RUBBER STOPPER           CCN000420000000420000FN00000000020221001000420000NNM   20220727121045    2H0H  0000200000000006000000011111200    YCYC    004300270014
BI00B1200    #7360T52802    202209087172-5629-80             RUBBER STOPPER           CCN000400000000400000FN00000000020221001000400000NNM   20220727121045    2H0H  0000200000000006000000011111200    YCYC    004300270014
BI00B1200    #7360T52803    202209157172-5629-80             RUBBER STOPPER           CCN000400000000400000FN00000000020221001000400000NNM   20220727121045    2H0H  0000200000000006000000011111200    YCYC    004300270014
BI00B1200    #7360T52801    202209017172-5630-40             RUBBER STOPPER           CCN000180000000180000FN00000000020221001000180000NNM   20220727121045    2H0H  0000200000000004400000009511200    YCYC    004300270014
BI00B1200    #7360T52802    202209087172-5630-40             RUBBER STOPPER           CCN000180000000180000FN00000000020221001000180000NNM   20220727121045    2H0H  0000200000000004400000009511200    YCYC    004300270014
BI00B1200    #7360T52803    202209157172-5630-40             RUBBER STOPPER           CCN000160000000160000FN00000000020221001000160000NNM   20220727121045    2H0H  0000200000000004400000009511200    YCYC    004300270014
BI00B1200    #7360T52801    202209017172-5631-60             RUBBER STOPPER           CCN000080000000080000FN00000000020221001000080000NNM   20220727121045    2H0H  0000200000000004200000009311200    YCYC    004300270014
BI00B1200    #7360T52802    202209087172-5631-60             RUBBER STOPPER           CCN000080000000080000FN00000000020221001000080000NNM   20220727121045    2H0H  0000200000000004200000009311200    YCYC    004300270014
BI00B1200    #7360T52803    202209157172-5631-60             RUBBER STOPPER           CCN000060000000060000FN00000000020221001000060000NNM   20220727121045    2H0H  0000200000000004200000009311200    YCYC    004300270014
BI00B1200    #7360T52801    202209017172-5632-10             DUMMY PLUG               CCN000300000000300000FN00000000020221001000300000NNM   20220727121045    2H0H  0000200000000008040000013181200    YCYC    004300270014
BI00B1200    #7360T52802    202209087172-5632-10             DUMMY PLUG               CCN000300000000300000FN00000000020221001000300000NNM   20220727121045    2H0H  0000200000000008040000013181200    YCYC    004300270014
BI00B1200    #7360T52803    202209157172-5632-10             DUMMY PLUG               CCN000280000000280000FN00000000020221001000280000NNM   20220727121045    2H0H  0000200000000008040000013181200    YCYC    004300270014
BI00B1200    #7360T52801    202209017187-3360                JOINT CONNECTOR          CCN000001200000001200FN00000000020221001000001200NNM   20220727121045    2F0F  0000012000000075960000102681200    YCYC    005600390040
BI00B1200    #7360T52801    202209017189-2978-30             HOUSING FEMALE           CCN000004500000004500FN00000000020221001000004500NNM   20220727121045    2F0F  0000015000000096690000109691200    YCYC    005400370024
BI00B1200    #7360T52802    202209087189-2978-30             HOUSING FEMALE           CCN000003000000003000FN00000000020221001000003000NNM   20220727121045    2F0F  0000015000000096690000109691200    YCYC    005400370024
BI00B1200    #7360T52803    202209157189-2978-30             HOUSING FEMALE           CCN000003000000003000FN00000000020221001000003000NNM   20220727121045    2F0F  0000015000000096690000109691200    YCYC    005400370024
BI00B1200    #7360T52801    202209017189-3032-30             HOUSING FEMALE           CCN000001600000001600FN00000000020221001000001600NNM   20220727121045    2F0F  0000016000000080160000102161200    YCYC    005500360039
BI00B1200    #7360T52801    202209017189-3033                HOUSING FEMALE           CCN000003200000003200FN00000000020221001000003200NNM   20220727121045    2F0F  0000016000000121120000143121200    YCYC    005500360039
BI00B1200    #7360T52802    202209087189-3033                HOUSING FEMALE           CCN000001600000001600FN00000000020221001000001600NNM   20220727121045    2F0F  0000016000000121120000143121200    YCYC    005500360039
BI00B1200    #7360T52803    202209157189-3033                HOUSING FEMALE           CCN000001600000001600FN00000000020221001000001600NNM   20220727121045    2F0F  0000016000000121120000143121200    YCYC    005500360039
BI00B1200    #7360T52801    202209017189-3036                HOUSING FEMALE           CCN000003200000003200FN00000000020221001000003200NNM   20220727121045    2F0F  0000016000000092160000114161200    YCYC    005500360039
BI00B1200    #7360T52802    202209087189-3036                HOUSING FEMALE           CCN000001600000001600FN00000000020221001000001600NNM   20220727121045    2F0F  0000016000000092160000114161200    YCYC    005500360039
BI00B1200    #7360T52803    202209157189-3036                HOUSING FEMALE           CCN000001600000001600FN00000000020221001000001600NNM   20220727121045    2F0F  0000016000000092160000114161200    YCYC    005500360039
BI00B1200    #7360T52801    202209017289-2913-30             HOUSING FEMALE ASS'Y     CCN000001500000001500FN00000000020221001000001500NNM   20220727121045    2N0N  0000015000000090750000103451200    YCYC    005400370024
BI00B1200    #7360T52802    202209087289-2913-30             HOUSING FEMALE ASS'Y     CCN000001500000001500FN00000000020221001000001500NNM   20220727121045    2N0N  0000015000000090750000103451200    YCYC    005400370024
BI00B1200    #7360T52801    202209017289-2914-40             HOUSING FEMALE ASS'Y     CCN000001500000001500FN00000000020221001000001500NNM   20220727121045    2N0N  0000015000000090450000103151200    YCYC    005400370024
BI00B1200    #7360T52802    202209087289-2914-40             HOUSING FEMALE ASS'Y     CCN000001500000001500FN00000000020221001000001500NNM   20220727121045    2N0N  0000015000000090450000103151200    YCYC    005400370024
BI00B1200    #7360T52801    202209017289-2915-30             HOUSING FEMALE ASS'Y     CCN000001500000001500FN00000000020221001000001500NNM   20220727121045    2N0N  0000015000000096450000109151200    YCYC    005400370024
BI00B1200    #7360T52802    202209087289-2915-30             HOUSING FEMALE ASS'Y     CCN000001500000001500FN00000000020221001000001500NNM   20220727121045    2N0N  0000015000000096450000109151200    YCYC    005400370024
BI00B1200    #7360T52801    202209017289-2916-30             HOUSING FEMALE ASS'Y     CCN000001000000001000FN00000000020221001000001000NNM   20220727121045    2N0N  0000010000000085700000108401200    YCYC    005400370024
BI00B1200    #7360T52801    202209017289-2917-30             HOUSING FEMALE ASS'Y     CCN000001000000001000FN00000000020221001000001000NNM   20220727121045    2N0N  0000010000000096400000109101200    YCYC    005400370024
BI00B1200    #7360T52802    202209087289-2917-30             HOUSING FEMALE ASS'Y     CCN000001000000001000FN00000000020221001000001000NNM   20220727121045    2N0N  0000010000000096400000109101200    YCYC    005400370024
BI00B1200    #7360T52801    202209017289-3622-30             HOUSING FEMALE ASS'Y     CCN000001296000001296FN00000000020221001000001296NNM   20220727121045    2N0N  0000004320000083940000103841200    YCYC    005400370024
BI00B1200    #7360T52802    202209087289-3622-30             HOUSING FEMALE ASS'Y     CCN000001296000001296FN00000000020221001000001296NNM   20220727121045    2N0N  0000004320000083940000103841200    YCYC    005400370024
BI00B1200    #7360T52803    202209157289-3622-30             HOUSING FEMALE ASS'Y     CCN000001296000001296FN00000000020221001000001296NNM   20220727121045    2N0N  0000004320000083940000103841200    YCYC    005400370024
BI00B1200    7860T52801     202209017158-3022-80             RUBBER STOPPER           CCN000010000000010000FN00000000020221001000010000NNM   20220727121045    1C0C  0000050000000046750000052401200    YCYC    002700430014
BI00B1200    7860T52801     202209017288-3338-30             HOUSING MALE             CCN000001500000001500FN00000000020221001000001500NNM   20220727121045    4N0N  0000015000000086610000101201200    YCYC    005400370024
BI00B1200    7860T52802     202209087288-3332-30             HOUSING MALE             CCN000001500000001500FN00000000020221001000001500NNM   20220727121045    4N0N  0000015000000086070000100571200    YCYC    005400370024
BI00B1200    7860T52803     202209157289-3342-30             HOUSING FEMALE ASS'Y     CCN000002400000002400FN00000000020221001000002400NNM   20220727121045    1N0N  0000024000000068640000090141200    YCYC    005500360039
BI00B1200    7860T52804     202209227289-3342                HOUSING FEMALE ASS'Y     CCN000002400000002400FN00000000020221001000002400NNM   20220727121045    1N0N  0000024000000068640000090141200    YCYC    005500360039
BI00B1200    #7860T52801    202209017172-5632-10             DUMMY PLUG               CCN000020000000020000FN00000000020221001000020000NNM   20220727121045    2H0H  0000200000000008040000013181200    YCYC    004300270014
BI00B1200    #7860T52802    202209087172-5632-10             DUMMY PLUG               CCN000020000000020000FN00000000020221001000020000NNM   20220727121045    2H0H  0000200000000008040000013181200    YCYC    004300270014
BI00B1200    #7860T52803    202209157172-5632-10             DUMMY PLUG               CCN000020000000020000FN00000000020221001000020000NNM   20220727121045    2H0H  0000200000000008040000013181200    YCYC    004300270014
BI00B1200    #7860T52804    202209227172-5632-10             DUMMY PLUG               CCN000040000000040000FN00000000020221001000040000NNM   20220727121045    2H0H  0000200000000008040000013181200    YCYC    004300270014
BI00B1200    #7860T52801    202209017189-3031                HOUSING FEMALE           CCN000002400000002400FN00000000020221001000002400NNM   20220727121045    2F0F  0000024000000092880000136581200    YCYC    005500360039
BI00B1200    #7860T52802    202209087189-3031                HOUSING FEMALE           CCN000002400000002400FN00000000020221001000002400NNM   20220727121045    2F0F  0000024000000092880000136581200    YCYC    005500360039
BI00B1200    #7860T52803    202209157189-3031                HOUSING FEMALE           CCN000002400000002400FN00000000020221001000002400NNM   20220727121045    2F0F  0000024000000092880000136581200    YCYC    005500360039
BI00B1200    8100T52802     202209017196-1103-02             TERMINAL                 CCN000045000000045000FN00000000020221001000045000NNM   20220727121045    4P0P  0000225000000042980000071501200    YCYC    006400630015
BI00B1200    8100T52803     202209087196-1103-02             TERMINAL                 CCN000022500000022500FN00000000020221001000022500NNM   20220727121045    4P0P  0000225000000042980000071501200    YCYC    006400630015
BI00B1200    #8100T52802    202209017172-5629-80             RUBBER STOPPER           CCN000040000000040000FN00000000020221001000040000NNM   20220727121045    2H0H  0000200000000006000000011111200    YCYC    004300270014
BI00B1200    #8100T52803    202209087172-5629-80             RUBBER STOPPER           CCN000020000000020000FN00000000020221001000020000NNM   20220727121045    2H0H  0000200000000006000000011111200    YCYC    004300270014
BI00B1200    #8100T52802    202209017172-5632-10             DUMMY PLUG               CCN000040000000040000FN00000000020221001000040000NNM   20220727121045    2H0H  0000200000000008040000013181200    YCYC    004300270014
BI00B1200    #8100T52803    202209087172-5632-10             DUMMY PLUG               CCN000020000000020000FN00000000020221001000020000NNM   20220727121045    2H0H  0000200000000008040000013181200    YCYC    004300270014
BI00B1200    #8100T52804    202209087174-1760-50             CAP                      CCN000003000000003000FN00000000020221001000003000NNM   20220727121045    2F0F  0000030000000081360000092261200    YCYC    005400370024
BI00B1200    #8100T52805    202209157174-1760-50             CAP                      CCN000003000000003000FN00000000020221001000003000NNM   20220727121045    2F0F  0000030000000081360000092261200    YCYC    005400370024
BI00B1200    8100T52806     202209157289-6868-30             SEALED ASSY FEMALE       CCN000002520000002520FN00000000020221001000002520NNM   20220727121045    4N0N  0000025200000083920000111921200    YCYC    005500360039
BI00B1200    8100T52806     202209157298-3822-70             HOUSING FEMALE ASS'Y     CCN000002520000002520FN00000000020221001000002520NNM   20220727121045    4N0N  0000025200000077620000107701200    YCYC    005500360039
BI00B1200    8100T52806     202209157298-4094-10             HOUSING FEMALE ASS'Y     CCN000003380000003380FN00000000020221001000003380NNM   20220727121045    4N0N  0000033800000109740000135871200    YCYC    005400370024
BI00B1200    8100T52806     202209157327-6832-60             MAIN FUSE                CCN000000600000000600FN00000000020221001000000600NNM   20220727121045    4N0N  0000006000000072920000093071200    YCYC    005400370024
BI00B1200    8100T52806     202209157327-6870-30             MULTI FUSE               CCN000000288000000288FN00000000020221001000000288NNM   20220727121045    4N0N  0000002880000101520000118111200    YCYC    005400370024
BI00B1200    8100T52807     202209227327-6870-30             MULTI FUSE               CCN000000288000000288FN00000000020221001000000288NNM   20220727121045    4N0N  0000002880000101520000118111200    YCYC    005400370024
BI00B1200    8100T52806     202209157327-6874-30             MULTI FUSE               CCN000000576000000576FN00000000020221001000000576NNM   20220727121045    4N0N  0000002880000099140000115731200    YCYC    005400370024
BI00B1200    8100T52807     202209227327-6874-30             MULTI FUSE               CCN000000288000000288FN00000000020221001000000288NNM   20220727121045    4N0N  0000002880000099140000115731200    YCYC    005400370024
BI00B1200    8100T52806     202209157327-6880-30             MULTI FUSE               CCN000000288000000288FN00000000020221001000000288NNM   20220727121045    4N0N  0000002880000101260000117851200    YCYC    005400370024
BI00B1200    8100T52806     202209157327-6937-30             MULTI FUSE               CCN000000288000000288FN00000000020221001000000288NNM   20220727121045    4N0N  0000002880000101360000117951200    YCYC    005400370024
BI00B1200    8100T52807     202209227327-6937-30             MULTI FUSE               CCN000000288000000288FN00000000020221001000000288NNM   20220727121045    4N0N  0000002880000101360000117951200    YCYC    005400370024
BI00B1200    8100T52806     202209157327-6939-30             MULTI FUSE               CCN000000288000000288FN00000000020221001000000288NNM   20220727121045    4N00  0000002880000099220000115811200    YCYC    005400370024
BI00B1200    8100T52807     202209227327-6939-30             MULTI FUSE               CCN000000288000000288FN00000000020221001000000288NNM   20220727121045    4N00  0000002880000099220000115811200    YCYC    005400370024
BI00B1200    8100T52806     202209157327-6941-30             MULTI FUSE               CCN000000288000000288FN00000000020221001000000288NNM   20220727121045    4N00  0000002880000101440000118031200    YCYC    005400370024
BI00B1200    8100T52807     202209227327-6941-30             MULTI FUSE               CCN000000288000000288FN00000000020221001000000288NNM   20220727121045    4N00  0000002880000101440000118031200    YCYC    005400370024
BI00B1200    #8100T52806    202209157198-1371-60             HOUSING FEMALE           CCN000002000000002000FN00000000020221001000002000NNM   20220727121045    2F0F  0000020000000059780000072121200    YCYC    005400370024
BI00B1200    #8100T52806    202209157198-1372                HOUSING FEMALE           CCN000002000000002000FN00000000020221001000002000NNM   20220727121045    2F0F  0000020000000085720000098221200    YCYC    005400370024
BI00B1200    #8100T52806    202209157198-1373-60             HOUSING FEMALE           CCN000002000000002000FN00000000020221001000002000NNM   20220727121045    2F0F  0000020000000081940000094741200    YCYC    005400370024
BI00B1200    #8100T52806    202209157198-2458                HOUSING FEMALE           CCN000001760000001760FN00000000020221001000001760NNM   20220727121045    2F0F  0000017600000086910000116051200    YCYC    005400370024
BI00B1200    #8100T52806    202209157298-2457-90             LIF FEMALE ASSEMBLY      CCN000000504000000504FN00000000020221001000000504NNM   20220727121045    2N0N  0000001680000053330000072891200    YCYC    005400370024
BI00B1200    #8100T52807    202209227298-2457-90             LIF FEMALE ASSEMBLY      CCN000000336000000336FN00000000020221001000000336NNM   20220727121045    2N0N  0000001680000053330000072891200    YCYC    005400370024
BI00B1200    #8100T52806    202209157298-2459-60             LIF FEMALE ASSEMBLY      CCN000000336000000336FN00000000020221001000000336NNM   20220727121045    2N0N  0000001680000053400000072961200    YCYC    005400370024
BI00B1200    8100T52808     202209157158-3022-80             RUBBER STOPPER           CCN000010000000010000FN00000000020221001000010000NNM   20220727121045    1C0C  0000050000000046750000052401200    YCYC    002700430014
BI00B1200    8100T52808     202209157172-5540-80             SEALED WIRE SEAL         CCN000020000000020000FN00000000020221001000020000NNM   20220727121045    1C0C  0000200000000018600000023441200    YCYC    004300270014
BI00B1200    8100T52808     202209157196-0805-02             TERMINAL FEMALE          CCN000022500000022500FN00000000020221001000022500NNM   20220727121045    4P0P  0000225000000055800000084321200    YCYC    006400630015
BI00B1200    8670T52801     202210067137-3047-30             UNIT PACKING             CCN000006000000006000FN00000000020221101000006000NNM   20220727121045    1C0C  0000010000000017050000021891200    YCYC    002700430014
BI00B1200    8670T52802     202210067137-3047-30             UNIT PACKING             CCN000006000000006000FN00000000020221101000006000NNM   20220727121045    1C0C  0000010000000017050000021891200    YCYC    002700430014
BI00B1200    8670T52803     202210207137-3047-30             UNIT PACKING             CCN000006000000006000FN00000000020221101000006000NNM   20220727121045    1C0C  0000010000000017050000021891200    YCYC    002700430014
BI00B1200    8670T52801     202210067172-5402-30             SEAL RUBBER              CCN000008000000008000FN00000000020221101000008000NNM   20220727121045    1C0C  0000080000000045760000050601200    YCYC    004300270014
BI00B1200    8670T52802     202210067172-5402-30             SEAL RUBBER              CCN000016000000016000FN00000000020221101000016000NNM   20220727121045    1C0C  0000080000000045760000050601200    YCYC    004300270014
BI00B1200    8670T52803     202210207172-5402-30             SEAL RUBBER              CCN000016000000016000FN00000000020221101000016000NNM   20220727121045    1C0C  0000080000000045760000050601200    YCYC    004300270014
BI00B1200    8670T52801     202210067172-5403-30             SEALED PACKING           CCN000016000000016000FN00000000020221101000016000NNM   20220727121045    1C0C  0000040000000065360000070171200    YCYC    004300270014
BI00B1200    8670T52802     202210067172-5403-30             SEALED PACKING           CCN000012000000012000FN00000000020221101000012000NNM   20220727121045    1C0C  0000040000000065360000070171200    YCYC    004300270014
BI00B1200    8670T52803     202210207172-5403-30             SEALED PACKING           CCN000012000000012000FN00000000020221101000012000NNM   20220727121045    1C0C  0000040000000065360000070171200    YCYC    004300270014
BI00B1200    8670T52802     202210067196-1103-02             TERMINAL                 CCN000022500000022500FN00000000020221101000022500NNM   20220727121045    4P0P  0000225000000042980000071501200    YCYC    006400630015
BI00B1200    8670T52803     202210207196-1103-02             TERMINAL                 CCN000022500000022500FN00000000020221101000022500NNM   20220727121045    4P0P  0000225000000042980000071501200    YCYC    006400630015
BI00B1200    8670T52802     202210067196-1104-02             TERMINAL                 CCN000022500000022500FN00000000020221101000022500NNM   20220727121045    4P0P  0000225000000044100000072621200    YCYC    006400630015
BI00B1200    #8670T52801    202210067172-5629-80             RUBBER STOPPER           CCN000020000000020000FN00000000020221101000020000NNM   20220727121045    2H0H  0000200000000006000000011111200    YCYC    004300270014
BI00B1200    #8670T52802    202210067172-5629-80             RUBBER STOPPER           CCN000020000000020000FN00000000020221101000020000NNM   20220727121045    2H0H  0000200000000006000000011111200    YCYC    004300270014
BI00B1200    #8670T52802    202210067172-5630-40             RUBBER STOPPER           CCN000020000000020000FN00000000020221101000020000NNM   20220727121045    2H0H  0000200000000004400000009511200    YCYC    004300270014
BI00B1200    #8670T52802    202210067289-2919-30             HOUSING FEMALE ASS'Y     CCN000001500000001500FN00000000020221101000001500NNM   20220727121045    2N0N  0000015000000090750000103451200    YCYC    005400370024
BI00B1200    H322K50018     202210067116-4112-02             TERMINAL                 CCN000006000000006000FN00000000020221101000006000NNE   20220727121045    4P0P  0000060000000045000000073821200    YCYC    006400630015
BI00B1200    #KBVH2631      202208187289-2913-30             HOUSING FEMALE ASS'Y     CCN000001500000001500FN00000000020220901000001500NNE   20220727121045    2N0N  0000015000000090750000103451200    YCYC    005400370024
BI00B32AG    XG22092NMW     202208117126-8854-02             TERMINAL                 CCN000007500000000000FY00000000020220901000000000NNMQ0820220727164902    4P0P  00000750000000604500000889732AG    XGXGY   006400630015
BI00T32DE    @ICT208A       202208087183-3190                JOINT CONNECTOR          CCN000014400000014400FN00000000020220801000014400NNED0020220727121045    3F0F  00000360000000457600000667832DE    TVYEV-TV005500360039
BI00B32DE    TCT208F        202208047388-2978-30             HOUSING MALE ASS'Y       CCN000000480000000480FN00000000020220801000000480NNE   20220727121045    1N0N  00000048000000742000001122032DE    TVYEV-TV005500360039
BI00B32DE    #TCT208F       202208047189-3038                HOUSING FEMALE           CCN000001600000001600FN00000000020220801000001600NNE   20220727121045    2F0F  00000160000000817600000850132DE    TVYEV-TV005500360039
BI00B32DE    #TCT208F       202208047198-4979-30             HOUSING FEMALE           CCN000004000000004000FN00000000020220801000004000NNE   20220727121045    2F0F  00000400000000707200000876032DE    TVYEV-TV005400370024
BI00B32DE    #TCT208F       202208047282-7064-30             HOUSING MALE ASS'Y       CCN000000600000000600FN00000000020220801000000600NNE   20220727121045    2N00  00000060000000597000000764032DE    TVYEV-TV005400370024
BI00B32DE    #TCT208F       202208047289-2918-30             HOUSING FEMALE ASS'Y     CCN000001000000001000FN00000000020220801000001000NNE   20220727121045    2N0N  00000100000001018000001145032DE    TVYEV-TV005400370024
BI00B32DE    #TCT208F       202208047289-2919-30             HOUSING FEMALE ASS'Y     CCN000001500000001500FN00000000020220801000001500NNE   20220727121045    2N0N  00000150000000907500001034532DE    TVYEV-TV005400370024
BI00T32DE    @TCT208F       202208087187-1769                HOUSING FEMALE           CCN000002000000002000FN00000000020220801000002000NNED0020220727121045    3F0F  00000200000001035800001182032DE    TVYEV-TV005500360039
BI00B32DG    #RL2093A       202208187183-2418                CONNECTOR HOUSING        CCN000004800000004800FN00000000020220901000004800NNE   20220727162813    2F0F  00000480000000917000001477032DG    BFSAIBF 005500360039
BI00B32DG    RP2093B        202208187116-2640                TERMINAL                 CCN000018000000018000FN00000000020220901000018000NNE   20220727162836    4P0P  00001800000001018800001196632DG    BFSAIBF 005100280028
BI00B32DG    RP2093B        202208187116-4115-02             TERMINAL                 CCN000008400000008400FN00000000020220901000008400NNE   20220727162836    4P0P  00000840000000593000000881232DG    BFSAIBF 006400630015
BI00B32DG    RP2093B        202208187126-8853-02             TERMINAL                 CCN000007500000007500FN00000000020220901000007500NNE   20220727162836    4P0P  00000750000000562500000847732DG    BFSAIBF 006400630015
BI00B32DG    RP2093B        202208187126-8854-02             TERMINAL                 CCN000007500000007500FN00000000020220901000007500NNE   20220727162836    4P0P  00000750000000604500000889732DG    BFSAIBF 006400630015
BI00B32DG    RP2093B        202208187126-8855-02             TERMINAL                 CCN000012000000012000FN00000000020220901000012000NNE   20220727162836    4P0P  00000600000000510600000795832DG    BFSAIBF 006400630015
BI00B32DG    @RP2093B       202208187183-8049-30             CONNECTOR HOUSING        CCN000004000000004000FN00000000020220901000004000NNE   20220727162830    3F0F  00000400000000588800000714432DG    BFSAIBF 005400370024
BI00A32DJ    #GHT2209B 1    202208017183-2414-30             CONNECTOR HOUSING        CCN000004800000004800FN00000000020220901000004800NNM00020220727163043    2F0F  00000480000000779500001061532DJ    RBYIPLRB005500360039
BI00A32DJ    GHT2209E       202208017116-4032                TERMINAL                 CCN000120000000120000FN00000000020220901000120000NNE00020220727155128    4P0P  00000600000000532800000818032DJ    RBYIPLRB006400630015
BI00A32DJ    GHT2209E       202208017287-9234                JOINT CONNECTOR          CCN000076800000076800FN00000000020220901000076800NNE00020220727155128    4N0N  00000960000000893800001184832DJ    RBYIPLRB005500360039
BI00A32DJ    GHT2209E       202208017116-4231-02             TERMINAL                 CCN000026000000026000FN00000000020220901000026000NNE00020220727155128    4P0P  00002600000000683800001012532DJ    RBYIPLRB006400630017
BI00A32DJ    #GHT2209E      202208017183-1616-30             CONNECTOR HOUSING        CCN000009600000009600FN00000000020220901000009600NNE00020220727155140    2F0F  00000240000000557500000837132DJ    RBYIPLRB005500360039
BI00B32D2    DGTC2241C      202209087327-6801-3W             BATTERY FUSE             CCN000000384000000384FN00000000020221001000000384NNED0420220727121045    4N0N  00000009600000928400001143432D2    TGYOT-G 005500360039
BI00B32D2    DGTC2241C      202209087327-6806                MULTI FUSE               CCN000000560000000560FN00000000020221001000000560NNED0420220727121045    4N0N  00000056000000851500001063932D2    TGYOT-G 005400370024
BI00B32D2    DGTC2241C      202209087327-6930                MULTI FUSE               CCN000001120000001120FN00000000020221001000001120NNED0420220727121045    4N0N  00000056000000848900001031932D2    TGYOT-G 005400370024
BI00B32EJ    T220726P01     202209157114-4100-02             TERMINAL                 CCN000126000000126000FN00000000020220901000126000NNE   20220727121045EJ  4P0P  00001800000000748800001077432EJ    EJYKBO  006400630017
BI00B32EJ    T220726P01     202209157116-4122-02             TERMINAL                 CCN000067500000067500FN00000000020220901000067500NNE   20220727121045EJ  4P0P  00000450000000656600000950232EJ    EJYKBO  006400630015
BI00B32EJ    T220726P02     202209017116-4104-02             TERMINAL                 CCN000012000000012000FN00000000020220901000012000NNE   20220727121045EJ  4P0P  00001200000000580800000972432EJ    EJYKBO  006400630015
BI00B32EJ    T220726P02     202209017116-4102-02             TERMINAL                 CCN000024000000024000FN00000000020220901000024000NNE   20220727121045EJ  4P0P  00001200000000553200000841432EJ    EJYKBO  006400630015
BI00B32EJ    T220726P02     202209017283-7449-40             HOUSING FEMALE ASS'Y     CCN000002400000002400FN00000000020220901000002400NNE   20220727121045EJ  4N0N  00000240000001200000001410032EJ    EJYKBO  005500360039
BI00B32EJ    T220726P02     202209017116-4124-02             TERMINAL                 CCN000006000000006000FN00000000020220901000006000NNE   20220727121045EJ  4P0P  00000300000000459900000753532EJ    EJYKBO  006400630015
BI00B32EJ    T220726P02     202209017114-4110-02             TERMINAL                 CCN000015000000015000FN00000000020220901000015000NNE   20220727121045EJ  4P0P  00001500000000901500001230132EJ    EJYKBO  006400630017
BI00B32EJ    T220726P02     202209017114-4112-02             TERMINAL                 CCN000027000000027000FN00000000020220901000027000NNE   20220727121045EJ  4P0P  00000900000000598500000927132EJ    EJYKBO  006400630017
BI00B32EJ    T220726P02     202209017114-4100-02             TERMINAL                 CCN000018000000018000FN00000000020220901000018000NNE   20220727121045EJ  4P0P  00001800000000748800001077432EJ    EJYKBO  006400630017
BI00B32EJ    T220726P02     202209017116-4100-02             TERMINAL                 CCN000015000000015000FN00000000020220901000015000NNE   20220727121045EJ  4P0P  00001500000000696000000990232EJ    EJYKBO  006400630015
BI00B32EJ    T220726P02     202209017116-4101-02             TERMINAL                 CCN000012000000012000FN00000000020220901000012000NNE   20220727121045EJ  4P0P  00001200000000582000000876232EJ    EJYKBO  006400630015
BI00B32EJ    T220726P02     202209017116-4120-02             TERMINAL                 CCN000006000000006000FN00000000020220901000006000NNE   20220727121045EJ  4P0P  00000600000000780000001073632EJ    EJYKBO  006400630015
BI00B32EJ    T220726P02     202209017116-4122-02             TERMINAL                 CCN000022500000022500FN00000000020220901000022500NNE   20220727121045EJ  4P0P  00000450000000656600000950232EJ    EJYKBO  006400630015
BI00B32EJ    T220726P02     202209017116-4121-02             TERMINAL                 CCN000036000000036000FN00000000020220901000036000NNE   20220727121045EJ  4P0P  00000450000000618800000912432EJ    EJYKBO  006400630015
BI00B32EJ    T220726P02     202209017116-4112-02             TERMINAL                 CCN000036000000036000FN00000000020220901000036000NNE   20220727121045EJ  4P0P  00000600000000450000000738232EJ    EJYKBO  006400630015
BI00B32EJ    T220726P02     202209017116-4110-02             TERMINAL                 CCN000009000000009000FN00000000020220901000009000NNE   20220727121045EJ  4P0P  00000900000000594000000882232EJ    EJYKBO  006400630015
BI00B32EJ    T220726P02     202209017116-4111-02             TERMINAL                 CCN000015000000015000FN00000000020220901000015000NNE   20220727121045EJ  4P0P  00000750000000529500000817732EJ    EJYKBO  006400630015
BI00B32EJ    T220726P02     202209017126-8854-02             TERMINAL                 CCN000007500000007500FN00000000020220901000007500NNE   20220727121045EJ  4P0P  00000750000000604500000889732EJ    EJYKBO  006400630015
BI00B32EJ    T220726P02     202209017116-4022                TERMINAL                 CCN000013500000013500FN00000000020220901000013500NNE   20220727121045EJ  4P0P  00001350000000618300000903532EJ    EJYKBO  006400630015
BI00B32EJ    T220726P02     202209017158-3166-60             WIRE SEAL                CCN000760000000760000FN00000000020220901000760000NNE   20220727121045EJ  1C0C  00004000000000104000000152432EJ    EJYKBO  002700430014
BI00B32EJ    T220726P02     202209017158-3167-80             WIRE SEAL                CCN000260000000260000FN00000000020220901000260000NNE   20220727121045EJ  1C0C  00002000000000048000000109032EJ    EJYKBO  002700430014
BI00B32EJ    T220726P02     202209017158-3169-40             SEALING PLUG             CCN000200000000200000FN00000000020220901000200000NNE   20220727121045EJ  1C0C  00004000000000156000000204132EJ    EJYKBO  004300260014
BI00B32EJ    T220726P02     202209017B58-3070-80             RUBBER STOPPER           CCN000040000000040000FN00000000020220901000040000NNE   20220727121045EJ  1C0C  00004000000000276000000333032EJ    EJYKBO  004300270014
BI00B32EJ    T220726P02     202209017158-3168-52             SEALED                   CCN000020000000020000FN00000000020220901000020000NNE   20220727121045EJ  1C0C  00002000000000042000000090432EJ    EJYKBO  004300270014
BI00B32EJ    #T220726P02    202209017158-3120-90             CONNECTOR WIRE SEAL      CCN000040000000040000FN00000000020220901000040000NNE   20220727121045EJ  2C0C  00002000000000136000000194032EJ    EJYKBO  002700430014
BI00B32EJ    #T220726P02    202209017123-6423-30             CONNECTOR                CCN000002000000002000FN00000000020220901000002000NNE   20220727121045EJ  2F0F  00000200000001002000001167632EJ    EJYKBO  005600390023
BI00B32EJ    #T220726P02    202209017282-6458-40             CONNECTOR                CCN000001000000001000FN00000000020220901000001000NNE   20220727121045EJ  2N0N  00000100000001206000001350532EJ    EJYKBO  005500360039
BI00B32EJ    #T220726P02    202209017157-3950-80             SEAL RUBBER              CCN000040000000040000FN00000000020220901000040000NNE   20220727121045EJ  2C0C  00004000000000154000000440332EJ    EJYKBO  002700430014
BI00B32EJ    #T220726P02    202209017158-3003-90             RUBBER STOPPER           CCN000020000000020000FN00000000020220901000020000NNE   20220727121045EJ  2C0C  00002000000000250000000306032EJ    EJYKBO  002700430014
BI00B32EJ    @T220726P02    202209017123-4312-80             HOUSING                  CCN000003200000003200FN00000000020220901000003200NNE   20220727121045EJ  3F0F  00000080000000644200000794032EJ    EJYKBO  005500360039
BI00B32E1    NC2102         202207297116-4121-02             TERMINAL                 CCN000022500000022500FN00000000020220901000022500NNM00020220727151507    4P0P  00000450000000618800000912432E1    SPYSE   006400630015
BI00B32E1    NC2102         202207297116-4122-02             TERMINAL                 CCN000013500000013500FN00000000020220901000013500NNM00020220727151507    4P0P  00000450000000656600000950232E1    SPYSE   006400630015
BI00B32H2    TIJ2092        202208057470-5654                J/B COMPLETE ASS'Y       CCN000000150000000150FN00000000020220901000000150NNMD0020220727135320    4J0J  00000001000000494000000661032H2    HVYHV   005400370024
BI00B32M4    #TL2093A       202208187158-7585-30             BLOCK LIF                CCN000000800000000800FN00000000020220901000000800NNE   20220727162841    2F0F  00000080000000617400000771532M4    SISAI   005500360039
BI00B32M4    #TL2093A       202208187158-7586-30             BLOCK LIF                CCN000001600000001600FN00000000020220901000001600NNE   20220727162841    2F0F  00000080000000617400000844232M4    SISAI   005500360039
BI00B32M4    TP2093E        202208187283-1288                CONNECTOR HOUSING        CCN000001200000001200FN00000000020220901000001200NNE   20220727162901    1N0N  00000120000001381000001637032M4    SISAI   005600390040
BI00B32M4    TP2093E        202208187283-6039                CONNECTOR                CCN000003200000003200FN00000000020220901000003200NNE   20220727162901    1N0N  00000160000000624000000881532M4    SISAI   005500360039
BI00B32M4    TP2093E        202208187283-6120                CONNECTOR HOUSING        CCN000001500000001500FN00000000020220901000001500NNE   20220727162901    1N0N  00000150000000914000001143032M4    SISAI   005600390040
BI00B32M4    TP2093E        202208187283-7476                CONNECTOR                CCN000003000000003000FN00000000020220901000003000NNE   20220727162901    1N0N  00000150000000915000001132032M4    SISAI   005600390040
BI00B32M4    TP2093E        202208187283-8692                CONNECTOR HOUSING        CCN000001500000001500FN00000000020220901000001500NNE   20220727162901    1N0N  00000150000000795000001012032M4    SISAI   005600390040
BI00B32M8    PM2208C MW     202208107114-6041                TERMINAL                 CCN000003600000003600FN00000000020220801000003600NNED0720220727121045    4P0P  00000360000000580700000824232M8    PMPEMI  006400630015
BI00B32M8    PM2208C MW     202208107158-3165-90             WIRE SEAL                CCN000004000000040000FN00000000020220801000040000NNED0720220727121045    1C0C  00004000000000124000000172432M8    PMPEMI  004300270014
BI00B32M8    PM2208C MW     202208107283-1288                CONNECTOR HOUSING        CCN000003600000003600FN00000000020220801000003600NNED0720220727121045    1N0N  00000120000001381000001637032M8    PMPEMI  005600390040
BI00B32M8    PM2208C MW     202208107287-7599-10             HOUSING FEMALE ASS'Y     CCN000003200000003200FN00000000020220801000003200NNED0720220727121045    4N0N  00000160000001233600001445632M8    PMPEMI  005500360039
BI00B32M8    #PM2208C MW    202208107283-8730-30             HOUSING FEMALE ASS'Y     CCN000002000000002000FN00000000020220801000002000NNED0720220727121045    2N0N  00000200000000794000000906532M8    PMPEMI  005400370024
BI00B32M8    #PM2208C MW    202208107289-2912-30             HOUSING FEMALE ASS'Y     CCN000002000000002000FN00000000020220801000002000NNED0720220727121045    2N0N  00000200000000804000000929032M8    PMPEMI  005400370024
BI00B32M8    #PM2208C MW    202208107289-2913-30             HOUSING FEMALE ASS'Y     CCN000004500000004500FN00000000020220801000004500NNED0720220727121045    2N0N  00000150000000907500001034532M8    PMPEMI  005400370024
BI00B32M8    @PM2208C MW    202208107187-1769                HOUSING FEMALE           CCN000004000000004000FN00000000020220801000004000NNED0720220727121045    3F0F  00000200000001035800001182032M8    PMPEMI  005500360039
BI00B32M8    #PM2208CTMW    202208107172-5625-90             RUBBER STOPPER           CCN000020000000020000FN00000000020220801000020000NNED0720220727121045    2H0H  00002000000000082400000133832M8    PMPEMI  004300270014
BI00B32M8    #PM2208CTMW    202208107172-5630-40             RUBBER STOPPER           CCN000040000000040000FN00000000020220801000040000NNED0720220727121045    2H0H  00002000000000044000000095132M8    PMPEMI  004300270014
BI00A32N1    NST2121HCU     202208017288-3335-30             HOUSING MALE             CCN000004500000004500FN00000000020220801000004500NNE00020220727161457    4N0N  00000150000000867000001012032N1    TAYIPL  005400370024
BI00B32N1    NST2121JCU     202209227157-6287-70             SPACER                   CCN000070000000070000FN00000000020220901000070000NNED0120220727170048    1F0F  00007000000000700000000963032N1    TAYIPL  005500360039
BI00B32N1    NST2121KCU     202208187283-5843                CONNECTOR                CCN000004500000004500FN00000000020220901000004500NNE   20220727121045    1N0N  00000150000000889000001132032N1    TAYIPL  005600390040
BI00B32N1    #NST2121KCU    202208187289-2912-30             HOUSING FEMALE ASS'Y     CCN000006000000006000FN00000000020220901000006000NNE   20220727121045    2N0N  00000200000000804000000929032N1    TAYIPL  005400370024
BI00B32Q8    EU2209H MW     202208177283-7062-30             CONNECTOR HOUSING        CCN000004800000004800FN00000000020220901000004800NNED0720220727121045    1N0N  00000060000000500400000645432Q8    EMEMI   005400370024
BI00B32Q8    EU2209G MW     202208177283-7062-30             CONNECTOR HOUSING        CCN000001800000001800FN00000000020220901000001800NNED0720220727144526    1N0N  00000060000000500400000645432Q8    EMEMI   005400370024
BI00B32W4    #4500193990    202208117147-3642-30             CLIP                     CCN000096000000030000FN00000000020220801000030000NNED0420220727165506W4172F0F  00000300000000542000000721332W417  HJYHK   005600390040
BI00A32W4    4500196372     202208027116-4103-02             TERMINAL                 CCN000012000000012000FN00000000020220801000012000NNEM0020220727144022W4N24P0P  00001200000000571200000859432W4N2  HJYHK-J 006400630015
BI00A32W4    4500196785     202208027116-4103-02             TERMINAL                 CCN000012000000012000FN00000000020220801000012000NNEM0020220727144022W4N24P0P  00001200000000571200000859432W4N2  HJYHK-J 006400630015
BI00B32W4    4500197216     202208257116-4031                TERMINAL                 CCN000007500000000000FY00000000020220801000000000NNEQ0820220727082114W4514P0P  00000750000000619500000904732W451  HJ32W9  006400630015
BI00B32W4    #4500197436    202208257157-7812                SEAL RUBBER              CCN000020000000020000FN00000000020220801000020000NNED0420220727163708W42 2C0C  00001000000000137000000202032W42   HJYHK   002700430014
BI00A32W4    4500197450     202209267158-3167-80             WIRE SEAL                CCN000080000000080000FN00000000020220901000080000NNE   20220727121045W4G91C0C  00002000000000048000000109032W4G9  HJYHK-J 002700430014
BI00A32W4    4500197450     202209267158-3168-80             SEALED                   CCN000040000000040000FN00000000020220901000040000NNE   20220727121045W4G91C0C  00002000000000044000000092132W4G9  HJYHK-J 004300260014
BI00A32W4    #4500197450    202209267158-3120-90             CONNECTOR WIRE SEAL      CCN000020000000020000FN00000000020220901000020000NNE   20220727121045W4G92C0C  00002000000000136000000194032W4G9  HJYHK-J 002700430014
BI00A32W4    4500197458     202209267158-3167-80             WIRE SEAL                CCN000040000000040000FN00000000020220901000040000NNE   20220727121045W4P61C0C  00002000000000048000000109032W4P6  HJYHK-J 002700430014
BI00A32W4    4500197458     202209267158-3169-40             SEALING PLUG             CCN000040000000040000FN00000000020220901000040000NNE   20220727121045W4P61C0C  00004000000000156000000204132W4P6  HJYHK-J 004300260014
BI00A32W4    4500197465     202209267116-4025                TERMINAL                 CCN000032000000032000FN00000000020220901000032000NNE   20220727121045W4M54P0P  00001600000000644800000975132W4M5  HJYHK-J 006400630017
BI00A32W4    4500197465     202209267283-7028-30             CONNECTOR                CCN000006000000006000FN00000000020220901000006000NNE   20220727121045W4M54N0N  00000300000001452000001681332W4M5  HJYHK-J 005600390040
BI00A32W4    4500197465     202209267283-1030                CONNECTOR                CCN000006000000006000FN00000000020220901000006000NNE   20220727121045W4M54N0N  00000600000000988000001172032W4M5  HJYHK-J 005500360039
BI00A32W4    4500197466     202210037116-4112-02             TERMINAL                 CCN000012000000012000FN00000000020221001000012000NNE   20220727121045W4M54P0P  00000600000000450000000738232W4M5  HJYHK-J 006400630015
BI00A32W4    #4500197466    202210037186-8845                HOUSING MALE             CCN000003000000003000FN00000000020221001000003000NNE   20220727121045W4M52F0F  00000300000000690000000801532W4M5  HJYHK-J 005400370024
BI00B32W4    4500197473     202209297116-4100-02             TERMINAL                 CCN000165000000165000FN00000000020220901000165000NNE   20220727121045W4164P0P  00001500000000696000000990232W416  HJYHK   006400630015
BI00B32W4    4500197473     202209297116-4121-02             TERMINAL                 CCN000013500000013500FN00000000020220901000013500NNE   20220727121045W4164P0P  00000450000000618800000912432W416  HJYHK   006400630015
BI00B32W4    4500197473     202209297116-4112-02             TERMINAL                 CCN000060000000060000FN00000000020220901000060000NNE   20220727121045W4164P0P  00000600000000450000000738232W416  HJYHK   006400630015
BI00B32W4    4500197473     202209297116-4102-02             TERMINAL                 CCN000012000000012000FN00000000020220901000012000NNE   20220727121045W4164P0P  00001200000000553200000841432W416  HJYHK   006400630015
BI00B32W4    4500197473     202209297116-4025                TERMINAL                 CCN000032000000032000FN00000000020220901000032000NNE   20220727121045W4164P0P  00001600000000644800000975132W416  HJYHK   006400630017
BI00B32W4    4500197473     202209297114-4100-02             TERMINAL                 CCN000054000000054000FN00000000020220901000054000NNE   20220727121045W4164P0P  00001800000000748800001077432W416  HJYHK   006400630017
BI00B32W4    4500197473     202209297116-4124-02             TERMINAL                 CCN000003000000003000FN00000000020220901000003000NNE   20220727121045W4164P0P  00000300000000459900000753532W416  HJYHK   006400630015
BI00B32W4    4500197473     202209297283-5548-30             CONNECTOR                CCN000001500000001500FN00000000020220901000001500NNE   20220727121045W4164N0N  00000150000001109000001302032W416  HJYHK   005600390040
BI00B32W4    4500197473     202209297158-3166-60             WIRE SEAL                CCN000080000000080000FN00000000020220901000080000NNE   20220727121045W4161C0C  00004000000000104000000152432W416  HJYHK   002700430014
BI00B32W4    4500197473     202209297126-8853-02             TERMINAL                 CCN000007500000007500FN00000000020220901000007500NNE   20220727121045W4164P0P  00000750000000562500000847732W416  HJYHK   006400630015
BI00B32W4    4500197473     202209297116-4101-02             TERMINAL                 CCN000024000000024000FN00000000020220901000024000NNE   20220727121045W4164P0P  00001200000000582000000876232W416  HJYHK   006400630015
BI00B32W4    4500197473     202209297116-4120-02             TERMINAL                 CCN000006000000006000FN00000000020220901000006000NNE   20220727121045W4164P0P  00000600000000780000001073632W416  HJYHK   006400630015
BI00B32W4    4500197473     202209297116-4104-02             TERMINAL                 CCN000024000000024000FN00000000020220901000024000NNE   20220727121045W4164P0P  00001200000000580800000972432W416  HJYHK   006400630015
BI00B32W4    4500197473     202209297116-4110-02             TERMINAL                 CCN000009000000009000FN00000000020220901000009000NNE   20220727121045W4164P0P  00000900000000594000000882232W416  HJYHK   006400630015
BI00B32W4    4500197473     202209297116-4103-02             TERMINAL                 CCN000036000000036000FN00000000020220901000036000NNE   20220727121045W4164P0P  00001200000000571200000859432W416  HJYHK   006400630015
BI00B32W4    4500197473     202209297283-1024                CONNECTOR SUB ASSY       CCN000008000000008000FN00000000020220901000008000NNE   20220727121045W4164N0N  00000200000000400000000522532W416  HJYHK   005400370024
BI00B32W4    4500197473     202209297282-1024                HOUSING MALE             CCN000009000000009000FN00000000020220901000009000NNE   20220727121045W4161N0N  00000100000000458000000580532W416  HJYHK   005400370024
BI00B32W4    4500197473     202209297283-1030                CONNECTOR                CCN000012000000012000FN00000000020220901000012000NNE   20220727121045W4164N0N  00000600000000988000001172032W416  HJYHK   005500360039
BI00B32W4    4500197473     202209297288-6547                CONNECTOR MALE ASS'Y     CCN000023250000023250FN00000000020220901000023250NNE   20220727121045W4164N0N  00000075000001205300001340332W416  HJYHK   005400370024
BI00B32W4    4500197473     202209297289-6547                HOUSING FEMALE ASS'Y     CCN000021600000021600FN00000000020220901000021600NNE   20220727121045W4161N0N  00000240000001152000001362032W416  HJYHK   005500360039
BI00B32W4    4500197473     202209297283-1156                CONNECTOR                CCN000012000000012000FN00000000020220901000012000NNE   20220727121045W4164N0N  00000080000000877600001078032W416  HJYHK   005600390040
BI00B32W4    4500197473     202209297114-4032                TERMINAL                 CCN000015000000015000FN00000000020220901000015000NNE   20220727121045W4164P0P  00000750000000735000001063632W416  HJYHK   006400630017
BI00B32W4    #4500197473    202209297282-4190-30             CONNECTOR                CCN000001920000001920FN00000000020220901000001920NNE   20220727121045W4162N0N  00000024000000801000001071332W416  HJYHK   005600390040
BI00B32W4    #4500197473    202209297283-4190-30             CONNECTOR                CCN000004320000004320FN00000000020220901000004320NNE   20220727121045W4162N0N  00000024000000846000001115532W416  HJYHK   005600390040
BI00B32W4    #4500197473    202209297187-1616                HOUSING FEMALE           CCN000004000000004000FN00000000020220901000004000NNE   20220727121045W4162F0F  00000400000001152000001262032W416  HJYHK   005500360039
BI00B32W4    @4500197473    202209297287-6634                HOUSING FEMALE ASS'Y     CCN000007200000007200FN00000000020220901000007200NNE   20220727121045W4163N0N  00000240000001088400001337032W416  HJYHK   005500360039
BI00A32W4    4500197479     202209267116-4100-02             TERMINAL                 CCN000015000000015000FN00000000020220901000015000NNE   20220727121045W4194P0P  00001500000000696000000990232W419  HJYHK   006400630015
BI00A32W4    4500197479     202209267116-4111-02             TERMINAL                 CCN000007500000007500FN00000000020220901000007500NNE   20220727121045W4194P0P  00000750000000529500000817732W419  HJYHK   006400630015
BI00A32W4    4500197479     202209267116-4102-02             TERMINAL                 CCN000036000000036000FN00000000020220901000036000NNE   20220727121045W4194P0P  00001200000000553200000841432W419  HJYHK   006400630015
BI00A32W4    4500197479     202209267158-3167-80             WIRE SEAL                CCN000020000000020000FN00000000020220901000020000NNE   20220727121045W4191C0C  00002000000000048000000109032W419  HJYHK   002700430014
BI00A32W4    4500197479     202209267116-4103-02             TERMINAL                 CCN000012000000012000FN00000000020220901000012000NNE   20220727121045W4194P0P  00001200000000571200000859432W419  HJYHK   006400630015
BI00A32W4    4500197479     202209267283-6568-40             CONNECTOR                CCN000004000000004000FN00000000020220901000004000NNE   20220727121045W4194N0N  00000200000001090000001263032W419  HJYHK   005500360039
BI00A32W4    4500197480     202208087196-1462-06             TERMINAL FEMALE          CCN000042000000042000FN00000000020220801000042000NNED0720220727121045W4G94P0P  00002100000000352800000659332W4G9  HJYHK-J 006400630015
BI00A32W4    4500197480     202208087196-1461-06             TERMINAL FEMALE          CCN000048000000048000FN00000000020220801000048000NNED0720220727121045W4G94P0P  00002400000000386400000692932W4G9  HJYHK-J 006400630015
BI00A32W4    4500197485     202209267282-5574-10             CONNECTOR                CCN000000800000000800FN00000000020220901000000800NNE   20220727121045W4194N0N  00000080000001235000001423032W419  HJYHK   005600390040
BI00B32W4    4500197489     202209067116-1180                TERMINAL                 CCN000019500000019500FN00000000020220901000019500NNE   20220727121045W41 1P0P  00001950000000618200000903432W41   HJYHK   006400630015
BI00B32W4    4500197492     202209207116-1180                TERMINAL                 CCN000019500000019500FN00000000020220901000019500NNE   20220727162703W41 1P0P  00001950000000618200000903432W41   HJYHK   006400630015
BI00B32W4    #4500193990    202208187147-3642-30             CLIP                     CCN000066000000066000FN00000000020220801000066000NNED0420220727165514W4172F0F  00000300000000542000000721332W417  HJYHK   005600390040
BI00B32Y5    TAT32115       202208167116-3153-02             TERMINAL FEMALE          CCN000153000000162000FN00000000020221101000162000NNE   20220727121045    4P0P  00002700000000459000000744232Y5    BZYBL   006400630015
BI00B32Y5    TAT32115       202208167116-3154-02             TERMINAL FEMALE          CCN000216000000216000FN00000000020221101000216000NNE   20220727121045    4P0P  00002700000000469800000755032Y5    BZYBL   006400630015
