BI00B32BF    TT2209BKMW     2022082318009603937              AVS 0.5 B/Y              CCN000004000000004000FN00000000020220901000004000NNE   20220803132800    1W    00000100000000850000000000032BF    TTTJY   000000000000NC228001
BI00B32BF    TT22111KMW     2022092018009603937              AVS 0.5 B/Y              CCN000003000000003000FN00000000020221101000003000NNM   20220803142940    1W    00000100000000850000000000032BF    TTTJY   000000000000NK129001
BI00B32CJ    TTQ2101        2022090918000004530              AV 8 B                   CCN000002800000002800FN00000000020221001000002800NNM   20220803120329    1W    00000010000010466200000000032CJ    QNYHVQN 000000000000UQ428024
BI00B32CJ    TTQ2102        2022091618000004530              AV 8 B                   CCN000001800000001800FN00000000020221001000001800NNM   20220803120329    1W    00000010000010466200000000032CJ    QNYHVQN 000000000000UQ528028
BI00B32CJ    TTQ2103        2022092318000004530              AV 8 B                   CCN000002100000002100FN00000000020221001000002100NNM   20220803120329    1W    00000010000010466200000000032CJ    QNYHVQN 000000000000UQ129036
BI00B32CJ    TTQ2104        2022093018000004530              AV 8 B                   CCN000002100000002100FN00000000020221001000002100NNM   20220803120329    1W    00000010000010466200000000032CJ    QNYHVQN 000000000000UQ229034
BI00B32CJ    TTQ2105        2022100718000004530              AV 8 B                   CCN000002000000002000FN00000000020221001000002000NNM   20220803120329    1W    00000010000010466200000000032CJ    QNYHVQN 000000000000UQ329031
BI00B32CJ    TTQ2101        2022090918000004550              AV 8 R                   CCN000002400000002400FN00000000020221001000002400NNM   20220803120329    1W    00000010000010466200000000032CJ    QNYHVQN 000000000000UQ428025
BI00B32CJ    TTQ2102        2022091618000004550              AV 8 R                   CCN000000800000000800FN00000000020221001000000800NNM   20220803120329    1W    00000010000010466200000000032CJ    QNYHVQN 000000000000UQ528029
BI00B32CJ    TTQ2103        2022092318000004550              AV 8 R                   CCN000001000000001000FN00000000020221001000001000NNM   20220803120329    1W    00000010000010466200000000032CJ    QNYHVQN 000000000000UQ129037
BI00B32CJ    TTQ2104        2022093018000004550              AV 8 R                   CCN000001200000001200FN00000000020221001000001200NNM   20220803120329    1W    00000010000010466200000000032CJ    QNYHVQN 000000000000UQ229035
BI00B32CJ    TTQ2105        2022100718000004550              AV 8 R                   CCN000001100000001100FN00000000020221001000001100NNM   20220803120329    1W    00000010000010466200000000032CJ    QNYHVQN 000000000000UQ329032
BI00B32CJ    TTQ2101        2022090918007704130              AVSS 1.25F B             CCN000001600000001600FN00000000020221001000001600NNM   20220803120329    1W    00000080000001389000000000032CJ    QNYHVQN 000000000000UQ428026
BI00B32CJ    TTQ2103        2022092318007704130              AVSS 1.25F B             CCN000000800000000800FN00000000020221001000000800NNM   20220803120329    1W    00000080000001389000000000032CJ    QNYHVQN 000000000000UQ129038
BI00B32CJ    TTQ2104        2022093018007704130              AVSS 1.25F B             CCN000000800000000800FN00000000020221001000000800NNM   20220803120329    1W    00000080000001389000000000032CJ    QNYHVQN 000000000000UQ229036
BI00B32CJ    TTQ2101        20220909180D0203730              AVSSH 0.3F B             CCN000002000000002000FN00000000020221001000002000NNM   20220803120329    1W    00000200000000515000000000032CJ    QNYHVQN 000000000000UQ428014
BI00B32CJ    TTQ2101        20220909180D0203780              AVSSH 0.3F BR            CCN000008000000008000FN00000000020221001000008000NNM   20220803120329    1W    00000200000000515000000000032CJ    QNYHVQN 000000000000UQ428015
BI00B32CJ    TTQ2102        20220916180D0203780              AVSSH 0.3F BR            CCN000002000000002000FN00000000020221001000002000NNM   20220803120329    1W    00000200000000515000000000032CJ    QNYHVQN 000000000000UQ528025
BI00B32CJ    TTQ2103        20220923180D0203780              AVSSH 0.3F BR            CCN000004000000004000FN00000000020221001000004000NNM   20220803120329    1W    00000200000000515000000000032CJ    QNYHVQN 000000000000UQ129029
BI00B32CJ    TTQ2104        20220930180D0203780              AVSSH 0.3F BR            CCN000004000000004000FN00000000020221001000004000NNM   20220803120329    1W    00000200000000515000000000032CJ    QNYHVQN 000000000000UQ229028
BI00B32CJ    TTQ2105        20221007180D0203780              AVSSH 0.3F BR            CCN000002000000002000FN00000000020221001000002000NNM   20220803120329    1W    00000200000000515000000000032CJ    QNYHVQN 000000000000UQ329028
BI00B32CJ    TTQ2101        20220909180D0203760              AVSSH 0.3F G             CCN000006000000006000FN00000000020221001000006000NNM   20220803120329    1W    00000200000000515000000000032CJ    QNYHVQN 000000000000UQ428016
BI00B32CJ    TTQ2103        20220923180D0203760              AVSSH 0.3F G             CCN000002000000002000FN00000000020221001000002000NNM   20220803120329    1W    00000200000000515000000000032CJ    QNYHVQN 000000000000UQ129030
BI00B32CJ    TTQ2104        20220930180D0203760              AVSSH 0.3F G             CCN000002000000002000FN00000000020221001000002000NNM   20220803120329    1W    00000200000000515000000000032CJ    QNYHVQN 000000000000UQ229029
BI00B32CJ    TTQ2101        20220909180D0203741              AVSSH 0.3F GY            CCN000002000000002000FN00000000020221001000002000NNM   20220803120329    1W    00000200000000515000000000032CJ    QNYHVQN 000000000000UQ428017
BI00B32CJ    TTQ2103        20220923180D0203741              AVSSH 0.3F GY            CCN000002000000002000FN00000000020221001000002000NNM   20220803120329    1W    00000200000000515000000000032CJ    QNYHVQN 000000000000UQ129031
BI00B32CJ    TTQ2101        20220909180D0203790              AVSSH 0.3F L             CCN000006000000006000FN00000000020221001000006000NNM   20220803120329    1W    00000200000000515000000000032CJ    QNYHVQN 000000000000UQ428018
BI00B32CJ    TTQ2103        20220923180D0203790              AVSSH 0.3F L             CCN000002000000002000FN00000000020221001000002000NNM   20220803120329    1W    00000200000000515000000000032CJ    QNYHVQN 000000000000UQ129032
BI00B32CJ    TTQ2104        20220930180D0203790              AVSSH 0.3F L             CCN000002000000002000FN00000000020221001000002000NNM   20220803120329    1W    00000200000000515000000000032CJ    QNYHVQN 000000000000UQ229030
BI00B32CJ    TTQ2101        20220909180D0203740              AVSSH 0.3F W             CCN000002000000002000FN00000000020221001000002000NNM   20220803120329    1W    00000200000000515000000000032CJ    QNYHVQN 000000000000UQ428019
BI00B32CJ    TTQ2101        20220909180D0203980              AVSSH 0.5F BR            CCN000003000000003000FN00000000020221001000003000NNM   20220803120329    1W    00000150000000689000000000032CJ    QNYHVQN 000000000000UQ428020
BI00B32CJ    TTQ2103        20220923180D0203980              AVSSH 0.5F BR            CCN000001500000001500FN00000000020221001000001500NNM   20220803120329    1W    00000150000000689000000000032CJ    QNYHVQN 000000000000UQ129033
BI00B32CJ    TTQ2104        20220930180D0203980              AVSSH 0.5F BR            CCN000001500000001500FN00000000020221001000001500NNM   20220803120329    1W    00000150000000689000000000032CJ    QNYHVQN 000000000000UQ229031
BI00B32CJ    TTQ2101        20220909180D0204040              AVSSH 0.75F W            CCN000004000000004000FN00000000020221001000004000NNM   20220803120329    1W    00000100000000934000000000032CJ    QNYHVQN 000000000000UQ428021
BI00B32CJ    TTQ2101        20220909180D0204130              AVSSH 1.25F B            CCN000016800000016800FN00000000020221001000016800NNM   20220803120329    1W    00000080000001458000000000032CJ    QNYHVQN 000000000000UQ428022
BI00B32CJ    TTQ2102        20220916180D0204130              AVSSH 1.25F B            CCN000004800000004800FN00000000020221001000004800NNM   20220803120329    1W    00000080000001458000000000032CJ    QNYHVQN 000000000000UQ528026
BI00B32CJ    TTQ2103        20220923180D0204130              AVSSH 1.25F B            CCN000008800000008800FN00000000020221001000008800NNM   20220803120329    1W    00000080000001458000000000032CJ    QNYHVQN 000000000000UQ129034
BI00B32CJ    TTQ2104        20220930180D0204130              AVSSH 1.25F B            CCN000009600000009600FN00000000020221001000009600NNM   20220803120329    1W    00000080000001458000000000032CJ    QNYHVQN 000000000000UQ229032
BI00B32CJ    TTQ2105        20221007180D0204130              AVSSH 1.25F B            CCN000004800000004800FN00000000020221001000004800NNM   20220803120329    1W    00000080000001458000000000032CJ    QNYHVQN 000000000000UQ329029
BI00B32CJ    TTQ2101        20220909180D0204180              AVSSH 1.25F BR           CCN000002400000002400FN00000000020221001000002400NNM   20220803120329    1W    00000080000001458000000000032CJ    QNYHVQN 000000000000UQ428023
BI00B32CJ    TTQ2102        20220916180D0204180              AVSSH 1.25F BR           CCN000000800000000800FN00000000020221001000000800NNM   20220803120329    1W    00000080000001458000000000032CJ    QNYHVQN 000000000000UQ528027
BI00B32CJ    TTQ2103        20220923180D0204180              AVSSH 1.25F BR           CCN000001600000001600FN00000000020221001000001600NNM   20220803120329    1W    00000080000001458000000000032CJ    QNYHVQN 000000000000UQ129035
BI00B32CJ    TTQ2104        20220930180D0204180              AVSSH 1.25F BR           CCN000001600000001600FN00000000020221001000001600NNM   20220803120329    1W    00000080000001458000000000032CJ    QNYHVQN 000000000000UQ229033
BI00B32CJ    TTQ2105        20221007180D0204180              AVSSH 1.25F BR           CCN000000800000000800FN00000000020221001000000800NNM   20220803120329    1W    00000080000001458000000000032CJ    QNYHVQN 000000000000UQ329030
BI00B32CJ    TTQ2101        202209091801W006980              IVSSH 0.35F BR           CCN000005000000005000FN00000000020221001000005000NNM   20220803120329    1W    00000250000000452000000000032CJ    QNYHVQN 000000000000UQ428031
BI00B32CJ    TTQ2103        202209231801W006980              IVSSH 0.35F BR           CCN000002500000002500FN00000000020221001000002500NNM   20220803120329    1W    00000250000000452000000000032CJ    QNYHVQN 000000000000UQ129042
BI00B32CJ    TTQ2104        202209301801W006980              IVSSH 0.35F BR           CCN000002500000002500FN00000000020221001000002500NNM   20220803120329    1W    00000250000000452000000000032CJ    QNYHVQN 000000000000UQ229041
BI00B32CJ    TTQ2101        202209091801W006961              IVSSH 0.35F LG           CCN000007500000007500FN00000000020221001000007500NNM   20220803120329    1W    00000250000000452000000000032CJ    QNYHVQN 000000000000UQ428032
BI00B32CJ    TTQ2103        202209231801W006961              IVSSH 0.35F LG           CCN000002500000002500FN00000000020221001000002500NNM   20220803120329    1W    00000250000000452000000000032CJ    QNYHVQN 000000000000UQ129043
BI00B32CJ    TTQ2104        202209301801W006961              IVSSH 0.35F LG           CCN000002500000002500FN00000000020221001000002500NNM   20220803120329    1W    00000250000000452000000000032CJ    QNYHVQN 000000000000UQ229042
BI00B32CJ    TTQ2101        202209091801W006940              IVSSH 0.35F W            CCN000002500000002500FN00000000020221001000002500NNM   20220803120329    1W    00000250000000452000000000032CJ    QNYHVQN 000000000000UQ428033
BI00B32CJ    TTQ2103        202209231801W006940              IVSSH 0.35F W            CCN000002500000002500FN00000000020221001000002500NNM   20220803120329    1W    00000250000000452000000000032CJ    QNYHVQN 000000000000UQ129044
BI00B32CJ    TTQ2101        202209091801W003980              IVSSH 0.5F BR            CCN000001800000001800FN00000000020221001000001800NNM   20220803120329    1W    00000180000000625000000000032CJ    QNYHVQN 000000000000UQ428027
BI00B32CJ    TTQ2103        202209231801W003980              IVSSH 0.5F BR            CCN000001800000001800FN00000000020221001000001800NNM   20220803120329    1W    00000180000000625000000000032CJ    QNYHVQN 000000000000UQ129039
BI00B32CJ    TTQ2104        202209301801W003940              IVSSH 0.5F W             CCN000003600000003600FN00000000020221001000003600NNM   20220803120329    1W    00000180000000625000000000032CJ    QNYHVQN 000000000000UQ229037
BI00B32CJ    TTQ2105        202210071801W003940              IVSSH 0.5F W             CCN000001800000001800FN00000000020221001000001800NNM   20220803120329    1W    00000180000000625000000000032CJ    QNYHVQN 000000000000UQ329033
BI00B32CJ    TTQ2101        202209091801W004030              IVSSH 0.75F B            CCN000007800000007800FN00000000020221001000007800NNM   20220803120329    1W    00000130000000882000000000032CJ    QNYHVQN 000000000000UQ428028
BI00B32CJ    TTQ2102        202209161801W004030              IVSSH 0.75F B            CCN000001300000001300FN00000000020221001000001300NNM   20220803120329    1W    00000130000000882000000000032CJ    QNYHVQN 000000000000UQ528030
BI00B32CJ    TTQ2103        202209231801W004030              IVSSH 0.75F B            CCN000001300000001300FN00000000020221001000001300NNM   20220803120329    1W    00000130000000882000000000032CJ    QNYHVQN 000000000000UQ129040
BI00B32CJ    TTQ2104        202209301801W004030              IVSSH 0.75F B            CCN000001300000001300FN00000000020221001000001300NNM   20220803120329    1W    00000130000000882000000000032CJ    QNYHVQN 000000000000UQ229038
BI00B32CJ    TTQ2101        202209091801W004050              IVSSH 0.75F R            CCN000007800000007800FN00000000020221001000007800NNM   20220803120329    1W    00000130000000882000000000032CJ    QNYHVQN 000000000000UQ428029
BI00B32CJ    TTQ2102        202209161801W004050              IVSSH 0.75F R            CCN000002600000002600FN00000000020221001000002600NNM   20220803120329    1W    00000130000000882000000000032CJ    QNYHVQN 000000000000UQ528031
BI00B32CJ    TTQ2103        202209231801W004050              IVSSH 0.75F R            CCN000003900000003900FN00000000020221001000003900NNM   20220803120329    1W    00000130000000882000000000032CJ    QNYHVQN 000000000000UQ129041
BI00B32CJ    TTQ2104        202209301801W004050              IVSSH 0.75F R            CCN000003900000003900FN00000000020221001000003900NNM   20220803120329    1W    00000130000000882000000000032CJ    QNYHVQN 000000000000UQ229039
BI00B32CJ    TTQ2105        202210071801W004050              IVSSH 0.75F R            CCN000001300000001300FN00000000020221001000001300NNM   20220803120329    1W    00000130000000882000000000032CJ    QNYHVQN 000000000000UQ329034
BI00B32CJ    TTQ2101        202209091801W004091              IVSSH 0.75F SB           CCN000002600000002600FN00000000020221001000002600NNM   20220803120329    1W    00000130000000882000000000032CJ    QNYHVQN 000000000000UQ428030
BI00B32CJ    TTQ2102        202209161801W004091              IVSSH 0.75F SB           CCN000001300000001300FN00000000020221001000001300NNM   20220803120329    1W    00000130000000882000000000032CJ    QNYHVQN 000000000000UQ528032
BI00B32CJ    TTQ2104        202209301801W004091              IVSSH 0.75F SB           CCN000001300000001300FN00000000020221001000001300NNM   20220803120329    1W    00000130000000882000000000032CJ    QNYHVQN 000000000000UQ229040
BI00B32CJ    TTQ2105        202210071801W004091              IVSSH 0.75F SB           CCN000001300000001300FN00000000020221001000001300NNM   20220803120329    1W    00000130000000882000000000032CJ    QNYHVQN 000000000000UQ329035
BI00B32CJ    @TTQ2101       20220909181B32012ZZ              AVSSCS 0.3FX2 DGY/BR     CCN000000700000000700FN00000000020221001000000700NNM   20220803120329    1W    00000035000002276000000000032CJ    QNYHVQN 000000000000UQ428009
BI00B32CJ    @TTQ2102       20220916181B32012ZZ              AVSSCS 0.3FX2 DGY/BR     CCN000000700000000700FN00000000020221001000000700NNM   20220803120329    1W    00000035000002276000000000032CJ    QNYHVQN 000000000000UQ528018
BI00B32CJ    @TTQ2103       20220923181B32012ZZ              AVSSCS 0.3FX2 DGY/BR     CCN000000350000000350FN00000000020221001000000350NNM   20220803120329    1W    00000035000002276000000000032CJ    QNYHVQN 000000000000UQ129022
BI00B32CJ    @TTQ2104       20220930181B32012ZZ              AVSSCS 0.3FX2 DGY/BR     CCN000000700000000700FN00000000020221001000000700NNM   20220803120329    1W    00000035000002276000000000032CJ    QNYHVQN 000000000000UQ229021
BI00B32CJ    @TTQ2105       20221007181B32012ZZ              AVSSCS 0.3FX2 DGY/BR     CCN000000700000000700FN00000000020221001000000700NNM   20220803120329    1W    00000035000002276000000000032CJ    QNYHVQN 000000000000UQ329021
BI00B32CJ    @TTQ2102       20220916181E48011ZZ              CAVSAS-S 0.3X1 GY/W      CCN000003000000003000FN00000000020221001000003000NNM   20220803120329    1W    00000050000001529500000000032CJ    QNYHVQN 000000000000UQ528019
BI00B32CJ    @TTQ2103       20220923181E48011ZZ              CAVSAS-S 0.3X1 GY/W      CCN000002500000002500FN00000000020221001000002500NNM   20220803120329    1W    00000050000001529500000000032CJ    QNYHVQN 000000000000UQ129023
BI00B32CJ    @TTQ2104       20220930181E48011ZZ              CAVSAS-S 0.3X1 GY/W      CCN000003000000003000FN00000000020221001000003000NNM   20220803120329    1W    00000050000001529500000000032CJ    QNYHVQN 000000000000UQ229022
BI00B32CJ    @TTQ2105       20221007181E48011ZZ              CAVSAS-S 0.3X1 GY/W      CCN000002500000002500FN00000000020221001000002500NNM   20220803120329    1W    00000050000001529500000000032CJ    QNYHVQN 000000000000UQ329022
BI00B32CJ    @TTQ2101       20220909181E48013ZZ              CAVSAS-S 0.3X3 GY        CCN000007000000007000FN00000000020221001000007000NNM   20220803120329    1W    00000025000002778200000000032CJ    QNYHVQN 000000000000UQ428013
BI00B32CJ    @TTQ2102       20220916181E48013ZZ              CAVSAS-S 0.3X3 GY        CCN000017000000017000FN00000000020221001000017000NNM   20220803120329    1W    00000025000002778200000000032CJ    QNYHVQN 000000000000UQ528024
BI00B32CJ    @TTQ2103       20220923181E48013ZZ              CAVSAS-S 0.3X3 GY        CCN000015000000015000FN00000000020221001000015000NNM   20220803120329    1W    00000025000002778200000000032CJ    QNYHVQN 000000000000UQ129028
BI00B32CJ    @TTQ2104       20220930181E48013ZZ              CAVSAS-S 0.3X3 GY        CCN000017000000017000FN00000000020221001000017000NNM   20220803120329    1W    00000025000002778200000000032CJ    QNYHVQN 000000000000UQ229027
BI00B32CJ    @TTQ2105       20221007181E48013ZZ              CAVSAS-S 0.3X3 GY        CCN000014000000014000FN00000000020221001000014000NNM   20220803120329    1W    00000025000002778200000000032CJ    QNYHVQN 000000000000UQ329027
BI00B32CJ    @TTQ2102       20220916181E48027ZZ              CAVSAS-S 0.5X2 GY/P      CCN000000900000000900FN00000000020221001000000900NNM   20220803120329    1W    00000030000002561000000000032CJ    QNYHVQN 000000000000UQ528020
BI00B32CJ    @TTQ2103       20220923181E48027ZZ              CAVSAS-S 0.5X2 GY/P      CCN000000900000000900FN00000000020221001000000900NNM   20220803120329    1W    00000030000002561000000000032CJ    QNYHVQN 000000000000UQ129024
BI00B32CJ    @TTQ2104       20220930181E48027ZZ              CAVSAS-S 0.5X2 GY/P      CCN000000900000000900FN00000000020221001000000900NNM   20220803120329    1W    00000030000002561000000000032CJ    QNYHVQN 000000000000UQ229023
BI00B32CJ    @TTQ2105       20221007181E48027ZZ              CAVSAS-S 0.5X2 GY/P      CCN000000600000000600FN00000000020221001000000600NNM   20220803120329    1W    00000030000002561000000000032CJ    QNYHVQN 000000000000UQ329023
BI00B32CJ    @TTQ2101       20220909181E48029ZZ              CAVSAS-S 0.5X4 GY        CCN000000800000000800FN00000000020221001000000800NNM   20220803120329    1W    00000020000003995000000000032CJ    QNYHVQN 000000000000UQ428010
BI00B32CJ    @TTQ2102       20220916181E48029ZZ              CAVSAS-S 0.5X4 GY        CCN000001000000001000FN00000000020221001000001000NNM   20220803120329    1W    00000020000003995000000000032CJ    QNYHVQN 000000000000UQ528021
BI00B32CJ    @TTQ2103       20220923181E48029ZZ              CAVSAS-S 0.5X4 GY        CCN000001200000001200FN00000000020221001000001200NNM   20220803120329    1W    00000020000003995000000000032CJ    QNYHVQN 000000000000UQ129025
BI00B32CJ    @TTQ2104       20220930181E48029ZZ              CAVSAS-S 0.5X4 GY        CCN000001200000001200FN00000000020221001000001200NNM   20220803120329    1W    00000020000003995000000000032CJ    QNYHVQN 000000000000UQ229024
BI00B32CJ    @TTQ2105       20221007181E48029ZZ              CAVSAS-S 0.5X4 GY        CCN000000800000000800FN00000000020221001000000800NNM   20220803120329    1W    00000020000003995000000000032CJ    QNYHVQN 000000000000UQ329024
BI00B32CJ    @TTQ2101       20220909181E48031ZZ              CAVSAS-S 0.3X2 GY        CCN000000700000000700FN00000000020221001000000700NNM   20220803120329    1W    00000035000002008700000000032CJ    QNYHVQN 000000000000UQ428011
BI00B32CJ    @TTQ2102       20220916181E48031ZZ              CAVSAS-S 0.3X2 GY        CCN000001400000001400FN00000000020221001000001400NNM   20220803120329    1W    00000035000002008700000000032CJ    QNYHVQN 000000000000UQ528022
BI00B32CJ    @TTQ2103       20220923181E48031ZZ              CAVSAS-S 0.3X2 GY        CCN000001750000001750FN00000000020221001000001750NNM   20220803120329    1W    00000035000002008700000000032CJ    QNYHVQN 000000000000UQ129026
BI00B32CJ    @TTQ2104       20220930181E48031ZZ              CAVSAS-S 0.3X2 GY        CCN000001400000001400FN00000000020221001000001400NNM   20220803120329    1W    00000035000002008700000000032CJ    QNYHVQN 000000000000UQ229025
BI00B32CJ    @TTQ2105       20221007181E48031ZZ              CAVSAS-S 0.3X2 GY        CCN000001750000001750FN00000000020221001000001750NNM   20220803120329    1W    00000035000002008700000000032CJ    QNYHVQN 000000000000UQ329025
BI00B32CJ    @TTQ2101       20220909181E48032ZZ              CAVSAS-S 0.3X2 GY/P      CCN000001050000001050FN00000000020221001000001050NNM   20220803120329    1W    00000035000002008700000000032CJ    QNYHVQN 000000000000UQ428012
BI00B32CJ    @TTQ2102       20220916181E48032ZZ              CAVSAS-S 0.3X2 GY/P      CCN000001050000001050FN00000000020221001000001050NNM   20220803120329    1W    00000035000002008700000000032CJ    QNYHVQN 000000000000UQ528023
BI00B32CJ    @TTQ2103       20220923181E48032ZZ              CAVSAS-S 0.3X2 GY/P      CCN000000700000000700FN00000000020221001000000700NNM   20220803120329    1W    00000035000002008700000000032CJ    QNYHVQN 000000000000UQ129027
BI00B32CJ    @TTQ2104       20220930181E48032ZZ              CAVSAS-S 0.3X2 GY/P      CCN000001050000001050FN00000000020221001000001050NNM   20220803120329    1W    00000035000002008700000000032CJ    QNYHVQN 000000000000UQ229026
BI00B32CJ    @TTQ2105       20221007181E48032ZZ              CAVSAS-S 0.3X2 GY/P      CCN000000700000000700FN00000000020221001000000700NNM   20220803120329    1W    00000035000002008700000000032CJ    QNYHVQN 000000000000UQ329026
BI00B32CJ    @TTQ2103       20220923181AD2002ZZ              CIVUSAS-S 0.35X2 B       CCN000008550000008550FN00000000020221001000008550NNM   20220803120329    1W    00000045000001713700000000032CJ    QNYHVQN 000000000000UQ129019
BI00B32CJ    @TTQ2104       20220930181AD2002ZZ              CIVUSAS-S 0.35X2 B       CCN000011250000011250FN00000000020221001000011250NNM   20220803120329    1W    00000045000001713700000000032CJ    QNYHVQN 000000000000UQ229018
BI00B32CJ    @TTQ2105       20221007181AD2002ZZ              CIVUSAS-S 0.35X2 B       CCN000006750000006750FN00000000020221001000006750NNM   20220803120329    1W    00000045000001713700000000032CJ    QNYHVQN 000000000000UQ329018
BI00B32CJ    @TTQ2101       20220909181AD2003ZZ              CIVUSAS-S 0.35X3 B       CCN000010500000010500FN00000000020221001000010500NNM   20220803120329    1W    00000035000002172100000000032CJ    QNYHVQN 000000000000UQ428008
BI00B32CJ    @TTQ2102       20220916181AD2003ZZ              CIVUSAS-S 0.35X3 B       CCN000017500000017500FN00000000020221001000017500NNM   20220803120329    1W    00000035000002172100000000032CJ    QNYHVQN 000000000000UQ528016
BI00B32CJ    @TTQ2103       20220923181AD2003ZZ              CIVUSAS-S 0.35X3 B       CCN000016450000016450FN00000000020221001000016450NNM   20220803120329    1W    00000035000002172100000000032CJ    QNYHVQN 000000000000UQ129020
BI00B32CJ    @TTQ2104       20220930181AD2003ZZ              CIVUSAS-S 0.35X3 B       CCN000018200000018200FN00000000020221001000018200NNM   20220803120329    1W    00000035000002172100000000032CJ    QNYHVQN 000000000000UQ229019
BI00B32CJ    @TTQ2105       20221007181AD2003ZZ              CIVUSAS-S 0.35X3 B       CCN000014350000014350FN00000000020221001000014350NNM   20220803120329    1W    00000035000002172100000000032CJ    QNYHVQN 000000000000UQ329019
BI00B32CJ    @TTQ2102       20220916181AD2004ZZ              CIVUSAS-S 0.35X4 B       CCN000037500000037500FN00000000020221001000037500NNM   20220803120329    1W    00000030000002799900000000032CJ    QNYHVQN 000000000000UQ528017
BI00B32CJ    @TTQ2103       20220923181AD2004ZZ              CIVUSAS-S 0.35X4 B       CCN000033900000033900FN00000000020221001000033900NNM   20220803120329    1W    00000030000002799900000000032CJ    QNYHVQN 000000000000UQ129021
BI00B32CJ    @TTQ2104       20220930181AD2004ZZ              CIVUSAS-S 0.35X4 B       CCN000030000000030000FN00000000020221001000030000NNM   20220803120329    1W    00000030000002799900000000032CJ    QNYHVQN 000000000000UQ229020
BI00B32CJ    @TTQ2105       20221007181AD2004ZZ              CIVUSAS-S 0.35X4 B       CCN000029400000029400FN00000000020221001000029400NNM   20220803120329    1W    00000030000002799900000000032CJ    QNYHVQN 000000000000UQ329020
BI00B32CJ    @TTQ2102       20220916181AD2008ZZ              CIVUSAS-S 0.5X2 B        CCN000002400000002400FN00000000020221001000002400NNM   20220803120329    1W    00000040000002028000000000032CJ    QNYHVQN 000000000000UQ528014
BI00B32CJ    @TTQ2103       20220923181AD2008ZZ              CIVUSAS-S 0.5X2 B        CCN000002400000002400FN00000000020221001000002400NNM   20220803120329    1W    00000040000002028000000000032CJ    QNYHVQN 000000000000UQ129017
BI00B32CJ    @TTQ2104       20220930181AD2008ZZ              CIVUSAS-S 0.5X2 B        CCN000002000000002000FN00000000020221001000002000NNM   20220803120329    1W    00000040000002028000000000032CJ    QNYHVQN 000000000000UQ229016
BI00B32CJ    @TTQ2105       20221007181AD2008ZZ              CIVUSAS-S 0.5X2 B        CCN000002000000002000FN00000000020221001000002000NNM   20220803120329    1W    00000040000002028000000000032CJ    QNYHVQN 000000000000UQ329016
BI00B32CJ    @TTQ2101       20220909181AD2010ZZ              CIVUSAS-S 0.5X4 B        CCN000001750000001750FN00000000020221001000001750NNM   20220803120329    1W    00000025000003214000000000032CJ    QNYHVQN 000000000000UQ428007
BI00B32CJ    @TTQ2102       20220916181AD2010ZZ              CIVUSAS-S 0.5X4 B        CCN000002250000002250FN00000000020221001000002250NNM   20220803120329    1W    00000025000003214000000000032CJ    QNYHVQN 000000000000UQ528015
BI00B32CJ    @TTQ2103       20220923181AD2010ZZ              CIVUSAS-S 0.5X4 B        CCN000002250000002250FN00000000020221001000002250NNM   20220803120329    1W    00000025000003214000000000032CJ    QNYHVQN 000000000000UQ129018
BI00B32CJ    @TTQ2104       20220930181AD2010ZZ              CIVUSAS-S 0.5X4 B        CCN000002250000002250FN00000000020221001000002250NNM   20220803120329    1W    00000025000003214000000000032CJ    QNYHVQN 000000000000UQ229017
BI00B32CJ    @TTQ2105       20221007181AD2010ZZ              CIVUSAS-S 0.5X4 B        CCN000002000000002000FN00000000020221001000002000NNM   20220803120329    1W    00000025000003214000000000032CJ    QNYHVQN 000000000000UQ329017
BI00B32D2    DGTW2241D      2022082518000004530              AV 8 B                   CCN000016200000016200FN00000000020221001000016200NNE   20220803120329    1W    00000010000010466200000000032D2    TGYOT-G 000000000000KP228031
BI00B32D2    DGTW2241D      2022082518000004540              AV 8 W                   CCN000005300000005300FN00000000020221001000005300NNE   20220803120329    1W    00000010000010466200000000032D2    TGYOT-G 000000000000KP228033
BI00B32D2    DGTW2241D      2022082518000004543              AV 8 W/B                 CCN000001300000001300FN00000000020221001000001300NNE   20220803120329    1W    00000010000010466200000000032D2    TGYOT-G 000000000000KP228034
BI00B32D2    DGTW2241D      2022082518000004590              AV 8 L                   CCN000017700000017700FN00000000020221001000017700NNE   20220803120329    1W    00000010000010466200000000032D2    TGYOT-G 000000000000KP228032
BI00B32G0    TZ22111EMW     2022092018007703730              AVSS 0.3F B              CCN000002000000002000FN00000000020221101000002000NNM   20220803143200    1W    00000200000000496000000000032G0    TTTJY   000000000000NE129011
BI00B32G0    TZ22111EMW     2022092018007703760              AVSS 0.3F G              CCN000004000000004000FN00000000020221101000004000NNM   20220803143200    1W    00000200000000496000000000032G0    TTTJY   000000000000NE129012
BI00B32G0    TZ22114EMW     2022101118007703760              AVSS 0.3F G              CCN000002000000002000FN00000000020221101000002000NNM   20220803143200    1W    00000200000000496000000000032G0    TTTJY   000000000000NE429006
BI00B32G0    TZ22111EMW     2022092018007703752              AVSS 0.3F P              CCN000004000000004000FN00000000020221101000004000NNM   20220803143200    1W    00000200000000496000000000032G0    TTTJY   000000000000NE129013
BI00B32G0    TZ22114EMW     2022101118007703750              AVSS 0.3F R              CCN000002000000002000FN00000000020221101000002000NNM   20220803143200    1W    00000200000000496000000000032G0    TTTJY   000000000000NE429007
BI00B32G0    TZ22112EMW     2022092718007703792              AVSS 0.3F V              CCN000004000000004000FN00000000020221101000004000NNM   20220803143200    1W    00000200000000496000000000032G0    TTTJY   000000000000NE229016
BI00B32G2    SA2209A MW     202208241801W006930              IVSSH 0.35F B            CCN000005000000005000FN00000000020220901000005000NNE   20220803133201    1W    00000250000000452000000000032G2    AISUAI  000000000000IO228001
BI00B32G2    SA2209AJMW     20220824180D0204067              AVSSH 0.75F G/Y          CCN000002000000002000FN00000000020220901000002000NNE   20220803133202    1W    00000100000000934000000000032G2    AISUAI  000000000000IO228002
BI00B32G2    SA2209AJMW     202208241801W00395U              IVSSH 0.5F BE            CCN000001800000001800FN00000000020220901000001800NNE   20220803133202    1W    00000180000000625000000000032G2    AISUAI  000000000000IO228003
BI00B32G2    SA2209AJMW     202208241801W004070              IVSSH 0.75F Y            CCN000002600000002600FN00000000020220901000002600NNE   20220803133202    1W    00000130000000882000000000032G2    AISUAI  000000000000IO228006
BI00B32G2    SA2209AJMW     202208241801W004090              IVSSH 0.75F L            CCN000002600000002600FN00000000020220901000002600NNE   20220803133202    1W    00000130000000882000000000032G2    AISUAI  000000000000IO228004
BI00B32G2    SA2209AJMW     202208241801W004092              IVSSH 0.75F V            CCN000003900000003900FN00000000020220901000003900NNE   20220803133202    1W    00000130000000882000000000032G2    AISUAI  000000000000IO228005
BI00B32G2    SA2209AJMW     202208241801W00695U              IVSSH 0.35F BE           CCN000002500000002500FN00000000020220901000002500NNE   20220803133202    1W    00000250000000452000000000032G2    AISUAI  000000000000IO228007
BI00B32G2    SA2209AJMW     202208241801W006970              IVSSH 0.35F Y            CCN000005000000005000FN00000000020220901000005000NNE   20220803133202    1W    00000250000000452000000000032G2    AISUAI  000000000000IO228008
BI00B32G2    @SA2209AJMW    20220831181F21016ZZ              AVSSHCS-S 0.5FX2 B/BR    CCN000002400000002400FN00000000020220901000002400NNE   20220803144222    1W    00000030000002531400000000032G2    AISUAI  000000000000IQ328001
BI00B32G2    SA22101 MW     20220907180D0203790              AVSSH 0.3F L             CCN000002000000002000FN00000000020221001000002000NNM   20220803134854    1W    00000200000000515000000000032G2    AISUAI  000000000000IX428025
BI00B32G2    SA22101 MW     2022090718007704040              AVSS 0.75F W             CCN000002000000002000FN00000000020221001000002000NNM   20220803134854    1W    00000100000000943000000000032G2    AISUAI  000000000000IX428026
BI00B32G2    SA22102 MW     2022091418007704040              AVSS 0.75F W             CCN000001000000001000FN00000000020221001000001000NNM   20220803134854    1W    00000100000000943000000000032G2    AISUAI  000000000000IX528023
BI00B32G2    SA22103 MW     2022092118007704040              AVSS 0.75F W             CCN000001000000001000FN00000000020221001000001000NNM   20220803134854    1W    00000100000000943000000000032G2    AISUAI  000000000000IX129020
BI00B32G2    SA22104 MW     2022092818007704040              AVSS 0.75F W             CCN000001000000001000FN00000000020221001000001000NNM   20220803134854    1W    00000100000000943000000000032G2    AISUAI  000000000000IX229020
BI00B32G2    SA22101 MW     202209071801W003960              IVSSH 0.5F G             CCN000030600000030600FN00000000020221001000030600NNM   20220803134854    1W    00000180000000625000000000032G2    AISUAI  000000000000IX428027
BI00B32G2    SA22102 MW     202209141801W003960              IVSSH 0.5F G             CCN000025200000025200FN00000000020221001000025200NNM   20220803134854    1W    00000180000000625000000000032G2    AISUAI  000000000000IX528024
BI00B32G2    SA22103 MW     202209211801W003960              IVSSH 0.5F G             CCN000018000000018000FN00000000020221001000018000NNM   20220803134854    1W    00000180000000625000000000032G2    AISUAI  000000000000IX129021
BI00B32G2    SA22104 MW     202209281801W003960              IVSSH 0.5F G             CCN000014400000014400FN00000000020221001000014400NNM   20220803134854    1W    00000180000000625000000000032G2    AISUAI  000000000000IX229021
BI00B32G2    SA22101 MW     202209071801W003990              IVSSH 0.5F L             CCN000019800000019800FN00000000020221001000019800NNM   20220803134854    1W    00000180000000625000000000032G2    AISUAI  000000000000IX428028
BI00B32G2    SA22102 MW     202209141801W003990              IVSSH 0.5F L             CCN000018000000018000FN00000000020221001000018000NNM   20220803134854    1W    00000180000000625000000000032G2    AISUAI  000000000000IX528025
BI00B32G2    SA22103 MW     202209211801W003990              IVSSH 0.5F L             CCN000014400000014400FN00000000020221001000014400NNM   20220803134854    1W    00000180000000625000000000032G2    AISUAI  000000000000IX129022
BI00B32G2    SA22104 MW     202209281801W003990              IVSSH 0.5F L             CCN000010800000010800FN00000000020221001000010800NNM   20220803134854    1W    00000180000000625000000000032G2    AISUAI  000000000000IX229022
BI00B32G2    SA22101 MW     202209071801W004030              IVSSH 0.75F B            CCN000006500000006500FN00000000020221001000006500NNM   20220803134854    1W    00000130000000882000000000032G2    AISUAI  000000000000IX428029
BI00B32G2    SA22102 MW     202209141801W004030              IVSSH 0.75F B            CCN000005200000005200FN00000000020221001000005200NNM   20220803134854    1W    00000130000000882000000000032G2    AISUAI  000000000000IX528026
BI00B32G2    SA22103 MW     202209211801W004030              IVSSH 0.75F B            CCN000003900000003900FN00000000020221001000003900NNM   20220803134854    1W    00000130000000882000000000032G2    AISUAI  000000000000IX129023
BI00B32G2    SA22104 MW     202209281801W004030              IVSSH 0.75F B            CCN000002600000002600FN00000000020221001000002600NNM   20220803134854    1W    00000130000000882000000000032G2    AISUAI  000000000000IX229023
BI00B32G2    SA22101 MW     202209071801W004043              IVSSH 0.75F W/B          CCN000005200000005200FN00000000020221001000005200NNM   20220803134854    1W    00000130000000882000000000032G2    AISUAI  000000000000IX428030
BI00B32G2    SA22102 MW     202209141801W004043              IVSSH 0.75F W/B          CCN000005200000005200FN00000000020221001000005200NNM   20220803134854    1W    00000130000000882000000000032G2    AISUAI  000000000000IX528027
BI00B32G2    SA22103 MW     202209211801W004043              IVSSH 0.75F W/B          CCN000003900000003900FN00000000020221001000003900NNM   20220803134854    1W    00000130000000882000000000032G2    AISUAI  000000000000IX129024
BI00B32G2    SA22104 MW     202209281801W004043              IVSSH 0.75F W/B          CCN000002600000002600FN00000000020221001000002600NNM   20220803134854    1W    00000130000000882000000000032G2    AISUAI  000000000000IX229024
BI00B32G2    SA22101 MW     202209071801W006930              IVSSH 0.35F B            CCN000025000000025000FN00000000020221001000025000NNM   20220803134854    1W    00000250000000452000000000032G2    AISUAI  000000000000IX428031
BI00B32G2    SA22102 MW     202209141801W006930              IVSSH 0.35F B            CCN000017500000017500FN00000000020221001000017500NNM   20220803134854    1W    00000250000000452000000000032G2    AISUAI  000000000000IX528028
BI00B32G2    SA22103 MW     202209211801W006930              IVSSH 0.35F B            CCN000012500000012500FN00000000020221001000012500NNM   20220803134854    1W    00000250000000452000000000032G2    AISUAI  000000000000IX129025
BI00B32G2    SA22104 MW     202209281801W006930              IVSSH 0.35F B            CCN000010000000010000FN00000000020221001000010000NNM   20220803134854    1W    00000250000000452000000000032G2    AISUAI  000000000000IX229025
BI00B32G2    SA22101 MW     202209071801W006941              IVSSH 0.35F GY           CCN000012500000012500FN00000000020221001000012500NNM   20220803134854    1W    00000250000000452000000000032G2    AISUAI  000000000000IX428033
BI00B32G2    SA22102 MW     202209141801W006941              IVSSH 0.35F GY           CCN000010000000010000FN00000000020221001000010000NNM   20220803134854    1W    00000250000000452000000000032G2    AISUAI  000000000000IX528030
BI00B32G2    SA22103 MW     202209211801W006941              IVSSH 0.35F GY           CCN000007500000007500FN00000000020221001000007500NNM   20220803134854    1W    00000250000000452000000000032G2    AISUAI  000000000000IX129027
BI00B32G2    SA22104 MW     202209281801W006941              IVSSH 0.35F GY           CCN000005000000005000FN00000000020221001000005000NNM   20220803134854    1W    00000250000000452000000000032G2    AISUAI  000000000000IX229027
BI00B32G2    SA22101 MW     202209071801W006943              IVSSH 0.35F W/B          CCN000002500000002500FN00000000020221001000002500NNM   20220803134854    1W    00000250000000452000000000032G2    AISUAI  000000000000IX428037
BI00B32G2    SA22102 MW     202209141801W006943              IVSSH 0.35F W/B          CCN000002500000002500FN00000000020221001000002500NNM   20220803134854    1W    00000250000000452000000000032G2    AISUAI  000000000000IX528034
BI00B32G2    SA22101 MW     202209071801W006960              IVSSH 0.35F G            CCN000015000000015000FN00000000020221001000015000NNM   20220803134854    1W    00000250000000452000000000032G2    AISUAI  000000000000IX428032
BI00B32G2    SA22102 MW     202209141801W006960              IVSSH 0.35F G            CCN000012500000012500FN00000000020221001000012500NNM   20220803134854    1W    00000250000000452000000000032G2    AISUAI  000000000000IX528029
BI00B32G2    SA22103 MW     202209211801W006960              IVSSH 0.35F G            CCN000007500000007500FN00000000020221001000007500NNM   20220803134854    1W    00000250000000452000000000032G2    AISUAI  000000000000IX129026
BI00B32G2    SA22104 MW     202209281801W006960              IVSSH 0.35F G            CCN000007500000007500FN00000000020221001000007500NNM   20220803134854    1W    00000250000000452000000000032G2    AISUAI  000000000000IX229026
BI00B32G2    SA22101 MW     202209071801W006961              IVSSH 0.35F LG           CCN000005000000005000FN00000000020221001000005000NNM   20220803134854    1W    00000250000000452000000000032G2    AISUAI  000000000000IX428035
BI00B32G2    SA22102 MW     202209141801W006961              IVSSH 0.35F LG           CCN000005000000005000FN00000000020221001000005000NNM   20220803134854    1W    00000250000000452000000000032G2    AISUAI  000000000000IX528032
BI00B32G2    SA22103 MW     202209211801W006961              IVSSH 0.35F LG           CCN000005000000005000FN00000000020221001000005000NNM   20220803134854    1W    00000250000000452000000000032G2    AISUAI  000000000000IX129029
BI00B32G2    SA22104 MW     202209281801W006961              IVSSH 0.35F LG           CCN000002500000002500FN00000000020221001000002500NNM   20220803134854    1W    00000250000000452000000000032G2    AISUAI  000000000000IX229029
BI00B32G2    SA22101 MW     202209071801W006990              IVSSH 0.35F L            CCN000017500000017500FN00000000020221001000017500NNM   20220803134854    1W    00000250000000452000000000032G2    AISUAI  000000000000IX428034
BI00B32G2    SA22102 MW     202209141801W006990              IVSSH 0.35F L            CCN000012500000012500FN00000000020221001000012500NNM   20220803134854    1W    00000250000000452000000000032G2    AISUAI  000000000000IX528031
BI00B32G2    SA22103 MW     202209211801W006990              IVSSH 0.35F L            CCN000010000000010000FN00000000020221001000010000NNM   20220803134854    1W    00000250000000452000000000032G2    AISUAI  000000000000IX129028
BI00B32G2    SA22104 MW     202209281801W006990              IVSSH 0.35F L            CCN000007500000007500FN00000000020221001000007500NNM   20220803134854    1W    00000250000000452000000000032G2    AISUAI  000000000000IX229028
BI00B32G2    SA22101 MW     202209071801W006992              IVSSH 0.35F V            CCN000012500000012500FN00000000020221001000012500NNM   20220803134854    1W    00000250000000452000000000032G2    AISUAI  000000000000IX428036
BI00B32G2    SA22102 MW     202209141801W006992              IVSSH 0.35F V            CCN000010000000010000FN00000000020221001000010000NNM   20220803134854    1W    00000250000000452000000000032G2    AISUAI  000000000000IX528033
BI00B32G2    SA22103 MW     202209211801W006992              IVSSH 0.35F V            CCN000007500000007500FN00000000020221001000007500NNM   20220803134854    1W    00000250000000452000000000032G2    AISUAI  000000000000IX129030
BI00B32G2    SA22104 MW     202209281801W006992              IVSSH 0.35F V            CCN000007500000007500FN00000000020221001000007500NNM   20220803134854    1W    00000250000000452000000000032G2    AISUAI  000000000000IX229030
BI00B32G2    @SA22101 MW    20220907181B32102S1              AVSSCS 0.5FX2 DGY        CCN000000300000000300FN00000000020221001000000300NNM   20220803134849    1W    00000030000002903000000000032G2    AISUAI  000000000000IX428004
BI00B32G2    @SA22102 MW    20220914181B32102S1              AVSSCS 0.5FX2 DGY        CCN000000300000000300FN00000000020221001000000300NNM   20220803134849    1W    00000030000002903000000000032G2    AISUAI  000000000000IX528004
BI00B32G2    @SA22101 MW    20220907181B32102Y6              AVSSCS 0.5FX2 DGY/G      CCN000000300000000300FN00000000020221001000000300NNM   20220803134849    1W    00000030000002903000000000032G2    AISUAI  000000000000IX428005
BI00B32G2    @SA22102 MW    20220914181B32102Y6              AVSSCS 0.5FX2 DGY/G      CCN000000300000000300FN00000000020221001000000300NNM   20220803134849    1W    00000030000002903000000000032G2    AISUAI  000000000000IX528005
BI00B32G2    @SA22101 MW    20220907181D6903930              AVSSHCS 0.5FX1 B         CCN000000400000000400FN00000000020221001000000400NNM   20220803134849    1W    00000040000002285000000000032G2    AISUAI  000000000000IX428006
BI00B32G2    @SA22102 MW    20220914181D6903930              AVSSHCS 0.5FX1 B         CCN000000400000000400FN00000000020221001000000400NNM   20220803134849    1W    00000040000002285000000000032G2    AISUAI  000000000000IX528006
BI00B32G2    @SA22101 MW    20220907181D6910230              AVSSHCS 0.5FX2 B         CCN000003900000003900FN00000000020221001000003900NNM   20220803134849    1W    00000030000002385000000000032G2    AISUAI  000000000000IX428007
BI00B32G2    @SA22102 MW    20220914181D6910230              AVSSHCS 0.5FX2 B         CCN000002700000002700FN00000000020221001000002700NNM   20220803134849    1W    00000030000002385000000000032G2    AISUAI  000000000000IX528007
BI00B32G2    @SA22103 MW    20220921181D6910230              AVSSHCS 0.5FX2 B         CCN000002100000002100FN00000000020221001000002100NNM   20220803134849    1W    00000030000002385000000000032G2    AISUAI  000000000000IX129004
BI00B32G2    @SA22104 MW    20220928181D6910230              AVSSHCS 0.5FX2 B         CCN000001800000001800FN00000000020221001000001800NNM   20220803134849    1W    00000030000002385000000000032G2    AISUAI  000000000000IX229004
BI00B32G2    @SA22101 MW    20220907181D6910235              AVSSHCS 0.5FX2 B/R       CCN000000300000000300FN00000000020221001000000300NNM   20220803134849    1W    00000030000002385000000000032G2    AISUAI  000000000000IX428008
BI00B32G2    @SA22101 MW    20220907181D6910237              AVSSHCS 0.5FX2 B/Y       CCN000000300000000300FN00000000020221001000000300NNM   20220803134849    1W    00000030000002385000000000032G2    AISUAI  000000000000IX428009
BI00B32G2    @SA22101 MW    20220907181E50007ZZ              AVSSCS-S 0.5FX1 DGY/L    CCN000004000000004000FN00000000020221001000004000NNM   20220803134849    1W    00000040000001909700000000032G2    AISUAI  000000000000IX428010
BI00B32G2    @SA22102 MW    20220914181E50007ZZ              AVSSCS-S 0.5FX1 DGY/L    CCN000003200000003200FN00000000020221001000003200NNM   20220803134849    1W    00000040000001909700000000032G2    AISUAI  000000000000IX528008
BI00B32G2    @SA22103 MW    20220921181E50007ZZ              AVSSCS-S 0.5FX1 DGY/L    CCN000002400000002400FN00000000020221001000002400NNM   20220803134849    1W    00000040000001909700000000032G2    AISUAI  000000000000IX129005
BI00B32G2    @SA22104 MW    20220928181E50007ZZ              AVSSCS-S 0.5FX1 DGY/L    CCN000001600000001600FN00000000020221001000001600NNM   20220803134849    1W    00000040000001909700000000032G2    AISUAI  000000000000IX229005
BI00B32G2    @SA22101 MW    20220907181E50016ZZ              AVSSCS-S 0.5FX2 DGY/R    CCN000003600000003600FN00000000020221001000003600NNM   20220803134849    1W    00000030000003096000000000032G2    AISUAI  000000000000IX428011
BI00B32G2    @SA22102 MW    20220914181E50016ZZ              AVSSCS-S 0.5FX2 DGY/R    CCN000002400000002400FN00000000020221001000002400NNM   20220803134849    1W    00000030000003096000000000032G2    AISUAI  000000000000IX528009
BI00B32G2    @SA22103 MW    20220921181E50016ZZ              AVSSCS-S 0.5FX2 DGY/R    CCN000001800000001800FN00000000020221001000001800NNM   20220803134849    1W    00000030000003096000000000032G2    AISUAI  000000000000IX129006
BI00B32G2    @SA22104 MW    20220928181E50016ZZ              AVSSCS-S 0.5FX2 DGY/R    CCN000001500000001500FN00000000020221001000001500NNM   20220803134849    1W    00000030000003096000000000032G2    AISUAI  000000000000IX229006
BI00B32G2    @SA22101 MW    20220907181F21009ZZ              AVSSHCS-S 0.5FX2 B       CCN000007500000007500FN00000000020221001000007500NNM   20220803134849    1W    00000030000002531400000000032G2    AISUAI  000000000000IX428012
BI00B32G2    @SA22102 MW    20220914181F21009ZZ              AVSSHCS-S 0.5FX2 B       CCN000006600000006600FN00000000020221001000006600NNM   20220803134849    1W    00000030000002531400000000032G2    AISUAI  000000000000IX528010
BI00B32G2    @SA22103 MW    20220921181F21009ZZ              AVSSHCS-S 0.5FX2 B       CCN000006000000006000FN00000000020221001000006000NNM   20220803134849    1W    00000030000002531400000000032G2    AISUAI  000000000000IX129007
BI00B32G2    @SA22104 MW    20220928181F21009ZZ              AVSSHCS-S 0.5FX2 B       CCN000004500000004500FN00000000020221001000004500NNM   20220803134849    1W    00000030000002531400000000032G2    AISUAI  000000000000IX229007
BI00B32G2    SA22101HMW     202209071801W006980              IVSSH 0.35F BR           CCN000007500000007500FN00000000020221001000007500NNM   20220803134855    1W    00000250000000452000000000032G2    AISUAI  000000000000IY428006
BI00B32G2    SA22102HMW     202209141801W006980              IVSSH 0.35F BR           CCN000005000000005000FN00000000020221001000005000NNM   20220803134855    1W    00000250000000452000000000032G2    AISUAI  000000000000IY528006
BI00B32G2    SA22103HMW     202209211801W006980              IVSSH 0.35F BR           CCN000005000000005000FN00000000020221001000005000NNM   20220803134855    1W    00000250000000452000000000032G2    AISUAI  000000000000IY129006
BI00B32G2    SA22104HMW     202209281801W006980              IVSSH 0.35F BR           CCN000005000000005000FN00000000020221001000005000NNM   20220803134855    1W    00000250000000452000000000032G2    AISUAI  000000000000IY229006
BI00B32G2    @SA22101HMW    20220907181B32116Z5              AVSSCS 0.3FX2 DGY/L      CCN000000700000000700FN00000000020221001000000700NNM   20220803134850    1W    00000035000002276000000000032G2    AISUAI  000000000000IY428005
BI00B32G2    @SA22102HMW    20220914181B32116Z5              AVSSCS 0.3FX2 DGY/L      CCN000000700000000700FN00000000020221001000000700NNM   20220803134850    1W    00000035000002276000000000032G2    AISUAI  000000000000IY528005
BI00B32G2    @SA22103HMW    20220921181B32116Z5              AVSSCS 0.3FX2 DGY/L      CCN000000350000000350FN00000000020221001000000350NNM   20220803134850    1W    00000035000002276000000000032G2    AISUAI  000000000000IY129005
BI00B32G2    @SA22104HMW    20220928181B32116Z5              AVSSCS 0.3FX2 DGY/L      CCN000000350000000350FN00000000020221001000000350NNM   20220803134850    1W    00000035000002276000000000032G2    AISUAI  000000000000IY229005
BI00B32G2    SA22101JMW     2022090718007704170              AVSS 1.25F Y             CCN000000800000000800FN00000000020221001000000800NNM   20220803134856    1W    00000080000001389000000000032G2    AISUAI  000000000000IZ428009
BI00B32G2    SA22102JMW     2022091418007704170              AVSS 1.25F Y             CCN000000800000000800FN00000000020221001000000800NNM   20220803134856    1W    00000080000001389000000000032G2    AISUAI  000000000000IZ528008
BI00B32G2    SA22101JMW     202209071801W003930              IVSSH 0.5F B             CCN000021600000021600FN00000000020221001000021600NNM   20220803134856    1W    00000180000000625000000000032G2    AISUAI  000000000000IZ428010
BI00B32G2    SA22102JMW     202209141801W003930              IVSSH 0.5F B             CCN000016200000016200FN00000000020221001000016200NNM   20220803134856    1W    00000180000000625000000000032G2    AISUAI  000000000000IZ528009
BI00B32G2    SA22103JMW     202209211801W003930              IVSSH 0.5F B             CCN000010800000010800FN00000000020221001000010800NNM   20220803134856    1W    00000180000000625000000000032G2    AISUAI  000000000000IZ129008
BI00B32G2    SA22104JMW     202209281801W003930              IVSSH 0.5F B             CCN000009000000009000FN00000000020221001000009000NNM   20220803134856    1W    00000180000000625000000000032G2    AISUAI  000000000000IZ229005
BI00B32G2    SA22101JMW     202209071801W003940              IVSSH 0.5F W             CCN000021600000021600FN00000000020221001000021600NNM   20220803134856    1W    00000180000000625000000000032G2    AISUAI  000000000000IZ428017
BI00B32G2    SA22102JMW     202209141801W003940              IVSSH 0.5F W             CCN000014400000014400FN00000000020221001000014400NNM   20220803134856    1W    00000180000000625000000000032G2    AISUAI  000000000000IZ528016
BI00B32G2    SA22103JMW     202209211801W003940              IVSSH 0.5F W             CCN000010800000010800FN00000000020221001000010800NNM   20220803134856    1W    00000180000000625000000000032G2    AISUAI  000000000000IZ129014
BI00B32G2    SA22104JMW     202209281801W003940              IVSSH 0.5F W             CCN000009000000009000FN00000000020221001000009000NNM   20220803134856    1W    00000180000000625000000000032G2    AISUAI  000000000000IZ229011
BI00B32G2    SA22101JMW     202209071801W003941              IVSSH 0.5F GY            CCN000005400000005400FN00000000020221001000005400NNM   20220803134856    1W    00000180000000625000000000032G2    AISUAI  000000000000IZ428012
BI00B32G2    SA22102JMW     202209141801W003941              IVSSH 0.5F GY            CCN000003600000003600FN00000000020221001000003600NNM   20220803134856    1W    00000180000000625000000000032G2    AISUAI  000000000000IZ528011
BI00B32G2    SA22103JMW     202209211801W003941              IVSSH 0.5F GY            CCN000003600000003600FN00000000020221001000003600NNM   20220803134856    1W    00000180000000625000000000032G2    AISUAI  000000000000IZ129010
BI00B32G2    SA22104JMW     202209281801W003941              IVSSH 0.5F GY            CCN000001800000001800FN00000000020221001000001800NNM   20220803134856    1W    00000180000000625000000000032G2    AISUAI  000000000000IZ229007
BI00B32G2    SA22101JMW     202209071801W003943              IVSSH 0.5F W/B           CCN000003600000003600FN00000000020221001000003600NNM   20220803134856    1W    00000180000000625000000000032G2    AISUAI  000000000000IZ428018
BI00B32G2    SA22102JMW     202209141801W003943              IVSSH 0.5F W/B           CCN000003600000003600FN00000000020221001000003600NNM   20220803134856    1W    00000180000000625000000000032G2    AISUAI  000000000000IZ528017
BI00B32G2    SA22103JMW     202209211801W003943              IVSSH 0.5F W/B           CCN000003600000003600FN00000000020221001000003600NNM   20220803134856    1W    00000180000000625000000000032G2    AISUAI  000000000000IZ129015
BI00B32G2    SA22104JMW     202209281801W003943              IVSSH 0.5F W/B           CCN000001800000001800FN00000000020221001000001800NNM   20220803134856    1W    00000180000000625000000000032G2    AISUAI  000000000000IZ229012
BI00B32G2    SA22101JMW     202209071801W003950              IVSSH 0.5F R             CCN000021600000021600FN00000000020221001000021600NNM   20220803134856    1W    00000180000000625000000000032G2    AISUAI  000000000000IZ428015
BI00B32G2    SA22102JMW     202209141801W003950              IVSSH 0.5F R             CCN000016200000016200FN00000000020221001000016200NNM   20220803134856    1W    00000180000000625000000000032G2    AISUAI  000000000000IZ528014
BI00B32G2    SA22103JMW     202209211801W003950              IVSSH 0.5F R             CCN000012600000012600FN00000000020221001000012600NNM   20220803134856    1W    00000180000000625000000000032G2    AISUAI  000000000000IZ129012
BI00B32G2    SA22104JMW     202209281801W003950              IVSSH 0.5F R             CCN000010800000010800FN00000000020221001000010800NNM   20220803134856    1W    00000180000000625000000000032G2    AISUAI  000000000000IZ229009
BI00B32G2    SA22101JMW     202209071801W003952              IVSSH 0.5F P             CCN000001800000001800FN00000000020221001000001800NNM   20220803134856    1W    00000180000000625000000000032G2    AISUAI  000000000000IZ428014
BI00B32G2    SA22102JMW     202209141801W003952              IVSSH 0.5F P             CCN000001800000001800FN00000000020221001000001800NNM   20220803134856    1W    00000180000000625000000000032G2    AISUAI  000000000000IZ528013
BI00B32G2    SA22101JMW     202209071801W003961              IVSSH 0.5F LG            CCN000003600000003600FN00000000020221001000003600NNM   20220803134856    1W    00000180000000625000000000032G2    AISUAI  000000000000IZ428013
BI00B32G2    SA22102JMW     202209141801W003961              IVSSH 0.5F LG            CCN000001800000001800FN00000000020221001000001800NNM   20220803134856    1W    00000180000000625000000000032G2    AISUAI  000000000000IZ528012
BI00B32G2    SA22103JMW     202209211801W003961              IVSSH 0.5F LG            CCN000001800000001800FN00000000020221001000001800NNM   20220803134856    1W    00000180000000625000000000032G2    AISUAI  000000000000IZ129011
BI00B32G2    SA22104JMW     202209281801W003961              IVSSH 0.5F LG            CCN000001800000001800FN00000000020221001000001800NNM   20220803134856    1W    00000180000000625000000000032G2    AISUAI  000000000000IZ229008
BI00B32G2    SA22101JMW     202209071801W003970              IVSSH 0.5F Y             CCN000010800000010800FN00000000020221001000010800NNM   20220803134856    1W    00000180000000625000000000032G2    AISUAI  000000000000IZ428019
BI00B32G2    SA22102JMW     202209141801W003970              IVSSH 0.5F Y             CCN000007200000007200FN00000000020221001000007200NNM   20220803134856    1W    00000180000000625000000000032G2    AISUAI  000000000000IZ528018
BI00B32G2    SA22103JMW     202209211801W003970              IVSSH 0.5F Y             CCN000007200000007200FN00000000020221001000007200NNM   20220803134856    1W    00000180000000625000000000032G2    AISUAI  000000000000IZ129016
BI00B32G2    SA22104JMW     202209281801W003970              IVSSH 0.5F Y             CCN000003600000003600FN00000000020221001000003600NNM   20220803134856    1W    00000180000000625000000000032G2    AISUAI  000000000000IZ229013
BI00B32G2    SA22101JMW     202209071801W003980              IVSSH 0.5F BR            CCN000003600000003600FN00000000020221001000003600NNM   20220803134856    1W    00000180000000625000000000032G2    AISUAI  000000000000IZ428011
BI00B32G2    SA22102JMW     202209141801W003980              IVSSH 0.5F BR            CCN000003600000003600FN00000000020221001000003600NNM   20220803134856    1W    00000180000000625000000000032G2    AISUAI  000000000000IZ528010
BI00B32G2    SA22103JMW     202209211801W003980              IVSSH 0.5F BR            CCN000001800000001800FN00000000020221001000001800NNM   20220803134856    1W    00000180000000625000000000032G2    AISUAI  000000000000IZ129009
BI00B32G2    SA22104JMW     202209281801W003980              IVSSH 0.5F BR            CCN000001800000001800FN00000000020221001000001800NNM   20220803134856    1W    00000180000000625000000000032G2    AISUAI  000000000000IZ229006
BI00B32G2    SA22101JMW     202209071801W003992              IVSSH 0.5F V             CCN000005400000005400FN00000000020221001000005400NNM   20220803134856    1W    00000180000000625000000000032G2    AISUAI  000000000000IZ428016
BI00B32G2    SA22102JMW     202209141801W003992              IVSSH 0.5F V             CCN000003600000003600FN00000000020221001000003600NNM   20220803134856    1W    00000180000000625000000000032G2    AISUAI  000000000000IZ528015
BI00B32G2    SA22103JMW     202209211801W003992              IVSSH 0.5F V             CCN000003600000003600FN00000000020221001000003600NNM   20220803134856    1W    00000180000000625000000000032G2    AISUAI  000000000000IZ129013
BI00B32G2    SA22104JMW     202209281801W003992              IVSSH 0.5F V             CCN000003600000003600FN00000000020221001000003600NNM   20220803134856    1W    00000180000000625000000000032G2    AISUAI  000000000000IZ229010
BI00B32G2    SA22101JMW     202209071801W004050              IVSSH 0.75F R            CCN000002600000002600FN00000000020221001000002600NNM   20220803134856    1W    00000130000000882000000000032G2    AISUAI  000000000000IZ428025
BI00B32G2    SA22102JMW     202209141801W004050              IVSSH 0.75F R            CCN000002600000002600FN00000000020221001000002600NNM   20220803134856    1W    00000130000000882000000000032G2    AISUAI  000000000000IZ528023
BI00B32G2    SA22103JMW     202209211801W004050              IVSSH 0.75F R            CCN000001300000001300FN00000000020221001000001300NNM   20220803134856    1W    00000130000000882000000000032G2    AISUAI  000000000000IZ129020
BI00B32G2    SA22104JMW     202209281801W004050              IVSSH 0.75F R            CCN000001300000001300FN00000000020221001000001300NNM   20220803134856    1W    00000130000000882000000000032G2    AISUAI  000000000000IZ229015
BI00B32G2    SA22101JMW     202209071801W004052              IVSSH 0.75F P            CCN000001300000001300FN00000000020221001000001300NNM   20220803134856    1W    00000130000000882000000000032G2    AISUAI  000000000000IZ428024
BI00B32G2    SA22101JMW     202209071801W004060              IVSSH 0.75F G            CCN000005200000005200FN00000000020221001000005200NNM   20220803134856    1W    00000130000000882000000000032G2    AISUAI  000000000000IZ428021
BI00B32G2    SA22102JMW     202209141801W004060              IVSSH 0.75F G            CCN000003900000003900FN00000000020221001000003900NNM   20220803134856    1W    00000130000000882000000000032G2    AISUAI  000000000000IZ528020
BI00B32G2    SA22103JMW     202209211801W004060              IVSSH 0.75F G            CCN000002600000002600FN00000000020221001000002600NNM   20220803134856    1W    00000130000000882000000000032G2    AISUAI  000000000000IZ129018
BI00B32G2    SA22104JMW     202209281801W004060              IVSSH 0.75F G            CCN000002600000002600FN00000000020221001000002600NNM   20220803134856    1W    00000130000000882000000000032G2    AISUAI  000000000000IZ229014
BI00B32G2    SA22101JMW     202209071801W004061              IVSSH 0.75F LG           CCN000001300000001300FN00000000020221001000001300NNM   20220803134856    1W    00000130000000882000000000032G2    AISUAI  000000000000IZ428023
BI00B32G2    SA22102JMW     202209141801W004061              IVSSH 0.75F LG           CCN000001300000001300FN00000000020221001000001300NNM   20220803134856    1W    00000130000000882000000000032G2    AISUAI  000000000000IZ528022
BI00B32G2    SA22103JMW     202209211801W004061              IVSSH 0.75F LG           CCN000001300000001300FN00000000020221001000001300NNM   20220803134856    1W    00000130000000882000000000032G2    AISUAI  000000000000IZ129019
BI00B32G2    SA22101JMW     202209071801W004070              IVSSH 0.75F Y            CCN000001300000001300FN00000000020221001000001300NNM   20220803134856    1W    00000130000000882000000000032G2    AISUAI  000000000000IZ428027
BI00B32G2    SA22101JMW     202209071801W004080              IVSSH 0.75F BR           CCN000001300000001300FN00000000020221001000001300NNM   20220803134856    1W    00000130000000882000000000032G2    AISUAI  000000000000IZ428020
BI00B32G2    SA22102JMW     202209141801W004080              IVSSH 0.75F BR           CCN000001300000001300FN00000000020221001000001300NNM   20220803134856    1W    00000130000000882000000000032G2    AISUAI  000000000000IZ528019
BI00B32G2    SA22103JMW     202209211801W004080              IVSSH 0.75F BR           CCN000001300000001300FN00000000020221001000001300NNM   20220803134856    1W    00000130000000882000000000032G2    AISUAI  000000000000IZ129017
BI00B32G2    SA22101JMW     202209071801W004090              IVSSH 0.75F L            CCN000001300000001300FN00000000020221001000001300NNM   20220803134856    1W    00000130000000882000000000032G2    AISUAI  000000000000IZ428022
BI00B32G2    SA22102JMW     202209141801W004090              IVSSH 0.75F L            CCN000001300000001300FN00000000020221001000001300NNM   20220803134856    1W    00000130000000882000000000032G2    AISUAI  000000000000IZ528021
BI00B32G2    SA22101JMW     202209071801W004092              IVSSH 0.75F V            CCN000001300000001300FN00000000020221001000001300NNM   20220803134856    1W    00000130000000882000000000032G2    AISUAI  000000000000IZ428026
BI00B32G2    SA22101JMW     202209071801W006940              IVSSH 0.35F W            CCN000017500000017500FN00000000020221001000017500NNM   20220803134856    1W    00000250000000452000000000032G2    AISUAI  000000000000IZ428032
BI00B32G2    SA22102JMW     202209141801W006940              IVSSH 0.35F W            CCN000015000000015000FN00000000020221001000015000NNM   20220803134856    1W    00000250000000452000000000032G2    AISUAI  000000000000IZ528027
BI00B32G2    SA22103JMW     202209211801W006940              IVSSH 0.35F W            CCN000012500000012500FN00000000020221001000012500NNM   20220803134856    1W    00000250000000452000000000032G2    AISUAI  000000000000IZ129024
BI00B32G2    SA22104JMW     202209281801W006940              IVSSH 0.35F W            CCN000007500000007500FN00000000020221001000007500NNM   20220803134856    1W    00000250000000452000000000032G2    AISUAI  000000000000IZ229019
BI00B32G2    SA22101JMW     202209071801W00695U              IVSSH 0.35F BE           CCN000002500000002500FN00000000020221001000002500NNM   20220803134856    1W    00000250000000452000000000032G2    AISUAI  000000000000IZ428028
BI00B32G2    SA22101JMW     202209071801W006950              IVSSH 0.35F R            CCN000012500000012500FN00000000020221001000012500NNM   20220803134856    1W    00000250000000452000000000032G2    AISUAI  000000000000IZ428030
BI00B32G2    SA22102JMW     202209141801W006950              IVSSH 0.35F R            CCN000010000000010000FN00000000020221001000010000NNM   20220803134856    1W    00000250000000452000000000032G2    AISUAI  000000000000IZ528025
BI00B32G2    SA22103JMW     202209211801W006950              IVSSH 0.35F R            CCN000007500000007500FN00000000020221001000007500NNM   20220803134856    1W    00000250000000452000000000032G2    AISUAI  000000000000IZ129022
BI00B32G2    SA22104JMW     202209281801W006950              IVSSH 0.35F R            CCN000005000000005000FN00000000020221001000005000NNM   20220803134856    1W    00000250000000452000000000032G2    AISUAI  000000000000IZ229017
BI00B32G2    SA22101JMW     202209071801W006952              IVSSH 0.35F P            CCN000010000000010000FN00000000020221001000010000NNM   20220803134856    1W    00000250000000452000000000032G2    AISUAI  000000000000IZ428029
BI00B32G2    SA22102JMW     202209141801W006952              IVSSH 0.35F P            CCN000007500000007500FN00000000020221001000007500NNM   20220803134856    1W    00000250000000452000000000032G2    AISUAI  000000000000IZ528024
BI00B32G2    SA22103JMW     202209211801W006952              IVSSH 0.35F P            CCN000007500000007500FN00000000020221001000007500NNM   20220803134856    1W    00000250000000452000000000032G2    AISUAI  000000000000IZ129021
BI00B32G2    SA22104JMW     202209281801W006952              IVSSH 0.35F P            CCN000005000000005000FN00000000020221001000005000NNM   20220803134856    1W    00000250000000452000000000032G2    AISUAI  000000000000IZ229016
BI00B32G2    SA22101JMW     202209071801W006970              IVSSH 0.35F Y            CCN000002500000002500FN00000000020221001000002500NNM   20220803134856    1W    00000250000000452000000000032G2    AISUAI  000000000000IZ428033
BI00B32G2    SA22102JMW     202209141801W006970              IVSSH 0.35F Y            CCN000002500000002500FN00000000020221001000002500NNM   20220803134856    1W    00000250000000452000000000032G2    AISUAI  000000000000IZ528028
BI00B32G2    SA22101JMW     202209071801W006991              IVSSH 0.35F SB           CCN000005000000005000FN00000000020221001000005000NNM   20220803134856    1W    00000250000000452000000000032G2    AISUAI  000000000000IZ428031
BI00B32G2    SA22102JMW     202209141801W006991              IVSSH 0.35F SB           CCN000005000000005000FN00000000020221001000005000NNM   20220803134856    1W    00000250000000452000000000032G2    AISUAI  000000000000IZ528026
BI00B32G2    SA22103JMW     202209211801W006991              IVSSH 0.35F SB           CCN000002500000002500FN00000000020221001000002500NNM   20220803134856    1W    00000250000000452000000000032G2    AISUAI  000000000000IZ129023
BI00B32G2    SA22104JMW     202209281801W006991              IVSSH 0.35F SB           CCN000002500000002500FN00000000020221001000002500NNM   20220803134856    1W    00000250000000452000000000032G2    AISUAI  000000000000IZ229018
BI00B32G2    @SA22101JMW    20220907181F21016ZZ              AVSSHCS-S 0.5FX2 B/BR    CCN000001200000001200FN00000000020221001000001200NNM   20220803134852    1W    00000030000002531400000000032G2    AISUAI  000000000000IZ428007
BI00B32G2    SA22101NMW     2022090718007704061              AVSS 0.75F LG            CCN000001000000001000FN00000000020221001000001000NNM   20220803134857    1W    00000100000000943000000000032G2    AISUAI  000000000000IW428003
BI00B32G2    SA22102NMW     2022091418007704061              AVSS 0.75F LG            CCN000001000000001000FN00000000020221001000001000NNM   20220803134857    1W    00000100000000943000000000032G2    AISUAI  000000000000IW528003
BI00B32G2    @SA22101NMW    20220907181B32102Z8              AVSSCS 0.5FX2 DGY/O      CCN000000600000000600FN00000000020221001000000600NNM   20220803134853    1W    00000030000002903000000000032G2    AISUAI  000000000000IW428001
BI00B32G2    @SA22102NMW    20220914181B32102Z8              AVSSCS 0.5FX2 DGY/O      CCN000000600000000600FN00000000020221001000000600NNM   20220803134853    1W    00000030000002903000000000032G2    AISUAI  000000000000IW528001
BI00B32G2    @SA22103NMW    20220921181B32102Z8              AVSSCS 0.5FX2 DGY/O      CCN000000600000000600FN00000000020221001000000600NNM   20220803134853    1W    00000030000002903000000000032G2    AISUAI  000000000000IW129001
BI00B32G2    @SA22104NMW    20220928181B32102Z8              AVSSCS 0.5FX2 DGY/O      CCN000000300000000300FN00000000020221001000000300NNM   20220803134853    1W    00000030000002903000000000032G2    AISUAI  000000000000IW229001
BI00B32G2    @SA22101NMW    20220907181E50012ZZ              AVSSCS-S 0.5FX2 DGY/G    CCN000000300000000300FN00000000020221001000000300NNM   20220803134853    1W    00000030000003096000000000032G2    AISUAI  000000000000IW428002
BI00B32G2    @SA22102NMW    20220914181E50012ZZ              AVSSCS-S 0.5FX2 DGY/G    CCN000000300000000300FN00000000020221001000000300NNM   20220803134853    1W    00000030000003096000000000032G2    AISUAI  000000000000IW528002
BI00B32H2    TAW2102        2022091618000004530              AV 8 B                   CCN000001300000001300FN00000000020221001000001300NNM   20220803120329    1W    00000010000010466200000000032H2    HVYHV   000000000000UH528054
BI00B32H2    TAW2103        2022092318000004530              AV 8 B                   CCN000002600000002600FN00000000020221001000002600NNM   20220803120329    1W    00000010000010466200000000032H2    HVYHV   000000000000UH129060
BI00B32H2    TAW2104        2022093018000004530              AV 8 B                   CCN000002300000002300FN00000000020221001000002300NNM   20220803120329    1W    00000010000010466200000000032H2    HVYHV   000000000000UH229062
BI00B32H2    TAW2105        2022100718000004530              AV 8 B                   CCN000002700000002700FN00000000020221001000002700NNM   20220803120329    1W    00000010000010466200000000032H2    HVYHV   000000000000UH329062
BI00B32H2    TAW2102        2022091618000004540              AV 8 W                   CCN000001400000001400FN00000000020221001000001400NNM   20220803120329    1W    00000010000010466200000000032H2    HVYHV   000000000000UH528055
BI00B32H2    TAW2103        2022092318000004540              AV 8 W                   CCN000002100000002100FN00000000020221001000002100NNM   20220803120329    1W    00000010000010466200000000032H2    HVYHV   000000000000UH129061
BI00B32H2    TAW2104        2022093018000004540              AV 8 W                   CCN000001600000001600FN00000000020221001000001600NNM   20220803120329    1W    00000010000010466200000000032H2    HVYHV   000000000000UH229063
BI00B32H2    TAW2105        2022100718000004540              AV 8 W                   CCN000001800000001800FN00000000020221001000001800NNM   20220803120329    1W    00000010000010466200000000032H2    HVYHV   000000000000UH329063
BI00B32H2    TAW2101        2022090918007704130              AVSS 1.25F B             CCN000000800000000800FN00000000020221001000000800NNM   20220803120329    1W    00000080000001389000000000032H2    HVYHV   000000000000UH428048
BI00B32H2    TAW2102        2022091618007704130              AVSS 1.25F B             CCN000000800000000800FN00000000020221001000000800NNM   20220803120329    1W    00000080000001389000000000032H2    HVYHV   000000000000UH528056
BI00B32H2    TAW2105        2022100718007704130              AVSS 1.25F B             CCN000000800000000800FN00000000020221001000000800NNM   20220803120329    1W    00000080000001389000000000032H2    HVYHV   000000000000UH329064
BI00B32H2    TAW2101        2022090918007704160              AVSS 1.25F G             CCN000000800000000800FN00000000020221001000000800NNM   20220803120329    1W    00000080000001389000000000032H2    HVYHV   000000000000UH428049
BI00B32H2    TAW2101        2022090918007704150              AVSS 1.25F R             CCN000002400000002400FN00000000020221001000002400NNM   20220803120329    1W    00000080000001389000000000032H2    HVYHV   000000000000UH428050
BI00B32H2    TAW2102        2022091618007704150              AVSS 1.25F R             CCN000001600000001600FN00000000020221001000001600NNM   20220803120329    1W    00000080000001389000000000032H2    HVYHV   000000000000UH528057
BI00B32H2    TAW2103        2022092318007704150              AVSS 1.25F R             CCN000001600000001600FN00000000020221001000001600NNM   20220803120329    1W    00000080000001389000000000032H2    HVYHV   000000000000UH129062
BI00B32H2    TAW2104        2022093018007704150              AVSS 1.25F R             CCN000001600000001600FN00000000020221001000001600NNM   20220803120329    1W    00000080000001389000000000032H2    HVYHV   000000000000UH229064
BI00B32H2    TAW2105        2022100718007704150              AVSS 1.25F R             CCN000001600000001600FN00000000020221001000001600NNM   20220803120329    1W    00000080000001389000000000032H2    HVYHV   000000000000UH329065
BI00B32H2    TAW2101        2022090918007704140              AVSS 1.25F W             CCN000003200000003200FN00000000020221001000003200NNM   20220803120329    1W    00000080000001389000000000032H2    HVYHV   000000000000UH428051
BI00B32H2    TAW2102        2022091618007704140              AVSS 1.25F W             CCN000001600000001600FN00000000020221001000001600NNM   20220803120329    1W    00000080000001389000000000032H2    HVYHV   000000000000UH528058
BI00B32H2    TAW2103        2022092318007704140              AVSS 1.25F W             CCN000001600000001600FN00000000020221001000001600NNM   20220803120329    1W    00000080000001389000000000032H2    HVYHV   000000000000UH129063
BI00B32H2    TAW2104        2022093018007704140              AVSS 1.25F W             CCN000002400000002400FN00000000020221001000002400NNM   20220803120329    1W    00000080000001389000000000032H2    HVYHV   000000000000UH229065
BI00B32H2    TAW2105        2022100718007704140              AVSS 1.25F W             CCN000002400000002400FN00000000020221001000002400NNM   20220803120329    1W    00000080000001389000000000032H2    HVYHV   000000000000UH329066
BI00B32H2    TAW2102        2022091618007704143              AVSS 1.25F W/B           CCN000000800000000800FN00000000020221001000000800NNM   20220803120329    1W    00000080000001389000000000032H2    HVYHV   000000000000UH528059
BI00B32H2    TAW2105        2022100718007704143              AVSS 1.25F W/B           CCN000000800000000800FN00000000020221001000000800NNM   20220803120329    1W    00000080000001389000000000032H2    HVYHV   000000000000UH329067
BI00B32H2    TAW2101        20220909180D0203930              AVSSH 0.5F B             CCN000003000000003000FN00000000020221001000003000NNM   20220803120329    1W    00000150000000689000000000032H2    HVYHV   000000000000UH428043
BI00B32H2    TAW2102        20220916180D0203930              AVSSH 0.5F B             CCN000004500000004500FN00000000020221001000004500NNM   20220803120329    1W    00000150000000689000000000032H2    HVYHV   000000000000UH528050
BI00B32H2    TAW2103        20220923180D0203930              AVSSH 0.5F B             CCN000004500000004500FN00000000020221001000004500NNM   20220803120329    1W    00000150000000689000000000032H2    HVYHV   000000000000UH129055
BI00B32H2    TAW2104        20220930180D0203930              AVSSH 0.5F B             CCN000003000000003000FN00000000020221001000003000NNM   20220803120329    1W    00000150000000689000000000032H2    HVYHV   000000000000UH229055
BI00B32H2    TAW2105        20221007180D0203930              AVSSH 0.5F B             CCN000004500000004500FN00000000020221001000004500NNM   20220803120329    1W    00000150000000689000000000032H2    HVYHV   000000000000UH329058
BI00B32H2    TAW2101        20220909180D0203980              AVSSH 0.5F BR            CCN000001500000001500FN00000000020221001000001500NNM   20220803120329    1W    00000150000000689000000000032H2    HVYHV   000000000000UH428044
BI00B32H2    TAW2104        20220930180D0203980              AVSSH 0.5F BR            CCN000001500000001500FN00000000020221001000001500NNM   20220803120329    1W    00000150000000689000000000032H2    HVYHV   000000000000UH229056
BI00B32H2    TAW2102        20220916180D0203950              AVSSH 0.5F R             CCN000001500000001500FN00000000020221001000001500NNM   20220803120329    1W    00000150000000689000000000032H2    HVYHV   000000000000UH528051
BI00B32H2    TAW2103        20220923180D0203950              AVSSH 0.5F R             CCN000001500000001500FN00000000020221001000001500NNM   20220803120329    1W    00000150000000689000000000032H2    HVYHV   000000000000UH129056
BI00B32H2    TAW2104        20220930180D0203950              AVSSH 0.5F R             CCN000001500000001500FN00000000020221001000001500NNM   20220803120329    1W    00000150000000689000000000032H2    HVYHV   000000000000UH229057
BI00B32H2    TAW2105        20221007180D0203950              AVSSH 0.5F R             CCN000001500000001500FN00000000020221001000001500NNM   20220803120329    1W    00000150000000689000000000032H2    HVYHV   000000000000UH329059
BI00B32H2    TAW2102        20220916180D0203943              AVSSH 0.5F W/B           CCN000003000000003000FN00000000020221001000003000NNM   20220803120329    1W    00000150000000689000000000032H2    HVYHV   000000000000UH528052
BI00B32H2    TAW2103        20220923180D0203943              AVSSH 0.5F W/B           CCN000001500000001500FN00000000020221001000001500NNM   20220803120329    1W    00000150000000689000000000032H2    HVYHV   000000000000UH129057
BI00B32H2    TAW2104        20220930180D0203943              AVSSH 0.5F W/B           CCN000003000000003000FN00000000020221001000003000NNM   20220803120329    1W    00000150000000689000000000032H2    HVYHV   000000000000UH229058
BI00B32H2    TAW2105        20221007180D0203943              AVSSH 0.5F W/B           CCN000001500000001500FN00000000020221001000001500NNM   20220803120329    1W    00000150000000689000000000032H2    HVYHV   000000000000UH329060
BI00B32H2    TAW2104        20220930180D0203970              AVSSH 0.5F Y             CCN000001500000001500FN00000000020221001000001500NNM   20220803120329    1W    00000150000000689000000000032H2    HVYHV   000000000000UH229059
BI00B32H2    TAW2104        20220930180D0204043              AVSSH 0.75F W/B          CCN000001000000001000FN00000000020221001000001000NNM   20220803120329    1W    00000100000000934000000000032H2    HVYHV   000000000000UH229060
BI00B32H2    TAW2101        20220909180D0204180              AVSSH 1.25F BR           CCN000000800000000800FN00000000020221001000000800NNM   20220803120329    1W    00000080000001458000000000032H2    HVYHV   000000000000UH428045
BI00B32H2    TAW2103        20220923180D0204180              AVSSH 1.25F BR           CCN000000800000000800FN00000000020221001000000800NNM   20220803120329    1W    00000080000001458000000000032H2    HVYHV   000000000000UH129058
BI00B32H2    TAW2101        20220909180D0204190              AVSSH 1.25F L            CCN000000800000000800FN00000000020221001000000800NNM   20220803120329    1W    00000080000001458000000000032H2    HVYHV   000000000000UH428046
BI00B32H2    TAW2101        20220909180D0204143              AVSSH 1.25F W/B          CCN000000800000000800FN00000000020221001000000800NNM   20220803120329    1W    00000080000001458000000000032H2    HVYHV   000000000000UH428047
BI00B32H2    TAW2103        20220923180D0204143              AVSSH 1.25F W/B          CCN000000800000000800FN00000000020221001000000800NNM   20220803120329    1W    00000080000001458000000000032H2    HVYHV   000000000000UH129059
BI00B32H2    TAW2105        20221007180D0204143              AVSSH 1.25F W/B          CCN000000800000000800FN00000000020221001000000800NNM   20220803120329    1W    00000080000001458000000000032H2    HVYHV   000000000000UH329061
BI00B32H2    TAW2102        20220916180D0204170              AVSSH 1.25F Y            CCN000000800000000800FN00000000020221001000000800NNM   20220803120329    1W    00000080000001458000000000032H2    HVYHV   000000000000UH528053
BI00B32H2    TAW2104        20220930180D0204170              AVSSH 1.25F Y            CCN000000800000000800FN00000000020221001000000800NNM   20220803120329    1W    00000080000001458000000000032H2    HVYHV   000000000000UH229061
BI00B32H2    @TAW2103       20220923181B32102S1              AVSSCS 0.5FX2 DGY        CCN000003900000003900FN00000000020221001000003900NNM   20220803120329    1W    00000030000002903000000000032H2    HVYHV   000000000000UH129052
BI00B32H2    @TAW2104       20220930181B32102S1              AVSSCS 0.5FX2 DGY        CCN000007200000007200FN00000000020221001000007200NNM   20220803120329    1W    00000030000002903000000000032H2    HVYHV   000000000000UH229052
BI00B32H2    @TAW2105       20221007181B32102S1              AVSSCS 0.5FX2 DGY        CCN000006900000006900FN00000000020221001000006900NNM   20220803120329    1W    00000030000002903000000000032H2    HVYHV   000000000000UH329055
BI00B32H2    @TAW2101       20220909181D6910230              AVSSHCS 0.5FX2 B         CCN000000300000000300FN00000000020221001000000300NNM   20220803120329    1W    00000030000002385000000000032H2    HVYHV   000000000000UH428041
BI00B32H2    @TAW2102       20220916181D6910230              AVSSHCS 0.5FX2 B         CCN000000600000000600FN00000000020221001000000600NNM   20220803120329    1W    00000030000002385000000000032H2    HVYHV   000000000000UH528048
BI00B32H2    @TAW2103       20220923181D6910230              AVSSHCS 0.5FX2 B         CCN000000600000000600FN00000000020221001000000600NNM   20220803120329    1W    00000030000002385000000000032H2    HVYHV   000000000000UH129053
BI00B32H2    @TAW2104       20220930181D6910230              AVSSHCS 0.5FX2 B         CCN000000600000000600FN00000000020221001000000600NNM   20220803120329    1W    00000030000002385000000000032H2    HVYHV   000000000000UH229053
BI00B32H2    @TAW2105       20221007181D6910230              AVSSHCS 0.5FX2 B         CCN000001200000001200FN00000000020221001000001200NNM   20220803120329    1W    00000030000002385000000000032H2    HVYHV   000000000000UH329056
BI00B32H2    @TAW2101       20220909181F21002ZZ              AVSSHCS-S 0.5FX1 B       CCN000002400000002400FN00000000020221001000002400NNM   20220803120329    1W    00000040000001908400000000032H2    HVYHV   000000000000UH428042
BI00B32H2    @TAW2102       20220916181F21002ZZ              AVSSHCS-S 0.5FX1 B       CCN000006800000006800FN00000000020221001000006800NNM   20220803120329    1W    00000040000001908400000000032H2    HVYHV   000000000000UH528049
BI00B32H2    @TAW2103       20220923181F21002ZZ              AVSSHCS-S 0.5FX1 B       CCN000006400000006400FN00000000020221001000006400NNM   20220803120329    1W    00000040000001908400000000032H2    HVYHV   000000000000UH129054
BI00B32H2    @TAW2104       20220930181F21002ZZ              AVSSHCS-S 0.5FX1 B       CCN000006000000006000FN00000000020221001000006000NNM   20220803120329    1W    00000040000001908400000000032H2    HVYHV   000000000000UH229054
BI00B32H2    @TAW2105       20221007181F21002ZZ              AVSSHCS-S 0.5FX1 B       CCN000004800000004800FN00000000020221001000004800NNM   20220803120329    1W    00000040000001908400000000032H2    HVYHV   000000000000UH329057
BI00B32H2    @TAW2102       20220916181AD2001ZZ              CIVUSAS-S 0.35X1 B       CCN000007150000007150FN00000000020221001000007150NNM   20220803120329    1W    00000055000001540800000000032H2    HVYHV   000000000000UH528043
BI00B32H2    @TAW2103       20220923181AD2001ZZ              CIVUSAS-S 0.35X1 B       CCN000012100000012100FN00000000020221001000012100NNM   20220803120329    1W    00000055000001540800000000032H2    HVYHV   000000000000UH129047
BI00B32H2    @TAW2104       20220930181AD2001ZZ              CIVUSAS-S 0.35X1 B       CCN000014300000014300FN00000000020221001000014300NNM   20220803120329    1W    00000055000001540800000000032H2    HVYHV   000000000000UH229047
BI00B32H2    @TAW2105       20221007181AD2001ZZ              CIVUSAS-S 0.35X1 B       CCN000014300000014300FN00000000020221001000014300NNM   20220803120329    1W    00000055000001540800000000032H2    HVYHV   000000000000UH329050
BI00B32H2    @TAW2102       20220916181AD2002ZZ              CIVUSAS-S 0.35X2 B       CCN000011700000011700FN00000000020221001000011700NNM   20220803120329    1W    00000045000001713700000000032H2    HVYHV   000000000000UH528045
BI00B32H2    @TAW2103       20220923181AD2002ZZ              CIVUSAS-S 0.35X2 B       CCN000014400000014400FN00000000020221001000014400NNM   20220803120329    1W    00000045000001713700000000032H2    HVYHV   000000000000UH129049
BI00B32H2    @TAW2104       20220930181AD2002ZZ              CIVUSAS-S 0.35X2 B       CCN000015300000015300FN00000000020221001000015300NNM   20220803120329    1W    00000045000001713700000000032H2    HVYHV   000000000000UH229049
BI00B32H2    @TAW2105       20221007181AD2002ZZ              CIVUSAS-S 0.35X2 B       CCN000014400000014400FN00000000020221001000014400NNM   20220803120329    1W    00000045000001713700000000032H2    HVYHV   000000000000UH329052
BI00B32H2    @TAW2101       20220909181AD2003ZZ              CIVUSAS-S 0.35X3 B       CCN000021700000021700FN00000000020221001000021700NNM   20220803120329    1W    00000035000002172100000000032H2    HVYHV   000000000000UH428039
BI00B32H2    @TAW2102       20220916181AD2003ZZ              CIVUSAS-S 0.35X3 B       CCN000040950000040950FN00000000020221001000040950NNM   20220803120329    1W    00000035000002172100000000032H2    HVYHV   000000000000UH528046
BI00B32H2    @TAW2103       20220923181AD2003ZZ              CIVUSAS-S 0.35X3 B       CCN000046900000046900FN00000000020221001000046900NNM   20220803120329    1W    00000035000002172100000000032H2    HVYHV   000000000000UH129050
BI00B32H2    @TAW2104       20220930181AD2003ZZ              CIVUSAS-S 0.35X3 B       CCN000046550000046550FN00000000020221001000046550NNM   20220803120329    1W    00000035000002172100000000032H2    HVYHV   000000000000UH229050
BI00B32H2    @TAW2105       20221007181AD2003ZZ              CIVUSAS-S 0.35X3 B       CCN000045500000045500FN00000000020221001000045500NNM   20220803120329    1W    00000035000002172100000000032H2    HVYHV   000000000000UH329053
BI00B32H2    @TAW2101       20220909181AD2004ZZ              CIVUSAS-S 0.35X4 B       CCN000018300000018300FN00000000020221001000018300NNM   20220803120329    1W    00000030000002799900000000032H2    HVYHV   000000000000UH428040
BI00B32H2    @TAW2102       20220916181AD2004ZZ              CIVUSAS-S 0.35X4 B       CCN000036600000036600FN00000000020221001000036600NNM   20220803120329    1W    00000030000002799900000000032H2    HVYHV   000000000000UH528047
BI00B32H2    @TAW2103       20220923181AD2004ZZ              CIVUSAS-S 0.35X4 B       CCN000042900000042900FN00000000020221001000042900NNM   20220803120329    1W    00000030000002799900000000032H2    HVYHV   000000000000UH129051
BI00B32H2    @TAW2104       20220930181AD2004ZZ              CIVUSAS-S 0.35X4 B       CCN000042000000042000FN00000000020221001000042000NNM   20220803120329    1W    00000030000002799900000000032H2    HVYHV   000000000000UH229051
BI00B32H2    @TAW2105       20221007181AD2004ZZ              CIVUSAS-S 0.35X4 B       CCN000043500000043500FN00000000020221001000043500NNM   20220803120329    1W    00000030000002799900000000032H2    HVYHV   000000000000UH329054
BI00B32H2    @TAW2101       20220909181AD2008ZZ              CIVUSAS-S 0.5X2 B        CCN000006400000006400FN00000000020221001000006400NNM   20220803120329    1W    00000040000002028000000000032H2    HVYHV   000000000000UH428038
BI00B32H2    @TAW2102       20220916181AD2008ZZ              CIVUSAS-S 0.5X2 B        CCN000018000000018000FN00000000020221001000018000NNM   20220803120329    1W    00000040000002028000000000032H2    HVYHV   000000000000UH528044
BI00B32H2    @TAW2103       20220923181AD2008ZZ              CIVUSAS-S 0.5X2 B        CCN000021200000021200FN00000000020221001000021200NNM   20220803120329    1W    00000040000002028000000000032H2    HVYHV   000000000000UH129048
BI00B32H2    @TAW2104       20220930181AD2008ZZ              CIVUSAS-S 0.5X2 B        CCN000023200000023200FN00000000020221001000023200NNM   20220803120329    1W    00000040000002028000000000032H2    HVYHV   000000000000UH229048
BI00B32H2    @TAW2105       20221007181AD2008ZZ              CIVUSAS-S 0.5X2 B        CCN000023600000023600FN00000000020221001000023600NNM   20220803120329    1W    00000040000002028000000000032H2    HVYHV   000000000000UH329051
BI00B32H2    @TAW2101       20220909181AD2023ZZ              CIVUSAS-S 0.13X2 B       CCN000007800000007800FN00000000020221001000007800NNM   20220803120329    1W    00000060000001031100000000032H2    HVYHV   000000000000UH428035
BI00B32H2    @TAW2102       20220916181AD2023ZZ              CIVUSAS-S 0.13X2 B       CCN000009000000009000FN00000000020221001000009000NNM   20220803120329    1W    00000060000001031100000000032H2    HVYHV   000000000000UH528040
BI00B32H2    @TAW2103       20220923181AD2023ZZ              CIVUSAS-S 0.13X2 B       CCN000009000000009000FN00000000020221001000009000NNM   20220803120329    1W    00000060000001031100000000032H2    HVYHV   000000000000UH129043
BI00B32H2    @TAW2104       20220930181AD2023ZZ              CIVUSAS-S 0.13X2 B       CCN000009000000009000FN00000000020221001000009000NNM   20220803120329    1W    00000060000001031100000000032H2    HVYHV   000000000000UH229044
BI00B32H2    @TAW2105       20221007181AD2023ZZ              CIVUSAS-S 0.13X2 B       CCN000007200000007200FN00000000020221001000007200NNM   20220803120329    1W    00000060000001031100000000032H2    HVYHV   000000000000UH329047
BI00B32H2    @TAW2101       20220909181AD2024ZZ              CIVUSAS-S 0.13X3 B       CCN000004000000004000FN00000000020221001000004000NNM   20220803120329    1W    00000050000001297300000000032H2    HVYHV   000000000000UH428036
BI00B32H2    @TAW2102       20220916181AD2024ZZ              CIVUSAS-S 0.13X3 B       CCN000004500000004500FN00000000020221001000004500NNM   20220803120329    1W    00000050000001297300000000032H2    HVYHV   000000000000UH528041
BI00B32H2    @TAW2103       20220923181AD2024ZZ              CIVUSAS-S 0.13X3 B       CCN000004500000004500FN00000000020221001000004500NNM   20220803120329    1W    00000050000001297300000000032H2    HVYHV   000000000000UH129044
BI00B32H2    @TAW2104       20220930181AD2024ZZ              CIVUSAS-S 0.13X3 B       CCN000004500000004500FN00000000020221001000004500NNM   20220803120329    1W    00000050000001297300000000032H2    HVYHV   000000000000UH229045
BI00B32H2    @TAW2105       20221007181AD2024ZZ              CIVUSAS-S 0.13X3 B       CCN000003000000003000FN00000000020221001000003000NNM   20220803120329    1W    00000050000001297300000000032H2    HVYHV   000000000000UH329048
BI00B32H2    @TAW2102       20220916181AD2025ZZ              CIVUSAS-S 0.13X4 B       CCN000000400000000400FN00000000020221001000000400NNM   20220803120329    1W    00000040000001661800000000032H2    HVYHV   000000000000UH528042
BI00B32H2    @TAW2103       20220923181AD2025ZZ              CIVUSAS-S 0.13X4 B       CCN000000800000000800FN00000000020221001000000800NNM   20220803120329    1W    00000040000001661800000000032H2    HVYHV   000000000000UH129045
BI00B32H2    @TAW2104       20220930181AD2025ZZ              CIVUSAS-S 0.13X4 B       CCN000001200000001200FN00000000020221001000001200NNM   20220803120329    1W    00000040000001661800000000032H2    HVYHV   000000000000UH229046
BI00B32H2    @TAW2105       20221007181AD2025ZZ              CIVUSAS-S 0.13X4 B       CCN000000800000000800FN00000000020221001000000800NNM   20220803120329    1W    00000040000001661800000000032H2    HVYHV   000000000000UH329049
BI00B32H2    @TAW2101       20220909181AD2026ZZ              CIVUSAS-S 0.13X6 B       CCN000000300000000300FN00000000020221001000000300NNM   20220803120329    1W    00000030000002258300000000032H2    HVYHV   000000000000UH428037
BI00B32H2    @TAW2103       20220923181AD2026ZZ              CIVUSAS-S 0.13X6 B       CCN000000300000000300FN00000000020221001000000300NNM   20220803120329    1W    00000030000002258300000000032H2    HVYHV   000000000000UH129046
BI00B32M1    TV208A         2022082518007703730              AVSS 0.3F B              CCN000012000000012000FN00000000020220801000012000NNE   20220803120329    1W    00000200000000496000000000032M1    VNYEV   000000000000VA228005
BI00B32M1    TV208A         2022082518007703760              AVSS 0.3F G              CCN000006000000006000FN00000000020220801000006000NNE   20220803120329    1W    00000200000000496000000000032M1    VNYEV   000000000000VA228006
BI00B32M1    TV208A         2022082518007703752              AVSS 0.3F P              CCN000008000000008000FN00000000020220801000008000NNE   20220803120329    1W    00000200000000496000000000032M1    VNYEV   000000000000VA228007
BI00B32M1    TV208A         2022082518007703750              AVSS 0.3F R              CCN000006000000006000FN00000000020220801000006000NNE   20220803120329    1W    00000200000000496000000000032M1    VNYEV   000000000000VA228008
BI00B32M1    TV208A         2022082518007703792              AVSS 0.3F V              CCN000018000000018000FN00000000020220801000018000NNE   20220803120329    1W    00000200000000496000000000032M1    VNYEV   000000000000VA228009
BI00B32M1    TV208A         2022082518007703930              AVSS 0.5F B              CCN000004500000004500FN00000000020220801000004500NNE   20220803120329    1W    00000150000000674000000000032M1    VNYEV   000000000000VA228010
BI00B32M1    TV208A         2022082518007703941              AVSS 0.5F GY             CCN000010500000010500FN00000000020220801000010500NNE   20220803120329    1W    00000150000000674000000000032M1    VNYEV   000000000000VA228011
BI00B32M1    TV208A         2022082518007703990              AVSS 0.5F L              CCN000006000000006000FN00000000020220801000006000NNE   20220803120329    1W    00000150000000674000000000032M1    VNYEV   000000000000VA228012
BI00B32M1    TV208A         20220825180D0203950              AVSSH 0.5F R             CCN000001500000001500FN00000000020220801000001500NNE   20220803120329    1W    00000150000000689000000000032M1    VNYEV   000000000000VA228004
BI00B32N2    2152104145     2022090718007703951              AVSS 0.5F O              CCN000003000000003000FN00000000020220901000003000NNE   20220803120329    1W    00000150000000674000000000032N2    YWYIPLTC000000000000KU428009
BI00B32N2    2152104145     2022090718007703952              AVSS 0.5F P              CCN000001500000001500FN00000000020220901000001500NNE   20220803120329    1W    00000150000000674000000000032N2    YWYIPLTC000000000000KU428011
BI00B32N2    2152104145     2022090718007703960              AVSS 0.5F G              CCN000003000000003000FN00000000020220901000003000NNE   20220803120329    1W    00000150000000674000000000032N2    YWYIPLTC000000000000KU428006
BI00B32N2    2152104145     2022090718007703965              AVSS 0.5F G/R            CCN000001500000001500FN00000000020220901000001500NNE   20220803120329    1W    00000150000000674000000000032N2    YWYIPLTC000000000000KU428007
BI00B32N2    2152104145     2022090718007703970              AVSS 0.5F Y              CCN000004500000004500FN00000000020220901000004500NNE   20220803120329    1W    00000150000000674000000000032N2    YWYIPLTC000000000000KU428012
BI00B32N2    2152104145     2022090718007703977              AVSS 0.5F O/L            CCN000001500000001500FN00000000020220901000001500NNE   20220803120329    1W    00000150000000674000000000032N2    YWYIPLTC000000000000KU428010
BI00B32N2    2152104145     2022090718007703990              AVSS 0.5F L              CCN000009000000009000FN00000000020220901000009000NNE   20220803120329    1W    00000150000000674000000000032N2    YWYIPLTC000000000000KU428008
BI00B32N2    2152104145     20220907180D0203970              AVSSH 0.5F Y             CCN000001500000001500FN00000000020220901000001500NNE   20220803120329    1W    00000150000000689000000000032N2    YWYIPLTC000000000000KU428001
BI00B32N2    2152104145     20220907180D0204030              AVSSH 0.75F B            CCN000001000000001000FN00000000020220901000001000NNE   20220803120329    1W    00000100000000934000000000032N2    YWYIPLTC000000000000KU428002
BI00B32N2    2152104145     20220907180D0204040              AVSSH 0.75F W            CCN000003000000003000FN00000000020220901000003000NNE   20220803120329    1W    00000100000000934000000000032N2    YWYIPLTC000000000000KU428005
BI00B32N2    2152104145     20220907180D0204080              AVSSH 0.75F BR           CCN000001000000001000FN00000000020220901000001000NNE   20220803120329    1W    00000100000000934000000000032N2    YWYIPLTC000000000000KU428003
BI00B32N2    2152104145     20220907180D0204090              AVSSH 0.75F L            CCN000002000000002000FN00000000020220901000002000NNE   20220803120329    1W    00000100000000934000000000032N2    YWYIPLTC000000000000KU428004
BI00B32N2    2152104146     2022091418007703930              AVSS 0.5F B              CCN000003000000003000FN00000000020220901000003000NNE   20220803120329    1W    00000150000000674000000000032N2    YWYIPLTC000000000000KU528002
BI00B32N2    2152104146     2022091418007703940              AVSS 0.5F W              CCN000001500000001500FN00000000020220901000001500NNE   20220803120329    1W    00000150000000674000000000032N2    YWYIPLTC000000000000KU528007
BI00B32N2    2152104146     2022091418007703941              AVSS 0.5F GY             CCN000001500000001500FN00000000020220901000001500NNE   20220803120329    1W    00000150000000674000000000032N2    YWYIPLTC000000000000KU528004
BI00B32N2    2152104146     2022091418007703957              AVSS 0.5F R/Y            CCN000001500000001500FN00000000020220901000001500NNE   20220803120329    1W    00000150000000674000000000032N2    YWYIPLTC000000000000KU528006
BI00B32N2    2152104146     2022091418007703960              AVSS 0.5F G              CCN000003000000003000FN00000000020220901000003000NNE   20220803120329    1W    00000150000000674000000000032N2    YWYIPLTC000000000000KU528003
BI00B32N2    2152104146     2022091418007703970              AVSS 0.5F Y              CCN000001500000001500FN00000000020220901000001500NNE   20220803120329    1W    00000150000000674000000000032N2    YWYIPLTC000000000000KU528008
