BI00B1200    2399T52825     202209017298-2853-30             HOUSING FEMALE ASS'Y     CCN000001440000001440FN00000000020220901000001440NNE   20220803160916    4N0N  0000002400000109490000136091200    YCYC    005500360039
BI00B1200    #O022J50279    202209157154-7040                RELAY BLOCK              CCN000012000000012000FN00000000020221001000012000NNE   20220803160931    2F0F  0000030000000060300000074491200    YCYC    005500360039
BI00B1200    #O022J50280    202209157154-8273                RELAY BLOCK              CCN000006000000006000FN00000000020221001000006000NNE   20220803160942    2F0F  0000010000000052300000067251200    YCYC    005500360039
BI00B1200    #O022J50281    202209157154-5328-30             RELAY BLOCK              CCN000006000000006000FN00000000020221001000006000NNE   20220803160952    2F0F  0000010000000121200000136191200    YCYC    005600390040
BI00B1200    2399T52826     202209087298-2853-30             HOUSING FEMALE ASS'Y     CCN000001440000001440FN00000000020221001000001440NNE   20220803161006    4N0N  0000002400000109490000136091200    YCYC    005500360039
BI00B1200    2399T52827     202209157298-2853-30             HOUSING FEMALE ASS'Y     CCN000001440000001440FN00000000020221001000001440NNE   20220803161015    4N0N  0000002400000109490000136091200    YCYC    005500360039
BI00B1200    2399T52828     202209227298-2853-30             HOUSING FEMALE ASS'Y     CCN000001440000001440FN00000000020221001000001440NNE   20220803161022    4N0N  0000002400000109490000136091200    YCYC    005500360039
BI00B1200    2399T52829     202209297298-2853-30             HOUSING FEMALE ASS'Y     CCN000002160000002160FN00000000020221001000002160NNE   20220803161035    4N0N  0000002400000109490000136091200    YCYC    005500360039
BI00B1200    O022K50020     202210067116-4100-02             TERMINAL                 CCN000060000000060000FN00000000020221101000060000NNE   20220803161114    4P0P  0000150000000069600000099021200    YCYC    006400630015
BI00B32CA    PTA33021       202210277116-3153-02             TERMINAL FEMALE          CCN000660000000675000FN00000000020230201000675000NNE   20220803121018    4P0P  00002700000000459000000744232CA    YPYPY   006400630015
BI00B32CA    PTA33021       202210277116-3154-02             TERMINAL FEMALE          CCN000330000000351000FN00000000020230201000351000NNE   20220803121018    4P0P  00002700000000469800000755032CA    YPYPY   006400630015
BI00B32CA    PTA33021       202210277158-3167-80             WIRE SEAL                CCN000240000000240000FN00000000020230201000240000NNE   20220803121018    1C0C  00002000000000048000000109032CA    YPYPY   002700430014
BI00B32CA    PTA33021       202210277196-0510-02             TERMINAL                 CCN000216000000216000FN00000000020230201000216000NNE   20220803121018    4P0P  00002400000000871200001034632CA    YPYPY   002800510028
BI00B32CA    PTA33021       202210277289-3342                HOUSING FEMALE ASS'Y     CCN000045600000045600FN00000000020230201000045600NNE   20220803121018    1N0N  00000240000000686400000901432CA    YPYPY   005500360039
BI00B32CA    PTA33021       202210277289-3342-90             HOUSING FEMALE ASS'Y     CCN000026400000026400FN00000000020230201000026400NNE   20220803121018    1N0N  00000240000000686400000901432CA    YPYPY   005500360039
BI00B32CA    PTA33021       202210277386-2747                CONNECTOR ASS'Y          CCN000012000000012000FN00000000020230201000012000NNE   20220803121018    4N0N  00000200000001162000001284532CA    YPYPY   005400370024
BI00B32CA    #PTA33021      202210277154-5597-30             CASSETTE R/B             CCN000000800000000800FN00000000020230201000000800NNE   20220803121018    2F0F  00000080000000736000000952032CA    YPYPY   005500360039
BI00B32CA    #PTA33021      202210277189-3032-30             HOUSING FEMALE           CCN000006400000006400FN00000000020230201000006400NNE   20220803121018    2F0F  00000160000000801600001021632CA    YPYPY   005500360039
BI00B32CA    #PTA33021      202210277189-3034-30             HOUSING FEMALE           CCN000003200000003200FN00000000020230201000003200NNE   20220803121018    2F0F  00000160000000972800001192832CA    YPYPY   005500360039
BI00B32CC    CTA32116       202209087289-6868-30             SEALED ASSY FEMALE       CCN000015120000015120FN00000000020221201000015120NNE   20220803121018    4N0N  00000252000000839200001119232CC    BIYABCBU005500360039
BI00B32CC    #CTA32116      202209087283-8226-30             CONNECTOR                CCN000046000000046000FN00000000020221201000046000NNE   20220803121018    2N0N  00000200000000820000001008032CC    BIYABCBU005400370024
BI00B32CC    #CTA32116      202209087157-7812                SEAL RUBBER              CCN000020000000020000FN00000000020221201000020000NNE   20220803121018    2C0C  00001000000000137000000202032CC    BIYABCBU002700430014
BI00B32CC    #CTA32116      202209087282-6446-40             CONNECTOR                CCN000003000000003000FN00000000020221201000003000NNE   20220803121018    2N0N  00000150000001185000001368032CC    BIYABCBU005500360039
BI00B32CC    #CTA32116      202209087282-6457-40             CONNECTOR                CCN000000800000000800FN00000000020221201000000800NNE   20220803121018    2N0N  00000080000001137000001421332CC    BIYABCBU005600390040
BI00B32CC    CTA32117       202208187158-3167-80             WIRE SEAL                CCN000020000000020000FN00000000020221201000020000NNE   20220803121018    1C0C  00002000000000048000000109032CC    BIYABCBU002700430014
BI00B32DA    SBT2210        202209017283-5830                CONNECTOR                CCN000048000000024000FN00000000020221001000024000NNMD0220220803145001    1N47  00000600000000954000001104032DA    GBYIPLGB005500360039
BI00B32DA    SBT2210        202210277286-3885-40             CONNECTOR MALE ASS'Y     CCN000032400000016800FN00000000020221001000016800NNMD0420220803145055    1N0N  00000120000000910600001130632DA    GBYIPLGB005500360039
BI00B32DA    SBT2210        202209087283-5830                CONNECTOR                CCN000024000000024000FN00000000020221001000024000NNMD0220220803145008    1N47  00000600000000954000001104032DA    GBYIPLGB005500360039
BI00B32DA    SBT2210        202211037286-3885-40             CONNECTOR MALE ASS'Y     CCN000015600000015600FN00000000020221001000015600NNMD0420220803145105    1N0N  00000120000000910600001130632DA    GBYIPLGB005500360039
BI00B32G2    SA2209A MW     202208177B58-3070-80             RUBBER STOPPER           CCN000040000000040000FN00000000020220901000040000NNE   20220803161323    1C0C  00004000000000276000000333032G2    AISUAI  004300270014
BI00B32G2    SA2209A MW     202208177196-1103-02             TERMINAL                 CCN000045000000045000FN00000000020220901000045000NNE   20220803161323    4P0P  00002250000000429800000715032G2    AISUAI  006400630015
BI00B32G2    SA2209A MW     202208177283-1144-30             CONNECTOR                CCN000002400000002400FN00000000020220901000002400NNE   20220803161323    4N0N  00000240000000602200000866132G2    AISUAI  005500360039
BI00B32G2    #SA2209A MW    202208177172-5630-40             RUBBER STOPPER           CCN000060000000060000FN00000000020220901000060000NNE   20220803161248    2H0H  00002000000000044000000095132G2    AISUAI  004300270014
BI00B32G2    #SA2209A MW    202208177172-5632-10             DUMMY PLUG               CCN000040000000040000FN00000000020220901000040000NNE   20220803161248    2H0H  00002000000000080400000131832G2    AISUAI  004300270014
BI00B32G2    #SA2209A MW    202208177287-1915-40             CONNECTOR ASS'Y          CCN000002400000002400FN00000000020220901000002400NNE   20220803161248    2N0N  00000240000000666500000923132G2    AISUAI  005500360039
BI00B32G2    SA2209BJMW     202208177126-8890-02             FUSE TERMINAL            CCN000006000000006000FN00000000020220901000006000NNE   20220803161325    4P0P  00000600000000465000000750232G2    AISUAI  006400630015
BI00B32G2    SA2209BJMW     202208177126-8891-02             FUSE TERMINAL            CCN000018000000018000FN00000000020220901000018000NNE   20220803161325    4P0P  00000600000000481800000767032G2    AISUAI  006400630015
BI00B32G2    SA2209BJMW     202208177195-1479-02             TERMINAL MALE            CCN000048000000048000FN00000000020220901000048000NNE   20220803161325    4P0P  00002400000000420000000714232G2    AISUAI  006400630015
BI00B32G2    SA2209BJMW     202208177195-1934-02             TERMINAL MALE            CCN000024000000024000FN00000000020220901000024000NNE   20220803161325    4P0P  00002400000000801600001095232G2    AISUAI  006400630015
BI00B32G2    SA2209BJMW     202208177195-1936-02             TERMINAL MALE            CCN000015000000015000FN00000000020220901000015000NNE   20220803161325    4P0P  00001500000000589500000883132G2    AISUAI  006400630015
BI00B32G2    SA2209BJMW     202208177196-1481-02             TERMINAL FEMALE          CCN000216000000216000FN00000000020220901000216000NNE   20220803161325    4P0P  00002400000000422400000707632G2    AISUAI  006400630015
BI00B32G2    SA2209BJMW     202208177196-1933-02             TERMINAL FEMALE          CCN000042000000042000FN00000000020220901000042000NNE   20220803161325    4P0P  00002100000000590100000875332G2    AISUAI  006400630015
BI00B32G2    SA2209BJMW     202208177196-1934-02             TERMINAL FEMALE          CCN000058500000058500FN00000000020220901000058500NNE   20220803161325    4P0P  00001950000000561600000846832G2    AISUAI  006400630015
BI00B32G2    SA2209BJMW     202208177196-1936-02             TERMINAL FEMALE          CCN000027000000027000FN00000000020220901000027000NNE   20220803161325    4P0P  00001350000000441500000726732G2    AISUAI  006400630015
BI00B32G2    SA2209BJMW     202208177196-1938-02             TERMINAL FEMALE          CCN000013500000013500FN00000000020220901000013500NNE   20220803161325    4P0P  00001350000000507600000795832G2    AISUAI  006400630015
BI00B32G2    SA2209BJMW     202208177196-1939-02             TERMINAL FEMALE          CCN000015000000015000FN00000000020220901000015000NNE   20220803161325    4P0P  00001500000000574500000862732G2    AISUAI  006400630015
BI00B32G2    SA2209BJMW     202208177196-1941-02             TERMINAL FEMALE          CCN000011400000011400FN00000000020220901000011400NNE   20220803161325    4P0P  00001140000000506200000794432G2    AISUAI  006400630015
BI00B32G2    SA2209BJMW     202208177196-1943-02             TERMINAL FEMALE          CCN000012000000012000FN00000000020220901000012000NNE   20220803161325    4P0P  00001200000000492000000777232G2    AISUAI  006400630015
BI00B32G2    SA2209BJMW     202208177196-1944-02             TERMINAL FEMALE          CCN000012000000012000FN00000000020220901000012000NNE   20220803161325    4P0P  00001200000000501600000786832G2    AISUAI  006400630015
BI00B32G2    SA2209BJMW     202208177196-1946-02             TERMINAL FEMALE          CCN000009000000009000FN00000000020220901000009000NNE   20220803161325    4P0P  00000900000000405000000690232G2    AISUAI  006400630015
BI00B32G2    SA2209BJMW     202208177196-2023-02             TERMINAL FEMALE          CCN000024000000024000FN00000000020220901000024000NNE   20220803161325    4P0P  00002400000000897600001061032G2    AISUAI  005100280028
BI00B32G2    SA2209BJMW     202208177282-4855-40             HOUSING MALE ASS'Y       CCN000001200000001200FN00000000020220901000001200NNE   20220803161325    4N0N  00000120000001063200001283232G2    AISUAI  005500360039
BI00B32G2    SA2209BJMW     202208177289-5979-30             HOUSING FEMALE ASS'Y     CCN000000504000000504FN00000000020220901000000504NNE   20220803161325    1N0N  00000025200000854700001064732G2    AISUAI  005400370024
BI00B32G2    #SA2209BJMW    202208177172-5626-90             RUBBER STOPPER           CCN000060000000060000FN00000000020220901000060000NNE   20220803161302    2H0H  00002000000000076400000127832G2    AISUAI  004300270014
BI00B32G2    #SA2209BJMW    202208177172-5627-60             RUBBER STOPPER           CCN000020000000020000FN00000000020220901000020000NNE   20220803161302    2H0H  00002000000000070400000121832G2    AISUAI  004300270014
BI00B32G2    #SA2209BJMW    202208177172-5628-80             DUMMY PLUG               CCN000020000000020000FN00000000020220901000020000NNE   20220803161302    2H0H  00002000000000110600000162032G2    AISUAI  004300270014
BI00B32G2    #SA2209BJMW    202208177172-5631-60             RUBBER STOPPER           CCN000020000000020000FN00000000020220901000020000NNE   20220803161302    2H0H  00002000000000042000000093132G2    AISUAI  004300270014
BI00B32G2    #SA2209BJMW    202208177173-2373-30             BLOCK LEVER              CCN000000800000000800FN00000000020220901000000800NNE   20220803161302    2F0F  00000080000000419500000609032G2    AISUAI  005500360039
BI00B32G2    #SA2209BJMW    202208177173-3225-10             LIF LEVER                CCN000000800000000800FN00000000020220901000000800NNE   20220803161302    2F0F  00000080000000592000000712032G2    AISUAI  005500360039
BI00B32G2    #SA2209BJMW    202208177189-3034-30             HOUSING FEMALE           CCN000001600000001600FN00000000020220901000001600NNE   20220803161302    2F0F  00000160000000972800001192832G2    AISUAI  005500360039
BI00B32G2    #SA2209BJMW    202208177287-1670                HOUSING FEMALE ASS'Y     CCN000002800000002800FN00000000020220901000002800NNE   20220803161302    2N0N  00000280000000953100001145132G2    AISUAI  005400370024
BI00B32G2    @SA2209BJMW    202208177282-1025                HOUSING SUB ASSEMBLY     CCN000002400000002400FN00000000020220901000002400NNE   20220803161320    3N0N  00000240000001143800001390032G2    AISUAI  005500360039
BI00B32J1    #396623        202208157174-1164                COVER                    CCN000002400000002400FN00000000020220801000002400NNMD0020220803121018    2F0F  00000080000000592000000712032J1    UKYEL-BL005500360039
BI00B32J1    396778         202209197298-1865-30             HOUSING FEMALE ASS'Y     CCN000597600000597600FN00000000020220801000597600NNED0420220803121018    4N0N  00000240000001003200001204532J1    UKYEL-BL005500360039
BI00B32J1    396778         202209197298-1869-30             HOUSING FEMALE ASS'Y     CCN000213600000213600FN00000000020220801000213600NNED0420220803121018    4N0N  00000120000000737000000939832J1    UKYEL-BL005500360039
BI00B32J1    396778         202209197298-2278-30             HOUSING FEMALE ASS'Y     CCN000302400000302400FN00000000020220801000302400NNED0420220803121018    4N0N  00000240000001091700001295432J1    UKYEL-BL005500360039
BI00B32J1    396779         202210177298-1865-30             HOUSING FEMALE ASS'Y     CCN000681600000681600FN00000000020220801000681600NNED0420220803121018    4N0N  00000240000001003200001204532J1    UKYEL-BL005500360039
BI00B32J1    396779         202209057298-1866-40             HOUSING FEMALE ASS'Y     CCN000132000000132000FN00000000020220801000132000NNED0420220803121018    4N0N  00000240000001003000001217932J1    UKYEL-BL005500360039
BI00B32J1    396779         202210177298-1869-30             HOUSING FEMALE ASS'Y     CCN000271200000271200FN00000000020220801000271200NNED0420220803121018    4N0N  00000120000000737000000939832J1    UKYEL-BL005500360039
BI00B32J1    396779         202210177298-2278-30             HOUSING FEMALE ASS'Y     CCN000362400000362400FN00000000020220801000362400NNED0420220803121018    4N0N  00000240000001091700001295432J1    UKYEL-BL005500360039
BI00B32J1    #396963        202209127282-6457-40             CONNECTOR                CCN000002400000002400FN00000000020220901000002400NNE   20220803121018    2N0N  00000080000001137000001421332J1    UKYEL-BL005600390040
BI00B32J1    396962         202209197114-4231-02             TERMINAL                 CCN000072000000072000FN00000000020220901000072000NNE   20220803121018    4P0P  00001800000000554400000848032J1    UKYEL-BL006400630015
BI00B32J1    396962         202209197158-3006-90             RUBBER STOPPER           CCN000020000000020000FN00000000020220901000020000NNE   20220803121018    1C0C  00002000000000330600000386032J1    UKYEL-BL002700430014
BI00B32J1    396962         202209197158-3070-80             RUBBER STOPPER           CCN000480000000480000FN00000000020220901000480000NNE   20220803121018    1C0C  00004000000000276000000333332J1    UKYEL-BL002700430014
BI00B32J1    #396962        202209197157-3790-90             WIRE SEAL                CCN000060000000060000FN00000000020220901000060000NNE   20220803121018    2C0C  00002000000000176000000232732J1    UKYEL-BL002700430014
BI00B32J1    #396962        202209197158-3003-90             RUBBER STOPPER           CCN000020000000020000FN00000000020220901000020000NNE   20220803121018    2C0C  00002000000000250000000306032J1    UKYEL-BL002700430014
BI00B32J1    #396962        202209197158-3120-90             CONNECTOR WIRE SEAL      CCN000040000000040000FN00000000020220901000040000NNE   20220803121018    2C0C  00002000000000136000000194032J1    UKYEL-BL002700430014
BI00B32J1    #396962        202209197158-3121-80             WIRE SEAL                CCN000240000000240000FN00000000020220901000240000NNE   20220803121018    2C0C  00002000000000118000000187332J1    UKYEL-BL002700430014
BI00B32K8    #K1220011462   202210217137-2200                CONNECTOR PACKING        CCN000005000000005000FN00000000020221201000005000NNM   20220803121018    2C0C  00000500000000136000000211332K8    ELELCOM 004300270014
BI00B32M8    PM2209A MW     202208247116-4025                TERMINAL                 CCN000032000000032000FN00000000020220901000032000NNE   20220803161558    4P0P  00001600000000644800000975132M8    PMPEMI  006400630017
BI00B32M8    PM2209A MW     202208247116-4026                TERMINAL                 CCN000048000000048000FN00000000020220901000048000NNE   20220803161558    4P0P  00001600000000664000000994332M8    PMPEMI  006400630017
BI00B32M8    PM2209A MW     202208247158-3165-90             WIRE SEAL                CCN000004000000040000FN00000000020220901000040000NNE   20220803161558    1C0C  00004000000000124000000172432M8    PMPEMI  004300270014
BI00B32M8    PM2209A MW     202208247283-1289-30             CONNECTOR HOUSING        CCN000000600000000600FN00000000020220901000000600NNE   20220803161558    1N0N  00000060000000675600000820632M8    PMPEMI  005400370024
BI00B32M8    #PM2209A MW    202208247189-3032                HOUSING FEMALE           CCN000001600000001600FN00000000020220901000001600NNE   20220803161556    2F0F  00000160000000788400001018432M8    PMPEMI  005500360039
BI00B32M8    #PM2209ATMW    202208247154-5597-30             CASSETTE R/B             CCN000000800000000800FN00000000020220901000000800NNE   20220803161711    2F0F  00000080000000736000000952032M8    PMPEMI  005500360039
BI00B32M8    #PM2209ATMW    202208247172-5627-60             RUBBER STOPPER           CCN000020000000020000FN00000000020220901000020000NNE   20220803161711    2H0H  00002000000000070400000121832M8    PMPEMI  004300270014
BI00B32M8    PM2209B MW     202208317116-4025                TERMINAL                 CCN000048000000048000FN00000000020220901000048000NNE   20220803161734    4P0P  00001600000000644800000975132M8    PMPEMI  006400630017
BI00B32R7    R-TAP220325    202208257158-3006-90             RUBBER STOPPER           CCN000200000000200000FN00000000020220901000200000NNE   20220803161337    1C0C  00002000000000330600000386032R7    IVYCIC  002700430014
BI00B32R7    R-TAP220326    202208257116-4025                TERMINAL                 CCN000224000000224000FN00000000020220901000224000NNE   20220803161451    4P0P  00001600000000644800000975132R7    IVYCIC  006400630017
BI00B32R7    R-TAP220328    202208257158-3169-40             SEALING PLUG             CCN000320000000320000FN00000000020220901000320000NNE   20220803161508    1C0C  00004000000000156000000204132R7    IVYCIC  004300260014
BI00B32R7    R-TAP220327    202209227158-3169-40             SEALING PLUG             CCN000040000000040000FN00000000020221001000040000NNE   20220803161519    1C0C  00004000000000156000000204132R7    IVYCIC  004300260014
BI00B32W4    4500194821     202208117283-1024                CONNECTOR SUB ASSY       CCN000002000000002000FN00000000020220801000002000NNED0020220803121018W4164N0N  00000200000000400000000522532W416  HJYHK   005400370024
BI00A32W4    4500197861     202210037158-3167-80             WIRE SEAL                CCN000040000000040000FN00000000020221001000040000NNE   20220803121018W4G91C0C  00002000000000048000000109032W4G9  HJYHK-J 002700430014
BI00A32W4    #4500197861    202210037158-3120-90             CONNECTOR WIRE SEAL      CCN000020000000020000FN00000000020221001000020000NNE   20220803121018W4G92C0C  00002000000000136000000194032W4G9  HJYHK-J 002700430014
BI00A32W4    4500197862     202210037158-3167-80             WIRE SEAL                CCN000040000000040000FN00000000020221001000040000NNE   20220803121018W4P61C0C  00002000000000048000000109032W4P6  HJYHK-J 002700430014
BI00B32W4    4500197863     202210047289-9553-30             SEALED ASSY FEMALE       CCN000035280000035280FN00000000020221001000035280NNE   20220803121018W4O64N0N  00000294000001109000001521532W4O6  HJYHK-J 005500360039
BI00B32W4    4500197864     202210067116-4100-02             TERMINAL                 CCN000225000000225000FN00000000020221001000225000NNE   20220803121018W4164P0P  00001500000000696000000990232W416  HJYHK   006400630015
BI00B32W4    4500197864     202210067116-4121-02             TERMINAL                 CCN000013500000013500FN00000000020221001000013500NNE   20220803121018W4164P0P  00000450000000618800000912432W416  HJYHK   006400630015
BI00B32W4    4500197864     202210067116-4111-02             TERMINAL                 CCN000007500000007500FN00000000020221001000007500NNE   20220803121018W4164P0P  00000750000000529500000817732W416  HJYHK   006400630015
BI00B32W4    4500197864     202210067116-4112-02             TERMINAL                 CCN000078000000078000FN00000000020221001000078000NNE   20220803121018W4164P0P  00000600000000450000000738232W416  HJYHK   006400630015
BI00B32W4    4500197864     202210067116-4102-02             TERMINAL                 CCN000036000000036000FN00000000020221001000036000NNE   20220803121018W4164P0P  00001200000000553200000841432W416  HJYHK   006400630015
BI00B32W4    4500197864     202210067116-4025                TERMINAL                 CCN000016000000016000FN00000000020221001000016000NNE   20220803121018W4164P0P  00001600000000644800000975132W416  HJYHK   006400630017
BI00B32W4    4500197864     202210067283-7028-30             CONNECTOR                CCN000006000000006000FN00000000020221001000006000NNE   20220803121018W4164N0N  00000300000001452000001681332W416  HJYHK   005600390040
BI00B32W4    4500197864     202210067114-4100-02             TERMINAL                 CCN000072000000072000FN00000000020221001000072000NNE   20220803121018W4164P0P  00001800000000748800001077432W416  HJYHK   006400630017
BI00B32W4    4500197864     202210067116-4124-02             TERMINAL                 CCN000003000000003000FN00000000020221001000003000NNE   20220803121018W4164P0P  00000300000000459900000753532W416  HJYHK   006400630015
BI00B32W4    4500197864     202210067283-5548-30             CONNECTOR                CCN000001500000001500FN00000000020221001000001500NNE   20220803121018W4164N0N  00000150000001109000001302032W416  HJYHK   005600390040
BI00B32W4    4500197864     202210067158-3166-60             WIRE SEAL                CCN000160000000160000FN00000000020221001000160000NNE   20220803121018W4161C0C  00004000000000104000000152432W416  HJYHK   002700430014
BI00B32W4    4500197864     202210067116-4101-02             TERMINAL                 CCN000048000000048000FN00000000020221001000048000NNE   20220803121018W4164P0P  00001200000000582000000876232W416  HJYHK   006400630015
BI00B32W4    4500197864     202210067116-4120-02             TERMINAL                 CCN000006000000006000FN00000000020221001000006000NNE   20220803121018W4164P0P  00000600000000780000001073632W416  HJYHK   006400630015
BI00B32W4    4500197864     202210067114-4101-02             TERMINAL                 CCN000030000000030000FN00000000020221001000030000NNE   20220803121018W4164P0P  00001500000000675000001003632W416  HJYHK   006400630017
BI00B32W4    4500197864     202210067116-4104-02             TERMINAL                 CCN000036000000036000FN00000000020221001000036000NNE   20220803121018W4164P0P  00001200000000580800000972432W416  HJYHK   006400630015
BI00B32W4    4500197864     202210067114-4110-02             TERMINAL                 CCN000015000000015000FN00000000020221001000015000NNE   20220803121018W4164P0P  00001500000000901500001230132W416  HJYHK   006400630017
BI00B32W4    4500197864     202210067116-4103-02             TERMINAL                 CCN000012000000012000FN00000000020221001000012000NNE   20220803121018W4164P0P  00001200000000571200000859432W416  HJYHK   006400630015
BI00B32W4    4500197864     202210067283-1020                CONNECTOR                CCN000006000000006000FN00000000020221001000006000NNE   20220803121018W4164N0N  00000600000000840000001049332W416  HJYHK   005600390040
BI00B32W4    4500197864     202210067283-1024                CONNECTOR SUB ASSY       CCN000006000000006000FN00000000020221001000006000NNE   20220803121018W4164N0N  00000200000000400000000522532W416  HJYHK   005400370024
BI00B32W4    4500197864     202210067282-1024                HOUSING MALE             CCN000005000000005000FN00000000020221001000005000NNE   20220803121018W4161N0N  00000100000000458000000580532W416  HJYHK   005400370024
BI00B32W4    4500197864     202210067283-1030                CONNECTOR                CCN000006000000006000FN00000000020221001000006000NNE   20220803121018W4164N0N  00000600000000988000001172032W416  HJYHK   005500360039
BI00B32W4    4500197864     202210067288-6547                CONNECTOR MALE ASS'Y     CCN000006750000006750FN00000000020221001000006750NNE   20220803121018W4164N0N  00000075000001205300001340332W416  HJYHK   005400370024
BI00B32W4    4500197864     202210067289-6547                HOUSING FEMALE ASS'Y     CCN000007200000007200FN00000000020221001000007200NNE   20220803121018W4161N0N  00000240000001152000001362032W416  HJYHK   005500360039
BI00B32W4    4500197864     202210067283-1156                CONNECTOR                CCN000004800000004800FN00000000020221001000004800NNE   20220803121018W4164N0N  00000080000000877600001078032W416  HJYHK   005600390040
BI00B32W4    #4500197864    202210067282-4190-30             CONNECTOR                CCN000002880000002880FN00000000020221001000002880NNE   20220803121018W4162N0N  00000024000000801000001071332W416  HJYHK   005600390040
BI00B32W4    #4500197864    202210067283-4190-30             CONNECTOR                CCN000002640000002640FN00000000020221001000002640NNE   20220803121018W4162N0N  00000024000000846000001115532W416  HJYHK   005600390040
BI00B32W4    #4500197864    202210067158-3003-90             RUBBER STOPPER           CCN000020000000020000FN00000000020221001000020000NNE   20220803121018W4162C0C  00002000000000250000000306032W416  HJYHK   002700430014
BI00B32W4    #4500197864    202210067187-1616                HOUSING FEMALE           CCN000004000000004000FN00000000020221001000004000NNE   20220803121018W4162F0F  00000400000001152000001262032W416  HJYHK   005500360039
BI00B32W4    @4500197864    202210067287-6634                HOUSING FEMALE ASS'Y     CCN000002400000002400FN00000000020221001000002400NNE   20220803121018W4163N0N  00000240000001088400001337032W416  HJYHK   005500360039
BI00B32W4    4500197871     202210067116-4120-02             TERMINAL                 CCN000018000000018000FN00000000020221001000018000NNE   20220803121018W46 4P0P  00000600000000780000001073632W46   HJYHK   006400630015
BI00B32W4    4500197871     202210067116-4122-02             TERMINAL                 CCN000094500000094500FN00000000020221001000094500NNE   20220803121018W46 4P0P  00000450000000656600000950232W46   HJYHK   006400630015
BI00B32W4    4500197871     202210067114-4101-02             TERMINAL                 CCN000105000000105000FN00000000020221001000105000NNE   20220803121018W46 4P0P  00001500000000675000001003632W46   HJYHK   006400630017
BI00B32W4    4500197871     202210067116-4101-02             TERMINAL                 CCN000024000000024000FN00000000020221001000024000NNE   20220803121018W46 4P0P  00001200000000582000000876232W46   HJYHK   006400630015
BI00B32W4    4500197871     202210067114-4112-02             TERMINAL                 CCN000189000000189000FN00000000020221001000189000NNE   20220803121018W46 4P0P  00000900000000598500000927132W46   HJYHK   006400630017
BI00B32W4    4500197871     202210067114-4100-02             TERMINAL                 CCN000198000000198000FN00000000020221001000198000NNE   20220803121018W46 4P0P  00001800000000748800001077432W46   HJYHK   006400630017
BI00B32W4    4500197871     202210067116-4111-02             TERMINAL                 CCN000052500000052500FN00000000020221001000052500NNE   20220803121018W46 4P0P  00000750000000529500000817732W46   HJYHK   006400630015
BI00B32W4    4500197876     202208187116-5041-02             TERMINAL                 CCN000015000000015000FN00000000020220801000015000NNE   20220803121018W4374P0P  00001500000000583500000868732W437  HJYHK   006400630015
BI00A32W4    4500197886     202210067158-3166-60             WIRE SEAL                CCN000040000000040000FN00000000020221001000040000NNE   20220803121018W4141C0C  00004000000000104000000152432W414  HJYHK   002700430014
BI00A32W4    4500197886     202210067158-3169-40             SEALING PLUG             CCN000040000000040000FN00000000020221001000040000NNE   20220803121018W4141C0C  00004000000000156000000204132W414  HJYHK   004300260014
BI00A32W4    4500197886     202210067116-4110-02             TERMINAL                 CCN000009000000009000FN00000000020221001000009000NNE   20220803121018W4144P0P  00000900000000594000000882232W414  HJYHK   006400630015
BI00A32W4    #4500197886    202210067282-6458-40             CONNECTOR                CCN000003000000003000FN00000000020221001000003000NNE   20220803121018W4142N0N  00000100000001206000001350532W414  HJYHK   005500360039
BI00A32W4    4500197890     202210037116-4100-02             TERMINAL                 CCN000015000000015000FN00000000020221001000015000NNE   20220803121018W4194P0P  00001500000000696000000990232W419  HJYHK   006400630015
BI00A32W4    4500197890     202210037116-4101-02             TERMINAL                 CCN000012000000012000FN00000000020221001000012000NNE   20220803121018W4194P0P  00001200000000582000000876232W419  HJYHK   006400630015
BI00A32W4    4500197890     202210037116-4104-02             TERMINAL                 CCN000012000000012000FN00000000020221001000012000NNE   20220803121018W4194P0P  00001200000000580800000972432W419  HJYHK   006400630015
BI00A32W4    4500197890     202210037283-6568-40             CONNECTOR                CCN000004000000004000FN00000000020221001000004000NNE   20220803121018W4194N0N  00000200000001090000001263032W419  HJYHK   005500360039
BI00B32W4    4500197896     202210067116-4102-02             TERMINAL                 CCN000012000000012000FN00000000020221001000012000NNE   20220803121018W4L64P0P  00001200000000553200000841432W4L6  HJYHK-K 006400630015
BI00B32W4    4500197902     202209087158-3167-80             WIRE SEAL                CCN000500000000500000FN00000000020220901000500000NNE   20220803121018W4B71C0C  00002000000000048000000109032W4B7  HJYHK-J 002700430014
BI00B32W4    4500197902     202209087158-3166-60             WIRE SEAL                CCN000320000000320000FN00000000020220901000320000NNE   20220803121018W4B71C0C  00004000000000104000000152432W4B7  HJYHK-J 002700430014
BI00B32W4    4500197902     202209087158-3169-40             SEALING PLUG             CCN000520000000520000FN00000000020220901000520000NNE   20220803121018W4B71C0C  00004000000000156000000204132W4B7  HJYHK-J 004300260014
BI00B32W4    #4500197905    202211287157-7812                SEAL RUBBER              CCN000300000000300000FN00000000020221101000300000NNE   20220803121018W4Q12C0C  00001000000000137000000202032W4Q1  SCYHK-J 002700430014
BI00B32W7    SC2209AJMW     202208247116-4031                TERMINAL                 CCN000007500000007500FN00000000020220901000007500NNE   20220803161756    4P0P  00000750000000619500000904732W7    SYSYA-CH006400630015
BI00B32W7    SC2209AJMW     202208247283-8630                CONNECTOR ASS'Y          CCN000012000000012000FN00000000020220901000012000NNE   20220803161756    4N0N  00000600000000540000000701332W7    SYSYA-CH005400370024
BI00B32W7    #SC2209AJMW    202208247158-3008-80             RUBBER STOPPER           CCN000040000000040000FN00000000020220901000040000NNE   20220803161754    2C0C  00002000000000288000000343032W7    SYSYA-CH004300270014
BI00B32W9    #4500197910    202208237283-8398-40             CONNECTOR                CCN000032340000032340FN00000000020220801000032340NNE   20220803155805W9  2N0N  00000154000001007000001171332W9    HKYHK   005600390023
BI00B32Y1    TA2101A        202209057158-3166-60             WIRE SEAL                CCN000008000000040000FN00000000020221101000040000NNM   20220803121018    1C0C  00004000000000104000000152432Y1    YAYAS   002700430014
BI00B32Y1    TA2102A        202209197158-3166-60             WIRE SEAL                CCN000004000000040000FN00000000020221101000040000NNM   20220803121018    1C0C  00004000000000104000000152432Y1    YAYAS   002700430014
BI00B32Y1    TA2101A        202209057287-9323                UNSEALED HOUSING SUB     CCN000007200000007200FN00000000020221101000007200NNM   20220803121018    1N0N  00000240000000537600000690032Y1    YAYAS   005600390023
BI00B32Y1    TA2102A        202209197287-9323                UNSEALED HOUSING SUB     CCN000004800000004800FN00000000020221101000004800NNM   20220803121018    1N0N  00000240000000537600000690032Y1    YAYAS   005600390023
BI00B32Y1    TA2101A        202209057289-3342-30             HOUSING FEMALE ASS'Y     CCN000021600000021600FN00000000020221101000021600NNM   20220803121018    1N0N  00000240000000686400000901432Y1    YAYAS   005500360039
BI00B32Y1    TA2102A        202209197289-3342-30             HOUSING FEMALE ASS'Y     CCN000021600000021600FN00000000020221101000021600NNM   20220803121018    1N0N  00000240000000686400000901432Y1    YAYAS   005500360039
BI00B32Y1    TA2101A        202209057388-2978-30             HOUSING MALE ASS'Y       CCN000013440000013440FN00000000020221101000013440NNM   20220803121018    1N0N  00000048000000742000001122032Y1    YAYAS   005500360039
BI00B32Y1    TA2102A        202209197388-2978-30             HOUSING MALE ASS'Y       CCN000013440000013440FN00000000020221101000013440NNM   20220803121018    1N0N  00000048000000742000001122032Y1    YAYAS   005500360039
BI00B32Y1    TA2101A        202209057116-4037                TERMINAL                 CCN000026400000030000FN00000000020221101000030000NNM   20220803121018    4P0P  00000600000000600000000894232Y1    YAYAS   006400630015
BI00B32Y1    TA2102A        202209197116-4037                TERMINAL                 CCN000019800000024000FN00000000020221101000024000NNM   20220803121018    4P0P  00000600000000600000000894232Y1    YAYAS   006400630015
BI00B32Y1    TA2101A        202209057114-6041                TERMINAL                 CCN000007200000007200FN00000000020221101000007200NNM   20220803121018    4P0P  00000360000000580700000824232Y1    YAYAS   006400630015
BI00B32Y1    TA2102A        202209197114-6041                TERMINAL                 CCN000007200000007200FN00000000020221101000007200NNM   20220803121018    4P0P  00000360000000580700000824232Y1    YAYAS   006400630015
BI00B32Y1    TA2101A        202209057158-3070-80             RUBBER STOPPER           CCN000040000000040000FN00000000020221101000040000NNM   20220803121018    1C0C  00004000000000276000000333332Y1    YAYAS   002700430014
BI00B32Y1    TA2102A        202209197158-3070-80             RUBBER STOPPER           CCN000040000000040000FN00000000020221101000040000NNM   20220803121018    1C0C  00004000000000276000000333332Y1    YAYAS   002700430014
BI00B32Y1    TA2101A        202209057158-3009-60             RUBBER STOPPER           CCN000180000000180000FN00000000020221101000180000NNM   20220803121018    1C0C  00002000000000338000000386232Y1    YAYAS   002700430014
BI00B32Y1    TA2102A        202209197158-3009-60             RUBBER STOPPER           CCN000180000000180000FN00000000020221101000180000NNM   20220803121018    1C0C  00002000000000338000000386232Y1    YAYAS   002700430014
BI00B32Y1    TA2101A        202209057116-5750-02             TERMINAL                 CCN000075000000075000FN00000000020221101000075000NNM   20220803121018    4P0P  00001500000000457500000742732Y1    YAYAS   006400630015
BI00B32Y1    TA2102A        202209197116-5750-02             TERMINAL                 CCN000075000000075000FN00000000020221101000075000NNM   20220803121018    4P0P  00001500000000457500000742732Y1    YAYAS   006400630015
BI00B32Y1    TA2101A        202209057196-0510-02             TERMINAL                 CCN000024000000024000FN00000000020221101000024000NNM   20220803121018    4P0P  00002400000000871200001034632Y1    YAYAS   002800510028
BI00B32Y1    TA2101A        202209057196-0512-02             TERMINAL                 CCN000021000000021000FN00000000020221101000021000NNM   20220803121018    4P0P  00002100000000871500001034932Y1    YAYAS   002800510028
BI00B32Y1    TA2101A        202209057158-3006-90             RUBBER STOPPER           CCN000460000000460000FN00000000020221101000460000NNM   20220803121018    1C0C  00002000000000330600000386032Y1    YAYAS   002700430014
BI00B32Y1    TA2102A        202209197158-3006-90             RUBBER STOPPER           CCN000460000000460000FN00000000020221101000460000NNM   20220803121018    1C0C  00002000000000330600000386032Y1    YAYAS   002700430014
BI00B32Y1    #TA2101A       202209057158-3005-80             RUBBER STOPPER           CCN000040000000040000FN00000000020221101000040000NNM   20220803121018    2H0H  00002000000000210000000268732Y1    YAYAS   002700430014
BI00B32Y1    #TA2102A       202209197158-3005-80             RUBBER STOPPER           CCN000040000000040000FN00000000020221101000040000NNM   20220803121018    2H0H  00002000000000210000000268732Y1    YAYAS   002700430014
BI00B32Y1    #TA2101A       202209057189-2978-30             HOUSING FEMALE           CCN000012000000012000FN00000000020221101000012000NNM   20220803121018    2F0F  00000150000000966900001096932Y1    YAYAS   005400370024
BI00B32Y1    #TA2102A       202209197189-2978-30             HOUSING FEMALE           CCN000012000000012000FN00000000020221101000012000NNM   20220803121018    2F0F  00000150000000966900001096932Y1    YAYAS   005400370024
BI00B32Y1    #TA2101A       202209057189-3032                HOUSING FEMALE           CCN000014400000014400FN00000000020221101000014400NNM   20220803121018    2F0F  00000160000000788400001018432Y1    YAYAS   005500360039
BI00B32Y1    #TA2102A       202209197189-3032                HOUSING FEMALE           CCN000012800000012800FN00000000020221101000012800NNM   20220803121018    2F0F  00000160000000788400001018432Y1    YAYAS   005500360039
BI00B32Y1    #TA2101A       202209057189-3037                HOUSING FEMALE           CCN000004800000004800FN00000000020221101000004800NNM   20220803121018    2F0F  00000480000000806400001066432Y1    YAYAS   005500360039
BI00B32Y1    #TA2102A       202209197189-3037                HOUSING FEMALE           CCN000004800000004800FN00000000020221101000004800NNM   20220803121018    2F0F  00000480000000806400001066432Y1    YAYAS   005500360039
BI00B32Y1    #TA2101A       202209057289-2912-30             HOUSING FEMALE ASS'Y     CCN000002000000002000FN00000000020221101000002000NNM   20220803121018    2N0N  00000200000000804000000929032Y1    YAYAS   005400370024
BI00B32Y1    #TA2101A       202209057289-2914                HOUSING FEMALE ASS'Y     CCN000007500000007500FN00000000020221101000007500NNM   20220803121018    2N0N  00000150000000906000001033032Y1    YAYAS   005400370024
BI00B32Y1    #TA2102A       202209197289-2914                HOUSING FEMALE ASS'Y     CCN000006000000006000FN00000000020221101000006000NNM   20220803121018    2N0N  00000150000000906000001033032Y1    YAYAS   005400370024
BI00B32Y1    #TA2101A       202209057289-2915-30             HOUSING FEMALE ASS'Y     CCN000007500000007500FN00000000020221101000007500NNM   20220803121018    2N0N  00000150000000964500001091532Y1    YAYAS   005400370024
BI00B32Y1    #TA2102A       202209197289-2915-30             HOUSING FEMALE ASS'Y     CCN000006000000006000FN00000000020221101000006000NNM   20220803121018    2N0N  00000150000000964500001091532Y1    YAYAS   005400370024
BI00B32Y1    #TA2101A       202209057289-2916-30             HOUSING FEMALE ASS'Y     CCN000006000000006000FN00000000020221101000006000NNM   20220803121018    2N0N  00000100000000857000001084032Y1    YAYAS   005400370024
BI00B32Y1    #TA2102A       202209197289-2916-30             HOUSING FEMALE ASS'Y     CCN000005000000005000FN00000000020221101000005000NNM   20220803121018    2N0N  00000100000000857000001084032Y1    YAYAS   005400370024
BI00B32Y1    #TA2101A       202209057289-2919-30             HOUSING FEMALE ASS'Y     CCN000007500000007500FN00000000020221101000007500NNM   20220803121018    2N0N  00000150000000907500001034532Y1    YAYAS   005400370024
BI00B32Y1    #TA2102A       202209197289-2919-30             HOUSING FEMALE ASS'Y     CCN000006000000006000FN00000000020221101000006000NNM   20220803121018    2N0N  00000150000000907500001034532Y1    YAYAS   005400370024
BI00B32Y1    #TA2101A       202209057154-5597-30             CASSETTE R/B             CCN000025600000025600FN00000000020221101000025600NNM   20220803121018    2F0F  00000080000000736000000952032Y1    YAYAS   005500360039
BI00B32Y1    #TA2102A       202209197154-5597-30             CASSETTE R/B             CCN000025600000025600FN00000000020221101000025600NNM   20220803121018    2F0F  00000080000000736000000952032Y1    YAYAS   005500360039
BI00B32Y1    #TA2101A       202209057158-3008-80             RUBBER STOPPER           CCN000100000000100000FN00000000020221101000100000NNM   20220803121018    2C0C  00002000000000288000000343032Y1    YAYAS   004300270014
BI00B32Y1    #TA2102A       202209197158-3008-80             RUBBER STOPPER           CCN000100000000100000FN00000000020221101000100000NNM   20220803121018    2C0C  00002000000000288000000343032Y1    YAYAS   004300270014
BI00B32Y1    #TA2101A       202209057158-3017                RUBBER STOPPER           CCN000010000000010000FN00000000020221101000010000NNM   20220803121018    2C0C  00001000000000375500000435032Y1    YAYAS   002700430014
BI00B32Y1    #TA2102A       202209197158-3017                RUBBER STOPPER           CCN000010000000010000FN00000000020221101000010000NNM   20220803121018    2C0C  00001000000000375500000435032Y1    YAYAS   002700430014
BI00B32Y1    #TA2101A       202209057158-3003-90             RUBBER STOPPER           CCN000220000000220000FN00000000020221101000220000NNM   20220803121018    2C0C  00002000000000250000000306032Y1    YAYAS   002700430014
BI00B32Y1    #TA2102A       202209197158-3003-90             RUBBER STOPPER           CCN000200000000200000FN00000000020221101000200000NNM   20220803121018    2C0C  00002000000000250000000306032Y1    YAYAS   002700430014
BI00B32Y1    #TA2101A       202209057158-3007-10             RUBBER STOPPER           CCN000040000000040000FN00000000020221101000040000NNM   20220803121018    2H0H  00002000000000308000000362732Y1    YAYAS   002700430014
BI00B32Y1    #TA2102A       202209197158-3007-10             RUBBER STOPPER           CCN000020000000020000FN00000000020221101000020000NNM   20220803121018    2H0H  00002000000000308000000362732Y1    YAYAS   002700430014
BI00B32Y1    #TA2101A       202209057158-3015-10             RUBBER STOPPER           CCN000010000000010000FN00000000020221101000010000NNM   20220803121018    2C0C  00001000000000419500000474032Y1    YAYAS   002700430014
BI00B32Y5    TAT32121       202209067116-3153-02             TERMINAL FEMALE          CCN000648000000648000FN00000000020221201000648000NNM   20220803121018    4P0P  00002700000000459000000744232Y5    BZYBL   006400630015
BI00B32Y5    TAT32122       202209067116-3153-02             TERMINAL FEMALE          CCN000108000000108000FN00000000020221201000108000NNM   20220803121018    4P0P  00002700000000459000000744232Y5    BZYBL   006400630015
BI00B32Y5    TAT32123       202209207116-3153-02             TERMINAL FEMALE          CCN000648000000648000FN00000000020221201000648000NNM   20220803121018    4P0P  00002700000000459000000744232Y5    BZYBL   006400630015
BI00B32Y5    TAT32124       202209207116-3153-02             TERMINAL FEMALE          CCN000108000000108000FN00000000020221201000108000NNM   20220803121018    4P0P  00002700000000459000000744232Y5    BZYBL   006400630015
BI00B32Y5    TAT32121       202209067116-3154-02             TERMINAL FEMALE          CCN000054000000054000FN00000000020221201000054000NNM   20220803121018    4P0P  00002700000000469800000755032Y5    BZYBL   006400630015
BI00B32Y5    TAT32123       202209207116-3154-02             TERMINAL FEMALE          CCN000054000000054000FN00000000020221201000054000NNM   20220803121018    4P0P  00002700000000469800000755032Y5    BZYBL   006400630015
BI00B32Y5    TAT32121       202209067196-1326-02             TERMINAL FEMALE          CCN000030000000060000FN00000000020221201000060000NNM   20220803121018    4P0P  00006000000000456000000784732Y5    BZYBL   006400630017
BI00B32Y5    TAT32122       202209067196-1326-02             TERMINAL FEMALE          CCN000030000000060000FN00000000020221201000060000NNM   20220803121018    4P0P  00006000000000456000000784732Y5    BZYBL   006400630017
BI00B32Y5    TAT32123       202209207196-1326-02             TERMINAL FEMALE          CCN000030000000060000FN00000000020221201000060000NNM   20220803121018    4P0P  00006000000000456000000784732Y5    BZYBL   006400630017
BI00B32Y5    TAT32124       202209207196-1326-02             TERMINAL FEMALE          CCN000030000000060000FN00000000020221201000060000NNM   20220803121018    4P0P  00006000000000456000000784732Y5    BZYBL   006400630017
BI00B32Y6    STAP3208RE     202209087287-3885-40             HYBRID FEMALE ASS'Y      CCN000009600000009600FN00000000020220801000009600NNED0720220803151629    1N0N  00000240000001029600001249632Y6    BSYBL-S 005500360039
BI00B32Y8    TAIM2208A      202208317114-4020                TERMINAL                 CCN000063000000063000FN00000000020221101000063000NNM   20220803121018Y8  4P0P  00002100000000875700001169332Y8    CLYCL   006400630015
BI00B32Y8    TAIM2208A      202208317114-4021                TERMINAL                 CCN000030000000030000FN00000000020221101000030000NNM   20220803121018Y8  4P0P  00001500000000670500000964132Y8    CLYCL   006400630015
BI00B32Y8    TAIM2208A      202208317114-4032                TERMINAL                 CCN000007500000007500FN00000000020221101000007500NNM   20220803121018Y8  4P0P  00000750000000735000001063632Y8    CLYCL   006400630017
BI00B32Y8    TAIM2208A      202208317116-1180                TERMINAL                 CCN000019500000019500FN00000000020221101000019500NNM   20220803121018Y8  1P0P  00001950000000618200000903432Y8    CLYCL   006400630015
BI00B32Y8    TAIM2208A      202208317116-6041                TERMINAL                 CCN000009000000009000FN00000000020221101000009000NNM   20220803121018Y8  4P0P  00000450000000716000001009632Y8    CLYCL   006400630015
BI00B32Y8    TAIM2208A      202208317235-8662                DOOR GROMMET             CCN000000800000000800FN00000000020221101000000800NNM   20220803121018Y8  4N0N  00000016000000844000001010032Y8    CLYCL   005500360039
BI00B32Y8    TAIM2208A      202208317286-3970                CONNECTOR HOUSING        CCN000000550000000550FN00000000020221101000000550NNM   20220803121018Y8  1N0N  00000011000000977300001164032Y8    CLYCL   005500360039
BI00B32Y8    TAIM2208A      202208317370-0309                J/B ASS'Y                CCN000000864000000864FN00000000020221101000000864NNM   20220803121018Y8  1J0J  00000001600000870400001260032Y8    CLYCL   005500360039
BI00B32Y8    TAIM2208A      202208317370-0310                J/B ASS'Y                CCN000000800000000800FN00000000020221101000000800NNM   20220803121018Y8  1J0J  00000001000000559000000809032Y8    CLYCL   005500360039
BI00B32Y8    TAIM2208A      202208317116-4231-02             TERMINAL                 CCN000182000000182000FN00000000020221101000182000NNM   20220803121018Y8  4P0P  00002600000000683800001012532Y8    CLYCL   006400630017
BI00B32Y8    TAIM2208A      202208317116-5044-02             TERMINAL                 CCN000016000000016000FN00000000020221101000016000NNM   20220803121018Y8  4P0P  00001600000000641600000986332Y8    CLYCL   006400630017
BI00B32Y8    TAIM2208A      202208317116-5045-02             TERMINAL                 CCN000016000000016000FN00000000020221101000016000NNM   20220803121018Y8  4P0P  00001600000000678400001007132Y8    CLYCL   006400630017
BI00B32Y8    TAIM2208A      202208317140-1977-30             UPPER COVER              CCN000000800000000800FN00000000020221101000000800NNM   20220803121018Y8  1F0F  00000001000000099500000249532Y8    CLYCL   005600390040
BI00B32Y8    TAIM2208A      202208317158-3070-80             RUBBER STOPPER           CCN000040000000040000FN00000000020221101000040000NNM   20220803121018Y8  1C0C  00004000000000276000000333332Y8    CLYCL   002700430014
BI00B32Y8    TAIM2208A      202208317158-3167-80             WIRE SEAL                CCN000360000000360000FN00000000020221101000360000NNM   20220803121018Y8  1C0C  00002000000000048000000109032Y8    CLYCL   002700430014
BI00B32Y8    TAIM2208A      202208317158-3168-80             SEALED                   CCN000060000000060000FN00000000020221101000060000NNM   20220803121018Y8  1C0C  00002000000000044000000092132Y8    CLYCL   004300260014
BI00B32Y8    #TAIM2208A     202208317035-2393                GROMMET                  CCN000001300000001300FN00000000020221101000001300NNM   20220803121018Y8  2H0H  00000010000001374000001581732Y8    CLYCL   005600390040
BI00B32Y8    #TAIM2208A     202208317173-1516                SIDE BRACKET             CCN000000600000000600FN00000000020221101000000600NNM   20220803121018Y8  2F0F  00000060000000960000001090032Y8    CLYCL   005500360039
BI00B32Y8    #TAIM2208A     202208317174-0152                CONNECTOR                CCN000001050000001050FN00000000020221101000001050NNM   20220803121018Y8  2F0F  00000035000000746400000918632Y8    CLYCL   005500360039
BI00B32Y8    #TAIM2208A     202208317187-3356                JOINT CONNECTOR          CCN000006000000006000FN00000000020221101000006000NNM   20220803121018Y8  2F0F  00000120000000759600001024432Y8    CLYCL   005600390040
BI00B32Y8    #TAIM2208A     202208317187-3360                JOINT CONNECTOR          CCN000004800000004800FN00000000020221101000004800NNM   20220803121018Y8  2F0F  00000120000000759600001026832Y8    CLYCL   005600390040
BI00B32Y8    #TAIM2208A     202208317187-3970                CONNECTOR FLAME          CCN000000736000000736FN00000000020221101000000736NNM   20220803121018Y8  2F0F  00000036800001414000001737332Y8    CLYCL   005600390040
BI00B32Y8    #TAIM2208A     202208317187-3971                CONNECTOR HOUSING        CCN000002400000002400FN00000000020221101000002400NNM   20220803121018Y8  2F0F  00000240000000928300001099532Y8    CLYCL   005500360039
BI00B32Y8    #TAIM2208A     202208317283-4861                CONNECTOR                CCN000001500000001500FN00000000020221101000001500NNM   20220803121018Y8  2N0N  00000150000001200000001359932Y8    CLYCL   005500360039
BI00B32Y8    #TAIM2208A     202208317140-1978-30             LOWER COVER              CCN000000784000000784FN00000000020221101000000784NNM   20220803121018Y8  2F0F  00000000800000207100000395132Y8    CLYCL   005500360039
BI00B32Y8    #TAIM2208A     202208317158-3007-10             RUBBER STOPPER           CCN000020000000020000FN00000000020221101000020000NNM   20220803121018Y8  2H0H  00002000000000308000000362732Y8    CLYCL   002700430014
BI00B32Y8    #TAIM2208A     202208317158-3120-90             CONNECTOR WIRE SEAL      CCN000040000000040000FN00000000020221101000040000NNM   20220803121018Y8  2C0C  00002000000000136000000194032Y8    CLYCL   002700430014
BI00B32Y8    #TAIM2208A     202208317186-3974-30             CONNECTOR HOUSING        CCN000002400000002400FN00000000020221101000002400NNM   20220803121018Y8  2F0F  00000240000001062200001233432Y8    CLYCL   005500360039
BI00B1200    2399T52825     202209017298-2853-30             HOUSING FEMALE ASS'Y     CCN000001440000001440FN00000000020220901000001440NNE   20220803160916    4N0N  0000002400000109490000136091200    YCYC    005500360039
BI00B1200    #O022J50279    202209157154-7040                RELAY BLOCK              CCN000012000000012000FN00000000020221001000012000NNE   20220803160931    2F0F  0000030000000060300000074491200    YCYC    005500360039
BI00B1200    #O022J50280    202209157154-8273                RELAY BLOCK              CCN000006000000006000FN00000000020221001000006000NNE   20220803160942    2F0F  0000010000000052300000067251200    YCYC    005500360039
BI00B1200    #O022J50281    202209157154-5328-30             RELAY BLOCK              CCN000006000000006000FN00000000020221001000006000NNE   20220803160952    2F0F  0000010000000121200000136191200    YCYC    005600390040
BI00B1200    2399T52826     202209087298-2853-30             HOUSING FEMALE ASS'Y     CCN000001440000001440FN00000000020221001000001440NNE   20220803161006    4N0N  0000002400000109490000136091200    YCYC    005500360039
BI00B1200    2399T52827     202209157298-2853-30             HOUSING FEMALE ASS'Y     CCN000001440000001440FN00000000020221001000001440NNE   20220803161015    4N0N  0000002400000109490000136091200    YCYC    005500360039
BI00B1200    2399T52828     202209227298-2853-30             HOUSING FEMALE ASS'Y     CCN000001440000001440FN00000000020221001000001440NNE   20220803161022    4N0N  0000002400000109490000136091200    YCYC    005500360039
BI00B1200    2399T52829     202209297298-2853-30             HOUSING FEMALE ASS'Y     CCN000002160000002160FN00000000020221001000002160NNE   20220803161035    4N0N  0000002400000109490000136091200    YCYC    005500360039
BI00B1200    O022K50020     202210067116-4100-02             TERMINAL                 CCN000060000000060000FN00000000020221101000060000NNE   20220803161114    4P0P  0000150000000069600000099021200    YCYC    006400630015
BI00B32CA    PTA33021       202210277116-3153-02             TERMINAL FEMALE          CCN000660000000675000FN00000000020230201000675000NNE   20220803121018    4P0P  00002700000000459000000744232CA    YPYPY   006400630015
BI00B32CA    PTA33021       202210277116-3154-02             TERMINAL FEMALE          CCN000330000000351000FN00000000020230201000351000NNE   20220803121018    4P0P  00002700000000469800000755032CA    YPYPY   006400630015
BI00B32CA    PTA33021       202210277158-3167-80             WIRE SEAL                CCN000240000000240000FN00000000020230201000240000NNE   20220803121018    1C0C  00002000000000048000000109032CA    YPYPY   002700430014
BI00B32CA    PTA33021       202210277196-0510-02             TERMINAL                 CCN000216000000216000FN00000000020230201000216000NNE   20220803121018    4P0P  00002400000000871200001034632CA    YPYPY   002800510028
BI00B32CA    PTA33021       202210277289-3342                HOUSING FEMALE ASS'Y     CCN000045600000045600FN00000000020230201000045600NNE   20220803121018    1N0N  00000240000000686400000901432CA    YPYPY   005500360039
BI00B32CA    PTA33021       202210277289-3342-90             HOUSING FEMALE ASS'Y     CCN000026400000026400FN00000000020230201000026400NNE   20220803121018    1N0N  00000240000000686400000901432CA    YPYPY   005500360039
BI00B32CA    PTA33021       202210277386-2747                CONNECTOR ASS'Y          CCN000012000000012000FN00000000020230201000012000NNE   20220803121018    4N0N  00000200000001162000001284532CA    YPYPY   005400370024
BI00B32CA    #PTA33021      202210277154-5597-30             CASSETTE R/B             CCN000000800000000800FN00000000020230201000000800NNE   20220803121018    2F0F  00000080000000736000000952032CA    YPYPY   005500360039
BI00B32CA    #PTA33021      202210277189-3032-30             HOUSING FEMALE           CCN000006400000006400FN00000000020230201000006400NNE   20220803121018    2F0F  00000160000000801600001021632CA    YPYPY   005500360039
BI00B32CA    #PTA33021      202210277189-3034-30             HOUSING FEMALE           CCN000003200000003200FN00000000020230201000003200NNE   20220803121018    2F0F  00000160000000972800001192832CA    YPYPY   005500360039
BI00B32CC    CTA32116       202209087289-6868-30             SEALED ASSY FEMALE       CCN000015120000015120FN00000000020221201000015120NNE   20220803121018    4N0N  00000252000000839200001119232CC    BIYABCBU005500360039
BI00B32CC    #CTA32116      202209087283-8226-30             CONNECTOR                CCN000046000000046000FN00000000020221201000046000NNE   20220803121018    2N0N  00000200000000820000001008032CC    BIYABCBU005400370024
BI00B32CC    #CTA32116      202209087157-7812                SEAL RUBBER              CCN000020000000020000FN00000000020221201000020000NNE   20220803121018    2C0C  00001000000000137000000202032CC    BIYABCBU002700430014
BI00B32CC    #CTA32116      202209087282-6446-40             CONNECTOR                CCN000003000000003000FN00000000020221201000003000NNE   20220803121018    2N0N  00000150000001185000001368032CC    BIYABCBU005500360039
BI00B32CC    #CTA32116      202209087282-6457-40             CONNECTOR                CCN000000800000000800FN00000000020221201000000800NNE   20220803121018    2N0N  00000080000001137000001421332CC    BIYABCBU005600390040
BI00B32CC    CTA32117       202208187158-3167-80             WIRE SEAL                CCN000020000000020000FN00000000020221201000020000NNE   20220803121018    1C0C  00002000000000048000000109032CC    BIYABCBU002700430014
BI00B32DA    SBT2210        202209017283-5830                CONNECTOR                CCN000048000000024000FN00000000020221001000024000NNMD0220220803145001    1N47  00000600000000954000001104032DA    GBYIPLGB005500360039
BI00B32DA    SBT2210        202210277286-3885-40             CONNECTOR MALE ASS'Y     CCN000032400000016800FN00000000020221001000016800NNMD0420220803145055    1N0N  00000120000000910600001130632DA    GBYIPLGB005500360039
BI00B32DA    SBT2210        202209087283-5830                CONNECTOR                CCN000024000000024000FN00000000020221001000024000NNMD0220220803145008    1N47  00000600000000954000001104032DA    GBYIPLGB005500360039
BI00B32DA    SBT2210        202211037286-3885-40             CONNECTOR MALE ASS'Y     CCN000015600000015600FN00000000020221001000015600NNMD0420220803145105    1N0N  00000120000000910600001130632DA    GBYIPLGB005500360039
BI00B32G2    SA2209A MW     202208177B58-3070-80             RUBBER STOPPER           CCN000040000000040000FN00000000020220901000040000NNE   20220803161323    1C0C  00004000000000276000000333032G2    AISUAI  004300270014
BI00B32G2    SA2209A MW     202208177196-1103-02             TERMINAL                 CCN000045000000045000FN00000000020220901000045000NNE   20220803161323    4P0P  00002250000000429800000715032G2    AISUAI  006400630015
BI00B32G2    SA2209A MW     202208177283-1144-30             CONNECTOR                CCN000002400000002400FN00000000020220901000002400NNE   20220803161323    4N0N  00000240000000602200000866132G2    AISUAI  005500360039
BI00B32G2    #SA2209A MW    202208177172-5630-40             RUBBER STOPPER           CCN000060000000060000FN00000000020220901000060000NNE   20220803161248    2H0H  00002000000000044000000095132G2    AISUAI  004300270014
BI00B32G2    #SA2209A MW    202208177172-5632-10             DUMMY PLUG               CCN000040000000040000FN00000000020220901000040000NNE   20220803161248    2H0H  00002000000000080400000131832G2    AISUAI  004300270014
BI00B32G2    #SA2209A MW    202208177287-1915-40             CONNECTOR ASS'Y          CCN000002400000002400FN00000000020220901000002400NNE   20220803161248    2N0N  00000240000000666500000923132G2    AISUAI  005500360039
BI00B32G2    SA2209BJMW     202208177126-8890-02             FUSE TERMINAL            CCN000006000000006000FN00000000020220901000006000NNE   20220803161325    4P0P  00000600000000465000000750232G2    AISUAI  006400630015
BI00B32G2    SA2209BJMW     202208177126-8891-02             FUSE TERMINAL            CCN000018000000018000FN00000000020220901000018000NNE   20220803161325    4P0P  00000600000000481800000767032G2    AISUAI  006400630015
BI00B32G2    SA2209BJMW     202208177195-1479-02             TERMINAL MALE            CCN000048000000048000FN00000000020220901000048000NNE   20220803161325    4P0P  00002400000000420000000714232G2    AISUAI  006400630015
BI00B32G2    SA2209BJMW     202208177195-1934-02             TERMINAL MALE            CCN000024000000024000FN00000000020220901000024000NNE   20220803161325    4P0P  00002400000000801600001095232G2    AISUAI  006400630015
BI00B32G2    SA2209BJMW     202208177195-1936-02             TERMINAL MALE            CCN000015000000015000FN00000000020220901000015000NNE   20220803161325    4P0P  00001500000000589500000883132G2    AISUAI  006400630015
BI00B32G2    SA2209BJMW     202208177196-1481-02             TERMINAL FEMALE          CCN000216000000216000FN00000000020220901000216000NNE   20220803161325    4P0P  00002400000000422400000707632G2    AISUAI  006400630015
BI00B32G2    SA2209BJMW     202208177196-1933-02             TERMINAL FEMALE          CCN000042000000042000FN00000000020220901000042000NNE   20220803161325    4P0P  00002100000000590100000875332G2    AISUAI  006400630015
BI00B32G2    SA2209BJMW     202208177196-1934-02             TERMINAL FEMALE          CCN000058500000058500FN00000000020220901000058500NNE   20220803161325    4P0P  00001950000000561600000846832G2    AISUAI  006400630015
BI00B32G2    SA2209BJMW     202208177196-1936-02             TERMINAL FEMALE          CCN000027000000027000FN00000000020220901000027000NNE   20220803161325    4P0P  00001350000000441500000726732G2    AISUAI  006400630015
BI00B32G2    SA2209BJMW     202208177196-1938-02             TERMINAL FEMALE          CCN000013500000013500FN00000000020220901000013500NNE   20220803161325    4P0P  00001350000000507600000795832G2    AISUAI  006400630015
BI00B32G2    SA2209BJMW     202208177196-1939-02             TERMINAL FEMALE          CCN000015000000015000FN00000000020220901000015000NNE   20220803161325    4P0P  00001500000000574500000862732G2    AISUAI  006400630015
BI00B32G2    SA2209BJMW     202208177196-1941-02             TERMINAL FEMALE          CCN000011400000011400FN00000000020220901000011400NNE   20220803161325    4P0P  00001140000000506200000794432G2    AISUAI  006400630015
BI00B32G2    SA2209BJMW     202208177196-1943-02             TERMINAL FEMALE          CCN000012000000012000FN00000000020220901000012000NNE   20220803161325    4P0P  00001200000000492000000777232G2    AISUAI  006400630015
BI00B32G2    SA2209BJMW     202208177196-1944-02             TERMINAL FEMALE          CCN000012000000012000FN00000000020220901000012000NNE   20220803161325    4P0P  00001200000000501600000786832G2    AISUAI  006400630015
BI00B32G2    SA2209BJMW     202208177196-1946-02             TERMINAL FEMALE          CCN000009000000009000FN00000000020220901000009000NNE   20220803161325    4P0P  00000900000000405000000690232G2    AISUAI  006400630015
BI00B32G2    SA2209BJMW     202208177196-2023-02             TERMINAL FEMALE          CCN000024000000024000FN00000000020220901000024000NNE   20220803161325    4P0P  00002400000000897600001061032G2    AISUAI  005100280028
BI00B32G2    SA2209BJMW     202208177282-4855-40             HOUSING MALE ASS'Y       CCN000001200000001200FN00000000020220901000001200NNE   20220803161325    4N0N  00000120000001063200001283232G2    AISUAI  005500360039
BI00B32G2    SA2209BJMW     202208177289-5979-30             HOUSING FEMALE ASS'Y     CCN000000504000000504FN00000000020220901000000504NNE   20220803161325    1N0N  00000025200000854700001064732G2    AISUAI  005400370024
BI00B32G2    #SA2209BJMW    202208177172-5626-90             RUBBER STOPPER           CCN000060000000060000FN00000000020220901000060000NNE   20220803161302    2H0H  00002000000000076400000127832G2    AISUAI  004300270014
BI00B32G2    #SA2209BJMW    202208177172-5627-60             RUBBER STOPPER           CCN000020000000020000FN00000000020220901000020000NNE   20220803161302    2H0H  00002000000000070400000121832G2    AISUAI  004300270014
BI00B32G2    #SA2209BJMW    202208177172-5628-80             DUMMY PLUG               CCN000020000000020000FN00000000020220901000020000NNE   20220803161302    2H0H  00002000000000110600000162032G2    AISUAI  004300270014
BI00B32G2    #SA2209BJMW    202208177172-5631-60             RUBBER STOPPER           CCN000020000000020000FN00000000020220901000020000NNE   20220803161302    2H0H  00002000000000042000000093132G2    AISUAI  004300270014
BI00B32G2    #SA2209BJMW    202208177173-2373-30             BLOCK LEVER              CCN000000800000000800FN00000000020220901000000800NNE   20220803161302    2F0F  00000080000000419500000609032G2    AISUAI  005500360039
BI00B32G2    #SA2209BJMW    202208177173-3225-10             LIF LEVER                CCN000000800000000800FN00000000020220901000000800NNE   20220803161302    2F0F  00000080000000592000000712032G2    AISUAI  005500360039
BI00B32G2    #SA2209BJMW    202208177189-3034-30             HOUSING FEMALE           CCN000001600000001600FN00000000020220901000001600NNE   20220803161302    2F0F  00000160000000972800001192832G2    AISUAI  005500360039
BI00B32G2    #SA2209BJMW    202208177287-1670                HOUSING FEMALE ASS'Y     CCN000002800000002800FN00000000020220901000002800NNE   20220803161302    2N0N  00000280000000953100001145132G2    AISUAI  005400370024
BI00B32G2    @SA2209BJMW    202208177282-1025                HOUSING SUB ASSEMBLY     CCN000002400000002400FN00000000020220901000002400NNE   20220803161320    3N0N  00000240000001143800001390032G2    AISUAI  005500360039
BI00B32J1    #396623        202208157174-1164                COVER                    CCN000002400000002400FN00000000020220801000002400NNMD0020220803121018    2F0F  00000080000000592000000712032J1    UKYEL-BL005500360039
BI00B32J1    396778         202209197298-1865-30             HOUSING FEMALE ASS'Y     CCN000597600000597600FN00000000020220801000597600NNED0420220803121018    4N0N  00000240000001003200001204532J1    UKYEL-BL005500360039
BI00B32J1    396778         202209197298-1869-30             HOUSING FEMALE ASS'Y     CCN000213600000213600FN00000000020220801000213600NNED0420220803121018    4N0N  00000120000000737000000939832J1    UKYEL-BL005500360039
BI00B32J1    396778         202209197298-2278-30             HOUSING FEMALE ASS'Y     CCN000302400000302400FN00000000020220801000302400NNED0420220803121018    4N0N  00000240000001091700001295432J1    UKYEL-BL005500360039
BI00B32J1    396779         202210177298-1865-30             HOUSING FEMALE ASS'Y     CCN000681600000681600FN00000000020220801000681600NNED0420220803121018    4N0N  00000240000001003200001204532J1    UKYEL-BL005500360039
BI00B32J1    396779         202209057298-1866-40             HOUSING FEMALE ASS'Y     CCN000132000000132000FN00000000020220801000132000NNED0420220803121018    4N0N  00000240000001003000001217932J1    UKYEL-BL005500360039
BI00B32J1    396779         202210177298-1869-30             HOUSING FEMALE ASS'Y     CCN000271200000271200FN00000000020220801000271200NNED0420220803121018    4N0N  00000120000000737000000939832J1    UKYEL-BL005500360039
BI00B32J1    396779         202210177298-2278-30             HOUSING FEMALE ASS'Y     CCN000362400000362400FN00000000020220801000362400NNED0420220803121018    4N0N  00000240000001091700001295432J1    UKYEL-BL005500360039
BI00B32J1    #396963        202209127282-6457-40             CONNECTOR                CCN000002400000002400FN00000000020220901000002400NNE   20220803121018    2N0N  00000080000001137000001421332J1    UKYEL-BL005600390040
BI00B32J1    396962         202209197114-4231-02             TERMINAL                 CCN000072000000072000FN00000000020220901000072000NNE   20220803121018    4P0P  00001800000000554400000848032J1    UKYEL-BL006400630015
BI00B32J1    396962         202209197158-3006-90             RUBBER STOPPER           CCN000020000000020000FN00000000020220901000020000NNE   20220803121018    1C0C  00002000000000330600000386032J1    UKYEL-BL002700430014
BI00B32J1    396962         202209197158-3070-80             RUBBER STOPPER           CCN000480000000480000FN00000000020220901000480000NNE   20220803121018    1C0C  00004000000000276000000333332J1    UKYEL-BL002700430014
BI00B32J1    #396962        202209197157-3790-90             WIRE SEAL                CCN000060000000060000FN00000000020220901000060000NNE   20220803121018    2C0C  00002000000000176000000232732J1    UKYEL-BL002700430014
BI00B32J1    #396962        202209197158-3003-90             RUBBER STOPPER           CCN000020000000020000FN00000000020220901000020000NNE   20220803121018    2C0C  00002000000000250000000306032J1    UKYEL-BL002700430014
BI00B32J1    #396962        202209197158-3120-90             CONNECTOR WIRE SEAL      CCN000040000000040000FN00000000020220901000040000NNE   20220803121018    2C0C  00002000000000136000000194032J1    UKYEL-BL002700430014
BI00B32J1    #396962        202209197158-3121-80             WIRE SEAL                CCN000240000000240000FN00000000020220901000240000NNE   20220803121018    2C0C  00002000000000118000000187332J1    UKYEL-BL002700430014
BI00B32K8    #K1220011462   202210217137-2200                CONNECTOR PACKING        CCN000005000000005000FN00000000020221201000005000NNM   20220803121018    2C0C  00000500000000136000000211332K8    ELELCOM 004300270014
BI00B32M8    PM2209A MW     202208247116-4025                TERMINAL                 CCN000032000000032000FN00000000020220901000032000NNE   20220803161558    4P0P  00001600000000644800000975132M8    PMPEMI  006400630017
BI00B32M8    PM2209A MW     202208247116-4026                TERMINAL                 CCN000048000000048000FN00000000020220901000048000NNE   20220803161558    4P0P  00001600000000664000000994332M8    PMPEMI  006400630017
BI00B32M8    PM2209A MW     202208247158-3165-90             WIRE SEAL                CCN000004000000040000FN00000000020220901000040000NNE   20220803161558    1C0C  00004000000000124000000172432M8    PMPEMI  004300270014
BI00B32M8    PM2209A MW     202208247283-1289-30             CONNECTOR HOUSING        CCN000000600000000600FN00000000020220901000000600NNE   20220803161558    1N0N  00000060000000675600000820632M8    PMPEMI  005400370024
BI00B32M8    #PM2209A MW    202208247189-3032                HOUSING FEMALE           CCN000001600000001600FN00000000020220901000001600NNE   20220803161556    2F0F  00000160000000788400001018432M8    PMPEMI  005500360039
BI00B32M8    #PM2209ATMW    202208247154-5597-30             CASSETTE R/B             CCN000000800000000800FN00000000020220901000000800NNE   20220803161711    2F0F  00000080000000736000000952032M8    PMPEMI  005500360039
BI00B32M8    #PM2209ATMW    202208247172-5627-60             RUBBER STOPPER           CCN000020000000020000FN00000000020220901000020000NNE   20220803161711    2H0H  00002000000000070400000121832M8    PMPEMI  004300270014
BI00B32M8    PM2209B MW     202208317116-4025                TERMINAL                 CCN000048000000048000FN00000000020220901000048000NNE   20220803161734    4P0P  00001600000000644800000975132M8    PMPEMI  006400630017
BI00B32R7    R-TAP220325    202208257158-3006-90             RUBBER STOPPER           CCN000200000000200000FN00000000020220901000200000NNE   20220803161337    1C0C  00002000000000330600000386032R7    IVYCIC  002700430014
BI00B32R7    R-TAP220326    202208257116-4025                TERMINAL                 CCN000224000000224000FN00000000020220901000224000NNE   20220803161451    4P0P  00001600000000644800000975132R7    IVYCIC  006400630017
BI00B32R7    R-TAP220328    202208257158-3169-40             SEALING PLUG             CCN000320000000320000FN00000000020220901000320000NNE   20220803161508    1C0C  00004000000000156000000204132R7    IVYCIC  004300260014
BI00B32R7    R-TAP220327    202209227158-3169-40             SEALING PLUG             CCN000040000000040000FN00000000020221001000040000NNE   20220803161519    1C0C  00004000000000156000000204132R7    IVYCIC  004300260014
BI00B32W4    4500194821     202208117283-1024                CONNECTOR SUB ASSY       CCN000002000000002000FN00000000020220801000002000NNED0020220803121018W4164N0N  00000200000000400000000522532W416  HJYHK   005400370024
BI00A32W4    4500197861     202210037158-3167-80             WIRE SEAL                CCN000040000000040000FN00000000020221001000040000NNE   20220803121018W4G91C0C  00002000000000048000000109032W4G9  HJYHK-J 002700430014
BI00A32W4    #4500197861    202210037158-3120-90             CONNECTOR WIRE SEAL      CCN000020000000020000FN00000000020221001000020000NNE   20220803121018W4G92C0C  00002000000000136000000194032W4G9  HJYHK-J 002700430014
BI00A32W4    4500197862     202210037158-3167-80             WIRE SEAL                CCN000040000000040000FN00000000020221001000040000NNE   20220803121018W4P61C0C  00002000000000048000000109032W4P6  HJYHK-J 002700430014
BI00B32W4    4500197863     202210047289-9553-30             SEALED ASSY FEMALE       CCN000035280000035280FN00000000020221001000035280NNE   20220803121018W4O64N0N  00000294000001109000001521532W4O6  HJYHK-J 005500360039
BI00B32W4    4500197864     202210067116-4100-02             TERMINAL                 CCN000225000000225000FN00000000020221001000225000NNE   20220803121018W4164P0P  00001500000000696000000990232W416  HJYHK   006400630015
BI00B32W4    4500197864     202210067116-4121-02             TERMINAL                 CCN000013500000013500FN00000000020221001000013500NNE   20220803121018W4164P0P  00000450000000618800000912432W416  HJYHK   006400630015
BI00B32W4    4500197864     202210067116-4111-02             TERMINAL                 CCN000007500000007500FN00000000020221001000007500NNE   20220803121018W4164P0P  00000750000000529500000817732W416  HJYHK   006400630015
BI00B32W4    4500197864     202210067116-4112-02             TERMINAL                 CCN000078000000078000FN00000000020221001000078000NNE   20220803121018W4164P0P  00000600000000450000000738232W416  HJYHK   006400630015
BI00B32W4    4500197864     202210067116-4102-02             TERMINAL                 CCN000036000000036000FN00000000020221001000036000NNE   20220803121018W4164P0P  00001200000000553200000841432W416  HJYHK   006400630015
BI00B32W4    4500197864     202210067116-4025                TERMINAL                 CCN000016000000016000FN00000000020221001000016000NNE   20220803121018W4164P0P  00001600000000644800000975132W416  HJYHK   006400630017
BI00B32W4    4500197864     202210067283-7028-30             CONNECTOR                CCN000006000000006000FN00000000020221001000006000NNE   20220803121018W4164N0N  00000300000001452000001681332W416  HJYHK   005600390040
BI00B32W4    4500197864     202210067114-4100-02             TERMINAL                 CCN000072000000072000FN00000000020221001000072000NNE   20220803121018W4164P0P  00001800000000748800001077432W416  HJYHK   006400630017
BI00B32W4    4500197864     202210067116-4124-02             TERMINAL                 CCN000003000000003000FN00000000020221001000003000NNE   20220803121018W4164P0P  00000300000000459900000753532W416  HJYHK   006400630015
BI00B32W4    4500197864     202210067283-5548-30             CONNECTOR                CCN000001500000001500FN00000000020221001000001500NNE   20220803121018W4164N0N  00000150000001109000001302032W416  HJYHK   005600390040
BI00B32W4    4500197864     202210067158-3166-60             WIRE SEAL                CCN000160000000160000FN00000000020221001000160000NNE   20220803121018W4161C0C  00004000000000104000000152432W416  HJYHK   002700430014
BI00B32W4    4500197864     202210067116-4101-02             TERMINAL                 CCN000048000000048000FN00000000020221001000048000NNE   20220803121018W4164P0P  00001200000000582000000876232W416  HJYHK   006400630015
BI00B32W4    4500197864     202210067116-4120-02             TERMINAL                 CCN000006000000006000FN00000000020221001000006000NNE   20220803121018W4164P0P  00000600000000780000001073632W416  HJYHK   006400630015
BI00B32W4    4500197864     202210067114-4101-02             TERMINAL                 CCN000030000000030000FN00000000020221001000030000NNE   20220803121018W4164P0P  00001500000000675000001003632W416  HJYHK   006400630017
BI00B32W4    4500197864     202210067116-4104-02             TERMINAL                 CCN000036000000036000FN00000000020221001000036000NNE   20220803121018W4164P0P  00001200000000580800000972432W416  HJYHK   006400630015
BI00B32W4    4500197864     202210067114-4110-02             TERMINAL                 CCN000015000000015000FN00000000020221001000015000NNE   20220803121018W4164P0P  00001500000000901500001230132W416  HJYHK   006400630017
BI00B32W4    4500197864     202210067116-4103-02             TERMINAL                 CCN000012000000012000FN00000000020221001000012000NNE   20220803121018W4164P0P  00001200000000571200000859432W416  HJYHK   006400630015
BI00B32W4    4500197864     202210067283-1020                CONNECTOR                CCN000006000000006000FN00000000020221001000006000NNE   20220803121018W4164N0N  00000600000000840000001049332W416  HJYHK   005600390040
BI00B32W4    4500197864     202210067283-1024                CONNECTOR SUB ASSY       CCN000006000000006000FN00000000020221001000006000NNE   20220803121018W4164N0N  00000200000000400000000522532W416  HJYHK   005400370024
BI00B32W4    4500197864     202210067282-1024                HOUSING MALE             CCN000005000000005000FN00000000020221001000005000NNE   20220803121018W4161N0N  00000100000000458000000580532W416  HJYHK   005400370024
BI00B32W4    4500197864     202210067283-1030                CONNECTOR                CCN000006000000006000FN00000000020221001000006000NNE   20220803121018W4164N0N  00000600000000988000001172032W416  HJYHK   005500360039
BI00B32W4    4500197864     202210067288-6547                CONNECTOR MALE ASS'Y     CCN000006750000006750FN00000000020221001000006750NNE   20220803121018W4164N0N  00000075000001205300001340332W416  HJYHK   005400370024
BI00B32W4    4500197864     202210067289-6547                HOUSING FEMALE ASS'Y     CCN000007200000007200FN00000000020221001000007200NNE   20220803121018W4161N0N  00000240000001152000001362032W416  HJYHK   005500360039
BI00B32W4    4500197864     202210067283-1156                CONNECTOR                CCN000004800000004800FN00000000020221001000004800NNE   20220803121018W4164N0N  00000080000000877600001078032W416  HJYHK   005600390040
BI00B32W4    #4500197864    202210067282-4190-30             CONNECTOR                CCN000002880000002880FN00000000020221001000002880NNE   20220803121018W4162N0N  00000024000000801000001071332W416  HJYHK   005600390040
BI00B32W4    #4500197864    202210067283-4190-30             CONNECTOR                CCN000002640000002640FN00000000020221001000002640NNE   20220803121018W4162N0N  00000024000000846000001115532W416  HJYHK   005600390040
BI00B32W4    #4500197864    202210067158-3003-90             RUBBER STOPPER           CCN000020000000020000FN00000000020221001000020000NNE   20220803121018W4162C0C  00002000000000250000000306032W416  HJYHK   002700430014
BI00B32W4    #4500197864    202210067187-1616                HOUSING FEMALE           CCN000004000000004000FN00000000020221001000004000NNE   20220803121018W4162F0F  00000400000001152000001262032W416  HJYHK   005500360039
BI00B32W4    @4500197864    202210067287-6634                HOUSING FEMALE ASS'Y     CCN000002400000002400FN00000000020221001000002400NNE   20220803121018W4163N0N  00000240000001088400001337032W416  HJYHK   005500360039
BI00B32W4    4500197871     202210067116-4120-02             TERMINAL                 CCN000018000000018000FN00000000020221001000018000NNE   20220803121018W46 4P0P  00000600000000780000001073632W46   HJYHK   006400630015
BI00B32W4    4500197871     202210067116-4122-02             TERMINAL                 CCN000094500000094500FN00000000020221001000094500NNE   20220803121018W46 4P0P  00000450000000656600000950232W46   HJYHK   006400630015
BI00B32W4    4500197871     202210067114-4101-02             TERMINAL                 CCN000105000000105000FN00000000020221001000105000NNE   20220803121018W46 4P0P  00001500000000675000001003632W46   HJYHK   006400630017
BI00B32W4    4500197871     202210067116-4101-02             TERMINAL                 CCN000024000000024000FN00000000020221001000024000NNE   20220803121018W46 4P0P  00001200000000582000000876232W46   HJYHK   006400630015
BI00B32W4    4500197871     202210067114-4112-02             TERMINAL                 CCN000189000000189000FN00000000020221001000189000NNE   20220803121018W46 4P0P  00000900000000598500000927132W46   HJYHK   006400630017
BI00B32W4    4500197871     202210067114-4100-02             TERMINAL                 CCN000198000000198000FN00000000020221001000198000NNE   20220803121018W46 4P0P  00001800000000748800001077432W46   HJYHK   006400630017
BI00B32W4    4500197871     202210067116-4111-02             TERMINAL                 CCN000052500000052500FN00000000020221001000052500NNE   20220803121018W46 4P0P  00000750000000529500000817732W46   HJYHK   006400630015
BI00B32W4    4500197876     202208187116-5041-02             TERMINAL                 CCN000015000000015000FN00000000020220801000015000NNE   20220803121018W4374P0P  00001500000000583500000868732W437  HJYHK   006400630015
BI00A32W4    4500197886     202210067158-3166-60             WIRE SEAL                CCN000040000000040000FN00000000020221001000040000NNE   20220803121018W4141C0C  00004000000000104000000152432W414  HJYHK   002700430014
BI00A32W4    4500197886     202210067158-3169-40             SEALING PLUG             CCN000040000000040000FN00000000020221001000040000NNE   20220803121018W4141C0C  00004000000000156000000204132W414  HJYHK   004300260014
BI00A32W4    4500197886     202210067116-4110-02             TERMINAL                 CCN000009000000009000FN00000000020221001000009000NNE   20220803121018W4144P0P  00000900000000594000000882232W414  HJYHK   006400630015
BI00A32W4    #4500197886    202210067282-6458-40             CONNECTOR                CCN000003000000003000FN00000000020221001000003000NNE   20220803121018W4142N0N  00000100000001206000001350532W414  HJYHK   005500360039
BI00A32W4    4500197890     202210037116-4100-02             TERMINAL                 CCN000015000000015000FN00000000020221001000015000NNE   20220803121018W4194P0P  00001500000000696000000990232W419  HJYHK   006400630015
BI00A32W4    4500197890     202210037116-4101-02             TERMINAL                 CCN000012000000012000FN00000000020221001000012000NNE   20220803121018W4194P0P  00001200000000582000000876232W419  HJYHK   006400630015
BI00A32W4    4500197890     202210037116-4104-02             TERMINAL                 CCN000012000000012000FN00000000020221001000012000NNE   20220803121018W4194P0P  00001200000000580800000972432W419  HJYHK   006400630015
BI00A32W4    4500197890     202210037283-6568-40             CONNECTOR                CCN000004000000004000FN00000000020221001000004000NNE   20220803121018W4194N0N  00000200000001090000001263032W419  HJYHK   005500360039
BI00B32W4    4500197896     202210067116-4102-02             TERMINAL                 CCN000012000000012000FN00000000020221001000012000NNE   20220803121018W4L64P0P  00001200000000553200000841432W4L6  HJYHK-K 006400630015
BI00B32W4    4500197902     202209087158-3167-80             WIRE SEAL                CCN000500000000500000FN00000000020220901000500000NNE   20220803121018W4B71C0C  00002000000000048000000109032W4B7  HJYHK-J 002700430014
BI00B32W4    4500197902     202209087158-3166-60             WIRE SEAL                CCN000320000000320000FN00000000020220901000320000NNE   20220803121018W4B71C0C  00004000000000104000000152432W4B7  HJYHK-J 002700430014
BI00B32W4    4500197902     202209087158-3169-40             SEALING PLUG             CCN000520000000520000FN00000000020220901000520000NNE   20220803121018W4B71C0C  00004000000000156000000204132W4B7  HJYHK-J 004300260014
BI00B32W4    #4500197905    202211287157-7812                SEAL RUBBER              CCN000300000000300000FN00000000020221101000300000NNE   20220803121018W4Q12C0C  00001000000000137000000202032W4Q1  SCYHK-J 002700430014
BI00B32W7    SC2209AJMW     202208247116-4031                TERMINAL                 CCN000007500000007500FN00000000020220901000007500NNE   20220803161756    4P0P  00000750000000619500000904732W7    SYSYA-CH006400630015
BI00B32W7    SC2209AJMW     202208247283-8630                CONNECTOR ASS'Y          CCN000012000000012000FN00000000020220901000012000NNE   20220803161756    4N0N  00000600000000540000000701332W7    SYSYA-CH005400370024
BI00B32W7    #SC2209AJMW    202208247158-3008-80             RUBBER STOPPER           CCN000040000000040000FN00000000020220901000040000NNE   20220803161754    2C0C  00002000000000288000000343032W7    SYSYA-CH004300270014
BI00B32W9    #4500197910    202208237283-8398-40             CONNECTOR                CCN000032340000032340FN00000000020220801000032340NNE   20220803155805W9  2N0N  00000154000001007000001171332W9    HKYHK   005600390023
BI00B32Y1    TA2101A        202209057158-3166-60             WIRE SEAL                CCN000008000000040000FN00000000020221101000040000NNM   20220803121018    1C0C  00004000000000104000000152432Y1    YAYAS   002700430014
BI00B32Y1    TA2102A        202209197158-3166-60             WIRE SEAL                CCN000004000000040000FN00000000020221101000040000NNM   20220803121018    1C0C  00004000000000104000000152432Y1    YAYAS   002700430014
BI00B32Y1    TA2101A        202209057287-9323                UNSEALED HOUSING SUB     CCN000007200000007200FN00000000020221101000007200NNM   20220803121018    1N0N  00000240000000537600000690032Y1    YAYAS   005600390023
BI00B32Y1    TA2102A        202209197287-9323                UNSEALED HOUSING SUB     CCN000004800000004800FN00000000020221101000004800NNM   20220803121018    1N0N  00000240000000537600000690032Y1    YAYAS   005600390023
BI00B32Y1    TA2101A        202209057289-3342-30             HOUSING FEMALE ASS'Y     CCN000021600000021600FN00000000020221101000021600NNM   20220803121018    1N0N  00000240000000686400000901432Y1    YAYAS   005500360039
BI00B32Y1    TA2102A        202209197289-3342-30             HOUSING FEMALE ASS'Y     CCN000021600000021600FN00000000020221101000021600NNM   20220803121018    1N0N  00000240000000686400000901432Y1    YAYAS   005500360039
BI00B32Y1    TA2101A        202209057388-2978-30             HOUSING MALE ASS'Y       CCN000013440000013440FN00000000020221101000013440NNM   20220803121018    1N0N  00000048000000742000001122032Y1    YAYAS   005500360039
BI00B32Y1    TA2102A        202209197388-2978-30             HOUSING MALE ASS'Y       CCN000013440000013440FN00000000020221101000013440NNM   20220803121018    1N0N  00000048000000742000001122032Y1    YAYAS   005500360039
BI00B32Y1    TA2101A        202209057116-4037                TERMINAL                 CCN000026400000030000FN00000000020221101000030000NNM   20220803121018    4P0P  00000600000000600000000894232Y1    YAYAS   006400630015
BI00B32Y1    TA2102A        202209197116-4037                TERMINAL                 CCN000019800000024000FN00000000020221101000024000NNM   20220803121018    4P0P  00000600000000600000000894232Y1    YAYAS   006400630015
BI00B32Y1    TA2101A        202209057114-6041                TERMINAL                 CCN000007200000007200FN00000000020221101000007200NNM   20220803121018    4P0P  00000360000000580700000824232Y1    YAYAS   006400630015
BI00B32Y1    TA2102A        202209197114-6041                TERMINAL                 CCN000007200000007200FN00000000020221101000007200NNM   20220803121018    4P0P  00000360000000580700000824232Y1    YAYAS   006400630015
BI00B32Y1    TA2101A        202209057158-3070-80             RUBBER STOPPER           CCN000040000000040000FN00000000020221101000040000NNM   20220803121018    1C0C  00004000000000276000000333332Y1    YAYAS   002700430014
BI00B32Y1    TA2102A        202209197158-3070-80             RUBBER STOPPER           CCN000040000000040000FN00000000020221101000040000NNM   20220803121018    1C0C  00004000000000276000000333332Y1    YAYAS   002700430014
BI00B32Y1    TA2101A        202209057158-3009-60             RUBBER STOPPER           CCN000180000000180000FN00000000020221101000180000NNM   20220803121018    1C0C  00002000000000338000000386232Y1    YAYAS   002700430014
BI00B32Y1    TA2102A        202209197158-3009-60             RUBBER STOPPER           CCN000180000000180000FN00000000020221101000180000NNM   20220803121018    1C0C  00002000000000338000000386232Y1    YAYAS   002700430014
BI00B32Y1    TA2101A        202209057116-5750-02             TERMINAL                 CCN000075000000075000FN00000000020221101000075000NNM   20220803121018    4P0P  00001500000000457500000742732Y1    YAYAS   006400630015
BI00B32Y1    TA2102A        202209197116-5750-02             TERMINAL                 CCN000075000000075000FN00000000020221101000075000NNM   20220803121018    4P0P  00001500000000457500000742732Y1    YAYAS   006400630015
BI00B32Y1    TA2101A        202209057196-0510-02             TERMINAL                 CCN000024000000024000FN00000000020221101000024000NNM   20220803121018    4P0P  00002400000000871200001034632Y1    YAYAS   002800510028
BI00B32Y1    TA2101A        202209057196-0512-02             TERMINAL                 CCN000021000000021000FN00000000020221101000021000NNM   20220803121018    4P0P  00002100000000871500001034932Y1    YAYAS   002800510028
BI00B32Y1    TA2101A        202209057158-3006-90             RUBBER STOPPER           CCN000460000000460000FN00000000020221101000460000NNM   20220803121018    1C0C  00002000000000330600000386032Y1    YAYAS   002700430014
BI00B32Y1    TA2102A        202209197158-3006-90             RUBBER STOPPER           CCN000460000000460000FN00000000020221101000460000NNM   20220803121018    1C0C  00002000000000330600000386032Y1    YAYAS   002700430014
BI00B32Y1    #TA2101A       202209057158-3005-80             RUBBER STOPPER           CCN000040000000040000FN00000000020221101000040000NNM   20220803121018    2H0H  00002000000000210000000268732Y1    YAYAS   002700430014
BI00B32Y1    #TA2102A       202209197158-3005-80             RUBBER STOPPER           CCN000040000000040000FN00000000020221101000040000NNM   20220803121018    2H0H  00002000000000210000000268732Y1    YAYAS   002700430014
BI00B32Y1    #TA2101A       202209057189-2978-30             HOUSING FEMALE           CCN000012000000012000FN00000000020221101000012000NNM   20220803121018    2F0F  00000150000000966900001096932Y1    YAYAS   005400370024
BI00B32Y1    #TA2102A       202209197189-2978-30             HOUSING FEMALE           CCN000012000000012000FN00000000020221101000012000NNM   20220803121018    2F0F  00000150000000966900001096932Y1    YAYAS   005400370024
BI00B32Y1    #TA2101A       202209057189-3032                HOUSING FEMALE           CCN000014400000014400FN00000000020221101000014400NNM   20220803121018    2F0F  00000160000000788400001018432Y1    YAYAS   005500360039
BI00B32Y1    #TA2102A       202209197189-3032                HOUSING FEMALE           CCN000012800000012800FN00000000020221101000012800NNM   20220803121018    2F0F  00000160000000788400001018432Y1    YAYAS   005500360039
BI00B32Y1    #TA2101A       202209057189-3037                HOUSING FEMALE           CCN000004800000004800FN00000000020221101000004800NNM   20220803121018    2F0F  00000480000000806400001066432Y1    YAYAS   005500360039
BI00B32Y1    #TA2102A       202209197189-3037                HOUSING FEMALE           CCN000004800000004800FN00000000020221101000004800NNM   20220803121018    2F0F  00000480000000806400001066432Y1    YAYAS   005500360039
BI00B32Y1    #TA2101A       202209057289-2912-30             HOUSING FEMALE ASS'Y     CCN000002000000002000FN00000000020221101000002000NNM   20220803121018    2N0N  00000200000000804000000929032Y1    YAYAS   005400370024
BI00B32Y1    #TA2101A       202209057289-2914                HOUSING FEMALE ASS'Y     CCN000007500000007500FN00000000020221101000007500NNM   20220803121018    2N0N  00000150000000906000001033032Y1    YAYAS   005400370024
BI00B32Y1    #TA2102A       202209197289-2914                HOUSING FEMALE ASS'Y     CCN000006000000006000FN00000000020221101000006000NNM   20220803121018    2N0N  00000150000000906000001033032Y1    YAYAS   005400370024
BI00B32Y1    #TA2101A       202209057289-2915-30             HOUSING FEMALE ASS'Y     CCN000007500000007500FN00000000020221101000007500NNM   20220803121018    2N0N  00000150000000964500001091532Y1    YAYAS   005400370024
BI00B32Y1    #TA2102A       202209197289-2915-30             HOUSING FEMALE ASS'Y     CCN000006000000006000FN00000000020221101000006000NNM   20220803121018    2N0N  00000150000000964500001091532Y1    YAYAS   005400370024
BI00B32Y1    #TA2101A       202209057289-2916-30             HOUSING FEMALE ASS'Y     CCN000006000000006000FN00000000020221101000006000NNM   20220803121018    2N0N  00000100000000857000001084032Y1    YAYAS   005400370024
BI00B32Y1    #TA2102A       202209197289-2916-30             HOUSING FEMALE ASS'Y     CCN000005000000005000FN00000000020221101000005000NNM   20220803121018    2N0N  00000100000000857000001084032Y1    YAYAS   005400370024
BI00B32Y1    #TA2101A       202209057289-2919-30             HOUSING FEMALE ASS'Y     CCN000007500000007500FN00000000020221101000007500NNM   20220803121018    2N0N  00000150000000907500001034532Y1    YAYAS   005400370024
BI00B32Y1    #TA2102A       202209197289-2919-30             HOUSING FEMALE ASS'Y     CCN000006000000006000FN00000000020221101000006000NNM   20220803121018    2N0N  00000150000000907500001034532Y1    YAYAS   005400370024
BI00B32Y1    #TA2101A       202209057154-5597-30             CASSETTE R/B             CCN000025600000025600FN00000000020221101000025600NNM   20220803121018    2F0F  00000080000000736000000952032Y1    YAYAS   005500360039
BI00B32Y1    #TA2102A       202209197154-5597-30             CASSETTE R/B             CCN000025600000025600FN00000000020221101000025600NNM   20220803121018    2F0F  00000080000000736000000952032Y1    YAYAS   005500360039
BI00B32Y1    #TA2101A       202209057158-3008-80             RUBBER STOPPER           CCN000100000000100000FN00000000020221101000100000NNM   20220803121018    2C0C  00002000000000288000000343032Y1    YAYAS   004300270014
BI00B32Y1    #TA2102A       202209197158-3008-80             RUBBER STOPPER           CCN000100000000100000FN00000000020221101000100000NNM   20220803121018    2C0C  00002000000000288000000343032Y1    YAYAS   004300270014
BI00B32Y1    #TA2101A       202209057158-3017                RUBBER STOPPER           CCN000010000000010000FN00000000020221101000010000NNM   20220803121018    2C0C  00001000000000375500000435032Y1    YAYAS   002700430014
BI00B32Y1    #TA2102A       202209197158-3017                RUBBER STOPPER           CCN000010000000010000FN00000000020221101000010000NNM   20220803121018    2C0C  00001000000000375500000435032Y1    YAYAS   002700430014
BI00B32Y1    #TA2101A       202209057158-3003-90             RUBBER STOPPER           CCN000220000000220000FN00000000020221101000220000NNM   20220803121018    2C0C  00002000000000250000000306032Y1    YAYAS   002700430014
BI00B32Y1    #TA2102A       202209197158-3003-90             RUBBER STOPPER           CCN000200000000200000FN00000000020221101000200000NNM   20220803121018    2C0C  00002000000000250000000306032Y1    YAYAS   002700430014
BI00B32Y1    #TA2101A       202209057158-3007-10             RUBBER STOPPER           CCN000040000000040000FN00000000020221101000040000NNM   20220803121018    2H0H  00002000000000308000000362732Y1    YAYAS   002700430014
BI00B32Y1    #TA2102A       202209197158-3007-10             RUBBER STOPPER           CCN000020000000020000FN00000000020221101000020000NNM   20220803121018    2H0H  00002000000000308000000362732Y1    YAYAS   002700430014
BI00B32Y1    #TA2101A       202209057158-3015-10             RUBBER STOPPER           CCN000010000000010000FN00000000020221101000010000NNM   20220803121018    2C0C  00001000000000419500000474032Y1    YAYAS   002700430014
BI00B32Y5    TAT32121       202209067116-3153-02             TERMINAL FEMALE          CCN000648000000648000FN00000000020221201000648000NNM   20220803121018    4P0P  00002700000000459000000744232Y5    BZYBL   006400630015
BI00B32Y5    TAT32122       202209067116-3153-02             TERMINAL FEMALE          CCN000108000000108000FN00000000020221201000108000NNM   20220803121018    4P0P  00002700000000459000000744232Y5    BZYBL   006400630015
BI00B32Y5    TAT32123       202209207116-3153-02             TERMINAL FEMALE          CCN000648000000648000FN00000000020221201000648000NNM   20220803121018    4P0P  00002700000000459000000744232Y5    BZYBL   006400630015
BI00B32Y5    TAT32124       202209207116-3153-02             TERMINAL FEMALE          CCN000108000000108000FN00000000020221201000108000NNM   20220803121018    4P0P  00002700000000459000000744232Y5    BZYBL   006400630015
BI00B32Y5    TAT32121       202209067116-3154-02             TERMINAL FEMALE          CCN000054000000054000FN00000000020221201000054000NNM   20220803121018    4P0P  00002700000000469800000755032Y5    BZYBL   006400630015
BI00B32Y5    TAT32123       202209207116-3154-02             TERMINAL FEMALE          CCN000054000000054000FN00000000020221201000054000NNM   20220803121018    4P0P  00002700000000469800000755032Y5    BZYBL   006400630015
BI00B32Y5    TAT32121       202209067196-1326-02             TERMINAL FEMALE          CCN000030000000060000FN00000000020221201000060000NNM   20220803121018    4P0P  00006000000000456000000784732Y5    BZYBL   006400630017
BI00B32Y5    TAT32122       202209067196-1326-02             TERMINAL FEMALE          CCN000030000000060000FN00000000020221201000060000NNM   20220803121018    4P0P  00006000000000456000000784732Y5    BZYBL   006400630017
BI00B32Y5    TAT32123       202209207196-1326-02             TERMINAL FEMALE          CCN000030000000060000FN00000000020221201000060000NNM   20220803121018    4P0P  00006000000000456000000784732Y5    BZYBL   006400630017
BI00B32Y5    TAT32124       202209207196-1326-02             TERMINAL FEMALE          CCN000030000000060000FN00000000020221201000060000NNM   20220803121018    4P0P  00006000000000456000000784732Y5    BZYBL   006400630017
BI00B32Y6    STAP3208RE     202209087287-3885-40             HYBRID FEMALE ASS'Y      CCN000009600000009600FN00000000020220801000009600NNED0720220803151629    1N0N  00000240000001029600001249632Y6    BSYBL-S 005500360039
BI00B32Y8    TAIM2208A      202208317114-4020                TERMINAL                 CCN000063000000063000FN00000000020221101000063000NNM   20220803121018Y8  4P0P  00002100000000875700001169332Y8    CLYCL   006400630015
BI00B32Y8    TAIM2208A      202208317114-4021                TERMINAL                 CCN000030000000030000FN00000000020221101000030000NNM   20220803121018Y8  4P0P  00001500000000670500000964132Y8    CLYCL   006400630015
