BI00B32DJ    GHT2209-1      20220727180D0204070              AVSSH 0.75F Y            CCN000098000000098000FN00000000020220601000098000NNM   20220705141525    1W    00000100000000934000000000032DJ    RBYIPLRB000000000000XH227014
BI00B32DJ    GHT2209-2      20220811180D0204070              AVSSH 0.75F Y            CCN000012000000012000FN00000000020220601000012000NNM   20220705141525    1W    00000100000000934000000000032DJ    RBYIPLRB000000000000XH427011
BI00B32DJ    GHT2209-2      20220811180D0204060              AVSSH 0.75F G            CCN000001000000001000FN00000000020220601000001000NNM   20220705141525    1W    00000100000000934000000000032DJ    RBYIPLRB000000000000XH427008
BI00B32DJ    GHT2209-1      20220727180D0204030              AVSSH 0.75F B            CCN000005000000005000FN00000000020220601000005000NNM   20220705141525    1W    00000100000000934000000000032DJ    RBYIPLRB000000000000XH227008
BI00B32DJ    GHT2209-2      20220811180D0204030              AVSSH 0.75F B            CCN000001000000001000FN00000000020220601000001000NNM   20220705141525    1W    00000100000000934000000000032DJ    RBYIPLRB000000000000XH427006
BI00B32DJ    GHT2209-1      20220727180D0204091              AVSSH 0.75F SB           CCN000097000000097000FN00000000020220601000097000NNM   20220705141525    1W    00000100000000934000000000032DJ    RBYIPLRB000000000000XH227012
BI00B32DJ    GHT2209-2      20220811180D0204091              AVSSH 0.75F SB           CCN000011000000011000FN00000000020220601000011000NNM   20220705141525    1W    00000100000000934000000000032DJ    RBYIPLRB000000000000XH427010
BI00B32DJ    GHT2209-1      20220727180D0204061              AVSSH 0.75F LG           CCN000010000000010000FN00000000020220601000010000NNM   20220705141525    1W    00000100000000934000000000032DJ    RBYIPLRB000000000000XH227010
BI00B32DJ    GHT2209-2      20220811180D0204061              AVSSH 0.75F LG           CCN000002000000002000FN00000000020220601000002000NNM   20220705141525    1W    00000100000000934000000000032DJ    RBYIPLRB000000000000XH427009
BI00B32DJ    GHT2209-1      20220727180D0204092              AVSSH 0.75F V            CCN000002000000002000FN00000000020220601000002000NNM   20220705141525    1W    00000100000000934000000000032DJ    RBYIPLRB000000000000XH227013
BI00B32DJ    GHT2209-1      20220727180D0204080              AVSSH 0.75F BR           CCN000026000000026000FN00000000020220601000026000NNM   20220705141525    1W    00000100000000934000000000032DJ    RBYIPLRB000000000000XH227009
BI00B32DJ    GHT2209-2      20220811180D0204080              AVSSH 0.75F BR           CCN000007000000007000FN00000000020220601000007000NNM   20220705141525    1W    00000100000000934000000000032DJ    RBYIPLRB000000000000XH427007
BI00B32DJ    GHT2209-2      20220811180D0204161              AVSSH 1.25F LG           CCN000000800000000800FN00000000020220601000000800NNM   20220705141525    1W    00000080000001458000000000032DJ    RBYIPLRB000000000000XH427012
BI00B32DJ    GHT2209-1      20220727180D0203752              AVSSH 0.3F P             CCN000004000000004000FN00000000020220601000004000NNM   20220705141525    1W    00000200000000515000000000032DJ    RBYIPLRB000000000000XH227004
BI00B32DJ    GHT2209-2      20220811180D0203752              AVSSH 0.3F P             CCN000002000000002000FN00000000020220601000002000NNM   20220705141525    1W    00000200000000515000000000032DJ    RBYIPLRB000000000000XH427003
BI00B32DJ    GHT2209-1      20220727180D0203761              AVSSH 0.3F LG            CCN000002000000002000FN00000000020220601000002000NNM   20220705141525    1W    00000200000000515000000000032DJ    RBYIPLRB000000000000XH227003
BI00B32DJ    GHT2209-1      20220727180D0204050              AVSSH 0.75F R            CCN000003000000003000FN00000000020220601000003000NNM   20220705141525    1W    00000100000000934000000000032DJ    RBYIPLRB000000000000XH227011
BI00B32DJ    GHT2209-1      20220727180D0203952              AVSSH 0.5F P             CCN000003000000003000FN00000000020220601000003000NNM   20220705141525    1W    00000150000000689000000000032DJ    RBYIPLRB000000000000XH227006
BI00B32DJ    GHT2209-1      20220727180D0203790              AVSSH 0.3F L             CCN000006000000006000FN00000000020220601000006000NNM   20220705141525    1W    00000200000000515000000000032DJ    RBYIPLRB000000000000XH227002
BI00B32DJ    GHT2209-2      20220811180D0203790              AVSSH 0.3F L             CCN000002000000002000FN00000000020220601000002000NNM   20220705141525    1W    00000200000000515000000000032DJ    RBYIPLRB000000000000XH427002
BI00B32DJ    GHT2209-1      20220727180D0203941              AVSSH 0.5F GY            CCN000003000000003000FN00000000020220601000003000NNM   20220705141525    1W    00000150000000689000000000032DJ    RBYIPLRB000000000000XH227005
BI00B32DJ    GHT2209-2      20220811180D0203941              AVSSH 0.5F GY            CCN000001500000001500FN00000000020220601000001500NNM   20220705141525    1W    00000150000000689000000000032DJ    RBYIPLRB000000000000XH427004
BI00B32DJ    GHT2209-1      20220727180D0203940              AVSSH 0.5F W             CCN000004500000004500FN00000000020220601000004500NNM   20220705141525    1W    00000150000000689000000000032DJ    RBYIPLRB000000000000XH227007
BI00B32DJ    GHT2209-2      20220811180D0203940              AVSSH 0.5F W             CCN000001500000001500FN00000000020220601000001500NNM   20220705141525    1W    00000150000000689000000000032DJ    RBYIPLRB000000000000XH427005
BI00B32DJ    @GHT2209-1     20220727181AD2017ZZ              CIVUSAS-S 0.22X3 B       CCN000026230000026230FN00000000020220601000026230NNM   20220705141527    1W    00000043000001678200000000032DJ    RBYIPLRB000000000000XH227001
BI00B32DJ    @GHT2209-2     20220811181AD2017ZZ              CIVUSAS-S 0.22X3 B       CCN000009460000009460FN00000000020220601000009460NNM   20220705141527    1W    00000043000001678200000000032DJ    RBYIPLRB000000000000XH427001
BI00B32G9    22091TMW       20220729180D0203730              AVSSH 0.3F B             CCN000002000000002000FN00000000020220901000002000NNM   20220705134925    1W    00000200000000515000000000032G9    TYTYC   000000000000LT227028
BI00B32G9    22092TMW       20220805180D0203730              AVSSH 0.3F B             CCN000002000000002000FN00000000020220901000002000NNM   20220705134925    1W    00000200000000515000000000032G9    TYTYC   000000000000LT327021
BI00B32G9    22091TMW       20220729180D0203752              AVSSH 0.3F P             CCN000002000000002000FN00000000020220901000002000NNM   20220705134925    1W    00000200000000515000000000032G9    TYTYC   000000000000LT227032
BI00B32G9    22091TMW       20220729180D0203761              AVSSH 0.3F LG            CCN000002000000002000FN00000000020220901000002000NNM   20220705134925    1W    00000200000000515000000000032G9    TYTYC   000000000000LT227031
BI00B32G9    22091TMW       20220729180D0203770              AVSSH 0.3F Y             CCN000002000000002000FN00000000020220901000002000NNM   20220705134925    1W    00000200000000515000000000032G9    TYTYC   000000000000LT227034
BI00B32G9    22092TMW       20220805180D0203770              AVSSH 0.3F Y             CCN000002000000002000FN00000000020220901000002000NNM   20220705134925    1W    00000200000000515000000000032G9    TYTYC   000000000000LT327022
BI00B32G9    22091TMW       20220729180D0203780              AVSSH 0.3F BR            CCN000002000000002000FN00000000020220901000002000NNM   20220705134925    1W    00000200000000515000000000032G9    TYTYC   000000000000LT227029
BI00B32G9    22091TMW       20220729180D0203790              AVSSH 0.3F L             CCN000002000000002000FN00000000020220901000002000NNM   20220705134925    1W    00000200000000515000000000032G9    TYTYC   000000000000LT227030
BI00B32G9    22091TMW       20220729180D0203792              AVSSH 0.3F V             CCN000002000000002000FN00000000020220901000002000NNM   20220705134925    1W    00000200000000515000000000032G9    TYTYC   000000000000LT227033
BI00B32G9    22091TMW       20220729180D0203930              AVSSH 0.5F B             CCN000001500000001500FN00000000020220901000001500NNM   20220705134925    1W    00000150000000689000000000032G9    TYTYC   000000000000LT227035
BI00B32G9    22091TMW       20220729180D0203943              AVSSH 0.5F W/B           CCN000001500000001500FN00000000020220901000001500NNM   20220705134925    1W    00000150000000689000000000032G9    TYTYC   000000000000LT227040
BI00B32G9    22092TMW       20220805180D0203943              AVSSH 0.5F W/B           CCN000001500000001500FN00000000020220901000001500NNM   20220705134925    1W    00000150000000689000000000032G9    TYTYC   000000000000LT327023
BI00B32G9    22091TMW       20220729180D0203950              AVSSH 0.5F R             CCN000001500000001500FN00000000020220901000001500NNM   20220705134925    1W    00000150000000689000000000032G9    TYTYC   000000000000LT227038
BI00B32G9    22091TMW       20220729180D0203960              AVSSH 0.5F G             CCN000001500000001500FN00000000020220901000001500NNM   20220705134925    1W    00000150000000689000000000032G9    TYTYC   000000000000LT227037
BI00B32G9    22091TMW       20220729180D0203980              AVSSH 0.5F BR            CCN000001500000001500FN00000000020220901000001500NNM   20220705134925    1W    00000150000000689000000000032G9    TYTYC   000000000000LT227036
BI00B32G9    22091TMW       20220729180D0203992              AVSSH 0.5F V             CCN000001500000001500FN00000000020220901000001500NNM   20220705134925    1W    00000150000000689000000000032G9    TYTYC   000000000000LT227039
BI00B32G9    22091TMW       20220729180D0204140              AVSSH 1.25F W            CCN000000800000000800FN00000000020220901000000800NNM   20220705134925    1W    00000080000001458000000000032G9    TYTYC   000000000000LT227041
BI00B32G9    22092TMW       20220805180D0204140              AVSSH 1.25F W            CCN000000800000000800FN00000000020220901000000800NNM   20220705134925    1W    00000080000001458000000000032G9    TYTYC   000000000000LT327024
BI00B32G9    22091TMW       20220729180D0204143              AVSSH 1.25F W/B          CCN000002400000002400FN00000000020220901000002400NNM   20220705134925    1W    00000080000001458000000000032G9    TYTYC   000000000000LT227042
BI00B32G9    22092TMW       20220805180D0204143              AVSSH 1.25F W/B          CCN000001600000001600FN00000000020220901000001600NNM   20220705134925    1W    00000080000001458000000000032G9    TYTYC   000000000000LT327025
BI00B32G9    22091TMW       2022072918007704030              AVSS 0.75F B             CCN000001000000001000FN00000000020220901000001000NNM   20220705134925    1W    00000100000000943000000000032G9    TYTYC   000000000000LT227043
BI00B32G9    22092TMW       2022080518007704030              AVSS 0.75F B             CCN000001000000001000FN00000000020220901000001000NNM   20220705134925    1W    00000100000000943000000000032G9    TYTYC   000000000000LT327026
BI00B32G9    22091TMW       202207291801W003930              IVSSH 0.5F B             CCN000003600000003600FN00000000020220901000003600NNM   20220705134925    1W    00000180000000625000000000032G9    TYTYC   000000000000LT227044
BI00B32G9    22092TMW       202208051801W003930              IVSSH 0.5F B             CCN000001800000001800FN00000000020220901000001800NNM   20220705134925    1W    00000180000000625000000000032G9    TYTYC   000000000000LT327027
BI00B32G9    22091TMW       202207291801W003940              IVSSH 0.5F W             CCN000001800000001800FN00000000020220901000001800NNM   20220705134925    1W    00000180000000625000000000032G9    TYTYC   000000000000LT227051
BI00B32G9    22091TMW       202207291801W003943              IVSSH 0.5F W/B           CCN000001800000001800FN00000000020220901000001800NNM   20220705134925    1W    00000180000000625000000000032G9    TYTYC   000000000000LT227052
BI00B32G9    22091TMW       202207291801W003950              IVSSH 0.5F R             CCN000001800000001800FN00000000020220901000001800NNM   20220705134925    1W    00000180000000625000000000032G9    TYTYC   000000000000LT227048
BI00B32G9    22091TMW       202207291801W003952              IVSSH 0.5F P             CCN000001800000001800FN00000000020220901000001800NNM   20220705134925    1W    00000180000000625000000000032G9    TYTYC   000000000000LT227047
BI00B32G9    22091TMW       202207291801W003960              IVSSH 0.5F G             CCN000003600000003600FN00000000020220901000003600NNM   20220705134925    1W    00000180000000625000000000032G9    TYTYC   000000000000LT227045
BI00B32G9    22092TMW       202208051801W003960              IVSSH 0.5F G             CCN000001800000001800FN00000000020220901000001800NNM   20220705134925    1W    00000180000000625000000000032G9    TYTYC   000000000000LT327028
BI00B32G9    22091TMW       202207291801W003990              IVSSH 0.5F L             CCN000001800000001800FN00000000020220901000001800NNM   20220705134925    1W    00000180000000625000000000032G9    TYTYC   000000000000LT227046
BI00B32G9    22092TMW       202208051801W003990              IVSSH 0.5F L             CCN000001800000001800FN00000000020220901000001800NNM   20220705134925    1W    00000180000000625000000000032G9    TYTYC   000000000000LT327029
BI00B32G9    22091TMW       202207291801W003991              IVSSH 0.5F SB            CCN000001800000001800FN00000000020220901000001800NNM   20220705134925    1W    00000180000000625000000000032G9    TYTYC   000000000000LT227049
BI00B32G9    22091TMW       202207291801W003992              IVSSH 0.5F V             CCN000001800000001800FN00000000020220901000001800NNM   20220705134925    1W    00000180000000625000000000032G9    TYTYC   000000000000LT227050
BI00B32G9    22091TMW       202207291801W004060              IVSSH 0.75F G            CCN000002600000002600FN00000000020220901000002600NNM   20220705134925    1W    00000130000000882000000000032G9    TYTYC   000000000000LT227053
BI00B32G9    22092TMW       202208051801W004060              IVSSH 0.75F G            CCN000001300000001300FN00000000020220901000001300NNM   20220705134925    1W    00000130000000882000000000032G9    TYTYC   000000000000LT327030
BI00B32G9    22091TMW       202207291801W004070              IVSSH 0.75F Y            CCN000001300000001300FN00000000020220901000001300NNM   20220705134925    1W    00000130000000882000000000032G9    TYTYC   000000000000LT227054
BI00B32G9    22091TMW       202207291801W006930              IVSSH 0.35F B            CCN000002500000002500FN00000000020220901000002500NNM   20220705134925    1W    00000250000000452000000000032G9    TYTYC   000000000000LT227055
BI00B32G9    22092TMW       202208051801W006930              IVSSH 0.35F B            CCN000002500000002500FN00000000020220901000002500NNM   20220705134925    1W    00000250000000452000000000032G9    TYTYC   000000000000LT327031
BI00B32G9    22091TMW       202207291801W006940              IVSSH 0.35F W            CCN000002500000002500FN00000000020220901000002500NNM   20220705134925    1W    00000250000000452000000000032G9    TYTYC   000000000000LT227062
BI00B32G9    22091TMW       202207291801W006941              IVSSH 0.35F GY           CCN000002500000002500FN00000000020220901000002500NNM   20220705134925    1W    00000250000000452000000000032G9    TYTYC   000000000000LT227058
BI00B32G9    22091TMW       202207291801W006950              IVSSH 0.35F R            CCN000005000000005000FN00000000020220901000005000NNM   20220705134925    1W    00000250000000452000000000032G9    TYTYC   000000000000LT227060
BI00B32G9    22092TMW       202208051801W006950              IVSSH 0.35F R            CCN000002500000002500FN00000000020220901000002500NNM   20220705134925    1W    00000250000000452000000000032G9    TYTYC   000000000000LT327034
BI00B32G9    22091TMW       202207291801W006960              IVSSH 0.35F G            CCN000002500000002500FN00000000020220901000002500NNM   20220705134925    1W    00000250000000452000000000032G9    TYTYC   000000000000LT227057
BI00B32G9    22092TMW       202208051801W006960              IVSSH 0.35F G            CCN000002500000002500FN00000000020220901000002500NNM   20220705134925    1W    00000250000000452000000000032G9    TYTYC   000000000000LT327032
BI00B32G9    22091TMW       202207291801W006970              IVSSH 0.35F Y            CCN000002500000002500FN00000000020220901000002500NNM   20220705134925    1W    00000250000000452000000000032G9    TYTYC   000000000000LT227063
BI00B32G9    22092TMW       202208051801W006970              IVSSH 0.35F Y            CCN000002500000002500FN00000000020220901000002500NNM   20220705134925    1W    00000250000000452000000000032G9    TYTYC   000000000000LT327035
BI00B32G9    22091TMW       202207291801W006980              IVSSH 0.35F BR           CCN000002500000002500FN00000000020220901000002500NNM   20220705134925    1W    00000250000000452000000000032G9    TYTYC   000000000000LT227056
BI00B32G9    22091TMW       202207291801W006990              IVSSH 0.35F L            CCN000002500000002500FN00000000020220901000002500NNM   20220705134925    1W    00000250000000452000000000032G9    TYTYC   000000000000LT227059
BI00B32G9    22092TMW       202208051801W006990              IVSSH 0.35F L            CCN000002500000002500FN00000000020220901000002500NNM   20220705134925    1W    00000250000000452000000000032G9    TYTYC   000000000000LT327033
BI00B32G9    22091TMW       202207291801W006992              IVSSH 0.35F V            CCN000002500000002500FN00000000020220901000002500NNM   20220705134925    1W    00000250000000452000000000032G9    TYTYC   000000000000LT227061
BI00B32G9    @22091TMW      20220729181E50004ZZ              AVSSCS-S 0.5FX1 DGY      CCN000000800000000800FN00000000020220901000000800NNM   20220705134924    1W    00000040000001909700000000032G9    TYTYC   000000000000LT227014
BI00B32G9    @22092TMW      20220805181E50004ZZ              AVSSCS-S 0.5FX1 DGY      CCN000000800000000800FN00000000020220901000000800NNM   20220705134924    1W    00000040000001909700000000032G9    TYTYC   000000000000LT327008
BI00B32H8    22093 MW       2022081118007703930              AVSS 0.5F B              CCN000003000000003000FN00000000020220901000003000NNM   20220705135828    1W    00000150000000674000000000032H8    TYTYC   000000000000LM427002
BI00B32H8    22092 MW       2022080518007703935              AVSS 0.5F B/R            CCN000001500000001500FN00000000020220901000001500NNM   20220705135828    1W    00000150000000674000000000032H8    TYTYC   000000000000LM327002
BI00B32H8    22092 MW       2022080518007703937              AVSS 0.5F B/Y            CCN000001500000001500FN00000000020220901000001500NNM   20220705135828    1W    00000150000000674000000000032H8    TYTYC   000000000000LM327003
BI00B32H8    22093 MW       2022081118007703937              AVSS 0.5F B/Y            CCN000001500000001500FN00000000020220901000001500NNM   20220705135828    1W    00000150000000674000000000032H8    TYTYC   000000000000LM427003
BI00B32H8    22092 MW       2022080518007703941              AVSS 0.5F GY             CCN000001500000001500FN00000000020220901000001500NNM   20220705135828    1W    00000150000000674000000000032H8    TYTYC   000000000000LM327004
BI00B32H8    22093 MW       2022081118007703941              AVSS 0.5F GY             CCN000003000000003000FN00000000020220901000003000NNM   20220705135828    1W    00000150000000674000000000032H8    TYTYC   000000000000LM427005
BI00B32H8    22093 MW       2022081118007703943              AVSS 0.5F W/B            CCN000001500000001500FN00000000020220901000001500NNM   20220705135828    1W    00000150000000674000000000032H8    TYTYC   000000000000LM427010
BI00B32H8    22092 MW       2022080518007703949              AVSS 0.5F W/L            CCN000001500000001500FN00000000020220901000001500NNM   20220705135828    1W    00000150000000674000000000032H8    TYTYC   000000000000LM327007
BI00B32H8    22092 MW       2022080518007703950              AVSS 0.5F R              CCN000001500000001500FN00000000020220901000001500NNM   20220705135828    1W    00000150000000674000000000032H8    TYTYC   000000000000LM327005
BI00B32H8    22093 MW       2022081118007703950              AVSS 0.5F R              CCN000003000000003000FN00000000020220901000003000NNM   20220705135828    1W    00000150000000674000000000032H8    TYTYC   000000000000LM427008
BI00B32H8    22093 MW       2022081118007703952              AVSS 0.5F P              CCN000001500000001500FN00000000020220901000001500NNM   20220705135828    1W    00000150000000674000000000032H8    TYTYC   000000000000LM427007
BI00B32H8    22092 MW       2022080518007703954              AVSS 0.5F R/W            CCN000003000000003000FN00000000020220901000003000NNM   20220705135828    1W    00000150000000674000000000032H8    TYTYC   000000000000LM327006
BI00B32H8    22093 MW       2022081118007703954              AVSS 0.5F R/W            CCN000003000000003000FN00000000020220901000003000NNM   20220705135828    1W    00000150000000674000000000032H8    TYTYC   000000000000LM427009
BI00B32H8    22093 MW       2022081118007703960              AVSS 0.5F G              CCN000001500000001500FN00000000020220901000001500NNM   20220705135828    1W    00000150000000674000000000032H8    TYTYC   000000000000LM427004
BI00B32H8    22092 MW       2022080518007703970              AVSS 0.5F Y              CCN000001500000001500FN00000000020220901000001500NNM   20220705135828    1W    00000150000000674000000000032H8    TYTYC   000000000000LM327008
BI00B32H8    22093 MW       2022081118007703970              AVSS 0.5F Y              CCN000001500000001500FN00000000020220901000001500NNM   20220705135828    1W    00000150000000674000000000032H8    TYTYC   000000000000LM427011
BI00B32H8    22091 MW       2022072918007703973              AVSS 0.5F Y/B            CCN000001500000001500FN00000000020220901000001500NNM   20220705135828    1W    00000150000000674000000000032H8    TYTYC   000000000000LM227002
BI00B32H8    22092 MW       2022080518007703973              AVSS 0.5F Y/B            CCN000001500000001500FN00000000020220901000001500NNM   20220705135828    1W    00000150000000674000000000032H8    TYTYC   000000000000LM327009
BI00B32H8    22093 MW       2022081118007703973              AVSS 0.5F Y/B            CCN000001500000001500FN00000000020220901000001500NNM   20220705135828    1W    00000150000000674000000000032H8    TYTYC   000000000000LM427012
BI00B32H8    22092 MW       2022080518007703975              AVSS 0.5F Y/R            CCN000001500000001500FN00000000020220901000001500NNM   20220705135828    1W    00000150000000674000000000032H8    TYTYC   000000000000LM327010
BI00B32H8    22093 MW       2022081118007703975              AVSS 0.5F Y/R            CCN000001500000001500FN00000000020220901000001500NNM   20220705135828    1W    00000150000000674000000000032H8    TYTYC   000000000000LM427013
BI00B32H8    22093 MW       2022081118007703990              AVSS 0.5F L              CCN000001500000001500FN00000000020220901000001500NNM   20220705135828    1W    00000150000000674000000000032H8    TYTYC   000000000000LM427006
BI00B32H8    22091 MW       2022072918007704030              AVSS 0.75F B             CCN000003000000003000FN00000000020220901000003000NNM   20220705135828    1W    00000100000000943000000000032H8    TYTYC   000000000000LM227003
BI00B32H8    22092 MW       2022080518007704030              AVSS 0.75F B             CCN000003000000003000FN00000000020220901000003000NNM   20220705135828    1W    00000100000000943000000000032H8    TYTYC   000000000000LM327011
BI00B32H8    22093 MW       2022081118007704030              AVSS 0.75F B             CCN000003000000003000FN00000000020220901000003000NNM   20220705135828    1W    00000100000000943000000000032H8    TYTYC   000000000000LM427014
BI00B32H8    22091 MW       2022072918007704037              AVSS 0.75F B/Y           CCN000003000000003000FN00000000020220901000003000NNM   20220705135828    1W    00000100000000943000000000032H8    TYTYC   000000000000LM227004
BI00B32H8    22092 MW       2022080518007704037              AVSS 0.75F B/Y           CCN000006000000006000FN00000000020220901000006000NNM   20220705135828    1W    00000100000000943000000000032H8    TYTYC   000000000000LM327012
BI00B32H8    22093 MW       2022081118007704037              AVSS 0.75F B/Y           CCN000003000000003000FN00000000020220901000003000NNM   20220705135828    1W    00000100000000943000000000032H8    TYTYC   000000000000LM427015
BI00B32H8    22092 MW       2022080518007704060              AVSS 0.75F G             CCN000002000000002000FN00000000020220901000002000NNM   20220705135828    1W    00000100000000943000000000032H8    TYTYC   000000000000LM327013
BI00B32H8    22093 MW       2022081118007704060              AVSS 0.75F G             CCN000002000000002000FN00000000020220901000002000NNM   20220705135828    1W    00000100000000943000000000032H8    TYTYC   000000000000LM427016
BI00B32H8    22092 MW       2022080518007704063              AVSS 0.75F G/B           CCN000001000000001000FN00000000020220901000001000NNM   20220705135828    1W    00000100000000943000000000032H8    TYTYC   000000000000LM327014
BI00B32H8    @22091 MW      20220729181B32102S1              AVSSCS 0.5FX2 DGY        CCN000006000000006000FN00000000020220901000006000NNM   20220705135823    1W    00000030000002903000000000032H8    TYTYC   000000000000LM227001
BI00B32H8    @22092 MW      20220805181B32102S1              AVSSCS 0.5FX2 DGY        CCN000004500000004500FN00000000020220901000004500NNM   20220705135823    1W    00000030000002903000000000032H8    TYTYC   000000000000LM327001
BI00B32H8    @22093 MW      20220811181B32102S1              AVSSCS 0.5FX2 DGY        CCN000006000000006000FN00000000020220901000006000NNM   20220705135823    1W    00000030000002903000000000032H8    TYTYC   000000000000LM427001
BI00B32H8    22091IMW       2022072918007704036              AVSS 0.75F B/G           CCN000002000000002000FN00000000020220901000002000NNM   20220705135829    1W    00000100000000943000000000032H8    TYTYC   000000000000LI227006
BI00B32H8    22092IMW       2022080518007704036              AVSS 0.75F B/G           CCN000002000000002000FN00000000020220901000002000NNM   20220705135829    1W    00000100000000943000000000032H8    TYTYC   000000000000LI327003
BI00B32H8    22093IMW       2022081118007704036              AVSS 0.75F B/G           CCN000001000000001000FN00000000020220901000001000NNM   20220705135829    1W    00000100000000943000000000032H8    TYTYC   000000000000LI427002
BI00B32H8    @22091IMW      20220729181AD2022ZZ              CIVUSAS-S 0.35X2 B(R,G)  CCN000000450000000450FN00000000020220901000000450NNM   20220705135824    1W    00000045000001714000000000032H8    TYTYC   000000000000LI227001
BI00B32H8    @22091IMW      20220729181B32039Y5              AVSSCS 0.5FX1 DGY/W      CCN000000400000000400FN00000000020220901000000400NNM   20220705135824    1W    00000040000002289000000000032H8    TYTYC   000000000000LI227003
BI00B32H8    @22091IMW      20220729181B32039Y6              AVSSCS 0.5FX1 DGY/G      CCN000000400000000400FN00000000020220901000000400NNM   20220705135824    1W    00000040000002289000000000032H8    TYTYC   000000000000LI227002
BI00B32H8    @22091IMW      20220729181B32102Y5              AVSSCS 0.5FX2 DGY/W      CCN000000300000000300FN00000000020220901000000300NNM   20220705135824    1W    00000030000002903000000000032H8    TYTYC   000000000000LI227005
BI00B32H8    @22092IMW      20220805181B32102Y5              AVSSCS 0.5FX2 DGY/W      CCN000000300000000300FN00000000020220901000000300NNM   20220705135824    1W    00000030000002903000000000032H8    TYTYC   000000000000LI327002
BI00B32H8    @22091IMW      20220729181B32102Y6              AVSSCS 0.5FX2 DGY/G      CCN000000600000000600FN00000000020220901000000600NNM   20220705135824    1W    00000030000002903000000000032H8    TYTYC   000000000000LI227004
BI00B32H8    @22092IMW      20220805181B32102Y6              AVSSCS 0.5FX2 DGY/G      CCN000000600000000600FN00000000020220901000000600NNM   20220705135824    1W    00000030000002903000000000032H8    TYTYC   000000000000LI327001
BI00B32H8    @22093IMW      20220811181B32102Y6              AVSSCS 0.5FX2 DGY/G      CCN000000600000000600FN00000000020220901000000600NNM   20220705135824    1W    00000030000002903000000000032H8    TYTYC   000000000000LI427001
BI00B32H8    22092KMW       20220805180D0203730              AVSSH 0.3F B             CCN000002000000002000FN00000000020220901000002000NNM   20220705135830    1W    00000200000000515000000000032H8    TYTYC   000000000000LK327032
BI00B32H8    22093KMW       20220812180D0203730              AVSSH 0.3F B             CCN000002000000002000FN00000000020220901000002000NNM   20220705135830    1W    00000200000000515000000000032H8    TYTYC   000000000000LK427033
BI00B32H8    22092KMW       20220805180D0203750              AVSSH 0.3F R             CCN000002000000002000FN00000000020220901000002000NNM   20220705135830    1W    00000200000000515000000000032H8    TYTYC   000000000000LK327033
BI00B32H8    22093KMW       20220812180D0203750              AVSSH 0.3F R             CCN000002000000002000FN00000000020220901000002000NNM   20220705135830    1W    00000200000000515000000000032H8    TYTYC   000000000000LK427036
BI00B32H8    22093KMW       20220812180D0203752              AVSSH 0.3F P             CCN000002000000002000FN00000000020220901000002000NNM   20220705135830    1W    00000200000000515000000000032H8    TYTYC   000000000000LK427035
BI00B32H8    22093KMW       20220812180D0203770              AVSSH 0.3F Y             CCN000002000000002000FN00000000020220901000002000NNM   20220705135830    1W    00000200000000515000000000032H8    TYTYC   000000000000LK427038
BI00B32H8    22093KMW       20220812180D0203790              AVSSH 0.3F L             CCN000002000000002000FN00000000020220901000002000NNM   20220705135830    1W    00000200000000515000000000032H8    TYTYC   000000000000LK427034
BI00B32H8    22092KMW       20220805180D0203792              AVSSH 0.3F V             CCN000002000000002000FN00000000020220901000002000NNM   20220705135830    1W    00000200000000515000000000032H8    TYTYC   000000000000LK327034
BI00B32H8    22093KMW       20220812180D0203792              AVSSH 0.3F V             CCN000002000000002000FN00000000020220901000002000NNM   20220705135830    1W    00000200000000515000000000032H8    TYTYC   000000000000LK427037
BI00B32H8    22093KMW       20220812180D0203930              AVSSH 0.5F B             CCN000004500000004500FN00000000020220901000004500NNM   20220705135830    1W    00000150000000689000000000032H8    TYTYC   000000000000LK427039
BI00B32H8    22092KMW       20220805180D0203935              AVSSH 0.5F B/R           CCN000001500000001500FN00000000020220901000001500NNM   20220705135830    1W    00000150000000689000000000032H8    TYTYC   000000000000LK327035
BI00B32H8    22093KMW       20220812180D0203935              AVSSH 0.5F B/R           CCN000001500000001500FN00000000020220901000001500NNM   20220705135830    1W    00000150000000689000000000032H8    TYTYC   000000000000LK427040
BI00B32H8    22093KMW       20220812180D0203940              AVSSH 0.5F W             CCN000003000000003000FN00000000020220901000003000NNM   20220705135830    1W    00000150000000689000000000032H8    TYTYC   000000000000LK427046
BI00B32H8    22092KMW       20220805180D0203943              AVSSH 0.5F W/B           CCN000003000000003000FN00000000020220901000003000NNM   20220705135830    1W    00000150000000689000000000032H8    TYTYC   000000000000LK327038
BI00B32H8    22093KMW       20220812180D0203943              AVSSH 0.5F W/B           CCN000004500000004500FN00000000020220901000004500NNM   20220705135830    1W    00000150000000689000000000032H8    TYTYC   000000000000LK427047
BI00B32H8    22092KMW       20220805180D0203950              AVSSH 0.5F R             CCN000003000000003000FN00000000020220901000003000NNM   20220705135830    1W    00000150000000689000000000032H8    TYTYC   000000000000LK327037
BI00B32H8    22093KMW       20220812180D0203950              AVSSH 0.5F R             CCN000003000000003000FN00000000020220901000003000NNM   20220705135830    1W    00000150000000689000000000032H8    TYTYC   000000000000LK427044
BI00B32H8    22093KMW       20220812180D0203952              AVSSH 0.5F P             CCN000003000000003000FN00000000020220901000003000NNM   20220705135830    1W    00000150000000689000000000032H8    TYTYC   000000000000LK427043
BI00B32H8    22093KMW       20220812180D0203961              AVSSH 0.5F LG            CCN000001500000001500FN00000000020220901000001500NNM   20220705135830    1W    00000150000000689000000000032H8    TYTYC   000000000000LK427042
BI00B32H8    22092KMW       20220805180D0203970              AVSSH 0.5F Y             CCN000003000000003000FN00000000020220901000003000NNM   20220705135830    1W    00000150000000689000000000032H8    TYTYC   000000000000LK327039
BI00B32H8    22093KMW       20220812180D0203970              AVSSH 0.5F Y             CCN000006000000006000FN00000000020220901000006000NNM   20220705135830    1W    00000150000000689000000000032H8    TYTYC   000000000000LK427048
BI00B32H8    22092KMW       20220805180D0203990              AVSSH 0.5F L             CCN000001500000001500FN00000000020220901000001500NNM   20220705135830    1W    00000150000000689000000000032H8    TYTYC   000000000000LK327036
BI00B32H8    22093KMW       20220812180D0203990              AVSSH 0.5F L             CCN000004500000004500FN00000000020220901000004500NNM   20220705135830    1W    00000150000000689000000000032H8    TYTYC   000000000000LK427041
BI00B32H8    22093KMW       20220812180D0203992              AVSSH 0.5F V             CCN000001500000001500FN00000000020220901000001500NNM   20220705135830    1W    00000150000000689000000000032H8    TYTYC   000000000000LK427045
BI00B32H8    22093KMW       20220812180D0204035              AVSSH 0.75F B/R          CCN000001000000001000FN00000000020220901000001000NNM   20220705135830    1W    00000100000000934000000000032H8    TYTYC   000000000000LK427050
BI00B32H8    22091KMW       20220729180D0204039              AVSSH 0.75F B/L          CCN000001000000001000FN00000000020220901000001000NNM   20220705135830    1W    00000100000000934000000000032H8    TYTYC   000000000000LK227023
BI00B32H8    22093KMW       20220812180D0204039              AVSSH 0.75F B/L          CCN000001000000001000FN00000000020220901000001000NNM   20220705135830    1W    00000100000000934000000000032H8    TYTYC   000000000000LK427049
BI00B32H8    22092KMW       20220805180D0204040              AVSSH 0.75F W            CCN000001000000001000FN00000000020220901000001000NNM   20220705135830    1W    00000100000000934000000000032H8    TYTYC   000000000000LK327043
BI00B32H8    22092KMW       20220805180D0204050              AVSSH 0.75F R            CCN000001000000001000FN00000000020220901000001000NNM   20220705135830    1W    00000100000000934000000000032H8    TYTYC   000000000000LK327042
BI00B32H8    22093KMW       20220812180D0204059              AVSSH 0.75F R/L          CCN000001000000001000FN00000000020220901000001000NNM   20220705135830    1W    00000100000000934000000000032H8    TYTYC   000000000000LK427053
BI00B32H8    22092KMW       20220805180D0204060              AVSSH 0.75F G            CCN000001000000001000FN00000000020220901000001000NNM   20220705135830    1W    00000100000000934000000000032H8    TYTYC   000000000000LK327040
BI00B32H8    22093KMW       20220812180D0204060              AVSSH 0.75F G            CCN000001000000001000FN00000000020220901000001000NNM   20220705135830    1W    00000100000000934000000000032H8    TYTYC   000000000000LK427051
BI00B32H8    22092KMW       20220805180D0204070              AVSSH 0.75F Y            CCN000001000000001000FN00000000020220901000001000NNM   20220705135830    1W    00000100000000934000000000032H8    TYTYC   000000000000LK327044
BI00B32H8    22092KMW       20220805180D0204090              AVSSH 0.75F L            CCN000001000000001000FN00000000020220901000001000NNM   20220705135830    1W    00000100000000934000000000032H8    TYTYC   000000000000LK327041
BI00B32H8    22091KMW       20220729180D0204093              AVSSH 0.75F L/B          CCN000001000000001000FN00000000020220901000001000NNM   20220705135830    1W    00000100000000933600000000032H8    TYTYC   000000000000LK227024
BI00B32H8    22093KMW       20220812180D0204093              AVSSH 0.75F L/B          CCN000001000000001000FN00000000020220901000001000NNM   20220705135830    1W    00000100000000933600000000032H8    TYTYC   000000000000LK427052
BI00B32H8    22092KMW       20220805180D0204130              AVSSH 1.25F B            CCN000000800000000800FN00000000020220901000000800NNM   20220705135830    1W    00000080000001458000000000032H8    TYTYC   000000000000LK327045
BI00B32H8    22092KMW       20220805180D0204140              AVSSH 1.25F W            CCN000000800000000800FN00000000020220901000000800NNM   20220705135830    1W    00000080000001458000000000032H8    TYTYC   000000000000LK327046
BI00B32H8    22093KMW       20220812180D0204140              AVSSH 1.25F W            CCN000001600000001600FN00000000020220901000001600NNM   20220705135830    1W    00000080000001458000000000032H8    TYTYC   000000000000LK427058
BI00B32H8    22092KMW       20220805180D0204143              AVSSH 1.25F W/B          CCN000001600000001600FN00000000020220901000001600NNM   20220705135830    1W    00000080000001458000000000032H8    TYTYC   000000000000LK327047
BI00B32H8    22093KMW       20220812180D0204143              AVSSH 1.25F W/B          CCN000002400000002400FN00000000020220901000002400NNM   20220705135830    1W    00000080000001458000000000032H8    TYTYC   000000000000LK427059
BI00B32H8    22091KMW       20220729180D0204154              AVSSH 1.25F R/W          CCN000000800000000800FN00000000020220901000000800NNM   20220705135830    1W    00000080000001458000000000032H8    TYTYC   000000000000LK227025
BI00B32H8    22093KMW       20220812180D0204154              AVSSH 1.25F R/W          CCN000000800000000800FN00000000020220901000000800NNM   20220705135830    1W    00000080000001458000000000032H8    TYTYC   000000000000LK427057
BI00B32H8    22093KMW       20220812180D0204159              AVSSH 1.25F R/L          CCN000000800000000800FN00000000020220901000000800NNM   20220705135830    1W    00000080000001458000000000032H8    TYTYC   000000000000LK427056
BI00B32H8    22093KMW       20220812180D0204170              AVSSH 1.25F Y            CCN000000800000000800FN00000000020220901000000800NNM   20220705135830    1W    00000080000001458000000000032H8    TYTYC   000000000000LK427060
BI00B32H8    22093KMW       20220812180D0204180              AVSSH 1.25F BR           CCN000000800000000800FN00000000020220901000000800NNM   20220705135830    1W    00000080000001458000000000032H8    TYTYC   000000000000LK427054
BI00B32H8    22093KMW       20220812180D0204190              AVSSH 1.25F L            CCN000000800000000800FN00000000020220901000000800NNM   20220705135830    1W    00000080000001458000000000032H8    TYTYC   000000000000LK427055
BI00B32H8    22092KMW       2022080518007703940              AVSS 0.5F W              CCN000001500000001500FN00000000020220901000001500NNM   20220705135830    1W    00000150000000674000000000032H8    TYTYC   000000000000LK327049
BI00B32H8    22093KMW       2022081218007703940              AVSS 0.5F W              CCN000001500000001500FN00000000020220901000001500NNM   20220705135830    1W    00000150000000674000000000032H8    TYTYC   000000000000LK427063
BI00B32H8    22091KMW       2022072918007703959              AVSS 0.5F R/L            CCN000001500000001500FN00000000020220901000001500NNM   20220705135830    1W    00000150000000674000000000032H8    TYTYC   000000000000LK227026
BI00B32H8    22093KMW       2022081218007703961              AVSS 0.5F LG             CCN000001500000001500FN00000000020220901000001500NNM   20220705135830    1W    00000150000000674000000000032H8    TYTYC   000000000000LK427062
BI00B32H8    22093KMW       2022081218007703967              AVSS 0.5F G/Y            CCN000001500000001500FN00000000020220901000001500NNM   20220705135830    1W    00000150000000674000000000032H8    TYTYC   000000000000LK427061
BI00B32H8    22092KMW       2022080518007703997              AVSS 0.5F L/Y            CCN000001500000001500FN00000000020220901000001500NNM   20220705135830    1W    00000150000000674000000000032H8    TYTYC   000000000000LK327048
BI00B32H8    22092KMW       2022080518007704009              AVSS 0.75F LG/R          CCN000001000000001000FN00000000020220901000001000NNM   20220705135830    1W    00000100000000943000000000032H8    TYTYC   000000000000LK327053
BI00B32H8    22092KMW       2022080518007704040              AVSS 0.75F W             CCN000001000000001000FN00000000020220901000001000NNM   20220705135830    1W    00000100000000943000000000032H8    TYTYC   000000000000LK327056
BI00B32H8    22093KMW       2022081218007704040              AVSS 0.75F W             CCN000001000000001000FN00000000020220901000001000NNM   20220705135830    1W    00000100000000943000000000032H8    TYTYC   000000000000LK427066
BI00B32H8    22091KMW       2022072918007704049              AVSS 0.75F W/L           CCN000001000000001000FN00000000020220901000001000NNM   20220705135830    1W    00000100000000943000000000032H8    TYTYC   000000000000LK227029
BI00B32H8    22093KMW       2022081218007704049              AVSS 0.75F W/L           CCN000001000000001000FN00000000020220901000001000NNM   20220705135830    1W    00000100000000943000000000032H8    TYTYC   000000000000LK427067
BI00B32H8    22092KMW       2022080518007704052              AVSS 0.75F P             CCN000001000000001000FN00000000020220901000001000NNM   20220705135830    1W    00000100000000943000000000032H8    TYTYC   000000000000LK327054
BI00B32H8    22092KMW       2022080518007704059              AVSS 0.75F R/L           CCN000001000000001000FN00000000020220901000001000NNM   20220705135830    1W    00000100000000943000000000032H8    TYTYC   000000000000LK327055
BI00B32H8    22092KMW       2022080518007704061              AVSS 0.75F LG            CCN000001000000001000FN00000000020220901000001000NNM   20220705135830    1W    00000100000000943000000000032H8    TYTYC   000000000000LK327052
BI00B32H8    22091KMW       2022072918007704064              AVSS 0.75F G/W           CCN000001000000001000FN00000000020220901000001000NNM   20220705135830    1W    00000100000000943000000000032H8    TYTYC   000000000000LK227028
BI00B32H8    22092KMW       2022080518007704064              AVSS 0.75F G/W           CCN000001000000001000FN00000000020220901000001000NNM   20220705135830    1W    00000100000000943000000000032H8    TYTYC   000000000000LK327050
BI00B32H8    22093KMW       2022081218007704064              AVSS 0.75F G/W           CCN000001000000001000FN00000000020220901000001000NNM   20220705135830    1W    00000100000000943000000000032H8    TYTYC   000000000000LK427065
BI00B32H8    22091KMW       2022072918007704065              AVSS 0.75F G/R           CCN000001000000001000FN00000000020220901000001000NNM   20220705135830    1W    00000100000000943000000000032H8    TYTYC   000000000000LK227027
BI00B32H8    22093KMW       2022081218007704065              AVSS 0.75F G/R           CCN000001000000001000FN00000000020220901000001000NNM   20220705135830    1W    00000100000000943000000000032H8    TYTYC   000000000000LK427064
BI00B32H8    22092KMW       2022080518007704095              AVSS 0.75F L/R           CCN000001000000001000FN00000000020220901000001000NNM   20220705135830    1W    00000100000000943000000000032H8    TYTYC   000000000000LK327051
BI00B32H8    22092KMW       2022080518007704154              AVSS 1.25F R/W           CCN000000800000000800FN00000000020220901000000800NNM   20220705135830    1W    00000080000001389000000000032H8    TYTYC   000000000000LK327058
BI00B32H8    22093KMW       2022081218007704154              AVSS 1.25F R/W           CCN000000800000000800FN00000000020220901000000800NNM   20220705135830    1W    00000080000001389000000000032H8    TYTYC   000000000000LK427070
BI00B32H8    22092KMW       2022080518007704159              AVSS 1.25F R/L           CCN000000800000000800FN00000000020220901000000800NNM   20220705135830    1W    00000080000001389000000000032H8    TYTYC   000000000000LK327057
BI00B32H8    22093KMW       2022081218007704159              AVSS 1.25F R/L           CCN000000800000000800FN00000000020220901000000800NNM   20220705135830    1W    00000080000001389000000000032H8    TYTYC   000000000000LK427069
BI00B32H8    22093KMW       2022081218007704179              AVSS 1.25F Y/L           CCN000000800000000800FN00000000020220901000000800NNM   20220705135830    1W    00000080000001389000000000032H8    TYTYC   000000000000LK427071
BI00B32H8    22093KMW       2022081218007704195              AVSS 1.25F L/R           CCN000000800000000800FN00000000020220901000000800NNM   20220705135830    1W    00000080000001389000000000032H8    TYTYC   000000000000LK427068
BI00B32H8    22092KMW       202208051801W003930              IVSSH 0.5F B             CCN000001800000001800FN00000000020220901000001800NNM   20220705135830    1W    00000180000000625000000000032H8    TYTYC   000000000000LK327059
BI00B32H8    22093KMW       202208121801W003930              IVSSH 0.5F B             CCN000005400000005400FN00000000020220901000005400NNM   20220705135830    1W    00000180000000625000000000032H8    TYTYC   000000000000LK427072
BI00B32H8    22091KMW       202207291801W003940              IVSSH 0.5F W             CCN000001800000001800FN00000000020220901000001800NNM   20220705135830    1W    00000180000000625000000000032H8    TYTYC   000000000000LK227032
BI00B32H8    22092KMW       202208051801W003940              IVSSH 0.5F W             CCN000003600000003600FN00000000020220901000003600NNM   20220705135830    1W    00000180000000625000000000032H8    TYTYC   000000000000LK327064
BI00B32H8    22093KMW       202208121801W003940              IVSSH 0.5F W             CCN000003600000003600FN00000000020220901000003600NNM   20220705135830    1W    00000180000000625000000000032H8    TYTYC   000000000000LK427077
BI00B32H8    22091KMW       202207291801W003941              IVSSH 0.5F GY            CCN000001800000001800FN00000000020220901000001800NNM   20220705135830    1W    00000180000000625000000000032H8    TYTYC   000000000000LK227030
BI00B32H8    22092KMW       202208051801W003941              IVSSH 0.5F GY            CCN000001800000001800FN00000000020220901000001800NNM   20220705135830    1W    00000180000000625000000000032H8    TYTYC   000000000000LK327061
BI00B32H8    22093KMW       202208121801W003941              IVSSH 0.5F GY            CCN000001800000001800FN00000000020220901000001800NNM   20220705135830    1W    00000180000000625000000000032H8    TYTYC   000000000000LK427074
BI00B32H8    22091KMW       202207291801W003950              IVSSH 0.5F R             CCN000001800000001800FN00000000020220901000001800NNM   20220705135830    1W    00000180000000625000000000032H8    TYTYC   000000000000LK227031
BI00B32H8    22092KMW       202208051801W003950              IVSSH 0.5F R             CCN000003600000003600FN00000000020220901000003600NNM   20220705135830    1W    00000180000000625000000000032H8    TYTYC   000000000000LK327063
BI00B32H8    22093KMW       202208121801W003950              IVSSH 0.5F R             CCN000003600000003600FN00000000020220901000003600NNM   20220705135830    1W    00000180000000625000000000032H8    TYTYC   000000000000LK427076
BI00B32H8    22092KMW       202208051801W003960              IVSSH 0.5F G             CCN000003600000003600FN00000000020220901000003600NNM   20220705135830    1W    00000180000000625000000000032H8    TYTYC   000000000000LK327060
BI00B32H8    22093KMW       202208121801W003960              IVSSH 0.5F G             CCN000003600000003600FN00000000020220901000003600NNM   20220705135830    1W    00000180000000625000000000032H8    TYTYC   000000000000LK427073
BI00B32H8    22092KMW       202208051801W003990              IVSSH 0.5F L             CCN000003600000003600FN00000000020220901000003600NNM   20220705135830    1W    00000180000000625000000000032H8    TYTYC   000000000000LK327062
BI00B32H8    22093KMW       202208121801W003990              IVSSH 0.5F L             CCN000003600000003600FN00000000020220901000003600NNM   20220705135830    1W    00000180000000625000000000032H8    TYTYC   000000000000LK427075
BI00B32H8    22092KMW       202208051801W004060              IVSSH 0.75F G            CCN000001300000001300FN00000000020220901000001300NNM   20220705135830    1W    00000130000000882000000000032H8    TYTYC   000000000000LK327065
BI00B32H8    22093KMW       202208121801W004060              IVSSH 0.75F G            CCN000002600000002600FN00000000020220901000002600NNM   20220705135830    1W    00000130000000882000000000032H8    TYTYC   000000000000LK427078
BI00B32H8    22093KMW       202208121801W006930              IVSSH 0.35F B            CCN000005000000005000FN00000000020220901000005000NNM   20220705135830    1W    00000250000000452000000000032H8    TYTYC   000000000000LK427079
BI00B32H8    22093KMW       202208121801W006940              IVSSH 0.35F W            CCN000002500000002500FN00000000020220901000002500NNM   20220705135830    1W    00000250000000452000000000032H8    TYTYC   000000000000LK427083
BI00B32H8    22092KMW       202208051801W006950              IVSSH 0.35F R            CCN000002500000002500FN00000000020220901000002500NNM   20220705135830    1W    00000250000000452000000000032H8    TYTYC   000000000000LK327068
BI00B32H8    22093KMW       202208121801W006950              IVSSH 0.35F R            CCN000005000000005000FN00000000020220901000005000NNM   20220705135830    1W    00000250000000452000000000032H8    TYTYC   000000000000LK427082
BI00B32H8    22092KMW       202208051801W006960              IVSSH 0.35F G            CCN000002500000002500FN00000000020220901000002500NNM   20220705135830    1W    00000250000000452000000000032H8    TYTYC   000000000000LK327066
BI00B32H8    22093KMW       202208121801W006960              IVSSH 0.35F G            CCN000005000000005000FN00000000020220901000005000NNM   20220705135830    1W    00000250000000452000000000032H8    TYTYC   000000000000LK427080
BI00B32H8    22093KMW       202208121801W006970              IVSSH 0.35F Y            CCN000005000000005000FN00000000020220901000005000NNM   20220705135830    1W    00000250000000452000000000032H8    TYTYC   000000000000LK427084
BI00B32H8    22092KMW       202208051801W006990              IVSSH 0.35F L            CCN000002500000002500FN00000000020220901000002500NNM   20220705135830    1W    00000250000000452000000000032H8    TYTYC   000000000000LK327067
BI00B32H8    22093KMW       202208121801W006990              IVSSH 0.35F L            CCN000005000000005000FN00000000020220901000005000NNM   20220705135830    1W    00000250000000452000000000032H8    TYTYC   000000000000LK427081
BI00B32H8    @22092KMW      20220805181B0911610              CAVSAS 0.3X2 GY/R        CCN000000350000000350FN00000000020220901000000350NNM   20220705135826    1W    00000035000002254000000000032H8    TYTYC   000000000000LK327015
BI00B32H8    @22093KMW      20220811181B0911610              CAVSAS 0.3X2 GY/R        CCN000000350000000350FN00000000020220901000000350NNM   20220705135826    1W    00000035000002254000000000032H8    TYTYC   000000000000LK427016
BI00B32H8    @22092KMW      20220805181B32039Y8              AVSSCS 0.5FX1 DGY/R      CCN000000400000000400FN00000000020220901000000400NNM   20220705135826    1W    00000040000002289000000000032H8    TYTYC   000000000000LK327017
BI00B32H8    @22092KMW      20220805181B32039Z5              AVSSCS 0.5FX1 DGY/L      CCN000000400000000400FN00000000020220901000000400NNM   20220705135826    1W    00000040000002289000000000032H8    TYTYC   000000000000LK327016
BI00B32H8    @22093KMW      20220811181B32102Y8              AVSSCS 0.5FX2 DGY/R      CCN000000300000000300FN00000000020220901000000300NNM   20220705135826    1W    00000030000002903000000000032H8    TYTYC   000000000000LK427018
BI00B32H8    @22091KMW      20220729181B32102Y9              AVSSCS 0.5FX2 DGY/P      CCN000001800000001800FN00000000020220901000001800NNM   20220705135826    1W    00000030000002903000000000032H8    TYTYC   000000000000LK227010
BI00B32H8    @22092KMW      20220805181B32102Y9              AVSSCS 0.5FX2 DGY/P      CCN000001800000001800FN00000000020220901000001800NNM   20220705135826    1W    00000030000002903000000000032H8    TYTYC   000000000000LK327018
BI00B32H8    @22093KMW      20220811181B32102Y9              AVSSCS 0.5FX2 DGY/P      CCN000001800000001800FN00000000020220901000001800NNM   20220705135826    1W    00000030000002903000000000032H8    TYTYC   000000000000LK427017
BI00B32H8    @22092KMW      20220805181B32116Y8              AVSSCS 0.3FX2 DGY/R      CCN000000350000000350FN00000000020220901000000350NNM   20220705135826    1W    00000035000002276000000000032H8    TYTYC   000000000000LK327019
BI00B32H8    @22093KMW      20220811181B32116Y8              AVSSCS 0.3FX2 DGY/R      CCN000000350000000350FN00000000020220901000000350NNM   20220705135826    1W    00000035000002276000000000032H8    TYTYC   000000000000LK427019
BI00B32H8    @22091KMW      20220729181E50004ZZ              AVSSCS-S 0.5FX1 DGY      CCN000000800000000800FN00000000020220901000000800NNM   20220705135826    1W    00000040000001909700000000032H8    TYTYC   000000000000LK227011
BI00B32H8    @22092KMW      20220805181E50004ZZ              AVSSCS-S 0.5FX1 DGY      CCN000001200000001200FN00000000020220901000001200NNM   20220705135826    1W    00000040000001909700000000032H8    TYTYC   000000000000LK327020
BI00B32H8    @22093KMW      20220811181E50004ZZ              AVSSCS-S 0.5FX1 DGY      CCN000001200000001200FN00000000020220901000001200NNM   20220705135826    1W    00000040000001909700000000032H8    TYTYC   000000000000LK427020
BI00B32M3    SM2208AEMW     2022071418007704140              AVSS 1.25F W             CCN000000800000000800FN00000000020220801000000800NNE   20220705143753    1W    00000080000001389000000000032M3    SASAMI  000000000000QP526001
BI00B32M3    SM2208B MW     2022080418007703780              AVSS 0.3F BR             CCN000002000000002000FN00000000020220801000002000NNE   20220705120414    1W    00000200000000496000000000032M3    SASAMI  000000000000QG327004
BI00B32M3    SM2208B MW     2022080418007703761              AVSS 0.3F LG             CCN000004000000004000FN00000000020220801000004000NNE   20220705120414    1W    00000200000000496000000000032M3    SASAMI  000000000000QG327005
BI00B32M3    SM2208B MW     2022080418007703752              AVSS 0.3F P              CCN000002000000002000FN00000000020220801000002000NNE   20220705120414    1W    00000200000000496000000000032M3    SASAMI  000000000000QG327006
BI00B32M3    SM2208B MW     2022080418007703792              AVSS 0.3F V              CCN000002000000002000FN00000000020220801000002000NNE   20220705120414    1W    00000200000000496000000000032M3    SASAMI  000000000000QG327007
BI00B32M3    SM2208B MW     2022080418007703950              AVSS 0.5F R              CCN000001500000001500FN00000000020220801000001500NNE   20220705120414    1W    00000150000000674000000000032M3    SASAMI  000000000000QG327008
BI00B32M3    SM2208B MW     2022080418007703991              AVSS 0.5F SB             CCN000001500000001500FN00000000020220801000001500NNE   20220705120414    1W    00000150000000674000000000032M3    SASAMI  000000000000QG327009
BI00B32M3    SM2208B MW     2022080418007704180              AVSS 1.25F BR            CCN000001600000001600FN00000000020220801000001600NNE   20220705120414    1W    00000080000001389000000000032M3    SASAMI  000000000000QG327010
BI00B32M3    SM2208B MW     2022080418007704190              AVSS 1.25F L             CCN000000800000000800FN00000000020220801000000800NNE   20220705120414    1W    00000080000001389000000000032M3    SASAMI  000000000000QG327011
BI00B32M3    SM22091 MW     2022081118007703780              AVSS 0.3F BR             CCN000004000000004000FN00000000020220901000004000NNM   20220705120414    1W    00000200000000496000000000032M3    SASAMI  000000000000QM427008
BI00B32M3    SM22092 MW     2022081818007703780              AVSS 0.3F BR             CCN000002000000002000FN00000000020220901000002000NNM   20220705120414    1W    00000200000000496000000000032M3    SASAMI  000000000000QM128005
BI00B32M3    SM22093 MW     2022082518007703780              AVSS 0.3F BR             CCN000002000000002000FN00000000020220901000002000NNM   20220705120414    1W    00000200000000496000000000032M3    SASAMI  000000000000QM228002
BI00B32M3    SM22094 MW     2022090118007703780              AVSS 0.3F BR             CCN000002000000002000FN00000000020220901000002000NNM   20220705120414    1W    00000200000000496000000000032M3    SASAMI  000000000000QM328002
BI00B32M3    SM22091 MW     2022081118007703761              AVSS 0.3F LG             CCN000004000000004000FN00000000020220901000004000NNM   20220705120414    1W    00000200000000496000000000032M3    SASAMI  000000000000QM427009
BI00B32M3    SM22092 MW     2022081818007703761              AVSS 0.3F LG             CCN000004000000004000FN00000000020220901000004000NNM   20220705120414    1W    00000200000000496000000000032M3    SASAMI  000000000000QM128006
BI00B32M3    SM22091 MW     2022081118007703752              AVSS 0.3F P              CCN000002000000002000FN00000000020220901000002000NNM   20220705120414    1W    00000200000000496000000000032M3    SASAMI  000000000000QM427010
BI00B32M3    SM22092 MW     2022081818007703752              AVSS 0.3F P              CCN000002000000002000FN00000000020220901000002000NNM   20220705120414    1W    00000200000000496000000000032M3    SASAMI  000000000000QM128007
BI00B32M3    SM22093 MW     2022082518007703752              AVSS 0.3F P              CCN000002000000002000FN00000000020220901000002000NNM   20220705120414    1W    00000200000000496000000000032M3    SASAMI  000000000000QM228003
BI00B32M3    SM22091 MW     2022081118007703791              AVSS 0.3F SB             CCN000004000000004000FN00000000020220901000004000NNM   20220705120414    1W    00000200000000496000000000032M3    SASAMI  000000000000QM427011
BI00B32M3    SM22091 MW     2022081118007703792              AVSS 0.3F V              CCN000002000000002000FN00000000020220901000002000NNM   20220705120414    1W    00000200000000496000000000032M3    SASAMI  000000000000QM427012
BI00B32M3    SM22092 MW     2022081818007703792              AVSS 0.3F V              CCN000002000000002000FN00000000020220901000002000NNM   20220705120414    1W    00000200000000496000000000032M3    SASAMI  000000000000QM128008
BI00B32M3    SM22093 MW     2022082518007703792              AVSS 0.3F V              CCN000002000000002000FN00000000020220901000002000NNM   20220705120414    1W    00000200000000496000000000032M3    SASAMI  000000000000QM228004
BI00B32M3    SM22091 MW     2022081118007703740              AVSS 0.3F W              CCN000004000000004000FN00000000020220901000004000NNM   20220705120414    1W    00000200000000496000000000032M3    SASAMI  000000000000QM427013
BI00B32M3    SM22091 MW     2022081118007703930              AVSS 0.5F B              CCN000031500000031500FN00000000020220901000031500NNM   20220705120414    1W    00000150000000674000000000032M3    SASAMI  000000000000QM427014
BI00B32M3    SM22092 MW     2022081818007703930              AVSS 0.5F B              CCN000021000000021000FN00000000020220901000021000NNM   20220705120414    1W    00000150000000674000000000032M3    SASAMI  000000000000QM128009
BI00B32M3    SM22093 MW     2022082518007703930              AVSS 0.5F B              CCN000022500000022500FN00000000020220901000022500NNM   20220705120414    1W    00000150000000674000000000032M3    SASAMI  000000000000QM228005
BI00B32M3    SM22094 MW     2022090118007703930              AVSS 0.5F B              CCN000006000000006000FN00000000020220901000006000NNM   20220705120414    1W    00000150000000674000000000032M3    SASAMI  000000000000QM328003
BI00B32M3    SM22093 MW     2022082518007703960              AVSS 0.5F G              CCN000001500000001500FN00000000020220901000001500NNM   20220705120414    1W    00000150000000674000000000032M3    SASAMI  000000000000QM228006
BI00B32M3    SM22091 MW     2022081118007703941              AVSS 0.5F GY             CCN000001500000001500FN00000000020220901000001500NNM   20220705120414    1W    00000150000000674000000000032M3    SASAMI  000000000000QM427015
BI00B32M3    SM22091 MW     2022081118007703990              AVSS 0.5F L              CCN000010500000010500FN00000000020220901000010500NNM   20220705120414    1W    00000150000000674000000000032M3    SASAMI  000000000000QM427016
BI00B32M3    SM22092 MW     2022081818007703990              AVSS 0.5F L              CCN000010500000010500FN00000000020220901000010500NNM   20220705120414    1W    00000150000000674000000000032M3    SASAMI  000000000000QM128010
BI00B32M3    SM22093 MW     2022082518007703990              AVSS 0.5F L              CCN000010500000010500FN00000000020220901000010500NNM   20220705120414    1W    00000150000000674000000000032M3    SASAMI  000000000000QM228007
BI00B32M3    SM22094 MW     2022090118007703990              AVSS 0.5F L              CCN000003000000003000FN00000000020220901000003000NNM   20220705120414    1W    00000150000000674000000000032M3    SASAMI  000000000000QM328004
BI00B32M3    SM22091 MW     2022081118007703952              AVSS 0.5F P              CCN000009000000009000FN00000000020220901000009000NNM   20220705120414    1W    00000150000000674000000000032M3    SASAMI  000000000000QM427017
BI00B32M3    SM22092 MW     2022081818007703952              AVSS 0.5F P              CCN000007500000007500FN00000000020220901000007500NNM   20220705120414    1W    00000150000000674000000000032M3    SASAMI  000000000000QM128011
BI00B32M3    SM22093 MW     2022082518007703952              AVSS 0.5F P              CCN000007500000007500FN00000000020220901000007500NNM   20220705120414    1W    00000150000000674000000000032M3    SASAMI  000000000000QM228008
BI00B32M3    SM22094 MW     2022090118007703952              AVSS 0.5F P              CCN000006000000006000FN00000000020220901000006000NNM   20220705120414    1W    00000150000000674000000000032M3    SASAMI  000000000000QM328005
BI00B32M3    SM22091 MW     2022081118007703900              AVSS 0.5F P/W            CCN000006000000006000FN00000000020220901000006000NNM   20220705120414    1W    00000150000000674000000000032M3    SASAMI  000000000000QM427018
BI00B32M3    SM22092 MW     2022081818007703900              AVSS 0.5F P/W            CCN000006000000006000FN00000000020220901000006000NNM   20220705120414    1W    00000150000000674000000000032M3    SASAMI  000000000000QM128012
BI00B32M3    SM22093 MW     2022082518007703900              AVSS 0.5F P/W            CCN000004500000004500FN00000000020220901000004500NNM   20220705120414    1W    00000150000000674000000000032M3    SASAMI  000000000000QM228009
BI00B32M3    SM22094 MW     2022090118007703900              AVSS 0.5F P/W            CCN000001500000001500FN00000000020220901000001500NNM   20220705120414    1W    00000150000000674000000000032M3    SASAMI  000000000000QM328006
BI00B32M3    SM22091 MW     2022081118007703950              AVSS 0.5F R              CCN000004500000004500FN00000000020220901000004500NNM   20220705120414    1W    00000150000000674000000000032M3    SASAMI  000000000000QM427019
BI00B32M3    SM22092 MW     2022081818007703950              AVSS 0.5F R              CCN000004500000004500FN00000000020220901000004500NNM   20220705120414    1W    00000150000000674000000000032M3    SASAMI  000000000000QM128013
BI00B32M3    SM22093 MW     2022082518007703950              AVSS 0.5F R              CCN000004500000004500FN00000000020220901000004500NNM   20220705120414    1W    00000150000000674000000000032M3    SASAMI  000000000000QM228010
BI00B32M3    SM22094 MW     2022090118007703950              AVSS 0.5F R              CCN000004500000004500FN00000000020220901000004500NNM   20220705120414    1W    00000150000000674000000000032M3    SASAMI  000000000000QM328007
BI00B32M3    SM22091 MW     2022081118007703991              AVSS 0.5F SB             CCN000001500000001500FN00000000020220901000001500NNM   20220705120414    1W    00000150000000674000000000032M3    SASAMI  000000000000QM427020
BI00B32M3    SM22092 MW     2022081818007703991              AVSS 0.5F SB             CCN000001500000001500FN00000000020220901000001500NNM   20220705120414    1W    00000150000000674000000000032M3    SASAMI  000000000000QM128014
BI00B32M3    SM22093 MW     2022082518007703991              AVSS 0.5F SB             CCN000001500000001500FN00000000020220901000001500NNM   20220705120414    1W    00000150000000674000000000032M3    SASAMI  000000000000QM228011
BI00B32M3    SM22093 MW     2022082518007703940              AVSS 0.5F W              CCN000001500000001500FN00000000020220901000001500NNM   20220705120414    1W    00000150000000674000000000032M3    SASAMI  000000000000QM228012
BI00B32M3    SM22091 MW     2022081118007703970              AVSS 0.5F Y              CCN000003000000003000FN00000000020220901000003000NNM   20220705120414    1W    00000150000000674000000000032M3    SASAMI  000000000000QM427021
BI00B32M3    SM22092 MW     2022081818007703970              AVSS 0.5F Y              CCN000003000000003000FN00000000020220901000003000NNM   20220705120414    1W    00000150000000674000000000032M3    SASAMI  000000000000QM128015
BI00B32M3    SM22093 MW     2022082518007703970              AVSS 0.5F Y              CCN000003000000003000FN00000000020220901000003000NNM   20220705120414    1W    00000150000000674000000000032M3    SASAMI  000000000000QM228013
BI00B32M3    SM22094 MW     2022090118007703970              AVSS 0.5F Y              CCN000001500000001500FN00000000020220901000001500NNM   20220705120414    1W    00000150000000674000000000032M3    SASAMI  000000000000QM328008
BI00B32M3    SM22091 MW     2022081118007704180              AVSS 1.25F BR            CCN000002400000002400FN00000000020220901000002400NNM   20220705120414    1W    00000080000001389000000000032M3    SASAMI  000000000000QM427022
BI00B32M3    SM22092 MW     2022081818007704180              AVSS 1.25F BR            CCN000002400000002400FN00000000020220901000002400NNM   20220705120414    1W    00000080000001389000000000032M3    SASAMI  000000000000QM128016
BI00B32M3    SM22093 MW     2022082518007704180              AVSS 1.25F BR            CCN000002400000002400FN00000000020220901000002400NNM   20220705120414    1W    00000080000001389000000000032M3    SASAMI  000000000000QM228014
BI00B32M3    SM22094 MW     2022090118007704180              AVSS 1.25F BR            CCN000002400000002400FN00000000020220901000002400NNM   20220705120414    1W    00000080000001389000000000032M3    SASAMI  000000000000QM328009
BI00B32M3    SM22091 MW     2022081118007704160              AVSS 1.25F G             CCN000001600000001600FN00000000020220901000001600NNM   20220705120414    1W    00000080000001389000000000032M3    SASAMI  000000000000QM427023
BI00B32M3    SM22092 MW     2022081818007704160              AVSS 1.25F G             CCN000001600000001600FN00000000020220901000001600NNM   20220705120414    1W    00000080000001389000000000032M3    SASAMI  000000000000QM128017
BI00B32M3    SM22093 MW     2022082518007704160              AVSS 1.25F G             CCN000001600000001600FN00000000020220901000001600NNM   20220705120414    1W    00000080000001389000000000032M3    SASAMI  000000000000QM228015
BI00B32M3    SM22091 MW     2022081118007704190              AVSS 1.25F L             CCN000001600000001600FN00000000020220901000001600NNM   20220705120414    1W    00000080000001389000000000032M3    SASAMI  000000000000QM427024
BI00B32M3    SM22092 MW     2022081818007704190              AVSS 1.25F L             CCN000001600000001600FN00000000020220901000001600NNM   20220705120414    1W    00000080000001389000000000032M3    SASAMI  000000000000QM128018
BI00B32M3    SM22093 MW     2022082518007704190              AVSS 1.25F L             CCN000000800000000800FN00000000020220901000000800NNM   20220705120414    1W    00000080000001389000000000032M3    SASAMI  000000000000QM228016
BI00B32M3    SM22094 MW     2022090118007704190              AVSS 1.25F L             CCN000000800000000800FN00000000020220901000000800NNM   20220705120414    1W    00000080000001389000000000032M3    SASAMI  000000000000QM328010
BI00B32M3    SM22091 MW     2022081118007704161              AVSS 1.25F LG            CCN000002400000002400FN00000000020220901000002400NNM   20220705120414    1W    00000080000001389000000000032M3    SASAMI  000000000000QM427025
BI00B32M3    SM22092 MW     2022081818007704161              AVSS 1.25F LG            CCN000002400000002400FN00000000020220901000002400NNM   20220705120414    1W    00000080000001389000000000032M3    SASAMI  000000000000QM128019
BI00B32M3    SM22093 MW     2022082518007704161              AVSS 1.25F LG            CCN000002400000002400FN00000000020220901000002400NNM   20220705120414    1W    00000080000001389000000000032M3    SASAMI  000000000000QM228017
BI00B32M3    SM22094 MW     2022090118007704161              AVSS 1.25F LG            CCN000001600000001600FN00000000020220901000001600NNM   20220705120414    1W    00000080000001389000000000032M3    SASAMI  000000000000QM328011
BI00B32M3    SM22091 MW     2022081118007704150              AVSS 1.25F R             CCN000001600000001600FN00000000020220901000001600NNM   20220705120414    1W    00000080000001389000000000032M3    SASAMI  000000000000QM427026
BI00B32M3    SM22092 MW     2022081818007704150              AVSS 1.25F R             CCN000000800000000800FN00000000020220901000000800NNM   20220705120414    1W    00000080000001389000000000032M3    SASAMI  000000000000QM128020
BI00B32M3    SM22093 MW     2022082518007704150              AVSS 1.25F R             CCN000000800000000800FN00000000020220901000000800NNM   20220705120414    1W    00000080000001389000000000032M3    SASAMI  000000000000QM228018
BI00B32M3    SM22094 MW     2022090118007704150              AVSS 1.25F R             CCN000000800000000800FN00000000020220901000000800NNM   20220705120414    1W    00000080000001389000000000032M3    SASAMI  000000000000QM328012
BI00B32M3    SM22091EMW     202208111800770375U              AVSS 0.3F BE             CCN000008000000008000FN00000000020220901000008000NNM   20220705120414    1W    00000200000000496000000000032M3    SASAMI  000000000000QE427001
BI00B32M3    SM22092EMW     202208181800770375U              AVSS 0.3F BE             CCN000004000000004000FN00000000020220901000004000NNM   20220705120414    1W    00000200000000496000000000032M3    SASAMI  000000000000QE128001
BI00B32M3    SM22093EMW     202208251800770375U              AVSS 0.3F BE             CCN000004000000004000FN00000000020220901000004000NNM   20220705120414    1W    00000200000000496000000000032M3    SASAMI  000000000000QE228001
BI00B32M3    SM22094EMW     202209011800770375U              AVSS 0.3F BE             CCN000004000000004000FN00000000020220901000004000NNM   20220705120414    1W    00000200000000496000000000032M3    SASAMI  000000000000QE328001
BI00B32M3    SM22091EMW     2022081118007703743              AVSS 0.3F W/B            CCN000004000000004000FN00000000020220901000004000NNM   20220705120414    1W    00000200000000496000000000032M3    SASAMI  000000000000QE427002
BI00B32M3    SM22091EMW     2022081118007704192              AVSS 1.25F V             CCN000001600000001600FN00000000020220901000001600NNM   20220705120414    1W    00000080000001389000000000032M3    SASAMI  000000000000QE427003
BI00B32M3    SM22092EMW     2022081818007704192              AVSS 1.25F V             CCN000001600000001600FN00000000020220901000001600NNM   20220705120414    1W    00000080000001389000000000032M3    SASAMI  000000000000QE128002
BI00B32M3    SM22091EMW     2022081118007704140              AVSS 1.25F W             CCN000001600000001600FN00000000020220901000001600NNM   20220705120414    1W    00000080000001389000000000032M3    SASAMI  000000000000QE427004
BI00B32M3    SM22092EMW     2022081818007704140              AVSS 1.25F W             CCN000001600000001600FN00000000020220901000001600NNM   20220705120414    1W    00000080000001389000000000032M3    SASAMI  000000000000QE128003
BI00B32M3    SM22093EMW     2022082518007704140              AVSS 1.25F W             CCN000000800000000800FN00000000020220901000000800NNM   20220705120414    1W    00000080000001389000000000032M3    SASAMI  000000000000QE228002
BI00B32M3    SM22094EMW     2022090118007704140              AVSS 1.25F W             CCN000000800000000800FN00000000020220901000000800NNM   20220705120414    1W    00000080000001389000000000032M3    SASAMI  000000000000QE328002
BI00B32M3    SM22091HMW     2022081118007704030              AVSS 0.75F B             CCN000016000000016000FN00000000020220901000016000NNM   20220705120414    1W    00000100000000943000000000032M3    SASAMI  000000000000QH427001
BI00B32M3    SM22092HMW     2022081818007704030              AVSS 0.75F B             CCN000012000000012000FN00000000020220901000012000NNM   20220705120414    1W    00000100000000943000000000032M3    SASAMI  000000000000QH128001
BI00B32M3    SM22093HMW     2022082518007704030              AVSS 0.75F B             CCN000006000000006000FN00000000020220901000006000NNM   20220705120414    1W    00000100000000943000000000032M3    SASAMI  000000000000QH228001
BI00B32M3    SM22094HMW     2022090118007704030              AVSS 0.75F B             CCN000006000000006000FN00000000020220901000006000NNM   20220705120414    1W    00000100000000943000000000032M3    SASAMI  000000000000QH328001
BI00B32M3    SM22091HMW     2022081118007704130              AVSS 1.25F B             CCN000003200000003200FN00000000020220901000003200NNM   20220705120414    1W    00000080000001389000000000032M3    SASAMI  000000000000QH427002
BI00B32M3    SM22092HMW     2022081818007704130              AVSS 1.25F B             CCN000002400000002400FN00000000020220901000002400NNM   20220705120414    1W    00000080000001389000000000032M3    SASAMI  000000000000QH128002
BI00B32M3    SM22093HMW     2022082518007704130              AVSS 1.25F B             CCN000002400000002400FN00000000020220901000002400NNM   20220705120414    1W    00000080000001389000000000032M3    SASAMI  000000000000QH228002
BI00B32M3    @SM22091MMW    20220811181E50011ZZ              AVSSCS-S 0.5FX2 DGY/Y    CCN000003000000003000FN00000000020220901000003000NNM   20220705120414    1W    00000030000003096000000000032M3    SASAMI  000000000000QN427001
BI00B32M3    @SM22092MMW    20220818181E50011ZZ              AVSSCS-S 0.5FX2 DGY/Y    CCN000002700000002700FN00000000020220901000002700NNM   20220705120414    1W    00000030000003096000000000032M3    SASAMI  000000000000QN128001
BI00B32M3    @SM22093MMW    20220825181E50011ZZ              AVSSCS-S 0.5FX2 DGY/Y    CCN000000600000000600FN00000000020220901000000600NNM   20220705120414    1W    00000030000003096000000000032M3    SASAMI  000000000000QN228001
BI00B32M3    @SM22094MMW    20220901181E50011ZZ              AVSSCS-S 0.5FX2 DGY/Y    CCN000000600000000600FN00000000020220901000000600NNM   20220705120414    1W    00000030000003096000000000032M3    SASAMI  000000000000QN328001
BI00B32R7    R-TAP220281    2022072718018403940              CAVS 0.5 W               CCN000006000000006000FN00000000020220801000006000NNE   20220705141701    1W    00000150000000677000000000032R7    IVYCIC  000000000000SM227005
BI00B32R7    R-TAP220281    2022072718018403951              CAVS 0.5 O               CCN000012000000012000FN00000000020220801000012000NNE   20220705141701    1W    00000150000000677000000000032R7    IVYCIC  000000000000SM227004
BI00B32R7    R-TAP220281    2022072718018403960              CAVS 0.5 G               CCN000003000000003000FN00000000020220801000003000NNE   20220705141701    1W    00000150000000677000000000032R7    IVYCIC  000000000000SM227002
BI00B32R7    R-TAP220281    2022072718018403970              CAVS 0.5 Y               CCN000015000000015000FN00000000020220801000015000NNE   20220705141701    1W    00000150000000677000000000032R7    IVYCIC  000000000000SM227006
BI00B32R7    R-TAP220281    2022072718018403980              CAVS 0.5 BR              CCN000003000000003000FN00000000020220801000003000NNE   20220705141701    1W    00000150000000677000000000032R7    IVYCIC  000000000000SM227001
BI00B32R7    R-TAP220281    2022072718018403990              CAVS 0.5 L               CCN000001500000001500FN00000000020220801000001500NNE   20220705141701    1W    00000150000000677000000000032R7    IVYCIC  000000000000SM227003
BI00B32R7    R-TAP220283    2022072718018403951              CAVS 0.5 O               CCN000010500000010500FN00000000020220801000010500NNE   20220705141702    1W    00000150000000677000000000032R7    IVYCIC  000000000000SN227001
BI00B32R7    R-TAP220283    2022072718018403970              CAVS 0.5 Y               CCN000003000000003000FN00000000020220801000003000NNE   20220705141702    1W    00000150000000677000000000032R7    IVYCIC  000000000000SN227002
