BI00B1200    2399T51C15     202209227288-3330-30             HOUSING MALE             CCN000001500000000000FY00000000020220101000000000NNMQ0820220705100633    4N0N  0000015000000086630000101121200    YCYC    005400370024
BI00B1200    2399T51C16     202209227288-3330-30             HOUSING MALE             CCN000001500000000000FY00000000020220101000000000NNMQ0820220705100650    4N0N  0000015000000086630000101121200    YCYC    005400370024
BI00B1200    #H322J50020    202209087147-8717-30             CLIP                     CCN000050000000050000FN00000000020221001000050000NNE   20220705121435    2F0F  0000050000000066000000087501200    YCYC    005600390040
BI00B1200    20220705KG001  202207147327-6994-3W             BATTERY FUSE             CCN000000072000000072FN00000000020220701000000072NNE   20220705150410    4N0N  0000000720000121510000143011200    YCYC    005500360039
BI00B32AG    XG2209DNMW     202208117116-4122-02             TERMINAL                 CCN000009000000009000FN00000000020220901000009000NNE   20220705121435    4P0P  00000450000000656600000950232AG    XGXGY   006400630015
BI00B32AG    XG22103CMW     202209237B72-5540-80             SEALED WIRE SEAL         CCN000040000000040000FN00000000020221001000040000NNM   20220705121435    1C0C  00002000000000186000000234432AG    XGXGY   004300270014
BI00B32AG    XG22102CMW     202209167B96-0805-02             TERMINAL FEMALE          CCN000022500000022500FN00000000020221001000022500NNM   20220705121435    4P0P  00002250000000558000000843232AG    XGXGY   006400630015
BI00B32AG    XG22103CMW     202209237B96-0805-02             TERMINAL FEMALE          CCN000045000000045000FN00000000020221001000045000NNM   20220705121435    4P0P  00002250000000558000000843232AG    XGXGY   006400630015
BI00B32AG    XG22102CMW     202209167C89-6868-30             SEALED ASSY FEMALE       CCN000015120000015120FN00000000020221001000015120NNM   20220705121435    4N0N  00000252000000839200001119232AG    XGXGY   005500360039
BI00B32AG    XG22103CMW     202209237C89-6868-30             SEALED ASSY FEMALE       CCN000015120000015120FN00000000020221001000015120NNM   20220705121435    4N0N  00000252000000839200001119232AG    XGXGY   005500360039
BI00B32AG    XG22102CMW     202209167116-4032                TERMINAL                 CCN000018000000018000FN00000000020221001000018000NNM   20220705121435    4P0P  00000600000000532800000818032AG    XGXGY   006400630015
BI00B32AG    XG22103CMW     202209237116-4032                TERMINAL                 CCN000012000000012000FN00000000020221001000012000NNM   20220705121435    4P0P  00000600000000532800000818032AG    XGXGY   006400630015
BI00B32AG    XG22102CMW     202209167116-6041                TERMINAL                 CCN000072000000072000FN00000000020221001000072000NNM   20220705121435    4P0P  00000450000000716000001009632AG    XGXGY   006400630015
BI00B32AG    XG22103CMW     202209237116-6041                TERMINAL                 CCN000036000000036000FN00000000020221001000036000NNM   20220705121435    4P0P  00000450000000716000001009632AG    XGXGY   006400630015
BI00B32AG    XG22102CMW     202209167158-3070-80             RUBBER STOPPER           CCN000040000000040000FN00000000020221001000040000NNM   20220705121435    1C0C  00004000000000276000000333332AG    XGXGY   002700430014
BI00B32AG    XG22101CMW     202209097172-5540-80             SEALED WIRE SEAL         CCN000040000000040000FN00000000020221001000040000NNM   20220705121435    1C0C  00002000000000186000000234432AG    XGXGY   004300270014
BI00B32AG    XG22102CMW     202209167172-5540-80             SEALED WIRE SEAL         CCN000040000000040000FN00000000020221001000040000NNM   20220705121435    1C0C  00002000000000186000000234432AG    XGXGY   004300270014
BI00B32AG    XG22103CMW     202209237172-5540-80             SEALED WIRE SEAL         CCN000020000000020000FN00000000020221001000020000NNM   20220705121435    1C0C  00002000000000186000000234432AG    XGXGY   004300270014
BI00B32AG    XG22102CMW     202209167196-0805-02             TERMINAL FEMALE          CCN000022500000022500FN00000000020221001000022500NNM   20220705121435    4P0P  00002250000000558000000843232AG    XGXGY   006400630015
BI00B32AG    XG22103CMW     202209237196-0805-02             TERMINAL FEMALE          CCN000045000000045000FN00000000020221001000045000NNM   20220705121435    4P0P  00002250000000558000000843232AG    XGXGY   006400630015
BI00B32AG    XG22102CMW     202209167298-3822-70             HOUSING FEMALE ASS'Y     CCN000015120000015120FN00000000020221001000015120NNM   20220705121435    4N0N  00000252000000776200001077032AG    XGXGY   005500360039
BI00B32AG    XG22103CMW     202209237298-3822-70             HOUSING FEMALE ASS'Y     CCN000017640000017640FN00000000020221001000017640NNM   20220705121435    4N0N  00000252000000776200001077032AG    XGXGY   005500360039
BI00B32AG    XG22102CMW     202209167327-6832-60             MAIN FUSE                CCN000004800000004800FN00000000020221001000004800NNM   20220705121435    4N0N  00000060000000729200000930732AG    XGXGY   005400370024
BI00B32AG    XG22103CMW     202209237327-6832-60             MAIN FUSE                CCN000006000000006000FN00000000020221001000006000NNM   20220705121435    4N0N  00000060000000729200000930732AG    XGXGY   005400370024
BI00B32AG    XG22101CMW     202209097327-6908                MAIN FUSE                CCN000000600000000600FN00000000020221001000000600NNM   20220705121435    4N0N  00000060000000730400000915432AG    XGXGY   005400370024
BI00B32AG    XG22102CMW     202209167327-6908                MAIN FUSE                CCN000001800000001800FN00000000020221001000001800NNM   20220705121435    4N0N  00000060000000730400000915432AG    XGXGY   005400370024
BI00B32AG    XG22103CMW     202209237327-6908                MAIN FUSE                CCN000001200000001200FN00000000020221001000001200NNM   20220705121435    4N0N  00000060000000730400000915432AG    XGXGY   005400370024
BI00B32AG    XG22102CMW     202209167388-0316-80             CONNECTOR ASS'Y          CCN000004800000004800FN00000000020221001000004800NNM   20220705121435    4N0N  00000120000001002500001132532AG    XGXGY   005400370024
BI00B32AG    XG22103CMW     202209237388-0316-80             CONNECTOR ASS'Y          CCN000006000000006000FN00000000020221001000006000NNM   20220705121435    4N0N  00000120000001002500001132532AG    XGXGY   005400370024
BI00B32AG    #XG22102CMW    202209167198-1371-60             HOUSING FEMALE           CCN000006000000006000FN00000000020221001000006000NNM   20220705121435    2F0F  00000200000000597800000721232AG    XGXGY   005400370024
BI00B32AG    #XG22103CMW    202209237198-1371-60             HOUSING FEMALE           CCN000008000000008000FN00000000020221001000008000NNM   20220705121435    2F0F  00000200000000597800000721232AG    XGXGY   005400370024
BI00B32AG    #XG22102CMW    202209167198-1372                HOUSING FEMALE           CCN000008000000008000FN00000000020221001000008000NNM   20220705121435    2F0F  00000200000000857200000982232AG    XGXGY   005400370024
BI00B32AG    #XG22103CMW    202209237198-1372                HOUSING FEMALE           CCN000008000000008000FN00000000020221001000008000NNM   20220705121435    2F0F  00000200000000857200000982232AG    XGXGY   005400370024
BI00B32AG    #XG22102CMW    202209167198-1373-60             HOUSING FEMALE           CCN000008000000008000FN00000000020221001000008000NNM   20220705121435    2F0F  00000200000000819400000947432AG    XGXGY   005400370024
BI00B32AG    #XG22103CMW    202209237198-1373-60             HOUSING FEMALE           CCN000008000000008000FN00000000020221001000008000NNM   20220705121435    2F0F  00000200000000819400000947432AG    XGXGY   005400370024
BI00B32AG    #XG22102CMW    202209167198-2458                HOUSING FEMALE           CCN000008800000008800FN00000000020221001000008800NNM   20220705121435    2F0F  00000176000000869100001160532AG    XGXGY   005400370024
BI00B32AG    #XG22103CMW    202209237198-2458                HOUSING FEMALE           CCN000007040000007040FN00000000020221001000007040NNM   20220705121435    2F0F  00000176000000869100001160532AG    XGXGY   005400370024
BI00B32AG    #XG22102CMW    202209167298-2459-60             LIF FEMALE ASSEMBLY      CCN000007392000007392FN00000000020221001000007392NNM   20220705121435    2N0N  00000016800000534000000729632AG    XGXGY   005400370024
BI00B32AG    #XG22103CMW    202209237298-2459-60             LIF FEMALE ASSEMBLY      CCN000007896000007896FN00000000020221001000007896NNM   20220705121435    2N0N  00000016800000534000000729632AG    XGXGY   005400370024
BI00B32AG    XG22103GMW     202209237327-6840-3W             BATTERY FUSE             CCN000000504000000504FN00000000020221001000000504NNM   20220705121435    4N0N  00000007200001140900001355932AG    XGXGY   005500360039
BI00B32AG    #XG22101HMW    202209097158-3005-80             RUBBER STOPPER           CCN000020000000020000FN00000000020221001000020000NNM   20220705121435    2H0H  00002000000000210000000268732AG    XGXGY   002700430014
BI00B32AG    #XG22102HMW    202209167158-3005-80             RUBBER STOPPER           CCN000020000000020000FN00000000020221001000020000NNM   20220705121435    2H0H  00002000000000210000000268732AG    XGXGY   002700430014
BI00B32AG    XG22103KMW     202209237196-0104-02             TERMINAL                 CCN000038000000038000FN00000000020221001000038000NNM   20220705121435    4P0P  00003800000000570000000956432AG    XGXGY   006400630017
BI00B32AG    XG22101LMW     202209097017-1183-02             TERMINAL                 CCN000027000000027000FN00000000020221001000027000NNM   20220705121435    4P0P  00002700000001139400001307432AG    XGXGY   005100280028
BI00B32AG    XG22102LMW     202209167017-1183-02             TERMINAL                 CCN000054000000054000FN00000000020221001000054000NNM   20220705121435    4P0P  00002700000001139400001307432AG    XGXGY   005100280028
BI00B32AG    XG22101LMW     202209097116-4025                TERMINAL                 CCN000048000000048000FN00000000020221001000048000NNM   20220705121435    4P0P  00001600000000644800000975132AG    XGXGY   006400630017
BI00B32AG    XG22102LMW     202209167116-4025                TERMINAL                 CCN000064000000064000FN00000000020221001000064000NNM   20220705121435    4P0P  00001600000000644800000975132AG    XGXGY   006400630017
BI00B32AG    XG22103LMW     202209237116-4025                TERMINAL                 CCN000048000000048000FN00000000020221001000048000NNM   20220705121435    4P0P  00001600000000644800000975132AG    XGXGY   006400630017
BI00B32AG    XG22101LMW     202209097116-4026                TERMINAL                 CCN000096000000096000FN00000000020221001000096000NNM   20220705121435    4P0P  00001600000000664000000994332AG    XGXGY   006400630017
BI00B32AG    XG22102LMW     202209167116-4026                TERMINAL                 CCN000048000000048000FN00000000020221001000048000NNM   20220705121435    4P0P  00001600000000664000000994332AG    XGXGY   006400630017
BI00B32AG    XG22103LMW     202209237116-4026                TERMINAL                 CCN000048000000048000FN00000000020221001000048000NNM   20220705121435    4P0P  00001600000000664000000994332AG    XGXGY   006400630017
BI00B32AG    XG22101LMW     202209097172-1372-10             FRONT HOLDER             CCN000011700000011700FN00000000020221001000011700NNM   20220705121435    4F0F  00000390000000655200000955232AG    XGXGY   005500360039
BI00B32AG    XG22102LMW     202209167172-1372-10             FRONT HOLDER             CCN000003900000003900FN00000000020221001000003900NNM   20220705121435    4F0F  00000390000000655200000955232AG    XGXGY   005500360039
BI00B32AG    XG22103LMW     202209237172-1372-10             FRONT HOLDER             CCN000003900000003900FN00000000020221001000003900NNM   20220705121435    4F0F  00000390000000655200000955232AG    XGXGY   005500360039
BI00B32AG    XG22102LMW     202209167283-1968-30             CONNECTOR                CCN000000900000000900FN00000000020221001000000900NNM   20220705121435    1N0N  00000090000001140000001318332AG    XGXGY   005600390040
BI00B32AG    XG22101LMW     202209097289-4696-30             HOUSING FEMALE ASS'Y     CCN000034000000034000FN00000000020221001000034000NNM   20220705121435    4N0N  00000200000000913400001055432AG    XGXGY   005400370024
BI00B32AG    XG22102LMW     202209167289-4696-30             HOUSING FEMALE ASS'Y     CCN000018000000018000FN00000000020221001000018000NNM   20220705121435    4N0N  00000200000000913400001055432AG    XGXGY   005400370024
BI00B32AG    XG22103LMW     202209237289-4696-30             HOUSING FEMALE ASS'Y     CCN000010000000010000FN00000000020221001000010000NNM   20220705121435    4N0N  00000200000000913400001055432AG    XGXGY   005400370024
BI00B32AG    XG22101LMW     202209097289-7615-30             HOUSING FEMALE ASS'Y     CCN000009600000009600FN00000000020221001000009600NNM   20220705121435    4N0N  00000032000000738000000948032AG    XGXGY   005400370024
BI00B32AG    XG22102LMW     202209167289-7615-30             HOUSING FEMALE ASS'Y     CCN000005760000005760FN00000000020221001000005760NNM   20220705121435    4N0N  00000032000000738000000948032AG    XGXGY   005400370024
BI00B32AG    XG22103LMW     202209237289-7615-30             HOUSING FEMALE ASS'Y     CCN000003840000003840FN00000000020221001000003840NNM   20220705121435    4N0N  00000032000000738000000948032AG    XGXGY   005400370024
BI00B32AG    #XG22102LMW    202209167157-3992-90             CONNECTOR SEALED         CCN000040000000040000FN00000000020221001000040000NNM   20220705121435    2C0C  00004000000000300000000363332AG    XGXGY   002700430014
BI00B32AG    #XG22101LMW    202209097158-3003-90             RUBBER STOPPER           CCN000120000000120000FN00000000020221001000120000NNM   20220705121435    2C0C  00002000000000250000000306032AG    XGXGY   002700430014
BI00B32AG    #XG22102LMW    202209167158-3003-90             RUBBER STOPPER           CCN000080000000080000FN00000000020221001000080000NNM   20220705121435    2C0C  00002000000000250000000306032AG    XGXGY   002700430014
BI00B32AG    #XG22103LMW    202209237158-3003-90             RUBBER STOPPER           CCN000060000000060000FN00000000020221001000060000NNM   20220705121435    2C0C  00002000000000250000000306032AG    XGXGY   002700430014
BI00B32AG    #XG22101LMW    202209097158-3008-80             RUBBER STOPPER           CCN000020000000020000FN00000000020221001000020000NNM   20220705121435    2C0C  00002000000000288000000343032AG    XGXGY   004300270014
BI00B32AG    #XG22103LMW    202209237158-3008-80             RUBBER STOPPER           CCN000020000000020000FN00000000020221001000020000NNM   20220705121435    2C0C  00002000000000288000000343032AG    XGXGY   004300270014
BI00B32AG    #XG22101LMW    202209097158-3120-90             CONNECTOR WIRE SEAL      CCN000120000000120000FN00000000020221001000120000NNM   20220705121435    2C0C  00002000000000136000000194032AG    XGXGY   002700430014
BI00B32AG    #XG22102LMW    202209167158-3120-90             CONNECTOR WIRE SEAL      CCN000080000000080000FN00000000020221001000080000NNM   20220705121435    2C0C  00002000000000136000000194032AG    XGXGY   002700430014
BI00B32AG    #XG22103LMW    202209237158-3120-90             CONNECTOR WIRE SEAL      CCN000060000000060000FN00000000020221001000060000NNM   20220705121435    2C0C  00002000000000136000000194032AG    XGXGY   002700430014
BI00B32AG    #XG22101LMW    202209097158-3121-80             WIRE SEAL                CCN000060000000060000FN00000000020221001000060000NNM   20220705121435    2C0C  00002000000000118000000187332AG    XGXGY   002700430014
BI00B32AG    #XG22102LMW    202209167158-3121-80             WIRE SEAL                CCN000020000000020000FN00000000020221001000020000NNM   20220705121435    2C0C  00002000000000118000000187332AG    XGXGY   002700430014
BI00B32AG    #XG22103LMW    202209237158-3121-80             WIRE SEAL                CCN000020000000020000FN00000000020221001000020000NNM   20220705121435    2C0C  00002000000000118000000187332AG    XGXGY   002700430014
BI00B32AG    #XG22101LMW    202209097158-3654-80             WIRE TUBE                CCN000040000000040000FN00000000020221001000040000NNM   20220705121435    2H0H  00004000000000104000000152232AG    XGXGY   004300270014
BI00B32AG    #XG22102LMW    202209167158-3654-80             WIRE TUBE                CCN000120000000120000FN00000000020221001000120000NNM   20220705121435    2H0H  00004000000000104000000152232AG    XGXGY   004300270014
BI00B32AG    #XG22103LMW    202209237158-3654-80             WIRE TUBE                CCN000120000000120000FN00000000020221001000120000NNM   20220705121435    2H0H  00004000000000104000000152232AG    XGXGY   004300270014
BI00B32AG    #XG22101LMW    202209097182-9631-40             JOINT CONNECTOR          CCN000009000000009000FN00000000020221001000009000NNM   20220705121435    2F0F  00000300000001182000001307432AG    XGXGY   005400370024
BI00B32AG    #XG22102LMW    202209167182-9631-40             JOINT CONNECTOR          CCN000006000000006000FN00000000020221001000006000NNM   20220705121435    2F0F  00000300000001182000001307432AG    XGXGY   005400370024
BI00B32AG    #XG22103LMW    202209237182-9631-40             JOINT CONNECTOR          CCN000003000000003000FN00000000020221001000003000NNM   20220705121435    2F0F  00000300000001182000001307432AG    XGXGY   005400370024
BI00B32AG    #XG22102LMW    202209167182-9633-40             JOINT CONNECTOR          CCN000006000000006000FN00000000020221001000006000NNM   20220705121435    2F0F  00000300000001335000001460532AG    XGXGY   005400370024
BI00B32AG    #XG22103LMW    202209237182-9633-40             JOINT CONNECTOR          CCN000003000000003000FN00000000020221001000003000NNM   20220705121435    2F0F  00000300000001335000001460532AG    XGXGY   005400370024
BI00B32AG    XG22103NMW     202209237116-4120-02             TERMINAL                 CCN000006000000006000FN00000000020221001000006000NNM   20220705121435    4P0P  00000600000000780000001073632AG    XGXGY   006400630015
BI00B32AG    XG22101NMW     202209097116-4121-02             TERMINAL                 CCN000013500000013500FN00000000020221001000013500NNM   20220705121435    4P0P  00000450000000618800000912432AG    XGXGY   006400630015
BI00B32AG    XG22102NMW     202209167116-4121-02             TERMINAL                 CCN000072000000072000FN00000000020221001000072000NNM   20220705121435    4P0P  00000450000000618800000912432AG    XGXGY   006400630015
BI00B32AG    XG22103NMW     202209237116-4121-02             TERMINAL                 CCN000054000000054000FN00000000020221001000054000NNM   20220705121435    4P0P  00000450000000618800000912432AG    XGXGY   006400630015
BI00B32AG    XG22101NMW     202209097116-4122-02             TERMINAL                 CCN000013500000013500FN00000000020221001000013500NNM   20220705121435    4P0P  00000450000000656600000950232AG    XGXGY   006400630015
BI00B32AG    XG22102NMW     202209167116-4122-02             TERMINAL                 CCN000009000000009000FN00000000020221001000009000NNM   20220705121435    4P0P  00000450000000656600000950232AG    XGXGY   006400630015
BI00B32AG    XG22103NMW     202209237116-4122-02             TERMINAL                 CCN000009000000009000FN00000000020221001000009000NNM   20220705121435    4P0P  00000450000000656600000950232AG    XGXGY   006400630015
BI00B32AG    XG22101NMW     202209097116-4415-02             TERMINAL                 CCN000570000000570000FN00000000020221001000570000NNM   20220705121435    4P0P  00003800000000596600000925732AG    XGXGY   006400630017
BI00B32AG    XG22102NMW     202209167116-4415-02             TERMINAL                 CCN000760000000760000FN00000000020221001000760000NNM   20220705121435    4P0P  00003800000000596600000925732AG    XGXGY   006400630017
BI00B32AG    XG22103NMW     202209237116-4415-02             TERMINAL                 CCN000608000000608000FN00000000020221001000608000NNM   20220705121435    4P0P  00003800000000596600000925732AG    XGXGY   006400630017
BI00B32AG    XG22102NMW     202209167126-8853-02             TERMINAL                 CCN000030000000030000FN00000000020221001000030000NNM   20220705121435    4P0P  00000750000000562500000847732AG    XGXGY   006400630015
BI00B32AG    XG22103NMW     202209237126-8853-02             TERMINAL                 CCN000075000000075000FN00000000020221001000075000NNM   20220705121435    4P0P  00000750000000562500000847732AG    XGXGY   006400630015
BI00B32AG    XG22102NMW     202209167158-3165-90             WIRE SEAL                CCN000040000000040000FN00000000020221001000040000NNM   20220705121435    1C0C  00004000000000124000000172432AG    XGXGY   004300270014
BI00B32AG    XG22103NMW     202209237158-3165-90             WIRE SEAL                CCN000200000000200000FN00000000020221001000200000NNM   20220705121435    1C0C  00004000000000124000000172432AG    XGXGY   004300270014
BI00B32AG    XG22102NMW     202209167158-3166-60             WIRE SEAL                CCN000400000000400000FN00000000020221001000400000NNM   20220705121435    1C0C  00004000000000104000000152432AG    XGXGY   002700430014
BI00B32AG    XG22103NMW     202209237158-3166-60             WIRE SEAL                CCN000320000000320000FN00000000020221001000320000NNM   20220705121435    1C0C  00004000000000104000000152432AG    XGXGY   002700430014
BI00B32AG    XG22102NMW     202209167158-3167-80             WIRE SEAL                CCN000260000000260000FN00000000020221001000260000NNM   20220705121435    1C0C  00002000000000048000000109032AG    XGXGY   002700430014
BI00B32AG    XG22103NMW     202209237158-3167-80             WIRE SEAL                CCN000220000000220000FN00000000020221001000220000NNM   20220705121435    1C0C  00002000000000048000000109032AG    XGXGY   002700430014
BI00B32AG    XG22101NMW     202209097158-3168-80             SEALED                   CCN000060000000060000FN00000000020221001000060000NNM   20220705121435    1C0C  00002000000000044000000092132AG    XGXGY   004300260014
BI00B32AG    XG22102NMW     202209167158-3168-80             SEALED                   CCN000040000000040000FN00000000020221001000040000NNM   20220705121435    1C0C  00002000000000044000000092132AG    XGXGY   004300260014
BI00B32AG    XG22103NMW     202209237158-3168-80             SEALED                   CCN000040000000040000FN00000000020221001000040000NNM   20220705121435    1C0C  00002000000000044000000092132AG    XGXGY   004300260014
BI00B32AG    XG22101NMW     202209097158-3169-40             SEALING PLUG             CCN000040000000040000FN00000000020221001000040000NNM   20220705121435    1C0C  00004000000000156000000204132AG    XGXGY   004300260014
BI00B32AG    XG22102NMW     202209167158-3169-40             SEALING PLUG             CCN000080000000080000FN00000000020221001000080000NNM   20220705121435    1C0C  00004000000000156000000204132AG    XGXGY   004300260014
BI00B32AG    XG22103NMW     202209237158-3169-40             SEALING PLUG             CCN000080000000080000FN00000000020221001000080000NNM   20220705121435    1C0C  00004000000000156000000204132AG    XGXGY   004300260014
BI00B32AG    #XG22101NMW    202209097123-6423-30             CONNECTOR                CCN000010000000010000FN00000000020221001000010000NNM   20220705121435    2F0F  00000200000001002000001167632AG    XGXGY   005600390023
BI00B32AG    #XG22102NMW    202209167123-6423-30             CONNECTOR                CCN000004000000004000FN00000000020221001000004000NNM   20220705121435    2F0F  00000200000001002000001167632AG    XGXGY   005600390023
BI00B32AG    #XG22103NMW    202209237123-6423-30             CONNECTOR                CCN000004000000004000FN00000000020221001000004000NNM   20220705121435    2F0F  00000200000001002000001167632AG    XGXGY   005600390023
BI00B32AG    XG22102QMW     202209167158-3022-80             RUBBER STOPPER           CCN000015000000015000FN00000000020221001000015000NNM   20220705121435    1C0C  00000500000000467500000524032AG    XGXGY   002700430014
BI00B32AG    XG22103QMW     202209237158-3022-80             RUBBER STOPPER           CCN000015000000015000FN00000000020221001000015000NNM   20220705121435    1C0C  00000500000000467500000524032AG    XGXGY   002700430014
BI00B32CG    S220646-G      202210057116-4120-02             TERMINAL                 CCN000006000000006000FN00000000020221001000006000NNE   20220705131115    4P0P  00000600000000780000001073632CG    ASASIACO006400630015
BI00B32CG    S220646-G      202210057283-9457-3W             CONNECTOR                CCN000001320000001320FN00000000020221001000001320NNE   20220705131115    4N0N  00000012000000515000001067032CG    ASASIACO005600390023
BI00B32CG    S220646-G      202210057283-9458-30             CONNECTOR                CCN000000200000000200FN00000000020221001000000200NNE   20220705131115    4N0N  00000020000000792000000984332CG    ASASIACO005600390023
BI00B32CG    S220646-G      202210057116-4121-02             TERMINAL                 CCN000004500000004500FN00000000020221001000004500NNE   20220705131115    4P0P  00000450000000618800000912432CG    ASASIACO006400630015
BI00B32CG    #S220646-G     202210057282-6446-40             CONNECTOR                CCN000001500000001500FN00000000020221001000001500NNE   20220705131110    2N0N  00000150000001185000001368032CG    ASASIACO005500360039
BI00B32CH    SJ22092 MW     202208117017-1180-02             TERMINAL                 CCN000072000000072000FN00000000020220901000072000NNM   20220705121435    4P0P  00007200000001065600001229032CH    SJSAMIJF005100280028
BI00B32CH    SJ22093 MW     202208187017-1180-02             TERMINAL                 CCN000144000000144000FN00000000020220901000144000NNM   20220705121435    4P0P  00007200000001065600001229032CH    SJSAMIJF005100280028
BI00B32CH    SJ22094 MW     202208257017-1180-02             TERMINAL                 CCN000144000000144000FN00000000020220901000144000NNM   20220705121435    4P0P  00007200000001065600001229032CH    SJSAMIJF005100280028
BI00B32CH    SJ22092 MW     202208117017-1182-02             TERMINAL                 CCN000090000000090000FN00000000020220901000090000NNM   20220705121435    4P0P  00004500000001165500001318632CH    SJSAMIJF005100280028
BI00B32CH    SJ22093 MW     202208187017-1182-02             TERMINAL                 CCN000135000000135000FN00000000020220901000135000NNM   20220705121435    4P0P  00004500000001165500001318632CH    SJSAMIJF005100280028
BI00B32CH    SJ22094 MW     202208257017-1182-02             TERMINAL                 CCN000180000000180000FN00000000020220901000180000NNM   20220705121435    4P0P  00004500000001165500001318632CH    SJSAMIJF005100280028
BI00B32CH    SJ22091 MW     202208047017-1183-02             TERMINAL                 CCN000027000000027000FN00000000020220901000027000NNM   20220705121435    4P0P  00002700000001139400001307432CH    SJSAMIJF005100280028
BI00B32CH    SJ22092 MW     202208117017-1183-02             TERMINAL                 CCN000027000000027000FN00000000020220901000027000NNM   20220705121435    4P0P  00002700000001139400001307432CH    SJSAMIJF005100280028
BI00B32CH    SJ22093 MW     202208187017-1183-02             TERMINAL                 CCN000027000000027000FN00000000020220901000027000NNM   20220705121435    4P0P  00002700000001139400001307432CH    SJSAMIJF005100280028
BI00B32CH    SJ22094 MW     202208257017-1183-02             TERMINAL                 CCN000027000000027000FN00000000020220901000027000NNM   20220705121435    4P0P  00002700000001139400001307432CH    SJSAMIJF005100280028
BI00B32CH    SJ22092 MW     202208117114-4020                TERMINAL                 CCN000021000000021000FN00000000020220901000021000NNM   20220705121435    4P0P  00002100000000875700001169332CH    SJSAMIJF006400630015
BI00B32CH    SJ22093 MW     202208187114-4020                TERMINAL                 CCN000021000000021000FN00000000020220901000021000NNM   20220705121435    4P0P  00002100000000875700001169332CH    SJSAMIJF006400630015
BI00B32CH    SJ22094 MW     202208257114-4020                TERMINAL                 CCN000042000000042000FN00000000020220901000042000NNM   20220705121435    4P0P  00002100000000875700001169332CH    SJSAMIJF006400630015
BI00B32CH    SJ22091 MW     202208047114-4030                TERMINAL                 CCN000010500000010500FN00000000020220901000010500NNM   20220705121435    4P0P  00001050000000926100001254732CH    SJSAMIJF006400630017
BI00B32CH    SJ22092 MW     202208117114-4030                TERMINAL                 CCN000010500000010500FN00000000020220901000010500NNM   20220705121435    4P0P  00001050000000926100001254732CH    SJSAMIJF006400630017
BI00B32CH    SJ22093 MW     202208187114-4030                TERMINAL                 CCN000010500000010500FN00000000020220901000010500NNM   20220705121435    4P0P  00001050000000926100001254732CH    SJSAMIJF006400630017
BI00B32CH    SJ22094 MW     202208257114-4030                TERMINAL                 CCN000010500000010500FN00000000020220901000010500NNM   20220705121435    4P0P  00001050000000926100001254732CH    SJSAMIJF006400630017
BI00B32CH    SJ22091 MW     202208047114-4032                TERMINAL                 CCN000022500000022500FN00000000020220901000022500NNM   20220705121435    4P0P  00000750000000735000001063632CH    SJSAMIJF006400630017
BI00B32CH    SJ22092 MW     202208117114-4032                TERMINAL                 CCN000007500000007500FN00000000020220901000007500NNM   20220705121435    4P0P  00000750000000735000001063632CH    SJSAMIJF006400630017
BI00B32CH    SJ22093 MW     202208187114-4032                TERMINAL                 CCN000015000000015000FN00000000020220901000015000NNM   20220705121435    4P0P  00000750000000735000001063632CH    SJSAMIJF006400630017
BI00B32CH    SJ22094 MW     202208257114-4032                TERMINAL                 CCN000015000000015000FN00000000020220901000015000NNM   20220705121435    4P0P  00000750000000735000001063632CH    SJSAMIJF006400630017
BI00B32CH    SJ22091 MW     202208047114-4111-02             TERMINAL                 CCN000012000000012000FN00000000020220901000012000NNM   20220705121435    4P0P  00001200000000758400001087032CH    SJSAMIJF006400630017
BI00B32CH    SJ22092 MW     202208117114-4111-02             TERMINAL                 CCN000012000000012000FN00000000020220901000012000NNM   20220705121435    4P0P  00001200000000758400001087032CH    SJSAMIJF006400630017
BI00B32CH    SJ22093 MW     202208187114-4111-02             TERMINAL                 CCN000012000000012000FN00000000020220901000012000NNM   20220705121435    4P0P  00001200000000758400001087032CH    SJSAMIJF006400630017
BI00B32CH    SJ22094 MW     202208257114-4111-02             TERMINAL                 CCN000012000000012000FN00000000020220901000012000NNM   20220705121435    4P0P  00001200000000758400001087032CH    SJSAMIJF006400630017
BI00B32CH    SJ22091 MW     202208047114-4112-02             TERMINAL                 CCN000009000000009000FN00000000020220901000009000NNM   20220705121435    4P0P  00000900000000598500000927132CH    SJSAMIJF006400630017
BI00B32CH    SJ22092 MW     202208117114-4112-02             TERMINAL                 CCN000009000000009000FN00000000020220901000009000NNM   20220705121435    4P0P  00000900000000598500000927132CH    SJSAMIJF006400630017
BI00B32CH    SJ22093 MW     202208187114-4112-02             TERMINAL                 CCN000018000000018000FN00000000020220901000018000NNM   20220705121435    4P0P  00000900000000598500000927132CH    SJSAMIJF006400630017
BI00B32CH    SJ22094 MW     202208257114-4112-02             TERMINAL                 CCN000009000000009000FN00000000020220901000009000NNM   20220705121435    4P0P  00000900000000598500000927132CH    SJSAMIJF006400630017
BI00B32CH    SJ22091 MW     202208047114-4728-02             TERMINAL                 CCN000150000000150000FN00000000020220901000150000NNM   20220705121435    4P0P  00003000000000510000000804232CH    SJSAMIJF006400630015
BI00B32CH    SJ22092 MW     202208117114-4728-02             TERMINAL                 CCN000120000000120000FN00000000020220901000120000NNM   20220705121435    4P0P  00003000000000510000000804232CH    SJSAMIJF006400630015
BI00B32CH    SJ22093 MW     202208187114-4728-02             TERMINAL                 CCN000090000000090000FN00000000020220901000090000NNM   20220705121435    4P0P  00003000000000510000000804232CH    SJSAMIJF006400630015
BI00B32CH    SJ22094 MW     202208257114-4728-02             TERMINAL                 CCN000120000000120000FN00000000020220901000120000NNM   20220705121435    4P0P  00003000000000510000000804232CH    SJSAMIJF006400630015
BI00B32CH    SJ22091 MW     202208047114-4729-02             TERMINAL                 CCN000024000000030000FN00000000020220901000030000NNM   20220705121435    4P0P  00003000000000516000000810232CH    SJSAMIJF006400630015
BI00B32CH    SJ22092 MW     202208117114-4729-02             TERMINAL                 CCN000024000000030000FN00000000020220901000030000NNM   20220705121435    4P0P  00003000000000516000000810232CH    SJSAMIJF006400630015
BI00B32CH    SJ22093 MW     202208187114-4729-02             TERMINAL                 CCN000024000000030000FN00000000020220901000030000NNM   20220705121435    4P0P  00003000000000516000000810232CH    SJSAMIJF006400630015
BI00B32CH    SJ22094 MW     202208257114-4729-02             TERMINAL                 CCN000024000000030000FN00000000020220901000030000NNM   20220705121435    4P0P  00003000000000516000000810232CH    SJSAMIJF006400630015
BI00B32CH    SJ22094 MW     202208257114-5746-02             TERMINAL                 CCN000021000000021000FN00000000020220901000021000NNM   20220705121435    4P0P  00002100000000695100000988732CH    SJSAMIJF006400630015
BI00B32CH    SJ22091 MW     202208047114-5747-02             TERMINAL                 CCN000054000000054000FN00000000020220901000054000NNM   20220705121435    4P0P  00001800000000626400000920032CH    SJSAMIJF006400630015
BI00B32CH    SJ22092 MW     202208117114-5747-02             TERMINAL                 CCN000054000000054000FN00000000020220901000054000NNM   20220705121435    4P0P  00001800000000626400000920032CH    SJSAMIJF006400630015
BI00B32CH    SJ22093 MW     202208187114-5747-02             TERMINAL                 CCN000036000000036000FN00000000020220901000036000NNM   20220705121435    4P0P  00001800000000626400000920032CH    SJSAMIJF006400630015
BI00B32CH    SJ22094 MW     202208257114-5747-02             TERMINAL                 CCN000036000000036000FN00000000020220901000036000NNM   20220705121435    4P0P  00001800000000626400000920032CH    SJSAMIJF006400630015
BI00B32CH    SJ22094 MW     202208257114-5748-02             TERMINAL                 CCN000012000000012000FN00000000020220901000012000NNM   20220705121435    4P0P  00001200000000444000000737632CH    SJSAMIJF006400630015
BI00B32CH    SJ22091 MW     202208047114-5753-02             TERMINAL                 CCN000027000000027000FN00000000020220901000027000NNM   20220705121435    4P0P  00002700000000847800001141432CH    SJSAMIJF006400630015
BI00B32CH    SJ22093 MW     202208187116-2640                TERMINAL                 CCN000018000000018000FN00000000020220901000018000NNM   20220705121435    4P0P  00001800000001018800001196632CH    SJSAMIJF005100280028
BI00B32CH    SJ22094 MW     202208257116-3154-02             TERMINAL FEMALE          CCN000240000000243000FN00000000020220901000243000NNM   20220705121435    4P0P  00002700000000469800000755032CH    SJSAMIJF006400630015
BI00B32CH    SJ22092 MW     202208117116-4020                TERMINAL                 CCN000027000000027000FN00000000020220901000027000NNM   20220705121435    4P0P  00001350000000513000000798232CH    SJSAMIJF006400630015
BI00B32CH    SJ22093 MW     202208187116-4020                TERMINAL                 CCN000013500000013500FN00000000020220901000013500NNM   20220705121435    4P0P  00001350000000513000000798232CH    SJSAMIJF006400630015
BI00B32CH    SJ22092 MW     202208117116-4025                TERMINAL                 CCN000016000000016000FN00000000020220901000016000NNM   20220705121435    4P0P  00001600000000644800000975132CH    SJSAMIJF006400630017
BI00B32CH    SJ22093 MW     202208187116-4025                TERMINAL                 CCN000016000000016000FN00000000020220901000016000NNM   20220705121435    4P0P  00001600000000644800000975132CH    SJSAMIJF006400630017
BI00B32CH    SJ22094 MW     202208257116-4025                TERMINAL                 CCN000016000000016000FN00000000020220901000016000NNM   20220705121435    4P0P  00001600000000644800000975132CH    SJSAMIJF006400630017
BI00B32CH    SJ22091 MW     202208047116-4028-08             TERMINAL FEMALE          CCN000048000000048000FN00000000020220901000048000NNM   20220705121435    4P0P  00001600000000652800000981532CH    SJSAMIJF006400630017
BI00B32CH    SJ22092 MW     202208117116-4028-08             TERMINAL FEMALE          CCN000112000000112000FN00000000020220901000112000NNM   20220705121435    4P0P  00001600000000652800000981532CH    SJSAMIJF006400630017
BI00B32CH    SJ22093 MW     202208187116-4028-08             TERMINAL FEMALE          CCN000096000000096000FN00000000020220901000096000NNM   20220705121435    4P0P  00001600000000652800000981532CH    SJSAMIJF006400630017
BI00B32CH    SJ22094 MW     202208257116-4028-08             TERMINAL FEMALE          CCN000096000000096000FN00000000020220901000096000NNM   20220705121435    4P0P  00001600000000652800000981532CH    SJSAMIJF006400630017
BI00B32CH    SJ22091 MW     202208047116-4031                TERMINAL                 CCN000015000000015000FN00000000020220901000015000NNM   20220705121435    4P0P  00000750000000619500000904732CH    SJSAMIJF006400630015
BI00B32CH    SJ22092 MW     202208117116-4031                TERMINAL                 CCN000030000000030000FN00000000020220901000030000NNM   20220705121435    4P0P  00000750000000619500000904732CH    SJSAMIJF006400630015
BI00B32CH    SJ22093 MW     202208187116-4031                TERMINAL                 CCN000037500000037500FN00000000020220901000037500NNM   20220705121435    4P0P  00000750000000619500000904732CH    SJSAMIJF006400630015
BI00B32CH    SJ22094 MW     202208257116-4031                TERMINAL                 CCN000030000000030000FN00000000020220901000030000NNM   20220705121435    4P0P  00000750000000619500000904732CH    SJSAMIJF006400630015
BI00B32CH    SJ22091 MW     202208047116-4032                TERMINAL                 CCN000048000000048000FN00000000020220901000048000NNM   20220705121435    4P0P  00000600000000532800000818032CH    SJSAMIJF006400630015
BI00B32CH    SJ22092 MW     202208117116-4032                TERMINAL                 CCN000144000000144000FN00000000020220901000144000NNM   20220705121435    4P0P  00000600000000532800000818032CH    SJSAMIJF006400630015
BI00B32CH    SJ22093 MW     202208187116-4032                TERMINAL                 CCN000126000000126000FN00000000020220901000126000NNM   20220705121435    4P0P  00000600000000532800000818032CH    SJSAMIJF006400630015
BI00B32CH    SJ22094 MW     202208257116-4032                TERMINAL                 CCN000138000000138000FN00000000020220901000138000NNM   20220705121435    4P0P  00000600000000532800000818032CH    SJSAMIJF006400630015
BI00B32CH    SJ22091 MW     202208047116-4037                TERMINAL                 CCN000030000000030000FN00000000020220901000030000NNM   20220705121435    4P0P  00000600000000600000000894232CH    SJSAMIJF006400630015
BI00B32CH    SJ22092 MW     202208117116-4037                TERMINAL                 CCN000036000000036000FN00000000020220901000036000NNM   20220705121435    4P0P  00000600000000600000000894232CH    SJSAMIJF006400630015
BI00B32CH    SJ22091 MW     202208047116-4231-02             TERMINAL                 CCN000026000000026000FN00000000020220901000026000NNM   20220705121435    4P0P  00002600000000683800001012532CH    SJSAMIJF006400630017
BI00B32CH    SJ22092 MW     202208117116-4231-02             TERMINAL                 CCN000104000000104000FN00000000020220901000104000NNM   20220705121435    4P0P  00002600000000683800001012532CH    SJSAMIJF006400630017
BI00B32CH    SJ22093 MW     202208187116-4231-02             TERMINAL                 CCN000104000000104000FN00000000020220901000104000NNM   20220705121435    4P0P  00002600000000683800001012532CH    SJSAMIJF006400630017
BI00B32CH    SJ22094 MW     202208257116-4231-02             TERMINAL                 CCN000078000000078000FN00000000020220901000078000NNM   20220705121435    4P0P  00002600000000683800001012532CH    SJSAMIJF006400630017
BI00B32CH    SJ22092 MW     202208117116-4415-02             TERMINAL                 CCN000456000000456000FN00000000020220901000456000NNM   20220705121435    4P0P  00003800000000596600000925732CH    SJSAMIJF006400630017
BI00B32CH    SJ22093 MW     202208187116-4415-02             TERMINAL                 CCN000380000000380000FN00000000020220901000380000NNM   20220705121435    4P0P  00003800000000596600000925732CH    SJSAMIJF006400630017
BI00B32CH    SJ22094 MW     202208257116-4415-02             TERMINAL                 CCN000494000000494000FN00000000020220901000494000NNM   20220705121435    4P0P  00003800000000596600000925732CH    SJSAMIJF006400630017
BI00B32CH    SJ22091 MW     202208047116-4416-02             TERMINAL                 CCN000032000000032000FN00000000020220901000032000NNM   20220705121435    4P0P  00003200000000518400000847132CH    SJSAMIJF006400630017
BI00B32CH    SJ22092 MW     202208117116-4416-02             TERMINAL                 CCN000128000000128000FN00000000020220901000128000NNM   20220705121435    4P0P  00003200000000518400000847132CH    SJSAMIJF006400630017
BI00B32CH    SJ22093 MW     202208187116-4416-02             TERMINAL                 CCN000128000000128000FN00000000020220901000128000NNM   20220705121435    4P0P  00003200000000518400000847132CH    SJSAMIJF006400630017
BI00B32CH    SJ22094 MW     202208257116-4416-02             TERMINAL                 CCN000128000000128000FN00000000020220901000128000NNM   20220705121435    4P0P  00003200000000518400000847132CH    SJSAMIJF006400630017
BI00B32CH    SJ22091 MW     202208047116-4486-02             TERMINAL                 CCN000028000000028000FN00000000020220901000028000NNM   20220705121435    4P0P  00002800000000666400000995132CH    SJSAMIJF006400630017
BI00B32CH    SJ22092 MW     202208117116-4486-02             TERMINAL                 CCN000140000000140000FN00000000020220901000140000NNM   20220705121435    4P0P  00002800000000666400000995132CH    SJSAMIJF006400630017
BI00B32CH    SJ22093 MW     202208187116-4486-02             TERMINAL                 CCN000112000000112000FN00000000020220901000112000NNM   20220705121435    4P0P  00002800000000666400000995132CH    SJSAMIJF006400630017
BI00B32CH    SJ22094 MW     202208257116-4486-02             TERMINAL                 CCN000112000000112000FN00000000020220901000112000NNM   20220705121435    4P0P  00002800000000666400000995132CH    SJSAMIJF006400630017
BI00B32CH    SJ22091 MW     202208047116-5041-02             TERMINAL                 CCN000015000000015000FN00000000020220901000015000NNM   20220705121435    4P0P  00001500000000583500000868732CH    SJSAMIJF006400630015
BI00B32CH    SJ22092 MW     202208117116-5041-02             TERMINAL                 CCN000315000000315000FN00000000020220901000315000NNM   20220705121435    4P0P  00001500000000583500000868732CH    SJSAMIJF006400630015
BI00B32CH    SJ22093 MW     202208187116-5041-02             TERMINAL                 CCN000300000000300000FN00000000020220901000300000NNM   20220705121435    4P0P  00001500000000583500000868732CH    SJSAMIJF006400630015
BI00B32CH    SJ22094 MW     202208257116-5041-02             TERMINAL                 CCN000300000000300000FN00000000020220901000300000NNM   20220705121435    4P0P  00001500000000583500000868732CH    SJSAMIJF006400630015
BI00B32CH    SJ22092 MW     202208117116-5042-02             TERMINAL                 CCN000094500000094500FN00000000020220901000094500NNM   20220705121435    4P0P  00001350000000560300000845532CH    SJSAMIJF006400630015
BI00B32CH    SJ22093 MW     202208187116-5042-02             TERMINAL                 CCN000202500000202500FN00000000020220901000202500NNM   20220705121435    4P0P  00001350000000560300000845532CH    SJSAMIJF006400630015
BI00B32CH    SJ22094 MW     202208257116-5042-02             TERMINAL                 CCN000202500000202500FN00000000020220901000202500NNM   20220705121435    4P0P  00001350000000560300000845532CH    SJSAMIJF006400630015
BI00B32CH    SJ22091 MW     202208047116-5043-02             TERMINAL FEMALE          CCN000216000000216000FN00000000020220901000216000NNM   20220705121435    4P0P  00001200000000559200000844432CH    SJSAMIJF006400630015
BI00B32CH    SJ22092 MW     202208117116-5043-02             TERMINAL FEMALE          CCN000144000000144000FN00000000020220901000144000NNM   20220705121435    4P0P  00001200000000559200000844432CH    SJSAMIJF006400630015
BI00B32CH    SJ22093 MW     202208187116-5043-02             TERMINAL FEMALE          CCN000120000000120000FN00000000020220901000120000NNM   20220705121435    4P0P  00001200000000559200000844432CH    SJSAMIJF006400630015
BI00B32CH    SJ22094 MW     202208257116-5043-02             TERMINAL FEMALE          CCN000120000000120000FN00000000020220901000120000NNM   20220705121435    4P0P  00001200000000559200000844432CH    SJSAMIJF006400630015
BI00B32CH    SJ22091 MW     202208047116-5044-02             TERMINAL                 CCN000192000000192000FN00000000020220901000192000NNM   20220705121435    4P0P  00001600000000641600000986332CH    SJSAMIJF006400630017
BI00B32CH    SJ22092 MW     202208117116-5044-02             TERMINAL                 CCN000496000000496000FN00000000020220901000496000NNM   20220705121435    4P0P  00001600000000641600000986332CH    SJSAMIJF006400630017
BI00B32CH    SJ22093 MW     202208187116-5044-02             TERMINAL                 CCN000464000000464000FN00000000020220901000464000NNM   20220705121435    4P0P  00001600000000641600000986332CH    SJSAMIJF006400630017
BI00B32CH    SJ22094 MW     202208257116-5044-02             TERMINAL                 CCN000448000000448000FN00000000020220901000448000NNM   20220705121435    4P0P  00001600000000641600000986332CH    SJSAMIJF006400630017
BI00B32CH    SJ22092 MW     202208117116-5045-02             TERMINAL                 CCN000256000000256000FN00000000020220901000256000NNM   20220705121435    4P0P  00001600000000678400001007132CH    SJSAMIJF006400630017
BI00B32CH    SJ22093 MW     202208187116-5045-02             TERMINAL                 CCN000272000000272000FN00000000020220901000272000NNM   20220705121435    4P0P  00001600000000678400001007132CH    SJSAMIJF006400630017
BI00B32CH    SJ22094 MW     202208257116-5045-02             TERMINAL                 CCN000272000000272000FN00000000020220901000272000NNM   20220705121435    4P0P  00001600000000678400001007132CH    SJSAMIJF006400630017
BI00B32CH    SJ22093 MW     202208187116-5046-02             TERMINAL                 CCN000012000000012000FN00000000020220901000012000NNM   20220705121435    4P0P  00001200000000544800000873532CH    SJSAMIJF006400630017
BI00B32CH    SJ22094 MW     202208257116-5046-02             TERMINAL                 CCN000012000000012000FN00000000020220901000012000NNM   20220705121435    4P0P  00001200000000544800000873532CH    SJSAMIJF006400630017
BI00B32CH    SJ22092 MW     202208117116-5750-02             TERMINAL                 CCN000315000000315000FN00000000020220901000315000NNM   20220705121435    4P0P  00001500000000457500000742732CH    SJSAMIJF006400630015
BI00B32CH    SJ22093 MW     202208187116-5750-02             TERMINAL                 CCN000510000000510000FN00000000020220901000510000NNM   20220705121435    4P0P  00001500000000457500000742732CH    SJSAMIJF006400630015
BI00B32CH    SJ22094 MW     202208257116-5750-02             TERMINAL                 CCN000510000000510000FN00000000020220901000510000NNM   20220705121435    4P0P  00001500000000457500000742732CH    SJSAMIJF006400630015
BI00B32CH    SJ22092 MW     202208117116-5752-02             TERMINAL                 CCN000042000000042000FN00000000020220901000042000NNM   20220705121435    4P0P  00002100000000571200000856432CH    SJSAMIJF006400630015
BI00B32CH    SJ22093 MW     202208187116-5752-02             TERMINAL                 CCN000084000000084000FN00000000020220901000084000NNM   20220705121435    4P0P  00002100000000571200000856432CH    SJSAMIJF006400630015
BI00B32CH    SJ22094 MW     202208257116-5752-02             TERMINAL                 CCN000063000000063000FN00000000020220901000063000NNM   20220705121435    4P0P  00002100000000571200000856432CH    SJSAMIJF006400630015
BI00B32CH    SJ22092 MW     202208117116-6041                TERMINAL                 CCN000103500000103500FN00000000020220901000103500NNM   20220705121435    4P0P  00000450000000716000001009632CH    SJSAMIJF006400630015
BI00B32CH    SJ22093 MW     202208187116-6041                TERMINAL                 CCN000081000000081000FN00000000020220901000081000NNM   20220705121435    4P0P  00000450000000716000001009632CH    SJSAMIJF006400630015
BI00B32CH    SJ22094 MW     202208257116-6041                TERMINAL                 CCN000121500000121500FN00000000020220901000121500NNM   20220705121435    4P0P  00000450000000716000001009632CH    SJSAMIJF006400630015
BI00B32CH    SJ22092 MW     202208117116-6042                TERMINAL                 CCN000039000000039000FN00000000020220901000039000NNM   20220705121435    4P0P  00000300000000523800000856132CH    SJSAMIJF006400630015
BI00B32CH    SJ22093 MW     202208187116-6042                TERMINAL                 CCN000048000000048000FN00000000020220901000048000NNM   20220705121435    4P0P  00000300000000523800000856132CH    SJSAMIJF006400630015
BI00B32CH    SJ22094 MW     202208257116-6042                TERMINAL                 CCN000081000000081000FN00000000020220901000081000NNM   20220705121435    4P0P  00000300000000523800000856132CH    SJSAMIJF006400630015
BI00B32CH    SJ22091 MW     202208047126-8853-02             TERMINAL                 CCN000060000000060000FN00000000020220901000060000NNM   20220705121435    4P0P  00000750000000562500000847732CH    SJSAMIJF006400630015
BI00B32CH    SJ22092 MW     202208117126-8853-02             TERMINAL                 CCN000247500000247500FN00000000020220901000247500NNM   20220705121435    4P0P  00000750000000562500000847732CH    SJSAMIJF006400630015
BI00B32CH    SJ22093 MW     202208187126-8853-02             TERMINAL                 CCN000210000000210000FN00000000020220901000210000NNM   20220705121435    4P0P  00000750000000562500000847732CH    SJSAMIJF006400630015
BI00B32CH    SJ22094 MW     202208257126-8853-02             TERMINAL                 CCN000240000000240000FN00000000020220901000240000NNM   20220705121435    4P0P  00000750000000562500000847732CH    SJSAMIJF006400630015
BI00B32CH    SJ22092 MW     202208117126-8854-02             TERMINAL                 CCN000262500000262500FN00000000020220901000262500NNM   20220705121435    4P0P  00000750000000604500000889732CH    SJSAMIJF006400630015
BI00B32CH    SJ22093 MW     202208187126-8854-02             TERMINAL                 CCN000240000000240000FN00000000020220901000240000NNM   20220705121435    4P0P  00000750000000604500000889732CH    SJSAMIJF006400630015
BI00B32CH    SJ22094 MW     202208257126-8854-02             TERMINAL                 CCN000307500000307500FN00000000020220901000307500NNM   20220705121435    4P0P  00000750000000604500000889732CH    SJSAMIJF006400630015
BI00B32CH    SJ22091 MW     202208047158-3006-90             RUBBER STOPPER           CCN000260000000260000FN00000000020220901000260000NNM   20220705121435    1C0C  00002000000000330600000386032CH    SJSAMIJF002700430014
BI00B32CH    SJ22092 MW     202208117158-3006-90             RUBBER STOPPER           CCN000440000000440000FN00000000020220901000440000NNM   20220705121435    1C0C  00002000000000330600000386032CH    SJSAMIJF002700430014
BI00B32CH    SJ22093 MW     202208187158-3006-90             RUBBER STOPPER           CCN000420000000420000FN00000000020220901000420000NNM   20220705121435    1C0C  00002000000000330600000386032CH    SJSAMIJF002700430014
BI00B32CH    SJ22094 MW     202208257158-3006-90             RUBBER STOPPER           CCN000400000000400000FN00000000020220901000400000NNM   20220705121435    1C0C  00002000000000330600000386032CH    SJSAMIJF002700430014
BI00B32CH    SJ22091 MW     202208047158-3009-60             RUBBER STOPPER           CCN000200000000200000FN00000000020220901000200000NNM   20220705121435    1C0C  00002000000000338000000386232CH    SJSAMIJF002700430014
BI00B32CH    SJ22092 MW     202208117158-3009-60             RUBBER STOPPER           CCN000380000000380000FN00000000020220901000380000NNM   20220705121435    1C0C  00002000000000338000000386232CH    SJSAMIJF002700430014
BI00B32CH    SJ22093 MW     202208187158-3009-60             RUBBER STOPPER           CCN000340000000340000FN00000000020220901000340000NNM   20220705121435    1C0C  00002000000000338000000386232CH    SJSAMIJF002700430014
BI00B32CH    SJ22094 MW     202208257158-3009-60             RUBBER STOPPER           CCN000320000000320000FN00000000020220901000320000NNM   20220705121435    1C0C  00002000000000338000000386232CH    SJSAMIJF002700430014
BI00B32CH    SJ22092 MW     202208117158-3022-80             RUBBER STOPPER           CCN000010000000010000FN00000000020220901000010000NNM   20220705121435    1C0C  00000500000000467500000524032CH    SJSAMIJF002700430014
BI00B32CH    SJ22093 MW     202208187158-3022-80             RUBBER STOPPER           CCN000015000000015000FN00000000020220901000015000NNM   20220705121435    1C0C  00000500000000467500000524032CH    SJSAMIJF002700430014
BI00B32CH    SJ22094 MW     202208257158-3022-80             RUBBER STOPPER           CCN000010000000010000FN00000000020220901000010000NNM   20220705121435    1C0C  00000500000000467500000524032CH    SJSAMIJF002700430014
BI00B32CH    SJ22092 MW     202208117158-3165-90             WIRE SEAL                CCN000240000000240000FN00000000020220901000240000NNM   20220705121435    1C0C  00004000000000124000000172432CH    SJSAMIJF004300270014
BI00B32CH    SJ22093 MW     202208187158-3165-90             WIRE SEAL                CCN000160000000160000FN00000000020220901000160000NNM   20220705121435    1C0C  00004000000000124000000172432CH    SJSAMIJF004300270014
BI00B32CH    SJ22094 MW     202208257158-3165-90             WIRE SEAL                CCN000240000000240000FN00000000020220901000240000NNM   20220705121435    1C0C  00004000000000124000000172432CH    SJSAMIJF004300270014
BI00B32CH    SJ22091 MW     202208047158-3167-80             WIRE SEAL                CCN000020000000020000FN00000000020220901000020000NNM   20220705121435    1C0C  00002000000000048000000109032CH    SJSAMIJF002700430014
BI00B32CH    SJ22092 MW     202208117158-3167-80             WIRE SEAL                CCN000060000000060000FN00000000020220901000060000NNM   20220705121435    1C0C  00002000000000048000000109032CH    SJSAMIJF002700430014
BI00B32CH    SJ22093 MW     202208187158-3167-80             WIRE SEAL                CCN000040000000040000FN00000000020220901000040000NNM   20220705121435    1C0C  00002000000000048000000109032CH    SJSAMIJF002700430014
BI00B32CH    SJ22094 MW     202208257158-3167-80             WIRE SEAL                CCN000040000000040000FN00000000020220901000040000NNM   20220705121435    1C0C  00002000000000048000000109032CH    SJSAMIJF002700430014
BI00B32CH    SJ22092 MW     202208117158-3169-40             SEALING PLUG             CCN000040000000040000FN00000000020220901000040000NNM   20220705121435    1C0C  00004000000000156000000204132CH    SJSAMIJF004300260014
BI00B32CH    SJ22093 MW     202208187158-3169-40             SEALING PLUG             CCN000080000000080000FN00000000020220901000080000NNM   20220705121435    1C0C  00004000000000156000000204132CH    SJSAMIJF004300260014
BI00B32CH    SJ22094 MW     202208257158-3169-40             SEALING PLUG             CCN000080000000080000FN00000000020220901000080000NNM   20220705121435    1C0C  00004000000000156000000204132CH    SJSAMIJF004300260014
BI00B32CH    SJ22094 MW     202208257196-0805-02             TERMINAL FEMALE          CCN000022500000022500FN00000000020220901000022500NNM   20220705121435    4P0P  00002250000000558000000843232CH    SJSAMIJF006400630015
BI00B32CH    SJ22092 MW     202208117283-4576                HOUSING FEMALE ASS'Y     CCN000004800000004800FN00000000020220901000004800NNM   20220705121435    4N0N  00000480000000651300000871332CH    SJSAMIJF005500360039
BI00B32CH    SJ22093 MW     202208187283-4576                HOUSING FEMALE ASS'Y     CCN000004800000004800FN00000000020220901000004800NNM   20220705121435    4N0N  00000480000000651300000871332CH    SJSAMIJF005500360039
BI00B32CH    SJ22093 MW     202208187283-7526-40             CONNECTOR HOUSING        CCN000001960000001960FN00000000020220901000001960NNM   20220705121435    4N0N  00000196000000989800001248632CH    SJSAMIJF005500360039
BI00B32CH    SJ22094 MW     202208257283-7526-40             CONNECTOR HOUSING        CCN000001960000001960FN00000000020220901000001960NNM   20220705121435    4N0N  00000196000000989800001248632CH    SJSAMIJF005500360039
BI00B32CH    SJ22092 MW     202208117327-6832-60             MAIN FUSE                CCN000008400000008400FN00000000020220901000008400NNM   20220705121435    4N0N  00000060000000729200000930732CH    SJSAMIJF005400370024
BI00B32CH    SJ22093 MW     202208187327-6832-60             MAIN FUSE                CCN000007200000007200FN00000000020220901000007200NNM   20220705121435    4N0N  00000060000000729200000930732CH    SJSAMIJF005400370024
BI00B32CH    SJ22094 MW     202208257327-6832-60             MAIN FUSE                CCN000010200000010200FN00000000020220901000010200NNM   20220705121435    4N0N  00000060000000729200000930732CH    SJSAMIJF005400370024
BI00B32CH    SJ22094 MW     202208257388-0315-40             CONNECTOR ASS'Y          CCN000003600000003600FN00000000020220901000003600NNM   20220705121435    4N0N  00000120000000999600001129632CH    SJSAMIJF005400370024
BI00B32CH    #SJ22092 MW    202208117116-4021                TERMINAL                 CCN000013500000013500FN00000000020220901000013500NNM   20220705121435    2F0P  00001350000000534600000868832CH    SJSAMIJF006400630015
BI00B32CH    #SJ22093 MW    202208187157-3950-80             SEAL RUBBER              CCN000040000000040000FN00000000020220901000040000NNM   20220705121435    2C0C  00004000000000154000000440332CH    SJSAMIJF002700430014
BI00B32CH    #SJ22092 MW    202208117158-3003-90             RUBBER STOPPER           CCN000060000000060000FN00000000020220901000060000NNM   20220705121435    2C0C  00002000000000250000000306032CH    SJSAMIJF002700430014
BI00B32CH    #SJ22093 MW    202208187158-3003-90             RUBBER STOPPER           CCN000120000000120000FN00000000020220901000120000NNM   20220705121435    2C0C  00002000000000250000000306032CH    SJSAMIJF002700430014
BI00B32CH    #SJ22094 MW    202208257158-3003-90             RUBBER STOPPER           CCN000100000000100000FN00000000020220901000100000NNM   20220705121435    2C0C  00002000000000250000000306032CH    SJSAMIJF002700430014
BI00B32CH    #SJ22091 MW    202208047158-3007-10             RUBBER STOPPER           CCN000020000000020000FN00000000020220901000020000NNM   20220705121435    2H0H  00002000000000308000000362732CH    SJSAMIJF002700430014
BI00B32CH    #SJ22092 MW    202208117158-3007-10             RUBBER STOPPER           CCN000040000000040000FN00000000020220901000040000NNM   20220705121435    2H0H  00002000000000308000000362732CH    SJSAMIJF002700430014
BI00B32CH    #SJ22093 MW    202208187158-3007-10             RUBBER STOPPER           CCN000040000000040000FN00000000020220901000040000NNM   20220705121435    2H0H  00002000000000308000000362732CH    SJSAMIJF002700430014
BI00B32CH    #SJ22094 MW    202208257158-3007-10             RUBBER STOPPER           CCN000040000000040000FN00000000020220901000040000NNM   20220705121435    2H0H  00002000000000308000000362732CH    SJSAMIJF002700430014
BI00B32CH    #SJ22091 MW    202208047158-3008-80             RUBBER STOPPER           CCN000020000000020000FN00000000020220901000020000NNM   20220705121435    2C0C  00002000000000288000000343032CH    SJSAMIJF004300270014
BI00B32CH    #SJ22092 MW    202208117158-3008-80             RUBBER STOPPER           CCN000020000000020000FN00000000020220901000020000NNM   20220705121435    2C0C  00002000000000288000000343032CH    SJSAMIJF004300270014
BI00B32CH    #SJ22094 MW    202208257158-3008-80             RUBBER STOPPER           CCN000020000000020000FN00000000020220901000020000NNM   20220705121435    2C0C  00002000000000288000000343032CH    SJSAMIJF004300270014
BI00B32CH    #SJ22092 MW    202208117158-3015-10             RUBBER STOPPER           CCN000020000000020000FN00000000020220901000020000NNM   20220705121435    2C0C  00001000000000419500000474032CH    SJSAMIJF002700430014
BI00B32CH    #SJ22093 MW    202208187158-3015-10             RUBBER STOPPER           CCN000010000000010000FN00000000020220901000010000NNM   20220705121435    2C0C  00001000000000419500000474032CH    SJSAMIJF002700430014
BI00B32CH    #SJ22094 MW    202208257158-3015-10             RUBBER STOPPER           CCN000020000000020000FN00000000020220901000020000NNM   20220705121435    2C0C  00001000000000419500000474032CH    SJSAMIJF002700430014
BI00B32CH    #SJ22092 MW    202208117183-1615                HOUSING                  CCN000004800000004800FN00000000020220901000004800NNM   20220705121435    2F0F  00000480000000757000001042032CH    SJSAMIJF005500360039
BI00B32CH    #SJ22093 MW    202208187183-1615                HOUSING                  CCN000004800000004800FN00000000020220901000004800NNM   20220705121435    2F0F  00000480000000757000001042032CH    SJSAMIJF005500360039
BI00B32CH    #SJ22094 MW    202208257183-1615                HOUSING                  CCN000004800000004800FN00000000020220901000004800NNM   20220705121435    2F0F  00000480000000757000001042032CH    SJSAMIJF005500360039
BI00B32CH    #SJ22092 MW    202208117183-2414                CONNECTOR HOUSING        CCN000024000000024000FN00000000020220901000024000NNM   20220705121435    2F0F  00000480000000779200001061032CH    SJSAMIJF005500360039
BI00B32CH    #SJ22093 MW    202208187183-2414                CONNECTOR HOUSING        CCN000038400000038400FN00000000020220901000038400NNM   20220705121435    2F0F  00000480000000779200001061032CH    SJSAMIJF005500360039
BI00B32CH    #SJ22094 MW    202208257183-2414                CONNECTOR HOUSING        CCN000038400000038400FN00000000020220901000038400NNM   20220705121435    2F0F  00000480000000779200001061032CH    SJSAMIJF005500360039
BI00B32CH    #SJ22091 MW    202208047183-2418                CONNECTOR HOUSING        CCN000004800000004800FN00000000020220901000004800NNM   20220705121435    2F0F  00000480000000917000001477032CH    SJSAMIJF005500360039
BI00B32CH    #SJ22092 MW    202208117183-2418                CONNECTOR HOUSING        CCN000004800000004800FN00000000020220901000004800NNM   20220705121435    2F0F  00000480000000917000001477032CH    SJSAMIJF005500360039
BI00B32CH    #SJ22094 MW    202208257183-2418                CONNECTOR HOUSING        CCN000004800000004800FN00000000020220901000004800NNM   20220705121435    2F0F  00000480000000917000001477032CH    SJSAMIJF005500360039
BI00B32CH    #SJ22092 MW    202208117187-8856                HOUSING FEMALE           CCN000002000000002000FN00000000020220901000002000NNM   20220705121435    2F0F  00000200000000820000000931532CH    SJSAMIJF005400370024
BI00B32CH    #SJ22093 MW    202208187187-8856                HOUSING FEMALE           CCN000010000000010000FN00000000020220901000010000NNM   20220705121435    2F0F  00000200000000820000000931532CH    SJSAMIJF005400370024
BI00B32CH    #SJ22094 MW    202208257187-8856                HOUSING FEMALE           CCN000028000000028000FN00000000020220901000028000NNM   20220705121435    2F0F  00000200000000820000000931532CH    SJSAMIJF005400370024
BI00B32CH    #SJ22092 MW    202208117198-1371-60             HOUSING FEMALE           CCN000008000000008000FN00000000020220901000008000NNM   20220705121435    2F0F  00000200000000597800000721232CH    SJSAMIJF005400370024
BI00B32CH    #SJ22093 MW    202208187198-1371-60             HOUSING FEMALE           CCN000010000000010000FN00000000020220901000010000NNM   20220705121435    2F0F  00000200000000597800000721232CH    SJSAMIJF005400370024
BI00B32CH    #SJ22094 MW    202208257198-1371-60             HOUSING FEMALE           CCN000014000000014000FN00000000020220901000014000NNM   20220705121435    2F0F  00000200000000597800000721232CH    SJSAMIJF005400370024
BI00B32CH    @SJ22091 MW    202208047123-2825                HOUSING                  CCN000024000000024000FN00000000020220901000024000NNM   20220705121435    3F0F  00000600000000958800001136432CH    SJSAMIJF005500360039
BI00B32CH    @SJ22092 MW    202208117123-2825                HOUSING                  CCN000018000000018000FN00000000020220901000018000NNM   20220705121435    3F0F  00000600000000958800001136432CH    SJSAMIJF005500360039
BI00B32CH    @SJ22093 MW    202208187123-2825                HOUSING                  CCN000012000000012000FN00000000020220901000012000NNM   20220705121435    3F0F  00000600000000958800001136432CH    SJSAMIJF005500360039
BI00B32CH    @SJ22094 MW    202208257123-2825                HOUSING                  CCN000012000000012000FN00000000020220901000012000NNM   20220705121435    3F0F  00000600000000958800001136432CH    SJSAMIJF005500360039
BI00B32CH    @SJ22093 MW    202208187282-1025                HOUSING SUB ASSEMBLY     CCN000002400000002400FN00000000020220901000002400NNM   20220705121435    3N0N  00000240000001143800001390032CH    SJSAMIJF005500360039
BI00B32CH    SJ22093DMW     202208187114-4624-02             TERMINAL                 CCN000024000000024000FN00000000020220901000024000NNM   20220705121435    4P0P  00002400000000895200001188832CH    SJSAMIJF006400630015
BI00B32CH    SJ22092DMW     202208117116-5751-02             TERMINAL                 CCN000036000000036000FN00000000020220901000036000NNM   20220705121435    4P0P  00001200000000379200000664432CH    SJSAMIJF006400630015
BI00B32CH    SJ22093DMW     202208187116-5751-02             TERMINAL                 CCN000012000000012000FN00000000020220901000012000NNM   20220705121435    4P0P  00001200000000379200000664432CH    SJSAMIJF006400630015
BI00B32CH    SJ22094DMW     202208257116-5751-02             TERMINAL                 CCN000024000000024000FN00000000020220901000024000NNM   20220705121435    4P0P  00001200000000379200000664432CH    SJSAMIJF006400630015
BI00B32CH    SJ22091DMW     202208047286-4097                CONNECTOR MALE ASS'Y     CCN000003200000003200FN00000000020220901000003200NNM   20220705121435    1N0N  00000160000000768000000978032CH    SJSAMIJF005500360039
BI00B32CH    SJ22092DMW     202208117286-4097                CONNECTOR MALE ASS'Y     CCN000001600000001600FN00000000020220901000001600NNM   20220705121435    1N0N  00000160000000768000000978032CH    SJSAMIJF005500360039
BI00B32CH    SJ22093DMW     202208187286-4097                CONNECTOR MALE ASS'Y     CCN000001600000001600FN00000000020220901000001600NNM   20220705121435    1N0N  00000160000000768000000978032CH    SJSAMIJF005500360039
BI00B32CH    SJ22094DMW     202208257286-4097                CONNECTOR MALE ASS'Y     CCN000001600000001600FN00000000020220901000001600NNM   20220705121435    1N0N  00000160000000768000000978032CH    SJSAMIJF005500360039
BI00B32CH    SJ22092DMW     202208117287-3885-30             HYBRID FEMALE ASS'Y      CCN000026400000026400FN00000000020220901000026400NNM   20220705121435    1N0N  00000240000001029600001249632CH    SJSAMIJF005500360039
BI00B32CH    SJ22093DMW     202208187287-3885-30             HYBRID FEMALE ASS'Y      CCN000031200000031200FN00000000020220901000031200NNM   20220705121435    1N0N  00000240000001029600001249632CH    SJSAMIJF005500360039
BI00B32CH    SJ22094DMW     202208257287-3885-30             HYBRID FEMALE ASS'Y      CCN000033600000033600FN00000000020220901000033600NNM   20220705121435    1N0N  00000240000001029600001249632CH    SJSAMIJF005500360039
BI00B32CH    #SJ22091DMW    202208047183-0522                HOUSING                  CCN000004800000004800FN00000000020220901000004800NNM   20220705121435    2F0F  00000240000000951000001230032CH    SJSAMIJF005500360039
BI00B32CH    #SJ22092DMW    202208117183-0522                HOUSING                  CCN000004800000004800FN00000000020220901000004800NNM   20220705121435    2F0F  00000240000000951000001230032CH    SJSAMIJF005500360039
BI00B32CH    #SJ22093DMW    202208187183-0522                HOUSING                  CCN000004800000004800FN00000000020220901000004800NNM   20220705121435    2F0F  00000240000000951000001230032CH    SJSAMIJF005500360039
BI00B32CH    #SJ22094DMW    202208257183-0522                HOUSING                  CCN000004800000004800FN00000000020220901000004800NNM   20220705121435    2F0F  00000240000000951000001230032CH    SJSAMIJF005500360039
BI00B32CH    #SJ22091DMW    202208047183-2413                CONNECTOR HOUSING        CCN000028800000028800FN00000000020220901000028800NNM   20220705121435    2F0F  00000480000000478100000760032CH    SJSAMIJF005500360039
BI00B32CH    #SJ22092DMW    202208117183-2413                CONNECTOR HOUSING        CCN000014400000014400FN00000000020220901000014400NNM   20220705121435    2F0F  00000480000000478100000760032CH    SJSAMIJF005500360039
BI00B32CH    #SJ22093DMW    202208187183-2413                CONNECTOR HOUSING        CCN000014400000014400FN00000000020220901000014400NNM   20220705121435    2F0F  00000480000000478100000760032CH    SJSAMIJF005500360039
BI00B32CH    #SJ22094DMW    202208257183-2413                CONNECTOR HOUSING        CCN000014400000014400FN00000000020220901000014400NNM   20220705121435    2F0F  00000480000000478100000760032CH    SJSAMIJF005500360039
BI00B32CH    #SJ22091DMW    202208047183-2415                CONNECTOR HOUSING        CCN000014400000014400FN00000000020220901000014400NNM   20220705121435    2F0F  00000480000000798200001091432CH    SJSAMIJF005500360039
BI00B32CH    #SJ22092DMW    202208117183-2415                CONNECTOR HOUSING        CCN000009600000009600FN00000000020220901000009600NNM   20220705121435    2F0F  00000480000000798200001091432CH    SJSAMIJF005500360039
BI00B32CH    #SJ22093DMW    202208187183-2415                CONNECTOR HOUSING        CCN000004800000004800FN00000000020220901000004800NNM   20220705121435    2F0F  00000480000000798200001091432CH    SJSAMIJF005500360039
BI00B32CH    #SJ22094DMW    202208257183-2415                CONNECTOR HOUSING        CCN000004800000004800FN00000000020220901000004800NNM   20220705121435    2F0F  00000480000000798200001091432CH    SJSAMIJF005500360039
BI00B32CH    #SJ22091DMW    202208047183-6320                HOUSING                  CCN000009600000009600FN00000000020220901000009600NNM   20220705121435    2F0F  00000480000000820800001103632CH    SJSAMIJF005500360039
BI00B32CH    #SJ22092DMW    202208117183-6320                HOUSING                  CCN000004800000004800FN00000000020220901000004800NNM   20220705121435    2F0F  00000480000000820800001103632CH    SJSAMIJF005500360039
BI00B32CH    #SJ22094DMW    202208257183-6320                HOUSING                  CCN000004800000004800FN00000000020220901000004800NNM   20220705121435    2F0F  00000480000000820800001103632CH    SJSAMIJF005500360039
BI00B32CH    #SJ22091DMW    202208047189-3031                HOUSING FEMALE           CCN000004800000004800FN00000000020220901000004800NNM   20220705121435    2F0F  00000240000000928800001365832CH    SJSAMIJF005500360039
BI00B32CH    #SJ22092DMW    202208117189-3031                HOUSING FEMALE           CCN000004800000004800FN00000000020220901000004800NNM   20220705121435    2F0F  00000240000000928800001365832CH    SJSAMIJF005500360039
BI00B32CH    #SJ22093DMW    202208187189-3031                HOUSING FEMALE           CCN000004800000004800FN00000000020220901000004800NNM   20220705121435    2F0F  00000240000000928800001365832CH    SJSAMIJF005500360039
BI00B32CH    #SJ22094DMW    202208257189-3031                HOUSING FEMALE           CCN000004800000004800FN00000000020220901000004800NNM   20220705121435    2F0F  00000240000000928800001365832CH    SJSAMIJF005500360039
BI00B32CH    #SJ22091DMW    202208047283-8730-30             HOUSING FEMALE ASS'Y     CCN000002000000002000FN00000000020220901000002000NNM   20220705121435    2N0N  00000200000000794000000906532CH    SJSAMIJF005400370024
BI00B32CH    #SJ22092DMW    202208117283-8730-30             HOUSING FEMALE ASS'Y     CCN000004000000004000FN00000000020220901000004000NNM   20220705121435    2N0N  00000200000000794000000906532CH    SJSAMIJF005400370024
BI00B32CH    #SJ22093DMW    202208187283-8730-30             HOUSING FEMALE ASS'Y     CCN000002000000002000FN00000000020220901000002000NNM   20220705121435    2N0N  00000200000000794000000906532CH    SJSAMIJF005400370024
BI00B32CH    #SJ22094DMW    202208257283-8730-30             HOUSING FEMALE ASS'Y     CCN000002000000002000FN00000000020220901000002000NNM   20220705121435    2N0N  00000200000000794000000906532CH    SJSAMIJF005400370024
BI00B32CH    #SJ22091DMW    202208047289-2912-30             HOUSING FEMALE ASS'Y     CCN000004000000004000FN00000000020220901000004000NNM   20220705121435    2N0N  00000200000000804000000929032CH    SJSAMIJF005400370024
BI00B32CH    #SJ22092DMW    202208117289-2912-30             HOUSING FEMALE ASS'Y     CCN000004000000004000FN00000000020220901000004000NNM   20220705121435    2N0N  00000200000000804000000929032CH    SJSAMIJF005400370024
BI00B32CH    #SJ22093DMW    202208187289-2912-30             HOUSING FEMALE ASS'Y     CCN000004000000004000FN00000000020220901000004000NNM   20220705121435    2N0N  00000200000000804000000929032CH    SJSAMIJF005400370024
BI00B32CH    #SJ22094DMW    202208257289-2912-30             HOUSING FEMALE ASS'Y     CCN000002000000002000FN00000000020220901000002000NNM   20220705121435    2N0N  00000200000000804000000929032CH    SJSAMIJF005400370024
BI00B32CH    #SJ22092DMW    202208117289-2913-30             HOUSING FEMALE ASS'Y     CCN000003000000003000FN00000000020220901000003000NNM   20220705121435    2N0N  00000150000000907500001034532CH    SJSAMIJF005400370024
BI00B32CH    #SJ22093DMW    202208187289-2913-30             HOUSING FEMALE ASS'Y     CCN000003000000003000FN00000000020220901000003000NNM   20220705121435    2N0N  00000150000000907500001034532CH    SJSAMIJF005400370024
BI00B32CH    #SJ22094DMW    202208257289-2913-30             HOUSING FEMALE ASS'Y     CCN000003000000003000FN00000000020220901000003000NNM   20220705121435    2N0N  00000150000000907500001034532CH    SJSAMIJF005400370024
BI00B32CH    #SJ22091DMW    202208047289-2918-40             HOUSING FEMALE ASS'Y     CCN000005000000005000FN00000000020220901000005000NNM   20220705121435    2N0N  00000100000001020000001147032CH    SJSAMIJF005400370024
BI00B32CH    #SJ22092DMW    202208117289-2918-40             HOUSING FEMALE ASS'Y     CCN000006000000006000FN00000000020220901000006000NNM   20220705121435    2N0N  00000100000001020000001147032CH    SJSAMIJF005400370024
BI00B32CH    #SJ22093DMW    202208187289-2918-40             HOUSING FEMALE ASS'Y     CCN000005000000005000FN00000000020220901000005000NNM   20220705121435    2N0N  00000100000001020000001147032CH    SJSAMIJF005400370024
BI00B32CH    #SJ22094DMW    202208257289-2918-40             HOUSING FEMALE ASS'Y     CCN000005000000005000FN00000000020220901000005000NNM   20220705121435    2N0N  00000100000001020000001147032CH    SJSAMIJF005400370024
BI00B32CH    SJ22092HMW     202208117B72-5540-80             SEALED WIRE SEAL         CCN000060000000060000FN00000000020220901000060000NNM   20220705121435    1C0C  00002000000000186000000234432CH    SJSAMIJF004300270014
BI00B32CH    SJ22093HMW     202208187B72-5540-80             SEALED WIRE SEAL         CCN000040000000040000FN00000000020220901000040000NNM   20220705121435    1C0C  00002000000000186000000234432CH    SJSAMIJF004300270014
BI00B32CH    SJ22094HMW     202208257B72-5540-80             SEALED WIRE SEAL         CCN000040000000040000FN00000000020220901000040000NNM   20220705121435    1C0C  00002000000000186000000234432CH    SJSAMIJF004300270014
BI00B32CH    SJ22092HMW     202208117B96-0805-02             TERMINAL FEMALE          CCN000045000000045000FN00000000020220901000045000NNM   20220705121435    4P0P  00002250000000558000000843232CH    SJSAMIJF006400630015
BI00B32CH    SJ22093HMW     202208187B96-0805-02             TERMINAL FEMALE          CCN000022500000022500FN00000000020220901000022500NNM   20220705121435    4P0P  00002250000000558000000843232CH    SJSAMIJF006400630015
BI00B32CH    SJ22094HMW     202208257B96-0805-02             TERMINAL FEMALE          CCN000067500000067500FN00000000020220901000067500NNM   20220705121435    4P0P  00002250000000558000000843232CH    SJSAMIJF006400630015
BI00B32CH    SJ22092HMW     202208117C89-6868-30             SEALED ASSY FEMALE       CCN000015120000015120FN00000000020220901000015120NNM   20220705121435    4N0N  00000252000000839200001119232CH    SJSAMIJF005500360039
BI00B32CH    SJ22093HMW     202208187C89-6868-30             SEALED ASSY FEMALE       CCN000017640000017640FN00000000020220901000017640NNM   20220705121435    4N0N  00000252000000839200001119232CH    SJSAMIJF005500360039
BI00B32CH    SJ22094HMW     202208257C89-6868-30             SEALED ASSY FEMALE       CCN000027720000027720FN00000000020220901000027720NNM   20220705121435    4N0N  00000252000000839200001119232CH    SJSAMIJF005500360039
BI00B32CH    SJ22092HMW     202208117298-3822-70             HOUSING FEMALE ASS'Y     CCN000001830000002520FN00000000020220901000002520NNM   20220705121435    4N0N  00000252000000776200001077032CH    SJSAMIJF005500360039
BI00B32CH    SJ22093HMW     202208187298-3822-70             HOUSING FEMALE ASS'Y     CCN000002460000002520FN00000000020220901000002520NNM   20220705121435    4N0N  00000252000000776200001077032CH    SJSAMIJF005500360039
BI00B32CH    SJ22094HMW     202208257298-3822-70             HOUSING FEMALE ASS'Y     CCN000002490000002520FN00000000020220901000002520NNM   20220705121435    4N0N  00000252000000776200001077032CH    SJSAMIJF005500360039
BI00B32CH    SJ22092HMW     202208117298-4094-10             HOUSING FEMALE ASS'Y     CCN000003380000003380FN00000000020220901000003380NNM   20220705121435    4N0N  00000338000001097400001358732CH    SJSAMIJF005400370024
BI00B32CH    SJ22093HMW     202208187298-4094-10             HOUSING FEMALE ASS'Y     CCN000003380000003380FN00000000020220901000003380NNM   20220705121435    4N0N  00000338000001097400001358732CH    SJSAMIJF005400370024
BI00B32CH    SJ22094HMW     202208257298-4094-10             HOUSING FEMALE ASS'Y     CCN000003380000003380FN00000000020220901000003380NNM   20220705121435    4N0N  00000338000001097400001358732CH    SJSAMIJF005400370024
BI00B32CH    SJ22091HMW     202208047298-5993-30             SEALED ASSY FEMALE       CCN000002184000002184FN00000000020220901000002184NNM   20220705121435    4N0N  00000218400000981500001290032CH    SJSAMIJF005500360039
BI00B32CH    SJ22092HMW     202208117298-5993-30             SEALED ASSY FEMALE       CCN000002184000002184FN00000000020220901000002184NNM   20220705121435    4N0N  00000218400000981500001290032CH    SJSAMIJF005500360039
BI00B32CH    SJ22093HMW     202208187298-5993-30             SEALED ASSY FEMALE       CCN000002184000002184FN00000000020220901000002184NNM   20220705121435    4N0N  00000218400000981500001290032CH    SJSAMIJF005500360039
BI00B32CH    SJ22094HMW     202208257298-5993-30             SEALED ASSY FEMALE       CCN000002184000002184FN00000000020220901000002184NNM   20220705121435    4N0N  00000218400000981500001290032CH    SJSAMIJF005500360039
BI00B32CH    SJ22094HMW     202208257327-6834-80             MAIN FUSE                CCN000001200000001200FN00000000020220901000001200NNM   20220705121435    4N0N  00000060000000736800000938332CH    SJSAMIJF005400370024
BI00B32CH    SJ22092HMW     202208117327-6870-30             MULTI FUSE               CCN000008928000008928FN00000000020220901000008928NNM   20220705121435    4N0N  00000028800001015200001181132CH    SJSAMIJF005400370024
BI00B32CH    SJ22093HMW     202208187327-6870-30             MULTI FUSE               CCN000008352000008352FN00000000020220901000008352NNM   20220705121435    4N0N  00000028800001015200001181132CH    SJSAMIJF005400370024
BI00B32CH    SJ22094HMW     202208257327-6870-30             MULTI FUSE               CCN000012096000012096FN00000000020220901000012096NNM   20220705121435    4N0N  00000028800001015200001181132CH    SJSAMIJF005400370024
BI00B32CH    SJ22094HMW     202208257327-6872-30             MULTI FUSE               CCN000001440000001440FN00000000020220901000001440NNM   20220705121435    4N0N  00000028800000984500001150432CH    SJSAMIJF005400370024
BI00B32CH    SJ22093HMW     202208187327-6874-30             MULTI FUSE               CCN000000864000000864FN00000000020220901000000864NNM   20220705121435    4N0N  00000028800000991400001157332CH    SJSAMIJF005400370024
BI00B32CH    SJ22094HMW     202208257327-6874-30             MULTI FUSE               CCN000006912000006912FN00000000020220901000006912NNM   20220705121435    4N0N  00000028800000991400001157332CH    SJSAMIJF005400370024
BI00B32CH    SJ22094HMW     202208257327-6876-30             MULTI FUSE               CCN000001440000001440FN00000000020220901000001440NNM   20220705121435    4N0N  00000028800001016400001182332CH    SJSAMIJF005400370024
BI00B32CH    SJ22094HMW     202208257327-6878-30             MULTI FUSE               CCN000001440000001440FN00000000020220901000001440NNM   20220705121435    4N0N  00000028800000989700001155632CH    SJSAMIJF005400370024
BI00B32CH    SJ22092HMW     202208117327-6880-30             MULTI FUSE               CCN000007776000007776FN00000000020220901000007776NNM   20220705121435    4N0N  00000028800001012600001178532CH    SJSAMIJF005400370024
BI00B32CH    SJ22093HMW     202208187327-6880-30             MULTI FUSE               CCN000006624000006624FN00000000020220901000006624NNM   20220705121435    4N0N  00000028800001012600001178532CH    SJSAMIJF005400370024
BI00B32CH    SJ22094HMW     202208257327-6880-30             MULTI FUSE               CCN000010368000010368FN00000000020220901000010368NNM   20220705121435    4N0N  00000028800001012600001178532CH    SJSAMIJF005400370024
BI00B32CH    SJ22094HMW     202208257327-6882-30             MULTI FUSE               CCN000001728000001728FN00000000020220901000001728NNM   20220705121435    4N0N  00000028800001015900001181832CH    SJSAMIJF005400370024
BI00B32CH    SJ22092HMW     202208117327-6884-30             MULTI FUSE               CCN000006624000006624FN00000000020220901000006624NNM   20220705121435    4N0N  00000028800000988900001154832CH    SJSAMIJF005400370024
BI00B32CH    SJ22093HMW     202208187327-6884-30             MULTI FUSE               CCN000007776000007776FN00000000020220901000007776NNM   20220705121435    4N0N  00000028800000988900001154832CH    SJSAMIJF005400370024
BI00B32CH    SJ22094HMW     202208257327-6884-30             MULTI FUSE               CCN000014112000014112FN00000000020220901000014112NNM   20220705121435    4N0N  00000028800000988900001154832CH    SJSAMIJF005400370024
BI00B32CH    SJ22092HMW     202208117327-6908                MAIN FUSE                CCN000000600000000600FN00000000020220901000000600NNM   20220705121435    4N0N  00000060000000730400000915432CH    SJSAMIJF005400370024
BI00B32CH    SJ22093HMW     202208187327-6908                MAIN FUSE                CCN000001800000001800FN00000000020220901000001800NNM   20220705121435    4N0N  00000060000000730400000915432CH    SJSAMIJF005400370024
BI00B32CH    SJ22094HMW     202208257327-6908                MAIN FUSE                CCN000001800000001800FN00000000020220901000001800NNM   20220705121435    4N0N  00000060000000730400000915432CH    SJSAMIJF005400370024
BI00B32CH    SJ22091HMW     202208047327-6937-30             MULTI FUSE               CCN000000864000000864FN00000000020220901000000864NNM   20220705121435    4N0N  00000028800001013600001179532CH    SJSAMIJF005400370024
BI00B32CH    SJ22092HMW     202208117327-6937-30             MULTI FUSE               CCN000000288000000288FN00000000020220901000000288NNM   20220705121435    4N0N  00000028800001013600001179532CH    SJSAMIJF005400370024
BI00B32CH    SJ22093HMW     202208187327-6937-30             MULTI FUSE               CCN000000576000000576FN00000000020220901000000576NNM   20220705121435    4N0N  00000028800001013600001179532CH    SJSAMIJF005400370024
BI00B32CH    SJ22094HMW     202208257327-6937-30             MULTI FUSE               CCN000000288000000288FN00000000020220901000000288NNM   20220705121435    4N0N  00000028800001013600001179532CH    SJSAMIJF005400370024
BI00B32CH    SJ22092HMW     202208117327-6939-30             MULTI FUSE               CCN000001440000001440FN00000000020220901000001440NNM   20220705121435    4N00  00000028800000992200001158132CH    SJSAMIJF005400370024
BI00B32CH    SJ22093HMW     202208187327-6939-30             MULTI FUSE               CCN000002880000002880FN00000000020220901000002880NNM   20220705121435    4N00  00000028800000992200001158132CH    SJSAMIJF005400370024
BI00B32CH    SJ22094HMW     202208257327-6939-30             MULTI FUSE               CCN000002592000002592FN00000000020220901000002592NNM   20220705121435    4N00  00000028800000992200001158132CH    SJSAMIJF005400370024
BI00B32CH    SJ22092HMW     202208117327-6941-30             MULTI FUSE               CCN000001152000001152FN00000000020220901000001152NNM   20220705121435    4N00  00000028800001014400001180332CH    SJSAMIJF005400370024
BI00B32CH    SJ22093HMW     202208187327-6941-30             MULTI FUSE               CCN000001728000001728FN00000000020220901000001728NNM   20220705121435    4N00  00000028800001014400001180332CH    SJSAMIJF005400370024
BI00B32CH    SJ22094HMW     202208257327-6941-30             MULTI FUSE               CCN000001440000001440FN00000000020220901000001440NNM   20220705121435    4N00  00000028800001014400001180332CH    SJSAMIJF005400370024
BI00B32CH    SJ22094HMW     202208257388-0313-30             CONNECTOR ASS'Y          CCN000010800000010800FN00000000020220901000010800NNM   20220705121435    4N0N  00000120000000995000001125032CH    SJSAMIJF005400370024
BI00B32CH    SJ22092HMW     202208117388-0317-60             CONNECTOR ASS'Y          CCN000001200000001200FN00000000020220901000001200NNM   20220705121435    4N0N  00000120000001034400001129332CH    SJSAMIJF005400370024
BI00B32CH    SJ22093HMW     202208187388-0317-60             CONNECTOR ASS'Y          CCN000008400000008400FN00000000020220901000008400NNM   20220705121435    4N0N  00000120000001034400001129332CH    SJSAMIJF005400370024
BI00B32CH    SJ22094HMW     202208257388-0317-60             CONNECTOR ASS'Y          CCN000009600000009600FN00000000020220901000009600NNM   20220705121435    4N0N  00000120000001034400001129332CH    SJSAMIJF005400370024
BI00B32CH    #SJ22092HMW    202208117198-1372                HOUSING FEMALE           CCN000006000000006000FN00000000020220901000006000NNM   20220705121435    2F0F  00000200000000857200000982232CH    SJSAMIJF005400370024
BI00B32CH    #SJ22093HMW    202208187198-1372                HOUSING FEMALE           CCN000008000000008000FN00000000020220901000008000NNM   20220705121435    2F0F  00000200000000857200000982232CH    SJSAMIJF005400370024
BI00B32CH    #SJ22094HMW    202208257198-1372                HOUSING FEMALE           CCN000014000000014000FN00000000020220901000014000NNM   20220705121435    2F0F  00000200000000857200000982232CH    SJSAMIJF005400370024
BI00B32CH    #SJ22092HMW    202208117198-1373-60             HOUSING FEMALE           CCN000006000000006000FN00000000020220901000006000NNM   20220705121435    2F0F  00000200000000819400000947432CH    SJSAMIJF005400370024
BI00B32CH    #SJ22093HMW    202208187198-1373-60             HOUSING FEMALE           CCN000008000000008000FN00000000020220901000008000NNM   20220705121435    2F0F  00000200000000819400000947432CH    SJSAMIJF005400370024
BI00B32CH    #SJ22094HMW    202208257198-1373-60             HOUSING FEMALE           CCN000014000000014000FN00000000020220901000014000NNM   20220705121435    2F0F  00000200000000819400000947432CH    SJSAMIJF005400370024
BI00B32CH    #SJ22092HMW    202208117198-2458                HOUSING FEMALE           CCN000008800000008800FN00000000020220901000008800NNM   20220705121435    2F0F  00000176000000869100001160532CH    SJSAMIJF005400370024
BI00B32CH    #SJ22093HMW    202208187198-2458                HOUSING FEMALE           CCN000008800000008800FN00000000020220901000008800NNM   20220705121435    2F0F  00000176000000869100001160532CH    SJSAMIJF005400370024
BI00B32CH    #SJ22094HMW    202208257198-2458                HOUSING FEMALE           CCN000014080000014080FN00000000020220901000014080NNM   20220705121435    2F0F  00000176000000869100001160532CH    SJSAMIJF005400370024
BI00B32CH    #SJ22092HMW    202208117298-2457-90             LIF FEMALE ASSEMBLY      CCN000001344000001344FN00000000020220901000001344NNM   20220705121435    2N0N  00000016800000533300000728932CH    SJSAMIJF005400370024
BI00B32CH    #SJ22093HMW    202208187298-2457-90             LIF FEMALE ASSEMBLY      CCN000002184000002184FN00000000020220901000002184NNM   20220705121435    2N0N  00000016800000533300000728932CH    SJSAMIJF005400370024
BI00B32CH    #SJ22094HMW    202208257298-2457-90             LIF FEMALE ASSEMBLY      CCN000002184000002184FN00000000020220901000002184NNM   20220705121435    2N0N  00000016800000533300000728932CH    SJSAMIJF005400370024
BI00B32CH    #SJ22092HMW    202208117298-2459-60             LIF FEMALE ASSEMBLY      CCN000007224000007224FN00000000020220901000007224NNM   20220705121435    2N0N  00000016800000534000000729632CH    SJSAMIJF005400370024
BI00B32CH    #SJ22093HMW    202208187298-2459-60             LIF FEMALE ASSEMBLY      CCN000006552000006552FN00000000020220901000006552NNM   20220705121435    2N0N  00000016800000534000000729632CH    SJSAMIJF005400370024
BI00B32CH    #SJ22094HMW    202208257298-2459-60             LIF FEMALE ASSEMBLY      CCN000011928000011928FN00000000020220901000011928NNM   20220705121435    2N0N  00000016800000534000000729632CH    SJSAMIJF005400370024
BI00B32CH    SJ22091MMW     202208047116-4115-02             TERMINAL                 CCN000008400000008400FN00000000020220901000008400NNM   20220705121435    4P0P  00000840000000593000000881232CH    SJSAMIJF006400630015
BI00B32CH    SJ22093MMW     202208187116-4115-02             TERMINAL                 CCN000008400000008400FN00000000020220901000008400NNM   20220705121435    4P0P  00000840000000593000000881232CH    SJSAMIJF006400630015
BI00B32CH    SJ22091MMW     202208047116-4116-02             TERMINAL                 CCN000006900000006900FN00000000020220901000006900NNM   20220705121435    4P0P  00000690000000517500000805732CH    SJSAMIJF006400630015
BI00B32CH    SJ22094MMW     202208257116-4116-02             TERMINAL                 CCN000006900000006900FN00000000020220901000006900NNM   20220705121435    4P0P  00000690000000517500000805732CH    SJSAMIJF006400630015
BI00B32CH    @SJ22091MMW    202208047183-8049                CONNECTOR HOUSING        CCN000004000000004000FN00000000020220901000004000NNM   20220705121435    3F0F  00000400000000583600000740032CH    SJSAMIJF005400370024
BI00B32CH    @SJ22094MMW    202208257183-8049                CONNECTOR HOUSING        CCN000004000000004000FN00000000020220901000004000NNM   20220705121435    3F0F  00000400000000583600000740032CH    SJSAMIJF005400370024
BI00B32CH    SJ22093SMW     202208187116-1230                TERMINAL                 CCN000013500000013500FN00000000020220901000013500NNM   20220705121435    4P0P  00001350000000664200000952432CH    SJSAMIJF006400630015
BI00B32CH    SJ22091SMW     202208047288-3340-30             HOUSING MALE             CCN000004500000004500FN00000000020220901000004500NNM   20220705121435    4N0N  00000150000000861500001006432CH    SJSAMIJF005400370024
BI00B32CH    SJ22092SMW     202208117288-3340-30             HOUSING MALE             CCN000009000000009000FN00000000020220901000009000NNM   20220705121435    4N0N  00000150000000861500001006432CH    SJSAMIJF005400370024
BI00B32CH    SJ22093SMW     202208187288-3340-30             HOUSING MALE             CCN000007500000007500FN00000000020220901000007500NNM   20220705121435    4N0N  00000150000000861500001006432CH    SJSAMIJF005400370024
BI00B32CH    SJ22094SMW     202208257288-3340-30             HOUSING MALE             CCN000009000000009000FN00000000020220901000009000NNM   20220705121435    4N0N  00000150000000861500001006432CH    SJSAMIJF005400370024
BI00B32CH    SJ22092SMW     202208117289-3342-30             HOUSING FEMALE ASS'Y     CCN000009600000009600FN00000000020220901000009600NNM   20220705121435    1N0N  00000240000000686400000901432CH    SJSAMIJF005500360039
BI00B32CH    SJ22093SMW     202208187289-3342-30             HOUSING FEMALE ASS'Y     CCN000009600000009600FN00000000020220901000009600NNM   20220705121435    1N0N  00000240000000686400000901432CH    SJSAMIJF005500360039
BI00B32CH    SJ22094SMW     202208257289-3342-30             HOUSING FEMALE ASS'Y     CCN000007200000007200FN00000000020220901000007200NNM   20220705121435    1N0N  00000240000000686400000901432CH    SJSAMIJF005500360039
BI00B32CH    #SJ22091SMW    202208047158-3120-90             CONNECTOR WIRE SEAL      CCN000080000000080000FN00000000020220901000080000NNM   20220705121435    2C0C  00002000000000136000000194032CH    SJSAMIJF002700430014
BI00B32CH    #SJ22092SMW    202208117158-3120-90             CONNECTOR WIRE SEAL      CCN000080000000080000FN00000000020220901000080000NNM   20220705121435    2C0C  00002000000000136000000194032CH    SJSAMIJF002700430014
BI00B32CH    #SJ22093SMW    202208187158-3120-90             CONNECTOR WIRE SEAL      CCN000080000000080000FN00000000020220901000080000NNM   20220705121435    2C0C  00002000000000136000000194032CH    SJSAMIJF002700430014
BI00B32CH    #SJ22094SMW    202208257158-3120-90             CONNECTOR WIRE SEAL      CCN000080000000080000FN00000000020220901000080000NNM   20220705121435    2C0C  00002000000000136000000194032CH    SJSAMIJF002700430014
BI00B32CH    #SJ22092SMW    202208117158-3121-80             WIRE SEAL                CCN000020000000020000FN00000000020220901000020000NNM   20220705121435    2C0C  00002000000000118000000187332CH    SJSAMIJF002700430014
BI00B32CH    #SJ22094SMW    202208257158-3121-80             WIRE SEAL                CCN000020000000020000FN00000000020220901000020000NNM   20220705121435    2C0C  00002000000000118000000187332CH    SJSAMIJF002700430014
BI00B32CH    #SJ22093SMW    202208187189-3032                HOUSING FEMALE           CCN000001600000001600FN00000000020220901000001600NNM   20220705121435    2F0F  00000160000000788400001018432CH    SJSAMIJF005500360039
BI00B32CH    #SJ22093SMW    202208187289-2915-30             HOUSING FEMALE ASS'Y     CCN000001500000001500FN00000000020220901000001500NNM   20220705121435    2N0N  00000150000000964500001091532CH    SJSAMIJF005400370024
BI00B32CH    @SJ22092SMW    202208117183-7770-40             HOUSING                  CCN000006000000006000FN00000000020220901000006000NNM   20220705121435    3F0F  00000600000001011000001161032CH    SJSAMIJF005400370024
BI00B32CJ    JQN2092        202208197017-1181-02             TERMINAL                 CCN000063000000063000FN00000000020220901000063000NNM   20220705152000    4P0P  00006300000001089900001266832CJ    QNYHVQN 005100280028
BI00B32CJ    JQN2094        202209027017-1181-02             TERMINAL                 CCN000063000000063000FN00000000020220901000063000NNM   20220705152000    4P0P  00006300000001089900001266832CJ    QNYHVQN 005100280028
BI00B32CJ    JQN2091        202208117017-1182-02             TERMINAL                 CCN000045000000045000FN00000000020220901000045000NNM   20220705152000    4P0P  00004500000001165500001318632CJ    QNYHVQN 005100280028
BI00B32CJ    JQN2093        202208267017-1182-02             TERMINAL                 CCN000045000000045000FN00000000020220901000045000NNM   20220705152000    4P0P  00004500000001165500001318632CJ    QNYHVQN 005100280028
BI00B32CJ    JQN2094        202209027017-1182-02             TERMINAL                 CCN000045000000045000FN00000000020220901000045000NNM   20220705152000    4P0P  00004500000001165500001318632CJ    QNYHVQN 005100280028
BI00B32CJ    JQN2092        202208197017-1183-02             TERMINAL                 CCN000027000000027000FN00000000020220901000027000NNM   20220705152000    4P0P  00002700000001139400001307432CJ    QNYHVQN 005100280028
BI00B32CJ    JQN2093        202208267017-1183-02             TERMINAL                 CCN000027000000027000FN00000000020220901000027000NNM   20220705152000    4P0P  00002700000001139400001307432CJ    QNYHVQN 005100280028
BI00B32CJ    JQN2092        202208197114-4020                TERMINAL                 CCN000021000000021000FN00000000020220901000021000NNM   20220705152000    4P0P  00002100000000875700001169332CJ    QNYHVQN 006400630015
BI00B32CJ    JQN2093        202208267114-4020                TERMINAL                 CCN000084000000084000FN00000000020220901000084000NNM   20220705152000    4P0P  00002100000000875700001169332CJ    QNYHVQN 006400630015
BI00B32CJ    JQN2094        202209027114-4020                TERMINAL                 CCN000084000000084000FN00000000020220901000084000NNM   20220705152000    4P0P  00002100000000875700001169332CJ    QNYHVQN 006400630015
BI00B32CJ    JQN2091        202208117114-4021                TERMINAL                 CCN000015000000015000FN00000000020220901000015000NNM   20220705152000    4P0P  00001500000000670500000964132CJ    QNYHVQN 006400630015
BI00B32CJ    JQN2092        202208197114-4021                TERMINAL                 CCN000030000000030000FN00000000020220901000030000NNM   20220705152000    4P0P  00001500000000670500000964132CJ    QNYHVQN 006400630015
BI00B32CJ    JQN2093        202208267114-4021                TERMINAL                 CCN000015000000015000FN00000000020220901000015000NNM   20220705152000    4P0P  00001500000000670500000964132CJ    QNYHVQN 006400630015
BI00B32CJ    JQN2094        202209027114-4021                TERMINAL                 CCN000015000000015000FN00000000020220901000015000NNM   20220705152000    4P0P  00001500000000670500000964132CJ    QNYHVQN 006400630015
BI00B32CJ    JQN2091        202208117114-4032                TERMINAL                 CCN000007500000007500FN00000000020220901000007500NNM   20220705152000    4P0P  00000750000000735000001063632CJ    QNYHVQN 006400630017
BI00B32CJ    JQN2092        202208197114-4032                TERMINAL                 CCN000007500000007500FN00000000020220901000007500NNM   20220705152000    4P0P  00000750000000735000001063632CJ    QNYHVQN 006400630017
BI00B32CJ    JQN2094        202209027114-4032                TERMINAL                 CCN000007500000007500FN00000000020220901000007500NNM   20220705152000    4P0P  00000750000000735000001063632CJ    QNYHVQN 006400630017
BI00B32CJ    JQN2091        202208117114-4231-02             TERMINAL                 CCN000072000000072000FN00000000020220901000072000NNM   20220705152000    4P0P  00001800000000554400000848032CJ    QNYHVQN 006400630015
