AE00TO202208300430/08/202200000000600000000000000006280KGM  00000006573KGM  18000004530              AV 8 B                   AV 8 B                   0         0         0         0    0    0    00000000000006000000000213300001279800
AE00TO202208300430/08/202200000000100000000000000001047KGM  00000001096KGM  18000004540              AV 8 W                   AV 8 W                   0         0         0         0    0    0    00000000000001000000000213300000213300
AE00TO202208300430/08/202200000002700000000000000028259KGM  00000029579KGM  18000004550              AV 8 R                   AV 8 R                   0         0         0         0    0    0    00000000000027000000000213300005759100
AE00TO202208300430/08/202200000002400000000000000025119KGM  00000026293KGM  18000004560              AV 8 G                   AV 8 G                   0         0         0         0    0    0    00000000000024000000000213300005119200
AE00TO202208300430/08/202200000000100000000000000001047KGM  00000001096KGM  18000004590              AV 8 L                   AV 8 L                   0         0         0         0    0    0    00000000000001000000000213300000213300
AE00TO202208300430/08/202200000000100000000000000000903KGM  00000000952KGM  18001403960              AV 05F G                 AV 05F G                 0         0         0         0    0    0    00000000000010000000000017200000172000
AE00TO202208300430/08/202200000000200000000000000001806KGM  00000001904KGM  18001403964              AV 05F G/W               AV 05F G/W               0         0         0         0    0    0    00000000000020000000000017200000344000
AE00TO202208300430/08/202200000001100000000000000010912KGM  00000011450KGM  18007703740              AVSS 03F W               AVSS 03F W               0         0         0         0    0    0    00000000000220000000000011800002596000
AE00TO202208300430/08/202200000000400000000000000003968KGM  00000004164KGM  18007703750              AVSS 03F R               AVSS 03F R               0         0         0         0    0    0    00000000000080000000000011800000944000
AE00TO202208300430/08/202200000002200000000000000021824KGM  00000022900KGM  18007703752              AVSS 03F P               AVSS 03F P               0         0         0         0    0    0    00000000000440000000000011800005192000
AE00TO202208300430/08/202200000000500000000000000004960KGM  00000005205KGM  18007703760              AVSS 03F G               AVSS 03F G               0         0         0         0    0    0    00000000000100000000000011800001180000
AE00TO202208300430/08/202200000000200000000000000001984KGM  00000002082KGM  18007703790              AVSS 03F L               AVSS 03F L               0         0         0         0    0    0    00000000000040000000000011800000472000
AE00TO202208300430/08/202200000000100000000000000000992KGM  00000001041KGM  18007703791              AVSS 03F SB              AVSS 03F SB              0         0         0         0    0    0    00000000000020000000000011800000236000
AE00TO202208300430/08/202200000002200000000000000021824KGM  00000022899KGM  18007703792              AVSS 03F V               AVSS 03F V               0         0         0         0    0    0    00000000000440000000000011800005192000
AE00TO202208300430/08/202200000000500000000000000005055KGM  00000005299KGM  18007703900              AVSS 05F P/W             AVSS 05F P/W             0         0         0         0    0    0    00000000000075000000000015800001185000
AE00TO202208300430/08/202200000001900000000000000019209KGM  00000020138KGM  18007703930              AVSS 05F B               AVSS 05F B               0         0         0         0    0    0    00000000000285000000000015800004503000
AE00TO202208300430/08/202200000002300000000000000023253KGM  00000024378KGM  18007703940              AVSS 05F W               AVSS 05F W               0         0         0         0    0    0    00000000000345000000000015800005451000
AE00TO202208300430/08/202200000000100000000000000001011KGM  00000001060KGM  18007703943              AVSS 05F W/B             AVSS 05F W/B             0         0         0         0    0    0    00000000000015000000000015800000237000
AE00TO202208300430/08/202200000000300000000000000003033KGM  00000003180KGM  18007703945              AVSS 05F W/R             AVSS 05F W/R             0         0         0         0    0    0    00000000000045000000000015800000711000
AE00TO202208300430/08/202200000000200000000000000002022KGM  00000002120KGM  18007703950              AVSS 05F R               AVSS 05F R               0         0         0         0    0    0    00000000000030000000000015800000474000
AE00TO202208300430/08/202200000000800000000000000008088KGM  00000008479KGM  18007703952              AVSS 05F P               AVSS 05F P               0         0         0         0    0    0    00000000000120000000000015800001896000
AE00TO202208300430/08/202200000000100000000000000001011KGM  00000001060KGM  18007703970              AVSS 05F Y               AVSS 05F Y               0         0         0         0    0    0    00000000000015000000000015800000237000
AE00TO202208300430/08/202200000000900000000000000009099KGM  00000009539KGM  18007703990              AVSS 05F L               AVSS 05F L               0         0         0         0    0    0    00000000000135000000000015800002133000
AE00TO202208300430/08/202200000000100000000000000001011KGM  00000001060KGM  18007703991              AVSS 05F SB              AVSS 05F SB              0         0         0         0    0    0    00000000000015000000000015800000237000
AE00TO202208300430/08/202200000000100000000000000001063KGM  00000001112KGM  18007704237              AVSS 2F B/Y              AVSS 2F B/Y              0         0         0         0    0    0    00000000000005000000000051100000255500
AE00TO202208300430/08/202200000000100000000000000000807KGM  00000000856KGM  18018103964              AVS 05F G/W              AVS 05F G/W              0         0         0         0    0    0    00000000000010000000000016400000164000
AE00TO202208300430/08/202200000000100000000000000000807KGM  00000000856KGM  18018103994              AVS 05F L/W              AVS 05F L/W              0         0         0         0    0    0    00000000000010000000000016400000164000
AE00TO202208300430/08/202200000000200000000000000001884KGM  00000001982KGM  18018403730              CAVS 03 B                CAVS 03 B                0         0         0         0    0    0    00000000000040000000000010400000416000
AE00TO202208300430/08/202200000000100000000000000001016KGM  00000001064KGM  18018403930              CAVS 05 B                CAVS 05 B                0         0         0         0    0    0    00000000000015000000000015200000228000
AE00TO202208300430/08/202200000002100000000000000021326KGM  00000022352KGM  18018403950              CAVS 05 R                CAVS 05 R                0         0         0         0    0    0    00000000000315000000000015200004788000
AE00TO202208300430/08/202200000000200000000000000002031KGM  00000002129KGM  18018403952              CAVS 05 P                CAVS 05 P                0         0         0         0    0    0    00000000000030000000000015200000456000
AE00TO202208300430/08/202200000001600000000000000016248KGM  00000017030KGM  18018403960              CAVS 05 G                CAVS 05 G                0         0         0         0    0    0    00000000000240000000000015200003648000
AE00TO202208300430/08/202200000000100000000000000001016KGM  00000001064KGM  18018403961              CAVS 05 LG               CAVS 05 LG               0         0         0         0    0    0    00000000000015000000000015200000228000
AE00TO202208300430/08/202200000002900000000000000029450KGM  00000030867KGM  18018403970              CAVS 05 Y                CAVS 05 Y                0         0         0         0    0    0    00000000000435000000000015200006612000
AE00TO202208300430/08/202200000001700000000000000017264KGM  00000018095KGM  18018403980              CAVS 05 BR               CAVS 05 BR               0         0         0         0    0    0    00000000000255000000000015200003876000
AE00TO202208300430/08/202200000000900000000000000009140KGM  00000009579KGM  18018403990              CAVS 05 L                CAVS 05 L                0         0         0         0    0    0    00000000000135000000000015200002052000
AE00TO202208300430/08/202200000000300000000000000003047KGM  00000003193KGM  18018403992              CAVS 05 V                CAVS 05 V                0         0         0         0    0    0    00000000000045000000000015200000684000
AE00TO202208300430/08/202200000004500000000000000043425KGM  00000045625KGM  18018404040              CAVS 085 W               CAVS 085 W               0         0         0         0    0    0    00000000000450000000000022900010305000
AE00TO202208300430/08/202200000003200000000000000030880KGM  00000032445KGM  18018404050              CAVS 085 R               CAVS 085 R               0         0         0         0    0    0    00000000000320000000000022900007328000
AE00TO202208300430/08/202200000000900000000000000008685KGM  00000009125KGM  18018404052              CAVS 085 P               CAVS 085 P               0         0         0         0    0    0    00000000000090000000000022900002061000
AE00TO202208300430/08/202200000004800000000000000046320KGM  00000048667KGM  18018404070              CAVS 085 Y               CAVS 085 Y               0         0         0         0    0    0    00000000000480000000000022900010992000
AE00TO202208300430/08/202200000000100000000000000000965KGM  00000001014KGM  18018404091              CAVS 085 SB              CAVS 085 SB              0         0         0         0    0    0    00000000000010000000000022900000229000
AE00TO202208300430/08/202200000000100000000000000001102KGM  00000001151KGM  18018404137              CAVS 125 B/Y             CAVS 125 B/Y             0         0         0         0    0    0    00000000000008000000000032700000261600
AE00TO202208300430/08/202200000000200000000000000002310KGM  00000002408KGM  1801R703970              CIVUS 05 Y               CIVUS 05 Y               0         0         0         0    0    0    00000000000044000000000013600000598400
AE00TO202208300430/08/202200000000500000000000000005790KGM  00000006035KGM  1801R706930              CIVUS 035 B              CIVUS 035 B              0         0         0         0    0    0    00000000000150000000000009700001455000
AE00TO202208300430/08/202200000000300000000000000003474KGM  00000003621KGM  1801R706980              CIVUS 035 BR             CIVUS 035 BR             0         0         0         0    0    0    00000000000090000000000009700000873000
AE00TO202208300430/08/202200000000500000000000000005790KGM  00000006034KGM  1801R706990              CIVUS 035 L              CIVUS 035 L              0         0         0         0    0    0    00000000000150000000000009700001455000
AE00TO202208300430/08/202200000000100000000000000001125KGM  00000001174KGM  1801W003930              IVSSH 05F B              IVSSH 05F B              0         0         0         0    0    0    00000000000018000000000015600000280800
AE00TO202208300430/08/202200000000300000000000000003375KGM  00000003522KGM  1801W003940              IVSSH 05F W              IVSSH 05F W              0         0         0         0    0    0    00000000000054000000000015600000842400
AE00TO202208300430/08/202200000000600000000000000006750KGM  00000007044KGM  1801W003943              IVSSH 05F W/B            IVSSH 05F W/B            0         0         0         0    0    0    00000000000108000000000015600001684800
AE00TO202208300430/08/202200000004100000000000000046125KGM  00000048129KGM  1801W003952              IVSSH 05F P              IVSSH 05F P              0         0         0         0    0    0    00000000000738000000000015600011512800
AE00TO202208300430/08/202200000000100000000000000001125KGM  00000001174KGM  1801W003970              IVSSH 05F Y              IVSSH 05F Y              0         0         0         0    0    0    00000000000018000000000015600000280800
AE00TO202208300430/08/202200000000200000000000000002250KGM  00000002348KGM  1801W003990              IVSSH 05F L              IVSSH 05F L              0         0         0         0    0    0    00000000000036000000000015600000561600
AE00TO202208300430/08/202200000001300000000000000014625KGM  00000015261KGM  1801W003992              IVSSH 05F V              IVSSH 05F V              0         0         0         0    0    0    00000000000234000000000015600003650400
AE00TO202208300430/08/202200000005200000000000000058760KGM  00000061303KGM  1801W006930              IVSSH 035F B             IVSSH 035F B             0         0         0         0    0    0    00000000001300000000000011500014950000
AE00TO202208300430/08/202200000000100000000000000001130KGM  00000001179KGM  1801W006941              IVSSH 035F GY            IVSSH 035F GY            0         0         0         0    0    0    00000000000025000000000011500000287500
AE00TO202208300430/08/202200000000600000000000000006780KGM  00000007074KGM  1801W006952              IVSSH 035F P             IVSSH 035F P             0         0         0         0    0    0    00000000000150000000000011500001725000
AE00TO202208300430/08/202200000001300000000000000014690KGM  00000015326KGM  1801W006961              IVSSH 035F LG            IVSSH 035F LG            0         0         0         0    0    0    00000000000325000000000011500003737500
AE00TO202208300430/08/202200000000300000000000000003390KGM  00000003537KGM  1801W006970              IVSSH 035F Y             IVSSH 035F Y             0         0         0         0    0    0    00000000000075000000000011500000862500
AE00TO202208300430/08/202200000000100000000000000001130KGM  00000001179KGM  1801W006980              IVSSH 035F BR            IVSSH 035F BR            0         0         0         0    0    0    00000000000025000000000011500000287500
AE00TO202208300430/08/202200000000300000000000000003390KGM  00000003537KGM  1801W006991              IVSSH 035F SB            IVSSH 035F SB            0         0         0         0    0    0    00000000000075000000000011500000862500
AE00TO202208300430/08/202200000000100000000000000001130KGM  00000001179KGM  1801W006992              IVSSH 035F V             IVSSH 035F V             0         0         0         0    0    0    00000000000025000000000011500000287500
AE00TO202208300430/08/202200000000200000000000000002067KGM  00000002165KGM  180D0203935              AVSSH 05F B/R            AVSSH 05F B/R            0         0         0         0    0    0    00000000000030000000000016500000495000
AE00TO202208300430/08/202200000000800000000000000008268KGM  00000008659KGM  180D0203950              AVSSH 05F R              AVSSH 05F R              0         0         0         0    0    0    00000000000120000000000016500001980000
AE00TO202208300430/08/202200000000900000000000000009302KGM  00000009742KGM  180D0203952              AVSSH 05F P              AVSSH 05F P              0         0         0         0    0    0    00000000000135000000000016500002227500
AE00TO202208300430/08/202200000000200000000000000002067KGM  00000002165KGM  180D0203953              AVSSH 05F R/B            AVSSH 05F R/B            0         0         0         0    0    0    00000000000030000000000016500000495000
AE00TO202208300430/08/202200000000100000000000000001034KGM  00000001082KGM  180D0203957              AVSSH 05F R/Y            AVSSH 05F R/Y            0         0         0         0    0    0    00000000000015000000000016500000247500
AE00TO202208300430/08/202200000000500000000000000005168KGM  00000005412KGM  180D0203961              AVSSH 05F LG             AVSSH 05F LG             0         0         0         0    0    0    00000000000075000000000016500001237500
AE00TO202208300430/08/202200000000600000000000000006201KGM  00000006494KGM  180D0203980              AVSSH 05F BR             AVSSH 05F BR             0         0         0         0    0    0    00000000000090000000000016500001485000
AE00TO202208300430/08/202200000000400000000000000004134KGM  00000004330KGM  180D0203990              AVSSH 05F L              AVSSH 05F L              0         0         0         0    0    0    00000000000060000000000016500000990000
AE00TO202208300430/08/202200000000300000000000000003101KGM  00000003247KGM  180D0203992              AVSSH 05F V              AVSSH 05F V              0         0         0         0    0    0    00000000000045000000000016500000742500
AE00TO202208300430/08/202200000000400000000000000004134KGM  00000004330KGM  180D0203994              AVSSH 05F L/W            AVSSH 05F L/W            0         0         0         0    0    0    00000000000060000000000016500000990000
AE00TO202208300430/08/202200000000100000000000000001034KGM  00000001082KGM  180D0203997              AVSSH 05F L/Y            AVSSH 05F L/Y            0         0         0         0    0    0    00000000000015000000000016500000247500
AE00TO202208300430/08/202200000005100000000000000059486KGM  00000061979KGM  180D0204140              AVSSH 125F W             AVSSH 125F W             0         0         0         0    0    0    00000000000408000000000036000014688000
AE00TO202208300430/08/202200000003100000000000000036158KGM  00000037674KGM  180D0204143              AVSSH 125F W/B           AVSSH 125F W/B           0         0         0         0    0    0    00000000000248000000000036000008928000
AE00TO202208300430/08/202200000000500000000000000005832KGM  00000006076KGM  180D0204149              AVSSH 125F W/L           AVSSH 125F W/L           0         0         0         0    0    0    00000000000040000000000036000001440000
AE00TO202208300430/08/202200000000100000000000000001166KGM  00000001215KGM  180D0204153              AVSSH 125F R/B           AVSSH 125F R/B           0         0         0         0    0    0    00000000000008000000000036000000288000
AE00TO202208300430/08/202200000000200000000000000002333KGM  00000002431KGM  180D0204190              AVSSH 125F L             AVSSH 125F L             0         0         0         0    0    0    00000000000016000000000036000000576000
AE00TO202208300430/08/202200000007600000000000000058608KGM  00000062324KGM  181AD2002ZZ              CIVUSAS-S 035X2 B        CIVUSAS-S 035X2 B        0         0         0         0    0    0    00000000000342000000000044000015048000
AE00TO202208300430/08/202200000001300000000000000009883KGM  00000010519KGM  181AD2003ZZ              CIVUSAS-S 035X3 B        CIVUSAS-S 035X3 B        0         0         0         0    0    0    00000000000045500000000055700002534350
AE00TO202208300430/08/202200000004800000000000000040319KGM  00000042665KGM  181AD2004ZZ              CIVUSAS-S 035X4 B        CIVUSAS-S 035X4 B        0         0         0         0    0    0    00000000000144000000000067100009662400
AE00TO202208300430/08/202200000002000000000000000016224KGM  00000017202KGM  181AD2008ZZ              CIVUSAS-S 05X2 B         CIVUSAS-S 05X2 B         0         0         0         0    0    0    00000000000080000000000051700004136000
AE00TO202208300430/08/202200000000100000000000000000815KGM  00000000864KGM  181AD2009ZZ              CIVUSAS-S 05X3 B         CIVUSAS-S 05X3 B         0         0         0         0    0    0    00000000000003000000000067300000201900
AE00TO202208300430/08/202200000001100000000000000008484KGM  00000009022KGM  181AD2021ZZ              CIVUSAS-S 035X2 B(L,GY)  CIVUSAS-S 035X2 B(L,GY)  0         0         0         0    0    0    00000000000049500000000044000002178000
AE00TO202208300430/08/202200000000600000000000000005378KGM  00000005672KGM  181B32103S1              AVSSCS 05FX3 DGY         AVSSCS 05FX3 DGY         0         0         0         0    0    0    00000000000015000000000097000001455000
AE00TO202208300430/08/202200000000200000000000000001593KGM  00000001691KGM  181B32116Y8              AVSSCS 03FX2 DGY/R       AVSSCS 03FX2 DGY/R       0         0         0         0    0    0    00000000000007000000000061200000428400
AE00TO202208300430/08/202200000000100000000000000000797KGM  00000000845KGM  181B32116Y9              AVSSCS 03FX2 DGY/P       AVSSCS 03FX2 DGY/P       0         0         0         0    0    0    00000000000003500000000061200000214200
AE00TO202208300430/08/202200000000500000000000000003983KGM  00000004227KGM  181B32116Z5              AVSSCS 03FX2 DGY/L       AVSSCS 03FX2 DGY/L       0         0         0         0    0    0    00000000000017500000000061200001071000
AE00TO202208300430/08/202200000002700000000000000019319KGM  00000020638KGM  181D6910230              AVSSHCS 05FX2 B          AVSSHCS 05FX2 B          0         0         0         0    0    0    00000000000081000000000080200006496200
AE00TO202208300430/08/202200000000500000000000000003578KGM  00000003822KGM  181D6910235              AVSSHCS 05FX2 B/R        AVSSHCS 05FX2 B/R        0         0         0         0    0    0    00000000000015000000000080200001203000
AE00TO202208300430/08/202200000001400000000000000010017KGM  00000010701KGM  181D6910239              AVSSHCS 05FX2 B/L        AVSSHCS 05FX2 B/L        0         0         0         0    0    0    00000000000042000000000080200003368400
AE00TO202208300430/08/202200000000200000000000000001528KGM  00000001626KGM  181E50007ZZ              AVSSCS-S 05FX1 DGY/L     AVSSCS-S 05FX1 DGY/L     0         0         0         0    0    0    00000000000008000000000050700000405600
AE00TO202208300430/08/202200000001300000000000000010611KGM  00000011247KGM  181E50027ZZ              AVSSCS-S 05FX3 DGY/G     AVSSCS-S 05FX3 DGY/G     0         0         0         0    0    0    00000000000032500000000092000002990000
AE00TO202208300430/08/202200000000300000000000000002278KGM  00000002425KGM  181F21011ZZ              AVSSHCS-S 05FX2 B/R      AVSSHCS-S 05FX2 B/R      0         0         0         0    0    0    00000000000009000000000074200000667800
AE00TO202208300430/08/202200000001400000000000000010632KGM  00000011316KGM  181F21013ZZ              AVSSHCS-S 05FX2 B/Y      AVSSHCS-S 05FX2 B/Y      0         0         0         0    0    0    00000000000042000000000074200003116400
AE00TO202208300430/08/202200000001600000000000000012151KGM  00000012933KGM  181F21014ZZ              AVSSHCS-S 05FX2 B/L      AVSSHCS-S 05FX2 B/L      0         0         0         0    0    0    00000000000048000000000074200003561600
AE00TO202208300430/08/202200000002000000000000000015189KGM  00000016167KGM  181F21015ZZ              AVSSHCS-S 05FX2 B/P      AVSSHCS-S 05FX2 B/P      0         0         0         0    0    0    00000000000060000000000074200004452000
