AE00TI102208300130/08/202200000000900000000000000007810KGM  00000009610KGM  7173-3291-40             LIF LEVER                7173329140               0         0         0         0    0    0    00002160000000240000000142000030672000
AE00TI102208300130/08/202200000000300000000000000002750KGM  00000003410KGM  7283-4577                CONNECTOR HOUSING        72834577                 0         0         0         0    0    0    00001440000000480000000172000024768000
AE00TI102208300130/08/202200000000300000000000000003701KGM  00000004337KGM  7287-7599-40             HOUSING FEMALE ASS'Y     7287759940               0         0         0         0    0    0    00000480000000160000000367000017616000
AE00TI102208300130/08/202200000000100000000000000000894KGM  00000001185KGM  7287-9234                JOINT CONNECTOR          72879234                 0         0         0         0    0    0    00000960000000960000000137000013152000
AE00TI102208300130/08/202200000000400000000000000003468KGM  00000004048KGM  7288-3335-30             HOUSING MALE             7288333530               0         0         0         0    0    0    00000600000000150000000354000021240000
AE00TI102208300130/08/202200000000400000000000000003468KGM  00000004048KGM  7288-3337-30             HOUSING MALE             7288333730               0         0         0         0    0    0    00000600000000150000000354000021240000
AE00TI102208300130/08/202200000000100000000000000000867KGM  00000001012KGM  7288-3339-30             HOUSING MALE             7288333930               0         0         0         0    0    0    00000150000000150000000354000005310000
AE00TI102208300130/08/202200000007900000000000000065191KGM  00000081781KGM  7288-5000                HOUSING MALE ASS'Y       72885000                 0         0         0         0    0    0    00002654400000033600000895000237568800
AE00TI102208300130/08/202200000000200000000000000002148KGM  00000002858KGM  7288-6598-70             HOUSING MALE ASS'Y       7288659870               0         0         0         0    0    0    00000288000000144000000911000026236800
AE00TI102208300130/08/202200000000400000000000000002746KGM  00000003606KGM  7289-3342                HOUSING FEMALE ASS'Y     72893342                 0         0         0         0    0    0    00000960000000240000000186000017856000
AE00TI102208300130/08/202200000002200000000000000015101KGM  00000019831KGM  7289-3342-30             HOUSING FEMALE ASS'Y     7289334230               0         0         0         0    0    0    00005280000000240000000191000100848000
AE00TI102208300130/08/202200000000800000000000000006634KGM  00000008394KGM  7289-6518-30             HOUSING FEMALE ASS'Y     7289651830               0         0         0         0    0    0    00000960000000120000000598000057408000
AE00TI102208300130/08/202200000000100000000000000001241KGM  00000001406KGM  7298-1853-10             HOUSING FEMALE ASS'Y     7298185310               0         0         0         0    0    0    00000390000000390000000186000007254000
AE00TI102208300130/08/202200000000800000000000000008026KGM  00000009636KGM  7298-1865-30             HOUSING FEMALE ASS'Y     7298186530               0         0         0         0    0    0    00001920000000240000000196000037632000
AE00TI102208300130/08/202200000000300000000000000003275KGM  00000003886KGM  7298-2278-30             HOUSING FEMALE ASS'Y     7298227830               0         0         0         0    0    0    00000720000000240000000227000016344000
AE00TI102208300130/08/202200000000200000000000000002195KGM  00000002717KGM  7298-4094-10             HOUSING FEMALE ASS'Y     7298409410               0         0         0         0    0    0    00000676000000338000000241000016291600
AE00TI102208300130/08/202200000009200000000000000068264KGM  00000103224KGM  7388-2978-30             HOUSING MALE ASS'Y       7388297830               0         0         0         0    0    0    00004416000000048000001790000790464000
AE00TI102208300130/08/202200000001000000000000000000000KGM  00000000000KGM  7470-4816D               J/B COMPLETE ASS'Y       74704816D                0         0         0         0    0    0    00000015000000001500000000000000000000
AE00TI102208300130/08/202200000001800000000000000023760KGM  00000028260KGM  7470-5237                J/B ASS'Y                74705237                 0         0         0         0    0    0    00000043200000002400031359000135470880
AE00TI102208300130/08/202200000002000000000000000000000KGM  00000000000KGM  7470-5783D               J/B COMPLETE ASS'Y       74705783D                0         0         0         0    0    0    00000030000000001500000000000000000000
