AE00TI102208300530/08/202200000001500000000000000004959KGM  00000005790KGM  7158-3006-90             RUBBER STOPPER           7158300690               0         0         0         0    0    0    00030000000002000000000016000048000000
AE00TI102208300530/08/202200000001000000000000000003380KGM  00000003862KGM  7158-3009-60             RUBBER STOPPER           7158300960               0         0         0         0    0    0    00020000000002000000000012000024000000
AE00TI102208300530/08/202200000000600000000000000001656KGM  00000002000KGM  7158-3070-80             RUBBER STOPPER           7158307080               0         0         0         0    0    0    00024000000004000000000008000019200000
AE00TI102208300530/08/202200000000500000000000000000520KGM  00000000762KGM  7158-3166-60             WIRE SEAL                7158316660               0         0         0         0    0    0    00020000000004000000000004000008000000
AE00TI102208300530/08/202200000001800000000000000000864KGM  00000001962KGM  7158-3167-80             WIRE SEAL                7158316780               0         0         0         0    0    0    00036000000002000000000005000018000000
AE00TI102208300530/08/202200000000700000000000000001092KGM  00000001429KGM  7158-3169-40             SEALING PLUG             7158316940               0         0         0         0    0    0    00028000000004000000000006000016800000
AE00TI102208300530/08/202200000000300000000000000000558KGM  00000000703KGM  7172-5540-80             SEALED WIRE SEAL         7172554080               0         0         0         0    0    0    00006000000002000000000010000006000000
AE00TI102208300530/08/202200000000800000000000000009099KGM  00000010382KGM  7183-2417                CONNECTOR HOUSING        71832417                 0         0         0         0    0    0    00001920000000240000000138000026496000
AE00TI102208300530/08/202200000000200000000000000001834KGM  00000002274KGM  7283-4577                CONNECTOR HOUSING        72834577                 0         0         0         0    0    0    00000960000000480000000172000016512000
AE00TI102208300530/08/202200000001200000000000000009902KGM  00000012422KGM  7288-5000                HOUSING MALE ASS'Y       72885000                 0         0         0         0    0    0    00000403200000033600000895000036086400
AE00TI102208300530/08/202200000003000000000000000022260KGM  00000033660KGM  7388-2978-30             HOUSING MALE ASS'Y       7388297830               0         0         0         0    0    0    00001440000000048000001790000257760000
AE00TI102208300530/08/202200000001800000000000000023760KGM  00000028260KGM  7470-4481                J/B COMPLETE ASS'Y       74704481                 0         0         0         0    0    0    00000043200000002400000000000000000000
AE00TI102208300530/08/202200000002000000000000000000000KGM  00000000000KGM  7470-4815D               J/B COMPLETE ASS'Y       74704815D                0         0         0         0    0    0    00000030000000001500000000000000000000
AE00TI102208300530/08/202200000000500000000000000000000KGM  00000000000KGM  7470-4815E1              J/B COMPLETE ASS'Y       74704815E1               0         0         0         0    0    0    00000005000000001000000000000000000000
AE00TI102208300530/08/202200000000800000000000000000000KGM  00000000000KGM  7470-4818D               J/B COMPLETE ASS'Y       74704818D                0         0         0         0    0    0    00000012000000001500000000000000000000
AE00TI102208300530/08/202200000003400000000000000000000KGM  00000000000KGM  7470-5301                J/B COMPLETE ASS'Y       74705301                 0         0         0         0    0    0    00000034000000001000000000000000000000
AE00TI102208300530/08/202200000000900000000000000000000KGM  00000000000KGM  7470-5783E               J/B COMPLETE ASS'Y       74705783E                0         0         0         0    0    0    00000009000000001000000000000000000000
AE00TI102208300530/08/202200000003500000000000000000000KGM  00000000000KGM  7470-5791D               J/B COMPLETE ASS'Y       74705791D                0         0         0         0    0    0    00000052500000001500000000000000000000
AE00TI102208300530/08/202200000001600000000000000000000KGM  00000000000KGM  7470-5823E1              J/B COMPLETE ASS'Y       74705823E1               0         0         0         0    0    0    00000016000000001000000000000000000000
AE00TI102208300530/08/202200000001000000000000000000000KGM  00000000000KGM  7470-5936D               J/B COMPLETE ASS'Y       74705936D                0         0         0         0    0    0    00000015000000001500000000000000000000
