AE00TI102208300430/08/202200000000700000000000000006075KGM  00000007475KGM  7173-3291-40             LIF LEVER                7173329140               0         0         0         0    0    0    00001680000000240000000142000023856000
AE00TI102208300430/08/202200000000200000000000000001519KGM  00000002049KGM  7187-3356                JOINT CONNECTOR          71873356                 0         0         0         0    0    0    00000240000000120000001038000024912000
AE00TI102208300430/08/202200000000200000000000000001524KGM  00000002058KGM  7187-3357-40             JOINT CONNECTOR          7187335740               0         0         0         0    0    0    00000240000000120000001059000025416000
AE00TI102208300430/08/202200000000100000000000000000763KGM  00000001030KGM  7187-3359-60             JOINT CONNECTOR          7187335960               0         0         0         0    0    0    00000120000000120000001079000012948000
AE00TI102208300430/08/202200000000300000000000000002348KGM  00000002978KGM  7282-4578                HOUSING MALE ASS'Y       72824578                 0         0         0         0    0    0    00000360000000120000000255000009180000
AE00TI102208300430/08/202200000000200000000000000002126KGM  00000002566KGM  7282-4855                HOUSING MALE ASS'Y       72824855                 0         0         0         0    0    0    00000240000000120000000347000008328000
AE00TI102208300430/08/202200000001000000000000000010176KGM  00000012376KGM  7282-9391                HOUSING MALE ASS'Y       72829391                 0         0         0         0    0    0    00001200000000120000000325000039000000
AE00TI102208300430/08/202200000000100000000000000000855KGM  00000001013KGM  7283-1222-30             CONNECTOR HOUSING        7283122230               0         0         0         0    0    0    00000120000000120000000379000004548000
AE00TI102208300430/08/202200000000100000000000000000651KGM  00000000871KGM  7283-4576                HOUSING FEMALE ASS'Y     72834576                 0         0         0         0    0    0    00000480000000480000000128000006144000
AE00TI102208300430/08/202200000000300000000000000002750KGM  00000003410KGM  7283-4577                CONNECTOR HOUSING        72834577                 0         0         0         0    0    0    00001440000000480000000172000024768000
AE00TI102208300430/08/202200000000100000000000000000838KGM  00000001058KGM  7283-4578                HOUSING FEMALE ASS'Y     72834578                 0         0         0         0    0    0    00000240000000240000000190000004560000
AE00TI102208300430/08/202200000000100000000000000000954KGM  00000001104KGM  7283-5830                CONNECTOR                72835830                 0         0         0         0    0    0    00000600000000600000000154000009240000
AE00TI102208300430/08/202200000000100000000000000000954KGM  00000001104KGM  7283-5830-30             CONNECTOR                7283583030               0         0         0         0    0    0    00000600000000600000000155000009300000
AE00TI102208300430/08/202200000000100000000000000000724KGM  00000000874KGM  7283-5832                CONNECTOR HOUSING        72835832                 0         0         0         0    0    0    00000240000000240000000206000004944000
AE00TI102208300430/08/202200000000700000000000000006223KGM  00000007924KGM  7283-5843                CONNECTOR                72835843                 0         0         0         0    0    0    00001050000000150000000280000029400000
AE00TI102208300430/08/202200000000100000000000000000885KGM  00000001102KGM  7283-5846                HOUSING                  72835846                 0         0         0         0    0    0    00000150000000150000000241000003615000
AE00TI102208300430/08/202200000000100000000000000000911KGM  00000001131KGM  7286-3885-40             CONNECTOR MALE ASS'Y     7286388540               0         0         0         0    0    0    00000120000000120000000313000003756000
AE00TI102208300430/08/202200000000100000000000000000768KGM  00000000978KGM  7286-4097                CONNECTOR MALE ASS'Y     72864097                 0         0         0         0    0    0    00000160000000160000000196000003136000
AE00TI102208300430/08/202200000000400000000000000004118KGM  00000004998KGM  7287-3885                HYBRID FEMALE ASS'Y      72873885                 0         0         0         0    0    0    00000960000000240000000207000019872000
AE00TI102208300430/08/202200000000100000000000000001030KGM  00000001250KGM  7287-3885-30             HYBRID FEMALE ASS'Y      7287388530               0         0         0         0    0    0    00000240000000240000000215000005160000
AE00TI102208300430/08/202200000000100000000000000000743KGM  00000000853KGM  7287-7022                CONNECTOR FEMALE         72877022                 0         0         0         0    0    0    00000120000000120000000982000011784000
AE00TI102208300430/08/202200000000200000000000000002333KGM  00000002773KGM  7287-8073                HOUSING FEMALE ASS'Y     72878073                 0         0         0         0    0    0    00000480000000240000000244000011712000
AE00TI102208300430/08/202200000000700000000000000005776KGM  00000007246KGM  7288-5000                HOUSING MALE ASS'Y       72885000                 0         0         0         0    0    0    00000235200000033600000895000021050400
AE00TI102208300430/08/202200000000300000000000000004054KGM  00000004999KGM  7289-6524-30             HOUSING FEMALE ASS'Y     7289652430               0         0         0         0    0    0    00000072000000024000004757000034250400
AE00TI102208300430/08/202200000000100000000000000001307KGM  00000001622KGM  7289-7211-30             HOUSING FEMALE ASS'Y     7289721130               0         0         0         0    0    0    00000024000000024000004728000011347200
AE00TI102208300430/08/202200000001000000000000000007420KGM  00000011220KGM  7388-2978-30             HOUSING MALE ASS'Y       7388297830               0         0         0         0    0    0    00000480000000048000001790000085920000
