AE00TI102208300230/08/202200000001100000000000000001876KGM  00000002408KGM  7137-3047-30             UNIT PACKING             7137304730               0         0         0         0    0    0    00001100000000100000000189000020790000
AE00TI102208300230/08/202200000000600000000000000003252KGM  00000004328KGM  7147-3642-30             CLIP                     7147364230               0         0         0         0    0    0    00001800000000300000000074000013320000
AE00TI102208300230/08/202200000000200000000000000001654KGM  00000002204KGM  7154-5712-30             CASSETTE R/B             7154571230               0         0         0         0    0    0    00000160000000080000000288000004608000
AE00TI102208300230/08/202200000003600000000000000011902KGM  00000013896KGM  7158-3006-90             RUBBER STOPPER           7158300690               0         0         0         0    0    0    00072000000002000000000016000115200000
AE00TI102208300230/08/202200000002400000000000000008112KGM  00000009269KGM  7158-3009-60             RUBBER STOPPER           7158300960               0         0         0         0    0    0    00048000000002000000000012000057600000
AE00TI102208300230/08/202200000000900000000000000002484KGM  00000003000KGM  7158-3070-80             RUBBER STOPPER           7158307080               0         0         0         0    0    0    00036000000004000000000008000028800000
AE00TI102208300230/08/202200000002500000000000000002600KGM  00000003810KGM  7158-3166-60             WIRE SEAL                7158316660               0         0         0         0    0    0    00100000000004000000000004000040000000
AE00TI102208300230/08/202200000004400000000000000002112KGM  00000004796KGM  7158-3167-80             WIRE SEAL                7158316780               0         0         0         0    0    0    00088000000002000000000005000044000000
AE00TI102208300230/08/202200000001900000000000000000836KGM  00000001750KGM  7158-3168-80             SEALED                   7158316880               0         0         0         0    0    0    00038000000002000000000004000015200000
AE00TI102208300230/08/202200000000800000000000000001248KGM  00000001633KGM  7158-3169-40             SEALING PLUG             7158316940               0         0         0         0    0    0    00032000000004000000000006000019200000
AE00TI102208300230/08/202200000001200000000000000016069KGM  00000017869KGM  7171-6291                HOUSING MALE             71716291                 0         0         0         0    0    0    00000230400000019200001625000037440000
AE00TI102208300230/08/202200000001300000000000000002418KGM  00000003047KGM  7172-5540-80             SEALED WIRE SEAL         7172554080               0         0         0         0    0    0    00026000000002000000000010000026000000
AE00TI102208300230/08/202200000000100000000000000001282KGM  00000001477KGM  7182-4941                DOUBLE SIDED             71824941                 0         0         0         0    0    0    00000100000000100000000816000008160000
AE00TI102208300230/08/202200000000100000000000000000757KGM  00000001042KGM  7183-1615                HOUSING                  71831615                 0         0         0         0    0    0    00000480000000480000000081000003888000
AE00TI102208300230/08/202200000000200000000000000002118KGM  00000002491KGM  7183-2412                HOUSING                  71832412                 0         0         0         0    0    0    00000320000000160000000155000004960000
AE00TI102208300230/08/202200000000200000000000000000956KGM  00000001520KGM  7183-2413                CONNECTOR HOUSING        71832413                 0         0         0         0    0    0    00000960000000480000000074000007104000
AE00TI102208300230/08/202200000000400000000000000001910KGM  00000003038KGM  7183-2413-30             CONNECTOR HOUSING        7183241330               0         0         0         0    0    0    00001920000000480000000076000014592000
AE00TI102208300230/08/202200000000200000000000000001558KGM  00000002122KGM  7183-2414                CONNECTOR HOUSING        71832414                 0         0         0         0    0    0    00000960000000480000000050000004800000
AE00TI102208300230/08/202200000000100000000000000000780KGM  00000001062KGM  7183-2414-30             CONNECTOR HOUSING        7183241430               0         0         0         0    0    0    00000480000000480000000054000002592000
AE00TI102208300230/08/202200000000100000000000000000917KGM  00000001477KGM  7183-2418                CONNECTOR HOUSING        71832418                 0         0         0         0    0    0    00000480000000480000000078000003744000
AE00TI102208300230/08/202200000000300000000000000002314KGM  00000002749KGM  7188-9513                HLC HOUSING MALE         71889513                 0         0         0         0    0    0    00000600000000200000000261000015660000
AE00TI102208300230/08/202200000000200000000000000001557KGM  00000001847KGM  7188-9514-90             HLC HOUSING MALE         7188951490               0         0         0         0    0    0    00000400000000200000000275000011000000
AE00TI102208300230/08/202200000000800000000000000006035KGM  00000006891KGM  7189-9521                HOUSING                  71899521                 0         0         0         0    0    0    00001600000000200000000276000044160000
AE00TI102208300230/08/202200000000200000000000000001933KGM  00000002250KGM  7222-7564-30             CONNECTOR                7222756430               0         0         0         0    0    0    00000100000000050000001175000011750000
AE00TI102208300230/08/202200000000100000000000000000967KGM  00000001097KGM  7222-7564-40             CONNECTOR                7222756440               0         0         0         0    0    0    00000050000000050000001166000005830000
AE00TI102208300230/08/202200000000100000000000000000794KGM  00000001073KGM  7282-2090-30             CONNECTOR MALE ASS'Y     7282209030               0         0         0         0    0    0    00000240000000240000000225000005400000
AE00TI102208300230/08/202200000000100000000000000001124KGM  00000001213KGM  7282-7028-30             CONNECTOR                7282702830               0         0         0         0    0    0    00000200000000200000000248000004960000
AE00TI102208300230/08/202200000000400000000000000003360KGM  00000004197KGM  7283-1020                CONNECTOR                72831020                 0         0         0         0    0    0    00002400000000600000000216000051840000
AE00TI102208300230/08/202200000000100000000000000000983KGM  00000001156KGM  7283-1064                CONNECTOR                72831064                 0         0         0         0    0    0    00000150000000150000000347000005205000
AE00TI102208300230/08/202200000000100000000000000000878KGM  00000001068KGM  7283-1110                CONNECTOR                72831110                 0         0         0         0    0    0    00000200000000200000000329000006580000
AE00TI102208300230/08/202200000000400000000000000003510KGM  00000004312KGM  7283-1156                CONNECTOR                72831156                 0         0         0         0    0    0    00000320000000080000000810000025920000
AE00TI102208300230/08/202200000000400000000000000004560KGM  00000005273KGM  7283-1968-30             CONNECTOR                7283196830               0         0         0         0    0    0    00000360000000090000000687000024732000
AE00TI102208300230/08/202200000000200000000000000000760KGM  00000001063KGM  7283-8123                CONNECTOR HOUSING        72838123                 0         0         0         0    0    0    00000800000000400000000138000011040000
AE00TI102208300230/08/202200000000600000000000000005802KGM  00000007007KGM  7286-1917                CONNECTOR MALE ASS'Y     72861917                 0         0         0         0    0    0    00000720000000120000000517000037224000
AE00TI102208300230/08/202200000000100000000000000000952KGM  00000001140KGM  7286-7860                HOUSING MALE ASS'Y       72867860                 0         0         0         0    0    0    00000080000000080000000383000003064000
AE00TI102208300230/08/202200000000500000000000000004269KGM  00000005226KGM  7287-9155                HOUSING FEMALE ASS'Y     72879155                 0         0         0         0    0    0    00000480000000096000000357000017136000
AE00TI102208300230/08/202200000000600000000000000005202KGM  00000006072KGM  7288-3339-30             HOUSING MALE             7288333930               0         0         0         0    0    0    00000900000000150000000354000031860000
AE00TI102208300230/08/202200000000100000000000000000862KGM  00000001006KGM  7288-3340-30             HOUSING MALE             7288334030               0         0         0         0    0    0    00000150000000150000000354000005310000
AE00TI102208300230/08/202200000000400000000000000002746KGM  00000003606KGM  7289-3342                HOUSING FEMALE ASS'Y     72893342                 0         0         0         0    0    0    00000960000000240000000186000017856000
AE00TI102208300230/08/202200000002700000000000000023077KGM  00000028747KGM  7289-5979-30             HOUSING FEMALE ASS'Y     7289597930               0         0         0         0    0    0    00000680400000025200001346000091581840
AE00TI102208300230/08/202200000000100000000000000000776KGM  00000001077KGM  7298-3822-70             HOUSING FEMALE ASS'Y     7298382270               0         0         0         0    0    0    00000252000000252000000430000010836000
AE00TI102208300230/08/202200000000800000000000000007960KGM  00000009000KGM  7388-0313-30             CONNECTOR ASS'Y          7388031330               0         0         0         0    0    0    00000960000000120000000376000036096000
AE00TI102208300230/08/202200000000100000000000000001320KGM  00000001570KGM  7470-4481                J/B COMPLETE ASS'Y       74704481                 0         0         0         0    0    0    00000002400000002400000000000000000000
AE00TI102208300230/08/202200000001700000000000000022440KGM  00000026690KGM  7470-5237                J/B ASS'Y                74705237                 0         0         0         0    0    0    00000040800000002400031359000127944720
AE00TI102208300230/08/202200000003600000000000000000000KGM  00000000000KGM  7470-5301                J/B COMPLETE ASS'Y       74705301                 0         0         0         0    0    0    00000036000000001000000000000000000000
AE00TI102208300230/08/202200000001800000000000000000000KGM  00000000000KGM  7470-5858D               J/B COMPLETE ASS'Y       74705858D                0         0         0         0    0    0    00000018000000001000000000000000000000
AE00TI102208300230/08/202200000001000000000000000000000KGM  00000000000KGM  7470-5927D               J/B COMPLETE ASS'Y       74705927D                0         0         0         0    0    0    00000015000000001500000000000000000000
