AE00TO202208300230/08/202200000000200000000000000001884KGM  00000001982KGM  18018403730              CAVS 03 B                CAVS 03 B                0         0         0         0    0    0    00000000000040000000000010400000416000
AE00TO202208300230/08/202200000001200000000000000011304KGM  00000011891KGM  18018403740              CAVS 03 W                CAVS 03 W                0         0         0         0    0    0    00000000000240000000000010400002496000
AE00TO202208300230/08/202200000000600000000000000005652KGM  00000005945KGM  18018403750              CAVS 03 R                CAVS 03 R                0         0         0         0    0    0    00000000000120000000000010400001248000
AE00TO202208300230/08/202200000000300000000000000002826KGM  00000002973KGM  18018403753              CAVS 03 R/B              CAVS 03 R/B              0         0         0         0    0    0    00000000000060000000000010400000624000
AE00TO202208300230/08/202200000002200000000000000020724KGM  00000021800KGM  18018403760              CAVS 03 G                CAVS 03 G                0         0         0         0    0    0    00000000000440000000000010400004576000
AE00TO202208300230/08/202200000001200000000000000011304KGM  00000011891KGM  18018403780              CAVS 03 BR               CAVS 03 BR               0         0         0         0    0    0    00000000000240000000000010400002496000
AE00TO202208300230/08/202200000001300000000000000012246KGM  00000012882KGM  18018403790              CAVS 03 L                CAVS 03 L                0         0         0         0    0    0    00000000000260000000000010400002704000
AE00TO202208300230/08/202200000000200000000000000001884KGM  00000001982KGM  18018403792              CAVS 03 V                CAVS 03 V                0         0         0         0    0    0    00000000000040000000000010400000416000
AE00TO202208300230/08/202200000000200000000000000002456KGM  00000002554KGM  1801R704140              CIVUS 125 W              CIVUS 125 W              0         0         0         0    0    0    00000000000020000000000031800000636000
AE00TO202208300230/08/202200000000100000000000000001228KGM  00000001277KGM  1801R704152              CIVUS 125 P              CIVUS 125 P              0         0         0         0    0    0    00000000000010000000000031800000318000
AE00TO202208300230/08/202200000002000000000000000022500KGM  00000023478KGM  1801W003930              IVSSH 05F B              IVSSH 05F B              0         0         0         0    0    0    00000000000360000000000015600005616000
AE00TO202208300230/08/202200000002500000000000000028125KGM  00000029347KGM  1801W003940              IVSSH 05F W              IVSSH 05F W              0         0         0         0    0    0    00000000000450000000000015600007020000
AE00TO202208300230/08/202200000000200000000000000002250KGM  00000002348KGM  1801W003960              IVSSH 05F G              IVSSH 05F G              0         0         0         0    0    0    00000000000036000000000015600000561600
AE00TO202208300230/08/202200000000100000000000000001125KGM  00000001174KGM  1801W003970              IVSSH 05F Y              IVSSH 05F Y              0         0         0         0    0    0    00000000000018000000000015600000280800
AE00TO202208300230/08/202200000000100000000000000001125KGM  00000001174KGM  1801W003990              IVSSH 05F L              IVSSH 05F L              0         0         0         0    0    0    00000000000018000000000015600000280800
AE00TO202208300230/08/202200000004500000000000000050850KGM  00000053050KGM  1801W006930              IVSSH 035F B             IVSSH 035F B             0         0         0         0    0    0    00000000001125000000000011500012937500
AE00TO202208300230/08/202200000000100000000000000001130KGM  00000001179KGM  1801W006941              IVSSH 035F GY            IVSSH 035F GY            0         0         0         0    0    0    00000000000025000000000011500000287500
AE00TO202208300230/08/202200000009100000000000000102830KGM  00000107279KGM  1801W006952              IVSSH 035F P             IVSSH 035F P             0         0         0         0    0    0    00000000002275000000000011500026162500
AE00TO202208300230/08/202200000000100000000000000001130KGM  00000001179KGM  1801W00695U              IVSSH 035F BE            IVSSH 035F BE            0         0         0         0    0    0    00000000000025000000000011500000287500
AE00TO202208300230/08/202200000000100000000000000001130KGM  00000001179KGM  1801W006960              IVSSH 035F G             IVSSH 035F G             0         0         0         0    0    0    00000000000025000000000011500000287500
AE00TO202208300230/08/202200000000100000000000000001030KGM  00000001079KGM  180D0203750              AVSSH 03F R              AVSSH 03F R              0         0         0         0    0    0    00000000000020000000000012300000246000
AE00TO202208300230/08/202200000000100000000000000001030KGM  00000001079KGM  180D0203760              AVSSH 03F G              AVSSH 03F G              0         0         0         0    0    0    00000000000020000000000012300000246000
AE00TO202208300230/08/202200000000100000000000000001034KGM  00000001082KGM  180D0203930              AVSSH 05F B              AVSSH 05F B              0         0         0         0    0    0    00000000000015000000000016500000247500
AE00TO202208300230/08/202200000000300000000000000003101KGM  00000003247KGM  180D0203980              AVSSH 05F BR             AVSSH 05F BR             0         0         0         0    0    0    00000000000045000000000016500000742500
AE00TO202208300230/08/202200000002900000000000000029972KGM  00000031389KGM  180D0203990              AVSSH 05F L              AVSSH 05F L              0         0         0         0    0    0    00000000000435000000000016500007177500
AE00TO202208300230/08/202200000000300000000000000003101KGM  00000003247KGM  180D0203995              AVSSH 05F L/R            AVSSH 05F L/R            0         0         0         0    0    0    00000000000045000000000016500000742500
AE00TO202208300230/08/202200000000100000000000000001034KGM  00000001082KGM  180D0203997              AVSSH 05F L/Y            AVSSH 05F L/Y            0         0         0         0    0    0    00000000000015000000000016500000247500
AE00TO202208300230/08/202200000000300000000000000003499KGM  00000003646KGM  180D0204130              AVSSH 125F B             AVSSH 125F B             0         0         0         0    0    0    00000000000024000000000036000000864000
AE00TO202208300230/08/202200000003400000000000000039658KGM  00000041320KGM  180D0204140              AVSSH 125F W             AVSSH 125F W             0         0         0         0    0    0    00000000000272000000000036000009792000
AE00TO202208300230/08/202200000001200000000000000013996KGM  00000014583KGM  180D0204143              AVSSH 125F W/B           AVSSH 125F W/B           0         0         0         0    0    0    00000000000096000000000036000003456000
AE00TO202208300230/08/202200000004500000000000000034211KGM  00000036411KGM  181AD2003ZZ              CIVUSAS-S 035X3 B        CIVUSAS-S 035X3 B        0         0         0         0    0    0    00000000000157500000000055700008772750
AE00TO202208300230/08/202200000004600000000000000038639KGM  00000040888KGM  181AD2004ZZ              CIVUSAS-S 035X4 B        CIVUSAS-S 035X4 B        0         0         0         0    0    0    00000000000138000000000067100009259800
AE00TO202208300230/08/202200000000100000000000000000845KGM  00000000894KGM  181AD2013ZZ              CIVUSAS-S 125X2 B        CIVUSAS-S 125X2 B        0         0         0         0    0    0    00000000000002200000000098400000216480
AE00TO202208300230/08/202200000000100000000000000000871KGM  00000000920KGM  181B32102S1              AVSSCS 05FX2 DGY         AVSSCS 05FX2 DGY         0         0         0         0    0    0    00000000000003000000000076200000228600
AE00TO202208300230/08/202200000000200000000000000001742KGM  00000001840KGM  181B32102Y6              AVSSCS 05FX2 DGY/G       AVSSCS 05FX2 DGY/G       0         0         0         0    0    0    00000000000006000000000076200000457200
AE00TO202208300230/08/202200000000700000000000000004935KGM  00000005278KGM  181CQ7004ZZ              IVSSHCS-S 05FX2 B(R,G)   IVSSHCS-S 05FX2 B(R,G)   0         0         0         0    0    0    00000000000021000000000073000001533000
AE00TO202208300230/08/202200000000300000000000000002147KGM  00000002293KGM  181D6910235              AVSSHCS 05FX2 B/R        AVSSHCS 05FX2 B/R        0         0         0         0    0    0    00000000000009000000000080200000721800
AE00TO202208300230/08/202200000000800000000000000005724KGM  00000006115KGM  181D6910239              AVSSHCS 05FX2 B/L        AVSSHCS 05FX2 B/L        0         0         0         0    0    0    00000000000024000000000080200001924800
AE00TO202208300230/08/202200000000200000000000000001389KGM  00000001487KGM  181E48013ZZ              CAVSAS-S 03X3 GY         CAVSAS-S 03X3 GY         0         0         0         0    0    0    00000000000005000000000060000000300000
AE00TO202208300230/08/202200000000600000000000000004546KGM  00000004840KGM  181E50002ZZ              AVSSCS-S 03FX2 DGY/G     AVSSCS-S 03FX2 DGY/G     0         0         0         0    0    0    00000000000021000000000059700001253700
AE00TO202208300230/08/202200000002600000000000000019702KGM  00000020973KGM  181E50003ZZ              AVSSCS-S 03FX2 DGY/BR    AVSSCS-S 03FX2 DGY/BR    0         0         0         0    0    0    00000000000091000000000059700005432700
AE00TO202208300230/08/202200000000300000000000000002786KGM  00000002933KGM  181E50010ZZ              AVSSCS-S 05FX2 DGY/P     AVSSCS-S 05FX2 DGY/P     0         0         0         0    0    0    00000000000009000000000071000000639000
AE00TO202208300230/08/202200000001700000000000000015789KGM  00000016622KGM  181E50011ZZ              AVSSCS-S 05FX2 DGY/Y     AVSSCS-S 05FX2 DGY/Y     0         0         0         0    0    0    00000000000051000000000071000003621000
AE00TO202208300230/08/202200000000700000000000000005714KGM  00000006056KGM  181E50027ZZ              AVSSCS-S 05FX3 DGY/G     AVSSCS-S 05FX3 DGY/G     0         0         0         0    0    0    00000000000017500000000092000001610000
AE00TO202208300230/08/202200000000800000000000000006062KGM  00000006453KGM  181E50036ZZ              AVSSCS-S 03FX2 DGY       AVSSCS-S 03FX2 DGY       0         0         0         0    0    0    00000000000028000000000059700001671600
AE00TO202208300230/08/202200000000700000000000000005315KGM  00000005658KGM  181F21009ZZ              AVSSHCS-S 05FX2 B        AVSSHCS-S 05FX2 B        0         0         0         0    0    0    00000000000021000000000074200001558200
