BI00B1200    Y022L50025     202211037116-4112-02             TERMINAL                 CCN000450000000450000FN00000000020221201000450000NNE   20220830121658    4P0P  0000060000000045000000073821200    YCYC    006400630015
BI00B1200    Y022L50021     202211037288-9556-30             SEALED ASSY MALE         CCN000007200000007200FN00000000020221201000007200NNM   20220830121658    4N0N  0000007200000053790000078631200    YCYC    005500360039
BI00B1200    OHM-202210-01  20220908REEL-A36                 ALUMINUM REEL            CNN000000036000000036FN00000000020220901000000036NNE   20220830150747    1N0N  0000000030000075000000083201200    YCYC    005600540017
BI00B1200    OHM-202210-01  20220908REEL-A32                 ALUMINUM REEL            CNN000000003000000003FN00000000020220901000000003NNE   20220830150747    1N0N  0000000030000073800000082101200    YCYC    005600540017
BI00B1200    OHM-202210-01  20220908REEL-B36                 ALUMINUM REEL            CNN000000009000000009FN00000000020220901000000009NNE   20220830150747    1N0N  0000000030000088200000096601200    YCYC    005600540017
BI00B1200    OHM-202210-01  20220908REEL-B42                 ALUMINUM REEL            CNN000000032000000032FN00000000020220901000000032NNE   20220830150747    1N0N  0000000020000061200000069601200    YCYC    005600540017
BI00B32BF    TT22121KMW     202210187116-1180                TERMINAL                 CCN000019500000019500FN00000000020221201000019500NNM   20220830121658    1P0P  00001950000000618200000903432BF    TTTJYCD 006400630015
BI00B32BF    #TT22121KMW    202210187157-3790-90             WIRE SEAL                CCN000020000000020000FN00000000020221201000020000NNM   20220830121658    2C0C  00002000000000176000000232732BF    TTTJYCD 002700430014
BI00B32CA    QA-22-P14      202208307116-3153-02             TERMINAL FEMALE          PNN000027000000027000FY00002700020220901000000000NNED0020220830134407    4P0P  00002700000000459000000744232CA    YPYPY   006400630015
BI00B32CG    S220536        202209057116-4025                TERMINAL                 CCN000016000000016000FN00000000020220901000016000NNEM0020220830121658    4P0P  00001600000000644800000975132CG    ASASIACO006400630017
BI00B32CG    S220826        202211307116-4121-02             TERMINAL                 CCN000004500000004500FN00000000020221101000004500NNE   20220830121658    4P0P  00000450000000618800000912432CG    ASASIACO006400630015
BI00B32CG    A220824        202211307116-4121-02             TERMINAL                 CCN000027000000027000FN00000000020221101000027000NNE   20220830121658    4P0P  00000450000000618800000912432CG    ASASIACO006400630015
BI00B32CG    A220824        202211307116-4120-02             TERMINAL                 CCN000030000000030000FN00000000020221101000030000NNE   20220830121658    4P0P  00000600000000780000001073632CG    ASASIACO006400630015
BI00B32CH    #SJ22102 MW    202209087187-8856                HOUSING FEMALE           CCN000024000000012000FN00000000020221001000012000NNMD0420220830165756    2F0F  00000200000000820000000931532CH    SJSAMIJF005400370024
BI00B32CH    #SJ22102 MW    202209157187-8856                HOUSING FEMALE           CCN000012000000012000FN00000000020221001000012000NNMD0420220830165805    2F0F  00000200000000820000000931532CH    SJSAMIJF005400370024
BI00B32DA    SBT2211        202209297114-4020                TERMINAL                 CCN000105000000105000FN00000000020221101000105000NNM   20220830121658    4P0P  00002100000000875700001169332DA    GBYIPLGB006400630015
BI00B32DA    SBT2211        202209297114-4021                TERMINAL                 CCN000315000000315000FN00000000020221101000315000NNM   20220830121658    4P0P  00001500000000670500000964132DA    GBYIPLGB006400630015
BI00B32DA    SBT2211        202209297114-4032                TERMINAL                 CCN000030000000030000FN00000000020221101000030000NNM   20220830121658    4P0P  00000750000000735000001063632DA    GBYIPLGB006400630017
BI00B32DA    SBT2211        202209297116-4020                TERMINAL                 CCN000121500000121500FN00000000020221101000121500NNM   20220830121658    4P0P  00001350000000513000000798232DA    GBYIPLGB006400630015
BI00B32DA    SBT2211        202209297116-4022                TERMINAL                 CCN000067500000067500FN00000000020221101000067500NNM   20220830121658    4P0P  00001350000000618300000903532DA    GBYIPLGB006400630015
BI00B32DA    SBT2211        202209297116-4025                TERMINAL                 CCN000592000000592000FN00000000020221101000592000NNM   20220830121658    4P0P  00001600000000644800000975132DA    GBYIPLGB006400630017
BI00B32DA    SBT2211        202209297116-4026                TERMINAL                 CCN000256000000256000FN00000000020221101000256000NNM   20220830121658    4P0P  00001600000000664000000994332DA    GBYIPLGB006400630017
BI00B32DA    SBT2211        202209297116-4032                TERMINAL                 CCN000168000000168000FN00000000020221101000168000NNM   20220830121658    4P0P  00000600000000532800000818032DA    GBYIPLGB006400630015
BI00B32DA    SBT2211        202209297116-4037                TERMINAL                 CCN000132000000132000FN00000000020221101000132000NNM   20220830121658    4P0P  00000600000000600000000894232DA    GBYIPLGB006400630015
BI00B32DA    SBT2211        202209297116-6042                TERMINAL                 CCN000057000000057000FN00000000020221101000057000NNM   20220830121658    4P0P  00000300000000523800000856132DA    GBYIPLGB006400630015
BI00B32DA    SBT2211        202209297283-5830                CONNECTOR                CCN000048000000048000FN00000000020221101000048000NNM   20220830121658    1N47  00000600000000954000001104032DA    GBYIPLGB005500360039
BI00B32DA    SBT2211        202209297283-5845                CONNECTOR HOUSING        CCN000054000000054000FN00000000020221101000054000NNM   20220830121658    1N0N  00000600000000444000000606332DA    GBYIPLGB005400370024
BI00B32DA    SBT2211        202209297287-9234                JOINT CONNECTOR          CCN000134400000134400FN00000000020221101000134400NNM   20220830121658    4N0N  00000960000000893800001184832DA    GBYIPLGB005500360039
BI00B32DA    SBT2211        202209297017-1180-02             TERMINAL                 CCN000288000000288000FN00000000020221101000288000NNM   20220830121658    4P0P  00007200000001065600001229032DA    GBYIPLGB005100280028
BI00B32DA    SBT2211        202209297114-4624-02             TERMINAL                 CCN000024000000024000FN00000000020221101000024000NNM   20220830121658    4P0P  00002400000000895200001188832DA    GBYIPLGB006400630015
BI00B32DA    SBT2211        202209297114-4728-02             TERMINAL                 CCN001710000001710000FN00000000020221101001710000NNM   20220830121658    4P0P  00003000000000510000000804232DA    GBYIPLGB006400630015
BI00B32DA    SBT2211        202209297114-4729-02             TERMINAL                 CCN000180000000180000FN00000000020221101000180000NNM   20220830121658    4P0P  00003000000000516000000810232DA    GBYIPLGB006400630015
BI00B32DA    SBT2211        202209297114-5746-02             TERMINAL                 CCN000189000000189000FN00000000020221101000189000NNM   20220830121658    4P0P  00002100000000695100000988732DA    GBYIPLGB006400630015
BI00B32DA    SBT2211        202209297114-5747-02             TERMINAL                 CCN000234000000234000FN00000000020221101000234000NNM   20220830121658    4P0P  00001800000000626400000920032DA    GBYIPLGB006400630015
BI00B32DA    SBT2211        202209297114-5748-02             TERMINAL                 CCN000300000000300000FN00000000020221101000300000NNM   20220830121658    4P0P  00001200000000444000000737632DA    GBYIPLGB006400630015
BI00B32DA    SBT2211        202209297114-5753-02             TERMINAL                 CCN000189000000189000FN00000000020221101000189000NNM   20220830121658    4P0P  00002700000000847800001141432DA    GBYIPLGB006400630015
BI00B32DA    SBT2211        202209297116-1257-02             TERMINAL                 CCN000048000000048000FN00000000020221101000048000NNM   20220830121658    4P0P  00002400000000518400000847132DA    GBYIPLGB006400630017
BI00B32DA    SBT2211        202209297116-4486-02             TERMINAL                 CCN000616000000616000FN00000000020221101000616000NNM   20220830121658    4P0P  00002800000000666400000995132DA    GBYIPLGB006400630017
BI00B32DA    SBT2211        202209297116-5045-02             TERMINAL                 CCN000064000000064000FN00000000020221101000064000NNM   20220830121658    4P0P  00001600000000678400001007132DA    GBYIPLGB006400630017
BI00B32DA    SBT2211        202209297116-5750-02             TERMINAL                 CCN000390000000390000FN00000000020221101000390000NNM   20220830121658    4P0P  00001500000000457500000742732DA    GBYIPLGB006400630015
BI00B32DA    SBT2211        202209297116-5751-02             TERMINAL                 CCN000060000000060000FN00000000020221101000060000NNM   20220830121658    4P0P  00001200000000379200000664432DA    GBYIPLGB006400630015
BI00B32DA    SBT2211        202209297116-5752-02             TERMINAL                 CCN000336000000336000FN00000000020221101000336000NNM   20220830121658    4P0P  00002100000000571200000856432DA    GBYIPLGB006400630015
BI00B32DA    SBT2211        202209297158-3006-90             RUBBER STOPPER           CCN000540000000540000FN00000000020221101000540000NNM   20220830121658    1C0C  00002000000000330600000386032DA    GBYIPLGB002700430014
BI00B32DA    SBT2211        202209297158-3009-60             RUBBER STOPPER           CCN000400000000400000FN00000000020221101000400000NNM   20220830121658    1C0C  00002000000000338000000386232DA    GBYIPLGB002700430014
BI00B32DA    SBT2211        202209297172-5540-80             SEALED WIRE SEAL         CCN000080000000080000FN00000000020221101000080000NNM   20220830121658    1C0C  00002000000000186000000234432DA    GBYIPLGB004300270014
BI00B32DA    SBT2211        202209297196-0805-02             TERMINAL FEMALE          CCN000067500000067500FN00000000020221101000067500NNM   20220830121658    4P0P  00002250000000558000000843232DA    GBYIPLGB006400630015
BI00B32DA    SBT2211        202209297283-5830-30             CONNECTOR                CCN000030000000030000FN00000000020221101000030000NNM   20220830121658    1N0N  00000600000000954000001104032DA    GBYIPLGB005500360039
BI00B32DA    SBT2211        202209297288-3329-30             HOUSING MALE             CCN000024000000024000FN00000000020221101000024000NNM   20220830121658    4N0N  00000150000000866100001011132DA    GBYIPLGB005400370024
BI00B32DA    SBT2211        202209297288-3331-30             HOUSING MALE             CCN000010500000010500FN00000000020221101000010500NNM   20220830121658    4N0N  00000150000000866000001010932DA    GBYIPLGB005400370024
BI00B32DA    SBT2211        202209297288-3336-30             HOUSING MALE             CCN000010500000010500FN00000000020221101000010500NNM   20220830121658    4N0N  00000150000000867000001012032DA    GBYIPLGB005400370024
BI00B32DA    SBT2211        202209297288-3337-30             HOUSING MALE             CCN000010500000010500FN00000000020221101000010500NNM   20220830121658    4N0N  00000150000000867000001012032DA    GBYIPLGB005400370024
BI00B32DA    SBT2211        202209297289-3342-30             HOUSING FEMALE ASS'Y     CCN000098400000098400FN00000000020221101000098400NNM   20220830121658    1N0N  00000240000000686400000901432DA    GBYIPLGB005500360039
BI00B32DA    SBT2211        202209297286-3885-40             CONNECTOR MALE ASS'Y     CCN000057600000057600FN00000000020221101000057600NNM   20220830121658    1N0N  00000120000000910600001130632DA    GBYIPLGB005500360039
BI00B32DA    SBT2211        202209297287-3885-40             HYBRID FEMALE ASS'Y      CCN000021600000021600FN00000000020221101000021600NNM   20220830121658    1N0N  00000240000001029600001249632DA    GBYIPLGB005500360039
BI00B32DA    SBT2211        202209297116-3153-02             TERMINAL FEMALE          CCN002600000002619000FN00000000020221101002619000NNM   20220830121658    4P0P  00002700000000459000000744232DA    GBYIPLGB006400630015
BI00B32DA    SBT2211        202209297116-3154-02             TERMINAL FEMALE          CCN001040000001053000FN00000000020221101001053000NNM   20220830121658    4P0P  00002700000000469800000755032DA    GBYIPLGB006400630015
BI00B32DA    #SBT2211       202209297114-4022                TERMINAL                 CCN000060000000060000FN00000000020221101000060000NNM   20220830121658    2F0P  00001500000000708000001120632DA    GBYIPLGB006400630015
BI00B32DA    #SBT2211       202209297116-4021                TERMINAL                 CCN000121500000121500FN00000000020221101000121500NNM   20220830121658    2F0P  00001350000000534600000868832DA    GBYIPLGB006400630015
BI00B32DA    #SBT2211       202209297158-3017                RUBBER STOPPER           CCN000020000000020000FN00000000020221101000020000NNM   20220830121658    2C0C  00001000000000375500000435032DA    GBYIPLGB002700430014
BI00B32DA    #SBT2211       202209297183-2414                CONNECTOR HOUSING        CCN000028800000028800FN00000000020221101000028800NNM   20220830121658    2F0F  00000480000000779200001061032DA    GBYIPLGB005500360039
BI00B32DA    #SBT2211       202209297189-3037                HOUSING FEMALE           CCN000019200000019200FN00000000020221101000019200NNM   20220830121658    2F0F  00000480000000806400001066432DA    GBYIPLGB005500360039
BI00B32DA    #SBT2211       202209297157-6826-80             REAR HOLDER              CCN000060000000060000FN00000000020221101000060000NNM   20220830121658    2F0F  00001500000001234500001394132DA    GBYIPLGB005600390040
BI00B32DA    #SBT2211       202209297158-3015-10             RUBBER STOPPER           CCN000160000000160000FN00000000020221101000160000NNM   20220830121658    2C0C  00001000000000419500000474032DA    GBYIPLGB002700430014
BI00B32DA    #SBT2211       202209297183-1616-30             CONNECTOR HOUSING        CCN000026400000026400FN00000000020221101000026400NNM   20220830121658    2F0F  00000240000000557500000837132DA    GBYIPLGB005500360039
BI00B32DA    #SBT2211       202209297183-2414-40             CONNECTOR HOUSING        CCN000019200000019200FN00000000020221101000019200NNM   20220830121658    2F0F  00000480000000777600000963632DA    GBYIPLGB005500360039
BI00B32DA    #SBT2211       202209297183-7725-40             HOUSING                  CCN000018000000018000FN00000000020221101000018000NNM   20220830121658    2F0F  00000600000000840000001040032DA    GBYIPLGB005600390040
BI00B32DE    TCT2102        202209087017-1181-02             TERMINAL                 CCN000063000000063000FN00000000020221001000063000NNMD0020220830121658    4P0P  00006300000001089900001266832DE    TVYEV-TV005100280028
BI00B32DE    TCT2103        202209157114-4110-02             TERMINAL                 CCN000015000000015000FN00000000020221001000015000NNMD0020220830121658    4P0P  00001500000000901500001230132DE    TVYEV-TV006400630017
BI00B32DE    TCT2103        202209157116-4116-02             TERMINAL                 CCN000013800000013800FN00000000020221001000013800NNMD0020220830121658    4P0P  00000690000000517500000805732DE    TVYEV-TV006400630015
BI00B32DE    TCT2104        202209227116-4116-02             TERMINAL                 CCN000020700000020700FN00000000020221001000020700NNMD0020220830121658    4P0P  00000690000000517500000805732DE    TVYEV-TV006400630015
BI00B32DE    TCT2104        202209227283-3013-30             CONNECTOR                CCN000002000000002000FN00000000020221001000002000NNMD0020220830121658    4N0N  00000200000001138000001284032DE    TVYEV-TV005600390040
BI00B32DE    TCT2103        202209157283-5830-30             CONNECTOR                CCN000006000000006000FN00000000020221001000006000NNMD0020220830121658    1N0N  00000600000000954000001104032DE    TVYEV-TV005500360039
BI00B32EJ    #T220829P01    202209297282-2090-30             CONNECTOR MALE ASS'Y     CCN000002400000002400FN00000000020220901000002400NNE   20220830121658EJ  2N0N  00000240000000794000001073032EJ    EJYKBO  005500360039
BI00B32EJ    T220829P02     202209297116-1231                TERMINAL                 CCN000048000000048000FN00000000020220901000048000NNE   20220830121658EJ  4P0P  00001200000000633600000921832EJ    EJYKBO  006400630015
BI00B32EJ    #T220829P03    202209297157-7812                SEAL RUBBER              CCN000030000000030000FN00000000020220901000030000NNE   20220830121658EJ  2C0C  00001000000000137000000202032EJ    EJYKBO  002700430014
BI00B32EJ    T220829P04     202209297158-3070-80             RUBBER STOPPER           CCN000040000000040000FN00000000020220901000040000NNE   20220830121658EJ  1C0C  00004000000000276000000333332EJ    EJYKBO  002700430014
BI00B32EJ    T220829P04     202209297116-4022                TERMINAL                 CCN000013500000013500FN00000000020220901000013500NNE   20220830121658EJ  4P0P  00001350000000618300000903532EJ    EJYKBO  006400630015
BI00B32EJ    #T220829P04    202209297158-3120-90             CONNECTOR WIRE SEAL      CCN000260000000260000FN00000000020220901000260000NNE   20220830121658EJ  2C0C  00002000000000136000000194032EJ    EJYKBO  002700430014
BI00B32EJ    @T220829P04    202209297183-2510                HOUSING                  CCN000003000000003000FN00000000020220901000003000NNE   20220830121658EJ  3F0F  00000300000001063500001159032EJ    EJYKBO  005400370024
BI00A32J1    397792         202209077298-2507-30             HOUSING FEMALE ASS'Y     CCN000022800000022800FN00000000020220801000022800NNED0720220830121658    4N0N  00000120000000713200000914532J1    UKYEL-BL005500360039
BI00B32N1    NST2122HCU     202209157283-5830                CONNECTOR                CCN000054000000018000FN00000000020221001000018000NNED0220220830143648    1N47  00000600000000954000001104032N1    TAYIPL  005500360039
BI00B32N1    NST2122HCU     202209157283-5830-30             CONNECTOR                CCN000060000000018000FN00000000020221001000018000NNED0220220830143553    1N0N  00000600000000954000001104032N1    TAYIPL  005500360039
BI00B32N1    #NST2122E      202209157282-4190-30             CONNECTOR                CCN000021840000021840FN00000000020221001000021840NNM   20220830121658    2N0N  00000024000000801000001071332N1    TAYIPL  005600390040
BI00B32N1    #NST2211-F2122E202210207282-4190-30             CONNECTOR                CCN000019920000019920FN00000000020221001000019920NNM   20220830121658    2N0N  00000024000000801000001071332N1    TAYIPL  005600390040
BI00B32N1    #NST2212-F2122E202211247282-4190-30             CONNECTOR                CCN000019920000019920FN00000000020221001000019920NNM   20220830121658    2N0N  00000024000000801000001071332N1    TAYIPL  005600390040
BI00B32N1    NST2122F       202209227116-1301                TERMINAL                 CCN000210000000210000FN00000000020221001000210000NNM   20220830121658    4P0P  00001500000000487500000772732N1    TAYIPL  006400630015
BI00B32N1    NST2122HCU     202209227283-5830                CONNECTOR                CCN000012000000012000FN00000000020221001000012000NNED0220220830143856    1N47  00000600000000954000001104032N1    TAYIPL  005500360039
BI00B32N1    NST2122HCU     202209297283-5830                CONNECTOR                CCN000012000000012000FN00000000020221001000012000NNED0220220830143856    1N47  00000600000000954000001104032N1    TAYIPL  005500360039
BI00B32N1    NST2122HCU     202210067283-5830                CONNECTOR                CCN000012000000012000FN00000000020221001000012000NNED0220220830143856    1N47  00000600000000954000001104032N1    TAYIPL  005500360039
BI00B32N1    NST2122HCU     202209227283-5830-30             CONNECTOR                CCN000018000000018000FN00000000020221001000018000NNED0220220830143917    1N0N  00000600000000954000001104032N1    TAYIPL  005500360039
BI00B32N1    NST2122HCU     202209297283-5830-30             CONNECTOR                CCN000012000000012000FN00000000020221001000012000NNED0220220830143917    1N0N  00000600000000954000001104032N1    TAYIPL  005500360039
BI00B32N1    NST2122HCU     202210067283-5830-30             CONNECTOR                CCN000012000000012000FN00000000020221001000012000NNED0220220830143917    1N0N  00000600000000954000001104032N1    TAYIPL  005500360039
BI00B32N1    NST2122ACU     202209087283-5843                CONNECTOR                CCN000009000000009000FN00000000020220901000009000NNE   20220830144910    1N0N  00000150000000889000001132032N1    TAYIPL  005600390040
BI00B32R4    HZYBW2211004   202210187116-4026                TERMINAL                 CCN000016000000016000FN00000000020221101000016000NNE   20220830121658    4P0P  00001600000000664000000994332R4    HZHZYME 006400630017
BI00B32R4    HZYBW2211004   202210187116-4025                TERMINAL                 CCN000016000000016000FN00000000020221101000016000NNE   20220830121658    4P0P  00001600000000644800000975132R4    HZHZYME 006400630017
BI00B32R4    HZYBW2211004   202210187017-1183-02             TERMINAL                 CCN000027000000027000FN00000000020221101000027000NNE   20220830121658    4P0P  00002700000001139400001307432R4    HZHZYME 005100280028
BI00B32R4    HZYBW2211004   202210187158-3022-80             RUBBER STOPPER           CCN000005000000005000FN00000000020221101000005000NNE   20220830121658    1C0C  00000500000000467500000524032R4    HZHZYME 002700430014
BI00B32R4    HZYBW2211004   202210187158-3009-60             RUBBER STOPPER           CCN000040000000040000FN00000000020221101000040000NNE   20220830121658    1C0C  00002000000000338000000386232R4    HZHZYME 002700430014
BI00B32R4    #HZYBW2211004  202210187158-3017                RUBBER STOPPER           CCN000060000000060000FN00000000020221101000060000NNE   20220830121658    2C0C  00001000000000375500000435032R4    HZHZYME 002700430014
BI00B32R4    #HZYBW2211004  202210187289-2912-40             HOUSING FEMALE ASS'Y     CCN000008000000008000FN00000000020221101000008000NNE   20220830121658    2N0N  00000200000000804000000931032R4    HZHZYME 005400370024
BI00B32R7    R-TAP220369    202209297116-4121-02             TERMINAL                 CCN000045000000045000FN00000000020221001000045000NNE   20220830121658    4P0P  00000450000000618800000912432R7    IVYCIC  006400630015
BI00B32R7    R-TAP220370    202209297116-4121-02             TERMINAL                 CCN000180000000180000FN00000000020221001000180000NNE   20220830121658    4P0P  00000450000000618800000912432R7    IVYCIC  006400630015
BI00B32R8    TT22121AMW     202210187126-8853-02             TERMINAL                 CCN000007500000007500FN00000000020221201000007500NNM   20220830121658    4P0P  00000750000000562500000847732R8    TTTJY   006400630015
BI00B32R8    TT22121AMW     202210187158-3006-90             RUBBER STOPPER           CCN000020000000020000FN00000000020221201000020000NNM   20220830121658    1C0C  00002000000000330600000386032R8    TTTJY   002700430014
BI00B32R8    TT22121AMW     202210187283-1289-10             CONNECTOR HOUSING        CCN000000600000000600FN00000000020221201000000600NNM   20220830121658    1N0N  00000060000000676200000821232R8    TTTJY   005400370024
BI00B32W4    4500196546     202209057116-4122-02             TERMINAL                 CCN000009000000009000FN00000000020220901000009000NNEM0020220830132504W46 4P0P  00000450000000656600000950232W46   HJYHK   006400630015
BI00B32W4    4500197015     202209057116-4122-02             TERMINAL                 CCN000004500000004500FN00000000020220901000004500NNEM0020220830132529W46 4P0P  00000450000000656600000950232W46   HJYHK   006400630015
BI00B32W4    4500197419     202209057116-4122-02             TERMINAL                 CCN000004500000004500FN00000000020220901000004500NNEM0020220830132603W46 4P0P  00000450000000656600000950232W46   HJYHK   006400630015
BI00B32W4    4500199313     202210067283-1020                CONNECTOR                CCN000090000000090000FN00000000020220901000090000NNED0220220830121658W4514N0N  00000600000000840000001049332W451  HJ32W9  005600390040
BI00B32W4    4500199375     202209157283-5845                CONNECTOR HOUSING        CCN000024000000018000FN00000000020220901000018000NNED0420220830143744W4371N0N  00000600000000444000000606332W437  HJYHK   005400370024
BI00B32W4    4500199377     202209227283-5845                CONNECTOR HOUSING        CCN000006000000006000FN00000000020220901000006000NNED0420220830143825W4371N0N  00000600000000444000000606332W437  HJYHK   005400370024
BI00B32W4    4500199382     202210277116-4120-02             TERMINAL                 CCN000006000000006000FN00000000020221001000006000NNE   20220830121658W48 4P0P  00000600000000780000001073632W48   HJYHK   006400630015
BI00B32W4    4500199382     202210277116-4025                TERMINAL                 CCN000016000000016000FN00000000020221001000016000NNE   20220830121658W48 4P0P  00001600000000644800000975132W48   HJYHK   006400630017
BI00B32W4    4500199382     202210277116-4121-02             TERMINAL                 CCN000009000000009000FN00000000020221001000009000NNE   20220830121658W48 4P0P  00000450000000618800000912432W48   HJYHK   006400630015
BI00B32W4    4500199382     202210277158-3165-90             WIRE SEAL                CCN000040000000040000FN00000000020221001000040000NNE   20220830121658W48 1C0C  00004000000000124000000172432W48   HJYHK   004300270014
BI00B32W4    #4500199382    202210277123-6423-30             CONNECTOR                CCN000002000000002000FN00000000020221001000002000NNE   20220830121658W48 2F0F  00000200000001002000001167632W48   HJYHK   005600390023
BI00B32W4    #4500199382    202210277158-3004-40             RUBBER STOPPER           CCN000020000000020000FN00000000020221001000020000NNE   20220830121658W48 2C0C  00002000000000234000000306332W48   HJYHK   002700430014
BI00B32W4    #4500199382    202210277158-3121-80             WIRE SEAL                CCN000040000000040000FN00000000020221001000040000NNE   20220830121658W48 2C0C  00002000000000118000000187332W48   HJYHK   002700430014
BI00B32W4    4500199383     202210207158-3165-90             WIRE SEAL                CCN000040000000040000FN00000000020221001000040000NNE   20220830121658W48 1C0C  00004000000000124000000172432W48   HJYHK   004300270014
BI00B32W4    4500199383     202210207222-6244-40             CONNECTOR                CCN000002400000002400FN00000000020221001000002400NNE   20220830121658W48 4N0N  00000080000001239200001422032W48   HJYHK   005600390040
BI00B32W4    4500199383     202210207289-7615-30             HOUSING FEMALE ASS'Y     CCN000002880000002880FN00000000020221001000002880NNE   20220830121658W48 4N0N  00000032000000738000000948032W48   HJYHK   005400370024
BI00B32W4    4500199383     202210207172-1372-10             FRONT HOLDER             CCN000003900000003900FN00000000020221001000003900NNE   20220830121658W48 4F0F  00000390000000655200000955232W48   HJYHK   005500360039
BI00B32W4    #4500199383    202210207157-3950-80             SEAL RUBBER              CCN000040000000040000FN00000000020221001000040000NNE   20220830121658W48 2C0C  00004000000000154000000440332W48   HJYHK   002700430014
BI00B32W4    #4500199383    202210207157-3952-80             RUBBER STOPPER           CCN000010000000010000FN00000000020221001000010000NNE   20220830121658W48 2C0C  00001000000000117000000175032W48   HJYHK   002700430014
BI00B32W4    4500199384     202210067158-3165-90             WIRE SEAL                CCN000040000000040000FN00000000020221001000040000NNE   20220830121658W48 1C0C  00004000000000124000000172432W48   HJYHK   004300270014
BI00B32W4    4500199384     202210067116-5044-02             TERMINAL                 CCN000016000000016000FN00000000020221001000016000NNE   20220830121658W48 4P0P  00001600000000641600000986332W48   HJYHK   006400630017
BI00B32W4    #4500199384    202210067183-2418                CONNECTOR HOUSING        CCN000004800000004800FN00000000020221001000004800NNE   20220830121658W48 2F0F  00000480000000917000001477032W48   HJYHK   005500360039
BI00B32W4    #4500199385    202209297158-3003-90             RUBBER STOPPER           CCN000040000000040000FN00000000020220901000040000NNE   20220830121658W48 2C0C  00002000000000250000000306032W48   HJYHK   002700430014
BI00A32W4    #4500199417    202212017158-3015-10             RUBBER STOPPER           CCN000030000000030000FN00000000020221201000030000NNE   20220830121658W4J22C0C  00001000000000419500000474032W4J2  HJYHK-J 002700430014
BI00A32W4    #4500199418    202212227158-3015-10             RUBBER STOPPER           CCN000050000000050000FN00000000020221201000050000NNE   20220830121658W4J22C0C  00001000000000419500000474032W4J2  HJYHK-J 002700430014
BI00B32W4    4500199435     202210067116-2951-02             TERMINAL                 CCN000016200000016200FN00000000020221001000016200NNE   20220830121658W4284P0P  00000540000000817600001111832W428  HJYHK   006400630015
BI00B32W4    #4500199435    202210067283-8397-40             CONNECTOR                CCN000004620000004620FN00000000020221001000004620NNE   20220830121658W4282N0N  00000154000001007000001222732W428  HJYHK   005600390023
BI00B32W4    #4500199435    202210067158-3374-90             CONNECTOR WIRE SEAL      CCN000020000000020000FN00000000020221001000020000NNE   20220830121658W4282H0H  00002000000000172000000229332W428  HJYHK   002700430014
BI00B32W4    4500199436     202211037298-2278-30             HOUSING FEMALE ASS'Y     CCN000062400000062400FN00000000020221101000062400NNE   20220830121658W4284N0N  00000240000001091700001295432W428  HJYHK   005500360039
BI00B32W4    4500199436     202211037298-1865-30             HOUSING FEMALE ASS'Y     CCN000033600000033600FN00000000020221101000033600NNE   20220830121658W4284N0N  00000240000001003200001204532W428  HJYHK   005500360039
BI00A32W4    4500199458     202211177158-3169-40             SEALING PLUG             CCN000080000000080000FN00000000020221101000080000NNE   20220830121658W4D31C0C  00004000000000156000000204132W4D3  HJYHK-J 004300260014
BI00A32W4    4500199465     202210277158-3167-80             WIRE SEAL                CCN000100000000100000FN00000000020221001000100000NNE   20220830121658W4761C0C  00002000000000048000000109032W476  HJYHK-J 002700430014
BI00A32W4    @4500199474    202210247183-8049                CONNECTOR HOUSING        CCN000004000000004000FN00000000020221001000004000NNE   20220830121658W4193F0F  00000400000000583600000740032W419  HJYHK   005400370024
BI00A32W4    4500199475     202210317116-4100-02             TERMINAL                 CCN000015000000015000FN00000000020221001000015000NNE   20220830121658W4194P0P  00001500000000696000000990232W419  HJYHK   006400630015
BI00A32W4    4500199475     202210317116-4111-02             TERMINAL                 CCN000007500000007500FN00000000020221001000007500NNE   20220830121658W4194P0P  00000750000000529500000817732W419  HJYHK   006400630015
BI00A32W4    4500199475     202210317114-4111-02             TERMINAL                 CCN000012000000012000FN00000000020221001000012000NNE   20220830121658W4194P0P  00001200000000758400001087032W419  HJYHK   006400630017
BI00A32W4    4500199475     202210317116-4101-02             TERMINAL                 CCN000012000000012000FN00000000020221001000012000NNE   20220830121658W4194P0P  00001200000000582000000876232W419  HJYHK   006400630015
BI00A32W4    4500199475     202210317114-4101-02             TERMINAL                 CCN000015000000015000FN00000000020221001000015000NNE   20220830121658W4194P0P  00001500000000675000001003632W419  HJYHK   006400630017
BI00A32W4    @4500199475    202210317183-8049                CONNECTOR HOUSING        CCN000004000000004000FN00000000020221001000004000NNE   20220830121658W4193F0F  00000400000000583600000740032W419  HJYHK   005400370024
BI00A32W4    4500199476     202210317116-4025                TERMINAL                 CCN000016000000016000FN00000000020221001000016000NNE   20220830121658W4M54P0P  00001600000000644800000975132W4M5  HJYHK-J 006400630017
BI00A32W4    4500199476     202210317283-7028-30             CONNECTOR                CCN000006000000006000FN00000000020221001000006000NNE   20220830121658W4M54N0N  00000300000001452000001681332W4M5  HJYHK-J 005600390040
BI00A32W4    4500199476     202210317282-4855                HOUSING MALE ASS'Y       CCN000001200000001200FN00000000020221001000001200NNE   20220830121658W4M54N0N  00000120000001063200001283232W4M5  HJYHK-J 005500360039
BI00A32W4    4500199476     202210317158-3166-60             WIRE SEAL                CCN000040000000040000FN00000000020221001000040000NNE   20220830121658W4M51C0C  00004000000000104000000152432W4M5  HJYHK-J 002700430014
BI00A32W4    4500199476     202210317283-1030                CONNECTOR                CCN000006000000006000FN00000000020221001000006000NNE   20220830121658W4M54N0N  00000600000000988000001172032W4M5  HJYHK-J 005500360039
BI00A32W4    4500199477     202211077116-4112-02             TERMINAL                 CCN000036000000036000FN00000000020221101000036000NNE   20220830121658W4M54P0P  00000600000000450000000738232W4M5  HJYHK-J 006400630015
BI00A32W4    #4500199477    202211077186-8845                HOUSING MALE             CCN000018000000018000FN00000000020221101000018000NNE   20220830121658W4M52F0F  00000300000000690000000801532W4M5  HJYHK-J 005400370024
BI00B32W4    4500199491     202210257116-1180                TERMINAL                 CCN000078000000078000FN00000000020221001000078000NNE   20220830121658W41 1P0P  00001950000000618200000903432W41   HJYHK   006400630015
BI00B32W4    4500199491     202210257017-1180-02             TERMINAL                 CCN000072000000072000FN00000000020221001000072000NNE   20220830121658W41 4P0P  00007200000001065600001229032W41   HJYHK   005100280028
BI00B32W4    4500199375     202209227283-5845                CONNECTOR HOUSING        CCN000006000000006000FN00000000020220901000006000NNED0420220830143803W4371N0N  00000600000000444000000606332W437  HJYHK   005400370024
BI00B32W4    4500199550     202209087283-7028-30             CONNECTOR                CCN000003000000003000FN00000000020220901000003000NNE   20220830152231W4164N0N  00000300000001452000001681332W416  HJYHK   005600390040
BI00B32Y4    ITA33011       202210067158-3166-60             WIRE SEAL                CCN000280000000280000FN00000000020230101000280000NNE   20220830121658    1C0C  00004000000000104000000152432Y4    BIYAB-I 002700430014
BI00B32Y4    ITA33011       202210067158-3167-80             WIRE SEAL                CCN000400000000400000FN00000000020230101000400000NNE   20220830121658    1C0C  00002000000000048000000109032Y4    BIYAB-I 002700430014
BI00B32Y4    ITA33011       202210067158-3168-80             SEALED                   CCN000120000000120000FN00000000020230101000120000NNE   20220830121658    1C0C  00002000000000044000000092132Y4    BIYAB-I 004300260014
BI00B32Y4    ITA33011       202210067158-3169-40             SEALING PLUG             CCN000080000000080000FN00000000020230101000080000NNE   20220830121658    1C0C  00004000000000156000000204132Y4    BIYAB-I 004300260014
BI00B32Y4    ITA33011       202210067288-9556-30             SEALED ASSY MALE         CCN000002160000002160FN00000000020230101000002160NNE   20220830121658    4N0N  00000072000000537900000786332Y4    BIYAB-I 005500360039
BI00B32Y4    #ITA33011      202210067183-7725-40             HOUSING                  CCN000012000000012000FN00000000020230101000012000NNE   20220830121658    2F0F  00000600000000840000001040032Y4    BIYAB-I 005600390040
