AE00TI102208300330/08/202200000001000000000000000007360KGM  00000009520KGM  7154-5597-30             CASSETTE R/B             7154559730               0         0         0         0    0    0    00000800000000080000000255000020400000
AE00TI102208300330/08/202200000000300000000000000000750KGM  00000000918KGM  7158-3003-90             RUBBER STOPPER           7158300390               0         0         0         0    0    0    00006000000002000000000012000007200000
AE00TI102208300330/08/202200000000400000000000000003839KGM  00000004982KGM  7182-2410                CONNECTOR HOUSING        71822410                 0         0         0         0    0    0    00000480000000120000000187000008976000
AE00TI102208300330/08/202200000000200000000000000001459KGM  00000001666KGM  7182-2412                HOUSING MALE             71822412                 0         0         0         0    0    0    00000100000000050000000638000006380000
AE00TI102208300330/08/202200000000600000000000000003345KGM  00000004940KGM  7183-1616                CONNECTOR HOUSING        71831616                 0         0         0         0    0    0    00001440000000240000000077000011088000
AE00TI102208300330/08/202200000000500000000000000007476KGM  00000008855KGM  7183-2416                HOUSING                  71832416                 0         0         0         0    0    0    00001200000000240000000171000020520000
AE00TI102208300330/08/202200000000500000000000000004861KGM  00000006211KGM  7183-2511                HOUSING                  71832511                 0         0         0         0    0    0    00000800000000160000000160000012800000
AE00TI102208300330/08/202200000001000000000000000000000KGM  00000000000KGM  7183-5510-40             HOUSING FEMALE           7183551040               0         0         0         0    0    0    00001000000000100000000499000049900000
AE00TI102208300330/08/202200000000200000000000000001428KGM  00000001825KGM  7183-8927                HOUSING                  71838927                 0         0         0         0    0    0    00000800000000400000000131000010480000
AE00TI102208300330/08/202200000000300000000000000002279KGM  00000003073KGM  7187-3356                JOINT CONNECTOR          71873356                 0         0         0         0    0    0    00000360000000120000001038000037368000
AE00TI102208300330/08/202200000001100000000000000008382KGM  00000011321KGM  7187-3357-40             JOINT CONNECTOR          7187335740               0         0         0         0    0    0    00001320000000120000001059000139788000
AE00TI102208300330/08/202200000001600000000000000012211KGM  00000016486KGM  7187-3359-60             JOINT CONNECTOR          7187335960               0         0         0         0    0    0    00001920000000120000001079000207168000
AE00TI102208300330/08/202200000000200000000000000002400KGM  00000002756KGM  7282-1014                CONNECTOR                72821014                 0         0         0         0    0    0    00001200000000600000000168000020160000
AE00TI102208300330/08/202200000000400000000000000003130KGM  00000003970KGM  7282-4578                HOUSING MALE ASS'Y       72824578                 0         0         0         0    0    0    00000480000000120000000255000012240000
AE00TI102208300330/08/202200000000400000000000000004253KGM  00000005133KGM  7282-4855                HOUSING MALE ASS'Y       72824855                 0         0         0         0    0    0    00000480000000120000000347000016656000
AE00TI102208300330/08/202200000000300000000000000001954KGM  00000002614KGM  7283-4576                HOUSING FEMALE ASS'Y     72834576                 0         0         0         0    0    0    00001440000000480000000128000018432000
AE00TI102208300330/08/202200000000100000000000000000651KGM  00000000871KGM  7283-4576-30             HOUSING FEMALE ASS'Y     7283457630               0         0         0         0    0    0    00000480000000480000000131000006288000
AE00TI102208300330/08/202200000000100000000000000000651KGM  00000000871KGM  7283-4576-90             HOUSING FEMALE ASS'Y     7283457690               0         0         0         0    0    0    00000480000000480000000133000006384000
AE00TI102208300330/08/202200000000200000000000000001908KGM  00000002208KGM  7283-5830                CONNECTOR                72835830                 0         0         0         0    0    0    00001200000000600000000154000018480000
AE00TI102208300330/08/202200000000400000000000000001776KGM  00000002425KGM  7283-5845                CONNECTOR HOUSING        72835845                 0         0         0         0    0    0    00002400000000600000000133000031920000
AE00TI102208300330/08/202200000000100000000000000000444KGM  00000000606KGM  7283-5845-30             CONNECTOR HOUSING        7283584530               0         0         0         0    0    0    00000600000000600000000133000007980000
AE00TI102208300330/08/202200000001500000000000000013659KGM  00000016959KGM  7286-3885                CONNECTOR MALE ASS'Y     72863885                 0         0         0         0    0    0    00001800000000120000000295000053100000
AE00TI102208300330/08/202200000000600000000000000005464KGM  00000006784KGM  7286-3885-40             CONNECTOR MALE ASS'Y     7286388540               0         0         0         0    0    0    00000720000000120000000313000022536000
AE00TI102208300330/08/202200000000200000000000000001333KGM  00000001846KGM  7287-1915                CONNECTOR ASS'Y          72871915                 0         0         0         0    0    0    00000480000000240000000161000007728000
AE00TI102208300330/08/202200000001700000000000000017503KGM  00000021243KGM  7287-3885-40             HYBRID FEMALE ASS'Y      7287388540               0         0         0         0    0    0    00004080000000240000000216000088128000
AE00TI102208300330/08/202200000000200000000000000002333KGM  00000002773KGM  7287-8073                HOUSING FEMALE ASS'Y     72878073                 0         0         0         0    0    0    00000480000000240000000244000011712000
AE00TI102208300330/08/202200000002200000000000000015101KGM  00000019831KGM  7289-3342                HOUSING FEMALE ASS'Y     72893342                 0         0         0         0    0    0    00005280000000240000000186000098208000
AE00TI102208300330/08/202200000003500000000000000024024KGM  00000031549KGM  7289-3342-30             HOUSING FEMALE ASS'Y     7289334230               0         0         0         0    0    0    00008400000000240000000191000160440000
AE00TI102208300330/08/202200000000200000000000000000000KGM  00000000000KGM  7289-3342-30M            HOUSING FEMALE ASS'Y     7289334230M              0         0         0         0    0    0    00000204000000102000000188000003835200
AE00TI102208300330/08/202200000001000000000000000006864KGM  00000009014KGM  7289-3342-40             HOUSING FEMALE ASS'Y     7289334240               0         0         0         0    0    0    00002400000000240000000192000046080000
AE00TI102208300330/08/202200000001700000000000000011669KGM  00000015324KGM  7289-3342-90             HOUSING FEMALE ASS'Y     7289334290               0         0         0         0    0    0    00004080000000240000000196000079968000
AE00TI102208300330/08/202200000001400000000000000016128KGM  00000019068KGM  7289-6547                HOUSING FEMALE ASS'Y     72896547                 0         0         0         0    0    0    00003360000000240000000229000076944000
AE00TI102208300330/08/202200000000100000000000000000533KGM  00000000729KGM  7298-2457-90             LIF FEMALE ASSEMBLY      7298245790               0         0         0         0    0    0    00000016800000016800001464000002459520
AE00TI102208300330/08/202200000002400000000000000017808KGM  00000026928KGM  7388-2978-30             HOUSING MALE ASS'Y       7388297830               0         0         0         0    0    0    00001152000000048000001790000206208000
AE00TI102208300330/08/202200000001800000000000000023760KGM  00000028260KGM  7470-4481                J/B COMPLETE ASS'Y       74704481                 0         0         0         0    0    0    00000043200000002400000000000000000000
