AE00TO202209290229/09/202200000015800000000000000165367KGM  00000173091KGM  18000004530              AV 8 B                   AV 8 B                   0         0         0         0    0    0    00000000000158000000000211100033353800
AE00TO202209290229/09/202200000009700000000000000101522KGM  00000106264KGM  18000004550              AV 8 R                   AV 8 R                   0         0         0         0    0    0    00000000000097000000000211100020476700
AE00TO202209290229/09/202200000020800000000000000217697KGM  00000227867KGM  18000004560              AV 8 G                   AV 8 G                   0         0         0         0    0    0    00000000000208000000000211100043908800
AE00TO202209290229/09/202200000000100000000000000000992KGM  00000001041KGM  18007703730              AVSS 03F B               AVSS 03F B               0         0         0         0    0    0    00000000000020000000000011700000234000
AE00TO202209290229/09/202200000000200000000000000001984KGM  00000002082KGM  18007703740              AVSS 03F W               AVSS 03F W               0         0         0         0    0    0    00000000000040000000000011700000468000
AE00TO202209290229/09/202200000000200000000000000001984KGM  00000002082KGM  18007703741              AVSS 03F GY              AVSS 03F GY              0         0         0         0    0    0    00000000000040000000000011700000468000
AE00TO202209290229/09/202200000000900000000000000008928KGM  00000009368KGM  18007703750              AVSS 03F R               AVSS 03F R               0         0         0         0    0    0    00000000000180000000000011700002106000
AE00TO202209290229/09/202200000000100000000000000000992KGM  00000001041KGM  18007703752              AVSS 03F P               AVSS 03F P               0         0         0         0    0    0    00000000000020000000000011700000234000
AE00TO202209290229/09/202200000000200000000000000001984KGM  00000002082KGM  1800770375U              AVSS 03F BE              AVSS 03F BE              0         0         0         0    0    0    00000000000040000000000011700000468000
AE00TO202209290229/09/202200000002400000000000000023808KGM  00000024982KGM  18007703760              AVSS 03F G               AVSS 03F G               0         0         0         0    0    0    00000000000480000000000011700005616000
AE00TO202209290229/09/202200000000200000000000000001984KGM  00000002082KGM  18007703761              AVSS 03F LG              AVSS 03F LG              0         0         0         0    0    0    00000000000040000000000011700000468000
AE00TO202209290229/09/202200000000200000000000000001984KGM  00000002082KGM  18007703767              AVSS 03F G/Y             AVSS 03F G/Y             0         0         0         0    0    0    00000000000040000000000011700000468000
AE00TO202209290229/09/202200000000100000000000000000992KGM  00000001041KGM  18007703770              AVSS 03F Y               AVSS 03F Y               0         0         0         0    0    0    00000000000020000000000011700000234000
AE00TO202209290229/09/202200000000100000000000000000992KGM  00000001041KGM  18007703779              AVSS 03F Y/L             AVSS 03F Y/L             0         0         0         0    0    0    00000000000020000000000011700000234000
AE00TO202209290229/09/202200000000100000000000000000992KGM  00000001041KGM  18007703780              AVSS 03F BR              AVSS 03F BR              0         0         0         0    0    0    00000000000020000000000011700000234000
AE00TO202209290229/09/202200000000700000000000000006944KGM  00000007286KGM  18007703790              AVSS 03F L               AVSS 03F L               0         0         0         0    0    0    00000000000140000000000011700001638000
AE00TO202209290229/09/202200000000100000000000000000992KGM  00000001041KGM  18007703793              AVSS 03F L/B             AVSS 03F L/B             0         0         0         0    0    0    00000000000020000000000011700000234000
AE00TO202209290229/09/202200000000100000000000000000992KGM  00000001041KGM  18007703794              AVSS 03F L/W             AVSS 03F L/W             0         0         0         0    0    0    00000000000020000000000011700000234000
AE00TO202209290229/09/202200000000400000000000000003772KGM  00000003968KGM  18007704010              AVSS 075F GY/R           AVSS 075F GY/R           0         0         0         0    0    0    00000000000040000000000022300000892000
AE00TO202209290229/09/202200000000600000000000000005658KGM  00000005951KGM  18007704011              AVSS 075F GY/L           AVSS 075F GY/L           0         0         0         0    0    0    00000000000060000000000022300001338000
AE00TO202209290229/09/202200000000100000000000000000943KGM  00000000992KGM  18007704030              AVSS 075F B              AVSS 075F B              0         0         0         0    0    0    00000000000010000000000022300000223000
AE00TO202209290229/09/202200000000800000000000000007544KGM  00000007935KGM  18007704034              AVSS 075F B/W            AVSS 075F B/W            0         0         0         0    0    0    00000000000080000000000022300001784000
AE00TO202209290229/09/202200000000700000000000000006601KGM  00000006943KGM  18007704037              AVSS 075F B/Y            AVSS 075F B/Y            0         0         0         0    0    0    00000000000070000000000022300001561000
AE00TO202209290229/09/202200000000500000000000000004715KGM  00000004959KGM  18007704041              AVSS 075F GY             AVSS 075F GY             0         0         0         0    0    0    00000000000050000000000022300001115000
AE00TO202209290229/09/202200000000300000000000000002829KGM  00000002976KGM  18007704045              AVSS 075F W/R            AVSS 075F W/R            0         0         0         0    0    0    00000000000030000000000022300000669000
AE00TO202209290229/09/202200000000600000000000000005658KGM  00000005951KGM  18007704049              AVSS 075F W/L            AVSS 075F W/L            0         0         0         0    0    0    00000000000060000000000022300001338000
AE00TO202209290229/09/202200000000200000000000000001886KGM  00000001984KGM  18007704052              AVSS 075F P              AVSS 075F P              0         0         0         0    0    0    00000000000020000000000022300000446000
AE00TO202209290229/09/202200000000500000000000000004715KGM  00000004959KGM  18007704056              AVSS 075F R/G            AVSS 075F R/G            0         0         0         0    0    0    00000000000050000000000022300001115000
AE00TO202209290229/09/202200000000300000000000000002829KGM  00000002976KGM  18007704057              AVSS 075F R/Y            AVSS 075F R/Y            0         0         0         0    0    0    00000000000030000000000022300000669000
AE00TO202209290229/09/202200000000900000000000000008487KGM  00000008927KGM  18007704060              AVSS 075F G              AVSS 075F G              0         0         0         0    0    0    00000000000090000000000022300002007000
AE00TO202209290229/09/202200000000200000000000000001886KGM  00000001984KGM  18007704063              AVSS 075F G/B            AVSS 075F G/B            0         0         0         0    0    0    00000000000020000000000022300000446000
AE00TO202209290229/09/202200000000700000000000000006601KGM  00000006943KGM  18007704065              AVSS 075F G/R            AVSS 075F G/R            0         0         0         0    0    0    00000000000070000000000022300001561000
AE00TO202209290229/09/202200000000800000000000000007544KGM  00000007935KGM  18007704067              AVSS 075F G/Y            AVSS 075F G/Y            0         0         0         0    0    0    00000000000080000000000022300001784000
AE00TO202209290229/09/202200000000200000000000000001886KGM  00000001984KGM  18007704073              AVSS 075F Y/B            AVSS 075F Y/B            0         0         0         0    0    0    00000000000020000000000022300000446000
AE00TO202209290229/09/202200000000300000000000000002829KGM  00000002976KGM  18007704075              AVSS 075F Y/R            AVSS 075F Y/R            0         0         0         0    0    0    00000000000030000000000022300000669000
AE00TO202209290229/09/202200000000200000000000000001886KGM  00000001984KGM  18007704076              AVSS 075F Y/G            AVSS 075F Y/G            0         0         0         0    0    0    00000000000020000000000022300000446000
AE00TO202209290229/09/202200000000100000000000000000943KGM  00000000992KGM  18007704080              AVSS 075F BR             AVSS 075F BR             0         0         0         0    0    0    00000000000010000000000022300000223000
AE00TO202209290229/09/202200000000300000000000000002829KGM  00000002976KGM  18007704092              AVSS 075F V              AVSS 075F V              0         0         0         0    0    0    00000000000030000000000022300000669000
AE00TO202209290229/09/202200000000200000000000000001886KGM  00000001984KGM  18007704093              AVSS 075F L/B            AVSS 075F L/B            0         0         0         0    0    0    00000000000020000000000022300000446000
AE00TO202209290229/09/202200000000200000000000000001886KGM  00000001984KGM  18007704095              AVSS 075F L/R            AVSS 075F L/R            0         0         0         0    0    0    00000000000020000000000022300000446000
AE00TO202209290229/09/202200000000200000000000000001886KGM  00000001984KGM  18007704097              AVSS 075F L/Y            AVSS 075F L/Y            0         0         0         0    0    0    00000000000020000000000022300000446000
AE00TO202209290229/09/202200000000200000000000000001886KGM  00000001984KGM  180077040F0              AVSS 075F GY/B           AVSS 075F GY/B           0         0         0         0    0    0    00000000000020000000000022300000446000
AE00TO202209290229/09/202200000000500000000000000004710KGM  00000004955KGM  18018403740              CAVS 03 W                CAVS 03 W                0         0         0         0    0    0    00000000000100000000000010300001030000
AE00TO202209290229/09/202200000000100000000000000000942KGM  00000000991KGM  18018403753              CAVS 03 R/B              CAVS 03 R/B              0         0         0         0    0    0    00000000000020000000000010300000206000
AE00TO202209290229/09/202200000000200000000000000001884KGM  00000001982KGM  18018403784              CAVS 03 BR/W             CAVS 03 BR/W             0         0         0         0    0    0    00000000000040000000000010300000412000
AE00TO202209290229/09/202200000000300000000000000002826KGM  00000002973KGM  18018403790              CAVS 03 L                CAVS 03 L                0         0         0         0    0    0    00000000000060000000000010300000618000
AE00TO202209290229/09/202200000000700000000000000007109KGM  00000007451KGM  18018403941              CAVS 05 GY               CAVS 05 GY               0         0         0         0    0    0    00000000000105000000000015000001575000
AE00TO202209290229/09/202200000001200000000000000012186KGM  00000012773KGM  18018403951              CAVS 05 O                CAVS 05 O                0         0         0         0    0    0    00000000000180000000000015000002700000
AE00TO202209290229/09/202200000000600000000000000006093KGM  00000006386KGM  18018403952              CAVS 05 P                CAVS 05 P                0         0         0         0    0    0    00000000000090000000000015000001350000
AE00TO202209290229/09/202200000002600000000000000026403KGM  00000027674KGM  18018403970              CAVS 05 Y                CAVS 05 Y                0         0         0         0    0    0    00000000000390000000000015000005850000
AE00TO202209290229/09/202200000004200000000000000042652KGM  00000044704KGM  18018403990              CAVS 05 L                CAVS 05 L                0         0         0         0    0    0    00000000000630000000000015000009450000
AE00TO202209290229/09/202200000000100000000000000001016KGM  00000001064KGM  180184039G6              CAVS 05 P/L              CAVS 05 P/L              0         0         0         0    0    0    00000000000015000000000015000000225000
AE00TO202209290229/09/202200000004500000000000000043425KGM  00000045625KGM  18018404070              CAVS 085 Y               CAVS 085 Y               0         0         0         0    0    0    00000000000450000000000022700010215000
AE00TO202209290229/09/202200000000300000000000000003684KGM  00000003831KGM  1801R704130              CIVUS 125 B              CIVUS 125 B              0         0         0         0    0    0    00000000000030000000000031500000945000
AE00TO202209290229/09/202200000000300000000000000003684KGM  00000003831KGM  1801R704140              CIVUS 125 W              CIVUS 125 W              0         0         0         0    0    0    00000000000030000000000031500000945000
AE00TO202209290229/09/202200000001300000000000000015964KGM  00000016600KGM  1801R704152              CIVUS 125 P              CIVUS 125 P              0         0         0         0    0    0    00000000000130000000000031500004095000
AE00TO202209290229/09/202200000000500000000000000006140KGM  00000006384KGM  1801R704161              CIVUS 125 LG             CIVUS 125 LG             0         0         0         0    0    0    00000000000050000000000031500001575000
AE00TO202209290229/09/202200000002700000000000000033156KGM  00000034476KGM  1801R704170              CIVUS 125 Y              CIVUS 125 Y              0         0         0         0    0    0    00000000000270000000000031500008505000
AE00TO202209290229/09/202200000000700000000000000008596KGM  00000008938KGM  1801R704192              CIVUS 125 V              CIVUS 125 V              0         0         0         0    0    0    00000000000070000000000031500002205000
AE00TO202209290229/09/202200000001900000000000000021375KGM  00000022304KGM  1801W003930              IVSSH 05F B              IVSSH 05F B              0         0         0         0    0    0    00000000000342000000000015400005266800
AE00TO202209290229/09/202200000002500000000000000028125KGM  00000029348KGM  1801W003940              IVSSH 05F W              IVSSH 05F W              0         0         0         0    0    0    00000000000450000000000015400006930000
AE00TO202209290229/09/202200000000100000000000000001125KGM  00000001174KGM  1801W003941              IVSSH 05F GY             IVSSH 05F GY             0         0         0         0    0    0    00000000000018000000000015400000277200
AE00TO202209290229/09/202200000000100000000000000001125KGM  00000001174KGM  1801W003943              IVSSH 05F W/B            IVSSH 05F W/B            0         0         0         0    0    0    00000000000018000000000015400000277200
AE00TO202209290229/09/202200000000400000000000000004500KGM  00000004696KGM  1801W003950              IVSSH 05F R              IVSSH 05F R              0         0         0         0    0    0    00000000000072000000000015400001108800
AE00TO202209290229/09/202200000004800000000000000054000KGM  00000056347KGM  1801W003960              IVSSH 05F G              IVSSH 05F G              0         0         0         0    0    0    00000000000864000000000015400013305600
AE00TO202209290229/09/202200000000100000000000000001125KGM  00000001174KGM  1801W003961              IVSSH 05F LG             IVSSH 05F LG             0         0         0         0    0    0    00000000000018000000000015400000277200
AE00TO202209290229/09/202200000000800000000000000009000KGM  00000009391KGM  1801W003980              IVSSH 05F BR             IVSSH 05F BR             0         0         0         0    0    0    00000000000144000000000015400002217600
AE00TO202209290229/09/202200000000100000000000000001125KGM  00000001174KGM  1801W003990              IVSSH 05F L              IVSSH 05F L              0         0         0         0    0    0    00000000000018000000000015400000277200
AE00TO202209290229/09/202200000000300000000000000003375KGM  00000003522KGM  1801W003991              IVSSH 05F SB             IVSSH 05F SB             0         0         0         0    0    0    00000000000054000000000015400000831600
AE00TO202209290229/09/202200000000100000000000000001130KGM  00000001179KGM  1801W006930              IVSSH 035F B             IVSSH 035F B             0         0         0         0    0    0    00000000000025000000000011400000285000
AE00TO202209290229/09/202200000001100000000000000012430KGM  00000012968KGM  1801W006950              IVSSH 035F R             IVSSH 035F R             0         0         0         0    0    0    00000000000275000000000011400003135000
AE00TO202209290229/09/202200000000200000000000000002260KGM  00000002358KGM  1801W006952              IVSSH 035F P             IVSSH 035F P             0         0         0         0    0    0    00000000000050000000000011400000570000
AE00TO202209290229/09/202200000000100000000000000001130KGM  00000001179KGM  1801W006970              IVSSH 035F Y             IVSSH 035F Y             0         0         0         0    0    0    00000000000025000000000011400000285000
AE00TO202209290229/09/202200000003800000000000000042940KGM  00000044798KGM  1801W006991              IVSSH 035F SB            IVSSH 035F SB            0         0         0         0    0    0    00000000000950000000000011400010830000
AE00TO202209290229/09/202200000011800000000000000133340KGM  00000139109KGM  1801W006992              IVSSH 035F V             IVSSH 035F V             0         0         0         0    0    0    00000000002950000000000011400033630000
AE00TO202209290229/09/202200000004200000000000000035592KGM  00000037646KGM  181AD2001ZZ              CIVUSAS-S 035X1 B        CIVUSAS-S 035X1 B        0         0         0         0    0    0    00000000000231000000000034200007900200
AE00TO202209290229/09/202200000016900000000000000130326KGM  00000138589KGM  181AD2002ZZ              CIVUSAS-S 035X2 B        CIVUSAS-S 035X2 B        0         0         0         0    0    0    00000000000760500000000043700033233850
AE00TO202209290229/09/202200000009000000000000000068421KGM  00000072821KGM  181AD2003ZZ              CIVUSAS-S 035X3 B        CIVUSAS-S 035X3 B        0         0         0         0    0    0    00000000000315000000000055300017419500
AE00TO202209290229/09/202200000000900000000000000007236KGM  00000007676KGM  181B0910241              CAVSAS 05X2 GY           CAVSAS 05X2 GY           0         0         0         0    0    0    00000000000027000000000061200001652400
AE00TO202209290229/09/202200000000100000000000000000789KGM  00000000838KGM  181B09116K3              CAVSAS 03X2 GY/P         CAVSAS 03X2 GY/P         0         0         0         0    0    0    00000000000003500000000047400000165900
AE00TO202209290229/09/202200000000700000000000000004935KGM  00000005278KGM  181CQ7003ZZ              IVSSHCS-S 05FX2 B(B,W)   IVSSHCS-S 05FX2 B(B,W)   0         0         0         0    0    0    00000000000021000000000072600001524600
AE00TO202209290229/09/202200000000800000000000000005640KGM  00000006032KGM  181CQ7004ZZ              IVSSHCS-S 05FX2 B(R,G)   IVSSHCS-S 05FX2 B(R,G)   0         0         0         0    0    0    00000000000024000000000072600001742400
AE00TO202209290229/09/202200000000200000000000000001631KGM  00000001729KGM  181E48037ZZ              CAVSAS-S 03X4 GY         CAVSAS-S 03X4 GY         0         0         0         0    0    0    00000000000005000000000079200000396000
AE00TO202209290229/09/202200000000100000000000000000703KGM  00000000752KGM  181E48040ZZ              CAVSAS-S 03X2 GY/V       CAVSAS-S 03X2 GY/V       0         0         0         0    0    0    00000000000003500000000045900000160650
AE00TO202209290229/09/202200000000600000000000000004547KGM  00000004840KGM  181E50036ZZ              AVSSCS-S 03FX2 DGY       AVSSCS-S 03FX2 DGY       0         0         0         0    0    0    00000000000021000000000059400001247400
