AE00TI102209290529/09/202200000000300000000000000002124KGM  00000003362KGM  7114-4022                TERMINAL                 71144022                 0         0         0         0    0    0    00004500000001500000000027000012150000
AE00TI102209290529/09/202200000000900000000000000004590KGM  00000007238KGM  7114-4728-02             TERMINAL                 7114472802               0         0         0         0    0    0    00027000000003000000000014000037800000
AE00TI102209290529/09/202200000000800000000000000004128KGM  00000006482KGM  7114-4729-02             TERMINAL                 7114472902               0         0         0         0    0    0    00024000000003000000000015000036000000
AE00TI102209290529/09/202200000000900000000000000004811KGM  00000007819KGM  7116-4021                TERMINAL                 71164021                 0         0         0         0    0    0    00012150000001350000000028000034020000
AE00TI102209290529/09/202200000001600000000000000006067KGM  00000010630KGM  7116-5751-02             TERMINAL                 7116575102               0         0         0         0    0    0    00019200000001200000000025000048000000
AE00TI102209290529/09/202200000000100000000000000000154KGM  00000000440KGM  7157-3950-80             SEAL RUBBER              7157395080               0         0         0         0    0    0    00004000000004000000000044000017600000
AE00TI102209290529/09/202200000000300000000000000000750KGM  00000000918KGM  7158-3003-90             RUBBER STOPPER           7158300390               0         0         0         0    0    0    00006000000002000000000012000007200000
AE00TI102209290529/09/202200000000200000000000000001245KGM  00000001524KGM  7174-1849-70             COVER                    7174184970               0         0         0         0    0    0    00005000000002500000000046000023000000
AE00TI102209290529/09/202200000000600000000000000004377KGM  00000004998KGM  7182-2412                HOUSING MALE             71822412                 0         0         0         0    0    0    00000300000000050000000638000019140000
AE00TI102209290529/09/202200000004000000000000000009592KGM  00000019592KGM  7271-1820-30             CASE SUB ASSY,ECU        7271182030               0         0         0         0    0    0    00000072000000001800009576000068947200
AE00TI102209290529/09/202200000001400000000000000006412KGM  00000008127KGM  7282-1024                HOUSING MALE             72821024                 0         0         0         0    0    0    00001400000000100000000534000074760000
AE00TI102209290529/09/202200000000100000000000000000965KGM  00000001175KGM  7282-4577                HOUSING MALE ASS'Y       72824577                 0         0         0         0    0    0    00000240000000240000000229000005496000
AE00TI102209290529/09/202200000000600000000000000004696KGM  00000005956KGM  7282-4578                HOUSING MALE ASS'Y       72824578                 0         0         0         0    0    0    00000720000000120000000255000018360000
AE00TI102209290529/09/202200000001200000000000000012758KGM  00000015398KGM  7282-4855                HOUSING MALE ASS'Y       72824855                 0         0         0         0    0    0    00001440000000120000000347000049968000
AE00TI102209290529/09/202200000000100000000000000000230KGM  00000000339KGM  7282-5528-70             HOUSING MALE ASS'Y       7282552870               0         0         0         0    0    0    00000100000000100000000434000004340000
AE00TI102209290529/09/202200000000200000000000000001241KGM  00000001464KGM  7282-7040-30             HOUSING MALE ASS'Y       7282704030               0         0         0         0    0    0    00000240000000120000000702000016848000
AE00TI102209290529/09/202200000000100000000000000000491KGM  00000000604KGM  7282-7420-40             CONNECTOR MALE ASS'Y     7282742040               0         0         0         0    0    0    00000100000000100000000642000006420000
AE00TI102209290529/09/202200000000500000000000000005088KGM  00000006188KGM  7282-9391                HOUSING MALE ASS'Y       72829391                 0         0         0         0    0    0    00000600000000120000000325000019500000
AE00TI102209290529/09/202200000000100000000000000000855KGM  00000001013KGM  7283-1222-30             CONNECTOR HOUSING        7283122230               0         0         0         0    0    0    00000120000000120000000379000004548000
AE00TI102209290529/09/202200000000300000000000000002513KGM  00000003173KGM  7283-4578                HOUSING FEMALE ASS'Y     72834578                 0         0         0         0    0    0    00000720000000240000000190000013680000
AE00TI102209290529/09/202200000000100000000000000000954KGM  00000001104KGM  7283-5830                CONNECTOR                72835830                 0         0         0         0    0    0    00000600000000600000000154000009240000
AE00TI102209290529/09/202200000000100000000000000000954KGM  00000001104KGM  7283-5830-30             CONNECTOR                7283583030               0         0         0         0    0    0    00000600000000600000000155000009300000
AE00TI102209290529/09/202200000000600000000000000002664KGM  00000003638KGM  7283-5845                CONNECTOR HOUSING        72835845                 0         0         0         0    0    0    00003600000000600000000133000047880000
AE00TI102209290529/09/202200000000300000000000000001332KGM  00000001819KGM  7283-5845-30             CONNECTOR HOUSING        7283584530               0         0         0         0    0    0    00001800000000600000000133000023940000
AE00TI102209290529/09/202200000000100000000000000000914KGM  00000001143KGM  7283-6120                CONNECTOR HOUSING        72836120                 0         0         0         0    0    0    00000150000000150000000368000005520000
AE00TI102209290529/09/202200000000400000000000000001400KGM  00000001850KGM  7283-8721-30             HOUSING FEMALE ASS'Y     7283872130               0         0         0         0    0    0    00000400000000100000000415000016600000
AE00TI102209290529/09/202200000000100000000000000000794KGM  00000000907KGM  7283-8730-30             HOUSING FEMALE ASS'Y     7283873030               0         0         0         0    0    0    00000200000000200000000426000008520000
AE00TI102209290529/09/202200000001400000000000000012748KGM  00000015828KGM  7286-3885                CONNECTOR MALE ASS'Y     72863885                 0         0         0         0    0    0    00001680000000120000000295000049560000
AE00TI102209290529/09/202200000000500000000000000004553KGM  00000005653KGM  7286-3885-40             CONNECTOR MALE ASS'Y     7286388540               0         0         0         0    0    0    00000600000000120000000313000018780000
AE00TI102209290529/09/202200000000200000000000000001955KGM  00000002328KGM  7286-3970                CONNECTOR HOUSING        72863970                 0         0         0         0    0    0    00000022000000011000002089000004595800
AE00TI102209290529/09/202200000000400000000000000003072KGM  00000003912KGM  7286-4097                CONNECTOR MALE ASS'Y     72864097                 0         0         0         0    0    0    00000640000000160000000196000012544000
AE00TI102209290529/09/202200000000200000000000000002122KGM  00000002625KGM  7287-1917                CONNECTOR FEMALE         72871917                 0         0         0         0    0    0    00000480000000240000000253000012144000
AE00TI102209290529/09/202200000000600000000000000006178KGM  00000007498KGM  7287-3885                HYBRID FEMALE ASS'Y      72873885                 0         0         0         0    0    0    00001440000000240000000207000029808000
AE00TI102209290529/09/202200000000300000000000000003089KGM  00000003749KGM  7287-3885-30             HYBRID FEMALE ASS'Y      7287388530               0         0         0         0    0    0    00000720000000240000000215000015480000
AE00TI102209290529/09/202200000000200000000000000002059KGM  00000002499KGM  7287-3885-40             HYBRID FEMALE ASS'Y      7287388540               0         0         0         0    0    0    00000480000000240000000216000010368000
AE00TI102209290529/09/202200000000200000000000000002333KGM  00000002773KGM  7287-8073                HOUSING FEMALE ASS'Y     72878073                 0         0         0         0    0    0    00000480000000240000000244000011712000
AE00TI102209290529/09/202200000000100000000000000001229KGM  00000001449KGM  7287-8999                HOUSING FEMALE ASS'Y     72878999                 0         0         0         0    0    0    00000480000000480000000163000007824000
AE00TI102209290529/09/202200000000100000000000000001229KGM  00000001449KGM  7287-9000                HOUSING FEMALE ASS'Y     72879000                 0         0         0         0    0    0    00000480000000480000000162000007776000
AE00TI102209290529/09/202200000000100000000000000000894KGM  00000001185KGM  7287-9234                JOINT CONNECTOR          72879234                 0         0         0         0    0    0    00000960000000960000000137000013152000
AE00TI102209290529/09/202200000000500000000000000001938KGM  00000003938KGM  7288-3206                HOUSING MALE ASS'Y       72883206                 0         0         0         0    0    0    00000510000000102000000351000017901000
AE00TI102209290529/09/202200000000400000000000000003443KGM  00000004023KGM  7288-3332-30             HOUSING MALE             7288333230               0         0         0         0    0    0    00000600000000150000000354000021240000
AE00TI102209290529/09/202200000001500000000000000013005KGM  00000015180KGM  7288-3337-30             HOUSING MALE             7288333730               0         0         0         0    0    0    00002250000000150000000354000079650000
AE00TI102209290529/09/202200000000500000000000000004381KGM  00000005509KGM  7288-7969                HYBRID MALE ASS'Y        72887969                 0         0         0         0    0    0    00000160000000032000001019000016304000
AE00TI102209290529/09/202200000001200000000000000008237KGM  00000010817KGM  7289-3342                HOUSING FEMALE ASS'Y     72893342                 0         0         0         0    0    0    00002880000000240000000186000053568000
AE00TI102209290529/09/202200000004200000000000000028829KGM  00000037859KGM  7289-3342-30             HOUSING FEMALE ASS'Y     7289334230               0         0         0         0    0    0    00010080000000240000000191000192528000
AE00TI102209290529/09/202200000001000000000000000006864KGM  00000009014KGM  7289-3342-40             HOUSING FEMALE ASS'Y     7289334240               0         0         0         0    0    0    00002400000000240000000192000046080000
AE00TI102209290529/09/202200000001200000000000000008237KGM  00000010817KGM  7289-3342-90             HOUSING FEMALE ASS'Y     7289334290               0         0         0         0    0    0    00002880000000240000000196000056448000
AE00TI102209290529/09/202200000002500000000000000028800KGM  00000034050KGM  7289-6547                HOUSING FEMALE ASS'Y     72896547                 0         0         0         0    0    0    00006000000000240000000229000137400000
AE00TI102209290529/09/202200000000100000000000000001290KGM  00000001540KGM  7289-6597-70             HOUSING FEMALE ASS'Y     7289659770               0         0         0         0    0    0    00000216000000216000000616000013305600
AE00TI102209290529/09/202200000000100000000000000000839KGM  00000001119KGM  7289-6868-30             SEALED ASSY FEMALE       7289686830               0         0         0         0    0    0    00000252000000252000000332000008366400
AE00TI102209290529/09/202200000000500000000000000005016KGM  00000006023KGM  7298-1865-30             HOUSING FEMALE ASS'Y     7298186530               0         0         0         0    0    0    00001200000000240000000196000023520000
AE00TI102209290529/09/202200000000100000000000000001092KGM  00000001295KGM  7298-2278-30             HOUSING FEMALE ASS'Y     7298227830               0         0         0         0    0    0    00000240000000240000000227000005448000
AE00TI102209290529/09/202200000000500000000000000005475KGM  00000006805KGM  7298-2853-30             HOUSING FEMALE ASS'Y     7298285330               0         0         0         0    0    0    00000120000000024000003769000045228000
AE00TI102209290529/09/202200000000100000000000000001097KGM  00000001359KGM  7298-4094-10             HOUSING FEMALE ASS'Y     7298409410               0         0         0         0    0    0    00000338000000338000000241000008145800
AE00TI102209290529/09/202200000000300000000000000003423KGM  00000004068KGM  7327-6840-3W             BATTERY FUSE             732768403W               0         0         0         0    0    0    00000021600000007200009909000021403440
AE00TI102209290529/09/202200000000200000000000000002324KGM  00000002569KGM  7386-2747                CONNECTOR ASS'Y          73862747                 0         0         0         0    0    0    00000400000000200000000413000016520000
AE00TI102209290529/09/202200000000500000000000000005190KGM  00000005662KGM  7388-0314                CONNECTOR ASS'Y          73880314                 0         0         0         0    0    0    00000600000000120000000364000021840000
AE00TI102209290529/09/202200000001000000000000000007420KGM  00000011220KGM  7388-2978-30             HOUSING MALE ASS'Y       7388297830               0         0         0         0    0    0    00000480000000048000001790000085920000
