AE00TI102209290229/09/202200000001600000000000000002728KGM  00000003502KGM  7137-3047-30             UNIT PACKING             7137304730               0         0         0         0    0    0    00001600000000100000000189000030240000
AE00TI102209290229/09/202200000000500000000000000002710KGM  00000003607KGM  7147-3642-30             CLIP                     7147364230               0         0         0         0    0    0    00001500000000300000000074000011100000
AE00TI102209290229/09/202200000000300000000000000002481KGM  00000003306KGM  7154-5712-30             CASSETTE R/B             7154571230               0         0         0         0    0    0    00000240000000080000000288000006912000
AE00TI102209290229/09/202200000004900000000000000016199KGM  00000018914KGM  7158-3006-90             RUBBER STOPPER           7158300690               0         0         0         0    0    0    00098000000002000000000016000156800000
AE00TI102209290229/09/202200000001700000000000000005746KGM  00000006565KGM  7158-3009-60             RUBBER STOPPER           7158300960               0         0         0         0    0    0    00034000000002000000000012000040800000
AE00TI102209290229/09/202200000000500000000000000000520KGM  00000000762KGM  7158-3166-60             WIRE SEAL                7158316660               0         0         0         0    0    0    00020000000004000000000004000008000000
AE00TI102209290229/09/202200000002000000000000000000960KGM  00000002180KGM  7158-3167-80             WIRE SEAL                7158316780               0         0         0         0    0    0    00040000000002000000000005000020000000
AE00TI102209290229/09/202200000001000000000000000000440KGM  00000000921KGM  7158-3168-80             SEALED                   7158316880               0         0         0         0    0    0    00020000000002000000000004000008000000
AE00TI102209290229/09/202200000000500000000000000000780KGM  00000001021KGM  7158-3169-40             SEALING PLUG             7158316940               0         0         0         0    0    0    00020000000004000000000006000012000000
AE00TI102209290229/09/202200000004200000000000000056242KGM  00000062542KGM  7171-6291                HOUSING MALE             71716291                 0         0         0         0    0    0    00000806400000019200001625000131040000
AE00TI102209290229/09/202200000000900000000000000004118KGM  00000004554KGM  7172-5402-30             SEAL RUBBER              7172540230               0         0         0         0    0    0    00007200000000800000000077000055440000
AE00TI102209290229/09/202200000000100000000000000001282KGM  00000001477KGM  7182-4941                DOUBLE SIDED             71824941                 0         0         0         0    0    0    00000100000000100000000816000008160000
AE00TI102209290229/09/202200000000100000000000000000951KGM  00000001230KGM  7183-0522                HOUSING                  71830522                 0         0         0         0    0    0    00000240000000240000000113000002712000
AE00TI102209290229/09/202200000000300000000000000003178KGM  00000003737KGM  7183-2412                HOUSING                  71832412                 0         0         0         0    0    0    00000480000000160000000155000007440000
AE00TI102209290229/09/202200000000400000000000000001910KGM  00000003038KGM  7183-2413-30             CONNECTOR HOUSING        7183241330               0         0         0         0    0    0    00001920000000480000000076000014592000
AE00TI102209290229/09/202200000000200000000000000001642KGM  00000002207KGM  7183-6320                HOUSING                  71836320                 0         0         0         0    0    0    00000960000000480000000092000008832000
AE00TI102209290229/09/202200000000400000000000000002548KGM  00000003128KGM  7188-9508-40             HLC HOUSING MALE         7188950840               0         0         0         0    0    0    00000800000000200000000240000019200000
AE00TI102209290229/09/202200000000400000000000000002505KGM  00000003085KGM  7188-9509                HLC HOUSING MALE         71889509                 0         0         0         0    0    0    00000800000000200000000231000018480000
AE00TI102209290229/09/202200000000400000000000000002524KGM  00000003104KGM  7188-9510-30             HLC HOUSING MALE         7188951030               0         0         0         0    0    0    00000800000000200000000238000019040000
AE00TI102209290229/09/202200000000400000000000000002509KGM  00000003089KGM  7188-9511-80             HLC HOUSING MALE         7188951180               0         0         0         0    0    0    00000800000000200000000245000019600000
AE00TI102209290229/09/202200000000100000000000000000628KGM  00000000773KGM  7188-9512-10             HLC HOUSING MALE         7188951210               0         0         0         0    0    0    00000200000000200000000242000004840000
AE00TI102209290229/09/202200000000400000000000000003086KGM  00000003666KGM  7188-9513                HLC HOUSING MALE         71889513                 0         0         0         0    0    0    00000800000000200000000261000020880000
AE00TI102209290229/09/202200000000400000000000000003114KGM  00000003694KGM  7188-9514-90             HLC HOUSING MALE         7188951490               0         0         0         0    0    0    00000800000000200000000275000022000000
AE00TI102209290229/09/202200000000100000000000000001239KGM  00000001422KGM  7222-6244-40             CONNECTOR                7222624440               0         0         0         0    0    0    00000080000000080000000996000007968000
AE00TI102209290229/09/202200000000200000000000000001933KGM  00000002250KGM  7222-7564-30             CONNECTOR                7222756430               0         0         0         0    0    0    00000100000000050000001175000011750000
AE00TI102209290229/09/202200000008000000000000000019184KGM  00000039184KGM  7271-1820-30             CASE SUB ASSY,ECU        7271182030               0         0         0         0    0    0    00000144000000001800009576000137894400
AE00TI102209290229/09/202200000000100000000000000001124KGM  00000001213KGM  7282-7028-30             CONNECTOR                7282702830               0         0         0         0    0    0    00000200000000200000000248000004960000
AE00TI102209290229/09/202200000000600000000000000005266KGM  00000006468KGM  7283-1156                CONNECTOR                72831156                 0         0         0         0    0    0    00000480000000080000000810000038880000
AE00TI102209290229/09/202200000000100000000000000000678KGM  00000000945KGM  7283-6036                CONNECTOR HOUSING        72836036                 0         0         0         0    0    0    00000160000000160000000260000004160000
AE00TI102209290229/09/202200000000100000000000000000380KGM  00000000532KGM  7283-8123                CONNECTOR HOUSING        72838123                 0         0         0         0    0    0    00000400000000400000000138000005520000
AE00TI102209290229/09/202200000000100000000000000001229KGM  00000001449KGM  7287-9000                HOUSING FEMALE ASS'Y     72879000                 0         0         0         0    0    0    00000480000000480000000162000007776000
AE00TI102209290229/09/202200000000300000000000000002561KGM  00000003136KGM  7287-9155                HOUSING FEMALE ASS'Y     72879155                 0         0         0         0    0    0    00000288000000096000000357000010281600
AE00TI102209290229/09/202200000000100000000000000000894KGM  00000001185KGM  7287-9234                JOINT CONNECTOR          72879234                 0         0         0         0    0    0    00000960000000960000000137000013152000
AE00TI102209290229/09/202200000000100000000000000000538KGM  00000000690KGM  7287-9323                UNSEALED HOUSING SUB     72879323                 0         0         0         0    0    0    00000240000000240000000146000003504000
AE00TI102209290229/09/202200000000300000000000000002601KGM  00000003036KGM  7288-3337-30             HOUSING MALE             7288333730               0         0         0         0    0    0    00000450000000150000000354000015930000
AE00TI102209290229/09/202200000000900000000000000007803KGM  00000009108KGM  7288-3339-30             HOUSING MALE             7288333930               0         0         0         0    0    0    00001350000000150000000354000047790000
AE00TI102209290229/09/202200000003000000000000000020592KGM  00000027042KGM  7289-3342-30             HOUSING FEMALE ASS'Y     7289334230               0         0         0         0    0    0    00007200000000240000000191000137520000
AE00TI102209290229/09/202200000003200000000000000027350KGM  00000034070KGM  7289-5979-30             HOUSING FEMALE ASS'Y     7289597930               0         0         0         0    0    0    00000806400000025200001346000108541440
AE00TI102209290229/09/202200000000100000000000000001152KGM  00000001362KGM  7289-6547                HOUSING FEMALE ASS'Y     72896547                 0         0         0         0    0    0    00000240000000240000000229000005496000
AE00TI102209290229/09/202200000000400000000000000003357KGM  00000004477KGM  7289-6868-30             SEALED ASSY FEMALE       7289686830               0         0         0         0    0    0    00001008000000252000000332000033465600
AE00TI102209290229/09/202200000000100000000000000001109KGM  00000001522KGM  7289-9553-30             SEALED ASSY FEMALE       7289955330               0         0         0         0    0    0    00000294000000294000000245000007203000
