AE00TI102209290629/09/202200000001100000000000000001876KGM  00000002408KGM  7137-3047-30             UNIT PACKING             7137304730               0         0         0         0    0    0    00001100000000100000000189000020790000
AE00TI102209290629/09/202200000002200000000000000007273KGM  00000008492KGM  7158-3006-90             RUBBER STOPPER           7158300690               0         0         0         0    0    0    00044000000002000000000016000070400000
AE00TI102209290629/09/202200000001700000000000000005746KGM  00000006565KGM  7158-3009-60             RUBBER STOPPER           7158300960               0         0         0         0    0    0    00034000000002000000000012000040800000
AE00TI102209290629/09/202200000001000000000000000001040KGM  00000001524KGM  7158-3166-60             WIRE SEAL                7158316660               0         0         0         0    0    0    00040000000004000000000004000016000000
AE00TI102209290629/09/202200000003700000000000000001776KGM  00000004033KGM  7158-3167-80             WIRE SEAL                7158316780               0         0         0         0    0    0    00074000000002000000000005000037000000
AE00TI102209290629/09/202200000002100000000000000000924KGM  00000001934KGM  7158-3168-80             SEALED                   7158316880               0         0         0         0    0    0    00042000000002000000000004000016800000
AE00TI102209290629/09/202200000001000000000000000001560KGM  00000002041KGM  7158-3169-40             SEALING PLUG             7158316940               0         0         0         0    0    0    00040000000004000000000006000024000000
AE00TI102209290629/09/202200000000900000000000000006178KGM  00000008113KGM  7289-3342-30             HOUSING FEMALE ASS'Y     7289334230               0         0         0         0    0    0    00002160000000240000000191000041256000
AE00TI102209290629/09/202200000001800000000000000017910KGM  00000020250KGM  7388-0313-30             CONNECTOR ASS'Y          7388031330               0         0         0         0    0    0    00002160000000120000000376000081216000
AE00TI102209290629/09/202200000000300000000000000003114KGM  00000003397KGM  7388-0314                CONNECTOR ASS'Y          73880314                 0         0         0         0    0    0    00000360000000120000000364000013104000
AE00TI102209290629/09/202200000000200000000000000000000KGM  00000000000KGM  7470-4816E1              J/B COMPLETE ASS'Y       74704816E1               0         0         0         0    0    0    00000002000000001000000000000000000000
AE00TI102209290629/09/202200000003600000000000000047520KGM  00000056520KGM  7470-5237                J/B ASS'Y                74705237                 0         0         0         0    0    0    00000086400000002400031359000270941760
AE00TI102209290629/09/202200000002900000000000000000000KGM  00000000000KGM  7470-5301                J/B COMPLETE ASS'Y       74705301                 0         0         0         0    0    0    00000029000000001000000000000000000000
AE00TI102209290629/09/202200000001800000000000000000000KGM  00000000000KGM  7470-5307E               J/B COMPLETE ASS'Y       74705307E                0         0         0         0    0    0    00000018000000001000000000000000000000
AE00TI102209290629/09/202200000001800000000000000000000KGM  00000000000KGM  7470-5782E               J/B COMPLETE ASS'Y       74705782E                0         0         0         0    0    0    00000018000000001000000000000000000000
AE00TI102209290629/09/202200000003500000000000000000000KGM  00000000000KGM  7470-5784E1              J/B COMPLETE ASS'Y       74705784E1               0         0         0         0    0    0    00000035000000001000000000000000000000
AE00TI102209290629/09/202200000003000000000000000000000KGM  00000000000KGM  7470-5791D               J/B COMPLETE ASS'Y       74705791D                0         0         0         0    0    0    00000045000000001500000000000000000000
