AE00TI102209290129/09/202200000002500000000000000028523KGM  00000033898KGM  7327-6840-3W             BATTERY FUSE             732768403W               0         0         0         0    0    0    00000180000000007200009909000178362000
AE00TI102209290129/09/202200000002000000000000000014840KGM  00000022440KGM  7388-2978-30             HOUSING MALE ASS'Y       7388297830               0         0         0         0    0    0    00000960000000048000001790000171840000
AE00TI102209290129/09/202200000003600000000000000047520KGM  00000056520KGM  7470-3082                J/B COMPLETE ASS'Y       74703082                 0         0         0         0    0    0    00000086400000002400031298000270414720
AE00TI102209290129/09/202200000000500000000000000000000KGM  00000000000KGM  7470-4815D               J/B COMPLETE ASS'Y       74704815D                0         0         0         0    0    0    00000007500000001500000000000000000000
AE00TI102209290129/09/202200000001000000000000000000000KGM  00000000000KGM  7470-4815E1              J/B COMPLETE ASS'Y       74704815E1               0         0         0         0    0    0    00000010000000001000000000000000000000
AE00TI102209290129/09/202200000001000000000000000000000KGM  00000000000KGM  7470-4818D               J/B COMPLETE ASS'Y       74704818D                0         0         0         0    0    0    00000015000000001500000000000000000000
AE00TI102209290129/09/202200000006500000000000000000000KGM  00000000000KGM  7470-5784D               J/B COMPLETE ASS'Y       74705784D                0         0         0         0    0    0    00000097500000001500000000000000000000
AE00TI102209290129/09/202200000002500000000000000000000KGM  00000000000KGM  7470-5784E1              J/B COMPLETE ASS'Y       74705784E1               0         0         0         0    0    0    00000025000000001000000000000000000000
AE00TI102209290129/09/202200000001700000000000000000000KGM  00000000000KGM  7470-5784S               J/B COMPLETE ASS'Y       74705784S                0         0         0         0    0    0    00000001700000000100000000000000000000
AE00TI102209290129/09/202200000001000000000000000000000KGM  00000000000KGM  7470-5823D               J/B COMPLETE ASS'Y       74705823D                0         0         0         0    0    0    00000015000000001500000000000000000000
AE00TI102209290129/09/202200000000100000000000000000000KGM  00000000000KGM  7470-5936S               J/B COMPLETE ASS'Y       74705936S                0         0         0         0    0    0    00000000100000000100000000000000000000
