AE00TI102209290429/09/202200000012000000000000000028776KGM  00000058776KGM  7271-1820-30             CASE SUB ASSY,ECU        7271182030               0         0         0         0    0    0    00000216000000001800009576000206841600
AE00TI102209290429/09/202200000001500000000000000010296KGM  00000013521KGM  7289-3342-30             HOUSING FEMALE ASS'Y     7289334230               0         0         0         0    0    0    00003600000000240000000191000068760000
AE00TI102209290429/09/202200000000200000000000000000000KGM  00000000000KGM  7289-3342-30M            HOUSING FEMALE ASS'Y     7289334230M              0         0         0         0    0    0    00000204000000102000000188000003835200
AE00TI102209290429/09/202200000000600000000000000007920KGM  00000009420KGM  7470-3082                J/B COMPLETE ASS'Y       74703082                 0         0         0         0    0    0    00000014400000002400031298000045069120
AE00TI102209290429/09/202200000001800000000000000000000KGM  00000000000KGM  7470-4815D               J/B COMPLETE ASS'Y       74704815D                0         0         0         0    0    0    00000027000000001500000000000000000000
AE00TI102209290429/09/202200000001200000000000000000000KGM  00000000000KGM  7470-4818D               J/B COMPLETE ASS'Y       74704818D                0         0         0         0    0    0    00000018000000001500000000000000000000
AE00TI102209290429/09/202200000001200000000000000015840KGM  00000018840KGM  7470-5237                J/B ASS'Y                74705237                 0         0         0         0    0    0    00000028800000002400031359000090313920
AE00TI102209290429/09/202200000003600000000000000000000KGM  00000000000KGM  7470-5301                J/B COMPLETE ASS'Y       74705301                 0         0         0         0    0    0    00000036000000001000000000000000000000
AE00TI102209290429/09/202200000000500000000000000000000KGM  00000000000KGM  7470-5784D               J/B COMPLETE ASS'Y       74705784D                0         0         0         0    0    0    00000007500000001500000000000000000000
AE00TI102209290429/09/202200000001500000000000000000000KGM  00000000000KGM  7470-5791D               J/B COMPLETE ASS'Y       74705791D                0         0         0         0    0    0    00000022500000001500000000000000000000
AE00TI102209290429/09/202200000003000000000000000014820KGM  00000019830KGM  7470-5935                J/B COMPLETE ASS'Y       74705935                 0         0         0         0    0    0    00000030000000001000000000000000000000
