BI00A32DE    TT2094         20220811180D0203760              AVSSH 0.3F G             CCN000002000000002000FN00000000020220901000002000NNM26 20220805135207    1W    00000200000000515000000000032DE    TVYEV-TV000000000000VT328044
BI00B32DE    TT2094         20220901180D0203961              AVSSH 0.5F LG            CCN000031500000019500FN00000000020220901000019500NNM00 20220805134847    1W    00000150000000689000000000032DE    TVYEV-TV000000000000VT328060
BI00B32DE    TT2094         20220901180D0204080              AVSSH 0.75F BR           CCN000015000000009000FN00000000020220901000009000NNM00 20220805134924    1W    00000100000000934000000000032DE    TVYEV-TV000000000000VT328077
BI00B32DE    TT209B         2022082518007704190              AVSS 1.25F L             CCN000001600000000800FN00000000020220901000000800NNE00 20220805134733    1W    00000080000001389000000000032DE    TVYEV-TV000000000000VW128015
BI00B32DE    TT209B         2022081118007704190              AVSS 1.25F L             CCN000000800000000800FN00000000020220901000000800NNE21 20220805135052    1W    00000080000001389000000000032DE    TVYEV-TV000000000000VW128015
BI00A32DE    TT2094         20220811180D0203961              AVSSH 0.5F LG            CCN000012000000012000FN00000000020220901000012000NNM26 20220805135207    1W    00000150000000689000000000032DE    TVYEV-TV000000000000VT328060
BI00A32DE    TT2094         20220811180D0204080              AVSSH 0.75F BR           CCN000006000000006000FN00000000020220901000006000NNM26 20220805135207    1W    00000100000000934000000000032DE    TVYEV-TV000000000000VT328077
BI00B32J1    @397102        20220829181AD2001ZZ              CIVUSAS-S 0.35X1 B       CCN000008250000008250FN00000000020220801000008250NNE   20220805164141    1W    00000055000001540800000000032J1    UKYEL-BL000000000000
BI00B32J1    @397102        20220829181AD2002ZZ              CIVUSAS-S 0.35X2 B       CCN000027000000027000FN00000000020220801000027000NNE   20220805164141    1W    00000045000001713700000000032J1    UKYEL-BL000000000000
BI00B32J1    @397102        20220829181AD2003ZZ              CIVUSAS-S 0.35X3 B       CCN000010500000010500FN00000000020220801000010500NNE   20220805164141    1W    00000035000002172100000000032J1    UKYEL-BL000000000000
BI00B32J1    @397102        20220829181AD2004ZZ              CIVUSAS-S 0.35X4 B       CCN000002100000002100FN00000000020220801000002100NNE   20220805164141    1W    00000030000002799900000000032J1    UKYEL-BL000000000000
BI00B32J1    @397102        20220829181AD2009ZZ              CIVUSAS-S 0.5X3 B        CCN000001200000001200FN00000000020220801000001200NNE   20220805164141    1W    00000030000002716800000000032J1    UKYEL-BL000000000000
BI00A32P8    TAPAW-207B     2022080818007703780              AVSS 0.3F BR             CCN000002000000002000FN00000000020220701000002000NNE20 20220805084958    1W    00000200000000496000000000032P8    YIYTM   000000000000YB128001
BI00A32P8    TAPAW-207B     2022080818007703963              AVSS 0.5F G/B            CCN000001500000001500FN00000000020220701000001500NNE20 20220805084958    1W    00000150000000674000000000032P8    YIYTM   000000000000YB128002
BI00A32P8    TAPAW-207B     2022080818007703997              AVSS 0.5F L/Y            CCN000001500000001500FN00000000020220701000001500NNE20 20220805084958    1W    00000150000000674000000000032P8    YIYTM   000000000000YB128003
BI00B32W4    @4500197885    20220920181B09116K3              CAVSAS 0.3X2 GY/P        CCN000001750000001750FN00000000020220901000001750NNE   20220805092329W41 1W    00000035000002254000000000032W41   HJYHK-J 000000000000OJ129001
BI00B32W4    @4500197919    20220906181E50036ZZ              AVSSCS-S 0.3FX2 DGY      CCN000004900000004900FN00000000020220901000004900NNE   20220805092330W4591W    00000035000002165000000000032W459  HJYHK-J 000000000000OD428001
BI00B32W4    @4500197950    20221011181B32116S1              AVSSCS 0.3FX2 DGY        CCN000004200000004200FN00000000020221001000004200NNE   20220805092332W4171W    00000035000002276000000000032W417  HJYHK-J 000000000000OS429002
BI00B32W4    @4500197950    20221011181B32037Y5              AVSSCS 0.3FX1 DGY/W      CCN000001000000001000FN00000000020221001000001000NNE   20220805092332W4171W    00000050000001780000000000032W417  HJYHK-J 000000000000OS429001
BI00B32W4    @4500198023    20220920181D6910239              AVSSHCS 0.5FX2 B/L       CCN000037500000037500FN00000000020220901000037500NNE   20220805092331W4A21W    00000030000002385000000000032W4A2  HJYHK-J 000000000000OK129001
BI00A32W4    @4500198096    20221010181D6910239              AVSSHCS 0.5FX2 B/L       CCN000001200000001200FN00000000020221001000001200NNE   20220805092333W4421W    00000030000002385000000000032W442  HJYHK-J 000000000000OT429001
BI00B32W9    4500198104     2022090618009604450              AVS 5 R                  CCN000000200000000200FN00000000020220901000000200NNE   20220805092107W93 1W    00000020000005981000000000032W93   HKYHK   000000000000ZH428001
BI00A32DE    TT2094         20220811180D0203760              AVSSH 0.3F G             CCN000002000000002000FN00000000020220901000002000NNM26 20220805135207    1W    00000200000000515000000000032DE    TVYEV-TV000000000000VT328044
BI00B32DE    TT2094         20220901180D0203961              AVSSH 0.5F LG            CCN000031500000019500FN00000000020220901000019500NNM00 20220805134847    1W    00000150000000689000000000032DE    TVYEV-TV000000000000VT328060
BI00B32DE    TT2094         20220901180D0204080              AVSSH 0.75F BR           CCN000015000000009000FN00000000020220901000009000NNM00 20220805134924    1W    00000100000000934000000000032DE    TVYEV-TV000000000000VT328077
BI00B32DE    TT209B         2022082518007704190              AVSS 1.25F L             CCN000001600000000800FN00000000020220901000000800NNE00 20220805134733    1W    00000080000001389000000000032DE    TVYEV-TV000000000000VW128015
BI00B32DE    TT209B         2022081118007704190              AVSS 1.25F L             CCN000000800000000800FN00000000020220901000000800NNE21 20220805135052    1W    00000080000001389000000000032DE    TVYEV-TV000000000000VW128015
BI00A32DE    TT2094         20220811180D0203961              AVSSH 0.5F LG            CCN000012000000012000FN00000000020220901000012000NNM26 20220805135207    1W    00000150000000689000000000032DE    TVYEV-TV000000000000VT328060
BI00A32DE    TT2094         20220811180D0204080              AVSSH 0.75F BR           CCN000006000000006000FN00000000020220901000006000NNM26 20220805135207    1W    00000100000000934000000000032DE    TVYEV-TV000000000000VT328077
BI00B32J1    @397102        20220829181AD2001ZZ              CIVUSAS-S 0.35X1 B       CCN000008250000008250FN00000000020220801000008250NNE   20220805164141    1W    00000055000001540800000000032J1    UKYEL-BL000000000000
BI00B32J1    @397102        20220829181AD2002ZZ              CIVUSAS-S 0.35X2 B       CCN000027000000027000FN00000000020220801000027000NNE   20220805164141    1W    00000045000001713700000000032J1    UKYEL-BL000000000000
BI00B32J1    @397102        20220829181AD2003ZZ              CIVUSAS-S 0.35X3 B       CCN000010500000010500FN00000000020220801000010500NNE   20220805164141    1W    00000035000002172100000000032J1    UKYEL-BL000000000000
BI00B32J1    @397102        20220829181AD2004ZZ              CIVUSAS-S 0.35X4 B       CCN000002100000002100FN00000000020220801000002100NNE   20220805164141    1W    00000030000002799900000000032J1    UKYEL-BL000000000000
BI00B32J1    @397102        20220829181AD2009ZZ              CIVUSAS-S 0.5X3 B        CCN000001200000001200FN00000000020220801000001200NNE   20220805164141    1W    00000030000002716800000000032J1    UKYEL-BL000000000000
BI00A32P8    TAPAW-207B     2022080818007703780              AVSS 0.3F BR             CCN000002000000002000FN00000000020220701000002000NNE20 20220805084958    1W    00000200000000496000000000032P8    YIYTM   000000000000YB128001
BI00A32P8    TAPAW-207B     2022080818007703963              AVSS 0.5F G/B            CCN000001500000001500FN00000000020220701000001500NNE20 20220805084958    1W    00000150000000674000000000032P8    YIYTM   000000000000YB128002
BI00A32P8    TAPAW-207B     2022080818007703997              AVSS 0.5F L/Y            CCN000001500000001500FN00000000020220701000001500NNE20 20220805084958    1W    00000150000000674000000000032P8    YIYTM   000000000000YB128003
BI00B32W4    @4500197885    20220920181B09116K3              CAVSAS 0.3X2 GY/P        CCN000001750000001750FN00000000020220901000001750NNE   20220805092329W41 1W    00000035000002254000000000032W41   HJYHK-J 000000000000OJ129001
BI00B32W4    @4500197919    20220906181E50036ZZ              AVSSCS-S 0.3FX2 DGY      CCN000004900000004900FN00000000020220901000004900NNE   20220805092330W4591W    00000035000002165000000000032W459  HJYHK-J 000000000000OD428001
BI00B32W4    @4500197950    20221011181B32116S1              AVSSCS 0.3FX2 DGY        CCN000004200000004200FN00000000020221001000004200NNE   20220805092332W4171W    00000035000002276000000000032W417  HJYHK-J 000000000000OS429002
BI00B32W4    @4500197950    20221011181B32037Y5              AVSSCS 0.3FX1 DGY/W      CCN000001000000001000FN00000000020221001000001000NNE   20220805092332W4171W    00000050000001780000000000032W417  HJYHK-J 000000000000OS429001
BI00B32W4    @4500198023    20220920181D6910239              AVSSHCS 0.5FX2 B/L       CCN000037500000037500FN00000000020220901000037500NNE   20220805092331W4A21W    00000030000002385000000000032W4A2  HJYHK-J 000000000000OK129001
BI00A32W4    @4500198096    20221010181D6910239              AVSSHCS 0.5FX2 B/L       CCN000001200000001200FN00000000020221001000001200NNE   20220805092333W4421W    00000030000002385000000000032W442  HJYHK-J 000000000000OT429001
BI00B32W9    4500198104     2022090618009604450              AVS 5 R                  CCN000000200000000200FN00000000020220901000000200NNE   20220805092107W93 1W    00000020000005981000000000032W93   HKYHK   000000000000ZH428001
