BI00B1200    OHM-202207-01  20220805REEL150-36               ALUMINUM REEL            PNN000000030000000045FY00000004520220801000000000NNE00020220805153853    1N0N  0000000030000075000000083201200    YCYC    005600540017
BI00B1200    OHM-202207-01  20220805REEL150-32               ALUMINUM REEL            PNN000000003000000003FY00000000320220801000000000NNE00020220805153853    1N0N  0000000030000073800000082101200    YCYC    005600540017
BI00B1200    OHM-202207-01  20220805REEL275-36               ALUMINUM REEL            PNN000000003000000006FY00000000620220801000000000NNE00020220805153853    1N0N  0000000030000088200000096601200    YCYC    005600540017
BI00B1200    OHM-202207-01  20220805REEL275-42               ALUMINUM REEL            PNN000000040000000060FY00000006020220801000000000NNE00020220805153853    1N0N  0000000020000061200000069601200    YCYC    005600540017
BI00B1200    #H322K50022    202210067147-8717-30             CLIP                     CCN000050000000050000FN00000000020221101000050000NNE   20220805121913    2F0F  0000050000000066000000087501200    YCYC    005600390040
BI00B1200    H322K50023     202210067116-4112-02             TERMINAL                 CCN000012000000012000FN00000000020221101000012000NNE   20220805121913    4P0P  0000060000000045000000073821200    YCYC    006400630015
BI00B1200    Y022K50055     202210067288-9556-30             SEALED ASSY MALE         CCN000005040000005040FN00000000020221101000005040NNM   20220805121913    4N0N  0000007200000053790000078631200    YCYC    005500360039
BI00B32AF    JTB2103        202209237196-1947-02             TERMINAL FEMALE          CCN000009000000000000FY00000000020221001000000000NNMQ0820220805151938    4POP  00000900000000407700000692932AF    HBYHVTB 006400630015
BI00A32AF    JTB2083        202208057287-3885-30             HYBRID FEMALE ASS'Y      PCN000055200000000000FY00000000020220801000000000NNM00020220805144414    1N0N  00000240000001029600001249632AF    HBYHVTB 005500360039
BI00B32CJ    JQN2084        202208087158-3009-60             RUBBER STOPPER           CCN000160000000160000FN00000000020220801000160000NNM00020220805155726    1C0C  00002000000000338000000386232CJ    QNYHVQN 002700430014
BI00B32CJ    JQN2084        202208087158-3165-90             WIRE SEAL                CCN000200000000200000FN00000000020220801000200000NNM00020220805155726    1C0C  00004000000000124000000172432CJ    QNYHVQN 004300270014
BI00B32CJ    JQN2084        202208087287-3885                HYBRID FEMALE ASS'Y      CCN000004800000004800FN00000000020220801000004800NNM00020220805155747    1N0N  00000240000001029600001249632CJ    QNYHVQN 005500360039
BI00B32CJ    JQN2084        202208087289-3342                HOUSING FEMALE ASS'Y     CCN000012000000012000FN00000000020220801000012000NNM00020220805155747    1N0N  00000240000000686400000901432CJ    QNYHVQN 005500360039
BI00B32CJ    JQN2084        202208087289-3342-30             HOUSING FEMALE ASS'Y     CCN000024000000024000FN00000000020220801000024000NNM00020220805155747    1N0N  00000240000000686400000901432CJ    QNYHVQN 005500360039
BI00A32DJ    GHT2210E       202208087116-4486-02             TERMINAL                 CCN000140000000140000FN00000000020221001000140000NNED0720220805162530    4P0P  00002800000000666400000995132DJ    RBYIPLRB006400630017
BI00B32D9    I24110         202209157017-1180-02             TERMINAL                 CCN000078000000144000FN00000000020221001000144000NNM   20220805121913    4P0P  00007200000001065600001229032D9    UEHESTO 005100280028
BI00B32D9    I24110         202209157017-1182-02             TERMINAL                 CCN000045000000045000FN00000000020221001000045000NNM   20220805121913    4P0P  00004500000001165500001318632D9    UEHESTO 005100280028
BI00B32D9    I24211         202209227114-4100-02             TERMINAL                 CCN000018000000018000FN00000000020221001000018000NNM   20220805121913    4P0P  00001800000000748800001077432D9    UEHESTO 006400630017
BI00B32D9    I24110         202209157114-4101-02             TERMINAL                 CCN000015000000015000FN00000000020221001000015000NNM   20220805121913    4P0P  00001500000000675000001003632D9    UEHESTO 006400630017
BI00B32D9    I24010         202209087114-4231-02             TERMINAL                 CCN000018000000018000FN00000000020221001000018000NNM   20220805121913    4P0P  00001800000000554400000848032D9    UEHESTO 006400630015
BI00B32D9    I24211         202209227114-4624-02             TERMINAL                 CCN000024000000024000FN00000000020221001000024000NNM   20220805121913    4P0P  00002400000000895200001188832D9    UEHESTO 006400630015
BI00B32D9    I24110         202209157114-6041                TERMINAL                 CCN000003600000003600FN00000000020221001000003600NNM   20220805121913    4P0P  00000360000000580700000824232D9    UEHESTO 006400630015
BI00B32D9    I24211         202209227114-6041                TERMINAL                 CCN000003600000003600FN00000000020221001000003600NNM   20220805121913    4P0P  00000360000000580700000824232D9    UEHESTO 006400630015
BI00B32D9    I24211         202209227116-1180                TERMINAL                 CCN000019500000019500FN00000000020221001000019500NNM   20220805121913    1P0P  00001950000000618200000903432D9    UEHESTO 006400630015
BI00B32D9    I23910         202209017116-1257-02             TERMINAL                 CCN000024000000024000FN00000000020221001000024000NNM   20220805121913    4P0P  00002400000000518400000847132D9    UEHESTO 006400630017
BI00B32D9    I24010         202209087116-1685-02             TERMINAL                 CCN000024000000024000FN00000000020221001000024000NNM   20220805121913    4P0P  00002400000000897600001065232D9    UEHESTO 005100280028
BI00B32D9    I24010         202209087116-4037                TERMINAL                 CCN000006600000012000FN00000000020221001000012000NNM   20220805121913    4P0P  00000600000000600000000894232D9    UEHESTO 006400630015
BI00B32D9    I24110         202209157116-4037                TERMINAL                 CCN000006600000012000FN00000000020221001000012000NNM   20220805121913    4P0P  00000600000000600000000894232D9    UEHESTO 006400630015
BI00B32D9    I24211         202209227116-4037                TERMINAL                 CCN000006600000012000FN00000000020221001000012000NNM   20220805121913    4P0P  00000600000000600000000894232D9    UEHESTO 006400630015
BI00B32D9    I23910         202209017116-4100-02             TERMINAL                 CCN000015000000015000FN00000000020221001000015000NNM   20220805121913    4P0P  00001500000000696000000990232D9    UEHESTO 006400630015
BI00B32D9    I24110         202209157116-4100-02             TERMINAL                 CCN000015000000015000FN00000000020221001000015000NNM   20220805121913    4P0P  00001500000000696000000990232D9    UEHESTO 006400630015
BI00B32D9    I23910         202209017116-4101-02             TERMINAL                 CCN000012000000012000FN00000000020221001000012000NNM   20220805121913    4P0P  00001200000000582000000876232D9    UEHESTO 006400630015
BI00B32D9    I24010         202209087116-4101-02             TERMINAL                 CCN000012000000012000FN00000000020221001000012000NNM   20220805121913    4P0P  00001200000000582000000876232D9    UEHESTO 006400630015
BI00B32D9    I24110         202209157116-4101-02             TERMINAL                 CCN000012000000012000FN00000000020221001000012000NNM   20220805121913    4P0P  00001200000000582000000876232D9    UEHESTO 006400630015
BI00B32D9    I23910         202209017116-4102-02             TERMINAL                 CCN000072000000072000FN00000000020221001000072000NNM   20220805121913    4P0P  00001200000000553200000841432D9    UEHESTO 006400630015
BI00B32D9    I24010         202209087116-4102-02             TERMINAL                 CCN000072000000072000FN00000000020221001000072000NNM   20220805121913    4P0P  00001200000000553200000841432D9    UEHESTO 006400630015
BI00B32D9    I24110         202209157116-4102-02             TERMINAL                 CCN000072000000072000FN00000000020221001000072000NNM   20220805121913    4P0P  00001200000000553200000841432D9    UEHESTO 006400630015
BI00B32D9    I24211         202209227116-4102-02             TERMINAL                 CCN000072000000072000FN00000000020221001000072000NNM   20220805121913    4P0P  00001200000000553200000841432D9    UEHESTO 006400630015
BI00B32D9    I24110         202209157116-4103-02             TERMINAL                 CCN000012000000012000FN00000000020221001000012000NNM   20220805121913    4P0P  00001200000000571200000859432D9    UEHESTO 006400630015
BI00B32D9    I23910         202209017116-4121-02             TERMINAL                 CCN000004500000004500FN00000000020221001000004500NNM   20220805121913    4P0P  00000450000000618800000912432D9    UEHESTO 006400630015
BI00B32D9    I24010         202209087116-4121-02             TERMINAL                 CCN000004500000004500FN00000000020221001000004500NNM   20220805121913    4P0P  00000450000000618800000912432D9    UEHESTO 006400630015
BI00B32D9    I24110         202209157116-4121-02             TERMINAL                 CCN000004500000004500FN00000000020221001000004500NNM   20220805121913    4P0P  00000450000000618800000912432D9    UEHESTO 006400630015
BI00B32D9    I24211         202209227116-4121-02             TERMINAL                 CCN000009000000009000FN00000000020221001000009000NNM   20220805121913    4P0P  00000450000000618800000912432D9    UEHESTO 006400630015
BI00B32D9    I23910         202209017116-4122-02             TERMINAL                 CCN000004500000004500FN00000000020221001000004500NNM   20220805121913    4P0P  00000450000000656600000950232D9    UEHESTO 006400630015
BI00B32D9    I24010         202209087116-4122-02             TERMINAL                 CCN000004500000004500FN00000000020221001000004500NNM   20220805121913    4P0P  00000450000000656600000950232D9    UEHESTO 006400630015
BI00B32D9    I24110         202209157116-4122-02             TERMINAL                 CCN000009000000009000FN00000000020221001000009000NNM   20220805121913    4P0P  00000450000000656600000950232D9    UEHESTO 006400630015
BI00B32D9    I24211         202209227116-4122-02             TERMINAL                 CCN000004500000004500FN00000000020221001000004500NNM   20220805121913    4P0P  00000450000000656600000950232D9    UEHESTO 006400630015
BI00B32D9    I24211         202209227116-4124-02             TERMINAL                 CCN000003000000003000FN00000000020221001000003000NNM   20220805121913    4P0P  00000300000000459900000753532D9    UEHESTO 006400630015
BI00B32D9    I24110         202209157116-5046-02             TERMINAL                 CCN000060000000060000FN00000000020221001000060000NNM   20220805121913    4P0P  00001200000000544800000873532D9    UEHESTO 006400630017
BI00B32D9    I24211         202209227116-5046-02             TERMINAL                 CCN000072000000072000FN00000000020221001000072000NNM   20220805121913    4P0P  00001200000000544800000873532D9    UEHESTO 006400630017
BI00B32D9    I24110         202209157116-6041                TERMINAL                 CCN000004500000004500FN00000000020221001000004500NNM   20220805121913    4P0P  00000450000000716000001009632D9    UEHESTO 006400630015
BI00B32D9    I24211         202209227116-6041                TERMINAL                 CCN000004500000004500FN00000000020221001000004500NNM   20220805121913    4P0P  00000450000000716000001009632D9    UEHESTO 006400630015
BI00B32D9    I23910         202209017116-6042                TERMINAL                 CCN000003000000003000FN00000000020221001000003000NNM   20220805121913    4P0P  00000300000000523800000856132D9    UEHESTO 006400630015
BI00B32D9    I24010         202209087116-6042                TERMINAL                 CCN000006000000006000FN00000000020221001000006000NNM   20220805121913    4P0P  00000300000000523800000856132D9    UEHESTO 006400630015
BI00B32D9    I24110         202209157116-6042                TERMINAL                 CCN000009000000009000FN00000000020221001000009000NNM   20220805121913    4P0P  00000300000000523800000856132D9    UEHESTO 006400630015
BI00B32D9    I24211         202209227116-6042                TERMINAL                 CCN000006000000006000FN00000000020221001000006000NNM   20220805121913    4P0P  00000300000000523800000856132D9    UEHESTO 006400630015
BI00B32D9    I24110         202209157140-1977-30             UPPER COVER              CCN000000300000000300FN00000000020221001000000300NNM   20220805121913    1F0F  00000001000000099500000249532D9    UEHESTO 005600390040
BI00B32D9    I23910         202209017158-3006-90             RUBBER STOPPER           CCN000100000000100000FN00000000020221001000100000NNM   20220805121913    1C0C  00002000000000330600000386032D9    UEHESTO 002700430014
BI00B32D9    I24010         202209087158-3006-90             RUBBER STOPPER           CCN000100000000100000FN00000000020221001000100000NNM   20220805121913    1C0C  00002000000000330600000386032D9    UEHESTO 002700430014
BI00B32D9    I24110         202209157158-3006-90             RUBBER STOPPER           CCN000100000000100000FN00000000020221001000100000NNM   20220805121913    1C0C  00002000000000330600000386032D9    UEHESTO 002700430014
BI00B32D9    I24211         202209227158-3006-90             RUBBER STOPPER           CCN000010000000020000FN00000000020221001000020000NNM   20220805121913    1C0C  00002000000000330600000386032D9    UEHESTO 002700430014
BI00B32D9    I24010         202209087158-3070-80             RUBBER STOPPER           CCN000040000000040000FN00000000020221001000040000NNM   20220805121913    1C0C  00004000000000276000000333332D9    UEHESTO 002700430014
BI00B32D9    I24110         202209157158-3070-80             RUBBER STOPPER           CCN000040000000040000FN00000000020221001000040000NNM   20220805121913    1C0C  00004000000000276000000333332D9    UEHESTO 002700430014
BI00B32D9    I24010         202209087183-2417                CONNECTOR HOUSING        CCN000002400000002400FN00000000020221001000002400NNM   20220805121913    4F0F  00000240000001137400001297732D9    UEHESTO 005500360039
BI00B32D9    I24211         202209227183-2417                CONNECTOR HOUSING        CCN000002400000002400FN00000000020221001000002400NNM   20220805121913    4F0F  00000240000001137400001297732D9    UEHESTO 005500360039
BI00B32D9    I24110         202209157196-0396-02             TERMINAL                 CCN000015000000015000FN00000000020221001000015000NNM   20220805121913    4P0P  00001500000000949500001112932D9    UEHESTO 002800510028
BI00B32D9    I24010         202209087196-1103-02             TERMINAL                 CCN000021000000022500FN00000000020221001000022500NNM   20220805121913    4P0P  00002250000000429800000715032D9    UEHESTO 006400630015
BI00B32D9    I24211         202209227196-1104-02             TERMINAL                 CCN000021000000022500FN00000000020221001000022500NNM   20220805121913    4P0P  00002250000000441000000726232D9    UEHESTO 006400630015
BI00B32D9    I24211         202209227235-8662                DOOR GROMMET             CCN000000320000000320FN00000000020221001000000320NNM   20220805121913    4N0N  00000016000000844000001010032D9    UEHESTO 005500360039
BI00B32D9    I23910         202209017282-5574-10             CONNECTOR                CCN000004000000004000FN00000000020221001000004000NNM   20220805121913    4N0N  00000080000001235000001423032D9    UEHESTO 005600390040
BI00B32D9    I24010         202209087282-5574-10             CONNECTOR                CCN000003200000003200FN00000000020221001000003200NNM   20220805121913    4N0N  00000080000001235000001423032D9    UEHESTO 005600390040
BI00B32D9    I24110         202209157282-5574-10             CONNECTOR                CCN000003200000003200FN00000000020221001000003200NNM   20220805121913    4N0N  00000080000001235000001423032D9    UEHESTO 005600390040
BI00B32D9    I24211         202209227282-5574-10             CONNECTOR                CCN000003200000003200FN00000000020221001000003200NNM   20220805121913    4N0N  00000080000001235000001423032D9    UEHESTO 005600390040
BI00B32D9    I23910         202209017283-1028                CONNECTOR HOUSING        CCN000006000000006000FN00000000020221001000006000NNM   20220805121913    4N0N  00000600000000779000001019332D9    UEHESTO 005600390040
BI00B32D9    I23910         202209017283-1156                CONNECTOR                CCN000001600000001600FN00000000020221001000001600NNM   20220805121913    4N0N  00000080000000877600001078032D9    UEHESTO 005600390040
BI00B32D9    I24010         202209087283-1156                CONNECTOR                CCN000001600000001600FN00000000020221001000001600NNM   20220805121913    4N0N  00000080000000877600001078032D9    UEHESTO 005600390040
BI00B32D9    I24110         202209157283-1156                CONNECTOR                CCN000001600000001600FN00000000020221001000001600NNM   20220805121913    4N0N  00000080000000877600001078032D9    UEHESTO 005600390040
BI00B32D9    I24211         202209227283-1156                CONNECTOR                CCN000001600000001600FN00000000020221001000001600NNM   20220805121913    4N0N  00000080000000877600001078032D9    UEHESTO 005600390040
BI00B32D9    I24010         202209087283-1288-40             CONNECTOR HOUSING        CCN000002400000002400FN00000000020221001000002400NNM   20220805121913    1N0N  00000120000001382000001640732D9    UEHESTO 005600390040
BI00B32D9    I24211         202209227283-1288-40             CONNECTOR HOUSING        CCN000002400000002400FN00000000020221001000002400NNM   20220805121913    1N0N  00000120000001382000001640732D9    UEHESTO 005600390040
BI00B32D9    I24110         202209157283-1928-80             CONNECTOR                CCN000002000000002000FN00000000020221001000002000NNM   20220805121913    4N0N  00000200000001180000001358332D9    UEHESTO 005500360039
BI00B32D9    I23910         202209017283-1968-30             CONNECTOR                CCN000000900000000900FN00000000020221001000000900NNM   20220805121913    1N0N  00000090000001140000001318332D9    UEHESTO 005600390040
BI00B32D9    I24010         202209087283-1968-30             CONNECTOR                CCN000000900000000900FN00000000020221001000000900NNM   20220805121913    1N0N  00000090000001140000001318332D9    UEHESTO 005600390040
BI00B32D9    I24110         202209157283-1968-30             CONNECTOR                CCN000000900000000900FN00000000020221001000000900NNM   20220805121913    1N0N  00000090000001140000001318332D9    UEHESTO 005600390040
BI00B32D9    I23910         202209017283-7028-30             CONNECTOR                CCN000003000000003000FN00000000020221001000003000NNM   20220805121913    4N0N  00000300000001452000001681332D9    UEHESTO 005600390040
BI00B32D9    I24010         202209087284-2665-3W             PROTECTOR                CCN000000100000000100FN00000000020221001000000100NNM   20220805121913    4N0N  00000010000000580000000754732D9    UEHESTO 005600390040
BI00B32D9    I24110         202209157284-2665-3W             PROTECTOR                CCN000000100000000100FN00000000020221001000000100NNM   20220805121913    4N0N  00000010000000580000000754732D9    UEHESTO 005600390040
BI00B32D9    I24211         202209227284-2665-3W             PROTECTOR                CCN000000100000000100FN00000000020221001000000100NNM   20220805121913    4N0N  00000010000000580000000754732D9    UEHESTO 005600390040
BI00B32D9    I23910         202209017286-3970                CONNECTOR HOUSING        CCN000000220000000220FN00000000020221001000000220NNM   20220805121913    1N0N  00000011000000977300001164032D9    UEHESTO 005500360039
BI00B32D9    I24010         202209087286-3970                CONNECTOR HOUSING        CCN000000110000000110FN00000000020221001000000110NNM   20220805121913    1N0N  00000011000000977300001164032D9    UEHESTO 005500360039
BI00B32D9    I24110         202209157286-3970                CONNECTOR HOUSING        CCN000000110000000110FN00000000020221001000000110NNM   20220805121913    1N0N  00000011000000977300001164032D9    UEHESTO 005500360039
BI00B32D9    I24211         202209227286-3970                CONNECTOR HOUSING        CCN000000220000000220FN00000000020221001000000220NNM   20220805121913    1N0N  00000011000000977300001164032D9    UEHESTO 005500360039
BI00B32D9    I24211         202209227288-6547                CONNECTOR MALE ASS'Y     CCN000000750000000750FN00000000020221001000000750NNM   20220805121913    4N0N  00000075000001205300001340332D9    UEHESTO 005400370024
BI00B32D9    I23910         202209017289-3342                HOUSING FEMALE ASS'Y     CCN000007200000007200FN00000000020221001000007200NNM   20220805121913    1N0N  00000240000000686400000901432D9    UEHESTO 005500360039
BI00B32D9    I24010         202209087289-3342                HOUSING FEMALE ASS'Y     CCN000007200000007200FN00000000020221001000007200NNM   20220805121913    1N0N  00000240000000686400000901432D9    UEHESTO 005500360039
BI00B32D9    I24110         202209157289-3342                HOUSING FEMALE ASS'Y     CCN000007200000007200FN00000000020221001000007200NNM   20220805121913    1N0N  00000240000000686400000901432D9    UEHESTO 005500360039
BI00B32D9    I24211         202209227289-3342                HOUSING FEMALE ASS'Y     CCN000007200000007200FN00000000020221001000007200NNM   20220805121913    1N0N  00000240000000686400000901432D9    UEHESTO 005500360039
BI00B32D9    I24110         202209157327-6627-3W             BATTERY FUSE             CCN000000080000000096FN00000000020221001000000096NNM   20220805121913    4N0N  00000009600001332300001534632D9    UEHESTO 005500360039
BI00B32D9    I24010         202209087327-6731-3W             BATTERY FUSE             CCN000000768000000768FN00000000020221001000000768NNM   20220805121913    4N0N  00000006400000697600000843032D9    UEHESTO 005400370024
BI00B32D9    I23910         202209017370-0309                J/B ASS'Y                CCN000000480000000480FN00000000020221001000000480NNM   20220805121913    1J0J  00000001600000870400001260032D9    UEHESTO 005500360039
BI00B32D9    I24211         202209227370-0309                J/B ASS'Y                CCN000000480000000480FN00000000020221001000000480NNM   20220805121913    1J0J  00000001600000870400001260032D9    UEHESTO 005500360039
BI00B32D9    I24110         202209157370-0310                J/B ASS'Y                CCN000000300000000300FN00000000020221001000000300NNM   20220805121913    1J0J  00000001000000559000000809032D9    UEHESTO 005500360039
BI00B32D9    I23910         202209017388-0313-30             CONNECTOR ASS'Y          CCN000002400000002400FN00000000020221001000002400NNM   20220805121913    4N0N  00000120000000995000001125032D9    UEHESTO 005400370024
BI00B32D9    I24010         202209087388-0313-30             CONNECTOR ASS'Y          CCN000001200000001200FN00000000020221001000001200NNM   20220805121913    4N0N  00000120000000995000001125032D9    UEHESTO 005400370024
BI00B32D9    I24110         202209157388-0313-30             CONNECTOR ASS'Y          CCN000002400000002400FN00000000020221001000002400NNM   20220805121913    4N0N  00000120000000995000001125032D9    UEHESTO 005400370024
BI00B32D9    I24211         202209227388-0313-30             CONNECTOR ASS'Y          CCN000002400000002400FN00000000020221001000002400NNM   20220805121913    4N0N  00000120000000995000001125032D9    UEHESTO 005400370024
BI00B32D9    I23910         202209017388-2978-30             HOUSING MALE ASS'Y       CCN000000960000000960FN00000000020221001000000960NNM   20220805121913    1N0N  00000048000000742000001122032D9    UEHESTO 005500360039
BI00B32D9    I24010         202209087388-2978-30             HOUSING MALE ASS'Y       CCN000000960000000960FN00000000020221001000000960NNM   20220805121913    1N0N  00000048000000742000001122032D9    UEHESTO 005500360039
BI00B32D9    I24110         202209157388-2978-30             HOUSING MALE ASS'Y       CCN000000960000000960FN00000000020221001000000960NNM   20220805121913    1N0N  00000048000000742000001122032D9    UEHESTO 005500360039
BI00B32D9    I24211         202209227388-2978-30             HOUSING MALE ASS'Y       CCN000000960000000960FN00000000020221001000000960NNM   20220805121913    1N0N  00000048000000742000001122032D9    UEHESTO 005500360039
BI00B32D9    #I24211        202209227140-1978-30             LOWER COVER              CCN000000240000000240FN00000000020221001000000240NNM   20220805121913    2F0F  00000000800000207100000395132D9    UEHESTO 005500360039
BI00B32D9    #I24110        202209157154-5597-30             CASSETTE R/B             CCN000008000000008000FN00000000020221001000008000NNM   20220805121913    2F0F  00000080000000736000000952032D9    UEHESTO 005500360039
BI00B32D9    #I23910        202209017158-3003-90             RUBBER STOPPER           CCN000120000000120000FN00000000020221001000120000NNM   20220805121913    2C0C  00002000000000250000000306032D9    UEHESTO 002700430014
BI00B32D9    #I24010        202209087158-3003-90             RUBBER STOPPER           CCN000120000000120000FN00000000020221001000120000NNM   20220805121913    2C0C  00002000000000250000000306032D9    UEHESTO 002700430014
BI00B32D9    #I24110        202209157158-3003-90             RUBBER STOPPER           CCN000120000000120000FN00000000020221001000120000NNM   20220805121913    2C0C  00002000000000250000000306032D9    UEHESTO 002700430014
BI00B32D9    #I24211        202209227158-3003-90             RUBBER STOPPER           CCN000120000000120000FN00000000020221001000120000NNM   20220805121913    2C0C  00002000000000250000000306032D9    UEHESTO 002700430014
BI00B32D9    #I24010        202209087158-3004-40             RUBBER STOPPER           CCN000040000000040000FN00000000020221001000040000NNM   20220805121913    2C0C  00002000000000234000000306332D9    UEHESTO 002700430014
BI00B32D9    #I24110        202209157158-3007-10             RUBBER STOPPER           CCN000040000000040000FN00000000020221001000040000NNM   20220805121913    2H0H  00002000000000308000000362732D9    UEHESTO 002700430014
BI00B32D9    #I24211        202209227158-3007-10             RUBBER STOPPER           CCN000040000000040000FN00000000020221001000040000NNM   20220805121913    2H0H  00002000000000308000000362732D9    UEHESTO 002700430014
BI00B32D9    #I23910        202209017158-3008-80             RUBBER STOPPER           CCN000160000000160000FN00000000020221001000160000NNM   20220805121913    2C0C  00002000000000288000000343032D9    UEHESTO 004300270014
BI00B32D9    #I24010        202209087158-3008-80             RUBBER STOPPER           CCN000160000000160000FN00000000020221001000160000NNM   20220805121913    2C0C  00002000000000288000000343032D9    UEHESTO 004300270014
BI00B32D9    #I24110        202209157158-3008-80             RUBBER STOPPER           CCN000160000000160000FN00000000020221001000160000NNM   20220805121913    2C0C  00002000000000288000000343032D9    UEHESTO 004300270014
BI00B32D9    #I24211        202209227158-3008-80             RUBBER STOPPER           CCN000160000000160000FN00000000020221001000160000NNM   20220805121913    2C0C  00002000000000288000000343032D9    UEHESTO 004300270014
BI00B32D9    #I24110        202209157158-3015-10             RUBBER STOPPER           CCN000010000000010000FN00000000020221001000010000NNM   20220805121913    2C0C  00001000000000419500000474032D9    UEHESTO 002700430014
BI00B32D9    #I24110        202209157158-3017                RUBBER STOPPER           CCN000010000000010000FN00000000020221001000010000NNM   20220805121913    2C0C  00001000000000375500000435032D9    UEHESTO 002700430014
BI00B32D9    #I23910        202209017158-7585-30             BLOCK LIF                CCN000000800000000800FN00000000020221001000000800NNM   20220805121913    2F0F  00000080000000617400000771532D9    UEHESTO 005500360039
BI00B32D9    #I24010        202209087158-7585-30             BLOCK LIF                CCN000000800000000800FN00000000020221001000000800NNM   20220805121913    2F0F  00000080000000617400000771532D9    UEHESTO 005500360039
BI00B32D9    #I24110        202209157158-7585-30             BLOCK LIF                CCN000000800000000800FN00000000020221001000000800NNM   20220805121913    2F0F  00000080000000617400000771532D9    UEHESTO 005500360039
BI00B32D9    #I24211        202209227158-7585-30             BLOCK LIF                CCN000000800000000800FN00000000020221001000000800NNM   20220805121913    2F0F  00000080000000617400000771532D9    UEHESTO 005500360039
BI00B32D9    #I23910        202209017158-7586-30             BLOCK LIF                CCN000000800000000800FN00000000020221001000000800NNM   20220805121913    2F0F  00000080000000617400000844232D9    UEHESTO 005500360039
BI00B32D9    #I24010        202209087158-7586-30             BLOCK LIF                CCN000000800000000800FN00000000020221001000000800NNM   20220805121913    2F0F  00000080000000617400000844232D9    UEHESTO 005500360039
BI00B32D9    #I24110        202209157158-7586-30             BLOCK LIF                CCN000000800000000800FN00000000020221001000000800NNM   20220805121913    2F0F  00000080000000617400000844232D9    UEHESTO 005500360039
BI00B32D9    #I24211        202209227158-7586-30             BLOCK LIF                CCN000000800000000800FN00000000020221001000000800NNM   20220805121913    2F0F  00000080000000617400000844232D9    UEHESTO 005500360039
BI00B32D9    #I23910        202209017171-6291                HOUSING MALE             CCN000000384000000384FN00000000020221001000000384NNM   20220805121913    2F0F  00000019200001339100001489132D9    UEHESTO 005500360039
BI00B32D9    #I24010        202209087171-6291                HOUSING MALE             CCN000000192000000192FN00000000020221001000000192NNM   20220805121913    2F0F  00000019200001339100001489132D9    UEHESTO 005500360039
BI00B32D9    #I24110        202209157171-6291                HOUSING MALE             CCN000000192000000192FN00000000020221001000000192NNM   20220805121913    2F0F  00000019200001339100001489132D9    UEHESTO 005500360039
BI00B32D9    #I24211        202209227171-6291                HOUSING MALE             CCN000000384000000384FN00000000020221001000000384NNM   20220805121913    2F0F  00000019200001339100001489132D9    UEHESTO 005500360039
BI00B32D9    #I23910        202209017171-6292                HOUSING                  CCN000000540000000540FN00000000020221001000000540NNM   20220805121913    2F0F  00000018000000762100000980332D9    UEHESTO 005400370024
BI00B32D9    #I24010        202209087171-6292                HOUSING                  CCN000000540000000540FN00000000020221001000000540NNM   20220805121913    2F0F  00000018000000762100000980332D9    UEHESTO 005400370024
BI00B32D9    #I24110        202209157171-6292                HOUSING                  CCN000000360000000360FN00000000020221001000000360NNM   20220805121913    2F0F  00000018000000762100000980332D9    UEHESTO 005400370024
BI00B32D9    #I24211        202209227171-6292                HOUSING                  CCN000000540000000540FN00000000020221001000000540NNM   20220805121913    2F0F  00000018000000762100000980332D9    UEHESTO 005400370024
BI00B32D9    #I23910        202209017172-5629-80             RUBBER STOPPER           CCN000020000000020000FN00000000020221001000020000NNM   20220805121913    2H0H  00002000000000060000000111132D9    UEHESTO 004300270014
BI00B32D9    #I24010        202209087172-5629-80             RUBBER STOPPER           CCN000020000000020000FN00000000020221001000020000NNM   20220805121913    2H0H  00002000000000060000000111132D9    UEHESTO 004300270014
BI00B32D9    #I24110        202209157172-5629-80             RUBBER STOPPER           CCN000020000000020000FN00000000020221001000020000NNM   20220805121913    2H0H  00002000000000060000000111132D9    UEHESTO 004300270014
BI00B32D9    #I24211        202209227172-5629-80             RUBBER STOPPER           CCN000020000000020000FN00000000020221001000020000NNM   20220805121913    2H0H  00002000000000060000000111132D9    UEHESTO 004300270014
BI00B32D9    #I23910        202209017172-5630-40             RUBBER STOPPER           CCN000040000000040000FN00000000020221001000040000NNM   20220805121913    2H0H  00002000000000044000000095132D9    UEHESTO 004300270014
BI00B32D9    #I24010        202209087172-5630-40             RUBBER STOPPER           CCN000020000000020000FN00000000020221001000020000NNM   20220805121913    2H0H  00002000000000044000000095132D9    UEHESTO 004300270014
BI00B32D9    #I24110        202209157172-5630-40             RUBBER STOPPER           CCN000020000000020000FN00000000020221001000020000NNM   20220805121913    2H0H  00002000000000044000000095132D9    UEHESTO 004300270014
BI00B32D9    #I24211        202209227172-5630-40             RUBBER STOPPER           CCN000020000000020000FN00000000020221001000020000NNM   20220805121913    2H0H  00002000000000044000000095132D9    UEHESTO 004300270014
BI00B32D9    #I23910        202209017172-5631-60             RUBBER STOPPER           CCN000080000000080000FN00000000020221001000080000NNM   20220805121913    2H0H  00002000000000042000000093132D9    UEHESTO 004300270014
BI00B32D9    #I24110        202209157172-5631-60             RUBBER STOPPER           CCN000020000000020000FN00000000020221001000020000NNM   20220805121913    2H0H  00002000000000042000000093132D9    UEHESTO 004300270014
BI00B32D9    #I24010        202209087172-5632-10             DUMMY PLUG               CCN000020000000020000FN00000000020221001000020000NNM   20220805121913    2H0H  00002000000000080400000131832D9    UEHESTO 004300270014
BI00B32D9    #I24110        202209157172-5632-10             DUMMY PLUG               CCN000020000000020000FN00000000020221001000020000NNM   20220805121913    2H0H  00002000000000080400000131832D9    UEHESTO 004300270014
BI00B32D9    #I24010        202209087173-1070                CONNECTOR BRACKET        CCN000001200000001200FN00000000020221001000001200NNM   20220805121913    2F0F  00000120000000592400000968332D9    UEHESTO 005500360039
BI00B32D9    #I24010        202209087173-1071                BRACKET                  CCN000001200000001200FN00000000020221001000001200NNM   20220805121913    2F0F  00000120000001156800001388232D9    UEHESTO 005600390040
BI00B32D9    #I23910        202209017173-1516                SIDE BRACKET             CCN000000600000000600FN00000000020221001000000600NNM   20220805121913    2F0F  00000060000000960000001090032D9    UEHESTO 005500360039
BI00B32D9    #I23910        202209017173-4057                LIF LEVER                CCN000000720000000720FN00000000020221001000000720NNM   20220805121913    2F0F  00000036000000689600000839632D9    UEHESTO 005400370024
BI00B32D9    #I24010        202209087173-4057                LIF LEVER                CCN000000360000000360FN00000000020221001000000360NNM   20220805121913    2F0F  00000036000000689600000839632D9    UEHESTO 005400370024
BI00B32D9    #I24110        202209157173-4057                LIF LEVER                CCN000000360000000360FN00000000020221001000000360NNM   20220805121913    2F0F  00000036000000689600000839632D9    UEHESTO 005400370024
BI00B32D9    #I24211        202209227173-4057                LIF LEVER                CCN000000360000000360FN00000000020221001000000360NNM   20220805121913    2F0F  00000036000000689600000839632D9    UEHESTO 005400370024
BI00B32D9    #I24010        202209087174-0152                CONNECTOR                CCN000000350000000350FN00000000020221001000000350NNM   20220805121913    2F0F  00000035000000746400000918632D9    UEHESTO 005500360039
BI00B32D9    #I23910        202209017174-1749                COVER                    CCN000000294000000294FN00000000020221001000000294NNM   20220805121913    2F0F  00000029400000689600000834632D9    UEHESTO 005500360039
BI00B32D9    #I24010        202209087174-1749                COVER                    CCN000000294000000294FN00000000020221001000000294NNM   20220805121913    2F0F  00000029400000689600000834632D9    UEHESTO 005500360039
BI00B32D9    #I24110        202209157174-1749                COVER                    CCN000000294000000294FN00000000020221001000000294NNM   20220805121913    2F0F  00000029400000689600000834632D9    UEHESTO 005500360039
BI00B32D9    #I24211        202209227174-1749                COVER                    CCN000000294000000294FN00000000020221001000000294NNM   20220805121913    2F0F  00000029400000689600000834632D9    UEHESTO 005500360039
BI00B32D9    #I24110        202209157182-4941                DOUBLE SIDED             CCN000001000000001000FN00000000020221001000001000NNM   20220805121913    2F0F  00000100000001282000001477032D9    UEHESTO 005600390040
BI00B32D9    #I24211        202209227182-4941                DOUBLE SIDED             CCN000001000000001000FN00000000020221001000001000NNM   20220805121913    2F0F  00000100000001282000001477032D9    UEHESTO 005600390040
BI00B32D9    #I24110        202209157183-1616                CONNECTOR HOUSING        CCN000002400000002400FN00000000020221001000002400NNM   20220805121913    2F0F  00000240000000557500000823332D9    UEHESTO 005500360039
BI00B32D9    #I23910        202209017183-2413                CONNECTOR HOUSING        CCN000004800000004800FN00000000020221001000004800NNM   20220805121913    2F0F  00000480000000478100000760032D9    UEHESTO 005500360039
BI00B32D9    #I24010        202209087183-2413                CONNECTOR HOUSING        CCN000004800000004800FN00000000020221001000004800NNM   20220805121913    2F0F  00000480000000478100000760032D9    UEHESTO 005500360039
BI00B32D9    #I24110        202209157183-2413                CONNECTOR HOUSING        CCN000004800000004800FN00000000020221001000004800NNM   20220805121913    2F0F  00000480000000478100000760032D9    UEHESTO 005500360039
BI00B32D9    #I24211        202209227183-2413                CONNECTOR HOUSING        CCN000009600000009600FN00000000020221001000009600NNM   20220805121913    2F0F  00000480000000478100000760032D9    UEHESTO 005500360039
BI00B32D9    #I23910        202209017183-2414                CONNECTOR HOUSING        CCN000004800000004800FN00000000020221001000004800NNM   20220805121913    2F0F  00000480000000779200001061032D9    UEHESTO 005500360039
BI00B32D9    #I24110        202209157183-2414-30             CONNECTOR HOUSING        CCN000004800000004800FN00000000020221001000004800NNM   20220805121913    2F0F  00000480000000779500001061532D9    UEHESTO 005500360039
BI00B32D9    #I23910        202209017183-2418-30             CONNECTOR HOUSING        CCN000004800000004800FN00000000020221001000004800NNM   20220805121913    2F0F  00000480000000917000001235332D9    UEHESTO 005500360039
BI00B32D9    #I24010        202209087183-2418-30             CONNECTOR HOUSING        CCN000004800000004800FN00000000020221001000004800NNM   20220805121913    2F0F  00000480000000917000001235332D9    UEHESTO 005500360039
BI00B32D9    #I24211        202209227186-3973                CONNECTOR HOUSING        CCN000002400000002400FN00000000020221001000002400NNM   20220805121913    2F0F  00000240000001061800001232932D9    UEHESTO 005500360039
BI00B32D9    #I23910        202209017187-3356                JOINT CONNECTOR          CCN000002400000002400FN00000000020221001000002400NNM   20220805121913    2F0F  00000120000000759600001024432D9    UEHESTO 005600390040
BI00B32D9    #I24010        202209087187-3356                JOINT CONNECTOR          CCN000002400000002400FN00000000020221001000002400NNM   20220805121913    2F0F  00000120000000759600001024432D9    UEHESTO 005600390040
BI00B32D9    #I24110        202209157187-3356                JOINT CONNECTOR          CCN000002400000002400FN00000000020221001000002400NNM   20220805121913    2F0F  00000120000000759600001024432D9    UEHESTO 005600390040
BI00B32D9    #I24211        202209227187-3356                JOINT CONNECTOR          CCN000002400000002400FN00000000020221001000002400NNM   20220805121913    2F0F  00000120000000759600001024432D9    UEHESTO 005600390040
BI00B32D9    #I23910        202209017187-3359-60             JOINT CONNECTOR          CCN000001200000001200FN00000000020221001000001200NNM   20220805121913    2F0F  00000120000000763200001030432D9    UEHESTO 005600390040
BI00B32D9    #I24010        202209087187-3359-60             JOINT CONNECTOR          CCN000001200000001200FN00000000020221001000001200NNM   20220805121913    2F0F  00000120000000763200001030432D9    UEHESTO 005600390040
BI00B32D9    #I24110        202209157187-3359-60             JOINT CONNECTOR          CCN000001200000001200FN00000000020221001000001200NNM   20220805121913    2F0F  00000120000000763200001030432D9    UEHESTO 005600390040
BI00B32D9    #I24211        202209227187-3359-60             JOINT CONNECTOR          CCN000001200000001200FN00000000020221001000001200NNM   20220805121913    2F0F  00000120000000763200001030432D9    UEHESTO 005600390040
BI00B32D9    #I23910        202209017187-3360                JOINT CONNECTOR          CCN000001200000001200FN00000000020221001000001200NNM   20220805121913    2F0F  00000120000000759600001026832D9    UEHESTO 005600390040
BI00B32D9    #I24010        202209087187-3360                JOINT CONNECTOR          CCN000001200000001200FN00000000020221001000001200NNM   20220805121913    2F0F  00000120000000759600001026832D9    UEHESTO 005600390040
BI00B32D9    #I24110        202209157187-3360                JOINT CONNECTOR          CCN000001200000001200FN00000000020221001000001200NNM   20220805121913    2F0F  00000120000000759600001026832D9    UEHESTO 005600390040
BI00B32D9    #I24211        202209227187-3360                JOINT CONNECTOR          CCN000001200000001200FN00000000020221001000001200NNM   20220805121913    2F0F  00000120000000759600001026832D9    UEHESTO 005600390040
BI00B32D9    #I23910        202209017187-3970                CONNECTOR FLAME          CCN000000368000000368FN00000000020221001000000368NNM   20220805121913    2F0F  00000036800001414000001737332D9    UEHESTO 005600390040
BI00B32D9    #I24010        202209087187-3970                CONNECTOR FLAME          CCN000000368000000368FN00000000020221001000000368NNM   20220805121913    2F0F  00000036800001414000001737332D9    UEHESTO 005600390040
BI00B32D9    #I24110        202209157187-3970                CONNECTOR FLAME          CCN000000368000000368FN00000000020221001000000368NNM   20220805121913    2F0F  00000036800001414000001737332D9    UEHESTO 005600390040
BI00B32D9    #I24211        202209227187-3970                CONNECTOR FLAME          CCN000000368000000368FN00000000020221001000000368NNM   20220805121913    2F0F  00000036800001414000001737332D9    UEHESTO 005600390040
BI00B32D9    #I24010        202209087187-3971                CONNECTOR HOUSING        CCN000002400000002400FN00000000020221001000002400NNM   20220805121913    2F0F  00000240000000928300001099532D9    UEHESTO 005500360039
BI00B32D9    #I23910        202209017187-3974-30             CONNECTOR HOUSING        CCN000002400000002400FN00000000020221001000002400NNM   20220805121913    2F0F  00000240000000907400001078632D9    UEHESTO 005500360039
BI00B32D9    #I24110        202209157187-3975-80             CONNECTOR HOUSING        CCN000002400000002400FN00000000020221001000002400NNM   20220805121913    2F0F  00000240000000915800001087032D9    UEHESTO 005500360039
BI00B32D9    #I24211        202209227187-3976-60             CONNECTOR HOUSING        CCN000002400000002400FN00000000020221001000002400NNM   20220805121913    2F0F  00000240000000902200001073332D9    UEHESTO 005500360039
BI00B32D9    #I23910        202209017188-9509                HLC HOUSING MALE         CCN000002000000002000FN00000000020221001000002000NNM   20220805121913    2F0F  00000200000000626200000771232D9    UEHESTO 005400370024
BI00B32D9    #I24010        202209087188-9510-30             HLC HOUSING MALE         CCN000002000000002000FN00000000020221001000002000NNM   20220805121913    2F0F  00000200000000631000000776032D9    UEHESTO 005400370024
BI00B32D9    #I24010        202209087188-9511-80             HLC HOUSING MALE         CCN000002000000002000FN00000000020221001000002000NNM   20220805121913    2F0F  00000200000000627200000772232D9    UEHESTO 005400370024
BI00B32D9    #I24010        202209087188-9512-10             HLC HOUSING MALE         CCN000002000000002000FN00000000020221001000002000NNM   20220805121913    2F0F  00000200000000628200000773232D9    UEHESTO 005400370024
BI00B32D9    #I23910        202209017188-9513                HLC HOUSING MALE         CCN000002000000002000FN00000000020221001000002000NNM   20220805121913    2F0F  00000200000000771400000916432D9    UEHESTO 005400370024
BI00B32D9    #I24010        202209087189-2978-30             HOUSING FEMALE           CCN000001500000001500FN00000000020221001000001500NNM   20220805121913    2F0F  00000150000000966900001096932D9    UEHESTO 005400370024
BI00B32D9    #I24110        202209157189-2978-30             HOUSING FEMALE           CCN000001500000001500FN00000000020221001000001500NNM   20220805121913    2F0F  00000150000000966900001096932D9    UEHESTO 005400370024
BI00B32D9    #I24211        202209227189-2978-30             HOUSING FEMALE           CCN000001500000001500FN00000000020221001000001500NNM   20220805121913    2F0F  00000150000000966900001096932D9    UEHESTO 005400370024
BI00B32D9    #I24110        202209157189-3032                HOUSING FEMALE           CCN000001600000001600FN00000000020221001000001600NNM   20220805121913    2F0F  00000160000000788400001018432D9    UEHESTO 005500360039
BI00B32D9    #I24110        202209157189-3033                HOUSING FEMALE           CCN000001600000001600FN00000000020221001000001600NNM   20220805121913    2F0F  00000160000001211200001431232D9    UEHESTO 005500360039
BI00B32D9    #I24211        202209227189-3033                HOUSING FEMALE           CCN000001600000001600FN00000000020221001000001600NNM   20220805121913    2F0F  00000160000001211200001431232D9    UEHESTO 005500360039
BI00B32D9    #I24211        202209227189-3034-30             HOUSING FEMALE           CCN000001600000001600FN00000000020221001000001600NNM   20220805121913    2F0F  00000160000000972800001192832D9    UEHESTO 005500360039
BI00B32D9    #I24211        202209227189-3036                HOUSING FEMALE           CCN000001600000001600FN00000000020221001000001600NNM   20220805121913    2F0F  00000160000000921600001141632D9    UEHESTO 005500360039
BI00B32D9    #I24010        202209087189-9516-40             HOUSING                  CCN000002000000002000FN00000000020221001000002000NNM   20220805121913    2F0F  00000200000000578800000685832D9    UEHESTO 005400370024
BI00B32D9    #I24211        202209227189-9517                HOUSING                  CCN000002000000002000FN00000000020221001000002000NNM   20220805121913    2F0F  00000200000000576600000683632D9    UEHESTO 005400370024
BI00B32D9    #I24211        202209227189-9518-30             HOUSING                  CCN000002000000002000FN00000000020221001000002000NNM   20220805121913    2F0F  00000200000000583600000690632D9    UEHESTO 005400370024
BI00B32D9    #I24010        202209087189-9519-80             HOUSING                  CCN000002000000002000FN00000000020221001000002000NNM   20220805121913    2F0F  00000200000000579400000686432D9    UEHESTO 005400370024
BI00B32D9    #I24010        202209087189-9520-10             HOUSING                  CCN000002000000002000FN00000000020221001000002000NNM   20220805121913    2F0F  00000200000000578400000685432D9    UEHESTO 005400370024
BI00B32D9    #I24010        202209087189-9521                HOUSING                  CCN000002000000002000FN00000000020221001000002000NNM   20220805121913    2F0F  00000200000000754400000861432D9    UEHESTO 005400370024
BI00B32D9    #I23910        202209017283-1485                CONNECTOR                CCN000002000000002000FN00000000020221001000002000NNM   20220805121913    2N0N  00000200000001160000001340732D9    UEHESTO 005500360039
BI00B32D9    #I24010        202209087283-1485                CONNECTOR                CCN000002000000002000FN00000000020221001000002000NNM   20220805121913    2N0N  00000200000001160000001340732D9    UEHESTO 005500360039
BI00B32D9    #I24110        202209157283-1485                CONNECTOR                CCN000002000000002000FN00000000020221001000002000NNM   20220805121913    2N0N  00000200000001160000001340732D9    UEHESTO 005500360039
BI00B32D9    #I24211        202209227283-1485                CONNECTOR                CCN000002000000002000FN00000000020221001000002000NNM   20220805121913    2N0N  00000200000001160000001340732D9    UEHESTO 005500360039
BI00B32D9    #I23910        202209017283-1730                CONNECTOR                CCN000002000000002000FN00000000020221001000002000NNM   20220805121913    2N0N  00000200000001200000001349632D9    UEHESTO 005500360039
BI00B32D9    #I23910        202209017283-5834                CONNECTOR ASS'Y          CCN000006480000006480FN00000000020221001000006480NNM   20220805121913    2N0N  00000324000001296000001849732D9    UEHESTO 005600390040
BI00B32D9    #I24010        202209087283-5834                CONNECTOR ASS'Y          CCN000003240000003240FN00000000020221001000003240NNM   20220805121913    2N0N  00000324000001296000001849732D9    UEHESTO 005600390040
BI00B32D9    #I24110        202209157283-5834                CONNECTOR ASS'Y          CCN000003240000003240FN00000000020221001000003240NNM   20220805121913    2N0N  00000324000001296000001849732D9    UEHESTO 005600390040
BI00B32D9    #I24211        202209227283-5834                CONNECTOR ASS'Y          CCN000003240000003240FN00000000020221001000003240NNM   20220805121913    2N0N  00000324000001296000001849732D9    UEHESTO 005600390040
BI00B32D9    #I24211        202209227283-5834-40             CONNECTOR ASS'Y          CCN000003240000003240FN00000000020221001000003240NNM   20220805121913    2N0N  00000324000001296000001854332D9    UEHESTO 005600390040
BI00B32D9    #I24010        202209087283-8123                CONNECTOR HOUSING        CCN000004000000004000FN00000000020221001000004000NNM   20220805121913    2N0N  00000400000000380000000531732D9    UEHESTO 005600390023
BI00B32D9    #I23910        202209017283-8123-40             CONNECTOR HOUSING        CCN000020000000020000FN00000000020221001000020000NNM   20220805121913    2N0N  00000400000000380000000530032D9    UEHESTO 005600390023
BI00B32D9    #I24010        202209087283-8123-40             CONNECTOR HOUSING        CCN000004000000004000FN00000000020221001000004000NNM   20220805121913    2N0N  00000400000000380000000530032D9    UEHESTO 005600390023
BI00B32D9    #I24110        202209157283-8123-40             CONNECTOR HOUSING        CCN000004000000004000FN00000000020221001000004000NNM   20220805121913    2N0N  00000400000000380000000530032D9    UEHESTO 005600390023
BI00B32D9    #I24211        202209227283-8123-40             CONNECTOR HOUSING        CCN000004000000004000FN00000000020221001000004000NNM   20220805121913    2N0N  00000400000000380000000530032D9    UEHESTO 005600390023
BI00B32D9    #I24110        202209157283-8226-30             CONNECTOR                CCN000002000000002000FN00000000020221001000002000NNM   20220805121913    2N0N  00000200000000820000001008032D9    UEHESTO 005400370024
BI00B32D9    #I24110        202209157287-7859                HYBRID FEMALE ASS'Y      CCN000001300000002400FN00000000020221001000002400NNM   20220805121913    2N0N  00000120000000461600000671632D9    UEHESTO 005500360039
BI00B32D9    #I24211        202209227287-7859                HYBRID FEMALE ASS'Y      CCN000001300000002400FN00000000020221001000002400NNM   20220805121913    2N0N  00000120000000461600000671632D9    UEHESTO 005500360039
BI00B32D9    #I23910        202209017287-7860                HYBRID FEMALE ASS'Y      CCN000000550000001200FN00000000020221001000001200NNM   20220805121913    2N0N  00000120000000644000000650432D9    UEHESTO 005500360039
BI00B32D9    #I24010        202209087287-7860                HYBRID FEMALE ASS'Y      CCN000000550000001200FN00000000020221001000001200NNM   20220805121913    2N0N  00000120000000644000000650432D9    UEHESTO 005500360039
BI00B32D9    #I24110        202209157287-7860                HYBRID FEMALE ASS'Y      CCN000000550000001200FN00000000020221001000001200NNM   20220805121913    2N0N  00000120000000644000000650432D9    UEHESTO 005500360039
BI00B32D9    #I24211        202209227287-7860                HYBRID FEMALE ASS'Y      CCN000000550000001200FN00000000020221001000001200NNM   20220805121913    2N0N  00000120000000644000000650432D9    UEHESTO 005500360039
BI00B32D9    #I24211        202209227289-2912-40             HOUSING FEMALE ASS'Y     CCN000002000000002000FN00000000020221001000002000NNM   20220805121913    2N0N  00000200000000804000000931032D9    UEHESTO 005400370024
BI00B32D9    #I24211        202209227289-2918-40             HOUSING FEMALE ASS'Y     CCN000006000000006000FN00000000020221001000006000NNM   20220805121913    2N0N  00000100000001020000001147032D9    UEHESTO 005400370024
BI00B32D9    #I24211        202209227289-3622-30             HOUSING FEMALE ASS'Y     CCN000000432000000432FN00000000020221001000000432NNM   20220805121913    2N0N  00000043200000839400001038432D9    UEHESTO 005400370024
BI00B32H8    #TY22101 MW    202209167157-7812                SEAL RUBBER              CCN000150000000150000FN00000000020221001000150000NNMD0220220805144258    2C0C  00001000000000137000000202032H8    TYTYC   002700430014
BI00B32H8    #TY22102 MW    202209237157-7812                SEAL RUBBER              CCN000300000000300000FN00000000020221001000300000NNMD0220220805144334    2C0C  00001000000000137000000202032H8    TYTYC   002700430014
BI00B32H8    #TY22103 MW    202209307157-7812                SEAL RUBBER              CCN000400000000400000FN00000000020221001000400000NNMD0220220805144406    2C0C  00001000000000137000000202032H8    TYTYC   002700430014
BI00B32J1    395500         202208047235-8662                DOOR GROMMET             CCN000009440000009440FY00000944020220801000000000NNE00020220805132346    4N0N  00000016000000844000001010032J1    UKYEL-BL005500360039
BI00B32J1    396263         202208047114-1475                TERMINAL                 CCN000040500000040500FY00004050020220801000000000NNM00020220805132457    4P0P  00001350000000480600000774232J1    UKYEL-BL006400630015
BI00B32J1    396263         202208047116-4020                TERMINAL                 CCN000108000000108000FY00010800020220801000000000NNM00020220805132457    4P0P  00001350000000513000000798232J1    UKYEL-BL006400630015
BI00B32J1    396263         202208047196-1461-02             TERMINAL FEMALE          CCN000312000000312000FY00031200020220801000000000NNM00020220805132457    4P0P  00002400000000386400000671632J1    UKYEL-BL006400630015
BI00B32J1    396263         202208047196-1461-06             TERMINAL FEMALE          CCN000024000000024000FY00002400020220801000000000NNM00020220805132457    4P0P  00002400000000386400000692932J1    UKYEL-BL006400630015
BI00B32J1    396263         202208047196-1462-02             TERMINAL FEMALE          CCN000021000000021000FY00002100020220801000000000NNM00020220805132457    4P0P  00002100000000352800000638032J1    UKYEL-BL006400630015
BI00B32J1    396263         202208047282-5574-10             CONNECTOR                CCN000011200000011200FY00001120020220801000000000NNM00020220805132457    4N0N  00000080000001235000001423032J1    UKYEL-BL005600390040
BI00B32J1    396263         202208047283-5545-10             CONNECTOR                CCN000001800000001800FY00000180020220801000000000NNM00020220805132457    4N0N  00000060000001279000001409232J1    UKYEL-BL005600390040
BI00B32J1    396263         202208047283-6448-40             CONNECTOR                CCN000004500000004500FY00000450020220801000000000NNM00020220805132457    4N0N  00000150000001087000001329032J1    UKYEL-BL005600390040
BI00B32J1    396263         202208047298-1866-40             HOUSING FEMALE ASS'Y     CCN000016800000016800FY00001680020220801000000000NNM00020220805132457    4N0N  00000240000001003000001217932J1    UKYEL-BL005500360039
BI00B32J1    396263         202208047298-1867-10             HOUSING FEMALE ASS'Y     CCN000002400000002400FY00000240020220801000000000NNM00020220805132457    4N0N  00000240000000998400001213332J1    UKYEL-BL005500360039
BI00B32J1    396263         202208047298-1868-80             HOUSING FEMALE ASS'Y     CCN000007200000007200FY00000720020220801000000000NNM00020220805132457    4N0N  00000240000001028600001243532J1    UKYEL-BL005500360039
BI00B32J1    396263         202208047298-1869-30             HOUSING FEMALE ASS'Y     CCN000062400000062400FY00006240020220801000000000NNM00020220805132457    4N0N  00000120000000737000000939832J1    UKYEL-BL005500360039
BI00B32J1    396263         202208047298-2278-30             HOUSING FEMALE ASS'Y     CCN000009600000009600FY00000960020220801000000000NNM00020220805132457    4N0N  00000240000001091700001295432J1    UKYEL-BL005500360039
BI00B32J1    396263         202208047298-2507-30             HOUSING FEMALE ASS'Y     CCN000003600000003600FY00000360020220801000000000NNM00020220805132457    4N0N  00000120000000713200000914532J1    UKYEL-BL005500360039
BI00B32J1    396263         202208047298-2508-30             HOUSING FEMALE ASS'Y     CCN000003600000003600FY00000360020220801000000000NNM00020220805132457    4N0N  00000120000000822000001005032J1    UKYEL-BL005500360039
BI00B32J1    396263         202208047298-2509-30             HOUSING FEMALE ASS'Y     CCN000007200000007200FY00000720020220801000000000NNM00020220805132457    4N0N  00000120000000857500001062532J1    UKYEL-BL005500360039
BI00B32J1    396263         202208047327-6654-3W             BATTERY FUSE             CCN000000864000000864FY00000086420220801000000000NNM00020220805132457    4N0N  00000009600001132300001312432J1    UKYEL-BL005500360039
BI00B32J1    396406         202208047114-1475                TERMINAL                 CCN000081000000081000FY00008100020220801000000000NNM00020220805132516    4P0P  00001350000000480600000774232J1    UKYEL-BL006400630015
BI00B32J1    396854         202208227282-6568-40             CONNECTOR                CCN000014000000014000FN00000000020220801000014000NNMD0020220805121913    4N0N  00000100000001206000001370732J1    UKYEL-BL005500360039
BI00B32J1    396854         202208227283-5830                CONNECTOR                CCN000048000000048000FN00000000020220801000048000NNMD0020220805121913    1N47  00000600000000954000001104032J1    UKYEL-BL005500360039
BI00B32J1    396854         202208227298-1187-30             SHUNT RING ASSEMBLY      CCN000020000000020000FN00000000020220801000020000NNMD0020220805121913    4N0N  00001000000000647000000769532J1    UKYEL-BL005400370024
BI00B32J1    396854         202208297283-5830                CONNECTOR                CCN000024000000000000FY00000000020220801000000000NNMQ0020220805102758    1N47  00000600000000954000001104032J1    UKYEL-BL005500360039
BI00B32J1    397082         202208297114-1475                TERMINAL                 CCN000013500000013500FN00000000020220801000013500NNM   20220805121913    4P0P  00001350000000480600000774232J1    UKYEL-BL006400630015
BI00B32J1    397082         202208297114-6041                TERMINAL                 CCN000028800000028800FN00000000020220801000028800NNM   20220805121913    4P0P  00000360000000580700000824232J1    UKYEL-BL006400630015
BI00B32J1    397082         202208297116-1180                TERMINAL                 CCN000058500000058500FN00000000020220801000058500NNM   20220805121913    1P0P  00001950000000618200000903432J1    UKYEL-BL006400630015
BI00B32J1    397082         202208297116-4020                TERMINAL                 CCN000067500000067500FN00000000020220801000067500NNM   20220805121913    4P0P  00001350000000513000000798232J1    UKYEL-BL006400630015
BI00B32J1    397082         202208297116-6042                TERMINAL                 CCN000021000000021000FN00000000020220801000021000NNM   20220805121913    4P0P  00000300000000523800000856132J1    UKYEL-BL006400630015
BI00B32J1    397082         202208297158-3006-90             RUBBER STOPPER           CCN000060000000060000FN00000000020220801000060000NNM   20220805121913    1C0C  00002000000000330600000386032J1    UKYEL-BL002700430014
BI00B32J1    397082         202208297158-3165-90             WIRE SEAL                CCN000160000000160000FN00000000020220801000160000NNM   20220805121913    1C0C  00004000000000124000000172432J1    UKYEL-BL004300270014
BI00B32J1    397082         202208297158-3166-60             WIRE SEAL                CCN002160000002160000FN00000000020220801002160000NNM   20220805121913    1C0C  00004000000000104000000152432J1    UKYEL-BL002700430014
BI00B32J1    397082         202208297158-3167-61             WIRE SEAL                CCN000100000000100000FN00000000020220801000100000NNM   20220805121913    1C0C  00002000000000048000000096432J1    UKYEL-BL004300270014
BI00B32J1    397082         202208297158-3167-80             WIRE SEAL                CCN002640000002640000FN00000000020220801002640000NNM   20220805121913    1C0C  00002000000000048000000109032J1    UKYEL-BL002700430014
BI00B32J1    397082         202208297158-3168-80             SEALED                   CCN001400000001400000FN00000000020220801001400000NNM   20220805121913    1C0C  00002000000000044000000092132J1    UKYEL-BL004300260014
BI00B32J1    397082         202208297196-1461-02             TERMINAL FEMALE          CCN000336000000336000FN00000000020220801000336000NNM   20220805121913    4P0P  00002400000000386400000671632J1    UKYEL-BL006400630015
BI00B32J1    397082         202208297196-1461-06             TERMINAL FEMALE          CCN000288000000288000FN00000000020220801000288000NNM   20220805121913    4P0P  00002400000000386400000692932J1    UKYEL-BL006400630015
BI00B32J1    397082         202208297196-1462-02             TERMINAL FEMALE          CCN000042000000042000FN00000000020220801000042000NNM   20220805121913    4P0P  00002100000000352800000638032J1    UKYEL-BL006400630015
BI00B32J1    397082         202208297282-5574-10             CONNECTOR                CCN000020000000020000FN00000000020220801000020000NNM   20220805121913    4N0N  00000080000001235000001423032J1    UKYEL-BL005600390040
BI00B32J1    397082         202208297282-5684-10             CONNECTOR                CCN000002400000002400FN00000000020220801000002400NNM   20220805121913    4N0N  00000120000001477000001656032J1    UKYEL-BL005600390040
BI00B32J1    397082         202208297282-6448-40             CONNECTOR                CCN000004000000004000FN00000000020220801000004000NNM   20220805121913    4N0N  00000080000000887000001152732J1    UKYEL-BL005600390040
BI00B32J1    397082         202208297282-6568-40             CONNECTOR                CCN000005000000005000FN00000000020220801000005000NNM   20220805121913    4N0N  00000100000001206000001370732J1    UKYEL-BL005500360039
BI00B32J1    397082         202208297283-1968-30             CONNECTOR                CCN000000900000000900FN00000000020220801000000900NNM   20220805121913    1N0N  00000090000001140000001318332J1    UKYEL-BL005600390040
BI00B32J1    397082         202208297283-5545-10             CONNECTOR                CCN000006000000006000FN00000000020220801000006000NNM   20220805121913    4N0N  00000060000001279000001409232J1    UKYEL-BL005600390040
BI00B32J1    397082         202208297283-5846                HOUSING                  CCN000007500000007500FN00000000020220801000007500NNM   20220805121913    1N0N  00000150000000885000001102032J1    UKYEL-BL005600390040
BI00B32J1    397082         202208297283-6448-40             CONNECTOR                CCN000009000000009000FN00000000020220801000009000NNM   20220805121913    4N0N  00000150000001087000001329032J1    UKYEL-BL005600390040
BI00B32J1    397082         202208297283-8630                CONNECTOR ASS'Y          CCN000060000000060000FN00000000020220801000060000NNM   20220805121913    4N0N  00000600000000540000000701332J1    UKYEL-BL005400370024
BI00B32J1    397082         202208297298-1868-80             HOUSING FEMALE ASS'Y     CCN000002400000002400FN00000000020220801000002400NNM   20220805121913    4N0N  00000240000001028600001243532J1    UKYEL-BL005500360039
BI00B32J1    397082         202208297327-6840-3W             BATTERY FUSE             CCN000002808000002808FN00000000020220801000002808NNM   20220805121913    4N0N  00000007200001140900001355932J1    UKYEL-BL005500360039
BI00B32J1    #397082        202208297047-5344                RETAINER                 CCN000050000000050000FN00000000020220801000050000NNM   20220805121913    2F0F  00001000000000870000001016032J1    UKYEL-BL005600390023
BI00B32J1    #397082        202208297134-4547-30             COVER                    CCN000007500000007500FN00000000020220801000007500NNM   20220805121913    2F0F  00000250000000989000001156732J1    UKYEL-BL005600390040
BI00B32J1    #397082        202208297147-8717-30             CLIP                     CCN000005000000005000FN00000000020220801000005000NNM   20220805121913    2F0F  00000500000000660000000875032J1    UKYEL-BL005600390040
BI00B32J1    #397082        202208297157-3821                RUBBER STOPPER           CCN000020000000020000FN00000000020220801000020000NNM   20220805121913    2C0C  00002000000000176000000238032J1    UKYEL-BL002700430014
BI00B32J1    #397082        202208297158-3003-90             RUBBER STOPPER           CCN000020000000020000FN00000000020220801000020000NNM   20220805121913    2C0C  00002000000000250000000306032J1    UKYEL-BL002700430014
BI00B32J1    #397082        202208297183-7725-40             HOUSING                  CCN000006000000006000FN00000000020220801000006000NNM   20220805121913    2F0F  00000600000000840000001040032J1    UKYEL-BL005600390040
BI00B32J1    #397082        202208297282-3243-40             CONNECTOR                CCN000080800000080800FN00000000020220801000080800NNM   20220805121913    2N0N  00000080000001006000001282332J1    UKYEL-BL005600390040
BI00B32J1    #397082        202208297282-6446-40             CONNECTOR                CCN000009000000009000FN00000000020220801000009000NNM   20220805121913    2N0N  00000150000001185000001368032J1    UKYEL-BL005500360039
BI00B32J1    #397082        202208297282-6457-40             CONNECTOR                CCN000008800000008800FN00000000020220801000008800NNM   20220805121913    2N0N  00000080000001137000001421332J1    UKYEL-BL005600390040
BI00B32J1    #397082        202208297282-8395-40             CONNECTOR                CCN000008000000008000FN00000000020220801000008000NNM   20220805121913    2N0N  00000100000001009000001188032J1    UKYEL-BL005500360039
BI00B32J1    #397082        202208297283-4192-40             CONNECTOR                CCN000004800000004800FN00000000020220801000004800NNM   20220805121913    2N0N  00000024000000846000000986032J1    UKYEL-BL005600390040
BI00B32J1    #397082        202208297283-8226-30             CONNECTOR                CCN000006000000006000FN00000000020220801000006000NNM   20220805121913    2N0N  00000200000000820000001008032J1    UKYEL-BL005400370024
BI00B32J1    #397082        202208297283-8397-40             CONNECTOR                CCN000010780000010780FN00000000020220801000010780NNM   20220805121913    2N0N  00000154000001007000001222732J1    UKYEL-BL005600390023
BI00B32J1    #397082        202208297297-1907-30             HOUSING MALE ASS'Y       CCN000003000000003000FN00000000020220801000003000NNM   20220805121913    2N0N  00000150000000451800000568032J1    UKYEL-BL005400370024
BI00B32J1    #397082        202208297297-1911-30             HOUSING MALE ASS'Y       CCN000002000000002000FN00000000020220801000002000NNM   20220805121913    2N0N  00000100000000486900000600132J1    UKYEL-BL005400370024
BI00B32K8    #K1220011109   202208087137-2717-50             SEALED CONNECTOR         CCN000008000000008000FN00000000020220901000008000NNM00020220805160001    2C0C  00000400000000212800000284032K8    ELELCOM 002700430014
BI00A32M3    SM22084 MW     202208057287-3885-40             HYBRID FEMALE ASS'Y      PCN000040800000000000FY00000000020220801000000000NNMD0020220805144434    1N0N  00000240000001029600001249632M3    SASAMI  005500360039
BI00B32N2    2152104144     202209157370-0309                J/B ASS'Y                CCN000001072000001072FN00000000020221001000001072NNMD0220220805155300    1J0J  00000001600000870400001260032N2    YWYIPLTC005500360039
BI00B32Q8    EU2209FNMW     202208177298-2279-40             HOUSING FEMALE ASS'Y     CCN000002400000002400FN00000000020220901000002400NNED0720220805141419    4N0N  00000240000001095800001310732Q8    EMEMI   005500360039
BI00B32R4    #HZYBW2210007-1202209207172-5630-40             RUBBER STOPPER           CCN000020000000020000FN00000000020221001000020000NNE   20220805153734    2H0H  00002000000000044000000095132R4    HZHZYME 004300270014
BI00B32R4    #HZYBW2210007-1202209207289-4200-30             HOUSING FEMALE ASS'Y     CCN000002000000002000FN00000000020221001000002000NNE   20220805153734    2N0N  00000200000000926000001021032R4    HZHZYME 005400370024
BI00B32R4    #HZYBW2210007-1202209207289-2919-30             HOUSING FEMALE ASS'Y     CCN000001500000001500FN00000000020221001000001500NNE   20220805153734    2N0N  00000150000000907500001034532R4    HZHZYME 005400370024
BI00B32R4    #HZYBW2210007-2202208167158-3003-90             RUBBER STOPPER           CCN000020000000020000FN00000000020220801000020000NNE   20220805153939    2C0C  00002000000000250000000306032R4    HZHZYME 002700430014
BI00B32U5    DI2034         202208087C89-6868-30             SEALED ASSY FEMALE       CCN000012600000012600FN00000000020221001000012600NNM00020220805160055U5  4N0N  00000252000000839200001119232U5    AMAMSD  005500360039
BI00A32W4    4500195560     202211307114-4032                TERMINAL                 CCN000007500000007500FN00000000020220801000007500NNED0020220805121913W4494P0P  00000750000000735000001063632W449  HJYHK   006400630017
BI00A32W4    #4500195648    202209057157-3821                RUBBER STOPPER           CCN000020000000020000FN00000000020220901000020000NNED0020220805121913W4492C0C  00002000000000176000000238032W449  HJYHK   002700430014
BI00A32W4    4500198021     202208187116-4025                TERMINAL                 CCN000016000000016000FN00000000020220801000016000NNE   20220805121913W4334P0P  00001600000000644800000975132W433  HJYHK   006400630017
BI00B32W4    4500198024     202209227158-3167-80             WIRE SEAL                CCN000080000000080000FN00000000020220901000080000NNE   20220805121913W4A21C0C  00002000000000048000000109032W4A2  HJYHK-J 002700430014
BI00B32W4    4500198024     202209227283-1020                CONNECTOR                CCN000006000000006000FN00000000020220901000006000NNE   20220805121913W4A24N0N  00000600000000840000001049332W4A2  HJYHK-J 005600390040
BI00B32W4    4500198024     202209227116-4111-02             TERMINAL                 CCN000007500000007500FN00000000020220901000007500NNE   20220805121913W4A24P0P  00000750000000529500000817732W4A2  HJYHK-J 006400630015
BI00B32W4    #4500198024    202209227158-3121-80             WIRE SEAL                CCN000020000000020000FN00000000020220901000020000NNE   20220805121913W4A22C0C  00002000000000118000000187332W4A2  HJYHK-J 002700430014
BI00B32W4    #4500198024    202209227147-3642-30             CLIP                     CCN000015000000015000FN00000000020220901000015000NNE   20220805121913W4A22F0F  00000300000000542000000721332W4A2  HJYHK-J 005600390040
BI00B32W4    #4500198024    202209227283-4190-30             CONNECTOR                CCN000002640000002640FN00000000020220901000002640NNE   20220805121913W4A22N0N  00000024000000846000001115532W4A2  HJYHK-J 005600390040
BI00B32W4    4500198025     202209297116-4026                TERMINAL                 CCN000032000000032000FN00000000020220901000032000NNE   20220805121913W4A24P0P  00001600000000664000000994332W4A2  HJYHK-J 006400630017
BI00B32W4    #4500198025    202209297283-8226-30             CONNECTOR                CCN000004000000004000FN00000000020220901000004000NNE   20220805121913W4A22N0N  00000200000000820000001008032W4A2  HJYHK-J 005400370024
BI00B32W4    #4500198025    202209297157-3646                RUBBER STOPPER           CCN000040000000040000FN00000000020220901000040000NNE   20220805121913W4A22H0H  00002000000000184000000255232W4A2  HJYHK-J 002700430014
BI00B32W4    4500198026     202210067158-3169-40             SEALING PLUG             CCN000040000000040000FN00000000020221001000040000NNE   20220805121913W4A21C0C  00004000000000156000000204132W4A2  HJYHK-J 004300260014
BI00B32W4    4500198026     202210067116-4031                TERMINAL                 CCN000007500000007500FN00000000020221001000007500NNE   20220805121913W4A24P0P  00000750000000619500000904732W4A2  HJYHK-J 006400630015
BI00B32W4    4500198026     202210067116-4100-02             TERMINAL                 CCN000015000000015000FN00000000020221001000015000NNE   20220805121913W4A24P0P  00001500000000696000000990232W4A2  HJYHK-J 006400630015
BI00B32W4    4500198026     202210067158-3168-80             SEALED                   CCN000020000000020000FN00000000020221001000020000NNE   20220805121913W4A21C0C  00002000000000044000000092132W4A2  HJYHK-J 004300260014
BI00B32W4    4500198026     202210067158-3166-60             WIRE SEAL                CCN000040000000040000FN00000000020221001000040000NNE   20220805121913W4A21C0C  00004000000000104000000152432W4A2  HJYHK-J 002700430014
BI00B32W4    4500198032     202209017116-2951-02             TERMINAL                 CCN000005400000005400FN00000000020220901000005400NNE   20220805121913W4D44P0P  00000540000000817600001111832W4D4  HJYHK-J 006400630015
BI00B32W4    4500198032     202209017388-2978-30             HOUSING MALE ASS'Y       CCN000005280000005280FN00000000020220901000005280NNE   20220805121913W4D41N0N  00000048000000742000001122032W4D4  HJYHK-J 005500360039
BI00B32W4    4500198032     202209017327-6424-4W             BATTERY FUSE             CCN000000768000000768FN00000000020220901000000768NNE   20220805121913W4D44N0N  00000009600001109500001259632W4D4  HJYHK-J 005400370024
BI00B32W4    4500198032     202209017288-6547                CONNECTOR MALE ASS'Y     CCN000003750000003750FN00000000020220901000003750NNE   20220805121913W4D44N0N  00000075000001205300001340332W4D4  HJYHK-J 005400370024
BI00B32W4    4500198032     202209017287-9323                UNSEALED HOUSING SUB     CCN000007200000007200FN00000000020220901000007200NNE   20220805121913W4D41N0N  00000240000000537600000690032W4D4  HJYHK-J 005600390023
BI00B32W4    4500198032     202209017287-9323-40             UNSEALED HOUSING SUB     CCN000002400000002400FN00000000020220901000002400NNE   20220805121913W4D41N0N  00000240000000537600000690032W4D4  HJYHK-J 005600390023
BI00B32W4    4500198032     202209017289-6547                HOUSING FEMALE ASS'Y     CCN000002400000002400FN00000000020220901000002400NNE   20220805121913W4D41N0N  00000240000001152000001362032W4D4  HJYHK-J 005500360039
BI00B32W4    4500198032     202209017298-1145-4W             SQUIB SUB ASS'Y          CCN000010000000010000FN00000000020220901000010000NNE   20220805121913W4D44N0N  00001000000000787900000944932W4D4  HJYHK-J 005400370024
BI00B32W4    4500198032     202209017286-4097                CONNECTOR MALE ASS'Y     CCN000004800000004800FN00000000020220901000004800NNE   20220805121913W4D41N0N  00000160000000768000000978032W4D4  HJYHK-J 005500360039
BI00B32W4    #4500198032    202209017189-2978-30             HOUSING FEMALE           CCN000004500000004500FN00000000020220901000004500NNE   20220805121913W4D42F0F  00000150000000966900001096932W4D4  HJYHK-J 005400370024
BI00B32W4    4500198033     202208187154-7136-30             LOWER COVER              CCN000000060000000060FN00000000020220801000000060NNE   20220805121913W4D44F0F  00000006000000199000000408032W4D4  HJYHK-J 005600390040
BI00B32W4    4500198033     202208187154-5559-3W             ENG R/B FRAME            CCN000000018000000018FN00000000020220801000000018NNE   20220805121913W4D41F0F  00000001800000454000000674432W4D4  HJYHK-J 005600390040
BI00B32W4    4500198055     202208257116-4026                TERMINAL                 CCN000032000000032000FN00000000020220801000032000NNE   20220805121913W4514P0P  00001600000000664000000994332W451  HJ32W9  006400630017
BI00B32W4    4500198055     202208257116-6041                TERMINAL                 CCN000036000000036000FN00000000020220801000036000NNE   20220805121913W4514P0P  00000450000000716000001009632W451  HJ32W9  006400630015
BI00B32W4    4500198055     202208257282-8120                CONNECTOR HOUSING        CCN000009000000009000FN00000000020220801000009000NNE   20220805121913W4511N0N  00000300000001356000001520032W451  HJ32W9  005500360039
BI00B32W4    4500198055     202208257283-1020                CONNECTOR                CCN000042000000042000FN00000000020220801000042000NNE   20220805121913W4514N0N  00000600000000840000001049332W451  HJ32W9  005600390040
BI00B32W4    4500198055     202208257283-7028-30             CONNECTOR                CCN000018000000018000FN00000000020220801000018000NNE   20220805121913W4514N0N  00000300000001452000001681332W451  HJ32W9  005600390040
BI00B32W4    #4500198055    202208257158-3610-80             RUBBER STOPPER           CCN000003000000003000FN00000000020220801000003000NNE   20220805121913W4512H0H  00000300000000396900000438932W451  HJ32W9  004300270014
BI00B32W4    #4500198055    202208257114-4022                TERMINAL                 CCN001005000001005000FN00000000020220801001005000NNE   20220805121913W4512F0P  00001500000000708000001120632W451  HJ32W9  006400630015
BI00B32W4    #4500198055    202208257157-3952-80             RUBBER STOPPER           CCN000040000000040000FN00000000020220801000040000NNE   20220805121913W4512C0C  00001000000000117000000175032W451  HJ32W9  002700430014
BI00B32W4    #4500198055    202208257158-3003-90             RUBBER STOPPER           CCN000020000000020000FN00000000020220801000020000NNE   20220805121913W4512C0C  00002000000000250000000306032W451  HJ32W9  002700430014
BI00B32W4    #4500198055    202208257183-7725-40             HOUSING                  CCN000012000000012000FN00000000020220801000012000NNE   20220805121913W4512F0F  00000600000000840000001040032W451  HJ32W9  005600390040
BI00B32W4    #4500198055    202208257283-8397-40             CONNECTOR                CCN000001540000001540FN00000000020220801000001540NNE   20220805121913W4512N0N  00000154000001007000001222732W451  HJ32W9  005600390023
BI00B32W4    4500198081     202209227116-4104-02             TERMINAL                 CCN000024000000024000FN00000000020220901000024000NNE   20220805121913W4374P0P  00001200000000580800000972432W437  HJYHK   006400630015
BI00B32W4    4500198081     202209227116-4112-02             TERMINAL                 CCN000018000000018000FN00000000020220901000018000NNE   20220805121913W4374P0P  00000600000000450000000738232W437  HJYHK   006400630015
BI00B32W4    4500198081     202209227116-4102-02             TERMINAL                 CCN000072000000072000FN00000000020220901000072000NNE   20220805121913W4374P0P  00001200000000553200000841432W437  HJYHK   006400630015
BI00B32W4    4500198081     202209227158-3169-40             SEALING PLUG             CCN000040000000040000FN00000000020220901000040000NNE   20220805121913W4371C0C  00004000000000156000000204132W437  HJYHK   004300260014
BI00B32W4    4500198081     202209227116-5045-02             TERMINAL                 CCN000016000000016000FN00000000020220901000016000NNE   20220805121913W4374P0P  00001600000000678400001007132W437  HJYHK   006400630017
BI00B32W4    #4500198081    202209227158-3004-40             RUBBER STOPPER           CCN000020000000020000FN00000000020220901000020000NNE   20220805121913W4372C0C  00002000000000234000000306332W437  HJYHK   002700430014
BI00B32W4    4500198082     202209297116-4100-02             TERMINAL                 CCN000015000000015000FN00000000020220901000015000NNE   20220805121913W4374P0P  00001500000000696000000990232W437  HJYHK   006400630015
BI00B32W4    4500198082     202209297116-4121-02             TERMINAL                 CCN000004500000004500FN00000000020220901000004500NNE   20220805121913W4374P0P  00000450000000618800000912432W437  HJYHK   006400630015
BI00A32W4    #4500198094    202209197283-8226-30             CONNECTOR                CCN000004000000004000FN00000000020220901000004000NNE   20220805121913W4422N0N  00000200000000820000001008032W442  HJYHK   005400370024
BI00B32W9    4500198110     202208307116-4100-02             TERMINAL                 CCN000030000000030000FN00000000020220801000030000NNE   20220805121913W9  4P0P  00001500000000696000000990232W9    HKYHK   006400630015
BI00B32W9    #4500198110    202208307186-8845                HOUSING MALE             CCN000009000000009000FN00000000020220801000009000NNE   20220805121913W9  2F0F  00000300000000690000000801532W9    HKYHK   005400370024
BI00B32W9    #4500198112    202208237283-8398-40             CONNECTOR                CCN000049280000049280FN00000000020220801000049280NNE   20220805121913W9  2N0N  00000154000001007000001171332W9    HKYHK   005600390023
BI00B32W9    4500198072     202209207116-4025                TERMINAL                 CCN000016000000016000FN00000000020220901000016000NNE   20220805144015W9  4P0P  00001600000000644800000975132W9    HKYHK   006400630017
BI00B32Y2    TAU1234        202208187158-3070-80             RUBBER STOPPER           CCN000040000000040000FN00000000020221201000040000NNED0020220805141323    1C0C  00004000000000276000000333332Y2    YUYUY   002700430014
BI00B1200    OHM-202207-01  20220805REEL150-36               ALUMINUM REEL            PNN000000030000000045FY00000004520220801000000000NNE00020220805153853    1N0N  0000000030000075000000083201200    YCYC    005600540017
BI00B1200    OHM-202207-01  20220805REEL150-32               ALUMINUM REEL            PNN000000003000000003FY00000000320220801000000000NNE00020220805153853    1N0N  0000000030000073800000082101200    YCYC    005600540017
BI00B1200    OHM-202207-01  20220805REEL275-36               ALUMINUM REEL            PNN000000003000000006FY00000000620220801000000000NNE00020220805153853    1N0N  0000000030000088200000096601200    YCYC    005600540017
BI00B1200    OHM-202207-01  20220805REEL275-42               ALUMINUM REEL            PNN000000040000000060FY00000006020220801000000000NNE00020220805153853    1N0N  0000000020000061200000069601200    YCYC    005600540017
BI00B1200    #H322K50022    202210067147-8717-30             CLIP                     CCN000050000000050000FN00000000020221101000050000NNE   20220805121913    2F0F  0000050000000066000000087501200    YCYC    005600390040
BI00B1200    H322K50023     202210067116-4112-02             TERMINAL                 CCN000012000000012000FN00000000020221101000012000NNE   20220805121913    4P0P  0000060000000045000000073821200    YCYC    006400630015
BI00B1200    Y022K50055     202210067288-9556-30             SEALED ASSY MALE         CCN000005040000005040FN00000000020221101000005040NNM   20220805121913    4N0N  0000007200000053790000078631200    YCYC    005500360039
BI00B32AF    JTB2103        202209237196-1947-02             TERMINAL FEMALE          CCN000009000000000000FY00000000020221001000000000NNMQ0820220805151938    4POP  00000900000000407700000692932AF    HBYHVTB 006400630015
BI00A32AF    JTB2083        202208057287-3885-30             HYBRID FEMALE ASS'Y      PCN000055200000000000FY00000000020220801000000000NNM00020220805144414    1N0N  00000240000001029600001249632AF    HBYHVTB 005500360039
BI00B32CJ    JQN2084        202208087158-3009-60             RUBBER STOPPER           CCN000160000000160000FN00000000020220801000160000NNM00020220805155726    1C0C  00002000000000338000000386232CJ    QNYHVQN 002700430014
BI00B32CJ    JQN2084        202208087158-3165-90             WIRE SEAL                CCN000200000000200000FN00000000020220801000200000NNM00020220805155726    1C0C  00004000000000124000000172432CJ    QNYHVQN 004300270014
BI00B32CJ    JQN2084        202208087287-3885                HYBRID FEMALE ASS'Y      CCN000004800000004800FN00000000020220801000004800NNM00020220805155747    1N0N  00000240000001029600001249632CJ    QNYHVQN 005500360039
BI00B32CJ    JQN2084        202208087289-3342                HOUSING FEMALE ASS'Y     CCN000012000000012000FN00000000020220801000012000NNM00020220805155747    1N0N  00000240000000686400000901432CJ    QNYHVQN 005500360039
BI00B32CJ    JQN2084        202208087289-3342-30             HOUSING FEMALE ASS'Y     CCN000024000000024000FN00000000020220801000024000NNM00020220805155747    1N0N  00000240000000686400000901432CJ    QNYHVQN 005500360039
BI00A32DJ    GHT2210E       202208087116-4486-02             TERMINAL                 CCN000140000000140000FN00000000020221001000140000NNED0720220805162530    4P0P  00002800000000666400000995132DJ    RBYIPLRB006400630017
BI00B32D9    I24110         202209157017-1180-02             TERMINAL                 CCN000078000000144000FN00000000020221001000144000NNM   20220805121913    4P0P  00007200000001065600001229032D9    UEHESTO 005100280028
BI00B32D9    I24110         202209157017-1182-02             TERMINAL                 CCN000045000000045000FN00000000020221001000045000NNM   20220805121913    4P0P  00004500000001165500001318632D9    UEHESTO 005100280028
BI00B32D9    I24211         202209227114-4100-02             TERMINAL                 CCN000018000000018000FN00000000020221001000018000NNM   20220805121913    4P0P  00001800000000748800001077432D9    UEHESTO 006400630017
BI00B32D9    I24110         202209157114-4101-02             TERMINAL                 CCN000015000000015000FN00000000020221001000015000NNM   20220805121913    4P0P  00001500000000675000001003632D9    UEHESTO 006400630017
BI00B32D9    I24010         202209087114-4231-02             TERMINAL                 CCN000018000000018000FN00000000020221001000018000NNM   20220805121913    4P0P  00001800000000554400000848032D9    UEHESTO 006400630015
BI00B32D9    I24211         202209227114-4624-02             TERMINAL                 CCN000024000000024000FN00000000020221001000024000NNM   20220805121913    4P0P  00002400000000895200001188832D9    UEHESTO 006400630015
BI00B32D9    I24110         202209157114-6041                TERMINAL                 CCN000003600000003600FN00000000020221001000003600NNM   20220805121913    4P0P  00000360000000580700000824232D9    UEHESTO 006400630015
BI00B32D9    I24211         202209227114-6041                TERMINAL                 CCN000003600000003600FN00000000020221001000003600NNM   20220805121913    4P0P  00000360000000580700000824232D9    UEHESTO 006400630015
BI00B32D9    I24211         202209227116-1180                TERMINAL                 CCN000019500000019500FN00000000020221001000019500NNM   20220805121913    1P0P  00001950000000618200000903432D9    UEHESTO 006400630015
BI00B32D9    I23910         202209017116-1257-02             TERMINAL                 CCN000024000000024000FN00000000020221001000024000NNM   20220805121913    4P0P  00002400000000518400000847132D9    UEHESTO 006400630017
BI00B32D9    I24010         202209087116-1685-02             TERMINAL                 CCN000024000000024000FN00000000020221001000024000NNM   20220805121913    4P0P  00002400000000897600001065232D9    UEHESTO 005100280028
BI00B32D9    I24010         202209087116-4037                TERMINAL                 CCN000006600000012000FN00000000020221001000012000NNM   20220805121913    4P0P  00000600000000600000000894232D9    UEHESTO 006400630015
BI00B32D9    I24110         202209157116-4037                TERMINAL                 CCN000006600000012000FN00000000020221001000012000NNM   20220805121913    4P0P  00000600000000600000000894232D9    UEHESTO 006400630015
BI00B32D9    I24211         202209227116-4037                TERMINAL                 CCN000006600000012000FN00000000020221001000012000NNM   20220805121913    4P0P  00000600000000600000000894232D9    UEHESTO 006400630015
BI00B32D9    I23910         202209017116-4100-02             TERMINAL                 CCN000015000000015000FN00000000020221001000015000NNM   20220805121913    4P0P  00001500000000696000000990232D9    UEHESTO 006400630015
BI00B32D9    I24110         202209157116-4100-02             TERMINAL                 CCN000015000000015000FN00000000020221001000015000NNM   20220805121913    4P0P  00001500000000696000000990232D9    UEHESTO 006400630015
BI00B32D9    I23910         202209017116-4101-02             TERMINAL                 CCN000012000000012000FN00000000020221001000012000NNM   20220805121913    4P0P  00001200000000582000000876232D9    UEHESTO 006400630015
BI00B32D9    I24010         202209087116-4101-02             TERMINAL                 CCN000012000000012000FN00000000020221001000012000NNM   20220805121913    4P0P  00001200000000582000000876232D9    UEHESTO 006400630015
BI00B32D9    I24110         202209157116-4101-02             TERMINAL                 CCN000012000000012000FN00000000020221001000012000NNM   20220805121913    4P0P  00001200000000582000000876232D9    UEHESTO 006400630015
BI00B32D9    I23910         202209017116-4102-02             TERMINAL                 CCN000072000000072000FN00000000020221001000072000NNM   20220805121913    4P0P  00001200000000553200000841432D9    UEHESTO 006400630015
BI00B32D9    I24010         202209087116-4102-02             TERMINAL                 CCN000072000000072000FN00000000020221001000072000NNM   20220805121913    4P0P  00001200000000553200000841432D9    UEHESTO 006400630015
BI00B32D9    I24110         202209157116-4102-02             TERMINAL                 CCN000072000000072000FN00000000020221001000072000NNM   20220805121913    4P0P  00001200000000553200000841432D9    UEHESTO 006400630015
BI00B32D9    I24211         202209227116-4102-02             TERMINAL                 CCN000072000000072000FN00000000020221001000072000NNM   20220805121913    4P0P  00001200000000553200000841432D9    UEHESTO 006400630015
BI00B32D9    I24110         202209157116-4103-02             TERMINAL                 CCN000012000000012000FN00000000020221001000012000NNM   20220805121913    4P0P  00001200000000571200000859432D9    UEHESTO 006400630015
BI00B32D9    I23910         202209017116-4121-02             TERMINAL                 CCN000004500000004500FN00000000020221001000004500NNM   20220805121913    4P0P  00000450000000618800000912432D9    UEHESTO 006400630015
BI00B32D9    I24010         202209087116-4121-02             TERMINAL                 CCN000004500000004500FN00000000020221001000004500NNM   20220805121913    4P0P  00000450000000618800000912432D9    UEHESTO 006400630015
BI00B32D9    I24110         202209157116-4121-02             TERMINAL                 CCN000004500000004500FN00000000020221001000004500NNM   20220805121913    4P0P  00000450000000618800000912432D9    UEHESTO 006400630015
BI00B32D9    I24211         202209227116-4121-02             TERMINAL                 CCN000009000000009000FN00000000020221001000009000NNM   20220805121913    4P0P  00000450000000618800000912432D9    UEHESTO 006400630015
BI00B32D9    I23910         202209017116-4122-02             TERMINAL                 CCN000004500000004500FN00000000020221001000004500NNM   20220805121913    4P0P  00000450000000656600000950232D9    UEHESTO 006400630015
BI00B32D9    I24010         202209087116-4122-02             TERMINAL                 CCN000004500000004500FN00000000020221001000004500NNM   20220805121913    4P0P  00000450000000656600000950232D9    UEHESTO 006400630015
BI00B32D9    I24110         202209157116-4122-02             TERMINAL                 CCN000009000000009000FN00000000020221001000009000NNM   20220805121913    4P0P  00000450000000656600000950232D9    UEHESTO 006400630015
BI00B32D9    I24211         202209227116-4122-02             TERMINAL                 CCN000004500000004500FN00000000020221001000004500NNM   20220805121913    4P0P  00000450000000656600000950232D9    UEHESTO 006400630015
BI00B32D9    I24211         202209227116-4124-02             TERMINAL                 CCN000003000000003000FN00000000020221001000003000NNM   20220805121913    4P0P  00000300000000459900000753532D9    UEHESTO 006400630015
BI00B32D9    I24110         202209157116-5046-02             TERMINAL                 CCN000060000000060000FN00000000020221001000060000NNM   20220805121913    4P0P  00001200000000544800000873532D9    UEHESTO 006400630017
BI00B32D9    I24211         202209227116-5046-02             TERMINAL                 CCN000072000000072000FN00000000020221001000072000NNM   20220805121913    4P0P  00001200000000544800000873532D9    UEHESTO 006400630017
BI00B32D9    I24110         202209157116-6041                TERMINAL                 CCN000004500000004500FN00000000020221001000004500NNM   20220805121913    4P0P  00000450000000716000001009632D9    UEHESTO 006400630015
BI00B32D9    I24211         202209227116-6041                TERMINAL                 CCN000004500000004500FN00000000020221001000004500NNM   20220805121913    4P0P  00000450000000716000001009632D9    UEHESTO 006400630015
BI00B32D9    I23910         202209017116-6042                TERMINAL                 CCN000003000000003000FN00000000020221001000003000NNM   20220805121913    4P0P  00000300000000523800000856132D9    UEHESTO 006400630015
BI00B32D9    I24010         202209087116-6042                TERMINAL                 CCN000006000000006000FN00000000020221001000006000NNM   20220805121913    4P0P  00000300000000523800000856132D9    UEHESTO 006400630015
BI00B32D9    I24110         202209157116-6042                TERMINAL                 CCN000009000000009000FN00000000020221001000009000NNM   20220805121913    4P0P  00000300000000523800000856132D9    UEHESTO 006400630015
BI00B32D9    I24211         202209227116-6042                TERMINAL                 CCN000006000000006000FN00000000020221001000006000NNM   20220805121913    4P0P  00000300000000523800000856132D9    UEHESTO 006400630015
BI00B32D9    I24110         202209157140-1977-30             UPPER COVER              CCN000000300000000300FN00000000020221001000000300NNM   20220805121913    1F0F  00000001000000099500000249532D9    UEHESTO 005600390040
BI00B32D9    I23910         202209017158-3006-90             RUBBER STOPPER           CCN000100000000100000FN00000000020221001000100000NNM   20220805121913    1C0C  00002000000000330600000386032D9    UEHESTO 002700430014
BI00B32D9    I24010         202209087158-3006-90             RUBBER STOPPER           CCN000100000000100000FN00000000020221001000100000NNM   20220805121913    1C0C  00002000000000330600000386032D9    UEHESTO 002700430014
BI00B32D9    I24110         202209157158-3006-90             RUBBER STOPPER           CCN000100000000100000FN00000000020221001000100000NNM   20220805121913    1C0C  00002000000000330600000386032D9    UEHESTO 002700430014
BI00B32D9    I24211         202209227158-3006-90             RUBBER STOPPER           CCN000010000000020000FN00000000020221001000020000NNM   20220805121913    1C0C  00002000000000330600000386032D9    UEHESTO 002700430014
BI00B32D9    I24010         202209087158-3070-80             RUBBER STOPPER           CCN000040000000040000FN00000000020221001000040000NNM   20220805121913    1C0C  00004000000000276000000333332D9    UEHESTO 002700430014
BI00B32D9    I24110         202209157158-3070-80             RUBBER STOPPER           CCN000040000000040000FN00000000020221001000040000NNM   20220805121913    1C0C  00004000000000276000000333332D9    UEHESTO 002700430014
BI00B32D9    I24010         202209087183-2417                CONNECTOR HOUSING        CCN000002400000002400FN00000000020221001000002400NNM   20220805121913    4F0F  00000240000001137400001297732D9    UEHESTO 005500360039
BI00B32D9    I24211         202209227183-2417                CONNECTOR HOUSING        CCN000002400000002400FN00000000020221001000002400NNM   20220805121913    4F0F  00000240000001137400001297732D9    UEHESTO 005500360039
BI00B32D9    I24110         202209157196-0396-02             TERMINAL                 CCN000015000000015000FN00000000020221001000015000NNM   20220805121913    4P0P  00001500000000949500001112932D9    UEHESTO 002800510028
BI00B32D9    I24010         202209087196-1103-02             TERMINAL                 CCN000021000000022500FN00000000020221001000022500NNM   20220805121913    4P0P  00002250000000429800000715032D9    UEHESTO 006400630015
BI00B32D9    I24211         202209227196-1104-02             TERMINAL                 CCN000021000000022500FN00000000020221001000022500NNM   20220805121913    4P0P  00002250000000441000000726232D9    UEHESTO 006400630015
BI00B32D9    I24211         202209227235-8662                DOOR GROMMET             CCN000000320000000320FN00000000020221001000000320NNM   20220805121913    4N0N  00000016000000844000001010032D9    UEHESTO 005500360039
BI00B32D9    I23910         202209017282-5574-10             CONNECTOR                CCN000004000000004000FN00000000020221001000004000NNM   20220805121913    4N0N  00000080000001235000001423032D9    UEHESTO 005600390040
BI00B32D9    I24010         202209087282-5574-10             CONNECTOR                CCN000003200000003200FN00000000020221001000003200NNM   20220805121913    4N0N  00000080000001235000001423032D9    UEHESTO 005600390040
BI00B32D9    I24110         202209157282-5574-10             CONNECTOR                CCN000003200000003200FN00000000020221001000003200NNM   20220805121913    4N0N  00000080000001235000001423032D9    UEHESTO 005600390040
BI00B32D9    I24211         202209227282-5574-10             CONNECTOR                CCN000003200000003200FN00000000020221001000003200NNM   20220805121913    4N0N  00000080000001235000001423032D9    UEHESTO 005600390040
BI00B32D9    I23910         202209017283-1028                CONNECTOR HOUSING        CCN000006000000006000FN00000000020221001000006000NNM   20220805121913    4N0N  00000600000000779000001019332D9    UEHESTO 005600390040
BI00B32D9    I23910         202209017283-1156                CONNECTOR                CCN000001600000001600FN00000000020221001000001600NNM   20220805121913    4N0N  00000080000000877600001078032D9    UEHESTO 005600390040
BI00B32D9    I24010         202209087283-1156                CONNECTOR                CCN000001600000001600FN00000000020221001000001600NNM   20220805121913    4N0N  00000080000000877600001078032D9    UEHESTO 005600390040
BI00B32D9    I24110         202209157283-1156                CONNECTOR                CCN000001600000001600FN00000000020221001000001600NNM   20220805121913    4N0N  00000080000000877600001078032D9    UEHESTO 005600390040
BI00B32D9    I24211         202209227283-1156                CONNECTOR                CCN000001600000001600FN00000000020221001000001600NNM   20220805121913    4N0N  00000080000000877600001078032D9    UEHESTO 005600390040
BI00B32D9    I24010         202209087283-1288-40             CONNECTOR HOUSING        CCN000002400000002400FN00000000020221001000002400NNM   20220805121913    1N0N  00000120000001382000001640732D9    UEHESTO 005600390040
BI00B32D9    I24211         202209227283-1288-40             CONNECTOR HOUSING        CCN000002400000002400FN00000000020221001000002400NNM   20220805121913    1N0N  00000120000001382000001640732D9    UEHESTO 005600390040
BI00B32D9    I24110         202209157283-1928-80             CONNECTOR                CCN000002000000002000FN00000000020221001000002000NNM   20220805121913    4N0N  00000200000001180000001358332D9    UEHESTO 005500360039
BI00B32D9    I23910         202209017283-1968-30             CONNECTOR                CCN000000900000000900FN00000000020221001000000900NNM   20220805121913    1N0N  00000090000001140000001318332D9    UEHESTO 005600390040
