BI00B32CJ    JQN209E        202208267282-4578-40             HOUSING MALE ASS'Y       CCN000001200000000000FY00000000020220901000000000NNED0420220813193745    4N0N  00000120000000782600000992632CJ    QNYHVQN 005500360039
BI00B32N1    NST2808        202209017114-4416-02             TERMINAL MALE            CCN000010000000000000FY00000000020220901000000000NNE00020220813192411    4P0P  00002700000000442800000731032N1    TAYIPL  006400630015
BI00B32N1    NST2808        202209017158-3167-80             WIRE SEAL                CCN000010000000000000FY00000000020220901000000000NNE00020220813192411    1C0C  00002000000000048000000109032N1    TAYIPL  002700430014
BI00B32N1    NST2808        202209017116-4415-02             TERMINAL                 CCN000010000000000000FY00000000020220901000000000NNE00020220813192411    4P0P  00003800000000596600000925732N1    TAYIPL  006400630017
BI00B32N1    NST2808        202209017116-4416-02             TERMINAL                 CCN000010000000000000FY00000000020220901000000000NNE00020220813192411    4P0P  00003200000000518400000847132N1    TAYIPL  006400630017
BI00B32N1    NST2808        202209017116-2893-02             TERMINAL                 CCN000010000000000000FY00000000020220901000000000NNE00020220813192411    4P0P  00001200000000895200001058632N1    TAYIPL  005100280028
BI00B32N1    NST2808        202209017116-1686-02             TERMINAL                 CCN000010000000000000FY00000000020220901000000000NNE00020220813192411    4P0P  00002100000000869400001021632N1    TAYIPL  005100280028
BI00B32N1    NST2808        202209017126-8855-02             TERMINAL                 CCN000020000000000000FY00000000020220901000000000NNE00020220813192411    4P0P  00000600000000510600000795832N1    TAYIPL  006400630015
BI00B32N1    NST2808        202209017126-8852-02             TERMINAL                 CCN000015000000000000FY00000000020220901000000000NNE00020220813192411    1P0P  00000750000000648000000933232N1    TAYIPL  006400630015
BI00B32N1    NST2808        202209017116-4025                TERMINAL                 CCN000020000000000000FY00000000020220901000000000NNE00020220813192411    4P0P  00001600000000644800000975132N1    TAYIPL  006400630017
