BI00B1200    #2399T52709    202208047174-1515                FRONT DOOR COVER         CCN000001800000001800FN00000000020220901000001800NNMD0020220719122513    2F0F  0000006000000049020000061021200    YCYC    005500360039
BI00B1200    #2399T52710    202208117174-1515                FRONT DOOR COVER         CCN000001800000001800FN00000000020220901000001800NNMD0020220719122513    2F0F  0000006000000049020000061021200    YCYC    005500360039
BI00B1200    2399T52713     202208047196-0550-02             TERMINAL ALUMINIUM       CCN000032000000032000FN00000000020220901000032000NNMD0020220719122513    4P0P  0000320000000051520000090161200    YCYC    006400630017
BI00B1200    2399T52714     202208117196-0550-02             TERMINAL ALUMINIUM       CCN000032000000032000FN00000000020220901000032000NNMD0020220719122513    4P0P  0000320000000051520000090161200    YCYC    006400630017
BI00B1200    2399T52721     202208187116-4112-02             TERMINAL                 CCN000084000000084000FN00000000020220901000084000NNED0020220719122513    4P0P  0000060000000045000000073821200    YCYC    006400630015
BI00B1200    #2399T52726    202208187174-1515                FRONT DOOR COVER         CCN000003000000003000FN00000000020220901000003000NNED0020220719122513    2F0F  0000006000000049020000061021200    YCYC    005500360039
BI00B1200    2399T52722     202208257116-4112-02             TERMINAL                 CCN000060000000060000FN00000000020221001000060000NNED0020220719122513    4P0P  0000060000000045000000073821200    YCYC    006400630015
BI00B1200    2399T52723     202209017116-4112-02             TERMINAL                 CCN000060000000060000FN00000000020221001000060000NNED0020220719122513    4P0P  0000060000000045000000073821200    YCYC    006400630015
BI00B1200    2399T52724     202209087116-4112-02             TERMINAL                 CCN000060000000060000FN00000000020221001000060000NNED0020220719122513    4P0P  0000060000000045000000073821200    YCYC    006400630015
BI00B1200    2399T52725     202209157116-4112-02             TERMINAL                 CCN000060000000060000FN00000000020221001000060000NNED0020220719122513    4P0P  0000060000000045000000073821200    YCYC    006400630015
BI00B1200    OHM-202207-01  20220804REEL150-36               ALUMINUM REEL            CCN000000030000000135FN00000000020220801000000135NNEQ0020220719162504    1N0N  0000000030000000000000000001200    YCYC    000000000000
BI00B1200    OHM-202207-01  20220804REEL150-32               ALUMINUM REEL            CCN000000003000000009FN00000000020220801000000009NNEQ0020220719162504    1N0N  0000000030000000000000000001200    YCYC    000000000000
BI00B1200    OHM-202207-01  20220804REEL275-36               ALUMINUM REEL            CCN000000003000000018FN00000000020220801000000018NNEQ0020220719162504    1N0N  0000000030000000000000000001200    YCYC    000000000000
BI00B1200    OHM-202207-01  20220804REEL275-42               ALUMINUM REEL            CCN000000040000000180FN00000000020220801000000180NNEQ0020220719162504    1N0N  0000000020000000000000000001200    YCYC    000000000000
BI00B32AF    JTB209B        202209027116-5750-02             TERMINAL                 CCN000225000000225000FN00000000020220901000225000NNE   20220719142406    4P0P  00001500000000457500000742732AF    HBYHVTB 006400630015
BI00B32AF    #JTK208A       202208057182-2410                CONNECTOR HOUSING        CCN000002400000002400FN00000000020220801000002400NNE   20220719152813    2F0F  00000120000000959800001245632AF    HBYHVTB 005500360039
BI00B32AF    #JTK208A       202208057183-2415                CONNECTOR HOUSING        CCN000028800000028800FN00000000020220801000028800NNE   20220719152813    2F0F  00000480000000798200001091432AF    HBYHVTB 005500360039
BI00B32AF    #JTK208A       202208057183-2419                HOUSING                  CCN000028800000028800FN00000000020220801000028800NNE   20220719152813    2F0F  00000480000001065600001352732AF    HBYHVTB 005500360039
BI00B32AF    #JTK208A       202208057183-2414                CONNECTOR HOUSING        CCN000009600000009600FN00000000020220801000009600NNE   20220719152813    2F0F  00000480000000779200001061032AF    HBYHVTB 005500360039
BI00B32CG    S220716-G      202210197116-4120-02             TERMINAL                 CCN000006000000006000FN00000000020221001000006000NNE   20220719122513    4P0P  00000600000000780000001073632CG    ASASIACO006400630015
BI00B32CG    S220716-S      202210197283-9457-3W             CONNECTOR                CCN000002520000002520FN00000000020221001000002520NNE   20220719122513    4N0N  00000012000000515000001067032CG    ASASIACO005600390023
BI00B32CG    S220716-S      202210197116-4121-02             TERMINAL                 CCN000009000000009000FN00000000020221001000009000NNE   20220719122513    4P0P  00000450000000618800000912432CG    ASASIACO006400630015
BI00B32DA    SBT2209        202209297286-3885-40             CONNECTOR MALE ASS'Y     CCN000025200000012000FN00000000020220901000012000NNMD0420220719122513    1N0N  00000120000000910600001130632DA    GBYIPLGB005500360039
BI00B32DA    SBT2209A       202210127286-3885-40             CONNECTOR MALE ASS'Y     CCN000025200000013200FN00000000020220901000013200NNMD0420220719122513    1N0N  00000120000000910600001130632DA    GBYIPLGB005500360039
BI00B32DA    SBT2209        202210067286-3885-40             CONNECTOR MALE ASS'Y     CCN000013200000013200FN00000000020220901000013200NNMD0420220719122513    1N0N  00000120000000910600001130632DA    GBYIPLGB005500360039
BI00B32DA    SBT2209A       202210207286-3885-40             CONNECTOR MALE ASS'Y     CCN000012000000012000FN00000000020220901000012000NNMD0420220719122513    1N0N  00000120000000910600001130632DA    GBYIPLGB005500360039
BI00B32EJ    T220718P01     202208187B58-3070-80             RUBBER STOPPER           CCN000040000000040000FN00000000020220801000040000NNE   20220719122513EJ  1C0C  00004000000000276000000333032EJ    EJYKBO  004300270014
BI00B32EJ    T220718P01     202208187116-4022                TERMINAL                 CCN000040500000040500FN00000000020220801000040500NNE   20220719122513EJ  4P0P  00001350000000618300000903532EJ    EJYKBO  006400630015
BI00B32EJ    T220718P01     202208187158-3070-80             RUBBER STOPPER           CCN000040000000040000FN00000000020220801000040000NNE   20220719122513EJ  1C0C  00004000000000276000000333332EJ    EJYKBO  002700430014
BI00B32EJ    #T220718P01    202208187158-3120-90             CONNECTOR WIRE SEAL      CCN000040000000040000FN00000000020220801000040000NNE   20220719122513EJ  2C0C  00002000000000136000000194032EJ    EJYKBO  002700430014
BI00B32EJ    #T220718P01    202208187158-3374-90             CONNECTOR WIRE SEAL      CCN000020000000020000FN00000000020220801000020000NNE   20220719122513EJ  2H0H  00002000000000172000000229332EJ    EJYKBO  002700430014
BI00B32EJ    T220718P02     202208187116-4101-02             TERMINAL                 CCN000036000000036000FN00000000020220801000036000NNE   20220719122513EJ  4P0P  00001200000000582000000876232EJ    EJYKBO  006400630015
BI00B32E2    NY209B         202209147114-4032                TERMINAL                 CCN000007500000007500FN00000000020220901000007500NNE   20220719122513    4P0P  00000750000000735000001063632E2    SPYSE   006400630017
BI00B32E2    NY209B         202209147116-1257-02             TERMINAL                 CCN000024000000024000FN00000000020220901000024000NNE   20220719122513    4P0P  00002400000000518400000847132E2    SPYSE   006400630017
BI00B32E2    NY209B         202209147116-1685-02             TERMINAL                 CCN000024000000024000FN00000000020220901000024000NNE   20220719122513    4P0P  00002400000000897600001065232E2    SPYSE   005100280028
BI00B32E2    NY209B         202209147116-5045-02             TERMINAL                 CCN000032000000032000FN00000000020220901000032000NNE   20220719122513    4P0P  00001600000000678400001007132E2    SPYSE   006400630017
BI00B32E2    NY209B         202209147158-3006-90             RUBBER STOPPER           CCN000060000000060000FN00000000020220901000060000NNE   20220719122513    1C0C  00002000000000330600000386032E2    SPYSE   002700430014
BI00B32E2    NY209B         202209147288-3337-30             HOUSING MALE             CCN000001500000001500FN00000000020220901000001500NNE   20220719122513    4N0N  00000150000000867000001012032E2    SPYSE   005400370024
BI00B32E2    #NY209B        202209147158-3015-10             RUBBER STOPPER           CCN000010000000010000FN00000000020220901000010000NNE   20220719122513    2C0C  00001000000000419500000474032E2    SPYSE   002700430014
BI00B32E2    #NY209B        202209147158-3017                RUBBER STOPPER           CCN000010000000010000FN00000000020220901000010000NNE   20220719122513    2C0C  00001000000000375500000435032E2    SPYSE   002700430014
BI00B32E2    #NY209B        202209147289-2914-40             HOUSING FEMALE ASS'Y     CCN000001500000001500FN00000000020220901000001500NNE   20220719122513    2N0N  00000150000000904500001031532E2    SPYSE   005400370024
BI00B32E2    #NY209B        202209147289-2917-30             HOUSING FEMALE ASS'Y     CCN000001000000001000FN00000000020220901000001000NNE   20220719122513    2N0N  00000100000000964000001091032E2    SPYSE   005400370024
BI00B32H2    #TIJ2082       202207257183-2414                CONNECTOR HOUSING        CCN000004800000004800FN00000000020220801000004800NNMD0020220719161055    2F0F  00000480000000779200001061032H2    HVYHV   005500360039
BI00B32H2    #TIJ2082       202207267287-1915-90             CONNECTOR ASS'Y          CCN000002400000002400FN00000000020220801000002400NNM00020220719161717    2N0N  00000240000000666500000923132H2    HVYHV   005500360039
BI00B32J1    396263         202207257327-6654-3W             BATTERY FUSE             CCN000000864000000864FN00000000020220801000000864NNMD0020220719122513    4N0N  00000009600001132300001312432J1    UKYEL-BL005500360039
BI00A32J1    395602         202207207298-2507-30             HOUSING FEMALE ASS'Y     PCN000012000000012000FN00000000020220701000012000NNMD0020220719162546    4N0N  00000120000000713200000914532J1    UKYEL-BL005500360039
BI00A32J1    395602         202207207298-2509-30             HOUSING FEMALE ASS'Y     PCN000024000000024000FN00000000020220701000024000NNMD0020220719162620    4N0N  00000120000000857500001062532J1    UKYEL-BL005500360039
BI00A32J1    395602         202207207298-2280-30             HOUSING FEMALE ASS'Y     PCN000038000000038000FN00000000020220701000038000NNMD0020220719162650    4N0N  00000192000001068000001216032J1    UKYEL-BL005500360039
BI00B32N1    @NST2121ICU    202209087283-3030-30             HOUSING FEMALE ASS'Y     CCN000011200000006000FN00000000020220901000006000NNED0120220719162142    3N0N  00000160000001062000001275032N1    TAYIPL  005500360039
BI00B32N1    NST2121A       202208047158-3168-80             SEALED                   CCN000040000000040000FN00000000020220901000040000NNM   20220719122513    1C0C  00002000000000044000000092132N1    TAYIPL  004300260014
BI00B32N1    NST2121A       202208047126-8852-02             TERMINAL                 CCN000420000000420000FN00000000020220901000420000NNM   20220719122513    1P0P  00000750000000648000000933232N1    TAYIPL  006400630015
BI00B32N1    NST2121A       202208047116-4103-02             TERMINAL                 CCN000012000000012000FN00000000020220901000012000NNM   20220719122513    4P0P  00001200000000571200000859432N1    TAYIPL  006400630015
BI00B32N1    NST2121A       202208047116-4104-02             TERMINAL                 CCN000012000000012000FN00000000020220901000012000NNM   20220719122513    4P0P  00001200000000580800000972432N1    TAYIPL  006400630015
BI00B32N1    NST2121A       202208047116-4124-02             TERMINAL                 CCN000003000000003000FN00000000020220901000003000NNM   20220719122513    4P0P  00000300000000459900000753532N1    TAYIPL  006400630015
BI00B32N1    NST2121A       202208047114-4101-02             TERMINAL                 CCN000075000000075000FN00000000020220901000075000NNM   20220719122513    4P0P  00001500000000675000001003632N1    TAYIPL  006400630017
BI00B32N1    NST2121A       202208047283-6448-40             CONNECTOR                CCN000003000000003000FN00000000020220901000003000NNM   20220719122513    4N0N  00000150000001087000001329032N1    TAYIPL  005600390040
BI00B32N1    NST2121B       202208047017-1180-02             TERMINAL                 CCN000144000000144000FN00000000020220901000144000NNM   20220719122513    4P0P  00007200000001065600001229032N1    TAYIPL  005100280028
BI00B32N1    NST2121B       202208047114-4020                TERMINAL                 CCN000189000000189000FN00000000020220901000189000NNM   20220719122513    4P0P  00002100000000875700001169332N1    TAYIPL  006400630015
BI00B32N1    NST2121B       202208047114-4032                TERMINAL                 CCN000022500000022500FN00000000020220901000022500NNM   20220719122513    4P0P  00000750000000735000001063632N1    TAYIPL  006400630017
BI00B32N1    NST2121B       202208047114-4729-02             TERMINAL                 CCN000180000000180000FN00000000020220901000180000NNM   20220719122513    4P0P  00003000000000516000000810232N1    TAYIPL  006400630015
BI00B32N1    NST2121B       202208047114-5747-02             TERMINAL                 CCN000018000000018000FN00000000020220901000018000NNM   20220719122513    4P0P  00001800000000626400000920032N1    TAYIPL  006400630015
BI00B32N1    NST2121B       202208047116-1685-02             TERMINAL                 CCN000432000000432000FN00000000020220901000432000NNM   20220719122513    4P0P  00002400000000897600001065232N1    TAYIPL  005100280028
BI00B32N1    NST2121B       202208047116-2891-02             TERMINAL                 CCN000255000000255000FN00000000020220901000255000NNM   20220719122513    4P0P  00001500000000982500001145932N1    TAYIPL  005100280028
BI00B32N1    NST2121B       202208047116-2892-02             TERMINAL                 CCN000240000000240000FN00000000020220901000240000NNM   20220719122513    4P0P  00001200000000818400000981832N1    TAYIPL  005100280028
BI00B32N1    NST2121B       202208047116-2893-02             TERMINAL                 CCN000384000000384000FN00000000020220901000384000NNM   20220719122513    4P0P  00001200000000895200001058632N1    TAYIPL  005100280028
BI00B32N1    NST2121B       202208047116-4020                TERMINAL                 CCN000283500000283500FN00000000020220901000283500NNM   20220719122513    4P0P  00001350000000513000000798232N1    TAYIPL  006400630015
BI00B32N1    NST2121B       202208047116-4022                TERMINAL                 CCN000013500000013500FN00000000020220901000013500NNM   20220719122513    4P0P  00001350000000618300000903532N1    TAYIPL  006400630015
BI00B32N1    NST2121B       202208047116-4026                TERMINAL                 CCN000144000000144000FN00000000020220901000144000NNM   20220719122513    4P0P  00001600000000664000000994332N1    TAYIPL  006400630017
BI00B32N1    NST2121B       202208047116-4032                TERMINAL                 CCN000024000000024000FN00000000020220901000024000NNM   20220719122513    4P0P  00000600000000532800000818032N1    TAYIPL  006400630015
BI00B32N1    NST2121B       202208047116-4037                TERMINAL                 CCN000024000000024000FN00000000020220901000024000NNM   20220719122513    4P0P  00000600000000600000000894232N1    TAYIPL  006400630015
BI00B32N1    NST2121B       202208047116-4231-02             TERMINAL                 CCN000052000000052000FN00000000020220901000052000NNM   20220719122513    4P0P  00002600000000683800001012532N1    TAYIPL  006400630017
BI00B32N1    NST2121B       202208047116-4416-02             TERMINAL                 CCN000032000000032000FN00000000020220901000032000NNM   20220719122513    4P0P  00003200000000518400000847132N1    TAYIPL  006400630017
BI00B32N1    NST2121B       202208047116-5750-02             TERMINAL                 CCN000030000000030000FN00000000020220901000030000NNM   20220719122513    4P0P  00001500000000457500000742732N1    TAYIPL  006400630015
BI00B32N1    NST2121B       202208047116-6042                TERMINAL                 CCN000036000000036000FN00000000020220901000036000NNM   20220719122513    4P0P  00000300000000523800000856132N1    TAYIPL  006400630015
BI00B32N1    NST2121B       202208047126-8850-02             TERMINAL                 CCN000522000000522000FN00000000020220901000522000NNM   20220719122513    1P0P  00000900000000672300000957532N1    TAYIPL  006400630015
BI00B32N1    NST2121B       202208047126-8851-02             TERMINAL                 CCN000720000000720000FN00000000020220901000720000NNM   20220719122513    1P0P  00000900000000739800001025032N1    TAYIPL  006400630015
BI00B32N1    NST2121B       202208047283-1144                CONNECTOR                CCN000007200000007200FN00000000020220901000007200NNM   20220719122513    4N0N  00000240000000602200000866132N1    TAYIPL  005500360039
BI00B32N1    NST2121B       202208047116-1301                TERMINAL                 CCN000225000000225000FN00000000020220901000225000NNM   20220719122513    4P0P  00001500000000487500000772732N1    TAYIPL  006400630015
BI00B32N1    NST2121B       202208047282-1248                HOUSING SUB ASSEMBLY     CCN000008400000008400FN00000000020220901000008400NNM   20220719122513    1N0N  00000060000001167000001372032N1    TAYIPL  005500360039
BI00B32N1    NST2121B       202208047283-1144-30             CONNECTOR                CCN000057600000057600FN00000000020220901000057600NNM   20220719122513    4N0N  00000240000000602200000866132N1    TAYIPL  005500360039
BI00B32N1    NST2121B       202208047114-4030                TERMINAL                 CCN000031500000031500FN00000000020220901000031500NNM   20220719122513    4P0P  00001050000000926100001254732N1    TAYIPL  006400630017
BI00B32N1    NST2121B       202208047282-1248-30             HOUSING SUB ASSEMBLY     CCN000004800000004800FN00000000020220901000004800NNM   20220719122513    1N0N  00000060000001167000001372032N1    TAYIPL  005500360039
BI00B32N1    NST2121B       202208047114-4111-02             TERMINAL                 CCN000096000000096000FN00000000020220901000096000NNM   20220719122513    4P0P  00001200000000758400001087032N1    TAYIPL  006400630017
BI00B32N1    NST2121B       202208047114-4112-02             TERMINAL                 CCN000063000000063000FN00000000020220901000063000NNM   20220719122513    4P0P  00000900000000598500000927132N1    TAYIPL  006400630017
BI00B32N1    NST2121B       202208047116-4122-02             TERMINAL                 CCN000081000000081000FN00000000020220901000081000NNM   20220719122513    4P0P  00000450000000656600000950232N1    TAYIPL  006400630015
BI00B32N1    NST2121B       202208047116-4110-02             TERMINAL                 CCN000036000000036000FN00000000020220901000036000NNM   20220719122513    4P0P  00000900000000594000000882232N1    TAYIPL  006400630015
BI00B32N1    NST2121B       202208047116-4111-02             TERMINAL                 CCN000015000000015000FN00000000020220901000015000NNM   20220719122513    4P0P  00000750000000529500000817732N1    TAYIPL  006400630015
BI00B32N1    NST2121B       202208047116-4121-02             TERMINAL                 CCN000013500000013500FN00000000020220901000013500NNM   20220719122513    4P0P  00000450000000618800000912432N1    TAYIPL  006400630015
BI00B32N1    NST2121B       202208047282-5574-10             CONNECTOR                CCN000004000000004000FN00000000020220901000004000NNM   20220719122513    4N0N  00000080000001235000001423032N1    TAYIPL  005600390040
BI00B32N1    NST2121B       202208047283-5574-10             CONNECTOR                CCN000003200000003200FN00000000020220901000003200NNM   20220719122513    4N0N  00000080000001235000001435232N1    TAYIPL  005500360039
BI00B32N1    NST2121B       202208047116-4100-02             TERMINAL                 CCN000150000000150000FN00000000020220901000150000NNM   20220719122513    4P0P  00001500000000696000000990232N1    TAYIPL  006400630015
BI00B32N1    NST2121B       202208047116-4101-02             TERMINAL                 CCN000060000000060000FN00000000020220901000060000NNM   20220719122513    4P0P  00001200000000582000000876232N1    TAYIPL  006400630015
BI00B32N1    NST2121B       202208047116-4102-02             TERMINAL                 CCN000024000000024000FN00000000020220901000024000NNM   20220719122513    4P0P  00001200000000553200000841432N1    TAYIPL  006400630015
BI00B32N1    NST2121B       202208047116-4112-02             TERMINAL                 CCN000072000000072000FN00000000020220901000072000NNM   20220719122513    4P0P  00000600000000450000000738232N1    TAYIPL  006400630015
BI00B32N1    #NST2121B      202208047116-4021                TERMINAL                 CCN000135000000135000FN00000000020220901000135000NNM   20220719122513    2F0P  00001350000000534600000868832N1    TAYIPL  006400630015
BI00B32N1    #NST2121B      202208047157-3821                RUBBER STOPPER           CCN000200000000200000FN00000000020220901000200000NNM   20220719122513    2C0C  00002000000000176000000238032N1    TAYIPL  002700430014
BI00B32N1    #NST2121B      202208047158-3007-10             RUBBER STOPPER           CCN000040000000040000FN00000000020220901000040000NNM   20220719122513    2H0H  00002000000000308000000362732N1    TAYIPL  002700430014
BI00B32N1    #NST2121B      202208047158-3008-80             RUBBER STOPPER           CCN000020000000020000FN00000000020220901000020000NNM   20220719122513    2C0C  00002000000000288000000343032N1    TAYIPL  004300270014
BI00B32N1    #NST2121B      202208047183-7725-40             HOUSING                  CCN000006000000006000FN00000000020220901000006000NNM   20220719122513    2F0F  00000600000000840000001040032N1    TAYIPL  005600390040
BI00B32N1    #NST2121B      202208047283-8226-30             CONNECTOR                CCN000022000000022000FN00000000020220901000022000NNM   20220719122513    2N0N  00000200000000820000001008032N1    TAYIPL  005400370024
BI00B32N1    #NST2121B      202208047157-3950-80             SEAL RUBBER              CCN000240000000240000FN00000000020220901000240000NNM   20220719122513    2C0C  00004000000000154000000440332N1    TAYIPL  002700430014
BI00B32N1    #NST2121B      202208047158-3120-90             CONNECTOR WIRE SEAL      CCN000140000000140000FN00000000020220901000140000NNM   20220719122513    2C0C  00002000000000136000000194032N1    TAYIPL  002700430014
BI00B32N1    #NST2121B      202208047183-2418-30             CONNECTOR HOUSING        CCN000009600000009600FN00000000020220901000009600NNM   20220719122513    2F0F  00000480000000917000001235332N1    TAYIPL  005500360039
BI00B32N1    #NST2121B      202208047157-3646                RUBBER STOPPER           CCN000360000000360000FN00000000020220901000360000NNM   20220719122513    2H0H  00002000000000184000000255232N1    TAYIPL  002700430014
BI00B32N1    #NST2121B      202208047283-8397-40             CONNECTOR                CCN000003080000003080FN00000000020220901000003080NNM   20220719122513    2N0N  00000154000001007000001222732N1    TAYIPL  005600390023
BI00B32N1    #NST2121B      202208047283-5831                CONNECTOR                CCN000003000000003000FN00000000020220901000003000NNM   20220719122513    2N0N  00000300000000750000000880032N1    TAYIPL  005400370024
BI00B32N1    NST2121C       202208047116-4120-02             TERMINAL                 CCN000006000000006000FN00000000020220901000006000NNM   20220719122513    4P0P  00000600000000780000001073632N1    TAYIPL  006400630015
BI00B32N1    NST2121C       202208047114-1470                TERMINAL                 CCN000016500000016500FN00000000020220901000016500NNM   20220719122513    4P0P  00001650000000544500000838732N1    TAYIPL  006400630015
BI00B32N1    NST2121C       202208047114-4100-02             TERMINAL                 CCN000342000000342000FN00000000020220901000342000NNM   20220719122513    4P0P  00001800000000748800001077432N1    TAYIPL  006400630017
BI00B32N1    NST2121C       202208047158-3022-80             RUBBER STOPPER           CCN000005000000005000FN00000000020220901000005000NNM   20220719122513    1C0C  00000500000000467500000524032N1    TAYIPL  002700430014
BI00B32N1    NST2121C       202208047283-5845                CONNECTOR HOUSING        CCN000006000000006000FN00000000020220901000006000NNM   20220719122513    1N0N  00000600000000444000000606332N1    TAYIPL  005400370024
BI00B32N1    NST2121C       202208047283-6388-40             CONNECTOR                CCN000002000000002000FN00000000020220901000002000NNM   20220719122513    4N0N  00000200000001029000001173532N1    TAYIPL  005500360039
BI00B32N1    NST2121C       202208047116-1180                TERMINAL                 CCN000175500000175500FN00000000020220901000175500NNM   20220719122513    1P0P  00001950000000618200000903432N1    TAYIPL  006400630015
BI00B32N1    NST2121C       202208047158-3006-90             RUBBER STOPPER           CCN000040000000040000FN00000000020220901000040000NNM   20220719122513    1C0C  00002000000000330600000386032N1    TAYIPL  002700430014
BI00B32N1    #NST2121C      202208047158-3374-90             CONNECTOR WIRE SEAL      CCN000020000000020000FN00000000020220901000020000NNM   20220719122513    2H0H  00002000000000172000000229332N1    TAYIPL  002700430014
BI00B32N1    #NST2121C      202208047282-4190-30             CONNECTOR                CCN000010080000010080FN00000000020220901000010080NNM   20220719122513    2N0N  00000024000000801000001071332N1    TAYIPL  005600390040
BI00B32N1    #NST2121C      202208047157-7812                SEAL RUBBER              CCN000010000000010000FN00000000020220901000010000NNM   20220719122513    2C0C  00001000000000137000000202032N1    TAYIPL  002700430014
BI00B32N1    #NST2121C      202208047157-3952-80             RUBBER STOPPER           CCN000020000000020000FN00000000020220901000020000NNM   20220719122513    2C0C  00001000000000117000000175032N1    TAYIPL  002700430014
BI00B32N1    #NST2121C      202208047282-8395-40             CONNECTOR                CCN000003000000003000FN00000000020220901000003000NNM   20220719122513    2N0N  00000100000001009000001188032N1    TAYIPL  005500360039
BI00B32N1    @NST2121ICU    202209227283-3030-30             HOUSING FEMALE ASS'Y     CCN000005200000005200FN00000000020220901000005200NNED0120220719162152    3N0N  00000160000001062000001275032N1    TAYIPL  005500360039
BI00A32P8    TAPI-2083      202207217298-5955                CONNECTOR SUB ASSY       PNN000072000000072000FN00000000020220801000072000NNMD0020220719122513    4N0N  00000720000001029600001253032P8    YIYTM   005500360039
BI00A32U5    #PU5TAP207A    202207227174-2201-30             SEALED COVER             CCN000001000000001000FN00000000020220701000001000NNED0020220719122513U5  2F0F  00000100000000529500000656432U5    AMAMSD  005400370024
BI00A32U5    #PU5TAP207A    202207227174-2202-30             SEALED COVER             CCN000001400000001400FN00000000020220701000001400NNED0020220719122513U5  2F0F  00000140000000658000000735632U5    AMAMSD  005400370024
BI00B32U9    TPA237         202209017289-6868-30             SEALED ASSY FEMALE       CCN000022680000022680FN00000000020221001000022680NNMD0420220719122513U9  4N0N  00000252000000839200001119232U9    YNYNA-E 005500360039
BI00B32U9    TP0409S        202209017114-6041                TERMINAL                 CCN000039600000039600FN00000000020221001000039600NNE   20220719151918U9  4P0P  00000360000000580700000824232U9    YNYNA-E 006400630015
BI00B32U9    TP0409S        202209017288-3335-30             HOUSING MALE             CCN000001500000001500FN00000000020221001000001500NNE   20220719151918U9  4N0N  00000150000000867000001012032U9    YNYNA-E 005400370024
BI00B32U9    #TP0409S       202209017198-1373-60             HOUSING FEMALE           CCN000002000000002000FN00000000020221001000002000NNE   20220719151916U9  2F0F  00000200000000819400000947432U9    YNYNA-E 005400370024
BI00A32W4    4500196983     202210277283-5574-10             CONNECTOR                CCN000000800000000800FN00000000020221001000000800NNE   20220719122513W4804N0N  00000080000001235000001435232W480  HJYHK-J 005500360039
BI00B32W4    4500196946     202210247116-4121-02             TERMINAL                 CCN000004500000004500FN00000000020221001000004500NNE   20220719122513W4184P0P  00000450000000618800000912432W418  HJYHK   006400630015
BI00A32W4    #4500196986    202210127282-3243-40             CONNECTOR                CCN000002400000002400FN00000000020221001000002400NNE   20220719122513W4802N0N  00000080000001006000001282332W480  HJYHK-J 005600390040
BI00A32W4    4500196994     202208047116-4120-02             TERMINAL                 CCN000006000000006000FN00000000020220801000006000NNE   20220719122513W4804P0P  00000600000000780000001073632W480  HJYHK-J 006400630015
BI00A32W4    4500196994     202208047116-4122-02             TERMINAL                 CCN000022500000022500FN00000000020220801000022500NNE   20220719122513W4804P0P  00000450000000656600000950232W480  HJYHK-J 006400630015
BI00B32W4    4500197014     202209017114-4101-02             TERMINAL                 CCN000015000000015000FN00000000020220901000015000NNE   20220719122513W46 4P0P  00001500000000675000001003632W46   HJYHK   006400630017
BI00B32W4    4500197014     202209017116-4121-02             TERMINAL                 CCN000013500000013500FN00000000020220901000013500NNE   20220719122513W46 4P0P  00000450000000618800000912432W46   HJYHK   006400630015
BI00B32W4    4500197015     202209297116-4120-02             TERMINAL                 CCN000006000000006000FN00000000020220901000006000NNE   20220719122513W46 4P0P  00000600000000780000001073632W46   HJYHK   006400630015
BI00B32W4    4500197015     202209297116-4122-02             TERMINAL                 CCN000004500000004500FN00000000020220901000004500NNE   20220719122513W46 4P0P  00000450000000656600000950232W46   HJYHK   006400630015
BI00B32W4    4500197016     202209017116-2951-02             TERMINAL                 CCN000005400000005400FN00000000020220901000005400NNE   20220719122513W46 4P0P  00000540000000817600001111832W46   HJYHK   006400630015
BI00B32W4    4500197016     202209017116-4101-02             TERMINAL                 CCN000012000000012000FN00000000020220901000012000NNE   20220719122513W46 4P0P  00001200000000582000000876232W46   HJYHK   006400630015
BI00B32W4    4500197016     202209017114-4112-02             TERMINAL                 CCN000009000000009000FN00000000020220901000009000NNE   20220719122513W46 4P0P  00000900000000598500000927132W46   HJYHK   006400630017
BI00B32W4    4500197016     202209017116-4121-02             TERMINAL                 CCN000009000000009000FN00000000020220901000009000NNE   20220719122513W46 4P0P  00000450000000618800000912432W46   HJYHK   006400630015
BI00B32W4    #4500197016    202209017158-3007-10             RUBBER STOPPER           CCN000020000000020000FN00000000020220901000020000NNE   20220719122513W46 2H0H  00002000000000308000000362732W46   HJYHK   002700430014
BI00B32W4    #4500197016    202209017158-3121-80             WIRE SEAL                CCN000020000000020000FN00000000020220901000020000NNE   20220719122513W46 2C0C  00002000000000118000000187332W46   HJYHK   002700430014
BI00B32W6    QA-22-S017     202207277172-5540-80             SEALED WIRE SEAL         PNY000002000000002000FN00000000020220701000002000NNE   20220719122513    1C0C  00002000000000186000000234432W6    SYSYA-WJ004300270014
BI00B32W9    4500197022     202208237158-3070-80             RUBBER STOPPER           CCN000120000000120000FN00000000020220801000120000NNE   20220719122513W9  1C0C  00004000000000276000000333332W9    HKYHK   002700430014
BI00B32W9    #4500197022    202208237283-8398-40             CONNECTOR                CCN000007700000007700FN00000000020220801000007700NNE   20220719122513W9  2N0N  00000154000001007000001171332W9    HKYHK   005600390023
BI00B32Y4    #CA-TMHM-01    202207227289-2913-30             HOUSING FEMALE ASS'Y     CCN000001500000001500FN00000000020220901000001500NNMD0020220719122513    2N0N  00000150000000907500001034532Y4    BIYAB-I 005400370024
BI00B32Y4    #CA-TMHM-01    202207227289-2914-40             HOUSING FEMALE ASS'Y     CCN000001500000001500FN00000000020220901000001500NNMD0020220719122513    2N0N  00000150000000904500001031532Y4    BIYAB-I 005400370024
BI00B32Y4    #CA-TMHM-01    202207227289-2915-30             HOUSING FEMALE ASS'Y     CCN000001500000001500FN00000000020220901000001500NNMD0020220719122513    2N0N  00000150000000964500001091532Y4    BIYAB-I 005400370024
BI00B32Y6    STAP32112      202207217287-3885-40             HYBRID FEMALE ASS'Y      CCN000004800000004800FN00000000020220701000004800NNE   20220719122513    1N0N  00000240000001029600001249632Y6    BSYBL-S 005500360039
