BI00B1200    O022I50308     202208117174-1849-70             COVER                    CCN000025000000025000FN00000000020220901000025000NNE   20220704121957    1F0F  0000250000000062250000076191200    YCYC    005400370024
BI00B1200    O022J50016     202209017116-4100-02             TERMINAL                 CCN000030000000030000FN00000000020221001000030000NNE   20220704121957    4P0P  0000150000000069600000099021200    YCYC    006400630015
BI00A1200    CE22-MN-0074   202207207172-1293                SEALED                   CCN000000480000000480FN00000000020220701000000480NNE   20220704121957    1F0F  0000002400000000000000000001200    YCYC    000000000000
BI00A1200    CE22-MN-0074   202207207137-3058-80             SEALED PACKING           CCN000001920000001920FN00000000020220701000001920NNE   20220704121957    1C0C  0000019200000000000000000001200    YCYC    000000000000
BI00A1200    CE22-MN-0074   20220720X32273-PW11              SEALED COVER             CCN000000240000000240FN00000000020220701000000240NNE   20220704121957    1F0F  0000002400000000000000000001200    YCYC    000000000000
BI00A1200    CE22-MN-0074   202207207173-3295-30             SEALED LEVER             CCN000000720000000720FN00000000020220701000000720NNE   20220704121957    1F0F  0000007200000000000000000001200    YCYC    000000000000
BI00A1200    CE22-MN-0074   20220720X32273-PW92              SEALED COVER             CCN000000240000000240FN00000000020220701000000240NNE   20220704121957    1F0F  0000002400000000000000000001200    YCYC    000000000000
BI00A1200    CE22-MN-0074   202207207172-1292                SEALED                   CCN000000240000000240FN00000000020220701000000240NNE   20220704121957    1F0F  0000002400000000000000000001200    YCYC    000000000000
BI00A1200    CE22-MN-0074   202207207137-3057-80             SEALED PACKING           CCN000001920000001920FN00000000020220701000001920NNE   20220704121957    1C0C  0000019200000000000000000001200    YCYC    000000000000
BI00A1200    CE22-MN-0074   20220720X32273-PW93              SEALED COVER             CCN000000240000000240FN00000000020220701000000240NNE   20220704121957    1F0F  0000002400000000000000000001200    YCYC    000000000000
BI00A1200    CE22-MN-0074   202207207173-3292-30             SEALED LEVER             CCN000000720000000720FN00000000020220701000000720NNE   20220704121957    1F0F  0000007200000000000000000001200    YCYC    000000000000
BI00A1200    #CE22-MN-0074  202207207189-6524-30             SEALED FEMALE            CCN000000480000000480FN00000000020220701000000480NNE   20220704121957    2F0F  0000002400000000000000000001200    YCYC    000000000000
BI00A1200    #CE22-MN-0074  202207207172-5534-80             SEALED MAT SEAL          CCN000000960000000960FN00000000020220701000000960NNE   20220704121957    2H0H  0000009600000000000000000001200    YCYC    000000000000
BI00A1200    #CE22-MN-0074  202207207174-1315-30             SEALED COVER             CCN000000800000000800FN00000000020220701000000800NNE   20220704121957    2F0F  0000008000000078200000090201200    YCYC    005500360039
BI00A1200    #CE22-MN-0074  202207207189-6523-30             SEALED FEMALE            CCN000000240000000240FN00000000020220701000000240NNE   20220704121957    2F0F  0000002400000000000000000001200    YCYC    000000000000
BI00A1200    #CE22-MN-0074  202207207172-5533-80             SEALED MAT SEAL          CCN000000960000000960FN00000000020220701000000960NNE   20220704121957    2H0H  0000009600000000000000000001200    YCYC    000000000000
BI00A1200    #CE22-MN-0074  202207207174-1314-30             SEALED COVER             CCN000000800000000800FN00000000020220701000000800NNE   20220704121957    2F0F  0000008000000076930000088931200    YCYC    005500360039
BI00B32AF    JTB208D        202207227298-2280-30             HOUSING FEMALE ASS'Y     CCN000001920000001920FN00000000020220801000001920NNE   20220704121957    4N0N  00000192000001068000001216032AF    HBYHVTB 005500360039
BI00B32AF    JTB2091        202208117017-1180-02             TERMINAL                 CCN000216000000216000FN00000000020220901000216000NNM   20220704121957    4P0P  00007200000001065600001229032AF    HBYHVTB 005100280028
BI00B32AF    JTB2092        202208197017-1180-02             TERMINAL                 CCN000360000000360000FN00000000020220901000360000NNM   20220704121957    4P0P  00007200000001065600001229032AF    HBYHVTB 005100280028
BI00B32AF    JTB2093        202208267017-1180-02             TERMINAL                 CCN000432000000432000FN00000000020220901000432000NNM   20220704121957    4P0P  00007200000001065600001229032AF    HBYHVTB 005100280028
BI00B32AF    JTB2094        202209027017-1180-02             TERMINAL                 CCN000432000000432000FN00000000020220901000432000NNM   20220704121957    4P0P  00007200000001065600001229032AF    HBYHVTB 005100280028
BI00B32AF    JTB2091        202208117017-1181-02             TERMINAL                 CCN000063000000063000FN00000000020220901000063000NNM   20220704121957    4P0P  00006300000001089900001266832AF    HBYHVTB 005100280028
BI00B32AF    JTB2092        202208197017-1181-02             TERMINAL                 CCN000063000000063000FN00000000020220901000063000NNM   20220704121957    4P0P  00006300000001089900001266832AF    HBYHVTB 005100280028
BI00B32AF    JTB2093        202208267017-1181-02             TERMINAL                 CCN000063000000063000FN00000000020220901000063000NNM   20220704121957    4P0P  00006300000001089900001266832AF    HBYHVTB 005100280028
BI00B32AF    JTB2092        202208197017-1182-02             TERMINAL                 CCN000135000000135000FN00000000020220901000135000NNM   20220704121957    4P0P  00004500000001165500001318632AF    HBYHVTB 005100280028
BI00B32AF    JTB2093        202208267017-1182-02             TERMINAL                 CCN000090000000090000FN00000000020220901000090000NNM   20220704121957    4P0P  00004500000001165500001318632AF    HBYHVTB 005100280028
BI00B32AF    JTB2094        202209027017-1182-02             TERMINAL                 CCN000135000000135000FN00000000020220901000135000NNM   20220704121957    4P0P  00004500000001165500001318632AF    HBYHVTB 005100280028
BI00B32AF    JTB2092        202208197017-1183-02             TERMINAL                 CCN000027000000027000FN00000000020220901000027000NNM   20220704121957    4P0P  00002700000001139400001307432AF    HBYHVTB 005100280028
BI00B32AF    JTB2093        202208267017-1183-02             TERMINAL                 CCN000054000000054000FN00000000020220901000054000NNM   20220704121957    4P0P  00002700000001139400001307432AF    HBYHVTB 005100280028
BI00B32AF    JTB2094        202209027017-1183-02             TERMINAL                 CCN000027000000027000FN00000000020220901000027000NNM   20220704121957    4P0P  00002700000001139400001307432AF    HBYHVTB 005100280028
BI00B32AF    JTB2092        202208197114-1670-02             TERMINAL                 CCN000024000000024000FN00000000020220901000024000NNM   20220704121957    1P0P  00002400000000357600000645832AF    HBYHVTB 006400630015
BI00B32AF    JTB2093        202208267114-1670-02             TERMINAL                 CCN000024000000024000FN00000000020220901000024000NNM   20220704121957    1P0P  00002400000000357600000645832AF    HBYHVTB 006400630015
BI00B32AF    JTB2094        202209027114-1670-02             TERMINAL                 CCN000024000000024000FN00000000020220901000024000NNM   20220704121957    1P0P  00002400000000357600000645832AF    HBYHVTB 006400630015
BI00B32AF    JTB2092        202208197114-4020                TERMINAL                 CCN000084000000084000FN00000000020220901000084000NNM   20220704121957    4P0P  00002100000000875700001169332AF    HBYHVTB 006400630015
BI00B32AF    JTB2093        202208267114-4020                TERMINAL                 CCN000105000000105000FN00000000020220901000105000NNM   20220704121957    4P0P  00002100000000875700001169332AF    HBYHVTB 006400630015
BI00B32AF    JTB2094        202209027114-4020                TERMINAL                 CCN000084000000084000FN00000000020220901000084000NNM   20220704121957    4P0P  00002100000000875700001169332AF    HBYHVTB 006400630015
BI00B32AF    JTB2092        202208197114-4021                TERMINAL                 CCN000030000000030000FN00000000020220901000030000NNM   20220704121957    4P0P  00001500000000670500000964132AF    HBYHVTB 006400630015
BI00B32AF    JTB2093        202208267114-4021                TERMINAL                 CCN000015000000015000FN00000000020220901000015000NNM   20220704121957    4P0P  00001500000000670500000964132AF    HBYHVTB 006400630015
BI00B32AF    JTB2094        202209027114-4021                TERMINAL                 CCN000030000000030000FN00000000020220901000030000NNM   20220704121957    4P0P  00001500000000670500000964132AF    HBYHVTB 006400630015
BI00B32AF    JTB2092        202208197114-4030                TERMINAL                 CCN000010500000010500FN00000000020220901000010500NNM   20220704121957    4P0P  00001050000000926100001254732AF    HBYHVTB 006400630017
BI00B32AF    JTB2093        202208267114-4030                TERMINAL                 CCN000010500000010500FN00000000020220901000010500NNM   20220704121957    4P0P  00001050000000926100001254732AF    HBYHVTB 006400630017
BI00B32AF    JTB2091        202208117114-4031                TERMINAL                 CCN000010500000010500FN00000000020220901000010500NNM   20220704121957    4P0P  00001050000000966000001294632AF    HBYHVTB 006400630017
BI00B32AF    JTB2092        202208197114-4031                TERMINAL                 CCN000042000000042000FN00000000020220901000042000NNM   20220704121957    4P0P  00001050000000966000001294632AF    HBYHVTB 006400630017
BI00B32AF    JTB2093        202208267114-4031                TERMINAL                 CCN000031500000031500FN00000000020220901000031500NNM   20220704121957    4P0P  00001050000000966000001294632AF    HBYHVTB 006400630017
BI00B32AF    JTB2094        202209027114-4031                TERMINAL                 CCN000042000000042000FN00000000020220901000042000NNM   20220704121957    4P0P  00001050000000966000001294632AF    HBYHVTB 006400630017
BI00B32AF    JTB2091        202208117114-4032                TERMINAL                 CCN000022500000022500FN00000000020220901000022500NNM   20220704121957    4P0P  00000750000000735000001063632AF    HBYHVTB 006400630017
BI00B32AF    JTB2092        202208197114-4032                TERMINAL                 CCN000090000000090000FN00000000020220901000090000NNM   20220704121957    4P0P  00000750000000735000001063632AF    HBYHVTB 006400630017
BI00B32AF    JTB2093        202208267114-4032                TERMINAL                 CCN000082500000082500FN00000000020220901000082500NNM   20220704121957    4P0P  00000750000000735000001063632AF    HBYHVTB 006400630017
BI00B32AF    JTB2094        202209027114-4032                TERMINAL                 CCN000090000000090000FN00000000020220901000090000NNM   20220704121957    4P0P  00000750000000735000001063632AF    HBYHVTB 006400630017
BI00B32AF    JTB2091        202208117114-4231-02             TERMINAL                 CCN000108000000108000FN00000000020220901000108000NNM   20220704121957    4P0P  00001800000000554400000848032AF    HBYHVTB 006400630015
BI00B32AF    JTB2092        202208197114-4231-02             TERMINAL                 CCN000180000000180000FN00000000020220901000180000NNM   20220704121957    4P0P  00001800000000554400000848032AF    HBYHVTB 006400630015
BI00B32AF    JTB2093        202208267114-4231-02             TERMINAL                 CCN000234000000234000FN00000000020220901000234000NNM   20220704121957    4P0P  00001800000000554400000848032AF    HBYHVTB 006400630015
BI00B32AF    JTB2094        202209027114-4231-02             TERMINAL                 CCN000234000000234000FN00000000020220901000234000NNM   20220704121957    4P0P  00001800000000554400000848032AF    HBYHVTB 006400630015
BI00B32AF    JTB2093        202208267114-4728-02             TERMINAL                 CCN000300000000300000FN00000000020220901000300000NNM   20220704121957    4P0P  00003000000000510000000804232AF    HBYHVTB 006400630015
BI00B32AF    JTB2094        202209027114-4728-02             TERMINAL                 CCN000750000000750000FN00000000020220901000750000NNM   20220704121957    4P0P  00003000000000510000000804232AF    HBYHVTB 006400630015
BI00B32AF    JTB2093        202208267114-4729-02             TERMINAL                 CCN000120000000120000FN00000000020220901000120000NNM   20220704121957    4P0P  00003000000000516000000810232AF    HBYHVTB 006400630015
BI00B32AF    JTB2094        202209027114-4729-02             TERMINAL                 CCN000120000000120000FN00000000020220901000120000NNM   20220704121957    4P0P  00003000000000516000000810232AF    HBYHVTB 006400630015
BI00B32AF    JTB2092        202208197114-5746-02             TERMINAL                 CCN000021000000021000FN00000000020220901000021000NNM   20220704121957    4P0P  00002100000000695100000988732AF    HBYHVTB 006400630015
BI00B32AF    JTB2093        202208267114-5746-02             TERMINAL                 CCN000063000000063000FN00000000020220901000063000NNM   20220704121957    4P0P  00002100000000695100000988732AF    HBYHVTB 006400630015
BI00B32AF    JTB2094        202209027114-5746-02             TERMINAL                 CCN000105000000105000FN00000000020220901000105000NNM   20220704121957    4P0P  00002100000000695100000988732AF    HBYHVTB 006400630015
BI00B32AF    JTB2092        202208197114-5747-02             TERMINAL                 CCN000036000000036000FN00000000020220901000036000NNM   20220704121957    4P0P  00001800000000626400000920032AF    HBYHVTB 006400630015
BI00B32AF    JTB2093        202208267114-5747-02             TERMINAL                 CCN000162000000162000FN00000000020220901000162000NNM   20220704121957    4P0P  00001800000000626400000920032AF    HBYHVTB 006400630015
BI00B32AF    JTB2094        202209027114-5747-02             TERMINAL                 CCN000270000000270000FN00000000020220901000270000NNM   20220704121957    4P0P  00001800000000626400000920032AF    HBYHVTB 006400630015
BI00B32AF    JTB2093        202208267114-5748-02             TERMINAL                 CCN000048000000048000FN00000000020220901000048000NNM   20220704121957    4P0P  00001200000000444000000737632AF    HBYHVTB 006400630015
BI00B32AF    JTB2094        202209027114-5748-02             TERMINAL                 CCN000120000000120000FN00000000020220901000120000NNM   20220704121957    4P0P  00001200000000444000000737632AF    HBYHVTB 006400630015
BI00B32AF    JTB2094        202209027114-5753-02             TERMINAL                 CCN000081000000081000FN00000000020220901000081000NNM   20220704121957    4P0P  00002700000000847800001141432AF    HBYHVTB 006400630015
BI00B32AF    JTB2092        202208197116-2891-02             TERMINAL                 CCN000015000000015000FN00000000020220901000015000NNM   20220704121957    4P0P  00001500000000982500001145932AF    HBYHVTB 005100280028
BI00B32AF    JTB2093        202208267116-2891-02             TERMINAL                 CCN000015000000015000FN00000000020220901000015000NNM   20220704121957    4P0P  00001500000000982500001145932AF    HBYHVTB 005100280028
BI00B32AF    JTB2094        202209027116-2891-02             TERMINAL                 CCN000015000000015000FN00000000020220901000015000NNM   20220704121957    4P0P  00001500000000982500001145932AF    HBYHVTB 005100280028
BI00B32AF    JTB2091        202208117116-3154-08             TERMINAL                 CCN000027000000027000FN00000000020220901000027000NNM   20220704121957    4P0P  00002700000000475200000760432AF    HBYHVTB 006400630015
BI00B32AF    JTB2093        202208267116-3154-08             TERMINAL                 CCN000027000000027000FN00000000020220901000027000NNM   20220704121957    4P0P  00002700000000475200000760432AF    HBYHVTB 006400630015
BI00B32AF    JTB2094        202209027116-3154-08             TERMINAL                 CCN000027000000027000FN00000000020220901000027000NNM   20220704121957    4P0P  00002700000000475200000760432AF    HBYHVTB 006400630015
BI00B32AF    JTB2092        202208197116-4020                TERMINAL                 CCN000040500000040500FN00000000020220901000040500NNM   20220704121957    4P0P  00001350000000513000000798232AF    HBYHVTB 006400630015
BI00B32AF    JTB2093        202208267116-4020                TERMINAL                 CCN000054000000054000FN00000000020220901000054000NNM   20220704121957    4P0P  00001350000000513000000798232AF    HBYHVTB 006400630015
BI00B32AF    JTB2094        202209027116-4020                TERMINAL                 CCN000027000000027000FN00000000020220901000027000NNM   20220704121957    4P0P  00001350000000513000000798232AF    HBYHVTB 006400630015
BI00B32AF    JTB2091        202208117116-4025                TERMINAL                 CCN000016000000016000FN00000000020220901000016000NNM   20220704121957    4P0P  00001600000000644800000975132AF    HBYHVTB 006400630017
BI00B32AF    JTB2092        202208197116-4025                TERMINAL                 CCN000016000000016000FN00000000020220901000016000NNM   20220704121957    4P0P  00001600000000644800000975132AF    HBYHVTB 006400630017
BI00B32AF    JTB2093        202208267116-4025                TERMINAL                 CCN000016000000016000FN00000000020220901000016000NNM   20220704121957    4P0P  00001600000000644800000975132AF    HBYHVTB 006400630017
BI00B32AF    JTB2091        202208117116-4026                TERMINAL                 CCN000016000000016000FN00000000020220901000016000NNM   20220704121957    4P0P  00001600000000664000000994332AF    HBYHVTB 006400630017
BI00B32AF    JTB2093        202208267116-4026                TERMINAL                 CCN000016000000016000FN00000000020220901000016000NNM   20220704121957    4P0P  00001600000000664000000994332AF    HBYHVTB 006400630017
BI00B32AF    JTB2091        202208117116-4031                TERMINAL                 CCN000007500000007500FN00000000020220901000007500NNM   20220704121957    4P0P  00000750000000619500000904732AF    HBYHVTB 006400630015
BI00B32AF    JTB2092        202208197116-4031                TERMINAL                 CCN000022500000022500FN00000000020220901000022500NNM   20220704121957    4P0P  00000750000000619500000904732AF    HBYHVTB 006400630015
BI00B32AF    JTB2093        202208267116-4031                TERMINAL                 CCN000015000000015000FN00000000020220901000015000NNM   20220704121957    4P0P  00000750000000619500000904732AF    HBYHVTB 006400630015
BI00B32AF    JTB2094        202209027116-4031                TERMINAL                 CCN000022500000022500FN00000000020220901000022500NNM   20220704121957    4P0P  00000750000000619500000904732AF    HBYHVTB 006400630015
BI00B32AF    JTB2091        202208117116-4032                TERMINAL                 CCN000018000000018000FN00000000020220901000018000NNM   20220704121957    4P0P  00000600000000532800000818032AF    HBYHVTB 006400630015
BI00B32AF    JTB2092        202208197116-4032                TERMINAL                 CCN000018000000018000FN00000000020220901000018000NNM   20220704121957    4P0P  00000600000000532800000818032AF    HBYHVTB 006400630015
BI00B32AF    JTB2093        202208267116-4032                TERMINAL                 CCN000018000000018000FN00000000020220901000018000NNM   20220704121957    4P0P  00000600000000532800000818032AF    HBYHVTB 006400630015
BI00B32AF    JTB2094        202209027116-4032                TERMINAL                 CCN000030000000030000FN00000000020220901000030000NNM   20220704121957    4P0P  00000600000000532800000818032AF    HBYHVTB 006400630015
BI00B32AF    JTB2091        202208117116-4111-02             TERMINAL                 CCN000007500000007500FN00000000020220901000007500NNM   20220704121957    4P0P  00000750000000529500000817732AF    HBYHVTB 006400630015
BI00B32AF    JTB2092        202208197116-4111-02             TERMINAL                 CCN000007500000007500FN00000000020220901000007500NNM   20220704121957    4P0P  00000750000000529500000817732AF    HBYHVTB 006400630015
BI00B32AF    JTB2093        202208267116-4112-02             TERMINAL                 CCN000006000000006000FN00000000020220901000006000NNM   20220704121957    4P0P  00000600000000450000000738232AF    HBYHVTB 006400630015
BI00B32AF    JTB2094        202209027116-4112-02             TERMINAL                 CCN000006000000006000FN00000000020220901000006000NNM   20220704121957    4P0P  00000600000000450000000738232AF    HBYHVTB 006400630015
BI00B32AF    JTB2091        202208117116-4121-02             TERMINAL                 CCN000009000000009000FN00000000020220901000009000NNM   20220704121957    4P0P  00000450000000618800000912432AF    HBYHVTB 006400630015
BI00B32AF    JTB2092        202208197116-4121-02             TERMINAL                 CCN000009000000009000FN00000000020220901000009000NNM   20220704121957    4P0P  00000450000000618800000912432AF    HBYHVTB 006400630015
BI00B32AF    JTB2093        202208267116-4121-02             TERMINAL                 CCN000013500000013500FN00000000020220901000013500NNM   20220704121957    4P0P  00000450000000618800000912432AF    HBYHVTB 006400630015
BI00B32AF    JTB2094        202209027116-4121-02             TERMINAL                 CCN000018000000018000FN00000000020220901000018000NNM   20220704121957    4P0P  00000450000000618800000912432AF    HBYHVTB 006400630015
BI00B32AF    JTB2092        202208197116-4231-02             TERMINAL                 CCN000182000000182000FN00000000020220901000182000NNM   20220704121957    4P0P  00002600000000683800001012532AF    HBYHVTB 006400630017
BI00B32AF    JTB2093        202208267116-4231-02             TERMINAL                 CCN000208000000208000FN00000000020220901000208000NNM   20220704121957    4P0P  00002600000000683800001012532AF    HBYHVTB 006400630017
BI00B32AF    JTB2094        202209027116-4231-02             TERMINAL                 CCN000234000000234000FN00000000020220901000234000NNM   20220704121957    4P0P  00002600000000683800001012532AF    HBYHVTB 006400630017
BI00B32AF    JTB2091        202208117116-4416-02             TERMINAL                 CCN000064000000064000FN00000000020220901000064000NNM   20220704121957    4P0P  00003200000000518400000847132AF    HBYHVTB 006400630017
BI00B32AF    JTB2092        202208197116-4416-02             TERMINAL                 CCN000032000000032000FN00000000020220901000032000NNM   20220704121957    4P0P  00003200000000518400000847132AF    HBYHVTB 006400630017
BI00B32AF    JTB2093        202208267116-4416-02             TERMINAL                 CCN000032000000032000FN00000000020220901000032000NNM   20220704121957    4P0P  00003200000000518400000847132AF    HBYHVTB 006400630017
BI00B32AF    JTB2094        202209027116-4416-02             TERMINAL                 CCN000064000000064000FN00000000020220901000064000NNM   20220704121957    4P0P  00003200000000518400000847132AF    HBYHVTB 006400630017
BI00B32AF    JTB2091        202208117116-4486-02             TERMINAL                 CCN000336000000336000FN00000000020220901000336000NNM   20220704121957    4P0P  00002800000000666400000995132AF    HBYHVTB 006400630017
BI00B32AF    JTB2092        202208197116-4486-02             TERMINAL                 CCN000476000000476000FN00000000020220901000476000NNM   20220704121957    4P0P  00002800000000666400000995132AF    HBYHVTB 006400630017
BI00B32AF    JTB2093        202208267116-4486-02             TERMINAL                 CCN000448000000448000FN00000000020220901000448000NNM   20220704121957    4P0P  00002800000000666400000995132AF    HBYHVTB 006400630017
BI00B32AF    JTB2094        202209027116-4486-02             TERMINAL                 CCN000560000000560000FN00000000020220901000560000NNM   20220704121957    4P0P  00002800000000666400000995132AF    HBYHVTB 006400630017
BI00B32AF    JTB2091        202208117116-5042-02             TERMINAL                 CCN000675000000675000FN00000000020220901000675000NNM   20220704121957    4P0P  00001350000000560300000845532AF    HBYHVTB 006400630015
BI00B32AF    JTB2092        202208197116-5042-02             TERMINAL                 CCN000162000000162000FN00000000020220901000162000NNM   20220704121957    4P0P  00001350000000560300000845532AF    HBYHVTB 006400630015
BI00B32AF    JTB2093        202208267116-5042-02             TERMINAL                 CCN000189000000189000FN00000000020220901000189000NNM   20220704121957    4P0P  00001350000000560300000845532AF    HBYHVTB 006400630015
BI00B32AF    JTB2094        202209027116-5042-02             TERMINAL                 CCN000202500000202500FN00000000020220901000202500NNM   20220704121957    4P0P  00001350000000560300000845532AF    HBYHVTB 006400630015
BI00B32AF    JTB2091        202208117116-5043-02             TERMINAL FEMALE          CCN000024000000024000FN00000000020220901000024000NNM   20220704121957    4P0P  00001200000000559200000844432AF    HBYHVTB 006400630015
BI00B32AF    JTB2092        202208197116-5043-02             TERMINAL FEMALE          CCN000084000000084000FN00000000020220901000084000NNM   20220704121957    4P0P  00001200000000559200000844432AF    HBYHVTB 006400630015
BI00B32AF    JTB2093        202208267116-5043-02             TERMINAL FEMALE          CCN000096000000096000FN00000000020220901000096000NNM   20220704121957    4P0P  00001200000000559200000844432AF    HBYHVTB 006400630015
BI00B32AF    JTB2094        202209027116-5043-02             TERMINAL FEMALE          CCN000120000000120000FN00000000020220901000120000NNM   20220704121957    4P0P  00001200000000559200000844432AF    HBYHVTB 006400630015
BI00B32AF    JTB2093        202208267116-5044-02             TERMINAL                 CCN000048000000048000FN00000000020220901000048000NNM   20220704121957    4P0P  00001600000000641600000986332AF    HBYHVTB 006400630017
BI00B32AF    JTB2094        202209027116-5044-02             TERMINAL                 CCN000064000000064000FN00000000020220901000064000NNM   20220704121957    4P0P  00001600000000641600000986332AF    HBYHVTB 006400630017
BI00B32AF    JTB2092        202208197116-5097-02             TERMINAL                 CCN000022500000022500FN00000000020220901000022500NNM   20220704121957    4P0P  00002250000000531000000816232AF    HBYHVTB 006400630015
BI00B32AF    JTB2093        202208267116-5097-02             TERMINAL                 CCN000045000000045000FN00000000020220901000045000NNM   20220704121957    4P0P  00002250000000531000000816232AF    HBYHVTB 006400630015
BI00B32AF    JTB2094        202209027116-5097-02             TERMINAL                 CCN000067500000067500FN00000000020220901000067500NNM   20220704121957    4P0P  00002250000000531000000816232AF    HBYHVTB 006400630015
BI00B32AF    JTB2092        202208197116-6041                TERMINAL                 CCN000009000000009000FN00000000020220901000009000NNM   20220704121957    4P0P  00000450000000716000001009632AF    HBYHVTB 006400630015
BI00B32AF    JTB2093        202208267116-6041                TERMINAL                 CCN000013500000013500FN00000000020220901000013500NNM   20220704121957    4P0P  00000450000000716000001009632AF    HBYHVTB 006400630015
BI00B32AF    JTB2094        202209027116-6041                TERMINAL                 CCN000013500000013500FN00000000020220901000013500NNM   20220704121957    4P0P  00000450000000716000001009632AF    HBYHVTB 006400630015
BI00B32AF    JTB2092        202208197126-8855-02             TERMINAL                 CCN000030000000030000FN00000000020220901000030000NNM   20220704121957    4P0P  00000600000000510600000795832AF    HBYHVTB 006400630015
BI00B32AF    JTB2093        202208267126-8855-02             TERMINAL                 CCN000036000000036000FN00000000020220901000036000NNM   20220704121957    4P0P  00000600000000510600000795832AF    HBYHVTB 006400630015
BI00B32AF    JTB2094        202209027126-8855-02             TERMINAL                 CCN000036000000036000FN00000000020220901000036000NNM   20220704121957    4P0P  00000600000000510600000795832AF    HBYHVTB 006400630015
BI00B32AF    JTB2091        202208117158-3006-90             RUBBER STOPPER           CCN000020000000020000FN00000000020220901000020000NNM   20220704121957    1C0C  00002000000000330600000386032AF    HBYHVTB 002700430014
BI00B32AF    JTB2092        202208197158-3006-90             RUBBER STOPPER           CCN000020000000020000FN00000000020220901000020000NNM   20220704121957    1C0C  00002000000000330600000386032AF    HBYHVTB 002700430014
BI00B32AF    JTB2093        202208267158-3006-90             RUBBER STOPPER           CCN000020000000020000FN00000000020220901000020000NNM   20220704121957    1C0C  00002000000000330600000386032AF    HBYHVTB 002700430014
BI00B32AF    JTB2093        202208267158-3009-60             RUBBER STOPPER           CCN000040000000040000FN00000000020220901000040000NNM   20220704121957    1C0C  00002000000000338000000386232AF    HBYHVTB 002700430014
BI00B32AF    JTB2094        202209027158-3009-60             RUBBER STOPPER           CCN000040000000040000FN00000000020220901000040000NNM   20220704121957    1C0C  00002000000000338000000386232AF    HBYHVTB 002700430014
BI00B32AF    JTB2092        202208197158-3070-80             RUBBER STOPPER           CCN000040000000040000FN00000000020220901000040000NNM   20220704121957    1C0C  00004000000000276000000333332AF    HBYHVTB 002700430014
BI00B32AF    JTB2093        202208267158-3070-80             RUBBER STOPPER           CCN000040000000040000FN00000000020220901000040000NNM   20220704121957    1C0C  00004000000000276000000333332AF    HBYHVTB 002700430014
BI00B32AF    JTB2091        202208117158-3165-90             WIRE SEAL                CCN000360000000360000FN00000000020220901000360000NNM   20220704121957    1C0C  00004000000000124000000172432AF    HBYHVTB 004300270014
BI00B32AF    JTB2092        202208197158-3165-90             WIRE SEAL                CCN000320000000320000FN00000000020220901000320000NNM   20220704121957    1C0C  00004000000000124000000172432AF    HBYHVTB 004300270014
BI00B32AF    JTB2093        202208267158-3165-90             WIRE SEAL                CCN000320000000320000FN00000000020220901000320000NNM   20220704121957    1C0C  00004000000000124000000172432AF    HBYHVTB 004300270014
BI00B32AF    JTB2094        202209027158-3165-90             WIRE SEAL                CCN000320000000320000FN00000000020220901000320000NNM   20220704121957    1C0C  00004000000000124000000172432AF    HBYHVTB 004300270014
BI00B32AF    JTB2091        202208117158-3166-60             WIRE SEAL                CCN000040000000040000FN00000000020220901000040000NNM   20220704121957    1C0C  00004000000000104000000152432AF    HBYHVTB 002700430014
BI00B32AF    JTB2092        202208197158-3166-60             WIRE SEAL                CCN000040000000040000FN00000000020220901000040000NNM   20220704121957    1C0C  00004000000000104000000152432AF    HBYHVTB 002700430014
BI00B32AF    JTB2093        202208267158-3166-60             WIRE SEAL                CCN000040000000040000FN00000000020220901000040000NNM   20220704121957    1C0C  00004000000000104000000152432AF    HBYHVTB 002700430014
BI00B32AF    JTB2094        202209027158-3166-60             WIRE SEAL                CCN000040000000040000FN00000000020220901000040000NNM   20220704121957    1C0C  00004000000000104000000152432AF    HBYHVTB 002700430014
BI00B32AF    JTB2093        202208267158-3167-80             WIRE SEAL                CCN000020000000020000FN00000000020220901000020000NNM   20220704121957    1C0C  00002000000000048000000109032AF    HBYHVTB 002700430014
BI00B32AF    JTB2092        202208197158-3169-40             SEALING PLUG             CCN000040000000040000FN00000000020220901000040000NNM   20220704121957    1C0C  00004000000000156000000204132AF    HBYHVTB 004300260014
BI00B32AF    JTB2093        202208267158-3169-40             SEALING PLUG             CCN000080000000080000FN00000000020220901000080000NNM   20220704121957    1C0C  00004000000000156000000204132AF    HBYHVTB 004300260014
BI00B32AF    JTB2094        202209027158-3169-40             SEALING PLUG             CCN000080000000080000FN00000000020220901000080000NNM   20220704121957    1C0C  00004000000000156000000204132AF    HBYHVTB 004300260014
BI00B32AF    JTB2092        202208197195-1463-02             TERMINAL MALE            CCN000057000000057000FN00000000020220901000057000NNM   20220704121957    4P0P  00002850000000456000000741232AF    HBYHVTB 006400630015
BI00B32AF    JTB2093        202208267195-1463-02             TERMINAL MALE            CCN000085500000085500FN00000000020220901000085500NNM   20220704121957    4P0P  00002850000000456000000741232AF    HBYHVTB 006400630015
BI00B32AF    JTB2094        202209027195-1463-02             TERMINAL MALE            CCN000142500000142500FN00000000020220901000142500NNM   20220704121957    4P0P  00002850000000456000000741232AF    HBYHVTB 006400630015
BI00B32AF    JTB2093        202208267195-1464-02             TERMINAL MALE            CCN000025500000025500FN00000000020220901000025500NNM   20220704121957    4P0P  00002550000000420800000706032AF    HBYHVTB 006400630015
BI00B32AF    JTB2091        202208117196-1460-02             TERMINAL FEMALE          CCN000171000000171000FN00000000020220901000171000NNM   20220704121957    4P0P  00002850000000444600000729832AF    HBYHVTB 006400630015
BI00B32AF    JTB2092        202208197196-1460-02             TERMINAL FEMALE          CCN000256500000256500FN00000000020220901000256500NNM   20220704121957    4P0P  00002850000000444600000729832AF    HBYHVTB 006400630015
BI00B32AF    JTB2093        202208267196-1460-02             TERMINAL FEMALE          CCN000256500000256500FN00000000020220901000256500NNM   20220704121957    4P0P  00002850000000444600000729832AF    HBYHVTB 006400630015
BI00B32AF    JTB2094        202209027196-1460-02             TERMINAL FEMALE          CCN000256500000256500FN00000000020220901000256500NNM   20220704121957    4P0P  00002850000000444600000729832AF    HBYHVTB 006400630015
BI00B32AF    JTB2091        202208117196-1461-02             TERMINAL FEMALE          CCN000024000000024000FN00000000020220901000024000NNM   20220704121957    4P0P  00002400000000386400000671632AF    HBYHVTB 006400630015
BI00B32AF    JTB2092        202208197196-1461-02             TERMINAL FEMALE          CCN000024000000024000FN00000000020220901000024000NNM   20220704121957    4P0P  00002400000000386400000671632AF    HBYHVTB 006400630015
BI00B32AF    JTB2093        202208267196-1461-02             TERMINAL FEMALE          CCN000048000000048000FN00000000020220901000048000NNM   20220704121957    4P0P  00002400000000386400000671632AF    HBYHVTB 006400630015
BI00B32AF    JTB2094        202209027196-1461-02             TERMINAL FEMALE          CCN000072000000072000FN00000000020220901000072000NNM   20220704121957    4P0P  00002400000000386400000671632AF    HBYHVTB 006400630015
BI00B32AF    JTB2091        202208117196-1462-02             TERMINAL FEMALE          CCN000021000000021000FN00000000020220901000021000NNM   20220704121957    4P0P  00002100000000352800000638032AF    HBYHVTB 006400630015
BI00B32AF    JTB2091        202208117283-1028                CONNECTOR HOUSING        CCN000006000000006000FN00000000020220901000006000NNM   20220704121957    4N0N  00000600000000779000001019332AF    HBYHVTB 005600390040
BI00B32AF    JTB2092        202208197283-1028                CONNECTOR HOUSING        CCN000006000000006000FN00000000020220901000006000NNM   20220704121957    4N0N  00000600000000779000001019332AF    HBYHVTB 005600390040
BI00B32AF    JTB2093        202208267283-1028                CONNECTOR HOUSING        CCN000006000000006000FN00000000020220901000006000NNM   20220704121957    4N0N  00000600000000779000001019332AF    HBYHVTB 005600390040
BI00B32AF    JTB2093        202208267283-1156                CONNECTOR                CCN000004800000004800FN00000000020220901000004800NNM   20220704121957    4N0N  00000080000000877600001078032AF    HBYHVTB 005600390040
BI00B32AF    JTB2094        202209027283-1156                CONNECTOR                CCN000004000000004000FN00000000020220901000004000NNM   20220704121957    4N0N  00000080000000877600001078032AF    HBYHVTB 005600390040
BI00B32AF    JTB2092        202208197283-4576                HOUSING FEMALE ASS'Y     CCN000024000000024000FN00000000020220901000024000NNM   20220704121957    4N0N  00000480000000651300000871332AF    HBYHVTB 005500360039
BI00B32AF    JTB2093        202208267283-4576                HOUSING FEMALE ASS'Y     CCN000028800000028800FN00000000020220901000028800NNM   20220704121957    4N0N  00000480000000651300000871332AF    HBYHVTB 005500360039
BI00B32AF    JTB2094        202209027283-4576                HOUSING FEMALE ASS'Y     CCN000014400000014400FN00000000020220901000014400NNM   20220704121957    4N0N  00000480000000651300000871332AF    HBYHVTB 005500360039
BI00B32AF    JTB2092        202208197283-4577                CONNECTOR HOUSING        CCN000004800000004800FN00000000020220901000004800NNM   20220704121957    4N0N  00000480000000916800001136832AF    HBYHVTB 005500360039
BI00B32AF    JTB2093        202208267283-4577                CONNECTOR HOUSING        CCN000004800000004800FN00000000020220901000004800NNM   20220704121957    4N0N  00000480000000916800001136832AF    HBYHVTB 005500360039
BI00B32AF    JTB2094        202209027283-4577                CONNECTOR HOUSING        CCN000004800000004800FN00000000020220901000004800NNM   20220704121957    4N0N  00000480000000916800001136832AF    HBYHVTB 005500360039
BI00B32AF    JTB2093        202208267283-4855                CONNECTOR HOUSING        CCN000004800000004800FN00000000020220901000004800NNM   20220704121957    4N0N  00000240000001188400001400032AF    HBYHVTB 005500360039
BI00B32AF    JTB2094        202209027283-4855                CONNECTOR HOUSING        CCN000002400000002400FN00000000020220901000002400NNM   20220704121957    4N0N  00000240000001188400001400032AF    HBYHVTB 005500360039
BI00B32AF    JTB2093        202208267283-5830-30             CONNECTOR                CCN000006000000006000FN00000000020220901000006000NNM   20220704121957    1N0N  00000600000000954000001104032AF    HBYHVTB 005500360039
BI00B32AF    JTB2092        202208197283-5845                CONNECTOR HOUSING        CCN000024000000024000FN00000000020220901000024000NNM   20220704121957    1N0N  00000600000000444000000606332AF    HBYHVTB 005400370024
BI00B32AF    JTB2093        202208267283-5845                CONNECTOR HOUSING        CCN000024000000024000FN00000000020220901000024000NNM   20220704121957    1N0N  00000600000000444000000606332AF    HBYHVTB 005400370024
BI00B32AF    JTB2094        202209027283-5845                CONNECTOR HOUSING        CCN000012000000012000FN00000000020220901000012000NNM   20220704121957    1N0N  00000600000000444000000606332AF    HBYHVTB 005400370024
BI00B32AF    JTB2091        202208117283-5846                HOUSING                  CCN000013500000013500FN00000000020220901000013500NNM   20220704121957    1N0N  00000150000000885000001102032AF    HBYHVTB 005600390040
BI00B32AF    JTB2092        202208197283-5846                HOUSING                  CCN000016500000016500FN00000000020220901000016500NNM   20220704121957    1N0N  00000150000000885000001102032AF    HBYHVTB 005600390040
BI00B32AF    JTB2093        202208267283-5846                HOUSING                  CCN000013500000013500FN00000000020220901000013500NNM   20220704121957    1N0N  00000150000000885000001102032AF    HBYHVTB 005600390040
BI00B32AF    JTB2094        202209027283-5846                HOUSING                  CCN000004500000004500FN00000000020220901000004500NNM   20220704121957    1N0N  00000150000000885000001102032AF    HBYHVTB 005600390040
BI00B32AF    JTB2091        202208117286-1899                HOUSING SUB ASSEMBLY     CCN000014448000014448FN00000000020220901000014448NNM   20220704121957    4N0N  00000033600000814800001010832AF    HBYHVTB 005400370024
BI00B32AF    JTB2092        202208197286-1899                HOUSING SUB ASSEMBLY     CCN000012432000012432FN00000000020220901000012432NNM   20220704121957    4N0N  00000033600000814800001010832AF    HBYHVTB 005400370024
BI00B32AF    JTB2093        202208267286-1899                HOUSING SUB ASSEMBLY     CCN000011424000011424FN00000000020220901000011424NNM   20220704121957    4N0N  00000033600000814800001010832AF    HBYHVTB 005400370024
BI00B32AF    JTB2094        202209027286-1899                HOUSING SUB ASSEMBLY     CCN000004032000004032FN00000000020220901000004032NNM   20220704121957    4N0N  00000033600000814800001010832AF    HBYHVTB 005400370024
BI00B32AF    JTB2091        202208117286-1900                CONNECTOR HOUSING        CCN000019200000019200FN00000000020220901000019200NNM   20220704121957    4N0N  00000480000001161600001376632AF    HBYHVTB 005500360039
BI00B32AF    JTB2092        202208197286-1900                CONNECTOR HOUSING        CCN000009600000009600FN00000000020220901000009600NNM   20220704121957    4N0N  00000480000001161600001376632AF    HBYHVTB 005500360039
BI00B32AF    JTB2093        202208267286-1900                CONNECTOR HOUSING        CCN000009600000009600FN00000000020220901000009600NNM   20220704121957    4N0N  00000480000001161600001376632AF    HBYHVTB 005500360039
BI00B32AF    JTB2094        202209027286-1900                CONNECTOR HOUSING        CCN000004800000004800FN00000000020220901000004800NNM   20220704121957    4N0N  00000480000001161600001376632AF    HBYHVTB 005500360039
BI00B32AF    JTB2093        202208267287-3885-30             HYBRID FEMALE ASS'Y      CCN000002400000002400FN00000000020220901000002400NNM   20220704121957    1N0N  00000240000001029600001249632AF    HBYHVTB 005500360039
BI00B32AF    JTB2092        202208197289-5011-30             HOUSING FEMALE ASS'Y     CCN000021600000021600FN00000000020220901000021600NNM   20220704121957    4N0N  00000240000001171700001368632AF    HBYHVTB 005500360039
BI00B32AF    JTB2093        202208267289-5011-30             HOUSING FEMALE ASS'Y     CCN000028800000028800FN00000000020220901000028800NNM   20220704121957    4N0N  00000240000001171700001368632AF    HBYHVTB 005500360039
BI00B32AF    JTB2094        202209027289-5011-30             HOUSING FEMALE ASS'Y     CCN000026400000026400FN00000000020220901000026400NNM   20220704121957    4N0N  00000240000001171700001368632AF    HBYHVTB 005500360039
BI00B32AF    JTB2094        202209027297-2287-30             HOUSING MALE ASS'Y       CCN000001200000001200FN00000000020220901000001200NNM   20220704121957    4N0N  00000120000000473900000590032AF    HBYHVTB 005400370024
BI00B32AF    JTB2091        202208117298-1865-30             HOUSING FEMALE ASS'Y     CCN000026400000026400FN00000000020220901000026400NNM   20220704121957    4N0N  00000240000001003200001204532AF    HBYHVTB 005500360039
BI00B32AF    JTB2092        202208197298-1865-30             HOUSING FEMALE ASS'Y     CCN000028800000028800FN00000000020220901000028800NNM   20220704121957    4N0N  00000240000001003200001204532AF    HBYHVTB 005500360039
BI00B32AF    JTB2093        202208267298-1865-30             HOUSING FEMALE ASS'Y     CCN000036000000036000FN00000000020220901000036000NNM   20220704121957    4N0N  00000240000001003200001204532AF    HBYHVTB 005500360039
BI00B32AF    JTB2094        202209027298-1865-30             HOUSING FEMALE ASS'Y     CCN000028800000028800FN00000000020220901000028800NNM   20220704121957    4N0N  00000240000001003200001204532AF    HBYHVTB 005500360039
BI00B32AF    JTB2092        202208197298-1869-30             HOUSING FEMALE ASS'Y     CCN000002400000002400FN00000000020220901000002400NNM   20220704121957    4N0N  00000120000000737000000939832AF    HBYHVTB 005500360039
BI00B32AF    JTB2093        202208267298-1869-30             HOUSING FEMALE ASS'Y     CCN000001200000001200FN00000000020220901000001200NNM   20220704121957    4N0N  00000120000000737000000939832AF    HBYHVTB 005500360039
BI00B32AF    JTB2094        202209027298-1869-30             HOUSING FEMALE ASS'Y     CCN000001200000001200FN00000000020220901000001200NNM   20220704121957    4N0N  00000120000000737000000939832AF    HBYHVTB 005500360039
BI00B32AF    JTB2092        202208197298-2278-30             HOUSING FEMALE ASS'Y     CCN000004800000004800FN00000000020220901000004800NNM   20220704121957    4N0N  00000240000001091700001295432AF    HBYHVTB 005500360039
BI00B32AF    JTB2093        202208267298-2278-30             HOUSING FEMALE ASS'Y     CCN000002400000002400FN00000000020220901000002400NNM   20220704121957    4N0N  00000240000001091700001295432AF    HBYHVTB 005500360039
BI00B32AF    JTB2094        202209027298-2278-30             HOUSING FEMALE ASS'Y     CCN000004800000004800FN00000000020220901000004800NNM   20220704121957    4N0N  00000240000001091700001295432AF    HBYHVTB 005500360039
BI00B32AF    JTB2091        202208117298-2280-30             HOUSING FEMALE ASS'Y     CCN000001920000001920FN00000000020220901000001920NNM   20220704121957    4N0N  00000192000001068000001216032AF    HBYHVTB 005500360039
BI00B32AF    JTB2093        202208267298-2280-30             HOUSING FEMALE ASS'Y     CCN000001920000001920FN00000000020220901000001920NNM   20220704121957    4N0N  00000192000001068000001216032AF    HBYHVTB 005500360039
BI00B32AF    JTB2094        202209027298-2280-30             HOUSING FEMALE ASS'Y     CCN000001920000001920FN00000000020220901000001920NNM   20220704121957    4N0N  00000192000001068000001216032AF    HBYHVTB 005500360039
BI00B32AF    JTB2091        202208117298-2507-30             HOUSING FEMALE ASS'Y     CCN000006000000006000FN00000000020220901000006000NNM   20220704121957    4N0N  00000120000000713200000914532AF    HBYHVTB 005500360039
BI00B32AF    JTB2092        202208197298-2507-30             HOUSING FEMALE ASS'Y     CCN000002400000002400FN00000000020220901000002400NNM   20220704121957    4N0N  00000120000000713200000914532AF    HBYHVTB 005500360039
BI00B32AF    JTB2093        202208267298-2507-30             HOUSING FEMALE ASS'Y     CCN000002400000002400FN00000000020220901000002400NNM   20220704121957    4N0N  00000120000000713200000914532AF    HBYHVTB 005500360039
BI00B32AF    JTB2094        202209027298-2507-30             HOUSING FEMALE ASS'Y     CCN000003600000003600FN00000000020220901000003600NNM   20220704121957    4N0N  00000120000000713200000914532AF    HBYHVTB 005500360039
BI00B32AF    JTB2091        202208117298-2508-30             HOUSING FEMALE ASS'Y     CCN000002400000002400FN00000000020220901000002400NNM   20220704121957    4N0N  00000120000000822000001005032AF    HBYHVTB 005500360039
BI00B32AF    JTB2092        202208197298-2508-30             HOUSING FEMALE ASS'Y     CCN000002400000002400FN00000000020220901000002400NNM   20220704121957    4N0N  00000120000000822000001005032AF    HBYHVTB 005500360039
BI00B32AF    JTB2093        202208267298-2508-30             HOUSING FEMALE ASS'Y     CCN000002400000002400FN00000000020220901000002400NNM   20220704121957    4N0N  00000120000000822000001005032AF    HBYHVTB 005500360039
BI00B32AF    JTB2094        202209027298-2508-30             HOUSING FEMALE ASS'Y     CCN000002400000002400FN00000000020220901000002400NNM   20220704121957    4N0N  00000120000000822000001005032AF    HBYHVTB 005500360039
BI00B32AF    JTB2091        202208117298-2509-30             HOUSING FEMALE ASS'Y     CCN000004800000004800FN00000000020220901000004800NNM   20220704121957    4N0N  00000120000000857500001062532AF    HBYHVTB 005500360039
BI00B32AF    JTB2092        202208197298-2509-30             HOUSING FEMALE ASS'Y     CCN000004800000004800FN00000000020220901000004800NNM   20220704121957    4N0N  00000120000000857500001062532AF    HBYHVTB 005500360039
BI00B32AF    JTB2093        202208267298-2509-30             HOUSING FEMALE ASS'Y     CCN000004800000004800FN00000000020220901000004800NNM   20220704121957    4N0N  00000120000000857500001062532AF    HBYHVTB 005500360039
BI00B32AF    JTB2094        202209027298-2509-30             HOUSING FEMALE ASS'Y     CCN000004800000004800FN00000000020220901000004800NNM   20220704121957    4N0N  00000120000000857500001062532AF    HBYHVTB 005500360039
BI00B32AF    JTB2091        202208117298-5955                CONNECTOR SUB ASSY       CCN000014400000014400FN00000000020220901000014400NNM   20220704121957    4N0N  00000720000001029600001253032AF    HBYHVTB 005500360039
BI00B32AF    JTB2092        202208197298-5955                CONNECTOR SUB ASSY       CCN000036000000036000FN00000000020220901000036000NNM   20220704121957    4N0N  00000720000001029600001253032AF    HBYHVTB 005500360039
BI00B32AF    JTB2093        202208267298-5955                CONNECTOR SUB ASSY       CCN000036000000036000FN00000000020220901000036000NNM   20220704121957    4N0N  00000720000001029600001253032AF    HBYHVTB 005500360039
BI00B32AF    JTB2094        202209027298-5955                CONNECTOR SUB ASSY       CCN000036000000036000FN00000000020220901000036000NNM   20220704121957    4N0N  00000720000001029600001253032AF    HBYHVTB 005500360039
BI00B32AF    JTB2091        202208117388-0314                CONNECTOR ASS'Y          CCN000004800000004800FN00000000020220901000004800NNM   20220704121957    4N0N  00000120000001038000001132332AF    HBYHVTB 005400370024
BI00B32AF    JTB2092        202208197388-0314                CONNECTOR ASS'Y          CCN000013200000013200FN00000000020220901000013200NNM   20220704121957    4N0N  00000120000001038000001132332AF    HBYHVTB 005400370024
BI00B32AF    JTB2093        202208267388-0314                CONNECTOR ASS'Y          CCN000013200000013200FN00000000020220901000013200NNM   20220704121957    4N0N  00000120000001038000001132332AF    HBYHVTB 005400370024
BI00B32AF    JTB2094        202209027388-0314                CONNECTOR ASS'Y          CCN000013200000013200FN00000000020220901000013200NNM   20220704121957    4N0N  00000120000001038000001132332AF    HBYHVTB 005400370024
BI00B32AF    JTB2093        202208267388-0316-80             CONNECTOR ASS'Y          CCN000001200000001200FN00000000020220901000001200NNM   20220704121957    4N0N  00000120000001002500001132532AF    HBYHVTB 005400370024
BI00B32AF    JTB2091        202208117388-0317-60             CONNECTOR ASS'Y          CCN000004800000004800FN00000000020220901000004800NNM   20220704121957    4N0N  00000120000001034400001129332AF    HBYHVTB 005400370024
BI00B32AF    JTB2092        202208197388-0317-60             CONNECTOR ASS'Y          CCN000013200000013200FN00000000020220901000013200NNM   20220704121957    4N0N  00000120000001034400001129332AF    HBYHVTB 005400370024
BI00B32AF    JTB2093        202208267388-0317-60             CONNECTOR ASS'Y          CCN000013200000013200FN00000000020220901000013200NNM   20220704121957    4N0N  00000120000001034400001129332AF    HBYHVTB 005400370024
BI00B32AF    JTB2094        202209027388-0317-60             CONNECTOR ASS'Y          CCN000014400000014400FN00000000020220901000014400NNM   20220704121957    4N0N  00000120000001034400001129332AF    HBYHVTB 005400370024
BI00B32AF    #JTB2091       202208117116-4021                TERMINAL                 CCN000027000000027000FN00000000020220901000027000NNM   20220704121957    2F0P  00001350000000534600000868832AF    HBYHVTB 006400630015
BI00B32AF    #JTB2092       202208197116-4021                TERMINAL                 CCN000027000000027000FN00000000020220901000027000NNM   20220704121957    2F0P  00001350000000534600000868832AF    HBYHVTB 006400630015
BI00B32AF    #JTB2093       202208267116-4021                TERMINAL                 CCN000027000000027000FN00000000020220901000027000NNM   20220704121957    2F0P  00001350000000534600000868832AF    HBYHVTB 006400630015
BI00B32AF    #JTB2092       202208197123-6347                CONNECTOR HOUSING        CCN000006400000006400FN00000000020220901000006400NNM   20220704121957    2F0F  00000160000000647000000904832AF    HBYHVTB 005500360039
BI00B32AF    #JTB2093       202208267123-6347                CONNECTOR HOUSING        CCN000012800000012800FN00000000020220901000012800NNM   20220704121957    2F0F  00000160000000647000000904832AF    HBYHVTB 005500360039
BI00B32AF    #JTB2094       202209027123-6347                CONNECTOR HOUSING        CCN000009600000009600FN00000000020220901000009600NNM   20220704121957    2F0F  00000160000000647000000904832AF    HBYHVTB 005500360039
BI00B32AF    #JTB2092       202208197123-6423-30             CONNECTOR                CCN000004000000004000FN00000000020220901000004000NNM   20220704121957    2F0F  00000200000001002000001167632AF    HBYHVTB 005600390023
BI00B32AF    #JTB2093       202208267123-6423-30             CONNECTOR                CCN000006000000006000FN00000000020220901000006000NNM   20220704121957    2F0F  00000200000001002000001167632AF    HBYHVTB 005600390023
BI00B32AF    #JTB2094       202209027123-6423-30             CONNECTOR                CCN000006000000006000FN00000000020220901000006000NNM   20220704121957    2F0F  00000200000001002000001167632AF    HBYHVTB 005600390023
BI00B32AF    #JTB2093       202208267157-3992-90             CONNECTOR SEALED         CCN000040000000040000FN00000000020220901000040000NNM   20220704121957    2C0C  00004000000000300000000363332AF    HBYHVTB 002700430014
BI00B32AF    #JTB2091       202208117158-3120-90             CONNECTOR WIRE SEAL      CCN000040000000040000FN00000000020220901000040000NNM   20220704121957    2C0C  00002000000000136000000194032AF    HBYHVTB 002700430014
BI00B32AF    #JTB2092       202208197158-3120-90             CONNECTOR WIRE SEAL      CCN000040000000040000FN00000000020220901000040000NNM   20220704121957    2C0C  00002000000000136000000194032AF    HBYHVTB 002700430014
BI00B32AF    #JTB2093       202208267158-3120-90             CONNECTOR WIRE SEAL      CCN000100000000100000FN00000000020220901000100000NNM   20220704121957    2C0C  00002000000000136000000194032AF    HBYHVTB 002700430014
BI00B32AF    #JTB2094       202209027158-3120-90             CONNECTOR WIRE SEAL      CCN000120000000120000FN00000000020220901000120000NNM   20220704121957    2C0C  00002000000000136000000194032AF    HBYHVTB 002700430014
BI00B32AF    #JTB2091       202208117158-3121-80             WIRE SEAL                CCN000020000000020000FN00000000020220901000020000NNM   20220704121957    2C0C  00002000000000118000000187332AF    HBYHVTB 002700430014
BI00B32AF    #JTB2092       202208197158-3121-80             WIRE SEAL                CCN000020000000020000FN00000000020220901000020000NNM   20220704121957    2C0C  00002000000000118000000187332AF    HBYHVTB 002700430014
BI00B32AF    #JTB2093       202208267158-3121-80             WIRE SEAL                CCN000040000000040000FN00000000020220901000040000NNM   20220704121957    2C0C  00002000000000118000000187332AF    HBYHVTB 002700430014
BI00B32AF    #JTB2094       202209027158-3121-80             WIRE SEAL                CCN000040000000040000FN00000000020220901000040000NNM   20220704121957    2C0C  00002000000000118000000187332AF    HBYHVTB 002700430014
BI00B32AF    #JTB2093       202208267183-2413                CONNECTOR HOUSING        CCN000009600000009600FN00000000020220901000009600NNM   20220704121957    2F0F  00000480000000478100000760032AF    HBYHVTB 005500360039
BI00B32AF    #JTB2094       202209027183-2413                CONNECTOR HOUSING        CCN000004800000004800FN00000000020220901000004800NNM   20220704121957    2F0F  00000480000000478100000760032AF    HBYHVTB 005500360039
BI00B32AF    #JTB2091       202208117183-2414                CONNECTOR HOUSING        CCN000009600000009600FN00000000020220901000009600NNM   20220704121957    2F0F  00000480000000779200001061032AF    HBYHVTB 005500360039
BI00B32AF    #JTB2092       202208197183-2414                CONNECTOR HOUSING        CCN000009600000009600FN00000000020220901000009600NNM   20220704121957    2F0F  00000480000000779200001061032AF    HBYHVTB 005500360039
BI00B32AF    #JTB2093       202208267183-2414                CONNECTOR HOUSING        CCN000009600000009600FN00000000020220901000009600NNM   20220704121957    2F0F  00000480000000779200001061032AF    HBYHVTB 005500360039
BI00B32AF    #JTB2094       202209027183-2414                CONNECTOR HOUSING        CCN000009600000009600FN00000000020220901000009600NNM   20220704121957    2F0F  00000480000000779200001061032AF    HBYHVTB 005500360039
BI00B32AF    #JTB2093       202208267183-2418                CONNECTOR HOUSING        CCN000009600000009600FN00000000020220901000009600NNM   20220704121957    2F0F  00000480000000917000001477032AF    HBYHVTB 005500360039
BI00B32AF    #JTB2094       202209027183-2418                CONNECTOR HOUSING        CCN000009600000009600FN00000000020220901000009600NNM   20220704121957    2F0F  00000480000000917000001477032AF    HBYHVTB 005500360039
BI00B32AF    #JTB2093       202208267187-8856-60             HLC HOUSING FEMALE       CCN000002000000002000FN00000000020220901000002000NNM   20220704121957    2F0F  00000200000000820000000931532AF    HBYHVTB 005400370024
BI00B32AF    #JTB2094       202209027187-8856-60             HLC HOUSING FEMALE       CCN000002000000002000FN00000000020220901000002000NNM   20220704121957    2F0F  00000200000000820000000931532AF    HBYHVTB 005400370024
BI00B32AF    #JTB2092       202208197282-1030                CONNECTOR MALE ASS'Y     CCN000003000000003000FN00000000020220901000003000NNM   20220704121957    2N0N  00000100000000365000000487532AF    HBYHVTB 005400370024
BI00B32AF    #JTB2093       202208267282-1030                CONNECTOR MALE ASS'Y     CCN000005000000005000FN00000000020220901000005000NNM   20220704121957    2N0N  00000100000000365000000487532AF    HBYHVTB 005400370024
BI00B32AF    #JTB2094       202209027282-1030                CONNECTOR MALE ASS'Y     CCN000002000000002000FN00000000020220901000002000NNM   20220704121957    2N0N  00000100000000365000000487532AF    HBYHVTB 005400370024
BI00B32AF    #JTB2091       202208117282-5528-70             HOUSING MALE ASS'Y       CCN000006000000006000FN00000000020220901000006000NNM   20220704121957    2N0N  00000100000000230000000339032AF    HBYHVTB 005400370024
BI00B32AF    #JTB2092       202208197282-5528-70             HOUSING MALE ASS'Y       CCN000011000000011000FN00000000020220901000011000NNM   20220704121957    2N0N  00000100000000230000000339032AF    HBYHVTB 005400370024
BI00B32AF    #JTB2093       202208267282-5528-70             HOUSING MALE ASS'Y       CCN000011000000011000FN00000000020220901000011000NNM   20220704121957    2N0N  00000100000000230000000339032AF    HBYHVTB 005400370024
BI00B32AF    #JTB2094       202209027282-5528-70             HOUSING MALE ASS'Y       CCN000009000000009000FN00000000020220901000009000NNM   20220704121957    2N0N  00000100000000230000000339032AF    HBYHVTB 005400370024
BI00B32AF    #JTB2093       202208267283-1150                HOUSING FEMALE ASS'Y     CCN000002000000002000FN00000000020220901000002000NNM   20220704121957    2N0N  00000100000000607000000719532AF    HBYHVTB 005400370024
BI00B32AF    #JTB2094       202209027283-1150                HOUSING FEMALE ASS'Y     CCN000002000000002000FN00000000020220901000002000NNM   20220704121957    2N0N  00000100000000607000000719532AF    HBYHVTB 005400370024
BI00B32AF    #JTB2091       202208117287-1669                HOUSING FEMALE ASS'Y     CCN000006000000006000FN00000000020220901000006000NNM   20220704121957    2N0N  00000200000000788800000980832AF    HBYHVTB 005400370024
BI00B32AF    #JTB2092       202208197287-1669                HOUSING FEMALE ASS'Y     CCN000010000000010000FN00000000020220901000010000NNM   20220704121957    2N0N  00000200000000788800000980832AF    HBYHVTB 005400370024
BI00B32AF    #JTB2093       202208267287-1669                HOUSING FEMALE ASS'Y     CCN000010000000010000FN00000000020220901000010000NNM   20220704121957    2N0N  00000200000000788800000980832AF    HBYHVTB 005400370024
BI00B32AF    #JTB2094       202209027287-1669                HOUSING FEMALE ASS'Y     CCN000008000000008000FN00000000020220901000008000NNM   20220704121957    2N0N  00000200000000788800000980832AF    HBYHVTB 005400370024
BI00B32AF    #JTB2091       202208117287-1670                HOUSING FEMALE ASS'Y     CCN000008400000008400FN00000000020220901000008400NNM   20220704121957    2N0N  00000280000000953100001145132AF    HBYHVTB 005400370024
BI00B32AF    #JTB2092       202208197287-1670                HOUSING FEMALE ASS'Y     CCN000008400000008400FN00000000020220901000008400NNM   20220704121957    2N0N  00000280000000953100001145132AF    HBYHVTB 005400370024
BI00B32AF    #JTB2093       202208267287-1670                HOUSING FEMALE ASS'Y     CCN000011200000011200FN00000000020220901000011200NNM   20220704121957    2N0N  00000280000000953100001145132AF    HBYHVTB 005400370024
BI00B32AF    #JTB2094       202209027287-1670                HOUSING FEMALE ASS'Y     CCN000005600000005600FN00000000020220901000005600NNM   20220704121957    2N0N  00000280000000953100001145132AF    HBYHVTB 005400370024
BI00B32AF    #JTB2091       202208117287-1671                HOUSING FEMALE ASS'Y     CCN000008000000008000FN00000000020220901000008000NNM   20220704121957    2N0N  00000200000000782600000974632AF    HBYHVTB 005400370024
BI00B32AF    #JTB2092       202208197287-1671                HOUSING FEMALE ASS'Y     CCN000010000000010000FN00000000020220901000010000NNM   20220704121957    2N0N  00000200000000782600000974632AF    HBYHVTB 005400370024
BI00B32AF    #JTB2093       202208267287-1671                HOUSING FEMALE ASS'Y     CCN000010000000010000FN00000000020220901000010000NNM   20220704121957    2N0N  00000200000000782600000974632AF    HBYHVTB 005400370024
BI00B32AF    #JTB2094       202209027287-1671                HOUSING FEMALE ASS'Y     CCN000008000000008000FN00000000020220901000008000NNM   20220704121957    2N0N  00000200000000782600000974632AF    HBYHVTB 005400370024
BI00B32AF    #JTB2091       202208117287-1674                HYBRID FEMALE ASS'Y      CCN000008000000008000FN00000000020220901000008000NNM   20220704121957    2N0N  00000200000000810800001002832AF    HBYHVTB 005400370024
BI00B32AF    #JTB2092       202208197287-1674                HYBRID FEMALE ASS'Y      CCN000010000000010000FN00000000020220901000010000NNM   20220704121957    2N0N  00000200000000810800001002832AF    HBYHVTB 005400370024
BI00B32AF    #JTB2093       202208267287-1674                HYBRID FEMALE ASS'Y      CCN000010000000010000FN00000000020220901000010000NNM   20220704121957    2N0N  00000200000000810800001002832AF    HBYHVTB 005400370024
BI00B32AF    #JTB2094       202209027287-1674                HYBRID FEMALE ASS'Y      CCN000006000000006000FN00000000020220901000006000NNM   20220704121957    2N0N  00000200000000810800001002832AF    HBYHVTB 005400370024
BI00B32AF    #JTB2091       202208117287-7022                CONNECTOR FEMALE         CCN000002400000002400FN00000000020220901000002400NNM   20220704121957    2NON  00000120000000742800000853032AF    HBYHVTB 005400370024
BI00B32AF    #JTB2092       202208197287-7022                CONNECTOR FEMALE         CCN000001200000001200FN00000000020220901000001200NNM   20220704121957    2NON  00000120000000742800000853032AF    HBYHVTB 005400370024
BI00B32AF    #JTB2093       202208267287-7022                CONNECTOR FEMALE         CCN000002400000002400FN00000000020220901000002400NNM   20220704121957    2NON  00000120000000742800000853032AF    HBYHVTB 005400370024
BI00B32AF    #JTB2094       202209027287-7022                CONNECTOR FEMALE         CCN000001200000001200FN00000000020220901000001200NNM   20220704121957    2NON  00000120000000742800000853032AF    HBYHVTB 005400370024
BI00B32AF    #JTB2092       202208197297-1907-30             HOUSING MALE ASS'Y       CCN000003000000003000FN00000000020220901000003000NNM   20220704121957    2N0N  00000150000000451800000568032AF    HBYHVTB 005400370024
BI00B32AF    #JTB2093       202208267297-1907-30             HOUSING MALE ASS'Y       CCN000003000000003000FN00000000020220901000003000NNM   20220704121957    2N0N  00000150000000451800000568032AF    HBYHVTB 005400370024
BI00B32AF    #JTB2094       202209027297-1907-30             HOUSING MALE ASS'Y       CCN000003000000003000FN00000000020220901000003000NNM   20220704121957    2N0N  00000150000000451800000568032AF    HBYHVTB 005400370024
BI00B32AF    #JTB2092       202208197297-1911-30             HOUSING MALE ASS'Y       CCN000002000000002000FN00000000020220901000002000NNM   20220704121957    2N0N  00000100000000486900000600132AF    HBYHVTB 005400370024
BI00B32AF    #JTB2093       202208267297-1911-30             HOUSING MALE ASS'Y       CCN000001000000001000FN00000000020220901000001000NNM   20220704121957    2N0N  00000100000000486900000600132AF    HBYHVTB 005400370024
BI00B32AF    #JTB2094       202209027297-1911-30             HOUSING MALE ASS'Y       CCN000001000000001000FN00000000020220901000001000NNM   20220704121957    2N0N  00000100000000486900000600132AF    HBYHVTB 005400370024
BI00T32AF    @JTB208C-I     202208117183-2510                HOUSING                  CCN000012000000012000FN00000000020220801000012000NNE   20220704154918    3F0F  00000300000001063500001159032AF    HBYHVTB 005400370024
BI00T32AF    @JTB2091-I     202209087183-2510                HOUSING                  CCN000033000000033000FN00000000020220901000033000NNM   20220704155614    3F0F  00000300000001063500001159032AF    HBYHVTB 005400370024
BI00T32AF    @JTB2091-I     202209087183-3190                JOINT CONNECTOR          CCN000187200000187200FN00000000020220901000187200NNM   20220704155614    3F0F  00000360000000457600000667832AF    HBYHVTB 005500360039
BI00T32AF    @JTB2091-I     202209087183-7770-40             HOUSING                  CCN000096000000096000FN00000000020220901000096000NNM   20220704155614    3F0F  00000600000001011000001161032AF    HBYHVTB 005400370024
BI00T32AF    @JTB2091-I     202209087282-1060                HOUSING SUB ASSEMBLY     CCN000006400000006400FN00000000020220901000006400NNM   20220704155614    3N0N  00000160000000955500001169032AF    HBYHVTB 005500360039
BI00T32AF    @JTB2091-I     202209087283-1556                CONNECTOR ASS'Y          CCN000040800000040800FN00000000020220901000040800NNM   20220704155614    3N0N  00000240000000755000001014032AF    HBYHVTB 005500360039
BI00T32AF    @JTB2091-I     202209087283-5972                CONNECTOR FEMALE         CCN000057600000057600FN00000000020220901000057600NNM   20220704155614    3N0N  00000480000000550100000763032AF    HBYHVTB 005500360039
BI00T32AF    @JTB2091-I     202209087283-5976                CONNECTOR ASS'Y          CCN000024000000024000FN00000000020220901000024000NNM   20220704155614    3N0N  00000480000000840000001083632AF    HBYHVTB 005500360039
BI00T32AF    @JTB2091-I     202209087283-8179                CONNECTOR HOUSING        CCN000019200000019200FN00000000020220901000019200NNM   20220704155614    3N0N  00000240000000549600000804032AF    HBYHVTB 005500360039
BI00B32B1    A22038         202208267114-4032                TERMINAL                 CCN000007500000007500FN00000000020221101000007500NNM   20220704121957B1  4P0P  00000750000000735000001063632B1    AXARNE-M006400630017
BI00B32B1    A22038         202208267289-3342-90             HOUSING FEMALE ASS'Y     CCN000002400000002400FN00000000020221101000002400NNM   20220704121957B1  1N0N  00000240000000686400000901432B1    AXARNE-M005500360039
BI00B32B1    #A22038        202208267157-3891                RUBBER STOPPER           CCN000010000000010000FN00000000020221101000010000NNM   20220704121957B1  2H0H  00001000000000145000000241732B1    AXARNE-M004300270014
BI00B32B1    #A22038        202208267282-8395-40             CONNECTOR                CCN000008000000008000FN00000000020221101000008000NNM   20220704121957B1  2N0N  00000100000001009000001188032B1    AXARNE-M005500360039
BI00B32B1    #A22038        202208267283-8226-30             CONNECTOR                CCN000010000000010000FN00000000020221101000010000NNM   20220704121957B1  2N0N  00000200000000820000001008032B1    AXARNE-M005400370024
BI00B32B6    A72038         202208267114-4032                TERMINAL                 CCN000007500000007500FN00000000020221101000007500NNM   20220704121957B6  4P0P  00000750000000735000001063632B6    AXARNE-M006400630017
BI00B32B6    A72038         202208267116-4037                TERMINAL                 CCN000012000000012000FN00000000020221101000012000NNM   20220704121957B6  4P0P  00000600000000600000000894232B6    AXARNE-M006400630015
BI00B32B6    A72038         202208267288-3339-30             HOUSING MALE             CCN000003000000003000FN00000000020221101000003000NNM   20220704121957B6  4N0N  00000150000000867000001012032B6    AXARNE-M005400370024
BI00B32B6    A72038         202208267289-3342-30             HOUSING FEMALE ASS'Y     CCN000002400000002400FN00000000020221101000002400NNM   20220704121957B6  1N0N  00000240000000686400000901432B6    AXARNE-M005500360039
BI00B32B7    A82038         202208267158-3166-60             WIRE SEAL                CCN000120000000120000FN00000000020221101000120000NNM   20220704121957B7  1C0C  00004000000000104000000152432B7    AXARNE-M002700430014
BI00B32B7    A82038         202208267158-3169-40             SEALING PLUG             CCN000080000000080000FN00000000020221101000080000NNM   20220704121957B7  1C0C  00004000000000156000000204132B7    AXARNE-M004300260014
BI00B32B7    A82038         202208267282-6448-40             CONNECTOR                CCN000010400000010400FN00000000020221101000010400NNM   20220704121957B7  4N0N  00000080000000887000001152732B7    AXARNE-M005600390040
BI00B32B7    #A82038        202208267158-3376-50             CONNECTOR WIRE SEAL      CCN000060000000060000FN00000000020221101000060000NNM   20220704121957B7  2C0C  00002000000000184000000240732B7    AXARNE-M002700430014
BI00B32CA    PTA32101       202207057114-5096-02             TERMINAL                 CCN000152000000180000FN00000000020221001000180000NNE00020220704132513    4P0P  00003000000000498000000792232CA    YPYPY   006400630015
BI00B32CA    PTA32101       202207057114-5096-08             TERMINAL                 CCN000056000000060000FN00000000020221001000060000NNE00020220704132513    4P0P  00003000000000498000000792232CA    YPYPY   006400630015
BI00B32CA    PTA32101       202207057116-3153-02             TERMINAL FEMALE          CCN001452000001458000FN00000000020221001001458000NNE00020220704132513    4P0P  00002700000000459000000744232CA    YPYPY   006400630015
BI00B32CA    PTA32101       202207057116-3154-02             TERMINAL FEMALE          CCN000396000000405000FN00000000020221001000405000NNE00020220704132513    4P0P  00002700000000469800000755032CA    YPYPY   006400630015
BI00B32CA    PTA32101       202207057116-4486-02             TERMINAL                 CCN000097500000112000FN00000000020221001000112000NNE00020220704132513    4P0P  00002800000000666400000995132CA    YPYPY   006400630017
BI00B32CA    PTA32101       202207057196-0510-02             TERMINAL                 CCN000096000000096000FN00000000020221001000096000NNE00020220704132513    4P0P  00002400000000871200001034632CA    YPYPY   002800510028
BI00B32CA    PTA32101       202207057196-0512-02             TERMINAL                 CCN000015000000021000FN00000000020221001000021000NNE00020220704132513    4P0P  00002100000000871500001034932CA    YPYPY   002800510028
BI00B32CA    PTA32102       202207057114-5096-02             TERMINAL                 CCN000360000000360000FN00000000020221001000360000NNE00020220704132558    4P0P  00003000000000498000000792232CA    YPYPY   006400630015
BI00B32CA    PTA32102       202207057114-5096-08             TERMINAL                 CCN000112000000120000FN00000000020221001000120000NNE00020220704132558    4P0P  00003000000000498000000792232CA    YPYPY   006400630015
BI00B32CA    PTA32102       202207057116-3153-02             TERMINAL FEMALE          CCN000990000000999000FN00000000020221001000999000NNE00020220704132558    4P0P  00002700000000459000000744232CA    YPYPY   006400630015
BI00B32CA    PTA32102       202207057116-3154-02             TERMINAL FEMALE          CCN000330000000351000FN00000000020221001000351000NNE00020220704132558    4P0P  00002700000000469800000755032CA    YPYPY   006400630015
BI00B32CA    PTA32102       202207057116-4486-02             TERMINAL                 CCN000266500000280000FN00000000020221001000280000NNE00020220704132558    4P0P  00002800000000666400000995132CA    YPYPY   006400630017
BI00B32CA    PTA32102       202207057196-0510-02             TERMINAL                 CCN000072000000072000FN00000000020221001000072000NNE00020220704132558    4P0P  00002400000000871200001034632CA    YPYPY   002800510028
BI00B32CH    SJ22082HMW     202207147C89-6868-30             SEALED ASSY FEMALE       CCN000002520000002520FN00000000020220801000002520NNMD0320220704134840    4N0N  00000252000000839200001119232CH    SJSAMIJF005500360039
BI00B32CH    SJ22083HMW     202207217C89-6868-30             SEALED ASSY FEMALE       CCN000030240000030240FN00000000020220801000030240NNMD0320220704134859    4N0N  00000252000000839200001119232CH    SJSAMIJF005500360039
BI00B32CH    SJ22084HMW     202207277C89-6868-30             SEALED ASSY FEMALE       CCN000027720000027720FN00000000020220801000027720NNMD0420220704134915    4N0N  00000252000000839200001119232CH    SJSAMIJF005500360039
BI00B32CH    SJ22082SMW     202207147289-6868-30             SEALED ASSY FEMALE       CCN000002520000002520FN00000000020220801000002520NNMD0320220704134720    4N0N  00000252000000839200001119232CH    SJSAMIJF005500360039
BI00B32CH    SJ22083SMW     202207217289-6868-30             SEALED ASSY FEMALE       CCN000002520000002520FN00000000020220801000002520NNMD0420220704134741    4N0N  00000252000000839200001119232CH    SJSAMIJF005500360039
BI00B32CH    SJ22084SMW     202207277289-6868-30             SEALED ASSY FEMALE       CCN000002520000002520FN00000000020220801000002520NNMD0420220704134804    4N0N  00000252000000839200001119232CH    SJSAMIJF005500360039
BI00T32DE    @ICT2081       202208087183-2510                HOUSING                  CCN000009000000009000FN00000000020220701000009000NNM   20220704140421    3F0F  00000300000001063500001159032DE    TVYEV-TV005400370024
BI00T32DE    @ICT2081       202208087183-3190                JOINT CONNECTOR          CCN000061200000061200FN00000000020220701000061200NNM   20220704140421    3F0F  00000360000000457600000667832DE    TVYEV-TV005500360039
BI00T32DE    @ICT2081       202208087183-8049                CONNECTOR HOUSING        CCN000004000000004000FN00000000020220701000004000NNM   20220704140421    3F0F  00000400000000583600000740032DE    TVYEV-TV005400370024
BI00T32DE    @ICT2081       202208087283-1061                CONNECTOR SUB ASSY       CCN000009600000009600FN00000000020220701000009600NNM   20220704140421    3N0N  00000240000000829700001065032DE    TVYEV-TV005500360039
BI00T32DE    @ICT2081       202208087283-1223-30             HOUSING SUB ASSEMBLY     CCN000009600000009600FN00000000020220701000009600NNM   20220704140421    3N0N  00000480000000749300000998032DE    TVYEV-TV005500360039
BI00T32DE    @ICT2081       202208087283-1556                CONNECTOR ASS'Y          CCN000036000000036000FN00000000020220701000036000NNM   20220704140421    3N0N  00000240000000755000001014032DE    TVYEV-TV005500360039
BI00T32DE    @ICT2081       202208087283-7443-30             HOUSING SUB ASSEMBLY     CCN000009600000009600FN00000000020220701000009600NNM   20220704140421    3N0N  00000240000000683700000908032DE    TVYEV-TV005500360039
BI00B32DG    #RL2091        202208047116-4021                TERMINAL                 CCN000054000000054000FN00000000020220901000054000NNM   20220704153239    2F0P  00001350000000534600000868832DG    BFSAIBF 006400630015
BI00B32DG    #RL2092        202208117116-4021                TERMINAL                 CCN000027000000027000FN00000000020220901000027000NNM   20220704153239    2F0P  00001350000000534600000868832DG    BFSAIBF 006400630015
BI00B32DG    #RL2093        202208187116-4021                TERMINAL                 CCN000027000000027000FN00000000020220901000027000NNM   20220704153239    2F0P  00001350000000534600000868832DG    BFSAIBF 006400630015
BI00B32DG    #RL2094        202208257116-4021                TERMINAL                 CCN000027000000027000FN00000000020220901000027000NNM   20220704153239    2F0P  00001350000000534600000868832DG    BFSAIBF 006400630015
BI00B32DG    #RL2091        202208047283-8123-40             CONNECTOR HOUSING        CCN000004000000004000FN00000000020220901000004000NNM   20220704153239    2N0N  00000400000000380000000530032DG    BFSAIBF 005600390023
BI00B32DG    #RL2091        202208047035-5731                GROMMET                  CCN000001000000001000FN00000000020220901000001000NNM   20220704153239    2H0H  00000050000000808000000918032DG    BFSAIBF 005600390040
BI00B32DG    #RL2092        202208117035-5731                GROMMET                  CCN000000500000000500FN00000000020220901000000500NNM   20220704153239    2H0H  00000050000000808000000918032DG    BFSAIBF 005600390040
BI00B32DG    #RL2091        202208047183-1615                HOUSING                  CCN000004800000004800FN00000000020220901000004800NNM   20220704153239    2F0F  00000480000000757000001042032DG    BFSAIBF 005500360039
BI00B32DG    #RL2091        202208047183-2413-30             CONNECTOR HOUSING        CCN000004800000004800FN00000000020220901000004800NNM   20220704153239    2F0F  00000480000000477600000759532DG    BFSAIBF 005500360039
BI00B32DG    #RL2092        202208117183-2413-30             CONNECTOR HOUSING        CCN000004800000004800FN00000000020220901000004800NNM   20220704153239    2F0F  00000480000000477600000759532DG    BFSAIBF 005500360039
BI00B32DG    #RL2091        202208047114-4022                TERMINAL                 CCN000030000000030000FN00000000020220901000030000NNM   20220704153239    2F0P  00001500000000708000001120632DG    BFSAIBF 006400630015
BI00B32DG    #RL2092        202208117114-4022                TERMINAL                 CCN000015000000015000FN00000000020220901000015000NNM   20220704153239    2F0P  00001500000000708000001120632DG    BFSAIBF 006400630015
BI00B32DG    #RL2093        202208187114-4022                TERMINAL                 CCN000015000000015000FN00000000020220901000015000NNM   20220704153239    2F0P  00001500000000708000001120632DG    BFSAIBF 006400630015
BI00B32DG    #RL2091        202208047158-3008-80             RUBBER STOPPER           CCN000060000000060000FN00000000020220901000060000NNM   20220704153239    2C0C  00002000000000288000000343032DG    BFSAIBF 004300270014
BI00B32DG    #RL2092        202208117158-3008-80             RUBBER STOPPER           CCN000040000000040000FN00000000020220901000040000NNM   20220704153239    2C0C  00002000000000288000000343032DG    BFSAIBF 004300270014
BI00B32DG    #RL2093        202208187158-3008-80             RUBBER STOPPER           CCN000020000000020000FN00000000020220901000020000NNM   20220704153239    2C0C  00002000000000288000000343032DG    BFSAIBF 004300270014
BI00B32DG    #RL2091        202208047158-3007-10             RUBBER STOPPER           CCN000020000000020000FN00000000020220901000020000NNM   20220704153239    2H0H  00002000000000308000000362732DG    BFSAIBF 002700430014
BI00B32DG    #RL2092        202208117158-3007-10             RUBBER STOPPER           CCN000020000000020000FN00000000020220901000020000NNM   20220704153239    2H0H  00002000000000308000000362732DG    BFSAIBF 002700430014
BI00B32DG    #RL2091        202208047189-3031                HOUSING FEMALE           CCN000002400000002400FN00000000020220901000002400NNM   20220704153239    2F0F  00000240000000928800001365832DG    BFSAIBF 005500360039
BI00B32DG    #RL2091        202208047282-1026                CONNECTOR HOUSING        CCN000010000000010000FN00000000020220901000010000NNM   20220704153239    2N0N  00000200000000696000000808532DG    BFSAIBF 005400370024
BI00B32DG    #RL2092        202208117282-1026                CONNECTOR HOUSING        CCN000006000000006000FN00000000020220901000006000NNM   20220704153239    2N0N  00000200000000696000000808532DG    BFSAIBF 005400370024
BI00B32DG    #RL2093        202208187282-1026                CONNECTOR HOUSING        CCN000006000000006000FN00000000020220901000006000NNM   20220704153239    2N0N  00000200000000696000000808532DG    BFSAIBF 005400370024
BI00B32DG    #RL2094        202208257282-1026                CONNECTOR HOUSING        CCN000002000000002000FN00000000020220901000002000NNM   20220704153239    2N0N  00000200000000696000000808532DG    BFSAIBF 005400370024
BI00B32DG    #RL2091        202208047158-3003-90             RUBBER STOPPER           CCN000020000000020000FN00000000020220901000020000NNM   20220704153239    2C0C  00002000000000250000000306032DG    BFSAIBF 002700430014
BI00B32DG    #RL2092        202208117158-3003-90             RUBBER STOPPER           CCN000020000000020000FN00000000020220901000020000NNM   20220704153239    2C0C  00002000000000250000000306032DG    BFSAIBF 002700430014
BI00B32DG    #RL2091        202208047282-3020                CONNECTOR                CCN000001000000001000FN00000000020220901000001000NNM   20220704153239    2N0N  00000100000000984000001145432DG    BFSAIBF 005500360039
BI00B32DG    #RL2092        202208117282-3020                CONNECTOR                CCN000001000000001000FN00000000020220901000001000NNM   20220704153239    2N0N  00000100000000984000001145432DG    BFSAIBF 005500360039
BI00B32DG    #RL2091        202208047183-1616                CONNECTOR HOUSING        CCN000004800000004800FN00000000020220901000004800NNM   20220704153239    2F0F  00000240000000557500000823332DG    BFSAIBF 005500360039
BI00B32DG    #RL2092        202208117183-1616                CONNECTOR HOUSING        CCN000002400000002400FN00000000020220901000002400NNM   20220704153239    2F0F  00000240000000557500000823332DG    BFSAIBF 005500360039
BI00B32DG    #RL2091        202208047172-5629-80             RUBBER STOPPER           CCN000040000000040000FN00000000020220901000040000NNM   20220704153239    2H0H  00002000000000060000000111132DG    BFSAIBF 004300270014
BI00B32DG    #RL2092        202208117172-5629-80             RUBBER STOPPER           CCN000020000000020000FN00000000020220901000020000NNM   20220704153239    2H0H  00002000000000060000000111132DG    BFSAIBF 004300270014
BI00B32DG    #RL2091        202208047172-5632-10             DUMMY PLUG               CCN000060000000060000FN00000000020220901000060000NNM   20220704153239    2H0H  00002000000000080400000131832DG    BFSAIBF 004300270014
BI00B32DG    #RL2092        202208117172-5632-10             DUMMY PLUG               CCN000040000000040000FN00000000020220901000040000NNM   20220704153239    2H0H  00002000000000080400000131832DG    BFSAIBF 004300270014
BI00B32DG    #RL2093        202208187172-5632-10             DUMMY PLUG               CCN000020000000020000FN00000000020220901000020000NNM   20220704153239    2H0H  00002000000000080400000131832DG    BFSAIBF 004300270014
BI00B32DG    #RL2091        202208047183-2418                CONNECTOR HOUSING        CCN000004800000004800FN00000000020220901000004800NNM   20220704153239    2F0F  00000480000000917000001477032DG    BFSAIBF 005500360039
BI00B32DG    #RL2091        202208047172-5630-40             RUBBER STOPPER           CCN000020000000020000FN00000000020220901000020000NNM   20220704153239    2H0H  00002000000000044000000095132DG    BFSAIBF 004300270014
BI00B32DG    #RL2092        202208117172-5630-40             RUBBER STOPPER           CCN000020000000020000FN00000000020220901000020000NNM   20220704153239    2H0H  00002000000000044000000095132DG    BFSAIBF 004300270014
BI00B32DG    #RL2091        202208047286-7860                HOUSING MALE ASS'Y       CCN000001600000001600FN00000000020220901000001600NNM   20220704153239    2N0N  00000080000000951700001139832DG    BFSAIBF 005400370024
BI00B32DG    #RL2092        202208117286-7860                HOUSING MALE ASS'Y       CCN000000800000000800FN00000000020220901000000800NNM   20220704153239    2N0N  00000080000000951700001139832DG    BFSAIBF 005400370024
BI00B32DG    #RL2093        202208187286-7860                HOUSING MALE ASS'Y       CCN000000800000000800FN00000000020220901000000800NNM   20220704153239    2N0N  00000080000000951700001139832DG    BFSAIBF 005400370024
BI00B32DG    RP2091         202208047017-1183-02             TERMINAL                 CCN000027000000027000FN00000000020220901000027000NNM   20220704153317    4P0P  00002700000001139400001307432DG    BFSAIBF 005100280028
BI00B32DG    RP2092         202208117017-1183-02             TERMINAL                 CCN000027000000027000FN00000000020220901000027000NNM   20220704153317    4P0P  00002700000001139400001307432DG    BFSAIBF 005100280028
BI00B32DG    RP2091         202208047114-4020                TERMINAL                 CCN000063000000063000FN00000000020220901000063000NNM   20220704153317    4P0P  00002100000000875700001169332DG    BFSAIBF 006400630015
BI00B32DG    RP2092         202208117114-4020                TERMINAL                 CCN000042000000042000FN00000000020220901000042000NNM   20220704153317    4P0P  00002100000000875700001169332DG    BFSAIBF 006400630015
BI00B32DG    RP2093         202208187114-4020                TERMINAL                 CCN000042000000042000FN00000000020220901000042000NNM   20220704153317    4P0P  00002100000000875700001169332DG    BFSAIBF 006400630015
BI00B32DG    RP2091         202208047114-4021                TERMINAL                 CCN000045000000045000FN00000000020220901000045000NNM   20220704153317    4P0P  00001500000000670500000964132DG    BFSAIBF 006400630015
BI00B32DG    RP2092         202208117114-4021                TERMINAL                 CCN000030000000030000FN00000000020220901000030000NNM   20220704153317    4P0P  00001500000000670500000964132DG    BFSAIBF 006400630015
BI00B32DG    RP2093         202208187114-4021                TERMINAL                 CCN000030000000030000FN00000000020220901000030000NNM   20220704153317    4P0P  00001500000000670500000964132DG    BFSAIBF 006400630015
BI00B32DG    RP2091         202208047114-4032                TERMINAL                 CCN000007500000007500FN00000000020220901000007500NNM   20220704153317    4P0P  00000750000000735000001063632DG    BFSAIBF 006400630017
BI00B32DG    RP2091         202208047114-4231-02             TERMINAL                 CCN000072000000072000FN00000000020220901000072000NNM   20220704153317    4P0P  00001800000000554400000848032DG    BFSAIBF 006400630015
BI00B32DG    RP2092         202208117114-4231-02             TERMINAL                 CCN000036000000036000FN00000000020220901000036000NNM   20220704153317    4P0P  00001800000000554400000848032DG    BFSAIBF 006400630015
BI00B32DG    RP2093         202208187114-4231-02             TERMINAL                 CCN000036000000036000FN00000000020220901000036000NNM   20220704153317    4P0P  00001800000000554400000848032DG    BFSAIBF 006400630015
BI00B32DG    RP2094         202208257114-4231-02             TERMINAL                 CCN000018000000018000FN00000000020220901000018000NNM   20220704153317    4P0P  00001800000000554400000848032DG    BFSAIBF 006400630015
BI00B32DG    RP2091         202208047114-4624-02             TERMINAL                 CCN000048000000048000FN00000000020220901000048000NNM   20220704153317    4P0P  00002400000000895200001188832DG    BFSAIBF 006400630015
BI00B32DG    RP2092         202208117114-4624-02             TERMINAL                 CCN000024000000024000FN00000000020220901000024000NNM   20220704153317    4P0P  00002400000000895200001188832DG    BFSAIBF 006400630015
BI00B32DG    RP2091         202208047114-4728-02             TERMINAL                 CCN000330000000330000FN00000000020220901000330000NNM   20220704153317    4P0P  00003000000000510000000804232DG    BFSAIBF 006400630015
BI00B32DG    RP2092         202208117114-4728-02             TERMINAL                 CCN000180000000180000FN00000000020220901000180000NNM   20220704153317    4P0P  00003000000000510000000804232DG    BFSAIBF 006400630015
BI00B32DG    RP2093         202208187114-4728-02             TERMINAL                 CCN000180000000180000FN00000000020220901000180000NNM   20220704153317    4P0P  00003000000000510000000804232DG    BFSAIBF 006400630015
BI00B32DG    RP2094         202208257114-4728-02             TERMINAL                 CCN000120000000120000FN00000000020220901000120000NNM   20220704153317    4P0P  00003000000000510000000804232DG    BFSAIBF 006400630015
BI00B32DG    RP2091         202208047114-4729-02             TERMINAL                 CCN000090000000090000FN00000000020220901000090000NNM   20220704153317    4P0P  00003000000000516000000810232DG    BFSAIBF 006400630015
BI00B32DG    RP2092         202208117114-4729-02             TERMINAL                 CCN000060000000060000FN00000000020220901000060000NNM   20220704153317    4P0P  00003000000000516000000810232DG    BFSAIBF 006400630015
BI00B32DG    RP2093         202208187114-4729-02             TERMINAL                 CCN000030000000030000FN00000000020220901000030000NNM   20220704153317    4P0P  00003000000000516000000810232DG    BFSAIBF 006400630015
BI00B32DG    RP2091         202208047114-5746-02             TERMINAL                 CCN000084000000084000FN00000000020220901000084000NNM   20220704153317    4P0P  00002100000000695100000988732DG    BFSAIBF 006400630015
BI00B32DG    RP2092         202208117114-5746-02             TERMINAL                 CCN000042000000042000FN00000000020220901000042000NNM   20220704153317    4P0P  00002100000000695100000988732DG    BFSAIBF 006400630015
BI00B32DG    RP2093         202208187114-5746-02             TERMINAL                 CCN000042000000042000FN00000000020220901000042000NNM   20220704153317    4P0P  00002100000000695100000988732DG    BFSAIBF 006400630015
BI00B32DG    RP2091         202208047114-5747-02             TERMINAL                 CCN000126000000126000FN00000000020220901000126000NNM   20220704153317    4P0P  00001800000000626400000920032DG    BFSAIBF 006400630015
BI00B32DG    RP2092         202208117114-5747-02             TERMINAL                 CCN000072000000072000FN00000000020220901000072000NNM   20220704153317    4P0P  00001800000000626400000920032DG    BFSAIBF 006400630015
BI00B32DG    RP2093         202208187114-5747-02             TERMINAL                 CCN000072000000072000FN00000000020220901000072000NNM   20220704153317    4P0P  00001800000000626400000920032DG    BFSAIBF 006400630015
BI00B32DG    RP2094         202208257114-5747-02             TERMINAL                 CCN000036000000036000FN00000000020220901000036000NNM   20220704153317    4P0P  00001800000000626400000920032DG    BFSAIBF 006400630015
BI00B32DG    RP2091         202208047114-5748-02             TERMINAL                 CCN000024000000024000FN00000000020220901000024000NNM   20220704153317    4P0P  00001200000000444000000737632DG    BFSAIBF 006400630015
BI00B32DG    RP2092         202208117114-5748-02             TERMINAL                 CCN000012000000012000FN00000000020220901000012000NNM   20220704153317    4P0P  00001200000000444000000737632DG    BFSAIBF 006400630015
BI00B32DG    RP2093         202208187114-5748-02             TERMINAL                 CCN000012000000012000FN00000000020220901000012000NNM   20220704153317    4P0P  00001200000000444000000737632DG    BFSAIBF 006400630015
BI00B32DG    RP2091         202208047114-5753-02             TERMINAL                 CCN000108000000108000FN00000000020220901000108000NNM   20220704153317    4P0P  00002700000000847800001141432DG    BFSAIBF 006400630015
BI00B32DG    RP2092         202208117114-5753-02             TERMINAL                 CCN000054000000054000FN00000000020220901000054000NNM   20220704153317    4P0P  00002700000000847800001141432DG    BFSAIBF 006400630015
BI00B32DG    RP2093         202208187114-5753-02             TERMINAL                 CCN000054000000054000FN00000000020220901000054000NNM   20220704153317    4P0P  00002700000000847800001141432DG    BFSAIBF 006400630015
BI00B32DG    RP2094         202208257114-5753-02             TERMINAL                 CCN000054000000054000FN00000000020220901000054000NNM   20220704153317    4P0P  00002700000000847800001141432DG    BFSAIBF 006400630015
BI00B32DG    RP2091         202208047116-4020                TERMINAL                 CCN000027000000027000FN00000000020220901000027000NNM   20220704153317    4P0P  00001350000000513000000798232DG    BFSAIBF 006400630015
BI00B32DG    RP2092         202208117116-4020                TERMINAL                 CCN000013500000013500FN00000000020220901000013500NNM   20220704153317    4P0P  00001350000000513000000798232DG    BFSAIBF 006400630015
BI00B32DG    RP2093         202208187116-4020                TERMINAL                 CCN000013500000013500FN00000000020220901000013500NNM   20220704153317    4P0P  00001350000000513000000798232DG    BFSAIBF 006400630015
BI00B32DG    RP2091         202208047116-4025                TERMINAL                 CCN000032000000032000FN00000000020220901000032000NNM   20220704153317    4P0P  00001600000000644800000975132DG    BFSAIBF 006400630017
BI00B32DG    RP2092         202208117116-4025                TERMINAL                 CCN000016000000016000FN00000000020220901000016000NNM   20220704153317    4P0P  00001600000000644800000975132DG    BFSAIBF 006400630017
BI00B32DG    RP2091         202208047116-4032                TERMINAL                 CCN000006000000006000FN00000000020220901000006000NNM   20220704153317    4P0P  00000600000000532800000818032DG    BFSAIBF 006400630015
BI00B32DG    RP2092         202208117116-4032                TERMINAL                 CCN000006000000006000FN00000000020220901000006000NNM   20220704153317    4P0P  00000600000000532800000818032DG    BFSAIBF 006400630015
BI00B32DG    RP2091         202208047116-4231-02             TERMINAL                 CCN000208000000208000FN00000000020220901000208000NNM   20220704153317    4P0P  00002600000000683800001012532DG    BFSAIBF 006400630017
BI00B32DG    RP2092         202208117116-4231-02             TERMINAL                 CCN000104000000104000FN00000000020220901000104000NNM   20220704153317    4P0P  00002600000000683800001012532DG    BFSAIBF 006400630017
BI00B32DG    RP2093         202208187116-4231-02             TERMINAL                 CCN000104000000104000FN00000000020220901000104000NNM   20220704153317    4P0P  00002600000000683800001012532DG    BFSAIBF 006400630017
BI00B32DG    RP2094         202208257116-4231-02             TERMINAL                 CCN000078000000078000FN00000000020220901000078000NNM   20220704153317    4P0P  00002600000000683800001012532DG    BFSAIBF 006400630017
BI00B32DG    RP2091         202208047116-4486-02             TERMINAL                 CCN000252000000252000FN00000000020220901000252000NNM   20220704153317    4P0P  00002800000000666400000995132DG    BFSAIBF 006400630017
BI00B32DG    RP2092         202208117116-4486-02             TERMINAL                 CCN000140000000140000FN00000000020220901000140000NNM   20220704153317    4P0P  00002800000000666400000995132DG    BFSAIBF 006400630017
BI00B32DG    RP2093         202208187116-4486-02             TERMINAL                 CCN000140000000140000FN00000000020220901000140000NNM   20220704153317    4P0P  00002800000000666400000995132DG    BFSAIBF 006400630017
BI00B32DG    RP2094         202208257116-4486-02             TERMINAL                 CCN000056000000056000FN00000000020220901000056000NNM   20220704153317    4P0P  00002800000000666400000995132DG    BFSAIBF 006400630017
BI00B32DG    RP2091         202208047116-5035-02             TERMINAL                 CCN000030000000030000FN00000000020220901000030000NNM   20220704153317    4P0P  00001500000000543000000828232DG    BFSAIBF 006400630015
BI00B32DG    RP2092         202208117116-5035-02             TERMINAL                 CCN000015000000015000FN00000000020220901000015000NNM   20220704153317    4P0P  00001500000000543000000828232DG    BFSAIBF 006400630015
BI00B32DG    RP2093         202208187116-5035-02             TERMINAL                 CCN000015000000015000FN00000000020220901000015000NNM   20220704153317    4P0P  00001500000000543000000828232DG    BFSAIBF 006400630015
BI00B32DG    RP2094         202208257116-5035-02             TERMINAL                 CCN000015000000015000FN00000000020220901000015000NNM   20220704153317    4P0P  00001500000000543000000828232DG    BFSAIBF 006400630015
BI00B32DG    RP2091         202208047116-5041-02             TERMINAL                 CCN000015000000015000FN00000000020220901000015000NNM   20220704153317    4P0P  00001500000000583500000868732DG    BFSAIBF 006400630015
BI00B32DG    RP2092         202208117116-5041-02             TERMINAL                 CCN000015000000015000FN00000000020220901000015000NNM   20220704153317    4P0P  00001500000000583500000868732DG    BFSAIBF 006400630015
BI00B32DG    RP2091         202208047116-5042-02             TERMINAL                 CCN000121500000121500FN00000000020220901000121500NNM   20220704153317    4P0P  00001350000000560300000845532DG    BFSAIBF 006400630015
BI00B32DG    RP2092         202208117116-5042-02             TERMINAL                 CCN000067500000067500FN00000000020220901000067500NNM   20220704153317    4P0P  00001350000000560300000845532DG    BFSAIBF 006400630015
BI00B32DG    RP2093         202208187116-5042-02             TERMINAL                 CCN000067500000067500FN00000000020220901000067500NNM   20220704153317    4P0P  00001350000000560300000845532DG    BFSAIBF 006400630015
BI00B32DG    RP2094         202208257116-5042-02             TERMINAL                 CCN000027000000027000FN00000000020220901000027000NNM   20220704153317    4P0P  00001350000000560300000845532DG    BFSAIBF 006400630015
BI00B32DG    RP2091         202208047116-5044-02             TERMINAL                 CCN000096000000096000FN00000000020220901000096000NNM   20220704153317    4P0P  00001600000000641600000986332DG    BFSAIBF 006400630017
BI00B32DG    RP2092         202208117116-5044-02             TERMINAL                 CCN000048000000048000FN00000000020220901000048000NNM   20220704153317    4P0P  00001600000000641600000986332DG    BFSAIBF 006400630017
BI00B32DG    RP2093         202208187116-5044-02             TERMINAL                 CCN000048000000048000FN00000000020220901000048000NNM   20220704153317    4P0P  00001600000000641600000986332DG    BFSAIBF 006400630017
BI00B32DG    RP2094         202208257116-5044-02             TERMINAL                 CCN000032000000032000FN00000000020220901000032000NNM   20220704153317    4P0P  00001600000000641600000986332DG    BFSAIBF 006400630017
BI00B32DG    RP2091         202208047116-5045-02             TERMINAL                 CCN000064000000064000FN00000000020220901000064000NNM   20220704153317    4P0P  00001600000000678400001007132DG    BFSAIBF 006400630017
BI00B32DG    RP2092         202208117116-5045-02             TERMINAL                 CCN000032000000032000FN00000000020220901000032000NNM   20220704153317    4P0P  00001600000000678400001007132DG    BFSAIBF 006400630017
BI00B32DG    RP2093         202208187116-5045-02             TERMINAL                 CCN000032000000032000FN00000000020220901000032000NNM   20220704153317    4P0P  00001600000000678400001007132DG    BFSAIBF 006400630017
