BI00B32AF    TTB2094        2022090218007704150              AVSS 1.25F R             CCN000008000000008000FN00000000020220901000008000NNM   20220704143423    1W    00000080000001389000000000032AF    HBYHVTB 000000000000UZ328024
BI00B32AF    TTB2094        2022090218007704140              AVSS 1.25F W             CCN000008000000008000FN00000000020220901000008000NNM   20220704143423    1W    00000080000001389000000000032AF    HBYHVTB 000000000000UZ328025
BI00B32AF    @TTB2091       20220811181B0911741              CAVSAS 0.3X3 GY          CCN000002500000002500FN00000000020220901000002500NNM   20220704143422    1W    00000025000002843000000000032AF    HBYHVTB 000000000000UZ427007
BI00B32AF    @TTB2092       20220819181B0911741              CAVSAS 0.3X3 GY          CCN000012500000012500FN00000000020220901000012500NNM   20220704143422    1W    00000025000002843000000000032AF    HBYHVTB 000000000000UZ128017
BI00B32AF    @TTB2093       20220826181B0911741              CAVSAS 0.3X3 GY          CCN000016000000016000FN00000000020220901000016000NNM   20220704143422    1W    00000025000002843000000000032AF    HBYHVTB 000000000000UZ228022
BI00B32AF    @TTB2094       20220902181B0911741              CAVSAS 0.3X3 GY          CCN000017500000017500FN00000000020220901000017500NNM   20220704143422    1W    00000025000002843000000000032AF    HBYHVTB 000000000000UZ328022
BI00B32AF    @TTB2092       20220819181E48013ZZ              CAVSAS-S 0.3X3 GY        CCN000002000000002000FN00000000020220901000002000NNM   20220704143422    1W    00000025000002778200000000032AF    HBYHVTB 000000000000UZ128018
BI00B32AF    @TTB2093       20220826181E48013ZZ              CAVSAS-S 0.3X3 GY        CCN000005000000005000FN00000000020220901000005000NNM   20220704143422    1W    00000025000002778200000000032AF    HBYHVTB 000000000000UZ228023
BI00B32AF    @TTB2094       20220902181E48013ZZ              CAVSAS-S 0.3X3 GY        CCN000005000000005000FN00000000020220901000005000NNM   20220704143422    1W    00000025000002778200000000032AF    HBYHVTB 000000000000UZ328023
BI00B32AF    @TTB2092       20220819181AD2001ZZ              CIVUSAS-S 0.35X1 B       CCN000011000000011000FN00000000020220901000011000NNM   20220704143422    1W    00000055000001540800000000032AF    HBYHVTB 000000000000UZ128012
BI00B32AF    @TTB2093       20220826181AD2001ZZ              CIVUSAS-S 0.35X1 B       CCN000027500000027500FN00000000020220901000027500NNM   20220704143422    1W    00000055000001540800000000032AF    HBYHVTB 000000000000UZ228017
BI00B32AF    @TTB2094       20220902181AD2001ZZ              CIVUSAS-S 0.35X1 B       CCN000027500000027500FN00000000020220901000027500NNM   20220704143422    1W    00000055000001540800000000032AF    HBYHVTB 000000000000UZ328017
BI00B32AF    @TTB2092       20220819181AD2002ZZ              CIVUSAS-S 0.35X2 B       CCN000094500000094500FN00000000020220901000094500NNM   20220704143422    1W    00000045000001713700000000032AF    HBYHVTB 000000000000UZ128015
BI00B32AF    @TTB2093       20220826181AD2002ZZ              CIVUSAS-S 0.35X2 B       CCN000135000000135000FN00000000020220901000135000NNM   20220704143422    1W    00000045000001713700000000032AF    HBYHVTB 000000000000UZ228020
BI00B32AF    @TTB2094       20220902181AD2002ZZ              CIVUSAS-S 0.35X2 B       CCN000157500000157500FN00000000020220901000157500NNM   20220704143422    1W    00000045000001713700000000032AF    HBYHVTB 000000000000UZ328020
BI00B32AF    @TTB2091       20220811181AD2003ZZ              CIVUSAS-S 0.35X3 B       CCN000031500000031500FN00000000020220901000031500NNM   20220704143422    1W    00000035000002172100000000032AF    HBYHVTB 000000000000UZ427006
BI00B32AF    @TTB2092       20220819181AD2003ZZ              CIVUSAS-S 0.35X3 B       CCN000045500000045500FN00000000020220901000045500NNM   20220704143422    1W    00000035000002172100000000032AF    HBYHVTB 000000000000UZ128016
BI00B32AF    @TTB2093       20220826181AD2003ZZ              CIVUSAS-S 0.35X3 B       CCN000043750000043750FN00000000020220901000043750NNM   20220704143422    1W    00000035000002172100000000032AF    HBYHVTB 000000000000UZ228021
BI00B32AF    @TTB2094       20220902181AD2003ZZ              CIVUSAS-S 0.35X3 B       CCN000061250000061250FN00000000020220901000061250NNM   20220704143422    1W    00000035000002172100000000032AF    HBYHVTB 000000000000UZ328021
BI00B32AF    @TTB2091       20220811181AD2008ZZ              CIVUSAS-S 0.5X2 B        CCN000003200000003200FN00000000020220901000003200NNM   20220704143422    1W    00000040000002028000000000032AF    HBYHVTB 000000000000UZ427004
BI00B32AF    @TTB2092       20220819181AD2008ZZ              CIVUSAS-S 0.5X2 B        CCN000036000000036000FN00000000020220901000036000NNM   20220704143422    1W    00000040000002028000000000032AF    HBYHVTB 000000000000UZ128013
BI00B32AF    @TTB2093       20220826181AD2008ZZ              CIVUSAS-S 0.5X2 B        CCN000040000000040000FN00000000020220901000040000NNM   20220704143422    1W    00000040000002028000000000032AF    HBYHVTB 000000000000UZ228018
BI00B32AF    @TTB2094       20220902181AD2008ZZ              CIVUSAS-S 0.5X2 B        CCN000064000000064000FN00000000020220901000064000NNM   20220704143422    1W    00000040000002028000000000032AF    HBYHVTB 000000000000UZ328018
BI00B32AF    @TTB2091       20220811181AD2010ZZ              CIVUSAS-S 0.5X4 B        CCN000005000000005000FN00000000020220901000005000NNM   20220704143422    1W    00000025000003214000000000032AF    HBYHVTB 000000000000UZ427005
BI00B32AF    @TTB2092       20220819181AD2010ZZ              CIVUSAS-S 0.5X4 B        CCN000007000000007000FN00000000020220901000007000NNM   20220704143422    1W    00000025000003214000000000032AF    HBYHVTB 000000000000UZ128014
BI00B32AF    @TTB2093       20220826181AD2010ZZ              CIVUSAS-S 0.5X4 B        CCN000006000000006000FN00000000020220901000006000NNM   20220704143422    1W    00000025000003214000000000032AF    HBYHVTB 000000000000UZ228019
BI00B32AF    @TTB2094       20220902181AD2010ZZ              CIVUSAS-S 0.5X4 B        CCN000009000000009000FN00000000020220901000009000NNM   20220704143422    1W    00000025000003214000000000032AF    HBYHVTB 000000000000UZ328019
BI00B32CJ    TTQ2091        2022081118000004530              AV 8 B                   CCN000001000000001000FN00000000020220901000001000NNM   20220704142832    1W    00000010000010466200000000032CJ    QNYHVQN 000000000000UQ427016
BI00B32CJ    TTQ2092        2022081918000004530              AV 8 B                   CCN000002600000002600FN00000000020220901000002600NNM   20220704142832    1W    00000010000010466200000000032CJ    QNYHVQN 000000000000UQ128026
BI00B32CJ    TTQ2093        2022082618000004530              AV 8 B                   CCN000002800000002800FN00000000020220901000002800NNM   20220704142832    1W    00000010000010466200000000032CJ    QNYHVQN 000000000000UQ228027
BI00B32CJ    TTQ2094        2022090218000004530              AV 8 B                   CCN000002200000002200FN00000000020220901000002200NNM   20220704142832    1W    00000010000010466200000000032CJ    QNYHVQN 000000000000UQ328026
BI00B32CJ    TTQ2091        2022081118000004550              AV 8 R                   CCN000001000000001000FN00000000020220901000001000NNM   20220704142832    1W    00000010000010466200000000032CJ    QNYHVQN 000000000000UQ427017
BI00B32CJ    TTQ2092        2022081918000004550              AV 8 R                   CCN000002000000002000FN00000000020220901000002000NNM   20220704142832    1W    00000010000010466200000000032CJ    QNYHVQN 000000000000UQ128027
BI00B32CJ    TTQ2093        2022082618000004550              AV 8 R                   CCN000001800000001800FN00000000020220901000001800NNM   20220704142832    1W    00000010000010466200000000032CJ    QNYHVQN 000000000000UQ228028
BI00B32CJ    TTQ2094        2022090218000004550              AV 8 R                   CCN000001700000001700FN00000000020220901000001700NNM   20220704142832    1W    00000010000010466200000000032CJ    QNYHVQN 000000000000UQ328027
BI00B32CJ    TTQ2091        2022081118007704130              AVSS 1.25F B             CCN000000800000000800FN00000000020220901000000800NNM   20220704142832    1W    00000080000001389000000000032CJ    QNYHVQN 000000000000UQ427018
BI00B32CJ    TTQ2092        2022081918007704130              AVSS 1.25F B             CCN000000800000000800FN00000000020220901000000800NNM   20220704142832    1W    00000080000001389000000000032CJ    QNYHVQN 000000000000UQ128028
BI00B32CJ    TTQ2093        2022082618007704130              AVSS 1.25F B             CCN000000800000000800FN00000000020220901000000800NNM   20220704142832    1W    00000080000001389000000000032CJ    QNYHVQN 000000000000UQ228029
BI00B32CJ    TTQ2094        2022090218007704130              AVSS 1.25F B             CCN000000800000000800FN00000000020220901000000800NNM   20220704142832    1W    00000080000001389000000000032CJ    QNYHVQN 000000000000UQ328028
BI00B32CJ    TTQ2093        20220826180D0203730              AVSSH 0.3F B             CCN000004000000004000FN00000000020220901000004000NNM   20220704142832    1W    00000200000000515000000000032CJ    QNYHVQN 000000000000UQ228024
BI00B32CJ    TTQ2093        20220826180D0204040              AVSSH 0.75F W            CCN000003000000003000FN00000000020220901000003000NNM   20220704142832    1W    00000100000000934000000000032CJ    QNYHVQN 000000000000UQ228025
BI00B32CJ    TTQ2094        20220902180D0204040              AVSSH 0.75F W            CCN000006000000006000FN00000000020220901000006000NNM   20220704142832    1W    00000100000000934000000000032CJ    QNYHVQN 000000000000UQ328025
BI00B32CJ    TTQ2093        20220826180D0204130              AVSSH 1.25F B            CCN000008000000008000FN00000000020220901000008000NNM   20220704142832    1W    00000080000001458000000000032CJ    QNYHVQN 000000000000UQ228026
BI00B32CJ    TTQ2093        202208261801W004030              IVSSH 0.75F B            CCN000016900000016900FN00000000020220901000016900NNM   20220704142832    1W    00000130000000882000000000032CJ    QNYHVQN 000000000000UQ228030
BI00B32CJ    TTQ2094        202209021801W004030              IVSSH 0.75F B            CCN000010400000010400FN00000000020220901000010400NNM   20220704142832    1W    00000130000000882000000000032CJ    QNYHVQN 000000000000UQ328029
BI00B32CJ    @TTQ2091       20220811181B32012ZZ              AVSSCS 0.3FX2 DGY/BR     CCN000000700000000700FN00000000020220901000000700NNM   20220704142831    1W    00000035000002276000000000032CJ    QNYHVQN 000000000000UQ427013
BI00B32CJ    @TTQ2092       20220819181B32012ZZ              AVSSCS 0.3FX2 DGY/BR     CCN000000700000000700FN00000000020220901000000700NNM   20220704142831    1W    00000035000002276000000000032CJ    QNYHVQN 000000000000UQ128022
BI00B32CJ    @TTQ2093       20220826181B32012ZZ              AVSSCS 0.3FX2 DGY/BR     CCN000000700000000700FN00000000020220901000000700NNM   20220704142831    1W    00000035000002276000000000032CJ    QNYHVQN 000000000000UQ228020
BI00B32CJ    @TTQ2094       20220902181B32012ZZ              AVSSCS 0.3FX2 DGY/BR     CCN000000350000000350FN00000000020220901000000350NNM   20220704142831    1W    00000035000002276000000000032CJ    QNYHVQN 000000000000UQ328021
BI00B32CJ    @TTQ2092       20220819181E48013ZZ              CAVSAS-S 0.3X3 GY        CCN000009000000009000FN00000000020220901000009000NNM   20220704142831    1W    00000025000002778200000000032CJ    QNYHVQN 000000000000UQ128025
BI00B32CJ    @TTQ2093       20220826181E48013ZZ              CAVSAS-S 0.3X3 GY        CCN000012500000012500FN00000000020220901000012500NNM   20220704142831    1W    00000025000002778200000000032CJ    QNYHVQN 000000000000UQ228023
BI00B32CJ    @TTQ2094       20220902181E48013ZZ              CAVSAS-S 0.3X3 GY        CCN000017000000017000FN00000000020220901000017000NNM   20220704142831    1W    00000025000002778200000000032CJ    QNYHVQN 000000000000UQ328024
BI00B32CJ    @TTQ2091       20220811181E48027ZZ              CAVSAS-S 0.5X2 GY/P      CCN000000600000000600FN00000000020220901000000600NNM   20220704142831    1W    00000030000002561000000000032CJ    QNYHVQN 000000000000UQ427014
BI00B32CJ    @TTQ2092       20220819181E48027ZZ              CAVSAS-S 0.5X2 GY/P      CCN000000900000000900FN00000000020220901000000900NNM   20220704142831    1W    00000030000002561000000000032CJ    QNYHVQN 000000000000UQ128023
BI00B32CJ    @TTQ2093       20220826181E48027ZZ              CAVSAS-S 0.5X2 GY/P      CCN000000900000000900FN00000000020220901000000900NNM   20220704142831    1W    00000030000002561000000000032CJ    QNYHVQN 000000000000UQ228021
BI00B32CJ    @TTQ2094       20220902181E48027ZZ              CAVSAS-S 0.5X2 GY/P      CCN000000900000000900FN00000000020220901000000900NNM   20220704142831    1W    00000030000002561000000000032CJ    QNYHVQN 000000000000UQ328022
BI00B32CJ    @TTQ2091       20220811181E48029ZZ              CAVSAS-S 0.5X4 GY        CCN000000400000000400FN00000000020220901000000400NNM   20220704142831    1W    00000020000003995000000000032CJ    QNYHVQN 000000000000UQ427015
BI00B32CJ    @TTQ2092       20220819181E48029ZZ              CAVSAS-S 0.5X4 GY        CCN000001000000001000FN00000000020220901000001000NNM   20220704142831    1W    00000020000003995000000000032CJ    QNYHVQN 000000000000UQ128024
BI00B32CJ    @TTQ2093       20220826181E48029ZZ              CAVSAS-S 0.5X4 GY        CCN000000800000000800FN00000000020220901000000800NNM   20220704142831    1W    00000020000003995000000000032CJ    QNYHVQN 000000000000UQ228022
BI00B32CJ    @TTQ2094       20220902181E48029ZZ              CAVSAS-S 0.5X4 GY        CCN000001000000001000FN00000000020220901000001000NNM   20220704142831    1W    00000020000003995000000000032CJ    QNYHVQN 000000000000UQ328023
BI00B32CJ    @TTQ2091       20220811181AD2001ZZ              CIVUSAS-S 0.35X1 B       CCN000002200000002200FN00000000020220901000002200NNM   20220704142831    1W    00000055000001540800000000032CJ    QNYHVQN 000000000000UQ427011
BI00B32CJ    @TTQ2092       20220819181AD2001ZZ              CIVUSAS-S 0.35X1 B       CCN000001650000001650FN00000000020220901000001650NNM   20220704142831    1W    00000055000001540800000000032CJ    QNYHVQN 000000000000UQ128019
BI00B32CJ    @TTQ2093       20220826181AD2001ZZ              CIVUSAS-S 0.35X1 B       CCN000002200000002200FN00000000020220901000002200NNM   20220704142831    1W    00000055000001540800000000032CJ    QNYHVQN 000000000000UQ228017
BI00B32CJ    @TTQ2094       20220902181AD2001ZZ              CIVUSAS-S 0.35X1 B       CCN000002200000002200FN00000000020220901000002200NNM   20220704142831    1W    00000055000001540800000000032CJ    QNYHVQN 000000000000UQ328016
BI00B32CJ    @TTQ2091       20220811181AD2002ZZ              CIVUSAS-S 0.35X2 B       CCN000007650000007650FN00000000020220901000007650NNM   20220704142831    1W    00000045000001713700000000032CJ    QNYHVQN 000000000000UQ427012
BI00B32CJ    @TTQ2092       20220819181AD2002ZZ              CIVUSAS-S 0.35X2 B       CCN000006750000006750FN00000000020220901000006750NNM   20220704142831    1W    00000045000001713700000000032CJ    QNYHVQN 000000000000UQ128020
BI00B32CJ    @TTQ2093       20220826181AD2002ZZ              CIVUSAS-S 0.35X2 B       CCN000007650000007650FN00000000020220901000007650NNM   20220704142831    1W    00000045000001713700000000032CJ    QNYHVQN 000000000000UQ228018
BI00B32CJ    @TTQ2094       20220902181AD2002ZZ              CIVUSAS-S 0.35X2 B       CCN000006750000006750FN00000000020220901000006750NNM   20220704142831    1W    00000045000001713700000000032CJ    QNYHVQN 000000000000UQ328018
BI00B32CJ    @TTQ2092       20220819181AD2003ZZ              CIVUSAS-S 0.35X3 B       CCN000009800000009800FN00000000020220901000009800NNM   20220704142831    1W    00000035000002172100000000032CJ    QNYHVQN 000000000000UQ128021
BI00B32CJ    @TTQ2093       20220826181AD2003ZZ              CIVUSAS-S 0.35X3 B       CCN000012250000012250FN00000000020220901000012250NNM   20220704142831    1W    00000035000002172100000000032CJ    QNYHVQN 000000000000UQ228019
BI00B32CJ    @TTQ2094       20220902181AD2003ZZ              CIVUSAS-S 0.35X3 B       CCN000015050000015050FN00000000020220901000015050NNM   20220704142831    1W    00000035000002172100000000032CJ    QNYHVQN 000000000000UQ328019
BI00B32CJ    @TTQ2094       20220902181AD2004ZZ              CIVUSAS-S 0.35X4 B       CCN000019200000019200FN00000000020220901000019200NNM   20220704142831    1W    00000030000002799900000000032CJ    QNYHVQN 000000000000UQ328020
BI00B32CJ    @TTQ2094       20220902181AD2010ZZ              CIVUSAS-S 0.5X4 B        CCN000000500000000500FN00000000020220901000000500NNM   20220704142831    1W    00000025000003214000000000032CJ    QNYHVQN 000000000000UQ328017
BI00A32E1    @WC207A        20220705181D69006ZZ              AVSSHCS 1.25FX2 B/R      CCN000000200000000200FN00000000020220701000000200NNE   20220704113209    1W    00000020000004357000000000032E1    SPYSE   000000000000KD526001
BI00B32G7    @JW2207C MW    20220721181E48031ZZ              CAVSAS-S 0.3X2 GY        CCN000000350000000350FN00000000020220701000000350NNE   20220704144149    1W    00000035000002008700000000032G7    JIJAI   000000000000JE127001
BI00B32H0    TT2209BVMW     20220719180D0203961              AVSSH 0.5F LG            CCN000003000000003000FN00000000020220901000003000NNE   20220704144348    1W    00000150000000689000000000032H0    TTTJY   000000000000NL127001
BI00B32H2    TAW208G        20220722180D0203961              AVSSH 0.5F LG            CCN000001500000001500FN00000000020220801000001500NNE   20220704135744    1W    00000150000000689000000000032H2    HVYHV   000000000000UG127001
BI00B32H2    TAW208G        20220722180D0203950              AVSSH 0.5F R             CCN000001500000001500FN00000000020220801000001500NNE   20220704135744    1W    00000150000000689000000000032H2    HVYHV   000000000000UG127002
BI00B32H2    TAW208H        20220729180D0203930              AVSSH 0.5F B             CCN000001500000001500FN00000000020220801000001500NNE   20220704135745    1W    00000150000000689000000000032H2    HVYHV   000000000000UI227002
BI00B32H2    TAW208H        20220729180D0204170              AVSSH 1.25F Y            CCN000000800000000800FN00000000020220801000000800NNE   20220704135745    1W    00000080000001458000000000032H2    HVYHV   000000000000UI227003
BI00B32H2    TAW208J        20220805180D0203930              AVSSH 0.5F B             CCN000001500000001500FN00000000020220801000001500NNE   20220704135746    1W    00000150000000689000000000032H2    HVYHV   000000000000UJ327003
BI00B32H2    TAW208J        20220805180D0204143              AVSSH 1.25F W/B          CCN000000800000000800FN00000000020220801000000800NNE   20220704135746    1W    00000080000001458000000000032H2    HVYHV   000000000000UJ327004
BI00B32H2    TAW2092        2022081918000004530              AV 8 B                   CCN000001300000001300FN00000000020220901000001300NNM   20220704142122    1W    00000010000010466200000000032H2    HVYHV   000000000000UH128057
BI00B32H2    TAW2093        2022082618000004530              AV 8 B                   CCN000002500000002500FN00000000020220901000002500NNM   20220704142122    1W    00000010000010466200000000032H2    HVYHV   000000000000UH228069
BI00B32H2    TAW2094        2022090218000004530              AV 8 B                   CCN000002400000002400FN00000000020220901000002400NNM   20220704142122    1W    00000010000010466200000000032H2    HVYHV   000000000000UH328061
BI00B32H2    TAW2093        2022082618000004540              AV 8 W                   CCN000001100000001100FN00000000020220901000001100NNM   20220704142122    1W    00000010000010466200000000032H2    HVYHV   000000000000UH228070
BI00B32H2    TAW2094        2022090218000004540              AV 8 W                   CCN000001900000001900FN00000000020220901000001900NNM   20220704142122    1W    00000010000010466200000000032H2    HVYHV   000000000000UH328062
BI00B32H2    TAW2091        2022081118007704130              AVSS 1.25F B             CCN000000800000000800FN00000000020220901000000800NNM   20220704142122    1W    00000080000001389000000000032H2    HVYHV   000000000000UH427026
BI00B32H2    TAW2092        2022081918007704130              AVSS 1.25F B             CCN000000800000000800FN00000000020220901000000800NNM   20220704142122    1W    00000080000001389000000000032H2    HVYHV   000000000000UH128058
BI00B32H2    TAW2093        2022082618007704130              AVSS 1.25F B             CCN000000800000000800FN00000000020220901000000800NNM   20220704142122    1W    00000080000001389000000000032H2    HVYHV   000000000000UH228071
BI00B32H2    TAW2094        2022090218007704130              AVSS 1.25F B             CCN000000800000000800FN00000000020220901000000800NNM   20220704142122    1W    00000080000001389000000000032H2    HVYHV   000000000000UH328063
BI00B32H2    TAW2092        2022081918007704160              AVSS 1.25F G             CCN000000800000000800FN00000000020220901000000800NNM   20220704142122    1W    00000080000001389000000000032H2    HVYHV   000000000000UH128059
BI00B32H2    TAW2093        2022082618007704190              AVSS 1.25F L             CCN000000800000000800FN00000000020220901000000800NNM   20220704142122    1W    00000080000001389000000000032H2    HVYHV   000000000000UH228072
BI00B32H2    TAW2091        2022081118007704150              AVSS 1.25F R             CCN000001600000001600FN00000000020220901000001600NNM   20220704142122    1W    00000080000001389000000000032H2    HVYHV   000000000000UH427027
BI00B32H2    TAW2092        2022081918007704150              AVSS 1.25F R             CCN000003200000003200FN00000000020220901000003200NNM   20220704142122    1W    00000080000001389000000000032H2    HVYHV   000000000000UH128060
BI00B32H2    TAW2093        2022082618007704150              AVSS 1.25F R             CCN000003200000003200FN00000000020220901000003200NNM   20220704142122    1W    00000080000001389000000000032H2    HVYHV   000000000000UH228073
BI00B32H2    TAW2094        2022090218007704150              AVSS 1.25F R             CCN000002400000002400FN00000000020220901000002400NNM   20220704142122    1W    00000080000001389000000000032H2    HVYHV   000000000000UH328064
BI00B32H2    TAW2091        2022081118007704140              AVSS 1.25F W             CCN000001600000001600FN00000000020220901000001600NNM   20220704142122    1W    00000080000001389000000000032H2    HVYHV   000000000000UH427028
BI00B32H2    TAW2092        2022081918007704140              AVSS 1.25F W             CCN000004000000004000FN00000000020220901000004000NNM   20220704142122    1W    00000080000001389000000000032H2    HVYHV   000000000000UH128061
BI00B32H2    TAW2093        2022082618007704140              AVSS 1.25F W             CCN000004000000004000FN00000000020220901000004000NNM   20220704142122    1W    00000080000001389000000000032H2    HVYHV   000000000000UH228074
BI00B32H2    TAW2094        2022090218007704140              AVSS 1.25F W             CCN000002400000002400FN00000000020220901000002400NNM   20220704142122    1W    00000080000001389000000000032H2    HVYHV   000000000000UH328065
BI00B32H2    TAW2091        20220811180D0203930              AVSSH 0.5F B             CCN000004500000004500FN00000000020220901000004500NNM   20220704142122    1W    00000150000000689000000000032H2    HVYHV   000000000000UH427018
BI00B32H2    TAW2092        20220819180D0203930              AVSSH 0.5F B             CCN000003000000003000FN00000000020220901000003000NNM   20220704142122    1W    00000150000000689000000000032H2    HVYHV   000000000000UH128053
BI00B32H2    TAW2093        20220826180D0203930              AVSSH 0.5F B             CCN000004500000004500FN00000000020220901000004500NNM   20220704142122    1W    00000150000000689000000000032H2    HVYHV   000000000000UH228059
BI00B32H2    TAW2094        20220902180D0203930              AVSSH 0.5F B             CCN000003000000003000FN00000000020220901000003000NNM   20220704142122    1W    00000150000000689000000000032H2    HVYHV   000000000000UH328058
BI00B32H2    TAW2091        20220811180D0203980              AVSSH 0.5F BR            CCN000001500000001500FN00000000020220901000001500NNM   20220704142122    1W    00000150000000689000000000032H2    HVYHV   000000000000UH427019
BI00B32H2    TAW2093        20220826180D0203980              AVSSH 0.5F BR            CCN000001500000001500FN00000000020220901000001500NNM   20220704142122    1W    00000150000000689000000000032H2    HVYHV   000000000000UH228060
BI00B32H2    TAW2093        20220826180D0203990              AVSSH 0.5F L             CCN000001500000001500FN00000000020220901000001500NNM   20220704142122    1W    00000150000000689000000000032H2    HVYHV   000000000000UH228061
BI00B32H2    TAW2091        20220811180D0203950              AVSSH 0.5F R             CCN000001500000001500FN00000000020220901000001500NNM   20220704142122    1W    00000150000000689000000000032H2    HVYHV   000000000000UH427020
BI00B32H2    TAW2092        20220819180D0203950              AVSSH 0.5F R             CCN000001500000001500FN00000000020220901000001500NNM   20220704142122    1W    00000150000000689000000000032H2    HVYHV   000000000000UH128054
BI00B32H2    TAW2093        20220826180D0203950              AVSSH 0.5F R             CCN000003000000003000FN00000000020220901000003000NNM   20220704142122    1W    00000150000000689000000000032H2    HVYHV   000000000000UH228062
BI00B32H2    TAW2094        20220902180D0203950              AVSSH 0.5F R             CCN000001500000001500FN00000000020220901000001500NNM   20220704142122    1W    00000150000000689000000000032H2    HVYHV   000000000000UH328059
BI00B32H2    TAW2091        20220811180D0203943              AVSSH 0.5F W/B           CCN000003000000003000FN00000000020220901000003000NNM   20220704142122    1W    00000150000000689000000000032H2    HVYHV   000000000000UH427021
BI00B32H2    TAW2092        20220819180D0203943              AVSSH 0.5F W/B           CCN000001500000001500FN00000000020220901000001500NNM   20220704142122    1W    00000150000000689000000000032H2    HVYHV   000000000000UH128055
BI00B32H2    TAW2093        20220826180D0203943              AVSSH 0.5F W/B           CCN000003000000003000FN00000000020220901000003000NNM   20220704142122    1W    00000150000000689000000000032H2    HVYHV   000000000000UH228063
BI00B32H2    TAW2094        20220902180D0203943              AVSSH 0.5F W/B           CCN000001500000001500FN00000000020220901000001500NNM   20220704142122    1W    00000150000000689000000000032H2    HVYHV   000000000000UH328060
BI00B32H2    TAW2091        20220811180D0203970              AVSSH 0.5F Y             CCN000001500000001500FN00000000020220901000001500NNM   20220704142122    1W    00000150000000689000000000032H2    HVYHV   000000000000UH427022
BI00B32H2    TAW2093        20220826180D0204043              AVSSH 0.75F W/B          CCN000001000000001000FN00000000020220901000001000NNM   20220704142122    1W    00000100000000934000000000032H2    HVYHV   000000000000UH228064
BI00B32H2    TAW2091        20220811180D0204180              AVSSH 1.25F BR           CCN000000800000000800FN00000000020220901000000800NNM   20220704142122    1W    00000080000001458000000000032H2    HVYHV   000000000000UH427023
BI00B32H2    TAW2093        20220826180D0204180              AVSSH 1.25F BR           CCN000000800000000800FN00000000020220901000000800NNM   20220704142122    1W    00000080000001458000000000032H2    HVYHV   000000000000UH228065
BI00B32H2    TAW2091        20220811180D0204190              AVSSH 1.25F L            CCN000000800000000800FN00000000020220901000000800NNM   20220704142122    1W    00000080000001458000000000032H2    HVYHV   000000000000UH427024
BI00B32H2    TAW2093        20220826180D0204190              AVSSH 1.25F L            CCN000000800000000800FN00000000020220901000000800NNM   20220704142122    1W    00000080000001458000000000032H2    HVYHV   000000000000UH228066
BI00B32H2    TAW2091        20220811180D0204143              AVSSH 1.25F W/B          CCN000000800000000800FN00000000020220901000000800NNM   20220704142122    1W    00000080000001458000000000032H2    HVYHV   000000000000UH427025
BI00B32H2    TAW2093        20220826180D0204143              AVSSH 1.25F W/B          CCN000000800000000800FN00000000020220901000000800NNM   20220704142122    1W    00000080000001458000000000032H2    HVYHV   000000000000UH228067
BI00B32H2    TAW2092        20220819180D0204170              AVSSH 1.25F Y            CCN000000800000000800FN00000000020220901000000800NNM   20220704142122    1W    00000080000001458000000000032H2    HVYHV   000000000000UH128056
BI00B32H2    TAW2093        20220826180D0204170              AVSSH 1.25F Y            CCN000000800000000800FN00000000020220901000000800NNM   20220704142122    1W    00000080000001458000000000032H2    HVYHV   000000000000UH228068
BI00B32H2    @TAW2092       20220819181B32102S1              AVSSCS 0.5FX2 DGY        CCN000003900000003900FN00000000020220901000003900NNM   20220704142120    1W    00000030000002903000000000032H2    HVYHV   000000000000UH128050
BI00B32H2    @TAW2093       20220826181B32102S1              AVSSCS 0.5FX2 DGY        CCN000008400000008400FN00000000020220901000008400NNM   20220704142120    1W    00000030000002903000000000032H2    HVYHV   000000000000UH228056
BI00B32H2    @TAW2094       20220902181B32102S1              AVSSCS 0.5FX2 DGY        CCN000009000000009000FN00000000020220901000009000NNM   20220704142120    1W    00000030000002903000000000032H2    HVYHV   000000000000UH328055
BI00B32H2    @TAW2091       20220811181D6910230              AVSSHCS 0.5FX2 B         CCN000001200000001200FN00000000020220901000001200NNM   20220704142120    1W    00000030000002385000000000032H2    HVYHV   000000000000UH427016
BI00B32H2    @TAW2092       20220819181D6910230              AVSSHCS 0.5FX2 B         CCN000000900000000900FN00000000020220901000000900NNM   20220704142120    1W    00000030000002385000000000032H2    HVYHV   000000000000UH128051
BI00B32H2    @TAW2093       20220826181D6910230              AVSSHCS 0.5FX2 B         CCN000000900000000900FN00000000020220901000000900NNM   20220704142120    1W    00000030000002385000000000032H2    HVYHV   000000000000UH228057
BI00B32H2    @TAW2094       20220902181D6910230              AVSSHCS 0.5FX2 B         CCN000000600000000600FN00000000020220901000000600NNM   20220704142120    1W    00000030000002385000000000032H2    HVYHV   000000000000UH328056
BI00B32H2    @TAW2091       20220811181F21002ZZ              AVSSHCS-S 0.5FX1 B       CCN000002000000002000FN00000000020220901000002000NNM   20220704142120    1W    00000040000001908400000000032H2    HVYHV   000000000000UH427017
BI00B32H2    @TAW2092       20220819181F21002ZZ              AVSSHCS-S 0.5FX1 B       CCN000007200000007200FN00000000020220901000007200NNM   20220704142120    1W    00000040000001908400000000032H2    HVYHV   000000000000UH128052
BI00B32H2    @TAW2093       20220826181F21002ZZ              AVSSHCS-S 0.5FX1 B       CCN000007200000007200FN00000000020220901000007200NNM   20220704142120    1W    00000040000001908400000000032H2    HVYHV   000000000000UH228058
BI00B32H2    @TAW2094       20220902181F21002ZZ              AVSSHCS-S 0.5FX1 B       CCN000007200000007200FN00000000020220901000007200NNM   20220704142120    1W    00000040000001908400000000032H2    HVYHV   000000000000UH328057
BI00B32H2    @TAW2094       20220902181AD2001ZZ              CIVUSAS-S 0.35X1 B       CCN000001650000001650FN00000000020220901000001650NNM   20220704142120    1W    00000055000001540800000000032H2    HVYHV   000000000000UH328050
BI00B32H2    @TAW2093       20220826181AD2002ZZ              CIVUSAS-S 0.35X2 B       CCN000002250000002250FN00000000020220901000002250NNM   20220704142120    1W    00000045000001713700000000032H2    HVYHV   000000000000UH228053
BI00B32H2    @TAW2094       20220902181AD2002ZZ              CIVUSAS-S 0.35X2 B       CCN000014850000014850FN00000000020220901000014850NNM   20220704142120    1W    00000045000001713700000000032H2    HVYHV   000000000000UH328052
BI00B32H2    @TAW2092       20220819181AD2003ZZ              CIVUSAS-S 0.35X3 B       CCN000030100000030100FN00000000020220901000030100NNM   20220704142120    1W    00000035000002172100000000032H2    HVYHV   000000000000UH128049
BI00B32H2    @TAW2093       20220826181AD2003ZZ              CIVUSAS-S 0.35X3 B       CCN000044450000044450FN00000000020220901000044450NNM   20220704142120    1W    00000035000002172100000000032H2    HVYHV   000000000000UH228054
BI00B32H2    @TAW2094       20220902181AD2003ZZ              CIVUSAS-S 0.35X3 B       CCN000045500000045500FN00000000020220901000045500NNM   20220704142120    1W    00000035000002172100000000032H2    HVYHV   000000000000UH328053
BI00B32H2    @TAW2093       20220826181AD2004ZZ              CIVUSAS-S 0.35X4 B       CCN000002100000002100FN00000000020220901000002100NNM   20220704142120    1W    00000030000002799900000000032H2    HVYHV   000000000000UH228055
BI00B32H2    @TAW2094       20220902181AD2004ZZ              CIVUSAS-S 0.35X4 B       CCN000034200000034200FN00000000020220901000034200NNM   20220704142120    1W    00000030000002799900000000032H2    HVYHV   000000000000UH328054
BI00B32H2    @TAW2091       20220811181AD2008ZZ              CIVUSAS-S 0.5X2 B        CCN000010000000010000FN00000000020220901000010000NNM   20220704142120    1W    00000040000002028000000000032H2    HVYHV   000000000000UH427015
BI00B32H2    @TAW2092       20220819181AD2008ZZ              CIVUSAS-S 0.5X2 B        CCN000022400000022400FN00000000020220901000022400NNM   20220704142120    1W    00000040000002028000000000032H2    HVYHV   000000000000UH128048
BI00B32H2    @TAW2093       20220826181AD2008ZZ              CIVUSAS-S 0.5X2 B        CCN000022000000022000FN00000000020220901000022000NNM   20220704142120    1W    00000040000002028000000000032H2    HVYHV   000000000000UH228052
BI00B32H2    @TAW2094       20220902181AD2008ZZ              CIVUSAS-S 0.5X2 B        CCN000022000000022000FN00000000020220901000022000NNM   20220704142120    1W    00000040000002028000000000032H2    HVYHV   000000000000UH328051
BI00B32H2    @TAW2092       20220819181AD2023ZZ              CIVUSAS-S 0.13X2 B       CCN000004800000004800FN00000000020220901000004800NNM   20220704142120    1W    00000060000001031100000000032H2    HVYHV   000000000000UH128045
BI00B32H2    @TAW2093       20220826181AD2023ZZ              CIVUSAS-S 0.13X2 B       CCN000007800000007800FN00000000020220901000007800NNM   20220704142120    1W    00000060000001031100000000032H2    HVYHV   000000000000UH228049
BI00B32H2    @TAW2094       20220902181AD2023ZZ              CIVUSAS-S 0.13X2 B       CCN000008400000008400FN00000000020220901000008400NNM   20220704142120    1W    00000060000001031100000000032H2    HVYHV   000000000000UH328047
BI00B32H2    @TAW2092       20220819181AD2024ZZ              CIVUSAS-S 0.13X3 B       CCN000003500000003500FN00000000020220901000003500NNM   20220704142120    1W    00000050000001297300000000032H2    HVYHV   000000000000UH128046
BI00B32H2    @TAW2093       20220826181AD2024ZZ              CIVUSAS-S 0.13X3 B       CCN000004000000004000FN00000000020220901000004000NNM   20220704142120    1W    00000050000001297300000000032H2    HVYHV   000000000000UH228050
BI00B32H2    @TAW2094       20220902181AD2024ZZ              CIVUSAS-S 0.13X3 B       CCN000004000000004000FN00000000020220901000004000NNM   20220704142120    1W    00000050000001297300000000032H2    HVYHV   000000000000UH328048
BI00B32H2    @TAW2092       20220819181AD2025ZZ              CIVUSAS-S 0.13X4 B       CCN000000800000000800FN00000000020220901000000800NNM   20220704142120    1W    00000040000001661800000000032H2    HVYHV   000000000000UH128047
BI00B32H2    @TAW2093       20220826181AD2025ZZ              CIVUSAS-S 0.13X4 B       CCN000000800000000800FN00000000020220901000000800NNM   20220704142120    1W    00000040000001661800000000032H2    HVYHV   000000000000UH228051
BI00B32H2    @TAW2094       20220902181AD2025ZZ              CIVUSAS-S 0.13X4 B       CCN000001200000001200FN00000000020220901000001200NNM   20220704142120    1W    00000040000001661800000000032H2    HVYHV   000000000000UH328049
BI00B32M1    TV207A         20220727180D0203990              AVSSH 0.5F L             CCN000010500000010500FN00000000020220701000010500NNE   20220704144919    1W    00000150000000689000000000032M1    VNYEV   000000000000VB227001
BI00B32M1    TV207A         20220727180D0204150              AVSSH 1.25F R            CCN000008000000008000FN00000000020220701000008000NNE   20220704144919    1W    00000080000001458000000000032M1    VNYEV   000000000000VB227002
BI00B32R8    TT22101AMW     20220816180D0203963              AVSSH 0.5F G/B           CCN000001500000001500FN00000000020221001000001500NNM   20220704165506    1W    00000150000000689000000000032R8    TTTJY   000000000000NZ128001
BI00B32R8    TT22101AMW     20220816180D0204134              AVSSH 1.25F B/W          CCN000000800000000800FN00000000020221001000000800NNM   20220704165506    1W    00000080000001458000000000032R8    TTTJY   000000000000NZ128002
BI00B32W2    @HN2208DWMW    20220719181B32116Z5              AVSSCS 0.3FX2 DGY/L      CCN000001050000001050FN00000000020220801000001050NNE   20220704144053    1W    00000035000002276000000000032W2    HNHNY   000000000000HD127001
