AE00TO202209050405/09/202200000003800000000000000039772KGM  00000041629KGM  18000004530              AV 8 B                   AV 8 B                   0         0         0         0    0    0    00000000000038000000000211100008021800
AE00TO202209050405/09/202200000005200000000000000054424KGM  00000056966KGM  18000004535              AV 8 B/R                 AV 8 B/R                 0         0         0         0    0    0    00000000000052000000000211100010977200
AE00TO202209050405/09/202200000000100000000000000001047KGM  00000001096KGM  18000004550              AV 8 R                   AV 8 R                   0         0         0         0    0    0    00000000000001000000000211100000211100
AE00TO202209050405/09/202200000003700000000000000036704KGM  00000038514KGM  18007703730              AVSS 03F B               AVSS 03F B               0         0         0         0    0    0    00000000000740000000000011700008658000
AE00TO202209050405/09/202200000002200000000000000021824KGM  00000022900KGM  18007703750              AVSS 03F R               AVSS 03F R               0         0         0         0    0    0    00000000000440000000000011700005148000
AE00TO202209050405/09/202200000000700000000000000006944KGM  00000007286KGM  18007703752              AVSS 03F P               AVSS 03F P               0         0         0         0    0    0    00000000000140000000000011700001638000
AE00TO202209050405/09/202200000000700000000000000006944KGM  00000007287KGM  18007703760              AVSS 03F G               AVSS 03F G               0         0         0         0    0    0    00000000000140000000000011700001638000
AE00TO202209050405/09/202200000000900000000000000008928KGM  00000009368KGM  18007703770              AVSS 03F Y               AVSS 03F Y               0         0         0         0    0    0    00000000000180000000000011700002106000
AE00TO202209050405/09/202200000000100000000000000000992KGM  00000001041KGM  18007703790              AVSS 03F L               AVSS 03F L               0         0         0         0    0    0    00000000000020000000000011700000234000
AE00TO202209050405/09/202200000001500000000000000014880KGM  00000015613KGM  18007703792              AVSS 03F V               AVSS 03F V               0         0         0         0    0    0    00000000000300000000000011700003510000
AE00TO202209050405/09/202200000000100000000000000000992KGM  00000001041KGM  18007703795              AVSS 03F L/R             AVSS 03F L/R             0         0         0         0    0    0    00000000000020000000000011700000234000
AE00TO202209050405/09/202200000000200000000000000002222KGM  00000002320KGM  18007704180              AVSS 125F BR             AVSS 125F BR             0         0         0         0    0    0    00000000000016000000000034700000555200
AE00TO202209050405/09/202200000000900000000000000010766KGM  00000011206KGM  18009604440              AVS 5 W                  AVS 5 W                  0         0         0         0    0    0    00000000000018000000000137600002476800
AE00TO202209050405/09/202200000003600000000000000043063KGM  00000044823KGM  18009604443              AVS 5 W/B                AVS 5 W/B                0         0         0         0    0    0    00000000000072000000000137600009907200
AE00TO202209050405/09/202200000002700000000000000027419KGM  00000028739KGM  18018403930              CAVS 05 B                CAVS 05 B                0         0         0         0    0    0    00000000000405000000000015000006075000
AE00TO202209050405/09/202200000000200000000000000002032KGM  00000002128KGM  18018403941              CAVS 05 GY               CAVS 05 GY               0         0         0         0    0    0    00000000000030000000000015000000450000
AE00TO202209050405/09/202200000000100000000000000001016KGM  00000001064KGM  18018403961              CAVS 05 LG               CAVS 05 LG               0         0         0         0    0    0    00000000000015000000000015000000225000
AE00TO202209050405/09/202200000001800000000000000018279KGM  00000019159KGM  18018403980              CAVS 05 BR               CAVS 05 BR               0         0         0         0    0    0    00000000000270000000000015000004050000
AE00TO202209050405/09/202200000003800000000000000046664KGM  00000048522KGM  1801R704130              CIVUS 125 B              CIVUS 125 B              0         0         0         0    0    0    00000000000380000000000031500011970000
AE00TO202209050405/09/202200000000100000000000000001228KGM  00000001277KGM  1801R704170              CIVUS 125 Y              CIVUS 125 Y              0         0         0         0    0    0    00000000000010000000000031500000315000
AE00TO202209050405/09/202200000000100000000000000001125KGM  00000001174KGM  1801W003950              IVSSH 05F R              IVSSH 05F R              0         0         0         0    0    0    00000000000018000000000015400000277200
AE00TO202209050405/09/202200000000200000000000000002300KGM  00000002398KGM  1801W004230              IVSSH 2F B               IVSSH 2F B               0         0         0         0    0    0    00000000000011000000000055500000610500
AE00TO202209050405/09/202200000000100000000000000001150KGM  00000001199KGM  1801W004290              IVSSH 2F L               IVSSH 2F L               0         0         0         0    0    0    00000000000005500000000055500000305250
AE00TO202209050405/09/202200000002300000000000000025990KGM  00000027115KGM  1801W006950              IVSSH 035F R             IVSSH 035F R             0         0         0         0    0    0    00000000000575000000000011400006555000
AE00TO202209050405/09/202200000000100000000000000001130KGM  00000001179KGM  1801W006952              IVSSH 035F P             IVSSH 035F P             0         0         0         0    0    0    00000000000025000000000011400000285000
AE00TO202209050405/09/202200000003300000000000000037290KGM  00000038904KGM  1801W006960              IVSSH 035F G             IVSSH 035F G             0         0         0         0    0    0    00000000000825000000000011400009405000
AE00TO202209050405/09/202200000004900000000000000055370KGM  00000057766KGM  1801W006990              IVSSH 035F L             IVSSH 035F L             0         0         0         0    0    0    00000000001225000000000011400013965000
AE00TO202209050405/09/202200000000500000000000000005650KGM  00000005895KGM  1801W006991              IVSSH 035F SB            IVSSH 035F SB            0         0         0         0    0    0    00000000000125000000000011400001425000
AE00TO202209050405/09/202200000003900000000000000044070KGM  00000045976KGM  1801W006992              IVSSH 035F V             IVSSH 035F V             0         0         0         0    0    0    00000000000975000000000011400011115000
AE00TO202209050405/09/202200000002600000000000000026871KGM  00000028142KGM  180D0203930              AVSSH 05F B              AVSSH 05F B              0         0         0         0    0    0    00000000000390000000000016300006357000
AE00TO202209050405/09/202200000000300000000000000003101KGM  00000003247KGM  180D0203937              AVSSH 05F B/Y            AVSSH 05F B/Y            0         0         0         0    0    0    00000000000045000000000016300000733500
AE00TO202209050405/09/202200000000200000000000000002067KGM  00000002165KGM  180D0203940              AVSSH 05F W              AVSSH 05F W              0         0         0         0    0    0    00000000000030000000000016300000489000
AE00TO202209050405/09/202200000001700000000000000017570KGM  00000018400KGM  180D0203980              AVSSH 05F BR             AVSSH 05F BR             0         0         0         0    0    0    00000000000255000000000016300004156500
AE00TO202209050405/09/202200000004000000000000000030846KGM  00000032802KGM  181AD2002ZZ              CIVUSAS-S 035X2 B        CIVUSAS-S 035X2 B        0         0         0         0    0    0    00000000000180000000000043700007866000
AE00TO202209050405/09/202200000002200000000000000016725KGM  00000017800KGM  181AD2003ZZ              CIVUSAS-S 035X3 B        CIVUSAS-S 035X3 B        0         0         0         0    0    0    00000000000077000000000055300004258100
AE00TO202209050405/09/202200000000400000000000000003360KGM  00000003555KGM  181AD2004ZZ              CIVUSAS-S 035X4 B        CIVUSAS-S 035X4 B        0         0         0         0    0    0    00000000000012000000000066700000800400
AE00TO202209050405/09/202200000001800000000000000017395KGM  00000018275KGM  181AD2011ZZ              CIVUSAS-S 075X2 B        CIVUSAS-S 075X2 B        0         0         0         0    0    0    00000000000063000000000070300004428900
AE00TO202209050405/09/202200000001500000000000000012168KGM  00000012901KGM  181AD2020ZZ              CIVUSAS-S 05X2 B(R,G)    CIVUSAS-S 05X2 B(R,G)    0         0         0         0    0    0    00000000000060000000000051400003084000
AE00TO202209050405/09/202200000001400000000000000010798KGM  00000011483KGM  181AD2021ZZ              CIVUSAS-S 035X2 B(L,GY)  CIVUSAS-S 035X2 B(L,GY)  0         0         0         0    0    0    00000000000063000000000043700002753100
AE00TO202209050405/09/202200000000700000000000000005399KGM  00000005741KGM  181AD2022ZZ              CIVUSAS-S 035X2 B(R,G)   CIVUSAS-S 035X2 B(R,G)   0         0         0         0    0    0    00000000000031500000000043700001376550
AE00TO202209050405/09/202200000000100000000000000000747KGM  00000000795KGM  181B0911610              CAVSAS 03X2 GY/R         CAVSAS 03X2 GY/R         0         0         0         0    0    0    00000000000003500000000047400000165900
AE00TO202209050405/09/202200000000100000000000000000789KGM  00000000838KGM  181B0911611              CAVSAS 03X2 GY/L         CAVSAS 03X2 GY/L         0         0         0         0    0    0    00000000000003500000000047400000165900
AE00TO202209050405/09/202200000000200000000000000001578KGM  00000001676KGM  181B0911641              CAVSAS 03X2 GY           CAVSAS 03X2 GY           0         0         0         0    0    0    00000000000007000000000047400000331800
AE00TO202209050405/09/202200000002700000000000000021301KGM  00000022621KGM  181B09116K3              CAVSAS 03X2 GY/P         CAVSAS 03X2 GY/P         0         0         0         0    0    0    00000000000094500000000047400004479300
AE00TO202209050405/09/202200000001300000000000000010602KGM  00000011238KGM  181B0911941              CAVSAS 03X4 GY           CAVSAS 03X4 GY           0         0         0         0    0    0    00000000000032500000000074600002424500
AE00TO202209050405/09/202200000000800000000000000007326KGM  00000007714KGM  181B32039Y6              AVSSCS 05FX1 DGY/G       AVSSCS 05FX1 DGY/G       0         0         0         0    0    0    00000000000032000000000055900001788800
AE00TO202209050405/09/202200000000100000000000000000834KGM  00000000883KGM  181B32102Y8              AVSSCS 05FX2 DGY/R       AVSSCS 05FX2 DGY/R       0         0         0         0    0    0    00000000000003000000000075800000227400
AE00TO202209050405/09/202200000001200000000000000008460KGM  00000009048KGM  181CQ7003ZZ              IVSSHCS-S 05FX2 B(B,W)   IVSSHCS-S 05FX2 B(B,W)   0         0         0         0    0    0    00000000000036000000000072600002613600
AE00TO202209050405/09/202200000000500000000000000003525KGM  00000003770KGM  181CQ7004ZZ              IVSSHCS-S 05FX2 B(R,G)   IVSSHCS-S 05FX2 B(R,G)   0         0         0         0    0    0    00000000000015000000000072600001089000
AE00TO202209050405/09/202200000000100000000000000000838KGM  00000000887KGM  181D69001ZZ              AVSSHCS 05FX2 B/BR       AVSSHCS 05FX2 B/BR       0         0         0         0    0    0    00000000000003000000000079800000239400
AE00TO202209050405/09/202200000000200000000000000001828KGM  00000001926KGM  181D6903930              AVSSHCS 05FX1 B          AVSSHCS 05FX1 B          0         0         0         0    0    0    00000000000008000000000059700000477600
AE00TO202209050405/09/202200000000300000000000000002742KGM  00000002889KGM  181D6903934              AVSSHCS 05FX1 B/W        AVSSHCS 05FX1 B/W        0         0         0         0    0    0    00000000000012000000000059700000716400
AE00TO202209050405/09/202200000001100000000000000007873KGM  00000008407KGM  181D6910239              AVSSHCS 05FX2 B/L        AVSSHCS 05FX2 B/L        0         0         0         0    0    0    00000000000033000000000079800002633400
AE00TO202209050405/09/202200000000100000000000000000716KGM  00000000764KGM  181D69102A8              AVSSHCS 05FX2 B/P        AVSSHCS 05FX2 B/P        0         0         0         0    0    0    00000000000003000000000079800000239400
AE00TO202209050405/09/202200000003900000000000000029826KGM  00000031733KGM  181E48011ZZ              CAVSAS-S 03X1 GY/W       CAVSAS-S 03X1 GY/W       0         0         0         0    0    0    00000000000195000000000035300006883500
AE00TO202209050405/09/202200000000300000000000000002304KGM  00000002451KGM  181E48027ZZ              CAVSAS-S 05X2 GY/P       CAVSAS-S 05X2 GY/P       0         0         0         0    0    0    00000000000009000000000056500000508500
AE00TO202209050405/09/202200000001100000000000000008789KGM  00000009327KGM  181E48029ZZ              CAVSAS-S 05X4 GY         CAVSAS-S 05X4 GY         0         0         0         0    0    0    00000000000022000000000101000002222000
AE00TO202209050405/09/202200000000400000000000000002812KGM  00000003008KGM  181E48032ZZ              CAVSAS-S 03X2 GY/P       CAVSAS-S 03X2 GY/P       0         0         0         0    0    0    00000000000014000000000045900000642600
AE00TO202209050405/09/202200000000100000000000000000768KGM  00000000817KGM  181E48062ZZ              CAVSAS-S 05X2 GY/BR      CAVSAS-S 05X2 GY/BR      0         0         0         0    0    0    00000000000003000000000056500000169500
AE00TO202209050405/09/202200000000400000000000000002944KGM  00000003140KGM  181E50004ZZ              AVSSCS-S 05FX1 DGY       AVSSCS-S 05FX1 DGY       0         0         0         0    0    0    00000000000016000000000050400000806400
AE00TO202209050405/09/202200000000200000000000000001528KGM  00000001626KGM  181E50006ZZ              AVSSCS-S 05FX1 DGY/Y     AVSSCS-S 05FX1 DGY/Y     0         0         0         0    0    0    00000000000008000000000050400000403200
AE00TO202209050405/09/202200000000700000000000000006501KGM  00000006844KGM  181E50011ZZ              AVSSCS-S 05FX2 DGY/Y     AVSSCS-S 05FX2 DGY/Y     0         0         0         0    0    0    00000000000021000000000070600001482600
AE00TO202209050405/09/202200000000100000000000000000929KGM  00000000978KGM  181E50012ZZ              AVSSCS-S 05FX2 DGY/G     AVSSCS-S 05FX2 DGY/G     0         0         0         0    0    0    00000000000003000000000070600000211800
AE00TO202209050405/09/202200000000100000000000000000763KGM  00000000812KGM  181F21004ZZ              AVSSHCS-S 05FX1 B/R      AVSSHCS-S 05FX1 B/R      0         0         0         0    0    0    00000000000004000000000053700000214800
AE00TO202209050405/09/202200000000200000000000000001527KGM  00000001625KGM  181F21006ZZ              AVSSHCS-S 05FX1 B/Y      AVSSHCS-S 05FX1 B/Y      0         0         0         0    0    0    00000000000008000000000053700000429600
AE00TO202209050405/09/202200000000100000000000000000853KGM  00000000902KGM  181F21029ZZ              AVSSHCS-S 125FX2 B/Y     AVSSHCS-S 125FX2 B/Y     0         0         0         0    0    0    00000000000002000000000127800000255600
