AE00TI102209050305/09/202200000000100000000000000000828KGM  00000000986KGM  7124-1026-30             PROTECTOR                7124102630               0         0         0         0    0    0    00000300000000300000000126000003780000
AE00TI102209050305/09/202200000000700000000000000003794KGM  00000005049KGM  7147-3642-30             CLIP                     7147364230               0         0         0         0    0    0    00002100000000300000000074000015540000
AE00TI102209050305/09/202200000000300000000000000002481KGM  00000003306KGM  7154-5712-30             CASSETTE R/B             7154571230               0         0         0         0    0    0    00000240000000080000000288000006912000
AE00TI102209050305/09/202200000000800000000000000006097KGM  00000007842KGM  7171-6292                HOUSING                  71716292                 0         0         0         0    0    0    00000144000000018000001240000017856000
AE00TI102209050305/09/202200000000100000000000000000814KGM  00000000923KGM  7174-1760-50             CAP                      7174176050               0         0         0         0    0    0    00000300000000300000000100000003000000
AE00TI102209050305/09/202200000000300000000000000003846KGM  00000004431KGM  7182-4941                DOUBLE SIDED             71824941                 0         0         0         0    0    0    00000300000000100000000816000024480000
AE00TI102209050305/09/202200000000100000000000000000959KGM  00000001191KGM  7183-0522-30             HOUSING                  7183052230               0         0         0         0    0    0    00000240000000240000000121000002904000
AE00TI102209050305/09/202200000000100000000000000001059KGM  00000001246KGM  7183-2412                HOUSING                  71832412                 0         0         0         0    0    0    00000160000000160000000155000002480000
AE00TI102209050305/09/202200000000100000000000000000478KGM  00000000760KGM  7183-2413                CONNECTOR HOUSING        71832413                 0         0         0         0    0    0    00000480000000480000000074000003552000
AE00TI102209050305/09/202200000000200000000000000000955KGM  00000001519KGM  7183-2413-30             CONNECTOR HOUSING        7183241330               0         0         0         0    0    0    00000960000000480000000076000007296000
AE00TI102209050305/09/202200000000100000000000000000779KGM  00000001061KGM  7183-2414                CONNECTOR HOUSING        71832414                 0         0         0         0    0    0    00000480000000480000000050000002400000
AE00TI102209050305/09/202200000000100000000000000001065KGM  00000001352KGM  7183-2419-30             HOUSING                  7183241930               0         0         0         0    0    0    00000480000000480000000093000004464000
AE00TI102209050305/09/202200000000100000000000000000821KGM  00000001104KGM  7183-6320                HOUSING                  71836320                 0         0         0         0    0    0    00000480000000480000000092000004416000
AE00TI102209050305/09/202200000000100000000000000001030KGM  00000001176KGM  7222-7484-40             CONNECTOR                7222748440               0         0         0         0    0    0    00000100000000100000000758000007580000
AE00TI102209050305/09/202200000000100000000000000000000KGM  00000000000KGM  7254-8186                CONNECTOR BOX UPPER      72548186                 0         0         0         0    0    0    00000002000000002000000000000000000000
AE00TI102209050305/09/202200000000300000000000000004068KGM  00000004560KGM  7282-8120-30             CONNECTOR HOUSING        7282812030               0         0         0         0    0    0    00000900000000300000000000000000000000
AE00TI102209050305/09/202200000000300000000000000004068KGM  00000004560KGM  7282-8120-40             CONNECTOR HOUSING        7282812040               0         0         0         0    0    0    00000900000000300000000215000019350000
AE00TI102209050305/09/202200000000100000000000000000730KGM  00000000903KGM  7283-1015-10             CONNECTOR                7283101510               0         0         0         0    0    0    00000200000000200000000624000012480000
AE00TI102209050305/09/202200000000100000000000000000669KGM  00000000933KGM  7283-1140                CONNECTOR HOUSING        72831140                 0         0         0         0    0    0    00000150000000150000000259000003885000
AE00TI102209050305/09/202200000000500000000000000004388KGM  00000005390KGM  7283-1156                CONNECTOR                72831156                 0         0         0         0    0    0    00000400000000080000000810000032400000
AE00TI102209050305/09/202200000000100000000000000001381KGM  00000001637KGM  7283-1288                CONNECTOR HOUSING        72831288                 0         0         0         0    0    0    00000120000000120000000781000009372000
AE00TI102209050305/09/202200000001300000000000000017953KGM  00000021281KGM  7283-1288-10             CONNECTOR HOUSING        7283128810               0         0         0         0    0    0    00001560000000120000000785000122460000
AE00TI102209050305/09/202200000000600000000000000008292KGM  00000009844KGM  7283-1288-40             CONNECTOR HOUSING        7283128840               0         0         0         0    0    0    00000720000000120000000785000056520000
AE00TI102209050305/09/202200000000000000000000000000000KGM  00000000000KGM  7283-1730                CONNECTOR                72831730                 0         0         0         0    0    0    00000020000000200000000425000000850000
AE00TI102209050305/09/202200000000500000000000000005130KGM  00000006000KGM  7283-7029-40             CONNECTOR                7283702940               0         0         0         0    0    0    00003000000000600000000231000069300000
AE00TI102209050305/09/202200000000100000000000000001200KGM  00000001410KGM  7283-7449-30             HOUSING FEMALE ASS'Y     7283744930               0         0         0         0    0    0    00000240000000240000000386000009264000
AE00TI102209050305/09/202200000000700000000000000006929KGM  00000008740KGM  7283-7526-30             CONNECTOR HOUSING        7283752630               0         0         0         0    0    0    00001372000000196000000506000069423200
AE00TI102209050305/09/202200000000400000000000000003959KGM  00000004994KGM  7283-7526-40             CONNECTOR HOUSING        7283752640               0         0         0         0    0    0    00000784000000196000000504000039513600
AE00TI102209050305/09/202200000000100000000000000000380KGM  00000000532KGM  7283-8123                CONNECTOR HOUSING        72838123                 0         0         0         0    0    0    00000400000000400000000138000005520000
AE00TI102209050305/09/202200000000100000000000000000815KGM  00000001011KGM  7286-1899                HOUSING SUB ASSEMBLY     72861899                 0         0         0         0    0    0    00000033600000033600000853000002866080
AE00TI102209050305/09/202200000000400000000000000003868KGM  00000004671KGM  7286-1917                CONNECTOR MALE ASS'Y     72861917                 0         0         0         0    0    0    00000480000000120000000517000024816000
AE00TI102209050305/09/202200000000700000000000000005976KGM  00000007316KGM  7287-9155                HOUSING FEMALE ASS'Y     72879155                 0         0         0         0    0    0    00000672000000096000000357000023990400
AE00TI102209050305/09/202200000001000000000000000005376KGM  00000006900KGM  7287-9323                UNSEALED HOUSING SUB     72879323                 0         0         0         0    0    0    00002400000000240000000146000035040000
AE00TI102209050305/09/202200000000500000000000000004335KGM  00000005060KGM  7288-3335-30             HOUSING MALE             7288333530               0         0         0         0    0    0    00000750000000150000000354000026550000
AE00TI102209050305/09/202200000000200000000000000001734KGM  00000002024KGM  7288-3339-30             HOUSING MALE             7288333930               0         0         0         0    0    0    00000300000000150000000354000010620000
AE00TI102209050305/09/202200000001700000000000000020490KGM  00000022785KGM  7288-6547                CONNECTOR MALE ASS'Y     72886547                 0         0         0         0    0    0    00001275000000075000001125000143437500
AE00TI102209050305/09/202200000000100000000000000001002KGM  00000001235KGM  7289-0269                HOUSING SUB ASSEMBLY     72890269                 0         0         0         0    0    0    00000160000000160000000227000003632000
AE00TI102209050305/09/202200000000500000000000000003432KGM  00000004507KGM  7289-3342                HOUSING FEMALE ASS'Y     72893342                 0         0         0         0    0    0    00001200000000240000000186000022320000
AE00TI102209050305/09/202200000001000000000000000000000KGM  00000000000KGM  7289-3342-30M            HOUSING FEMALE ASS'Y     7289334230M              0         0         0         0    0    0    00001020000000102000000188000019176000
AE00TI102209050305/09/202200000000200000000000000001658KGM  00000002098KGM  7289-6518-30             HOUSING FEMALE ASS'Y     7289651830               0         0         0         0    0    0    00000240000000120000000598000014352000
AE00TI102209050305/09/202200000002400000000000000020890KGM  00000030240KGM  7370-0309                J/B ASS'Y                73700309                 0         0         0         0    0    0    00000038400000001600028585000109766400
AE00TI102209050305/09/202200000001800000000000000023760KGM  00000028260KGM  7470-4481                J/B COMPLETE ASS'Y       74704481                 0         0         0         0    0    0    00000043200000002400000000000000000000
AE00TI102209050305/09/202200000000600000000000000000000KGM  00000000000KGM  7470-4816D               J/B COMPLETE ASS'Y       74704816D                0         0         0         0    0    0    00000009000000001500000000000000000000
AE00TI102209050305/09/202200000001200000000000000000000KGM  00000000000KGM  7470-4818D               J/B COMPLETE ASS'Y       74704818D                0         0         0         0    0    0    00000018000000001500000000000000000000
