AE00TO202209050105/09/202200000000500000000000000005233KGM  00000005478KGM  18000004530              AV 8 B                   AV 8 B                   0         0         0         0    0    0    00000000000005000000000211100001055500
AE00TO202209050105/09/202200000000200000000000000002093KGM  00000002191KGM  18000004540              AV 8 W                   AV 8 W                   0         0         0         0    0    0    00000000000002000000000211100000422200
AE00TO202209050105/09/202200000025400000000000000265842KGM  00000278259KGM  18000004550              AV 8 R                   AV 8 R                   0         0         0         0    0    0    00000000000254000000000211100053619400
AE00TO202209050105/09/202200000000300000000000000003140KGM  00000003287KGM  18000004554              AV 8 R/W                 AV 8 R/W                 0         0         0         0    0    0    00000000000003000000000211100000633300
AE00TO202209050105/09/202200000004500000000000000044640KGM  00000046840KGM  18007703730              AVSS 03F B               AVSS 03F B               0         0         0         0    0    0    00000000000900000000000011700010530000
AE00TO202209050105/09/202200000000300000000000000002976KGM  00000003123KGM  18007703760              AVSS 03F G               AVSS 03F G               0         0         0         0    0    0    00000000000060000000000011700000702000
AE00TO202209050105/09/202200000000100000000000000000992KGM  00000001041KGM  18007703790              AVSS 03F L               AVSS 03F L               0         0         0         0    0    0    00000000000020000000000011700000234000
AE00TO202209050105/09/202200000003000000000000000033335KGM  00000034803KGM  18007704130              AVSS 125F B              AVSS 125F B              0         0         0         0    0    0    00000000000240000000000034700008328000
AE00TO202209050105/09/202200000000100000000000000001111KGM  00000001160KGM  18007704143              AVSS 125F W/B            AVSS 125F W/B            0         0         0         0    0    0    00000000000008000000000034700000277600
AE00TO202209050105/09/202200000001000000000000000011111KGM  00000011600KGM  18007704150              AVSS 125F R              AVSS 125F R              0         0         0         0    0    0    00000000000080000000000034700002776000
AE00TO202209050105/09/202200000001400000000000000015557KGM  00000016240KGM  18007704152              AVSS 125F P              AVSS 125F P              0         0         0         0    0    0    00000000000112000000000034700003886400
AE00TO202209050105/09/202200000000300000000000000003334KGM  00000003480KGM  18007704156              AVSS 125F R/G            AVSS 125F R/G            0         0         0         0    0    0    00000000000024000000000034700000832800
AE00TO202209050105/09/202200000000200000000000000002222KGM  00000002320KGM  18007704160              AVSS 125F G              AVSS 125F G              0         0         0         0    0    0    00000000000016000000000034700000555200
AE00TO202209050105/09/202200000000300000000000000003333KGM  00000003480KGM  18007704170              AVSS 125F Y              AVSS 125F Y              0         0         0         0    0    0    00000000000024000000000034700000832800
AE00TO202209050105/09/202200000000200000000000000002222KGM  00000002320KGM  18007704173              AVSS 125F Y/B            AVSS 125F Y/B            0         0         0         0    0    0    00000000000016000000000034700000555200
AE00TO202209050105/09/202200000001800000000000000020001KGM  00000020881KGM  18007704180              AVSS 125F BR             AVSS 125F BR             0         0         0         0    0    0    00000000000144000000000034700004996800
AE00TO202209050105/09/202200000000100000000000000001111KGM  00000001160KGM  18007704184              AVSS 125F BR/W           AVSS 125F BR/W           0         0         0         0    0    0    00000000000008000000000034700000277600
AE00TO202209050105/09/202200000000800000000000000008889KGM  00000009280KGM  18007704190              AVSS 125F L              AVSS 125F L              0         0         0         0    0    0    00000000000064000000000034700002220800
AE00TO202209050105/09/202200000000200000000000000002222KGM  00000002320KGM  18007704192              AVSS 125F V              AVSS 125F V              0         0         0         0    0    0    00000000000016000000000034700000555200
AE00TO202209050105/09/202200000000200000000000000002392KGM  00000002490KGM  18009604440              AVS 5 W                  AVS 5 W                  0         0         0         0    0    0    00000000000004000000000137600000550400
AE00TO202209050105/09/202200000000100000000000000001196KGM  00000001245KGM  18009604443              AVS 5 W/B                AVS 5 W/B                0         0         0         0    0    0    00000000000002000000000137600000275200
AE00TO202209050105/09/202200000000100000000000000001016KGM  00000001064KGM  18018403950              CAVS 05 R                CAVS 05 R                0         0         0         0    0    0    00000000000015000000000015000000225000
AE00TO202209050105/09/202200000000100000000000000000965KGM  00000001014KGM  18018404041              CAVS 085 GY              CAVS 085 GY              0         0         0         0    0    0    00000000000010000000000022700000227000
AE00TO202209050105/09/202200000000300000000000000003684KGM  00000003831KGM  1801R704150              CIVUS 125 R              CIVUS 125 R              0         0         0         0    0    0    00000000000030000000000031500000945000
AE00TO202209050105/09/202200000000100000000000000001228KGM  00000001277KGM  1801R704152              CIVUS 125 P              CIVUS 125 P              0         0         0         0    0    0    00000000000010000000000031500000315000
AE00TO202209050105/09/202200000000700000000000000008596KGM  00000008938KGM  1801R704170              CIVUS 125 Y              CIVUS 125 Y              0         0         0         0    0    0    00000000000070000000000031500002205000
AE00TO202209050105/09/202200000000100000000000000001228KGM  00000001277KGM  1801R704192              CIVUS 125 V              CIVUS 125 V              0         0         0         0    0    0    00000000000010000000000031500000315000
AE00TO202209050105/09/202200000000200000000000000002250KGM  00000002348KGM  1801W003943              IVSSH 05F W/B            IVSSH 05F W/B            0         0         0         0    0    0    00000000000036000000000015400000554400
AE00TO202209050105/09/202200000000700000000000000007875KGM  00000008217KGM  1801W003950              IVSSH 05F R              IVSSH 05F R              0         0         0         0    0    0    00000000000126000000000015400001940400
AE00TO202209050105/09/202200000000200000000000000002250KGM  00000002348KGM  1801W003952              IVSSH 05F P              IVSSH 05F P              0         0         0         0    0    0    00000000000036000000000015400000554400
AE00TO202209050105/09/202200000000800000000000000009000KGM  00000009392KGM  1801W003990              IVSSH 05F L              IVSSH 05F L              0         0         0         0    0    0    00000000000144000000000015400002217600
AE00TO202209050105/09/202200000000100000000000000001147KGM  00000001195KGM  1801W004030              IVSSH 075F B             IVSSH 075F B             0         0         0         0    0    0    00000000000013000000000021500000279500
AE00TO202209050105/09/202200000000700000000000000007910KGM  00000008252KGM  1801W006930              IVSSH 035F B             IVSSH 035F B             0         0         0         0    0    0    00000000000175000000000011400001995000
AE00TO202209050105/09/202200000000100000000000000001130KGM  00000001179KGM  1801W006940              IVSSH 035F W             IVSSH 035F W             0         0         0         0    0    0    00000000000025000000000011400000285000
AE00TO202209050105/09/202200000005200000000000000058760KGM  00000061302KGM  1801W006950              IVSSH 035F R             IVSSH 035F R             0         0         0         0    0    0    00000000001300000000000011400014820000
AE00TO202209050105/09/202200000000700000000000000007910KGM  00000008253KGM  1801W006952              IVSSH 035F P             IVSSH 035F P             0         0         0         0    0    0    00000000000175000000000011400001995000
AE00TO202209050105/09/202200000000700000000000000007910KGM  00000008252KGM  1801W006970              IVSSH 035F Y             IVSSH 035F Y             0         0         0         0    0    0    00000000000175000000000011400001995000
AE00TO202209050105/09/202200000000200000000000000002260KGM  00000002358KGM  1801W006980              IVSSH 035F BR            IVSSH 035F BR            0         0         0         0    0    0    00000000000050000000000011400000570000
AE00TO202209050105/09/202200000014200000000000000160460KGM  00000167402KGM  1801W006990              IVSSH 035F L             IVSSH 035F L             0         0         0         0    0    0    00000000003550000000000011400040470000
AE00TO202209050105/09/202200000000900000000000000010170KGM  00000010610KGM  1801W006992              IVSSH 035F V             IVSSH 035F V             0         0         0         0    0    0    00000000000225000000000011400002565000
AE00TO202209050105/09/202200000004100000000000000042374KGM  00000044378KGM  180D0203940              AVSSH 05F W              AVSSH 05F W              0         0         0         0    0    0    00000000000615000000000016300010024500
AE00TO202209050105/09/202200000000900000000000000009302KGM  00000009742KGM  180D0203941              AVSSH 05F GY             AVSSH 05F GY             0         0         0         0    0    0    00000000000135000000000016300002200500
AE00TO202209050105/09/202200000003700000000000000038240KGM  00000040048KGM  180D0203943              AVSSH 05F W/B            AVSSH 05F W/B            0         0         0         0    0    0    00000000000555000000000016300009046500
AE00TO202209050105/09/202200000000100000000000000001034KGM  00000001082KGM  180D0203945              AVSSH 05F W/R            AVSSH 05F W/R            0         0         0         0    0    0    00000000000015000000000016300000244500
AE00TO202209050105/09/202200000000100000000000000001034KGM  00000001082KGM  180D0203949              AVSSH 05F W/L            AVSSH 05F W/L            0         0         0         0    0    0    00000000000015000000000016300000244500
AE00TO202209050105/09/202200000002100000000000000021704KGM  00000022730KGM  180D0203950              AVSSH 05F R              AVSSH 05F R              0         0         0         0    0    0    00000000000315000000000016300005134500
AE00TO202209050105/09/202200000001500000000000000015503KGM  00000016236KGM  180D0203952              AVSSH 05F P              AVSSH 05F P              0         0         0         0    0    0    00000000000225000000000016300003667500
AE00TO202209050105/09/202200000001100000000000000011369KGM  00000011906KGM  180D0203961              AVSSH 05F LG             AVSSH 05F LG             0         0         0         0    0    0    00000000000165000000000016300002689500
AE00TO202209050105/09/202200000001200000000000000012402KGM  00000012988KGM  180D0203970              AVSSH 05F Y              AVSSH 05F Y              0         0         0         0    0    0    00000000000180000000000016300002934000
AE00TO202209050105/09/202200000000100000000000000001034KGM  00000001082KGM  180D0203973              AVSSH 05F Y/B            AVSSH 05F Y/B            0         0         0         0    0    0    00000000000015000000000016300000244500
AE00TO202209050105/09/202200000000100000000000000001034KGM  00000001082KGM  180D0203975              AVSSH 05F Y/R            AVSSH 05F Y/R            0         0         0         0    0    0    00000000000015000000000016300000244500
AE00TO202209050105/09/202200000000200000000000000002067KGM  00000002165KGM  180D0203976              AVSSH 05F Y/G            AVSSH 05F Y/G            0         0         0         0    0    0    00000000000030000000000016300000489000
AE00TO202209050105/09/202200000001300000000000000013436KGM  00000014071KGM  180D0203980              AVSSH 05F BR             AVSSH 05F BR             0         0         0         0    0    0    00000000000195000000000016300003178500
AE00TO202209050105/09/202200000001600000000000000016536KGM  00000017318KGM  180D0203992              AVSSH 05F V              AVSSH 05F V              0         0         0         0    0    0    00000000000240000000000016300003912000
AE00TO202209050105/09/202200000000100000000000000001166KGM  00000001215KGM  180D0204150              AVSSH 125F R             AVSSH 125F R             0         0         0         0    0    0    00000000000008000000000035700000285600
AE00TO202209050105/09/202200000000100000000000000001166KGM  00000001215KGM  180D0204170              AVSSH 125F Y             AVSSH 125F Y             0         0         0         0    0    0    00000000000008000000000035700000285600
AE00TO202209050105/09/202200000000200000000000000002333KGM  00000002431KGM  180D0204190              AVSSH 125F L             AVSSH 125F L             0         0         0         0    0    0    00000000000016000000000035700000571200
AE00TO202209050105/09/202200000001200000000000000009254KGM  00000009840KGM  181AD2002ZZ              CIVUSAS-S 035X2 B        CIVUSAS-S 035X2 B        0         0         0         0    0    0    00000000000054000000000043700002359800
AE00TO202209050105/09/202200000006500000000000000049417KGM  00000052593KGM  181AD2003ZZ              CIVUSAS-S 035X3 B        CIVUSAS-S 035X3 B        0         0         0         0    0    0    00000000000227500000000055300012580750
AE00TO202209050105/09/202200000013200000000000000110876KGM  00000117330KGM  181AD2004ZZ              CIVUSAS-S 035X4 B        CIVUSAS-S 035X4 B        0         0         0         0    0    0    00000000000396000000000066700026413200
AE00TO202209050105/09/202200000000300000000000000002614KGM  00000002761KGM  181D69004ZZ              AVSSHCS 125FX2 B         AVSSHCS 125FX2 B         0         0         0         0    0    0    00000000000006000000000130000000780000
AE00TO202209050105/09/202200000000400000000000000002812KGM  00000003008KGM  181E48031ZZ              CAVSAS-S 03X2 GY         CAVSAS-S 03X2 GY         0         0         0         0    0    0    00000000000014000000000045900000642600
AE00TO202209050105/09/202200000000800000000000000005624KGM  00000006016KGM  181E48040ZZ              CAVSAS-S 03X2 GY/V       CAVSAS-S 03X2 GY/V       0         0         0         0    0    0    00000000000028000000000045900001285200
AE00TO202209050105/09/202200000000300000000000000002273KGM  00000002420KGM  181E50002ZZ              AVSSCS-S 03FX2 DGY/G     AVSSCS-S 03FX2 DGY/G     0         0         0         0    0    0    00000000000010500000000059400000623700
AE00TO202209050105/09/202200000000100000000000000000758KGM  00000000807KGM  181E50003ZZ              AVSSCS-S 03FX2 DGY/BR    AVSSCS-S 03FX2 DGY/BR    0         0         0         0    0    0    00000000000003500000000059400000207900
AE00TO202209050105/09/202200000002500000000000000019097KGM  00000020319KGM  181E50004ZZ              AVSSCS-S 05FX1 DGY       AVSSCS-S 05FX1 DGY       0         0         0         0    0    0    00000000000100000000000050400005040000
AE00TO202209050105/09/202200000002500000000000000019097KGM  00000020319KGM  181E50005ZZ              AVSSCS-S 05FX1 DGY/W     AVSSCS-S 05FX1 DGY/W     0         0         0         0    0    0    00000000000100000000000050400005040000
AE00TO202209050105/09/202200000000700000000000000005347KGM  00000005689KGM  181E50007ZZ              AVSSCS-S 05FX1 DGY/L     AVSSCS-S 05FX1 DGY/L     0         0         0         0    0    0    00000000000028000000000050400001411200
AE00TO202209050105/09/202200000000500000000000000004644KGM  00000004889KGM  181E50011ZZ              AVSSCS-S 05FX2 DGY/Y     AVSSCS-S 05FX2 DGY/Y     0         0         0         0    0    0    00000000000015000000000070600001059000
AE00TO202209050105/09/202200000000300000000000000002273KGM  00000002420KGM  181E50020ZZ              AVSSCS-S 03FX2 DGY/R     AVSSCS-S 03FX2 DGY/R     0         0         0         0    0    0    00000000000010500000000059400000623700
AE00TO202209050105/09/202200000000200000000000000001516KGM  00000001613KGM  181E50021ZZ              AVSSCS-S 03FX2 DGY/P     AVSSCS-S 03FX2 DGY/P     0         0         0         0    0    0    00000000000007000000000059400000415800
AE00TO202209050105/09/202200000001600000000000000012125KGM  00000012906KGM  181E50036ZZ              AVSSCS-S 03FX2 DGY       AVSSCS-S 03FX2 DGY       0         0         0         0    0    0    00000000000056000000000059400003326400
AE00TO202209050105/09/202200000000200000000000000001707KGM  00000001805KGM  181F21027ZZ              AVSSHCS-S 125FX2 B       AVSSHCS-S 125FX2 B       0         0         0         0    0    0    00000000000004000000000127800000511200
AE00TO202209050105/09/202200000000100000000000000000853KGM  00000000902KGM  181F21029ZZ              AVSSHCS-S 125FX2 B/Y     AVSSHCS-S 125FX2 B/Y     0         0         0         0    0    0    00000000000002000000000127800000255600
