BI00B32A7    ZZ22111LMW     2022100518000004530              AV 8 B                   CCN000002400000002400FN00000000020221101000002400NNM   20220905115356    1W    00000010000010466200000000032A7    ZZZZY   000000000000ZZ329012
BI00B32A7    ZZ22112LMW     2022101218000004530              AV 8 B                   CCN000006800000006800FN00000000020221101000006800NNM   20220905115356    1W    00000010000010466200000000032A7    ZZZZY   000000000000ZZ429015
BI00B32A7    ZZ22113LMW     2022101918000004530              AV 8 B                   CCN000006700000006700FN00000000020221101000006700NNM   20220905115356    1W    00000010000010466200000000032A7    ZZZZY   000000000000ZZ12A015
BI00B32A7    ZZ22114LMW     2022102618000004530              AV 8 B                   CCN000004900000004900FN00000000020221101000004900NNM   20220905115356    1W    00000010000010466200000000032A7    ZZZZY   000000000000ZZ22A015
BI00B32A7    ZZ22111LMW     2022100518000004580              AV 8 BR                  CCN000001500000001500FN00000000020221101000001500NNM   20220905115356    1W    00000010000010466200000000032A7    ZZZZY   000000000000ZZ329013
BI00B32A7    ZZ22112LMW     2022101218000004580              AV 8 BR                  CCN000000800000000800FN00000000020221101000000800NNM   20220905115356    1W    00000010000010466200000000032A7    ZZZZY   000000000000ZZ429016
BI00B32A7    ZZ22113LMW     2022101918000004580              AV 8 BR                  CCN000000800000000800FN00000000020221101000000800NNM   20220905115356    1W    00000010000010466200000000032A7    ZZZZY   000000000000ZZ12A016
BI00B32A7    ZZ22114LMW     2022102618000004580              AV 8 BR                  CCN000000700000000700FN00000000020221101000000700NNM   20220905115356    1W    00000010000010466200000000032A7    ZZZZY   000000000000ZZ22A016
BI00B32A7    ZZ22111LMW     2022100518000004560              AV 8 G                   CCN000005200000005200FN00000000020221101000005200NNM   20220905115356    1W    00000010000010466200000000032A7    ZZZZY   000000000000ZZ329014
BI00B32A7    ZZ22112LMW     2022101218000004560              AV 8 G                   CCN000006500000006500FN00000000020221101000006500NNM   20220905115356    1W    00000010000010466200000000032A7    ZZZZY   000000000000ZZ429017
BI00B32A7    ZZ22113LMW     2022101918000004560              AV 8 G                   CCN000006600000006600FN00000000020221101000006600NNM   20220905115356    1W    00000010000010466200000000032A7    ZZZZY   000000000000ZZ12A017
BI00B32A7    ZZ22114LMW     2022102618000004560              AV 8 G                   CCN000003800000003800FN00000000020221101000003800NNM   20220905115356    1W    00000010000010466200000000032A7    ZZZZY   000000000000ZZ22A017
BI00B32A7    ZZ22111LMW     2022100518000004550              AV 8 R                   CCN000021000000021000FN00000000020221101000021000NNM   20220905115356    1W    00000010000010466200000000032A7    ZZZZY   000000000000ZZ329015
BI00B32A7    ZZ22112LMW     2022101218000004550              AV 8 R                   CCN000016300000016300FN00000000020221101000016300NNM   20220905115356    1W    00000010000010466200000000032A7    ZZZZY   000000000000ZZ429018
BI00B32A7    ZZ22113LMW     2022101918000004550              AV 8 R                   CCN000016300000016300FN00000000020221101000016300NNM   20220905115356    1W    00000010000010466200000000032A7    ZZZZY   000000000000ZZ12A018
BI00B32A7    ZZ22114LMW     2022102618000004550              AV 8 R                   CCN000009800000009800FN00000000020221101000009800NNM   20220905115356    1W    00000010000010466200000000032A7    ZZZZY   000000000000ZZ22A018
BI00B32A7    ZZ22111LMW     2022100518000004540              AV 8 W                   CCN000011400000011400FN00000000020221101000011400NNM   20220905115356    1W    00000010000010466200000000032A7    ZZZZY   000000000000ZZ329016
BI00B32A7    ZZ22112LMW     2022101218000004540              AV 8 W                   CCN000009500000009500FN00000000020221101000009500NNM   20220905115356    1W    00000010000010466200000000032A7    ZZZZY   000000000000ZZ429019
BI00B32A7    ZZ22113LMW     2022101918000004540              AV 8 W                   CCN000009500000009500FN00000000020221101000009500NNM   20220905115356    1W    00000010000010466200000000032A7    ZZZZY   000000000000ZZ12A019
BI00B32A7    ZZ22114LMW     2022102618000004540              AV 8 W                   CCN000005300000005300FN00000000020221101000005300NNM   20220905115356    1W    00000010000010466200000000032A7    ZZZZY   000000000000ZZ22A019
BI00B32A7    ZZ22111LMW     2022100518000004570              AV 8 Y                   CCN000001100000001100FN00000000020221101000001100NNM   20220905115356    1W    00000010000010466200000000032A7    ZZZZY   000000000000ZZ329017
BI00B32A7    ZZ22112LMW     2022101218000004570              AV 8 Y                   CCN000002400000002400FN00000000020221101000002400NNM   20220905115356    1W    00000010000010466200000000032A7    ZZZZY   000000000000ZZ429020
BI00B32A7    ZZ22113LMW     2022101918000004570              AV 8 Y                   CCN000002300000002300FN00000000020221101000002300NNM   20220905115356    1W    00000010000010466200000000032A7    ZZZZY   000000000000ZZ12A020
BI00B32A7    ZZ22114LMW     2022102618000004570              AV 8 Y                   CCN000001300000001300FN00000000020221101000001300NNM   20220905115356    1W    00000010000010466200000000032A7    ZZZZY   000000000000ZZ22A020
BI00B32A7    @ZZ22111LMW    20221005181E48017ZZ              CAVSAS-S 0.5X1 GY/G      CCN000004800000004800FN00000000020221101000004800NNM   20220905115355    1W    00000040000001900600000000032A7    ZZZZY   000000000000ZZ329009
BI00B32A7    @ZZ22112LMW    20221012181E48017ZZ              CAVSAS-S 0.5X1 GY/G      CCN000005200000005200FN00000000020221101000005200NNM   20220905115355    1W    00000040000001900600000000032A7    ZZZZY   000000000000ZZ429012
BI00B32A7    @ZZ22113LMW    20221019181E48017ZZ              CAVSAS-S 0.5X1 GY/G      CCN000005600000005600FN00000000020221101000005600NNM   20220905115355    1W    00000040000001900600000000032A7    ZZZZY   000000000000ZZ12A012
BI00B32A7    @ZZ22114LMW    20221026181E48017ZZ              CAVSAS-S 0.5X1 GY/G      CCN000004800000004800FN00000000020221101000004800NNM   20220905115355    1W    00000040000001900600000000032A7    ZZZZY   000000000000ZZ22A012
BI00B32A7    @ZZ22111LMW    20221005181E48019ZZ              CAVSAS-S 0.5X1 GY/W      CCN000008800000008800FN00000000020221101000008800NNM   20220905115355    1W    00000040000001900600000000032A7    ZZZZY   000000000000ZZ329010
BI00B32A7    @ZZ22112LMW    20221012181E48019ZZ              CAVSAS-S 0.5X1 GY/W      CCN000004800000004800FN00000000020221101000004800NNM   20220905115355    1W    00000040000001900600000000032A7    ZZZZY   000000000000ZZ429013
BI00B32A7    @ZZ22113LMW    20221019181E48019ZZ              CAVSAS-S 0.5X1 GY/W      CCN000005600000005600FN00000000020221101000005600NNM   20220905115355    1W    00000040000001900600000000032A7    ZZZZY   000000000000ZZ12A013
BI00B32A7    @ZZ22114LMW    20221026181E48019ZZ              CAVSAS-S 0.5X1 GY/W      CCN000004400000004400FN00000000020221101000004400NNM   20220905115355    1W    00000040000001900600000000032A7    ZZZZY   000000000000ZZ22A013
BI00B32A7    @ZZ22111LMW    20221005181E48040ZZ              CAVSAS-S 0.3X2 GY/V      CCN000009800000009800FN00000000020221101000009800NNM   20220905115355    1W    00000035000002008700000000032A7    ZZZZY   000000000000ZZ329011
BI00B32A7    @ZZ22112LMW    20221012181E48040ZZ              CAVSAS-S 0.3X2 GY/V      CCN000007350000007350FN00000000020221101000007350NNM   20220905115355    1W    00000035000002008700000000032A7    ZZZZY   000000000000ZZ429014
BI00B32A7    @ZZ22113LMW    20221019181E48040ZZ              CAVSAS-S 0.3X2 GY/V      CCN000007350000007350FN00000000020221101000007350NNM   20220905115355    1W    00000035000002008700000000032A7    ZZZZY   000000000000ZZ12A014
BI00B32A7    @ZZ22114LMW    20221026181E48040ZZ              CAVSAS-S 0.3X2 GY/V      CCN000002100000002100FN00000000020221101000002100NNM   20220905115355    1W    00000035000002008700000000032A7    ZZZZY   000000000000ZZ22A014
BI00B32DE    TT210E         2022092918007704152              AVSS 1.25F P             CCN000000800000000800FN00000000020221001000000800NNE   20220905114200    1W    00000080000001389000000000032DE    TVYEV-TV000000000000VS229009
BI00B32DE    @TT210E        20220929181E50000ZZ              AVSSCS-S 0.5FX1 DGY/BR   CCN000002400000002400FN00000000020221001000002400NNE   20220905114159    1W    00000040000001909700000000032DE    TVYEV-TV000000000000VS229001
BI00B32DE    @TT210E        20220929181E50005ZZ              AVSSCS-S 0.5FX1 DGY/W    CCN000001600000001600FN00000000020221001000001600NNE   20220905114159    1W    00000040000001909700000000032DE    TVYEV-TV000000000000VS229003
BI00B32DE    @TT210E        20220929181E50006ZZ              AVSSCS-S 0.5FX1 DGY/Y    CCN000002000000002000FN00000000020221001000002000NNE   20220905114159    1W    00000040000001909700000000032DE    TVYEV-TV000000000000VS229004
BI00B32DE    @TT210E        20220929181E50007ZZ              AVSSCS-S 0.5FX1 DGY/L    CCN000002800000002800FN00000000020221001000002800NNE   20220905114159    1W    00000040000001909700000000032DE    TVYEV-TV000000000000VS229002
BI00B32DE    @TT210E        20220929181E50027ZZ              AVSSCS-S 0.5FX3 DGY/G    CCN000001750000001750FN00000000020221001000001750NNE   20220905114159    1W    00000025000003265000000000032DE    TVYEV-TV000000000000VS229005
BI00B32DE    @TT210E        20220929181F21009ZZ              AVSSHCS-S 0.5FX2 B       CCN000000900000000900FN00000000020221001000000900NNE   20220905114159    1W    00000030000002531400000000032DE    TVYEV-TV000000000000VS229006
BI00B32DE    @TT210E        20220929181F21027ZZ              AVSSHCS-S 1.25FX2 B      CCN000000400000000400FN00000000020221001000000400NNE   20220905114159    1W    00000020000004267300000000032DE    TVYEV-TV000000000000VS229007
BI00B32DE    @TT210E        20220929181F21031ZZ              AVSSHCS-S 1.25FX2 B/P    CCN000000400000000400FN00000000020221001000000400NNE   20220905114159    1W    00000020000004267300000000032DE    TVYEV-TV000000000000VS229008
BI00B32DE    TT2112         2022101218000004535              AV 8 B/R                 CCN000001800000001800FN00000000020221101000001800NNM   20220905114427    1W    00000010000010466200000000032DE    TVYEV-TV000000000000VT429071
BI00B32DE    TT2113         2022102018000004535              AV 8 B/R                 CCN000001800000001800FN00000000020221101000001800NNM   20220905114427    1W    00000010000010466200000000032DE    TVYEV-TV000000000000VT12A085
BI00B32DE    TT2112         2022101218000004534              AV 8 B/W                 CCN000001800000001800FN00000000020221101000001800NNM   20220905114427    1W    00000010000010466200000000032DE    TVYEV-TV000000000000VT429072
BI00B32DE    TT2112         2022101218007703760              AVSS 0.3F G              CCN000004000000004000FN00000000020221101000004000NNM   20220905114427    1W    00000200000000496000000000032DE    TVYEV-TV000000000000VT429073
BI00B32DE    TT2113         2022102018007703760              AVSS 0.3F G              CCN000002000000002000FN00000000020221101000002000NNM   20220905114427    1W    00000200000000496000000000032DE    TVYEV-TV000000000000VT12A086
BI00B32DE    TT2114         2022102718007703760              AVSS 0.3F G              CCN000002000000002000FN00000000020221101000002000NNM   20220905114427    1W    00000200000000496000000000032DE    TVYEV-TV000000000000VT22A082
BI00B32DE    TT2111         2022100618007703741              AVSS 0.3F GY             CCN000002000000002000FN00000000020221101000002000NNM   20220905114427    1W    00000200000000496000000000032DE    TVYEV-TV000000000000VT329044
BI00B32DE    TT2112         2022101218007703741              AVSS 0.3F GY             CCN000004000000004000FN00000000020221101000004000NNM   20220905114427    1W    00000200000000496000000000032DE    TVYEV-TV000000000000VT429074
BI00B32DE    TT2113         2022102018007703741              AVSS 0.3F GY             CCN000002000000002000FN00000000020221101000002000NNM   20220905114427    1W    00000200000000496000000000032DE    TVYEV-TV000000000000VT12A087
BI00B32DE    TT2114         2022102718007703741              AVSS 0.3F GY             CCN000002000000002000FN00000000020221101000002000NNM   20220905114427    1W    00000200000000496000000000032DE    TVYEV-TV000000000000VT22A083
BI00B32DE    TT2111         2022100618007703750              AVSS 0.3F R              CCN000004000000004000FN00000000020221101000004000NNM   20220905114427    1W    00000200000000496000000000032DE    TVYEV-TV000000000000VT329045
BI00B32DE    TT2112         2022101218007703750              AVSS 0.3F R              CCN000006000000006000FN00000000020221101000006000NNM   20220905114427    1W    00000200000000496000000000032DE    TVYEV-TV000000000000VT429075
BI00B32DE    TT2113         2022102018007703750              AVSS 0.3F R              CCN000004000000004000FN00000000020221101000004000NNM   20220905114427    1W    00000200000000496000000000032DE    TVYEV-TV000000000000VT12A088
BI00B32DE    TT2114         2022102718007703750              AVSS 0.3F R              CCN000004000000004000FN00000000020221101000004000NNM   20220905114427    1W    00000200000000496000000000032DE    TVYEV-TV000000000000VT22A084
BI00B32DE    TT2114         2022102718007703960              AVSS 0.5F G              CCN000003000000003000FN00000000020221101000003000NNM   20220905114427    1W    00000150000000674000000000032DE    TVYEV-TV000000000000VT22A085
BI00B32DE    TT2112         2022101218007703952              AVSS 0.5F P              CCN000001500000001500FN00000000020221101000001500NNM   20220905114427    1W    00000150000000674000000000032DE    TVYEV-TV000000000000VT429076
BI00B32DE    TT2114         2022102718007703952              AVSS 0.5F P              CCN000001500000001500FN00000000020221101000001500NNM   20220905114427    1W    00000150000000674000000000032DE    TVYEV-TV000000000000VT22A086
BI00B32DE    TT2112         2022101218007703950              AVSS 0.5F R              CCN000001500000001500FN00000000020221101000001500NNM   20220905114427    1W    00000150000000674000000000032DE    TVYEV-TV000000000000VT429077
BI00B32DE    TT2113         2022102018007703950              AVSS 0.5F R              CCN000001500000001500FN00000000020221101000001500NNM   20220905114427    1W    00000150000000674000000000032DE    TVYEV-TV000000000000VT12A089
BI00B32DE    TT2112         2022101218007703992              AVSS 0.5F V              CCN000001500000001500FN00000000020221101000001500NNM   20220905114427    1W    00000150000000674000000000032DE    TVYEV-TV000000000000VT429078
BI00B32DE    TT2114         2022102718007703992              AVSS 0.5F V              CCN000001500000001500FN00000000020221101000001500NNM   20220905114427    1W    00000150000000674000000000032DE    TVYEV-TV000000000000VT22A087
BI00B32DE    TT2114         2022102718007703940              AVSS 0.5F W              CCN000003000000003000FN00000000020221101000003000NNM   20220905114427    1W    00000150000000674000000000032DE    TVYEV-TV000000000000VT22A088
BI00B32DE    TT2112         2022101218007703945              AVSS 0.5F W/R            CCN000001500000001500FN00000000020221101000001500NNM   20220905114427    1W    00000150000000674000000000032DE    TVYEV-TV000000000000VT429079
BI00B32DE    TT2113         2022102018007703945              AVSS 0.5F W/R            CCN000001500000001500FN00000000020221101000001500NNM   20220905114427    1W    00000150000000674000000000032DE    TVYEV-TV000000000000VT12A090
BI00B32DE    TT2114         2022102718007703945              AVSS 0.5F W/R            CCN000001500000001500FN00000000020221101000001500NNM   20220905114427    1W    00000150000000674000000000032DE    TVYEV-TV000000000000VT22A089
BI00B32DE    TT2113         2022102018007703973              AVSS 0.5F Y/B            CCN000001500000001500FN00000000020221101000001500NNM   20220905114427    1W    00000150000000674000000000032DE    TVYEV-TV000000000000VT12A091
BI00B32DE    TT2114         2022102718007703973              AVSS 0.5F Y/B            CCN000001500000001500FN00000000020221101000001500NNM   20220905114427    1W    00000150000000674000000000032DE    TVYEV-TV000000000000VT22A090
BI00B32DE    TT2113         2022102018007704130              AVSS 1.25F B             CCN000000800000000800FN00000000020221101000000800NNM   20220905114427    1W    00000080000001389000000000032DE    TVYEV-TV000000000000VT12A092
BI00B32DE    TT2114         2022102718007704130              AVSS 1.25F B             CCN000000800000000800FN00000000020221101000000800NNM   20220905114427    1W    00000080000001389000000000032DE    TVYEV-TV000000000000VT22A091
BI00B32DE    TT2111         2022100618007704180              AVSS 1.25F BR            CCN000003200000003200FN00000000020221101000003200NNM   20220905114427    1W    00000080000001389000000000032DE    TVYEV-TV000000000000VT329046
BI00B32DE    TT2112         2022101218007704180              AVSS 1.25F BR            CCN000004000000004000FN00000000020221101000004000NNM   20220905114427    1W    00000080000001389000000000032DE    TVYEV-TV000000000000VT429080
BI00B32DE    TT2113         2022102018007704180              AVSS 1.25F BR            CCN000004800000004800FN00000000020221101000004800NNM   20220905114427    1W    00000080000001389000000000032DE    TVYEV-TV000000000000VT12A093
BI00B32DE    TT2114         2022102718007704180              AVSS 1.25F BR            CCN000002400000002400FN00000000020221101000002400NNM   20220905114427    1W    00000080000001389000000000032DE    TVYEV-TV000000000000VT22A092
BI00B32DE    TT2112         2022101218007704160              AVSS 1.25F G             CCN000001600000001600FN00000000020221101000001600NNM   20220905114427    1W    00000080000001389000000000032DE    TVYEV-TV000000000000VT429081
BI00B32DE    TT2113         2022102018007704160              AVSS 1.25F G             CCN000003200000003200FN00000000020221101000003200NNM   20220905114427    1W    00000080000001389000000000032DE    TVYEV-TV000000000000VT12A094
BI00B32DE    TT2114         2022102718007704160              AVSS 1.25F G             CCN000001600000001600FN00000000020221101000001600NNM   20220905114427    1W    00000080000001389000000000032DE    TVYEV-TV000000000000VT22A093
BI00B32DE    TT2111         2022100618007704190              AVSS 1.25F L             CCN000001600000001600FN00000000020221101000001600NNM   20220905114427    1W    00000080000001389000000000032DE    TVYEV-TV000000000000VT329047
BI00B32DE    TT2112         2022101218007704190              AVSS 1.25F L             CCN000002400000002400FN00000000020221101000002400NNM   20220905114427    1W    00000080000001389000000000032DE    TVYEV-TV000000000000VT429082
BI00B32DE    TT2113         2022102018007704190              AVSS 1.25F L             CCN000001600000001600FN00000000020221101000001600NNM   20220905114427    1W    00000080000001389000000000032DE    TVYEV-TV000000000000VT12A095
BI00B32DE    TT2114         2022102718007704190              AVSS 1.25F L             CCN000002400000002400FN00000000020221101000002400NNM   20220905114427    1W    00000080000001389000000000032DE    TVYEV-TV000000000000VT22A094
BI00B32DE    TT2111         2022100618007704152              AVSS 1.25F P             CCN000004800000004800FN00000000020221101000004800NNM   20220905114427    1W    00000080000001389000000000032DE    TVYEV-TV000000000000VT329048
BI00B32DE    TT2112         2022101218007704152              AVSS 1.25F P             CCN000004000000004000FN00000000020221101000004000NNM   20220905114427    1W    00000080000001389000000000032DE    TVYEV-TV000000000000VT429083
BI00B32DE    TT2113         2022102018007704152              AVSS 1.25F P             CCN000004800000004800FN00000000020221101000004800NNM   20220905114427    1W    00000080000001389000000000032DE    TVYEV-TV000000000000VT12A096
BI00B32DE    TT2114         2022102718007704152              AVSS 1.25F P             CCN000003200000003200FN00000000020221101000003200NNM   20220905114427    1W    00000080000001389000000000032DE    TVYEV-TV000000000000VT22A095
BI00B32DE    TT2111         2022100618007704192              AVSS 1.25F V             CCN000001600000001600FN00000000020221101000001600NNM   20220905114427    1W    00000080000001389000000000032DE    TVYEV-TV000000000000VT329049
BI00B32DE    TT2112         2022101218007704192              AVSS 1.25F V             CCN000002400000002400FN00000000020221101000002400NNM   20220905114427    1W    00000080000001389000000000032DE    TVYEV-TV000000000000VT429084
BI00B32DE    TT2113         2022102018007704192              AVSS 1.25F V             CCN000002400000002400FN00000000020221101000002400NNM   20220905114427    1W    00000080000001389000000000032DE    TVYEV-TV000000000000VT12A097
BI00B32DE    TT2114         2022102718007704192              AVSS 1.25F V             CCN000001600000001600FN00000000020221101000001600NNM   20220905114427    1W    00000080000001389000000000032DE    TVYEV-TV000000000000VT22A096
BI00B32DE    TT2111         2022100618007704140              AVSS 1.25F W             CCN000004800000004800FN00000000020221101000004800NNM   20220905114427    1W    00000080000001389000000000032DE    TVYEV-TV000000000000VT329050
BI00B32DE    TT2112         2022101218007704140              AVSS 1.25F W             CCN000005600000005600FN00000000020221101000005600NNM   20220905114427    1W    00000080000001389000000000032DE    TVYEV-TV000000000000VT429085
BI00B32DE    TT2113         2022102018007704140              AVSS 1.25F W             CCN000006400000006400FN00000000020221101000006400NNM   20220905114427    1W    00000080000001389000000000032DE    TVYEV-TV000000000000VT12A098
BI00B32DE    TT2114         2022102718007704140              AVSS 1.25F W             CCN000004000000004000FN00000000020221101000004000NNM   20220905114427    1W    00000080000001389000000000032DE    TVYEV-TV000000000000VT22A097
BI00B32DE    TT2112         2022101218007704143              AVSS 1.25F W/B           CCN000000800000000800FN00000000020221101000000800NNM   20220905114427    1W    00000080000001389000000000032DE    TVYEV-TV000000000000VT429086
BI00B32DE    TT2113         2022102018007704143              AVSS 1.25F W/B           CCN000001600000001600FN00000000020221101000001600NNM   20220905114427    1W    00000080000001389000000000032DE    TVYEV-TV000000000000VT12A099
BI00B32DE    TT2114         2022102718007704143              AVSS 1.25F W/B           CCN000001600000001600FN00000000020221101000001600NNM   20220905114427    1W    00000080000001389000000000032DE    TVYEV-TV000000000000VT22A098
BI00B32DE    TT2114         20221027180D0203730              AVSSH 0.3F B             CCN000002000000002000FN00000000020221101000002000NNM   20220905114427    1W    00000200000000515000000000032DE    TVYEV-TV000000000000VT22A026
BI00B32DE    TT2112         20221012180D0203739              AVSSH 0.3F B/L           CCN000002000000002000FN00000000020221101000002000NNM   20220905114427    1W    00000200000000515000000000032DE    TVYEV-TV000000000000VT429021
BI00B32DE    TT2112         20221012180D0203735              AVSSH 0.3F B/R           CCN000002000000002000FN00000000020221101000002000NNM   20220905114427    1W    00000200000000515000000000032DE    TVYEV-TV000000000000VT429022
BI00B32DE    TT2113         20221020180D0203780              AVSSH 0.3F BR            CCN000002000000002000FN00000000020221101000002000NNM   20220905114427    1W    00000200000000515000000000032DE    TVYEV-TV000000000000VT12A025
BI00B32DE    TT2114         20221027180D0203780              AVSSH 0.3F BR            CCN000002000000002000FN00000000020221101000002000NNM   20220905114427    1W    00000200000000515000000000032DE    TVYEV-TV000000000000VT22A027
BI00B32DE    TT2111         20221006180D0203760              AVSSH 0.3F G             CCN000002000000002000FN00000000020221101000002000NNM   20220905114427    1W    00000200000000515000000000032DE    TVYEV-TV000000000000VT329015
BI00B32DE    TT2113         20221020180D0203760              AVSSH 0.3F G             CCN000002000000002000FN00000000020221101000002000NNM   20220905114427    1W    00000200000000515000000000032DE    TVYEV-TV000000000000VT12A026
BI00B32DE    TT2114         20221027180D0203760              AVSSH 0.3F G             CCN000002000000002000FN00000000020221101000002000NNM   20220905114427    1W    00000200000000515000000000032DE    TVYEV-TV000000000000VT22A028
BI00B32DE    TT2113         20221020180D0203764              AVSSH 0.3F G/W           CCN000002000000002000FN00000000020221101000002000NNM   20220905114427    1W    00000200000000515000000000032DE    TVYEV-TV000000000000VT12A027
BI00B32DE    TT2112         20221012180D0203790              AVSSH 0.3F L             CCN000004000000004000FN00000000020221101000004000NNM   20220905114427    1W    00000200000000515000000000032DE    TVYEV-TV000000000000VT429023
BI00B32DE    TT2113         20221020180D0203790              AVSSH 0.3F L             CCN000004000000004000FN00000000020221101000004000NNM   20220905114427    1W    00000200000000515000000000032DE    TVYEV-TV000000000000VT12A028
BI00B32DE    TT2114         20221027180D0203790              AVSSH 0.3F L             CCN000002000000002000FN00000000020221101000002000NNM   20220905114427    1W    00000200000000515000000000032DE    TVYEV-TV000000000000VT22A029
BI00B32DE    TT2113         20221020180D0203793              AVSSH 0.3F L/B           CCN000002000000002000FN00000000020221101000002000NNM   20220905114427    1W    00000200000000515000000000032DE    TVYEV-TV000000000000VT12A029
BI00B32DE    TT2111         20221006180D0203752              AVSSH 0.3F P             CCN000002000000002000FN00000000020221101000002000NNM   20220905114427    1W    00000200000000515000000000032DE    TVYEV-TV000000000000VT329016
BI00B32DE    TT2113         20221020180D0203752              AVSSH 0.3F P             CCN000002000000002000FN00000000020221101000002000NNM   20220905114427    1W    00000200000000515000000000032DE    TVYEV-TV000000000000VT12A030
BI00B32DE    TT2114         20221027180D0203752              AVSSH 0.3F P             CCN000002000000002000FN00000000020221101000002000NNM   20220905114427    1W    00000200000000515000000000032DE    TVYEV-TV000000000000VT22A030
BI00B32DE    TT2113         20221020180D0203753              AVSSH 0.3F R/B           CCN000002000000002000FN00000000020221101000002000NNM   20220905114427    1W    00000200000000515000000000032DE    TVYEV-TV000000000000VT12A031
BI00B32DE    TT2113         20221020180D0203757              AVSSH 0.3F R/Y           CCN000002000000002000FN00000000020221101000002000NNM   20220905114427    1W    00000200000000515000000000032DE    TVYEV-TV000000000000VT12A032
BI00B32DE    TT2111         20221006180D0203792              AVSSH 0.3F V             CCN000002000000002000FN00000000020221101000002000NNM   20220905114427    1W    00000200000000515000000000032DE    TVYEV-TV000000000000VT329017
BI00B32DE    TT2113         20221020180D0203773              AVSSH 0.3F Y/B           CCN000002000000002000FN00000000020221101000002000NNM   20220905114427    1W    00000200000000515000000000032DE    TVYEV-TV000000000000VT12A033
BI00B32DE    TT2111         20221006180D0203930              AVSSH 0.5F B             CCN000012000000012000FN00000000020221101000012000NNM   20220905114427    1W    00000150000000689000000000032DE    TVYEV-TV000000000000VT329018
BI00B32DE    TT2112         20221012180D0203930              AVSSH 0.5F B             CCN000019500000019500FN00000000020221101000019500NNM   20220905114427    1W    00000150000000689000000000032DE    TVYEV-TV000000000000VT429024
BI00B32DE    TT2113         20221020180D0203930              AVSSH 0.5F B             CCN000018000000018000FN00000000020221101000018000NNM   20220905114427    1W    00000150000000689000000000032DE    TVYEV-TV000000000000VT12A034
BI00B32DE    TT2114         20221027180D0203930              AVSSH 0.5F B             CCN000016500000016500FN00000000020221101000016500NNM   20220905114427    1W    00000150000000689000000000032DE    TVYEV-TV000000000000VT22A031
BI00B32DE    TT2112         20221012180D0203935              AVSSH 0.5F B/R           CCN000003000000003000FN00000000020221101000003000NNM   20220905114427    1W    00000150000000689000000000032DE    TVYEV-TV000000000000VT429025
BI00B32DE    TT2113         20221020180D0203935              AVSSH 0.5F B/R           CCN000006000000006000FN00000000020221101000006000NNM   20220905114427    1W    00000150000000689000000000032DE    TVYEV-TV000000000000VT12A035
BI00B32DE    TT2114         20221027180D0203935              AVSSH 0.5F B/R           CCN000004500000004500FN00000000020221101000004500NNM   20220905114427    1W    00000150000000689000000000032DE    TVYEV-TV000000000000VT22A032
BI00B32DE    TT2111         20221006180D0203934              AVSSH 0.5F B/W           CCN000001500000001500FN00000000020221101000001500NNM   20220905114427    1W    00000150000000689000000000032DE    TVYEV-TV000000000000VT329019
BI00B32DE    TT2112         20221012180D0203934              AVSSH 0.5F B/W           CCN000001500000001500FN00000000020221101000001500NNM   20220905114427    1W    00000150000000689000000000032DE    TVYEV-TV000000000000VT429026
BI00B32DE    TT2113         20221020180D0203934              AVSSH 0.5F B/W           CCN000003000000003000FN00000000020221101000003000NNM   20220905114427    1W    00000150000000689000000000032DE    TVYEV-TV000000000000VT12A036
BI00B32DE    TT2114         20221027180D0203934              AVSSH 0.5F B/W           CCN000001500000001500FN00000000020221101000001500NNM   20220905114427    1W    00000150000000689000000000032DE    TVYEV-TV000000000000VT22A033
BI00B32DE    TT2111         20221006180D0203937              AVSSH 0.5F B/Y           CCN000003000000003000FN00000000020221101000003000NNM   20220905114427    1W    00000150000000689000000000032DE    TVYEV-TV000000000000VT329020
BI00B32DE    TT2112         20221012180D0203937              AVSSH 0.5F B/Y           CCN000003000000003000FN00000000020221101000003000NNM   20220905114427    1W    00000150000000689000000000032DE    TVYEV-TV000000000000VT429027
BI00B32DE    TT2113         20221020180D0203937              AVSSH 0.5F B/Y           CCN000003000000003000FN00000000020221101000003000NNM   20220905114427    1W    00000150000000689000000000032DE    TVYEV-TV000000000000VT12A037
BI00B32DE    TT2114         20221027180D0203937              AVSSH 0.5F B/Y           CCN000003000000003000FN00000000020221101000003000NNM   20220905114427    1W    00000150000000689000000000032DE    TVYEV-TV000000000000VT22A034
BI00B32DE    TT2111         20221006180D0203980              AVSSH 0.5F BR            CCN000004500000004500FN00000000020221101000004500NNM   20220905114427    1W    00000150000000689000000000032DE    TVYEV-TV000000000000VT329021
BI00B32DE    TT2112         20221012180D0203980              AVSSH 0.5F BR            CCN000016500000016500FN00000000020221101000016500NNM   20220905114427    1W    00000150000000689000000000032DE    TVYEV-TV000000000000VT429028
BI00B32DE    TT2113         20221020180D0203980              AVSSH 0.5F BR            CCN000016500000016500FN00000000020221101000016500NNM   20220905114427    1W    00000150000000689000000000032DE    TVYEV-TV000000000000VT12A038
BI00B32DE    TT2114         20221027180D0203980              AVSSH 0.5F BR            CCN000013500000013500FN00000000020221101000013500NNM   20220905114427    1W    00000150000000689000000000032DE    TVYEV-TV000000000000VT22A035
BI00B32DE    TT2112         20221012180D0203960              AVSSH 0.5F G             CCN000022500000022500FN00000000020221101000022500NNM   20220905114427    1W    00000150000000689000000000032DE    TVYEV-TV000000000000VT429029
BI00B32DE    TT2113         20221020180D0203960              AVSSH 0.5F G             CCN000025500000025500FN00000000020221101000025500NNM   20220905114427    1W    00000150000000689000000000032DE    TVYEV-TV000000000000VT12A039
BI00B32DE    TT2114         20221027180D0203960              AVSSH 0.5F G             CCN000021000000021000FN00000000020221101000021000NNM   20220905114427    1W    00000150000000689000000000032DE    TVYEV-TV000000000000VT22A036
BI00B32DE    TT2111         20221006180D0203963              AVSSH 0.5F G/B           CCN000001500000001500FN00000000020221101000001500NNM   20220905114427    1W    00000150000000689000000000032DE    TVYEV-TV000000000000VT329022
BI00B32DE    TT2112         20221012180D0203963              AVSSH 0.5F G/B           CCN000001500000001500FN00000000020221101000001500NNM   20220905114427    1W    00000150000000689000000000032DE    TVYEV-TV000000000000VT429030
BI00B32DE    TT2113         20221020180D0203963              AVSSH 0.5F G/B           CCN000001500000001500FN00000000020221101000001500NNM   20220905114427    1W    00000150000000689000000000032DE    TVYEV-TV000000000000VT12A040
BI00B32DE    TT2114         20221027180D0203963              AVSSH 0.5F G/B           CCN000003000000003000FN00000000020221101000003000NNM   20220905114427    1W    00000150000000689000000000032DE    TVYEV-TV000000000000VT22A037
BI00B32DE    TT2111         20221006180D0203965              AVSSH 0.5F G/R           CCN000003000000003000FN00000000020221101000003000NNM   20220905114427    1W    00000150000000689000000000032DE    TVYEV-TV000000000000VT329023
BI00B32DE    TT2112         20221012180D0203965              AVSSH 0.5F G/R           CCN000004500000004500FN00000000020221101000004500NNM   20220905114427    1W    00000150000000689000000000032DE    TVYEV-TV000000000000VT429031
BI00B32DE    TT2113         20221020180D0203965              AVSSH 0.5F G/R           CCN000003000000003000FN00000000020221101000003000NNM   20220905114427    1W    00000150000000689000000000032DE    TVYEV-TV000000000000VT12A041
BI00B32DE    TT2114         20221027180D0203965              AVSSH 0.5F G/R           CCN000004500000004500FN00000000020221101000004500NNM   20220905114427    1W    00000150000000689000000000032DE    TVYEV-TV000000000000VT22A038
BI00B32DE    TT2112         20221012180D0203964              AVSSH 0.5F G/W           CCN000001500000001500FN00000000020221101000001500NNM   20220905114427    1W    00000150000000689000000000032DE    TVYEV-TV000000000000VT429032
BI00B32DE    TT2113         20221020180D0203964              AVSSH 0.5F G/W           CCN000001500000001500FN00000000020221101000001500NNM   20220905114427    1W    00000150000000689000000000032DE    TVYEV-TV000000000000VT12A042
BI00B32DE    TT2114         20221027180D0203964              AVSSH 0.5F G/W           CCN000001500000001500FN00000000020221101000001500NNM   20220905114427    1W    00000150000000689000000000032DE    TVYEV-TV000000000000VT22A039
BI00B32DE    TT2112         20221012180D0203967              AVSSH 0.5F G/Y           CCN000003000000003000FN00000000020221101000003000NNM   20220905114427    1W    00000150000000689000000000032DE    TVYEV-TV000000000000VT429033
BI00B32DE    TT2113         20221020180D0203967              AVSSH 0.5F G/Y           CCN000001500000001500FN00000000020221101000001500NNM   20220905114427    1W    00000150000000689000000000032DE    TVYEV-TV000000000000VT12A043
BI00B32DE    TT2114         20221027180D0203967              AVSSH 0.5F G/Y           CCN000001500000001500FN00000000020221101000001500NNM   20220905114427    1W    00000150000000689000000000032DE    TVYEV-TV000000000000VT22A040
BI00B32DE    TT2112         20221012180D0203941              AVSSH 0.5F GY            CCN000013500000013500FN00000000020221101000013500NNM   20220905114427    1W    00000150000000689000000000032DE    TVYEV-TV000000000000VT429034
BI00B32DE    TT2113         20221020180D0203941              AVSSH 0.5F GY            CCN000024000000024000FN00000000020221101000024000NNM   20220905114427    1W    00000150000000689000000000032DE    TVYEV-TV000000000000VT12A044
BI00B32DE    TT2114         20221027180D0203941              AVSSH 0.5F GY            CCN000018000000018000FN00000000020221101000018000NNM   20220905114427    1W    00000150000000689000000000032DE    TVYEV-TV000000000000VT22A041
BI00B32DE    TT2111         20221006180D0203990              AVSSH 0.5F L             CCN000010500000010500FN00000000020221101000010500NNM   20220905114427    1W    00000150000000689000000000032DE    TVYEV-TV000000000000VT329024
BI00B32DE    TT2112         20221012180D0203990              AVSSH 0.5F L             CCN000034500000034500FN00000000020221101000034500NNM   20220905114427    1W    00000150000000689000000000032DE    TVYEV-TV000000000000VT429035
BI00B32DE    TT2113         20221020180D0203990              AVSSH 0.5F L             CCN000036000000036000FN00000000020221101000036000NNM   20220905114427    1W    00000150000000689000000000032DE    TVYEV-TV000000000000VT12A045
BI00B32DE    TT2114         20221027180D0203990              AVSSH 0.5F L             CCN000027000000027000FN00000000020221101000027000NNM   20220905114427    1W    00000150000000689000000000032DE    TVYEV-TV000000000000VT22A042
BI00B32DE    TT2113         20221020180D0203993              AVSSH 0.5F L/B           CCN000001500000001500FN00000000020221101000001500NNM   20220905114427    1W    00000150000000689000000000032DE    TVYEV-TV000000000000VT12A046
BI00B32DE    TT2111         20221006180D0203995              AVSSH 0.5F L/R           CCN000003000000003000FN00000000020221101000003000NNM   20220905114427    1W    00000150000000689000000000032DE    TVYEV-TV000000000000VT329025
BI00B32DE    TT2112         20221012180D0203995              AVSSH 0.5F L/R           CCN000006000000006000FN00000000020221101000006000NNM   20220905114427    1W    00000150000000689000000000032DE    TVYEV-TV000000000000VT429036
BI00B32DE    TT2113         20221020180D0203995              AVSSH 0.5F L/R           CCN000007500000007500FN00000000020221101000007500NNM   20220905114427    1W    00000150000000689000000000032DE    TVYEV-TV000000000000VT12A047
BI00B32DE    TT2114         20221027180D0203995              AVSSH 0.5F L/R           CCN000004500000004500FN00000000020221101000004500NNM   20220905114427    1W    00000150000000689000000000032DE    TVYEV-TV000000000000VT22A043
BI00B32DE    TT2111         20221006180D0203994              AVSSH 0.5F L/W           CCN000004500000004500FN00000000020221101000004500NNM   20220905114427    1W    00000150000000689000000000032DE    TVYEV-TV000000000000VT329026
BI00B32DE    TT2112         20221012180D0203994              AVSSH 0.5F L/W           CCN000010500000010500FN00000000020221101000010500NNM   20220905114427    1W    00000150000000689000000000032DE    TVYEV-TV000000000000VT429037
BI00B32DE    TT2113         20221020180D0203994              AVSSH 0.5F L/W           CCN000010500000010500FN00000000020221101000010500NNM   20220905114427    1W    00000150000000689000000000032DE    TVYEV-TV000000000000VT12A048
BI00B32DE    TT2114         20221027180D0203994              AVSSH 0.5F L/W           CCN000010500000010500FN00000000020221101000010500NNM   20220905114427    1W    00000150000000689000000000032DE    TVYEV-TV000000000000VT22A044
BI00B32DE    TT2111         20221006180D0203997              AVSSH 0.5F L/Y           CCN000001500000001500FN00000000020221101000001500NNM   20220905114427    1W    00000150000000689000000000032DE    TVYEV-TV000000000000VT329027
BI00B32DE    TT2112         20221012180D0203997              AVSSH 0.5F L/Y           CCN000001500000001500FN00000000020221101000001500NNM   20220905114427    1W    00000150000000689000000000032DE    TVYEV-TV000000000000VT429038
BI00B32DE    TT2113         20221020180D0203997              AVSSH 0.5F L/Y           CCN000003000000003000FN00000000020221101000003000NNM   20220905114427    1W    00000150000000689000000000032DE    TVYEV-TV000000000000VT12A049
BI00B32DE    TT2114         20221027180D0203997              AVSSH 0.5F L/Y           CCN000001500000001500FN00000000020221101000001500NNM   20220905114427    1W    00000150000000689000000000032DE    TVYEV-TV000000000000VT22A045
BI00B32DE    TT2111         20221006180D0203961              AVSSH 0.5F LG            CCN000003000000003000FN00000000020221101000003000NNM   20220905114427    1W    00000150000000689000000000032DE    TVYEV-TV000000000000VT329028
BI00B32DE    TT2112         20221012180D0203961              AVSSH 0.5F LG            CCN000027000000027000FN00000000020221101000027000NNM   20220905114427    1W    00000150000000689000000000032DE    TVYEV-TV000000000000VT429039
BI00B32DE    TT2113         20221020180D0203961              AVSSH 0.5F LG            CCN000025500000025500FN00000000020221101000025500NNM   20220905114427    1W    00000150000000689000000000032DE    TVYEV-TV000000000000VT12A050
BI00B32DE    TT2114         20221027180D0203961              AVSSH 0.5F LG            CCN000021000000021000FN00000000020221101000021000NNM   20220905114427    1W    00000150000000689000000000032DE    TVYEV-TV000000000000VT22A046
BI00B32DE    TT2112         20221012180D0203952              AVSSH 0.5F P             CCN000015000000015000FN00000000020221101000015000NNM   20220905114427    1W    00000150000000689000000000032DE    TVYEV-TV000000000000VT429040
BI00B32DE    TT2113         20221020180D0203952              AVSSH 0.5F P             CCN000024000000024000FN00000000020221101000024000NNM   20220905114427    1W    00000150000000689000000000032DE    TVYEV-TV000000000000VT12A051
BI00B32DE    TT2114         20221027180D0203952              AVSSH 0.5F P             CCN000018000000018000FN00000000020221101000018000NNM   20220905114427    1W    00000150000000689000000000032DE    TVYEV-TV000000000000VT22A047
BI00B32DE    TT2111         20221006180D02039G6              AVSSH 0.5F P/L           CCN000001500000001500FN00000000020221101000001500NNM   20220905114427    1W    00000150000000689000000000032DE    TVYEV-TV000000000000VT329029
BI00B32DE    TT2112         20221012180D02039G6              AVSSH 0.5F P/L           CCN000001500000001500FN00000000020221101000001500NNM   20220905114427    1W    00000150000000689000000000032DE    TVYEV-TV000000000000VT429041
BI00B32DE    TT2112         20221012180D0203950              AVSSH 0.5F R             CCN000018000000018000FN00000000020221101000018000NNM   20220905114427    1W    00000150000000689000000000032DE    TVYEV-TV000000000000VT429042
BI00B32DE    TT2113         20221020180D0203950              AVSSH 0.5F R             CCN000016500000016500FN00000000020221101000016500NNM   20220905114427    1W    00000150000000689000000000032DE    TVYEV-TV000000000000VT12A052
BI00B32DE    TT2114         20221027180D0203950              AVSSH 0.5F R             CCN000013500000013500FN00000000020221101000013500NNM   20220905114427    1W    00000150000000689000000000032DE    TVYEV-TV000000000000VT22A048
BI00B32DE    TT2112         20221012180D0203953              AVSSH 0.5F R/B           CCN000003000000003000FN00000000020221101000003000NNM   20220905114427    1W    00000150000000689000000000032DE    TVYEV-TV000000000000VT429043
BI00B32DE    TT2113         20221020180D0203953              AVSSH 0.5F R/B           CCN000001500000001500FN00000000020221101000001500NNM   20220905114427    1W    00000150000000689000000000032DE    TVYEV-TV000000000000VT12A053
BI00B32DE    TT2114         20221027180D0203953              AVSSH 0.5F R/B           CCN000001500000001500FN00000000020221101000001500NNM   20220905114427    1W    00000150000000689000000000032DE    TVYEV-TV000000000000VT22A049
BI00B32DE    TT2113         20221020180D0203959              AVSSH 0.5F R/L           CCN000001500000001500FN00000000020221101000001500NNM   20220905114427    1W    00000150000000689000000000032DE    TVYEV-TV000000000000VT12A054
BI00B32DE    TT2114         20221027180D0203959              AVSSH 0.5F R/L           CCN000001500000001500FN00000000020221101000001500NNM   20220905114427    1W    00000150000000689000000000032DE    TVYEV-TV000000000000VT22A050
BI00B32DE    TT2112         20221012180D0203954              AVSSH 0.5F R/W           CCN000003000000003000FN00000000020221101000003000NNM   20220905114427    1W    00000150000000689000000000032DE    TVYEV-TV000000000000VT429044
BI00B32DE    TT2113         20221020180D0203954              AVSSH 0.5F R/W           CCN000001500000001500FN00000000020221101000001500NNM   20220905114427    1W    00000150000000689000000000032DE    TVYEV-TV000000000000VT12A055
BI00B32DE    TT2114         20221027180D0203954              AVSSH 0.5F R/W           CCN000001500000001500FN00000000020221101000001500NNM   20220905114427    1W    00000150000000689000000000032DE    TVYEV-TV000000000000VT22A051
BI00B32DE    TT2112         20221012180D0203957              AVSSH 0.5F R/Y           CCN000001500000001500FN00000000020221101000001500NNM   20220905114427    1W    00000150000000689000000000032DE    TVYEV-TV000000000000VT429045
BI00B32DE    TT2114         20221027180D0203957              AVSSH 0.5F R/Y           CCN000001500000001500FN00000000020221101000001500NNM   20220905114427    1W    00000150000000689000000000032DE    TVYEV-TV000000000000VT22A052
BI00B32DE    TT2112         20221012180D0203992              AVSSH 0.5F V             CCN000012000000012000FN00000000020221101000012000NNM   20220905114427    1W    00000150000000689000000000032DE    TVYEV-TV000000000000VT429046
BI00B32DE    TT2113         20221020180D0203992              AVSSH 0.5F V             CCN000010500000010500FN00000000020221101000010500NNM   20220905114427    1W    00000150000000689000000000032DE    TVYEV-TV000000000000VT12A056
BI00B32DE    TT2114         20221027180D0203992              AVSSH 0.5F V             CCN000009000000009000FN00000000020221101000009000NNM   20220905114427    1W    00000150000000689000000000032DE    TVYEV-TV000000000000VT22A053
BI00B32DE    TT2111         20221006180D0203940              AVSSH 0.5F W             CCN000009000000009000FN00000000020221101000009000NNM   20220905114427    1W    00000150000000689000000000032DE    TVYEV-TV000000000000VT329030
BI00B32DE    TT2112         20221012180D0203940              AVSSH 0.5F W             CCN000031500000031500FN00000000020221101000031500NNM   20220905114427    1W    00000150000000689000000000032DE    TVYEV-TV000000000000VT429047
BI00B32DE    TT2113         20221020180D0203940              AVSSH 0.5F W             CCN000031500000031500FN00000000020221101000031500NNM   20220905114427    1W    00000150000000689000000000032DE    TVYEV-TV000000000000VT12A057
BI00B32DE    TT2114         20221027180D0203940              AVSSH 0.5F W             CCN000027000000027000FN00000000020221101000027000NNM   20220905114427    1W    00000150000000689000000000032DE    TVYEV-TV000000000000VT22A054
BI00B32DE    TT2111         20221006180D0203943              AVSSH 0.5F W/B           CCN000004500000004500FN00000000020221101000004500NNM   20220905114427    1W    00000150000000689000000000032DE    TVYEV-TV000000000000VT329031
BI00B32DE    TT2112         20221012180D0203943              AVSSH 0.5F W/B           CCN000007500000007500FN00000000020221101000007500NNM   20220905114427    1W    00000150000000689000000000032DE    TVYEV-TV000000000000VT429048
BI00B32DE    TT2113         20221020180D0203943              AVSSH 0.5F W/B           CCN000006000000006000FN00000000020221101000006000NNM   20220905114427    1W    00000150000000689000000000032DE    TVYEV-TV000000000000VT12A058
BI00B32DE    TT2114         20221027180D0203943              AVSSH 0.5F W/B           CCN000006000000006000FN00000000020221101000006000NNM   20220905114427    1W    00000150000000689000000000032DE    TVYEV-TV000000000000VT22A055
BI00B32DE    TT2111         20221006180D0203946              AVSSH 0.5F W/G           CCN000001500000001500FN00000000020221101000001500NNM   20220905114427    1W    00000150000000689000000000032DE    TVYEV-TV000000000000VT329032
BI00B32DE    TT2112         20221012180D0203946              AVSSH 0.5F W/G           CCN000003000000003000FN00000000020221101000003000NNM   20220905114427    1W    00000150000000689000000000032DE    TVYEV-TV000000000000VT429049
BI00B32DE    TT2113         20221020180D0203946              AVSSH 0.5F W/G           CCN000003000000003000FN00000000020221101000003000NNM   20220905114427    1W    00000150000000689000000000032DE    TVYEV-TV000000000000VT12A059
BI00B32DE    TT2114         20221027180D0203946              AVSSH 0.5F W/G           CCN000003000000003000FN00000000020221101000003000NNM   20220905114427    1W    00000150000000689000000000032DE    TVYEV-TV000000000000VT22A056
BI00B32DE    TT2112         20221012180D0203949              AVSSH 0.5F W/L           CCN000003000000003000FN00000000020221101000003000NNM   20220905114427    1W    00000150000000689000000000032DE    TVYEV-TV000000000000VT429050
BI00B32DE    TT2113         20221020180D0203949              AVSSH 0.5F W/L           CCN000004500000004500FN00000000020221101000004500NNM   20220905114427    1W    00000150000000689000000000032DE    TVYEV-TV000000000000VT12A060
BI00B32DE    TT2114         20221027180D0203949              AVSSH 0.5F W/L           CCN000001500000001500FN00000000020221101000001500NNM   20220905114427    1W    00000150000000689000000000032DE    TVYEV-TV000000000000VT22A057
BI00B32DE    TT2112         20221012180D0203945              AVSSH 0.5F W/R           CCN000003000000003000FN00000000020221101000003000NNM   20220905114427    1W    00000150000000689000000000032DE    TVYEV-TV000000000000VT429051
BI00B32DE    TT2113         20221020180D0203945              AVSSH 0.5F W/R           CCN000003000000003000FN00000000020221101000003000NNM   20220905114427    1W    00000150000000689000000000032DE    TVYEV-TV000000000000VT12A061
BI00B32DE    TT2114         20221027180D0203945              AVSSH 0.5F W/R           CCN000001500000001500FN00000000020221101000001500NNM   20220905114427    1W    00000150000000689000000000032DE    TVYEV-TV000000000000VT22A058
BI00B32DE    TT2111         20221006180D0203970              AVSSH 0.5F Y             CCN000003000000003000FN00000000020221101000003000NNM   20220905114427    1W    00000150000000689000000000032DE    TVYEV-TV000000000000VT329033
BI00B32DE    TT2112         20221012180D0203970              AVSSH 0.5F Y             CCN000018000000018000FN00000000020221101000018000NNM   20220905114427    1W    00000150000000689000000000032DE    TVYEV-TV000000000000VT429052
BI00B32DE    TT2113         20221020180D0203970              AVSSH 0.5F Y             CCN000016500000016500FN00000000020221101000016500NNM   20220905114427    1W    00000150000000689000000000032DE    TVYEV-TV000000000000VT12A062
BI00B32DE    TT2114         20221027180D0203970              AVSSH 0.5F Y             CCN000013500000013500FN00000000020221101000013500NNM   20220905114427    1W    00000150000000689000000000032DE    TVYEV-TV000000000000VT22A059
BI00B32DE    TT2111         20221006180D0203973              AVSSH 0.5F Y/B           CCN000001500000001500FN00000000020221101000001500NNM   20220905114427    1W    00000150000000689000000000032DE    TVYEV-TV000000000000VT329034
BI00B32DE    TT2112         20221012180D0203973              AVSSH 0.5F Y/B           CCN000003000000003000FN00000000020221101000003000NNM   20220905114427    1W    00000150000000689000000000032DE    TVYEV-TV000000000000VT429053
BI00B32DE    TT2113         20221020180D0203973              AVSSH 0.5F Y/B           CCN000001500000001500FN00000000020221101000001500NNM   20220905114427    1W    00000150000000689000000000032DE    TVYEV-TV000000000000VT12A063
BI00B32DE    TT2114         20221027180D0203973              AVSSH 0.5F Y/B           CCN000001500000001500FN00000000020221101000001500NNM   20220905114427    1W    00000150000000689000000000032DE    TVYEV-TV000000000000VT22A060
BI00B32DE    TT2111         20221006180D0203976              AVSSH 0.5F Y/G           CCN000001500000001500FN00000000020221101000001500NNM   20220905114427    1W    00000150000000689000000000032DE    TVYEV-TV000000000000VT329035
BI00B32DE    TT2112         20221012180D0203976              AVSSH 0.5F Y/G           CCN000004500000004500FN00000000020221101000004500NNM   20220905114427    1W    00000150000000689000000000032DE    TVYEV-TV000000000000VT429054
BI00B32DE    TT2113         20221020180D0203976              AVSSH 0.5F Y/G           CCN000004500000004500FN00000000020221101000004500NNM   20220905114427    1W    00000150000000689000000000032DE    TVYEV-TV000000000000VT12A064
BI00B32DE    TT2114         20221027180D0203976              AVSSH 0.5F Y/G           CCN000004500000004500FN00000000020221101000004500NNM   20220905114427    1W    00000150000000689000000000032DE    TVYEV-TV000000000000VT22A061
BI00B32DE    TT2112         20221012180D0203975              AVSSH 0.5F Y/R           CCN000001500000001500FN00000000020221101000001500NNM   20220905114427    1W    00000150000000689000000000032DE    TVYEV-TV000000000000VT429055
BI00B32DE    TT2113         20221020180D0203975              AVSSH 0.5F Y/R           CCN000001500000001500FN00000000020221101000001500NNM   20220905114427    1W    00000150000000689000000000032DE    TVYEV-TV000000000000VT12A065
BI00B32DE    TT2114         20221027180D0203975              AVSSH 0.5F Y/R           CCN000001500000001500FN00000000020221101000001500NNM   20220905114427    1W    00000150000000689000000000032DE    TVYEV-TV000000000000VT22A062
BI00B32DE    TT2111         20221006180D0204030              AVSSH 0.75F B            CCN000001000000001000FN00000000020221101000001000NNM   20220905114427    1W    00000100000000934000000000032DE    TVYEV-TV000000000000VT329036
BI00B32DE    TT2113         20221020180D0204030              AVSSH 0.75F B            CCN000001000000001000FN00000000020221101000001000NNM   20220905114427    1W    00000100000000934000000000032DE    TVYEV-TV000000000000VT12A066
BI00B32DE    TT2112         20221012180D0204080              AVSSH 0.75F BR           CCN000011000000011000FN00000000020221101000011000NNM   20220905114427    1W    00000100000000934000000000032DE    TVYEV-TV000000000000VT429056
BI00B32DE    TT2113         20221020180D0204080              AVSSH 0.75F BR           CCN000012000000012000FN00000000020221101000012000NNM   20220905114427    1W    00000100000000934000000000032DE    TVYEV-TV000000000000VT12A067
BI00B32DE    TT2114         20221027180D0204080              AVSSH 0.75F BR           CCN000010000000010000FN00000000020221101000010000NNM   20220905114427    1W    00000100000000934000000000032DE    TVYEV-TV000000000000VT22A063
BI00B32DE    TT2113         20221020180D0204060              AVSSH 0.75F G            CCN000001000000001000FN00000000020221101000001000NNM   20220905114427    1W    00000100000000934000000000032DE    TVYEV-TV000000000000VT12A068
BI00B32DE    TT2114         20221027180D0204060              AVSSH 0.75F G            CCN000001000000001000FN00000000020221101000001000NNM   20220905114427    1W    00000100000000934000000000032DE    TVYEV-TV000000000000VT22A064
BI00B32DE    TT2112         20221012180D0204059              AVSSH 0.75F R/L          CCN000001000000001000FN00000000020221101000001000NNM   20220905114427    1W    00000100000000934000000000032DE    TVYEV-TV000000000000VT429057
BI00B32DE    TT2113         20221020180D0204059              AVSSH 0.75F R/L          CCN000001000000001000FN00000000020221101000001000NNM   20220905114427    1W    00000100000000934000000000032DE    TVYEV-TV000000000000VT12A069
BI00B32DE    TT2114         20221027180D0204059              AVSSH 0.75F R/L          CCN000001000000001000FN00000000020221101000001000NNM   20220905114427    1W    00000100000000934000000000032DE    TVYEV-TV000000000000VT22A065
BI00B32DE    TT2112         20221012180D0204092              AVSSH 0.75F V            CCN000001000000001000FN00000000020221101000001000NNM   20220905114427    1W    00000100000000934000000000032DE    TVYEV-TV000000000000VT429058
BI00B32DE    TT2114         20221027180D0204040              AVSSH 0.75F W            CCN000001000000001000FN00000000020221101000001000NNM   20220905114427    1W    00000100000000934000000000032DE    TVYEV-TV000000000000VT22A066
BI00B32DE    TT2111         20221006180D0204043              AVSSH 0.75F W/B          CCN000004000000004000FN00000000020221101000004000NNM   20220905114427    1W    00000100000000934000000000032DE    TVYEV-TV000000000000VT329037
BI00B32DE    TT2112         20221012180D0204043              AVSSH 0.75F W/B          CCN000008000000008000FN00000000020221101000008000NNM   20220905114427    1W    00000100000000934000000000032DE    TVYEV-TV000000000000VT429059
BI00B32DE    TT2113         20221020180D0204043              AVSSH 0.75F W/B          CCN000008000000008000FN00000000020221101000008000NNM   20220905114427    1W    00000100000000934000000000032DE    TVYEV-TV000000000000VT12A070
BI00B32DE    TT2114         20221027180D0204043              AVSSH 0.75F W/B          CCN000007000000007000FN00000000020221101000007000NNM   20220905114427    1W    00000100000000934000000000032DE    TVYEV-TV000000000000VT22A067
BI00B32DE    TT2111         20221006180D0204130              AVSSH 1.25F B            CCN000006400000006400FN00000000020221101000006400NNM   20220905114427    1W    00000080000001458000000000032DE    TVYEV-TV000000000000VT329038
BI00B32DE    TT2112         20221012180D0204130              AVSSH 1.25F B            CCN000012800000012800FN00000000020221101000012800NNM   20220905114427    1W    00000080000001458000000000032DE    TVYEV-TV000000000000VT429060
BI00B32DE    TT2113         20221020180D0204130              AVSSH 1.25F B            CCN000012800000012800FN00000000020221101000012800NNM   20220905114427    1W    00000080000001458000000000032DE    TVYEV-TV000000000000VT12A071
BI00B32DE    TT2114         20221027180D0204130              AVSSH 1.25F B            CCN000010400000010400FN00000000020221101000010400NNM   20220905114427    1W    00000080000001458000000000032DE    TVYEV-TV000000000000VT22A068
BI00B32DE    TT2113         20221020180D0204135              AVSSH 1.25F B/R          CCN000001600000001600FN00000000020221101000001600NNM   20220905114427    1W    00000080000001458000000000032DE    TVYEV-TV000000000000VT12A072
BI00B32DE    TT2114         20221027180D0204135              AVSSH 1.25F B/R          CCN000002400000002400FN00000000020221101000002400NNM   20220905114427    1W    00000080000001458000000000032DE    TVYEV-TV000000000000VT22A069
BI00B32DE    TT2113         20221020180D0204134              AVSSH 1.25F B/W          CCN000000800000000800FN00000000020221101000000800NNM   20220905114427    1W    00000080000001458000000000032DE    TVYEV-TV000000000000VT12A073
BI00B32DE    TT2114         20221027180D0204134              AVSSH 1.25F B/W          CCN000000800000000800FN00000000020221101000000800NNM   20220905114427    1W    00000080000001458000000000032DE    TVYEV-TV000000000000VT22A070
BI00B32DE    TT2112         20221012180D0204180              AVSSH 1.25F BR           CCN000016000000016000FN00000000020221101000016000NNM   20220905114427    1W    00000080000001458000000000032DE    TVYEV-TV000000000000VT429061
BI00B32DE    TT2113         20221020180D0204180              AVSSH 1.25F BR           CCN000016000000016000FN00000000020221101000016000NNM   20220905114427    1W    00000080000001458000000000032DE    TVYEV-TV000000000000VT12A074
BI00B32DE    TT2114         20221027180D0204180              AVSSH 1.25F BR           CCN000012800000012800FN00000000020221101000012800NNM   20220905114427    1W    00000080000001458000000000032DE    TVYEV-TV000000000000VT22A071
BI00B32DE    TT2113         20221020180D0204160              AVSSH 1.25F G            CCN000001600000001600FN00000000020221101000001600NNM   20220905114427    1W    00000080000001458000000000032DE    TVYEV-TV000000000000VT12A075
BI00B32DE    TT2114         20221027180D0204160              AVSSH 1.25F G            CCN000001600000001600FN00000000020221101000001600NNM   20220905114427    1W    00000080000001458000000000032DE    TVYEV-TV000000000000VT22A072
BI00B32DE    TT2111         20221006180D0204190              AVSSH 1.25F L            CCN000006400000006400FN00000000020221101000006400NNM   20220905114427    1W    00000080000001458000000000032DE    TVYEV-TV000000000000VT329039
BI00B32DE    TT2112         20221012180D0204190              AVSSH 1.25F L            CCN000007200000007200FN00000000020221101000007200NNM   20220905114427    1W    00000080000001458000000000032DE    TVYEV-TV000000000000VT429062
BI00B32DE    TT2113         20221020180D0204190              AVSSH 1.25F L            CCN000008000000008000FN00000000020221101000008000NNM   20220905114427    1W    00000080000001458000000000032DE    TVYEV-TV000000000000VT12A076
BI00B32DE    TT2114         20221027180D0204190              AVSSH 1.25F L            CCN000007200000007200FN00000000020221101000007200NNM   20220905114427    1W    00000080000001458000000000032DE    TVYEV-TV000000000000VT22A073
BI00B32DE    TT2113         20221020180D0204195              AVSSH 1.25F L/R          CCN000000800000000800FN00000000020221101000000800NNM   20220905114427    1W    00000080000001458000000000032DE    TVYEV-TV000000000000VT12A077
BI00B32DE    TT2111         20221006180D0204150              AVSSH 1.25F R            CCN000002400000002400FN00000000020221101000002400NNM   20220905114427    1W    00000080000001458000000000032DE    TVYEV-TV000000000000VT329040
BI00B32DE    TT2112         20221012180D0204150              AVSSH 1.25F R            CCN000004800000004800FN00000000020221101000004800NNM   20220905114427    1W    00000080000001458000000000032DE    TVYEV-TV000000000000VT429063
BI00B32DE    TT2113         20221020180D0204150              AVSSH 1.25F R            CCN000004800000004800FN00000000020221101000004800NNM   20220905114427    1W    00000080000001458000000000032DE    TVYEV-TV000000000000VT12A078
BI00B32DE    TT2114         20221027180D0204150              AVSSH 1.25F R            CCN000004800000004800FN00000000020221101000004800NNM   20220905114427    1W    00000080000001458000000000032DE    TVYEV-TV000000000000VT22A074
BI00B32DE    TT2111         20221006180D0204153              AVSSH 1.25F R/B          CCN000003200000003200FN00000000020221101000003200NNM   20220905114427    1W    00000080000001458000000000032DE    TVYEV-TV000000000000VT329041
BI00B32DE    TT2112         20221012180D0204153              AVSSH 1.25F R/B          CCN000004000000004000FN00000000020221101000004000NNM   20220905114427    1W    00000080000001458000000000032DE    TVYEV-TV000000000000VT429064
BI00B32DE    TT2113         20221020180D0204153              AVSSH 1.25F R/B          CCN000003200000003200FN00000000020221101000003200NNM   20220905114427    1W    00000080000001458000000000032DE    TVYEV-TV000000000000VT12A079
BI00B32DE    TT2114         20221027180D0204153              AVSSH 1.25F R/B          CCN000003200000003200FN00000000020221101000003200NNM   20220905114427    1W    00000080000001458000000000032DE    TVYEV-TV000000000000VT22A075
BI00B32DE    TT2112         20221012180D0204159              AVSSH 1.25F R/L          CCN000000800000000800FN00000000020221101000000800NNM   20220905114427    1W    00000080000001458000000000032DE    TVYEV-TV000000000000VT429065
BI00B32DE    TT2114         20221027180D0204159              AVSSH 1.25F R/L          CCN000000800000000800FN00000000020221101000000800NNM   20220905114427    1W    00000080000001458000000000032DE    TVYEV-TV000000000000VT22A076
BI00B32DE    TT2111         20221006180D0204192              AVSSH 1.25F V            CCN000004000000004000FN00000000020221101000004000NNM   20220905114427    1W    00000080000001458000000000032DE    TVYEV-TV000000000000VT329042
BI00B32DE    TT2112         20221012180D0204192              AVSSH 1.25F V            CCN000004000000004000FN00000000020221101000004000NNM   20220905114427    1W    00000080000001458000000000032DE    TVYEV-TV000000000000VT429066
BI00B32DE    TT2113         20221020180D0204192              AVSSH 1.25F V            CCN000004800000004800FN00000000020221101000004800NNM   20220905114427    1W    00000080000001458000000000032DE    TVYEV-TV000000000000VT12A080
BI00B32DE    TT2114         20221027180D0204192              AVSSH 1.25F V            CCN000003200000003200FN00000000020221101000003200NNM   20220905114427    1W    00000080000001458000000000032DE    TVYEV-TV000000000000VT22A077
BI00B32DE    TT2111         20221006180D0204140              AVSSH 1.25F W            CCN000001600000001600FN00000000020221101000001600NNM   20220905114427    1W    00000080000001458000000000032DE    TVYEV-TV000000000000VT329043
BI00B32DE    TT2112         20221012180D0204140              AVSSH 1.25F W            CCN000001600000001600FN00000000020221101000001600NNM   20220905114427    1W    00000080000001458000000000032DE    TVYEV-TV000000000000VT429067
BI00B32DE    TT2113         20221020180D0204140              AVSSH 1.25F W            CCN000002400000002400FN00000000020221101000002400NNM   20220905114427    1W    00000080000001458000000000032DE    TVYEV-TV000000000000VT12A081
BI00B32DE    TT2114         20221027180D0204140              AVSSH 1.25F W            CCN000000800000000800FN00000000020221101000000800NNM   20220905114427    1W    00000080000001458000000000032DE    TVYEV-TV000000000000VT22A078
BI00B32DE    TT2112         20221012180D0204143              AVSSH 1.25F W/B          CCN000030400000030400FN00000000020221101000030400NNM   20220905114427    1W    00000080000001458000000000032DE    TVYEV-TV000000000000VT429068
BI00B32DE    TT2113         20221020180D0204143              AVSSH 1.25F W/B          CCN000030400000030400FN00000000020221101000030400NNM   20220905114427    1W    00000080000001458000000000032DE    TVYEV-TV000000000000VT12A082
BI00B32DE    TT2114         20221027180D0204143              AVSSH 1.25F W/B          CCN000024000000024000FN00000000020221101000024000NNM   20220905114427    1W    00000080000001458000000000032DE    TVYEV-TV000000000000VT22A079
BI00B32DE    TT2112         20221012180D0204149              AVSSH 1.25F W/L          CCN000002400000002400FN00000000020221101000002400NNM   20220905114427    1W    00000080000001458000000000032DE    TVYEV-TV000000000000VT429069
BI00B32DE    TT2113         20221020180D0204149              AVSSH 1.25F W/L          CCN000003200000003200FN00000000020221101000003200NNM   20220905114427    1W    00000080000001458000000000032DE    TVYEV-TV000000000000VT12A083
BI00B32DE    TT2114         20221027180D0204149              AVSSH 1.25F W/L          CCN000001600000001600FN00000000020221101000001600NNM   20220905114427    1W    00000080000001458000000000032DE    TVYEV-TV000000000000VT22A080
BI00B32DE    TT2112         20221012180D0204170              AVSSH 1.25F Y            CCN000001600000001600FN00000000020221101000001600NNM   20220905114427    1W    00000080000001458000000000032DE    TVYEV-TV000000000000VT429070
BI00B32DE    TT2113         20221020180D0204170              AVSSH 1.25F Y            CCN000000800000000800FN00000000020221101000000800NNM   20220905114427    1W    00000080000001458000000000032DE    TVYEV-TV000000000000VT12A084
BI00B32DE    TT2114         20221027180D0204170              AVSSH 1.25F Y            CCN000001600000001600FN00000000020221101000001600NNM   20220905114427    1W    00000080000001458000000000032DE    TVYEV-TV000000000000VT22A081
BI00B32DE    @TT2111        20221006181E50000ZZ              AVSSCS-S 0.5FX1 DGY/BR   CCN000001200000001200FN00000000020221101000001200NNM   20220905114425    1W    00000040000001909700000000032DE    TVYEV-TV000000000000VT329001
BI00B32DE    @TT2112        20221012181E50000ZZ              AVSSCS-S 0.5FX1 DGY/BR   CCN000001600000001600FN00000000020221101000001600NNM   20220905114425    1W    00000040000001909700000000032DE    TVYEV-TV000000000000VT429003
BI00B32DE    @TT2113        20221020181E50000ZZ              AVSSCS-S 0.5FX1 DGY/BR   CCN000001200000001200FN00000000020221101000001200NNM   20220905114425    1W    00000040000001909700000000032DE    TVYEV-TV000000000000VT12A002
BI00B32DE    @TT2114        20221027181E50000ZZ              AVSSCS-S 0.5FX1 DGY/BR   CCN000001200000001200FN00000000020221101000001200NNM   20220905114425    1W    00000040000001909700000000032DE    TVYEV-TV000000000000VT22A004
BI00B32DE    @TT2113        20221020181E50003ZZ              AVSSCS-S 0.3FX2 DGY/BR   CCN000014350000014350FN00000000020221101000014350NNM   20220905114425    1W    00000035000002165000000000032DE    TVYEV-TV000000000000VT12A010
BI00B32DE    @TT2114        20221027181E50003ZZ              AVSSCS-S 0.3FX2 DGY/BR   CCN000017500000017500FN00000000020221101000017500NNM   20220905114425    1W    00000035000002165000000000032DE    TVYEV-TV000000000000VT22A012
BI00B32DE    @TT2111        20221006181E50005ZZ              AVSSCS-S 0.5FX1 DGY/W    CCN000002800000002800FN00000000020221101000002800NNM   20220905114425    1W    00000040000001909700000000032DE    TVYEV-TV000000000000VT329003
BI00B32DE    @TT2112        20221012181E50005ZZ              AVSSCS-S 0.5FX1 DGY/W    CCN000002400000002400FN00000000020221101000002400NNM   20220905114425    1W    00000040000001909700000000032DE    TVYEV-TV000000000000VT429006
BI00B32DE    @TT2113        20221020181E50005ZZ              AVSSCS-S 0.5FX1 DGY/W    CCN000002400000002400FN00000000020221101000002400NNM   20220905114425    1W    00000040000001909700000000032DE    TVYEV-TV000000000000VT12A005
BI00B32DE    @TT2114        20221027181E50005ZZ              AVSSCS-S 0.5FX1 DGY/W    CCN000002000000002000FN00000000020221101000002000NNM   20220905114425    1W    00000040000001909700000000032DE    TVYEV-TV000000000000VT22A007
BI00B32DE    @TT2111        20221006181E50006ZZ              AVSSCS-S 0.5FX1 DGY/Y    CCN000001200000001200FN00000000020221101000001200NNM   20220905114425    1W    00000040000001909700000000032DE    TVYEV-TV000000000000VT329004
BI00B32DE    @TT2112        20221012181E50006ZZ              AVSSCS-S 0.5FX1 DGY/Y    CCN000001600000001600FN00000000020221101000001600NNM   20220905114425    1W    00000040000001909700000000032DE    TVYEV-TV000000000000VT429007
BI00B32DE    @TT2113        20221020181E50006ZZ              AVSSCS-S 0.5FX1 DGY/Y    CCN000001200000001200FN00000000020221101000001200NNM   20220905114425    1W    00000040000001909700000000032DE    TVYEV-TV000000000000VT12A006
BI00B32DE    @TT2114        20221027181E50006ZZ              AVSSCS-S 0.5FX1 DGY/Y    CCN000000800000000800FN00000000020221101000000800NNM   20220905114425    1W    00000040000001909700000000032DE    TVYEV-TV000000000000VT22A008
BI00B32DE    @TT2111        20221006181E50007ZZ              AVSSCS-S 0.5FX1 DGY/L    CCN000001200000001200FN00000000020221101000001200NNM   20220905114425    1W    00000040000001909700000000032DE    TVYEV-TV000000000000VT329002
BI00B32DE    @TT2112        20221012181E50007ZZ              AVSSCS-S 0.5FX1 DGY/L    CCN000001200000001200FN00000000020221101000001200NNM   20220905114425    1W    00000040000001909700000000032DE    TVYEV-TV000000000000VT429005
BI00B32DE    @TT2113        20221020181E50007ZZ              AVSSCS-S 0.5FX1 DGY/L    CCN000001200000001200FN00000000020221101000001200NNM   20220905114425    1W    00000040000001909700000000032DE    TVYEV-TV000000000000VT12A004
BI00B32DE    @TT2114        20221027181E50007ZZ              AVSSCS-S 0.5FX1 DGY/L    CCN000000800000000800FN00000000020221101000000800NNM   20220905114425    1W    00000040000001909700000000032DE    TVYEV-TV000000000000VT22A006
BI00B32DE    @TT2113        20221020181E50010ZZ              AVSSCS-S 0.5FX2 DGY/P    CCN000001800000001800FN00000000020221101000001800NNM   20220905114425    1W    00000030000003096000000000032DE    TVYEV-TV000000000000VT12A007
BI00B32DE    @TT2114        20221027181E50010ZZ              AVSSCS-S 0.5FX2 DGY/P    CCN000003300000003300FN00000000020221101000003300NNM   20220905114425    1W    00000030000003096000000000032DE    TVYEV-TV000000000000VT22A009
BI00B32DE    @TT2112        20221012181E50013ZZ              AVSSCS-S 0.5FX1 DGY/G    CCN000000400000000400FN00000000020221101000000400NNM   20220905114425    1W    00000040000001909700000000032DE    TVYEV-TV000000000000VT429004
BI00B32DE    @TT2113        20221020181E50013ZZ              AVSSCS-S 0.5FX1 DGY/G    CCN000000800000000800FN00000000020221101000000800NNM   20220905114425    1W    00000040000001909700000000032DE    TVYEV-TV000000000000VT12A003
BI00B32DE    @TT2114        20221027181E50013ZZ              AVSSCS-S 0.5FX1 DGY/G    CCN000000800000000800FN00000000020221101000000800NNM   20220905114425    1W    00000040000001909700000000032DE    TVYEV-TV000000000000VT22A005
BI00B32DE    @TT2111        20221006181E50027ZZ              AVSSCS-S 0.5FX3 DGY/G    CCN000007000000007000FN00000000020221101000007000NNM   20220905114425    1W    00000025000003265000000000032DE    TVYEV-TV000000000000VT329005
BI00B32DE    @TT2112        20221012181E50027ZZ              AVSSCS-S 0.5FX3 DGY/G    CCN000006750000006750FN00000000020221101000006750NNM   20220905114425    1W    00000025000003265000000000032DE    TVYEV-TV000000000000VT429009
BI00B32DE    @TT2113        20221020181E50027ZZ              AVSSCS-S 0.5FX3 DGY/G    CCN000006000000006000FN00000000020221101000006000NNM   20220905114425    1W    00000025000003265000000000032DE    TVYEV-TV000000000000VT12A009
BI00B32DE    @TT2114        20221027181E50027ZZ              AVSSCS-S 0.5FX3 DGY/G    CCN000004750000004750FN00000000020221101000004750NNM   20220905114425    1W    00000025000003265000000000032DE    TVYEV-TV000000000000VT22A011
BI00B32DE    @TT2112        20221012181E50028ZZ              AVSSCS-S 0.5FX3 DGY      CCN000005750000005750FN00000000020221101000005750NNM   20220905114425    1W    00000025000003265000000000032DE    TVYEV-TV000000000000VT429008
BI00B32DE    @TT2113        20221020181E50028ZZ              AVSSCS-S 0.5FX3 DGY      CCN000007000000007000FN00000000020221101000007000NNM   20220905114425    1W    00000025000003265000000000032DE    TVYEV-TV000000000000VT12A008
BI00B32DE    @TT2114        20221027181E50028ZZ              AVSSCS-S 0.5FX3 DGY      CCN000005750000005750FN00000000020221101000005750NNM   20220905114425    1W    00000025000003265000000000032DE    TVYEV-TV000000000000VT22A010
BI00B32DE    @TT2113        20221020181F21002ZZ              AVSSHCS-S 0.5FX1 B       CCN000000400000000400FN00000000020221101000000400NNM   20220905114425    1W    00000040000001908400000000032DE    TVYEV-TV000000000000VT12A011
BI00B32DE    @TT2114        20221027181F21002ZZ              AVSSHCS-S 0.5FX1 B       CCN000002400000002400FN00000000020221101000002400NNM   20220905114425    1W    00000040000001908400000000032DE    TVYEV-TV000000000000VT22A013
BI00B32DE    @TT2112        20221012181F21003ZZ              AVSSHCS-S 0.5FX1 B/W     CCN000006400000006400FN00000000020221101000006400NNM   20220905114425    1W    00000040000001908400000000032DE    TVYEV-TV000000000000VT429011
BI00B32DE    @TT2113        20221020181F21003ZZ              AVSSHCS-S 0.5FX1 B/W     CCN000009200000009200FN00000000020221101000009200NNM   20220905114425    1W    00000040000001908400000000032DE    TVYEV-TV000000000000VT12A013
BI00B32DE    @TT2114        20221027181F21003ZZ              AVSSHCS-S 0.5FX1 B/W     CCN000006400000006400FN00000000020221101000006400NNM   20220905114425    1W    00000040000001908400000000032DE    TVYEV-TV000000000000VT22A014
BI00B32DE    @TT2111        20221006181F21004ZZ              AVSSHCS-S 0.5FX1 B/R     CCN000000800000000800FN00000000020221101000000800NNM   20220905114425    1W    00000040000001908400000000032DE    TVYEV-TV000000000000VT329006
BI00B32DE    @TT2112        20221012181F21004ZZ              AVSSHCS-S 0.5FX1 B/R     CCN000000800000000800FN00000000020221101000000800NNM   20220905114425    1W    00000040000001908400000000032DE    TVYEV-TV000000000000VT429010
BI00B32DE    @TT2113        20221020181F21004ZZ              AVSSHCS-S 0.5FX1 B/R     CCN000000800000000800FN00000000020221101000000800NNM   20220905114425    1W    00000040000001908400000000032DE    TVYEV-TV000000000000VT12A012
BI00B32DE    @TT2112        20221012181F21006ZZ              AVSSHCS-S 0.5FX1 B/Y     CCN000000800000000800FN00000000020221101000000800NNM   20220905114425    1W    00000040000001908400000000032DE    TVYEV-TV000000000000VT429012
BI00B32DE    @TT2113        20221020181F21006ZZ              AVSSHCS-S 0.5FX1 B/Y     CCN000000800000000800FN00000000020221101000000800NNM   20220905114425    1W    00000040000001908400000000032DE    TVYEV-TV000000000000VT12A014
BI00B32DE    @TT2114        20221027181F21006ZZ              AVSSHCS-S 0.5FX1 B/Y     CCN000000800000000800FN00000000020221101000000800NNM   20220905114425    1W    00000040000001908400000000032DE    TVYEV-TV000000000000VT22A015
BI00B32DE    @TT2111        20221006181F21009ZZ              AVSSHCS-S 0.5FX2 B       CCN000008400000008400FN00000000020221101000008400NNM   20220905114425    1W    00000030000002531400000000032DE    TVYEV-TV000000000000VT329007
BI00B32DE    @TT2112        20221012181F21009ZZ              AVSSHCS-S 0.5FX2 B       CCN000008100000008100FN00000000020221101000008100NNM   20220905114425    1W    00000030000002531400000000032DE    TVYEV-TV000000000000VT429013
BI00B32DE    @TT2113        20221020181F21009ZZ              AVSSHCS-S 0.5FX2 B       CCN000008100000008100FN00000000020221101000008100NNM   20220905114425    1W    00000030000002531400000000032DE    TVYEV-TV000000000000VT12A015
BI00B32DE    @TT2114        20221027181F21009ZZ              AVSSHCS-S 0.5FX2 B       CCN000007500000007500FN00000000020221101000007500NNM   20220905114425    1W    00000030000002531400000000032DE    TVYEV-TV000000000000VT22A016
BI00B32DE    @TT2113        20221020181F21011ZZ              AVSSHCS-S 0.5FX2 B/R     CCN000000300000000300FN00000000020221101000000300NNM   20220905114425    1W    00000030000002531400000000032DE    TVYEV-TV000000000000VT12A019
BI00B32DE    @TT2114        20221027181F21011ZZ              AVSSHCS-S 0.5FX2 B/R     CCN000003300000003300FN00000000020221101000003300NNM   20220905114425    1W    00000030000002531400000000032DE    TVYEV-TV000000000000VT22A020
BI00B32DE    @TT2111        20221006181F21013ZZ              AVSSHCS-S 0.5FX2 B/Y     CCN000002400000002400FN00000000020221101000002400NNM   20220905114425    1W    00000030000002531400000000032DE    TVYEV-TV000000000000VT329010
BI00B32DE    @TT2112        20221012181F21013ZZ              AVSSHCS-S 0.5FX2 B/Y     CCN000003600000003600FN00000000020221101000003600NNM   20220905114425    1W    00000030000002531400000000032DE    TVYEV-TV000000000000VT429016
BI00B32DE    @TT2113        20221020181F21013ZZ              AVSSHCS-S 0.5FX2 B/Y     CCN000003300000003300FN00000000020221101000003300NNM   20220905114425    1W    00000030000002531400000000032DE    TVYEV-TV000000000000VT12A020
BI00B32DE    @TT2114        20221027181F21013ZZ              AVSSHCS-S 0.5FX2 B/Y     CCN000003000000003000FN00000000020221101000003000NNM   20220905114425    1W    00000030000002531400000000032DE    TVYEV-TV000000000000VT22A021
BI00B32DE    @TT2111        20221006181F21014ZZ              AVSSHCS-S 0.5FX2 B/L     CCN000002700000002700FN00000000020221101000002700NNM   20220905114425    1W    00000030000002531400000000032DE    TVYEV-TV000000000000VT329009
BI00B32DE    @TT2112        20221012181F21014ZZ              AVSSHCS-S 0.5FX2 B/L     CCN000002700000002700FN00000000020221101000002700NNM   20220905114425    1W    00000030000002531400000000032DE    TVYEV-TV000000000000VT429015
BI00B32DE    @TT2113        20221020181F21014ZZ              AVSSHCS-S 0.5FX2 B/L     CCN000002400000002400FN00000000020221101000002400NNM   20220905114425    1W    00000030000002531400000000032DE    TVYEV-TV000000000000VT12A017
BI00B32DE    @TT2114        20221027181F21014ZZ              AVSSHCS-S 0.5FX2 B/L     CCN000002400000002400FN00000000020221101000002400NNM   20220905114425    1W    00000030000002531400000000032DE    TVYEV-TV000000000000VT22A018
BI00B32DE    @TT2113        20221020181F21015ZZ              AVSSHCS-S 0.5FX2 B/P     CCN000000900000000900FN00000000020221101000000900NNM   20220905114425    1W    00000030000002531400000000032DE    TVYEV-TV000000000000VT12A018
BI00B32DE    @TT2114        20221027181F21015ZZ              AVSSHCS-S 0.5FX2 B/P     CCN000000600000000600FN00000000020221101000000600NNM   20220905114425    1W    00000030000002531400000000032DE    TVYEV-TV000000000000VT22A019
BI00B32DE    @TT2111        20221006181F21016ZZ              AVSSHCS-S 0.5FX2 B/BR    CCN000003600000003600FN00000000020221101000003600NNM   20220905114425    1W    00000030000002531400000000032DE    TVYEV-TV000000000000VT329008
BI00B32DE    @TT2112        20221012181F21016ZZ              AVSSHCS-S 0.5FX2 B/BR    CCN000003900000003900FN00000000020221101000003900NNM   20220905114425    1W    00000030000002531400000000032DE    TVYEV-TV000000000000VT429014
BI00B32DE    @TT2113        20221020181F21016ZZ              AVSSHCS-S 0.5FX2 B/BR    CCN000003600000003600FN00000000020221101000003600NNM   20220905114425    1W    00000030000002531400000000032DE    TVYEV-TV000000000000VT12A016
BI00B32DE    @TT2114        20221027181F21016ZZ              AVSSHCS-S 0.5FX2 B/BR    CCN000003300000003300FN00000000020221101000003300NNM   20220905114425    1W    00000030000002531400000000032DE    TVYEV-TV000000000000VT22A017
BI00B32DE    @TT2111        20221006181F21027ZZ              AVSSHCS-S 1.25FX2 B      CCN000003000000003000FN00000000020221101000003000NNM   20220905114425    1W    00000020000004267300000000032DE    TVYEV-TV000000000000VT329011
BI00B32DE    @TT2112        20221012181F21027ZZ              AVSSHCS-S 1.25FX2 B      CCN000002800000002800FN00000000020221101000002800NNM   20220905114425    1W    00000020000004267300000000032DE    TVYEV-TV000000000000VT429017
BI00B32DE    @TT2113        20221020181F21027ZZ              AVSSHCS-S 1.25FX2 B      CCN000002600000002600FN00000000020221101000002600NNM   20220905114425    1W    00000020000004267300000000032DE    TVYEV-TV000000000000VT12A021
BI00B32DE    @TT2114        20221027181F21027ZZ              AVSSHCS-S 1.25FX2 B      CCN000002200000002200FN00000000020221101000002200NNM   20220905114425    1W    00000020000004267300000000032DE    TVYEV-TV000000000000VT22A022
BI00B32DE    @TT2111        20221006181F21028ZZ              AVSSHCS-S 1.25FX2 B/R    CCN000001000000001000FN00000000020221101000001000NNM   20220905114425    1W    00000020000004267300000000032DE    TVYEV-TV000000000000VT329013
BI00B32DE    @TT2112        20221012181F21028ZZ              AVSSHCS-S 1.25FX2 B/R    CCN000002600000002600FN00000000020221101000002600NNM   20220905114425    1W    00000020000004267300000000032DE    TVYEV-TV000000000000VT429019
BI00B32DE    @TT2113        20221020181F21028ZZ              AVSSHCS-S 1.25FX2 B/R    CCN000002400000002400FN00000000020221101000002400NNM   20220905114425    1W    00000020000004267300000000032DE    TVYEV-TV000000000000VT12A023
BI00B32DE    @TT2114        20221027181F21028ZZ              AVSSHCS-S 1.25FX2 B/R    CCN000002200000002200FN00000000020221101000002200NNM   20220905114425    1W    00000020000004267300000000032DE    TVYEV-TV000000000000VT22A024
BI00B32DE    @TT2111        20221006181F21029ZZ              AVSSHCS-S 1.25FX2 B/Y    CCN000000400000000400FN00000000020221101000000400NNM   20220905114425    1W    00000020000004267300000000032DE    TVYEV-TV000000000000VT329014
BI00B32DE    @TT2112        20221012181F21029ZZ              AVSSHCS-S 1.25FX2 B/Y    CCN000001000000001000FN00000000020221101000001000NNM   20220905114425    1W    00000020000004267300000000032DE    TVYEV-TV000000000000VT429020
BI00B32DE    @TT2113        20221020181F21029ZZ              AVSSHCS-S 1.25FX2 B/Y    CCN000001000000001000FN00000000020221101000001000NNM   20220905114425    1W    00000020000004267300000000032DE    TVYEV-TV000000000000VT12A024
BI00B32DE    @TT2114        20221027181F21029ZZ              AVSSHCS-S 1.25FX2 B/Y    CCN000000800000000800FN00000000020221101000000800NNM   20220905114425    1W    00000020000004267300000000032DE    TVYEV-TV000000000000VT22A025
BI00B32DE    @TT2111        20221006181F21031ZZ              AVSSHCS-S 1.25FX2 B/P    CCN000000400000000400FN00000000020221101000000400NNM   20220905114425    1W    00000020000004267300000000032DE    TVYEV-TV000000000000VT329012
BI00B32DE    @TT2112        20221012181F21031ZZ              AVSSHCS-S 1.25FX2 B/P    CCN000000200000000200FN00000000020221101000000200NNM   20220905114425    1W    00000020000004267300000000032DE    TVYEV-TV000000000000VT429018
BI00B32DE    @TT2113        20221020181F21031ZZ              AVSSHCS-S 1.25FX2 B/P    CCN000000200000000200FN00000000020221101000000200NNM   20220905114425    1W    00000020000004267300000000032DE    TVYEV-TV000000000000VT12A022
BI00B32DE    @TT2114        20221027181F21031ZZ              AVSSHCS-S 1.25FX2 B/P    CCN000000200000000200FN00000000020221101000000200NNM   20220905114425    1W    00000020000004267300000000032DE    TVYEV-TV000000000000VT22A023
BI00B32DE    @TT2114        20221027181AD2002ZZ              CIVUSAS-S 0.35X2 B       CCN000003150000003150FN00000000020221101000003150NNM   20220905114425    1W    00000045000001713700000000032DE    TVYEV-TV000000000000VT22A003
BI00B32DE    @TT2112        20221012181AD2008ZZ              CIVUSAS-S 0.5X2 B        CCN000000400000000400FN00000000020221101000000400NNM   20220905114425    1W    00000040000002028000000000032DE    TVYEV-TV000000000000VT429002
BI00B32DG    @RH2111        20221006181E48048ZZ              CAVSAS-S 0.3X2 GY/O      CCN000004550000004550FN00000000020221101000004550NNM   20220905112831    1W    00000035000002008700000000032DG    BFSAIBF 000000000000GY329002
BI00B32DG    @RH2112        20221012181E48048ZZ              CAVSAS-S 0.3X2 GY/O      CCN000004550000004550FN00000000020221101000004550NNM   20220905112831    1W    00000035000002008700000000032DG    BFSAIBF 000000000000GY429002
BI00B32DG    @RH2113        20221020181E48048ZZ              CAVSAS-S 0.3X2 GY/O      CCN000004550000004550FN00000000020221101000004550NNM   20220905112831    1W    00000035000002008700000000032DG    BFSAIBF 000000000000GY12A002
BI00B32DG    @RH2114        20221027181E48048ZZ              CAVSAS-S 0.3X2 GY/O      CCN000003500000003500FN00000000020221101000003500NNM   20220905112831    1W    00000035000002008700000000032DG    BFSAIBF 000000000000GY22A001
BI00B32DG    @RH2111        20221006181E50009ZZ              AVSSCS-S 0.5FX2 DGY/W    CCN000000600000000600FN00000000020221101000000600NNM   20220905112831    1W    00000030000003096000000000032DG    BFSAIBF 000000000000GY329004
BI00B32DG    @RH2112        20221012181E50009ZZ              AVSSCS-S 0.5FX2 DGY/W    CCN000000600000000600FN00000000020221101000000600NNM   20220905112831    1W    00000030000003096000000000032DG    BFSAIBF 000000000000GY429004
BI00B32DG    @RH2113        20221020181E50009ZZ              AVSSCS-S 0.5FX2 DGY/W    CCN000000600000000600FN00000000020221101000000600NNM   20220905112831    1W    00000030000003096000000000032DG    BFSAIBF 000000000000GY12A004
BI00B32DG    @RH2114        20221027181E50009ZZ              AVSSCS-S 0.5FX2 DGY/W    CCN000000300000000300FN00000000020221101000000300NNM   20220905112831    1W    00000030000003096000000000032DG    BFSAIBF 000000000000GY22A003
BI00B32DG    @RH2111        20221006181E48010ZZ              CAVSAS-S 0.3X1 GY/R      CCN000001500000001500FN00000000020221101000001500NNM   20220905112831    1W    00000050000001529500000000032DG    BFSAIBF 000000000000GY329001
BI00B32DG    @RH2112        20221012181E48010ZZ              CAVSAS-S 0.3X1 GY/R      CCN000001500000001500FN00000000020221101000001500NNM   20220905112831    1W    00000050000001529500000000032DG    BFSAIBF 000000000000GY429001
BI00B32DG    @RH2113        20221020181E48010ZZ              CAVSAS-S 0.3X1 GY/R      CCN000001500000001500FN00000000020221101000001500NNM   20220905112831    1W    00000050000001529500000000032DG    BFSAIBF 000000000000GY12A001
BI00B32DG    @RH2111        20221006181E50016ZZ              AVSSCS-S 0.5FX2 DGY/R    CCN000001200000001200FN00000000020221101000001200NNM   20220905112831    1W    00000030000003096000000000032DG    BFSAIBF 000000000000GY329003
BI00B32DG    @RH2112        20221012181E50016ZZ              AVSSCS-S 0.5FX2 DGY/R    CCN000001200000001200FN00000000020221101000001200NNM   20220905112831    1W    00000030000003096000000000032DG    BFSAIBF 000000000000GY429003
BI00B32DG    @RH2113        20221020181E50016ZZ              AVSSCS-S 0.5FX2 DGY/R    CCN000001200000001200FN00000000020221101000001200NNM   20220905112831    1W    00000030000003096000000000032DG    BFSAIBF 000000000000GY12A003
BI00B32DG    @RH2114        20221027181E50016ZZ              AVSSCS-S 0.5FX2 DGY/R    CCN000001200000001200FN00000000020221101000001200NNM   20220905112831    1W    00000030000003096000000000032DG    BFSAIBF 000000000000GY22A002
BI00B32DG    @RH2111        20221006181E50011ZZ              AVSSCS-S 0.5FX2 DGY/Y    CCN000003600000003600FN00000000020221101000003600NNM   20220905112831    1W    00000030000003096000000000032DG    BFSAIBF 000000000000GY329005
BI00B32DG    @RH2112        20221012181E50011ZZ              AVSSCS-S 0.5FX2 DGY/Y    CCN000003600000003600FN00000000020221101000003600NNM   20220905112831    1W    00000030000003096000000000032DG    BFSAIBF 000000000000GY429005
BI00B32DG    @RH2113        20221020181E50011ZZ              AVSSCS-S 0.5FX2 DGY/Y    CCN000003600000003600FN00000000020221101000003600NNM   20220905112831    1W    00000030000003096000000000032DG    BFSAIBF 000000000000GY12A005
BI00B32DG    @RH2114        20221027181E50011ZZ              AVSSCS-S 0.5FX2 DGY/Y    CCN000003600000003600FN00000000020221101000003600NNM   20220905112831    1W    00000030000003096000000000032DG    BFSAIBF 000000000000GY22A004
BI00B32DG    RW2111         202210061801W006930              IVSSH 0.35F B            CCN000027500000027500FN00000000020221101000027500NNM   20220905112832    1W    00000250000000452000000000032DG    BFSAIBF 000000000000GZ329028
BI00B32DG    RW2112         202210121801W006930              IVSSH 0.35F B            CCN000027500000027500FN00000000020221101000027500NNM   20220905112832    1W    00000250000000452000000000032DG    BFSAIBF 000000000000GZ429025
BI00B32DG    RW2113         202210201801W006930              IVSSH 0.35F B            CCN000027500000027500FN00000000020221101000027500NNM   20220905112832    1W    00000250000000452000000000032DG    BFSAIBF 000000000000GZ12A021
BI00B32DG    RW2114         202210271801W006930              IVSSH 0.35F B            CCN000022500000022500FN00000000020221101000022500NNM   20220905112832    1W    00000250000000452000000000032DG    BFSAIBF 000000000000GZ22A014
BI00B32DG    RW2111         202210061801W00695U              IVSSH 0.35F BE           CCN000025000000025000FN00000000020221101000025000NNM   20220905112832    1W    00000250000000452000000000032DG    BFSAIBF 000000000000GZ329029
BI00B32DG    RW2112         202210121801W00695U              IVSSH 0.35F BE           CCN000025000000025000FN00000000020221101000025000NNM   20220905112832    1W    00000250000000452000000000032DG    BFSAIBF 000000000000GZ429026
BI00B32DG    RW2113         202210201801W00695U              IVSSH 0.35F BE           CCN000025000000025000FN00000000020221101000025000NNM   20220905112832    1W    00000250000000452000000000032DG    BFSAIBF 000000000000GZ12A022
BI00B32DG    RW2114         202210271801W00695U              IVSSH 0.35F BE           CCN000020000000020000FN00000000020221101000020000NNM   20220905112832    1W    00000250000000452000000000032DG    BFSAIBF 000000000000GZ22A015
BI00B32DG    RW2111         202210061801W006980              IVSSH 0.35F BR           CCN000027500000027500FN00000000020221101000027500NNM   20220905112832    1W    00000250000000452000000000032DG    BFSAIBF 000000000000GZ329030
BI00B32DG    RW2112         202210121801W006980              IVSSH 0.35F BR           CCN000027500000027500FN00000000020221101000027500NNM   20220905112832    1W    00000250000000452000000000032DG    BFSAIBF 000000000000GZ429027
BI00B32DG    RW2113         202210201801W006980              IVSSH 0.35F BR           CCN000027500000027500FN00000000020221101000027500NNM   20220905112832    1W    00000250000000452000000000032DG    BFSAIBF 000000000000GZ12A023
BI00B32DG    RW2114         202210271801W006980              IVSSH 0.35F BR           CCN000020000000020000FN00000000020221101000020000NNM   20220905112832    1W    00000250000000452000000000032DG    BFSAIBF 000000000000GZ22A016
BI00B32DG    RW2111         202210061801W006960              IVSSH 0.35F G            CCN000037500000037500FN00000000020221101000037500NNM   20220905112832    1W    00000250000000452000000000032DG    BFSAIBF 000000000000GZ329031
BI00B32DG    RW2112         202210121801W006960              IVSSH 0.35F G            CCN000037500000037500FN00000000020221101000037500NNM   20220905112832    1W    00000250000000452000000000032DG    BFSAIBF 000000000000GZ429028
BI00B32DG    RW2113         202210201801W006960              IVSSH 0.35F G            CCN000037500000037500FN00000000020221101000037500NNM   20220905112832    1W    00000250000000452000000000032DG    BFSAIBF 000000000000GZ12A024
BI00B32DG    RW2114         202210271801W006960              IVSSH 0.35F G            CCN000037500000037500FN00000000020221101000037500NNM   20220905112832    1W    00000250000000452000000000032DG    BFSAIBF 000000000000GZ22A017
BI00B32DG    RW2111         202210061801W006941              IVSSH 0.35F GY           CCN000032500000032500FN00000000020221101000032500NNM   20220905112832    1W    00000250000000452000000000032DG    BFSAIBF 000000000000GZ329032
BI00B32DG    RW2112         202210121801W006941              IVSSH 0.35F GY           CCN000032500000032500FN00000000020221101000032500NNM   20220905112832    1W    00000250000000452000000000032DG    BFSAIBF 000000000000GZ429029
BI00B32DG    RW2113         202210201801W006941              IVSSH 0.35F GY           CCN000032500000032500FN00000000020221101000032500NNM   20220905112832    1W    00000250000000452000000000032DG    BFSAIBF 000000000000GZ12A025
BI00B32DG    RW2114         202210271801W006941              IVSSH 0.35F GY           CCN000030000000030000FN00000000020221101000030000NNM   20220905112832    1W    00000250000000452000000000032DG    BFSAIBF 000000000000GZ22A018
BI00B32DG    RW2111         202210061801W006990              IVSSH 0.35F L            CCN000057500000057500FN00000000020221101000057500NNM   20220905112832    1W    00000250000000452000000000032DG    BFSAIBF 000000000000GZ329033
BI00B32DG    RW2112         202210121801W006990              IVSSH 0.35F L            CCN000057500000057500FN00000000020221101000057500NNM   20220905112832    1W    00000250000000452000000000032DG    BFSAIBF 000000000000GZ429030
BI00B32DG    RW2113         202210201801W006990              IVSSH 0.35F L            CCN000057500000057500FN00000000020221101000057500NNM   20220905112832    1W    00000250000000452000000000032DG    BFSAIBF 000000000000GZ12A026
BI00B32DG    RW2114         202210271801W006990              IVSSH 0.35F L            CCN000050000000050000FN00000000020221101000050000NNM   20220905112832    1W    00000250000000452000000000032DG    BFSAIBF 000000000000GZ22A019
BI00B32DG    RW2111         202210061801W006961              IVSSH 0.35F LG           CCN000030000000030000FN00000000020221101000030000NNM   20220905112832    1W    00000250000000452000000000032DG    BFSAIBF 000000000000GZ329034
BI00B32DG    RW2112         202210121801W006961              IVSSH 0.35F LG           CCN000030000000030000FN00000000020221101000030000NNM   20220905112832    1W    00000250000000452000000000032DG    BFSAIBF 000000000000GZ429031
BI00B32DG    RW2113         202210201801W006961              IVSSH 0.35F LG           CCN000030000000030000FN00000000020221101000030000NNM   20220905112832    1W    00000250000000452000000000032DG    BFSAIBF 000000000000GZ12A027
BI00B32DG    RW2114         202210271801W006961              IVSSH 0.35F LG           CCN000030000000030000FN00000000020221101000030000NNM   20220905112832    1W    00000250000000452000000000032DG    BFSAIBF 000000000000GZ22A020
BI00B32DG    RW2111         202210061801W006952              IVSSH 0.35F P            CCN000040000000040000FN00000000020221101000040000NNM   20220905112832    1W    00000250000000452000000000032DG    BFSAIBF 000000000000GZ329035
BI00B32DG    RW2112         202210121801W006952              IVSSH 0.35F P            CCN000040000000040000FN00000000020221101000040000NNM   20220905112832    1W    00000250000000452000000000032DG    BFSAIBF 000000000000GZ429032
BI00B32DG    RW2113         202210201801W006952              IVSSH 0.35F P            CCN000040000000040000FN00000000020221101000040000NNM   20220905112832    1W    00000250000000452000000000032DG    BFSAIBF 000000000000GZ12A028
BI00B32DG    RW2114         202210271801W006952              IVSSH 0.35F P            CCN000035000000035000FN00000000020221101000035000NNM   20220905112832    1W    00000250000000452000000000032DG    BFSAIBF 000000000000GZ22A021
BI00B32DG    RW2111         202210061801W006950              IVSSH 0.35F R            CCN000045000000045000FN00000000020221101000045000NNM   20220905112832    1W    00000250000000452000000000032DG    BFSAIBF 000000000000GZ329036
BI00B32DG    RW2112         202210121801W006950              IVSSH 0.35F R            CCN000045000000045000FN00000000020221101000045000NNM   20220905112832    1W    00000250000000452000000000032DG    BFSAIBF 000000000000GZ429033
BI00B32DG    RW2113         202210201801W006950              IVSSH 0.35F R            CCN000045000000045000FN00000000020221101000045000NNM   20220905112832    1W    00000250000000452000000000032DG    BFSAIBF 000000000000GZ12A029
BI00B32DG    RW2114         202210271801W006950              IVSSH 0.35F R            CCN000045000000045000FN00000000020221101000045000NNM   20220905112832    1W    00000250000000452000000000032DG    BFSAIBF 000000000000GZ22A022
BI00B32DG    RW2111         202210061801W006991              IVSSH 0.35F SB           CCN000047500000047500FN00000000020221101000047500NNM   20220905112832    1W    00000250000000452000000000032DG    BFSAIBF 000000000000GZ329037
BI00B32DG    RW2112         202210121801W006991              IVSSH 0.35F SB           CCN000047500000047500FN00000000020221101000047500NNM   20220905112832    1W    00000250000000452000000000032DG    BFSAIBF 000000000000GZ429034
BI00B32DG    RW2113         202210201801W006991              IVSSH 0.35F SB           CCN000047500000047500FN00000000020221101000047500NNM   20220905112832    1W    00000250000000452000000000032DG    BFSAIBF 000000000000GZ12A030
BI00B32DG    RW2114         202210271801W006991              IVSSH 0.35F SB           CCN000045000000045000FN00000000020221101000045000NNM   20220905112832    1W    00000250000000452000000000032DG    BFSAIBF 000000000000GZ22A023
BI00B32DG    RW2111         202210061801W006992              IVSSH 0.35F V            CCN000057500000057500FN00000000020221101000057500NNM   20220905112832    1W    00000250000000452000000000032DG    BFSAIBF 000000000000GZ329038
