BI00B1200    2399T52917     202209297287-9323                UNSEALED HOUSING SUB     CCN000012000000012000FN00000000020221101000012000NNMD0020220905154606    1N0N  0000024000000053760000069001200    YCYC    005600390023
BI00B1200    2399T52919     202210067287-9323                UNSEALED HOUSING SUB     CCN000009600000009600FN00000000020221101000009600NNMD0020220905154857    1N0N  0000024000000053760000069001200    YCYC    005600390023
BI00B1200    2399T52917     202209297287-9323-30             UNSEALED HOUSING SUB     CCN000002400000002400FN00000000020221101000002400NNMD0020220905154621    1N0N  0000024000000053760000069001200    YCYC    005600390023
BI00B1200    2399T52917     202209227289-5979-30             HOUSING FEMALE ASS'Y     CCN000032760000032760FN00000000020221101000032760NNMD0020220905132245    1N0N  0000002520000085470000106471200    YCYC    005400370024
BI00B1200    2399T52918     202209227289-5979-30             HOUSING FEMALE ASS'Y     CCN000032760000032760FN00000000020221101000032760NNMD0020220905132245    1N0N  0000002520000085470000106471200    YCYC    005400370024
BI00B1200    2399T52919     202209227289-5979-30             HOUSING FEMALE ASS'Y     CCN000032760000032760FN00000000020221101000032760NNMD0020220905132245    1N0N  0000002520000085470000106471200    YCYC    005400370024
BI00B1200    2399T52917     202209297289-6159-30             HOUSING FEMALE ASS'Y     CCN000001440000001440FN00000000020221101000001440NNMD0020220905154648    4N0N  0000002400000109500000137501200    YCYC    005500360039
BI00B1200    2399T52919     202210067289-6159-30             HOUSING FEMALE ASS'Y     CCN000001200000001200FN00000000020221101000001200NNMD0020220905154917    4N0N  0000002400000109500000137501200    YCYC    005500360039
BI00B1200    2399T52917     202209297289-6523-30             HOUSING FEMALE ASS'Y     CCN000005280000005280FN00000000020221101000005280NNMD0020220905154707    4N0N  0000002400000129050000162051200    YCYC    005500360039
BI00B1200    2399T52919     202210067289-6523-30             HOUSING FEMALE ASS'Y     CCN000005280000005280FN00000000020221101000005280NNMD0020220905154935    4N0N  0000002400000129050000162051200    YCYC    005500360039
BI00B1200    2399T52919     202210067289-6524-30             HOUSING FEMALE ASS'Y     CCN000001920000001920FN00000000020221101000001920NNMD0020220905154952    4N0N  0000002400000135120000166621200    YCYC    005500360039
BI00B1200    2399T52917     202209087289-6547                HOUSING FEMALE ASS'Y     CCN000218400000218400FN00000000020221101000218400NNMD0020220905145156    1N0N  0000024000000115200000136201200    YCYC    005500360039
BI00B1200    2399T52918     202209087289-6547                HOUSING FEMALE ASS'Y     CCN000218400000218400FN00000000020221101000218400NNMD0020220905145815    1N0N  0000024000000115200000136201200    YCYC    005500360039
BI00B1200    2399T52917     202209297289-7212-30             HOUSING FEMALE ASS'Y     CCN000004320000004320FN00000000020221101000004320NNMD0020220905154728    4N0N  0000002400000138840000159341200    YCYC    005500360039
BI00B1200    2399T52919     202210067289-7212-30             HOUSING FEMALE ASS'Y     CCN000004320000004320FN00000000020221101000004320NNMD0020220905155013    4N0N  0000002400000138840000159341200    YCYC    005500360039
BI00B1200    2399T52917     202209297289-9612-30             HOUSING FEMALE ASS'Y     CCN000001680000001680FN00000000020221101000001680NNMD0020220905154751    4N0N  0000002400000134880000166881200    YCYC    005500360039
BI00B1200    2399T52919     202210067289-9612-30             HOUSING FEMALE ASS'Y     CCN000001440000001440FN00000000020221101000001440NNMD0020220905155029    4N0N  0000002400000134880000166881200    YCYC    005500360039
BI00B1200    2399T52917     202209297289-9613-30             HOUSING FEMALE ASS'Y     CCN000003840000003840FN00000000020221101000003840NNMD0020220905154811    4N0N  0000002400000126990000154371200    YCYC    005500360039
BI00B1200    2399T52920     202209227289-5979-30             HOUSING FEMALE ASS'Y     CCN000032760000032760FN00000000020221101000032760NNMD0020220905132245    1N0N  0000002520000085470000106471200    YCYC    005400370024
BI00B1200    2399T52925     202211107116-4100-02             TERMINAL                 CCN000105000000105000FN00000000020221201000105000NNED0020220905144445    4P0P  0000150000000069600000099021200    YCYC    006400630015
BI00B1200    CE22-MN-0102   202209297283-5532-40             CONNECTOR                CCN000002000000002000FN00000000020220901000002000NNED0720220905132245    4N0N  0000020000000089500000109401200    YCYC    005500360039
BI00B1200    CE22-MN-0102   202209297283-5534-60             CONNECTOR                CCN000001600000001600FN00000000020220901000001600NNED0720220905132245    4N0N  0000016000000135500000159601200    YCYC    005600390040
BI00A1200    TAPC-220905    202209097196-1326-02             TERMINAL FEMALE          CCN000060000000060000FN00000000020220901000060000NNE   20220905152311    4P0P  0000600000000045600000078471200    YCYC    006400630017
BI00A1200    TAPC-220905    202209097196-1103-02             TERMINAL                 CCN000022500000022500FN00000000020220901000022500NNE   20220905152311    4P0P  0000225000000042980000071501200    YCYC    006400630015
BI00A1200    #TAPC-220905   202209097172-5628-80             DUMMY PLUG               CCN000020000000020000FN00000000020220901000020000NNE   20220905152257    2H0H  0000200000000011060000016201200    YCYC    004300270014
BI00A1200    #TAPC-220905   202209097172-5625-90             RUBBER STOPPER           CCN000020000000020000FN00000000020220901000020000NNE   20220905152257    2H0H  0000200000000008240000013381200    YCYC    004300270014
BI00B32AF    JTB2103        202209097298-2508-30             HOUSING FEMALE ASS'Y     CCN000003600000003600FN00000000020221001000003600NNMD0020220905164946    4N0N  00000120000000822000001005032AF    HBYHVTB 005500360039
BI00B32AF    JTB210E        202209097298-2508-30             HOUSING FEMALE ASS'Y     CCN000004800000004800FN00000000020221001000004800NNED0020220905164858    4N0N  00000120000000822000001005032AF    HBYHVTB 005500360039
BI00B32B1    #A22047        202210287157-3821                RUBBER STOPPER           CCN000020000000020000FN00000000020230101000020000NNM   20220905132245B1  2C0C  00002000000000176000000238032B1    AXARNE-M002700430014
BI00B32B1    #A22047        202210287283-8226-30             CONNECTOR                CCN000010000000010000FN00000000020230101000010000NNM   20220905132245B1  2N0N  00000200000000820000001008032B1    AXARNE-M005400370024
BI00B32B7    A82047         202210287158-3166-60             WIRE SEAL                CCN000040000000040000FN00000000020230101000040000NNM   20220905132245B7  1C0C  00004000000000104000000152432B7    AXARNE-M002700430014
BI00B32B7    A82047         202210287282-6448-40             CONNECTOR                CCN000011200000011200FN00000000020230101000011200NNM   20220905132245B7  4N0N  00000080000000887000001152732B7    AXARNE-M005600390040
BI00B32B7    #A82047        202210287158-3376-50             CONNECTOR WIRE SEAL      CCN000060000000060000FN00000000020230101000060000NNM   20220905132245B7  2C0C  00002000000000184000000240732B7    AXARNE-M002700430014
BI00B32B7    #A82047        202210287282-8395-40             CONNECTOR                CCN000002000000002000FN00000000020230101000002000NNM   20220905132245B7  2N0N  00000100000001009000001188032B7    AXARNE-M005500360039
BI00B32B7    #A82047        202210287283-8397-40             CONNECTOR                CCN000003080000003080FN00000000020230101000003080NNM   20220905132245B7  2N0N  00000154000001007000001222732B7    AXARNE-M005600390023
BI00B32B7    #A82047        202210287283-8398-40             CONNECTOR                CCN000006160000006160FN00000000020230101000006160NNM   20220905132245B7  2N0N  00000154000001007000001171332B7    AXARNE-M005600390023
BI00B32G0    TZ2210AEMW     202209277283-1289-40             CONNECTOR HOUSING        CCN000006600000006600FN00000000020221001000006600NNED0720220905132245    1N0N  00000060000000679800000824832G0    TTTJY   005400370024
BI00B32G0    TZ22125EMW     202211157114-4032                TERMINAL                 CCN000007500000007500FN00000000020221201000007500NNM   20220905132245    4P0P  00000750000000735000001063632G0    TTTJY   006400630017
BI00B32G0    TZ22121EMW     202210187114-4624-02             TERMINAL                 CCN000024000000024000FN00000000020221201000024000NNM   20220905132245    4P0P  00002400000000895200001188832G0    TTTJY   006400630015
BI00B32G0    TZ22122EMW     202210257114-4624-02             TERMINAL                 CCN000024000000024000FN00000000020221201000024000NNM   20220905132245    4P0P  00002400000000895200001188832G0    TTTJY   006400630015
BI00B32G0    TZ22124EMW     202211087114-5096-08             TERMINAL                 CCN000030000000030000FN00000000020221201000030000NNM   20220905132245    4P0P  00003000000000498000000792232G0    TTTJY   006400630015
BI00B32G0    TZ22122EMW     202210257114-5748-02             TERMINAL                 CCN000048000000048000FN00000000020221201000048000NNM   20220905132245    4P0P  00001200000000444000000737632G0    TTTJY   006400630015
BI00B32G0    TZ22123EMW     202211017114-5748-02             TERMINAL                 CCN000048000000048000FN00000000020221201000048000NNM   20220905132245    4P0P  00001200000000444000000737632G0    TTTJY   006400630015
BI00B32G0    TZ22124EMW     202211087114-5748-02             TERMINAL                 CCN000048000000048000FN00000000020221201000048000NNM   20220905132245    4P0P  00001200000000444000000737632G0    TTTJY   006400630015
BI00B32G0    TZ22123EMW     202211017114-6041                TERMINAL                 CCN000003600000003600FN00000000020221201000003600NNM   20220905132245    4P0P  00000360000000580700000824232G0    TTTJY   006400630015
BI00B32G0    TZ22124EMW     202211087114-6041                TERMINAL                 CCN000003600000003600FN00000000020221201000003600NNM   20220905132245    4P0P  00000360000000580700000824232G0    TTTJY   006400630015
BI00B32G0    TZ22121EMW     202210187116-1685-02             TERMINAL                 CCN000024000000024000FN00000000020221201000024000NNM   20220905132245    4P0P  00002400000000897600001065232G0    TTTJY   005100280028
BI00B32G0    TZ22122EMW     202210257116-1685-02             TERMINAL                 CCN000024000000024000FN00000000020221201000024000NNM   20220905132245    4P0P  00002400000000897600001065232G0    TTTJY   005100280028
BI00B32G0    TZ22123EMW     202211017116-1685-02             TERMINAL                 CCN000024000000024000FN00000000020221201000024000NNM   20220905132245    4P0P  00002400000000897600001065232G0    TTTJY   005100280028
BI00B32G0    TZ22121EMW     202210187116-1686-02             TERMINAL                 CCN000021000000021000FN00000000020221201000021000NNM   20220905132245    4P0P  00002100000000869400001021632G0    TTTJY   005100280028
BI00B32G0    TZ22121EMW     202210187116-3153-08             TERMINAL                 CCN000081000000081000FN00000000020221201000081000NNM   20220905132245    4P0P  00002700000000461700000746932G0    TTTJY   006400630015
BI00B32G0    TZ22122EMW     202210257116-3153-08             TERMINAL                 CCN000081000000081000FN00000000020221201000081000NNM   20220905132245    4P0P  00002700000000461700000746932G0    TTTJY   006400630015
BI00B32G0    TZ22123EMW     202211017116-3153-08             TERMINAL                 CCN000081000000081000FN00000000020221201000081000NNM   20220905132245    4P0P  00002700000000461700000746932G0    TTTJY   006400630015
BI00B32G0    TZ22121EMW     202210187116-3154-08             TERMINAL                 CCN000027000000027000FN00000000020221201000027000NNM   20220905132245    4P0P  00002700000000475200000760432G0    TTTJY   006400630015
BI00B32G0    TZ22122EMW     202210257116-3154-08             TERMINAL                 CCN000027000000027000FN00000000020221201000027000NNM   20220905132245    4P0P  00002700000000475200000760432G0    TTTJY   006400630015
BI00B32G0    TZ22123EMW     202211017116-5045-02             TERMINAL                 CCN000112000000112000FN00000000020221201000112000NNM   20220905132245    4P0P  00001600000000678400001007132G0    TTTJY   006400630017
BI00B32G0    TZ22124EMW     202211087116-5045-02             TERMINAL                 CCN000096000000096000FN00000000020221201000096000NNM   20220905132245    4P0P  00001600000000678400001007132G0    TTTJY   006400630017
BI00B32G0    TZ22121EMW     202210187116-5046-02             TERMINAL                 CCN000072000000072000FN00000000020221201000072000NNM   20220905132245    4P0P  00001200000000544800000873532G0    TTTJY   006400630017
BI00B32G0    TZ22122EMW     202210257116-5046-02             TERMINAL                 CCN000072000000072000FN00000000020221201000072000NNM   20220905132245    4P0P  00001200000000544800000873532G0    TTTJY   006400630017
BI00B32G0    TZ22123EMW     202211017116-5046-02             TERMINAL                 CCN000036000000036000FN00000000020221201000036000NNM   20220905132245    4P0P  00001200000000544800000873532G0    TTTJY   006400630017
BI00B32G0    TZ22123EMW     202211017116-6041                TERMINAL                 CCN000027000000027000FN00000000020221201000027000NNM   20220905132245    4P0P  00000450000000716000001009632G0    TTTJY   006400630015
BI00B32G0    TZ22123EMW     202211017116-6042                TERMINAL                 CCN000027000000027000FN00000000020221201000027000NNM   20220905132245    4P0P  00000300000000523800000856132G0    TTTJY   006400630015
BI00B32G0    TZ22124EMW     202211087116-6042                TERMINAL                 CCN000021000000021000FN00000000020221201000021000NNM   20220905132245    4P0P  00000300000000523800000856132G0    TTTJY   006400630015
BI00B32G0    TZ22121EMW     202210187126-8853-02             TERMINAL                 CCN000105000000105000FN00000000020221201000105000NNM   20220905132245    4P0P  00000750000000562500000847732G0    TTTJY   006400630015
BI00B32G0    TZ22122EMW     202210257126-8853-02             TERMINAL                 CCN000105000000105000FN00000000020221201000105000NNM   20220905132245    4P0P  00000750000000562500000847732G0    TTTJY   006400630015
BI00B32G0    TZ22123EMW     202211017126-8853-02             TERMINAL                 CCN000052500000052500FN00000000020221201000052500NNM   20220905132245    4P0P  00000750000000562500000847732G0    TTTJY   006400630015
BI00B32G0    TZ22121EMW     202210187158-3006-90             RUBBER STOPPER           CCN000060000000060000FN00000000020221201000060000NNM   20220905132245    1C0C  00002000000000330600000386032G0    TTTJY   002700430014
BI00B32G0    TZ22122EMW     202210257158-3006-90             RUBBER STOPPER           CCN000060000000060000FN00000000020221201000060000NNM   20220905132245    1C0C  00002000000000330600000386032G0    TTTJY   002700430014
BI00B32G0    TZ22123EMW     202211017158-3006-90             RUBBER STOPPER           CCN000060000000060000FN00000000020221201000060000NNM   20220905132245    1C0C  00002000000000330600000386032G0    TTTJY   002700430014
BI00B32G0    TZ22124EMW     202211087158-3006-90             RUBBER STOPPER           CCN000040000000040000FN00000000020221201000040000NNM   20220905132245    1C0C  00002000000000330600000386032G0    TTTJY   002700430014
BI00B32G0    TZ22121EMW     202210187158-3070-80             RUBBER STOPPER           CCN000080000000080000FN00000000020221201000080000NNM   20220905132245    1C0C  00004000000000276000000333332G0    TTTJY   002700430014
BI00B32G0    TZ22122EMW     202210257158-3070-80             RUBBER STOPPER           CCN000040000000040000FN00000000020221201000040000NNM   20220905132245    1C0C  00004000000000276000000333332G0    TTTJY   002700430014
BI00B32G0    TZ22123EMW     202211017158-3165-90             WIRE SEAL                CCN000040000000040000FN00000000020221201000040000NNM   20220905132245    1C0C  00004000000000124000000172432G0    TTTJY   004300270014
BI00B32G0    TZ22121EMW     202210187158-3166-60             WIRE SEAL                CCN000040000000040000FN00000000020221201000040000NNM   20220905132245    1C0C  00004000000000104000000152432G0    TTTJY   002700430014
BI00B32G0    TZ22125EMW     202211157158-3166-60             WIRE SEAL                CCN000040000000040000FN00000000020221201000040000NNM   20220905132245    1C0C  00004000000000104000000152432G0    TTTJY   002700430014
BI00B32G0    TZ22124EMW     202211087173-3291-40             LIF LEVER                CCN000002400000002400FN00000000020221201000002400NNM   20220905132245    1F0F  00000240000000867800001067832G0    TTTJY   005500360039
BI00B32G0    TZ22121EMW     202210187195-0783-08             TERMINAL                 CCN000030000000030000FN00000000020221201000030000NNM   20220905132245    4P0P  00003000000000507000000801232G0    TTTJY   006400630015
BI00B32G0    TZ22124EMW     202211087195-0783-08             TERMINAL                 CCN000030000000030000FN00000000020221201000030000NNM   20220905132245    4P0P  00003000000000507000000801232G0    TTTJY   006400630015
BI00B32G0    TZ22121EMW     202210187196-0396-02             TERMINAL                 CCN000015000000015000FN00000000020221201000015000NNM   20220905132245    4P0P  00001500000000949500001112932G0    TTTJY   002800510028
BI00B32G0    TZ22124EMW     202211087196-0396-02             TERMINAL                 CCN000015000000015000FN00000000020221201000015000NNM   20220905132245    4P0P  00001500000000949500001112932G0    TTTJY   002800510028
BI00B32G0    TZ22123EMW     202211017196-0510-02             TERMINAL                 CCN000048000000048000FN00000000020221201000048000NNM   20220905132245    4P0P  00002400000000871200001034632G0    TTTJY   002800510028
BI00B32G0    TZ22124EMW     202211087196-0510-02             TERMINAL                 CCN000048000000048000FN00000000020221201000048000NNM   20220905132245    4P0P  00002400000000871200001034632G0    TTTJY   002800510028
BI00B32G0    TZ22121EMW     202210187196-0805-02             TERMINAL FEMALE          CCN000022500000022500FN00000000020221201000022500NNM   20220905132245    4P0P  00002250000000558000000843232G0    TTTJY   006400630015
BI00B32G0    TZ22125EMW     202211157196-0805-02             TERMINAL FEMALE          CCN000022500000022500FN00000000020221201000022500NNM   20220905132245    4P0P  00002250000000558000000843232G0    TTTJY   006400630015
BI00B32G0    TZ22125EMW     202211157196-1325-02             TERMINAL FEMALE          CCN000060000000060000FN00000000020221201000060000NNM   20220905132245    4P0P  00006000000000450000000778732G0    TTTJY   006400630017
BI00B32G0    TZ22121EMW     202210187283-1289-40             CONNECTOR HOUSING        CCN000010200000010200FN00000000020221201000010200NNM   20220905132245    1N0N  00000060000000679800000824832G0    TTTJY   005400370024
BI00B32G0    TZ22122EMW     202210257283-1289-40             CONNECTOR HOUSING        CCN000010200000010200FN00000000020221201000010200NNM   20220905132245    1N0N  00000060000000679800000824832G0    TTTJY   005400370024
BI00B32G0    TZ22121EMW     202210187283-1928-80             CONNECTOR                CCN000008000000008000FN00000000020221201000008000NNM   20220905132245    4N0N  00000200000001180000001358332G0    TTTJY   005500360039
BI00B32G0    TZ22122EMW     202210257283-1928-80             CONNECTOR                CCN000006000000006000FN00000000020221201000006000NNM   20220905132245    4N0N  00000200000001180000001358332G0    TTTJY   005500360039
BI00B32G0    TZ22123EMW     202211017283-1928-80             CONNECTOR                CCN000006000000006000FN00000000020221201000006000NNM   20220905132245    4N0N  00000200000001180000001358332G0    TTTJY   005500360039
BI00B32G0    TZ22124EMW     202211087283-4855                CONNECTOR HOUSING        CCN000012000000012000FN00000000020221201000012000NNM   20220905132245    4N0N  00000240000001188400001400032G0    TTTJY   005500360039
BI00B32G0    TZ22125EMW     202211157283-4855                CONNECTOR HOUSING        CCN000019200000019200FN00000000020221201000019200NNM   20220905132245    4N0N  00000240000001188400001400032G0    TTTJY   005500360039
BI00B32G0    TZ22125EMW     202211157287-8999                HOUSING FEMALE ASS'Y     CCN000004800000004800FN00000000020221201000004800NNM   20220905132245    1N0N  00000480000001228800001448832G0    TTTJY   005500360039
BI00B32G0    TZ22122EMW     202210257287-9323-40             UNSEALED HOUSING SUB     CCN000002400000002400FN00000000020221201000002400NNM   20220905132245    1N0N  00000240000000537600000690032G0    TTTJY   005600390023
BI00B32G0    TZ22123EMW     202211017287-9323-40             UNSEALED HOUSING SUB     CCN000002400000002400FN00000000020221201000002400NNM   20220905132245    1N0N  00000240000000537600000690032G0    TTTJY   005600390023
BI00B32G0    TZ22125EMW     202211157288-6547                CONNECTOR MALE ASS'Y     CCN000012750000012750FN00000000020221201000012750NNM   20220905132245    4N0N  00000075000001205300001340332G0    TTTJY   005400370024
BI00B32G0    TZ22122EMW     202210257288-6598-70             HOUSING MALE ASS'Y       CCN000002880000002880FN00000000020221201000002880NNM   20220905132245    4N0N  00000144000001074200001429232G0    TTTJY   005500360039
BI00B32G0    TZ22123EMW     202211017288-6598-70             HOUSING MALE ASS'Y       CCN000001440000001440FN00000000020221201000001440NNM   20220905132245    4N0N  00000144000001074200001429232G0    TTTJY   005500360039
BI00B32G0    TZ22124EMW     202211087289-6518-30             HOUSING FEMALE ASS'Y     CCN000001200000001200FN00000000020221201000001200NNM   20220905132245    1N0N  00000120000000829200001049232G0    TTTJY   005500360039
BI00B32G0    TZ22125EMW     202211157289-6547                HOUSING FEMALE ASS'Y     CCN000004800000004800FN00000000020221201000004800NNM   20220905132245    1N0N  00000240000001152000001362032G0    TTTJY   005500360039
BI00B32G0    TZ22125EMW     202211157289-6597-70             HOUSING FEMALE ASS'Y     CCN000002160000002160FN00000000020221201000002160NNM   20220905132245    4N0N  00000216000001289500001539532G0    TTTJY   005500360039
BI00B32G0    TZ22121EMW     202210187295-0785-02             TERMINAL ALUMINIUM       CCN000025500000025500FN00000000020221201000025500NNM   20220905132245    4P0P  00002550000000510000000803632G0    TTTJY   006400630015
BI00B32G0    TZ22125EMW     202211157295-0785-02             TERMINAL ALUMINIUM       CCN000025500000025500FN00000000020221201000025500NNM   20220905132245    4P0P  00002550000000510000000803632G0    TTTJY   006400630015
BI00B32G0    TZ22121EMW     202210187296-0784-02             TERMINAL ALUMINIUM       CCN000024000000024000FN00000000020221201000024000NNM   20220905132245    4P0P  00002400000000480000000765232G0    TTTJY   006400630015
BI00B32G0    TZ22123EMW     202211017296-0784-02             TERMINAL ALUMINIUM       CCN000024000000024000FN00000000020221201000024000NNM   20220905132245    4P0P  00002400000000480000000765232G0    TTTJY   006400630015
BI00B32G0    TZ22121EMW     202210187327-6731-3W             BATTERY FUSE             CCN000004096000004096FN00000000020221201000004096NNM   20220905132245    4N0N  00000006400000697600000843032G0    TTTJY   005400370024
BI00B32G0    TZ22122EMW     202210257327-6731-3W             BATTERY FUSE             CCN000003840000003840FN00000000020221201000003840NNM   20220905132245    4N0N  00000006400000697600000843032G0    TTTJY   005400370024
BI00B32G0    TZ22123EMW     202211017327-6731-3W             BATTERY FUSE             CCN000003840000003840FN00000000020221201000003840NNM   20220905132245    4N0N  00000006400000697600000843032G0    TTTJY   005400370024
BI00B32G0    TZ22123EMW     202211017386-2747                CONNECTOR ASS'Y          CCN000002000000002000FN00000000020221201000002000NNM   20220905132245    4N0N  00000200000001162000001284532G0    TTTJY   005400370024
BI00B32G0    TZ22121EMW     202210187386-9155                CONNECTOR MALE ASS'Y     CCN000003600000003600FN00000000020221201000003600NNM   20220905132245    4N0N  00000060000001244400001369932G0    TTTJY   005400370024
BI00B32G0    TZ22122EMW     202210257386-9155                CONNECTOR MALE ASS'Y     CCN000003600000003600FN00000000020221201000003600NNM   20220905132245    4N0N  00000060000001244400001369932G0    TTTJY   005400370024
BI00B32G0    TZ22123EMW     202211017386-9155                CONNECTOR MALE ASS'Y     CCN000003600000003600FN00000000020221201000003600NNM   20220905132245    4N0N  00000060000001244400001369932G0    TTTJY   005400370024
BI00B32G0    TZ22121EMW     202210187388-2978-30             HOUSING MALE ASS'Y       CCN000012480000012480FN00000000020221201000012480NNM   20220905132245    1N0N  00000048000000742000001122032G0    TTTJY   005500360039
BI00B32G0    TZ22122EMW     202210257388-2978-30             HOUSING MALE ASS'Y       CCN000011520000011520FN00000000020221201000011520NNM   20220905132245    1N0N  00000048000000742000001122032G0    TTTJY   005500360039
BI00B32G0    TZ22123EMW     202211017388-2978-30             HOUSING MALE ASS'Y       CCN000011520000011520FN00000000020221201000011520NNM   20220905132245    1N0N  00000048000000742000001122032G0    TTTJY   005500360039
BI00B32G0    #TZ22121EMW    202210187154-5597-30             CASSETTE R/B             CCN000003200000003200FN00000000020221201000003200NNM   20220905132245    2F0F  00000080000000736000000952032G0    TTTJY   005500360039
BI00B32G0    #TZ22122EMW    202210257154-5597-30             CASSETTE R/B             CCN000002400000002400FN00000000020221201000002400NNM   20220905132245    2F0F  00000080000000736000000952032G0    TTTJY   005500360039
BI00B32G0    #TZ22125EMW    202211157157-6826-80             REAR HOLDER              CCN000015000000015000FN00000000020221201000015000NNM   20220905132245    2F0F  00001500000001234500001394132G0    TTTJY   005600390040
BI00B32G0    #TZ22121EMW    202210187158-3003-90             RUBBER STOPPER           CCN000080000000080000FN00000000020221201000080000NNM   20220905132245    2C0C  00002000000000250000000306032G0    TTTJY   002700430014
BI00B32G0    #TZ22122EMW    202210257158-3003-90             RUBBER STOPPER           CCN000080000000080000FN00000000020221201000080000NNM   20220905132245    2C0C  00002000000000250000000306032G0    TTTJY   002700430014
BI00B32G0    #TZ22123EMW    202211017158-3003-90             RUBBER STOPPER           CCN000060000000060000FN00000000020221201000060000NNM   20220905132245    2C0C  00002000000000250000000306032G0    TTTJY   002700430014
BI00B32G0    #TZ22125EMW    202211157158-3004-40             RUBBER STOPPER           CCN000040000000040000FN00000000020221201000040000NNM   20220905132245    2C0C  00002000000000234000000306332G0    TTTJY   002700430014
BI00B32G0    #TZ22121EMW    202210187158-3005-80             RUBBER STOPPER           CCN000040000000040000FN00000000020221201000040000NNM   20220905132245    2H0H  00002000000000210000000268732G0    TTTJY   002700430014
BI00B32G0    #TZ22122EMW    202210257158-3005-80             RUBBER STOPPER           CCN000040000000040000FN00000000020221201000040000NNM   20220905132245    2H0H  00002000000000210000000268732G0    TTTJY   002700430014
BI00B32G0    #TZ22123EMW    202211017158-3007-10             RUBBER STOPPER           CCN000060000000060000FN00000000020221201000060000NNM   20220905132245    2H0H  00002000000000308000000362732G0    TTTJY   002700430014
BI00B32G0    #TZ22121EMW    202210187158-3008-80             RUBBER STOPPER           CCN000040000000040000FN00000000020221201000040000NNM   20220905132245    2C0C  00002000000000288000000343032G0    TTTJY   004300270014
BI00B32G0    #TZ22122EMW    202210257158-3008-80             RUBBER STOPPER           CCN000040000000040000FN00000000020221201000040000NNM   20220905132245    2C0C  00002000000000288000000343032G0    TTTJY   004300270014
BI00B32G0    #TZ22123EMW    202211017158-3015-10             RUBBER STOPPER           CCN000010000000010000FN00000000020221201000010000NNM   20220905132245    2C0C  00001000000000419500000474032G0    TTTJY   002700430014
BI00B32G0    #TZ22121EMW    202210187158-3017                RUBBER STOPPER           CCN000030000000030000FN00000000020221201000030000NNM   20220905132245    2C0C  00001000000000375500000435032G0    TTTJY   002700430014
BI00B32G0    #TZ22122EMW    202210257158-3017                RUBBER STOPPER           CCN000020000000020000FN00000000020221201000020000NNM   20220905132245    2C0C  00001000000000375500000435032G0    TTTJY   002700430014
BI00B32G0    #TZ22123EMW    202211017158-3017                RUBBER STOPPER           CCN000020000000020000FN00000000020221201000020000NNM   20220905132245    2C0C  00001000000000375500000435032G0    TTTJY   002700430014
BI00B32G0    #TZ22122EMW    202210257172-5625-90             RUBBER STOPPER           CCN000020000000020000FN00000000020221201000020000NNM   20220905132245    2H0H  00002000000000082400000133832G0    TTTJY   004300270014
BI00B32G0    #TZ22121EMW    202210187172-5626-90             RUBBER STOPPER           CCN000060000000060000FN00000000020221201000060000NNM   20220905132245    2H0H  00002000000000076400000127832G0    TTTJY   004300270014
BI00B32G0    #TZ22122EMW    202210257172-5626-90             RUBBER STOPPER           CCN000060000000060000FN00000000020221201000060000NNM   20220905132245    2H0H  00002000000000076400000127832G0    TTTJY   004300270014
BI00B32G0    #TZ22123EMW    202211017172-5626-90             RUBBER STOPPER           CCN000060000000060000FN00000000020221201000060000NNM   20220905132245    2H0H  00002000000000076400000127832G0    TTTJY   004300270014
BI00B32G0    #TZ22124EMW    202211087172-5626-90             RUBBER STOPPER           CCN000040000000040000FN00000000020221201000040000NNM   20220905132245    2H0H  00002000000000076400000127832G0    TTTJY   004300270014
BI00B32G0    #TZ22122EMW    202210257172-5627-60             RUBBER STOPPER           CCN000020000000020000FN00000000020221201000020000NNM   20220905132245    2H0H  00002000000000070400000121832G0    TTTJY   004300270014
BI00B32G0    #TZ22124EMW    202211087172-5628-80             DUMMY PLUG               CCN000020000000020000FN00000000020221201000020000NNM   20220905132245    2H0H  00002000000000110600000162032G0    TTTJY   004300270014
BI00B32G0    #TZ22125EMW    202211157172-5629-80             RUBBER STOPPER           CCN000300000000300000FN00000000020221201000300000NNM   20220905132245    2H0H  00002000000000060000000111132G0    TTTJY   004300270014
BI00B32G0    #TZ22123EMW    202211017172-5630-40             RUBBER STOPPER           CCN000360000000360000FN00000000020221201000360000NNM   20220905132245    2H0H  00002000000000044000000095132G0    TTTJY   004300270014
BI00B32G0    #TZ22121EMW    202210187172-5631-60             RUBBER STOPPER           CCN000060000000060000FN00000000020221201000060000NNM   20220905132245    2H0H  00002000000000042000000093132G0    TTTJY   004300270014
BI00B32G0    #TZ22122EMW    202210257172-5631-60             RUBBER STOPPER           CCN000060000000060000FN00000000020221201000060000NNM   20220905132245    2H0H  00002000000000042000000093132G0    TTTJY   004300270014
BI00B32G0    #TZ22123EMW    202211017172-5631-60             RUBBER STOPPER           CCN000060000000060000FN00000000020221201000060000NNM   20220905132245    2H0H  00002000000000042000000093132G0    TTTJY   004300270014
BI00B32G0    #TZ22124EMW    202211087172-5631-60             RUBBER STOPPER           CCN000040000000040000FN00000000020221201000040000NNM   20220905132245    2H0H  00002000000000042000000093132G0    TTTJY   004300270014
BI00B32G0    #TZ22121EMW    202210187172-5632-10             DUMMY PLUG               CCN000140000000140000FN00000000020221201000140000NNM   20220905132245    2H0H  00002000000000080400000131832G0    TTTJY   004300270014
BI00B32G0    #TZ22122EMW    202210257172-5632-10             DUMMY PLUG               CCN000140000000140000FN00000000020221201000140000NNM   20220905132245    2H0H  00002000000000080400000131832G0    TTTJY   004300270014
BI00B32G0    #TZ22123EMW    202211017172-5632-10             DUMMY PLUG               CCN000120000000120000FN00000000020221201000120000NNM   20220905132245    2H0H  00002000000000080400000131832G0    TTTJY   004300270014
BI00B32G0    #TZ22125EMW    202211157183-1616                CONNECTOR HOUSING        CCN000002400000002400FN00000000020221201000002400NNM   20220905132245    2F0F  00000240000000557500000823332G0    TTTJY   005500360039
BI00B32G0    #TZ22124EMW    202211087183-2415                CONNECTOR HOUSING        CCN000004800000004800FN00000000020221201000004800NNM   20220905132245    2F0F  00000480000000798200001091432G0    TTTJY   005500360039
BI00B32G0    #TZ22124EMW    202211087183-2415-30             CONNECTOR HOUSING        CCN000004800000004800FN00000000020221201000004800NNM   20220905132245    2F0F  00000480000000798200001091432G0    TTTJY   005500360039
BI00B32G0    #TZ22121EMW    202210187189-2978-30             HOUSING FEMALE           CCN000018000000018000FN00000000020221201000018000NNM   20220905132245    2F0F  00000150000000966900001096932G0    TTTJY   005400370024
BI00B32G0    #TZ22122EMW    202210257189-2978-30             HOUSING FEMALE           CCN000007500000007500FN00000000020221201000007500NNM   20220905132245    2F0F  00000150000000966900001096932G0    TTTJY   005400370024
BI00B32G0    #TZ22123EMW    202211017189-2978-30             HOUSING FEMALE           CCN000007500000007500FN00000000020221201000007500NNM   20220905132245    2F0F  00000150000000966900001096932G0    TTTJY   005400370024
BI00B32G0    #TZ22124EMW    202211087189-2978-30             HOUSING FEMALE           CCN000007500000007500FN00000000020221201000007500NNM   20220905132245    2F0F  00000150000000966900001096932G0    TTTJY   005400370024
BI00B32G0    #TZ22121EMW    202210187189-3033                HOUSING FEMALE           CCN000004800000004800FN00000000020221201000004800NNM   20220905132245    2F0F  00000160000001211200001431232G0    TTTJY   005500360039
BI00B32G0    #TZ22122EMW    202210257189-3033                HOUSING FEMALE           CCN000004800000004800FN00000000020221201000004800NNM   20220905132245    2F0F  00000160000001211200001431232G0    TTTJY   005500360039
BI00B32G0    #TZ22125EMW    202211157189-3034-30             HOUSING FEMALE           CCN000001600000001600FN00000000020221201000001600NNM   20220905132245    2F0F  00000160000000972800001192832G0    TTTJY   005500360039
BI00B32G0    #TZ22121EMW    202210187189-3036                HOUSING FEMALE           CCN000003200000003200FN00000000020221201000003200NNM   20220905132245    2F0F  00000160000000921600001141632G0    TTTJY   005500360039
BI00B32G0    #TZ22122EMW    202210257189-3036                HOUSING FEMALE           CCN000001600000001600FN00000000020221201000001600NNM   20220905132245    2F0F  00000160000000921600001141632G0    TTTJY   005500360039
BI00B32G0    #TZ22121EMW    202210187198-4979-30             HOUSING FEMALE           CCN000004000000004000FN00000000020221201000004000NNM   20220905132245    2F0F  00000400000000707200000876032G0    TTTJY   005400370024
BI00B32G0    #TZ22122EMW    202210257198-4979-30             HOUSING FEMALE           CCN000004000000004000FN00000000020221201000004000NNM   20220905132245    2F0F  00000400000000707200000876032G0    TTTJY   005400370024
BI00B32G0    #TZ22123EMW    202211017198-4979-30             HOUSING FEMALE           CCN000004000000004000FN00000000020221201000004000NNM   20220905132245    2F0F  00000400000000707200000876032G0    TTTJY   005400370024
BI00B32G0    #TZ22124EMW    202211087198-4979-30             HOUSING FEMALE           CCN000004000000004000FN00000000020221201000004000NNM   20220905132245    2F0F  00000400000000707200000876032G0    TTTJY   005400370024
BI00B32G0    #TZ22121EMW    202210187198-4980-30             HOUSING FEMALE           CCN000002400000002400FN00000000020221201000002400NNM   20220905132245    2F0F  00000120000000840000000921032G0    TTTJY   005400370024
BI00B32G0    #TZ22122EMW    202210257198-4980-30             HOUSING FEMALE           CCN000001200000001200FN00000000020221201000001200NNM   20220905132245    2F0F  00000120000000840000000921032G0    TTTJY   005400370024
BI00B32G0    #TZ22121EMW    202210187287-9155                HOUSING FEMALE ASS'Y     CCN000004800000004800FN00000000020221201000004800NNM   20220905132245    2N0N  00000096000000853700001045232G0    TTTJY   005400370024
BI00B32G0    #TZ22122EMW    202210257287-9155                HOUSING FEMALE ASS'Y     CCN000001920000001920FN00000000020221201000001920NNM   20220905132245    2N0N  00000096000000853700001045232G0    TTTJY   005400370024
BI00B32G0    #TZ22123EMW    202211017287-9155                HOUSING FEMALE ASS'Y     CCN000001920000001920FN00000000020221201000001920NNM   20220905132245    2N0N  00000096000000853700001045232G0    TTTJY   005400370024
BI00B32G0    #TZ22124EMW    202211087287-9155                HOUSING FEMALE ASS'Y     CCN000001920000001920FN00000000020221201000001920NNM   20220905132245    2N0N  00000096000000853700001045232G0    TTTJY   005400370024
BI00B32G0    @TZ22121EMW    202210187286-4098                CONNECTOR MALE ASS'Y     CCN000006400000006400FN00000000020221201000006400NNM   20220905132245    3N0N  00000160000000949100001163032G0    TTTJY   005500360039
BI00B32G0    @TZ22122EMW    202210257286-4098                CONNECTOR MALE ASS'Y     CCN000006400000006400FN00000000020221201000006400NNM   20220905132245    3N0N  00000160000000949100001163032G0    TTTJY   005500360039
BI00B32G0    @TZ22123EMW    202211017286-4098                CONNECTOR MALE ASS'Y     CCN000006400000006400FN00000000020221201000006400NNM   20220905132245    3N0N  00000160000000949100001163032G0    TTTJY   005500360039
BI00B32G0    @TZ22124EMW    202211087286-4098                CONNECTOR MALE ASS'Y     CCN000004800000004800FN00000000020221201000004800NNM   20220905132245    3N0N  00000160000000949100001163032G0    TTTJY   005500360039
BI00B32G0    @TZ22124EMW    202211087287-4098-40             CONNECTOR FEMALE         CCN000002400000002400FN00000000020221201000002400NNM   20220905132245    3N0N  00000240000000672500000908032G0    TTTJY   005500360039
BI00B32G2    SA22101JMW     202209077196-1946-02             TERMINAL FEMALE          CCN000027000000027000FN00000000020221001000027000NNMD0020220905133354    4P0P  00000900000000405000000690232G2    AISUAI  006400630015
BI00B32G2    SA2210A MW     202209217B58-3070-80             RUBBER STOPPER           CCN000040000000040000FN00000000020221001000040000NNED0720220905132245    1C0C  00004000000000276000000333032G2    AISUAI  004300270014
BI00B32G2    SA2210A MW     202209217116-1180                TERMINAL                 CCN000039000000039000FN00000000020221001000039000NNED0720220905132245    1P0P  00001950000000618200000903432G2    AISUAI  006400630015
BI00B32G2    SA2210A MW     202209217116-1685-02             TERMINAL                 CCN000024000000024000FN00000000020221001000024000NNED0720220905132245    4P0P  00002400000000897600001065232G2    AISUAI  005100280028
BI00B32G2    SA2210A MW     202209217116-1686-02             TERMINAL                 CCN000042000000042000FN00000000020221001000042000NNED0720220905132245    4P0P  00002100000000869400001021632G2    AISUAI  005100280028
BI00B32G2    SA2210A MW     202209217116-1688-02             TERMINAL FEMALE          CCN000021000000021000FN00000000020221001000021000NNED0720220905132245    4P0P  00002100000000299600000898832G2    AISUAI  005100280028
BI00B32G2    SA2210A MW     202209217116-2892-02             TERMINAL                 CCN000012000000012000FN00000000020221001000012000NNED0720220905132245    4P0P  00001200000000818400000981832G2    AISUAI  005100280028
BI00B32G2    SA2210A MW     202209217116-4415-02             TERMINAL                 CCN000038000000038000FN00000000020221001000038000NNED0720220905132245    4P0P  00003800000000596600000925732G2    AISUAI  006400630017
BI00B32G2    SA2210A MW     202209217196-1103-02             TERMINAL                 CCN000022500000022500FN00000000020221001000022500NNED0720220905132245    4P0P  00002250000000429800000715032G2    AISUAI  006400630015
BI00B32G2    SA2210A MW     202209217283-1289                CONNECTOR HOUSING        CCN000000600000000600FN00000000020221001000000600NNED0720220905132245    1N0N  00000060000000676200000817632G2    AISUAI  005400370024
BI00B32G2    #SA2210A MW    202209217123-6347                CONNECTOR HOUSING        CCN000001600000001600FN00000000020221001000001600NNED0720220905132245    2F0F  00000160000000647000000904832G2    AISUAI  005500360039
BI00B32G2    SA2210AHMW     202209217C89-6868-30             SEALED ASSY FEMALE       CCN000002520000002520FN00000000020221001000002520NNED0720220905132245    4N0N  00000252000000839200001119232G2    AISUAI  005500360039
BI00B32G2    SA2210AHMW     202209217183-8256-40             HOUSING                  CCN000002400000002400FN00000000020221001000002400NNED0720220905132245    1F0F  00000120000000937000001045732G2    AISUAI  005500360039
BI00B32G2    SA2210AHMW     202209217183-8257-40             HOUSING                  CCN000002400000002400FN00000000020221001000002400NNED0720220905132245    1F0F  00000120000001028000001117032G2    AISUAI  005500360039
BI00B32G2    SA2210AHMW     202209217298-1853-10             HOUSING FEMALE ASS'Y     CCN000003900000003900FN00000000020221001000003900NNED0720220905132245    4N00  00000390000001240500001405832G2    AISUAI  005400370024
BI00B32G2    SA2210AHMW     202209217298-4094-10             HOUSING FEMALE ASS'Y     CCN000003380000003380FN00000000020221001000003380NNED0720220905132245    4N0N  00000338000001097400001358732G2    AISUAI  005400370024
BI00B32G2    SA2210AHMW     202209217388-0313-30             CONNECTOR ASS'Y          CCN000001200000001200FN00000000020221001000001200NNED0720220905132245    4N0N  00000120000000995000001125032G2    AISUAI  005400370024
BI00B32G2    #SA2210AHMW    202209217035-0023-30             DASH GROMMET             CCN000001320000001320FN00000000020221001000001320NNED0720220905132245    2H0H  00000006000000438000000561032G2    AISUAI  005600390040
BI00B32G2    #SA2210AHMW    202209217035-7982-30             DASH GROMMET             CCN000001800000001800FN00000000020221001000001800NNED0720220905132245    2H0H  00000012000001056000001179032G2    AISUAI  005600390040
BI00B32G2    #SA2210AHMW    202209217183-8254-40             HOUSING                  CCN000002400000002400FN00000000020221001000002400NNED0720220905132245    2F0F  00000240000000776000001076332G2    AISUAI  005500360039
BI00B32G2    SA2210AJMW     202209217126-8891-02             FUSE TERMINAL            CCN000006000000006000FN00000000020221001000006000NNED0720220905132245    4P0P  00000600000000481800000767032G2    AISUAI  006400630015
BI00B32G2    SA2210AJMW     202209217195-1933-02             TERMINAL MALE            CCN000024000000024000FN00000000020221001000024000NNED0720220905132245    4P0P  00002400000000777600001071232G2    AISUAI  006400630015
BI00B32G2    SA2210AJMW     202209217196-1933-02             TERMINAL FEMALE          CCN000021000000021000FN00000000020221001000021000NNED0720220905132245    4P0P  00002100000000590100000875332G2    AISUAI  006400630015
BI00B32G2    SA2210AJMW     202209217196-1934-02             TERMINAL FEMALE          CCN000019500000019500FN00000000020221001000019500NNED0720220905132245    4P0P  00001950000000561600000846832G2    AISUAI  006400630015
BI00B32G2    SA2210AJMW     202209217196-1941-02             TERMINAL FEMALE          CCN000011400000011400FN00000000020221001000011400NNED0720220905132245    4P0P  00001140000000506200000794432G2    AISUAI  006400630015
BI00B32G2    SA22111 MW     202210057B58-3070-80             RUBBER STOPPER           CCN000040000000040000FN00000000020221101000040000NNM   20220905132245    1C0C  00004000000000276000000333032G2    AISUAI  004300270014
BI00B32G2    SA22112 MW     202210127B58-3070-80             RUBBER STOPPER           CCN000040000000040000FN00000000020221101000040000NNM   20220905132245    1C0C  00004000000000276000000333032G2    AISUAI  004300270014
BI00B32G2    SA22111 MW     202210057017-1180-02             TERMINAL                 CCN000144000000144000FN00000000020221101000144000NNM   20220905132245    4P0P  00007200000001065600001229032G2    AISUAI  005100280028
BI00B32G2    SA22112 MW     202210127017-1180-02             TERMINAL                 CCN000144000000144000FN00000000020221101000144000NNM   20220905132245    4P0P  00007200000001065600001229032G2    AISUAI  005100280028
BI00B32G2    SA22113 MW     202210197017-1180-02             TERMINAL                 CCN000144000000144000FN00000000020221101000144000NNM   20220905132245    4P0P  00007200000001065600001229032G2    AISUAI  005100280028
BI00B32G2    SA22114 MW     202210267017-1180-02             TERMINAL                 CCN000072000000072000FN00000000020221101000072000NNM   20220905132245    4P0P  00007200000001065600001229032G2    AISUAI  005100280028
BI00B32G2    SA22111 MW     202210057017-1182-02             TERMINAL                 CCN000045000000045000FN00000000020221101000045000NNM   20220905132245    4P0P  00004500000001165500001318632G2    AISUAI  005100280028
BI00B32G2    SA22112 MW     202210127017-1182-02             TERMINAL                 CCN000045000000045000FN00000000020221101000045000NNM   20220905132245    4P0P  00004500000001165500001318632G2    AISUAI  005100280028
BI00B32G2    SA22113 MW     202210197017-1182-02             TERMINAL                 CCN000045000000045000FN00000000020221101000045000NNM   20220905132245    4P0P  00004500000001165500001318632G2    AISUAI  005100280028
BI00B32G2    SA22114 MW     202210267017-1182-02             TERMINAL                 CCN000045000000045000FN00000000020221101000045000NNM   20220905132245    4P0P  00004500000001165500001318632G2    AISUAI  005100280028
BI00B32G2    SA22111 MW     202210057017-1183-02             TERMINAL                 CCN000027000000027000FN00000000020221101000027000NNM   20220905132245    4P0P  00002700000001139400001307432G2    AISUAI  005100280028
BI00B32G2    SA22112 MW     202210127017-1183-02             TERMINAL                 CCN000027000000027000FN00000000020221101000027000NNM   20220905132245    4P0P  00002700000001139400001307432G2    AISUAI  005100280028
BI00B32G2    SA22113 MW     202210197017-1183-02             TERMINAL                 CCN000027000000027000FN00000000020221101000027000NNM   20220905132245    4P0P  00002700000001139400001307432G2    AISUAI  005100280028
BI00B32G2    SA22111 MW     202210057114-1470                TERMINAL                 CCN000016500000016500FN00000000020221101000016500NNM   20220905132245    4P0P  00001650000000544500000838732G2    AISUAI  006400630015
BI00B32G2    SA22112 MW     202210127114-1470                TERMINAL                 CCN000016500000016500FN00000000020221101000016500NNM   20220905132245    4P0P  00001650000000544500000838732G2    AISUAI  006400630015
BI00B32G2    SA22113 MW     202210197114-1470                TERMINAL                 CCN000016500000016500FN00000000020221101000016500NNM   20220905132245    4P0P  00001650000000544500000838732G2    AISUAI  006400630015
BI00B32G2    SA22114 MW     202210267114-1470                TERMINAL                 CCN000016500000016500FN00000000020221101000016500NNM   20220905132245    4P0P  00001650000000544500000838732G2    AISUAI  006400630015
BI00B32G2    SA22111 MW     202210057114-4020                TERMINAL                 CCN000273000000273000FN00000000020221101000273000NNM   20220905132245    4P0P  00002100000000875700001169332G2    AISUAI  006400630015
BI00B32G2    SA22112 MW     202210127114-4020                TERMINAL                 CCN000231000000231000FN00000000020221101000231000NNM   20220905132245    4P0P  00002100000000875700001169332G2    AISUAI  006400630015
BI00B32G2    SA22113 MW     202210197114-4020                TERMINAL                 CCN000189000000189000FN00000000020221101000189000NNM   20220905132245    4P0P  00002100000000875700001169332G2    AISUAI  006400630015
BI00B32G2    SA22114 MW     202210267114-4020                TERMINAL                 CCN000168000000168000FN00000000020221101000168000NNM   20220905132245    4P0P  00002100000000875700001169332G2    AISUAI  006400630015
BI00B32G2    SA22111 MW     202210057114-4021                TERMINAL                 CCN000180000000180000FN00000000020221101000180000NNM   20220905132245    4P0P  00001500000000670500000964132G2    AISUAI  006400630015
BI00B32G2    SA22112 MW     202210127114-4021                TERMINAL                 CCN000135000000135000FN00000000020221101000135000NNM   20220905132245    4P0P  00001500000000670500000964132G2    AISUAI  006400630015
BI00B32G2    SA22113 MW     202210197114-4021                TERMINAL                 CCN000105000000105000FN00000000020221101000105000NNM   20220905132245    4P0P  00001500000000670500000964132G2    AISUAI  006400630015
BI00B32G2    SA22114 MW     202210267114-4021                TERMINAL                 CCN000060000000060000FN00000000020221101000060000NNM   20220905132245    4P0P  00001500000000670500000964132G2    AISUAI  006400630015
BI00B32G2    SA22111 MW     202210057114-4032                TERMINAL                 CCN000022500000022500FN00000000020221101000022500NNM   20220905132245    4P0P  00000750000000735000001063632G2    AISUAI  006400630017
BI00B32G2    SA22112 MW     202210127114-4032                TERMINAL                 CCN000015000000015000FN00000000020221101000015000NNM   20220905132245    4P0P  00000750000000735000001063632G2    AISUAI  006400630017
BI00B32G2    SA22113 MW     202210197114-4032                TERMINAL                 CCN000015000000015000FN00000000020221101000015000NNM   20220905132245    4P0P  00000750000000735000001063632G2    AISUAI  006400630017
BI00B32G2    SA22114 MW     202210267114-4032                TERMINAL                 CCN000007500000007500FN00000000020221101000007500NNM   20220905132245    4P0P  00000750000000735000001063632G2    AISUAI  006400630017
BI00B32G2    SA22111 MW     202210057114-4231-02             TERMINAL                 CCN000054000000054000FN00000000020221101000054000NNM   20220905132245    4P0P  00001800000000554400000848032G2    AISUAI  006400630015
BI00B32G2    SA22112 MW     202210127114-4231-02             TERMINAL                 CCN000054000000054000FN00000000020221101000054000NNM   20220905132245    4P0P  00001800000000554400000848032G2    AISUAI  006400630015
BI00B32G2    SA22113 MW     202210197114-4231-02             TERMINAL                 CCN000036000000036000FN00000000020221101000036000NNM   20220905132245    4P0P  00001800000000554400000848032G2    AISUAI  006400630015
BI00B32G2    SA22114 MW     202210267114-4231-02             TERMINAL                 CCN000036000000036000FN00000000020221101000036000NNM   20220905132245    4P0P  00001800000000554400000848032G2    AISUAI  006400630015
BI00B32G2    SA22111 MW     202210057114-4486-02             TERMINAL                 CCN000072000000072000FN00000000020221101000072000NNM   20220905132245    4P0P  00002400000000662400000956032G2    AISUAI  006400630015
BI00B32G2    SA22112 MW     202210127114-4486-02             TERMINAL                 CCN000072000000072000FN00000000020221101000072000NNM   20220905132245    4P0P  00002400000000662400000956032G2    AISUAI  006400630015
BI00B32G2    SA22113 MW     202210197114-4486-02             TERMINAL                 CCN000048000000048000FN00000000020221101000048000NNM   20220905132245    4P0P  00002400000000662400000956032G2    AISUAI  006400630015
BI00B32G2    SA22114 MW     202210267114-4486-02             TERMINAL                 CCN000024000000024000FN00000000020221101000024000NNM   20220905132245    4P0P  00002400000000662400000956032G2    AISUAI  006400630015
BI00B32G2    SA22111 MW     202210057114-4624-02             TERMINAL                 CCN000096000000096000FN00000000020221101000096000NNM   20220905132245    4P0P  00002400000000895200001188832G2    AISUAI  006400630015
BI00B32G2    SA22112 MW     202210127114-4624-02             TERMINAL                 CCN000072000000072000FN00000000020221101000072000NNM   20220905132245    4P0P  00002400000000895200001188832G2    AISUAI  006400630015
BI00B32G2    SA22113 MW     202210197114-4624-02             TERMINAL                 CCN000072000000072000FN00000000020221101000072000NNM   20220905132245    4P0P  00002400000000895200001188832G2    AISUAI  006400630015
BI00B32G2    SA22114 MW     202210267114-4624-02             TERMINAL                 CCN000048000000048000FN00000000020221101000048000NNM   20220905132245    4P0P  00002400000000895200001188832G2    AISUAI  006400630015
BI00B32G2    SA22111 MW     202210057114-4728-02             TERMINAL                 CCN001560000001560000FN00000000020221101001560000NNM   20220905132245    4P0P  00003000000000510000000804232G2    AISUAI  006400630015
BI00B32G2    SA22112 MW     202210127114-4728-02             TERMINAL                 CCN001260000001260000FN00000000020221101001260000NNM   20220905132245    4P0P  00003000000000510000000804232G2    AISUAI  006400630015
BI00B32G2    SA22113 MW     202210197114-4728-02             TERMINAL                 CCN000960000000960000FN00000000020221101000960000NNM   20220905132245    4P0P  00003000000000510000000804232G2    AISUAI  006400630015
BI00B32G2    SA22114 MW     202210267114-4728-02             TERMINAL                 CCN000660000000660000FN00000000020221101000660000NNM   20220905132245    4P0P  00003000000000510000000804232G2    AISUAI  006400630015
BI00B32G2    SA22111 MW     202210057114-4729-02             TERMINAL                 CCN000600000000600000FN00000000020221101000600000NNM   20220905132245    4P0P  00003000000000516000000810232G2    AISUAI  006400630015
BI00B32G2    SA22112 MW     202210127114-4729-02             TERMINAL                 CCN000480000000480000FN00000000020221101000480000NNM   20220905132245    4P0P  00003000000000516000000810232G2    AISUAI  006400630015
BI00B32G2    SA22113 MW     202210197114-4729-02             TERMINAL                 CCN000300000000300000FN00000000020221101000300000NNM   20220905132245    4P0P  00003000000000516000000810232G2    AISUAI  006400630015
BI00B32G2    SA22114 MW     202210267114-4729-02             TERMINAL                 CCN000180000000180000FN00000000020221101000180000NNM   20220905132245    4P0P  00003000000000516000000810232G2    AISUAI  006400630015
BI00B32G2    SA22111 MW     202210057114-5096-02             TERMINAL                 CCN000150000000150000FN00000000020221101000150000NNM   20220905132245    4P0P  00003000000000498000000792232G2    AISUAI  006400630015
BI00B32G2    SA22112 MW     202210127114-5096-02             TERMINAL                 CCN000120000000120000FN00000000020221101000120000NNM   20220905132245    4P0P  00003000000000498000000792232G2    AISUAI  006400630015
BI00B32G2    SA22113 MW     202210197114-5096-02             TERMINAL                 CCN000120000000120000FN00000000020221101000120000NNM   20220905132245    4P0P  00003000000000498000000792232G2    AISUAI  006400630015
BI00B32G2    SA22114 MW     202210267114-5096-02             TERMINAL                 CCN000090000000090000FN00000000020221101000090000NNM   20220905132245    4P0P  00003000000000498000000792232G2    AISUAI  006400630015
BI00B32G2    SA22111 MW     202210057114-5746-02             TERMINAL                 CCN000210000000210000FN00000000020221101000210000NNM   20220905132245    4P0P  00002100000000695100000988732G2    AISUAI  006400630015
BI00B32G2    SA22112 MW     202210127114-5746-02             TERMINAL                 CCN000147000000147000FN00000000020221101000147000NNM   20220905132245    4P0P  00002100000000695100000988732G2    AISUAI  006400630015
BI00B32G2    SA22113 MW     202210197114-5746-02             TERMINAL                 CCN000105000000105000FN00000000020221101000105000NNM   20220905132245    4P0P  00002100000000695100000988732G2    AISUAI  006400630015
BI00B32G2    SA22114 MW     202210267114-5746-02             TERMINAL                 CCN000084000000084000FN00000000020221101000084000NNM   20220905132245    4P0P  00002100000000695100000988732G2    AISUAI  006400630015
BI00B32G2    SA22111 MW     202210057114-5747-02             TERMINAL                 CCN000270000000270000FN00000000020221101000270000NNM   20220905132245    4P0P  00001800000000626400000920032G2    AISUAI  006400630015
BI00B32G2    SA22112 MW     202210127114-5747-02             TERMINAL                 CCN000216000000216000FN00000000020221101000216000NNM   20220905132245    4P0P  00001800000000626400000920032G2    AISUAI  006400630015
BI00B32G2    SA22113 MW     202210197114-5747-02             TERMINAL                 CCN000180000000180000FN00000000020221101000180000NNM   20220905132245    4P0P  00001800000000626400000920032G2    AISUAI  006400630015
BI00B32G2    SA22114 MW     202210267114-5747-02             TERMINAL                 CCN000144000000144000FN00000000020221101000144000NNM   20220905132245    4P0P  00001800000000626400000920032G2    AISUAI  006400630015
BI00B32G2    SA22111 MW     202210057114-5748-02             TERMINAL                 CCN000036000000036000FN00000000020221101000036000NNM   20220905132245    4P0P  00001200000000444000000737632G2    AISUAI  006400630015
BI00B32G2    SA22112 MW     202210127114-5748-02             TERMINAL                 CCN000036000000036000FN00000000020221101000036000NNM   20220905132245    4P0P  00001200000000444000000737632G2    AISUAI  006400630015
BI00B32G2    SA22113 MW     202210197114-5748-02             TERMINAL                 CCN000036000000036000FN00000000020221101000036000NNM   20220905132245    4P0P  00001200000000444000000737632G2    AISUAI  006400630015
BI00B32G2    SA22114 MW     202210267114-5748-02             TERMINAL                 CCN000024000000024000FN00000000020221101000024000NNM   20220905132245    4P0P  00001200000000444000000737632G2    AISUAI  006400630015
BI00B32G2    SA22111 MW     202210057114-5753-02             TERMINAL                 CCN000189000000189000FN00000000020221101000189000NNM   20220905132245    4P0P  00002700000000847800001141432G2    AISUAI  006400630015
BI00B32G2    SA22112 MW     202210127114-5753-02             TERMINAL                 CCN000162000000162000FN00000000020221101000162000NNM   20220905132245    4P0P  00002700000000847800001141432G2    AISUAI  006400630015
BI00B32G2    SA22113 MW     202210197114-5753-02             TERMINAL                 CCN000162000000162000FN00000000020221101000162000NNM   20220905132245    4P0P  00002700000000847800001141432G2    AISUAI  006400630015
BI00B32G2    SA22114 MW     202210267114-5753-02             TERMINAL                 CCN000135000000135000FN00000000020221101000135000NNM   20220905132245    4P0P  00002700000000847800001141432G2    AISUAI  006400630015
BI00B32G2    SA22111 MW     202210057114-6041                TERMINAL                 CCN000010800000010800FN00000000020221101000010800NNM   20220905132245    4P0P  00000360000000580700000824232G2    AISUAI  006400630015
BI00B32G2    SA22112 MW     202210127114-6041                TERMINAL                 CCN000007200000007200FN00000000020221101000007200NNM   20220905132245    4P0P  00000360000000580700000824232G2    AISUAI  006400630015
BI00B32G2    SA22113 MW     202210197114-6041                TERMINAL                 CCN000007200000007200FN00000000020221101000007200NNM   20220905132245    4P0P  00000360000000580700000824232G2    AISUAI  006400630015
BI00B32G2    SA22114 MW     202210267114-6041                TERMINAL                 CCN000007200000007200FN00000000020221101000007200NNM   20220905132245    4P0P  00000360000000580700000824232G2    AISUAI  006400630015
BI00B32G2    SA22111 MW     202210057116-1180                TERMINAL                 CCN000097500000097500FN00000000020221101000097500NNM   20220905132245    1P0P  00001950000000618200000903432G2    AISUAI  006400630015
BI00B32G2    SA22112 MW     202210127116-1180                TERMINAL                 CCN000078000000078000FN00000000020221101000078000NNM   20220905132245    1P0P  00001950000000618200000903432G2    AISUAI  006400630015
BI00B32G2    SA22113 MW     202210197116-1180                TERMINAL                 CCN000078000000078000FN00000000020221101000078000NNM   20220905132245    1P0P  00001950000000618200000903432G2    AISUAI  006400630015
BI00B32G2    SA22114 MW     202210267116-1180                TERMINAL                 CCN000058500000058500FN00000000020221101000058500NNM   20220905132245    1P0P  00001950000000618200000903432G2    AISUAI  006400630015
BI00B32G2    SA22111 MW     202210057116-1257-02             TERMINAL                 CCN000048000000048000FN00000000020221101000048000NNM   20220905132245    4P0P  00002400000000518400000847132G2    AISUAI  006400630017
BI00B32G2    SA22112 MW     202210127116-1257-02             TERMINAL                 CCN000024000000024000FN00000000020221101000024000NNM   20220905132245    4P0P  00002400000000518400000847132G2    AISUAI  006400630017
BI00B32G2    SA22113 MW     202210197116-1257-02             TERMINAL                 CCN000024000000024000FN00000000020221101000024000NNM   20220905132245    4P0P  00002400000000518400000847132G2    AISUAI  006400630017
BI00B32G2    SA22114 MW     202210267116-1257-02             TERMINAL                 CCN000024000000024000FN00000000020221101000024000NNM   20220905132245    4P0P  00002400000000518400000847132G2    AISUAI  006400630017
BI00B32G2    SA22111 MW     202210057116-1471                TERMINAL                 CCN000030000000030000FN00000000020221101000030000NNM   20220905132245    4P0P  00001500000000579000000867232G2    AISUAI  006400630015
BI00B32G2    SA22112 MW     202210127116-1471                TERMINAL                 CCN000030000000030000FN00000000020221101000030000NNM   20220905132245    4P0P  00001500000000579000000867232G2    AISUAI  006400630015
BI00B32G2    SA22113 MW     202210197116-1471                TERMINAL                 CCN000030000000030000FN00000000020221101000030000NNM   20220905132245    4P0P  00001500000000579000000867232G2    AISUAI  006400630015
BI00B32G2    SA22114 MW     202210267116-1471                TERMINAL                 CCN000015000000015000FN00000000020221101000015000NNM   20220905132245    4P0P  00001500000000579000000867232G2    AISUAI  006400630015
BI00B32G2    SA22111 MW     202210057116-1473                TERMINAL                 CCN000027000000027000FN00000000020221101000027000NNM   20220905132245    4P0P  00001350000000523800000809032G2    AISUAI  006400630015
BI00B32G2    SA22112 MW     202210127116-1473                TERMINAL                 CCN000027000000027000FN00000000020221101000027000NNM   20220905132245    4P0P  00001350000000523800000809032G2    AISUAI  006400630015
BI00B32G2    SA22113 MW     202210197116-1473                TERMINAL                 CCN000013500000013500FN00000000020221101000013500NNM   20220905132245    4P0P  00001350000000523800000809032G2    AISUAI  006400630015
BI00B32G2    SA22114 MW     202210267116-1473                TERMINAL                 CCN000013500000013500FN00000000020221101000013500NNM   20220905132245    4P0P  00001350000000523800000809032G2    AISUAI  006400630015
BI00B32G2    SA22111 MW     202210057116-1486-02             TERMINAL                 CCN000016500000016500FN00000000020221101000016500NNM   20220905132245    4P0P  00001650000000655100000940332G2    AISUAI  006400630015
BI00B32G2    SA22111 MW     202210057116-1685                TERMINAL                 CCN000024000000024000FN00000000020221101000024000NNM   20220905132245    4P0P  00002400000000892800001067232G2    AISUAI  005100280028
BI00B32G2    SA22112 MW     202210127116-1685                TERMINAL                 CCN000024000000024000FN00000000020221101000024000NNM   20220905132245    4P0P  00002400000000892800001067232G2    AISUAI  005100280028
BI00B32G2    SA22113 MW     202210197116-1685                TERMINAL                 CCN000024000000024000FN00000000020221101000024000NNM   20220905132245    4P0P  00002400000000892800001067232G2    AISUAI  005100280028
BI00B32G2    SA22111 MW     202210057116-1685-02             TERMINAL                 CCN000408000000408000FN00000000020221101000408000NNM   20220905132245    4P0P  00002400000000897600001065232G2    AISUAI  005100280028
BI00B32G2    SA22112 MW     202210127116-1685-02             TERMINAL                 CCN000312000000312000FN00000000020221101000312000NNM   20220905132245    4P0P  00002400000000897600001065232G2    AISUAI  005100280028
BI00B32G2    SA22113 MW     202210197116-1685-02             TERMINAL                 CCN000240000000240000FN00000000020221101000240000NNM   20220905132245    4P0P  00002400000000897600001065232G2    AISUAI  005100280028
BI00B32G2    SA22114 MW     202210267116-1685-02             TERMINAL                 CCN000192000000192000FN00000000020221101000192000NNM   20220905132245    4P0P  00002400000000897600001065232G2    AISUAI  005100280028
BI00B32G2    SA22111 MW     202210057116-1686                TERMINAL                 CCN000021000000021000FN00000000020221101000021000NNM   20220905132245    4P0P  00002100000000861000001045632G2    AISUAI  005100280028
BI00B32G2    SA22111 MW     202210057116-1686-02             TERMINAL                 CCN000063000000063000FN00000000020221101000063000NNM   20220905132245    4P0P  00002100000000869400001021632G2    AISUAI  005100280028
BI00B32G2    SA22112 MW     202210127116-1686-02             TERMINAL                 CCN000063000000063000FN00000000020221101000063000NNM   20220905132245    4P0P  00002100000000869400001021632G2    AISUAI  005100280028
BI00B32G2    SA22113 MW     202210197116-1686-02             TERMINAL                 CCN000042000000042000FN00000000020221101000042000NNM   20220905132245    4P0P  00002100000000869400001021632G2    AISUAI  005100280028
BI00B32G2    SA22114 MW     202210267116-1686-02             TERMINAL                 CCN000021000000021000FN00000000020221101000021000NNM   20220905132245    4P0P  00002100000000869400001021632G2    AISUAI  005100280028
BI00B32G2    SA22111 MW     202210057116-1687-02             TERMINAL FEMALE          CCN000096000000096000FN00000000020221101000096000NNM   20220905132245    4P0P  00002400000000303200000909632G2    AISUAI  005100280028
BI00B32G2    SA22112 MW     202210127116-1687-02             TERMINAL FEMALE          CCN000096000000096000FN00000000020221101000096000NNM   20220905132245    4P0P  00002400000000303200000909632G2    AISUAI  005100280028
BI00B32G2    SA22113 MW     202210197116-1687-02             TERMINAL FEMALE          CCN000072000000072000FN00000000020221101000072000NNM   20220905132245    4P0P  00002400000000303200000909632G2    AISUAI  005100280028
BI00B32G2    SA22114 MW     202210267116-1687-02             TERMINAL FEMALE          CCN000048000000048000FN00000000020221101000048000NNM   20220905132245    4P0P  00002400000000303200000909632G2    AISUAI  005100280028
BI00B32G2    SA22111 MW     202210057116-1688-02             TERMINAL FEMALE          CCN000021000000021000FN00000000020221101000021000NNM   20220905132245    4P0P  00002100000000299600000898832G2    AISUAI  005100280028
BI00B32G2    SA22111 MW     202210057116-2640                TERMINAL                 CCN000054000000054000FN00000000020221101000054000NNM   20220905132245    4P0P  00001800000001018800001196632G2    AISUAI  005100280028
BI00B32G2    SA22112 MW     202210127116-2640                TERMINAL                 CCN000036000000036000FN00000000020221101000036000NNM   20220905132245    4P0P  00001800000001018800001196632G2    AISUAI  005100280028
BI00B32G2    SA22113 MW     202210197116-2640                TERMINAL                 CCN000036000000036000FN00000000020221101000036000NNM   20220905132245    4P0P  00001800000001018800001196632G2    AISUAI  005100280028
BI00B32G2    SA22114 MW     202210267116-2640                TERMINAL                 CCN000036000000036000FN00000000020221101000036000NNM   20220905132245    4P0P  00001800000001018800001196632G2    AISUAI  005100280028
BI00B32G2    SA22111 MW     202210057116-2641                TERMINAL                 CCN000072000000072000FN00000000020221101000072000NNM   20220905132245    4P0P  00001800000001161000001344632G2    AISUAI  005100280028
BI00B32G2    SA22112 MW     202210127116-2641                TERMINAL                 CCN000054000000054000FN00000000020221101000054000NNM   20220905132245    4P0P  00001800000001161000001344632G2    AISUAI  005100280028
BI00B32G2    SA22113 MW     202210197116-2641                TERMINAL                 CCN000054000000054000FN00000000020221101000054000NNM   20220905132245    4P0P  00001800000001161000001344632G2    AISUAI  005100280028
BI00B32G2    SA22114 MW     202210267116-2641                TERMINAL                 CCN000036000000036000FN00000000020221101000036000NNM   20220905132245    4P0P  00001800000001161000001344632G2    AISUAI  005100280028
BI00B32G2    SA22111 MW     202210057116-2870                TERMINAL                 CCN000012000000012000FN00000000020221101000012000NNM   20220905132245    1P0P  00001200000000783600001020232G2    AISUAI  005100280028
BI00B32G2    SA22112 MW     202210127116-2870                TERMINAL                 CCN000012000000012000FN00000000020221101000012000NNM   20220905132245    1P0P  00001200000000783600001020232G2    AISUAI  005100280028
BI00B32G2    SA22113 MW     202210197116-2870                TERMINAL                 CCN000012000000012000FN00000000020221101000012000NNM   20220905132245    1P0P  00001200000000783600001020232G2    AISUAI  005100280028
BI00B32G2    SA22114 MW     202210267116-2870                TERMINAL                 CCN000012000000012000FN00000000020221101000012000NNM   20220905132245    1P0P  00001200000000783600001020232G2    AISUAI  005100280028
BI00B32G2    SA22111 MW     202210057116-2871                TERMINAL                 CCN000012000000012000FN00000000020221101000012000NNM   20220905132245    1P0P  00001200000000842400001072632G2    AISUAI  005100280028
BI00B32G2    SA22112 MW     202210127116-2871                TERMINAL                 CCN000012000000012000FN00000000020221101000012000NNM   20220905132245    1P0P  00001200000000842400001072632G2    AISUAI  005100280028
BI00B32G2    SA22113 MW     202210197116-2871                TERMINAL                 CCN000012000000012000FN00000000020221101000012000NNM   20220905132245    1P0P  00001200000000842400001072632G2    AISUAI  005100280028
BI00B32G2    SA22114 MW     202210267116-2871                TERMINAL                 CCN000012000000012000FN00000000020221101000012000NNM   20220905132245    1P0P  00001200000000842400001072632G2    AISUAI  005100280028
BI00B32G2    SA22111 MW     202210057116-2891-02             TERMINAL                 CCN000180000000180000FN00000000020221101000180000NNM   20220905132245    4P0P  00001500000000982500001145932G2    AISUAI  005100280028
BI00B32G2    SA22112 MW     202210127116-2891-02             TERMINAL                 CCN000165000000165000FN00000000020221101000165000NNM   20220905132245    4P0P  00001500000000982500001145932G2    AISUAI  005100280028
BI00B32G2    SA22113 MW     202210197116-2891-02             TERMINAL                 CCN000135000000135000FN00000000020221101000135000NNM   20220905132245    4P0P  00001500000000982500001145932G2    AISUAI  005100280028
BI00B32G2    SA22114 MW     202210267116-2891-02             TERMINAL                 CCN000120000000120000FN00000000020221101000120000NNM   20220905132245    4P0P  00001500000000982500001145932G2    AISUAI  005100280028
BI00B32G2    SA22111 MW     202210057116-2892-02             TERMINAL                 CCN000120000000120000FN00000000020221101000120000NNM   20220905132245    4P0P  00001200000000818400000981832G2    AISUAI  005100280028
BI00B32G2    SA22112 MW     202210127116-2892-02             TERMINAL                 CCN000108000000108000FN00000000020221101000108000NNM   20220905132245    4P0P  00001200000000818400000981832G2    AISUAI  005100280028
BI00B32G2    SA22113 MW     202210197116-2892-02             TERMINAL                 CCN000096000000096000FN00000000020221101000096000NNM   20220905132245    4P0P  00001200000000818400000981832G2    AISUAI  005100280028
BI00B32G2    SA22114 MW     202210267116-2892-02             TERMINAL                 CCN000072000000072000FN00000000020221101000072000NNM   20220905132245    4P0P  00001200000000818400000981832G2    AISUAI  005100280028
BI00B32G2    SA22111 MW     202210057116-2893-02             TERMINAL                 CCN000276000000276000FN00000000020221101000276000NNM   20220905132245    4P0P  00001200000000895200001058632G2    AISUAI  005100280028
BI00B32G2    SA22112 MW     202210127116-2893-02             TERMINAL                 CCN000240000000240000FN00000000020221101000240000NNM   20220905132245    4P0P  00001200000000895200001058632G2    AISUAI  005100280028
BI00B32G2    SA22113 MW     202210197116-2893-02             TERMINAL                 CCN000204000000204000FN00000000020221101000204000NNM   20220905132245    4P0P  00001200000000895200001058632G2    AISUAI  005100280028
BI00B32G2    SA22114 MW     202210267116-2893-02             TERMINAL                 CCN000132000000132000FN00000000020221101000132000NNM   20220905132245    4P0P  00001200000000895200001058632G2    AISUAI  005100280028
BI00B32G2    SA22111 MW     202210057116-2951-02             TERMINAL                 CCN000005400000005400FN00000000020221101000005400NNM   20220905132245    4P0P  00000540000000817600001111832G2    AISUAI  006400630015
BI00B32G2    SA22111 MW     202210057116-3154-02             TERMINAL FEMALE          CCN001350000001350000FN00000000020221101001350000NNM   20220905132245    4P0P  00002700000000469800000755032G2    AISUAI  006400630015
BI00B32G2    SA22112 MW     202210127116-3154-02             TERMINAL FEMALE          CCN000999000000999000FN00000000020221101000999000NNM   20220905132245    4P0P  00002700000000469800000755032G2    AISUAI  006400630015
BI00B32G2    SA22113 MW     202210197116-3154-02             TERMINAL FEMALE          CCN000810000000810000FN00000000020221101000810000NNM   20220905132245    4P0P  00002700000000469800000755032G2    AISUAI  006400630015
BI00B32G2    SA22114 MW     202210267116-3154-02             TERMINAL FEMALE          CCN000540000000540000FN00000000020221101000540000NNM   20220905132245    4P0P  00002700000000469800000755032G2    AISUAI  006400630015
BI00B32G2    SA22111 MW     202210057116-4020                TERMINAL                 CCN000405000000405000FN00000000020221101000405000NNM   20220905132245    4P0P  00001350000000513000000798232G2    AISUAI  006400630015
BI00B32G2    SA22112 MW     202210127116-4020                TERMINAL                 CCN000324000000324000FN00000000020221101000324000NNM   20220905132245    4P0P  00001350000000513000000798232G2    AISUAI  006400630015
BI00B32G2    SA22113 MW     202210197116-4020                TERMINAL                 CCN000229500000229500FN00000000020221101000229500NNM   20220905132245    4P0P  00001350000000513000000798232G2    AISUAI  006400630015
BI00B32G2    SA22114 MW     202210267116-4020                TERMINAL                 CCN000148500000148500FN00000000020221101000148500NNM   20220905132245    4P0P  00001350000000513000000798232G2    AISUAI  006400630015
BI00B32G2    SA22111 MW     202210057116-4022                TERMINAL                 CCN000013500000013500FN00000000020221101000013500NNM   20220905132245    4P0P  00001350000000618300000903532G2    AISUAI  006400630015
BI00B32G2    SA22111 MW     202210057116-4025                TERMINAL                 CCN000192000000192000FN00000000020221101000192000NNM   20220905132245    4P0P  00001600000000644800000975132G2    AISUAI  006400630017
BI00B32G2    SA22112 MW     202210127116-4025                TERMINAL                 CCN000160000000160000FN00000000020221101000160000NNM   20220905132245    4P0P  00001600000000644800000975132G2    AISUAI  006400630017
BI00B32G2    SA22113 MW     202210197116-4025                TERMINAL                 CCN000128000000128000FN00000000020221101000128000NNM   20220905132245    4P0P  00001600000000644800000975132G2    AISUAI  006400630017
BI00B32G2    SA22114 MW     202210267116-4025                TERMINAL                 CCN000112000000112000FN00000000020221101000112000NNM   20220905132245    4P0P  00001600000000644800000975132G2    AISUAI  006400630017
BI00B32G2    SA22111 MW     202210057116-4026                TERMINAL                 CCN000048000000048000FN00000000020221101000048000NNM   20220905132245    4P0P  00001600000000664000000994332G2    AISUAI  006400630017
BI00B32G2    SA22112 MW     202210127116-4026                TERMINAL                 CCN000032000000032000FN00000000020221101000032000NNM   20220905132245    4P0P  00001600000000664000000994332G2    AISUAI  006400630017
BI00B32G2    SA22113 MW     202210197116-4026                TERMINAL                 CCN000032000000032000FN00000000020221101000032000NNM   20220905132245    4P0P  00001600000000664000000994332G2    AISUAI  006400630017
BI00B32G2    SA22114 MW     202210267116-4026                TERMINAL                 CCN000016000000016000FN00000000020221101000016000NNM   20220905132245    4P0P  00001600000000664000000994332G2    AISUAI  006400630017
BI00B32G2    SA22111 MW     202210057116-4029-08             TERMINAL FEMALE          CCN000016000000016000FN00000000020221101000016000NNM   20220905132245    4P0P  00001600000000670400000999132G2    AISUAI  006400630017
BI00B32G2    SA22111 MW     202210057116-4031                TERMINAL                 CCN000045000000045000FN00000000020221101000045000NNM   20220905132245    4P0P  00000750000000619500000904732G2    AISUAI  006400630015
BI00B32G2    SA22112 MW     202210127116-4031                TERMINAL                 CCN000037500000037500FN00000000020221101000037500NNM   20220905132245    4P0P  00000750000000619500000904732G2    AISUAI  006400630015
BI00B32G2    SA22113 MW     202210197116-4031                TERMINAL                 CCN000030000000030000FN00000000020221101000030000NNM   20220905132245    4P0P  00000750000000619500000904732G2    AISUAI  006400630015
BI00B32G2    SA22114 MW     202210267116-4031                TERMINAL                 CCN000022500000022500FN00000000020221101000022500NNM   20220905132245    4P0P  00000750000000619500000904732G2    AISUAI  006400630015
BI00B32G2    SA22111 MW     202210057116-4032                TERMINAL                 CCN000114000000114000FN00000000020221101000114000NNM   20220905132245    4P0P  00000600000000532800000818032G2    AISUAI  006400630015
BI00B32G2    SA22112 MW     202210127116-4032                TERMINAL                 CCN000102000000102000FN00000000020221101000102000NNM   20220905132245    4P0P  00000600000000532800000818032G2    AISUAI  006400630015
BI00B32G2    SA22113 MW     202210197116-4032                TERMINAL                 CCN000078000000078000FN00000000020221101000078000NNM   20220905132245    4P0P  00000600000000532800000818032G2    AISUAI  006400630015
BI00B32G2    SA22114 MW     202210267116-4032                TERMINAL                 CCN000054000000054000FN00000000020221101000054000NNM   20220905132245    4P0P  00000600000000532800000818032G2    AISUAI  006400630015
BI00B32G2    SA22111 MW     202210057116-4037                TERMINAL                 CCN000114000000114000FN00000000020221101000114000NNM   20220905132245    4P0P  00000600000000600000000894232G2    AISUAI  006400630015
BI00B32G2    SA22112 MW     202210127116-4037                TERMINAL                 CCN000096000000096000FN00000000020221101000096000NNM   20220905132245    4P0P  00000600000000600000000894232G2    AISUAI  006400630015
BI00B32G2    SA22113 MW     202210197116-4037                TERMINAL                 CCN000078000000078000FN00000000020221101000078000NNM   20220905132245    4P0P  00000600000000600000000894232G2    AISUAI  006400630015
BI00B32G2    SA22114 MW     202210267116-4037                TERMINAL                 CCN000054000000054000FN00000000020221101000054000NNM   20220905132245    4P0P  00000600000000600000000894232G2    AISUAI  006400630015
BI00B32G2    SA22111 MW     202210057116-4231-02             TERMINAL                 CCN000234000000234000FN00000000020221101000234000NNM   20220905132245    4P0P  00002600000000683800001012532G2    AISUAI  006400630017
BI00B32G2    SA22112 MW     202210127116-4231-02             TERMINAL                 CCN000182000000182000FN00000000020221101000182000NNM   20220905132245    4P0P  00002600000000683800001012532G2    AISUAI  006400630017
BI00B32G2    SA22113 MW     202210197116-4231-02             TERMINAL                 CCN000130000000130000FN00000000020221101000130000NNM   20220905132245    4P0P  00002600000000683800001012532G2    AISUAI  006400630017
BI00B32G2    SA22114 MW     202210267116-4231-02             TERMINAL                 CCN000078000000078000FN00000000020221101000078000NNM   20220905132245    4P0P  00002600000000683800001012532G2    AISUAI  006400630017
BI00B32G2    SA22111 MW     202210057116-4415-02             TERMINAL                 CCN000114000000114000FN00000000020221101000114000NNM   20220905132245    4P0P  00003800000000596600000925732G2    AISUAI  006400630017
BI00B32G2    SA22112 MW     202210127116-4415-02             TERMINAL                 CCN000076000000076000FN00000000020221101000076000NNM   20220905132245    4P0P  00003800000000596600000925732G2    AISUAI  006400630017
BI00B32G2    SA22113 MW     202210197116-4415-02             TERMINAL                 CCN000076000000076000FN00000000020221101000076000NNM   20220905132245    4P0P  00003800000000596600000925732G2    AISUAI  006400630017
BI00B32G2    SA22114 MW     202210267116-4415-02             TERMINAL                 CCN000038000000038000FN00000000020221101000038000NNM   20220905132245    4P0P  00003800000000596600000925732G2    AISUAI  006400630017
BI00B32G2    SA22111 MW     202210057116-4416-02             TERMINAL                 CCN000032000000032000FN00000000020221101000032000NNM   20220905132245    4P0P  00003200000000518400000847132G2    AISUAI  006400630017
BI00B32G2    SA22112 MW     202210127116-4416-02             TERMINAL                 CCN000032000000032000FN00000000020221101000032000NNM   20220905132245    4P0P  00003200000000518400000847132G2    AISUAI  006400630017
BI00B32G2    SA22113 MW     202210197116-4416-02             TERMINAL                 CCN000032000000032000FN00000000020221101000032000NNM   20220905132245    4P0P  00003200000000518400000847132G2    AISUAI  006400630017
BI00B32G2    SA22111 MW     202210057116-4486-02             TERMINAL                 CCN000308000000308000FN00000000020221101000308000NNM   20220905132245    4P0P  00002800000000666400000995132G2    AISUAI  006400630017
BI00B32G2    SA22112 MW     202210127116-4486-02             TERMINAL                 CCN000280000000280000FN00000000020221101000280000NNM   20220905132245    4P0P  00002800000000666400000995132G2    AISUAI  006400630017
BI00B32G2    SA22113 MW     202210197116-4486-02             TERMINAL                 CCN000224000000224000FN00000000020221101000224000NNM   20220905132245    4P0P  00002800000000666400000995132G2    AISUAI  006400630017
BI00B32G2    SA22114 MW     202210267116-4486-02             TERMINAL                 CCN000168000000168000FN00000000020221101000168000NNM   20220905132245    4P0P  00002800000000666400000995132G2    AISUAI  006400630017
BI00B32G2    SA22111 MW     202210057116-5041-02             TERMINAL                 CCN001080000001080000FN00000000020221101001080000NNM   20220905132245    4P0P  00001500000000583500000868732G2    AISUAI  006400630015
BI00B32G2    SA22112 MW     202210127116-5041-02             TERMINAL                 CCN000930000000930000FN00000000020221101000930000NNM   20220905132245    4P0P  00001500000000583500000868732G2    AISUAI  006400630015
BI00B32G2    SA22113 MW     202210197116-5041-02             TERMINAL                 CCN000780000000780000FN00000000020221101000780000NNM   20220905132245    4P0P  00001500000000583500000868732G2    AISUAI  006400630015
BI00B32G2    SA22114 MW     202210267116-5041-02             TERMINAL                 CCN000615000000615000FN00000000020221101000615000NNM   20220905132245    4P0P  00001500000000583500000868732G2    AISUAI  006400630015
BI00B32G2    SA22111 MW     202210057116-5042-02             TERMINAL                 CCN000405000000405000FN00000000020221101000405000NNM   20220905132245    4P0P  00001350000000560300000845532G2    AISUAI  006400630015
BI00B32G2    SA22112 MW     202210127116-5042-02             TERMINAL                 CCN000310500000310500FN00000000020221101000310500NNM   20220905132245    4P0P  00001350000000560300000845532G2    AISUAI  006400630015
BI00B32G2    SA22113 MW     202210197116-5042-02             TERMINAL                 CCN000270000000270000FN00000000020221101000270000NNM   20220905132245    4P0P  00001350000000560300000845532G2    AISUAI  006400630015
BI00B32G2    SA22114 MW     202210267116-5042-02             TERMINAL                 CCN000135000000135000FN00000000020221101000135000NNM   20220905132245    4P0P  00001350000000560300000845532G2    AISUAI  006400630015
BI00B32G2    SA22111 MW     202210057116-5043-02             TERMINAL FEMALE          CCN000072000000072000FN00000000020221101000072000NNM   20220905132245    4P0P  00001200000000559200000844432G2    AISUAI  006400630015
BI00B32G2    SA22112 MW     202210127116-5043-02             TERMINAL FEMALE          CCN000048000000048000FN00000000020221101000048000NNM   20220905132245    4P0P  00001200000000559200000844432G2    AISUAI  006400630015
BI00B32G2    SA22113 MW     202210197116-5043-02             TERMINAL FEMALE          CCN000048000000048000FN00000000020221101000048000NNM   20220905132245    4P0P  00001200000000559200000844432G2    AISUAI  006400630015
BI00B32G2    SA22114 MW     202210267116-5043-02             TERMINAL FEMALE          CCN000036000000036000FN00000000020221101000036000NNM   20220905132245    4P0P  00001200000000559200000844432G2    AISUAI  006400630015
BI00B32G2    SA22111 MW     202210057116-5044-02             TERMINAL                 CCN000512000000512000FN00000000020221101000512000NNM   20220905132245    4P0P  00001600000000641600000986332G2    AISUAI  006400630017
BI00B32G2    SA22112 MW     202210127116-5044-02             TERMINAL                 CCN000512000000512000FN00000000020221101000512000NNM   20220905132245    4P0P  00001600000000641600000986332G2    AISUAI  006400630017
BI00B32G2    SA22113 MW     202210197116-5044-02             TERMINAL                 CCN000352000000352000FN00000000020221101000352000NNM   20220905132245    4P0P  00001600000000641600000986332G2    AISUAI  006400630017
BI00B32G2    SA22114 MW     202210267116-5044-02             TERMINAL                 CCN000352000000352000FN00000000020221101000352000NNM   20220905132245    4P0P  00001600000000641600000986332G2    AISUAI  006400630017
BI00B32G2    SA22111 MW     202210057116-5045-02             TERMINAL                 CCN000336000000336000FN00000000020221101000336000NNM   20220905132245    4P0P  00001600000000678400001007132G2    AISUAI  006400630017
BI00B32G2    SA22112 MW     202210127116-5045-02             TERMINAL                 CCN000288000000288000FN00000000020221101000288000NNM   20220905132245    4P0P  00001600000000678400001007132G2    AISUAI  006400630017
BI00B32G2    SA22113 MW     202210197116-5045-02             TERMINAL                 CCN000240000000240000FN00000000020221101000240000NNM   20220905132245    4P0P  00001600000000678400001007132G2    AISUAI  006400630017
BI00B32G2    SA22114 MW     202210267116-5045-02             TERMINAL                 CCN000192000000192000FN00000000020221101000192000NNM   20220905132245    4P0P  00001600000000678400001007132G2    AISUAI  006400630017
BI00B32G2    SA22111 MW     202210057116-5046-02             TERMINAL                 CCN000072000000072000FN00000000020221101000072000NNM   20220905132245    4P0P  00001200000000544800000873532G2    AISUAI  006400630017
BI00B32G2    SA22112 MW     202210127116-5046-02             TERMINAL                 CCN000060000000060000FN00000000020221101000060000NNM   20220905132245    4P0P  00001200000000544800000873532G2    AISUAI  006400630017
BI00B32G2    SA22113 MW     202210197116-5046-02             TERMINAL                 CCN000060000000060000FN00000000020221101000060000NNM   20220905132245    4P0P  00001200000000544800000873532G2    AISUAI  006400630017
BI00B32G2    SA22114 MW     202210267116-5046-02             TERMINAL                 CCN000036000000036000FN00000000020221101000036000NNM   20220905132245    4P0P  00001200000000544800000873532G2    AISUAI  006400630017
BI00B32G2    SA22111 MW     202210057116-5097-02             TERMINAL                 CCN000045000000045000FN00000000020221101000045000NNM   20220905132245    4P0P  00002250000000531000000816232G2    AISUAI  006400630015
BI00B32G2    SA22112 MW     202210127116-5097-02             TERMINAL                 CCN000045000000045000FN00000000020221101000045000NNM   20220905132245    4P0P  00002250000000531000000816232G2    AISUAI  006400630015
BI00B32G2    SA22113 MW     202210197116-5097-02             TERMINAL                 CCN000022500000022500FN00000000020221101000022500NNM   20220905132245    4P0P  00002250000000531000000816232G2    AISUAI  006400630015
BI00B32G2    SA22114 MW     202210267116-5097-02             TERMINAL                 CCN000022500000022500FN00000000020221101000022500NNM   20220905132245    4P0P  00002250000000531000000816232G2    AISUAI  006400630015
BI00B32G2    SA22111 MW     202210057116-5750-02             TERMINAL                 CCN000900000000900000FN00000000020221101000900000NNM   20220905132245    4P0P  00001500000000457500000742732G2    AISUAI  006400630015
BI00B32G2    SA22112 MW     202210127116-5750-02             TERMINAL                 CCN000660000000660000FN00000000020221101000660000NNM   20220905132245    4P0P  00001500000000457500000742732G2    AISUAI  006400630015
BI00B32G2    SA22113 MW     202210197116-5750-02             TERMINAL                 CCN000600000000600000FN00000000020221101000600000NNM   20220905132245    4P0P  00001500000000457500000742732G2    AISUAI  006400630015
BI00B32G2    SA22114 MW     202210267116-5750-02             TERMINAL                 CCN000465000000465000FN00000000020221101000465000NNM   20220905132245    4P0P  00001500000000457500000742732G2    AISUAI  006400630015
BI00B32G2    SA22111 MW     202210057116-5751-02             TERMINAL                 CCN000252000000252000FN00000000020221101000252000NNM   20220905132245    4P0P  00001200000000379200000664432G2    AISUAI  006400630015
BI00B32G2    SA22112 MW     202210127116-5751-02             TERMINAL                 CCN000192000000192000FN00000000020221101000192000NNM   20220905132245    4P0P  00001200000000379200000664432G2    AISUAI  006400630015
BI00B32G2    SA22113 MW     202210197116-5751-02             TERMINAL                 CCN000132000000132000FN00000000020221101000132000NNM   20220905132245    4P0P  00001200000000379200000664432G2    AISUAI  006400630015
BI00B32G2    SA22114 MW     202210267116-5751-02             TERMINAL                 CCN000072000000072000FN00000000020221101000072000NNM   20220905132245    4P0P  00001200000000379200000664432G2    AISUAI  006400630015
BI00B32G2    SA22111 MW     202210057116-5752-02             TERMINAL                 CCN000588000000588000FN00000000020221101000588000NNM   20220905132245    4P0P  00002100000000571200000856432G2    AISUAI  006400630015
BI00B32G2    SA22112 MW     202210127116-5752-02             TERMINAL                 CCN000420000000420000FN00000000020221101000420000NNM   20220905132245    4P0P  00002100000000571200000856432G2    AISUAI  006400630015
BI00B32G2    SA22113 MW     202210197116-5752-02             TERMINAL                 CCN000315000000315000FN00000000020221101000315000NNM   20220905132245    4P0P  00002100000000571200000856432G2    AISUAI  006400630015
BI00B32G2    SA22114 MW     202210267116-5752-02             TERMINAL                 CCN000147000000147000FN00000000020221101000147000NNM   20220905132245    4P0P  00002100000000571200000856432G2    AISUAI  006400630015
BI00B32G2    SA22111 MW     202210057116-6041                TERMINAL                 CCN000031500000031500FN00000000020221101000031500NNM   20220905132245    4P0P  00000450000000716000001009632G2    AISUAI  006400630015
BI00B32G2    SA22112 MW     202210127116-6041                TERMINAL                 CCN000027000000027000FN00000000020221101000027000NNM   20220905132245    4P0P  00000450000000716000001009632G2    AISUAI  006400630015
BI00B32G2    SA22113 MW     202210197116-6041                TERMINAL                 CCN000022500000022500FN00000000020221101000022500NNM   20220905132245    4P0P  00000450000000716000001009632G2    AISUAI  006400630015
BI00B32G2    SA22114 MW     202210267116-6041                TERMINAL                 CCN000018000000018000FN00000000020221101000018000NNM   20220905132245    4P0P  00000450000000716000001009632G2    AISUAI  006400630015
BI00B32G2    SA22111 MW     202210057116-6042                TERMINAL                 CCN000090000000090000FN00000000020221101000090000NNM   20220905132245    4P0P  00000300000000523800000856132G2    AISUAI  006400630015
BI00B32G2    SA22112 MW     202210127116-6042                TERMINAL                 CCN000072000000072000FN00000000020221101000072000NNM   20220905132245    4P0P  00000300000000523800000856132G2    AISUAI  006400630015
BI00B32G2    SA22113 MW     202210197116-6042                TERMINAL                 CCN000057000000057000FN00000000020221101000057000NNM   20220905132245    4P0P  00000300000000523800000856132G2    AISUAI  006400630015
BI00B32G2    SA22114 MW     202210267116-6042                TERMINAL                 CCN000042000000042000FN00000000020221101000042000NNM   20220905132245    4P0P  00000300000000523800000856132G2    AISUAI  006400630015
BI00B32G2    SA22111 MW     202210057126-8850-02             TERMINAL                 CCN000018000000018000FN00000000020221101000018000NNM   20220905132245    1P0P  00000900000000672300000957532G2    AISUAI  006400630015
BI00B32G2    SA22112 MW     202210127126-8850-02             TERMINAL                 CCN000018000000018000FN00000000020221101000018000NNM   20220905132245    1P0P  00000900000000672300000957532G2    AISUAI  006400630015
BI00B32G2    SA22113 MW     202210197126-8850-02             TERMINAL                 CCN000009000000009000FN00000000020221101000009000NNM   20220905132245    1P0P  00000900000000672300000957532G2    AISUAI  006400630015
BI00B32G2    SA22114 MW     202210267126-8850-02             TERMINAL                 CCN000009000000009000FN00000000020221101000009000NNM   20220905132245    1P0P  00000900000000672300000957532G2    AISUAI  006400630015
BI00B32G2    SA22111 MW     202210057126-8851-02             TERMINAL                 CCN000018000000018000FN00000000020221101000018000NNM   20220905132245    1P0P  00000900000000739800001025032G2    AISUAI  006400630015
BI00B32G2    SA22112 MW     202210127126-8851-02             TERMINAL                 CCN000018000000018000FN00000000020221101000018000NNM   20220905132245    1P0P  00000900000000739800001025032G2    AISUAI  006400630015
BI00B32G2    SA22113 MW     202210197126-8851-02             TERMINAL                 CCN000009000000009000FN00000000020221101000009000NNM   20220905132245    1P0P  00000900000000739800001025032G2    AISUAI  006400630015
BI00B32G2    SA22114 MW     202210267126-8851-02             TERMINAL                 CCN000009000000009000FN00000000020221101000009000NNM   20220905132245    1P0P  00000900000000739800001025032G2    AISUAI  006400630015
BI00B32G2    SA22111 MW     202210057126-8852-02             TERMINAL                 CCN000022500000022500FN00000000020221101000022500NNM   20220905132245    1P0P  00000750000000648000000933232G2    AISUAI  006400630015
BI00B32G2    SA22112 MW     202210127126-8852-02             TERMINAL                 CCN000015000000015000FN00000000020221101000015000NNM   20220905132245    1P0P  00000750000000648000000933232G2    AISUAI  006400630015
BI00B32G2    SA22113 MW     202210197126-8852-02             TERMINAL                 CCN000015000000015000FN00000000020221101000015000NNM   20220905132245    1P0P  00000750000000648000000933232G2    AISUAI  006400630015
BI00B32G2    SA22114 MW     202210267126-8852-02             TERMINAL                 CCN000015000000015000FN00000000020221101000015000NNM   20220905132245    1P0P  00000750000000648000000933232G2    AISUAI  006400630015
BI00B32G2    SA22111 MW     202210057126-8853-02             TERMINAL                 CCN000315000000315000FN00000000020221101000315000NNM   20220905132245    4P0P  00000750000000562500000847732G2    AISUAI  006400630015
BI00B32G2    SA22112 MW     202210127126-8853-02             TERMINAL                 CCN000285000000285000FN00000000020221101000285000NNM   20220905132245    4P0P  00000750000000562500000847732G2    AISUAI  006400630015
BI00B32G2    SA22113 MW     202210197126-8853-02             TERMINAL                 CCN000270000000270000FN00000000020221101000270000NNM   20220905132245    4P0P  00000750000000562500000847732G2    AISUAI  006400630015
BI00B32G2    SA22114 MW     202210267126-8853-02             TERMINAL                 CCN000165000000165000FN00000000020221101000165000NNM   20220905132245    4P0P  00000750000000562500000847732G2    AISUAI  006400630015
BI00B32G2    SA22111 MW     202210057126-8854-02             TERMINAL                 CCN000247500000247500FN00000000020221101000247500NNM   20220905132245    4P0P  00000750000000604500000889732G2    AISUAI  006400630015
BI00B32G2    SA22112 MW     202210127126-8854-02             TERMINAL                 CCN000225000000225000FN00000000020221101000225000NNM   20220905132245    4P0P  00000750000000604500000889732G2    AISUAI  006400630015
BI00B32G2    SA22113 MW     202210197126-8854-02             TERMINAL                 CCN000172500000172500FN00000000020221101000172500NNM   20220905132245    4P0P  00000750000000604500000889732G2    AISUAI  006400630015
BI00B32G2    SA22114 MW     202210267126-8854-02             TERMINAL                 CCN000150000000150000FN00000000020221101000150000NNM   20220905132245    4P0P  00000750000000604500000889732G2    AISUAI  006400630015
BI00B32G2    SA22111 MW     202210057126-8855-02             TERMINAL                 CCN000162000000162000FN00000000020221101000162000NNM   20220905132245    4P0P  00000600000000510600000795832G2    AISUAI  006400630015
BI00B32G2    SA22112 MW     202210127126-8855-02             TERMINAL                 CCN000120000000120000FN00000000020221101000120000NNM   20220905132245    4P0P  00000600000000510600000795832G2    AISUAI  006400630015
