AE00TI102209050205/09/202200000003000000000000000009918KGM  00000011580KGM  7158-3006-90             RUBBER STOPPER           7158300690               0         0         0         0    0    0    00060000000002000000000016000096000000
AE00TI102209050205/09/202200000002800000000000000009464KGM  00000010814KGM  7158-3009-60             RUBBER STOPPER           7158300960               0         0         0         0    0    0    00056000000002000000000012000067200000
AE00TI102209050205/09/202200000001500000000000000007013KGM  00000007860KGM  7158-3022-80             RUBBER STOPPER           7158302280               0         0         0         0    0    0    00007500000000500000000070000052500000
AE00TI102209050205/09/202200000001800000000000000002232KGM  00000003103KGM  7158-3165-90             WIRE SEAL                7158316590               0         0         0         0    0    0    00072000000004000000000006000043200000
AE00TI102209050205/09/202200000003400000000000000003536KGM  00000005182KGM  7158-3166-60             WIRE SEAL                7158316660               0         0         0         0    0    0    00136000000004000000000004000054400000
AE00TI102209050205/09/202200000010000000000000000004800KGM  00000010900KGM  7158-3167-80             WIRE SEAL                7158316780               0         0         0         0    0    0    00200000000002000000000005000100000000
AE00TI102209050205/09/202200000000100000000000000000044KGM  00000000092KGM  7158-3168-80             SEALED                   7158316880               0         0         0         0    0    0    00002000000002000000000004000000800000
AE00TI102209050205/09/202200000000100000000000000000156KGM  00000000204KGM  7158-3169-40             SEALING PLUG             7158316940               0         0         0         0    0    0    00004000000004000000000006000002400000
AE00TI102209050205/09/202200000000600000000000000003922KGM  00000004210KGM  7172-5403-30             SEALED PACKING           7172540330               0         0         0         0    0    0    00002400000000400000000119000028560000
AE00TI102209050205/09/202200000000700000000000000006025KGM  00000007040KGM  7288-3332-30             HOUSING MALE             7288333230               0         0         0         0    0    0    00001050000000150000000354000037170000
AE00TI102209050205/09/202200000000100000000000000000867KGM  00000001012KGM  7288-3334-30             HOUSING MALE             7288333430               0         0         0         0    0    0    00000150000000150000000354000005310000
AE00TI102209050205/09/202200000001900000000000000016473KGM  00000019228KGM  7288-3339-30             HOUSING MALE             7288333930               0         0         0         0    0    0    00002850000000150000000354000100890000
AE00TI102209050205/09/202200000004600000000000000031574KGM  00000041464KGM  7289-3342                HOUSING FEMALE ASS'Y     72893342                 0         0         0         0    0    0    00011040000000240000000186000205344000
AE00TI102209050205/09/202200000000700000000000000004805KGM  00000006310KGM  7289-3342-40             HOUSING FEMALE ASS'Y     7289334240               0         0         0         0    0    0    00001680000000240000000192000032256000
AE00TI102209050205/09/202200000003000000000000000020592KGM  00000027042KGM  7289-3342-90             HOUSING FEMALE ASS'Y     7289334290               0         0         0         0    0    0    00007200000000240000000196000141120000
AE00TI102209050205/09/202200000000400000000000000003317KGM  00000004197KGM  7289-6518-30             HOUSING FEMALE ASS'Y     7289651830               0         0         0         0    0    0    00000480000000120000000598000028704000
AE00TI102209050205/09/202200000000200000000000000002195KGM  00000002717KGM  7298-4094-10             HOUSING FEMALE ASS'Y     7298409410               0         0         0         0    0    0    00000676000000338000000241000016291600
AE00TI102209050205/09/202200000001800000000000000023760KGM  00000028260KGM  7470-4481                J/B COMPLETE ASS'Y       74704481                 0         0         0         0    0    0    00000043200000002400000000000000000000
AE00TI102209050205/09/202200000001500000000000000000000KGM  00000000000KGM  7470-5783D               J/B COMPLETE ASS'Y       74705783D                0         0         0         0    0    0    00000022500000001500000000000000000000
AE00TI102209050205/09/202200000001500000000000000000000KGM  00000000000KGM  7470-5784D               J/B COMPLETE ASS'Y       74705784D                0         0         0         0    0    0    00000022500000001500000000000000000000
AE00TI102209050205/09/202200000001500000000000000000000KGM  00000000000KGM  7470-5791D               J/B COMPLETE ASS'Y       74705791D                0         0         0         0    0    0    00000022500000001500000000000000000000
AE00TI102209050205/09/202200000001000000000000000000000KGM  00000000000KGM  7470-5823E1              J/B COMPLETE ASS'Y       74705823E1               0         0         0         0    0    0    00000010000000001000000000000000000000
