AE00TO202209050305/09/202200000004500000000000000047098KGM  00000049298KGM  18000004534              AV 8 B/W                 AV 8 B/W                 0         0         0         0    0    0    00000000000045000000000211100009499500
AE00TO202209050305/09/202200000007900000000000000082683KGM  00000086547KGM  18000004550              AV 8 R                   AV 8 R                   0         0         0         0    0    0    00000000000079000000000211100016676900
AE00TO202209050305/09/202200000000500000000000000004960KGM  00000005205KGM  18007703730              AVSS 03F B               AVSS 03F B               0         0         0         0    0    0    00000000000100000000000011700001170000
AE00TO202209050305/09/202200000000100000000000000000992KGM  00000001041KGM  18007703740              AVSS 03F W               AVSS 03F W               0         0         0         0    0    0    00000000000020000000000011700000234000
AE00TO202209050305/09/202200000002100000000000000020832KGM  00000021859KGM  18007703760              AVSS 03F G               AVSS 03F G               0         0         0         0    0    0    00000000000420000000000011700004914000
AE00TO202209050305/09/202200000004500000000000000044640KGM  00000046840KGM  18007703770              AVSS 03F Y               AVSS 03F Y               0         0         0         0    0    0    00000000000900000000000011700010530000
AE00TO202209050305/09/202200000005100000000000000051792KGM  00000054285KGM  18018403950              CAVS 05 R                CAVS 05 R                0         0         0         0    0    0    00000000000765000000000015000011475000
AE00TO202209050305/09/202200000000300000000000000003047KGM  00000003193KGM  18018403953              CAVS 05 R/B              CAVS 05 R/B              0         0         0         0    0    0    00000000000045000000000015000000675000
AE00TO202209050305/09/202200000000400000000000000004063KGM  00000004257KGM  18018403954              CAVS 05 R/W              CAVS 05 R/W              0         0         0         0    0    0    00000000000060000000000015000000900000
AE00TO202209050305/09/202200000000400000000000000004062KGM  00000004258KGM  18018403955              CAVS 05 R/LG             CAVS 05 R/LG             0         0         0         0    0    0    00000000000060000000000015000000900000
AE00TO202209050305/09/202200000000700000000000000007109KGM  00000007450KGM  18018403956              CAVS 05 R/G              CAVS 05 R/G              0         0         0         0    0    0    00000000000105000000000015000001575000
AE00TO202209050305/09/202200000000400000000000000004062KGM  00000004258KGM  18018403957              CAVS 05 R/Y              CAVS 05 R/Y              0         0         0         0    0    0    00000000000060000000000015000000900000
AE00TO202209050305/09/202200000000400000000000000004500KGM  00000004696KGM  1801W003940              IVSSH 05F W              IVSSH 05F W              0         0         0         0    0    0    00000000000072000000000015400001108800
AE00TO202209050305/09/202200000003400000000000000038250KGM  00000039913KGM  1801W003943              IVSSH 05F W/B            IVSSH 05F W/B            0         0         0         0    0    0    00000000000612000000000015400009424800
AE00TO202209050305/09/202200000000200000000000000002250KGM  00000002348KGM  1801W003952              IVSSH 05F P              IVSSH 05F P              0         0         0         0    0    0    00000000000036000000000015400000554400
AE00TO202209050305/09/202200000000900000000000000010351KGM  00000010791KGM  1801W004240              IVSSH 2F W               IVSSH 2F W               0         0         0         0    0    0    00000000000049500000000055500002747250
AE00TO202209050305/09/202200000001800000000000000020702KGM  00000021582KGM  1801W004250              IVSSH 2F R               IVSSH 2F R               0         0         0         0    0    0    00000000000099000000000055500005494500
AE00TO202209050305/09/202200000001800000000000000020702KGM  00000021582KGM  1801W004290              IVSSH 2F L               IVSSH 2F L               0         0         0         0    0    0    00000000000099000000000055500005494500
AE00TO202209050305/09/202200000000400000000000000004520KGM  00000004716KGM  1801W006930              IVSSH 035F B             IVSSH 035F B             0         0         0         0    0    0    00000000000100000000000011400001140000
AE00TO202209050305/09/202200000000700000000000000007910KGM  00000008252KGM  1801W006950              IVSSH 035F R             IVSSH 035F R             0         0         0         0    0    0    00000000000175000000000011400001995000
AE00TO202209050305/09/202200000000100000000000000001130KGM  00000001179KGM  1801W006952              IVSSH 035F P             IVSSH 035F P             0         0         0         0    0    0    00000000000025000000000011400000285000
AE00TO202209050305/09/202200000000100000000000000001130KGM  00000001179KGM  1801W00695U              IVSSH 035F BE            IVSSH 035F BE            0         0         0         0    0    0    00000000000025000000000011400000285000
AE00TO202209050305/09/202200000000100000000000000001130KGM  00000001179KGM  1801W006980              IVSSH 035F BR            IVSSH 035F BR            0         0         0         0    0    0    00000000000025000000000011400000285000
AE00TO202209050305/09/202200000001500000000000000016950KGM  00000017684KGM  1801W006990              IVSSH 035F L             IVSSH 035F L             0         0         0         0    0    0    00000000000375000000000011400004275000
AE00TO202209050305/09/202200000004400000000000000049720KGM  00000051871KGM  1801W006992              IVSSH 035F V             IVSSH 035F V             0         0         0         0    0    0    00000000001100000000000011400012540000
AE00TO202209050305/09/202200000000200000000000000002067KGM  00000002165KGM  180D0203941              AVSSH 05F GY             AVSSH 05F GY             0         0         0         0    0    0    00000000000030000000000016300000489000
AE00TO202209050305/09/202200000000800000000000000008269KGM  00000008659KGM  180D0203950              AVSSH 05F R              AVSSH 05F R              0         0         0         0    0    0    00000000000120000000000016300001956000
AE00TO202209050305/09/202200000001000000000000000010335KGM  00000010824KGM  180D0203952              AVSSH 05F P              AVSSH 05F P              0         0         0         0    0    0    00000000000150000000000016300002445000
AE00TO202209050305/09/202200000000100000000000000001034KGM  00000001082KGM  180D0203953              AVSSH 05F R/B            AVSSH 05F R/B            0         0         0         0    0    0    00000000000015000000000016300000244500
AE00TO202209050305/09/202200000000100000000000000001034KGM  00000001082KGM  180D0203954              AVSSH 05F R/W            AVSSH 05F R/W            0         0         0         0    0    0    00000000000015000000000016300000244500
AE00TO202209050305/09/202200000000500000000000000005168KGM  00000005412KGM  180D0203980              AVSSH 05F BR             AVSSH 05F BR             0         0         0         0    0    0    00000000000075000000000016300001222500
AE00TO202209050305/09/202200000001000000000000000010335KGM  00000010824KGM  180D0203990              AVSSH 05F L              AVSSH 05F L              0         0         0         0    0    0    00000000000150000000000016300002445000
AE00TO202209050305/09/202200000000500000000000000005168KGM  00000005412KGM  180D0203992              AVSSH 05F V              AVSSH 05F V              0         0         0         0    0    0    00000000000075000000000016300001222500
AE00TO202209050305/09/202200000000400000000000000004134KGM  00000004330KGM  180D0203994              AVSSH 05F L/W            AVSSH 05F L/W            0         0         0         0    0    0    00000000000060000000000016300000978000
AE00TO202209050305/09/202200000000200000000000000002067KGM  00000002165KGM  180D0203995              AVSSH 05F L/R            AVSSH 05F L/R            0         0         0         0    0    0    00000000000030000000000016300000489000
AE00TO202209050305/09/202200000000100000000000000001034KGM  00000001082KGM  180D0203997              AVSSH 05F L/Y            AVSSH 05F L/Y            0         0         0         0    0    0    00000000000015000000000016300000244500
AE00TO202209050305/09/202200000000300000000000000003499KGM  00000003646KGM  180D0204130              AVSSH 125F B             AVSSH 125F B             0         0         0         0    0    0    00000000000024000000000035700000856800
AE00TO202209050305/09/202200000000200000000000000002333KGM  00000002431KGM  180D0204153              AVSSH 125F R/B           AVSSH 125F R/B           0         0         0         0    0    0    00000000000016000000000035700000571200
AE00TO202209050305/09/202200000000200000000000000002333KGM  00000002431KGM  180D0204160              AVSSH 125F G             AVSSH 125F G             0         0         0         0    0    0    00000000000016000000000035700000571200
AE00TO202209050305/09/202200000001400000000000000016330KGM  00000017014KGM  180D0204170              AVSSH 125F Y             AVSSH 125F Y             0         0         0         0    0    0    00000000000112000000000035700003998400
AE00TO202209050305/09/202200000001200000000000000013997KGM  00000014583KGM  180D0204180              AVSSH 125F BR            AVSSH 125F BR            0         0         0         0    0    0    00000000000096000000000035700003427200
AE00TO202209050305/09/202200000000100000000000000001166KGM  00000001215KGM  180D0204190              AVSSH 125F L             AVSSH 125F L             0         0         0         0    0    0    00000000000008000000000035700000285600
AE00TO202209050305/09/202200000001100000000000000012831KGM  00000013369KGM  180D0204192              AVSSH 125F V             AVSSH 125F V             0         0         0         0    0    0    00000000000088000000000035700003141600
AE00TO202209050305/09/202200000002500000000000000019279KGM  00000020501KGM  181AD2002ZZ              CIVUSAS-S 035X2 B        CIVUSAS-S 035X2 B        0         0         0         0    0    0    00000000000112500000000043700004916250
AE00TO202209050305/09/202200000001000000000000000007602KGM  00000008092KGM  181AD2003ZZ              CIVUSAS-S 035X3 B        CIVUSAS-S 035X3 B        0         0         0         0    0    0    00000000000035000000000055300001935500
AE00TO202209050305/09/202200000008500000000000000071398KGM  00000075553KGM  181AD2004ZZ              CIVUSAS-S 035X4 B        CIVUSAS-S 035X4 B        0         0         0         0    0    0    00000000000255000000000066700017008500
AE00TO202209050305/09/202200000000500000000000000004056KGM  00000004300KGM  181AD2008ZZ              CIVUSAS-S 05X2 B         CIVUSAS-S 05X2 B         0         0         0         0    0    0    00000000000020000000000051400001028000
AE00TO202209050305/09/202200000000200000000000000001690KGM  00000001787KGM  181AD2013ZZ              CIVUSAS-S 125X2 B        CIVUSAS-S 125X2 B        0         0         0         0    0    0    00000000000004400000000097600000429440
AE00TO202209050305/09/202200000000400000000000000002778KGM  00000002974KGM  181E48013ZZ              CAVSAS-S 03X3 GY         CAVSAS-S 03X3 GY         0         0         0         0    0    0    00000000000010000000000059600000596000
AE00TO202209050305/09/202200000008800000000000000071764KGM  00000076066KGM  181E48037ZZ              CAVSAS-S 03X4 GY         CAVSAS-S 03X4 GY         0         0         0         0    0    0    00000000000220000000000079200017424000
AE00TO202209050305/09/202200000000700000000000000005347KGM  00000005690KGM  181E50005ZZ              AVSSCS-S 05FX1 DGY/W     AVSSCS-S 05FX1 DGY/W     0         0         0         0    0    0    00000000000028000000000050400001411200
AE00TO202209050305/09/202200000000100000000000000000764KGM  00000000813KGM  181E50006ZZ              AVSSCS-S 05FX1 DGY/Y     AVSSCS-S 05FX1 DGY/Y     0         0         0         0    0    0    00000000000004000000000050400000201600
AE00TO202209050305/09/202200000000100000000000000000764KGM  00000000813KGM  181E50007ZZ              AVSSCS-S 05FX1 DGY/L     AVSSCS-S 05FX1 DGY/L     0         0         0         0    0    0    00000000000004000000000050400000201600
AE00TO202209050305/09/202200000000200000000000000001516KGM  00000001613KGM  181E50036ZZ              AVSSCS-S 03FX2 DGY       AVSSCS-S 03FX2 DGY       0         0         0         0    0    0    00000000000007000000000059400000415800
AE00TO202209050305/09/202200000000300000000000000002289KGM  00000002436KGM  181F21002ZZ              AVSSHCS-S 05FX1 B        AVSSHCS-S 05FX1 B        0         0         0         0    0    0    00000000000012000000000053700000644400
AE00TO202209050305/09/202200000004200000000000000032061KGM  00000034115KGM  181F21003ZZ              AVSSHCS-S 05FX1 B/W      AVSSHCS-S 05FX1 B/W      0         0         0         0    0    0    00000000000168000000000053700009021600
AE00TO202209050305/09/202200000000600000000000000004580KGM  00000004873KGM  181F21004ZZ              AVSSHCS-S 05FX1 B/R      AVSSHCS-S 05FX1 B/R      0         0         0         0    0    0    00000000000024000000000053700001288800
AE00TO202209050305/09/202200000000700000000000000005344KGM  00000005685KGM  181F21006ZZ              AVSSHCS-S 05FX1 B/Y      AVSSHCS-S 05FX1 B/Y      0         0         0         0    0    0    00000000000028000000000053700001503600
AE00TO202209050305/09/202200000000100000000000000000763KGM  00000000812KGM  181F21008ZZ              AVSSHCS-S 05FX1 B/V      AVSSHCS-S 05FX1 B/V      0         0         0         0    0    0    00000000000004000000000053700000214800
