AE00TO202209050205/09/202200000004100000000000000042911KGM  00000044916KGM  18000004550              AV 8 R                   AV 8 R                   0         0         0         0    0    0    00000000000041000000000211100008655100
AE00TO202209050205/09/202200000003400000000000000033728KGM  00000035390KGM  18007703730              AVSS 03F B               AVSS 03F B               0         0         0         0    0    0    00000000000680000000000011700007956000
AE00TO202209050205/09/202200000003200000000000000035558KGM  00000037123KGM  18007704150              AVSS 125F R              AVSS 125F R              0         0         0         0    0    0    00000000000256000000000034700008883200
AE00TO202209050205/09/202200000005800000000000000064450KGM  00000067285KGM  18007704152              AVSS 125F P              AVSS 125F P              0         0         0         0    0    0    00000000000464000000000034700016100800
AE00TO202209050205/09/202200000011500000000000000137563KGM  00000143185KGM  18009604440              AVS 5 W                  AVS 5 W                  0         0         0         0    0    0    00000000000230000000000137600031648000
AE00TO202209050205/09/202200000000900000000000000010766KGM  00000011206KGM  18009604450              AVS 5 R                  AVS 5 R                  0         0         0         0    0    0    00000000000018000000000137600002476800
AE00TO202209050205/09/202200000002300000000000000027513KGM  00000028637KGM  18009604460              AVS 5 G                  AVS 5 G                  0         0         0         0    0    0    00000000000046000000000137600006329600
AE00TO202209050205/09/202200000001300000000000000013202KGM  00000013837KGM  18018403930              CAVS 05 B                CAVS 05 B                0         0         0         0    0    0    00000000000195000000000015000002925000
AE00TO202209050205/09/202200000000100000000000000001016KGM  00000001064KGM  18018403934              CAVS 05 B/W              CAVS 05 B/W              0         0         0         0    0    0    00000000000015000000000015000000225000
AE00TO202209050205/09/202200000000200000000000000002031KGM  00000002129KGM  18018403936              CAVS 05 B/G              CAVS 05 B/G              0         0         0         0    0    0    00000000000030000000000015000000450000
AE00TO202209050205/09/202200000000800000000000000008124KGM  00000008515KGM  18018403939              CAVS 05 B/L              CAVS 05 B/L              0         0         0         0    0    0    00000000000120000000000015000001800000
AE00TO202209050205/09/202200000000400000000000000004062KGM  00000004258KGM  18018403960              CAVS 05 G                CAVS 05 G                0         0         0         0    0    0    00000000000060000000000015000000900000
AE00TO202209050205/09/202200000000800000000000000008124KGM  00000008515KGM  18018403980              CAVS 05 BR               CAVS 05 BR               0         0         0         0    0    0    00000000000120000000000015000001800000
AE00TO202209050205/09/202200000000700000000000000007109KGM  00000007451KGM  18018403984              CAVS 05 BR/W             CAVS 05 BR/W             0         0         0         0    0    0    00000000000105000000000015000001575000
AE00TO202209050205/09/202200000000200000000000000002031KGM  00000002129KGM  18018403992              CAVS 05 V                CAVS 05 V                0         0         0         0    0    0    00000000000030000000000015000000450000
AE00TO202209050205/09/202200000001000000000000000012280KGM  00000012769KGM  1801R704130              CIVUS 125 B              CIVUS 125 B              0         0         0         0    0    0    00000000000100000000000031500003150000
AE00TO202209050205/09/202200000000500000000000000006140KGM  00000006384KGM  1801R704143              CIVUS 125 W/B            CIVUS 125 W/B            0         0         0         0    0    0    00000000000050000000000031500001575000
AE00TO202209050205/09/202200000004500000000000000055260KGM  00000057460KGM  1801R704150              CIVUS 125 R              CIVUS 125 R              0         0         0         0    0    0    00000000000450000000000031500014175000
AE00TO202209050205/09/202200000000100000000000000001228KGM  00000001277KGM  1801R704161              CIVUS 125 LG             CIVUS 125 LG             0         0         0         0    0    0    00000000000010000000000031500000315000
AE00TO202209050205/09/202200000000200000000000000002456KGM  00000002554KGM  1801R704180              CIVUS 125 BR             CIVUS 125 BR             0         0         0         0    0    0    00000000000020000000000031500000630000
AE00TO202209050205/09/202200000000300000000000000003375KGM  00000003522KGM  1801W003940              IVSSH 05F W              IVSSH 05F W              0         0         0         0    0    0    00000000000054000000000015400000831600
AE00TO202209050205/09/202200000000100000000000000001125KGM  00000001174KGM  1801W003943              IVSSH 05F W/B            IVSSH 05F W/B            0         0         0         0    0    0    00000000000018000000000015400000277200
AE00TO202209050205/09/202200000012200000000000000137250KGM  00000143215KGM  1801W003950              IVSSH 05F R              IVSSH 05F R              0         0         0         0    0    0    00000000002196000000000015400033818400
AE00TO202209050205/09/202200000001100000000000000012375KGM  00000012912KGM  1801W003952              IVSSH 05F P              IVSSH 05F P              0         0         0         0    0    0    00000000000198000000000015400003049200
AE00TO202209050205/09/202200000000100000000000000001125KGM  00000001174KGM  1801W003990              IVSSH 05F L              IVSSH 05F L              0         0         0         0    0    0    00000000000018000000000015400000277200
AE00TO202209050205/09/202200000001200000000000000013560KGM  00000014148KGM  1801W006930              IVSSH 035F B             IVSSH 035F B             0         0         0         0    0    0    00000000000300000000000011400003420000
AE00TO202209050205/09/202200000003100000000000000035030KGM  00000036546KGM  1801W006950              IVSSH 035F R             IVSSH 035F R             0         0         0         0    0    0    00000000000775000000000011400008835000
AE00TO202209050205/09/202200000001400000000000000015820KGM  00000016505KGM  1801W006952              IVSSH 035F P             IVSSH 035F P             0         0         0         0    0    0    00000000000350000000000011400003990000
AE00TO202209050205/09/202200000000500000000000000005650KGM  00000005895KGM  1801W00695U              IVSSH 035F BE            IVSSH 035F BE            0         0         0         0    0    0    00000000000125000000000011400001425000
AE00TO202209050205/09/202200000000600000000000000006780KGM  00000007074KGM  1801W006970              IVSSH 035F Y             IVSSH 035F Y             0         0         0         0    0    0    00000000000150000000000011400001710000
AE00TO202209050205/09/202200000000700000000000000007910KGM  00000008252KGM  1801W006980              IVSSH 035F BR            IVSSH 035F BR            0         0         0         0    0    0    00000000000175000000000011400001995000
AE00TO202209050205/09/202200000004700000000000000053110KGM  00000055408KGM  1801W006990              IVSSH 035F L             IVSSH 035F L             0         0         0         0    0    0    00000000001175000000000011400013395000
AE00TO202209050205/09/202200000010900000000000000123170KGM  00000128499KGM  1801W006992              IVSSH 035F V             IVSSH 035F V             0         0         0         0    0    0    00000000002725000000000011400031065000
AE00TO202209050205/09/202200000000100000000000000001034KGM  00000001082KGM  180D0203940              AVSSH 05F W              AVSSH 05F W              0         0         0         0    0    0    00000000000015000000000016300000244500
AE00TO202209050205/09/202200000000100000000000000001034KGM  00000001082KGM  180D0203943              AVSSH 05F W/B            AVSSH 05F W/B            0         0         0         0    0    0    00000000000015000000000016300000244500
AE00TO202209050205/09/202200000000100000000000000001034KGM  00000001082KGM  180D0203970              AVSSH 05F Y              AVSSH 05F Y              0         0         0         0    0    0    00000000000015000000000016300000244500
AE00TO202209050205/09/202200000000500000000000000005832KGM  00000006076KGM  180D0204130              AVSSH 125F B             AVSSH 125F B             0         0         0         0    0    0    00000000000040000000000035700001428000
AE00TO202209050205/09/202200000001600000000000000018662KGM  00000019445KGM  180D0204150              AVSSH 125F R             AVSSH 125F R             0         0         0         0    0    0    00000000000128000000000035700004569600
AE00TO202209050205/09/202200000001000000000000000011664KGM  00000012153KGM  180D0204160              AVSSH 125F G             AVSSH 125F G             0         0         0         0    0    0    00000000000080000000000035700002856000
AE00TO202209050205/09/202200000000100000000000000001166KGM  00000001215KGM  180D0204180              AVSSH 125F BR            AVSSH 125F BR            0         0         0         0    0    0    00000000000008000000000035700000285600
AE00TO202209050205/09/202200000013400000000000000156298KGM  00000162849KGM  180D0204190              AVSSH 125F L             AVSSH 125F L             0         0         0         0    0    0    00000000001072000000000035700038270400
AE00TO202209050205/09/202200000009000000000000000068422KGM  00000072822KGM  181AD2003ZZ              CIVUSAS-S 035X3 B        CIVUSAS-S 035X3 B        0         0         0         0    0    0    00000000000315000000000055300017419500
AE00TO202209050205/09/202200000000100000000000000000804KGM  00000000852KGM  181AD2010ZZ              CIVUSAS-S 05X4 B         CIVUSAS-S 05X4 B         0         0         0         0    0    0    00000000000002500000000083700000209250
AE00TO202209050205/09/202200000001000000000000000007050KGM  00000007540KGM  181CQ7003ZZ              IVSSHCS-S 05FX2 B(B,W)   IVSSHCS-S 05FX2 B(B,W)   0         0         0         0    0    0    00000000000030000000000072600002178000
AE00TO202209050205/09/202200000000700000000000000004935KGM  00000005278KGM  181CQ7004ZZ              IVSSHCS-S 05FX2 B(R,G)   IVSSHCS-S 05FX2 B(R,G)   0         0         0         0    0    0    00000000000021000000000072600001524600
AE00TO202209050205/09/202200000000400000000000000002812KGM  00000003008KGM  181E48031ZZ              CAVSAS-S 03X2 GY         CAVSAS-S 03X2 GY         0         0         0         0    0    0    00000000000014000000000045900000642600
AE00TO202209050205/09/202200000000700000000000000005347KGM  00000005690KGM  181E50000ZZ              AVSSCS-S 05FX1 DGY/BR    AVSSCS-S 05FX1 DGY/BR    0         0         0         0    0    0    00000000000028000000000050400001411200
AE00TO202209050205/09/202200000003100000000000000023680KGM  00000025196KGM  181E50004ZZ              AVSSCS-S 05FX1 DGY       AVSSCS-S 05FX1 DGY       0         0         0         0    0    0    00000000000124000000000050400006249600
AE00TO202209050205/09/202200000000200000000000000001528KGM  00000001626KGM  181E50013ZZ              AVSSCS-S 05FX1 DGY/G     AVSSCS-S 05FX1 DGY/G     0         0         0         0    0    0    00000000000008000000000050400000403200
AE00TO202209050205/09/202200000002000000000000000015155KGM  00000016133KGM  181E50036ZZ              AVSSCS-S 03FX2 DGY       AVSSCS-S 03FX2 DGY       0         0         0         0    0    0    00000000000070000000000059400004158000
AE00TO202209050205/09/202200000003700000000000000028245KGM  00000030052KGM  181F21002ZZ              AVSSHCS-S 05FX1 B        AVSSHCS-S 05FX1 B        0         0         0         0    0    0    00000000000148000000000053700007947600
AE00TO202209050205/09/202200000000300000000000000002290KGM  00000002437KGM  181F21008ZZ              AVSSHCS-S 05FX1 B/V      AVSSHCS-S 05FX1 B/V      0         0         0         0    0    0    00000000000012000000000053700000644400
