AE00TI102209050105/09/202200000000200000000000000002148KGM  00000002858KGM  7288-6598-70             HOUSING MALE ASS'Y       7288659870               0         0         0         0    0    0    00000288000000144000000911000026236800
AE00TI102209050105/09/202200000003200000000000000021965KGM  00000028845KGM  7289-3342-30             HOUSING FEMALE ASS'Y     7289334230               0         0         0         0    0    0    00007680000000240000000191000146688000
AE00TI102209050105/09/202200000000100000000000000001172KGM  00000001369KGM  7289-5011-30             HOUSING FEMALE ASS'Y     7289501130               0         0         0         0    0    0    00000240000000240000000333000007992000
AE00TI102209050105/09/202200000001000000000000000011090KGM  00000015215KGM  7289-9553-30             SEALED ASSY FEMALE       7289955330               0         0         0         0    0    0    00002940000000294000000245000072030000
AE00TI102209050105/09/202200000001900000000000000019061KGM  00000022886KGM  7298-1865-30             HOUSING FEMALE ASS'Y     7298186530               0         0         0         0    0    0    00004560000000240000000196000089376000
AE00TI102209050105/09/202200000007500000000000000055650KGM  00000084150KGM  7388-2978-30             HOUSING MALE ASS'Y       7388297830               0         0         0         0    0    0    00003600000000048000001790000644400000
AE00TI102209050105/09/202200000001200000000000000000000KGM  00000000000KGM  7470-5782D               J/B COMPLETE ASS'Y       74705782D                0         0         0         0    0    0    00000018000000001500000000000000000000
AE00TI102209050105/09/202200000000900000000000000000000KGM  00000000000KGM  7470-5783D               J/B COMPLETE ASS'Y       74705783D                0         0         0         0    0    0    00000013500000001500000000000000000000
AE00TI102209050105/09/202200000002000000000000000000000KGM  00000000000KGM  7470-5783E               J/B COMPLETE ASS'Y       74705783E                0         0         0         0    0    0    00000020000000001000000000000000000000
AE00TI102209050105/09/202200000001500000000000000000000KGM  00000000000KGM  7470-5791D               J/B COMPLETE ASS'Y       74705791D                0         0         0         0    0    0    00000022500000001500000000000000000000
AE00TI102209050105/09/202200000001000000000000000000000KGM  00000000000KGM  7470-5791E               J/B COMPLETE ASS'Y       74705791E                0         0         0         0    0    0    00000010000000001000000000000000000000
AE00TI102209050105/09/202200000001800000000000000000000KGM  00000000000KGM  7470-5823E               J/B COMPLETE ASS'Y       74705823E                0         0         0         0    0    0    00000018000000001000000000000000000000
