AE00TI102209050505/09/202200000000300000000000000001868KGM  00000002286KGM  7B74-1849-70             COVER                    7B74184970               0         0         0         0    0    0    00007500000002500000000046000034500000
AE00TI102209050505/09/202200000000800000000000000007006KGM  00000009354KGM  7114-4020                TERMINAL                 71144020                 0         0         0         0    0    0    00016800000002100000000023000038640000
AE00TI102209050505/09/202200000001600000000000000007320KGM  00000011883KGM  7116-5750-02             TERMINAL                 7116575002               0         0         0         0    0    0    00024000000001500000000025000060000000
AE00TI102209050505/09/202200000002400000000000000014508KGM  00000021353KGM  7126-8854-02             TERMINAL                 7126885402               0         0         0         0    0    0    00018000000000750000000059000106200000
AE00TI102209050505/09/202200000002800000000000000009257KGM  00000010808KGM  7158-3006-90             RUBBER STOPPER           7158300690               0         0         0         0    0    0    00056000000002000000000016000089600000
AE00TI102209050505/09/202200000001600000000000000005408KGM  00000006179KGM  7158-3009-60             RUBBER STOPPER           7158300960               0         0         0         0    0    0    00032000000002000000000012000038400000
AE00TI102209050505/09/202200000000300000000000000001403KGM  00000001572KGM  7158-3022-80             RUBBER STOPPER           7158302280               0         0         0         0    0    0    00001500000000500000000070000010500000
AE00TI102209050505/09/202200000000300000000000000000372KGM  00000000517KGM  7158-3165-90             WIRE SEAL                7158316590               0         0         0         0    0    0    00012000000004000000000006000007200000
AE00TI102209050505/09/202200000000700000000000000000728KGM  00000001067KGM  7158-3166-60             WIRE SEAL                7158316660               0         0         0         0    0    0    00028000000004000000000004000011200000
AE00TI102209050505/09/202200000000600000000000000000288KGM  00000000654KGM  7158-3167-80             WIRE SEAL                7158316780               0         0         0         0    0    0    00012000000002000000000005000006000000
AE00TI102209050505/09/202200000000600000000000000000264KGM  00000000553KGM  7158-3168-80             SEALED                   7158316880               0         0         0         0    0    0    00012000000002000000000004000004800000
AE00TI102209050505/09/202200000000200000000000000001245KGM  00000001524KGM  7174-1849-70             COVER                    7174184970               0         0         0         0    0    0    00005000000002500000000046000023000000
AE00TI102209050505/09/202200000000100000000000000001137KGM  00000001298KGM  7183-2417                CONNECTOR HOUSING        71832417                 0         0         0         0    0    0    00000240000000240000000138000003312000
AE00TI102209050505/09/202200000000500000000000000005140KGM  00000005585KGM  7183-8257-40             HOUSING                  7183825740               0         0         0         0    0    0    00000600000000120000000247000014820000
AE00TI102209050505/09/202200000004000000000000000009592KGM  00000019592KGM  7271-1820-30             CASE SUB ASSY,ECU        7271182030               0         0         0         0    0    0    00000072000000001800009576000068947200
AE00TI102209050505/09/202200000001300000000000000008923KGM  00000011718KGM  7289-3342-30             HOUSING FEMALE ASS'Y     7289334230               0         0         0         0    0    0    00003120000000240000000191000059592000
AE00TI102209050505/09/202200000000200000000000000002343KGM  00000002737KGM  7289-5011-30             HOUSING FEMALE ASS'Y     7289501130               0         0         0         0    0    0    00000480000000240000000333000015984000
AE00TI102209050505/09/202200000000700000000000000006871KGM  00000009030KGM  7298-5993-30             SEALED ASSY FEMALE       7298599330               0         0         0         0    0    0    00001528800000218400000266000040666080
AE00TI102209050505/09/202200000002200000000000000019149KGM  00000027720KGM  7370-0309                J/B ASS'Y                73700309                 0         0         0         0    0    0    00000035200000001600028585000100619200
AE00TI102209050505/09/202200000003200000000000000023744KGM  00000035904KGM  7388-2978-30             HOUSING MALE ASS'Y       7388297830               0         0         0         0    0    0    00001536000000048000001790000274944000
AE00TI102209050505/09/202200000000900000000000000011880KGM  00000014130KGM  7470-4481                J/B COMPLETE ASS'Y       74704481                 0         0         0         0    0    0    00000021600000002400000000000000000000
AE00TI102209050505/09/202200000001600000000000000000000KGM  00000000000KGM  7470-4818E               J/B COMPLETE ASS'Y       74704818E                0         0         0         0    0    0    00000016000000001000000000000000000000
AE00TI102209050505/09/202200000000900000000000000011880KGM  00000014130KGM  7470-5237                J/B ASS'Y                74705237                 0         0         0         0    0    0    00000021600000002400031359000067735440
AE00TI102209050505/09/202200000002000000000000000000000KGM  00000000000KGM  7470-5301                J/B COMPLETE ASS'Y       74705301                 0         0         0         0    0    0    00000020000000001000000000000000000000
