AE00TI102209050405/09/202200000000300000000000000000750KGM  00000000918KGM  7158-3003-90             RUBBER STOPPER           7158300390               0         0         0         0    0    0    00006000000002000000000012000007200000
AE00TI102209050405/09/202200000000400000000000000002918KGM  00000003332KGM  7182-2412                HOUSING MALE             71822412                 0         0         0         0    0    0    00000200000000050000000638000012760000
AE00TI102209050405/09/202200000000200000000000000001519KGM  00000002049KGM  7187-3356                JOINT CONNECTOR          71873356                 0         0         0         0    0    0    00000240000000120000001038000024912000
AE00TI102209050405/09/202200000004000000000000000009592KGM  00000019592KGM  7271-1820-30             CASE SUB ASSY,ECU        7271182030               0         0         0         0    0    0    00000072000000001800009576000068947200
AE00TI102209050405/09/202200000000800000000000000006261KGM  00000007941KGM  7282-4578                HOUSING MALE ASS'Y       72824578                 0         0         0         0    0    0    00000960000000120000000255000024480000
AE00TI102209050405/09/202200000000400000000000000004253KGM  00000005133KGM  7282-4855                HOUSING MALE ASS'Y       72824855                 0         0         0         0    0    0    00000480000000120000000347000016656000
AE00TI102209050405/09/202200000000100000000000000001124KGM  00000001213KGM  7282-7028-30             CONNECTOR                7282702830               0         0         0         0    0    0    00000200000000200000000248000004960000
AE00TI102209050405/09/202200000001000000000000000010176KGM  00000012376KGM  7282-9391                HOUSING MALE ASS'Y       72829391                 0         0         0         0    0    0    00001200000000120000000325000039000000
AE00TI102209050405/09/202200000000600000000000000003908KGM  00000005228KGM  7283-4576                HOUSING FEMALE ASS'Y     72834576                 0         0         0         0    0    0    00002880000000480000000128000036864000
AE00TI102209050405/09/202200000000100000000000000000651KGM  00000000871KGM  7283-4576-30             HOUSING FEMALE ASS'Y     7283457630               0         0         0         0    0    0    00000480000000480000000131000006288000
AE00TI102209050405/09/202200000000700000000000000005863KGM  00000007403KGM  7283-4578                HOUSING FEMALE ASS'Y     72834578                 0         0         0         0    0    0    00001680000000240000000190000031920000
AE00TI102209050405/09/202200000000100000000000000000954KGM  00000001104KGM  7283-5830                CONNECTOR                72835830                 0         0         0         0    0    0    00000600000000600000000154000009240000
AE00TI102209050405/09/202200000000100000000000000000954KGM  00000001104KGM  7283-5830-30             CONNECTOR                7283583030               0         0         0         0    0    0    00000600000000600000000155000009300000
AE00TI102209050405/09/202200000000100000000000000000724KGM  00000000874KGM  7283-5832                CONNECTOR HOUSING        72835832                 0         0         0         0    0    0    00000240000000240000000206000004944000
AE00TI102209050405/09/202200000000400000000000000003556KGM  00000004528KGM  7283-5843                CONNECTOR                72835843                 0         0         0         0    0    0    00000600000000150000000280000016800000
AE00TI102209050405/09/202200000000300000000000000001332KGM  00000001819KGM  7283-5845                CONNECTOR HOUSING        72835845                 0         0         0         0    0    0    00001800000000600000000133000023940000
AE00TI102209050405/09/202200000000100000000000000000444KGM  00000000606KGM  7283-5845-30             CONNECTOR HOUSING        7283584530               0         0         0         0    0    0    00000600000000600000000133000007980000
AE00TI102209050405/09/202200000003700000000000000032745KGM  00000040774KGM  7283-5846                HOUSING                  72835846                 0         0         0         0    0    0    00005550000000150000000241000133755000
AE00TI102209050405/09/202200000000300000000000000001050KGM  00000001388KGM  7283-8721-30             HOUSING FEMALE ASS'Y     7283872130               0         0         0         0    0    0    00000300000000100000000415000012450000
AE00TI102209050405/09/202200000001200000000000000010927KGM  00000013567KGM  7286-3885                CONNECTOR MALE ASS'Y     72863885                 0         0         0         0    0    0    00001440000000120000000295000042480000
AE00TI102209050405/09/202200000000500000000000000004553KGM  00000005653KGM  7286-3885-40             CONNECTOR MALE ASS'Y     7286388540               0         0         0         0    0    0    00000600000000120000000313000018780000
AE00TI102209050405/09/202200000000600000000000000004608KGM  00000005868KGM  7286-4097                CONNECTOR MALE ASS'Y     72864097                 0         0         0         0    0    0    00000960000000160000000196000018816000
AE00TI102209050405/09/202200000000200000000000000002122KGM  00000002625KGM  7287-1917                CONNECTOR FEMALE         72871917                 0         0         0         0    0    0    00000480000000240000000253000012144000
AE00TI102209050405/09/202200000000100000000000000000614KGM  00000000834KGM  7287-2705                HOUSING FEMALE ASS'Y     72872705                 0         0         0         0    0    0    00000960000000960000000148000014208000
AE00TI102209050405/09/202200000000300000000000000003089KGM  00000003749KGM  7287-3885                HYBRID FEMALE ASS'Y      72873885                 0         0         0         0    0    0    00000720000000240000000207000014904000
AE00TI102209050405/09/202200000000300000000000000003089KGM  00000003749KGM  7287-3885-30             HYBRID FEMALE ASS'Y      7287388530               0         0         0         0    0    0    00000720000000240000000215000015480000
AE00TI102209050405/09/202200000000100000000000000001030KGM  00000001250KGM  7287-3885-40             HYBRID FEMALE ASS'Y      7287388540               0         0         0         0    0    0    00000240000000240000000216000005184000
AE00TI102209050405/09/202200000000300000000000000003499KGM  00000004159KGM  7287-8073                HOUSING FEMALE ASS'Y     72878073                 0         0         0         0    0    0    00000720000000240000000244000017568000
AE00TI102209050405/09/202200000000600000000000000002326KGM  00000004726KGM  7288-3206                HOUSING MALE ASS'Y       72883206                 0         0         0         0    0    0    00000612000000102000000351000021481200
AE00TI102209050405/09/202200000003800000000000000026083KGM  00000034253KGM  7289-3342                HOUSING FEMALE ASS'Y     72893342                 0         0         0         0    0    0    00009120000000240000000186000169632000
AE00TI102209050405/09/202200000007000000000000000048048KGM  00000063098KGM  7289-3342-30             HOUSING FEMALE ASS'Y     7289334230               0         0         0         0    0    0    00016800000000240000000191000320880000
AE00TI102209050405/09/202200000001300000000000000008923KGM  00000011718KGM  7289-3342-40             HOUSING FEMALE ASS'Y     7289334240               0         0         0         0    0    0    00003120000000240000000192000059904000
AE00TI102209050405/09/202200000000600000000000000004118KGM  00000005408KGM  7289-3342-90             HOUSING FEMALE ASS'Y     7289334290               0         0         0         0    0    0    00001440000000240000000196000028224000
AE00TI102209050405/09/202200000000200000000000000002304KGM  00000002724KGM  7289-6547                HOUSING FEMALE ASS'Y     72896547                 0         0         0         0    0    0    00000480000000240000000229000010992000
AE00TI102209050405/09/202200000000200000000000000002558KGM  00000003187KGM  7289-7208-30             HOUSING FEMALE ASS'Y     7289720830               0         0         0         0    0    0    00000048000000024000004419000021211200
AE00TI102209050405/09/202200000000200000000000000002614KGM  00000003244KGM  7289-7211-30             HOUSING FEMALE ASS'Y     7289721130               0         0         0         0    0    0    00000048000000024000004728000022694400
AE00TI102209050405/09/202200000001000000000000000007382KGM  00000009647KGM  7289-7970                HYBRID FEMALE ASS'Y      72897970                 0         0         0         0    0    0    00000320000000032000000956000030592000
AE00TI102209050405/09/202200000000300000000000000003486KGM  00000003854KGM  7386-2747                CONNECTOR ASS'Y          73862747                 0         0         0         0    0    0    00000600000000200000000413000024780000
AE00TI102209050405/09/202200000000200000000000000002489KGM  00000002740KGM  7386-9155                CONNECTOR MALE ASS'Y     73869155                 0         0         0         0    0    0    00000120000000060000002466000029592000
