BI00B1200    2399T52621     202207157289-9553-30             SEALED ASSY FEMALE       CCN000032340000014700FY00001470020220801000000000NNM00020220715154800    4N0N  0000029400000110900000152151200    YCYC    005500360039
BI00B1200    2399T52621     202207217289-9553-30             SEALED ASSY FEMALE       CCN000014700000017640FN00000000020220801000017640NNMD0420220715154800    4N0N  0000029400000110900000152151200    YCYC    005500360039
BI00A1200    TAPC-220714    202208247196-1103-02             TERMINAL                 CCN000022500000022500FN00000000020220801000022500NNE   20220715122115    4P0P  0000225000000042980000071501200    YCYC    006400630015
BI00A1200    #TAPC-220714   202208247172-5628-80             DUMMY PLUG               CCN000020000000020000FN00000000020220801000020000NNE   20220715122115    2H0H  0000200000000011060000016201200    YCYC    004300270014
BI00A1200    #TAPC-220714   202208247172-5625-90             RUBBER STOPPER           CCN000020000000020000FN00000000020220801000020000NNE   20220715122115    2H0H  0000200000000008240000013381200    YCYC    004300270014
BI00B1200    2399T52721     202209017116-4112-02             TERMINAL                 CCN000084000000084000FN00000000020220901000084000NNE   20220715122115    4P0P  0000060000000045000000073821200    YCYC    006400630015
BI00B1200    #2399T52726    202209017174-1515                FRONT DOOR COVER         CCN000003000000003000FN00000000020220901000003000NNE   20220715122115    2F0F  0000006000000049020000061021200    YCYC    005500360039
BI00B1200    2399T52727     202208187298-2853-30             HOUSING FEMALE ASS'Y     CCN000001680000001680FN00000000020220901000001680NNE   20220715122115    4N0N  0000002400000109490000136091200    YCYC    005500360039
BI00B1200    2399T52728     202208257298-2853-30             HOUSING FEMALE ASS'Y     CCN000001440000001440FN00000000020220901000001440NNE   20220715122115    4N0N  0000002400000109490000136091200    YCYC    005500360039
BI00B1200    2399T52722     202209087116-4112-02             TERMINAL                 CCN000060000000060000FN00000000020221001000060000NNE   20220715122115    4P0P  0000060000000045000000073821200    YCYC    006400630015
BI00B1200    2399T52723     202209157116-4112-02             TERMINAL                 CCN000060000000060000FN00000000020221001000060000NNE   20220715122115    4P0P  0000060000000045000000073821200    YCYC    006400630015
BI00B1200    2399T52724     202209227116-4112-02             TERMINAL                 CCN000060000000060000FN00000000020221001000060000NNE   20220715122115    4P0P  0000060000000045000000073821200    YCYC    006400630015
BI00B1200    2399T52725     202209297116-4112-02             TERMINAL                 CCN000060000000060000FN00000000020221001000060000NNE   20220715122115    4P0P  0000060000000045000000073821200    YCYC    006400630015
BI00B32AF    JTB2092        202207297298-2507-30             HOUSING FEMALE ASS'Y     CCN000002400000002400FN00000000020220901000002400NNMD0020220715122115    4N0N  00000120000000713200000914532AF    HBYHVTB 005500360039
BI00B32AF    #JTB2092       202208057287-7022                CONNECTOR FEMALE         CCN000001200000001200FN00000000020220901000001200NNMD0020220715122115    2NON  00000120000000742800000853032AF    HBYHVTB 005400370024
BI00B32AF    #JTB2093       202208197287-7022                CONNECTOR FEMALE         CCN000002400000002400FN00000000020220901000002400NNMD0020220715122115    2NON  00000120000000742800000853032AF    HBYHVTB 005400370024
BI00B32AF    #JTB2092       202208117297-1911-30             HOUSING MALE ASS'Y       CCN000002000000002000FN00000000020220901000002000NNMD0020220715122115    2N0N  00000100000000486900000600132AF    HBYHVTB 005400370024
BI00B32CA    CA-188-004     202208047386-2747                CONNECTOR ASS'Y          CCN000004000000004000FN00000000020220701000004000NNED0720220715161026    4N0N  00000200000001162000001284532CA    YPYPY   005400370024
BI00B32CC    #CTA32115      202208047282-6446-40             CONNECTOR                CCN000003000000003000FN00000000020221101000003000NNED0720220715160649    2N0N  00000150000001185000001368032CC    BIYABCBU005500360039
BI00B32CJ    JQN209A        202208057116-1686-02             TERMINAL                 CCN000021000000021000FN00000000020220901000021000NNE   20220715122115    4P0P  00002100000000869400001021632CJ    QNYHVQN 005100280028
BI00B32DG    RP2093A        202208187116-5036-02             TERMINAL                 CCN000013500000013500FN00000000020220901000013500NNE   20220715151816    4P0P  00001350000000618300001042232DG    BFSAIBF 006400630015
BI00B32DG    RP2093A        202208187114-4112-02             TERMINAL                 CCN000009000000009000FN00000000020220901000009000NNE   20220715151816    4P0P  00000900000000598500000927132DG    BFSAIBF 006400630017
BI00B32DG    RP2093A        202208187126-8854-02             TERMINAL                 CCN000007500000007500FN00000000020220901000007500NNE   20220715151816    4P0P  00000750000000604500000889732DG    BFSAIBF 006400630015
BI00B32EJ    T220714P02     202208117116-2951-02             TERMINAL                 CCN000005400000005400FN00000000020220901000005400NNE   20220715122115EJ  4P0P  00000540000000817600001111832EJ    EJYKBO  006400630015
BI00B32EJ    T220714P02     202208117116-4022                TERMINAL                 CCN000027000000027000FN00000000020220901000027000NNE   20220715122115EJ  4P0P  00001350000000618300000903532EJ    EJYKBO  006400630015
BI00B32EJ    T220714P02     202208117116-4101-02             TERMINAL                 CCN000036000000036000FN00000000020220901000036000NNE   20220715122115EJ  4P0P  00001200000000582000000876232EJ    EJYKBO  006400630015
BI00B32EJ    T220714P02     202208117116-4103-02             TERMINAL                 CCN000024000000024000FN00000000020220901000024000NNE   20220715122115EJ  4P0P  00001200000000571200000859432EJ    EJYKBO  006400630015
BI00B32EJ    T220714P02     202208117116-4104-02             TERMINAL                 CCN000012000000012000FN00000000020220901000012000NNE   20220715122115EJ  4P0P  00001200000000580800000972432EJ    EJYKBO  006400630015
BI00B32EJ    T220714P02     202208117116-5751-02             TERMINAL                 CCN000012000000012000FN00000000020220901000012000NNE   20220715122115EJ  4P0P  00001200000000379200000664432EJ    EJYKBO  006400630015
BI00B32EJ    T220714P02     202208117222-7564-40             CONNECTOR                CCN000000500000000500FN00000000020220901000000500NNE   20220715122115EJ  1N0N  00000050000000967000001097032EJ    EJYKBO  005500360039
BI00B32EJ    #T220714P02    202208117123-6423-30             CONNECTOR                CCN000020000000020000FN00000000020220901000020000NNE   20220715122115EJ  2F0F  00000200000001002000001167632EJ    EJYKBO  005600390023
BI00B32EJ    #T220714P02    202208117157-3821                RUBBER STOPPER           CCN000020000000020000FN00000000020220901000020000NNE   20220715122115EJ  2C0C  00002000000000176000000238032EJ    EJYKBO  002700430014
BI00B32EJ    T220713P01     202209227116-1230                TERMINAL                 CCN000013500000013500FN00000000020221001000013500NNE   20220715122115EJ  4P0P  00001350000000664200000952432EJ    EJYKBO  006400630015
BI00B32G7    JJ2209A MW     202208117017-1180-02             TERMINAL                 CCN000072000000072000FN00000000020220901000072000NNE   20220715122115    4P0P  00007200000001065600001229032G7    JIJAI   005100280028
BI00B32G7    JJ2209A MW     202208117114-4032                TERMINAL                 CCN000007500000007500FN00000000020220901000007500NNE   20220715122115    4P0P  00000750000000735000001063632G7    JIJAI   006400630017
BI00B32G7    JJ2209A MW     202208117116-2640                TERMINAL                 CCN000018000000018000FN00000000020220901000018000NNE   20220715122115    4P0P  00001800000001018800001196632G7    JIJAI   005100280028
BI00B32G7    JJ2209A MW     202208117116-2892-02             TERMINAL                 CCN000012000000012000FN00000000020220901000012000NNE   20220715122115    4P0P  00001200000000818400000981832G7    JIJAI   005100280028
BI00B32G7    JJ2209A MW     202208117116-4020                TERMINAL                 CCN000162000000162000FN00000000020220901000162000NNE   20220715122115    4P0P  00001350000000513000000798232G7    JIJAI   006400630015
BI00B32G7    JJ2209A MW     202208117116-4022                TERMINAL                 CCN000040500000040500FN00000000020220901000040500NNE   20220715122115    4P0P  00001350000000618300000903532G7    JIJAI   006400630015
BI00B32G7    JJ2209A MW     202208117116-4231-02             TERMINAL                 CCN000026000000026000FN00000000020220901000026000NNE   20220715122115    4P0P  00002600000000683800001012532G7    JIJAI   006400630017
BI00B32G7    JJ2209A MW     202208117116-4780-02             TERMINAL FEMALE          CCN000105000000105000FN00000000020220901000105000NNE   20220715122115    4P0P  00001500000000691500000985732G7    JIJAI   006400630015
BI00B32G7    JJ2209A MW     202208117116-5044-02             TERMINAL                 CCN000064000000064000FN00000000020220901000064000NNE   20220715122115    4P0P  00001600000000641600000986332G7    JIJAI   006400630017
BI00B32G7    JJ2209A MW     202208117116-5750-02             TERMINAL                 CCN000015000000015000FN00000000020220901000015000NNE   20220715122115    4P0P  00001500000000457500000742732G7    JIJAI   006400630015
BI00B32G7    JJ2209A MW     202208117116-5751-02             TERMINAL                 CCN000036000000036000FN00000000020220901000036000NNE   20220715122115    4P0P  00001200000000379200000664432G7    JIJAI   006400630015
BI00B32G7    JJ2209A MW     202208117116-6041                TERMINAL                 CCN000018000000018000FN00000000020220901000018000NNE   20220715122115    4P0P  00000450000000716000001009632G7    JIJAI   006400630015
BI00B32G7    JJ2209A MW     202208117158-3009-60             RUBBER STOPPER           CCN000060000000060000FN00000000020220901000060000NNE   20220715122115    1C0C  00002000000000338000000386232G7    JIJAI   002700430014
BI00B32G7    JJ2209A MW     202208117288-3329-30             HOUSING MALE             CCN000006000000006000FN00000000020220901000006000NNE   20220715122115    4N0N  00000150000000866100001011132G7    JIJAI   005400370024
BI00B32G7    JJ2209A MW     202208117288-3340-30             HOUSING MALE             CCN000004500000004500FN00000000020220901000004500NNE   20220715122115    4N0N  00000150000000861500001006432G7    JIJAI   005400370024
BI00B32G7    JJ2209A MW     202208117289-3342-30             HOUSING FEMALE ASS'Y     CCN000014400000014400FN00000000020220901000014400NNE   20220715122115    1N0N  00000240000000686400000901432G7    JIJAI   005500360039
BI00B32G7    #JJ2209A MW    202208117158-3003-90             RUBBER STOPPER           CCN000080000000080000FN00000000020220901000080000NNE   20220715122115    2C0C  00002000000000250000000306032G7    JIJAI   002700430014
BI00B32G7    #JJ2209A MW    202208117287-1915                CONNECTOR ASS'Y          CCN000004800000004800FN00000000020220901000004800NNE   20220715122115    2N0N  00000240000000666500000923132G7    JIJAI   005500360039
BI00B32G7    JJ2209ALMW     202208117116-4114-02             TERMINAL                 CCN000063000000063000FN00000000020220901000063000NNE   20220715122115    4P0P  00001050000000693000000981232G7    JIJAI   006400630015
BI00B32G7    JJ2209ALMW     202208117116-4115-02             TERMINAL                 CCN000008400000008400FN00000000020220901000008400NNE   20220715122115    4P0P  00000840000000593000000881232G7    JIJAI   006400630015
BI00B32G7    JJ2209ALMW     202208117116-4116-02             TERMINAL                 CCN000055200000055200FN00000000020220901000055200NNE   20220715122115    4P0P  00000690000000517500000805732G7    JIJAI   006400630015
BI00B32G7    #JJ2209ALMW    202208117183-2414                CONNECTOR HOUSING        CCN000009600000009600FN00000000020220901000009600NNE   20220715122115    2F0F  00000480000000779200001061032G7    JIJAI   005500360039
BI00B32G7    #JJ2209ALMW    202208117189-0149                HLC HOUSING FEMALE       CCN000010000000010000FN00000000020220901000010000NNE   20220715122115    2F0F  00000200000000970000001078532G7    JIJAI   005400370024
BI00B32G7    @JJ2209ALMW    202208117183-8049                CONNECTOR HOUSING        CCN000012000000012000FN00000000020220901000012000NNE   20220715122115    3F0F  00000400000000583600000740032G7    JIJAI   005400370024
BI00B32G7    JJ2209AMMW     202208117114-4728-08             TERMINAL                 CCN000030000000030000FN00000000020220901000030000NNE   20220715122115    4P0P  00003000000000507000000801232G7    JIJAI   006400630015
BI00B32G7    JJ2209AMMW     202208117116-3153-08             TERMINAL                 CCN000054000000054000FN00000000020220901000054000NNE   20220715122115    4P0P  00002700000000461700000746932G7    JIJAI   006400630015
BI00B32G7    JJ2209AMMW     202208117126-8889-02             FUSE TERMINAL            CCN000006000000006000FN00000000020220901000006000NNE   20220715122115    4P0P  00000600000000448200000733432G7    JIJAI   006400630015
BI00B32G7    JJ2209AMMW     202208117126-8892-02             FUSE TERMINAL            CCN000012000000012000FN00000000020220901000012000NNE   20220715122115    4P0P  00000600000000495000000780232G7    JIJAI   006400630015
BI00B32G7    JJ2209AMMW     202208117196-1102-02             TERMINAL                 CCN000022500000022500FN00000000020220901000022500NNE   20220715122115    4P0P  00002250000000405000000690232G7    JIJAI   006400630015
BI00B32G7    JJ2209AMMW     202208117196-1103-02             TERMINAL                 CCN000045000000045000FN00000000020220901000045000NNE   20220715122115    4P0P  00002250000000429800000715032G7    JIJAI   006400630015
BI00B32G7    JJ2209AMMW     202208117196-1104-02             TERMINAL                 CCN000022500000022500FN00000000020220901000022500NNE   20220715122115    4P0P  00002250000000441000000726232G7    JIJAI   006400630015
BI00B32G7    JJ2209AMMW     202208117196-1326-02             TERMINAL FEMALE          CCN000060000000060000FN00000000020220901000060000NNE   20220715122115    4P0P  00006000000000456000000784732G7    JIJAI   006400630017
BI00B32G7    JJ2209AMMW     202208117196-1934-02             TERMINAL FEMALE          CCN000019500000019500FN00000000020220901000019500NNE   20220715122115    4P0P  00001950000000561600000846832G7    JIJAI   006400630015
BI00B32G7    JJ2209AMMW     202208117196-1937-02             TERMINAL FEMALE          CCN000013500000013500FN00000000020220901000013500NNE   20220715122115    4P0P  00001350000000446900000732132G7    JIJAI   006400630015
BI00B32G7    JJ2209AMMW     202208117196-1947-02             TERMINAL FEMALE          CCN000009000000009000FN00000000020220901000009000NNE   20220715122115    4POP  00000900000000407700000692932G7    JIJAI   006400630015
BI00B32G7    JJ2209AMMW     202208117196-2024-02             TERMINAL FEMALE          CCN000024000000024000FN00000000020220901000024000NNE   20220715122115    4P0P  00002400000000919200001082632G7    JIJAI   005100280028
BI00B32G7    JJ2209AMMW     202208117196-2027-02             TERMINAL FEMALE          CCN000018000000018000FN00000000020220901000018000NNE   20220715122115    4P0P  00001800000000783000000946432G7    JIJAI   005100280028
BI00B32G7    JJ2209AMMW     202208117289-3342                HOUSING FEMALE ASS'Y     CCN000002400000002400FN00000000020220901000002400NNE   20220715122115    1N0N  00000240000000686400000901432G7    JIJAI   005500360039
BI00B32G7    JJ2209AMMW     202208117388-2978-30             HOUSING MALE ASS'Y       CCN000002880000002880FN00000000020220901000002880NNE   20220715122115    1N0N  00000048000000742000001122032G7    JIJAI   005500360039
BI00B32G7    #JJ2209AMMW    202208117158-3005-80             RUBBER STOPPER           CCN000020000000020000FN00000000020220901000020000NNE   20220715122115    2H0H  00002000000000210000000268732G7    JIJAI   002700430014
BI00B32G7    #JJ2209AMMW    202208117172-5625-90             RUBBER STOPPER           CCN000020000000020000FN00000000020220901000020000NNE   20220715122115    2H0H  00002000000000082400000133832G7    JIJAI   004300270014
BI00B32G7    #JJ2209AMMW    202208117189-2978-30             HOUSING FEMALE           CCN000003000000003000FN00000000020220901000003000NNE   20220715122115    2F0F  00000150000000966900001096932G7    JIJAI   005400370024
BI00B32G7    #JJ2209AMMW    202208117289-2914-40             HOUSING FEMALE ASS'Y     CCN000001500000001500FN00000000020220901000001500NNE   20220715122115    2N0N  00000150000000904500001031532G7    JIJAI   005400370024
BI00B32G7    #JJ2209AMMW    202208117289-3622-30             HOUSING FEMALE ASS'Y     CCN000001296000001296FN00000000020220901000001296NNE   20220715122115    2N0N  00000043200000839400001038432G7    JIJAI   005400370024
BI00B32H2    TIJ2091        202209097282-4577-30             HOUSING MALE ASS'Y       CCN000002400000002400FN00000000020220901000002400NNMD0020220715122115    4N0N  00000240000000964800001174832H2    HVYHV   005500360039
BI00B32H2    TIJ2091        202207297282-9391                HOUSING MALE ASS'Y       CCN000004800000004800FN00000000020220901000004800NNMD0020220715122115    4N0N  00000120000001017600001237632H2    HVYHV   005500360039
BI00B32H2    TIJ2091        202208057287-8072                HOUSING FEMALE ASS'Y     CCN000002400000002400FN00000000020220901000002400NNMD0020220715122115    1N0N  00000240000001221600001441632H2    HVYHV   005500360039
BI00B32H2    TIJ2094        202208267287-8072                HOUSING FEMALE ASS'Y     CCN000002400000002400FN00000000020220901000002400NNMD0020220715122115    1N0N  00000240000001221600001441632H2    HVYHV   005500360039
BI00B32H2    #TIJ2091       202209167183-2416                HOUSING                  CCN000002400000002400FN00000000020220901000002400NNMD0020220715122115    2F0F  00000240000001495200001771032H2    HVYHV   005500360039
BI00B32H2    #TIJ2092       202207297287-7022                CONNECTOR FEMALE         CCN000002400000002400FN00000000020220901000002400NNMD0020220715122115    2NON  00000120000000742800000853032H2    HVYHV   005400370024
BI00B32H2    TIJ208Q        202207297282-9391                HOUSING MALE ASS'Y       CCN000002400000002400FN00000000020220801000002400NNE   20220715122115    4N0N  00000120000001017600001237632H2    HVYHV   005500360039
BI00B32H2    #TIJ208Q       202207297287-7022                CONNECTOR FEMALE         CCN000002400000002400FN00000000020220801000002400NNE   20220715122115    2NON  00000120000000742800000853032H2    HVYHV   005400370024
BI00B32H2    TIJ209E        202208057283-4855                CONNECTOR HOUSING        CCN000004800000004800FN00000000020220901000004800NNE   20220715122115    4N0N  00000240000001188400001400032H2    HVYHV   005500360039
BI00B32H2    TIJ209F        202208197386-9155                CONNECTOR MALE ASS'Y     CCN000000600000000600FN00000000020220901000000600NNE   20220715122115    4N0N  00000060000001244400001369932H2    HVYHV   005400370024
BI00B32H2    #TIJ209F       202208197183-2511                HOUSING                  CCN000001600000001600FN00000000020220901000001600NNE   20220715122115    2F0F  00000160000000972200001242132H2    HVYHV   005500360039
BI00B32H2    #TIJ209F       202208197282-1214                CONNECTOR                CCN000001000000001000FN00000000020220901000001000NNE   20220715122115    2N0N  00000100000000900000001030032H2    HVYHV   005500360039
BI00B32H2    #TIJ209F       202208197283-8123-30             CONNECTOR HOUSING        CCN000004000000004000FN00000000020220901000004000NNE   20220715122115    2N0N  00000400000000380000000530032H2    HVYHV   005600390023
BI00B32H2    TIJ209G        202208267283-4577-30             CONNECTOR HOUSING        CCN000004800000004800FN00000000020220901000004800NNE   20220715122115    4N0N  00000480000000916800001136832H2    HVYHV   005500360039
BI00B32H2    #TIJ209H       202209027282-1214                CONNECTOR                CCN000001000000001000FN00000000020220901000001000NNE   20220715122115    2N0N  00000100000000900000001030032H2    HVYHV   005500360039
BI00B32H8    TY2209A MW     202208057116-1471                TERMINAL                 CCN000150000000150000FN00000000020220901000150000NNE   20220715122115    4P0P  00001500000000579000000867232H8    TYTYC   006400630015
BI00B32H8    TY2209A MW     202208057116-4026                TERMINAL                 CCN000032000000032000FN00000000020220901000032000NNE   20220715122115    4P0P  00001600000000664000000994332H8    TYTYC   006400630017
BI00B32H8    TY2209A MW     202208057222-6244-40             CONNECTOR                CCN000000800000000800FN00000000020220901000000800NNE   20220715122115    4N0N  00000080000001239200001422032H8    TYTYC   005600390040
BI00B32H8    TY2209A MW     202208057222-7484-30             CONNECTOR                CCN000001000000001000FN00000000020220901000001000NNE   20220715122115    4N0N  00000100000001030000001175732H8    TYTYC   005500360039
BI00B32H8    #TY2209A MW    202208057123-7564-30             CONNECTOR                CCN000003000000003000FN00000000020220901000003000NNE   20220715122115    2F0F  00000100000001310000001455632H8    TYTYC   005600390040
BI00B32H8    #TY2209A MW    202208057123-7564-40             CONNECTOR                CCN000002000000002000FN00000000020220901000002000NNE   20220715122115    2F0F  00000100000001301000001479032H8    TYTYC   005600390040
BI00B32H8    #TY2209A MW    202208057123-7923-30             CONNECTOR                CCN000001500000001500FN00000000020220901000001500NNE   20220715122115    2F0F  00000150000001491000001657032H8    TYTYC   005600390040
BI00B32H8    #TY2209A MW    202208057157-7812                SEAL RUBBER              CCN000250000000250000FN00000000020220901000250000NNE   20220715122115    2C0C  00001000000000137000000202032H8    TYTYC   002700430014
BI00B32H8    #TY2209A MW    202208057158-3003-90             RUBBER STOPPER           CCN000080000000080000FN00000000020220901000080000NNE   20220715122115    2C0C  00002000000000250000000306032H8    TYTYC   002700430014
BI00B32H8    #TY2209A MW    202208057158-3005-80             RUBBER STOPPER           CCN000020000000020000FN00000000020220901000020000NNE   20220715122115    2H0H  00002000000000210000000268732H8    TYTYC   002700430014
BI00B32J1    396406         202208087114-1475                TERMINAL                 CCN000081000000081000FN00000000020220801000081000NNM   20220715122115    4P0P  00001350000000480600000774232J1    UKYEL-BL006400630015
BI00B32J1    396406         202208087158-3006-90             RUBBER STOPPER           CCN000020000000020000FN00000000020220801000020000NNM   20220715122115    1C0C  00002000000000330600000386032J1    UKYEL-BL002700430014
BI00B32J1    396406         202208087158-3166-60             WIRE SEAL                CCN002160000002160000FN00000000020220801002160000NNM   20220715122115    1C0C  00004000000000104000000152432J1    UKYEL-BL002700430014
BI00B32J1    396406         202208087158-3167-61             WIRE SEAL                CCN000200000000200000FN00000000020220801000200000NNM   20220715122115    1C0C  00002000000000048000000096432J1    UKYEL-BL004300270014
BI00B32J1    396406         202208087158-3167-80             WIRE SEAL                CCN002640000002640000FN00000000020220801002640000NNM   20220715122115    1C0C  00002000000000048000000109032J1    UKYEL-BL002700430014
BI00B32J1    396406         202208087158-3168-80             SEALED                   CCN001500000001500000FN00000000020220801001500000NNM   20220715122115    1C0C  00002000000000044000000092132J1    UKYEL-BL004300260014
BI00B32J1    396406         202208087196-1461-02             TERMINAL FEMALE          CCN000360000000360000FN00000000020220801000360000NNM   20220715122115    4P0P  00002400000000386400000671632J1    UKYEL-BL006400630015
BI00B32J1    396406         202208087196-1461-06             TERMINAL FEMALE          CCN000072000000072000FN00000000020220801000072000NNM   20220715122115    4P0P  00002400000000386400000692932J1    UKYEL-BL006400630015
BI00B32J1    396406         202208087196-1462-02             TERMINAL FEMALE          CCN000021000000021000FN00000000020220801000021000NNM   20220715122115    4P0P  00002100000000352800000638032J1    UKYEL-BL006400630015
BI00B32J1    396406         202208087282-6448-40             CONNECTOR                CCN000001600000001600FN00000000020220801000001600NNM   20220715122115    4N0N  00000080000000887000001152732J1    UKYEL-BL005600390040
BI00B32J1    396406         202208087283-1968-30             CONNECTOR                CCN000005400000005400FN00000000020220801000005400NNM   20220715122115    1N0N  00000090000001140000001318332J1    UKYEL-BL005600390040
BI00B32J1    396406         202208087283-5545-10             CONNECTOR                CCN000004800000004800FN00000000020220801000004800NNM   20220715122115    4N0N  00000060000001279000001409232J1    UKYEL-BL005600390040
BI00B32J1    396406         202208087283-5553-10             CONNECTOR                CCN000001000000001000FN00000000020220801000001000NNM   20220715122115    4N0N  00000100000001374000001658032J1    UKYEL-BL005600390040
BI00B32J1    396406         202208087283-5846                HOUSING                  CCN000007500000007500FN00000000020220801000007500NNM   20220715122115    1N0N  00000150000000885000001102032J1    UKYEL-BL005600390040
BI00B32J1    396406         202208087283-6448-40             CONNECTOR                CCN000004500000004500FN00000000020220801000004500NNM   20220715122115    4N0N  00000150000001087000001329032J1    UKYEL-BL005600390040
BI00B32J1    396406         202208087288-5000                HOUSING MALE ASS'Y       CCN000000672000000672FN00000000020220801000000672NNM   20220715122115    1N0N  00000033600000825200001035232J1    UKYEL-BL005400370024
BI00B32J1    396406         202208087289-5000                HOUSING FEMALE ASS'Y     CCN000001520000001520FN00000000020220801000001520NNM   20220715122115    1N0N  00000030400000549000000759032J1    UKYEL-BL005400370024
BI00B32J1    396406         202208087298-1868-80             HOUSING FEMALE ASS'Y     CCN000002400000002400FN00000000020220801000002400NNM   20220715122115    4N0N  00000240000001028600001243532J1    UKYEL-BL005500360039
BI00B32J1    396406         202208087298-1869-30             HOUSING FEMALE ASS'Y     CCN000034800000034800FN00000000020220801000034800NNM   20220715122115    4N0N  00000120000000737000000939832J1    UKYEL-BL005500360039
BI00B32J1    396406         202208087298-2278-30             HOUSING FEMALE ASS'Y     CCN000026400000026400FN00000000020220801000026400NNM   20220715122115    4N0N  00000240000001091700001295432J1    UKYEL-BL005500360039
BI00B32J1    396406         202208087298-2507-30             HOUSING FEMALE ASS'Y     CCN000007200000007200FN00000000020220801000007200NNM   20220715122115    4N0N  00000120000000713200000914532J1    UKYEL-BL005500360039
BI00B32J1    396406         202208087298-2508-30             HOUSING FEMALE ASS'Y     CCN000002400000002400FN00000000020220801000002400NNM   20220715122115    4N0N  00000120000000822000001005032J1    UKYEL-BL005500360039
BI00B32J1    396406         202208087298-2509-30             HOUSING FEMALE ASS'Y     CCN000006000000006000FN00000000020220801000006000NNM   20220715122115    4N0N  00000120000000857500001062532J1    UKYEL-BL005500360039
BI00B32J1    396406         202208087327-6654-3W             BATTERY FUSE             CCN000000480000000480FN00000000020220801000000480NNM   20220715122115    4N0N  00000009600001132300001312432J1    UKYEL-BL005500360039
BI00B32J1    #396406        202208087047-5344                RETAINER                 CCN000130000000130000FN00000000020220801000130000NNM   20220715122115    2F0F  00001000000000870000001016032J1    UKYEL-BL005600390023
BI00B32J1    #396406        202208087134-4547-30             COVER                    CCN000010000000010000FN00000000020220801000010000NNM   20220715122115    2F0F  00000250000000989000001156732J1    UKYEL-BL005600390040
BI00B32J1    #396406        202208087147-8717-30             CLIP                     CCN000005000000005000FN00000000020220801000005000NNM   20220715122115    2F0F  00000500000000660000000875032J1    UKYEL-BL005600390040
BI00B32J1    #396406        202208087158-3120-90             CONNECTOR WIRE SEAL      CCN000200000000200000FN00000000020220801000200000NNM   20220715122115    2C0C  00002000000000136000000194032J1    UKYEL-BL002700430014
BI00B32J1    #396406        202208087174-1164                COVER                    CCN000001600000001600FN00000000020220801000001600NNM   20220715122115    2F0F  00000080000000592000000712032J1    UKYEL-BL005500360039
BI00B32J1    #396406        202208087282-3243-40             CONNECTOR                CCN000011200000011200FN00000000020220801000011200NNM   20220715122115    2N0N  00000080000001006000001282332J1    UKYEL-BL005600390040
BI00B32J1    #396406        202208087282-4192-40             CONNECTOR                CCN000003840000003840FN00000000020220801000003840NNM   20220715122115    2N0N  00000024000000801000001083732J1    UKYEL-BL005600390040
BI00B32J1    #396406        202208087282-5545-10             CONNECTOR                CCN000012000000012000FN00000000020220801000012000NNM   20220715122115    2N0N  00000080000001293600001465332J1    UKYEL-BL005500360039
BI00B32J1    #396406        202208087282-6446-40             CONNECTOR                CCN000010500000010500FN00000000020220801000010500NNM   20220715122115    2N0N  00000150000001185000001368032J1    UKYEL-BL005500360039
BI00B32J1    #396406        202208087283-8397-40             CONNECTOR                CCN000006160000006160FN00000000020220801000006160NNM   20220715122115    2N0N  00000154000001007000001222732J1    UKYEL-BL005600390023
BI00B32J1    #396406        202208087297-1907-30             HOUSING MALE ASS'Y       CCN000001500000001500FN00000000020220801000001500NNM   20220715122115    2N0N  00000150000000451800000568032J1    UKYEL-BL005400370024
BI00B32J1    396517         202208297116-4020                TERMINAL                 CCN000013500000013500FN00000000020220801000013500NNE   20220715122115    4P0P  00001350000000513000000798232J1    UKYEL-BL006400630015
BI00B32J1    #396517        202208297158-3376-50             CONNECTOR WIRE SEAL      CCN000020000000020000FN00000000020220801000020000NNE   20220715122115    2C0C  00002000000000184000000240732J1    UKYEL-BL002700430014
BI00B32M3    SM2208BEMW     202208047289-7213-30             HOUSING FEMALE ASS'Y     CCN000000240000000240FN00000000020220801000000240NNE   20220715155607    4N0N  00000024000001352800001667832M3    SASAMI  005500360039
BI00B32M3    SM2208BHMW     202208047B96-0805-02             TERMINAL FEMALE          CCN000022500000022500FN00000000020220801000022500NNE   20220715155631    4P0P  00002250000000558000000843232M3    SASAMI  006400630015
BI00B32M3    SM2208BHMW     202208047C89-6868-30             SEALED ASSY FEMALE       CCN000002520000002520FN00000000020220801000002520NNE   20220715155631    4N0N  00000252000000839200001119232M3    SASAMI  005500360039
BI00B32M3    SM2208BHMW     202208047298-1853-10             HOUSING FEMALE ASS'Y     CCN000003900000003900FN00000000020220801000003900NNE   20220715155631    4N00  00000390000001240500001405832M3    SASAMI  005400370024
BI00B32M3    SM2208BHMW     202208047298-4094-10             HOUSING FEMALE ASS'Y     CCN000003380000003380FN00000000020220801000003380NNE   20220715155631    4N0N  00000338000001097400001358732M3    SASAMI  005400370024
BI00B32M3    SM2208BHMW     202208047388-0317-60             CONNECTOR ASS'Y          CCN000006000000006000FN00000000020220801000006000NNE   20220715155631    4N0N  00000120000001034400001129332M3    SASAMI  005400370024
BI00B32M3    #SM2208BHMW    202208047287-8860                HOUSING FEMALE ASS'Y     CCN000004800000004800FN00000000020220801000004800NNE   20220715155620    2N0N  00000160000000693400000853432M3    SASAMI  005400370024
BI00B32M3    SM2208CDMW     202208047114-4729-08             TERMINAL                 CCN000030000000030000FN00000000020220801000030000NNE   20220715155647    4P0P  00003000000000522000000816232M3    SASAMI  006400630015
BI00B32M3    SM2208CDMW     202208047137-3047-30             UNIT PACKING             CCN000013000000013000FN00000000020220801000013000NNE   20220715155647    1C0C  00000100000000170500000218932M3    SASAMI  002700430014
BI00B32M3    SM2208CDMW     202208047172-5403-30             SEALED PACKING           CCN000040000000040000FN00000000020220801000040000NNE   20220715155647    1C0C  00000400000000653600000701732M3    SASAMI  004300270014
BI00B32M3    SM2208CDMW     202208047282-4578                HOUSING MALE ASS'Y       CCN000001200000001200FN00000000020220801000001200NNE   20220715155647    4N0N  00000120000000782600000992632M3    SASAMI  005500360039
BI00B32M3    SM2208CDMW     202208047286-1899                HOUSING SUB ASSEMBLY     CCN000001008000001008FN00000000020220801000001008NNE   20220715155647    4N0N  00000033600000814800001010832M3    SASAMI  005400370024
BI00B32M3    SM2208CDMW     202208047289-3342-30             HOUSING FEMALE ASS'Y     CCN000009600000009600FN00000000020220801000009600NNE   20220715155647    1N0N  00000240000000686400000901432M3    SASAMI  005500360039
BI00B32M3    SM2208CMMW     202208047283-1288-10             CONNECTOR HOUSING        CCN000001200000001200FN00000000020220801000001200NNE   20220715155704    1N0N  00000120000001381000001637032M3    SASAMI  005600390040
BI00B32M3    SM2208D MW     202208047114-4728-02             TERMINAL                 CCN000060000000060000FN00000000020220801000060000NNE   20220715155728    4P0P  00003000000000510000000804232M3    SASAMI  006400630015
BI00B32M3    SM2208D MW     202208047114-4729-02             TERMINAL                 CCN000090000000090000FN00000000020220801000090000NNE   20220715155728    4P0P  00003000000000516000000810232M3    SASAMI  006400630015
BI00B32M3    SM2208D MW     202208047114-5746-02             TERMINAL                 CCN000021000000021000FN00000000020220801000021000NNE   20220715155728    4P0P  00002100000000695100000988732M3    SASAMI  006400630015
BI00B32M3    SM2208D MW     202208047114-5748-02             TERMINAL                 CCN000012000000012000FN00000000020220801000012000NNE   20220715155728    4P0P  00001200000000444000000737632M3    SASAMI  006400630015
BI00B32M3    SM2208D MW     202208047114-5753-02             TERMINAL                 CCN000027000000027000FN00000000020220801000027000NNE   20220715155728    4P0P  00002700000000847800001141432M3    SASAMI  006400630015
BI00B32M3    SM2208D MW     202208047114-6041                TERMINAL                 CCN000003600000003600FN00000000020220801000003600NNE   20220715155728    4P0P  00000360000000580700000824232M3    SASAMI  006400630015
BI00B32M3    SM2208D MW     202208047116-1685-02             TERMINAL                 CCN000048000000048000FN00000000020220801000048000NNE   20220715155728    4P0P  00002400000000897600001065232M3    SASAMI  005100280028
BI00B32M3    SM2208D MW     202208047116-1686-02             TERMINAL                 CCN000021000000021000FN00000000020220801000021000NNE   20220715155728    4P0P  00002100000000869400001021632M3    SASAMI  005100280028
BI00B32M3    SM2208D MW     202208047116-3154-02             TERMINAL FEMALE          CCN000081000000081000FN00000000020220801000081000NNE   20220715155728    4P0P  00002700000000469800000755032M3    SASAMI  006400630015
BI00B32M3    SM2208D MW     202208047116-4037                TERMINAL                 CCN000012000000012000FN00000000020220801000012000NNE   20220715155728    4P0P  00000600000000600000000894232M3    SASAMI  006400630015
BI00B32M3    SM2208D MW     202208047116-4415-02             TERMINAL                 CCN000076000000076000FN00000000020220801000076000NNE   20220715155728    4P0P  00003800000000596600000925732M3    SASAMI  006400630017
BI00B32M3    SM2208D MW     202208047116-4780-02             TERMINAL FEMALE          CCN000015000000015000FN00000000020220801000015000NNE   20220715155728    4P0P  00001500000000691500000985732M3    SASAMI  006400630015
BI00B32M3    SM2208D MW     202208047116-5035-02             TERMINAL                 CCN000030000000030000FN00000000020220801000030000NNE   20220715155728    4P0P  00001500000000543000000828232M3    SASAMI  006400630015
BI00B32M3    SM2208D MW     202208047116-5041-02             TERMINAL                 CCN000030000000030000FN00000000020220801000030000NNE   20220715155728    4P0P  00001500000000583500000868732M3    SASAMI  006400630015
BI00B32M3    SM2208D MW     202208047116-5043-02             TERMINAL FEMALE          CCN000012000000012000FN00000000020220801000012000NNE   20220715155728    4P0P  00001200000000559200000844432M3    SASAMI  006400630015
BI00B32M3    SM2208D MW     202208047116-5045-02             TERMINAL                 CCN000016000000016000FN00000000020220801000016000NNE   20220715155728    4P0P  00001600000000678400001007132M3    SASAMI  006400630017
BI00B32M3    SM2208D MW     202208047126-8853-02             TERMINAL                 CCN000022500000022500FN00000000020220801000022500NNE   20220715155728    4P0P  00000750000000562500000847732M3    SASAMI  006400630015
BI00B32M3    SM2208D MW     202208047126-8854-02             TERMINAL                 CCN000007500000007500FN00000000020220801000007500NNE   20220715155728    4P0P  00000750000000604500000889732M3    SASAMI  006400630015
BI00B32M3    SM2208D MW     202208047126-8855-02             TERMINAL                 CCN000012000000012000FN00000000020220801000012000NNE   20220715155728    4P0P  00000600000000510600000795832M3    SASAMI  006400630015
BI00B32M3    SM2208D MW     202208047158-3165-90             WIRE SEAL                CCN000040000000040000FN00000000020220801000040000NNE   20220715155728    1C0C  00004000000000124000000172432M3    SASAMI  004300270014
BI00B32M3    SM2208D MW     202208047283-1110                CONNECTOR                CCN000002000000002000FN00000000020220801000002000NNE   20220715155728    4N0N  00000200000000878000001067532M3    SASAMI  005500360039
BI00B32M3    SM2208D MW     202208047286-3885                CONNECTOR MALE ASS'Y     CCN000003600000003600FN00000000020220801000003600NNE   20220715155728    1N0N  00000120000000910600001130632M3    SASAMI  005500360039
BI00B32M3    SM2208D MW     202208047286-3885-40             CONNECTOR MALE ASS'Y     CCN000001200000001200FN00000000020220801000001200NNE   20220715155728    1N0N  00000120000000910600001130632M3    SASAMI  005500360039
BI00B32M3    #SM2208D MW    202208047157-3821                RUBBER STOPPER           CCN000020000000020000FN00000000020220801000020000NNE   20220715155726    2C0C  00002000000000176000000238032M3    SASAMI  002700430014
BI00B32M3    #SM2208D MW    202208047158-3017                RUBBER STOPPER           CCN000010000000010000FN00000000020220801000010000NNE   20220715155726    2C0C  00001000000000375500000435032M3    SASAMI  002700430014
BI00B32M3    #SM2208D MW    202208047187-8856                HOUSING FEMALE           CCN000004000000004000FN00000000020220801000004000NNE   20220715155726    2F0F  00000200000000820000000931532M3    SASAMI  005400370024
BI00B32M4    TP2093D        202208187116-2640                TERMINAL                 CCN000018000000018000FN00000000020220901000018000NNE   20220715151835    4P0P  00001800000001018800001196632M4    SISAI   005100280028
BI00B32M4    TP2093D        202208187116-4025                TERMINAL                 CCN000016000000016000FN00000000020220901000016000NNE   20220715151835    4P0P  00001600000000644800000975132M4    SISAI   006400630017
BI00B32P8    TAPI-210A1     202208177114-4100-02             TERMINAL                 CCN000162000000162000FN00000000020221001000162000NNM   20220715122115    4P0P  00001800000000748800001077432P8    YIYTM   006400630017
BI00B32P8    TAPI-210A1     202208177116-4110-02             TERMINAL                 CCN000072000000072000FN00000000020221001000072000NNM   20220715122115    4P0P  00000900000000594000000882232P8    YIYTM   006400630015
BI00B32P8    TAPI-210A1     202208177116-4124-02             TERMINAL                 CCN000006000000006000FN00000000020221001000006000NNM   20220715122115    4P0P  00000300000000459900000753532P8    YIYTM   006400630015
BI00B32P8    TAPI-210A1     202208177116-5097-02             TERMINAL                 CCN000225000000225000FN00000000020221001000225000NNM   20220715122115    4P0P  00002250000000531000000816232P8    YIYTM   006400630015
BI00B32P8    TAPI-210A1     202208177195-1464-02             TERMINAL MALE            CCN000076500000076500FN00000000020221001000076500NNM   20220715122115    4P0P  00002550000000420800000706032P8    YIYTM   006400630015
BI00B32P8    TAPI-210A1     202208177196-1460-02             TERMINAL FEMALE          CCN000456000000456000FN00000000020221001000456000NNM   20220715122115    4P0P  00002850000000444600000729832P8    YIYTM   006400630015
BI00B32P8    TAPI-210A1     202208177196-1461-02             TERMINAL FEMALE          CCN000336000000336000FN00000000020221001000336000NNM   20220715122115    4P0P  00002400000000386400000671632P8    YIYTM   006400630015
BI00B32P8    TAPI-210A1     202208177183-2417                CONNECTOR HOUSING        CCN000002400000002400FN00000000020221001000002400NNM   20220715122115    4F0F  00000240000001137400001297732P8    YIYTM   005500360039
BI00B32P8    TAPI-210A1     202208177282-8120-40             CONNECTOR HOUSING        CCN000003000000003000FN00000000020221001000003000NNM   20220715122115    1N0N  00000300000001356000001520032P8    YIYTM   005500360039
BI00B32P8    TAPI-210A1     202208177283-1057-30             CONNECTOR HOUSING        CCN000000960000000960FN00000000020221001000000960NNM   20220715122115    4N0N  00000096000000925400001075432P8    YIYTM   005500360039
BI00B32P8    TAPI-210A1     202208177283-7046-30             CONNECTOR                CCN000006000000006000FN00000000020221001000006000NNM   20220715122115    4N0N  00000100000001500000001630032P8    YIYTM   005600390040
BI00B32P8    TAPI-210A1     202208177288-3330-30             HOUSING MALE             CCN000001500000001500FN00000000020221001000001500NNM   20220715122115    4N0N  00000150000000866300001011232P8    YIYTM   005400370024
BI00B32P8    TAPI-210A1     202208177288-3332-30             HOUSING MALE             CCN000003000000003000FN00000000020221001000003000NNM   20220715122115    4N0N  00000150000000860700001005732P8    YIYTM   005400370024
BI00B32P8    TAPI-210A1     202208177298-1865-30             HOUSING FEMALE ASS'Y     CCN000033600000033600FN00000000020221001000033600NNM   20220715122115    4N0N  00000240000001003200001204532P8    YIYTM   005500360039
BI00B32P8    TAPI-210A1     202208177298-2278-30             HOUSING FEMALE ASS'Y     CCN000009600000009600FN00000000020221001000009600NNM   20220715122115    4N0N  00000240000001091700001295432P8    YIYTM   005500360039
BI00B32P8    TAPI-210A1     202208177298-5955                CONNECTOR SUB ASSY       CCN000141600000144000FN00000000020221001000144000NNM   20220715122115    4N0N  00000720000001029600001253032P8    YIYTM   005500360039
BI00B32P8    TAPI-210A1     202208177470-3082                J/B COMPLETE ASS'Y       CCN000001200000001200FN00000000020221001000001200NNM   20220715122115    1J0J  00000002400001320000001570032P8    YIYTM   005500360039
BI00B32P8    TAPI-210A1     202208177327-6424-4W             BATTERY FUSE             CCN000001248000001248FN00000000020221001000001248NNM   20220715122115    4N0N  00000009600001109500001259632P8    YIYTM   005400370024
BI00B32P8    #TAPI-210A1    202208177182-2410                CONNECTOR HOUSING        CCN000004800000004800FN00000000020221001000004800NNM   20220715122115    2F0F  00000120000000959800001245632P8    YIYTM   005500360039
BI00B32P8    #TAPI-210A1    202208177183-2412-90             HOUSING                  CCN000003200000003200FN00000000020221001000003200NNM   20220715122115    2F0F  00000160000001065300001224432P8    YIYTM   005500360039
BI00B32P8    #TAPI-210A1    202208177187-3358-30             JOINT CONNECTOR          CCN000002400000002400FN00000000020221001000002400NNM   20220715122115    2F0F  00000120000000673200000940432P8    YIYTM   005600390040
BI00B32P8    #TAPI-210A1    202208177187-3359-60             JOINT CONNECTOR          CCN000002400000002400FN00000000020221001000002400NNM   20220715122115    2F0F  00000120000000763200001030432P8    YIYTM   005600390040
BI00B32P8    #TAPI-210A1    202208177187-3360                JOINT CONNECTOR          CCN000002400000002400FN00000000020221001000002400NNM   20220715122115    2F0F  00000120000000759600001026832P8    YIYTM   005600390040
BI00B32P8    #TAPI-210A1    202208177283-1071                CONNECTOR HOUSING        CCN000006000000006000FN00000000020221001000006000NNM   20220715122115    2N0N  00000200000000800000000930032P8    YIYTM   005400370024
BI00B32P8    #TAPI-210A1    202208177289-2912-30             HOUSING FEMALE ASS'Y     CCN000002000000002000FN00000000020221001000002000NNM   20220715122115    2N0N  00000200000000804000000929032P8    YIYTM   005400370024
BI00B32P8    #TAPI-210A1    202208177289-2915-40             HOUSING FEMALE ASS'Y     CCN000004500000004500FN00000000020221001000004500NNM   20220715122115    2N0N  00000150000000961500001088532P8    YIYTM   005400370024
BI00B32P8    #TAPI-210A1    202208177297-1907-30             HOUSING MALE ASS'Y       CCN000024000000024000FN00000000020221001000024000NNM   20220715122115    2N0N  00000150000000451800000568032P8    YIYTM   005400370024
BI00B32P8    @TAPI-210A1    202208177123-4312-80             HOUSING                  CCN000005600000005600FN00000000020221001000005600NNM   20220715122115    3F0F  00000080000000644200000794032P8    YIYTM   005500360039
BI00B32P8    @TAPI-210A1    202208177183-7770-40             HOUSING                  CCN000006000000006000FN00000000020221001000006000NNM   20220715122115    3F0F  00000600000001011000001161032P8    YIYTM   005400370024
BI00B32P8    TAPI-2101      202209077158-3169-40             SEALING PLUG             CCN000240000000240000FN00000000020221001000240000NNM   20220715122115    1C0C  00004000000000156000000204132P8    YIYTM   004300260014
BI00B32P8    TAPI-2102      202209147158-3169-40             SEALING PLUG             CCN000160000000160000FN00000000020221001000160000NNM   20220715122115    1C0C  00004000000000156000000204132P8    YIYTM   004300260014
BI00B32P8    TAPI-2103      202209217158-3169-40             SEALING PLUG             CCN000160000000160000FN00000000020221001000160000NNM   20220715122115    1C0C  00004000000000156000000204132P8    YIYTM   004300260014
BI00B32P8    TAPI-2104      202209287158-3169-40             SEALING PLUG             CCN000160000000160000FN00000000020221001000160000NNM   20220715122115    1C0C  00004000000000156000000204132P8    YIYTM   004300260014
BI00B32P8    TAPI-2102      202209147158-3006-90             RUBBER STOPPER           CCN000400000000400000FN00000000020221001000400000NNM   20220715122115    1C0C  00002000000000330600000386032P8    YIYTM   002700430014
BI00B32P8    TAPI-2103      202209217158-3006-90             RUBBER STOPPER           CCN000400000000400000FN00000000020221001000400000NNM   20220715122115    1C0C  00002000000000330600000386032P8    YIYTM   002700430014
BI00B32P8    TAPI-2104      202209287158-3006-90             RUBBER STOPPER           CCN000400000000400000FN00000000020221001000400000NNM   20220715122115    1C0C  00002000000000330600000386032P8    YIYTM   002700430014
BI00B32P8    TAPI-2101      202209077158-3009-60             RUBBER STOPPER           CCN000300000000300000FN00000000020221001000300000NNM   20220715122115    1C0C  00002000000000338000000386232P8    YIYTM   002700430014
BI00B32P8    TAPI-2102      202209147158-3009-60             RUBBER STOPPER           CCN000300000000300000FN00000000020221001000300000NNM   20220715122115    1C0C  00002000000000338000000386232P8    YIYTM   002700430014
BI00B32P8    TAPI-2103      202209217158-3009-60             RUBBER STOPPER           CCN000300000000300000FN00000000020221001000300000NNM   20220715122115    1C0C  00002000000000338000000386232P8    YIYTM   002700430014
BI00B32P8    TAPI-2104      202209287158-3009-60             RUBBER STOPPER           CCN000300000000300000FN00000000020221001000300000NNM   20220715122115    1C0C  00002000000000338000000386232P8    YIYTM   002700430014
BI00B32P8    TAPI-2102      202209147158-3165-90             WIRE SEAL                CCN000080000000080000FN00000000020221001000080000NNM   20220715122115    1C0C  00004000000000124000000172432P8    YIYTM   004300270014
BI00B32P8    TAPI-2103      202209217158-3165-90             WIRE SEAL                CCN000160000000160000FN00000000020221001000160000NNM   20220715122115    1C0C  00004000000000124000000172432P8    YIYTM   004300270014
BI00B32P8    TAPI-2104      202209287158-3165-90             WIRE SEAL                CCN000160000000160000FN00000000020221001000160000NNM   20220715122115    1C0C  00004000000000124000000172432P8    YIYTM   004300270014
BI00B32P8    TAPI-2101      202209077158-3166-60             WIRE SEAL                CCN000080000000080000FN00000000020221001000080000NNM   20220715122115    1C0C  00004000000000104000000152432P8    YIYTM   002700430014
BI00B32P8    TAPI-2102      202209147158-3166-60             WIRE SEAL                CCN000200000000200000FN00000000020221001000200000NNM   20220715122115    1C0C  00004000000000104000000152432P8    YIYTM   002700430014
BI00B32P8    TAPI-2103      202209217158-3166-60             WIRE SEAL                CCN000200000000200000FN00000000020221001000200000NNM   20220715122115    1C0C  00004000000000104000000152432P8    YIYTM   002700430014
BI00B32P8    TAPI-2104      202209287158-3166-60             WIRE SEAL                CCN000200000000200000FN00000000020221001000200000NNM   20220715122115    1C0C  00004000000000104000000152432P8    YIYTM   002700430014
BI00B32P8    TAPI-2101      202209077158-3167-80             WIRE SEAL                CCN000300000000300000FN00000000020221001000300000NNM   20220715122115    1C0C  00002000000000048000000109032P8    YIYTM   002700430014
BI00B32P8    TAPI-2102      202209147158-3167-80             WIRE SEAL                CCN000200000000200000FN00000000020221001000200000NNM   20220715122115    1C0C  00002000000000048000000109032P8    YIYTM   002700430014
BI00B32P8    TAPI-2103      202209217158-3167-80             WIRE SEAL                CCN000180000000180000FN00000000020221001000180000NNM   20220715122115    1C0C  00002000000000048000000109032P8    YIYTM   002700430014
BI00B32P8    TAPI-2104      202209287158-3167-80             WIRE SEAL                CCN000200000000200000FN00000000020221001000200000NNM   20220715122115    1C0C  00002000000000048000000109032P8    YIYTM   002700430014
BI00B32P8    TAPI-2101      202209077158-3168-80             SEALED                   CCN000040000000040000FN00000000020221001000040000NNM   20220715122115    1C0C  00002000000000044000000092132P8    YIYTM   004300260014
BI00B32P8    TAPI-2102      202209147158-3168-80             SEALED                   CCN000040000000040000FN00000000020221001000040000NNM   20220715122115    1C0C  00002000000000044000000092132P8    YIYTM   004300260014
BI00B32P8    TAPI-2103      202209217158-3168-80             SEALED                   CCN000040000000040000FN00000000020221001000040000NNM   20220715122115    1C0C  00002000000000044000000092132P8    YIYTM   004300260014
BI00B32P8    TAPI-2104      202209287158-3168-80             SEALED                   CCN000040000000040000FN00000000020221001000040000NNM   20220715122115    1C0C  00002000000000044000000092132P8    YIYTM   004300260014
BI00B32P8    TAPI-2104      202209287114-1670-02             TERMINAL                 CCN000024000000024000FN00000000020221001000024000NNM   20220715122115    1P0P  00002400000000357600000645832P8    YIYTM   006400630015
BI00B32P8    TAPI-2104      202209287114-4020                TERMINAL                 CCN000063000000063000FN00000000020221001000063000NNM   20220715122115    4P0P  00002100000000875700001169332P8    YIYTM   006400630015
BI00B32P8    TAPI-2103      202209217114-4031                TERMINAL                 CCN000010500000010500FN00000000020221001000010500NNM   20220715122115    4P0P  00001050000000966000001294632P8    YIYTM   006400630017
BI00B32P8    TAPI-2101      202209077114-4100-02             TERMINAL                 CCN000054000000054000FN00000000020221001000054000NNM   20220715122115    4P0P  00001800000000748800001077432P8    YIYTM   006400630017
BI00B32P8    TAPI-2102      202209147114-4100-02             TERMINAL                 CCN000036000000036000FN00000000020221001000036000NNM   20220715122115    4P0P  00001800000000748800001077432P8    YIYTM   006400630017
BI00B32P8    TAPI-2103      202209217114-4100-02             TERMINAL                 CCN000054000000054000FN00000000020221001000054000NNM   20220715122115    4P0P  00001800000000748800001077432P8    YIYTM   006400630017
BI00B32P8    TAPI-2104      202209287114-4100-02             TERMINAL                 CCN000054000000054000FN00000000020221001000054000NNM   20220715122115    4P0P  00001800000000748800001077432P8    YIYTM   006400630017
BI00B32P8    TAPI-2101      202209077114-4110-02             TERMINAL                 CCN000045000000045000FN00000000020221001000045000NNM   20220715122115    4P0P  00001500000000901500001230132P8    YIYTM   006400630017
BI00B32P8    TAPI-2102      202209147114-4110-02             TERMINAL                 CCN000030000000030000FN00000000020221001000030000NNM   20220715122115    4P0P  00001500000000901500001230132P8    YIYTM   006400630017
BI00B32P8    TAPI-2103      202209217114-4110-02             TERMINAL                 CCN000045000000045000FN00000000020221001000045000NNM   20220715122115    4P0P  00001500000000901500001230132P8    YIYTM   006400630017
BI00B32P8    TAPI-2104      202209287114-4110-02             TERMINAL                 CCN000045000000045000FN00000000020221001000045000NNM   20220715122115    4P0P  00001500000000901500001230132P8    YIYTM   006400630017
BI00B32P8    TAPI-2101      202209077114-4111-02             TERMINAL                 CCN000012000000012000FN00000000020221001000012000NNM   20220715122115    4P0P  00001200000000758400001087032P8    YIYTM   006400630017
BI00B32P8    TAPI-2102      202209147114-4111-02             TERMINAL                 CCN000012000000012000FN00000000020221001000012000NNM   20220715122115    4P0P  00001200000000758400001087032P8    YIYTM   006400630017
BI00B32P8    TAPI-2103      202209217114-4111-02             TERMINAL                 CCN000024000000024000FN00000000020221001000024000NNM   20220715122115    4P0P  00001200000000758400001087032P8    YIYTM   006400630017
BI00B32P8    TAPI-2104      202209287114-4111-02             TERMINAL                 CCN000024000000024000FN00000000020221001000024000NNM   20220715122115    4P0P  00001200000000758400001087032P8    YIYTM   006400630017
BI00B32P8    TAPI-2101      202209077114-4112-02             TERMINAL                 CCN000045000000045000FN00000000020221001000045000NNM   20220715122115    4P0P  00000900000000598500000927132P8    YIYTM   006400630017
BI00B32P8    TAPI-2102      202209147114-4112-02             TERMINAL                 CCN000027000000027000FN00000000020221001000027000NNM   20220715122115    4P0P  00000900000000598500000927132P8    YIYTM   006400630017
BI00B32P8    TAPI-2103      202209217114-4112-02             TERMINAL                 CCN000027000000027000FN00000000020221001000027000NNM   20220715122115    4P0P  00000900000000598500000927132P8    YIYTM   006400630017
BI00B32P8    TAPI-2104      202209287114-4112-02             TERMINAL                 CCN000027000000027000FN00000000020221001000027000NNM   20220715122115    4P0P  00000900000000598500000927132P8    YIYTM   006400630017
BI00B32P8    TAPI-2101      202209077114-4417-02             TERMINAL MALE            CCN000022500000022500FN00000000020221001000022500NNM   20220715122115    4P0P  00002250000000380300000668532P8    YIYTM   006400630015
BI00B32P8    TAPI-2101      202209077114-4728-02             TERMINAL                 CCN000090000000090000FN00000000020221001000090000NNM   20220715122115    4P0P  00003000000000510000000804232P8    YIYTM   006400630015
BI00B32P8    TAPI-2102      202209147114-4728-02             TERMINAL                 CCN000060000000060000FN00000000020221001000060000NNM   20220715122115    4P0P  00003000000000510000000804232P8    YIYTM   006400630015
BI00B32P8    TAPI-2103      202209217114-4728-02             TERMINAL                 CCN000060000000060000FN00000000020221001000060000NNM   20220715122115    4P0P  00003000000000510000000804232P8    YIYTM   006400630015
BI00B32P8    TAPI-2104      202209287114-4728-02             TERMINAL                 CCN000060000000060000FN00000000020221001000060000NNM   20220715122115    4P0P  00003000000000510000000804232P8    YIYTM   006400630015
BI00B32P8    TAPI-2101      202209077114-4729-02             TERMINAL                 CCN000120000000120000FN00000000020221001000120000NNM   20220715122115    4P0P  00003000000000516000000810232P8    YIYTM   006400630015
BI00B32P8    TAPI-2102      202209147114-4729-02             TERMINAL                 CCN000030000000030000FN00000000020221001000030000NNM   20220715122115    4P0P  00003000000000516000000810232P8    YIYTM   006400630015
BI00B32P8    TAPI-2103      202209217114-4729-02             TERMINAL                 CCN000060000000060000FN00000000020221001000060000NNM   20220715122115    4P0P  00003000000000516000000810232P8    YIYTM   006400630015
BI00B32P8    TAPI-2104      202209287114-4729-02             TERMINAL                 CCN000030000000030000FN00000000020221001000030000NNM   20220715122115    4P0P  00003000000000516000000810232P8    YIYTM   006400630015
BI00B32P8    TAPI-2101      202209077114-5096-02             TERMINAL                 CCN000030000000030000FN00000000020221001000030000NNM   20220715122115    4P0P  00003000000000498000000792232P8    YIYTM   006400630015
BI00B32P8    TAPI-2104      202209287114-5096-02             TERMINAL                 CCN000030000000030000FN00000000020221001000030000NNM   20220715122115    4P0P  00003000000000498000000792232P8    YIYTM   006400630015
BI00B32P8    TAPI-2103      202209217114-5746-02             TERMINAL                 CCN000021000000021000FN00000000020221001000021000NNM   20220715122115    4P0P  00002100000000695100000988732P8    YIYTM   006400630015
BI00B32P8    TAPI-2104      202209287114-5747-02             TERMINAL                 CCN000018000000018000FN00000000020221001000018000NNM   20220715122115    4P0P  00001800000000626400000920032P8    YIYTM   006400630015
BI00B32P8    TAPI-2101      202209077114-5748-02             TERMINAL                 CCN000012000000012000FN00000000020221001000012000NNM   20220715122115    4P0P  00001200000000444000000737632P8    YIYTM   006400630015
BI00B32P8    TAPI-2104      202209287114-5748-02             TERMINAL                 CCN000012000000012000FN00000000020221001000012000NNM   20220715122115    4P0P  00001200000000444000000737632P8    YIYTM   006400630015
BI00B32P8    TAPI-2104      202209287114-5753-02             TERMINAL                 CCN000027000000027000FN00000000020221001000027000NNM   20220715122115    4P0P  00002700000000847800001141432P8    YIYTM   006400630015
BI00B32P8    TAPI-2101      202209077114-6041                TERMINAL                 CCN000003600000003600FN00000000020221001000003600NNM   20220715122115    4P0P  00000360000000580700000824232P8    YIYTM   006400630015
BI00B32P8    TAPI-2103      202209217114-6041                TERMINAL                 CCN000003600000003600FN00000000020221001000003600NNM   20220715122115    4P0P  00000360000000580700000824232P8    YIYTM   006400630015
BI00B32P8    TAPI-2102      202209147116-1180                TERMINAL                 CCN000019500000019500FN00000000020221001000019500NNM   20220715122115    1P0P  00001950000000618200000903432P8    YIYTM   006400630015
BI00B32P8    TAPI-2104      202209287116-1180                TERMINAL                 CCN000019500000019500FN00000000020221001000019500NNM   20220715122115    1P0P  00001950000000618200000903432P8    YIYTM   006400630015
BI00B32P8    TAPI-2103      202209217116-1685-02             TERMINAL                 CCN000024000000024000FN00000000020221001000024000NNM   20220715122115    4P0P  00002400000000897600001065232P8    YIYTM   005100280028
BI00B32P8    TAPI-2104      202209287116-1685-02             TERMINAL                 CCN000048000000048000FN00000000020221001000048000NNM   20220715122115    4P0P  00002400000000897600001065232P8    YIYTM   005100280028
BI00B32P8    TAPI-2104      202209287116-2640                TERMINAL                 CCN000072000000072000FN00000000020221001000072000NNM   20220715122115    4P0P  00001800000001018800001196632P8    YIYTM   005100280028
BI00B32P8    TAPI-2103      202209217116-2641                TERMINAL                 CCN000036000000036000FN00000000020221001000036000NNM   20220715122115    4P0P  00001800000001161000001344632P8    YIYTM   005100280028
BI00B32P8    TAPI-2104      202209287116-2641                TERMINAL                 CCN000018000000018000FN00000000020221001000018000NNM   20220715122115    4P0P  00001800000001161000001344632P8    YIYTM   005100280028
BI00B32P8    TAPI-2103      202209217116-2871                TERMINAL                 CCN000012000000012000FN00000000020221001000012000NNM   20220715122115    1P0P  00001200000000842400001072632P8    YIYTM   005100280028
BI00B32P8    TAPI-2104      202209287116-2871                TERMINAL                 CCN000012000000012000FN00000000020221001000012000NNM   20220715122115    1P0P  00001200000000842400001072632P8    YIYTM   005100280028
BI00B32P8    TAPI-2104      202209287116-2891-02             TERMINAL                 CCN000015000000015000FN00000000020221001000015000NNM   20220715122115    4P0P  00001500000000982500001145932P8    YIYTM   005100280028
BI00B32P8    TAPI-2102      202209147116-2892-02             TERMINAL                 CCN000012000000012000FN00000000020221001000012000NNM   20220715122115    4P0P  00001200000000818400000981832P8    YIYTM   005100280028
BI00B32P8    TAPI-2104      202209287116-2892-02             TERMINAL                 CCN000012000000012000FN00000000020221001000012000NNM   20220715122115    4P0P  00001200000000818400000981832P8    YIYTM   005100280028
BI00B32P8    TAPI-2101      202209077116-2893-02             TERMINAL                 CCN000012000000012000FN00000000020221001000012000NNM   20220715122115    4P0P  00001200000000895200001058632P8    YIYTM   005100280028
BI00B32P8    TAPI-2102      202209147116-2893-02             TERMINAL                 CCN000024000000024000FN00000000020221001000024000NNM   20220715122115    4P0P  00001200000000895200001058632P8    YIYTM   005100280028
BI00B32P8    TAPI-2103      202209217116-2893-02             TERMINAL                 CCN000012000000012000FN00000000020221001000012000NNM   20220715122115    4P0P  00001200000000895200001058632P8    YIYTM   005100280028
BI00B32P8    TAPI-2104      202209287116-2893-02             TERMINAL                 CCN000012000000012000FN00000000020221001000012000NNM   20220715122115    4P0P  00001200000000895200001058632P8    YIYTM   005100280028
BI00B32P8    TAPI-2101      202209077116-2951-02             TERMINAL                 CCN000016200000016200FN00000000020221001000016200NNM   20220715122115    4P0P  00000540000000817600001111832P8    YIYTM   006400630015
BI00B32P8    TAPI-2102      202209147116-2951-02             TERMINAL                 CCN000005400000005400FN00000000020221001000005400NNM   20220715122115    4P0P  00000540000000817600001111832P8    YIYTM   006400630015
BI00B32P8    TAPI-2103      202209217116-2951-02             TERMINAL                 CCN000010800000010800FN00000000020221001000010800NNM   20220715122115    4P0P  00000540000000817600001111832P8    YIYTM   006400630015
BI00B32P8    TAPI-2104      202209287116-2951-02             TERMINAL                 CCN000005400000005400FN00000000020221001000005400NNM   20220715122115    4P0P  00000540000000817600001111832P8    YIYTM   006400630015
BI00B32P8    TAPI-2102      202209147116-2952                TERMINAL                 CCN000005400000005400FN00000000020221001000005400NNM   20220715122115    4P0P  00000540000000773300001067532P8    YIYTM   006400630015
BI00B32P8    TAPI-2101      202209077116-4020                TERMINAL                 CCN000081000000081000FN00000000020221001000081000NNM   20220715122115    4P0P  00001350000000513000000798232P8    YIYTM   006400630015
BI00B32P8    TAPI-2102      202209147116-4020                TERMINAL                 CCN000202500000202500FN00000000020221001000202500NNM   20220715122115    4P0P  00001350000000513000000798232P8    YIYTM   006400630015
BI00B32P8    TAPI-2103      202209217116-4020                TERMINAL                 CCN000202500000202500FN00000000020221001000202500NNM   20220715122115    4P0P  00001350000000513000000798232P8    YIYTM   006400630015
BI00B32P8    TAPI-2104      202209287116-4020                TERMINAL                 CCN000175500000175500FN00000000020221001000175500NNM   20220715122115    4P0P  00001350000000513000000798232P8    YIYTM   006400630015
BI00B32P8    TAPI-2103      202209217116-4022                TERMINAL                 CCN000027000000027000FN00000000020221001000027000NNM   20220715122115    4P0P  00001350000000618300000903532P8    YIYTM   006400630015
BI00B32P8    TAPI-2104      202209287116-4022                TERMINAL                 CCN000013500000013500FN00000000020221001000013500NNM   20220715122115    4P0P  00001350000000618300000903532P8    YIYTM   006400630015
BI00B32P8    TAPI-2101      202209077116-4025                TERMINAL                 CCN000160000000160000FN00000000020221001000160000NNM   20220715122115    4P0P  00001600000000644800000975132P8    YIYTM   006400630017
BI00B32P8    TAPI-2102      202209147116-4025                TERMINAL                 CCN000096000000096000FN00000000020221001000096000NNM   20220715122115    4P0P  00001600000000644800000975132P8    YIYTM   006400630017
BI00B32P8    TAPI-2103      202209217116-4025                TERMINAL                 CCN000112000000112000FN00000000020221001000112000NNM   20220715122115    4P0P  00001600000000644800000975132P8    YIYTM   006400630017
BI00B32P8    TAPI-2104      202209287116-4025                TERMINAL                 CCN000112000000112000FN00000000020221001000112000NNM   20220715122115    4P0P  00001600000000644800000975132P8    YIYTM   006400630017
BI00B32P8    TAPI-2102      202209147116-4026                TERMINAL                 CCN000032000000032000FN00000000020221001000032000NNM   20220715122115    4P0P  00001600000000664000000994332P8    YIYTM   006400630017
BI00B32P8    TAPI-2103      202209217116-4026                TERMINAL                 CCN000032000000032000FN00000000020221001000032000NNM   20220715122115    4P0P  00001600000000664000000994332P8    YIYTM   006400630017
BI00B32P8    TAPI-2104      202209287116-4026                TERMINAL                 CCN000048000000048000FN00000000020221001000048000NNM   20220715122115    4P0P  00001600000000664000000994332P8    YIYTM   006400630017
BI00B32P8    TAPI-2102      202209147116-4028-08             TERMINAL FEMALE          CCN000208000000208000FN00000000020221001000208000NNM   20220715122115    4P0P  00001600000000652800000981532P8    YIYTM   006400630017
BI00B32P8    TAPI-2103      202209217116-4028-08             TERMINAL FEMALE          CCN000192000000192000FN00000000020221001000192000NNM   20220715122115    4P0P  00001600000000652800000981532P8    YIYTM   006400630017
BI00B32P8    TAPI-2104      202209287116-4028-08             TERMINAL FEMALE          CCN000192000000192000FN00000000020221001000192000NNM   20220715122115    4P0P  00001600000000652800000981532P8    YIYTM   006400630017
BI00B32P8    TAPI-2103      202209217116-4029-08             TERMINAL FEMALE          CCN000016000000016000FN00000000020221001000016000NNM   20220715122115    4P0P  00001600000000670400000999132P8    YIYTM   006400630017
BI00B32P8    TAPI-2104      202209287116-4029-08             TERMINAL FEMALE          CCN000016000000016000FN00000000020221001000016000NNM   20220715122115    4P0P  00001600000000670400000999132P8    YIYTM   006400630017
BI00B32P8    TAPI-2102      202209147116-4031                TERMINAL                 CCN000007500000007500FN00000000020221001000007500NNM   20220715122115    4P0P  00000750000000619500000904732P8    YIYTM   006400630015
BI00B32P8    TAPI-2104      202209287116-4031                TERMINAL                 CCN000007500000007500FN00000000020221001000007500NNM   20220715122115    4P0P  00000750000000619500000904732P8    YIYTM   006400630015
BI00B32P8    TAPI-2102      202209147116-4032                TERMINAL                 CCN000012000000012000FN00000000020221001000012000NNM   20220715122115    4P0P  00000600000000532800000818032P8    YIYTM   006400630015
BI00B32P8    TAPI-2103      202209217116-4032                TERMINAL                 CCN000018000000018000FN00000000020221001000018000NNM   20220715122115    4P0P  00000600000000532800000818032P8    YIYTM   006400630015
BI00B32P8    TAPI-2104      202209287116-4032                TERMINAL                 CCN000024000000024000FN00000000020221001000024000NNM   20220715122115    4P0P  00000600000000532800000818032P8    YIYTM   006400630015
BI00B32P8    TAPI-2101      202209077116-4037                TERMINAL                 CCN000048000000048000FN00000000020221001000048000NNM   20220715122115    4P0P  00000600000000600000000894232P8    YIYTM   006400630015
BI00B32P8    TAPI-2102      202209147116-4037                TERMINAL                 CCN000024000000024000FN00000000020221001000024000NNM   20220715122115    4P0P  00000600000000600000000894232P8    YIYTM   006400630015
BI00B32P8    TAPI-2103      202209217116-4037                TERMINAL                 CCN000024000000024000FN00000000020221001000024000NNM   20220715122115    4P0P  00000600000000600000000894232P8    YIYTM   006400630015
BI00B32P8    TAPI-2104      202209287116-4037                TERMINAL                 CCN000018000000018000FN00000000020221001000018000NNM   20220715122115    4P0P  00000600000000600000000894232P8    YIYTM   006400630015
BI00B32P8    TAPI-2102      202209147116-4101-02             TERMINAL                 CCN000012000000012000FN00000000020221001000012000NNM   20220715122115    4P0P  00001200000000582000000876232P8    YIYTM   006400630015
BI00B32P8    TAPI-2103      202209217116-4101-02             TERMINAL                 CCN000012000000012000FN00000000020221001000012000NNM   20220715122115    4P0P  00001200000000582000000876232P8    YIYTM   006400630015
BI00B32P8    TAPI-2104      202209287116-4101-02             TERMINAL                 CCN000012000000012000FN00000000020221001000012000NNM   20220715122115    4P0P  00001200000000582000000876232P8    YIYTM   006400630015
BI00B32P8    TAPI-2101      202209077116-4110-02             TERMINAL                 CCN000027000000027000FN00000000020221001000027000NNM   20220715122115    4P0P  00000900000000594000000882232P8    YIYTM   006400630015
BI00B32P8    TAPI-2102      202209147116-4110-02             TERMINAL                 CCN000036000000036000FN00000000020221001000036000NNM   20220715122115    4P0P  00000900000000594000000882232P8    YIYTM   006400630015
BI00B32P8    TAPI-2103      202209217116-4110-02             TERMINAL                 CCN000027000000027000FN00000000020221001000027000NNM   20220715122115    4P0P  00000900000000594000000882232P8    YIYTM   006400630015
BI00B32P8    TAPI-2104      202209287116-4110-02             TERMINAL                 CCN000036000000036000FN00000000020221001000036000NNM   20220715122115    4P0P  00000900000000594000000882232P8    YIYTM   006400630015
BI00B32P8    TAPI-2102      202209147116-4111-02             TERMINAL                 CCN000022500000022500FN00000000020221001000022500NNM   20220715122115    4P0P  00000750000000529500000817732P8    YIYTM   006400630015
BI00B32P8    TAPI-2103      202209217116-4111-02             TERMINAL                 CCN000022500000022500FN00000000020221001000022500NNM   20220715122115    4P0P  00000750000000529500000817732P8    YIYTM   006400630015
BI00B32P8    TAPI-2104      202209287116-4111-02             TERMINAL                 CCN000022500000022500FN00000000020221001000022500NNM   20220715122115    4P0P  00000750000000529500000817732P8    YIYTM   006400630015
BI00B32P8    TAPI-2102      202209147116-4112-02             TERMINAL                 CCN000090000000090000FN00000000020221001000090000NNM   20220715122115    4P0P  00000600000000450000000738232P8    YIYTM   006400630015
BI00B32P8    TAPI-2103      202209217116-4112-02             TERMINAL                 CCN000096000000096000FN00000000020221001000096000NNM   20220715122115    4P0P  00000600000000450000000738232P8    YIYTM   006400630015
BI00B32P8    TAPI-2104      202209287116-4112-02             TERMINAL                 CCN000096000000096000FN00000000020221001000096000NNM   20220715122115    4P0P  00000600000000450000000738232P8    YIYTM   006400630015
BI00B32P8    TAPI-2101      202209077116-4120-02             TERMINAL                 CCN000060000000060000FN00000000020221001000060000NNM   20220715122115    4P0P  00000600000000780000001073632P8    YIYTM   006400630015
BI00B32P8    TAPI-2102      202209147116-4120-02             TERMINAL                 CCN000030000000030000FN00000000020221001000030000NNM   20220715122115    4P0P  00000600000000780000001073632P8    YIYTM   006400630015
BI00B32P8    TAPI-2103      202209217116-4120-02             TERMINAL                 CCN000030000000030000FN00000000020221001000030000NNM   20220715122115    4P0P  00000600000000780000001073632P8    YIYTM   006400630015
BI00B32P8    TAPI-2104      202209287116-4120-02             TERMINAL                 CCN000030000000030000FN00000000020221001000030000NNM   20220715122115    4P0P  00000600000000780000001073632P8    YIYTM   006400630015
BI00B32P8    TAPI-2101      202209077116-4121-02             TERMINAL                 CCN000094500000094500FN00000000020221001000094500NNM   20220715122115    4P0P  00000450000000618800000912432P8    YIYTM   006400630015
BI00B32P8    TAPI-2102      202209147116-4121-02             TERMINAL                 CCN000067500000067500FN00000000020221001000067500NNM   20220715122115    4P0P  00000450000000618800000912432P8    YIYTM   006400630015
BI00B32P8    TAPI-2103      202209217116-4121-02             TERMINAL                 CCN000063000000063000FN00000000020221001000063000NNM   20220715122115    4P0P  00000450000000618800000912432P8    YIYTM   006400630015
BI00B32P8    TAPI-2104      202209287116-4121-02             TERMINAL                 CCN000067500000067500FN00000000020221001000067500NNM   20220715122115    4P0P  00000450000000618800000912432P8    YIYTM   006400630015
BI00B32P8    TAPI-2103      202209217116-4122-02             TERMINAL                 CCN000022500000022500FN00000000020221001000022500NNM   20220715122115    4P0P  00000450000000656600000950232P8    YIYTM   006400630015
BI00B32P8    TAPI-2104      202209287116-4122-02             TERMINAL                 CCN000157500000157500FN00000000020221001000157500NNM   20220715122115    4P0P  00000450000000656600000950232P8    YIYTM   006400630015
BI00B32P8    TAPI-2101      202209077116-4124-02             TERMINAL                 CCN000003000000003000FN00000000020221001000003000NNM   20220715122115    4P0P  00000300000000459900000753532P8    YIYTM   006400630015
BI00B32P8    TAPI-2102      202209147116-4124-02             TERMINAL                 CCN000003000000003000FN00000000020221001000003000NNM   20220715122115    4P0P  00000300000000459900000753532P8    YIYTM   006400630015
BI00B32P8    TAPI-2103      202209217116-4124-02             TERMINAL                 CCN000003000000003000FN00000000020221001000003000NNM   20220715122115    4P0P  00000300000000459900000753532P8    YIYTM   006400630015
BI00B32P8    TAPI-2104      202209287116-4124-02             TERMINAL                 CCN000003000000003000FN00000000020221001000003000NNM   20220715122115    4P0P  00000300000000459900000753532P8    YIYTM   006400630015
BI00B32P8    TAPI-2102      202209147116-4415-02             TERMINAL                 CCN000076000000076000FN00000000020221001000076000NNM   20220715122115    4P0P  00003800000000596600000925732P8    YIYTM   006400630017
BI00B32P8    TAPI-2103      202209217116-4415-02             TERMINAL                 CCN000152000000152000FN00000000020221001000152000NNM   20220715122115    4P0P  00003800000000596600000925732P8    YIYTM   006400630017
BI00B32P8    TAPI-2104      202209287116-4415-02             TERMINAL                 CCN000190000000190000FN00000000020221001000190000NNM   20220715122115    4P0P  00003800000000596600000925732P8    YIYTM   006400630017
BI00B32P8    TAPI-2102      202209147116-4416-02             TERMINAL                 CCN000224000000224000FN00000000020221001000224000NNM   20220715122115    4P0P  00003200000000518400000847132P8    YIYTM   006400630017
BI00B32P8    TAPI-2103      202209217116-4416-02             TERMINAL                 CCN000256000000256000FN00000000020221001000256000NNM   20220715122115    4P0P  00003200000000518400000847132P8    YIYTM   006400630017
BI00B32P8    TAPI-2104      202209287116-4416-02             TERMINAL                 CCN000224000000224000FN00000000020221001000224000NNM   20220715122115    4P0P  00003200000000518400000847132P8    YIYTM   006400630017
BI00B32P8    TAPI-2101      202209077116-4486-02             TERMINAL                 CCN000028000000028000FN00000000020221001000028000NNM   20220715122115    4P0P  00002800000000666400000995132P8    YIYTM   006400630017
BI00B32P8    TAPI-2103      202209217116-4486-02             TERMINAL                 CCN000028000000028000FN00000000020221001000028000NNM   20220715122115    4P0P  00002800000000666400000995132P8    YIYTM   006400630017
BI00B32P8    TAPI-2101      202209077116-4780-02             TERMINAL FEMALE          CCN000165000000165000FN00000000020221001000165000NNM   20220715122115    4P0P  00001500000000691500000985732P8    YIYTM   006400630015
BI00B32P8    TAPI-2102      202209147116-4780-02             TERMINAL FEMALE          CCN000165000000165000FN00000000020221001000165000NNM   20220715122115    4P0P  00001500000000691500000985732P8    YIYTM   006400630015
BI00B32P8    TAPI-2103      202209217116-4780-02             TERMINAL FEMALE          CCN000165000000165000FN00000000020221001000165000NNM   20220715122115    4P0P  00001500000000691500000985732P8    YIYTM   006400630015
BI00B32P8    TAPI-2104      202209287116-4780-02             TERMINAL FEMALE          CCN000165000000165000FN00000000020221001000165000NNM   20220715122115    4P0P  00001500000000691500000985732P8    YIYTM   006400630015
BI00B32P8    TAPI-2104      202209287116-5035-02             TERMINAL                 CCN000015000000015000FN00000000020221001000015000NNM   20220715122115    4P0P  00001500000000543000000828232P8    YIYTM   006400630015
BI00B32P8    TAPI-2103      202209217116-5036-02             TERMINAL                 CCN000013500000013500FN00000000020221001000013500NNM   20220715122115    4P0P  00001350000000618300001042232P8    YIYTM   006400630015
BI00B32P8    TAPI-2101      202209077116-5041-02             TERMINAL                 CCN000030000000030000FN00000000020221001000030000NNM   20220715122115    4P0P  00001500000000583500000868732P8    YIYTM   006400630015
BI00B32P8    TAPI-2102      202209147116-5041-02             TERMINAL                 CCN000030000000030000FN00000000020221001000030000NNM   20220715122115    4P0P  00001500000000583500000868732P8    YIYTM   006400630015
BI00B32P8    TAPI-2103      202209217116-5041-02             TERMINAL                 CCN000015000000015000FN00000000020221001000015000NNM   20220715122115    4P0P  00001500000000583500000868732P8    YIYTM   006400630015
BI00B32P8    TAPI-2104      202209287116-5041-02             TERMINAL                 CCN000015000000015000FN00000000020221001000015000NNM   20220715122115    4P0P  00001500000000583500000868732P8    YIYTM   006400630015
BI00B32P8    TAPI-2101      202209077116-5042-02             TERMINAL                 CCN000054000000054000FN00000000020221001000054000NNM   20220715122115    4P0P  00001350000000560300000845532P8    YIYTM   006400630015
BI00B32P8    TAPI-2102      202209147116-5042-02             TERMINAL                 CCN000040500000040500FN00000000020221001000040500NNM   20220715122115    4P0P  00001350000000560300000845532P8    YIYTM   006400630015
BI00B32P8    TAPI-2103      202209217116-5042-02             TERMINAL                 CCN000040500000040500FN00000000020221001000040500NNM   20220715122115    4P0P  00001350000000560300000845532P8    YIYTM   006400630015
BI00B32P8    TAPI-2104      202209287116-5042-02             TERMINAL                 CCN000040500000040500FN00000000020221001000040500NNM   20220715122115    4P0P  00001350000000560300000845532P8    YIYTM   006400630015
BI00B32P8    TAPI-2101      202209077116-5043-02             TERMINAL FEMALE          CCN000036000000036000FN00000000020221001000036000NNM   20220715122115    4P0P  00001200000000559200000844432P8    YIYTM   006400630015
BI00B32P8    TAPI-2102      202209147116-5043-02             TERMINAL FEMALE          CCN000036000000036000FN00000000020221001000036000NNM   20220715122115    4P0P  00001200000000559200000844432P8    YIYTM   006400630015
BI00B32P8    TAPI-2103      202209217116-5043-02             TERMINAL FEMALE          CCN000036000000036000FN00000000020221001000036000NNM   20220715122115    4P0P  00001200000000559200000844432P8    YIYTM   006400630015
BI00B32P8    TAPI-2104      202209287116-5043-02             TERMINAL FEMALE          CCN000036000000036000FN00000000020221001000036000NNM   20220715122115    4P0P  00001200000000559200000844432P8    YIYTM   006400630015
BI00B32P8    TAPI-2102      202209147116-5044-02             TERMINAL                 CCN000240000000240000FN00000000020221001000240000NNM   20220715122115    4P0P  00001600000000641600000986332P8    YIYTM   006400630017
BI00B32P8    TAPI-2103      202209217116-5044-02             TERMINAL                 CCN000432000000432000FN00000000020221001000432000NNM   20220715122115    4P0P  00001600000000641600000986332P8    YIYTM   006400630017
BI00B32P8    TAPI-2104      202209287116-5044-02             TERMINAL                 CCN000432000000432000FN00000000020221001000432000NNM   20220715122115    4P0P  00001600000000641600000986332P8    YIYTM   006400630017
BI00B32P8    TAPI-2102      202209147116-5045-02             TERMINAL                 CCN000048000000048000FN00000000020221001000048000NNM   20220715122115    4P0P  00001600000000678400001007132P8    YIYTM   006400630017
BI00B32P8    TAPI-2103      202209217116-5045-02             TERMINAL                 CCN000096000000096000FN00000000020221001000096000NNM   20220715122115    4P0P  00001600000000678400001007132P8    YIYTM   006400630017
BI00B32P8    TAPI-2104      202209287116-5045-02             TERMINAL                 CCN000080000000080000FN00000000020221001000080000NNM   20220715122115    4P0P  00001600000000678400001007132P8    YIYTM   006400630017
BI00B32P8    TAPI-2102      202209147116-5046-02             TERMINAL                 CCN000060000000060000FN00000000020221001000060000NNM   20220715122115    4P0P  00001200000000544800000873532P8    YIYTM   006400630017
BI00B32P8    TAPI-2103      202209217116-5046-02             TERMINAL                 CCN000084000000084000FN00000000020221001000084000NNM   20220715122115    4P0P  00001200000000544800000873532P8    YIYTM   006400630017
BI00B32P8    TAPI-2104      202209287116-5046-02             TERMINAL                 CCN000084000000084000FN00000000020221001000084000NNM   20220715122115    4P0P  00001200000000544800000873532P8    YIYTM   006400630017
BI00B32P8    TAPI-2101      202209077116-5097-02             TERMINAL                 CCN000067500000067500FN00000000020221001000067500NNM   20220715122115    4P0P  00002250000000531000000816232P8    YIYTM   006400630015
BI00B32P8    TAPI-2102      202209147116-5097-02             TERMINAL                 CCN000045000000045000FN00000000020221001000045000NNM   20220715122115    4P0P  00002250000000531000000816232P8    YIYTM   006400630015
BI00B32P8    TAPI-2103      202209217116-5097-02             TERMINAL                 CCN000067500000067500FN00000000020221001000067500NNM   20220715122115    4P0P  00002250000000531000000816232P8    YIYTM   006400630015
BI00B32P8    TAPI-2104      202209287116-5097-02             TERMINAL                 CCN000045000000045000FN00000000020221001000045000NNM   20220715122115    4P0P  00002250000000531000000816232P8    YIYTM   006400630015
BI00B32P8    TAPI-2102      202209147116-5750-02             TERMINAL                 CCN000030000000030000FN00000000020221001000030000NNM   20220715122115    4P0P  00001500000000457500000742732P8    YIYTM   006400630015
BI00B32P8    TAPI-2103      202209217116-5750-02             TERMINAL                 CCN000045000000045000FN00000000020221001000045000NNM   20220715122115    4P0P  00001500000000457500000742732P8    YIYTM   006400630015
BI00B32P8    TAPI-2104      202209287116-5750-02             TERMINAL                 CCN000045000000045000FN00000000020221001000045000NNM   20220715122115    4P0P  00001500000000457500000742732P8    YIYTM   006400630015
BI00B32P8    TAPI-2101      202209077116-5751-02             TERMINAL                 CCN000048000000048000FN00000000020221001000048000NNM   20220715122115    4P0P  00001200000000379200000664432P8    YIYTM   006400630015
BI00B32P8    TAPI-2102      202209147116-5751-02             TERMINAL                 CCN000036000000036000FN00000000020221001000036000NNM   20220715122115    4P0P  00001200000000379200000664432P8    YIYTM   006400630015
BI00B32P8    TAPI-2103      202209217116-5751-02             TERMINAL                 CCN000036000000036000FN00000000020221001000036000NNM   20220715122115    4P0P  00001200000000379200000664432P8    YIYTM   006400630015
BI00B32P8    TAPI-2104      202209287116-5751-02             TERMINAL                 CCN000036000000036000FN00000000020221001000036000NNM   20220715122115    4P0P  00001200000000379200000664432P8    YIYTM   006400630015
BI00B32P8    TAPI-2102      202209147116-5752-02             TERMINAL                 CCN000021000000021000FN00000000020221001000021000NNM   20220715122115    4P0P  00002100000000571200000856432P8    YIYTM   006400630015
BI00B32P8    TAPI-2103      202209217116-5752-02             TERMINAL                 CCN000021000000021000FN00000000020221001000021000NNM   20220715122115    4P0P  00002100000000571200000856432P8    YIYTM   006400630015
BI00B32P8    TAPI-2104      202209287116-5752-02             TERMINAL                 CCN000021000000021000FN00000000020221001000021000NNM   20220715122115    4P0P  00002100000000571200000856432P8    YIYTM   006400630015
BI00B32P8    TAPI-2101      202209077116-6041                TERMINAL                 CCN000013500000013500FN00000000020221001000013500NNM   20220715122115    4P0P  00000450000000716000001009632P8    YIYTM   006400630015
BI00B32P8    TAPI-2102      202209147116-6041                TERMINAL                 CCN000004500000004500FN00000000020221001000004500NNM   20220715122115    4P0P  00000450000000716000001009632P8    YIYTM   006400630015
BI00B32P8    TAPI-2103      202209217116-6041                TERMINAL                 CCN000009000000009000FN00000000020221001000009000NNM   20220715122115    4P0P  00000450000000716000001009632P8    YIYTM   006400630015
BI00B32P8    TAPI-2104      202209287116-6041                TERMINAL                 CCN000004500000004500FN00000000020221001000004500NNM   20220715122115    4P0P  00000450000000716000001009632P8    YIYTM   006400630015
BI00B32P8    TAPI-2101      202209077116-6042                TERMINAL                 CCN000006000000006000FN00000000020221001000006000NNM   20220715122115    4P0P  00000300000000523800000856132P8    YIYTM   006400630015
BI00B32P8    TAPI-2102      202209147116-6042                TERMINAL                 CCN000006000000006000FN00000000020221001000006000NNM   20220715122115    4P0P  00000300000000523800000856132P8    YIYTM   006400630015
BI00B32P8    TAPI-2103      202209217116-6042                TERMINAL                 CCN000003000000003000FN00000000020221001000003000NNM   20220715122115    4P0P  00000300000000523800000856132P8    YIYTM   006400630015
BI00B32P8    TAPI-2104      202209287116-6042                TERMINAL                 CCN000006000000006000FN00000000020221001000006000NNM   20220715122115    4P0P  00000300000000523800000856132P8    YIYTM   006400630015
BI00B32P8    TAPI-2101      202209077126-8826-02             TERMINAL                 CCN000045000000045000FN00000000020221001000045000NNM   20220715122115    1P0P  00000900000000788400001073632P8    YIYTM   006400630015
BI00B32P8    TAPI-2102      202209147126-8826-02             TERMINAL                 CCN000036000000036000FN00000000020221001000036000NNM   20220715122115    1P0P  00000900000000788400001073632P8    YIYTM   006400630015
BI00B32P8    TAPI-2103      202209217126-8826-02             TERMINAL                 CCN000027000000027000FN00000000020221001000027000NNM   20220715122115    1P0P  00000900000000788400001073632P8    YIYTM   006400630015
BI00B32P8    TAPI-2104      202209287126-8826-02             TERMINAL                 CCN000036000000036000FN00000000020221001000036000NNM   20220715122115    1P0P  00000900000000788400001073632P8    YIYTM   006400630015
BI00B32P8    TAPI-2102      202209147126-8850-02             TERMINAL                 CCN000009000000009000FN00000000020221001000009000NNM   20220715122115    1P0P  00000900000000672300000957532P8    YIYTM   006400630015
BI00B32P8    TAPI-2103      202209217126-8850-02             TERMINAL                 CCN000009000000009000FN00000000020221001000009000NNM   20220715122115    1P0P  00000900000000672300000957532P8    YIYTM   006400630015
BI00B32P8    TAPI-2103      202209217126-8851-02             TERMINAL                 CCN000009000000009000FN00000000020221001000009000NNM   20220715122115    1P0P  00000900000000739800001025032P8    YIYTM   006400630015
BI00B32P8    TAPI-2104      202209287126-8851-02             TERMINAL                 CCN000009000000009000FN00000000020221001000009000NNM   20220715122115    1P0P  00000900000000739800001025032P8    YIYTM   006400630015
BI00B32P8    TAPI-2101      202209077126-8853-02             TERMINAL                 CCN000045000000045000FN00000000020221001000045000NNM   20220715122115    4P0P  00000750000000562500000847732P8    YIYTM   006400630015
BI00B32P8    TAPI-2102      202209147126-8853-02             TERMINAL                 CCN000045000000045000FN00000000020221001000045000NNM   20220715122115    4P0P  00000750000000562500000847732P8    YIYTM   006400630015
BI00B32P8    TAPI-2103      202209217126-8853-02             TERMINAL                 CCN000052500000052500FN00000000020221001000052500NNM   20220715122115    4P0P  00000750000000562500000847732P8    YIYTM   006400630015
BI00B32P8    TAPI-2104      202209287126-8853-02             TERMINAL                 CCN000045000000045000FN00000000020221001000045000NNM   20220715122115    4P0P  00000750000000562500000847732P8    YIYTM   006400630015
BI00B32P8    TAPI-2101      202209077126-8854-02             TERMINAL                 CCN000015000000015000FN00000000020221001000015000NNM   20220715122115    4P0P  00000750000000604500000889732P8    YIYTM   006400630015
BI00B32P8    TAPI-2102      202209147126-8854-02             TERMINAL                 CCN000037500000037500FN00000000020221001000037500NNM   20220715122115    4P0P  00000750000000604500000889732P8    YIYTM   006400630015
BI00B32P8    TAPI-2103      202209217126-8854-02             TERMINAL                 CCN000037500000037500FN00000000020221001000037500NNM   20220715122115    4P0P  00000750000000604500000889732P8    YIYTM   006400630015
BI00B32P8    TAPI-2104      202209287126-8854-02             TERMINAL                 CCN000030000000030000FN00000000020221001000030000NNM   20220715122115    4P0P  00000750000000604500000889732P8    YIYTM   006400630015
BI00B32P8    TAPI-2101      202209077126-8855-02             TERMINAL                 CCN000012000000012000FN00000000020221001000012000NNM   20220715122115    4P0P  00000600000000510600000795832P8    YIYTM   006400630015
BI00B32P8    TAPI-2102      202209147126-8855-02             TERMINAL                 CCN000012000000012000FN00000000020221001000012000NNM   20220715122115    4P0P  00000600000000510600000795832P8    YIYTM   006400630015
BI00B32P8    TAPI-2103      202209217126-8855-02             TERMINAL                 CCN000012000000012000FN00000000020221001000012000NNM   20220715122115    4P0P  00000600000000510600000795832P8    YIYTM   006400630015
BI00B32P8    TAPI-2104      202209287126-8855-02             TERMINAL                 CCN000006000000006000FN00000000020221001000006000NNM   20220715122115    4P0P  00000600000000510600000795832P8    YIYTM   006400630015
BI00B32P8    TAPI-2101      202209077195-1463-02             TERMINAL MALE            CCN000057000000057000FN00000000020221001000057000NNM   20220715122115    4P0P  00002850000000456000000741232P8    YIYTM   006400630015
BI00B32P8    TAPI-2102      202209147195-1463-02             TERMINAL MALE            CCN000028500000028500FN00000000020221001000028500NNM   20220715122115    4P0P  00002850000000456000000741232P8    YIYTM   006400630015
BI00B32P8    TAPI-2104      202209287195-1463-02             TERMINAL MALE            CCN000028500000028500FN00000000020221001000028500NNM   20220715122115    4P0P  00002850000000456000000741232P8    YIYTM   006400630015
BI00B32P8    TAPI-2101      202209077195-1464-02             TERMINAL MALE            CCN000025500000025500FN00000000020221001000025500NNM   20220715122115    4P0P  00002550000000420800000706032P8    YIYTM   006400630015
BI00B32P8    TAPI-2102      202209147195-1464-02             TERMINAL MALE            CCN000025500000025500FN00000000020221001000025500NNM   20220715122115    4P0P  00002550000000420800000706032P8    YIYTM   006400630015
BI00B32P8    TAPI-2103      202209217195-1464-02             TERMINAL MALE            CCN000025500000025500FN00000000020221001000025500NNM   20220715122115    4P0P  00002550000000420800000706032P8    YIYTM   006400630015
BI00B32P8    TAPI-2104      202209287195-1464-02             TERMINAL MALE            CCN000051000000051000FN00000000020221001000051000NNM   20220715122115    4P0P  00002550000000420800000706032P8    YIYTM   006400630015
BI00B32P8    TAPI-2103      202209217196-0510-02             TERMINAL                 CCN000024000000024000FN00000000020221001000024000NNM   20220715122115    4P0P  00002400000000871200001034632P8    YIYTM   002800510028
BI00B32P8    TAPI-2102      202209147196-1103-02             TERMINAL                 CCN000472500000472500FN00000000020221001000472500NNM   20220715122115    4P0P  00002250000000429800000715032P8    YIYTM   006400630015
BI00B32P8    TAPI-2103      202209217196-1103-02             TERMINAL                 CCN000472500000472500FN00000000020221001000472500NNM   20220715122115    4P0P  00002250000000429800000715032P8    YIYTM   006400630015
BI00B32P8    TAPI-2104      202209287196-1103-02             TERMINAL                 CCN000450000000450000FN00000000020221001000450000NNM   20220715122115    4P0P  00002250000000429800000715032P8    YIYTM   006400630015
BI00B32P8    TAPI-2103      202209217196-1104-02             TERMINAL                 CCN000135000000135000FN00000000020221001000135000NNM   20220715122115    4P0P  00002250000000441000000726232P8    YIYTM   006400630015
BI00B32P8    TAPI-2104      202209287196-1104-02             TERMINAL                 CCN000112500000112500FN00000000020221001000112500NNM   20220715122115    4P0P  00002250000000441000000726232P8    YIYTM   006400630015
BI00B32P8    TAPI-2101      202209077196-1460-02             TERMINAL FEMALE          CCN000256500000256500FN00000000020221001000256500NNM   20220715122115    4P0P  00002850000000444600000729832P8    YIYTM   006400630015
BI00B32P8    TAPI-2102      202209147196-1460-02             TERMINAL FEMALE          CCN000256500000256500FN00000000020221001000256500NNM   20220715122115    4P0P  00002850000000444600000729832P8    YIYTM   006400630015
BI00B32P8    TAPI-2103      202209217196-1460-02             TERMINAL FEMALE          CCN000256500000256500FN00000000020221001000256500NNM   20220715122115    4P0P  00002850000000444600000729832P8    YIYTM   006400630015
BI00B32P8    TAPI-2104      202209287196-1460-02             TERMINAL FEMALE          CCN000256500000256500FN00000000020221001000256500NNM   20220715122115    4P0P  00002850000000444600000729832P8    YIYTM   006400630015
BI00B32P8    TAPI-2101      202209077196-1461-02             TERMINAL FEMALE          CCN000168000000168000FN00000000020221001000168000NNM   20220715122115    4P0P  00002400000000386400000671632P8    YIYTM   006400630015
BI00B32P8    TAPI-2102      202209147196-1461-02             TERMINAL FEMALE          CCN000144000000144000FN00000000020221001000144000NNM   20220715122115    4P0P  00002400000000386400000671632P8    YIYTM   006400630015
BI00B32P8    TAPI-2103      202209217196-1461-02             TERMINAL FEMALE          CCN000144000000144000FN00000000020221001000144000NNM   20220715122115    4P0P  00002400000000386400000671632P8    YIYTM   006400630015
BI00B32P8    TAPI-2104      202209287196-1461-02             TERMINAL FEMALE          CCN000168000000168000FN00000000020221001000168000NNM   20220715122115    4P0P  00002400000000386400000671632P8    YIYTM   006400630015
BI00B32P8    TAPI-2101      202209077196-1462-02             TERMINAL FEMALE          CCN000021000000021000FN00000000020221001000021000NNM   20220715122115    4P0P  00002100000000352800000638032P8    YIYTM   006400630015
BI00B32P8    TAPI-2102      202209147196-1462-02             TERMINAL FEMALE          CCN000021000000021000FN00000000020221001000021000NNM   20220715122115    4P0P  00002100000000352800000638032P8    YIYTM   006400630015
BI00B32P8    TAPI-2103      202209217196-1466-02             TERMINAL MALE            CCN000028500000028500FN00000000020221001000028500NNM   20220715122115    4P0P  00002850000000427500000712732P8    YIYTM   006400630015
BI00B32P8    TAPI-2102      202209147196-1604-02             TERMINAL                 CCN000015000000015000FN00000000020221001000015000NNM   20220715122115    4P0P  00001500000000337500000622732P8    YIYTM   006400630015
