BI00B32AG    XG22102CMW     2022091618000004590              AV 8 L                   CCN000000900000000900FN00000000020221001000000900NNM   20220715132039    1W    00000010000010466200000000032AG    XGXGY   000000000000XU528001
BI00B32AG    XG22103CMW     2022092318000004590              AV 8 L                   CCN000000600000000600FN00000000020221001000000600NNM   20220715132039    1W    00000010000010466200000000032AG    XGXGY   000000000000XU129001
BI00B32AG    @XG22101LMW    20220909181E48031ZZ              CAVSAS-S 0.3X2 GY        CCN000010150000010150FN00000000020221001000010150NNM   20220715132037    1W    00000035000002008700000000032AG    XGXGY   000000000000XY428001
BI00B32AG    @XG22102LMW    20220916181E48031ZZ              CAVSAS-S 0.3X2 GY        CCN000005950000005950FN00000000020221001000005950NNM   20220715132037    1W    00000035000002008700000000032AG    XGXGY   000000000000XY528001
BI00B32AG    @XG22103LMW    20220923181E48031ZZ              CAVSAS-S 0.3X2 GY        CCN000001750000001750FN00000000020221001000001750NNM   20220715132037    1W    00000035000002008700000000032AG    XGXGY   000000000000XY129001
BI00B32DE    TT208F         2022080418000004535              AV 8 B/R                 CCN000001800000001800FN00000000020220801000001800NNE   20220715133315    1W    00000010000010466200000000032DE    TVYEV-TV000000000000VW327003
BI00B32DE    TT208F         20220804180D0203945              AVSSH 0.5F W/R           CCN000001500000001500FN00000000020220801000001500NNE   20220715133315    1W    00000150000000689000000000032DE    TVYEV-TV000000000000VW327001
BI00B32DE    TT208F         20220804180D0204040              AVSSH 0.75F W            CCN000001000000001000FN00000000020220801000001000NNE   20220715133315    1W    00000100000000934000000000032DE    TVYEV-TV000000000000VW327002
BI00B32DE    TT209A         2022082518000004530              AV 8 B                   CCN000001800000001800FN00000000020220901000001800NNE   20220715133317    1W    00000010000010466200000000032DE    TVYEV-TV000000000000VX228046
BI00B32DE    TT209A         2022082518000004535              AV 8 B/R                 CCN000001800000001800FN00000000020220901000001800NNE   20220715133317    1W    00000010000010466200000000032DE    TVYEV-TV000000000000VX228047
BI00B32DE    TT209A         2022082518000004534              AV 8 B/W                 CCN000001800000001800FN00000000020220901000001800NNE   20220715133317    1W    00000010000010466200000000032DE    TVYEV-TV000000000000VX228048
BI00B32DE    TT209A         2022082518007703741              AVSS 0.3F GY             CCN000002000000002000FN00000000020220901000002000NNE   20220715133317    1W    00000200000000496000000000032DE    TVYEV-TV000000000000VX228049
BI00B32DE    TT209A         2022082518007703750              AVSS 0.3F R              CCN000004000000004000FN00000000020220901000004000NNE   20220715133317    1W    00000200000000496000000000032DE    TVYEV-TV000000000000VX228050
BI00B32DE    TT209A         2022082518007703990              AVSS 0.5F L              CCN000001500000001500FN00000000020220901000001500NNE   20220715133317    1W    00000150000000674000000000032DE    TVYEV-TV000000000000VX228051
BI00B32DE    TT209A         2022082518007703940              AVSS 0.5F W              CCN000001500000001500FN00000000020220901000001500NNE   20220715133317    1W    00000150000000674000000000032DE    TVYEV-TV000000000000VX228052
BI00B32DE    TT209A         2022082518007704180              AVSS 1.25F BR            CCN000000800000000800FN00000000020220901000000800NNE   20220715133317    1W    00000080000001389000000000032DE    TVYEV-TV000000000000VX228053
BI00B32DE    TT209A         20220825180D0203930              AVSSH 0.5F B             CCN000013500000013500FN00000000020220901000013500NNE   20220715133317    1W    00000150000000689000000000032DE    TVYEV-TV000000000000VX228026
BI00B32DE    TT209A         20220825180D0203960              AVSSH 0.5F G             CCN000007500000007500FN00000000020220901000007500NNE   20220715133317    1W    00000150000000689000000000032DE    TVYEV-TV000000000000VX228027
BI00B32DE    TT209A         20220825180D0203963              AVSSH 0.5F G/B           CCN000004500000004500FN00000000020220901000004500NNE   20220715133317    1W    00000150000000689000000000032DE    TVYEV-TV000000000000VX228028
BI00B32DE    TT209A         20220825180D0203941              AVSSH 0.5F GY            CCN000001500000001500FN00000000020220901000001500NNE   20220715133317    1W    00000150000000689000000000032DE    TVYEV-TV000000000000VX228029
BI00B32DE    TT209A         20220825180D0203990              AVSSH 0.5F L             CCN000027000000027000FN00000000020220901000027000NNE   20220715133317    1W    00000150000000689000000000032DE    TVYEV-TV000000000000VX228030
BI00B32DE    TT209A         20220825180D0203995              AVSSH 0.5F L/R           CCN000007500000007500FN00000000020220901000007500NNE   20220715133317    1W    00000150000000689000000000032DE    TVYEV-TV000000000000VX228031
BI00B32DE    TT209A         20220825180D0203994              AVSSH 0.5F L/W           CCN000009000000009000FN00000000020220901000009000NNE   20220715133317    1W    00000150000000689000000000032DE    TVYEV-TV000000000000VX228032
BI00B32DE    TT209A         20220825180D0203997              AVSSH 0.5F L/Y           CCN000003000000003000FN00000000020220901000003000NNE   20220715133317    1W    00000150000000689000000000032DE    TVYEV-TV000000000000VX228033
BI00B32DE    TT209A         20220825180D0203952              AVSSH 0.5F P             CCN000007500000007500FN00000000020220901000007500NNE   20220715133317    1W    00000150000000689000000000032DE    TVYEV-TV000000000000VX228034
BI00B32DE    TT209A         20220825180D0203950              AVSSH 0.5F R             CCN000012000000012000FN00000000020220901000012000NNE   20220715133317    1W    00000150000000689000000000032DE    TVYEV-TV000000000000VX228035
BI00B32DE    TT209A         20220825180D0203954              AVSSH 0.5F R/W           CCN000001500000001500FN00000000020220901000001500NNE   20220715133317    1W    00000150000000689000000000032DE    TVYEV-TV000000000000VX228036
BI00B32DE    TT209A         20220825180D0203992              AVSSH 0.5F V             CCN000001500000001500FN00000000020220901000001500NNE   20220715133317    1W    00000150000000689000000000032DE    TVYEV-TV000000000000VX228037
BI00B32DE    TT209A         20220825180D0203940              AVSSH 0.5F W             CCN000030000000030000FN00000000020220901000030000NNE   20220715133317    1W    00000150000000689000000000032DE    TVYEV-TV000000000000VX228038
BI00B32DE    TT209A         20220825180D0203943              AVSSH 0.5F W/B           CCN000003000000003000FN00000000020220901000003000NNE   20220715133317    1W    00000150000000689000000000032DE    TVYEV-TV000000000000VX228039
BI00B32DE    TT209A         20220825180D0203946              AVSSH 0.5F W/G           CCN000001500000001500FN00000000020220901000001500NNE   20220715133317    1W    00000150000000689000000000032DE    TVYEV-TV000000000000VX228040
BI00B32DE    TT209A         20220825180D0203949              AVSSH 0.5F W/L           CCN000010500000010500FN00000000020220901000010500NNE   20220715133317    1W    00000150000000689000000000032DE    TVYEV-TV000000000000VX228041
BI00B32DE    TT209A         20220825180D0203945              AVSSH 0.5F W/R           CCN000003000000003000FN00000000020220901000003000NNE   20220715133317    1W    00000150000000689000000000032DE    TVYEV-TV000000000000VX228042
BI00B32DE    TT209A         20220825180D0203973              AVSSH 0.5F Y/B           CCN000001500000001500FN00000000020220901000001500NNE   20220715133317    1W    00000150000000689000000000032DE    TVYEV-TV000000000000VX228043
BI00B32DE    TT209A         20220825180D0204043              AVSSH 0.75F W/B          CCN000005000000005000FN00000000020220901000005000NNE   20220715133317    1W    00000100000000934000000000032DE    TVYEV-TV000000000000VX228044
BI00B32DE    TT209A         20220825180D0204192              AVSSH 1.25F V            CCN000002400000002400FN00000000020220901000002400NNE   20220715133317    1W    00000080000001458000000000032DE    TVYEV-TV000000000000VX228045
BI00B32DE    @TT209A        20220825181E50003ZZ              AVSSCS-S 0.3FX2 DGY/BR   CCN000014700000014700FN00000000020220901000014700NNE   20220715133316    1W    00000035000002165000000000032DE    TVYEV-TV000000000000VX228018
BI00B32DE    @TT209A        20220825181E50006ZZ              AVSSCS-S 0.5FX1 DGY/Y    CCN000000400000000400FN00000000020220901000000400NNE   20220715133316    1W    00000040000001909700000000032DE    TVYEV-TV000000000000VX228015
BI00B32DE    @TT209A        20220825181E50007ZZ              AVSSCS-S 0.5FX1 DGY/L    CCN000000400000000400FN00000000020220901000000400NNE   20220715133316    1W    00000040000001909700000000032DE    TVYEV-TV000000000000VX228014
BI00B32DE    @TT209A        20220825181E50010ZZ              AVSSCS-S 0.5FX2 DGY/P    CCN000000600000000600FN00000000020220901000000600NNE   20220715133316    1W    00000030000003096000000000032DE    TVYEV-TV000000000000VX228016
BI00B32DE    @TT209A        20220825181E50028ZZ              AVSSCS-S 0.5FX3 DGY      CCN000010000000010000FN00000000020220901000010000NNE   20220715133316    1W    00000025000003265000000000032DE    TVYEV-TV000000000000VX228017
BI00B32DE    @TT209A        20220825181F21003ZZ              AVSSHCS-S 0.5FX1 B/W     CCN000002000000002000FN00000000020220901000002000NNE   20220715133316    1W    00000040000001908400000000032DE    TVYEV-TV000000000000VX228019
BI00B32DE    @TT209A        20220825181F21009ZZ              AVSSHCS-S 0.5FX2 B       CCN000003300000003300FN00000000020220901000003300NNE   20220715133316    1W    00000030000002531400000000032DE    TVYEV-TV000000000000VX228020
BI00B32DE    @TT209A        20220825181F21013ZZ              AVSSHCS-S 0.5FX2 B/Y     CCN000002400000002400FN00000000020220901000002400NNE   20220715133316    1W    00000030000002531400000000032DE    TVYEV-TV000000000000VX228023
BI00B32DE    @TT209A        20220825181F21014ZZ              AVSSHCS-S 0.5FX2 B/L     CCN000001200000001200FN00000000020220901000001200NNE   20220715133316    1W    00000030000002531400000000032DE    TVYEV-TV000000000000VX228022
BI00B32DE    @TT209A        20220825181F21016ZZ              AVSSHCS-S 0.5FX2 B/BR    CCN000000900000000900FN00000000020220901000000900NNE   20220715133316    1W    00000030000002531400000000032DE    TVYEV-TV000000000000VX228021
BI00B32DE    @TT209A        20220825181F21028ZZ              AVSSHCS-S 1.25FX2 B/R    CCN000000800000000800FN00000000020220901000000800NNE   20220715133316    1W    00000020000004267300000000032DE    TVYEV-TV000000000000VX228024
BI00B32DE    @TT209A        20220825181F21029ZZ              AVSSHCS-S 1.25FX2 B/Y    CCN000000200000000200FN00000000020220901000000200NNE   20220715133316    1W    00000020000004267300000000032DE    TVYEV-TV000000000000VX228025
BI00B32D1    DFTW2241       2022081818000004534              AV 8 B/W                 CCN000002200000002200FN00000000020221001000002200NNE   20220715103705    1W    00000010000010466200000000032D1    TOYOT-K 000000000000KO128015
BI00B32D1    DFTW2241       2022081818000004535              AV 8 B/R                 CCN000004300000004300FN00000000020221001000004300NNE   20220715103705    1W    00000010000010466200000000032D1    TOYOT-K 000000000000KO128014
BI00B32D1    DFTW2241       2022081818000004540              AV 8 W                   CCN000005800000005800FN00000000020221001000005800NNE   20220715103705    1W    00000010000010466200000000032D1    TOYOT-K 000000000000KO128016
BI00B32D1    DFTW2241       2022081818000004543              AV 8 W/B                 CCN000006400000006400FN00000000020221001000006400NNE   20220715103705    1W    00000010000010466200000000032D1    TOYOT-K 000000000000KO128017
BI00B32D1    @DFTW2241      20220818181AD2002ZZ              CIVUSAS-S 0.35X2 B       CCN000017100000017100FN00000000020221001000017100NNE   20220715103817    1W    00000045000001713700000000032D1    TOYOT-K 000000000000KO128039
BI00B32D1    @DFTW2241      20220818181AD2003ZZ              CIVUSAS-S 0.35X3 B       CCN000005000000005250FN00000000020221001000005250NNE   20220715103817    1W    00000035000002172100000000032D1    TOYOT-K 000000000000KO128040
BI00B32D1    @DFTW2241      20220818181AD2004ZZ              CIVUSAS-S 0.35X4 B       CCN000007200000007200FN00000000020221001000007200NNE   20220715103817    1W    00000030000002799900000000032D1    TOYOT-K 000000000000KO128041
BI00B32D1    @DFTW2241      20220818181E48031ZZ              CAVSAS-S 0.3X2 GY        CCN000007700000007700FN00000000020221001000007700NNE   20220715103817    1W    00000035000002008700000000032D1    TOYOT-K 000000000000KO128042
BI00B32D1    @DFTW2241      20220818181E48037ZZ              CAVSAS-S 0.3X4 GY        CCN000008000000008000FN00000000020221001000008000NNE   20220715103817    1W    00000025000003262000000000032D1    TOYOT-K 000000000000KO128044
BI00B32D1    @DFTW2241      20220818181E48041ZZ              CAVSAS-S 0.3X2 GY/R      CCN000010850000010850FN00000000020221001000010850NNE   20220715103817    1W    00000035000002008700000000032D1    TOYOT-K 000000000000KO128043
BI00B32D1    @DFTW2241      20220818181E50002ZZ              AVSSCS-S 0.3FX2 DGY/G    CCN000010150000010150FN00000000020221001000010150NNE   20220715103817    1W    00000035000002165000000000032D1    TOYOT-K 000000000000KO128049
BI00B32D1    @DFTW2241      20220818181E50004ZZ              AVSSCS-S 0.5FX1 DGY      CCN000008800000008800FN00000000020221001000008800NNE   20220715103817    1W    00000040000001909700000000032D1    TOYOT-K 000000000000KO128045
BI00B32D1    @DFTW2241      20220818181E50005ZZ              AVSSCS-S 0.5FX1 DGY/W    CCN000002400000002400FN00000000020221001000002400NNE   20220715103817    1W    00000040000001909700000000032D1    TOYOT-K 000000000000KO128047
BI00B32D1    @DFTW2241      20220818181E50007ZZ              AVSSCS-S 0.5FX1 DGY/L    CCN000004400000004400FN00000000020221001000004400NNE   20220715103817    1W    00000040000001909700000000032D1    TOYOT-K 000000000000KO128046
BI00B32D1    @DFTW2241      20220818181E50020ZZ              AVSSCS-S 0.3FX2 DGY/R    CCN000007700000007700FN00000000020221001000007700NNE   20220715103817    1W    00000035000002165000000000032D1    TOYOT-K 000000000000KO128051
BI00B32D1    @DFTW2241      20220818181E50021ZZ              AVSSCS-S 0.3FX2 DGY/P    CCN000005950000005950FN00000000020221001000005950NNE   20220715103817    1W    00000035000002165000000000032D1    TOYOT-K 000000000000KO128050
BI00B32D1    @DFTW2241      20220818181E50036ZZ              AVSSCS-S 0.3FX2 DGY      CCN000005950000005950FN00000000020221001000005950NNE   20220715103817    1W    00000035000002165000000000032D1    TOYOT-K 000000000000KO128048
BI00B32D2    DGTW2241       2022081818000004530              AV 8 B                   CCN000079600000079600FN00000000020221001000079600NNE   20220715104829    1W    00000010000010466200000000032D2    TGYOT-G 000000000000KR128055
BI00B32D2    DGTW2241       2022081818000004540              AV 8 W                   CCN000025500000025500FN00000000020221001000025500NNE   20220715104829    1W    00000010000010466200000000032D2    TGYOT-G 000000000000KR128057
BI00B32D2    DGTW2241       2022081818000004543              AV 8 W/B                 CCN000011800000011800FN00000000020221001000011800NNE   20220715104829    1W    00000010000010466200000000032D2    TGYOT-G 000000000000KR128058
BI00B32D2    DGTW2241       2022081818000004590              AV 8 L                   CCN000016000000016000FN00000000020221001000016000NNE   20220715104829    1W    00000010000010466200000000032D2    TGYOT-G 000000000000KR128056
BI00B32D2    @DGTW2241      20220818181AD2002ZZ              CIVUSAS-S 0.35X2 B       CCN000036450000036450FN00000000020221001000036450NNE   20220715104828    1W    00000045000001713700000000032D2    TGYOT-G 000000000000KR128029
BI00B32D2    @DGTW2241      20220818181AD2003ZZ              CIVUSAS-S 0.35X3 B       CCN000023500000023800FN00000000020221001000023800NNE   20220715104828    1W    00000035000002172100000000032D2    TGYOT-G 000000000000KR128030
BI00B32D2    @DGTW2241      20220818181AD2004ZZ              CIVUSAS-S 0.35X4 B       CCN000035600000035700FN00000000020221001000035700NNE   20220715104828    1W    00000030000002799900000000032D2    TGYOT-G 000000000000KR128031
BI00B32D2    @DGTW2241      20220818181E48037ZZ              CAVSAS-S 0.3X4 GY        CCN000002750000002750FN00000000020221001000002750NNE   20220715104828    1W    00000025000003262000000000032D2    TGYOT-G 000000000000KR128032
BI00B32D2    @DGTW2241      20220818181E50004ZZ              AVSSCS-S 0.5FX1 DGY      CCN000018800000018800FN00000000020221001000018800NNE   20220715104828    1W    00000040000001909700000000032D2    TGYOT-G 000000000000KR128033
BI00B32D2    @DGTW2241      20220818181E50005ZZ              AVSSCS-S 0.5FX1 DGY/W    CCN000013600000013600FN00000000020221001000013600NNE   20220715104828    1W    00000040000001909700000000032D2    TGYOT-G 000000000000KR128035
BI00B32D2    @DGTW2241      20220818181E50006ZZ              AVSSCS-S 0.5FX1 DGY/Y    CCN000001600000001600FN00000000020221001000001600NNE   20220715104828    1W    00000040000001909700000000032D2    TGYOT-G 000000000000KR128036
BI00B32D2    @DGTW2241      20220818181E50007ZZ              AVSSCS-S 0.5FX1 DGY/L    CCN000006800000006800FN00000000020221001000006800NNE   20220715104828    1W    00000040000001909700000000032D2    TGYOT-G 000000000000KR128034
BI00B32D2    @DGTW2241      20220818181E50016ZZ              AVSSCS-S 0.5FX2 DGY/R    CCN000002700000002700FN00000000020221001000002700NNE   20220715104828    1W    00000030000003096000000000032D2    TGYOT-G 000000000000KR128037
BI00B32D2    @DGTW2241      20220818181E50036ZZ              AVSSCS-S 0.3FX2 DGY      CCN000005250000005250FN00000000020221001000005250NNE   20220715104828    1W    00000035000002165000000000032D2    TGYOT-G 000000000000KR128038
BI00B32D2    @DGTW2241      20220818181F21014ZZ              AVSSHCS-S 0.5FX2 B/L     CCN000005100000005100FN00000000020221001000005100NNE   20220715104828    1W    00000030000002531400000000032D2    TGYOT-G 000000000000KR128040
BI00B32D2    @DGTW2241      20220818181F21016ZZ              AVSSHCS-S 0.5FX2 B/BR    CCN000001200000001200FN00000000020221001000001200NNE   20220715104828    1W    00000030000002531400000000032D2    TGYOT-G 000000000000KR128039
BI00B32D2    @DGTW2241      20220818181F21031ZZ              AVSSHCS-S 1.25FX2 B/P    CCN000001600000001600FN00000000020221001000001600NNE   20220715104828    1W    00000020000004267300000000032D2    TGYOT-G 000000000000KR128041
BI00B32E1    WC2111         2022083118000004530              AV 8 B                   CCN000001000000001000FN00000000020221001000001000NNM   20220715163402    1W    00000010000010466200000000032E1    SPYSE   000000000000KC328001
BI00B32E1    WC2112         2022090718000004530              AV 8 B                   CCN000000500000000500FN00000000020221001000000500NNM   20220715163402    1W    00000010000010466200000000032E1    SPYSE   000000000000KC428001
BI00B32E1    WC2113         2022091418000004530              AV 8 B                   CCN000000400000000400FN00000000020221001000000400NNM   20220715163402    1W    00000010000010466200000000032E1    SPYSE   000000000000KC528001
BI00B32E1    WC2111         2022083118000004570              AV 8 Y                   CCN000001000000001000FN00000000020221001000001000NNM   20220715163402    1W    00000010000010466200000000032E1    SPYSE   000000000000KC328002
BI00B32E1    WC2112         2022090718000004570              AV 8 Y                   CCN000000600000000600FN00000000020221001000000600NNM   20220715163402    1W    00000010000010466200000000032E1    SPYSE   000000000000KC428002
BI00B32E1    WC2113         2022091418000004570              AV 8 Y                   CCN000000600000000600FN00000000020221001000000600NNM   20220715163402    1W    00000010000010466200000000032E1    SPYSE   000000000000KC528002
BI00B32H2    TAW2093        2022082618000004540              AV 8 W                   CCN000001100000000800FN00000000020220901000000800NNM20 20220715092622    1W    00000010000010466200000000032H2    HVYHV   000000000000UH228070
BI00B32H2    TAW2094        2022081218007704150              AVSS 1.25F R             CCN000002400000002400FN00000000020220901000002400NNM20 20220715103134    1W    00000080000001389000000000032H2    HVYHV   000000000000UH328064
BI00B32H2    TAW2094        2022081218007704140              AVSS 1.25F W             CCN000002400000002400FN00000000020220901000002400NNM20 20220715103134    1W    00000080000001389000000000032H2    HVYHV   000000000000UH328065
BI00B32H2    TAW2093        20220826180D0203930              AVSSH 0.5F B             CCN000004500000003000FN00000000020220901000003000NNM20 20220715092637    1W    00000150000000689000000000032H2    HVYHV   000000000000UH228059
BI00B32H2    TAW2093        20220826180D0203990              AVSSH 0.5F L             CCN000001500000000000FY00000000020220901000000000NNM10 20220715092652    1W    00000150000000689000000000032H2    HVYHV   000000000000UH228061
BI00B32H2    TAW2093        20220826180D0203950              AVSSH 0.5F R             CCN000003000000001500FN00000000020220901000001500NNM20 20220715092659    1W    00000150000000689000000000032H2    HVYHV   000000000000UH228062
BI00B32H2    TAW2093        20220826180D0203943              AVSSH 0.5F W/B           CCN000003000000001500FN00000000020220901000001500NNM20 20220715092715    1W    00000150000000689000000000032H2    HVYHV   000000000000UH228063
BI00B32H2    @TAW2094       20220902181AD2001ZZ              CIVUSAS-S 0.35X1 B       CCN000001650000000000FY00000000020220901000000000NNM10 20220715092850    1W    00000055000001540800000000032H2    HVYHV   000000000000UH328050
BI00B32H2    @TAW2093       20220826181AD2002ZZ              CIVUSAS-S 0.35X2 B       CCN000002250000000000FY00000000020220901000000000NNM10 20220715092739    1W    00000045000001713700000000032H2    HVYHV   000000000000UH228053
BI00B32H2    @TAW2094       20220902181AD2002ZZ              CIVUSAS-S 0.35X2 B       CCN000014850000003600FN00000000020220901000003600NNM20 20220715092913    1W    00000045000001713700000000032H2    HVYHV   000000000000UH328052
BI00B32H2    @TAW2092       20220819181AD2003ZZ              CIVUSAS-S 0.35X3 B       CCN000030100000015400FN00000000020220901000015400NNM20 20220715091900    1W    00000035000002172100000000032H2    HVYHV   000000000000UH128049
BI00B32H2    @TAW2094       20220902181AD2003ZZ              CIVUSAS-S 0.35X3 B       CCN000045500000042700FN00000000020220901000042700NNM20 20220715092925    1W    00000035000002172100000000032H2    HVYHV   000000000000UH328053
BI00B32H2    @TAW2093       20220826181AD2004ZZ              CIVUSAS-S 0.35X4 B       CCN000002100000000000FY00000000020220901000000000NNM10 20220715092739    1W    00000030000002799900000000032H2    HVYHV   000000000000UH228055
BI00B32H2    @TAW2094       20220902181AD2004ZZ              CIVUSAS-S 0.35X4 B       CCN000034200000008700FN00000000020220901000008700NNM20 20220715092940    1W    00000030000002799900000000032H2    HVYHV   000000000000UH328054
BI00B32H2    @TAW2092       20220819181AD2008ZZ              CIVUSAS-S 0.5X2 B        CCN000022400000021200FN00000000020220901000021200NNM20 20220715091914    1W    00000040000002028000000000032H2    HVYHV   000000000000UH128048
BI00B32H2    @TAW2093       20220826181AD2008ZZ              CIVUSAS-S 0.5X2 B        CCN000022000000020000FN00000000020220901000020000NNM20 20220715092754    1W    00000040000002028000000000032H2    HVYHV   000000000000UH228052
BI00B32H2    @TAW2094       20220902181AD2008ZZ              CIVUSAS-S 0.5X2 B        CCN000022000000020000FN00000000020220901000020000NNM20 20220715093044    1W    00000040000002028000000000032H2    HVYHV   000000000000UH328051
BI00B32H2    TAW208M        2022080518007704130              AVSS 1.25F B             CCN000000800000000800FN00000000020220801000000800NNE   20220715110724    1W    00000080000001389000000000032H2    HVYHV   000000000000UE327001
BI00B32H2    TAW209A        2022081118007704190              AVSS 1.25F L             CCN000000800000000800FN00000000020220901000000800NNE   20220715110728    1W    00000080000001389000000000032H2    HVYHV   000000000000UF427001
BI00B32J1    @396419        20220808181AD2001ZZ              CIVUSAS-S 0.35X1 B       CCN000020350000020350FN00000000020220801000020350NNM   20220715134006    1W    00000055000001540800000000032J1    UKYEL-BL000000000000KG327006
BI00B32J1    @396419        20220808181AD2002ZZ              CIVUSAS-S 0.35X2 B       CCN000022950000022950FN00000000020220801000022950NNM   20220715134006    1W    00000045000001713700000000032J1    UKYEL-BL000000000000KG327008
BI00B32J1    @396419        20220808181AD2003ZZ              CIVUSAS-S 0.35X3 B       CCN000009450000009450FN00000000020220801000009450NNM   20220715134006    1W    00000035000002172100000000032J1    UKYEL-BL000000000000KG327009
BI00B32J1    @396419        20220808181AD2004ZZ              CIVUSAS-S 0.35X4 B       CCN000002400000002400FN00000000020220801000002400NNM   20220715134006    1W    00000030000002799900000000032J1    UKYEL-BL000000000000KG327010
BI00B32J1    @396419        20220808181AD2009ZZ              CIVUSAS-S 0.5X3 B        CCN000000300000000300FN00000000020220801000000300NNM   20220715134006    1W    00000030000002716800000000032J1    UKYEL-BL000000000000KG327007
BI00B32J1    @396419        20220808181E48018ZZ              CAVSAS-S 0.5X2 GY/SB     CCN000000600000000600FN00000000020220801000000600NNM   20220715134006    1W    00000030000002561000000000032J1    UKYEL-BL000000000000KG327013
BI00B32J1    @396419        20220808181E48022ZZ              CAVSAS-S 0.5X2 GY        CCN000000300000000300FN00000000020220801000000300NNM   20220715134006    1W    00000030000002561000000000032J1    UKYEL-BL000000000000KG327011
BI00B32J1    @396419        20220808181E48027ZZ              CAVSAS-S 0.5X2 GY/P      CCN000000600000000600FN00000000020220801000000600NNM   20220715134006    1W    00000030000002561000000000032J1    UKYEL-BL000000000000KG327012
BI00B32W2    HN2208GWMW     2022080918000004560              AV 8 G                   CCN000005000000005000FN00000000020220801000005000NNE   20220715115426    1W    00000010000010466200000000032W2    HNHNY   000000000000HG427007
BI00B32W2    @HN2208GWMW    20220809181B32116Z5              AVSSCS 0.3FX2 DGY/L      CCN000001050000001050FN00000000020220801000001050NNE   20220715115428    1W    00000035000002276000000000032W2    HNHNY   000000000000HG427006
BI00B32W4    4500196235     2022081618018403937              CAVS 0.5 B/Y             CCN000001500000001500FN00000000020220801000001500NNE   20220715085456W41 1W    00000150000000677000000000032W41   HJYHK-J 000000000000OI128004
BI00B32W4    4500196235     2022081618018403739              CAVS 0.3 B/L             CCN000002000000002000FN00000000020220801000002000NNE   20220715085456W41 1W    00000200000000471000000000032W41   HJYHK-J 000000000000OI128003
BI00B32W4    4500196235     2022081618009604350              AVS 3 R                  CCN000001200000001200FN00000000020220801000001200NNE   20220715085456W41 1W    00000040000003831600000000032W41   HJYHK-J 000000000000OI128002
BI00B32W4    4500196235     2022081618009604339              AVS 3 B/L                CCN000000800000000800FN00000000020220801000000800NNE   20220715085456W41 1W    00000040000003831600000000032W41   HJYHK-J 000000000000OI128001
BI00B32W4    4500196238     2022083018018403750              CAVS 0.3 R               CCN000006000000006000FN00000000020220801000006000NNE   20220715085457W41 1W    00000200000000471000000000032W41   HJYHK-J 000000000000OP328013
BI00B32W4    4500196238     2022083018018403760              CAVS 0.3 G               CCN000004000000004000FN00000000020220801000004000NNE   20220715085457W41 1W    00000200000000471000000000032W41   HJYHK-J 000000000000OP328011
BI00B32W4    4500196238     2022083018018403795              CAVS 0.3 L/R             CCN000002000000002000FN00000000020220801000002000NNE   20220715085457W41 1W    00000200000000471000000000032W41   HJYHK-J 000000000000OP328012
BI00B32W4    4500196238     2022083018018403937              CAVS 0.5 B/Y             CCN000003000000003000FN00000000020220801000003000NNE   20220715085457W41 1W    00000150000000677000000000032W41   HJYHK-J 000000000000OP328018
BI00B32W4    4500196238     2022083018018403934              CAVS 0.5 B/W             CCN000012000000012000FN00000000020220801000012000NNE   20220715085457W41 1W    00000150000000677000000000032W41   HJYHK-J 000000000000OP328017
BI00B32W4    4500196238     2022083018018403930              CAVS 0.5 B               CCN000016500000016500FN00000000020220801000016500NNE   20220715085457W41 1W    00000150000000677000000000032W41   HJYHK-J 000000000000OP328015
BI00B32W4    4500196238     2022083018018403940              CAVS 0.5 W               CCN000006000000006000FN00000000020220801000006000NNE   20220715085457W41 1W    00000150000000677000000000032W41   HJYHK-J 000000000000OP328027
BI00B32W4    4500196238     2022083018018403941              CAVS 0.5 GY              CCN000006000000006000FN00000000020220801000006000NNE   20220715085457W41 1W    00000150000000677000000000032W41   HJYHK-J 000000000000OP328019
BI00B32W4    4500196238     2022083018018403950              CAVS 0.5 R               CCN000007500000007500FN00000000020220801000007500NNE   20220715085457W41 1W    00000150000000677000000000032W41   HJYHK-J 000000000000OP328021
BI00B32W4    4500196238     2022083018018403951              CAVS 0.5 O               CCN000001500000001500FN00000000020220801000001500NNE   20220715085457W41 1W    00000150000000677000000000032W41   HJYHK-J 000000000000OP328020
BI00B32W4    4500196238     2022083018018403991              CAVS 0.5 SB              CCN000009000000009000FN00000000020220801000009000NNE   20220715085457W41 1W    00000150000000677000000000032W41   HJYHK-J 000000000000OP328023
BI00B32W4    4500196238     2022083018018403992              CAVS 0.5 V               CCN000001500000001500FN00000000020220801000001500NNE   20220715085457W41 1W    00000150000000677000000000032W41   HJYHK-J 000000000000OP328024
BI00B32W4    4500196238     2022083018018404130              CAVS 1.25 B              CCN000001600000001600FN00000000020220801000001600NNE   20220715085457W41 1W    00000080000001378000000000032W41   HJYHK-J 000000000000OP328028
BI00B32W4    4500196238     2022083018018403739              CAVS 0.3 B/L             CCN000002000000002000FN00000000020220801000002000NNE   20220715085457W41 1W    00000200000000471000000000032W41   HJYHK-J 000000000000OP328010
BI00B32W4    4500196238     202208301801R706930              CIVUS 0.35 B             CCN000003000000003000FN00000000020220801000003000NNE   20220715085457W41 1W    00000300000000386000000000032W41   HJYHK-J 000000000000OP328006
BI00B32W4    4500196238     202208301801R706970              CIVUS 0.35 Y             CCN000003000000003000FN00000000020220801000003000NNE   20220715085457W41 1W    00000300000000386000000000032W41   HJYHK-J 000000000000OP328009
BI00B32W4    4500196238     202208301801R706990              CIVUS 0.35 L             CCN000003000000003000FN00000000020220801000003000NNE   20220715085457W41 1W    00000300000000386000000000032W41   HJYHK-J 000000000000OP328008
BI00B32W4    4500196238     202208301801R706980              CIVUS 0.35 BR            CCN000003000000003000FN00000000020220801000003000NNE   20220715085457W41 1W    00000300000000386000000000032W41   HJYHK-J 000000000000OP328007
BI00B32W4    4500196238     2022083018009604350              AVS 3 R                  CCN000001600000001600FN00000000020220801000001600NNE   20220715085457W41 1W    00000040000003831600000000032W41   HJYHK-J 000000000000OP328005
BI00B32W4    4500196238     2022083018009604339              AVS 3 B/L                CCN000002000000002000FN00000000020220801000002000NNE   20220715085457W41 1W    00000040000003831600000000032W41   HJYHK-J 000000000000OP328004
BI00B32W4    4500196238     2022083018018403733              CAVS 0.3 V/W             CCN000002000000002000FN00000000020220801000002000NNE   20220715085457W41 1W    00000200000000471000000000032W41   HJYHK-J 000000000000OP328014
BI00B32W4    4500196238     2022083018018403933              CAVS 0.5 V/W             CCN000001500000001500FN00000000020220801000001500NNE   20220715085457W41 1W    00000150000000677000000000032W41   HJYHK-J 000000000000OP328026
BI00B32W4    4500196238     2022083018018403956              CAVS 0.5 R/G             CCN000003000000003000FN00000000020220801000003000NNE   20220715085457W41 1W    00000150000000677000000000032W41   HJYHK-J 000000000000OP328022
BI00B32W4    4500196238     20220830180184039G9              CAVS 0.5 V/G             CCN000003000000003000FN00000000020220801000003000NNE   20220715085457W41 1W    00000150000000677000000000032W41   HJYHK-J 000000000000OP328025
BI00B32W4    4500196238     2022083018018403939              CAVS 0.5 B/L             CCN000003000000003000FN00000000020220801000003000NNE   20220715085457W41 1W    00000150000000677000000000032W41   HJYHK-J 000000000000OP328016
BI00B32W4    @4500196238    20220830181B0911611              CAVSAS 0.3X2 GY/L        CCN000001750000001750FN00000000020220801000001750NNE   20220715085452W41 1W    00000035000002254000000000032W41   HJYHK-J 000000000000OP328002
BI00B32W4    @4500196238    20220830181B09116K3              CAVSAS 0.3X2 GY/P        CCN000003850000003850FN00000000020220801000003850NNE   20220715085452W41 1W    00000035000002254000000000032W41   HJYHK-J 000000000000OP328003
BI00B32W4    @4500196238    20220830181B0911641              CAVSAS 0.3X2 GY          CCN000002450000002450FN00000000020220801000002450NNE   20220715085452W41 1W    00000035000002254000000000032W41   HJYHK-J 000000000000OP328001
BI00B32W4    4500196248     2022081618018404150              CAVS 1.25 R              CCN000001600000001600FN00000000020220801000001600NNE   20220715085457W41 1W    00000080000001378000000000032W41   HJYHK-J 000000000000OJ128001
BI00B32W4    4500196267     2022083018007704260              AVSS 2F G                CCN000000500000000500FN00000000020220801000000500NNE   20220715085458W41 1W    00000050000002126400000000032W41   HJYHK-J 000000000000OR328006
BI00B32W4    4500196267     2022083018007704270              AVSS 2F Y                CCN000000500000000500FN00000000020220801000000500NNE   20220715085458W41 1W    00000050000002126400000000032W41   HJYHK-J 000000000000OR328008
BI00B32W4    4500196267     2022083018007704230              AVSS 2F B                CCN000002000000002000FN00000000020220801000002000NNE   20220715085458W41 1W    00000050000002126400000000032W41   HJYHK-J 000000000000OR328005
BI00B32W4    4500196267     2022083018007704250              AVSS 2F R                CCN000000500000000500FN00000000020220801000000500NNE   20220715085458W41 1W    00000050000002126400000000032W41   HJYHK-J 000000000000OR328007
BI00B32W4    4500196267     2022083018018403740              CAVS 0.3 W               CCN000002000000002000FN00000000020220801000002000NNE   20220715085458W41 1W    00000200000000471000000000032W41   HJYHK-J 000000000000OR328015
BI00B32W4    4500196267     2022083018018403730              CAVS 0.3 B               CCN000012000000012000FN00000000020220801000012000NNE   20220715085458W41 1W    00000200000000471000000000032W41   HJYHK-J 000000000000OR328009
BI00B32W4    4500196267     2022083018018403750              CAVS 0.3 R               CCN000004000000004000FN00000000020220801000004000NNE   20220715085458W41 1W    00000200000000471000000000032W41   HJYHK-J 000000000000OR328013
BI00B32W4    4500196267     2022083018018403760              CAVS 0.3 G               CCN000016000000016000FN00000000020220801000016000NNE   20220715085458W41 1W    00000200000000471000000000032W41   HJYHK-J 000000000000OR328011
BI00B32W4    4500196267     2022083018018403780              CAVS 0.3 BR              CCN000002000000002000FN00000000020220801000002000NNE   20220715085458W41 1W    00000200000000471000000000032W41   HJYHK-J 000000000000OR328010
BI00B32W4    4500196267     2022083018018403790              CAVS 0.3 L               CCN000006000000006000FN00000000020220801000006000NNE   20220715085458W41 1W    00000200000000471000000000032W41   HJYHK-J 000000000000OR328012
BI00B32W4    4500196267     2022083018018403792              CAVS 0.3 V               CCN000016000000016000FN00000000020220801000016000NNE   20220715085458W41 1W    00000200000000471000000000032W41   HJYHK-J 000000000000OR328014
BI00B32W4    4500196267     2022083018018403930              CAVS 0.5 B               CCN000028500000028500FN00000000020220801000028500NNE   20220715085458W41 1W    00000150000000677000000000032W41   HJYHK-J 000000000000OR328016
BI00B32W4    4500196267     2022083018018403940              CAVS 0.5 W               CCN000009000000009000FN00000000020220801000009000NNE   20220715085458W41 1W    00000150000000677000000000032W41   HJYHK-J 000000000000OR328026
BI00B32W4    4500196267     2022083018018403941              CAVS 0.5 GY              CCN000001500000001500FN00000000020220801000001500NNE   20220715085458W41 1W    00000150000000677000000000032W41   HJYHK-J 000000000000OR328018
BI00B32W4    4500196267     2022083018018403950              CAVS 0.5 R               CCN000010500000010500FN00000000020220801000010500NNE   20220715085458W41 1W    00000150000000677000000000032W41   HJYHK-J 000000000000OR328022
BI00B32W4    4500196267     2022083018018403952              CAVS 0.5 P               CCN000024000000024000FN00000000020220801000024000NNE   20220715085458W41 1W    00000150000000677000000000032W41   HJYHK-J 000000000000OR328021
BI00B32W4    4500196267     2022083018018403960              CAVS 0.5 G               CCN000006000000006000FN00000000020220801000006000NNE   20220715085458W41 1W    00000150000000677000000000032W41   HJYHK-J 000000000000OR328017
BI00B32W4    4500196267     2022083018018403961              CAVS 0.5 LG              CCN000003000000003000FN00000000020220801000003000NNE   20220715085458W41 1W    00000150000000677000000000032W41   HJYHK-J 000000000000OR328020
BI00B32W4    4500196267     2022083018018403970              CAVS 0.5 Y               CCN000033000000033000FN00000000020220801000033000NNE   20220715085458W41 1W    00000150000000677000000000032W41   HJYHK-J 000000000000OR328027
BI00B32W4    4500196267     2022083018018403990              CAVS 0.5 L               CCN000024000000024000FN00000000020220801000024000NNE   20220715085458W41 1W    00000150000000677000000000032W41   HJYHK-J 000000000000OR328019
BI00B32W4    4500196267     2022083018018403991              CAVS 0.5 SB              CCN000010500000010500FN00000000020220801000010500NNE   20220715085458W41 1W    00000150000000677000000000032W41   HJYHK-J 000000000000OR328025
BI00B32W4    4500196267     2022083018018404030              CAVS 0.85 B              CCN000023000000023000FN00000000020220801000023000NNE   20220715085458W41 1W    00000100000000965000000000032W41   HJYHK-J 000000000000OR328028
BI00B32W4    4500196267     2022083018018404060              CAVS 0.85 G              CCN000010000000010000FN00000000020220801000010000NNE   20220715085458W41 1W    00000100000000965000000000032W41   HJYHK-J 000000000000OR328029
BI00B32W4    4500196267     2022083018018404070              CAVS 0.85 Y              CCN000006000000006000FN00000000020220801000006000NNE   20220715085458W41 1W    00000100000000965000000000032W41   HJYHK-J 000000000000OR328031
BI00B32W4    4500196267     2022083018018404091              CAVS 0.85 SB             CCN000007000000007000FN00000000020220801000007000NNE   20220715085458W41 1W    00000100000000965000000000032W41   HJYHK-J 000000000000OR328030
BI00B32W4    4500196267     2022083018018404140              CAVS 1.25 W              CCN000003200000003200FN00000000020220801000003200NNE   20220715085458W41 1W    00000080000001378000000000032W41   HJYHK-J 000000000000OR328038
BI00B32W4    4500196267     2022083018018404170              CAVS 1.25 Y              CCN000004000000004000FN00000000020220801000004000NNE   20220715085458W41 1W    00000080000001378000000000032W41   HJYHK-J 000000000000OR328039
BI00B32W4    4500196267     2022083018018404130              CAVS 1.25 B              CCN000004800000004800FN00000000020220801000004800NNE   20220715085458W41 1W    00000080000001378000000000032W41   HJYHK-J 000000000000OR328032
BI00B32W4    4500196267     2022083018018404151              CAVS 1.25 O              CCN000001600000001600FN00000000020220801000001600NNE   20220715085458W41 1W    00000080000001378000000000032W41   HJYHK-J 000000000000OR328034
BI00B32W4    4500196267     2022083018018404152              CAVS 1.25 P              CCN000000800000000800FN00000000020220801000000800NNE   20220715085458W41 1W    00000080000001378000000000032W41   HJYHK-J 000000000000OR328035
BI00B32W4    4500196267     2022083018018404150              CAVS 1.25 R              CCN000002400000002400FN00000000020220801000002400NNE   20220715085458W41 1W    00000080000001378000000000032W41   HJYHK-J 000000000000OR328036
BI00B32W4    4500196267     2022083018018404190              CAVS 1.25 L              CCN000002400000002400FN00000000020220801000002400NNE   20220715085458W41 1W    00000080000001378000000000032W41   HJYHK-J 000000000000OR328033
BI00B32W4    4500196267     2022083018018404192              CAVS 1.25 V              CCN000001600000001600FN00000000020220801000001600NNE   20220715085458W41 1W    00000080000001378000000000032W41   HJYHK-J 000000000000OR328037
BI00B32W4    4500196267     2022083018001403960              AV 0.5F G                CCN000002000000002000FN00000000020220801000002000NNE   20220715085458W41 1W    00000100000000903000000000032W41   HJYHK-J 000000000000OR328003
BI00B32W4    4500196267     2022083018018403953              CAVS 0.5 R/B             CCN000001500000001500FN00000000020220801000001500NNE   20220715085458W41 1W    00000150000000677000000000032W41   HJYHK-J 000000000000OR328023
BI00B32W4    4500196267     2022083018018403955              CAVS 0.5 R/LG            CCN000006000000006000FN00000000020220801000006000NNE   20220715085458W41 1W    00000150000000677000000000032W41   HJYHK-J 000000000000OR328024
BI00B32W4    4500196267     2022083018001403930              AV 0.5F B                CCN000003000000003000FN00000000020220801000003000NNE   20220715085458W41 1W    00000100000000903000000000032W41   HJYHK-J 000000000000OR328002
BI00B32W4    4500196267     2022083018001403946              AV 0.5F W/G              CCN000003000000003000FN00000000020220801000003000NNE   20220715085458W41 1W    00000100000000903000000000032W41   HJYHK-J 000000000000OR328004
BI00B32W4    @4500196267    20220830181B32116Z6              AVSSCS 0.3FX2 DGY/V      CCN000001750000001750FN00000000020220801000001750NNE   20220715085453W41 1W    00000035000002276000000000032W41   HJYHK-J 000000000000OR328001
BI00B32W4    @4500196325    20220823181D6910239              AVSSHCS 0.5FX2 B/L       CCN000004800000004800FN00000000020220801000004800NNE   20220715085455W4A21W    00000030000002385000000000032W4A2  HJYHK-J 000000000000OG228001
BI00B32W4    @4500196312    20220913181B32116S1              AVSSCS 0.3FX2 DGY        CCN000001050000001050FN00000000020220901000001050NNE   20220715085500W4171W    00000035000002276000000000032W417  HJYHK-J 000000000000OW528001
BI00B32W4    @4500196313    20220920181B32116S1              AVSSCS 0.3FX2 DGY        CCN000000700000000700FN00000000020220901000000700NNE   20220715085501W4171W    00000035000002276000000000032W417  HJYHK-J 000000000000OA129002
BI00B32W4    @4500196313    20220920181B32037Y5              AVSSCS 0.3FX1 DGY/W      CCN000002000000002000FN00000000020220901000002000NNE   20220715085501W4171W    00000050000001780000000000032W417  HJYHK-J 000000000000OA129001
BI00B32W4    4500196613     2022083018018403750              CAVS 0.3 R               CCN000002000000002000FN00000000020220801000002000NNE   20220715085459W41 1W    00000200000000471000000000032W41   HJYHK-J 000000000000OV328004
BI00B32W4    4500196613     2022083018018403760              CAVS 0.3 G               CCN000002000000002000FN00000000020220801000002000NNE   20220715085459W41 1W    00000200000000471000000000032W41   HJYHK-J 000000000000OV328001
BI00B32W4    4500196613     2022083018018403792              CAVS 0.3 V               CCN000002000000002000FN00000000020220801000002000NNE   20220715085459W41 1W    00000200000000471000000000032W41   HJYHK-J 000000000000OV328005
BI00B32W4    4500196613     2022083018018403751              CAVS 0.3 O               CCN000004000000004000FN00000000020220801000004000NNE   20220715085459W41 1W    00000200000000471000000000032W41   HJYHK-J 000000000000OV328003
BI00B32W4    4500196613     2022083018018403793              CAVS 0.3 L/B             CCN000002000000002000FN00000000020220801000002000NNE   20220715085459W41 1W    00000200000000471000000000032W41   HJYHK-J 000000000000OV328002
BI00B32W4    4500196613     2022083018018403941              CAVS 0.5 GY              CCN000003000000003000FN00000000020220801000003000NNE   20220715085459W41 1W    00000150000000677000000000032W41   HJYHK-J 000000000000OV328006
BI00B32W4    4500196615     2022090618018403791              CAVS 0.3 SB              CCN000016000000016000FN00000000020220901000016000NNE   20220715085506W41 1W    00000200000000471000000000032W41   HJYHK-J 000000000000OU428026
BI00B32W4    4500196615     2022090618018403740              CAVS 0.3 W               CCN000014000000014000FN00000000020220901000014000NNE   20220715085506W41 1W    00000200000000471000000000032W41   HJYHK-J 000000000000OU428029
BI00B32W4    4500196615     2022090618018403730              CAVS 0.3 B               CCN000042000000042000FN00000000020220901000042000NNE   20220715085506W41 1W    00000200000000471000000000032W41   HJYHK-J 000000000000OU428012
BI00B32W4    4500196615     2022090618018403750              CAVS 0.3 R               CCN000044000000044000FN00000000020220901000044000NNE   20220715085506W41 1W    00000200000000471000000000032W41   HJYHK-J 000000000000OU428024
BI00B32W4    4500196615     2022090618018403752              CAVS 0.3 P               CCN000008000000008000FN00000000020220901000008000NNE   20220715085506W41 1W    00000200000000471000000000032W41   HJYHK-J 000000000000OU428023
BI00B32W4    4500196615     2022090618018403760              CAVS 0.3 G               CCN000034000000034000FN00000000020220901000034000NNE   20220715085506W41 1W    00000200000000471000000000032W41   HJYHK-J 000000000000OU428015
BI00B32W4    4500196615     2022090618018403770              CAVS 0.3 Y               CCN000002000000002000FN00000000020220901000002000NNE   20220715085506W41 1W    00000200000000471000000000032W41   HJYHK-J 000000000000OU428031
BI00B32W4    4500196615     2022090618018403780              CAVS 0.3 BR              CCN000010000000010000FN00000000020220901000010000NNE   20220715085506W41 1W    00000200000000471000000000032W41   HJYHK-J 000000000000OU428014
BI00B32W4    4500196615     2022090618018403790              CAVS 0.3 L               CCN000020000000020000FN00000000020220901000020000NNE   20220715085506W41 1W    00000200000000471000000000032W41   HJYHK-J 000000000000OU428018
BI00B32W4    4500196615     2022090618018403792              CAVS 0.3 V               CCN000042000000042000FN00000000020220901000042000NNE   20220715085506W41 1W    00000200000000471000000000032W41   HJYHK-J 000000000000OU428027
BI00B32W4    4500196615     2022090618018403761              CAVS 0.3 LG              CCN000008000000008000FN00000000020220901000008000NNE   20220715085506W41 1W    00000200000000471000000000032W41   HJYHK-J 000000000000OU428021
BI00B32W4    4500196615     2022090618018403741              CAVS 0.3 GY              CCN000010000000010000FN00000000020220901000010000NNE   20220715085506W41 1W    00000200000000471000000000032W41   HJYHK-J 000000000000OU428017
BI00B32W4    4500196615     2022090618018403751              CAVS 0.3 O               CCN000012000000012000FN00000000020220901000012000NNE   20220715085506W41 1W    00000200000000471000000000032W41   HJYHK-J 000000000000OU428022
BI00B32W4    4500196615     2022090618018403757              CAVS 0.3 R/Y             CCN000002000000002000FN00000000020220901000002000NNE   20220715085506W41 1W    00000200000000471000000000032W41   HJYHK-J 000000000000OU428025
BI00B32W4    4500196615     2022090618018403793              CAVS 0.3 L/B             CCN000002000000002000FN00000000020220901000002000NNE   20220715085506W41 1W    00000200000000471000000000032W41   HJYHK-J 000000000000OU428019
BI00B32W4    4500196615     2022090618018403795              CAVS 0.3 L/R             CCN000006000000006000FN00000000020220901000006000NNE   20220715085506W41 1W    00000200000000471000000000032W41   HJYHK-J 000000000000OU428020
BI00B32W4    4500196615     2022090618018403749              CAVS 0.3 W/L             CCN000018000000018000FN00000000020220901000018000NNE   20220715085506W41 1W    00000200000000471000000000032W41   HJYHK-J 000000000000OU428030
BI00B32W4    4500196615     2022090618018403937              CAVS 0.5 B/Y             CCN000003000000003000FN00000000020220901000003000NNE   20220715085506W41 1W    00000150000000677000000000032W41   HJYHK-J 000000000000OU428034
BI00B32W4    4500196615     2022090618018403934              CAVS 0.5 B/W             CCN000021000000021000FN00000000020220901000021000NNE   20220715085506W41 1W    00000150000000677000000000032W41   HJYHK-J 000000000000OU428033
BI00B32W4    4500196615     2022090618018403930              CAVS 0.5 B               CCN000061500000061500FN00000000020220901000061500NNE   20220715085506W41 1W    00000150000000677000000000032W41   HJYHK-J 000000000000OU428032
BI00B32W4    4500196615     2022090618018403940              CAVS 0.5 W               CCN000010500000010500FN00000000020220901000010500NNE   20220715085506W41 1W    00000150000000677000000000032W41   HJYHK-J 000000000000OU428046
BI00B32W4    4500196615     2022090618018403941              CAVS 0.5 GY              CCN000018000000018000FN00000000020220901000018000NNE   20220715085506W41 1W    00000150000000677000000000032W41   HJYHK-J 000000000000OU428035
BI00B32W4    4500196615     2022090618018403950              CAVS 0.5 R               CCN000030000000030000FN00000000020220901000030000NNE   20220715085506W41 1W    00000150000000677000000000032W41   HJYHK-J 000000000000OU428040
BI00B32W4    4500196615     2022090618018403951              CAVS 0.5 O               CCN000003000000003000FN00000000020220901000003000NNE   20220715085506W41 1W    00000150000000677000000000032W41   HJYHK-J 000000000000OU428038
BI00B32W4    4500196615     2022090618018403952              CAVS 0.5 P               CCN000001500000001500FN00000000020220901000001500NNE   20220715085506W41 1W    00000150000000677000000000032W41   HJYHK-J 000000000000OU428039
BI00B32W4    4500196615     2022090618018403961              CAVS 0.5 LG              CCN000004500000004500FN00000000020220901000004500NNE   20220715085506W41 1W    00000150000000677000000000032W41   HJYHK-J 000000000000OU428037
BI00B32W4    4500196615     2022090618018403970              CAVS 0.5 Y               CCN000003000000003000FN00000000020220901000003000NNE   20220715085506W41 1W    00000150000000677000000000032W41   HJYHK-J 000000000000OU428047
BI00B32W4    4500196615     2022090618018403990              CAVS 0.5 L               CCN000006000000006000FN00000000020220901000006000NNE   20220715085506W41 1W    00000150000000677000000000032W41   HJYHK-J 000000000000OU428036
BI00B32W4    4500196615     2022090618018403991              CAVS 0.5 SB              CCN000018000000018000FN00000000020220901000018000NNE   20220715085506W41 1W    00000150000000677000000000032W41   HJYHK-J 000000000000OU428042
BI00B32W4    4500196615     2022090618018403992              CAVS 0.5 V               CCN000016500000016500FN00000000020220901000016500NNE   20220715085506W41 1W    00000150000000677000000000032W41   HJYHK-J 000000000000OU428043
BI00B32W4    4500196615     2022090618018404130              CAVS 1.25 B              CCN000006400000006400FN00000000020220901000006400NNE   20220715085506W41 1W    00000080000001378000000000032W41   HJYHK-J 000000000000OU428048
BI00B32W4    4500196615     2022090618018404141              CAVS 1.25 GY             CCN000001600000001600FN00000000020220901000001600NNE   20220715085506W41 1W    00000080000001378000000000032W41   HJYHK-J 000000000000OU428049
BI00B32W4    4500196615     2022090618018403739              CAVS 0.3 B/L             CCN000002000000002000FN00000000020220901000002000NNE   20220715085506W41 1W    00000200000000471000000000032W41   HJYHK-J 000000000000OU428013
BI00B32W4    4500196615     202209061801R706930              CIVUS 0.35 B             CCN000012000000012000FN00000000020220901000012000NNE   20220715085506W41 1W    00000300000000386000000000032W41   HJYHK-J 000000000000OU428008
BI00B32W4    4500196615     202209061801R706970              CIVUS 0.35 Y             CCN000015000000015000FN00000000020220901000015000NNE   20220715085506W41 1W    00000300000000386000000000032W41   HJYHK-J 000000000000OU428011
BI00B32W4    4500196615     202209061801R706990              CIVUS 0.35 L             CCN000015000000015000FN00000000020220901000015000NNE   20220715085506W41 1W    00000300000000386000000000032W41   HJYHK-J 000000000000OU428010
BI00B32W4    4500196615     2022090618018403769              CAVS 0.3 G/L             CCN000002000000002000FN00000000020220901000002000NNE   20220715085506W41 1W    00000200000000471000000000032W41   HJYHK-J 000000000000OU428016
BI00B32W4    4500196615     202209061801R706980              CIVUS 0.35 BR            CCN000009000000009000FN00000000020220901000009000NNE   20220715085506W41 1W    00000300000000386000000000032W41   HJYHK-J 000000000000OU428009
BI00B32W4    4500196615     2022090618009604350              AVS 3 R                  CCN000003200000003200FN00000000020220901000003200NNE   20220715085506W41 1W    00000040000003831600000000032W41   HJYHK-J 000000000000OU428005
BI00B32W4    4500196615     202209061801R703930              CIVUS 0.5 B              CCN000004400000004400FN00000000020220901000004400NNE   20220715085506W41 1W    00000220000000525000000000032W41   HJYHK-J 000000000000OU428006
BI00B32W4    4500196615     2022090618009604339              AVS 3 B/L                CCN000003200000003200FN00000000020220901000003200NNE   20220715085506W41 1W    00000040000003831600000000032W41   HJYHK-J 000000000000OU428004
BI00B32W4    4500196615     2022090618018403733              CAVS 0.3 V/W             CCN000004000000004000FN00000000020220901000004000NNE   20220715085506W41 1W    00000200000000471000000000032W41   HJYHK-J 000000000000OU428028
BI00B32W4    4500196615     2022090618018403933              CAVS 0.5 V/W             CCN000003000000003000FN00000000020220901000003000NNE   20220715085506W41 1W    00000150000000677000000000032W41   HJYHK-J 000000000000OU428045
BI00B32W4    4500196615     2022090618018403956              CAVS 0.5 R/G             CCN000003000000003000FN00000000020220901000003000NNE   20220715085506W41 1W    00000150000000677000000000032W41   HJYHK-J 000000000000OU428041
BI00B32W4    4500196615     20220906180184039G9              CAVS 0.5 V/G             CCN000006000000006000FN00000000020220901000006000NNE   20220715085506W41 1W    00000150000000677000000000032W41   HJYHK-J 000000000000OU428044
BI00B32W4    4500196615     202209061801R703970              CIVUS 0.5 Y              CCN000004400000004400FN00000000020220901000004400NNE   20220715085506W41 1W    00000220000000525000000000032W41   HJYHK-J 000000000000OU428007
BI00B32W4    @4500196615    20220906181B0911611              CAVSAS 0.3X2 GY/L        CCN000006300000006300FN00000000020220901000006300NNE   20220715085502W41 1W    00000035000002254000000000032W41   HJYHK-J 000000000000OU428002
BI00B32W4    @4500196615    20220906181B09116K3              CAVSAS 0.3X2 GY/P        CCN000005950000005950FN00000000020220901000005950NNE   20220715085502W41 1W    00000035000002254000000000032W41   HJYHK-J 000000000000OU428003
BI00B32W4    @4500196615    20220906181B0911641              CAVSAS 0.3X2 GY          CCN000005950000005950FN00000000020220901000005950NNE   20220715085502W41 1W    00000035000002254000000000032W41   HJYHK-J 000000000000OU428001
BI00B32W4    4500196620     2022090618007704260              AVSS 2F G                CCN000001000000001000FN00000000020220901000001000NNE   20220715085507W41 1W    00000050000002126400000000032W41   HJYHK-J 000000000000OK428003
BI00B32W4    4500196620     2022090618007704270              AVSS 2F Y                CCN000001000000001000FN00000000020220901000001000NNE   20220715085507W41 1W    00000050000002126400000000032W41   HJYHK-J 000000000000OK428005
BI00B32W4    4500196620     2022090618007704230              AVSS 2F B                CCN000011000000011000FN00000000020220901000011000NNE   20220715085507W41 1W    00000050000002126400000000032W41   HJYHK-J 000000000000OK428002
BI00B32W4    4500196620     2022090618007704250              AVSS 2F R                CCN000009000000009000FN00000000020220901000009000NNE   20220715085507W41 1W    00000050000002126400000000032W41   HJYHK-J 000000000000OK428004
BI00B32W4    4500196620     2022090618018403791              CAVS 0.3 SB              CCN000006000000006000FN00000000020220901000006000NNE   20220715085507W41 1W    00000200000000471000000000032W41   HJYHK-J 000000000000OK428012
BI00B32W4    4500196620     2022090618018403740              CAVS 0.3 W               CCN000036000000036000FN00000000020220901000036000NNE   20220715085507W41 1W    00000200000000471000000000032W41   HJYHK-J 000000000000OK428014
BI00B32W4    4500196620     2022090618018403730              CAVS 0.3 B               CCN000038000000038000FN00000000020220901000038000NNE   20220715085507W41 1W    00000200000000471000000000032W41   HJYHK-J 000000000000OK428006
BI00B32W4    4500196620     2022090618018403750              CAVS 0.3 R               CCN000012000000012000FN00000000020220901000012000NNE   20220715085507W41 1W    00000200000000471000000000032W41   HJYHK-J 000000000000OK428011
BI00B32W4    4500196620     2022090618018403752              CAVS 0.3 P               CCN000012000000012000FN00000000020220901000012000NNE   20220715085507W41 1W    00000200000000471000000000032W41   HJYHK-J 000000000000OK428010
BI00B32W4    4500196620     2022090618018403760              CAVS 0.3 G               CCN000038000000038000FN00000000020220901000038000NNE   20220715085507W41 1W    00000200000000471000000000032W41   HJYHK-J 000000000000OK428008
BI00B32W4    4500196620     2022090618018403770              CAVS 0.3 Y               CCN000004000000004000FN00000000020220901000004000NNE   20220715085507W41 1W    00000200000000471000000000032W41   HJYHK-J 000000000000OK428015
BI00B32W4    4500196620     2022090618018403780              CAVS 0.3 BR              CCN000032000000032000FN00000000020220901000032000NNE   20220715085507W41 1W    00000200000000471000000000032W41   HJYHK-J 000000000000OK428007
BI00B32W4    4500196620     2022090618018403790              CAVS 0.3 L               CCN000020000000020000FN00000000020220901000020000NNE   20220715085507W41 1W    00000200000000471000000000032W41   HJYHK-J 000000000000OK428009
BI00B32W4    4500196620     2022090618018403792              CAVS 0.3 V               CCN000024000000024000FN00000000020220901000024000NNE   20220715085507W41 1W    00000200000000471000000000032W41   HJYHK-J 000000000000OK428013
BI00B32W4    4500196620     2022090618018403930              CAVS 0.5 B               CCN000070500000070500FN00000000020220901000070500NNE   20220715085507W41 1W    00000150000000677000000000032W41   HJYHK-J 000000000000OK428016
BI00B32W4    4500196620     2022090618018403940              CAVS 0.5 W               CCN000024000000024000FN00000000020220901000024000NNE   20220715085507W41 1W    00000150000000677000000000032W41   HJYHK-J 000000000000OK428029
BI00B32W4    4500196620     2022090618018403941              CAVS 0.5 GY              CCN000022500000022500FN00000000020220901000022500NNE   20220715085507W41 1W    00000150000000677000000000032W41   HJYHK-J 000000000000OK428019
BI00B32W4    4500196620     2022090618018403950              CAVS 0.5 R               CCN000036000000036000FN00000000020220901000036000NNE   20220715085507W41 1W    00000150000000677000000000032W41   HJYHK-J 000000000000OK428024
BI00B32W4    4500196620     2022090618018403951              CAVS 0.5 O               CCN000024000000024000FN00000000020220901000024000NNE   20220715085507W41 1W    00000150000000677000000000032W41   HJYHK-J 000000000000OK428022
BI00B32W4    4500196620     2022090618018403952              CAVS 0.5 P               CCN000111000000111000FN00000000020220901000111000NNE   20220715085507W41 1W    00000150000000677000000000032W41   HJYHK-J 000000000000OK428023
BI00B32W4    4500196620     2022090618018403960              CAVS 0.5 G               CCN000024000000024000FN00000000020220901000024000NNE   20220715085507W41 1W    00000150000000677000000000032W41   HJYHK-J 000000000000OK428018
BI00B32W4    4500196620     2022090618018403961              CAVS 0.5 LG              CCN000025500000025500FN00000000020220901000025500NNE   20220715085507W41 1W    00000150000000677000000000032W41   HJYHK-J 000000000000OK428021
BI00B32W4    4500196620     2022090618018403970              CAVS 0.5 Y               CCN000081000000081000FN00000000020220901000081000NNE   20220715085507W41 1W    00000150000000677000000000032W41   HJYHK-J 000000000000OK428030
BI00B32W4    4500196620     2022090618018403980              CAVS 0.5 BR              CCN000025500000025500FN00000000020220901000025500NNE   20220715085507W41 1W    00000150000000677000000000032W41   HJYHK-J 000000000000OK428017
BI00B32W4    4500196620     2022090618018403990              CAVS 0.5 L               CCN000114000000114000FN00000000020220901000114000NNE   20220715085507W41 1W    00000150000000677000000000032W41   HJYHK-J 000000000000OK428020
BI00B32W4    4500196620     2022090618018403991              CAVS 0.5 SB              CCN000049500000049500FN00000000020220901000049500NNE   20220715085507W41 1W    00000150000000677000000000032W41   HJYHK-J 000000000000OK428027
BI00B32W4    4500196620     2022090618018403992              CAVS 0.5 V               CCN000034500000034500FN00000000020220901000034500NNE   20220715085507W41 1W    00000150000000677000000000032W41   HJYHK-J 000000000000OK428028
BI00B32W4    4500196620     2022090618018404030              CAVS 0.85 B              CCN000088000000088000FN00000000020220901000088000NNE   20220715085507W41 1W    00000100000000965000000000032W41   HJYHK-J 000000000000OK428031
BI00B32W4    4500196620     2022090618018404040              CAVS 0.85 W              CCN000052000000052000FN00000000020220901000052000NNE   20220715085507W41 1W    00000100000000965000000000032W41   HJYHK-J 000000000000OK428040
BI00B32W4    4500196620     2022090618018404041              CAVS 0.85 GY             CCN000099000000099000FN00000000020220901000099000NNE   20220715085507W41 1W    00000100000000965000000000032W41   HJYHK-J 000000000000OK428034
BI00B32W4    4500196620     2022090618018404050              CAVS 0.85 R              CCN000147000000147000FN00000000020220901000147000NNE   20220715085507W41 1W    00000100000000965000000000032W41   HJYHK-J 000000000000OK428037
BI00B32W4    4500196620     2022090618018404051              CAVS 0.85 O              CCN000041000000041000FN00000000020220901000041000NNE   20220715085507W41 1W    00000100000000965000000000032W41   HJYHK-J 000000000000OK428035
BI00B32W4    4500196620     2022090618018404052              CAVS 0.85 P              CCN000041000000041000FN00000000020220901000041000NNE   20220715085507W41 1W    00000100000000965000000000032W41   HJYHK-J 000000000000OK428036
BI00B32W4    4500196620     2022090618018404060              CAVS 0.85 G              CCN000070000000070000FN00000000020220901000070000NNE   20220715085507W41 1W    00000100000000965000000000032W41   HJYHK-J 000000000000OK428033
BI00B32W4    4500196620     2022090618018404070              CAVS 0.85 Y              CCN000094000000094000FN00000000020220901000094000NNE   20220715085507W41 1W    00000100000000965000000000032W41   HJYHK-J 000000000000OK428041
BI00B32W4    4500196620     2022090618018404080              CAVS 0.85 BR             CCN000031000000031000FN00000000020220901000031000NNE   20220715085507W41 1W    00000100000000965000000000032W41   HJYHK-J 000000000000OK428032
BI00B32W4    4500196620     2022090618018404091              CAVS 0.85 SB             CCN000072000000072000FN00000000020220901000072000NNE   20220715085507W41 1W    00000100000000965000000000032W41   HJYHK-J 000000000000OK428038
BI00B32W4    4500196620     2022090618018404092              CAVS 0.85 V              CCN000032000000032000FN00000000020220901000032000NNE   20220715085507W41 1W    00000100000000965000000000032W41   HJYHK-J 000000000000OK428039
BI00B32W4    4500196620     2022090618018404140              CAVS 1.25 W              CCN000025600000025600FN00000000020220901000025600NNE   20220715085507W41 1W    00000080000001378000000000032W41   HJYHK-J 000000000000OK428050
BI00B32W4    4500196620     2022090618018404170              CAVS 1.25 Y              CCN000025600000025600FN00000000020220901000025600NNE   20220715085507W41 1W    00000080000001378000000000032W41   HJYHK-J 000000000000OK428051
BI00B32W4    4500196620     2022090618018404130              CAVS 1.25 B              CCN000015200000015200FN00000000020220901000015200NNE   20220715085507W41 1W    00000080000001378000000000032W41   HJYHK-J 000000000000OK428042
BI00B32W4    4500196620     2022090618018404141              CAVS 1.25 GY             CCN000004000000004000FN00000000020220901000004000NNE   20220715085507W41 1W    00000080000001378000000000032W41   HJYHK-J 000000000000OK428044
BI00B32W4    4500196620     2022090618018404151              CAVS 1.25 O              CCN000005600000005600FN00000000020220901000005600NNE   20220715085507W41 1W    00000080000001378000000000032W41   HJYHK-J 000000000000OK428046
BI00B32W4    4500196620     2022090618018404152              CAVS 1.25 P              CCN000009600000009600FN00000000020220901000009600NNE   20220715085507W41 1W    00000080000001378000000000032W41   HJYHK-J 000000000000OK428047
BI00B32W4    4500196620     2022090618018404160              CAVS 1.25 G              CCN000014400000014400FN00000000020220901000014400NNE   20220715085507W41 1W    00000080000001378000000000032W41   HJYHK-J 000000000000OK428043
BI00B32W4    4500196620     2022090618018404150              CAVS 1.25 R              CCN000008000000008000FN00000000020220901000008000NNE   20220715085507W41 1W    00000080000001378000000000032W41   HJYHK-J 000000000000OK428048
BI00B32W4    4500196620     2022090618018404190              CAVS 1.25 L              CCN000008800000008800FN00000000020220901000008800NNE   20220715085507W41 1W    00000080000001378000000000032W41   HJYHK-J 000000000000OK428045
BI00B32W4    4500196620     2022090618018404192              CAVS 1.25 V              CCN000009600000009600FN00000000020220901000009600NNE   20220715085507W41 1W    00000080000001378000000000032W41   HJYHK-J 000000000000OK428049
BI00B32W4    4500196620     2022090618018403953              CAVS 0.5 R/B             CCN000001500000001500FN00000000020220901000001500NNE   20220715085507W41 1W    00000150000000677000000000032W41   HJYHK-J 000000000000OK428025
BI00B32W4    4500196620     2022090618018403955              CAVS 0.5 R/LG            CCN000003000000003000FN00000000020220901000003000NNE   20220715085507W41 1W    00000150000000677000000000032W41   HJYHK-J 000000000000OK428026
BI00B32W4    @4500196620    20220906181B32116Z6              AVSSCS 0.3FX2 DGY/V      CCN000001750000001750FN00000000020220901000001750NNE   20220715085503W41 1W    00000035000002276000000000032W41   HJYHK-J 000000000000OK428001
BI00B32W4    @4500196788    20220927181B32116S1              AVSSCS 0.3FX2 DGY        CCN000000700000000700FN00000000020220901000000700NNE   20220715085504W4171W    00000035000002276000000000032W417  HJYHK-J 000000000000OE229002
BI00B32W4    @4500196788    20220927181B32037Y5              AVSSCS 0.3FX1 DGY/W      CCN000004500000004500FN00000000020220901000004500NNE   20220715085504W4171W    00000050000001780000000000032W417  HJYHK-J 000000000000OE229001
BI00B32W4    @4500196806    20220830181D6910239              AVSSHCS 0.5FX2 B/L       CCN000025500000025500FN00000000020220901000025500NNE   20220715092523W4A21W    00000030000002385000000000032W4A2  HJYHK-J 000000000000OW328001
BI00A32W4    @4500196860    20220919181D6910239              AVSSHCS 0.5FX2 B/L       CCN000001200000001200FN00000000020220901000001200NNE   20220715092524W4421W    00000030000002385000000000032W442  HJYHK-J 000000000000OB129001
BI00B32W9    4500196197     2022081618009604454              AVS 5 R/W                CCN000000200000000200FN00000000020220801000000200NNE   20220715085357W93 1W    00000020000005981000000000032W93   HKYHK   000000000000ZC128001
BI00B32W9    4500196491     2022072618007703740              AVSS 0.3F W              CCN000002000000002000FN00000000020220701000002000NNE   20220715085355W9  1W    00000200000000496000000000032W9    HKYHK   000000000000ZH227001
BI00B32W9    4500196696     2022072618018404030              CAVS 0.85 B              CCN000001000000001000FN00000000020220701000001000NNE   20220715085357W9  1W    00000100000000965000000000032W9    HKYHK   000000000000ZI227001
BI00B32W9    4500196696     2022072618018404050              CAVS 0.85 R              CCN000001000000001000FN00000000020220701000001000NNE   20220715085357W9  1W    00000100000000965000000000032W9    HKYHK   000000000000ZI227003
BI00B32W9    4500196696     2022072618018404090              CAVS 0.85 L              CCN000001000000001000FN00000000020220701000001000NNE   20220715085357W9  1W    00000100000000965000000000032W9    HKYHK   000000000000ZI227002
