BI00B32BF    TT2210AKMW     2022083018009603937              AVS 0.5 B/Y              CCN000002000000002000FN00000000020221001000002000NNE   20220816113754    1W    00000100000000850000000000032BF    TTTJY   000000000000NR328001
BI00B32G2    @SA2209BJMW    20220831181F21031ZZ              AVSSHCS-S 1.25FX2 B/P    CCN000000600000000600FN00000000020220901000000600NNE   20220816082140    1W    00000020000004267300000000032G2    AISUAI  000000000000IS328001
BI00B32G7    @JW2210A MW    20220915181E48032ZZ              CAVSAS-S 0.3X2 GY/P      CCN000000350000000350FN00000000020221001000000350NNE   20220816082303    1W    00000035000002008700000000032G7    JIJAI   000000000000JS528001
BI00B32G7    JW2210AMMW     202209151801W003940              IVSSH 0.5F W             CCN000001800000001800FN00000000020221001000001800NNE   20220816082306    1W    00000180000000625000000000032G7    JIJAI   000000000000JT528002
BI00B32G7    JW2210AMMW     202209151801W006941              IVSSH 0.35F GY           CCN000002500000002500FN00000000020221001000002500NNE   20220816082306    1W    00000250000000452000000000032G7    JIJAI   000000000000JT528003
BI00B32G7    JW2210AMMW     202209151801W006991              IVSSH 0.35F SB           CCN000002500000002500FN00000000020221001000002500NNE   20220816082306    1W    00000250000000452000000000032G7    JIJAI   000000000000JT528004
BI00B32H2    TAW209M        2022090918007704130              AVSS 1.25F B             CCN000000800000000800FN00000000020220901000000800NNE   20220816082725    1W    00000080000001389000000000032H2    HVYHV   000000000000UI428003
BI00B32H2    @TAW209M       20220909181AD2023ZZ              CIVUSAS-S 0.13X2 B       CCN000002400000002400FN00000000020220901000002400NNE   20220816082724    1W    00000060000001031100000000032H2    HVYHV   000000000000UI428001
BI00B32H2    @TAW209M       20220909181AD2024ZZ              CIVUSAS-S 0.13X3 B       CCN000002500000002500FN00000000020220901000002500NNE   20220816082724    1W    00000050000001297300000000032H2    HVYHV   000000000000UI428002
BI00B32H2    TAW210F        20220909180D0203950              AVSSH 0.5F R             CCN000001500000001500FN00000000020221001000001500NNE   20220816082727    1W    00000150000000689000000000032H2    HVYHV   000000000000UF428003
BI00B32H2    @TAW210F       20220909181AD2001ZZ              CIVUSAS-S 0.35X1 B       CCN000001650000001650FN00000000020221001000001650NNE   20220816082726    1W    00000055000001540800000000032H2    HVYHV   000000000000UF428001
BI00B32H2    @TAW210F       20220909181AD2003ZZ              CIVUSAS-S 0.35X3 B       CCN000002450000002450FN00000000020221001000002450NNE   20220816082726    1W    00000035000002172100000000032H2    HVYHV   000000000000UF428002
BI00B32H2    TAW210G        20220916180D0203960              AVSSH 0.5F G             CCN000001500000001500FN00000000020221001000001500NNE   20220816082729    1W    00000150000000689000000000032H2    HVYHV   000000000000UJ528003
BI00B32H2    @TAW210G       20220916181B32102S1              AVSSCS 0.5FX2 DGY        CCN000002100000002100FN00000000020221001000002100NNE   20220816082726    1W    00000030000002903000000000032H2    HVYHV   000000000000UJ528002
BI00B32H2    @TAW210G       20220916181AD2008ZZ              CIVUSAS-S 0.5X2 B        CCN000002000000002000FN00000000020221001000002000NNE   20220816082726    1W    00000040000002028000000000032H2    HVYHV   000000000000UJ528001
BI00B32H2    TAW210H        2022100718007704160              AVSS 1.25F G             CCN000000800000000800FN00000000020221001000000800NNE   20220816082730    1W    00000080000001389000000000032H2    HVYHV   000000000000UK329002
BI00B32H2    TAW210H        2022100718007704190              AVSS 1.25F L             CCN000000800000000800FN00000000020221001000000800NNE   20220816082730    1W    00000080000001389000000000032H2    HVYHV   000000000000UK329003
BI00B32H2    @TAW210H       20221007181F21002ZZ              AVSSHCS-S 0.5FX1 B       CCN000002800000002800FN00000000020221001000002800NNE   20220816082727    1W    00000040000001908400000000032H2    HVYHV   000000000000UK329001
BI00B32Q8    EW2210C MW     2022091418007703770              AVSS 0.3F Y              CCN000044000000044000FN00000000020221001000044000NNE   20220816113658    1W    00000200000000496000000000032Q8    EMEMI   000000000000MU528001
BI00B32Q8    EW2209G MW     20220831180D0203941              AVSSH 0.5F GY            CCN000003000000003000FN00000000020220901000003000NNE   20220816113656    1W    00000150000000689000000000032Q8    EMEMI   000000000000MC328001
BI00B32W4    4500198632     2022083018007704270              AVSS 2F Y                CCN000000500000000500FN00000000020220801000000500NNE   20220816140642W41 1W    00000050000002126400000000032W41   HJYHK-J 000000000000OH328001
BI00B32W4    4500198336     2022090618018404030              CAVS 0.85 B              CCN000009000000009000FN00000000020220901000009000NNE   20220816140644W41 1W    00000100000000965000000000032W41   HJYHK-J 000000000000OO428001
BI00B32W4    4500198336     2022090618018404040              CAVS 0.85 W              CCN000009000000009000FN00000000020220901000009000NNE   20220816140644W41 1W    00000100000000965000000000032W41   HJYHK-J 000000000000OO428010
BI00B32W4    4500198336     2022090618018404041              CAVS 0.85 GY             CCN000018000000018000FN00000000020220901000018000NNE   20220816140644W41 1W    00000100000000965000000000032W41   HJYHK-J 000000000000OO428004
BI00B32W4    4500198336     2022090618018404050              CAVS 0.85 R              CCN000016000000016000FN00000000020220901000016000NNE   20220816140644W41 1W    00000100000000965000000000032W41   HJYHK-J 000000000000OO428007
BI00B32W4    4500198336     2022090618018404051              CAVS 0.85 O              CCN000013000000013000FN00000000020220901000013000NNE   20220816140644W41 1W    00000100000000965000000000032W41   HJYHK-J 000000000000OO428005
BI00B32W4    4500198336     2022090618018404052              CAVS 0.85 P              CCN000006000000006000FN00000000020220901000006000NNE   20220816140644W41 1W    00000100000000965000000000032W41   HJYHK-J 000000000000OO428006
BI00B32W4    4500198336     2022090618018404060              CAVS 0.85 G              CCN000011000000011000FN00000000020220901000011000NNE   20220816140644W41 1W    00000100000000965000000000032W41   HJYHK-J 000000000000OO428003
BI00B32W4    4500198336     2022090618018404070              CAVS 0.85 Y              CCN000010000000010000FN00000000020220901000010000NNE   20220816140644W41 1W    00000100000000965000000000032W41   HJYHK-J 000000000000OO428011
BI00B32W4    4500198336     2022090618018404080              CAVS 0.85 BR             CCN000008000000008000FN00000000020220901000008000NNE   20220816140644W41 1W    00000100000000965000000000032W41   HJYHK-J 000000000000OO428002
BI00B32W4    4500198336     2022090618018404091              CAVS 0.85 SB             CCN000007000000007000FN00000000020220901000007000NNE   20220816140644W41 1W    00000100000000965000000000032W41   HJYHK-J 000000000000OO428008
BI00B32W4    4500198336     2022090618018404092              CAVS 0.85 V              CCN000007000000007000FN00000000020220901000007000NNE   20220816140644W41 1W    00000100000000965000000000032W41   HJYHK-J 000000000000OO428009
BI00B32W4    @4500198424    20220927181D6910239              AVSSHCS 0.5FX2 B/L       CCN000040500000040500FN00000000020220901000040500NNE   20220816140643W4A21W    00000030000002385000000000032W4A2  HJYHK-J 000000000000ON229001
BI00B32W4    @4500198436    20221025181B32116S1              AVSSCS 0.3FX2 DGY        CCN000002100000002100FN00000000020221001000002100NNE   20220816140645W4171W    00000035000002276000000000032W417  HJYHK-J 000000000000OG22A002
BI00B32W4    @4500198436    20221025181B32037Y5              AVSSCS 0.3FX1 DGY/W      CCN000006000000006000FN00000000020221001000006000NNE   20220816140645W4171W    00000050000001780000000000032W417  HJYHK-J 000000000000OG22A001
BI00B32W4    @4500198643    20220920181B09116K3              CAVSAS 0.3X2 GY/P        CCN000001050000001050FN00000000020220901000001050NNE   20220816140644W41 1W    00000035000002254000000000032W41   HJYHK-J 000000000000OR129001
BI00B32BF    TT2210AKMW     2022083018009603937              AVS 0.5 B/Y              CCN000002000000002000FN00000000020221001000002000NNE   20220816113754    1W    00000100000000850000000000032BF    TTTJY   000000000000NR328001
BI00B32G2    @SA2209BJMW    20220831181F21031ZZ              AVSSHCS-S 1.25FX2 B/P    CCN000000600000000600FN00000000020220901000000600NNE   20220816082140    1W    00000020000004267300000000032G2    AISUAI  000000000000IS328001
BI00B32G7    @JW2210A MW    20220915181E48032ZZ              CAVSAS-S 0.3X2 GY/P      CCN000000350000000350FN00000000020221001000000350NNE   20220816082303    1W    00000035000002008700000000032G7    JIJAI   000000000000JS528001
BI00B32G7    JW2210AMMW     202209151801W003940              IVSSH 0.5F W             CCN000001800000001800FN00000000020221001000001800NNE   20220816082306    1W    00000180000000625000000000032G7    JIJAI   000000000000JT528002
BI00B32G7    JW2210AMMW     202209151801W006941              IVSSH 0.35F GY           CCN000002500000002500FN00000000020221001000002500NNE   20220816082306    1W    00000250000000452000000000032G7    JIJAI   000000000000JT528003
BI00B32G7    JW2210AMMW     202209151801W006991              IVSSH 0.35F SB           CCN000002500000002500FN00000000020221001000002500NNE   20220816082306    1W    00000250000000452000000000032G7    JIJAI   000000000000JT528004
BI00B32H2    TAW209M        2022090918007704130              AVSS 1.25F B             CCN000000800000000800FN00000000020220901000000800NNE   20220816082725    1W    00000080000001389000000000032H2    HVYHV   000000000000UI428003
BI00B32H2    @TAW209M       20220909181AD2023ZZ              CIVUSAS-S 0.13X2 B       CCN000002400000002400FN00000000020220901000002400NNE   20220816082724    1W    00000060000001031100000000032H2    HVYHV   000000000000UI428001
BI00B32H2    @TAW209M       20220909181AD2024ZZ              CIVUSAS-S 0.13X3 B       CCN000002500000002500FN00000000020220901000002500NNE   20220816082724    1W    00000050000001297300000000032H2    HVYHV   000000000000UI428002
BI00B32H2    TAW210F        20220909180D0203950              AVSSH 0.5F R             CCN000001500000001500FN00000000020221001000001500NNE   20220816082727    1W    00000150000000689000000000032H2    HVYHV   000000000000UF428003
BI00B32H2    @TAW210F       20220909181AD2001ZZ              CIVUSAS-S 0.35X1 B       CCN000001650000001650FN00000000020221001000001650NNE   20220816082726    1W    00000055000001540800000000032H2    HVYHV   000000000000UF428001
BI00B32H2    @TAW210F       20220909181AD2003ZZ              CIVUSAS-S 0.35X3 B       CCN000002450000002450FN00000000020221001000002450NNE   20220816082726    1W    00000035000002172100000000032H2    HVYHV   000000000000UF428002
BI00B32H2    TAW210G        20220916180D0203960              AVSSH 0.5F G             CCN000001500000001500FN00000000020221001000001500NNE   20220816082729    1W    00000150000000689000000000032H2    HVYHV   000000000000UJ528003
BI00B32H2    @TAW210G       20220916181B32102S1              AVSSCS 0.5FX2 DGY        CCN000002100000002100FN00000000020221001000002100NNE   20220816082726    1W    00000030000002903000000000032H2    HVYHV   000000000000UJ528002
BI00B32H2    @TAW210G       20220916181AD2008ZZ              CIVUSAS-S 0.5X2 B        CCN000002000000002000FN00000000020221001000002000NNE   20220816082726    1W    00000040000002028000000000032H2    HVYHV   000000000000UJ528001
BI00B32H2    TAW210H        2022100718007704160              AVSS 1.25F G             CCN000000800000000800FN00000000020221001000000800NNE   20220816082730    1W    00000080000001389000000000032H2    HVYHV   000000000000UK329002
BI00B32H2    TAW210H        2022100718007704190              AVSS 1.25F L             CCN000000800000000800FN00000000020221001000000800NNE   20220816082730    1W    00000080000001389000000000032H2    HVYHV   000000000000UK329003
BI00B32H2    @TAW210H       20221007181F21002ZZ              AVSSHCS-S 0.5FX1 B       CCN000002800000002800FN00000000020221001000002800NNE   20220816082727    1W    00000040000001908400000000032H2    HVYHV   000000000000UK329001
BI00B32Q8    EW2210C MW     2022091418007703770              AVSS 0.3F Y              CCN000044000000044000FN00000000020221001000044000NNE   20220816113658    1W    00000200000000496000000000032Q8    EMEMI   000000000000MU528001
BI00B32Q8    EW2209G MW     20220831180D0203941              AVSSH 0.5F GY            CCN000003000000003000FN00000000020220901000003000NNE   20220816113656    1W    00000150000000689000000000032Q8    EMEMI   000000000000MC328001
BI00B32W4    4500198632     2022083018007704270              AVSS 2F Y                CCN000000500000000500FN00000000020220801000000500NNE   20220816140642W41 1W    00000050000002126400000000032W41   HJYHK-J 000000000000OH328001
BI00B32W4    4500198336     2022090618018404030              CAVS 0.85 B              CCN000009000000009000FN00000000020220901000009000NNE   20220816140644W41 1W    00000100000000965000000000032W41   HJYHK-J 000000000000OO428001
BI00B32W4    4500198336     2022090618018404040              CAVS 0.85 W              CCN000009000000009000FN00000000020220901000009000NNE   20220816140644W41 1W    00000100000000965000000000032W41   HJYHK-J 000000000000OO428010
BI00B32W4    4500198336     2022090618018404041              CAVS 0.85 GY             CCN000018000000018000FN00000000020220901000018000NNE   20220816140644W41 1W    00000100000000965000000000032W41   HJYHK-J 000000000000OO428004
BI00B32W4    4500198336     2022090618018404050              CAVS 0.85 R              CCN000016000000016000FN00000000020220901000016000NNE   20220816140644W41 1W    00000100000000965000000000032W41   HJYHK-J 000000000000OO428007
BI00B32W4    4500198336     2022090618018404051              CAVS 0.85 O              CCN000013000000013000FN00000000020220901000013000NNE   20220816140644W41 1W    00000100000000965000000000032W41   HJYHK-J 000000000000OO428005
BI00B32W4    4500198336     2022090618018404052              CAVS 0.85 P              CCN000006000000006000FN00000000020220901000006000NNE   20220816140644W41 1W    00000100000000965000000000032W41   HJYHK-J 000000000000OO428006
BI00B32W4    4500198336     2022090618018404060              CAVS 0.85 G              CCN000011000000011000FN00000000020220901000011000NNE   20220816140644W41 1W    00000100000000965000000000032W41   HJYHK-J 000000000000OO428003
BI00B32W4    4500198336     2022090618018404070              CAVS 0.85 Y              CCN000010000000010000FN00000000020220901000010000NNE   20220816140644W41 1W    00000100000000965000000000032W41   HJYHK-J 000000000000OO428011
BI00B32W4    4500198336     2022090618018404080              CAVS 0.85 BR             CCN000008000000008000FN00000000020220901000008000NNE   20220816140644W41 1W    00000100000000965000000000032W41   HJYHK-J 000000000000OO428002
BI00B32W4    4500198336     2022090618018404091              CAVS 0.85 SB             CCN000007000000007000FN00000000020220901000007000NNE   20220816140644W41 1W    00000100000000965000000000032W41   HJYHK-J 000000000000OO428008
BI00B32W4    4500198336     2022090618018404092              CAVS 0.85 V              CCN000007000000007000FN00000000020220901000007000NNE   20220816140644W41 1W    00000100000000965000000000032W41   HJYHK-J 000000000000OO428009
BI00B32W4    @4500198424    20220927181D6910239              AVSSHCS 0.5FX2 B/L       CCN000040500000040500FN00000000020220901000040500NNE   20220816140643W4A21W    00000030000002385000000000032W4A2  HJYHK-J 000000000000ON229001
BI00B32W4    @4500198436    20221025181B32116S1              AVSSCS 0.3FX2 DGY        CCN000002100000002100FN00000000020221001000002100NNE   20220816140645W4171W    00000035000002276000000000032W417  HJYHK-J 000000000000OG22A002
BI00B32W4    @4500198436    20221025181B32037Y5              AVSSCS 0.3FX1 DGY/W      CCN000006000000006000FN00000000020221001000006000NNE   20220816140645W4171W    00000050000001780000000000032W417  HJYHK-J 000000000000OG22A001
BI00B32W4    @4500198643    20220920181B09116K3              CAVSAS 0.3X2 GY/P        CCN000001050000001050FN00000000020220901000001050NNE   20220816140644W41 1W    00000035000002254000000000032W41   HJYHK-J 000000000000OR129001
BI00B32BF    TT2210AKMW     2022083018009603937              AVS 0.5 B/Y              CCN000002000000002000FN00000000020221001000002000NNE   20220816113754    1W    00000100000000850000000000032BF    TTTJY   000000000000NR328001
BI00B32G2    @SA2209BJMW    20220831181F21031ZZ              AVSSHCS-S 1.25FX2 B/P    CCN000000600000000600FN00000000020220901000000600NNE   20220816082140    1W    00000020000004267300000000032G2    AISUAI  000000000000IS328001
BI00B32G7    @JW2210A MW    20220915181E48032ZZ              CAVSAS-S 0.3X2 GY/P      CCN000000350000000350FN00000000020221001000000350NNE   20220816082303    1W    00000035000002008700000000032G7    JIJAI   000000000000JS528001
BI00B32G7    JW2210AMMW     202209151801W003940              IVSSH 0.5F W             CCN000001800000001800FN00000000020221001000001800NNE   20220816082306    1W    00000180000000625000000000032G7    JIJAI   000000000000JT528002
BI00B32G7    JW2210AMMW     202209151801W006941              IVSSH 0.35F GY           CCN000002500000002500FN00000000020221001000002500NNE   20220816082306    1W    00000250000000452000000000032G7    JIJAI   000000000000JT528003
BI00B32G7    JW2210AMMW     202209151801W006991              IVSSH 0.35F SB           CCN000002500000002500FN00000000020221001000002500NNE   20220816082306    1W    00000250000000452000000000032G7    JIJAI   000000000000JT528004
BI00B32H2    TAW209M        2022090918007704130              AVSS 1.25F B             CCN000000800000000800FN00000000020220901000000800NNE   20220816082725    1W    00000080000001389000000000032H2    HVYHV   000000000000UI428003
BI00B32H2    @TAW209M       20220909181AD2023ZZ              CIVUSAS-S 0.13X2 B       CCN000002400000002400FN00000000020220901000002400NNE   20220816082724    1W    00000060000001031100000000032H2    HVYHV   000000000000UI428001
BI00B32H2    @TAW209M       20220909181AD2024ZZ              CIVUSAS-S 0.13X3 B       CCN000002500000002500FN00000000020220901000002500NNE   20220816082724    1W    00000050000001297300000000032H2    HVYHV   000000000000UI428002
BI00B32H2    TAW210F        20220909180D0203950              AVSSH 0.5F R             CCN000001500000001500FN00000000020221001000001500NNE   20220816082727    1W    00000150000000689000000000032H2    HVYHV   000000000000UF428003
BI00B32H2    @TAW210F       20220909181AD2001ZZ              CIVUSAS-S 0.35X1 B       CCN000001650000001650FN00000000020221001000001650NNE   20220816082726    1W    00000055000001540800000000032H2    HVYHV   000000000000UF428001
BI00B32H2    @TAW210F       20220909181AD2003ZZ              CIVUSAS-S 0.35X3 B       CCN000002450000002450FN00000000020221001000002450NNE   20220816082726    1W    00000035000002172100000000032H2    HVYHV   000000000000UF428002
BI00B32H2    TAW210G        20220916180D0203960              AVSSH 0.5F G             CCN000001500000001500FN00000000020221001000001500NNE   20220816082729    1W    00000150000000689000000000032H2    HVYHV   000000000000UJ528003
BI00B32H2    @TAW210G       20220916181B32102S1              AVSSCS 0.5FX2 DGY        CCN000002100000002100FN00000000020221001000002100NNE   20220816082726    1W    00000030000002903000000000032H2    HVYHV   000000000000UJ528002
BI00B32H2    @TAW210G       20220916181AD2008ZZ              CIVUSAS-S 0.5X2 B        CCN000002000000002000FN00000000020221001000002000NNE   20220816082726    1W    00000040000002028000000000032H2    HVYHV   000000000000UJ528001
BI00B32H2    TAW210H        2022100718007704160              AVSS 1.25F G             CCN000000800000000800FN00000000020221001000000800NNE   20220816082730    1W    00000080000001389000000000032H2    HVYHV   000000000000UK329002
BI00B32H2    TAW210H        2022100718007704190              AVSS 1.25F L             CCN000000800000000800FN00000000020221001000000800NNE   20220816082730    1W    00000080000001389000000000032H2    HVYHV   000000000000UK329003
BI00B32H2    @TAW210H       20221007181F21002ZZ              AVSSHCS-S 0.5FX1 B       CCN000002800000002800FN00000000020221001000002800NNE   20220816082727    1W    00000040000001908400000000032H2    HVYHV   000000000000UK329001
BI00B32Q8    EW2210C MW     2022091418007703770              AVSS 0.3F Y              CCN000044000000044000FN00000000020221001000044000NNE   20220816113658    1W    00000200000000496000000000032Q8    EMEMI   000000000000MU528001
BI00B32Q8    EW2209G MW     20220831180D0203941              AVSSH 0.5F GY            CCN000003000000003000FN00000000020220901000003000NNE   20220816113656    1W    00000150000000689000000000032Q8    EMEMI   000000000000MC328001
BI00B32W4    4500198632     2022083018007704270              AVSS 2F Y                CCN000000500000000500FN00000000020220801000000500NNE   20220816140642W41 1W    00000050000002126400000000032W41   HJYHK-J 000000000000OH328001
BI00B32W4    4500198336     2022090618018404030              CAVS 0.85 B              CCN000009000000009000FN00000000020220901000009000NNE   20220816140644W41 1W    00000100000000965000000000032W41   HJYHK-J 000000000000OO428001
BI00B32W4    4500198336     2022090618018404040              CAVS 0.85 W              CCN000009000000009000FN00000000020220901000009000NNE   20220816140644W41 1W    00000100000000965000000000032W41   HJYHK-J 000000000000OO428010
BI00B32W4    4500198336     2022090618018404041              CAVS 0.85 GY             CCN000018000000018000FN00000000020220901000018000NNE   20220816140644W41 1W    00000100000000965000000000032W41   HJYHK-J 000000000000OO428004
BI00B32W4    4500198336     2022090618018404050              CAVS 0.85 R              CCN000016000000016000FN00000000020220901000016000NNE   20220816140644W41 1W    00000100000000965000000000032W41   HJYHK-J 000000000000OO428007
BI00B32W4    4500198336     2022090618018404051              CAVS 0.85 O              CCN000013000000013000FN00000000020220901000013000NNE   20220816140644W41 1W    00000100000000965000000000032W41   HJYHK-J 000000000000OO428005
BI00B32W4    4500198336     2022090618018404052              CAVS 0.85 P              CCN000006000000006000FN00000000020220901000006000NNE   20220816140644W41 1W    00000100000000965000000000032W41   HJYHK-J 000000000000OO428006
BI00B32W4    4500198336     2022090618018404060              CAVS 0.85 G              CCN000011000000011000FN00000000020220901000011000NNE   20220816140644W41 1W    00000100000000965000000000032W41   HJYHK-J 000000000000OO428003
BI00B32W4    4500198336     2022090618018404070              CAVS 0.85 Y              CCN000010000000010000FN00000000020220901000010000NNE   20220816140644W41 1W    00000100000000965000000000032W41   HJYHK-J 000000000000OO428011
BI00B32W4    4500198336     2022090618018404080              CAVS 0.85 BR             CCN000008000000008000FN00000000020220901000008000NNE   20220816140644W41 1W    00000100000000965000000000032W41   HJYHK-J 000000000000OO428002
BI00B32W4    4500198336     2022090618018404091              CAVS 0.85 SB             CCN000007000000007000FN00000000020220901000007000NNE   20220816140644W41 1W    00000100000000965000000000032W41   HJYHK-J 000000000000OO428008
BI00B32W4    4500198336     2022090618018404092              CAVS 0.85 V              CCN000007000000007000FN00000000020220901000007000NNE   20220816140644W41 1W    00000100000000965000000000032W41   HJYHK-J 000000000000OO428009
BI00B32W4    @4500198424    20220927181D6910239              AVSSHCS 0.5FX2 B/L       CCN000040500000040500FN00000000020220901000040500NNE   20220816140643W4A21W    00000030000002385000000000032W4A2  HJYHK-J 000000000000ON229001
BI00B32W4    @4500198436    20221025181B32116S1              AVSSCS 0.3FX2 DGY        CCN000002100000002100FN00000000020221001000002100NNE   20220816140645W4171W    00000035000002276000000000032W417  HJYHK-J 000000000000OG22A002
BI00B32W4    @4500198436    20221025181B32037Y5              AVSSCS 0.3FX1 DGY/W      CCN000006000000006000FN00000000020221001000006000NNE   20220816140645W4171W    00000050000001780000000000032W417  HJYHK-J 000000000000OG22A001
BI00B32W4    @4500198643    20220920181B09116K3              CAVSAS 0.3X2 GY/P        CCN000001050000001050FN00000000020220901000001050NNE   20220816140644W41 1W    00000035000002254000000000032W41   HJYHK-J 000000000000OR129001
BI00B32BF    TT2210AKMW     2022083018009603937              AVS 0.5 B/Y              CCN000002000000002000FN00000000020221001000002000NNE   20220816113754    1W    00000100000000850000000000032BF    TTTJY   000000000000NR328001
BI00B32G2    @SA2209BJMW    20220831181F21031ZZ              AVSSHCS-S 1.25FX2 B/P    CCN000000600000000600FN00000000020220901000000600NNE   20220816082140    1W    00000020000004267300000000032G2    AISUAI  000000000000IS328001
BI00B32G7    @JW2210A MW    20220915181E48032ZZ              CAVSAS-S 0.3X2 GY/P      CCN000000350000000350FN00000000020221001000000350NNE   20220816082303    1W    00000035000002008700000000032G7    JIJAI   000000000000JS528001
BI00B32G7    JW2210AMMW     202209151801W003940              IVSSH 0.5F W             CCN000001800000001800FN00000000020221001000001800NNE   20220816082306    1W    00000180000000625000000000032G7    JIJAI   000000000000JT528002
BI00B32G7    JW2210AMMW     202209151801W006941              IVSSH 0.35F GY           CCN000002500000002500FN00000000020221001000002500NNE   20220816082306    1W    00000250000000452000000000032G7    JIJAI   000000000000JT528003
BI00B32G7    JW2210AMMW     202209151801W006991              IVSSH 0.35F SB           CCN000002500000002500FN00000000020221001000002500NNE   20220816082306    1W    00000250000000452000000000032G7    JIJAI   000000000000JT528004
BI00B32H2    TAW209M        2022090918007704130              AVSS 1.25F B             CCN000000800000000800FN00000000020220901000000800NNE   20220816082725    1W    00000080000001389000000000032H2    HVYHV   000000000000UI428003
BI00B32H2    @TAW209M       20220909181AD2023ZZ              CIVUSAS-S 0.13X2 B       CCN000002400000002400FN00000000020220901000002400NNE   20220816082724    1W    00000060000001031100000000032H2    HVYHV   000000000000UI428001
BI00B32H2    @TAW209M       20220909181AD2024ZZ              CIVUSAS-S 0.13X3 B       CCN000002500000002500FN00000000020220901000002500NNE   20220816082724    1W    00000050000001297300000000032H2    HVYHV   000000000000UI428002
BI00B32H2    TAW210F        20220909180D0203950              AVSSH 0.5F R             CCN000001500000001500FN00000000020221001000001500NNE   20220816082727    1W    00000150000000689000000000032H2    HVYHV   000000000000UF428003
BI00B32H2    @TAW210F       20220909181AD2001ZZ              CIVUSAS-S 0.35X1 B       CCN000001650000001650FN00000000020221001000001650NNE   20220816082726    1W    00000055000001540800000000032H2    HVYHV   000000000000UF428001
BI00B32H2    @TAW210F       20220909181AD2003ZZ              CIVUSAS-S 0.35X3 B       CCN000002450000002450FN00000000020221001000002450NNE   20220816082726    1W    00000035000002172100000000032H2    HVYHV   000000000000UF428002
BI00B32H2    TAW210G        20220916180D0203960              AVSSH 0.5F G             CCN000001500000001500FN00000000020221001000001500NNE   20220816082729    1W    00000150000000689000000000032H2    HVYHV   000000000000UJ528003
BI00B32H2    @TAW210G       20220916181B32102S1              AVSSCS 0.5FX2 DGY        CCN000002100000002100FN00000000020221001000002100NNE   20220816082726    1W    00000030000002903000000000032H2    HVYHV   000000000000UJ528002
BI00B32H2    @TAW210G       20220916181AD2008ZZ              CIVUSAS-S 0.5X2 B        CCN000002000000002000FN00000000020221001000002000NNE   20220816082726    1W    00000040000002028000000000032H2    HVYHV   000000000000UJ528001
BI00B32H2    TAW210H        2022100718007704160              AVSS 1.25F G             CCN000000800000000800FN00000000020221001000000800NNE   20220816082730    1W    00000080000001389000000000032H2    HVYHV   000000000000UK329002
BI00B32H2    TAW210H        2022100718007704190              AVSS 1.25F L             CCN000000800000000800FN00000000020221001000000800NNE   20220816082730    1W    00000080000001389000000000032H2    HVYHV   000000000000UK329003
BI00B32H2    @TAW210H       20221007181F21002ZZ              AVSSHCS-S 0.5FX1 B       CCN000002800000002800FN00000000020221001000002800NNE   20220816082727    1W    00000040000001908400000000032H2    HVYHV   000000000000UK329001
BI00B32Q8    EW2210C MW     2022091418007703770              AVSS 0.3F Y              CCN000044000000044000FN00000000020221001000044000NNE   20220816113658    1W    00000200000000496000000000032Q8    EMEMI   000000000000MU528001
BI00B32Q8    EW2209G MW     20220831180D0203941              AVSSH 0.5F GY            CCN000003000000003000FN00000000020220901000003000NNE   20220816113656    1W    00000150000000689000000000032Q8    EMEMI   000000000000MC328001
BI00B32W4    4500198632     2022083018007704270              AVSS 2F Y                CCN000000500000000500FN00000000020220801000000500NNE   20220816140642W41 1W    00000050000002126400000000032W41   HJYHK-J 000000000000OH328001
BI00B32W4    4500198336     2022090618018404030              CAVS 0.85 B              CCN000009000000009000FN00000000020220901000009000NNE   20220816140644W41 1W    00000100000000965000000000032W41   HJYHK-J 000000000000OO428001
BI00B32W4    4500198336     2022090618018404040              CAVS 0.85 W              CCN000009000000009000FN00000000020220901000009000NNE   20220816140644W41 1W    00000100000000965000000000032W41   HJYHK-J 000000000000OO428010
BI00B32W4    4500198336     2022090618018404041              CAVS 0.85 GY             CCN000018000000018000FN00000000020220901000018000NNE   20220816140644W41 1W    00000100000000965000000000032W41   HJYHK-J 000000000000OO428004
BI00B32W4    4500198336     2022090618018404050              CAVS 0.85 R              CCN000016000000016000FN00000000020220901000016000NNE   20220816140644W41 1W    00000100000000965000000000032W41   HJYHK-J 000000000000OO428007
BI00B32W4    4500198336     2022090618018404051              CAVS 0.85 O              CCN000013000000013000FN00000000020220901000013000NNE   20220816140644W41 1W    00000100000000965000000000032W41   HJYHK-J 000000000000OO428005
BI00B32W4    4500198336     2022090618018404052              CAVS 0.85 P              CCN000006000000006000FN00000000020220901000006000NNE   20220816140644W41 1W    00000100000000965000000000032W41   HJYHK-J 000000000000OO428006
BI00B32W4    4500198336     2022090618018404060              CAVS 0.85 G              CCN000011000000011000FN00000000020220901000011000NNE   20220816140644W41 1W    00000100000000965000000000032W41   HJYHK-J 000000000000OO428003
BI00B32W4    4500198336     2022090618018404070              CAVS 0.85 Y              CCN000010000000010000FN00000000020220901000010000NNE   20220816140644W41 1W    00000100000000965000000000032W41   HJYHK-J 000000000000OO428011
BI00B32W4    4500198336     2022090618018404080              CAVS 0.85 BR             CCN000008000000008000FN00000000020220901000008000NNE   20220816140644W41 1W    00000100000000965000000000032W41   HJYHK-J 000000000000OO428002
BI00B32W4    4500198336     2022090618018404091              CAVS 0.85 SB             CCN000007000000007000FN00000000020220901000007000NNE   20220816140644W41 1W    00000100000000965000000000032W41   HJYHK-J 000000000000OO428008
BI00B32W4    4500198336     2022090618018404092              CAVS 0.85 V              CCN000007000000007000FN00000000020220901000007000NNE   20220816140644W41 1W    00000100000000965000000000032W41   HJYHK-J 000000000000OO428009
BI00B32W4    @4500198424    20220927181D6910239              AVSSHCS 0.5FX2 B/L       CCN000040500000040500FN00000000020220901000040500NNE   20220816140643W4A21W    00000030000002385000000000032W4A2  HJYHK-J 000000000000ON229001
BI00B32W4    @4500198436    20221025181B32116S1              AVSSCS 0.3FX2 DGY        CCN000002100000002100FN00000000020221001000002100NNE   20220816140645W4171W    00000035000002276000000000032W417  HJYHK-J 000000000000OG22A002
BI00B32W4    @4500198436    20221025181B32037Y5              AVSSCS 0.3FX1 DGY/W      CCN000006000000006000FN00000000020221001000006000NNE   20220816140645W4171W    00000050000001780000000000032W417  HJYHK-J 000000000000OG22A001
BI00B32W4    @4500198643    20220920181B09116K3              CAVSAS 0.3X2 GY/P        CCN000001050000001050FN00000000020220901000001050NNE   20220816140644W41 1W    00000035000002254000000000032W41   HJYHK-J 000000000000OR129001
BI00B32BF    TT2210AKMW     2022083018009603937              AVS 0.5 B/Y              CCN000002000000002000FN00000000020221001000002000NNE   20220816113754    1W    00000100000000850000000000032BF    TTTJY   000000000000NR328001
BI00B32G2    @SA2209BJMW    20220831181F21031ZZ              AVSSHCS-S 1.25FX2 B/P    CCN000000600000000600FN00000000020220901000000600NNE   20220816082140    1W    00000020000004267300000000032G2    AISUAI  000000000000IS328001
BI00B32G7    @JW2210A MW    20220915181E48032ZZ              CAVSAS-S 0.3X2 GY/P      CCN000000350000000350FN00000000020221001000000350NNE   20220816082303    1W    00000035000002008700000000032G7    JIJAI   000000000000JS528001
BI00B32G7    JW2210AMMW     202209151801W003940              IVSSH 0.5F W             CCN000001800000001800FN00000000020221001000001800NNE   20220816082306    1W    00000180000000625000000000032G7    JIJAI   000000000000JT528002
BI00B32G7    JW2210AMMW     202209151801W006941              IVSSH 0.35F GY           CCN000002500000002500FN00000000020221001000002500NNE   20220816082306    1W    00000250000000452000000000032G7    JIJAI   000000000000JT528003
BI00B32G7    JW2210AMMW     202209151801W006991              IVSSH 0.35F SB           CCN000002500000002500FN00000000020221001000002500NNE   20220816082306    1W    00000250000000452000000000032G7    JIJAI   000000000000JT528004
BI00B32H2    TAW209M        2022090918007704130              AVSS 1.25F B             CCN000000800000000800FN00000000020220901000000800NNE   20220816082725    1W    00000080000001389000000000032H2    HVYHV   000000000000UI428003
BI00B32H2    @TAW209M       20220909181AD2023ZZ              CIVUSAS-S 0.13X2 B       CCN000002400000002400FN00000000020220901000002400NNE   20220816082724    1W    00000060000001031100000000032H2    HVYHV   000000000000UI428001
BI00B32H2    @TAW209M       20220909181AD2024ZZ              CIVUSAS-S 0.13X3 B       CCN000002500000002500FN00000000020220901000002500NNE   20220816082724    1W    00000050000001297300000000032H2    HVYHV   000000000000UI428002
BI00B32H2    TAW210F        20220909180D0203950              AVSSH 0.5F R             CCN000001500000001500FN00000000020221001000001500NNE   20220816082727    1W    00000150000000689000000000032H2    HVYHV   000000000000UF428003
BI00B32H2    @TAW210F       20220909181AD2001ZZ              CIVUSAS-S 0.35X1 B       CCN000001650000001650FN00000000020221001000001650NNE   20220816082726    1W    00000055000001540800000000032H2    HVYHV   000000000000UF428001
BI00B32H2    @TAW210F       20220909181AD2003ZZ              CIVUSAS-S 0.35X3 B       CCN000002450000002450FN00000000020221001000002450NNE   20220816082726    1W    00000035000002172100000000032H2    HVYHV   000000000000UF428002
BI00B32H2    TAW210G        20220916180D0203960              AVSSH 0.5F G             CCN000001500000001500FN00000000020221001000001500NNE   20220816082729    1W    00000150000000689000000000032H2    HVYHV   000000000000UJ528003
BI00B32H2    @TAW210G       20220916181B32102S1              AVSSCS 0.5FX2 DGY        CCN000002100000002100FN00000000020221001000002100NNE   20220816082726    1W    00000030000002903000000000032H2    HVYHV   000000000000UJ528002
BI00B32H2    @TAW210G       20220916181AD2008ZZ              CIVUSAS-S 0.5X2 B        CCN000002000000002000FN00000000020221001000002000NNE   20220816082726    1W    00000040000002028000000000032H2    HVYHV   000000000000UJ528001
BI00B32H2    TAW210H        2022100718007704160              AVSS 1.25F G             CCN000000800000000800FN00000000020221001000000800NNE   20220816082730    1W    00000080000001389000000000032H2    HVYHV   000000000000UK329002
BI00B32H2    TAW210H        2022100718007704190              AVSS 1.25F L             CCN000000800000000800FN00000000020221001000000800NNE   20220816082730    1W    00000080000001389000000000032H2    HVYHV   000000000000UK329003
BI00B32H2    @TAW210H       20221007181F21002ZZ              AVSSHCS-S 0.5FX1 B       CCN000002800000002800FN00000000020221001000002800NNE   20220816082727    1W    00000040000001908400000000032H2    HVYHV   000000000000UK329001
BI00B32Q8    EW2210C MW     2022091418007703770              AVSS 0.3F Y              CCN000044000000044000FN00000000020221001000044000NNE   20220816113658    1W    00000200000000496000000000032Q8    EMEMI   000000000000MU528001
BI00B32Q8    EW2209G MW     20220831180D0203941              AVSSH 0.5F GY            CCN000003000000003000FN00000000020220901000003000NNE   20220816113656    1W    00000150000000689000000000032Q8    EMEMI   000000000000MC328001
BI00B32W4    4500198632     2022083018007704270              AVSS 2F Y                CCN000000500000000500FN00000000020220801000000500NNE   20220816140642W41 1W    00000050000002126400000000032W41   HJYHK-J 000000000000OH328001
BI00B32W4    4500198336     2022090618018404030              CAVS 0.85 B              CCN000009000000009000FN00000000020220901000009000NNE   20220816140644W41 1W    00000100000000965000000000032W41   HJYHK-J 000000000000OO428001
BI00B32W4    4500198336     2022090618018404040              CAVS 0.85 W              CCN000009000000009000FN00000000020220901000009000NNE   20220816140644W41 1W    00000100000000965000000000032W41   HJYHK-J 000000000000OO428010
BI00B32W4    4500198336     2022090618018404041              CAVS 0.85 GY             CCN000018000000018000FN00000000020220901000018000NNE   20220816140644W41 1W    00000100000000965000000000032W41   HJYHK-J 000000000000OO428004
BI00B32W4    4500198336     2022090618018404050              CAVS 0.85 R              CCN000016000000016000FN00000000020220901000016000NNE   20220816140644W41 1W    00000100000000965000000000032W41   HJYHK-J 000000000000OO428007
BI00B32W4    4500198336     2022090618018404051              CAVS 0.85 O              CCN000013000000013000FN00000000020220901000013000NNE   20220816140644W41 1W    00000100000000965000000000032W41   HJYHK-J 000000000000OO428005
BI00B32W4    4500198336     2022090618018404052              CAVS 0.85 P              CCN000006000000006000FN00000000020220901000006000NNE   20220816140644W41 1W    00000100000000965000000000032W41   HJYHK-J 000000000000OO428006
BI00B32W4    4500198336     2022090618018404060              CAVS 0.85 G              CCN000011000000011000FN00000000020220901000011000NNE   20220816140644W41 1W    00000100000000965000000000032W41   HJYHK-J 000000000000OO428003
BI00B32W4    4500198336     2022090618018404070              CAVS 0.85 Y              CCN000010000000010000FN00000000020220901000010000NNE   20220816140644W41 1W    00000100000000965000000000032W41   HJYHK-J 000000000000OO428011
BI00B32W4    4500198336     2022090618018404080              CAVS 0.85 BR             CCN000008000000008000FN00000000020220901000008000NNE   20220816140644W41 1W    00000100000000965000000000032W41   HJYHK-J 000000000000OO428002
BI00B32W4    4500198336     2022090618018404091              CAVS 0.85 SB             CCN000007000000007000FN00000000020220901000007000NNE   20220816140644W41 1W    00000100000000965000000000032W41   HJYHK-J 000000000000OO428008
BI00B32W4    4500198336     2022090618018404092              CAVS 0.85 V              CCN000007000000007000FN00000000020220901000007000NNE   20220816140644W41 1W    00000100000000965000000000032W41   HJYHK-J 000000000000OO428009
BI00B32W4    @4500198424    20220927181D6910239              AVSSHCS 0.5FX2 B/L       CCN000040500000040500FN00000000020220901000040500NNE   20220816140643W4A21W    00000030000002385000000000032W4A2  HJYHK-J 000000000000ON229001
BI00B32W4    @4500198436    20221025181B32116S1              AVSSCS 0.3FX2 DGY        CCN000002100000002100FN00000000020221001000002100NNE   20220816140645W4171W    00000035000002276000000000032W417  HJYHK-J 000000000000OG22A002
BI00B32W4    @4500198436    20221025181B32037Y5              AVSSCS 0.3FX1 DGY/W      CCN000006000000006000FN00000000020221001000006000NNE   20220816140645W4171W    00000050000001780000000000032W417  HJYHK-J 000000000000OG22A001
BI00B32W4    @4500198643    20220920181B09116K3              CAVSAS 0.3X2 GY/P        CCN000001050000001050FN00000000020220901000001050NNE   20220816140644W41 1W    00000035000002254000000000032W41   HJYHK-J 000000000000OR129001
