BI00B32AF    JTB2103        202209097298-2508-30             HOUSING FEMALE ASS'Y     CCN000003600000003600FN00000000020221001000003600NNMD0020220816122502    4N0N  00000120000000822000001005032AF    HBYHVTB 005500360039
BI00B32B6    A72043         202209307289-5000                HOUSING FEMALE ASS'Y     CCN000009120000000000FY00000000020221201000000000NNMQ0820220816095927B6  1N0N  00000030400000549000000759032B6    AXARNE-M005400370024
BI00B32CC    CTA32121       202209087289-6868-30             SEALED ASSY FEMALE       CCN000040320000040320FN00000000020220801000040320NNE   20220816122502    4N0N  00000252000000839200001119232CC    BIYABCBU005500360039
BI00B32D2    DGTC2240       202208177327-6801-3W             BATTERY FUSE             CCN000001632000001632FN00000000020221001000001632NNM00020220816151804    4N0N  00000009600000928400001143432D2    TGYOT-G 005500360039
BI00B32D2    DGTC2240       202208177327-6806                MULTI FUSE               CCN000001680000001680FN00000000020221001000001680NNM00020220816151804    4N0N  00000056000000851500001063932D2    TGYOT-G 005400370024
BI00B32D2    DGTC2240       202208177327-6809                MULTI FUSE               CCN000005600000005600FN00000000020221001000005600NNM00020220816151804    4N0N  00000056000000849300001061732D2    TGYOT-G 005400370024
BI00B32D2    DGTC2240       202208177327-6930                MULTI FUSE               CCN000001120000001120FN00000000020221001000001120NNM00020220816151804    4N0N  00000056000000848900001031932D2    TGYOT-G 005400370024
BI00B32D2    DGTC2241C      202208117116-5046-02             TERMINAL                 CCN000120000000120000FY00012000020221001000000000NNE00020220816151918    4P0P  00001200000000544800000873532D2    TGYOT-G 006400630017
BI00B32D2    DGTC2241D      202208117295-0785-02             TERMINAL ALUMINIUM       CCN000025500000025500FY00002550020221001000000000NNE00020220816151934    4P0P  00002550000000510000000803632D2    TGYOT-G 006400630015
BI00B32G2    SA2209AHMW     202209077327-6581-3W             BATTERY FUSE             CCN000000072000000072FN00000000020220901000000072NNE   20220816122502    4N0N  00000007200001230000001422532G2    AISUAI  005500360039
BI00B32G2    SA2209B MW     202209077154-7136-30             LOWER COVER              CCN000000180000000180FN00000000020220901000000180NNE   20220816122502    4F0F  00000006000000199000000408032G2    AISUAI  005600390040
BI00B32G2    SA2209B MW     202209077254-5840-30             ENG R/B SUB ASS'Y        CCN000000192000000192FN00000000020220901000000192NNE   20220816122502    4J0J  00000002400000732000000952032G2    AISUAI  005600390040
BI00T32H2    @TIJ210L-I     202210207187-1769                HOUSING FEMALE           CCN000002000000002000FN00000000020221001000002000NNE   20220816141957    3F0F  00000200000001035800001182032H2    HVYHV   005500360039
BI00T32H2    @TIJ210L-I     202210207282-1025                HOUSING SUB ASSEMBLY     CCN000002400000002400FN00000000020221001000002400NNE   20220816141957    3N0N  00000240000001143800001390032H2    HVYHV   005500360039
BI00B32J1    396406         202208157158-3006-90             RUBBER STOPPER           CCN000020000000020000FY00002000020220801000000000NNM00020220816151518    1C0C  00002000000000330600000386032J1    UKYEL-BL002700430014
BI00B32J1    396406         202208157196-1461-02             TERMINAL FEMALE          CCN000360000000360000FY00036000020220801000000000NNM00020220816151518    4P0P  00002400000000386400000671632J1    UKYEL-BL006400630015
BI00B32J1    396406         202208157196-1461-06             TERMINAL FEMALE          CCN000072000000072000FY00007200020220801000000000NNM00020220816151518    4P0P  00002400000000386400000692932J1    UKYEL-BL006400630015
BI00B32J1    396406         202208157196-1462-02             TERMINAL FEMALE          CCN000021000000021000FY00002100020220801000000000NNM00020220816151518    4P0P  00002100000000352800000638032J1    UKYEL-BL006400630015
BI00B32J1    396406         202208157282-6448-40             CONNECTOR                CCN000001600000001600FY00000160020220801000000000NNM00020220816151518    4N0N  00000080000000887000001152732J1    UKYEL-BL005600390040
BI00B32J1    396406         202208157283-1968-30             CONNECTOR                CCN000005400000005400FY00000540020220801000000000NNM00020220816151518    1N0N  00000090000001140000001318332J1    UKYEL-BL005600390040
BI00B32J1    396406         202208157283-5545-10             CONNECTOR                CCN000004800000004800FY00000480020220801000000000NNM00020220816151518    4N0N  00000060000001279000001409232J1    UKYEL-BL005600390040
BI00B32J1    396406         202208157283-5553-10             CONNECTOR                CCN000001000000001000FY00000100020220801000000000NNM00020220816151518    4N0N  00000100000001374000001658032J1    UKYEL-BL005600390040
BI00B32J1    396406         202208157283-6448-40             CONNECTOR                CCN000004500000004500FY00000450020220801000000000NNM00020220816151518    4N0N  00000150000001087000001329032J1    UKYEL-BL005600390040
BI00B32J1    396406         202208157288-5000                HOUSING MALE ASS'Y       CCN000000672000000672FY00000067220220801000000000NNM00020220816151518    1N0N  00000033600000825200001035232J1    UKYEL-BL005400370024
BI00B32J1    396406         202208157289-5000                HOUSING FEMALE ASS'Y     CCN000001520000001520FY00000152020220801000000000NNM00020220816151518    1N0N  00000030400000549000000759032J1    UKYEL-BL005400370024
BI00B32J1    396406         202208157298-1868-80             HOUSING FEMALE ASS'Y     CCN000002400000002400FY00000240020220801000000000NNM00020220816151518    4N0N  00000240000001028600001243532J1    UKYEL-BL005500360039
BI00B32J1    396406         202208157298-1869-30             HOUSING FEMALE ASS'Y     CCN000034800000034800FY00003480020220801000000000NNM00020220816151518    4N0N  00000120000000737000000939832J1    UKYEL-BL005500360039
BI00B32J1    396406         202208157298-2278-30             HOUSING FEMALE ASS'Y     CCN000026400000026400FY00002640020220801000000000NNM00020220816151518    4N0N  00000240000001091700001295432J1    UKYEL-BL005500360039
BI00B32J1    396406         202208157298-2507-30             HOUSING FEMALE ASS'Y     CCN000007200000007200FY00000720020220801000000000NNM00020220816151518    4N0N  00000120000000713200000914532J1    UKYEL-BL005500360039
BI00B32J1    396406         202208157298-2508-30             HOUSING FEMALE ASS'Y     CCN000002400000002400FY00000240020220801000000000NNM00020220816151518    4N0N  00000120000000822000001005032J1    UKYEL-BL005500360039
BI00B32J1    396406         202208157298-2509-30             HOUSING FEMALE ASS'Y     CCN000006000000006000FY00000600020220801000000000NNM00020220816151518    4N0N  00000120000000857500001062532J1    UKYEL-BL005500360039
BI00B32J1    396406         202208157327-6654-3W             BATTERY FUSE             CCN000000480000000480FY00000048020220801000000000NNM00020220816151518    4N0N  00000009600001132300001312432J1    UKYEL-BL005500360039
BI00B32J1    396623         202208097126-8850-02             TERMINAL                 CCN000027000000027000FY00002700020220801000000000NNM00020220816151627    1P0P  00000900000000672300000957532J1    UKYEL-BL006400630015
BI00B32J1    396623         202208097158-3006-90             RUBBER STOPPER           CCN000100000000100000FY00010000020220801000000000NNM00020220816151627    1C0C  00002000000000330600000386032J1    UKYEL-BL002700430014
BI00B32J1    396623         202208097158-3165-90             WIRE SEAL                CCN000920000000920000FY00092000020220801000000000NNM00020220816151627    1C0C  00004000000000124000000172432J1    UKYEL-BL004300270014
BI00B32J1    396623         202208097196-1461-02             TERMINAL FEMALE          CCN000576000000576000FY00057600020220801000000000NNM00020220816151627    4P0P  00002400000000386400000671632J1    UKYEL-BL006400630015
BI00B32J1    396623         202208097283-5830                CONNECTOR                CCN000018000000018000FY00001800020220801000000000NNM00020220816151627    1N47  00000600000000954000001104032J1    UKYEL-BL005500360039
BI00B32J1    396623         202208097289-5000                HOUSING FEMALE ASS'Y     CCN000002128000002128FY00000212820220801000000000NNM00020220816151627    1N0N  00000030400000549000000759032J1    UKYEL-BL005400370024
BI00B32J1    396623         202208097298-1868-80             HOUSING FEMALE ASS'Y     CCN000007200000007200FY00000720020220801000000000NNM00020220816151627    4N0N  00000240000001028600001243532J1    UKYEL-BL005500360039
BI00B32J1    396623         202208097298-2508-30             HOUSING FEMALE ASS'Y     CCN000004800000004800FY00000480020220801000000000NNM00020220816151627    4N0N  00000120000000822000001005032J1    UKYEL-BL005500360039
BI00A32J1    396623         202208097283-8630                CONNECTOR ASS'Y          CCN000018000000018000FY00001800020220801000000000NNM00020220816151627    4N0N  00000600000000540000000701332J1    UKYEL-BL005400370024
BI00B32J1    #397082        202208297183-7725-40             HOUSING                  CCN000006000000000000FY00000000020220801000000000NNMQ0820220816102146    2F0F  00000600000000840000001040032J1    UKYEL-BL005600390040
BI00B32J1    397332         202209057114-1475                TERMINAL                 CCN000094500000094500FN00000000020220901000094500NNM   20220816122502    4P0P  00001350000000480600000774232J1    UKYEL-BL006400630015
BI00B32J1    397332         202209057114-6041                TERMINAL                 CCN000032400000032400FN00000000020220901000032400NNM   20220816122502    4P0P  00000360000000580700000824232J1    UKYEL-BL006400630015
BI00B32J1    397332         202209057116-1180                TERMINAL                 CCN000019500000019500FN00000000020220901000019500NNM   20220816122502    1P0P  00001950000000618200000903432J1    UKYEL-BL006400630015
BI00B32J1    397332         202209057116-4020                TERMINAL                 CCN000135000000135000FN00000000020220901000135000NNM   20220816122502    4P0P  00001350000000513000000798232J1    UKYEL-BL006400630015
BI00B32J1    397332         202209057116-5045-02             TERMINAL                 CCN000016000000016000FN00000000020220901000016000NNM   20220816122502    4P0P  00001600000000678400001007132J1    UKYEL-BL006400630017
BI00B32J1    397332         202209057158-3166-60             WIRE SEAL                CCN002160000002160000FN00000000020220901002160000NNM   20220816122502    1C0C  00004000000000104000000152432J1    UKYEL-BL002700430014
BI00B32J1    397332         202209057158-3167-61             WIRE SEAL                CCN000180000000180000FN00000000020220901000180000NNM   20220816122502    1C0C  00002000000000048000000096432J1    UKYEL-BL004300270014
BI00B32J1    397332         202209057158-3167-80             WIRE SEAL                CCN002640000002640000FN00000000020220901002640000NNM   20220816122502    1C0C  00002000000000048000000109032J1    UKYEL-BL002700430014
BI00B32J1    397332         202209057158-3168-80             SEALED                   CCN001280000001280000FN00000000020220901001280000NNM   20220816122502    1C0C  00002000000000044000000092132J1    UKYEL-BL004300260014
BI00B32J1    397332         202209057196-1461-02             TERMINAL FEMALE          CCN000384000000384000FN00000000020220901000384000NNM   20220816122502    4P0P  00002400000000386400000671632J1    UKYEL-BL006400630015
BI00B32J1    397332         202209057196-1461-06             TERMINAL FEMALE          CCN000096000000096000FN00000000020220901000096000NNM   20220816122502    4P0P  00002400000000386400000692932J1    UKYEL-BL006400630015
BI00B32J1    397332         202209057196-1462-02             TERMINAL FEMALE          CCN000021000000021000FN00000000020220901000021000NNM   20220816122502    4P0P  00002100000000352800000638032J1    UKYEL-BL006400630015
BI00B32J1    397332         202209057282-5574-10             CONNECTOR                CCN000015200000015200FN00000000020220901000015200NNM   20220816122502    4N0N  00000080000001235000001423032J1    UKYEL-BL005600390040
BI00B32J1    397332         202209057282-5684-10             CONNECTOR                CCN000001200000001200FN00000000020220901000001200NNM   20220816122502    4N0N  00000120000001477000001656032J1    UKYEL-BL005600390040
BI00B32J1    397332         202209057282-6448-40             CONNECTOR                CCN000001600000001600FN00000000020220901000001600NNM   20220816122502    4N0N  00000080000000887000001152732J1    UKYEL-BL005600390040
BI00B32J1    397332         202209057282-6568-40             CONNECTOR                CCN000006000000006000FN00000000020220901000006000NNM   20220816122502    4N0N  00000100000001206000001370732J1    UKYEL-BL005500360039
BI00B32J1    397332         202209057283-1968-30             CONNECTOR                CCN000000900000000900FN00000000020220901000000900NNM   20220816122502    1N0N  00000090000001140000001318332J1    UKYEL-BL005600390040
BI00B32J1    397332         202209057283-5545-10             CONNECTOR                CCN000002400000002400FN00000000020220901000002400NNM   20220816122502    4N0N  00000060000001279000001409232J1    UKYEL-BL005600390040
BI00B32J1    397332         202209057283-5553-10             CONNECTOR                CCN000001000000001000FN00000000020220901000001000NNM   20220816122502    4N0N  00000100000001374000001658032J1    UKYEL-BL005600390040
BI00B32J1    397332         202209057283-5623-30             CONNECTOR                CCN000001600000001600FN00000000020220901000001600NNM   20220816122502    4N0N  00000160000001520000001804032J1    UKYEL-BL005600390040
BI00B32J1    397332         202209057283-5830                CONNECTOR                CCN000012000000012000FN00000000020220901000012000NNM   20220816122502    1N47  00000600000000954000001104032J1    UKYEL-BL005500360039
BI00B32J1    397332         202209057283-5846                HOUSING                  CCN000009000000009000FN00000000020220901000009000NNM   20220816122502    1N0N  00000150000000885000001102032J1    UKYEL-BL005600390040
BI00B32J1    397332         202209057283-6448-40             CONNECTOR                CCN000012000000012000FN00000000020220901000012000NNM   20220816122502    4N0N  00000150000001087000001329032J1    UKYEL-BL005600390040
BI00B32J1    397332         202209057283-8630                CONNECTOR ASS'Y          CCN000042000000042000FN00000000020220901000042000NNM   20220816122502    4N0N  00000600000000540000000701332J1    UKYEL-BL005400370024
BI00B32J1    397332         202209057298-1868-80             HOUSING FEMALE ASS'Y     CCN000002400000002400FN00000000020220901000002400NNM   20220816122502    4N0N  00000240000001028600001243532J1    UKYEL-BL005500360039
BI00B32J1    397332         202209057327-6840-3W             BATTERY FUSE             CCN000000216000000216FN00000000020220901000000216NNM   20220816122502    4N0N  00000007200001140900001355932J1    UKYEL-BL005500360039
BI00B32J1    #397332        202209057047-5344                RETAINER                 CCN000030000000030000FN00000000020220901000030000NNM   20220816122502    2F0F  00001000000000870000001016032J1    UKYEL-BL005600390023
BI00B32J1    #397332        202209057157-3821                RUBBER STOPPER           CCN000200000000200000FN00000000020220901000200000NNM   20220816122502    2C0C  00002000000000176000000238032J1    UKYEL-BL002700430014
BI00B32J1    #397332        202209057158-3003-90             RUBBER STOPPER           CCN000180000000180000FN00000000020220901000180000NNM   20220816122502    2C0C  00002000000000250000000306032J1    UKYEL-BL002700430014
BI00B32J1    #397332        202209057158-3004-40             RUBBER STOPPER           CCN000180000000180000FN00000000020220901000180000NNM   20220816122502    2C0C  00002000000000234000000306332J1    UKYEL-BL002700430014
BI00B32J1    #397332        202209057158-3120-90             CONNECTOR WIRE SEAL      CCN000180000000180000FN00000000020220901000180000NNM   20220816122502    2C0C  00002000000000136000000194032J1    UKYEL-BL002700430014
BI00B32J1    #397332        202209057158-3121-80             WIRE SEAL                CCN000020000000020000FN00000000020220901000020000NNM   20220816122502    2C0C  00002000000000118000000187332J1    UKYEL-BL002700430014
BI00B32J1    #397332        202209057158-3374-90             CONNECTOR WIRE SEAL      CCN000020000000020000FN00000000020220901000020000NNM   20220816122502    2H0H  00002000000000172000000229332J1    UKYEL-BL002700430014
BI00B32J1    #397332        202209057158-3376-50             CONNECTOR WIRE SEAL      CCN000020000000020000FN00000000020220901000020000NNM   20220816122502    2C0C  00002000000000184000000240732J1    UKYEL-BL002700430014
BI00B32J1    #397332        202209057282-3243-40             CONNECTOR                CCN000020800000020800FN00000000020220901000020800NNM   20220816122502    2N0N  00000080000001006000001282332J1    UKYEL-BL005600390040
BI00B32J1    #397332        202209057282-6457-40             CONNECTOR                CCN000000800000000800FN00000000020220901000000800NNM   20220816122502    2N0N  00000080000001137000001421332J1    UKYEL-BL005600390040
BI00B32J1    #397332        202209057283-8397-40             CONNECTOR                CCN000007700000007700FN00000000020220901000007700NNM   20220816122502    2N0N  00000154000001007000001222732J1    UKYEL-BL005600390023
BI00B32N1    NST2122A       202209087196-0396-02             TERMINAL                 CCN000045000000045000FN00000000020221001000045000NNM   20220816122502    4P0P  00001500000000949500001112932N1    TAYIPL  002800510028
BI00B32N1    NST2122A       202209087158-3006-90             RUBBER STOPPER           CCN000140000000140000FN00000000020221001000140000NNM   20220816122502    1C0C  00002000000000330600000386032N1    TAYIPL  002700430014
BI00B32N1    NST2122A       202209087126-8854-02             TERMINAL                 CCN000045000000045000FN00000000020221001000045000NNM   20220816122502    4P0P  00000750000000604500000889732N1    TAYIPL  006400630015
BI00B32N1    NST2122A       202209087126-8852-02             TERMINAL                 CCN000225000000225000FN00000000020221001000225000NNM   20220816122502    1P0P  00000750000000648000000933232N1    TAYIPL  006400630015
BI00B32N1    NST2122A       202209087126-8851-02             TERMINAL                 CCN000450000000450000FN00000000020221001000450000NNM   20220816122502    1P0P  00000900000000739800001025032N1    TAYIPL  006400630015
BI00B32N1    NST2122A       202209087126-8850-02             TERMINAL                 CCN000288000000288000FN00000000020221001000288000NNM   20220816122502    1P0P  00000900000000672300000957532N1    TAYIPL  006400630015
BI00B32N1    NST2122A       202209087116-4114-02             TERMINAL                 CCN000010500000010500FN00000000020221001000010500NNM   20220816122502    4P0P  00001050000000693000000981232N1    TAYIPL  006400630015
BI00B32N1    NST2122A       202209087116-4110-02             TERMINAL                 CCN000045000000045000FN00000000020221001000045000NNM   20220816122502    4P0P  00000900000000594000000882232N1    TAYIPL  006400630015
BI00B32N1    NST2122A       202209087116-4032                TERMINAL                 CCN000036000000036000FN00000000020221001000036000NNM   20220816122502    4P0P  00000600000000532800000818032N1    TAYIPL  006400630015
BI00B32N1    NST2122A       202209087116-4025                TERMINAL                 CCN000016000000016000FN00000000020221001000016000NNM   20220816122502    4P0P  00001600000000644800000975132N1    TAYIPL  006400630017
BI00B32N1    NST2122A       202209087116-4020                TERMINAL                 CCN000472500000472500FN00000000020221001000472500NNM   20220816122502    4P0P  00001350000000513000000798232N1    TAYIPL  006400630015
BI00B32N1    NST2122A       202209087116-3153-02             TERMINAL FEMALE          CCN000027000000027000FN00000000020221001000027000NNM   20220816122502    4P0P  00002700000000459000000744232N1    TAYIPL  006400630015
BI00B32N1    NST2122A       202209087116-2892-02             TERMINAL                 CCN000216000000216000FN00000000020221001000216000NNM   20220816122502    4P0P  00001200000000818400000981832N1    TAYIPL  005100280028
BI00B32N1    NST2122A       202209087116-1301                TERMINAL                 CCN000315000000315000FN00000000020221001000315000NNM   20220816122502    4P0P  00001500000000487500000772732N1    TAYIPL  006400630015
BI00B32N1    NST2122A       202209087114-4729-02             TERMINAL                 CCN000270000000270000FN00000000020221001000270000NNM   20220816122502    4P0P  00003000000000516000000810232N1    TAYIPL  006400630015
BI00B32N1    NST2122A       202209087114-4111-02             TERMINAL                 CCN000060000000060000FN00000000020221001000060000NNM   20220816122502    4P0P  00001200000000758400001087032N1    TAYIPL  006400630017
BI00B32N1    NST2122A       202209087114-4020                TERMINAL                 CCN000231000000231000FN00000000020221001000231000NNM   20220816122502    4P0P  00002100000000875700001169332N1    TAYIPL  006400630015
BI00B32N1    #NST2122A      202209087183-2418-30             CONNECTOR HOUSING        CCN000004800000004800FN00000000020221001000004800NNM   20220816122502    2F0F  00000480000000917000001235332N1    TAYIPL  005500360039
BI00B32N1    #NST2122A      202209087158-3015-10             RUBBER STOPPER           CCN000010000000010000FN00000000020221001000010000NNM   20220816122502    2C0C  00001000000000419500000474032N1    TAYIPL  002700430014
BI00B32N1    #NST2122A      202209087157-3950-80             SEAL RUBBER              CCN000240000000240000FN00000000020221001000240000NNM   20220816122502    2C0C  00004000000000154000000440332N1    TAYIPL  002700430014
BI00B32N1    #NST2122A      202209087157-3790-90             WIRE SEAL                CCN000040000000040000FN00000000020221001000040000NNM   20220816122502    2C0C  00002000000000176000000232732N1    TAYIPL  002700430014
BI00B32N1    #NST2122A      202209087123-1424-40             CONNECTOR HOUSING        CCN000008400000008400FN00000000020221001000008400NNM   20220816122502    2F0F  00000420000000987000001112032N1    TAYIPL  005400370024
BI00B32N1    #NST2122A      202209087116-4021                TERMINAL                 CCN000162000000162000FN00000000020221001000162000NNM   20220816122502    2F0P  00001350000000534600000868832N1    TAYIPL  006400630015
BI00B32N1    #NST2122A      202209087114-4022                TERMINAL                 CCN000015000000015000FN00000000020221001000015000NNM   20220816122502    2F0P  00001500000000708000001120632N1    TAYIPL  006400630015
BI00B32N1    NST2122C       202209087283-6448-40             CONNECTOR                CCN000001500000001500FN00000000020221001000001500NNM   20220816122502    4N0N  00000150000001087000001329032N1    TAYIPL  005600390040
BI00B32N1    NST2122C       202209087283-6388-40             CONNECTOR                CCN000002000000002000FN00000000020221001000002000NNM   20220816122502    4N0N  00000200000001029000001173532N1    TAYIPL  005500360039
BI00B32N1    NST2122C       202209087283-5574-10             CONNECTOR                CCN000001600000001600FN00000000020221001000001600NNM   20220816122502    4N0N  00000080000001235000001435232N1    TAYIPL  005500360039
BI00B32N1    NST2122C       202209087283-1144-30             CONNECTOR                CCN000048000000048000FN00000000020221001000048000NNM   20220816122502    4N0N  00000240000000602200000866132N1    TAYIPL  005500360039
BI00B32N1    NST2122C       202209087283-1144                CONNECTOR                CCN000004800000004800FN00000000020221001000004800NNM   20220816122502    4N0N  00000240000000602200000866132N1    TAYIPL  005500360039
BI00B32N1    NST2122C       202209087282-5574-10             CONNECTOR                CCN000002400000002400FN00000000020221001000002400NNM   20220816122502    4N0N  00000080000001235000001423032N1    TAYIPL  005600390040
BI00B32N1    NST2122C       202209087282-1248-30             HOUSING SUB ASSEMBLY     CCN000004200000004200FN00000000020221001000004200NNM   20220816122502    1N0N  00000060000001167000001372032N1    TAYIPL  005500360039
BI00B32N1    NST2122C       202209087282-1248                HOUSING SUB ASSEMBLY     CCN000010200000010200FN00000000020221001000010200NNM   20220816122502    1N0N  00000060000001167000001372032N1    TAYIPL  005500360039
BI00B32N1    NST2122C       202209087126-8853-02             TERMINAL                 CCN000007500000007500FN00000000020221001000007500NNM   20220816122502    4P0P  00000750000000562500000847732N1    TAYIPL  006400630015
BI00B32N1    NST2122C       202209087116-4124-02             TERMINAL                 CCN000003000000003000FN00000000020221001000003000NNM   20220816122502    4P0P  00000300000000459900000753532N1    TAYIPL  006400630015
BI00B32N1    NST2122C       202209087116-4112-02             TERMINAL                 CCN000048000000048000FN00000000020221001000048000NNM   20220816122502    4P0P  00000600000000450000000738232N1    TAYIPL  006400630015
BI00B32N1    NST2122C       202209087116-4101-02             TERMINAL                 CCN000012000000012000FN00000000020221001000012000NNM   20220816122502    4P0P  00001200000000582000000876232N1    TAYIPL  006400630015
BI00B32N1    NST2122C       202209087116-4100-02             TERMINAL                 CCN000105000000105000FN00000000020221001000105000NNM   20220816122502    4P0P  00001500000000696000000990232N1    TAYIPL  006400630015
BI00B32N1    NST2122C       202209087116-4037                TERMINAL                 CCN000018000000018000FN00000000020221001000018000NNM   20220816122502    4P0P  00000600000000600000000894232N1    TAYIPL  006400630015
BI00B32N1    NST2122C       202209087116-4026                TERMINAL                 CCN000144000000144000FN00000000020221001000144000NNM   20220816122502    4P0P  00001600000000664000000994332N1    TAYIPL  006400630017
BI00B32N1    NST2122C       202209087116-4022                TERMINAL                 CCN000013500000013500FN00000000020221001000013500NNM   20220816122502    4P0P  00001350000000618300000903532N1    TAYIPL  006400630015
BI00B32N1    NST2122C       202209087116-3154-02             TERMINAL FEMALE          CCN000054000000054000FN00000000020221001000054000NNM   20220816122502    4P0P  00002700000000469800000755032N1    TAYIPL  006400630015
BI00B32N1    NST2122C       202209087116-2893-02             TERMINAL                 CCN000192000000192000FN00000000020221001000192000NNM   20220816122502    4P0P  00001200000000895200001058632N1    TAYIPL  005100280028
BI00B32N1    NST2122C       202209087116-2891-02             TERMINAL                 CCN000120000000120000FN00000000020221001000120000NNM   20220816122502    4P0P  00001500000000982500001145932N1    TAYIPL  005100280028
BI00B32N1    NST2122C       202209087116-1685-02             TERMINAL                 CCN000288000000288000FN00000000020221001000288000NNM   20220816122502    4P0P  00002400000000897600001065232N1    TAYIPL  005100280028
BI00B32N1    NST2122C       202209087116-1180                TERMINAL                 CCN000507000000507000FN00000000020221001000507000NNM   20220816122502    1P0P  00001950000000618200000903432N1    TAYIPL  006400630015
BI00B32N1    NST2122C       202209087114-5747-02             TERMINAL                 CCN000018000000018000FN00000000020221001000018000NNM   20220816122502    4P0P  00001800000000626400000920032N1    TAYIPL  006400630015
BI00B32N1    NST2122C       202209087114-5746-02             TERMINAL                 CCN000021000000021000FN00000000020221001000021000NNM   20220816122502    4P0P  00002100000000695100000988732N1    TAYIPL  006400630015
BI00B32N1    NST2122C       202209087114-4112-02             TERMINAL                 CCN000027000000027000FN00000000020221001000027000NNM   20220816122502    4P0P  00000900000000598500000927132N1    TAYIPL  006400630017
BI00B32N1    NST2122C       202209087114-4101-02             TERMINAL                 CCN000030000000030000FN00000000020221001000030000NNM   20220816122502    4P0P  00001500000000675000001003632N1    TAYIPL  006400630017
BI00B32N1    NST2122C       202209087114-4100-02             TERMINAL                 CCN000126000000126000FN00000000020221001000126000NNM   20220816122502    4P0P  00001800000000748800001077432N1    TAYIPL  006400630017
BI00B32N1    NST2122C       202209087114-4032                TERMINAL                 CCN000015000000015000FN00000000020221001000015000NNM   20220816122502    4P0P  00000750000000735000001063632N1    TAYIPL  006400630017
BI00B32N1    NST2122C       202209087114-4021                TERMINAL                 CCN000015000000015000FN00000000020221001000015000NNM   20220816122502    4P0P  00001500000000670500000964132N1    TAYIPL  006400630015
BI00B32N1    NST2122C       202209087017-1180-02             TERMINAL                 CCN000144000000144000FN00000000020221001000144000NNM   20220816122502    4P0P  00007200000001065600001229032N1    TAYIPL  005100280028
BI00B32N1    #NST2122C      202209087283-8226-30             CONNECTOR                CCN000046000000046000FN00000000020221001000046000NNM   20220816122502    2N0N  00000200000000820000001008032N1    TAYIPL  005400370024
BI00B32N1    #NST2122C      202209087283-5831                CONNECTOR                CCN000003000000003000FN00000000020221001000003000NNM   20220816122502    2N0N  00000300000000750000000880032N1    TAYIPL  005400370024
BI00B32N1    #NST2122C      202209087282-4190-30             CONNECTOR                CCN000010560000010560FN00000000020221001000010560NNM   20220816122502    2N0N  00000024000000801000001071332N1    TAYIPL  005600390040
BI00B32N1    #NST2122C      202209087183-7725-40             HOUSING                  CCN000006000000006000FN00000000020221001000006000NNM   20220816122502    2F0F  00000600000000840000001040032N1    TAYIPL  005600390040
BI00B32N1    #NST2122C      202209087158-3120-90             CONNECTOR WIRE SEAL      CCN000080000000080000FN00000000020221001000080000NNM   20220816122502    2C0C  00002000000000136000000194032N1    TAYIPL  002700430014
BI00B32N1    #NST2122C      202209087158-3007-10             RUBBER STOPPER           CCN000020000000020000FN00000000020221001000020000NNM   20220816122502    2H0H  00002000000000308000000362732N1    TAYIPL  002700430014
BI00B32N1    #NST2122C      202209087157-7812                SEAL RUBBER              CCN000010000000010000FN00000000020221001000010000NNM   20220816122502    2C0C  00001000000000137000000202032N1    TAYIPL  002700430014
BI00B32N1    #NST2122C      202209087157-3952-80             RUBBER STOPPER           CCN000010000000010000FN00000000020221001000010000NNM   20220816122502    2C0C  00001000000000117000000175032N1    TAYIPL  002700430014
BI00B32N1    #NST2122C      202209087157-3821                RUBBER STOPPER           CCN000360000000360000FN00000000020221001000360000NNM   20220816122502    2C0C  00002000000000176000000238032N1    TAYIPL  002700430014
BI00B32N1    #NST2122C      202209087157-3646                RUBBER STOPPER           CCN000280000000280000FN00000000020221001000280000NNM   20220816122502    2H0H  00002000000000184000000255232N1    TAYIPL  002700430014
BI00B32N1    @NST2122C      202209087283-5976                CONNECTOR ASS'Y          CCN000004800000004800FN00000000020221001000004800NNM   20220816122502    3N0N  00000480000000840000001083632N1    TAYIPL  005500360039
BI00B32Q8    EU22112 MW     202210057017-1180-02             TERMINAL                 CCN000216000000216000FN00000000020221101000216000NNM   20220816122502    4P0P  00007200000001065600001229032Q8    EMEMI   005100280028
BI00B32Q8    EU22113 MW     202210127017-1180-02             TERMINAL                 CCN000288000000288000FN00000000020221101000288000NNM   20220816122502    4P0P  00007200000001065600001229032Q8    EMEMI   005100280028
BI00B32Q8    EU22114 MW     202210197017-1180-02             TERMINAL                 CCN000216000000216000FN00000000020221101000216000NNM   20220816122502    4P0P  00007200000001065600001229032Q8    EMEMI   005100280028
BI00B32Q8    EU22113 MW     202210127017-1181-02             TERMINAL                 CCN000126000000126000FN00000000020221101000126000NNM   20220816122502    4P0P  00006300000001089900001266832Q8    EMEMI   005100280028
BI00B32Q8    EU22114 MW     202210197017-1181-02             TERMINAL                 CCN000189000000189000FN00000000020221101000189000NNM   20220816122502    4P0P  00006300000001089900001266832Q8    EMEMI   005100280028
BI00B32Q8    EU22112 MW     202210057017-1182-02             TERMINAL                 CCN000090000000090000FN00000000020221101000090000NNM   20220816122502    4P0P  00004500000001165500001318632Q8    EMEMI   005100280028
BI00B32Q8    EU22113 MW     202210127017-1182-02             TERMINAL                 CCN000180000000180000FN00000000020221101000180000NNM   20220816122502    4P0P  00004500000001165500001318632Q8    EMEMI   005100280028
BI00B32Q8    EU22114 MW     202210197017-1182-02             TERMINAL                 CCN000090000000090000FN00000000020221101000090000NNM   20220816122502    4P0P  00004500000001165500001318632Q8    EMEMI   005100280028
BI00B32Q8    EU22112 MW     202210057017-1183-02             TERMINAL                 CCN000027000000027000FN00000000020221101000027000NNM   20220816122502    4P0P  00002700000001139400001307432Q8    EMEMI   005100280028
BI00B32Q8    EU22113 MW     202210127017-1183-02             TERMINAL                 CCN000027000000027000FN00000000020221101000027000NNM   20220816122502    4P0P  00002700000001139400001307432Q8    EMEMI   005100280028
BI00B32Q8    EU22111 MW     202209287114-4020                TERMINAL                 CCN000042000000042000FN00000000020221101000042000NNM   20220816122502    4P0P  00002100000000875700001169332Q8    EMEMI   006400630015
BI00B32Q8    EU22112 MW     202210057114-4020                TERMINAL                 CCN000042000000042000FN00000000020221101000042000NNM   20220816122502    4P0P  00002100000000875700001169332Q8    EMEMI   006400630015
BI00B32Q8    EU22113 MW     202210127114-4020                TERMINAL                 CCN000042000000042000FN00000000020221101000042000NNM   20220816122502    4P0P  00002100000000875700001169332Q8    EMEMI   006400630015
BI00B32Q8    EU22114 MW     202210197114-4020                TERMINAL                 CCN000021000000021000FN00000000020221101000021000NNM   20220816122502    4P0P  00002100000000875700001169332Q8    EMEMI   006400630015
BI00B32Q8    EU22111 MW     202209287114-4021                TERMINAL                 CCN000090000000090000FN00000000020221101000090000NNM   20220816122502    4P0P  00001500000000670500000964132Q8    EMEMI   006400630015
BI00B32Q8    EU22112 MW     202210057114-4021                TERMINAL                 CCN000045000000045000FN00000000020221101000045000NNM   20220816122502    4P0P  00001500000000670500000964132Q8    EMEMI   006400630015
BI00B32Q8    EU22113 MW     202210127114-4021                TERMINAL                 CCN000045000000045000FN00000000020221101000045000NNM   20220816122502    4P0P  00001500000000670500000964132Q8    EMEMI   006400630015
BI00B32Q8    EU22114 MW     202210197114-4021                TERMINAL                 CCN000030000000030000FN00000000020221101000030000NNM   20220816122502    4P0P  00001500000000670500000964132Q8    EMEMI   006400630015
BI00B32Q8    EU22111 MW     202209287114-4031                TERMINAL                 CCN000010500000010500FN00000000020221101000010500NNM   20220816122502    4P0P  00001050000000966000001294632Q8    EMEMI   006400630017
BI00B32Q8    EU22113 MW     202210127114-4031                TERMINAL                 CCN000010500000010500FN00000000020221101000010500NNM   20220816122502    4P0P  00001050000000966000001294632Q8    EMEMI   006400630017
BI00B32Q8    EU22111 MW     202209287114-4032                TERMINAL                 CCN000060000000060000FN00000000020221101000060000NNM   20220816122502    4P0P  00000750000000735000001063632Q8    EMEMI   006400630017
BI00B32Q8    EU22112 MW     202210057114-4032                TERMINAL                 CCN000022500000022500FN00000000020221101000022500NNM   20220816122502    4P0P  00000750000000735000001063632Q8    EMEMI   006400630017
BI00B32Q8    EU22113 MW     202210127114-4032                TERMINAL                 CCN000030000000030000FN00000000020221101000030000NNM   20220816122502    4P0P  00000750000000735000001063632Q8    EMEMI   006400630017
BI00B32Q8    EU22114 MW     202210197114-4032                TERMINAL                 CCN000022500000022500FN00000000020221101000022500NNM   20220816122502    4P0P  00000750000000735000001063632Q8    EMEMI   006400630017
BI00B32Q8    EU22113 MW     202210127114-4100-02             TERMINAL                 CCN000018000000018000FN00000000020221101000018000NNM   20220816122502    4P0P  00001800000000748800001077432Q8    EMEMI   006400630017
BI00B32Q8    EU22114 MW     202210197114-4100-02             TERMINAL                 CCN000036000000036000FN00000000020221101000036000NNM   20220816122502    4P0P  00001800000000748800001077432Q8    EMEMI   006400630017
BI00B32Q8    EU22113 MW     202210127114-4110-02             TERMINAL                 CCN000015000000015000FN00000000020221101000015000NNM   20220816122502    4P0P  00001500000000901500001230132Q8    EMEMI   006400630017
BI00B32Q8    EU22114 MW     202210197114-4110-02             TERMINAL                 CCN000015000000015000FN00000000020221101000015000NNM   20220816122502    4P0P  00001500000000901500001230132Q8    EMEMI   006400630017
BI00B32Q8    EU22114 MW     202210197114-4111-02             TERMINAL                 CCN000024000000024000FN00000000020221101000024000NNM   20220816122502    4P0P  00001200000000758400001087032Q8    EMEMI   006400630017
BI00B32Q8    EU22114 MW     202210197114-4112-02             TERMINAL                 CCN000009000000009000FN00000000020221101000009000NNM   20220816122502    4P0P  00000900000000598500000927132Q8    EMEMI   006400630017
BI00B32Q8    EU22112 MW     202210057114-4415-02             TERMINAL MALE            CCN000027000000027000FN00000000020221101000027000NNM   20220816122502    4P0P  00002700000000429300000717532Q8    EMEMI   006400630015
BI00B32Q8    EU22113 MW     202210127114-4415-02             TERMINAL MALE            CCN000027000000027000FN00000000020221101000027000NNM   20220816122502    4P0P  00002700000000429300000717532Q8    EMEMI   006400630015
BI00B32Q8    EU22113 MW     202210127114-4416-02             TERMINAL MALE            CCN000081000000081000FN00000000020221101000081000NNM   20220816122502    4P0P  00002700000000442800000731032Q8    EMEMI   006400630015
BI00B32Q8    EU22112 MW     202210057114-4729-02             TERMINAL                 CCN000030000000030000FN00000000020221101000030000NNM   20220816122502    4P0P  00003000000000516000000810232Q8    EMEMI   006400630015
BI00B32Q8    EU22113 MW     202210127114-4729-02             TERMINAL                 CCN000150000000150000FN00000000020221101000150000NNM   20220816122502    4P0P  00003000000000516000000810232Q8    EMEMI   006400630015
BI00B32Q8    EU22114 MW     202210197114-4729-02             TERMINAL                 CCN000090000000090000FN00000000020221101000090000NNM   20220816122502    4P0P  00003000000000516000000810232Q8    EMEMI   006400630015
BI00B32Q8    EU22112 MW     202210057114-5747-02             TERMINAL                 CCN000054000000054000FN00000000020221101000054000NNM   20220816122502    4P0P  00001800000000626400000920032Q8    EMEMI   006400630015
BI00B32Q8    EU22113 MW     202210127114-5747-02             TERMINAL                 CCN000054000000054000FN00000000020221101000054000NNM   20220816122502    4P0P  00001800000000626400000920032Q8    EMEMI   006400630015
BI00B32Q8    EU22114 MW     202210197114-5747-02             TERMINAL                 CCN000018000000018000FN00000000020221101000018000NNM   20220816122502    4P0P  00001800000000626400000920032Q8    EMEMI   006400630015
BI00B32Q8    EU22114 MW     202210197114-5748-02             TERMINAL                 CCN000036000000036000FN00000000020221101000036000NNM   20220816122502    4P0P  00001200000000444000000737632Q8    EMEMI   006400630015
BI00B32Q8    EU22111 MW     202209287114-6041                TERMINAL                 CCN000010800000010800FN00000000020221101000010800NNM   20220816122502    4P0P  00000360000000580700000824232Q8    EMEMI   006400630015
BI00B32Q8    EU22112 MW     202210057114-6041                TERMINAL                 CCN000003600000003600FN00000000020221101000003600NNM   20220816122502    4P0P  00000360000000580700000824232Q8    EMEMI   006400630015
BI00B32Q8    EU22113 MW     202210127114-6041                TERMINAL                 CCN000003600000003600FN00000000020221101000003600NNM   20220816122502    4P0P  00000360000000580700000824232Q8    EMEMI   006400630015
BI00B32Q8    EU22111 MW     202209287116-1180                TERMINAL                 CCN000019500000019500FN00000000020221101000019500NNM   20220816122502    1P0P  00001950000000618200000903432Q8    EMEMI   006400630015
BI00B32Q8    EU22112 MW     202210057116-1685-02             TERMINAL                 CCN000024000000024000FN00000000020221101000024000NNM   20220816122502    4P0P  00002400000000897600001065232Q8    EMEMI   005100280028
BI00B32Q8    EU22113 MW     202210127116-1685-02             TERMINAL                 CCN000024000000024000FN00000000020221101000024000NNM   20220816122502    4P0P  00002400000000897600001065232Q8    EMEMI   005100280028
BI00B32Q8    EU22114 MW     202210197116-1685-02             TERMINAL                 CCN000024000000024000FN00000000020221101000024000NNM   20220816122502    4P0P  00002400000000897600001065232Q8    EMEMI   005100280028
BI00B32Q8    EU22111 MW     202209287116-1686-02             TERMINAL                 CCN000021000000021000FN00000000020221101000021000NNM   20220816122502    4P0P  00002100000000869400001021632Q8    EMEMI   005100280028
BI00B32Q8    EU22113 MW     202210127116-1686-02             TERMINAL                 CCN000021000000021000FN00000000020221101000021000NNM   20220816122502    4P0P  00002100000000869400001021632Q8    EMEMI   005100280028
BI00B32Q8    EU22114 MW     202210197116-2891-02             TERMINAL                 CCN000045000000045000FN00000000020221101000045000NNM   20220816122502    4P0P  00001500000000982500001145932Q8    EMEMI   005100280028
BI00B32Q8    EU22111 MW     202209287116-2892-02             TERMINAL                 CCN000048000000048000FN00000000020221101000048000NNM   20220816122502    4P0P  00001200000000818400000981832Q8    EMEMI   005100280028
BI00B32Q8    EU22112 MW     202210057116-2892-02             TERMINAL                 CCN000060000000060000FN00000000020221101000060000NNM   20220816122502    4P0P  00001200000000818400000981832Q8    EMEMI   005100280028
BI00B32Q8    EU22113 MW     202210127116-2892-02             TERMINAL                 CCN000072000000072000FN00000000020221101000072000NNM   20220816122502    4P0P  00001200000000818400000981832Q8    EMEMI   005100280028
BI00B32Q8    EU22114 MW     202210197116-2892-02             TERMINAL                 CCN000036000000036000FN00000000020221101000036000NNM   20220816122502    4P0P  00001200000000818400000981832Q8    EMEMI   005100280028
BI00B32Q8    EU22112 MW     202210057116-2893-02             TERMINAL                 CCN000144000000144000FN00000000020221101000144000NNM   20220816122502    4P0P  00001200000000895200001058632Q8    EMEMI   005100280028
BI00B32Q8    EU22113 MW     202210127116-2893-02             TERMINAL                 CCN000192000000192000FN00000000020221101000192000NNM   20220816122502    4P0P  00001200000000895200001058632Q8    EMEMI   005100280028
BI00B32Q8    EU22114 MW     202210197116-2893-02             TERMINAL                 CCN000108000000108000FN00000000020221101000108000NNM   20220816122502    4P0P  00001200000000895200001058632Q8    EMEMI   005100280028
BI00B32Q8    EU22114 MW     202210197116-3154-08             TERMINAL                 CCN000027000000027000FN00000000020221101000027000NNM   20220816122502    4P0P  00002700000000475200000760432Q8    EMEMI   006400630015
BI00B32Q8    EU22112 MW     202210057116-4025                TERMINAL                 CCN000160000000160000FN00000000020221101000160000NNM   20220816122502    4P0P  00001600000000644800000975132Q8    EMEMI   006400630017
BI00B32Q8    EU22113 MW     202210127116-4025                TERMINAL                 CCN000224000000224000FN00000000020221101000224000NNM   20220816122502    4P0P  00001600000000644800000975132Q8    EMEMI   006400630017
BI00B32Q8    EU22114 MW     202210197116-4025                TERMINAL                 CCN000128000000128000FN00000000020221101000128000NNM   20220816122502    4P0P  00001600000000644800000975132Q8    EMEMI   006400630017
BI00B32Q8    EU22111 MW     202209287116-4026                TERMINAL                 CCN000032000000032000FN00000000020221101000032000NNM   20220816122502    4P0P  00001600000000664000000994332Q8    EMEMI   006400630017
BI00B32Q8    EU22112 MW     202210057116-4026                TERMINAL                 CCN000048000000048000FN00000000020221101000048000NNM   20220816122502    4P0P  00001600000000664000000994332Q8    EMEMI   006400630017
BI00B32Q8    EU22113 MW     202210127116-4026                TERMINAL                 CCN000064000000064000FN00000000020221101000064000NNM   20220816122502    4P0P  00001600000000664000000994332Q8    EMEMI   006400630017
BI00B32Q8    EU22114 MW     202210197116-4026                TERMINAL                 CCN000032000000032000FN00000000020221101000032000NNM   20220816122502    4P0P  00001600000000664000000994332Q8    EMEMI   006400630017
BI00B32Q8    EU22113 MW     202210127116-4028-08             TERMINAL FEMALE          CCN000192000000192000FN00000000020221101000192000NNM   20220816122502    4P0P  00001600000000652800000981532Q8    EMEMI   006400630017
BI00B32Q8    EU22114 MW     202210197116-4028-08             TERMINAL FEMALE          CCN000160000000160000FN00000000020221101000160000NNM   20220816122502    4P0P  00001600000000652800000981532Q8    EMEMI   006400630017
BI00B32Q8    EU22113 MW     202210127116-4031                TERMINAL                 CCN000007500000007500FN00000000020221101000007500NNM   20220816122502    4P0P  00000750000000619500000904732Q8    EMEMI   006400630015
BI00B32Q8    EU22112 MW     202210057116-4032                TERMINAL                 CCN000048000000048000FN00000000020221101000048000NNM   20220816122502    4P0P  00000600000000532800000818032Q8    EMEMI   006400630015
BI00B32Q8    EU22113 MW     202210127116-4032                TERMINAL                 CCN000066000000066000FN00000000020221101000066000NNM   20220816122502    4P0P  00000600000000532800000818032Q8    EMEMI   006400630015
BI00B32Q8    EU22114 MW     202210197116-4032                TERMINAL                 CCN000042000000042000FN00000000020221101000042000NNM   20220816122502    4P0P  00000600000000532800000818032Q8    EMEMI   006400630015
BI00B32Q8    EU22112 MW     202210057116-4037                TERMINAL                 CCN000132000000132000FN00000000020221101000132000NNM   20220816122502    4P0P  00000600000000600000000894232Q8    EMEMI   006400630015
BI00B32Q8    EU22113 MW     202210127116-4037                TERMINAL                 CCN000168000000168000FN00000000020221101000168000NNM   20220816122502    4P0P  00000600000000600000000894232Q8    EMEMI   006400630015
BI00B32Q8    EU22114 MW     202210197116-4037                TERMINAL                 CCN000096000000096000FN00000000020221101000096000NNM   20220816122502    4P0P  00000600000000600000000894232Q8    EMEMI   006400630015
BI00B32Q8    EU22112 MW     202210057116-4102-02             TERMINAL                 CCN000012000000012000FN00000000020221101000012000NNM   20220816122502    4P0P  00001200000000553200000841432Q8    EMEMI   006400630015
BI00B32Q8    EU22113 MW     202210127116-4102-02             TERMINAL                 CCN000024000000024000FN00000000020221101000024000NNM   20220816122502    4P0P  00001200000000553200000841432Q8    EMEMI   006400630015
BI00B32Q8    EU22114 MW     202210197116-4102-02             TERMINAL                 CCN000012000000012000FN00000000020221101000012000NNM   20220816122502    4P0P  00001200000000553200000841432Q8    EMEMI   006400630015
BI00B32Q8    EU22111 MW     202209287116-4121-02             TERMINAL                 CCN000009000000009000FN00000000020221101000009000NNM   20220816122502    4P0P  00000450000000618800000912432Q8    EMEMI   006400630015
BI00B32Q8    EU22112 MW     202210057116-4121-02             TERMINAL                 CCN000022500000022500FN00000000020221101000022500NNM   20220816122502    4P0P  00000450000000618800000912432Q8    EMEMI   006400630015
BI00B32Q8    EU22113 MW     202210127116-4121-02             TERMINAL                 CCN000031500000031500FN00000000020221101000031500NNM   20220816122502    4P0P  00000450000000618800000912432Q8    EMEMI   006400630015
BI00B32Q8    EU22114 MW     202210197116-4121-02             TERMINAL                 CCN000018000000018000FN00000000020221101000018000NNM   20220816122502    4P0P  00000450000000618800000912432Q8    EMEMI   006400630015
BI00B32Q8    EU22112 MW     202210057116-4122-02             TERMINAL                 CCN000009000000009000FN00000000020221101000009000NNM   20220816122502    4P0P  00000450000000656600000950232Q8    EMEMI   006400630015
BI00B32Q8    EU22113 MW     202210127116-4122-02             TERMINAL                 CCN000013500000013500FN00000000020221101000013500NNM   20220816122502    4P0P  00000450000000656600000950232Q8    EMEMI   006400630015
BI00B32Q8    EU22114 MW     202210197116-4122-02             TERMINAL                 CCN000004500000004500FN00000000020221101000004500NNM   20220816122502    4P0P  00000450000000656600000950232Q8    EMEMI   006400630015
BI00B32Q8    EU22111 MW     202209287116-4231-02             TERMINAL                 CCN000208000000208000FN00000000020221101000208000NNM   20220816122502    4P0P  00002600000000683800001012532Q8    EMEMI   006400630017
BI00B32Q8    EU22112 MW     202210057116-4231-02             TERMINAL                 CCN000104000000104000FN00000000020221101000104000NNM   20220816122502    4P0P  00002600000000683800001012532Q8    EMEMI   006400630017
BI00B32Q8    EU22113 MW     202210127116-4231-02             TERMINAL                 CCN000078000000078000FN00000000020221101000078000NNM   20220816122502    4P0P  00002600000000683800001012532Q8    EMEMI   006400630017
BI00B32Q8    EU22114 MW     202210197116-4231-02             TERMINAL                 CCN000078000000078000FN00000000020221101000078000NNM   20220816122502    4P0P  00002600000000683800001012532Q8    EMEMI   006400630017
BI00B32Q8    EU22112 MW     202210057116-4415-02             TERMINAL                 CCN000190000000190000FN00000000020221101000190000NNM   20220816122502    4P0P  00003800000000596600000925732Q8    EMEMI   006400630017
BI00B32Q8    EU22113 MW     202210127116-4415-02             TERMINAL                 CCN000228000000228000FN00000000020221101000228000NNM   20220816122502    4P0P  00003800000000596600000925732Q8    EMEMI   006400630017
BI00B32Q8    EU22114 MW     202210197116-4415-02             TERMINAL                 CCN000152000000152000FN00000000020221101000152000NNM   20220816122502    4P0P  00003800000000596600000925732Q8    EMEMI   006400630017
BI00B32Q8    EU22113 MW     202210127116-4416-02             TERMINAL                 CCN000128000000128000FN00000000020221101000128000NNM   20220816122502    4P0P  00003200000000518400000847132Q8    EMEMI   006400630017
BI00B32Q8    EU22114 MW     202210197116-4416-02             TERMINAL                 CCN000128000000128000FN00000000020221101000128000NNM   20220816122502    4P0P  00003200000000518400000847132Q8    EMEMI   006400630017
BI00B32Q8    EU22114 MW     202210197116-5045-02             TERMINAL                 CCN000288000000288000FN00000000020221101000288000NNM   20220816122502    4P0P  00001600000000678400001007132Q8    EMEMI   006400630017
BI00B32Q8    EU22113 MW     202210127116-5751-02             TERMINAL                 CCN000216000000216000FN00000000020221101000216000NNM   20220816122502    4P0P  00001200000000379200000664432Q8    EMEMI   006400630015
BI00B32Q8    EU22114 MW     202210197116-5751-02             TERMINAL                 CCN000168000000168000FN00000000020221101000168000NNM   20220816122502    4P0P  00001200000000379200000664432Q8    EMEMI   006400630015
BI00B32Q8    EU22113 MW     202210127116-6042                TERMINAL                 CCN000054000000054000FN00000000020221101000054000NNM   20220816122502    4P0P  00000300000000523800000856132Q8    EMEMI   006400630015
BI00B32Q8    EU22114 MW     202210197116-6042                TERMINAL                 CCN000042000000042000FN00000000020221101000042000NNM   20220816122502    4P0P  00000300000000523800000856132Q8    EMEMI   006400630015
BI00B32Q8    EU22112 MW     202210057126-8853-02             TERMINAL                 CCN000022500000022500FN00000000020221101000022500NNM   20220816122502    4P0P  00000750000000562500000847732Q8    EMEMI   006400630015
BI00B32Q8    EU22113 MW     202210127126-8853-02             TERMINAL                 CCN000157500000157500FN00000000020221101000157500NNM   20220816122502    4P0P  00000750000000562500000847732Q8    EMEMI   006400630015
BI00B32Q8    EU22114 MW     202210197126-8853-02             TERMINAL                 CCN000097500000097500FN00000000020221101000097500NNM   20220816122502    4P0P  00000750000000562500000847732Q8    EMEMI   006400630015
BI00B32Q8    EU22113 MW     202210127126-8854-02             TERMINAL                 CCN000120000000120000FN00000000020221101000120000NNM   20220816122502    4P0P  00000750000000604500000889732Q8    EMEMI   006400630015
BI00B32Q8    EU22114 MW     202210197126-8854-02             TERMINAL                 CCN000082500000082500FN00000000020221101000082500NNM   20220816122502    4P0P  00000750000000604500000889732Q8    EMEMI   006400630015
BI00B32Q8    EU22111 MW     202209287126-8855-02             TERMINAL                 CCN000078000000078000FN00000000020221101000078000NNM   20220816122502    4P0P  00000600000000510600000795832Q8    EMEMI   006400630015
BI00B32Q8    EU22112 MW     202210057126-8855-02             TERMINAL                 CCN000150000000150000FN00000000020221101000150000NNM   20220816122502    4P0P  00000600000000510600000795832Q8    EMEMI   006400630015
BI00B32Q8    EU22113 MW     202210127126-8855-02             TERMINAL                 CCN000180000000180000FN00000000020221101000180000NNM   20220816122502    4P0P  00000600000000510600000795832Q8    EMEMI   006400630015
BI00B32Q8    EU22114 MW     202210197126-8855-02             TERMINAL                 CCN000108000000108000FN00000000020221101000108000NNM   20220816122502    4P0P  00000600000000510600000795832Q8    EMEMI   006400630015
BI00B32Q8    EU22113 MW     202210127158-3006-90             RUBBER STOPPER           CCN000160000000160000FN00000000020221101000160000NNM   20220816122502    1C0C  00002000000000330600000386032Q8    EMEMI   002700430014
BI00B32Q8    EU22114 MW     202210197158-3006-90             RUBBER STOPPER           CCN000600000000600000FN00000000020221101000600000NNM   20220816122502    1C0C  00002000000000330600000386032Q8    EMEMI   002700430014
BI00B32Q8    EU22113 MW     202210127158-3009-60             RUBBER STOPPER           CCN000280000000280000FN00000000020221101000280000NNM   20220816122502    1C0C  00002000000000338000000386232Q8    EMEMI   002700430014
BI00B32Q8    EU22114 MW     202210197158-3009-60             RUBBER STOPPER           CCN000520000000520000FN00000000020221101000520000NNM   20220816122502    1C0C  00002000000000338000000386232Q8    EMEMI   002700430014
BI00B32Q8    EU22111 MW     202209287158-3070-80             RUBBER STOPPER           CCN000080000000080000FN00000000020221101000080000NNM   20220816122502    1C0C  00004000000000276000000333332Q8    EMEMI   002700430014
BI00B32Q8    EU22112 MW     202210057158-3070-80             RUBBER STOPPER           CCN000040000000040000FN00000000020221101000040000NNM   20220816122502    1C0C  00004000000000276000000333332Q8    EMEMI   002700430014
BI00B32Q8    EU22113 MW     202210127158-3070-80             RUBBER STOPPER           CCN000040000000040000FN00000000020221101000040000NNM   20220816122502    1C0C  00004000000000276000000333332Q8    EMEMI   002700430014
BI00B32Q8    EU22114 MW     202210197158-3070-80             RUBBER STOPPER           CCN000040000000040000FN00000000020221101000040000NNM   20220816122502    1C0C  00004000000000276000000333332Q8    EMEMI   002700430014
BI00B32Q8    EU22112 MW     202210057158-3165-90             WIRE SEAL                CCN000040000000040000FN00000000020221101000040000NNM   20220816122502    1C0C  00004000000000124000000172432Q8    EMEMI   004300270014
BI00B32Q8    EU22114 MW     202210197158-3165-90             WIRE SEAL                CCN000040000000040000FN00000000020221101000040000NNM   20220816122502    1C0C  00004000000000124000000172432Q8    EMEMI   004300270014
BI00B32Q8    EU22112 MW     202210057158-3166-60             WIRE SEAL                CCN001800000001800000FN00000000020221101001800000NNM   20220816122502    1C0C  00004000000000104000000152432Q8    EMEMI   002700430014
BI00B32Q8    EU22113 MW     202210127158-3166-60             WIRE SEAL                CCN002120000002120000FN00000000020221101002120000NNM   20220816122502    1C0C  00004000000000104000000152432Q8    EMEMI   002700430014
BI00B32Q8    EU22114 MW     202210197158-3166-60             WIRE SEAL                CCN001320000001320000FN00000000020221101001320000NNM   20220816122502    1C0C  00004000000000104000000152432Q8    EMEMI   002700430014
BI00B32Q8    EU22112 MW     202210057158-3167-80             WIRE SEAL                CCN000100000000100000FN00000000020221101000100000NNM   20220816122502    1C0C  00002000000000048000000109032Q8    EMEMI   002700430014
BI00B32Q8    EU22113 MW     202210127158-3167-80             WIRE SEAL                CCN000720000000720000FN00000000020221101000720000NNM   20220816122502    1C0C  00002000000000048000000109032Q8    EMEMI   002700430014
BI00B32Q8    EU22114 MW     202210197158-3167-80             WIRE SEAL                CCN000420000000420000FN00000000020221101000420000NNM   20220816122502    1C0C  00002000000000048000000109032Q8    EMEMI   002700430014
BI00B32Q8    EU22111 MW     202209287158-3168-80             SEALED                   CCN000020000000020000FN00000000020221101000020000NNM   20220816122502    1C0C  00002000000000044000000092132Q8    EMEMI   004300260014
BI00B32Q8    EU22112 MW     202210057158-3168-80             SEALED                   CCN000040000000040000FN00000000020221101000040000NNM   20220816122502    1C0C  00002000000000044000000092132Q8    EMEMI   004300260014
BI00B32Q8    EU22113 MW     202210127158-3168-80             SEALED                   CCN000040000000040000FN00000000020221101000040000NNM   20220816122502    1C0C  00002000000000044000000092132Q8    EMEMI   004300260014
BI00B32Q8    EU22114 MW     202210197158-3168-80             SEALED                   CCN000040000000040000FN00000000020221101000040000NNM   20220816122502    1C0C  00002000000000044000000092132Q8    EMEMI   004300260014
BI00B32Q8    EU22111 MW     202209287158-3169-40             SEALING PLUG             CCN000040000000040000FN00000000020221101000040000NNM   20220816122502    1C0C  00004000000000156000000204132Q8    EMEMI   004300260014
BI00B32Q8    EU22112 MW     202210057158-3169-40             SEALING PLUG             CCN000360000000360000FN00000000020221101000360000NNM   20220816122502    1C0C  00004000000000156000000204132Q8    EMEMI   004300260014
BI00B32Q8    EU22113 MW     202210127158-3169-40             SEALING PLUG             CCN000440000000440000FN00000000020221101000440000NNM   20220816122502    1C0C  00004000000000156000000204132Q8    EMEMI   004300260014
BI00B32Q8    EU22114 MW     202210197158-3169-40             SEALING PLUG             CCN000240000000240000FN00000000020221101000240000NNM   20220816122502    1C0C  00004000000000156000000204132Q8    EMEMI   004300260014
BI00B32Q8    EU22111 MW     202209287183-2417-30             CONNECTOR HOUSING        CCN000002400000002400FN00000000020221101000002400NNM   20220816122502    4F0F  00000240000001137600001297932Q8    EMEMI   005500360039
BI00B32Q8    EU22112 MW     202210057183-2417-30             CONNECTOR HOUSING        CCN000002400000002400FN00000000020221101000002400NNM   20220816122502    4F0F  00000240000001137600001297932Q8    EMEMI   005500360039
BI00B32Q8    EU22114 MW     202210197183-2417-30             CONNECTOR HOUSING        CCN000002400000002400FN00000000020221101000002400NNM   20220816122502    4F0F  00000240000001137600001297932Q8    EMEMI   005500360039
BI00B32Q8    EU22113 MW     202210127196-0805-02             TERMINAL FEMALE          CCN000022500000022500FN00000000020221101000022500NNM   20220816122502    4P0P  00002250000000558000000843232Q8    EMEMI   006400630015
BI00B32Q8    EU22114 MW     202210197196-0805-02             TERMINAL FEMALE          CCN000022500000022500FN00000000020221101000022500NNM   20220816122502    4P0P  00002250000000558000000843232Q8    EMEMI   006400630015
BI00B32Q8    EU22111 MW     202209287282-1065                CONNECTOR                CCN000003000000003000FN00000000020221101000003000NNM   20220816122502    1N0N  00000150000000795000001012032Q8    EMEMI   005600390040
BI00B32Q8    EU22112 MW     202210057282-1065                CONNECTOR                CCN000001500000001500FN00000000020221101000001500NNM   20220816122502    1N0N  00000150000000795000001012032Q8    EMEMI   005600390040
BI00B32Q8    EU22113 MW     202210127282-1065                CONNECTOR                CCN000001500000001500FN00000000020221101000001500NNM   20220816122502    1N0N  00000150000000795000001012032Q8    EMEMI   005600390040
BI00B32Q8    EU22114 MW     202210197282-1065                CONNECTOR                CCN000001500000001500FN00000000020221101000001500NNM   20220816122502    1N0N  00000150000000795000001012032Q8    EMEMI   005600390040
BI00B32Q8    EU22112 MW     202210057282-4577                HOUSING MALE ASS'Y       CCN000002400000002400FN00000000020221101000002400NNM   20220816122502    4N0N  00000240000000964800001174832Q8    EMEMI   005500360039
BI00B32Q8    EU22113 MW     202210127282-4577                HOUSING MALE ASS'Y       CCN000009600000009600FN00000000020221101000009600NNM   20220816122502    4N0N  00000240000000964800001174832Q8    EMEMI   005500360039
BI00B32Q8    EU22114 MW     202210197282-4577                HOUSING MALE ASS'Y       CCN000004800000004800FN00000000020221101000004800NNM   20220816122502    4N0N  00000240000000964800001174832Q8    EMEMI   005500360039
BI00B32Q8    EU22111 MW     202209287282-7028-30             CONNECTOR                CCN000004000000004000FN00000000020221101000004000NNM   20220816122502    1N0N  00000200000001124000001212532Q8    EMEMI   005600390040
BI00B32Q8    EU22113 MW     202210127282-7028-30             CONNECTOR                CCN000002000000002000FN00000000020221101000002000NNM   20220816122502    1N0N  00000200000001124000001212532Q8    EMEMI   005600390040
BI00B32Q8    EU22114 MW     202210197282-7028-30             CONNECTOR                CCN000002000000002000FN00000000020221101000002000NNM   20220816122502    1N0N  00000200000001124000001212532Q8    EMEMI   005600390040
BI00B32Q8    EU22111 MW     202209287283-5843                CONNECTOR                CCN000001500000001500FN00000000020221101000001500NNM   20220816122502    1N0N  00000150000000889000001132032Q8    EMEMI   005600390040
BI00B32Q8    EU22113 MW     202210127283-5843                CONNECTOR                CCN000001500000001500FN00000000020221101000001500NNM   20220816122502    1N0N  00000150000000889000001132032Q8    EMEMI   005600390040
BI00B32Q8    EU22111 MW     202209287283-5845                CONNECTOR HOUSING        CCN000006000000006000FN00000000020221101000006000NNM   20220816122502    1N0N  00000600000000444000000606332Q8    EMEMI   005400370024
BI00B32Q8    EU22111 MW     202209287283-6120                CONNECTOR HOUSING        CCN000001500000001500FN00000000020221101000001500NNM   20220816122502    1N0N  00000150000000914000001143032Q8    EMEMI   005600390040
BI00B32Q8    EU22112 MW     202210057283-6120                CONNECTOR HOUSING        CCN000001500000001500FN00000000020221101000001500NNM   20220816122502    1N0N  00000150000000914000001143032Q8    EMEMI   005600390040
BI00B32Q8    EU22113 MW     202210127283-6120                CONNECTOR HOUSING        CCN000001500000001500FN00000000020221101000001500NNM   20220816122502    1N0N  00000150000000914000001143032Q8    EMEMI   005600390040
BI00B32Q8    EU22114 MW     202210197283-6120                CONNECTOR HOUSING        CCN000001500000001500FN00000000020221101000001500NNM   20220816122502    1N0N  00000150000000914000001143032Q8    EMEMI   005600390040
BI00B32Q8    EU22111 MW     202209287283-7062-40             CONNECTOR HOUSING        CCN000001920000002400FN00000000020221101000002400NNM   20220816122502    1N0N  00000060000000500400000645432Q8    EMEMI   005400370024
BI00B32Q8    EU22112 MW     202210057283-7062-40             CONNECTOR HOUSING        CCN000001600000001800FN00000000020221101000001800NNM   20220816122502    1N0N  00000060000000500400000645432Q8    EMEMI   005400370024
BI00B32Q8    EU22113 MW     202210127283-7062-40             CONNECTOR HOUSING        CCN000002240000002400FN00000000020221101000002400NNM   20220816122502    1N0N  00000060000000500400000645432Q8    EMEMI   005400370024
BI00B32Q8    EU22114 MW     202210197283-7062-40             CONNECTOR HOUSING        CCN000001280000001800FN00000000020221101000001800NNM   20220816122502    1N0N  00000060000000500400000645432Q8    EMEMI   005400370024
BI00B32Q8    #EU22111 MW    202209287114-4022                TERMINAL                 CCN000105000000105000FN00000000020221101000105000NNM   20220816122502    2F0P  00001500000000708000001120632Q8    EMEMI   006400630015
BI00B32Q8    #EU22112 MW    202210057114-4022                TERMINAL                 CCN000060000000060000FN00000000020221101000060000NNM   20220816122502    2F0P  00001500000000708000001120632Q8    EMEMI   006400630015
BI00B32Q8    #EU22113 MW    202210127114-4022                TERMINAL                 CCN000075000000075000FN00000000020221101000075000NNM   20220816122502    2F0P  00001500000000708000001120632Q8    EMEMI   006400630015
BI00B32Q8    #EU22114 MW    202210197114-4022                TERMINAL                 CCN000045000000045000FN00000000020221101000045000NNM   20220816122502    2F0P  00001500000000708000001120632Q8    EMEMI   006400630015
BI00B32Q8    #EU22111 MW    202209287123-6347                CONNECTOR HOUSING        CCN000003200000003200FN00000000020221101000003200NNM   20220816122502    2F0F  00000160000000647000000904832Q8    EMEMI   005500360039
BI00B32Q8    #EU22112 MW    202210057123-6347                CONNECTOR HOUSING        CCN000001600000001600FN00000000020221101000001600NNM   20220816122502    2F0F  00000160000000647000000904832Q8    EMEMI   005500360039
BI00B32Q8    #EU22114 MW    202210197123-6347                CONNECTOR HOUSING        CCN000001600000001600FN00000000020221101000001600NNM   20220816122502    2F0F  00000160000000647000000904832Q8    EMEMI   005500360039
BI00B32Q8    #EU22111 MW    202209287123-6423-30             CONNECTOR                CCN000014000000014000FN00000000020221101000014000NNM   20220816122502    2F0F  00000200000001002000001167632Q8    EMEMI   005600390023
BI00B32Q8    #EU22112 MW    202210057123-6423-30             CONNECTOR                CCN000016000000016000FN00000000020221101000016000NNM   20220816122502    2F0F  00000200000001002000001167632Q8    EMEMI   005600390023
BI00B32Q8    #EU22113 MW    202210127123-6423-30             CONNECTOR                CCN000016000000016000FN00000000020221101000016000NNM   20220816122502    2F0F  00000200000001002000001167632Q8    EMEMI   005600390023
BI00B32Q8    #EU22114 MW    202210197123-6423-30             CONNECTOR                CCN000012000000012000FN00000000020221101000012000NNM   20220816122502    2F0F  00000200000001002000001167632Q8    EMEMI   005600390023
BI00B32Q8    #EU22111 MW    202209287157-3950-80             SEAL RUBBER              CCN000040000000040000FN00000000020221101000040000NNM   20220816122502    2C0C  00004000000000154000000440332Q8    EMEMI   002700430014
BI00B32Q8    #EU22113 MW    202210127157-3950-80             SEAL RUBBER              CCN000080000000080000FN00000000020221101000080000NNM   20220816122502    2C0C  00004000000000154000000440332Q8    EMEMI   002700430014
BI00B32Q8    #EU22112 MW    202210057157-3952-80             RUBBER STOPPER           CCN000020000000020000FN00000000020221101000020000NNM   20220816122502    2C0C  00001000000000117000000175032Q8    EMEMI   002700430014
BI00B32Q8    #EU22113 MW    202210127157-3952-80             RUBBER STOPPER           CCN000020000000020000FN00000000020221101000020000NNM   20220816122502    2C0C  00001000000000117000000175032Q8    EMEMI   002700430014
BI00B32Q8    #EU22114 MW    202210197157-3952-80             RUBBER STOPPER           CCN000020000000020000FN00000000020221101000020000NNM   20220816122502    2C0C  00001000000000117000000175032Q8    EMEMI   002700430014
BI00B32Q8    #EU22114 MW    202210197157-6826-80             REAR HOLDER              CCN000015000000015000FN00000000020221101000015000NNM   20220816122502    2F0F  00001500000001234500001394132Q8    EMEMI   005600390040
BI00B32Q8    #EU22112 MW    202210057157-7897-60             SEAL RUBBER              CCN000020000000020000FN00000000020221101000020000NNM   20220816122502    2C0C  00001000000000132000000214732Q8    EMEMI   002700430014
BI00B32Q8    #EU22113 MW    202210127157-7897-60             SEAL RUBBER              CCN000030000000030000FN00000000020221101000030000NNM   20220816122502    2C0C  00001000000000132000000214732Q8    EMEMI   002700430014
BI00B32Q8    #EU22114 MW    202210197157-7897-60             SEAL RUBBER              CCN000020000000020000FN00000000020221101000020000NNM   20220816122502    2C0C  00001000000000132000000214732Q8    EMEMI   002700430014
BI00B32Q8    #EU22113 MW    202210127158-3003-90             RUBBER STOPPER           CCN000500000000500000FN00000000020221101000500000NNM   20220816122502    2C0C  00002000000000250000000306032Q8    EMEMI   002700430014
BI00B32Q8    #EU22114 MW    202210197158-3003-90             RUBBER STOPPER           CCN000400000000400000FN00000000020221101000400000NNM   20220816122502    2C0C  00002000000000250000000306032Q8    EMEMI   002700430014
BI00B32Q8    #EU22113 MW    202210127158-3005-80             RUBBER STOPPER           CCN000020000000020000FN00000000020221101000020000NNM   20220816122502    2H0H  00002000000000210000000268732Q8    EMEMI   002700430014
BI00B32Q8    #EU22114 MW    202210197158-3005-80             RUBBER STOPPER           CCN000100000000100000FN00000000020221101000100000NNM   20220816122502    2H0H  00002000000000210000000268732Q8    EMEMI   002700430014
BI00B32Q8    #EU22114 MW    202210197158-3008-80             RUBBER STOPPER           CCN000080000000080000FN00000000020221101000080000NNM   20220816122502    2C0C  00002000000000288000000343032Q8    EMEMI   004300270014
BI00B32Q8    #EU22111 MW    202209287158-3015-10             RUBBER STOPPER           CCN000030000000030000FN00000000020221101000030000NNM   20220816122502    2C0C  00001000000000419500000474032Q8    EMEMI   002700430014
BI00B32Q8    #EU22112 MW    202210057158-3015-10             RUBBER STOPPER           CCN000080000000080000FN00000000020221101000080000NNM   20220816122502    2C0C  00001000000000419500000474032Q8    EMEMI   002700430014
BI00B32Q8    #EU22113 MW    202210127158-3015-10             RUBBER STOPPER           CCN000110000000110000FN00000000020221101000110000NNM   20220816122502    2C0C  00001000000000419500000474032Q8    EMEMI   002700430014
BI00B32Q8    #EU22114 MW    202210197158-3015-10             RUBBER STOPPER           CCN000060000000060000FN00000000020221101000060000NNM   20220816122502    2C0C  00001000000000419500000474032Q8    EMEMI   002700430014
BI00B32Q8    #EU22113 MW    202210127158-3017                RUBBER STOPPER           CCN000040000000040000FN00000000020221101000040000NNM   20220816122502    2C0C  00001000000000375500000435032Q8    EMEMI   002700430014
BI00B32Q8    #EU22114 MW    202210197158-3017                RUBBER STOPPER           CCN000040000000040000FN00000000020221101000040000NNM   20220816122502    2C0C  00001000000000375500000435032Q8    EMEMI   002700430014
BI00B32Q8    #EU22111 MW    202209287158-3120-90             CONNECTOR WIRE SEAL      CCN000060000000060000FN00000000020221101000060000NNM   20220816122502    2C0C  00002000000000136000000194032Q8    EMEMI   002700430014
BI00B32Q8    #EU22112 MW    202210057158-3120-90             CONNECTOR WIRE SEAL      CCN000160000000160000FN00000000020221101000160000NNM   20220816122502    2C0C  00002000000000136000000194032Q8    EMEMI   002700430014
BI00B32Q8    #EU22113 MW    202210127158-3120-90             CONNECTOR WIRE SEAL      CCN000200000000200000FN00000000020221101000200000NNM   20220816122502    2C0C  00002000000000136000000194032Q8    EMEMI   002700430014
BI00B32Q8    #EU22114 MW    202210197158-3120-90             CONNECTOR WIRE SEAL      CCN000120000000120000FN00000000020221101000120000NNM   20220816122502    2C0C  00002000000000136000000194032Q8    EMEMI   002700430014
BI00B32Q8    #EU22111 MW    202209287158-3121-80             WIRE SEAL                CCN000060000000060000FN00000000020221101000060000NNM   20220816122502    2C0C  00002000000000118000000187332Q8    EMEMI   002700430014
BI00B32Q8    #EU22112 MW    202210057158-3121-80             WIRE SEAL                CCN000020000000020000FN00000000020221101000020000NNM   20220816122502    2C0C  00002000000000118000000187332Q8    EMEMI   002700430014
BI00B32Q8    #EU22113 MW    202210127158-3121-80             WIRE SEAL                CCN000020000000020000FN00000000020221101000020000NNM   20220816122502    2C0C  00002000000000118000000187332Q8    EMEMI   002700430014
BI00B32Q8    #EU22111 MW    202209287183-2412                HOUSING                  CCN000006400000006400FN00000000020221101000006400NNM   20220816122502    2F0F  00000160000001059200001245632Q8    EMEMI   005500360039
BI00B32Q8    #EU22112 MW    202210057183-2412                HOUSING                  CCN000004800000004800FN00000000020221101000004800NNM   20220816122502    2F0F  00000160000001059200001245632Q8    EMEMI   005500360039
BI00B32Q8    #EU22113 MW    202210127183-2412                HOUSING                  CCN000004800000004800FN00000000020221101000004800NNM   20220816122502    2F0F  00000160000001059200001245632Q8    EMEMI   005500360039
BI00B32Q8    #EU22114 MW    202210197183-2412                HOUSING                  CCN000003200000003200FN00000000020221101000003200NNM   20220816122502    2F0F  00000160000001059200001245632Q8    EMEMI   005500360039
BI00B32Q8    #EU22111 MW    202209287183-2412-30             HOUSING                  CCN000004800000004800FN00000000020221101000004800NNM   20220816122502    2F0F  00000160000001059700001059732Q8    EMEMI   005500360039
BI00B32Q8    #EU22112 MW    202210057183-2412-30             HOUSING                  CCN000001600000001600FN00000000020221101000001600NNM   20220816122502    2F0F  00000160000001059700001059732Q8    EMEMI   005500360039
BI00B32Q8    #EU22113 MW    202210127183-2412-30             HOUSING                  CCN000003200000003200FN00000000020221101000003200NNM   20220816122502    2F0F  00000160000001059700001059732Q8    EMEMI   005500360039
BI00B32Q8    #EU22114 MW    202210197183-2412-30             HOUSING                  CCN000001600000001600FN00000000020221101000001600NNM   20220816122502    2F0F  00000160000001059700001059732Q8    EMEMI   005500360039
BI00B32Q8    #EU22112 MW    202210057183-2413                CONNECTOR HOUSING        CCN000004800000004800FN00000000020221101000004800NNM   20220816122502    2F0F  00000480000000478100000760032Q8    EMEMI   005500360039
BI00B32Q8    #EU22114 MW    202210197183-2413                CONNECTOR HOUSING        CCN000004800000004800FN00000000020221101000004800NNM   20220816122502    2F0F  00000480000000478100000760032Q8    EMEMI   005500360039
BI00B32Q8    #EU22111 MW    202209287283-1065                CONNECTOR                CCN000002500000002500FN00000000020221101000002500NNM   20220816122502    2N0N  00000250000001152500001310432Q8    EMEMI   005500360039
BI00B32Q8    #EU22112 MW    202210057283-1065                CONNECTOR                CCN000002500000002500FN00000000020221101000002500NNM   20220816122502    2N0N  00000250000001152500001310432Q8    EMEMI   005500360039
BI00B32Q8    #EU22113 MW    202210127283-1065                CONNECTOR                CCN000002500000002500FN00000000020221101000002500NNM   20220816122502    2N0N  00000250000001152500001310432Q8    EMEMI   005500360039
BI00B32Q8    #EU22111 MW    202209287283-1161                CONNECTOR FEMALE         CCN000004000000004000FN00000000020221101000004000NNM   20220816122502    2N0N  00000100000000602000000711032Q8    EMEMI   005400370024
BI00B32Q8    #EU22112 MW    202210057283-1161                CONNECTOR FEMALE         CCN000002000000002000FN00000000020221101000002000NNM   20220816122502    2N0N  00000100000000602000000711032Q8    EMEMI   005400370024
BI00B32Q8    #EU22113 MW    202210127283-1161                CONNECTOR FEMALE         CCN000002000000002000FN00000000020221101000002000NNM   20220816122502    2N0N  00000100000000602000000711032Q8    EMEMI   005400370024
BI00B32Q8    #EU22111 MW    202209287283-5834-30             CONNECTOR ASS'Y          CCN000012960000012960FN00000000020221101000012960NNM   20220816122502    2N0N  00000324000001296000001853432Q8    EMEMI   005600390040
BI00B32Q8    #EU22112 MW    202210057283-5834-30             CONNECTOR ASS'Y          CCN000003240000003240FN00000000020221101000003240NNM   20220816122502    2N0N  00000324000001296000001853432Q8    EMEMI   005600390040
BI00B32Q8    #EU22113 MW    202210127283-5834-30             CONNECTOR ASS'Y          CCN000006480000006480FN00000000020221101000006480NNM   20220816122502    2N0N  00000324000001296000001853432Q8    EMEMI   005600390040
BI00B32Q8    #EU22114 MW    202210197283-5834-30             CONNECTOR ASS'Y          CCN000003240000003240FN00000000020221101000003240NNM   20220816122502    2N0N  00000324000001296000001853432Q8    EMEMI   005600390040
BI00B32Q8    #EU22111 MW    202209287283-8123                CONNECTOR HOUSING        CCN000004000000004000FN00000000020221101000004000NNM   20220816122502    2N0N  00000400000000380000000531732Q8    EMEMI   005600390023
BI00B32Q8    #EU22114 MW    202210197283-8398-40             CONNECTOR                CCN000001540000001540FN00000000020221101000001540NNM   20220816122502    2N0N  00000154000001007000001171332Q8    EMEMI   005600390023
BI00B32Q8    @EU22111 MW    202209287282-1148                CONNECTOR ASS'Y          CCN000002400000002400FN00000000020221101000002400NNM   20220816122502    3N0N  00000080000001165300001404032Q8    EMEMI   005500360039
BI00B32Q8    @EU22112 MW    202210057282-1148                CONNECTOR ASS'Y          CCN000003200000003200FN00000000020221101000003200NNM   20220816122502    3N0N  00000080000001165300001404032Q8    EMEMI   005500360039
BI00B32Q8    @EU22113 MW    202210127282-1148                CONNECTOR ASS'Y          CCN000002400000002400FN00000000020221101000002400NNM   20220816122502    3N0N  00000080000001165300001404032Q8    EMEMI   005500360039
BI00B32Q8    @EU22114 MW    202210197282-1148                CONNECTOR ASS'Y          CCN000000800000000800FN00000000020221101000000800NNM   20220816122502    3N0N  00000080000001165300001404032Q8    EMEMI   005500360039
BI00B32Q8    @EU22113 MW    202210127283-1223-30             HOUSING SUB ASSEMBLY     CCN000009600000009600FN00000000020221101000009600NNM   20220816122502    3N0N  00000480000000749300000998032Q8    EMEMI   005500360039
BI00B32Q8    @EU22114 MW    202210197283-1223-30             HOUSING SUB ASSEMBLY     CCN000009600000009600FN00000000020221101000009600NNM   20220816122502    3N0N  00000480000000749300000998032Q8    EMEMI   005500360039
BI00B32Q8    EU22111DMW     202209287B72-5540-80             SEALED WIRE SEAL         CCN000040000000040000FN00000000020221101000040000NNM   20220816122502    1C0C  00002000000000186000000234432Q8    EMEMI   004300270014
BI00B32Q8    EU22112DMW     202210057B72-5540-80             SEALED WIRE SEAL         CCN000020000000020000FN00000000020221101000020000NNM   20220816122502    1C0C  00002000000000186000000234432Q8    EMEMI   004300270014
BI00B32Q8    EU22114DMW     202210197B72-5540-80             SEALED WIRE SEAL         CCN000020000000020000FN00000000020221101000020000NNM   20220816122502    1C0C  00002000000000186000000234432Q8    EMEMI   004300270014
BI00B32Q8    EU22111DMW     202209287B74-1849-70             COVER                    CCN000025000000025000FN00000000020221101000025000NNM   20220816122502    1F0F  00002500000000622500000761932Q8    EMEMI   005400370024
BI00B32Q8    EU22112DMW     202210057B74-1849-70             COVER                    CCN000025000000025000FN00000000020221101000025000NNM   20220816122502    1F0F  00002500000000622500000761932Q8    EMEMI   005400370024
BI00B32Q8    EU22114DMW     202210197B74-1849-70             COVER                    CCN000025000000025000FN00000000020221101000025000NNM   20220816122502    1F0F  00002500000000622500000761932Q8    EMEMI   005400370024
BI00B32Q8    EU22111DMW     202209287B96-0805-02             TERMINAL FEMALE          CCN000045000000045000FN00000000020221101000045000NNM   20220816122502    4P0P  00002250000000558000000843232Q8    EMEMI   006400630015
BI00B32Q8    EU22112DMW     202210057B96-0805-02             TERMINAL FEMALE          CCN000022500000022500FN00000000020221101000022500NNM   20220816122502    4P0P  00002250000000558000000843232Q8    EMEMI   006400630015
BI00B32Q8    EU22113DMW     202210127B96-0805-02             TERMINAL FEMALE          CCN000022500000022500FN00000000020221101000022500NNM   20220816122502    4P0P  00002250000000558000000843232Q8    EMEMI   006400630015
BI00B32Q8    EU22111DMW     202209287C89-6868-30             SEALED ASSY FEMALE       CCN000022680000022680FN00000000020221101000022680NNM   20220816122502    4N0N  00000252000000839200001119232Q8    EMEMI   005500360039
BI00B32Q8    EU22112DMW     202210057C89-6868-30             SEALED ASSY FEMALE       CCN000005040000005040FN00000000020221101000005040NNM   20220816122502    4N0N  00000252000000839200001119232Q8    EMEMI   005500360039
BI00B32Q8    EU22113DMW     202210127C89-6868-30             SEALED ASSY FEMALE       CCN000007560000007560FN00000000020221101000007560NNM   20220816122502    4N0N  00000252000000839200001119232Q8    EMEMI   005500360039
BI00B32Q8    EU22114DMW     202210197C89-6868-30             SEALED ASSY FEMALE       CCN000002520000002520FN00000000020221101000002520NNM   20220816122502    4N0N  00000252000000839200001119232Q8    EMEMI   005500360039
BI00B32Q8    EU22111DMW     202209287C98-1145-4W             SQUIB SUB ASS'Y          CCN000020000000020000FN00000000020221101000020000NNM   20220816122502    4N0N  00001000000000787900000944932Q8    EMEMI   005400370024
BI00B32Q8    EU22112DMW     202210057C98-1145-4W             SQUIB SUB ASS'Y          CCN000010000000010000FN00000000020221101000010000NNM   20220816122502    4N0N  00001000000000787900000944932Q8    EMEMI   005400370024
BI00B32Q8    EU22113DMW     202210127C98-1145-4W             SQUIB SUB ASS'Y          CCN000010000000010000FN00000000020221101000010000NNM   20220816122502    4N0N  00001000000000787900000944932Q8    EMEMI   005400370024
BI00B32Q8    EU22111DMW     202209287298-4094-10             HOUSING FEMALE ASS'Y     CCN000003380000003380FN00000000020221101000003380NNM   20220816122502    4N0N  00000338000001097400001358732Q8    EMEMI   005400370024
BI00B32Q8    EU22112DMW     202210057298-4094-10             HOUSING FEMALE ASS'Y     CCN000003380000003380FN00000000020221101000003380NNM   20220816122502    4N0N  00000338000001097400001358732Q8    EMEMI   005400370024
BI00B32Q8    #EU22113DMW    202210127183-8251-40             HOUSING                  CCN000002400000002400FN00000000020221101000002400NNM   20220816122502    2F0F  00000240000000357600000640032Q8    EMEMI   005500360039
BI00B32Q8    #EU22111DMW    202209287186-8851                HOUSING MALE             CCN000004000000004000FN00000000020221101000004000NNM   20220816122502    2F0F  00000100000000782200000906232Q8    EMEMI   005400370024
BI00B32Q8    #EU22112DMW    202210057186-8851                HOUSING MALE             CCN000001000000001000FN00000000020221101000001000NNM   20220816122502    2F0F  00000100000000782200000906232Q8    EMEMI   005400370024
BI00B32Q8    #EU22113DMW    202210127186-8851                HOUSING MALE             CCN000002000000002000FN00000000020221101000002000NNM   20220816122502    2F0F  00000100000000782200000906232Q8    EMEMI   005400370024
BI00B32Q8    #EU22114DMW    202210197186-8851                HOUSING MALE             CCN000001000000001000FN00000000020221101000001000NNM   20220816122502    2F0F  00000100000000782200000906232Q8    EMEMI   005400370024
BI00B32Q8    #EU22112DMW    202210057287-8860                HOUSING FEMALE ASS'Y     CCN000003200000003200FN00000000020221101000003200NNM   20220816122502    2N0N  00000160000000693400000853432Q8    EMEMI   005400370024
BI00B32Q8    #EU22113DMW    202210127287-8860                HOUSING FEMALE ASS'Y     CCN000001600000001600FN00000000020221101000001600NNM   20220816122502    2N0N  00000160000000693400000853432Q8    EMEMI   005400370024
BI00B32Q8    #EU22114DMW    202210197287-8860                HOUSING FEMALE ASS'Y     CCN000001600000001600FN00000000020221101000001600NNM   20220816122502    2N0N  00000160000000693400000853432Q8    EMEMI   005400370024
BI00B32Q8    EU22112NMW     202210057158-3166-10             WIRE SEAL                CCN000080000000080000FN00000000020221101000080000NNM   20220816122502    1C0C  00004000000000096000000144432Q8    EMEMI   004300270014
BI00B32Q8    EU22113NMW     202210127158-3166-10             WIRE SEAL                CCN000080000000080000FN00000000020221101000080000NNM   20220816122502    1C0C  00004000000000096000000144432Q8    EMEMI   004300270014
BI00B32Q8    EU22114NMW     202210197158-3166-10             WIRE SEAL                CCN000080000000080000FN00000000020221101000080000NNM   20220816122502    1C0C  00004000000000096000000144432Q8    EMEMI   004300270014
BI00B32Q8    EU22111NMW     202209287158-3167-61             WIRE SEAL                CCN000040000000040000FN00000000020221101000040000NNM   20220816122502    1C0C  00002000000000048000000096432Q8    EMEMI   004300270014
BI00B32Q8    EU22112NMW     202210057158-3167-61             WIRE SEAL                CCN000120000000120000FN00000000020221101000120000NNM   20220816122502    1C0C  00002000000000048000000096432Q8    EMEMI   004300270014
BI00B32Q8    EU22113NMW     202210127158-3167-61             WIRE SEAL                CCN000140000000140000FN00000000020221101000140000NNM   20220816122502    1C0C  00002000000000048000000096432Q8    EMEMI   004300270014
BI00B32Q8    EU22114NMW     202210197158-3167-61             WIRE SEAL                CCN000080000000080000FN00000000020221101000080000NNM   20220816122502    1C0C  00002000000000048000000096432Q8    EMEMI   004300270014
BI00B32Q8    EU22112NMW     202210057172-1372-10             FRONT HOLDER             CCN000003120000003900FN00000000020221101000003900NNM   20220816122502    4F0F  00000390000000655200000955232Q8    EMEMI   005500360039
BI00B32Q8    EU22113NMW     202210127172-1372-10             FRONT HOLDER             CCN000009360000011700FN00000000020221101000011700NNM   20220816122502    4F0F  00000390000000655200000955232Q8    EMEMI   005500360039
BI00B32Q8    EU22114NMW     202210197172-1372-10             FRONT HOLDER             CCN000009360000011700FN00000000020221101000011700NNM   20220816122502    4F0F  00000390000000655200000955232Q8    EMEMI   005500360039
BI00B32Q8    EU22113NMW     202210127195-1464-02             TERMINAL MALE            CCN000025500000025500FN00000000020221101000025500NNM   20220816122502    4P0P  00002550000000420800000706032Q8    EMEMI   006400630015
BI00B32Q8    EU22114NMW     202210197195-1464-02             TERMINAL MALE            CCN000025500000025500FN00000000020221101000025500NNM   20220816122502    4P0P  00002550000000420800000706032Q8    EMEMI   006400630015
BI00B32Q8    EU22111NMW     202209287195-1465-02             TERMINAL MALE            CCN000021000000021000FN00000000020221101000021000NNM   20220816122502    4P0P  00002100000000359100000644332Q8    EMEMI   006400630015
BI00B32Q8    EU22114NMW     202210197196-1460-02             TERMINAL FEMALE          CCN000114000000114000FN00000000020221101000114000NNM   20220816122502    4P0P  00002850000000444600000729832Q8    EMEMI   006400630015
BI00B32Q8    EU22111NMW     202209287196-1461-02             TERMINAL FEMALE          CCN001248000001248000FN00000000020221101001248000NNM   20220816122502    4P0P  00002400000000386400000671632Q8    EMEMI   006400630015
BI00B32Q8    EU22112NMW     202210057196-1461-02             TERMINAL FEMALE          CCN003408000003408000FN00000000020221101003408000NNM   20220816122502    4P0P  00002400000000386400000671632Q8    EMEMI   006400630015
BI00B32Q8    EU22113NMW     202210127196-1461-02             TERMINAL FEMALE          CCN004056000004056000FN00000000020221101004056000NNM   20220816122502    4P0P  00002400000000386400000671632Q8    EMEMI   006400630015
BI00B32Q8    EU22114NMW     202210197196-1461-02             TERMINAL FEMALE          CCN002496000002496000FN00000000020221101002496000NNM   20220816122502    4P0P  00002400000000386400000671632Q8    EMEMI   006400630015
BI00B32Q8    EU22111NMW     202209287196-1461-06             TERMINAL FEMALE          CCN000024000000024000FN00000000020221101000024000NNM   20220816122502    4P0P  00002400000000386400000692932Q8    EMEMI   006400630015
BI00B32Q8    EU22112NMW     202210057196-1461-06             TERMINAL FEMALE          CCN000192000000192000FN00000000020221101000192000NNM   20220816122502    4P0P  00002400000000386400000692932Q8    EMEMI   006400630015
BI00B32Q8    EU22113NMW     202210127196-1461-06             TERMINAL FEMALE          CCN000240000000240000FN00000000020221101000240000NNM   20220816122502    4P0P  00002400000000386400000692932Q8    EMEMI   006400630015
BI00B32Q8    EU22114NMW     202210197196-1461-06             TERMINAL FEMALE          CCN000120000000120000FN00000000020221101000120000NNM   20220816122502    4P0P  00002400000000386400000692932Q8    EMEMI   006400630015
BI00B32Q8    EU22111NMW     202209287196-1462-02             TERMINAL FEMALE          CCN000021000000021000FN00000000020221101000021000NNM   20220816122502    4P0P  00002100000000352800000638032Q8    EMEMI   006400630015
BI00B32Q8    EU22112NMW     202210057196-1462-02             TERMINAL FEMALE          CCN000168000000168000FN00000000020221101000168000NNM   20220816122502    4P0P  00002100000000352800000638032Q8    EMEMI   006400630015
BI00B32Q8    EU22113NMW     202210127196-1462-02             TERMINAL FEMALE          CCN000210000000210000FN00000000020221101000210000NNM   20220816122502    4P0P  00002100000000352800000638032Q8    EMEMI   006400630015
BI00B32Q8    EU22114NMW     202210197196-1462-02             TERMINAL FEMALE          CCN000126000000126000FN00000000020221101000126000NNM   20220816122502    4P0P  00002100000000352800000638032Q8    EMEMI   006400630015
BI00B32Q8    EU22113NMW     202210127196-1462-06             TERMINAL FEMALE          CCN000021000000021000FN00000000020221101000021000NNM   20220816122502    4P0P  00002100000000352800000659332Q8    EMEMI   006400630015
BI00B32Q8    EU22111NMW     202209287289-4696-30             HOUSING FEMALE ASS'Y     CCN000010000000010000FN00000000020221101000010000NNM   20220816122502    4N0N  00000200000000913400001055432Q8    EMEMI   005400370024
BI00B32Q8    EU22112NMW     202210057289-4696-30             HOUSING FEMALE ASS'Y     CCN000028000000028000FN00000000020221101000028000NNM   20220816122502    4N0N  00000200000000913400001055432Q8    EMEMI   005400370024
BI00B32Q8    EU22113NMW     202210127289-4696-30             HOUSING FEMALE ASS'Y     CCN000034000000034000FN00000000020221101000034000NNM   20220816122502    4N0N  00000200000000913400001055432Q8    EMEMI   005400370024
BI00B32Q8    EU22114NMW     202210197289-4696-30             HOUSING FEMALE ASS'Y     CCN000022000000022000FN00000000020221101000022000NNM   20220816122502    4N0N  00000200000000913400001055432Q8    EMEMI   005400370024
BI00B32Q8    EU22111NMW     202209287289-7615-30             HOUSING FEMALE ASS'Y     CCN000006080000006080FN00000000020221101000006080NNM   20220816122502    4N0N  00000032000000738000000948032Q8    EMEMI   005400370024
BI00B32Q8    EU22112NMW     202210057289-7615-30             HOUSING FEMALE ASS'Y     CCN000009280000009280FN00000000020221101000009280NNM   20220816122502    4N0N  00000032000000738000000948032Q8    EMEMI   005400370024
BI00B32Q8    EU22113NMW     202210127289-7615-30             HOUSING FEMALE ASS'Y     CCN000010880000010880FN00000000020221101000010880NNM   20220816122502    4N0N  00000032000000738000000948032Q8    EMEMI   005400370024
BI00B32Q8    EU22114NMW     202210197289-7615-30             HOUSING FEMALE ASS'Y     CCN000007040000007040FN00000000020221101000007040NNM   20220816122502    4N0N  00000032000000738000000948032Q8    EMEMI   005400370024
BI00B32Q8    EU22111NMW     202209287298-1865-30             HOUSING FEMALE ASS'Y     CCN000016800000016800FN00000000020221101000016800NNM   20220816122502    4N0N  00000240000001003200001204532Q8    EMEMI   005500360039
BI00B32Q8    EU22112NMW     202210057298-1865-30             HOUSING FEMALE ASS'Y     CCN000024000000024000FN00000000020221101000024000NNM   20220816122502    4N0N  00000240000001003200001204532Q8    EMEMI   005500360039
BI00B32Q8    EU22113NMW     202210127298-1865-30             HOUSING FEMALE ASS'Y     CCN000031200000031200FN00000000020221101000031200NNM   20220816122502    4N0N  00000240000001003200001204532Q8    EMEMI   005500360039
BI00B32Q8    EU22114NMW     202210197298-1865-30             HOUSING FEMALE ASS'Y     CCN000016800000016800FN00000000020221101000016800NNM   20220816122502    4N0N  00000240000001003200001204532Q8    EMEMI   005500360039
BI00B32Q8    EU22111NMW     202209287298-1866-40             HOUSING FEMALE ASS'Y     CCN000002400000002400FN00000000020221101000002400NNM   20220816122502    4N0N  00000240000001003000001217932Q8    EMEMI   005500360039
BI00B32Q8    EU22113NMW     202210127298-1866-40             HOUSING FEMALE ASS'Y     CCN000002400000002400FN00000000020221101000002400NNM   20220816122502    4N0N  00000240000001003000001217932Q8    EMEMI   005500360039
BI00B32Q8    EU22111NMW     202209287298-1869-30             HOUSING FEMALE ASS'Y     CCN000001200000001200FN00000000020221101000001200NNM   20220816122502    4N0N  00000120000000737000000939832Q8    EMEMI   005500360039
BI00B32Q8    EU22112NMW     202210057298-1869-30             HOUSING FEMALE ASS'Y     CCN000001200000001200FN00000000020221101000001200NNM   20220816122502    4N0N  00000120000000737000000939832Q8    EMEMI   005500360039
BI00B32Q8    EU22113NMW     202210127298-1869-30             HOUSING FEMALE ASS'Y     CCN000002400000002400FN00000000020221101000002400NNM   20220816122502    4N0N  00000120000000737000000939832Q8    EMEMI   005500360039
BI00B32Q8    EU22114NMW     202210197298-1869-30             HOUSING FEMALE ASS'Y     CCN000001200000001200FN00000000020221101000001200NNM   20220816122502    4N0N  00000120000000737000000939832Q8    EMEMI   005500360039
BI00B32Q8    EU22111NMW     202209287298-2278-30             HOUSING FEMALE ASS'Y     CCN000004800000004800FN00000000020221101000004800NNM   20220816122502    4N0N  00000240000001091700001295432Q8    EMEMI   005500360039
BI00B32Q8    EU22112NMW     202210057298-2278-30             HOUSING FEMALE ASS'Y     CCN000093600000093600FN00000000020221101000093600NNM   20220816122502    4N0N  00000240000001091700001295432Q8    EMEMI   005500360039
BI00B32Q8    EU22113NMW     202210127298-2278-30             HOUSING FEMALE ASS'Y     CCN000112800000112800FN00000000020221101000112800NNM   20220816122502    4N0N  00000240000001091700001295432Q8    EMEMI   005500360039
BI00B32Q8    EU22114NMW     202210197298-2278-30             HOUSING FEMALE ASS'Y     CCN000067200000067200FN00000000020221101000067200NNM   20220816122502    4N0N  00000240000001091700001295432Q8    EMEMI   005500360039
BI00B32Q8    EU22111NMW     202209287298-2279-40             HOUSING FEMALE ASS'Y     CCN000002400000002400FN00000000020221101000002400NNM   20220816122502    4N0N  00000240000001095800001310732Q8    EMEMI   005500360039
BI00B32Q8    EU22113NMW     202210127298-2279-40             HOUSING FEMALE ASS'Y     CCN000002400000002400FN00000000020221101000002400NNM   20220816122502    4N0N  00000240000001095800001310732Q8    EMEMI   005500360039
BI00B32Q8    EU22113NMW     202210127298-2507-30             HOUSING FEMALE ASS'Y     CCN000001200000001200FN00000000020221101000001200NNM   20220816122502    4N0N  00000120000000713200000914532Q8    EMEMI   005500360039
BI00B32Q8    #EU22114NMW    202210197157-3992-90             CONNECTOR SEALED         CCN000040000000040000FN00000000020221101000040000NNM   20220816122502    2C0C  00004000000000300000000363332Q8    EMEMI   002700430014
BI00B32Q8    #EU22111NMW    202209287158-3654-80             WIRE TUBE                CCN000160000000160000FN00000000020221101000160000NNM   20220816122502    2H0H  00004000000000104000000152232Q8    EMEMI   004300270014
BI00B32Q8    #EU22112NMW    202210057158-3654-80             WIRE TUBE                CCN000280000000280000FN00000000020221101000280000NNM   20220816122502    2H0H  00004000000000104000000152232Q8    EMEMI   004300270014
BI00B32Q8    #EU22113NMW    202210127158-3654-80             WIRE TUBE                CCN000280000000280000FN00000000020221101000280000NNM   20220816122502    2H0H  00004000000000104000000152232Q8    EMEMI   004300270014
BI00B32Q8    #EU22114NMW    202210197158-3654-80             WIRE TUBE                CCN000160000000160000FN00000000020221101000160000NNM   20220816122502    2H0H  00004000000000104000000152232Q8    EMEMI   004300270014
BI00B32Q8    #EU22111NMW    202209287182-9631-40             JOINT CONNECTOR          CCN000012000000012000FN00000000020221101000012000NNM   20220816122502    2F0F  00000300000001182000001307432Q8    EMEMI   005400370024
