BI00B1200    2399T52919     202209297289-6547                HOUSING FEMALE ASS'Y     CCN000216000000216000FN00000000020221101000216000NNMD0020220919152312    1N0N  0000024000000115200000136201200    YCYC    005500360039
BI00B1200    2399T52920     202209297289-6547                HOUSING FEMALE ASS'Y     CCN000216000000216000FN00000000020221101000216000NNMD0020220919152331    1N0N  0000024000000115200000136201200    YCYC    005500360039
BI00B1200    2399T52931     202209297289-6547                HOUSING FEMALE ASS'Y     CCN000216000000216000FN00000000020221101000216000NNED0020220919152240    1N0N  0000024000000115200000136201200    YCYC    005500360039
BI00B1200    2399T52932     202209297289-6547                HOUSING FEMALE ASS'Y     CCN000216000000216000FN00000000020221101000216000NNED0020220919152256    1N0N  0000024000000115200000136201200    YCYC    005500360039
BI00B1200    O022K50440     202210277298-1145-4W             SQUIB SUB ASS'Y          CCN000020000000020000FN00000000020221101000020000NNE   20220919122306    4N0N  0000100000000078790000094491200    YCYC    005400370024
BI00B1200    8000T52902     202210207172-5402-30             SEAL RUBBER              CCN000008000000008000FN00000000020221101000008000NNM   20220919122306    1C0C  0000080000000045760000050601200    YCYC    004300270014
BI00B1200    8000T52903     202211107172-5402-30             SEAL RUBBER              CCN000008000000008000FN00000000020221101000008000NNM   20220919122306    1C0C  0000080000000045760000050601200    YCYC    004300270014
BI00B1200    8000T52902     202210207172-5403-30             SEALED PACKING           CCN000008000000008000FN00000000020221101000008000NNM   20220919122306    1C0C  0000040000000065360000070171200    YCYC    004300270014
BI00B1200    8000T52903     202211107172-5403-30             SEALED PACKING           CCN000008000000008000FN00000000020221101000008000NNM   20220919122306    1C0C  0000040000000065360000070171200    YCYC    004300270014
BI00B1200    8000T52903     202211107137-3047-30             UNIT PACKING             CCN000005000000005000FN00000000020221101000005000NNM   20220919122306    1C0C  0000010000000017050000021891200    YCYC    002700430014
BI00B1200    Y022L50075     202211247116-4112-02             TERMINAL                 CCN000204000000204000FN00000000020221201000204000NNE   20220919122306    4P0P  0000060000000045000000073821200    YCYC    006400630015
BI00B1200    Y022L50076     202211247116-4112-02             TERMINAL                 CCN000996000000996000FN00000000020221201000996000NNE   20220919122306    4P0P  0000060000000045000000073821200    YCYC    006400630015
BI00A1200    #MKH2022-123   202209267189-3034-30             HOUSING FEMALE           CCN000001600000001600FN00000000020220901000001600NNE   20220919131201    2F0F  0000016000000097280000119281200    YCYC    005500360039
BI00B1200    CE22-MN-0113   202210067295-0785-02             TERMINAL ALUMINIUM       CCN000025500000025500FN00000000020221001000025500NNE   20220919153702    4P0P  0000255000000051000000080361200    YCYC    006400630015
BI00B32AF    JTB210N        202210077283-8853-30             HOUSING FEMALE ASS'Y     CCN000002400000002400FN00000000020221001000002400NNE   20220919122306    4N0N  00000240000001120600001336032AF    HBYHVTB 005500360039
BI00B32AF    JTB211C        202210077286-4097                CONNECTOR MALE ASS'Y     CCN000001600000001600FN00000000020221101000001600NNE   20220919122306    1N0N  00000160000000768000000978032AF    HBYHVTB 005500360039
BI00B32AF    #JTB211D       202210217186-8851                HOUSING MALE             CCN000002000000002000FN00000000020221101000002000NNE   20220919122306    2F0F  00000100000000782200000906232AF    HBYHVTB 005400370024
BI00B32AF    #JTB211E       202210287287-1671                HOUSING FEMALE ASS'Y     CCN000004000000004000FN00000000020221101000004000NNE   20220919122306    2N0N  00000200000000782600000974632AF    HBYHVTB 005400370024
BI00B32CC    CTA32128       202210287289-6868-30             SEALED ASSY FEMALE       CCN000025200000025200FN00000000020230101000025200NNED0420220919170145    4N0N  00000252000000839200001119232CC    BIYABCBU005500360039
BI00B32EJ    T220915P02     202210207283-5843                CONNECTOR                CCN000030000000000000FY00000000020221001000000000NNEQ0020220919142218EJ  1N0N  00000150000000889000001132032EJ    EJYKBO  005600390040
BI00B32EJ    T220915P02     202211037283-5843                CONNECTOR                CCN000015000000030000FN00000000020221001000030000NNED0420220919142218EJ  1N0N  00000150000000889000001132032EJ    EJYKBO  005600390040
BI00B32GE    #DHTC2250      202211207158-3008-80             RUBBER STOPPER           CCN000120000000120000FN00000000020221201000120000NNMD0420220919144517    2C0C  00002000000000288000000343032GE    GEYKHT  004300270014
BI00B32GE    #DHTC2250      202210207172-5632-10             DUMMY PLUG               CCN000180000000180000FN00000000020221201000180000NNMD0420220919144517    2H0H  00002000000000080400000131832GE    GEYKHT  004300270014
BI00B32G2    SA2210B MW     202210127283-1144                CONNECTOR                CCN000002400000002400FN00000000020221001000002400NNED0420220919131502    4N0N  00000240000000602200000866132G2    AISUAI  005500360039
BI00B32H2    TIJ211K        202210077282-1119-30             HOUSING MALE ASS'Y       CCN000000288000000288FN00000000020221101000000288NNE   20220919141018    4N0N  00000028800000821700001008032H2    HVYHV   005400370024
BI00B32H2    TIJ211K        202210077287-7599-30             HOUSING FEMALE ASS'Y     CCN000001600000001600FN00000000020221101000001600NNE   20220919141018    4N0N  00000160000001236600001445632H2    HVYHV   005500360039
BI00B32H2    TIJ211K        202210077298-4899-70             SEALED HOUSING ASS'Y     CCN000002310000002310FN00000000020221101000002310NNE   20220919141018    4N0N  00000231000000766900001036932H2    HVYHV   005500360039
BI00B32H2    #TIJ211K       202210077183-2418-40             HOUSING FEMALE           CCN000004800000004800FN00000000020221101000004800NNE   20220919141007    2F0F  00000480000000000000000000032H2    HVYHV   000000000000
BI00B32H2    @TIJ211K       202210077282-1025-40             HOUSING SUB ASSEMBLY     CCN000002400000002400FN00000000020221101000002400NNE   20220919141015    3N0N  00000240000001153600001398032H2    HVYHV   005500360039
BI00B32M1    TCV210B        202209297282-4577                HOUSING MALE ASS'Y       CCN000002400000002400FN00000000020221001000002400NNE   20220919122306    4N0N  00000240000000964800001174832M1    VNYEV   005500360039
BI00B32N1    NST2123BCU     202210207282-1248-50             HOUSING SUB ASSEMBLY     CCN000005400000005400FN00000000020221001000005400NNED0620220919132123    1N0N  00000060000001167000001372032N1    TAYIPL  005500360039
BI00B32N1    NST2123A       202209297283-1144-30             CONNECTOR                CCN000091200000028800FN00000000020221101000028800NNMD0420220919131634    4N0N  00000240000000602200000866132N1    TAYIPL  005500360039
BI00B32N1    NST2123A       202210067283-1144-30             CONNECTOR                CCN000031200000031200FN00000000020221101000031200NNMD0420220919131634    4N0N  00000240000000602200000866132N1    TAYIPL  005500360039
BI00B32N1    NST2123A       202210207283-1144-30             CONNECTOR                CCN000031200000031200FN00000000020221101000031200NNMD0420220919131634    4N0N  00000240000000602200000866132N1    TAYIPL  005500360039
BI00B32N1    NST2123ECU     202210067114-1301                TERMINAL                 CCN000019500000019500FN00000000020221101000019500NNE   20220919162247    4P0P  00001950000000614300000907932N1    TAYIPL  006400630015
BI00B32N1    NST2123ECU     202210067114-1470                TERMINAL                 CCN000132000000132000FN00000000020221101000132000NNE   20220919162247    4P0P  00001650000000544500000838732N1    TAYIPL  006400630015
BI00B32N1    NST2123ECU     202210067114-4020                TERMINAL                 CCN000336000000336000FN00000000020221101000336000NNE   20220919162247    4P0P  00002100000000875700001169332N1    TAYIPL  006400630015
BI00B32N1    NST2123ECU     202210067114-4031                TERMINAL                 CCN000178500000178500FN00000000020221101000178500NNE   20220919162247    4P0P  00001050000000966000001294632N1    TAYIPL  006400630017
BI00B32N1    NST2123ECU     202210067114-4415-02             TERMINAL MALE            CCN000054000000054000FN00000000020221101000054000NNE   20220919162247    4P0P  00002700000000429300000717532N1    TAYIPL  006400630015
BI00B32N1    NST2123ECU     202210067114-4416-02             TERMINAL MALE            CCN000054000000054000FN00000000020221101000054000NNE   20220919162247    4P0P  00002700000000442800000731032N1    TAYIPL  006400630015
BI00B32N1    NST2123ECU     202210067116-1180                TERMINAL                 CCN000078000000078000FN00000000020221101000078000NNE   20220919162247    1P0P  00001950000000618200000903432N1    TAYIPL  006400630015
BI00B32N1    NST2123ECU     202210067116-1301                TERMINAL                 CCN000015000000015000FN00000000020221101000015000NNE   20220919162247    4P0P  00001500000000487500000772732N1    TAYIPL  006400630015
BI00B32N1    NST2123ECU     202210067116-1471                TERMINAL                 CCN000060000000060000FN00000000020221101000060000NNE   20220919162247    4P0P  00001500000000579000000867232N1    TAYIPL  006400630015
BI00B32N1    NST2123ECU     202210067116-1685-02             TERMINAL                 CCN000288000000288000FN00000000020221101000288000NNE   20220919162247    4P0P  00002400000000897600001065232N1    TAYIPL  005100280028
BI00B32N1    NST2123ECU     202210067116-2892-02             TERMINAL                 CCN000060000000060000FN00000000020221101000060000NNE   20220919162247    4P0P  00001200000000818400000981832N1    TAYIPL  005100280028
BI00B32N1    NST2123ECU     202210067116-3154-02             TERMINAL FEMALE          CCN001809000001809000FN00000000020221101001809000NNE   20220919162247    4P0P  00002700000000469800000755032N1    TAYIPL  006400630015
BI00B32N1    NST2123ECU     202210067116-4026                TERMINAL                 CCN000016000000016000FN00000000020221101000016000NNE   20220919162247    4P0P  00001600000000664000000994332N1    TAYIPL  006400630017
BI00B32N1    NST2123ECU     202210067116-4121-02             TERMINAL                 CCN000009000000009000FN00000000020221101000009000NNE   20220919162247    4P0P  00000450000000618800000912432N1    TAYIPL  006400630015
BI00B32N1    NST2123ECU     202210067116-4122-02             TERMINAL                 CCN000013500000013500FN00000000020221101000013500NNE   20220919162247    4P0P  00000450000000656600000950232N1    TAYIPL  006400630015
BI00B32N1    NST2123ECU     202210067116-4231-02             TERMINAL                 CCN000104000000104000FN00000000020221101000104000NNE   20220919162247    4P0P  00002600000000683800001012532N1    TAYIPL  006400630017
BI00B32N1    NST2123ECU     202210067116-4415-02             TERMINAL                 CCN001140000001140000FN00000000020221101001140000NNE   20220919162247    4P0P  00003800000000596600000925732N1    TAYIPL  006400630017
BI00B32N1    NST2123ECU     202210067116-4416-02             TERMINAL                 CCN000096000000096000FN00000000020221101000096000NNE   20220919162247    4P0P  00003200000000518400000847132N1    TAYIPL  006400630017
BI00B32N1    NST2123ECU     202210067116-5750-02             TERMINAL                 CCN000015000000015000FN00000000020221101000015000NNE   20220919162247    4P0P  00001500000000457500000742732N1    TAYIPL  006400630015
BI00B32N1    NST2123ECU     202210067158-3006-90             RUBBER STOPPER           CCN000220000000220000FN00000000020221101000220000NNE   20220919162247    1C0C  00002000000000330600000386032N1    TAYIPL  002700430014
BI00B32N1    NST2123ECU     202210067158-3070-80             RUBBER STOPPER           CCN000120000000120000FN00000000020221101000120000NNE   20220919162247    1C0C  00004000000000276000000333332N1    TAYIPL  002700430014
BI00B32N1    NST2123ECU     202210067158-3166-60             WIRE SEAL                CCN001240000001240000FN00000000020221101001240000NNE   20220919162247    1C0C  00004000000000104000000152432N1    TAYIPL  002700430014
BI00B32N1    NST2123ECU     202210067158-3167-80             WIRE SEAL                CCN000460000000460000FN00000000020221101000460000NNE   20220919162247    1C0C  00002000000000048000000109032N1    TAYIPL  002700430014
BI00B32N1    NST2123ECU     202210067158-3168-80             SEALED                   CCN004000000004000000FN00000000020221101004000000NNE   20220919162247    1C0C  00002000000000044000000092132N1    TAYIPL  004300260014
BI00B32N1    NST2123ECU     202210067222-7564-40             CONNECTOR                CCN000003500000003500FN00000000020221101000003500NNE   20220919162247    1N0N  00000050000000967000001097032N1    TAYIPL  005500360039
BI00B32N1    NST2123ECU     202210067283-5845                CONNECTOR HOUSING        CCN000054000000054000FN00000000020221101000054000NNE   20220919162247    1N0N  00000600000000444000000606332N1    TAYIPL  005400370024
BI00B32N1    NST2123ECU     202210067283-7062-40             CONNECTOR HOUSING        CCN000001200000001200FN00000000020221101000001200NNE   20220919162247    1N0N  00000060000000500400000645432N1    TAYIPL  005400370024
BI00B32N1    NST2123ECU     202210067289-6524-30             HOUSING FEMALE ASS'Y     CCN000000480000000480FN00000000020221101000000480NNE   20220919162247    4N0N  00000024000001351200001666232N1    TAYIPL  005500360039
BI00B32N1    NST2123ECU     202210067298-4094-10             HOUSING FEMALE ASS'Y     CCN000006760000006760FN00000000020221101000006760NNE   20220919162247    4N0N  00000338000001097400001358732N1    TAYIPL  005400370024
BI00B32N1    #NST2123ECU    202210067116-4021                TERMINAL                 CCN000297000000297000FN00000000020221101000297000NNE   20220919162245    2F0P  00001350000000534600000868832N1    TAYIPL  006400630015
BI00B32N1    #NST2123ECU    202210067157-3952-80             RUBBER STOPPER           CCN000020000000020000FN00000000020221101000020000NNE   20220919162245    2C0C  00001000000000117000000175032N1    TAYIPL  002700430014
BI00B32N1    #NST2123ECU    202210067157-7812                SEAL RUBBER              CCN000050000000050000FN00000000020221101000050000NNE   20220919162245    2C0C  00001000000000137000000202032N1    TAYIPL  002700430014
BI00B32N1    #NST2123ECU    202210067158-3007-10             RUBBER STOPPER           CCN001100000001100000FN00000000020221101001100000NNE   20220919162245    2H0H  00002000000000308000000362732N1    TAYIPL  002700430014
BI00B32N1    #NST2123ECU    202210067158-3008-80             RUBBER STOPPER           CCN000280000000280000FN00000000020221101000280000NNE   20220919162245    2C0C  00002000000000288000000343032N1    TAYIPL  004300270014
BI00B32N1    #NST2123ECU    202210067183-2418                CONNECTOR HOUSING        CCN000004800000004800FN00000000020221101000004800NNE   20220919162245    2F0F  00000480000000917000001477032N1    TAYIPL  005500360039
BI00B32N1    #NST2123ECU    202210067289-2912-30             HOUSING FEMALE ASS'Y     CCN000046000000046000FN00000000020221101000046000NNE   20220919162245    2N0N  00000200000000804000000929032N1    TAYIPL  005400370024
BI00A32N3    #NBT211 A3     202209217183-2414-30             CONNECTOR HOUSING        CCN000004800000004800FN00000000020221101000004800NNMM0020220919122306    2F0F  00000480000000779500001061532N3    ABYIPL-B005500360039
BI00B32R7    R-TAP220327    202209217158-3169-40             SEALING PLUG             CCN000040000000040000FN00000000020221001000040000NNE00020220919122306    1C0C  00004000000000156000000204132R7    IVYCIC  004300260014
BI00B32R7    R-TAP220374    202209217116-4121-02             TERMINAL                 CCN000009000000009000FN00000000020221001000009000NNE00020220919122306    4P0P  00000450000000618800000912432R7    IVYCIC  006400630015
BI00B32R7    R-TAP220375    202209217116-4121-02             TERMINAL                 CCN000031500000031500FN00000000020221001000031500NNE00020220919122306    4P0P  00000450000000618800000912432R7    IVYCIC  006400630015
BI00A32R7    R-TAP220412    202210067282-5574-10             CONNECTOR                CCN000024000000024000FN00000000020221001000024000NNED0720220919153127    4N0N  00000080000001235000001423032R7    IVYCIC  005600390040
BI00B32R7    R-TAP220413    202210207282-5574-10             CONNECTOR                CCN000024000000024000FN00000000020221001000024000NNED0420220919122306    4N0N  00000080000001235000001423032R7    IVYCIC  005600390040
BI00B32R8    TT23011AMW     202211227116-1685-02             TERMINAL                 CCN000024000000024000FN00000000020230101000024000NNM   20220919122306    4P0P  00002400000000897600001065232R8    TTTJY   005100280028
BI00B32R8    TT23011AMW     202211227126-8853-02             TERMINAL                 CCN000007500000007500FN00000000020230101000007500NNM   20220919122306    4P0P  00000750000000562500000847732R8    TTTJY   006400630015
BI00B32R8    TT23011AMW     202211227158-3006-90             RUBBER STOPPER           CCN000040000000040000FN00000000020230101000040000NNM   20220919122306    1C0C  00002000000000330600000386032R8    TTTJY   002700430014
BI00B32R8    TT23011AMW     202211227283-1289-10             CONNECTOR HOUSING        CCN000000600000000600FN00000000020230101000000600NNM   20220919122306    1N0N  00000060000000676200000821232R8    TTTJY   005400370024
BI00B32R8    @TT23011AMW    202211227282-1064-30             CONNECTOR ASS'Y          CCN000000800000000800FN00000000020230101000000800NNM   20220919122306    3N0N  00000080000000907300001140132R8    TTTJY   005500360039
BI00A32U9    #TPA244        202209267282-6446-40             CONNECTOR                CCN000012000000012000FN00000000020221201000012000NNMM0020220919141410U9  2N0N  00000150000001185000001368032U9    YNYNA-E 005500360039
BI00A32U9    #TPA245        202209267282-6446-40             CONNECTOR                CCN000012000000012000FN00000000020221201000012000NNMM0020220919141421U9  2N0N  00000150000001185000001368032U9    YNYNA-E 005500360039
BI00B32U9    TP0420S        202211107298-1149-3W             SQUIB SUB ASS'Y          CCN000010000000010000FN00000000020221201000010000NNE   20220919131330U9  4N0N  00001000000000785000000922032U9    YNYNA-E 005400370024
BI00B32U9    TP0420S        202211107283-9457-3W             CONNECTOR                CCN000000600000000600FN00000000020221201000000600NNE   20220919131330U9  4N0N  00000012000000515000001067032U9    YNYNA-E 005600390023
BI00B32U9    TP0420S        202211107283-9458-30             CONNECTOR                CCN000000800000000800FN00000000020221201000000800NNE   20220919131330U9  4N0N  00000020000000792000000984332U9    YNYNA-E 005600390023
BI00B32U9    TP0420S        202211107126-8850-02             TERMINAL                 CCN000009000000009000FN00000000020221201000009000NNE   20220919131330U9  1P0P  00000900000000672300000957532U9    YNYNA-E 006400630015
BI00B32U9    TP0420S        202211107283-5623-60             CONNECTOR                CCN000001600000001600FN00000000020221201000001600NNE   20220919131330U9  1N0N  00000160000001546000001846332U9    YNYNA-E 005600390040
BI00B32U9    TP0420S        202211107298-1187-30             SHUNT RING ASSEMBLY      CCN000010000000010000FN00000000020221201000010000NNE   20220919131330U9  4N0N  00001000000000647000000769532U9    YNYNA-E 005400370024
BI00B32U9    TP0420S        202211107298-1186-40             SQUIB SUB ASS'Y          CCN000210000000210000FN00000000020221201000210000NNE   20220919131330U9  4N0N  00001000000000650000000774532U9    YNYNA-E 005400370024
BI00B32U9    TP0420S        202211107298-1186-70             SQUIB SUB ASS'Y          CCN000010000000010000FN00000000020221201000010000NNE   20220919131330U9  4N0N  00001000000000650000000774532U9    YNYNA-E 005400370024
BI00B32U9    #TP0420S       202211107282-3042-90             CONNECTOR                CCN000009000000009000FN00000000020221201000009000NNE   20220919131328U9  2N0N  00000090000001418000001584032U9    YNYNA-E 005500360039
BI00B32U9    TPA246         202211107114-4032                TERMINAL                 CCN000015000000015000FN00000000020221201000015000NNM   20220919131846U9  4P0P  00000750000000735000001063632U9    YNYNA-E 006400630017
BI00B32U9    TPA246         202211107114-4231-02             TERMINAL                 CCN000072000000072000FN00000000020221201000072000NNM   20220919131846U9  4P0P  00001800000000554400000848032U9    YNYNA-E 006400630015
BI00B32U9    TPA246         202211107116-2951-02             TERMINAL                 CCN000108000000108000FN00000000020221201000108000NNM   20220919131846U9  4P0P  00000540000000817600001111832U9    YNYNA-E 006400630015
BI00B32U9    TPA246         202211107116-4060-02             TERMINAL                 CCN000024000000024000FN00000000020221201000024000NNM   20220919131846U9  1P0P  00002400000000511200000984232U9    YNYNA-E 006400630017
BI00B32U9    TPA246         202211107116-4231-02             TERMINAL                 CCN000286000000286000FN00000000020221201000286000NNM   20220919131846U9  4P0P  00002600000000683800001012532U9    YNYNA-E 006400630017
BI00B32U9    TPA246         202211107158-3165-90             WIRE SEAL                CCN000120000000120000FN00000000020221201000120000NNM   20220919131846U9  1C0C  00004000000000124000000172432U9    YNYNA-E 004300270014
BI00B32U9    TPA246         202211107158-3166-60             WIRE SEAL                CCN000520000000520000FN00000000020221201000520000NNM   20220919131846U9  1C0C  00004000000000104000000152432U9    YNYNA-E 002700430014
BI00B32U9    TPA246         202211107158-3167-80             WIRE SEAL                CCN000680000000680000FN00000000020221201000680000NNM   20220919131846U9  1C0C  00002000000000048000000109032U9    YNYNA-E 002700430014
BI00B32U9    TPA246         202211107158-3168-80             SEALED                   CCN000200000000200000FN00000000020221201000200000NNM   20220919131846U9  1C0C  00002000000000044000000092132U9    YNYNA-E 004300260014
BI00B32U9    TPA246         202211107158-3169-40             SEALING PLUG             CCN000360000000360000FN00000000020221201000360000NNM   20220919131846U9  1C0C  00004000000000156000000204132U9    YNYNA-E 004300260014
BI00B32U9    TPA246         202211107174-1849-70             COVER                    CCN000025000000025000FN00000000020221201000025000NNM   20220919131846U9  1F0F  00002500000000622500000761932U9    YNYNA-E 005400370024
BI00B32U9    TPA246         202211107195-0546-08             TERMINAL MALE            CCN000025500000025500FN00000000020221201000025500NNM   20220919131846U9  4P0P  00002550000000405500000693732U9    YNYNA-E 006400630015
BI00B32U9    TPA246         202211107282-5574-10             CONNECTOR                CCN000060000000060000FN00000000020221201000060000NNM   20220919131846U9  4N0N  00000080000001235000001423032U9    YNYNA-E 005600390040
BI00B32U9    TPA246         202211107282-5684-10             CONNECTOR                CCN000001200000001200FN00000000020221201000001200NNM   20220919131846U9  4N0N  00000120000001477000001656032U9    YNYNA-E 005600390040
BI00B32U9    TPA246         202211107283-5623-60             CONNECTOR                CCN000006400000006400FN00000000020221201000006400NNM   20220919131846U9  1N0N  00000160000001546000001846332U9    YNYNA-E 005600390040
BI00B32U9    TPA246         202211107289-4212-80             SEALED HOUSING ASS'Y     CCN000002000000002000FN00000000020221201000002000NNM   20220919131846U9  4N0N  00000200000000848600000978632U9    YNYNA-E 005400370024
BI00B32U9    TPA246         202211107289-6868-30             SEALED ASSY FEMALE       CCN000020160000020160FN00000000020221201000020160NNM   20220919131846U9  4N0N  00000252000000839200001119232U9    YNYNA-E 005500360039
BI00B32U9    TPA246         202211107289-7615-30             HOUSING FEMALE ASS'Y     CCN000003200000003200FN00000000020221201000003200NNM   20220919131846U9  4N0N  00000032000000738000000948032U9    YNYNA-E 005400370024
BI00B32U9    TPA246         202211107298-1186-40             SQUIB SUB ASS'Y          CCN000050000000050000FN00000000020221201000050000NNM   20220919131846U9  4N0N  00001000000000650000000774532U9    YNYNA-E 005400370024
BI00B32U9    TPA246         202211107298-1186-70             SQUIB SUB ASS'Y          CCN000010000000010000FN00000000020221201000010000NNM   20220919131846U9  4N0N  00001000000000650000000774532U9    YNYNA-E 005400370024
BI00B32U9    TPA246         202211107298-1187-30             SHUNT RING ASSEMBLY      CCN000010000000010000FN00000000020221201000010000NNM   20220919131846U9  4N0N  00001000000000647000000769532U9    YNYNA-E 005400370024
BI00B32U9    TPA246         202211107298-1149-3W             SQUIB SUB ASS'Y          CCN000010000000010000FN00000000020221201000010000NNM   20220919131846U9  4N0N  00001000000000785000000922032U9    YNYNA-E 005400370024
BI00B32U9    TPA246         202211107B58-3070-80             RUBBER STOPPER           CCN000080000000080000FN00000000020221201000080000NNM   20220919131846U9  1C0C  00004000000000276000000333032U9    YNYNA-E 004300270014
BI00B32U9    #TPA246        202211107147-9094                RETAINER                 CCN000012000000012000FN00000000020221201000012000NNM   20220919131836U9  2F0F  00000300000000717000000872932U9    YNYNA-E 005500360039
BI00B32U9    #TPA246        202211107157-3646                RUBBER STOPPER           CCN000100000000100000FN00000000020221201000100000NNM   20220919131836U9  2H0H  00002000000000184000000255232U9    YNYNA-E 002700430014
BI00B32U9    #TPA246        202211107158-3003-90             RUBBER STOPPER           CCN000020000000020000FN00000000020221201000020000NNM   20220919131836U9  2C0C  00002000000000250000000306032U9    YNYNA-E 002700430014
BI00B32U9    #TPA246        202211107282-6446-40             CONNECTOR                CCN000012000000012000FN00000000020221201000012000NNM   20220919131836U9  2N0N  00000150000001185000001368032U9    YNYNA-E 005500360039
BI00B32U9    #TPA246        202211107282-6457-40             CONNECTOR                CCN000004000000004000FN00000000020221201000004000NNM   20220919131836U9  2N0N  00000080000001137000001421332U9    YNYNA-E 005600390040
BI00B32U9    #TPA246        202211107282-8395-40             CONNECTOR                CCN000022000000022000FN00000000020221201000022000NNM   20220919131836U9  2N0N  00000100000001009000001188032U9    YNYNA-E 005500360039
BI00B32U9    #TPA246        202211107283-8397-40             CONNECTOR                CCN000004620000004620FN00000000020221201000004620NNM   20220919131836U9  2N0N  00000154000001007000001222732U9    YNYNA-E 005600390023
BI00B32W2    HN2210BWMW     202210047B72-5540-80             SEALED WIRE SEAL         CCN000020000000020000FN00000000020221001000020000NNE   20220919122306    1C0C  00002000000000186000000234432W2    HNHNY   004300270014
BI00B32W2    HN2210BWMW     202210047116-4026                TERMINAL                 CCN000016000000016000FN00000000020221001000016000NNE   20220919122306    4P0P  00001600000000664000000994332W2    HNHNY   006400630017
BI00B32W2    HN2210BWMW     202210047116-4416-02             TERMINAL                 CCN000032000000032000FN00000000020221001000032000NNE   20220919122306    4P0P  00003200000000518400000847132W2    HNHNY   006400630017
BI00B32W2    HN2210BWMW     202210047158-3167-80             WIRE SEAL                CCN000020000000020000FN00000000020221001000020000NNE   20220919122306    1C0C  00002000000000048000000109032W2    HNHNY   002700430014
BI00B32W2    HN2210BWMW     202210047388-0317-60             CONNECTOR ASS'Y          CCN000002400000002400FN00000000020221001000002400NNE   20220919122306    4N0N  00000120000001034400001129332W2    HNHNY   005400370024
BI00B32W2    HN2210CNMW     202210047114-4031                TERMINAL                 CCN000010500000010500FN00000000020221001000010500NNE   20220919122306    4P0P  00001050000000966000001294632W2    HNHNY   006400630017
BI00B32W2    HN2210CNMW     202210047114-4032                TERMINAL                 CCN000015000000015000FN00000000020221001000015000NNE   20220919122306    4P0P  00000750000000735000001063632W2    HNHNY   006400630017
BI00B32W2    HN2210CNMW     202210047116-1180                TERMINAL                 CCN000039000000039000FN00000000020221001000039000NNE   20220919122306    1P0P  00001950000000618200000903432W2    HNHNY   006400630015
BI00B32W2    HN2210CNMW     202210047116-1471                TERMINAL                 CCN000015000000015000FN00000000020221001000015000NNE   20220919122306    4P0P  00001500000000579000000867232W2    HNHNY   006400630015
BI00B32W2    HN2210CNMW     202210047116-1473                TERMINAL                 CCN000121500000121500FN00000000020221001000121500NNE   20220919122306    4P0P  00001350000000523800000809032W2    HNHNY   006400630015
BI00B32W2    HN2210CNMW     202210047116-4020                TERMINAL                 CCN000405000000405000FN00000000020221001000405000NNE   20220919122306    4P0P  00001350000000513000000798232W2    HNHNY   006400630015
BI00B32W2    HN2210CNMW     202210047116-4025                TERMINAL                 CCN000032000000032000FN00000000020221001000032000NNE   20220919122306    4P0P  00001600000000644800000975132W2    HNHNY   006400630017
BI00B32W2    HN2210CNMW     202210047116-4031                TERMINAL                 CCN000015000000015000FN00000000020221001000015000NNE   20220919122306    4P0P  00000750000000619500000904732W2    HNHNY   006400630015
BI00B32W2    HN2210CNMW     202210047116-4032                TERMINAL                 CCN000006000000006000FN00000000020221001000006000NNE   20220919122306    4P0P  00000600000000532800000818032W2    HNHNY   006400630015
BI00B32W2    HN2210CNMW     202210047116-4416-02             TERMINAL                 CCN000032000000032000FN00000000020221001000032000NNE   20220919122306    4P0P  00003200000000518400000847132W2    HNHNY   006400630017
BI00B32W2    HN2210CNMW     202210047116-6041                TERMINAL                 CCN000009000000009000FN00000000020221001000009000NNE   20220919122306    4P0P  00000450000000716000001009632W2    HNHNY   006400630015
BI00B32W2    HN2210CNMW     202210047158-3022-80             RUBBER STOPPER           CCN000005000000005000FN00000000020221001000005000NNE   20220919122306    1C0C  00000500000000467500000524032W2    HNHNY   002700430014
BI00B32W2    HN2210CNMW     202210047283-7062-40             CONNECTOR HOUSING        CCN000003000000003000FN00000000020221001000003000NNE   20220919122306    1N0N  00000060000000500400000645432W2    HNHNY   005400370024
BI00B32W2    #HN2210CNMW    202210047116-4021                TERMINAL                 CCN000081000000081000FN00000000020221001000081000NNE   20220919122306    2F0P  00001350000000534600000868832W2    HNHNY   006400630015
BI00B32W2    #HN2210CNMW    202210047157-7812                SEAL RUBBER              CCN000010000000010000FN00000000020221001000010000NNE   20220919122306    2C0C  00001000000000137000000202032W2    HNHNY   002700430014
BI00B32W2    #HN2210CNMW    202210047183-1616                CONNECTOR HOUSING        CCN000002400000002400FN00000000020221001000002400NNE   20220919122306    2F0F  00000240000000557500000823332W2    HNHNY   005500360039
BI00B32W2    #HN2210CNMW    202210047187-3356                JOINT CONNECTOR          CCN000016800000016800FN00000000020221001000016800NNE   20220919122306    2F0F  00000120000000759600001024432W2    HNHNY   005600390040
BI00B32W2    #HN2210CNMW    202210047187-3357-40             JOINT CONNECTOR          CCN000003600000003600FN00000000020221001000003600NNE   20220919122306    2F0F  00000120000000762000001029232W2    HNHNY   005600390040
BI00B32W2    #HN2210CNMW    202210047187-3358-30             JOINT CONNECTOR          CCN000003600000003600FN00000000020221001000003600NNE   20220919122306    2F0F  00000120000000673200000940432W2    HNHNY   005600390040
BI00B32W2    #HN2210CNMW    202210047187-3359-60             JOINT CONNECTOR          CCN000008400000008400FN00000000020221001000008400NNE   20220919122306    2F0F  00000120000000763200001030432W2    HNHNY   005600390040
BI00B32W2    #HN2210CNMW    202210047187-3360                JOINT CONNECTOR          CCN000003600000003600FN00000000020221001000003600NNE   20220919122306    2F0F  00000120000000759600001026832W2    HNHNY   005600390040
BI00B32W2    #HN2210CNMW    202210047282-1150-50             CONNECTOR MALE ASS'Y     CCN000000600000000600FN00000000020221001000000600NNE   20220919122306    2N0N  00000060000000688800000800032W2    HNHNY   005400370024
BI00B32W2    #HN2210CNMW    202210047282-1210                CONNECTOR MALE ASS'Y     CCN000001000000001000FN00000000020221001000001000NNE   20220919122306    2N0N  00000100000000336000000458532W2    HNHNY   005400370024
BI00B32W2    #HN2210CNMW    202210047283-1161-40             CONNECTOR FEMALE         CCN000001000000001000FN00000000020221001000001000NNE   20220919122306    2N0N  00000100000000602000000711032W2    HNHNY   005400370024
BI00B32W2    #HN2210CNMW    202210047283-4861                CONNECTOR                CCN000003000000003000FN00000000020221001000003000NNE   20220919122306    2N0N  00000150000001200000001359932W2    HNHNY   005500360039
BI00B32W2    #HN2210CNMW    202210047283-5833                CONNECTOR HOUSING        CCN000003640000003640FN00000000020221001000003640NNE   20220919122306    2N0N  00000364000001378000001686732W2    HNHNY   005500360039
BI00B32W2    #HN2210CNMW    202210047289-2274-60             JOINT CONNECTOR          CCN000002400000002400FN00000000020221001000002400NNE   20220919122306    2N0N  00000120000000682800000949932W2    HNHNY   005600390040
BI00B32W2    @HN2210CNMW    202210047282-1064-40             CONNECTOR ASS'Y          CCN000002400000002400FN00000000020221001000002400NNE   20220919122306    3N0N  00000080000000910400001136232W2    HNHNY   005500360039
BI00B32W2    @HN2210CNMW    202210047283-1100                CONNECTOR ASS'Y          CCN000001600000001600FN00000000020221001000001600NNE   20220919122306    3N0N  00000160000000566500000799632W2    HNHNY   005500360039
BI00B32W2    @HN2210CNMW    202210047283-1100-30             CONNECTOR ASS'Y          CCN000008000000008000FN00000000020221001000008000NNE   20220919122306    3N0N  00000160000000561600000803032W2    HNHNY   005500360039
BI00B32W2    @HN2210CNMW    202210047283-1100-60             CONNECTOR ASS'Y          CCN000004800000004800FN00000000020221001000004800NNE   20220919122306    3N0N  00000160000000567500000801432W2    HNHNY   005500360039
BI00B32W2    @HN2210CNMW    202210047283-1100-90             CONNECTOR ASS'Y          CCN000006400000006400FN00000000020221001000006400NNE   20220919122306    3N0N  00000160000000564800000806832W2    HNHNY   005500360039
BI00A32W4    #4500200650    202211037282-2090-30             CONNECTOR MALE ASS'Y     CCN000002400000002400FN00000000020221101000002400NNE   20220919122306W44 2N0N  00000240000000794000001073032W44   HJYHK   005500360039
BI00B32W4    4500200660     202211107116-2951-02             TERMINAL                 CCN000016200000016200FN00000000020221101000016200NNE   20220919122306W4284P0P  00000540000000817600001111832W428  HJYHK   006400630015
BI00B32W4    #4500200660    202211107283-8397-40             CONNECTOR                CCN000004620000004620FN00000000020221101000004620NNE   20220919122306W4282N0N  00000154000001007000001222732W428  HJYHK   005600390023
BI00B32W4    #4500200660    202211107158-3374-90             CONNECTOR WIRE SEAL      CCN000040000000040000FN00000000020221101000040000NNE   20220919122306W4282H0H  00002000000000172000000229332W428  HJYHK   002700430014
BI00B32W4    #4500200660    202211107158-3376-50             CONNECTOR WIRE SEAL      CCN000020000000020000FN00000000020221101000020000NNE   20220919122306W4282C0C  00002000000000184000000240732W428  HJYHK   002700430014
BI00B32W4    4500200661     202211247298-2278-30             HOUSING FEMALE ASS'Y     CCN000055200000055200FN00000000020221101000055200NNE   20220919122306W4284N0N  00000240000001091700001295432W428  HJYHK   005500360039
BI00B32W4    4500200661     202211247298-1865-30             HOUSING FEMALE ASS'Y     CCN000024000000024000FN00000000020221101000024000NNE   20220919122306W4284N0N  00000240000001003200001204532W428  HJYHK   005500360039
BI00A32W4    4500200686     202210107116-4231-02             TERMINAL                 CCN000078000000078000FN00000000020221001000078000NNE   20220919122306W4334P0P  00002600000000683800001012532W433  HJYHK   006400630017
BI00A32W4    4500200686     202210107114-4100-02             TERMINAL                 CCN000018000000018000FN00000000020221001000018000NNE   20220919122306W4334P0P  00001800000000748800001077432W433  HJYHK   006400630017
BI00B32W4    #4500200689    202211157172-5938-80             SEALED                   CCN000005000000005000FN00000000020221101000005000NNE   20220919122306W41 2H0H  00000500000000442500000490732W41   HJYHK   004300270014
BI00B32W4    4500200696     202211157283-8630                CONNECTOR ASS'Y          CCN000012000000012000FN00000000020221101000012000NNE   20220919122306W41 4N0N  00000600000000540000000701332W41   HJYHK   005400370024
BI00B32W4    4500200700     202211157116-1180                TERMINAL                 CCN000019500000019500FN00000000020221101000019500NNE   20220919122306W41 1P0P  00001950000000618200000903432W41   HJYHK   006400630015
BI00B32W4    4500200705     202211107116-4122-02             TERMINAL                 CCN000004500000004500FN00000000020221101000004500NNE   20220919122306W48 4P0P  00000450000000656600000950232W48   HJYHK   006400630015
BI00B32W4    4500200705     202211107116-5044-02             TERMINAL                 CCN000016000000016000FN00000000020221101000016000NNE   20220919122306W48 4P0P  00001600000000641600000986332W48   HJYHK   006400630017
BI00A32W4    4500200640     202210277158-3166-60             WIRE SEAL                CCN000040000000040000FN00000000020221001000040000NNE   20220919122306W4801C0C  00004000000000104000000152432W480  HJYHK-J 002700430014
BI00A32W4    #4500200645    202210067283-8123-40             CONNECTOR HOUSING        CCN000004000000004000FN00000000020221001000004000NNE   20220919122306W4802N0N  00000400000000380000000530032W480  HJYHK-J 005600390023
BI00A32W4    4500200636     202211107116-4103-02             TERMINAL                 CCN000012000000012000FN00000000020221101000012000NNE   20220919122306W4804P0P  00001200000000571200000859432W480  HJYHK-J 006400630015
BI00A32W4    #4500200639    202211037047-5344                RETAINER                 CCN000010000000010000FN00000000020221101000010000NNE   20220919122306W4802F0F  00001000000000870000001016032W480  HJYHK-J 005600390023
BI00A32W4    4500200627     202301197283-5574-10             CONNECTOR                CCN000000800000000800FN00000000020230101000000800NNE   20220919122306W4804N0N  00000080000001235000001435232W480  HJYHK-J 005500360039
BI00B32W9    4500200646     202210187283-5623-60             CONNECTOR                CCN000001600000001600FN00000000020221001000001600NNE   20220919122306W9  1N0N  00000160000001546000001846332W9    HKYHK   005600390040
BI00B32W9    #4500200646    202210187283-8398-40             CONNECTOR                CCN000009240000009240FN00000000020221001000009240NNE   20220919122306W9  2N0N  00000154000001007000001171332W9    HKYHK   005600390023
BI00B32W9    #4500200678    202210117158-3120-90             CONNECTOR WIRE SEAL      CCN000060000000060000FN00000000020221001000060000NNE   20220919122306W93 2C0C  00002000000000136000000194032W93   HKYHK   002700430014
BI00B32W9    4500200657     202210117116-4025                TERMINAL                 CCN000032000000032000FN00000000020221001000032000NNE   20220919122306W9  4P0P  00001600000000644800000975132W9    HKYHK   006400630017
BI00B32X5    TIB2048        202211117C89-6868-30             SEALED ASSY FEMALE       CCN000012600000012600FN00000000020230101000012600NNMD0420220919170212X5  4N0N  00000252000000839200001119232X5    EPYNA-E 005500360039
