AE00TI102209190119/09/202200000000200000000000000001834KGM  00000002274KGM  7283-4577                CONNECTOR HOUSING        72834577                 0         0         0         0    0    0    00000960000000480000000172000016512000
AE00TI102209190119/09/202200000000200000000000000001788KGM  00000002370KGM  7287-9234                JOINT CONNECTOR          72879234                 0         0         0         0    0    0    00001920000000960000000137000026304000
AE00TI102209190119/09/202200000001200000000000000010393KGM  00000012133KGM  7288-3329-30             HOUSING MALE             7288332930               0         0         0         0    0    0    00001800000000150000000354000063720000
AE00TI102209190119/09/202200000000900000000000000007803KGM  00000009108KGM  7288-3335-30             HOUSING MALE             7288333530               0         0         0         0    0    0    00001350000000150000000354000047790000
AE00TI102209190119/09/202200000002400000000000000016474KGM  00000021634KGM  7289-3342-30             HOUSING FEMALE ASS'Y     7289334230               0         0         0         0    0    0    00005760000000240000000191000110016000
AE00TI102209190119/09/202200000000600000000000000004975KGM  00000006295KGM  7289-6518-30             HOUSING FEMALE ASS'Y     7289651830               0         0         0         0    0    0    00000720000000120000000598000043056000
AE00TI102209190119/09/202200000001200000000000000012038KGM  00000014454KGM  7298-1865-30             HOUSING FEMALE ASS'Y     7298186530               0         0         0         0    0    0    00002880000000240000000196000056448000
AE00TI102209190119/09/202200000003900000000000000044495KGM  00000052880KGM  7327-6840-3W             BATTERY FUSE             732768403W               0         0         0         0    0    0    00000280800000007200009909000278244720
AE00TI102209190119/09/202200000002300000000000000017066KGM  00000025806KGM  7388-2978-30             HOUSING MALE ASS'Y       7388297830               0         0         0         0    0    0    00001104000000048000001790000197616000
AE00TI102209190119/09/202200000000800000000000000000000KGM  00000000000KGM  7470-4815D               J/B COMPLETE ASS'Y       74704815D                0         0         0         0    0    0    00000012000000001500000000000000000000
AE00TI102209190119/09/202200000000800000000000000000000KGM  00000000000KGM  7470-4818D               J/B COMPLETE ASS'Y       74704818D                0         0         0         0    0    0    00000012000000001500000000000000000000
AE00TI102209190119/09/202200000001800000000000000023760KGM  00000028260KGM  7470-5237                J/B ASS'Y                74705237                 0         0         0         0    0    0    00000043200000002400031359000135470880
AE00TI102209190119/09/202200000001000000000000000000000KGM  00000000000KGM  7470-5300E               J/B COMPLETE ASS'Y       74705300E                0         0         0         0    0    0    00000010000000001000000000000000000000
AE00TI102209190119/09/202200000001000000000000000000000KGM  00000000000KGM  7470-5308E               J/B COMPLETE ASS'Y       74705308E                0         0         0         0    0    0    00000010000000001000000000000000000000
AE00TI102209190119/09/202200000001600000000000000000000KGM  00000000000KGM  7470-5782E               J/B COMPLETE ASS'Y       74705782E                0         0         0         0    0    0    00000016000000001000000000000000000000
AE00TI102209190119/09/202200000003600000000000000000000KGM  00000000000KGM  7470-5791E               J/B COMPLETE ASS'Y       74705791E                0         0         0         0    0    0    00000036000000001000000000000000000000
AE00TI102209190119/09/202200000001000000000000000000000KGM  00000000000KGM  7470-5927D               J/B COMPLETE ASS'Y       74705927D                0         0         0         0    0    0    00000015000000001500000000000000000000
