AE00TO202209190319/09/202200000009000000000000000094196KGM  00000098596KGM  18000004530              AV 8 B                   AV 8 B                   0         0         0         0    0    0    00000000000090000000000211100018999000
AE00TO202209190319/09/202200000004500000000000000047098KGM  00000049298KGM  18000004540              AV 8 W                   AV 8 W                   0         0         0         0    0    0    00000000000045000000000211100009499500
AE00TO202209190319/09/202200000004500000000000000047098KGM  00000049298KGM  18000004543              AV 8 W/B                 AV 8 W/B                 0         0         0         0    0    0    00000000000045000000000211100009499500
AE00TO202209190319/09/202200000000300000000000000003033KGM  00000003180KGM  18007703940              AVSS 05F W               AVSS 05F W               0         0         0         0    0    0    00000000000045000000000015600000702000
AE00TO202209190319/09/202200000000100000000000000001011KGM  00000001060KGM  18007703950              AVSS 05F R               AVSS 05F R               0         0         0         0    0    0    00000000000015000000000015600000234000
AE00TO202209190319/09/202200000000400000000000000004044KGM  00000004240KGM  18007703970              AVSS 05F Y               AVSS 05F Y               0         0         0         0    0    0    00000000000060000000000015600000936000
AE00TO202209190319/09/202200000000100000000000000001011KGM  00000001060KGM  18007703973              AVSS 05F Y/B             AVSS 05F Y/B             0         0         0         0    0    0    00000000000015000000000015600000234000
AE00TO202209190319/09/202200000000500000000000000005055KGM  00000005299KGM  18007703990              AVSS 05F L               AVSS 05F L               0         0         0         0    0    0    00000000000075000000000015600001170000
AE00TO202209190319/09/202200000000100000000000000001111KGM  00000001160KGM  18007704161              AVSS 125F LG             AVSS 125F LG             0         0         0         0    0    0    00000000000008000000000034700000277600
AE00TO202209190319/09/202200000000100000000000000001111KGM  00000001160KGM  18007704190              AVSS 125F L              AVSS 125F L              0         0         0         0    0    0    00000000000008000000000034700000277600
AE00TO202209190319/09/202200000008500000000000000101677KGM  00000105833KGM  18009604440              AVS 5 W                  AVS 5 W                  0         0         0         0    0    0    00000000000170000000000137600023392000
AE00TO202209190319/09/202200000000500000000000000005981KGM  00000006225KGM  18009604450              AVS 5 R                  AVS 5 R                  0         0         0         0    0    0    00000000000010000000000137600001376000
AE00TO202209190319/09/202200000000200000000000000002296KGM  00000002392KGM  1801R704061              CIVUS 075 LG             CIVUS 075 LG             0         0         0         0    0    0    00000000000030000000000019800000594000
AE00TO202209190319/09/202200000000400000000000000004443KGM  00000004637KGM  1801W004330              IVSSH 3 B                IVSSH 3 B                0         0         0         0    0    0    00000000000014000000000087900001230600
AE00TO202209190319/09/202200000000300000000000000003332KGM  00000003478KGM  1801W004343              IVSSH 3 W/B              IVSSH 3 W/B              0         0         0         0    0    0    00000000000010500000000087900000922950
AE00TO202209190319/09/202200000000400000000000000004442KGM  00000004638KGM  1801W004390              IVSSH 3 L                IVSSH 3 L                0         0         0         0    0    0    00000000000014000000000087900001230600
AE00TO202209190319/09/202200000002600000000000000019766KGM  00000021037KGM  181AD2003ZZ              CIVUSAS-S 035X3 B        CIVUSAS-S 035X3 B        0         0         0         0    0    0    00000000000091000000000055300005032300
AE00TO202209190319/09/202200000009000000000000000075598KGM  00000079998KGM  181AD2004ZZ              CIVUSAS-S 035X4 B        CIVUSAS-S 035X4 B        0         0         0         0    0    0    00000000000270000000000066700018009000
AE00TO202209190319/09/202200000007600000000000000053431KGM  00000057147KGM  181E48040ZZ              CAVSAS-S 03X2 GY/V       CAVSAS-S 03X2 GY/V       0         0         0         0    0    0    00000000000266000000000045900012209400
AE00TO202209190319/09/202200000000100000000000000000764KGM  00000000813KGM  181E50004ZZ              AVSSCS-S 05FX1 DGY       AVSSCS-S 05FX1 DGY       0         0         0         0    0    0    00000000000004000000000050400000201600
AE00TO202209190319/09/202200000000300000000000000002292KGM  00000002438KGM  181E50005ZZ              AVSSCS-S 05FX1 DGY/W     AVSSCS-S 05FX1 DGY/W     0         0         0         0    0    0    00000000000012000000000050400000604800
