AE00TO202209190419/09/202200000018000000000000000188392KGM  00000197192KGM  18000004530              AV 8 B                   AV 8 B                   0         0         0         0    0    0    00000000000180000000000211100037998000
AE00TO202209190419/09/202200000000200000000000000002093KGM  00000002191KGM  18000004540              AV 8 W                   AV 8 W                   0         0         0         0    0    0    00000000000002000000000211100000422200
AE00TO202209190419/09/202200000000200000000000000003065KGM  00000003163KGM  18009604330              AVS 3 B                  AVS 3 B                  0         0         0         0    0    0    00000000000008000000000087500000700000
AE00TO202209190419/09/202200000004500000000000000050625KGM  00000052825KGM  1801W003930              IVSSH 05F B              IVSSH 05F B              0         0         0         0    0    0    00000000000810000000000015400012474000
AE00TO202209190419/09/202200000001700000000000000019125KGM  00000019956KGM  1801W003952              IVSSH 05F P              IVSSH 05F P              0         0         0         0    0    0    00000000000306000000000015400004712400
AE00TO202209190419/09/202200000001300000000000000014625KGM  00000015261KGM  1801W003961              IVSSH 05F LG             IVSSH 05F LG             0         0         0         0    0    0    00000000000234000000000015400003603600
AE00TO202209190419/09/202200000000700000000000000007875KGM  00000008217KGM  1801W003991              IVSSH 05F SB             IVSSH 05F SB             0         0         0         0    0    0    00000000000126000000000015400001940400
AE00TO202209190419/09/202200000000700000000000000007875KGM  00000008217KGM  1801W003992              IVSSH 05F V              IVSSH 05F V              0         0         0         0    0    0    00000000000126000000000015400001940400
AE00TO202209190419/09/202200000000200000000000000002060KGM  00000002158KGM  180D0203730              AVSSH 03F B              AVSSH 03F B              0         0         0         0    0    0    00000000000040000000000012200000488000
AE00TO202209190419/09/202200000001500000000000000015450KGM  00000016183KGM  180D0203740              AVSSH 03F W              AVSSH 03F W              0         0         0         0    0    0    00000000000300000000000012200003660000
AE00TO202209190419/09/202200000000600000000000000006180KGM  00000006473KGM  180D0203741              AVSSH 03F GY             AVSSH 03F GY             0         0         0         0    0    0    00000000000120000000000012200001464000
AE00TO202209190419/09/202200000000200000000000000002060KGM  00000002158KGM  180D0203743              AVSSH 03F W/B            AVSSH 03F W/B            0         0         0         0    0    0    00000000000040000000000012200000488000
AE00TO202209190419/09/202200000000200000000000000002060KGM  00000002158KGM  180D0203750              AVSSH 03F R              AVSSH 03F R              0         0         0         0    0    0    00000000000040000000000012200000488000
AE00TO202209190419/09/202200000000200000000000000002060KGM  00000002158KGM  180D0203752              AVSSH 03F P              AVSSH 03F P              0         0         0         0    0    0    00000000000040000000000012200000488000
AE00TO202209190419/09/202200000001600000000000000016480KGM  00000017262KGM  180D0203760              AVSSH 03F G              AVSSH 03F G              0         0         0         0    0    0    00000000000320000000000012200003904000
AE00TO202209190419/09/202200000000200000000000000002060KGM  00000002158KGM  180D0203770              AVSSH 03F Y              AVSSH 03F Y              0         0         0         0    0    0    00000000000040000000000012200000488000
AE00TO202209190419/09/202200000000300000000000000003090KGM  00000003237KGM  180D0203780              AVSSH 03F BR             AVSSH 03F BR             0         0         0         0    0    0    00000000000060000000000012200000732000
AE00TO202209190419/09/202200000000400000000000000004120KGM  00000004316KGM  180D0203790              AVSSH 03F L              AVSSH 03F L              0         0         0         0    0    0    00000000000080000000000012200000976000
AE00TO202209190419/09/202200000000100000000000000001030KGM  00000001079KGM  180D0203792              AVSSH 03F V              AVSSH 03F V              0         0         0         0    0    0    00000000000020000000000012200000244000
AE00TO202209190419/09/202200000001400000000000000011864KGM  00000012549KGM  181AD2001ZZ              CIVUSAS-S 035X1 B        CIVUSAS-S 035X1 B        0         0         0         0    0    0    00000000000077000000000034200002633400
AE00TO202209190419/09/202200000009000000000000000068421KGM  00000072821KGM  181AD2003ZZ              CIVUSAS-S 035X3 B        CIVUSAS-S 035X3 B        0         0         0         0    0    0    00000000000315000000000055300017419500
AE00TO202209190419/09/202200000002800000000000000023519KGM  00000024888KGM  181AD2004ZZ              CIVUSAS-S 035X4 B        CIVUSAS-S 035X4 B        0         0         0         0    0    0    00000000000084000000000066700005602800
AE00TO202209190419/09/202200000001200000000000000009093KGM  00000009680KGM  181E50002ZZ              AVSSCS-S 03FX2 DGY/G     AVSSCS-S 03FX2 DGY/G     0         0         0         0    0    0    00000000000042000000000059400002494800
AE00TO202209190419/09/202200000004600000000000000034857KGM  00000037105KGM  181E50003ZZ              AVSSCS-S 03FX2 DGY/BR    AVSSCS-S 03FX2 DGY/BR    0         0         0         0    0    0    00000000000161000000000059400009563400
AE00TO202209190419/09/202200000000200000000000000001528KGM  00000001626KGM  181E50004ZZ              AVSSCS-S 05FX1 DGY       AVSSCS-S 05FX1 DGY       0         0         0         0    0    0    00000000000008000000000050400000403200
AE00TO202209190419/09/202200000000200000000000000001528KGM  00000001626KGM  181E50006ZZ              AVSSCS-S 05FX1 DGY/Y     AVSSCS-S 05FX1 DGY/Y     0         0         0         0    0    0    00000000000008000000000050400000403200
AE00TO202209190419/09/202200000000200000000000000001528KGM  00000001626KGM  181E50007ZZ              AVSSCS-S 05FX1 DGY/L     AVSSCS-S 05FX1 DGY/L     0         0         0         0    0    0    00000000000008000000000050400000403200
AE00TO202209190419/09/202200000000100000000000000000764KGM  00000000813KGM  181E50013ZZ              AVSSCS-S 05FX1 DGY/G     AVSSCS-S 05FX1 DGY/G     0         0         0         0    0    0    00000000000004000000000050400000201600
AE00TO202209190419/09/202200000000700000000000000005304KGM  00000005646KGM  181E50020ZZ              AVSSCS-S 03FX2 DGY/R     AVSSCS-S 03FX2 DGY/R     0         0         0         0    0    0    00000000000024500000000059400001455300
AE00TO202209190419/09/202200000000800000000000000006062KGM  00000006453KGM  181E50021ZZ              AVSSCS-S 03FX2 DGY/P     AVSSCS-S 03FX2 DGY/P     0         0         0         0    0    0    00000000000028000000000059400001663200
AE00TO202209190419/09/202200000004500000000000000034099KGM  00000036299KGM  181E50036ZZ              AVSSCS-S 03FX2 DGY       AVSSCS-S 03FX2 DGY       0         0         0         0    0    0    00000000000157500000000059400009355500
