AE00TO202209190219/09/202200000004500000000000000047098KGM  00000049298KGM  18000004530              AV 8 B                   AV 8 B                   0         0         0         0    0    0    00000000000045000000000211100009499500
AE00TO202209190219/09/202200000009400000000000000098382KGM  00000102978KGM  18000004540              AV 8 W                   AV 8 W                   0         0         0         0    0    0    00000000000094000000000211100019843400
AE00TO202209190219/09/202200000004500000000000000047098KGM  00000049298KGM  18000004543              AV 8 W/B                 AV 8 W/B                 0         0         0         0    0    0    00000000000045000000000211100009499500
AE00TO202209190219/09/202200000000100000000000000000992KGM  00000001041KGM  18007703794              AVSS 03F L/W             AVSS 03F L/W             0         0         0         0    0    0    00000000000020000000000011700000234000
AE00TO202209190219/09/202200000000400000000000000004044KGM  00000004240KGM  18007703900              AVSS 05F P/W             AVSS 05F P/W             0         0         0         0    0    0    00000000000060000000000015600000936000
AE00TO202209190219/09/202200000000200000000000000002022KGM  00000002120KGM  18007703918              AVSS 05F G/O             AVSS 05F G/O             0         0         0         0    0    0    00000000000030000000000015600000468000
AE00TO202209190219/09/202200000001300000000000000013143KGM  00000013779KGM  18007703940              AVSS 05F W               AVSS 05F W               0         0         0         0    0    0    00000000000195000000000015600003042000
AE00TO202209190219/09/202200000000100000000000000001011KGM  00000001060KGM  18007703943              AVSS 05F W/B             AVSS 05F W/B             0         0         0         0    0    0    00000000000015000000000015600000234000
AE00TO202209190219/09/202200000000600000000000000006066KGM  00000006359KGM  18007703945              AVSS 05F W/R             AVSS 05F W/R             0         0         0         0    0    0    00000000000090000000000015600001404000
AE00TO202209190219/09/202200000000300000000000000003033KGM  00000003180KGM  18007703949              AVSS 05F W/L             AVSS 05F W/L             0         0         0         0    0    0    00000000000045000000000015600000702000
AE00TO202209190219/09/202200000000900000000000000009099KGM  00000009539KGM  18007703950              AVSS 05F R               AVSS 05F R               0         0         0         0    0    0    00000000000135000000000015600002106000
AE00TO202209190219/09/202200000000800000000000000008088KGM  00000008479KGM  18007703952              AVSS 05F P               AVSS 05F P               0         0         0         0    0    0    00000000000120000000000015600001872000
AE00TO202209190219/09/202200000000200000000000000002022KGM  00000002120KGM  18007703953              AVSS 05F R/B             AVSS 05F R/B             0         0         0         0    0    0    00000000000030000000000015600000468000
AE00TO202209190219/09/202200000000700000000000000007077KGM  00000007419KGM  18007703957              AVSS 05F R/Y             AVSS 05F R/Y             0         0         0         0    0    0    00000000000105000000000015600001638000
AE00TO202209190219/09/202200000001600000000000000016176KGM  00000016959KGM  18007703960              AVSS 05F G               AVSS 05F G               0         0         0         0    0    0    00000000000240000000000015600003744000
AE00TO202209190219/09/202200000000100000000000000001011KGM  00000001060KGM  18007703963              AVSS 05F G/B             AVSS 05F G/B             0         0         0         0    0    0    00000000000015000000000015600000234000
AE00TO202209190219/09/202200000000200000000000000002022KGM  00000002120KGM  18007703964              AVSS 05F G/W             AVSS 05F G/W             0         0         0         0    0    0    00000000000030000000000015600000468000
AE00TO202209190219/09/202200000000500000000000000005055KGM  00000005300KGM  18007703965              AVSS 05F G/R             AVSS 05F G/R             0         0         0         0    0    0    00000000000075000000000015600001170000
AE00TO202209190219/09/202200000001600000000000000016176KGM  00000016959KGM  18007703970              AVSS 05F Y               AVSS 05F Y               0         0         0         0    0    0    00000000000240000000000015600003744000
AE00TO202209190219/09/202200000000100000000000000001011KGM  00000001060KGM  18007703975              AVSS 05F Y/R             AVSS 05F Y/R             0         0         0         0    0    0    00000000000015000000000015600000234000
AE00TO202209190219/09/202200000002100000000000000021231KGM  00000022258KGM  18007703990              AVSS 05F L               AVSS 05F L               0         0         0         0    0    0    00000000000315000000000015600004914000
AE00TO202209190219/09/202200000000200000000000000002022KGM  00000002120KGM  18007703995              AVSS 05F L/R             AVSS 05F L/R             0         0         0         0    0    0    00000000000030000000000015600000468000
AE00TO202209190219/09/202200000000100000000000000001011KGM  00000001060KGM  18007703997              AVSS 05F L/Y             AVSS 05F L/Y             0         0         0         0    0    0    00000000000015000000000015600000234000
AE00TO202209190219/09/202200000000100000000000000000943KGM  00000000992KGM  18007704080              AVSS 075F BR             AVSS 075F BR             0         0         0         0    0    0    00000000000010000000000022300000223000
AE00TO202209190219/09/202200000000100000000000000000943KGM  00000000992KGM  180077040H1              AVSS 075F GY/G           AVSS 075F GY/G           0         0         0         0    0    0    00000000000010000000000022300000223000
AE00TO202209190219/09/202200000000100000000000000001111KGM  00000001160KGM  18007704135              AVSS 125F B/R            AVSS 125F B/R            0         0         0         0    0    0    00000000000008000000000034700000277600
AE00TO202209190219/09/202200000000100000000000000000942KGM  00000000991KGM  18018403707              CAVS 03 P/B              CAVS 03 P/B              0         0         0         0    0    0    00000000000020000000000010300000206000
AE00TO202209190219/09/202200000000100000000000000000942KGM  00000000991KGM  18018403751              CAVS 03 O                CAVS 03 O                0         0         0         0    0    0    00000000000020000000000010300000206000
AE00TO202209190219/09/202200000000200000000000000001884KGM  00000001982KGM  18018403752              CAVS 03 P                CAVS 03 P                0         0         0         0    0    0    00000000000040000000000010300000412000
AE00TO202209190219/09/202200000000100000000000000000942KGM  00000000991KGM  18018403754              CAVS 03 R/W              CAVS 03 R/W              0         0         0         0    0    0    00000000000020000000000010300000206000
AE00TO202209190219/09/202200000000100000000000000000942KGM  00000000991KGM  18018403757              CAVS 03 R/Y              CAVS 03 R/Y              0         0         0         0    0    0    00000000000020000000000010300000206000
AE00TO202209190219/09/202200000000100000000000000000942KGM  00000000991KGM  18018403767              CAVS 03 G/Y              CAVS 03 G/Y              0         0         0         0    0    0    00000000000020000000000010300000206000
AE00TO202209190219/09/202200000000100000000000000000942KGM  00000000991KGM  18018403770              CAVS 03 Y                CAVS 03 Y                0         0         0         0    0    0    00000000000020000000000010300000206000
AE00TO202209190219/09/202200000000100000000000000000942KGM  00000000991KGM  18018403775              CAVS 03 Y/R              CAVS 03 Y/R              0         0         0         0    0    0    00000000000020000000000010300000206000
AE00TO202209190219/09/202200000000100000000000000000942KGM  00000000991KGM  18018403790              CAVS 03 L                CAVS 03 L                0         0         0         0    0    0    00000000000020000000000010300000206000
AE00TO202209190219/09/202200000000100000000000000001016KGM  00000001064KGM  18018403936              CAVS 05 B/G              CAVS 05 B/G              0         0         0         0    0    0    00000000000015000000000015000000225000
AE00TO202209190219/09/202200000000100000000000000001016KGM  00000001064KGM  18018403945              CAVS 05 W/R              CAVS 05 W/R              0         0         0         0    0    0    00000000000015000000000015000000225000
AE00TO202209190219/09/202200000000100000000000000001016KGM  00000001064KGM  18018403949              CAVS 05 W/L              CAVS 05 W/L              0         0         0         0    0    0    00000000000015000000000015000000225000
AE00TO202209190219/09/202200000000100000000000000001016KGM  00000001064KGM  18018403961              CAVS 05 LG               CAVS 05 LG               0         0         0         0    0    0    00000000000015000000000015000000225000
AE00TO202209190219/09/202200000000100000000000000001016KGM  00000001064KGM  18018403976              CAVS 05 Y/G              CAVS 05 Y/G              0         0         0         0    0    0    00000000000015000000000015000000225000
AE00TO202209190219/09/202200000000400000000000000004062KGM  00000004258KGM  18018403992              CAVS 05 V                CAVS 05 V                0         0         0         0    0    0    00000000000060000000000015000000900000
AE00TO202209190219/09/202200000000100000000000000000965KGM  00000001014KGM  18018404070              CAVS 085 Y               CAVS 085 Y               0         0         0         0    0    0    00000000000010000000000022700000227000
AE00TO202209190219/09/202200000000100000000000000000965KGM  00000001014KGM  18018404090              CAVS 085 L               CAVS 085 L               0         0         0         0    0    0    00000000000010000000000022700000227000
AE00TO202209190219/09/202200000000100000000000000000965KGM  00000001014KGM  18018404091              CAVS 085 SB              CAVS 085 SB              0         0         0         0    0    0    00000000000010000000000022700000227000
AE00TO202209190219/09/202200000000100000000000000001102KGM  00000001151KGM  18018404134              CAVS 125 B/W             CAVS 125 B/W             0         0         0         0    0    0    00000000000008000000000032400000259200
AE00TO202209190219/09/202200000000200000000000000002205KGM  00000002303KGM  18018404135              CAVS 125 B/R             CAVS 125 B/R             0         0         0         0    0    0    00000000000016000000000032400000518400
AE00TO202209190219/09/202200000000100000000000000001102KGM  00000001151KGM  18018404161              CAVS 125 LG              CAVS 125 LG              0         0         0         0    0    0    00000000000008000000000032400000259200
AE00TO202209190219/09/202200000000200000000000000002205KGM  00000002303KGM  18018404190              CAVS 125 L               CAVS 125 L               0         0         0         0    0    0    00000000000016000000000032400000518400
AE00TO202209190219/09/202200000000100000000000000001102KGM  00000001151KGM  18018404193              CAVS 125 L/B             CAVS 125 L/B             0         0         0         0    0    0    00000000000008000000000032400000259200
AE00TO202209190219/09/202200000000100000000000000001219KGM  00000001268KGM  1801R706090              CIVUS 1 L                CIVUS 1 L                0         0         0         0    0    0    00000000000012000000000026200000314400
AE00TO202209190219/09/202200000000100000000000000001125KGM  00000001174KGM  1801W003952              IVSSH 05F P              IVSSH 05F P              0         0         0         0    0    0    00000000000018000000000015400000277200
AE00TO202209190219/09/202200000000100000000000000001125KGM  00000001174KGM  1801W003992              IVSSH 05F V              IVSSH 05F V              0         0         0         0    0    0    00000000000018000000000015400000277200
AE00TO202209190219/09/202200000000100000000000000001030KGM  00000001079KGM  180D0203730              AVSSH 03F B              AVSSH 03F B              0         0         0         0    0    0    00000000000020000000000012200000244000
AE00TO202209190219/09/202200000000400000000000000004120KGM  00000004316KGM  180D0203740              AVSSH 03F W              AVSSH 03F W              0         0         0         0    0    0    00000000000080000000000012200000976000
AE00TO202209190219/09/202200000000200000000000000002060KGM  00000002158KGM  180D0203752              AVSSH 03F P              AVSSH 03F P              0         0         0         0    0    0    00000000000040000000000012200000488000
AE00TO202209190219/09/202200000000100000000000000001030KGM  00000001079KGM  180D0203753              AVSSH 03F R/B            AVSSH 03F R/B            0         0         0         0    0    0    00000000000020000000000012200000244000
AE00TO202209190219/09/202200000000200000000000000002060KGM  00000002158KGM  180D0203760              AVSSH 03F G              AVSSH 03F G              0         0         0         0    0    0    00000000000040000000000012200000488000
AE00TO202209190219/09/202200000000100000000000000001030KGM  00000001079KGM  180D0203770              AVSSH 03F Y              AVSSH 03F Y              0         0         0         0    0    0    00000000000020000000000012200000244000
AE00TO202209190219/09/202200000000100000000000000001030KGM  00000001079KGM  180D0203790              AVSSH 03F L              AVSSH 03F L              0         0         0         0    0    0    00000000000020000000000012200000244000
AE00TO202209190219/09/202200000000100000000000000001030KGM  00000001079KGM  180D0203792              AVSSH 03F V              AVSSH 03F V              0         0         0         0    0    0    00000000000020000000000012200000244000
AE00TO202209190219/09/202200000000100000000000000001034KGM  00000001082KGM  180D0203946              AVSSH 05F W/G            AVSSH 05F W/G            0         0         0         0    0    0    00000000000015000000000016300000244500
AE00TO202209190219/09/202200000000100000000000000001034KGM  00000001082KGM  180D0203957              AVSSH 05F R/Y            AVSSH 05F R/Y            0         0         0         0    0    0    00000000000015000000000016300000244500
AE00TO202209190219/09/202200000000100000000000000000934KGM  00000000983KGM  180D0204040              AVSSH 075F W             AVSSH 075F W             0         0         0         0    0    0    00000000000010000000000023200000232000
AE00TO202209190219/09/202200000000100000000000000000934KGM  00000000983KGM  180D0204049              AVSSH 075F W/L           AVSSH 075F W/L           0         0         0         0    0    0    00000000000010000000000023200000232000
AE00TO202209190219/09/202200000000100000000000000000934KGM  00000000983KGM  180D0204070              AVSSH 075F Y             AVSSH 075F Y             0         0         0         0    0    0    00000000000010000000000023200000232000
AE00TO202209190219/09/202200000000100000000000000000934KGM  00000000983KGM  180D0204092              AVSSH 075F V             AVSSH 075F V             0         0         0         0    0    0    00000000000010000000000023200000232000
AE00TO202209190219/09/202200000000600000000000000004561KGM  00000004855KGM  181AD2003ZZ              CIVUSAS-S 035X3 B        CIVUSAS-S 035X3 B        0         0         0         0    0    0    00000000000021000000000055300001161300
AE00TO202209190219/09/202200000003300000000000000027720KGM  00000029333KGM  181AD2004ZZ              CIVUSAS-S 035X4 B        CIVUSAS-S 035X4 B        0         0         0         0    0    0    00000000000099000000000066700006603300
AE00TO202209190219/09/202200000003800000000000000032103KGM  00000033960KGM  181AD2013ZZ              CIVUSAS-S 125X2 B        CIVUSAS-S 125X2 B        0         0         0         0    0    0    00000000000083600000000097600008159360
AE00TO202209190219/09/202200000000100000000000000000765KGM  00000000814KGM  181E48011ZZ              CAVSAS-S 03X1 GY/W       CAVSAS-S 03X1 GY/W       0         0         0         0    0    0    00000000000005000000000035300000176500
AE00TO202209190219/09/202200000003900000000000000027419KGM  00000029325KGM  181E48031ZZ              CAVSAS-S 03X2 GY         CAVSAS-S 03X2 GY         0         0         0         0    0    0    00000000000136500000000045900006265350
AE00TO202209190219/09/202200000000100000000000000000703KGM  00000000752KGM  181E48041ZZ              CAVSAS-S 03X2 GY/R       CAVSAS-S 03X2 GY/R       0         0         0         0    0    0    00000000000003500000000045900000160650
AE00TO202209190219/09/202200000001600000000000000012222KGM  00000013004KGM  181E50004ZZ              AVSSCS-S 05FX1 DGY       AVSSCS-S 05FX1 DGY       0         0         0         0    0    0    00000000000064000000000050400003225600
AE00TO202209190219/09/202200000000200000000000000001528KGM  00000001626KGM  181E50005ZZ              AVSSCS-S 05FX1 DGY/W     AVSSCS-S 05FX1 DGY/W     0         0         0         0    0    0    00000000000008000000000050400000403200
