AE00TI102209190719/09/202200000000100000000000000000105KGM  00000000183KGM  7157-7811-80             SEAL RUBBER              7157781180               0         0         0         0    0    0    00001000000001000000000055000005500000
AE00TI102209190719/09/202200000000300000000000000000750KGM  00000000918KGM  7158-3003-90             RUBBER STOPPER           7158300390               0         0         0         0    0    0    00006000000002000000000012000007200000
AE00TI102209190719/09/202200000000300000000000000002279KGM  00000003073KGM  7187-3356                JOINT CONNECTOR          71873356                 0         0         0         0    0    0    00000360000000120000001038000037368000
AE00TI102209190719/09/202200000000300000000000000002286KGM  00000003088KGM  7187-3357-40             JOINT CONNECTOR          7187335740               0         0         0         0    0    0    00000360000000120000001059000038124000
AE00TI102209190719/09/202200000000500000000000000003816KGM  00000005152KGM  7187-3359-60             JOINT CONNECTOR          7187335960               0         0         0         0    0    0    00000600000000120000001079000064740000
AE00TI102209190719/09/202200000008000000000000000019008KGM  00000039008KGM  7271-1818-30             CASE SUB ASSY,ECU        7271181830               0         0         0         0    0    0    00000144000000001800009388000135187200
AE00TI102209190719/09/202200000000500000000000000005316KGM  00000006416KGM  7282-4855                HOUSING MALE ASS'Y       72824855                 0         0         0         0    0    0    00000600000000120000000347000020820000
AE00TI102209190719/09/202200000000800000000000000011048KGM  00000013096KGM  7283-1288                CONNECTOR HOUSING        72831288                 0         0         0         0    0    0    00000960000000120000000781000074976000
AE00TI102209190719/09/202200000000500000000000000004188KGM  00000005288KGM  7283-4578                HOUSING FEMALE ASS'Y     72834578                 0         0         0         0    0    0    00001200000000240000000190000022800000
AE00TI102209190719/09/202200000000100000000000000000954KGM  00000001104KGM  7283-5830                CONNECTOR                72835830                 0         0         0         0    0    0    00000600000000600000000154000009240000
AE00TI102209190719/09/202200000000200000000000000001908KGM  00000002208KGM  7283-5830-30             CONNECTOR                7283583030               0         0         0         0    0    0    00001200000000600000000155000018600000
AE00TI102209190719/09/202200000000100000000000000000889KGM  00000001132KGM  7283-5843                CONNECTOR                72835843                 0         0         0         0    0    0    00000150000000150000000280000004200000
AE00TI102209190719/09/202200000000500000000000000002220KGM  00000003032KGM  7283-5845                CONNECTOR HOUSING        72835845                 0         0         0         0    0    0    00003000000000600000000133000039900000
AE00TI102209190719/09/202200000000700000000000000006929KGM  00000008740KGM  7283-7526-30             CONNECTOR HOUSING        7283752630               0         0         0         0    0    0    00001372000000196000000506000069423200
AE00TI102209190719/09/202200000000500000000000000004949KGM  00000006243KGM  7283-7526-40             CONNECTOR HOUSING        7283752640               0         0         0         0    0    0    00000980000000196000000504000049392000
AE00TI102209190719/09/202200000000100000000000000001162KGM  00000001377KGM  7286-1900                CONNECTOR HOUSING        72861900                 0         0         0         0    0    0    00000480000000480000000253000012144000
AE00TI102209190719/09/202200000000500000000000000004553KGM  00000005653KGM  7286-3885                CONNECTOR MALE ASS'Y     72863885                 0         0         0         0    0    0    00000600000000120000000295000017700000
AE00TI102209190719/09/202200000000600000000000000005464KGM  00000006784KGM  7286-3885-40             CONNECTOR MALE ASS'Y     7286388540               0         0         0         0    0    0    00000720000000120000000313000022536000
AE00TI102209190719/09/202200000000600000000000000006178KGM  00000007498KGM  7287-3885-40             HYBRID FEMALE ASS'Y      7287388540               0         0         0         0    0    0    00001440000000240000000216000031104000
AE00TI102209190719/09/202200000001100000000000000004264KGM  00000008664KGM  7288-3206                HOUSING MALE ASS'Y       72883206                 0         0         0         0    0    0    00001122000000102000000351000039382200
AE00TI102209190719/09/202200000002600000000000000022781KGM  00000028644KGM  7288-7969                HYBRID MALE ASS'Y        72887969                 0         0         0         0    0    0    00000832000000032000001019000084780800
AE00TI102209190719/09/202200000000300000000000000003006KGM  00000003704KGM  7289-0269                HOUSING SUB ASSEMBLY     72890269                 0         0         0         0    0    0    00000480000000160000000227000010896000
AE00TI102209190719/09/202200000004500000000000000030888KGM  00000040563KGM  7289-3342                HOUSING FEMALE ASS'Y     72893342                 0         0         0         0    0    0    00010800000000240000000186000200880000
AE00TI102209190719/09/202200000003400000000000000023338KGM  00000030648KGM  7289-3342-30             HOUSING FEMALE ASS'Y     7289334230               0         0         0         0    0    0    00008160000000240000000191000155856000
AE00TI102209190719/09/202200000001300000000000000008923KGM  00000011718KGM  7289-3342-40             HOUSING FEMALE ASS'Y     7289334240               0         0         0         0    0    0    00003120000000240000000192000059904000
AE00TI102209190719/09/202200000004500000000000000030888KGM  00000040563KGM  7289-3342-90             HOUSING FEMALE ASS'Y     7289334290               0         0         0         0    0    0    00010800000000240000000196000211680000
AE00TI102209190719/09/202200000000300000000000000003456KGM  00000004086KGM  7289-6547                HOUSING FEMALE ASS'Y     72896547                 0         0         0         0    0    0    00000720000000240000000229000016488000
AE00TI102209190719/09/202200000001000000000000000007382KGM  00000009647KGM  7289-7970                HYBRID FEMALE ASS'Y      72897970                 0         0         0         0    0    0    00000320000000032000000956000030592000
AE00TI102209190819/09/202200000001000000000000000004698KGM  00000007550KGM  7116-3154-02             TERMINAL FEMALE          7116315402               0         0         0         0    0    0    00027000000002700000000015000040500000
AE00TI102209190819/09/202200000002600000000000000013338KGM  00000020753KGM  7116-4020                TERMINAL                 71164020                 0         0         0         0    0    0    00035100000001350000000028000098280000
AE00TI102209190819/09/202200000000400000000000000002579KGM  00000003900KGM  7116-4025                TERMINAL                 71164025                 0         0         0         0    0    0    00006400000001600000000034000021760000
AE00TI102209190819/09/202200000000700000000000000004648KGM  00000006960KGM  7116-4026                TERMINAL                 71164026                 0         0         0         0    0    0    00011200000001600000000033000036960000
AE00TI102209190819/09/202200000002200000000000000007273KGM  00000008492KGM  7158-3006-90             RUBBER STOPPER           7158300690               0         0         0         0    0    0    00044000000002000000000016000070400000
AE00TI102209190819/09/202200000001300000000000000004394KGM  00000005021KGM  7158-3009-60             RUBBER STOPPER           7158300960               0         0         0         0    0    0    00026000000002000000000012000031200000
AE00TI102209190819/09/202200000000700000000000000001932KGM  00000002333KGM  7158-3070-80             RUBBER STOPPER           7158307080               0         0         0         0    0    0    00028000000004000000000008000022400000
AE00TI102209190819/09/202200000001500000000000000001560KGM  00000002286KGM  7158-3166-60             WIRE SEAL                7158316660               0         0         0         0    0    0    00060000000004000000000004000024000000
AE00TI102209190819/09/202200000004100000000000000001968KGM  00000004469KGM  7158-3167-80             WIRE SEAL                7158316780               0         0         0         0    0    0    00082000000002000000000005000041000000
AE00TI102209190819/09/202200000000200000000000000000312KGM  00000000408KGM  7158-3169-40             SEALING PLUG             7158316940               0         0         0         0    0    0    00008000000004000000000006000004800000
AE00TI102209190819/09/202200000000900000000000000004118KGM  00000004554KGM  7172-5402-30             SEAL RUBBER              7172540230               0         0         0         0    0    0    00007200000000800000000077000055440000
AE00TI102209190819/09/202200000000900000000000000001674KGM  00000002110KGM  7172-5540-80             SEALED WIRE SEAL         7172554080               0         0         0         0    0    0    00018000000002000000000010000018000000
AE00TI102209190819/09/202200000000200000000000000001459KGM  00000001666KGM  7182-2412                HOUSING MALE             71822412                 0         0         0         0    0    0    00000100000000050000000638000006380000
AE00TI102209190819/09/202200000000100000000000000000690KGM  00000000802KGM  7186-8845                HOUSING MALE             71868845                 0         0         0         0    0    0    00000300000000300000000149000004470000
AE00TI102209190819/09/202200000000100000000000000000442KGM  00000000727KGM  7196-1936-02             TERMINAL FEMALE          7196193602               0         0         0         0    0    0    00001350000001350000000026000003510000
AE00TI102209190819/09/202200000000100000000000000000795KGM  00000001012KGM  7282-1065                CONNECTOR                72821065                 0         0         0         0    0    0    00000150000000150000000415000006225000
AE00TI102209190819/09/202200000000200000000000000001930KGM  00000002350KGM  7282-4577                HOUSING MALE ASS'Y       72824577                 0         0         0         0    0    0    00000480000000240000000229000010992000
AE00TI102209190819/09/202200000000100000000000000000230KGM  00000000339KGM  7282-5528-70             HOUSING MALE ASS'Y       7282552870               0         0         0         0    0    0    00000100000000100000000434000004340000
AE00TI102209190819/09/202200000000100000000000000001356KGM  00000001520KGM  7282-8120                CONNECTOR HOUSING        72828120                 0         0         0         0    0    0    00000300000000300000000212000006360000
AE00TI102209190819/09/202200000000600000000000000006106KGM  00000007426KGM  7282-9391                HOUSING MALE ASS'Y       72829391                 0         0         0         0    0    0    00000720000000120000000325000023400000
AE00TI102209190819/09/202200000000300000000000000002007KGM  00000002798KGM  7283-1140                CONNECTOR HOUSING        72831140                 0         0         0         0    0    0    00000450000000150000000259000011655000
AE00TI102209190819/09/202200000000100000000000000000852KGM  00000001011KGM  7283-1222                CONNECTOR                72831222                 0         0         0         0    0    0    00000120000000120000000367000004404000
AE00TI102209190819/09/202200000001600000000000000022096KGM  00000026192KGM  7283-1288-10             CONNECTOR HOUSING        7283128810               0         0         0         0    0    0    00001920000000120000000785000150720000
AE00TI102209190819/09/202200000000300000000000000004638KGM  00000005539KGM  7283-5623-60             CONNECTOR                7283562360               0         0         0         0    0    0    00000480000000160000000568000027264000
AE00TI102209190819/09/202200000000200000000000000001448KGM  00000001748KGM  7283-5832                CONNECTOR HOUSING        72835832                 0         0         0         0    0    0    00000480000000240000000206000009888000
AE00TI102209190819/09/202200000001000000000000000008850KGM  00000011020KGM  7283-5846                HOUSING                  72835846                 0         0         0         0    0    0    00001500000000150000000241000036150000
AE00TI102209190819/09/202200000000300000000000000001050KGM  00000001388KGM  7283-8721-30             HOUSING FEMALE ASS'Y     7283872130               0         0         0         0    0    0    00000300000000100000000415000012450000
AE00TI102209190819/09/202200000000800000000000000006144KGM  00000007824KGM  7286-4097                CONNECTOR MALE ASS'Y     72864097                 0         0         0         0    0    0    00001280000000160000000196000025088000
AE00TI102209190819/09/202200000000200000000000000002443KGM  00000002883KGM  7287-8072                HOUSING FEMALE ASS'Y     72878072                 0         0         0         0    0    0    00000480000000240000000247000011856000
AE00TI102209190819/09/202200000003600000000000000031543KGM  00000039661KGM  7288-7969                HYBRID MALE ASS'Y        72887969                 0         0         0         0    0    0    00001152000000032000001019000117388800
AE00TI102209190819/09/202200000000200000000000000002558KGM  00000003187KGM  7289-7208-30             HOUSING FEMALE ASS'Y     7289720830               0         0         0         0    0    0    00000048000000024000004419000021211200
AE00TI102209190819/09/202200000000700000000000000005167KGM  00000006753KGM  7289-7970                HYBRID FEMALE ASS'Y      72897970                 0         0         0         0    0    0    00000224000000032000000956000021414400
AE00TI102209190819/09/202200000000200000000000000002324KGM  00000002569KGM  7386-2747                CONNECTOR ASS'Y          73862747                 0         0         0         0    0    0    00000400000000200000000413000016520000
AE00TI102209190819/09/202200000001200000000000000015840KGM  00000018840KGM  7470-4481                J/B COMPLETE ASS'Y       74704481                 0         0         0         0    0    0    00000028800000002400000000000000000000
AE00TI102209190819/09/202200000000600000000000000007920KGM  00000009420KGM  7470-5237                J/B ASS'Y                74705237                 0         0         0         0    0    0    00000014400000002400031359000045156960
AE00TI102209190819/09/202200000001500000000000000000000KGM  00000000000KGM  7470-5791D               J/B COMPLETE ASS'Y       74705791D                0         0         0         0    0    0    00000022500000001500000000000000000000
AE00TI102209190819/09/202200000001800000000000000000000KGM  00000000000KGM  7470-5791E               J/B COMPLETE ASS'Y       74705791E                0         0         0         0    0    0    00000018000000001000000000000000000000
