AE00TI102209190319/09/202200000000000000000000000000000KGM  00000000000KGM  38200-TF0-X031-M1        BOX ASSY FUSE            38200TF0X031M1           0         0         0         0    0    0    00000000200000000600000000000000000000
AE00TI102209190319/09/202200000000000000000000000000000KGM  00000000000KGM  38200-TF0-X410-M1        38200-TF0-X410-M1        38200TF0X410M1           0         0         0         0    0    0    00000000100000000100000000000000000000
AE00TI102209190319/09/202200000000000000000000000000000KGM  00000000000KGM  38200-T4V-F110-M1        BOX ASSY FUSE            38200T4VF110M1           0         0         0         0    0    0    00000000100000000600000000000000000000
