AE00TI102209190619/09/202200000000200000000000000001736KGM  00000002136KGM  7173-3291-40             LIF LEVER                7173329140               0         0         0         0    0    0    00000480000000240000000142000006816000
AE00TI102209190619/09/202200000001500000000000000000000KGM  00000000000KGM  7273-2981-0WD            CASSETTE BRACKET         727329810WD              0         0         0         0    0    0    00000150000000010000000000000000000000
AE00TI102209190619/09/202200000003900000000000000000000KGM  00000000000KGM  7273-2982-0WD            CASSETTE BRACKET         727329820WD              0         0         0         0    0    0    00000390000000010000000000000000000000
AE00TI102209190619/09/202200000002100000000000000000000KGM  00000000000KGM  7273-2982-0WE            CASSETTE BRACKET         727329820WE              0         0         0         0    0    0    00000315000000015000000000000000000000
AE00TI102209190619/09/202200000001600000000000000000000KGM  00000000000KGM  7273-2983-0WD            CASSETTE BRACKET         727329830WD              0         0         0         0    0    0    00000160000000010000000000000000000000
AE00TI102209190619/09/202200000000200000000000000000000KGM  00000000000KGM  7273-2983-0WE            CASSETTE BRACKET         727329830WE              0         0         0         0    0    0    00000016000000008000000000000000000000
AE00TI102209190619/09/202200000000900000000000000007795KGM  00000009100KGM  7288-3329-30             HOUSING MALE             7288332930               0         0         0         0    0    0    00001350000000150000000354000047790000
AE00TI102209190619/09/202200000000400000000000000003465KGM  00000004045KGM  7288-3330-30             HOUSING MALE             7288333030               0         0         0         0    0    0    00000600000000150000000354000021240000
AE00TI102209190619/09/202200000000800000000000000006936KGM  00000008096KGM  7288-3335-30             HOUSING MALE             7288333530               0         0         0         0    0    0    00001200000000150000000354000042480000
AE00TI102209190619/09/202200000000400000000000000003468KGM  00000004048KGM  7288-3337-30             HOUSING MALE             7288333730               0         0         0         0    0    0    00000600000000150000000354000021240000
AE00TI102209190619/09/202200000000600000000000000004118KGM  00000005408KGM  7289-3342-30             HOUSING FEMALE ASS'Y     7289334230               0         0         0         0    0    0    00001440000000240000000191000027504000
AE00TI102209190619/09/202200000000100000000000000000829KGM  00000001049KGM  7289-6518-30             HOUSING FEMALE ASS'Y     7289651830               0         0         0         0    0    0    00000120000000120000000598000007176000
AE00TI102209190619/09/202200000000100000000000000000982KGM  00000001290KGM  7298-5993-30             SEALED ASSY FEMALE       7298599330               0         0         0         0    0    0    00000218400000218400000266000005809440
AE00TI102209190619/09/202200000000800000000000000009127KGM  00000010847KGM  7327-6840-3W             BATTERY FUSE             732768403W               0         0         0         0    0    0    00000057600000007200009909000057075840
AE00TI102209190619/09/202200000001200000000000000008904KGM  00000013464KGM  7388-2978-30             HOUSING MALE ASS'Y       7388297830               0         0         0         0    0    0    00000576000000048000001790000103104000
