AE00TI102209190419/09/202200000000600000000000000003252KGM  00000004328KGM  7147-3642-30             CLIP                     7147364230               0         0         0         0    0    0    00001800000000300000000074000013320000
AE00TI102209190419/09/202200000000300000000000000002481KGM  00000003306KGM  7154-5712-30             CASSETTE R/B             7154571230               0         0         0         0    0    0    00000240000000080000000288000006912000
AE00TI102209190419/09/202200000000500000000000000003811KGM  00000004902KGM  7171-6292                HOUSING                  71716292                 0         0         0         0    0    0    00000090000000018000001240000011160000
AE00TI102209190419/09/202200000000100000000000000000592KGM  00000000712KGM  7174-1164                COVER                    71741164                 0         0         0         0    0    0    00000080000000080000000173000001384000
AE00TI102209190419/09/202200000000100000000000000000951KGM  00000001230KGM  7183-0522                HOUSING                  71830522                 0         0         0         0    0    0    00000240000000240000000113000002712000
AE00TI102209190419/09/202200000000100000000000000000959KGM  00000001191KGM  7183-0522-30             HOUSING                  7183052230               0         0         0         0    0    0    00000240000000240000000121000002904000
AE00TI102209190419/09/202200000000200000000000000000956KGM  00000001520KGM  7183-2413                CONNECTOR HOUSING        71832413                 0         0         0         0    0    0    00000960000000480000000074000007104000
AE00TI102209190419/09/202200000000400000000000000001910KGM  00000003038KGM  7183-2413-30             CONNECTOR HOUSING        7183241330               0         0         0         0    0    0    00001920000000480000000076000014592000
AE00TI102209190419/09/202200000000100000000000000001065KGM  00000001352KGM  7183-2419-30             HOUSING                  7183241930               0         0         0         0    0    0    00000480000000480000000093000004464000
AE00TI102209190419/09/202200000002000000000000000019338KGM  00000021938KGM  7189-2978-30             HOUSING FEMALE           7189297830               0         0         0         0    0    0    00003000000000150000000161000048300000
AE00TI102209190419/09/202200000005000000000000000004385KGM  00000007010KGM  7273-3238-0W             CASSETTE BRACKET         727332380W               0         0         0         0    0    0    00000500000000010000000372000018600000
AE00TI102209190419/09/202200000002000000000000000002694KGM  00000004994KGM  7273-3239-0W             CASSETTE BRACKET         727332390W               0         0         0         0    0    0    00000200000000010000000441000008820000
AE00TI102209190419/09/202200000000800000000000000006261KGM  00000007941KGM  7282-4578                HOUSING MALE ASS'Y       72824578                 0         0         0         0    0    0    00000960000000120000000255000024480000
AE00TI102209190419/09/202200000000100000000000000001063KGM  00000001283KGM  7282-4855                HOUSING MALE ASS'Y       72824855                 0         0         0         0    0    0    00000120000000120000000347000004164000
AE00TI102209190419/09/202200000000100000000000000001382KGM  00000001641KGM  7283-1288-40             CONNECTOR HOUSING        7283128840               0         0         0         0    0    0    00000120000000120000000785000009420000
AE00TI102209190419/09/202200000000500000000000000003257KGM  00000004357KGM  7283-4576                HOUSING FEMALE ASS'Y     72834576                 0         0         0         0    0    0    00002400000000480000000128000030720000
AE00TI102209190419/09/202200000000100000000000000000954KGM  00000001104KGM  7283-5830                CONNECTOR                72835830                 0         0         0         0    0    0    00000600000000600000000154000009240000
AE00TI102209190419/09/202200000000100000000000000000444KGM  00000000606KGM  7283-5845                CONNECTOR HOUSING        72835845                 0         0         0         0    0    0    00000600000000600000000133000007980000
AE00TI102209190419/09/202200000000200000000000000002120KGM  00000002362KGM  7283-7029                CONNECTOR                72837029                 0         0         0         0    0    0    00001200000000600000000227000027240000
AE00TI102209190419/09/202200000000100000000000000001026KGM  00000001200KGM  7283-7029-40             CONNECTOR                7283702940               0         0         0         0    0    0    00000600000000600000000231000013860000
AE00TI102209190419/09/202200000000100000000000000001200KGM  00000001410KGM  7283-7449-30             HOUSING FEMALE ASS'Y     7283744930               0         0         0         0    0    0    00000240000000240000000386000009264000
AE00TI102209190419/09/202200000000100000000000000000795KGM  00000001012KGM  7283-8692                CONNECTOR HOUSING        72838692                 0         0         0         0    0    0    00000150000000150000000300000004500000
AE00TI102209190419/09/202200000000200000000000000001934KGM  00000002336KGM  7286-1917                CONNECTOR MALE ASS'Y     72861917                 0         0         0         0    0    0    00000240000000120000000517000012408000
AE00TI102209190419/09/202200000000200000000000000001821KGM  00000002261KGM  7286-3885                CONNECTOR MALE ASS'Y     72863885                 0         0         0         0    0    0    00000240000000120000000295000007080000
AE00TI102209190419/09/202200000000100000000000000000911KGM  00000001131KGM  7286-3885-30             CONNECTOR MALE ASS'Y     7286388530               0         0         0         0    0    0    00000120000000120000000309000003708000
AE00TI102209190419/09/202200000000100000000000000000952KGM  00000001140KGM  7286-7860                HOUSING MALE ASS'Y       72867860                 0         0         0         0    0    0    00000080000000080000000383000003064000
AE00TI102209190419/09/202200000000100000000000000000667KGM  00000000923KGM  7287-1915                CONNECTOR ASS'Y          72871915                 0         0         0         0    0    0    00000240000000240000000161000003864000
AE00TI102209190419/09/202200000000300000000000000003182KGM  00000003938KGM  7287-1917                CONNECTOR FEMALE         72871917                 0         0         0         0    0    0    00000720000000240000000253000018216000
AE00TI102209190419/09/202200000000200000000000000002059KGM  00000002499KGM  7287-3885                HYBRID FEMALE ASS'Y      72873885                 0         0         0         0    0    0    00000480000000240000000207000009936000
AE00TI102209190419/09/202200000000200000000000000002333KGM  00000002773KGM  7287-8073                HOUSING FEMALE ASS'Y     72878073                 0         0         0         0    0    0    00000480000000240000000244000011712000
AE00TI102209190419/09/202200000000300000000000000002561KGM  00000003136KGM  7287-9155                HOUSING FEMALE ASS'Y     72879155                 0         0         0         0    0    0    00000288000000096000000357000010281600
AE00TI102209190419/09/202200000003100000000000000016666KGM  00000021390KGM  7287-9323                UNSEALED HOUSING SUB     72879323                 0         0         0         0    0    0    00007440000000240000000146000108624000
AE00TI102209190419/09/202200000000100000000000000000538KGM  00000000690KGM  7287-9323-30             UNSEALED HOUSING SUB     7287932330               0         0         0         0    0    0    00000240000000240000000153000003672000
AE00TI102209190419/09/202200000000500000000000000003432KGM  00000004507KGM  7289-3342                HOUSING FEMALE ASS'Y     72893342                 0         0         0         0    0    0    00001200000000240000000186000022320000
AE00TI102209190419/09/202200000008100000000000000055598KGM  00000073013KGM  7289-3342-30             HOUSING FEMALE ASS'Y     7289334230               0         0         0         0    0    0    00019440000000240000000191000371304000
AE00TI102209190419/09/202200000000700000000000000004805KGM  00000006310KGM  7289-3342-40             HOUSING FEMALE ASS'Y     7289334240               0         0         0         0    0    0    00001680000000240000000192000032256000
AE00TI102209190419/09/202200000000500000000000000003432KGM  00000004507KGM  7289-3342-90             HOUSING FEMALE ASS'Y     7289334290               0         0         0         0    0    0    00001200000000240000000196000023520000
AE00TI102209190419/09/202200000006200000000000000052991KGM  00000066011KGM  7289-5979-30             HOUSING FEMALE ASS'Y     7289597930               0         0         0         0    0    0    00001562400000025200001346000210299040
AE00TI102209190419/09/202200000000200000000000000001067KGM  00000001458KGM  7298-2457-90             LIF FEMALE ASSEMBLY      7298245790               0         0         0         0    0    0    00000033600000016800001464000004919040
AE00TI102209190419/09/202200000000100000000000000000534KGM  00000000730KGM  7298-2459-60             LIF FEMALE ASSEMBLY      7298245960               0         0         0         0    0    0    00000016800000016800001474000002476320
AE00TI102209190419/09/202200000000100000000000000000000KGM  00000000000KGM  7470-5823E1              J/B COMPLETE ASS'Y       74705823E1               0         0         0         0    0    0    00000001000000001000000000000000000000
