BI00B32G7    JW2211BMMW     202210061801W006941              IVSSH 0.35F GY           CCN000002500000002500FN00000000020221101000002500NNE   20220919111446    1W    00000250000000452000000000032G7    JIJAI   000000000000JS329001
BI00B32H2    TAW210Q        20221007180D0204190              AVSSH 1.25F L            CCN000000800000000800FN00000000020221001000000800NNE   20220919102741    1W    00000080000001458000000000032H2    HVYHV   000000000000UR329004
BI00B32H2    TAW210R        20221007180D0203930              AVSSH 0.5F B             CCN000001500000001500FN00000000020221001000001500NNE   20220919102742    1W    00000150000000689000000000032H2    HVYHV   000000000000US329007
BI00B32H2    TAW210R        20221007180D0203961              AVSSH 0.5F LG            CCN000001500000001500FN00000000020221001000001500NNE   20220919102742    1W    00000150000000689000000000032H2    HVYHV   000000000000US329008
BI00B32H2    TAW210R        20221007180D0203943              AVSSH 0.5F W/B           CCN000001500000001500FN00000000020221001000001500NNE   20220919102742    1W    00000150000000689000000000032H2    HVYHV   000000000000US329009
BI00B32H2    TAW210R        20221007180D0204170              AVSSH 1.25F Y            CCN000000800000000800FN00000000020221001000000800NNE   20220919102742    1W    00000080000001458000000000032H2    HVYHV   000000000000US329010
BI00B32H2    @TAW210R       20221007181AD2023ZZ              CIVUSAS-S 0.13X2 B       CCN000001200000001200FN00000000020221001000001200NNE   20220919101238    1W    00000060000001031100000000032H2    HVYHV   000000000000UN329001
BI00B32H2    TAW211E        2022101218000004530              AV 8 B                   CCN000000300000000300FN00000000020221101000000300NNE   20220919102745    1W    00000010000010466200000000032H2    HVYHV   000000000000UE429025
BI00B32H2    TAW211E        20221012180D0203930              AVSSH 0.5F B             CCN000001500000001500FN00000000020221101000001500NNE   20220919102745    1W    00000150000000689000000000032H2    HVYHV   000000000000UE429023
BI00B32H2    TAW211E        20221012180D0203970              AVSSH 0.5F Y             CCN000001500000001500FN00000000020221101000001500NNE   20220919102745    1W    00000150000000689000000000032H2    HVYHV   000000000000UE429024
BI00B32H2    @TAW211E       20221012181AD2023ZZ              CIVUSAS-S 0.13X2 B       CCN000003000000003000FN00000000020221101000003000NNE   20220919101240    1W    00000060000001031100000000032H2    HVYHV   000000000000UE429001
BI00B32H2    @TAW211E       20221012181AD2024ZZ              CIVUSAS-S 0.13X3 B       CCN000001000000001000FN00000000020221101000001000NNE   20220919101240    1W    00000050000001297300000000032H2    HVYHV   000000000000UE429002
BI00B32H2    @TAW211E       20221012181AD2026ZZ              CIVUSAS-S 0.13X6 B       CCN000000300000000300FN00000000020221101000000300NNE   20220919101240    1W    00000030000002258300000000032H2    HVYHV   000000000000UE429003
BI00B32H2    TAW211F        20221021180D0203943              AVSSH 0.5F W/B           CCN000001500000001500FN00000000020221101000001500NNE   20220919110545    1W    00000150000000689000000000032H2    HVYHV   000000000000UF12A004
BI00B32H2    @TAW211F       20221021181AD2023ZZ              CIVUSAS-S 0.13X2 B       CCN000002400000002400FN00000000020221101000002400NNE   20220919110541    1W    00000060000001031100000000032H2    HVYHV   000000000000UF12A001
BI00B32H2    @TAW211F       20221021181AD2024ZZ              CIVUSAS-S 0.13X3 B       CCN000001500000001500FN00000000020221101000001500NNE   20220919110541    1W    00000050000001297300000000032H2    HVYHV   000000000000UF12A002
BI00B32H2    @TAW211F       20221021181AD2025ZZ              CIVUSAS-S 0.13X4 B       CCN000000400000000400FN00000000020221101000000400NNE   20220919110541    1W    00000040000001661800000000032H2    HVYHV   000000000000UF12A003
BI00B32H2    TAW211G        20221028180D0203980              AVSSH 0.5F BR            CCN000001500000001500FN00000000020221101000001500NNE   20220919110545    1W    00000150000000689000000000032H2    HVYHV   000000000000UG22A005
BI00B32H2    @TAW211G       20221028181D6910230              AVSSHCS 0.5FX2 B         CCN000000300000000300FN00000000020221101000000300NNE   20220919110542    1W    00000030000002385000000000032H2    HVYHV   000000000000UG22A004
BI00B32H2    @TAW211G       20221028181AD2023ZZ              CIVUSAS-S 0.13X2 B       CCN000000600000000600FN00000000020221101000000600NNE   20220919110542    1W    00000060000001031100000000032H2    HVYHV   000000000000UG22A001
BI00B32H2    @TAW211G       20221028181AD2024ZZ              CIVUSAS-S 0.13X3 B       CCN000000500000000500FN00000000020221101000000500NNE   20220919110542    1W    00000050000001297300000000032H2    HVYHV   000000000000UG22A002
BI00B32H2    @TAW211G       20221028181AD2025ZZ              CIVUSAS-S 0.13X4 B       CCN000000800000000800FN00000000020221101000000800NNE   20220919110542    1W    00000040000001661800000000032H2    HVYHV   000000000000UG22A003
BI00B32H2    @TAW211H       20221104181AD2023ZZ              CIVUSAS-S 0.13X2 B       CCN000000600000000600FN00000000020221101000000600NNE   20220919110544    1W    00000060000001031100000000032H2    HVYHV   000000000000UI32A001
BI00B32H2    @TAW211H       20221104181AD2024ZZ              CIVUSAS-S 0.13X3 B       CCN000000500000000500FN00000000020221101000000500NNE   20220919110544    1W    00000050000001297300000000032H2    HVYHV   000000000000UI32A002
BI00B32H2    @TAW211H       20221104181AD2025ZZ              CIVUSAS-S 0.13X4 B       CCN000000400000000400FN00000000020221101000000400NNE   20220919110544    1W    00000040000001661800000000032H2    HVYHV   000000000000UI32A003
BI00B32H8    2211A MW       2022100718007703930              AVSS 0.5F B              CCN000004500000004500FN00000000020221101000004500NNE   20220919103005    1W    00000150000000674000000000032H8    TYTYC   000000000000LO329001
BI00B32H8    2211A MW       2022100718007703943              AVSS 0.5F W/B            CCN000001500000001500FN00000000020221101000001500NNE   20220919103005    1W    00000150000000674000000000032H8    TYTYC   000000000000LO329005
BI00B32H8    2211A MW       2022100718007703950              AVSS 0.5F R              CCN000001500000001500FN00000000020221101000001500NNE   20220919103005    1W    00000150000000674000000000032H8    TYTYC   000000000000LO329004
BI00B32H8    2211A MW       2022100718007703952              AVSS 0.5F P              CCN000001500000001500FN00000000020221101000001500NNE   20220919103005    1W    00000150000000674000000000032H8    TYTYC   000000000000LO329003
BI00B32H8    2211A MW       2022100718007703970              AVSS 0.5F Y              CCN000003000000003000FN00000000020221101000003000NNE   20220919103005    1W    00000150000000674000000000032H8    TYTYC   000000000000LO329006
BI00B32H8    2211A MW       2022100718007703990              AVSS 0.5F L              CCN000001500000001500FN00000000020221101000001500NNE   20220919103005    1W    00000150000000674000000000032H8    TYTYC   000000000000LO329002
BI00B32H8    2211AKMW       20221007180D0203930              AVSSH 0.5F B             CCN000001500000001500FN00000000020221101000001500NNE   20220919103006    1W    00000150000000689000000000032H8    TYTYC   000000000000LN329002
BI00B32H8    2211AKMW       20221007180D0203940              AVSSH 0.5F W             CCN000001500000001500FN00000000020221101000001500NNE   20220919103006    1W    00000150000000689000000000032H8    TYTYC   000000000000LN329008
BI00B32H8    2211AKMW       20221007180D0203950              AVSSH 0.5F R             CCN000001500000001500FN00000000020221101000001500NNE   20220919103006    1W    00000150000000689000000000032H8    TYTYC   000000000000LN329007
BI00B32H8    2211AKMW       20221007180D0203952              AVSSH 0.5F P             CCN000001500000001500FN00000000020221101000001500NNE   20220919103006    1W    00000150000000689000000000032H8    TYTYC   000000000000LN329006
BI00B32H8    2211AKMW       20221007180D0203960              AVSSH 0.5F G             CCN000001500000001500FN00000000020221101000001500NNE   20220919103006    1W    00000150000000689000000000032H8    TYTYC   000000000000LN329003
BI00B32H8    2211AKMW       20221007180D0203961              AVSSH 0.5F LG            CCN000001500000001500FN00000000020221101000001500NNE   20220919103006    1W    00000150000000689000000000032H8    TYTYC   000000000000LN329005
BI00B32H8    2211AKMW       20221007180D0203970              AVSSH 0.5F Y             CCN000001500000001500FN00000000020221101000001500NNE   20220919103006    1W    00000150000000689000000000032H8    TYTYC   000000000000LN329009
BI00B32H8    2211AKMW       20221007180D0203990              AVSSH 0.5F L             CCN000001500000001500FN00000000020221101000001500NNE   20220919103006    1W    00000150000000689000000000032H8    TYTYC   000000000000LN329004
BI00B32H8    2211AKMW       20221007180D0204170              AVSSH 1.25F Y            CCN000000800000000800FN00000000020221101000000800NNE   20220919103006    1W    00000080000001458000000000032H8    TYTYC   000000000000LN329011
BI00B32H8    2211AKMW       20221007180D0204190              AVSSH 1.25F L            CCN000000800000000800FN00000000020221101000000800NNE   20220919103006    1W    00000080000001458000000000032H8    TYTYC   000000000000LN329010
BI00B32H8    2211AKMW       2022100718007703940              AVSS 0.5F W              CCN000001500000001500FN00000000020221101000001500NNE   20220919103006    1W    00000150000000674000000000032H8    TYTYC   000000000000LN329013
BI00B32H8    2211AKMW       2022100718007703961              AVSS 0.5F LG             CCN000001500000001500FN00000000020221101000001500NNE   20220919103006    1W    00000150000000674000000000032H8    TYTYC   000000000000LN329012
BI00B32H8    2211AKMW       2022100718007704050              AVSS 0.75F R             CCN000001000000001000FN00000000020221101000001000NNE   20220919103006    1W    00000100000000943000000000032H8    TYTYC   000000000000LN329014
BI00B32H8    @2211AKMW      20221007181E50010ZZ              AVSSCS-S 0.5FX2 DGY/P    CCN000000300000000300FN00000000020221101000000300NNE   20220919103005    1W    00000030000003096000000000032H8    TYTYC   000000000000LN329001
BI00B32N1    NST2123B       20221006180D0204130              AVSSH 1.25F B            CCN000001600000001600FN00000000020200901000001600NNE   20220919094528    1W    00000080000001458000000000032N1    TAYIPL  000000000000XP329004
BI00B32N1    NST2123B       20221006180D0203990              AVSSH 0.5F L             CCN000010500000010500FN00000000020200901000010500NNE   20220919094528    1W    00000150000000689000000000032N1    TAYIPL  000000000000XP329001
BI00B32N1    NST2123B       20221006180D0203952              AVSSH 0.5F P             CCN000009000000009000FN00000000020200901000009000NNE   20220919094528    1W    00000150000000689000000000032N1    TAYIPL  000000000000XP329002
BI00B32N1    NST2123B       20221006180D0203950              AVSSH 0.5F R             CCN000007500000007500FN00000000020200901000007500NNE   20220919094528    1W    00000150000000689000000000032N1    TAYIPL  000000000000XP329003
BI00B32N1    NST2123B       2022100618007704185              AVSS 1.25F BR/R          CCN000002400000002400FN00000000020200901000002400NNE   20220919094528    1W    00000080000001389000000000032N1    TAYIPL  000000000000XP329006
BI00B32N1    NST2123B       2022100618007703759              AVSS 0.3F R/L            CCN000002000000002000FN00000000020200901000002000NNE   20220919094528    1W    00000200000000496000000000032N1    TAYIPL  000000000000XP329005
BI00B32N1    @NST2123B      20221012181D6910239              AVSSHCS 0.5FX2 B/L       CCN000057000000057000FN00000000020200901000057000NNE   20220919094527    1W    00000030000002385000000000032N1    TAYIPL  000000000000XP429001
BI00B32N1    NST2123-1      20221006180D0204141              AVSSH 1.25F GY           CCN000002400000002400FN00000000020221201000002400NNM   20220919094600    1W    00000080000001458000000000032N1    TAYIPL  000000000000XS329001
BI00B32N1    NST2123-1      2022100618007703792              AVSS 0.3F V              CCN000008000000008000FN00000000020221201000008000NNM   20220919094600    1W    00000200000000496000000000032N1    TAYIPL  000000000000XS329002
BI00B32N1    NST2123-1      2022100618007703740              AVSS 0.3F W              CCN000006000000006000FN00000000020221201000006000NNM   20220919094600    1W    00000200000000496000000000032N1    TAYIPL  000000000000XS329003
BI00B32W9    4500199690     2022101118009604453              AVS 5 R/B                CCN000000200000000200FN00000000020221001000000200NNE20 20220919135726W93 1W    00000020000005981000000000032W93   HKYHK   000000000000ZA12A019
BI00B32W9    4500199690     2022101118007704254              AVSS 2F R/W              CCN000001000000001000FN00000000020221001000001000NNE20 20220919140030W93 1W    00000050000002126400000000032W93   HKYHK   000000000000ZA12A007
BI00B32W9    4500199690     2022101118007704243              AVSS 2F W/B              CCN000000500000000500FN00000000020221001000000500NNE20 20220919140043W93 1W    00000050000002126400000000032W93   HKYHK   000000000000ZA12A008
BI00B32W9    4500199690     2022101118018404195              CAVS 1.25 L/R            CCN000000800000000800FN00000000020221001000000800NNE20 20220919140012W93 1W    00000080000001378000000000032W93   HKYHK   000000000000ZA12A078
BI00B32W9    4500199690     2022101118018403764              CAVS 0.3 G/W             CCN000002000000002000FN00000000020221001000002000NNE20 20220919135706W93 1W    00000200000000471000000000032W93   HKYHK   000000000000ZA12A027
BI00B32W9    4500199690     2022101118018403967              CAVS 0.5 G/Y             CCN000001500000001500FN00000000020221001000001500NNE20 20220919140119W93 1W    00000150000000677000000000032W93   HKYHK   000000000000ZA12A042
BI00B32W9    @4500199690    20221011181B09116K3              CAVSAS 0.3X2 GY/P        CCN000000700000000700FN00000000020221001000000700NNE20 20220919152903W93 1W    00000035000002254000000000032W93   HKYHK   000000000000ZA12A001
BI00B32W9    4500199699     2022101818000004545              AV 8 W/R                 CCN000000100000000100FN00000000020221001000000100NNE21 20220919140201W93 1W    00000010000010466200000000032W93   HKYHK   000000000000ZB22A004
BI00B32W9    4500199699     2022101118018403989              CAVS 0.5 BR/L            CCN000001500000001500FN00000000020221001000001500NNE20 20220919135853W93 1W    00000150000000677000000000032W93   HKYHK   000000000000ZB22A054
BI00B32W9    4500199699     2022101818018404118              CAVS 1.25 G/O            CCN000001600000001600FN00000000020221001000001600NNE21 20220919140319W93 1W    00000080000001378000000000032W93   HKYHK   000000000000ZB22A088
BI00B32W9    4500199699     2022101818009604443              AVS 5 W/B                CCN000000200000000200FN00000000020221001000000200NNE21 20220919141152W93 1W    00000020000005981000000000032W93   HKYHK   000000000000ZB22A035
BI00B32W9    4500199699     2022101818000004540              AV 8 W                   CCN000000100000000100FN00000000020221001000000100NNE21 20220919140215W93 1W    00000010000010466200000000032W93   HKYHK   000000000000ZB22A003
BI00B32W9    4500199699     2022101818009604345              AVS 3 W/R                CCN000000800000000800FN00000000020221001000000800NNE21 20220919140349W93 1W    00000040000003831600000000032W93   HKYHK   000000000000ZB22A025
BI00B32W9    4500199699     2022101818009604445              AVS 5 W/R                CCN000000200000000200FN00000000020221001000000200NNE21 20220919140601W93 1W    00000020000005981000000000032W93   HKYHK   000000000000ZB22A036
BI00B32W9    4500199699     2022101118009604359              AVS 3 R/L                CCN000000400000000400FN00000000020221001000000400NNE20 20220919135955W93 1W    00000040000003831600000000032W93   HKYHK   000000000000ZB22A022
BI00B32W9    4500199699     2022101118007704130              AVSS 1.25F B             CCN000000800000000800FN00000000020221001000000800NNE20 20220919135937W93 1W    00000080000001389000000000032W93   HKYHK   000000000000ZB22A006
BI00B32W9    4500199699     2022101818018403964              CAVS 0.5 G/W             CCN000003000000003000FN00000000020221001000003000NNE21 20220919140415W93 1W    00000150000000677000000000032W93   HKYHK   000000000000ZB22A057
BI00B32W9    4500199699     2022101818018404140              CAVS 1.25 W              CCN000000800000000800FN00000000020221001000000800NNE21 20220919140545W93 1W    00000080000001378000000000032W93   HKYHK   000000000000ZB22A094
BI00B32W9    4500199699     2022101818018403754              CAVS 0.3 R/W             CCN000002000000002000FN00000000020221001000002000NNE21 20220919140428W93 1W    00000200000000471000000000032W93   HKYHK   000000000000ZB22A047
BI00B32W9    4500199699     2022101118018404080              CAVS 0.85 BR             CCN000001000000001000FN00000000020221001000001000NNE20 20220919135749W93 1W    00000100000000965000000000032W93   HKYHK   000000000000ZB22A078
BI00B32W9    4500199699     2022101818018404159              CAVS 1.25 R/L            CCN000000800000000800FN00000000020221001000000800NNE21 20220919140401W93 1W    00000080000001378000000000032W93   HKYHK   000000000000ZB22A092
BI00B32W9    4500199699     2022101818018403789              CAVS 0.3 BR/L            CCN000002000000002000FN00000000020221001000002000NNE21 20220919140231W93 1W    00000200000000471000000000032W93   HKYHK   000000000000ZB22A043
BI00B32W9    4500199764     2022101118018403740              CAVS 0.3 W               CCN000004000000004000FN00000000020221001000004000NNE20 20220919140136W93 1W    00000200000000471000000000032W93   HKYHK   000000000000ZE12A008
BI00B32W9    4500200677     2022101118007704130              AVSS 1.25F B             CCN000002400000002400FN00000000020221001000002400NNE   20220919110012W93 1W    00000080000001389000000000032W93   HKYHK   000000000000ZP429002
BI00B32W9    4500200677     2022101118007704160              AVSS 1.25F G             CCN000002400000002400FN00000000020221001000002400NNE   20220919110012W93 1W    00000080000001389000000000032W93   HKYHK   000000000000ZP429003
BI00B32W9    4500200677     2022101118007703936              AVSS 0.5F B/G            CCN000001500000001500FN00000000020221001000001500NNE   20220919110012W93 1W    00000150000000674000000000032W93   HKYHK   000000000000ZP429001
BI00B32W9    4500200677     2022101118018403730              CAVS 0.3 B               CCN000008000000008000FN00000000020221001000008000NNE   20220919110012W93 1W    00000200000000471000000000032W93   HKYHK   000000000000ZP429004
BI00B32W9    4500200677     2022101118018403740              CAVS 0.3 W               CCN000010000000010000FN00000000020221001000010000NNE   20220919110012W93 1W    00000200000000471000000000032W93   HKYHK   000000000000ZP429005
BI00B32W9    4500200680     2022101818018403730              CAVS 0.3 B               CCN000004000000004000FN00000000020221001000004000NNE   20220919110013W93 1W    00000200000000471000000000032W93   HKYHK   000000000000ZF12A002
BI00B32W9    4500200680     2022101818018403780              CAVS 0.3 BR              CCN000002000000002000FN00000000020221001000002000NNE   20220919110013W93 1W    00000200000000471000000000032W93   HKYHK   000000000000ZF12A003
BI00B32W9    4500200680     2022101818018403761              CAVS 0.3 LG              CCN000002000000002000FN00000000020221001000002000NNE   20220919110013W93 1W    00000200000000471000000000032W93   HKYHK   000000000000ZF12A004
BI00B32W9    4500200680     2022101818018403792              CAVS 0.3 V               CCN000002000000002000FN00000000020221001000002000NNE   20220919110013W93 1W    00000200000000471000000000032W93   HKYHK   000000000000ZF12A005
BI00B32W9    @4500200680    20221018181B09116K3              CAVSAS 0.3X2 GY/P        CCN000000350000000350FN00000000020221001000000350NNE   20220919110011W93 1W    00000035000002254000000000032W93   HKYHK   000000000000ZF12A001
