AE00TI102209190219/09/202200000001000000000000000001860KGM  00000002344KGM  7B72-5540-80             SEALED WIRE SEAL         7B72554080               0         0         0         0    0    0    00020000000002000000000010000020000000
AE00TI102209190219/09/202200000001600000000000000002728KGM  00000003502KGM  7137-3047-30             UNIT PACKING             7137304730               0         0         0         0    0    0    00001600000000100000000189000030240000
AE00TI102209190219/09/202200000002800000000000000009257KGM  00000010808KGM  7158-3006-90             RUBBER STOPPER           7158300690               0         0         0         0    0    0    00056000000002000000000016000089600000
AE00TI102209190219/09/202200000003900000000000000013182KGM  00000015062KGM  7158-3009-60             RUBBER STOPPER           7158300960               0         0         0         0    0    0    00078000000002000000000012000093600000
AE00TI102209190219/09/202200000000500000000000000002218KGM  00000002510KGM  7158-3023                RUBBER STOPPER           71583023                 0         0         0         0    0    0    00002500000000500000000078000019500000
AE00TI102209190219/09/202200000001500000000000000004140KGM  00000005000KGM  7158-3070-80             RUBBER STOPPER           7158307080               0         0         0         0    0    0    00060000000004000000000008000048000000
AE00TI102209190219/09/202200000003000000000000000003120KGM  00000004572KGM  7158-3166-60             WIRE SEAL                7158316660               0         0         0         0    0    0    00120000000004000000000004000048000000
AE00TI102209190219/09/202200000009500000000000000004560KGM  00000010355KGM  7158-3167-80             WIRE SEAL                7158316780               0         0         0         0    0    0    00190000000002000000000005000095000000
AE00TI102209190219/09/202200000000700000000000000000308KGM  00000000645KGM  7158-3168-80             SEALED                   7158316880               0         0         0         0    0    0    00014000000002000000000004000005600000
AE00TI102209190219/09/202200000002800000000000000037495KGM  00000041695KGM  7171-6291                HOUSING MALE             71716291                 0         0         0         0    0    0    00000537600000019200001625000087360000
AE00TI102209190219/09/202200000001400000000000000002604KGM  00000003282KGM  7172-5540-80             SEALED WIRE SEAL         7172554080               0         0         0         0    0    0    00028000000002000000000010000028000000
AE00TI102209190219/09/202200000000200000000000000002564KGM  00000002954KGM  7182-4941                DOUBLE SIDED             71824941                 0         0         0         0    0    0    00000200000000100000000816000016320000
AE00TI102209190219/09/202200000000100000000000000001059KGM  00000001246KGM  7183-2412                HOUSING                  71832412                 0         0         0         0    0    0    00000160000000160000000155000002480000
AE00TI102209190219/09/202200000000400000000000000003117KGM  00000004244KGM  7183-2414                CONNECTOR HOUSING        71832414                 0         0         0         0    0    0    00001920000000480000000050000009600000
AE00TI102209190219/09/202200000000100000000000000000780KGM  00000001062KGM  7183-2414-30             CONNECTOR HOUSING        7183241430               0         0         0         0    0    0    00000480000000480000000054000002592000
AE00TI102209190219/09/202200000000100000000000000000917KGM  00000001477KGM  7183-2418                CONNECTOR HOUSING        71832418                 0         0         0         0    0    0    00000480000000480000000078000003744000
AE00TI102209190219/09/202200000000200000000000000001274KGM  00000001564KGM  7188-9508-40             HLC HOUSING MALE         7188950840               0         0         0         0    0    0    00000400000000200000000240000009600000
AE00TI102209190219/09/202200000000300000000000000001879KGM  00000002314KGM  7188-9509                HLC HOUSING MALE         71889509                 0         0         0         0    0    0    00000600000000200000000231000013860000
AE00TI102209190219/09/202200000000200000000000000001262KGM  00000001552KGM  7188-9510-30             HLC HOUSING MALE         7188951030               0         0         0         0    0    0    00000400000000200000000238000009520000
AE00TI102209190219/09/202200000000300000000000000001882KGM  00000002317KGM  7188-9511-80             HLC HOUSING MALE         7188951180               0         0         0         0    0    0    00000600000000200000000245000014700000
AE00TI102209190219/09/202200000000300000000000000002314KGM  00000002749KGM  7188-9513                HLC HOUSING MALE         71889513                 0         0         0         0    0    0    00000600000000200000000261000015660000
AE00TI102209190219/09/202200000000300000000000000002336KGM  00000002771KGM  7188-9514-90             HLC HOUSING MALE         7188951490               0         0         0         0    0    0    00000600000000200000000275000016500000
AE00TI102209190219/09/202200000000200000000000000001675KGM  00000001981KGM  7198-2278-30             HOUSING FEMALE           7198227830               0         0         0         0    0    0    00000480000000240000000184000008832000
AE00TI102209190219/09/202200000000200000000000000002060KGM  00000002352KGM  7222-7484-40             CONNECTOR                7222748440               0         0         0         0    0    0    00000200000000100000000758000015160000
AE00TI102209190219/09/202200000000200000000000000001934KGM  00000002194KGM  7222-7564-40             CONNECTOR                7222756440               0         0         0         0    0    0    00000100000000050000001166000011660000
AE00TI102209190219/09/202200000004000000000000000009504KGM  00000019504KGM  7271-1818-30             CASE SUB ASSY,ECU        7271181830               0         0         0         0    0    0    00000072000000001800009388000067593600
AE00TI102209190219/09/202200000000200000000000000002248KGM  00000002425KGM  7282-7028-30             CONNECTOR                7282702830               0         0         0         0    0    0    00000400000000200000000248000009920000
AE00TI102209190219/09/202200000000500000000000000004388KGM  00000005390KGM  7283-1156                CONNECTOR                72831156                 0         0         0         0    0    0    00000400000000080000000810000032400000
AE00TI102209190219/09/202200000001000000000000000006864KGM  00000009014KGM  7289-3342-30             HOUSING FEMALE ASS'Y     7289334230               0         0         0         0    0    0    00002400000000240000000191000045840000
AE00TI102209190219/09/202200000003600000000000000030769KGM  00000038329KGM  7289-5979-30             HOUSING FEMALE ASS'Y     7289597930               0         0         0         0    0    0    00000907200000025200001346000122109120
AE00TI102209190219/09/202200000003600000000000000000000KGM  00000000000KGM  7470-5784E               J/B COMPLETE ASS'Y       74705784E                0         0         0         0    0    0    00000036000000001000000000000000000000
