AE00TI102209210421/09/202200000003000000000000000002985KGM  00000007485KGM  7140-1977-30             UPPER COVER              7140197730               0         0         0         0    0    0    00000030000000001000002698000008094000
AE00TI102209210421/09/202200000000400000000000000001000KGM  00000001224KGM  7158-3003-90             RUBBER STOPPER           7158300390               0         0         0         0    0    0    00008000000002000000000012000009600000
AE00TI102209210421/09/202200000000200000000000000001459KGM  00000001666KGM  7182-2412                HOUSING MALE             71822412                 0         0         0         0    0    0    00000100000000050000000638000006380000
AE00TI102209210421/09/202200000000500000000000000002883KGM  00000003418KGM  7189-9517                HOUSING                  71899517                 0         0         0         0    0    0    00001000000000200000000228000022800000
AE00TI102209210421/09/202200000000400000000000000003429KGM  00000003981KGM  7198-1372-60             HOUSING FEMALE           7198137260               0         0         0         0    0    0    00000800000000200000000149000011920000
AE00TI102209210421/09/202200000000900000000000000004122KGM  00000005225KGM  7282-1024                HOUSING MALE             72821024                 0         0         0         0    0    0    00000900000000100000000534000048060000
AE00TI102209210421/09/202200000000400000000000000003859KGM  00000004699KGM  7282-4577                HOUSING MALE ASS'Y       72824577                 0         0         0         0    0    0    00000960000000240000000229000021984000
AE00TI102209210421/09/202200000000500000000000000004824KGM  00000005874KGM  7282-4577-90             HOUSING MALE ASS'Y       7282457790               0         0         0         0    0    0    00001200000000240000000232000027840000
AE00TI102209210421/09/202200000000400000000000000003130KGM  00000003970KGM  7282-4578                HOUSING MALE ASS'Y       72824578                 0         0         0         0    0    0    00000480000000120000000255000012240000
AE00TI102209210421/09/202200000000300000000000000003190KGM  00000003850KGM  7282-4855                HOUSING MALE ASS'Y       72824855                 0         0         0         0    0    0    00000360000000120000000347000012492000
AE00TI102209210421/09/202200000000100000000000000000230KGM  00000000339KGM  7282-5528-70             HOUSING MALE ASS'Y       7282552870               0         0         0         0    0    0    00000100000000100000000434000004340000
AE00TI102209210421/09/202200000001300000000000000013229KGM  00000016089KGM  7282-9391                HOUSING MALE ASS'Y       72829391                 0         0         0         0    0    0    00001560000000120000000325000050700000
AE00TI102209210421/09/202200000000400000000000000002605KGM  00000003485KGM  7283-4576                HOUSING FEMALE ASS'Y     72834576                 0         0         0         0    0    0    00001920000000480000000128000024576000
AE00TI102209210421/09/202200000000400000000000000003350KGM  00000004230KGM  7283-4578                HOUSING FEMALE ASS'Y     72834578                 0         0         0         0    0    0    00000960000000240000000190000018240000
AE00TI102209210421/09/202200000000200000000000000001908KGM  00000002208KGM  7283-5830                CONNECTOR                72835830                 0         0         0         0    0    0    00001200000000600000000154000018480000
AE00TI102209210421/09/202200000000300000000000000002862KGM  00000003312KGM  7283-5830-30             CONNECTOR                7283583030               0         0         0         0    0    0    00001800000000600000000155000027900000
AE00TI102209210421/09/202200000000100000000000000000724KGM  00000000874KGM  7283-5832-30             CONNECTOR HOUSING        7283583230               0         0         0         0    0    0    00000240000000240000000208000004992000
AE00TI102209210421/09/202200000000300000000000000002667KGM  00000003396KGM  7283-5843                CONNECTOR                72835843                 0         0         0         0    0    0    00000450000000150000000280000012600000
AE00TI102209210421/09/202200000000300000000000000001332KGM  00000001819KGM  7283-5845                CONNECTOR HOUSING        72835845                 0         0         0         0    0    0    00001800000000600000000133000023940000
AE00TI102209210421/09/202200000000200000000000000000888KGM  00000001213KGM  7283-5845-30             CONNECTOR HOUSING        7283584530               0         0         0         0    0    0    00001200000000600000000133000015960000
AE00TI102209210421/09/202200000000900000000000000007965KGM  00000009918KGM  7283-5846                HOUSING                  72835846                 0         0         0         0    0    0    00001350000000150000000241000032535000
AE00TI102209210421/09/202200000000100000000000000000624KGM  00000000882KGM  7283-6039                CONNECTOR                72836039                 0         0         0         0    0    0    00000160000000160000000344000005504000
AE00TI102209210421/09/202200000000300000000000000002742KGM  00000003429KGM  7283-6120                CONNECTOR HOUSING        72836120                 0         0         0         0    0    0    00000450000000150000000368000016560000
AE00TI102209210421/09/202200000000200000000000000000700KGM  00000000925KGM  7283-8721-30             HOUSING FEMALE ASS'Y     7283872130               0         0         0         0    0    0    00000200000000100000000415000008300000
AE00TI102209210421/09/202200000000100000000000000000794KGM  00000000907KGM  7283-8730-30             HOUSING FEMALE ASS'Y     7283873030               0         0         0         0    0    0    00000200000000200000000426000008520000
AE00TI102209210421/09/202200000000100000000000000000967KGM  00000001168KGM  7286-1917                CONNECTOR MALE ASS'Y     72861917                 0         0         0         0    0    0    00000120000000120000000517000006204000
AE00TI102209210421/09/202200000000500000000000000004553KGM  00000005653KGM  7286-3885                CONNECTOR MALE ASS'Y     72863885                 0         0         0         0    0    0    00000600000000120000000295000017700000
AE00TI102209210421/09/202200000000100000000000000000977KGM  00000001164KGM  7286-3970                CONNECTOR HOUSING        72863970                 0         0         0         0    0    0    00000011000000011000002089000002297900
AE00TI102209210421/09/202200000000400000000000000003072KGM  00000003912KGM  7286-4097                CONNECTOR MALE ASS'Y     72864097                 0         0         0         0    0    0    00000640000000160000000196000012544000
AE00TI102209210421/09/202200000000100000000000000001061KGM  00000001313KGM  7287-1917-40             CONNECTOR FEMALE         7287191740               0         0         0         0    0    0    00000240000000240000000263000006312000
AE00TI102209210421/09/202200000000300000000000000003089KGM  00000003749KGM  7287-3885                HYBRID FEMALE ASS'Y      72873885                 0         0         0         0    0    0    00000720000000240000000207000014904000
AE00TI102209210421/09/202200000000300000000000000003089KGM  00000003749KGM  7287-3885-30             HYBRID FEMALE ASS'Y      7287388530               0         0         0         0    0    0    00000720000000240000000215000015480000
AE00TI102209210421/09/202200000000300000000000000003089KGM  00000003749KGM  7287-3885-40             HYBRID FEMALE ASS'Y      7287388540               0         0         0         0    0    0    00000720000000240000000216000015552000
AE00TI102209210421/09/202200000000300000000000000003665KGM  00000004325KGM  7287-8072                HOUSING FEMALE ASS'Y     72878072                 0         0         0         0    0    0    00000720000000240000000247000017784000
AE00TI102209210421/09/202200000000200000000000000002333KGM  00000002773KGM  7287-8073                HOUSING FEMALE ASS'Y     72878073                 0         0         0         0    0    0    00000480000000240000000244000011712000
AE00TI102209210421/09/202200000000200000000000000002458KGM  00000002898KGM  7287-8999                HOUSING FEMALE ASS'Y     72878999                 0         0         0         0    0    0    00000960000000480000000163000015648000
AE00TI102209210421/09/202200000000100000000000000001229KGM  00000001449KGM  7287-9000                HOUSING FEMALE ASS'Y     72879000                 0         0         0         0    0    0    00000480000000480000000162000007776000
AE00TI102209210421/09/202200000000600000000000000002326KGM  00000004726KGM  7288-3206                HOUSING MALE ASS'Y       72883206                 0         0         0         0    0    0    00000612000000102000000351000021481200
AE00TI102209210421/09/202200000002000000000000000013728KGM  00000018028KGM  7289-3342                HOUSING FEMALE ASS'Y     72893342                 0         0         0         0    0    0    00004800000000240000000186000089280000
AE00TI102209210421/09/202200000003500000000000000024024KGM  00000031549KGM  7289-3342-30             HOUSING FEMALE ASS'Y     7289334230               0         0         0         0    0    0    00008400000000240000000191000160440000
AE00TI102209210421/09/202200000001000000000000000006864KGM  00000009014KGM  7289-3342-40             HOUSING FEMALE ASS'Y     7289334240               0         0         0         0    0    0    00002400000000240000000192000046080000
AE00TI102209210421/09/202200000001500000000000000010296KGM  00000013521KGM  7289-3342-90             HOUSING FEMALE ASS'Y     7289334290               0         0         0         0    0    0    00003600000000240000000196000070560000
AE00TI102209210421/09/202200000000100000000000000000913KGM  00000001055KGM  7289-4696-30             HOUSING FEMALE ASS'Y     7289469630               0         0         0         0    0    0    00000200000000200000000410000008200000
AE00TI102209210421/09/202200000000300000000000000003872KGM  00000004862KGM  7289-6523-30             HOUSING FEMALE ASS'Y     7289652330               0         0         0         0    0    0    00000072000000024000004721000033991200
AE00TI102209210421/09/202200000000100000000000000001152KGM  00000001362KGM  7289-6547                HOUSING FEMALE ASS'Y     72896547                 0         0         0         0    0    0    00000240000000240000000229000005496000
AE00TI102209210421/09/202200000000200000000000000002558KGM  00000003187KGM  7289-7208-30             HOUSING FEMALE ASS'Y     7289720830               0         0         0         0    0    0    00000048000000024000004419000021211200
AE00TI102209210421/09/202200000001700000000000000021588KGM  00000026243KGM  7289-9613-30             HOUSING FEMALE ASS'Y     7289961330               0         0         0         0    0    0    00000408000000024000004796000195676800
AE00TI102209210421/09/202200000000100000000000000001162KGM  00000001285KGM  7386-2747                CONNECTOR ASS'Y          73862747                 0         0         0         0    0    0    00000200000000200000000413000008260000
