AE00TI102209210321/09/202200000001000000000000000000000KGM  00000000000KGM  7273-2981-0WD            CASSETTE BRACKET         727329810WD              0         0         0         0    0    0    00000100000000010000000000000000000000
AE00TI102209210321/09/202200000004000000000000000000000KGM  00000000000KGM  7273-2981-0WE            CASSETTE BRACKET         727329810WE              0         0         0         0    0    0    00000320000000008000000000000000000000
AE00TI102209210321/09/202200000002700000000000000000000KGM  00000000000KGM  7273-2982-0WD            CASSETTE BRACKET         727329820WD              0         0         0         0    0    0    00000270000000010000000000000000000000
AE00TI102209210321/09/202200000001000000000000000000000KGM  00000000000KGM  7273-2982-0WE            CASSETTE BRACKET         727329820WE              0         0         0         0    0    0    00000150000000015000000000000000000000
AE00TI102209210321/09/202200000000100000000000000000000KGM  00000000000KGM  7273-2983-0WD            CASSETTE BRACKET         727329830WD              0         0         0         0    0    0    00000010000000010000000000000000000000
AE00TI102209210321/09/202200000000100000000000000000894KGM  00000001185KGM  7287-9234                JOINT CONNECTOR          72879234                 0         0         0         0    0    0    00000960000000960000000137000013152000
AE00TI102209210321/09/202200000000500000000000000004304KGM  00000005029KGM  7288-3332-30             HOUSING MALE             7288333230               0         0         0         0    0    0    00000750000000150000000354000026550000
AE00TI102209210321/09/202200000000100000000000000000866KGM  00000001012KGM  7288-3338-30             HOUSING MALE             7288333830               0         0         0         0    0    0    00000150000000150000000354000005310000
AE00TI102209210321/09/202200000000300000000000000002059KGM  00000002704KGM  7289-3342-30             HOUSING FEMALE ASS'Y     7289334230               0         0         0         0    0    0    00000720000000240000000191000013752000
AE00TI102209210321/09/202200000000300000000000000002518KGM  00000003358KGM  7289-6868-30             SEALED ASSY FEMALE       7289686830               0         0         0         0    0    0    00000756000000252000000332000025099200
AE00TI102209210321/09/202200000000700000000000000000000KGM  00000000000KGM  7470-5308E               J/B COMPLETE ASS'Y       74705308E                0         0         0         0    0    0    00000007000000001000000000000000000000
AE00TI102209210321/09/202200000001400000000000000000000KGM  00000000000KGM  7470-5782D               J/B COMPLETE ASS'Y       74705782D                0         0         0         0    0    0    00000021000000001500000000000000000000
AE00TI102209210321/09/202200000002000000000000000000000KGM  00000000000KGM  7470-5782E               J/B COMPLETE ASS'Y       74705782E                0         0         0         0    0    0    00000020000000001000000000000000000000
AE00TI102209210321/09/202200000002500000000000000000000KGM  00000000000KGM  7470-5783D               J/B COMPLETE ASS'Y       74705783D                0         0         0         0    0    0    00000037500000001500000000000000000000
AE00TI102209210321/09/202200000001000000000000000000000KGM  00000000000KGM  7470-5784D               J/B COMPLETE ASS'Y       74705784D                0         0         0         0    0    0    00000015000000001500000000000000000000
AE00TI102209210321/09/202200000003000000000000000000000KGM  00000000000KGM  7470-5791D               J/B COMPLETE ASS'Y       74705791D                0         0         0         0    0    0    00000045000000001500000000000000000000
AE00TI102209210321/09/202200000001900000000000000000000KGM  00000000000KGM  7470-5791E               J/B COMPLETE ASS'Y       74705791E                0         0         0         0    0    0    00000019000000001000000000000000000000
AE00TI102209210321/09/202200000001400000000000000000000KGM  00000000000KGM  7470-5823D               J/B COMPLETE ASS'Y       74705823D                0         0         0         0    0    0    00000021000000001500000000000000000000
AE00TI102209210321/09/202200000001000000000000000000000KGM  00000000000KGM  7470-5927D               J/B COMPLETE ASS'Y       74705927D                0         0         0         0    0    0    00000015000000001500000000000000000000
