BI00B1200    7360T52908     202210067195-1937-02             TERMINAL MALE            CCN000015000000015000FN00000000020221101000015000NNE   20220921120519    4P0P  0000150000000059400000088761200    YCYC    006400630015
BI00B1200    8100T52909     202210277298-1145-4W             SQUIB SUB ASS'Y          CCN000010000000010000FN00000000020221101000010000NNE   20220921120519    4N0N  0000100000000078790000094491200    YCYC    005400370024
BI00B32AF    JTB2114        202210217283-5830                CONNECTOR                CCN000006000000006000FN00000000020221101000006000NNMD0020220921120519    1N47  00000600000000954000001104032AF    HBYHVTB 005500360039
BI00B32AF    JTB2114        202210217283-5846                HOUSING                  CCN000010500000010500FN00000000020221101000010500NNMD0020220921120519    1N0N  00000150000000885000001102032AF    HBYHVTB 005600390040
BI00B32AF    JTB210P        202210077282-4576-40             HOUSING MALE ASS'Y       CCN000002400000002400FN00000000020221001000002400NNE   20220921120519    4N0N  00000240000000808800001028832AF    HBYHVTB 005500360039
BI00B32AG    XG2211ELMW     202210077017-1183-02             TERMINAL                 CCN000027000000027000FN00000000020221101000027000NNED0720220921120519    4P0P  00002700000001139400001307432AG    XGXGY   005100280028
BI00B32AG    XG2212ALMW     202211047116-4025                TERMINAL                 CCN000032000000032000FN00000000020221201000032000NNE   20220921120519    4P0P  00001600000000644800000975132AG    XGXGY   006400630017
BI00B32AG    XG2212ALMW     202211047116-4026                TERMINAL                 CCN000032000000032000FN00000000020221201000032000NNE   20220921120519    4P0P  00001600000000664000000994332AG    XGXGY   006400630017
BI00B32AG    XG2212ALMW     202211047172-1372-10             FRONT HOLDER             CCN000003900000003900FN00000000020221201000003900NNE   20220921120519    4F0F  00000390000000655200000955232AG    XGXGY   005500360039
BI00B32AG    XG2212ALMW     202211047289-4696-30             HOUSING FEMALE ASS'Y     CCN000010000000010000FN00000000020221201000010000NNE   20220921120519    4N0N  00000200000000913400001055432AG    XGXGY   005400370024
BI00B32AG    XG2212ALMW     202211047289-7615-30             HOUSING FEMALE ASS'Y     CCN000003520000003520FN00000000020221201000003520NNE   20220921120519    4N0N  00000032000000738000000948032AG    XGXGY   005400370024
BI00B32AG    #XG2212ALMW    202211047158-3120-90             CONNECTOR WIRE SEAL      CCN000060000000060000FN00000000020221201000060000NNE   20220921120519    2C0C  00002000000000136000000194032AG    XGXGY   002700430014
BI00B32AG    #XG2212ALMW    202211047182-9633-40             JOINT CONNECTOR          CCN000006000000006000FN00000000020221201000006000NNE   20220921120519    2F0F  00000300000001335000001460532AG    XGXGY   005400370024
BI00B32AG    XG2212ANMW     202211047116-4121-02             TERMINAL                 CCN000018000000018000FN00000000020221201000018000NNE   20220921120519    4P0P  00000450000000618800000912432AG    XGXGY   006400630015
BI00B32AG    XG2212ANMW     202211047116-4415-02             TERMINAL                 CCN000114000000114000FN00000000020221201000114000NNE   20220921120519    4P0P  00003800000000596600000925732AG    XGXGY   006400630017
BI00B32AG    XG2212ANMW     202211047158-3168-80             SEALED                   CCN000040000000040000FN00000000020221201000040000NNE   20220921120519    1C0C  00002000000000044000000092132AG    XGXGY   004300260014
BI00B32AG    #XG2212ANMW    202211047123-6423-30             CONNECTOR                CCN000004000000004000FN00000000020221201000004000NNE   20220921120519    2F0F  00000200000001002000001167632AG    XGXGY   005600390023
BI00B32A7    ZZ2210BLMW     202210057017-1183-02             TERMINAL                 CCN000027000000027000FN00000000020221001000027000NNED0720220921155535    4P0P  00002700000001139400001307432A7    ZZZZY   005100280028
BI00B32A7    ZZ2210BLMW     202210057114-4729-08             TERMINAL                 CCN000210000000210000FN00000000020221001000210000NNED0720220921155535    4P0P  00003000000000522000000816232A7    ZZZZY   006400630015
BI00B32A7    ZZ2210BLMW     202210057116-3154-08             TERMINAL                 CCN000270000000270000FN00000000020221001000270000NNED0720220921155535    4P0P  00002700000000475200000760432A7    ZZZZY   006400630015
BI00B32A7    ZZ2210BLMW     202210057126-8853-02             TERMINAL                 CCN000022500000022500FN00000000020221001000022500NNED0720220921155535    4P0P  00000750000000562500000847732A7    ZZZZY   006400630015
BI00B32A7    ZZ2210BLMW     202210057137-3047-30             UNIT PACKING             CCN000005000000005000FN00000000020221001000005000NNED0720220921155535    1C0C  00000100000000170500000218932A7    ZZZZY   002700430014
BI00B32A7    ZZ2210BLMW     202210057172-5402-30             SEAL RUBBER              CCN000016000000016000FN00000000020221001000016000NNED0720220921155535    1C0C  00000800000000457600000506032A7    ZZZZY   004300270014
BI00B32A7    ZZ2210BLMW     202210057172-5403-30             SEALED PACKING           CCN000056000000056000FN00000000020221001000056000NNED0720220921155535    1C0C  00000400000000653600000701732A7    ZZZZY   004300270014
BI00B32A7    #ZZ2210BLMW    202210057123-1620                CONNECTOR                CCN000008000000008000FN00000000020221001000008000NNED0720220921155457    2F0F  00000800000001376000001606032A7    ZZZZY   005600390040
BI00B32CC    CTA32129       202210067289-6868-30             SEALED ASSY FEMALE       CCN000010080000010080FN00000000020230101000010080NNE   20220921120519    4N0N  00000252000000839200001119232CC    BIYABCBU005500360039
BI00B32CH    SJ2210ASMW     202210277289-6868-30             SEALED ASSY FEMALE       CCN000005040000005040FN00000000020221001000005040NNED0420220921162256    4N0N  00000252000000839200001119232CH    SJSAMIJF005500360039
BI00B32CH    SJ2210FDMW     202210207287-7598                HOUSING FEMALE ASS'Y     CCN000001000000001000FN00000000020221001000001000NNED0720220921130442    4N0N  00000100000000508000000620532CH    SJSAMIJF005400370024
BI00B32DE    TCT211B        202210067283-4576                HOUSING FEMALE ASS'Y     CCN000004800000004800FN00000000020221101000004800NNE   20220921120519    4N0N  00000480000000651300000871332DE    TVYEV-TV005500360039
BI00B32DE    TCT211B        202210067283-4577-30             CONNECTOR HOUSING        CCN000004800000004800FN00000000020221101000004800NNE   20220921120519    4N0N  00000480000000916800001136832DE    TVYEV-TV005500360039
BI00B32DE    TCT211B        202210067289-3342-30             HOUSING FEMALE ASS'Y     CCN000016800000016800FN00000000020221101000016800NNE   20220921120519    1N0N  00000240000000686400000901432DE    TVYEV-TV005500360039
BI00B32DE    TCT211C        202210207114-4728-02             TERMINAL                 CCN000240000000240000FN00000000020221101000240000NNE   20220921120519    4P0P  00003000000000510000000804232DE    TVYEV-TV006400630015
BI00B32DE    TCT211C        202210207114-5747-02             TERMINAL                 CCN000018000000018000FN00000000020221101000018000NNE   20220921120519    4P0P  00001800000000626400000920032DE    TVYEV-TV006400630015
BI00B32DE    TCT211C        202210207114-5748-02             TERMINAL                 CCN000024000000024000FN00000000020221101000024000NNE   20220921120519    4P0P  00001200000000444000000737632DE    TVYEV-TV006400630015
BI00B32DE    TCT211C        202210207116-3153-08             TERMINAL                 CCN000027000000027000FN00000000020221101000027000NNE   20220921120519    4P0P  00002700000000461700000746932DE    TVYEV-TV006400630015
BI00B32DE    TCT211C        202210207116-5750-02             TERMINAL                 CCN000030000000030000FN00000000020221101000030000NNE   20220921120519    4P0P  00001500000000457500000742732DE    TVYEV-TV006400630015
BI00B32DE    TCT211C        202210207116-5752-02             TERMINAL                 CCN000042000000042000FN00000000020221101000042000NNE   20220921120519    4P0P  00002100000000571200000856432DE    TVYEV-TV006400630015
BI00B32DE    TCT211C        202210207116-6042                TERMINAL                 CCN000006000000006000FN00000000020221101000006000NNE   20220921120519    4P0P  00000300000000523800000856132DE    TVYEV-TV006400630015
BI00B32DE    TCT211C        202210207195-1479-02             TERMINAL MALE            CCN000024000000024000FN00000000020221101000024000NNE   20220921120519    4P0P  00002400000000420000000714232DE    TVYEV-TV006400630015
BI00B32DE    TCT211C        202210207196-1481-02             TERMINAL FEMALE          CCN000120000000120000FN00000000020221101000120000NNE   20220921120519    4P0P  00002400000000422400000707632DE    TVYEV-TV006400630015
BI00B32DE    TCT211C        202210207196-1934-02             TERMINAL FEMALE          CCN000019500000019500FN00000000020221101000019500NNE   20220921120519    4P0P  00001950000000561600000846832DE    TVYEV-TV006400630015
BI00B32DE    TCT211C        202210207196-1936-02             TERMINAL FEMALE          CCN000054000000054000FN00000000020221101000054000NNE   20220921120519    4P0P  00001350000000441500000726732DE    TVYEV-TV006400630015
BI00B32DE    TCT211C        202210207282-4577                HOUSING MALE ASS'Y       CCN000004800000004800FN00000000020221101000004800NNE   20220921120519    4N0N  00000240000000964800001174832DE    TVYEV-TV005500360039
BI00B32DE    TCT211C        202210207283-4576                HOUSING FEMALE ASS'Y     CCN000009600000009600FN00000000020221101000009600NNE   20220921120519    4N0N  00000480000000651300000871332DE    TVYEV-TV005500360039
BI00B32DE    TCT211C        202210207283-4577-30             CONNECTOR HOUSING        CCN000009600000009600FN00000000020221101000009600NNE   20220921120519    4N0N  00000480000000916800001136832DE    TVYEV-TV005500360039
BI00B32DE    TCT211C        202210207288-6547                CONNECTOR MALE ASS'Y     CCN000001500000001500FN00000000020221101000001500NNE   20220921120519    4N0N  00000075000001205300001340332DE    TVYEV-TV005400370024
BI00B32DE    TCT211C        202210207289-3342-30             HOUSING FEMALE ASS'Y     CCN000028800000028800FN00000000020221101000028800NNE   20220921120519    1N0N  00000240000000686400000901432DE    TVYEV-TV005500360039
BI00B32DE    TCT211C        202210207289-3342-90             HOUSING FEMALE ASS'Y     CCN000004800000004800FN00000000020221101000004800NNE   20220921120519    1N0N  00000240000000686400000901432DE    TVYEV-TV005500360039
BI00B32DE    TCT211D        202210277114-4728-02             TERMINAL                 CCN000240000000240000FN00000000020221101000240000NNE   20220921120519    4P0P  00003000000000510000000804232DE    TVYEV-TV006400630015
BI00B32DE    TCT211D        202210277116-6041                TERMINAL                 CCN000004500000004500FN00000000020221101000004500NNE   20220921120519    4P0P  00000450000000716000001009632DE    TVYEV-TV006400630015
BI00B32DE    TCT211D        202210277196-1481-02             TERMINAL FEMALE          CCN000072000000072000FN00000000020221101000072000NNE   20220921120519    4P0P  00002400000000422400000707632DE    TVYEV-TV006400630015
BI00B32DE    TCT211D        202210277196-1936-02             TERMINAL FEMALE          CCN000027000000027000FN00000000020221101000027000NNE   20220921120519    4P0P  00001350000000441500000726732DE    TVYEV-TV006400630015
BI00B32DE    TCT211D        202210277196-1943-02             TERMINAL FEMALE          CCN000012000000012000FN00000000020221101000012000NNE   20220921120519    4P0P  00001200000000492000000777232DE    TVYEV-TV006400630015
BI00B32DE    TCT211D        202210277282-4577                HOUSING MALE ASS'Y       CCN000002400000002400FN00000000020221101000002400NNE   20220921120519    4N0N  00000240000000964800001174832DE    TVYEV-TV005500360039
BI00B32DG    #RL2113A       202210207158-3008-80             RUBBER STOPPER           CCN000020000000020000FN00000000020221101000020000NNE   20220921120519    2C0C  00002000000000288000000343032DG    BFSAIBF 004300270014
BI00B32DG    #RL2113A       202210207286-7860                HOUSING MALE ASS'Y       CCN000000800000000800FN00000000020221101000000800NNE   20220921120519    2N0N  00000080000000951700001139832DG    BFSAIBF 005400370024
BI00B32DG    RP2113A        202210207116-5751-02             TERMINAL                 CCN000012000000012000FN00000000020221101000012000NNE   20220921120519    4P0P  00001200000000379200000664432DG    BFSAIBF 006400630015
BI00B32DG    RP2113A        202210207283-1156                CONNECTOR                CCN000000800000000800FN00000000020221101000000800NNE   20220921120519    4N0N  00000080000000877600001078032DG    BFSAIBF 005600390040
BI00B32DG    RP2113A        202210207116-5752-02             TERMINAL                 CCN000021000000021000FN00000000020221101000021000NNE   20220921120519    4P0P  00002100000000571200000856432DG    BFSAIBF 006400630015
BI00B32DG    RP2113A        202210207282-4578                HOUSING MALE ASS'Y       CCN000001200000001200FN00000000020221101000001200NNE   20220921120519    4N0N  00000120000000782600000992632DG    BFSAIBF 005500360039
BI00B32DG    RP2113A        202210207286-1915                CONNECTOR SUB ASSY       CCN000001600000001600FN00000000020221101000001600NNE   20220921120519    4N0N  00000160000000965600001165632DG    BFSAIBF 005500360039
BI00B32DJ    GHT2211B 2     202210207114-4416-02             TERMINAL MALE            CCN000027000000000000FY00000000020221101000000000NNMQ0820220921145005    4P0P  00002700000000442800000731032DJ    RBYIPLRB006400630015
BI00B32J1    398099         202210037327-6840-3W             BATTERY FUSE             CCN000005976000005976FN00000000020221001000005976NNMD0420220921132010    4N0N  00000007200001140900001355932J1    UKYEL-BL005500360039
BI00A32J1    398385         202210037327-6654-3W             BATTERY FUSE             CCN000000288000000288FN00000000020221001000000288NNMM0020220921144522    4N0N  00000009600001132300001312432J1    UKYEL-BL005500360039
BI00B32K8    #K1220011829   202210207137-2719-50             SEALED CONNECTOR         CCN000005000000005000FN00000000020221201000005000NNMD0720220921131125    2C0C  00000100000000120700000185732K8    ELELCOM 002700430014
BI00B32K8    #K1220011827   202210077137-2200                CONNECTOR PACKING        CCN000005000000005000FN00000000020230101000005000NNM   20220921131151    2C0C  00000500000000136000000211332K8    ELELCOM 004300270014
BI00B32K8    #K1220011828   202210217137-2718-50             SEALED CONNECTOR         CCN000003000000003000FN00000000020230101000003000NNM   20220921131207    2C0C  00000100000000118300000236632K8    ELELCOM 002700430014
BI00B32M1    QA-22-C084     202209237289-3342-30             HOUSING FEMALE ASS'Y     PNY000002754000004800FN00000000020220901000004800NNE00020220921165434    1N0N  00000240000000686400000901432M1    VNYEV   005500360039
BI00B32M1    TCV211A        202210277298-3484                HOUSING FEMALE ASS'Y     CCN000002700000002700FN00000000020221101000002700NNE   20220921120519    4N0N  00000270000000742500001028732M1    VNYEV   005400370024
BI00B32M3    SM2210AHMW     202210277C89-6868-30             SEALED ASSY FEMALE       CCN000010080000010080FN00000000020221001000010080NNED0420220921162341    4N0N  00000252000000839200001119232M3    SASAMI  005500360039
BI00B32M4    #TL2113A       202210207189-3036                HOUSING FEMALE           CCN000001600000001600FN00000000020221101000001600NNE   20220921120519    2F0F  00000160000000921600001141632M4    SISAI   005500360039
BI00B32M4    #TL2113A       202210207183-1616                CONNECTOR HOUSING        CCN000002400000002400FN00000000020221101000002400NNE   20220921120519    2F0F  00000240000000557500000823332M4    SISAI   005500360039
BI00B32M4    TP2113A        202210207114-4729-02             TERMINAL                 CCN000030000000030000FN00000000020221101000030000NNE   20220921120519    4P0P  00003000000000516000000810232M4    SISAI   006400630015
BI00B32M4    TP2113A        202210207116-5042-02             TERMINAL                 CCN000013500000013500FN00000000020221101000013500NNE   20220921120519    4P0P  00001350000000560300000845532M4    SISAI   006400630015
BI00B32M4    TP2113A        202210207195-0783-08             TERMINAL                 CCN000030000000030000FN00000000020221101000030000NNE   20220921120519    4P0P  00003000000000507000000801232M4    SISAI   006400630015
BI00B32M4    TP2113A        202210207283-1289-30             CONNECTOR HOUSING        CCN000000600000000600FN00000000020221101000000600NNE   20220921120519    1N0N  00000060000000675600000820632M4    SISAI   005400370024
BI00B32M4    #TP2113A       202210207289-4104-40             HOUSING FEMALE ASS'Y     CCN000003888000004000FN00000000020221101000004000NNE   20220921120519    2NON  00000050000000606900000821132M4    SISAI   005400370024
BI00B32M4    @TP2113A       202210207187-1769-30             HOUSING FEMALE           CCN000002000000002000FN00000000020221101000002000NNE   20220921120519    3F0F  00000200000001032600001179032M4    SISAI   005500360039
BI00B32U9    TP0420S        202210277298-1186-40             SQUIB SUB ASS'Y          CCN000210000000210000FN00000000020221201000210000NNED0020220921162627U9  4N0N  00001000000000650000000774532U9    YNYNA-E 005400370024
BI00B32U9    TPA246         202211177289-6868-30             SEALED ASSY FEMALE       CCN000020160000020160FN00000000020221201000020160NNMD0420220921162504U9  4N0N  00000252000000839200001119232U9    YNYNA-E 005500360039
BI00B32U9    TPA246         202210277298-1186-40             SQUIB SUB ASS'Y          CCN000050000000050000FN00000000020221201000050000NNMD0020220921162612U9  4N0N  00001000000000650000000774532U9    YNYNA-E 005400370024
BI00A32U9    TP0016E        202209267196-0805-02             TERMINAL FEMALE          CCN000067500000067500FN00000000020220901000067500NNED0720220921131327U9  4P0P  00002250000000558000000843232U9    YNYNA-E 006400630015
BI00B32W4    #4500194558    202209297147-3642-30             CLIP                     CCN000054000000054000FN00000000020220801000054000NNED0420220921144544W4172F0F  00000300000000542000000721332W417  HJYHK   005600390040
BI00B32W4    #4500195610    202209297147-3642-30             CLIP                     CCN000042000000042000FN00000000020220901000042000NNED0420220921144604W4172F0F  00000300000000542000000721332W417  HJYHK   005600390040
BI00A32W4    #4500195673    202209297282-8395-40             CONNECTOR                CCN000010000000010000FN00000000020220801000010000NNE00020220921152930W9172N0N  00000100000001009000001188032W917  HJYHK   005500360039
BI00A32W4    4500197960     202209297116-4110-02             TERMINAL                 CCN000018000000018000FN00000000020221001000018000NNED0020220921154212W4494P0P  00000900000000594000000882232W449  HJYHK   006400630015
BI00B32W4    #4500198024    202209227147-3642-30             CLIP                     CCN000015000000009000FN00000000020220901000009000NNED0320220921144652W4A22F0F  00000300000000542000000721332W4A2  HJYHK-J 005600390040
BI00A32W4    4500198676     202209287116-4025                TERMINAL                 CCN000112000000112000FN00000000020221001000112000NNED0020220921135053W4M54P0P  00001600000000644800000975132W4M5  HJYHK-J 006400630017
BI00B32W4    4500200532     202210207289-6868-30             SEALED ASSY FEMALE       CCN000005040000005040FN00000000020221001000005040NNED0420220921162145W4D44N0N  00000252000000839200001119232W4D4  HJYHK-J 005500360039
BI00A32W4    #4500200781    202209267189-3033                HOUSING FEMALE           CCN000008000000008000FN00000000020220901000008000NNE   20220921120519W4O22F0F  00000160000001211200001431232W4O2  HJYHK-J 005500360039
BI00A32W4    @4500200819    202210207286-1238-30             CONNECTOR                CCN000003600000003600FN00000000020221001000003600NNE   20220921120519W4763N0N  00000120000001224000001466032W476  HJYHK-J 005500360039
BI00A32W4    #4500200826    202210107158-3610-80             RUBBER STOPPER           CCN000009000000009000FN00000000020221001000009000NNE   20220921120519W4512H0H  00000300000000396900000438932W451  HJ32W9  004300270014
BI00B32W4    4500200786     202211247282-4855                HOUSING MALE ASS'Y       CCN000004800000004800FN00000000020221101000004800NNE   20220921120519W4L64N0N  00000120000001063200001283232W4L6  HJYHK-K 005500360039
BI00B32W4    4500200786     202211247114-6041                TERMINAL                 CCN000039600000039600FN00000000020221101000039600NNE   20220921120519W4L64P0P  00000360000000580700000824232W4L6  HJYHK-K 006400630015
BI00B32W4    4500200786     202211247283-1156                CONNECTOR                CCN000012000000012000FN00000000020221101000012000NNE   20220921120519W4L64N0N  00000080000000877600001078032W4L6  HJYHK-K 005600390040
BI00B32W4    @4500200786    202211247287-6634                HOUSING FEMALE ASS'Y     CCN000012000000012000FN00000000020221101000012000NNE   20220921120519W4L63N0N  00000240000001088400001337032W4L6  HJYHK-K 005500360039
BI00A32W4    4500200790     202211217116-4111-02             TERMINAL                 CCN000007500000007500FN00000000020221101000007500NNE   20220921120519W4194P0P  00000750000000529500000817732W419  HJYHK   006400630015
BI00A32W4    4500200801     202211217282-4855                HOUSING MALE ASS'Y       CCN000001200000001200FN00000000020221101000001200NNE   20220921120519W4M54N0N  00000120000001063200001283232W4M5  HJYHK-J 005500360039
BI00A32W4    4500200801     202211217158-3165-90             WIRE SEAL                CCN000040000000040000FN00000000020221101000040000NNE   20220921120519W4M51C0C  00004000000000124000000172432W4M5  HJYHK-J 004300270014
BI00A32W4    4500200801     202211217283-1030                CONNECTOR                CCN000006000000006000FN00000000020221101000006000NNE   20220921120519W4M54N0N  00000600000000988000001172032W4M5  HJYHK-J 005500360039
BI00A32W4    4500200802     202211287116-4112-02             TERMINAL                 CCN000012000000012000FN00000000020221101000012000NNE   20220921120519W4M54P0P  00000600000000450000000738232W4M5  HJYHK-J 006400630015
BI00A32W4    4500200813     202211217158-3167-80             WIRE SEAL                CCN000080000000080000FN00000000020221101000080000NNE   20220921120519W4G91C0C  00002000000000048000000109032W4G9  HJYHK-J 002700430014
BI00A32W4    #4500200813    202211217157-7897-60             SEAL RUBBER              CCN000010000000010000FN00000000020221101000010000NNE   20220921120519W4G92C0C  00001000000000132000000214732W4G9  HJYHK-J 002700430014
BI00B32W4    4500200816     202211107282-8120-40             CONNECTOR HOUSING        CCN000003000000003000FN00000000020221101000003000NNE   20220921120519W4171N0N  00000300000001356000001520032W417  HJYHK   005500360039
BI00B32W4    4500200817     202211177283-5843                CONNECTOR                CCN000003000000003000FN00000000020221101000003000NNE   20220921120519W4171N0N  00000150000000889000001132032W417  HJYHK   005600390040
BI00B32W4    4500200817     202211177283-5832                CONNECTOR HOUSING        CCN000002400000002400FN00000000020221101000002400NNE   20220921120519W4171N47  00000240000000723800000873832W417  HJYHK   005500360039
BI00B32W4    #4500200817    202211177183-8927                HOUSING                  CCN000004000000004000FN00000000020221101000004000NNE   20220921120519W4172F0F  00000400000000714000000912732W417  HJYHK   005500360039
BI00B32W4    #4500200817    202211177282-3020                CONNECTOR                CCN000004000000004000FN00000000020221101000004000NNE   20220921120519W4172N0N  00000100000000984000001145432W417  HJYHK   005500360039
BI00B32W4    4500200825     202211107116-4103-02             TERMINAL                 CCN000012000000012000FN00000000020221101000012000NNE   20220921120519W4374P0P  00001200000000571200000859432W437  HJYHK   006400630015
BI00B32W4    4500200825     202211107158-3166-60             WIRE SEAL                CCN000080000000080000FN00000000020221101000080000NNE   20220921120519W4371C0C  00004000000000104000000152432W437  HJYHK   002700430014
BI00B32W4    #4500200825    202211107158-3003-90             RUBBER STOPPER           CCN000020000000020000FN00000000020221101000020000NNE   20220921120519W4372C0C  00002000000000250000000306032W437  HJYHK   002700430014
BI00B32W4    #4500200825    202211107183-2414                CONNECTOR HOUSING        CCN000033600000033600FN00000000020221101000033600NNE   20220921120519W4372F0F  00000480000000779200001061032W437  HJYHK   005500360039
BI00B32W4    #4500200818    202212017147-3642-30             CLIP                     CCN000054000000054000FN00000000020221201000054000NNE   20220921120519W4172F0F  00000300000000542000000721332W417  HJYHK   005600390040
BI00B32W4    #4500198024    202209297147-3642-30             CLIP                     CCN000006000000006000FN00000000020220901000006000NNED0320220921144652W4A22F0F  00000300000000542000000721332W4A2  HJYHK-J 005600390040
BI00B32W6    SW2211AQMW     202210267116-3154-08             TERMINAL                 CCN000027000000027000FN00000000020221101000027000NNE   20220921120519    4P0P  00002700000000475200000760432W6    SYSYA-WJ006400630015
BI00B32W6    SW2211AQMW     202210267116-6041                TERMINAL                 CCN000013500000013500FN00000000020221101000013500NNE   20220921120519    4P0P  00000450000000716000001009632W6    SYSYA-WJ006400630015
BI00B32W6    SW2211AQMW     202210267126-8853-02             TERMINAL                 CCN000015000000015000FN00000000020221101000015000NNE   20220921120519    4P0P  00000750000000562500000847732W6    SYSYA-WJ006400630015
BI00B32W6    SW2211AQMW     202210267158-3165-90             WIRE SEAL                CCN000040000000040000FN00000000020221101000040000NNE   20220921120519    1C0C  00004000000000124000000172432W6    SYSYA-WJ004300270014
BI00B32W6    #SW2211AQMW    202210267183-2418-30             CONNECTOR HOUSING        CCN000004800000004800FN00000000020221101000004800NNE   20220921120519    2F0F  00000480000000917000001235332W6    SYSYA-WJ005500360039
BI00B32W6    #SW2211AQMW    202210267198-1371-60             HOUSING FEMALE           CCN000002000000002000FN00000000020221101000002000NNE   20220921120519    2F0F  00000200000000597800000721232W6    SYSYA-WJ005400370024
BI00B32W6    #SW2211AQMW    202210267198-1372                HOUSING FEMALE           CCN000002000000002000FN00000000020221101000002000NNE   20220921120519    2F0F  00000200000000857200000982232W6    SYSYA-WJ005400370024
BI00A32W9    4500199074     202211017282-6568-40             CONNECTOR                CCN000020000000020000FN00000000020220801000020000NNED0420220921120519W9  4N0N  00000100000001206000001370732W9    HKYHK   005500360039
BI00B32W9    4500200566     202302147289-6868-30             SEALED ASSY FEMALE       CCN000002520000002520FN00000000020221101000002520NNED0420220921162322W9  4N0N  00000252000000839200001119232W9    HKYHK   005500360039
BI00B32W9    #4500200783    202210117283-8398-40             CONNECTOR                CCN000007700000007700FN00000000020221001000007700NNE   20220921120519W9  2N0N  00000154000001007000001171332W9    HKYHK   005600390023
BI00B32W9    4500200784     202210117289-9553-50             SEALED ASSY FEMALE       CCN000008820000008820FN00000000020221001000008820NNE   20220921120519W9  4N0N  00000294000001108100001520632W9    HKYHK   005500360039
