AE00TI102209210521/09/202200000001600000000000000008160KGM  00000012867KGM  7114-4728-02             TERMINAL                 7114472802               0         0         0         0    0    0    00048000000003000000000014000067200000
AE00TI102209210521/09/202200000003200000000000000018528KGM  00000027750KGM  7116-1471                TERMINAL                 71161471                 0         0         0         0    0    0    00048000000001500000000034000163200000
AE00TI102209210521/09/202200000001600000000000000008208KGM  00000012771KGM  7116-4020                TERMINAL                 71164020                 0         0         0         0    0    0    00021600000001350000000028000060480000
AE00TI102209210521/09/202200000001600000000000000010941KGM  00000016200KGM  7116-4231-02             TERMINAL                 7116423102               0         0         0         0    0    0    00041600000002600000000022000091520000
AE00TI102209210521/09/202200000000900000000000000007810KGM  00000009610KGM  7173-3291-40             LIF LEVER                7173329140               0         0         0         0    0    0    00002160000000240000000142000030672000
AE00TI102209210521/09/202200000000300000000000000002945KGM  00000003870KGM  7298-5993-30             SEALED ASSY FEMALE       7298599330               0         0         0         0    0    0    00000655200000218400000266000017428320
AE00TI102209210521/09/202200000004800000000000000026832KGM  00000038832KGM  7370-0310                J/B ASS'Y                73700310                 0         0         0         0    0    0    00000048000000001000031643000151886400
AE00TI102209210521/09/202200000001200000000000000008904KGM  00000013464KGM  7388-2978-30             HOUSING MALE ASS'Y       7388297830               0         0         0         0    0    0    00000576000000048000001790000103104000
AE00TI102209210521/09/202200000001800000000000000023760KGM  00000028260KGM  7470-5237                J/B ASS'Y                74705237                 0         0         0         0    0    0    00000043200000002400031359000135470880
AE00TI102209210521/09/202200000003000000000000000000000KGM  00000000000KGM  7470-5783D               J/B COMPLETE ASS'Y       74705783D                0         0         0         0    0    0    00000045000000001500000000000000000000
AE00TI102209210621/09/202200000003000000000000000002985KGM  00000007485KGM  7140-1977-30             UPPER COVER              7140197730               0         0         0         0    0    0    00000030000000001000002698000008094000
AE00TI102209210621/09/202200000002400000000000000007934KGM  00000009264KGM  7158-3006-90             RUBBER STOPPER           7158300690               0         0         0         0    0    0    00048000000002000000000016000076800000
AE00TI102209210621/09/202200000001500000000000000005070KGM  00000005793KGM  7158-3009-60             RUBBER STOPPER           7158300960               0         0         0         0    0    0    00030000000002000000000012000036000000
AE00TI102209210621/09/202200000001700000000000000001768KGM  00000002591KGM  7158-3166-60             WIRE SEAL                7158316660               0         0         0         0    0    0    00068000000004000000000004000027200000
AE00TI102209210621/09/202200000002000000000000000000960KGM  00000002180KGM  7158-3167-80             WIRE SEAL                7158316780               0         0         0         0    0    0    00040000000002000000000005000020000000
AE00TI102209210621/09/202200000000600000000000000000264KGM  00000000553KGM  7158-3168-80             SEALED                   7158316880               0         0         0         0    0    0    00012000000002000000000004000004800000
AE00TI102209210621/09/202200000000200000000000000000312KGM  00000000408KGM  7158-3169-40             SEALING PLUG             7158316940               0         0         0         0    0    0    00008000000004000000000006000004800000
AE00TI102209210621/09/202200000000800000000000000003661KGM  00000004048KGM  7172-5402-30             SEAL RUBBER              7172540230               0         0         0         0    0    0    00006400000000800000000077000049280000
AE00TI102209210621/09/202200000000100000000000000001137KGM  00000001298KGM  7183-2417                CONNECTOR HOUSING        71832417                 0         0         0         0    0    0    00000240000000240000000138000003312000
AE00TI102209210621/09/202200000000100000000000000000917KGM  00000001235KGM  7183-2418-30             CONNECTOR HOUSING        7183241830               0         0         0         0    0    0    00000480000000480000000082000003936000
AE00TI102209210621/09/202200000000400000000000000003464KGM  00000004044KGM  7288-3329-30             HOUSING MALE             7288332930               0         0         0         0    0    0    00000600000000150000000354000021240000
AE00TI102209210621/09/202200000002100000000000000014414KGM  00000018929KGM  7289-3342-30             HOUSING FEMALE ASS'Y     7289334230               0         0         0         0    0    0    00005040000000240000000191000096264000
AE00TI102209210621/09/202200000001000000000000000005490KGM  00000007590KGM  7289-5000                HOUSING FEMALE ASS'Y     72895000                 0         0         0         0    0    0    00000304000000030400000650000019760000
AE00TI102209210621/09/202200000000500000000000000004196KGM  00000005596KGM  7289-6868-30             SEALED ASSY FEMALE       7289686830               0         0         0         0    0    0    00001260000000252000000332000041832000
AE00TI102209210621/09/202200000000200000000000000002216KGM  00000003041KGM  7289-9553-50             SEALED ASSY FEMALE       7289955350               0         0         0         0    0    0    00000588000000294000000252000014817600
AE00TI102209210621/09/202200000000400000000000000003926KGM  00000005160KGM  7298-5993-30             SEALED ASSY FEMALE       7298599330               0         0         0         0    0    0    00000873600000218400000266000023237760
AE00TI102209210621/09/202200000000800000000000000008876KGM  00000010077KGM  7327-6572-3W             BATTERY FUSE             732765723W               0         0         0         0    0    0    00000076800000009600008162000062684160
AE00TI102209210621/09/202200000000400000000000000004564KGM  00000005424KGM  7327-6840-3W             BATTERY FUSE             732768403W               0         0         0         0    0    0    00000028800000007200009909000028537920
AE00TI102209210621/09/202200000000200000000000000001990KGM  00000002250KGM  7388-0313-30             CONNECTOR ASS'Y          7388031330               0         0         0         0    0    0    00000240000000120000000376000009024000
AE00TI102209210621/09/202200000000300000000000000002226KGM  00000003366KGM  7388-2978-30             HOUSING MALE ASS'Y       7388297830               0         0         0         0    0    0    00000144000000048000001790000025776000
AE00TI102209210621/09/202200000000400000000000000005280KGM  00000006280KGM  7470-3082                J/B COMPLETE ASS'Y       74703082                 0         0         0         0    0    0    00000009600000002400031298000030046080
AE00TI102209210621/09/202200000001400000000000000018480KGM  00000021980KGM  7470-5237                J/B ASS'Y                74705237                 0         0         0         0    0    0    00000033600000002400031359000105366240
AE00TI102209210621/09/202200000001500000000000000000000KGM  00000000000KGM  7470-5783D               J/B COMPLETE ASS'Y       74705783D                0         0         0         0    0    0    00000022500000001500000000000000000000
AE00TI102209210621/09/202200000001800000000000000000000KGM  00000000000KGM  7470-5783E               J/B COMPLETE ASS'Y       74705783E                0         0         0         0    0    0    00000018000000001000000000000000000000
AE00TI102209210621/09/202200000003600000000000000017784KGM  00000023796KGM  7470-5935                J/B COMPLETE ASS'Y       74705935                 0         0         0         0    0    0    00000036000000001000000000000000000000
