AE00TI102209210121/09/202200000000500000000000000003113KGM  00000003810KGM  7B74-1849-70             COVER                    7B74184970               0         0         0         0    0    0    00012500000002500000000046000057500000
AE00TI102209210121/09/202200000000600000000000000005207KGM  00000006407KGM  7173-3291-40             LIF LEVER                7173329140               0         0         0         0    0    0    00001440000000240000000142000020448000
AE00TI102209210121/09/202200000000500000000000000005687KGM  00000006489KGM  7183-2417                CONNECTOR HOUSING        71832417                 0         0         0         0    0    0    00001200000000240000000138000016560000
AE00TI102209210121/09/202200000000100000000000000000917KGM  00000001137KGM  7283-4577                CONNECTOR HOUSING        72834577                 0         0         0         0    0    0    00000480000000480000000172000008256000
AE00TI102209210121/09/202200000000900000000000000007746KGM  00000009051KGM  7288-3332-30             HOUSING MALE             7288333230               0         0         0         0    0    0    00001350000000150000000354000047790000
AE00TI102209210121/09/202200000000300000000000000002601KGM  00000003036KGM  7288-3337-30             HOUSING MALE             7288333730               0         0         0         0    0    0    00000450000000150000000354000015930000
AE00TI102209210121/09/202200000000400000000000000003464KGM  00000004048KGM  7288-3338-30             HOUSING MALE             7288333830               0         0         0         0    0    0    00000600000000150000000354000021240000
AE00TI102209210121/09/202200000003200000000000000021965KGM  00000028845KGM  7289-3342-30             HOUSING FEMALE ASS'Y     7289334230               0         0         0         0    0    0    00007680000000240000000191000146688000
AE00TI102209210121/09/202200000001900000000000000010431KGM  00000014421KGM  7289-5000                HOUSING FEMALE ASS'Y     72895000                 0         0         0         0    0    0    00000577600000030400000650000037544000
AE00TI102209210121/09/202200000000800000000000000006634KGM  00000008394KGM  7289-6518-30             HOUSING FEMALE ASS'Y     7289651830               0         0         0         0    0    0    00000960000000120000000598000057408000
AE00TI102209210121/09/202200000000100000000000000001290KGM  00000001540KGM  7289-6597-70             HOUSING FEMALE ASS'Y     7289659770               0         0         0         0    0    0    00000216000000216000000616000013305600
AE00TI102209210121/09/202200000001000000000000000008392KGM  00000011192KGM  7289-6868-30             SEALED ASSY FEMALE       7289686830               0         0         0         0    0    0    00002520000000252000000332000083664000
AE00TI102209210121/09/202200000000100000000000000001097KGM  00000001359KGM  7298-4094-10             HOUSING FEMALE ASS'Y     7298409410               0         0         0         0    0    0    00000338000000338000000241000008145800
AE00TI102209210121/09/202200000000500000000000000004908KGM  00000006450KGM  7298-5993-30             SEALED ASSY FEMALE       7298599330               0         0         0         0    0    0    00001092000000218400000266000029047200
AE00TI102209210121/09/202200000000300000000000000003329KGM  00000003779KGM  7327-6572-3W             BATTERY FUSE             732765723W               0         0         0         0    0    0    00000028800000009600008162000023506560
AE00TI102209210121/09/202200000000600000000000000006845KGM  00000008135KGM  7327-6840-3W             BATTERY FUSE             732768403W               0         0         0         0    0    0    00000043200000007200009909000042806880
AE00TI102209210121/09/202200000000300000000000000003114KGM  00000003397KGM  7388-0314                CONNECTOR ASS'Y          73880314                 0         0         0         0    0    0    00000360000000120000000364000013104000
AE00TI102209210121/09/202200000003500000000000000025970KGM  00000039270KGM  7388-2978-30             HOUSING MALE ASS'Y       7388297830               0         0         0         0    0    0    00001680000000048000001790000300720000
AE00TI102209210121/09/202200000000800000000000000010560KGM  00000012560KGM  7470-3082                J/B COMPLETE ASS'Y       74703082                 0         0         0         0    0    0    00000019200000002400031298000060092160
AE00TI102209210121/09/202200000001000000000000000000000KGM  00000000000KGM  7470-4816D               J/B COMPLETE ASS'Y       74704816D                0         0         0         0    0    0    00000015000000001500000000000000000000
AE00TI102209210121/09/202200000000300000000000000000000KGM  00000000000KGM  7470-4818E               J/B COMPLETE ASS'Y       74704818E                0         0         0         0    0    0    00000003000000001000000000000000000000
AE00TI102209210121/09/202200000000800000000000000010560KGM  00000012560KGM  7470-5237                J/B ASS'Y                74705237                 0         0         0         0    0    0    00000019200000002400031359000060209280
AE00TI102209210121/09/202200000001800000000000000000000KGM  00000000000KGM  7470-5308E               J/B COMPLETE ASS'Y       74705308E                0         0         0         0    0    0    00000018000000001000000000000000000000
AE00TI102209210121/09/202200000001500000000000000000000KGM  00000000000KGM  7470-5784D               J/B COMPLETE ASS'Y       74705784D                0         0         0         0    0    0    00000022500000001500000000000000000000
AE00TI102209210121/09/202200000002900000000000000000000KGM  00000000000KGM  7470-5784E               J/B COMPLETE ASS'Y       74705784E                0         0         0         0    0    0    00000029000000001000000000000000000000
