AE00TI102209210221/09/202200000000100000000000000001548KGM  00000001738KGM  7123-1801-30             HOUSING                  7123180130               0         0         0         0    0    0    00000560000000560000000157000008792000
AE00TI102209210221/09/202200000001700000000000000002899KGM  00000003721KGM  7137-3047-30             UNIT PACKING             7137304730               0         0         0         0    0    0    00001700000000100000000189000032130000
AE00TI102209210221/09/202200000009000000000000000008955KGM  00000022455KGM  7140-1977-30             UPPER COVER              7140197730               0         0         0         0    0    0    00000090000000001000002698000024282000
AE00TI102209210221/09/202200000000500000000000000002710KGM  00000003607KGM  7147-3642-30             CLIP                     7147364230               0         0         0         0    0    0    00001500000000300000000074000011100000
AE00TI102209210221/09/202200000000100000000000000000827KGM  00000001102KGM  7154-5712-30             CASSETTE R/B             7154571230               0         0         0         0    0    0    00000080000000080000000288000002304000
AE00TI102209210221/09/202200000005000000000000000016530KGM  00000019300KGM  7158-3006-90             RUBBER STOPPER           7158300690               0         0         0         0    0    0    00100000000002000000000016000160000000
AE00TI102209210221/09/202200000001700000000000000005746KGM  00000006565KGM  7158-3009-60             RUBBER STOPPER           7158300960               0         0         0         0    0    0    00034000000002000000000012000040800000
AE00TI102209210221/09/202200000000400000000000000001104KGM  00000001333KGM  7158-3070-80             RUBBER STOPPER           7158307080               0         0         0         0    0    0    00016000000004000000000008000012800000
AE00TI102209210221/09/202200000001500000000000000001560KGM  00000002286KGM  7158-3166-60             WIRE SEAL                7158316660               0         0         0         0    0    0    00060000000004000000000004000024000000
AE00TI102209210221/09/202200000000900000000000000000396KGM  00000000829KGM  7158-3168-80             SEALED                   7158316880               0         0         0         0    0    0    00018000000002000000000004000007200000
AE00TI102209210221/09/202200000000700000000000000001092KGM  00000001429KGM  7158-3169-40             SEALING PLUG             7158316940               0         0         0         0    0    0    00028000000004000000000006000016800000
AE00TI102209210221/09/202200000001000000000000000007621KGM  00000009803KGM  7171-6292                HOUSING                  71716292                 0         0         0         0    0    0    00000180000000018000001240000022320000
AE00TI102209210221/09/202200000001200000000000000002232KGM  00000002813KGM  7172-5540-80             SEALED WIRE SEAL         7172554080               0         0         0         0    0    0    00024000000002000000000010000024000000
AE00TI102209210221/09/202200000000100000000000000000592KGM  00000000712KGM  7174-1164                COVER                    71741164                 0         0         0         0    0    0    00000080000000080000000173000001384000
AE00TI102209210221/09/202200000001000000000000000007693KGM  00000008893KGM  7174-1314-30             SEALED COVER             7174131430               0         0         0         0    0    0    00000800000000080000000451000036080000
AE00TI102209210221/09/202200000000100000000000000001282KGM  00000001477KGM  7182-4941                DOUBLE SIDED             71824941                 0         0         0         0    0    0    00000100000000100000000816000008160000
AE00TI102209210221/09/202200000000100000000000000001059KGM  00000001246KGM  7183-2412                HOUSING                  71832412                 0         0         0         0    0    0    00000160000000160000000155000002480000
AE00TI102209210221/09/202200000000100000000000000000478KGM  00000000760KGM  7183-2413                CONNECTOR HOUSING        71832413                 0         0         0         0    0    0    00000480000000480000000074000003552000
AE00TI102209210221/09/202200000000300000000000000001433KGM  00000002279KGM  7183-2413-30             CONNECTOR HOUSING        7183241330               0         0         0         0    0    0    00001440000000480000000076000010944000
AE00TI102209210221/09/202200000000100000000000000000779KGM  00000001061KGM  7183-2414                CONNECTOR HOUSING        71832414                 0         0         0         0    0    0    00000480000000480000000050000002400000
AE00TI102209210221/09/202200000000100000000000000000821KGM  00000001104KGM  7183-6320                HOUSING                  71836320                 0         0         0         0    0    0    00000480000000480000000092000004416000
AE00TI102209210221/09/202200000001200000000000000013240KGM  00000014974KGM  7183-7665-30             HOUSING                  7183766530               0         0         0         0    0    0    00001440000000120000000242000034848000
AE00TI102209210221/09/202200000000300000000000000001736KGM  00000002057KGM  7189-9516-40             HOUSING                  7189951640               0         0         0         0    0    0    00000600000000200000000238000014280000
AE00TI102209210221/09/202200000000200000000000000001167KGM  00000001381KGM  7189-9518-30             HOUSING                  7189951830               0         0         0         0    0    0    00000400000000200000000236000009440000
AE00TI102209210221/09/202200000000200000000000000001159KGM  00000001373KGM  7189-9519-80             HOUSING                  7189951980               0         0         0         0    0    0    00000400000000200000000243000009720000
AE00TI102209210221/09/202200000000200000000000000001157KGM  00000001371KGM  7189-9520-10             HOUSING                  7189952010               0         0         0         0    0    0    00000400000000200000000239000009560000
AE00TI102209210221/09/202200000000400000000000000004120KGM  00000004704KGM  7222-7484-40             CONNECTOR                7222748440               0         0         0         0    0    0    00000400000000100000000758000030320000
AE00TI102209210221/09/202200000001400000000000000013538KGM  00000015358KGM  7222-7564-40             CONNECTOR                7222756440               0         0         0         0    0    0    00000700000000050000001166000081620000
AE00TI102209210221/09/202200000000100000000000000000937KGM  00000001123KGM  7222-7923-40             CONNECTOR                7222792340               0         0         0         0    0    0    00000060000000060000000834000005004000
AE00TI102209210221/09/202200000000100000000000000001124KGM  00000001213KGM  7282-7028-30             CONNECTOR                7282702830               0         0         0         0    0    0    00000200000000200000000248000004960000
AE00TI102209210221/09/202200000000400000000000000005424KGM  00000006080KGM  7282-8120-30             CONNECTOR HOUSING        7282812030               0         0         0         0    0    0    00001200000000300000000000000000000000
AE00TI102209210221/09/202200000000500000000000000006780KGM  00000007600KGM  7282-8120-40             CONNECTOR HOUSING        7282812040               0         0         0         0    0    0    00001500000000300000000215000032250000
AE00TI102209210221/09/202200000000100000000000000000730KGM  00000000903KGM  7283-1015-10             CONNECTOR                7283101510               0         0         0         0    0    0    00000200000000200000000624000012480000
AE00TI102209210221/09/202200000000200000000000000001338KGM  00000001865KGM  7283-1140                CONNECTOR HOUSING        72831140                 0         0         0         0    0    0    00000300000000150000000259000007770000
AE00TI102209210221/09/202200000000300000000000000002633KGM  00000003234KGM  7283-1156                CONNECTOR                72831156                 0         0         0         0    0    0    00000240000000080000000810000019440000
AE00TI102209210221/09/202200000000200000000000000002762KGM  00000003274KGM  7283-1288-10             CONNECTOR HOUSING        7283128810               0         0         0         0    0    0    00000240000000120000000785000018840000
AE00TI102209210221/09/202200000000800000000000000011056KGM  00000013126KGM  7283-1288-40             CONNECTOR HOUSING        7283128840               0         0         0         0    0    0    00000960000000120000000785000075360000
AE00TI102209210221/09/202200000000100000000000000001160KGM  00000001341KGM  7283-1485                CONNECTOR                72831485                 0         0         0         0    0    0    00000200000000200000000366000007320000
AE00TI102209210221/09/202200000000200000000000000002280KGM  00000002637KGM  7283-1968-30             CONNECTOR                7283196830               0         0         0         0    0    0    00000180000000090000000687000012366000
AE00TI102209210221/09/202200000000100000000000000000990KGM  00000001249KGM  7283-7526                CONNECTOR HOUSING        72837526                 0         0         0         0    0    0    00000196000000196000000503000009858800
AE00TI102209210221/09/202200000000200000000000000001980KGM  00000002497KGM  7283-7526-30             CONNECTOR HOUSING        7283752630               0         0         0         0    0    0    00000392000000196000000506000019835200
AE00TI102209210221/09/202200000000200000000000000001980KGM  00000002497KGM  7283-7526-40             CONNECTOR HOUSING        7283752640               0         0         0         0    0    0    00000392000000196000000504000019756800
AE00TI102209210221/09/202200000000100000000000000000815KGM  00000001011KGM  7286-1899                HOUSING SUB ASSEMBLY     72861899                 0         0         0         0    0    0    00000033600000033600000853000002866080
AE00TI102209210221/09/202200000000100000000000000000967KGM  00000001168KGM  7286-1917                CONNECTOR MALE ASS'Y     72861917                 0         0         0         0    0    0    00000120000000120000000517000006204000
AE00TI102209210221/09/202200000000300000000000000001613KGM  00000002070KGM  7287-9323                UNSEALED HOUSING SUB     72879323                 0         0         0         0    0    0    00000720000000240000000146000010512000
AE00TI102209210221/09/202200000001600000000000000013675KGM  00000017035KGM  7289-5979-30             HOUSING FEMALE ASS'Y     7289597930               0         0         0         0    0    0    00000403200000025200001346000054270720
