AE00TI102209100210/09/202200000003100000000000000010249KGM  00000011966KGM  7158-3006-90             RUBBER STOPPER           7158300690               0         0         0         0    0    0    00062000000002000000000016000099200000
AE00TI102209100210/09/202200000002400000000000000008112KGM  00000009269KGM  7158-3009-60             RUBBER STOPPER           7158300960               0         0         0         0    0    0    00048000000002000000000012000057600000
AE00TI102209100210/09/202200000001700000000000000002108KGM  00000002931KGM  7158-3165-90             WIRE SEAL                7158316590               0         0         0         0    0    0    00068000000004000000000006000040800000
AE00TI102209100210/09/202200000002100000000000000002184KGM  00000003200KGM  7158-3166-60             WIRE SEAL                7158316660               0         0         0         0    0    0    00084000000004000000000004000033600000
AE00TI102209100210/09/202200000002800000000000000001344KGM  00000003052KGM  7158-3167-80             WIRE SEAL                7158316780               0         0         0         0    0    0    00056000000002000000000005000028000000
AE00TI102209100210/09/202200000001600000000000000000704KGM  00000001474KGM  7158-3168-80             SEALED                   7158316880               0         0         0         0    0    0    00032000000002000000000004000012800000
AE00TI102209100210/09/202200000001000000000000000001560KGM  00000002041KGM  7158-3169-40             SEALING PLUG             7158316940               0         0         0         0    0    0    00040000000004000000000006000024000000
AE00TI102209100210/09/202200000001400000000000000012125KGM  00000014155KGM  7288-3329-30             HOUSING MALE             7288332930               0         0         0         0    0    0    00002100000000150000000354000074340000
AE00TI102209100210/09/202200000001000000000000000008607KGM  00000010057KGM  7288-3332-30             HOUSING MALE             7288333230               0         0         0         0    0    0    00001500000000150000000354000053100000
AE00TI102209100210/09/202200000001100000000000000009537KGM  00000011132KGM  7288-3337-30             HOUSING MALE             7288333730               0         0         0         0    0    0    00001650000000150000000354000058410000
AE00TI102209100210/09/202200000001400000000000000009610KGM  00000012620KGM  7289-3342                HOUSING FEMALE ASS'Y     72893342                 0         0         0         0    0    0    00003360000000240000000186000062496000
AE00TI102209100210/09/202200000000100000000000000000829KGM  00000001049KGM  7289-6518-30             HOUSING FEMALE ASS'Y     7289651830               0         0         0         0    0    0    00000120000000120000000598000007176000
AE00TI102209100210/09/202200000000500000000000000004196KGM  00000005596KGM  7289-6868-30             SEALED ASSY FEMALE       7289686830               0         0         0         0    0    0    00001260000000252000000332000041832000
AE00TI102209100210/09/202200000000200000000000000002195KGM  00000002717KGM  7298-4094-10             HOUSING FEMALE ASS'Y     7298409410               0         0         0         0    0    0    00000676000000338000000241000016291600
