AE00TI102209090409/09/202200000000100000000000000000818KGM  00000000982KGM  7116-2892-02             TERMINAL                 7116289202               0         0         0         0    0    0    00001200000001200000000053000006360000
AE00TI102209090409/09/202200000004800000000000000041779KGM  00000060480KGM  7370-0309                J/B ASS'Y                73700309                 0         0         0         0    0    0    00000076800000001600028585000219532800
AE00TI102209090409/09/202200000001800000000000000023760KGM  00000028260KGM  7470-3082                J/B COMPLETE ASS'Y       74703082                 0         0         0         0    0    0    00000043200000002400031298000135207360
AE00TI102209090409/09/202200000001100000000000000000000KGM  00000000000KGM  7470-5308E               J/B COMPLETE ASS'Y       74705308E                0         0         0         0    0    0    00000011000000001000000000000000000000
AE00TI102209090409/09/202200000001500000000000000000000KGM  00000000000KGM  7470-5782E               J/B COMPLETE ASS'Y       74705782E                0         0         0         0    0    0    00000015000000001000000000000000000000
AE00TI102209090409/09/202200000006000000000000000000000KGM  00000000000KGM  7470-5783D               J/B COMPLETE ASS'Y       74705783D                0         0         0         0    0    0    00000090000000001500000000000000000000
AE00TI102209090409/09/202200000000400000000000000000000KGM  00000000000KGM  7470-5783E               J/B COMPLETE ASS'Y       74705783E                0         0         0         0    0    0    00000004000000001000000000000000000000
AE00TI102209090409/09/202200000001800000000000000000000KGM  00000000000KGM  7470-5784E               J/B COMPLETE ASS'Y       74705784E                0         0         0         0    0    0    00000018000000001000000000000000000000
AE00TI102209090409/09/202200000001500000000000000000000KGM  00000000000KGM  7470-5791D               J/B COMPLETE ASS'Y       74705791D                0         0         0         0    0    0    00000022500000001500000000000000000000
AE00TI102209090409/09/202200000001700000000000000000000KGM  00000000000KGM  7470-5791E               J/B COMPLETE ASS'Y       74705791E                0         0         0         0    0    0    00000017000000001000000000000000000000
