AE00TI102209100110/09/202200000000600000000000000005207KGM  00000006407KGM  7173-3291-40             LIF LEVER                7173329140               0         0         0         0    0    0    00001440000000240000000142000020448000
AE00TI102209100110/09/202200000000300000000000000003412KGM  00000003893KGM  7183-2417                CONNECTOR HOUSING        71832417                 0         0         0         0    0    0    00000720000000240000000138000009936000
AE00TI102209100110/09/202200000000600000000000000006850KGM  00000007812KGM  7183-2417-90             CONNECTOR HOUSING        7183241790               0         0         0         0    0    0    00001440000000240000000153000022032000
AE00TI102209100110/09/202200000002100000000000000014414KGM  00000018929KGM  7289-3342-30             HOUSING FEMALE ASS'Y     7289334230               0         0         0         0    0    0    00005040000000240000000191000096264000
AE00TI102209100110/09/202200000000300000000000000003515KGM  00000004106KGM  7289-5011-30             HOUSING FEMALE ASS'Y     7289501130               0         0         0         0    0    0    00000720000000240000000333000023976000
AE00TI102209100110/09/202200000000100000000000000001003KGM  00000001205KGM  7298-1865-30             HOUSING FEMALE ASS'Y     7298186530               0         0         0         0    0    0    00000240000000240000000196000004704000
AE00TI102209100110/09/202200000001000000000000000009815KGM  00000012900KGM  7298-5993-30             SEALED ASSY FEMALE       7298599330               0         0         0         0    0    0    00002184000000218400000266000058094400
AE00TI102209100110/09/202200000000200000000000000002219KGM  00000002519KGM  7327-6424-4W             BATTERY FUSE             732764244W               0         0         0         0    0    0    00000019200000009600007969000015300480
AE00TI102209100110/09/202200000000300000000000000003690KGM  00000004268KGM  7327-6533-3W             BATTERY FUSE             732765333W               0         0         0         0    0    0    00000021600000007200010131000021882960
AE00TI102209100110/09/202200000001700000000000000019395KGM  00000023050KGM  7327-6840-3W             BATTERY FUSE             732768403W               0         0         0         0    0    0    00000122400000007200009909000121286160
AE00TI102209100110/09/202200000002500000000000000018550KGM  00000028050KGM  7388-2978-30             HOUSING MALE ASS'Y       7388297830               0         0         0         0    0    0    00001200000000048000001790000214800000
