AE00TI102209070107/09/202200000000200000000000000001834KGM  00000002274KGM  7283-4577                CONNECTOR HOUSING        72834577                 0         0         0         0    0    0    00000960000000480000000172000016512000
AE00TI102209070107/09/202200000000200000000000000001788KGM  00000002370KGM  7287-9234                JOINT CONNECTOR          72879234                 0         0         0         0    0    0    00001920000000960000000137000026304000
AE00TI102209070107/09/202200000000300000000000000002601KGM  00000003036KGM  7288-3334-30             HOUSING MALE             7288333430               0         0         0         0    0    0    00000450000000150000000354000015930000
AE00TI102209070107/09/202200000001500000000000000013005KGM  00000015180KGM  7288-3335-30             HOUSING MALE             7288333530               0         0         0         0    0    0    00002250000000150000000354000079650000
AE00TI102209070107/09/202200000000900000000000000007803KGM  00000009108KGM  7288-3339-30             HOUSING MALE             7288333930               0         0         0         0    0    0    00001350000000150000000354000047790000
AE00TI102209070107/09/202200000000200000000000000002411KGM  00000002681KGM  7288-6547                CONNECTOR MALE ASS'Y     72886547                 0         0         0         0    0    0    00000150000000075000001125000016875000
AE00TI102209070107/09/202200000000900000000000000006178KGM  00000008113KGM  7289-3342                HOUSING FEMALE ASS'Y     72893342                 0         0         0         0    0    0    00002160000000240000000186000040176000
AE00TI102209070107/09/202200000000200000000000000001373KGM  00000001803KGM  7289-3342-30             HOUSING FEMALE ASS'Y     7289334230               0         0         0         0    0    0    00000480000000240000000191000009168000
AE00TI102209070107/09/202200000000100000000000000000829KGM  00000001049KGM  7289-6518-30             HOUSING FEMALE ASS'Y     7289651830               0         0         0         0    0    0    00000120000000120000000598000007176000
AE00TI102209070107/09/202200000000600000000000000005035KGM  00000006715KGM  7289-6868-30             SEALED ASSY FEMALE       7289686830               0         0         0         0    0    0    00001512000000252000000332000050198400
AE00TI102209070107/09/202200000000300000000000000003010KGM  00000003614KGM  7298-1865-30             HOUSING FEMALE ASS'Y     7298186530               0         0         0         0    0    0    00000720000000240000000196000014112000
AE00TI102209070107/09/202200000001900000000000000021081KGM  00000023932KGM  7327-6572-3W             BATTERY FUSE             732765723W               0         0         0         0    0    0    00000182400000009600008162000148874880
AE00TI102209070107/09/202200000000900000000000000011991KGM  00000013811KGM  7327-6627-3W             BATTERY FUSE             732766273W               0         0         0         0    0    0    00000086400000009600008444000072956160
AE00TI102209070107/09/202200000001400000000000000015973KGM  00000018983KGM  7327-6840-3W             BATTERY FUSE             732768403W               0         0         0         0    0    0    00000100800000007200009909000099882720
AE00TI102209070107/09/202200000003200000000000000023744KGM  00000035904KGM  7388-2978-30             HOUSING MALE ASS'Y       7388297830               0         0         0         0    0    0    00001536000000048000001790000274944000
AE00TI102209070107/09/202200000001800000000000000023760KGM  00000028260KGM  7470-4481                J/B COMPLETE ASS'Y       74704481                 0         0         0         0    0    0    00000043200000002400000000000000000000
AE00TI102209070107/09/202200000002000000000000000000000KGM  00000000000KGM  7470-5782E               J/B COMPLETE ASS'Y       74705782E                0         0         0         0    0    0    00000020000000001000000000000000000000
AE00TI102209070107/09/202200000004500000000000000000000KGM  00000000000KGM  7470-5791D               J/B COMPLETE ASS'Y       74705791D                0         0         0         0    0    0    00000067500000001500000000000000000000
AE00TI102209070107/09/202200000003600000000000000000000KGM  00000000000KGM  7470-5791E               J/B COMPLETE ASS'Y       74705791E                0         0         0         0    0    0    00000036000000001000000000000000000000
