AE00TO202209070107/09/202200000000200000000000000002094KGM  00000002192KGM  18000004530              AV 8 B                   AV 8 B                   0         0         0         0    0    0    00000000000002000000000211100000422200
AE00TO202209070107/09/202200000018900000000000000197811KGM  00000207052KGM  18000004540              AV 8 W                   AV 8 W                   0         0         0         0    0    0    00000000000189000000000211100039897900
AE00TO202209070107/09/202200000000500000000000000005055KGM  00000005299KGM  18007703900              AVSS 05F P/W             AVSS 05F P/W             0         0         0         0    0    0    00000000000075000000000015600001170000
AE00TO202209070107/09/202200000003600000000000000036396KGM  00000038157KGM  18007703930              AVSS 05F B               AVSS 05F B               0         0         0         0    0    0    00000000000540000000000015600008424000
AE00TO202209070107/09/202200000002000000000000000020220KGM  00000021198KGM  18007703940              AVSS 05F W               AVSS 05F W               0         0         0         0    0    0    00000000000300000000000015600004680000
AE00TO202209070107/09/202200000001100000000000000011121KGM  00000011659KGM  18007703941              AVSS 05F GY              AVSS 05F GY              0         0         0         0    0    0    00000000000165000000000015600002574000
AE00TO202209070107/09/202200000000300000000000000003033KGM  00000003180KGM  18007703945              AVSS 05F W/R             AVSS 05F W/R             0         0         0         0    0    0    00000000000045000000000015600000702000
AE00TO202209070107/09/202200000001700000000000000017187KGM  00000018018KGM  18007703950              AVSS 05F R               AVSS 05F R               0         0         0         0    0    0    00000000000255000000000015600003978000
AE00TO202209070107/09/202200000000800000000000000008088KGM  00000008479KGM  18007703952              AVSS 05F P               AVSS 05F P               0         0         0         0    0    0    00000000000120000000000015600001872000
AE00TO202209070107/09/202200000000200000000000000002022KGM  00000002120KGM  18007703956              AVSS 05F R/G             AVSS 05F R/G             0         0         0         0    0    0    00000000000030000000000015600000468000
AE00TO202209070107/09/202200000002000000000000000020220KGM  00000021197KGM  18007703960              AVSS 05F G               AVSS 05F G               0         0         0         0    0    0    00000000000300000000000015600004680000
AE00TO202209070107/09/202200000000200000000000000002022KGM  00000002120KGM  18007703961              AVSS 05F LG              AVSS 05F LG              0         0         0         0    0    0    00000000000030000000000015600000468000
AE00TO202209070107/09/202200000000200000000000000002022KGM  00000002120KGM  18007703965              AVSS 05F G/R             AVSS 05F G/R             0         0         0         0    0    0    00000000000030000000000015600000468000
AE00TO202209070107/09/202200000000200000000000000002022KGM  00000002120KGM  18007703967              AVSS 05F G/Y             AVSS 05F G/Y             0         0         0         0    0    0    00000000000030000000000015600000468000
AE00TO202209070107/09/202200000001200000000000000012132KGM  00000012719KGM  18007703970              AVSS 05F Y               AVSS 05F Y               0         0         0         0    0    0    00000000000180000000000015600002808000
AE00TO202209070107/09/202200000000100000000000000001011KGM  00000001060KGM  18007703973              AVSS 05F Y/B             AVSS 05F Y/B             0         0         0         0    0    0    00000000000015000000000015600000234000
AE00TO202209070107/09/202200000000100000000000000001011KGM  00000001060KGM  18007703977              AVSS 05F O/L             AVSS 05F O/L             0         0         0         0    0    0    00000000000015000000000015600000234000
AE00TO202209070107/09/202200000000100000000000000001011KGM  00000001060KGM  18007703980              AVSS 05F BR              AVSS 05F BR              0         0         0         0    0    0    00000000000015000000000015600000234000
AE00TO202209070107/09/202200000000100000000000000001011KGM  00000001060KGM  18007703985              AVSS 05F BR/R            AVSS 05F BR/R            0         0         0         0    0    0    00000000000015000000000015600000234000
AE00TO202209070107/09/202200000001900000000000000019209KGM  00000020139KGM  18007703990              AVSS 05F L               AVSS 05F L               0         0         0         0    0    0    00000000000285000000000015600004446000
AE00TO202209070107/09/202200000000400000000000000004044KGM  00000004240KGM  18007703992              AVSS 05F V               AVSS 05F V               0         0         0         0    0    0    00000000000060000000000015600000936000
AE00TO202209070107/09/202200000000200000000000000002022KGM  00000002120KGM  18007703997              AVSS 05F L/Y             AVSS 05F L/Y             0         0         0         0    0    0    00000000000030000000000015600000468000
AE00TO202209070107/09/202200000002000000000000000022224KGM  00000023202KGM  18007704140              AVSS 125F W              AVSS 125F W              0         0         0         0    0    0    00000000000160000000000034700005552000
AE00TO202209070107/09/202200000002500000000000000027780KGM  00000029002KGM  18007704180              AVSS 125F BR             AVSS 125F BR             0         0         0         0    0    0    00000000000200000000000034700006940000
AE00TO202209070107/09/202200000001900000000000000020201KGM  00000021129KGM  18007704250              AVSS 2F R                AVSS 2F R                0         0         0         0    0    0    00000000000095000000000050600004807000
AE00TO202209070107/09/202200000000200000000000000002126KGM  00000002224KGM  18007704260              AVSS 2F G                AVSS 2F G                0         0         0         0    0    0    00000000000010000000000050600000506000
AE00TO202209070107/09/202200000000200000000000000002126KGM  00000002224KGM  18007704270              AVSS 2F Y                AVSS 2F Y                0         0         0         0    0    0    00000000000010000000000050600000506000
AE00TO202209070107/09/202200000001400000000000000013188KGM  00000013872KGM  18018403730              CAVS 03 B                CAVS 03 B                0         0         0         0    0    0    00000000000280000000000010300002884000
AE00TO202209070107/09/202200000000900000000000000008478KGM  00000008918KGM  18018403740              CAVS 03 W                CAVS 03 W                0         0         0         0    0    0    00000000000180000000000010300001854000
AE00TO202209070107/09/202200000000900000000000000008478KGM  00000008918KGM  18018403750              CAVS 03 R                CAVS 03 R                0         0         0         0    0    0    00000000000180000000000010300001854000
AE00TO202209070107/09/202200000002600000000000000024492KGM  00000025763KGM  18018403760              CAVS 03 G                CAVS 03 G                0         0         0         0    0    0    00000000000520000000000010300005356000
AE00TO202209070107/09/202200000000500000000000000004710KGM  00000004954KGM  18018403761              CAVS 03 LG               CAVS 03 LG               0         0         0         0    0    0    00000000000100000000000010300001030000
AE00TO202209070107/09/202200000000100000000000000000942KGM  00000000991KGM  18018403769              CAVS 03 G/L              CAVS 03 G/L              0         0         0         0    0    0    00000000000020000000000010300000206000
AE00TO202209070107/09/202200000001500000000000000014130KGM  00000014863KGM  18018403780              CAVS 03 BR               CAVS 03 BR               0         0         0         0    0    0    00000000000300000000000010300003090000
AE00TO202209070107/09/202200000000900000000000000008478KGM  00000008918KGM  18018403791              CAVS 03 SB               CAVS 03 SB               0         0         0         0    0    0    00000000000180000000000010300001854000
AE00TO202209070107/09/202200000000200000000000000001884KGM  00000001982KGM  18018403793              CAVS 03 L/B              CAVS 03 L/B              0         0         0         0    0    0    00000000000040000000000010300000412000
AE00TO202209070107/09/202200000004700000000000000052875KGM  00000055172KGM  1801W003930              IVSSH 05F B              IVSSH 05F B              0         0         0         0    0    0    00000000000846000000000015400013028400
AE00TO202209070107/09/202200000002600000000000000029250KGM  00000030521KGM  1801W003940              IVSSH 05F W              IVSSH 05F W              0         0         0         0    0    0    00000000000468000000000015400007207200
AE00TO202209070107/09/202200000002000000000000000022500KGM  00000023478KGM  1801W003941              IVSSH 05F GY             IVSSH 05F GY             0         0         0         0    0    0    00000000000360000000000015400005544000
AE00TO202209070107/09/202200000001800000000000000020250KGM  00000021130KGM  1801W003952              IVSSH 05F P              IVSSH 05F P              0         0         0         0    0    0    00000000000324000000000015400004989600
AE00TO202209070107/09/202200000000900000000000000010125KGM  00000010565KGM  1801W00395U              IVSSH 05F BE             IVSSH 05F BE             0         0         0         0    0    0    00000000000162000000000015400002494800
AE00TO202209070107/09/202200000003500000000000000039375KGM  00000041087KGM  1801W003960              IVSSH 05F G              IVSSH 05F G              0         0         0         0    0    0    00000000000630000000000015400009702000
AE00TO202209070107/09/202200000001500000000000000016875KGM  00000017609KGM  1801W003961              IVSSH 05F LG             IVSSH 05F LG             0         0         0         0    0    0    00000000000270000000000015400004158000
AE00TO202209070107/09/202200000000800000000000000009000KGM  00000009392KGM  1801W003970              IVSSH 05F Y              IVSSH 05F Y              0         0         0         0    0    0    00000000000144000000000015400002217600
AE00TO202209070107/09/202200000001700000000000000019125KGM  00000019956KGM  1801W003980              IVSSH 05F BR             IVSSH 05F BR             0         0         0         0    0    0    00000000000306000000000015400004712400
AE00TO202209070107/09/202200000002400000000000000027000KGM  00000028173KGM  1801W003990              IVSSH 05F L              IVSSH 05F L              0         0         0         0    0    0    00000000000432000000000015400006652800
AE00TO202209070107/09/202200000000500000000000000005625KGM  00000005870KGM  1801W003991              IVSSH 05F SB             IVSSH 05F SB             0         0         0         0    0    0    00000000000090000000000015400001386000
AE00TO202209070107/09/202200000000200000000000000002250KGM  00000002348KGM  1801W003992              IVSSH 05F V              IVSSH 05F V              0         0         0         0    0    0    00000000000036000000000015400000554400
AE00TO202209070107/09/202200000000900000000000000010320KGM  00000010758KGM  1801W004030              IVSSH 075F B             IVSSH 075F B             0         0         0         0    0    0    00000000000117000000000021500002515500
AE00TO202209070107/09/202200000000300000000000000003440KGM  00000003586KGM  1801W004040              IVSSH 075F W             IVSSH 075F W             0         0         0         0    0    0    00000000000039000000000021500000838500
AE00TO202209070107/09/202200000000700000000000000008028KGM  00000008366KGM  1801W004050              IVSSH 075F R             IVSSH 075F R             0         0         0         0    0    0    00000000000091000000000021500001956500
AE00TO202209070107/09/202200000000200000000000000002293KGM  00000002391KGM  1801W004060              IVSSH 075F G             IVSSH 075F G             0         0         0         0    0    0    00000000000026000000000021500000559000
AE00TO202209070107/09/202200000000200000000000000002294KGM  00000002390KGM  1801W004061              IVSSH 075F LG            IVSSH 075F LG            0         0         0         0    0    0    00000000000026000000000021500000559000
AE00TO202209070107/09/202200000000300000000000000003440KGM  00000003586KGM  1801W004070              IVSSH 075F Y             IVSSH 075F Y             0         0         0         0    0    0    00000000000039000000000021500000838500
AE00TO202209070107/09/202200000000300000000000000003440KGM  00000003586KGM  1801W004080              IVSSH 075F BR            IVSSH 075F BR            0         0         0         0    0    0    00000000000039000000000021500000838500
AE00TO202209070107/09/202200000000600000000000000006880KGM  00000007172KGM  1801W004090              IVSSH 075F L             IVSSH 075F L             0         0         0         0    0    0    00000000000078000000000021500001677000
AE00TO202209070107/09/202200000000100000000000000001111KGM  00000001159KGM  1801W004330              IVSSH 3 B                IVSSH 3 B                0         0         0         0    0    0    00000000000003500000000087900000307650
AE00TO202209070107/09/202200000000100000000000000001111KGM  00000001159KGM  1801W004343              IVSSH 3 W/B              IVSSH 3 W/B              0         0         0         0    0    0    00000000000003500000000087900000307650
AE00TO202209070107/09/202200000000100000000000000001111KGM  00000001159KGM  1801W004390              IVSSH 3 L                IVSSH 3 L                0         0         0         0    0    0    00000000000003500000000087900000307650
AE00TO202209070107/09/202200000003300000000000000037290KGM  00000038904KGM  1801W006940              IVSSH 035F W             IVSSH 035F W             0         0         0         0    0    0    00000000000825000000000011400009405000
AE00TO202209070107/09/202200000001900000000000000021470KGM  00000022400KGM  1801W006950              IVSSH 035F R             IVSSH 035F R             0         0         0         0    0    0    00000000000475000000000011400005415000
AE00TO202209070107/09/202200000001300000000000000014690KGM  00000015326KGM  1801W006952              IVSSH 035F P             IVSSH 035F P             0         0         0         0    0    0    00000000000325000000000011400003705000
AE00TO202209070107/09/202200000002400000000000000027120KGM  00000028294KGM  1801W006970              IVSSH 035F Y             IVSSH 035F Y             0         0         0         0    0    0    00000000000600000000000011400006840000
AE00TO202209070107/09/202200000001400000000000000015820KGM  00000016505KGM  1801W006991              IVSSH 035F SB            IVSSH 035F SB            0         0         0         0    0    0    00000000000350000000000011400003990000
AE00TO202209070107/09/202200000004400000000000000049720KGM  00000051872KGM  1801W006992              IVSSH 035F V             IVSSH 035F V             0         0         0         0    0    0    00000000001100000000000011400012540000
AE00TO202209070107/09/202200000000100000000000000000934KGM  00000000983KGM  180D0204043              AVSSH 075F W/B           AVSSH 075F W/B           0         0         0         0    0    0    00000000000010000000000023200000232000
AE00TO202209070107/09/202200000000100000000000000001166KGM  00000001215KGM  180D0204130              AVSSH 125F B             AVSSH 125F B             0         0         0         0    0    0    00000000000008000000000035700000285600
AE00TO202209070107/09/202200000000100000000000000000847KGM  00000000896KGM  181AD2001ZZ              CIVUSAS-S 035X1 B        CIVUSAS-S 035X1 B        0         0         0         0    0    0    00000000000005500000000034200000188100
AE00TO202209070107/09/202200000001100000000000000008482KGM  00000009020KGM  181AD2002ZZ              CIVUSAS-S 035X2 B        CIVUSAS-S 035X2 B        0         0         0         0    0    0    00000000000049500000000043700002163150
AE00TO202209070107/09/202200000001800000000000000014756KGM  00000015636KGM  181AD2007ZZ              CIVUSAS-S 05X1 B         CIVUSAS-S 05X1 B         0         0         0         0    0    0    00000000000090000000000038700003483000
AE00TO202209070107/09/202200000002200000000000000017677KGM  00000018753KGM  181AD2010ZZ              CIVUSAS-S 05X4 B         CIVUSAS-S 05X4 B         0         0         0         0    0    0    00000000000055000000000083700004603500
AE00TO202209070107/09/202200000000300000000000000002670KGM  00000002817KGM  181B32013ZZ              AVSSCS 03FX1 DGY/O       AVSSCS 03FX1 DGY/O       0         0         0         0    0    0    00000000000015000000000046600000699000
AE00TO202209070107/09/202200000000800000000000000007120KGM  00000007511KGM  181B32037Y5              AVSSCS 03FX1 DGY/W       AVSSCS 03FX1 DGY/W       0         0         0         0    0    0    00000000000040000000000046600001864000
AE00TO202209070107/09/202200000000500000000000000004450KGM  00000004694KGM  181B32037Z5              AVSSCS 03FX1 DGY/L       AVSSCS 03FX1 DGY/L       0         0         0         0    0    0    00000000000025000000000046600001165000
AE00TO202209070107/09/202200000000200000000000000001400KGM  00000001496KGM  181E48049ZZ              CAVSAS-S 03X2 GY/L       CAVSAS-S 03X2 GY/L       0         0         0         0    0    0    00000000000007000000000045900000321300
AE00TO202209070107/09/202200000002900000000000000022153KGM  00000023570KGM  181E50005ZZ              AVSSCS-S 05FX1 DGY/W     AVSSCS-S 05FX1 DGY/W     0         0         0         0    0    0    00000000000116000000000050400005846400
AE00TO202209070107/09/202200000000200000000000000001633KGM  00000001730KGM  181E50027ZZ              AVSSCS-S 05FX3 DGY/G     AVSSCS-S 05FX3 DGY/G     0         0         0         0    0    0    00000000000005000000000091500000457500
AE00TO202209070107/09/202200000004800000000000000039180KGM  00000041527KGM  181E50028ZZ              AVSSCS-S 05FX3 DGY       AVSSCS-S 05FX3 DGY       0         0         0         0    0    0    00000000000120000000000091500010980000
