AE00TI102209070207/09/202200000000100000000000000001548KGM  00000001738KGM  7123-1801-30             HOUSING                  7123180130               0         0         0         0    0    0    00000560000000560000000157000008792000
AE00TI102209070207/09/202200000000600000000000000003252KGM  00000004328KGM  7147-3642-30             CLIP                     7147364230               0         0         0         0    0    0    00001800000000300000000074000013320000
AE00TI102209070207/09/202200000000500000000000000004135KGM  00000005510KGM  7154-5712-30             CASSETTE R/B             7154571230               0         0         0         0    0    0    00000400000000080000000288000011520000
AE00TI102209070207/09/202200000000100000000000000000518KGM  00000000669KGM  7154-6163                CONNECTOR BRACKET        71546163                 0         0         0         0    0    0    00000015000000015000000000000000000000
AE00TI102209070207/09/202200000004200000000000000013885KGM  00000016212KGM  7158-3006-90             RUBBER STOPPER           7158300690               0         0         0         0    0    0    00084000000002000000000016000134400000
AE00TI102209070207/09/202200000001400000000000000004732KGM  00000005407KGM  7158-3009-60             RUBBER STOPPER           7158300960               0         0         0         0    0    0    00028000000002000000000012000033600000
AE00TI102209070207/09/202200000000300000000000000001403KGM  00000001572KGM  7158-3022-80             RUBBER STOPPER           7158302280               0         0         0         0    0    0    00001500000000500000000070000010500000
AE00TI102209070207/09/202200000000600000000000000000744KGM  00000001034KGM  7158-3165-90             WIRE SEAL                7158316590               0         0         0         0    0    0    00024000000004000000000006000014400000
AE00TI102209070207/09/202200000000700000000000000000728KGM  00000001067KGM  7158-3166-60             WIRE SEAL                7158316660               0         0         0         0    0    0    00028000000004000000000004000011200000
AE00TI102209070207/09/202200000000300000000000000000144KGM  00000000289KGM  7158-3167-61             WIRE SEAL                7158316761               0         0         0         0    0    0    00006000000002000000000005000003000000
AE00TI102209070207/09/202200000002800000000000000001344KGM  00000003052KGM  7158-3167-80             WIRE SEAL                7158316780               0         0         0         0    0    0    00056000000002000000000005000028000000
AE00TI102209070207/09/202200000000700000000000000000308KGM  00000000645KGM  7158-3168-80             SEALED                   7158316880               0         0         0         0    0    0    00014000000002000000000004000005600000
AE00TI102209070207/09/202200000000500000000000000000780KGM  00000001021KGM  7158-3169-40             SEALING PLUG             7158316940               0         0         0         0    0    0    00020000000004000000000006000012000000
AE00TI102209070207/09/202200000001000000000000000007621KGM  00000009803KGM  7171-6292                HOUSING                  71716292                 0         0         0         0    0    0    00000180000000018000001240000022320000
AE00TI102209070207/09/202200000000500000000000000003910KGM  00000004510KGM  7174-1315-30             SEALED COVER             7174131530               0         0         0         0    0    0    00000400000000080000000459000018360000
AE00TI102209070207/09/202200000000200000000000000002564KGM  00000002954KGM  7182-4941                DOUBLE SIDED             71824941                 0         0         0         0    0    0    00000200000000100000000816000016320000
AE00TI102209070207/09/202200000000100000000000000001368KGM  00000001585KGM  7183-0521                HOUSING                  71830521                 0         0         0         0    0    0    00000480000000480000000082000003936000
AE00TI102209070207/09/202200000000200000000000000001902KGM  00000002460KGM  7183-0522                HOUSING                  71830522                 0         0         0         0    0    0    00000480000000240000000113000005424000
AE00TI102209070207/09/202200000000100000000000000001059KGM  00000001246KGM  7183-2412                HOUSING                  71832412                 0         0         0         0    0    0    00000160000000160000000155000002480000
AE00TI102209070207/09/202200000000100000000000000001060KGM  00000001060KGM  7183-2412-30             HOUSING                  7183241230               0         0         0         0    0    0    00000160000000160000000171000002736000
AE00TI102209070207/09/202200000000100000000000000000478KGM  00000000760KGM  7183-2413                CONNECTOR HOUSING        71832413                 0         0         0         0    0    0    00000480000000480000000074000003552000
AE00TI102209070207/09/202200000000400000000000000001910KGM  00000003038KGM  7183-2413-30             CONNECTOR HOUSING        7183241330               0         0         0         0    0    0    00001920000000480000000076000014592000
AE00TI102209070207/09/202200000000200000000000000001559KGM  00000002123KGM  7183-2414-30             CONNECTOR HOUSING        7183241430               0         0         0         0    0    0    00000960000000480000000054000005184000
AE00TI102209070207/09/202200000000200000000000000002131KGM  00000002705KGM  7183-2419                HOUSING                  71832419                 0         0         0         0    0    0    00000960000000480000000088000008448000
AE00TI102209070207/09/202200000020000000000000000047960KGM  00000097960KGM  7271-1820-30             CASE SUB ASSY,ECU        7271182030               0         0         0         0    0    0    00000360000000001800009576000344736000
AE00TI102209070207/09/202200000000200000000000000002712KGM  00000003040KGM  7282-8120                CONNECTOR HOUSING        72828120                 0         0         0         0    0    0    00000600000000300000000212000012720000
AE00TI102209070207/09/202200000000200000000000000002712KGM  00000003040KGM  7282-8120-30             CONNECTOR HOUSING        7282812030               0         0         0         0    0    0    00000600000000300000000000000000000000
AE00TI102209070207/09/202200000000100000000000000001356KGM  00000001520KGM  7282-8120-40             CONNECTOR HOUSING        7282812040               0         0         0         0    0    0    00000300000000300000000215000006450000
AE00TI102209070207/09/202200000000100000000000000000840KGM  00000001049KGM  7283-1020                CONNECTOR                72831020                 0         0         0         0    0    0    00000600000000600000000216000012960000
AE00TI102209070207/09/202200000000100000000000000000669KGM  00000000933KGM  7283-1140                CONNECTOR HOUSING        72831140                 0         0         0         0    0    0    00000150000000150000000259000003885000
AE00TI102209070207/09/202200000000500000000000000004388KGM  00000005390KGM  7283-1156                CONNECTOR                72831156                 0         0         0         0    0    0    00000400000000080000000810000032400000
AE00TI102209070207/09/202200000000200000000000000002762KGM  00000003274KGM  7283-1288                CONNECTOR HOUSING        72831288                 0         0         0         0    0    0    00000240000000120000000781000018744000
AE00TI102209070207/09/202200000000200000000000000002320KGM  00000002681KGM  7283-1485                CONNECTOR                72831485                 0         0         0         0    0    0    00000400000000200000000366000014640000
AE00TI102209070207/09/202200000000400000000000000004560KGM  00000005273KGM  7283-1968-30             CONNECTOR                7283196830               0         0         0         0    0    0    00000360000000090000000687000024732000
AE00TI102209070207/09/202200000000200000000000000003092KGM  00000003693KGM  7283-5623-60             CONNECTOR                7283562360               0         0         0         0    0    0    00000320000000160000000568000018176000
AE00TI102209070207/09/202200000000100000000000000001060KGM  00000001181KGM  7283-7029                CONNECTOR                72837029                 0         0         0         0    0    0    00000600000000600000000227000013620000
AE00TI102209070207/09/202200000000100000000000000000990KGM  00000001249KGM  7283-7526                CONNECTOR HOUSING        72837526                 0         0         0         0    0    0    00000196000000196000000503000009858800
AE00TI102209070207/09/202200000000600000000000000005939KGM  00000007492KGM  7283-7526-30             CONNECTOR HOUSING        7283752630               0         0         0         0    0    0    00001176000000196000000506000059505600
AE00TI102209070207/09/202200000000300000000000000002969KGM  00000003746KGM  7283-7526-40             CONNECTOR HOUSING        7283752640               0         0         0         0    0    0    00000588000000196000000504000029635200
AE00TI102209070207/09/202200000001100000000000000009391KGM  00000011497KGM  7287-9155                HOUSING FEMALE ASS'Y     72879155                 0         0         0         0    0    0    00001056000000096000000357000037699200
AE00TI102209070207/09/202200000000400000000000000002150KGM  00000002760KGM  7287-9323                UNSEALED HOUSING SUB     72879323                 0         0         0         0    0    0    00000960000000240000000146000014016000
AE00TI102209070207/09/202200000001000000000000000006864KGM  00000009014KGM  7289-3342-30             HOUSING FEMALE ASS'Y     7289334230               0         0         0         0    0    0    00002400000000240000000191000045840000
AE00TI102209070207/09/202200000000800000000000000009374KGM  00000010949KGM  7289-5011-30             HOUSING FEMALE ASS'Y     7289501130               0         0         0         0    0    0    00001920000000240000000333000063936000
AE00TI102209070207/09/202200000000200000000000000001709KGM  00000002129KGM  7289-5979-30             HOUSING FEMALE ASS'Y     7289597930               0         0         0         0    0    0    00000050400000025200001346000006783840
AE00TI102209070207/09/202200000000600000000000000006649KGM  00000009124KGM  7289-9553-50             SEALED ASSY FEMALE       7289955350               0         0         0         0    0    0    00001764000000294000000252000044452800
