BI00B1200    2399T52931     202209297288-6547                CONNECTOR MALE ASS'Y     CCN000216000000216000FN00000000020221101000216000NNED0020220907120935    4N0N  0000007500000120530000134031200    YCYC    005400370024
BI00B32A7    ZZ22102LMW     202209077017-1180-02             TERMINAL                 CCN000144000000144000FY00014400020221001000000000NNM00020220907160904    4P0P  00007200000001065600001229032A7    ZZZZY   005100280028
BI00B32A7    ZZ22102LMW     202209077017-1182-02             TERMINAL                 CCN000090000000090000FY00009000020221001000000000NNM00020220907160904    4P0P  00004500000001165500001318632A7    ZZZZY   005100280028
BI00B32A7    ZZ22102LMW     202209077017-1183-02             TERMINAL                 CCN000027000000027000FY00002700020221001000000000NNM00020220907160904    4P0P  00002700000001139400001307432A7    ZZZZY   005100280028
BI00B32CH    SJ22113 MW     202210207283-4576                HOUSING FEMALE ASS'Y     CCN000004800000004800FN00000000020221101000004800NNMD0420220907150002    4N0N  00000480000000651300000871332CH    SJSAMIJF005500360039
BI00B32CH    SJ22113DMW     202210207287-3885-30             HYBRID FEMALE ASS'Y      CCN000024000000024000FN00000000020221101000024000NNMD0420220907150025    1N0N  00000240000001029600001249632CH    SJSAMIJF005500360039
BI00B32DE    TCT2104        202209297116-4028-08             TERMINAL FEMALE          CCN000144000000112000FN00000000020221001000112000NNMQ0020220907120935    4P0P  00001600000000652800000981532DE    TVYEV-TV006400630017
BI00B32DE    TCT2103        202209227116-4032                TERMINAL                 CCN000066000000060000FN00000000020221001000060000NNMQ0020220907120935    4P0P  00000600000000532800000818032DE    TVYEV-TV006400630015
BI00B32DE    TCT2103        202209227116-4037                TERMINAL                 CCN000060000000048000FN00000000020221001000048000NNMQ0020220907120935    4P0P  00000600000000600000000894232DE    TVYEV-TV006400630015
BI00B32DE    TCT2103        202209227116-5041-02             TERMINAL                 CCN000300000000255000FN00000000020221001000255000NNMQ0020220907120935    4P0P  00001500000000583500000868732DE    TVYEV-TV006400630015
BI00B32DE    TCT2104        202209297116-5041-02             TERMINAL                 CCN000315000000270000FN00000000020221001000270000NNMQ0020220907120935    4P0P  00001500000000583500000868732DE    TVYEV-TV006400630015
BI00B32DE    TCT2104        202209297116-5042-02             TERMINAL                 CCN000148500000121500FN00000000020221001000121500NNMQ0020220907120935    4P0P  00001350000000560300000845532DE    TVYEV-TV006400630015
BI00B32DE    TCT2103        202209227116-5043-02             TERMINAL FEMALE          CCN000108000000060000FN00000000020221001000060000NNMQ0020220907120935    4P0P  00001200000000559200000844432DE    TVYEV-TV006400630015
BI00B32DE    TCT2104        202209297116-5043-02             TERMINAL FEMALE          CCN000120000000072000FN00000000020221001000072000NNMQ0020220907120935    4P0P  00001200000000559200000844432DE    TVYEV-TV006400630015
BI00B32DE    TCT2104        202209297116-5046-02             TERMINAL                 CCN000048000000036000FN00000000020221001000036000NNMQ0020220907120935    4P0P  00001200000000544800000873532DE    TVYEV-TV006400630017
BI00B32DE    TCT2103        202209157382-1481-10             CONNECTOR                CCN000024800000001600FN00000000020221001000001600NNMD0020220907142715    4N0N  00000080000001025000001183032DE    TVYEV-TV005600390040
BI00B32DE    TCT2103        202209227382-1481-10             CONNECTOR                CCN000023200000023200FN00000000020221001000023200NNMD0020220907120935    4N0N  00000080000001025000001183032DE    TVYEV-TV005600390040
BI00B32DE    TCT2103        202209157116-4032                TERMINAL                 CCN000006000000006000FN00000000020221001000006000NNMD0020220907142715    4P0P  00000600000000532800000818032DE    TVYEV-TV006400630015
BI00B32DE    TCT2103        202209157116-4037                TERMINAL                 CCN000012000000012000FN00000000020221001000012000NNMD0020220907142715    4P0P  00000600000000600000000894232DE    TVYEV-TV006400630015
BI00B32DE    TCT2103        202209157116-5041-02             TERMINAL                 CCN000045000000045000FN00000000020221001000045000NNMD0020220907142715    4P0P  00001500000000583500000868732DE    TVYEV-TV006400630015
BI00B32DE    TCT2104        202209227116-5041-02             TERMINAL                 CCN000045000000045000FN00000000020221001000045000NNMD0020220907120935    4P0P  00001500000000583500000868732DE    TVYEV-TV006400630015
BI00B32DE    TCT2104        202209157116-5042-02             TERMINAL                 CCN000027000000027000FN00000000020221001000027000NNMM0020220907142715    4P0P  00001350000000560300000845532DE    TVYEV-TV006400630015
BI00B32DE    TCT2104        202209227116-5043-02             TERMINAL FEMALE          CCN000048000000048000FN00000000020221001000048000NNMD0020220907120935    4P0P  00001200000000559200000844432DE    TVYEV-TV006400630015
BI00B32DE    TCT2103        202209157116-5043-02             TERMINAL FEMALE          CCN000048000000048000FN00000000020221001000048000NNMD0020220907142715    4P0P  00001200000000559200000844432DE    TVYEV-TV006400630015
BI00B32DE    TCT2104        202209157116-5046-02             TERMINAL                 CCN000012000000012000FN00000000020221001000012000NNMD0020220907142715    4P0P  00001200000000544800000873532DE    TVYEV-TV006400630017
BI00B32DE    TCT2104        202209157116-4028-08             TERMINAL FEMALE          CCN000032000000032000FN00000000020221001000032000NNMD0020220907142715    4P0P  00001600000000652800000981532DE    TVYEV-TV006400630017
BI00B32EJ    T220906P01     202210067116-4025                TERMINAL                 CCN000016000000016000FN00000000020221001000016000NNE   20220907120935EJ  4P0P  00001600000000644800000975132EJ    EJYKBO  006400630017
BI00B32EJ    T220906P01     202210067116-4102-02             TERMINAL                 CCN000012000000012000FN00000000020221001000012000NNE   20220907120935EJ  4P0P  00001200000000553200000841432EJ    EJYKBO  006400630015
BI00B32EJ    T220906P01     202210067116-4124-02             TERMINAL                 CCN000012000000012000FN00000000020221001000012000NNE   20220907120935EJ  4P0P  00000300000000459900000753532EJ    EJYKBO  006400630015
BI00B32EJ    T220906P01     202210067196-1461-06             TERMINAL FEMALE          CCN000048000000048000FN00000000020221001000048000NNE   20220907120935EJ  4P0P  00002400000000386400000692932EJ    EJYKBO  006400630015
BI00B32EJ    T220906P01     202210067114-4110-02             TERMINAL                 CCN000030000000030000FN00000000020221001000030000NNE   20220907120935EJ  4P0P  00001500000000901500001230132EJ    EJYKBO  006400630017
BI00B32EJ    T220906P01     202210067114-4111-02             TERMINAL                 CCN000012000000012000FN00000000020221001000012000NNE   20220907120935EJ  4P0P  00001200000000758400001087032EJ    EJYKBO  006400630017
BI00B32EJ    T220906P01     202210067114-4112-02             TERMINAL                 CCN000045000000045000FN00000000020221001000045000NNE   20220907120935EJ  4P0P  00000900000000598500000927132EJ    EJYKBO  006400630017
BI00B32EJ    T220906P01     202210067114-4100-02             TERMINAL                 CCN000036000000036000FN00000000020221001000036000NNE   20220907120935EJ  4P0P  00001800000000748800001077432EJ    EJYKBO  006400630017
BI00B32EJ    T220906P01     202210067116-4100-02             TERMINAL                 CCN000030000000030000FN00000000020221001000030000NNE   20220907120935EJ  4P0P  00001500000000696000000990232EJ    EJYKBO  006400630015
BI00B32EJ    T220906P01     202210067116-4120-02             TERMINAL                 CCN000006000000006000FN00000000020221001000006000NNE   20220907120935EJ  4P0P  00000600000000780000001073632EJ    EJYKBO  006400630015
BI00B32EJ    T220906P01     202210067116-4122-02             TERMINAL                 CCN000022500000022500FN00000000020221001000022500NNE   20220907120935EJ  4P0P  00000450000000656600000950232EJ    EJYKBO  006400630015
BI00B32EJ    T220906P01     202210067116-4121-02             TERMINAL                 CCN000031500000031500FN00000000020221001000031500NNE   20220907120935EJ  4P0P  00000450000000618800000912432EJ    EJYKBO  006400630015
BI00B32EJ    T220906P01     202210067116-4112-02             TERMINAL                 CCN000072000000072000FN00000000020221001000072000NNE   20220907120935EJ  4P0P  00000600000000450000000738232EJ    EJYKBO  006400630015
BI00B32EJ    T220906P01     202210067116-4110-02             TERMINAL                 CCN000027000000027000FN00000000020221001000027000NNE   20220907120935EJ  4P0P  00000900000000594000000882232EJ    EJYKBO  006400630015
BI00B32EJ    T220906P01     202210067126-8854-02             TERMINAL                 CCN000007500000007500FN00000000020221001000007500NNE   20220907120935EJ  4P0P  00000750000000604500000889732EJ    EJYKBO  006400630015
BI00B32EJ    T220906P01     202210067116-2951-02             TERMINAL                 CCN000005400000005400FN00000000020221001000005400NNE   20220907120935EJ  4P0P  00000540000000817600001111832EJ    EJYKBO  006400630015
BI00B32EJ    T220906P01     202210067116-4022                TERMINAL                 CCN000013500000013500FN00000000020221001000013500NNE   20220907120935EJ  4P0P  00001350000000618300000903532EJ    EJYKBO  006400630015
BI00B32EJ    T220906P01     202210067158-3166-60             WIRE SEAL                CCN000600000000600000FN00000000020221001000600000NNE   20220907120935EJ  1C0C  00004000000000104000000152432EJ    EJYKBO  002700430014
BI00B32EJ    T220906P01     202210067158-3167-80             WIRE SEAL                CCN000480000000480000FN00000000020221001000480000NNE   20220907120935EJ  1C0C  00002000000000048000000109032EJ    EJYKBO  002700430014
BI00B32EJ    T220906P01     202210067158-3167-61             WIRE SEAL                CCN000040000000040000FN00000000020221001000040000NNE   20220907120935EJ  1C0C  00002000000000048000000096432EJ    EJYKBO  004300270014
BI00B32EJ    #T220906P01    202210067158-3120-90             CONNECTOR WIRE SEAL      CCN000080000000080000FN00000000020221001000080000NNE   20220907120935EJ  2C0C  00002000000000136000000194032EJ    EJYKBO  002700430014
BI00B32EJ    #T220906P01    202210067157-3992-90             CONNECTOR SEALED         CCN000040000000040000FN00000000020221001000040000NNE   20220907120935EJ  2C0C  00004000000000300000000363332EJ    EJYKBO  002700430014
BI00B32EJ    #T220906P01    202210067158-3374-90             CONNECTOR WIRE SEAL      CCN000020000000020000FN00000000020221001000020000NNE   20220907120935EJ  2H0H  00002000000000172000000229332EJ    EJYKBO  002700430014
BI00B32EJ    #T220906P01    202210067123-6423-30             CONNECTOR                CCN000004000000004000FN00000000020221001000004000NNE   20220907120935EJ  2F0F  00000200000001002000001167632EJ    EJYKBO  005600390023
BI00B32EJ    #T220906P01    202210067282-6458-40             CONNECTOR                CCN000002000000002000FN00000000020221001000002000NNE   20220907120935EJ  2N0N  00000100000001206000001350532EJ    EJYKBO  005500360039
BI00B32EJ    #T220906P01    202210067157-3952-80             RUBBER STOPPER           CCN000010000000010000FN00000000020221001000010000NNE   20220907120935EJ  2C0C  00001000000000117000000175032EJ    EJYKBO  002700430014
BI00B32H0    #TT2211AVMW    202210047289-3622-30             HOUSING FEMALE ASS'Y     CCN000001728000001728FN00000000020221101000001728NNE   20220907120935    2N0N  00000043200000839400001038432H0    TTTJY   005400370024
BI00A32J1    398041         202209197137-3187-90             CPA PACKING              CCY000019200000001000FN00000000020220901000001000NNEQ0020220907120935    1F0F  00001920000000013500000056132J1    UKYEL-BL004300270014
BI00A32J1    398041         202209197137-3200-90             CPA PACKING              CCY000019200000001000FN00000000020220901000001000NNEQ0020220907120935    1F0F  00001920000000016600000059632J1    UKYEL-BL004300270014
BI00A32J1    398041         202209197172-1613                FRONT HOLDER             CCY000007200000002000FN00000000020220901000002000NNEQ0020220907120935    1F0F  00000720000000056200000125032J1    UKYEL-BL004300270014
BI00A32J1    398041         202209197172-1634                FRONT HOLDER             CCY000007200000002000FN00000000020220901000002000NNEQ0020220907120935    1F0F  00000720000000073300000125032J1    UKYEL-BL004300270014
BI00A32J1    398041         202209197198-1865-30             HOUSING FEMALE           CCY000007200000005000FN00000000020220901000005000NNEQ0020220907120935    1F0F  00000240000000806500000949032J1    UKYEL-BL005400370024
BI00A32J1    398041         202209197198-1866-40             HOUSING FEMALE           CCN000002400000002400FN00000000020220901000002400NNE   20220907120935    1F0F  00000240000000779000000910032J1    UKYEL-BL005500360039
BI00A32J1    398041         202209197198-1867-10             HOUSING FEMALE           CCN000002400000002400FN00000000020220901000002400NNE   20220907120935    1F0F  00000240000000772100000904432J1    UKYEL-BL005500360039
BI00A32J1    398041         202209197198-1868-80             HOUSING FEMALE           CCN000002400000002400FN00000000020220901000002400NNE   20220907120935    1F0F  00000240000000802800000935032J1    UKYEL-BL005500360039
BI00A32J1    398041         202209197198-2278-30             HOUSING FEMALE           CCN000004800000004800FN00000000020220901000004800NNE   20220907120935    1F0F  00000240000000837600000990632J1    UKYEL-BL005500360039
BI00A32J1    398041         202209197198-2279-40             HOUSING FEMALE           CCN000002400000002400FN00000000020220901000002400NNE   20220907120935    1F0F  00000240000000841000000972032J1    UKYEL-BL005500360039
BI00B32M4    TP2112         202210207287-3885-30             HYBRID FEMALE ASS'Y      CCN000007200000007200FN00000000020221101000007200NNMD0420220907150049    1N0N  00000240000001029600001249632M4    SISAI   005500360039
BI00B32M8    PM2210B MW     202209287283-1028-30             CONNECTOR HOUSING        CCN000006000000006000FN00000000020221001000006000NNED0720220907132034    4N0N  00000600000000779000001019032M8    PMPEMI  005600390040
BI00B32N3    NBT211 A2      202210207283-4576                HOUSING FEMALE ASS'Y     CCN000004800000004800FN00000000020221101000004800NNMD0420220907150109    4N0N  00000480000000651300000871332N3    ABYIPL-B005500360039
BI00B32N3    NBT211 A1      202210277283-6039                CONNECTOR                CCN000001600000001600FN00000000020221101000001600NNMD0120220907150148    1N0N  00000160000000624000000881532N3    ABYIPL-B005500360039
BI00B32N3    NBT211 A2      202210207286-3885                CONNECTOR MALE ASS'Y     CCN000002400000002400FN00000000020221101000002400NNMD0420220907150209    1N0N  00000120000000910600001130632N3    ABYIPL-B005500360039
BI00B32N3    NBT211 A2      202210207286-3885-40             CONNECTOR MALE ASS'Y     CCN000004800000004800FN00000000020221101000004800NNMD0420220907150225    1N0N  00000120000000910600001130632N3    ABYIPL-B005500360039
BI00B32R7    #R-TAP220387   202209227183-2415-40             CONNECTOR HOUSING        CCN000048000000048000FN00000000020220901000048000NNE   20220907120935    2F0F  00000480000000798200001091432R7    IVYCIC  005500360039
BI00B32R7    R-TAP220388    202210277158-3169-40             SEALING PLUG             CCN000040000000040000FN00000000020221101000040000NNE   20220907120935    1C0C  00004000000000156000000204132R7    IVYCIC  004300260014
BI00A32U9    TPA240         202209067116-1257-02             TERMINAL                 CCN000048000000048000FY00004800020221001000000000NNM00020220907095138U9  4P0P  00002400000000518400000847132U9    YNYNA-E 006400630017
BI00A32U9    TPA240         202209067116-4060-02             TERMINAL                 CCN000024000000024000FY00002400020221001000000000NNM00020220907095138U9  1P0P  00002400000000511200000984232U9    YNYNA-E 006400630017
BI00A32U9    TPA240         202209067158-3166-60             WIRE SEAL                CCN000200000000200000FY00020000020221001000000000NNM00020220907095138U9  1C0C  00004000000000104000000152432U9    YNYNA-E 002700430014
BI00A32U9    TPA240         202209067158-3167-80             WIRE SEAL                CCN000060000000060000FY00006000020221001000000000NNM00020220907095138U9  1C0C  00002000000000048000000109032U9    YNYNA-E 002700430014
BI00B32U9    TPA240         202209087289-6868-30             SEALED ASSY FEMALE       CCN000025200000002520FN00000000020221001000002520NNMQ0020220907120935U9  4N0N  00000252000000839200001119232U9    YNYNA-E 005500360039
BI00A32U9    TPA240         202209297298-1186-70             SQUIB SUB ASS'Y          CCN000010000000010000FN00000000020221001000010000NNMD0420220907120935U9  4N0N  00001000000000650000000774532U9    YNYNA-E 005400370024
BI00A32U9    TPA241         202209157158-3167-80             WIRE SEAL                CCN000180000000180000FN00000000020221101000180000NNMM0020220907120935U9  1C0C  00002000000000048000000109032U9    YNYNA-E 002700430014
BI00A32U9    TPA241         202209157158-3169-40             SEALING PLUG             CCN000360000000360000FN00000000020221101000360000NNMM0020220907120935U9  1C0C  00004000000000156000000204132U9    YNYNA-E 004300260014
BI00A32U9    TPA241         202209297298-1186-70             SQUIB SUB ASS'Y          CCN000020000000020000FN00000000020221101000020000NNMD0420220907120935U9  4N0N  00001000000000650000000774532U9    YNYNA-E 005400370024
BI00A32U9    TPA241         202209227298-1187-30             SHUNT RING ASSEMBLY      CCN000010000000010000FN00000000020221101000010000NNMD0420220907120935U9  4N0N  00001000000000647000000769532U9    YNYNA-E 005400370024
BI00A32U9    TPA242         202209157158-3169-40             SEALING PLUG             CCN000280000000280000FN00000000020221101000280000NNMM0020220907120935U9  1C0C  00004000000000156000000204132U9    YNYNA-E 004300260014
BI00A32U9    TPA242         202209227298-1186-70             SQUIB SUB ASS'Y          CCN000020000000020000FN00000000020221101000020000NNMM0020220907120935U9  4N0N  00001000000000650000000774532U9    YNYNA-E 005400370024
BI00A32U9    TPA242         202209227298-1187-30             SHUNT RING ASSEMBLY      CCN000010000000010000FN00000000020221101000010000NNMM0020220907120935U9  4N0N  00001000000000647000000769532U9    YNYNA-E 005400370024
BI00B32U9    TP0415S        202209297158-3169-40             SEALING PLUG             CCN000120000000020000FN00000000020221101000020000NNEQ0020220907120935U9  1C0C  00004000000000156000000204132U9    YNYNA-E 004300260014
BI00A32U9    TPA240         202209067289-6868-30             SEALED ASSY FEMALE       CCN000022600000022680FY00002268020221001000000000NNM00020220907095138U9  4N0N  00000252000000839200001119232U9    YNYNA-E 005500360039
BI00B32U9    TPA244         202210067158-3167-80             WIRE SEAL                CCN000680000000320000FN00000000020221201000320000NNMQ0020220907120935U9  1C0C  00002000000000048000000109032U9    YNYNA-E 002700430014
BI00B32U9    TPA244         202210207298-1186-70             SQUIB SUB ASS'Y          CCN000020000000020000FN00000000020221201000020000NNMD0420220907134923U9  4N0N  00001000000000650000000774532U9    YNYNA-E 005400370024
BI00A32U9    TPA244         202209157158-3167-80             WIRE SEAL                CCN000360000000360000FN00000000020221201000360000NNMM0020220907120935U9  1C0C  00002000000000048000000109032U9    YNYNA-E 002700430014
BI00A32U9    TP0415S        202209157158-3169-40             SEALING PLUG             CCN000100000000100000FN00000000020221101000100000NNEM0020220907120935U9  1C0C  00004000000000156000000204132U9    YNYNA-E 004300260014
BI00B32W2    HN22101NMW     202209067126-8850-02             TERMINAL                 CCN000018000000018000FY00001800020221001000000000NNM00020220907114008    1P0P  00000900000000672300000957532W2    HNHNY   006400630015
BI00B32W2    HN22101NMW     202209067126-8851-02             TERMINAL                 CCN000009000000009000FY00000900020221001000000000NNM00020220907114008    1P0P  00000900000000739800001025032W2    HNHNY   006400630015
BI00B32W2    HN22101NMW     202209067126-8852-02             TERMINAL                 CCN000007500000007500FY00000750020221001000000000NNM00020220907114008    1P0P  00000750000000648000000933232W2    HNHNY   006400630015
BI00B32W2    HN22101NMW     202209067283-7062-40             CONNECTOR HOUSING        CCN000001200000001200FY00000120020221001000000000NNM00020220907114008    1N0N  00000060000000500400000645432W2    HNHNY   005400370024
BI00B32W2    HN22101WMW     202209067B96-0805-02             TERMINAL FEMALE          CCN000067500000067500FY00006750020221001000000000NNM00020220907114131    4P0P  00002250000000558000000843232W2    HNHNY   006400630015
BI00B32W2    HN22101WMW     202209067C89-6868-30             SEALED ASSY FEMALE       CCN000040320000040320FY00004032020221001000000000NNM00020220907114131    4N0N  00000252000000839200001119232W2    HNHNY   005500360039
BI00B32W2    HN22101WMW     202209067116-1685-02             TERMINAL                 CCN000504000000504000FY00050400020221001000000000NNM00020220907114131    4P0P  00002400000000897600001065232W2    HNHNY   005100280028
BI00B32W2    HN22101WMW     202209067116-4025                TERMINAL                 CCN000016000000016000FY00001600020221001000000000NNM00020220907114131    4P0P  00001600000000644800000975132W2    HNHNY   006400630017
BI00B32W2    HN22101WMW     202209067116-4026                TERMINAL                 CCN000016000000016000FY00001600020221001000000000NNM00020220907114131    4P0P  00001600000000664000000994332W2    HNHNY   006400630017
BI00B32W2    HN22101WMW     202209067116-4037                TERMINAL                 CCN000090000000090000FY00009000020221001000000000NNM00020220907114131    4P0P  00000600000000600000000894232W2    HNHNY   006400630015
BI00B32W2    HN22101WMW     202209067116-4415-02             TERMINAL                 CCN000570000000570000FY00057000020221001000000000NNM00020220907114131    4P0P  00003800000000596600000925732W2    HNHNY   006400630017
BI00B32W2    HN22101WMW     202209067116-4416-02             TERMINAL                 CCN000032000000032000FY00003200020221001000000000NNM00020220907114131    4P0P  00003200000000518400000847132W2    HNHNY   006400630017
BI00B32W2    HN22101WMW     202209067116-6041                TERMINAL                 CCN000121500000121500FY00012150020221001000000000NNM00020220907114131    4P0P  00000450000000716000001009632W2    HNHNY   006400630015
BI00B32W2    HN22101WMW     202209067126-8853-02             TERMINAL                 CCN000217500000217500FY00021750020221001000000000NNM00020220907114131    4P0P  00000750000000562500000847732W2    HNHNY   006400630015
BI00B32W2    HN22101WMW     202209067298-1853-10             HOUSING FEMALE ASS'Y     CCN000023400000023400FY00002340020221001000000000NNM00020220907114131    4N00  00000390000001240500001405832W2    HNHNY   005400370024
BI00B32W2    HN22101WMW     202209067298-4094-10             HOUSING FEMALE ASS'Y     CCN000010140000010140FY00001014020221001000000000NNM00020220907114131    4N0N  00000338000001097400001358732W2    HNHNY   005400370024
BI00B32W2    HN22101WMW     202209067327-6533-3W             BATTERY FUSE             CCN000011160000011160FY00001116020221001000000000NNM00020220907114131    4N0N  00000007200001230100001422632W2    HNHNY   005500360039
BI00B32W2    HN22101WMW     202209067327-6832-60             MAIN FUSE                CCN000012600000012600FY00001260020221001000000000NNM00020220907114131    4N0N  00000060000000729200000930732W2    HNHNY   005400370024
BI00B32W2    HN22101WMW     202209067388-0313-30             CONNECTOR ASS'Y          CCN000024000000024000FY00002400020221001000000000NNM00020220907114131    4N0N  00000120000000995000001125032W2    HNHNY   005400370024
BI00B32W2    HN22101WMW     202209067388-0315-40             CONNECTOR ASS'Y          CCN000009600000009600FY00000960020221001000000000NNM00020220907114131    4N0N  00000120000000999600001129632W2    HNHNY   005400370024
BI00B32W2    HN22101WMW     202209067388-0317-60             CONNECTOR ASS'Y          CCN000012000000012000FY00001200020221001000000000NNM00020220907114131    4N0N  00000120000001034400001129332W2    HNHNY   005400370024
BI00A32W4    4500197063     202209127158-3168-80             SEALED                   CCN000040000000040000FN00000000020220901000040000NNED0020220907161349W4P61C0C  00002000000000044000000092132W4P6  HJYHK-J 004300260014
BI00B32W4    4500199846     202211247222-6244-40             CONNECTOR                CCN000003200000003200FN00000000020221001000003200NNED0220220907132128W48 4N0N  00000080000001239200001422032W48   HJYHK   005600390040
BI00B32W4    4500199845     202211037222-6244-40             CONNECTOR                CCN000001600000001600FN00000000020221001000001600NNED0220220907132150W48 4N0N  00000080000001239200001422032W48   HJYHK   005600390040
BI00B32W4    4500199804     202210067283-1020                CONNECTOR                CCN000150000000150000FN00000000020220901000150000NNED0220220907132209W4514N0N  00000600000000840000001049332W451  HJ32W9  005600390040
BI00B32W4    #4500200024    202211177147-3642-30             CLIP                     CCN000171000000171000FN00000000020221101000171000NNE   20220907120935W4172F0F  00000300000000542000000721332W417  HJYHK   005600390040
BI00B32W4    4500200023     202211037283-5843                CONNECTOR                CCN000006000000006000FN00000000020221101000006000NNE   20220907120935W4171N0N  00000150000000889000001132032W417  HJYHK   005600390040
BI00B32W4    4500200023     202211037283-5832                CONNECTOR HOUSING        CCN000002400000002400FN00000000020221101000002400NNE   20220907120935W4171N47  00000240000000723800000873832W417  HJYHK   005500360039
BI00B32W4    #4500200023    202211037183-8927                HOUSING                  CCN000008000000008000FN00000000020221101000008000NNE   20220907120935W4172F0F  00000400000000714000000912732W417  HJYHK   005500360039
BI00B32W4    #4500200023    202211037282-3020                CONNECTOR                CCN000010000000010000FN00000000020221101000010000NNE   20220907120935W4172N0N  00000100000000984000001145432W417  HJYHK   005500360039
BI00B32W4    #4500200023    202211037287-2641                HOUSING FEMALE ASS'Y     CCN000002800000002800FN00000000020221101000002800NNE   20220907120935W4172N0N  00000280000001246000001356032W417  HJYHK   005400370024
BI00B32W4    #4500200023    202211037287-1674                HYBRID FEMALE ASS'Y      CCN000002000000002000FN00000000020221101000002000NNE   20220907120935W4172N0N  00000200000000810800001002832W417  HJYHK   005400370024
BI00B32W4    4500199996     202211017116-1180                TERMINAL                 CCN000019500000019500FN00000000020221101000019500NNE   20220907120935W41 1P0P  00001950000000618200000903432W41   HJYHK   006400630015
BI00B32W4    4500199996     202211017017-1180-02             TERMINAL                 CCN000072000000072000FN00000000020221101000072000NNE   20220907120935W41 4P0P  00007200000001065600001229032W41   HJYHK   005100280028
BI00B32W4    4500199991     202210187116-1180                TERMINAL                 CCN000019500000019500FN00000000020221001000019500NNE   20220907120935W41 1P0P  00001950000000618200000903432W41   HJYHK   006400630015
BI00B32W4    4500199991     202210187017-1180-02             TERMINAL                 CCN000072000000072000FN00000000020221001000072000NNE   20220907120935W41 4P0P  00007200000001065600001229032W41   HJYHK   005100280028
BI00B32W4    4500199988     202210117116-1180                TERMINAL                 CCN000019500000019500FN00000000020221001000019500NNE   20220907120935W41 1P0P  00001950000000618200000903432W41   HJYHK   006400630015
BI00B32W4    4500199986     202210047116-1180                TERMINAL                 CCN000117000000117000FN00000000020221001000117000NNE   20220907120935W41 1P0P  00001950000000618200000903432W41   HJYHK   006400630015
BI00B32W4    4500199986     202210047017-1180-02             TERMINAL                 CCN000072000000072000FN00000000020221001000072000NNE   20220907120935W41 4P0P  00007200000001065600001229032W41   HJYHK   005100280028
BI00B32W4    #4500199986    202210047B58-3121-80             SEALED CONNECTOR         CCN000040000000040000FN00000000020221001000040000NNE   20220907120935W41 2C0C  00002000000000118000000195032W41   HJYHK   004300270014
BI00B32W4    4500199982     202211107114-6041                TERMINAL                 CCN000014400000014400FN00000000020221101000014400NNE   20220907120935W4L64P0P  00000360000000580700000824232W4L6  HJYHK-K 006400630015
BI00B32W4    4500199982     202211107283-1156                CONNECTOR                CCN000006400000006400FN00000000020221101000006400NNE   20220907120935W4L64N0N  00000080000000877600001078032W4L6  HJYHK-K 005600390040
BI00B32W4    @4500199982    202211107287-4098                CONNECTOR FEMALE         CCN000002400000002400FN00000000020221101000002400NNE   20220907120935W4L63N0N  00000240000000668600000908032W4L6  HJYHK-K 005500360039
BI00B32W4    @4500199982    202211107287-6634                HOUSING FEMALE ASS'Y     CCN000007200000007200FN00000000020221101000007200NNE   20220907120935W4L63N0N  00000240000001088400001337032W4L6  HJYHK-K 005500360039
BI00A32W4    4500199961     202211147116-4112-02             TERMINAL                 CCN000036000000036000FN00000000020221101000036000NNE   20220907120935W4M54P0P  00000600000000450000000738232W4M5  HJYHK-J 006400630015
BI00A32W4    4500199960     202211077116-4025                TERMINAL                 CCN000064000000064000FN00000000020221101000064000NNE   20220907120935W4M54P0P  00001600000000644800000975132W4M5  HJYHK-J 006400630017
BI00A32W4    4500199960     202211077283-7028-30             CONNECTOR                CCN000024000000024000FN00000000020221101000024000NNE   20220907120935W4M54N0N  00000300000001452000001681332W4M5  HJYHK-J 005600390040
BI00A32W4    4500199960     202211077158-3166-60             WIRE SEAL                CCN000120000000120000FN00000000020221101000120000NNE   20220907120935W4M51C0C  00004000000000104000000152432W4M5  HJYHK-J 002700430014
BI00A32W4    4500199960     202211077158-3169-40             SEALING PLUG             CCN000040000000040000FN00000000020221101000040000NNE   20220907120935W4M51C0C  00004000000000156000000204132W4M5  HJYHK-J 004300260014
BI00A32W4    4500199960     202211077283-1030                CONNECTOR                CCN000006000000006000FN00000000020221101000006000NNE   20220907120935W4M54N0N  00000600000000988000001172032W4M5  HJYHK-J 005500360039
BI00A32W4    4500199955     202211077158-3167-80             WIRE SEAL                CCN000080000000080000FN00000000020221101000080000NNE   20220907120935W4G91C0C  00002000000000048000000109032W4G9  HJYHK-J 002700430014
BI00A32W4    #4500199955    202211077158-3120-90             CONNECTOR WIRE SEAL      CCN000020000000020000FN00000000020221101000020000NNE   20220907120935W4G92C0C  00002000000000136000000194032W4G9  HJYHK-J 002700430014
BI00A32W9    4500198630     202209207282-5574-10             CONNECTOR                CCN000009600000009600FN00000000020220901000009600NNEM0020220907120935W9  4N0N  00000080000001235000001423032W9    HKYHK   005600390040
BI00B32X5    #TIB2040       202209127298-2459-60             LIF FEMALE ASSEMBLY      CCN000003192000002352FN00000000020221101000002352NNM00020220907120935X5  2N0N  00000016800000534000000729632X5    EPYNA-E 005400370024
BI00A32X5    #TIB2040       202209127298-2459-60             LIF FEMALE ASSEMBLY      CCN000000840000000840FN00000000020221101000000840NNM00020220907120935X5  2N0N  00000016800000534000000729632X5    EPYNA-E 005400370024
