AE00TI102209070607/09/202200000001600000000000000014011KGM  00000018709KGM  7114-4020                TERMINAL                 71144020                 0         0         0         0    0    0    00033600000002100000000023000077280000
AE00TI102209070607/09/202200000000300000000000000001548KGM  00000002431KGM  7114-4729-02             TERMINAL                 7114472902               0         0         0         0    0    0    00009000000003000000000015000013500000
AE00TI102209070607/09/202200000002000000000000000010260KGM  00000015964KGM  7116-4020                TERMINAL                 71164020                 0         0         0         0    0    0    00027000000001350000000028000075600000
AE00TI102209070607/09/202200000001400000000000000009027KGM  00000013651KGM  7116-4025                TERMINAL                 71164025                 0         0         0         0    0    0    00022400000001600000000034000076160000
AE00TI102209070607/09/202200000002800000000000000019146KGM  00000028350KGM  7116-4231-02             TERMINAL                 7116423102               0         0         0         0    0    0    00072800000002600000000022000160160000
AE00TI102209070607/09/202200000000200000000000000001193KGM  00000001851KGM  7116-4415-02             TERMINAL                 7116441502               0         0         0         0    0    0    00007600000003800000000016000012160000
AE00TI102209070607/09/202200000001600000000000000008947KGM  00000013510KGM  7116-5043-02             TERMINAL FEMALE          7116504302               0         0         0         0    0    0    00019200000001200000000032000061440000
AE00TI102209070607/09/202200000000500000000000000003699KGM  00000005125KGM  7126-8851-02             TERMINAL                 7126885102               0         0         0         0    0    0    00004500000000900000000060000027000000
AE00TI102209070607/09/202200000002000000000000000012960KGM  00000018664KGM  7126-8852-02             TERMINAL                 7126885202               0         0         0         0    0    0    00015000000000750000000062000093000000
AE00TI102209070607/09/202200000001000000000000000006045KGM  00000008897KGM  7126-8854-02             TERMINAL                 7126885402               0         0         0         0    0    0    00007500000000750000000059000044250000
AE00TI102209070607/09/202200000001800000000000000005951KGM  00000006948KGM  7158-3006-90             RUBBER STOPPER           7158300690               0         0         0         0    0    0    00036000000002000000000016000057600000
AE00TI102209070607/09/202200000001300000000000000004394KGM  00000005021KGM  7158-3009-60             RUBBER STOPPER           7158300960               0         0         0         0    0    0    00026000000002000000000012000031200000
AE00TI102209070607/09/202200000001000000000000000001240KGM  00000001724KGM  7158-3165-90             WIRE SEAL                7158316590               0         0         0         0    0    0    00040000000004000000000006000024000000
AE00TI102209070607/09/202200000001900000000000000001976KGM  00000002896KGM  7158-3166-60             WIRE SEAL                7158316660               0         0         0         0    0    0    00076000000004000000000004000030400000
AE00TI102209070607/09/202200000002200000000000000001056KGM  00000002121KGM  7158-3167-61             WIRE SEAL                7158316761               0         0         0         0    0    0    00044000000002000000000005000022000000
AE00TI102209070607/09/202200000002000000000000000000960KGM  00000002180KGM  7158-3167-80             WIRE SEAL                7158316780               0         0         0         0    0    0    00040000000002000000000005000020000000
AE00TI102209070607/09/202200000001600000000000000000704KGM  00000001474KGM  7158-3168-80             SEALED                   7158316880               0         0         0         0    0    0    00032000000002000000000004000012800000
AE00TI102209070607/09/202200000000900000000000000001404KGM  00000001837KGM  7158-3169-40             SEALING PLUG             7158316940               0         0         0         0    0    0    00036000000004000000000006000021600000
AE00TI102209070607/09/202200000001600000000000000008854KGM  00000016389KGM  7174-2052-30             COVER                    7174205230               0         0         0         0    0    0    00002016000000126000000237000047779200
AE00TI102209070707/09/202200000000600000000000000003294KGM  00000004554KGM  7289-5000                HOUSING FEMALE ASS'Y     72895000                 0         0         0         0    0    0    00000182400000030400000650000011856000
AE00TI102209070707/09/202200000000500000000000000005016KGM  00000006023KGM  7298-1865-30             HOUSING FEMALE ASS'Y     7298186530               0         0         0         0    0    0    00001200000000240000000196000023520000
AE00TI102209070707/09/202200000000700000000000000006871KGM  00000009030KGM  7298-5993-30             SEALED ASSY FEMALE       7298599330               0         0         0         0    0    0    00001528800000218400000266000040666080
AE00TI102209070707/09/202200000001200000000000000013314KGM  00000015115KGM  7327-6572-3W             BATTERY FUSE             732765723W               0         0         0         0    0    0    00000115200000009600008162000094026240
AE00TI102209070707/09/202200000000900000000000000010268KGM  00000012203KGM  7327-6840-3W             BATTERY FUSE             732768403W               0         0         0         0    0    0    00000064800000007200009909000064210320
AE00TI102209070707/09/202200000002400000000000000020890KGM  00000030240KGM  7370-0309                J/B ASS'Y                73700309                 0         0         0         0    0    0    00000038400000001600028585000109766400
AE00TI102209070707/09/202200000001500000000000000011130KGM  00000016830KGM  7388-2978-30             HOUSING MALE ASS'Y       7388297830               0         0         0         0    0    0    00000720000000048000001790000128880000
AE00TI102209070707/09/202200000001800000000000000023760KGM  00000028260KGM  7470-3082                J/B COMPLETE ASS'Y       74703082                 0         0         0         0    0    0    00000043200000002400031298000135207360
AE00TI102209070707/09/202200000001100000000000000000000KGM  00000000000KGM  7470-5300D               J/B COMPLETE ASS'Y       74705300D                0         0         0         0    0    0    00000011000000001000000000000000000000
AE00TI102209070707/09/202200000003000000000000000000000KGM  00000000000KGM  7470-5301                J/B COMPLETE ASS'Y       74705301                 0         0         0         0    0    0    00000030000000001000000000000000000000
AE00TI102209070707/09/202200000003000000000000000000000KGM  00000000000KGM  7470-5823D               J/B COMPLETE ASS'Y       74705823D                0         0         0         0    0    0    00000045000000001500000000000000000000
