AE00TI102209070507/09/202200000000300000000000000002518KGM  00000003358KGM  7C89-6868-30             SEALED ASSY FEMALE       7C89686830               0         0         0         0    0    0    00000756000000252000000335000025326000
AE00TI102209070507/09/202200000000400000000000000003464KGM  00000004044KGM  7288-3329-30             HOUSING MALE             7288332930               0         0         0         0    0    0    00000600000000150000000354000021240000
AE00TI102209070507/09/202200000000800000000000000009642KGM  00000010722KGM  7288-6547                CONNECTOR MALE ASS'Y     72886547                 0         0         0         0    0    0    00000600000000075000001125000067500000
AE00TI102209070507/09/202200000000500000000000000003432KGM  00000004507KGM  7289-3342                HOUSING FEMALE ASS'Y     72893342                 0         0         0         0    0    0    00001200000000240000000186000022320000
AE00TI102209070507/09/202200000000800000000000000005491KGM  00000007211KGM  7289-3342-30             HOUSING FEMALE ASS'Y     7289334230               0         0         0         0    0    0    00001920000000240000000191000036672000
AE00TI102209070507/09/202200000000200000000000000002343KGM  00000002737KGM  7289-5011-30             HOUSING FEMALE ASS'Y     7289501130               0         0         0         0    0    0    00000480000000240000000333000015984000
AE00TI102209070507/09/202200000000400000000000000003357KGM  00000004477KGM  7289-6868-30             SEALED ASSY FEMALE       7289686830               0         0         0         0    0    0    00001008000000252000000332000033465600
AE00TI102209070507/09/202200000000300000000000000003324KGM  00000004562KGM  7289-9553-50             SEALED ASSY FEMALE       7289955350               0         0         0         0    0    0    00000882000000294000000252000022226400
AE00TI102209070507/09/202200000004000000000000000000000KGM  00000000000KGM  7470-5783D               J/B COMPLETE ASS'Y       74705783D                0         0         0         0    0    0    00000060000000001500000000000000000000
AE00TI102209070507/09/202200000001800000000000000000000KGM  00000000000KGM  7470-5783E               J/B COMPLETE ASS'Y       74705783E                0         0         0         0    0    0    00000018000000001000000000000000000000
