AE00TI102209070307/09/202200000000200000000000000001519KGM  00000002049KGM  7187-3356                JOINT CONNECTOR          71873356                 0         0         0         0    0    0    00000240000000120000001038000024912000
AE00TI102209070307/09/202200000000500000000000000003810KGM  00000005146KGM  7187-3357-40             JOINT CONNECTOR          7187335740               0         0         0         0    0    0    00000600000000120000001059000063540000
AE00TI102209070307/09/202200000000600000000000000004579KGM  00000006182KGM  7187-3359-60             JOINT CONNECTOR          7187335960               0         0         0         0    0    0    00000720000000120000001079000077688000
AE00TI102209070307/09/202200000000100000000000000000760KGM  00000001027KGM  7187-3360                JOINT CONNECTOR          71873360                 0         0         0         0    0    0    00000120000000120000001062000012744000
AE00TI102209070307/09/202200000000200000000000000001158KGM  00000001372KGM  7189-9516-40             HOUSING                  7189951640               0         0         0         0    0    0    00000400000000200000000238000009520000
AE00TI102209070307/09/202200000000500000000000000002897KGM  00000003432KGM  7189-9519-80             HOUSING                  7189951980               0         0         0         0    0    0    00001000000000200000000243000024300000
AE00TI102209070307/09/202200000002500000000000000000000KGM  00000000000KGM  7273-2981-0WD            CASSETTE BRACKET         727329810WD              0         0         0         0    0    0    00000250000000010000000000000000000000
AE00TI102209070307/09/202200000002500000000000000000000KGM  00000000000KGM  7273-2981-0WE            CASSETTE BRACKET         727329810WE              0         0         0         0    0    0    00000201000000008000000000000000000000
AE00TI102209070307/09/202200000007200000000000000000000KGM  00000000000KGM  7273-2982-0WD            CASSETTE BRACKET         727329820WD              0         0         0         0    0    0    00000720000000010000000000000000000000
AE00TI102209070307/09/202200000002500000000000000000000KGM  00000000000KGM  7273-2982-0WE            CASSETTE BRACKET         727329820WE              0         0         0         0    0    0    00000375000000015000000000000000000000
AE00TI102209070307/09/202200000004300000000000000000000KGM  00000000000KGM  7273-2983-0WD            CASSETTE BRACKET         727329830WD              0         0         0         0    0    0    00000430000000010000000000000000000000
AE00TI102209070307/09/202200000000700000000000000000000KGM  00000000000KGM  7273-2983-0WE            CASSETTE BRACKET         727329830WE              0         0         0         0    0    0    00000056000000008000000000000000000000
AE00TI102209070307/09/202200000000300000000000000002901KGM  00000003503KGM  7286-1917                CONNECTOR MALE ASS'Y     72861917                 0         0         0         0    0    0    00000360000000120000000517000018612000
AE00TI102209070307/09/202200000000400000000000000003415KGM  00000004181KGM  7287-9155                HOUSING FEMALE ASS'Y     72879155                 0         0         0         0    0    0    00000384000000096000000357000013708800
AE00TI102209070307/09/202200000000100000000000000000894KGM  00000001185KGM  7287-9234                JOINT CONNECTOR          72879234                 0         0         0         0    0    0    00000960000000960000000137000013152000
AE00TI102209070307/09/202200000000900000000000000007795KGM  00000009100KGM  7288-3329-30             HOUSING MALE             7288332930               0         0         0         0    0    0    00001350000000150000000354000047790000
AE00TI102209070307/09/202200000000300000000000000002601KGM  00000003036KGM  7288-3334-30             HOUSING MALE             7288333430               0         0         0         0    0    0    00000450000000150000000354000015930000
AE00TI102209070307/09/202200000000200000000000000001734KGM  00000002024KGM  7288-3335-30             HOUSING MALE             7288333530               0         0         0         0    0    0    00000300000000150000000354000010620000
AE00TI102209070307/09/202200000000100000000000000000867KGM  00000001012KGM  7288-3339-30             HOUSING MALE             7288333930               0         0         0         0    0    0    00000150000000150000000354000005310000
AE00TI102209070307/09/202200000000400000000000000004821KGM  00000005361KGM  7288-6547                CONNECTOR MALE ASS'Y     72886547                 0         0         0         0    0    0    00000300000000075000001125000033750000
AE00TI102209070307/09/202200000000200000000000000001373KGM  00000001803KGM  7289-3342                HOUSING FEMALE ASS'Y     72893342                 0         0         0         0    0    0    00000480000000240000000186000008928000
AE00TI102209070307/09/202200000003500000000000000024024KGM  00000031549KGM  7289-3342-30             HOUSING FEMALE ASS'Y     7289334230               0         0         0         0    0    0    00008400000000240000000191000160440000
AE00TI102209070307/09/202200000000300000000000000002488KGM  00000003148KGM  7289-6518-30             HOUSING FEMALE ASS'Y     7289651830               0         0         0         0    0    0    00000360000000120000000598000021528000
AE00TI102209070307/09/202200000002400000000000000020890KGM  00000030240KGM  7370-0309                J/B ASS'Y                73700309                 0         0         0         0    0    0    00000038400000001600028585000109766400
AE00TI102209070307/09/202200000000500000000000000006600KGM  00000007850KGM  7470-3082                J/B COMPLETE ASS'Y       74703082                 0         0         0         0    0    0    00000012000000002400031298000037557600
AE00TI102209070307/09/202200000001300000000000000017160KGM  00000020410KGM  7470-4481                J/B COMPLETE ASS'Y       74704481                 0         0         0         0    0    0    00000031200000002400000000000000000000
AE00TI102209070307/09/202200000000400000000000000000000KGM  00000000000KGM  7470-5308E               J/B COMPLETE ASS'Y       74705308E                0         0         0         0    0    0    00000004000000001000000000000000000000
AE00TI102209070307/09/202200000003200000000000000000000KGM  00000000000KGM  7470-5783E               J/B COMPLETE ASS'Y       74705783E                0         0         0         0    0    0    00000032000000001000000000000000000000
AE00TI102209070307/09/202200000000400000000000000000000KGM  00000000000KGM  7470-5791E               J/B COMPLETE ASS'Y       74705791E                0         0         0         0    0    0    00000004000000001000000000000000000000
AE00TI102209070307/09/202200000001200000000000000000000KGM  00000000000KGM  7470-5927D               J/B COMPLETE ASS'Y       74705927D                0         0         0         0    0    0    00000018000000001500000000000000000000
