AE00TI102209070407/09/202200000000800000000000000002000KGM  00000002448KGM  7158-3003-90             RUBBER STOPPER           7158300390               0         0         0         0    0    0    00016000000002000000000012000019200000
AE00TI102209070407/09/202200000000300000000000000002189KGM  00000002499KGM  7182-2412                HOUSING MALE             71822412                 0         0         0         0    0    0    00000150000000050000000638000009570000
AE00TI102209070407/09/202200000000500000000000000004097KGM  00000004737KGM  7198-1373-60             HOUSING FEMALE           7198137360               0         0         0         0    0    0    00001000000000200000000134000013400000
AE00TI102209070407/09/202200000004000000000000000009592KGM  00000019592KGM  7271-1820-30             CASE SUB ASSY,ECU        7271182030               0         0         0         0    0    0    00000072000000001800009576000068947200
AE00TI102209070407/09/202200000000500000000000000002290KGM  00000002903KGM  7282-1024                HOUSING MALE             72821024                 0         0         0         0    0    0    00000500000000100000000534000026700000
AE00TI102209070407/09/202200000000700000000000000006754KGM  00000008224KGM  7282-4577                HOUSING MALE ASS'Y       72824577                 0         0         0         0    0    0    00001680000000240000000229000038472000
AE00TI102209070407/09/202200000001000000000000000007826KGM  00000009926KGM  7282-4578                HOUSING MALE ASS'Y       72824578                 0         0         0         0    0    0    00001200000000120000000255000030600000
AE00TI102209070407/09/202200000000300000000000000003190KGM  00000003850KGM  7282-4855                HOUSING MALE ASS'Y       72824855                 0         0         0         0    0    0    00000360000000120000000347000012492000
AE00TI102209070407/09/202200000000100000000000000000230KGM  00000000339KGM  7282-5528-70             HOUSING MALE ASS'Y       7282552870               0         0         0         0    0    0    00000100000000100000000434000004340000
AE00TI102209070407/09/202200000000200000000000000001704KGM  00000002022KGM  7283-1222                CONNECTOR                72831222                 0         0         0         0    0    0    00000240000000120000000367000008808000
AE00TI102209070407/09/202200000000300000000000000001954KGM  00000002614KGM  7283-4576                HOUSING FEMALE ASS'Y     72834576                 0         0         0         0    0    0    00001440000000480000000128000018432000
AE00TI102209070407/09/202200000000500000000000000004188KGM  00000005288KGM  7283-4578                HOUSING FEMALE ASS'Y     72834578                 0         0         0         0    0    0    00001200000000240000000190000022800000
AE00TI102209070407/09/202200000000200000000000000001908KGM  00000002208KGM  7283-5830                CONNECTOR                72835830                 0         0         0         0    0    0    00001200000000600000000154000018480000
AE00TI102209070407/09/202200000000400000000000000003816KGM  00000004416KGM  7283-5830-30             CONNECTOR                7283583030               0         0         0         0    0    0    00002400000000600000000155000037200000
AE00TI102209070407/09/202200000000100000000000000000724KGM  00000000874KGM  7283-5832-30             CONNECTOR HOUSING        7283583230               0         0         0         0    0    0    00000240000000240000000208000004992000
AE00TI102209070407/09/202200000000200000000000000002756KGM  00000003373KGM  7283-5833                CONNECTOR HOUSING        72835833                 0         0         0         0    0    0    00000728000000364000000252000018345600
AE00TI102209070407/09/202200000000600000000000000005334KGM  00000006792KGM  7283-5843                CONNECTOR                72835843                 0         0         0         0    0    0    00000900000000150000000280000025200000
AE00TI102209070407/09/202200000000400000000000000001776KGM  00000002425KGM  7283-5845                CONNECTOR HOUSING        72835845                 0         0         0         0    0    0    00002400000000600000000133000031920000
AE00TI102209070407/09/202200000000200000000000000000888KGM  00000001213KGM  7283-5845-30             CONNECTOR HOUSING        7283584530               0         0         0         0    0    0    00001200000000600000000133000015960000
AE00TI102209070407/09/202200000000100000000000000000885KGM  00000001102KGM  7283-5846                HOUSING                  72835846                 0         0         0         0    0    0    00000150000000150000000241000003615000
AE00TI102209070407/09/202200000000100000000000000000914KGM  00000001143KGM  7283-6120                CONNECTOR HOUSING        72836120                 0         0         0         0    0    0    00000150000000150000000368000005520000
AE00TI102209070407/09/202200000000200000000000000000744KGM  00000001109KGM  7283-6175-30             HOUSING FEMALE ASS'Y     7283617530               0         0         0         0    0    0    00000200000000100000000687000013740000
AE00TI102209070407/09/202200000000200000000000000000700KGM  00000000925KGM  7283-8721-30             HOUSING FEMALE ASS'Y     7283872130               0         0         0         0    0    0    00000200000000100000000415000008300000
AE00TI102209070407/09/202200000000100000000000000000794KGM  00000000907KGM  7283-8730-30             HOUSING FEMALE ASS'Y     7283873030               0         0         0         0    0    0    00000200000000200000000426000008520000
AE00TI102209070407/09/202200000001100000000000000010017KGM  00000012437KGM  7286-3885                CONNECTOR MALE ASS'Y     72863885                 0         0         0         0    0    0    00001320000000120000000295000038940000
AE00TI102209070407/09/202200000000600000000000000005464KGM  00000006784KGM  7286-3885-40             CONNECTOR MALE ASS'Y     7286388540               0         0         0         0    0    0    00000720000000120000000313000022536000
AE00TI102209070407/09/202200000000500000000000000003840KGM  00000004890KGM  7286-4097                CONNECTOR MALE ASS'Y     72864097                 0         0         0         0    0    0    00000800000000160000000196000015680000
AE00TI102209070407/09/202200000000300000000000000002000KGM  00000002769KGM  7287-1915                CONNECTOR ASS'Y          72871915                 0         0         0         0    0    0    00000720000000240000000161000011592000
AE00TI102209070407/09/202200000000600000000000000006178KGM  00000007498KGM  7287-3885                HYBRID FEMALE ASS'Y      72873885                 0         0         0         0    0    0    00001440000000240000000207000029808000
AE00TI102209070407/09/202200000000500000000000000005148KGM  00000006248KGM  7287-3885-30             HYBRID FEMALE ASS'Y      7287388530               0         0         0         0    0    0    00001200000000240000000215000025800000
AE00TI102209070407/09/202200000000200000000000000002059KGM  00000002499KGM  7287-3885-40             HYBRID FEMALE ASS'Y      7287388540               0         0         0         0    0    0    00000480000000240000000216000010368000
AE00TI102209070407/09/202200000000400000000000000004886KGM  00000005766KGM  7287-8072                HOUSING FEMALE ASS'Y     72878072                 0         0         0         0    0    0    00000960000000240000000247000023712000
AE00TI102209070407/09/202200000000300000000000000003499KGM  00000004159KGM  7287-8073                HOUSING FEMALE ASS'Y     72878073                 0         0         0         0    0    0    00000720000000240000000244000017568000
AE00TI102209070407/09/202200000000200000000000000002458KGM  00000002898KGM  7287-9000                HOUSING FEMALE ASS'Y     72879000                 0         0         0         0    0    0    00000960000000480000000162000015552000
AE00TI102209070407/09/202200000000900000000000000003488KGM  00000007088KGM  7288-3206                HOUSING MALE ASS'Y       72883206                 0         0         0         0    0    0    00000918000000102000000351000032221800
AE00TI102209070407/09/202200000003900000000000000026770KGM  00000035155KGM  7289-3342                HOUSING FEMALE ASS'Y     72893342                 0         0         0         0    0    0    00009360000000240000000186000174096000
AE00TI102209070407/09/202200000001000000000000000006864KGM  00000009014KGM  7289-3342-40             HOUSING FEMALE ASS'Y     7289334240               0         0         0         0    0    0    00002400000000240000000192000046080000
AE00TI102209070407/09/202200000002500000000000000017160KGM  00000022535KGM  7289-3342-90             HOUSING FEMALE ASS'Y     7289334290               0         0         0         0    0    0    00006000000000240000000196000117600000
AE00TI102209070407/09/202200000000200000000000000002581KGM  00000003241KGM  7289-6523-30             HOUSING FEMALE ASS'Y     7289652330               0         0         0         0    0    0    00000048000000024000004721000022660800
AE00TI102209070407/09/202200000001000000000000000013512KGM  00000016662KGM  7289-6524-30             HOUSING FEMALE ASS'Y     7289652430               0         0         0         0    0    0    00000240000000024000004757000114168000
AE00TI102209070407/09/202200000001900000000000000021888KGM  00000025878KGM  7289-6547                HOUSING FEMALE ASS'Y     72896547                 0         0         0         0    0    0    00004560000000240000000229000104424000
AE00TI102209070407/09/202200000000400000000000000005116KGM  00000006374KGM  7289-7208-30             HOUSING FEMALE ASS'Y     7289720830               0         0         0         0    0    0    00000096000000024000004419000042422400
AE00TI102209070407/09/202200000001000000000000000012699KGM  00000015437KGM  7289-9613-30             HOUSING FEMALE ASS'Y     7289961330               0         0         0         0    0    0    00000240000000024000004796000115104000
AE00TI102209070407/09/202200000000100000000000000000533KGM  00000000729KGM  7298-2457-90             LIF FEMALE ASSEMBLY      7298245790               0         0         0         0    0    0    00000016800000016800001464000002459520
AE00TI102209070407/09/202200000000100000000000000001162KGM  00000001285KGM  7386-2747                CONNECTOR ASS'Y          73862747                 0         0         0         0    0    0    00000200000000200000000413000008260000
