BI00B1200    2399T52824     202210207116-4100-02             TERMINAL                 CCN000090000000090000FN00000000020221101000090000NNE   20220801121755    4P0P  0000150000000069600000099021200    YCYC    006400630015
BI00B32A7    #ZZ22101LMW    202209077157-7812                SEAL RUBBER              CCN000020000000020000FN00000000020221001000020000NNMD0420220801132804    2C0C  00001000000000137000000202032A7    ZZZZY   002700430014
BI00B32B1    A22042         202209237114-4032                TERMINAL                 CCN000007500000007500FN00000000020221201000007500NNM   20220801121755B1  4P0P  00000750000000735000001063632B1    AXARNE-M006400630017
BI00B32B1    A22042         202209237282-5553-30             CONNECTOR                CCN000001000000001000FN00000000020221201000001000NNM   20220801121755B1  4N0N  00000100000001010000001187332B1    AXARNE-M005500360039
BI00B32B1    #A22042        202209237158-3376-50             CONNECTOR WIRE SEAL      CCN000160000000160000FN00000000020221201000160000NNM   20220801121755B1  2C0C  00002000000000184000000240732B1    AXARNE-M002700430014
BI00B32B1    #A22042        202209237283-8226-30             CONNECTOR                CCN000010000000010000FN00000000020221201000010000NNM   20220801121755B1  2N0N  00000200000000820000001008032B1    AXARNE-M005400370024
BI00B32B6    A72042         202209237116-4037                TERMINAL                 CCN000012000000012000FN00000000020221201000012000NNM   20220801121755B6  4P0P  00000600000000600000000894232B6    AXARNE-M006400630015
BI00B32B6    A72042         202209237017-1180-02             TERMINAL                 CCN000144000000144000FN00000000020221201000144000NNM   20220801121755B6  4P0P  00007200000001065600001229032B6    AXARNE-M005100280028
BI00B32B6    A72042         202209237017-1181-02             TERMINAL                 CCN000063000000063000FN00000000020221201000063000NNM   20220801121755B6  4P0P  00006300000001089900001266832B6    AXARNE-M005100280028
BI00B32B6    A72042         202209237017-1182-02             TERMINAL                 CCN000045000000045000FN00000000020221201000045000NNM   20220801121755B6  4P0P  00004500000001165500001318632B6    AXARNE-M005100280028
BI00B32B6    A72042         202209237017-1183-02             TERMINAL                 CCN000027000000027000FN00000000020221201000027000NNM   20220801121755B6  4P0P  00002700000001139400001307432B6    AXARNE-M005100280028
BI00B32B6    A72042         202209237158-3166-60             WIRE SEAL                CCN000320000000320000FN00000000020221201000320000NNM   20220801121755B6  1C0C  00004000000000104000000152432B6    AXARNE-M002700430014
BI00B32B6    A72042         202209237158-3167-80             WIRE SEAL                CCN000200000000200000FN00000000020221201000200000NNM   20220801121755B6  1C0C  00002000000000048000000109032B6    AXARNE-M002700430014
BI00B32B6    A72042         202209237288-3339-30             HOUSING MALE             CCN000003000000003000FN00000000020221201000003000NNM   20220801121755B6  4N0N  00000150000000867000001012032B6    AXARNE-M005400370024
BI00B32B6    #A72042        202209237158-3017                RUBBER STOPPER           CCN000010000000010000FN00000000020221201000010000NNM   20220801121755B6  2C0C  00001000000000375500000435032B6    AXARNE-M002700430014
BI00B32B6    #A72042        202209237158-3003-90             RUBBER STOPPER           CCN000060000000060000FN00000000020221201000060000NNM   20220801121755B6  2C0C  00002000000000250000000306032B6    AXARNE-M002700430014
BI00B32B7    #A82042        202209237135-7031                GROMMET                  CCN000002400000002400FN00000000020221201000002400NNM   20220801121755B7  2H0H  00000010000000634200000744232B7    AXARNE-M005400370024
BI00B32B7    #A82042        202209237158-3003-90             RUBBER STOPPER           CCN000020000000020000FN00000000020221201000020000NNM   20220801121755B7  2C0C  00002000000000250000000306032B7    AXARNE-M002700430014
BI00B32CA    PTA33013       202209297196-1461-06             TERMINAL FEMALE          CCN000096000000096000FN00000000020230101000096000NNE   20220801140411    4P0P  00002400000000386400000692932CA    YPYPY   006400630015
BI00T32CJ    @JQN2101-I     202210067183-2510                HOUSING                  CCN000027000000027000FN00000000020221001000027000NNM   20220801121755    3F0F  00000300000001063500001159032CJ    QNYHVQN 005400370024
BI00T32CJ    @JQN2101-I     202210067183-3190                JOINT CONNECTOR          CCN000183600000183600FN00000000020221001000183600NNM   20220801121755    3F0F  00000360000000457600000667832CJ    QNYHVQN 005500360039
BI00T32CJ    @JQN2101-I     202210067183-7770-40             HOUSING                  CCN000054000000054000FN00000000020221001000054000NNM   20220801121755    3F0F  00000600000001011000001161032CJ    QNYHVQN 005400370024
BI00T32CJ    @JQN2101-I     202210067283-1223-30             HOUSING SUB ASSEMBLY     CCN000019200000019200FN00000000020221001000019200NNM   20220801121755    3N0N  00000480000000749300000998032CJ    QNYHVQN 005500360039
BI00T32CJ    @JQN2101-I     202210067283-5972                CONNECTOR FEMALE         CCN000004800000004800FN00000000020221001000004800NNM   20220801121755    3N0N  00000480000000550100000763032CJ    QNYHVQN 005500360039
BI00T32CJ    @JQN2101-I     202210067283-5976                CONNECTOR ASS'Y          CCN000024000000024000FN00000000020221001000024000NNM   20220801121755    3N0N  00000480000000840000001083632CJ    QNYHVQN 005500360039
BI00T32CJ    @JQN2101-I     202210067283-8179                CONNECTOR HOUSING        CCN000007200000007200FN00000000020221001000007200NNM   20220801121755    3N0N  00000240000000549600000804032CJ    QNYHVQN 005500360039
BI00B32CJ    JQN209B        202208117116-1686-02             TERMINAL                 CCN000021000000021000FN00000000020220901000021000NNE   20220801145106    4P0P  00002100000000869400001021632CJ    QNYHVQN 005100280028
BI00B32CJ    JQN209B        202208117116-4415-02             TERMINAL                 CCN000114000000114000FN00000000020220901000114000NNE   20220801145106    4P0P  00003800000000596600000925732CJ    QNYHVQN 006400630017
BI00B32CJ    JQN209B        202208117286-1900                CONNECTOR HOUSING        CCN000004800000004800FN00000000020220901000004800NNE   20220801145106    4N0N  00000480000001161600001376632CJ    QNYHVQN 005500360039
BI00B32CJ    JQN209B        202208117298-4094-10             HOUSING FEMALE ASS'Y     CCN000003380000003380FN00000000020220901000003380NNE   20220801145106    4N0N  00000338000001097400001358732CJ    QNYHVQN 005400370024
BI00B32CJ    JQN209B        202208117116-5750-02             TERMINAL                 CCN000090000000090000FN00000000020220901000090000NNE   20220801145106    4P0P  00001500000000457500000742732CJ    QNYHVQN 006400630015
BI00B32CJ    JQN209B        202208117116-5752-02             TERMINAL                 CCN000084000000084000FN00000000020220901000084000NNE   20220801145106    4P0P  00002100000000571200000856432CJ    QNYHVQN 006400630015
BI00B32CJ    #JQN209B       202208117158-3015-10             RUBBER STOPPER           CCN000020000000020000FN00000000020220901000020000NNE   20220801144936    2C0C  00001000000000419500000474032CJ    QNYHVQN 002700430014
BI00B32CJ    JQN209C        202208267287-8642-40             HOUSING FEMALE ASS'Y     CCN000002800000002800FN00000000020220901000002800NNE   20220801145152    4N0N  00000280000000915600001107632CJ    QNYHVQN 005400370024
BI00B32CJ    JQN2105        202210077017-1180-02             TERMINAL                 CCN000144000000144000FN00000000020221001000144000NNM   20220801151332    4P0P  00007200000001065600001229032CJ    QNYHVQN 005100280028
BI00B32CJ    JQN2103        202209237017-1181-02             TERMINAL                 CCN000063000000063000FN00000000020221001000063000NNM   20220801151332    4P0P  00006300000001089900001266832CJ    QNYHVQN 005100280028
BI00B32CJ    JQN2104        202209307017-1181-02             TERMINAL                 CCN000063000000063000FN00000000020221001000063000NNM   20220801151332    4P0P  00006300000001089900001266832CJ    QNYHVQN 005100280028
BI00B32CJ    JQN2101        202209097017-1182-02             TERMINAL                 CCN000045000000045000FN00000000020221001000045000NNM   20220801151332    4P0P  00004500000001165500001318632CJ    QNYHVQN 005100280028
BI00B32CJ    JQN2102        202209167017-1182-02             TERMINAL                 CCN000045000000045000FN00000000020221001000045000NNM   20220801151332    4P0P  00004500000001165500001318632CJ    QNYHVQN 005100280028
BI00B32CJ    JQN2103        202209237017-1182-02             TERMINAL                 CCN000045000000045000FN00000000020221001000045000NNM   20220801151332    4P0P  00004500000001165500001318632CJ    QNYHVQN 005100280028
BI00B32CJ    JQN2104        202209307017-1182-02             TERMINAL                 CCN000045000000045000FN00000000020221001000045000NNM   20220801151332    4P0P  00004500000001165500001318632CJ    QNYHVQN 005100280028
BI00B32CJ    JQN2105        202210077017-1182-02             TERMINAL                 CCN000045000000045000FN00000000020221001000045000NNM   20220801151332    4P0P  00004500000001165500001318632CJ    QNYHVQN 005100280028
BI00B32CJ    JQN2101        202209097017-1183-02             TERMINAL                 CCN000027000000027000FN00000000020221001000027000NNM   20220801151332    4P0P  00002700000001139400001307432CJ    QNYHVQN 005100280028
BI00B32CJ    JQN2103        202209237017-1183-02             TERMINAL                 CCN000027000000027000FN00000000020221001000027000NNM   20220801151332    4P0P  00002700000001139400001307432CJ    QNYHVQN 005100280028
BI00B32CJ    JQN2104        202209307017-1183-02             TERMINAL                 CCN000027000000027000FN00000000020221001000027000NNM   20220801151332    4P0P  00002700000001139400001307432CJ    QNYHVQN 005100280028
BI00B32CJ    JQN2105        202210077017-1183-02             TERMINAL                 CCN000027000000027000FN00000000020221001000027000NNM   20220801151332    4P0P  00002700000001139400001307432CJ    QNYHVQN 005100280028
BI00B32CJ    JQN2101        202209097114-4020                TERMINAL                 CCN000021000000021000FN00000000020221001000021000NNM   20220801151332    4P0P  00002100000000875700001169332CJ    QNYHVQN 006400630015
BI00B32CJ    JQN2102        202209167114-4020                TERMINAL                 CCN000063000000063000FN00000000020221001000063000NNM   20220801151332    4P0P  00002100000000875700001169332CJ    QNYHVQN 006400630015
BI00B32CJ    JQN2103        202209237114-4020                TERMINAL                 CCN000084000000084000FN00000000020221001000084000NNM   20220801151332    4P0P  00002100000000875700001169332CJ    QNYHVQN 006400630015
BI00B32CJ    JQN2104        202209307114-4020                TERMINAL                 CCN000063000000063000FN00000000020221001000063000NNM   20220801151332    4P0P  00002100000000875700001169332CJ    QNYHVQN 006400630015
BI00B32CJ    JQN2105        202210077114-4020                TERMINAL                 CCN000063000000063000FN00000000020221001000063000NNM   20220801151332    4P0P  00002100000000875700001169332CJ    QNYHVQN 006400630015
BI00B32CJ    JQN2102        202209167114-4021                TERMINAL                 CCN000015000000015000FN00000000020221001000015000NNM   20220801151332    4P0P  00001500000000670500000964132CJ    QNYHVQN 006400630015
BI00B32CJ    JQN2103        202209237114-4021                TERMINAL                 CCN000030000000030000FN00000000020221001000030000NNM   20220801151332    4P0P  00001500000000670500000964132CJ    QNYHVQN 006400630015
BI00B32CJ    JQN2104        202209307114-4021                TERMINAL                 CCN000030000000030000FN00000000020221001000030000NNM   20220801151332    4P0P  00001500000000670500000964132CJ    QNYHVQN 006400630015
BI00B32CJ    JQN2105        202210077114-4021                TERMINAL                 CCN000015000000015000FN00000000020221001000015000NNM   20220801151332    4P0P  00001500000000670500000964132CJ    QNYHVQN 006400630015
BI00B32CJ    JQN2101        202209097114-4031                TERMINAL                 CCN000010500000010500FN00000000020221001000010500NNM   20220801151332    4P0P  00001050000000966000001294632CJ    QNYHVQN 006400630017
BI00B32CJ    JQN2102        202209167114-4031                TERMINAL                 CCN000010500000010500FN00000000020221001000010500NNM   20220801151332    4P0P  00001050000000966000001294632CJ    QNYHVQN 006400630017
BI00B32CJ    JQN2103        202209237114-4031                TERMINAL                 CCN000010500000010500FN00000000020221001000010500NNM   20220801151332    4P0P  00001050000000966000001294632CJ    QNYHVQN 006400630017
BI00B32CJ    JQN2104        202209307114-4031                TERMINAL                 CCN000010500000010500FN00000000020221001000010500NNM   20220801151332    4P0P  00001050000000966000001294632CJ    QNYHVQN 006400630017
BI00B32CJ    JQN2101        202209097114-4032                TERMINAL                 CCN000007500000007500FN00000000020221001000007500NNM   20220801151332    4P0P  00000750000000735000001063632CJ    QNYHVQN 006400630017
BI00B32CJ    JQN2102        202209167114-4032                TERMINAL                 CCN000015000000015000FN00000000020221001000015000NNM   20220801151332    4P0P  00000750000000735000001063632CJ    QNYHVQN 006400630017
BI00B32CJ    JQN2103        202209237114-4032                TERMINAL                 CCN000022500000022500FN00000000020221001000022500NNM   20220801151332    4P0P  00000750000000735000001063632CJ    QNYHVQN 006400630017
BI00B32CJ    JQN2104        202209307114-4032                TERMINAL                 CCN000030000000030000FN00000000020221001000030000NNM   20220801151332    4P0P  00000750000000735000001063632CJ    QNYHVQN 006400630017
BI00B32CJ    JQN2105        202210077114-4032                TERMINAL                 CCN000030000000030000FN00000000020221001000030000NNM   20220801151332    4P0P  00000750000000735000001063632CJ    QNYHVQN 006400630017
BI00B32CJ    JQN2102        202209167114-4231-02             TERMINAL                 CCN000090000000090000FN00000000020221001000090000NNM   20220801151332    4P0P  00001800000000554400000848032CJ    QNYHVQN 006400630015
BI00B32CJ    JQN2103        202209237114-4231-02             TERMINAL                 CCN000090000000090000FN00000000020221001000090000NNM   20220801151332    4P0P  00001800000000554400000848032CJ    QNYHVQN 006400630015
BI00B32CJ    JQN2104        202209307114-4231-02             TERMINAL                 CCN000090000000090000FN00000000020221001000090000NNM   20220801151332    4P0P  00001800000000554400000848032CJ    QNYHVQN 006400630015
BI00B32CJ    JQN2105        202210077114-4231-02             TERMINAL                 CCN000108000000108000FN00000000020221001000108000NNM   20220801151332    4P0P  00001800000000554400000848032CJ    QNYHVQN 006400630015
BI00B32CJ    JQN2102        202209167114-4624-02             TERMINAL                 CCN000024000000024000FN00000000020221001000024000NNM   20220801151332    4P0P  00002400000000895200001188832CJ    QNYHVQN 006400630015
BI00B32CJ    JQN2103        202209237114-4624-02             TERMINAL                 CCN000024000000024000FN00000000020221001000024000NNM   20220801151332    4P0P  00002400000000895200001188832CJ    QNYHVQN 006400630015
BI00B32CJ    JQN2104        202209307114-4624-02             TERMINAL                 CCN000024000000024000FN00000000020221001000024000NNM   20220801151332    4P0P  00002400000000895200001188832CJ    QNYHVQN 006400630015
BI00B32CJ    JQN2101        202209097114-4728-02             TERMINAL                 CCN000090000000090000FN00000000020221001000090000NNM   20220801151332    4P0P  00003000000000510000000804232CJ    QNYHVQN 006400630015
BI00B32CJ    JQN2102        202209167114-4728-02             TERMINAL                 CCN000480000000480000FN00000000020221001000480000NNM   20220801151332    4P0P  00003000000000510000000804232CJ    QNYHVQN 006400630015
BI00B32CJ    JQN2103        202209237114-4728-02             TERMINAL                 CCN000450000000450000FN00000000020221001000450000NNM   20220801151332    4P0P  00003000000000510000000804232CJ    QNYHVQN 006400630015
BI00B32CJ    JQN2104        202209307114-4728-02             TERMINAL                 CCN000540000000540000FN00000000020221001000540000NNM   20220801151332    4P0P  00003000000000510000000804232CJ    QNYHVQN 006400630015
BI00B32CJ    JQN2105        202210077114-4728-02             TERMINAL                 CCN000390000000390000FN00000000020221001000390000NNM   20220801151332    4P0P  00003000000000510000000804232CJ    QNYHVQN 006400630015
BI00B32CJ    JQN2103        202209237114-4728-08             TERMINAL                 CCN000060000000060000FN00000000020221001000060000NNM   20220801151332    4P0P  00003000000000507000000801232CJ    QNYHVQN 006400630015
BI00B32CJ    JQN2104        202209307114-4728-08             TERMINAL                 CCN000030000000030000FN00000000020221001000030000NNM   20220801151332    4P0P  00003000000000507000000801232CJ    QNYHVQN 006400630015
BI00B32CJ    JQN2105        202210077114-4728-08             TERMINAL                 CCN000030000000030000FN00000000020221001000030000NNM   20220801151332    4P0P  00003000000000507000000801232CJ    QNYHVQN 006400630015
BI00B32CJ    JQN2101        202209097114-4729-02             TERMINAL                 CCN000030000000030000FN00000000020221001000030000NNM   20220801151332    4P0P  00003000000000516000000810232CJ    QNYHVQN 006400630015
BI00B32CJ    JQN2102        202209167114-4729-02             TERMINAL                 CCN000090000000090000FN00000000020221001000090000NNM   20220801151332    4P0P  00003000000000516000000810232CJ    QNYHVQN 006400630015
BI00B32CJ    JQN2103        202209237114-4729-02             TERMINAL                 CCN000060000000060000FN00000000020221001000060000NNM   20220801151332    4P0P  00003000000000516000000810232CJ    QNYHVQN 006400630015
BI00B32CJ    JQN2104        202209307114-4729-02             TERMINAL                 CCN000120000000120000FN00000000020221001000120000NNM   20220801151332    4P0P  00003000000000516000000810232CJ    QNYHVQN 006400630015
BI00B32CJ    JQN2105        202210077114-4729-02             TERMINAL                 CCN000090000000090000FN00000000020221001000090000NNM   20220801151332    4P0P  00003000000000516000000810232CJ    QNYHVQN 006400630015
BI00B32CJ    JQN2101        202209097114-5746-02             TERMINAL                 CCN000042000000042000FN00000000020221001000042000NNM   20220801151332    4P0P  00002100000000695100000988732CJ    QNYHVQN 006400630015
BI00B32CJ    JQN2102        202209167114-5746-02             TERMINAL                 CCN000084000000084000FN00000000020221001000084000NNM   20220801151332    4P0P  00002100000000695100000988732CJ    QNYHVQN 006400630015
BI00B32CJ    JQN2103        202209237114-5746-02             TERMINAL                 CCN000084000000084000FN00000000020221001000084000NNM   20220801151332    4P0P  00002100000000695100000988732CJ    QNYHVQN 006400630015
BI00B32CJ    JQN2104        202209307114-5746-02             TERMINAL                 CCN000084000000084000FN00000000020221001000084000NNM   20220801151332    4P0P  00002100000000695100000988732CJ    QNYHVQN 006400630015
BI00B32CJ    JQN2105        202210077114-5746-02             TERMINAL                 CCN000084000000084000FN00000000020221001000084000NNM   20220801151332    4P0P  00002100000000695100000988732CJ    QNYHVQN 006400630015
BI00B32CJ    JQN2101        202209097114-5747-02             TERMINAL                 CCN000018000000018000FN00000000020221001000018000NNM   20220801151332    4P0P  00001800000000626400000920032CJ    QNYHVQN 006400630015
BI00B32CJ    JQN2102        202209167114-5747-02             TERMINAL                 CCN000180000000180000FN00000000020221001000180000NNM   20220801151332    4P0P  00001800000000626400000920032CJ    QNYHVQN 006400630015
BI00B32CJ    JQN2103        202209237114-5747-02             TERMINAL                 CCN000180000000180000FN00000000020221001000180000NNM   20220801151332    4P0P  00001800000000626400000920032CJ    QNYHVQN 006400630015
BI00B32CJ    JQN2104        202209307114-5747-02             TERMINAL                 CCN000216000000216000FN00000000020221001000216000NNM   20220801151332    4P0P  00001800000000626400000920032CJ    QNYHVQN 006400630015
BI00B32CJ    JQN2105        202210077114-5747-02             TERMINAL                 CCN000180000000180000FN00000000020221001000180000NNM   20220801151332    4P0P  00001800000000626400000920032CJ    QNYHVQN 006400630015
BI00B32CJ    JQN2102        202209167114-5748-02             TERMINAL                 CCN000060000000060000FN00000000020221001000060000NNM   20220801151332    4P0P  00001200000000444000000737632CJ    QNYHVQN 006400630015
BI00B32CJ    JQN2103        202209237114-5748-02             TERMINAL                 CCN000060000000060000FN00000000020221001000060000NNM   20220801151332    4P0P  00001200000000444000000737632CJ    QNYHVQN 006400630015
BI00B32CJ    JQN2104        202209307114-5748-02             TERMINAL                 CCN000084000000084000FN00000000020221001000084000NNM   20220801151332    4P0P  00001200000000444000000737632CJ    QNYHVQN 006400630015
BI00B32CJ    JQN2105        202210077114-5748-02             TERMINAL                 CCN000072000000072000FN00000000020221001000072000NNM   20220801151332    4P0P  00001200000000444000000737632CJ    QNYHVQN 006400630015
BI00B32CJ    JQN2102        202209167114-5753-02             TERMINAL                 CCN000027000000027000FN00000000020221001000027000NNM   20220801151332    4P0P  00002700000000847800001141432CJ    QNYHVQN 006400630015
BI00B32CJ    JQN2103        202209237114-5753-02             TERMINAL                 CCN000081000000081000FN00000000020221001000081000NNM   20220801151332    4P0P  00002700000000847800001141432CJ    QNYHVQN 006400630015
BI00B32CJ    JQN2104        202209307114-5753-02             TERMINAL                 CCN000081000000081000FN00000000020221001000081000NNM   20220801151332    4P0P  00002700000000847800001141432CJ    QNYHVQN 006400630015
BI00B32CJ    JQN2105        202210077114-5753-02             TERMINAL                 CCN000054000000054000FN00000000020221001000054000NNM   20220801151332    4P0P  00002700000000847800001141432CJ    QNYHVQN 006400630015
BI00B32CJ    JQN2101        202209097114-6041                TERMINAL                 CCN000003600000003600FN00000000020221001000003600NNM   20220801151332    4P0P  00000360000000580700000824232CJ    QNYHVQN 006400630015
BI00B32CJ    JQN2101        202209097116-1180                TERMINAL                 CCN000019500000019500FN00000000020221001000019500NNM   20220801151332    1P0P  00001950000000618200000903432CJ    QNYHVQN 006400630015
BI00B32CJ    JQN2102        202209167116-1180                TERMINAL                 CCN000039000000039000FN00000000020221001000039000NNM   20220801151332    1P0P  00001950000000618200000903432CJ    QNYHVQN 006400630015
BI00B32CJ    JQN2103        202209237116-1180                TERMINAL                 CCN000019500000019500FN00000000020221001000019500NNM   20220801151332    1P0P  00001950000000618200000903432CJ    QNYHVQN 006400630015
BI00B32CJ    JQN2104        202209307116-1180                TERMINAL                 CCN000019500000019500FN00000000020221001000019500NNM   20220801151332    1P0P  00001950000000618200000903432CJ    QNYHVQN 006400630015
BI00B32CJ    JQN2105        202210077116-1180                TERMINAL                 CCN000039000000039000FN00000000020221001000039000NNM   20220801151332    1P0P  00001950000000618200000903432CJ    QNYHVQN 006400630015
BI00B32CJ    JQN2101        202209097116-1685-02             TERMINAL                 CCN000024000000024000FN00000000020221001000024000NNM   20220801151332    4P0P  00002400000000897600001065232CJ    QNYHVQN 005100280028
BI00B32CJ    JQN2102        202209167116-1685-02             TERMINAL                 CCN000024000000024000FN00000000020221001000024000NNM   20220801151332    4P0P  00002400000000897600001065232CJ    QNYHVQN 005100280028
BI00B32CJ    JQN2103        202209237116-1685-02             TERMINAL                 CCN000024000000024000FN00000000020221001000024000NNM   20220801151332    4P0P  00002400000000897600001065232CJ    QNYHVQN 005100280028
BI00B32CJ    JQN2104        202209307116-1685-02             TERMINAL                 CCN000024000000024000FN00000000020221001000024000NNM   20220801151332    4P0P  00002400000000897600001065232CJ    QNYHVQN 005100280028
BI00B32CJ    JQN2105        202210077116-1685-02             TERMINAL                 CCN000024000000024000FN00000000020221001000024000NNM   20220801151332    4P0P  00002400000000897600001065232CJ    QNYHVQN 005100280028
BI00B32CJ    JQN2102        202209167116-1686-02             TERMINAL                 CCN000021000000021000FN00000000020221001000021000NNM   20220801151332    4P0P  00002100000000869400001021632CJ    QNYHVQN 005100280028
BI00B32CJ    JQN2102        202209167116-3153-08             TERMINAL                 CCN000027000000027000FN00000000020221001000027000NNM   20220801151332    4P0P  00002700000000461700000746932CJ    QNYHVQN 006400630015
BI00B32CJ    JQN2103        202209237116-3153-08             TERMINAL                 CCN000027000000027000FN00000000020221001000027000NNM   20220801151332    4P0P  00002700000000461700000746932CJ    QNYHVQN 006400630015
BI00B32CJ    JQN2104        202209307116-3153-08             TERMINAL                 CCN000027000000027000FN00000000020221001000027000NNM   20220801151332    4P0P  00002700000000461700000746932CJ    QNYHVQN 006400630015
BI00B32CJ    JQN2101        202209097116-4031                TERMINAL                 CCN000007500000007500FN00000000020221001000007500NNM   20220801151332    4P0P  00000750000000619500000904732CJ    QNYHVQN 006400630015
BI00B32CJ    JQN2102        202209167116-4031                TERMINAL                 CCN000015000000015000FN00000000020221001000015000NNM   20220801151332    4P0P  00000750000000619500000904732CJ    QNYHVQN 006400630015
BI00B32CJ    JQN2103        202209237116-4031                TERMINAL                 CCN000015000000015000FN00000000020221001000015000NNM   20220801151332    4P0P  00000750000000619500000904732CJ    QNYHVQN 006400630015
BI00B32CJ    JQN2104        202209307116-4031                TERMINAL                 CCN000022500000022500FN00000000020221001000022500NNM   20220801151332    4P0P  00000750000000619500000904732CJ    QNYHVQN 006400630015
BI00B32CJ    JQN2105        202210077116-4031                TERMINAL                 CCN000022500000022500FN00000000020221001000022500NNM   20220801151332    4P0P  00000750000000619500000904732CJ    QNYHVQN 006400630015
BI00B32CJ    JQN2103        202209237116-4032                TERMINAL                 CCN000048000000048000FN00000000020221001000048000NNM   20220801151332    4P0P  00000600000000532800000818032CJ    QNYHVQN 006400630015
BI00B32CJ    JQN2104        202209307116-4032                TERMINAL                 CCN000054000000054000FN00000000020221001000054000NNM   20220801151332    4P0P  00000600000000532800000818032CJ    QNYHVQN 006400630015
BI00B32CJ    JQN2105        202210077116-4032                TERMINAL                 CCN000048000000048000FN00000000020221001000048000NNM   20220801151332    4P0P  00000600000000532800000818032CJ    QNYHVQN 006400630015
BI00B32CJ    JQN2101        202209097116-4037                TERMINAL                 CCN000012000000012000FN00000000020221001000012000NNM   20220801151332    4P0P  00000600000000600000000894232CJ    QNYHVQN 006400630015
BI00B32CJ    JQN2102        202209167116-4037                TERMINAL                 CCN000012000000012000FN00000000020221001000012000NNM   20220801151332    4P0P  00000600000000600000000894232CJ    QNYHVQN 006400630015
BI00B32CJ    JQN2103        202209237116-4037                TERMINAL                 CCN000006000000006000FN00000000020221001000006000NNM   20220801151332    4P0P  00000600000000600000000894232CJ    QNYHVQN 006400630015
BI00B32CJ    JQN2104        202209307116-4037                TERMINAL                 CCN000006000000006000FN00000000020221001000006000NNM   20220801151332    4P0P  00000600000000600000000894232CJ    QNYHVQN 006400630015
BI00B32CJ    JQN2105        202210077116-4037                TERMINAL                 CCN000006000000006000FN00000000020221001000006000NNM   20220801151332    4P0P  00000600000000600000000894232CJ    QNYHVQN 006400630015
BI00B32CJ    JQN2102        202209167116-4111-02             TERMINAL                 CCN000007500000007500FN00000000020221001000007500NNM   20220801151332    4P0P  00000750000000529500000817732CJ    QNYHVQN 006400630015
BI00B32CJ    JQN2103        202209237116-4111-02             TERMINAL                 CCN000007500000007500FN00000000020221001000007500NNM   20220801151332    4P0P  00000750000000529500000817732CJ    QNYHVQN 006400630015
BI00B32CJ    JQN2104        202209307116-4111-02             TERMINAL                 CCN000007500000007500FN00000000020221001000007500NNM   20220801151332    4P0P  00000750000000529500000817732CJ    QNYHVQN 006400630015
BI00B32CJ    JQN2105        202210077116-4111-02             TERMINAL                 CCN000007500000007500FN00000000020221001000007500NNM   20220801151332    4P0P  00000750000000529500000817732CJ    QNYHVQN 006400630015
BI00B32CJ    JQN2101        202209097116-4121-02             TERMINAL                 CCN000004500000004500FN00000000020221001000004500NNM   20220801151332    4P0P  00000450000000618800000912432CJ    QNYHVQN 006400630015
BI00B32CJ    JQN2102        202209167116-4121-02             TERMINAL                 CCN000004500000004500FN00000000020221001000004500NNM   20220801151332    4P0P  00000450000000618800000912432CJ    QNYHVQN 006400630015
BI00B32CJ    JQN2103        202209237116-4121-02             TERMINAL                 CCN000004500000004500FN00000000020221001000004500NNM   20220801151332    4P0P  00000450000000618800000912432CJ    QNYHVQN 006400630015
BI00B32CJ    JQN2101        202209097116-4231-02             TERMINAL                 CCN000052000000052000FN00000000020221001000052000NNM   20220801151332    4P0P  00002600000000683800001012532CJ    QNYHVQN 006400630017
BI00B32CJ    JQN2102        202209167116-4231-02             TERMINAL                 CCN000052000000052000FN00000000020221001000052000NNM   20220801151332    4P0P  00002600000000683800001012532CJ    QNYHVQN 006400630017
BI00B32CJ    JQN2103        202209237116-4231-02             TERMINAL                 CCN000052000000052000FN00000000020221001000052000NNM   20220801151332    4P0P  00002600000000683800001012532CJ    QNYHVQN 006400630017
BI00B32CJ    JQN2104        202209307116-4231-02             TERMINAL                 CCN000052000000052000FN00000000020221001000052000NNM   20220801151332    4P0P  00002600000000683800001012532CJ    QNYHVQN 006400630017
BI00B32CJ    JQN2105        202210077116-4231-02             TERMINAL                 CCN000052000000052000FN00000000020221001000052000NNM   20220801151332    4P0P  00002600000000683800001012532CJ    QNYHVQN 006400630017
BI00B32CJ    JQN2101        202209097116-4415-02             TERMINAL                 CCN000076000000076000FN00000000020221001000076000NNM   20220801151332    4P0P  00003800000000596600000925732CJ    QNYHVQN 006400630017
BI00B32CJ    JQN2102        202209167116-4415-02             TERMINAL                 CCN000076000000076000FN00000000020221001000076000NNM   20220801151332    4P0P  00003800000000596600000925732CJ    QNYHVQN 006400630017
BI00B32CJ    JQN2103        202209237116-4415-02             TERMINAL                 CCN000076000000076000FN00000000020221001000076000NNM   20220801151332    4P0P  00003800000000596600000925732CJ    QNYHVQN 006400630017
BI00B32CJ    JQN2104        202209307116-4415-02             TERMINAL                 CCN000076000000076000FN00000000020221001000076000NNM   20220801151332    4P0P  00003800000000596600000925732CJ    QNYHVQN 006400630017
BI00B32CJ    JQN2105        202210077116-4415-02             TERMINAL                 CCN000038000000038000FN00000000020221001000038000NNM   20220801151332    4P0P  00003800000000596600000925732CJ    QNYHVQN 006400630017
BI00B32CJ    JQN2101        202209097116-4416-02             TERMINAL                 CCN000064000000064000FN00000000020221001000064000NNM   20220801151332    4P0P  00003200000000518400000847132CJ    QNYHVQN 006400630017
BI00B32CJ    JQN2102        202209167116-4416-02             TERMINAL                 CCN000064000000064000FN00000000020221001000064000NNM   20220801151332    4P0P  00003200000000518400000847132CJ    QNYHVQN 006400630017
BI00B32CJ    JQN2103        202209237116-4416-02             TERMINAL                 CCN000064000000064000FN00000000020221001000064000NNM   20220801151332    4P0P  00003200000000518400000847132CJ    QNYHVQN 006400630017
BI00B32CJ    JQN2104        202209307116-4416-02             TERMINAL                 CCN000064000000064000FN00000000020221001000064000NNM   20220801151332    4P0P  00003200000000518400000847132CJ    QNYHVQN 006400630017
BI00B32CJ    JQN2105        202210077116-4416-02             TERMINAL                 CCN000032000000032000FN00000000020221001000032000NNM   20220801151332    4P0P  00003200000000518400000847132CJ    QNYHVQN 006400630017
BI00B32CJ    JQN2101        202209097116-4486-02             TERMINAL                 CCN000028000000028000FN00000000020221001000028000NNM   20220801151332    4P0P  00002800000000666400000995132CJ    QNYHVQN 006400630017
BI00B32CJ    JQN2102        202209167116-4486-02             TERMINAL                 CCN000112000000112000FN00000000020221001000112000NNM   20220801151332    4P0P  00002800000000666400000995132CJ    QNYHVQN 006400630017
BI00B32CJ    JQN2103        202209237116-4486-02             TERMINAL                 CCN000112000000112000FN00000000020221001000112000NNM   20220801151332    4P0P  00002800000000666400000995132CJ    QNYHVQN 006400630017
BI00B32CJ    JQN2104        202209307116-4486-02             TERMINAL                 CCN000196000000196000FN00000000020221001000196000NNM   20220801151332    4P0P  00002800000000666400000995132CJ    QNYHVQN 006400630017
BI00B32CJ    JQN2105        202210077116-4486-02             TERMINAL                 CCN000196000000196000FN00000000020221001000196000NNM   20220801151332    4P0P  00002800000000666400000995132CJ    QNYHVQN 006400630017
BI00B32CJ    JQN2102        202209167116-5035-02             TERMINAL                 CCN000075000000075000FN00000000020221001000075000NNM   20220801151332    4P0P  00001500000000543000000828232CJ    QNYHVQN 006400630015
BI00B32CJ    JQN2103        202209237116-5035-02             TERMINAL                 CCN000105000000105000FN00000000020221001000105000NNM   20220801151332    4P0P  00001500000000543000000828232CJ    QNYHVQN 006400630015
BI00B32CJ    JQN2104        202209307116-5035-02             TERMINAL                 CCN000120000000120000FN00000000020221001000120000NNM   20220801151332    4P0P  00001500000000543000000828232CJ    QNYHVQN 006400630015
BI00B32CJ    JQN2105        202210077116-5035-02             TERMINAL                 CCN000105000000105000FN00000000020221001000105000NNM   20220801151332    4P0P  00001500000000543000000828232CJ    QNYHVQN 006400630015
BI00B32CJ    JQN2101        202209097116-5042-02             TERMINAL                 CCN000013500000013500FN00000000020221001000013500NNM   20220801151332    4P0P  00001350000000560300000845532CJ    QNYHVQN 006400630015
BI00B32CJ    JQN2102        202209167116-5042-02             TERMINAL                 CCN000040500000040500FN00000000020221001000040500NNM   20220801151332    4P0P  00001350000000560300000845532CJ    QNYHVQN 006400630015
BI00B32CJ    JQN2103        202209237116-5042-02             TERMINAL                 CCN000040500000040500FN00000000020221001000040500NNM   20220801151332    4P0P  00001350000000560300000845532CJ    QNYHVQN 006400630015
BI00B32CJ    JQN2104        202209307116-5042-02             TERMINAL                 CCN000054000000054000FN00000000020221001000054000NNM   20220801151332    4P0P  00001350000000560300000845532CJ    QNYHVQN 006400630015
BI00B32CJ    JQN2105        202210077116-5042-02             TERMINAL                 CCN000054000000054000FN00000000020221001000054000NNM   20220801151332    4P0P  00001350000000560300000845532CJ    QNYHVQN 006400630015
BI00B32CJ    JQN2101        202209097116-5043-02             TERMINAL FEMALE          CCN000012000000012000FN00000000020221001000012000NNM   20220801151332    4P0P  00001200000000559200000844432CJ    QNYHVQN 006400630015
BI00B32CJ    JQN2102        202209167116-5043-02             TERMINAL FEMALE          CCN000036000000036000FN00000000020221001000036000NNM   20220801151332    4P0P  00001200000000559200000844432CJ    QNYHVQN 006400630015
BI00B32CJ    JQN2103        202209237116-5043-02             TERMINAL FEMALE          CCN000036000000036000FN00000000020221001000036000NNM   20220801151332    4P0P  00001200000000559200000844432CJ    QNYHVQN 006400630015
BI00B32CJ    JQN2104        202209307116-5043-02             TERMINAL FEMALE          CCN000060000000060000FN00000000020221001000060000NNM   20220801151332    4P0P  00001200000000559200000844432CJ    QNYHVQN 006400630015
BI00B32CJ    JQN2105        202210077116-5043-02             TERMINAL FEMALE          CCN000048000000048000FN00000000020221001000048000NNM   20220801151332    4P0P  00001200000000559200000844432CJ    QNYHVQN 006400630015
BI00B32CJ    JQN2101        202209097116-5044-02             TERMINAL                 CCN000016000000016000FN00000000020221001000016000NNM   20220801151332    4P0P  00001600000000641600000986332CJ    QNYHVQN 006400630017
BI00B32CJ    JQN2102        202209167116-5044-02             TERMINAL                 CCN000208000000208000FN00000000020221001000208000NNM   20220801151332    4P0P  00001600000000641600000986332CJ    QNYHVQN 006400630017
BI00B32CJ    JQN2103        202209237116-5044-02             TERMINAL                 CCN000176000000176000FN00000000020221001000176000NNM   20220801151332    4P0P  00001600000000641600000986332CJ    QNYHVQN 006400630017
BI00B32CJ    JQN2104        202209307116-5044-02             TERMINAL                 CCN000224000000224000FN00000000020221001000224000NNM   20220801151332    4P0P  00001600000000641600000986332CJ    QNYHVQN 006400630017
BI00B32CJ    JQN2105        202210077116-5044-02             TERMINAL                 CCN000192000000192000FN00000000020221001000192000NNM   20220801151332    4P0P  00001600000000641600000986332CJ    QNYHVQN 006400630017
BI00B32CJ    JQN2101        202209097116-5045-02             TERMINAL                 CCN000016000000016000FN00000000020221001000016000NNM   20220801151332    4P0P  00001600000000678400001007132CJ    QNYHVQN 006400630017
BI00B32CJ    JQN2102        202209167116-5045-02             TERMINAL                 CCN000032000000032000FN00000000020221001000032000NNM   20220801151332    4P0P  00001600000000678400001007132CJ    QNYHVQN 006400630017
BI00B32CJ    JQN2103        202209237116-5045-02             TERMINAL                 CCN000032000000032000FN00000000020221001000032000NNM   20220801151332    4P0P  00001600000000678400001007132CJ    QNYHVQN 006400630017
BI00B32CJ    JQN2104        202209307116-5045-02             TERMINAL                 CCN000032000000032000FN00000000020221001000032000NNM   20220801151332    4P0P  00001600000000678400001007132CJ    QNYHVQN 006400630017
BI00B32CJ    JQN2105        202210077116-5045-02             TERMINAL                 CCN000032000000032000FN00000000020221001000032000NNM   20220801151332    4P0P  00001600000000678400001007132CJ    QNYHVQN 006400630017
BI00B32CJ    JQN2102        202209167116-5046-02             TERMINAL                 CCN000012000000012000FN00000000020221001000012000NNM   20220801151332    4P0P  00001200000000544800000873532CJ    QNYHVQN 006400630017
BI00B32CJ    JQN2103        202209237116-5046-02             TERMINAL                 CCN000012000000012000FN00000000020221001000012000NNM   20220801151332    4P0P  00001200000000544800000873532CJ    QNYHVQN 006400630017
BI00B32CJ    JQN2104        202209307116-5046-02             TERMINAL                 CCN000024000000024000FN00000000020221001000024000NNM   20220801151332    4P0P  00001200000000544800000873532CJ    QNYHVQN 006400630017
BI00B32CJ    JQN2105        202210077116-5046-02             TERMINAL                 CCN000012000000012000FN00000000020221001000012000NNM   20220801151332    4P0P  00001200000000544800000873532CJ    QNYHVQN 006400630017
BI00B32CJ    JQN2102        202209167116-6041                TERMINAL                 CCN000004500000004500FN00000000020221001000004500NNM   20220801151332    4P0P  00000450000000716000001009632CJ    QNYHVQN 006400630015
BI00B32CJ    JQN2103        202209237116-6041                TERMINAL                 CCN000004500000004500FN00000000020221001000004500NNM   20220801151332    4P0P  00000450000000716000001009632CJ    QNYHVQN 006400630015
BI00B32CJ    JQN2104        202209307116-6041                TERMINAL                 CCN000004500000004500FN00000000020221001000004500NNM   20220801151332    4P0P  00000450000000716000001009632CJ    QNYHVQN 006400630015
BI00B32CJ    JQN2103        202209237116-6042                TERMINAL                 CCN000003000000003000FN00000000020221001000003000NNM   20220801151332    4P0P  00000300000000523800000856132CJ    QNYHVQN 006400630015
BI00B32CJ    JQN2104        202209307116-6042                TERMINAL                 CCN000003000000003000FN00000000020221001000003000NNM   20220801151332    4P0P  00000300000000523800000856132CJ    QNYHVQN 006400630015
BI00B32CJ    JQN2105        202210077116-6042                TERMINAL                 CCN000003000000003000FN00000000020221001000003000NNM   20220801151332    4P0P  00000300000000523800000856132CJ    QNYHVQN 006400630015
BI00B32CJ    JQN2101        202209097126-8853-02             TERMINAL                 CCN000015000000015000FN00000000020221001000015000NNM   20220801151332    4P0P  00000750000000562500000847732CJ    QNYHVQN 006400630015
BI00B32CJ    JQN2102        202209167126-8853-02             TERMINAL                 CCN000015000000015000FN00000000020221001000015000NNM   20220801151332    4P0P  00000750000000562500000847732CJ    QNYHVQN 006400630015
BI00B32CJ    JQN2103        202209237126-8853-02             TERMINAL                 CCN000022500000022500FN00000000020221001000022500NNM   20220801151332    4P0P  00000750000000562500000847732CJ    QNYHVQN 006400630015
BI00B32CJ    JQN2104        202209307126-8853-02             TERMINAL                 CCN000030000000030000FN00000000020221001000030000NNM   20220801151332    4P0P  00000750000000562500000847732CJ    QNYHVQN 006400630015
BI00B32CJ    JQN2105        202210077126-8853-02             TERMINAL                 CCN000022500000022500FN00000000020221001000022500NNM   20220801151332    4P0P  00000750000000562500000847732CJ    QNYHVQN 006400630015
BI00B32CJ    JQN2102        202209167158-3006-90             RUBBER STOPPER           CCN000020000000020000FN00000000020221001000020000NNM   20220801151332    1C0C  00002000000000330600000386032CJ    QNYHVQN 002700430014
BI00B32CJ    JQN2103        202209237158-3006-90             RUBBER STOPPER           CCN000020000000020000FN00000000020221001000020000NNM   20220801151332    1C0C  00002000000000330600000386032CJ    QNYHVQN 002700430014
BI00B32CJ    JQN2104        202209307158-3006-90             RUBBER STOPPER           CCN000020000000020000FN00000000020221001000020000NNM   20220801151332    1C0C  00002000000000330600000386032CJ    QNYHVQN 002700430014
BI00B32CJ    JQN2105        202210077158-3006-90             RUBBER STOPPER           CCN000020000000020000FN00000000020221001000020000NNM   20220801151332    1C0C  00002000000000330600000386032CJ    QNYHVQN 002700430014
BI00B32CJ    JQN2101        202209097158-3070-80             RUBBER STOPPER           CCN000040000000040000FN00000000020221001000040000NNM   20220801151332    1C0C  00004000000000276000000333332CJ    QNYHVQN 002700430014
BI00B32CJ    JQN2102        202209167158-3070-80             RUBBER STOPPER           CCN000080000000080000FN00000000020221001000080000NNM   20220801151332    1C0C  00004000000000276000000333332CJ    QNYHVQN 002700430014
BI00B32CJ    JQN2103        202209237158-3070-80             RUBBER STOPPER           CCN000040000000040000FN00000000020221001000040000NNM   20220801151332    1C0C  00004000000000276000000333332CJ    QNYHVQN 002700430014
BI00B32CJ    JQN2104        202209307158-3070-80             RUBBER STOPPER           CCN000080000000080000FN00000000020221001000080000NNM   20220801151332    1C0C  00004000000000276000000333332CJ    QNYHVQN 002700430014
BI00B32CJ    JQN2105        202210077158-3070-80             RUBBER STOPPER           CCN000040000000040000FN00000000020221001000040000NNM   20220801151332    1C0C  00004000000000276000000333332CJ    QNYHVQN 002700430014
BI00B32CJ    JQN2101        202209097158-3165-90             WIRE SEAL                CCN000200000000200000FN00000000020221001000200000NNM   20220801151332    1C0C  00004000000000124000000172432CJ    QNYHVQN 004300270014
BI00B32CJ    JQN2102        202209167158-3165-90             WIRE SEAL                CCN000200000000200000FN00000000020221001000200000NNM   20220801151332    1C0C  00004000000000124000000172432CJ    QNYHVQN 004300270014
BI00B32CJ    JQN2105        202210077172-5540-80             SEALED WIRE SEAL         CCN000020000000020000FN00000000020221001000020000NNM   20220801151332    1C0C  00002000000000186000000234432CJ    QNYHVQN 004300270014
BI00B32CJ    JQN2102        202209167195-1479-02             TERMINAL MALE            CCN000024000000024000FN00000000020221001000024000NNM   20220801151332    4P0P  00002400000000420000000714232CJ    QNYHVQN 006400630015
BI00B32CJ    JQN2103        202209237195-1479-02             TERMINAL MALE            CCN000048000000048000FN00000000020221001000048000NNM   20220801151332    4P0P  00002400000000420000000714232CJ    QNYHVQN 006400630015
BI00B32CJ    JQN2104        202209307195-1479-02             TERMINAL MALE            CCN000024000000024000FN00000000020221001000024000NNM   20220801151332    4P0P  00002400000000420000000714232CJ    QNYHVQN 006400630015
BI00B32CJ    JQN2105        202210077195-1479-02             TERMINAL MALE            CCN000048000000048000FN00000000020221001000048000NNM   20220801151332    4P0P  00002400000000420000000714232CJ    QNYHVQN 006400630015
BI00B32CJ    JQN2103        202209237196-0805-02             TERMINAL FEMALE          CCN000022500000022500FN00000000020221001000022500NNM   20220801151332    4P0P  00002250000000558000000843232CJ    QNYHVQN 006400630015
BI00B32CJ    JQN2104        202209307196-0805-02             TERMINAL FEMALE          CCN000022500000022500FN00000000020221001000022500NNM   20220801151332    4P0P  00002250000000558000000843232CJ    QNYHVQN 006400630015
BI00B32CJ    JQN2105        202210077196-0805-02             TERMINAL FEMALE          CCN000045000000045000FN00000000020221001000045000NNM   20220801151332    4P0P  00002250000000558000000843232CJ    QNYHVQN 006400630015
BI00B32CJ    JQN2102        202209167196-1102-02             TERMINAL                 CCN000022500000022500FN00000000020221001000022500NNM   20220801151332    4P0P  00002250000000405000000690232CJ    QNYHVQN 006400630015
BI00B32CJ    JQN2103        202209237196-1102-02             TERMINAL                 CCN000022500000022500FN00000000020221001000022500NNM   20220801151332    4P0P  00002250000000405000000690232CJ    QNYHVQN 006400630015
BI00B32CJ    JQN2104        202209307196-1102-02             TERMINAL                 CCN000045000000045000FN00000000020221001000045000NNM   20220801151332    4P0P  00002250000000405000000690232CJ    QNYHVQN 006400630015
BI00B32CJ    JQN2105        202210077196-1102-02             TERMINAL                 CCN000045000000045000FN00000000020221001000045000NNM   20220801151332    4P0P  00002250000000405000000690232CJ    QNYHVQN 006400630015
BI00B32CJ    JQN2103        202209237196-1103-02             TERMINAL                 CCN000090000000090000FN00000000020221001000090000NNM   20220801151332    4P0P  00002250000000429800000715032CJ    QNYHVQN 006400630015
BI00B32CJ    JQN2104        202209307196-1103-02             TERMINAL                 CCN000157500000157500FN00000000020221001000157500NNM   20220801151332    4P0P  00002250000000429800000715032CJ    QNYHVQN 006400630015
BI00B32CJ    JQN2105        202210077196-1103-02             TERMINAL                 CCN000180000000180000FN00000000020221001000180000NNM   20220801151332    4P0P  00002250000000429800000715032CJ    QNYHVQN 006400630015
BI00B32CJ    JQN2104        202209307196-1104-02             TERMINAL                 CCN000022500000022500FN00000000020221001000022500NNM   20220801151332    4P0P  00002250000000441000000726232CJ    QNYHVQN 006400630015
BI00B32CJ    JQN2105        202210077196-1104-02             TERMINAL                 CCN000022500000022500FN00000000020221001000022500NNM   20220801151332    4P0P  00002250000000441000000726232CJ    QNYHVQN 006400630015
BI00B32CJ    JQN2103        202209237196-1326-02             TERMINAL FEMALE          CCN000060000000060000FN00000000020221001000060000NNM   20220801151332    4P0P  00006000000000456000000784732CJ    QNYHVQN 006400630017
BI00B32CJ    JQN2104        202209307196-1326-02             TERMINAL FEMALE          CCN000120000000120000FN00000000020221001000120000NNM   20220801151332    4P0P  00006000000000456000000784732CJ    QNYHVQN 006400630017
BI00B32CJ    JQN2105        202210077196-1326-02             TERMINAL FEMALE          CCN000120000000120000FN00000000020221001000120000NNM   20220801151332    4P0P  00006000000000456000000784732CJ    QNYHVQN 006400630017
BI00B32CJ    JQN2102        202209167196-1481-02             TERMINAL FEMALE          CCN000024000000024000FN00000000020221001000024000NNM   20220801151332    4P0P  00002400000000422400000707632CJ    QNYHVQN 006400630015
BI00B32CJ    JQN2103        202209237196-1481-02             TERMINAL FEMALE          CCN000024000000024000FN00000000020221001000024000NNM   20220801151332    4P0P  00002400000000422400000707632CJ    QNYHVQN 006400630015
BI00B32CJ    JQN2104        202209307196-1481-02             TERMINAL FEMALE          CCN000048000000048000FN00000000020221001000048000NNM   20220801151332    4P0P  00002400000000422400000707632CJ    QNYHVQN 006400630015
BI00B32CJ    JQN2105        202210077196-1481-02             TERMINAL FEMALE          CCN000048000000048000FN00000000020221001000048000NNM   20220801151332    4P0P  00002400000000422400000707632CJ    QNYHVQN 006400630015
BI00B32CJ    JQN2105        202210077196-1482-02             TERMINAL FEMALE          CCN000024000000024000FN00000000020221001000024000NNM   20220801151332    4P0P  00002400000000424800000710032CJ    QNYHVQN 006400630015
BI00B32CJ    JQN2104        202209307282-4576                HOUSING MALE ASS'Y       CCN000002400000002400FN00000000020221001000002400NNM   20220801151332    4N0N  00000240000000808800001028832CJ    QNYHVQN 005500360039
BI00B32CJ    JQN2105        202210077282-4576                HOUSING MALE ASS'Y       CCN000007200000007200FN00000000020221001000007200NNM   20220801151332    4N0N  00000240000000808800001028832CJ    QNYHVQN 005500360039
BI00B32CJ    JQN2102        202209167282-4578                HOUSING MALE ASS'Y       CCN000013200000013200FN00000000020221001000013200NNM   20220801151332    4N0N  00000120000000782600000992632CJ    QNYHVQN 005500360039
BI00B32CJ    JQN2103        202209237282-4578                HOUSING MALE ASS'Y       CCN000013200000013200FN00000000020221001000013200NNM   20220801151332    4N0N  00000120000000782600000992632CJ    QNYHVQN 005500360039
BI00B32CJ    JQN2104        202209307282-4578                HOUSING MALE ASS'Y       CCN000015600000015600FN00000000020221001000015600NNM   20220801151332    4N0N  00000120000000782600000992632CJ    QNYHVQN 005500360039
BI00B32CJ    JQN2105        202210077282-4578                HOUSING MALE ASS'Y       CCN000009600000009600FN00000000020221001000009600NNM   20220801151332    4N0N  00000120000000782600000992632CJ    QNYHVQN 005500360039
BI00B32CJ    JQN2102        202209167283-1156                CONNECTOR                CCN000004800000004800FN00000000020221001000004800NNM   20220801151332    4N0N  00000080000000877600001078032CJ    QNYHVQN 005600390040
BI00B32CJ    JQN2103        202209237283-1156                CONNECTOR                CCN000009600000009600FN00000000020221001000009600NNM   20220801151332    4N0N  00000080000000877600001078032CJ    QNYHVQN 005600390040
BI00B32CJ    JQN2104        202209307283-1156                CONNECTOR                CCN000012800000012800FN00000000020221001000012800NNM   20220801151332    4N0N  00000080000000877600001078032CJ    QNYHVQN 005600390040
BI00B32CJ    JQN2105        202210077283-1156                CONNECTOR                CCN000010400000010400FN00000000020221001000010400NNM   20220801151332    4N0N  00000080000000877600001078032CJ    QNYHVQN 005600390040
BI00B32CJ    JQN2102        202209167283-4576                HOUSING FEMALE ASS'Y     CCN000033600000033600FN00000000020221001000033600NNM   20220801151332    4N0N  00000480000000651300000871332CJ    QNYHVQN 005500360039
BI00B32CJ    JQN2103        202209237283-4576                HOUSING FEMALE ASS'Y     CCN000038400000038400FN00000000020221001000038400NNM   20220801151332    4N0N  00000480000000651300000871332CJ    QNYHVQN 005500360039
BI00B32CJ    JQN2104        202209307283-4576                HOUSING FEMALE ASS'Y     CCN000048000000048000FN00000000020221001000048000NNM   20220801151332    4N0N  00000480000000651300000871332CJ    QNYHVQN 005500360039
BI00B32CJ    JQN2105        202210077283-4576                HOUSING FEMALE ASS'Y     CCN000043200000043200FN00000000020221001000043200NNM   20220801151332    4N0N  00000480000000651300000871332CJ    QNYHVQN 005500360039
BI00B32CJ    JQN2103        202209237283-4576-30             HOUSING FEMALE ASS'Y     CCN000009600000009600FN00000000020221001000009600NNM   20220801151332    4N0N  00000480000000651300000871332CJ    QNYHVQN 005500360039
BI00B32CJ    JQN2104        202209307283-4576-30             HOUSING FEMALE ASS'Y     CCN000004800000004800FN00000000020221001000004800NNM   20220801151332    4N0N  00000480000000651300000871332CJ    QNYHVQN 005500360039
BI00B32CJ    JQN2105        202210077283-4576-30             HOUSING FEMALE ASS'Y     CCN000004800000004800FN00000000020221001000004800NNM   20220801151332    4N0N  00000480000000651300000871332CJ    QNYHVQN 005500360039
BI00B32CJ    JQN2104        202209307283-4577                CONNECTOR HOUSING        CCN000004800000004800FN00000000020221001000004800NNM   20220801151332    4N0N  00000480000000916800001136832CJ    QNYHVQN 005500360039
BI00B32CJ    JQN2105        202210077283-4577                CONNECTOR HOUSING        CCN000004800000004800FN00000000020221001000004800NNM   20220801151332    4N0N  00000480000000916800001136832CJ    QNYHVQN 005500360039
BI00B32CJ    JQN2102        202209167283-4854-40             CONNECTOR HOUSING        CCN000002400000002400FN00000000020221001000002400NNM   20220801151332    4N0N  00000240000000694100000914132CJ    QNYHVQN 005500360039
BI00B32CJ    JQN2103        202209237283-4854-40             CONNECTOR HOUSING        CCN000002400000002400FN00000000020221001000002400NNM   20220801151332    4N0N  00000240000000694100000914132CJ    QNYHVQN 005500360039
BI00B32CJ    JQN2104        202209307283-4854-40             CONNECTOR HOUSING        CCN000004800000004800FN00000000020221001000004800NNM   20220801151332    4N0N  00000240000000694100000914132CJ    QNYHVQN 005500360039
BI00B32CJ    JQN2105        202210077283-4854-40             CONNECTOR HOUSING        CCN000004800000004800FN00000000020221001000004800NNM   20220801151332    4N0N  00000240000000694100000914132CJ    QNYHVQN 005500360039
BI00B32CJ    JQN2101        202209097283-5845                CONNECTOR HOUSING        CCN000006000000006000FN00000000020221001000006000NNM   20220801151332    1N0N  00000600000000444000000606332CJ    QNYHVQN 005400370024
BI00B32CJ    JQN2102        202209167283-5845                CONNECTOR HOUSING        CCN000006000000006000FN00000000020221001000006000NNM   20220801151332    1N0N  00000600000000444000000606332CJ    QNYHVQN 005400370024
BI00B32CJ    JQN2103        202209237283-5845                CONNECTOR HOUSING        CCN000012000000012000FN00000000020221001000012000NNM   20220801151332    1N0N  00000600000000444000000606332CJ    QNYHVQN 005400370024
BI00B32CJ    JQN2104        202209307283-5845                CONNECTOR HOUSING        CCN000012000000012000FN00000000020221001000012000NNM   20220801151332    1N0N  00000600000000444000000606332CJ    QNYHVQN 005400370024
BI00B32CJ    JQN2105        202210077283-5845                CONNECTOR HOUSING        CCN000012000000012000FN00000000020221001000012000NNM   20220801151332    1N0N  00000600000000444000000606332CJ    QNYHVQN 005400370024
BI00B32CJ    JQN2101        202209097286-1899                HOUSING SUB ASSEMBLY     CCN000001680000001680FN00000000020221001000001680NNM   20220801151332    4N0N  00000033600000814800001010832CJ    QNYHVQN 005400370024
BI00B32CJ    JQN2102        202209167286-1899                HOUSING SUB ASSEMBLY     CCN000001008000001008FN00000000020221001000001008NNM   20220801151332    4N0N  00000033600000814800001010832CJ    QNYHVQN 005400370024
BI00B32CJ    JQN2103        202209237286-1899                HOUSING SUB ASSEMBLY     CCN000001008000001008FN00000000020221001000001008NNM   20220801151332    4N0N  00000033600000814800001010832CJ    QNYHVQN 005400370024
BI00B32CJ    JQN2104        202209307286-1899                HOUSING SUB ASSEMBLY     CCN000003360000003360FN00000000020221001000003360NNM   20220801151332    4N0N  00000033600000814800001010832CJ    QNYHVQN 005400370024
BI00B32CJ    JQN2105        202210077286-1899                HOUSING SUB ASSEMBLY     CCN000003360000003360FN00000000020221001000003360NNM   20220801151332    4N0N  00000033600000814800001010832CJ    QNYHVQN 005400370024
BI00B32CJ    JQN2103        202209237286-1900                CONNECTOR HOUSING        CCN000004800000004800FN00000000020221001000004800NNM   20220801151332    4N0N  00000480000001161600001376632CJ    QNYHVQN 005500360039
BI00B32CJ    JQN2104        202209307286-1900                CONNECTOR HOUSING        CCN000004800000004800FN00000000020221001000004800NNM   20220801151332    4N0N  00000480000001161600001376632CJ    QNYHVQN 005500360039
BI00B32CJ    JQN2101        202209097286-4097                CONNECTOR MALE ASS'Y     CCN000001600000001600FN00000000020221001000001600NNM   20220801151332    1N0N  00000160000000768000000978032CJ    QNYHVQN 005500360039
BI00B32CJ    JQN2102        202209167286-4097                CONNECTOR MALE ASS'Y     CCN000003200000003200FN00000000020221001000003200NNM   20220801151332    1N0N  00000160000000768000000978032CJ    QNYHVQN 005500360039
BI00B32CJ    JQN2103        202209237286-4097                CONNECTOR MALE ASS'Y     CCN000003200000003200FN00000000020221001000003200NNM   20220801151332    1N0N  00000160000000768000000978032CJ    QNYHVQN 005500360039
BI00B32CJ    JQN2104        202209307286-4097                CONNECTOR MALE ASS'Y     CCN000004800000004800FN00000000020221001000004800NNM   20220801151332    1N0N  00000160000000768000000978032CJ    QNYHVQN 005500360039
BI00B32CJ    JQN2105        202210077286-4097                CONNECTOR MALE ASS'Y     CCN000003200000003200FN00000000020221001000003200NNM   20220801151332    1N0N  00000160000000768000000978032CJ    QNYHVQN 005500360039
BI00B32CJ    JQN2104        202209307287-3885                HYBRID FEMALE ASS'Y      CCN000004800000004800FN00000000020221001000004800NNM   20220801151332    1N0N  00000240000001029600001249632CJ    QNYHVQN 005500360039
BI00B32CJ    JQN2105        202210077287-3885                HYBRID FEMALE ASS'Y      CCN000007200000007200FN00000000020221001000007200NNM   20220801151332    1N0N  00000240000001029600001249632CJ    QNYHVQN 005500360039
BI00B32CJ    JQN2103        202209237287-8642-40             HOUSING FEMALE ASS'Y     CCN000002800000002800FN00000000020221001000002800NNM   20220801151332    4N0N  00000280000000915600001107632CJ    QNYHVQN 005400370024
BI00B32CJ    JQN2102        202209167288-6547                CONNECTOR MALE ASS'Y     CCN000001500000001500FN00000000020221001000001500NNM   20220801151332    4N0N  00000075000001205300001340332CJ    QNYHVQN 005400370024
BI00B32CJ    JQN2103        202209237288-6547                CONNECTOR MALE ASS'Y     CCN000001500000001500FN00000000020221001000001500NNM   20220801151332    4N0N  00000075000001205300001340332CJ    QNYHVQN 005400370024
BI00B32CJ    JQN2104        202209307289-3342                HOUSING FEMALE ASS'Y     CCN000009600000009600FN00000000020221001000009600NNM   20220801151332    1N0N  00000240000000686400000901432CJ    QNYHVQN 005500360039
BI00B32CJ    JQN2105        202210077289-3342                HOUSING FEMALE ASS'Y     CCN000019200000019200FN00000000020221001000019200NNM   20220801151332    1N0N  00000240000000686400000901432CJ    QNYHVQN 005500360039
BI00B32CJ    JQN2102        202209167289-3342-30             HOUSING FEMALE ASS'Y     CCN000033600000033600FN00000000020221001000033600NNM   20220801151332    1N0N  00000240000000686400000901432CJ    QNYHVQN 005500360039
BI00B32CJ    JQN2103        202209237289-3342-30             HOUSING FEMALE ASS'Y     CCN000033600000033600FN00000000020221001000033600NNM   20220801151332    1N0N  00000240000000686400000901432CJ    QNYHVQN 005500360039
BI00B32CJ    JQN2104        202209307289-3342-30             HOUSING FEMALE ASS'Y     CCN000043200000043200FN00000000020221001000043200NNM   20220801151332    1N0N  00000240000000686400000901432CJ    QNYHVQN 005500360039
BI00B32CJ    JQN2105        202210077289-3342-30             HOUSING FEMALE ASS'Y     CCN000028800000028800FN00000000020221001000028800NNM   20220801151332    1N0N  00000240000000686400000901432CJ    QNYHVQN 005500360039
BI00B32CJ    JQN2104        202209307289-3342-40             HOUSING FEMALE ASS'Y     CCN000004800000004800FN00000000020221001000004800NNM   20220801151332    1N0N  00000240000000686400000901432CJ    QNYHVQN 005500360039
BI00B32CJ    JQN2105        202210077289-3342-40             HOUSING FEMALE ASS'Y     CCN000004800000004800FN00000000020221001000004800NNM   20220801151332    1N0N  00000240000000686400000901432CJ    QNYHVQN 005500360039
BI00B32CJ    JQN2101        202209097289-3342-90             HOUSING FEMALE ASS'Y     CCN000007200000007200FN00000000020221001000007200NNM   20220801151332    1N0N  00000240000000686400000901432CJ    QNYHVQN 005500360039
BI00B32CJ    JQN2102        202209167289-3342-90             HOUSING FEMALE ASS'Y     CCN000009600000009600FN00000000020221001000009600NNM   20220801151332    1N0N  00000240000000686400000901432CJ    QNYHVQN 005500360039
BI00B32CJ    JQN2103        202209237289-3342-90             HOUSING FEMALE ASS'Y     CCN000007200000007200FN00000000020221001000007200NNM   20220801151332    1N0N  00000240000000686400000901432CJ    QNYHVQN 005500360039
BI00B32CJ    JQN2104        202209307289-3342-90             HOUSING FEMALE ASS'Y     CCN000009600000009600FN00000000020221001000009600NNM   20220801151332    1N0N  00000240000000686400000901432CJ    QNYHVQN 005500360039
BI00B32CJ    JQN2105        202210077289-3342-90             HOUSING FEMALE ASS'Y     CCN000009600000009600FN00000000020221001000009600NNM   20220801151332    1N0N  00000240000000686400000901432CJ    QNYHVQN 005500360039
BI00B32CJ    JQN2102        202209167289-6547                HOUSING FEMALE ASS'Y     CCN000002400000002400FN00000000020221001000002400NNM   20220801151332    1N0N  00000240000001152000001362032CJ    QNYHVQN 005500360039
BI00B32CJ    JQN2103        202209237289-6547                HOUSING FEMALE ASS'Y     CCN000002400000002400FN00000000020221001000002400NNM   20220801151332    1N0N  00000240000001152000001362032CJ    QNYHVQN 005500360039
BI00B32CJ    JQN2103        202209237289-6868-30             SEALED ASSY FEMALE       CCN000002520000002520FN00000000020221001000002520NNM   20220801151332    4N0N  00000252000000839200001119232CJ    QNYHVQN 005500360039
BI00B32CJ    JQN2104        202209307289-6868-30             SEALED ASSY FEMALE       CCN000002520000002520FN00000000020221001000002520NNM   20220801151332    4N0N  00000252000000839200001119232CJ    QNYHVQN 005500360039
BI00B32CJ    JQN2105        202210077289-6868-30             SEALED ASSY FEMALE       CCN000005040000005040FN00000000020221001000005040NNM   20220801151332    4N0N  00000252000000839200001119232CJ    QNYHVQN 005500360039
BI00B32CJ    JQN2101        202209097298-4094-10             HOUSING FEMALE ASS'Y     CCN000003380000003380FN00000000020221001000003380NNM   20220801151332    4N0N  00000338000001097400001358732CJ    QNYHVQN 005400370024
BI00B32CJ    JQN2104        202209307327-6987-3W             BATTERY FUSE             CCN000001008000001008FN00000000020221001000001008NNM   20220801151332    4N0N  00000007200000511300000711532CJ    QNYHVQN 005500360039
BI00B32CJ    JQN2105        202210077327-6987-3W             BATTERY FUSE             CCN000001944000001944FN00000000020221001000001944NNM   20220801151332    4N0N  00000007200000511300000711532CJ    QNYHVQN 005500360039
BI00B32CJ    JQN2104        202209307388-0317-60             CONNECTOR ASS'Y          CCN000003750000004800FN00000000020221001000004800NNM   20220801151332    4N0N  00000120000001034400001129332CJ    QNYHVQN 005400370024
BI00B32CJ    JQN2105        202210077388-0317-60             CONNECTOR ASS'Y          CCN000003750000004800FN00000000020221001000004800NNM   20220801151332    4N0N  00000120000001034400001129332CJ    QNYHVQN 005400370024
BI00B32CJ    JQN2101        202209097116-5750-02             TERMINAL                 CCN000120000000120000FN00000000020221001000120000NNM   20220801151332    4P0P  00001500000000457500000742732CJ    QNYHVQN 006400630015
BI00B32CJ    JQN2102        202209167116-5750-02             TERMINAL                 CCN000105000000105000FN00000000020221001000105000NNM   20220801151332    4P0P  00001500000000457500000742732CJ    QNYHVQN 006400630015
BI00B32CJ    JQN2103        202209237116-5750-02             TERMINAL                 CCN000090000000090000FN00000000020221001000090000NNM   20220801151332    4P0P  00001500000000457500000742732CJ    QNYHVQN 006400630015
BI00B32CJ    JQN2104        202209307116-5750-02             TERMINAL                 CCN000075000000075000FN00000000020221001000075000NNM   20220801151332    4P0P  00001500000000457500000742732CJ    QNYHVQN 006400630015
BI00B32CJ    JQN2105        202210077116-5750-02             TERMINAL                 CCN000075000000075000FN00000000020221001000075000NNM   20220801151332    4P0P  00001500000000457500000742732CJ    QNYHVQN 006400630015
BI00B32CJ    JQN2101        202209097116-5752-02             TERMINAL                 CCN000084000000084000FN00000000020221001000084000NNM   20220801151332    4P0P  00002100000000571200000856432CJ    QNYHVQN 006400630015
BI00B32CJ    JQN2102        202209167116-5752-02             TERMINAL                 CCN000105000000105000FN00000000020221001000105000NNM   20220801151332    4P0P  00002100000000571200000856432CJ    QNYHVQN 006400630015
BI00B32CJ    JQN2103        202209237116-5752-02             TERMINAL                 CCN000095000000105000FN00000000020221001000105000NNM   20220801151332    4P0P  00002100000000571200000856432CJ    QNYHVQN 006400630015
BI00B32CJ    JQN2104        202209307116-5752-02             TERMINAL                 CCN000063000000063000FN00000000020221001000063000NNM   20220801151332    4P0P  00002100000000571200000856432CJ    QNYHVQN 006400630015
BI00B32CJ    JQN2105        202210077116-5752-02             TERMINAL                 CCN000084000000084000FN00000000020221001000084000NNM   20220801151332    4P0P  00002100000000571200000856432CJ    QNYHVQN 006400630015
BI00B32CJ    JQN2102        202209167158-3009-60             RUBBER STOPPER           CCN000120000000120000FN00000000020221001000120000NNM   20220801151332    1C0C  00002000000000338000000386232CJ    QNYHVQN 002700430014
BI00B32CJ    JQN2103        202209237158-3009-60             RUBBER STOPPER           CCN000180000000180000FN00000000020221001000180000NNM   20220801151332    1C0C  00002000000000338000000386232CJ    QNYHVQN 002700430014
BI00B32CJ    JQN2104        202209307158-3009-60             RUBBER STOPPER           CCN000200000000200000FN00000000020221001000200000NNM   20220801151332    1C0C  00002000000000338000000386232CJ    QNYHVQN 002700430014
BI00B32CJ    JQN2105        202210077158-3009-60             RUBBER STOPPER           CCN000160000000160000FN00000000020221001000160000NNM   20220801151332    1C0C  00002000000000338000000386232CJ    QNYHVQN 002700430014
BI00B32CJ    #JQN2101       202209097047-5654-30             CLIP                     CCN000005000000005000FN00000000020221001000005000NNM   20220801151323    2F0F  00000500000000657000000825332CJ    QNYHVQN 005500360039
BI00B32CJ    #JQN2102       202209167047-5654-30             CLIP                     CCN000005000000005000FN00000000020221001000005000NNM   20220801151323    2F0F  00000500000000657000000825332CJ    QNYHVQN 005500360039
BI00B32CJ    #JQN2103       202209237047-5654-30             CLIP                     CCN000005000000005000FN00000000020221001000005000NNM   20220801151323    2F0F  00000500000000657000000825332CJ    QNYHVQN 005500360039
BI00B32CJ    #JQN2104       202209307047-5654-30             CLIP                     CCN000005000000005000FN00000000020221001000005000NNM   20220801151323    2F0F  00000500000000657000000825332CJ    QNYHVQN 005500360039
BI00B32CJ    #JQN2105       202210077047-5654-30             CLIP                     CCN000005000000005000FN00000000020221001000005000NNM   20220801151323    2F0F  00000500000000657000000825332CJ    QNYHVQN 005500360039
BI00B32CJ    #JQN2103       202209237114-4022                TERMINAL                 CCN000015000000015000FN00000000020221001000015000NNM   20220801151323    2F0P  00001500000000708000001120632CJ    QNYHVQN 006400630015
BI00B32CJ    #JQN2103       202209237123-6347                CONNECTOR HOUSING        CCN000001600000001600FN00000000020221001000001600NNM   20220801151323    2F0F  00000160000000647000000904832CJ    QNYHVQN 005500360039
BI00B32CJ    #JQN2104       202209307123-6347                CONNECTOR HOUSING        CCN000001600000001600FN00000000020221001000001600NNM   20220801151323    2F0F  00000160000000647000000904832CJ    QNYHVQN 005500360039
BI00B32CJ    #JQN2105       202210077123-6347                CONNECTOR HOUSING        CCN000004800000004800FN00000000020221001000004800NNM   20220801151323    2F0F  00000160000000647000000904832CJ    QNYHVQN 005500360039
BI00B32CJ    #JQN2105       202210077157-3992-90             CONNECTOR SEALED         CCN000040000000040000FN00000000020221001000040000NNM   20220801151323    2C0C  00004000000000300000000363332CJ    QNYHVQN 002700430014
BI00B32CJ    #JQN2103       202209237158-3003-90             RUBBER STOPPER           CCN000020000000020000FN00000000020221001000020000NNM   20220801151323    2C0C  00002000000000250000000306032CJ    QNYHVQN 002700430014
BI00B32CJ    #JQN2105       202210077158-3003-90             RUBBER STOPPER           CCN000020000000020000FN00000000020221001000020000NNM   20220801151323    2C0C  00002000000000250000000306032CJ    QNYHVQN 002700430014
BI00B32CJ    #JQN2104       202209307158-3005-80             RUBBER STOPPER           CCN000020000000020000FN00000000020221001000020000NNM   20220801151323    2H0H  00002000000000210000000268732CJ    QNYHVQN 002700430014
BI00B32CJ    #JQN2103       202209237158-3008-80             RUBBER STOPPER           CCN000020000000020000FN00000000020221001000020000NNM   20220801151323    2C0C  00002000000000288000000343032CJ    QNYHVQN 004300270014
BI00B32CJ    #JQN2104       202209307158-3008-80             RUBBER STOPPER           CCN000040000000040000FN00000000020221001000040000NNM   20220801151323    2C0C  00002000000000288000000343032CJ    QNYHVQN 004300270014
BI00B32CJ    #JQN2105       202210077158-3008-80             RUBBER STOPPER           CCN000040000000040000FN00000000020221001000040000NNM   20220801151323    2C0C  00002000000000288000000343032CJ    QNYHVQN 004300270014
BI00B32CJ    #JQN2102       202209167158-3015-10             RUBBER STOPPER           CCN000010000000010000FN00000000020221001000010000NNM   20220801151323    2C0C  00001000000000419500000474032CJ    QNYHVQN 002700430014
BI00B32CJ    #JQN2103       202209237158-3015-10             RUBBER STOPPER           CCN000010000000010000FN00000000020221001000010000NNM   20220801151323    2C0C  00001000000000419500000474032CJ    QNYHVQN 002700430014
BI00B32CJ    #JQN2103       202209237158-3017                RUBBER STOPPER           CCN000010000000010000FN00000000020221001000010000NNM   20220801151323    2C0C  00001000000000375500000435032CJ    QNYHVQN 002700430014
BI00B32CJ    #JQN2101       202209097158-3120-90             CONNECTOR WIRE SEAL      CCN000040000000040000FN00000000020221001000040000NNM   20220801151323    2C0C  00002000000000136000000194032CJ    QNYHVQN 002700430014
BI00B32CJ    #JQN2102       202209167158-3120-90             CONNECTOR WIRE SEAL      CCN000080000000080000FN00000000020221001000080000NNM   20220801151323    2C0C  00002000000000136000000194032CJ    QNYHVQN 002700430014
BI00B32CJ    #JQN2103       202209237158-3120-90             CONNECTOR WIRE SEAL      CCN000080000000080000FN00000000020221001000080000NNM   20220801151323    2C0C  00002000000000136000000194032CJ    QNYHVQN 002700430014
BI00B32CJ    #JQN2104       202209307158-3120-90             CONNECTOR WIRE SEAL      CCN000080000000080000FN00000000020221001000080000NNM   20220801151323    2C0C  00002000000000136000000194032CJ    QNYHVQN 002700430014
BI00B32CJ    #JQN2105       202210077158-3120-90             CONNECTOR WIRE SEAL      CCN000080000000080000FN00000000020221001000080000NNM   20220801151323    2C0C  00002000000000136000000194032CJ    QNYHVQN 002700430014
BI00B32CJ    #JQN2101       202209097158-3121-80             WIRE SEAL                CCN000040000000040000FN00000000020221001000040000NNM   20220801151323    2C0C  00002000000000118000000187332CJ    QNYHVQN 002700430014
BI00B32CJ    #JQN2102       202209167158-3121-80             WIRE SEAL                CCN000040000000040000FN00000000020221001000040000NNM   20220801151323    2C0C  00002000000000118000000187332CJ    QNYHVQN 002700430014
BI00B32CJ    #JQN2103       202209237158-3121-80             WIRE SEAL                CCN000040000000040000FN00000000020221001000040000NNM   20220801151323    2C0C  00002000000000118000000187332CJ    QNYHVQN 002700430014
BI00B32CJ    #JQN2104       202209307158-3121-80             WIRE SEAL                CCN000060000000060000FN00000000020221001000060000NNM   20220801151323    2C0C  00002000000000118000000187332CJ    QNYHVQN 002700430014
BI00B32CJ    #JQN2105       202210077158-3121-80             WIRE SEAL                CCN000060000000060000FN00000000020221001000060000NNM   20220801151323    2C0C  00002000000000118000000187332CJ    QNYHVQN 002700430014
BI00B32CJ    #JQN2103       202209237172-5629-80             RUBBER STOPPER           CCN000040000000040000FN00000000020221001000040000NNM   20220801151323    2H0H  00002000000000060000000111132CJ    QNYHVQN 004300270014
BI00B32CJ    #JQN2104       202209307172-5629-80             RUBBER STOPPER           CCN000260000000260000FN00000000020221001000260000NNM   20220801151323    2H0H  00002000000000060000000111132CJ    QNYHVQN 004300270014
BI00B32CJ    #JQN2105       202210077172-5629-80             RUBBER STOPPER           CCN000240000000240000FN00000000020221001000240000NNM   20220801151323    2H0H  00002000000000060000000111132CJ    QNYHVQN 004300270014
BI00B32CJ    #JQN2104       202209307172-5630-40             RUBBER STOPPER           CCN000040000000040000FN00000000020221001000040000NNM   20220801151323    2H0H  00002000000000044000000095132CJ    QNYHVQN 004300270014
BI00B32CJ    #JQN2105       202210077172-5630-40             RUBBER STOPPER           CCN000020000000020000FN00000000020221001000020000NNM   20220801151323    2H0H  00002000000000044000000095132CJ    QNYHVQN 004300270014
BI00B32CJ    #JQN2105       202210077172-5631-60             RUBBER STOPPER           CCN000020000000020000FN00000000020221001000020000NNM   20220801151323    2H0H  00002000000000042000000093132CJ    QNYHVQN 004300270014
BI00B32CJ    #JQN2103       202209237172-5632-10             DUMMY PLUG               CCN000020000000020000FN00000000020221001000020000NNM   20220801151323    2H0H  00002000000000080400000131832CJ    QNYHVQN 004300270014
BI00B32CJ    #JQN2104       202209307172-5632-10             DUMMY PLUG               CCN000120000000120000FN00000000020221001000120000NNM   20220801151323    2H0H  00002000000000080400000131832CJ    QNYHVQN 004300270014
BI00B32CJ    #JQN2105       202210077172-5632-10             DUMMY PLUG               CCN000140000000140000FN00000000020221001000140000NNM   20220801151323    2H0H  00002000000000080400000131832CJ    QNYHVQN 004300270014
BI00B32CJ    #JQN2103       202209237183-1616                CONNECTOR HOUSING        CCN000004800000004800FN00000000020221001000004800NNM   20220801151323    2F0F  00000240000000557500000823332CJ    QNYHVQN 005500360039
BI00B32CJ    #JQN2105       202210077183-1616                CONNECTOR HOUSING        CCN000004800000004800FN00000000020221001000004800NNM   20220801151323    2F0F  00000240000000557500000823332CJ    QNYHVQN 005500360039
BI00B32CJ    #JQN2101       202209097183-1616-90             CONNECTOR HOUSING        CCN000002400000002400FN00000000020221001000002400NNM   20220801151323    2F0F  00000240000000554300000760532CJ    QNYHVQN 005500360039
BI00B32CJ    #JQN2102       202209167183-2413                CONNECTOR HOUSING        CCN000014400000014400FN00000000020221001000014400NNM   20220801151323    2F0F  00000480000000478100000760032CJ    QNYHVQN 005500360039
BI00B32CJ    #JQN2103       202209237183-2413                CONNECTOR HOUSING        CCN000014400000014400FN00000000020221001000014400NNM   20220801151323    2F0F  00000480000000478100000760032CJ    QNYHVQN 005500360039
BI00B32CJ    #JQN2104       202209307183-2413                CONNECTOR HOUSING        CCN000024000000024000FN00000000020221001000024000NNM   20220801151323    2F0F  00000480000000478100000760032CJ    QNYHVQN 005500360039
BI00B32CJ    #JQN2105       202210077183-2413                CONNECTOR HOUSING        CCN000019200000019200FN00000000020221001000019200NNM   20220801151323    2F0F  00000480000000478100000760032CJ    QNYHVQN 005500360039
BI00B32CJ    #JQN2102       202209167183-2413-30             CONNECTOR HOUSING        CCN000004800000004800FN00000000020221001000004800NNM   20220801151323    2F0F  00000480000000477600000759532CJ    QNYHVQN 005500360039
BI00B32CJ    #JQN2103       202209237183-2415                CONNECTOR HOUSING        CCN000004800000004800FN00000000020221001000004800NNM   20220801151323    2F0F  00000480000000798200001091432CJ    QNYHVQN 005500360039
BI00B32CJ    #JQN2104       202209307183-2415                CONNECTOR HOUSING        CCN000014400000014400FN00000000020221001000014400NNM   20220801151323    2F0F  00000480000000798200001091432CJ    QNYHVQN 005500360039
BI00B32CJ    #JQN2105       202210077183-2415                CONNECTOR HOUSING        CCN000009600000009600FN00000000020221001000009600NNM   20220801151323    2F0F  00000480000000798200001091432CJ    QNYHVQN 005500360039
BI00B32CJ    #JQN2103       202209237183-2415-40             CONNECTOR HOUSING        CCN000004800000004800FN00000000020221001000004800NNM   20220801151323    2F0F  00000480000000798200001091432CJ    QNYHVQN 005500360039
BI00B32CJ    #JQN2104       202209307183-2415-40             CONNECTOR HOUSING        CCN000009600000009600FN00000000020221001000009600NNM   20220801151323    2F0F  00000480000000798200001091432CJ    QNYHVQN 005500360039
BI00B32CJ    #JQN2105       202210077183-2415-40             CONNECTOR HOUSING        CCN000004800000004800FN00000000020221001000004800NNM   20220801151323    2F0F  00000480000000798200001091432CJ    QNYHVQN 005500360039
BI00B32CJ    #JQN2103       202209237183-2418                CONNECTOR HOUSING        CCN000004800000004800FN00000000020221001000004800NNM   20220801151323    2F0F  00000480000000917000001477032CJ    QNYHVQN 005500360039
BI00B32CJ    #JQN2104       202209307183-2418                CONNECTOR HOUSING        CCN000004800000004800FN00000000020221001000004800NNM   20220801151323    2F0F  00000480000000917000001477032CJ    QNYHVQN 005500360039
BI00B32CJ    #JQN2105       202210077183-2418                CONNECTOR HOUSING        CCN000004800000004800FN00000000020221001000004800NNM   20220801151323    2F0F  00000480000000917000001477032CJ    QNYHVQN 005500360039
BI00B32CJ    #JQN2102       202209167183-2418-30             CONNECTOR HOUSING        CCN000004800000004800FN00000000020221001000004800NNM   20220801151323    2F0F  00000480000000917000001235332CJ    QNYHVQN 005500360039
BI00B32CJ    #JQN2103       202209237183-2418-30             CONNECTOR HOUSING        CCN000004800000004800FN00000000020221001000004800NNM   20220801151323    2F0F  00000480000000917000001235332CJ    QNYHVQN 005500360039
BI00B32CJ    #JQN2104       202209307183-2418-30             CONNECTOR HOUSING        CCN000004800000004800FN00000000020221001000004800NNM   20220801151323    2F0F  00000480000000917000001235332CJ    QNYHVQN 005500360039
BI00B32CJ    #JQN2105       202210077183-2418-30             CONNECTOR HOUSING        CCN000004800000004800FN00000000020221001000004800NNM   20220801151323    2F0F  00000480000000917000001235332CJ    QNYHVQN 005500360039
BI00B32CJ    #JQN2101       202209097186-8851                HOUSING MALE             CCN000002000000002000FN00000000020221001000002000NNM   20220801151323    2F0F  00000100000000782200000906232CJ    QNYHVQN 005400370024
BI00B32CJ    #JQN2102       202209167186-8851                HOUSING MALE             CCN000005000000005000FN00000000020221001000005000NNM   20220801151323    2F0F  00000100000000782200000906232CJ    QNYHVQN 005400370024
BI00B32CJ    #JQN2103       202209237186-8851                HOUSING MALE             CCN000003000000003000FN00000000020221001000003000NNM   20220801151323    2F0F  00000100000000782200000906232CJ    QNYHVQN 005400370024
BI00B32CJ    #JQN2104       202209307186-8851                HOUSING MALE             CCN000005000000005000FN00000000020221001000005000NNM   20220801151323    2F0F  00000100000000782200000906232CJ    QNYHVQN 005400370024
BI00B32CJ    #JQN2105       202210077186-8851                HOUSING MALE             CCN000004000000004000FN00000000020221001000004000NNM   20220801151323    2F0F  00000100000000782200000906232CJ    QNYHVQN 005400370024
BI00B32CJ    #JQN2103       202209237187-1616                HOUSING FEMALE           CCN000004000000004000FN00000000020221001000004000NNM   20220801151323    2F0F  00000400000001152000001262032CJ    QNYHVQN 005500360039
BI00B32CJ    #JQN2104       202209307187-1616                HOUSING FEMALE           CCN000008000000008000FN00000000020221001000008000NNM   20220801151323    2F0F  00000400000001152000001262032CJ    QNYHVQN 005500360039
BI00B32CJ    #JQN2105       202210077187-1616                HOUSING FEMALE           CCN000012000000012000FN00000000020221001000012000NNM   20220801151323    2F0F  00000400000001152000001262032CJ    QNYHVQN 005500360039
BI00B32CJ    #JQN2105       202210077189-3038                HOUSING FEMALE           CCN000001600000001600FN00000000020221001000001600NNM   20220801151323    2F0F  00000160000000817600000850132CJ    QNYHVQN 005500360039
BI00B32CJ    #JQN2103       202209237198-5394                HOUSING FEMALE           CCN000019200000019200FN00000000020221001000019200NNM   20220801151323    2F0F  00000480000000489700000688832CJ    QNYHVQN 005500360039
BI00B32CJ    #JQN2104       202209307198-5394                HOUSING FEMALE           CCN000019200000019200FN00000000020221001000019200NNM   20220801151323    2F0F  00000480000000489700000688832CJ    QNYHVQN 005500360039
BI00B32CJ    #JQN2105       202210077198-5394                HOUSING FEMALE           CCN000019200000019200FN00000000020221001000019200NNM   20220801151323    2F0F  00000480000000489700000688832CJ    QNYHVQN 005500360039
BI00B32CJ    #JQN2102       202209167282-1210                CONNECTOR MALE ASS'Y     CCN000001000000001000FN00000000020221001000001000NNM   20220801151323    2N0N  00000100000000336000000458532CJ    QNYHVQN 005400370024
BI00B32CJ    #JQN2103       202209237282-1210                CONNECTOR MALE ASS'Y     CCN000001000000001000FN00000000020221001000001000NNM   20220801151323    2N0N  00000100000000336000000458532CJ    QNYHVQN 005400370024
BI00B32CJ    #JQN2102       202209167282-1641                CONNECTOR                CCN000004000000004000FN00000000020221001000004000NNM   20220801151323    2N0N  00000200000000813000000986032CJ    QNYHVQN 005500360039
BI00B32CJ    #JQN2103       202209237282-1641                CONNECTOR                CCN000010000000010000FN00000000020221001000010000NNM   20220801151323    2N0N  00000200000000813000000986032CJ    QNYHVQN 005500360039
BI00B32CJ    #JQN2104       202209307282-1641                CONNECTOR                CCN000012000000012000FN00000000020221001000012000NNM   20220801151323    2N0N  00000200000000813000000986032CJ    QNYHVQN 005500360039
BI00B32CJ    #JQN2105       202210077282-1641                CONNECTOR                CCN000010000000010000FN00000000020221001000010000NNM   20220801151323    2N0N  00000200000000813000000986032CJ    QNYHVQN 005500360039
BI00B32CJ    #JQN2102       202209167282-5528-70             HOUSING MALE ASS'Y       CCN000012000000012000FN00000000020221001000012000NNM   20220801151323    2N0N  00000100000000230000000339032CJ    QNYHVQN 005400370024
BI00B32CJ    #JQN2103       202209237282-5528-70             HOUSING MALE ASS'Y       CCN000019000000019000FN00000000020221001000019000NNM   20220801151323    2N0N  00000100000000230000000339032CJ    QNYHVQN 005400370024
BI00B32CJ    #JQN2104       202209307282-5528-70             HOUSING MALE ASS'Y       CCN000024000000024000FN00000000020221001000024000NNM   20220801151323    2N0N  00000100000000230000000339032CJ    QNYHVQN 005400370024
BI00B32CJ    #JQN2105       202210077282-5528-70             HOUSING MALE ASS'Y       CCN000024000000024000FN00000000020221001000024000NNM   20220801151323    2N0N  00000100000000230000000339032CJ    QNYHVQN 005400370024
BI00B32CJ    #JQN2102       202209167283-8123                CONNECTOR HOUSING        CCN000004000000004000FN00000000020221001000004000NNM   20220801151323    2N0N  00000400000000380000000531732CJ    QNYHVQN 005600390023
BI00B32CJ    #JQN2103       202209237283-8123                CONNECTOR HOUSING        CCN000004000000004000FN00000000020221001000004000NNM   20220801151323    2N0N  00000400000000380000000531732CJ    QNYHVQN 005600390023
BI00B32CJ    #JQN2104       202209307283-8123                CONNECTOR HOUSING        CCN000008000000008000FN00000000020221001000008000NNM   20220801151323    2N0N  00000400000000380000000531732CJ    QNYHVQN 005600390023
BI00B32CJ    #JQN2105       202210077283-8123                CONNECTOR HOUSING        CCN000008000000008000FN00000000020221001000008000NNM   20220801151323    2N0N  00000400000000380000000531732CJ    QNYHVQN 005600390023
BI00B32CJ    #JQN2102       202209167283-8123-40             CONNECTOR HOUSING        CCN000004000000004000FN00000000020221001000004000NNM   20220801151323    2N0N  00000400000000380000000530032CJ    QNYHVQN 005600390023
BI00B32CJ    #JQN2103       202209237283-8123-40             CONNECTOR HOUSING        CCN000004000000004000FN00000000020221001000004000NNM   20220801151323    2N0N  00000400000000380000000530032CJ    QNYHVQN 005600390023
BI00B32CJ    #JQN2104       202209307283-8123-40             CONNECTOR HOUSING        CCN000008000000008000FN00000000020221001000008000NNM   20220801151323    2N0N  00000400000000380000000530032CJ    QNYHVQN 005600390023
BI00B32CJ    #JQN2105       202210077283-8123-40             CONNECTOR HOUSING        CCN000008000000008000FN00000000020221001000008000NNM   20220801151323    2N0N  00000400000000380000000530032CJ    QNYHVQN 005600390023
BI00B32CJ    #JQN2102       202209167286-7860                HOUSING MALE ASS'Y       CCN000008400000008800FN00000000020221001000008800NNM   20220801151323    2N0N  00000080000000951700001139832CJ    QNYHVQN 005400370024
BI00B32CJ    #JQN2103       202209237286-7860                HOUSING MALE ASS'Y       CCN000001200000001600FN00000000020221001000001600NNM   20220801151323    2N0N  00000080000000951700001139832CJ    QNYHVQN 005400370024
BI00B32CJ    #JQN2104       202209307286-7860                HOUSING MALE ASS'Y       CCN000013800000014400FN00000000020221001000014400NNM   20220801151323    2N0N  00000080000000951700001139832CJ    QNYHVQN 005400370024
BI00B32CJ    #JQN2105       202210077286-7860                HOUSING MALE ASS'Y       CCN000009600000009600FN00000000020221001000009600NNM   20220801151323    2N0N  00000080000000951700001139832CJ    QNYHVQN 005400370024
BI00B32CJ    #JQN2101       202209097287-1669                HOUSING FEMALE ASS'Y     CCN000010000000010000FN00000000020221001000010000NNM   20220801151323    2N0N  00000200000000788800000980832CJ    QNYHVQN 005400370024
BI00B32CJ    #JQN2102       202209167287-1669                HOUSING FEMALE ASS'Y     CCN000014000000014000FN00000000020221001000014000NNM   20220801151323    2N0N  00000200000000788800000980832CJ    QNYHVQN 005400370024
BI00B32CJ    #JQN2103       202209237287-1669                HOUSING FEMALE ASS'Y     CCN000012000000012000FN00000000020221001000012000NNM   20220801151323    2N0N  00000200000000788800000980832CJ    QNYHVQN 005400370024
BI00B32CJ    #JQN2104       202209307287-1669                HOUSING FEMALE ASS'Y     CCN000016000000016000FN00000000020221001000016000NNM   20220801151323    2N0N  00000200000000788800000980832CJ    QNYHVQN 005400370024
BI00B32CJ    #JQN2105       202210077287-1669                HOUSING FEMALE ASS'Y     CCN000016000000016000FN00000000020221001000016000NNM   20220801151323    2N0N  00000200000000788800000980832CJ    QNYHVQN 005400370024
BI00B32CJ    #JQN2101       202209097287-1670                HOUSING FEMALE ASS'Y     CCN000011200000011200FN00000000020221001000011200NNM   20220801151323    2N0N  00000280000000953100001145132CJ    QNYHVQN 005400370024
BI00B32CJ    #JQN2102       202209167287-1670                HOUSING FEMALE ASS'Y     CCN000014000000014000FN00000000020221001000014000NNM   20220801151323    2N0N  00000280000000953100001145132CJ    QNYHVQN 005400370024
BI00B32CJ    #JQN2103       202209237287-1670                HOUSING FEMALE ASS'Y     CCN000014000000014000FN00000000020221001000014000NNM   20220801151323    2N0N  00000280000000953100001145132CJ    QNYHVQN 005400370024
BI00B32CJ    #JQN2104       202209307287-1670                HOUSING FEMALE ASS'Y     CCN000014000000014000FN00000000020221001000014000NNM   20220801151323    2N0N  00000280000000953100001145132CJ    QNYHVQN 005400370024
BI00B32CJ    #JQN2105       202210077287-1670                HOUSING FEMALE ASS'Y     CCN000016800000016800FN00000000020221001000016800NNM   20220801151323    2N0N  00000280000000953100001145132CJ    QNYHVQN 005400370024
BI00B32CJ    #JQN2101       202209097287-1671                HOUSING FEMALE ASS'Y     CCN000012000000012000FN00000000020221001000012000NNM   20220801151323    2N0N  00000200000000782600000974632CJ    QNYHVQN 005400370024
BI00B32CJ    #JQN2102       202209167287-1671                HOUSING FEMALE ASS'Y     CCN000014000000014000FN00000000020221001000014000NNM   20220801151323    2N0N  00000200000000782600000974632CJ    QNYHVQN 005400370024
BI00B32CJ    #JQN2103       202209237287-1671                HOUSING FEMALE ASS'Y     CCN000012000000012000FN00000000020221001000012000NNM   20220801151323    2N0N  00000200000000782600000974632CJ    QNYHVQN 005400370024
BI00B32CJ    #JQN2104       202209307287-1671                HOUSING FEMALE ASS'Y     CCN000016000000016000FN00000000020221001000016000NNM   20220801151323    2N0N  00000200000000782600000974632CJ    QNYHVQN 005400370024
BI00B32CJ    #JQN2105       202210077287-1671                HOUSING FEMALE ASS'Y     CCN000018000000018000FN00000000020221001000018000NNM   20220801151323    2N0N  00000200000000782600000974632CJ    QNYHVQN 005400370024
BI00B32CJ    #JQN2101       202209097287-1674                HYBRID FEMALE ASS'Y      CCN000012000000012000FN00000000020221001000012000NNM   20220801151323    2N0N  00000200000000810800001002832CJ    QNYHVQN 005400370024
BI00B32CJ    #JQN2102       202209167287-1674                HYBRID FEMALE ASS'Y      CCN000014000000014000FN00000000020221001000014000NNM   20220801151323    2N0N  00000200000000810800001002832CJ    QNYHVQN 005400370024
BI00B32CJ    #JQN2103       202209237287-1674                HYBRID FEMALE ASS'Y      CCN000012000000012000FN00000000020221001000012000NNM   20220801151323    2N0N  00000200000000810800001002832CJ    QNYHVQN 005400370024
BI00B32CJ    #JQN2104       202209307287-1674                HYBRID FEMALE ASS'Y      CCN000016000000016000FN00000000020221001000016000NNM   20220801151323    2N0N  00000200000000810800001002832CJ    QNYHVQN 005400370024
BI00B32CJ    #JQN2105       202210077287-1674                HYBRID FEMALE ASS'Y      CCN000016000000016000FN00000000020221001000016000NNM   20220801151323    2N0N  00000200000000810800001002832CJ    QNYHVQN 005400370024
BI00B32CJ    #JQN2103       202209237287-1915                CONNECTOR ASS'Y          CCN000002400000002400FN00000000020221001000002400NNM   20220801151323    2N0N  00000240000000666500000923132CJ    QNYHVQN 005500360039
BI00B32CJ    #JQN2104       202209307287-1915                CONNECTOR ASS'Y          CCN000007200000007200FN00000000020221001000007200NNM   20220801151323    2N0N  00000240000000666500000923132CJ    QNYHVQN 005500360039
BI00B32CJ    #JQN2105       202210077287-1915                CONNECTOR ASS'Y          CCN000007200000007200FN00000000020221001000007200NNM   20220801151323    2N0N  00000240000000666500000923132CJ    QNYHVQN 005500360039
BI00B32CJ    #JQN2101       202209097287-1915-30             CONNECTOR ASS'Y          CCN000002400000002400FN00000000020221001000002400NNM   20220801151323    2N0N  00000240000000666500000923132CJ    QNYHVQN 005500360039
BI00B32CJ    #JQN2102       202209167287-1915-30             CONNECTOR ASS'Y          CCN000004800000004800FN00000000020221001000004800NNM   20220801151323    2N0N  00000240000000666500000923132CJ    QNYHVQN 005500360039
BI00B32CJ    #JQN2103       202209237287-1915-30             CONNECTOR ASS'Y          CCN000004800000004800FN00000000020221001000004800NNM   20220801151323    2N0N  00000240000000666500000923132CJ    QNYHVQN 005500360039
BI00B32CJ    #JQN2104       202209307287-1915-30             CONNECTOR ASS'Y          CCN000004800000004800FN00000000020221001000004800NNM   20220801151323    2N0N  00000240000000666500000923132CJ    QNYHVQN 005500360039
BI00B32CJ    #JQN2105       202210077287-1915-30             CONNECTOR ASS'Y          CCN000004800000004800FN00000000020221001000004800NNM   20220801151323    2N0N  00000240000000666500000923132CJ    QNYHVQN 005500360039
BI00B32CJ    #JQN2101       202209097287-7022                CONNECTOR FEMALE         CCN000001200000001200FN00000000020221001000001200NNM   20220801151323    2NON  00000120000000742800000853032CJ    QNYHVQN 005400370024
BI00B32CJ    #JQN2102       202209167287-7022                CONNECTOR FEMALE         CCN000001200000001200FN00000000020221001000001200NNM   20220801151323    2NON  00000120000000742800000853032CJ    QNYHVQN 005400370024
BI00B32CJ    #JQN2103       202209237287-7022                CONNECTOR FEMALE         CCN000002400000002400FN00000000020221001000002400NNM   20220801151323    2NON  00000120000000742800000853032CJ    QNYHVQN 005400370024
BI00B32CJ    #JQN2104       202209307287-7022                CONNECTOR FEMALE         CCN000002400000002400FN00000000020221001000002400NNM   20220801151323    2NON  00000120000000742800000853032CJ    QNYHVQN 005400370024
BI00B32CJ    #JQN2105       202210077287-7022                CONNECTOR FEMALE         CCN000001200000001200FN00000000020221001000001200NNM   20220801151323    2NON  00000120000000742800000853032CJ    QNYHVQN 005400370024
BI00B32DE    #TCTL2092      202208117283-5833                CONNECTOR HOUSING        CCN000003640000003640FN00000000020220901000003640NNMD0020220801121755    2N0N  00000364000001378000001686732DE    TVYEV-TV005500360039
BI00B32DE    #TCT208F       202208117282-7064-30             HOUSING MALE ASS'Y       CCN000000600000000600FN00000000020220801000000600NNED0720220801121755    2N00  00000060000000597000000764032DE    TVYEV-TV005400370024
BI00B32DE    TCT209G        202208117283-5846                HOUSING                  CCN000001500000001500FN00000000020220901000001500NNE   20220801121755    1N0N  00000150000000885000001102032DE    TVYEV-TV005600390040
BI00B32DE    TCT209H        202208187116-4416-02             TERMINAL                 CCN000032000000032000FN00000000020220901000032000NNE   20220801121755    4P0P  00003200000000518400000847132DE    TVYEV-TV006400630017
BI00B32DE    TCT209H        202208187158-3167-80             WIRE SEAL                CCN000040000000040000FN00000000020220901000040000NNE   20220801121755    1C0C  00002000000000048000000109032DE    TVYEV-TV002700430014
BI00B32DE    TCT209J        202208117158-3167-80             WIRE SEAL                CCN000040000000040000FN00000000020220901000040000NNE   20220801121755    1C0C  00002000000000048000000109032DE    TVYEV-TV002700430014
BI00B32DE    TCT209J        202208117283-5832                CONNECTOR HOUSING        CCN000002400000002400FN00000000020220901000002400NNE   20220801121755    1N47  00000240000000723800000873832DE    TVYEV-TV005500360039
BI00B32DE    TCT209J        202208117283-5843                CONNECTOR                CCN000001500000001500FN00000000020220901000001500NNE   20220801121755    1N0N  00000150000000889000001132032DE    TVYEV-TV005600390040
BI00B32DE    TCT209J        202208257283-5846-40             HOUSING                  CCN000001500000001500FN00000000020220901000001500NNED0720220801132920    1N0N  00000150000000885000001102032DE    TVYEV-TV005600390040
BI00B32DE    TCT209K        202208187116-2640                TERMINAL                 CCN000018000000018000FN00000000020220901000018000NNE   20220801121755    4P0P  00001800000001018800001196632DE    TVYEV-TV005100280028
BI00B32DE    TCT209K        202208187116-4416-02             TERMINAL                 CCN000064000000064000FN00000000020220901000064000NNE   20220801121755    4P0P  00003200000000518400000847132DE    TVYEV-TV006400630017
BI00B32DE    TCT209L        202208257116-2640                TERMINAL                 CCN000018000000018000FN00000000020220901000018000NNE   20220801121755    4P0P  00001800000001018800001196632DE    TVYEV-TV005100280028
