BI00B32AF    TTB2104        2022093018007704150              AVSS 1.25F R             CCN000007200000007200FN00000000020221001000007200NNM   20220801162128    1W    00000080000001389000000000032AF    HBYHVTB 000000000000UZ229028
BI00B32AF    TTB2105        2022100718007704150              AVSS 1.25F R             CCN000007200000007200FN00000000020221001000007200NNM   20220801162128    1W    00000080000001389000000000032AF    HBYHVTB 000000000000UZ329028
BI00B32AF    TTB2104        2022093018007704140              AVSS 1.25F W             CCN000007200000007200FN00000000020221001000007200NNM   20220801162128    1W    00000080000001389000000000032AF    HBYHVTB 000000000000UZ229029
BI00B32AF    TTB2105        2022100718007704140              AVSS 1.25F W             CCN000007200000007200FN00000000020221001000007200NNM   20220801162128    1W    00000080000001389000000000032AF    HBYHVTB 000000000000UZ329029
BI00B32AF    @TTB2103       20220923181B0911741              CAVSAS 0.3X3 GY          CCN000008000000008000FN00000000020221001000008000NNM   20220801162127    1W    00000025000002843000000000032AF    HBYHVTB 000000000000UZ129024
BI00B32AF    @TTB2104       20220930181B0911741              CAVSAS 0.3X3 GY          CCN000012000000012000FN00000000020221001000012000NNM   20220801162127    1W    00000025000002843000000000032AF    HBYHVTB 000000000000UZ229026
BI00B32AF    @TTB2105       20221007181B0911741              CAVSAS 0.3X3 GY          CCN000012000000012000FN00000000020221001000012000NNM   20220801162127    1W    00000025000002843000000000032AF    HBYHVTB 000000000000UZ329026
BI00B32AF    @TTB2101       20220909181E48013ZZ              CAVSAS-S 0.3X3 GY        CCN000001000000001000FN00000000020221001000001000NNM   20220801162127    1W    00000025000002778200000000032AF    HBYHVTB 000000000000UZ428003
BI00B32AF    @TTB2102       20220916181E48013ZZ              CAVSAS-S 0.3X3 GY        CCN000003000000003000FN00000000020221001000003000NNM   20220801162127    1W    00000025000002778200000000032AF    HBYHVTB 000000000000UZ528012
BI00B32AF    @TTB2103       20220923181E48013ZZ              CAVSAS-S 0.3X3 GY        CCN000005000000005000FN00000000020221001000005000NNM   20220801162127    1W    00000025000002778200000000032AF    HBYHVTB 000000000000UZ129025
BI00B32AF    @TTB2104       20220930181E48013ZZ              CAVSAS-S 0.3X3 GY        CCN000003500000003500FN00000000020221001000003500NNM   20220801162127    1W    00000025000002778200000000032AF    HBYHVTB 000000000000UZ229027
BI00B32AF    @TTB2105       20221007181E48013ZZ              CAVSAS-S 0.3X3 GY        CCN000001250000001250FN00000000020221001000001250NNM   20220801162127    1W    00000025000002778200000000032AF    HBYHVTB 000000000000UZ329027
BI00B32AF    @TTB2105       20221007181AD2001ZZ              CIVUSAS-S 0.35X1 B       CCN000009900000009900FN00000000020221001000009900NNM   20220801162127    1W    00000055000001540800000000032AF    HBYHVTB 000000000000UZ329020
BI00B32AF    @TTB2104       20220930181AD2002ZZ              CIVUSAS-S 0.35X2 B       CCN000076500000076500FN00000000020221001000076500NNM   20220801162127    1W    00000045000001713700000000032AF    HBYHVTB 000000000000UZ229024
BI00B32AF    @TTB2105       20221007181AD2002ZZ              CIVUSAS-S 0.35X2 B       CCN000081000000081000FN00000000020221001000081000NNM   20220801162127    1W    00000045000001713700000000032AF    HBYHVTB 000000000000UZ329024
BI00B32AF    @TTB2103       20220923181AD2003ZZ              CIVUSAS-S 0.35X3 B       CCN000017500000017500FN00000000020221001000017500NNM   20220801162127    1W    00000035000002172100000000032AF    HBYHVTB 000000000000UZ129023
BI00B32AF    @TTB2104       20220930181AD2003ZZ              CIVUSAS-S 0.35X3 B       CCN000045500000045500FN00000000020221001000045500NNM   20220801162127    1W    00000035000002172100000000032AF    HBYHVTB 000000000000UZ229025
BI00B32AF    @TTB2105       20221007181AD2003ZZ              CIVUSAS-S 0.35X3 B       CCN000043750000043750FN00000000020221001000043750NNM   20220801162127    1W    00000035000002172100000000032AF    HBYHVTB 000000000000UZ329025
BI00B32AF    @TTB2102       20220916181AD2008ZZ              CIVUSAS-S 0.5X2 B        CCN000004000000004000FN00000000020221001000004000NNM   20220801162127    1W    00000040000002028000000000032AF    HBYHVTB 000000000000UZ528010
BI00B32AF    @TTB2103       20220923181AD2008ZZ              CIVUSAS-S 0.5X2 B        CCN000052000000052000FN00000000020221001000052000NNM   20220801162127    1W    00000040000002028000000000032AF    HBYHVTB 000000000000UZ129021
BI00B32AF    @TTB2104       20220930181AD2008ZZ              CIVUSAS-S 0.5X2 B        CCN000044000000044000FN00000000020221001000044000NNM   20220801162127    1W    00000040000002028000000000032AF    HBYHVTB 000000000000UZ229022
BI00B32AF    @TTB2105       20221007181AD2008ZZ              CIVUSAS-S 0.5X2 B        CCN000042000000042000FN00000000020221001000042000NNM   20220801162127    1W    00000040000002028000000000032AF    HBYHVTB 000000000000UZ329021
BI00B32AF    @TTB2105       20221007181AD2009ZZ              CIVUSAS-S 0.5X3 B        CCN000000300000000300FN00000000020221001000000300NNM   20220801162127    1W    00000030000002716800000000032AF    HBYHVTB 000000000000UZ329022
BI00B32AF    @TTB2101       20220909181AD2010ZZ              CIVUSAS-S 0.5X4 B        CCN000000750000000750FN00000000020221001000000750NNM   20220801162127    1W    00000025000003214000000000032AF    HBYHVTB 000000000000UZ428002
BI00B32AF    @TTB2102       20220916181AD2010ZZ              CIVUSAS-S 0.5X4 B        CCN000004250000004250FN00000000020221001000004250NNM   20220801162127    1W    00000025000003214000000000032AF    HBYHVTB 000000000000UZ528011
BI00B32AF    @TTB2103       20220923181AD2010ZZ              CIVUSAS-S 0.5X4 B        CCN000006000000006000FN00000000020221001000006000NNM   20220801162127    1W    00000025000003214000000000032AF    HBYHVTB 000000000000UZ129022
BI00B32AF    @TTB2104       20220930181AD2010ZZ              CIVUSAS-S 0.5X4 B        CCN000006000000006000FN00000000020221001000006000NNM   20220801162127    1W    00000025000003214000000000032AF    HBYHVTB 000000000000UZ229023
BI00B32AF    @TTB2105       20221007181AD2010ZZ              CIVUSAS-S 0.5X4 B        CCN000005500000005500FN00000000020221001000005500NNM   20220801162127    1W    00000025000003214000000000032AF    HBYHVTB 000000000000UZ329023
BI00B32A7    ZZ22103LMW     2022091418000004530              AV 8 B                   CCN000002800000002800FN00000000020221001000002800NNM   20220801161935    1W    00000010000010466200000000032A7    ZZZZY   000000000000ZZ528006
BI00B32A7    ZZ22104LMW     2022092118000004530              AV 8 B                   CCN000007600000007600FN00000000020221001000007600NNM   20220801161935    1W    00000010000010466200000000032A7    ZZZZY   000000000000ZZ129013
BI00B32A7    ZZ22102LMW     2022090718000004580              AV 8 BR                  CCN000000100000000100FN00000000020221001000000100NNM   20220801161935    1W    00000010000010466200000000032A7    ZZZZY   000000000000ZZ428004
BI00B32A7    ZZ22103LMW     2022091418000004580              AV 8 BR                  CCN000000700000000700FN00000000020221001000000700NNM   20220801161935    1W    00000010000010466200000000032A7    ZZZZY   000000000000ZZ528007
BI00B32A7    ZZ22104LMW     2022092118000004580              AV 8 BR                  CCN000000400000000400FN00000000020221001000000400NNM   20220801161935    1W    00000010000010466200000000032A7    ZZZZY   000000000000ZZ129014
BI00B32A7    ZZ22101LMW     2022083118000004560              AV 8 G                   CCN000007200000007200FN00000000020221001000007200NNM   20220801161935    1W    00000010000010466200000000032A7    ZZZZY   000000000000ZZ328004
BI00B32A7    ZZ22102LMW     2022090718000004560              AV 8 G                   CCN000001800000001800FN00000000020221001000001800NNM   20220801161935    1W    00000010000010466200000000032A7    ZZZZY   000000000000ZZ428005
BI00B32A7    ZZ22103LMW     2022091418000004560              AV 8 G                   CCN000003700000003700FN00000000020221001000003700NNM   20220801161935    1W    00000010000010466200000000032A7    ZZZZY   000000000000ZZ528008
BI00B32A7    ZZ22104LMW     2022092118000004560              AV 8 G                   CCN000008800000008800FN00000000020221001000008800NNM   20220801161935    1W    00000010000010466200000000032A7    ZZZZY   000000000000ZZ129015
BI00B32A7    ZZ22101LMW     2022083118000004550              AV 8 R                   CCN000012700000012700FN00000000020221001000012700NNM   20220801161935    1W    00000010000010466200000000032A7    ZZZZY   000000000000ZZ328005
BI00B32A7    ZZ22102LMW     2022090718000004550              AV 8 R                   CCN000005300000005300FN00000000020221001000005300NNM   20220801161935    1W    00000010000010466200000000032A7    ZZZZY   000000000000ZZ428006
BI00B32A7    ZZ22103LMW     2022091418000004550              AV 8 R                   CCN000009500000009500FN00000000020221001000009500NNM   20220801161935    1W    00000010000010466200000000032A7    ZZZZY   000000000000ZZ528009
BI00B32A7    ZZ22104LMW     2022092118000004550              AV 8 R                   CCN000014000000014000FN00000000020221001000014000NNM   20220801161935    1W    00000010000010466200000000032A7    ZZZZY   000000000000ZZ129016
BI00B32A7    ZZ22101LMW     2022083118000004540              AV 8 W                   CCN000009800000009800FN00000000020221001000009800NNM   20220801161935    1W    00000010000010466200000000032A7    ZZZZY   000000000000ZZ328006
BI00B32A7    ZZ22102LMW     2022090718000004540              AV 8 W                   CCN000002600000002600FN00000000020221001000002600NNM   20220801161935    1W    00000010000010466200000000032A7    ZZZZY   000000000000ZZ428007
BI00B32A7    ZZ22103LMW     2022091418000004540              AV 8 W                   CCN000005200000005200FN00000000020221001000005200NNM   20220801161935    1W    00000010000010466200000000032A7    ZZZZY   000000000000ZZ528010
BI00B32A7    ZZ22104LMW     2022092118000004540              AV 8 W                   CCN000009000000009000FN00000000020221001000009000NNM   20220801161935    1W    00000010000010466200000000032A7    ZZZZY   000000000000ZZ129017
BI00B32A7    ZZ22101LMW     2022083118000004570              AV 8 Y                   CCN000001200000001200FN00000000020221001000001200NNM   20220801161935    1W    00000010000010466200000000032A7    ZZZZY   000000000000ZZ328007
BI00B32A7    ZZ22102LMW     2022090718000004570              AV 8 Y                   CCN000000600000000600FN00000000020221001000000600NNM   20220801161935    1W    00000010000010466200000000032A7    ZZZZY   000000000000ZZ428008
BI00B32A7    ZZ22103LMW     2022091418000004570              AV 8 Y                   CCN000001300000001300FN00000000020221001000001300NNM   20220801161935    1W    00000010000010466200000000032A7    ZZZZY   000000000000ZZ528011
BI00B32A7    ZZ22104LMW     2022092118000004570              AV 8 Y                   CCN000003000000003000FN00000000020221001000003000NNM   20220801161935    1W    00000010000010466200000000032A7    ZZZZY   000000000000ZZ129018
BI00B32A7    @ZZ22101LMW    20220831181E48017ZZ              CAVSAS-S 0.5X1 GY/G      CCN000013600000013600FN00000000020221001000013600NNM   20220801161934    1W    00000040000001900600000000032A7    ZZZZY   000000000000ZZ328001
BI00B32A7    @ZZ22102LMW    20220907181E48017ZZ              CAVSAS-S 0.5X1 GY/G      CCN000004800000004800FN00000000020221001000004800NNM   20220801161934    1W    00000040000001900600000000032A7    ZZZZY   000000000000ZZ428001
BI00B32A7    @ZZ22103LMW    20220914181E48017ZZ              CAVSAS-S 0.5X1 GY/G      CCN000005200000005200FN00000000020221001000005200NNM   20220801161934    1W    00000040000001900600000000032A7    ZZZZY   000000000000ZZ528003
BI00B32A7    @ZZ22104LMW    20220921181E48017ZZ              CAVSAS-S 0.5X1 GY/G      CCN000005200000005200FN00000000020221001000005200NNM   20220801161934    1W    00000040000001900600000000032A7    ZZZZY   000000000000ZZ129010
BI00B32A7    @ZZ22101LMW    20220831181E48019ZZ              CAVSAS-S 0.5X1 GY/W      CCN000012000000012000FN00000000020221001000012000NNM   20220801161934    1W    00000040000001900600000000032A7    ZZZZY   000000000000ZZ328002
BI00B32A7    @ZZ22102LMW    20220907181E48019ZZ              CAVSAS-S 0.5X1 GY/W      CCN000004800000004800FN00000000020221001000004800NNM   20220801161934    1W    00000040000001900600000000032A7    ZZZZY   000000000000ZZ428002
BI00B32A7    @ZZ22103LMW    20220914181E48019ZZ              CAVSAS-S 0.5X1 GY/W      CCN000004800000004800FN00000000020221001000004800NNM   20220801161934    1W    00000040000001900600000000032A7    ZZZZY   000000000000ZZ528004
BI00B32A7    @ZZ22104LMW    20220921181E48019ZZ              CAVSAS-S 0.5X1 GY/W      CCN000000800000000800FN00000000020221001000000800NNM   20220801161934    1W    00000040000001900600000000032A7    ZZZZY   000000000000ZZ129011
BI00B32A7    @ZZ22101LMW    20220831181E48040ZZ              CAVSAS-S 0.3X2 GY/V      CCN000005600000005600FN00000000020221001000005600NNM   20220801161934    1W    00000035000002008700000000032A7    ZZZZY   000000000000ZZ328003
BI00B32A7    @ZZ22102LMW    20220907181E48040ZZ              CAVSAS-S 0.3X2 GY/V      CCN000005600000005600FN00000000020221001000005600NNM   20220801161934    1W    00000035000002008700000000032A7    ZZZZY   000000000000ZZ428003
BI00B32A7    @ZZ22103LMW    20220914181E48040ZZ              CAVSAS-S 0.3X2 GY/V      CCN000005950000005950FN00000000020221001000005950NNM   20220801161934    1W    00000035000002008700000000032A7    ZZZZY   000000000000ZZ528005
BI00B32A7    @ZZ22104LMW    20220921181E48040ZZ              CAVSAS-S 0.3X2 GY/V      CCN000001050000001050FN00000000020221001000001050NNM   20220801161934    1W    00000035000002008700000000032A7    ZZZZY   000000000000ZZ129012
BI00B32BF    TT22103KMW     2022083018009604130              AVS 1.25 B               CCN000000800000000000FY00000000020221001000000000NNM10 20220801082251    1W    00000080000001643000000000032BF    TTTJY   000000000000NK328002
BI00B32CJ    TTQ209D        2022081918000004550              AV 8 R                   CCN000003500000003500FN00000000020220901000003500NNE   20220801164226    1W    00000010000010466200000000032CJ    QNYHVQN 000000000000UL128001
BI00B32CJ    @TTQ209D       20220826181B32012ZZ              AVSSCS 0.3FX2 DGY/BR     CCN000001400000001400FN00000000020220901000001400NNE   20220801141301    1W    00000035000002276000000000032CJ    QNYHVQN 000000000000UP228001
BI00B32CJ    TTQ209E        2022082618000004530              AV 8 B                   CCN000002200000002200FN00000000020220901000002200NNE   20220801164227    1W    00000010000010466200000000032CJ    QNYHVQN 000000000000UM228001
BI00B32CJ    TTQ209E        202208261801W004091              IVSSH 0.75F SB           CCN000002600000002600FN00000000020220901000002600NNE   20220801164227    1W    00000130000000882000000000032CJ    QNYHVQN 000000000000UM228002
BI00B32DE    TT209F         2022081818007703750              AVSS 0.3F R              CCN000004000000004000FN00000000020220901000004000NNE   20220801102355    1W    00000200000000496000000000032DE    TVYEV-TV000000000000VR128035
BI00B32DE    TT209F         2022081818007703941              AVSS 0.5F GY             CCN000007500000007500FN00000000020220901000007500NNE   20220801102355    1W    00000150000000674000000000032DE    TVYEV-TV000000000000VR128036
BI00B32DE    TT209F         2022081818007703990              AVSS 0.5F L              CCN000006000000006000FN00000000020220901000006000NNE   20220801102355    1W    00000150000000674000000000032DE    TVYEV-TV000000000000VR128037
BI00B32DE    TT209F         2022081818007703950              AVSS 0.5F R              CCN000001500000001500FN00000000020220901000001500NNE   20220801102355    1W    00000150000000674000000000032DE    TVYEV-TV000000000000VR128038
BI00B32DE    TT209F         2022081818007703992              AVSS 0.5F V              CCN000001500000001500FN00000000020220901000001500NNE   20220801102355    1W    00000150000000674000000000032DE    TVYEV-TV000000000000VR128039
BI00B32DE    TT209F         2022081818007703940              AVSS 0.5F W              CCN000001500000001500FN00000000020220901000001500NNE   20220801102355    1W    00000150000000674000000000032DE    TVYEV-TV000000000000VR128040
BI00B32DE    TT209F         2022081818007703945              AVSS 0.5F W/R            CCN000001500000001500FN00000000020220901000001500NNE   20220801102355    1W    00000150000000674000000000032DE    TVYEV-TV000000000000VR128041
BI00B32DE    TT209F         2022081818007704180              AVSS 1.25F BR            CCN000004800000004800FN00000000020220901000004800NNE   20220801102355    1W    00000080000001389000000000032DE    TVYEV-TV000000000000VR128042
BI00B32DE    TT209F         2022081818007704190              AVSS 1.25F L             CCN000004800000004800FN00000000020220901000004800NNE   20220801102355    1W    00000080000001389000000000032DE    TVYEV-TV000000000000VR128043
BI00B32DE    TT209F         2022081818007704152              AVSS 1.25F P             CCN000010400000010400FN00000000020220901000010400NNE   20220801102355    1W    00000080000001389000000000032DE    TVYEV-TV000000000000VR128044
BI00B32DE    TT209F         2022081818007704192              AVSS 1.25F V             CCN000005600000005600FN00000000020220901000005600NNE   20220801102355    1W    00000080000001389000000000032DE    TVYEV-TV000000000000VR128045
BI00B32DE    TT209F         2022081818007704140              AVSS 1.25F W             CCN000001600000001600FN00000000020220901000001600NNE   20220801102355    1W    00000080000001389000000000032DE    TVYEV-TV000000000000VR128046
BI00B32DE    TT209F         2022081818007704143              AVSS 1.25F W/B           CCN000000800000000800FN00000000020220901000000800NNE   20220801102355    1W    00000080000001389000000000032DE    TVYEV-TV000000000000VR128047
BI00B32DE    TT209F         20220818180D0203760              AVSSH 0.3F G             CCN000004000000004000FN00000000020220901000004000NNE   20220801102355    1W    00000200000000515000000000032DE    TVYEV-TV000000000000VR128010
BI00B32DE    TT209F         20220818180D0203935              AVSSH 0.5F B/R           CCN000004500000004500FN00000000020220901000004500NNE   20220801102355    1W    00000150000000689000000000032DE    TVYEV-TV000000000000VR128011
BI00B32DE    TT209F         20220818180D0203934              AVSSH 0.5F B/W           CCN000001500000001500FN00000000020220901000001500NNE   20220801102355    1W    00000150000000689000000000032DE    TVYEV-TV000000000000VR128012
BI00B32DE    TT209F         20220818180D0203980              AVSSH 0.5F BR            CCN000001500000001500FN00000000020220901000001500NNE   20220801102355    1W    00000150000000689000000000032DE    TVYEV-TV000000000000VR128013
BI00B32DE    TT209F         20220818180D0203960              AVSSH 0.5F G             CCN000021000000021000FN00000000020220901000021000NNE   20220801102355    1W    00000150000000689000000000032DE    TVYEV-TV000000000000VR128014
BI00B32DE    TT209F         20220818180D0203965              AVSSH 0.5F G/R           CCN000001500000001500FN00000000020220901000001500NNE   20220801102355    1W    00000150000000689000000000032DE    TVYEV-TV000000000000VR128015
BI00B32DE    TT209F         20220818180D0203941              AVSSH 0.5F GY            CCN000036000000036000FN00000000020220901000036000NNE   20220801102355    1W    00000150000000689000000000032DE    TVYEV-TV000000000000VR128016
BI00B32DE    TT209F         20220818180D0203990              AVSSH 0.5F L             CCN000018000000018000FN00000000020220901000018000NNE   20220801102355    1W    00000150000000689000000000032DE    TVYEV-TV000000000000VR128017
BI00B32DE    TT209F         20220818180D0203995              AVSSH 0.5F L/R           CCN000001500000001500FN00000000020220901000001500NNE   20220801102355    1W    00000150000000689000000000032DE    TVYEV-TV000000000000VR128018
BI00B32DE    TT209F         20220818180D0203994              AVSSH 0.5F L/W           CCN000004500000004500FN00000000020220901000004500NNE   20220801102355    1W    00000150000000689000000000032DE    TVYEV-TV000000000000VR128019
BI00B32DE    TT209F         20220818180D0203961              AVSSH 0.5F LG            CCN000009000000009000FN00000000020220901000009000NNE   20220801102355    1W    00000150000000689000000000032DE    TVYEV-TV000000000000VR128020
BI00B32DE    TT209F         20220818180D0203952              AVSSH 0.5F P             CCN000039000000039000FN00000000020220901000039000NNE   20220801102355    1W    00000150000000689000000000032DE    TVYEV-TV000000000000VR128021
BI00B32DE    TT209F         20220818180D0203950              AVSSH 0.5F R             CCN000004500000004500FN00000000020220901000004500NNE   20220801102355    1W    00000150000000689000000000032DE    TVYEV-TV000000000000VR128022
BI00B32DE    TT209F         20220818180D0203959              AVSSH 0.5F R/L           CCN000001500000001500FN00000000020220901000001500NNE   20220801102355    1W    00000150000000689000000000032DE    TVYEV-TV000000000000VR128023
BI00B32DE    TT209F         20220818180D0203957              AVSSH 0.5F R/Y           CCN000001500000001500FN00000000020220901000001500NNE   20220801102355    1W    00000150000000689000000000032DE    TVYEV-TV000000000000VR128024
BI00B32DE    TT209F         20220818180D0203992              AVSSH 0.5F V             CCN000006000000006000FN00000000020220901000006000NNE   20220801102355    1W    00000150000000689000000000032DE    TVYEV-TV000000000000VR128025
BI00B32DE    TT209F         20220818180D0203940              AVSSH 0.5F W             CCN000004500000004500FN00000000020220901000004500NNE   20220801102355    1W    00000150000000689000000000032DE    TVYEV-TV000000000000VR128026
BI00B32DE    TT209F         20220818180D0203946              AVSSH 0.5F W/G           CCN000001500000001500FN00000000020220901000001500NNE   20220801102355    1W    00000150000000689000000000032DE    TVYEV-TV000000000000VR128027
BI00B32DE    TT209F         20220818180D0203970              AVSSH 0.5F Y             CCN000013500000013500FN00000000020220901000013500NNE   20220801102355    1W    00000150000000689000000000032DE    TVYEV-TV000000000000VR128028
BI00B32DE    TT209F         20220818180D0203976              AVSSH 0.5F Y/G           CCN000003000000003000FN00000000020220901000003000NNE   20220801102355    1W    00000150000000689000000000032DE    TVYEV-TV000000000000VR128029
BI00B32DE    TT209F         20220818180D0204080              AVSSH 0.75F BR           CCN000014000000014000FN00000000020220901000014000NNE   20220801102355    1W    00000100000000934000000000032DE    TVYEV-TV000000000000VR128030
BI00B32DE    TT209F         20220818180D0204092              AVSSH 0.75F V            CCN000001000000001000FN00000000020220901000001000NNE   20220801102355    1W    00000100000000934000000000032DE    TVYEV-TV000000000000VR128031
BI00B32DE    TT209F         20220818180D0204192              AVSSH 1.25F V            CCN000009600000009600FN00000000020220901000009600NNE   20220801102355    1W    00000080000001458000000000032DE    TVYEV-TV000000000000VR128032
BI00B32DE    TT209F         20220818180D0204143              AVSSH 1.25F W/B          CCN000002400000002400FN00000000020220901000002400NNE   20220801102355    1W    00000080000001458000000000032DE    TVYEV-TV000000000000VR128033
BI00B32DE    TT209F         20220818180D0204149              AVSSH 1.25F W/L          CCN000001600000001600FN00000000020220901000001600NNE   20220801102355    1W    00000080000001458000000000032DE    TVYEV-TV000000000000VR128034
BI00B32DE    @TT209F        20220818181E50000ZZ              AVSSCS-S 0.5FX1 DGY/BR   CCN000002000000002000FN00000000020220901000002000NNE   20220801102354    1W    00000040000001909700000000032DE    TVYEV-TV000000000000VR128001
BI00B32DE    @TT209F        20220818181E50005ZZ              AVSSCS-S 0.5FX1 DGY/W    CCN000002800000002800FN00000000020220901000002800NNE   20220801102354    1W    00000040000001909700000000032DE    TVYEV-TV000000000000VR128004
BI00B32DE    @TT209F        20220818181E50006ZZ              AVSSCS-S 0.5FX1 DGY/Y    CCN000001200000001200FN00000000020220901000001200NNE   20220801102354    1W    00000040000001909700000000032DE    TVYEV-TV000000000000VR128005
BI00B32DE    @TT209F        20220818181E50007ZZ              AVSSCS-S 0.5FX1 DGY/L    CCN000001200000001200FN00000000020220901000001200NNE   20220801102354    1W    00000040000001909700000000032DE    TVYEV-TV000000000000VR128003
BI00B32DE    @TT209F        20220818181E50013ZZ              AVSSCS-S 0.5FX1 DGY/G    CCN000000400000000400FN00000000020220901000000400NNE   20220801102354    1W    00000040000001909700000000032DE    TVYEV-TV000000000000VR128002
BI00B32DE    @TT209F        20220818181F21003ZZ              AVSSHCS-S 0.5FX1 B/W     CCN000017200000017200FN00000000020220901000017200NNE   20220801102354    1W    00000040000001908400000000032DE    TVYEV-TV000000000000VR128007
BI00B32DE    @TT209F        20220818181F21004ZZ              AVSSHCS-S 0.5FX1 B/R     CCN000000400000000400FN00000000020220901000000400NNE   20220801102354    1W    00000040000001908400000000032DE    TVYEV-TV000000000000VR128006
BI00B32DE    @TT209F        20220818181F21006ZZ              AVSSHCS-S 0.5FX1 B/Y     CCN000000800000000800FN00000000020220901000000800NNE   20220801102354    1W    00000040000001908400000000032DE    TVYEV-TV000000000000VR128008
BI00B32DE    @TT209F        20220818181F21029ZZ              AVSSHCS-S 1.25FX2 B/Y    CCN000000600000000600FN00000000020220901000000600NNE   20220801102354    1W    00000020000004267300000000032DE    TVYEV-TV000000000000VR128009
BI00B32DG    @RH2093B       20220825181E50016ZZ              AVSSCS-S 0.5FX2 DGY/R    CCN000000300000000300FN00000000020220901000000300NNE   20220801141517    1W    00000030000003096000000000032DG    BFSAIBF 000000000000GT228001
BI00B32DG    @RH2093B       20220825181E50011ZZ              AVSSCS-S 0.5FX2 DGY/Y    CCN000004200000004200FN00000000020220901000004200NNE   20220801141517    1W    00000030000003096000000000032DG    BFSAIBF 000000000000GT228002
BI00B32DJ    GHT2210-1      20220901180D0204092              AVSSH 0.75F V            CCN000001000000001000FN00000000020221001000001000NNM   20220801145959    1W    00000100000000934000000000032DJ    RBYIPLRB000000000000XH328007
BI00B32DJ    GHT2210-1      20220901180D0204161              AVSSH 1.25F LG           CCN000000800000000800FN00000000020221001000000800NNM   20220801145959    1W    00000080000001458000000000032DJ    RBYIPLRB000000000000XH328009
BI00B32DJ    GHT2210-1      20220901180D0204060              AVSSH 0.75F G            CCN000001000000001000FN00000000020221001000001000NNM   20220801145959    1W    00000100000000934000000000032DJ    RBYIPLRB000000000000XH328004
BI00B32DJ    GHT2210-1      20220901180D0204030              AVSSH 0.75F B            CCN000003000000003000FN00000000020221001000003000NNM   20220801145959    1W    00000100000000934000000000032DJ    RBYIPLRB000000000000XH328002
BI00B32DJ    GHT2210-2      20220915180D0204030              AVSSH 0.75F B            CCN000001000000001000FN00000000020221001000001000NNM   20220801145959    1W    00000100000000934000000000032DJ    RBYIPLRB000000000000XH528003
BI00B32DJ    GHT2210-2      20220915180D0203790              AVSSH 0.3F L             CCN000002000000002000FN00000000020221001000002000NNM   20220801145959    1W    00000200000000515000000000032DJ    RBYIPLRB000000000000XH528002
BI00B32DJ    GHT2210-1      20220901180D0204061              AVSSH 0.75F LG           CCN000002000000002000FN00000000020221001000002000NNM   20220801145959    1W    00000100000000934000000000032DJ    RBYIPLRB000000000000XH328005
BI00B32DJ    GHT2210-2      20220915180D0204061              AVSSH 0.75F LG           CCN000001000000001000FN00000000020221001000001000NNM   20220801145959    1W    00000100000000934000000000032DJ    RBYIPLRB000000000000XH528005
BI00B32DJ    GHT2210-1      20220901180D0204080              AVSSH 0.75F BR           CCN000006000000006000FN00000000020221001000006000NNM   20220801145959    1W    00000100000000934000000000032DJ    RBYIPLRB000000000000XH328003
BI00B32DJ    GHT2210-2      20220915180D0204080              AVSSH 0.75F BR           CCN000006000000006000FN00000000020221001000006000NNM   20220801145959    1W    00000100000000934000000000032DJ    RBYIPLRB000000000000XH528004
BI00B32DJ    GHT2210-1      20220901180D0204091              AVSSH 0.75F SB           CCN000012000000012000FN00000000020221001000012000NNM   20220801145959    1W    00000100000000934000000000032DJ    RBYIPLRB000000000000XH328006
BI00B32DJ    GHT2210-2      20220915180D0204091              AVSSH 0.75F SB           CCN000010000000010000FN00000000020221001000010000NNM   20220801145959    1W    00000100000000934000000000032DJ    RBYIPLRB000000000000XH528006
BI00B32DJ    GHT2210-1      20220901180D0204070              AVSSH 0.75F Y            CCN000012000000012000FN00000000020221001000012000NNM   20220801145959    1W    00000100000000934000000000032DJ    RBYIPLRB000000000000XH328008
BI00B32DJ    GHT2210-2      20220915180D0204070              AVSSH 0.75F Y            CCN000010000000010000FN00000000020221001000010000NNM   20220801145959    1W    00000100000000934000000000032DJ    RBYIPLRB000000000000XH528007
BI00B32DJ    @GHT2210-1     20220901181AD2017ZZ              CIVUSAS-S 0.22X3 B       CCN000003440000003440FN00000000020221001000003440NNM   20220801145958    1W    00000043000001678200000000032DJ    RBYIPLRB000000000000XH328001
BI00B32DJ    @GHT2210-2     20220915181AD2017ZZ              CIVUSAS-S 0.22X3 B       CCN000007740000007740FN00000000020221001000007740NNM   20220801145958    1W    00000043000001678200000000032DJ    RBYIPLRB000000000000XH528001
BI00B32E1    WC209A         2022081718000004530              AV 8 B                   CCN000000600000000600FN00000000020220901000000600NNE   20220801150530    1W    00000010000010466200000000032E1    SPYSE   000000000000KD128001
BI00B32E1    WC209A         2022081718000004570              AV 8 Y                   CCN000000800000000800FN00000000020220901000000800NNE   20220801150530    1W    00000010000010466200000000032E1    SPYSE   000000000000KD128002
BI00B32GE    DHTW2243       2022090118000004530              AV 8 B                   CCN000059600000059600FN00000000020221001000059600NNE   20220801165220    1W    00000010000010466200000000032GE    GEYKHT  000000000000RA328060
BI00B32GE    DHTW2243       2022090118000004534              AV 8 B/W                 CCN000003700000003700FN00000000020221001000003700NNE   20220801165220    1W    00000010000010466200000000032GE    GEYKHT  000000000000RA328062
BI00B32GE    DHTW2243       2022090118000004535              AV 8 B/R                 CCN000006000000006000FN00000000020221001000006000NNE   20220801165220    1W    00000010000010466200000000032GE    GEYKHT  000000000000RA328061
BI00B32GE    DHTW2243       2022090118000004540              AV 8 W                   CCN000024700000024700FN00000000020221001000024700NNE   20220801165220    1W    00000010000010466200000000032GE    GEYKHT  000000000000RA328065
BI00B32GE    DHTW2243       2022090118000004543              AV 8 W/B                 CCN000015500000015500FN00000000020221001000015500NNE   20220801165220    1W    00000010000010466200000000032GE    GEYKHT  000000000000RA328066
BI00B32GE    DHTW2243       2022090118000004550              AV 8 R                   CCN000000500000000500FN00000000020221001000000500NNE   20220801165220    1W    00000010000010466200000000032GE    GEYKHT  000000000000RA328064
BI00B32GE    DHTW2243       2022090118000004590              AV 8 L                   CCN000017700000017700FN00000000020221001000017700NNE   20220801165220    1W    00000010000010466200000000032GE    GEYKHT  000000000000RA328063
BI00B32GE    @DHTW2243      20220901181AD2002ZZ              CIVUSAS-S 0.35X2 B       CCN000027000000027000FN00000000020221001000027000NNE   20220801165219    1W    00000045000001713700000000032GE    GEYKHT  000000000000RA328033
BI00B32GE    @DHTW2243      20220901181AD2003ZZ              CIVUSAS-S 0.35X3 B       CCN000013500000013650FN00000000020221001000013650NNE   20220801165219    1W    00000035000002172100000000032GE    GEYKHT  000000000000RA328034
BI00B32GE    @DHTW2243      20220901181AD2004ZZ              CIVUSAS-S 0.35X4 B       CCN000024800000024900FN00000000020221001000024900NNE   20220801165219    1W    00000030000002799900000000032GE    GEYKHT  000000000000RA328035
BI00B32GE    @DHTW2243      20220901181E48037ZZ              CAVSAS-S 0.3X4 GY        CCN000006250000006250FN00000000020221001000006250NNE   20220801165219    1W    00000025000003262000000000032GE    GEYKHT  000000000000RA328036
BI00B32GE    @DHTW2243      20220901181E50002ZZ              AVSSCS-S 0.3FX2 DGY/G    CCN000008050000008050FN00000000020221001000008050NNE   20220801165219    1W    00000035000002165000000000032GE    GEYKHT  000000000000RA328043
BI00B32GE    @DHTW2243      20220901181E50004ZZ              AVSSCS-S 0.5FX1 DGY      CCN000017600000017600FN00000000020221001000017600NNE   20220801165219    1W    00000040000001909700000000032GE    GEYKHT  000000000000RA328037
BI00B32GE    @DHTW2243      20220901181E50005ZZ              AVSSCS-S 0.5FX1 DGY/W    CCN000013200000013200FN00000000020221001000013200NNE   20220801165219    1W    00000040000001909700000000032GE    GEYKHT  000000000000RA328039
BI00B32GE    @DHTW2243      20220901181E50006ZZ              AVSSCS-S 0.5FX1 DGY/Y    CCN000001600000001600FN00000000020221001000001600NNE   20220801165219    1W    00000040000001909700000000032GE    GEYKHT  000000000000RA328040
BI00B32GE    @DHTW2243      20220901181E50007ZZ              AVSSCS-S 0.5FX1 DGY/L    CCN000007200000007200FN00000000020221001000007200NNE   20220801165219    1W    00000040000001909700000000032GE    GEYKHT  000000000000RA328038
BI00B32GE    @DHTW2243      20220901181E50016ZZ              AVSSCS-S 0.5FX2 DGY/R    CCN000005100000005100FN00000000020221001000005100NNE   20220801165219    1W    00000030000003096000000000032GE    GEYKHT  000000000000RA328041
BI00B32GE    @DHTW2243      20220901181E50020ZZ              AVSSCS-S 0.3FX2 DGY/R    CCN000004550000004550FN00000000020221001000004550NNE   20220801165219    1W    00000035000002165000000000032GE    GEYKHT  000000000000RA328045
BI00B32GE    @DHTW2243      20220901181E50021ZZ              AVSSCS-S 0.3FX2 DGY/P    CCN000005950000005950FN00000000020221001000005950NNE   20220801165219    1W    00000035000002165000000000032GE    GEYKHT  000000000000RA328044
BI00B32GE    @DHTW2243      20220901181E50036ZZ              AVSSCS-S 0.3FX2 DGY      CCN000010500000010500FN00000000020221001000010500NNE   20220801165219    1W    00000035000002165000000000032GE    GEYKHT  000000000000RA328042
BI00B32GE    @DHTW2243      20220901181F21014ZZ              AVSSHCS-S 0.5FX2 B/L     CCN000006000000006000FN00000000020221001000006000NNE   20220801165219    1W    00000030000002531400000000032GE    GEYKHT  000000000000RA328046
BI00B32H2    @TAW209K       20220902181AD2024ZZ              CIVUSAS-S 0.13X3 B       CCN000000500000000500FN00000000020220901000000500NNE   20220801141445    1W    00000050000001297300000000032H2    HVYHV   000000000000UE328001
BI00B32H8    22082KMW       2022080518007704154              AVSS 1.25F R/W           CCN000000800000000800FN00000000020220801000000800NNM30 20220801092430    1W    00000080000001389000000000032H8    TYTYC   000000000000LK426043
BI00B32J1    @396862        20220822181AD2002ZZ              CIVUSAS-S 0.35X2 B       CCN000031500000031500FN00000000020220801000031500NNE   20220801141605    1W    00000045000001713700000000032J1    UKYEL-BL000000000000KG228002
BI00B32J1    @396862        20220822181AD2003ZZ              CIVUSAS-S 0.35X3 B       CCN000024850000024850FN00000000020220801000024850NNE   20220801141605    1W    00000035000002172100000000032J1    UKYEL-BL000000000000KG228003
BI00B32J1    @396862        20220822181AD2004ZZ              CIVUSAS-S 0.35X4 B       CCN000000900000000900FN00000000020220801000000900NNE   20220801141605    1W    00000030000002799900000000032J1    UKYEL-BL000000000000KG228004
BI00B32J1    @396862        20220822181AD2009ZZ              CIVUSAS-S 0.5X3 B        CCN000005100000005100FN00000000020220801000005100NNE   20220801141605    1W    00000030000002716800000000032J1    UKYEL-BL000000000000KG228001
BI00B32N3    NBT210 B       20220818180D0203752              AVSSH 0.3F P             CCN000002000000002000FN00000000020220801000002000NNE   20220801154808    1W    00000200000000515000000000032N3    ABYIPL-B000000000000XC128004
BI00B32N3    NBT210 B       20220818180D0203761              AVSSH 0.3F LG            CCN000024000000024000FN00000000020220801000024000NNE   20220801154808    1W    00000200000000515000000000032N3    ABYIPL-B000000000000XC128003
BI00B32N3    NBT210 B       20220818180D0203790              AVSSH 0.3F L             CCN000004000000004000FN00000000020220801000004000NNE   20220801154808    1W    00000200000000515000000000032N3    ABYIPL-B000000000000XC128002
BI00B32N3    NBT210 B       20220818180D0203930              AVSSH 0.5F B             CCN000003000000003000FN00000000020220801000003000NNE   20220801154808    1W    00000150000000689000000000032N3    ABYIPL-B000000000000XC128005
BI00B32N3    NBT210 B       20220818180D0203940              AVSSH 0.5F W             CCN000003000000003000FN00000000020220801000003000NNE   20220801154808    1W    00000150000000689000000000032N3    ABYIPL-B000000000000XC128009
BI00B32N3    NBT210 B       20220818180D0203953              AVSSH 0.5F R/B           CCN000001500000001500FN00000000020220801000001500NNE   20220801154808    1W    00000150000000689000000000032N3    ABYIPL-B000000000000XC128008
BI00B32N3    NBT210 B       20220818180D0203960              AVSSH 0.5F G             CCN000001500000001500FN00000000020220801000001500NNE   20220801154808    1W    00000150000000689000000000032N3    ABYIPL-B000000000000XC128006
BI00B32N3    NBT210 B       20220818180D0203961              AVSSH 0.5F LG            CCN000004500000004500FN00000000020220801000004500NNE   20220801154808    1W    00000150000000689000000000032N3    ABYIPL-B000000000000XC128007
BI00B32N3    NBT210 1       2022090818007703730              AVSS 0.3F B              CCN000008000000008000FN00000000020221001000008000NNM   20220801154845    1W    00000200000000496000000000032N3    ABYIPL-B000000000000XB428036
BI00B32N3    NBT210 2       2022091518007703730              AVSS 0.3F B              CCN000036000000036000FN00000000020221001000036000NNM   20220801154845    1W    00000200000000496000000000032N3    ABYIPL-B000000000000XB528024
BI00B32N3    NBT210 3       2022092218007703730              AVSS 0.3F B              CCN000042000000042000FN00000000020221001000042000NNM   20220801154845    1W    00000200000000496000000000032N3    ABYIPL-B000000000000XB129024
BI00B32N3    NBT210 4       2022092918007703730              AVSS 0.3F B              CCN000036000000036000FN00000000020221001000036000NNM   20220801154845    1W    00000200000000496000000000032N3    ABYIPL-B000000000000XB229020
BI00B32N3    NBT210 2       2022091518007703750              AVSS 0.3F R              CCN000012000000012000FN00000000020221001000012000NNM   20220801154845    1W    00000200000000496000000000032N3    ABYIPL-B000000000000XB528025
BI00B32N3    NBT210 3       2022092218007703750              AVSS 0.3F R              CCN000018000000018000FN00000000020221001000018000NNM   20220801154845    1W    00000200000000496000000000032N3    ABYIPL-B000000000000XB129025
BI00B32N3    NBT210 4       2022092918007703750              AVSS 0.3F R              CCN000016000000016000FN00000000020221001000016000NNM   20220801154845    1W    00000200000000496000000000032N3    ABYIPL-B000000000000XB229022
BI00B32N3    NBT210 4       2022092918007703760              AVSS 0.3F G              CCN000002000000002000FN00000000020221001000002000NNM   20220801154845    1W    00000200000000496000000000032N3    ABYIPL-B000000000000XB229021
BI00B32N3    NBT210 2       2022091518007703770              AVSS 0.3F Y              CCN000014000000014000FN00000000020221001000014000NNM   20220801154845    1W    00000200000000496000000000032N3    ABYIPL-B000000000000XB528026
BI00B32N3    NBT210 3       2022092218007703770              AVSS 0.3F Y              CCN000020000000020000FN00000000020221001000020000NNM   20220801154845    1W    00000200000000496000000000032N3    ABYIPL-B000000000000XB129026
BI00B32N3    NBT210 4       2022092918007703770              AVSS 0.3F Y              CCN000018000000018000FN00000000020221001000018000NNM   20220801154845    1W    00000200000000496000000000032N3    ABYIPL-B000000000000XB229023
BI00B32N3    NBT210 2       2022091518007704130              AVSS 1.25F B             CCN000005600000005600FN00000000020221001000005600NNM   20220801154845    1W    00000080000001389000000000032N3    ABYIPL-B000000000000XB528027
BI00B32N3    NBT210 3       2022092218007704130              AVSS 1.25F B             CCN000002400000002400FN00000000020221001000002400NNM   20220801154845    1W    00000080000001389000000000032N3    ABYIPL-B000000000000XB129027
BI00B32N3    NBT210 4       2022092918007704130              AVSS 1.25F B             CCN000001600000001600FN00000000020221001000001600NNM   20220801154845    1W    00000080000001389000000000032N3    ABYIPL-B000000000000XB229024
BI00B32N3    NBT210 1       2022090818007704140              AVSS 1.25F W             CCN000002400000002400FN00000000020221001000002400NNM   20220801154845    1W    00000080000001389000000000032N3    ABYIPL-B000000000000XB428038
BI00B32N3    NBT210 2       2022091518007704140              AVSS 1.25F W             CCN000003200000003200FN00000000020221001000003200NNM   20220801154845    1W    00000080000001389000000000032N3    ABYIPL-B000000000000XB528030
BI00B32N3    NBT210 3       2022092218007704140              AVSS 1.25F W             CCN000002400000002400FN00000000020221001000002400NNM   20220801154845    1W    00000080000001389000000000032N3    ABYIPL-B000000000000XB129030
BI00B32N3    NBT210 4       2022092918007704140              AVSS 1.25F W             CCN000002400000002400FN00000000020221001000002400NNM   20220801154845    1W    00000080000001389000000000032N3    ABYIPL-B000000000000XB229027
BI00B32N3    NBT210 1       2022090818007704143              AVSS 1.25F W/B           CCN000002400000002400FN00000000020221001000002400NNM   20220801154845    1W    00000080000001389000000000032N3    ABYIPL-B000000000000XB428039
BI00B32N3    NBT210 2       2022091518007704143              AVSS 1.25F W/B           CCN000002400000002400FN00000000020221001000002400NNM   20220801154845    1W    00000080000001389000000000032N3    ABYIPL-B000000000000XB528031
BI00B32N3    NBT210 3       2022092218007704143              AVSS 1.25F W/B           CCN000001600000001600FN00000000020221001000001600NNM   20220801154845    1W    00000080000001389000000000032N3    ABYIPL-B000000000000XB129031
BI00B32N3    NBT210 4       2022092918007704143              AVSS 1.25F W/B           CCN000001600000001600FN00000000020221001000001600NNM   20220801154845    1W    00000080000001389000000000032N3    ABYIPL-B000000000000XB229028
BI00B32N3    NBT210 2       2022091518007704160              AVSS 1.25F G             CCN000001600000001600FN00000000020221001000001600NNM   20220801154845    1W    00000080000001389000000000032N3    ABYIPL-B000000000000XB528028
BI00B32N3    NBT210 3       2022092218007704160              AVSS 1.25F G             CCN000001600000001600FN00000000020221001000001600NNM   20220801154845    1W    00000080000001389000000000032N3    ABYIPL-B000000000000XB129028
BI00B32N3    NBT210 4       2022092918007704160              AVSS 1.25F G             CCN000000800000000800FN00000000020221001000000800NNM   20220801154845    1W    00000080000001389000000000032N3    ABYIPL-B000000000000XB229025
BI00B32N3    NBT210 1       2022090818007704190              AVSS 1.25F L             CCN000002400000002400FN00000000020221001000002400NNM   20220801154845    1W    00000080000001389000000000032N3    ABYIPL-B000000000000XB428037
BI00B32N3    NBT210 2       2022091518007704190              AVSS 1.25F L             CCN000000800000000800FN00000000020221001000000800NNM   20220801154845    1W    00000080000001389000000000032N3    ABYIPL-B000000000000XB528029
BI00B32N3    NBT210 3       2022092218007704190              AVSS 1.25F L             CCN000000800000000800FN00000000020221001000000800NNM   20220801154845    1W    00000080000001389000000000032N3    ABYIPL-B000000000000XB129029
BI00B32N3    NBT210 4       2022092918007704190              AVSS 1.25F L             CCN000001600000001600FN00000000020221001000001600NNM   20220801154845    1W    00000080000001389000000000032N3    ABYIPL-B000000000000XB229026
BI00B32N3    NBT210 1       20220908180D0203740              AVSSH 0.3F W             CCN000004000000004000FN00000000020221001000004000NNM   20220801154845    1W    00000200000000515000000000032N3    ABYIPL-B000000000000XB428025
BI00B32N3    NBT210 2       20220915180D0203740              AVSSH 0.3F W             CCN000002000000002000FN00000000020221001000002000NNM   20220801154845    1W    00000200000000515000000000032N3    ABYIPL-B000000000000XB528012
BI00B32N3    NBT210 3       20220922180D0203740              AVSSH 0.3F W             CCN000004000000004000FN00000000020221001000004000NNM   20220801154845    1W    00000200000000515000000000032N3    ABYIPL-B000000000000XB129012
BI00B32N3    NBT210 4       20220929180D0203740              AVSSH 0.3F W             CCN000002000000002000FN00000000020221001000002000NNM   20220801154845    1W    00000200000000515000000000032N3    ABYIPL-B000000000000XB229011
BI00B32N3    NBT210 1       20220908180D0203752              AVSSH 0.3F P             CCN000004000000004000FN00000000020221001000004000NNM   20220801154845    1W    00000200000000515000000000032N3    ABYIPL-B000000000000XB428024
BI00B32N3    NBT210 2       20220915180D0203752              AVSSH 0.3F P             CCN000002000000002000FN00000000020221001000002000NNM   20220801154845    1W    00000200000000515000000000032N3    ABYIPL-B000000000000XB528011
BI00B32N3    NBT210 3       20220922180D0203752              AVSSH 0.3F P             CCN000004000000004000FN00000000020221001000004000NNM   20220801154845    1W    00000200000000515000000000032N3    ABYIPL-B000000000000XB129011
BI00B32N3    NBT210 4       20220929180D0203752              AVSSH 0.3F P             CCN000002000000002000FN00000000020221001000002000NNM   20220801154845    1W    00000200000000515000000000032N3    ABYIPL-B000000000000XB229010
BI00B32N3    NBT210 1       20220908180D0203761              AVSSH 0.3F LG            CCN000032000000032000FN00000000020221001000032000NNM   20220801154845    1W    00000200000000515000000000032N3    ABYIPL-B000000000000XB428023
BI00B32N3    NBT210 2       20220915180D0203761              AVSSH 0.3F LG            CCN000014000000014000FN00000000020221001000014000NNM   20220801154845    1W    00000200000000515000000000032N3    ABYIPL-B000000000000XB528010
BI00B32N3    NBT210 3       20220922180D0203761              AVSSH 0.3F LG            CCN000024000000024000FN00000000020221001000024000NNM   20220801154845    1W    00000200000000515000000000032N3    ABYIPL-B000000000000XB129010
BI00B32N3    NBT210 4       20220929180D0203761              AVSSH 0.3F LG            CCN000014000000014000FN00000000020221001000014000NNM   20220801154845    1W    00000200000000515000000000032N3    ABYIPL-B000000000000XB229009
BI00B32N3    NBT210 1       20220908180D0203790              AVSSH 0.3F L             CCN000008000000008000FN00000000020221001000008000NNM   20220801154845    1W    00000200000000515000000000032N3    ABYIPL-B000000000000XB428022
BI00B32N3    NBT210 2       20220915180D0203790              AVSSH 0.3F L             CCN000004000000004000FN00000000020221001000004000NNM   20220801154845    1W    00000200000000515000000000032N3    ABYIPL-B000000000000XB528009
BI00B32N3    NBT210 3       20220922180D0203790              AVSSH 0.3F L             CCN000006000000006000FN00000000020221001000006000NNM   20220801154845    1W    00000200000000515000000000032N3    ABYIPL-B000000000000XB129009
BI00B32N3    NBT210 4       20220929180D0203790              AVSSH 0.3F L             CCN000004000000004000FN00000000020221001000004000NNM   20220801154845    1W    00000200000000515000000000032N3    ABYIPL-B000000000000XB229008
BI00B32N3    NBT210 1       20220908180D0203930              AVSSH 0.5F B             CCN000019500000019500FN00000000020221001000019500NNM   20220801154845    1W    00000150000000689000000000032N3    ABYIPL-B000000000000XB428026
BI00B32N3    NBT210 2       20220915180D0203930              AVSSH 0.5F B             CCN000009000000009000FN00000000020221001000009000NNM   20220801154845    1W    00000150000000689000000000032N3    ABYIPL-B000000000000XB528013
BI00B32N3    NBT210 3       20220922180D0203930              AVSSH 0.5F B             CCN000015000000015000FN00000000020221001000015000NNM   20220801154845    1W    00000150000000689000000000032N3    ABYIPL-B000000000000XB129013
BI00B32N3    NBT210 4       20220929180D0203930              AVSSH 0.5F B             CCN000007500000007500FN00000000020221001000007500NNM   20220801154845    1W    00000150000000689000000000032N3    ABYIPL-B000000000000XB229012
BI00B32N3    NBT210 1       20220908180D0203940              AVSSH 0.5F W             CCN000009000000009000FN00000000020221001000009000NNM   20220801154845    1W    00000150000000689000000000032N3    ABYIPL-B000000000000XB428032
BI00B32N3    NBT210 2       20220915180D0203940              AVSSH 0.5F W             CCN000004500000004500FN00000000020221001000004500NNM   20220801154845    1W    00000150000000689000000000032N3    ABYIPL-B000000000000XB528020
BI00B32N3    NBT210 3       20220922180D0203940              AVSSH 0.5F W             CCN000006000000006000FN00000000020221001000006000NNM   20220801154845    1W    00000150000000689000000000032N3    ABYIPL-B000000000000XB129020
BI00B32N3    NBT210 4       20220929180D0203940              AVSSH 0.5F W             CCN000004500000004500FN00000000020221001000004500NNM   20220801154845    1W    00000150000000689000000000032N3    ABYIPL-B000000000000XB229017
BI00B32N3    NBT210 1       20220908180D0203943              AVSSH 0.5F W/B           CCN000006000000006000FN00000000020221001000006000NNM   20220801154845    1W    00000150000000689000000000032N3    ABYIPL-B000000000000XB428033
BI00B32N3    NBT210 2       20220915180D0203943              AVSSH 0.5F W/B           CCN000001500000001500FN00000000020221001000001500NNM   20220801154845    1W    00000150000000689000000000032N3    ABYIPL-B000000000000XB528021
BI00B32N3    NBT210 3       20220922180D0203943              AVSSH 0.5F W/B           CCN000003000000003000FN00000000020221001000003000NNM   20220801154845    1W    00000150000000689000000000032N3    ABYIPL-B000000000000XB129021
BI00B32N3    NBT210 4       20220929180D0203943              AVSSH 0.5F W/B           CCN000001500000001500FN00000000020221001000001500NNM   20220801154845    1W    00000150000000689000000000032N3    ABYIPL-B000000000000XB229018
BI00B32N3    NBT210 2       20220915180D0203950              AVSSH 0.5F R             CCN000006000000006000FN00000000020221001000006000NNM   20220801154845    1W    00000150000000689000000000032N3    ABYIPL-B000000000000XB528018
BI00B32N3    NBT210 3       20220922180D0203950              AVSSH 0.5F R             CCN000001500000001500FN00000000020221001000001500NNM   20220801154845    1W    00000150000000689000000000032N3    ABYIPL-B000000000000XB129018
BI00B32N3    NBT210 1       20220908180D0203952              AVSSH 0.5F P             CCN000003000000003000FN00000000020221001000003000NNM   20220801154845    1W    00000150000000689000000000032N3    ABYIPL-B000000000000XB428030
BI00B32N3    NBT210 2       20220915180D0203952              AVSSH 0.5F P             CCN000001500000001500FN00000000020221001000001500NNM   20220801154845    1W    00000150000000689000000000032N3    ABYIPL-B000000000000XB528017
BI00B32N3    NBT210 3       20220922180D0203952              AVSSH 0.5F P             CCN000003000000003000FN00000000020221001000003000NNM   20220801154845    1W    00000150000000689000000000032N3    ABYIPL-B000000000000XB129017
BI00B32N3    NBT210 4       20220929180D0203952              AVSSH 0.5F P             CCN000001500000001500FN00000000020221001000001500NNM   20220801154845    1W    00000150000000689000000000032N3    ABYIPL-B000000000000XB229015
BI00B32N3    NBT210 1       20220908180D0203960              AVSSH 0.5F G             CCN000012000000012000FN00000000020221001000012000NNM   20220801154845    1W    00000150000000689000000000032N3    ABYIPL-B000000000000XB428028
BI00B32N3    NBT210 2       20220915180D0203960              AVSSH 0.5F G             CCN000006000000006000FN00000000020221001000006000NNM   20220801154845    1W    00000150000000689000000000032N3    ABYIPL-B000000000000XB528015
BI00B32N3    NBT210 3       20220922180D0203960              AVSSH 0.5F G             CCN000009000000009000FN00000000020221001000009000NNM   20220801154845    1W    00000150000000689000000000032N3    ABYIPL-B000000000000XB129015
BI00B32N3    NBT210 4       20220929180D0203960              AVSSH 0.5F G             CCN000004500000004500FN00000000020221001000004500NNM   20220801154845    1W    00000150000000689000000000032N3    ABYIPL-B000000000000XB229014
BI00B32N3    NBT210 1       20220908180D0203961              AVSSH 0.5F LG            CCN000001500000001500FN00000000020221001000001500NNM   20220801154845    1W    00000150000000689000000000032N3    ABYIPL-B000000000000XB428029
BI00B32N3    NBT210 2       20220915180D0203961              AVSSH 0.5F LG            CCN000001500000001500FN00000000020221001000001500NNM   20220801154845    1W    00000150000000689000000000032N3    ABYIPL-B000000000000XB528016
BI00B32N3    NBT210 3       20220922180D0203961              AVSSH 0.5F LG            CCN000001500000001500FN00000000020221001000001500NNM   20220801154845    1W    00000150000000689000000000032N3    ABYIPL-B000000000000XB129016
BI00B32N3    NBT210 1       20220908180D0203980              AVSSH 0.5F BR            CCN000001500000001500FN00000000020221001000001500NNM   20220801154845    1W    00000150000000689000000000032N3    ABYIPL-B000000000000XB428027
BI00B32N3    NBT210 2       20220915180D0203980              AVSSH 0.5F BR            CCN000001500000001500FN00000000020221001000001500NNM   20220801154845    1W    00000150000000689000000000032N3    ABYIPL-B000000000000XB528014
BI00B32N3    NBT210 3       20220922180D0203980              AVSSH 0.5F BR            CCN000001500000001500FN00000000020221001000001500NNM   20220801154845    1W    00000150000000689000000000032N3    ABYIPL-B000000000000XB129014
BI00B32N3    NBT210 4       20220929180D0203980              AVSSH 0.5F BR            CCN000001500000001500FN00000000020221001000001500NNM   20220801154845    1W    00000150000000689000000000032N3    ABYIPL-B000000000000XB229013
BI00B32N3    NBT210 1       20220908180D0203992              AVSSH 0.5F V             CCN000024000000024000FN00000000020221001000024000NNM   20220801154845    1W    00000150000000689000000000032N3    ABYIPL-B000000000000XB428031
BI00B32N3    NBT210 2       20220915180D0203992              AVSSH 0.5F V             CCN000013500000013500FN00000000020221001000013500NNM   20220801154845    1W    00000150000000689000000000032N3    ABYIPL-B000000000000XB528019
BI00B32N3    NBT210 3       20220922180D0203992              AVSSH 0.5F V             CCN000009000000009000FN00000000020221001000009000NNM   20220801154845    1W    00000150000000689000000000032N3    ABYIPL-B000000000000XB129019
BI00B32N3    NBT210 4       20220929180D0203992              AVSSH 0.5F V             CCN000007500000007500FN00000000020221001000007500NNM   20220801154845    1W    00000150000000689000000000032N3    ABYIPL-B000000000000XB229016
BI00B32N3    NBT210 1       20220908180D0204160              AVSSH 1.25F G            CCN000003200000003200FN00000000020221001000003200NNM   20220801154845    1W    00000080000001458000000000032N3    ABYIPL-B000000000000XB428034
BI00B32N3    NBT210 2       20220915180D0204160              AVSSH 1.25F G            CCN000002400000002400FN00000000020221001000002400NNM   20220801154845    1W    00000080000001458000000000032N3    ABYIPL-B000000000000XB528022
BI00B32N3    NBT210 3       20220922180D0204160              AVSSH 1.25F G            CCN000002400000002400FN00000000020221001000002400NNM   20220801154845    1W    00000080000001458000000000032N3    ABYIPL-B000000000000XB129022
BI00B32N3    NBT210 1       20220908180D0204190              AVSSH 1.25F L            CCN000019200000019200FN00000000020221001000019200NNM   20220801154845    1W    00000080000001458000000000032N3    ABYIPL-B000000000000XB428035
BI00B32N3    NBT210 2       20220915180D0204190              AVSSH 1.25F L            CCN000009600000009600FN00000000020221001000009600NNM   20220801154845    1W    00000080000001458000000000032N3    ABYIPL-B000000000000XB528023
BI00B32N3    NBT210 3       20220922180D0204190              AVSSH 1.25F L            CCN000003200000003200FN00000000020221001000003200NNM   20220801154845    1W    00000080000001458000000000032N3    ABYIPL-B000000000000XB129023
BI00B32N3    NBT210 4       20220929180D0204190              AVSSH 1.25F L            CCN000004000000004000FN00000000020221001000004000NNM   20220801154845    1W    00000080000001458000000000032N3    ABYIPL-B000000000000XB229019
BI00B32N3    @NBT210 1      20220908181B0911941              CAVSAS 0.3X4 GY          CCN000002250000002250FN00000000020221001000002250NNM   20220801154843    1W    00000025000003262300000000032N3    ABYIPL-B000000000000XB428008
BI00B32N3    @NBT210 2      20220915181B0911941              CAVSAS 0.3X4 GY          CCN000001750000001750FN00000000020221001000001750NNM   20220801154843    1W    00000025000003262300000000032N3    ABYIPL-B000000000000XB528006
BI00B32N3    @NBT210 3      20220922181B0911941              CAVSAS 0.3X4 GY          CCN000001500000001500FN00000000020221001000001500NNM   20220801154843    1W    00000025000003262300000000032N3    ABYIPL-B000000000000XB129004
BI00B32N3    @NBT210 4      20220929181B0911941              CAVSAS 0.3X4 GY          CCN000001250000001250FN00000000020221001000001250NNM   20220801154843    1W    00000025000003262300000000032N3    ABYIPL-B000000000000XB229003
BI00B32N3    @NBT210 1      20220908181B32103S1              AVSSCS 0.5FX3 DGY        CCN000004500000004500FN00000000020221001000004500NNM   20220801154843    1W    00000025000003585500000000032N3    ABYIPL-B000000000000XB428009
BI00B32N3    @NBT210 2      20220915181B32103S1              AVSSCS 0.5FX3 DGY        CCN000001500000001500FN00000000020221001000001500NNM   20220801154843    1W    00000025000003585500000000032N3    ABYIPL-B000000000000XB528007
BI00B32N3    @NBT210 3      20220922181B32103S1              AVSSCS 0.5FX3 DGY        CCN000001500000001500FN00000000020221001000001500NNM   20220801154843    1W    00000025000003585500000000032N3    ABYIPL-B000000000000XB129005
BI00B32N3    @NBT210 4      20220929181B32103S1              AVSSCS 0.5FX3 DGY        CCN000001750000001750FN00000000020221001000001750NNM   20220801154843    1W    00000025000003585500000000032N3    ABYIPL-B000000000000XB229004
BI00A32P8    TAPAW-206J     2022080218000004554              AV 8 R/W                 CCN000000300000000300FN00000000020220701000000300NNE   20220801110533    1W    00000010000010466200000000032P8    YIYTM   000000000000YJ327001
BI00B32U5    @DW2036A       20220826181AD2013ZZ              CIVUSAS-S 1.25X2 B       CCN000001550000001760FN00000000020221001000001760NNE   20220801141831U5  1W    00000022000003840000000000032U5    ASAMSD  000000000000AJ228001
BI00B32U5    @DW2037A       20220826181AD2013ZZ              CIVUSAS-S 1.25X2 B       CCN000003100000003300FN00000000020221001000003300NNE   20220801141832U5  1W    00000022000003840000000000032U5    ASAMSD  000000000000AK228001
BI00B32U5    @DW2037A       20220826181E48011ZZ              CAVSAS-S 0.3X1 GY/W      CCN000003500000003500FN00000000020221001000003500NNE   20220801141832U5  1W    00000050000001529500000000032U5    ASAMSD  000000000000AK228002
BI00B32U5    @DW2038A       20220826181AD2013ZZ              CIVUSAS-S 1.25X2 B       CCN000003100000003300FN00000000020221101000003300NNE   20220801141834U5  1W    00000022000003840000000000032U5    ASAMSD  000000000000AQ228001
BI00B32U5    @DW2038A       20220826181E48011ZZ              CAVSAS-S 0.3X1 GY/W      CCN000001500000001500FN00000000020221101000001500NNE   20220801141834U5  1W    00000050000001529500000000032U5    ASAMSD  000000000000AQ228002
BI00B32U5    @DW2039A       20220826181AD2013ZZ              CIVUSAS-S 1.25X2 B       CCN000003100000003300FN00000000020221101000003300NNE   20220801141835U5  1W    00000022000003840000000000032U5    ASAMSD  000000000000AU228001
BI00B32U5    @DW2039A       20220826181E48011ZZ              CAVSAS-S 0.3X1 GY/W      CCN000001500000001500FN00000000020221101000001500NNE   20220801141835U5  1W    00000050000001529500000000032U5    ASAMSD  000000000000AU228002
BI00B32U5    @DW2040A       20220902181AD2013ZZ              CIVUSAS-S 1.25X2 B       CCN000003100000003300FN00000000020221101000003300NNE   20220801142221U5  1W    00000022000003840000000000032U5    ASAMSD  000000000000AN328001
BI00B32U5    @DW2040A       20220902181E48011ZZ              CAVSAS-S 0.3X1 GY/W      CCN000001500000001500FN00000000020221101000001500NNE   20220801142221U5  1W    00000050000001529500000000032U5    ASAMSD  000000000000AN328002
BI00B32U5    @DW2041A       20220909181E48011ZZ              CAVSAS-S 0.3X1 GY/W      CCN000001500000001500FN00000000020221101000001500NNE   20220801160923U5  1W    00000050000001529500000000032U5    ASAMSD  000000000000AO428001
BI00B32U5    @DW2041A       20220909181F21027ZZ              AVSSHCS-S 1.25FX2 B      CCN000004400000004400FN00000000020221101000004400NNE   20220801160923U5  1W    00000020000004267300000000032U5    ASAMSD  000000000000AO428002
BI00B32U5    @DW2041        20220909181AD2013ZZ              CIVUSAS-S 1.25X2 B       CCN000004650000004840FN00000000020221101000004840NNM   20220801142259U5  1W    00000022000003840000000000032U5    ASAMSD  000000000000AM428005
BI00B32U5    @DW2041        20220909181AD2016ZZ              CIVUSAS-S 0.22X2 B       CCN000003000000003000FN00000000020221101000003000NNM   20220801142259U5  1W    00000050000001360800000000032U5    ASAMSD  000000000000AM428003
BI00B32U5    @DW2041        20220909181AD2017ZZ              CIVUSAS-S 0.22X3 B       CCN000001720000001720FN00000000020221101000001720NNM   20220801142259U5  1W    00000043000001678200000000032U5    ASAMSD  000000000000AM428004
BI00B32U5    @DW2042        20220916181AD2013ZZ              CIVUSAS-S 1.25X2 B       CCN000003100000003300FN00000000020221201000003300NNE   20220801160924U5  1W    00000022000003840000000000032U5    ASAMSD  000000000000AM528001
BI00B32U5    @DW2042        20220916181E48011ZZ              CAVSAS-S 0.3X1 GY/W      CCN000001500000001500FN00000000020221201000001500NNE   20220801160924U5  1W    00000050000001529500000000032U5    ASAMSD  000000000000AM528002
BI00B32W2    HN2209BWMW     2022082318000004560              AV 8 G                   CCN000008000000008000FN00000000020220901000008000NNE   20220801141108    1W    00000010000010466200000000032W2    HNHNY   000000000000HB228006
BI00B32W2    HN2209BWMW     2022082318000004540              AV 8 W                   CCN000000600000000600FN00000000020220901000000600NNE   20220801141108    1W    00000010000010466200000000032W2    HNHNY   000000000000HB228007
BI00B32W2    @HN2209BWMW    20220823181B32116Z5              AVSSCS 0.3FX2 DGY/L      CCN000002800000002800FN00000000020220901000002800NNE   20220801141107    1W    00000035000002276000000000032W2    HNHNY   000000000000HB228005
BI00B32W2    HN2209CWMW     2022082318000004550              AV 8 R                   CCN000002600000002600FN00000000020220901000002600NNE   20220801141108    1W    00000010000010466200000000032W2    HNHNY   000000000000HC228002
BI00B32AF    TTB2104        2022093018007704150              AVSS 1.25F R             CCN000007200000007200FN00000000020221001000007200NNM   20220801162128    1W    00000080000001389000000000032AF    HBYHVTB 000000000000UZ229028
BI00B32AF    TTB2105        2022100718007704150              AVSS 1.25F R             CCN000007200000007200FN00000000020221001000007200NNM   20220801162128    1W    00000080000001389000000000032AF    HBYHVTB 000000000000UZ329028
BI00B32AF    TTB2104        2022093018007704140              AVSS 1.25F W             CCN000007200000007200FN00000000020221001000007200NNM   20220801162128    1W    00000080000001389000000000032AF    HBYHVTB 000000000000UZ229029
BI00B32AF    TTB2105        2022100718007704140              AVSS 1.25F W             CCN000007200000007200FN00000000020221001000007200NNM   20220801162128    1W    00000080000001389000000000032AF    HBYHVTB 000000000000UZ329029
BI00B32AF    @TTB2103       20220923181B0911741              CAVSAS 0.3X3 GY          CCN000008000000008000FN00000000020221001000008000NNM   20220801162127    1W    00000025000002843000000000032AF    HBYHVTB 000000000000UZ129024
BI00B32AF    @TTB2104       20220930181B0911741              CAVSAS 0.3X3 GY          CCN000012000000012000FN00000000020221001000012000NNM   20220801162127    1W    00000025000002843000000000032AF    HBYHVTB 000000000000UZ229026
BI00B32AF    @TTB2105       20221007181B0911741              CAVSAS 0.3X3 GY          CCN000012000000012000FN00000000020221001000012000NNM   20220801162127    1W    00000025000002843000000000032AF    HBYHVTB 000000000000UZ329026
BI00B32AF    @TTB2101       20220909181E48013ZZ              CAVSAS-S 0.3X3 GY        CCN000001000000001000FN00000000020221001000001000NNM   20220801162127    1W    00000025000002778200000000032AF    HBYHVTB 000000000000UZ428003
BI00B32AF    @TTB2102       20220916181E48013ZZ              CAVSAS-S 0.3X3 GY        CCN000003000000003000FN00000000020221001000003000NNM   20220801162127    1W    00000025000002778200000000032AF    HBYHVTB 000000000000UZ528012
BI00B32AF    @TTB2103       20220923181E48013ZZ              CAVSAS-S 0.3X3 GY        CCN000005000000005000FN00000000020221001000005000NNM   20220801162127    1W    00000025000002778200000000032AF    HBYHVTB 000000000000UZ129025
BI00B32AF    @TTB2104       20220930181E48013ZZ              CAVSAS-S 0.3X3 GY        CCN000003500000003500FN00000000020221001000003500NNM   20220801162127    1W    00000025000002778200000000032AF    HBYHVTB 000000000000UZ229027
BI00B32AF    @TTB2105       20221007181E48013ZZ              CAVSAS-S 0.3X3 GY        CCN000001250000001250FN00000000020221001000001250NNM   20220801162127    1W    00000025000002778200000000032AF    HBYHVTB 000000000000UZ329027
BI00B32AF    @TTB2105       20221007181AD2001ZZ              CIVUSAS-S 0.35X1 B       CCN000009900000009900FN00000000020221001000009900NNM   20220801162127    1W    00000055000001540800000000032AF    HBYHVTB 000000000000UZ329020
BI00B32AF    @TTB2104       20220930181AD2002ZZ              CIVUSAS-S 0.35X2 B       CCN000076500000076500FN00000000020221001000076500NNM   20220801162127    1W    00000045000001713700000000032AF    HBYHVTB 000000000000UZ229024
BI00B32AF    @TTB2105       20221007181AD2002ZZ              CIVUSAS-S 0.35X2 B       CCN000081000000081000FN00000000020221001000081000NNM   20220801162127    1W    00000045000001713700000000032AF    HBYHVTB 000000000000UZ329024
BI00B32AF    @TTB2103       20220923181AD2003ZZ              CIVUSAS-S 0.35X3 B       CCN000017500000017500FN00000000020221001000017500NNM   20220801162127    1W    00000035000002172100000000032AF    HBYHVTB 000000000000UZ129023
BI00B32AF    @TTB2104       20220930181AD2003ZZ              CIVUSAS-S 0.35X3 B       CCN000045500000045500FN00000000020221001000045500NNM   20220801162127    1W    00000035000002172100000000032AF    HBYHVTB 000000000000UZ229025
BI00B32AF    @TTB2105       20221007181AD2003ZZ              CIVUSAS-S 0.35X3 B       CCN000043750000043750FN00000000020221001000043750NNM   20220801162127    1W    00000035000002172100000000032AF    HBYHVTB 000000000000UZ329025
BI00B32AF    @TTB2102       20220916181AD2008ZZ              CIVUSAS-S 0.5X2 B        CCN000004000000004000FN00000000020221001000004000NNM   20220801162127    1W    00000040000002028000000000032AF    HBYHVTB 000000000000UZ528010
BI00B32AF    @TTB2103       20220923181AD2008ZZ              CIVUSAS-S 0.5X2 B        CCN000052000000052000FN00000000020221001000052000NNM   20220801162127    1W    00000040000002028000000000032AF    HBYHVTB 000000000000UZ129021
BI00B32AF    @TTB2104       20220930181AD2008ZZ              CIVUSAS-S 0.5X2 B        CCN000044000000044000FN00000000020221001000044000NNM   20220801162127    1W    00000040000002028000000000032AF    HBYHVTB 000000000000UZ229022
BI00B32AF    @TTB2105       20221007181AD2008ZZ              CIVUSAS-S 0.5X2 B        CCN000042000000042000FN00000000020221001000042000NNM   20220801162127    1W    00000040000002028000000000032AF    HBYHVTB 000000000000UZ329021
BI00B32AF    @TTB2105       20221007181AD2009ZZ              CIVUSAS-S 0.5X3 B        CCN000000300000000300FN00000000020221001000000300NNM   20220801162127    1W    00000030000002716800000000032AF    HBYHVTB 000000000000UZ329022
BI00B32AF    @TTB2101       20220909181AD2010ZZ              CIVUSAS-S 0.5X4 B        CCN000000750000000750FN00000000020221001000000750NNM   20220801162127    1W    00000025000003214000000000032AF    HBYHVTB 000000000000UZ428002
BI00B32AF    @TTB2102       20220916181AD2010ZZ              CIVUSAS-S 0.5X4 B        CCN000004250000004250FN00000000020221001000004250NNM   20220801162127    1W    00000025000003214000000000032AF    HBYHVTB 000000000000UZ528011
BI00B32AF    @TTB2103       20220923181AD2010ZZ              CIVUSAS-S 0.5X4 B        CCN000006000000006000FN00000000020221001000006000NNM   20220801162127    1W    00000025000003214000000000032AF    HBYHVTB 000000000000UZ129022
BI00B32AF    @TTB2104       20220930181AD2010ZZ              CIVUSAS-S 0.5X4 B        CCN000006000000006000FN00000000020221001000006000NNM   20220801162127    1W    00000025000003214000000000032AF    HBYHVTB 000000000000UZ229023
BI00B32AF    @TTB2105       20221007181AD2010ZZ              CIVUSAS-S 0.5X4 B        CCN000005500000005500FN00000000020221001000005500NNM   20220801162127    1W    00000025000003214000000000032AF    HBYHVTB 000000000000UZ329023
BI00B32A7    ZZ22103LMW     2022091418000004530              AV 8 B                   CCN000002800000002800FN00000000020221001000002800NNM   20220801161935    1W    00000010000010466200000000032A7    ZZZZY   000000000000ZZ528006
BI00B32A7    ZZ22104LMW     2022092118000004530              AV 8 B                   CCN000007600000007600FN00000000020221001000007600NNM   20220801161935    1W    00000010000010466200000000032A7    ZZZZY   000000000000ZZ129013
BI00B32A7    ZZ22102LMW     2022090718000004580              AV 8 BR                  CCN000000100000000100FN00000000020221001000000100NNM   20220801161935    1W    00000010000010466200000000032A7    ZZZZY   000000000000ZZ428004
BI00B32A7    ZZ22103LMW     2022091418000004580              AV 8 BR                  CCN000000700000000700FN00000000020221001000000700NNM   20220801161935    1W    00000010000010466200000000032A7    ZZZZY   000000000000ZZ528007
BI00B32A7    ZZ22104LMW     2022092118000004580              AV 8 BR                  CCN000000400000000400FN00000000020221001000000400NNM   20220801161935    1W    00000010000010466200000000032A7    ZZZZY   000000000000ZZ129014
BI00B32A7    ZZ22101LMW     2022083118000004560              AV 8 G                   CCN000007200000007200FN00000000020221001000007200NNM   20220801161935    1W    00000010000010466200000000032A7    ZZZZY   000000000000ZZ328004
BI00B32A7    ZZ22102LMW     2022090718000004560              AV 8 G                   CCN000001800000001800FN00000000020221001000001800NNM   20220801161935    1W    00000010000010466200000000032A7    ZZZZY   000000000000ZZ428005
BI00B32A7    ZZ22103LMW     2022091418000004560              AV 8 G                   CCN000003700000003700FN00000000020221001000003700NNM   20220801161935    1W    00000010000010466200000000032A7    ZZZZY   000000000000ZZ528008
BI00B32A7    ZZ22104LMW     2022092118000004560              AV 8 G                   CCN000008800000008800FN00000000020221001000008800NNM   20220801161935    1W    00000010000010466200000000032A7    ZZZZY   000000000000ZZ129015
BI00B32A7    ZZ22101LMW     2022083118000004550              AV 8 R                   CCN000012700000012700FN00000000020221001000012700NNM   20220801161935    1W    00000010000010466200000000032A7    ZZZZY   000000000000ZZ328005
BI00B32A7    ZZ22102LMW     2022090718000004550              AV 8 R                   CCN000005300000005300FN00000000020221001000005300NNM   20220801161935    1W    00000010000010466200000000032A7    ZZZZY   000000000000ZZ428006
BI00B32A7    ZZ22103LMW     2022091418000004550              AV 8 R                   CCN000009500000009500FN00000000020221001000009500NNM   20220801161935    1W    00000010000010466200000000032A7    ZZZZY   000000000000ZZ528009
BI00B32A7    ZZ22104LMW     2022092118000004550              AV 8 R                   CCN000014000000014000FN00000000020221001000014000NNM   20220801161935    1W    00000010000010466200000000032A7    ZZZZY   000000000000ZZ129016
BI00B32A7    ZZ22101LMW     2022083118000004540              AV 8 W                   CCN000009800000009800FN00000000020221001000009800NNM   20220801161935    1W    00000010000010466200000000032A7    ZZZZY   000000000000ZZ328006
BI00B32A7    ZZ22102LMW     2022090718000004540              AV 8 W                   CCN000002600000002600FN00000000020221001000002600NNM   20220801161935    1W    00000010000010466200000000032A7    ZZZZY   000000000000ZZ428007
BI00B32A7    ZZ22103LMW     2022091418000004540              AV 8 W                   CCN000005200000005200FN00000000020221001000005200NNM   20220801161935    1W    00000010000010466200000000032A7    ZZZZY   000000000000ZZ528010
BI00B32A7    ZZ22104LMW     2022092118000004540              AV 8 W                   CCN000009000000009000FN00000000020221001000009000NNM   20220801161935    1W    00000010000010466200000000032A7    ZZZZY   000000000000ZZ129017
BI00B32A7    ZZ22101LMW     2022083118000004570              AV 8 Y                   CCN000001200000001200FN00000000020221001000001200NNM   20220801161935    1W    00000010000010466200000000032A7    ZZZZY   000000000000ZZ328007
BI00B32A7    ZZ22102LMW     2022090718000004570              AV 8 Y                   CCN000000600000000600FN00000000020221001000000600NNM   20220801161935    1W    00000010000010466200000000032A7    ZZZZY   000000000000ZZ428008
BI00B32A7    ZZ22103LMW     2022091418000004570              AV 8 Y                   CCN000001300000001300FN00000000020221001000001300NNM   20220801161935    1W    00000010000010466200000000032A7    ZZZZY   000000000000ZZ528011
BI00B32A7    ZZ22104LMW     2022092118000004570              AV 8 Y                   CCN000003000000003000FN00000000020221001000003000NNM   20220801161935    1W    00000010000010466200000000032A7    ZZZZY   000000000000ZZ129018
BI00B32A7    @ZZ22101LMW    20220831181E48017ZZ              CAVSAS-S 0.5X1 GY/G      CCN000013600000013600FN00000000020221001000013600NNM   20220801161934    1W    00000040000001900600000000032A7    ZZZZY   000000000000ZZ328001
BI00B32A7    @ZZ22102LMW    20220907181E48017ZZ              CAVSAS-S 0.5X1 GY/G      CCN000004800000004800FN00000000020221001000004800NNM   20220801161934    1W    00000040000001900600000000032A7    ZZZZY   000000000000ZZ428001
BI00B32A7    @ZZ22103LMW    20220914181E48017ZZ              CAVSAS-S 0.5X1 GY/G      CCN000005200000005200FN00000000020221001000005200NNM   20220801161934    1W    00000040000001900600000000032A7    ZZZZY   000000000000ZZ528003
BI00B32A7    @ZZ22104LMW    20220921181E48017ZZ              CAVSAS-S 0.5X1 GY/G      CCN000005200000005200FN00000000020221001000005200NNM   20220801161934    1W    00000040000001900600000000032A7    ZZZZY   000000000000ZZ129010
BI00B32A7    @ZZ22101LMW    20220831181E48019ZZ              CAVSAS-S 0.5X1 GY/W      CCN000012000000012000FN00000000020221001000012000NNM   20220801161934    1W    00000040000001900600000000032A7    ZZZZY   000000000000ZZ328002
BI00B32A7    @ZZ22102LMW    20220907181E48019ZZ              CAVSAS-S 0.5X1 GY/W      CCN000004800000004800FN00000000020221001000004800NNM   20220801161934    1W    00000040000001900600000000032A7    ZZZZY   000000000000ZZ428002
BI00B32A7    @ZZ22103LMW    20220914181E48019ZZ              CAVSAS-S 0.5X1 GY/W      CCN000004800000004800FN00000000020221001000004800NNM   20220801161934    1W    00000040000001900600000000032A7    ZZZZY   000000000000ZZ528004
BI00B32A7    @ZZ22104LMW    20220921181E48019ZZ              CAVSAS-S 0.5X1 GY/W      CCN000000800000000800FN00000000020221001000000800NNM   20220801161934    1W    00000040000001900600000000032A7    ZZZZY   000000000000ZZ129011
BI00B32A7    @ZZ22101LMW    20220831181E48040ZZ              CAVSAS-S 0.3X2 GY/V      CCN000005600000005600FN00000000020221001000005600NNM   20220801161934    1W    00000035000002008700000000032A7    ZZZZY   000000000000ZZ328003
BI00B32A7    @ZZ22102LMW    20220907181E48040ZZ              CAVSAS-S 0.3X2 GY/V      CCN000005600000005600FN00000000020221001000005600NNM   20220801161934    1W    00000035000002008700000000032A7    ZZZZY   000000000000ZZ428003
BI00B32A7    @ZZ22103LMW    20220914181E48040ZZ              CAVSAS-S 0.3X2 GY/V      CCN000005950000005950FN00000000020221001000005950NNM   20220801161934    1W    00000035000002008700000000032A7    ZZZZY   000000000000ZZ528005
BI00B32A7    @ZZ22104LMW    20220921181E48040ZZ              CAVSAS-S 0.3X2 GY/V      CCN000001050000001050FN00000000020221001000001050NNM   20220801161934    1W    00000035000002008700000000032A7    ZZZZY   000000000000ZZ129012
BI00B32BF    TT22103KMW     2022083018009604130              AVS 1.25 B               CCN000000800000000000FY00000000020221001000000000NNM10 20220801082251    1W    00000080000001643000000000032BF    TTTJY   000000000000NK328002
BI00B32CJ    TTQ209D        2022081918000004550              AV 8 R                   CCN000003500000003500FN00000000020220901000003500NNE   20220801164226    1W    00000010000010466200000000032CJ    QNYHVQN 000000000000UL128001
BI00B32CJ    @TTQ209D       20220826181B32012ZZ              AVSSCS 0.3FX2 DGY/BR     CCN000001400000001400FN00000000020220901000001400NNE   20220801141301    1W    00000035000002276000000000032CJ    QNYHVQN 000000000000UP228001
BI00B32CJ    TTQ209E        2022082618000004530              AV 8 B                   CCN000002200000002200FN00000000020220901000002200NNE   20220801164227    1W    00000010000010466200000000032CJ    QNYHVQN 000000000000UM228001
BI00B32CJ    TTQ209E        202208261801W004091              IVSSH 0.75F SB           CCN000002600000002600FN00000000020220901000002600NNE   20220801164227    1W    00000130000000882000000000032CJ    QNYHVQN 000000000000UM228002
BI00B32DE    TT209F         2022081818007703750              AVSS 0.3F R              CCN000004000000004000FN00000000020220901000004000NNE   20220801102355    1W    00000200000000496000000000032DE    TVYEV-TV000000000000VR128035
BI00B32DE    TT209F         2022081818007703941              AVSS 0.5F GY             CCN000007500000007500FN00000000020220901000007500NNE   20220801102355    1W    00000150000000674000000000032DE    TVYEV-TV000000000000VR128036
BI00B32DE    TT209F         2022081818007703990              AVSS 0.5F L              CCN000006000000006000FN00000000020220901000006000NNE   20220801102355    1W    00000150000000674000000000032DE    TVYEV-TV000000000000VR128037
BI00B32DE    TT209F         2022081818007703950              AVSS 0.5F R              CCN000001500000001500FN00000000020220901000001500NNE   20220801102355    1W    00000150000000674000000000032DE    TVYEV-TV000000000000VR128038
BI00B32DE    TT209F         2022081818007703992              AVSS 0.5F V              CCN000001500000001500FN00000000020220901000001500NNE   20220801102355    1W    00000150000000674000000000032DE    TVYEV-TV000000000000VR128039
BI00B32DE    TT209F         2022081818007703940              AVSS 0.5F W              CCN000001500000001500FN00000000020220901000001500NNE   20220801102355    1W    00000150000000674000000000032DE    TVYEV-TV000000000000VR128040
BI00B32DE    TT209F         2022081818007703945              AVSS 0.5F W/R            CCN000001500000001500FN00000000020220901000001500NNE   20220801102355    1W    00000150000000674000000000032DE    TVYEV-TV000000000000VR128041
BI00B32DE    TT209F         2022081818007704180              AVSS 1.25F BR            CCN000004800000004800FN00000000020220901000004800NNE   20220801102355    1W    00000080000001389000000000032DE    TVYEV-TV000000000000VR128042
BI00B32DE    TT209F         2022081818007704190              AVSS 1.25F L             CCN000004800000004800FN00000000020220901000004800NNE   20220801102355    1W    00000080000001389000000000032DE    TVYEV-TV000000000000VR128043
BI00B32DE    TT209F         2022081818007704152              AVSS 1.25F P             CCN000010400000010400FN00000000020220901000010400NNE   20220801102355    1W    00000080000001389000000000032DE    TVYEV-TV000000000000VR128044
BI00B32DE    TT209F         2022081818007704192              AVSS 1.25F V             CCN000005600000005600FN00000000020220901000005600NNE   20220801102355    1W    00000080000001389000000000032DE    TVYEV-TV000000000000VR128045
BI00B32DE    TT209F         2022081818007704140              AVSS 1.25F W             CCN000001600000001600FN00000000020220901000001600NNE   20220801102355    1W    00000080000001389000000000032DE    TVYEV-TV000000000000VR128046
BI00B32DE    TT209F         2022081818007704143              AVSS 1.25F W/B           CCN000000800000000800FN00000000020220901000000800NNE   20220801102355    1W    00000080000001389000000000032DE    TVYEV-TV000000000000VR128047
BI00B32DE    TT209F         20220818180D0203760              AVSSH 0.3F G             CCN000004000000004000FN00000000020220901000004000NNE   20220801102355    1W    00000200000000515000000000032DE    TVYEV-TV000000000000VR128010
BI00B32DE    TT209F         20220818180D0203935              AVSSH 0.5F B/R           CCN000004500000004500FN00000000020220901000004500NNE   20220801102355    1W    00000150000000689000000000032DE    TVYEV-TV000000000000VR128011
BI00B32DE    TT209F         20220818180D0203934              AVSSH 0.5F B/W           CCN000001500000001500FN00000000020220901000001500NNE   20220801102355    1W    00000150000000689000000000032DE    TVYEV-TV000000000000VR128012
BI00B32DE    TT209F         20220818180D0203980              AVSSH 0.5F BR            CCN000001500000001500FN00000000020220901000001500NNE   20220801102355    1W    00000150000000689000000000032DE    TVYEV-TV000000000000VR128013
BI00B32DE    TT209F         20220818180D0203960              AVSSH 0.5F G             CCN000021000000021000FN00000000020220901000021000NNE   20220801102355    1W    00000150000000689000000000032DE    TVYEV-TV000000000000VR128014
BI00B32DE    TT209F         20220818180D0203965              AVSSH 0.5F G/R           CCN000001500000001500FN00000000020220901000001500NNE   20220801102355    1W    00000150000000689000000000032DE    TVYEV-TV000000000000VR128015
BI00B32DE    TT209F         20220818180D0203941              AVSSH 0.5F GY            CCN000036000000036000FN00000000020220901000036000NNE   20220801102355    1W    00000150000000689000000000032DE    TVYEV-TV000000000000VR128016
BI00B32DE    TT209F         20220818180D0203990              AVSSH 0.5F L             CCN000018000000018000FN00000000020220901000018000NNE   20220801102355    1W    00000150000000689000000000032DE    TVYEV-TV000000000000VR128017
BI00B32DE    TT209F         20220818180D0203995              AVSSH 0.5F L/R           CCN000001500000001500FN00000000020220901000001500NNE   20220801102355    1W    00000150000000689000000000032DE    TVYEV-TV000000000000VR128018
BI00B32DE    TT209F         20220818180D0203994              AVSSH 0.5F L/W           CCN000004500000004500FN00000000020220901000004500NNE   20220801102355    1W    00000150000000689000000000032DE    TVYEV-TV000000000000VR128019
BI00B32DE    TT209F         20220818180D0203961              AVSSH 0.5F LG            CCN000009000000009000FN00000000020220901000009000NNE   20220801102355    1W    00000150000000689000000000032DE    TVYEV-TV000000000000VR128020
BI00B32DE    TT209F         20220818180D0203952              AVSSH 0.5F P             CCN000039000000039000FN00000000020220901000039000NNE   20220801102355    1W    00000150000000689000000000032DE    TVYEV-TV000000000000VR128021
BI00B32DE    TT209F         20220818180D0203950              AVSSH 0.5F R             CCN000004500000004500FN00000000020220901000004500NNE   20220801102355    1W    00000150000000689000000000032DE    TVYEV-TV000000000000VR128022
BI00B32DE    TT209F         20220818180D0203959              AVSSH 0.5F R/L           CCN000001500000001500FN00000000020220901000001500NNE   20220801102355    1W    00000150000000689000000000032DE    TVYEV-TV000000000000VR128023
BI00B32DE    TT209F         20220818180D0203957              AVSSH 0.5F R/Y           CCN000001500000001500FN00000000020220901000001500NNE   20220801102355    1W    00000150000000689000000000032DE    TVYEV-TV000000000000VR128024
BI00B32DE    TT209F         20220818180D0203992              AVSSH 0.5F V             CCN000006000000006000FN00000000020220901000006000NNE   20220801102355    1W    00000150000000689000000000032DE    TVYEV-TV000000000000VR128025
BI00B32DE    TT209F         20220818180D0203940              AVSSH 0.5F W             CCN000004500000004500FN00000000020220901000004500NNE   20220801102355    1W    00000150000000689000000000032DE    TVYEV-TV000000000000VR128026
BI00B32DE    TT209F         20220818180D0203946              AVSSH 0.5F W/G           CCN000001500000001500FN00000000020220901000001500NNE   20220801102355    1W    00000150000000689000000000032DE    TVYEV-TV000000000000VR128027
BI00B32DE    TT209F         20220818180D0203970              AVSSH 0.5F Y             CCN000013500000013500FN00000000020220901000013500NNE   20220801102355    1W    00000150000000689000000000032DE    TVYEV-TV000000000000VR128028
BI00B32DE    TT209F         20220818180D0203976              AVSSH 0.5F Y/G           CCN000003000000003000FN00000000020220901000003000NNE   20220801102355    1W    00000150000000689000000000032DE    TVYEV-TV000000000000VR128029
BI00B32DE    TT209F         20220818180D0204080              AVSSH 0.75F BR           CCN000014000000014000FN00000000020220901000014000NNE   20220801102355    1W    00000100000000934000000000032DE    TVYEV-TV000000000000VR128030
BI00B32DE    TT209F         20220818180D0204092              AVSSH 0.75F V            CCN000001000000001000FN00000000020220901000001000NNE   20220801102355    1W    00000100000000934000000000032DE    TVYEV-TV000000000000VR128031
BI00B32DE    TT209F         20220818180D0204192              AVSSH 1.25F V            CCN000009600000009600FN00000000020220901000009600NNE   20220801102355    1W    00000080000001458000000000032DE    TVYEV-TV000000000000VR128032
BI00B32DE    TT209F         20220818180D0204143              AVSSH 1.25F W/B          CCN000002400000002400FN00000000020220901000002400NNE   20220801102355    1W    00000080000001458000000000032DE    TVYEV-TV000000000000VR128033
BI00B32DE    TT209F         20220818180D0204149              AVSSH 1.25F W/L          CCN000001600000001600FN00000000020220901000001600NNE   20220801102355    1W    00000080000001458000000000032DE    TVYEV-TV000000000000VR128034
BI00B32DE    @TT209F        20220818181E50000ZZ              AVSSCS-S 0.5FX1 DGY/BR   CCN000002000000002000FN00000000020220901000002000NNE   20220801102354    1W    00000040000001909700000000032DE    TVYEV-TV000000000000VR128001
BI00B32DE    @TT209F        20220818181E50005ZZ              AVSSCS-S 0.5FX1 DGY/W    CCN000002800000002800FN00000000020220901000002800NNE   20220801102354    1W    00000040000001909700000000032DE    TVYEV-TV000000000000VR128004
BI00B32DE    @TT209F        20220818181E50006ZZ              AVSSCS-S 0.5FX1 DGY/Y    CCN000001200000001200FN00000000020220901000001200NNE   20220801102354    1W    00000040000001909700000000032DE    TVYEV-TV000000000000VR128005
BI00B32DE    @TT209F        20220818181E50007ZZ              AVSSCS-S 0.5FX1 DGY/L    CCN000001200000001200FN00000000020220901000001200NNE   20220801102354    1W    00000040000001909700000000032DE    TVYEV-TV000000000000VR128003
BI00B32DE    @TT209F        20220818181E50013ZZ              AVSSCS-S 0.5FX1 DGY/G    CCN000000400000000400FN00000000020220901000000400NNE   20220801102354    1W    00000040000001909700000000032DE    TVYEV-TV000000000000VR128002
BI00B32DE    @TT209F        20220818181F21003ZZ              AVSSHCS-S 0.5FX1 B/W     CCN000017200000017200FN00000000020220901000017200NNE   20220801102354    1W    00000040000001908400000000032DE    TVYEV-TV000000000000VR128007
BI00B32DE    @TT209F        20220818181F21004ZZ              AVSSHCS-S 0.5FX1 B/R     CCN000000400000000400FN00000000020220901000000400NNE   20220801102354    1W    00000040000001908400000000032DE    TVYEV-TV000000000000VR128006
BI00B32DE    @TT209F        20220818181F21006ZZ              AVSSHCS-S 0.5FX1 B/Y     CCN000000800000000800FN00000000020220901000000800NNE   20220801102354    1W    00000040000001908400000000032DE    TVYEV-TV000000000000VR128008
BI00B32DE    @TT209F        20220818181F21029ZZ              AVSSHCS-S 1.25FX2 B/Y    CCN000000600000000600FN00000000020220901000000600NNE   20220801102354    1W    00000020000004267300000000032DE    TVYEV-TV000000000000VR128009
BI00B32DG    @RH2093B       20220825181E50016ZZ              AVSSCS-S 0.5FX2 DGY/R    CCN000000300000000300FN00000000020220901000000300NNE   20220801141517    1W    00000030000003096000000000032DG    BFSAIBF 000000000000GT228001
BI00B32DG    @RH2093B       20220825181E50011ZZ              AVSSCS-S 0.5FX2 DGY/Y    CCN000004200000004200FN00000000020220901000004200NNE   20220801141517    1W    00000030000003096000000000032DG    BFSAIBF 000000000000GT228002
BI00B32DJ    GHT2210-1      20220901180D0204092              AVSSH 0.75F V            CCN000001000000001000FN00000000020221001000001000NNM   20220801145959    1W    00000100000000934000000000032DJ    RBYIPLRB000000000000XH328007
BI00B32DJ    GHT2210-1      20220901180D0204161              AVSSH 1.25F LG           CCN000000800000000800FN00000000020221001000000800NNM   20220801145959    1W    00000080000001458000000000032DJ    RBYIPLRB000000000000XH328009
BI00B32DJ    GHT2210-1      20220901180D0204060              AVSSH 0.75F G            CCN000001000000001000FN00000000020221001000001000NNM   20220801145959    1W    00000100000000934000000000032DJ    RBYIPLRB000000000000XH328004
BI00B32DJ    GHT2210-1      20220901180D0204030              AVSSH 0.75F B            CCN000003000000003000FN00000000020221001000003000NNM   20220801145959    1W    00000100000000934000000000032DJ    RBYIPLRB000000000000XH328002
BI00B32DJ    GHT2210-2      20220915180D0204030              AVSSH 0.75F B            CCN000001000000001000FN00000000020221001000001000NNM   20220801145959    1W    00000100000000934000000000032DJ    RBYIPLRB000000000000XH528003
BI00B32DJ    GHT2210-2      20220915180D0203790              AVSSH 0.3F L             CCN000002000000002000FN00000000020221001000002000NNM   20220801145959    1W    00000200000000515000000000032DJ    RBYIPLRB000000000000XH528002
BI00B32DJ    GHT2210-1      20220901180D0204061              AVSSH 0.75F LG           CCN000002000000002000FN00000000020221001000002000NNM   20220801145959    1W    00000100000000934000000000032DJ    RBYIPLRB000000000000XH328005
BI00B32DJ    GHT2210-2      20220915180D0204061              AVSSH 0.75F LG           CCN000001000000001000FN00000000020221001000001000NNM   20220801145959    1W    00000100000000934000000000032DJ    RBYIPLRB000000000000XH528005
BI00B32DJ    GHT2210-1      20220901180D0204080              AVSSH 0.75F BR           CCN000006000000006000FN00000000020221001000006000NNM   20220801145959    1W    00000100000000934000000000032DJ    RBYIPLRB000000000000XH328003
BI00B32DJ    GHT2210-2      20220915180D0204080              AVSSH 0.75F BR           CCN000006000000006000FN00000000020221001000006000NNM   20220801145959    1W    00000100000000934000000000032DJ    RBYIPLRB000000000000XH528004
BI00B32DJ    GHT2210-1      20220901180D0204091              AVSSH 0.75F SB           CCN000012000000012000FN00000000020221001000012000NNM   20220801145959    1W    00000100000000934000000000032DJ    RBYIPLRB000000000000XH328006
BI00B32DJ    GHT2210-2      20220915180D0204091              AVSSH 0.75F SB           CCN000010000000010000FN00000000020221001000010000NNM   20220801145959    1W    00000100000000934000000000032DJ    RBYIPLRB000000000000XH528006
BI00B32DJ    GHT2210-1      20220901180D0204070              AVSSH 0.75F Y            CCN000012000000012000FN00000000020221001000012000NNM   20220801145959    1W    00000100000000934000000000032DJ    RBYIPLRB000000000000XH328008
BI00B32DJ    GHT2210-2      20220915180D0204070              AVSSH 0.75F Y            CCN000010000000010000FN00000000020221001000010000NNM   20220801145959    1W    00000100000000934000000000032DJ    RBYIPLRB000000000000XH528007
BI00B32DJ    @GHT2210-1     20220901181AD2017ZZ              CIVUSAS-S 0.22X3 B       CCN000003440000003440FN00000000020221001000003440NNM   20220801145958    1W    00000043000001678200000000032DJ    RBYIPLRB000000000000XH328001
BI00B32DJ    @GHT2210-2     20220915181AD2017ZZ              CIVUSAS-S 0.22X3 B       CCN000007740000007740FN00000000020221001000007740NNM   20220801145958    1W    00000043000001678200000000032DJ    RBYIPLRB000000000000XH528001
BI00B32E1    WC209A         2022081718000004530              AV 8 B                   CCN000000600000000600FN00000000020220901000000600NNE   20220801150530    1W    00000010000010466200000000032E1    SPYSE   000000000000KD128001
BI00B32E1    WC209A         2022081718000004570              AV 8 Y                   CCN000000800000000800FN00000000020220901000000800NNE   20220801150530    1W    00000010000010466200000000032E1    SPYSE   000000000000KD128002
BI00B32GE    DHTW2243       2022090118000004530              AV 8 B                   CCN000059600000059600FN00000000020221001000059600NNE   20220801165220    1W    00000010000010466200000000032GE    GEYKHT  000000000000RA328060
BI00B32GE    DHTW2243       2022090118000004534              AV 8 B/W                 CCN000003700000003700FN00000000020221001000003700NNE   20220801165220    1W    00000010000010466200000000032GE    GEYKHT  000000000000RA328062
BI00B32GE    DHTW2243       2022090118000004535              AV 8 B/R                 CCN000006000000006000FN00000000020221001000006000NNE   20220801165220    1W    00000010000010466200000000032GE    GEYKHT  000000000000RA328061
BI00B32GE    DHTW2243       2022090118000004540              AV 8 W                   CCN000024700000024700FN00000000020221001000024700NNE   20220801165220    1W    00000010000010466200000000032GE    GEYKHT  000000000000RA328065
BI00B32GE    DHTW2243       2022090118000004543              AV 8 W/B                 CCN000015500000015500FN00000000020221001000015500NNE   20220801165220    1W    00000010000010466200000000032GE    GEYKHT  000000000000RA328066
BI00B32GE    DHTW2243       2022090118000004550              AV 8 R                   CCN000000500000000500FN00000000020221001000000500NNE   20220801165220    1W    00000010000010466200000000032GE    GEYKHT  000000000000RA328064
BI00B32GE    DHTW2243       2022090118000004590              AV 8 L                   CCN000017700000017700FN00000000020221001000017700NNE   20220801165220    1W    00000010000010466200000000032GE    GEYKHT  000000000000RA328063
BI00B32GE    @DHTW2243      20220901181AD2002ZZ              CIVUSAS-S 0.35X2 B       CCN000027000000027000FN00000000020221001000027000NNE   20220801165219    1W    00000045000001713700000000032GE    GEYKHT  000000000000RA328033
BI00B32GE    @DHTW2243      20220901181AD2003ZZ              CIVUSAS-S 0.35X3 B       CCN000013500000013650FN00000000020221001000013650NNE   20220801165219    1W    00000035000002172100000000032GE    GEYKHT  000000000000RA328034
BI00B32GE    @DHTW2243      20220901181AD2004ZZ              CIVUSAS-S 0.35X4 B       CCN000024800000024900FN00000000020221001000024900NNE   20220801165219    1W    00000030000002799900000000032GE    GEYKHT  000000000000RA328035
BI00B32GE    @DHTW2243      20220901181E48037ZZ              CAVSAS-S 0.3X4 GY        CCN000006250000006250FN00000000020221001000006250NNE   20220801165219    1W    00000025000003262000000000032GE    GEYKHT  000000000000RA328036
BI00B32GE    @DHTW2243      20220901181E50002ZZ              AVSSCS-S 0.3FX2 DGY/G    CCN000008050000008050FN00000000020221001000008050NNE   20220801165219    1W    00000035000002165000000000032GE    GEYKHT  000000000000RA328043
BI00B32GE    @DHTW2243      20220901181E50004ZZ              AVSSCS-S 0.5FX1 DGY      CCN000017600000017600FN00000000020221001000017600NNE   20220801165219    1W    00000040000001909700000000032GE    GEYKHT  000000000000RA328037
BI00B32GE    @DHTW2243      20220901181E50005ZZ              AVSSCS-S 0.5FX1 DGY/W    CCN000013200000013200FN00000000020221001000013200NNE   20220801165219    1W    00000040000001909700000000032GE    GEYKHT  000000000000RA328039
BI00B32GE    @DHTW2243      20220901181E50006ZZ              AVSSCS-S 0.5FX1 DGY/Y    CCN000001600000001600FN00000000020221001000001600NNE   20220801165219    1W    00000040000001909700000000032GE    GEYKHT  000000000000RA328040
BI00B32GE    @DHTW2243      20220901181E50007ZZ              AVSSCS-S 0.5FX1 DGY/L    CCN000007200000007200FN00000000020221001000007200NNE   20220801165219    1W    00000040000001909700000000032GE    GEYKHT  000000000000RA328038
BI00B32GE    @DHTW2243      20220901181E50016ZZ              AVSSCS-S 0.5FX2 DGY/R    CCN000005100000005100FN00000000020221001000005100NNE   20220801165219    1W    00000030000003096000000000032GE    GEYKHT  000000000000RA328041
BI00B32GE    @DHTW2243      20220901181E50020ZZ              AVSSCS-S 0.3FX2 DGY/R    CCN000004550000004550FN00000000020221001000004550NNE   20220801165219    1W    00000035000002165000000000032GE    GEYKHT  000000000000RA328045
BI00B32GE    @DHTW2243      20220901181E50021ZZ              AVSSCS-S 0.3FX2 DGY/P    CCN000005950000005950FN00000000020221001000005950NNE   20220801165219    1W    00000035000002165000000000032GE    GEYKHT  000000000000RA328044
BI00B32GE    @DHTW2243      20220901181E50036ZZ              AVSSCS-S 0.3FX2 DGY      CCN000010500000010500FN00000000020221001000010500NNE   20220801165219    1W    00000035000002165000000000032GE    GEYKHT  000000000000RA328042
BI00B32GE    @DHTW2243      20220901181F21014ZZ              AVSSHCS-S 0.5FX2 B/L     CCN000006000000006000FN00000000020221001000006000NNE   20220801165219    1W    00000030000002531400000000032GE    GEYKHT  000000000000RA328046
