BI00B1200    #8870T52801    202209297289-2916-30             HOUSING FEMALE ASS'Y     CCN000001000000001000FN00000000020221001000001000NNE   20220808131245    2N0N  0000010000000085700000108401200    YCYC    005400370024
BI00B1200    #8870T52801    202209297289-2919-30             HOUSING FEMALE ASS'Y     CCN000001500000001500FN00000000020221001000001500NNE   20220808131245    2N0N  0000015000000090750000103451200    YCYC    005400370024
BI00B1200    8870T52802     202210277288-3340-30             HOUSING MALE             CCN000001500000001500FN00000000020221101000001500NNE   20220808131245    4N0N  0000015000000086150000100641200    YCYC    005400370024
BI00B1200    8870T52802     202210277289-3342                HOUSING FEMALE ASS'Y     CCN000002400000002400FN00000000020221101000002400NNE   20220808131245    1N0N  0000024000000068640000090141200    YCYC    005500360039
BI00B1200    2399T52831     202208257288-6547                CONNECTOR MALE ASS'Y     CCN000201000000201000FN00000000020221001000201000NNED0020220808145157    4N0N  0000007500000120530000134031200    YCYC    005400370024
BI00B1200    2399T52831     202209297288-7969                HYBRID MALE ASS'Y        CCN000019840000019840FN00000000020221001000019840NNE   20220808131245    1N0N  0000003200000087620000110171200    YCYC    005400370024
BI00B1200    2399T52832     202208257288-6547                CONNECTOR MALE ASS'Y     CCN000160500000160500FN00000000020221001000160500NNED0020220808145212    4N0N  0000007500000120530000134031200    YCYC    005400370024
BI00B1200    2399T52833     202209017288-6547                CONNECTOR MALE ASS'Y     CCN000199500000199500FN00000000020221101000199500NNED0020220808145227    4N0N  0000007500000120530000134031200    YCYC    005400370024
BI00B1200    2399T52833     202210067288-7969                HYBRID MALE ASS'Y        CCN000019840000019840FN00000000020221101000019840NNE   20220808131245    1N0N  0000003200000087620000110171200    YCYC    005400370024
BI00B1200    2399T52834     202209087288-6547                CONNECTOR MALE ASS'Y     CCN000159750000159750FN00000000020221101000159750NNED0020220808145249    4N0N  0000007500000120530000134031200    YCYC    005400370024
BI00B1200    2399T52835     202209157288-6547                CONNECTOR MALE ASS'Y     CCN000199500000199500FN00000000020221101000199500NNED0020220808145648    4N0N  0000007500000120530000134031200    YCYC    005400370024
BI00B1200    2399T52835     202210067288-7969                HYBRID MALE ASS'Y        CCN000019840000019840FN00000000020221101000019840NNE   20220808131245    1N0N  0000003200000087620000110171200    YCYC    005400370024
BI00B1200    2399T52836     202209227288-6547                CONNECTOR MALE ASS'Y     CCN000159750000159750FN00000000020221101000159750NNED0020220808145708    4N0N  0000007500000120530000134031200    YCYC    005400370024
BI00A32AF    JTB209D        202208157287-3885-30             HYBRID FEMALE ASS'Y      CCN000002400000002400FN00000000020220901000002400NNEM0020220808163045    1N0N  00000240000001029600001249632AF    HBYHVTB 005500360039
BI00B32AF    JTB210A        202209097283-5830-30             CONNECTOR                CCN000012000000012000FN00000000020221001000012000NNE   20220808131245    1N0N  00000600000000954000001104032AF    HBYHVTB 005500360039
BI00B32AF    JTB210A        202209097283-5845                CONNECTOR HOUSING        CCN000018000000018000FN00000000020221001000018000NNE   20220808131245    1N0N  00000600000000444000000606332AF    HBYHVTB 005400370024
BI00B32AF    JTB210A        202209097283-5846                HOUSING                  CCN000006000000006000FN00000000020221001000006000NNE   20220808131245    1N0N  00000150000000885000001102032AF    HBYHVTB 005600390040
BI00A32AF    QA-22-C060     202208087287-3885-30             HYBRID FEMALE ASS'Y      PNN000002400000002400FY00000240020220801000000000NNE   20220808150806    1N0N  00000240000001029600001249632AF    HBYHVTB 005500360039
BI00B32AF    JTB210B        202209167116-5097-02             TERMINAL                 CCN000045000000045000FN00000000020221001000045000NNE   20220808131245    4P0P  00002250000000531000000816232AF    HBYHVTB 006400630015
BI00B32AF    JTB210C        202209237196-1104-02             TERMINAL                 CCN000022500000022500FN00000000020221001000022500NNE   20220808131245    4P0P  00002250000000441000000726232AF    HBYHVTB 006400630015
BI00B32AF    JTB210D        202210077196-1461-02             TERMINAL FEMALE          CCN000024000000024000FN00000000020221001000024000NNE   20220808131245    4P0P  00002400000000386400000671632AF    HBYHVTB 006400630015
BI00B32AG    XG2211ALMW     202210077116-4022                TERMINAL                 CCN000013500000013500FN00000000020221101000013500NNED0020220808131245    4P0P  00001350000000618300000903532AG    XGXGY   006400630015
BI00B32BG    YY2209CGMW     202208187116-4112-02             TERMINAL                 CCN000036000000036000FN00000000020220901000036000NNED0720220808131245    4P0P  00000600000000450000000738232BG    YGYYA   006400630015
BI00B32BG    YY2209CGMW     202208187116-4120-02             TERMINAL                 CCN000012000000012000FN00000000020220901000012000NNED0720220808131245    4P0P  00000600000000780000001073632BG    YGYYA   006400630015
BI00B32BG    YY22113GMW     202209297114-4111-02             TERMINAL                 CCN000036000000036000FN00000000020221101000036000NNM   20220808131245    4P0P  00001200000000758400001087032BG    YGYYA   006400630017
BI00B32BG    YY22114GMW     202210067114-4111-02             TERMINAL                 CCN000036000000036000FN00000000020221101000036000NNM   20220808131245    4P0P  00001200000000758400001087032BG    YGYYA   006400630017
BI00B32BG    YY22115GMW     202210067114-4111-02             TERMINAL                 CCN000036000000036000FN00000000020221101000036000NNM   20220808131245    4P0P  00001200000000758400001087032BG    YGYYA   006400630017
BI00B32BG    YY22112GMW     202209227114-4112-02             TERMINAL                 CCN000063000000063000FN00000000020221101000063000NNM   20220808131245    4P0P  00000900000000598500000927132BG    YGYYA   006400630017
BI00B32BG    YY22113GMW     202209297114-4112-02             TERMINAL                 CCN000063000000063000FN00000000020221101000063000NNM   20220808131245    4P0P  00000900000000598500000927132BG    YGYYA   006400630017
BI00B32BG    YY22114GMW     202210067114-4112-02             TERMINAL                 CCN000045000000045000FN00000000020221101000045000NNM   20220808131245    4P0P  00000900000000598500000927132BG    YGYYA   006400630017
BI00B32BG    YY22115GMW     202210067114-4112-02             TERMINAL                 CCN000045000000045000FN00000000020221101000045000NNM   20220808131245    4P0P  00000900000000598500000927132BG    YGYYA   006400630017
BI00B32BG    YY22112GMW     202209227116-4100-02             TERMINAL                 CCN000060000000060000FN00000000020221101000060000NNM   20220808131245    4P0P  00001500000000696000000990232BG    YGYYA   006400630015
BI00B32BG    YY22113GMW     202209297116-4100-02             TERMINAL                 CCN000060000000060000FN00000000020221101000060000NNM   20220808131245    4P0P  00001500000000696000000990232BG    YGYYA   006400630015
BI00B32BG    YY22114GMW     202210067116-4100-02             TERMINAL                 CCN000060000000060000FN00000000020221101000060000NNM   20220808131245    4P0P  00001500000000696000000990232BG    YGYYA   006400630015
BI00B32BG    YY22115GMW     202210067116-4100-02             TERMINAL                 CCN000060000000060000FN00000000020221101000060000NNM   20220808131245    4P0P  00001500000000696000000990232BG    YGYYA   006400630015
BI00B32BG    YY22113GMW     202209297116-4104-02             TERMINAL                 CCN000048000000048000FN00000000020221101000048000NNM   20220808131245    4P0P  00001200000000580800000972432BG    YGYYA   006400630015
BI00B32BG    YY22114GMW     202210067116-4104-02             TERMINAL                 CCN000048000000048000FN00000000020221101000048000NNM   20220808131245    4P0P  00001200000000580800000972432BG    YGYYA   006400630015
BI00B32BG    YY22115GMW     202210067116-4104-02             TERMINAL                 CCN000048000000048000FN00000000020221101000048000NNM   20220808131245    4P0P  00001200000000580800000972432BG    YGYYA   006400630015
BI00B32BG    YY22113GMW     202209297116-4110-02             TERMINAL                 CCN000027000000027000FN00000000020221101000027000NNM   20220808131245    4P0P  00000900000000594000000882232BG    YGYYA   006400630015
BI00B32BG    YY22114GMW     202210067116-4110-02             TERMINAL                 CCN000027000000027000FN00000000020221101000027000NNM   20220808131245    4P0P  00000900000000594000000882232BG    YGYYA   006400630015
BI00B32BG    YY22115GMW     202210067116-4110-02             TERMINAL                 CCN000027000000027000FN00000000020221101000027000NNM   20220808131245    4P0P  00000900000000594000000882232BG    YGYYA   006400630015
BI00B32BG    YY22114GMW     202210067116-4111-02             TERMINAL                 CCN000030000000030000FN00000000020221101000030000NNM   20220808131245    4P0P  00000750000000529500000817732BG    YGYYA   006400630015
BI00B32BG    YY22115GMW     202210067116-4111-02             TERMINAL                 CCN000015000000015000FN00000000020221101000015000NNM   20220808131245    4P0P  00000750000000529500000817732BG    YGYYA   006400630015
BI00B32BG    YY22111GMW     202209157116-4112-02             TERMINAL                 CCN000054000000054000FN00000000020221101000054000NNM   20220808131245    4P0P  00000600000000450000000738232BG    YGYYA   006400630015
BI00B32BG    YY22112GMW     202209227116-4112-02             TERMINAL                 CCN000036000000036000FN00000000020221101000036000NNM   20220808131245    4P0P  00000600000000450000000738232BG    YGYYA   006400630015
BI00B32BG    YY22113GMW     202209297116-4112-02             TERMINAL                 CCN000036000000036000FN00000000020221101000036000NNM   20220808131245    4P0P  00000600000000450000000738232BG    YGYYA   006400630015
BI00B32BG    YY22114GMW     202210067116-4112-02             TERMINAL                 CCN000042000000042000FN00000000020221101000042000NNM   20220808131245    4P0P  00000600000000450000000738232BG    YGYYA   006400630015
BI00B32BG    YY22115GMW     202210067116-4112-02             TERMINAL                 CCN000024000000024000FN00000000020221101000024000NNM   20220808131245    4P0P  00000600000000450000000738232BG    YGYYA   006400630015
BI00B32BG    YY22112GMW     202209227116-4120-02             TERMINAL                 CCN000006000000006000FN00000000020221101000006000NNM   20220808131245    4P0P  00000600000000780000001073632BG    YGYYA   006400630015
BI00B32BG    YY22113GMW     202209297116-4120-02             TERMINAL                 CCN000006000000006000FN00000000020221101000006000NNM   20220808131245    4P0P  00000600000000780000001073632BG    YGYYA   006400630015
BI00B32BG    YY22114GMW     202210067116-4120-02             TERMINAL                 CCN000006000000006000FN00000000020221101000006000NNM   20220808131245    4P0P  00000600000000780000001073632BG    YGYYA   006400630015
BI00B32BG    YY22112GMW     202209227116-4121-02             TERMINAL                 CCN000027000000027000FN00000000020221101000027000NNM   20220808131245    4P0P  00000450000000618800000912432BG    YGYYA   006400630015
BI00B32BG    YY22113GMW     202209297116-4121-02             TERMINAL                 CCN000027000000027000FN00000000020221101000027000NNM   20220808131245    4P0P  00000450000000618800000912432BG    YGYYA   006400630015
BI00B32BG    YY22114GMW     202210067116-4121-02             TERMINAL                 CCN000036000000036000FN00000000020221101000036000NNM   20220808131245    4P0P  00000450000000618800000912432BG    YGYYA   006400630015
BI00B32BG    YY22115GMW     202210067116-4121-02             TERMINAL                 CCN000036000000036000FN00000000020221101000036000NNM   20220808131245    4P0P  00000450000000618800000912432BG    YGYYA   006400630015
BI00B32BG    YY22114GMW     202210067116-4122-02             TERMINAL                 CCN000022500000022500FN00000000020221101000022500NNM   20220808131245    4P0P  00000450000000656600000950232BG    YGYYA   006400630015
BI00B32BG    YY22115GMW     202210067116-4122-02             TERMINAL                 CCN000022500000022500FN00000000020221101000022500NNM   20220808131245    4P0P  00000450000000656600000950232BG    YGYYA   006400630015
BI00B32BG    YY22111GMW     202209157126-8855-02             TERMINAL                 CCN000004800000006000FN00000000020221101000006000NNM   20220808131245    4P0P  00000600000000510600000795832BG    YGYYA   006400630015
BI00B32BG    YY22113GMW     202209297126-8855-02             TERMINAL                 CCN000004800000006000FN00000000020221101000006000NNM   20220808131245    4P0P  00000600000000510600000795832BG    YGYYA   006400630015
BI00B32BG    #YY22112GMW    202209227158-3008-80             RUBBER STOPPER           CCN000020000000020000FN00000000020221101000020000NNM   20220808131245    2C0C  00002000000000288000000343032BG    YGYYA   004300270014
BI00B32BG    #YY22113GMW    202209297283-8398-40             CONNECTOR                CCN000001540000001540FN00000000020221101000001540NNM   20220808131245    2N0N  00000154000001007000001171332BG    YGYYA   005600390023
BI00B32BG    #YY22114GMW    202210067283-8398-40             CONNECTOR                CCN000001540000001540FN00000000020221101000001540NNM   20220808131245    2N0N  00000154000001007000001171332BG    YGYYA   005600390023
BI00B32BG    #YY22115GMW    202210067283-8398-40             CONNECTOR                CCN000001540000001540FN00000000020221101000001540NNM   20220808131245    2N0N  00000154000001007000001171332BG    YGYYA   005600390023
BI00B32B1    A22043         202209307282-5553-30             CONNECTOR                CCN000002000000002000FN00000000020221201000002000NNM   20220808141258B1  4N0N  00000100000001010000001187332B1    AXARNE-M005500360039
BI00B32B6    A72043         202209307289-5000                HOUSING FEMALE ASS'Y     CCN000009120000009120FN00000000020221201000009120NNM   20220808141344B6  1N0N  00000030400000549000000759032B6    AXARNE-M005400370024
BI00B32B6    A72043         202209307017-1181-02             TERMINAL                 CCN000063000000063000FN00000000020221201000063000NNM   20220808141344B6  4P0P  00006300000001089900001266832B6    AXARNE-M005100280028
BI00B32B6    A72043         202209307158-3167-80             WIRE SEAL                CCN000160000000160000FN00000000020221201000160000NNM   20220808141344B6  1C0C  00002000000000048000000109032B6    AXARNE-M002700430014
BI00B32B6    #A72043        202209307158-3121-80             WIRE SEAL                CCN000060000000060000FN00000000020221201000060000NNM   20220808141341B6  2C0C  00002000000000118000000187332B6    AXARNE-M002700430014
BI00B32B6    #A72043        202209307289-2915-30             HOUSING FEMALE ASS'Y     CCN000001500000001500FN00000000020221201000001500NNM   20220808141341B6  2N0N  00000150000000964500001091532B6    AXARNE-M005400370024
BI00B32B7    A82043         202209307158-3166-60             WIRE SEAL                CCN000040000000040000FN00000000020221201000040000NNM   20220808141424B7  1C0C  00004000000000104000000152432B7    AXARNE-M002700430014
BI00B32B7    A82043         202209307158-3169-40             SEALING PLUG             CCN000080000000080000FN00000000020221201000080000NNM   20220808141424B7  1C0C  00004000000000156000000204132B7    AXARNE-M004300260014
BI00B32B7    A82043         202209307282-6448-40             CONNECTOR                CCN000003200000003200FN00000000020221201000003200NNM   20220808141424B7  4N0N  00000080000000887000001152732B7    AXARNE-M005600390040
BI00B32B7    #A82043        202209307135-7031                GROMMET                  CCN000002900000002900FN00000000020221201000002900NNM   20220808141421B7  2H0H  00000010000000634200000744232B7    AXARNE-M005400370024
BI00B32CA    PTA33021A      202209087114-5096-02             TERMINAL                 CCN000016000000030000FN00000000020220801000030000NNE   20220808131245    4P0P  00003000000000498000000792232CA    YPYPY   006400630015
BI00B32CA    PTA33021A      202209087114-5096-08             TERMINAL                 CCN000048000000060000FN00000000020220801000060000NNE   20220808131245    4P0P  00003000000000498000000792232CA    YPYPY   006400630015
BI00B32CA    PTA33021A      202209087116-3153-02             TERMINAL FEMALE          CCN000726000000729000FN00000000020220801000729000NNE   20220808131245    4P0P  00002700000000459000000744232CA    YPYPY   006400630015
BI00B32CA    PTA33021A      202209087116-3154-02             TERMINAL FEMALE          CCN000264000000270000FN00000000020220801000270000NNE   20220808131245    4P0P  00002700000000469800000755032CA    YPYPY   006400630015
BI00B32CA    PTA33021A      202209087116-4486-02             TERMINAL                 CCN000006500000028000FN00000000020220801000028000NNE   20220808131245    4P0P  00002800000000666400000995132CA    YPYPY   006400630017
BI00B32CA    PTA33021A      202209087196-0510-02             TERMINAL                 CCN000120000000120000FN00000000020220801000120000NNE   20220808131245    4P0P  00002400000000871200001034632CA    YPYPY   002800510028
BI00B32CA    PTA33021A      202209087287-9323                UNSEALED HOUSING SUB     CCN000007200000007200FN00000000020220801000007200NNE   20220808131245    1N0N  00000240000000537600000690032CA    YPYPY   005600390023
BI00B32CA    PTA33021A      202209087289-3342                HOUSING FEMALE ASS'Y     CCN000091200000091200FN00000000020220801000091200NNE   20220808131245    1N0N  00000240000000686400000901432CA    YPYPY   005500360039
BI00B32CA    PTA33021A      202209087289-3342-30             HOUSING FEMALE ASS'Y     CCN000100800000100800FN00000000020220801000100800NNE   20220808131245    1N0N  00000240000000686400000901432CA    YPYPY   005500360039
BI00B32CA    PTA33021A      202209087289-3342-90             HOUSING FEMALE ASS'Y     CCN000024000000024000FN00000000020220801000024000NNE   20220808131245    1N0N  00000240000000686400000901432CA    YPYPY   005500360039
BI00B32CA    #PTA33021A     202209087189-3032-30             HOUSING FEMALE           CCN000001600000001600FN00000000020220801000001600NNE   20220808131245    2F0F  00000160000000801600001021632CA    YPYPY   005500360039
BI00B32CH    SJ22103 MW     202209157017-1180-02             TERMINAL                 CCN000144000000144000FN00000000020221001000144000NNM   20220808131245    4P0P  00007200000001065600001229032CH    SJSAMIJF005100280028
BI00B32CH    SJ22104 MW     202209227017-1180-02             TERMINAL                 CCN000144000000144000FN00000000020221001000144000NNM   20220808131245    4P0P  00007200000001065600001229032CH    SJSAMIJF005100280028
BI00B32CH    SJ22103 MW     202209157017-1182-02             TERMINAL                 CCN000135000000135000FN00000000020221001000135000NNM   20220808131245    4P0P  00004500000001165500001318632CH    SJSAMIJF005100280028
BI00B32CH    SJ22104 MW     202209227017-1182-02             TERMINAL                 CCN000180000000180000FN00000000020221001000180000NNM   20220808131245    4P0P  00004500000001165500001318632CH    SJSAMIJF005100280028
BI00B32CH    SJ22102 MW     202209087017-1183-02             TERMINAL                 CCN000027000000027000FN00000000020221001000027000NNM   20220808131245    4P0P  00002700000001139400001307432CH    SJSAMIJF005100280028
BI00B32CH    SJ22103 MW     202209157017-1183-02             TERMINAL                 CCN000027000000027000FN00000000020221001000027000NNM   20220808131245    4P0P  00002700000001139400001307432CH    SJSAMIJF005100280028
BI00B32CH    SJ22104 MW     202209227017-1183-02             TERMINAL                 CCN000027000000027000FN00000000020221001000027000NNM   20220808131245    4P0P  00002700000001139400001307432CH    SJSAMIJF005100280028
BI00B32CH    SJ22103 MW     202209157114-4020                TERMINAL                 CCN000021000000021000FN00000000020221001000021000NNM   20220808131245    4P0P  00002100000000875700001169332CH    SJSAMIJF006400630015
BI00B32CH    SJ22104 MW     202209227114-4020                TERMINAL                 CCN000042000000042000FN00000000020221001000042000NNM   20220808131245    4P0P  00002100000000875700001169332CH    SJSAMIJF006400630015
BI00B32CH    SJ22101 MW     202209017114-4021                TERMINAL                 CCN000015000000015000FN00000000020221001000015000NNM   20220808131245    4P0P  00001500000000670500000964132CH    SJSAMIJF006400630015
BI00B32CH    SJ22101 MW     202209017114-4030                TERMINAL                 CCN000010500000010500FN00000000020221001000010500NNM   20220808131245    4P0P  00001050000000926100001254732CH    SJSAMIJF006400630017
BI00B32CH    SJ22102 MW     202209087114-4030                TERMINAL                 CCN000010500000010500FN00000000020221001000010500NNM   20220808131245    4P0P  00001050000000926100001254732CH    SJSAMIJF006400630017
BI00B32CH    SJ22103 MW     202209157114-4030                TERMINAL                 CCN000010500000010500FN00000000020221001000010500NNM   20220808131245    4P0P  00001050000000926100001254732CH    SJSAMIJF006400630017
BI00B32CH    SJ22104 MW     202209227114-4030                TERMINAL                 CCN000010500000010500FN00000000020221001000010500NNM   20220808131245    4P0P  00001050000000926100001254732CH    SJSAMIJF006400630017
BI00B32CH    SJ22103 MW     202209157114-4032                TERMINAL                 CCN000007500000007500FN00000000020221001000007500NNM   20220808131245    4P0P  00000750000000735000001063632CH    SJSAMIJF006400630017
BI00B32CH    SJ22104 MW     202209227114-4032                TERMINAL                 CCN000015000000015000FN00000000020221001000015000NNM   20220808131245    4P0P  00000750000000735000001063632CH    SJSAMIJF006400630017
BI00B32CH    SJ22102 MW     202209087114-4111-02             TERMINAL                 CCN000012000000012000FN00000000020221001000012000NNM   20220808131245    4P0P  00001200000000758400001087032CH    SJSAMIJF006400630017
BI00B32CH    SJ22103 MW     202209157114-4111-02             TERMINAL                 CCN000012000000012000FN00000000020221001000012000NNM   20220808131245    4P0P  00001200000000758400001087032CH    SJSAMIJF006400630017
BI00B32CH    SJ22104 MW     202209227114-4111-02             TERMINAL                 CCN000012000000012000FN00000000020221001000012000NNM   20220808131245    4P0P  00001200000000758400001087032CH    SJSAMIJF006400630017
BI00B32CH    SJ22104 MW     202209227114-4112-02             TERMINAL                 CCN000009000000009000FN00000000020221001000009000NNM   20220808131245    4P0P  00000900000000598500000927132CH    SJSAMIJF006400630017
BI00B32CH    SJ22103 MW     202209157114-4728-02             TERMINAL                 CCN000030000000030000FN00000000020221001000030000NNM   20220808131245    4P0P  00003000000000510000000804232CH    SJSAMIJF006400630015
BI00B32CH    SJ22104 MW     202209227114-4728-02             TERMINAL                 CCN000120000000120000FN00000000020221001000120000NNM   20220808131245    4P0P  00003000000000510000000804232CH    SJSAMIJF006400630015
BI00B32CH    SJ22103 MW     202209157114-4729-02             TERMINAL                 CCN000024000000030000FN00000000020221001000030000NNM   20220808131245    4P0P  00003000000000516000000810232CH    SJSAMIJF006400630015
BI00B32CH    SJ22104 MW     202209227114-4729-02             TERMINAL                 CCN000024000000030000FN00000000020221001000030000NNM   20220808131245    4P0P  00003000000000516000000810232CH    SJSAMIJF006400630015
BI00B32CH    SJ22102 MW     202209087114-5746-02             TERMINAL                 CCN000021000000021000FN00000000020221001000021000NNM   20220808131245    4P0P  00002100000000695100000988732CH    SJSAMIJF006400630015
BI00B32CH    SJ22103 MW     202209157114-5746-02             TERMINAL                 CCN000021000000021000FN00000000020221001000021000NNM   20220808131245    4P0P  00002100000000695100000988732CH    SJSAMIJF006400630015
BI00B32CH    SJ22104 MW     202209227114-5746-02             TERMINAL                 CCN000021000000021000FN00000000020221001000021000NNM   20220808131245    4P0P  00002100000000695100000988732CH    SJSAMIJF006400630015
BI00B32CH    SJ22102 MW     202209087114-5747-02             TERMINAL                 CCN000036000000036000FN00000000020221001000036000NNM   20220808131245    4P0P  00001800000000626400000920032CH    SJSAMIJF006400630015
BI00B32CH    SJ22103 MW     202209157114-5747-02             TERMINAL                 CCN000036000000036000FN00000000020221001000036000NNM   20220808131245    4P0P  00001800000000626400000920032CH    SJSAMIJF006400630015
BI00B32CH    SJ22104 MW     202209227114-5747-02             TERMINAL                 CCN000054000000054000FN00000000020221001000054000NNM   20220808131245    4P0P  00001800000000626400000920032CH    SJSAMIJF006400630015
BI00B32CH    SJ22104 MW     202209227114-5748-02             TERMINAL                 CCN000012000000012000FN00000000020221001000012000NNM   20220808131245    4P0P  00001200000000444000000737632CH    SJSAMIJF006400630015
BI00B32CH    SJ22102 MW     202209087116-2640                TERMINAL                 CCN000018000000018000FN00000000020221001000018000NNM   20220808131245    4P0P  00001800000001018800001196632CH    SJSAMIJF005100280028
BI00B32CH    SJ22103 MW     202209157116-3153-02             TERMINAL FEMALE          CCN000280000000297000FN00000000020221001000297000NNM   20220808131245    4P0P  00002700000000459000000744232CH    SJSAMIJF006400630015
BI00B32CH    SJ22104 MW     202209227116-3153-02             TERMINAL FEMALE          CCN000760000000783000FN00000000020221001000783000NNM   20220808131245    4P0P  00002700000000459000000744232CH    SJSAMIJF006400630015
BI00B32CH    SJ22102 MW     202209087116-3154-02             TERMINAL FEMALE          CCN000160000000162000FN00000000020221001000162000NNM   20220808131245    4P0P  00002700000000469800000755032CH    SJSAMIJF006400630015
BI00B32CH    SJ22103 MW     202209157116-3154-02             TERMINAL FEMALE          CCN000640000000648000FN00000000020221001000648000NNM   20220808131245    4P0P  00002700000000469800000755032CH    SJSAMIJF006400630015
BI00B32CH    SJ22104 MW     202209227116-3154-02             TERMINAL FEMALE          CCN000600000000621000FN00000000020221001000621000NNM   20220808131245    4P0P  00002700000000469800000755032CH    SJSAMIJF006400630015
BI00B32CH    SJ22101 MW     202209017116-4020                TERMINAL                 CCN000027000000027000FN00000000020221001000027000NNM   20220808131245    4P0P  00001350000000513000000798232CH    SJSAMIJF006400630015
BI00B32CH    SJ22102 MW     202209087116-4020                TERMINAL                 CCN000013500000013500FN00000000020221001000013500NNM   20220808131245    4P0P  00001350000000513000000798232CH    SJSAMIJF006400630015
BI00B32CH    SJ22101 MW     202209017116-4025                TERMINAL                 CCN000016000000016000FN00000000020221001000016000NNM   20220808131245    4P0P  00001600000000644800000975132CH    SJSAMIJF006400630017
BI00B32CH    SJ22102 MW     202209087116-4025                TERMINAL                 CCN000016000000016000FN00000000020221001000016000NNM   20220808131245    4P0P  00001600000000644800000975132CH    SJSAMIJF006400630017
BI00B32CH    SJ22103 MW     202209157116-4025                TERMINAL                 CCN000016000000016000FN00000000020221001000016000NNM   20220808131245    4P0P  00001600000000644800000975132CH    SJSAMIJF006400630017
BI00B32CH    SJ22102 MW     202209087116-4028-08             TERMINAL FEMALE          CCN000016000000016000FN00000000020221001000016000NNM   20220808131245    4P0P  00001600000000652800000981532CH    SJSAMIJF006400630017
BI00B32CH    SJ22103 MW     202209157116-4028-08             TERMINAL FEMALE          CCN000096000000096000FN00000000020221001000096000NNM   20220808131245    4P0P  00001600000000652800000981532CH    SJSAMIJF006400630017
BI00B32CH    SJ22104 MW     202209227116-4028-08             TERMINAL FEMALE          CCN000112000000112000FN00000000020221001000112000NNM   20220808131245    4P0P  00001600000000652800000981532CH    SJSAMIJF006400630017
BI00B32CH    SJ22102 MW     202209087116-4031                TERMINAL                 CCN000007500000007500FN00000000020221001000007500NNM   20220808131245    4P0P  00000750000000619500000904732CH    SJSAMIJF006400630015
BI00B32CH    SJ22103 MW     202209157116-4031                TERMINAL                 CCN000030000000030000FN00000000020221001000030000NNM   20220808131245    4P0P  00000750000000619500000904732CH    SJSAMIJF006400630015
BI00B32CH    SJ22104 MW     202209227116-4031                TERMINAL                 CCN000037500000037500FN00000000020221001000037500NNM   20220808131245    4P0P  00000750000000619500000904732CH    SJSAMIJF006400630015
BI00B32CH    SJ22102 MW     202209087116-4032                TERMINAL                 CCN000036000000036000FN00000000020221001000036000NNM   20220808131245    4P0P  00000600000000532800000818032CH    SJSAMIJF006400630015
BI00B32CH    SJ22103 MW     202209157116-4032                TERMINAL                 CCN000144000000144000FN00000000020221001000144000NNM   20220808131245    4P0P  00000600000000532800000818032CH    SJSAMIJF006400630015
BI00B32CH    SJ22104 MW     202209227116-4032                TERMINAL                 CCN000144000000144000FN00000000020221001000144000NNM   20220808131245    4P0P  00000600000000532800000818032CH    SJSAMIJF006400630015
BI00B32CH    SJ22102 MW     202209087116-4037                TERMINAL                 CCN000024000000024000FN00000000020221001000024000NNM   20220808131245    4P0P  00000600000000600000000894232CH    SJSAMIJF006400630015
BI00B32CH    SJ22103 MW     202209157116-4037                TERMINAL                 CCN000042000000042000FN00000000020221001000042000NNM   20220808131245    4P0P  00000600000000600000000894232CH    SJSAMIJF006400630015
BI00B32CH    SJ22104 MW     202209227116-4037                TERMINAL                 CCN000036000000036000FN00000000020221001000036000NNM   20220808131245    4P0P  00000600000000600000000894232CH    SJSAMIJF006400630015
BI00B32CH    SJ22102 MW     202209087116-4231-02             TERMINAL                 CCN000104000000104000FN00000000020221001000104000NNM   20220808131245    4P0P  00002600000000683800001012532CH    SJSAMIJF006400630017
BI00B32CH    SJ22103 MW     202209157116-4231-02             TERMINAL                 CCN000104000000104000FN00000000020221001000104000NNM   20220808131245    4P0P  00002600000000683800001012532CH    SJSAMIJF006400630017
BI00B32CH    SJ22104 MW     202209227116-4231-02             TERMINAL                 CCN000104000000104000FN00000000020221001000104000NNM   20220808131245    4P0P  00002600000000683800001012532CH    SJSAMIJF006400630017
BI00B32CH    SJ22102 MW     202209087116-4415-02             TERMINAL                 CCN000380000000380000FN00000000020221001000380000NNM   20220808131245    4P0P  00003800000000596600000925732CH    SJSAMIJF006400630017
BI00B32CH    SJ22103 MW     202209157116-4415-02             TERMINAL                 CCN000494000000494000FN00000000020221001000494000NNM   20220808131245    4P0P  00003800000000596600000925732CH    SJSAMIJF006400630017
BI00B32CH    SJ22104 MW     202209227116-4415-02             TERMINAL                 CCN000532000000532000FN00000000020221001000532000NNM   20220808131245    4P0P  00003800000000596600000925732CH    SJSAMIJF006400630017
BI00B32CH    SJ22102 MW     202209087116-4416-02             TERMINAL                 CCN000032000000032000FN00000000020221001000032000NNM   20220808131245    4P0P  00003200000000518400000847132CH    SJSAMIJF006400630017
BI00B32CH    SJ22103 MW     202209157116-4416-02             TERMINAL                 CCN000128000000128000FN00000000020221001000128000NNM   20220808131245    4P0P  00003200000000518400000847132CH    SJSAMIJF006400630017
BI00B32CH    SJ22104 MW     202209227116-4416-02             TERMINAL                 CCN000128000000128000FN00000000020221001000128000NNM   20220808131245    4P0P  00003200000000518400000847132CH    SJSAMIJF006400630017
BI00B32CH    SJ22102 MW     202209087116-4486-02             TERMINAL                 CCN000028000000028000FN00000000020221001000028000NNM   20220808131245    4P0P  00002800000000666400000995132CH    SJSAMIJF006400630017
BI00B32CH    SJ22103 MW     202209157116-4486-02             TERMINAL                 CCN000112000000112000FN00000000020221001000112000NNM   20220808131245    4P0P  00002800000000666400000995132CH    SJSAMIJF006400630017
BI00B32CH    SJ22104 MW     202209227116-4486-02             TERMINAL                 CCN000112000000112000FN00000000020221001000112000NNM   20220808131245    4P0P  00002800000000666400000995132CH    SJSAMIJF006400630017
BI00B32CH    SJ22102 MW     202209087116-5041-02             TERMINAL                 CCN000015000000015000FN00000000020221001000015000NNM   20220808131245    4P0P  00001500000000583500000868732CH    SJSAMIJF006400630015
BI00B32CH    SJ22103 MW     202209157116-5041-02             TERMINAL                 CCN000315000000315000FN00000000020221001000315000NNM   20220808131245    4P0P  00001500000000583500000868732CH    SJSAMIJF006400630015
BI00B32CH    SJ22104 MW     202209227116-5041-02             TERMINAL                 CCN000300000000300000FN00000000020221001000300000NNM   20220808131245    4P0P  00001500000000583500000868732CH    SJSAMIJF006400630015
BI00B32CH    SJ22103 MW     202209157116-5042-02             TERMINAL                 CCN000175500000175500FN00000000020221001000175500NNM   20220808131245    4P0P  00001350000000560300000845532CH    SJSAMIJF006400630015
BI00B32CH    SJ22104 MW     202209227116-5042-02             TERMINAL                 CCN000202500000202500FN00000000020221001000202500NNM   20220808131245    4P0P  00001350000000560300000845532CH    SJSAMIJF006400630015
BI00B32CH    SJ22102 MW     202209087116-5043-02             TERMINAL FEMALE          CCN000048000000048000FN00000000020221001000048000NNM   20220808131245    4P0P  00001200000000559200000844432CH    SJSAMIJF006400630015
BI00B32CH    SJ22103 MW     202209157116-5043-02             TERMINAL FEMALE          CCN000132000000132000FN00000000020221001000132000NNM   20220808131245    4P0P  00001200000000559200000844432CH    SJSAMIJF006400630015
BI00B32CH    SJ22104 MW     202209227116-5043-02             TERMINAL FEMALE          CCN000132000000132000FN00000000020221001000132000NNM   20220808131245    4P0P  00001200000000559200000844432CH    SJSAMIJF006400630015
BI00B32CH    SJ22102 MW     202209087116-5044-02             TERMINAL                 CCN000016000000016000FN00000000020221001000016000NNM   20220808131245    4P0P  00001600000000641600000986332CH    SJSAMIJF006400630017
BI00B32CH    SJ22103 MW     202209157116-5044-02             TERMINAL                 CCN000464000000464000FN00000000020221001000464000NNM   20220808131245    4P0P  00001600000000641600000986332CH    SJSAMIJF006400630017
BI00B32CH    SJ22104 MW     202209227116-5044-02             TERMINAL                 CCN000464000000464000FN00000000020221001000464000NNM   20220808131245    4P0P  00001600000000641600000986332CH    SJSAMIJF006400630017
BI00B32CH    SJ22103 MW     202209157116-5045-02             TERMINAL                 CCN000288000000288000FN00000000020221001000288000NNM   20220808131245    4P0P  00001600000000678400001007132CH    SJSAMIJF006400630017
BI00B32CH    SJ22104 MW     202209227116-5045-02             TERMINAL                 CCN000272000000272000FN00000000020221001000272000NNM   20220808131245    4P0P  00001600000000678400001007132CH    SJSAMIJF006400630017
BI00B32CH    SJ22102 MW     202209087116-5046-02             TERMINAL                 CCN000012000000012000FN00000000020221001000012000NNM   20220808131245    4P0P  00001200000000544800000873532CH    SJSAMIJF006400630017
BI00B32CH    SJ22103 MW     202209157116-5046-02             TERMINAL                 CCN000012000000012000FN00000000020221001000012000NNM   20220808131245    4P0P  00001200000000544800000873532CH    SJSAMIJF006400630017
BI00B32CH    SJ22104 MW     202209227116-5046-02             TERMINAL                 CCN000012000000012000FN00000000020221001000012000NNM   20220808131245    4P0P  00001200000000544800000873532CH    SJSAMIJF006400630017
BI00B32CH    SJ22103 MW     202209157116-5750-02             TERMINAL                 CCN000420000000420000FN00000000020221001000420000NNM   20220808131245    4P0P  00001500000000457500000742732CH    SJSAMIJF006400630015
BI00B32CH    SJ22104 MW     202209227116-5750-02             TERMINAL                 CCN000525000000525000FN00000000020221001000525000NNM   20220808131245    4P0P  00001500000000457500000742732CH    SJSAMIJF006400630015
BI00B32CH    SJ22102 MW     202209087116-5752-02             TERMINAL                 CCN000042000000042000FN00000000020221001000042000NNM   20220808131245    4P0P  00002100000000571200000856432CH    SJSAMIJF006400630015
BI00B32CH    SJ22103 MW     202209157116-5752-02             TERMINAL                 CCN000084000000084000FN00000000020221001000084000NNM   20220808131245    4P0P  00002100000000571200000856432CH    SJSAMIJF006400630015
BI00B32CH    SJ22104 MW     202209227116-5752-02             TERMINAL                 CCN000063000000063000FN00000000020221001000063000NNM   20220808131245    4P0P  00002100000000571200000856432CH    SJSAMIJF006400630015
BI00B32CH    SJ22102 MW     202209087116-6041                TERMINAL                 CCN000117000000117000FN00000000020221001000117000NNM   20220808131245    4P0P  00000450000000716000001009632CH    SJSAMIJF006400630015
BI00B32CH    SJ22103 MW     202209157116-6041                TERMINAL                 CCN000121500000121500FN00000000020221001000121500NNM   20220808131245    4P0P  00000450000000716000001009632CH    SJSAMIJF006400630015
BI00B32CH    SJ22104 MW     202209227116-6041                TERMINAL                 CCN000130500000130500FN00000000020221001000130500NNM   20220808131245    4P0P  00000450000000716000001009632CH    SJSAMIJF006400630015
BI00B32CH    SJ22102 MW     202209087116-6042                TERMINAL                 CCN000063000000063000FN00000000020221001000063000NNM   20220808131245    4P0P  00000300000000523800000856132CH    SJSAMIJF006400630015
BI00B32CH    SJ22103 MW     202209157116-6042                TERMINAL                 CCN000072000000072000FN00000000020221001000072000NNM   20220808131245    4P0P  00000300000000523800000856132CH    SJSAMIJF006400630015
BI00B32CH    SJ22104 MW     202209227116-6042                TERMINAL                 CCN000090000000090000FN00000000020221001000090000NNM   20220808131245    4P0P  00000300000000523800000856132CH    SJSAMIJF006400630015
BI00B32CH    SJ22102 MW     202209087126-8853-02             TERMINAL                 CCN000127500000127500FN00000000020221001000127500NNM   20220808131245    4P0P  00000750000000562500000847732CH    SJSAMIJF006400630015
BI00B32CH    SJ22103 MW     202209157126-8853-02             TERMINAL                 CCN000240000000240000FN00000000020221001000240000NNM   20220808131245    4P0P  00000750000000562500000847732CH    SJSAMIJF006400630015
BI00B32CH    SJ22104 MW     202209227126-8853-02             TERMINAL                 CCN000247500000247500FN00000000020221001000247500NNM   20220808131245    4P0P  00000750000000562500000847732CH    SJSAMIJF006400630015
BI00B32CH    SJ22102 MW     202209087126-8854-02             TERMINAL                 CCN000232500000232500FN00000000020221001000232500NNM   20220808131245    4P0P  00000750000000604500000889732CH    SJSAMIJF006400630015
BI00B32CH    SJ22103 MW     202209157126-8854-02             TERMINAL                 CCN000307500000307500FN00000000020221001000307500NNM   20220808131245    4P0P  00000750000000604500000889732CH    SJSAMIJF006400630015
BI00B32CH    SJ22104 MW     202209227126-8854-02             TERMINAL                 CCN000315000000315000FN00000000020221001000315000NNM   20220808131245    4P0P  00000750000000604500000889732CH    SJSAMIJF006400630015
BI00B32CH    SJ22102 MW     202209087158-3006-90             RUBBER STOPPER           CCN000040000000040000FN00000000020221001000040000NNM   20220808131245    1C0C  00002000000000330600000386032CH    SJSAMIJF002700430014
BI00B32CH    SJ22103 MW     202209157158-3006-90             RUBBER STOPPER           CCN000420000000420000FN00000000020221001000420000NNM   20220808131245    1C0C  00002000000000330600000386032CH    SJSAMIJF002700430014
BI00B32CH    SJ22104 MW     202209227158-3006-90             RUBBER STOPPER           CCN000400000000400000FN00000000020221001000400000NNM   20220808131245    1C0C  00002000000000330600000386032CH    SJSAMIJF002700430014
BI00B32CH    SJ22102 MW     202209087158-3009-60             RUBBER STOPPER           CCN000020000000020000FN00000000020221001000020000NNM   20220808131245    1C0C  00002000000000338000000386232CH    SJSAMIJF002700430014
BI00B32CH    SJ22103 MW     202209157158-3009-60             RUBBER STOPPER           CCN000360000000360000FN00000000020221001000360000NNM   20220808131245    1C0C  00002000000000338000000386232CH    SJSAMIJF002700430014
BI00B32CH    SJ22104 MW     202209227158-3009-60             RUBBER STOPPER           CCN000320000000320000FN00000000020221001000320000NNM   20220808131245    1C0C  00002000000000338000000386232CH    SJSAMIJF002700430014
BI00B32CH    SJ22102 MW     202209087158-3022-80             RUBBER STOPPER           CCN000005000000005000FN00000000020221001000005000NNM   20220808131245    1C0C  00000500000000467500000524032CH    SJSAMIJF002700430014
BI00B32CH    SJ22103 MW     202209157158-3022-80             RUBBER STOPPER           CCN000010000000010000FN00000000020221001000010000NNM   20220808131245    1C0C  00000500000000467500000524032CH    SJSAMIJF002700430014
BI00B32CH    SJ22104 MW     202209227158-3022-80             RUBBER STOPPER           CCN000015000000015000FN00000000020221001000015000NNM   20220808131245    1C0C  00000500000000467500000524032CH    SJSAMIJF002700430014
BI00B32CH    SJ22102 MW     202209087158-3165-90             WIRE SEAL                CCN000200000000200000FN00000000020221001000200000NNM   20220808131245    1C0C  00004000000000124000000172432CH    SJSAMIJF004300270014
BI00B32CH    SJ22103 MW     202209157158-3165-90             WIRE SEAL                CCN000200000000200000FN00000000020221001000200000NNM   20220808131245    1C0C  00004000000000124000000172432CH    SJSAMIJF004300270014
BI00B32CH    SJ22104 MW     202209227158-3165-90             WIRE SEAL                CCN000280000000280000FN00000000020221001000280000NNM   20220808131245    1C0C  00004000000000124000000172432CH    SJSAMIJF004300270014
BI00B32CH    SJ22102 MW     202209087158-3167-80             WIRE SEAL                CCN000040000000040000FN00000000020221001000040000NNM   20220808131245    1C0C  00002000000000048000000109032CH    SJSAMIJF002700430014
BI00B32CH    SJ22103 MW     202209157158-3167-80             WIRE SEAL                CCN000040000000040000FN00000000020221001000040000NNM   20220808131245    1C0C  00002000000000048000000109032CH    SJSAMIJF002700430014
BI00B32CH    SJ22104 MW     202209227158-3167-80             WIRE SEAL                CCN000060000000060000FN00000000020221001000060000NNM   20220808131245    1C0C  00002000000000048000000109032CH    SJSAMIJF002700430014
BI00B32CH    SJ22102 MW     202209087158-3169-40             SEALING PLUG             CCN000040000000040000FN00000000020221001000040000NNM   20220808131245    1C0C  00004000000000156000000204132CH    SJSAMIJF004300260014
BI00B32CH    SJ22103 MW     202209157158-3169-40             SEALING PLUG             CCN000080000000080000FN00000000020221001000080000NNM   20220808131245    1C0C  00004000000000156000000204132CH    SJSAMIJF004300260014
BI00B32CH    SJ22104 MW     202209227158-3169-40             SEALING PLUG             CCN000120000000120000FN00000000020221001000120000NNM   20220808131245    1C0C  00004000000000156000000204132CH    SJSAMIJF004300260014
BI00B32CH    SJ22102 MW     202209087283-4576                HOUSING FEMALE ASS'Y     CCN000004800000004800FN00000000020221001000004800NNM   20220808131245    4N0N  00000480000000651300000871332CH    SJSAMIJF005500360039
BI00B32CH    SJ22103 MW     202209157283-4576                HOUSING FEMALE ASS'Y     CCN000004800000004800FN00000000020221001000004800NNM   20220808131245    4N0N  00000480000000651300000871332CH    SJSAMIJF005500360039
BI00B32CH    SJ22104 MW     202209227283-7526-40             CONNECTOR HOUSING        CCN000001960000001960FN00000000020221001000001960NNM   20220808131245    4N0N  00000196000000989800001248632CH    SJSAMIJF005500360039
BI00B32CH    SJ22102 MW     202209087287-9234                JOINT CONNECTOR          CCN000009600000009600FN00000000020221001000009600NNM   20220808131245    4N0N  00000960000000893800001184832CH    SJSAMIJF005500360039
BI00B32CH    SJ22101 MW     202209017327-6832-60             MAIN FUSE                CCN000003600000003600FN00000000020221001000003600NNM   20220808131245    4N0N  00000060000000729200000930732CH    SJSAMIJF005400370024
BI00B32CH    SJ22102 MW     202209087327-6832-60             MAIN FUSE                CCN000010800000010800FN00000000020221001000010800NNM   20220808131245    4N0N  00000060000000729200000930732CH    SJSAMIJF005400370024
BI00B32CH    SJ22103 MW     202209157327-6832-60             MAIN FUSE                CCN000011400000011400FN00000000020221001000011400NNM   20220808131245    4N0N  00000060000000729200000930732CH    SJSAMIJF005400370024
BI00B32CH    SJ22104 MW     202209227327-6832-60             MAIN FUSE                CCN000010800000010800FN00000000020221001000010800NNM   20220808131245    4N0N  00000060000000729200000930732CH    SJSAMIJF005400370024
BI00B32CH    SJ22102 MW     202209087388-0315-40             CONNECTOR ASS'Y          CCN000002400000002400FN00000000020221001000002400NNM   20220808131245    4N0N  00000120000000999600001129632CH    SJSAMIJF005400370024
BI00B32CH    SJ22103 MW     202209157388-0315-40             CONNECTOR ASS'Y          CCN000001200000001200FN00000000020221001000001200NNM   20220808131245    4N0N  00000120000000999600001129632CH    SJSAMIJF005400370024
BI00B32CH    SJ22104 MW     202209227388-0315-40             CONNECTOR ASS'Y          CCN000003600000003600FN00000000020221001000003600NNM   20220808131245    4N0N  00000120000000999600001129632CH    SJSAMIJF005400370024
BI00B32CH    #SJ22103 MW    202209157116-4021                TERMINAL                 CCN000013500000013500FN00000000020221001000013500NNM   20220808131245    2F0P  00001350000000534600000868832CH    SJSAMIJF006400630015
BI00B32CH    #SJ22102 MW    202209087158-3003-90             RUBBER STOPPER           CCN000060000000060000FN00000000020221001000060000NNM   20220808131245    2C0C  00002000000000250000000306032CH    SJSAMIJF002700430014
BI00B32CH    #SJ22103 MW    202209157158-3003-90             RUBBER STOPPER           CCN000120000000120000FN00000000020221001000120000NNM   20220808131245    2C0C  00002000000000250000000306032CH    SJSAMIJF002700430014
BI00B32CH    #SJ22104 MW    202209227158-3003-90             RUBBER STOPPER           CCN000100000000100000FN00000000020221001000100000NNM   20220808131245    2C0C  00002000000000250000000306032CH    SJSAMIJF002700430014
BI00B32CH    #SJ22102 MW    202209087158-3007-10             RUBBER STOPPER           CCN000020000000020000FN00000000020221001000020000NNM   20220808131245    2H0H  00002000000000308000000362732CH    SJSAMIJF002700430014
BI00B32CH    #SJ22103 MW    202209157158-3007-10             RUBBER STOPPER           CCN000040000000040000FN00000000020221001000040000NNM   20220808131245    2H0H  00002000000000308000000362732CH    SJSAMIJF002700430014
BI00B32CH    #SJ22104 MW    202209227158-3007-10             RUBBER STOPPER           CCN000040000000040000FN00000000020221001000040000NNM   20220808131245    2H0H  00002000000000308000000362732CH    SJSAMIJF002700430014
BI00B32CH    #SJ22104 MW    202209227158-3008-80             RUBBER STOPPER           CCN000020000000020000FN00000000020221001000020000NNM   20220808131245    2C0C  00002000000000288000000343032CH    SJSAMIJF004300270014
BI00B32CH    #SJ22102 MW    202209087158-3015-10             RUBBER STOPPER           CCN000010000000010000FN00000000020221001000010000NNM   20220808131245    2C0C  00001000000000419500000474032CH    SJSAMIJF002700430014
BI00B32CH    #SJ22103 MW    202209157158-3015-10             RUBBER STOPPER           CCN000020000000020000FN00000000020221001000020000NNM   20220808131245    2C0C  00001000000000419500000474032CH    SJSAMIJF002700430014
BI00B32CH    #SJ22104 MW    202209227158-3015-10             RUBBER STOPPER           CCN000020000000020000FN00000000020221001000020000NNM   20220808131245    2C0C  00001000000000419500000474032CH    SJSAMIJF002700430014
BI00B32CH    #SJ22103 MW    202209157183-1615                HOUSING                  CCN000004800000004800FN00000000020221001000004800NNM   20220808131245    2F0F  00000480000000757000001042032CH    SJSAMIJF005500360039
BI00B32CH    #SJ22104 MW    202209227183-1615                HOUSING                  CCN000004800000004800FN00000000020221001000004800NNM   20220808131245    2F0F  00000480000000757000001042032CH    SJSAMIJF005500360039
BI00B32CH    #SJ22102 MW    202209087183-2414                CONNECTOR HOUSING        CCN000004800000004800FN00000000020221001000004800NNM   20220808131245    2F0F  00000480000000779200001061032CH    SJSAMIJF005500360039
BI00B32CH    #SJ22103 MW    202209157183-2414                CONNECTOR HOUSING        CCN000038400000038400FN00000000020221001000038400NNM   20220808131245    2F0F  00000480000000779200001061032CH    SJSAMIJF005500360039
BI00B32CH    #SJ22104 MW    202209227183-2414                CONNECTOR HOUSING        CCN000033600000033600FN00000000020221001000033600NNM   20220808131245    2F0F  00000480000000779200001061032CH    SJSAMIJF005500360039
BI00B32CH    #SJ22103 MW    202209157183-2418                CONNECTOR HOUSING        CCN000004800000004800FN00000000020221001000004800NNM   20220808131245    2F0F  00000480000000917000001477032CH    SJSAMIJF005500360039
BI00B32CH    #SJ22102 MW    202209087187-8856                HOUSING FEMALE           CCN000024000000024000FN00000000020221001000024000NNM   20220808131245    2F0F  00000200000000820000000931532CH    SJSAMIJF005400370024
BI00B32CH    #SJ22103 MW    202209157187-8856                HOUSING FEMALE           CCN000022000000022000FN00000000020221001000022000NNM   20220808131245    2F0F  00000200000000820000000931532CH    SJSAMIJF005400370024
BI00B32CH    #SJ22104 MW    202209227187-8856                HOUSING FEMALE           CCN000030000000030000FN00000000020221001000030000NNM   20220808131245    2F0F  00000200000000820000000931532CH    SJSAMIJF005400370024
BI00B32CH    #SJ22102 MW    202209087198-1371-60             HOUSING FEMALE           CCN000012000000012000FN00000000020221001000012000NNM   20220808131245    2F0F  00000200000000597800000721232CH    SJSAMIJF005400370024
BI00B32CH    #SJ22103 MW    202209157198-1371-60             HOUSING FEMALE           CCN000014000000014000FN00000000020221001000014000NNM   20220808131245    2F0F  00000200000000597800000721232CH    SJSAMIJF005400370024
BI00B32CH    #SJ22104 MW    202209227198-1371-60             HOUSING FEMALE           CCN000016000000016000FN00000000020221001000016000NNM   20220808131245    2F0F  00000200000000597800000721232CH    SJSAMIJF005400370024
BI00B32CH    @SJ22102 MW    202209087123-2825                HOUSING                  CCN000006000000006000FN00000000020221001000006000NNM   20220808131245    3F0F  00000600000000958800001136432CH    SJSAMIJF005500360039
BI00B32CH    @SJ22103 MW    202209157123-2825                HOUSING                  CCN000012000000012000FN00000000020221001000012000NNM   20220808131245    3F0F  00000600000000958800001136432CH    SJSAMIJF005500360039
BI00B32CH    @SJ22104 MW    202209227123-2825                HOUSING                  CCN000012000000012000FN00000000020221001000012000NNM   20220808131245    3F0F  00000600000000958800001136432CH    SJSAMIJF005500360039
BI00B32CH    SJ22101DMW     202209017114-4624-02             TERMINAL                 CCN000024000000024000FN00000000020221001000024000NNM   20220808131245    4P0P  00002400000000895200001188832CH    SJSAMIJF006400630015
BI00B32CH    SJ22103DMW     202209157114-4624-02             TERMINAL                 CCN000024000000024000FN00000000020221001000024000NNM   20220808131245    4P0P  00002400000000895200001188832CH    SJSAMIJF006400630015
BI00B32CH    SJ22103DMW     202209157116-5751-02             TERMINAL                 CCN000024000000024000FN00000000020221001000024000NNM   20220808131245    4P0P  00001200000000379200000664432CH    SJSAMIJF006400630015
BI00B32CH    SJ22104DMW     202209227116-5751-02             TERMINAL                 CCN000012000000012000FN00000000020221001000012000NNM   20220808131245    4P0P  00001200000000379200000664432CH    SJSAMIJF006400630015
BI00B32CH    SJ22104DMW     202209227286-4097                CONNECTOR MALE ASS'Y     CCN000001600000001600FN00000000020221001000001600NNM   20220808131245    1N0N  00000160000000768000000978032CH    SJSAMIJF005500360039
BI00B32CH    SJ22103DMW     202209157287-3885-30             HYBRID FEMALE ASS'Y      CCN000024000000024000FN00000000020221001000024000NNM   20220808131245    1N0N  00000240000001029600001249632CH    SJSAMIJF005500360039
BI00B32CH    SJ22104DMW     202209227287-3885-30             HYBRID FEMALE ASS'Y      CCN000033600000033600FN00000000020221001000033600NNM   20220808131245    1N0N  00000240000001029600001249632CH    SJSAMIJF005500360039
BI00B32CH    #SJ22102DMW    202209087183-0522                HOUSING                  CCN000004800000004800FN00000000020221001000004800NNM   20220808131245    2F0F  00000240000000951000001230032CH    SJSAMIJF005500360039
BI00B32CH    #SJ22103DMW    202209157183-0522                HOUSING                  CCN000004800000004800FN00000000020221001000004800NNM   20220808131245    2F0F  00000240000000951000001230032CH    SJSAMIJF005500360039
BI00B32CH    #SJ22104DMW    202209227183-0522                HOUSING                  CCN000004800000004800FN00000000020221001000004800NNM   20220808131245    2F0F  00000240000000951000001230032CH    SJSAMIJF005500360039
BI00B32CH    #SJ22102DMW    202209087183-2413                CONNECTOR HOUSING        CCN000009600000009600FN00000000020221001000009600NNM   20220808131245    2F0F  00000480000000478100000760032CH    SJSAMIJF005500360039
BI00B32CH    #SJ22103DMW    202209157183-2413                CONNECTOR HOUSING        CCN000009600000009600FN00000000020221001000009600NNM   20220808131245    2F0F  00000480000000478100000760032CH    SJSAMIJF005500360039
BI00B32CH    #SJ22104DMW    202209227183-2413                CONNECTOR HOUSING        CCN000014400000014400FN00000000020221001000014400NNM   20220808131245    2F0F  00000480000000478100000760032CH    SJSAMIJF005500360039
BI00B32CH    #SJ22102DMW    202209087183-2415                CONNECTOR HOUSING        CCN000004800000004800FN00000000020221001000004800NNM   20220808131245    2F0F  00000480000000798200001091432CH    SJSAMIJF005500360039
BI00B32CH    #SJ22103DMW    202209157183-2415                CONNECTOR HOUSING        CCN000009600000009600FN00000000020221001000009600NNM   20220808131245    2F0F  00000480000000798200001091432CH    SJSAMIJF005500360039
BI00B32CH    #SJ22104DMW    202209227183-2415                CONNECTOR HOUSING        CCN000009600000009600FN00000000020221001000009600NNM   20220808131245    2F0F  00000480000000798200001091432CH    SJSAMIJF005500360039
BI00B32CH    #SJ22103DMW    202209157183-6320                HOUSING                  CCN000004800000004800FN00000000020221001000004800NNM   20220808131245    2F0F  00000480000000820800001103632CH    SJSAMIJF005500360039
BI00B32CH    #SJ22104DMW    202209227183-6320                HOUSING                  CCN000004800000004800FN00000000020221001000004800NNM   20220808131245    2F0F  00000480000000820800001103632CH    SJSAMIJF005500360039
BI00B32CH    #SJ22102DMW    202209087189-3031                HOUSING FEMALE           CCN000004800000004800FN00000000020221001000004800NNM   20220808131245    2F0F  00000240000000928800001365832CH    SJSAMIJF005500360039
BI00B32CH    #SJ22103DMW    202209157189-3031                HOUSING FEMALE           CCN000004800000004800FN00000000020221001000004800NNM   20220808131245    2F0F  00000240000000928800001365832CH    SJSAMIJF005500360039
BI00B32CH    #SJ22104DMW    202209227189-3031                HOUSING FEMALE           CCN000004800000004800FN00000000020221001000004800NNM   20220808131245    2F0F  00000240000000928800001365832CH    SJSAMIJF005500360039
BI00B32CH    #SJ22102DMW    202209087283-8730-30             HOUSING FEMALE ASS'Y     CCN000002000000002000FN00000000020221001000002000NNM   20220808131245    2N0N  00000200000000794000000906532CH    SJSAMIJF005400370024
BI00B32CH    #SJ22103DMW    202209157283-8730-30             HOUSING FEMALE ASS'Y     CCN000002000000002000FN00000000020221001000002000NNM   20220808131245    2N0N  00000200000000794000000906532CH    SJSAMIJF005400370024
BI00B32CH    #SJ22104DMW    202209227283-8730-30             HOUSING FEMALE ASS'Y     CCN000004000000004000FN00000000020221001000004000NNM   20220808131245    2N0N  00000200000000794000000906532CH    SJSAMIJF005400370024
BI00B32CH    #SJ22103DMW    202209157289-2912-30             HOUSING FEMALE ASS'Y     CCN000004000000004000FN00000000020221001000004000NNM   20220808131245    2N0N  00000200000000804000000929032CH    SJSAMIJF005400370024
BI00B32CH    #SJ22104DMW    202209227289-2912-30             HOUSING FEMALE ASS'Y     CCN000004000000004000FN00000000020221001000004000NNM   20220808131245    2N0N  00000200000000804000000929032CH    SJSAMIJF005400370024
BI00B32CH    #SJ22102DMW    202209087289-2913-30             HOUSING FEMALE ASS'Y     CCN000001500000001500FN00000000020221001000001500NNM   20220808131245    2N0N  00000150000000907500001034532CH    SJSAMIJF005400370024
BI00B32CH    #SJ22103DMW    202209157289-2913-30             HOUSING FEMALE ASS'Y     CCN000003000000003000FN00000000020221001000003000NNM   20220808131245    2N0N  00000150000000907500001034532CH    SJSAMIJF005400370024
BI00B32CH    #SJ22104DMW    202209227289-2913-30             HOUSING FEMALE ASS'Y     CCN000001500000001500FN00000000020221001000001500NNM   20220808131245    2N0N  00000150000000907500001034532CH    SJSAMIJF005400370024
BI00B32CH    #SJ22102DMW    202209087289-2918-40             HOUSING FEMALE ASS'Y     CCN000002000000002000FN00000000020221001000002000NNM   20220808131245    2N0N  00000100000001020000001147032CH    SJSAMIJF005400370024
BI00B32CH    #SJ22103DMW    202209157289-2918-40             HOUSING FEMALE ASS'Y     CCN000004000000004000FN00000000020221001000004000NNM   20220808131245    2N0N  00000100000001020000001147032CH    SJSAMIJF005400370024
BI00B32CH    #SJ22104DMW    202209227289-2918-40             HOUSING FEMALE ASS'Y     CCN000005000000005000FN00000000020221001000005000NNM   20220808131245    2N0N  00000100000001020000001147032CH    SJSAMIJF005400370024
BI00B32CH    SJ22101HMW     202209017B72-5540-80             SEALED WIRE SEAL         CCN000020000000020000FN00000000020221001000020000NNM   20220808131245    1C0C  00002000000000186000000234432CH    SJSAMIJF004300270014
BI00B32CH    SJ22102HMW     202209087B72-5540-80             SEALED WIRE SEAL         CCN000040000000040000FN00000000020221001000040000NNM   20220808131245    1C0C  00002000000000186000000234432CH    SJSAMIJF004300270014
BI00B32CH    SJ22103HMW     202209157B72-5540-80             SEALED WIRE SEAL         CCN000060000000060000FN00000000020221001000060000NNM   20220808131245    1C0C  00002000000000186000000234432CH    SJSAMIJF004300270014
BI00B32CH    SJ22104HMW     202209227B72-5540-80             SEALED WIRE SEAL         CCN000060000000060000FN00000000020221001000060000NNM   20220808131245    1C0C  00002000000000186000000234432CH    SJSAMIJF004300270014
BI00B32CH    SJ22102HMW     202209087B96-0805-02             TERMINAL FEMALE          CCN000045000000045000FN00000000020221001000045000NNM   20220808131245    4P0P  00002250000000558000000843232CH    SJSAMIJF006400630015
BI00B32CH    SJ22103HMW     202209157B96-0805-02             TERMINAL FEMALE          CCN000067500000067500FN00000000020221001000067500NNM   20220808131245    4P0P  00002250000000558000000843232CH    SJSAMIJF006400630015
BI00B32CH    SJ22104HMW     202209227B96-0805-02             TERMINAL FEMALE          CCN000045000000045000FN00000000020221001000045000NNM   20220808131245    4P0P  00002250000000558000000843232CH    SJSAMIJF006400630015
BI00B32CH    SJ22102HMW     202209087C89-6868-30             SEALED ASSY FEMALE       CCN000025200000025200FN00000000020221001000025200NNM   20220808131245    4N0N  00000252000000839200001119232CH    SJSAMIJF005500360039
BI00B32CH    SJ22103HMW     202209157C89-6868-30             SEALED ASSY FEMALE       CCN000027720000027720FN00000000020221001000027720NNM   20220808131245    4N0N  00000252000000839200001119232CH    SJSAMIJF005500360039
BI00B32CH    SJ22104HMW     202209227C89-6868-30             SEALED ASSY FEMALE       CCN000030240000030240FN00000000020221001000030240NNM   20220808131245    4N0N  00000252000000839200001119232CH    SJSAMIJF005500360039
BI00B32CH    SJ22103HMW     202209157298-3822-70             HOUSING FEMALE ASS'Y     CCN000001140000002520FN00000000020221001000002520NNM   20220808131245    4N0N  00000252000000776200001077032CH    SJSAMIJF005500360039
BI00B32CH    SJ22104HMW     202209227298-3822-70             HOUSING FEMALE ASS'Y     CCN000001940000002520FN00000000020221001000002520NNM   20220808131245    4N0N  00000252000000776200001077032CH    SJSAMIJF005500360039
BI00B32CH    SJ22103HMW     202209157298-4094-10             HOUSING FEMALE ASS'Y     CCN000003380000003380FN00000000020221001000003380NNM   20220808131245    4N0N  00000338000001097400001358732CH    SJSAMIJF005400370024
BI00B32CH    SJ22104HMW     202209227298-4094-10             HOUSING FEMALE ASS'Y     CCN000003380000003380FN00000000020221001000003380NNM   20220808131245    4N0N  00000338000001097400001358732CH    SJSAMIJF005400370024
BI00B32CH    SJ22104HMW     202209227298-5993-30             SEALED ASSY FEMALE       CCN000002184000002184FN00000000020221001000002184NNM   20220808131245    4N0N  00000218400000981500001290032CH    SJSAMIJF005500360039
BI00B32CH    SJ22102HMW     202209087327-6834-80             MAIN FUSE                CCN000000600000000600FN00000000020221001000000600NNM   20220808131245    4N0N  00000060000000736800000938332CH    SJSAMIJF005400370024
BI00B32CH    SJ22103HMW     202209157327-6834-80             MAIN FUSE                CCN000000600000000600FN00000000020221001000000600NNM   20220808131245    4N0N  00000060000000736800000938332CH    SJSAMIJF005400370024
BI00B32CH    SJ22104HMW     202209227327-6834-80             MAIN FUSE                CCN000003000000003000FN00000000020221001000003000NNM   20220808131245    4N0N  00000060000000736800000938332CH    SJSAMIJF005400370024
BI00B32CH    SJ22101HMW     202209017327-6870-30             MULTI FUSE               CCN000005184000005184FN00000000020221001000005184NNM   20220808131245    4N0N  00000028800001015200001181132CH    SJSAMIJF005400370024
BI00B32CH    SJ22102HMW     202209087327-6870-30             MULTI FUSE               CCN000012384000012384FN00000000020221001000012384NNM   20220808131245    4N0N  00000028800001015200001181132CH    SJSAMIJF005400370024
BI00B32CH    SJ22103HMW     202209157327-6870-30             MULTI FUSE               CCN000012960000012960FN00000000020221001000012960NNM   20220808131245    4N0N  00000028800001015200001181132CH    SJSAMIJF005400370024
BI00B32CH    SJ22104HMW     202209227327-6870-30             MULTI FUSE               CCN000012096000012096FN00000000020221001000012096NNM   20220808131245    4N0N  00000028800001015200001181132CH    SJSAMIJF005400370024
BI00B32CH    SJ22102HMW     202209087327-6872-30             MULTI FUSE               CCN000000576000000576FN00000000020221001000000576NNM   20220808131245    4N0N  00000028800000984500001150432CH    SJSAMIJF005400370024
BI00B32CH    SJ22103HMW     202209157327-6872-30             MULTI FUSE               CCN000000288000000288FN00000000020221001000000288NNM   20220808131245    4N0N  00000028800000984500001150432CH    SJSAMIJF005400370024
BI00B32CH    SJ22104HMW     202209227327-6872-30             MULTI FUSE               CCN000002880000002880FN00000000020221001000002880NNM   20220808131245    4N0N  00000028800000984500001150432CH    SJSAMIJF005400370024
BI00B32CH    SJ22101HMW     202209017327-6874-30             MULTI FUSE               CCN000003456000003456FN00000000020221001000003456NNM   20220808131245    4N0N  00000028800000991400001157332CH    SJSAMIJF005400370024
BI00B32CH    SJ22102HMW     202209087327-6874-30             MULTI FUSE               CCN000006336000006336FN00000000020221001000006336NNM   20220808131245    4N0N  00000028800000991400001157332CH    SJSAMIJF005400370024
BI00B32CH    SJ22103HMW     202209157327-6874-30             MULTI FUSE               CCN000006336000006336FN00000000020221001000006336NNM   20220808131245    4N0N  00000028800000991400001157332CH    SJSAMIJF005400370024
BI00B32CH    SJ22104HMW     202209227327-6874-30             MULTI FUSE               CCN000006048000006048FN00000000020221001000006048NNM   20220808131245    4N0N  00000028800000991400001157332CH    SJSAMIJF005400370024
BI00B32CH    SJ22102HMW     202209087327-6876-30             MULTI FUSE               CCN000000288000000288FN00000000020221001000000288NNM   20220808131245    4N0N  00000028800001016400001182332CH    SJSAMIJF005400370024
BI00B32CH    SJ22103HMW     202209157327-6876-30             MULTI FUSE               CCN000000576000000576FN00000000020221001000000576NNM   20220808131245    4N0N  00000028800001016400001182332CH    SJSAMIJF005400370024
BI00B32CH    SJ22104HMW     202209227327-6876-30             MULTI FUSE               CCN000002592000002592FN00000000020221001000002592NNM   20220808131245    4N0N  00000028800001016400001182332CH    SJSAMIJF005400370024
BI00B32CH    SJ22103HMW     202209157327-6878-30             MULTI FUSE               CCN000000576000000576FN00000000020221001000000576NNM   20220808131245    4N0N  00000028800000989700001155632CH    SJSAMIJF005400370024
BI00B32CH    SJ22104HMW     202209227327-6878-30             MULTI FUSE               CCN000002880000002880FN00000000020221001000002880NNM   20220808131245    4N0N  00000028800000989700001155632CH    SJSAMIJF005400370024
BI00B32CH    SJ22101HMW     202209017327-6880-30             MULTI FUSE               CCN000006624000006624FN00000000020221001000006624NNM   20220808131245    4N0N  00000028800001012600001178532CH    SJSAMIJF005400370024
BI00B32CH    SJ22102HMW     202209087327-6880-30             MULTI FUSE               CCN000010944000010944FN00000000020221001000010944NNM   20220808131245    4N0N  00000028800001012600001178532CH    SJSAMIJF005400370024
BI00B32CH    SJ22103HMW     202209157327-6880-30             MULTI FUSE               CCN000011232000011232FN00000000020221001000011232NNM   20220808131245    4N0N  00000028800001012600001178532CH    SJSAMIJF005400370024
BI00B32CH    SJ22104HMW     202209227327-6880-30             MULTI FUSE               CCN000010656000010656FN00000000020221001000010656NNM   20220808131245    4N0N  00000028800001012600001178532CH    SJSAMIJF005400370024
BI00B32CH    SJ22102HMW     202209087327-6882-30             MULTI FUSE               CCN000000288000000288FN00000000020221001000000288NNM   20220808131245    4N0N  00000028800001015900001181832CH    SJSAMIJF005400370024
BI00B32CH    SJ22103HMW     202209157327-6882-30             MULTI FUSE               CCN000000576000000576FN00000000020221001000000576NNM   20220808131245    4N0N  00000028800001015900001181832CH    SJSAMIJF005400370024
BI00B32CH    SJ22104HMW     202209227327-6882-30             MULTI FUSE               CCN000002880000002880FN00000000020221001000002880NNM   20220808131245    4N0N  00000028800001015900001181832CH    SJSAMIJF005400370024
BI00B32CH    SJ22101HMW     202209017327-6884-30             MULTI FUSE               CCN000005760000005760FN00000000020221001000005760NNM   20220808131245    4N0N  00000028800000988900001154832CH    SJSAMIJF005400370024
BI00B32CH    SJ22102HMW     202209087327-6884-30             MULTI FUSE               CCN000016416000016416FN00000000020221001000016416NNM   20220808131245    4N0N  00000028800000988900001154832CH    SJSAMIJF005400370024
BI00B32CH    SJ22103HMW     202209157327-6884-30             MULTI FUSE               CCN000015840000015840FN00000000020221001000015840NNM   20220808131245    4N0N  00000028800000988900001154832CH    SJSAMIJF005400370024
BI00B32CH    SJ22104HMW     202209227327-6884-30             MULTI FUSE               CCN000015264000015264FN00000000020221001000015264NNM   20220808131245    4N0N  00000028800000988900001154832CH    SJSAMIJF005400370024
BI00B32CH    SJ22103HMW     202209157327-6908                MAIN FUSE                CCN000001800000001800FN00000000020221001000001800NNM   20220808131245    4N0N  00000060000000730400000915432CH    SJSAMIJF005400370024
BI00B32CH    SJ22104HMW     202209227327-6908                MAIN FUSE                CCN000001200000001200FN00000000020221001000001200NNM   20220808131245    4N0N  00000060000000730400000915432CH    SJSAMIJF005400370024
BI00B32CH    SJ22102HMW     202209087327-6937-30             MULTI FUSE               CCN000000288000000288FN00000000020221001000000288NNM   20220808131245    4N0N  00000028800001013600001179532CH    SJSAMIJF005400370024
BI00B32CH    SJ22103HMW     202209157327-6937-30             MULTI FUSE               CCN000000576000000576FN00000000020221001000000576NNM   20220808131245    4N0N  00000028800001013600001179532CH    SJSAMIJF005400370024
BI00B32CH    SJ22104HMW     202209227327-6937-30             MULTI FUSE               CCN000000576000000576FN00000000020221001000000576NNM   20220808131245    4N0N  00000028800001013600001179532CH    SJSAMIJF005400370024
BI00B32CH    SJ22102HMW     202209087327-6939-30             MULTI FUSE               CCN000000288000000288FN00000000020221001000000288NNM   20220808131245    4N00  00000028800000992200001158132CH    SJSAMIJF005400370024
BI00B32CH    SJ22103HMW     202209157327-6939-30             MULTI FUSE               CCN000002880000002880FN00000000020221001000002880NNM   20220808131245    4N00  00000028800000992200001158132CH    SJSAMIJF005400370024
BI00B32CH    SJ22104HMW     202209227327-6939-30             MULTI FUSE               CCN000002592000002592FN00000000020221001000002592NNM   20220808131245    4N00  00000028800000992200001158132CH    SJSAMIJF005400370024
BI00B32CH    SJ22102HMW     202209087327-6941-30             MULTI FUSE               CCN000000288000000288FN00000000020221001000000288NNM   20220808131245    4N00  00000028800001014400001180332CH    SJSAMIJF005400370024
BI00B32CH    SJ22103HMW     202209157327-6941-30             MULTI FUSE               CCN000001440000001440FN00000000020221001000001440NNM   20220808131245    4N00  00000028800001014400001180332CH    SJSAMIJF005400370024
BI00B32CH    SJ22104HMW     202209227327-6941-30             MULTI FUSE               CCN000001728000001728FN00000000020221001000001728NNM   20220808131245    4N00  00000028800001014400001180332CH    SJSAMIJF005400370024
BI00B32CH    SJ22102HMW     202209087388-0313-30             CONNECTOR ASS'Y          CCN000002400000002400FN00000000020221001000002400NNM   20220808131245    4N0N  00000120000000995000001125032CH    SJSAMIJF005400370024
BI00B32CH    SJ22103HMW     202209157388-0313-30             CONNECTOR ASS'Y          CCN000004800000004800FN00000000020221001000004800NNM   20220808131245    4N0N  00000120000000995000001125032CH    SJSAMIJF005400370024
BI00B32CH    SJ22104HMW     202209227388-0313-30             CONNECTOR ASS'Y          CCN000014400000014400FN00000000020221001000014400NNM   20220808131245    4N0N  00000120000000995000001125032CH    SJSAMIJF005400370024
BI00B32CH    SJ22101HMW     202209017388-0317-60             CONNECTOR ASS'Y          CCN000001200000001200FN00000000020221001000001200NNM   20220808131245    4N0N  00000120000001034400001129332CH    SJSAMIJF005400370024
BI00B32CH    SJ22102HMW     202209087388-0317-60             CONNECTOR ASS'Y          CCN000008400000008400FN00000000020221001000008400NNM   20220808131245    4N0N  00000120000001034400001129332CH    SJSAMIJF005400370024
BI00B32CH    SJ22103HMW     202209157388-0317-60             CONNECTOR ASS'Y          CCN000008400000008400FN00000000020221001000008400NNM   20220808131245    4N0N  00000120000001034400001129332CH    SJSAMIJF005400370024
BI00B32CH    SJ22104HMW     202209227388-0317-60             CONNECTOR ASS'Y          CCN000007200000007200FN00000000020221001000007200NNM   20220808131245    4N0N  00000120000001034400001129332CH    SJSAMIJF005400370024
BI00B32CH    #SJ22101HMW    202209017157-3821                RUBBER STOPPER           CCN000020000000020000FN00000000020221001000020000NNM   20220808131245    2C0C  00002000000000176000000238032CH    SJSAMIJF002700430014
BI00B32CH    #SJ22101HMW    202209017198-1372                HOUSING FEMALE           CCN000004000000004000FN00000000020221001000004000NNM   20220808131245    2F0F  00000200000000857200000982232CH    SJSAMIJF005400370024
BI00B32CH    #SJ22102HMW    202209087198-1372                HOUSING FEMALE           CCN000014000000014000FN00000000020221001000014000NNM   20220808131245    2F0F  00000200000000857200000982232CH    SJSAMIJF005400370024
BI00B32CH    #SJ22103HMW    202209157198-1372                HOUSING FEMALE           CCN000014000000014000FN00000000020221001000014000NNM   20220808131245    2F0F  00000200000000857200000982232CH    SJSAMIJF005400370024
BI00B32CH    #SJ22104HMW    202209227198-1372                HOUSING FEMALE           CCN000014000000014000FN00000000020221001000014000NNM   20220808131245    2F0F  00000200000000857200000982232CH    SJSAMIJF005400370024
BI00B32CH    #SJ22101HMW    202209017198-1373-60             HOUSING FEMALE           CCN000004000000004000FN00000000020221001000004000NNM   20220808131245    2F0F  00000200000000819400000947432CH    SJSAMIJF005400370024
BI00B32CH    #SJ22102HMW    202209087198-1373-60             HOUSING FEMALE           CCN000014000000014000FN00000000020221001000014000NNM   20220808131245    2F0F  00000200000000819400000947432CH    SJSAMIJF005400370024
BI00B32CH    #SJ22103HMW    202209157198-1373-60             HOUSING FEMALE           CCN000014000000014000FN00000000020221001000014000NNM   20220808131245    2F0F  00000200000000819400000947432CH    SJSAMIJF005400370024
BI00B32CH    #SJ22104HMW    202209227198-1373-60             HOUSING FEMALE           CCN000014000000014000FN00000000020221001000014000NNM   20220808131245    2F0F  00000200000000819400000947432CH    SJSAMIJF005400370024
BI00B32CH    #SJ22101HMW    202209017198-2458                HOUSING FEMALE           CCN000003520000003520FN00000000020221001000003520NNM   20220808131245    2F0F  00000176000000869100001160532CH    SJSAMIJF005400370024
BI00B32CH    #SJ22102HMW    202209087198-2458                HOUSING FEMALE           CCN000012320000012320FN00000000020221001000012320NNM   20220808131245    2F0F  00000176000000869100001160532CH    SJSAMIJF005400370024
BI00B32CH    #SJ22103HMW    202209157198-2458                HOUSING FEMALE           CCN000014080000014080FN00000000020221001000014080NNM   20220808131245    2F0F  00000176000000869100001160532CH    SJSAMIJF005400370024
BI00B32CH    #SJ22104HMW    202209227198-2458                HOUSING FEMALE           CCN000015840000015840FN00000000020221001000015840NNM   20220808131245    2F0F  00000176000000869100001160532CH    SJSAMIJF005400370024
BI00B32CH    #SJ22102HMW    202209087287-8860                HOUSING FEMALE ASS'Y     CCN000004800000004800FN00000000020221001000004800NNM   20220808131245    2N0N  00000160000000693400000853432CH    SJSAMIJF005400370024
BI00B32CH    #SJ22103HMW    202209157287-8860                HOUSING FEMALE ASS'Y     CCN000016000000016000FN00000000020221001000016000NNM   20220808131245    2N0N  00000160000000693400000853432CH    SJSAMIJF005400370024
BI00B32CH    #SJ22104HMW    202209227287-8860                HOUSING FEMALE ASS'Y     CCN000012800000012800FN00000000020221001000012800NNM   20220808131245    2N0N  00000160000000693400000853432CH    SJSAMIJF005400370024
BI00B32CH    #SJ22101HMW    202209017298-2457-90             LIF FEMALE ASSEMBLY      CCN000000336000000336FN00000000020221001000000336NNM   20220808131245    2N0N  00000016800000533300000728932CH    SJSAMIJF005400370024
BI00B32CH    #SJ22102HMW    202209087298-2457-90             LIF FEMALE ASSEMBLY      CCN000002016000002016FN00000000020221001000002016NNM   20220808131245    2N0N  00000016800000533300000728932CH    SJSAMIJF005400370024
BI00B32CH    #SJ22103HMW    202209157298-2457-90             LIF FEMALE ASSEMBLY      CCN000002520000002520FN00000000020221001000002520NNM   20220808131245    2N0N  00000016800000533300000728932CH    SJSAMIJF005400370024
BI00B32CH    #SJ22104HMW    202209227298-2457-90             LIF FEMALE ASSEMBLY      CCN000002520000002520FN00000000020221001000002520NNM   20220808131245    2N0N  00000016800000533300000728932CH    SJSAMIJF005400370024
BI00B32CH    #SJ22101HMW    202209017298-2459-60             LIF FEMALE ASSEMBLY      CCN000001512000001512FN00000000020221001000001512NNM   20220808131245    2N0N  00000016800000534000000729632CH    SJSAMIJF005400370024
BI00B32CH    #SJ22102HMW    202209087298-2459-60             LIF FEMALE ASSEMBLY      CCN000011424000011424FN00000000020221001000011424NNM   20220808131245    2N0N  00000016800000534000000729632CH    SJSAMIJF005400370024
BI00B32CH    #SJ22103HMW    202209157298-2459-60             LIF FEMALE ASSEMBLY      CCN000011256000011256FN00000000020221001000011256NNM   20220808131245    2N0N  00000016800000534000000729632CH    SJSAMIJF005400370024
BI00B32CH    #SJ22104HMW    202209227298-2459-60             LIF FEMALE ASSEMBLY      CCN000012264000012264FN00000000020221001000012264NNM   20220808131245    2N0N  00000016800000534000000729632CH    SJSAMIJF005400370024
BI00B32CH    SJ22104MMW     202209227116-4115-02             TERMINAL                 CCN000008400000008400FN00000000020221001000008400NNM   20220808131245    4P0P  00000840000000593000000881232CH    SJSAMIJF006400630015
BI00B32CH    #SJ22104MMW    202209227283-8123                CONNECTOR HOUSING        CCN000004000000004000FN00000000020221001000004000NNM   20220808131245    2N0N  00000400000000380000000531732CH    SJSAMIJF005600390023
BI00B32CH    #SJ22101MMW    202209017283-8123-30             CONNECTOR HOUSING        CCN000004000000004000FN00000000020221001000004000NNM   20220808131245    2N0N  00000400000000380000000530032CH    SJSAMIJF005600390023
BI00B32CH    #SJ22102MMW    202209087283-8123-30             CONNECTOR HOUSING        CCN000004000000004000FN00000000020221001000004000NNM   20220808131245    2N0N  00000400000000380000000530032CH    SJSAMIJF005600390023
BI00B32CH    @SJ22104MMW    202209227183-8049                CONNECTOR HOUSING        CCN000004000000004000FN00000000020221001000004000NNM   20220808131245    3F0F  00000400000000583600000740032CH    SJSAMIJF005400370024
BI00B32CH    SJ22103SMW     202209157283-5845-40             CONNECTOR HOUSING        CCN000006000000006000FN00000000020221001000006000NNM   20220808131245    1N0N  00000600000000444000000606332CH    SJSAMIJF005400370024
BI00B32CH    SJ22102SMW     202209087288-3340-30             HOUSING MALE             CCN000001500000001500FN00000000020221001000001500NNM   20220808131245    4N0N  00000150000000861500001006432CH    SJSAMIJF005400370024
BI00B32CH    SJ22103SMW     202209157288-3340-30             HOUSING MALE             CCN000009000000009000FN00000000020221001000009000NNM   20220808131245    4N0N  00000150000000861500001006432CH    SJSAMIJF005400370024
BI00B32CH    SJ22104SMW     202209227288-3340-30             HOUSING MALE             CCN000009000000009000FN00000000020221001000009000NNM   20220808131245    4N0N  00000150000000861500001006432CH    SJSAMIJF005400370024
BI00B32CH    SJ22103SMW     202209157289-3342-30             HOUSING FEMALE ASS'Y     CCN000007200000007200FN00000000020221001000007200NNM   20220808131245    1N0N  00000240000000686400000901432CH    SJSAMIJF005500360039
BI00B32CH    SJ22104SMW     202209227289-3342-30             HOUSING FEMALE ASS'Y     CCN000009600000009600FN00000000020221001000009600NNM   20220808131245    1N0N  00000240000000686400000901432CH    SJSAMIJF005500360039
BI00B32CH    SJ22101SMW     202209017289-6868-30             SEALED ASSY FEMALE       CCN000002520000002520FN00000000020221001000002520NNM   20220808131245    4N0N  00000252000000839200001119232CH    SJSAMIJF005500360039
BI00B32CH    SJ22102SMW     202209087289-6868-30             SEALED ASSY FEMALE       CCN000002520000002520FN00000000020221001000002520NNM   20220808131245    4N0N  00000252000000839200001119232CH    SJSAMIJF005500360039
BI00B32CH    SJ22104SMW     202209227289-6868-30             SEALED ASSY FEMALE       CCN000002520000002520FN00000000020221001000002520NNM   20220808131245    4N0N  00000252000000839200001119232CH    SJSAMIJF005500360039
BI00B32CH    #SJ22103SMW    202209157158-3120-90             CONNECTOR WIRE SEAL      CCN000040000000040000FN00000000020221001000040000NNM   20220808131245    2C0C  00002000000000136000000194032CH    SJSAMIJF002700430014
BI00B32CH    #SJ22104SMW    202209227158-3120-90             CONNECTOR WIRE SEAL      CCN000080000000080000FN00000000020221001000080000NNM   20220808131245    2C0C  00002000000000136000000194032CH    SJSAMIJF002700430014
BI00B32CH    #SJ22102SMW    202209087189-3032                HOUSING FEMALE           CCN000001600000001600FN00000000020221001000001600NNM   20220808131245    2F0F  00000160000000788400001018432CH    SJSAMIJF005500360039
BI00B32CH    #SJ22103SMW    202209157189-3032                HOUSING FEMALE           CCN000001600000001600FN00000000020221001000001600NNM   20220808131245    2F0F  00000160000000788400001018432CH    SJSAMIJF005500360039
BI00B32CH    #SJ22101SMW    202209017289-2915-30             HOUSING FEMALE ASS'Y     CCN000001500000001500FN00000000020221001000001500NNM   20220808131245    2N0N  00000150000000964500001091532CH    SJSAMIJF005400370024
BI00B32CH    #SJ22103SMW    202209157289-2915-30             HOUSING FEMALE ASS'Y     CCN000001500000001500FN00000000020221001000001500NNM   20220808131245    2N0N  00000150000000964500001091532CH    SJSAMIJF005400370024
BI00A32CJ    #JQN208D       202208167158-3015-10             RUBBER STOPPER           CCN000010000000010000FN00000000020220801000010000NNE   20220808135037    2C0C  00001000000000419500000474032CJ    QNYHVQN 002700430014
BI00B32CJ    #JQN209D       202208267287-7022                CONNECTOR FEMALE         CCN000002400000002400FN00000000020220901000002400NNE   20220808131245    2NON  00000120000000742800000853032CJ    QNYHVQN 005400370024
BI00B32CJ    JQN210A        202209097114-4231-02             TERMINAL                 CCN000090000000090000FN00000000020221001000090000NNE   20220808131245    4P0P  00001800000000554400000848032CJ    QNYHVQN 006400630015
BI00B32CJ    JQN210A        202209097116-4026                TERMINAL                 CCN000016000000016000FN00000000020221001000016000NNE   20220808131245    4P0P  00001600000000664000000994332CJ    QNYHVQN 006400630017
BI00B32CJ    JQN210A        202209097116-4031                TERMINAL                 CCN000022500000022500FN00000000020221001000022500NNE   20220808131245    4P0P  00000750000000619500000904732CJ    QNYHVQN 006400630015
BI00B32CJ    JQN210A        202209097116-4111-02             TERMINAL                 CCN000007500000007500FN00000000020221001000007500NNE   20220808131245    4P0P  00000750000000529500000817732CJ    QNYHVQN 006400630015
BI00B32CJ    JQN210A        202209097116-5043-02             TERMINAL FEMALE          CCN000024000000024000FN00000000020221001000024000NNE   20220808131245    4P0P  00001200000000559200000844432CJ    QNYHVQN 006400630015
BI00B32CJ    JQN210A        202209097288-6547                CONNECTOR MALE ASS'Y     CCN000003750000003750FN00000000020221001000003750NNE   20220808131245    4N0N  00000075000001205300001340332CJ    QNYHVQN 005400370024
BI00B32CJ    #JQN210A       202209097286-7860                HOUSING MALE ASS'Y       CCN000010800000011200FN00000000020221001000011200NNE   20220808131245    2N0N  00000080000000951700001139832CJ    QNYHVQN 005400370024
BI00B32CJ    #JQN210A       202209097287-1669                HOUSING FEMALE ASS'Y     CCN000012000000012000FN00000000020221001000012000NNE   20220808131245    2N0N  00000200000000788800000980832CJ    QNYHVQN 005400370024
BI00B32CJ    #JQN210A       202209097287-1670                HOUSING FEMALE ASS'Y     CCN000011200000011200FN00000000020221001000011200NNE   20220808131245    2N0N  00000280000000953100001145132CJ    QNYHVQN 005400370024
BI00B32CJ    #JQN210A       202209097287-1671                HOUSING FEMALE ASS'Y     CCN000012000000012000FN00000000020221001000012000NNE   20220808131245    2N0N  00000200000000782600000974632CJ    QNYHVQN 005400370024
BI00B32CJ    #JQN210A       202209097287-1674                HYBRID FEMALE ASS'Y      CCN000012000000012000FN00000000020221001000012000NNE   20220808131245    2N0N  00000200000000810800001002832CJ    QNYHVQN 005400370024
BI00B32CJ    JQN210B        202209167289-6547                HOUSING FEMALE ASS'Y     CCN000002400000002400FN00000000020221001000002400NNE   20220808131245    1N0N  00000240000001152000001362032CJ    QNYHVQN 005500360039
BI00B32DG    #RL2094B       202208257183-2418                CONNECTOR HOUSING        CCN000004800000004800FN00000000020220901000004800NNE   20220808131245    2F0F  00000480000000917000001477032DG    BFSAIBF 005500360039
BI00B32DG    RP2094C        202208257116-4025                TERMINAL                 CCN000032000000032000FN00000000020220901000032000NNE   20220808131245    4P0P  00001600000000644800000975132DG    BFSAIBF 006400630017
BI00B32DG    RP2094C        202208257116-2640                TERMINAL                 CCN000018000000018000FN00000000020220901000018000NNE   20220808131245    4P0P  00001800000001018800001196632DG    BFSAIBF 005100280028
BI00B32DG    RP2094C        202208257116-2641                TERMINAL                 CCN000018000000018000FN00000000020220901000018000NNE   20220808131245    4P0P  00001800000001161000001344632DG    BFSAIBF 005100280028
BI00B32DG    RP2094C        202208257116-4114-02             TERMINAL                 CCN000021000000021000FN00000000020220901000021000NNE   20220808131245    4P0P  00001050000000693000000981232DG    BFSAIBF 006400630015
BI00B32DG    RP2094C        202208257116-4115-02             TERMINAL                 CCN000008400000008400FN00000000020220901000008400NNE   20220808131245    4P0P  00000840000000593000000881232DG    BFSAIBF 006400630015
BI00B32DG    RP2094C        202208257126-8853-02             TERMINAL                 CCN000022500000022500FN00000000020220901000022500NNE   20220808131245    4P0P  00000750000000562500000847732DG    BFSAIBF 006400630015
BI00B32DG    RP2094C        202208257126-8854-02             TERMINAL                 CCN000022500000022500FN00000000020220901000022500NNE   20220808131245    4P0P  00000750000000604500000889732DG    BFSAIBF 006400630015
BI00B32DG    RP2094C        202208257126-8855-02             TERMINAL                 CCN000012000000012000FN00000000020220901000012000NNE   20220808131245    4P0P  00000600000000510600000795832DG    BFSAIBF 006400630015
BI00B32DG    @RP2094C       202208257282-1025                HOUSING SUB ASSEMBLY     CCN000002400000002400FN00000000020220901000002400NNE   20220808131245    3N0N  00000240000001143800001390032DG    BFSAIBF 005500360039
BI00B32DG    @RP2094C       202208257183-8049-30             CONNECTOR HOUSING        CCN000004000000004000FN00000000020220901000004000NNE   20220808131245    3F0F  00000400000000588800000714432DG    BFSAIBF 005400370024
BI00A32DJ    GHT2210B 1     202208107288-3340-30             HOUSING MALE             CCN000003000000003000FN00000000020221001000003000NNMM0020220808135243    4N0N  00000150000000861500001006432DJ    RBYIPLRB005400370024
BI00A32DJ    GHT2210B 2     202208107283-5845                CONNECTOR HOUSING        CCN000006000000006000FN00000000020221001000006000NNMM0020220808131444    1N0N  00000600000000444000000606332DJ    RBYIPLRB005400370024
BI00B32DJ    GHT2210B 1     202209017114-4728-02             TERMINAL                 CCN000240000000150000FN00000000020221001000150000NNMQ0020220808131245    4P0P  00003000000000510000000804232DJ    RBYIPLRB006400630015
BI00B32DJ    GHT2210B 1     202209017158-3009-60             RUBBER STOPPER           CCN000600000000400000FN00000000020221001000400000NNMQ0020220808131245    1C0C  00002000000000338000000386232DJ    RBYIPLRB002700430014
BI00A32DJ    GHT2210F       202208107116-4032                TERMINAL                 CCN000120000000120000FN00000000020221001000120000NNED0020220808134736    4P0P  00000600000000532800000818032DJ    RBYIPLRB006400630015
BI00A32DJ    #GHT2210F      202208107183-1616-30             CONNECTOR HOUSING        CCN000004800000004800FN00000000020221001000004800NNED0020220808134759    2F0F  00000240000000557500000837132DJ    RBYIPLRB005500360039
BI00A32DJ    GHT2210B 1     202208107114-4728-02             TERMINAL                 CCN000090000000090000FN00000000020221001000090000NNMM0020220808135243    4P0P  00003000000000510000000804232DJ    RBYIPLRB006400630015
BI00A32DJ    GHT2210B 1     202208107158-3009-60             RUBBER STOPPER           CCN000200000000200000FN00000000020221001000200000NNMM0020220808135335    1C0C  00002000000000338000000386232DJ    RBYIPLRB002700430014
BI00B32EJ    T220704P05     202208087116-4104-02             TERMINAL                 CCN000012000000012000FY00001200020220801000000000NNE00020220808153506EJ  4P0P  00001200000000580800000972432EJ    EJYKBO  006400630015
BI00B32EJ    T220704P05     202208087116-4124-02             TERMINAL                 CCN000012000000012000FY00001200020220801000000000NNE00020220808153506EJ  4P0P  00000300000000459900000753532EJ    EJYKBO  006400630015
BI00B32EJ    T220704P05     202208087196-1461-06             TERMINAL FEMALE          CCN000048000000048000FY00004800020220801000000000NNE00020220808153506EJ  4P0P  00002400000000386400000692932EJ    EJYKBO  006400630015
BI00B32EJ    T220704P05     202208087114-4110-02             TERMINAL                 CCN000015000000015000FY00001500020220801000000000NNE00020220808153506EJ  4P0P  00001500000000901500001230132EJ    EJYKBO  006400630017
BI00B32EJ    T220704P05     202208087114-4112-02             TERMINAL                 CCN000009000000009000FY00000900020220801000000000NNE00020220808153506EJ  4P0P  00000900000000598500000927132EJ    EJYKBO  006400630017
BI00B32EJ    T220704P05     202208087116-4101-02             TERMINAL                 CCN000012000000012000FY00001200020220801000000000NNE00020220808153506EJ  4P0P  00001200000000582000000876232EJ    EJYKBO  006400630015
BI00B32EJ    T220704P05     202208087116-4120-02             TERMINAL                 CCN000012000000012000FY00001200020220801000000000NNE00020220808153506EJ  4P0P  00000600000000780000001073632EJ    EJYKBO  006400630015
BI00B32EJ    T220704P05     202208087116-4122-02             TERMINAL                 CCN000009000000009000FY00000900020220801000000000NNE00020220808153506EJ  4P0P  00000450000000656600000950232EJ    EJYKBO  006400630015
BI00B32EJ    T220704P05     202208087116-4121-02             TERMINAL                 CCN000027000000027000FY00002700020220801000000000NNE00020220808153506EJ  4P0P  00000450000000618800000912432EJ    EJYKBO  006400630015
BI00B32EJ    T220704P05     202208087116-4112-02             TERMINAL                 CCN000036000000036000FY00003600020220801000000000NNE00020220808153506EJ  4P0P  00000600000000450000000738232EJ    EJYKBO  006400630015
BI00B32EJ    T220704P05     202208087116-4110-02             TERMINAL                 CCN000018000000018000FY00001800020220801000000000NNE00020220808153506EJ  4P0P  00000900000000594000000882232EJ    EJYKBO  006400630015
BI00B32EJ    T220704P05     202208087116-4111-02             TERMINAL                 CCN000007500000007500FY00000750020220801000000000NNE00020220808153506EJ  4P0P  00000750000000529500000817732EJ    EJYKBO  006400630015
BI00B32EJ    T220704P05     202208087126-8854-02             TERMINAL                 CCN000015000000015000FY00001500020220801000000000NNE00020220808153506EJ  4P0P  00000750000000604500000889732EJ    EJYKBO  006400630015
BI00B32EJ    T220704P05     202208087116-2951-02             TERMINAL                 CCN000005400000005400FY00000540020220801000000000NNE00020220808153506EJ  4P0P  00000540000000817600001111832EJ    EJYKBO  006400630015
BI00B32EJ    T220707P01     202208087116-4025                TERMINAL                 CCN000016000000016000FY00001600020220801000000000NNE00020220808153622EJ  4P0P  00001600000000644800000975132EJ    EJYKBO  006400630017
BI00B32EJ    T220707P01     202208087116-4104-02             TERMINAL                 CCN000012000000012000FY00001200020220801000000000NNE00020220808153622EJ  4P0P  00001200000000580800000972432EJ    EJYKBO  006400630015
BI00B32EJ    T220707P01     202208087116-4102-02             TERMINAL                 CCN000024000000024000FY00002400020220801000000000NNE00020220808153622EJ  4P0P  00001200000000553200000841432EJ    EJYKBO  006400630015
BI00B32EJ    T220707P01     202208087116-4124-02             TERMINAL                 CCN000012000000012000FY00001200020220801000000000NNE00020220808153622EJ  4P0P  00000300000000459900000753532EJ    EJYKBO  006400630015
BI00B32EJ    T220707P01     202208087196-1461-06             TERMINAL FEMALE          CCN000024000000024000FY00002400020220801000000000NNE00020220808153622EJ  4P0P  00002400000000386400000692932EJ    EJYKBO  006400630015
BI00B32EJ    T220707P01     202208087114-4110-02             TERMINAL                 CCN000015000000015000FY00001500020220801000000000NNE00020220808153622EJ  4P0P  00001500000000901500001230132EJ    EJYKBO  006400630017
BI00B32EJ    T220707P01     202208087114-4111-02             TERMINAL                 CCN000012000000012000FY00001200020220801000000000NNE00020220808153622EJ  4P0P  00001200000000758400001087032EJ    EJYKBO  006400630017
BI00B32EJ    T220707P01     202208087114-4112-02             TERMINAL                 CCN000018000000018000FY00001800020220801000000000NNE00020220808153622EJ  4P0P  00000900000000598500000927132EJ    EJYKBO  006400630017
BI00B32EJ    T220707P01     202208087114-4100-02             TERMINAL                 CCN000036000000036000FY00003600020220801000000000NNE00020220808153622EJ  4P0P  00001800000000748800001077432EJ    EJYKBO  006400630017
BI00B32EJ    T220707P01     202208087116-4100-02             TERMINAL                 CCN000015000000015000FY00001500020220801000000000NNE00020220808153622EJ  4P0P  00001500000000696000000990232EJ    EJYKBO  006400630015
BI00B32EJ    T220707P01     202208087116-4101-02             TERMINAL                 CCN000012000000012000FY00001200020220801000000000NNE00020220808153622EJ  4P0P  00001200000000582000000876232EJ    EJYKBO  006400630015
BI00B32EJ    T220707P01     202208087116-4122-02             TERMINAL                 CCN000045000000045000FY00004500020220801000000000NNE00020220808153622EJ  4P0P  00000450000000656600000950232EJ    EJYKBO  006400630015
BI00B32EJ    T220707P01     202208087116-4121-02             TERMINAL                 CCN000040500000040500FY00004050020220801000000000NNE00020220808153622EJ  4P0P  00000450000000618800000912432EJ    EJYKBO  006400630015
BI00B32EJ    T220707P01     202208087116-4112-02             TERMINAL                 CCN000048000000048000FY00004800020220801000000000NNE00020220808153622EJ  4P0P  00000600000000450000000738232EJ    EJYKBO  006400630015
BI00B32EJ    T220707P01     202208087116-4110-02             TERMINAL                 CCN000009000000009000FY00000900020220801000000000NNE00020220808153622EJ  4P0P  00000900000000594000000882232EJ    EJYKBO  006400630015
BI00B32EJ    T220707P01     202208087116-4111-02             TERMINAL                 CCN000007500000007500FY00000750020220801000000000NNE00020220808153622EJ  4P0P  00000750000000529500000817732EJ    EJYKBO  006400630015
BI00B32EJ    T220707P01     202208087126-8854-02             TERMINAL                 CCN000007500000007500FY00000750020220801000000000NNE00020220808153622EJ  4P0P  00000750000000604500000889732EJ    EJYKBO  006400630015
BI00B32EJ    T220707P01     202208087126-8855-02             TERMINAL                 CCN000006000000006000FY00000600020220801000000000NNE00020220808153622EJ  4P0P  00000600000000510600000795832EJ    EJYKBO  006400630015
BI00B32EJ    T220707P01     202208087116-4022                TERMINAL                 CCN000013500000013500FY00001350020220801000000000NNE00020220808153622EJ  4P0P  00001350000000618300000903532EJ    EJYKBO  006400630015
BI00A32EJ    T220712P01     202208117116-4103-02             TERMINAL                 CCN000012000000012000FN00000000020220801000012000NNEM0020220808131245EJ  4P0P  00001200000000571200000859432EJ    EJYKBO  006400630015
BI00B32H2    #TIJ209N       202208197282-1214                CONNECTOR                CCN000002000000002000FN00000000020220901000002000NNE   20220808131245    2N0N  00000100000000900000001030032H2    HVYHV   005500360039
BI00B32H2    #TIJ209P       202208267183-2419-40             CONNECTOR HOUSING        CCN000004800000004800FN00000000020220901000004800NNE   20220808131245    2F0F  00000480000001066600001353732H2    HVYHV   005500360039
BI00B32H2    TIJ209Q        202209027114-7842-02             TERMINAL MALE            CCN000036000000036000FN00000000020220901000036000NNE   20220808131245    4P0P  00001200000000460800000754432H2    HVYHV   006400630015
BI00B32H2    TIJ209Q        202209027195-1936-02             TERMINAL MALE            CCN000015000000015000FN00000000020220901000015000NNE   20220808131245    4P0P  00001500000000589500000883132H2    HVYHV   006400630015
BI00B32H2    TIJ209Q        202209027283-4855                CONNECTOR HOUSING        CCN000004800000004800FN00000000020220901000004800NNE   20220808131245    4N0N  00000240000001188400001400032H2    HVYHV   005500360039
BI00B32H2    TIJ209Q        202209027286-4097                CONNECTOR MALE ASS'Y     CCN000004800000004800FN00000000020220901000004800NNE   20220808131245    1N0N  00000160000000768000000978032H2    HVYHV   005500360039
BI00B32H2    #TIJ209Q       202209027183-2511                HOUSING                  CCN000001600000001600FN00000000020220901000001600NNE   20220808131245    2F0F  00000160000000972200001242132H2    HVYHV   005500360039
BI00B32H2    TIJ210A        202209097114-6041                TERMINAL                 CCN000007200000007200FN00000000020221001000007200NNE   20220808131245    4P0P  00000360000000580700000824232H2    HVYHV   006400630015
