AE00TI102209060106/09/202200000000200000000000000002148KGM  00000002858KGM  7288-6598-70             HOUSING MALE ASS'Y       7288659870               0         0         0         0    0    0    00000288000000144000000911000026236800
AE00TI102209060106/09/202200000002200000000000000015101KGM  00000019831KGM  7289-3342-30             HOUSING FEMALE ASS'Y     7289334230               0         0         0         0    0    0    00005280000000240000000191000100848000
AE00TI102209060106/09/202200000000200000000000000002343KGM  00000002737KGM  7289-5011-30             HOUSING FEMALE ASS'Y     7289501130               0         0         0         0    0    0    00000480000000240000000333000015984000
AE00TI102209060106/09/202200000001000000000000000009815KGM  00000012900KGM  7298-5993-30             SEALED ASSY FEMALE       7298599330               0         0         0         0    0    0    00002184000000218400000266000058094400
AE00TI102209060106/09/202200000000200000000000000002665KGM  00000003069KGM  7327-6627-3W             BATTERY FUSE             732766273W               0         0         0         0    0    0    00000019200000009600008444000016212480
AE00TI102209060106/09/202200000003400000000000000025228KGM  00000038148KGM  7388-2978-30             HOUSING MALE ASS'Y       7388297830               0         0         0         0    0    0    00001632000000048000001790000292128000
AE00TI102209060106/09/202200000001200000000000000000000KGM  00000000000KGM  7470-4815D               J/B COMPLETE ASS'Y       74704815D                0         0         0         0    0    0    00000018000000001500000000000000000000
AE00TI102209060106/09/202200000001200000000000000000000KGM  00000000000KGM  7470-4816D               J/B COMPLETE ASS'Y       74704816D                0         0         0         0    0    0    00000018000000001500000000000000000000
AE00TI102209060106/09/202200000001800000000000000023760KGM  00000028260KGM  7470-5237                J/B ASS'Y                74705237                 0         0         0         0    0    0    00000043200000002400031359000135470880
AE00TI102209060106/09/202200000001000000000000000000000KGM  00000000000KGM  7470-5307E               J/B COMPLETE ASS'Y       74705307E                0         0         0         0    0    0    00000010000000001000000000000000000000
AE00TI102209060106/09/202200000000700000000000000000000KGM  00000000000KGM  7470-5784D               J/B COMPLETE ASS'Y       74705784D                0         0         0         0    0    0    00000010500000001500000000000000000000
AE00TI102209060106/09/202200000008000000000000000000000KGM  00000000000KGM  7470-5784E               J/B COMPLETE ASS'Y       74705784E                0         0         0         0    0    0    00000080000000001000000000000000000000
