BI00B1200    2399T52919     202210207287-9323                UNSEALED HOUSING SUB     CCN000009600000009600FN00000000020221101000009600NNMD0020220906154640    1N0N  0000024000000053760000069001200    YCYC    005600390023
BI00B1200    2399T52919     202210207289-6159-30             HOUSING FEMALE ASS'Y     CCN000001200000001200FN00000000020221101000001200NNMD0020220906154719    4N0N  0000002400000109500000137501200    YCYC    005500360039
BI00B1200    2399T52919     202210207289-6523-30             HOUSING FEMALE ASS'Y     CCN000005280000005280FN00000000020221101000005280NNMD0020220906154736    4N0N  0000002400000129050000162051200    YCYC    005500360039
BI00B1200    2399T52917     202209297289-6524-30             HOUSING FEMALE ASS'Y     CCN000001920000001920FN00000000020221101000001920NNMD0020220906153711    4N0N  0000002400000135120000166621200    YCYC    005500360039
BI00B1200    2399T52919     202210207289-6524-30             HOUSING FEMALE ASS'Y     CCN000001920000001920FN00000000020221101000001920NNMD0020220906154746    4N0N  0000002400000135120000166621200    YCYC    005500360039
BI00B1200    2399T52917     202210067289-7212-30             HOUSING FEMALE ASS'Y     CCN000004320000004320FN00000000020221101000004320NNMD0020220906154212    4N0N  0000002400000138840000159341200    YCYC    005500360039
BI00B1200    2399T52919     202210207289-7212-30             HOUSING FEMALE ASS'Y     CCN000004320000004320FN00000000020221101000004320NNMD0020220906154805    4N0N  0000002400000138840000159341200    YCYC    005500360039
BI00B1200    2399T52917     202210067289-9612-30             HOUSING FEMALE ASS'Y     CCN000001680000001680FN00000000020221101000001680NNMD0020220906154229    4N0N  0000002400000134880000166881200    YCYC    005500360039
BI00B1200    2399T52919     202210207289-9612-30             HOUSING FEMALE ASS'Y     CCN000001440000001440FN00000000020221101000001440NNMD0020220906154827    4N0N  0000002400000134880000166881200    YCYC    005500360039
BI00B1200    2399T52917     202210067289-9613-30             HOUSING FEMALE ASS'Y     CCN000003840000003840FN00000000020221101000003840NNMD0020220906154242    4N0N  0000002400000126990000154371200    YCYC    005500360039
BI00B1200    2399T52931     202210067288-6547                CONNECTOR MALE ASS'Y     CCN000216000000216000FN00000000020221101000216000NNE   20220906122209    4N0N  0000007500000120530000134031200    YCYC    005400370024
BI00B1200    2399T52931     202210067289-6547                HOUSING FEMALE ASS'Y     CCN000216000000216000FN00000000020221101000216000NNE   20220906122209    1N0N  0000024000000115200000136201200    YCYC    005500360039
BI00B1200    2399T52932     202210067289-6547                HOUSING FEMALE ASS'Y     CCN000216000000216000FN00000000020221101000216000NNE   20220906122209    1N0N  0000024000000115200000136201200    YCYC    005500360039
BI00B1200    Y023B50001     202301127288-9556-30             SEALED ASSY MALE         CCN000005760000005760FN00000000020230201000005760NNM   20220906122209    4N0N  0000007200000053790000078631200    YCYC    005500360039
BI00B32AG    #XG22112LMW    202209237182-9631-40             JOINT CONNECTOR          CCN000003000000003000FN00000000020221101000003000NNMD0020220906131936    2F0F  00000300000001182000001307432AG    XGXGY   005400370024
BI00B32AG    #XG2211CLMW    202209237182-9631-40             JOINT CONNECTOR          CCN000006000000006000FN00000000020221101000006000NNED0020220906131905    2F0F  00000300000001182000001307432AG    XGXGY   005400370024
BI00B32A7    ZZ22111LMW     202210127327-6769-3W             BATTERY FUSE             CCN000011904000011904FN00000000020221101000011904NNMD0420220906163309    4N0N  00000009600000933300001133332A7    ZZZZY   005500360039
BI00B32A7    ZZ22112LMW     202210197327-6769-3W             BATTERY FUSE             CCN000006816000006816FN00000000020221101000006816NNMD0420220906163324    4N0N  00000009600000933300001133332A7    ZZZZY   005500360039
BI00B32A7    ZZ22113LMW     202210267327-6769-3W             BATTERY FUSE             CCN000007296000007296FN00000000020221101000007296NNMD0420220906163338    4N0N  00000009600000933300001133332A7    ZZZZY   005500360039
BI00B32A7    ZZ22114LMW     202211027327-6769-3W             BATTERY FUSE             CCN000005856000005856FN00000000020221101000005856NNMD0420220906163351    4N0N  00000009600000933300001133332A7    ZZZZY   005500360039
BI00B32BF    TT2212ABMW     202210257283-7064-10             CONNECTOR HOUSING        CCN000000600000000600FN00000000020221201000000600NNE   20220906150017    1N0N  00000060000000582600000749632BF    TTTJYCD 005400370024
BI00B32BG    YY2210ACMW     202209227158-3070-80             RUBBER STOPPER           CCN000080000000080000FN00000000020221001000080000NNE   20220906122209    1C0C  00004000000000276000000333332BG    YGYYA   002700430014
BI00B32BG    YY2210DGMW     202209227116-4121-02             TERMINAL                 CCN000045000000045000FN00000000020221001000045000NNE   20220906122209    4P0P  00000450000000618800000912432BG    YGYYA   006400630015
BI00B32BG    YY2210DGMW     202209227126-8854-02             TERMINAL                 CCN000012000000015000FN00000000020221001000015000NNE   20220906122209    4P0P  00000750000000604500000889732BG    YGYYA   006400630015
BI00B32BG    #YY2210DGMW    202209227158-3376-50             CONNECTOR WIRE SEAL      CCN000020000000020000FN00000000020221001000020000NNE   20220906122209    2C0C  00002000000000184000000240732BG    YGYYA   002700430014
BI00B32BG    #YY2210DGMW    202209227283-8398-40             CONNECTOR                CCN000001540000001540FN00000000020221001000001540NNE   20220906122209    2N0N  00000154000001007000001171332BG    YGYYA   005600390023
BI00B32BG    YY2211ACMW     202210067158-3070-80             RUBBER STOPPER           CCN000080000000080000FN00000000020221101000080000NNE   20220906122209    1C0C  00004000000000276000000333332BG    YGYYA   002700430014
BI00B32BG    YY2211AGMW     202210067116-4102-02             TERMINAL                 CCN000036000000036000FN00000000020221101000036000NNE   20220906122209    4P0P  00001200000000553200000841432BG    YGYYA   006400630015
BI00B32BG    YY22123CMW     202211037116-3153-08             TERMINAL                 CCN000027000000027000FN00000000020221201000027000NNM   20220906122209    4P0P  00002700000000461700000746932BG    YGYYA   006400630015
BI00B32BG    YY22124CMW     202211107116-3153-08             TERMINAL                 CCN000081000000081000FN00000000020221201000081000NNM   20220906122209    4P0P  00002700000000461700000746932BG    YGYYA   006400630015
BI00B32BG    YY22121CMW     202210207158-3070-80             RUBBER STOPPER           CCN000080000000080000FN00000000020221201000080000NNM   20220906122209    1C0C  00004000000000276000000333332BG    YGYYA   002700430014
BI00B32BG    YY22122CMW     202210277158-3070-80             RUBBER STOPPER           CCN000080000000080000FN00000000020221201000080000NNM   20220906122209    1C0C  00004000000000276000000333332BG    YGYYA   002700430014
BI00B32BG    YY22123CMW     202211037158-3070-80             RUBBER STOPPER           CCN000040000000040000FN00000000020221201000040000NNM   20220906122209    1C0C  00004000000000276000000333332BG    YGYYA   002700430014
BI00B32BG    YY22124CMW     202211107158-3070-80             RUBBER STOPPER           CCN000080000000080000FN00000000020221201000080000NNM   20220906122209    1C0C  00004000000000276000000333332BG    YGYYA   002700430014
BI00B32BG    YY22121CMW     202210207296-1025-02             TERMINAL ALUMINIUM       CCN000036000000036000FN00000000020221201000036000NNM   20220906122209    4P0P  00001800000000635400000920632BG    YGYYA   006400630015
BI00B32BG    YY22122CMW     202210277296-1025-02             TERMINAL ALUMINIUM       CCN000018000000018000FN00000000020221201000018000NNM   20220906122209    4P0P  00001800000000635400000920632BG    YGYYA   006400630015
BI00B32BG    YY22123CMW     202211037296-1025-02             TERMINAL ALUMINIUM       CCN000054000000054000FN00000000020221201000054000NNM   20220906122209    4P0P  00001800000000635400000920632BG    YGYYA   006400630015
BI00B32BG    YY22124CMW     202211107296-1025-02             TERMINAL ALUMINIUM       CCN000072000000072000FN00000000020221201000072000NNM   20220906122209    4P0P  00001800000000635400000920632BG    YGYYA   006400630015
BI00B32BG    #YY22122CMW    202210277172-5630-40             RUBBER STOPPER           CCN000020000000020000FN00000000020221201000020000NNM   20220906122209    2H0H  00002000000000044000000095132BG    YGYYA   004300270014
BI00B32BG    #YY22123CMW    202211037172-5630-40             RUBBER STOPPER           CCN000020000000020000FN00000000020221201000020000NNM   20220906122209    2H0H  00002000000000044000000095132BG    YGYYA   004300270014
BI00B32BG    #YY22124CMW    202211107172-5630-40             RUBBER STOPPER           CCN000040000000040000FN00000000020221201000040000NNM   20220906122209    2H0H  00002000000000044000000095132BG    YGYYA   004300270014
BI00B32BG    YY22121GMW     202210207114-4111-02             TERMINAL                 CCN000048000000048000FN00000000020221201000048000NNM   20220906122209    4P0P  00001200000000758400001087032BG    YGYYA   006400630017
BI00B32BG    YY22122GMW     202210277114-4111-02             TERMINAL                 CCN000024000000024000FN00000000020221201000024000NNM   20220906122209    4P0P  00001200000000758400001087032BG    YGYYA   006400630017
BI00B32BG    YY22123GMW     202211037114-4111-02             TERMINAL                 CCN000084000000084000FN00000000020221201000084000NNM   20220906122209    4P0P  00001200000000758400001087032BG    YGYYA   006400630017
BI00B32BG    YY22124GMW     202211107114-4111-02             TERMINAL                 CCN000048000000048000FN00000000020221201000048000NNM   20220906122209    4P0P  00001200000000758400001087032BG    YGYYA   006400630017
BI00B32BG    YY22122GMW     202210277114-4112-02             TERMINAL                 CCN000036000000036000FN00000000020221201000036000NNM   20220906122209    4P0P  00000900000000598500000927132BG    YGYYA   006400630017
BI00B32BG    YY22123GMW     202211037114-4112-02             TERMINAL                 CCN000063000000063000FN00000000020221201000063000NNM   20220906122209    4P0P  00000900000000598500000927132BG    YGYYA   006400630017
BI00B32BG    YY22124GMW     202211107114-4112-02             TERMINAL                 CCN000063000000063000FN00000000020221201000063000NNM   20220906122209    4P0P  00000900000000598500000927132BG    YGYYA   006400630017
BI00B32BG    YY22122GMW     202210277116-4100-02             TERMINAL                 CCN000030000000030000FN00000000020221201000030000NNM   20220906122209    4P0P  00001500000000696000000990232BG    YGYYA   006400630015
BI00B32BG    YY22123GMW     202211037116-4100-02             TERMINAL                 CCN000060000000060000FN00000000020221201000060000NNM   20220906122209    4P0P  00001500000000696000000990232BG    YGYYA   006400630015
BI00B32BG    YY22124GMW     202211107116-4100-02             TERMINAL                 CCN000105000000105000FN00000000020221201000105000NNM   20220906122209    4P0P  00001500000000696000000990232BG    YGYYA   006400630015
BI00B32BG    YY22121GMW     202210207116-4102-02             TERMINAL                 CCN000024000000024000FN00000000020221201000024000NNM   20220906122209    4P0P  00001200000000553200000841432BG    YGYYA   006400630015
BI00B32BG    YY22122GMW     202210277116-4102-02             TERMINAL                 CCN000012000000012000FN00000000020221201000012000NNM   20220906122209    4P0P  00001200000000553200000841432BG    YGYYA   006400630015
BI00B32BG    YY22123GMW     202211037116-4102-02             TERMINAL                 CCN000036000000036000FN00000000020221201000036000NNM   20220906122209    4P0P  00001200000000553200000841432BG    YGYYA   006400630015
BI00B32BG    YY22124GMW     202211107116-4102-02             TERMINAL                 CCN000036000000036000FN00000000020221201000036000NNM   20220906122209    4P0P  00001200000000553200000841432BG    YGYYA   006400630015
BI00B32BG    YY22122GMW     202210277116-4104-02             TERMINAL                 CCN000024000000024000FN00000000020221201000024000NNM   20220906122209    4P0P  00001200000000580800000972432BG    YGYYA   006400630015
BI00B32BG    YY22123GMW     202211037116-4104-02             TERMINAL                 CCN000024000000024000FN00000000020221201000024000NNM   20220906122209    4P0P  00001200000000580800000972432BG    YGYYA   006400630015
BI00B32BG    YY22124GMW     202211107116-4104-02             TERMINAL                 CCN000048000000048000FN00000000020221201000048000NNM   20220906122209    4P0P  00001200000000580800000972432BG    YGYYA   006400630015
BI00B32BG    YY22123GMW     202211037116-4110-02             TERMINAL                 CCN000027000000027000FN00000000020221201000027000NNM   20220906122209    4P0P  00000900000000594000000882232BG    YGYYA   006400630015
BI00B32BG    YY22124GMW     202211107116-4110-02             TERMINAL                 CCN000036000000036000FN00000000020221201000036000NNM   20220906122209    4P0P  00000900000000594000000882232BG    YGYYA   006400630015
BI00B32BG    YY22122GMW     202210277116-4111-02             TERMINAL                 CCN000030000000030000FN00000000020221201000030000NNM   20220906122209    4P0P  00000750000000529500000817732BG    YGYYA   006400630015
BI00B32BG    YY22123GMW     202211037116-4111-02             TERMINAL                 CCN000060000000060000FN00000000020221201000060000NNM   20220906122209    4P0P  00000750000000529500000817732BG    YGYYA   006400630015
BI00B32BG    YY22124GMW     202211107116-4111-02             TERMINAL                 CCN000045000000045000FN00000000020221201000045000NNM   20220906122209    4P0P  00000750000000529500000817732BG    YGYYA   006400630015
BI00B32BG    YY22122GMW     202210277116-4112-02             TERMINAL                 CCN000024000000024000FN00000000020221201000024000NNM   20220906122209    4P0P  00000600000000450000000738232BG    YGYYA   006400630015
BI00B32BG    YY22123GMW     202211037116-4112-02             TERMINAL                 CCN000048000000048000FN00000000020221201000048000NNM   20220906122209    4P0P  00000600000000450000000738232BG    YGYYA   006400630015
BI00B32BG    YY22124GMW     202211107116-4112-02             TERMINAL                 CCN000048000000048000FN00000000020221201000048000NNM   20220906122209    4P0P  00000600000000450000000738232BG    YGYYA   006400630015
BI00B32BG    YY22121GMW     202210207116-4120-02             TERMINAL                 CCN000006000000006000FN00000000020221201000006000NNM   20220906122209    4P0P  00000600000000780000001073632BG    YGYYA   006400630015
BI00B32BG    YY22122GMW     202210277116-4120-02             TERMINAL                 CCN000006000000006000FN00000000020221201000006000NNM   20220906122209    4P0P  00000600000000780000001073632BG    YGYYA   006400630015
BI00B32BG    YY22123GMW     202211037116-4120-02             TERMINAL                 CCN000006000000006000FN00000000020221201000006000NNM   20220906122209    4P0P  00000600000000780000001073632BG    YGYYA   006400630015
BI00B32BG    YY22124GMW     202211107116-4120-02             TERMINAL                 CCN000006000000006000FN00000000020221201000006000NNM   20220906122209    4P0P  00000600000000780000001073632BG    YGYYA   006400630015
BI00B32BG    YY22121GMW     202210207116-4121-02             TERMINAL                 CCN000049500000049500FN00000000020221201000049500NNM   20220906122209    4P0P  00000450000000618800000912432BG    YGYYA   006400630015
BI00B32BG    YY22122GMW     202210277116-4121-02             TERMINAL                 CCN000049500000049500FN00000000020221201000049500NNM   20220906122209    4P0P  00000450000000618800000912432BG    YGYYA   006400630015
BI00B32BG    YY22123GMW     202211037116-4121-02             TERMINAL                 CCN000054000000054000FN00000000020221201000054000NNM   20220906122209    4P0P  00000450000000618800000912432BG    YGYYA   006400630015
BI00B32BG    YY22124GMW     202211107116-4121-02             TERMINAL                 CCN000049500000049500FN00000000020221201000049500NNM   20220906122209    4P0P  00000450000000618800000912432BG    YGYYA   006400630015
BI00B32BG    YY22122GMW     202210277116-4122-02             TERMINAL                 CCN000009000000009000FN00000000020221201000009000NNM   20220906122209    4P0P  00000450000000656600000950232BG    YGYYA   006400630015
BI00B32BG    YY22123GMW     202211037116-4122-02             TERMINAL                 CCN000022500000022500FN00000000020221201000022500NNM   20220906122209    4P0P  00000450000000656600000950232BG    YGYYA   006400630015
BI00B32BG    YY22124GMW     202211107116-4122-02             TERMINAL                 CCN000040500000040500FN00000000020221201000040500NNM   20220906122209    4P0P  00000450000000656600000950232BG    YGYYA   006400630015
BI00B32BG    YY22124GMW     202211107126-8853-02             TERMINAL                 CCN000007500000007500FN00000000020221201000007500NNM   20220906122209    4P0P  00000750000000562500000847732BG    YGYYA   006400630015
BI00B32BG    YY22121GMW     202210207126-8854-02             TERMINAL                 CCN000006000000007500FN00000000020221201000007500NNM   20220906122209    4P0P  00000750000000604500000889732BG    YGYYA   006400630015
BI00B32BG    YY22121GMW     202210207126-8855-02             TERMINAL                 CCN000004800000006000FN00000000020221201000006000NNM   20220906122209    4P0P  00000600000000510600000795832BG    YGYYA   006400630015
BI00B32BG    #YY22121GMW    202210207158-3008-80             RUBBER STOPPER           CCN000020000000020000FN00000000020221201000020000NNM   20220906122209    2C0C  00002000000000288000000343032BG    YGYYA   004300270014
BI00B32BG    #YY22121GMW    202210207158-3374-90             CONNECTOR WIRE SEAL      CCN000020000000020000FN00000000020221201000020000NNM   20220906122209    2H0H  00002000000000172000000229332BG    YGYYA   002700430014
BI00B32BG    #YY22121GMW    202210207158-3376-50             CONNECTOR WIRE SEAL      CCN000020000000020000FN00000000020221201000020000NNM   20220906122209    2C0C  00002000000000184000000240732BG    YGYYA   002700430014
BI00B32BG    #YY22122GMW    202210277158-3376-50             CONNECTOR WIRE SEAL      CCN000020000000020000FN00000000020221201000020000NNM   20220906122209    2C0C  00002000000000184000000240732BG    YGYYA   002700430014
BI00B32BG    #YY22121GMW    202210207283-8398-40             CONNECTOR                CCN000001540000001540FN00000000020221201000001540NNM   20220906122209    2N0N  00000154000001007000001171332BG    YGYYA   005600390023
BI00B32BG    #YY22122GMW    202210277283-8398-40             CONNECTOR                CCN000001540000001540FN00000000020221201000001540NNM   20220906122209    2N0N  00000154000001007000001171332BG    YGYYA   005600390023
BI00B32BG    #YY22123GMW    202211037283-8398-40             CONNECTOR                CCN000001540000001540FN00000000020221201000001540NNM   20220906122209    2N0N  00000154000001007000001171332BG    YGYYA   005600390023
BI00B32BG    #YY22124GMW    202211107283-8398-40             CONNECTOR                CCN000001540000001540FN00000000020221201000001540NNM   20220906122209    2N0N  00000154000001007000001171332BG    YGYYA   005600390023
BI00B32CG    S220906-G      202211027116-4025                TERMINAL                 CCN000016000000016000FN00000000020221101000016000NNE   20220906122209    4P0P  00001600000000644800000975132CG    ASASIACO006400630017
BI00B32CG    S220906-S      202211027283-9457-3W             CONNECTOR                CCN000003240000003240FN00000000020221101000003240NNE   20220906122209    4N0N  00000012000000515000001067032CG    ASASIACO005600390023
BI00B32CG    S220906-S      202211027283-9458-30             CONNECTOR                CCN000002600000002600FN00000000020221101000002600NNE   20220906122209    4N0N  00000020000000792000000984332CG    ASASIACO005600390023
BI00B32CG    S220906-S      202211027116-4121-02             TERMINAL                 CCN000013500000013500FN00000000020221101000013500NNE   20220906122209    4P0P  00000450000000618800000912432CG    ASASIACO006400630015
BI00B32CG    S220906-S      202211027116-4111-02             TERMINAL                 CCN000015000000015000FN00000000020221101000015000NNE   20220906122209    4P0P  00000750000000529500000817732CG    ASASIACO006400630015
BI00B32CG    S220906-S      202211027114-4111-02             TERMINAL                 CCN000012000000012000FN00000000020221101000012000NNE   20220906122209    4P0P  00001200000000758400001087032CG    ASASIACO006400630017
BI00B32CG    #S220906-G     202211027158-3376-50             CONNECTOR WIRE SEAL      CCN000020000000020000FN00000000020221101000020000NNE   20220906122209    2C0C  00002000000000184000000240732CG    ASASIACO002700430014
BI00B32CH    #SJ22102 MW    202209087187-8856                HOUSING FEMALE           CCN000024000000024000FN00000000020221001000024000NNMD0420220906122209    2F0F  00000200000000820000000931532CH    SJSAMIJF005400370024
BI00B32CH    #SJ22102 MW    202209157187-8856                HOUSING FEMALE           CCN000012000000000000FY00000000020221001000000000NNMD0420220906094429    2F0F  00000200000000820000000931532CH    SJSAMIJF005400370024
BI00B32CH    SJ22113 MW     202210067017-1180-02             TERMINAL                 CCN000072000000072000FN00000000020221101000072000NNM   20220906122209    4P0P  00007200000001065600001229032CH    SJSAMIJF005100280028
BI00B32CH    SJ22114 MW     202210207017-1180-02             TERMINAL                 CCN000072000000072000FN00000000020221101000072000NNM   20220906122209    4P0P  00007200000001065600001229032CH    SJSAMIJF005100280028
BI00B32CH    SJ22115 MW     202210277017-1180-02             TERMINAL                 CCN000072000000072000FN00000000020221101000072000NNM   20220906122209    4P0P  00007200000001065600001229032CH    SJSAMIJF005100280028
BI00B32CH    SJ22112 MW     202210067017-1182-02             TERMINAL                 CCN000045000000045000FN00000000020221101000045000NNM   20220906122209    4P0P  00004500000001165500001318632CH    SJSAMIJF005100280028
BI00B32CH    SJ22113 MW     202210067017-1182-02             TERMINAL                 CCN000090000000090000FN00000000020221101000090000NNM   20220906122209    4P0P  00004500000001165500001318632CH    SJSAMIJF005100280028
BI00B32CH    SJ22114 MW     202210207017-1182-02             TERMINAL                 CCN000090000000090000FN00000000020221101000090000NNM   20220906122209    4P0P  00004500000001165500001318632CH    SJSAMIJF005100280028
BI00B32CH    SJ22115 MW     202210277017-1182-02             TERMINAL                 CCN000135000000135000FN00000000020221101000135000NNM   20220906122209    4P0P  00004500000001165500001318632CH    SJSAMIJF005100280028
BI00B32CH    SJ22113 MW     202210067017-1183-02             TERMINAL                 CCN000027000000027000FN00000000020221101000027000NNM   20220906122209    4P0P  00002700000001139400001307432CH    SJSAMIJF005100280028
BI00B32CH    SJ22114 MW     202210207017-1183-02             TERMINAL                 CCN000027000000027000FN00000000020221101000027000NNM   20220906122209    4P0P  00002700000001139400001307432CH    SJSAMIJF005100280028
BI00B32CH    SJ22115 MW     202210277017-1183-02             TERMINAL                 CCN000027000000027000FN00000000020221101000027000NNM   20220906122209    4P0P  00002700000001139400001307432CH    SJSAMIJF005100280028
BI00B32CH    SJ22111 MW     202209297114-4020                TERMINAL                 CCN000021000000021000FN00000000020221101000021000NNM   20220906122209    4P0P  00002100000000875700001169332CH    SJSAMIJF006400630015
BI00B32CH    SJ22112 MW     202210067114-4020                TERMINAL                 CCN000042000000042000FN00000000020221101000042000NNM   20220906122209    4P0P  00002100000000875700001169332CH    SJSAMIJF006400630015
BI00B32CH    SJ22113 MW     202210067114-4020                TERMINAL                 CCN000021000000021000FN00000000020221101000021000NNM   20220906122209    4P0P  00002100000000875700001169332CH    SJSAMIJF006400630015
BI00B32CH    SJ22114 MW     202210207114-4020                TERMINAL                 CCN000021000000021000FN00000000020221101000021000NNM   20220906122209    4P0P  00002100000000875700001169332CH    SJSAMIJF006400630015
BI00B32CH    SJ22115 MW     202210277114-4020                TERMINAL                 CCN000021000000021000FN00000000020221101000021000NNM   20220906122209    4P0P  00002100000000875700001169332CH    SJSAMIJF006400630015
BI00B32CH    SJ22112 MW     202210067114-4032                TERMINAL                 CCN000007500000007500FN00000000020221101000007500NNM   20220906122209    4P0P  00000750000000735000001063632CH    SJSAMIJF006400630017
BI00B32CH    SJ22113 MW     202210067114-4032                TERMINAL                 CCN000007500000007500FN00000000020221101000007500NNM   20220906122209    4P0P  00000750000000735000001063632CH    SJSAMIJF006400630017
BI00B32CH    SJ22114 MW     202210207114-4032                TERMINAL                 CCN000007500000007500FN00000000020221101000007500NNM   20220906122209    4P0P  00000750000000735000001063632CH    SJSAMIJF006400630017
BI00B32CH    SJ22115 MW     202210277114-4032                TERMINAL                 CCN000007500000007500FN00000000020221101000007500NNM   20220906122209    4P0P  00000750000000735000001063632CH    SJSAMIJF006400630017
BI00B32CH    SJ22112 MW     202210067114-4111-02             TERMINAL                 CCN000012000000012000FN00000000020221101000012000NNM   20220906122209    4P0P  00001200000000758400001087032CH    SJSAMIJF006400630017
BI00B32CH    SJ22114 MW     202210207114-4111-02             TERMINAL                 CCN000012000000012000FN00000000020221101000012000NNM   20220906122209    4P0P  00001200000000758400001087032CH    SJSAMIJF006400630017
BI00B32CH    SJ22115 MW     202210277114-4111-02             TERMINAL                 CCN000012000000012000FN00000000020221101000012000NNM   20220906122209    4P0P  00001200000000758400001087032CH    SJSAMIJF006400630017
BI00B32CH    SJ22112 MW     202210067114-4112-02             TERMINAL                 CCN000009000000009000FN00000000020221101000009000NNM   20220906122209    4P0P  00000900000000598500000927132CH    SJSAMIJF006400630017
BI00B32CH    SJ22114 MW     202210207114-4112-02             TERMINAL                 CCN000009000000009000FN00000000020221101000009000NNM   20220906122209    4P0P  00000900000000598500000927132CH    SJSAMIJF006400630017
BI00B32CH    SJ22115 MW     202210277114-4112-02             TERMINAL                 CCN000009000000009000FN00000000020221101000009000NNM   20220906122209    4P0P  00000900000000598500000927132CH    SJSAMIJF006400630017
BI00B32CH    SJ22112 MW     202210067114-4728-02             TERMINAL                 CCN000090000000090000FN00000000020221101000090000NNM   20220906122209    4P0P  00003000000000510000000804232CH    SJSAMIJF006400630015
BI00B32CH    SJ22113 MW     202210067114-4728-02             TERMINAL                 CCN000090000000090000FN00000000020221101000090000NNM   20220906122209    4P0P  00003000000000510000000804232CH    SJSAMIJF006400630015
BI00B32CH    SJ22114 MW     202210207114-4728-02             TERMINAL                 CCN000060000000060000FN00000000020221101000060000NNM   20220906122209    4P0P  00003000000000510000000804232CH    SJSAMIJF006400630015
BI00B32CH    SJ22115 MW     202210277114-4728-02             TERMINAL                 CCN000090000000090000FN00000000020221101000090000NNM   20220906122209    4P0P  00003000000000510000000804232CH    SJSAMIJF006400630015
BI00B32CH    SJ22113 MW     202210067114-4729-02             TERMINAL                 CCN000024000000030000FN00000000020221101000030000NNM   20220906122209    4P0P  00003000000000516000000810232CH    SJSAMIJF006400630015
BI00B32CH    SJ22115 MW     202210277114-4729-02             TERMINAL                 CCN000024000000030000FN00000000020221101000030000NNM   20220906122209    4P0P  00003000000000516000000810232CH    SJSAMIJF006400630015
BI00B32CH    SJ22113 MW     202210067114-5746-02             TERMINAL                 CCN000021000000021000FN00000000020221101000021000NNM   20220906122209    4P0P  00002100000000695100000988732CH    SJSAMIJF006400630015
BI00B32CH    SJ22114 MW     202210207114-5746-02             TERMINAL                 CCN000021000000021000FN00000000020221101000021000NNM   20220906122209    4P0P  00002100000000695100000988732CH    SJSAMIJF006400630015
BI00B32CH    SJ22111 MW     202209297114-5747-02             TERMINAL                 CCN000018000000018000FN00000000020221101000018000NNM   20220906122209    4P0P  00001800000000626400000920032CH    SJSAMIJF006400630015
BI00B32CH    SJ22112 MW     202210067114-5747-02             TERMINAL                 CCN000036000000036000FN00000000020221101000036000NNM   20220906122209    4P0P  00001800000000626400000920032CH    SJSAMIJF006400630015
BI00B32CH    SJ22113 MW     202210067114-5747-02             TERMINAL                 CCN000036000000036000FN00000000020221101000036000NNM   20220906122209    4P0P  00001800000000626400000920032CH    SJSAMIJF006400630015
BI00B32CH    SJ22114 MW     202210207114-5747-02             TERMINAL                 CCN000036000000036000FN00000000020221101000036000NNM   20220906122209    4P0P  00001800000000626400000920032CH    SJSAMIJF006400630015
BI00B32CH    SJ22115 MW     202210277114-5747-02             TERMINAL                 CCN000054000000054000FN00000000020221101000054000NNM   20220906122209    4P0P  00001800000000626400000920032CH    SJSAMIJF006400630015
BI00B32CH    SJ22112 MW     202210067114-5748-02             TERMINAL                 CCN000012000000012000FN00000000020221101000012000NNM   20220906122209    4P0P  00001200000000444000000737632CH    SJSAMIJF006400630015
BI00B32CH    SJ22115 MW     202210277114-5748-02             TERMINAL                 CCN000012000000012000FN00000000020221101000012000NNM   20220906122209    4P0P  00001200000000444000000737632CH    SJSAMIJF006400630015
BI00B32CH    SJ22115 MW     202210277114-5753-02             TERMINAL                 CCN000027000000027000FN00000000020221101000027000NNM   20220906122209    4P0P  00002700000000847800001141432CH    SJSAMIJF006400630015
BI00B32CH    SJ22113 MW     202210067116-1685-02             TERMINAL                 CCN000024000000024000FN00000000020221101000024000NNM   20220906122209    4P0P  00002400000000897600001065232CH    SJSAMIJF005100280028
BI00B32CH    SJ22111 MW     202209297116-2641                TERMINAL                 CCN000018000000018000FN00000000020221101000018000NNM   20220906122209    4P0P  00001800000001161000001344632CH    SJSAMIJF005100280028
BI00B32CH    SJ22111 MW     202209297116-3153-02             TERMINAL FEMALE          CCN000240000000243000FN00000000020221101000243000NNM   20220906122209    4P0P  00002700000000459000000744232CH    SJSAMIJF006400630015
BI00B32CH    SJ22112 MW     202210067116-3153-02             TERMINAL FEMALE          CCN000560000000567000FN00000000020221101000567000NNM   20220906122209    4P0P  00002700000000459000000744232CH    SJSAMIJF006400630015
BI00B32CH    SJ22113 MW     202210067116-3153-02             TERMINAL FEMALE          CCN000560000000567000FN00000000020221101000567000NNM   20220906122209    4P0P  00002700000000459000000744232CH    SJSAMIJF006400630015
BI00B32CH    SJ22114 MW     202210207116-3153-02             TERMINAL FEMALE          CCN000560000000567000FN00000000020221101000567000NNM   20220906122209    4P0P  00002700000000459000000744232CH    SJSAMIJF006400630015
BI00B32CH    SJ22115 MW     202210277116-3153-02             TERMINAL FEMALE          CCN000560000000567000FN00000000020221101000567000NNM   20220906122209    4P0P  00002700000000459000000744232CH    SJSAMIJF006400630015
BI00B32CH    SJ22111 MW     202209297116-3154-02             TERMINAL FEMALE          CCN000080000000081000FN00000000020221101000081000NNM   20220906122209    4P0P  00002700000000469800000755032CH    SJSAMIJF006400630015
BI00B32CH    SJ22112 MW     202210067116-3154-02             TERMINAL FEMALE          CCN000520000000540000FN00000000020221101000540000NNM   20220906122209    4P0P  00002700000000469800000755032CH    SJSAMIJF006400630015
BI00B32CH    SJ22113 MW     202210067116-3154-02             TERMINAL FEMALE          CCN000480000000486000FN00000000020221101000486000NNM   20220906122209    4P0P  00002700000000469800000755032CH    SJSAMIJF006400630015
BI00B32CH    SJ22114 MW     202210207116-3154-02             TERMINAL FEMALE          CCN000440000000459000FN00000000020221101000459000NNM   20220906122209    4P0P  00002700000000469800000755032CH    SJSAMIJF006400630015
BI00B32CH    SJ22115 MW     202210277116-3154-02             TERMINAL FEMALE          CCN000480000000486000FN00000000020221101000486000NNM   20220906122209    4P0P  00002700000000469800000755032CH    SJSAMIJF006400630015
BI00B32CH    SJ22114 MW     202210207116-4020                TERMINAL                 CCN000013500000013500FN00000000020221101000013500NNM   20220906122209    4P0P  00001350000000513000000798232CH    SJSAMIJF006400630015
BI00B32CH    SJ22112 MW     202210067116-4025                TERMINAL                 CCN000016000000016000FN00000000020221101000016000NNM   20220906122209    4P0P  00001600000000644800000975132CH    SJSAMIJF006400630017
BI00B32CH    SJ22113 MW     202210067116-4025                TERMINAL                 CCN000016000000016000FN00000000020221101000016000NNM   20220906122209    4P0P  00001600000000644800000975132CH    SJSAMIJF006400630017
BI00B32CH    SJ22115 MW     202210277116-4025                TERMINAL                 CCN000016000000016000FN00000000020221101000016000NNM   20220906122209    4P0P  00001600000000644800000975132CH    SJSAMIJF006400630017
BI00B32CH    SJ22111 MW     202209297116-4028-08             TERMINAL FEMALE          CCN000016000000016000FN00000000020221101000016000NNM   20220906122209    4P0P  00001600000000652800000981532CH    SJSAMIJF006400630017
BI00B32CH    SJ22112 MW     202210067116-4028-08             TERMINAL FEMALE          CCN000080000000080000FN00000000020221101000080000NNM   20220906122209    4P0P  00001600000000652800000981532CH    SJSAMIJF006400630017
BI00B32CH    SJ22113 MW     202210067116-4028-08             TERMINAL FEMALE          CCN000080000000080000FN00000000020221101000080000NNM   20220906122209    4P0P  00001600000000652800000981532CH    SJSAMIJF006400630017
BI00B32CH    SJ22114 MW     202210207116-4028-08             TERMINAL FEMALE          CCN000096000000096000FN00000000020221101000096000NNM   20220906122209    4P0P  00001600000000652800000981532CH    SJSAMIJF006400630017
BI00B32CH    SJ22115 MW     202210277116-4028-08             TERMINAL FEMALE          CCN000080000000080000FN00000000020221101000080000NNM   20220906122209    4P0P  00001600000000652800000981532CH    SJSAMIJF006400630017
BI00B32CH    SJ22113 MW     202210067116-4031                TERMINAL                 CCN000022500000022500FN00000000020221101000022500NNM   20220906122209    4P0P  00000750000000619500000904732CH    SJSAMIJF006400630015
BI00B32CH    SJ22114 MW     202210207116-4031                TERMINAL                 CCN000022500000022500FN00000000020221101000022500NNM   20220906122209    4P0P  00000750000000619500000904732CH    SJSAMIJF006400630015
BI00B32CH    SJ22115 MW     202210277116-4031                TERMINAL                 CCN000030000000030000FN00000000020221101000030000NNM   20220906122209    4P0P  00000750000000619500000904732CH    SJSAMIJF006400630015
BI00B32CH    SJ22112 MW     202210067116-4032                TERMINAL                 CCN000012000000012000FN00000000020221101000012000NNM   20220906122209    4P0P  00000600000000532800000818032CH    SJSAMIJF006400630015
BI00B32CH    SJ22113 MW     202210067116-4032                TERMINAL                 CCN000096000000096000FN00000000020221101000096000NNM   20220906122209    4P0P  00000600000000532800000818032CH    SJSAMIJF006400630015
BI00B32CH    SJ22114 MW     202210207116-4032                TERMINAL                 CCN000096000000096000FN00000000020221101000096000NNM   20220906122209    4P0P  00000600000000532800000818032CH    SJSAMIJF006400630015
BI00B32CH    SJ22115 MW     202210277116-4032                TERMINAL                 CCN000108000000108000FN00000000020221101000108000NNM   20220906122209    4P0P  00000600000000532800000818032CH    SJSAMIJF006400630015
BI00B32CH    SJ22111 MW     202209297116-4037                TERMINAL                 CCN000078000000078000FN00000000020221101000078000NNM   20220906122209    4P0P  00000600000000600000000894232CH    SJSAMIJF006400630015
BI00B32CH    SJ22112 MW     202210067116-4037                TERMINAL                 CCN000036000000036000FN00000000020221101000036000NNM   20220906122209    4P0P  00000600000000600000000894232CH    SJSAMIJF006400630015
BI00B32CH    SJ22113 MW     202210067116-4037                TERMINAL                 CCN000018000000018000FN00000000020221101000018000NNM   20220906122209    4P0P  00000600000000600000000894232CH    SJSAMIJF006400630015
BI00B32CH    SJ22114 MW     202210207116-4037                TERMINAL                 CCN000024000000024000FN00000000020221101000024000NNM   20220906122209    4P0P  00000600000000600000000894232CH    SJSAMIJF006400630015
BI00B32CH    SJ22115 MW     202210277116-4037                TERMINAL                 CCN000024000000024000FN00000000020221101000024000NNM   20220906122209    4P0P  00000600000000600000000894232CH    SJSAMIJF006400630015
BI00B32CH    SJ22113 MW     202210067116-4231-02             TERMINAL                 CCN000078000000078000FN00000000020221101000078000NNM   20220906122209    4P0P  00002600000000683800001012532CH    SJSAMIJF006400630017
BI00B32CH    SJ22114 MW     202210207116-4231-02             TERMINAL                 CCN000052000000052000FN00000000020221101000052000NNM   20220906122209    4P0P  00002600000000683800001012532CH    SJSAMIJF006400630017
BI00B32CH    SJ22115 MW     202210277116-4231-02             TERMINAL                 CCN000078000000078000FN00000000020221101000078000NNM   20220906122209    4P0P  00002600000000683800001012532CH    SJSAMIJF006400630017
BI00B32CH    SJ22112 MW     202210067116-4415-02             TERMINAL                 CCN000228000000228000FN00000000020221101000228000NNM   20220906122209    4P0P  00003800000000596600000925732CH    SJSAMIJF006400630017
BI00B32CH    SJ22113 MW     202210067116-4415-02             TERMINAL                 CCN000342000000342000FN00000000020221101000342000NNM   20220906122209    4P0P  00003800000000596600000925732CH    SJSAMIJF006400630017
BI00B32CH    SJ22114 MW     202210207116-4415-02             TERMINAL                 CCN000380000000380000FN00000000020221101000380000NNM   20220906122209    4P0P  00003800000000596600000925732CH    SJSAMIJF006400630017
BI00B32CH    SJ22115 MW     202210277116-4415-02             TERMINAL                 CCN000418000000418000FN00000000020221101000418000NNM   20220906122209    4P0P  00003800000000596600000925732CH    SJSAMIJF006400630017
BI00B32CH    SJ22112 MW     202210067116-4416-02             TERMINAL                 CCN000064000000064000FN00000000020221101000064000NNM   20220906122209    4P0P  00003200000000518400000847132CH    SJSAMIJF006400630017
BI00B32CH    SJ22113 MW     202210067116-4416-02             TERMINAL                 CCN000064000000064000FN00000000020221101000064000NNM   20220906122209    4P0P  00003200000000518400000847132CH    SJSAMIJF006400630017
BI00B32CH    SJ22114 MW     202210207116-4416-02             TERMINAL                 CCN000096000000096000FN00000000020221101000096000NNM   20220906122209    4P0P  00003200000000518400000847132CH    SJSAMIJF006400630017
BI00B32CH    SJ22115 MW     202210277116-4416-02             TERMINAL                 CCN000096000000096000FN00000000020221101000096000NNM   20220906122209    4P0P  00003200000000518400000847132CH    SJSAMIJF006400630017
BI00B32CH    SJ22111 MW     202209297116-4486-02             TERMINAL                 CCN000028000000028000FN00000000020221101000028000NNM   20220906122209    4P0P  00002800000000666400000995132CH    SJSAMIJF006400630017
BI00B32CH    SJ22112 MW     202210067116-4486-02             TERMINAL                 CCN000084000000084000FN00000000020221101000084000NNM   20220906122209    4P0P  00002800000000666400000995132CH    SJSAMIJF006400630017
BI00B32CH    SJ22113 MW     202210067116-4486-02             TERMINAL                 CCN000112000000112000FN00000000020221101000112000NNM   20220906122209    4P0P  00002800000000666400000995132CH    SJSAMIJF006400630017
BI00B32CH    SJ22114 MW     202210207116-4486-02             TERMINAL                 CCN000084000000084000FN00000000020221101000084000NNM   20220906122209    4P0P  00002800000000666400000995132CH    SJSAMIJF006400630017
BI00B32CH    SJ22115 MW     202210277116-4486-02             TERMINAL                 CCN000084000000084000FN00000000020221101000084000NNM   20220906122209    4P0P  00002800000000666400000995132CH    SJSAMIJF006400630017
BI00B32CH    SJ22111 MW     202209297116-5041-02             TERMINAL                 CCN000060000000060000FN00000000020221101000060000NNM   20220906122209    4P0P  00001500000000583500000868732CH    SJSAMIJF006400630015
BI00B32CH    SJ22112 MW     202210067116-5041-02             TERMINAL                 CCN000240000000240000FN00000000020221101000240000NNM   20220906122209    4P0P  00001500000000583500000868732CH    SJSAMIJF006400630015
BI00B32CH    SJ22113 MW     202210067116-5041-02             TERMINAL                 CCN000225000000225000FN00000000020221101000225000NNM   20220906122209    4P0P  00001500000000583500000868732CH    SJSAMIJF006400630015
BI00B32CH    SJ22114 MW     202210207116-5041-02             TERMINAL                 CCN000240000000240000FN00000000020221101000240000NNM   20220906122209    4P0P  00001500000000583500000868732CH    SJSAMIJF006400630015
BI00B32CH    SJ22115 MW     202210277116-5041-02             TERMINAL                 CCN000240000000240000FN00000000020221101000240000NNM   20220906122209    4P0P  00001500000000583500000868732CH    SJSAMIJF006400630015
BI00B32CH    SJ22112 MW     202210067116-5042-02             TERMINAL                 CCN000135000000135000FN00000000020221101000135000NNM   20220906122209    4P0P  00001350000000560300000845532CH    SJSAMIJF006400630015
BI00B32CH    SJ22113 MW     202210067116-5042-02             TERMINAL                 CCN000148500000148500FN00000000020221101000148500NNM   20220906122209    4P0P  00001350000000560300000845532CH    SJSAMIJF006400630015
BI00B32CH    SJ22114 MW     202210207116-5042-02             TERMINAL                 CCN000135000000135000FN00000000020221101000135000NNM   20220906122209    4P0P  00001350000000560300000845532CH    SJSAMIJF006400630015
BI00B32CH    SJ22115 MW     202210277116-5042-02             TERMINAL                 CCN000162000000162000FN00000000020221101000162000NNM   20220906122209    4P0P  00001350000000560300000845532CH    SJSAMIJF006400630015
BI00B32CH    SJ22112 MW     202210067116-5043-02             TERMINAL FEMALE          CCN000108000000108000FN00000000020221101000108000NNM   20220906122209    4P0P  00001200000000559200000844432CH    SJSAMIJF006400630015
BI00B32CH    SJ22113 MW     202210067116-5043-02             TERMINAL FEMALE          CCN000096000000096000FN00000000020221101000096000NNM   20220906122209    4P0P  00001200000000559200000844432CH    SJSAMIJF006400630015
BI00B32CH    SJ22114 MW     202210207116-5043-02             TERMINAL FEMALE          CCN000096000000096000FN00000000020221101000096000NNM   20220906122209    4P0P  00001200000000559200000844432CH    SJSAMIJF006400630015
BI00B32CH    SJ22115 MW     202210277116-5043-02             TERMINAL FEMALE          CCN000108000000108000FN00000000020221101000108000NNM   20220906122209    4P0P  00001200000000559200000844432CH    SJSAMIJF006400630015
BI00B32CH    SJ22111 MW     202209297116-5044-02             TERMINAL                 CCN000048000000048000FN00000000020221101000048000NNM   20220906122209    4P0P  00001600000000641600000986332CH    SJSAMIJF006400630017
BI00B32CH    SJ22112 MW     202210067116-5044-02             TERMINAL                 CCN000368000000368000FN00000000020221101000368000NNM   20220906122209    4P0P  00001600000000641600000986332CH    SJSAMIJF006400630017
BI00B32CH    SJ22113 MW     202210067116-5044-02             TERMINAL                 CCN000384000000384000FN00000000020221101000384000NNM   20220906122209    4P0P  00001600000000641600000986332CH    SJSAMIJF006400630017
BI00B32CH    SJ22114 MW     202210207116-5044-02             TERMINAL                 CCN000336000000336000FN00000000020221101000336000NNM   20220906122209    4P0P  00001600000000641600000986332CH    SJSAMIJF006400630017
BI00B32CH    SJ22115 MW     202210277116-5044-02             TERMINAL                 CCN000368000000368000FN00000000020221101000368000NNM   20220906122209    4P0P  00001600000000641600000986332CH    SJSAMIJF006400630017
BI00B32CH    SJ22112 MW     202210067116-5045-02             TERMINAL                 CCN000144000000144000FN00000000020221101000144000NNM   20220906122209    4P0P  00001600000000678400001007132CH    SJSAMIJF006400630017
BI00B32CH    SJ22113 MW     202210067116-5045-02             TERMINAL                 CCN000208000000208000FN00000000020221101000208000NNM   20220906122209    4P0P  00001600000000678400001007132CH    SJSAMIJF006400630017
BI00B32CH    SJ22114 MW     202210207116-5045-02             TERMINAL                 CCN000192000000192000FN00000000020221101000192000NNM   20220906122209    4P0P  00001600000000678400001007132CH    SJSAMIJF006400630017
BI00B32CH    SJ22115 MW     202210277116-5045-02             TERMINAL                 CCN000208000000208000FN00000000020221101000208000NNM   20220906122209    4P0P  00001600000000678400001007132CH    SJSAMIJF006400630017
BI00B32CH    SJ22111 MW     202209297116-5046-02             TERMINAL                 CCN000012000000012000FN00000000020221101000012000NNM   20220906122209    4P0P  00001200000000544800000873532CH    SJSAMIJF006400630017
BI00B32CH    SJ22112 MW     202210067116-5046-02             TERMINAL                 CCN000012000000012000FN00000000020221101000012000NNM   20220906122209    4P0P  00001200000000544800000873532CH    SJSAMIJF006400630017
BI00B32CH    SJ22114 MW     202210207116-5046-02             TERMINAL                 CCN000012000000012000FN00000000020221101000012000NNM   20220906122209    4P0P  00001200000000544800000873532CH    SJSAMIJF006400630017
BI00B32CH    SJ22115 MW     202210277116-5046-02             TERMINAL                 CCN000012000000012000FN00000000020221101000012000NNM   20220906122209    4P0P  00001200000000544800000873532CH    SJSAMIJF006400630017
BI00B32CH    SJ22111 MW     202209297116-5750-02             TERMINAL                 CCN000090000000090000FN00000000020221101000090000NNM   20220906122209    4P0P  00001500000000457500000742732CH    SJSAMIJF006400630015
BI00B32CH    SJ22112 MW     202210067116-5750-02             TERMINAL                 CCN000375000000375000FN00000000020221101000375000NNM   20220906122209    4P0P  00001500000000457500000742732CH    SJSAMIJF006400630015
BI00B32CH    SJ22113 MW     202210067116-5750-02             TERMINAL                 CCN000375000000375000FN00000000020221101000375000NNM   20220906122209    4P0P  00001500000000457500000742732CH    SJSAMIJF006400630015
BI00B32CH    SJ22114 MW     202210207116-5750-02             TERMINAL                 CCN000375000000375000FN00000000020221101000375000NNM   20220906122209    4P0P  00001500000000457500000742732CH    SJSAMIJF006400630015
BI00B32CH    SJ22115 MW     202210277116-5750-02             TERMINAL                 CCN000405000000405000FN00000000020221101000405000NNM   20220906122209    4P0P  00001500000000457500000742732CH    SJSAMIJF006400630015
BI00B32CH    SJ22111 MW     202209297116-5752-02             TERMINAL                 CCN000021000000021000FN00000000020221101000021000NNM   20220906122209    4P0P  00002100000000571200000856432CH    SJSAMIJF006400630015
BI00B32CH    SJ22112 MW     202210067116-5752-02             TERMINAL                 CCN000063000000063000FN00000000020221101000063000NNM   20220906122209    4P0P  00002100000000571200000856432CH    SJSAMIJF006400630015
BI00B32CH    SJ22113 MW     202210067116-5752-02             TERMINAL                 CCN000042000000042000FN00000000020221101000042000NNM   20220906122209    4P0P  00002100000000571200000856432CH    SJSAMIJF006400630015
BI00B32CH    SJ22114 MW     202210207116-5752-02             TERMINAL                 CCN000063000000063000FN00000000020221101000063000NNM   20220906122209    4P0P  00002100000000571200000856432CH    SJSAMIJF006400630015
BI00B32CH    SJ22115 MW     202210277116-5752-02             TERMINAL                 CCN000063000000063000FN00000000020221101000063000NNM   20220906122209    4P0P  00002100000000571200000856432CH    SJSAMIJF006400630015
BI00B32CH    SJ22112 MW     202210067116-6041                TERMINAL                 CCN000045000000045000FN00000000020221101000045000NNM   20220906122209    4P0P  00000450000000716000001009632CH    SJSAMIJF006400630015
BI00B32CH    SJ22113 MW     202210067116-6041                TERMINAL                 CCN000081000000081000FN00000000020221101000081000NNM   20220906122209    4P0P  00000450000000716000001009632CH    SJSAMIJF006400630015
BI00B32CH    SJ22114 MW     202210207116-6041                TERMINAL                 CCN000094500000094500FN00000000020221101000094500NNM   20220906122209    4P0P  00000450000000716000001009632CH    SJSAMIJF006400630015
BI00B32CH    SJ22115 MW     202210277116-6041                TERMINAL                 CCN000099000000099000FN00000000020221101000099000NNM   20220906122209    4P0P  00000450000000716000001009632CH    SJSAMIJF006400630015
BI00B32CH    SJ22112 MW     202210067116-6042                TERMINAL                 CCN000045000000045000FN00000000020221101000045000NNM   20220906122209    4P0P  00000300000000523800000856132CH    SJSAMIJF006400630015
BI00B32CH    SJ22113 MW     202210067116-6042                TERMINAL                 CCN000054000000054000FN00000000020221101000054000NNM   20220906122209    4P0P  00000300000000523800000856132CH    SJSAMIJF006400630015
BI00B32CH    SJ22114 MW     202210207116-6042                TERMINAL                 CCN000063000000063000FN00000000020221101000063000NNM   20220906122209    4P0P  00000300000000523800000856132CH    SJSAMIJF006400630015
BI00B32CH    SJ22115 MW     202210277116-6042                TERMINAL                 CCN000066000000066000FN00000000020221101000066000NNM   20220906122209    4P0P  00000300000000523800000856132CH    SJSAMIJF006400630015
BI00B32CH    SJ22112 MW     202210067126-8853-02             TERMINAL                 CCN000112500000112500FN00000000020221101000112500NNM   20220906122209    4P0P  00000750000000562500000847732CH    SJSAMIJF006400630015
BI00B32CH    SJ22113 MW     202210067126-8853-02             TERMINAL                 CCN000172500000172500FN00000000020221101000172500NNM   20220906122209    4P0P  00000750000000562500000847732CH    SJSAMIJF006400630015
BI00B32CH    SJ22114 MW     202210207126-8853-02             TERMINAL                 CCN000172500000172500FN00000000020221101000172500NNM   20220906122209    4P0P  00000750000000562500000847732CH    SJSAMIJF006400630015
BI00B32CH    SJ22115 MW     202210277126-8853-02             TERMINAL                 CCN000187500000187500FN00000000020221101000187500NNM   20220906122209    4P0P  00000750000000562500000847732CH    SJSAMIJF006400630015
BI00B32CH    SJ22112 MW     202210067126-8854-02             TERMINAL                 CCN000135000000135000FN00000000020221101000135000NNM   20220906122209    4P0P  00000750000000604500000889732CH    SJSAMIJF006400630015
BI00B32CH    SJ22113 MW     202210067126-8854-02             TERMINAL                 CCN000217500000217500FN00000000020221101000217500NNM   20220906122209    4P0P  00000750000000604500000889732CH    SJSAMIJF006400630015
BI00B32CH    SJ22114 MW     202210207126-8854-02             TERMINAL                 CCN000225000000225000FN00000000020221101000225000NNM   20220906122209    4P0P  00000750000000604500000889732CH    SJSAMIJF006400630015
BI00B32CH    SJ22115 MW     202210277126-8854-02             TERMINAL                 CCN000247500000247500FN00000000020221101000247500NNM   20220906122209    4P0P  00000750000000604500000889732CH    SJSAMIJF006400630015
BI00B32CH    SJ22111 MW     202209297158-3006-90             RUBBER STOPPER           CCN000120000000120000FN00000000020221101000120000NNM   20220906122209    1C0C  00002000000000330600000386032CH    SJSAMIJF002700430014
BI00B32CH    SJ22112 MW     202210067158-3006-90             RUBBER STOPPER           CCN000340000000340000FN00000000020221101000340000NNM   20220906122209    1C0C  00002000000000330600000386032CH    SJSAMIJF002700430014
BI00B32CH    SJ22113 MW     202210067158-3006-90             RUBBER STOPPER           CCN000320000000320000FN00000000020221101000320000NNM   20220906122209    1C0C  00002000000000330600000386032CH    SJSAMIJF002700430014
BI00B32CH    SJ22114 MW     202210207158-3006-90             RUBBER STOPPER           CCN000340000000340000FN00000000020221101000340000NNM   20220906122209    1C0C  00002000000000330600000386032CH    SJSAMIJF002700430014
BI00B32CH    SJ22115 MW     202210277158-3006-90             RUBBER STOPPER           CCN000320000000320000FN00000000020221101000320000NNM   20220906122209    1C0C  00002000000000330600000386032CH    SJSAMIJF002700430014
BI00B32CH    SJ22112 MW     202210067158-3009-60             RUBBER STOPPER           CCN000160000000160000FN00000000020221101000160000NNM   20220906122209    1C0C  00002000000000338000000386232CH    SJSAMIJF002700430014
BI00B32CH    SJ22113 MW     202210067158-3009-60             RUBBER STOPPER           CCN000260000000260000FN00000000020221101000260000NNM   20220906122209    1C0C  00002000000000338000000386232CH    SJSAMIJF002700430014
BI00B32CH    SJ22114 MW     202210207158-3009-60             RUBBER STOPPER           CCN000240000000240000FN00000000020221101000240000NNM   20220906122209    1C0C  00002000000000338000000386232CH    SJSAMIJF002700430014
BI00B32CH    SJ22115 MW     202210277158-3009-60             RUBBER STOPPER           CCN000240000000240000FN00000000020221101000240000NNM   20220906122209    1C0C  00002000000000338000000386232CH    SJSAMIJF002700430014
BI00B32CH    SJ22111 MW     202209297158-3022-80             RUBBER STOPPER           CCN000010000000010000FN00000000020221101000010000NNM   20220906122209    1C0C  00000500000000467500000524032CH    SJSAMIJF002700430014
BI00B32CH    SJ22112 MW     202210067158-3022-80             RUBBER STOPPER           CCN000010000000010000FN00000000020221101000010000NNM   20220906122209    1C0C  00000500000000467500000524032CH    SJSAMIJF002700430014
BI00B32CH    SJ22113 MW     202210067158-3022-80             RUBBER STOPPER           CCN000010000000010000FN00000000020221101000010000NNM   20220906122209    1C0C  00000500000000467500000524032CH    SJSAMIJF002700430014
BI00B32CH    SJ22114 MW     202210207158-3022-80             RUBBER STOPPER           CCN000010000000010000FN00000000020221101000010000NNM   20220906122209    1C0C  00000500000000467500000524032CH    SJSAMIJF002700430014
BI00B32CH    SJ22115 MW     202210277158-3022-80             RUBBER STOPPER           CCN000010000000010000FN00000000020221101000010000NNM   20220906122209    1C0C  00000500000000467500000524032CH    SJSAMIJF002700430014
BI00B32CH    SJ22111 MW     202209297158-3165-90             WIRE SEAL                CCN000040000000040000FN00000000020221101000040000NNM   20220906122209    1C0C  00004000000000124000000172432CH    SJSAMIJF004300270014
BI00B32CH    SJ22112 MW     202210067158-3165-90             WIRE SEAL                CCN000160000000160000FN00000000020221101000160000NNM   20220906122209    1C0C  00004000000000124000000172432CH    SJSAMIJF004300270014
BI00B32CH    SJ22113 MW     202210067158-3165-90             WIRE SEAL                CCN000160000000160000FN00000000020221101000160000NNM   20220906122209    1C0C  00004000000000124000000172432CH    SJSAMIJF004300270014
BI00B32CH    SJ22114 MW     202210207158-3165-90             WIRE SEAL                CCN000200000000200000FN00000000020221101000200000NNM   20220906122209    1C0C  00004000000000124000000172432CH    SJSAMIJF004300270014
BI00B32CH    SJ22115 MW     202210277158-3165-90             WIRE SEAL                CCN000200000000200000FN00000000020221101000200000NNM   20220906122209    1C0C  00004000000000124000000172432CH    SJSAMIJF004300270014
BI00B32CH    SJ22112 MW     202210067158-3167-80             WIRE SEAL                CCN000040000000040000FN00000000020221101000040000NNM   20220906122209    1C0C  00002000000000048000000109032CH    SJSAMIJF002700430014
BI00B32CH    SJ22113 MW     202210067158-3167-80             WIRE SEAL                CCN000040000000040000FN00000000020221101000040000NNM   20220906122209    1C0C  00002000000000048000000109032CH    SJSAMIJF002700430014
BI00B32CH    SJ22114 MW     202210207158-3167-80             WIRE SEAL                CCN000020000000020000FN00000000020221101000020000NNM   20220906122209    1C0C  00002000000000048000000109032CH    SJSAMIJF002700430014
BI00B32CH    SJ22115 MW     202210277158-3167-80             WIRE SEAL                CCN000040000000040000FN00000000020221101000040000NNM   20220906122209    1C0C  00002000000000048000000109032CH    SJSAMIJF002700430014
BI00B32CH    SJ22114 MW     202210207158-3169-40             SEALING PLUG             CCN000040000000040000FN00000000020221101000040000NNM   20220906122209    1C0C  00004000000000156000000204132CH    SJSAMIJF004300260014
BI00B32CH    SJ22115 MW     202210277158-3169-40             SEALING PLUG             CCN000080000000080000FN00000000020221101000080000NNM   20220906122209    1C0C  00004000000000156000000204132CH    SJSAMIJF004300260014
BI00B32CH    SJ22113 MW     202210067172-5540-80             SEALED WIRE SEAL         CCN000020000000020000FN00000000020221101000020000NNM   20220906122209    1C0C  00002000000000186000000234432CH    SJSAMIJF004300270014
BI00B32CH    SJ22115 MW     202210277196-0805-02             TERMINAL FEMALE          CCN000022500000022500FN00000000020221101000022500NNM   20220906122209    4P0P  00002250000000558000000843232CH    SJSAMIJF006400630015
BI00B32CH    SJ22112 MW     202210067283-4576                HOUSING FEMALE ASS'Y     CCN000004800000004800FN00000000020221101000004800NNM   20220906122209    4N0N  00000480000000651300000871332CH    SJSAMIJF005500360039
BI00B32CH    SJ22113 MW     202210067283-4576                HOUSING FEMALE ASS'Y     CCN000004800000004800FN00000000020221101000004800NNM   20220906122209    4N0N  00000480000000651300000871332CH    SJSAMIJF005500360039
BI00B32CH    SJ22115 MW     202210277283-4576                HOUSING FEMALE ASS'Y     CCN000004800000004800FN00000000020221101000004800NNM   20220906122209    4N0N  00000480000000651300000871332CH    SJSAMIJF005500360039
BI00B32CH    SJ22115 MW     202210277283-5845                CONNECTOR HOUSING        CCN000006000000006000FN00000000020221101000006000NNM   20220906122209    1N0N  00000600000000444000000606332CH    SJSAMIJF005400370024
BI00B32CH    SJ22111 MW     202209297283-7062-40             CONNECTOR HOUSING        CCN000000600000000600FN00000000020221101000000600NNM   20220906122209    1N0N  00000060000000500400000645432CH    SJSAMIJF005400370024
BI00B32CH    SJ22111 MW     202209297283-7526-40             CONNECTOR HOUSING        CCN000001960000001960FN00000000020221101000001960NNM   20220906122209    4N0N  00000196000000989800001248632CH    SJSAMIJF005500360039
BI00B32CH    SJ22112 MW     202210067283-7526-40             CONNECTOR HOUSING        CCN000001960000001960FN00000000020221101000001960NNM   20220906122209    4N0N  00000196000000989800001248632CH    SJSAMIJF005500360039
BI00B32CH    SJ22113 MW     202210067283-7526-40             CONNECTOR HOUSING        CCN000001960000001960FN00000000020221101000001960NNM   20220906122209    4N0N  00000196000000989800001248632CH    SJSAMIJF005500360039
BI00B32CH    SJ22115 MW     202210277283-7526-40             CONNECTOR HOUSING        CCN000001960000001960FN00000000020221101000001960NNM   20220906122209    4N0N  00000196000000989800001248632CH    SJSAMIJF005500360039
BI00B32CH    SJ22112 MW     202210067327-6832-60             MAIN FUSE                CCN000000600000000600FN00000000020221101000000600NNM   20220906122209    4N0N  00000060000000729200000930732CH    SJSAMIJF005400370024
BI00B32CH    SJ22113 MW     202210067327-6832-60             MAIN FUSE                CCN000006600000006600FN00000000020221101000006600NNM   20220906122209    4N0N  00000060000000729200000930732CH    SJSAMIJF005400370024
BI00B32CH    SJ22114 MW     202210207327-6832-60             MAIN FUSE                CCN000007200000007200FN00000000020221101000007200NNM   20220906122209    4N0N  00000060000000729200000930732CH    SJSAMIJF005400370024
BI00B32CH    SJ22115 MW     202210277327-6832-60             MAIN FUSE                CCN000008400000008400FN00000000020221101000008400NNM   20220906122209    4N0N  00000060000000729200000930732CH    SJSAMIJF005400370024
BI00B32CH    SJ22111 MW     202209297388-0315-40             CONNECTOR ASS'Y          CCN000002400000002400FN00000000020221101000002400NNM   20220906122209    4N0N  00000120000000999600001129632CH    SJSAMIJF005400370024
BI00B32CH    SJ22112 MW     202210067388-0315-40             CONNECTOR ASS'Y          CCN000002400000002400FN00000000020221101000002400NNM   20220906122209    4N0N  00000120000000999600001129632CH    SJSAMIJF005400370024
BI00B32CH    SJ22113 MW     202210067388-0315-40             CONNECTOR ASS'Y          CCN000002400000002400FN00000000020221101000002400NNM   20220906122209    4N0N  00000120000000999600001129632CH    SJSAMIJF005400370024
BI00B32CH    SJ22114 MW     202210207388-0315-40             CONNECTOR ASS'Y          CCN000002400000002400FN00000000020221101000002400NNM   20220906122209    4N0N  00000120000000999600001129632CH    SJSAMIJF005400370024
BI00B32CH    SJ22115 MW     202210277388-0315-40             CONNECTOR ASS'Y          CCN000002400000002400FN00000000020221101000002400NNM   20220906122209    4N0N  00000120000000999600001129632CH    SJSAMIJF005400370024
BI00B32CH    #SJ22111 MW    202209297157-3950-80             SEAL RUBBER              CCN000040000000040000FN00000000020221101000040000NNM   20220906122209    2C0C  00004000000000154000000440332CH    SJSAMIJF002700430014
BI00B32CH    #SJ22111 MW    202209297158-3003-90             RUBBER STOPPER           CCN000020000000020000FN00000000020221101000020000NNM   20220906122209    2C0C  00002000000000250000000306032CH    SJSAMIJF002700430014
BI00B32CH    #SJ22112 MW    202210067158-3003-90             RUBBER STOPPER           CCN000080000000080000FN00000000020221101000080000NNM   20220906122209    2C0C  00002000000000250000000306032CH    SJSAMIJF002700430014
BI00B32CH    #SJ22113 MW    202210067158-3003-90             RUBBER STOPPER           CCN000080000000080000FN00000000020221101000080000NNM   20220906122209    2C0C  00002000000000250000000306032CH    SJSAMIJF002700430014
BI00B32CH    #SJ22114 MW    202210207158-3003-90             RUBBER STOPPER           CCN000100000000100000FN00000000020221101000100000NNM   20220906122209    2C0C  00002000000000250000000306032CH    SJSAMIJF002700430014
BI00B32CH    #SJ22115 MW    202210277158-3003-90             RUBBER STOPPER           CCN000080000000080000FN00000000020221101000080000NNM   20220906122209    2C0C  00002000000000250000000306032CH    SJSAMIJF002700430014
BI00B32CH    #SJ22112 MW    202210067158-3007-10             RUBBER STOPPER           CCN000020000000020000FN00000000020221101000020000NNM   20220906122209    2H0H  00002000000000308000000362732CH    SJSAMIJF002700430014
BI00B32CH    #SJ22113 MW    202210067158-3007-10             RUBBER STOPPER           CCN000020000000020000FN00000000020221101000020000NNM   20220906122209    2H0H  00002000000000308000000362732CH    SJSAMIJF002700430014
BI00B32CH    #SJ22114 MW    202210207158-3007-10             RUBBER STOPPER           CCN000020000000020000FN00000000020221101000020000NNM   20220906122209    2H0H  00002000000000308000000362732CH    SJSAMIJF002700430014
BI00B32CH    #SJ22115 MW    202210277158-3007-10             RUBBER STOPPER           CCN000040000000040000FN00000000020221101000040000NNM   20220906122209    2H0H  00002000000000308000000362732CH    SJSAMIJF002700430014
BI00B32CH    #SJ22114 MW    202210207158-3008-80             RUBBER STOPPER           CCN000020000000020000FN00000000020221101000020000NNM   20220906122209    2C0C  00002000000000288000000343032CH    SJSAMIJF004300270014
BI00B32CH    #SJ22111 MW    202209297158-3015-10             RUBBER STOPPER           CCN000030000000030000FN00000000020221101000030000NNM   20220906122209    2C0C  00001000000000419500000474032CH    SJSAMIJF002700430014
BI00B32CH    #SJ22112 MW    202210067158-3015-10             RUBBER STOPPER           CCN000010000000010000FN00000000020221101000010000NNM   20220906122209    2C0C  00001000000000419500000474032CH    SJSAMIJF002700430014
BI00B32CH    #SJ22113 MW    202210067158-3015-10             RUBBER STOPPER           CCN000020000000020000FN00000000020221101000020000NNM   20220906122209    2C0C  00001000000000419500000474032CH    SJSAMIJF002700430014
BI00B32CH    #SJ22114 MW    202210207158-3015-10             RUBBER STOPPER           CCN000020000000020000FN00000000020221101000020000NNM   20220906122209    2C0C  00001000000000419500000474032CH    SJSAMIJF002700430014
BI00B32CH    #SJ22115 MW    202210277158-3015-10             RUBBER STOPPER           CCN000010000000010000FN00000000020221101000010000NNM   20220906122209    2C0C  00001000000000419500000474032CH    SJSAMIJF002700430014
BI00B32CH    #SJ22111 MW    202209297183-1615                HOUSING                  CCN000004800000004800FN00000000020221101000004800NNM   20220906122209    2F0F  00000480000000757000001042032CH    SJSAMIJF005500360039
BI00B32CH    #SJ22112 MW    202210067183-1615                HOUSING                  CCN000004800000004800FN00000000020221101000004800NNM   20220906122209    2F0F  00000480000000757000001042032CH    SJSAMIJF005500360039
BI00B32CH    #SJ22113 MW    202210067183-1615                HOUSING                  CCN000004800000004800FN00000000020221101000004800NNM   20220906122209    2F0F  00000480000000757000001042032CH    SJSAMIJF005500360039
BI00B32CH    #SJ22115 MW    202210277183-1615                HOUSING                  CCN000004800000004800FN00000000020221101000004800NNM   20220906122209    2F0F  00000480000000757000001042032CH    SJSAMIJF005500360039
BI00B32CH    #SJ22111 MW    202209297183-2414                CONNECTOR HOUSING        CCN000009600000009600FN00000000020221101000009600NNM   20220906122209    2F0F  00000480000000779200001061032CH    SJSAMIJF005500360039
BI00B32CH    #SJ22112 MW    202210067183-2414                CONNECTOR HOUSING        CCN000024000000024000FN00000000020221101000024000NNM   20220906122209    2F0F  00000480000000779200001061032CH    SJSAMIJF005500360039
BI00B32CH    #SJ22113 MW    202210067183-2414                CONNECTOR HOUSING        CCN000024000000024000FN00000000020221101000024000NNM   20220906122209    2F0F  00000480000000779200001061032CH    SJSAMIJF005500360039
BI00B32CH    #SJ22114 MW    202210207183-2414                CONNECTOR HOUSING        CCN000028800000028800FN00000000020221101000028800NNM   20220906122209    2F0F  00000480000000779200001061032CH    SJSAMIJF005500360039
BI00B32CH    #SJ22115 MW    202210277183-2414                CONNECTOR HOUSING        CCN000028800000028800FN00000000020221101000028800NNM   20220906122209    2F0F  00000480000000779200001061032CH    SJSAMIJF005500360039
BI00B32CH    #SJ22112 MW    202210067183-2418                CONNECTOR HOUSING        CCN000004800000004800FN00000000020221101000004800NNM   20220906122209    2F0F  00000480000000917000001477032CH    SJSAMIJF005500360039
BI00B32CH    #SJ22114 MW    202210207183-2418                CONNECTOR HOUSING        CCN000004800000004800FN00000000020221101000004800NNM   20220906122209    2F0F  00000480000000917000001477032CH    SJSAMIJF005500360039
BI00B32CH    #SJ22111 MW    202209297187-8856                HOUSING FEMALE           CCN000012000000012000FN00000000020221101000012000NNM   20220906122209    2F0F  00000200000000820000000931532CH    SJSAMIJF005400370024
BI00B32CH    #SJ22112 MW    202210067187-8856                HOUSING FEMALE           CCN000018000000018000FN00000000020221101000018000NNM   20220906122209    2F0F  00000200000000820000000931532CH    SJSAMIJF005400370024
BI00B32CH    #SJ22113 MW    202210067187-8856                HOUSING FEMALE           CCN000016000000016000FN00000000020221101000016000NNM   20220906122209    2F0F  00000200000000820000000931532CH    SJSAMIJF005400370024
BI00B32CH    #SJ22114 MW    202210207187-8856                HOUSING FEMALE           CCN000024000000024000FN00000000020221101000024000NNM   20220906122209    2F0F  00000200000000820000000931532CH    SJSAMIJF005400370024
BI00B32CH    #SJ22115 MW    202210277187-8856                HOUSING FEMALE           CCN000022000000022000FN00000000020221101000022000NNM   20220906122209    2F0F  00000200000000820000000931532CH    SJSAMIJF005400370024
BI00B32CH    #SJ22112 MW    202210067198-1371-60             HOUSING FEMALE           CCN000004000000004000FN00000000020221101000004000NNM   20220906122209    2F0F  00000200000000597800000721232CH    SJSAMIJF005400370024
BI00B32CH    #SJ22113 MW    202210067198-1371-60             HOUSING FEMALE           CCN000010000000010000FN00000000020221101000010000NNM   20220906122209    2F0F  00000200000000597800000721232CH    SJSAMIJF005400370024
BI00B32CH    #SJ22114 MW    202210207198-1371-60             HOUSING FEMALE           CCN000010000000010000FN00000000020221101000010000NNM   20220906122209    2F0F  00000200000000597800000721232CH    SJSAMIJF005400370024
BI00B32CH    #SJ22115 MW    202210277198-1371-60             HOUSING FEMALE           CCN000012000000012000FN00000000020221101000012000NNM   20220906122209    2F0F  00000200000000597800000721232CH    SJSAMIJF005400370024
BI00B32CH    @SJ22111 MW    202209297123-2825                HOUSING                  CCN000006000000006000FN00000000020221101000006000NNM   20220906122209    3F0F  00000600000000958800001136432CH    SJSAMIJF005500360039
BI00B32CH    @SJ22112 MW    202210067123-2825                HOUSING                  CCN000012000000012000FN00000000020221101000012000NNM   20220906122209    3F0F  00000600000000958800001136432CH    SJSAMIJF005500360039
BI00B32CH    @SJ22113 MW    202210067123-2825                HOUSING                  CCN000012000000012000FN00000000020221101000012000NNM   20220906122209    3F0F  00000600000000958800001136432CH    SJSAMIJF005500360039
BI00B32CH    @SJ22114 MW    202210207123-2825                HOUSING                  CCN000006000000006000FN00000000020221101000006000NNM   20220906122209    3F0F  00000600000000958800001136432CH    SJSAMIJF005500360039
BI00B32CH    @SJ22115 MW    202210277123-2825                HOUSING                  CCN000012000000012000FN00000000020221101000012000NNM   20220906122209    3F0F  00000600000000958800001136432CH    SJSAMIJF005500360039
BI00B32CH    @SJ22115 MW    202210277282-1025                HOUSING SUB ASSEMBLY     CCN000002400000002400FN00000000020221101000002400NNM   20220906122209    3N0N  00000240000001143800001390032CH    SJSAMIJF005500360039
BI00B32CH    SJ22111DMW     202209297114-4624-02             TERMINAL                 CCN000024000000024000FN00000000020221101000024000NNM   20220906122209    4P0P  00002400000000895200001188832CH    SJSAMIJF006400630015
BI00B32CH    SJ22114DMW     202210207114-4624-02             TERMINAL                 CCN000024000000024000FN00000000020221101000024000NNM   20220906122209    4P0P  00002400000000895200001188832CH    SJSAMIJF006400630015
BI00B32CH    SJ22111DMW     202209297116-5751-02             TERMINAL                 CCN000024000000024000FN00000000020221101000024000NNM   20220906122209    4P0P  00001200000000379200000664432CH    SJSAMIJF006400630015
BI00B32CH    SJ22112DMW     202210067116-5751-02             TERMINAL                 CCN000012000000012000FN00000000020221101000012000NNM   20220906122209    4P0P  00001200000000379200000664432CH    SJSAMIJF006400630015
BI00B32CH    SJ22113DMW     202210067116-5751-02             TERMINAL                 CCN000024000000024000FN00000000020221101000024000NNM   20220906122209    4P0P  00001200000000379200000664432CH    SJSAMIJF006400630015
BI00B32CH    SJ22114DMW     202210207116-5751-02             TERMINAL                 CCN000024000000024000FN00000000020221101000024000NNM   20220906122209    4P0P  00001200000000379200000664432CH    SJSAMIJF006400630015
BI00B32CH    SJ22115DMW     202210277116-5751-02             TERMINAL                 CCN000012000000012000FN00000000020221101000012000NNM   20220906122209    4P0P  00001200000000379200000664432CH    SJSAMIJF006400630015
BI00B32CH    SJ22113DMW     202210067286-4097                CONNECTOR MALE ASS'Y     CCN000001600000001600FN00000000020221101000001600NNM   20220906122209    1N0N  00000160000000768000000978032CH    SJSAMIJF005500360039
BI00B32CH    SJ22114DMW     202210207286-4097                CONNECTOR MALE ASS'Y     CCN000001600000001600FN00000000020221101000001600NNM   20220906122209    1N0N  00000160000000768000000978032CH    SJSAMIJF005500360039
BI00B32CH    SJ22115DMW     202210277286-4097                CONNECTOR MALE ASS'Y     CCN000001600000001600FN00000000020221101000001600NNM   20220906122209    1N0N  00000160000000768000000978032CH    SJSAMIJF005500360039
BI00B32CH    SJ22111DMW     202209297287-3885-30             HYBRID FEMALE ASS'Y      CCN000009600000009600FN00000000020221101000009600NNM   20220906122209    1N0N  00000240000001029600001249632CH    SJSAMIJF005500360039
BI00B32CH    SJ22112DMW     202210067287-3885-30             HYBRID FEMALE ASS'Y      CCN000021600000021600FN00000000020221101000021600NNM   20220906122209    1N0N  00000240000001029600001249632CH    SJSAMIJF005500360039
BI00B32CH    SJ22113DMW     202210067287-3885-30             HYBRID FEMALE ASS'Y      CCN000024000000024000FN00000000020221101000024000NNM   20220906122209    1N0N  00000240000001029600001249632CH    SJSAMIJF005500360039
BI00B32CH    SJ22114DMW     202210207287-3885-30             HYBRID FEMALE ASS'Y      CCN000024000000024000FN00000000020221101000024000NNM   20220906122209    1N0N  00000240000001029600001249632CH    SJSAMIJF005500360039
BI00B32CH    SJ22115DMW     202210277287-3885-30             HYBRID FEMALE ASS'Y      CCN000024000000024000FN00000000020221101000024000NNM   20220906122209    1N0N  00000240000001029600001249632CH    SJSAMIJF005500360039
BI00B32CH    #SJ22111DMW    202209297183-0522                HOUSING                  CCN000004800000004800FN00000000020221101000004800NNM   20220906122209    2F0F  00000240000000951000001230032CH    SJSAMIJF005500360039
BI00B32CH    #SJ22112DMW    202210067183-0522                HOUSING                  CCN000004800000004800FN00000000020221101000004800NNM   20220906122209    2F0F  00000240000000951000001230032CH    SJSAMIJF005500360039
BI00B32CH    #SJ22113DMW    202210067183-0522                HOUSING                  CCN000002400000002400FN00000000020221101000002400NNM   20220906122209    2F0F  00000240000000951000001230032CH    SJSAMIJF005500360039
BI00B32CH    #SJ22114DMW    202210207183-0522                HOUSING                  CCN000004800000004800FN00000000020221101000004800NNM   20220906122209    2F0F  00000240000000951000001230032CH    SJSAMIJF005500360039
BI00B32CH    #SJ22115DMW    202210277183-0522                HOUSING                  CCN000004800000004800FN00000000020221101000004800NNM   20220906122209    2F0F  00000240000000951000001230032CH    SJSAMIJF005500360039
BI00B32CH    #SJ22111DMW    202209297183-2413                CONNECTOR HOUSING        CCN000014400000014400FN00000000020221101000014400NNM   20220906122209    2F0F  00000480000000478100000760032CH    SJSAMIJF005500360039
BI00B32CH    #SJ22112DMW    202210067183-2413                CONNECTOR HOUSING        CCN000009600000009600FN00000000020221101000009600NNM   20220906122209    2F0F  00000480000000478100000760032CH    SJSAMIJF005500360039
BI00B32CH    #SJ22113DMW    202210067183-2413                CONNECTOR HOUSING        CCN000009600000009600FN00000000020221101000009600NNM   20220906122209    2F0F  00000480000000478100000760032CH    SJSAMIJF005500360039
BI00B32CH    #SJ22114DMW    202210207183-2413                CONNECTOR HOUSING        CCN000014400000014400FN00000000020221101000014400NNM   20220906122209    2F0F  00000480000000478100000760032CH    SJSAMIJF005500360039
BI00B32CH    #SJ22115DMW    202210277183-2413                CONNECTOR HOUSING        CCN000009600000009600FN00000000020221101000009600NNM   20220906122209    2F0F  00000480000000478100000760032CH    SJSAMIJF005500360039
BI00B32CH    #SJ22111DMW    202209297183-2415                CONNECTOR HOUSING        CCN000004800000004800FN00000000020221101000004800NNM   20220906122209    2F0F  00000480000000798200001091432CH    SJSAMIJF005500360039
BI00B32CH    #SJ22112DMW    202210067183-2415                CONNECTOR HOUSING        CCN000004800000004800FN00000000020221101000004800NNM   20220906122209    2F0F  00000480000000798200001091432CH    SJSAMIJF005500360039
BI00B32CH    #SJ22113DMW    202210067183-2415                CONNECTOR HOUSING        CCN000009600000009600FN00000000020221101000009600NNM   20220906122209    2F0F  00000480000000798200001091432CH    SJSAMIJF005500360039
BI00B32CH    #SJ22114DMW    202210207183-2415                CONNECTOR HOUSING        CCN000004800000004800FN00000000020221101000004800NNM   20220906122209    2F0F  00000480000000798200001091432CH    SJSAMIJF005500360039
BI00B32CH    #SJ22115DMW    202210277183-2415                CONNECTOR HOUSING        CCN000004800000004800FN00000000020221101000004800NNM   20220906122209    2F0F  00000480000000798200001091432CH    SJSAMIJF005500360039
BI00B32CH    #SJ22113DMW    202210067183-6320                HOUSING                  CCN000004800000004800FN00000000020221101000004800NNM   20220906122209    2F0F  00000480000000820800001103632CH    SJSAMIJF005500360039
BI00B32CH    #SJ22114DMW    202210207183-6320                HOUSING                  CCN000004800000004800FN00000000020221101000004800NNM   20220906122209    2F0F  00000480000000820800001103632CH    SJSAMIJF005500360039
BI00B32CH    #SJ22111DMW    202209297189-3031                HOUSING FEMALE           CCN000004800000004800FN00000000020221101000004800NNM   20220906122209    2F0F  00000240000000928800001365832CH    SJSAMIJF005500360039
BI00B32CH    #SJ22112DMW    202210067189-3031                HOUSING FEMALE           CCN000004800000004800FN00000000020221101000004800NNM   20220906122209    2F0F  00000240000000928800001365832CH    SJSAMIJF005500360039
BI00B32CH    #SJ22113DMW    202210067189-3031                HOUSING FEMALE           CCN000002400000002400FN00000000020221101000002400NNM   20220906122209    2F0F  00000240000000928800001365832CH    SJSAMIJF005500360039
BI00B32CH    #SJ22114DMW    202210207189-3031                HOUSING FEMALE           CCN000004800000004800FN00000000020221101000004800NNM   20220906122209    2F0F  00000240000000928800001365832CH    SJSAMIJF005500360039
BI00B32CH    #SJ22115DMW    202210277189-3031                HOUSING FEMALE           CCN000004800000004800FN00000000020221101000004800NNM   20220906122209    2F0F  00000240000000928800001365832CH    SJSAMIJF005500360039
BI00B32CH    #SJ22111DMW    202209297283-8730-30             HOUSING FEMALE ASS'Y     CCN000002000000002000FN00000000020221101000002000NNM   20220906122209    2N0N  00000200000000794000000906532CH    SJSAMIJF005400370024
BI00B32CH    #SJ22112DMW    202210067283-8730-30             HOUSING FEMALE ASS'Y     CCN000002000000002000FN00000000020221101000002000NNM   20220906122209    2N0N  00000200000000794000000906532CH    SJSAMIJF005400370024
BI00B32CH    #SJ22113DMW    202210067283-8730-30             HOUSING FEMALE ASS'Y     CCN000004000000004000FN00000000020221101000004000NNM   20220906122209    2N0N  00000200000000794000000906532CH    SJSAMIJF005400370024
BI00B32CH    #SJ22114DMW    202210207283-8730-30             HOUSING FEMALE ASS'Y     CCN000002000000002000FN00000000020221101000002000NNM   20220906122209    2N0N  00000200000000794000000906532CH    SJSAMIJF005400370024
BI00B32CH    #SJ22115DMW    202210277283-8730-30             HOUSING FEMALE ASS'Y     CCN000002000000002000FN00000000020221101000002000NNM   20220906122209    2N0N  00000200000000794000000906532CH    SJSAMIJF005400370024
BI00B32CH    #SJ22111DMW    202209297289-2912-30             HOUSING FEMALE ASS'Y     CCN000004000000004000FN00000000020221101000004000NNM   20220906122209    2N0N  00000200000000804000000929032CH    SJSAMIJF005400370024
BI00B32CH    #SJ22112DMW    202210067289-2912-30             HOUSING FEMALE ASS'Y     CCN000002000000002000FN00000000020221101000002000NNM   20220906122209    2N0N  00000200000000804000000929032CH    SJSAMIJF005400370024
BI00B32CH    #SJ22113DMW    202210067289-2912-30             HOUSING FEMALE ASS'Y     CCN000004000000004000FN00000000020221101000004000NNM   20220906122209    2N0N  00000200000000804000000929032CH    SJSAMIJF005400370024
BI00B32CH    #SJ22114DMW    202210207289-2912-30             HOUSING FEMALE ASS'Y     CCN000002000000002000FN00000000020221101000002000NNM   20220906122209    2N0N  00000200000000804000000929032CH    SJSAMIJF005400370024
BI00B32CH    #SJ22115DMW    202210277289-2912-30             HOUSING FEMALE ASS'Y     CCN000004000000004000FN00000000020221101000004000NNM   20220906122209    2N0N  00000200000000804000000929032CH    SJSAMIJF005400370024
BI00B32CH    #SJ22111DMW    202209297289-2913-30             HOUSING FEMALE ASS'Y     CCN000004500000004500FN00000000020221101000004500NNM   20220906122209    2N0N  00000150000000907500001034532CH    SJSAMIJF005400370024
BI00B32CH    #SJ22112DMW    202210067289-2913-30             HOUSING FEMALE ASS'Y     CCN000003000000003000FN00000000020221101000003000NNM   20220906122209    2N0N  00000150000000907500001034532CH    SJSAMIJF005400370024
BI00B32CH    #SJ22113DMW    202210067289-2913-30             HOUSING FEMALE ASS'Y     CCN000003000000003000FN00000000020221101000003000NNM   20220906122209    2N0N  00000150000000907500001034532CH    SJSAMIJF005400370024
BI00B32CH    #SJ22114DMW    202210207289-2913-30             HOUSING FEMALE ASS'Y     CCN000003000000003000FN00000000020221101000003000NNM   20220906122209    2N0N  00000150000000907500001034532CH    SJSAMIJF005400370024
BI00B32CH    #SJ22115DMW    202210277289-2913-30             HOUSING FEMALE ASS'Y     CCN000003000000003000FN00000000020221101000003000NNM   20220906122209    2N0N  00000150000000907500001034532CH    SJSAMIJF005400370024
BI00B32CH    #SJ22111DMW    202209297289-2918-40             HOUSING FEMALE ASS'Y     CCN000006000000006000FN00000000020221101000006000NNM   20220906122209    2N0N  00000100000001020000001147032CH    SJSAMIJF005400370024
BI00B32CH    #SJ22112DMW    202210067289-2918-40             HOUSING FEMALE ASS'Y     CCN000004000000004000FN00000000020221101000004000NNM   20220906122209    2N0N  00000100000001020000001147032CH    SJSAMIJF005400370024
BI00B32CH    #SJ22113DMW    202210067289-2918-40             HOUSING FEMALE ASS'Y     CCN000005000000005000FN00000000020221101000005000NNM   20220906122209    2N0N  00000100000001020000001147032CH    SJSAMIJF005400370024
BI00B32CH    #SJ22114DMW    202210207289-2918-40             HOUSING FEMALE ASS'Y     CCN000005000000005000FN00000000020221101000005000NNM   20220906122209    2N0N  00000100000001020000001147032CH    SJSAMIJF005400370024
BI00B32CH    #SJ22115DMW    202210277289-2918-40             HOUSING FEMALE ASS'Y     CCN000004000000004000FN00000000020221101000004000NNM   20220906122209    2N0N  00000100000001020000001147032CH    SJSAMIJF005400370024
BI00B32CH    SJ22112HMW     202210067B72-5540-80             SEALED WIRE SEAL         CCN000040000000040000FN00000000020221101000040000NNM   20220906122209    1C0C  00002000000000186000000234432CH    SJSAMIJF004300270014
BI00B32CH    SJ22113HMW     202210067B72-5540-80             SEALED WIRE SEAL         CCN000040000000040000FN00000000020221101000040000NNM   20220906122209    1C0C  00002000000000186000000234432CH    SJSAMIJF004300270014
BI00B32CH    SJ22114HMW     202210207B72-5540-80             SEALED WIRE SEAL         CCN000040000000040000FN00000000020221101000040000NNM   20220906122209    1C0C  00002000000000186000000234432CH    SJSAMIJF004300270014
BI00B32CH    SJ22115HMW     202210277B72-5540-80             SEALED WIRE SEAL         CCN000040000000040000FN00000000020221101000040000NNM   20220906122209    1C0C  00002000000000186000000234432CH    SJSAMIJF004300270014
BI00B32CH    SJ22112HMW     202210067B96-0805-02             TERMINAL FEMALE          CCN000022500000022500FN00000000020221101000022500NNM   20220906122209    4P0P  00002250000000558000000843232CH    SJSAMIJF006400630015
BI00B32CH    SJ22113HMW     202210067B96-0805-02             TERMINAL FEMALE          CCN000022500000022500FN00000000020221101000022500NNM   20220906122209    4P0P  00002250000000558000000843232CH    SJSAMIJF006400630015
BI00B32CH    SJ22114HMW     202210207B96-0805-02             TERMINAL FEMALE          CCN000045000000045000FN00000000020221101000045000NNM   20220906122209    4P0P  00002250000000558000000843232CH    SJSAMIJF006400630015
BI00B32CH    SJ22115HMW     202210277B96-0805-02             TERMINAL FEMALE          CCN000045000000045000FN00000000020221101000045000NNM   20220906122209    4P0P  00002250000000558000000843232CH    SJSAMIJF006400630015
BI00B32CH    SJ22113HMW     202210067C89-6868-30             SEALED ASSY FEMALE       CCN000015120000015120FN00000000020221101000015120NNM   20220906122209    4N0N  00000252000000839200001119232CH    SJSAMIJF005500360039
BI00B32CH    SJ22114HMW     202210207C89-6868-30             SEALED ASSY FEMALE       CCN000022680000022680FN00000000020221101000022680NNM   20220906122209    4N0N  00000252000000839200001119232CH    SJSAMIJF005500360039
BI00B32CH    SJ22115HMW     202210277C89-6868-30             SEALED ASSY FEMALE       CCN000022680000022680FN00000000020221101000022680NNM   20220906122209    4N0N  00000252000000839200001119232CH    SJSAMIJF005500360039
BI00B32CH    SJ22112HMW     202210067298-3822-70             HOUSING FEMALE ASS'Y     CCN000000730000002520FN00000000020221101000002520NNM   20220906122209    4N0N  00000252000000776200001077032CH    SJSAMIJF005500360039
BI00B32CH    SJ22113HMW     202210067298-3822-70             HOUSING FEMALE ASS'Y     CCN000001490000002520FN00000000020221101000002520NNM   20220906122209    4N0N  00000252000000776200001077032CH    SJSAMIJF005500360039
BI00B32CH    SJ22114HMW     202210207298-3822-70             HOUSING FEMALE ASS'Y     CCN000001340000002520FN00000000020221101000002520NNM   20220906122209    4N0N  00000252000000776200001077032CH    SJSAMIJF005500360039
BI00B32CH    SJ22115HMW     202210277298-3822-70             HOUSING FEMALE ASS'Y     CCN000001250000002520FN00000000020221101000002520NNM   20220906122209    4N0N  00000252000000776200001077032CH    SJSAMIJF005500360039
BI00B32CH    SJ22112HMW     202210067298-4094-10             HOUSING FEMALE ASS'Y     CCN000003380000003380FN00000000020221101000003380NNM   20220906122209    4N0N  00000338000001097400001358732CH    SJSAMIJF005400370024
BI00B32CH    SJ22113HMW     202210067298-4094-10             HOUSING FEMALE ASS'Y     CCN000003380000003380FN00000000020221101000003380NNM   20220906122209    4N0N  00000338000001097400001358732CH    SJSAMIJF005400370024
BI00B32CH    SJ22114HMW     202210207298-4094-10             HOUSING FEMALE ASS'Y     CCN000003380000003380FN00000000020221101000003380NNM   20220906122209    4N0N  00000338000001097400001358732CH    SJSAMIJF005400370024
BI00B32CH    SJ22111HMW     202209297298-5993-30             SEALED ASSY FEMALE       CCN000002184000002184FN00000000020221101000002184NNM   20220906122209    4N0N  00000218400000981500001290032CH    SJSAMIJF005500360039
BI00B32CH    SJ22112HMW     202210067298-5993-30             SEALED ASSY FEMALE       CCN000002184000002184FN00000000020221101000002184NNM   20220906122209    4N0N  00000218400000981500001290032CH    SJSAMIJF005500360039
BI00B32CH    SJ22113HMW     202210067298-5993-30             SEALED ASSY FEMALE       CCN000002184000002184FN00000000020221101000002184NNM   20220906122209    4N0N  00000218400000981500001290032CH    SJSAMIJF005500360039
BI00B32CH    SJ22115HMW     202210277298-5993-30             SEALED ASSY FEMALE       CCN000002184000002184FN00000000020221101000002184NNM   20220906122209    4N0N  00000218400000981500001290032CH    SJSAMIJF005500360039
BI00B32CH    SJ22111HMW     202209297327-6834-80             MAIN FUSE                CCN000001200000001200FN00000000020221101000001200NNM   20220906122209    4N0N  00000060000000736800000938332CH    SJSAMIJF005400370024
BI00B32CH    SJ22112HMW     202210067327-6834-80             MAIN FUSE                CCN000001200000001200FN00000000020221101000001200NNM   20220906122209    4N0N  00000060000000736800000938332CH    SJSAMIJF005400370024
BI00B32CH    SJ22113HMW     202210067327-6834-80             MAIN FUSE                CCN000001200000001200FN00000000020221101000001200NNM   20220906122209    4N0N  00000060000000736800000938332CH    SJSAMIJF005400370024
BI00B32CH    SJ22114HMW     202210207327-6834-80             MAIN FUSE                CCN000001800000001800FN00000000020221101000001800NNM   20220906122209    4N0N  00000060000000736800000938332CH    SJSAMIJF005400370024
BI00B32CH    SJ22115HMW     202210277327-6834-80             MAIN FUSE                CCN000001800000001800FN00000000020221101000001800NNM   20220906122209    4N0N  00000060000000736800000938332CH    SJSAMIJF005400370024
BI00B32CH    SJ22112HMW     202210067327-6870-30             MULTI FUSE               CCN000001152000001152FN00000000020221101000001152NNM   20220906122209    4N0N  00000028800001015200001181132CH    SJSAMIJF005400370024
BI00B32CH    SJ22113HMW     202210067327-6870-30             MULTI FUSE               CCN000008064000008064FN00000000020221101000008064NNM   20220906122209    4N0N  00000028800001015200001181132CH    SJSAMIJF005400370024
BI00B32CH    SJ22114HMW     202210207327-6870-30             MULTI FUSE               CCN000008352000008352FN00000000020221101000008352NNM   20220906122209    4N0N  00000028800001015200001181132CH    SJSAMIJF005400370024
BI00B32CH    SJ22115HMW     202210277327-6870-30             MULTI FUSE               CCN000009792000009792FN00000000020221101000009792NNM   20220906122209    4N0N  00000028800001015200001181132CH    SJSAMIJF005400370024
BI00B32CH    SJ22111HMW     202209297327-6872-30             MULTI FUSE               CCN000001440000001440FN00000000020221101000001440NNM   20220906122209    4N0N  00000028800000984500001150432CH    SJSAMIJF005400370024
BI00B32CH    SJ22112HMW     202210067327-6872-30             MULTI FUSE               CCN000001440000001440FN00000000020221101000001440NNM   20220906122209    4N0N  00000028800000984500001150432CH    SJSAMIJF005400370024
BI00B32CH    SJ22113HMW     202210067327-6872-30             MULTI FUSE               CCN000000864000000864FN00000000020221101000000864NNM   20220906122209    4N0N  00000028800000984500001150432CH    SJSAMIJF005400370024
BI00B32CH    SJ22114HMW     202210207327-6872-30             MULTI FUSE               CCN000002304000002304FN00000000020221101000002304NNM   20220906122209    4N0N  00000028800000984500001150432CH    SJSAMIJF005400370024
BI00B32CH    SJ22115HMW     202210277327-6872-30             MULTI FUSE               CCN000001728000001728FN00000000020221101000001728NNM   20220906122209    4N0N  00000028800000984500001150432CH    SJSAMIJF005400370024
BI00B32CH    SJ22112HMW     202210067327-6874-30             MULTI FUSE               CCN000000576000000576FN00000000020221101000000576NNM   20220906122209    4N0N  00000028800000991400001157332CH    SJSAMIJF005400370024
BI00B32CH    SJ22113HMW     202210067327-6874-30             MULTI FUSE               CCN000004896000004896FN00000000020221101000004896NNM   20220906122209    4N0N  00000028800000991400001157332CH    SJSAMIJF005400370024
BI00B32CH    SJ22114HMW     202210207327-6874-30             MULTI FUSE               CCN000004896000004896FN00000000020221101000004896NNM   20220906122209    4N0N  00000028800000991400001157332CH    SJSAMIJF005400370024
BI00B32CH    SJ22115HMW     202210277327-6874-30             MULTI FUSE               CCN000005472000005472FN00000000020221101000005472NNM   20220906122209    4N0N  00000028800000991400001157332CH    SJSAMIJF005400370024
BI00B32CH    SJ22111HMW     202209297327-6876-30             MULTI FUSE               CCN000001440000001440FN00000000020221101000001440NNM   20220906122209    4N0N  00000028800001016400001182332CH    SJSAMIJF005400370024
BI00B32CH    SJ22112HMW     202210067327-6876-30             MULTI FUSE               CCN000001152000001152FN00000000020221101000001152NNM   20220906122209    4N0N  00000028800001016400001182332CH    SJSAMIJF005400370024
BI00B32CH    SJ22113HMW     202210067327-6876-30             MULTI FUSE               CCN000000864000000864FN00000000020221101000000864NNM   20220906122209    4N0N  00000028800001016400001182332CH    SJSAMIJF005400370024
BI00B32CH    SJ22114HMW     202210207327-6876-30             MULTI FUSE               CCN000002016000002016FN00000000020221101000002016NNM   20220906122209    4N0N  00000028800001016400001182332CH    SJSAMIJF005400370024
BI00B32CH    SJ22115HMW     202210277327-6876-30             MULTI FUSE               CCN000001440000001440FN00000000020221101000001440NNM   20220906122209    4N0N  00000028800001016400001182332CH    SJSAMIJF005400370024
BI00B32CH    SJ22111HMW     202209297327-6878-30             MULTI FUSE               CCN000002016000002016FN00000000020221101000002016NNM   20220906122209    4N0N  00000028800000989700001155632CH    SJSAMIJF005400370024
BI00B32CH    SJ22112HMW     202210067327-6878-30             MULTI FUSE               CCN000001152000001152FN00000000020221101000001152NNM   20220906122209    4N0N  00000028800000989700001155632CH    SJSAMIJF005400370024
BI00B32CH    SJ22113HMW     202210067327-6878-30             MULTI FUSE               CCN000001152000001152FN00000000020221101000001152NNM   20220906122209    4N0N  00000028800000989700001155632CH    SJSAMIJF005400370024
BI00B32CH    SJ22114HMW     202210207327-6878-30             MULTI FUSE               CCN000002304000002304FN00000000020221101000002304NNM   20220906122209    4N0N  00000028800000989700001155632CH    SJSAMIJF005400370024
BI00B32CH    SJ22115HMW     202210277327-6878-30             MULTI FUSE               CCN000001440000001440FN00000000020221101000001440NNM   20220906122209    4N0N  00000028800000989700001155632CH    SJSAMIJF005400370024
BI00B32CH    SJ22113HMW     202210067327-6880-30             MULTI FUSE               CCN000005184000005184FN00000000020221101000005184NNM   20220906122209    4N0N  00000028800001012600001178532CH    SJSAMIJF005400370024
BI00B32CH    SJ22114HMW     202210207327-6880-30             MULTI FUSE               CCN000007200000007200FN00000000020221101000007200NNM   20220906122209    4N0N  00000028800001012600001178532CH    SJSAMIJF005400370024
BI00B32CH    SJ22115HMW     202210277327-6880-30             MULTI FUSE               CCN000008352000008352FN00000000020221101000008352NNM   20220906122209    4N0N  00000028800001012600001178532CH    SJSAMIJF005400370024
BI00B32CH    SJ22111HMW     202209297327-6882-30             MULTI FUSE               CCN000001440000001440FN00000000020221101000001440NNM   20220906122209    4N0N  00000028800001015900001181832CH    SJSAMIJF005400370024
BI00B32CH    SJ22112HMW     202210067327-6882-30             MULTI FUSE               CCN000001152000001152FN00000000020221101000001152NNM   20220906122209    4N0N  00000028800001015900001181832CH    SJSAMIJF005400370024
BI00B32CH    SJ22113HMW     202210067327-6882-30             MULTI FUSE               CCN000001152000001152FN00000000020221101000001152NNM   20220906122209    4N0N  00000028800001015900001181832CH    SJSAMIJF005400370024
BI00B32CH    SJ22114HMW     202210207327-6882-30             MULTI FUSE               CCN000002016000002016FN00000000020221101000002016NNM   20220906122209    4N0N  00000028800001015900001181832CH    SJSAMIJF005400370024
BI00B32CH    SJ22115HMW     202210277327-6882-30             MULTI FUSE               CCN000001728000001728FN00000000020221101000001728NNM   20220906122209    4N0N  00000028800001015900001181832CH    SJSAMIJF005400370024
BI00B32CH    SJ22113HMW     202210067327-6884-30             MULTI FUSE               CCN000006912000006912FN00000000020221101000006912NNM   20220906122209    4N0N  00000028800000988900001154832CH    SJSAMIJF005400370024
BI00B32CH    SJ22114HMW     202210207327-6884-30             MULTI FUSE               CCN000009504000009504FN00000000020221101000009504NNM   20220906122209    4N0N  00000028800000988900001154832CH    SJSAMIJF005400370024
BI00B32CH    SJ22115HMW     202210277327-6884-30             MULTI FUSE               CCN000010944000010944FN00000000020221101000010944NNM   20220906122209    4N0N  00000028800000988900001154832CH    SJSAMIJF005400370024
BI00B32CH    SJ22111HMW     202209297327-6908                MAIN FUSE                CCN000001200000001200FN00000000020221101000001200NNM   20220906122209    4N0N  00000060000000730400000915432CH    SJSAMIJF005400370024
BI00B32CH    SJ22112HMW     202210067327-6908                MAIN FUSE                CCN000001200000001200FN00000000020221101000001200NNM   20220906122209    4N0N  00000060000000730400000915432CH    SJSAMIJF005400370024
BI00B32CH    SJ22113HMW     202210067327-6908                MAIN FUSE                CCN000001200000001200FN00000000020221101000001200NNM   20220906122209    4N0N  00000060000000730400000915432CH    SJSAMIJF005400370024
BI00B32CH    SJ22114HMW     202210207327-6908                MAIN FUSE                CCN000001200000001200FN00000000020221101000001200NNM   20220906122209    4N0N  00000060000000730400000915432CH    SJSAMIJF005400370024
BI00B32CH    SJ22115HMW     202210277327-6908                MAIN FUSE                CCN000001800000001800FN00000000020221101000001800NNM   20220906122209    4N0N  00000060000000730400000915432CH    SJSAMIJF005400370024
BI00B32CH    SJ22113HMW     202210067327-6937-30             MULTI FUSE               CCN000000576000000576FN00000000020221101000000576NNM   20220906122209    4N0N  00000028800001013600001179532CH    SJSAMIJF005400370024
BI00B32CH    SJ22114HMW     202210207327-6937-30             MULTI FUSE               CCN000000288000000288FN00000000020221101000000288NNM   20220906122209    4N0N  00000028800001013600001179532CH    SJSAMIJF005400370024
BI00B32CH    SJ22115HMW     202210277327-6937-30             MULTI FUSE               CCN000000288000000288FN00000000020221101000000288NNM   20220906122209    4N0N  00000028800001013600001179532CH    SJSAMIJF005400370024
