AE00TI102209060206/09/202200000000200000000000000001656KGM  00000001972KGM  7124-1026-30             PROTECTOR                7124102630               0         0         0         0    0    0    00000600000000300000000126000007560000
AE00TI102209060206/09/202200000000700000000000000003794KGM  00000005049KGM  7147-3642-30             CLIP                     7147364230               0         0         0         0    0    0    00002100000000300000000074000015540000
AE00TI102209060206/09/202200000002300000000000000007604KGM  00000008878KGM  7158-3006-90             RUBBER STOPPER           7158300690               0         0         0         0    0    0    00046000000002000000000016000073600000
AE00TI102209060206/09/202200000002500000000000000008450KGM  00000009655KGM  7158-3009-60             RUBBER STOPPER           7158300960               0         0         0         0    0    0    00050000000002000000000012000060000000
AE00TI102209060206/09/202200000000100000000000000000468KGM  00000000524KGM  7158-3022-80             RUBBER STOPPER           7158302280               0         0         0         0    0    0    00000500000000500000000070000003500000
AE00TI102209060206/09/202200000001100000000000000001364KGM  00000001896KGM  7158-3165-90             WIRE SEAL                7158316590               0         0         0         0    0    0    00044000000004000000000006000026400000
AE00TI102209060206/09/202200000002400000000000000002496KGM  00000003658KGM  7158-3166-60             WIRE SEAL                7158316660               0         0         0         0    0    0    00096000000004000000000004000038400000
AE00TI102209060206/09/202200000003900000000000000001872KGM  00000004251KGM  7158-3167-80             WIRE SEAL                7158316780               0         0         0         0    0    0    00078000000002000000000005000039000000
AE00TI102209060206/09/202200000001600000000000000000704KGM  00000001474KGM  7158-3168-80             SEALED                   7158316880               0         0         0         0    0    0    00032000000002000000000004000012800000
AE00TI102209060206/09/202200000001300000000000000002028KGM  00000002653KGM  7158-3169-40             SEALING PLUG             7158316940               0         0         0         0    0    0    00052000000004000000000006000031200000
AE00TI102209060206/09/202200000000600000000000000000000KGM  00000000000KGM  7171-4101-30S            UPPER COVER              7171410130S              0         0         0         0    0    0    00000000600000000100000000000000000000
AE00TI102209060206/09/202200000000100000000000000000967KGM  00000001125KGM  7222-7564-30             CONNECTOR                7222756430               0         0         0         0    0    0    00000050000000050000001175000005875000
AE00TI102209060206/09/202200000000200000000000000001934KGM  00000002194KGM  7222-7564-40             CONNECTOR                7222756440               0         0         0         0    0    0    00000100000000050000001166000011660000
AE00TI102209060206/09/202200000016000000000000000038368KGM  00000078368KGM  7271-1820-30             CASE SUB ASSY,ECU        7271182030               0         0         0         0    0    0    00000288000000001800009576000275788800
AE00TI102209060206/09/202200000003000000000000000037050KGM  00000042690KGM  7282-5574-10             CONNECTOR                7282557410               0         0         0         0    0    0    00002400000000080000000727000174480000
AE00TI102209060206/09/202200000000300000000000000002633KGM  00000003234KGM  7283-1156                CONNECTOR                72831156                 0         0         0         0    0    0    00000240000000080000000810000019440000
AE00TI102209060206/09/202200000000100000000000000001140KGM  00000001318KGM  7283-1968-30             CONNECTOR                7283196830               0         0         0         0    0    0    00000090000000090000000687000006183000
AE00TI102209060206/09/202200000000100000000000000000846KGM  00000001116KGM  7283-4190-30             CONNECTOR                7283419030               0         0         0         0    0    0    00000024000000024000001202000002884800
AE00TI102209060206/09/202200000001400000000000000011952KGM  00000014633KGM  7287-9155                HOUSING FEMALE ASS'Y     72879155                 0         0         0         0    0    0    00001344000000096000000357000047980800
AE00TI102209060206/09/202200000001900000000000000016456KGM  00000019211KGM  7288-3329-30             HOUSING MALE             7288332930               0         0         0         0    0    0    00002850000000150000000354000100890000
AE00TI102209060206/09/202200000001000000000000000008663KGM  00000010112KGM  7288-3330-30             HOUSING MALE             7288333030               0         0         0         0    0    0    00001500000000150000000354000053100000
AE00TI102209060206/09/202200000000300000000000000002601KGM  00000003036KGM  7288-3335-30             HOUSING MALE             7288333530               0         0         0         0    0    0    00000450000000150000000354000015930000
AE00TI102209060206/09/202200000000500000000000000004335KGM  00000005060KGM  7288-3339-30             HOUSING MALE             7288333930               0         0         0         0    0    0    00000750000000150000000354000026550000
AE00TI102209060206/09/202200000000200000000000000002411KGM  00000002681KGM  7288-6547                CONNECTOR MALE ASS'Y     72886547                 0         0         0         0    0    0    00000150000000075000001125000016875000
AE00TI102209060206/09/202200000002800000000000000019219KGM  00000025239KGM  7289-3342                HOUSING FEMALE ASS'Y     72893342                 0         0         0         0    0    0    00006720000000240000000186000124992000
AE00TI102209060206/09/202200000000600000000000000004118KGM  00000005408KGM  7289-3342-90             HOUSING FEMALE ASS'Y     7289334290               0         0         0         0    0    0    00001440000000240000000196000028224000
AE00TI102209060206/09/202200000000400000000000000003317KGM  00000004197KGM  7289-6518-30             HOUSING FEMALE ASS'Y     7289651830               0         0         0         0    0    0    00000480000000120000000598000028704000
AE00TI102209060206/09/202200000000200000000000000002195KGM  00000002717KGM  7298-4094-10             HOUSING FEMALE ASS'Y     7298409410               0         0         0         0    0    0    00000676000000338000000241000016291600
