AE00TI102209060406/09/202200000001400000000000000009610KGM  00000012620KGM  7289-3342-30             HOUSING FEMALE ASS'Y     7289334230               0         0         0         0    0    0    00003360000000240000000191000064176000
AE00TI102209060406/09/202200000000500000000000000005859KGM  00000006843KGM  7289-5011-30             HOUSING FEMALE ASS'Y     7289501130               0         0         0         0    0    0    00001200000000240000000333000039960000
AE00TI102209060406/09/202200000000300000000000000003324KGM  00000004562KGM  7289-9553-50             SEALED ASSY FEMALE       7289955350               0         0         0         0    0    0    00000882000000294000000252000022226400
AE00TI102209060406/09/202200000002400000000000000020890KGM  00000030240KGM  7370-0309                J/B ASS'Y                73700309                 0         0         0         0    0    0    00000038400000001600028585000109766400
AE00TI102209060406/09/202200000001700000000000000022440KGM  00000026690KGM  7470-4481                J/B COMPLETE ASS'Y       74704481                 0         0         0         0    0    0    00000040800000002400000000000000000000
AE00TI102209060406/09/202200000000100000000000000001320KGM  00000001570KGM  7470-5237                J/B ASS'Y                74705237                 0         0         0         0    0    0    00000002400000002400031359000007526160
AE00TI102209060406/09/202200000003600000000000000000000KGM  00000000000KGM  7470-5301                J/B COMPLETE ASS'Y       74705301                 0         0         0         0    0    0    00000036000000001000000000000000000000
