BI00B32AF    @TTB210G       20220916181AD2022ZZ              CIVUSAS-S 0.35X2 B(R,G)  CCN000001350000001350FN00000000020221001000001350NNE   20220906163252    1W    00000045000001714000000000032AF    HBYHVTB 000000000000UU528001
BI00B32CH    @SJ2209AMMW    20220915181E50004ZZ              AVSSCS-S 0.5FX1 DGY      CCN000000400000000400FN00000000020220901000000400NNE   20220906101232    1W    00000040000001909700000000032CH    SJSAMIJF000000000000QV528001
BI00B32CH    SJ22112 MW     2022100618007703930              AVSS 0.5F B              CCN000010500000010500FN00000000020221101000010500NNM   20220906103928    1W    00000150000000674000000000032CH    SJSAMIJF000000000000QX329004
BI00B32CH    SJ22113 MW     2022101218007703930              AVSS 0.5F B              CCN000012000000012000FN00000000020221101000012000NNM   20220906103928    1W    00000150000000674000000000032CH    SJSAMIJF000000000000QX429006
BI00B32CH    SJ22114 MW     2022102018007703930              AVSS 0.5F B              CCN000012000000012000FN00000000020221101000012000NNM   20220906103928    1W    00000150000000674000000000032CH    SJSAMIJF000000000000QX12A006
BI00B32CH    SJ22115 MW     2022102718007703930              AVSS 0.5F B              CCN000013500000013500FN00000000020221101000013500NNM   20220906103928    1W    00000150000000674000000000032CH    SJSAMIJF000000000000QX22A006
BI00B32CH    SJ22112 MW     2022100618007703941              AVSS 0.5F GY             CCN000001500000001500FN00000000020221101000001500NNM   20220906103928    1W    00000150000000674000000000032CH    SJSAMIJF000000000000QX329005
BI00B32CH    SJ22114 MW     2022102018007703941              AVSS 0.5F GY             CCN000001500000001500FN00000000020221101000001500NNM   20220906103928    1W    00000150000000674000000000032CH    SJSAMIJF000000000000QX12A007
BI00B32CH    SJ22115 MW     2022102718007703941              AVSS 0.5F GY             CCN000001500000001500FN00000000020221101000001500NNM   20220906103928    1W    00000150000000674000000000032CH    SJSAMIJF000000000000QX22A007
BI00B32CH    @SJ22111 MW    20220929181E50011ZZ              AVSSCS-S 0.5FX2 DGY/Y    CCN000001500000001500FN00000000020221101000001500NNM   20220906103923    1W    00000030000003096000000000032CH    SJSAMIJF000000000000QX229001
BI00B32CH    @SJ22112 MW    20221006181E50011ZZ              AVSSCS-S 0.5FX2 DGY/Y    CCN000001200000001200FN00000000020221101000001200NNM   20220906103923    1W    00000030000003096000000000032CH    SJSAMIJF000000000000QX329001
BI00B32CH    @SJ22113 MW    20221012181E50011ZZ              AVSSCS-S 0.5FX2 DGY/Y    CCN000001200000001200FN00000000020221101000001200NNM   20220906103923    1W    00000030000003096000000000032CH    SJSAMIJF000000000000QX429001
BI00B32CH    @SJ22114 MW    20221020181E50011ZZ              AVSSCS-S 0.5FX2 DGY/Y    CCN000000900000000900FN00000000020221101000000900NNM   20220906103923    1W    00000030000003096000000000032CH    SJSAMIJF000000000000QX12A001
BI00B32CH    @SJ22115 MW    20221027181E50011ZZ              AVSSCS-S 0.5FX2 DGY/Y    CCN000000900000000900FN00000000020221101000000900NNM   20220906103923    1W    00000030000003096000000000032CH    SJSAMIJF000000000000QX22A001
BI00B32CH    @SJ22113 MW    20221012181F21009ZZ              AVSSHCS-S 0.5FX2 B       CCN000012600000012600FN00000000020221101000012600NNM   20220906103923    1W    00000030000002531400000000032CH    SJSAMIJF000000000000QX429002
BI00B32CH    @SJ22114 MW    20221020181F21009ZZ              AVSSHCS-S 0.5FX2 B       CCN000018900000018900FN00000000020221101000018900NNM   20220906103923    1W    00000030000002531400000000032CH    SJSAMIJF000000000000QX12A002
BI00B32CH    @SJ22115 MW    20221027181F21009ZZ              AVSSHCS-S 0.5FX2 B       CCN000020400000020400FN00000000020221101000020400NNM   20220906103923    1W    00000030000002531400000000032CH    SJSAMIJF000000000000QX22A002
BI00B32CH    @SJ22111DMW    20220929181B32037Z5              AVSSCS 0.3FX1 DGY/L      CCN000004000000004000FN00000000020221101000004000NNM   20220906103924    1W    00000050000001780000000000032CH    SJSAMIJF000000000000QY229001
BI00B32CH    @SJ22112DMW    20221006181B32037Z5              AVSSCS 0.3FX1 DGY/L      CCN000003000000003000FN00000000020221101000003000NNM   20220906103924    1W    00000050000001780000000000032CH    SJSAMIJF000000000000QY329001
BI00B32CH    @SJ22113DMW    20221012181B32037Z5              AVSSCS 0.3FX1 DGY/L      CCN000003000000003000FN00000000020221101000003000NNM   20220906103924    1W    00000050000001780000000000032CH    SJSAMIJF000000000000QY429001
BI00B32CH    @SJ22114DMW    20221020181B32037Z5              AVSSCS 0.3FX1 DGY/L      CCN000004000000004000FN00000000020221101000004000NNM   20220906103924    1W    00000050000001780000000000032CH    SJSAMIJF000000000000QY12A001
BI00B32CH    @SJ22115DMW    20221027181B32037Z5              AVSSCS 0.3FX1 DGY/L      CCN000003000000003000FN00000000020221101000003000NNM   20220906103924    1W    00000050000001780000000000032CH    SJSAMIJF000000000000QY22A001
BI00B32CH    SJ22111HMW     2022092918007704030              AVSS 0.75F B             CCN000002000000002000FN00000000020221101000002000NNM   20220906103930    1W    00000100000000943000000000032CH    SJSAMIJF000000000000QW229001
BI00B32CH    SJ22112HMW     2022100618007704030              AVSS 0.75F B             CCN000001000000001000FN00000000020221101000001000NNM   20220906103930    1W    00000100000000943000000000032CH    SJSAMIJF000000000000QW329001
BI00B32CH    SJ22113HMW     2022101218007704030              AVSS 0.75F B             CCN000001000000001000FN00000000020221101000001000NNM   20220906103930    1W    00000100000000943000000000032CH    SJSAMIJF000000000000QW429001
BI00B32CH    SJ22114HMW     2022102018007704030              AVSS 0.75F B             CCN000001000000001000FN00000000020221101000001000NNM   20220906103930    1W    00000100000000943000000000032CH    SJSAMIJF000000000000QW12A001
BI00B32CH    SJ22115HMW     2022102718007704030              AVSS 0.75F B             CCN000002000000002000FN00000000020221101000002000NNM   20220906103930    1W    00000100000000943000000000032CH    SJSAMIJF000000000000QW22A001
BI00B32CH    SJ22111HMW     2022092918007704130              AVSS 1.25F B             CCN000000800000000800FN00000000020221101000000800NNM   20220906103930    1W    00000080000001389000000000032CH    SJSAMIJF000000000000QW229002
BI00B32CH    SJ22112HMW     2022100618007704130              AVSS 1.25F B             CCN000004000000004000FN00000000020221101000004000NNM   20220906103930    1W    00000080000001389000000000032CH    SJSAMIJF000000000000QW329002
BI00B32CH    SJ22113HMW     2022101218007704130              AVSS 1.25F B             CCN000003200000003200FN00000000020221101000003200NNM   20220906103930    1W    00000080000001389000000000032CH    SJSAMIJF000000000000QW429002
BI00B32CH    SJ22114HMW     2022102018007704130              AVSS 1.25F B             CCN000003200000003200FN00000000020221101000003200NNM   20220906103930    1W    00000080000001389000000000032CH    SJSAMIJF000000000000QW12A002
BI00B32CH    SJ22115HMW     2022102718007704130              AVSS 1.25F B             CCN000003200000003200FN00000000020221101000003200NNM   20220906103930    1W    00000080000001389000000000032CH    SJSAMIJF000000000000QW22A002
BI00B32CH    @SJ22112MMW    20221006181E48022ZZ              CAVSAS-S 0.5X2 GY        CCN000000600000000600FN00000000020221101000000600NNM   20220906103925    1W    00000030000002561000000000032CH    SJSAMIJF000000000000QZ329001
BI00B32CH    @SJ22113MMW    20221012181E48022ZZ              CAVSAS-S 0.5X2 GY        CCN000000300000000300FN00000000020221101000000300NNM   20220906103925    1W    00000030000002561000000000032CH    SJSAMIJF000000000000QZ429001
BI00B32CH    @SJ22114MMW    20221020181E48022ZZ              CAVSAS-S 0.5X2 GY        CCN000000300000000300FN00000000020221101000000300NNM   20220906103925    1W    00000030000002561000000000032CH    SJSAMIJF000000000000QZ12A001
BI00B32CH    @SJ22115MMW    20221027181E48022ZZ              CAVSAS-S 0.5X2 GY        CCN000000300000000300FN00000000020221101000000300NNM   20220906103925    1W    00000030000002561000000000032CH    SJSAMIJF000000000000QZ22A001
BI00B32CH    @SJ22111MMW    20220929181E48062ZZ              CAVSAS-S 0.5X2 GY/BR     CCN000000600000000600FN00000000020221101000000600NNM   20220906103925    1W    00000030000002561000000000032CH    SJSAMIJF000000000000QZ229001
BI00B32CH    @SJ22112MMW    20221006181E48062ZZ              CAVSAS-S 0.5X2 GY/BR     CCN000000300000000300FN00000000020221101000000300NNM   20220906103925    1W    00000030000002561000000000032CH    SJSAMIJF000000000000QZ329002
BI00B32CH    @SJ22113MMW    20221012181E48062ZZ              CAVSAS-S 0.5X2 GY/BR     CCN000000300000000300FN00000000020221101000000300NNM   20220906103925    1W    00000030000002561000000000032CH    SJSAMIJF000000000000QZ429002
BI00B32CH    @SJ22114MMW    20221020181E48062ZZ              CAVSAS-S 0.5X2 GY/BR     CCN000000300000000300FN00000000020221101000000300NNM   20220906103925    1W    00000030000002561000000000032CH    SJSAMIJF000000000000QZ12A002
BI00B32CH    @SJ22115MMW    20221027181E48062ZZ              CAVSAS-S 0.5X2 GY/BR     CCN000000300000000300FN00000000020221101000000300NNM   20220906103925    1W    00000030000002561000000000032CH    SJSAMIJF000000000000QZ22A002
BI00B32CH    @SJ22112SMW    20221006181E48011ZZ              CAVSAS-S 0.3X1 GY/W      CCN000001500000001500FN00000000020221101000001500NNM   20220906103927    1W    00000050000001529500000000032CH    SJSAMIJF000000000000QS329001
BI00B32CH    @SJ22113SMW    20221012181E48011ZZ              CAVSAS-S 0.3X1 GY/W      CCN000010000000010000FN00000000020221101000010000NNM   20220906103927    1W    00000050000001529500000000032CH    SJSAMIJF000000000000QS429001
BI00B32CH    @SJ22114SMW    20221020181E48011ZZ              CAVSAS-S 0.3X1 GY/W      CCN000009000000009000FN00000000020221101000009000NNM   20220906103927    1W    00000050000001529500000000032CH    SJSAMIJF000000000000QS12A001
BI00B32CH    @SJ22115SMW    20221027181E48011ZZ              CAVSAS-S 0.3X1 GY/W      CCN000010000000010000FN00000000020221101000010000NNM   20220906103927    1W    00000050000001529500000000032CH    SJSAMIJF000000000000QS22A001
BI00B32DG    RW2104A        202209291801W006930              IVSSH 0.35F B            CCN000030000000030000FN00000000020221001000030000NNE   20220906152609    1W    00000250000000452000000000032DG    BFSAIBF 000000000000GS229003
BI00B32DG    RW2104A        202209291801W00695U              IVSSH 0.35F BE           CCN000032500000032500FN00000000020221001000032500NNE   20220906152609    1W    00000250000000452000000000032DG    BFSAIBF 000000000000GS229004
BI00B32DG    RW2104A        202209291801W006960              IVSSH 0.35F G            CCN000015000000015000FN00000000020221001000015000NNE   20220906152609    1W    00000250000000452000000000032DG    BFSAIBF 000000000000GS229005
BI00B32DG    RW2104A        202209291801W006990              IVSSH 0.35F L            CCN000007500000007500FN00000000020221001000007500NNE   20220906152609    1W    00000250000000452000000000032DG    BFSAIBF 000000000000GS229006
BI00B32DG    RW2104A        202209291801W006961              IVSSH 0.35F LG           CCN000007500000007500FN00000000020221001000007500NNE   20220906152609    1W    00000250000000452000000000032DG    BFSAIBF 000000000000GS229007
BI00B32DG    RW2104A        202209291801W006952              IVSSH 0.35F P            CCN000007500000007500FN00000000020221001000007500NNE   20220906152609    1W    00000250000000452000000000032DG    BFSAIBF 000000000000GS229008
BI00B32DG    RW2104A        202209291801W006991              IVSSH 0.35F SB           CCN000007500000007500FN00000000020221001000007500NNE   20220906152609    1W    00000250000000452000000000032DG    BFSAIBF 000000000000GS229009
BI00B32DG    RW2104A        202209291801W006992              IVSSH 0.35F V            CCN000032500000032500FN00000000020221001000032500NNE   20220906152609    1W    00000250000000452000000000032DG    BFSAIBF 000000000000GS229010
BI00B32DG    RW2104A        202209291801W006940              IVSSH 0.35F W            CCN000012500000012500FN00000000020221001000012500NNE   20220906152609    1W    00000250000000452000000000032DG    BFSAIBF 000000000000GS229011
BI00B32DG    RW2104A        202209291801W006943              IVSSH 0.35F W/B          CCN000037500000037500FN00000000020221001000037500NNE   20220906152609    1W    00000250000000452000000000032DG    BFSAIBF 000000000000GS229012
BI00B32DG    RW2104A        202209291801W003960              IVSSH 0.5F G             CCN000003600000003600FN00000000020221001000003600NNE   20220906152609    1W    00000180000000625000000000032DG    BFSAIBF 000000000000GS229001
BI00B32DG    RW2104A        202209291801W003940              IVSSH 0.5F W             CCN000018000000018000FN00000000020221001000018000NNE   20220906152609    1W    00000180000000625000000000032DG    BFSAIBF 000000000000GS229002
BI00B32G7    @JW2210D MW    20220922181AD2002ZZ              CIVUSAS-S 0.35X2 B       CCN000003150000003150FN00000000020221001000003150NNE   20220906135543    1W    00000045000001713700000000032G7    JIJAI   000000000000JE129001
BI00B32G7    JW22114 MW     2022110318007703952              AVSS 0.5F P              CCN000001500000001500FN00000000020221101000001500NNM   20220906140341    1W    00000150000000674000000000032G7    JIJAI   000000000000JA32A025
BI00B32G7    JW22111 MW     2022101218007703990              AVSS 0.5F L              CCN000007500000007500FN00000000020221101000007500NNM   20220906140341    1W    00000150000000674000000000032G7    JIJAI   000000000000JA429023
BI00B32G7    JW22112 MW     2022102018007703990              AVSS 0.5F L              CCN000003000000003000FN00000000020221101000003000NNM   20220906140341    1W    00000150000000674000000000032G7    JIJAI   000000000000JA12A025
BI00B32G7    JW22113 MW     2022102718007703990              AVSS 0.5F L              CCN000001500000001500FN00000000020221101000001500NNM   20220906140341    1W    00000150000000674000000000032G7    JIJAI   000000000000JA22A024
BI00B32G7    JW22114 MW     2022110318007703990              AVSS 0.5F L              CCN000003000000003000FN00000000020221101000003000NNM   20220906140341    1W    00000150000000674000000000032G7    JIJAI   000000000000JA32A024
BI00B32G7    @JW22111 MW    20221012181AD2002ZZ              CIVUSAS-S 0.35X2 B       CCN000058050000058050FN00000000020221101000058050NNM   20220906140334    1W    00000045000001713700000000032G7    JIJAI   000000000000JA429007
BI00B32G7    @JW22112 MW    20221020181AD2002ZZ              CIVUSAS-S 0.35X2 B       CCN000019800000019800FN00000000020221101000019800NNM   20220906140334    1W    00000045000001713700000000032G7    JIJAI   000000000000JA12A007
BI00B32G7    @JW22113 MW    20221027181AD2002ZZ              CIVUSAS-S 0.35X2 B       CCN000019350000019350FN00000000020221101000019350NNM   20220906140334    1W    00000045000001713700000000032G7    JIJAI   000000000000JA22A007
BI00B32G7    @JW22114 MW    20221103181AD2002ZZ              CIVUSAS-S 0.35X2 B       CCN000019350000019350FN00000000020221101000019350NNM   20220906140334    1W    00000045000001713700000000032G7    JIJAI   000000000000JA32A007
BI00B32G7    @JW22111 MW    20221012181AD2008ZZ              CIVUSAS-S 0.5X2 B        CCN000022400000022400FN00000000020221101000022400NNM   20220906140334    1W    00000040000002028000000000032G7    JIJAI   000000000000JA429006
BI00B32G7    @JW22112 MW    20221020181AD2008ZZ              CIVUSAS-S 0.5X2 B        CCN000008000000008000FN00000000020221101000008000NNM   20220906140334    1W    00000040000002028000000000032G7    JIJAI   000000000000JA12A006
BI00B32G7    @JW22113 MW    20221027181AD2008ZZ              CIVUSAS-S 0.5X2 B        CCN000008400000008400FN00000000020221101000008400NNM   20220906140334    1W    00000040000002028000000000032G7    JIJAI   000000000000JA22A006
BI00B32G7    @JW22114 MW    20221103181AD2008ZZ              CIVUSAS-S 0.5X2 B        CCN000008400000008400FN00000000020221101000008400NNM   20220906140334    1W    00000040000002028000000000032G7    JIJAI   000000000000JA32A006
BI00B32G7    @JW22111 MW    20221012181E48022ZZ              CAVSAS-S 0.5X2 GY        CCN000000600000000600FN00000000020221101000000600NNM   20220906140334    1W    00000030000002561000000000032G7    JIJAI   000000000000JA429008
BI00B32G7    @JW22112 MW    20221020181E48022ZZ              CAVSAS-S 0.5X2 GY        CCN000003300000003300FN00000000020221101000003300NNM   20220906140334    1W    00000030000002561000000000032G7    JIJAI   000000000000JA12A008
BI00B32G7    @JW22113 MW    20221027181E48022ZZ              CAVSAS-S 0.5X2 GY        CCN000003600000003600FN00000000020221101000003600NNM   20220906140334    1W    00000030000002561000000000032G7    JIJAI   000000000000JA22A008
BI00B32G7    @JW22114 MW    20221103181E48022ZZ              CAVSAS-S 0.5X2 GY        CCN000003300000003300FN00000000020221101000003300NNM   20220906140334    1W    00000030000002561000000000032G7    JIJAI   000000000000JA32A008
BI00B32G7    @JW22112 MW    20221020181E48024ZZ              CAVSAS-S 0.5X2 GY/R      CCN000002100000002100FN00000000020221101000002100NNM   20220906140334    1W    00000030000002561000000000032G7    JIJAI   000000000000JA12A009
BI00B32G7    @JW22113 MW    20221027181E48024ZZ              CAVSAS-S 0.5X2 GY/R      CCN000002400000002400FN00000000020221101000002400NNM   20220906140334    1W    00000030000002561000000000032G7    JIJAI   000000000000JA22A009
BI00B32G7    @JW22114 MW    20221103181E48024ZZ              CAVSAS-S 0.5X2 GY/R      CCN000002700000002700FN00000000020221101000002700NNM   20220906140334    1W    00000030000002561000000000032G7    JIJAI   000000000000JA32A009
BI00B32G7    @JW22111 MW    20221012181E48032ZZ              CAVSAS-S 0.3X2 GY/P      CCN000002800000002800FN00000000020221101000002800NNM   20220906140334    1W    00000035000002008700000000032G7    JIJAI   000000000000JA429010
BI00B32G7    @JW22112 MW    20221020181E48032ZZ              CAVSAS-S 0.3X2 GY/P      CCN000001400000001400FN00000000020221101000001400NNM   20220906140334    1W    00000035000002008700000000032G7    JIJAI   000000000000JA12A011
BI00B32G7    @JW22113 MW    20221027181E48032ZZ              CAVSAS-S 0.3X2 GY/P      CCN000001750000001750FN00000000020221101000001750NNM   20220906140334    1W    00000035000002008700000000032G7    JIJAI   000000000000JA22A011
BI00B32G7    @JW22114 MW    20221103181E48032ZZ              CAVSAS-S 0.3X2 GY/P      CCN000001400000001400FN00000000020221101000001400NNM   20220906140334    1W    00000035000002008700000000032G7    JIJAI   000000000000JA32A011
BI00B32G7    @JW22111 MW    20221012181E48040ZZ              CAVSAS-S 0.3X2 GY/V      CCN000025550000025550FN00000000020221101000025550NNM   20220906140334    1W    00000035000002008700000000032G7    JIJAI   000000000000JA429011
BI00B32G7    @JW22112 MW    20221020181E48040ZZ              CAVSAS-S 0.3X2 GY/V      CCN000009800000009800FN00000000020221101000009800NNM   20220906140334    1W    00000035000002008700000000032G7    JIJAI   000000000000JA12A012
BI00B32G7    @JW22113 MW    20221027181E48040ZZ              CAVSAS-S 0.3X2 GY/V      CCN000009450000009450FN00000000020221101000009450NNM   20220906140334    1W    00000035000002008700000000032G7    JIJAI   000000000000JA22A012
BI00B32G7    @JW22114 MW    20221103181E48040ZZ              CAVSAS-S 0.3X2 GY/V      CCN000009450000009450FN00000000020221101000009450NNM   20220906140334    1W    00000035000002008700000000032G7    JIJAI   000000000000JA32A012
BI00B32G7    @JW22111 MW    20221012181E48060ZZ              CAVSAS-S 0.5X2 GY/V      CCN000005700000005700FN00000000020221101000005700NNM   20220906140334    1W    00000030000002561000000000032G7    JIJAI   000000000000JA429009
BI00B32G7    @JW22112 MW    20221020181E48060ZZ              CAVSAS-S 0.5X2 GY/V      CCN000001800000001800FN00000000020221101000001800NNM   20220906140334    1W    00000030000002561000000000032G7    JIJAI   000000000000JA12A010
BI00B32G7    @JW22113 MW    20221027181E48060ZZ              CAVSAS-S 0.5X2 GY/V      CCN000002100000002100FN00000000020221101000002100NNM   20220906140334    1W    00000030000002561000000000032G7    JIJAI   000000000000JA22A010
BI00B32G7    @JW22114 MW    20221103181E48060ZZ              CAVSAS-S 0.5X2 GY/V      CCN000001800000001800FN00000000020221101000001800NNM   20220906140334    1W    00000030000002561000000000032G7    JIJAI   000000000000JA32A010
BI00B32G7    @JW22112 MW    20221020181E48078ZZ              CAVSAS-S 0.3X2 W/R       CCN000000350000000350FN00000000020221101000000350NNM   20220906140334    1W    00000035000002008700000000032G7    JIJAI   000000000000JA12A013
BI00B32G7    @JW22111LMW    20221012181AD2020ZZ              CIVUSAS-S 0.5X2 B(R,G)   CCN000006800000006800FN00000000020221101000006800NNM   20220906140339    1W    00000040000002028000000000032G7    JIJAI   000000000000JL429001
BI00B32G7    @JW22112LMW    20221020181AD2020ZZ              CIVUSAS-S 0.5X2 B(R,G)   CCN000002000000002000FN00000000020221101000002000NNM   20220906140339    1W    00000040000002028000000000032G7    JIJAI   000000000000JL12A001
BI00B32G7    @JW22113LMW    20221027181AD2020ZZ              CIVUSAS-S 0.5X2 B(R,G)   CCN000002000000002000FN00000000020221101000002000NNM   20220906140339    1W    00000040000002028000000000032G7    JIJAI   000000000000JL22A001
BI00B32G7    @JW22114LMW    20221103181AD2020ZZ              CIVUSAS-S 0.5X2 B(R,G)   CCN000002000000002000FN00000000020221101000002000NNM   20220906140339    1W    00000040000002028000000000032G7    JIJAI   000000000000JL32A001
BI00B32G7    @JW22111LMW    20221012181AD2021ZZ              CIVUSAS-S 0.35X2 B(L,GY) CCN000008100000008100FN00000000020221101000008100NNM   20220906140339    1W    00000045000001714000000000032G7    JIJAI   000000000000JL429002
BI00B32G7    @JW22112LMW    20221020181AD2021ZZ              CIVUSAS-S 0.35X2 B(L,GY) CCN000003600000003600FN00000000020221101000003600NNM   20220906140339    1W    00000045000001714000000000032G7    JIJAI   000000000000JL12A002
BI00B32G7    @JW22113LMW    20221027181AD2021ZZ              CIVUSAS-S 0.35X2 B(L,GY) CCN000003600000003600FN00000000020221101000003600NNM   20220906140339    1W    00000045000001714000000000032G7    JIJAI   000000000000JL22A002
BI00B32G7    @JW22114LMW    20221103181AD2021ZZ              CIVUSAS-S 0.35X2 B(L,GY) CCN000003150000003150FN00000000020221101000003150NNM   20220906140339    1W    00000045000001714000000000032G7    JIJAI   000000000000JL32A002
BI00B32G7    @JW22111LMW    20221012181AD2022ZZ              CIVUSAS-S 0.35X2 B(R,G)  CCN000000900000000900FN00000000020221101000000900NNM   20220906140339    1W    00000045000001714000000000032G7    JIJAI   000000000000JL429003
BI00B32G7    @JW22112LMW    20221020181AD2022ZZ              CIVUSAS-S 0.35X2 B(R,G)  CCN000000900000000900FN00000000020221101000000900NNM   20220906140339    1W    00000045000001714000000000032G7    JIJAI   000000000000JL12A003
BI00B32G7    @JW22113LMW    20221027181AD2022ZZ              CIVUSAS-S 0.35X2 B(R,G)  CCN000000450000000450FN00000000020221101000000450NNM   20220906140339    1W    00000045000001714000000000032G7    JIJAI   000000000000JL22A003
BI00B32G7    @JW22114LMW    20221103181AD2022ZZ              CIVUSAS-S 0.35X2 B(R,G)  CCN000000450000000450FN00000000020221101000000450NNM   20220906140339    1W    00000045000001714000000000032G7    JIJAI   000000000000JL32A003
BI00B32G7    JW22111MMW     202210121801W003930              IVSSH 0.5F B             CCN000005400000005400FN00000000020221101000005400NNM   20220906140343    1W    00000180000000625000000000032G7    JIJAI   000000000000JM429032
BI00B32G7    JW22112MMW     202210201801W003930              IVSSH 0.5F B             CCN000003600000003600FN00000000020221101000003600NNM   20220906140343    1W    00000180000000625000000000032G7    JIJAI   000000000000JM12A034
BI00B32G7    JW22113MMW     202210271801W003930              IVSSH 0.5F B             CCN000003600000003600FN00000000020221101000003600NNM   20220906140343    1W    00000180000000625000000000032G7    JIJAI   000000000000JM22A032
BI00B32G7    JW22114MMW     202211031801W003930              IVSSH 0.5F B             CCN000003600000003600FN00000000020221101000003600NNM   20220906140343    1W    00000180000000625000000000032G7    JIJAI   000000000000JM32A035
BI00B32G7    JW22112MMW     202210201801W003940              IVSSH 0.5F W             CCN000001800000001800FN00000000020221101000001800NNM   20220906140343    1W    00000180000000625000000000032G7    JIJAI   000000000000JM12A038
BI00B32G7    JW22113MMW     202210271801W003940              IVSSH 0.5F W             CCN000001800000001800FN00000000020221101000001800NNM   20220906140343    1W    00000180000000625000000000032G7    JIJAI   000000000000JM22A036
BI00B32G7    JW22114MMW     202211031801W003940              IVSSH 0.5F W             CCN000001800000001800FN00000000020221101000001800NNM   20220906140343    1W    00000180000000625000000000032G7    JIJAI   000000000000JM32A039
BI00B32G7    JW22111MMW     202210121801W003943              IVSSH 0.5F W/B           CCN000021600000021600FN00000000020221101000021600NNM   20220906140343    1W    00000180000000625000000000032G7    JIJAI   000000000000JM429035
BI00B32G7    JW22112MMW     202210201801W003943              IVSSH 0.5F W/B           CCN000012600000012600FN00000000020221101000012600NNM   20220906140343    1W    00000180000000625000000000032G7    JIJAI   000000000000JM12A039
BI00B32G7    JW22113MMW     202210271801W003943              IVSSH 0.5F W/B           CCN000012600000012600FN00000000020221101000012600NNM   20220906140343    1W    00000180000000625000000000032G7    JIJAI   000000000000JM22A037
BI00B32G7    JW22114MMW     202211031801W003943              IVSSH 0.5F W/B           CCN000012600000012600FN00000000020221101000012600NNM   20220906140343    1W    00000180000000625000000000032G7    JIJAI   000000000000JM32A040
BI00B32G7    JW22112MMW     202210201801W003950              IVSSH 0.5F R             CCN000007200000007200FN00000000020221101000007200NNM   20220906140343    1W    00000180000000625000000000032G7    JIJAI   000000000000JM12A037
BI00B32G7    JW22113MMW     202210271801W003950              IVSSH 0.5F R             CCN000012600000012600FN00000000020221101000012600NNM   20220906140343    1W    00000180000000625000000000032G7    JIJAI   000000000000JM22A035
BI00B32G7    JW22114MMW     202211031801W003950              IVSSH 0.5F R             CCN000012600000012600FN00000000020221101000012600NNM   20220906140343    1W    00000180000000625000000000032G7    JIJAI   000000000000JM32A038
BI00B32G7    JW22111MMW     202210121801W003960              IVSSH 0.5F G             CCN000003600000003600FN00000000020221101000003600NNM   20220906140343    1W    00000180000000625000000000032G7    JIJAI   000000000000JM429033
BI00B32G7    JW22112MMW     202210201801W003960              IVSSH 0.5F G             CCN000001800000001800FN00000000020221101000001800NNM   20220906140343    1W    00000180000000625000000000032G7    JIJAI   000000000000JM12A035
BI00B32G7    JW22113MMW     202210271801W003960              IVSSH 0.5F G             CCN000003600000003600FN00000000020221101000003600NNM   20220906140343    1W    00000180000000625000000000032G7    JIJAI   000000000000JM22A033
BI00B32G7    JW22114MMW     202211031801W003960              IVSSH 0.5F G             CCN000001800000001800FN00000000020221101000001800NNM   20220906140343    1W    00000180000000625000000000032G7    JIJAI   000000000000JM32A036
BI00B32G7    JW22111MMW     202210121801W003990              IVSSH 0.5F L             CCN000043200000043200FN00000000020221101000043200NNM   20220906140343    1W    00000180000000625000000000032G7    JIJAI   000000000000JM429034
BI00B32G7    JW22112MMW     202210201801W003990              IVSSH 0.5F L             CCN000034200000034200FN00000000020221101000034200NNM   20220906140343    1W    00000180000000625000000000032G7    JIJAI   000000000000JM12A036
BI00B32G7    JW22113MMW     202210271801W003990              IVSSH 0.5F L             CCN000036000000036000FN00000000020221101000036000NNM   20220906140343    1W    00000180000000625000000000032G7    JIJAI   000000000000JM22A034
BI00B32G7    JW22114MMW     202211031801W003990              IVSSH 0.5F L             CCN000036000000036000FN00000000020221101000036000NNM   20220906140343    1W    00000180000000625000000000032G7    JIJAI   000000000000JM32A037
BI00B32G7    JW22111MMW     202210121801W004030              IVSSH 0.75F B            CCN000002600000002600FN00000000020221101000002600NNM   20220906140343    1W    00000130000000882000000000032G7    JIJAI   000000000000JM429036
BI00B32G7    JW22112MMW     202210201801W004030              IVSSH 0.75F B            CCN000005200000005200FN00000000020221101000005200NNM   20220906140343    1W    00000130000000882000000000032G7    JIJAI   000000000000JM12A040
BI00B32G7    JW22113MMW     202210271801W004030              IVSSH 0.75F B            CCN000005200000005200FN00000000020221101000005200NNM   20220906140343    1W    00000130000000882000000000032G7    JIJAI   000000000000JM22A038
BI00B32G7    JW22114MMW     202211031801W004030              IVSSH 0.75F B            CCN000005200000005200FN00000000020221101000005200NNM   20220906140343    1W    00000130000000882000000000032G7    JIJAI   000000000000JM32A041
BI00B32G7    JW22112MMW     202210201801W004050              IVSSH 0.75F R            CCN000003900000003900FN00000000020221101000003900NNM   20220906140343    1W    00000130000000882000000000032G7    JIJAI   000000000000JM12A041
BI00B32G7    JW22113MMW     202210271801W004050              IVSSH 0.75F R            CCN000009100000009100FN00000000020221101000009100NNM   20220906140343    1W    00000130000000882000000000032G7    JIJAI   000000000000JM22A039
BI00B32G7    JW22114MMW     202211031801W004050              IVSSH 0.75F R            CCN000002600000002600FN00000000020221101000002600NNM   20220906140343    1W    00000130000000882000000000032G7    JIJAI   000000000000JM32A042
BI00B32G7    JW22111MMW     202210121801W004070              IVSSH 0.75F Y            CCN000003900000003900FN00000000020221101000003900NNM   20220906140343    1W    00000130000000882000000000032G7    JIJAI   000000000000JM429037
BI00B32G7    JW22112MMW     202210201801W004070              IVSSH 0.75F Y            CCN000005200000005200FN00000000020221101000005200NNM   20220906140343    1W    00000130000000882000000000032G7    JIJAI   000000000000JM12A042
BI00B32G7    JW22113MMW     202210271801W004070              IVSSH 0.75F Y            CCN000005200000005200FN00000000020221101000005200NNM   20220906140343    1W    00000130000000882000000000032G7    JIJAI   000000000000JM22A040
BI00B32G7    JW22114MMW     202211031801W004070              IVSSH 0.75F Y            CCN000005200000005200FN00000000020221101000005200NNM   20220906140343    1W    00000130000000882000000000032G7    JIJAI   000000000000JM32A043
BI00B32G7    JW22111MMW     202210121801W006930              IVSSH 0.35F B            CCN000045000000045000FN00000000020221101000045000NNM   20220906140343    1W    00000250000000452000000000032G7    JIJAI   000000000000JM429038
BI00B32G7    JW22112MMW     202210201801W006930              IVSSH 0.35F B            CCN000027500000027500FN00000000020221101000027500NNM   20220906140343    1W    00000250000000452000000000032G7    JIJAI   000000000000JM12A043
BI00B32G7    JW22113MMW     202210271801W006930              IVSSH 0.35F B            CCN000027500000027500FN00000000020221101000027500NNM   20220906140343    1W    00000250000000452000000000032G7    JIJAI   000000000000JM22A041
BI00B32G7    JW22114MMW     202211031801W006930              IVSSH 0.35F B            CCN000027500000027500FN00000000020221101000027500NNM   20220906140343    1W    00000250000000452000000000032G7    JIJAI   000000000000JM32A044
BI00B32G7    JW22111MMW     202210121801W006940              IVSSH 0.35F W            CCN000032500000032500FN00000000020221101000032500NNM   20220906140343    1W    00000250000000452000000000032G7    JIJAI   000000000000JM429044
BI00B32G7    JW22112MMW     202210201801W006940              IVSSH 0.35F W            CCN000025000000025000FN00000000020221101000025000NNM   20220906140343    1W    00000250000000452000000000032G7    JIJAI   000000000000JM12A050
BI00B32G7    JW22113MMW     202210271801W006940              IVSSH 0.35F W            CCN000022500000022500FN00000000020221101000022500NNM   20220906140343    1W    00000250000000452000000000032G7    JIJAI   000000000000JM22A049
BI00B32G7    JW22114MMW     202211031801W006940              IVSSH 0.35F W            CCN000025000000025000FN00000000020221101000025000NNM   20220906140343    1W    00000250000000452000000000032G7    JIJAI   000000000000JM32A052
BI00B32G7    JW22111MMW     202210121801W006941              IVSSH 0.35F GY           CCN000022500000022500FN00000000020221101000022500NNM   20220906140343    1W    00000250000000452000000000032G7    JIJAI   000000000000JM429039
BI00B32G7    JW22112MMW     202210201801W006941              IVSSH 0.35F GY           CCN000017500000017500FN00000000020221101000017500NNM   20220906140343    1W    00000250000000452000000000032G7    JIJAI   000000000000JM12A045
BI00B32G7    JW22113MMW     202210271801W006941              IVSSH 0.35F GY           CCN000020000000020000FN00000000020221101000020000NNM   20220906140343    1W    00000250000000452000000000032G7    JIJAI   000000000000JM22A043
BI00B32G7    JW22114MMW     202211031801W006941              IVSSH 0.35F GY           CCN000017500000017500FN00000000020221101000017500NNM   20220906140343    1W    00000250000000452000000000032G7    JIJAI   000000000000JM32A046
BI00B32G7    JW22112MMW     202210201801W006943              IVSSH 0.35F W/B          CCN000002500000002500FN00000000020221101000002500NNM   20220906140343    1W    00000250000000452000000000032G7    JIJAI   000000000000JM12A051
BI00B32G7    JW22111MMW     202210121801W006950              IVSSH 0.35F R            CCN000005000000005000FN00000000020221101000005000NNM   20220906140343    1W    00000250000000452000000000032G7    JIJAI   000000000000JM429041
BI00B32G7    JW22112MMW     202210201801W006950              IVSSH 0.35F R            CCN000002500000002500FN00000000020221101000002500NNM   20220906140343    1W    00000250000000452000000000032G7    JIJAI   000000000000JM12A047
BI00B32G7    JW22113MMW     202210271801W006950              IVSSH 0.35F R            CCN000002500000002500FN00000000020221101000002500NNM   20220906140343    1W    00000250000000452000000000032G7    JIJAI   000000000000JM22A046
BI00B32G7    JW22114MMW     202211031801W006950              IVSSH 0.35F R            CCN000002500000002500FN00000000020221101000002500NNM   20220906140343    1W    00000250000000452000000000032G7    JIJAI   000000000000JM32A049
BI00B32G7    JW22113MMW     202210271801W006952              IVSSH 0.35F P            CCN000002500000002500FN00000000020221101000002500NNM   20220906140343    1W    00000250000000452000000000032G7    JIJAI   000000000000JM22A045
BI00B32G7    JW22114MMW     202211031801W006952              IVSSH 0.35F P            CCN000007500000007500FN00000000020221101000007500NNM   20220906140343    1W    00000250000000452000000000032G7    JIJAI   000000000000JM32A048
BI00B32G7    JW22112MMW     202210201801W006960              IVSSH 0.35F G            CCN000020000000020000FN00000000020221101000020000NNM   20220906140343    1W    00000250000000452000000000032G7    JIJAI   000000000000JM12A044
BI00B32G7    JW22113MMW     202210271801W006960              IVSSH 0.35F G            CCN000025000000025000FN00000000020221101000025000NNM   20220906140343    1W    00000250000000452000000000032G7    JIJAI   000000000000JM22A042
BI00B32G7    JW22114MMW     202211031801W006960              IVSSH 0.35F G            CCN000022500000022500FN00000000020221101000022500NNM   20220906140343    1W    00000250000000452000000000032G7    JIJAI   000000000000JM32A045
BI00B32G7    JW22111MMW     202210121801W006970              IVSSH 0.35F Y            CCN000002500000002500FN00000000020221101000002500NNM   20220906140343    1W    00000250000000452000000000032G7    JIJAI   000000000000JM429045
BI00B32G7    JW22112MMW     202210201801W006970              IVSSH 0.35F Y            CCN000015000000015000FN00000000020221101000015000NNM   20220906140343    1W    00000250000000452000000000032G7    JIJAI   000000000000JM12A052
BI00B32G7    JW22113MMW     202210271801W006970              IVSSH 0.35F Y            CCN000012500000012500FN00000000020221101000012500NNM   20220906140343    1W    00000250000000452000000000032G7    JIJAI   000000000000JM22A050
BI00B32G7    JW22114MMW     202211031801W006970              IVSSH 0.35F Y            CCN000012500000012500FN00000000020221101000012500NNM   20220906140343    1W    00000250000000452000000000032G7    JIJAI   000000000000JM32A053
BI00B32G7    JW22111MMW     202210121801W006990              IVSSH 0.35F L            CCN000040000000040000FN00000000020221101000040000NNM   20220906140343    1W    00000250000000452000000000032G7    JIJAI   000000000000JM429040
BI00B32G7    JW22112MMW     202210201801W006990              IVSSH 0.35F L            CCN000030000000030000FN00000000020221101000030000NNM   20220906140343    1W    00000250000000452000000000032G7    JIJAI   000000000000JM12A046
BI00B32G7    JW22113MMW     202210271801W006990              IVSSH 0.35F L            CCN000030000000030000FN00000000020221101000030000NNM   20220906140343    1W    00000250000000452000000000032G7    JIJAI   000000000000JM22A044
BI00B32G7    JW22114MMW     202211031801W006990              IVSSH 0.35F L            CCN000027500000027500FN00000000020221101000027500NNM   20220906140343    1W    00000250000000452000000000032G7    JIJAI   000000000000JM32A047
BI00B32G7    JW22111MMW     202210121801W006991              IVSSH 0.35F SB           CCN000005000000005000FN00000000020221101000005000NNM   20220906140343    1W    00000250000000452000000000032G7    JIJAI   000000000000JM429042
BI00B32G7    JW22112MMW     202210201801W006991              IVSSH 0.35F SB           CCN000005000000005000FN00000000020221101000005000NNM   20220906140343    1W    00000250000000452000000000032G7    JIJAI   000000000000JM12A048
BI00B32G7    JW22113MMW     202210271801W006991              IVSSH 0.35F SB           CCN000002500000002500FN00000000020221101000002500NNM   20220906140343    1W    00000250000000452000000000032G7    JIJAI   000000000000JM22A047
BI00B32G7    JW22114MMW     202211031801W006991              IVSSH 0.35F SB           CCN000005000000005000FN00000000020221101000005000NNM   20220906140343    1W    00000250000000452000000000032G7    JIJAI   000000000000JM32A050
BI00B32G7    JW22111MMW     202210121801W006992              IVSSH 0.35F V            CCN000010000000010000FN00000000020221101000010000NNM   20220906140343    1W    00000250000000452000000000032G7    JIJAI   000000000000JM429043
BI00B32G7    JW22112MMW     202210201801W006992              IVSSH 0.35F V            CCN000025000000025000FN00000000020221101000025000NNM   20220906140343    1W    00000250000000452000000000032G7    JIJAI   000000000000JM12A049
BI00B32G7    JW22113MMW     202210271801W006992              IVSSH 0.35F V            CCN000022500000022500FN00000000020221101000022500NNM   20220906140343    1W    00000250000000452000000000032G7    JIJAI   000000000000JM22A048
BI00B32G7    JW22114MMW     202211031801W006992              IVSSH 0.35F V            CCN000025000000025000FN00000000020221101000025000NNM   20220906140343    1W    00000250000000452000000000032G7    JIJAI   000000000000JM32A051
BI00B32M1    TV209B         202209291801W004330              IVSSH 3 B                CCN000002450000002100FN00000000020220901000002100NNE00 20220906145243    1W    00000035000003173100000000032M1    VNYEV   000000000000VB229005
BI00B32M1    TV209B         202209291801W004390              IVSSH 3 L                CCN000001750000001400FN00000000020220901000001400NNE00 20220906145418    1W    00000035000003173100000000032M1    VNYEV   000000000000VB229006
BI00B32M1    TV209B         202209291801W004343              IVSSH 3 W/B              CCN000001750000001400FN00000000020220901000001400NNE00 20220906145350    1W    00000035000003173100000000032M1    VNYEV   000000000000VB229007
BI00A32M1    TV209B         202209071801W004330              IVSSH 3 B                CCN000000350000000350FN00000000020220901000000350NNE20 20220906151025    1W    00000035000003173100000000032M1    VNYEV   000000000000VB229005
BI00A32M1    TV209B         202209071801W004343              IVSSH 3 W/B              CCN000000350000000350FN00000000020220901000000350NNE20 20220906151025    1W    00000035000003173100000000032M1    VNYEV   000000000000VB229007
BI00A32M1    TV209B         202209071801W004390              IVSSH 3 L                CCN000000350000000350FN00000000020220901000000350NNE20 20220906151025    1W    00000035000003173100000000032M1    VNYEV   000000000000VB229006
BI00B32M3    SM2210B MW     2022092918007703940              AVSS 0.5F W              CCN000009000000009000FN00000000020221001000009000NNE   20220906152701    1W    00000150000000674000000000032M3    SASAMI  000000000000QB229002
BI00B32M3    SM22111 MW     2022100618007703780              AVSS 0.3F BR             CCN000002000000002000FN00000000020221101000002000NNM   20220906153253    1W    00000200000000496000000000032M3    SASAMI  000000000000QM329007
BI00B32M3    SM22112 MW     2022101218007703780              AVSS 0.3F BR             CCN000002000000002000FN00000000020221101000002000NNM   20220906153253    1W    00000200000000496000000000032M3    SASAMI  000000000000QM429005
BI00B32M3    SM22113 MW     2022102018007703780              AVSS 0.3F BR             CCN000002000000002000FN00000000020221101000002000NNM   20220906153253    1W    00000200000000496000000000032M3    SASAMI  000000000000QM12A002
BI00B32M3    SM22111 MW     2022100618007703761              AVSS 0.3F LG             CCN000004000000004000FN00000000020221101000004000NNM   20220906153253    1W    00000200000000496000000000032M3    SASAMI  000000000000QM329008
BI00B32M3    SM22112 MW     2022101218007703761              AVSS 0.3F LG             CCN000004000000004000FN00000000020221101000004000NNM   20220906153253    1W    00000200000000496000000000032M3    SASAMI  000000000000QM429006
BI00B32M3    SM22111 MW     2022100618007703752              AVSS 0.3F P              CCN000002000000002000FN00000000020221101000002000NNM   20220906153253    1W    00000200000000496000000000032M3    SASAMI  000000000000QM329009
BI00B32M3    SM22112 MW     2022101218007703752              AVSS 0.3F P              CCN000002000000002000FN00000000020221101000002000NNM   20220906153253    1W    00000200000000496000000000032M3    SASAMI  000000000000QM429007
BI00B32M3    SM22111 MW     2022100618007703791              AVSS 0.3F SB             CCN000004000000004000FN00000000020221101000004000NNM   20220906153253    1W    00000200000000496000000000032M3    SASAMI  000000000000QM329010
BI00B32M3    SM22111 MW     2022100618007703792              AVSS 0.3F V              CCN000002000000002000FN00000000020221101000002000NNM   20220906153253    1W    00000200000000496000000000032M3    SASAMI  000000000000QM329011
BI00B32M3    SM22111 MW     2022100618007703740              AVSS 0.3F W              CCN000004000000004000FN00000000020221101000004000NNM   20220906153253    1W    00000200000000496000000000032M3    SASAMI  000000000000QM329012
BI00B32M3    SM22112 MW     2022101218007703740              AVSS 0.3F W              CCN000004000000004000FN00000000020221101000004000NNM   20220906153253    1W    00000200000000496000000000032M3    SASAMI  000000000000QM429008
BI00B32M3    SM22111 MW     2022100618007703930              AVSS 0.5F B              CCN000016500000016500FN00000000020221101000016500NNM   20220906153253    1W    00000150000000674000000000032M3    SASAMI  000000000000QM329013
BI00B32M3    SM22112 MW     2022101218007703930              AVSS 0.5F B              CCN000016500000016500FN00000000020221101000016500NNM   20220906153253    1W    00000150000000674000000000032M3    SASAMI  000000000000QM429009
BI00B32M3    SM22113 MW     2022102018007703930              AVSS 0.5F B              CCN000016500000016500FN00000000020221101000016500NNM   20220906153253    1W    00000150000000674000000000032M3    SASAMI  000000000000QM12A003
BI00B32M3    SM22114 MW     2022102718007703930              AVSS 0.5F B              CCN000015000000015000FN00000000020221101000015000NNM   20220906153253    1W    00000150000000674000000000032M3    SASAMI  000000000000QM22A001
BI00B32M3    SM22111 MW     2022100618007703990              AVSS 0.5F L              CCN000009000000009000FN00000000020221101000009000NNM   20220906153253    1W    00000150000000674000000000032M3    SASAMI  000000000000QM329014
BI00B32M3    SM22112 MW     2022101218007703990              AVSS 0.5F L              CCN000009000000009000FN00000000020221101000009000NNM   20220906153253    1W    00000150000000674000000000032M3    SASAMI  000000000000QM429010
BI00B32M3    SM22113 MW     2022102018007703990              AVSS 0.5F L              CCN000009000000009000FN00000000020221101000009000NNM   20220906153253    1W    00000150000000674000000000032M3    SASAMI  000000000000QM12A004
BI00B32M3    SM22114 MW     2022102718007703990              AVSS 0.5F L              CCN000009000000009000FN00000000020221101000009000NNM   20220906153253    1W    00000150000000674000000000032M3    SASAMI  000000000000QM22A002
BI00B32M3    SM22111 MW     2022100618007703952              AVSS 0.5F P              CCN000007500000007500FN00000000020221101000007500NNM   20220906153253    1W    00000150000000674000000000032M3    SASAMI  000000000000QM329015
BI00B32M3    SM22112 MW     2022101218007703952              AVSS 0.5F P              CCN000007500000007500FN00000000020221101000007500NNM   20220906153253    1W    00000150000000674000000000032M3    SASAMI  000000000000QM429011
BI00B32M3    SM22113 MW     2022102018007703952              AVSS 0.5F P              CCN000007500000007500FN00000000020221101000007500NNM   20220906153253    1W    00000150000000674000000000032M3    SASAMI  000000000000QM12A005
BI00B32M3    SM22114 MW     2022102718007703952              AVSS 0.5F P              CCN000004500000004500FN00000000020221101000004500NNM   20220906153253    1W    00000150000000674000000000032M3    SASAMI  000000000000QM22A003
BI00B32M3    SM22111 MW     2022100618007703950              AVSS 0.5F R              CCN000003000000003000FN00000000020221101000003000NNM   20220906153253    1W    00000150000000674000000000032M3    SASAMI  000000000000QM329016
BI00B32M3    SM22112 MW     2022101218007703950              AVSS 0.5F R              CCN000003000000003000FN00000000020221101000003000NNM   20220906153253    1W    00000150000000674000000000032M3    SASAMI  000000000000QM429012
BI00B32M3    SM22113 MW     2022102018007703950              AVSS 0.5F R              CCN000001500000001500FN00000000020221101000001500NNM   20220906153253    1W    00000150000000674000000000032M3    SASAMI  000000000000QM12A006
BI00B32M3    SM22111 MW     2022100618007703991              AVSS 0.5F SB             CCN000001500000001500FN00000000020221101000001500NNM   20220906153253    1W    00000150000000674000000000032M3    SASAMI  000000000000QM329017
BI00B32M3    SM22111 MW     2022100618007703992              AVSS 0.5F V              CCN000003000000003000FN00000000020221101000003000NNM   20220906153253    1W    00000150000000674000000000032M3    SASAMI  000000000000QM329018
BI00B32M3    SM22111 MW     2022100618007703940              AVSS 0.5F W              CCN000003000000003000FN00000000020221101000003000NNM   20220906153253    1W    00000150000000674000000000032M3    SASAMI  000000000000QM329019
BI00B32M3    SM22112 MW     2022101218007703940              AVSS 0.5F W              CCN000003000000003000FN00000000020221101000003000NNM   20220906153253    1W    00000150000000674000000000032M3    SASAMI  000000000000QM429013
BI00B32M3    SM22113 MW     2022102018007703940              AVSS 0.5F W              CCN000003000000003000FN00000000020221101000003000NNM   20220906153253    1W    00000150000000674000000000032M3    SASAMI  000000000000QM12A007
BI00B32M3    SM22114 MW     2022102718007703940              AVSS 0.5F W              CCN000001500000001500FN00000000020221101000001500NNM   20220906153253    1W    00000150000000674000000000032M3    SASAMI  000000000000QM22A004
BI00B32M3    SM22115 MW     2022110318007703940              AVSS 0.5F W              CCN000001500000001500FN00000000020221101000001500NNM   20220906153253    1W    00000150000000674000000000032M3    SASAMI  000000000000QM32A001
BI00B32M3    SM22111 MW     2022100618007703970              AVSS 0.5F Y              CCN000003000000003000FN00000000020221101000003000NNM   20220906153253    1W    00000150000000674000000000032M3    SASAMI  000000000000QM329020
BI00B32M3    SM22112 MW     2022101218007703970              AVSS 0.5F Y              CCN000003000000003000FN00000000020221101000003000NNM   20220906153253    1W    00000150000000674000000000032M3    SASAMI  000000000000QM429014
BI00B32M3    SM22113 MW     2022102018007703970              AVSS 0.5F Y              CCN000001500000001500FN00000000020221101000001500NNM   20220906153253    1W    00000150000000674000000000032M3    SASAMI  000000000000QM12A008
BI00B32M3    SM22111 MW     2022100618007704180              AVSS 1.25F BR            CCN000001600000001600FN00000000020221101000001600NNM   20220906153253    1W    00000080000001389000000000032M3    SASAMI  000000000000QM329021
BI00B32M3    SM22112 MW     2022101218007704180              AVSS 1.25F BR            CCN000001600000001600FN00000000020221101000001600NNM   20220906153253    1W    00000080000001389000000000032M3    SASAMI  000000000000QM429015
BI00B32M3    SM22113 MW     2022102018007704180              AVSS 1.25F BR            CCN000001600000001600FN00000000020221101000001600NNM   20220906153253    1W    00000080000001389000000000032M3    SASAMI  000000000000QM12A009
BI00B32M3    SM22114 MW     2022102718007704180              AVSS 1.25F BR            CCN000001600000001600FN00000000020221101000001600NNM   20220906153253    1W    00000080000001389000000000032M3    SASAMI  000000000000QM22A005
BI00B32M3    SM22115 MW     2022110318007704180              AVSS 1.25F BR            CCN000000800000000800FN00000000020221101000000800NNM   20220906153253    1W    00000080000001389000000000032M3    SASAMI  000000000000QM32A002
BI00B32M3    SM22111 MW     2022100618007704160              AVSS 1.25F G             CCN000001600000001600FN00000000020221101000001600NNM   20220906153253    1W    00000080000001389000000000032M3    SASAMI  000000000000QM329022
BI00B32M3    SM22112 MW     2022101218007704160              AVSS 1.25F G             CCN000001600000001600FN00000000020221101000001600NNM   20220906153253    1W    00000080000001389000000000032M3    SASAMI  000000000000QM429016
BI00B32M3    SM22111 MW     2022100618007704190              AVSS 1.25F L             CCN000000800000000800FN00000000020221101000000800NNM   20220906153253    1W    00000080000001389000000000032M3    SASAMI  000000000000QM329023
BI00B32M3    SM22112 MW     2022101218007704190              AVSS 1.25F L             CCN000000800000000800FN00000000020221101000000800NNM   20220906153253    1W    00000080000001389000000000032M3    SASAMI  000000000000QM429017
BI00B32M3    SM22113 MW     2022102018007704190              AVSS 1.25F L             CCN000000800000000800FN00000000020221101000000800NNM   20220906153253    1W    00000080000001389000000000032M3    SASAMI  000000000000QM12A010
BI00B32M3    SM22114 MW     2022102718007704190              AVSS 1.25F L             CCN000000800000000800FN00000000020221101000000800NNM   20220906153253    1W    00000080000001389000000000032M3    SASAMI  000000000000QM22A006
BI00B32M3    SM22111 MW     2022100618007704161              AVSS 1.25F LG            CCN000002400000002400FN00000000020221101000002400NNM   20220906153253    1W    00000080000001389000000000032M3    SASAMI  000000000000QM329024
BI00B32M3    SM22112 MW     2022101218007704161              AVSS 1.25F LG            CCN000002400000002400FN00000000020221101000002400NNM   20220906153253    1W    00000080000001389000000000032M3    SASAMI  000000000000QM429018
BI00B32M3    SM22113 MW     2022102018007704161              AVSS 1.25F LG            CCN000002400000002400FN00000000020221101000002400NNM   20220906153253    1W    00000080000001389000000000032M3    SASAMI  000000000000QM12A011
BI00B32M3    SM22114 MW     2022102718007704161              AVSS 1.25F LG            CCN000001600000001600FN00000000020221101000001600NNM   20220906153253    1W    00000080000001389000000000032M3    SASAMI  000000000000QM22A007
BI00B32M3    SM22111 MW     2022100618007704150              AVSS 1.25F R             CCN000000800000000800FN00000000020221101000000800NNM   20220906153253    1W    00000080000001389000000000032M3    SASAMI  000000000000QM329025
BI00B32M3    SM22112 MW     2022101218007704150              AVSS 1.25F R             CCN000000800000000800FN00000000020221101000000800NNM   20220906153253    1W    00000080000001389000000000032M3    SASAMI  000000000000QM429019
BI00B32M3    SM22113 MW     2022102018007704150              AVSS 1.25F R             CCN000000800000000800FN00000000020221101000000800NNM   20220906153253    1W    00000080000001389000000000032M3    SASAMI  000000000000QM12A012
BI00B32M3    SM22111EMW     202210061800770375U              AVSS 0.3F BE             CCN000004000000004000FN00000000020221101000004000NNM   20220906153254    1W    00000200000000496000000000032M3    SASAMI  000000000000QE329001
BI00B32M3    SM22112EMW     202210121800770375U              AVSS 0.3F BE             CCN000004000000004000FN00000000020221101000004000NNM   20220906153254    1W    00000200000000496000000000032M3    SASAMI  000000000000QE429002
BI00B32M3    SM22112EMW     2022101218007703743              AVSS 0.3F W/B            CCN000004000000004000FN00000000020221101000004000NNM   20220906153254    1W    00000200000000496000000000032M3    SASAMI  000000000000QE429003
BI00B32M3    SM22111EMW     2022100618007704192              AVSS 1.25F V             CCN000001600000001600FN00000000020221101000001600NNM   20220906153254    1W    00000080000001389000000000032M3    SASAMI  000000000000QE329002
BI00B32M3    SM22112EMW     2022101218007704192              AVSS 1.25F V             CCN000001600000001600FN00000000020221101000001600NNM   20220906153254    1W    00000080000001389000000000032M3    SASAMI  000000000000QE429004
BI00B32M3    SM22111EMW     2022100618007704140              AVSS 1.25F W             CCN000001600000001600FN00000000020221101000001600NNM   20220906153254    1W    00000080000001389000000000032M3    SASAMI  000000000000QE329003
BI00B32M3    SM22112EMW     2022101218007704140              AVSS 1.25F W             CCN000000800000000800FN00000000020221101000000800NNM   20220906153254    1W    00000080000001389000000000032M3    SASAMI  000000000000QE429005
BI00B32M3    SM22113EMW     2022102018007704140              AVSS 1.25F W             CCN000000800000000800FN00000000020221101000000800NNM   20220906153254    1W    00000080000001389000000000032M3    SASAMI  000000000000QE12A001
BI00B32M3    SM22111HMW     2022100618007704030              AVSS 0.75F B             CCN000008000000008000FN00000000020221101000008000NNM   20220906153255    1W    00000100000000943000000000032M3    SASAMI  000000000000QH329001
BI00B32M3    SM22112HMW     2022101218007704030              AVSS 0.75F B             CCN000008000000008000FN00000000020221101000008000NNM   20220906153255    1W    00000100000000943000000000032M3    SASAMI  000000000000QH429001
BI00B32M3    SM22113HMW     2022102018007704030              AVSS 0.75F B             CCN000008000000008000FN00000000020221101000008000NNM   20220906153255    1W    00000100000000943000000000032M3    SASAMI  000000000000QH12A001
BI00B32M3    SM22114HMW     2022102718007704030              AVSS 0.75F B             CCN000003000000003000FN00000000020221101000003000NNM   20220906153255    1W    00000100000000943000000000032M3    SASAMI  000000000000QH22A001
BI00B32M3    SM22111HMW     2022100618007704130              AVSS 1.25F B             CCN000001600000001600FN00000000020221101000001600NNM   20220906153255    1W    00000080000001389000000000032M3    SASAMI  000000000000QH329002
BI00B32M3    SM22112HMW     2022101218007704130              AVSS 1.25F B             CCN000001600000001600FN00000000020221101000001600NNM   20220906153255    1W    00000080000001389000000000032M3    SASAMI  000000000000QH429002
BI00B32M3    SM22113HMW     2022102018007704130              AVSS 1.25F B             CCN000001600000001600FN00000000020221101000001600NNM   20220906153255    1W    00000080000001389000000000032M3    SASAMI  000000000000QH12A002
BI00B32M3    SM22114HMW     2022102718007704130              AVSS 1.25F B             CCN000000800000000800FN00000000020221101000000800NNM   20220906153255    1W    00000080000001389000000000032M3    SASAMI  000000000000QH22A002
BI00B32M3    @SM22111MMW    20221006181E50011ZZ              AVSSCS-S 0.5FX2 DGY/Y    CCN000002400000002400FN00000000020221101000002400NNM   20220906153252    1W    00000030000003096000000000032M3    SASAMI  000000000000QN329001
BI00B32M3    @SM22112MMW    20221012181E50011ZZ              AVSSCS-S 0.5FX2 DGY/Y    CCN000001500000001500FN00000000020221101000001500NNM   20220906153252    1W    00000030000003096000000000032M3    SASAMI  000000000000QN429001
BI00B32M3    @SM22113MMW    20221020181E50011ZZ              AVSSCS-S 0.5FX2 DGY/Y    CCN000001200000001200FN00000000020221101000001200NNM   20220906153252    1W    00000030000003096000000000032M3    SASAMI  000000000000QN12A001
BI00B32M3    @SM22114MMW    20221027181E50011ZZ              AVSSCS-S 0.5FX2 DGY/Y    CCN000001200000001200FN00000000020221101000001200NNM   20220906153252    1W    00000030000003096000000000032M3    SASAMI  000000000000QN22A001
BI00B32M3    @SM22115MMW    20221103181E50011ZZ              AVSSCS-S 0.5FX2 DGY/Y    CCN000000900000000900FN00000000020221101000000900NNM   20220906153252    1W    00000030000003096000000000032M3    SASAMI  000000000000QN32A001
BI00B32M4    @TH2104A       20221006181E50011ZZ              AVSSCS-S 0.5FX2 DGY/Y    CCN000012300000012300FN00000000020221001000012300NNE   20220906152508    1W    00000030000003096000000000032M4    SISAI   000000000000GC329002
BI00B32M4    @TH2104A       20221006181CQ7003ZZ              IVSSHCS-S 0.5FX2 B(B,W)  CCN000009300000009300FN00000000020221001000009300NNE   20220906152508    1W    00000030000002350200000000032M4    SISAI   000000000000GC329001
BI00B32M4    TW2104B        202209291801W006930              IVSSH 0.35F B            CCN000015000000015000FN00000000020221001000015000NNE   20220906152509    1W    00000250000000452000000000032M4    SISAI   000000000000GB229022
BI00B32M4    TW2104B        202209291801W006960              IVSSH 0.35F G            CCN000017500000017500FN00000000020221001000017500NNE   20220906152509    1W    00000250000000452000000000032M4    SISAI   000000000000GB229023
BI00B32M4    TW2104B        202209291801W006941              IVSSH 0.35F GY           CCN000010000000010000FN00000000020221001000010000NNE   20220906152509    1W    00000250000000452000000000032M4    SISAI   000000000000GB229024
BI00B32M4    TW2104B        202209291801W006990              IVSSH 0.35F L            CCN000012500000012500FN00000000020221001000012500NNE   20220906152509    1W    00000250000000452000000000032M4    SISAI   000000000000GB229025
BI00B32M4    TW2104B        202209291801W006952              IVSSH 0.35F P            CCN000002500000002500FN00000000020221001000002500NNE   20220906152509    1W    00000250000000452000000000032M4    SISAI   000000000000GB229026
BI00B32M4    TW2104B        202209291801W006950              IVSSH 0.35F R            CCN000012500000012500FN00000000020221001000012500NNE   20220906152509    1W    00000250000000452000000000032M4    SISAI   000000000000GB229027
BI00B32M4    TW2104B        202209291801W006991              IVSSH 0.35F SB           CCN000010000000010000FN00000000020221001000010000NNE   20220906152509    1W    00000250000000452000000000032M4    SISAI   000000000000GB229028
BI00B32M4    TW2104B        202209291801W006970              IVSSH 0.35F Y            CCN000012500000012500FN00000000020221001000012500NNE   20220906152509    1W    00000250000000452000000000032M4    SISAI   000000000000GB229029
BI00B32M4    TW2104B        202209291801W003930              IVSSH 0.5F B             CCN000030600000030600FN00000000020221001000030600NNE   20220906152509    1W    00000180000000625000000000032M4    SISAI   000000000000GB229002
BI00B32M4    TW2104B        202209291801W003960              IVSSH 0.5F G             CCN000028800000028800FN00000000020221001000028800NNE   20220906152509    1W    00000180000000625000000000032M4    SISAI   000000000000GB229004
BI00B32M4    TW2104B        202209291801W003941              IVSSH 0.5F GY            CCN000018000000018000FN00000000020221001000018000NNE   20220906152509    1W    00000180000000625000000000032M4    SISAI   000000000000GB229005
BI00B32M4    TW2104B        202209291801W003990              IVSSH 0.5F L             CCN000055800000055800FN00000000020221001000055800NNE   20220906152509    1W    00000180000000625000000000032M4    SISAI   000000000000GB229006
BI00B32M4    TW2104B        202209291801W003961              IVSSH 0.5F LG            CCN000019800000019800FN00000000020221001000019800NNE   20220906152509    1W    00000180000000625000000000032M4    SISAI   000000000000GB229007
BI00B32M4    TW2104B        202209291801W003952              IVSSH 0.5F P             CCN000023400000023400FN00000000020221001000023400NNE   20220906152509    1W    00000180000000625000000000032M4    SISAI   000000000000GB229008
BI00B32M4    TW2104B        202209291801W003950              IVSSH 0.5F R             CCN000055800000055800FN00000000020221001000055800NNE   20220906152509    1W    00000180000000625000000000032M4    SISAI   000000000000GB229009
BI00B32M4    TW2104B        202209291801W003991              IVSSH 0.5F SB            CCN000009000000009000FN00000000020221001000009000NNE   20220906152509    1W    00000180000000625000000000032M4    SISAI   000000000000GB229010
BI00B32M4    TW2104B        202209291801W003992              IVSSH 0.5F V             CCN000012600000012600FN00000000020221001000012600NNE   20220906152509    1W    00000180000000625000000000032M4    SISAI   000000000000GB229011
BI00B32M4    TW2104B        202209291801W003940              IVSSH 0.5F W             CCN000019800000019800FN00000000020221001000019800NNE   20220906152509    1W    00000180000000625000000000032M4    SISAI   000000000000GB229012
BI00B32M4    TW2104B        202209291801W003943              IVSSH 0.5F W/B           CCN000018000000018000FN00000000020221001000018000NNE   20220906152509    1W    00000180000000625000000000032M4    SISAI   000000000000GB229013
BI00B32M4    TW2104B        202209291801W003970              IVSSH 0.5F Y             CCN000066600000066600FN00000000020221001000066600NNE   20220906152509    1W    00000180000000625000000000032M4    SISAI   000000000000GB229014
BI00B32M4    TW2104B        202209291801W003980              IVSSH 0.5F BR            CCN000010800000010800FN00000000020221001000010800NNE   20220906152509    1W    00000180000000625000000000032M4    SISAI   000000000000GB229003
BI00B32M4    TW2104B        202209291801W004030              IVSSH 0.75F B            CCN000014300000014300FN00000000020221001000014300NNE   20220906152509    1W    00000130000000882000000000032M4    SISAI   000000000000GB229015
BI00B32M4    TW2104B        202209291801W004090              IVSSH 0.75F L            CCN000001300000001300FN00000000020221001000001300NNE   20220906152509    1W    00000130000000882000000000032M4    SISAI   000000000000GB229017
BI00B32M4    TW2104B        202209291801W004050              IVSSH 0.75F R            CCN000001300000001300FN00000000020221001000001300NNE   20220906152509    1W    00000130000000882000000000032M4    SISAI   000000000000GB229019
BI00B32M4    TW2104B        202209291801W004040              IVSSH 0.75F W            CCN000007800000007800FN00000000020221001000007800NNE   20220906152509    1W    00000130000000882000000000032M4    SISAI   000000000000GB229021
BI00B32M4    TW2104B        202209291801W004061              IVSSH 0.75F LG           CCN000003900000003900FN00000000020221001000003900NNE   20220906152509    1W    00000130000000882000000000032M4    SISAI   000000000000GB229018
BI00B32M4    TW2104B        202209291801W004080              IVSSH 0.75F BR           CCN000001300000001300FN00000000020221001000001300NNE   20220906152509    1W    00000130000000882000000000032M4    SISAI   000000000000GB229016
BI00B32M4    TW2104B        202209291801W004092              IVSSH 0.75F V            CCN000002600000002600FN00000000020221001000002600NNE   20220906152509    1W    00000130000000882000000000032M4    SISAI   000000000000GB229020
BI00B32M8    PM2210AJMW     2022092818007703903              AVSS 0.5F B/O            CCN000003000000003000FN00000000020221001000003000NNE   20220906150155    1W    00000150000000674000000000032M8    PMPEMI  000000000000IG229001
BI00B32M8    PM2210B MW     2022092818007704160              AVSS 1.25F G             CCN000000800000000800FN00000000020221001000000800NNE   20220906150156    1W    00000080000001389000000000032M8    PMPEMI  000000000000IH229006
BI00B32M8    PM2210B MW     2022092818007703935              AVSS 0.5F B/R            CCN000003000000003000FN00000000020221001000003000NNE   20220906150156    1W    00000150000000674000000000032M8    PMPEMI  000000000000IH229001
BI00B32M8    PM2210B MW     2022092818007703937              AVSS 0.5F B/Y            CCN000003000000003000FN00000000020221001000003000NNE   20220906150156    1W    00000150000000674000000000032M8    PMPEMI  000000000000IH229002
BI00B32M8    PM2210B MW     2022092818007703953              AVSS 0.5F R/B            CCN000003000000003000FN00000000020221001000003000NNE   20220906150156    1W    00000150000000674000000000032M8    PMPEMI  000000000000IH229003
BI00B32M8    PM2210B MW     2022092818007703973              AVSS 0.5F Y/B            CCN000003000000003000FN00000000020221001000003000NNE   20220906150156    1W    00000150000000674000000000032M8    PMPEMI  000000000000IH229004
BI00B32M8    PM2210B MW     2022092818007704040              AVSS 0.75F W             CCN000001000000001000FN00000000020221001000001000NNE   20220906150156    1W    00000100000000943000000000032M8    PMPEMI  000000000000IH229005
BI00B32M8    PM2210B MW     2022092818007704192              AVSS 1.25F V             CCN000000800000000800FN00000000020221001000000800NNE   20220906150156    1W    00000080000001389000000000032M8    PMPEMI  000000000000IH229007
BI00B32M8    @PM2210B MW    20220921181B32039S1              AVSSCS 0.5FX1 DGY        CCN000002000000002000FN00000000020221001000002000NNE   20220906150153    1W    00000040000002289000000000032M8    PMPEMI  000000000000IB129001
BI00B32M8    @PM2210B MW    20220921181D6910235              AVSSHCS 0.5FX2 B/R       CCN000001800000001800FN00000000020221001000001800NNE   20220906150153    1W    00000030000002385000000000032M8    PMPEMI  000000000000IB129003
BI00B32M8    @PM2210B MW    20220921181D6910239              AVSSHCS 0.5FX2 B/L       CCN000001500000001500FN00000000020221001000001500NNE   20220906150153    1W    00000030000002385000000000032M8    PMPEMI  000000000000IB129002
BI00B32M8    @PM2210B MW    20220921181F21008ZZ              AVSSHCS-S 0.5FX1 B/V     CCN000000400000000400FN00000000020221001000000400NNE   20220906150153    1W    00000040000001908400000000032M8    PMPEMI  000000000000IB129004
BI00B32M8    PM2210BTMW     202209281801W003941              IVSSH 0.5F GY            CCN000005400000005400FN00000000020221001000005400NNE   20220906150156    1W    00000180000000625000000000032M8    PMPEMI  000000000000IN229002
BI00B32M8    PM2210BTMW     202209281801W004060              IVSSH 0.75F G            CCN000001300000001300FN00000000020221001000001300NNE   20220906150156    1W    00000130000000882000000000032M8    PMPEMI  000000000000IN229003
BI00B32M8    PM2210BTMW     202209281801W006990              IVSSH 0.35F L            CCN000035000000035000FN00000000020221001000035000NNE   20220906150156    1W    00000250000000452000000000032M8    PMPEMI  000000000000IN229004
BI00B32M8    @PM2210BTMW    20220928181F21015ZZ              AVSSHCS-S 0.5FX2 B/P     CCN000000600000000600FN00000000020221001000000600NNE   20220906150154    1W    00000030000002531400000000032M8    PMPEMI  000000000000IN229001
BI00B32M8    PM22112 MW     2022101218007703992              AVSS 0.5F V              CCN000004500000004500FN00000000020221101000004500NNM   20220906151601    1W    00000150000000674000000000032M8    PMPEMI  000000000000IM429028
BI00B32M8    PM22113 MW     2022101918007703992              AVSS 0.5F V              CCN000006000000006000FN00000000020221101000006000NNM   20220906151601    1W    00000150000000674000000000032M8    PMPEMI  000000000000IM12A028
BI00B32M8    PM22114 MW     2022102618007703992              AVSS 0.5F V              CCN000006000000006000FN00000000020221101000006000NNM   20220906151601    1W    00000150000000674000000000032M8    PMPEMI  000000000000IM22A028
BI00B32M8    PM22111 MW     2022100518007704160              AVSS 1.25F G             CCN000000800000000800FN00000000020221101000000800NNM   20220906151601    1W    00000080000001389000000000032M8    PMPEMI  000000000000IM329031
BI00B32M8    PM22112 MW     2022101218007704160              AVSS 1.25F G             CCN000000800000000800FN00000000020221101000000800NNM   20220906151601    1W    00000080000001389000000000032M8    PMPEMI  000000000000IM429034
BI00B32M8    PM22113 MW     2022101918007704160              AVSS 1.25F G             CCN000000800000000800FN00000000020221101000000800NNM   20220906151601    1W    00000080000001389000000000032M8    PMPEMI  000000000000IM12A033
BI00B32M8    PM22114 MW     2022102618007704160              AVSS 1.25F G             CCN000001600000001600FN00000000020221101000001600NNM   20220906151601    1W    00000080000001389000000000032M8    PMPEMI  000000000000IM22A032
BI00B32M8    PM22111 MW     2022100518007704190              AVSS 1.25F L             CCN000000800000000800FN00000000020221101000000800NNM   20220906151601    1W    00000080000001389000000000032M8    PMPEMI  000000000000IM329032
BI00B32M8    PM22112 MW     2022101218007704190              AVSS 1.25F L             CCN000000800000000800FN00000000020221101000000800NNM   20220906151601    1W    00000080000001389000000000032M8    PMPEMI  000000000000IM429035
BI00B32M8    PM22113 MW     2022101918007704190              AVSS 1.25F L             CCN000000800000000800FN00000000020221101000000800NNM   20220906151601    1W    00000080000001389000000000032M8    PMPEMI  000000000000IM12A034
BI00B32M8    PM22114 MW     2022102618007704190              AVSS 1.25F L             CCN000001600000001600FN00000000020221101000001600NNM   20220906151601    1W    00000080000001389000000000032M8    PMPEMI  000000000000IM22A033
BI00B32M8    PM22112 MW     202210121801W004043              IVSSH 0.75F W/B          CCN000002600000002600FN00000000020221101000002600NNM   20220906151601    1W    00000130000000882000000000032M8    PMPEMI  000000000000IM429041
BI00B32M8    PM22111 MW     2022100518007703930              AVSS 0.5F B              CCN000003000000003000FN00000000020221101000003000NNM   20220906151601    1W    00000150000000674000000000032M8    PMPEMI  000000000000IM329020
BI00B32M8    PM22112 MW     2022101218007703930              AVSS 0.5F B              CCN000006000000006000FN00000000020221101000006000NNM   20220906151601    1W    00000150000000674000000000032M8    PMPEMI  000000000000IM429020
BI00B32M8    PM22113 MW     2022101918007703930              AVSS 0.5F B              CCN000006000000006000FN00000000020221101000006000NNM   20220906151601    1W    00000150000000674000000000032M8    PMPEMI  000000000000IM12A020
BI00B32M8    PM22114 MW     2022102618007703930              AVSS 0.5F B              CCN000006000000006000FN00000000020221101000006000NNM   20220906151601    1W    00000150000000674000000000032M8    PMPEMI  000000000000IM22A020
BI00B32M8    PM22111 MW     2022100518007703940              AVSS 0.5F W              CCN000003000000003000FN00000000020221101000003000NNM   20220906151601    1W    00000150000000674000000000032M8    PMPEMI  000000000000IM329026
BI00B32M8    PM22112 MW     2022101218007703940              AVSS 0.5F W              CCN000010500000010500FN00000000020221101000010500NNM   20220906151601    1W    00000150000000674000000000032M8    PMPEMI  000000000000IM429029
BI00B32M8    PM22113 MW     2022101918007703940              AVSS 0.5F W              CCN000012000000012000FN00000000020221101000012000NNM   20220906151601    1W    00000150000000674000000000032M8    PMPEMI  000000000000IM12A029
BI00B32M8    PM22114 MW     2022102618007703940              AVSS 0.5F W              CCN000006000000006000FN00000000020221101000006000NNM   20220906151601    1W    00000150000000674000000000032M8    PMPEMI  000000000000IM22A029
BI00B32M8    PM22111 MW     2022100518007703941              AVSS 0.5F GY             CCN000001500000001500FN00000000020221101000001500NNM   20220906151601    1W    00000150000000674000000000032M8    PMPEMI  000000000000IM329022
BI00B32M8    PM22112 MW     2022101218007703941              AVSS 0.5F GY             CCN000003000000003000FN00000000020221101000003000NNM   20220906151601    1W    00000150000000674000000000032M8    PMPEMI  000000000000IM429023
BI00B32M8    PM22113 MW     2022101918007703941              AVSS 0.5F GY             CCN000003000000003000FN00000000020221101000003000NNM   20220906151601    1W    00000150000000674000000000032M8    PMPEMI  000000000000IM12A023
BI00B32M8    PM22114 MW     2022102618007703941              AVSS 0.5F GY             CCN000003000000003000FN00000000020221101000003000NNM   20220906151601    1W    00000150000000674000000000032M8    PMPEMI  000000000000IM22A023
BI00B32M8    PM22111 MW     2022100518007703943              AVSS 0.5F W/B            CCN000001500000001500FN00000000020221101000001500NNM   20220906151601    1W    00000150000000674000000000032M8    PMPEMI  000000000000IM329027
BI00B32M8    PM22112 MW     2022101218007703943              AVSS 0.5F W/B            CCN000001500000001500FN00000000020221101000001500NNM   20220906151601    1W    00000150000000674000000000032M8    PMPEMI  000000000000IM429030
BI00B32M8    PM22111 MW     2022100518007703950              AVSS 0.5F R              CCN000012000000012000FN00000000020221101000012000NNM   20220906151601    1W    00000150000000674000000000032M8    PMPEMI  000000000000IM329025
BI00B32M8    PM22112 MW     2022101218007703950              AVSS 0.5F R              CCN000010500000010500FN00000000020221101000010500NNM   20220906151601    1W    00000150000000674000000000032M8    PMPEMI  000000000000IM429027
BI00B32M8    PM22113 MW     2022101918007703950              AVSS 0.5F R              CCN000012000000012000FN00000000020221101000012000NNM   20220906151601    1W    00000150000000674000000000032M8    PMPEMI  000000000000IM12A027
BI00B32M8    PM22114 MW     2022102618007703950              AVSS 0.5F R              CCN000012000000012000FN00000000020221101000012000NNM   20220906151601    1W    00000150000000674000000000032M8    PMPEMI  000000000000IM22A027
BI00B32M8    PM22112 MW     2022101218007703952              AVSS 0.5F P              CCN000003000000003000FN00000000020221101000003000NNM   20220906151601    1W    00000150000000674000000000032M8    PMPEMI  000000000000IM429026
BI00B32M8    PM22113 MW     2022101918007703952              AVSS 0.5F P              CCN000003000000003000FN00000000020221101000003000NNM   20220906151601    1W    00000150000000674000000000032M8    PMPEMI  000000000000IM12A026
BI00B32M8    PM22114 MW     2022102618007703952              AVSS 0.5F P              CCN000003000000003000FN00000000020221101000003000NNM   20220906151601    1W    00000150000000674000000000032M8    PMPEMI  000000000000IM22A026
BI00B32M8    PM22112 MW     2022101218007703960              AVSS 0.5F G              CCN000004500000004500FN00000000020221101000004500NNM   20220906151601    1W    00000150000000674000000000032M8    PMPEMI  000000000000IM429022
BI00B32M8    PM22113 MW     2022101918007703960              AVSS 0.5F G              CCN000004500000004500FN00000000020221101000004500NNM   20220906151601    1W    00000150000000674000000000032M8    PMPEMI  000000000000IM12A022
BI00B32M8    PM22114 MW     2022102618007703960              AVSS 0.5F G              CCN000006000000006000FN00000000020221101000006000NNM   20220906151601    1W    00000150000000674000000000032M8    PMPEMI  000000000000IM22A022
BI00B32M8    PM22111 MW     2022100518007703961              AVSS 0.5F LG             CCN000003000000003000FN00000000020221101000003000NNM   20220906151601    1W    00000150000000674000000000032M8    PMPEMI  000000000000IM329024
BI00B32M8    PM22112 MW     2022101218007703961              AVSS 0.5F LG             CCN000003000000003000FN00000000020221101000003000NNM   20220906151601    1W    00000150000000674000000000032M8    PMPEMI  000000000000IM429025
BI00B32M8    PM22113 MW     2022101918007703961              AVSS 0.5F LG             CCN000003000000003000FN00000000020221101000003000NNM   20220906151601    1W    00000150000000674000000000032M8    PMPEMI  000000000000IM12A025
BI00B32M8    PM22114 MW     2022102618007703961              AVSS 0.5F LG             CCN000004500000004500FN00000000020221101000004500NNM   20220906151601    1W    00000150000000674000000000032M8    PMPEMI  000000000000IM22A025
BI00B32M8    PM22112 MW     2022101218007703970              AVSS 0.5F Y              CCN000004500000004500FN00000000020221101000004500NNM   20220906151601    1W    00000150000000674000000000032M8    PMPEMI  000000000000IM429031
BI00B32M8    PM22113 MW     2022101918007703970              AVSS 0.5F Y              CCN000004500000004500FN00000000020221101000004500NNM   20220906151601    1W    00000150000000674000000000032M8    PMPEMI  000000000000IM12A030
BI00B32M8    PM22114 MW     2022102618007703970              AVSS 0.5F Y              CCN000004500000004500FN00000000020221101000004500NNM   20220906151601    1W    00000150000000674000000000032M8    PMPEMI  000000000000IM22A030
BI00B32M8    PM22111 MW     2022100518007703980              AVSS 0.5F BR             CCN000001500000001500FN00000000020221101000001500NNM   20220906151601    1W    00000150000000674000000000032M8    PMPEMI  000000000000IM329021
BI00B32M8    PM22112 MW     2022101218007703980              AVSS 0.5F BR             CCN000003000000003000FN00000000020221101000003000NNM   20220906151601    1W    00000150000000674000000000032M8    PMPEMI  000000000000IM429021
BI00B32M8    PM22113 MW     2022101918007703980              AVSS 0.5F BR             CCN000003000000003000FN00000000020221101000003000NNM   20220906151601    1W    00000150000000674000000000032M8    PMPEMI  000000000000IM12A021
BI00B32M8    PM22114 MW     2022102618007703980              AVSS 0.5F BR             CCN000001500000001500FN00000000020221101000001500NNM   20220906151601    1W    00000150000000674000000000032M8    PMPEMI  000000000000IM22A021
BI00B32M8    PM22111 MW     2022100518007703990              AVSS 0.5F L              CCN000003000000003000FN00000000020221101000003000NNM   20220906151601    1W    00000150000000674000000000032M8    PMPEMI  000000000000IM329023
BI00B32M8    PM22112 MW     2022101218007703990              AVSS 0.5F L              CCN000003000000003000FN00000000020221101000003000NNM   20220906151601    1W    00000150000000674000000000032M8    PMPEMI  000000000000IM429024
BI00B32M8    PM22113 MW     2022101918007703990              AVSS 0.5F L              CCN000004500000004500FN00000000020221101000004500NNM   20220906151601    1W    00000150000000674000000000032M8    PMPEMI  000000000000IM12A024
BI00B32M8    PM22114 MW     2022102618007703990              AVSS 0.5F L              CCN000006000000006000FN00000000020221101000006000NNM   20220906151601    1W    00000150000000674000000000032M8    PMPEMI  000000000000IM22A024
BI00B32M8    PM22111 MW     2022100518007704040              AVSS 0.75F W             CCN000001000000001000FN00000000020221101000001000NNM   20220906151601    1W    00000100000000943000000000032M8    PMPEMI  000000000000IM329029
BI00B32M8    PM22111 MW     2022100518007704050              AVSS 0.75F R             CCN000001000000001000FN00000000020221101000001000NNM   20220906151601    1W    00000100000000943000000000032M8    PMPEMI  000000000000IM329028
BI00B32M8    PM22112 MW     2022101218007704050              AVSS 0.75F R             CCN000001000000001000FN00000000020221101000001000NNM   20220906151601    1W    00000100000000943000000000032M8    PMPEMI  000000000000IM429032
BI00B32M8    PM22113 MW     2022101918007704050              AVSS 0.75F R             CCN000001000000001000FN00000000020221101000001000NNM   20220906151601    1W    00000100000000943000000000032M8    PMPEMI  000000000000IM12A031
BI00B32M8    PM22111 MW     2022100518007704140              AVSS 1.25F W             CCN000001600000001600FN00000000020221101000001600NNM   20220906151601    1W    00000080000001389000000000032M8    PMPEMI  000000000000IM329036
BI00B32M8    PM22112 MW     2022101218007704140              AVSS 1.25F W             CCN000002400000002400FN00000000020221101000002400NNM   20220906151601    1W    00000080000001389000000000032M8    PMPEMI  000000000000IM429039
BI00B32M8    PM22113 MW     2022101918007704140              AVSS 1.25F W             CCN000002400000002400FN00000000020221101000002400NNM   20220906151601    1W    00000080000001389000000000032M8    PMPEMI  000000000000IM12A038
BI00B32M8    PM22114 MW     2022102618007704140              AVSS 1.25F W             CCN000001600000001600FN00000000020221101000001600NNM   20220906151601    1W    00000080000001389000000000032M8    PMPEMI  000000000000IM22A037
BI00B32M8    PM22111 MW     2022100518007704150              AVSS 1.25F R             CCN000000800000000800FN00000000020221101000000800NNM   20220906151601    1W    00000080000001389000000000032M8    PMPEMI  000000000000IM329034
BI00B32M8    PM22112 MW     2022101218007704150              AVSS 1.25F R             CCN000000800000000800FN00000000020221101000000800NNM   20220906151601    1W    00000080000001389000000000032M8    PMPEMI  000000000000IM429037
BI00B32M8    PM22113 MW     2022101918007704150              AVSS 1.25F R             CCN000000800000000800FN00000000020221101000000800NNM   20220906151601    1W    00000080000001389000000000032M8    PMPEMI  000000000000IM12A036
BI00B32M8    PM22114 MW     2022102618007704150              AVSS 1.25F R             CCN000000800000000800FN00000000020221101000000800NNM   20220906151601    1W    00000080000001389000000000032M8    PMPEMI  000000000000IM22A035
BI00B32M8    PM22111 MW     2022100518007704152              AVSS 1.25F P             CCN000001600000001600FN00000000020221101000001600NNM   20220906151601    1W    00000080000001389000000000032M8    PMPEMI  000000000000IM329033
BI00B32M8    PM22112 MW     2022101218007704152              AVSS 1.25F P             CCN000002400000002400FN00000000020221101000002400NNM   20220906151601    1W    00000080000001389000000000032M8    PMPEMI  000000000000IM429036
BI00B32M8    PM22113 MW     2022101918007704152              AVSS 1.25F P             CCN000002400000002400FN00000000020221101000002400NNM   20220906151601    1W    00000080000001389000000000032M8    PMPEMI  000000000000IM12A035
BI00B32M8    PM22114 MW     2022102618007704152              AVSS 1.25F P             CCN000002400000002400FN00000000020221101000002400NNM   20220906151601    1W    00000080000001389000000000032M8    PMPEMI  000000000000IM22A034
BI00B32M8    PM22111 MW     2022100518007704170              AVSS 1.25F Y             CCN000000800000000800FN00000000020221101000000800NNM   20220906151601    1W    00000080000001389000000000032M8    PMPEMI  000000000000IM329037
BI00B32M8    PM22112 MW     2022101218007704170              AVSS 1.25F Y             CCN000000800000000800FN00000000020221101000000800NNM   20220906151601    1W    00000080000001389000000000032M8    PMPEMI  000000000000IM429040
BI00B32M8    PM22113 MW     2022101918007704170              AVSS 1.25F Y             CCN000000800000000800FN00000000020221101000000800NNM   20220906151601    1W    00000080000001389000000000032M8    PMPEMI  000000000000IM12A039
BI00B32M8    PM22114 MW     2022102618007704170              AVSS 1.25F Y             CCN000001600000001600FN00000000020221101000001600NNM   20220906151601    1W    00000080000001389000000000032M8    PMPEMI  000000000000IM22A038
BI00B32M8    PM22111 MW     2022100518007704180              AVSS 1.25F BR            CCN000000800000000800FN00000000020221101000000800NNM   20220906151601    1W    00000080000001389000000000032M8    PMPEMI  000000000000IM329030
BI00B32M8    PM22112 MW     2022101218007704180              AVSS 1.25F BR            CCN000000800000000800FN00000000020221101000000800NNM   20220906151601    1W    00000080000001389000000000032M8    PMPEMI  000000000000IM429033
BI00B32M8    PM22113 MW     2022101918007704180              AVSS 1.25F BR            CCN000000800000000800FN00000000020221101000000800NNM   20220906151601    1W    00000080000001389000000000032M8    PMPEMI  000000000000IM12A032
BI00B32M8    PM22114 MW     2022102618007704180              AVSS 1.25F BR            CCN000000800000000800FN00000000020221101000000800NNM   20220906151601    1W    00000080000001389000000000032M8    PMPEMI  000000000000IM22A031
BI00B32M8    PM22111 MW     2022100518007704192              AVSS 1.25F V             CCN000000800000000800FN00000000020221101000000800NNM   20220906151601    1W    00000080000001389000000000032M8    PMPEMI  000000000000IM329035
BI00B32M8    PM22112 MW     2022101218007704192              AVSS 1.25F V             CCN000001600000001600FN00000000020221101000001600NNM   20220906151601    1W    00000080000001389000000000032M8    PMPEMI  000000000000IM429038
BI00B32M8    PM22113 MW     2022101918007704192              AVSS 1.25F V             CCN000000800000000800FN00000000020221101000000800NNM   20220906151601    1W    00000080000001389000000000032M8    PMPEMI  000000000000IM12A037
BI00B32M8    PM22114 MW     2022102618007704192              AVSS 1.25F V             CCN000000800000000800FN00000000020221101000000800NNM   20220906151601    1W    00000080000001389000000000032M8    PMPEMI  000000000000IM22A036
BI00B32M8    @PM22111 MW    20221005181B0910241              CAVSAS 0.5X2 GY          CCN000045000000045000FN00000000020221101000045000NNM   20220906151556    1W    00000030000002680000000000032M8    PMPEMI  000000000000IM329001
BI00B32M8    @PM22112 MW    20221012181B0910241              CAVSAS 0.5X2 GY          CCN000040500000040500FN00000000020221101000040500NNM   20220906151556    1W    00000030000002680000000000032M8    PMPEMI  000000000000IM429001
BI00B32M8    @PM22113 MW    20221019181B0910241              CAVSAS 0.5X2 GY          CCN000040500000040500FN00000000020221101000040500NNM   20220906151556    1W    00000030000002680000000000032M8    PMPEMI  000000000000IM12A001
BI00B32M8    @PM22114 MW    20221026181B0910241              CAVSAS 0.5X2 GY          CCN000040800000040800FN00000000020221101000040800NNM   20220906151556    1W    00000030000002680000000000032M8    PMPEMI  000000000000IM22A001
BI00B32M8    @PM22111 MW    20221005181B32037Z5              AVSSCS 0.3FX1 DGY/L      CCN000001500000001500FN00000000020221101000001500NNM   20220906151556    1W    00000050000001780000000000032M8    PMPEMI  000000000000IM329002
BI00B32M8    @PM22112 MW    20221012181B32037Z5              AVSSCS 0.3FX1 DGY/L      CCN000002000000002000FN00000000020221101000002000NNM   20220906151556    1W    00000050000001780000000000032M8    PMPEMI  000000000000IM429002
BI00B32M8    @PM22113 MW    20221019181B32037Z5              AVSSCS 0.3FX1 DGY/L      CCN000002000000002000FN00000000020221101000002000NNM   20220906151556    1W    00000050000001780000000000032M8    PMPEMI  000000000000IM12A002
BI00B32M8    @PM22114 MW    20221026181B32037Z5              AVSSCS 0.3FX1 DGY/L      CCN000001500000001500FN00000000020221101000001500NNM   20220906151556    1W    00000050000001780000000000032M8    PMPEMI  000000000000IM22A002
BI00B32M8    @PM22111 MW    20221005181B32039S1              AVSSCS 0.5FX1 DGY        CCN000001600000001600FN00000000020221101000001600NNM   20220906151556    1W    00000040000002289000000000032M8    PMPEMI  000000000000IM329003
BI00B32M8    @PM22112 MW    20221012181B32039S1              AVSSCS 0.5FX1 DGY        CCN000002000000002000FN00000000020221101000002000NNM   20220906151556    1W    00000040000002289000000000032M8    PMPEMI  000000000000IM429003
BI00B32M8    @PM22113 MW    20221019181B32039S1              AVSSCS 0.5FX1 DGY        CCN000002000000002000FN00000000020221101000002000NNM   20220906151556    1W    00000040000002289000000000032M8    PMPEMI  000000000000IM12A003
BI00B32M8    @PM22114 MW    20221026181B32039S1              AVSSCS 0.5FX1 DGY        CCN000002800000002800FN00000000020221101000002800NNM   20220906151556    1W    00000040000002289000000000032M8    PMPEMI  000000000000IM22A003
BI00B32M8    @PM22111 MW    20221005181D6910235              AVSSHCS 0.5FX2 B/R       CCN000001800000001800FN00000000020221101000001800NNM   20220906151556    1W    00000030000002385000000000032M8    PMPEMI  000000000000IM329005
BI00B32M8    @PM22112 MW    20221012181D6910235              AVSSHCS 0.5FX2 B/R       CCN000001800000001800FN00000000020221101000001800NNM   20220906151556    1W    00000030000002385000000000032M8    PMPEMI  000000000000IM429005
BI00B32M8    @PM22113 MW    20221019181D6910235              AVSSHCS 0.5FX2 B/R       CCN000001800000001800FN00000000020221101000001800NNM   20220906151556    1W    00000030000002385000000000032M8    PMPEMI  000000000000IM12A005
BI00B32M8    @PM22114 MW    20221026181D6910235              AVSSHCS 0.5FX2 B/R       CCN000001800000001800FN00000000020221101000001800NNM   20220906151556    1W    00000030000002385000000000032M8    PMPEMI  000000000000IM22A005
BI00B32M8    @PM22111 MW    20221005181D6910239              AVSSHCS 0.5FX2 B/L       CCN000001500000001500FN00000000020221101000001500NNM   20220906151556    1W    00000030000002385000000000032M8    PMPEMI  000000000000IM329004
BI00B32M8    @PM22112 MW    20221012181D6910239              AVSSHCS 0.5FX2 B/L       CCN000001800000001800FN00000000020221101000001800NNM   20220906151556    1W    00000030000002385000000000032M8    PMPEMI  000000000000IM429004
BI00B32M8    @PM22113 MW    20221019181D6910239              AVSSHCS 0.5FX2 B/L       CCN000001800000001800FN00000000020221101000001800NNM   20220906151556    1W    00000030000002385000000000032M8    PMPEMI  000000000000IM12A004
BI00B32M8    @PM22114 MW    20221026181D6910239              AVSSHCS 0.5FX2 B/L       CCN000001500000001500FN00000000020221101000001500NNM   20220906151556    1W    00000030000002385000000000032M8    PMPEMI  000000000000IM22A004
BI00B32M8    @PM22111 MW    20221005181F21008ZZ              AVSSHCS-S 0.5FX1 B/V     CCN000002000000002000FN00000000020221101000002000NNM   20220906151556    1W    00000040000001908400000000032M8    PMPEMI  000000000000IM329006
BI00B32M8    @PM22112 MW    20221012181F21008ZZ              AVSSHCS-S 0.5FX1 B/V     CCN000002000000002000FN00000000020221101000002000NNM   20220906151556    1W    00000040000001908400000000032M8    PMPEMI  000000000000IM429006
BI00B32M8    @PM22113 MW    20221019181F21008ZZ              AVSSHCS-S 0.5FX1 B/V     CCN000002000000002000FN00000000020221101000002000NNM   20220906151556    1W    00000040000001908400000000032M8    PMPEMI  000000000000IM12A006
BI00B32M8    @PM22114 MW    20221026181F21008ZZ              AVSSHCS-S 0.5FX1 B/V     CCN000002000000002000FN00000000020221101000002000NNM   20220906151556    1W    00000040000001908400000000032M8    PMPEMI  000000000000IM22A006
BI00B32M8    @PM22111 MW    20221005181F21009ZZ              AVSSHCS-S 0.5FX2 B       CCN000003900000003900FN00000000020221101000003900NNM   20220906151556    1W    00000030000002531400000000032M8    PMPEMI  000000000000IM329007
BI00B32M8    @PM22112 MW    20221012181F21009ZZ              AVSSHCS-S 0.5FX2 B       CCN000003900000003900FN00000000020221101000003900NNM   20220906151556    1W    00000030000002531400000000032M8    PMPEMI  000000000000IM429007
BI00B32M8    @PM22113 MW    20221019181F21009ZZ              AVSSHCS-S 0.5FX2 B       CCN000003900000003900FN00000000020221101000003900NNM   20220906151556    1W    00000030000002531400000000032M8    PMPEMI  000000000000IM12A007
BI00B32M8    @PM22114 MW    20221026181F21009ZZ              AVSSHCS-S 0.5FX2 B       CCN000003900000003900FN00000000020221101000003900NNM   20220906151556    1W    00000030000002531400000000032M8    PMPEMI  000000000000IM22A007
BI00B32M8    PM22111TMW     202210051801W003930              IVSSH 0.5F B             CCN000003600000003600FN00000000020221101000003600NNM   20220906151602    1W    00000180000000625000000000032M8    PMPEMI  000000000000IT329004
BI00B32M8    PM22112TMW     202210121801W003930              IVSSH 0.5F B             CCN000027000000027000FN00000000020221101000027000NNM   20220906151602    1W    00000180000000625000000000032M8    PMPEMI  000000000000IT429003
BI00B32M8    PM22113TMW     202210191801W003930              IVSSH 0.5F B             CCN000025200000025200FN00000000020221101000025200NNM   20220906151602    1W    00000180000000625000000000032M8    PMPEMI  000000000000IT12A003
BI00B32M8    PM22114TMW     202210261801W003930              IVSSH 0.5F B             CCN000016200000016200FN00000000020221101000016200NNM   20220906151602    1W    00000180000000625000000000032M8    PMPEMI  000000000000IT22A003
BI00B32M8    PM22111TMW     202210051801W003940              IVSSH 0.5F W             CCN000005400000005400FN00000000020221101000005400NNM   20220906151602    1W    00000180000000625000000000032M8    PMPEMI  000000000000IT329012
BI00B32M8    PM22112TMW     202210121801W003940              IVSSH 0.5F W             CCN000018000000018000FN00000000020221101000018000NNM   20220906151602    1W    00000180000000625000000000032M8    PMPEMI  000000000000IT429013
BI00B32M8    PM22113TMW     202210191801W003940              IVSSH 0.5F W             CCN000019800000019800FN00000000020221101000019800NNM   20220906151602    1W    00000180000000625000000000032M8    PMPEMI  000000000000IT12A013
BI00B32M8    PM22114TMW     202210261801W003940              IVSSH 0.5F W             CCN000010800000010800FN00000000020221101000010800NNM   20220906151602    1W    00000180000000625000000000032M8    PMPEMI  000000000000IT22A012
BI00B32M8    PM22111TMW     202210051801W003941              IVSSH 0.5F GY            CCN000009000000009000FN00000000020221101000009000NNM   20220906151602    1W    00000180000000625000000000032M8    PMPEMI  000000000000IT329007
BI00B32M8    PM22112TMW     202210121801W003941              IVSSH 0.5F GY            CCN000010800000010800FN00000000020221101000010800NNM   20220906151602    1W    00000180000000625000000000032M8    PMPEMI  000000000000IT429006
BI00B32M8    PM22113TMW     202210191801W003941              IVSSH 0.5F GY            CCN000009000000009000FN00000000020221101000009000NNM   20220906151602    1W    00000180000000625000000000032M8    PMPEMI  000000000000IT12A006
BI00B32M8    PM22114TMW     202210261801W003941              IVSSH 0.5F GY            CCN000009000000009000FN00000000020221101000009000NNM   20220906151602    1W    00000180000000625000000000032M8    PMPEMI  000000000000IT22A006
BI00B32M8    PM22111TMW     202210051801W003943              IVSSH 0.5F W/B           CCN000012600000012600FN00000000020221101000012600NNM   20220906151602    1W    00000180000000625000000000032M8    PMPEMI  000000000000IT329013
BI00B32M8    PM22112TMW     202210121801W003943              IVSSH 0.5F W/B           CCN000016200000016200FN00000000020221101000016200NNM   20220906151602    1W    00000180000000625000000000032M8    PMPEMI  000000000000IT429014
BI00B32M8    PM22113TMW     202210191801W003943              IVSSH 0.5F W/B           CCN000018000000018000FN00000000020221101000018000NNM   20220906151602    1W    00000180000000625000000000032M8    PMPEMI  000000000000IT12A014
BI00B32M8    PM22114TMW     202210261801W003943              IVSSH 0.5F W/B           CCN000018000000018000FN00000000020221101000018000NNM   20220906151602    1W    00000180000000625000000000032M8    PMPEMI  000000000000IT22A013
BI00B32M8    PM22111TMW     202210051801W00395U              IVSSH 0.5F BE            CCN000001800000001800FN00000000020221101000001800NNM   20220906151602    1W    00000180000000625000000000032M8    PMPEMI  000000000000IT329005
BI00B32M8    PM22112TMW     202210121801W00395U              IVSSH 0.5F BE            CCN000003600000003600FN00000000020221101000003600NNM   20220906151602    1W    00000180000000625000000000032M8    PMPEMI  000000000000IT429004
BI00B32M8    PM22113TMW     202210191801W00395U              IVSSH 0.5F BE            CCN000001800000001800FN00000000020221101000001800NNM   20220906151602    1W    00000180000000625000000000032M8    PMPEMI  000000000000IT12A004
BI00B32M8    PM22114TMW     202210261801W00395U              IVSSH 0.5F BE            CCN000001800000001800FN00000000020221101000001800NNM   20220906151602    1W    00000180000000625000000000032M8    PMPEMI  000000000000IT22A004
BI00B32M8    PM22112TMW     202210121801W003950              IVSSH 0.5F R             CCN000023400000023400FN00000000020221101000023400NNM   20220906151602    1W    00000180000000625000000000032M8    PMPEMI  000000000000IT429010
BI00B32M8    PM22113TMW     202210191801W003950              IVSSH 0.5F R             CCN000032400000032400FN00000000020221101000032400NNM   20220906151602    1W    00000180000000625000000000032M8    PMPEMI  000000000000IT12A010
BI00B32M8    PM22114TMW     202210261801W003950              IVSSH 0.5F R             CCN000034200000034200FN00000000020221101000034200NNM   20220906151602    1W    00000180000000625000000000032M8    PMPEMI  000000000000IT22A009
BI00B32M8    PM22111TMW     202210051801W003952              IVSSH 0.5F P             CCN000014400000014400FN00000000020221101000014400NNM   20220906151602    1W    00000180000000625000000000032M8    PMPEMI  000000000000IT329009
BI00B32M8    PM22112TMW     202210121801W003952              IVSSH 0.5F P             CCN000016200000016200FN00000000020221101000016200NNM   20220906151602    1W    00000180000000625000000000032M8    PMPEMI  000000000000IT429009
BI00B32M8    PM22113TMW     202210191801W003952              IVSSH 0.5F P             CCN000014400000014400FN00000000020221101000014400NNM   20220906151602    1W    00000180000000625000000000032M8    PMPEMI  000000000000IT12A009
BI00B32M8    PM22114TMW     202210261801W003952              IVSSH 0.5F P             CCN000021600000021600FN00000000020221101000021600NNM   20220906151602    1W    00000180000000625000000000032M8    PMPEMI  000000000000IT22A008
