AE00TI102209060506/09/202200000000800000000000000005990KGM  00000008619KGM  7114-4100-02             TERMINAL                 7114410002               0         0         0         0    0    0    00014400000001800000000034000048960000
AE00TI102209060506/09/202200000000800000000000000007212KGM  00000009841KGM  7114-4110-02             TERMINAL                 7114411002               0         0         0         0    0    0    00012000000001500000000049000058800000
AE00TI102209060506/09/202200000001700000000000000008670KGM  00000013671KGM  7114-4728-02             TERMINAL                 7114472802               0         0         0         0    0    0    00051000000003000000000014000071400000
AE00TI102209060506/09/202200000000900000000000000006237KGM  00000008831KGM  7116-4114-02             TERMINAL                 7116411402               0         0         0         0    0    0    00009450000001050000000059000055755000
AE00TI102209060506/09/202200000001600000000000000008280KGM  00000012891KGM  7116-4116-02             TERMINAL                 7116411602               0         0         0         0    0    0    00011040000000690000000062000068448000
AE00TI102209060506/09/202200000002000000000000000013446KGM  00000019150KGM  7126-8850-02             TERMINAL                 7126885002               0         0         0         0    0    0    00018000000000900000000058000104400000
AE00TI102209060506/09/202200000001500000000000000011097KGM  00000015375KGM  7126-8851-02             TERMINAL                 7126885102               0         0         0         0    0    0    00013500000000900000000060000081000000
AE00TI102209060506/09/202200000001500000000000000001493KGM  00000003743KGM  7140-1977-30             UPPER COVER              7140197730               0         0         0         0    0    0    00000015000000001000002698000004047000
AE00TI102209060506/09/202200000000100000000000000000911KGM  00000001131KGM  7286-3885-40             CONNECTOR MALE ASS'Y     7286388540               0         0         0         0    0    0    00000120000000120000000313000003756000
AE00TI102209060506/09/202200000000500000000000000005148KGM  00000006248KGM  7287-3885-30             HYBRID FEMALE ASS'Y      7287388530               0         0         0         0    0    0    00001200000000240000000215000025800000
AE00TI102209060506/09/202200000000200000000000000001373KGM  00000001803KGM  7289-3342                HOUSING FEMALE ASS'Y     72893342                 0         0         0         0    0    0    00000480000000240000000186000008928000
AE00TI102209060506/09/202200000000400000000000000002746KGM  00000003606KGM  7289-3342-90             HOUSING FEMALE ASS'Y     7289334290               0         0         0         0    0    0    00000960000000240000000196000018816000
AE00TI102209060506/09/202200000000700000000000000000000KGM  00000000000KGM  7470-4815E1              J/B COMPLETE ASS'Y       74704815E1               0         0         0         0    0    0    00000007000000001000000000000000000000
AE00TI102209060506/09/202200000001800000000000000000000KGM  00000000000KGM  7470-5308E               J/B COMPLETE ASS'Y       74705308E                0         0         0         0    0    0    00000018000000001000000000000000000000
AE00TI102209060506/09/202200000001300000000000000000000KGM  00000000000KGM  7470-5784D               J/B COMPLETE ASS'Y       74705784D                0         0         0         0    0    0    00000019500000001500000000000000000000
AE00TI102209060506/09/202200000001200000000000000000000KGM  00000000000KGM  7470-5784E1              J/B COMPLETE ASS'Y       74705784E1               0         0         0         0    0    0    00000012000000001000000000000000000000
AE00TI102209060506/09/202200000000800000000000000000000KGM  00000000000KGM  7470-5936D               J/B COMPLETE ASS'Y       74705936D                0         0         0         0    0    0    00000012000000001500000000000000000000
AE00TI102209060606/09/202200000002700000000000000008926KGM  00000010422KGM  7158-3006-90             RUBBER STOPPER           7158300690               0         0         0         0    0    0    00054000000002000000000016000086400000
AE00TI102209060606/09/202200000001300000000000000004394KGM  00000005021KGM  7158-3009-60             RUBBER STOPPER           7158300960               0         0         0         0    0    0    00026000000002000000000012000031200000
AE00TI102209060606/09/202200000000800000000000000003740KGM  00000004192KGM  7158-3022-80             RUBBER STOPPER           7158302280               0         0         0         0    0    0    00004000000000500000000070000028000000
AE00TI102209060606/09/202200000000700000000000000000868KGM  00000001207KGM  7158-3165-90             WIRE SEAL                7158316590               0         0         0         0    0    0    00028000000004000000000006000016800000
AE00TI102209060606/09/202200000001300000000000000001352KGM  00000001981KGM  7158-3166-60             WIRE SEAL                7158316660               0         0         0         0    0    0    00052000000004000000000004000020800000
AE00TI102209060606/09/202200000000800000000000000000384KGM  00000000771KGM  7158-3167-61             WIRE SEAL                7158316761               0         0         0         0    0    0    00016000000002000000000005000008000000
AE00TI102209060606/09/202200000003000000000000000001440KGM  00000003270KGM  7158-3167-80             WIRE SEAL                7158316780               0         0         0         0    0    0    00060000000002000000000005000030000000
AE00TI102209060606/09/202200000001200000000000000000528KGM  00000001105KGM  7158-3168-80             SEALED                   7158316880               0         0         0         0    0    0    00024000000002000000000004000009600000
AE00TI102209060606/09/202200000000500000000000000000780KGM  00000001021KGM  7158-3169-40             SEALING PLUG             7158316940               0         0         0         0    0    0    00020000000004000000000006000012000000
AE00TI102209060606/09/202200000001500000000000000016479KGM  00000019479KGM  7270-8994                6P MODULE ASSEMBLY       72708994                 0         0         0         0    0    0    00000150000000010000017952000269280000
AE00TI102209060606/09/202200000000200000000000000001732KGM  00000002022KGM  7288-3329-30             HOUSING MALE             7288332930               0         0         0         0    0    0    00000300000000150000000354000010620000
AE00TI102209060606/09/202200000000200000000000000001734KGM  00000002024KGM  7288-3334-30             HOUSING MALE             7288333430               0         0         0         0    0    0    00000300000000150000000354000010620000
AE00TI102209060606/09/202200000000200000000000000001734KGM  00000002024KGM  7288-3335-30             HOUSING MALE             7288333530               0         0         0         0    0    0    00000300000000150000000354000010620000
AE00TI102209060606/09/202200000001300000000000000015669KGM  00000017424KGM  7288-6547                CONNECTOR MALE ASS'Y     72886547                 0         0         0         0    0    0    00000975000000075000001125000109687500
AE00TI102209060606/09/202200000000700000000000000004805KGM  00000006310KGM  7289-3342                HOUSING FEMALE ASS'Y     72893342                 0         0         0         0    0    0    00001680000000240000000186000031248000
AE00TI102209060606/09/202200000000800000000000000005491KGM  00000007211KGM  7289-3342-30             HOUSING FEMALE ASS'Y     7289334230               0         0         0         0    0    0    00001920000000240000000191000036672000
AE00TI102209060606/09/202200000000400000000000000004687KGM  00000005474KGM  7289-5011-30             HOUSING FEMALE ASS'Y     7289501130               0         0         0         0    0    0    00000960000000240000000333000031968000
AE00TI102209060606/09/202200000000100000000000000000829KGM  00000001049KGM  7289-6518-30             HOUSING FEMALE ASS'Y     7289651830               0         0         0         0    0    0    00000120000000120000000598000007176000
AE00TI102209060606/09/202200000000100000000000000000839KGM  00000001119KGM  7289-6868-30             SEALED ASSY FEMALE       7289686830               0         0         0         0    0    0    00000252000000252000000332000008366400
AE00TI102209060606/09/202200000000200000000000000002216KGM  00000003041KGM  7289-9553-50             SEALED ASSY FEMALE       7289955350               0         0         0         0    0    0    00000588000000294000000252000014817600
AE00TI102209060606/09/202200000000100000000000000001097KGM  00000001359KGM  7298-4094-10             HOUSING FEMALE ASS'Y     7298409410               0         0         0         0    0    0    00000338000000338000000241000008145800
AE00TI102209060606/09/202200000002400000000000000020890KGM  00000030240KGM  7370-0309                J/B ASS'Y                73700309                 0         0         0         0    0    0    00000038400000001600028585000109766400
AE00TI102209060606/09/202200000002400000000000000017808KGM  00000026928KGM  7388-2978-30             HOUSING MALE ASS'Y       7388297830               0         0         0         0    0    0    00001152000000048000001790000206208000
AE00TI102209060606/09/202200000001800000000000000023760KGM  00000028260KGM  7470-4481                J/B COMPLETE ASS'Y       74704481                 0         0         0         0    0    0    00000043200000002400000000000000000000
AE00TI102209060606/09/202200000001800000000000000023760KGM  00000028260KGM  7470-5237                J/B ASS'Y                74705237                 0         0         0         0    0    0    00000043200000002400031359000135470880
AE00TI102209060606/09/202200000004400000000000000000000KGM  00000000000KGM  7470-5301                J/B COMPLETE ASS'Y       74705301                 0         0         0         0    0    0    00000044000000001000000000000000000000
AE00TI102209060606/09/202200000001800000000000000000000KGM  00000000000KGM  7470-5308E               J/B COMPLETE ASS'Y       74705308E                0         0         0         0    0    0    00000018000000001000000000000000000000
