AE00TO202209060206/09/202200000007200000000000000075357KGM  00000078876KGM  18000004530              AV 8 B                   AV 8 B                   0         0         0         0    0    0    00000000000072000000000211100015199200
AE00TO202209060206/09/202200000004200000000000000043958KGM  00000046011KGM  18000004540              AV 8 W                   AV 8 W                   0         0         0         0    0    0    00000000000042000000000211100008866200
AE00TO202209060206/09/202200000001100000000000000011696KGM  00000012233KGM  18007704230              AVSS 2F B                AVSS 2F B                0         0         0         0    0    0    00000000000055000000000050600002783000
AE00TO202209060206/09/202200000000200000000000000002392KGM  00000002490KGM  18009604443              AVS 5 W/B                AVS 5 W/B                0         0         0         0    0    0    00000000000004000000000137600000550400
AE00TO202209060206/09/202200000000900000000000000010125KGM  00000010565KGM  1801W003950              IVSSH 05F R              IVSSH 05F R              0         0         0         0    0    0    00000000000162000000000015400002494800
AE00TO202209060206/09/202200000002300000000000000025875KGM  00000026999KGM  1801W003990              IVSSH 05F L              IVSSH 05F L              0         0         0         0    0    0    00000000000414000000000015400006375600
AE00TO202209060206/09/202200000000100000000000000001150KGM  00000001199KGM  1801W004250              IVSSH 2F R               IVSSH 2F R               0         0         0         0    0    0    00000000000005500000000055500000305250
AE00TO202209060206/09/202200000000800000000000000009040KGM  00000009431KGM  1801W006940              IVSSH 035F W             IVSSH 035F W             0         0         0         0    0    0    00000000000200000000000011400002280000
AE00TO202209060206/09/202200000001700000000000000019210KGM  00000020042KGM  1801W006941              IVSSH 035F GY            IVSSH 035F GY            0         0         0         0    0    0    00000000000425000000000011400004845000
AE00TO202209060206/09/202200000001700000000000000019210KGM  00000020041KGM  1801W006943              IVSSH 035F W/B           IVSSH 035F W/B           0         0         0         0    0    0    00000000000425000000000011400004845000
AE00TO202209060206/09/202200000002500000000000000028250KGM  00000029473KGM  1801W006950              IVSSH 035F R             IVSSH 035F R             0         0         0         0    0    0    00000000000625000000000011400007125000
AE00TO202209060206/09/202200000001500000000000000016950KGM  00000017684KGM  1801W006961              IVSSH 035F LG            IVSSH 035F LG            0         0         0         0    0    0    00000000000375000000000011400004275000
AE00TO202209060206/09/202200000003500000000000000039550KGM  00000041261KGM  1801W006990              IVSSH 035F L             IVSSH 035F L             0         0         0         0    0    0    00000000000875000000000011400009975000
AE00TO202209060206/09/202200000001400000000000000015820KGM  00000016505KGM  1801W006991              IVSSH 035F SB            IVSSH 035F SB            0         0         0         0    0    0    00000000000350000000000011400003990000
AE00TO202209060206/09/202200000000600000000000000006780KGM  00000007073KGM  1801W006992              IVSSH 035F V             IVSSH 035F V             0         0         0         0    0    0    00000000000150000000000011400001710000
AE00TO202209060206/09/202200000000100000000000000001034KGM  00000001082KGM  180D0203907              AVSSH 05F P/B            AVSSH 05F P/B            0         0         0         0    0    0    00000000000015000000000016300000244500
AE00TO202209060206/09/202200000002000000000000000020671KGM  00000021647KGM  180D0203930              AVSSH 05F B              AVSSH 05F B              0         0         0         0    0    0    00000000000300000000000016300004890000
AE00TO202209060206/09/202200000000100000000000000001034KGM  00000001082KGM  180D0203934              AVSSH 05F B/W            AVSSH 05F B/W            0         0         0         0    0    0    00000000000015000000000016300000244500
AE00TO202209060206/09/202200000000200000000000000002067KGM  00000002165KGM  180D0203937              AVSSH 05F B/Y            AVSSH 05F B/Y            0         0         0         0    0    0    00000000000030000000000016300000489000
AE00TO202209060206/09/202200000000800000000000000008269KGM  00000008659KGM  180D0203940              AVSSH 05F W              AVSSH 05F W              0         0         0         0    0    0    00000000000120000000000016300001956000
AE00TO202209060206/09/202200000000100000000000000001034KGM  00000001082KGM  180D0203943              AVSSH 05F W/B            AVSSH 05F W/B            0         0         0         0    0    0    00000000000015000000000016300000244500
AE00TO202209060206/09/202200000001100000000000000011369KGM  00000011906KGM  180D0203950              AVSSH 05F R              AVSSH 05F R              0         0         0         0    0    0    00000000000165000000000016300002689500
AE00TO202209060206/09/202200000000300000000000000003101KGM  00000003247KGM  180D0203952              AVSSH 05F P              AVSSH 05F P              0         0         0         0    0    0    00000000000045000000000016300000733500
AE00TO202209060206/09/202200000000500000000000000005168KGM  00000005412KGM  180D0203960              AVSSH 05F G              AVSSH 05F G              0         0         0         0    0    0    00000000000075000000000016300001222500
AE00TO202209060206/09/202200000000100000000000000001034KGM  00000001082KGM  180D0203961              AVSSH 05F LG             AVSSH 05F LG             0         0         0         0    0    0    00000000000015000000000016300000244500
AE00TO202209060206/09/202200000000300000000000000003101KGM  00000003247KGM  180D0203964              AVSSH 05F G/W            AVSSH 05F G/W            0         0         0         0    0    0    00000000000045000000000016300000733500
AE00TO202209060206/09/202200000000200000000000000002067KGM  00000002165KGM  180D0203970              AVSSH 05F Y              AVSSH 05F Y              0         0         0         0    0    0    00000000000030000000000016300000489000
AE00TO202209060206/09/202200000000200000000000000002068KGM  00000002164KGM  180D0203980              AVSSH 05F BR             AVSSH 05F BR             0         0         0         0    0    0    00000000000030000000000016300000489000
AE00TO202209060206/09/202200000000900000000000000009302KGM  00000009742KGM  180D0203992              AVSSH 05F V              AVSSH 05F V              0         0         0         0    0    0    00000000000135000000000016300002200500
AE00TO202209060206/09/202200000008700000000000000073727KGM  00000077981KGM  181AD2001ZZ              CIVUSAS-S 035X1 B        CIVUSAS-S 035X1 B        0         0         0         0    0    0    00000000000478500000000034200016364700
AE00TO202209060206/09/202200000006000000000000000046270KGM  00000049203KGM  181AD2002ZZ              CIVUSAS-S 035X2 B        CIVUSAS-S 035X2 B        0         0         0         0    0    0    00000000000270000000000043700011799000
AE00TO202209060206/09/202200000000100000000000000000789KGM  00000000838KGM  181B0911611              CAVSAS 03X2 GY/L         CAVSAS 03X2 GY/L         0         0         0         0    0    0    00000000000003500000000047400000165900
AE00TO202209060206/09/202200000003000000000000000021091KGM  00000022559KGM  181E48031ZZ              CAVSAS-S 03X2 GY         CAVSAS-S 03X2 GY         0         0         0         0    0    0    00000000000105000000000045900004819500
AE00TO202209060206/09/202200000000300000000000000002109KGM  00000002256KGM  181E48032ZZ              CAVSAS-S 03X2 GY/P       CAVSAS-S 03X2 GY/P       0         0         0         0    0    0    00000000000010500000000045900000481950
AE00TO202209060206/09/202200000000300000000000000002109KGM  00000002256KGM  181E48040ZZ              CAVSAS-S 03X2 GY/V       CAVSAS-S 03X2 GY/V       0         0         0         0    0    0    00000000000010500000000045900000481950
AE00TO202209060206/09/202200000001500000000000000011459KGM  00000012191KGM  181E50005ZZ              AVSSCS-S 05FX1 DGY/W     AVSSCS-S 05FX1 DGY/W     0         0         0         0    0    0    00000000000060000000000050400003024000
AE00TO202209060206/09/202200000000200000000000000001528KGM  00000001626KGM  181E50006ZZ              AVSSCS-S 05FX1 DGY/Y     AVSSCS-S 05FX1 DGY/Y     0         0         0         0    0    0    00000000000008000000000050400000403200
AE00TO202209060206/09/202200000001900000000000000014514KGM  00000015443KGM  181E50007ZZ              AVSSCS-S 05FX1 DGY/L     AVSSCS-S 05FX1 DGY/L     0         0         0         0    0    0    00000000000076000000000050400003830400
AE00TO202209060206/09/202200000003700000000000000030201KGM  00000032010KGM  181E50027ZZ              AVSSCS-S 05FX3 DGY/G     AVSSCS-S 05FX3 DGY/G     0         0         0         0    0    0    00000000000092500000000091500008463750
AE00TO202209060206/09/202200000000200000000000000001516KGM  00000001613KGM  181E50036ZZ              AVSSCS-S 03FX2 DGY       AVSSCS-S 03FX2 DGY       0         0         0         0    0    0    00000000000007000000000059400000415800
AE00TO202209060206/09/202200000000500000000000000003817KGM  00000004061KGM  181F21002ZZ              AVSSHCS-S 05FX1 B        AVSSHCS-S 05FX1 B        0         0         0         0    0    0    00000000000020000000000053700001074000
