AE00TI102209060306/09/202200000000900000000000000006624KGM  00000008568KGM  7154-5597-30             CASSETTE R/B             7154559730               0         0         0         0    0    0    00000720000000080000000255000018360000
AE00TI102209060306/09/202200000000700000000000000001750KGM  00000002142KGM  7158-3003-90             RUBBER STOPPER           7158300390               0         0         0         0    0    0    00014000000002000000000012000016800000
AE00TI102209060306/09/202200000000100000000000000000960KGM  00000001246KGM  7182-2410                CONNECTOR HOUSING        71822410                 0         0         0         0    0    0    00000120000000120000000187000002244000
AE00TI102209060306/09/202200000000900000000000000005018KGM  00000007410KGM  7183-1616                CONNECTOR HOUSING        71831616                 0         0         0         0    0    0    00002160000000240000000077000016632000
AE00TI102209060306/09/202200000000100000000000000000558KGM  00000000837KGM  7183-1616-30             CONNECTOR HOUSING        7183161630               0         0         0         0    0    0    00000240000000240000000082000001968000
AE00TI102209060306/09/202200000000600000000000000008971KGM  00000010626KGM  7183-2416                HOUSING                  71832416                 0         0         0         0    0    0    00001440000000240000000171000024624000
AE00TI102209060306/09/202200000000300000000000000002917KGM  00000003726KGM  7183-2511                HOUSING                  71832511                 0         0         0         0    0    0    00000480000000160000000160000007680000
AE00TI102209060306/09/202200000000200000000000000001428KGM  00000001825KGM  7183-8927                HOUSING                  71838927                 0         0         0         0    0    0    00000800000000400000000131000010480000
AE00TI102209060306/09/202200000000100000000000000000760KGM  00000001024KGM  7187-3356                JOINT CONNECTOR          71873356                 0         0         0         0    0    0    00000120000000120000001038000012456000
AE00TI102209060306/09/202200000000800000000000000004782KGM  00000005770KGM  7198-1371                HOUSING FEMALE           71981371                 0         0         0         0    0    0    00001600000000200000000107000017120000
AE00TI102209060306/09/202200000000100000000000000000598KGM  00000000721KGM  7198-1371-60             HOUSING FEMALE           7198137160               0         0         0         0    0    0    00000200000000200000000121000002420000
AE00TI102209060306/09/202200000000800000000000000006858KGM  00000007962KGM  7198-1372-60             HOUSING FEMALE           7198137260               0         0         0         0    0    0    00001600000000200000000149000023840000
AE00TI102209060306/09/202200000000700000000000000005753KGM  00000006632KGM  7198-1373                HOUSING FEMALE           71981373                 0         0         0         0    0    0    00001400000000200000000115000016100000
AE00TI102209060306/09/202200000004000000000000000009592KGM  00000019592KGM  7271-1820-30             CASE SUB ASSY,ECU        7271182030               0         0         0         0    0    0    00000072000000001800009576000068947200
AE00TI102209060306/09/202200000000800000000000000003664KGM  00000004644KGM  7282-1024                HOUSING MALE             72821024                 0         0         0         0    0    0    00000800000000100000000534000042720000
AE00TI102209060306/09/202200000000600000000000000004696KGM  00000005956KGM  7282-4578                HOUSING MALE ASS'Y       72824578                 0         0         0         0    0    0    00000720000000120000000255000018360000
AE00TI102209060306/09/202200000000300000000000000003190KGM  00000003850KGM  7282-4855                HOUSING MALE ASS'Y       72824855                 0         0         0         0    0    0    00000360000000120000000347000012492000
AE00TI102209060306/09/202200000000200000000000000000460KGM  00000000678KGM  7282-5528-70             HOUSING MALE ASS'Y       7282552870               0         0         0         0    0    0    00000200000000100000000434000008680000
AE00TI102209060306/09/202200000000100000000000000000838KGM  00000001058KGM  7283-4578                HOUSING FEMALE ASS'Y     72834578                 0         0         0         0    0    0    00000240000000240000000190000004560000
AE00TI102209060306/09/202200000000200000000000000001908KGM  00000002208KGM  7283-5830-30             CONNECTOR                7283583030               0         0         0         0    0    0    00001200000000600000000155000018600000
AE00TI102209060306/09/202200000000200000000000000002756KGM  00000003373KGM  7283-5833                CONNECTOR HOUSING        72835833                 0         0         0         0    0    0    00000728000000364000000252000018345600
AE00TI102209060306/09/202200000000500000000000000004445KGM  00000005660KGM  7283-5843                CONNECTOR                72835843                 0         0         0         0    0    0    00000750000000150000000280000021000000
AE00TI102209060306/09/202200000000400000000000000001776KGM  00000002425KGM  7283-5845                CONNECTOR HOUSING        72835845                 0         0         0         0    0    0    00002400000000600000000133000031920000
AE00TI102209060306/09/202200000000100000000000000000444KGM  00000000606KGM  7283-5845-30             CONNECTOR HOUSING        7283584530               0         0         0         0    0    0    00000600000000600000000133000007980000
AE00TI102209060306/09/202200000000100000000000000000444KGM  00000000606KGM  7283-5845-40             CONNECTOR HOUSING        7283584540               0         0         0         0    0    0    00000600000000600000000133000007980000
AE00TI102209060306/09/202200000000100000000000000000914KGM  00000001143KGM  7283-6120                CONNECTOR HOUSING        72836120                 0         0         0         0    0    0    00000150000000150000000368000005520000
AE00TI102209060306/09/202200000000100000000000000000350KGM  00000000463KGM  7283-8721-30             HOUSING FEMALE ASS'Y     7283872130               0         0         0         0    0    0    00000100000000100000000415000004150000
AE00TI102209060306/09/202200000000600000000000000005464KGM  00000006784KGM  7286-3885                CONNECTOR MALE ASS'Y     72863885                 0         0         0         0    0    0    00000720000000120000000295000021240000
AE00TI102209060306/09/202200000000500000000000000004553KGM  00000005653KGM  7286-3885-40             CONNECTOR MALE ASS'Y     7286388540               0         0         0         0    0    0    00000600000000120000000313000018780000
AE00TI102209060306/09/202200000000100000000000000000667KGM  00000000923KGM  7287-1915                CONNECTOR ASS'Y          72871915                 0         0         0         0    0    0    00000240000000240000000161000003864000
AE00TI102209060306/09/202200000000100000000000000001061KGM  00000001313KGM  7287-1917                CONNECTOR FEMALE         72871917                 0         0         0         0    0    0    00000240000000240000000253000006072000
AE00TI102209060306/09/202200000000400000000000000004243KGM  00000005250KGM  7287-1917-30             CONNECTOR FEMALE         7287191730               0         0         0         0    0    0    00000960000000240000000261000025056000
AE00TI102209060306/09/202200000000300000000000000003089KGM  00000003749KGM  7287-3885                HYBRID FEMALE ASS'Y      72873885                 0         0         0         0    0    0    00000720000000240000000207000014904000
AE00TI102209060306/09/202200000000300000000000000003089KGM  00000003749KGM  7287-3885-40             HYBRID FEMALE ASS'Y      7287388540               0         0         0         0    0    0    00000720000000240000000216000015552000
AE00TI102209060306/09/202200000000200000000000000001486KGM  00000001706KGM  7287-7022                CONNECTOR FEMALE         72877022                 0         0         0         0    0    0    00000240000000120000000982000023568000
AE00TI102209060306/09/202200000000500000000000000005832KGM  00000006932KGM  7287-8073                HOUSING FEMALE ASS'Y     72878073                 0         0         0         0    0    0    00001200000000240000000244000029280000
AE00TI102209060306/09/202200000000200000000000000001788KGM  00000002370KGM  7287-9234                JOINT CONNECTOR          72879234                 0         0         0         0    0    0    00001920000000960000000137000026304000
AE00TI102209060306/09/202200000001100000000000000004264KGM  00000008664KGM  7288-3206                HOUSING MALE ASS'Y       72883206                 0         0         0         0    0    0    00001122000000102000000351000039382200
AE00TI102209060306/09/202200000000400000000000000003464KGM  00000004044KGM  7288-3329-30             HOUSING MALE             7288332930               0         0         0         0    0    0    00000600000000150000000354000021240000
AE00TI102209060306/09/202200000000100000000000000000867KGM  00000001012KGM  7288-3334-30             HOUSING MALE             7288333430               0         0         0         0    0    0    00000150000000150000000354000005310000
AE00TI102209060306/09/202200000000100000000000000000867KGM  00000001012KGM  7288-3335-30             HOUSING MALE             7288333530               0         0         0         0    0    0    00000150000000150000000354000005310000
AE00TI102209060306/09/202200000000300000000000000002601KGM  00000003036KGM  7288-3339-30             HOUSING MALE             7288333930               0         0         0         0    0    0    00000450000000150000000354000015930000
AE00TI102209060306/09/202200000001000000000000000012053KGM  00000013403KGM  7288-6547                CONNECTOR MALE ASS'Y     72886547                 0         0         0         0    0    0    00000750000000075000001125000084375000
AE00TI102209060306/09/202200000001000000000000000006864KGM  00000009014KGM  7289-3342                HOUSING FEMALE ASS'Y     72893342                 0         0         0         0    0    0    00002400000000240000000186000044640000
AE00TI102209060306/09/202200000003500000000000000024024KGM  00000031549KGM  7289-3342-30             HOUSING FEMALE ASS'Y     7289334230               0         0         0         0    0    0    00008400000000240000000191000160440000
AE00TI102209060306/09/202200000001700000000000000011669KGM  00000015324KGM  7289-3342-40             HOUSING FEMALE ASS'Y     7289334240               0         0         0         0    0    0    00004080000000240000000192000078336000
AE00TI102209060306/09/202200000001300000000000000008923KGM  00000011718KGM  7289-3342-90             HOUSING FEMALE ASS'Y     7289334290               0         0         0         0    0    0    00003120000000240000000196000061152000
AE00TI102209060306/09/202200000000600000000000000005480KGM  00000006332KGM  7289-4696-30             HOUSING FEMALE ASS'Y     7289469630               0         0         0         0    0    0    00001200000000200000000410000049200000
AE00TI102209060306/09/202200000000900000000000000010368KGM  00000012258KGM  7289-6547                HOUSING FEMALE ASS'Y     72896547                 0         0         0         0    0    0    00002160000000240000000229000049464000
AE00TI102209060306/09/202200000000100000000000000000839KGM  00000001119KGM  7289-6868-30             SEALED ASSY FEMALE       7289686830               0         0         0         0    0    0    00000252000000252000000332000008366400
AE00TI102209060306/09/202200000000100000000000000000533KGM  00000000729KGM  7298-2457-90             LIF FEMALE ASSEMBLY      7298245790               0         0         0         0    0    0    00000016800000016800001464000002459520
AE00TI102209060306/09/202200000000100000000000000001097KGM  00000001359KGM  7298-4094-10             HOUSING FEMALE ASS'Y     7298409410               0         0         0         0    0    0    00000338000000338000000241000008145800
