BI00A1200    7360T52706     202207227288-3337-30             HOUSING MALE             CCN000009000000009000FN00000000020220801000009000NNE   20220721121659    4N0N  0000015000000086700000101201200    YCYC    005400370024
BI00B1200    7360T52705     202208117288-3337-30             HOUSING MALE             CCN000003000000003000FN00000000020220901000003000NNE   20220721121659    4N0N  0000015000000086700000101201200    YCYC    005400370024
BI00B1200    7360T52707     202208187288-3337-30             HOUSING MALE             CCN000010500000010500FN00000000020220901000010500NNE   20220721121659    4N0N  0000015000000086700000101201200    YCYC    005400370024
BI00B1200    H722L50002     202211247282-5553-10             CONNECTOR                CCN000001000000001000FN00000000020221201000001000NNE   20220721121659    4N0N  0000010000000101800000118301200    YCYC    005500360039
BI00B1200    O022I50459     202209227298-1187-30             SHUNT RING ASSEMBLY      CCN000060000000060000FN00000000020221001000060000NNE   20220721121659    4N0N  0000100000000064700000076951200    YCYC    005400370024
BI00B1200    O022J50025     202209227116-4100-02             TERMINAL                 CCN000090000000090000FN00000000020221001000090000NNE   20220721121659    4P0P  0000150000000069600000099021200    YCYC    006400630015
BI00B1200    O022J50026     202209227116-4100-02             TERMINAL                 CCN000090000000090000FN00000000020221001000090000NNE   20220721121659    4P0P  0000150000000069600000099021200    YCYC    006400630015
BI00B1200    O022J50027     202209227116-4100-02             TERMINAL                 CCN000060000000060000FN00000000020221001000060000NNE   20220721121659    4P0P  0000150000000069600000099021200    YCYC    006400630015
BI00A1200    CE22-MN-0085   202207267196-0550-02             TERMINAL ALUMINIUM       CCN000032000000032000FN00000000020220701000032000NNE   20220721154329    4P0P  0000320000000051520000090161200    YCYC    006400630017
BI00A1200    CE22-MN-0085   202207267195-0547-02             TERMINAL ALUMINIUM       CCN000025500000025500FN00000000020220701000025500NNE   20220721154329    4P0P  0000255000000041820000076021200    YCYC    006400630015
BI00B32AF    JTB2093        202208117195-1464-02             TERMINAL MALE            CCN000025500000025500FN00000000020220901000025500NNMD0020220721144835    4P0P  00002550000000420800000706032AF    HBYHVTB 006400630015
BI00B32AG    XG22092CMW     202208057327-6832-60             MAIN FUSE                CCN000006600000006600FN00000000020220901000006600NNMD0020220721121659    4N0N  00000060000000729200000930732AG    XGXGY   005400370024
BI00B32AG    XG22093CMW     202208117327-6832-60             MAIN FUSE                CCN000006000000006000FN00000000020220901000006000NNMD0020220721121659    4N0N  00000060000000729200000930732AG    XGXGY   005400370024
BI00B32AG    XG22094CMW     202208197327-6832-60             MAIN FUSE                CCN000007800000007800FN00000000020220901000007800NNMD0020220721121659    4N0N  00000060000000729200000930732AG    XGXGY   005400370024
BI00B32AG    XG2209BIMW     202208267388-0317-60             CONNECTOR ASS'Y          CCN000001200000001200FN00000000020220901000001200NNE   20220721133149    4N0N  00000120000001034400001129332AG    XGXGY   005400370024
BI00B32AG    XG2209CLMW     202208267283-5843                CONNECTOR                CCN000001500000001500FN00000000020220901000001500NNE   20220721133205    1N0N  00000150000000889000001132032AG    XGXGY   005600390040
BI00B32AG    XG2209CLMW     202208267388-0314                CONNECTOR ASS'Y          CCN000001200000001200FN00000000020220901000001200NNE   20220721133205    4N0N  00000120000001038000001132332AG    XGXGY   005400370024
BI00A32B6    TAP13C09A      202207267196-1460-02             TERMINAL FEMALE          CCN000028500000028500FN00000000020220701000028500NNED0720220721150828B6  4P0P  00002850000000444600000729832B6    AXARNE-M006400630015
BI00B32DJ    GHT2209B 1     202207277116-4486-02             TERMINAL                 CCN000308000000308000FY00030800020220901000000000NNM00020220721152535    4P0P  00002800000000666400000995132DJ    RBYIPLRB006400630017
BI00A32DJ    GHT2209B 2     202207267116-4486-02             TERMINAL                 CCN000028000000028000FN00000000020220901000028000NNMM0020220721152842    4P0P  00002800000000666400000995132DJ    RBYIPLRB006400630017
BI00B32DJ    #GHT2209B 1    202207277183-2414-30             CONNECTOR HOUSING        CCN000019200000014400FN00000000020220901000014400NNMQ0020220721143659    2F0F  00000480000000779500001061532DJ    RBYIPLRB005500360039
BI00A32DJ    #GHT2209B 1    202207267183-2414-30             CONNECTOR HOUSING        CCN000004800000004800FN00000000020220901000004800NNMM0020220721145139    2F0F  00000480000000779500001061532DJ    RBYIPLRB005500360039
BI00A32DJ    GHT2209B 1     202207267116-4486-02             TERMINAL                 CCN000084000000000000FY00000000020220901000000000NNMM0020220721152112    4P0P  00002800000000666400000995132DJ    RBYIPLRB006400630017
BI00B32EJ    T220720P01     202209017116-4025                TERMINAL                 CCN000016000000016000FN00000000020220901000016000NNE   20220721121659EJ  4P0P  00001600000000644800000975132EJ    EJYKBO  006400630017
BI00B32EJ    T220720P01     202209017116-4104-02             TERMINAL                 CCN000012000000012000FN00000000020220901000012000NNE   20220721121659EJ  4P0P  00001200000000580800000972432EJ    EJYKBO  006400630015
BI00B32EJ    T220720P01     202209017116-4102-02             TERMINAL                 CCN000012000000012000FN00000000020220901000012000NNE   20220721121659EJ  4P0P  00001200000000553200000841432EJ    EJYKBO  006400630015
BI00B32EJ    T220720P01     202209017283-1968-30             CONNECTOR                CCN000003600000003600FN00000000020220901000003600NNE   20220721121659EJ  1N0N  00000090000001140000001318332EJ    EJYKBO  005600390040
BI00B32EJ    T220720P01     202209017116-4124-02             TERMINAL                 CCN000030000000030000FN00000000020220901000030000NNE   20220721121659EJ  4P0P  00000300000000459900000753532EJ    EJYKBO  006400630015
BI00B32EJ    T220720P01     202209017196-1461-06             TERMINAL FEMALE          CCN000048000000048000FN00000000020220901000048000NNE   20220721121659EJ  4P0P  00002400000000386400000692932EJ    EJYKBO  006400630015
BI00B32EJ    T220720P01     202209017114-4110-02             TERMINAL                 CCN000030000000030000FN00000000020220901000030000NNE   20220721121659EJ  4P0P  00001500000000901500001230132EJ    EJYKBO  006400630017
BI00B32EJ    T220720P01     202209017114-4112-02             TERMINAL                 CCN000018000000018000FN00000000020220901000018000NNE   20220721121659EJ  4P0P  00000900000000598500000927132EJ    EJYKBO  006400630017
BI00B32EJ    T220720P01     202209017114-4100-02             TERMINAL                 CCN000036000000036000FN00000000020220901000036000NNE   20220721121659EJ  4P0P  00001800000000748800001077432EJ    EJYKBO  006400630017
BI00B32EJ    T220720P01     202209017116-4100-02             TERMINAL                 CCN000015000000015000FN00000000020220901000015000NNE   20220721121659EJ  4P0P  00001500000000696000000990232EJ    EJYKBO  006400630015
BI00B32EJ    T220720P01     202209017116-4122-02             TERMINAL                 CCN000049500000049500FN00000000020220901000049500NNE   20220721121659EJ  4P0P  00000450000000656600000950232EJ    EJYKBO  006400630015
BI00B32EJ    T220720P01     202209017116-4121-02             TERMINAL                 CCN000013500000013500FN00000000020220901000013500NNE   20220721121659EJ  4P0P  00000450000000618800000912432EJ    EJYKBO  006400630015
BI00B32EJ    T220720P01     202209017116-4112-02             TERMINAL                 CCN000030000000030000FN00000000020220901000030000NNE   20220721121659EJ  4P0P  00000600000000450000000738232EJ    EJYKBO  006400630015
BI00B32EJ    T220720P01     202209017116-4110-02             TERMINAL                 CCN000027000000027000FN00000000020220901000027000NNE   20220721121659EJ  4P0P  00000900000000594000000882232EJ    EJYKBO  006400630015
BI00B32EJ    T220720P01     202209017116-4111-02             TERMINAL                 CCN000015000000015000FN00000000020220901000015000NNE   20220721121659EJ  4P0P  00000750000000529500000817732EJ    EJYKBO  006400630015
BI00B32EJ    T220720P01     202209017158-3166-60             WIRE SEAL                CCN000800000000800000FN00000000020220901000800000NNE   20220721121659EJ  1C0C  00004000000000104000000152432EJ    EJYKBO  002700430014
BI00B32EJ    T220720P01     202209017158-3167-80             WIRE SEAL                CCN000700000000700000FN00000000020220901000700000NNE   20220721121659EJ  1C0C  00002000000000048000000109032EJ    EJYKBO  002700430014
BI00B32EJ    T220720P01     202209017158-3168-80             SEALED                   CCN000020000000020000FN00000000020220901000020000NNE   20220721121659EJ  1C0C  00002000000000044000000092132EJ    EJYKBO  004300260014
BI00B32EJ    T220720P01     202209017158-3169-40             SEALING PLUG             CCN000160000000160000FN00000000020220901000160000NNE   20220721121659EJ  1C0C  00004000000000156000000204132EJ    EJYKBO  004300260014
BI00B32EJ    T220720P01     202209017158-3167-61             WIRE SEAL                CCN000020000000020000FN00000000020220901000020000NNE   20220721121659EJ  1C0C  00002000000000048000000096432EJ    EJYKBO  004300270014
BI00B32EJ    #T220720P01    202209017158-3120-90             CONNECTOR WIRE SEAL      CCN000140000000140000FN00000000020220901000140000NNE   20220721121659EJ  2C0C  00002000000000136000000194032EJ    EJYKBO  002700430014
BI00B32EJ    #T220720P01    202209017157-3992-90             CONNECTOR SEALED         CCN000080000000080000FN00000000020220901000080000NNE   20220721121659EJ  2C0C  00004000000000300000000363332EJ    EJYKBO  002700430014
BI00B32EJ    #T220720P01    202209017158-3374-90             CONNECTOR WIRE SEAL      CCN000020000000020000FN00000000020220901000020000NNE   20220721121659EJ  2H0H  00002000000000172000000229332EJ    EJYKBO  002700430014
BI00B32EJ    #T220720P01    202209017123-6423-30             CONNECTOR                CCN000002000000002000FN00000000020220901000002000NNE   20220721121659EJ  2F0F  00000200000001002000001167632EJ    EJYKBO  005600390023
BI00B32EJ    #T220720P01    202209017282-6458-40             CONNECTOR                CCN000001000000001000FN00000000020220901000001000NNE   20220721121659EJ  2N0N  00000100000001206000001350532EJ    EJYKBO  005500360039
BI00B32EJ    #T220720P01    202209017157-3952-80             RUBBER STOPPER           CCN000020000000020000FN00000000020220901000020000NNE   20220721121659EJ  2C0C  00001000000000117000000175032EJ    EJYKBO  002700430014
BI00B32EJ    @T220720P01    202209017123-4312-80             HOUSING                  CCN000000800000000800FN00000000020220901000000800NNE   20220721121659EJ  3F0F  00000080000000644200000794032EJ    EJYKBO  005500360039
BI00B32GE    DHTC2242       202208257114-4032                TERMINAL                 CCN000052500000052500FN00000000020221001000052500NNM   20220721121659    4P0P  00000750000000735000001063632GE    GEYKHT  006400630017
BI00B32GE    DHTC2242       202208257114-4231-02             TERMINAL                 CCN000018000000018000FN00000000020221001000018000NNM   20220721121659    4P0P  00001800000000554400000848032GE    GEYKHT  006400630015
BI00B32GE    DHTC2242       202208257114-4624-02             TERMINAL                 CCN000024000000024000FN00000000020221001000024000NNM   20220721121659    4P0P  00002400000000895200001188832GE    GEYKHT  006400630015
BI00B32GE    DHTC2242       202208257114-5748-02             TERMINAL                 CCN000156000000156000FN00000000020221001000156000NNM   20220721121659    4P0P  00001200000000444000000737632GE    GEYKHT  006400630015
BI00B32GE    DHTC2242       202208257114-5753-02             TERMINAL                 CCN000378000000378000FN00000000020221001000378000NNM   20220721121659    4P0P  00002700000000847800001141432GE    GEYKHT  006400630015
BI00B32GE    DHTC2242       202208257116-1685-02             TERMINAL                 CCN000072000000072000FN00000000020221001000072000NNM   20220721121659    4P0P  00002400000000897600001065232GE    GEYKHT  005100280028
BI00B32GE    DHTC2242       202208257116-2891-02             TERMINAL                 CCN000150000000150000FN00000000020221001000150000NNM   20220721121659    4P0P  00001500000000982500001145932GE    GEYKHT  005100280028
BI00B32GE    DHTC2242       202208257116-4110-02             TERMINAL                 CCN000036000000036000FN00000000020221001000036000NNM   20220721121659    4P0P  00000900000000594000000882232GE    GEYKHT  006400630015
BI00B32GE    DHTC2242       202208257116-4112-02             TERMINAL                 CCN000060000000060000FN00000000020221001000060000NNM   20220721121659    4P0P  00000600000000450000000738232GE    GEYKHT  006400630015
BI00B32GE    DHTC2242       202208257116-4486-02             TERMINAL                 CCN000336000000336000FN00000000020221001000336000NNM   20220721121659    4P0P  00002800000000666400000995132GE    GEYKHT  006400630017
BI00B32GE    DHTC2242       202208257116-5045-02             TERMINAL                 CCN000176000000176000FN00000000020221001000176000NNM   20220721121659    4P0P  00001600000000678400001007132GE    GEYKHT  006400630017
BI00B32GE    DHTC2242       202208257126-8853-02             TERMINAL                 CCN000247500000247500FN00000000020221001000247500NNM   20220721121659    4P0P  00000750000000562500000847732GE    GEYKHT  006400630015
BI00B32GE    DHTC2242       202208257126-8854-02             TERMINAL                 CCN000180000000180000FN00000000020221001000180000NNM   20220721121659    4P0P  00000750000000604500000889732GE    GEYKHT  006400630015
BI00B32GE    DHTC2242       202208257126-8855-02             TERMINAL                 CCN000240000000240000FN00000000020221001000240000NNM   20220721121659    4P0P  00000600000000510600000795832GE    GEYKHT  006400630015
BI00B32GE    DHTC2242       202208257158-3070-80             RUBBER STOPPER           CCN000160000000160000FN00000000020221001000160000NNM   20220721121659    1C0C  00004000000000276000000333332GE    GEYKHT  002700430014
BI00B32GE    DHTC2242       202208257158-3166-60             WIRE SEAL                CCN000080000000080000FN00000000020221001000080000NNM   20220721121659    1C0C  00004000000000104000000152432GE    GEYKHT  002700430014
BI00B32GE    DHTC2242       202208257158-3167-80             WIRE SEAL                CCN000020000000020000FN00000000020221001000020000NNM   20220721121659    1C0C  00002000000000048000000109032GE    GEYKHT  002700430014
BI00B32GE    DHTC2242       202208257173-3291-40             LIF LEVER                CCN000012000000012000FN00000000020221001000012000NNM   20220721121659    1F0F  00000240000000867800001067832GE    GEYKHT  005500360039
BI00B32GE    DHTC2242       202208257196-0396-02             TERMINAL                 CCN000030000000030000FN00000000020221001000030000NNM   20220721121659    4P0P  00001500000000949500001112932GE    GEYKHT  002800510028
BI00B32GE    DHTC2242       202208257196-0510-02             TERMINAL                 CCN000048000000048000FN00000000020221001000048000NNM   20220721121659    4P0P  00002400000000871200001034632GE    GEYKHT  002800510028
BI00B32GE    DHTC2242       202208257196-1325-02             TERMINAL FEMALE          CCN000420000000420000FN00000000020221001000420000NNM   20220721121659    4P0P  00006000000000450000000778732GE    GEYKHT  006400630017
BI00B32GE    DHTC2242       202208257196-1326-02             TERMINAL FEMALE          CCN000900000000900000FN00000000020221001000900000NNM   20220721121659    4P0P  00006000000000456000000784732GE    GEYKHT  006400630017
BI00B32GE    DHTC2242       202208257196-1327-02             TERMINAL FEMALE          CCN000052000000052000FN00000000020221001000052000NNM   20220721121659    4P0P  00005200000000336000000739532GE    GEYKHT  006400630017
BI00B32GE    DHTC2242       202208257282-4576                HOUSING MALE ASS'Y       CCN000014400000014400FN00000000020221001000014400NNM   20220721121659    4N0N  00000240000000808800001028832GE    GEYKHT  005500360039
BI00B32GE    DHTC2242       202208257283-1156                CONNECTOR                CCN000005600000005600FN00000000020221001000005600NNM   20220721121659    4N0N  00000080000000877600001078032GE    GEYKHT  005600390040
BI00B32GE    DHTC2242       202208257283-5830                CONNECTOR                CCN000006000000006000FN00000000020221001000006000NNM   20220721121659    1N47  00000600000000954000001104032GE    GEYKHT  005500360039
BI00B32GE    DHTC2242       202208257288-6547                CONNECTOR MALE ASS'Y     CCN000010500000010500FN00000000020221001000010500NNM   20220721121659    4N0N  00000075000001205300001340332GE    GEYKHT  005400370024
BI00B32GE    DHTC2242       202208257289-3342                HOUSING FEMALE ASS'Y     CCN000076800000076800FN00000000020221001000076800NNM   20220721121659    1N0N  00000240000000686400000901432GE    GEYKHT  005500360039
BI00B32GE    DHTC2242       202208257289-3342-30             HOUSING FEMALE ASS'Y     CCN000103200000103200FN00000000020221001000103200NNM   20220721121659    1N0N  00000240000000686400000901432GE    GEYKHT  005500360039
BI00B32GE    DHTC2242       202208257289-3342-40             HOUSING FEMALE ASS'Y     CCN000016800000016800FN00000000020221001000016800NNM   20220721121659    1N0N  00000240000000686400000901432GE    GEYKHT  005500360039
BI00B32GE    DHTC2242       202208257289-3342-90             HOUSING FEMALE ASS'Y     CCN000021600000021600FN00000000020221001000021600NNM   20220721121659    1N0N  00000240000000686400000901432GE    GEYKHT  005500360039
BI00B32GE    DHTC2242       202208257289-6518-30             HOUSING FEMALE ASS'Y     CCN000012000000012000FN00000000020221001000012000NNM   20220721121659    1N0N  00000120000000829200001049232GE    GEYKHT  005500360039
BI00B32GE    DHTC2242       202208257289-6547                HOUSING FEMALE ASS'Y     CCN000009600000009600FN00000000020221001000009600NNM   20220721121659    1N0N  00000240000001152000001362032GE    GEYKHT  005500360039
BI00B32GE    DHTC2242       202208257296-0784-02             TERMINAL ALUMINIUM       CCN000120000000120000FN00000000020221001000120000NNM   20220721121659    4P0P  00002400000000480000000765232GE    GEYKHT  006400630015
BI00B32GE    DHTC2242       202208257296-1020-02             TERMINAL ALUMINIUM       CCN000022500000022500FN00000000020221001000022500NNM   20220721121659    4P0P  00002250000000699800000985032GE    GEYKHT  006400630015
BI00B32GE    DHTC2242       202208257296-1024-02             TERMINAL ALUMINIUM       CCN000018000000018000FN00000000020221001000018000NNM   20220721121659    4P0P  00001800000000698400000983632GE    GEYKHT  006400630015
BI00B32GE    DHTC2242       202208257296-1025-02             TERMINAL ALUMINIUM       CCN000018000000018000FN00000000020221001000018000NNM   20220721121659    4P0P  00001800000000635400000920632GE    GEYKHT  006400630015
BI00B32GE    DHTC2242       202208257297-3482                JOINT CONNECTOR          CCN000023400000024000FN00000000020221001000024000NNM   20220721121659    4N0N  00000080000000621000000730532GE    GEYKHT  005400370024
BI00B32GE    DHTC2242       202208257298-3484                HOUSING FEMALE ASS'Y     CCN000016800000018900FN00000000020221001000018900NNM   20220721121659    4N0N  00000270000000742500001028732GE    GEYKHT  005400370024
BI00B32GE    DHTC2242       202208257298-3484-30             HOUSING FEMALE ASS'Y     CCN000006300000008100FN00000000020221001000008100NNM   20220721121659    4N0N  00000270000000742500001028732GE    GEYKHT  005400370024
BI00B32GE    DHTC2242       202208257327-6731-3W             BATTERY FUSE             CCN000001216000001216FN00000000020221001000001216NNM   20220721121659    4N0N  00000006400000697600000843032GE    GEYKHT  005400370024
BI00B32GE    DHTC2242       202208257327-6801-3W             BATTERY FUSE             CCN000002880000002880FN00000000020221001000002880NNM   20220721121659    4N0N  00000009600000928400001143432GE    GEYKHT  005500360039
BI00B32GE    DHTC2242       202208257327-6803                MULTI FUSE               CCN000000560000000560FN00000000020221001000000560NNM   20220721121659    4N0N  00000056000000854600001067032GE    GEYKHT  005400370024
BI00B32GE    DHTC2242       202208257327-6806                MULTI FUSE               CCN000002800000002800FN00000000020221001000002800NNM   20220721121659    4N0N  00000056000000851500001063932GE    GEYKHT  005400370024
BI00B32GE    DHTC2242       202208257327-6809                MULTI FUSE               CCN000006160000006160FN00000000020221001000006160NNM   20220721121659    4N0N  00000056000000849300001061732GE    GEYKHT  005400370024
BI00B32GE    DHTC2242       202208257327-6930                MULTI FUSE               CCN000002240000002240FN00000000020221001000002240NNM   20220721121659    4N0N  00000056000000848900001031932GE    GEYKHT  005400370024
BI00B32GE    DHTC2242       202208257327-6983-30             MAIN FUSE                CCN000000600000000600FN00000000020221001000000600NNM   20220721121659    4N0N  00000060000000748800000951532GE    GEYKHT  005400370024
BI00B32GE    DHTC2242       202208257327-6985-30             MULTI FUSE               CCN000000288000000288FN00000000020221001000000288NNM   20220721121659    4N0N  00000028800000886100001052032GE    GEYKHT  005400370024
BI00B32GE    DHTC2242       202208257327-6990-30             MULTI FUSE               CCN000000560000000560FN00000000020221001000000560NNM   20220721121659    4NON  00000056000000724000000907032GE    GEYKHT  005400370024
BI00B32GE    DHTC2242       202208257388-2978-30             HOUSING MALE ASS'Y       CCN000038880000038880FN00000000020221001000038880NNM   20220721121659    1N0N  00000048000000742000001122032GE    GEYKHT  005500360039
BI00B32GE    #DHTC2242      202208257047-5344                RETAINER                 CCN000010000000010000FN00000000020221001000010000NNM   20220721121659    2F0F  00001000000000870000001016032GE    GEYKHT  005600390023
BI00B32GE    #DHTC2242      202208257158-3003-90             RUBBER STOPPER           CCN000400000000400000FN00000000020221001000400000NNM   20220721121659    2C0C  00002000000000250000000306032GE    GEYKHT  002700430014
BI00B32GE    #DHTC2242      202208257158-3004-40             RUBBER STOPPER           CCN000020000000020000FN00000000020221001000020000NNM   20220721121659    2C0C  00002000000000234000000306332GE    GEYKHT  002700430014
BI00B32GE    #DHTC2242      202208257158-3005-80             RUBBER STOPPER           CCN000100000000100000FN00000000020221001000100000NNM   20220721121659    2H0H  00002000000000210000000268732GE    GEYKHT  002700430014
BI00B32GE    #DHTC2242      202208257158-3008-80             RUBBER STOPPER           CCN000160000000160000FN00000000020221001000160000NNM   20220721121659    2C0C  00002000000000288000000343032GE    GEYKHT  004300270014
BI00B32GE    #DHTC2242      202208257158-3015-10             RUBBER STOPPER           CCN000050000000050000FN00000000020221001000050000NNM   20220721121659    2C0C  00001000000000419500000474032GE    GEYKHT  002700430014
BI00B32GE    #DHTC2242      202208257158-3017                RUBBER STOPPER           CCN000080000000080000FN00000000020221001000080000NNM   20220721121659    2C0C  00001000000000375500000435032GE    GEYKHT  002700430014
BI00B32GE    #DHTC2242      202208257158-3374-90             CONNECTOR WIRE SEAL      CCN000020000000020000FN00000000020221001000020000NNM   20220721121659    2H0H  00002000000000172000000229332GE    GEYKHT  002700430014
BI00B32GE    #DHTC2242      202208257172-5625-90             RUBBER STOPPER           CCN000020000000020000FN00000000020221001000020000NNM   20220721121659    2H0H  00002000000000082400000133832GE    GEYKHT  004300270014
BI00B32GE    #DHTC2242      202208257172-5627-60             RUBBER STOPPER           CCN000020000000020000FN00000000020221001000020000NNM   20220721121659    2H0H  00002000000000070400000121832GE    GEYKHT  004300270014
BI00B32GE    #DHTC2242      202208257172-5629-80             RUBBER STOPPER           CCN000580000000580000FN00000000020221001000580000NNM   20220721121659    2H0H  00002000000000060000000111132GE    GEYKHT  004300270014
BI00B32GE    #DHTC2242      202208257172-5630-40             RUBBER STOPPER           CCN000420000000420000FN00000000020221001000420000NNM   20220721121659    2H0H  00002000000000044000000095132GE    GEYKHT  004300270014
BI00B32GE    #DHTC2242      202208257172-5631-60             RUBBER STOPPER           CCN000220000000220000FN00000000020221001000220000NNM   20220721121659    2H0H  00002000000000042000000093132GE    GEYKHT  004300270014
BI00B32GE    #DHTC2242      202208257172-5632-10             DUMMY PLUG               CCN000320000000320000FN00000000020221001000320000NNM   20220721121659    2H0H  00002000000000080400000131832GE    GEYKHT  004300270014
BI00B32GE    #DHTC2242      202208257183-2415-90             CONNECTOR HOUSING        CCN000004800000004800FN00000000020221001000004800NNM   20220721121659    2F0F  00000480000000798200001091432GE    GEYKHT  005500360039
BI00B32GE    #DHTC2242      202208257183-2418-30             CONNECTOR HOUSING        CCN000004800000004800FN00000000020221001000004800NNM   20220721121659    2F0F  00000480000000917000001235332GE    GEYKHT  005500360039
BI00B32GE    #DHTC2242      202208257183-7725-40             HOUSING                  CCN000006000000006000FN00000000020221001000006000NNM   20220721121659    2F0F  00000600000000840000001040032GE    GEYKHT  005600390040
BI00B32GE    #DHTC2242      202208257189-2978-30             HOUSING FEMALE           CCN000037500000037500FN00000000020221001000037500NNM   20220721121659    2F0F  00000150000000966900001096932GE    GEYKHT  005400370024
BI00B32GE    #DHTC2242      202208257189-3033                HOUSING FEMALE           CCN000022400000022400FN00000000020221001000022400NNM   20220721121659    2F0F  00000160000001211200001431232GE    GEYKHT  005500360039
BI00B32GE    #DHTC2242      202208257189-3036                HOUSING FEMALE           CCN000008000000008000FN00000000020221001000008000NNM   20220721121659    2F0F  00000160000000921600001141632GE    GEYKHT  005500360039
BI00B32GE    #DHTC2242      202208257189-3037-40             HOUSING FEMALE           CCN000004800000004800FN00000000020221001000004800NNM   20220721121659    2F0F  00000480000000901600001061632GE    GEYKHT  005500360039
BI00B32GE    #DHTC2242      202208257198-5394                HOUSING FEMALE           CCN000004800000004800FN00000000020221001000004800NNM   20220721121659    2F0F  00000480000000489700000688832GE    GEYKHT  005500360039
BI00B32GE    #DHTC2242      202208257282-1641                CONNECTOR                CCN000010000000010000FN00000000020221001000010000NNM   20220721121659    2N0N  00000200000000813000000986032GE    GEYKHT  005500360039
BI00B32GE    #DHTC2242      202208257289-2912-40             HOUSING FEMALE ASS'Y     CCN000006000000006000FN00000000020221001000006000NNM   20220721121659    2N0N  00000200000000804000000931032GE    GEYKHT  005400370024
BI00B32GE    #DHTC2242      202208257289-3622-30             HOUSING FEMALE ASS'Y     CCN000006048000006048FN00000000020221001000006048NNM   20220721121659    2N0N  00000043200000839400001038432GE    GEYKHT  005400370024
BI00B32GE    #DHTC2242      202208257289-4200-30             HOUSING FEMALE ASS'Y     CCN000006000000006000FN00000000020221001000006000NNM   20220721121659    2N0N  00000200000000926000001021032GE    GEYKHT  005400370024
BI00B32H2    TIJ2084        202207297283-7526-30             CONNECTOR HOUSING        CCN000001960000001960FN00000000020220801000001960NNMD0020220721121659    4N0N  00000196000000989800001248632H2    HVYHV   005500360039
BI00B32H2    TIJ208N        202207297287-8073                HOUSING FEMALE ASS'Y     CCN000002400000002400FN00000000020220801000002400NNED0020220721121659    1N0N  00000240000001166400001386432H2    HVYHV   005500360039
BI00B32H2    TIJ2091        202207297282-9391                HOUSING MALE ASS'Y       CCN000004800000004800FN00000000020220901000004800NNMD0020220721121659    4N0N  00000120000001017600001237632H2    HVYHV   005500360039
BI00B32H2    TIJ2091        202207297283-1289                CONNECTOR HOUSING        CCN000000600000000600FN00000000020220901000000600NNMD0020220721121659    1N0N  00000060000000676200000817632H2    HVYHV   005400370024
BI00B32H2    TIJ2093        202208197283-1289                CONNECTOR HOUSING        CCN000000600000000600FN00000000020220901000000600NNMD0020220721121659    1N0N  00000060000000676200000817632H2    HVYHV   005400370024
BI00B32H2    TIJ2094        202208197283-7526-30             CONNECTOR HOUSING        CCN000001960000001960FN00000000020220901000001960NNMD0020220721121659    4N0N  00000196000000989800001248632H2    HVYHV   005500360039
BI00B32H2    TIJ2092        202208117283-7526-40             CONNECTOR HOUSING        CCN000001960000001960FN00000000020220901000001960NNMD0020220721121659    4N0N  00000196000000989800001248632H2    HVYHV   005500360039
BI00B32H2    #TIJ2091       202208057189-3032                HOUSING FEMALE           CCN000001600000001600FN00000000020220901000001600NNMD0020220721141448    2F0F  00000160000000788400001018432H2    HVYHV   005500360039
BI00B32H2    #TIJ2092       202208057289-2912-30             HOUSING FEMALE ASS'Y     CCN000002000000002000FN00000000020220901000002000NNMD0020220721121659    2N0N  00000200000000804000000929032H2    HVYHV   005400370024
BI00T32H2    @TIJ2091-I     202208047183-2510-40             HOUSING                  CCN000003000000003000FN00000000020220901000003000NNMD0020220721121659    3F0F  00000300000001073400001173032H2    HVYHV   005400370024
BI00T32H2    @TIJ2091-I     202208047187-1769                HOUSING FEMALE           CCN000002000000002000FN00000000020220901000002000NNMD0020220721121659    3F0F  00000200000001035800001182032H2    HVYHV   005500360039
BI00T32H2    @TIJ2091-I     202208047282-1060                HOUSING SUB ASSEMBLY     CCN000001600000001600FN00000000020220901000001600NNMD0020220721121659    3N0N  00000160000000955500001169032H2    HVYHV   005500360039
BI00B32J1    396580         202208227114-6041                TERMINAL                 CCN000003600000003600FN00000000020220801000003600NNE   20220721121659    4P0P  00000360000000580700000824232J1    UKYEL-BL006400630015
BI00B32J1    396580         202208227235-8662                DOOR GROMMET             CCN000003680000003680FN00000000020220801000003680NNE   20220721121659    4N0N  00000016000000844000001010032J1    UKYEL-BL005500360039
BI00B32J1    396580         202208227370-0309                J/B ASS'Y                CCN000002144000002144FN00000000020220801000002144NNE   20220721121659    1J0J  00000001600000870400001260032J1    UKYEL-BL005500360039
BI00B32J1    #396580        202208227186-3971                CONNECTOR HOUSING        CCN000002400000002400FN00000000020220801000002400NNE   20220721121659    2F0F  00000240000001002200001191432J1    UKYEL-BL005500360039
BI00B32J1    #396580        202208227186-3975-80             CONNECTOR HOUSING        CCN000002400000002400FN00000000020220801000002400NNE   20220721121659    2F0F  00000240000001065100001236332J1    UKYEL-BL005500360039
BI00B32J1    #396580        202208227186-3976-60             CONNECTOR HOUSING        CCN000002400000002400FN00000000020220801000002400NNE   20220721121659    2F0F  00000240000001065100001236332J1    UKYEL-BL005500360039
BI00B32J1    #396580        202208227187-3356                JOINT CONNECTOR          CCN000003600000003600FN00000000020220801000003600NNE   20220721121659    2F0F  00000120000000759600001024432J1    UKYEL-BL005600390040
BI00B32J1    #396580        202208227187-3971                CONNECTOR HOUSING        CCN000002400000002400FN00000000020220801000002400NNE   20220721121659    2F0F  00000240000000928300001099532J1    UKYEL-BL005500360039
BI00B32J1    #396580        202208227187-3975-80             CONNECTOR HOUSING        CCN000002400000002400FN00000000020220801000002400NNE   20220721121659    2F0F  00000240000000915800001087032J1    UKYEL-BL005500360039
BI00B32J1    #396580        202208227187-3976-60             CONNECTOR HOUSING        CCN000002400000002400FN00000000020220801000002400NNE   20220721121659    2F0F  00000240000000902200001073332J1    UKYEL-BL005500360039
BI00B32J1    396581         202209057298-4094-10             HOUSING FEMALE ASS'Y     CCN000003380000003380FN00000000020220901000003380NNE   20220721121659    4N0N  00000338000001097400001358732J1    UKYEL-BL005400370024
BI00B32J1    #396581        202209057158-3121-80             WIRE SEAL                CCN000020000000020000FN00000000020220901000020000NNE   20220721121659    2C0C  00002000000000118000000187332J1    UKYEL-BL002700430014
BI00B32J1    #396581        202209057158-3376-50             CONNECTOR WIRE SEAL      CCN000020000000020000FN00000000020220901000020000NNE   20220721121659    2C0C  00002000000000184000000240732J1    UKYEL-BL002700430014
BI00B32J1    #396581        202209057183-7725-40             HOUSING                  CCN000012000000012000FN00000000020220901000012000NNE   20220721121659    2F0F  00000600000000840000001040032J1    UKYEL-BL005600390040
BI00B32J1    #396581        202209057282-6446-40             CONNECTOR                CCN000006000000006000FN00000000020220901000006000NNE   20220721121659    2N0N  00000150000001185000001368032J1    UKYEL-BL005500360039
BI00B32J1    #396581        202209057283-8226-30             CONNECTOR                CCN000002000000002000FN00000000020220901000002000NNE   20220721121659    2N0N  00000200000000820000001008032J1    UKYEL-BL005400370024
BI00B32J1    396623         202208157114-1475                TERMINAL                 CCN000027000000027000FN00000000020220801000027000NNM   20220721121659    4P0P  00001350000000480600000774232J1    UKYEL-BL006400630015
BI00B32J1    396623         202208157114-6041                TERMINAL                 CCN000003600000003600FN00000000020220801000003600NNM   20220721121659    4P0P  00000360000000580700000824232J1    UKYEL-BL006400630015
BI00B32J1    396623         202208157116-4020                TERMINAL                 CCN000054000000054000FN00000000020220801000054000NNM   20220721121659    4P0P  00001350000000513000000798232J1    UKYEL-BL006400630015
BI00B32J1    396623         202208157116-6042                TERMINAL                 CCN000009000000009000FN00000000020220801000009000NNM   20220721121659    4P0P  00000300000000523800000856132J1    UKYEL-BL006400630015
BI00B32J1    396623         202208157126-8850-02             TERMINAL                 CCN000027000000027000FN00000000020220801000027000NNM   20220721121659    1P0P  00000900000000672300000957532J1    UKYEL-BL006400630015
BI00B32J1    396623         202208157158-3006-90             RUBBER STOPPER           CCN000100000000100000FN00000000020220801000100000NNM   20220721121659    1C0C  00002000000000330600000386032J1    UKYEL-BL002700430014
BI00B32J1    396623         202208157158-3165-90             WIRE SEAL                CCN000920000000920000FN00000000020220801000920000NNM   20220721121659    1C0C  00004000000000124000000172432J1    UKYEL-BL004300270014
BI00B32J1    396623         202208157158-3166-60             WIRE SEAL                CCN002160000002160000FN00000000020220801002160000NNM   20220721121659    1C0C  00004000000000104000000152432J1    UKYEL-BL002700430014
BI00B32J1    396623         202208157158-3167-61             WIRE SEAL                CCN000280000000280000FN00000000020220801000280000NNM   20220721121659    1C0C  00002000000000048000000096432J1    UKYEL-BL004300270014
BI00B32J1    396623         202208157158-3167-80             WIRE SEAL                CCN002640000002640000FN00000000020220801002640000NNM   20220721121659    1C0C  00002000000000048000000109032J1    UKYEL-BL002700430014
BI00B32J1    396623         202208157158-3168-80             SEALED                   CCN002100000002100000FN00000000020220801002100000NNM   20220721121659    1C0C  00002000000000044000000092132J1    UKYEL-BL004300260014
BI00B32J1    396623         202208157196-1461-02             TERMINAL FEMALE          CCN000576000000576000FN00000000020220801000576000NNM   20220721121659    4P0P  00002400000000386400000671632J1    UKYEL-BL006400630015
BI00B32J1    396623         202208157196-1461-06             TERMINAL FEMALE          CCN000120000000120000FN00000000020220801000120000NNM   20220721121659    4P0P  00002400000000386400000692932J1    UKYEL-BL006400630015
BI00B32J1    396623         202208157196-1462-02             TERMINAL FEMALE          CCN000021000000021000FN00000000020220801000021000NNM   20220721121659    4P0P  00002100000000352800000638032J1    UKYEL-BL006400630015
BI00B32J1    396623         202208157282-5574-10             CONNECTOR                CCN000014400000014400FN00000000020220801000014400NNM   20220721121659    4N0N  00000080000001235000001423032J1    UKYEL-BL005600390040
BI00B32J1    396623         202208157282-5684-10             CONNECTOR                CCN000002400000002400FN00000000020220801000002400NNM   20220721121659    4N0N  00000120000001477000001656032J1    UKYEL-BL005600390040
BI00B32J1    396623         202208157282-6448-40             CONNECTOR                CCN000002400000002400FN00000000020220801000002400NNM   20220721121659    4N0N  00000080000000887000001152732J1    UKYEL-BL005600390040
BI00B32J1    396623         202208157282-6568-40             CONNECTOR                CCN000005000000005000FN00000000020220801000005000NNM   20220721121659    4N0N  00000100000001206000001370732J1    UKYEL-BL005500360039
BI00B32J1    396623         202208157283-1040                CONNECTOR                CCN000008000000008000FN00000000020220801000008000NNM   20220721121659    4N0N  00000200000000396000000670032J1    UKYEL-BL005600390040
BI00B32J1    396623         202208157283-1968-30             CONNECTOR                CCN000002700000002700FN00000000020220801000002700NNM   20220721121659    1N0N  00000090000001140000001318332J1    UKYEL-BL005600390040
BI00B32J1    396623         202208157283-5553-10             CONNECTOR                CCN000001000000001000FN00000000020220801000001000NNM   20220721121659    4N0N  00000100000001374000001658032J1    UKYEL-BL005600390040
BI00B32J1    396623         202208157283-5830                CONNECTOR                CCN000018000000018000FN00000000020220801000018000NNM   20220721121659    1N47  00000600000000954000001104032J1    UKYEL-BL005500360039
BI00B32J1    396623         202208157283-5846                HOUSING                  CCN000001500000001500FN00000000020220801000001500NNM   20220721121659    1N0N  00000150000000885000001102032J1    UKYEL-BL005600390040
BI00B32J1    396623         202208157283-6448-40             CONNECTOR                CCN000006000000006000FN00000000020220801000006000NNM   20220721121659    4N0N  00000150000001087000001329032J1    UKYEL-BL005600390040
BI00B32J1    396623         202208157283-8630                CONNECTOR ASS'Y          CCN000048000000048000FN00000000020220801000048000NNM   20220721121659    4N0N  00000600000000540000000701332J1    UKYEL-BL005400370024
BI00B32J1    396623         202208157288-5000                HOUSING MALE ASS'Y       CCN000002352000002352FN00000000020220801000002352NNM   20220721121659    1N0N  00000033600000825200001035232J1    UKYEL-BL005400370024
BI00B32J1    396623         202208157289-4696-30             HOUSING FEMALE ASS'Y     CCN000002000000002000FN00000000020220801000002000NNM   20220721121659    4N0N  00000200000000913400001055432J1    UKYEL-BL005400370024
BI00B32J1    396623         202208157289-5000                HOUSING FEMALE ASS'Y     CCN000002128000002128FN00000000020220801000002128NNM   20220721121659    1N0N  00000030400000549000000759032J1    UKYEL-BL005400370024
BI00B32J1    396623         202208157298-1868-80             HOUSING FEMALE ASS'Y     CCN000007200000007200FN00000000020220801000007200NNM   20220721121659    4N0N  00000240000001028600001243532J1    UKYEL-BL005500360039
BI00B32J1    396623         202208157298-1869-30             HOUSING FEMALE ASS'Y     CCN000080400000080400FN00000000020220801000080400NNM   20220721121659    4N0N  00000120000000737000000939832J1    UKYEL-BL005500360039
BI00B32J1    396623         202208157298-2278-30             HOUSING FEMALE ASS'Y     CCN000045600000045600FN00000000020220801000045600NNM   20220721121659    4N0N  00000240000001091700001295432J1    UKYEL-BL005500360039
BI00B32J1    396623         202208157298-2280-30             HOUSING FEMALE ASS'Y     CCN000009600000009600FN00000000020220801000009600NNM   20220721121659    4N0N  00000192000001068000001216032J1    UKYEL-BL005500360039
BI00B32J1    396623         202208157298-2507-30             HOUSING FEMALE ASS'Y     CCN000003600000003600FN00000000020220801000003600NNM   20220721121659    4N0N  00000120000000713200000914532J1    UKYEL-BL005500360039
BI00B32J1    396623         202208157298-2508-30             HOUSING FEMALE ASS'Y     CCN000004800000004800FN00000000020220801000004800NNM   20220721121659    4N0N  00000120000000822000001005032J1    UKYEL-BL005500360039
BI00B32J1    396623         202208157298-2509-30             HOUSING FEMALE ASS'Y     CCN000018000000018000FN00000000020220801000018000NNM   20220721121659    4N0N  00000120000000857500001062532J1    UKYEL-BL005500360039
BI00B32J1    #396623        202208157047-5344                RETAINER                 CCN000100000000100000FN00000000020220801000100000NNM   20220721121659    2F0F  00001000000000870000001016032J1    UKYEL-BL005600390023
BI00B32J1    #396623        202208157134-4547-30             COVER                    CCN000015000000015000FN00000000020220801000015000NNM   20220721121659    2F0F  00000250000000989000001156732J1    UKYEL-BL005600390040
BI00B32J1    #396623        202208157147-8717-30             CLIP                     CCN000010000000010000FN00000000020220801000010000NNM   20220721121659    2F0F  00000500000000660000000875032J1    UKYEL-BL005600390040
BI00B32J1    #396623        202208157158-3003-90             RUBBER STOPPER           CCN000060000000060000FN00000000020220801000060000NNM   20220721121659    2C0C  00002000000000250000000306032J1    UKYEL-BL002700430014
BI00B32J1    #396623        202208157158-3004-40             RUBBER STOPPER           CCN000060000000060000FN00000000020220801000060000NNM   20220721121659    2C0C  00002000000000234000000306332J1    UKYEL-BL002700430014
BI00B32J1    #396623        202208157158-3120-90             CONNECTOR WIRE SEAL      CCN000360000000360000FN00000000020220801000360000NNM   20220721121659    2C0C  00002000000000136000000194032J1    UKYEL-BL002700430014
BI00B32J1    #396623        202208157158-3121-80             WIRE SEAL                CCN000160000000160000FN00000000020220801000160000NNM   20220721121659    2C0C  00002000000000118000000187332J1    UKYEL-BL002700430014
BI00B32J1    #396623        202208157158-3375-80             CONNECTOR WIRE SEAL      CCN000020000000020000FN00000000020220801000020000NNM   20220721121659    2C0C  00002000000000156000000214332J1    UKYEL-BL002700430014
BI00B32J1    #396623        202208157174-1164                COVER                    CCN000002400000002400FN00000000020220801000002400NNM   20220721121659    2F0F  00000080000000592000000712032J1    UKYEL-BL005500360039
BI00B32J1    #396623        202208157183-7725-40             HOUSING                  CCN000006000000006000FN00000000020220801000006000NNM   20220721121659    2F0F  00000600000000840000001040032J1    UKYEL-BL005600390040
BI00B32J1    #396623        202208157282-3243-40             CONNECTOR                CCN000015200000015200FN00000000020220801000015200NNM   20220721121659    2N0N  00000080000001006000001282332J1    UKYEL-BL005600390040
BI00B32J1    #396623        202208157282-4192-40             CONNECTOR                CCN000037200000037200FN00000000020220801000037200NNM   20220721121659    2N0N  00000024000000801000001083732J1    UKYEL-BL005600390040
BI00B32J1    #396623        202208157282-5545-10             CONNECTOR                CCN000048000000048000FN00000000020220801000048000NNM   20220721121659    2N0N  00000080000001293600001465332J1    UKYEL-BL005500360039
BI00B32J1    #396623        202208157282-6446-40             CONNECTOR                CCN000013500000013500FN00000000020220801000013500NNM   20220721121659    2N0N  00000150000001185000001368032J1    UKYEL-BL005500360039
BI00B32J1    #396623        202208157282-6457-40             CONNECTOR                CCN000002400000002400FN00000000020220801000002400NNM   20220721121659    2N0N  00000080000001137000001421332J1    UKYEL-BL005600390040
BI00B32J1    #396623        202208157282-8395-40             CONNECTOR                CCN000005000000005000FN00000000020220801000005000NNM   20220721121659    2N0N  00000100000001009000001188032J1    UKYEL-BL005500360039
BI00B32J1    #396623        202208157283-4192-40             CONNECTOR                CCN000009840000009840FN00000000020220801000009840NNM   20220721121659    2N0N  00000024000000846000000986032J1    UKYEL-BL005600390040
BI00B32J1    #396623        202208157283-8226-30             CONNECTOR                CCN000010000000010000FN00000000020220801000010000NNM   20220721121659    2N0N  00000200000000820000001008032J1    UKYEL-BL005400370024
BI00B32J1    #396623        202208157283-8397-40             CONNECTOR                CCN000015400000015400FN00000000020220801000015400NNM   20220721121659    2N0N  00000154000001007000001222732J1    UKYEL-BL005600390023
BI00B32J1    #396623        202208157283-8398-40             CONNECTOR                CCN000038500000038500FN00000000020220801000038500NNM   20220721121659    2N0N  00000154000001007000001171332J1    UKYEL-BL005600390023
BI00B32J1    #396623        202208157297-1907-30             HOUSING MALE ASS'Y       CCN000010500000010500FN00000000020220801000010500NNM   20220721121659    2N0N  00000150000000451800000568032J1    UKYEL-BL005400370024
BI00B32N1    NST2120ECU     202207207157-6287-70             SPACER                   CCN000036000000070000FY00007000020220701000000000NNE00020220721115324    1F0F  00007000000000700000000963032N1    TAYIPL  005500360039
BI00B32N1    NST2121ICU     202208187158-3166-60             WIRE SEAL                CCN002080000002080000FN00000000020220901002080000NNED0220220721121659    1C0C  00004000000000104000000152432N1    TAYIPL  002700430014
BI00B32N1    NST2121E       202208047116-3153-02             TERMINAL FEMALE          CCN000027000000027000FN00000000020220901000027000NNM   20220721121659    4P0P  00002700000000459000000744232N1    TAYIPL  006400630015
BI00B32N1    NST2121E-1     202208187116-3153-02             TERMINAL FEMALE          CCN000027000000027000FN00000000020220901000027000NNE   20220721121659    4P0P  00002700000000459000000744232N1    TAYIPL  006400630015
BI00A32P8    #TAPI-2101     202207227187-3357-40             JOINT CONNECTOR          CCN000001200000001200FN00000000020221001000001200NNMM0020220721121659    2F0F  00000120000000762000001029232P8    YIYTM   005600390040
BI00B32R7    R-TAP220311    202208047116-4121-02             TERMINAL                 CCN000090000000090000FN00000000020220801000090000NNE   20220721121659    4P0P  00000450000000618800000912432R7    IVYCIC  006400630015
BI00A32U9    TP0406S        202207257298-1186-40             SQUIB SUB ASS'Y          CCN000040000000040000FN00000000020220801000040000NNEM0020220721121659U9  4N0N  00001000000000650000000774532U9    YNYNA-E 005400370024
BI00A32W4    4500191895     202208037283-1020                CONNECTOR                CCN000006000000006000FN00000000020220801000006000NNED0020220721160828W4P84N0N  00000600000000840000001049332W4P8  HJYHK-J 005600390040
BI00A32W4    4500191896     202208037283-1020                CONNECTOR                CCN000006000000006000FN00000000020220801000006000NNED0020220721160843W4P84N0N  00000600000000840000001049332W4P8  HJYHK-J 005600390040
BI00A32W4    4500195076     202208037283-1020                CONNECTOR                CCN000006000000006000FN00000000020220801000006000NNED0020220721160859W4P84N0N  00000600000000840000001049332W4P8  HJYHK-J 005600390040
BI00A32W4    4500195077     202208037283-1020                CONNECTOR                CCN000006000000006000FN00000000020220801000006000NNED0020220721160912W4P84N0N  00000600000000840000001049332W4P8  HJYHK-J 005600390040
BI00B32W4    4500197104     202209087116-4111-02             TERMINAL                 CCN000007500000007500FN00000000020220901000007500NNE   20220721121659W4A24P0P  00000750000000529500000817732W4A2  HJYHK-J 006400630015
BI00B32W4    #4500197104    202209087147-3642-30             CLIP                     CCN000012000000012000FN00000000020220901000012000NNE   20220721121659W4A22F0F  00000300000000542000000721332W4A2  HJYHK-J 005600390040
BI00B32W4    #4500197104    202209087283-4190-30             CONNECTOR                CCN000002160000002160FN00000000020220901000002160NNE   20220721121659W4A22N0N  00000024000000846000001115532W4A2  HJYHK-J 005600390040
BI00B32W4    #4500197105    202209157283-8226-30             CONNECTOR                CCN000004000000004000FN00000000020220901000004000NNE   20220721121659W4A22N0N  00000200000000820000001008032W4A2  HJYHK-J 005400370024
BI00B32W4    4500197106     202209227116-4103-02             TERMINAL                 CCN000012000000012000FN00000000020220901000012000NNE   20220721121659W4A24P0P  00001200000000571200000859432W4A2  HJYHK-J 006400630015
BI00B32W4    4500197106     202209227158-3169-40             SEALING PLUG             CCN000040000000040000FN00000000020220901000040000NNE   20220721121659W4A21C0C  00004000000000156000000204132W4A2  HJYHK-J 004300260014
BI00B32W4    4500197106     202209227116-4102-02             TERMINAL                 CCN000024000000024000FN00000000020220901000024000NNE   20220721121659W4A24P0P  00001200000000553200000841432W4A2  HJYHK-J 006400630015
BI00B32W4    4500197106     202209227116-4031                TERMINAL                 CCN000007500000007500FN00000000020220901000007500NNE   20220721121659W4A24P0P  00000750000000619500000904732W4A2  HJYHK-J 006400630015
BI00B32W4    4500197106     202209227116-4110-02             TERMINAL                 CCN000009000000009000FN00000000020220901000009000NNE   20220721121659W4A24P0P  00000900000000594000000882232W4A2  HJYHK-J 006400630015
BI00B32W4    4500197106     202209227116-4112-02             TERMINAL                 CCN000006000000006000FN00000000020220901000006000NNE   20220721121659W4A24P0P  00000600000000450000000738232W4A2  HJYHK-J 006400630015
BI00B32W4    4500197114     202209227116-4025                TERMINAL                 CCN000016000000016000FN00000000020220901000016000NNE   20220721121659W4464P0P  00001600000000644800000975132W446  HJYHK   006400630017
BI00B32W4    4500197114     202209227158-3166-60             WIRE SEAL                CCN000040000000040000FN00000000020220901000040000NNE   20220721121659W4461C0C  00004000000000104000000152432W446  HJYHK   002700430014
BI00B32W4    4500197114     202209227116-4104-02             TERMINAL                 CCN000012000000012000FN00000000020220901000012000NNE   20220721121659W4464P0P  00001200000000580800000972432W446  HJYHK   006400630015
BI00B32W4    4500197114     202209227116-4103-02             TERMINAL                 CCN000012000000012000FN00000000020220901000012000NNE   20220721121659W4464P0P  00001200000000571200000859432W446  HJYHK   006400630015
BI00A32W4    4500197123     202209197116-4100-02             TERMINAL                 CCN000030000000030000FN00000000020220901000030000NNE   20220721121659W4O24P0P  00001500000000696000000990232W4O2  HJYHK-J 006400630015
BI00A32W4    4500197123     202209197116-4112-02             TERMINAL                 CCN000018000000018000FN00000000020220901000018000NNE   20220721121659W4O24P0P  00000600000000450000000738232W4O2  HJYHK-J 006400630015
BI00A32W4    4500197123     202209197116-4102-02             TERMINAL                 CCN000744000000744000FN00000000020220901000744000NNE   20220721121659W4O24P0P  00001200000000553200000841432W4O2  HJYHK-J 006400630015
BI00A32W4    4500197123     202209197283-7028-30             CONNECTOR                CCN000009000000009000FN00000000020220901000009000NNE   20220721121659W4O24N0N  00000300000001452000001681332W4O2  HJYHK-J 005600390040
BI00A32W4    4500197123     202209197158-3167-80             WIRE SEAL                CCN000060000000060000FN00000000020220901000060000NNE   20220721121659W4O21C0C  00002000000000048000000109032W4O2  HJYHK-J 002700430014
BI00A32W4    4500197123     202209197116-4110-02             TERMINAL                 CCN000090000000090000FN00000000020220901000090000NNE   20220721121659W4O24P0P  00000900000000594000000882232W4O2  HJYHK-J 006400630015
BI00A32W4    4500197123     202209197116-4103-02             TERMINAL                 CCN000252000000252000FN00000000020220901000252000NNE   20220721121659W4O24P0P  00001200000000571200000859432W4O2  HJYHK-J 006400630015
BI00A32W4    4500197123     202209197116-6042                TERMINAL                 CCN000015000000015000FN00000000020220901000015000NNE   20220721121659W4O24P0P  00000300000000523800000856132W4O2  HJYHK-J 006400630015
BI00B32W4    4500197128     202209227116-4100-02             TERMINAL                 CCN000045000000045000FN00000000020220901000045000NNE   20220721121659W4664P0P  00001500000000696000000990232W466  HJYHK   006400630015
BI00B32W4    4500197128     202209227116-4026                TERMINAL                 CCN000016000000016000FN00000000020220901000016000NNE   20220721121659W4664P0P  00001600000000664000000994332W466  HJYHK   006400630017
BI00B32W4    4500197128     202209227114-4110-02             TERMINAL                 CCN000015000000015000FN00000000020220901000015000NNE   20220721121659W4664P0P  00001500000000901500001230132W466  HJYHK   006400630017
BI00B32W4    4500197128     202209227114-4112-02             TERMINAL                 CCN000081000000081000FN00000000020220901000081000NNE   20220721121659W4664P0P  00000900000000598500000927132W466  HJYHK   006400630017
BI00B32W4    #4500197128    202209227282-4190-30             CONNECTOR                CCN000002400000002400FN00000000020220901000002400NNE   20220721121659W4662N0N  00000024000000801000001071332W466  HJYHK   005600390040
BI00B32W4    #4500197128    202209227283-4190-30             CONNECTOR                CCN000002640000002640FN00000000020220901000002640NNE   20220721121659W4662N0N  00000024000000846000001115532W466  HJYHK   005600390040
BI00B32W4    4500197134     202209157116-6042                TERMINAL                 CCN000003000000003000FN00000000020220901000003000NNE   20220721121659W4174P0P  00000300000000523800000856132W417  HJYHK   006400630015
BI00B32W4    4500197135     202209227283-5843                CONNECTOR                CCN000001500000001500FN00000000020220901000001500NNE   20220721121659W4171N0N  00000150000000889000001132032W417  HJYHK   005600390040
BI00B32W4    #4500197135    202209227183-8927                HOUSING                  CCN000004000000004000FN00000000020220901000004000NNE   20220721121659W4172F0F  00000400000000714000000912732W417  HJYHK   005500360039
BI00B32W4    #4500197135    202209227282-3020                CONNECTOR                CCN000001000000001000FN00000000020220901000001000NNE   20220721121659W4172N0N  00000100000000984000001145432W417  HJYHK   005500360039
BI00B32W4    #4500197135    202209227157-3821                RUBBER STOPPER           CCN000020000000020000FN00000000020220901000020000NNE   20220721121659W4172C0C  00002000000000176000000238032W417  HJYHK   002700430014
BI00B32W4    #4500197136    202210067147-3642-30             CLIP                     CCN000024000000024000FN00000000020221001000024000NNE   20220721121659W4172F0F  00000300000000542000000721332W417  HJYHK   005600390040
BI00A32W4    @4500197145    202209057183-8049                CONNECTOR HOUSING        CCN000008000000008000FN00000000020220901000008000NNE   20220721121659W4493F0F  00000400000000583600000740032W449  HJYHK   005400370024
BI00A32W4    4500197147     202209127116-4022                TERMINAL                 CCN000027000000027000FN00000000020220901000027000NNE   20220721121659W4494P0P  00001350000000618300000903532W449  HJYHK   006400630015
BI00A32W4    4500197148     202210217116-4100-02             TERMINAL                 CCN000015000000015000FN00000000020221001000015000NNE   20220721121659W4494P0P  00001500000000696000000990232W449  HJYHK   006400630015
BI00A32W4    4500197150     202209267116-4111-02             TERMINAL                 CCN000007500000007500FN00000000020220901000007500NNE   20220721121659W4494P0P  00000750000000529500000817732W449  HJYHK   006400630015
BI00A32W4    #4500197150    202209267183-2414                CONNECTOR HOUSING        CCN000004800000004800FN00000000020220901000004800NNE   20220721121659W4492F0F  00000480000000779200001061032W449  HJYHK   005500360039
BI00A32W4    @4500197152    202209197183-8049                CONNECTOR HOUSING        CCN000004000000004000FN00000000020220901000004000NNE   20220721121659W4493F0F  00000400000000583600000740032W449  HJYHK   005400370024
BI00B32W4    4500197153     202208257158-3166-60             WIRE SEAL                CCN001000000001000000FN00000000020220801001000000NNE   20220721121659W4B71C0C  00004000000000104000000152432W4B7  HJYHK-J 002700430014
BI00B32W4    4500197153     202208257158-3169-40             SEALING PLUG             CCN001000000001000000FN00000000020220801001000000NNE   20220721121659W4B71C0C  00004000000000156000000204132W4B7  HJYHK-J 004300260014
BI00B32W4    4500197153     202208257158-3167-80             WIRE SEAL                CCN001000000001000000FN00000000020220801001000000NNE   20220721121659W4B71C0C  00002000000000048000000109032W4B7  HJYHK-J 002700430014
BI00B32W4    4500197153     202208257158-3168-80             SEALED                   CCN001000000001000000FN00000000020220801001000000NNE   20220721121659W4B71C0C  00002000000000044000000092132W4B7  HJYHK-J 004300260014
BI00B32W4    4500197160     202209227116-4111-02             TERMINAL                 CCN000030000000030000FN00000000020220901000030000NNE   20220721121659W4654P0P  00000750000000529500000817732W465  HJYHK   006400630015
BI00B32W4    4500197160     202209227116-4112-02             TERMINAL                 CCN000102000000102000FN00000000020220901000102000NNE   20220721121659W4654P0P  00000600000000450000000738232W465  HJYHK   006400630015
BI00B32W4    4500197160     202209227116-4102-02             TERMINAL                 CCN000180000000180000FN00000000020220901000180000NNE   20220721121659W4654P0P  00001200000000553200000841432W465  HJYHK   006400630015
BI00B32W4    4500197160     202209227114-4111-02             TERMINAL                 CCN000036000000036000FN00000000020220901000036000NNE   20220721121659W4654P0P  00001200000000758400001087032W465  HJYHK   006400630017
BI00B32W4    4500197160     202209227158-3169-40             SEALING PLUG             CCN000040000000040000FN00000000020220901000040000NNE   20220721121659W4651C0C  00004000000000156000000204132W465  HJYHK   004300260014
BI00B32W4    4500197160     202209227116-4101-02             TERMINAL                 CCN000084000000084000FN00000000020220901000084000NNE   20220721121659W4654P0P  00001200000000582000000876232W465  HJYHK   006400630015
BI00B32W4    4500197160     202209227114-4101-02             TERMINAL                 CCN000030000000030000FN00000000020220901000030000NNE   20220721121659W4654P0P  00001500000000675000001003632W465  HJYHK   006400630017
BI00B32W4    4500197160     202209227116-4104-02             TERMINAL                 CCN000012000000012000FN00000000020220901000012000NNE   20220721121659W4654P0P  00001200000000580800000972432W465  HJYHK   006400630015
BI00B32W4    4500197160     202209227114-4110-02             TERMINAL                 CCN000030000000030000FN00000000020220901000030000NNE   20220721121659W4654P0P  00001500000000901500001230132W465  HJYHK   006400630017
BI00B32W4    4500197160     202209227116-4110-02             TERMINAL                 CCN000045000000045000FN00000000020220901000045000NNE   20220721121659W4654P0P  00000900000000594000000882232W465  HJYHK   006400630015
BI00B32W4    4500197160     202209227116-4103-02             TERMINAL                 CCN000096000000096000FN00000000020220901000096000NNE   20220721121659W4654P0P  00001200000000571200000859432W465  HJYHK   006400630015
BI00B32W4    4500197160     202209227196-1461-06             TERMINAL FEMALE          CCN000024000000024000FN00000000020220901000024000NNE   20220721121659W4654P0P  00002400000000386400000692932W465  HJYHK   006400630015
BI00B32W4    #4500197160    202209227158-3003-90             RUBBER STOPPER           CCN000020000000020000FN00000000020220901000020000NNE   20220721121659W4652C0C  00002000000000250000000306032W465  HJYHK   002700430014
BI00B32W4    #4500197161    202210067289-4104-40             HOUSING FEMALE ASS'Y     CCN000013000000013000FN00000000020221001000013000NNE   20220721121659W4652NON  00000050000000606900000821132W465  HJYHK   005400370024
BI00B32W4    #4500197171    202208087157-7812                SEAL RUBBER              CCN000080000000080000FN00000000020220801000080000NNE   20220721121659W4Q12C0C  00001000000000137000000202032W4Q1  SCYHK-J 002700430014
BI00B32W4    4500197172     202209227116-4100-02             TERMINAL                 CCN000180000000180000FN00000000020220901000180000NNE   20220721121659W4164P0P  00001500000000696000000990232W416  HJYHK   006400630015
BI00B32W4    4500197172     202209227116-4111-02             TERMINAL                 CCN000007500000007500FN00000000020220901000007500NNE   20220721121659W4164P0P  00000750000000529500000817732W416  HJYHK   006400630015
BI00B32W4    4500197172     202209227116-4112-02             TERMINAL                 CCN000042000000042000FN00000000020220901000042000NNE   20220721121659W4164P0P  00000600000000450000000738232W416  HJYHK   006400630015
BI00B32W4    4500197172     202209227116-4102-02             TERMINAL                 CCN000048000000048000FN00000000020220901000048000NNE   20220721121659W4164P0P  00001200000000553200000841432W416  HJYHK   006400630015
BI00B32W4    4500197172     202209227114-4100-02             TERMINAL                 CCN000126000000126000FN00000000020220901000126000NNE   20220721121659W4164P0P  00001800000000748800001077432W416  HJYHK   006400630017
BI00B32W4    4500197172     202209227116-4026                TERMINAL                 CCN000016000000016000FN00000000020220901000016000NNE   20220721121659W4164P0P  00001600000000664000000994332W416  HJYHK   006400630017
BI00B32W4    4500197172     202209227116-4124-02             TERMINAL                 CCN000003000000003000FN00000000020220901000003000NNE   20220721121659W4164P0P  00000300000000459900000753532W416  HJYHK   006400630015
BI00B32W4    4500197172     202209227116-5045-02             TERMINAL                 CCN000016000000016000FN00000000020220901000016000NNE   20220721121659W4164P0P  00001600000000678400001007132W416  HJYHK   006400630017
BI00B32W4    4500197172     202209227116-4101-02             TERMINAL                 CCN000072000000072000FN00000000020220901000072000NNE   20220721121659W4164P0P  00001200000000582000000876232W416  HJYHK   006400630015
BI00B32W4    4500197172     202209227116-4120-02             TERMINAL                 CCN000006000000006000FN00000000020220901000006000NNE   20220721121659W4164P0P  00000600000000780000001073632W416  HJYHK   006400630015
BI00B32W4    4500197172     202209227114-4101-02             TERMINAL                 CCN000015000000015000FN00000000020220901000015000NNE   20220721121659W4164P0P  00001500000000675000001003632W416  HJYHK   006400630017
BI00B32W4    4500197172     202209227116-4104-02             TERMINAL                 CCN000060000000060000FN00000000020220901000060000NNE   20220721121659W4164P0P  00001200000000580800000972432W416  HJYHK   006400630015
BI00B32W4    4500197172     202209227116-4110-02             TERMINAL                 CCN000018000000018000FN00000000020220901000018000NNE   20220721121659W4164P0P  00000900000000594000000882232W416  HJYHK   006400630015
BI00B32W4    4500197172     202209227283-1024                CONNECTOR SUB ASSY       CCN000006000000006000FN00000000020220901000006000NNE   20220721121659W4164N0N  00000200000000400000000522532W416  HJYHK   005400370024
BI00B32W4    4500197172     202209227282-1024                HOUSING MALE             CCN000007000000007000FN00000000020220901000007000NNE   20220721121659W4161N0N  00000100000000458000000580532W416  HJYHK   005400370024
BI00B32W4    4500197172     202209227283-1030                CONNECTOR                CCN000006000000006000FN00000000020220901000006000NNE   20220721121659W4164N0N  00000600000000988000001172032W416  HJYHK   005500360039
BI00B32W4    4500197172     202209227288-6547                CONNECTOR MALE ASS'Y     CCN000012000000012000FN00000000020220901000012000NNE   20220721121659W4164N0N  00000075000001205300001340332W416  HJYHK   005400370024
BI00B32W4    4500197172     202209227289-6547                HOUSING FEMALE ASS'Y     CCN000012000000012000FN00000000020220901000012000NNE   20220721121659W4161N0N  00000240000001152000001362032W416  HJYHK   005500360039
BI00B32W4    4500197172     202209227283-1156                CONNECTOR                CCN000007200000007200FN00000000020220901000007200NNE   20220721121659W4164N0N  00000080000000877600001078032W416  HJYHK   005600390040
BI00B32W4    4500197172     202209227114-4032                TERMINAL                 CCN000007500000007500FN00000000020220901000007500NNE   20220721121659W4164P0P  00000750000000735000001063632W416  HJYHK   006400630017
BI00B32W4    #4500197172    202209227282-4190-30             CONNECTOR                CCN000003600000003600FN00000000020220901000003600NNE   20220721121659W4162N0N  00000024000000801000001071332W416  HJYHK   005600390040
BI00B32W4    #4500197172    202209227283-4190-30             CONNECTOR                CCN000003360000003360FN00000000020220901000003360NNE   20220721121659W4162N0N  00000024000000846000001115532W416  HJYHK   005600390040
BI00B32W4    #4500197172    202209227158-3003-90             RUBBER STOPPER           CCN000020000000020000FN00000000020220901000020000NNE   20220721121659W4162C0C  00002000000000250000000306032W416  HJYHK   002700430014
BI00B32W4    #4500197172    202209227158-3004-40             RUBBER STOPPER           CCN000020000000020000FN00000000020220901000020000NNE   20220721121659W4162C0C  00002000000000234000000306332W416  HJYHK   002700430014
BI00B32W4    #4500197172    202209227187-1616                HOUSING FEMALE           CCN000004000000004000FN00000000020220901000004000NNE   20220721121659W4162F0F  00000400000001152000001262032W416  HJYHK   005500360039
BI00B32W4    @4500197172    202209227287-6634                HOUSING FEMALE ASS'Y     CCN000002400000002400FN00000000020220901000002400NNE   20220721121659W4163N0N  00000240000001088400001337032W416  HJYHK   005500360039
BI00B32W4    4500197177     202209087116-4111-02             TERMINAL                 CCN000015000000015000FN00000000020220901000015000NNE   20220721121659W4N24P0P  00000750000000529500000817732W4N2  HJYHK-J 006400630015
BI00B32W4    4500197177     202209087116-4110-02             TERMINAL                 CCN000009000000009000FN00000000020220901000009000NNE   20220721121659W4N24P0P  00000900000000594000000882232W4N2  HJYHK-J 006400630015
BI00B32W4    4500197179     202209227158-3169-40             SEALING PLUG             CCN000040000000040000FN00000000020220901000040000NNE   20220721121659W4N21C0C  00004000000000156000000204132W4N2  HJYHK-J 004300260014
BI00B32W4    4500197182     202301127283-5574-10             CONNECTOR                CCN000001600000001600FN00000000020230101000001600NNE   20220721121659W4N24N0N  00000080000001235000001435232W4N2  HJYHK-J 005500360039
BI00B32W9    4500197130     202209137116-4022                TERMINAL                 CCN000013500000013500FN00000000020220901000013500NNE   20220721121659W9  4P0P  00001350000000618300000903532W9    HKYHK   006400630015
BI00B32W9    4500197130     202209137283-5846                HOUSING                  CCN000003000000003000FN00000000020220901000003000NNE   20220721121659W9  1N0N  00000150000000885000001102032W9    HKYHK   005600390040
BI00B32W9    #4500197189    202209067158-3120-90             CONNECTOR WIRE SEAL      CCN000060000000060000FN00000000020220901000060000NNE   20220721121659W93 2C0C  00002000000000136000000194032W93   HKYHK   002700430014
BI00A32Y1    TA2093A        202207257196-0510-02             TERMINAL                 CCN000048000000048000FN00000000020220701000048000NNED0720220721153012    4P0P  00002400000000871200001034632Y1    YAYAS   002800510028
BI00A32Y1    TA2093A        202207257289-3342-30             HOUSING FEMALE ASS'Y     CCN000021600000021600FN00000000020220701000021600NNED0720220721165807    1N0N  00000240000000686400000901432Y1    YAYAS   005500360039
BI00A32Y1    TA2093A        202207257287-9323                UNSEALED HOUSING SUB     CCN000002400000002400FN00000000020220701000002400NNED0720220721154915    1N0N  00000240000000537600000690032Y1    YAYAS   005600390023
BI00A32Y1    TA2093A        202207257114-6041                TERMINAL                 CCN000003600000003600FN00000000020220701000003600NNED0720220721153024    4P0P  00000360000000580700000824232Y1    YAYAS   006400630015
BI00A32Y1    #TA2093A       202208017189-2978-30             HOUSING FEMALE           CCN000007500000007500FN00000000020220701000007500NNED0720220721121659    2F0F  00000150000000966900001096932Y1    YAYAS   005400370024
BI00B32Y2    TAU1234        202208157158-3070-80             RUBBER STOPPER           CCN000040000000040000FN00000000020221201000040000NNE   20220721121659    1C0C  00004000000000276000000333332Y2    YUYUY   002700430014
