BI00B32DE    TT2093         2022080418007703741              AVSS 0.3F GY             CCN000002000000002000FN00000000020220901000002000NNM20 20220721085551    1W    00000200000000496000000000032DE    TVYEV-TV000000000000VT228082
BI00B32DE    TT2093         2022080418007703750              AVSS 0.3F R              CCN000004000000004000FN00000000020220901000004000NNM20 20220721085610    1W    00000200000000496000000000032DE    TVYEV-TV000000000000VT228083
BI00B32DE    TT2093         2022082518007703960              AVSS 0.5F G              CCN000007500000006000FN00000000020220901000006000NNM00 20220721093615    1W    00000150000000674000000000032DE    TVYEV-TV000000000000VT228084
BI00B32DE    TT2094         2022081118007703960              AVSS 0.5F G              CCN000007500000007500FN00000000020220901000007500NNM20 20220721085627    1W    00000150000000674000000000032DE    TVYEV-TV000000000000VT328098
BI00B32DE    TT2093         2022081118007703941              AVSS 0.5F GY             CCN000003000000003000FN00000000020220901000003000NNM21 20220721085647    1W    00000150000000674000000000032DE    TVYEV-TV000000000000VT228085
BI00B32DE    TT2093         2022080418007703990              AVSS 0.5F L              CCN000004500000004500FN00000000020220901000004500NNM20 20220721085702    1W    00000150000000674000000000032DE    TVYEV-TV000000000000VT228086
BI00B32DE    TT2093         2022081118007703940              AVSS 0.5F W              CCN000006000000006000FN00000000020220901000006000NNM21 20220721085717    1W    00000150000000674000000000032DE    TVYEV-TV000000000000VT228089
BI00B32DE    TT2091         2022080418007704130              AVSS 1.25F B             CCN000000800000000800FN00000000020220901000000800NNM20 20220721085741    1W    00000080000001389000000000032DE    TVYEV-TV000000000000VT427055
BI00B32DE    TT2093         2022081118007704190              AVSS 1.25F L             CCN000002400000002400FN00000000020220901000002400NNM21 20220721085804    1W    00000080000001389000000000032DE    TVYEV-TV000000000000VT228095
BI00B32DE    TT2094         2022081818007704190              AVSS 1.25F L             CCN000001600000001600FN00000000020220901000001600NNM20 20220721085821    1W    00000080000001389000000000032DE    TVYEV-TV000000000000VT328108
BI00B32DE    TT2093         2022081118007704152              AVSS 1.25F P             CCN000004000000004000FN00000000020220901000004000NNM21 20220721085844    1W    00000080000001389000000000032DE    TVYEV-TV000000000000VT228096
BI00B32DE    TT2094         2022081818007704152              AVSS 1.25F P             CCN000003200000003200FN00000000020220901000003200NNM21 20220721085914    1W    00000080000001389000000000032DE    TVYEV-TV000000000000VT328109
BI00B32DE    TT2093         2022081118007704192              AVSS 1.25F V             CCN000002400000002400FN00000000020220901000002400NNM21 20220721085928    1W    00000080000001389000000000032DE    TVYEV-TV000000000000VT228097
BI00B32DE    TT2094         2022081818007704192              AVSS 1.25F V             CCN000001600000001600FN00000000020220901000001600NNM21 20220721085957    1W    00000080000001389000000000032DE    TVYEV-TV000000000000VT328110
BI00B32DE    TT2093         20220811180D0203760              AVSSH 0.3F G             CCN000002000000002000FN00000000020220901000002000NNM21 20220721090133    1W    00000200000000515000000000032DE    TVYEV-TV000000000000VT228036
BI00B32DE    TT2093         20220811180D0203995              AVSSH 0.5F L/R           CCN000009000000009000FN00000000020220901000009000NNM21 20220721090150    1W    00000150000000689000000000032DE    TVYEV-TV000000000000VT228048
BI00B32DE    TT2093         20220811180D0203952              AVSSH 0.5F P             CCN000025500000025500FN00000000020220901000025500NNM21 20220721090204    1W    00000150000000689000000000032DE    TVYEV-TV000000000000VT228050
BI00B32DE    TT2094         20220818180D0203945              AVSSH 0.5F W/R           CCN000003000000003000FN00000000020220901000003000NNM21 20220721090230    1W    00000150000000689000000000032DE    TVYEV-TV000000000000VT328071
BI00B32DE    TT2093         20220818180D0203970              AVSSH 0.5F Y             CCN000018000000018000FN00000000020220901000018000NNM22 20220721090303    1W    00000150000000689000000000032DE    TVYEV-TV000000000000VT228060
BI00B32DE    @TT2093        20220811181E50000ZZ              AVSSCS-S 0.5FX1 DGY/BR   CCN000001600000001600FN00000000020220901000001600NNM20 20220721134036    1W    00000040000001909700000000032DE    TVYEV-TV000000000000VT228015
BI00B32DE    @TT2093        20220811181E50007ZZ              AVSSCS-S 0.5FX1 DGY/L    CCN000001200000001200FN00000000020220901000001200NNM20 20220721134103    1W    00000040000001909700000000032DE    TVYEV-TV000000000000VT228017
BI00A32DE    @TT2091        20220725181F21004ZZ              AVSSHCS-S 0.5FX1 B/R     CCN000000800000000800FN00000000020220901000000800NNM20 20220721093749    1W    00000040000001908400000000032DE    TVYEV-TV000000000000VT427010
BI00B32DE    @TT2091        20220811181F21006ZZ              AVSSHCS-S 0.5FX1 B/Y     CCN000001200000000800FN00000000020220901000000800NNM00 20220721093527    1W    00000040000001908400000000032DE    TVYEV-TV000000000000VT427012
BI00A32DE    TT208E         20220725180D0203953              AVSSH 0.5F R/B           CCN000003000000003000FN00000000020220801000003000NNE23 20220721093441    1W    00000150000000689000000000032DE    TVYEV-TV000000000000VX227023
BI00A32DE    TT208E         20220725180D0203957              AVSSH 0.5F R/Y           CCN000001500000001500FN00000000020220801000001500NNE23 20220721093637    1W    00000150000000689000000000032DE    TVYEV-TV000000000000VX227026
BI00A32DE    TT208E         20220725180D0203975              AVSSH 0.5F Y/R           CCN000001500000001500FN00000000020220801000001500NNE23 20220721093432    1W    00000150000000689000000000032DE    TVYEV-TV000000000000VX227028
BI00A32DE    @TT2091        20220725181F21006ZZ              AVSSHCS-S 0.5FX1 B/Y     CCN000000400000000400FN00000000020220901000000400NNM20 20220721093527    1W    00000040000001908400000000032DE    TVYEV-TV000000000000VT427012
BI00A32DE    TT2093         2022072518007703960              AVSS 0.5F G              CCN000001500000001500FN00000000020220901000001500NNM23 20220721093615    1W    00000150000000674000000000032DE    TVYEV-TV000000000000VT228084
BI00B32J1    @396630        20220815181AD2001ZZ              CIVUSAS-S 0.35X1 B       CCN000033550000033550FN00000000020220801000033550NNE   20220721134901    1W    00000055000001540800000000032J1    UKYEL-BL000000000000KG128001
BI00B32J1    @396630        20220815181AD2002ZZ              CIVUSAS-S 0.35X2 B       CCN000054000000054000FN00000000020220801000054000NNE   20220721134901    1W    00000045000001713700000000032J1    UKYEL-BL000000000000KG128003
BI00B32J1    @396630        20220815181AD2003ZZ              CIVUSAS-S 0.35X3 B       CCN000018900000018900FN00000000020220801000018900NNE   20220721134901    1W    00000035000002172100000000032J1    UKYEL-BL000000000000KG128004
BI00B32J1    @396630        20220815181AD2009ZZ              CIVUSAS-S 0.5X3 B        CCN000002700000002700FN00000000020220801000002700NNE   20220721134901    1W    00000030000002716800000000032J1    UKYEL-BL000000000000KG128002
BI00B32J1    @396630        20220815181E48012ZZ              CAVSAS-S 0.3X1 GY        CCN000007000000007000FN00000000020220801000007000NNE   20220721134901    1W    00000050000001529500000000032J1    UKYEL-BL000000000000KG128005
BI00B32J1    @396630        20220815181E48015ZZ              CAVSAS-S 0.5X1 GY        CCN000008800000008800FN00000000020220801000008800NNE   20220721134901    1W    00000040000001900600000000032J1    UKYEL-BL000000000000KG128006
BI00B32J1    @396630        20220815181E48018ZZ              CAVSAS-S 0.5X2 GY/SB     CCN000005700000005700FN00000000020220801000005700NNE   20220721134901    1W    00000030000002561000000000032J1    UKYEL-BL000000000000KG128009
BI00B32J1    @396630        20220815181E48022ZZ              CAVSAS-S 0.5X2 GY        CCN000009600000009600FN00000000020220801000009600NNE   20220721134901    1W    00000030000002561000000000032J1    UKYEL-BL000000000000KG128007
BI00B32J1    @396630        20220815181E48027ZZ              CAVSAS-S 0.5X2 GY/P      CCN000006000000006000FN00000000020220801000006000NNE   20220721134901    1W    00000030000002561000000000032J1    UKYEL-BL000000000000KG128008
BI00B32J1    @396630        20220815181E48029ZZ              CAVSAS-S 0.5X4 GY        CCN000005000000005000FN00000000020220801000005000NNE   20220721134901    1W    00000020000003995000000000032J1    UKYEL-BL000000000000KG128012
BI00B32J1    @396630        20220815181E48031ZZ              CAVSAS-S 0.3X2 GY        CCN000013300000013300FN00000000020220801000013300NNE   20220721134901    1W    00000035000002008700000000032J1    UKYEL-BL000000000000KG128014
BI00B32J1    @396630        20220815181E48033ZZ              CAVSAS-S 0.5X3 GY/B      CCN000008400000008400FN00000000020220801000008400NNE   20220721134901    1W    00000020000003795300000000032J1    UKYEL-BL000000000000KG128011
BI00B32J1    @396630        20220815181E48035ZZ              CAVSAS-S 0.5X3 GY        CCN000005400000005400FN00000000020220801000005400NNE   20220721134901    1W    00000020000003795300000000032J1    UKYEL-BL000000000000KG128010
BI00B32J1    @396630        20220815181E48065ZZ              CAVSAS-S 0.5X4 GY/W      CCN000004800000004800FN00000000020220801000004800NNE   20220721134901    1W    00000020000003995000000000032J1    UKYEL-BL000000000000KG128013
BI00B32M8    PM2208BTMW     202208101801W003961              IVSSH 0.5F LG            CCN000005400000005400FN00000000020220801000005400NNE   20220721135221    1W    00000180000000625000000000032M8    PMPEMI  000000000000IK427001
BI00B32P8    TAPAW-210A1    2022081718007704145              AVSS 1.25F W/R           CCN000002400000001600FN00000000020221001000001600NNE00 20220721102104    1W    00000080000001389000000000032P8    YIYTM   000000000000YA128071
BI00B32P8    TAPAW-2102     2022091418000004530              AV 8 B                   CCN000007200000007200FN00000000020221001000007200NNM   20220721160108    1W    00000010000010466200000000032P8    YIYTM   000000000000YT528068
BI00B32P8    TAPAW-2103     2022092118000004530              AV 8 B                   CCN000014700000014700FN00000000020221001000014700NNM   20220721160108    1W    00000010000010466200000000032P8    YIYTM   000000000000YT129082
BI00B32P8    TAPAW-2104     2022092818000004530              AV 8 B                   CCN000014700000014700FN00000000020221001000014700NNM   20220721160108    1W    00000010000010466200000000032P8    YIYTM   000000000000YT229090
BI00B32P8    TAPAW-2101     2022090718000004560              AV 8 G                   CCN000010400000010400FN00000000020221001000010400NNM   20220721160108    1W    00000010000010466200000000032P8    YIYTM   000000000000YT428058
BI00B32P8    TAPAW-2102     2022091418000004560              AV 8 G                   CCN000009300000009300FN00000000020221001000009300NNM   20220721160108    1W    00000010000010466200000000032P8    YIYTM   000000000000YT528070
BI00B32P8    TAPAW-2103     2022092118000004560              AV 8 G                   CCN000009300000009300FN00000000020221001000009300NNM   20220721160108    1W    00000010000010466200000000032P8    YIYTM   000000000000YT129084
BI00B32P8    TAPAW-2104     2022092818000004560              AV 8 G                   CCN000009400000009400FN00000000020221001000009400NNM   20220721160108    1W    00000010000010466200000000032P8    YIYTM   000000000000YT229092
BI00B32P8    TAPAW-2101     2022090718000004550              AV 8 R                   CCN000005000000005000FN00000000020221001000005000NNM   20220721160108    1W    00000010000010466200000000032P8    YIYTM   000000000000YT428060
BI00B32P8    TAPAW-2102     2022091418000004550              AV 8 R                   CCN000011500000011500FN00000000020221001000011500NNM   20220721160108    1W    00000010000010466200000000032P8    YIYTM   000000000000YT528072
BI00B32P8    TAPAW-2103     2022092118000004550              AV 8 R                   CCN000011400000011400FN00000000020221001000011400NNM   20220721160108    1W    00000010000010466200000000032P8    YIYTM   000000000000YT129086
BI00B32P8    TAPAW-2104     2022092818000004550              AV 8 R                   CCN000011500000011500FN00000000020221001000011500NNM   20220721160108    1W    00000010000010466200000000032P8    YIYTM   000000000000YT229094
BI00B32P8    TAPAW-2104     2022092818000004540              AV 8 W                   CCN000008800000008800FN00000000020221001000008800NNM   20220721160108    1W    00000010000010466200000000032P8    YIYTM   000000000000YT229096
BI00B32P8    TAPAW-2103     2022092118000004543              AV 8 W/B                 CCN000003900000003900FN00000000020221001000003900NNM   20220721160108    1W    00000010000010466200000000032P8    YIYTM   000000000000YT129088
BI00B32P8    TAPAW-2104     2022092818000004543              AV 8 W/B                 CCN000005800000005800FN00000000020221001000005800NNM   20220721160108    1W    00000010000010466200000000032P8    YIYTM   000000000000YT229097
BI00B32P8    TAPAW-2101     2022090718009604030              AVS 0.85 B               CCN000001000000001000FN00000000020221001000001000NNM   20220721160108    1W    00000100000001167700000000032P8    YIYTM   000000000000YT428076
BI00B32P8    TAPAW-2104     2022092818009604030              AVS 0.85 B               CCN000001000000001000FN00000000020221001000001000NNM   20220721160108    1W    00000100000001167700000000032P8    YIYTM   000000000000YT229165
BI00B32P8    TAPAW-2104     2022092818009604034              AVS 0.85 B/W             CCN000001000000001000FN00000000020221001000001000NNM   20220721160108    1W    00000100000001167700000000032P8    YIYTM   000000000000YT229166
BI00B32P8    TAPAW-2104     2022092818009604037              AVS 0.85 B/Y             CCN000001000000001000FN00000000020221001000001000NNM   20220721160108    1W    00000100000001167700000000032P8    YIYTM   000000000000YT229167
BI00B32P8    TAPAW-2101     20220907180096040F0              AVS 0.85 GY/B            CCN000001000000001000FN00000000020221001000001000NNM   20220721160108    1W    00000100000001167700000000032P8    YIYTM   000000000000YT428077
BI00B32P8    TAPAW-2103     20220921180096040F0              AVS 0.85 GY/B            CCN000001000000001000FN00000000020221001000001000NNM   20220721160108    1W    00000100000001167700000000032P8    YIYTM   000000000000YT129137
BI00B32P8    TAPAW-2103     2022092118007703730              AVSS 0.3F B              CCN000004000000004000FN00000000020221001000004000NNM   20220721160108    1W    00000200000000496000000000032P8    YIYTM   000000000000YT129090
BI00B32P8    TAPAW-2104     2022092818007703730              AVSS 0.3F B              CCN000004000000004000FN00000000020221001000004000NNM   20220721160108    1W    00000200000000496000000000032P8    YIYTM   000000000000YT229099
BI00B32P8    TAPAW-2104     2022092818007703735              AVSS 0.3F B/R            CCN000002000000002000FN00000000020221001000002000NNM   20220721160108    1W    00000200000000496000000000032P8    YIYTM   000000000000YT229100
BI00B32P8    TAPAW-2104     2022092818007703780              AVSS 0.3F BR             CCN000002000000002000FN00000000020221001000002000NNM   20220721160108    1W    00000200000000496000000000032P8    YIYTM   000000000000YT229101
BI00B32P8    TAPAW-2102     2022091418007703760              AVSS 0.3F G              CCN000002000000002000FN00000000020221001000002000NNM   20220721160108    1W    00000200000000496000000000032P8    YIYTM   000000000000YT528076
BI00B32P8    TAPAW-2103     2022092118007703760              AVSS 0.3F G              CCN000004000000004000FN00000000020221001000004000NNM   20220721160108    1W    00000200000000496000000000032P8    YIYTM   000000000000YT129091
BI00B32P8    TAPAW-2104     2022092818007703760              AVSS 0.3F G              CCN000002000000002000FN00000000020221001000002000NNM   20220721160108    1W    00000200000000496000000000032P8    YIYTM   000000000000YT229102
BI00B32P8    TAPAW-2104     2022092818007703741              AVSS 0.3F GY             CCN000002000000002000FN00000000020221001000002000NNM   20220721160108    1W    00000200000000496000000000032P8    YIYTM   000000000000YT229103
BI00B32P8    TAPAW-2101     2022090718007703790              AVSS 0.3F L              CCN000002000000002000FN00000000020221001000002000NNM   20220721160108    1W    00000200000000496000000000032P8    YIYTM   000000000000YT428062
BI00B32P8    TAPAW-2103     2022092118007703790              AVSS 0.3F L              CCN000002000000002000FN00000000020221001000002000NNM   20220721160108    1W    00000200000000496000000000032P8    YIYTM   000000000000YT129092
BI00B32P8    TAPAW-2103     2022092118007703795              AVSS 0.3F L/R            CCN000002000000002000FN00000000020221001000002000NNM   20220721160108    1W    00000200000000496000000000032P8    YIYTM   000000000000YT129093
BI00B32P8    TAPAW-2104     2022092818007703794              AVSS 0.3F L/W            CCN000002000000002000FN00000000020221001000002000NNM   20220721160108    1W    00000200000000496000000000032P8    YIYTM   000000000000YT229104
BI00B32P8    TAPAW-2102     2022091418007703761              AVSS 0.3F LG             CCN000002000000002000FN00000000020221001000002000NNM   20220721160108    1W    00000200000000496000000000032P8    YIYTM   000000000000YT528077
BI00B32P8    TAPAW-2104     2022092818007703750              AVSS 0.3F R              CCN000004000000004000FN00000000020221001000004000NNM   20220721160108    1W    00000200000000496000000000032P8    YIYTM   000000000000YT229105
BI00B32P8    TAPAW-2103     2022092118007703740              AVSS 0.3F W              CCN000002000000002000FN00000000020221001000002000NNM   20220721160108    1W    00000200000000496000000000032P8    YIYTM   000000000000YT129094
BI00B32P8    TAPAW-2104     2022092818007703745              AVSS 0.3F W/R            CCN000002000000002000FN00000000020221001000002000NNM   20220721160108    1W    00000200000000496000000000032P8    YIYTM   000000000000YT229106
BI00B32P8    TAPAW-2103     2022092118007703775              AVSS 0.3F Y/R            CCN000002000000002000FN00000000020221001000002000NNM   20220721160108    1W    00000200000000496000000000032P8    YIYTM   000000000000YT129095
BI00B32P8    TAPAW-2104     2022092818007703930              AVSS 0.5F B              CCN000004500000004500FN00000000020221001000004500NNM   20220721160108    1W    00000150000000674000000000032P8    YIYTM   000000000000YT229107
BI00B32P8    TAPAW-2104     2022092818007703980              AVSS 0.5F BR             CCN000001500000001500FN00000000020221001000001500NNM   20220721160108    1W    00000150000000674000000000032P8    YIYTM   000000000000YT229108
BI00B32P8    TAPAW-2103     2022092118007703985              AVSS 0.5F BR/R           CCN000001500000001500FN00000000020221001000001500NNM   20220721160108    1W    00000150000000674000000000032P8    YIYTM   000000000000YT129096
BI00B32P8    TAPAW-2104     2022092818007703987              AVSS 0.5F BR/Y           CCN000001500000001500FN00000000020221001000001500NNM   20220721160108    1W    00000150000000674000000000032P8    YIYTM   000000000000YT229109
BI00B32P8    TAPAW-2101     2022090718007703960              AVSS 0.5F G              CCN000009000000009000FN00000000020221001000009000NNM   20220721160108    1W    00000150000000674000000000032P8    YIYTM   000000000000YT428063
BI00B32P8    TAPAW-2102     2022091418007703960              AVSS 0.5F G              CCN000012000000012000FN00000000020221001000012000NNM   20220721160108    1W    00000150000000674000000000032P8    YIYTM   000000000000YT528078
BI00B32P8    TAPAW-2103     2022092118007703960              AVSS 0.5F G              CCN000013500000013500FN00000000020221001000013500NNM   20220721160108    1W    00000150000000674000000000032P8    YIYTM   000000000000YT129097
BI00B32P8    TAPAW-2104     2022092818007703960              AVSS 0.5F G              CCN000012000000012000FN00000000020221001000012000NNM   20220721160108    1W    00000150000000674000000000032P8    YIYTM   000000000000YT229110
BI00B32P8    TAPAW-2101     2022090718007703963              AVSS 0.5F G/B            CCN000001500000001500FN00000000020221001000001500NNM   20220721160108    1W    00000150000000674000000000032P8    YIYTM   000000000000YT428064
BI00B32P8    TAPAW-2102     2022091418007703963              AVSS 0.5F G/B            CCN000001500000001500FN00000000020221001000001500NNM   20220721160108    1W    00000150000000674000000000032P8    YIYTM   000000000000YT528079
BI00B32P8    TAPAW-2103     2022092118007703963              AVSS 0.5F G/B            CCN000001500000001500FN00000000020221001000001500NNM   20220721160108    1W    00000150000000674000000000032P8    YIYTM   000000000000YT129098
BI00B32P8    TAPAW-2104     2022092818007703963              AVSS 0.5F G/B            CCN000003000000003000FN00000000020221001000003000NNM   20220721160108    1W    00000150000000674000000000032P8    YIYTM   000000000000YT229111
BI00B32P8    TAPAW-2104     2022092818007703918              AVSS 0.5F G/O            CCN000001500000001500FN00000000020221001000001500NNM   20220721160108    1W    00000150000000674000000000032P8    YIYTM   000000000000YT229112
BI00B32P8    TAPAW-2101     2022090718007703967              AVSS 0.5F G/Y            CCN000003000000003000FN00000000020221001000003000NNM   20220721160108    1W    00000150000000674000000000032P8    YIYTM   000000000000YT428065
BI00B32P8    TAPAW-2102     2022091418007703967              AVSS 0.5F G/Y            CCN000003000000003000FN00000000020221001000003000NNM   20220721160108    1W    00000150000000674000000000032P8    YIYTM   000000000000YT528080
BI00B32P8    TAPAW-2103     2022092118007703967              AVSS 0.5F G/Y            CCN000003000000003000FN00000000020221001000003000NNM   20220721160108    1W    00000150000000674000000000032P8    YIYTM   000000000000YT129099
BI00B32P8    TAPAW-2104     2022092818007703967              AVSS 0.5F G/Y            CCN000004500000004500FN00000000020221001000004500NNM   20220721160108    1W    00000150000000674000000000032P8    YIYTM   000000000000YT229113
BI00B32P8    TAPAW-2104     2022092818007703941              AVSS 0.5F GY             CCN000001500000001500FN00000000020221001000001500NNM   20220721160108    1W    00000150000000674000000000032P8    YIYTM   000000000000YT229114
BI00B32P8    TAPAW-2104     2022092818007703910              AVSS 0.5F GY/R           CCN000001500000001500FN00000000020221001000001500NNM   20220721160108    1W    00000150000000674000000000032P8    YIYTM   000000000000YT229115
BI00B32P8    TAPAW-2104     2022092818007703990              AVSS 0.5F L              CCN000010500000010500FN00000000020221001000010500NNM   20220721160108    1W    00000150000000674000000000032P8    YIYTM   000000000000YT229116
BI00B32P8    TAPAW-2104     2022092818007703914              AVSS 0.5F L/O            CCN000001500000001500FN00000000020221001000001500NNM   20220721160108    1W    00000150000000674000000000032P8    YIYTM   000000000000YT229117
BI00B32P8    TAPAW-2104     2022092818007703995              AVSS 0.5F L/R            CCN000003000000003000FN00000000020221001000003000NNM   20220721160108    1W    00000150000000674000000000032P8    YIYTM   000000000000YT229118
BI00B32P8    TAPAW-2101     2022090718007703997              AVSS 0.5F L/Y            CCN000003000000003000FN00000000020221001000003000NNM   20220721160108    1W    00000150000000674000000000032P8    YIYTM   000000000000YT428066
BI00B32P8    TAPAW-2102     2022091418007703997              AVSS 0.5F L/Y            CCN000001500000001500FN00000000020221001000001500NNM   20220721160108    1W    00000150000000674000000000032P8    YIYTM   000000000000YT528081
BI00B32P8    TAPAW-2103     2022092118007703997              AVSS 0.5F L/Y            CCN000003000000003000FN00000000020221001000003000NNM   20220721160108    1W    00000150000000674000000000032P8    YIYTM   000000000000YT129100
BI00B32P8    TAPAW-2104     2022092818007703997              AVSS 0.5F L/Y            CCN000001500000001500FN00000000020221001000001500NNM   20220721160108    1W    00000150000000674000000000032P8    YIYTM   000000000000YT229119
BI00B32P8    TAPAW-2102     2022091418007703961              AVSS 0.5F LG             CCN000003000000003000FN00000000020221001000003000NNM   20220721160108    1W    00000150000000674000000000032P8    YIYTM   000000000000YT528082
BI00B32P8    TAPAW-2103     2022092118007703977              AVSS 0.5F O/L            CCN000003000000003000FN00000000020221001000003000NNM   20220721160108    1W    00000150000000674000000000032P8    YIYTM   000000000000YT129101
BI00B32P8    TAPAW-2101     2022090718007703952              AVSS 0.5F P              CCN000001500000001500FN00000000020221001000001500NNM   20220721160108    1W    00000150000000674000000000032P8    YIYTM   000000000000YT428067
BI00B32P8    TAPAW-2102     2022091418007703952              AVSS 0.5F P              CCN000001500000001500FN00000000020221001000001500NNM   20220721160108    1W    00000150000000674000000000032P8    YIYTM   000000000000YT528083
BI00B32P8    TAPAW-2103     2022092118007703952              AVSS 0.5F P              CCN000001500000001500FN00000000020221001000001500NNM   20220721160108    1W    00000150000000674000000000032P8    YIYTM   000000000000YT129102
BI00B32P8    TAPAW-2104     2022092818007703952              AVSS 0.5F P              CCN000001500000001500FN00000000020221001000001500NNM   20220721160108    1W    00000150000000674000000000032P8    YIYTM   000000000000YT229120
BI00B32P8    TAPAW-2104     20220928180077039G6              AVSS 0.5F P/L            CCN000003000000003000FN00000000020221001000003000NNM   20220721160108    1W    00000150000000674000000000032P8    YIYTM   000000000000YT229121
BI00B32P8    TAPAW-2103     2022092118007703950              AVSS 0.5F R              CCN000010500000010500FN00000000020221001000010500NNM   20220721160108    1W    00000150000000674000000000032P8    YIYTM   000000000000YT129103
BI00B32P8    TAPAW-2104     2022092818007703950              AVSS 0.5F R              CCN000018000000018000FN00000000020221001000018000NNM   20220721160108    1W    00000150000000674000000000032P8    YIYTM   000000000000YT229122
BI00B32P8    TAPAW-2101     2022090718007703953              AVSS 0.5F R/B            CCN000003000000003000FN00000000020221001000003000NNM   20220721160108    1W    00000150000000674000000000032P8    YIYTM   000000000000YT428068
BI00B32P8    TAPAW-2102     2022091418007703953              AVSS 0.5F R/B            CCN000001500000001500FN00000000020221001000001500NNM   20220721160108    1W    00000150000000674000000000032P8    YIYTM   000000000000YT528084
BI00B32P8    TAPAW-2103     2022092118007703953              AVSS 0.5F R/B            CCN000001500000001500FN00000000020221001000001500NNM   20220721160108    1W    00000150000000674000000000032P8    YIYTM   000000000000YT129104
BI00B32P8    TAPAW-2104     2022092818007703953              AVSS 0.5F R/B            CCN000003000000003000FN00000000020221001000003000NNM   20220721160108    1W    00000150000000674000000000032P8    YIYTM   000000000000YT229123
BI00B32P8    TAPAW-2101     2022090718007703956              AVSS 0.5F R/G            CCN000001500000001500FN00000000020221001000001500NNM   20220721160108    1W    00000150000000674000000000032P8    YIYTM   000000000000YT428069
BI00B32P8    TAPAW-2102     2022091418007703956              AVSS 0.5F R/G            CCN000001500000001500FN00000000020221001000001500NNM   20220721160108    1W    00000150000000674000000000032P8    YIYTM   000000000000YT528085
BI00B32P8    TAPAW-2103     2022092118007703956              AVSS 0.5F R/G            CCN000003000000003000FN00000000020221001000003000NNM   20220721160108    1W    00000150000000674000000000032P8    YIYTM   000000000000YT129105
BI00B32P8    TAPAW-2104     2022092818007703956              AVSS 0.5F R/G            CCN000001500000001500FN00000000020221001000001500NNM   20220721160108    1W    00000150000000674000000000032P8    YIYTM   000000000000YT229124
BI00B32P8    TAPAW-2104     2022092818007703957              AVSS 0.5F R/Y            CCN000004500000004500FN00000000020221001000004500NNM   20220721160108    1W    00000150000000674000000000032P8    YIYTM   000000000000YT229125
BI00B32P8    TAPAW-2101     2022090718007703991              AVSS 0.5F SB             CCN000003000000003000FN00000000020221001000003000NNM   20220721160108    1W    00000150000000674000000000032P8    YIYTM   000000000000YT428070
BI00B32P8    TAPAW-2103     2022092118007703992              AVSS 0.5F V              CCN000003000000003000FN00000000020221001000003000NNM   20220721160108    1W    00000150000000674000000000032P8    YIYTM   000000000000YT129106
BI00B32P8    TAPAW-2104     2022092818007703992              AVSS 0.5F V              CCN000004500000004500FN00000000020221001000004500NNM   20220721160108    1W    00000150000000674000000000032P8    YIYTM   000000000000YT229126
BI00B32P8    TAPAW-2102     2022091418007703940              AVSS 0.5F W              CCN000013500000013500FN00000000020221001000013500NNM   20220721160108    1W    00000150000000674000000000032P8    YIYTM   000000000000YT528086
BI00B32P8    TAPAW-2103     2022092118007703940              AVSS 0.5F W              CCN000015000000015000FN00000000020221001000015000NNM   20220721160108    1W    00000150000000674000000000032P8    YIYTM   000000000000YT129107
BI00B32P8    TAPAW-2104     2022092818007703940              AVSS 0.5F W              CCN000016500000016500FN00000000020221001000016500NNM   20220721160108    1W    00000150000000674000000000032P8    YIYTM   000000000000YT229127
BI00B32P8    TAPAW-2104     2022092818007703946              AVSS 0.5F W/G            CCN000001500000001500FN00000000020221001000001500NNM   20220721160108    1W    00000150000000674000000000032P8    YIYTM   000000000000YT229128
BI00B32P8    TAPAW-2104     2022092818007703949              AVSS 0.5F W/L            CCN000003000000003000FN00000000020221001000003000NNM   20220721160108    1W    00000150000000674000000000032P8    YIYTM   000000000000YT229129
BI00B32P8    TAPAW-2102     2022091418007703945              AVSS 0.5F W/R            CCN000003000000003000FN00000000020221001000003000NNM   20220721160108    1W    00000150000000674000000000032P8    YIYTM   000000000000YT528087
BI00B32P8    TAPAW-2103     2022092118007703945              AVSS 0.5F W/R            CCN000004500000004500FN00000000020221001000004500NNM   20220721160108    1W    00000150000000674000000000032P8    YIYTM   000000000000YT129108
BI00B32P8    TAPAW-2104     2022092818007703945              AVSS 0.5F W/R            CCN000004500000004500FN00000000020221001000004500NNM   20220721160108    1W    00000150000000674000000000032P8    YIYTM   000000000000YT229130
BI00B32P8    TAPAW-2102     2022091418007703970              AVSS 0.5F Y              CCN000003000000003000FN00000000020221001000003000NNM   20220721160108    1W    00000150000000674000000000032P8    YIYTM   000000000000YT528088
BI00B32P8    TAPAW-2103     2022092118007703970              AVSS 0.5F Y              CCN000012000000012000FN00000000020221001000012000NNM   20220721160108    1W    00000150000000674000000000032P8    YIYTM   000000000000YT129109
BI00B32P8    TAPAW-2104     2022092818007703970              AVSS 0.5F Y              CCN000012000000012000FN00000000020221001000012000NNM   20220721160108    1W    00000150000000674000000000032P8    YIYTM   000000000000YT229131
BI00B32P8    TAPAW-2103     2022092118007704030              AVSS 0.75F B             CCN000008000000008000FN00000000020221001000008000NNM   20220721160108    1W    00000100000000943000000000032P8    YIYTM   000000000000YT129110
BI00B32P8    TAPAW-2104     2022092818007704030              AVSS 0.75F B             CCN000038000000038000FN00000000020221001000038000NNM   20220721160108    1W    00000100000000943000000000032P8    YIYTM   000000000000YT229132
BI00B32P8    TAPAW-2102     2022091418007704036              AVSS 0.75F B/G           CCN000003000000003000FN00000000020221001000003000NNM   20220721160108    1W    00000100000000943000000000032P8    YIYTM   000000000000YT528089
BI00B32P8    TAPAW-2103     2022092118007704036              AVSS 0.75F B/G           CCN000016000000016000FN00000000020221001000016000NNM   20220721160108    1W    00000100000000943000000000032P8    YIYTM   000000000000YT129111
BI00B32P8    TAPAW-2104     2022092818007704036              AVSS 0.75F B/G           CCN000016000000016000FN00000000020221001000016000NNM   20220721160108    1W    00000100000000943000000000032P8    YIYTM   000000000000YT229133
BI00B32P8    TAPAW-2103     2022092118007704039              AVSS 0.75F B/L           CCN000003000000003000FN00000000020221001000003000NNM   20220721160108    1W    00000100000000943000000000032P8    YIYTM   000000000000YT129112
BI00B32P8    TAPAW-2104     2022092818007704039              AVSS 0.75F B/L           CCN000004000000004000FN00000000020221001000004000NNM   20220721160108    1W    00000100000000943000000000032P8    YIYTM   000000000000YT229134
BI00B32P8    TAPAW-2103     2022092118007704035              AVSS 0.75F B/R           CCN000001000000001000FN00000000020221001000001000NNM   20220721160108    1W    00000100000000943000000000032P8    YIYTM   000000000000YT129114
BI00B32P8    TAPAW-2104     2022092818007704035              AVSS 0.75F B/R           CCN000014000000014000FN00000000020221001000014000NNM   20220721160108    1W    00000100000000943000000000032P8    YIYTM   000000000000YT229136
BI00B32P8    TAPAW-2103     2022092118007704037              AVSS 0.75F B/Y           CCN000007000000007000FN00000000020221001000007000NNM   20220721160108    1W    00000100000000943000000000032P8    YIYTM   000000000000YT129115
BI00B32P8    TAPAW-2104     2022092818007704037              AVSS 0.75F B/Y           CCN000017000000017000FN00000000020221001000017000NNM   20220721160108    1W    00000100000000943000000000032P8    YIYTM   000000000000YT229137
BI00B32P8    TAPAW-2104     2022092818007704080              AVSS 0.75F BR            CCN000001000000001000FN00000000020221001000001000NNM   20220721160108    1W    00000100000000943000000000032P8    YIYTM   000000000000YT229138
BI00B32P8    TAPAW-2103     2022092118007704084              AVSS 0.75F BR/W          CCN000001000000001000FN00000000020221001000001000NNM   20220721160108    1W    00000100000000943000000000032P8    YIYTM   000000000000YT129116
BI00B32P8    TAPAW-2102     2022091418007704060              AVSS 0.75F G             CCN000014000000014000FN00000000020221001000014000NNM   20220721160108    1W    00000100000000943000000000032P8    YIYTM   000000000000YT528091
BI00B32P8    TAPAW-2103     2022092118007704060              AVSS 0.75F G             CCN000018000000018000FN00000000020221001000018000NNM   20220721160108    1W    00000100000000943000000000032P8    YIYTM   000000000000YT129117
BI00B32P8    TAPAW-2104     2022092818007704060              AVSS 0.75F G             CCN000018000000018000FN00000000020221001000018000NNM   20220721160108    1W    00000100000000943000000000032P8    YIYTM   000000000000YT229139
BI00B32P8    TAPAW-2104     2022092818007704011              AVSS 0.75F GY/L          CCN000002000000002000FN00000000020221001000002000NNM   20220721160108    1W    00000100000000943000000000032P8    YIYTM   000000000000YT229142
BI00B32P8    TAPAW-2102     2022091418007704090              AVSS 0.75F L             CCN000001000000001000FN00000000020221001000001000NNM   20220721160108    1W    00000100000000943000000000032P8    YIYTM   000000000000YT528092
BI00B32P8    TAPAW-2103     2022092118007704090              AVSS 0.75F L             CCN000014000000014000FN00000000020221001000014000NNM   20220721160108    1W    00000100000000943000000000032P8    YIYTM   000000000000YT129120
BI00B32P8    TAPAW-2104     2022092818007704090              AVSS 0.75F L             CCN000013000000013000FN00000000020221001000013000NNM   20220721160108    1W    00000100000000943000000000032P8    YIYTM   000000000000YT229144
BI00B32P8    TAPAW-2103     2022092118007704093              AVSS 0.75F L/B           CCN000003000000003000FN00000000020221001000003000NNM   20220721160108    1W    00000100000000943000000000032P8    YIYTM   000000000000YT129121
BI00B32P8    TAPAW-2104     2022092818007704093              AVSS 0.75F L/B           CCN000007000000007000FN00000000020221001000007000NNM   20220721160108    1W    00000100000000943000000000032P8    YIYTM   000000000000YT229145
BI00B32P8    TAPAW-2103     2022092118007704097              AVSS 0.75F L/Y           CCN000004000000004000FN00000000020221001000004000NNM   20220721160108    1W    00000100000000943000000000032P8    YIYTM   000000000000YT129122
BI00B32P8    TAPAW-2104     2022092818007704097              AVSS 0.75F L/Y           CCN000010000000010000FN00000000020221001000010000NNM   20220721160108    1W    00000100000000943000000000032P8    YIYTM   000000000000YT229146
BI00B32P8    TAPAW-2102     2022091418007704061              AVSS 0.75F LG            CCN000002000000002000FN00000000020221001000002000NNM   20220721160108    1W    00000100000000943000000000032P8    YIYTM   000000000000YT528093
BI00B32P8    TAPAW-2103     2022092118007704061              AVSS 0.75F LG            CCN000002000000002000FN00000000020221001000002000NNM   20220721160108    1W    00000100000000943000000000032P8    YIYTM   000000000000YT129123
BI00B32P8    TAPAW-2104     2022092818007704061              AVSS 0.75F LG            CCN000002000000002000FN00000000020221001000002000NNM   20220721160108    1W    00000100000000943000000000032P8    YIYTM   000000000000YT229147
BI00B32P8    TAPAW-2101     2022090718007704052              AVSS 0.75F P             CCN000002000000002000FN00000000020221001000002000NNM   20220721160108    1W    00000100000000943000000000032P8    YIYTM   000000000000YT428072
BI00B32P8    TAPAW-2102     2022091418007704052              AVSS 0.75F P             CCN000003000000003000FN00000000020221001000003000NNM   20220721160108    1W    00000100000000943000000000032P8    YIYTM   000000000000YT528094
BI00B32P8    TAPAW-2103     2022092118007704052              AVSS 0.75F P             CCN000002000000002000FN00000000020221001000002000NNM   20220721160108    1W    00000100000000943000000000032P8    YIYTM   000000000000YT129124
BI00B32P8    TAPAW-2104     2022092818007704052              AVSS 0.75F P             CCN000003000000003000FN00000000020221001000003000NNM   20220721160108    1W    00000100000000943000000000032P8    YIYTM   000000000000YT229148
BI00B32P8    TAPAW-2104     2022092818007704049              AVSS 0.75F W/L           CCN000002000000002000FN00000000020221001000002000NNM   20220721160108    1W    00000100000000943000000000032P8    YIYTM   000000000000YT229151
BI00B32P8    TAPAW-2104     2022092818007704045              AVSS 0.75F W/R           CCN000003000000003000FN00000000020221001000003000NNM   20220721160108    1W    00000100000000943000000000032P8    YIYTM   000000000000YT229152
BI00B32P8    TAPAW-2104     2022092818007704130              AVSS 1.25F B             CCN000009600000009600FN00000000020221001000009600NNM   20220721160108    1W    00000080000001389000000000032P8    YIYTM   000000000000YT229153
BI00B32P8    TAPAW-2101     2022090718007704139              AVSS 1.25F B/L           CCN000000800000000800FN00000000020221001000000800NNM   20220721160108    1W    00000080000001389000000000032P8    YIYTM   000000000000YT428074
BI00B32P8    TAPAW-2103     2022092118007704184              AVSS 1.25F BR/W          CCN000000800000000800FN00000000020221001000000800NNM   20220721160108    1W    00000080000001389000000000032P8    YIYTM   000000000000YT129126
BI00B32P8    TAPAW-2102     2022091418007704160              AVSS 1.25F G             CCN000001600000001600FN00000000020221001000001600NNM   20220721160108    1W    00000080000001389000000000032P8    YIYTM   000000000000YT528095
BI00B32P8    TAPAW-2103     2022092118007704160              AVSS 1.25F G             CCN000004800000004800FN00000000020221001000004800NNM   20220721160108    1W    00000080000001389000000000032P8    YIYTM   000000000000YT129127
BI00B32P8    TAPAW-2104     2022092818007704160              AVSS 1.25F G             CCN000004000000004000FN00000000020221001000004000NNM   20220721160108    1W    00000080000001389000000000032P8    YIYTM   000000000000YT229154
BI00B32P8    TAPAW-2103     2022092118007704165              AVSS 1.25F G/R           CCN000000800000000800FN00000000020221001000000800NNM   20220721160108    1W    00000080000001389000000000032P8    YIYTM   000000000000YT129128
BI00B32P8    TAPAW-2104     2022092818007704165              AVSS 1.25F G/R           CCN000002400000002400FN00000000020221001000002400NNM   20220721160108    1W    00000080000001389000000000032P8    YIYTM   000000000000YT229155
BI00B32P8    TAPAW-2103     2022092118007704141              AVSS 1.25F GY            CCN000004800000004800FN00000000020221001000004800NNM   20220721160108    1W    00000080000001389000000000032P8    YIYTM   000000000000YT129129
BI00B32P8    TAPAW-2104     2022092818007704141              AVSS 1.25F GY            CCN000004800000004800FN00000000020221001000004800NNM   20220721160108    1W    00000080000001389000000000032P8    YIYTM   000000000000YT229156
BI00B32P8    TAPAW-2103     2022092118007704190              AVSS 1.25F L             CCN000001600000001600FN00000000020221001000001600NNM   20220721160108    1W    00000080000001389000000000032P8    YIYTM   000000000000YT129130
BI00B32P8    TAPAW-2104     2022092818007704190              AVSS 1.25F L             CCN000004000000004000FN00000000020221001000004000NNM   20220721160108    1W    00000080000001389000000000032P8    YIYTM   000000000000YT229157
BI00B32P8    TAPAW-2102     2022091418007704195              AVSS 1.25F L/R           CCN000000800000000800FN00000000020221001000000800NNM   20220721160108    1W    00000080000001389000000000032P8    YIYTM   000000000000YT528096
BI00B32P8    TAPAW-2103     2022092118007704195              AVSS 1.25F L/R           CCN000000800000000800FN00000000020221001000000800NNM   20220721160108    1W    00000080000001389000000000032P8    YIYTM   000000000000YT129131
BI00B32P8    TAPAW-2102     2022091418007704152              AVSS 1.25F P             CCN000000800000000800FN00000000020221001000000800NNM   20220721160108    1W    00000080000001389000000000032P8    YIYTM   000000000000YT528097
BI00B32P8    TAPAW-2103     2022092118007704152              AVSS 1.25F P             CCN000000800000000800FN00000000020221001000000800NNM   20220721160108    1W    00000080000001389000000000032P8    YIYTM   000000000000YT129132
BI00B32P8    TAPAW-2104     2022092818007704152              AVSS 1.25F P             CCN000000800000000800FN00000000020221001000000800NNM   20220721160108    1W    00000080000001389000000000032P8    YIYTM   000000000000YT229158
BI00B32P8    TAPAW-2103     2022092118007704143              AVSS 1.25F W/B           CCN000002400000002400FN00000000020221001000002400NNM   20220721160108    1W    00000080000001389000000000032P8    YIYTM   000000000000YT129134
BI00B32P8    TAPAW-2104     2022092818007704143              AVSS 1.25F W/B           CCN000003200000003200FN00000000020221001000003200NNM   20220721160108    1W    00000080000001389000000000032P8    YIYTM   000000000000YT229160
BI00B32P8    TAPAW-2101     2022090718007704145              AVSS 1.25F W/R           CCN000000800000000800FN00000000020221001000000800NNM   20220721160108    1W    00000080000001389000000000032P8    YIYTM   000000000000YT428075
BI00B32P8    TAPAW-2104     2022092818007704145              AVSS 1.25F W/R           CCN000000800000000800FN00000000020221001000000800NNM   20220721160108    1W    00000080000001389000000000032P8    YIYTM   000000000000YT229161
BI00B32P8    TAPAW-2104     2022092818007704170              AVSS 1.25F Y             CCN000005600000005600FN00000000020221001000005600NNM   20220721160108    1W    00000080000001389000000000032P8    YIYTM   000000000000YT229162
BI00B32P8    TAPAW-2102     2022091418007704173              AVSS 1.25F Y/B           CCN000001600000001600FN00000000020221001000001600NNM   20220721160108    1W    00000080000001389000000000032P8    YIYTM   000000000000YT528099
BI00B32P8    TAPAW-2103     2022092118007704173              AVSS 1.25F Y/B           CCN000002400000002400FN00000000020221001000002400NNM   20220721160108    1W    00000080000001389000000000032P8    YIYTM   000000000000YT129135
BI00B32P8    TAPAW-2104     2022092818007704173              AVSS 1.25F Y/B           CCN000002400000002400FN00000000020221001000002400NNM   20220721160108    1W    00000080000001389000000000032P8    YIYTM   000000000000YT229163
BI00B32P8    TAPAW-2102     20220914180D0203740              AVSSH 0.3F W             CCN000006000000006000FN00000000020221001000006000NNM   20220721160108    1W    00000200000000515000000000032P8    YIYTM   000000000000YT528051
BI00B32P8    TAPAW-2103     20220921180D0203740              AVSSH 0.3F W             CCN000004000000004000FN00000000020221001000004000NNM   20220721160108    1W    00000200000000515000000000032P8    YIYTM   000000000000YT129059
BI00B32P8    TAPAW-2104     20220928180D0203740              AVSSH 0.3F W             CCN000006000000006000FN00000000020221001000006000NNM   20220721160108    1W    00000200000000515000000000032P8    YIYTM   000000000000YT229063
BI00B32P8    TAPAW-2103     20220921180D0203930              AVSSH 0.5F B             CCN000013500000013500FN00000000020221001000013500NNM   20220721160108    1W    00000150000000689000000000032P8    YIYTM   000000000000YT129060
BI00B32P8    TAPAW-2104     20220928180D0203930              AVSSH 0.5F B             CCN000013500000013500FN00000000020221001000013500NNM   20220721160108    1W    00000150000000689000000000032P8    YIYTM   000000000000YT229064
BI00B32P8    TAPAW-2101     20220907180D0203934              AVSSH 0.5F B/W           CCN000001500000001500FN00000000020221001000001500NNM   20220721160108    1W    00000150000000689000000000032P8    YIYTM   000000000000YT428045
BI00B32P8    TAPAW-2102     20220914180D0203934              AVSSH 0.5F B/W           CCN000001500000001500FN00000000020221001000001500NNM   20220721160108    1W    00000150000000689000000000032P8    YIYTM   000000000000YT528052
BI00B32P8    TAPAW-2103     20220921180D0203934              AVSSH 0.5F B/W           CCN000001500000001500FN00000000020221001000001500NNM   20220721160108    1W    00000150000000689000000000032P8    YIYTM   000000000000YT129061
BI00B32P8    TAPAW-2104     20220928180D0203934              AVSSH 0.5F B/W           CCN000001500000001500FN00000000020221001000001500NNM   20220721160108    1W    00000150000000689000000000032P8    YIYTM   000000000000YT229065
BI00B32P8    TAPAW-2101     20220907180D0203937              AVSSH 0.5F B/Y           CCN000003000000003000FN00000000020221001000003000NNM   20220721160108    1W    00000150000000689000000000032P8    YIYTM   000000000000YT428046
BI00B32P8    TAPAW-2102     20220914180D0203937              AVSSH 0.5F B/Y           CCN000003000000003000FN00000000020221001000003000NNM   20220721160108    1W    00000150000000689000000000032P8    YIYTM   000000000000YT528053
BI00B32P8    TAPAW-2103     20220921180D0203937              AVSSH 0.5F B/Y           CCN000003000000003000FN00000000020221001000003000NNM   20220721160108    1W    00000150000000689000000000032P8    YIYTM   000000000000YT129062
BI00B32P8    TAPAW-2104     20220928180D0203937              AVSSH 0.5F B/Y           CCN000003000000003000FN00000000020221001000003000NNM   20220721160108    1W    00000150000000689000000000032P8    YIYTM   000000000000YT229066
BI00B32P8    TAPAW-2101     20220907180D0203964              AVSSH 0.5F G/W           CCN000006000000006000FN00000000020221001000006000NNM   20220721160108    1W    00000150000000689000000000032P8    YIYTM   000000000000YT428047
BI00B32P8    TAPAW-2102     20220914180D0203964              AVSSH 0.5F G/W           CCN000004500000004500FN00000000020221001000004500NNM   20220721160108    1W    00000150000000689000000000032P8    YIYTM   000000000000YT528054
BI00B32P8    TAPAW-2103     20220921180D0203964              AVSSH 0.5F G/W           CCN000003000000003000FN00000000020221001000003000NNM   20220721160108    1W    00000150000000689000000000032P8    YIYTM   000000000000YT129063
BI00B32P8    TAPAW-2104     20220928180D0203964              AVSSH 0.5F G/W           CCN000004500000004500FN00000000020221001000004500NNM   20220721160108    1W    00000150000000689000000000032P8    YIYTM   000000000000YT229067
BI00B32P8    TAPAW-2104     20220928180D0203990              AVSSH 0.5F L             CCN000007500000007500FN00000000020221001000007500NNM   20220721160108    1W    00000150000000689000000000032P8    YIYTM   000000000000YT229068
BI00B32P8    TAPAW-2103     20220921180D0203994              AVSSH 0.5F L/W           CCN000003000000003000FN00000000020221001000003000NNM   20220721160108    1W    00000150000000689000000000032P8    YIYTM   000000000000YT129064
BI00B32P8    TAPAW-2104     20220928180D0203994              AVSSH 0.5F L/W           CCN000006000000006000FN00000000020221001000006000NNM   20220721160108    1W    00000150000000689000000000032P8    YIYTM   000000000000YT229069
BI00B32P8    TAPAW-2101     20220907180D0203952              AVSSH 0.5F P             CCN000003000000003000FN00000000020221001000003000NNM   20220721160108    1W    00000150000000689000000000032P8    YIYTM   000000000000YT428048
BI00B32P8    TAPAW-2102     20220914180D0203952              AVSSH 0.5F P             CCN000003000000003000FN00000000020221001000003000NNM   20220721160108    1W    00000150000000689000000000032P8    YIYTM   000000000000YT528055
BI00B32P8    TAPAW-2103     20220921180D0203952              AVSSH 0.5F P             CCN000003000000003000FN00000000020221001000003000NNM   20220721160108    1W    00000150000000689000000000032P8    YIYTM   000000000000YT129065
BI00B32P8    TAPAW-2104     20220928180D0203952              AVSSH 0.5F P             CCN000004500000004500FN00000000020221001000004500NNM   20220721160108    1W    00000150000000689000000000032P8    YIYTM   000000000000YT229070
BI00B32P8    TAPAW-2101     20220907180D0203907              AVSSH 0.5F P/B           CCN000003000000003000FN00000000020221001000003000NNM   20220721160108    1W    00000150000000689000000000032P8    YIYTM   000000000000YT428049
BI00B32P8    TAPAW-2102     20220914180D0203907              AVSSH 0.5F P/B           CCN000001500000001500FN00000000020221001000001500NNM   20220721160108    1W    00000150000000689000000000032P8    YIYTM   000000000000YT528056
BI00B32P8    TAPAW-2103     20220921180D0203907              AVSSH 0.5F P/B           CCN000003000000003000FN00000000020221001000003000NNM   20220721160108    1W    00000150000000689000000000032P8    YIYTM   000000000000YT129066
BI00B32P8    TAPAW-2104     20220928180D0203907              AVSSH 0.5F P/B           CCN000003000000003000FN00000000020221001000003000NNM   20220721160108    1W    00000150000000689000000000032P8    YIYTM   000000000000YT229071
BI00B32P8    TAPAW-2101     20220907180D0203950              AVSSH 0.5F R             CCN000006000000006000FN00000000020221001000006000NNM   20220721160108    1W    00000150000000689000000000032P8    YIYTM   000000000000YT428050
BI00B32P8    TAPAW-2102     20220914180D0203950              AVSSH 0.5F R             CCN000010500000010500FN00000000020221001000010500NNM   20220721160108    1W    00000150000000689000000000032P8    YIYTM   000000000000YT528057
BI00B32P8    TAPAW-2103     20220921180D0203950              AVSSH 0.5F R             CCN000010500000010500FN00000000020221001000010500NNM   20220721160108    1W    00000150000000689000000000032P8    YIYTM   000000000000YT129067
BI00B32P8    TAPAW-2104     20220928180D0203950              AVSSH 0.5F R             CCN000010500000010500FN00000000020221001000010500NNM   20220721160108    1W    00000150000000689000000000032P8    YIYTM   000000000000YT229072
BI00B32P8    TAPAW-2103     20220921180D0203954              AVSSH 0.5F R/W           CCN000001500000001500FN00000000020221001000001500NNM   20220721160108    1W    00000150000000689000000000032P8    YIYTM   000000000000YT129068
BI00B32P8    TAPAW-2104     20220928180D0203954              AVSSH 0.5F R/W           CCN000003000000003000FN00000000020221001000003000NNM   20220721160108    1W    00000150000000689000000000032P8    YIYTM   000000000000YT229073
BI00B32P8    TAPAW-2101     20220907180D0203940              AVSSH 0.5F W             CCN000004500000004500FN00000000020221001000004500NNM   20220721160108    1W    00000150000000689000000000032P8    YIYTM   000000000000YT428051
BI00B32P8    TAPAW-2102     20220914180D0203940              AVSSH 0.5F W             CCN000004500000004500FN00000000020221001000004500NNM   20220721160108    1W    00000150000000689000000000032P8    YIYTM   000000000000YT528058
BI00B32P8    TAPAW-2103     20220921180D0203940              AVSSH 0.5F W             CCN000004500000004500FN00000000020221001000004500NNM   20220721160108    1W    00000150000000689000000000032P8    YIYTM   000000000000YT129069
BI00B32P8    TAPAW-2104     20220928180D0203940              AVSSH 0.5F W             CCN000006000000006000FN00000000020221001000006000NNM   20220721160108    1W    00000150000000689000000000032P8    YIYTM   000000000000YT229074
BI00B32P8    TAPAW-2104     20220928180D0203943              AVSSH 0.5F W/B           CCN000004500000004500FN00000000020221001000004500NNM   20220721160108    1W    00000150000000689000000000032P8    YIYTM   000000000000YT229075
BI00B32P8    TAPAW-2104     20220928180D0203970              AVSSH 0.5F Y             CCN000004500000004500FN00000000020221001000004500NNM   20220721160108    1W    00000150000000689000000000032P8    YIYTM   000000000000YT229076
BI00B32P8    TAPAW-2101     20220907180D0203973              AVSSH 0.5F Y/B           CCN000001500000001500FN00000000020221001000001500NNM   20220721160108    1W    00000150000000689000000000032P8    YIYTM   000000000000YT428052
BI00B32P8    TAPAW-2102     20220914180D0203973              AVSSH 0.5F Y/B           CCN000001500000001500FN00000000020221001000001500NNM   20220721160108    1W    00000150000000689000000000032P8    YIYTM   000000000000YT528059
BI00B32P8    TAPAW-2103     20220921180D0203973              AVSSH 0.5F Y/B           CCN000001500000001500FN00000000020221001000001500NNM   20220721160108    1W    00000150000000689000000000032P8    YIYTM   000000000000YT129070
BI00B32P8    TAPAW-2104     20220928180D0203973              AVSSH 0.5F Y/B           CCN000001500000001500FN00000000020221001000001500NNM   20220721160108    1W    00000150000000689000000000032P8    YIYTM   000000000000YT229077
BI00B32P8    TAPAW-2102     20220914180D0204030              AVSSH 0.75F B            CCN000001000000001000FN00000000020221001000001000NNM   20220721160108    1W    00000100000000934000000000032P8    YIYTM   000000000000YT528060
BI00B32P8    TAPAW-2103     20220921180D0204030              AVSSH 0.75F B            CCN000001000000001000FN00000000020221001000001000NNM   20220721160108    1W    00000100000000934000000000032P8    YIYTM   000000000000YT129071
BI00B32P8    TAPAW-2104     20220928180D0204030              AVSSH 0.75F B            CCN000001000000001000FN00000000020221001000001000NNM   20220721160108    1W    00000100000000934000000000032P8    YIYTM   000000000000YT229078
BI00B32P8    TAPAW-2102     20220914180D0204060              AVSSH 0.75F G            CCN000001000000001000FN00000000020221001000001000NNM   20220721160108    1W    00000100000000934000000000032P8    YIYTM   000000000000YT528061
BI00B32P8    TAPAW-2103     20220921180D0204060              AVSSH 0.75F G            CCN000001000000001000FN00000000020221001000001000NNM   20220721160108    1W    00000100000000934000000000032P8    YIYTM   000000000000YT129072
BI00B32P8    TAPAW-2104     20220928180D0204060              AVSSH 0.75F G            CCN000001000000001000FN00000000020221001000001000NNM   20220721160108    1W    00000100000000934000000000032P8    YIYTM   000000000000YT229079
BI00B32P8    TAPAW-2101     20220907180D0204054              AVSSH 0.75F R/W          CCN000005000000005000FN00000000020221001000005000NNM   20220721160108    1W    00000100000000934000000000032P8    YIYTM   000000000000YT428053
BI00B32P8    TAPAW-2102     20220914180D0204054              AVSSH 0.75F R/W          CCN000004000000004000FN00000000020221001000004000NNM   20220721160108    1W    00000100000000934000000000032P8    YIYTM   000000000000YT528062
BI00B32P8    TAPAW-2103     20220921180D0204054              AVSSH 0.75F R/W          CCN000005000000005000FN00000000020221001000005000NNM   20220721160108    1W    00000100000000934000000000032P8    YIYTM   000000000000YT129073
BI00B32P8    TAPAW-2104     20220928180D0204054              AVSSH 0.75F R/W          CCN000004000000004000FN00000000020221001000004000NNM   20220721160108    1W    00000100000000934000000000032P8    YIYTM   000000000000YT229080
BI00B32P8    TAPAW-2104     20220928180D0204049              AVSSH 0.75F W/L          CCN000001000000001000FN00000000020221001000001000NNM   20220721160108    1W    00000100000000934000000000032P8    YIYTM   000000000000YT229082
BI00B32P8    TAPAW-2101     20220907180D0204070              AVSSH 0.75F Y            CCN000001000000001000FN00000000020221001000001000NNM   20220721160108    1W    00000100000000934000000000032P8    YIYTM   000000000000YT428055
BI00B32P8    TAPAW-2102     20220914180D0204070              AVSSH 0.75F Y            CCN000002000000002000FN00000000020221001000002000NNM   20220721160108    1W    00000100000000934000000000032P8    YIYTM   000000000000YT528064
BI00B32P8    TAPAW-2103     20220921180D0204070              AVSSH 0.75F Y            CCN000001000000001000FN00000000020221001000001000NNM   20220721160108    1W    00000100000000934000000000032P8    YIYTM   000000000000YT129075
BI00B32P8    TAPAW-2104     20220928180D0204070              AVSSH 0.75F Y            CCN000001000000001000FN00000000020221001000001000NNM   20220721160108    1W    00000100000000934000000000032P8    YIYTM   000000000000YT229083
BI00B32P8    TAPAW-2103     20220921180D0204130              AVSSH 1.25F B            CCN000007200000007200FN00000000020221001000007200NNM   20220721160108    1W    00000080000001458000000000032P8    YIYTM   000000000000YT129076
BI00B32P8    TAPAW-2104     20220928180D0204130              AVSSH 1.25F B            CCN000010400000010400FN00000000020221001000010400NNM   20220721160108    1W    00000080000001458000000000032P8    YIYTM   000000000000YT229084
BI00B32P8    TAPAW-2102     20220914180D0204160              AVSSH 1.25F G            CCN000004800000004800FN00000000020221001000004800NNM   20220721160108    1W    00000080000001458000000000032P8    YIYTM   000000000000YT528065
BI00B32P8    TAPAW-2103     20220921180D0204160              AVSSH 1.25F G            CCN000008800000008800FN00000000020221001000008800NNM   20220721160108    1W    00000080000001458000000000032P8    YIYTM   000000000000YT129077
BI00B32P8    TAPAW-2104     20220928180D0204160              AVSSH 1.25F G            CCN000008800000008800FN00000000020221001000008800NNM   20220721160108    1W    00000080000001458000000000032P8    YIYTM   000000000000YT229085
BI00B32P8    TAPAW-2102     20220914180D0204190              AVSSH 1.25F L            CCN000005600000005600FN00000000020221001000005600NNM   20220721160108    1W    00000080000001458000000000032P8    YIYTM   000000000000YT528066
BI00B32P8    TAPAW-2103     20220921180D0204190              AVSSH 1.25F L            CCN000005600000005600FN00000000020221001000005600NNM   20220721160108    1W    00000080000001458000000000032P8    YIYTM   000000000000YT129078
BI00B32P8    TAPAW-2104     20220928180D0204190              AVSSH 1.25F L            CCN000005600000005600FN00000000020221001000005600NNM   20220721160108    1W    00000080000001458000000000032P8    YIYTM   000000000000YT229086
BI00B32P8    TAPAW-2101     20220907180D0204150              AVSSH 1.25F R            CCN000000800000000800FN00000000020221001000000800NNM   20220721160108    1W    00000080000001458000000000032P8    YIYTM   000000000000YT428056
BI00B32P8    TAPAW-2102     20220914180D0204150              AVSSH 1.25F R            CCN000002400000002400FN00000000020221001000002400NNM   20220721160108    1W    00000080000001458000000000032P8    YIYTM   000000000000YT528067
BI00B32P8    TAPAW-2103     20220921180D0204150              AVSSH 1.25F R            CCN000002400000002400FN00000000020221001000002400NNM   20220721160108    1W    00000080000001458000000000032P8    YIYTM   000000000000YT129079
BI00B32P8    TAPAW-2104     20220928180D0204150              AVSSH 1.25F R            CCN000002400000002400FN00000000020221001000002400NNM   20220721160108    1W    00000080000001458000000000032P8    YIYTM   000000000000YT229087
BI00B32P8    TAPAW-2103     20220921180D0204140              AVSSH 1.25F W            CCN000004000000004000FN00000000020221001000004000NNM   20220721160108    1W    00000080000001458000000000032P8    YIYTM   000000000000YT129080
BI00B32P8    TAPAW-2104     20220928180D0204140              AVSSH 1.25F W            CCN000010400000010400FN00000000020221001000010400NNM   20220721160108    1W    00000080000001458000000000032P8    YIYTM   000000000000YT229088
BI00B32P8    TAPAW-2103     20220921180D0204170              AVSSH 1.25F Y            CCN000004000000004000FN00000000020221001000004000NNM   20220721160108    1W    00000080000001458000000000032P8    YIYTM   000000000000YT129081
BI00B32P8    TAPAW-2104     20220928180D0204170              AVSSH 1.25F Y            CCN000004800000004800FN00000000020221001000004800NNM   20220721160108    1W    00000080000001458000000000032P8    YIYTM   000000000000YT229089
BI00B32P8    TAPAW-2102     202209141801W003980              IVSSH 0.5F BR            CCN000003600000003600FN00000000020221001000003600NNM   20220721160108    1W    00000180000000625000000000032P8    YIYTM   000000000000YT528101
BI00B32P8    TAPAW-2103     202209211801W003980              IVSSH 0.5F BR            CCN000010800000010800FN00000000020221001000010800NNM   20220721160108    1W    00000180000000625000000000032P8    YIYTM   000000000000YT129139
BI00B32P8    TAPAW-2104     202209281801W003980              IVSSH 0.5F BR            CCN000010800000010800FN00000000020221001000010800NNM   20220721160108    1W    00000180000000625000000000032P8    YIYTM   000000000000YT229170
BI00B32P8    TAPAW-2104     202209281801W003960              IVSSH 0.5F G             CCN000007200000007200FN00000000020221001000007200NNM   20220721160108    1W    00000180000000625000000000032P8    YIYTM   000000000000YT229171
BI00B32P8    TAPAW-2101     202209071801W004090              IVSSH 0.75F L            CCN000001300000001300FN00000000020221001000001300NNM   20220721160108    1W    00000130000000882000000000032P8    YIYTM   000000000000YT428078
BI00B32P8    TAPAW-2102     202209141801W004090              IVSSH 0.75F L            CCN000007800000007800FN00000000020221001000007800NNM   20220721160108    1W    00000130000000882000000000032P8    YIYTM   000000000000YT528102
BI00B32P8    TAPAW-2103     202209211801W004090              IVSSH 0.75F L            CCN000007800000007800FN00000000020221001000007800NNM   20220721160108    1W    00000130000000882000000000032P8    YIYTM   000000000000YT129140
BI00B32P8    TAPAW-2104     202209281801W004090              IVSSH 0.75F L            CCN000007800000007800FN00000000020221001000007800NNM   20220721160108    1W    00000130000000882000000000032P8    YIYTM   000000000000YT229173
BI00B32P8    TAPAW-2103     202209211801W004040              IVSSH 0.75F W            CCN000002600000002600FN00000000020221001000002600NNM   20220721160108    1W    00000130000000882000000000032P8    YIYTM   000000000000YT129141
BI00B32P8    TAPAW-2104     202209281801W004040              IVSSH 0.75F W            CCN000003900000003900FN00000000020221001000003900NNM   20220721160108    1W    00000130000000882000000000032P8    YIYTM   000000000000YT229174
BI00B32P8    TAPAW-2101     202209071801W004043              IVSSH 0.75F W/B          CCN000001300000001300FN00000000020221001000001300NNM   20220721160108    1W    00000130000000882000000000032P8    YIYTM   000000000000YT428079
BI00B32P8    TAPAW-2102     202209141801W004043              IVSSH 0.75F W/B          CCN000003900000003900FN00000000020221001000003900NNM   20220721160108    1W    00000130000000882000000000032P8    YIYTM   000000000000YT528103
BI00B32P8    TAPAW-2103     202209211801W004043              IVSSH 0.75F W/B          CCN000002600000002600FN00000000020221001000002600NNM   20220721160108    1W    00000130000000882000000000032P8    YIYTM   000000000000YT129142
BI00B32P8    TAPAW-2104     202209281801W004043              IVSSH 0.75F W/B          CCN000002600000002600FN00000000020221001000002600NNM   20220721160108    1W    00000130000000882000000000032P8    YIYTM   000000000000YT229175
BI00B32P8    TAPAW-2101     2022090718000004580              AV 8 BR                  CCN000000300000000300FN00000000020221001000000300NNM   20220721160108    1W    00000010000010466200000000032P8    YIYTM   000000000000YT428057
BI00B32P8    TAPAW-2102     2022091418000004580              AV 8 BR                  CCN000000600000000600FN00000000020221001000000600NNM   20220721160108    1W    00000010000010466200000000032P8    YIYTM   000000000000YT528069
BI00B32P8    TAPAW-2103     2022092118000004580              AV 8 BR                  CCN000000600000000600FN00000000020221001000000600NNM   20220721160108    1W    00000010000010466200000000032P8    YIYTM   000000000000YT129083
BI00B32P8    TAPAW-2104     2022092818000004580              AV 8 BR                  CCN000000600000000600FN00000000020221001000000600NNM   20220721160108    1W    00000010000010466200000000032P8    YIYTM   000000000000YT229091
BI00B32P8    TAPAW-2101     2022090718000004590              AV 8 L                   CCN000015900000015900FN00000000020221001000015900NNM   20220721160108    1W    00000010000010466200000000032P8    YIYTM   000000000000YT428059
BI00B32P8    TAPAW-2102     2022091418000004590              AV 8 L                   CCN000015600000015600FN00000000020221001000015600NNM   20220721160108    1W    00000010000010466200000000032P8    YIYTM   000000000000YT528071
BI00B32P8    TAPAW-2103     2022092118000004590              AV 8 L                   CCN000015600000015600FN00000000020221001000015600NNM   20220721160108    1W    00000010000010466200000000032P8    YIYTM   000000000000YT129085
BI00B32P8    TAPAW-2104     2022092818000004590              AV 8 L                   CCN000015500000015500FN00000000020221001000015500NNM   20220721160108    1W    00000010000010466200000000032P8    YIYTM   000000000000YT229093
BI00B32P8    TAPAW-2101     2022090718000004553              AV 8 R/B                 CCN000000100000000100FN00000000020221001000000100NNM   20220721160108    1W    00000010000010466200000000032P8    YIYTM   000000000000YT428061
BI00B32P8    TAPAW-2102     2022091418000004553              AV 8 R/B                 CCN000000100000000100FN00000000020221001000000100NNM   20220721160108    1W    00000010000010466200000000032P8    YIYTM   000000000000YT528073
BI00B32P8    TAPAW-2103     2022092118000004553              AV 8 R/B                 CCN000000200000000200FN00000000020221001000000200NNM   20220721160108    1W    00000010000010466200000000032P8    YIYTM   000000000000YT129087
BI00B32P8    TAPAW-2104     2022092818000004553              AV 8 R/B                 CCN000000100000000100FN00000000020221001000000100NNM   20220721160108    1W    00000010000010466200000000032P8    YIYTM   000000000000YT229095
BI00B32P8    TAPAW-2102     2022091418000004554              AV 8 R/W                 CCN000000300000000300FN00000000020221001000000300NNM   20220721160108    1W    00000010000010466200000000032P8    YIYTM   000000000000YT528074
BI00B32P8    TAPAW-2102     2022091418000004570              AV 8 Y                   CCN000001400000001400FN00000000020221001000001400NNM   20220721160108    1W    00000010000010466200000000032P8    YIYTM   000000000000YT528075
BI00B32P8    TAPAW-2103     2022092118000004570              AV 8 Y                   CCN000008900000008900FN00000000020221001000008900NNM   20220721160108    1W    00000010000010466200000000032P8    YIYTM   000000000000YT129089
BI00B32P8    TAPAW-2104     2022092818000004570              AV 8 Y                   CCN000009000000009000FN00000000020221001000009000NNM   20220721160108    1W    00000010000010466200000000032P8    YIYTM   000000000000YT229098
BI00B32P8    TAPAW-2101     2022090718007704003              AVSS 0.75F B/O           CCN000004000000004000FN00000000020221001000004000NNM   20220721160108    1W    00000100000000943000000000032P8    YIYTM   000000000000YT428071
BI00B32P8    TAPAW-2102     2022091418007704003              AVSS 0.75F B/O           CCN000002000000002000FN00000000020221001000002000NNM   20220721160108    1W    00000100000000943000000000032P8    YIYTM   000000000000YT528090
BI00B32P8    TAPAW-2103     2022092118007704003              AVSS 0.75F B/O           CCN000003000000003000FN00000000020221001000003000NNM   20220721160108    1W    00000100000000943000000000032P8    YIYTM   000000000000YT129113
BI00B32P8    TAPAW-2104     2022092818007704003              AVSS 0.75F B/O           CCN000003000000003000FN00000000020221001000003000NNM   20220721160108    1W    00000100000000943000000000032P8    YIYTM   000000000000YT229135
BI00B32P8    TAPAW-2104     20220928180077040F0              AVSS 0.75F GY/B          CCN000002000000002000FN00000000020221001000002000NNM   20220721160108    1W    00000100000000943000000000032P8    YIYTM   000000000000YT229140
BI00B32P8    TAPAW-2103     20220921180077040H1              AVSS 0.75F GY/G          CCN000001000000001000FN00000000020221001000001000NNM   20220721160108    1W    00000100000000943000000000032P8    YIYTM   000000000000YT129118
BI00B32P8    TAPAW-2104     20220928180077040H1              AVSS 0.75F GY/G          CCN000001000000001000FN00000000020221001000001000NNM   20220721160108    1W    00000100000000943000000000032P8    YIYTM   000000000000YT229141
BI00B32P8    TAPAW-2103     2022092118007704010              AVSS 0.75F GY/R          CCN000004000000004000FN00000000020221001000004000NNM   20220721160108    1W    00000100000000943000000000032P8    YIYTM   000000000000YT129119
BI00B32P8    TAPAW-2104     2022092818007704010              AVSS 0.75F GY/R          CCN000008000000008000FN00000000020221001000008000NNM   20220721160108    1W    00000100000000943000000000032P8    YIYTM   000000000000YT229143
BI00B32P8    TAPAW-2101     2022090718007704033              AVSS 0.75F V/W           CCN000002000000002000FN00000000020221001000002000NNM   20220721160108    1W    00000100000000943000000000032P8    YIYTM   000000000000YT428073
BI00B32P8    TAPAW-2104     2022092818007704033              AVSS 0.75F V/W           CCN000002000000002000FN00000000020221001000002000NNM   20220721160108    1W    00000100000000943000000000032P8    YIYTM   000000000000YT229149
BI00B32P8    TAPAW-2103     20220921180077040F7              AVSS 0.75F V/Y           CCN000004000000004000FN00000000020221001000004000NNM   20220721160108    1W    00000100000000943000000000032P8    YIYTM   000000000000YT129125
BI00B32P8    TAPAW-2104     20220928180077040F7              AVSS 0.75F V/Y           CCN000004000000004000FN00000000020221001000004000NNM   20220721160108    1W    00000100000000943000000000032P8    YIYTM   000000000000YT229150
BI00B32P8    TAPAW-2102     2022091418007704156              AVSS 1.25F R/G           CCN000002400000002400FN00000000020221001000002400NNM   20220721160108    1W    00000080000001389000000000032P8    YIYTM   000000000000YT528098
BI00B32P8    TAPAW-2103     2022092118007704156              AVSS 1.25F R/G           CCN000002400000002400FN00000000020221001000002400NNM   20220721160108    1W    00000080000001389000000000032P8    YIYTM   000000000000YT129133
BI00B32P8    TAPAW-2104     2022092818007704156              AVSS 1.25F R/G           CCN000002400000002400FN00000000020221001000002400NNM   20220721160108    1W    00000080000001389000000000032P8    YIYTM   000000000000YT229159
BI00B32P8    TAPAW-2103     2022092118007704174              AVSS 1.25F Y/W           CCN000000800000000800FN00000000020221001000000800NNM   20220721160108    1W    00000080000001389000000000032P8    YIYTM   000000000000YT129136
BI00B32P8    TAPAW-2104     2022092818007704174              AVSS 1.25F Y/W           CCN000001600000001600FN00000000020221001000001600NNM   20220721160108    1W    00000080000001389000000000032P8    YIYTM   000000000000YT229164
BI00B32P8    TAPAW-2101     20220907180D0204092              AVSSH 0.75F V            CCN000001000000001000FN00000000020221001000001000NNM   20220721160108    1W    00000100000000934000000000032P8    YIYTM   000000000000YT428054
BI00B32P8    TAPAW-2102     20220914180D0204092              AVSSH 0.75F V            CCN000002000000002000FN00000000020221001000002000NNM   20220721160108    1W    00000100000000934000000000032P8    YIYTM   000000000000YT528063
BI00B32P8    TAPAW-2103     20220921180D0204092              AVSSH 0.75F V            CCN000001000000001000FN00000000020221001000001000NNM   20220721160108    1W    00000100000000934000000000032P8    YIYTM   000000000000YT129074
BI00B32P8    TAPAW-2104     20220928180D0204092              AVSSH 0.75F V            CCN000001000000001000FN00000000020221001000001000NNM   20220721160108    1W    00000100000000934000000000032P8    YIYTM   000000000000YT229081
BI00B32P8    TAPAW-2102     202209141801R706090              CIVUS 1 L                CCN000001200000001200FN00000000020221001000001200NNM   20220721160108    1W    00000120000001016000000000032P8    YIYTM   000000000000YT528100
BI00B32P8    TAPAW-2104     202209281801R706090              CIVUS 1 L                CCN000001200000001200FN00000000020221001000001200NNM   20220721160108    1W    00000120000001016000000000032P8    YIYTM   000000000000YT229168
BI00B32P8    TAPAW-2104     202209281801W006930              IVSSH 0.35F B            CCN000047500000047500FN00000000020221001000047500NNM   20220721160108    1W    00000250000000452000000000032P8    YIYTM   000000000000YT229177
BI00B32P8    TAPAW-2101     202209071801W00695U              IVSSH 0.35F BE           CCN000005000000005000FN00000000020221001000005000NNM   20220721160108    1W    00000250000000452000000000032P8    YIYTM   000000000000YT428080
BI00B32P8    TAPAW-2102     202209141801W00695U              IVSSH 0.35F BE           CCN000010000000010000FN00000000020221001000010000NNM   20220721160108    1W    00000250000000452000000000032P8    YIYTM   000000000000YT528104
BI00B32P8    TAPAW-2103     202209211801W00695U              IVSSH 0.35F BE           CCN000010000000010000FN00000000020221001000010000NNM   20220721160108    1W    00000250000000452000000000032P8    YIYTM   000000000000YT129143
BI00B32P8    TAPAW-2104     202209281801W00695U              IVSSH 0.35F BE           CCN000010000000010000FN00000000020221001000010000NNM   20220721160108    1W    00000250000000452000000000032P8    YIYTM   000000000000YT229178
BI00B32P8    TAPAW-2103     202209211801W006990              IVSSH 0.35F L            CCN000020000000020000FN00000000020221001000020000NNM   20220721160108    1W    00000250000000452000000000032P8    YIYTM   000000000000YT129144
BI00B32P8    TAPAW-2104     202209281801W006990              IVSSH 0.35F L            CCN000075000000075000FN00000000020221001000075000NNM   20220721160108    1W    00000250000000452000000000032P8    YIYTM   000000000000YT229179
BI00B32P8    TAPAW-2102     202209141801W006961              IVSSH 0.35F LG           CCN000005000000005000FN00000000020221001000005000NNM   20220721160108    1W    00000250000000452000000000032P8    YIYTM   000000000000YT528105
BI00B32P8    TAPAW-2103     202209211801W006961              IVSSH 0.35F LG           CCN000012500000012500FN00000000020221001000012500NNM   20220721160108    1W    00000250000000452000000000032P8    YIYTM   000000000000YT129145
BI00B32P8    TAPAW-2104     202209281801W006961              IVSSH 0.35F LG           CCN000012500000012500FN00000000020221001000012500NNM   20220721160108    1W    00000250000000452000000000032P8    YIYTM   000000000000YT229180
BI00B32P8    TAPAW-2103     202209211801W006952              IVSSH 0.35F P            CCN000007500000007500FN00000000020221001000007500NNM   20220721160108    1W    00000250000000452000000000032P8    YIYTM   000000000000YT129146
BI00B32P8    TAPAW-2104     202209281801W006952              IVSSH 0.35F P            CCN000022500000022500FN00000000020221001000022500NNM   20220721160108    1W    00000250000000452000000000032P8    YIYTM   000000000000YT229181
BI00B32P8    TAPAW-2103     202209211801W006950              IVSSH 0.35F R            CCN000032500000032500FN00000000020221001000032500NNM   20220721160108    1W    00000250000000452000000000032P8    YIYTM   000000000000YT129147
BI00B32P8    TAPAW-2104     202209281801W006950              IVSSH 0.35F R            CCN000075000000075000FN00000000020221001000075000NNM   20220721160108    1W    00000250000000452000000000032P8    YIYTM   000000000000YT229182
BI00B32P8    TAPAW-2101     202209071801W006991              IVSSH 0.35F SB           CCN000010000000010000FN00000000020221001000010000NNM   20220721160108    1W    00000250000000452000000000032P8    YIYTM   000000000000YT428081
BI00B32P8    TAPAW-2102     202209141801W006991              IVSSH 0.35F SB           CCN000010000000010000FN00000000020221001000010000NNM   20220721160108    1W    00000250000000452000000000032P8    YIYTM   000000000000YT528106
BI00B32P8    TAPAW-2103     202209211801W006991              IVSSH 0.35F SB           CCN000010000000010000FN00000000020221001000010000NNM   20220721160108    1W    00000250000000452000000000032P8    YIYTM   000000000000YT129148
BI00B32P8    TAPAW-2104     202209281801W006991              IVSSH 0.35F SB           CCN000010000000010000FN00000000020221001000010000NNM   20220721160108    1W    00000250000000452000000000032P8    YIYTM   000000000000YT229183
BI00B32P8    TAPAW-2102     202209141801W006992              IVSSH 0.35F V            CCN000017500000017500FN00000000020221001000017500NNM   20220721160108    1W    00000250000000452000000000032P8    YIYTM   000000000000YT528107
BI00B32P8    TAPAW-2103     202209211801W006992              IVSSH 0.35F V            CCN000045000000045000FN00000000020221001000045000NNM   20220721160108    1W    00000250000000452000000000032P8    YIYTM   000000000000YT129149
BI00B32P8    TAPAW-2104     202209281801W006992              IVSSH 0.35F V            CCN000045000000045000FN00000000020221001000045000NNM   20220721160108    1W    00000250000000452000000000032P8    YIYTM   000000000000YT229184
BI00B32P8    TAPAW-2102     202209141801W006943              IVSSH 0.35F W/B          CCN000007500000007500FN00000000020221001000007500NNM   20220721160108    1W    00000250000000452000000000032P8    YIYTM   000000000000YT528108
BI00B32P8    TAPAW-2103     202209211801W006943              IVSSH 0.35F W/B          CCN000022500000022500FN00000000020221001000022500NNM   20220721160108    1W    00000250000000452000000000032P8    YIYTM   000000000000YT129150
BI00B32P8    TAPAW-2104     202209281801W006943              IVSSH 0.35F W/B          CCN000022500000022500FN00000000020221001000022500NNM   20220721160108    1W    00000250000000452000000000032P8    YIYTM   000000000000YT229185
BI00B32P8    TAPAW-2104     202209281801W006970              IVSSH 0.35F Y            CCN000027500000027500FN00000000020221001000027500NNM   20220721160108    1W    00000250000000452000000000032P8    YIYTM   000000000000YT229186
BI00B32P8    TAPAW-2103     202209211801W003930              IVSSH 0.5F B             CCN000034200000034200FN00000000020221001000034200NNM   20220721160108    1W    00000180000000625000000000032P8    YIYTM   000000000000YT129138
BI00B32P8    TAPAW-2104     202209281801W003930              IVSSH 0.5F B             CCN000054000000054000FN00000000020221001000054000NNM   20220721160108    1W    00000180000000625000000000032P8    YIYTM   000000000000YT229169
BI00B32P8    TAPAW-2104     202209281801W003952              IVSSH 0.5F P             CCN000007200000007200FN00000000020221001000007200NNM   20220721160108    1W    00000180000000625000000000032P8    YIYTM   000000000000YT229172
BI00B32P8    TAPAW-2104     202209281801W004070              IVSSH 0.75F Y            CCN000002600000002600FN00000000020221001000002600NNM   20220721160108    1W    00000130000000882000000000032P8    YIYTM   000000000000YT229176
BI00B32P8    @TAPAW-2104    20220928181E48027ZZ              CAVSAS-S 0.5X2 GY/P      CCN000000300000000300FN00000000020221001000000300NNM   20220721160105    1W    00000030000002561000000000032P8    YIYTM   000000000000YT229047
BI00B32P8    @TAPAW-2104    20220928181B32039Y8              AVSSCS 0.5FX1 DGY/R      CCN000000800000000800FN00000000020221001000000800NNM   20220721160105    1W    00000040000002289000000000032P8    YIYTM   000000000000YT229044
BI00B32P8    @TAPAW-2103    20220921181F21002ZZ              AVSSHCS-S 0.5FX1 B       CCN000000400000000400FN00000000020221001000000400NNM   20220721160105    1W    00000040000001908400000000032P8    YIYTM   000000000000YT129045
BI00B32P8    @TAPAW-2101    20220907181F21015ZZ              AVSSHCS-S 0.5FX2 B/P     CCN000000900000000900FN00000000020221001000000900NNM   20220721160105    1W    00000030000002531400000000032P8    YIYTM   000000000000YT428037
BI00B32P8    @TAPAW-2102    20220914181F21015ZZ              AVSSHCS-S 0.5FX2 B/P     CCN000000900000000900FN00000000020221001000000900NNM   20220721160105    1W    00000030000002531400000000032P8    YIYTM   000000000000YT528041
BI00B32P8    @TAPAW-2103    20220921181F21015ZZ              AVSSHCS-S 0.5FX2 B/P     CCN000001200000001200FN00000000020221001000001200NNM   20220721160105    1W    00000030000002531400000000032P8    YIYTM   000000000000YT129046
BI00B32P8    @TAPAW-2104    20220928181F21015ZZ              AVSSHCS-S 0.5FX2 B/P     CCN000001200000001200FN00000000020221001000001200NNM   20220721160105    1W    00000030000002531400000000032P8    YIYTM   000000000000YT229049
BI00B32P8    @TAPAW-2103    20220921181F21011ZZ              AVSSHCS-S 0.5FX2 B/R     CCN000000900000000900FN00000000020221001000000900NNM   20220721160105    1W    00000030000002531400000000032P8    YIYTM   000000000000YT129047
BI00B32P8    @TAPAW-2104    20220928181F21011ZZ              AVSSHCS-S 0.5FX2 B/R     CCN000001200000001200FN00000000020221001000001200NNM   20220721160105    1W    00000030000002531400000000032P8    YIYTM   000000000000YT229050
BI00B32P8    @TAPAW-2101    20220907181E48035ZZ              CAVSAS-S 0.5X3 GY        CCN000003800000003800FN00000000020221001000003800NNM   20220721160105    1W    00000020000003795300000000032P8    YIYTM   000000000000YT428036
BI00B32P8    @TAPAW-2102    20220914181E48035ZZ              CAVSAS-S 0.5X3 GY        CCN000003000000003000FN00000000020221001000003000NNM   20220721160105    1W    00000020000003795300000000032P8    YIYTM   000000000000YT528040
BI00B32P8    @TAPAW-2103    20220921181E48035ZZ              CAVSAS-S 0.5X3 GY        CCN000002600000002600FN00000000020221001000002600NNM   20220721160105    1W    00000020000003795300000000032P8    YIYTM   000000000000YT129044
BI00B32P8    @TAPAW-2104    20220928181E48035ZZ              CAVSAS-S 0.5X3 GY        CCN000002800000002800FN00000000020221001000002800NNM   20220721160105    1W    00000020000003795300000000032P8    YIYTM   000000000000YT229048
BI00B32P8    @TAPAW-2104    20220928181E48022ZZ              CAVSAS-S 0.5X2 GY        CCN000000600000000600FN00000000020221001000000600NNM   20220721160105    1W    00000030000002561000000000032P8    YIYTM   000000000000YT229046
BI00B32P8    @TAPAW-2102    20220914181AD2002ZZ              CIVUSAS-S 0.35X2 B       CCN000012600000012600FN00000000020221001000012600NNM   20220721160105    1W    00000045000001713700000000032P8    YIYTM   000000000000YT528036
BI00B32P8    @TAPAW-2103    20220921181AD2002ZZ              CIVUSAS-S 0.35X2 B       CCN000042300000042300FN00000000020221001000042300NNM   20220721160105    1W    00000045000001713700000000032P8    YIYTM   000000000000YT129040
BI00B32P8    @TAPAW-2104    20220928181AD2002ZZ              CIVUSAS-S 0.35X2 B       CCN000042300000042300FN00000000020221001000042300NNM   20220721160105    1W    00000045000001713700000000032P8    YIYTM   000000000000YT229041
BI00B32P8    @TAPAW-2101    20220907181AD2007ZZ              CIVUSAS-S 0.5X1 B        CCN000003000000003000FN00000000020221001000003000NNM   20220721160105    1W    00000050000001639600000000032P8    YIYTM   000000000000YT428034
BI00B32P8    @TAPAW-2102    20220914181AD2007ZZ              CIVUSAS-S 0.5X1 B        CCN000004500000004500FN00000000020221001000004500NNM   20220721160105    1W    00000050000001639600000000032P8    YIYTM   000000000000YT528035
BI00B32P8    @TAPAW-2103    20220921181AD2007ZZ              CIVUSAS-S 0.5X1 B        CCN000005000000005000FN00000000020221001000005000NNM   20220721160105    1W    00000050000001639600000000032P8    YIYTM   000000000000YT129039
BI00B32P8    @TAPAW-2104    20220928181AD2007ZZ              CIVUSAS-S 0.5X1 B        CCN000004500000004500FN00000000020221001000004500NNM   20220721160105    1W    00000050000001639600000000032P8    YIYTM   000000000000YT229040
BI00B32P8    @TAPAW-2102    20220914181AD2011ZZ              CIVUSAS-S 0.75X2 B       CCN000003150000003150FN00000000020221001000003150NNM   20220721160105    1W    00000035000002761100000000032P8    YIYTM   000000000000YT528037
BI00B32P8    @TAPAW-2103    20220921181AD2011ZZ              CIVUSAS-S 0.75X2 B       CCN000003150000003150FN00000000020221001000003150NNM   20220721160105    1W    00000035000002761100000000032P8    YIYTM   000000000000YT129041
BI00B32P8    @TAPAW-2104    20220928181AD2011ZZ              CIVUSAS-S 0.75X2 B       CCN000003500000003500FN00000000020221001000003500NNM   20220721160105    1W    00000035000002761100000000032P8    YIYTM   000000000000YT229042
BI00B32P8    @TAPAW-2101    20220907181AD2013ZZ              CIVUSAS-S 1.25X2 B       CCN000004840000004840FN00000000020221001000004840NNM   20220721160105    1W    00000022000003840000000000032P8    YIYTM   000000000000YT428035
BI00B32P8    @TAPAW-2102    20220914181AD2013ZZ              CIVUSAS-S 1.25X2 B       CCN000004180000004180FN00000000020221001000004180NNM   20220721160105    1W    00000022000003840000000000032P8    YIYTM   000000000000YT528038
BI00B32P8    @TAPAW-2103    20220921181AD2013ZZ              CIVUSAS-S 1.25X2 B       CCN000003960000003960FN00000000020221001000003960NNM   20220721160105    1W    00000022000003840000000000032P8    YIYTM   000000000000YT129042
BI00B32P8    @TAPAW-2104    20220928181AD2013ZZ              CIVUSAS-S 1.25X2 B       CCN000004180000004180FN00000000020221001000004180NNM   20220721160105    1W    00000022000003840000000000032P8    YIYTM   000000000000YT229043
BI00B32P8    @TAPAW-2102    20220914181CQ7003ZZ              IVSSHCS-S 0.5FX2 B(B,W)  CCN000002100000002100FN00000000020221001000002100NNM   20220721160105    1W    00000030000002350200000000032P8    YIYTM   000000000000YT528039
BI00B32P8    @TAPAW-2103    20220921181CQ7003ZZ              IVSSHCS-S 0.5FX2 B(B,W)  CCN000002700000002700FN00000000020221001000002700NNM   20220721160105    1W    00000030000002350200000000032P8    YIYTM   000000000000YT129043
BI00B32P8    @TAPAW-2104    20220928181CQ7003ZZ              IVSSHCS-S 0.5FX2 B(B,W)  CCN000002700000002700FN00000000020221001000002700NNM   20220721160105    1W    00000030000002350200000000032P8    YIYTM   000000000000YT229045
BI00B32P8    TAPAW-2093     20220817180D0203964              AVSSH 0.5F G/W           CCN000003000000001500FN00000000020220901000001500NNM00 20220721102005    1W    00000150000000689000000000032P8    YIYTM   000000000000YT128083
BI00A32P8    @TAPAW-2093    20220722181E48011ZZ              CAVSAS-S 0.3X1 GY/W      CCN000000500000000500FN00000000020220901000000500NNM20 20220721115855    1W    00000050000001529500000000032P8    YIYTM   000000000000YT128051
BI00A32P8    TAPAW-2093     20220722180D0203964              AVSSH 0.5F G/W           CCN000001500000001500FN00000000020220901000001500NNM20 20220721115855    1W    00000150000000689000000000032P8    YIYTM   000000000000YT128083
BI00A32P8    TAPAW-210A1    2022072518007704145              AVSS 1.25F W/R           CCN000000800000000800FN00000000020221001000000800NNE20 20220721115855    1W    00000080000001389000000000032P8    YIYTM   000000000000YA128071
BI00B32U5    @DW2039        20220826181AD2016ZZ              CIVUSAS-S 0.22X2 B       CCN000003000000003000FN00000000020221101000003000NNE   20220721135355U5  1W    00000050000001360800000000032U5    ASAMSD  000000000000AM228023
BI00B32U5    @DW2039        20220826181AD2017ZZ              CIVUSAS-S 0.22X3 B       CCN000001720000001720FN00000000020221101000001720NNE   20220721135355U5  1W    00000043000001678200000000032U5    ASAMSD  000000000000AM228024
BI00B32U5    @DW2039        20220826181F21027ZZ              AVSSHCS-S 1.25FX2 B      CCN000008800000008800FN00000000020221101000008800NNE   20220721135355U5  1W    00000020000004267300000000032U5    ASAMSD  000000000000AM228025
BI00B32W2    HN2208HWMW     2022080918000004590              AV 8 L                   CCN000000100000000100FN00000000020220801000000100NNE   20220721135314    1W    00000010000010466200000000032W2    HNHNY   000000000000HI427001
BI00B32W2    HN2208HWMW     2022080918000004550              AV 8 R                   CCN000010000000010000FN00000000020220801000010000NNE   20220721135314    1W    00000010000010466200000000032W2    HNHNY   000000000000HI427002
BI00A32W2    HN2208JWMW     2022072718000004560              AV 8 G                   CCN000003500000003500FN00000000020220801000003500NNE   20220721155935    1W    00000010000010466200000000032W2    HNHNY   000000000000HK227001
