BI00B1200    O022J50258     202210067116-4100-02             TERMINAL                 CCN000030000000030000FN00000000020221101000030000NNE   20220802122407    4P0P  0000150000000069600000099021200    YCYC    006400630015
BI00B1200    #Y022K50041    202210067174-1314-30             SEALED COVER             CCN000003200000003200FN00000000020221101000003200NNM   20220802122407    2F0F  0000008000000076930000088931200    YCYC    005500360039
BI00B1200    #Y022K50042    202210067174-1315-30             SEALED COVER             CCN000004000000004000FN00000000020221101000004000NNM   20220802122407    2F0F  0000008000000078200000090201200    YCYC    005500360039
BI00B1200    Y022K50043     202210067196-0648-02             TERMINAL                 CCN000060000000060000FN00000000020221101000060000NNM   20220802122407    4P0P  0000150000000035550000068971200    YCYC    006400630015
BI00B1200    Y022K50044     202210067289-6524-30             HOUSING FEMALE ASS'Y     CCN000003840000003840FN00000000020221101000003840NNM   20220802122407    4N0N  0000002400000135120000166621200    YCYC    005500360039
BI00B1200    Y022K50045     202210067289-9613-30             HOUSING FEMALE ASS'Y     CCN000003840000003840FN00000000020221101000003840NNM   20220802122407    4N0N  0000002400000126990000154371200    YCYC    005500360039
BI00B1200    Y022K50047     202210067288-9556-30             SEALED ASSY MALE         CCN000001440000001440FN00000000020221101000001440NNM   20220802122407    4N0N  0000007200000053790000078631200    YCYC    005500360039
BI00B32AF    JTK209A        202208117114-4020                TERMINAL                 CCN000084000000084000FN00000000020220801000084000NNE   20220802135904    4P0P  00002100000000875700001169332AF    HBYHVTB 006400630015
BI00B32AF    JTK209A        202208117116-4020                TERMINAL                 CCN000054000000054000FN00000000020220801000054000NNE   20220802135904    4P0P  00001350000000513000000798232AF    HBYHVTB 006400630015
BI00B32AG    XG22115CMW     202210287B96-0805-02             TERMINAL FEMALE          CCN000022500000022500FN00000000020221101000022500NNM   20220802163217    4P0P  00002250000000558000000843232AG    XGXGY   006400630015
BI00B32AG    XG22115CMW     202210287C89-6868-30             SEALED ASSY FEMALE       CCN000012600000012600FN00000000020221101000012600NNM   20220802163217    4N0N  00000252000000839200001119232AG    XGXGY   005500360039
BI00B32AG    XG22111CMW     202209307116-1685-02             TERMINAL                 CCN000024000000024000FN00000000020221101000024000NNM   20220802163217    4P0P  00002400000000897600001065232AG    XGXGY   005100280028
BI00B32AG    XG22115CMW     202210287116-1685-02             TERMINAL                 CCN000024000000024000FN00000000020221101000024000NNM   20220802163217    4P0P  00002400000000897600001065232AG    XGXGY   005100280028
BI00B32AG    XG22112CMW     202210077116-4032                TERMINAL                 CCN000006000000006000FN00000000020221101000006000NNM   20220802163217    4P0P  00000600000000532800000818032AG    XGXGY   006400630015
BI00B32AG    XG22113CMW     202210077116-4032                TERMINAL                 CCN000006000000006000FN00000000020221101000006000NNM   20220802163217    4P0P  00000600000000532800000818032AG    XGXGY   006400630015
BI00B32AG    XG22114CMW     202210217116-4032                TERMINAL                 CCN000006000000006000FN00000000020221101000006000NNM   20220802163217    4P0P  00000600000000532800000818032AG    XGXGY   006400630015
BI00B32AG    XG22115CMW     202210287116-4032                TERMINAL                 CCN000018000000018000FN00000000020221101000018000NNM   20220802163217    4P0P  00000600000000532800000818032AG    XGXGY   006400630015
BI00B32AG    XG22114CMW     202210217116-6041                TERMINAL                 CCN000036000000036000FN00000000020221101000036000NNM   20220802163217    4P0P  00000450000000716000001009632AG    XGXGY   006400630015
BI00B32AG    XG22115CMW     202210287116-6041                TERMINAL                 CCN000072000000072000FN00000000020221101000072000NNM   20220802163217    4P0P  00000450000000716000001009632AG    XGXGY   006400630015
BI00B32AG    XG22113CMW     202210077158-3070-80             RUBBER STOPPER           CCN000040000000040000FN00000000020221101000040000NNM   20220802163217    1C0C  00004000000000276000000333332AG    XGXGY   002700430014
BI00B32AG    XG22115CMW     202210287158-3070-80             RUBBER STOPPER           CCN000040000000040000FN00000000020221101000040000NNM   20220802163217    1C0C  00004000000000276000000333332AG    XGXGY   002700430014
BI00B32AG    XG22114CMW     202210217172-5540-80             SEALED WIRE SEAL         CCN000020000000020000FN00000000020221101000020000NNM   20220802163217    1C0C  00002000000000186000000234432AG    XGXGY   004300270014
BI00B32AG    XG22115CMW     202210287172-5540-80             SEALED WIRE SEAL         CCN000040000000040000FN00000000020221101000040000NNM   20220802163217    1C0C  00002000000000186000000234432AG    XGXGY   004300270014
BI00B32AG    XG22113CMW     202210077196-0805-02             TERMINAL FEMALE          CCN000022500000022500FN00000000020221101000022500NNM   20220802163217    4P0P  00002250000000558000000843232AG    XGXGY   006400630015
BI00B32AG    XG22114CMW     202210217196-0805-02             TERMINAL FEMALE          CCN000022500000022500FN00000000020221101000022500NNM   20220802163217    4P0P  00002250000000558000000843232AG    XGXGY   006400630015
BI00B32AG    XG22115CMW     202210287196-0805-02             TERMINAL FEMALE          CCN000045000000045000FN00000000020221101000045000NNM   20220802163217    4P0P  00002250000000558000000843232AG    XGXGY   006400630015
BI00B32AG    XG22114CMW     202210217298-3822-70             HOUSING FEMALE ASS'Y     CCN000007560000007560FN00000000020221101000007560NNM   20220802163217    4N0N  00000252000000776200001077032AG    XGXGY   005500360039
BI00B32AG    XG22115CMW     202210287298-3822-70             HOUSING FEMALE ASS'Y     CCN000015120000015120FN00000000020221101000015120NNM   20220802163217    4N0N  00000252000000776200001077032AG    XGXGY   005500360039
BI00B32AG    XG22114CMW     202210217327-6832-60             MAIN FUSE                CCN000004800000004800FN00000000020221101000004800NNM   20220802163217    4N0N  00000060000000729200000930732AG    XGXGY   005400370024
BI00B32AG    XG22115CMW     202210287327-6832-60             MAIN FUSE                CCN000006000000006000FN00000000020221101000006000NNM   20220802163217    4N0N  00000060000000729200000930732AG    XGXGY   005400370024
BI00B32AG    XG22113CMW     202210077327-6908                MAIN FUSE                CCN000001200000001200FN00000000020221101000001200NNM   20220802163217    4N0N  00000060000000730400000915432AG    XGXGY   005400370024
BI00B32AG    XG22114CMW     202210217327-6908                MAIN FUSE                CCN000000600000000600FN00000000020221101000000600NNM   20220802163217    4N0N  00000060000000730400000915432AG    XGXGY   005400370024
BI00B32AG    XG22115CMW     202210287327-6908                MAIN FUSE                CCN000001200000001200FN00000000020221101000001200NNM   20220802163217    4N0N  00000060000000730400000915432AG    XGXGY   005400370024
BI00B32AG    XG22114CMW     202210217388-0316-80             CONNECTOR ASS'Y          CCN000004800000004800FN00000000020221101000004800NNM   20220802163217    4N0N  00000120000001002500001132532AG    XGXGY   005400370024
BI00B32AG    XG22115CMW     202210287388-0316-80             CONNECTOR ASS'Y          CCN000007200000007200FN00000000020221101000007200NNM   20220802163217    4N0N  00000120000001002500001132532AG    XGXGY   005400370024
BI00B32AG    #XG22115CMW    202210287157-3821                RUBBER STOPPER           CCN000020000000020000FN00000000020221101000020000NNM   20220802163212    2C0C  00002000000000176000000238032AG    XGXGY   002700430014
BI00B32AG    #XG22114CMW    202210217198-1371-60             HOUSING FEMALE           CCN000004000000004000FN00000000020221101000004000NNM   20220802163212    2F0F  00000200000000597800000721232AG    XGXGY   005400370024
BI00B32AG    #XG22115CMW    202210287198-1371-60             HOUSING FEMALE           CCN000006000000006000FN00000000020221101000006000NNM   20220802163212    2F0F  00000200000000597800000721232AG    XGXGY   005400370024
BI00B32AG    #XG22114CMW    202210217198-1372                HOUSING FEMALE           CCN000006000000006000FN00000000020221101000006000NNM   20220802163212    2F0F  00000200000000857200000982232AG    XGXGY   005400370024
BI00B32AG    #XG22115CMW    202210287198-1372                HOUSING FEMALE           CCN000008000000008000FN00000000020221101000008000NNM   20220802163212    2F0F  00000200000000857200000982232AG    XGXGY   005400370024
BI00B32AG    #XG22114CMW    202210217198-1373-60             HOUSING FEMALE           CCN000006000000006000FN00000000020221101000006000NNM   20220802163212    2F0F  00000200000000819400000947432AG    XGXGY   005400370024
BI00B32AG    #XG22115CMW    202210287198-1373-60             HOUSING FEMALE           CCN000008000000008000FN00000000020221101000008000NNM   20220802163212    2F0F  00000200000000819400000947432AG    XGXGY   005400370024
BI00B32AG    #XG22114CMW    202210217198-2458                HOUSING FEMALE           CCN000005280000005280FN00000000020221101000005280NNM   20220802163212    2F0F  00000176000000869100001160532AG    XGXGY   005400370024
BI00B32AG    #XG22115CMW    202210287198-2458                HOUSING FEMALE           CCN000008800000008800FN00000000020221101000008800NNM   20220802163212    2F0F  00000176000000869100001160532AG    XGXGY   005400370024
BI00B32AG    #XG22113CMW    202210077298-2459-60             LIF FEMALE ASSEMBLY      CCN000001848000001848FN00000000020221101000001848NNM   20220802163212    2N0N  00000016800000534000000729632AG    XGXGY   005400370024
BI00B32AG    #XG22114CMW    202210217298-2459-60             LIF FEMALE ASSEMBLY      CCN000004200000004200FN00000000020221101000004200NNM   20220802163212    2N0N  00000016800000534000000729632AG    XGXGY   005400370024
BI00B32AG    #XG22115CMW    202210287298-2459-60             LIF FEMALE ASSEMBLY      CCN000007392000007392FN00000000020221101000007392NNM   20220802163212    2N0N  00000016800000534000000729632AG    XGXGY   005400370024
BI00B32AG    XG22111GMW     202209307327-6840-3W             BATTERY FUSE             CCN000001008000001008FN00000000020221101000001008NNM   20220802163230    4N0N  00000007200001140900001355932AG    XGXGY   005500360039
BI00B32AG    XG22112GMW     202210077327-6840-3W             BATTERY FUSE             CCN000001008000001008FN00000000020221101000001008NNM   20220802163230    4N0N  00000007200001140900001355932AG    XGXGY   005500360039
BI00B32AG    XG22113GMW     202210077327-6840-3W             BATTERY FUSE             CCN000000864000000864FN00000000020221101000000864NNM   20220802163230    4N0N  00000007200001140900001355932AG    XGXGY   005500360039
BI00B32AG    XG22114GMW     202210217327-6840-3W             BATTERY FUSE             CCN000000864000000864FN00000000020221101000000864NNM   20220802163230    4N0N  00000007200001140900001355932AG    XGXGY   005500360039
BI00B32AG    XG22115GMW     202210287327-6840-3W             BATTERY FUSE             CCN000001080000001080FN00000000020221101000001080NNM   20220802163230    4N0N  00000007200001140900001355932AG    XGXGY   005500360039
BI00B32AG    #XG22112HMW    202210077158-3005-80             RUBBER STOPPER           CCN000020000000020000FN00000000020221101000020000NNM   20220802163301    2H0H  00002000000000210000000268732AG    XGXGY   002700430014
BI00B32AG    #XG22114HMW    202210217158-3005-80             RUBBER STOPPER           CCN000020000000020000FN00000000020221101000020000NNM   20220802163301    2H0H  00002000000000210000000268732AG    XGXGY   002700430014
BI00B32AG    XG22111LMW     202209307017-1183-02             TERMINAL                 CCN000054000000054000FN00000000020221101000054000NNM   20220802163453    4P0P  00002700000001139400001307432AG    XGXGY   005100280028
BI00B32AG    XG22112LMW     202210077017-1183-02             TERMINAL                 CCN000054000000054000FN00000000020221101000054000NNM   20220802163453    4P0P  00002700000001139400001307432AG    XGXGY   005100280028
BI00B32AG    XG22113LMW     202210077017-1183-02             TERMINAL                 CCN000027000000027000FN00000000020221101000027000NNM   20220802163453    4P0P  00002700000001139400001307432AG    XGXGY   005100280028
BI00B32AG    XG22114LMW     202210217017-1183-02             TERMINAL                 CCN000027000000027000FN00000000020221101000027000NNM   20220802163453    4P0P  00002700000001139400001307432AG    XGXGY   005100280028
BI00B32AG    XG22115LMW     202210287017-1183-02             TERMINAL                 CCN000027000000027000FN00000000020221101000027000NNM   20220802163453    4P0P  00002700000001139400001307432AG    XGXGY   005100280028
BI00B32AG    XG22113LMW     202210077116-4025                TERMINAL                 CCN000016000000016000FN00000000020221101000016000NNM   20220802163453    4P0P  00001600000000644800000975132AG    XGXGY   006400630017
BI00B32AG    XG22114LMW     202210217116-4025                TERMINAL                 CCN000016000000016000FN00000000020221101000016000NNM   20220802163453    4P0P  00001600000000644800000975132AG    XGXGY   006400630017
BI00B32AG    XG22115LMW     202210287116-4025                TERMINAL                 CCN000048000000048000FN00000000020221101000048000NNM   20220802163453    4P0P  00001600000000644800000975132AG    XGXGY   006400630017
BI00B32AG    XG22113LMW     202210077116-4026                TERMINAL                 CCN000048000000048000FN00000000020221101000048000NNM   20220802163453    4P0P  00001600000000664000000994332AG    XGXGY   006400630017
BI00B32AG    XG22114LMW     202210217116-4026                TERMINAL                 CCN000032000000032000FN00000000020221101000032000NNM   20220802163453    4P0P  00001600000000664000000994332AG    XGXGY   006400630017
BI00B32AG    XG22115LMW     202210287116-4026                TERMINAL                 CCN000048000000048000FN00000000020221101000048000NNM   20220802163453    4P0P  00001600000000664000000994332AG    XGXGY   006400630017
BI00B32AG    XG22113LMW     202210077172-1372-10             FRONT HOLDER             CCN000003900000003900FN00000000020221101000003900NNM   20220802163453    4F0F  00000390000000655200000955232AG    XGXGY   005500360039
BI00B32AG    XG22114LMW     202210217172-1372-10             FRONT HOLDER             CCN000003900000003900FN00000000020221101000003900NNM   20220802163453    4F0F  00000390000000655200000955232AG    XGXGY   005500360039
BI00B32AG    XG22115LMW     202210287172-1372-10             FRONT HOLDER             CCN000003900000003900FN00000000020221101000003900NNM   20220802163453    4F0F  00000390000000655200000955232AG    XGXGY   005500360039
BI00B32AG    XG22113LMW     202210077289-4696-30             HOUSING FEMALE ASS'Y     CCN000004000000004000FN00000000020221101000004000NNM   20220802163453    4N0N  00000200000000913400001055432AG    XGXGY   005400370024
BI00B32AG    XG22114LMW     202210217289-4696-30             HOUSING FEMALE ASS'Y     CCN000012000000012000FN00000000020221101000012000NNM   20220802163453    4N0N  00000200000000913400001055432AG    XGXGY   005400370024
BI00B32AG    XG22115LMW     202210287289-4696-30             HOUSING FEMALE ASS'Y     CCN000014000000014000FN00000000020221101000014000NNM   20220802163453    4N0N  00000200000000913400001055432AG    XGXGY   005400370024
BI00B32AG    XG22113LMW     202210077289-7615-30             HOUSING FEMALE ASS'Y     CCN000002560000002560FN00000000020221101000002560NNM   20220802163453    4N0N  00000032000000738000000948032AG    XGXGY   005400370024
BI00B32AG    XG22114LMW     202210217289-7615-30             HOUSING FEMALE ASS'Y     CCN000004160000004160FN00000000020221101000004160NNM   20220802163453    4N0N  00000032000000738000000948032AG    XGXGY   005400370024
BI00B32AG    XG22115LMW     202210287289-7615-30             HOUSING FEMALE ASS'Y     CCN000004160000004160FN00000000020221101000004160NNM   20220802163453    4N0N  00000032000000738000000948032AG    XGXGY   005400370024
BI00B32AG    XG22111LMW     202209307388-0314                CONNECTOR ASS'Y          CCN000001200000001200FN00000000020221101000001200NNM   20220802163453    4N0N  00000120000001038000001132332AG    XGXGY   005400370024
BI00B32AG    #XG22113LMW    202210077157-3992-90             CONNECTOR SEALED         CCN000040000000040000FN00000000020221101000040000NNM   20220802163449    2C0C  00004000000000300000000363332AG    XGXGY   002700430014
BI00B32AG    #XG22113LMW    202210077158-3003-90             RUBBER STOPPER           CCN000040000000040000FN00000000020221101000040000NNM   20220802163449    2C0C  00002000000000250000000306032AG    XGXGY   002700430014
BI00B32AG    #XG22114LMW    202210217158-3003-90             RUBBER STOPPER           CCN000060000000060000FN00000000020221101000060000NNM   20220802163449    2C0C  00002000000000250000000306032AG    XGXGY   002700430014
BI00B32AG    #XG22115LMW    202210287158-3003-90             RUBBER STOPPER           CCN000060000000060000FN00000000020221101000060000NNM   20220802163449    2C0C  00002000000000250000000306032AG    XGXGY   002700430014
BI00B32AG    #XG22114LMW    202210217158-3008-80             RUBBER STOPPER           CCN000020000000020000FN00000000020221101000020000NNM   20220802163449    2C0C  00002000000000288000000343032AG    XGXGY   004300270014
BI00B32AG    #XG22114LMW    202210217158-3120-90             CONNECTOR WIRE SEAL      CCN000020000000020000FN00000000020221101000020000NNM   20220802163449    2C0C  00002000000000136000000194032AG    XGXGY   002700430014
BI00B32AG    #XG22115LMW    202210287158-3120-90             CONNECTOR WIRE SEAL      CCN000060000000060000FN00000000020221101000060000NNM   20220802163449    2C0C  00002000000000136000000194032AG    XGXGY   002700430014
BI00B32AG    #XG22112LMW    202210077158-3121-80             WIRE SEAL                CCN000020000000020000FN00000000020221101000020000NNM   20220802163449    2C0C  00002000000000118000000187332AG    XGXGY   002700430014
BI00B32AG    #XG22113LMW    202210077158-3121-80             WIRE SEAL                CCN000020000000020000FN00000000020221101000020000NNM   20220802163449    2C0C  00002000000000118000000187332AG    XGXGY   002700430014
BI00B32AG    #XG22114LMW    202210217158-3121-80             WIRE SEAL                CCN000020000000020000FN00000000020221101000020000NNM   20220802163449    2C0C  00002000000000118000000187332AG    XGXGY   002700430014
BI00B32AG    #XG22115LMW    202210287158-3121-80             WIRE SEAL                CCN000020000000020000FN00000000020221101000020000NNM   20220802163449    2C0C  00002000000000118000000187332AG    XGXGY   002700430014
BI00B32AG    #XG22113LMW    202210077158-3654-80             WIRE TUBE                CCN000080000000080000FN00000000020221101000080000NNM   20220802163449    2H0H  00004000000000104000000152232AG    XGXGY   004300270014
BI00B32AG    #XG22114LMW    202210217158-3654-80             WIRE TUBE                CCN000080000000080000FN00000000020221101000080000NNM   20220802163449    2H0H  00004000000000104000000152232AG    XGXGY   004300270014
BI00B32AG    #XG22115LMW    202210287158-3654-80             WIRE TUBE                CCN000120000000120000FN00000000020221101000120000NNM   20220802163449    2H0H  00004000000000104000000152232AG    XGXGY   004300270014
BI00B32AG    #XG22112LMW    202210077182-9631-40             JOINT CONNECTOR          CCN000003000000003000FN00000000020221101000003000NNM   20220802163449    2F0F  00000300000001182000001307432AG    XGXGY   005400370024
BI00B32AG    #XG22113LMW    202210077182-9631-40             JOINT CONNECTOR          CCN000003000000003000FN00000000020221101000003000NNM   20220802163449    2F0F  00000300000001182000001307432AG    XGXGY   005400370024
BI00B32AG    #XG22114LMW    202210217182-9631-40             JOINT CONNECTOR          CCN000003000000003000FN00000000020221101000003000NNM   20220802163449    2F0F  00000300000001182000001307432AG    XGXGY   005400370024
BI00B32AG    #XG22115LMW    202210287182-9631-40             JOINT CONNECTOR          CCN000006000000006000FN00000000020221101000006000NNM   20220802163449    2F0F  00000300000001182000001307432AG    XGXGY   005400370024
BI00B32AG    #XG22113LMW    202210077182-9633-40             JOINT CONNECTOR          CCN000006000000006000FN00000000020221101000006000NNM   20220802163449    2F0F  00000300000001335000001460532AG    XGXGY   005400370024
BI00B32AG    #XG22114LMW    202210217182-9633-40             JOINT CONNECTOR          CCN000006000000006000FN00000000020221101000006000NNM   20220802163449    2F0F  00000300000001335000001460532AG    XGXGY   005400370024
BI00B32AG    #XG22115LMW    202210287182-9633-40             JOINT CONNECTOR          CCN000006000000006000FN00000000020221101000006000NNM   20220802163449    2F0F  00000300000001335000001460532AG    XGXGY   005400370024
BI00B32AG    XG22111NMW     202209307116-4120-02             TERMINAL                 CCN000018000000018000FN00000000020221101000018000NNM   20220802163511    4P0P  00000600000000780000001073632AG    XGXGY   006400630015
BI00B32AG    XG22112NMW     202210077116-4120-02             TERMINAL                 CCN000018000000018000FN00000000020221101000018000NNM   20220802163511    4P0P  00000600000000780000001073632AG    XGXGY   006400630015
BI00B32AG    XG22113NMW     202210077116-4120-02             TERMINAL                 CCN000012000000012000FN00000000020221101000012000NNM   20220802163511    4P0P  00000600000000780000001073632AG    XGXGY   006400630015
BI00B32AG    XG22114NMW     202210217116-4120-02             TERMINAL                 CCN000012000000012000FN00000000020221101000012000NNM   20220802163511    4P0P  00000600000000780000001073632AG    XGXGY   006400630015
BI00B32AG    XG22115NMW     202210287116-4120-02             TERMINAL                 CCN000012000000012000FN00000000020221101000012000NNM   20220802163511    4P0P  00000600000000780000001073632AG    XGXGY   006400630015
BI00B32AG    XG22111NMW     202209307116-4121-02             TERMINAL                 CCN000022500000022500FN00000000020221101000022500NNM   20220802163511    4P0P  00000450000000618800000912432AG    XGXGY   006400630015
BI00B32AG    XG22112NMW     202210077116-4121-02             TERMINAL                 CCN000067500000067500FN00000000020221101000067500NNM   20220802163511    4P0P  00000450000000618800000912432AG    XGXGY   006400630015
BI00B32AG    XG22113NMW     202210077116-4121-02             TERMINAL                 CCN000058500000058500FN00000000020221101000058500NNM   20220802163511    4P0P  00000450000000618800000912432AG    XGXGY   006400630015
BI00B32AG    XG22114NMW     202210217116-4121-02             TERMINAL                 CCN000054000000054000FN00000000020221101000054000NNM   20220802163511    4P0P  00000450000000618800000912432AG    XGXGY   006400630015
BI00B32AG    XG22115NMW     202210287116-4121-02             TERMINAL                 CCN000067500000067500FN00000000020221101000067500NNM   20220802163511    4P0P  00000450000000618800000912432AG    XGXGY   006400630015
BI00B32AG    XG22112NMW     202210077116-4122-02             TERMINAL                 CCN000004500000004500FN00000000020221101000004500NNM   20220802163511    4P0P  00000450000000656600000950232AG    XGXGY   006400630015
BI00B32AG    XG22113NMW     202210077116-4122-02             TERMINAL                 CCN000004500000004500FN00000000020221101000004500NNM   20220802163511    4P0P  00000450000000656600000950232AG    XGXGY   006400630015
BI00B32AG    XG22114NMW     202210217116-4122-02             TERMINAL                 CCN000009000000009000FN00000000020221101000009000NNM   20220802163511    4P0P  00000450000000656600000950232AG    XGXGY   006400630015
BI00B32AG    XG22115NMW     202210287116-4122-02             TERMINAL                 CCN000009000000009000FN00000000020221101000009000NNM   20220802163511    4P0P  00000450000000656600000950232AG    XGXGY   006400630015
BI00B32AG    XG22113NMW     202210077116-4415-02             TERMINAL                 CCN000076000000076000FN00000000020221101000076000NNM   20220802163511    4P0P  00003800000000596600000925732AG    XGXGY   006400630017
BI00B32AG    XG22114NMW     202210217116-4415-02             TERMINAL                 CCN000418000000418000FN00000000020221101000418000NNM   20220802163511    4P0P  00003800000000596600000925732AG    XGXGY   006400630017
BI00B32AG    XG22115NMW     202210287116-4415-02             TERMINAL                 CCN000570000000570000FN00000000020221101000570000NNM   20220802163511    4P0P  00003800000000596600000925732AG    XGXGY   006400630017
BI00B32AG    XG22113NMW     202210077126-8853-02             TERMINAL                 CCN000015000000015000FN00000000020221101000015000NNM   20220802163511    4P0P  00000750000000562500000847732AG    XGXGY   006400630015
BI00B32AG    XG22114NMW     202210217126-8853-02             TERMINAL                 CCN000060000000060000FN00000000020221101000060000NNM   20220802163511    4P0P  00000750000000562500000847732AG    XGXGY   006400630015
BI00B32AG    XG22115NMW     202210287126-8853-02             TERMINAL                 CCN000067500000067500FN00000000020221101000067500NNM   20220802163511    4P0P  00000750000000562500000847732AG    XGXGY   006400630015
BI00B32AG    XG22111NMW     202209307126-8855-02             TERMINAL                 CCN000018000000018000FN00000000020221101000018000NNM   20220802163511    4P0P  00000600000000510600000795832AG    XGXGY   006400630015
BI00B32AG    XG22112NMW     202210077126-8855-02             TERMINAL                 CCN000018000000018000FN00000000020221101000018000NNM   20220802163511    4P0P  00000600000000510600000795832AG    XGXGY   006400630015
BI00B32AG    XG22113NMW     202210077126-8855-02             TERMINAL                 CCN000012000000012000FN00000000020221101000012000NNM   20220802163511    4P0P  00000600000000510600000795832AG    XGXGY   006400630015
BI00B32AG    XG22114NMW     202210217126-8855-02             TERMINAL                 CCN000018000000018000FN00000000020221101000018000NNM   20220802163511    4P0P  00000600000000510600000795832AG    XGXGY   006400630015
BI00B32AG    XG22115NMW     202210287126-8855-02             TERMINAL                 CCN000012000000012000FN00000000020221101000012000NNM   20220802163511    4P0P  00000600000000510600000795832AG    XGXGY   006400630015
BI00B32AG    XG22112NMW     202210077158-3165-90             WIRE SEAL                CCN000080000000080000FN00000000020221101000080000NNM   20220802163511    1C0C  00004000000000124000000172432AG    XGXGY   004300270014
BI00B32AG    XG22113NMW     202210077158-3165-90             WIRE SEAL                CCN000200000000200000FN00000000020221101000200000NNM   20220802163511    1C0C  00004000000000124000000172432AG    XGXGY   004300270014
BI00B32AG    XG22114NMW     202210217158-3165-90             WIRE SEAL                CCN000200000000200000FN00000000020221101000200000NNM   20220802163511    1C0C  00004000000000124000000172432AG    XGXGY   004300270014
BI00B32AG    XG22115NMW     202210287158-3165-90             WIRE SEAL                CCN000240000000240000FN00000000020221101000240000NNM   20220802163511    1C0C  00004000000000124000000172432AG    XGXGY   004300270014
BI00B32AG    XG22112NMW     202210077158-3166-60             WIRE SEAL                CCN000280000000280000FN00000000020221101000280000NNM   20220802163511    1C0C  00004000000000104000000152432AG    XGXGY   002700430014
BI00B32AG    XG22113NMW     202210077158-3166-60             WIRE SEAL                CCN000320000000320000FN00000000020221101000320000NNM   20220802163511    1C0C  00004000000000104000000152432AG    XGXGY   002700430014
BI00B32AG    XG22114NMW     202210217158-3166-60             WIRE SEAL                CCN000360000000360000FN00000000020221101000360000NNM   20220802163511    1C0C  00004000000000104000000152432AG    XGXGY   002700430014
BI00B32AG    XG22115NMW     202210287158-3166-60             WIRE SEAL                CCN000400000000400000FN00000000020221101000400000NNM   20220802163511    1C0C  00004000000000104000000152432AG    XGXGY   002700430014
BI00B32AG    XG22112NMW     202210077158-3167-80             WIRE SEAL                CCN000220000000220000FN00000000020221101000220000NNM   20220802163511    1C0C  00002000000000048000000109032AG    XGXGY   002700430014
BI00B32AG    XG22113NMW     202210077158-3167-80             WIRE SEAL                CCN000220000000220000FN00000000020221101000220000NNM   20220802163511    1C0C  00002000000000048000000109032AG    XGXGY   002700430014
BI00B32AG    XG22114NMW     202210217158-3167-80             WIRE SEAL                CCN000220000000220000FN00000000020221101000220000NNM   20220802163511    1C0C  00002000000000048000000109032AG    XGXGY   002700430014
BI00B32AG    XG22115NMW     202210287158-3167-80             WIRE SEAL                CCN000240000000240000FN00000000020221101000240000NNM   20220802163511    1C0C  00002000000000048000000109032AG    XGXGY   002700430014
BI00B32AG    XG22112NMW     202210077158-3168-80             SEALED                   CCN000040000000040000FN00000000020221101000040000NNM   20220802163511    1C0C  00002000000000044000000092132AG    XGXGY   004300260014
BI00B32AG    XG22113NMW     202210077158-3168-80             SEALED                   CCN000040000000040000FN00000000020221101000040000NNM   20220802163511    1C0C  00002000000000044000000092132AG    XGXGY   004300260014
BI00B32AG    XG22114NMW     202210217158-3168-80             SEALED                   CCN000040000000040000FN00000000020221101000040000NNM   20220802163511    1C0C  00002000000000044000000092132AG    XGXGY   004300260014
BI00B32AG    XG22115NMW     202210287158-3168-80             SEALED                   CCN000040000000040000FN00000000020221101000040000NNM   20220802163511    1C0C  00002000000000044000000092132AG    XGXGY   004300260014
BI00B32AG    XG22113NMW     202210077158-3169-40             SEALING PLUG             CCN000080000000080000FN00000000020221101000080000NNM   20220802163511    1C0C  00004000000000156000000204132AG    XGXGY   004300260014
BI00B32AG    XG22114NMW     202210217158-3169-40             SEALING PLUG             CCN000080000000080000FN00000000020221101000080000NNM   20220802163511    1C0C  00004000000000156000000204132AG    XGXGY   004300260014
BI00B32AG    XG22115NMW     202210287158-3169-40             SEALING PLUG             CCN000080000000080000FN00000000020221101000080000NNM   20220802163511    1C0C  00004000000000156000000204132AG    XGXGY   004300260014
BI00B32AG    #XG22112NMW    202210077123-6423-30             CONNECTOR                CCN000004000000004000FN00000000020221101000004000NNM   20220802163508    2F0F  00000200000001002000001167632AG    XGXGY   005600390023
BI00B32AG    #XG22113NMW    202210077123-6423-30             CONNECTOR                CCN000004000000004000FN00000000020221101000004000NNM   20220802163508    2F0F  00000200000001002000001167632AG    XGXGY   005600390023
BI00B32AG    #XG22114NMW    202210217123-6423-30             CONNECTOR                CCN000004000000004000FN00000000020221101000004000NNM   20220802163508    2F0F  00000200000001002000001167632AG    XGXGY   005600390023
BI00B32AG    #XG22115NMW    202210287123-6423-30             CONNECTOR                CCN000004000000004000FN00000000020221101000004000NNM   20220802163508    2F0F  00000200000001002000001167632AG    XGXGY   005600390023
BI00B32AG    XG22115QMW     202210287158-3022-80             RUBBER STOPPER           CCN000010000000010000FN00000000020221101000010000NNM   20220802163523    1C0C  00000500000000467500000524032AG    XGXGY   002700430014
BI00B32AG    XG22111QMW     202209307196-1460-02             TERMINAL FEMALE          CCN000028500000028500FN00000000020221101000028500NNM   20220802163523    4P0P  00002850000000444600000729832AG    XGXGY   006400630015
BI00B32AG    XG22112QMW     202210077196-1460-02             TERMINAL FEMALE          CCN000142500000142500FN00000000020221101000142500NNM   20220802163523    4P0P  00002850000000444600000729832AG    XGXGY   006400630015
BI00B32AG    XG22113QMW     202210077196-1460-02             TERMINAL FEMALE          CCN000085500000085500FN00000000020221101000085500NNM   20220802163523    4P0P  00002850000000444600000729832AG    XGXGY   006400630015
BI00B32AG    XG22114QMW     202210217196-1460-02             TERMINAL FEMALE          CCN000114000000114000FN00000000020221101000114000NNM   20220802163523    4P0P  00002850000000444600000729832AG    XGXGY   006400630015
BI00B32AG    XG22115QMW     202210287196-1460-02             TERMINAL FEMALE          CCN000114000000114000FN00000000020221101000114000NNM   20220802163523    4P0P  00002850000000444600000729832AG    XGXGY   006400630015
BI00B32B1    A22036A        202209237114-4031                TERMINAL                 CCN000010500000010500FN00000000020221101000010500NNE   20220802122407B1  4P0P  00001050000000966000001294632B1    AXARNE-M006400630017
BI00B32B1    A22036A        202209237114-4032                TERMINAL                 CCN000022500000022500FN00000000020221101000022500NNE   20220802122407B1  4P0P  00000750000000735000001063632B1    AXARNE-M006400630017
BI00B32B1    A22036A        202209237282-5553-30             CONNECTOR                CCN000002000000002000FN00000000020221101000002000NNE   20220802122407B1  4N0N  00000100000001010000001187332B1    AXARNE-M005500360039
BI00B32B1    #A22036A       202209237157-3891                RUBBER STOPPER           CCN000010000000010000FN00000000020221101000010000NNE   20220802122407B1  2H0H  00001000000000145000000241732B1    AXARNE-M004300270014
BI00B32B1    #A22036A       202209237158-3376-50             CONNECTOR WIRE SEAL      CCN000200000000200000FN00000000020221101000200000NNE   20220802122407B1  2C0C  00002000000000184000000240732B1    AXARNE-M002700430014
BI00B32B1    #A22036A       202209237282-6446-40             CONNECTOR                CCN000001500000001500FN00000000020221101000001500NNE   20220802122407B1  2N0N  00000150000001185000001368032B1    AXARNE-M005500360039
BI00B32B1    A22037A        202209167282-5553-30             CONNECTOR                CCN000002000000002000FN00000000020221001000002000NNE   20220802122407B1  4N0N  00000100000001010000001187332B1    AXARNE-M005500360039
BI00B32B1    #A22037A       202209167157-3891                RUBBER STOPPER           CCN000100000000100000FN00000000020221001000100000NNE   20220802122407B1  2H0H  00001000000000145000000241732B1    AXARNE-M004300270014
BI00B32B1    #A22037A       202209167158-3376-50             CONNECTOR WIRE SEAL      CCN000200000000200000FN00000000020221001000200000NNE   20220802122407B1  2C0C  00002000000000184000000240732B1    AXARNE-M002700430014
BI00B32B1    A22038A        202209237282-5553-30             CONNECTOR                CCN000002000000002000FN00000000020221101000002000NNE   20220802122407B1  4N0N  00000100000001010000001187332B1    AXARNE-M005500360039
BI00B32B1    #A22038A       202209237158-3376-50             CONNECTOR WIRE SEAL      CCN000200000000200000FN00000000020221101000200000NNE   20220802122407B1  2C0C  00002000000000184000000240732B1    AXARNE-M002700430014
BI00B32B6    A72037A        202209167196-1461-02             TERMINAL FEMALE          CCN000024000000024000FN00000000020221101000024000NNE   20220802122407B6  4P0P  00002400000000386400000671632B6    AXARNE-M006400630015
BI00B32B6    TAPSUB09C      202208267288-3329-30             HOUSING MALE             CCN000001500000001500FN00000000020220801000001500NNED0720220802122407B6  4N0N  00000150000000866100001011132B6    AXARNE-M005400370024
BI00B32B6    #TAPSUB09C     202208267283-8226-30             CONNECTOR                CCN000002000000002000FN00000000020220801000002000NNED0720220802122407B6  2N0N  00000200000000820000001008032B6    AXARNE-M005400370024
BI00B32DA    SBT2210        202209017114-4020                TERMINAL                 CCN000126000000126000FN00000000020221001000126000NNM   20220802122407    4P0P  00002100000000875700001169332DA    GBYIPLGB006400630015
BI00B32DA    SBT2210        202209017114-4021                TERMINAL                 CCN000300000000300000FN00000000020221001000300000NNM   20220802122407    4P0P  00001500000000670500000964132DA    GBYIPLGB006400630015
BI00B32DA    SBT2210        202209017114-4032                TERMINAL                 CCN000007500000007500FN00000000020221001000007500NNM   20220802122407    4P0P  00000750000000735000001063632DA    GBYIPLGB006400630017
BI00B32DA    SBT2210        202209017116-4020                TERMINAL                 CCN000162000000162000FN00000000020221001000162000NNM   20220802122407    4P0P  00001350000000513000000798232DA    GBYIPLGB006400630015
BI00B32DA    SBT2210        202209017116-4022                TERMINAL                 CCN000013500000013500FN00000000020221001000013500NNM   20220802122407    4P0P  00001350000000618300000903532DA    GBYIPLGB006400630015
BI00B32DA    SBT2210        202209017116-4025                TERMINAL                 CCN000704000000704000FN00000000020221001000704000NNM   20220802122407    4P0P  00001600000000644800000975132DA    GBYIPLGB006400630017
BI00B32DA    SBT2210        202209017116-4026                TERMINAL                 CCN000256000000256000FN00000000020221001000256000NNM   20220802122407    4P0P  00001600000000664000000994332DA    GBYIPLGB006400630017
BI00B32DA    SBT2210        202209017116-4032                TERMINAL                 CCN000168000000168000FN00000000020221001000168000NNM   20220802122407    4P0P  00000600000000532800000818032DA    GBYIPLGB006400630015
BI00B32DA    SBT2210        202209017116-4037                TERMINAL                 CCN000156000000156000FN00000000020221001000156000NNM   20220802122407    4P0P  00000600000000600000000894232DA    GBYIPLGB006400630015
BI00B32DA    SBT2210        202209017116-6042                TERMINAL                 CCN000063000000063000FN00000000020221001000063000NNM   20220802122407    4P0P  00000300000000523800000856132DA    GBYIPLGB006400630015
BI00B32DA    SBT2210        202209017283-5830                CONNECTOR                CCN000048000000048000FN00000000020221001000048000NNM   20220802122407    1N47  00000600000000954000001104032DA    GBYIPLGB005500360039
BI00B32DA    SBT2210        202209017287-9234                JOINT CONNECTOR          CCN000048000000048000FN00000000020221001000048000NNM   20220802122407    4N0N  00000960000000893800001184832DA    GBYIPLGB005500360039
BI00B32DA    SBT2210        202209017017-1180-02             TERMINAL                 CCN000288000000288000FN00000000020221001000288000NNM   20220802122407    4P0P  00007200000001065600001229032DA    GBYIPLGB005100280028
BI00B32DA    SBT2210        202209017114-4624-02             TERMINAL                 CCN000024000000024000FN00000000020221001000024000NNM   20220802122407    4P0P  00002400000000895200001188832DA    GBYIPLGB006400630015
BI00B32DA    SBT2210        202209017114-4728-02             TERMINAL                 CCN001710000001710000FN00000000020221001001710000NNM   20220802122407    4P0P  00003000000000510000000804232DA    GBYIPLGB006400630015
BI00B32DA    SBT2210        202209017114-5746-02             TERMINAL                 CCN000189000000189000FN00000000020221001000189000NNM   20220802122407    4P0P  00002100000000695100000988732DA    GBYIPLGB006400630015
BI00B32DA    SBT2210        202209017114-5747-02             TERMINAL                 CCN000288000000288000FN00000000020221001000288000NNM   20220802122407    4P0P  00001800000000626400000920032DA    GBYIPLGB006400630015
BI00B32DA    SBT2210        202209017114-5748-02             TERMINAL                 CCN000348000000348000FN00000000020221001000348000NNM   20220802122407    4P0P  00001200000000444000000737632DA    GBYIPLGB006400630015
BI00B32DA    SBT2210        202209017114-5753-02             TERMINAL                 CCN000216000000216000FN00000000020221001000216000NNM   20220802122407    4P0P  00002700000000847800001141432DA    GBYIPLGB006400630015
BI00B32DA    SBT2210        202209017116-1257-02             TERMINAL                 CCN000048000000048000FN00000000020221001000048000NNM   20220802122407    4P0P  00002400000000518400000847132DA    GBYIPLGB006400630017
BI00B32DA    SBT2210        202209017116-4486-02             TERMINAL                 CCN000672000000672000FN00000000020221001000672000NNM   20220802122407    4P0P  00002800000000666400000995132DA    GBYIPLGB006400630017
BI00B32DA    SBT2210        202209017116-5045-02             TERMINAL                 CCN000064000000064000FN00000000020221001000064000NNM   20220802122407    4P0P  00001600000000678400001007132DA    GBYIPLGB006400630017
BI00B32DA    SBT2210        202209017116-5750-02             TERMINAL                 CCN000135000000135000FN00000000020221001000135000NNM   20220802122407    4P0P  00001500000000457500000742732DA    GBYIPLGB006400630015
BI00B32DA    SBT2210        202209017116-5752-02             TERMINAL                 CCN000042000000042000FN00000000020221001000042000NNM   20220802122407    4P0P  00002100000000571200000856432DA    GBYIPLGB006400630015
BI00B32DA    SBT2210        202209017158-3006-90             RUBBER STOPPER           CCN000580000000580000FN00000000020221001000580000NNM   20220802122407    1C0C  00002000000000330600000386032DA    GBYIPLGB002700430014
BI00B32DA    SBT2210        202209017158-3009-60             RUBBER STOPPER           CCN000460000000460000FN00000000020221001000460000NNM   20220802122407    1C0C  00002000000000338000000386232DA    GBYIPLGB002700430014
BI00B32DA    SBT2210        202209017172-5540-80             SEALED WIRE SEAL         CCN000020000000020000FN00000000020221001000020000NNM   20220802122407    1C0C  00002000000000186000000234432DA    GBYIPLGB004300270014
BI00B32DA    SBT2210        202209017196-0805-02             TERMINAL FEMALE          CCN000045000000045000FN00000000020221001000045000NNM   20220802122407    4P0P  00002250000000558000000843232DA    GBYIPLGB006400630015
BI00B32DA    SBT2210        202209017283-5830-30             CONNECTOR                CCN000006000000006000FN00000000020221001000006000NNM   20220802122407    1N0N  00000600000000954000001104032DA    GBYIPLGB005500360039
BI00B32DA    SBT2210        202209017288-3329-30             HOUSING MALE             CCN000006000000006000FN00000000020221001000006000NNM   20220802122407    4N0N  00000150000000866100001011132DA    GBYIPLGB005400370024
BI00B32DA    SBT2210        202209017288-3331-30             HOUSING MALE             CCN000006000000006000FN00000000020221001000006000NNM   20220802122407    4N0N  00000150000000866000001010932DA    GBYIPLGB005400370024
BI00B32DA    SBT2210        202209017288-3336-30             HOUSING MALE             CCN000006000000006000FN00000000020221001000006000NNM   20220802122407    4N0N  00000150000000867000001012032DA    GBYIPLGB005400370024
BI00B32DA    SBT2210        202209017288-3337-30             HOUSING MALE             CCN000006000000006000FN00000000020221001000006000NNM   20220802122407    4N0N  00000150000000867000001012032DA    GBYIPLGB005400370024
BI00B32DA    SBT2210        202209017289-3342-30             HOUSING FEMALE ASS'Y     CCN000031200000031200FN00000000020221001000031200NNM   20220802122407    1N0N  00000240000000686400000901432DA    GBYIPLGB005500360039
BI00B32DA    SBT2210        202209017286-3885-40             CONNECTOR MALE ASS'Y     CCN000032400000032400FN00000000020221001000032400NNM   20220802122407    1N0N  00000120000000910600001130632DA    GBYIPLGB005500360039
BI00B32DA    SBT2210        202209017287-3885-40             HYBRID FEMALE ASS'Y      CCN000012000000012000FN00000000020221001000012000NNM   20220802122407    1N0N  00000240000001029600001249632DA    GBYIPLGB005500360039
BI00B32DA    SBT2210        202209017116-3153-02             TERMINAL FEMALE          CCN002880000002889000FN00000000020221001002889000NNM   20220802122407    4P0P  00002700000000459000000744232DA    GBYIPLGB006400630015
BI00B32DA    SBT2210        202209017116-3154-02             TERMINAL FEMALE          CCN001080000001080000FN00000000020221001001080000NNM   20220802122407    4P0P  00002700000000469800000755032DA    GBYIPLGB006400630015
BI00B32DA    #SBT2210       202209017114-4022                TERMINAL                 CCN000030000000030000FN00000000020221001000030000NNM   20220802122407    2F0P  00001500000000708000001120632DA    GBYIPLGB006400630015
BI00B32DA    #SBT2210       202209017183-2414                CONNECTOR HOUSING        CCN000028800000028800FN00000000020221001000028800NNM   20220802122407    2F0F  00000480000000779200001061032DA    GBYIPLGB005500360039
BI00B32DA    #SBT2210       202209017189-3037                HOUSING FEMALE           CCN000009600000009600FN00000000020221001000009600NNM   20220802122407    2F0F  00000480000000806400001066432DA    GBYIPLGB005500360039
BI00B32DA    #SBT2210       202209017157-6826-80             REAR HOLDER              CCN000030000000030000FN00000000020221001000030000NNM   20220802122407    2F0F  00001500000001234500001394132DA    GBYIPLGB005600390040
BI00B32DA    #SBT2210       202209017158-3015-10             RUBBER STOPPER           CCN000140000000140000FN00000000020221001000140000NNM   20220802122407    2C0C  00001000000000419500000474032DA    GBYIPLGB002700430014
BI00B32DA    #SBT2210       202209017183-1616-30             CONNECTOR HOUSING        CCN000040800000040800FN00000000020221001000040800NNM   20220802122407    2F0F  00000240000000557500000837132DA    GBYIPLGB005500360039
BI00B32DA    #SBT2210       202209017183-2414-40             CONNECTOR HOUSING        CCN000004800000004800FN00000000020221001000004800NNM   20220802122407    2F0F  00000480000000777600000963632DA    GBYIPLGB005500360039
BI00B32DA    #SBT2210       202209017183-7725-40             HOUSING                  CCN000006000000006000FN00000000020221001000006000NNM   20220802122407    2F0F  00000600000000840000001040032DA    GBYIPLGB005600390040
BI00B32DE    TCT2092        202208117196-0510-02             TERMINAL                 CCN000072000000072000FN00000000020220901000072000NNMD0020220802141155    4P0P  00002400000000871200001034632DE    TVYEV-TV002800510028
BI00B32DE    TCT2093        202208187196-0510-02             TERMINAL                 CCN000120000000120000FN00000000020220901000120000NNMD0020220802141216    4P0P  00002400000000871200001034632DE    TVYEV-TV002800510028
BI00B32DE    TCT2094        202208257196-0510-02             TERMINAL                 CCN000096000000096000FN00000000020220901000096000NNMD0020220802141302    4P0P  00002400000000871200001034632DE    TVYEV-TV002800510028
BI00B32DE    TCT2092        202208117283-1057-30             CONNECTOR HOUSING        CCN000000960000000960FN00000000020220901000000960NNMD0020220802153836    4N0N  00000096000000925400001075432DE    TVYEV-TV005500360039
BI00B32DE    TCT2093        202208187283-1057-30             CONNECTOR HOUSING        CCN000000960000000960FN00000000020220901000000960NNMD0020220802153849    4N0N  00000096000000925400001075432DE    TVYEV-TV005500360039
BI00B32DE    TCT2094        202208257283-1222-40             CONNECTOR HOUSING        CCN000003600000003600FN00000000020220901000003600NNMD0020220802153902    4N0N  00000120000000858000001032732DE    TVYEV-TV005500360039
BI00B32DE    TCT2093        202208117283-1289-40             CONNECTOR HOUSING        CCN000002400000002400FN00000000020220901000002400NNMD0020220802153926    1N0N  00000060000000679800000824832DE    TVYEV-TV005400370024
BI00B32DE    TCT2094        202208257283-1289-40             CONNECTOR HOUSING        CCN000004200000004200FN00000000020220901000004200NNMD0020220802153950    1N0N  00000060000000679800000824832DE    TVYEV-TV005400370024
BI00B32DE    TCT2092        202208117287-7599-10             HOUSING FEMALE ASS'Y     CCN000001600000001600FN00000000020220901000001600NNMD0020220802141005    4N0N  00000160000001233600001445632DE    TVYEV-TV005500360039
BI00B32DE    TCT2093        202208187287-7599-10             HOUSING FEMALE ASS'Y     CCN000003200000003200FN00000000020220901000003200NNMD0020220802140922    4N0N  00000160000001233600001445632DE    TVYEV-TV005500360039
BI00B32DE    TCT2094        202208257287-7599-10             HOUSING FEMALE ASS'Y     CCN000003200000003200FN00000000020220901000003200NNMD0020220802141022    4N0N  00000160000001233600001445632DE    TVYEV-TV005500360039
BI00B32DE    TCT2092        202208117289-4696-30             HOUSING FEMALE ASS'Y     CCN000004000000004000FN00000000020220901000004000NNMD0020220802122407    4N0N  00000200000000913400001055432DE    TVYEV-TV005400370024
BI00B32DE    TCT2093        202208187289-4696-30             HOUSING FEMALE ASS'Y     CCN000004000000004000FN00000000020220901000004000NNMD0020220802122407    4N0N  00000200000000913400001055432DE    TVYEV-TV005400370024
BI00B32DE    TCT2094        202208257289-4696-30             HOUSING FEMALE ASS'Y     CCN000006000000006000FN00000000020220901000006000NNMD0020220802122407    4N0N  00000200000000913400001055432DE    TVYEV-TV005400370024
BI00A32DJ    GHT2210B 1     202208057116-4486-02             TERMINAL                 CCN000056000000056000FN00000000020221001000056000NNMM0020220802133136    4P0P  00002800000000666400000995132DJ    RBYIPLRB006400630017
BI00B32D1    DFTC2241D      202208257116-1685-02             TERMINAL                 CCN000024000000024000FN00000000020221001000024000NNED0720220802122407    4P0P  00002400000000897600001065232D1    TOYOT-K 005100280028
BI00B32D1    DFTC2241D      202208257116-4111-02             TERMINAL                 CCN000022500000022500FN00000000020221001000022500NNED0720220802122407    4P0P  00000750000000529500000817732D1    TOYOT-K 006400630015
BI00B32D1    #DFTC2241D     202208257158-3017                RUBBER STOPPER           CCN000010000000010000FN00000000020221001000010000NNED0720220802122407    2C0C  00001000000000375500000435032D1    TOYOT-K 002700430014
BI00B32D1    #DFTC2241D     202208257183-2415-90             CONNECTOR HOUSING        CCN000004800000004800FN00000000020221001000004800NNED0720220802122407    2F0F  00000480000000798200001091432D1    TOYOT-K 005500360039
BI00B32D1    DFTC2241E      202208257114-4032                TERMINAL                 CCN000007500000007500FN00000000020221001000007500NNED0720220802122407    4P0P  00000750000000735000001063632D1    TOYOT-K 006400630017
BI00B32D1    DFTC2241E      202208257114-5748-02             TERMINAL                 CCN000024000000024000FN00000000020221001000024000NNED0720220802122407    4P0P  00001200000000444000000737632D1    TOYOT-K 006400630015
BI00B32D1    DFTC2241E      202208257114-5753-02             TERMINAL                 CCN000081000000081000FN00000000020221001000081000NNED0720220802122407    4P0P  00002700000000847800001141432D1    TOYOT-K 006400630015
BI00B32D1    DFTC2241E      202208257116-1685-02             TERMINAL                 CCN000048000000048000FN00000000020221001000048000NNED0720220802122407    4P0P  00002400000000897600001065232D1    TOYOT-K 005100280028
BI00B32D1    DFTC2241E      202208257116-2891-02             TERMINAL                 CCN000060000000060000FN00000000020221001000060000NNED0720220802122407    4P0P  00001500000000982500001145932D1    TOYOT-K 005100280028
BI00B32D1    DFTC2241E      202208257116-4101-02             TERMINAL                 CCN000012000000012000FN00000000020221001000012000NNED0720220802122407    4P0P  00001200000000582000000876232D1    TOYOT-K 006400630015
BI00B32D1    DFTC2241E      202208257116-4110-02             TERMINAL                 CCN000018000000018000FN00000000020221001000018000NNED0720220802122407    4P0P  00000900000000594000000882232D1    TOYOT-K 006400630015
BI00B32D1    DFTC2241E      202208257116-4111-02             TERMINAL                 CCN000022500000022500FN00000000020221001000022500NNED0720220802122407    4P0P  00000750000000529500000817732D1    TOYOT-K 006400630015
BI00B32D1    DFTC2241E      202208257116-4112-02             TERMINAL                 CCN000042000000042000FN00000000020221001000042000NNED0720220802122407    4P0P  00000600000000450000000738232D1    TOYOT-K 006400630015
BI00B32D1    DFTC2241E      202208257116-4486-02             TERMINAL                 CCN000028000000028000FN00000000020221001000028000NNED0720220802122407    4P0P  00002800000000666400000995132D1    TOYOT-K 006400630017
BI00B32D1    DFTC2241E      202208257126-8853-02             TERMINAL                 CCN000007500000007500FN00000000020221001000007500NNED0720220802122407    4P0P  00000750000000562500000847732D1    TOYOT-K 006400630015
BI00B32D1    DFTC2241E      202208257126-8854-02             TERMINAL                 CCN000052500000052500FN00000000020221001000052500NNED0720220802122407    4P0P  00000750000000604500000889732D1    TOYOT-K 006400630015
BI00B32D1    DFTC2241E      202208257126-8855-02             TERMINAL                 CCN000012000000012000FN00000000020221001000012000NNED0720220802122407    4P0P  00000600000000510600000795832D1    TOYOT-K 006400630015
BI00B32D1    DFTC2241E      202208257158-3070-80             RUBBER STOPPER           CCN000040000000040000FN00000000020221001000040000NNED0720220802122407    1C0C  00004000000000276000000333332D1    TOYOT-K 002700430014
BI00B32D1    DFTC2241E      202208257283-1156                CONNECTOR                CCN000001600000001600FN00000000020221001000001600NNED0720220802122407    4N0N  00000080000000877600001078032D1    TOYOT-K 005600390040
BI00B32D1    DFTC2241E      202208257289-3342-30             HOUSING FEMALE ASS'Y     CCN000045600000045600FN00000000020221001000045600NNED0720220802122407    1N0N  00000240000000686400000901432D1    TOYOT-K 005500360039
BI00B32D1    DFTC2241E      202208257388-2978-30             HOUSING MALE ASS'Y       CCN000000480000000480FN00000000020221001000000480NNED0720220802122407    1N0N  00000048000000742000001122032D1    TOYOT-K 005500360039
BI00B32D1    #DFTC2241E     202208257158-3008-80             RUBBER STOPPER           CCN000020000000020000FN00000000020221001000020000NNED0720220802122407    2C0C  00002000000000288000000343032D1    TOYOT-K 004300270014
BI00B32D1    #DFTC2241E     202208257158-3017                RUBBER STOPPER           CCN000030000000030000FN00000000020221001000030000NNED0720220802122407    2C0C  00001000000000375500000435032D1    TOYOT-K 002700430014
BI00B32D1    #DFTC2241E     202208257183-7725-40             HOUSING                  CCN000006000000006000FN00000000020221001000006000NNED0720220802122407    2F0F  00000600000000840000001040032D1    TOYOT-K 005600390040
BI00B32D1    #DFTC2241E     202208257189-3033                HOUSING FEMALE           CCN000003200000003200FN00000000020221001000003200NNED0720220802122407    2F0F  00000160000001211200001431232D1    TOYOT-K 005500360039
BI00B32D1    #DFTC2241E     202208257189-3036                HOUSING FEMALE           CCN000003200000003200FN00000000020221001000003200NNED0720220802122407    2F0F  00000160000000921600001141632D1    TOYOT-K 005500360039
BI00B32D1    #DFTC2241E     202208257289-3622-30             HOUSING FEMALE ASS'Y     CCN000001296000001296FN00000000020221001000001296NNED0720220802122407    2N0N  00000043200000839400001038432D1    TOYOT-K 005400370024
BI00B32D2    DGTC2241E      202209017114-4032                TERMINAL                 CCN000030000000030000FN00000000020221001000030000NNED0720220802151134    4P0P  00000750000000735000001063632D2    TGYOT-G 006400630017
BI00B32D2    DGTC2241E      202209017114-5748-02             TERMINAL                 CCN000024000000024000FN00000000020221001000024000NNED0720220802151134    4P0P  00001200000000444000000737632D2    TGYOT-G 006400630015
BI00B32D2    DGTC2241E      202209017114-5753-02             TERMINAL                 CCN000081000000081000FN00000000020221001000081000NNED0720220802151134    4P0P  00002700000000847800001141432D2    TGYOT-G 006400630015
BI00B32D2    DGTC2241E      202209017116-2891-02             TERMINAL                 CCN000030000000030000FN00000000020221001000030000NNED0720220802151134    4P0P  00001500000000982500001145932D2    TGYOT-G 005100280028
BI00B32D2    DGTC2241E      202209017116-4486-02             TERMINAL                 CCN000056000000056000FN00000000020221001000056000NNED0720220802151134    4P0P  00002800000000666400000995132D2    TGYOT-G 006400630017
BI00B32D2    DGTC2241E      202209017116-5045-02             TERMINAL                 CCN000032000000032000FN00000000020221001000032000NNED0720220802151134    4P0P  00001600000000678400001007132D2    TGYOT-G 006400630017
BI00B32D2    DGTC2241E      202209017116-5046-02             TERMINAL                 CCN000096000000096000FN00000000020221001000096000NNED0720220802151134    4P0P  00001200000000544800000873532D2    TGYOT-G 006400630017
BI00B32D2    DGTC2241E      202209017116-6042                TERMINAL                 CCN000111000000111000FN00000000020221001000111000NNED0720220802151134    4P0P  00000300000000523800000856132D2    TGYOT-G 006400630015
BI00B32D2    DGTC2241E      202209017126-8853-02             TERMINAL                 CCN000090000000090000FN00000000020221001000090000NNED0720220802151134    4P0P  00000750000000562500000847732D2    TGYOT-G 006400630015
BI00B32D2    DGTC2241E      202209017126-8854-02             TERMINAL                 CCN000067500000067500FN00000000020221001000067500NNED0720220802151134    4P0P  00000750000000604500000889732D2    TGYOT-G 006400630015
BI00B32D2    DGTC2241E      202209017126-8855-02             TERMINAL                 CCN000078000000078000FN00000000020221001000078000NNED0720220802151134    4P0P  00000600000000510600000795832D2    TGYOT-G 006400630015
BI00B32D2    DGTC2241E      202209017158-3070-80             RUBBER STOPPER           CCN000040000000040000FN00000000020221001000040000NNED0720220802151134    1C0C  00004000000000276000000333332D2    TGYOT-G 002700430014
BI00B32D2    DGTC2241E      202209017158-3166-60             WIRE SEAL                CCN000040000000040000FN00000000020221001000040000NNED0720220802151134    1C0C  00004000000000104000000152432D2    TGYOT-G 002700430014
BI00B32D2    DGTC2241E      202209017173-3291-40             LIF LEVER                CCN000004800000004800FN00000000020221001000004800NNED0720220802151134    1F0F  00000240000000867800001067832D2    TGYOT-G 005500360039
BI00B32D2    DGTC2241E      202209017196-1325-02             TERMINAL FEMALE          CCN000240000000240000FN00000000020221001000240000NNED0720220802151134    4P0P  00006000000000450000000778732D2    TGYOT-G 006400630017
BI00B32D2    DGTC2241E      202209017196-1326-02             TERMINAL FEMALE          CCN000360000000360000FN00000000020221001000360000NNED0720220802151134    4P0P  00006000000000456000000784732D2    TGYOT-G 006400630017
BI00B32D2    DGTC2241E      202209017289-3342                HOUSING FEMALE ASS'Y     CCN000026400000026400FN00000000020221001000026400NNED0720220802151134    1N0N  00000240000000686400000901432D2    TGYOT-G 005500360039
BI00B32D2    DGTC2241E      202209017289-3342-30             HOUSING FEMALE ASS'Y     CCN000016800000016800FN00000000020221001000016800NNED0720220802151134    1N0N  00000240000000686400000901432D2    TGYOT-G 005500360039
BI00B32D2    DGTC2241E      202209017289-3342-40             HOUSING FEMALE ASS'Y     CCN000004800000004800FN00000000020221001000004800NNED0720220802151134    1N0N  00000240000000686400000901432D2    TGYOT-G 005500360039
BI00B32D2    DGTC2241E      202209017289-3342-90             HOUSING FEMALE ASS'Y     CCN000009600000009600FN00000000020221001000009600NNED0720220802151134    1N0N  00000240000000686400000901432D2    TGYOT-G 005500360039
BI00B32D2    DGTC2241E      202209017289-6518-30             HOUSING FEMALE ASS'Y     CCN000006000000006000FN00000000020221001000006000NNED0720220802151134    1N0N  00000120000000829200001049232D2    TGYOT-G 005500360039
BI00B32D2    DGTC2241E      202209017296-0784-02             TERMINAL ALUMINIUM       CCN000024000000024000FN00000000020221001000024000NNED0720220802151134    4P0P  00002400000000480000000765232D2    TGYOT-G 006400630015
BI00B32D2    DGTC2241E      202209017297-3482                JOINT CONNECTOR          CCN000020700000020800FN00000000020221001000020800NNED0720220802151134    4N0N  00000080000000621000000730532D2    TGYOT-G 005400370024
BI00B32D2    DGTC2241E      202209017298-3484                HOUSING FEMALE ASS'Y     CCN000014700000016200FN00000000020221001000016200NNED0720220802151134    4N0N  00000270000000742500001028732D2    TGYOT-G 005400370024
BI00B32D2    DGTC2241E      202209017298-3484-30             HOUSING FEMALE ASS'Y     CCN000006300000008100FN00000000020221001000008100NNED0720220802151134    4N0N  00000270000000742500001028732D2    TGYOT-G 005400370024
BI00B32D2    DGTC2241E      202209017327-6809                MULTI FUSE               CCN000005600000005600FN00000000020221001000005600NNED0720220802151134    4N0N  00000056000000849300001061732D2    TGYOT-G 005400370024
BI00B32D2    DGTC2241E      202209017388-2978-30             HOUSING MALE ASS'Y       CCN000014880000014880FN00000000020221001000014880NNED0720220802151134    1N0N  00000048000000742000001122032D2    TGYOT-G 005500360039
BI00B32D2    #DGTC2241E     202209017158-3003-90             RUBBER STOPPER           CCN000080000000080000FN00000000020221001000080000NNED0720220802151132    2C0C  00002000000000250000000306032D2    TGYOT-G 002700430014
BI00B32D2    #DGTC2241E     202209017158-3008-80             RUBBER STOPPER           CCN000020000000020000FN00000000020221001000020000NNED0720220802151132    2C0C  00002000000000288000000343032D2    TGYOT-G 004300270014
BI00B32D2    #DGTC2241E     202209017158-3015-10             RUBBER STOPPER           CCN000010000000010000FN00000000020221001000010000NNED0720220802151132    2C0C  00001000000000419500000474032D2    TGYOT-G 002700430014
BI00B32D2    #DGTC2241E     202209017172-5629-80             RUBBER STOPPER           CCN000200000000200000FN00000000020221001000200000NNED0720220802151132    2H0H  00002000000000060000000111132D2    TGYOT-G 004300270014
BI00B32D2    #DGTC2241E     202209017172-5630-40             RUBBER STOPPER           CCN000140000000140000FN00000000020221001000140000NNED0720220802151132    2H0H  00002000000000044000000095132D2    TGYOT-G 004300270014
BI00B32D2    #DGTC2241E     202209017172-5631-60             RUBBER STOPPER           CCN000100000000100000FN00000000020221001000100000NNED0720220802151132    2H0H  00002000000000042000000093132D2    TGYOT-G 004300270014
BI00B32D2    #DGTC2241E     202209017172-5632-10             DUMMY PLUG               CCN000100000000100000FN00000000020221001000100000NNED0720220802151132    2H0H  00002000000000080400000131832D2    TGYOT-G 004300270014
BI00B32D2    #DGTC2241E     202209017189-2978-30             HOUSING FEMALE           CCN000015000000015000FN00000000020221001000015000NNED0720220802151132    2F0F  00000150000000966900001096932D2    TGYOT-G 005400370024
BI00B32D2    #DGTC2241E     202209017189-3033                HOUSING FEMALE           CCN000008000000008000FN00000000020221001000008000NNED0720220802151132    2F0F  00000160000001211200001431232D2    TGYOT-G 005500360039
BI00B32D2    #DGTC2241E     202209017189-3036                HOUSING FEMALE           CCN000003200000003200FN00000000020221001000003200NNED0720220802151132    2F0F  00000160000000921600001141632D2    TGYOT-G 005500360039
BI00B32EJ    T220726P02     202209087158-3166-60             WIRE SEAL                CCN000760000000760000FN00000000020220901000760000NNED0220220802122407EJ  1C0C  00004000000000104000000152432EJ    EJYKBO  002700430014
BI00B32G2    SA22091 MW     202208107116-1180                TERMINAL                 CCN000039000000039000FN00000000020220901000039000NNM00020220802142045    1P0P  00001950000000618200000903432G2    AISUAI  006400630015
BI00B32G2    SA22091 MW     202208107116-2870                TERMINAL                 CCN000012000000012000FN00000000020220901000012000NNM00020220802142058    1P0P  00001200000000783600001020232G2    AISUAI  005100280028
BI00B32G2    SA22091 MW     202208107116-2871                TERMINAL                 CCN000012000000012000FN00000000020220901000012000NNM00020220802142106    1P0P  00001200000000842400001072632G2    AISUAI  005100280028
BI00B32G2    SA22091 MW     202208107126-8850-02             TERMINAL                 CCN000018000000018000FN00000000020220901000018000NNM00020220802142123    1P0P  00000900000000672300000957532G2    AISUAI  006400630015
BI00B32G2    SA22091 MW     202208107126-8851-02             TERMINAL                 CCN000009000000009000FN00000000020220901000009000NNM00020220802142131    1P0P  00000900000000739800001025032G2    AISUAI  006400630015
BI00B32G2    SA22091 MW     202208107126-8852-02             TERMINAL                 CCN000015000000015000FN00000000020220901000015000NNM00020220802142141    1P0P  00000750000000648000000933232G2    AISUAI  006400630015
BI00B32H2    TIJ209J        202208197470-5304                J/B COMPLETE ASS'Y       CCN000000550000000550FN00000000020220901000000550NNED0720220802170217    4J0J  00000001000000494000000661032H2    HVYHV   005400370024
BI00B32H8    QA-22-C070     202208057283-1024                CONNECTOR SUB ASSY       PNN000002000000002000FN00000000020220801000002000NNE   20220802141725    4N0N  00000200000000400000000522532H8    TYTYC   005400370024
BI00B32J1    396778         202208297298-2280-30             HOUSING FEMALE ASS'Y     CCN000157440000057600FN00000000020220801000057600NNED0720220802145600    4N0N  00000192000001068000001216032J1    UKYEL-BL005500360039
BI00B32J1    396778         202209057298-2507-30             HOUSING FEMALE ASS'Y     CCN000030000000015600FN00000000020220801000015600NNED0720220802145600    4N0N  00000120000000713200000914532J1    UKYEL-BL005500360039
BI00B32J1    396778         202208227298-2509-30             HOUSING FEMALE ASS'Y     CCN000030000000015600FN00000000020220801000015600NNED0720220802145600    4N0N  00000120000000857500001062532J1    UKYEL-BL005500360039
BI00B32J1    396777         202208227298-2507-30             HOUSING FEMALE ASS'Y     CCN000030000000015600FN00000000020220801000015600NNED0720220802145640    4N0N  00000120000000713200000914532J1    UKYEL-BL005500360039
BI00B32J1    396779         202209197298-2280-30             HOUSING FEMALE ASS'Y     CCN000188160000061440FN00000000020220801000061440NNED0720220802145620    4N0N  00000192000001068000001216032J1    UKYEL-BL005500360039
BI00B32J1    396779         202209197298-2507-30             HOUSING FEMALE ASS'Y     CCN000036000000018000FN00000000020220801000018000NNED0720220802145339    4N0N  00000120000000713200000914532J1    UKYEL-BL005500360039
BI00B32J1    396779         202209057298-2509-30             HOUSING FEMALE ASS'Y     CCN000030000000015600FN00000000020220801000015600NNED0720220802145509    4N0N  00000120000000857500001062532J1    UKYEL-BL005500360039
BI00B32J1    396854         202208297282-6568-40             CONNECTOR                CCN000014000000014000FN00000000020220801000014000NNMD0220220802144817    4N0N  00000100000001206000001370732J1    UKYEL-BL005500360039
BI00B32J1    396779         202210177298-2281-40             HOUSING FEMALE ASS'Y     CCN000117120000117120FN00000000020220801000117120NNED0720220802122407    4N0N  00000192000000000000000000032J1    UKYEL-BL000000000000
BI00A32J1    #396953        202208227282-3243-40             CONNECTOR                CCN000016800000016800FN00000000020220801000016800NNE   20220802122407    2N0N  00000080000001006000001282332J1    UKYEL-BL005600390040
BI00B32J1    396778         202209057298-2280-30             HOUSING FEMALE ASS'Y     CCN000057600000057600FN00000000020220801000057600NNED0720220802145600    4N0N  00000192000001068000001216032J1    UKYEL-BL005500360039
BI00B32J1    396778         202209127298-2280-30             HOUSING FEMALE ASS'Y     CCN000042240000042240FN00000000020220801000042240NNED0720220802145600    4N0N  00000192000001068000001216032J1    UKYEL-BL005500360039
BI00B32J1    396779         202209267298-2280-30             HOUSING FEMALE ASS'Y     CCN000061440000061440FN00000000020220801000061440NNED0720220802145620    4N0N  00000192000001068000001216032J1    UKYEL-BL005500360039
BI00B32J1    396779         202210037298-2280-30             HOUSING FEMALE ASS'Y     CCN000065280000065280FN00000000020220801000065280NNED0720220802145620    4N0N  00000192000001068000001216032J1    UKYEL-BL005500360039
BI00B32J1    396777         202208297298-2507-30             HOUSING FEMALE ASS'Y     CCN000014400000014400FN00000000020220801000014400NNED0720220802145640    4N0N  00000120000000713200000914532J1    UKYEL-BL005500360039
BI00B32J1    396778         202209127298-2507-30             HOUSING FEMALE ASS'Y     CCN000014400000014400FN00000000020220801000014400NNED0720220802145600    4N0N  00000120000000713200000914532J1    UKYEL-BL005500360039
BI00B32J1    396779         202209267298-2507-30             HOUSING FEMALE ASS'Y     CCN000018000000018000FN00000000020220801000018000NNED0720220802145345    4N0N  00000120000000713200000914532J1    UKYEL-BL005500360039
BI00B32J1    396778         202208297298-2509-30             HOUSING FEMALE ASS'Y     CCN000014400000014400FN00000000020220801000014400NNED0720220802145600    4N0N  00000120000000857500001062532J1    UKYEL-BL005500360039
BI00B32J1    396779         202209127298-2509-30             HOUSING FEMALE ASS'Y     CCN000014400000014400FN00000000020220801000014400NNED0720220802145515    4N0N  00000120000000857500001062532J1    UKYEL-BL005500360039
BI00B32K8    #K1220011306   202208057137-2719-50             SEALED CONNECTOR         CCN000030000000015000FN00000000020220801000015000NNM00020220802141636    2C0C  00000100000000120700000185732K8    ELELCOM 002700430014
BI00B32N2    2152104144     202209087114-4020                TERMINAL                 CCN000105000000105000FN00000000020221001000105000NNM   20220802122407    4P0P  00002100000000875700001169332N2    YWYIPLTC006400630015
BI00B32N2    2152104144     202209087114-4021                TERMINAL                 CCN000015000000015000FN00000000020221001000015000NNM   20220802122407    4P0P  00001500000000670500000964132N2    YWYIPLTC006400630015
BI00B32N2    2152104144     202209087114-4032                TERMINAL                 CCN000007500000007500FN00000000020221001000007500NNM   20220802122407    4P0P  00000750000000735000001063632N2    YWYIPLTC006400630017
BI00B32N2    2152104144     202209087116-1301                TERMINAL                 CCN000015000000015000FN00000000020221001000015000NNM   20220802122407    4P0P  00001500000000487500000772732N2    YWYIPLTC006400630015
BI00B32N2    2152104144     202209087116-1471                TERMINAL                 CCN000015000000015000FN00000000020221001000015000NNM   20220802122407    4P0P  00001500000000579000000867232N2    YWYIPLTC006400630015
BI00B32N2    2152104143     202209017116-1473                TERMINAL                 CCN000013500000013500FN00000000020221001000013500NNM   20220802122407    4P0P  00001350000000523800000809032N2    YWYIPLTC006400630015
BI00B32N2    2152104143     202209017116-4020                TERMINAL                 CCN000054000000054000FN00000000020221001000054000NNM   20220802122407    4P0P  00001350000000513000000798232N2    YWYIPLTC006400630015
BI00B32N2    2152104144     202209087116-4020                TERMINAL                 CCN000216000000216000FN00000000020221001000216000NNM   20220802122407    4P0P  00001350000000513000000798232N2    YWYIPLTC006400630015
BI00B32N2    2152104144     202209087116-4025                TERMINAL                 CCN000016000000016000FN00000000020221001000016000NNM   20220802122407    4P0P  00001600000000644800000975132N2    YWYIPLTC006400630017
BI00B32N2    2152104144     202209087116-4032                TERMINAL                 CCN000024000000024000FN00000000020221001000024000NNM   20220802122407    4P0P  00000600000000532800000818032N2    YWYIPLTC006400630015
BI00B32N2    2152104144     202209087116-6042                TERMINAL                 CCN000003000000003000FN00000000020221001000003000NNM   20220802122407    4P0P  00000300000000523800000856132N2    YWYIPLTC006400630015
BI00B32N2    2152104144     202209087183-2417                CONNECTOR HOUSING        CCN000002400000002400FN00000000020221001000002400NNM   20220802122407    4F0F  00000240000001137400001297732N2    YWYIPLTC005500360039
BI00B32N2    2152104144     202209087283-1144                CONNECTOR                CCN000002400000002400FN00000000020221001000002400NNM   20220802122407    4N0N  00000240000000602200000866132N2    YWYIPLTC005500360039
BI00B32N2    2152104144     202209087286-3970                CONNECTOR HOUSING        CCN000000440000000440FN00000000020221001000000440NNM   20220802122407    1N0N  00000011000000977300001164032N2    YWYIPLTC005500360039
BI00B32N2    2152104143     202209017370-0309                J/B ASS'Y                CCN000000064000000064FN00000000020221001000000064NNM   20220802122407    1J0J  00000001600000870400001260032N2    YWYIPLTC005500360039
BI00B32N2    2152104144     202209087370-0309                J/B ASS'Y                CCN000001072000001072FN00000000020221001000001072NNM   20220802122407    1J0J  00000001600000870400001260032N2    YWYIPLTC005500360039
BI00B32N2    2152104143     202209017370-0310                J/B ASS'Y                CCN000000020000000020FN00000000020221001000000020NNM   20220802122407    1J0J  00000001000000559000000809032N2    YWYIPLTC005500360039
BI00B32N2    2152104144     202209087370-0310                J/B ASS'Y                CCN000001040000001040FN00000000020221001000001040NNM   20220802122407    1J0J  00000001000000559000000809032N2    YWYIPLTC005500360039
BI00B32N2    2152104144     202209087017-1180-02             TERMINAL                 CCN000078000000144000FN00000000020221001000144000NNM   20220802122407    4P0P  00007200000001065600001229032N2    YWYIPLTC005100280028
BI00B32N2    2152104143     202209017114-4231-02             TERMINAL                 CCN000018000000018000FN00000000020221001000018000NNM   20220802122407    4P0P  00001800000000554400000848032N2    YWYIPLTC006400630015
BI00B32N2    2152104144     202209087114-4231-02             TERMINAL                 CCN000054000000054000FN00000000020221001000054000NNM   20220802122407    4P0P  00001800000000554400000848032N2    YWYIPLTC006400630015
BI00B32N2    2152104144     202209087116-2891-02             TERMINAL                 CCN000015000000015000FN00000000020221001000015000NNM   20220802122407    4P0P  00001500000000982500001145932N2    YWYIPLTC005100280028
BI00B32N2    2152104144     202209087116-2893-02             TERMINAL                 CCN000012000000012000FN00000000020221001000012000NNM   20220802122407    4P0P  00001200000000895200001058632N2    YWYIPLTC005100280028
BI00B32N2    2152104144     202209087116-4231-02             TERMINAL                 CCN000104000000104000FN00000000020221001000104000NNM   20220802122407    4P0P  00002600000000683800001012532N2    YWYIPLTC006400630017
BI00B32N2    2152104144     202209087126-8854-02             TERMINAL                 CCN000007500000007500FN00000000020221001000007500NNM   20220802122407    4P0P  00000750000000604500000889732N2    YWYIPLTC006400630015
BI00B32N2    2152104144     202209087126-8855-02             TERMINAL                 CCN000006000000006000FN00000000020221001000006000NNM   20220802122407    4P0P  00000600000000510600000795832N2    YWYIPLTC006400630015
BI00B32N2    2152104143     202209017140-1977-30             UPPER COVER              CCN000000310000000310FN00000000020221001000000310NNM   20220802122407    1F0F  00000001000000099500000249532N2    YWYIPLTC005600390040
BI00B32N2    2152104144     202209087140-1977-30             UPPER COVER              CCN000001040000001040FN00000000020221001000001040NNM   20220802122407    1F0F  00000001000000099500000249532N2    YWYIPLTC005600390040
BI00B32N2    2152104143     202209017158-3006-90             RUBBER STOPPER           CCN000020000000020000FN00000000020221001000020000NNM   20220802122407    1C0C  00002000000000330600000386032N2    YWYIPLTC002700430014
BI00B32N2    2152104143     202209017116-5044-02             TERMINAL                 CCN000004000000016000FN00000000020221001000016000NNM   20220802122407    4P0P  00001600000000641600000986332N2    YWYIPLTC006400630017
BI00B32N2    2152104144     202209087116-5044-02             TERMINAL                 CCN000004000000016000FN00000000020221001000016000NNM   20220802122407    4P0P  00001600000000641600000986332N2    YWYIPLTC006400630017
BI00B32N2    #2152104143    202209017116-4021                TERMINAL                 CCN000013500000013500FN00000000020221001000013500NNM   20220802122407    2F0P  00001350000000534600000868832N2    YWYIPLTC006400630015
BI00B32N2    #2152104144    202209087116-4021                TERMINAL                 CCN000040500000040500FN00000000020221001000040500NNM   20220802122407    2F0P  00001350000000534600000868832N2    YWYIPLTC006400630015
BI00B32N2    #2152104144    202209087157-7812                SEAL RUBBER              CCN000050000000050000FN00000000020221001000050000NNM   20220802122407    2C0C  00001000000000137000000202032N2    YWYIPLTC002700430014
BI00B32N2    #2152104144    202209087173-1070                CONNECTOR BRACKET        CCN000001200000001200FN00000000020221001000001200NNM   20220802122407    2F0F  00000120000000592400000968332N2    YWYIPLTC005500360039
BI00B32N2    #2152104144    202209087173-1071                BRACKET                  CCN000001200000001200FN00000000020221001000001200NNM   20220802122407    2F0F  00000120000001156800001388232N2    YWYIPLTC005600390040
BI00B32N2    #2152104144    202209087173-1516                SIDE BRACKET             CCN000001200000001200FN00000000020221001000001200NNM   20220802122407    2F0F  00000060000000960000001090032N2    YWYIPLTC005500360039
BI00B32N2    #2152104144    202209087174-0152                CONNECTOR                CCN000000700000000700FN00000000020221001000000700NNM   20220802122407    2F0F  00000035000000746400000918632N2    YWYIPLTC005500360039
BI00B32N2    #2152104144    202209087183-1616                CONNECTOR HOUSING        CCN000002400000002400FN00000000020221001000002400NNM   20220802122407    2F0F  00000240000000557500000823332N2    YWYIPLTC005500360039
BI00B32N2    #2152104144    202209087183-6320                HOUSING                  CCN000004800000004800FN00000000020221001000004800NNM   20220802122407    2F0F  00000480000000820800001103632N2    YWYIPLTC005500360039
BI00B32N2    #2152104144    202209087187-3356                JOINT CONNECTOR          CCN000006000000006000FN00000000020221001000006000NNM   20220802122407    2F0F  00000120000000759600001024432N2    YWYIPLTC005600390040
BI00B32N2    #2152104144    202209087187-3360                JOINT CONNECTOR          CCN000002400000002400FN00000000020221001000002400NNM   20220802122407    2F0F  00000120000000759600001026832N2    YWYIPLTC005600390040
BI00B32N2    #2152104143    202209017187-3970                CONNECTOR FLAME          CCN000000368000000368FN00000000020221001000000368NNM   20220802122407    2F0F  00000036800001414000001737332N2    YWYIPLTC005600390040
BI00B32N2    #2152104144    202209087187-3970                CONNECTOR FLAME          CCN000001104000001104FN00000000020221001000001104NNM   20220802122407    2F0F  00000036800001414000001737332N2    YWYIPLTC005600390040
BI00B32N2    #2152104143    202209017282-3020                CONNECTOR                CCN000002000000002000FN00000000020221001000002000NNM   20220802122407    2N0N  00000100000000984000001145432N2    YWYIPLTC005500360039
BI00B32N2    #2152104144    202209087282-3020                CONNECTOR                CCN000001000000001000FN00000000020221001000001000NNM   20220802122407    2N0N  00000100000000984000001145432N2    YWYIPLTC005500360039
BI00B32N2    #2152104144    202209087123-7564-40             CONNECTOR                CCN000001000000001000FN00000000020221001000001000NNM   20220802122407    2F0F  00000100000001301000001479032N2    YWYIPLTC005600390040
BI00B32N2    #2152104143    202209017140-1978-30             LOWER COVER              CCN000000456000000456FN00000000020221001000000456NNM   20220802122407    2F0F  00000000800000207100000395132N2    YWYIPLTC005500360039
BI00B32N2    #2152104144    202209087140-1978-30             LOWER COVER              CCN000001040000001040FN00000000020221001000001040NNM   20220802122407    2F0F  00000000800000207100000395132N2    YWYIPLTC005500360039
BI00B32N2    #2152104143    202209017157-7897-60             SEAL RUBBER              CCN000010000000010000FN00000000020221001000010000NNM   20220802122407    2C0C  00001000000000132000000214732N2    YWYIPLTC002700430014
BI00B32N2    #2152104143    202209017183-7725-40             HOUSING                  CCN000006000000006000FN00000000020221001000006000NNM   20220802122407    2F0F  00000600000000840000001040032N2    YWYIPLTC005600390040
BI00B32N2    #2152104144    202209087183-7725-40             HOUSING                  CCN000006000000006000FN00000000020221001000006000NNM   20220802122407    2F0F  00000600000000840000001040032N2    YWYIPLTC005600390040
BI00B32N2    #2152104144    202209087186-3975-80             CONNECTOR HOUSING        CCN000002400000002400FN00000000020221001000002400NNM   20220802122407    2F0F  00000240000001065100001236332N2    YWYIPLTC005500360039
BI00B32N2    #2152104144    202209087187-3358-30             JOINT CONNECTOR          CCN000001200000001200FN00000000020221001000001200NNM   20220802122407    2F0F  00000120000000673200000940432N2    YWYIPLTC005600390040
BI00B32N2    #2152104144    202209087187-3974-30             CONNECTOR HOUSING        CCN000002400000002400FN00000000020221001000002400NNM   20220802122407    2F0F  00000240000000907400001078632N2    YWYIPLTC005500360039
BI00B32N2    @2152104144    202209087183-3190                JOINT CONNECTOR          CCN000007200000007200FN00000000020221001000007200NNM   20220802122407    3F0F  00000360000000457600000667832N2    YWYIPLTC005500360039
BI00B32N2    @2152104144    202209087283-1100                CONNECTOR ASS'Y          CCN000001600000001600FN00000000020221001000001600NNM   20220802122407    3N0N  00000160000000566500000799632N2    YWYIPLTC005500360039
BI00B32Q8    EU22094 MW     202208177116-1180                TERMINAL                 CCN000019500000019500FN00000000020220901000019500NNMD0020220802151847    1P0P  00001950000000618200000903432Q8    EMEMI   006400630015
BI00B32Q8    #EU22094TMW    202208047287-1915-40             CONNECTOR ASS'Y          CCN000002400000002400FN00000000020220901000002400NNMQ0920220802155755    2N0N  00000240000000666500000923132Q8    EMEMI   005500360039
BI00B32Q8    EU2209NTMW     202208047283-7064-40             CONNECTOR HOUSING        CCN000001260000001800FN00000000020220901000001800NNED0720220802132100    1N0N  00000060000000585000000752032Q8    EMEMI   005400370024
BI00B32Q8    EU2209PTMW     202208107283-7064-40             CONNECTOR HOUSING        CCN000001680000001800FN00000000020220901000001800NNED0020220802132100    1N0N  00000060000000585000000752032Q8    EMEMI   005400370024
BI00B32Q8    EU2210ATMW     202208177283-7064-40             CONNECTOR HOUSING        CCN000001680000001800FN00000000020221001000001800NNED0020220802122407    1N0N  00000060000000585000000752032Q8    EMEMI   005400370024
BI00B32Q8    EU2210BTMW     202208247283-7064-40             CONNECTOR HOUSING        CCN000001680000001800FN00000000020221001000001800NNED0020220802122407    1N0N  00000060000000585000000752032Q8    EMEMI   005400370024
BI00B32U5    DI2036A        202209097017-1183-02             TERMINAL                 CCN000027000000027000FN00000000020221001000027000NNE   20220802122407U5  4P0P  00002700000001139400001307432U5    AMAMSD  005100280028
BI00B32U5    DI2036A        202209097158-3022-80             RUBBER STOPPER           CCN000005000000005000FN00000000020221001000005000NNE   20220802122407U5  1C0C  00000500000000467500000524032U5    AMAMSD  002700430014
BI00B32U5    DI2036A        202209097289-3342-30             HOUSING FEMALE ASS'Y     CCN000048000000048000FN00000000020221001000048000NNE   20220802122407U5  1N0N  00000240000000686400000901432U5    AMAMSD  005500360039
BI00B32U5    DI2036A        202209097C89-6868-30             SEALED ASSY FEMALE       CCN000012600000012600FN00000000020221001000012600NNE   20220802122407U5  4N0N  00000252000000839200001119232U5    AMAMSD  005500360039
BI00B32U5    #DI2036A       202209097182-8253-40             HOUSING                  CCN000002400000002400FN00000000020221001000002400NNE   20220802122407U5  2F0F  00000120000000573000000864032U5    AMAMSD  005600390040
BI00B32U5    DI2037A        202209167114-4032                TERMINAL                 CCN000015000000015000FN00000000020221001000015000NNE   20220802122407U5  4P0P  00000750000000735000001063632U5    AMAMSD  006400630017
BI00B32U5    DI2037A        202209167116-1685-02             TERMINAL                 CCN000168000000168000FN00000000020221001000168000NNE   20220802122407U5  4P0P  00002400000000897600001065232U5    AMAMSD  005100280028
BI00B32U5    DI2037A        202209167196-1102-02             TERMINAL                 CCN000022500000022500FN00000000020221001000022500NNE   20220802122407U5  4P0P  00002250000000405000000690232U5    AMAMSD  006400630015
BI00B32U5    DI2037A        202209167289-4696-30             HOUSING FEMALE ASS'Y     CCN000002000000002000FN00000000020221001000002000NNE   20220802122407U5  4N0N  00000200000000913400001055432U5    AMAMSD  005400370024
BI00B32U5    DI2037A        202209167B96-0805-02             TERMINAL FEMALE          CCN000022500000022500FN00000000020221001000022500NNE   20220802122407U5  4P0P  00002250000000558000000843232U5    AMAMSD  006400630015
BI00B32U5    DI2037A        202209167C89-6868-30             SEALED ASSY FEMALE       CCN000005040000005040FN00000000020221001000005040NNE   20220802122407U5  4N0N  00000252000000839200001119232U5    AMAMSD  005500360039
BI00B32U5    #DI2037A       202209167172-5625-90             RUBBER STOPPER           CCN000040000000040000FN00000000020221001000040000NNE   20220802122407U5  2H0H  00002000000000082400000133832U5    AMAMSD  004300270014
BI00B32U5    #DI2037A       202209167189-2978-30             HOUSING FEMALE           CCN000003000000003000FN00000000020221001000003000NNE   20220802122407U5  2F0F  00000150000000966900001096932U5    AMAMSD  005400370024
BI00B32U5    DI2038A        202209237114-4032                TERMINAL                 CCN000015000000015000FN00000000020221101000015000NNE   20220802122407U5  4P0P  00000750000000735000001063632U5    AMAMSD  006400630017
BI00B32U5    DI2038A        202209237116-1685-02             TERMINAL                 CCN000120000000120000FN00000000020221101000120000NNE   20220802122407U5  4P0P  00002400000000897600001065232U5    AMAMSD  005100280028
BI00B32U5    DI2038A        202209237116-1686-02             TERMINAL                 CCN000021000000021000FN00000000020221101000021000NNE   20220802122407U5  4P0P  00002100000000869400001021632U5    AMAMSD  005100280028
BI00B32U5    DI2038A        202209237289-3342-30             HOUSING FEMALE ASS'Y     CCN000031200000031200FN00000000020221101000031200NNE   20220802122407U5  1N0N  00000240000000686400000901432U5    AMAMSD  005500360039
BI00B32U5    DI2038A        202209237289-4696-30             HOUSING FEMALE ASS'Y     CCN000004000000004000FN00000000020221101000004000NNE   20220802122407U5  4N0N  00000200000000913400001055432U5    AMAMSD  005400370024
BI00B32U5    DI2038A        202209237388-2978-30             HOUSING MALE ASS'Y       CCN000005280000005280FN00000000020221101000005280NNE   20220802122407U5  1N0N  00000048000000742000001122032U5    AMAMSD  005500360039
BI00B32U5    DI2038A        202209237B72-5540-80             SEALED WIRE SEAL         CCN000020000000020000FN00000000020221101000020000NNE   20220802122407U5  1C0C  00002000000000186000000234432U5    AMAMSD  004300270014
BI00B32U5    DI2038A        202209237C89-6868-30             SEALED ASSY FEMALE       CCN000010080000010080FN00000000020221101000010080NNE   20220802122407U5  4N0N  00000252000000839200001119232U5    AMAMSD  005500360039
BI00B32U5    #DI2038A       202209237287-7859                HYBRID FEMALE ASS'Y      CCN000010800000010800FN00000000020221101000010800NNE   20220802122407U5  2N0N  00000120000000461600000671632U5    AMAMSD  005500360039
BI00B32U5    #DI2038A       202209237189-2978-30             HOUSING FEMALE           CCN000004500000004500FN00000000020221101000004500NNE   20220802122407U5  2F0F  00000150000000966900001096932U5    AMAMSD  005400370024
BI00B32U5    DI2039A        202209307114-4032                TERMINAL                 CCN000015000000015000FN00000000020221101000015000NNE   20220802122407U5  4P0P  00000750000000735000001063632U5    AMAMSD  006400630017
BI00B32U5    DI2039A        202209307116-1685-02             TERMINAL                 CCN000120000000120000FN00000000020221101000120000NNE   20220802122407U5  4P0P  00002400000000897600001065232U5    AMAMSD  005100280028
BI00B32U5    DI2039A        202209307116-1686-02             TERMINAL                 CCN000021000000021000FN00000000020221101000021000NNE   20220802122407U5  4P0P  00002100000000869400001021632U5    AMAMSD  005100280028
BI00B32U5    DI2039A        202209307289-3342-30             HOUSING FEMALE ASS'Y     CCN000031200000031200FN00000000020221101000031200NNE   20220802122407U5  1N0N  00000240000000686400000901432U5    AMAMSD  005500360039
BI00B32U5    DI2039A        202209307289-4696-30             HOUSING FEMALE ASS'Y     CCN000004000000004000FN00000000020221101000004000NNE   20220802122407U5  4N0N  00000200000000913400001055432U5    AMAMSD  005400370024
BI00B32U5    DI2039A        202209307388-2978-30             HOUSING MALE ASS'Y       CCN000005280000005280FN00000000020221101000005280NNE   20220802122407U5  1N0N  00000048000000742000001122032U5    AMAMSD  005500360039
BI00B32U5    DI2039A        202209307B72-5540-80             SEALED WIRE SEAL         CCN000020000000020000FN00000000020221101000020000NNE   20220802122407U5  1C0C  00002000000000186000000234432U5    AMAMSD  004300270014
BI00B32U5    DI2039A        202209307C89-6868-30             SEALED ASSY FEMALE       CCN000010080000010080FN00000000020221101000010080NNE   20220802122407U5  4N0N  00000252000000839200001119232U5    AMAMSD  005500360039
BI00B32U5    #DI2039A       202209307287-7859                HYBRID FEMALE ASS'Y      CCN000010800000010800FN00000000020221101000010800NNE   20220802122407U5  2N0N  00000120000000461600000671632U5    AMAMSD  005500360039
BI00B32U5    #DI2039A       202209307189-2978-30             HOUSING FEMALE           CCN000004500000004500FN00000000020221101000004500NNE   20220802122407U5  2F0F  00000150000000966900001096932U5    AMAMSD  005400370024
BI00B32U5    DI2040A        202210077116-1685-02             TERMINAL                 CCN000120000000120000FN00000000020221101000120000NNE   20220802122407U5  4P0P  00002400000000897600001065232U5    AMAMSD  005100280028
BI00B32U5    DI2040A        202210077116-1686-02             TERMINAL                 CCN000021000000021000FN00000000020221101000021000NNE   20220802122407U5  4P0P  00002100000000869400001021632U5    AMAMSD  005100280028
BI00B32U5    DI2040A        202210077289-3342-30             HOUSING FEMALE ASS'Y     CCN000031200000031200FN00000000020221101000031200NNE   20220802122407U5  1N0N  00000240000000686400000901432U5    AMAMSD  005500360039
BI00B32U5    DI2040A        202210077388-2978-30             HOUSING MALE ASS'Y       CCN000005280000005280FN00000000020221101000005280NNE   20220802122407U5  1N0N  00000048000000742000001122032U5    AMAMSD  005500360039
BI00B32U5    DI2040A        202210077C89-6868-30             SEALED ASSY FEMALE       CCN000010080000010080FN00000000020221101000010080NNE   20220802122407U5  4N0N  00000252000000839200001119232U5    AMAMSD  005500360039
BI00B32U5    #DI2040A       202210077189-2978-30             HOUSING FEMALE           CCN000015000000015000FN00000000020221101000015000NNE   20220802122407U5  2F0F  00000150000000966900001096932U5    AMAMSD  005400370024
BI00B32U5    DI2041A        202210077017-1180-02             TERMINAL                 CCN000144000000144000FN00000000020221101000144000NNE   20220802122407U5  4P0P  00007200000001065600001229032U5    AMAMSD  005100280028
BI00B32U5    DI2041A        202210077116-1685-02             TERMINAL                 CCN000240000000240000FN00000000020221101000240000NNE   20220802122407U5  4P0P  00002400000000897600001065232U5    AMAMSD  005100280028
BI00B32U5    DI2041A        202210077116-1686-02             TERMINAL                 CCN000021000000021000FN00000000020221101000021000NNE   20220802122407U5  4P0P  00002100000000869400001021632U5    AMAMSD  005100280028
BI00B32U5    #DI2041A       202210077172-5631-60             RUBBER STOPPER           CCN000180000000180000FN00000000020221101000180000NNE   20220802122407U5  2H0H  00002000000000042000000093132U5    AMAMSD  004300270014
BI00B32U5    #DI2041A       202210077182-8253-40             HOUSING                  CCN000002400000002400FN00000000020221101000002400NNE   20220802122407U5  2F0F  00000120000000573000000864032U5    AMAMSD  005600390040
BI00B32W4    4500191047     202209087289-9553-30             SEALED ASSY FEMALE       CCN000005880000005880FN00000000020220501000005880NNED0020220802164925W4N64N0N  00000294000001109000001521532W4N6  HJYHK-J 005500360039
BI00A32W4    4500195179     202209097289-9553-30             SEALED ASSY FEMALE       CCN000002940000002940FN00000000020220901000002940NNEM0020220802164959W4N64N0N  00000294000001109000001521532W4N6  HJYHK-J 005500360039
BI00B32W4    4500195182     202209017289-9553-30             SEALED ASSY FEMALE       CCN000008820000008820FN00000000020220801000008820NNED0020220802165026W4N64N0N  00000294000001109000001521532W4N6  HJYHK-J 005500360039
BI00A32W4    4500197818     202210067158-3169-40             SEALING PLUG             CCN000080000000080000FN00000000020221001000080000NNE   20220802122407W4D31C0C  00004000000000156000000204132W4D3  HJYHK-J 004300260014
BI00A32W4    4500197819     202210067158-3169-40             SEALING PLUG             CCN000040000000040000FN00000000020221001000040000NNE   20220802122407W4D31C0C  00004000000000156000000204132W4D3  HJYHK-J 004300260014
BI00A32W4    4500197828     202209267116-4102-02             TERMINAL                 CCN000012000000012000FN00000000020220901000012000NNE   20220802122407W4L74P0P  00001200000000553200000841432W4L7  HJYHK-J 006400630015
BI00A32W4    4500197850     202210037283-7028-30             CONNECTOR                CCN000003000000003000FN00000000020221001000003000NNE   20220802122407W4M54N0N  00000300000001452000001681332W4M5  HJYHK-J 005600390040
BI00A32W4    4500197850     202210037158-3166-60             WIRE SEAL                CCN000040000000040000FN00000000020221001000040000NNE   20220802122407W4M51C0C  00004000000000104000000152432W4M5  HJYHK-J 002700430014
BI00A32W4    4500197851     202210107116-4112-02             TERMINAL                 CCN000012000000012000FN00000000020221001000012000NNE   20220802122407W4M54P0P  00000600000000450000000738232W4M5  HJYHK-J 006400630015
BI00A32W4    #4500197851    202210107186-8845                HOUSING MALE             CCN000003000000003000FN00000000020221001000003000NNE   20220802122407W4M52F0F  00000300000000690000000801532W4M5  HJYHK-J 005400370024
BI00A32W4    4500197856     202208187114-4100-02             TERMINAL                 CCN000018000000018000FN00000000020220801000018000NNE   20220802122407W4204P0P  00001800000000748800001077432W420  HJYHK   006400630017
BI00B32W9    4500197734     202208167158-3166-60             WIRE SEAL                CCN000440000000440000FN00000000020220801000440000NNED0720220802122407W9  1C0C  00004000000000104000000152432W9    HKYHK   002700430014
BI00B32W9    4500197836     202209067116-1685-02             TERMINAL                 CCN000024000000024000FN00000000020220901000024000NNE   20220802122407W93 4P0P  00002400000000897600001065232W93   HKYHK   005100280028
BI00B32W9    4500197836     202209067114-4231-02             TERMINAL                 CCN000018000000018000FN00000000020220901000018000NNE   20220802122407W93 4P0P  00001800000000554400000848032W93   HKYHK   006400630015
BI00B32W9    #4500197836    202209067282-2090-30             CONNECTOR MALE ASS'Y     CCN000002400000002400FN00000000020220901000002400NNE   20220802122407W93 2N0N  00000240000000794000001073032W93   HKYHK   005500360039
BI00B32W9    @4500197836    202209067123-2825                HOUSING                  CCN000006000000006000FN00000000020220901000006000NNE   20220802122407W93 3F0F  00000600000000958800001136432W93   HKYHK   005500360039
BI00B32X5    TIB2035B       202209027114-4486-02             TERMINAL                 CCN000048000000048000FN00000000020221001000048000NNE   20220802122407X5  4P0P  00002400000000662400000956032X5    EPYNA-E 006400630015
BI00B32X5    TIB2035B       202209027196-0510-02             TERMINAL                 CCN000024000000024000FN00000000020221001000024000NNE   20220802122407X5  4P0P  00002400000000871200001034632X5    EPYNA-E 002800510028
BI00B32X5    TIB2035B       202209027295-0785-02             TERMINAL ALUMINIUM       CCN000051000000051000FN00000000020221001000051000NNE   20220802122407X5  4P0P  00002550000000510000000803632X5    EPYNA-E 006400630015
BI00B32X5    TIB2035B       202209027296-0784-02             TERMINAL ALUMINIUM       CCN000096000000096000FN00000000020221001000096000NNE   20220802122407X5  4P0P  00002400000000480000000765232X5    EPYNA-E 006400630015
BI00B32X5    #TIB2035B      202209027287-7859                HYBRID FEMALE ASS'Y      CCN000014400000014400FN00000000020221001000014400NNE   20220802122407X5  2N0N  00000120000000461600000671632X5    EPYNA-E 005500360039
BI00B32X5    #TIB2035B      202209027158-3004-40             RUBBER STOPPER           CCN000120000000120000FN00000000020221001000120000NNE   20220802122407X5  2C0C  00002000000000234000000306332X5    EPYNA-E 002700430014
BI00B32X5    #TIB2035B      202209027158-3015-10             RUBBER STOPPER           CCN000020000000020000FN00000000020221001000020000NNE   20220802122407X5  2C0C  00001000000000419500000474032X5    EPYNA-E 002700430014
BI00B32X5    #TIB2035B      202209027158-3610-80             RUBBER STOPPER           CCN000003000000003000FN00000000020221001000003000NNE   20220802122407X5  2H0H  00000300000000396900000438932X5    EPYNA-E 004300270014
BI00B32X5    #TIB2035B      202209027183-8253-40             HOUSING                  CCN000002400000002400FN00000000020221001000002400NNE   20220802122407X5  2F0F  00000240000000528000000805032X5    EPYNA-E 005500360039
