BI00B32DG    @RH2093A       20220818181E50011ZZ              AVSSCS-S 0.5FX2 DGY/Y    CCN000003000000000300FN00000000020220901000000300NNE00 20220802082906    1W    00000030000003096000000000032DG    BFSAIBF 000000000000GR128001
BI00A32DG    @RH2093A       20220802181E50011ZZ              AVSSCS-S 0.5FX2 DGY/Y    CCN000002700000002700FN00000000020220901000002700NNE20 20220802083914    1W    00000030000003096000000000032DG    BFSAIBF 000000000000GR128001
BI00A32DJ    GHT2210D       20220805180D0203752              AVSSH 0.3F P             CCN000002000000002000FN00000000020220801000002000NNE   20220802141205    1W    00000200000000515000000000032DJ    RBYIPLRB000000000000XL427001
BI00B32D1    DFTW2241D      2022082518000004534              AV 8 B/W                 CCN000005500000005500FN00000000020221001000005500NNE   20220802102142    1W    00000010000010466200000000032D1    TOYOT-K 000000000000KL228013
BI00B32D1    DFTW2241D      2022082518000004535              AV 8 B/R                 CCN000002500000002500FN00000000020221001000002500NNE   20220802102142    1W    00000010000010466200000000032D1    TOYOT-K 000000000000KL228012
BI00B32D1    DFTW2241D      2022082518000004550              AV 8 R                   CCN000000300000000300FN00000000020221001000000300NNE   20220802102142    1W    00000010000010466200000000032D1    TOYOT-K 000000000000KL228014
BI00B32D1    @DFTW2241D     20220825181AD2002ZZ              CIVUSAS-S 0.35X2 B       CCN000002250000002250FN00000000020221001000002250NNE   20220802102134    1W    00000045000001713700000000032D1    TOYOT-K 000000000000KL228003
BI00B32D1    @DFTW2241D     20220825181AD2003ZZ              CIVUSAS-S 0.35X3 B       CCN000001500000001750FN00000000020221001000001750NNE   20220802102134    1W    00000035000002172100000000032D1    TOYOT-K 000000000000KL228004
BI00B32D1    @DFTW2241D     20220825181E48031ZZ              CAVSAS-S 0.3X2 GY        CCN000001400000001400FN00000000020221001000001400NNE   20220802102134    1W    00000035000002008700000000032D1    TOYOT-K 000000000000KL228005
BI00B32D1    @DFTW2241D     20220825181E50020ZZ              AVSSCS-S 0.3FX2 DGY/R    CCN000002450000002450FN00000000020221001000002450NNE   20220802102134    1W    00000035000002165000000000032D1    TOYOT-K 000000000000KL228007
BI00B32D1    @DFTW2241D     20220825181E50021ZZ              AVSSCS-S 0.3FX2 DGY/P    CCN000001400000001400FN00000000020221001000001400NNE   20220802102134    1W    00000035000002165000000000032D1    TOYOT-K 000000000000KL228006
BI00B32D1    DFTW2241E      2022082518000004534              AV 8 B/W                 CCN000002200000002200FN00000000020221001000002200NNE   20220802102143    1W    00000010000010466200000000032D1    TOYOT-K 000000000000KM228020
BI00B32D1    DFTW2241E      2022082518000004535              AV 8 B/R                 CCN000003300000003300FN00000000020221001000003300NNE   20220802102143    1W    00000010000010466200000000032D1    TOYOT-K 000000000000KM228019
BI00B32D1    DFTW2241E      2022082518000004543              AV 8 W/B                 CCN000004100000004100FN00000000020221001000004100NNE   20220802102143    1W    00000010000010466200000000032D1    TOYOT-K 000000000000KM228022
BI00B32D1    DFTW2241E      2022082518000004550              AV 8 R                   CCN000000600000000600FN00000000020221001000000600NNE   20220802102143    1W    00000010000010466200000000032D1    TOYOT-K 000000000000KM228021
BI00B32D1    @DFTW2241E     20220825181AD2003ZZ              CIVUSAS-S 0.35X3 B       CCN000002500000002800FN00000000020221001000002800NNE   20220802102136    1W    00000035000002172100000000032D1    TOYOT-K 000000000000KM228003
BI00B32D1    @DFTW2241E     20220825181E50002ZZ              AVSSCS-S 0.3FX2 DGY/G    CCN000009800000009800FN00000000020221001000009800NNE   20220802102136    1W    00000035000002165000000000032D1    TOYOT-K 000000000000KM228006
BI00B32D1    @DFTW2241E     20220825181E50007ZZ              AVSSCS-S 0.5FX1 DGY/L    CCN000000400000000400FN00000000020221001000000400NNE   20220802102136    1W    00000040000001909700000000032D1    TOYOT-K 000000000000KM228004
BI00B32D1    @DFTW2241E     20220825181E50020ZZ              AVSSCS-S 0.3FX2 DGY/R    CCN000004200000004200FN00000000020221001000004200NNE   20220802102136    1W    00000035000002165000000000032D1    TOYOT-K 000000000000KM228008
BI00B32D1    @DFTW2241E     20220825181E50021ZZ              AVSSCS-S 0.3FX2 DGY/P    CCN000007700000007700FN00000000020221001000007700NNE   20220802102136    1W    00000035000002165000000000032D1    TOYOT-K 000000000000KM228007
BI00B32D1    @DFTW2241E     20220825181E50036ZZ              AVSSCS-S 0.3FX2 DGY      CCN000005950000005950FN00000000020221001000005950NNE   20220802102136    1W    00000035000002165000000000032D1    TOYOT-K 000000000000KM228005
BI00B32D2    @DGTW2241D     20220825181AD2002ZZ              CIVUSAS-S 0.35X2 B       CCN000006750000006750FN00000000020221001000006750NNE   20220802160929    1W    00000045000001713700000000032D2    TGYOT-G 000000000000KP228001
BI00B32D2    @DGTW2241D     20220825181AD2003ZZ              CIVUSAS-S 0.35X3 B       CCN000002500000002800FN00000000020221001000002800NNE   20220802160929    1W    00000035000002172100000000032D2    TGYOT-G 000000000000KP228002
BI00B32D2    @DGTW2241D     20220825181AD2004ZZ              CIVUSAS-S 0.35X4 B       CCN000008400000008400FN00000000020221001000008400NNE   20220802160929    1W    00000030000002799900000000032D2    TGYOT-G 000000000000KP228003
BI00B32D2    @DGTW2241D     20220825181E48037ZZ              CAVSAS-S 0.3X4 GY        CCN000000750000000750FN00000000020221001000000750NNE   20220802160929    1W    00000025000003262000000000032D2    TGYOT-G 000000000000KP228004
BI00B32D2    @DGTW2241D     20220825181E50004ZZ              AVSSCS-S 0.5FX1 DGY      CCN000008000000008000FN00000000020221001000008000NNE   20220802160929    1W    00000040000001909700000000032D2    TGYOT-G 000000000000KP228005
BI00B32D2    @DGTW2241D     20220825181E50005ZZ              AVSSCS-S 0.5FX1 DGY/W    CCN000005600000005600FN00000000020221001000005600NNE   20220802160929    1W    00000040000001909700000000032D2    TGYOT-G 000000000000KP228006
BI00B32D2    @DGTW2241D     20220825181E50036ZZ              AVSSCS-S 0.3FX2 DGY      CCN000008400000008400FN00000000020221001000008400NNE   20220802160929    1W    00000035000002165000000000032D2    TGYOT-G 000000000000KP228007
BI00B32D2    @DGTW2241D     20220825181F21016ZZ              AVSSHCS-S 0.5FX2 B/BR    CCN000009300000009300FN00000000020221001000009300NNE   20220802160929    1W    00000030000002531400000000032D2    TGYOT-G 000000000000KP228008
BI00B32D2    @DGTW2241D     20220825181F21031ZZ              AVSSHCS-S 1.25FX2 B/P    CCN000011800000011800FN00000000020221001000011800NNE   20220802160929    1W    00000020000004267300000000032D2    TGYOT-G 000000000000KP228009
BI00B32R4    HZYBW2209025   2022090618018403961              CAVS 0.5 LG              CCN000002000000003000FN00000000020220901000003000NNE   20220802114857    1W    00000150000000677000000000032R4    HYHZY   000000000000HZ428003
BI00B32R4    HZYBW2209025   20220906180D0203940              AVSSH 0.5F W             CCN000020000000021000FN00000000020220901000021000NNE   20220802114857    1W    00000150000000689000000000032R4    HYHZY   000000000000HZ428002
BI00B32R4    HZYBW2209025   20220906180D0203937              AVSSH 0.5F B/Y           CCN000003600000004500FN00000000020220901000004500NNE   20220802114857    1W    00000150000000689000000000032R4    HYHZY   000000000000HZ428001
BI00A32W4    4500197486     2022080818018403951              CAVS 0.5 O               CCN000006000000006000FN00000000020220801000006000NNE20 20220802135936W41 1W    00000150000000677000000000032W41   HJYHK-J 000000000000ON128003
BI00B32W4    4500197486     2022081618018404061              CAVS 0.85 LG             CCN000003000000001000FN00000000020220801000001000NNE00 20220802140001W41 1W    00000100000000965000000000032W41   HJYHK-J 000000000000ON128004
BI00A32W4    4500197486     2022080818018404061              CAVS 0.85 LG             CCN000002000000002000FN00000000020220801000002000NNE20 20220802140001W41 1W    00000100000000965000000000032W41   HJYHK-J 000000000000ON128004
BI00B32DG    @RH2093A       20220818181E50011ZZ              AVSSCS-S 0.5FX2 DGY/Y    CCN000003000000000300FN00000000020220901000000300NNE00 20220802082906    1W    00000030000003096000000000032DG    BFSAIBF 000000000000GR128001
BI00A32DG    @RH2093A       20220802181E50011ZZ              AVSSCS-S 0.5FX2 DGY/Y    CCN000002700000002700FN00000000020220901000002700NNE20 20220802083914    1W    00000030000003096000000000032DG    BFSAIBF 000000000000GR128001
BI00A32DJ    GHT2210D       20220805180D0203752              AVSSH 0.3F P             CCN000002000000002000FN00000000020220801000002000NNE   20220802141205    1W    00000200000000515000000000032DJ    RBYIPLRB000000000000XL427001
BI00B32D1    DFTW2241D      2022082518000004534              AV 8 B/W                 CCN000005500000005500FN00000000020221001000005500NNE   20220802102142    1W    00000010000010466200000000032D1    TOYOT-K 000000000000KL228013
BI00B32D1    DFTW2241D      2022082518000004535              AV 8 B/R                 CCN000002500000002500FN00000000020221001000002500NNE   20220802102142    1W    00000010000010466200000000032D1    TOYOT-K 000000000000KL228012
BI00B32D1    DFTW2241D      2022082518000004550              AV 8 R                   CCN000000300000000300FN00000000020221001000000300NNE   20220802102142    1W    00000010000010466200000000032D1    TOYOT-K 000000000000KL228014
BI00B32D1    @DFTW2241D     20220825181AD2002ZZ              CIVUSAS-S 0.35X2 B       CCN000002250000002250FN00000000020221001000002250NNE   20220802102134    1W    00000045000001713700000000032D1    TOYOT-K 000000000000KL228003
BI00B32D1    @DFTW2241D     20220825181AD2003ZZ              CIVUSAS-S 0.35X3 B       CCN000001500000001750FN00000000020221001000001750NNE   20220802102134    1W    00000035000002172100000000032D1    TOYOT-K 000000000000KL228004
BI00B32D1    @DFTW2241D     20220825181E48031ZZ              CAVSAS-S 0.3X2 GY        CCN000001400000001400FN00000000020221001000001400NNE   20220802102134    1W    00000035000002008700000000032D1    TOYOT-K 000000000000KL228005
BI00B32D1    @DFTW2241D     20220825181E50020ZZ              AVSSCS-S 0.3FX2 DGY/R    CCN000002450000002450FN00000000020221001000002450NNE   20220802102134    1W    00000035000002165000000000032D1    TOYOT-K 000000000000KL228007
BI00B32D1    @DFTW2241D     20220825181E50021ZZ              AVSSCS-S 0.3FX2 DGY/P    CCN000001400000001400FN00000000020221001000001400NNE   20220802102134    1W    00000035000002165000000000032D1    TOYOT-K 000000000000KL228006
BI00B32D1    DFTW2241E      2022082518000004534              AV 8 B/W                 CCN000002200000002200FN00000000020221001000002200NNE   20220802102143    1W    00000010000010466200000000032D1    TOYOT-K 000000000000KM228020
BI00B32D1    DFTW2241E      2022082518000004535              AV 8 B/R                 CCN000003300000003300FN00000000020221001000003300NNE   20220802102143    1W    00000010000010466200000000032D1    TOYOT-K 000000000000KM228019
BI00B32D1    DFTW2241E      2022082518000004543              AV 8 W/B                 CCN000004100000004100FN00000000020221001000004100NNE   20220802102143    1W    00000010000010466200000000032D1    TOYOT-K 000000000000KM228022
BI00B32D1    DFTW2241E      2022082518000004550              AV 8 R                   CCN000000600000000600FN00000000020221001000000600NNE   20220802102143    1W    00000010000010466200000000032D1    TOYOT-K 000000000000KM228021
BI00B32D1    @DFTW2241E     20220825181AD2003ZZ              CIVUSAS-S 0.35X3 B       CCN000002500000002800FN00000000020221001000002800NNE   20220802102136    1W    00000035000002172100000000032D1    TOYOT-K 000000000000KM228003
BI00B32D1    @DFTW2241E     20220825181E50002ZZ              AVSSCS-S 0.3FX2 DGY/G    CCN000009800000009800FN00000000020221001000009800NNE   20220802102136    1W    00000035000002165000000000032D1    TOYOT-K 000000000000KM228006
BI00B32D1    @DFTW2241E     20220825181E50007ZZ              AVSSCS-S 0.5FX1 DGY/L    CCN000000400000000400FN00000000020221001000000400NNE   20220802102136    1W    00000040000001909700000000032D1    TOYOT-K 000000000000KM228004
BI00B32D1    @DFTW2241E     20220825181E50020ZZ              AVSSCS-S 0.3FX2 DGY/R    CCN000004200000004200FN00000000020221001000004200NNE   20220802102136    1W    00000035000002165000000000032D1    TOYOT-K 000000000000KM228008
BI00B32D1    @DFTW2241E     20220825181E50021ZZ              AVSSCS-S 0.3FX2 DGY/P    CCN000007700000007700FN00000000020221001000007700NNE   20220802102136    1W    00000035000002165000000000032D1    TOYOT-K 000000000000KM228007
BI00B32D1    @DFTW2241E     20220825181E50036ZZ              AVSSCS-S 0.3FX2 DGY      CCN000005950000005950FN00000000020221001000005950NNE   20220802102136    1W    00000035000002165000000000032D1    TOYOT-K 000000000000KM228005
BI00B32D2    @DGTW2241D     20220825181AD2002ZZ              CIVUSAS-S 0.35X2 B       CCN000006750000006750FN00000000020221001000006750NNE   20220802160929    1W    00000045000001713700000000032D2    TGYOT-G 000000000000KP228001
BI00B32D2    @DGTW2241D     20220825181AD2003ZZ              CIVUSAS-S 0.35X3 B       CCN000002500000002800FN00000000020221001000002800NNE   20220802160929    1W    00000035000002172100000000032D2    TGYOT-G 000000000000KP228002
BI00B32D2    @DGTW2241D     20220825181AD2004ZZ              CIVUSAS-S 0.35X4 B       CCN000008400000008400FN00000000020221001000008400NNE   20220802160929    1W    00000030000002799900000000032D2    TGYOT-G 000000000000KP228003
BI00B32D2    @DGTW2241D     20220825181E48037ZZ              CAVSAS-S 0.3X4 GY        CCN000000750000000750FN00000000020221001000000750NNE   20220802160929    1W    00000025000003262000000000032D2    TGYOT-G 000000000000KP228004
BI00B32D2    @DGTW2241D     20220825181E50004ZZ              AVSSCS-S 0.5FX1 DGY      CCN000008000000008000FN00000000020221001000008000NNE   20220802160929    1W    00000040000001909700000000032D2    TGYOT-G 000000000000KP228005
BI00B32D2    @DGTW2241D     20220825181E50005ZZ              AVSSCS-S 0.5FX1 DGY/W    CCN000005600000005600FN00000000020221001000005600NNE   20220802160929    1W    00000040000001909700000000032D2    TGYOT-G 000000000000KP228006
BI00B32D2    @DGTW2241D     20220825181E50036ZZ              AVSSCS-S 0.3FX2 DGY      CCN000008400000008400FN00000000020221001000008400NNE   20220802160929    1W    00000035000002165000000000032D2    TGYOT-G 000000000000KP228007
BI00B32D2    @DGTW2241D     20220825181F21016ZZ              AVSSHCS-S 0.5FX2 B/BR    CCN000009300000009300FN00000000020221001000009300NNE   20220802160929    1W    00000030000002531400000000032D2    TGYOT-G 000000000000KP228008
BI00B32D2    @DGTW2241D     20220825181F21031ZZ              AVSSHCS-S 1.25FX2 B/P    CCN000011800000011800FN00000000020221001000011800NNE   20220802160929    1W    00000020000004267300000000032D2    TGYOT-G 000000000000KP228009
BI00B32R4    HZYBW2209025   2022090618018403961              CAVS 0.5 LG              CCN000002000000003000FN00000000020220901000003000NNE   20220802114857    1W    00000150000000677000000000032R4    HYHZY   000000000000HZ428003
BI00B32R4    HZYBW2209025   20220906180D0203940              AVSSH 0.5F W             CCN000020000000021000FN00000000020220901000021000NNE   20220802114857    1W    00000150000000689000000000032R4    HYHZY   000000000000HZ428002
BI00B32R4    HZYBW2209025   20220906180D0203937              AVSSH 0.5F B/Y           CCN000003600000004500FN00000000020220901000004500NNE   20220802114857    1W    00000150000000689000000000032R4    HYHZY   000000000000HZ428001
BI00A32W4    4500197486     2022080818018403951              CAVS 0.5 O               CCN000006000000006000FN00000000020220801000006000NNE20 20220802135936W41 1W    00000150000000677000000000032W41   HJYHK-J 000000000000ON128003
BI00B32W4    4500197486     2022081618018404061              CAVS 0.85 LG             CCN000003000000001000FN00000000020220801000001000NNE00 20220802140001W41 1W    00000100000000965000000000032W41   HJYHK-J 000000000000ON128004
BI00A32W4    4500197486     2022080818018404061              CAVS 0.85 LG             CCN000002000000002000FN00000000020220801000002000NNE20 20220802140001W41 1W    00000100000000965000000000032W41   HJYHK-J 000000000000ON128004
