BI00B1200    #H322J50028    202209227282-8395-40             CONNECTOR                CCN000017000000017000FN00000000020221001000017000NNE   20220714121321    2N0N  0000010000000100900000118801200    YCYC    005500360039
BI00B1200    H322J50029     202209227283-6388-40             CONNECTOR                CCN000016000000016000FN00000000020221001000016000NNE   20220714121321    4N0N  0000020000000102900000117351200    YCYC    005500360039
BI00B32AG    XG22103KMW     202209237196-0104-02             TERMINAL                 CCN000038000000000000FY00000000020221001000000000NNMQ0820220714092059    4P0P  00003800000000570000000956432AG    XGXGY   006400630017
BI00B32AG    XG2209AIMW     202208057388-0317-60             CONNECTOR ASS'Y          CCN000001200000001200FN00000000020220901000001200NNE   20220714121321    4N0N  00000120000001034400001129332AG    XGXGY   005400370024
BI00B32AG    XG2209BLMW     202208267388-0314                CONNECTOR ASS'Y          CCN000001200000001200FN00000000020220901000001200NNE   20220714121321    4N0N  00000120000001038000001132332AG    XGXGY   005400370024
BI00B32DE    TCT209A        202208117116-2892-02             TERMINAL                 CCN000072000000072000FN00000000020220901000072000NNE   20220714121321    4P0P  00001200000000818400000981832DE    TVYEV-TV005100280028
BI00B32DE    TCT209A        202208117116-2893-02             TERMINAL                 CCN000156000000156000FN00000000020220901000156000NNE   20220714121321    4P0P  00001200000000895200001058632DE    TVYEV-TV005100280028
BI00B32DE    TCT209A        202208117116-4025                TERMINAL                 CCN000032000000032000FN00000000020220901000032000NNE   20220714121321    4P0P  00001600000000644800000975132DE    TVYEV-TV006400630017
BI00B32DE    TCT209A        202208117116-4032                TERMINAL                 CCN000012000000012000FN00000000020220901000012000NNE   20220714121321    4P0P  00000600000000532800000818032DE    TVYEV-TV006400630015
BI00B32DE    TCT209A        202208117116-5046-02             TERMINAL                 CCN000012000000012000FN00000000020220901000012000NNE   20220714121321    4P0P  00001200000000544800000873532DE    TVYEV-TV006400630017
BI00B32DE    TCT209A        202208117126-8855-02             TERMINAL                 CCN000138000000138000FN00000000020220901000138000NNE   20220714121321    4P0P  00000600000000510600000795832DE    TVYEV-TV006400630015
BI00B32DE    TCT209A        202208117283-1289-40             CONNECTOR HOUSING        CCN000004200000004200FN00000000020220901000004200NNE   20220714121321    1N0N  00000060000000679800000824832DE    TVYEV-TV005400370024
BI00B32DE    TCT209A        202208117283-6120                CONNECTOR HOUSING        CCN000003000000003000FN00000000020220901000003000NNE   20220714121321    1N0N  00000150000000914000001143032DE    TVYEV-TV005600390040
BI00B32DE    TCT209A        202208117283-7526-40             CONNECTOR HOUSING        CCN000003920000003920FN00000000020220901000003920NNE   20220714121321    4N0N  00000196000000989800001248632DE    TVYEV-TV005500360039
BI00B32DE    TCT209A        202208117287-9234                JOINT CONNECTOR          CCN000019200000019200FN00000000020220901000019200NNE   20220714121321    4N0N  00000960000000893800001184832DE    TVYEV-TV005500360039
BI00B32DE    TCT209A        202208117382-1481-10             CONNECTOR                CCN000013600000013600FN00000000020220901000013600NNE   20220714121321    4N0N  00000080000001025000001183032DE    TVYEV-TV005600390040
BI00B32DE    TCT209B        202208187116-1685-02             TERMINAL                 CCN000288000000288000FN00000000020220901000288000NNE   20220714121321    4P0P  00002400000000897600001065232DE    TVYEV-TV005100280028
BI00B32DE    TCT209B        202208187116-1686-02             TERMINAL                 CCN000021000000021000FN00000000020220901000021000NNE   20220714121321    4P0P  00002100000000869400001021632DE    TVYEV-TV005100280028
BI00B32DE    TCT209B        202208187116-2891-02             TERMINAL                 CCN000105000000105000FN00000000020220901000105000NNE   20220714121321    4P0P  00001500000000982500001145932DE    TVYEV-TV005100280028
BI00B32DE    TCT209B        202208187116-4037                TERMINAL                 CCN000048000000048000FN00000000020220901000048000NNE   20220714121321    4P0P  00000600000000600000000894232DE    TVYEV-TV006400630015
BI00B32DE    TCT209B        202208187116-5044-02             TERMINAL                 CCN000160000000160000FN00000000020220901000160000NNE   20220714121321    4P0P  00001600000000641600000986332DE    TVYEV-TV006400630017
BI00B32DE    TCT209B        202208187126-8854-02             TERMINAL                 CCN000075000000075000FN00000000020220901000075000NNE   20220714121321    4P0P  00000750000000604500000889732DE    TVYEV-TV006400630015
BI00B32DE    TCT209B        202208187158-3166-60             WIRE SEAL                CCN000040000000040000FN00000000020220901000040000NNE   20220714121321    1C0C  00004000000000104000000152432DE    TVYEV-TV002700430014
BI00B32DE    TCT209B        202208187196-0510-02             TERMINAL                 CCN000048000000048000FN00000000020220901000048000NNE   20220714121321    4P0P  00002400000000871200001034632DE    TVYEV-TV002800510028
BI00B32DE    TCT209B        202208187283-1289-40             CONNECTOR HOUSING        CCN000004200000004200FN00000000020220901000004200NNE   20220714121321    1N0N  00000060000000679800000824832DE    TVYEV-TV005400370024
BI00B32DE    TCT209B        202208187283-4855-40             CONNECTOR HOUSING        CCN000002400000002400FN00000000020220901000002400NNE   20220714121321    4N0N  00000240000001188400001400032DE    TVYEV-TV005600360039
BI00B32DE    TCT209B        202208187288-3335-30             HOUSING MALE             CCN000003000000003000FN00000000020220901000003000NNE   20220714121321    4N0N  00000150000000867000001012032DE    TVYEV-TV005400370024
BI00B32D1    DFTC2241       202208117017-1180-02             TERMINAL                 CCN000072000000072000FN00000000020221001000072000NNM   20220714121321    4P0P  00007200000001065600001229032D1    TOYOT-K 005100280028
BI00B32D1    DFTC2241       202208117114-4231-02             TERMINAL                 CCN000018000000018000FN00000000020221001000018000NNM   20220714121321    4P0P  00001800000000554400000848032D1    TOYOT-K 006400630015
BI00B32D1    DFTC2241       202208117114-5748-02             TERMINAL                 CCN000036000000036000FN00000000020221001000036000NNM   20220714121321    4P0P  00001200000000444000000737632D1    TOYOT-K 006400630015
BI00B32D1    DFTC2241       202208117114-5753-02             TERMINAL                 CCN000162000000162000FN00000000020221001000162000NNM   20220714121321    4P0P  00002700000000847800001141432D1    TOYOT-K 006400630015
BI00B32D1    DFTC2241       202208117116-1685-02             TERMINAL                 CCN000096000000096000FN00000000020221001000096000NNM   20220714121321    4P0P  00002400000000897600001065232D1    TOYOT-K 005100280028
BI00B32D1    DFTC2241       202208117116-2891-02             TERMINAL                 CCN000090000000090000FN00000000020221001000090000NNM   20220714121321    4P0P  00001500000000982500001145932D1    TOYOT-K 005100280028
BI00B32D1    DFTC2241       202208117116-4100-02             TERMINAL                 CCN000015000000015000FN00000000020221001000015000NNM   20220714121321    4P0P  00001500000000696000000990232D1    TOYOT-K 006400630015
BI00B32D1    DFTC2241       202208117116-4101-02             TERMINAL                 CCN000024000000024000FN00000000020221001000024000NNM   20220714121321    4P0P  00001200000000582000000876232D1    TOYOT-K 006400630015
BI00B32D1    DFTC2241       202208117116-4110-02             TERMINAL                 CCN000054000000054000FN00000000020221001000054000NNM   20220714121321    4P0P  00000900000000594000000882232D1    TOYOT-K 006400630015
BI00B32D1    DFTC2241       202208117116-4111-02             TERMINAL                 CCN000045000000045000FN00000000020221001000045000NNM   20220714121321    4P0P  00000750000000529500000817732D1    TOYOT-K 006400630015
BI00B32D1    DFTC2241       202208117116-4112-02             TERMINAL                 CCN000096000000096000FN00000000020221001000096000NNM   20220714121321    4P0P  00000600000000450000000738232D1    TOYOT-K 006400630015
BI00B32D1    DFTC2241       202208117116-4486-02             TERMINAL                 CCN000084000000084000FN00000000020221001000084000NNM   20220714121321    4P0P  00002800000000666400000995132D1    TOYOT-K 006400630017
BI00B32D1    DFTC2241       202208117116-5045-02             TERMINAL                 CCN000048000000048000FN00000000020221001000048000NNM   20220714121321    4P0P  00001600000000678400001007132D1    TOYOT-K 006400630017
BI00B32D1    DFTC2241       202208117126-8853-02             TERMINAL                 CCN000037500000037500FN00000000020221001000037500NNM   20220714121321    4P0P  00000750000000562500000847732D1    TOYOT-K 006400630015
BI00B32D1    DFTC2241       202208117126-8854-02             TERMINAL                 CCN000075000000075000FN00000000020221001000075000NNM   20220714121321    4P0P  00000750000000604500000889732D1    TOYOT-K 006400630015
BI00B32D1    DFTC2241       202208117126-8855-02             TERMINAL                 CCN000042000000042000FN00000000020221001000042000NNM   20220714121321    4P0P  00000600000000510600000795832D1    TOYOT-K 006400630015
BI00B32D1    DFTC2241       202208117158-3070-80             RUBBER STOPPER           CCN000040000000040000FN00000000020221001000040000NNM   20220714121321    1C0C  00004000000000276000000333332D1    TOYOT-K 002700430014
BI00B32D1    DFTC2241       202208117158-3166-60             WIRE SEAL                CCN000040000000040000FN00000000020221001000040000NNM   20220714121321    1C0C  00004000000000104000000152432D1    TOYOT-K 002700430014
BI00B32D1    DFTC2241       202208117158-3167-80             WIRE SEAL                CCN000020000000020000FN00000000020221001000020000NNM   20220714121321    1C0C  00002000000000048000000109032D1    TOYOT-K 002700430014
BI00B32D1    DFTC2241       202208117196-0396-02             TERMINAL                 CCN000015000000015000FN00000000020221001000015000NNM   20220714121321    4P0P  00001500000000949500001112932D1    TOYOT-K 002800510028
BI00B32D1    DFTC2241       202208117196-0510-02             TERMINAL                 CCN000024000000024000FN00000000020221001000024000NNM   20220714121321    4P0P  00002400000000871200001034632D1    TOYOT-K 002800510028
BI00B32D1    DFTC2241       202208117282-4576                HOUSING MALE ASS'Y       CCN000004800000004800FN00000000020221001000004800NNM   20220714121321    4N0N  00000240000000808800001028832D1    TOYOT-K 005500360039
BI00B32D1    DFTC2241       202208117283-1156                CONNECTOR                CCN000000800000000800FN00000000020221001000000800NNM   20220714121321    4N0N  00000080000000877600001078032D1    TOYOT-K 005600390040
BI00B32D1    DFTC2241       202208117283-5830                CONNECTOR                CCN000006000000006000FN00000000020221001000006000NNM   20220714121321    1N47  00000600000000954000001104032D1    TOYOT-K 005500360039
BI00B32D1    DFTC2241       202208117288-6547                CONNECTOR MALE ASS'Y     CCN000007500000007500FN00000000020221001000007500NNM   20220714121321    4N0N  00000075000001205300001340332D1    TOYOT-K 005400370024
BI00B32D1    DFTC2241       202208117289-3342                HOUSING FEMALE ASS'Y     CCN000021600000021600FN00000000020221001000021600NNM   20220714121321    1N0N  00000240000000686400000901432D1    TOYOT-K 005500360039
BI00B32D1    DFTC2241       202208117289-3342-30             HOUSING FEMALE ASS'Y     CCN000040800000040800FN00000000020221001000040800NNM   20220714121321    1N0N  00000240000000686400000901432D1    TOYOT-K 005500360039
BI00B32D1    DFTC2241       202208117289-3342-40             HOUSING FEMALE ASS'Y     CCN000002400000002400FN00000000020221001000002400NNM   20220714121321    1N0N  00000240000000686400000901432D1    TOYOT-K 005500360039
BI00B32D1    DFTC2241       202208117289-3342-90             HOUSING FEMALE ASS'Y     CCN000002400000002400FN00000000020221001000002400NNM   20220714121321    1N0N  00000240000000686400000901432D1    TOYOT-K 005500360039
BI00B32D1    DFTC2241       202208117289-6547                HOUSING FEMALE ASS'Y     CCN000004800000004800FN00000000020221001000004800NNM   20220714121321    1N0N  00000240000001152000001362032D1    TOYOT-K 005500360039
BI00B32D1    DFTC2241       202208117295-0785-02             TERMINAL ALUMINIUM       CCN000025500000025500FN00000000020221001000025500NNM   20220714121321    4P0P  00002550000000510000000803632D1    TOYOT-K 006400630015
BI00B32D1    DFTC2241       202208117296-0784-02             TERMINAL ALUMINIUM       CCN000024000000024000FN00000000020221001000024000NNM   20220714121321    4P0P  00002400000000480000000765232D1    TOYOT-K 006400630015
BI00B32D1    DFTC2241       202208117327-6731-3W             BATTERY FUSE             CCN000000576000000576FN00000000020221001000000576NNM   20220714121321    4N0N  00000006400000697600000843032D1    TOYOT-K 005400370024
BI00B32D1    DFTC2241       202208117388-2978-30             HOUSING MALE ASS'Y       CCN000001440000001440FN00000000020221001000001440NNM   20220714121321    1N0N  00000048000000742000001122032D1    TOYOT-K 005500360039
BI00B32D1    #DFTC2241      202208117047-5344                RETAINER                 CCN000010000000010000FN00000000020221001000010000NNM   20220714121321    2F0F  00001000000000870000001016032D1    TOYOT-K 005600390023
BI00B32D1    #DFTC2241      202208117158-3003-90             RUBBER STOPPER           CCN000020000000020000FN00000000020221001000020000NNM   20220714121321    2C0C  00002000000000250000000306032D1    TOYOT-K 002700430014
BI00B32D1    #DFTC2241      202208117158-3004-40             RUBBER STOPPER           CCN000020000000020000FN00000000020221001000020000NNM   20220714121321    2C0C  00002000000000234000000306332D1    TOYOT-K 002700430014
BI00B32D1    #DFTC2241      202208117158-3005-80             RUBBER STOPPER           CCN000020000000020000FN00000000020221001000020000NNM   20220714121321    2H0H  00002000000000210000000268732D1    TOYOT-K 002700430014
BI00B32D1    #DFTC2241      202208117158-3008-80             RUBBER STOPPER           CCN000040000000040000FN00000000020221001000040000NNM   20220714121321    2C0C  00002000000000288000000343032D1    TOYOT-K 004300270014
BI00B32D1    #DFTC2241      202208117158-3015-10             RUBBER STOPPER           CCN000010000000010000FN00000000020221001000010000NNM   20220714121321    2C0C  00001000000000419500000474032D1    TOYOT-K 002700430014
BI00B32D1    #DFTC2241      202208117158-3017                RUBBER STOPPER           CCN000020000000020000FN00000000020221001000020000NNM   20220714121321    2C0C  00001000000000375500000435032D1    TOYOT-K 002700430014
BI00B32D1    #DFTC2241      202208117172-5629-80             RUBBER STOPPER           CCN000020000000020000FN00000000020221001000020000NNM   20220714121321    2H0H  00002000000000060000000111132D1    TOYOT-K 004300270014
BI00B32D1    #DFTC2241      202208117172-5630-40             RUBBER STOPPER           CCN000020000000020000FN00000000020221001000020000NNM   20220714121321    2H0H  00002000000000044000000095132D1    TOYOT-K 004300270014
BI00B32D1    #DFTC2241      202208117172-5632-10             DUMMY PLUG               CCN000020000000020000FN00000000020221001000020000NNM   20220714121321    2H0H  00002000000000080400000131832D1    TOYOT-K 004300270014
BI00B32D1    #DFTC2241      202208117183-2415-90             CONNECTOR HOUSING        CCN000004800000004800FN00000000020221001000004800NNM   20220714121321    2F0F  00000480000000798200001091432D1    TOYOT-K 005500360039
BI00B32D1    #DFTC2241      202208117183-2418-30             CONNECTOR HOUSING        CCN000004800000004800FN00000000020221001000004800NNM   20220714121321    2F0F  00000480000000917000001235332D1    TOYOT-K 005500360039
BI00B32D1    #DFTC2241      202208117189-2978-30             HOUSING FEMALE           CCN000001500000001500FN00000000020221001000001500NNM   20220714121321    2F0F  00000150000000966900001096932D1    TOYOT-K 005400370024
BI00B32D1    #DFTC2241      202208117189-3033                HOUSING FEMALE           CCN000003200000003200FN00000000020221001000003200NNM   20220714121321    2F0F  00000160000001211200001431232D1    TOYOT-K 005500360039
BI00B32D1    #DFTC2241      202208117189-3036                HOUSING FEMALE           CCN000003200000003200FN00000000020221001000003200NNM   20220714121321    2F0F  00000160000000921600001141632D1    TOYOT-K 005500360039
BI00B32D1    #DFTC2241      202208117282-1641                CONNECTOR                CCN000002000000002000FN00000000020221001000002000NNM   20220714121321    2N0N  00000200000000813000000986032D1    TOYOT-K 005500360039
BI00B32D1    #DFTC2241      202208117289-3622-30             HOUSING FEMALE ASS'Y     CCN000000432000000432FN00000000020221001000000432NNM   20220714121321    2N0N  00000043200000839400001038432D1    TOYOT-K 005400370024
BI00B32D1    #DFTC2241      202208117289-4200-30             HOUSING FEMALE ASS'Y     CCN000002000000002000FN00000000020221001000002000NNM   20220714121321    2N0N  00000200000000926000001021032D1    TOYOT-K 005400370024
BI00B32D2    DGTC2241       202208117017-1180-02             TERMINAL                 CCN000072000000072000FN00000000020221001000072000NNM   20220714121321    4P0P  00007200000001065600001229032D2    TGYOT-G 005100280028
BI00B32D2    DGTC2241       202208117017-1181-02             TERMINAL                 CCN000063000000063000FN00000000020221001000063000NNM   20220714121321    4P0P  00006300000001089900001266832D2    TGYOT-G 005100280028
BI00B32D2    DGTC2241       202208117017-1182-02             TERMINAL                 CCN000045000000045000FN00000000020221001000045000NNM   20220714121321    4P0P  00004500000001165500001318632D2    TGYOT-G 005100280028
BI00B32D2    DGTC2241       202208117114-4032                TERMINAL                 CCN000075000000075000FN00000000020221001000075000NNM   20220714121321    4P0P  00000750000000735000001063632D2    TGYOT-G 006400630017
BI00B32D2    DGTC2241       202208117114-4624-02             TERMINAL                 CCN000024000000024000FN00000000020221001000024000NNM   20220714121321    4P0P  00002400000000895200001188832D2    TGYOT-G 006400630015
BI00B32D2    DGTC2241       202208117114-5748-02             TERMINAL                 CCN000108000000108000FN00000000020221001000108000NNM   20220714121321    4P0P  00001200000000444000000737632D2    TGYOT-G 006400630015
BI00B32D2    DGTC2241       202208117114-5753-02             TERMINAL                 CCN000297000000297000FN00000000020221001000297000NNM   20220714121321    4P0P  00002700000000847800001141432D2    TGYOT-G 006400630015
BI00B32D2    DGTC2241       202208117116-2891-02             TERMINAL                 CCN000060000000060000FN00000000020221001000060000NNM   20220714121321    4P0P  00001500000000982500001145932D2    TGYOT-G 005100280028
BI00B32D2    DGTC2241       202208117116-4486-02             TERMINAL                 CCN000308000000308000FN00000000020221001000308000NNM   20220714121321    4P0P  00002800000000666400000995132D2    TGYOT-G 006400630017
BI00B32D2    DGTC2241       202208117116-5045-02             TERMINAL                 CCN000080000000080000FN00000000020221001000080000NNM   20220714121321    4P0P  00001600000000678400001007132D2    TGYOT-G 006400630017
BI00B32D2    DGTC2241       202208117116-5046-02             TERMINAL                 CCN000180000000180000FN00000000020221001000180000NNM   20220714121321    4P0P  00001200000000544800000873532D2    TGYOT-G 006400630017
BI00B32D2    DGTC2241       202208117116-6042                TERMINAL                 CCN000120000000120000FN00000000020221001000120000NNM   20220714121321    4P0P  00000300000000523800000856132D2    TGYOT-G 006400630015
BI00B32D2    DGTC2241       202208117126-8853-02             TERMINAL                 CCN000225000000225000FN00000000020221001000225000NNM   20220714121321    4P0P  00000750000000562500000847732D2    TGYOT-G 006400630015
BI00B32D2    DGTC2241       202208117126-8854-02             TERMINAL                 CCN000165000000165000FN00000000020221001000165000NNM   20220714121321    4P0P  00000750000000604500000889732D2    TGYOT-G 006400630015
BI00B32D2    DGTC2241       202208117126-8855-02             TERMINAL                 CCN000258000000258000FN00000000020221001000258000NNM   20220714121321    4P0P  00000600000000510600000795832D2    TGYOT-G 006400630015
BI00B32D2    DGTC2241       202208117158-3070-80             RUBBER STOPPER           CCN000120000000120000FN00000000020221001000120000NNM   20220714121321    1C0C  00004000000000276000000333332D2    TGYOT-G 002700430014
BI00B32D2    DGTC2241       202208117158-3166-60             WIRE SEAL                CCN000080000000080000FN00000000020221001000080000NNM   20220714121321    1C0C  00004000000000104000000152432D2    TGYOT-G 002700430014
BI00B32D2    DGTC2241       202208117158-3167-80             WIRE SEAL                CCN000142000000160000FN00000000020221001000160000NNM   20220714121321    1C0C  00002000000000048000000109032D2    TGYOT-G 002700430014
BI00B32D2    DGTC2241       202208117173-3291-40             LIF LEVER                CCN000021600000021600FN00000000020221001000021600NNM   20220714121321    1F0F  00000240000000867800001067832D2    TGYOT-G 005500360039
BI00B32D2    DGTC2241       202208117196-0396-02             TERMINAL                 CCN000030000000030000FN00000000020221001000030000NNM   20220714121321    4P0P  00001500000000949500001112932D2    TGYOT-G 002800510028
BI00B32D2    DGTC2241       202208117196-0805-02             TERMINAL FEMALE          CCN000022500000022500FN00000000020221001000022500NNM   20220714121321    4P0P  00002250000000558000000843232D2    TGYOT-G 006400630015
BI00B32D2    DGTC2241       202208117196-1325-02             TERMINAL FEMALE          CCN000900000000900000FN00000000020221001000900000NNM   20220714121321    4P0P  00006000000000450000000778732D2    TGYOT-G 006400630017
BI00B32D2    DGTC2241       202208117196-1326-02             TERMINAL FEMALE          CCN002100000002100000FN00000000020221001002100000NNM   20220714121321    4P0P  00006000000000456000000784732D2    TGYOT-G 006400630017
BI00B32D2    DGTC2241       202208117196-1327-02             TERMINAL FEMALE          CCN000156000000156000FN00000000020221001000156000NNM   20220714121321    4P0P  00005200000000336000000739532D2    TGYOT-G 006400630017
BI00B32D2    DGTC2241       202208117283-1156                CONNECTOR                CCN000000800000000800FN00000000020221001000000800NNM   20220714121321    4N0N  00000080000000877600001078032D2    TGYOT-G 005600390040
BI00B32D2    DGTC2241       202208117283-1968-30             CONNECTOR                CCN000001800000001800FN00000000020221001000001800NNM   20220714121321    1N0N  00000090000001140000001318332D2    TGYOT-G 005600390040
BI00B32D2    DGTC2241       202208117288-6547                CONNECTOR MALE ASS'Y     CCN000000750000000750FN00000000020221001000000750NNM   20220714121321    4N0N  00000075000001205300001340332D2    TGYOT-G 005400370024
BI00B32D2    DGTC2241       202208117289-3342                HOUSING FEMALE ASS'Y     CCN000134400000134400FN00000000020221001000134400NNM   20220714121321    1N0N  00000240000000686400000901432D2    TGYOT-G 005500360039
BI00B32D2    DGTC2241       202208117289-3342-30             HOUSING FEMALE ASS'Y     CCN000040800000040800FN00000000020221001000040800NNM   20220714121321    1N0N  00000240000000686400000901432D2    TGYOT-G 005500360039
BI00B32D2    DGTC2241       202208117289-3342-40             HOUSING FEMALE ASS'Y     CCN000045600000045600FN00000000020221001000045600NNM   20220714121321    1N0N  00000240000000686400000901432D2    TGYOT-G 005500360039
BI00B32D2    DGTC2241       202208117289-3342-90             HOUSING FEMALE ASS'Y     CCN000050400000050400FN00000000020221001000050400NNM   20220714121321    1N0N  00000240000000686400000901432D2    TGYOT-G 005500360039
BI00B32D2    DGTC2241       202208117289-6518-30             HOUSING FEMALE ASS'Y     CCN000021600000021600FN00000000020221001000021600NNM   20220714121321    1N0N  00000120000000829200001049232D2    TGYOT-G 005500360039
BI00B32D2    DGTC2241       202208117296-0784-02             TERMINAL ALUMINIUM       CCN000168000000168000FN00000000020221001000168000NNM   20220714121321    4P0P  00002400000000480000000765232D2    TGYOT-G 006400630015
BI00B32D2    DGTC2241       202208117296-1020-02             TERMINAL ALUMINIUM       CCN000022500000022500FN00000000020221001000022500NNM   20220714121321    4P0P  00002250000000699800000985032D2    TGYOT-G 006400630015
BI00B32D2    DGTC2241       202208117296-1024-02             TERMINAL ALUMINIUM       CCN000036000000036000FN00000000020221001000036000NNM   20220714121321    4P0P  00001800000000698400000983632D2    TGYOT-G 006400630015
BI00B32D2    DGTC2241       202208117296-1025-02             TERMINAL ALUMINIUM       CCN000018000000018000FN00000000020221001000018000NNM   20220714121321    4P0P  00001800000000635400000920632D2    TGYOT-G 006400630015
BI00B32D2    DGTC2241       202208117297-3482                JOINT CONNECTOR          CCN000045000000045600FN00000000020221001000045600NNM   20220714121321    4N0N  00000080000000621000000730532D2    TGYOT-G 005400370024
BI00B32D2    DGTC2241       202208117298-3484                HOUSING FEMALE ASS'Y     CCN000033600000035100FN00000000020221001000035100NNM   20220714121321    4N0N  00000270000000742500001028732D2    TGYOT-G 005400370024
BI00B32D2    DGTC2241       202208117298-3484-30             HOUSING FEMALE ASS'Y     CCN000010500000010800FN00000000020221001000010800NNM   20220714121321    4N0N  00000270000000742500001028732D2    TGYOT-G 005400370024
BI00B32D2    DGTC2241       202208117327-6801-3W             BATTERY FUSE             CCN000003360000003360FN00000000020221001000003360NNM   20220714121321    4N0N  00000009600000928400001143432D2    TGYOT-G 005500360039
BI00B32D2    DGTC2241       202208117327-6803                MULTI FUSE               CCN000001680000001680FN00000000020221001000001680NNM   20220714121321    4N0N  00000056000000854600001067032D2    TGYOT-G 005400370024
BI00B32D2    DGTC2241       202208117327-6806                MULTI FUSE               CCN000003360000003360FN00000000020221001000003360NNM   20220714121321    4N0N  00000056000000851500001063932D2    TGYOT-G 005400370024
BI00B32D2    DGTC2241       202208117327-6809                MULTI FUSE               CCN000013440000013440FN00000000020221001000013440NNM   20220714121321    4N0N  00000056000000849300001061732D2    TGYOT-G 005400370024
BI00B32D2    DGTC2241       202208117327-6930                MULTI FUSE               CCN000002240000002240FN00000000020221001000002240NNM   20220714121321    4N0N  00000056000000848900001031932D2    TGYOT-G 005400370024
BI00B32D2    DGTC2241       202208117327-6983-30             MAIN FUSE                CCN000001200000001200FN00000000020221001000001200NNM   20220714121321    4N0N  00000060000000748800000951532D2    TGYOT-G 005400370024
BI00B32D2    DGTC2241       202208117327-6985-30             MULTI FUSE               CCN000001440000001440FN00000000020221001000001440NNM   20220714121321    4N0N  00000028800000886100001052032D2    TGYOT-G 005400370024
BI00B32D2    DGTC2241       202208117327-6990-30             MULTI FUSE               CCN000001680000001680FN00000000020221001000001680NNM   20220714121321    4NON  00000056000000724000000907032D2    TGYOT-G 005400370024
BI00B32D2    DGTC2241       202208117327-6998-30             MULTI FUSE               CCN000001440000001440FN00000000020221001000001440NNM   20220714121321    4N0N  00000028800000886000001051932D2    TGYOT-G 005400370024
BI00B32D2    DGTC2241       202208117388-2978-30             HOUSING MALE ASS'Y       CCN000037440000037440FN00000000020221001000037440NNM   20220714121321    1N0N  00000048000000742000001122032D2    TGYOT-G 005500360039
BI00B32D2    #DGTC2241      202208117158-3003-90             RUBBER STOPPER           CCN000400000000400000FN00000000020221001000400000NNM   20220714121321    2C0C  00002000000000250000000306032D2    TGYOT-G 002700430014
BI00B32D2    #DGTC2241      202208117158-3005-80             RUBBER STOPPER           CCN000040000000040000FN00000000020221001000040000NNM   20220714121321    2H0H  00002000000000210000000268732D2    TGYOT-G 002700430014
BI00B32D2    #DGTC2241      202208117158-3008-80             RUBBER STOPPER           CCN000160000000160000FN00000000020221001000160000NNM   20220714121321    2C0C  00002000000000288000000343032D2    TGYOT-G 004300270014
BI00B32D2    #DGTC2241      202208117158-3015-10             RUBBER STOPPER           CCN000040000000040000FN00000000020221001000040000NNM   20220714121321    2C0C  00001000000000419500000474032D2    TGYOT-G 002700430014
BI00B32D2    #DGTC2241      202208117158-3017                RUBBER STOPPER           CCN000040000000040000FN00000000020221001000040000NNM   20220714121321    2C0C  00001000000000375500000435032D2    TGYOT-G 002700430014
BI00B32D2    #DGTC2241      202208117158-3374-90             CONNECTOR WIRE SEAL      CCN000080000000080000FN00000000020221001000080000NNM   20220714121321    2H0H  00002000000000172000000229332D2    TGYOT-G 002700430014
BI00B32D2    #DGTC2241      202208117172-5625-90             RUBBER STOPPER           CCN000020000000020000FN00000000020221001000020000NNM   20220714121321    2H0H  00002000000000082400000133832D2    TGYOT-G 004300270014
BI00B32D2    #DGTC2241      202208117172-5627-60             RUBBER STOPPER           CCN000020000000020000FN00000000020221001000020000NNM   20220714121321    2H0H  00002000000000070400000121832D2    TGYOT-G 004300270014
BI00B32D2    #DGTC2241      202208117172-5628-80             DUMMY PLUG               CCN000020000000020000FN00000000020221001000020000NNM   20220714121321    2H0H  00002000000000110600000162032D2    TGYOT-G 004300270014
BI00B32D2    #DGTC2241      202208117172-5629-80             RUBBER STOPPER           CCN000740000000740000FN00000000020221001000740000NNM   20220714121321    2H0H  00002000000000060000000111132D2    TGYOT-G 004300270014
BI00B32D2    #DGTC2241      202208117172-5630-40             RUBBER STOPPER           CCN000500000000500000FN00000000020221001000500000NNM   20220714121321    2H0H  00002000000000044000000095132D2    TGYOT-G 004300270014
BI00B32D2    #DGTC2241      202208117172-5631-60             RUBBER STOPPER           CCN000200000000200000FN00000000020221001000200000NNM   20220714121321    2H0H  00002000000000042000000093132D2    TGYOT-G 004300270014
BI00B32D2    #DGTC2241      202208117172-5632-10             DUMMY PLUG               CCN000360000000360000FN00000000020221001000360000NNM   20220714121321    2H0H  00002000000000080400000131832D2    TGYOT-G 004300270014
BI00B32D2    #DGTC2241      202208117183-2511                HOUSING                  CCN000003200000003200FN00000000020221001000003200NNM   20220714121321    2F0F  00000160000000972200001242132D2    TGYOT-G 005500360039
BI00B32D2    #DGTC2241      202208117189-2978-30             HOUSING FEMALE           CCN000037500000037500FN00000000020221001000037500NNM   20220714121321    2F0F  00000150000000966900001096932D2    TGYOT-G 005400370024
BI00B32D2    #DGTC2241      202208117189-3033                HOUSING FEMALE           CCN000017600000017600FN00000000020221001000017600NNM   20220714121321    2F0F  00000160000001211200001431232D2    TGYOT-G 005500360039
BI00B32D2    #DGTC2241      202208117189-3036                HOUSING FEMALE           CCN000008000000008000FN00000000020221001000008000NNM   20220714121321    2F0F  00000160000000921600001141632D2    TGYOT-G 005500360039
BI00B32D2    #DGTC2241      202208117283-8226-30             CONNECTOR                CCN000006000000006000FN00000000020221001000006000NNM   20220714121321    2N0N  00000200000000820000001008032D2    TGYOT-G 005400370024
BI00B32D2    #DGTC2241      202208117289-2912-40             HOUSING FEMALE ASS'Y     CCN000002000000002000FN00000000020221001000002000NNM   20220714121321    2N0N  00000200000000804000000931032D2    TGYOT-G 005400370024
BI00B32D2    #DGTC2241      202208117289-3622-30             HOUSING FEMALE ASS'Y     CCN000001728000001728FN00000000020221001000001728NNM   20220714121321    2N0N  00000043200000839400001038432D2    TGYOT-G 005400370024
BI00B32EJ    T220712P01     202208047116-4025                TERMINAL                 CCN000016000000016000FN00000000020220801000016000NNED0720220714121321EJ  4P0P  00001600000000644800000975132EJ    EJYKBO  006400630017
BI00B32EJ    T220712P01     202208047116-4103-02             TERMINAL                 CCN000012000000012000FN00000000020220801000012000NNED0720220714121321EJ  4P0P  00001200000000571200000859432EJ    EJYKBO  006400630015
BI00B32EJ    T220712P01     202208047116-2871                TERMINAL                 CCN000012000000012000FN00000000020220801000012000NNED0720220714121321EJ  1P0P  00001200000000842400001072632EJ    EJYKBO  005100280028
BI00B32EJ    T220712P01     202208047283-1968-30             CONNECTOR                CCN000000900000000900FN00000000020220801000000900NNED0720220714121321EJ  1N0N  00000090000001140000001318332EJ    EJYKBO  005600390040
BI00B32EJ    T220712P01     202208047116-4124-02             TERMINAL                 CCN000006000000006000FN00000000020220801000006000NNED0720220714121321EJ  4P0P  00000300000000459900000753532EJ    EJYKBO  006400630015
BI00B32EJ    T220712P01     202208047196-1461-06             TERMINAL FEMALE          CCN000096000000096000FN00000000020220801000096000NNED0720220714121321EJ  4P0P  00002400000000386400000692932EJ    EJYKBO  006400630015
BI00B32EJ    T220712P01     202208047114-4110-02             TERMINAL                 CCN000015000000015000FN00000000020220801000015000NNED0720220714121321EJ  4P0P  00001500000000901500001230132EJ    EJYKBO  006400630017
BI00B32EJ    T220712P01     202208047114-4112-02             TERMINAL                 CCN000027000000027000FN00000000020220801000027000NNED0720220714121321EJ  4P0P  00000900000000598500000927132EJ    EJYKBO  006400630017
BI00B32EJ    T220712P01     202208047116-4100-02             TERMINAL                 CCN000060000000060000FN00000000020220801000060000NNED0720220714121321EJ  4P0P  00001500000000696000000990232EJ    EJYKBO  006400630015
BI00B32EJ    T220712P01     202208047116-4120-02             TERMINAL                 CCN000030000000030000FN00000000020220801000030000NNED0720220714121321EJ  4P0P  00000600000000780000001073632EJ    EJYKBO  006400630015
BI00B32EJ    T220712P01     202208047116-4122-02             TERMINAL                 CCN000018000000018000FN00000000020220801000018000NNED0720220714121321EJ  4P0P  00000450000000656600000950232EJ    EJYKBO  006400630015
BI00B32EJ    T220712P01     202208047116-4121-02             TERMINAL                 CCN000049500000049500FN00000000020220801000049500NNED0720220714121321EJ  4P0P  00000450000000618800000912432EJ    EJYKBO  006400630015
BI00B32EJ    T220712P01     202208047116-4112-02             TERMINAL                 CCN000054000000054000FN00000000020220801000054000NNED0720220714121321EJ  4P0P  00000600000000450000000738232EJ    EJYKBO  006400630015
BI00B32EJ    T220712P01     202208047116-4110-02             TERMINAL                 CCN000036000000036000FN00000000020220801000036000NNED0720220714121321EJ  4P0P  00000900000000594000000882232EJ    EJYKBO  006400630015
BI00B32EJ    T220712P01     202208047116-4111-02             TERMINAL                 CCN000007500000007500FN00000000020220801000007500NNED0720220714121321EJ  4P0P  00000750000000529500000817732EJ    EJYKBO  006400630015
BI00B32EJ    T220712P01     202208047126-8854-02             TERMINAL                 CCN000007500000007500FN00000000020220801000007500NNED0720220714121321EJ  4P0P  00000750000000604500000889732EJ    EJYKBO  006400630015
BI00B32EJ    T220712P01     202208047126-8855-02             TERMINAL                 CCN000018000000018000FN00000000020220801000018000NNED0720220714121321EJ  4P0P  00000600000000510600000795832EJ    EJYKBO  006400630015
BI00B32EJ    T220712P01     202208047158-3166-60             WIRE SEAL                CCN000680000000680000FN00000000020220801000680000NNED0720220714121321EJ  1C0C  00004000000000104000000152432EJ    EJYKBO  002700430014
BI00B32EJ    T220712P01     202208047158-3167-80             WIRE SEAL                CCN000600000000600000FN00000000020220801000600000NNED0720220714121321EJ  1C0C  00002000000000048000000109032EJ    EJYKBO  002700430014
BI00B32EJ    T220712P01     202208047158-3168-80             SEALED                   CCN000040000000040000FN00000000020220801000040000NNED0720220714121321EJ  1C0C  00002000000000044000000092132EJ    EJYKBO  004300260014
BI00B32EJ    T220712P01     202208047158-3169-40             SEALING PLUG             CCN000480000000480000FN00000000020220801000480000NNED0720220714121321EJ  1C0C  00004000000000156000000204132EJ    EJYKBO  004300260014
BI00B32EJ    T220712P01     202208047158-3167-61             WIRE SEAL                CCN000080000000080000FN00000000020220801000080000NNED0720220714121321EJ  1C0C  00002000000000048000000096432EJ    EJYKBO  004300270014
BI00B32EJ    #T220712P01    202208047158-3120-90             CONNECTOR WIRE SEAL      CCN000080000000080000FN00000000020220801000080000NNED0720220714121321EJ  2C0C  00002000000000136000000194032EJ    EJYKBO  002700430014
BI00B32EJ    #T220712P01    202208047123-6423-30             CONNECTOR                CCN000004000000004000FN00000000020220801000004000NNED0720220714121321EJ  2F0F  00000200000001002000001167632EJ    EJYKBO  005600390023
BI00B32EJ    #T220712P01    202208047282-6458-40             CONNECTOR                CCN000003000000003000FN00000000020220801000003000NNED0720220714121321EJ  2N0N  00000100000001206000001350532EJ    EJYKBO  005500360039
BI00B32EJ    #T220712P01    202208047157-3952-80             RUBBER STOPPER           CCN000010000000010000FN00000000020220801000010000NNED0720220714121321EJ  2C0C  00001000000000117000000175032EJ    EJYKBO  002700430014
BI00B32EJ    @T220712P01    202208047123-4312-80             HOUSING                  CCN000004000000004000FN00000000020220801000004000NNED0720220714121321EJ  3F0F  00000080000000644200000794032EJ    EJYKBO  005500360039
BI00A32E1    NC206C         202207187254-1884-30             PRIMARY PDB BASE         CCN000000252000000252FN00000000020220601000000252NNED0720220714151554    4N0N  00000003600001160000001390732E1    SPYSE   005600390040
BI00B32E1    NC2114         202209217017-1180-02             TERMINAL                 CCN000072000000072000FN00000000020221001000072000NNM   20220714121321    4P0P  00007200000001065600001229032E1    SPYSE   005100280028
BI00B32E1    NC2111         202208317116-1685-02             TERMINAL                 CCN000024000000024000FN00000000020221001000024000NNM   20220714121321    4P0P  00002400000000897600001065232E1    SPYSE   005100280028
BI00B32E1    NC2111         202208317116-4121-02             TERMINAL                 CCN000004500000004500FN00000000020221001000004500NNM   20220714121321    4P0P  00000450000000618800000912432E1    SPYSE   006400630015
BI00B32E1    NC2113         202209147116-4121-02             TERMINAL                 CCN000004500000004500FN00000000020221001000004500NNM   20220714121321    4P0P  00000450000000618800000912432E1    SPYSE   006400630015
BI00B32E1    NC2111         202208317116-4122-02             TERMINAL                 CCN000004500000004500FN00000000020221001000004500NNM   20220714121321    4P0P  00000450000000656600000950232E1    SPYSE   006400630015
BI00B32E1    NC2111         202208317116-5045-02             TERMINAL                 CCN000016000000016000FN00000000020221001000016000NNM   20220714121321    4P0P  00001600000000678400001007132E1    SPYSE   006400630017
BI00B32E1    NC2111         202208317116-5046-02             TERMINAL                 CCN000012000000012000FN00000000020221001000012000NNM   20220714121321    4P0P  00001200000000544800000873532E1    SPYSE   006400630017
BI00B32E1    NC2113         202209147158-3006-90             RUBBER STOPPER           CCN000020000000020000FN00000000020221001000020000NNM   20220714121321    1C0C  00002000000000330600000386032E1    SPYSE   002700430014
BI00B32E1    NC2111         202208317288-3329-30             HOUSING MALE             CCN000001500000001500FN00000000020221001000001500NNM   20220714121321    4N0N  00000150000000866100001011132E1    SPYSE   005400370024
BI00B32E1    NC2114         202209217289-3342-30             HOUSING FEMALE ASS'Y     CCN000002400000002400FN00000000020221001000002400NNM   20220714121321    1N0N  00000240000000686400000901432E1    SPYSE   005500360039
BI00B32E1    #NC2114        202209217157-3950-80             SEAL RUBBER              CCN000040000000040000FN00000000020221001000040000NNM   20220714121321    2C0C  00004000000000154000000440332E1    SPYSE   002700430014
BI00B32E1    #NC2114        202209217158-3003-90             RUBBER STOPPER           CCN000020000000020000FN00000000020221001000020000NNM   20220714121321    2C0C  00002000000000250000000306032E1    SPYSE   002700430014
BI00B32E1    #NC2111        202208317182-2410                CONNECTOR HOUSING        CCN000001200000001200FN00000000020221001000001200NNM   20220714121321    2F0F  00000120000000959800001245632E1    SPYSE   005500360039
BI00B32E2    NY209A         202208037116-1685-02             TERMINAL                 CCN000024000000024000FN00000000020220901000024000NNED0720220714121321    4P0P  00002400000000897600001065232E2    SPYSE   005100280028
BI00B32E2    NY209A         202208037158-3006-90             RUBBER STOPPER           CCN000160000000160000FN00000000020220901000160000NNED0720220714121321    1C0C  00002000000000330600000386032E2    SPYSE   002700430014
BI00B32E2    NY209A         202208037158-3166-60             WIRE SEAL                CCN000160000000160000FN00000000020220901000160000NNED0720220714121321    1C0C  00004000000000104000000152432E2    SPYSE   002700430014
BI00B32E2    NY2114         202209217017-1182-02             TERMINAL                 CCN000045000000045000FN00000000020221001000045000NNM   20220714121321    4P0P  00004500000001165500001318632E2    SPYSE   005100280028
BI00B32E2    NY2114         202209217017-1183-02             TERMINAL                 CCN000027000000027000FN00000000020221001000027000NNM   20220714121321    4P0P  00002700000001139400001307432E2    SPYSE   005100280028
BI00B32E2    NY2111         202208317116-1473                TERMINAL                 CCN000013500000013500FN00000000020221001000013500NNM   20220714121321    4P0P  00001350000000523800000809032E2    SPYSE   006400630015
BI00B32E2    NY2111         202208317116-1685-02             TERMINAL                 CCN000024000000024000FN00000000020221001000024000NNM   20220714121321    4P0P  00002400000000897600001065232E2    SPYSE   005100280028
BI00B32E2    NY2112         202209077116-1685-02             TERMINAL                 CCN000024000000024000FN00000000020221001000024000NNM   20220714121321    4P0P  00002400000000897600001065232E2    SPYSE   005100280028
BI00B32E2    NY2114         202209217116-1686-02             TERMINAL                 CCN000021000000021000FN00000000020221001000021000NNM   20220714121321    4P0P  00002100000000869400001021632E2    SPYSE   005100280028
BI00B32E2    NY2111         202208317126-8851-02             TERMINAL                 CCN000009000000009000FN00000000020221001000009000NNM   20220714121321    1P0P  00000900000000739800001025032E2    SPYSE   006400630015
BI00B32E2    NY2113         202209147126-8851-02             TERMINAL                 CCN000009000000009000FN00000000020221001000009000NNM   20220714121321    1P0P  00000900000000739800001025032E2    SPYSE   006400630015
BI00B32E2    NY2111         202208317158-3006-90             RUBBER STOPPER           CCN000100000000100000FN00000000020221001000100000NNM   20220714121321    1C0C  00002000000000330600000386032E2    SPYSE   002700430014
BI00B32E2    NY2112         202209077158-3006-90             RUBBER STOPPER           CCN000080000000080000FN00000000020221001000080000NNM   20220714121321    1C0C  00002000000000330600000386032E2    SPYSE   002700430014
BI00B32E2    NY2113         202209147158-3006-90             RUBBER STOPPER           CCN000060000000060000FN00000000020221001000060000NNM   20220714121321    1C0C  00002000000000330600000386032E2    SPYSE   002700430014
BI00B32E2    NY2114         202209217158-3006-90             RUBBER STOPPER           CCN000040000000040000FN00000000020221001000040000NNM   20220714121321    1C0C  00002000000000330600000386032E2    SPYSE   002700430014
BI00B32E2    NY2111         202208317158-3166-60             WIRE SEAL                CCN000240000000240000FN00000000020221001000240000NNM   20220714121321    1C0C  00004000000000104000000152432E2    SPYSE   002700430014
BI00B32E2    NY2112         202209077158-3166-60             WIRE SEAL                CCN000120000000120000FN00000000020221001000120000NNM   20220714121321    1C0C  00004000000000104000000152432E2    SPYSE   002700430014
BI00B32E2    NY2113         202209147158-3166-60             WIRE SEAL                CCN000080000000080000FN00000000020221001000080000NNM   20220714121321    1C0C  00004000000000104000000152432E2    SPYSE   002700430014
BI00B32E2    NY2114         202209217158-3166-60             WIRE SEAL                CCN000080000000080000FN00000000020221001000080000NNM   20220714121321    1C0C  00004000000000104000000152432E2    SPYSE   002700430014
BI00B32E2    #NY2114        202209217157-3790-90             WIRE SEAL                CCN000020000000020000FN00000000020221001000020000NNM   20220714121321    2C0C  00002000000000176000000232732E2    SPYSE   002700430014
BI00B32E2    #NY2114        202209217282-3020                CONNECTOR                CCN000001000000001000FN00000000020221001000001000NNM   20220714121321    2N0N  00000100000000984000001145432E2    SPYSE   005500360039
BI00B32J1    #396365        202208227282-6446-40             CONNECTOR                CCN000004500000004500FN00000000020220801000004500NNE   20220714121321    2N0N  00000150000001185000001368032J1    UKYEL-BL005500360039
BI00B32J1    396366         202209127283-8630                CONNECTOR ASS'Y          CCN000012000000012000FN00000000020220901000012000NNE   20220714121321    4N0N  00000600000000540000000701332J1    UKYEL-BL005400370024
BI00B32P8    TAPI-210A1     202209077283-7046-30             CONNECTOR                CCN000006000000006000FN00000000020221001000006000NNMD0220220714152521    4N0N  00000100000001500000001630032P8    YIYTM   005600390040
BI00B32Q8    EU22102NMW     202209077158-3166-10             WIRE SEAL                CCN000080000000080000FN00000000020221001000080000NNM   20220714121321    1C0C  00004000000000096000000144432Q8    EMEMI   004300270014
BI00B32Q8    EU22103NMW     202209147158-3166-10             WIRE SEAL                CCN000080000000080000FN00000000020221001000080000NNM   20220714121321    1C0C  00004000000000096000000144432Q8    EMEMI   004300270014
BI00B32Q8    EU22104NMW     202209217158-3166-10             WIRE SEAL                CCN000120000000120000FN00000000020221001000120000NNM   20220714121321    1C0C  00004000000000096000000144432Q8    EMEMI   004300270014
BI00B32Q8    EU22102NMW     202209077158-3167-61             WIRE SEAL                CCN000120000000120000FN00000000020221001000120000NNM   20220714121321    1C0C  00002000000000048000000096432Q8    EMEMI   004300270014
BI00B32Q8    EU22103NMW     202209147158-3167-61             WIRE SEAL                CCN000120000000120000FN00000000020221001000120000NNM   20220714121321    1C0C  00002000000000048000000096432Q8    EMEMI   004300270014
BI00B32Q8    EU22104NMW     202209217158-3167-61             WIRE SEAL                CCN000160000000160000FN00000000020221001000160000NNM   20220714121321    1C0C  00002000000000048000000096432Q8    EMEMI   004300270014
BI00B32Q8    EU22101NMW     202208317172-1372-10             FRONT HOLDER             CCN000006240000007800FN00000000020221001000007800NNM   20220714121321    4F0F  00000390000000655200000955232Q8    EMEMI   005500360039
BI00B32Q8    EU22102NMW     202209077172-1372-10             FRONT HOLDER             CCN000009360000011700FN00000000020221001000011700NNM   20220714121321    4F0F  00000390000000655200000955232Q8    EMEMI   005500360039
BI00B32Q8    EU22103NMW     202209147172-1372-10             FRONT HOLDER             CCN000009360000011700FN00000000020221001000011700NNM   20220714121321    4F0F  00000390000000655200000955232Q8    EMEMI   005500360039
BI00B32Q8    EU22104NMW     202209217172-1372-10             FRONT HOLDER             CCN000015600000015600FN00000000020221001000015600NNM   20220714121321    4F0F  00000390000000655200000955232Q8    EMEMI   005500360039
BI00B32Q8    EU22101NMW     202208317195-1464-02             TERMINAL MALE            CCN000025500000025500FN00000000020221001000025500NNM   20220714121321    4P0P  00002550000000420800000706032Q8    EMEMI   006400630015
BI00B32Q8    EU22102NMW     202209077195-1464-02             TERMINAL MALE            CCN000076500000076500FN00000000020221001000076500NNM   20220714121321    4P0P  00002550000000420800000706032Q8    EMEMI   006400630015
BI00B32Q8    EU22103NMW     202209147195-1464-02             TERMINAL MALE            CCN000051000000051000FN00000000020221001000051000NNM   20220714121321    4P0P  00002550000000420800000706032Q8    EMEMI   006400630015
BI00B32Q8    EU22104NMW     202209217195-1464-02             TERMINAL MALE            CCN000051000000051000FN00000000020221001000051000NNM   20220714121321    4P0P  00002550000000420800000706032Q8    EMEMI   006400630015
BI00B32Q8    EU22103NMW     202209147195-1465-02             TERMINAL MALE            CCN000021000000021000FN00000000020221001000021000NNM   20220714121321    4P0P  00002100000000359100000644332Q8    EMEMI   006400630015
BI00B32Q8    EU22101NMW     202208317196-1460-02             TERMINAL FEMALE          CCN000028500000028500FN00000000020221001000028500NNM   20220714121321    4P0P  00002850000000444600000729832Q8    EMEMI   006400630015
BI00B32Q8    EU22102NMW     202209077196-1460-02             TERMINAL FEMALE          CCN000228000000228000FN00000000020221001000228000NNM   20220714121321    4P0P  00002850000000444600000729832Q8    EMEMI   006400630015
BI00B32Q8    EU22103NMW     202209147196-1460-02             TERMINAL FEMALE          CCN000228000000228000FN00000000020221001000228000NNM   20220714121321    4P0P  00002850000000444600000729832Q8    EMEMI   006400630015
BI00B32Q8    EU22104NMW     202209217196-1460-02             TERMINAL FEMALE          CCN000285000000285000FN00000000020221001000285000NNM   20220714121321    4P0P  00002850000000444600000729832Q8    EMEMI   006400630015
BI00B32Q8    EU22101NMW     202208317196-1461-02             TERMINAL FEMALE          CCN001752000001752000FN00000000020221001001752000NNM   20220714121321    4P0P  00002400000000386400000671632Q8    EMEMI   006400630015
BI00B32Q8    EU22102NMW     202209077196-1461-02             TERMINAL FEMALE          CCN004056000004056000FN00000000020221001004056000NNM   20220714121321    4P0P  00002400000000386400000671632Q8    EMEMI   006400630015
BI00B32Q8    EU22103NMW     202209147196-1461-02             TERMINAL FEMALE          CCN003360000003360000FN00000000020221001003360000NNM   20220714121321    4P0P  00002400000000386400000671632Q8    EMEMI   006400630015
BI00B32Q8    EU22104NMW     202209217196-1461-02             TERMINAL FEMALE          CCN005256000005256000FN00000000020221001005256000NNM   20220714121321    4P0P  00002400000000386400000671632Q8    EMEMI   006400630015
BI00B32Q8    EU22101NMW     202208317196-1461-06             TERMINAL FEMALE          CCN000120000000120000FN00000000020221001000120000NNM   20220714121321    4P0P  00002400000000386400000692932Q8    EMEMI   006400630015
BI00B32Q8    EU22102NMW     202209077196-1461-06             TERMINAL FEMALE          CCN000216000000216000FN00000000020221001000216000NNM   20220714121321    4P0P  00002400000000386400000692932Q8    EMEMI   006400630015
BI00B32Q8    EU22103NMW     202209147196-1461-06             TERMINAL FEMALE          CCN000192000000192000FN00000000020221001000192000NNM   20220714121321    4P0P  00002400000000386400000692932Q8    EMEMI   006400630015
BI00B32Q8    EU22104NMW     202209217196-1461-06             TERMINAL FEMALE          CCN000288000000288000FN00000000020221001000288000NNM   20220714121321    4P0P  00002400000000386400000692932Q8    EMEMI   006400630015
BI00B32Q8    EU22101NMW     202208317196-1462-02             TERMINAL FEMALE          CCN000126000000126000FN00000000020221001000126000NNM   20220714121321    4P0P  00002100000000352800000638032Q8    EMEMI   006400630015
BI00B32Q8    EU22102NMW     202209077196-1462-02             TERMINAL FEMALE          CCN000189000000189000FN00000000020221001000189000NNM   20220714121321    4P0P  00002100000000352800000638032Q8    EMEMI   006400630015
BI00B32Q8    EU22103NMW     202209147196-1462-02             TERMINAL FEMALE          CCN000168000000168000FN00000000020221001000168000NNM   20220714121321    4P0P  00002100000000352800000638032Q8    EMEMI   006400630015
BI00B32Q8    EU22104NMW     202209217196-1462-02             TERMINAL FEMALE          CCN000273000000273000FN00000000020221001000273000NNM   20220714121321    4P0P  00002100000000352800000638032Q8    EMEMI   006400630015
BI00B32Q8    EU22101NMW     202208317289-4696-30             HOUSING FEMALE ASS'Y     CCN000004000000004000FN00000000020221001000004000NNM   20220714121321    4N0N  00000200000000913400001055432Q8    EMEMI   005400370024
BI00B32Q8    EU22102NMW     202209077289-4696-30             HOUSING FEMALE ASS'Y     CCN000034000000034000FN00000000020221001000034000NNM   20220714121321    4N0N  00000200000000913400001055432Q8    EMEMI   005400370024
BI00B32Q8    EU22103NMW     202209147289-4696-30             HOUSING FEMALE ASS'Y     CCN000028000000028000FN00000000020221001000028000NNM   20220714121321    4N0N  00000200000000913400001055432Q8    EMEMI   005400370024
BI00B32Q8    EU22104NMW     202209217289-4696-30             HOUSING FEMALE ASS'Y     CCN000044000000044000FN00000000020221001000044000NNM   20220714121321    4N0N  00000200000000913400001055432Q8    EMEMI   005400370024
BI00B32Q8    EU22101NMW     202208317289-7615-30             HOUSING FEMALE ASS'Y     CCN000003520000003520FN00000000020221001000003520NNM   20220714121321    4N0N  00000032000000738000000948032Q8    EMEMI   005400370024
BI00B32Q8    EU22102NMW     202209077289-7615-30             HOUSING FEMALE ASS'Y     CCN000010880000010880FN00000000020221001000010880NNM   20220714121321    4N0N  00000032000000738000000948032Q8    EMEMI   005400370024
BI00B32Q8    EU22103NMW     202209147289-7615-30             HOUSING FEMALE ASS'Y     CCN000009280000009280FN00000000020221001000009280NNM   20220714121321    4N0N  00000032000000738000000948032Q8    EMEMI   005400370024
BI00B32Q8    EU22104NMW     202209217289-7615-30             HOUSING FEMALE ASS'Y     CCN000014080000014080FN00000000020221001000014080NNM   20220714121321    4N0N  00000032000000738000000948032Q8    EMEMI   005400370024
BI00B32Q8    EU22101NMW     202208317298-1865-30             HOUSING FEMALE ASS'Y     CCN000007200000007200FN00000000020221001000007200NNM   20220714121321    4N0N  00000240000001003200001204532Q8    EMEMI   005500360039
BI00B32Q8    EU22102NMW     202209077298-1865-30             HOUSING FEMALE ASS'Y     CCN000031200000031200FN00000000020221001000031200NNM   20220714121321    4N0N  00000240000001003200001204532Q8    EMEMI   005500360039
BI00B32Q8    EU22103NMW     202209147298-1865-30             HOUSING FEMALE ASS'Y     CCN000024000000024000FN00000000020221001000024000NNM   20220714121321    4N0N  00000240000001003200001204532Q8    EMEMI   005500360039
BI00B32Q8    EU22104NMW     202209217298-1865-30             HOUSING FEMALE ASS'Y     CCN000036000000036000FN00000000020221001000036000NNM   20220714121321    4N0N  00000240000001003200001204532Q8    EMEMI   005500360039
BI00B32Q8    EU22101NMW     202208317298-1866-40             HOUSING FEMALE ASS'Y     CCN000002400000002400FN00000000020221001000002400NNM   20220714121321    4N0N  00000240000001003000001217932Q8    EMEMI   005500360039
BI00B32Q8    EU22103NMW     202209147298-1866-40             HOUSING FEMALE ASS'Y     CCN000002400000002400FN00000000020221001000002400NNM   20220714121321    4N0N  00000240000001003000001217932Q8    EMEMI   005500360039
BI00B32Q8    EU22104NMW     202209217298-1866-40             HOUSING FEMALE ASS'Y     CCN000002400000002400FN00000000020221001000002400NNM   20220714121321    4N0N  00000240000001003000001217932Q8    EMEMI   005500360039
BI00B32Q8    EU22101NMW     202208317298-1869-30             HOUSING FEMALE ASS'Y     CCN000002400000002400FN00000000020221001000002400NNM   20220714121321    4N0N  00000120000000737000000939832Q8    EMEMI   005500360039
BI00B32Q8    EU22102NMW     202209077298-1869-30             HOUSING FEMALE ASS'Y     CCN000001200000001200FN00000000020221001000001200NNM   20220714121321    4N0N  00000120000000737000000939832Q8    EMEMI   005500360039
BI00B32Q8    EU22103NMW     202209147298-1869-30             HOUSING FEMALE ASS'Y     CCN000002400000002400FN00000000020221001000002400NNM   20220714121321    4N0N  00000120000000737000000939832Q8    EMEMI   005500360039
BI00B32Q8    EU22104NMW     202209217298-1869-30             HOUSING FEMALE ASS'Y     CCN000003600000003600FN00000000020221001000003600NNM   20220714121321    4N0N  00000120000000737000000939832Q8    EMEMI   005500360039
BI00B32Q8    EU22101NMW     202208317298-2278-30             HOUSING FEMALE ASS'Y     CCN000079200000079200FN00000000020221001000079200NNM   20220714121321    4N0N  00000240000001091700001295432Q8    EMEMI   005500360039
BI00B32Q8    EU22102NMW     202209077298-2278-30             HOUSING FEMALE ASS'Y     CCN000110400000110400FN00000000020221001000110400NNM   20220714121321    4N0N  00000240000001091700001295432Q8    EMEMI   005500360039
BI00B32Q8    EU22103NMW     202209147298-2278-30             HOUSING FEMALE ASS'Y     CCN000091200000091200FN00000000020221001000091200NNM   20220714121321    4N0N  00000240000001091700001295432Q8    EMEMI   005500360039
BI00B32Q8    EU22104NMW     202209217298-2278-30             HOUSING FEMALE ASS'Y     CCN000141600000141600FN00000000020221001000141600NNM   20220714121321    4N0N  00000240000001091700001295432Q8    EMEMI   005500360039
BI00B32Q8    EU22101NMW     202208317298-2279-40             HOUSING FEMALE ASS'Y     CCN000002400000002400FN00000000020221001000002400NNM   20220714121321    4N0N  00000240000001095800001310732Q8    EMEMI   005500360039
BI00B32Q8    EU22103NMW     202209147298-2279-40             HOUSING FEMALE ASS'Y     CCN000002400000002400FN00000000020221001000002400NNM   20220714121321    4N0N  00000240000001095800001310732Q8    EMEMI   005500360039
BI00B32Q8    EU22104NMW     202209217298-2279-40             HOUSING FEMALE ASS'Y     CCN000002400000002400FN00000000020221001000002400NNM   20220714121321    4N0N  00000240000001095800001310732Q8    EMEMI   005500360039
BI00B32Q8    EU22104NMW     202209217298-2507-30             HOUSING FEMALE ASS'Y     CCN000001200000001200FN00000000020221001000001200NNM   20220714121321    4N0N  00000120000000713200000914532Q8    EMEMI   005500360039
BI00B32Q8    EU22104NMW     202209217327-6469-3W             BATTERY FUSE             CCN000000096000000096FN00000000020221001000000096NNM   20220714121321    4N0N  00000009600000832300001012332Q8    EMEMI   005400370024
BI00B32Q8    #EU22104NMW    202209217157-3992-90             CONNECTOR SEALED         CCN000040000000040000FN00000000020221001000040000NNM   20220714121321    2C0C  00004000000000300000000363332Q8    EMEMI   002700430014
BI00B32Q8    #EU22101NMW    202208317158-3654-80             WIRE TUBE                CCN000120000000120000FN00000000020221001000120000NNM   20220714121321    2H0H  00004000000000104000000152232Q8    EMEMI   004300270014
BI00B32Q8    #EU22102NMW    202209077158-3654-80             WIRE TUBE                CCN000280000000280000FN00000000020221001000280000NNM   20220714121321    2H0H  00004000000000104000000152232Q8    EMEMI   004300270014
BI00B32Q8    #EU22103NMW    202209147158-3654-80             WIRE TUBE                CCN000240000000240000FN00000000020221001000240000NNM   20220714121321    2H0H  00004000000000104000000152232Q8    EMEMI   004300270014
BI00B32Q8    #EU22104NMW    202209217158-3654-80             WIRE TUBE                CCN000400000000400000FN00000000020221001000400000NNM   20220714121321    2H0H  00004000000000104000000152232Q8    EMEMI   004300270014
BI00B32Q8    #EU22101NMW    202208317182-9631-40             JOINT CONNECTOR          CCN000003000000003000FN00000000020221001000003000NNM   20220714121321    2F0F  00000300000001182000001307432Q8    EMEMI   005400370024
BI00B32Q8    #EU22102NMW    202209077182-9631-40             JOINT CONNECTOR          CCN000006000000006000FN00000000020221001000006000NNM   20220714121321    2F0F  00000300000001182000001307432Q8    EMEMI   005400370024
BI00B32Q8    #EU22103NMW    202209147182-9631-40             JOINT CONNECTOR          CCN000006000000006000FN00000000020221001000006000NNM   20220714121321    2F0F  00000300000001182000001307432Q8    EMEMI   005400370024
BI00B32Q8    #EU22104NMW    202209217182-9631-40             JOINT CONNECTOR          CCN000009000000009000FN00000000020221001000009000NNM   20220714121321    2F0F  00000300000001182000001307432Q8    EMEMI   005400370024
BI00B32Q8    #EU22101NMW    202208317182-9632-30             JOINT CONNECTOR          CCN000039000000039000FN00000000020221001000039000NNM   20220714121321    2F0F  00000300000001320000001445532Q8    EMEMI   005400370024
BI00B32Q8    #EU22102NMW    202209077182-9632-30             JOINT CONNECTOR          CCN000069000000069000FN00000000020221001000069000NNM   20220714121321    2F0F  00000300000001320000001445532Q8    EMEMI   005400370024
BI00B32Q8    #EU22103NMW    202209147182-9632-30             JOINT CONNECTOR          CCN000057000000057000FN00000000020221001000057000NNM   20220714121321    2F0F  00000300000001320000001445532Q8    EMEMI   005400370024
BI00B32Q8    #EU22104NMW    202209217182-9632-30             JOINT CONNECTOR          CCN000090000000090000FN00000000020221001000090000NNM   20220714121321    2F0F  00000300000001320000001445532Q8    EMEMI   005400370024
BI00B32Q8    #EU22102NMW    202209077182-9633-40             JOINT CONNECTOR          CCN000036000000036000FN00000000020221001000036000NNM   20220714121321    2F0F  00000300000001335000001460532Q8    EMEMI   005400370024
BI00B32Q8    #EU22103NMW    202209147182-9633-40             JOINT CONNECTOR          CCN000042000000042000FN00000000020221001000042000NNM   20220714121321    2F0F  00000300000001335000001460532Q8    EMEMI   005400370024
BI00B32Q8    #EU22104NMW    202209217182-9633-40             JOINT CONNECTOR          CCN000063000000063000FN00000000020221001000063000NNM   20220714121321    2F0F  00000300000001335000001460532Q8    EMEMI   005400370024
BI00B32Q8    EU22101 MW     202208317017-1180-02             TERMINAL                 CCN000072000000072000FN00000000020221001000072000NNM   20220714121321    4P0P  00007200000001065600001229032Q8    EMEMI   005100280028
BI00B32Q8    EU22102 MW     202209077017-1180-02             TERMINAL                 CCN000288000000288000FN00000000020221001000288000NNM   20220714121321    4P0P  00007200000001065600001229032Q8    EMEMI   005100280028
BI00B32Q8    EU22103 MW     202209147017-1180-02             TERMINAL                 CCN000216000000216000FN00000000020221001000216000NNM   20220714121321    4P0P  00007200000001065600001229032Q8    EMEMI   005100280028
BI00B32Q8    EU22104 MW     202209217017-1180-02             TERMINAL                 CCN000360000000360000FN00000000020221001000360000NNM   20220714121321    4P0P  00007200000001065600001229032Q8    EMEMI   005100280028
BI00B32Q8    EU22101 MW     202208317017-1181-02             TERMINAL                 CCN000063000000063000FN00000000020221001000063000NNM   20220714121321    4P0P  00006300000001089900001266832Q8    EMEMI   005100280028
BI00B32Q8    EU22102 MW     202209077017-1181-02             TERMINAL                 CCN000252000000252000FN00000000020221001000252000NNM   20220714121321    4P0P  00006300000001089900001266832Q8    EMEMI   005100280028
BI00B32Q8    EU22103 MW     202209147017-1181-02             TERMINAL                 CCN000252000000252000FN00000000020221001000252000NNM   20220714121321    4P0P  00006300000001089900001266832Q8    EMEMI   005100280028
BI00B32Q8    EU22104 MW     202209217017-1181-02             TERMINAL                 CCN000378000000378000FN00000000020221001000378000NNM   20220714121321    4P0P  00006300000001089900001266832Q8    EMEMI   005100280028
BI00B32Q8    EU22102 MW     202209077017-1182-02             TERMINAL                 CCN000090000000090000FN00000000020221001000090000NNM   20220714121321    4P0P  00004500000001165500001318632Q8    EMEMI   005100280028
BI00B32Q8    EU22103 MW     202209147017-1182-02             TERMINAL                 CCN000135000000135000FN00000000020221001000135000NNM   20220714121321    4P0P  00004500000001165500001318632Q8    EMEMI   005100280028
BI00B32Q8    EU22104 MW     202209217017-1182-02             TERMINAL                 CCN000180000000180000FN00000000020221001000180000NNM   20220714121321    4P0P  00004500000001165500001318632Q8    EMEMI   005100280028
BI00B32Q8    EU22102 MW     202209077017-1183-02             TERMINAL                 CCN000027000000027000FN00000000020221001000027000NNM   20220714121321    4P0P  00002700000001139400001307432Q8    EMEMI   005100280028
BI00B32Q8    EU22103 MW     202209147017-1183-02             TERMINAL                 CCN000027000000027000FN00000000020221001000027000NNM   20220714121321    4P0P  00002700000001139400001307432Q8    EMEMI   005100280028
BI00B32Q8    EU22104 MW     202209217017-1183-02             TERMINAL                 CCN000027000000027000FN00000000020221001000027000NNM   20220714121321    4P0P  00002700000001139400001307432Q8    EMEMI   005100280028
BI00B32Q8    EU22101 MW     202208317114-4020                TERMINAL                 CCN000021000000021000FN00000000020221001000021000NNM   20220714121321    4P0P  00002100000000875700001169332Q8    EMEMI   006400630015
BI00B32Q8    EU22102 MW     202209077114-4020                TERMINAL                 CCN000042000000042000FN00000000020221001000042000NNM   20220714121321    4P0P  00002100000000875700001169332Q8    EMEMI   006400630015
BI00B32Q8    EU22103 MW     202209147114-4020                TERMINAL                 CCN000021000000021000FN00000000020221001000021000NNM   20220714121321    4P0P  00002100000000875700001169332Q8    EMEMI   006400630015
BI00B32Q8    EU22104 MW     202209217114-4020                TERMINAL                 CCN000042000000042000FN00000000020221001000042000NNM   20220714121321    4P0P  00002100000000875700001169332Q8    EMEMI   006400630015
BI00B32Q8    EU22101 MW     202208317114-4021                TERMINAL                 CCN000015000000015000FN00000000020221001000015000NNM   20220714121321    4P0P  00001500000000670500000964132Q8    EMEMI   006400630015
BI00B32Q8    EU22102 MW     202209077114-4021                TERMINAL                 CCN000045000000045000FN00000000020221001000045000NNM   20220714121321    4P0P  00001500000000670500000964132Q8    EMEMI   006400630015
BI00B32Q8    EU22103 MW     202209147114-4021                TERMINAL                 CCN000030000000030000FN00000000020221001000030000NNM   20220714121321    4P0P  00001500000000670500000964132Q8    EMEMI   006400630015
BI00B32Q8    EU22104 MW     202209217114-4021                TERMINAL                 CCN000075000000075000FN00000000020221001000075000NNM   20220714121321    4P0P  00001500000000670500000964132Q8    EMEMI   006400630015
BI00B32Q8    EU22104 MW     202209217114-4031                TERMINAL                 CCN000010500000010500FN00000000020221001000010500NNM   20220714121321    4P0P  00001050000000966000001294632Q8    EMEMI   006400630017
BI00B32Q8    EU22101 MW     202208317114-4032                TERMINAL                 CCN000007500000007500FN00000000020221001000007500NNM   20220714121321    4P0P  00000750000000735000001063632Q8    EMEMI   006400630017
BI00B32Q8    EU22102 MW     202209077114-4032                TERMINAL                 CCN000030000000030000FN00000000020221001000030000NNM   20220714121321    4P0P  00000750000000735000001063632Q8    EMEMI   006400630017
BI00B32Q8    EU22103 MW     202209147114-4032                TERMINAL                 CCN000022500000022500FN00000000020221001000022500NNM   20220714121321    4P0P  00000750000000735000001063632Q8    EMEMI   006400630017
BI00B32Q8    EU22104 MW     202209217114-4032                TERMINAL                 CCN000037500000037500FN00000000020221001000037500NNM   20220714121321    4P0P  00000750000000735000001063632Q8    EMEMI   006400630017
BI00B32Q8    EU22101 MW     202208317114-4100-02             TERMINAL                 CCN000054000000054000FN00000000020221001000054000NNM   20220714121321    4P0P  00001800000000748800001077432Q8    EMEMI   006400630017
BI00B32Q8    EU22102 MW     202209077114-4100-02             TERMINAL                 CCN000054000000054000FN00000000020221001000054000NNM   20220714121321    4P0P  00001800000000748800001077432Q8    EMEMI   006400630017
BI00B32Q8    EU22103 MW     202209147114-4100-02             TERMINAL                 CCN000054000000054000FN00000000020221001000054000NNM   20220714121321    4P0P  00001800000000748800001077432Q8    EMEMI   006400630017
BI00B32Q8    EU22104 MW     202209217114-4100-02             TERMINAL                 CCN000072000000072000FN00000000020221001000072000NNM   20220714121321    4P0P  00001800000000748800001077432Q8    EMEMI   006400630017
BI00B32Q8    EU22102 MW     202209077114-4101-02             TERMINAL                 CCN000015000000015000FN00000000020221001000015000NNM   20220714121321    4P0P  00001500000000675000001003632Q8    EMEMI   006400630017
BI00B32Q8    EU22101 MW     202208317114-4110-02             TERMINAL                 CCN000015000000015000FN00000000020221001000015000NNM   20220714121321    4P0P  00001500000000901500001230132Q8    EMEMI   006400630017
BI00B32Q8    EU22102 MW     202209077114-4110-02             TERMINAL                 CCN000015000000015000FN00000000020221001000015000NNM   20220714121321    4P0P  00001500000000901500001230132Q8    EMEMI   006400630017
BI00B32Q8    EU22103 MW     202209147114-4110-02             TERMINAL                 CCN000015000000015000FN00000000020221001000015000NNM   20220714121321    4P0P  00001500000000901500001230132Q8    EMEMI   006400630017
BI00B32Q8    EU22104 MW     202209217114-4110-02             TERMINAL                 CCN000015000000015000FN00000000020221001000015000NNM   20220714121321    4P0P  00001500000000901500001230132Q8    EMEMI   006400630017
BI00B32Q8    EU22101 MW     202208317114-4111-02             TERMINAL                 CCN000012000000012000FN00000000020221001000012000NNM   20220714121321    4P0P  00001200000000758400001087032Q8    EMEMI   006400630017
BI00B32Q8    EU22102 MW     202209077114-4111-02             TERMINAL                 CCN000024000000024000FN00000000020221001000024000NNM   20220714121321    4P0P  00001200000000758400001087032Q8    EMEMI   006400630017
BI00B32Q8    EU22103 MW     202209147114-4111-02             TERMINAL                 CCN000024000000024000FN00000000020221001000024000NNM   20220714121321    4P0P  00001200000000758400001087032Q8    EMEMI   006400630017
BI00B32Q8    EU22104 MW     202209217114-4111-02             TERMINAL                 CCN000036000000036000FN00000000020221001000036000NNM   20220714121321    4P0P  00001200000000758400001087032Q8    EMEMI   006400630017
BI00B32Q8    EU22102 MW     202209077114-4112-02             TERMINAL                 CCN000018000000018000FN00000000020221001000018000NNM   20220714121321    4P0P  00000900000000598500000927132Q8    EMEMI   006400630017
BI00B32Q8    EU22103 MW     202209147114-4112-02             TERMINAL                 CCN000018000000018000FN00000000020221001000018000NNM   20220714121321    4P0P  00000900000000598500000927132Q8    EMEMI   006400630017
BI00B32Q8    EU22104 MW     202209217114-4112-02             TERMINAL                 CCN000027000000027000FN00000000020221001000027000NNM   20220714121321    4P0P  00000900000000598500000927132Q8    EMEMI   006400630017
BI00B32Q8    EU22102 MW     202209077114-4415-02             TERMINAL MALE            CCN000027000000027000FN00000000020221001000027000NNM   20220714121321    4P0P  00002700000000429300000717532Q8    EMEMI   006400630015
BI00B32Q8    EU22104 MW     202209217114-4415-02             TERMINAL MALE            CCN000054000000054000FN00000000020221001000054000NNM   20220714121321    4P0P  00002700000000429300000717532Q8    EMEMI   006400630015
BI00B32Q8    EU22103 MW     202209147114-4416-02             TERMINAL MALE            CCN000027000000027000FN00000000020221001000027000NNM   20220714121321    4P0P  00002700000000442800000731032Q8    EMEMI   006400630015
BI00B32Q8    EU22104 MW     202209217114-4416-02             TERMINAL MALE            CCN000081000000081000FN00000000020221001000081000NNM   20220714121321    4P0P  00002700000000442800000731032Q8    EMEMI   006400630015
BI00B32Q8    EU22101 MW     202208317114-4729-02             TERMINAL                 CCN000060000000060000FN00000000020221001000060000NNM   20220714121321    4P0P  00003000000000516000000810232Q8    EMEMI   006400630015
BI00B32Q8    EU22102 MW     202209077114-4729-02             TERMINAL                 CCN000150000000150000FN00000000020221001000150000NNM   20220714121321    4P0P  00003000000000516000000810232Q8    EMEMI   006400630015
BI00B32Q8    EU22103 MW     202209147114-4729-02             TERMINAL                 CCN000150000000150000FN00000000020221001000150000NNM   20220714121321    4P0P  00003000000000516000000810232Q8    EMEMI   006400630015
BI00B32Q8    EU22104 MW     202209217114-4729-02             TERMINAL                 CCN000240000000240000FN00000000020221001000240000NNM   20220714121321    4P0P  00003000000000516000000810232Q8    EMEMI   006400630015
BI00B32Q8    EU22102 MW     202209077114-5747-02             TERMINAL                 CCN000018000000018000FN00000000020221001000018000NNM   20220714121321    4P0P  00001800000000626400000920032Q8    EMEMI   006400630015
BI00B32Q8    EU22103 MW     202209147114-5747-02             TERMINAL                 CCN000054000000054000FN00000000020221001000054000NNM   20220714121321    4P0P  00001800000000626400000920032Q8    EMEMI   006400630015
BI00B32Q8    EU22104 MW     202209217114-5747-02             TERMINAL                 CCN000054000000054000FN00000000020221001000054000NNM   20220714121321    4P0P  00001800000000626400000920032Q8    EMEMI   006400630015
BI00B32Q8    EU22102 MW     202209077114-5748-02             TERMINAL                 CCN000048000000048000FN00000000020221001000048000NNM   20220714121321    4P0P  00001200000000444000000737632Q8    EMEMI   006400630015
BI00B32Q8    EU22103 MW     202209147114-5748-02             TERMINAL                 CCN000048000000048000FN00000000020221001000048000NNM   20220714121321    4P0P  00001200000000444000000737632Q8    EMEMI   006400630015
BI00B32Q8    EU22104 MW     202209217114-5748-02             TERMINAL                 CCN000096000000096000FN00000000020221001000096000NNM   20220714121321    4P0P  00001200000000444000000737632Q8    EMEMI   006400630015
BI00B32Q8    EU22101 MW     202208317114-6041                TERMINAL                 CCN000003600000003600FN00000000020221001000003600NNM   20220714121321    4P0P  00000360000000580700000824232Q8    EMEMI   006400630015
BI00B32Q8    EU22102 MW     202209077114-6041                TERMINAL                 CCN000003600000003600FN00000000020221001000003600NNM   20220714121321    4P0P  00000360000000580700000824232Q8    EMEMI   006400630015
BI00B32Q8    EU22103 MW     202209147114-6041                TERMINAL                 CCN000003600000003600FN00000000020221001000003600NNM   20220714121321    4P0P  00000360000000580700000824232Q8    EMEMI   006400630015
BI00B32Q8    EU22104 MW     202209217114-6041                TERMINAL                 CCN000003600000003600FN00000000020221001000003600NNM   20220714121321    4P0P  00000360000000580700000824232Q8    EMEMI   006400630015
BI00B32Q8    EU22103 MW     202209147116-1685-02             TERMINAL                 CCN000024000000024000FN00000000020221001000024000NNM   20220714121321    4P0P  00002400000000897600001065232Q8    EMEMI   005100280028
BI00B32Q8    EU22104 MW     202209217116-1685-02             TERMINAL                 CCN000024000000024000FN00000000020221001000024000NNM   20220714121321    4P0P  00002400000000897600001065232Q8    EMEMI   005100280028
BI00B32Q8    EU22102 MW     202209077116-1686-02             TERMINAL                 CCN000021000000021000FN00000000020221001000021000NNM   20220714121321    4P0P  00002100000000869400001021632Q8    EMEMI   005100280028
BI00B32Q8    EU22102 MW     202209077116-2891-02             TERMINAL                 CCN000090000000090000FN00000000020221001000090000NNM   20220714121321    4P0P  00001500000000982500001145932Q8    EMEMI   005100280028
BI00B32Q8    EU22103 MW     202209147116-2891-02             TERMINAL                 CCN000075000000075000FN00000000020221001000075000NNM   20220714121321    4P0P  00001500000000982500001145932Q8    EMEMI   005100280028
BI00B32Q8    EU22104 MW     202209217116-2891-02             TERMINAL                 CCN000105000000105000FN00000000020221001000105000NNM   20220714121321    4P0P  00001500000000982500001145932Q8    EMEMI   005100280028
BI00B32Q8    EU22102 MW     202209077116-2892-02             TERMINAL                 CCN000012000000012000FN00000000020221001000012000NNM   20220714121321    4P0P  00001200000000818400000981832Q8    EMEMI   005100280028
BI00B32Q8    EU22103 MW     202209147116-2892-02             TERMINAL                 CCN000060000000060000FN00000000020221001000060000NNM   20220714121321    4P0P  00001200000000818400000981832Q8    EMEMI   005100280028
BI00B32Q8    EU22104 MW     202209217116-2892-02             TERMINAL                 CCN000084000000084000FN00000000020221001000084000NNM   20220714121321    4P0P  00001200000000818400000981832Q8    EMEMI   005100280028
BI00B32Q8    EU22102 MW     202209077116-2893-02             TERMINAL                 CCN000084000000084000FN00000000020221001000084000NNM   20220714121321    4P0P  00001200000000895200001058632Q8    EMEMI   005100280028
BI00B32Q8    EU22103 MW     202209147116-2893-02             TERMINAL                 CCN000156000000156000FN00000000020221001000156000NNM   20220714121321    4P0P  00001200000000895200001058632Q8    EMEMI   005100280028
BI00B32Q8    EU22104 MW     202209217116-2893-02             TERMINAL                 CCN000252000000252000FN00000000020221001000252000NNM   20220714121321    4P0P  00001200000000895200001058632Q8    EMEMI   005100280028
BI00B32Q8    EU22104 MW     202209217116-3154-08             TERMINAL                 CCN000027000000027000FN00000000020221001000027000NNM   20220714121321    4P0P  00002700000000475200000760432Q8    EMEMI   006400630015
BI00B32Q8    EU22101 MW     202208317116-4025                TERMINAL                 CCN000064000000064000FN00000000020221001000064000NNM   20220714121321    4P0P  00001600000000644800000975132Q8    EMEMI   006400630017
BI00B32Q8    EU22102 MW     202209077116-4025                TERMINAL                 CCN000224000000224000FN00000000020221001000224000NNM   20220714121321    4P0P  00001600000000644800000975132Q8    EMEMI   006400630017
BI00B32Q8    EU22103 MW     202209147116-4025                TERMINAL                 CCN000192000000192000FN00000000020221001000192000NNM   20220714121321    4P0P  00001600000000644800000975132Q8    EMEMI   006400630017
BI00B32Q8    EU22104 MW     202209217116-4025                TERMINAL                 CCN000272000000272000FN00000000020221001000272000NNM   20220714121321    4P0P  00001600000000644800000975132Q8    EMEMI   006400630017
BI00B32Q8    EU22101 MW     202208317116-4026                TERMINAL                 CCN000048000000048000FN00000000020221001000048000NNM   20220714121321    4P0P  00001600000000664000000994332Q8    EMEMI   006400630017
BI00B32Q8    EU22102 MW     202209077116-4026                TERMINAL                 CCN000064000000064000FN00000000020221001000064000NNM   20220714121321    4P0P  00001600000000664000000994332Q8    EMEMI   006400630017
BI00B32Q8    EU22103 MW     202209147116-4026                TERMINAL                 CCN000048000000048000FN00000000020221001000048000NNM   20220714121321    4P0P  00001600000000664000000994332Q8    EMEMI   006400630017
BI00B32Q8    EU22104 MW     202209217116-4026                TERMINAL                 CCN000064000000064000FN00000000020221001000064000NNM   20220714121321    4P0P  00001600000000664000000994332Q8    EMEMI   006400630017
BI00B32Q8    EU22101 MW     202208317116-4028-08             TERMINAL FEMALE          CCN000064000000064000FN00000000020221001000064000NNM   20220714121321    4P0P  00001600000000652800000981532Q8    EMEMI   006400630017
BI00B32Q8    EU22102 MW     202209077116-4028-08             TERMINAL FEMALE          CCN000288000000288000FN00000000020221001000288000NNM   20220714121321    4P0P  00001600000000652800000981532Q8    EMEMI   006400630017
BI00B32Q8    EU22103 MW     202209147116-4028-08             TERMINAL FEMALE          CCN000240000000240000FN00000000020221001000240000NNM   20220714121321    4P0P  00001600000000652800000981532Q8    EMEMI   006400630017
BI00B32Q8    EU22104 MW     202209217116-4028-08             TERMINAL FEMALE          CCN000400000000400000FN00000000020221001000400000NNM   20220714121321    4P0P  00001600000000652800000981532Q8    EMEMI   006400630017
BI00B32Q8    EU22101 MW     202208317116-4031                TERMINAL                 CCN000007500000007500FN00000000020221001000007500NNM   20220714121321    4P0P  00000750000000619500000904732Q8    EMEMI   006400630015
BI00B32Q8    EU22102 MW     202209077116-4031                TERMINAL                 CCN000007500000007500FN00000000020221001000007500NNM   20220714121321    4P0P  00000750000000619500000904732Q8    EMEMI   006400630015
BI00B32Q8    EU22103 MW     202209147116-4031                TERMINAL                 CCN000007500000007500FN00000000020221001000007500NNM   20220714121321    4P0P  00000750000000619500000904732Q8    EMEMI   006400630015
BI00B32Q8    EU22104 MW     202209217116-4031                TERMINAL                 CCN000015000000015000FN00000000020221001000015000NNM   20220714121321    4P0P  00000750000000619500000904732Q8    EMEMI   006400630015
BI00B32Q8    EU22101 MW     202208317116-4032                TERMINAL                 CCN000036000000036000FN00000000020221001000036000NNM   20220714121321    4P0P  00000600000000532800000818032Q8    EMEMI   006400630015
BI00B32Q8    EU22102 MW     202209077116-4032                TERMINAL                 CCN000066000000066000FN00000000020221001000066000NNM   20220714121321    4P0P  00000600000000532800000818032Q8    EMEMI   006400630015
BI00B32Q8    EU22103 MW     202209147116-4032                TERMINAL                 CCN000060000000060000FN00000000020221001000060000NNM   20220714121321    4P0P  00000600000000532800000818032Q8    EMEMI   006400630015
BI00B32Q8    EU22104 MW     202209217116-4032                TERMINAL                 CCN000090000000090000FN00000000020221001000090000NNM   20220714121321    4P0P  00000600000000532800000818032Q8    EMEMI   006400630015
BI00B32Q8    EU22102 MW     202209077116-4037                TERMINAL                 CCN000090000000090000FN00000000020221001000090000NNM   20220714121321    4P0P  00000600000000600000000894232Q8    EMEMI   006400630015
BI00B32Q8    EU22103 MW     202209147116-4037                TERMINAL                 CCN000132000000132000FN00000000020221001000132000NNM   20220714121321    4P0P  00000600000000600000000894232Q8    EMEMI   006400630015
BI00B32Q8    EU22104 MW     202209217116-4037                TERMINAL                 CCN000210000000210000FN00000000020221001000210000NNM   20220714121321    4P0P  00000600000000600000000894232Q8    EMEMI   006400630015
BI00B32Q8    EU22101 MW     202208317116-4102-02             TERMINAL                 CCN000024000000024000FN00000000020221001000024000NNM   20220714121321    4P0P  00001200000000553200000841432Q8    EMEMI   006400630015
BI00B32Q8    EU22102 MW     202209077116-4102-02             TERMINAL                 CCN000024000000024000FN00000000020221001000024000NNM   20220714121321    4P0P  00001200000000553200000841432Q8    EMEMI   006400630015
BI00B32Q8    EU22103 MW     202209147116-4102-02             TERMINAL                 CCN000024000000024000FN00000000020221001000024000NNM   20220714121321    4P0P  00001200000000553200000841432Q8    EMEMI   006400630015
BI00B32Q8    EU22104 MW     202209217116-4102-02             TERMINAL                 CCN000036000000036000FN00000000020221001000036000NNM   20220714121321    4P0P  00001200000000553200000841432Q8    EMEMI   006400630015
BI00B32Q8    EU22102 MW     202209077116-4121-02             TERMINAL                 CCN000022500000022500FN00000000020221001000022500NNM   20220714121321    4P0P  00000450000000618800000912432Q8    EMEMI   006400630015
BI00B32Q8    EU22103 MW     202209147116-4121-02             TERMINAL                 CCN000027000000027000FN00000000020221001000027000NNM   20220714121321    4P0P  00000450000000618800000912432Q8    EMEMI   006400630015
BI00B32Q8    EU22104 MW     202209217116-4121-02             TERMINAL                 CCN000036000000036000FN00000000020221001000036000NNM   20220714121321    4P0P  00000450000000618800000912432Q8    EMEMI   006400630015
BI00B32Q8    EU22102 MW     202209077116-4122-02             TERMINAL                 CCN000009000000009000FN00000000020221001000009000NNM   20220714121321    4P0P  00000450000000656600000950232Q8    EMEMI   006400630015
BI00B32Q8    EU22103 MW     202209147116-4122-02             TERMINAL                 CCN000009000000009000FN00000000020221001000009000NNM   20220714121321    4P0P  00000450000000656600000950232Q8    EMEMI   006400630015
BI00B32Q8    EU22104 MW     202209217116-4122-02             TERMINAL                 CCN000013500000013500FN00000000020221001000013500NNM   20220714121321    4P0P  00000450000000656600000950232Q8    EMEMI   006400630015
BI00B32Q8    EU22101 MW     202208317116-4231-02             TERMINAL                 CCN000026000000026000FN00000000020221001000026000NNM   20220714121321    4P0P  00002600000000683800001012532Q8    EMEMI   006400630017
BI00B32Q8    EU22102 MW     202209077116-4231-02             TERMINAL                 CCN000104000000104000FN00000000020221001000104000NNM   20220714121321    4P0P  00002600000000683800001012532Q8    EMEMI   006400630017
BI00B32Q8    EU22103 MW     202209147116-4231-02             TERMINAL                 CCN000078000000078000FN00000000020221001000078000NNM   20220714121321    4P0P  00002600000000683800001012532Q8    EMEMI   006400630017
BI00B32Q8    EU22104 MW     202209217116-4231-02             TERMINAL                 CCN000130000000130000FN00000000020221001000130000NNM   20220714121321    4P0P  00002600000000683800001012532Q8    EMEMI   006400630017
BI00B32Q8    EU22102 MW     202209077116-4415-02             TERMINAL                 CCN000266000000266000FN00000000020221001000266000NNM   20220714121321    4P0P  00003800000000596600000925732Q8    EMEMI   006400630017
BI00B32Q8    EU22103 MW     202209147116-4415-02             TERMINAL                 CCN000228000000228000FN00000000020221001000228000NNM   20220714121321    4P0P  00003800000000596600000925732Q8    EMEMI   006400630017
BI00B32Q8    EU22104 MW     202209217116-4415-02             TERMINAL                 CCN000304000000304000FN00000000020221001000304000NNM   20220714121321    4P0P  00003800000000596600000925732Q8    EMEMI   006400630017
BI00B32Q8    EU22101 MW     202208317116-4416-02             TERMINAL                 CCN000032000000032000FN00000000020221001000032000NNM   20220714121321    4P0P  00003200000000518400000847132Q8    EMEMI   006400630017
BI00B32Q8    EU22102 MW     202209077116-4416-02             TERMINAL                 CCN000192000000192000FN00000000020221001000192000NNM   20220714121321    4P0P  00003200000000518400000847132Q8    EMEMI   006400630017
BI00B32Q8    EU22103 MW     202209147116-4416-02             TERMINAL                 CCN000192000000192000FN00000000020221001000192000NNM   20220714121321    4P0P  00003200000000518400000847132Q8    EMEMI   006400630017
BI00B32Q8    EU22104 MW     202209217116-4416-02             TERMINAL                 CCN000256000000256000FN00000000020221001000256000NNM   20220714121321    4P0P  00003200000000518400000847132Q8    EMEMI   006400630017
BI00B32Q8    EU22101 MW     202208317116-5045-02             TERMINAL                 CCN000160000000160000FN00000000020221001000160000NNM   20220714121321    4P0P  00001600000000678400001007132Q8    EMEMI   006400630017
BI00B32Q8    EU22102 MW     202209077116-5045-02             TERMINAL                 CCN000752000000752000FN00000000020221001000752000NNM   20220714121321    4P0P  00001600000000678400001007132Q8    EMEMI   006400630017
BI00B32Q8    EU22103 MW     202209147116-5045-02             TERMINAL                 CCN000624000000624000FN00000000020221001000624000NNM   20220714121321    4P0P  00001600000000678400001007132Q8    EMEMI   006400630017
BI00B32Q8    EU22104 MW     202209217116-5045-02             TERMINAL                 CCN001056000001056000FN00000000020221001001056000NNM   20220714121321    4P0P  00001600000000678400001007132Q8    EMEMI   006400630017
BI00B32Q8    EU22101 MW     202208317116-5751-02             TERMINAL                 CCN000012000000012000FN00000000020221001000012000NNM   20220714121321    4P0P  00001200000000379200000664432Q8    EMEMI   006400630015
BI00B32Q8    EU22102 MW     202209077116-5751-02             TERMINAL                 CCN000312000000312000FN00000000020221001000312000NNM   20220714121321    4P0P  00001200000000379200000664432Q8    EMEMI   006400630015
BI00B32Q8    EU22103 MW     202209147116-5751-02             TERMINAL                 CCN000264000000264000FN00000000020221001000264000NNM   20220714121321    4P0P  00001200000000379200000664432Q8    EMEMI   006400630015
BI00B32Q8    EU22104 MW     202209217116-5751-02             TERMINAL                 CCN000420000000420000FN00000000020221001000420000NNM   20220714121321    4P0P  00001200000000379200000664432Q8    EMEMI   006400630015
BI00B32Q8    EU22101 MW     202208317116-6041                TERMINAL                 CCN000004500000004500FN00000000020221001000004500NNM   20220714121321    4P0P  00000450000000716000001009632Q8    EMEMI   006400630015
BI00B32Q8    EU22102 MW     202209077116-6041                TERMINAL                 CCN000013500000013500FN00000000020221001000013500NNM   20220714121321    4P0P  00000450000000716000001009632Q8    EMEMI   006400630015
BI00B32Q8    EU22103 MW     202209147116-6041                TERMINAL                 CCN000013500000013500FN00000000020221001000013500NNM   20220714121321    4P0P  00000450000000716000001009632Q8    EMEMI   006400630015
BI00B32Q8    EU22104 MW     202209217116-6041                TERMINAL                 CCN000022500000022500FN00000000020221001000022500NNM   20220714121321    4P0P  00000450000000716000001009632Q8    EMEMI   006400630015
BI00B32Q8    EU22102 MW     202209077116-6042                TERMINAL                 CCN000042000000042000FN00000000020221001000042000NNM   20220714121321    4P0P  00000300000000523800000856132Q8    EMEMI   006400630015
BI00B32Q8    EU22103 MW     202209147116-6042                TERMINAL                 CCN000063000000063000FN00000000020221001000063000NNM   20220714121321    4P0P  00000300000000523800000856132Q8    EMEMI   006400630015
BI00B32Q8    EU22104 MW     202209217116-6042                TERMINAL                 CCN000105000000105000FN00000000020221001000105000NNM   20220714121321    4P0P  00000300000000523800000856132Q8    EMEMI   006400630015
BI00B32Q8    EU22102 MW     202209077126-8853-02             TERMINAL                 CCN000097500000097500FN00000000020221001000097500NNM   20220714121321    4P0P  00000750000000562500000847732Q8    EMEMI   006400630015
BI00B32Q8    EU22103 MW     202209147126-8853-02             TERMINAL                 CCN000142500000142500FN00000000020221001000142500NNM   20220714121321    4P0P  00000750000000562500000847732Q8    EMEMI   006400630015
BI00B32Q8    EU22104 MW     202209217126-8853-02             TERMINAL                 CCN000217500000217500FN00000000020221001000217500NNM   20220714121321    4P0P  00000750000000562500000847732Q8    EMEMI   006400630015
BI00B32Q8    EU22102 MW     202209077126-8854-02             TERMINAL                 CCN000112500000112500FN00000000020221001000112500NNM   20220714121321    4P0P  00000750000000604500000889732Q8    EMEMI   006400630015
BI00B32Q8    EU22103 MW     202209147126-8854-02             TERMINAL                 CCN000120000000120000FN00000000020221001000120000NNM   20220714121321    4P0P  00000750000000604500000889732Q8    EMEMI   006400630015
BI00B32Q8    EU22104 MW     202209217126-8854-02             TERMINAL                 CCN000195000000195000FN00000000020221001000195000NNM   20220714121321    4P0P  00000750000000604500000889732Q8    EMEMI   006400630015
BI00B32Q8    EU22102 MW     202209077126-8855-02             TERMINAL                 CCN000078000000078000FN00000000020221001000078000NNM   20220714121321    4P0P  00000600000000510600000795832Q8    EMEMI   006400630015
BI00B32Q8    EU22103 MW     202209147126-8855-02             TERMINAL                 CCN000150000000150000FN00000000020221001000150000NNM   20220714121321    4P0P  00000600000000510600000795832Q8    EMEMI   006400630015
BI00B32Q8    EU22104 MW     202209217126-8855-02             TERMINAL                 CCN000228000000228000FN00000000020221001000228000NNM   20220714121321    4P0P  00000600000000510600000795832Q8    EMEMI   006400630015
BI00B32Q8    EU22101 MW     202208317158-3006-90             RUBBER STOPPER           CCN000200000000200000FN00000000020221001000200000NNM   20220714121321    1C0C  00002000000000330600000386032Q8    EMEMI   002700430014
BI00B32Q8    EU22102 MW     202209077158-3006-90             RUBBER STOPPER           CCN001040000001040000FN00000000020221001001040000NNM   20220714121321    1C0C  00002000000000330600000386032Q8    EMEMI   002700430014
BI00B32Q8    EU22103 MW     202209147158-3006-90             RUBBER STOPPER           CCN000840000000840000FN00000000020221001000840000NNM   20220714121321    1C0C  00002000000000330600000386032Q8    EMEMI   002700430014
BI00B32Q8    EU22104 MW     202209217158-3006-90             RUBBER STOPPER           CCN001440000001440000FN00000000020221001001440000NNM   20220714121321    1C0C  00002000000000330600000386032Q8    EMEMI   002700430014
BI00B32Q8    EU22101 MW     202208317158-3009-60             RUBBER STOPPER           CCN000040000000040000FN00000000020221001000040000NNM   20220714121321    1C0C  00002000000000338000000386232Q8    EMEMI   002700430014
BI00B32Q8    EU22102 MW     202209077158-3009-60             RUBBER STOPPER           CCN000900000000900000FN00000000020221001000900000NNM   20220714121321    1C0C  00002000000000338000000386232Q8    EMEMI   002700430014
BI00B32Q8    EU22103 MW     202209147158-3009-60             RUBBER STOPPER           CCN000760000000760000FN00000000020221001000760000NNM   20220714121321    1C0C  00002000000000338000000386232Q8    EMEMI   002700430014
BI00B32Q8    EU22104 MW     202209217158-3009-60             RUBBER STOPPER           CCN001220000001220000FN00000000020221001001220000NNM   20220714121321    1C0C  00002000000000338000000386232Q8    EMEMI   002700430014
BI00B32Q8    EU22102 MW     202209077158-3022-80             RUBBER STOPPER           CCN000010000000010000FN00000000020221001000010000NNM   20220714121321    1C0C  00000500000000467500000524032Q8    EMEMI   002700430014
BI00B32Q8    EU22103 MW     202209147158-3022-80             RUBBER STOPPER           CCN000010000000010000FN00000000020221001000010000NNM   20220714121321    1C0C  00000500000000467500000524032Q8    EMEMI   002700430014
BI00B32Q8    EU22104 MW     202209217158-3022-80             RUBBER STOPPER           CCN000015000000015000FN00000000020221001000015000NNM   20220714121321    1C0C  00000500000000467500000524032Q8    EMEMI   002700430014
BI00B32Q8    EU22103 MW     202209147158-3070-80             RUBBER STOPPER           CCN000040000000040000FN00000000020221001000040000NNM   20220714121321    1C0C  00004000000000276000000333332Q8    EMEMI   002700430014
BI00B32Q8    EU22104 MW     202209217158-3070-80             RUBBER STOPPER           CCN000040000000040000FN00000000020221001000040000NNM   20220714121321    1C0C  00004000000000276000000333332Q8    EMEMI   002700430014
BI00B32Q8    EU22102 MW     202209077158-3165-90             WIRE SEAL                CCN000040000000040000FN00000000020221001000040000NNM   20220714121321    1C0C  00004000000000124000000172432Q8    EMEMI   004300270014
BI00B32Q8    EU22103 MW     202209147158-3165-90             WIRE SEAL                CCN000040000000040000FN00000000020221001000040000NNM   20220714121321    1C0C  00004000000000124000000172432Q8    EMEMI   004300270014
BI00B32Q8    EU22104 MW     202209217158-3165-90             WIRE SEAL                CCN000040000000040000FN00000000020221001000040000NNM   20220714121321    1C0C  00004000000000124000000172432Q8    EMEMI   004300270014
BI00B32Q8    EU22101 MW     202208317158-3166-60             WIRE SEAL                CCN000520000000520000FN00000000020221001000520000NNM   20220714121321    1C0C  00004000000000104000000152432Q8    EMEMI   002700430014
BI00B32Q8    EU22102 MW     202209077158-3166-60             WIRE SEAL                CCN002160000002160000FN00000000020221001002160000NNM   20220714121321    1C0C  00004000000000104000000152432Q8    EMEMI   002700430014
BI00B32Q8    EU22103 MW     202209147158-3166-60             WIRE SEAL                CCN001760000001760000FN00000000020221001001760000NNM   20220714121321    1C0C  00004000000000104000000152432Q8    EMEMI   002700430014
BI00B32Q8    EU22104 MW     202209217158-3166-60             WIRE SEAL                CCN002800000002800000FN00000000020221001002800000NNM   20220714121321    1C0C  00004000000000104000000152432Q8    EMEMI   002700430014
