AE00TO202209130413/09/202200000000400000000000000004188KGM  00000004384KGM  18000004530              AV 8 B                   AV 8 B                   0         0         0         0    0    0    00000000000004000000000211100000844400
AE00TO202209130413/09/202200000000500000000000000004960KGM  00000005205KGM  18007703730              AVSS 03F B               AVSS 03F B               0         0         0         0    0    0    00000000000100000000000011700001170000
AE00TO202209130413/09/202200000000100000000000000000992KGM  00000001041KGM  18007703740              AVSS 03F W               AVSS 03F W               0         0         0         0    0    0    00000000000020000000000011700000234000
AE00TO202209130413/09/202200000000200000000000000001984KGM  00000002082KGM  18007703761              AVSS 03F LG              AVSS 03F LG              0         0         0         0    0    0    00000000000040000000000011700000468000
AE00TO202209130413/09/202200000000100000000000000000992KGM  00000001041KGM  18007703790              AVSS 03F L               AVSS 03F L               0         0         0         0    0    0    00000000000020000000000011700000234000
AE00TO202209130413/09/202200000000100000000000000001016KGM  00000001064KGM  18018403960              CAVS 05 G                CAVS 05 G                0         0         0         0    0    0    00000000000015000000000015000000225000
AE00TO202209130413/09/202200000000300000000000000003375KGM  00000003522KGM  1801W003950              IVSSH 05F R              IVSSH 05F R              0         0         0         0    0    0    00000000000054000000000015400000831600
AE00TO202209130413/09/202200000000100000000000000001125KGM  00000001174KGM  1801W003960              IVSSH 05F G              IVSSH 05F G              0         0         0         0    0    0    00000000000018000000000015400000277200
AE00TO202209130413/09/202200000000100000000000000001125KGM  00000001174KGM  1801W003970              IVSSH 05F Y              IVSSH 05F Y              0         0         0         0    0    0    00000000000018000000000015400000277200
AE00TO202209130413/09/202200000004400000000000000050450KGM  00000052602KGM  1801W004040              IVSSH 075F W             IVSSH 075F W             0         0         0         0    0    0    00000000000572000000000021500012298000
AE00TO202209130413/09/202200000001500000000000000017199KGM  00000017932KGM  1801W004043              IVSSH 075F W/B           IVSSH 075F W/B           0         0         0         0    0    0    00000000000195000000000021500004192500
AE00TO202209130413/09/202200000000100000000000000001147KGM  00000001195KGM  1801W004060              IVSSH 075F G             IVSSH 075F G             0         0         0         0    0    0    00000000000013000000000021500000279500
AE00TO202209130413/09/202200000003300000000000000037838KGM  00000039451KGM  1801W004090              IVSSH 075F L             IVSSH 075F L             0         0         0         0    0    0    00000000000429000000000021500009223500
AE00TO202209130413/09/202200000000100000000000000001130KGM  00000001179KGM  1801W006940              IVSSH 035F W             IVSSH 035F W             0         0         0         0    0    0    00000000000025000000000011400000285000
AE00TO202209130413/09/202200000003300000000000000037290KGM  00000038903KGM  1801W006950              IVSSH 035F R             IVSSH 035F R             0         0         0         0    0    0    00000000000825000000000011400009405000
AE00TO202209130413/09/202200000006700000000000000075710KGM  00000078986KGM  1801W006960              IVSSH 035F G             IVSSH 035F G             0         0         0         0    0    0    00000000001675000000000011400019095000
AE00TO202209130413/09/202200000000100000000000000001166KGM  00000001215KGM  180D0204130              AVSSH 125F B             AVSSH 125F B             0         0         0         0    0    0    00000000000008000000000035700000285600
AE00TO202209130413/09/202200000000700000000000000005321KGM  00000005664KGM  181AD2003ZZ              CIVUSAS-S 035X3 B        CIVUSAS-S 035X3 B        0         0         0         0    0    0    00000000000024500000000055300001354850
AE00TO202209130413/09/202200000000200000000000000001622KGM  00000001720KGM  181AD2008ZZ              CIVUSAS-S 05X2 B         CIVUSAS-S 05X2 B         0         0         0         0    0    0    00000000000008000000000051400000411200
AE00TO202209130413/09/202200000000200000000000000001607KGM  00000001705KGM  181AD2010ZZ              CIVUSAS-S 05X4 B         CIVUSAS-S 05X4 B         0         0         0         0    0    0    00000000000005000000000083700000418500
AE00TO202209130413/09/202200000003800000000000000027009KGM  00000028866KGM  181B0911741              CAVSAS 03X3 GY           CAVSAS 03X3 GY           0         0         0         0    0    0    00000000000095000000000060100005709500
AE00TO202209130413/09/202200000000800000000000000007324KGM  00000007716KGM  181B32039S1              AVSSCS 05FX1 DGY         AVSSCS 05FX1 DGY         0         0         0         0    0    0    00000000000032000000000055900001788800
AE00TO202209130413/09/202200000000900000000000000008240KGM  00000008680KGM  181B32039Y6              AVSSCS 05FX1 DGY/G       AVSSCS 05FX1 DGY/G       0         0         0         0    0    0    00000000000036000000000055900002012400
AE00TO202209130413/09/202200000006500000000000000045829KGM  00000049007KGM  181CQ7003ZZ              IVSSHCS-S 05FX2 B(B,W)   IVSSHCS-S 05FX2 B(B,W)   0         0         0         0    0    0    00000000000195000000000072600014157000
AE00TO202209130413/09/202200000001500000000000000010575KGM  00000011310KGM  181CQ7004ZZ              IVSSHCS-S 05FX2 B(R,G)   IVSSHCS-S 05FX2 B(R,G)   0         0         0         0    0    0    00000000000045000000000072600003267000
