AE00TO202209130313/09/202200000000600000000000000006280KGM  00000006573KGM  18000004590              AV 8 L                   AV 8 L                   0         0         0         0    0    0    00000000000006000000000211100001266600
AE00TO202209130313/09/202200000001000000000000000009920KGM  00000010409KGM  18007703730              AVSS 03F B               AVSS 03F B               0         0         0         0    0    0    00000000000200000000000011700002340000
AE00TO202209130313/09/202200000000100000000000000000992KGM  00000001041KGM  18007703750              AVSS 03F R               AVSS 03F R               0         0         0         0    0    0    00000000000020000000000011700000234000
AE00TO202209130313/09/202200000000400000000000000003968KGM  00000004164KGM  18007703790              AVSS 03F L               AVSS 03F L               0         0         0         0    0    0    00000000000080000000000011700000936000
AE00TO202209130313/09/202200000000100000000000000000992KGM  00000001041KGM  18007703791              AVSS 03F SB              AVSS 03F SB              0         0         0         0    0    0    00000000000020000000000011700000234000
AE00TO202209130313/09/202200000000500000000000000004825KGM  00000005069KGM  18018404041              CAVS 085 GY              CAVS 085 GY              0         0         0         0    0    0    00000000000050000000000022700001135000
AE00TO202209130313/09/202200000005200000000000000058500KGM  00000061042KGM  1801W003950              IVSSH 05F R              IVSSH 05F R              0         0         0         0    0    0    00000000000936000000000015400014414400
AE00TO202209130313/09/202200000004400000000000000049500KGM  00000051652KGM  1801W003960              IVSSH 05F G              IVSSH 05F G              0         0         0         0    0    0    00000000000792000000000015400012196800
AE00TO202209130313/09/202200000007400000000000000083250KGM  00000086868KGM  1801W003970              IVSSH 05F Y              IVSSH 05F Y              0         0         0         0    0    0    00000000001332000000000015400020512800
AE00TO202209130313/09/202200000002200000000000000025225KGM  00000026301KGM  1801W004030              IVSSH 075F B             IVSSH 075F B             0         0         0         0    0    0    00000000000286000000000021500006149000
AE00TO202209130313/09/202200000001200000000000000013759KGM  00000014346KGM  1801W004060              IVSSH 075F G             IVSSH 075F G             0         0         0         0    0    0    00000000000156000000000021500003354000
AE00TO202209130313/09/202200000000700000000000000008026KGM  00000008368KGM  1801W004080              IVSSH 075F BR            IVSSH 075F BR            0         0         0         0    0    0    00000000000091000000000021500001956500
AE00TO202209130313/09/202200000000100000000000000001147KGM  00000001195KGM  1801W004090              IVSSH 075F L             IVSSH 075F L             0         0         0         0    0    0    00000000000013000000000021500000279500
AE00TO202209130313/09/202200000000600000000000000006879KGM  00000007173KGM  1801W004092              IVSSH 075F V             IVSSH 075F V             0         0         0         0    0    0    00000000000078000000000021500001677000
AE00TO202209130313/09/202200000004200000000000000047460KGM  00000049514KGM  1801W006940              IVSSH 035F W             IVSSH 035F W             0         0         0         0    0    0    00000000001050000000000011400011970000
AE00TO202209130313/09/202200000000100000000000000001130KGM  00000001179KGM  1801W006943              IVSSH 035F W/B           IVSSH 035F W/B           0         0         0         0    0    0    00000000000025000000000011400000285000
AE00TO202209130313/09/202200000005200000000000000058760KGM  00000061302KGM  1801W006960              IVSSH 035F G             IVSSH 035F G             0         0         0         0    0    0    00000000001300000000000011400014820000
AE00TO202209130313/09/202200000000100000000000000001030KGM  00000001079KGM  180D0203750              AVSSH 03F R              AVSSH 03F R              0         0         0         0    0    0    00000000000020000000000012200000244000
AE00TO202209130313/09/202200000000100000000000000001030KGM  00000001079KGM  180D0203790              AVSSH 03F L              AVSSH 03F L              0         0         0         0    0    0    00000000000020000000000012200000244000
AE00TO202209130313/09/202200000004500000000000000031728KGM  00000033928KGM  181CQ7004ZZ              IVSSHCS-S 05FX2 B(R,G)   IVSSHCS-S 05FX2 B(R,G)   0         0         0         0    0    0    00000000000135000000000072600009801000
AE00TO202209130313/09/202200000001800000000000000012502KGM  00000013382KGM  181E48013ZZ              CAVSAS-S 03X3 GY         CAVSAS-S 03X3 GY         0         0         0         0    0    0    00000000000045000000000059600002682000
AE00TO202209130313/09/202200000002700000000000000022019KGM  00000023339KGM  181E48037ZZ              CAVSAS-S 03X4 GY         CAVSAS-S 03X4 GY         0         0         0         0    0    0    00000000000067500000000079200005346000
AE00TO202209130313/09/202200000006300000000000000047739KGM  00000050818KGM  181E50036ZZ              AVSSCS-S 03FX2 DGY       AVSSCS-S 03FX2 DGY       0         0         0         0    0    0    00000000000220500000000059400013097700
