AE00TO202209130213/09/202200000008100000000000000084776KGM  00000088737KGM  18000004530              AV 8 B                   AV 8 B                   0         0         0         0    0    0    00000000000081000000000211100017099100
AE00TO202209130213/09/202200000000500000000000000005233KGM  00000005478KGM  18000004540              AV 8 W                   AV 8 W                   0         0         0         0    0    0    00000000000005000000000211100001055500
AE00TO202209130213/09/202200000002800000000000000027776KGM  00000029145KGM  18007703730              AVSS 03F B               AVSS 03F B               0         0         0         0    0    0    00000000000560000000000011700006552000
AE00TO202209130213/09/202200000000700000000000000006944KGM  00000007286KGM  18007703750              AVSS 03F R               AVSS 03F R               0         0         0         0    0    0    00000000000140000000000011700001638000
AE00TO202209130213/09/202200000000100000000000000000992KGM  00000001041KGM  18007703760              AVSS 03F G               AVSS 03F G               0         0         0         0    0    0    00000000000020000000000011700000234000
AE00TO202209130213/09/202200000000100000000000000000992KGM  00000001041KGM  18007703761              AVSS 03F LG              AVSS 03F LG              0         0         0         0    0    0    00000000000020000000000011700000234000
AE00TO202209130213/09/202200000000900000000000000008928KGM  00000009368KGM  18007703770              AVSS 03F Y               AVSS 03F Y               0         0         0         0    0    0    00000000000180000000000011700002106000
AE00TO202209130213/09/202200000000300000000000000002976KGM  00000003123KGM  18007703790              AVSS 03F L               AVSS 03F L               0         0         0         0    0    0    00000000000060000000000011700000702000
AE00TO202209130213/09/202200000001300000000000000013822KGM  00000014457KGM  18007704230              AVSS 2F B                AVSS 2F B                0         0         0         0    0    0    00000000000065000000000050600003289000
AE00TO202209130213/09/202200000001200000000000000012758KGM  00000013345KGM  18007704260              AVSS 2F G                AVSS 2F G                0         0         0         0    0    0    00000000000060000000000050600003036000
AE00TO202209130213/09/202200000000600000000000000006379KGM  00000006673KGM  18007704287              AVSS 2F BR/Y             AVSS 2F BR/Y             0         0         0         0    0    0    00000000000030000000000050600001518000
AE00TO202209130213/09/202200000000100000000000000001063KGM  00000001112KGM  18007704290              AVSS 2F L                AVSS 2F L                0         0         0         0    0    0    00000000000005000000000050600000253000
AE00TO202209130213/09/202200000000300000000000000002895KGM  00000003042KGM  18018404041              CAVS 085 GY              CAVS 085 GY              0         0         0         0    0    0    00000000000030000000000022700000681000
AE00TO202209130213/09/202200000002000000000000000022500KGM  00000023478KGM  1801W003950              IVSSH 05F R              IVSSH 05F R              0         0         0         0    0    0    00000000000360000000000015400005544000
AE00TO202209130213/09/202200000001700000000000000019125KGM  00000019957KGM  1801W003960              IVSSH 05F G              IVSSH 05F G              0         0         0         0    0    0    00000000000306000000000015400004712400
AE00TO202209130213/09/202200000003600000000000000040500KGM  00000042260KGM  1801W003970              IVSSH 05F Y              IVSSH 05F Y              0         0         0         0    0    0    00000000000648000000000015400009979200
AE00TO202209130213/09/202200000000400000000000000004586KGM  00000004782KGM  1801W004030              IVSSH 075F B             IVSSH 075F B             0         0         0         0    0    0    00000000000052000000000021500001118000
AE00TO202209130213/09/202200000000600000000000000006880KGM  00000007173KGM  1801W004060              IVSSH 075F G             IVSSH 075F G             0         0         0         0    0    0    00000000000078000000000021500001677000
AE00TO202209130213/09/202200000000200000000000000002294KGM  00000002390KGM  1801W004080              IVSSH 075F BR            IVSSH 075F BR            0         0         0         0    0    0    00000000000026000000000021500000559000
AE00TO202209130213/09/202200000002700000000000000030959KGM  00000032278KGM  1801W004090              IVSSH 075F L             IVSSH 075F L             0         0         0         0    0    0    00000000000351000000000021500007546500
AE00TO202209130213/09/202200000002200000000000000025225KGM  00000026300KGM  1801W004092              IVSSH 075F V             IVSSH 075F V             0         0         0         0    0    0    00000000000286000000000021500006149000
AE00TO202209130213/09/202200000002900000000000000032770KGM  00000034188KGM  1801W006940              IVSSH 035F W             IVSSH 035F W             0         0         0         0    0    0    00000000000725000000000011400008265000
AE00TO202209130213/09/202200000002500000000000000028250KGM  00000029472KGM  1801W006943              IVSSH 035F W/B           IVSSH 035F W/B           0         0         0         0    0    0    00000000000625000000000011400007125000
AE00TO202209130213/09/202200000002800000000000000031640KGM  00000033009KGM  1801W006960              IVSSH 035F G             IVSSH 035F G             0         0         0         0    0    0    00000000000700000000000011400007980000
AE00TO202209130213/09/202200000001700000000000000017510KGM  00000018341KGM  180D0203740              AVSSH 03F W              AVSSH 03F W              0         0         0         0    0    0    00000000000340000000000012200004148000
AE00TO202209130213/09/202200000000300000000000000003090KGM  00000003237KGM  180D0203750              AVSSH 03F R              AVSSH 03F R              0         0         0         0    0    0    00000000000060000000000012200000732000
AE00TO202209130213/09/202200000001700000000000000017510KGM  00000018341KGM  180D0203760              AVSSH 03F G              AVSSH 03F G              0         0         0         0    0    0    00000000000340000000000012200004148000
AE00TO202209130213/09/202200000000300000000000000003090KGM  00000003237KGM  180D0203790              AVSSH 03F L              AVSSH 03F L              0         0         0         0    0    0    00000000000060000000000012200000732000
AE00TO202209130213/09/202200000000100000000000000001166KGM  00000001215KGM  180D0204150              AVSSH 125F R             AVSSH 125F R             0         0         0         0    0    0    00000000000008000000000035700000285600
AE00TO202209130213/09/202200000000500000000000000003801KGM  00000004046KGM  181AD2003ZZ              CIVUSAS-S 035X3 B        CIVUSAS-S 035X3 B        0         0         0         0    0    0    00000000000017500000000055300000967750
AE00TO202209130213/09/202200000001900000000000000015959KGM  00000016888KGM  181AD2004ZZ              CIVUSAS-S 035X4 B        CIVUSAS-S 035X4 B        0         0         0         0    0    0    00000000000057000000000066700003801900
AE00TO202209130213/09/202200000000300000000000000002747KGM  00000002893KGM  181B32039S1              AVSSCS 05FX1 DGY         AVSSCS 05FX1 DGY         0         0         0         0    0    0    00000000000012000000000055900000670800
AE00TO202209130213/09/202200000000100000000000000000916KGM  00000000964KGM  181B32039Y5              AVSSCS 05FX1 DGY/W       AVSSCS 05FX1 DGY/W       0         0         0         0    0    0    00000000000004000000000055900000223600
AE00TO202209130213/09/202200000000300000000000000002747KGM  00000002893KGM  181B32039Y6              AVSSCS 05FX1 DGY/G       AVSSCS 05FX1 DGY/G       0         0         0         0    0    0    00000000000012000000000055900000670800
AE00TO202209130213/09/202200000000200000000000000001831KGM  00000001929KGM  181B32039Y8              AVSSCS 05FX1 DGY/R       AVSSCS 05FX1 DGY/R       0         0         0         0    0    0    00000000000008000000000055900000447200
AE00TO202209130213/09/202200000004500000000000000034099KGM  00000036299KGM  181E50036ZZ              AVSSCS-S 03FX2 DGY       AVSSCS-S 03FX2 DGY       0         0         0         0    0    0    00000000000157500000000059400009355500
AE00TO202209130213/09/202200000002200000000000000018776KGM  00000019852KGM  181F21027ZZ              AVSSHCS-S 125FX2 B       AVSSHCS-S 125FX2 B       0         0         0         0    0    0    00000000000044000000000127800005623200
AE00TO202209130213/09/202200000000400000000000000003414KGM  00000003610KGM  181F21028ZZ              AVSSHCS-S 125FX2 B/R     AVSSHCS-S 125FX2 B/R     0         0         0         0    0    0    00000000000008000000000127800001022400
AE00TO202209130213/09/202200000000600000000000000005120KGM  00000005414KGM  181F21029ZZ              AVSSHCS-S 125FX2 B/Y     AVSSHCS-S 125FX2 B/Y     0         0         0         0    0    0    00000000000012000000000127800001533600
AE00TO202209130213/09/202200000000300000000000000002560KGM  00000002707KGM  181F21031ZZ              AVSSHCS-S 125FX2 B/P     AVSSHCS-S 125FX2 B/P     0         0         0         0    0    0    00000000000006000000000127800000766800
