AE00TO202209130113/09/202200000039500000000000000413414KGM  00000432726KGM  18000004530              AV 8 B                   AV 8 B                   0         0         0         0    0    0    00000000000395000000000211100083384500
AE00TO202209130113/09/202200000000300000000000000003140KGM  00000003287KGM  18000004540              AV 8 W                   AV 8 W                   0         0         0         0    0    0    00000000000003000000000211100000633300
AE00TO202209130113/09/202200000000700000000000000006944KGM  00000007286KGM  18007703730              AVSS 03F B               AVSS 03F B               0         0         0         0    0    0    00000000000140000000000011700001638000
AE00TO202209130113/09/202200000000100000000000000000992KGM  00000001041KGM  18007703735              AVSS 03F B/R             AVSS 03F B/R             0         0         0         0    0    0    00000000000020000000000011700000234000
AE00TO202209130113/09/202200000001300000000000000012896KGM  00000013532KGM  18007703740              AVSS 03F W               AVSS 03F W               0         0         0         0    0    0    00000000000260000000000011700003042000
AE00TO202209130113/09/202200000001300000000000000012896KGM  00000013532KGM  18007703750              AVSS 03F R               AVSS 03F R               0         0         0         0    0    0    00000000000260000000000011700003042000
AE00TO202209130113/09/202200000000400000000000000003968KGM  00000004164KGM  18007703752              AVSS 03F P               AVSS 03F P               0         0         0         0    0    0    00000000000080000000000011700000936000
AE00TO202209130113/09/202200000000200000000000000001984KGM  00000002082KGM  1800770375U              AVSS 03F BE              AVSS 03F BE              0         0         0         0    0    0    00000000000040000000000011700000468000
AE00TO202209130113/09/202200000000500000000000000004960KGM  00000005205KGM  18007703760              AVSS 03F G               AVSS 03F G               0         0         0         0    0    0    00000000000100000000000011700001170000
AE00TO202209130113/09/202200000000800000000000000007936KGM  00000008327KGM  18007703761              AVSS 03F LG              AVSS 03F LG              0         0         0         0    0    0    00000000000160000000000011700001872000
AE00TO202209130113/09/202200000003300000000000000032736KGM  00000034350KGM  18007703770              AVSS 03F Y               AVSS 03F Y               0         0         0         0    0    0    00000000000660000000000011700007722000
AE00TO202209130113/09/202200000003100000000000000030752KGM  00000032268KGM  18007703790              AVSS 03F L               AVSS 03F L               0         0         0         0    0    0    00000000000620000000000011700007254000
AE00TO202209130113/09/202200000002100000000000000020832KGM  00000021859KGM  18007703791              AVSS 03F SB              AVSS 03F SB              0         0         0         0    0    0    00000000000420000000000011700004914000
AE00TO202209130113/09/202200000001100000000000000010912KGM  00000011450KGM  18007703792              AVSS 03F V               AVSS 03F V               0         0         0         0    0    0    00000000000220000000000011700002574000
AE00TO202209130113/09/202200000000200000000000000001884KGM  00000001982KGM  18018403730              CAVS 03 B                CAVS 03 B                0         0         0         0    0    0    00000000000040000000000010300000412000
AE00TO202209130113/09/202200000000200000000000000001884KGM  00000001982KGM  18018403734              CAVS 03 B/W              CAVS 03 B/W              0         0         0         0    0    0    00000000000040000000000010300000412000
AE00TO202209130113/09/202200000000300000000000000002826KGM  00000002973KGM  18018403740              CAVS 03 W                CAVS 03 W                0         0         0         0    0    0    00000000000060000000000010300000618000
AE00TO202209130113/09/202200000000200000000000000001884KGM  00000001982KGM  18018403741              CAVS 03 GY               CAVS 03 GY               0         0         0         0    0    0    00000000000040000000000010300000412000
AE00TO202209130113/09/202200000000400000000000000003768KGM  00000003964KGM  18018403761              CAVS 03 LG               CAVS 03 LG               0         0         0         0    0    0    00000000000080000000000010300000824000
AE00TO202209130113/09/202200000000200000000000000001884KGM  00000001982KGM  18018403791              CAVS 03 SB               CAVS 03 SB               0         0         0         0    0    0    00000000000040000000000010300000412000
AE00TO202209130113/09/202200000011800000000000000113870KGM  00000119639KGM  18018404041              CAVS 085 GY              CAVS 085 GY              0         0         0         0    0    0    00000000001180000000000022700026786000
AE00TO202209130113/09/202200000000100000000000000001158KGM  00000001207KGM  1801R706961              CIVUS 035 LG             CIVUS 035 LG             0         0         0         0    0    0    00000000000030000000000009600000288000
AE00TO202209130113/09/202200000006500000000000000073450KGM  00000076628KGM  1801W006940              IVSSH 035F W             IVSSH 035F W             0         0         0         0    0    0    00000000001625000000000011400018525000
AE00TO202209130113/09/202200000000600000000000000006780KGM  00000007074KGM  1801W006943              IVSSH 035F W/B           IVSSH 035F W/B           0         0         0         0    0    0    00000000000150000000000011400001710000
AE00TO202209130113/09/202200000000100000000000000001130KGM  00000001179KGM  1801W006960              IVSSH 035F G             IVSSH 035F G             0         0         0         0    0    0    00000000000025000000000011400000285000
AE00TO202209130113/09/202200000000400000000000000004120KGM  00000004316KGM  180D0203740              AVSSH 03F W              AVSSH 03F W              0         0         0         0    0    0    00000000000080000000000012200000976000
AE00TO202209130113/09/202200000000400000000000000004120KGM  00000004316KGM  180D0203743              AVSSH 03F W/B            AVSSH 03F W/B            0         0         0         0    0    0    00000000000080000000000012200000976000
AE00TO202209130113/09/202200000000100000000000000001030KGM  00000001079KGM  180D0203750              AVSSH 03F R              AVSSH 03F R              0         0         0         0    0    0    00000000000020000000000012200000244000
AE00TO202209130113/09/202200000000100000000000000001030KGM  00000001079KGM  180D0203760              AVSSH 03F G              AVSSH 03F G              0         0         0         0    0    0    00000000000020000000000012200000244000
AE00TO202209130113/09/202200000000100000000000000001030KGM  00000001079KGM  180D0203764              AVSSH 03F G/W            AVSSH 03F G/W            0         0         0         0    0    0    00000000000020000000000012200000244000
AE00TO202209130113/09/202200000000500000000000000005150KGM  00000005395KGM  180D0203790              AVSSH 03F L              AVSSH 03F L              0         0         0         0    0    0    00000000000100000000000012200001220000
AE00TO202209130113/09/202200000000100000000000000001030KGM  00000001079KGM  180D0203793              AVSSH 03F L/B            AVSSH 03F L/B            0         0         0         0    0    0    00000000000020000000000012200000244000
AE00TO202209130113/09/202200000000100000000000000001030KGM  00000001079KGM  180D0203795              AVSSH 03F L/R            AVSSH 03F L/R            0         0         0         0    0    0    00000000000020000000000012200000244000
AE00TO202209130113/09/202200000003100000000000000026040KGM  00000027555KGM  181AD2004ZZ              CIVUSAS-S 035X4 B        CIVUSAS-S 035X4 B        0         0         0         0    0    0    00000000000093000000000066700006203100
AE00TO202209130113/09/202200000002700000000000000021695KGM  00000023015KGM  181AD2010ZZ              CIVUSAS-S 05X4 B         CIVUSAS-S 05X4 B         0         0         0         0    0    0    00000000000067500000000083700005649750
AE00TO202209130113/09/202200000000700000000000000006099KGM  00000006442KGM  181D69004ZZ              AVSSHCS 125FX2 B         AVSSHCS 125FX2 B         0         0         0         0    0    0    00000000000014000000000130000001820000
AE00TO202209130113/09/202200000004800000000000000036372KGM  00000038719KGM  181E50002ZZ              AVSSCS-S 03FX2 DGY/G     AVSSCS-S 03FX2 DGY/G     0         0         0         0    0    0    00000000000168000000000059400009979200
AE00TO202209130113/09/202200000000100000000000000000764KGM  00000000813KGM  181E50004ZZ              AVSSCS-S 05FX1 DGY       AVSSCS-S 05FX1 DGY       0         0         0         0    0    0    00000000000004000000000050400000201600
AE00TO202209130113/09/202200000001600000000000000012124KGM  00000012906KGM  181E50020ZZ              AVSSCS-S 03FX2 DGY/R     AVSSCS-S 03FX2 DGY/R     0         0         0         0    0    0    00000000000056000000000059400003326400
AE00TO202209130113/09/202200000001800000000000000013640KGM  00000014520KGM  181E50021ZZ              AVSSCS-S 03FX2 DGY/P     AVSSCS-S 03FX2 DGY/P     0         0         0         0    0    0    00000000000063000000000059400003742200
AE00TO202209130113/09/202200000006700000000000000050769KGM  00000054045KGM  181E50036ZZ              AVSSCS-S 03FX2 DGY       AVSSCS-S 03FX2 DGY       0         0         0         0    0    0    00000000000234500000000059400013929300
AE00TO202209130113/09/202200000000300000000000000002560KGM  00000002707KGM  181F21028ZZ              AVSSHCS-S 125FX2 B/R     AVSSHCS-S 125FX2 B/R     0         0         0         0    0    0    00000000000006000000000127800000766800
AE00TO202209130113/09/202200000000100000000000000000853KGM  00000000902KGM  181F21029ZZ              AVSSHCS-S 125FX2 B/Y     AVSSHCS-S 125FX2 B/Y     0         0         0         0    0    0    00000000000002000000000127800000255600
