BI00A1200    H322J51230     202210047298-4094-10             HOUSING FEMALE ASS'Y     CCN000003380000003380FN00000000020221001000003380NNE   20220913121449    4N0N  0000033800000109740000135871200    YCYC    005400370024
BI00B1200    O022K50374     202210207298-1145-4W             SQUIB SUB ASS'Y          CCN000020000000020000FN00000000020221101000020000NNE   20220913121449    4N0N  0000100000000078790000094491200    YCYC    005400370024
BI00B1200    Y022L50056     202211177116-4100-02             TERMINAL                 CCN000030000000030000FN00000000020221201000030000NNE   20220913121449    4P0P  0000150000000069600000099021200    YCYC    006400630015
BI00B1200    Y022L50057     202211177116-4112-02             TERMINAL                 CCN000060000000060000FN00000000020221201000060000NNE   20220913121449    4P0P  0000060000000045000000073821200    YCYC    006400630015
BI00B32A7    ZZ2210ALMW     202209287172-5402-30             SEAL RUBBER              CCN000032000000032000FN00000000020221001000032000NNE   20220913144905    1C0C  00000800000000457600000506032A7    ZZZZY   004300270014
BI00B32A7    #ZZ2210ALMW    202209287158-3003-90             RUBBER STOPPER           CCN000040000000040000FN00000000020221001000040000NNE   20220913144901    2C0C  00002000000000250000000306032A7    ZZZZY   002700430014
BI00B32A7    #ZZ2210ALMW    202209287158-3121-80             WIRE SEAL                CCN000160000000160000FN00000000020221001000160000NNE   20220913144901    2C0C  00002000000000118000000187332A7    ZZZZY   002700430014
BI00B32A7    #ZZ2210ALMW    202209287158-3654-80             WIRE TUBE                CCN000040000000040000FN00000000020221001000040000NNE   20220913144901    2H0H  00004000000000104000000152232A7    ZZZZY   004300270014
BI00B32CJ    #JQN2111       202209307158-3015-10             RUBBER STOPPER           CCN000020000000020000FN00000000020221101000020000NNMD0020220913121449    2C0C  00001000000000419500000474032CJ    QNYHVQN 002700430014
BI00B32CJ    #JQN2112       202210077158-3015-10             RUBBER STOPPER           CCN000010000000010000FN00000000020221101000010000NNMD0020220913121449    2C0C  00001000000000419500000474032CJ    QNYHVQN 002700430014
BI00B32CJ    #JQN2113       202210177158-3015-10             RUBBER STOPPER           CCN000010000000010000FN00000000020221101000010000NNMD0020220913121449    2C0C  00001000000000419500000474032CJ    QNYHVQN 002700430014
BI00B32CJ    #JQN2114       202210217158-3015-10             RUBBER STOPPER           CCN000010000000010000FN00000000020221101000010000NNMD0020220913121449    2C0C  00001000000000419500000474032CJ    QNYHVQN 002700430014
BI00B32DE    #QA-22-C082    202209227287-1915-40             CONNECTOR ASS'Y          PNN000002400000002400FN00000000020220901000002400NNE   20220913144956    2N0N  00000240000000666500000923132DE    TVYEV-TV005500360039
BI00B32E1    NC3011         202210267154-3176                COVER                    CCN000000100000000100FN00000000020221201000000100NNM   20220913121449    1F0F  00000005000000426000000580332E1    SPYSE   005600390040
BI00B32E1    NC3012         202211027154-3176                COVER                    CCN000000100000000100FN00000000020221201000000100NNM   20220913121449    1F0F  00000005000000426000000580332E1    SPYSE   005600390040
BI00B32E1    NC3013         202211097154-3176                COVER                    CCN000000100000000100FN00000000020221201000000100NNM   20220913121449    1F0F  00000005000000426000000580332E1    SPYSE   005600390040
BI00B32E1    NC3011         202210267158-3006-90             RUBBER STOPPER           CCN000020000000020000FN00000000020221201000020000NNM   20220913121449    1C0C  00002000000000330600000386032E1    SPYSE   002700430014
BI00B32E1    NC3012         202211027158-3006-90             RUBBER STOPPER           CCN000020000000020000FN00000000020221201000020000NNM   20220913121449    1C0C  00002000000000330600000386032E1    SPYSE   002700430014
BI00B32E1    NC3013         202211097158-3006-90             RUBBER STOPPER           CCN000020000000020000FN00000000020221201000020000NNM   20220913121449    1C0C  00002000000000330600000386032E1    SPYSE   002700430014
BI00B32E1    NC3013         202211097158-3070-80             RUBBER STOPPER           CCN000040000000040000FN00000000020221201000040000NNM   20220913121449    1C0C  00004000000000276000000333332E1    SPYSE   002700430014
BI00B32E1    NC3011         202210267254-1884-30             PRIMARY PDB BASE         CCN000000072000000072FN00000000020221201000000072NNM   20220913121449    4N0N  00000003600001160000001390732E1    SPYSE   005600390040
BI00B32E1    NC3012         202211027254-1884-30             PRIMARY PDB BASE         CCN000000036000000036FN00000000020221201000000036NNM   20220913121449    4N0N  00000003600001160000001390732E1    SPYSE   005600390040
BI00B32E1    #NC3011        202210267154-5616-30             SECONDARY PDB BASE       CCN000000192000000192FN00000000020221201000000192NNM   20220913121449    2F0F  00000004800000806400001009132E1    SPYSE   005600390040
BI00B32E1    #NC3012        202211027154-5616-30             SECONDARY PDB BASE       CCN000000096000000096FN00000000020221201000000096NNM   20220913121449    2F0F  00000004800000806400001009132E1    SPYSE   005600390040
BI00B32E1    #NC3013        202211097154-5616-30             SECONDARY PDB BASE       CCN000000096000000096FN00000000020221201000000096NNM   20220913121449    2F0F  00000004800000806400001009132E1    SPYSE   005600390040
BI00B32E1    #NC3013        202211097158-3003-90             RUBBER STOPPER           CCN000020000000020000FN00000000020221201000020000NNM   20220913121449    2C0C  00002000000000250000000306032E1    SPYSE   002700430014
BI00B32E1    #NC3013        202211097182-2410                CONNECTOR HOUSING        CCN000001200000001200FN00000000020221201000001200NNM   20220913121449    2F0F  00000120000000959800001245632E1    SPYSE   005500360039
BI00B32E2    #NY211E        202209287188-3035                HOUSING MALE             CCN000002400000002400FN00000000020221101000002400NNE   20220913121449    2F0F  00000240000000693600000913632E2    SPYSE   005500360039
BI00B32E2    NY3011         202210267116-1473                TERMINAL                 CCN000013500000013500FN00000000020221201000013500NNM   20220913121449    4P0P  00001350000000523800000809032E2    SPYSE   006400630015
BI00B32E2    NY3012         202211027116-1473                TERMINAL                 CCN000013500000013500FN00000000020221201000013500NNM   20220913121449    4P0P  00001350000000523800000809032E2    SPYSE   006400630015
BI00B32E2    #NY3011        202210267282-6446-40             CONNECTOR                CCN000001500000001500FN00000000020221201000001500NNM   20220913121449    2N0N  00000150000001185000001368032E2    SPYSE   005500360039
BI00B32G8    PATA2101B      202210127470-5945                J/B COMPLETE ASS'Y       CCN000000950000000950FN00000000020220901000000950NNED0020220913121449    4J0J  00000001000000494000000661032G8    PSPASI  005400370024
BI00B32H2    TIJ211A        202210177283-4576                HOUSING FEMALE ASS'Y     CCN000014400000014400FN00000000020221101000014400NNED0420220913145352    4N0N  00000480000000651300000871332H2    HVYHV   005500360039
BI00B32H2    TIJ211E        202210147158-3023                RUBBER STOPPER           CCN000005000000005000FN00000000020221101000005000NNE   20220913121449    1C0C  00000500000000443500000502032H2    HVYHV   002700430014
BI00T32H2    @TIJ210T-I     202210067123-2825                HOUSING                  CCN000006000000006000FN00000000020221001000006000NNE00020220913154259    3F0F  00000600000000958800001136432H2    HVYHV   005500360039
BI00T32H2    @TIJ211A-I     202211107183-3190                JOINT CONNECTOR          CCN000003600000003600FN00000000020221101000003600NNE   20220913154154    3F0F  00000360000000457600000667832H2    HVYHV   005500360039
BI00T32H2    @TIJ210V-I     202211037282-1148                CONNECTOR ASS'Y          CCN000002400000002400FN00000000020221101000002400NNE   20220913154154    3N0N  00000080000001165300001404032H2    HVYHV   005500360039
BI00T32H2    @TIJ211A-I     202211107282-1148                CONNECTOR ASS'Y          CCN000000800000000800FN00000000020221101000000800NNE   20220913154154    3N0N  00000080000001165300001404032H2    HVYHV   005500360039
BI00T32H2    @TIJ211A-I     202211107282-1148-40             CONNECTOR ASS'Y          CCN000001600000001600FN00000000020221101000001600NNE   20220913154154    3N0N  00000080000001171200001402032H2    HVYHV   005500360039
BI00T32H2    @TIJ211B-I     202211177283-1556                CONNECTOR ASS'Y          CCN000024000000024000FN00000000020221101000024000NNE   20220913154154    3N0N  00000240000000755000001014032H2    HVYHV   005500360039
BI00T32H2    @TIJ211C-I     202211247283-1556                CONNECTOR ASS'Y          CCN000033600000033600FN00000000020221101000033600NNE   20220913154154    3N0N  00000240000000755000001014032H2    HVYHV   005500360039
BI00T32H2    @TIJ211B-I     202211177287-6634                HOUSING FEMALE ASS'Y     CCN000002400000002400FN00000000020221101000002400NNE   20220913154154    3N0N  00000240000001088400001337032H2    HVYHV   005500360039
BI00B32J1    398099         202210247327-6840-3W             BATTERY FUSE             CCN000005976000005976FN00000000020221001000005976NNMD0420220913155321    4N0N  00000007200001140900001355932J1    UKYEL-BL005500360039
BI00B32J1    #398276        202210247158-3376-50             CONNECTOR WIRE SEAL      CCN000020000000020000FN00000000020221001000020000NNE   20220913121449    2C0C  00002000000000184000000240732J1    UKYEL-BL002700430014
BI00B32J1    #398276        202210247282-5545-10             CONNECTOR                CCN000000800000000800FN00000000020221001000000800NNE   20220913121449    2N0N  00000080000001293600001465332J1    UKYEL-BL005500360039
BI00B32J1    #398276        202210247282-6457-40             CONNECTOR                CCN000000800000000800FN00000000020221001000000800NNE   20220913121449    2N0N  00000080000001137000001421332J1    UKYEL-BL005600390040
BI00B32M1    #TCV2102       202209227287-7859                HYBRID FEMALE ASS'Y      CCN000039600000013200FN00000000020221001000013200NNMD0320220913121449    2N0N  00000120000000461600000671632M1    VNYEV   005500360039
BI00B32M1    #TCV2102       202209297287-7859                HYBRID FEMALE ASS'Y      CCN000026400000026400FN00000000020221001000026400NNMD0320220913121449    2N0N  00000120000000461600000671632M1    VNYEV   005500360039
BI00A32M3    SM22104EMW     202209157289-7213-30             HOUSING FEMALE ASS'Y     CCN000000240000000240FN00000000020221001000000240NNMM0020220913162428    4N0N  00000024000001352800001667832M3    SASAMI  005500360039
BI00B32M4    #QA-22-C082    202209227287-1915-40             CONNECTOR ASS'Y          PNN000002400000002400FN00000000020220901000002400NNE00020220913142716    2N0N  00000240000000666500000923132M4    SISAI   005500360039
BI00A32P8    TAPI-207C      202209167283-1156-30             CONNECTOR                CCN000000800000000800FN00000000020220901000000800NNE   20220913121449    4N0N  00000080000000877600001078032P8    YIYTM   005600390040
BI00A32P8    TAPI-207C      202209167289-5979-30             HOUSING FEMALE ASS'Y     CCN000000756000000756FN00000000020220901000000756NNE   20220913121449    1N0N  00000025200000854700001064732P8    YIYTM   005400370024
BI00A32P8    #TAPI-207C     202209167189-3038                HOUSING FEMALE           CCN000001600000001600FN00000000020220901000001600NNE   20220913121449    2F0F  00000160000000817600000850132P8    YIYTM   005500360039
BI00A32P8    #TAPI-207C     202209167173-3225-10             LIF LEVER                CCN000000800000000800FN00000000020220901000000800NNE   20220913121449    2F0F  00000080000000592000000712032P8    YIYTM   005500360039
BI00B32P8    TAPI-212A1     202210197116-2641                TERMINAL                 CCN000018000000018000FN00000000020221201000018000NNM   20220913152202    4P0P  00001800000001161000001344632P8    YIYTM   005100280028
BI00B32P8    #TAPI-212A1    202210197116-4021                TERMINAL                 CCN000013500000013500FN00000000020221201000013500NNM   20220913152200    2F0P  00001350000000534600000868832P8    YIYTM   006400630015
BI00B32P8    TAPI-2122      202211097158-3169-40             SEALING PLUG             CCN000160000000160000FN00000000020221201000160000NNM   20220913152324    1C0C  00004000000000156000000204132P8    YIYTM   004300260014
BI00B32P8    TAPI-2123      202211167158-3169-40             SEALING PLUG             CCN000120000000120000FN00000000020221201000120000NNM   20220913152324    1C0C  00004000000000156000000204132P8    YIYTM   004300260014
BI00B32P8    TAPI-2121      202211027158-3006-90             RUBBER STOPPER           CCN000120000000120000FN00000000020221201000120000NNM   20220913152324    1C0C  00002000000000330600000386032P8    YIYTM   002700430014
BI00B32P8    TAPI-2122      202211097158-3006-90             RUBBER STOPPER           CCN000380000000380000FN00000000020221201000380000NNM   20220913152324    1C0C  00002000000000330600000386032P8    YIYTM   002700430014
BI00B32P8    TAPI-2123      202211167158-3006-90             RUBBER STOPPER           CCN000360000000360000FN00000000020221201000360000NNM   20220913152324    1C0C  00002000000000330600000386032P8    YIYTM   002700430014
BI00B32P8    TAPI-2121      202211027158-3009-60             RUBBER STOPPER           CCN000060000000060000FN00000000020221201000060000NNM   20220913152324    1C0C  00002000000000338000000386232P8    YIYTM   002700430014
BI00B32P8    TAPI-2122      202211097158-3009-60             RUBBER STOPPER           CCN000280000000280000FN00000000020221201000280000NNM   20220913152324    1C0C  00002000000000338000000386232P8    YIYTM   002700430014
BI00B32P8    TAPI-2123      202211167158-3009-60             RUBBER STOPPER           CCN000300000000300000FN00000000020221201000300000NNM   20220913152324    1C0C  00002000000000338000000386232P8    YIYTM   002700430014
BI00B32P8    TAPI-2121      202211027158-3165-90             WIRE SEAL                CCN000080000000080000FN00000000020221201000080000NNM   20220913152324    1C0C  00004000000000124000000172432P8    YIYTM   004300270014
BI00B32P8    TAPI-2122      202211097158-3165-90             WIRE SEAL                CCN000200000000200000FN00000000020221201000200000NNM   20220913152324    1C0C  00004000000000124000000172432P8    YIYTM   004300270014
BI00B32P8    TAPI-2123      202211167158-3165-90             WIRE SEAL                CCN000160000000160000FN00000000020221201000160000NNM   20220913152324    1C0C  00004000000000124000000172432P8    YIYTM   004300270014
BI00B32P8    TAPI-2122      202211097158-3166-60             WIRE SEAL                CCN000160000000160000FN00000000020221201000160000NNM   20220913152324    1C0C  00004000000000104000000152432P8    YIYTM   002700430014
BI00B32P8    TAPI-2123      202211167158-3166-60             WIRE SEAL                CCN000160000000160000FN00000000020221201000160000NNM   20220913152324    1C0C  00004000000000104000000152432P8    YIYTM   002700430014
BI00B32P8    TAPI-2121      202211027158-3167-80             WIRE SEAL                CCN000080000000080000FN00000000020221201000080000NNM   20220913152324    1C0C  00002000000000048000000109032P8    YIYTM   002700430014
BI00B32P8    TAPI-2122      202211097158-3167-80             WIRE SEAL                CCN000160000000160000FN00000000020221201000160000NNM   20220913152324    1C0C  00002000000000048000000109032P8    YIYTM   002700430014
BI00B32P8    TAPI-2123      202211167158-3167-80             WIRE SEAL                CCN000140000000140000FN00000000020221201000140000NNM   20220913152324    1C0C  00002000000000048000000109032P8    YIYTM   002700430014
BI00B32P8    TAPI-2123      202211167158-3168-80             SEALED                   CCN000020000000020000FN00000000020221201000020000NNM   20220913152324    1C0C  00002000000000044000000092132P8    YIYTM   004300260014
BI00B32P8    TAPI-2121      202211027114-1470                TERMINAL                 CCN000049500000049500FN00000000020221201000049500NNM   20220913152324    4P0P  00001650000000544500000838732P8    YIYTM   006400630015
BI00B32P8    TAPI-2122      202211097114-1470                TERMINAL                 CCN000066000000066000FN00000000020221201000066000NNM   20220913152324    4P0P  00001650000000544500000838732P8    YIYTM   006400630015
BI00B32P8    TAPI-2123      202211167114-1470                TERMINAL                 CCN000066000000066000FN00000000020221201000066000NNM   20220913152324    4P0P  00001650000000544500000838732P8    YIYTM   006400630015
BI00B32P8    TAPI-2121      202211027114-4020                TERMINAL                 CCN000147000000147000FN00000000020221201000147000NNM   20220913152324    4P0P  00002100000000875700001169332P8    YIYTM   006400630015
BI00B32P8    TAPI-2122      202211097114-4020                TERMINAL                 CCN000063000000063000FN00000000020221201000063000NNM   20220913152324    4P0P  00002100000000875700001169332P8    YIYTM   006400630015
BI00B32P8    TAPI-2123      202211167114-4020                TERMINAL                 CCN000084000000084000FN00000000020221201000084000NNM   20220913152324    4P0P  00002100000000875700001169332P8    YIYTM   006400630015
BI00B32P8    TAPI-2122      202211097114-4021                TERMINAL                 CCN000015000000015000FN00000000020221201000015000NNM   20220913152324    4P0P  00001500000000670500000964132P8    YIYTM   006400630015
BI00B32P8    TAPI-2123      202211167114-4021                TERMINAL                 CCN000045000000045000FN00000000020221201000045000NNM   20220913152324    4P0P  00001500000000670500000964132P8    YIYTM   006400630015
BI00B32P8    TAPI-2121      202211027114-4100-02             TERMINAL                 CCN000036000000036000FN00000000020221201000036000NNM   20220913152324    4P0P  00001800000000748800001077432P8    YIYTM   006400630017
BI00B32P8    TAPI-2122      202211097114-4100-02             TERMINAL                 CCN000054000000054000FN00000000020221201000054000NNM   20220913152324    4P0P  00001800000000748800001077432P8    YIYTM   006400630017
BI00B32P8    TAPI-2123      202211167114-4100-02             TERMINAL                 CCN000054000000054000FN00000000020221201000054000NNM   20220913152324    4P0P  00001800000000748800001077432P8    YIYTM   006400630017
BI00B32P8    TAPI-2121      202211027114-4101-02             TERMINAL                 CCN000030000000030000FN00000000020221201000030000NNM   20220913152324    4P0P  00001500000000675000001003632P8    YIYTM   006400630017
BI00B32P8    TAPI-2122      202211097114-4101-02             TERMINAL                 CCN000015000000015000FN00000000020221201000015000NNM   20220913152324    4P0P  00001500000000675000001003632P8    YIYTM   006400630017
BI00B32P8    TAPI-2123      202211167114-4101-02             TERMINAL                 CCN000015000000015000FN00000000020221201000015000NNM   20220913152324    4P0P  00001500000000675000001003632P8    YIYTM   006400630017
BI00B32P8    TAPI-2122      202211097114-4110-02             TERMINAL                 CCN000045000000045000FN00000000020221201000045000NNM   20220913152324    4P0P  00001500000000901500001230132P8    YIYTM   006400630017
BI00B32P8    TAPI-2123      202211167114-4110-02             TERMINAL                 CCN000045000000045000FN00000000020221201000045000NNM   20220913152324    4P0P  00001500000000901500001230132P8    YIYTM   006400630017
BI00B32P8    TAPI-2121      202211027114-4111-02             TERMINAL                 CCN000012000000012000FN00000000020221201000012000NNM   20220913152324    4P0P  00001200000000758400001087032P8    YIYTM   006400630017
BI00B32P8    TAPI-2122      202211097114-4111-02             TERMINAL                 CCN000024000000024000FN00000000020221201000024000NNM   20220913152324    4P0P  00001200000000758400001087032P8    YIYTM   006400630017
BI00B32P8    TAPI-2123      202211167114-4111-02             TERMINAL                 CCN000024000000024000FN00000000020221201000024000NNM   20220913152324    4P0P  00001200000000758400001087032P8    YIYTM   006400630017
BI00B32P8    TAPI-2121      202211027114-4112-02             TERMINAL                 CCN000054000000054000FN00000000020221201000054000NNM   20220913152324    4P0P  00000900000000598500000927132P8    YIYTM   006400630017
BI00B32P8    TAPI-2122      202211097114-4112-02             TERMINAL                 CCN000027000000027000FN00000000020221201000027000NNM   20220913152324    4P0P  00000900000000598500000927132P8    YIYTM   006400630017
BI00B32P8    TAPI-2123      202211167114-4112-02             TERMINAL                 CCN000036000000036000FN00000000020221201000036000NNM   20220913152324    4P0P  00000900000000598500000927132P8    YIYTM   006400630017
BI00B32P8    TAPI-2121      202211027114-4415-02             TERMINAL MALE            CCN000054000000054000FN00000000020221201000054000NNM   20220913152324    4P0P  00002700000000429300000717532P8    YIYTM   006400630015
BI00B32P8    TAPI-2122      202211097114-4415-02             TERMINAL MALE            CCN000027000000027000FN00000000020221201000027000NNM   20220913152324    4P0P  00002700000000429300000717532P8    YIYTM   006400630015
BI00B32P8    TAPI-2123      202211167114-4415-02             TERMINAL MALE            CCN000027000000027000FN00000000020221201000027000NNM   20220913152324    4P0P  00002700000000429300000717532P8    YIYTM   006400630015
BI00B32P8    TAPI-2121      202211027114-4416-02             TERMINAL MALE            CCN000054000000054000FN00000000020221201000054000NNM   20220913152324    4P0P  00002700000000442800000731032P8    YIYTM   006400630015
BI00B32P8    TAPI-2122      202211097114-4416-02             TERMINAL MALE            CCN000054000000054000FN00000000020221201000054000NNM   20220913152324    4P0P  00002700000000442800000731032P8    YIYTM   006400630015
BI00B32P8    TAPI-2123      202211167114-4416-02             TERMINAL MALE            CCN000027000000027000FN00000000020221201000027000NNM   20220913152324    4P0P  00002700000000442800000731032P8    YIYTM   006400630015
BI00B32P8    TAPI-2121      202211027114-4624-02             TERMINAL                 CCN000024000000024000FN00000000020221201000024000NNM   20220913152324    4P0P  00002400000000895200001188832P8    YIYTM   006400630015
BI00B32P8    TAPI-2121      202211027114-4728-02             TERMINAL                 CCN000030000000030000FN00000000020221201000030000NNM   20220913152324    4P0P  00003000000000510000000804232P8    YIYTM   006400630015
BI00B32P8    TAPI-2122      202211097114-4728-02             TERMINAL                 CCN000030000000030000FN00000000020221201000030000NNM   20220913152324    4P0P  00003000000000510000000804232P8    YIYTM   006400630015
BI00B32P8    TAPI-2123      202211167114-4728-02             TERMINAL                 CCN000060000000060000FN00000000020221201000060000NNM   20220913152324    4P0P  00003000000000510000000804232P8    YIYTM   006400630015
BI00B32P8    TAPI-2122      202211097114-4729-02             TERMINAL                 CCN000060000000060000FN00000000020221201000060000NNM   20220913152324    4P0P  00003000000000516000000810232P8    YIYTM   006400630015
BI00B32P8    TAPI-2123      202211167114-4729-02             TERMINAL                 CCN000030000000030000FN00000000020221201000030000NNM   20220913152324    4P0P  00003000000000516000000810232P8    YIYTM   006400630015
BI00B32P8    TAPI-2122      202211097114-5746-02             TERMINAL                 CCN000021000000021000FN00000000020221201000021000NNM   20220913152324    4P0P  00002100000000695100000988732P8    YIYTM   006400630015
BI00B32P8    TAPI-2121      202211027114-5747-02             TERMINAL                 CCN000018000000018000FN00000000020221201000018000NNM   20220913152324    4P0P  00001800000000626400000920032P8    YIYTM   006400630015
BI00B32P8    TAPI-2121      202211027114-6041                TERMINAL                 CCN000003600000003600FN00000000020221201000003600NNM   20220913152324    4P0P  00000360000000580700000824232P8    YIYTM   006400630015
BI00B32P8    TAPI-2122      202211097114-6041                TERMINAL                 CCN000003600000003600FN00000000020221201000003600NNM   20220913152324    4P0P  00000360000000580700000824232P8    YIYTM   006400630015
BI00B32P8    TAPI-2123      202211167116-1257-02             TERMINAL                 CCN000024000000024000FN00000000020221201000024000NNM   20220913152324    4P0P  00002400000000518400000847132P8    YIYTM   006400630017
BI00B32P8    TAPI-2121      202211027116-1471                TERMINAL                 CCN000045000000045000FN00000000020221201000045000NNM   20220913152324    4P0P  00001500000000579000000867232P8    YIYTM   006400630015
BI00B32P8    TAPI-2122      202211097116-1471                TERMINAL                 CCN000120000000120000FN00000000020221201000120000NNM   20220913152324    4P0P  00001500000000579000000867232P8    YIYTM   006400630015
BI00B32P8    TAPI-2123      202211167116-1471                TERMINAL                 CCN000120000000120000FN00000000020221201000120000NNM   20220913152324    4P0P  00001500000000579000000867232P8    YIYTM   006400630015
BI00B32P8    TAPI-2122      202211097116-1473                TERMINAL                 CCN000013500000013500FN00000000020221201000013500NNM   20220913152324    4P0P  00001350000000523800000809032P8    YIYTM   006400630015
BI00B32P8    TAPI-2122      202211097116-1486-02             TERMINAL                 CCN000049500000049500FN00000000020221201000049500NNM   20220913152324    4P0P  00001650000000655100000940332P8    YIYTM   006400630015
BI00B32P8    TAPI-2123      202211167116-1486-02             TERMINAL                 CCN000115500000115500FN00000000020221201000115500NNM   20220913152324    4P0P  00001650000000655100000940332P8    YIYTM   006400630015
BI00B32P8    TAPI-2121      202211027116-1685-02             TERMINAL                 CCN000048000000048000FN00000000020221201000048000NNM   20220913152324    4P0P  00002400000000897600001065232P8    YIYTM   005100280028
BI00B32P8    TAPI-2122      202211097116-1685-02             TERMINAL                 CCN000024000000024000FN00000000020221201000024000NNM   20220913152324    4P0P  00002400000000897600001065232P8    YIYTM   005100280028
BI00B32P8    TAPI-2123      202211167116-1685-02             TERMINAL                 CCN000048000000048000FN00000000020221201000048000NNM   20220913152324    4P0P  00002400000000897600001065232P8    YIYTM   005100280028
BI00B32P8    TAPI-2123      202211167116-1686-02             TERMINAL                 CCN000021000000021000FN00000000020221201000021000NNM   20220913152324    4P0P  00002100000000869400001021632P8    YIYTM   005100280028
BI00B32P8    TAPI-2121      202211027116-1687-02             TERMINAL FEMALE          CCN000024000000024000FN00000000020221201000024000NNM   20220913152324    4P0P  00002400000000303200000909632P8    YIYTM   005100280028
BI00B32P8    TAPI-2122      202211097116-1687-02             TERMINAL FEMALE          CCN000024000000024000FN00000000020221201000024000NNM   20220913152324    4P0P  00002400000000303200000909632P8    YIYTM   005100280028
BI00B32P8    TAPI-2121      202211027116-2640                TERMINAL                 CCN000018000000018000FN00000000020221201000018000NNM   20220913152324    4P0P  00001800000001018800001196632P8    YIYTM   005100280028
BI00B32P8    TAPI-2122      202211097116-2640                TERMINAL                 CCN000054000000054000FN00000000020221201000054000NNM   20220913152324    4P0P  00001800000001018800001196632P8    YIYTM   005100280028
BI00B32P8    TAPI-2123      202211167116-2640                TERMINAL                 CCN000054000000054000FN00000000020221201000054000NNM   20220913152324    4P0P  00001800000001018800001196632P8    YIYTM   005100280028
BI00B32P8    TAPI-2121      202211027116-2641                TERMINAL                 CCN000018000000018000FN00000000020221201000018000NNM   20220913152324    4P0P  00001800000001161000001344632P8    YIYTM   005100280028
BI00B32P8    TAPI-2122      202211097116-2641                TERMINAL                 CCN000018000000018000FN00000000020221201000018000NNM   20220913152324    4P0P  00001800000001161000001344632P8    YIYTM   005100280028
BI00B32P8    TAPI-2123      202211167116-2641                TERMINAL                 CCN000018000000018000FN00000000020221201000018000NNM   20220913152324    4P0P  00001800000001161000001344632P8    YIYTM   005100280028
BI00B32P8    TAPI-2123      202211167116-2870                TERMINAL                 CCN000012000000012000FN00000000020221201000012000NNM   20220913152324    1P0P  00001200000000783600001020232P8    YIYTM   005100280028
BI00B32P8    TAPI-2122      202211097116-2871                TERMINAL                 CCN000012000000012000FN00000000020221201000012000NNM   20220913152324    1P0P  00001200000000842400001072632P8    YIYTM   005100280028
BI00B32P8    TAPI-2123      202211167116-2871                TERMINAL                 CCN000012000000012000FN00000000020221201000012000NNM   20220913152324    1P0P  00001200000000842400001072632P8    YIYTM   005100280028
BI00B32P8    TAPI-2121      202211027116-2891-02             TERMINAL                 CCN000015000000015000FN00000000020221201000015000NNM   20220913152324    4P0P  00001500000000982500001145932P8    YIYTM   005100280028
BI00B32P8    TAPI-2122      202211097116-2891-02             TERMINAL                 CCN000015000000015000FN00000000020221201000015000NNM   20220913152324    4P0P  00001500000000982500001145932P8    YIYTM   005100280028
BI00B32P8    TAPI-2123      202211167116-2891-02             TERMINAL                 CCN000015000000015000FN00000000020221201000015000NNM   20220913152324    4P0P  00001500000000982500001145932P8    YIYTM   005100280028
BI00B32P8    TAPI-2123      202211167116-2892-02             TERMINAL                 CCN000012000000012000FN00000000020221201000012000NNM   20220913152324    4P0P  00001200000000818400000981832P8    YIYTM   005100280028
BI00B32P8    TAPI-2121      202211027116-2893-02             TERMINAL                 CCN000012000000012000FN00000000020221201000012000NNM   20220913152324    4P0P  00001200000000895200001058632P8    YIYTM   005100280028
BI00B32P8    TAPI-2122      202211097116-2893-02             TERMINAL                 CCN000012000000012000FN00000000020221201000012000NNM   20220913152324    4P0P  00001200000000895200001058632P8    YIYTM   005100280028
BI00B32P8    TAPI-2123      202211167116-2893-02             TERMINAL                 CCN000012000000012000FN00000000020221201000012000NNM   20220913152324    4P0P  00001200000000895200001058632P8    YIYTM   005100280028
BI00B32P8    TAPI-2121      202211027116-2951                TERMINAL                 CCN000005400000005400FN00000000020221201000005400NNM   20220913152324    4P0P  00000540000000815900001110132P8    YIYTM   006400630015
BI00B32P8    TAPI-2122      202211097116-2951                TERMINAL                 CCN000005400000005400FN00000000020221201000005400NNM   20220913152324    4P0P  00000540000000815900001110132P8    YIYTM   006400630015
BI00B32P8    TAPI-2123      202211167116-2951                TERMINAL                 CCN000005400000005400FN00000000020221201000005400NNM   20220913152324    4P0P  00000540000000815900001110132P8    YIYTM   006400630015
BI00B32P8    TAPI-2122      202211097116-2951-02             TERMINAL                 CCN000005400000005400FN00000000020221201000005400NNM   20220913152324    4P0P  00000540000000817600001111832P8    YIYTM   006400630015
BI00B32P8    TAPI-2123      202211167116-2951-02             TERMINAL                 CCN000010800000010800FN00000000020221201000010800NNM   20220913152324    4P0P  00000540000000817600001111832P8    YIYTM   006400630015
BI00B32P8    TAPI-2121      202211027116-3153-02             TERMINAL FEMALE          CCN000200000000216000FN00000000020221201000216000NNM   20220913152324    4P0P  00002700000000459000000744232P8    YIYTM   006400630015
BI00B32P8    TAPI-2122      202211097116-3153-02             TERMINAL FEMALE          CCN000280000000297000FN00000000020221201000297000NNM   20220913152324    4P0P  00002700000000459000000744232P8    YIYTM   006400630015
BI00B32P8    TAPI-2123      202211167116-3153-02             TERMINAL FEMALE          CCN000280000000297000FN00000000020221201000297000NNM   20220913152324    4P0P  00002700000000459000000744232P8    YIYTM   006400630015
BI00B32P8    TAPI-2122      202211097116-4020                TERMINAL                 CCN000121500000121500FN00000000020221201000121500NNM   20220913152324    4P0P  00001350000000513000000798232P8    YIYTM   006400630015
BI00B32P8    TAPI-2123      202211167116-4020                TERMINAL                 CCN000135000000135000FN00000000020221201000135000NNM   20220913152324    4P0P  00001350000000513000000798232P8    YIYTM   006400630015
BI00B32P8    TAPI-2123      202211167116-4022                TERMINAL                 CCN000013500000013500FN00000000020221201000013500NNM   20220913152324    4P0P  00001350000000618300000903532P8    YIYTM   006400630015
BI00B32P8    TAPI-2121      202211027116-4025                TERMINAL                 CCN000016000000016000FN00000000020221201000016000NNM   20220913152324    4P0P  00001600000000644800000975132P8    YIYTM   006400630017
BI00B32P8    TAPI-2122      202211097116-4025                TERMINAL                 CCN000080000000080000FN00000000020221201000080000NNM   20220913152324    4P0P  00001600000000644800000975132P8    YIYTM   006400630017
BI00B32P8    TAPI-2123      202211167116-4025                TERMINAL                 CCN000064000000064000FN00000000020221201000064000NNM   20220913152324    4P0P  00001600000000644800000975132P8    YIYTM   006400630017
BI00B32P8    TAPI-2122      202211097116-4026                TERMINAL                 CCN000032000000032000FN00000000020221201000032000NNM   20220913152324    4P0P  00001600000000664000000994332P8    YIYTM   006400630017
BI00B32P8    TAPI-2123      202211167116-4026                TERMINAL                 CCN000032000000032000FN00000000020221201000032000NNM   20220913152324    4P0P  00001600000000664000000994332P8    YIYTM   006400630017
BI00B32P8    TAPI-2122      202211097116-4028-08             TERMINAL FEMALE          CCN000176000000176000FN00000000020221201000176000NNM   20220913152324    4P0P  00001600000000652800000981532P8    YIYTM   006400630017
BI00B32P8    TAPI-2123      202211167116-4028-08             TERMINAL FEMALE          CCN000192000000192000FN00000000020221201000192000NNM   20220913152324    4P0P  00001600000000652800000981532P8    YIYTM   006400630017
BI00B32P8    TAPI-2122      202211097116-4029-08             TERMINAL FEMALE          CCN000016000000016000FN00000000020221201000016000NNM   20220913152324    4P0P  00001600000000670400000999132P8    YIYTM   006400630017
BI00B32P8    TAPI-2121      202211027116-4032                TERMINAL                 CCN000018000000018000FN00000000020221201000018000NNM   20220913152324    4P0P  00000600000000532800000818032P8    YIYTM   006400630015
BI00B32P8    TAPI-2122      202211097116-4032                TERMINAL                 CCN000018000000018000FN00000000020221201000018000NNM   20220913152324    4P0P  00000600000000532800000818032P8    YIYTM   006400630015
BI00B32P8    TAPI-2123      202211167116-4032                TERMINAL                 CCN000018000000018000FN00000000020221201000018000NNM   20220913152324    4P0P  00000600000000532800000818032P8    YIYTM   006400630015
BI00B32P8    TAPI-2122      202211097116-4037                TERMINAL                 CCN000018000000018000FN00000000020221201000018000NNM   20220913152324    4P0P  00000600000000600000000894232P8    YIYTM   006400630015
BI00B32P8    TAPI-2123      202211167116-4037                TERMINAL                 CCN000024000000024000FN00000000020221201000024000NNM   20220913152324    4P0P  00000600000000600000000894232P8    YIYTM   006400630015
BI00B32P8    TAPI-2121      202211027116-4101-02             TERMINAL                 CCN000024000000024000FN00000000020221201000024000NNM   20220913152324    4P0P  00001200000000582000000876232P8    YIYTM   006400630015
BI00B32P8    TAPI-2122      202211097116-4101-02             TERMINAL                 CCN000012000000012000FN00000000020221201000012000NNM   20220913152324    4P0P  00001200000000582000000876232P8    YIYTM   006400630015
BI00B32P8    TAPI-2121      202211027116-4110-02             TERMINAL                 CCN000009000000009000FN00000000020221201000009000NNM   20220913152324    4P0P  00000900000000594000000882232P8    YIYTM   006400630015
BI00B32P8    TAPI-2122      202211097116-4110-02             TERMINAL                 CCN000036000000036000FN00000000020221201000036000NNM   20220913152324    4P0P  00000900000000594000000882232P8    YIYTM   006400630015
BI00B32P8    TAPI-2123      202211167116-4110-02             TERMINAL                 CCN000036000000036000FN00000000020221201000036000NNM   20220913152324    4P0P  00000900000000594000000882232P8    YIYTM   006400630015
BI00B32P8    TAPI-2121      202211027116-4111-02             TERMINAL                 CCN000015000000015000FN00000000020221201000015000NNM   20220913152324    4P0P  00000750000000529500000817732P8    YIYTM   006400630015
BI00B32P8    TAPI-2122      202211097116-4111-02             TERMINAL                 CCN000022500000022500FN00000000020221201000022500NNM   20220913152324    4P0P  00000750000000529500000817732P8    YIYTM   006400630015
BI00B32P8    TAPI-2123      202211167116-4111-02             TERMINAL                 CCN000022500000022500FN00000000020221201000022500NNM   20220913152324    4P0P  00000750000000529500000817732P8    YIYTM   006400630015
BI00B32P8    TAPI-2121      202211027116-4112-02             TERMINAL                 CCN000090000000090000FN00000000020221201000090000NNM   20220913152324    4P0P  00000600000000450000000738232P8    YIYTM   006400630015
BI00B32P8    TAPI-2122      202211097116-4112-02             TERMINAL                 CCN000102000000102000FN00000000020221201000102000NNM   20220913152324    4P0P  00000600000000450000000738232P8    YIYTM   006400630015
BI00B32P8    TAPI-2123      202211167116-4112-02             TERMINAL                 CCN000108000000108000FN00000000020221201000108000NNM   20220913152324    4P0P  00000600000000450000000738232P8    YIYTM   006400630015
BI00B32P8    TAPI-2122      202211097116-4116-02             TERMINAL                 CCN000006900000006900FN00000000020221201000006900NNM   20220913152324    4P0P  00000690000000517500000805732P8    YIYTM   006400630015
BI00B32P8    TAPI-2123      202211167116-4116-02             TERMINAL                 CCN000006900000006900FN00000000020221201000006900NNM   20220913152324    4P0P  00000690000000517500000805732P8    YIYTM   006400630015
BI00B32P8    TAPI-2122      202211097116-4120-02             TERMINAL                 CCN000024000000024000FN00000000020221201000024000NNM   20220913152324    4P0P  00000600000000780000001073632P8    YIYTM   006400630015
BI00B32P8    TAPI-2123      202211167116-4120-02             TERMINAL                 CCN000030000000030000FN00000000020221201000030000NNM   20220913152324    4P0P  00000600000000780000001073632P8    YIYTM   006400630015
BI00B32P8    TAPI-2122      202211097116-4121-02             TERMINAL                 CCN000031500000031500FN00000000020221201000031500NNM   20220913152324    4P0P  00000450000000618800000912432P8    YIYTM   006400630015
BI00B32P8    TAPI-2123      202211167116-4121-02             TERMINAL                 CCN000067500000067500FN00000000020221201000067500NNM   20220913152324    4P0P  00000450000000618800000912432P8    YIYTM   006400630015
BI00B32P8    TAPI-2121      202211027116-4122-02             TERMINAL                 CCN000076500000076500FN00000000020221201000076500NNM   20220913152324    4P0P  00000450000000656600000950232P8    YIYTM   006400630015
BI00B32P8    TAPI-2122      202211097116-4122-02             TERMINAL                 CCN000175500000175500FN00000000020221201000175500NNM   20220913152324    4P0P  00000450000000656600000950232P8    YIYTM   006400630015
BI00B32P8    TAPI-2123      202211167116-4122-02             TERMINAL                 CCN000175500000175500FN00000000020221201000175500NNM   20220913152324    4P0P  00000450000000656600000950232P8    YIYTM   006400630015
BI00B32P8    TAPI-2123      202211167116-4124-02             TERMINAL                 CCN000003000000003000FN00000000020221201000003000NNM   20220913152324    4P0P  00000300000000459900000753532P8    YIYTM   006400630015
BI00B32P8    TAPI-2121      202211027116-4231-02             TERMINAL                 CCN000130000000130000FN00000000020221201000130000NNM   20220913152324    4P0P  00002600000000683800001012532P8    YIYTM   006400630017
BI00B32P8    TAPI-2122      202211097116-4231-02             TERMINAL                 CCN000130000000130000FN00000000020221201000130000NNM   20220913152324    4P0P  00002600000000683800001012532P8    YIYTM   006400630017
BI00B32P8    TAPI-2123      202211167116-4231-02             TERMINAL                 CCN000130000000130000FN00000000020221201000130000NNM   20220913152324    4P0P  00002600000000683800001012532P8    YIYTM   006400630017
BI00B32P8    TAPI-2122      202211097116-4415-02             TERMINAL                 CCN000190000000190000FN00000000020221201000190000NNM   20220913152324    4P0P  00003800000000596600000925732P8    YIYTM   006400630017
BI00B32P8    TAPI-2123      202211167116-4415-02             TERMINAL                 CCN000190000000190000FN00000000020221201000190000NNM   20220913152324    4P0P  00003800000000596600000925732P8    YIYTM   006400630017
BI00B32P8    TAPI-2121      202211027116-4416-02             TERMINAL                 CCN000160000000160000FN00000000020221201000160000NNM   20220913152324    4P0P  00003200000000518400000847132P8    YIYTM   006400630017
BI00B32P8    TAPI-2122      202211097116-4416-02             TERMINAL                 CCN000224000000224000FN00000000020221201000224000NNM   20220913152324    4P0P  00003200000000518400000847132P8    YIYTM   006400630017
BI00B32P8    TAPI-2123      202211167116-4416-02             TERMINAL                 CCN000224000000224000FN00000000020221201000224000NNM   20220913152324    4P0P  00003200000000518400000847132P8    YIYTM   006400630017
BI00B32P8    TAPI-2122      202211097116-4780-02             TERMINAL FEMALE          CCN000150000000150000FN00000000020221201000150000NNM   20220913152324    4P0P  00001500000000691500000985732P8    YIYTM   006400630015
BI00B32P8    TAPI-2123      202211167116-4780-02             TERMINAL FEMALE          CCN000165000000165000FN00000000020221201000165000NNM   20220913152324    4P0P  00001500000000691500000985732P8    YIYTM   006400630015
BI00B32P8    TAPI-2121      202211027116-5035-02             TERMINAL                 CCN000015000000015000FN00000000020221201000015000NNM   20220913152324    4P0P  00001500000000543000000828232P8    YIYTM   006400630015
BI00B32P8    TAPI-2121      202211027116-5036-02             TERMINAL                 CCN000013500000013500FN00000000020221201000013500NNM   20220913152324    4P0P  00001350000000618300001042232P8    YIYTM   006400630015
BI00B32P8    TAPI-2123      202211167116-5036-02             TERMINAL                 CCN000013500000013500FN00000000020221201000013500NNM   20220913152324    4P0P  00001350000000618300001042232P8    YIYTM   006400630015
BI00B32P8    TAPI-2121      202211027116-5041-02             TERMINAL                 CCN000030000000030000FN00000000020221201000030000NNM   20220913152324    4P0P  00001500000000583500000868732P8    YIYTM   006400630015
BI00B32P8    TAPI-2122      202211097116-5041-02             TERMINAL                 CCN000015000000015000FN00000000020221201000015000NNM   20220913152324    4P0P  00001500000000583500000868732P8    YIYTM   006400630015
BI00B32P8    TAPI-2123      202211167116-5041-02             TERMINAL                 CCN000030000000030000FN00000000020221201000030000NNM   20220913152324    4P0P  00001500000000583500000868732P8    YIYTM   006400630015
BI00B32P8    TAPI-2121      202211027116-5042-02             TERMINAL                 CCN000013500000013500FN00000000020221201000013500NNM   20220913152324    4P0P  00001350000000560300000845532P8    YIYTM   006400630015
BI00B32P8    TAPI-2122      202211097116-5042-02             TERMINAL                 CCN000040500000040500FN00000000020221201000040500NNM   20220913152324    4P0P  00001350000000560300000845532P8    YIYTM   006400630015
BI00B32P8    TAPI-2123      202211167116-5042-02             TERMINAL                 CCN000040500000040500FN00000000020221201000040500NNM   20220913152324    4P0P  00001350000000560300000845532P8    YIYTM   006400630015
BI00B32P8    TAPI-2122      202211097116-5043-02             TERMINAL FEMALE          CCN000024000000024000FN00000000020221201000024000NNM   20220913152324    4P0P  00001200000000559200000844432P8    YIYTM   006400630015
BI00B32P8    TAPI-2123      202211167116-5043-02             TERMINAL FEMALE          CCN000036000000036000FN00000000020221201000036000NNM   20220913152324    4P0P  00001200000000559200000844432P8    YIYTM   006400630015
BI00B32P8    TAPI-2121      202211027116-5044-02             TERMINAL                 CCN000080000000080000FN00000000020221201000080000NNM   20220913152324    4P0P  00001600000000641600000986332P8    YIYTM   006400630017
BI00B32P8    TAPI-2122      202211097116-5044-02             TERMINAL                 CCN000432000000432000FN00000000020221201000432000NNM   20220913152324    4P0P  00001600000000641600000986332P8    YIYTM   006400630017
BI00B32P8    TAPI-2123      202211167116-5044-02             TERMINAL                 CCN000448000000448000FN00000000020221201000448000NNM   20220913152324    4P0P  00001600000000641600000986332P8    YIYTM   006400630017
BI00B32P8    TAPI-2122      202211097116-5045-02             TERMINAL                 CCN000080000000080000FN00000000020221201000080000NNM   20220913152324    4P0P  00001600000000678400001007132P8    YIYTM   006400630017
BI00B32P8    TAPI-2123      202211167116-5045-02             TERMINAL                 CCN000080000000080000FN00000000020221201000080000NNM   20220913152324    4P0P  00001600000000678400001007132P8    YIYTM   006400630017
BI00B32P8    TAPI-2121      202211027116-5046-02             TERMINAL                 CCN000024000000024000FN00000000020221201000024000NNM   20220913152324    4P0P  00001200000000544800000873532P8    YIYTM   006400630017
BI00B32P8    TAPI-2122      202211097116-5046-02             TERMINAL                 CCN000084000000084000FN00000000020221201000084000NNM   20220913152324    4P0P  00001200000000544800000873532P8    YIYTM   006400630017
BI00B32P8    TAPI-2123      202211167116-5046-02             TERMINAL                 CCN000084000000084000FN00000000020221201000084000NNM   20220913152324    4P0P  00001200000000544800000873532P8    YIYTM   006400630017
BI00B32P8    TAPI-2121      202211027116-5097-02             TERMINAL                 CCN000067500000067500FN00000000020221201000067500NNM   20220913152324    4P0P  00002250000000531000000816232P8    YIYTM   006400630015
BI00B32P8    TAPI-2122      202211097116-5097-02             TERMINAL                 CCN000045000000045000FN00000000020221201000045000NNM   20220913152324    4P0P  00002250000000531000000816232P8    YIYTM   006400630015
BI00B32P8    TAPI-2123      202211167116-5097-02             TERMINAL                 CCN000067500000067500FN00000000020221201000067500NNM   20220913152324    4P0P  00002250000000531000000816232P8    YIYTM   006400630015
BI00B32P8    TAPI-2121      202211027116-5750-02             TERMINAL                 CCN000015000000015000FN00000000020221201000015000NNM   20220913152324    4P0P  00001500000000457500000742732P8    YIYTM   006400630015
BI00B32P8    TAPI-2122      202211097116-5750-02             TERMINAL                 CCN000045000000045000FN00000000020221201000045000NNM   20220913152324    4P0P  00001500000000457500000742732P8    YIYTM   006400630015
BI00B32P8    TAPI-2123      202211167116-5750-02             TERMINAL                 CCN000045000000045000FN00000000020221201000045000NNM   20220913152324    4P0P  00001500000000457500000742732P8    YIYTM   006400630015
BI00B32P8    TAPI-2121      202211027116-5751-02             TERMINAL                 CCN000012000000012000FN00000000020221201000012000NNM   20220913152324    4P0P  00001200000000379200000664432P8    YIYTM   006400630015
BI00B32P8    TAPI-2122      202211097116-5751-02             TERMINAL                 CCN000036000000036000FN00000000020221201000036000NNM   20220913152324    4P0P  00001200000000379200000664432P8    YIYTM   006400630015
BI00B32P8    TAPI-2123      202211167116-5751-02             TERMINAL                 CCN000036000000036000FN00000000020221201000036000NNM   20220913152324    4P0P  00001200000000379200000664432P8    YIYTM   006400630015
BI00B32P8    TAPI-2122      202211097116-5752-02             TERMINAL                 CCN000021000000021000FN00000000020221201000021000NNM   20220913152324    4P0P  00002100000000571200000856432P8    YIYTM   006400630015
BI00B32P8    TAPI-2123      202211167116-5752-02             TERMINAL                 CCN000042000000042000FN00000000020221201000042000NNM   20220913152324    4P0P  00002100000000571200000856432P8    YIYTM   006400630015
BI00B32P8    TAPI-2121      202211027116-6041                TERMINAL                 CCN000004500000004500FN00000000020221201000004500NNM   20220913152324    4P0P  00000450000000716000001009632P8    YIYTM   006400630015
BI00B32P8    TAPI-2122      202211097116-6041                TERMINAL                 CCN000004500000004500FN00000000020221201000004500NNM   20220913152324    4P0P  00000450000000716000001009632P8    YIYTM   006400630015
BI00B32P8    TAPI-2123      202211167116-6041                TERMINAL                 CCN000009000000009000FN00000000020221201000009000NNM   20220913152324    4P0P  00000450000000716000001009632P8    YIYTM   006400630015
BI00B32P8    TAPI-2121      202211027116-6042                TERMINAL                 CCN000006000000006000FN00000000020221201000006000NNM   20220913152324    4P0P  00000300000000523800000856132P8    YIYTM   006400630015
BI00B32P8    TAPI-2122      202211097116-6042                TERMINAL                 CCN000003000000003000FN00000000020221201000003000NNM   20220913152324    4P0P  00000300000000523800000856132P8    YIYTM   006400630015
BI00B32P8    TAPI-2123      202211167116-6042                TERMINAL                 CCN000006000000006000FN00000000020221201000006000NNM   20220913152324    4P0P  00000300000000523800000856132P8    YIYTM   006400630015
BI00B32P8    TAPI-2122      202211097126-8826-02             TERMINAL                 CCN000009000000009000FN00000000020221201000009000NNM   20220913152324    1P0P  00000900000000788400001073632P8    YIYTM   006400630015
BI00B32P8    TAPI-2123      202211167126-8826-02             TERMINAL                 CCN000036000000036000FN00000000020221201000036000NNM   20220913152324    1P0P  00000900000000788400001073632P8    YIYTM   006400630015
BI00B32P8    TAPI-2121      202211027126-8850-02             TERMINAL                 CCN000009000000009000FN00000000020221201000009000NNM   20220913152324    1P0P  00000900000000672300000957532P8    YIYTM   006400630015
BI00B32P8    TAPI-2122      202211097126-8850-02             TERMINAL                 CCN000009000000009000FN00000000020221201000009000NNM   20220913152324    1P0P  00000900000000672300000957532P8    YIYTM   006400630015
BI00B32P8    TAPI-2123      202211167126-8850-02             TERMINAL                 CCN000009000000009000FN00000000020221201000009000NNM   20220913152324    1P0P  00000900000000672300000957532P8    YIYTM   006400630015
BI00B32P8    TAPI-2122      202211097126-8851-02             TERMINAL                 CCN000009000000009000FN00000000020221201000009000NNM   20220913152324    1P0P  00000900000000739800001025032P8    YIYTM   006400630015
BI00B32P8    TAPI-2123      202211167126-8851-02             TERMINAL                 CCN000009000000009000FN00000000020221201000009000NNM   20220913152324    1P0P  00000900000000739800001025032P8    YIYTM   006400630015
BI00B32P8    TAPI-2123      202211167126-8852-02             TERMINAL                 CCN000007500000007500FN00000000020221201000007500NNM   20220913152324    1P0P  00000750000000648000000933232P8    YIYTM   006400630015
BI00B32P8    TAPI-2121      202211027126-8853-02             TERMINAL                 CCN000015000000015000FN00000000020221201000015000NNM   20220913152324    4P0P  00000750000000562500000847732P8    YIYTM   006400630015
BI00B32P8    TAPI-2122      202211097126-8853-02             TERMINAL                 CCN000045000000045000FN00000000020221201000045000NNM   20220913152324    4P0P  00000750000000562500000847732P8    YIYTM   006400630015
BI00B32P8    TAPI-2123      202211167126-8853-02             TERMINAL                 CCN000052500000052500FN00000000020221201000052500NNM   20220913152324    4P0P  00000750000000562500000847732P8    YIYTM   006400630015
BI00B32P8    TAPI-2122      202211097126-8854-02             TERMINAL                 CCN000022500000022500FN00000000020221201000022500NNM   20220913152324    4P0P  00000750000000604500000889732P8    YIYTM   006400630015
BI00B32P8    TAPI-2123      202211167126-8854-02             TERMINAL                 CCN000037500000037500FN00000000020221201000037500NNM   20220913152324    4P0P  00000750000000604500000889732P8    YIYTM   006400630015
BI00B32P8    TAPI-2122      202211097126-8855-02             TERMINAL                 CCN000006000000006000FN00000000020221201000006000NNM   20220913152324    4P0P  00000600000000510600000795832P8    YIYTM   006400630015
BI00B32P8    TAPI-2123      202211167126-8855-02             TERMINAL                 CCN000012000000012000FN00000000020221201000012000NNM   20220913152324    4P0P  00000600000000510600000795832P8    YIYTM   006400630015
BI00B32P8    TAPI-2123      202211167195-1464-02             TERMINAL MALE            CCN000025500000025500FN00000000020221201000025500NNM   20220913152324    4P0P  00002550000000420800000706032P8    YIYTM   006400630015
BI00B32P8    TAPI-2122      202211097196-0510-02             TERMINAL                 CCN000024000000024000FN00000000020221201000024000NNM   20220913152324    4P0P  00002400000000871200001034632P8    YIYTM   002800510028
BI00B32P8    TAPI-2123      202211167196-1102-02             TERMINAL                 CCN000045000000045000FN00000000020221201000045000NNM   20220913152324    4P0P  00002250000000405000000690232P8    YIYTM   006400630015
BI00B32P8    TAPI-2122      202211097196-1103-02             TERMINAL                 CCN000450000000450000FN00000000020221201000450000NNM   20220913152324    4P0P  00002250000000429800000715032P8    YIYTM   006400630015
BI00B32P8    TAPI-2123      202211167196-1103-02             TERMINAL                 CCN000472500000472500FN00000000020221201000472500NNM   20220913152324    4P0P  00002250000000429800000715032P8    YIYTM   006400630015
BI00B32P8    TAPI-2122      202211097196-1104-02             TERMINAL                 CCN000112500000112500FN00000000020221201000112500NNM   20220913152324    4P0P  00002250000000441000000726232P8    YIYTM   006400630015
BI00B32P8    TAPI-2123      202211167196-1104-02             TERMINAL                 CCN000112500000112500FN00000000020221201000112500NNM   20220913152324    4P0P  00002250000000441000000726232P8    YIYTM   006400630015
BI00B32P8    TAPI-2121      202211027196-1460-02             TERMINAL FEMALE          CCN000028500000028500FN00000000020221201000028500NNM   20220913152324    4P0P  00002850000000444600000729832P8    YIYTM   006400630015
BI00B32P8    TAPI-2122      202211097196-1460-02             TERMINAL FEMALE          CCN000228000000228000FN00000000020221201000228000NNM   20220913152324    4P0P  00002850000000444600000729832P8    YIYTM   006400630015
BI00B32P8    TAPI-2123      202211167196-1460-02             TERMINAL FEMALE          CCN000228000000228000FN00000000020221201000228000NNM   20220913152324    4P0P  00002850000000444600000729832P8    YIYTM   006400630015
BI00B32P8    TAPI-2122      202211097196-1461-02             TERMINAL FEMALE          CCN000024000000024000FN00000000020221201000024000NNM   20220913152324    4P0P  00002400000000386400000671632P8    YIYTM   006400630015
BI00B32P8    TAPI-2123      202211167196-1461-02             TERMINAL FEMALE          CCN000120000000120000FN00000000020221201000120000NNM   20220913152324    4P0P  00002400000000386400000671632P8    YIYTM   006400630015
BI00B32P8    TAPI-2122      202211097196-1466-02             TERMINAL MALE            CCN000028500000028500FN00000000020221201000028500NNM   20220913152324    4P0P  00002850000000427500000712732P8    YIYTM   006400630015
BI00B32P8    TAPI-2121      202211027273-2982-0W             CASSETTE BRACKET         CCN000000600000000600FN00000000020221201000000600NNM   20220913152324    4N0N  00000060000000526000000726032P8    YIYTM   005500360039
BI00B32P8    TAPI-2122      202211097273-2982-0W             CASSETTE BRACKET         CCN000000600000000600FN00000000020221201000000600NNM   20220913152324    4N0N  00000060000000526000000726032P8    YIYTM   005500360039
BI00B32P8    TAPI-2123      202211167273-2982-0W             CASSETTE BRACKET         CCN000000600000000600FN00000000020221201000000600NNM   20220913152324    4N0N  00000060000000526000000726032P8    YIYTM   005500360039
BI00B32P8    TAPI-2123      202211167183-2417                CONNECTOR HOUSING        CCN000002400000002400FN00000000020221201000002400NNM   20220913152324    4F0F  00000240000001137400001297732P8    YIYTM   005500360039
BI00B32P8    TAPI-2122      202211097183-7665-30             HOUSING                  CCN000001200000001200FN00000000020221201000001200NNM   20220913152324    1F0F  00000120000001103300001247832P8    YIYTM   005500360039
BI00B32P8    TAPI-2123      202211167183-7665-30             HOUSING                  CCN000001200000001200FN00000000020221201000001200NNM   20220913152324    1F0F  00000120000001103300001247832P8    YIYTM   005500360039
BI00B32P8    TAPI-2121      202211027222-7484-30             CONNECTOR                CCN000001000000001000FN00000000020221201000001000NNM   20220913152324    4N0N  00000100000001030000001175732P8    YIYTM   005500360039
BI00B32P8    TAPI-2122      202211097222-7484-30             CONNECTOR                CCN000001000000001000FN00000000020221201000001000NNM   20220913152324    4N0N  00000100000001030000001175732P8    YIYTM   005500360039
BI00B32P8    TAPI-2123      202211167222-7484-30             CONNECTOR                CCN000001000000001000FN00000000020221201000001000NNM   20220913152324    4N0N  00000100000001030000001175732P8    YIYTM   005500360039
BI00B32P8    TAPI-2123      202211167222-7923-30             CONNECTOR                CCN000001800000001800FN00000000020221201000001800NNM   20220913152324    4N0N  00000060000000937000001067032P8    YIYTM   005500360039
BI00B32P8    TAPI-2122      202211097282-4577                HOUSING MALE ASS'Y       CCN000002400000002400FN00000000020221201000002400NNM   20220913152324    4N0N  00000240000000964800001174832P8    YIYTM   005500360039
BI00B32P8    TAPI-2123      202211167282-4577                HOUSING MALE ASS'Y       CCN000002400000002400FN00000000020221201000002400NNM   20220913152324    4N0N  00000240000000964800001174832P8    YIYTM   005500360039
BI00B32P8    TAPI-2123      202211167282-6568-40             CONNECTOR                CCN000001000000001000FN00000000020221201000001000NNM   20220913152324    4N0N  00000100000001206000001370732P8    YIYTM   005500360039
BI00B32P8    TAPI-2121      202211027282-9391                HOUSING MALE ASS'Y       CCN000001200000001200FN00000000020221201000001200NNM   20220913152324    4N0N  00000120000001017600001237632P8    YIYTM   005500360039
BI00B32P8    TAPI-2122      202211097282-9391                HOUSING MALE ASS'Y       CCN000001200000001200FN00000000020221201000001200NNM   20220913152324    4N0N  00000120000001017600001237632P8    YIYTM   005500360039
BI00B32P8    TAPI-2123      202211167282-9391                HOUSING MALE ASS'Y       CCN000001200000001200FN00000000020221201000001200NNM   20220913152324    4N0N  00000120000001017600001237632P8    YIYTM   005500360039
BI00B32P8    TAPI-2122      202211097283-1140                CONNECTOR HOUSING        CCN000001500000001500FN00000000020221201000001500NNM   20220913152324    4N0N  00000150000000669000000932732P8    YIYTM   005600390040
BI00B32P8    TAPI-2122      202211097283-1144                CONNECTOR                CCN000002400000002400FN00000000020221201000002400NNM   20220913152324    4N0N  00000240000000602200000866132P8    YIYTM   005500360039
BI00B32P8    TAPI-2123      202211167283-1144                CONNECTOR                CCN000002400000002400FN00000000020221201000002400NNM   20220913152324    4N0N  00000240000000602200000866132P8    YIYTM   005500360039
BI00B32P8    TAPI-2121      202211027283-1156                CONNECTOR                CCN000000800000000800FN00000000020221201000000800NNM   20220913152324    4N0N  00000080000000877600001078032P8    YIYTM   005600390040
BI00B32P8    TAPI-2123      202211167283-1156                CONNECTOR                CCN000000800000000800FN00000000020221201000000800NNM   20220913152324    4N0N  00000080000000877600001078032P8    YIYTM   005600390040
BI00B32P8    TAPI-2121      202211027283-1222                CONNECTOR                CCN000001200000001200FN00000000020221201000001200NNM   20220913152324    4N0N  00000120000000852000001011032P8    YIYTM   005500360039
BI00B32P8    TAPI-2123      202211167283-1222-40             CONNECTOR HOUSING        CCN000001200000001200FN00000000020221201000001200NNM   20220913152324    4N0N  00000120000000858000001032732P8    YIYTM   005500360039
BI00B32P8    TAPI-2122      202211097283-1289-40             CONNECTOR HOUSING        CCN000000600000000600FN00000000020221201000000600NNM   20220913152324    1N0N  00000060000000679800000824832P8    YIYTM   005400370024
BI00B32P8    TAPI-2123      202211167283-1289-40             CONNECTOR HOUSING        CCN000005400000005400FN00000000020221201000005400NNM   20220913152324    1N0N  00000060000000679800000824832P8    YIYTM   005400370024
BI00B32P8    TAPI-2122      202211097283-1927-30             CONNECTOR                CCN000002000000002000FN00000000020221201000002000NNM   20220913152324    4N0N  00000200000001190000001368032P8    YIYTM   005500360039
BI00B32P8    TAPI-2123      202211167283-1927-30             CONNECTOR                CCN000002000000002000FN00000000020221201000002000NNM   20220913152324    4N0N  00000200000001190000001368032P8    YIYTM   005500360039
BI00B32P8    TAPI-2122      202211097283-1968-30             CONNECTOR                CCN000000900000000900FN00000000020221201000000900NNM   20220913152324    1N0N  00000090000001140000001318332P8    YIYTM   005600390040
BI00B32P8    TAPI-2123      202211167283-1968-30             CONNECTOR                CCN000001800000001800FN00000000020221201000001800NNM   20220913152324    1N0N  00000090000001140000001318332P8    YIYTM   005600390040
BI00B32P8    TAPI-2122      202211097283-4577                CONNECTOR HOUSING        CCN000004800000004800FN00000000020221201000004800NNM   20220913152324    4N0N  00000480000000916800001136832P8    YIYTM   005500360039
BI00B32P8    TAPI-2123      202211167283-4577                CONNECTOR HOUSING        CCN000004800000004800FN00000000020221201000004800NNM   20220913152324    4N0N  00000480000000916800001136832P8    YIYTM   005500360039
BI00B32P8    TAPI-2122      202211097283-4855                CONNECTOR HOUSING        CCN000007200000007200FN00000000020221201000007200NNM   20220913152324    4N0N  00000240000001188400001400032P8    YIYTM   005500360039
BI00B32P8    TAPI-2123      202211167283-4855                CONNECTOR HOUSING        CCN000007200000007200FN00000000020221201000007200NNM   20220913152324    4N0N  00000240000001188400001400032P8    YIYTM   005500360039
BI00B32P8    TAPI-2122      202211097283-5843                CONNECTOR                CCN000001500000001500FN00000000020221201000001500NNM   20220913152324    1N0N  00000150000000889000001132032P8    YIYTM   005600390040
BI00B32P8    TAPI-2122      202211097283-5845                CONNECTOR HOUSING        CCN000006000000006000FN00000000020221201000006000NNM   20220913152324    1N0N  00000600000000444000000606332P8    YIYTM   005400370024
BI00B32P8    TAPI-2121      202211027283-6388-40             CONNECTOR                CCN000002000000002000FN00000000020221201000002000NNM   20220913152324    4N0N  00000200000001029000001173532P8    YIYTM   005500360039
BI00B32P8    TAPI-2122      202211097283-6388-40             CONNECTOR                CCN000004000000004000FN00000000020221201000004000NNM   20220913152324    4N0N  00000200000001029000001173532P8    YIYTM   005500360039
BI00B32P8    TAPI-2123      202211167283-6388-40             CONNECTOR                CCN000002000000002000FN00000000020221201000002000NNM   20220913152324    4N0N  00000200000001029000001173532P8    YIYTM   005500360039
BI00B32P8    TAPI-2122      202211097283-7023-40             CONNECTOR                CCN000002500000002500FN00000000020221201000002500NNM   20220913152324    4N0N  00000250000001360000001510032P8    YIYTM   005500360039
BI00B32P8    TAPI-2123      202211167283-7046-30             CONNECTOR                CCN000002000000002000FN00000000020221201000002000NNM   20220913152324    4N0N  00000100000001500000001630032P8    YIYTM   005600390040
BI00B32P8    TAPI-2121      202211027283-8630                CONNECTOR ASS'Y          CCN000006000000006000FN00000000020221201000006000NNM   20220913152324    4N0N  00000600000000540000000701332P8    YIYTM   005400370024
BI00B32P8    TAPI-2123      202211167283-8630                CONNECTOR ASS'Y          CCN000006000000006000FN00000000020221201000006000NNM   20220913152324    4N0N  00000600000000540000000701332P8    YIYTM   005400370024
BI00B32P8    TAPI-2122      202211097286-4097                CONNECTOR MALE ASS'Y     CCN000001600000001600FN00000000020221201000001600NNM   20220913152324    1N0N  00000160000000768000000978032P8    YIYTM   005500360039
BI00B32P8    TAPI-2123      202211167286-4097                CONNECTOR MALE ASS'Y     CCN000001600000001600FN00000000020221201000001600NNM   20220913152324    1N0N  00000160000000768000000978032P8    YIYTM   005500360039
BI00B32P8    TAPI-2122      202211097287-1917                CONNECTOR FEMALE         CCN000002400000002400FN00000000020221201000002400NNM   20220913152324    4N0N  00000240000001060800001312532P8    YIYTM   005500360039
BI00B32P8    TAPI-2122      202211097287-7599-40             HOUSING FEMALE ASS'Y     CCN000006400000006400FN00000000020221201000006400NNM   20220913152324    4N0N  00000160000001233600001445632P8    YIYTM   005500360039
BI00B32P8    TAPI-2123      202211167287-7599-40             HOUSING FEMALE ASS'Y     CCN000009600000009600FN00000000020221201000009600NNM   20220913152324    4N0N  00000160000001233600001445632P8    YIYTM   005500360039
BI00B32P8    TAPI-2122      202211097287-9323                UNSEALED HOUSING SUB     CCN000002400000002400FN00000000020221201000002400NNM   20220913152324    1N0N  00000240000000537600000690032P8    YIYTM   005600390023
BI00B32P8    TAPI-2123      202211167287-9323-30             UNSEALED HOUSING SUB     CCN000002400000002400FN00000000020221201000002400NNM   20220913152324    1N0N  00000240000000537600000690032P8    YIYTM   005600390023
BI00B32P8    TAPI-2121      202211027288-3206                HOUSING MALE ASS'Y       CCN000001020000001020FN00000000020221201000001020NNM   20220913152324    1N0N  00000102000000387600000787632P8    YIYTM   005500360039
BI00B32P8    TAPI-2122      202211097288-3206                HOUSING MALE ASS'Y       CCN000001020000001020FN00000000020221201000001020NNM   20220913152324    1N0N  00000102000000387600000787632P8    YIYTM   005500360039
BI00B32P8    TAPI-2121      202211027288-3329-30             HOUSING MALE             CCN000001500000001500FN00000000020221201000001500NNM   20220913152324    4N0N  00000150000000866100001011132P8    YIYTM   005400370024
BI00B32P8    TAPI-2122      202211097288-3329-30             HOUSING MALE             CCN000004500000004500FN00000000020221201000004500NNM   20220913152324    4N0N  00000150000000866100001011132P8    YIYTM   005400370024
BI00B32P8    TAPI-2123      202211167288-3329-30             HOUSING MALE             CCN000003000000003000FN00000000020221201000003000NNM   20220913152324    4N0N  00000150000000866100001011132P8    YIYTM   005400370024
BI00B32P8    TAPI-2122      202211097288-3330-30             HOUSING MALE             CCN000001500000001500FN00000000020221201000001500NNM   20220913152324    4N0N  00000150000000866300001011232P8    YIYTM   005400370024
BI00B32P8    TAPI-2122      202211097288-3332-30             HOUSING MALE             CCN000001500000001500FN00000000020221201000001500NNM   20220913152324    4N0N  00000150000000860700001005732P8    YIYTM   005400370024
BI00B32P8    TAPI-2123      202211167288-3332-30             HOUSING MALE             CCN000001500000001500FN00000000020221201000001500NNM   20220913152324    4N0N  00000150000000860700001005732P8    YIYTM   005400370024
BI00B32P8    TAPI-2123      202211167288-3334-30             HOUSING MALE             CCN000001500000001500FN00000000020221201000001500NNM   20220913152324    4N0N  00000150000000867000001012032P8    YIYTM   005400370024
BI00B32P8    TAPI-2122      202211097288-3337-30             HOUSING MALE             CCN000001500000001500FN00000000020221201000001500NNM   20220913152324    4N0N  00000150000000867000001012032P8    YIYTM   005400370024
BI00B32P8    TAPI-2122      202211097288-3339-30             HOUSING MALE             CCN000001500000001500FN00000000020221201000001500NNM   20220913152324    4N0N  00000150000000867000001012032P8    YIYTM   005400370024
BI00B32P8    TAPI-2123      202211167288-3339-30             HOUSING MALE             CCN000001500000001500FN00000000020221201000001500NNM   20220913152324    4N0N  00000150000000867000001012032P8    YIYTM   005400370024
BI00B32P8    TAPI-2121      202211027288-3340-30             HOUSING MALE             CCN000001500000001500FN00000000020221201000001500NNM   20220913152324    4N0N  00000150000000861500001006432P8    YIYTM   005400370024
BI00B32P8    TAPI-2122      202211097288-3340-30             HOUSING MALE             CCN000001500000001500FN00000000020221201000001500NNM   20220913152324    4N0N  00000150000000861500001006432P8    YIYTM   005400370024
BI00B32P8    TAPI-2123      202211167288-3340-30             HOUSING MALE             CCN000003000000003000FN00000000020221201000003000NNM   20220913152324    4N0N  00000150000000861500001006432P8    YIYTM   005400370024
BI00B32P8    TAPI-2121      202211027289-3342-30             HOUSING FEMALE ASS'Y     CCN000002400000002400FN00000000020221201000002400NNM   20220913152324    1N0N  00000240000000686400000901432P8    YIYTM   005500360039
BI00B32P8    TAPI-2122      202211097289-3342-30             HOUSING FEMALE ASS'Y     CCN000009600000009600FN00000000020221201000009600NNM   20220913152324    1N0N  00000240000000686400000901432P8    YIYTM   005500360039
BI00B32P8    TAPI-2123      202211167289-3342-30             HOUSING FEMALE ASS'Y     CCN000009600000009600FN00000000020221201000009600NNM   20220913152324    1N0N  00000240000000686400000901432P8    YIYTM   005500360039
BI00B32P8    TAPI-2121      202211027289-4696-30             HOUSING FEMALE ASS'Y     CCN000004000000004000FN00000000020221201000004000NNM   20220913152324    4N0N  00000200000000913400001055432P8    YIYTM   005400370024
BI00B32P8    TAPI-2122      202211097289-4696-30             HOUSING FEMALE ASS'Y     CCN000002000000002000FN00000000020221201000002000NNM   20220913152324    4N0N  00000200000000913400001055432P8    YIYTM   005400370024
BI00B32P8    TAPI-2123      202211167289-4696-30             HOUSING FEMALE ASS'Y     CCN000004000000004000FN00000000020221201000004000NNM   20220913152324    4N0N  00000200000000913400001055432P8    YIYTM   005400370024
BI00B32P8    TAPI-2121      202211027289-5011-30             HOUSING FEMALE ASS'Y     CCN000004800000004800FN00000000020221201000004800NNM   20220913152324    4N0N  00000240000001171700001368632P8    YIYTM   005500360039
BI00B32P8    TAPI-2122      202211097289-5011-30             HOUSING FEMALE ASS'Y     CCN000002400000002400FN00000000020221201000002400NNM   20220913152324    4N0N  00000240000001171700001368632P8    YIYTM   005500360039
BI00B32P8    TAPI-2123      202211167289-5011-30             HOUSING FEMALE ASS'Y     CCN000003600000004800FN00000000020221201000004800NNM   20220913152324    4N0N  00000240000001171700001368632P8    YIYTM   005500360039
BI00B32P8    TAPI-2123      202211167298-1865-30             HOUSING FEMALE ASS'Y     CCN000012000000012000FN00000000020221201000012000NNM   20220913152324    4N0N  00000240000001003200001204532P8    YIYTM   005500360039
BI00B32P8    TAPI-2123      202211167298-1869-30             HOUSING FEMALE ASS'Y     CCN000002400000002400FN00000000020221201000002400NNM   20220913152324    4N0N  00000120000000737000000939832P8    YIYTM   005500360039
BI00B32P8    TAPI-2123      202211167298-2278-30             HOUSING FEMALE ASS'Y     CCN000004800000004800FN00000000020221201000004800NNM   20220913152324    4N0N  00000240000001091700001295432P8    YIYTM   005500360039
BI00B32P8    TAPI-2122      202211097298-2508-30             HOUSING FEMALE ASS'Y     CCN000001200000001200FN00000000020221201000001200NNM   20220913152324    4N0N  00000120000000822000001005032P8    YIYTM   005500360039
BI00B32P8    TAPI-2123      202211167298-2508-30             HOUSING FEMALE ASS'Y     CCN000001200000001200FN00000000020221201000001200NNM   20220913152324    4N0N  00000120000000822000001005032P8    YIYTM   005500360039
BI00B32P8    TAPI-2121      202211027298-2852-30             HOUSING FEMALE ASS'Y     CCN000000720000000720FN00000000020221201000000720NNM   20220913152324    4N0N  00000024000001095200001361232P8    YIYTM   005500360039
BI00B32P8    TAPI-2122      202211097298-2852-30             HOUSING FEMALE ASS'Y     CCN000000720000000720FN00000000020221201000000720NNM   20220913152324    4N0N  00000024000001095200001361232P8    YIYTM   005500360039
BI00B32P8    TAPI-2123      202211167298-2852-30             HOUSING FEMALE ASS'Y     CCN000000720000000720FN00000000020221201000000720NNM   20220913152324    4N0N  00000024000001095200001361232P8    YIYTM   005500360039
BI00B32P8    TAPI-2123      202211167298-5955                CONNECTOR SUB ASSY       CCN000057600000057600FN00000000020221201000057600NNM   20220913152324    4N0N  00000720000001029600001253032P8    YIYTM   005500360039
BI00B32P8    TAPI-2123      202211167388-0314                CONNECTOR ASS'Y          CCN000001200000001200FN00000000020221201000001200NNM   20220913152324    4N0N  00000120000001038000001132332P8    YIYTM   005400370024
BI00B32P8    TAPI-2121      202211027388-2978-30             HOUSING MALE ASS'Y       CCN000000480000000480FN00000000020221201000000480NNM   20220913152324    1N0N  00000048000000742000001122032P8    YIYTM   005500360039
BI00B32P8    TAPI-2122      202211097388-2978-30             HOUSING MALE ASS'Y       CCN000000960000000960FN00000000020221201000000960NNM   20220913152324    1N0N  00000048000000742000001122032P8    YIYTM   005500360039
BI00B32P8    TAPI-2123      202211167388-2978-30             HOUSING MALE ASS'Y       CCN000000480000000480FN00000000020221201000000480NNM   20220913152324    1N0N  00000048000000742000001122032P8    YIYTM   005500360039
BI00B32P8    TAPI-2122      202211097470-3082                J/B COMPLETE ASS'Y       CCN000000432000000432FN00000000020221201000000432NNM   20220913152324    1J0J  00000002400001320000001570032P8    YIYTM   005500360039
BI00B32P8    TAPI-2123      202211167470-3082                J/B COMPLETE ASS'Y       CCN000000456000000456FN00000000020221201000000456NNM   20220913152324    1J0J  00000002400001320000001570032P8    YIYTM   005500360039
BI00B32P8    TAPI-2122      202211097017-1180-02             TERMINAL                 CCN000216000000216000FN00000000020221201000216000NNM   20220913152324    4P0P  00007200000001065600001229032P8    YIYTM   005100280028
BI00B32P8    TAPI-2123      202211167017-1180-02             TERMINAL                 CCN000216000000216000FN00000000020221201000216000NNM   20220913152324    4P0P  00007200000001065600001229032P8    YIYTM   005100280028
BI00B32P8    TAPI-2122      202211097017-1181-02             TERMINAL                 CCN000063000000063000FN00000000020221201000063000NNM   20220913152324    4P0P  00006300000001089900001266832P8    YIYTM   005100280028
BI00B32P8    TAPI-2123      202211167017-1181-02             TERMINAL                 CCN000063000000063000FN00000000020221201000063000NNM   20220913152324    4P0P  00006300000001089900001266832P8    YIYTM   005100280028
BI00B32P8    TAPI-2122      202211097017-1182-02             TERMINAL                 CCN000090000000090000FN00000000020221201000090000NNM   20220913152324    4P0P  00004500000001165500001318632P8    YIYTM   005100280028
BI00B32P8    TAPI-2123      202211167017-1182-02             TERMINAL                 CCN000045000000045000FN00000000020221201000045000NNM   20220913152324    4P0P  00004500000001165500001318632P8    YIYTM   005100280028
BI00B32P8    TAPI-2122      202211097017-1183-02             TERMINAL                 CCN000027000000027000FN00000000020221201000027000NNM   20220913152324    4P0P  00002700000001139400001307432P8    YIYTM   005100280028
BI00B32P8    TAPI-2123      202211167017-1183-02             TERMINAL                 CCN000027000000027000FN00000000020221201000027000NNM   20220913152324    4P0P  00002700000001139400001307432P8    YIYTM   005100280028
BI00B32P8    TAPI-2121      202211027386-6939                CONNECTOR MALE ASS'Y     CCN000000900000000900FN00000000020221201000000900NNM   20220913152324    4N0N  00000090000001359900001486432P8    YIYTM   005400370024
BI00B32P8    TAPI-2123      202211167386-6939                CONNECTOR MALE ASS'Y     CCN000000900000000900FN00000000020221201000000900NNM   20220913152324    4N0N  00000090000001359900001486432P8    YIYTM   005400370024
BI00B32P8    TAPI-2122      202211097327-6424-4W             BATTERY FUSE             CCN000000480000000480FN00000000020221201000000480NNM   20220913152324    4N0N  00000009600001109500001259632P8    YIYTM   005400370024
BI00B32P8    TAPI-2123      202211167327-6424-4W             BATTERY FUSE             CCN000000480000000480FN00000000020221201000000480NNM   20220913152324    4N0N  00000009600001109500001259632P8    YIYTM   005400370024
BI00B32P8    TAPI-2121      202211027327-6890-3W             BATTERY FUSE             CCN000000360000000360FN00000000020221201000000360NNM   20220913152324    4N0N  00000007200001140800001355632P8    YIYTM   005500360039
BI00B32P8    TAPI-2122      202211097327-6890-3W             BATTERY FUSE             CCN000000504000000504FN00000000020221201000000504NNM   20220913152324    4N0N  00000007200001140800001355632P8    YIYTM   005500360039
BI00B32P8    TAPI-2123      202211167327-6890-3W             BATTERY FUSE             CCN000000504000000504FN00000000020221201000000504NNM   20220913152324    4N0N  00000007200001140800001355632P8    YIYTM   005500360039
BI00B32P8    TAPI-2121      202211027470-5303                J/B COMPLETE ASS'Y       CCN000000320000000320FN00000000020221201000000320NNM   20220913152324    4J0J  00000001000000494000000661032P8    YIYTM   005400370024
BI00B32P8    TAPI-2122      202211097470-5303                J/B COMPLETE ASS'Y       CCN000000800000000800FN00000000020221201000000800NNM   20220913152324    4J0J  00000001000000494000000661032P8    YIYTM   005400370024
BI00B32P8    TAPI-2123      202211167470-5303                J/B COMPLETE ASS'Y       CCN000000800000000800FN00000000020221201000000800NNM   20220913152324    4J0J  00000001000000494000000661032P8    YIYTM   005400370024
BI00B32P8    TAPI-2121      202211027470-5650                J/B COMPLETE ASS'Y       CCN000000440000000440FN00000000020221201000000440NNM   20220913152324    4J0J  00000001000000494000000661032P8    YIYTM   005400370024
BI00B32P8    TAPI-2122      202211097470-5650                J/B COMPLETE ASS'Y       CCN000000380000000380FN00000000020221201000000380NNM   20220913152324    4J0J  00000001000000494000000661032P8    YIYTM   005400370024
BI00B32P8    TAPI-2123      202211167470-5650                J/B COMPLETE ASS'Y       CCN000000390000000390FN00000000020221201000000390NNM   20220913152324    4J0J  00000001000000494000000661032P8    YIYTM   005400370024
BI00B32P8    TAPI-2121      202211027273-3885-0W             CASSETTE BRACKET         CCN000000600000000600FN00000000020221201000000600NNM   20220913152324    4N0N  00000060000000864400001004432P8    YIYTM   005500360039
BI00B32P8    TAPI-2122      202211097273-3885-0W             CASSETTE BRACKET         CCN000000600000000600FN00000000020221201000000600NNM   20220913152324    4N0N  00000060000000864400001004432P8    YIYTM   005500360039
BI00B32P8    TAPI-2121      202211027273-3887-0W             CASSETTE BRACKET         CCN000000600000000600FN00000000020221201000000600NNM   20220913152324    4N0N  00000060000000526000000652032P8    YIYTM   005500360039
BI00B32P8    TAPI-2122      202211097273-3887-0W             CASSETTE BRACKET         CCN000000600000000600FN00000000020221201000000600NNM   20220913152324    4N0N  00000060000000526000000652032P8    YIYTM   005500360039
BI00B32P8    TAPI-2123      202211167327-6994-3W             BATTERY FUSE             CCN000000648000000648FN00000000020221201000000648NNM   20220913152324    4N0N  00000007200001215100001430132P8    YIYTM   005500360039
BI00B32P8    #TAPI-2123     202211167157-3992-90             CONNECTOR SEALED         CCN000040000000040000FN00000000020221201000040000NNM   20220913152320    2C0C  00004000000000300000000363332P8    YIYTM   002700430014
BI00B32P8    #TAPI-2121     202211027172-5628-80             DUMMY PLUG               CCN000020000000020000FN00000000020221201000020000NNM   20220913152320    2H0H  00002000000000110600000162032P8    YIYTM   004300270014
BI00B32P8    #TAPI-2122     202211097172-5628-80             DUMMY PLUG               CCN000200000000200000FN00000000020221201000200000NNM   20220913152320    2H0H  00002000000000110600000162032P8    YIYTM   004300270014
BI00B32P8    #TAPI-2123     202211167172-5628-80             DUMMY PLUG               CCN000220000000220000FN00000000020221201000220000NNM   20220913152320    2H0H  00002000000000110600000162032P8    YIYTM   004300270014
BI00B32P8    #TAPI-2122     202211097157-7811-80             SEAL RUBBER              CCN000010000000010000FN00000000020221201000010000NNM   20220913152320    2C0C  00001000000000105000000182732P8    YIYTM   002700430014
BI00B32P8    #TAPI-2123     202211167157-7811-80             SEAL RUBBER              CCN000010000000010000FN00000000020221201000010000NNM   20220913152320    2C0C  00001000000000105000000182732P8    YIYTM   002700430014
BI00B32P8    #TAPI-2122     202211097157-7812                SEAL RUBBER              CCN000170000000170000FN00000000020221201000170000NNM   20220913152320    2C0C  00001000000000137000000202032P8    YIYTM   002700430014
BI00B32P8    #TAPI-2123     202211167157-7812                SEAL RUBBER              CCN000170000000170000FN00000000020221201000170000NNM   20220913152320    2C0C  00001000000000137000000202032P8    YIYTM   002700430014
BI00B32P8    #TAPI-2122     202211097157-7897-60             SEAL RUBBER              CCN000040000000040000FN00000000020221201000040000NNM   20220913152320    2C0C  00001000000000132000000214732P8    YIYTM   002700430014
BI00B32P8    #TAPI-2123     202211167157-7897-60             SEAL RUBBER              CCN000030000000030000FN00000000020221201000030000NNM   20220913152320    2C0C  00001000000000132000000214732P8    YIYTM   002700430014
BI00B32P8    #TAPI-2122     202211097158-3003-90             RUBBER STOPPER           CCN000140000000140000FN00000000020221201000140000NNM   20220913152320    2C0C  00002000000000250000000306032P8    YIYTM   002700430014
BI00B32P8    #TAPI-2123     202211167158-3003-90             RUBBER STOPPER           CCN000160000000160000FN00000000020221201000160000NNM   20220913152320    2C0C  00002000000000250000000306032P8    YIYTM   002700430014
BI00B32P8    #TAPI-2122     202211097158-3007-10             RUBBER STOPPER           CCN000020000000020000FN00000000020221201000020000NNM   20220913152320    2H0H  00002000000000308000000362732P8    YIYTM   002700430014
BI00B32P8    #TAPI-2123     202211167158-3007-10             RUBBER STOPPER           CCN000040000000040000FN00000000020221201000040000NNM   20220913152320    2H0H  00002000000000308000000362732P8    YIYTM   002700430014
BI00B32P8    #TAPI-2121     202211027158-3008-80             RUBBER STOPPER           CCN000020000000020000FN00000000020221201000020000NNM   20220913152320    2C0C  00002000000000288000000343032P8    YIYTM   004300270014
BI00B32P8    #TAPI-2122     202211097158-3008-80             RUBBER STOPPER           CCN000080000000080000FN00000000020221201000080000NNM   20220913152320    2C0C  00002000000000288000000343032P8    YIYTM   004300270014
BI00B32P8    #TAPI-2123     202211167158-3008-80             RUBBER STOPPER           CCN000060000000060000FN00000000020221201000060000NNM   20220913152320    2C0C  00002000000000288000000343032P8    YIYTM   004300270014
BI00B32P8    #TAPI-2121     202211027158-3015-10             RUBBER STOPPER           CCN000020000000020000FN00000000020221201000020000NNM   20220913152320    2C0C  00001000000000419500000474032P8    YIYTM   002700430014
BI00B32P8    #TAPI-2122     202211097158-3015-10             RUBBER STOPPER           CCN000010000000010000FN00000000020221201000010000NNM   20220913152320    2C0C  00001000000000419500000474032P8    YIYTM   002700430014
BI00B32P8    #TAPI-2123     202211167158-3015-10             RUBBER STOPPER           CCN000010000000010000FN00000000020221201000010000NNM   20220913152320    2C0C  00001000000000419500000474032P8    YIYTM   002700430014
BI00B32P8    #TAPI-2123     202211167158-3017                RUBBER STOPPER           CCN000010000000010000FN00000000020221201000010000NNM   20220913152320    2C0C  00001000000000375500000435032P8    YIYTM   002700430014
BI00B32P8    #TAPI-2121     202211027158-3120-90             CONNECTOR WIRE SEAL      CCN000080000000080000FN00000000020221201000080000NNM   20220913152320    2C0C  00002000000000136000000194032P8    YIYTM   002700430014
BI00B32P8    #TAPI-2122     202211097158-3120-90             CONNECTOR WIRE SEAL      CCN000060000000060000FN00000000020221201000060000NNM   20220913152320    2C0C  00002000000000136000000194032P8    YIYTM   002700430014
BI00B32P8    #TAPI-2123     202211167158-3120-90             CONNECTOR WIRE SEAL      CCN000060000000060000FN00000000020221201000060000NNM   20220913152320    2C0C  00002000000000136000000194032P8    YIYTM   002700430014
BI00B32P8    #TAPI-2122     202211097158-3121-80             WIRE SEAL                CCN000020000000020000FN00000000020221201000020000NNM   20220913152320    2C0C  00002000000000118000000187332P8    YIYTM   002700430014
BI00B32P8    #TAPI-2123     202211167158-3121-80             WIRE SEAL                CCN000020000000020000FN00000000020221201000020000NNM   20220913152320    2C0C  00002000000000118000000187332P8    YIYTM   002700430014
BI00B32P8    #TAPI-2123     202211167158-3654-80             WIRE TUBE                CCN000040000000040000FN00000000020221201000040000NNM   20220913152320    2H0H  00004000000000104000000152232P8    YIYTM   004300270014
BI00B32P8    #TAPI-2122     202211097172-5625-90             RUBBER STOPPER           CCN000040000000040000FN00000000020221201000040000NNM   20220913152320    2H0H  00002000000000082400000133832P8    YIYTM   004300270014
BI00B32P8    #TAPI-2123     202211167172-5625-90             RUBBER STOPPER           CCN000120000000120000FN00000000020221201000120000NNM   20220913152320    2H0H  00002000000000082400000133832P8    YIYTM   004300270014
BI00B32P8    #TAPI-2123     202211167172-5629-80             RUBBER STOPPER           CCN000260000000260000FN00000000020221201000260000NNM   20220913152320    2H0H  00002000000000060000000111132P8    YIYTM   004300270014
BI00B32P8    #TAPI-2121     202211027172-5631-60             RUBBER STOPPER           CCN000020000000020000FN00000000020221201000020000NNM   20220913152320    2H0H  00002000000000042000000093132P8    YIYTM   004300270014
BI00B32P8    #TAPI-2122     202211097172-5631-60             RUBBER STOPPER           CCN000200000000200000FN00000000020221201000200000NNM   20220913152320    2H0H  00002000000000042000000093132P8    YIYTM   004300270014
BI00B32P8    #TAPI-2123     202211167172-5631-60             RUBBER STOPPER           CCN000200000000200000FN00000000020221201000200000NNM   20220913152320    2H0H  00002000000000042000000093132P8    YIYTM   004300270014
BI00B32P8    #TAPI-2121     202211027114-4022                TERMINAL                 CCN000015000000015000FN00000000020221201000015000NNM   20220913152320    2F0P  00001500000000708000001120632P8    YIYTM   006400630015
BI00B32P8    #TAPI-2122     202211097114-4022                TERMINAL                 CCN000015000000015000FN00000000020221201000015000NNM   20220913152320    2F0P  00001500000000708000001120632P8    YIYTM   006400630015
BI00B32P8    #TAPI-2123     202211167114-4022                TERMINAL                 CCN000015000000015000FN00000000020221201000015000NNM   20220913152320    2F0P  00001500000000708000001120632P8    YIYTM   006400630015
BI00B32P8    #TAPI-2121     202211027116-4021                TERMINAL                 CCN000108000000108000FN00000000020221201000108000NNM   20220913152320    2F0P  00001350000000534600000868832P8    YIYTM   006400630015
BI00B32P8    #TAPI-2122     202211097116-4021                TERMINAL                 CCN000067500000067500FN00000000020221201000067500NNM   20220913152320    2F0P  00001350000000534600000868832P8    YIYTM   006400630015
BI00B32P8    #TAPI-2123     202211167116-4021                TERMINAL                 CCN000054000000054000FN00000000020221201000054000NNM   20220913152320    2F0P  00001350000000534600000868832P8    YIYTM   006400630015
BI00B32P8    #TAPI-2123     202211167124-1026-30             PROTECTOR                CCN000003000000003000FN00000000020221201000003000NNM   20220913152320    2F0F  00000300000000828000000986032P8    YIYTM   005500360039
BI00B32P8    #TAPI-2123     202211167189-3038-30             HOUSING                  CCN000001600000001600FN00000000020221201000001600NNM   20220913152320    2F0F  00000160000000921600001141632P8    YIYTM   005500360039
BI00B32P8    #TAPI-2122     202211097158-3005-80             RUBBER STOPPER           CCN000040000000040000FN00000000020221201000040000NNM   20220913152320    2H0H  00002000000000210000000268732P8    YIYTM   002700430014
BI00B32P8    #TAPI-2123     202211167158-3005-80             RUBBER STOPPER           CCN000020000000020000FN00000000020221201000020000NNM   20220913152320    2H0H  00002000000000210000000268732P8    YIYTM   002700430014
BI00B32P8    #TAPI-2122     202211097123-6347                CONNECTOR HOUSING        CCN000009600000009600FN00000000020221201000009600NNM   20220913152320    2F0F  00000160000000647000000904832P8    YIYTM   005500360039
BI00B32P8    #TAPI-2123     202211167123-6347                CONNECTOR HOUSING        CCN000009600000009600FN00000000020221201000009600NNM   20220913152320    2F0F  00000160000000647000000904832P8    YIYTM   005500360039
BI00B32P8    #TAPI-2123     202211167123-6347-40             HOUSING                  CCN000001600000001600FN00000000020221201000001600NNM   20220913152320    2F0F  00000160000000650400000905032P8    YIYTM   005500360039
BI00B32P8    #TAPI-2123     202211167123-7484-30             CONNECTOR                CCN000002000000002000FN00000000020221201000002000NNM   20220913152320    2F0F  00000200000001393800001537032P8    YIYTM   005500360039
BI00B32P8    #TAPI-2122     202211097123-7564-30             CONNECTOR                CCN000003000000003000FN00000000020221201000003000NNM   20220913152320    2F0F  00000100000001310000001455632P8    YIYTM   005600390040
BI00B32P8    #TAPI-2123     202211167123-7564-30             CONNECTOR                CCN000003000000003000FN00000000020221201000003000NNM   20220913152320    2F0F  00000100000001310000001455632P8    YIYTM   005600390040
BI00B32P8    #TAPI-2123     202211167123-7923-40             CONNECTOR                CCN000001500000001500FN00000000020221201000001500NNM   20220913152320    2F0F  00000150000001492500001665932P8    YIYTM   005600390040
BI00B32P8    #TAPI-2122     202211097182-2410                CONNECTOR HOUSING        CCN000001200000001200FN00000000020221201000001200NNM   20220913152320    2F0F  00000120000000959800001245632P8    YIYTM   005500360039
BI00B32P8    #TAPI-2123     202211167182-2410                CONNECTOR HOUSING        CCN000001200000001200FN00000000020221201000001200NNM   20220913152320    2F0F  00000120000000959800001245632P8    YIYTM   005500360039
BI00B32P8    #TAPI-2122     202211097182-9633-40             JOINT CONNECTOR          CCN000003000000003000FN00000000020221201000003000NNM   20220913152320    2F0F  00000300000001335000001460532P8    YIYTM   005400370024
BI00B32P8    #TAPI-2122     202211097183-0522                HOUSING                  CCN000002400000002400FN00000000020221201000002400NNM   20220913152320    2F0F  00000240000000951000001230032P8    YIYTM   005500360039
BI00B32P8    #TAPI-2122     202211097183-2412                HOUSING                  CCN000001600000001600FN00000000020221201000001600NNM   20220913152320    2F0F  00000160000001059200001245632P8    YIYTM   005500360039
BI00B32P8    #TAPI-2123     202211167183-2412                HOUSING                  CCN000001600000001600FN00000000020221201000001600NNM   20220913152320    2F0F  00000160000001059200001245632P8    YIYTM   005500360039
BI00B32P8    #TAPI-2121     202211027183-2413-30             CONNECTOR HOUSING        CCN000004800000004800FN00000000020221201000004800NNM   20220913152320    2F0F  00000480000000477600000759532P8    YIYTM   005500360039
BI00B32P8    #TAPI-2121     202211027183-2414                CONNECTOR HOUSING        CCN000004800000004800FN00000000020221201000004800NNM   20220913152320    2F0F  00000480000000779200001061032P8    YIYTM   005500360039
BI00B32P8    #TAPI-2123     202211167183-2414-40             CONNECTOR HOUSING        CCN000004800000004800FN00000000020221201000004800NNM   20220913152320    2F0F  00000480000000777600000963632P8    YIYTM   005500360039
BI00B32P8    #TAPI-2122     202211097183-2416                HOUSING                  CCN000002400000002400FN00000000020221201000002400NNM   20220913152320    2F0F  00000240000001495200001771032P8    YIYTM   005500360039
BI00B32P8    #TAPI-2122     202211097183-2416-30             HOUSING                  CCN000002400000002400FN00000000020221201000002400NNM   20220913152320    2F0F  00000240000001495200001770032P8    YIYTM   005500360039
BI00B32P8    #TAPI-2123     202211167183-2419                HOUSING                  CCN000004800000004800FN00000000020221201000004800NNM   20220913152320    2F0F  00000480000001065600001352732P8    YIYTM   005500360039
BI00B32P8    #TAPI-2123     202211167187-8856                HOUSING FEMALE           CCN000002000000002000FN00000000020221201000002000NNM   20220913152320    2F0F  00000200000000820000000931532P8    YIYTM   005400370024
BI00B32P8    #TAPI-2122     202211097189-2978-30             HOUSING FEMALE           CCN000001500000001500FN00000000020221201000001500NNM   20220913152320    2F0F  00000150000000966900001096932P8    YIYTM   005400370024
BI00B32P8    #TAPI-2122     202211097189-3031                HOUSING FEMALE           CCN000002400000002400FN00000000020221201000002400NNM   20220913152320    2F0F  00000240000000928800001365832P8    YIYTM   005500360039
BI00B32P8    #TAPI-2123     202211167189-3031                HOUSING FEMALE           CCN000004800000004800FN00000000020221201000004800NNM   20220913152320    2F0F  00000240000000928800001365832P8    YIYTM   005500360039
BI00B32P8    #TAPI-2123     202211167189-3032                HOUSING FEMALE           CCN000001600000001600FN00000000020221201000001600NNM   20220913152320    2F0F  00000160000000788400001018432P8    YIYTM   005500360039
BI00B32P8    #TAPI-2122     202211097189-3032-30             HOUSING FEMALE           CCN000001600000001600FN00000000020221201000001600NNM   20220913152320    2F0F  00000160000000801600001021632P8    YIYTM   005500360039
BI00B32P8    #TAPI-2121     202211027282-6446-40             CONNECTOR                CCN000004500000004500FN00000000020221201000004500NNM   20220913152320    2N0N  00000150000001185000001368032P8    YIYTM   005500360039
BI00B32P8    #TAPI-2122     202211097282-6446-40             CONNECTOR                CCN000004500000004500FN00000000020221201000004500NNM   20220913152320    2N0N  00000150000001185000001368032P8    YIYTM   005500360039
BI00B32P8    #TAPI-2123     202211167282-6446-40             CONNECTOR                CCN000004500000004500FN00000000020221201000004500NNM   20220913152320    2N0N  00000150000001185000001368032P8    YIYTM   005500360039
BI00B32P8    #TAPI-2122     202211097282-7040-30             HOUSING MALE ASS'Y       CCN000002400000002400FN00000000020221201000002400NNM   20220913152320    2N0N  00000120000000620400000731932P8    YIYTM   005400370024
BI00B32P8    #TAPI-2123     202211167282-7040-30             HOUSING MALE ASS'Y       CCN000002400000002400FN00000000020221201000002400NNM   20220913152320    2N0N  00000120000000620400000731932P8    YIYTM   005400370024
BI00B32P8    #TAPI-2123     202211167283-1071                CONNECTOR HOUSING        CCN000002000000002000FN00000000020221201000002000NNM   20220913152320    2N0N  00000200000000800000000930032P8    YIYTM   005400370024
BI00B32P8    #TAPI-2123     202211167283-4190-30             CONNECTOR                CCN000003600000003600FN00000000020221201000003600NNM   20220913152320    2N0N  00000024000000846000001115532P8    YIYTM   005600390040
BI00B32P8    #TAPI-2123     202211167283-5833                CONNECTOR HOUSING        CCN000003640000003640FN00000000020221201000003640NNM   20220913152320    2N0N  00000364000001378000001686732P8    YIYTM   005500360039
BI00B32P8    #TAPI-2123     202211167287-1915                CONNECTOR ASS'Y          CCN000008000000009600FN00000000020221201000009600NNM   20220913152320    2N0N  00000240000000666500000923132P8    YIYTM   005500360039
BI00B32P8    #TAPI-2123     202211167287-1918-40             HOUSING FEMALE ASS'Y     CCN000001980000001980FN00000000020221201000001980NNM   20220913152320    2N0N  00000198000001015500001212032P8    YIYTM   005400370024
BI00B32P8    #TAPI-2122     202211097289-2912-40             HOUSING FEMALE ASS'Y     CCN000006000000006000FN00000000020221201000006000NNM   20220913152320    2N0N  00000200000000804000000931032P8    YIYTM   005400370024
