AE00TI102209130413/09/202200000000200000000000000000674KGM  00000001307KGM  7W40012-500              WIPPER CASE              7W40012500               0         0         0         0    0    0    00000019200000009600000210000000403200
AE00TI102209130413/09/202200000000400000000000000001000KGM  00000001224KGM  7158-3003-90             RUBBER STOPPER           7158300390               0         0         0         0    0    0    00008000000002000000000012000009600000
AE00TI102209130413/09/202200000000200000000000000001459KGM  00000001666KGM  7182-2412                HOUSING MALE             71822412                 0         0         0         0    0    0    00000100000000050000000638000006380000
AE00TI102209130413/09/202200000000200000000000000001519KGM  00000002049KGM  7187-3356                JOINT CONNECTOR          71873356                 0         0         0         0    0    0    00000240000000120000001038000024912000
AE00TI102209130413/09/202200000000800000000000000006106KGM  00000008243KGM  7187-3359-60             JOINT CONNECTOR          7187335960               0         0         0         0    0    0    00000960000000120000001079000103584000
AE00TI102209130413/09/202200000000300000000000000001793KGM  00000002164KGM  7198-1371                HOUSING FEMALE           71981371                 0         0         0         0    0    0    00000600000000200000000107000006420000
AE00TI102209130413/09/202200000000500000000000000004286KGM  00000004976KGM  7198-1372-60             HOUSING FEMALE           7198137260               0         0         0         0    0    0    00001000000000200000000149000014900000
AE00TI102209130413/09/202200000000200000000000000001644KGM  00000001895KGM  7198-1373                HOUSING FEMALE           71981373                 0         0         0         0    0    0    00000400000000200000000115000004600000
AE00TI102209130413/09/202200000020000000000000000047960KGM  00000097960KGM  7271-1820-30             CASE SUB ASSY,ECU        7271182030               0         0         0         0    0    0    00000360000000001800009576000344736000
AE00TI102209130413/09/202200000000100000000000000000783KGM  00000000993KGM  7282-4578                HOUSING MALE ASS'Y       72824578                 0         0         0         0    0    0    00000120000000120000000255000003060000
AE00TI102209130413/09/202200000000200000000000000002136KGM  00000002356KGM  7282-5845                HOUSING MALE ASS'Y       72825845                 0         0         0         0    0    0    00000800000000400000000321000025680000
AE00TI102209130413/09/202200000000100000000000000000620KGM  00000000732KGM  7282-7040                HOUSING MALE ASS'Y       72827040                 0         0         0         0    0    0    00000120000000120000000687000008244000
AE00TI102209130413/09/202200000000100000000000000000620KGM  00000000732KGM  7282-7040-30             HOUSING MALE ASS'Y       7282704030               0         0         0         0    0    0    00000120000000120000000702000008424000
AE00TI102209130413/09/202200000000100000000000000000651KGM  00000000871KGM  7283-4576                HOUSING FEMALE ASS'Y     72834576                 0         0         0         0    0    0    00000480000000480000000128000006144000
AE00TI102209130413/09/202200000000400000000000000003350KGM  00000004230KGM  7283-4578                HOUSING FEMALE ASS'Y     72834578                 0         0         0         0    0    0    00000960000000240000000190000018240000
AE00TI102209130413/09/202200000000200000000000000001908KGM  00000002208KGM  7283-5830                CONNECTOR                72835830                 0         0         0         0    0    0    00001200000000600000000154000018480000
AE00TI102209130413/09/202200000000400000000000000003556KGM  00000004528KGM  7283-5843                CONNECTOR                72835843                 0         0         0         0    0    0    00000600000000150000000280000016800000
AE00TI102209130413/09/202200000000100000000000000000444KGM  00000000606KGM  7283-5845                CONNECTOR HOUSING        72835845                 0         0         0         0    0    0    00000600000000600000000133000007980000
AE00TI102209130413/09/202200000000100000000000000000444KGM  00000000606KGM  7283-5845-30             CONNECTOR HOUSING        7283584530               0         0         0         0    0    0    00000600000000600000000133000007980000
AE00TI102209130413/09/202200000000300000000000000002742KGM  00000003429KGM  7283-6120                CONNECTOR HOUSING        72836120                 0         0         0         0    0    0    00000450000000150000000368000016560000
AE00TI102209130413/09/202200000000200000000000000000700KGM  00000000925KGM  7283-8721-30             HOUSING FEMALE ASS'Y     7283872130               0         0         0         0    0    0    00000200000000100000000415000008300000
AE00TI102209130413/09/202200000000100000000000000000911KGM  00000001131KGM  7286-3885                CONNECTOR MALE ASS'Y     72863885                 0         0         0         0    0    0    00000120000000120000000295000003540000
AE00TI102209130413/09/202200000000100000000000000000911KGM  00000001131KGM  7286-3885-30             CONNECTOR MALE ASS'Y     7286388530               0         0         0         0    0    0    00000120000000120000000309000003708000
AE00TI102209130413/09/202200000000800000000000000007285KGM  00000009045KGM  7286-3885-40             CONNECTOR MALE ASS'Y     7286388540               0         0         0         0    0    0    00000960000000120000000313000030048000
AE00TI102209130413/09/202200000000100000000000000000614KGM  00000000834KGM  7287-2705                HOUSING FEMALE ASS'Y     72872705                 0         0         0         0    0    0    00000960000000960000000148000014208000
AE00TI102209130413/09/202200000000400000000000000004118KGM  00000004998KGM  7287-3885                HYBRID FEMALE ASS'Y      72873885                 0         0         0         0    0    0    00000960000000240000000207000019872000
AE00TI102209130413/09/202200000000500000000000000005148KGM  00000006248KGM  7287-3885-30             HYBRID FEMALE ASS'Y      7287388530               0         0         0         0    0    0    00001200000000240000000215000025800000
AE00TI102209130413/09/202200000000200000000000000002059KGM  00000002499KGM  7287-3885-40             HYBRID FEMALE ASS'Y      7287388540               0         0         0         0    0    0    00000480000000240000000216000010368000
AE00TI102209130413/09/202200000000300000000000000002228KGM  00000002559KGM  7287-7022                CONNECTOR FEMALE         72877022                 0         0         0         0    0    0    00000360000000120000000982000035352000
AE00TI102209130413/09/202200000000400000000000000004666KGM  00000005546KGM  7287-8073                HOUSING FEMALE ASS'Y     72878073                 0         0         0         0    0    0    00000960000000240000000244000023424000
AE00TI102209130413/09/202200000000500000000000000001938KGM  00000003938KGM  7288-3206                HOUSING MALE ASS'Y       72883206                 0         0         0         0    0    0    00000510000000102000000351000017901000
AE00TI102209130413/09/202200000000200000000000000001732KGM  00000002022KGM  7288-3331-30             HOUSING MALE             7288333130               0         0         0         0    0    0    00000300000000150000000354000010620000
AE00TI102209130413/09/202200000000600000000000000005164KGM  00000006034KGM  7288-3332-30             HOUSING MALE             7288333230               0         0         0         0    0    0    00000900000000150000000354000031860000
AE00TI102209130413/09/202200000000300000000000000002601KGM  00000003036KGM  7288-3339-30             HOUSING MALE             7288333930               0         0         0         0    0    0    00000450000000150000000354000015930000
AE00TI102209130413/09/202200000000500000000000000004308KGM  00000005032KGM  7288-3340-30             HOUSING MALE             7288334030               0         0         0         0    0    0    00000750000000150000000354000026550000
AE00TI102209130413/09/202200000002200000000000000015101KGM  00000019831KGM  7289-3342                HOUSING FEMALE ASS'Y     72893342                 0         0         0         0    0    0    00005280000000240000000186000098208000
AE00TI102209130413/09/202200000000200000000000000000000KGM  00000000000KGM  7289-3342-30M            HOUSING FEMALE ASS'Y     7289334230M              0         0         0         0    0    0    00000204000000102000000188000003835200
AE00TI102209130413/09/202200000001000000000000000006864KGM  00000009014KGM  7289-3342-40             HOUSING FEMALE ASS'Y     7289334240               0         0         0         0    0    0    00002400000000240000000192000046080000
AE00TI102209130413/09/202200000002000000000000000013728KGM  00000018028KGM  7289-3342-90             HOUSING FEMALE ASS'Y     7289334290               0         0         0         0    0    0    00004800000000240000000196000094080000
AE00TI102209130413/09/202200000000100000000000000001152KGM  00000001362KGM  7289-6547                HOUSING FEMALE ASS'Y     72896547                 0         0         0         0    0    0    00000240000000240000000229000005496000
AE00TI102209130413/09/202200000000100000000000000001097KGM  00000001359KGM  7298-4094-10             HOUSING FEMALE ASS'Y     7298409410               0         0         0         0    0    0    00000338000000338000000241000008145800
