AE00TI102209130213/09/202200000001600000000000000011981KGM  00000017238KGM  7114-4100-02             TERMINAL                 7114410002               0         0         0         0    0    0    00028800000001800000000034000097920000
AE00TI102209130213/09/202200000001600000000000000008160KGM  00000012867KGM  7114-4728-02             TERMINAL                 7114472802               0         0         0         0    0    0    00048000000003000000000014000067200000
AE00TI102209130213/09/202200000001000000000000000006182KGM  00000009034KGM  7116-1180                TERMINAL                 71161180                 0         0         0         0    0    0    00019500000001950000000022000042900000
AE00TI102209130213/09/202200000002000000000000000009180KGM  00000014884KGM  7116-3153-02             TERMINAL FEMALE          7116315302               0         0         0         0    0    0    00054000000002700000000015000081000000
AE00TI102209130213/09/202200000000800000000000000003758KGM  00000006040KGM  7116-3154-02             TERMINAL FEMALE          7116315402               0         0         0         0    0    0    00021600000002700000000015000032400000
AE00TI102209130213/09/202200000001400000000000000009296KGM  00000013920KGM  7116-4026                TERMINAL                 71164026                 0         0         0         0    0    0    00022400000001600000000033000073920000
AE00TI102209130213/09/202200000002000000000000000010656KGM  00000016360KGM  7116-4032                TERMINAL                 71164032                 0         0         0         0    0    0    00012000000000600000000057000068400000
AE00TI102209130213/09/202200000000200000000000000000900KGM  00000001476KGM  7116-4112-02             TERMINAL                 7116411202               0         0         0         0    0    0    00001200000000600000000062000007440000
AE00TI102209130213/09/202200000001400000000000000009573KGM  00000014175KGM  7116-4231-02             TERMINAL                 7116423102               0         0         0         0    0    0    00036400000002600000000022000080080000
AE00TI102209130213/09/202200000000600000000000000002745KGM  00000004456KGM  7116-5750-02             TERMINAL                 7116575002               0         0         0         0    0    0    00009000000001500000000025000022500000
AE00TI102209130213/09/202200000001000000000000000006045KGM  00000008897KGM  7126-8854-02             TERMINAL                 7126885402               0         0         0         0    0    0    00007500000000750000000059000044250000
AE00TI102209130213/09/202200000000700000000000000003794KGM  00000005049KGM  7147-3642-30             CLIP                     7147364230               0         0         0         0    0    0    00002100000000300000000074000015540000
AE00TI102209130213/09/202200000000100000000000000000827KGM  00000001102KGM  7154-5712-30             CASSETTE R/B             7154571230               0         0         0         0    0    0    00000080000000080000000288000002304000
AE00TI102209130213/09/202200000000200000000000000000900KGM  00000001557KGM  7196-1325-02             TERMINAL FEMALE          7196132502               0         0         0         0    0    0    00012000000006000000000009000010800000
AE00TI102209130213/09/202200000001600000000000000007114KGM  00000011677KGM  7196-1460-02             TERMINAL FEMALE          7196146002               0         0         0         0    0    0    00045600000002850000000014000063840000
AE00TI102209130213/09/202200000000200000000000000001966KGM  00000002312KGM  7283-1064                CONNECTOR                72831064                 0         0         0         0    0    0    00000300000000150000000347000010410000
AE00TI102209130213/09/202200000001000000000000000008537KGM  00000010452KGM  7287-9155                HOUSING FEMALE ASS'Y     72879155                 0         0         0         0    0    0    00000960000000096000000357000034272000
AE00TI102209130213/09/202200000000400000000000000000000KGM  00000000000KGM  7470-4816D               J/B COMPLETE ASS'Y       74704816D                0         0         0         0    0    0    00000006000000001500000000000000000000
AE00TI102209130213/09/202200000005400000000000000000000KGM  00000000000KGM  7470-5784E               J/B COMPLETE ASS'Y       74705784E                0         0         0         0    0    0    00000054000000001000000000000000000000
