AE00TI102209130513/09/202200000001000000000000000008704KGM  00000012600KGM  7370-0309                J/B ASS'Y                73700309                 0         0         0         0    0    0    00000016000000001600028585000045736000
AE00TI102209130513/09/202200000003600000000000000047520KGM  00000056520KGM  7470-3082                J/B COMPLETE ASS'Y       74703082                 0         0         0         0    0    0    00000086400000002400031298000270414720
AE00TI102209130513/09/202200000002000000000000000000000KGM  00000000000KGM  7470-5308E               J/B COMPLETE ASS'Y       74705308E                0         0         0         0    0    0    00000020000000001000000000000000000000
AE00TI102209130513/09/202200000003000000000000000000000KGM  00000000000KGM  7470-5783D               J/B COMPLETE ASS'Y       74705783D                0         0         0         0    0    0    00000045000000001500000000000000000000
AE00TI102209130513/09/202200000004000000000000000000000KGM  00000000000KGM  7470-5783E               J/B COMPLETE ASS'Y       74705783E                0         0         0         0    0    0    00000040000000001000000000000000000000
AE00TI102209130513/09/202200000001500000000000000000000KGM  00000000000KGM  7470-5791D               J/B COMPLETE ASS'Y       74705791D                0         0         0         0    0    0    00000022500000001500000000000000000000
AE00TI102209130513/09/202200000003000000000000000000000KGM  00000000000KGM  7470-5791E               J/B COMPLETE ASS'Y       74705791E                0         0         0         0    0    0    00000030000000001000000000000000000000
AE00TI102209130513/09/202200000001200000000000000000000KGM  00000000000KGM  7470-5936D               J/B COMPLETE ASS'Y       74705936D                0         0         0         0    0    0    00000018000000001500000000000000000000
AE00TI102209130613/09/202200000002200000000000000007273KGM  00000008492KGM  7158-3006-90             RUBBER STOPPER           7158300690               0         0         0         0    0    0    00044000000002000000000016000070400000
AE00TI102209130613/09/202200000001800000000000000006084KGM  00000006952KGM  7158-3009-60             RUBBER STOPPER           7158300960               0         0         0         0    0    0    00036000000002000000000012000043200000
AE00TI102209130613/09/202200000000100000000000000000444KGM  00000000502KGM  7158-3023                RUBBER STOPPER           71583023                 0         0         0         0    0    0    00000500000000500000000078000003900000
AE00TI102209130613/09/202200000000600000000000000000744KGM  00000001034KGM  7158-3165-90             WIRE SEAL                7158316590               0         0         0         0    0    0    00024000000004000000000006000014400000
AE00TI102209130613/09/202200000000900000000000000000936KGM  00000001372KGM  7158-3166-60             WIRE SEAL                7158316660               0         0         0         0    0    0    00036000000004000000000004000014400000
AE00TI102209130613/09/202200000003800000000000000001824KGM  00000004142KGM  7158-3167-80             WIRE SEAL                7158316780               0         0         0         0    0    0    00076000000002000000000005000038000000
AE00TI102209130613/09/202200000000900000000000000000396KGM  00000000829KGM  7158-3168-80             SEALED                   7158316880               0         0         0         0    0    0    00018000000002000000000004000007200000
AE00TI102209130613/09/202200000001000000000000000001560KGM  00000002041KGM  7158-3169-40             SEALING PLUG             7158316940               0         0         0         0    0    0    00040000000004000000000006000024000000
AE00TI102209130613/09/202200000000400000000000000003471KGM  00000004271KGM  7173-3291-40             LIF LEVER                7173329140               0         0         0         0    0    0    00000960000000240000000142000013632000
AE00TI102209130613/09/202200000000300000000000000001868KGM  00000002286KGM  7174-1849-70             COVER                    7174184970               0         0         0         0    0    0    00007500000002500000000046000034500000
AE00TI102209130613/09/202200000008000000000000000019184KGM  00000039184KGM  7271-1820-30             CASE SUB ASSY,ECU        7271182030               0         0         0         0    0    0    00000144000000001800009576000137894400
AE00TI102209130613/09/202200000000300000000000000002945KGM  00000003870KGM  7298-5993-30             SEALED ASSY FEMALE       7298599330               0         0         0         0    0    0    00000655200000218400000266000017428320
AE00TI102209130613/09/202200000000100000000000000001230KGM  00000001423KGM  7327-6533-3W             BATTERY FUSE             732765333W               0         0         0         0    0    0    00000007200000007200010131000007294320
AE00TI102209130613/09/202200000000700000000000000007767KGM  00000008817KGM  7327-6572-3W             BATTERY FUSE             732765723W               0         0         0         0    0    0    00000067200000009600008162000054848640
AE00TI102209130613/09/202200000000300000000000000002800KGM  00000003400KGM  7327-6769-3W             BATTERY FUSE             732767693W               0         0         0         0    0    0    00000028800000009600008902000025637760
AE00TI102209130613/09/202200000001600000000000000018254KGM  00000021694KGM  7327-6840-3W             BATTERY FUSE             732768403W               0         0         0         0    0    0    00000115200000007200009909000114151680
AE00TI102209130613/09/202200000001500000000000000011130KGM  00000016830KGM  7388-2978-30             HOUSING MALE ASS'Y       7388297830               0         0         0         0    0    0    00000720000000048000001790000128880000
AE00TI102209130613/09/202200000000500000000000000006600KGM  00000007850KGM  7470-3082                J/B COMPLETE ASS'Y       74703082                 0         0         0         0    0    0    00000012000000002400031298000037557600
AE00TI102209130613/09/202200000001200000000000000015840KGM  00000018840KGM  7470-4481                J/B COMPLETE ASS'Y       74704481                 0         0         0         0    0    0    00000028800000002400000000000000000000
AE00TI102209130613/09/202200000001200000000000000000000KGM  00000000000KGM  7470-4815D               J/B COMPLETE ASS'Y       74704815D                0         0         0         0    0    0    00000018000000001500000000000000000000
AE00TI102209130613/09/202200000000200000000000000000000KGM  00000000000KGM  7470-4815E               J/B COMPLETE ASS'Y       74704815E                0         0         0         0    0    0    00000002000000001000000000000000000000
AE00TI102209130613/09/202200000001500000000000000000000KGM  00000000000KGM  7470-4816D               J/B COMPLETE ASS'Y       74704816D                0         0         0         0    0    0    00000022500000001500000000000000000000
AE00TI102209130613/09/202200000000400000000000000000000KGM  00000000000KGM  7470-5782D               J/B COMPLETE ASS'Y       74705782D                0         0         0         0    0    0    00000006000000001500000000000000000000
AE00TI102209130613/09/202200000000400000000000000000000KGM  00000000000KGM  7470-5823D               J/B COMPLETE ASS'Y       74705823D                0         0         0         0    0    0    00000006000000001500000000000000000000
AE00TI102209130613/09/202200000002000000000000000000000KGM  00000000000KGM  7470-5927D               J/B COMPLETE ASS'Y       74705927D                0         0         0         0    0    0    00000030000000001500000000000000000000
AE00TI102209130613/09/202200000001000000000000000000000KGM  00000000000KGM  7470-5927E               J/B COMPLETE ASS'Y       74705927E                0         0         0         0    0    0    00000010000000001000000000000000000000
