AE00TI102209130113/09/202200000000500000000000000005687KGM  00000006489KGM  7183-2417                CONNECTOR HOUSING        71832417                 0         0         0         0    0    0    00001200000000240000000138000016560000
AE00TI102209130113/09/202200000000200000000000000001788KGM  00000002370KGM  7287-9234                JOINT CONNECTOR          72879234                 0         0         0         0    0    0    00001920000000960000000137000026304000
AE00TI102209130113/09/202200000000800000000000000006928KGM  00000008087KGM  7288-3331-30             HOUSING MALE             7288333130               0         0         0         0    0    0    00001200000000150000000354000042480000
AE00TI102209130113/09/202200000000800000000000000006886KGM  00000008046KGM  7288-3332-30             HOUSING MALE             7288333230               0         0         0         0    0    0    00001200000000150000000354000042480000
AE00TI102209130113/09/202200000000300000000000000002585KGM  00000003019KGM  7288-3340-30             HOUSING MALE             7288334030               0         0         0         0    0    0    00000450000000150000000354000015930000
AE00TI102209130113/09/202200000000100000000000000001074KGM  00000001429KGM  7288-6598-70             HOUSING MALE ASS'Y       7288659870               0         0         0         0    0    0    00000144000000144000000911000013118400
AE00TI102209130113/09/202200000000700000000000000004805KGM  00000006310KGM  7289-3342                HOUSING FEMALE ASS'Y     72893342                 0         0         0         0    0    0    00001680000000240000000186000031248000
AE00TI102209130113/09/202200000001000000000000000006864KGM  00000009014KGM  7289-3342-30             HOUSING FEMALE ASS'Y     7289334230               0         0         0         0    0    0    00002400000000240000000191000045840000
AE00TI102209130113/09/202200000000100000000000000000839KGM  00000001119KGM  7289-6868-30             SEALED ASSY FEMALE       7289686830               0         0         0         0    0    0    00000252000000252000000332000008366400
AE00TI102209130113/09/202200000000100000000000000001241KGM  00000001406KGM  7298-1853-10             HOUSING FEMALE ASS'Y     7298185310               0         0         0         0    0    0    00000390000000390000000186000007254000
AE00TI102209130113/09/202200000000100000000000000001003KGM  00000001205KGM  7298-1865-30             HOUSING FEMALE ASS'Y     7298186530               0         0         0         0    0    0    00000240000000240000000196000004704000
AE00TI102209130113/09/202200000000100000000000000001092KGM  00000001295KGM  7298-2278-30             HOUSING FEMALE ASS'Y     7298227830               0         0         0         0    0    0    00000240000000240000000227000005448000
AE00TI102209130113/09/202200000000100000000000000001097KGM  00000001359KGM  7298-4094-10             HOUSING FEMALE ASS'Y     7298409410               0         0         0         0    0    0    00000338000000338000000241000008145800
AE00TI102209130113/09/202200000000200000000000000001963KGM  00000002580KGM  7298-5993-30             SEALED ASSY FEMALE       7298599330               0         0         0         0    0    0    00000436800000218400000266000011618880
AE00TI102209130113/09/202200000000400000000000000004920KGM  00000005690KGM  7327-6533-3W             BATTERY FUSE             732765333W               0         0         0         0    0    0    00000028800000007200010131000029177280
AE00TI102209130113/09/202200000001400000000000000015533KGM  00000017634KGM  7327-6572-3W             BATTERY FUSE             732765723W               0         0         0         0    0    0    00000134400000009600008162000109697280
AE00TI102209130113/09/202200000000300000000000000003997KGM  00000004604KGM  7327-6627-3W             BATTERY FUSE             732766273W               0         0         0         0    0    0    00000028800000009600008444000024318720
AE00TI102209130113/09/202200000002000000000000000022818KGM  00000027118KGM  7327-6840-3W             BATTERY FUSE             732768403W               0         0         0         0    0    0    00000144000000007200009909000142689600
AE00TI102209130113/09/202200000002800000000000000020776KGM  00000031416KGM  7388-2978-30             HOUSING MALE ASS'Y       7388297830               0         0         0         0    0    0    00001344000000048000001790000240576000
AE00TI102209130113/09/202200000001800000000000000023760KGM  00000028260KGM  7470-3082                J/B COMPLETE ASS'Y       74703082                 0         0         0         0    0    0    00000043200000002400031298000135207360
AE00TI102209130113/09/202200000001600000000000000000000KGM  00000000000KGM  7470-5300E               J/B COMPLETE ASS'Y       74705300E                0         0         0         0    0    0    00000016000000001000000000000000000000
AE00TI102209130113/09/202200000002000000000000000000000KGM  00000000000KGM  7470-5784D               J/B COMPLETE ASS'Y       74705784D                0         0         0         0    0    0    00000030000000001500000000000000000000
AE00TI102209130113/09/202200000003800000000000000000000KGM  00000000000KGM  7470-5784E               J/B COMPLETE ASS'Y       74705784E                0         0         0         0    0    0    00000038000000001000000000000000000000
AE00TI102209130113/09/202200000002500000000000000000000KGM  00000000000KGM  7470-5791D               J/B COMPLETE ASS'Y       74705791D                0         0         0         0    0    0    00000037500000001500000000000000000000
