AE00TI102209130313/09/202200000000100000000000000000839KGM  00000001119KGM  7C89-6868-30             SEALED ASSY FEMALE       7C89686830               0         0         0         0    0    0    00000252000000252000000335000008442000
AE00TI102209130313/09/202200000000800000000000000006739KGM  00000008581KGM  7116-2871                TERMINAL                 71162871                 0         0         0         0    0    0    00009600000001200000000043000041280000
AE00TI102209130313/09/202200000002400000000000000023580KGM  00000027502KGM  7116-2891-02             TERMINAL                 7116289102               0         0         0         0    0    0    00036000000001500000000052000187200000
AE00TI102209130313/09/202200000001600000000000000014323KGM  00000016938KGM  7116-2893-02             TERMINAL                 7116289302               0         0         0         0    0    0    00019200000001200000000054000103680000
AE00TI102209130313/09/202200000000100000000000000000828KGM  00000000986KGM  7124-1026-30             PROTECTOR                7124102630               0         0         0         0    0    0    00000300000000300000000126000003780000
AE00TI102209130313/09/202200000000900000000000000006624KGM  00000008568KGM  7154-5597-30             CASSETTE R/B             7154559730               0         0         0         0    0    0    00000720000000080000000255000018360000
AE00TI102209130313/09/202200000000900000000000000002975KGM  00000003474KGM  7158-3006-90             RUBBER STOPPER           7158300690               0         0         0         0    0    0    00018000000002000000000016000028800000
AE00TI102209130313/09/202200000001100000000000000003718KGM  00000004248KGM  7158-3009-60             RUBBER STOPPER           7158300960               0         0         0         0    0    0    00022000000002000000000012000026400000
AE00TI102209130313/09/202200000000300000000000000001403KGM  00000001572KGM  7158-3022-80             RUBBER STOPPER           7158302280               0         0         0         0    0    0    00001500000000500000000070000010500000
AE00TI102209130313/09/202200000001400000000000000001736KGM  00000002414KGM  7158-3165-90             WIRE SEAL                7158316590               0         0         0         0    0    0    00056000000004000000000006000033600000
AE00TI102209130313/09/202200000001500000000000000001560KGM  00000002286KGM  7158-3166-60             WIRE SEAL                7158316660               0         0         0         0    0    0    00060000000004000000000004000024000000
AE00TI102209130313/09/202200000004700000000000000002256KGM  00000005123KGM  7158-3167-80             WIRE SEAL                7158316780               0         0         0         0    0    0    00094000000002000000000005000047000000
AE00TI102209130313/09/202200000001800000000000000000792KGM  00000001658KGM  7158-3168-80             SEALED                   7158316880               0         0         0         0    0    0    00036000000002000000000004000014400000
AE00TI102209130313/09/202200000000800000000000000001248KGM  00000001633KGM  7158-3169-40             SEALING PLUG             7158316940               0         0         0         0    0    0    00032000000004000000000006000019200000
AE00TI102209130313/09/202200000000100000000000000001339KGM  00000001489KGM  7171-6291                HOUSING MALE             71716291                 0         0         0         0    0    0    00000019200000019200001625000003120000
AE00TI102209130313/09/202200000000800000000000000005229KGM  00000005614KGM  7172-5403-30             SEALED PACKING           7172540330               0         0         0         0    0    0    00003200000000400000000119000038080000
AE00TI102209130313/09/202200000000800000000000000004427KGM  00000008194KGM  7174-2052-30             COVER                    7174205230               0         0         0         0    0    0    00001008000000126000000237000023889600
AE00TI102209130313/09/202200000000300000000000000002879KGM  00000003737KGM  7182-2410                CONNECTOR HOUSING        71822410                 0         0         0         0    0    0    00000360000000120000000187000006732000
AE00TI102209130313/09/202200000000200000000000000002564KGM  00000002954KGM  7182-4941                DOUBLE SIDED             71824941                 0         0         0         0    0    0    00000200000000100000000816000016320000
AE00TI102209130313/09/202200000000100000000000000000951KGM  00000001230KGM  7183-0522                HOUSING                  71830522                 0         0         0         0    0    0    00000240000000240000000113000002712000
AE00TI102209130313/09/202200000000100000000000000000959KGM  00000001191KGM  7183-0522-30             HOUSING                  7183052230               0         0         0         0    0    0    00000240000000240000000121000002904000
AE00TI102209130313/09/202200000000700000000000000003903KGM  00000005763KGM  7183-1616                CONNECTOR HOUSING        71831616                 0         0         0         0    0    0    00001680000000240000000077000012936000
AE00TI102209130313/09/202200000000100000000000000001059KGM  00000001246KGM  7183-2412                HOUSING                  71832412                 0         0         0         0    0    0    00000160000000160000000155000002480000
AE00TI102209130313/09/202200000000100000000000000000478KGM  00000000760KGM  7183-2413-30             CONNECTOR HOUSING        7183241330               0         0         0         0    0    0    00000480000000480000000076000003648000
AE00TI102209130313/09/202200000000100000000000000000779KGM  00000001061KGM  7183-2414                CONNECTOR HOUSING        71832414                 0         0         0         0    0    0    00000480000000480000000050000002400000
AE00TI102209130313/09/202200000000500000000000000007476KGM  00000008855KGM  7183-2416                HOUSING                  71832416                 0         0         0         0    0    0    00001200000000240000000171000020520000
AE00TI102209130313/09/202200000000200000000000000002129KGM  00000002704KGM  7183-2419-30             HOUSING                  7183241930               0         0         0         0    0    0    00000960000000480000000093000008928000
AE00TI102209130313/09/202200000000500000000000000004861KGM  00000006211KGM  7183-2511                HOUSING                  71832511                 0         0         0         0    0    0    00000800000000160000000160000012800000
AE00TI102209130313/09/202200000000900000000000000008702KGM  00000009872KGM  7189-2978-30             HOUSING FEMALE           7189297830               0         0         0         0    0    0    00001350000000150000000161000021735000
AE00TI102209130313/09/202200000000300000000000000002900KGM  00000003375KGM  7222-7564-30             CONNECTOR                7222756430               0         0         0         0    0    0    00000150000000050000001175000017625000
AE00TI102209130313/09/202200000000100000000000000000967KGM  00000001097KGM  7222-7564-40             CONNECTOR                7222756440               0         0         0         0    0    0    00000050000000050000001166000005830000
AE00TI102209130313/09/202200000000100000000000000000827KGM  00000001027KGM  7254-5284-3W             FUSE & RELAY BLOCK       725452843W               0         0         0         0    0    0    00000002000000002000000000000000000000
AE00TI102209130313/09/202200000004000000000000000009592KGM  00000019592KGM  7271-1820-30             CASE SUB ASSY,ECU        7271182030               0         0         0         0    0    0    00000072000000001800009576000068947200
AE00TI102209130313/09/202200000003000000000000000037050KGM  00000042690KGM  7282-5574-10             CONNECTOR                7282557410               0         0         0         0    0    0    00002400000000080000000727000174480000
AE00TI102209130313/09/202200000000200000000000000002248KGM  00000002425KGM  7282-7028-30             CONNECTOR                7282702830               0         0         0         0    0    0    00000400000000200000000248000009920000
AE00TI102209130313/09/202200000000100000000000000000983KGM  00000001156KGM  7283-1064                CONNECTOR                72831064                 0         0         0         0    0    0    00000150000000150000000347000005205000
AE00TI102209130313/09/202200000000400000000000000003510KGM  00000004312KGM  7283-1156                CONNECTOR                72831156                 0         0         0         0    0    0    00000320000000080000000810000025920000
AE00TI102209130313/09/202200000000100000000000000001190KGM  00000001368KGM  7283-1927-30             CONNECTOR                7283192730               0         0         0         0    0    0    00000200000000200000000422000008440000
AE00TI102209130313/09/202200000000300000000000000003420KGM  00000003955KGM  7283-1968-30             CONNECTOR                7283196830               0         0         0         0    0    0    00000270000000090000000687000018549000
AE00TI102209130313/09/202200000000200000000000000002377KGM  00000002800KGM  7283-4855                CONNECTOR HOUSING        72834855                 0         0         0         0    0    0    00000480000000240000000272000013056000
AE00TI102209130313/09/202200000000100000000000000001368KGM  00000001586KGM  7283-7929-30             CONNECTOR                7283792930               0         0         0         0    0    0    00000300000000300000001706000051180000
AE00TI102209130313/09/202200000000100000000000000000866KGM  00000001011KGM  7288-3329-30             HOUSING MALE             7288332930               0         0         0         0    0    0    00000150000000150000000354000005310000
AE00TI102209130313/09/202200000000200000000000000001732KGM  00000002022KGM  7288-3331-30             HOUSING MALE             7288333130               0         0         0         0    0    0    00000300000000150000000354000010620000
AE00TI102209130313/09/202200000000200000000000000001721KGM  00000002011KGM  7288-3332-30             HOUSING MALE             7288333230               0         0         0         0    0    0    00000300000000150000000354000010620000
AE00TI102209130313/09/202200000000200000000000000001734KGM  00000002024KGM  7288-3334-30             HOUSING MALE             7288333430               0         0         0         0    0    0    00000300000000150000000354000010620000
AE00TI102209130313/09/202200000000900000000000000006178KGM  00000008113KGM  7289-3342                HOUSING FEMALE ASS'Y     72893342                 0         0         0         0    0    0    00002160000000240000000186000040176000
AE00TI102209130313/09/202200000005200000000000000035693KGM  00000046873KGM  7289-3342-30             HOUSING FEMALE ASS'Y     7289334230               0         0         0         0    0    0    00012480000000240000000191000238368000
AE00TI102209130313/09/202200000000300000000000000002488KGM  00000003148KGM  7289-6518-30             HOUSING FEMALE ASS'Y     7289651830               0         0         0         0    0    0    00000360000000120000000598000021528000
AE00TI102209130313/09/202200000000100000000000000000839KGM  00000001119KGM  7289-6868-30             SEALED ASSY FEMALE       7289686830               0         0         0         0    0    0    00000252000000252000000332000008366400
AE00TI102209130313/09/202200000000100000000000000001097KGM  00000001359KGM  7298-4094-10             HOUSING FEMALE ASS'Y     7298409410               0         0         0         0    0    0    00000338000000338000000241000008145800
AE00TI102209130313/09/202200000000100000000000000001025KGM  00000001183KGM  7382-1481-10             CONNECTOR                7382148110               0         0         0         0    0    0    00000080000000080000000745000005960000
