BI00B32AG    XG22114CMW     2022102118000004590              AV 8 L                   CCN000000300000000300FN00000000020221101000000300NNM   20220804150550    1W    00000010000010466200000000032AG    XGXGY   000000000000XU12A001
BI00B32AG    XG22115CMW     2022102818000004590              AV 8 L                   CCN000000600000000600FN00000000020221101000000600NNM   20220804150550    1W    00000010000010466200000000032AG    XGXGY   000000000000XU22A001
BI00B32AG    @XG22111LMW    20220930181E48031ZZ              CAVSAS-S 0.3X2 GY        CCN000000350000000350FN00000000020221101000000350NNM   20220804150549    1W    00000035000002008700000000032AG    XGXGY   000000000000XY229001
BI00B32AG    @XG22112LMW    20221007181E48031ZZ              CAVSAS-S 0.3X2 GY        CCN000005600000005600FN00000000020221101000005600NNM   20220804150549    1W    00000035000002008700000000032AG    XGXGY   000000000000XY329001
BI00B32AG    @XG22113LMW    20221012181E48031ZZ              CAVSAS-S 0.3X2 GY        CCN000003150000003150FN00000000020221101000003150NNM   20220804150549    1W    00000035000002008700000000032AG    XGXGY   000000000000XY429001
BI00B32AG    @XG22114LMW    20221021181E48031ZZ              CAVSAS-S 0.3X2 GY        CCN000004200000004200FN00000000020221101000004200NNM   20220804150549    1W    00000035000002008700000000032AG    XGXGY   000000000000XY12A001
BI00B32AG    @XG22115LMW    20221028181E48031ZZ              CAVSAS-S 0.3X2 GY        CCN000004200000004200FN00000000020221101000004200NNM   20220804150549    1W    00000035000002008700000000032AG    XGXGY   000000000000XY22A001
BI00B32G7    JW2209C MW     2022082518007703990              AVSS 0.5F L              CCN000001500000001500FN00000000020220901000001500NNE   20220804111115    1W    00000150000000674000000000032G7    JIJAI   000000000000JJ228001
BI00B32G7    @JW2209C MW    20220901181E48060ZZ              CAVSAS-S 0.5X2 GY/V      CCN000005400000005400FN00000000020220901000005400NNE   20220804111113    1W    00000030000002561000000000032G7    JIJAI   000000000000JO328001
BI00B32G7    @JW2209CLMW    20220901181AD2020ZZ              CIVUSAS-S 0.5X2 B(R,G)   CCN000002800000002800FN00000000020220901000002800NNE   20220804111114    1W    00000040000002028000000000032G7    JIJAI   000000000000JP328001
BI00B32G7    @JW2209CLMW    20220901181AD2021ZZ              CIVUSAS-S 0.35X2 B(L,GY) CCN000003150000003150FN00000000020220901000003150NNE   20220804111114    1W    00000045000001714000000000032G7    JIJAI   000000000000JP328002
BI00B32G7    @JW2209CLMW    20220901181AD2022ZZ              CIVUSAS-S 0.35X2 B(R,G)  CCN000002250000002250FN00000000020220901000002250NNE   20220804111114    1W    00000045000001714000000000032G7    JIJAI   000000000000JP328003
BI00B32G7    JW2209CMMW     202208251801W006950              IVSSH 0.35F R            CCN000002500000002500FN00000000020220901000002500NNE   20220804111115    1W    00000250000000452000000000032G7    JIJAI   000000000000JN228002
BI00B32M8    PM2209A MW     2022082418007703941              AVSS 0.5F GY             CCN000001500000001500FN00000000020220901000001500NNE   20220804083506    1W    00000150000000674000000000032M8    PMPEMI  000000000000IE228001
BI00B32M8    PM2209A MW     2022082418007704040              AVSS 0.75F W             CCN000001000000001000FN00000000020220901000001000NNE   20220804083506    1W    00000100000000943000000000032M8    PMPEMI  000000000000IE228003
BI00B32M8    PM2209A MW     2022082418007704050              AVSS 0.75F R             CCN000001000000001000FN00000000020220901000001000NNE   20220804083506    1W    00000100000000943000000000032M8    PMPEMI  000000000000IE228002
BI00B32M8    @PM2209A MW    20220831181B32039S1              AVSSCS 0.5FX1 DGY        CCN000001600000001600FN00000000020220901000001600NNE   20220804083504    1W    00000040000002289000000000032M8    PMPEMI  000000000000IG328001
BI00B32M8    @PM2209A MW    20220831181D6910239              AVSSHCS 0.5FX2 B/L       CCN000001200000001200FN00000000020220901000001200NNE   20220804083504    1W    00000030000002385000000000032M8    PMPEMI  000000000000IG328002
BI00B32M8    @PM2209AJMW    20220831181B32102Y5              AVSSCS 0.5FX2 DGY/W      CCN000000600000000600FN00000000020220901000000600NNE   20220804083505    1W    00000030000002903000000000032M8    PMPEMI  000000000000IH328001
BI00B32M8    PM2209ATMW     202208241801W00395U              IVSSH 0.5F BE            CCN000001800000001800FN00000000020220901000001800NNE   20220804083507    1W    00000180000000625000000000032M8    PMPEMI  000000000000IF228001
BI00B32M8    PM22101 MW     2022090718007703992              AVSS 0.5F V              CCN000003000000003000FN00000000020221001000003000NNM   20220804092022    1W    00000150000000674000000000032M8    PMPEMI  000000000000IM428020
BI00B32M8    PM22102 MW     2022091418007703992              AVSS 0.5F V              CCN000007500000007500FN00000000020221001000007500NNM   20220804092022    1W    00000150000000674000000000032M8    PMPEMI  000000000000IM528033
BI00B32M8    PM22103 MW     2022092118007703992              AVSS 0.5F V              CCN000006000000006000FN00000000020221001000006000NNM   20220804092022    1W    00000150000000674000000000032M8    PMPEMI  000000000000IM129028
BI00B32M8    PM22104 MW     2022092818007703992              AVSS 0.5F V              CCN000007500000007500FN00000000020221001000007500NNM   20220804092022    1W    00000150000000674000000000032M8    PMPEMI  000000000000IM229028
BI00B32M8    PM22102 MW     2022091418007704160              AVSS 1.25F G             CCN000000800000000800FN00000000020221001000000800NNM   20220804092022    1W    00000080000001389000000000032M8    PMPEMI  000000000000IM528040
BI00B32M8    PM22103 MW     2022092118007704160              AVSS 1.25F G             CCN000000800000000800FN00000000020221001000000800NNM   20220804092022    1W    00000080000001389000000000032M8    PMPEMI  000000000000IM129034
BI00B32M8    PM22104 MW     2022092818007704160              AVSS 1.25F G             CCN000000800000000800FN00000000020221001000000800NNM   20220804092022    1W    00000080000001389000000000032M8    PMPEMI  000000000000IM229034
BI00B32M8    PM22102 MW     2022091418007704190              AVSS 1.25F L             CCN000000800000000800FN00000000020221001000000800NNM   20220804092022    1W    00000080000001389000000000032M8    PMPEMI  000000000000IM528041
BI00B32M8    PM22103 MW     2022092118007704190              AVSS 1.25F L             CCN000000800000000800FN00000000020221001000000800NNM   20220804092022    1W    00000080000001389000000000032M8    PMPEMI  000000000000IM129035
BI00B32M8    PM22104 MW     2022092818007704190              AVSS 1.25F L             CCN000000800000000800FN00000000020221001000000800NNM   20220804092022    1W    00000080000001389000000000032M8    PMPEMI  000000000000IM229035
BI00B32M8    PM22102 MW     202209141801W004043              IVSSH 0.75F W/B          CCN000001300000001300FN00000000020221001000001300NNM   20220804092022    1W    00000130000000882000000000032M8    PMPEMI  000000000000IM528047
BI00B32M8    PM22103 MW     202209211801W004043              IVSSH 0.75F W/B          CCN000001300000001300FN00000000020221001000001300NNM   20220804092022    1W    00000130000000882000000000032M8    PMPEMI  000000000000IM129041
BI00B32M8    PM22104 MW     202209281801W004043              IVSSH 0.75F W/B          CCN000001300000001300FN00000000020221001000001300NNM   20220804092022    1W    00000130000000882000000000032M8    PMPEMI  000000000000IM229040
BI00B32M8    PM22101 MW     2022090718007703930              AVSS 0.5F B              CCN000006000000006000FN00000000020221001000006000NNM   20220804092022    1W    00000150000000674000000000032M8    PMPEMI  000000000000IM428013
BI00B32M8    PM22102 MW     2022091418007703930              AVSS 0.5F B              CCN000006000000006000FN00000000020221001000006000NNM   20220804092022    1W    00000150000000674000000000032M8    PMPEMI  000000000000IM528025
BI00B32M8    PM22103 MW     2022092118007703930              AVSS 0.5F B              CCN000006000000006000FN00000000020221001000006000NNM   20220804092022    1W    00000150000000674000000000032M8    PMPEMI  000000000000IM129020
BI00B32M8    PM22104 MW     2022092818007703930              AVSS 0.5F B              CCN000006000000006000FN00000000020221001000006000NNM   20220804092022    1W    00000150000000674000000000032M8    PMPEMI  000000000000IM229020
BI00B32M8    PM22101 MW     2022090718007703940              AVSS 0.5F W              CCN000010500000010500FN00000000020221001000010500NNM   20220804092022    1W    00000150000000674000000000032M8    PMPEMI  000000000000IM428021
BI00B32M8    PM22102 MW     2022091418007703940              AVSS 0.5F W              CCN000012000000012000FN00000000020221001000012000NNM   20220804092022    1W    00000150000000674000000000032M8    PMPEMI  000000000000IM528034
BI00B32M8    PM22103 MW     2022092118007703940              AVSS 0.5F W              CCN000010500000010500FN00000000020221001000010500NNM   20220804092022    1W    00000150000000674000000000032M8    PMPEMI  000000000000IM129029
BI00B32M8    PM22104 MW     2022092818007703940              AVSS 0.5F W              CCN000010500000010500FN00000000020221001000010500NNM   20220804092022    1W    00000150000000674000000000032M8    PMPEMI  000000000000IM229029
BI00B32M8    PM22101 MW     2022090718007703941              AVSS 0.5F GY             CCN000001500000001500FN00000000020221001000001500NNM   20220804092022    1W    00000150000000674000000000032M8    PMPEMI  000000000000IM428015
BI00B32M8    PM22102 MW     2022091418007703941              AVSS 0.5F GY             CCN000003000000003000FN00000000020221001000003000NNM   20220804092022    1W    00000150000000674000000000032M8    PMPEMI  000000000000IM528028
BI00B32M8    PM22103 MW     2022092118007703941              AVSS 0.5F GY             CCN000001500000001500FN00000000020221001000001500NNM   20220804092022    1W    00000150000000674000000000032M8    PMPEMI  000000000000IM129023
BI00B32M8    PM22104 MW     2022092818007703941              AVSS 0.5F GY             CCN000001500000001500FN00000000020221001000001500NNM   20220804092022    1W    00000150000000674000000000032M8    PMPEMI  000000000000IM229023
BI00B32M8    PM22102 MW     2022091418007703943              AVSS 0.5F W/B            CCN000001500000001500FN00000000020221001000001500NNM   20220804092022    1W    00000150000000674000000000032M8    PMPEMI  000000000000IM528035
BI00B32M8    PM22101 MW     2022090718007703950              AVSS 0.5F R              CCN000006000000006000FN00000000020221001000006000NNM   20220804092022    1W    00000150000000674000000000032M8    PMPEMI  000000000000IM428019
BI00B32M8    PM22102 MW     2022091418007703950              AVSS 0.5F R              CCN000012000000012000FN00000000020221001000012000NNM   20220804092022    1W    00000150000000674000000000032M8    PMPEMI  000000000000IM528032
BI00B32M8    PM22103 MW     2022092118007703950              AVSS 0.5F R              CCN000010500000010500FN00000000020221001000010500NNM   20220804092022    1W    00000150000000674000000000032M8    PMPEMI  000000000000IM129027
BI00B32M8    PM22104 MW     2022092818007703950              AVSS 0.5F R              CCN000010500000010500FN00000000020221001000010500NNM   20220804092022    1W    00000150000000674000000000032M8    PMPEMI  000000000000IM229027
BI00B32M8    PM22101 MW     2022090718007703952              AVSS 0.5F P              CCN000003000000003000FN00000000020221001000003000NNM   20220804092022    1W    00000150000000674000000000032M8    PMPEMI  000000000000IM428018
BI00B32M8    PM22102 MW     2022091418007703952              AVSS 0.5F P              CCN000004500000004500FN00000000020221001000004500NNM   20220804092022    1W    00000150000000674000000000032M8    PMPEMI  000000000000IM528031
BI00B32M8    PM22103 MW     2022092118007703952              AVSS 0.5F P              CCN000004500000004500FN00000000020221001000004500NNM   20220804092022    1W    00000150000000674000000000032M8    PMPEMI  000000000000IM129026
BI00B32M8    PM22104 MW     2022092818007703952              AVSS 0.5F P              CCN000003000000003000FN00000000020221001000003000NNM   20220804092022    1W    00000150000000674000000000032M8    PMPEMI  000000000000IM229026
BI00B32M8    PM22102 MW     2022091418007703960              AVSS 0.5F G              CCN000006000000006000FN00000000020221001000006000NNM   20220804092022    1W    00000150000000674000000000032M8    PMPEMI  000000000000IM528027
BI00B32M8    PM22103 MW     2022092118007703960              AVSS 0.5F G              CCN000007500000007500FN00000000020221001000007500NNM   20220804092022    1W    00000150000000674000000000032M8    PMPEMI  000000000000IM129022
BI00B32M8    PM22104 MW     2022092818007703960              AVSS 0.5F G              CCN000007500000007500FN00000000020221001000007500NNM   20220804092022    1W    00000150000000674000000000032M8    PMPEMI  000000000000IM229022
BI00B32M8    PM22101 MW     2022090718007703961              AVSS 0.5F LG             CCN000003000000003000FN00000000020221001000003000NNM   20220804092022    1W    00000150000000674000000000032M8    PMPEMI  000000000000IM428017
BI00B32M8    PM22102 MW     2022091418007703961              AVSS 0.5F LG             CCN000004500000004500FN00000000020221001000004500NNM   20220804092022    1W    00000150000000674000000000032M8    PMPEMI  000000000000IM528030
BI00B32M8    PM22103 MW     2022092118007703961              AVSS 0.5F LG             CCN000004500000004500FN00000000020221001000004500NNM   20220804092022    1W    00000150000000674000000000032M8    PMPEMI  000000000000IM129025
BI00B32M8    PM22104 MW     2022092818007703961              AVSS 0.5F LG             CCN000003000000003000FN00000000020221001000003000NNM   20220804092022    1W    00000150000000674000000000032M8    PMPEMI  000000000000IM229025
BI00B32M8    PM22101 MW     2022090718007703970              AVSS 0.5F Y              CCN000004500000004500FN00000000020221001000004500NNM   20220804092022    1W    00000150000000674000000000032M8    PMPEMI  000000000000IM428022
BI00B32M8    PM22102 MW     2022091418007703970              AVSS 0.5F Y              CCN000004500000004500FN00000000020221001000004500NNM   20220804092022    1W    00000150000000674000000000032M8    PMPEMI  000000000000IM528036
BI00B32M8    PM22103 MW     2022092118007703970              AVSS 0.5F Y              CCN000004500000004500FN00000000020221001000004500NNM   20220804092022    1W    00000150000000674000000000032M8    PMPEMI  000000000000IM129030
BI00B32M8    PM22104 MW     2022092818007703970              AVSS 0.5F Y              CCN000004500000004500FN00000000020221001000004500NNM   20220804092022    1W    00000150000000674000000000032M8    PMPEMI  000000000000IM229030
BI00B32M8    PM22101 MW     2022090718007703980              AVSS 0.5F BR             CCN000001500000001500FN00000000020221001000001500NNM   20220804092022    1W    00000150000000674000000000032M8    PMPEMI  000000000000IM428014
BI00B32M8    PM22102 MW     2022091418007703980              AVSS 0.5F BR             CCN000003000000003000FN00000000020221001000003000NNM   20220804092022    1W    00000150000000674000000000032M8    PMPEMI  000000000000IM528026
BI00B32M8    PM22103 MW     2022092118007703980              AVSS 0.5F BR             CCN000001500000001500FN00000000020221001000001500NNM   20220804092022    1W    00000150000000674000000000032M8    PMPEMI  000000000000IM129021
BI00B32M8    PM22104 MW     2022092818007703980              AVSS 0.5F BR             CCN000001500000001500FN00000000020221001000001500NNM   20220804092022    1W    00000150000000674000000000032M8    PMPEMI  000000000000IM229021
BI00B32M8    PM22101 MW     2022090718007703990              AVSS 0.5F L              CCN000003000000003000FN00000000020221001000003000NNM   20220804092022    1W    00000150000000674000000000032M8    PMPEMI  000000000000IM428016
BI00B32M8    PM22102 MW     2022091418007703990              AVSS 0.5F L              CCN000004500000004500FN00000000020221001000004500NNM   20220804092022    1W    00000150000000674000000000032M8    PMPEMI  000000000000IM528029
BI00B32M8    PM22103 MW     2022092118007703990              AVSS 0.5F L              CCN000004500000004500FN00000000020221001000004500NNM   20220804092022    1W    00000150000000674000000000032M8    PMPEMI  000000000000IM129024
BI00B32M8    PM22104 MW     2022092818007703990              AVSS 0.5F L              CCN000004500000004500FN00000000020221001000004500NNM   20220804092022    1W    00000150000000674000000000032M8    PMPEMI  000000000000IM229024
BI00B32M8    PM22101 MW     2022090718007704040              AVSS 0.75F W             CCN000001000000001000FN00000000020221001000001000NNM   20220804092022    1W    00000100000000943000000000032M8    PMPEMI  000000000000IM428023
BI00B32M8    PM22102 MW     2022091418007704040              AVSS 0.75F W             CCN000001000000001000FN00000000020221001000001000NNM   20220804092022    1W    00000100000000943000000000032M8    PMPEMI  000000000000IM528038
BI00B32M8    PM22103 MW     2022092118007704040              AVSS 0.75F W             CCN000001000000001000FN00000000020221001000001000NNM   20220804092022    1W    00000100000000943000000000032M8    PMPEMI  000000000000IM129032
BI00B32M8    PM22104 MW     2022092818007704040              AVSS 0.75F W             CCN000001000000001000FN00000000020221001000001000NNM   20220804092022    1W    00000100000000943000000000032M8    PMPEMI  000000000000IM229032
BI00B32M8    PM22102 MW     2022091418007704050              AVSS 0.75F R             CCN000001000000001000FN00000000020221001000001000NNM   20220804092022    1W    00000100000000943000000000032M8    PMPEMI  000000000000IM528037
BI00B32M8    PM22103 MW     2022092118007704050              AVSS 0.75F R             CCN000001000000001000FN00000000020221001000001000NNM   20220804092022    1W    00000100000000943000000000032M8    PMPEMI  000000000000IM129031
BI00B32M8    PM22104 MW     2022092818007704050              AVSS 0.75F R             CCN000001000000001000FN00000000020221001000001000NNM   20220804092022    1W    00000100000000943000000000032M8    PMPEMI  000000000000IM229031
BI00B32M8    PM22101 MW     2022090718007704140              AVSS 1.25F W             CCN000000800000000800FN00000000020221001000000800NNM   20220804092022    1W    00000080000001389000000000032M8    PMPEMI  000000000000IM428026
BI00B32M8    PM22102 MW     2022091418007704140              AVSS 1.25F W             CCN000001600000001600FN00000000020221001000001600NNM   20220804092022    1W    00000080000001389000000000032M8    PMPEMI  000000000000IM528045
BI00B32M8    PM22103 MW     2022092118007704140              AVSS 1.25F W             CCN000000800000000800FN00000000020221001000000800NNM   20220804092022    1W    00000080000001389000000000032M8    PMPEMI  000000000000IM129039
BI00B32M8    PM22104 MW     2022092818007704140              AVSS 1.25F W             CCN000001600000001600FN00000000020221001000001600NNM   20220804092022    1W    00000080000001389000000000032M8    PMPEMI  000000000000IM229038
BI00B32M8    PM22101 MW     2022090718007704150              AVSS 1.25F R             CCN000000800000000800FN00000000020221001000000800NNM   20220804092022    1W    00000080000001389000000000032M8    PMPEMI  000000000000IM428025
BI00B32M8    PM22102 MW     2022091418007704150              AVSS 1.25F R             CCN000000800000000800FN00000000020221001000000800NNM   20220804092022    1W    00000080000001389000000000032M8    PMPEMI  000000000000IM528043
BI00B32M8    PM22103 MW     2022092118007704150              AVSS 1.25F R             CCN000000800000000800FN00000000020221001000000800NNM   20220804092022    1W    00000080000001389000000000032M8    PMPEMI  000000000000IM129037
BI00B32M8    PM22101 MW     2022090718007704152              AVSS 1.25F P             CCN000000800000000800FN00000000020221001000000800NNM   20220804092022    1W    00000080000001389000000000032M8    PMPEMI  000000000000IM428024
BI00B32M8    PM22102 MW     2022091418007704152              AVSS 1.25F P             CCN000002400000002400FN00000000020221001000002400NNM   20220804092022    1W    00000080000001389000000000032M8    PMPEMI  000000000000IM528042
BI00B32M8    PM22103 MW     2022092118007704152              AVSS 1.25F P             CCN000001600000001600FN00000000020221001000001600NNM   20220804092022    1W    00000080000001389000000000032M8    PMPEMI  000000000000IM129036
BI00B32M8    PM22104 MW     2022092818007704152              AVSS 1.25F P             CCN000001600000001600FN00000000020221001000001600NNM   20220804092022    1W    00000080000001389000000000032M8    PMPEMI  000000000000IM229036
BI00B32M8    PM22101 MW     2022090718007704170              AVSS 1.25F Y             CCN000000800000000800FN00000000020221001000000800NNM   20220804092022    1W    00000080000001389000000000032M8    PMPEMI  000000000000IM428027
BI00B32M8    PM22102 MW     2022091418007704170              AVSS 1.25F Y             CCN000001600000001600FN00000000020221001000001600NNM   20220804092022    1W    00000080000001389000000000032M8    PMPEMI  000000000000IM528046
BI00B32M8    PM22103 MW     2022092118007704170              AVSS 1.25F Y             CCN000000800000000800FN00000000020221001000000800NNM   20220804092022    1W    00000080000001389000000000032M8    PMPEMI  000000000000IM129040
BI00B32M8    PM22104 MW     2022092818007704170              AVSS 1.25F Y             CCN000000800000000800FN00000000020221001000000800NNM   20220804092022    1W    00000080000001389000000000032M8    PMPEMI  000000000000IM229039
BI00B32M8    PM22102 MW     2022091418007704180              AVSS 1.25F BR            CCN000000800000000800FN00000000020221001000000800NNM   20220804092022    1W    00000080000001389000000000032M8    PMPEMI  000000000000IM528039
BI00B32M8    PM22103 MW     2022092118007704180              AVSS 1.25F BR            CCN000000800000000800FN00000000020221001000000800NNM   20220804092022    1W    00000080000001389000000000032M8    PMPEMI  000000000000IM129033
BI00B32M8    PM22104 MW     2022092818007704180              AVSS 1.25F BR            CCN000000800000000800FN00000000020221001000000800NNM   20220804092022    1W    00000080000001389000000000032M8    PMPEMI  000000000000IM229033
BI00B32M8    PM22102 MW     2022091418007704192              AVSS 1.25F V             CCN000000800000000800FN00000000020221001000000800NNM   20220804092022    1W    00000080000001389000000000032M8    PMPEMI  000000000000IM528044
BI00B32M8    PM22103 MW     2022092118007704192              AVSS 1.25F V             CCN000000800000000800FN00000000020221001000000800NNM   20220804092022    1W    00000080000001389000000000032M8    PMPEMI  000000000000IM129038
BI00B32M8    PM22104 MW     2022092818007704192              AVSS 1.25F V             CCN000000800000000800FN00000000020221001000000800NNM   20220804092022    1W    00000080000001389000000000032M8    PMPEMI  000000000000IM229037
BI00B32M8    @PM22102 MW    20220914181B0910241              CAVSAS 0.5X2 GY          CCN000001800000001800FN00000000020221001000001800NNM   20220804092019    1W    00000030000002680000000000032M8    PMPEMI  000000000000IM528005
BI00B32M8    @PM22103 MW    20220921181B0910241              CAVSAS 0.5X2 GY          CCN000001800000001800FN00000000020221001000001800NNM   20220804092019    1W    00000030000002680000000000032M8    PMPEMI  000000000000IM129001
BI00B32M8    @PM22101 MW    20220907181B32037Z5              AVSSCS 0.3FX1 DGY/L      CCN000001500000001500FN00000000020221001000001500NNM   20220804092019    1W    00000050000001780000000000032M8    PMPEMI  000000000000IM428004
BI00B32M8    @PM22102 MW    20220914181B32037Z5              AVSSCS 0.3FX1 DGY/L      CCN000001500000001500FN00000000020221001000001500NNM   20220804092019    1W    00000050000001780000000000032M8    PMPEMI  000000000000IM528006
BI00B32M8    @PM22103 MW    20220921181B32037Z5              AVSSCS 0.3FX1 DGY/L      CCN000001500000001500FN00000000020221001000001500NNM   20220804092019    1W    00000050000001780000000000032M8    PMPEMI  000000000000IM129002
BI00B32M8    @PM22101 MW    20220907181B32039S1              AVSSCS 0.5FX1 DGY        CCN000001600000001600FN00000000020221001000001600NNM   20220804092019    1W    00000040000002289000000000032M8    PMPEMI  000000000000IM428005
BI00B32M8    @PM22102 MW    20220914181B32039S1              AVSSCS 0.5FX1 DGY        CCN000002000000002000FN00000000020221001000002000NNM   20220804092019    1W    00000040000002289000000000032M8    PMPEMI  000000000000IM528007
BI00B32M8    @PM22103 MW    20220921181B32039S1              AVSSCS 0.5FX1 DGY        CCN000001600000001600FN00000000020221001000001600NNM   20220804092019    1W    00000040000002289000000000032M8    PMPEMI  000000000000IM129003
BI00B32M8    @PM22104 MW    20220928181B32039S1              AVSSCS 0.5FX1 DGY        CCN000001600000001600FN00000000020221001000001600NNM   20220804092019    1W    00000040000002289000000000032M8    PMPEMI  000000000000IM229004
BI00B32M8    @PM22102 MW    20220914181B32102Y8              AVSSCS 0.5FX2 DGY/R      CCN000000300000000300FN00000000020221001000000300NNM   20220804092019    1W    00000030000002903000000000032M8    PMPEMI  000000000000IM528008
BI00B32M8    @PM22103 MW    20220921181B32102Y8              AVSSCS 0.5FX2 DGY/R      CCN000000300000000300FN00000000020221001000000300NNM   20220804092019    1W    00000030000002903000000000032M8    PMPEMI  000000000000IM129004
BI00B32M8    @PM22101 MW    20220907181D6910235              AVSSHCS 0.5FX2 B/R       CCN000001200000001200FN00000000020221001000001200NNM   20220804092019    1W    00000030000002385000000000032M8    PMPEMI  000000000000IM428007
BI00B32M8    @PM22102 MW    20220914181D6910235              AVSSHCS 0.5FX2 B/R       CCN000001500000001500FN00000000020221001000001500NNM   20220804092019    1W    00000030000002385000000000032M8    PMPEMI  000000000000IM528010
BI00B32M8    @PM22103 MW    20220921181D6910235              AVSSHCS 0.5FX2 B/R       CCN000001500000001500FN00000000020221001000001500NNM   20220804092019    1W    00000030000002385000000000032M8    PMPEMI  000000000000IM129006
BI00B32M8    @PM22104 MW    20220928181D6910235              AVSSHCS 0.5FX2 B/R       CCN000001200000001200FN00000000020221001000001200NNM   20220804092019    1W    00000030000002385000000000032M8    PMPEMI  000000000000IM229006
BI00B32M8    @PM22101 MW    20220907181D6910239              AVSSHCS 0.5FX2 B/L       CCN000001200000001200FN00000000020221001000001200NNM   20220804092019    1W    00000030000002385000000000032M8    PMPEMI  000000000000IM428006
BI00B32M8    @PM22102 MW    20220914181D6910239              AVSSHCS 0.5FX2 B/L       CCN000001200000001200FN00000000020221001000001200NNM   20220804092019    1W    00000030000002385000000000032M8    PMPEMI  000000000000IM528009
BI00B32M8    @PM22103 MW    20220921181D6910239              AVSSHCS 0.5FX2 B/L       CCN000001200000001200FN00000000020221001000001200NNM   20220804092019    1W    00000030000002385000000000032M8    PMPEMI  000000000000IM129005
BI00B32M8    @PM22104 MW    20220928181D6910239              AVSSHCS 0.5FX2 B/L       CCN000001200000001200FN00000000020221001000001200NNM   20220804092019    1W    00000030000002385000000000032M8    PMPEMI  000000000000IM229005
BI00B32M8    @PM22101 MW    20220907181F21008ZZ              AVSSHCS-S 0.5FX1 B/V     CCN000000800000000800FN00000000020221001000000800NNM   20220804092019    1W    00000040000001908400000000032M8    PMPEMI  000000000000IM428008
BI00B32M8    @PM22102 MW    20220914181F21008ZZ              AVSSHCS-S 0.5FX1 B/V     CCN000001600000001600FN00000000020221001000001600NNM   20220804092019    1W    00000040000001908400000000032M8    PMPEMI  000000000000IM528011
BI00B32M8    @PM22103 MW    20220921181F21008ZZ              AVSSHCS-S 0.5FX1 B/V     CCN000001600000001600FN00000000020221001000001600NNM   20220804092019    1W    00000040000001908400000000032M8    PMPEMI  000000000000IM129007
BI00B32M8    @PM22104 MW    20220928181F21008ZZ              AVSSHCS-S 0.5FX1 B/V     CCN000001600000001600FN00000000020221001000001600NNM   20220804092019    1W    00000040000001908400000000032M8    PMPEMI  000000000000IM229007
BI00B32M8    @PM22101 MW    20220907181F21009ZZ              AVSSHCS-S 0.5FX2 B       CCN000000600000000600FN00000000020221001000000600NNM   20220804092019    1W    00000030000002531400000000032M8    PMPEMI  000000000000IM428009
BI00B32M8    @PM22102 MW    20220914181F21009ZZ              AVSSHCS-S 0.5FX2 B       CCN000003900000003900FN00000000020221001000003900NNM   20220804092019    1W    00000030000002531400000000032M8    PMPEMI  000000000000IM528012
BI00B32M8    @PM22103 MW    20220921181F21009ZZ              AVSSHCS-S 0.5FX2 B       CCN000003900000003900FN00000000020221001000003900NNM   20220804092019    1W    00000030000002531400000000032M8    PMPEMI  000000000000IM129008
BI00B32M8    @PM22104 MW    20220928181F21009ZZ              AVSSHCS-S 0.5FX2 B       CCN000003900000003900FN00000000020221001000003900NNM   20220804092019    1W    00000030000002531400000000032M8    PMPEMI  000000000000IM229008
BI00B32M8    @PM22101JMW    20220907181B32102Y5              AVSSCS 0.5FX2 DGY/W      CCN000000600000000600FN00000000020221001000000600NNM   20220804092020    1W    00000030000002903000000000032M8    PMPEMI  000000000000IJ428001
BI00B32M8    @PM22102JMW    20220914181B32102Y5              AVSSCS 0.5FX2 DGY/W      CCN000000600000000600FN00000000020221001000000600NNM   20220804092020    1W    00000030000002903000000000032M8    PMPEMI  000000000000IJ528001
BI00B32M8    @PM22103JMW    20220921181B32102Y5              AVSSCS 0.5FX2 DGY/W      CCN000000600000000600FN00000000020221001000000600NNM   20220804092020    1W    00000030000002903000000000032M8    PMPEMI  000000000000IJ129001
BI00B32M8    @PM22104JMW    20220928181B32102Y5              AVSSCS 0.5FX2 DGY/W      CCN000000600000000600FN00000000020221001000000600NNM   20220804092020    1W    00000030000002903000000000032M8    PMPEMI  000000000000IJ229001
BI00B32M8    PM22102TMW     202209141801W003930              IVSSH 0.5F B             CCN000012600000012600FN00000000020221001000012600NNM   20220804092023    1W    00000180000000625000000000032M8    PMPEMI  000000000000IT528012
BI00B32M8    PM22103TMW     202209211801W003930              IVSSH 0.5F B             CCN000028800000028800FN00000000020221001000028800NNM   20220804092023    1W    00000180000000625000000000032M8    PMPEMI  000000000000IT129010
BI00B32M8    PM22104TMW     202209281801W003930              IVSSH 0.5F B             CCN000028800000028800FN00000000020221001000028800NNM   20220804092023    1W    00000180000000625000000000032M8    PMPEMI  000000000000IT229006
BI00B32M8    PM22102TMW     202209141801W003940              IVSSH 0.5F W             CCN000005400000005400FN00000000020221001000005400NNM   20220804092023    1W    00000180000000625000000000032M8    PMPEMI  000000000000IT528022
BI00B32M8    PM22103TMW     202209211801W003940              IVSSH 0.5F W             CCN000019800000019800FN00000000020221001000019800NNM   20220804092023    1W    00000180000000625000000000032M8    PMPEMI  000000000000IT129019
BI00B32M8    PM22104TMW     202209281801W003940              IVSSH 0.5F W             CCN000019800000019800FN00000000020221001000019800NNM   20220804092023    1W    00000180000000625000000000032M8    PMPEMI  000000000000IT229015
BI00B32M8    PM22102TMW     202209141801W003941              IVSSH 0.5F GY            CCN000009000000009000FN00000000020221001000009000NNM   20220804092023    1W    00000180000000625000000000032M8    PMPEMI  000000000000IT528015
BI00B32M8    PM22103TMW     202209211801W003941              IVSSH 0.5F GY            CCN000010800000010800FN00000000020221001000010800NNM   20220804092023    1W    00000180000000625000000000032M8    PMPEMI  000000000000IT129013
BI00B32M8    PM22104TMW     202209281801W003941              IVSSH 0.5F GY            CCN000010800000010800FN00000000020221001000010800NNM   20220804092023    1W    00000180000000625000000000032M8    PMPEMI  000000000000IT229009
BI00B32M8    PM22102TMW     202209141801W003943              IVSSH 0.5F W/B           CCN000010800000010800FN00000000020221001000010800NNM   20220804092023    1W    00000180000000625000000000032M8    PMPEMI  000000000000IT528023
BI00B32M8    PM22103TMW     202209211801W003943              IVSSH 0.5F W/B           CCN000018000000018000FN00000000020221001000018000NNM   20220804092023    1W    00000180000000625000000000032M8    PMPEMI  000000000000IT129020
BI00B32M8    PM22104TMW     202209281801W003943              IVSSH 0.5F W/B           CCN000018000000018000FN00000000020221001000018000NNM   20220804092023    1W    00000180000000625000000000032M8    PMPEMI  000000000000IT229016
BI00B32M8    PM22101TMW     202209071801W00395U              IVSSH 0.5F BE            CCN000003600000003600FN00000000020221001000003600NNM   20220804092023    1W    00000180000000625000000000032M8    PMPEMI  000000000000IT428006
BI00B32M8    PM22102TMW     202209141801W00395U              IVSSH 0.5F BE            CCN000003600000003600FN00000000020221001000003600NNM   20220804092023    1W    00000180000000625000000000032M8    PMPEMI  000000000000IT528013
BI00B32M8    PM22103TMW     202209211801W00395U              IVSSH 0.5F BE            CCN000003600000003600FN00000000020221001000003600NNM   20220804092023    1W    00000180000000625000000000032M8    PMPEMI  000000000000IT129011
BI00B32M8    PM22104TMW     202209281801W00395U              IVSSH 0.5F BE            CCN000003600000003600FN00000000020221001000003600NNM   20220804092023    1W    00000180000000625000000000032M8    PMPEMI  000000000000IT229007
BI00B32M8    PM22102TMW     202209141801W003950              IVSSH 0.5F R             CCN000030600000030600FN00000000020221001000030600NNM   20220804092023    1W    00000180000000625000000000032M8    PMPEMI  000000000000IT528019
BI00B32M8    PM22103TMW     202209211801W003950              IVSSH 0.5F R             CCN000034200000034200FN00000000020221001000034200NNM   20220804092023    1W    00000180000000625000000000032M8    PMPEMI  000000000000IT129017
BI00B32M8    PM22104TMW     202209281801W003950              IVSSH 0.5F R             CCN000034200000034200FN00000000020221001000034200NNM   20220804092023    1W    00000180000000625000000000032M8    PMPEMI  000000000000IT229013
BI00B32M8    PM22101TMW     202209071801W003952              IVSSH 0.5F P             CCN000001800000001800FN00000000020221001000001800NNM   20220804092023    1W    00000180000000625000000000032M8    PMPEMI  000000000000IT428008
BI00B32M8    PM22102TMW     202209141801W003952              IVSSH 0.5F P             CCN000010800000010800FN00000000020221001000010800NNM   20220804092023    1W    00000180000000625000000000032M8    PMPEMI  000000000000IT528018
BI00B32M8    PM22103TMW     202209211801W003952              IVSSH 0.5F P             CCN000012600000012600FN00000000020221001000012600NNM   20220804092023    1W    00000180000000625000000000032M8    PMPEMI  000000000000IT129016
BI00B32M8    PM22104TMW     202209281801W003952              IVSSH 0.5F P             CCN000012600000012600FN00000000020221001000012600NNM   20220804092023    1W    00000180000000625000000000032M8    PMPEMI  000000000000IT229012
BI00B32M8    PM22102TMW     202209141801W003960              IVSSH 0.5F G             CCN000016200000016200FN00000000020221001000016200NNM   20220804092023    1W    00000180000000625000000000032M8    PMPEMI  000000000000IT528014
BI00B32M8    PM22103TMW     202209211801W003960              IVSSH 0.5F G             CCN000019800000019800FN00000000020221001000019800NNM   20220804092023    1W    00000180000000625000000000032M8    PMPEMI  000000000000IT129012
BI00B32M8    PM22104TMW     202209281801W003960              IVSSH 0.5F G             CCN000019800000019800FN00000000020221001000019800NNM   20220804092023    1W    00000180000000625000000000032M8    PMPEMI  000000000000IT229008
BI00B32M8    PM22102TMW     202209141801W003961              IVSSH 0.5F LG            CCN000007200000007200FN00000000020221001000007200NNM   20220804092023    1W    00000180000000625000000000032M8    PMPEMI  000000000000IT528017
BI00B32M8    PM22103TMW     202209211801W003961              IVSSH 0.5F LG            CCN000009000000009000FN00000000020221001000009000NNM   20220804092023    1W    00000180000000625000000000032M8    PMPEMI  000000000000IT129015
BI00B32M8    PM22104TMW     202209281801W003961              IVSSH 0.5F LG            CCN000009000000009000FN00000000020221001000009000NNM   20220804092023    1W    00000180000000625000000000032M8    PMPEMI  000000000000IT229011
BI00B32M8    PM22102TMW     202209141801W003970              IVSSH 0.5F Y             CCN000005400000005400FN00000000020221001000005400NNM   20220804092023    1W    00000180000000625000000000032M8    PMPEMI  000000000000IT528024
BI00B32M8    PM22103TMW     202209211801W003970              IVSSH 0.5F Y             CCN000025200000025200FN00000000020221001000025200NNM   20220804092023    1W    00000180000000625000000000032M8    PMPEMI  000000000000IT129021
BI00B32M8    PM22104TMW     202209281801W003970              IVSSH 0.5F Y             CCN000025200000025200FN00000000020221001000025200NNM   20220804092023    1W    00000180000000625000000000032M8    PMPEMI  000000000000IT229017
BI00B32M8    PM22101TMW     202209071801W003990              IVSSH 0.5F L             CCN000001800000001800FN00000000020221001000001800NNM   20220804092023    1W    00000180000000625000000000032M8    PMPEMI  000000000000IT428007
BI00B32M8    PM22102TMW     202209141801W003990              IVSSH 0.5F L             CCN000025200000025200FN00000000020221001000025200NNM   20220804092023    1W    00000180000000625000000000032M8    PMPEMI  000000000000IT528016
BI00B32M8    PM22103TMW     202209211801W003990              IVSSH 0.5F L             CCN000025200000025200FN00000000020221001000025200NNM   20220804092023    1W    00000180000000625000000000032M8    PMPEMI  000000000000IT129014
BI00B32M8    PM22104TMW     202209281801W003990              IVSSH 0.5F L             CCN000025200000025200FN00000000020221001000025200NNM   20220804092023    1W    00000180000000625000000000032M8    PMPEMI  000000000000IT229010
BI00B32M8    PM22101TMW     202209071801W003991              IVSSH 0.5F SB            CCN000003600000003600FN00000000020221001000003600NNM   20220804092023    1W    00000180000000625000000000032M8    PMPEMI  000000000000IT428009
BI00B32M8    PM22102TMW     202209141801W003991              IVSSH 0.5F SB            CCN000009000000009000FN00000000020221001000009000NNM   20220804092023    1W    00000180000000625000000000032M8    PMPEMI  000000000000IT528020
BI00B32M8    PM22103TMW     202209211801W003991              IVSSH 0.5F SB            CCN000009000000009000FN00000000020221001000009000NNM   20220804092023    1W    00000180000000625000000000032M8    PMPEMI  000000000000IT129018
BI00B32M8    PM22104TMW     202209281801W003991              IVSSH 0.5F SB            CCN000007200000007200FN00000000020221001000007200NNM   20220804092023    1W    00000180000000625000000000032M8    PMPEMI  000000000000IT229014
BI00B32M8    PM22102TMW     202209141801W003992              IVSSH 0.5F V             CCN000001800000001800FN00000000020221001000001800NNM   20220804092023    1W    00000180000000625000000000032M8    PMPEMI  000000000000IT528021
BI00B32M8    PM22101TMW     202209071801W004030              IVSSH 0.75F B            CCN000005200000005200FN00000000020221001000005200NNM   20220804092023    1W    00000130000000882000000000032M8    PMPEMI  000000000000IT428010
BI00B32M8    PM22102TMW     202209141801W004030              IVSSH 0.75F B            CCN000006500000006500FN00000000020221001000006500NNM   20220804092023    1W    00000130000000882000000000032M8    PMPEMI  000000000000IT528025
BI00B32M8    PM22103TMW     202209211801W004030              IVSSH 0.75F B            CCN000005200000005200FN00000000020221001000005200NNM   20220804092023    1W    00000130000000882000000000032M8    PMPEMI  000000000000IT129022
BI00B32M8    PM22104TMW     202209281801W004030              IVSSH 0.75F B            CCN000005200000005200FN00000000020221001000005200NNM   20220804092023    1W    00000130000000882000000000032M8    PMPEMI  000000000000IT229018
BI00B32M8    PM22101TMW     202209071801W004040              IVSSH 0.75F W            CCN000002600000002600FN00000000020221001000002600NNM   20220804092023    1W    00000130000000882000000000032M8    PMPEMI  000000000000IT428013
BI00B32M8    PM22102TMW     202209141801W004040              IVSSH 0.75F W            CCN000003900000003900FN00000000020221001000003900NNM   20220804092023    1W    00000130000000882000000000032M8    PMPEMI  000000000000IT528029
BI00B32M8    PM22103TMW     202209211801W004040              IVSSH 0.75F W            CCN000002600000002600FN00000000020221001000002600NNM   20220804092023    1W    00000130000000882000000000032M8    PMPEMI  000000000000IT129026
BI00B32M8    PM22104TMW     202209281801W004040              IVSSH 0.75F W            CCN000002600000002600FN00000000020221001000002600NNM   20220804092023    1W    00000130000000882000000000032M8    PMPEMI  000000000000IT229021
BI00B32M8    PM22102TMW     202209141801W004050              IVSSH 0.75F R            CCN000001300000001300FN00000000020221001000001300NNM   20220804092023    1W    00000130000000882000000000032M8    PMPEMI  000000000000IT528028
BI00B32M8    PM22103TMW     202209211801W004050              IVSSH 0.75F R            CCN000002600000002600FN00000000020221001000002600NNM   20220804092023    1W    00000130000000882000000000032M8    PMPEMI  000000000000IT129025
BI00B32M8    PM22104TMW     202209281801W004050              IVSSH 0.75F R            CCN000001300000001300FN00000000020221001000001300NNM   20220804092023    1W    00000130000000882000000000032M8    PMPEMI  000000000000IT229020
BI00B32M8    PM22101TMW     202209071801W004060              IVSSH 0.75F G            CCN000001300000001300FN00000000020221001000001300NNM   20220804092023    1W    00000130000000882000000000032M8    PMPEMI  000000000000IT428011
BI00B32M8    PM22102TMW     202209141801W004060              IVSSH 0.75F G            CCN000001300000001300FN00000000020221001000001300NNM   20220804092023    1W    00000130000000882000000000032M8    PMPEMI  000000000000IT528026
BI00B32M8    PM22103TMW     202209211801W004060              IVSSH 0.75F G            CCN000001300000001300FN00000000020221001000001300NNM   20220804092023    1W    00000130000000882000000000032M8    PMPEMI  000000000000IT129023
BI00B32M8    PM22104TMW     202209281801W004060              IVSSH 0.75F G            CCN000001300000001300FN00000000020221001000001300NNM   20220804092023    1W    00000130000000882000000000032M8    PMPEMI  000000000000IT229019
BI00B32M8    PM22101TMW     202209071801W004061              IVSSH 0.75F LG           CCN000001300000001300FN00000000020221001000001300NNM   20220804092023    1W    00000130000000882000000000032M8    PMPEMI  000000000000IT428012
BI00B32M8    PM22102TMW     202209141801W004061              IVSSH 0.75F LG           CCN000001300000001300FN00000000020221001000001300NNM   20220804092023    1W    00000130000000882000000000032M8    PMPEMI  000000000000IT528027
BI00B32M8    PM22103TMW     202209211801W004061              IVSSH 0.75F LG           CCN000001300000001300FN00000000020221001000001300NNM   20220804092023    1W    00000130000000882000000000032M8    PMPEMI  000000000000IT129024
BI00B32M8    PM22101TMW     202209071801W006930              IVSSH 0.35F B            CCN000005000000005000FN00000000020221001000005000NNM   20220804092023    1W    00000250000000452000000000032M8    PMPEMI  000000000000IT428014
BI00B32M8    PM22102TMW     202209141801W006930              IVSSH 0.35F B            CCN000005000000005000FN00000000020221001000005000NNM   20220804092023    1W    00000250000000452000000000032M8    PMPEMI  000000000000IT528030
BI00B32M8    PM22103TMW     202209211801W006930              IVSSH 0.35F B            CCN000005000000005000FN00000000020221001000005000NNM   20220804092023    1W    00000250000000452000000000032M8    PMPEMI  000000000000IT129027
BI00B32M8    PM22104TMW     202209281801W006930              IVSSH 0.35F B            CCN000005000000005000FN00000000020221001000005000NNM   20220804092023    1W    00000250000000452000000000032M8    PMPEMI  000000000000IT229022
BI00B32M8    PM22101TMW     202209071801W006943              IVSSH 0.35F W/B          CCN000002500000002500FN00000000020221001000002500NNM   20220804092023    1W    00000250000000452000000000032M8    PMPEMI  000000000000IT428016
BI00B32M8    PM22102TMW     202209141801W006943              IVSSH 0.35F W/B          CCN000005000000005000FN00000000020221001000005000NNM   20220804092023    1W    00000250000000452000000000032M8    PMPEMI  000000000000IT528032
BI00B32M8    PM22103TMW     202209211801W006943              IVSSH 0.35F W/B          CCN000005000000005000FN00000000020221001000005000NNM   20220804092023    1W    00000250000000452000000000032M8    PMPEMI  000000000000IT129029
BI00B32M8    PM22104TMW     202209281801W006943              IVSSH 0.35F W/B          CCN000002500000002500FN00000000020221001000002500NNM   20220804092023    1W    00000250000000452000000000032M8    PMPEMI  000000000000IT229024
BI00B32M8    PM22101TMW     202209071801W006950              IVSSH 0.35F R            CCN000005000000005000FN00000000020221001000005000NNM   20220804092023    1W    00000250000000452000000000032M8    PMPEMI  000000000000IT428015
BI00B32M8    PM22102TMW     202209141801W006950              IVSSH 0.35F R            CCN000005000000005000FN00000000020221001000005000NNM   20220804092023    1W    00000250000000452000000000032M8    PMPEMI  000000000000IT528031
BI00B32M8    PM22103TMW     202209211801W006950              IVSSH 0.35F R            CCN000005000000005000FN00000000020221001000005000NNM   20220804092023    1W    00000250000000452000000000032M8    PMPEMI  000000000000IT129028
BI00B32M8    PM22104TMW     202209281801W006950              IVSSH 0.35F R            CCN000005000000005000FN00000000020221001000005000NNM   20220804092023    1W    00000250000000452000000000032M8    PMPEMI  000000000000IT229023
BI00B32M8    @PM22102TMW    20220914181CQ7003ZZ              IVSSHCS-S 0.5FX2 B(B,W)  CCN000001500000001500FN00000000020221001000001500NNM   20220804092021    1W    00000030000002350200000000032M8    PMPEMI  000000000000IT528009
BI00B32M8    @PM22103TMW    20220921181CQ7003ZZ              IVSSHCS-S 0.5FX2 B(B,W)  CCN000001500000001500FN00000000020221001000001500NNM   20220804092021    1W    00000030000002350200000000032M8    PMPEMI  000000000000IT129007
BI00B32M8    @PM22102TMW    20220914181CQ7004ZZ              IVSSHCS-S 0.5FX2 B(R,G)  CCN000001500000001500FN00000000020221001000001500NNM   20220804092021    1W    00000030000002350200000000032M8    PMPEMI  000000000000IT528010
BI00B32M8    @PM22103TMW    20220921181CQ7004ZZ              IVSSHCS-S 0.5FX2 B(R,G)  CCN000001500000001500FN00000000020221001000001500NNM   20220804092021    1W    00000030000002350200000000032M8    PMPEMI  000000000000IT129008
BI00B32M8    @PM22104TMW    20220928181CQ7004ZZ              IVSSHCS-S 0.5FX2 B(R,G)  CCN000001500000001500FN00000000020221001000001500NNM   20220804092021    1W    00000030000002350200000000032M8    PMPEMI  000000000000IT229005
BI00B32M8    @PM22102TMW    20220914181F21015ZZ              AVSSHCS-S 0.5FX2 B/P     CCN000003300000003300FN00000000020221001000003300NNM   20220804092021    1W    00000030000002531400000000032M8    PMPEMI  000000000000IT528011
BI00B32M8    @PM22103TMW    20220921181F21015ZZ              AVSSHCS-S 0.5FX2 B/P     CCN000003300000003300FN00000000020221001000003300NNM   20220804092021    1W    00000030000002531400000000032M8    PMPEMI  000000000000IT129009
BI00B32W2    @HN2209DWMW    20220906181B32116Z5              AVSSCS 0.3FX2 DGY/L      CCN000008400000008400FN00000000020220901000008400NNE   20220804104731    1W    00000035000002276000000000032W2    HNHNY   000000000000HD428001
BI00B32W2    HN22101WMW     2022090618000004560              AV 8 G                   CCN000020000000020000FN00000000020221001000020000NNM   20220804104736    1W    00000010000010466200000000032W2    HNHNY   000000000000HW428009
BI00B32W2    HN22102WMW     2022091318000004560              AV 8 G                   CCN000012000000012000FN00000000020221001000012000NNM   20220804104736    1W    00000010000010466200000000032W2    HNHNY   000000000000HW528009
BI00B32W2    HN22103WMW     2022092018000004560              AV 8 G                   CCN000010000000010000FN00000000020221001000010000NNM   20220804104736    1W    00000010000010466200000000032W2    HNHNY   000000000000HW129009
BI00B32W2    HN22104WMW     2022092718000004560              AV 8 G                   CCN000010000000010000FN00000000020221001000010000NNM   20220804104736    1W    00000010000010466200000000032W2    HNHNY   000000000000HW229009
BI00B32W2    HN22101WMW     2022090618000004550              AV 8 R                   CCN000008000000008000FN00000000020221001000008000NNM   20220804104736    1W    00000010000010466200000000032W2    HNHNY   000000000000HW428010
BI00B32W2    HN22102WMW     2022091318000004550              AV 8 R                   CCN000008000000008000FN00000000020221001000008000NNM   20220804104736    1W    00000010000010466200000000032W2    HNHNY   000000000000HW528010
BI00B32W2    @HN22101WMW    20220906181B32116Z5              AVSSCS 0.3FX2 DGY/L      CCN000015400000015400FN00000000020221001000015400NNM   20220804104734    1W    00000035000002276000000000032W2    HNHNY   000000000000HW428008
BI00B32W2    @HN22102WMW    20220913181B32116Z5              AVSSCS 0.3FX2 DGY/L      CCN000008400000008400FN00000000020221001000008400NNM   20220804104734    1W    00000035000002276000000000032W2    HNHNY   000000000000HW528008
BI00B32W2    @HN22103WMW    20220920181B32116Z5              AVSSCS 0.3FX2 DGY/L      CCN000004200000004200FN00000000020221001000004200NNM   20220804104734    1W    00000035000002276000000000032W2    HNHNY   000000000000HW129008
BI00B32W2    @HN22104WMW    20220927181B32116Z5              AVSSCS 0.3FX2 DGY/L      CCN000004200000004200FN00000000020221001000004200NNM   20220804104734    1W    00000035000002276000000000032W2    HNHNY   000000000000HW229008
BI00B32W6    SW22101QMW     2022083118000004590              AV 8 L                   CCN000000200000000200FN00000000020221001000000200NNM   20220804101912    1W    00000010000010466200000000032W6    SYSYA-WJ000000000000WA328036
BI00B32W7    SC22101JMW     2022083118000004580              AV 8 BR                  CCN000000500000000500FN00000000020221001000000500NNM   20220804104550    1W    00000010000010466200000000032W7    SYSYA-CH000000000000WJ328008
BI00B32W7    SC22102JMW     2022091418000004580              AV 8 BR                  CCN000000300000000300FN00000000020221001000000300NNM   20220804104550    1W    00000010000010466200000000032W7    SYSYA-CH000000000000WJ528006
BI00B32W7    SC22101JMW     2022083118000004560              AV 8 G                   CCN000001300000001300FN00000000020221001000001300NNM   20220804104550    1W    00000010000010466200000000032W7    SYSYA-CH000000000000WJ328009
BI00B32W7    SC22102JMW     2022091418000004560              AV 8 G                   CCN000002000000002000FN00000000020221001000002000NNM   20220804104550    1W    00000010000010466200000000032W7    SYSYA-CH000000000000WJ528007
BI00B32W7    SC22103JMW     2022092118000004560              AV 8 G                   CCN000002400000002400FN00000000020221001000002400NNM   20220804104550    1W    00000010000010466200000000032W7    SYSYA-CH000000000000WJ129004
BI00B32W7    SC22101JMW     2022083118000004590              AV 8 L                   CCN000008800000008800FN00000000020221001000008800NNM   20220804104550    1W    00000010000010466200000000032W7    SYSYA-CH000000000000WJ328010
BI00B32W7    SC22102JMW     2022091418000004590              AV 8 L                   CCN000008900000008900FN00000000020221001000008900NNM   20220804104550    1W    00000010000010466200000000032W7    SYSYA-CH000000000000WJ528008
BI00B32W7    SC22103JMW     2022092118000004590              AV 8 L                   CCN000004600000004600FN00000000020221001000004600NNM   20220804104550    1W    00000010000010466200000000032W7    SYSYA-CH000000000000WJ129005
BI00B32W7    SC22102JMW     2022091418000004550              AV 8 R                   CCN000005400000005400FN00000000020221001000005400NNM   20220804104550    1W    00000010000010466200000000032W7    SYSYA-CH000000000000WJ528009
BI00B32W7    SC22103JMW     2022092118000004550              AV 8 R                   CCN000005100000005100FN00000000020221001000005100NNM   20220804104550    1W    00000010000010466200000000032W7    SYSYA-CH000000000000WJ129006
BI00B32W7    SC22104JMW     2022092818000004550              AV 8 R                   CCN000004100000004100FN00000000020221001000004100NNM   20220804104550    1W    00000010000010466200000000032W7    SYSYA-CH000000000000WJ229004
BI00B32W7    SC22101JMW     2022083118000004540              AV 8 W                   CCN000007200000007200FN00000000020221001000007200NNM   20220804104550    1W    00000010000010466200000000032W7    SYSYA-CH000000000000WJ328011
BI00B32W7    SC22102JMW     2022091418000004540              AV 8 W                   CCN000004000000004000FN00000000020221001000004000NNM   20220804104550    1W    00000010000010466200000000032W7    SYSYA-CH000000000000WJ528010
BI00B32W7    SC22103JMW     2022092118000004540              AV 8 W                   CCN000003700000003700FN00000000020221001000003700NNM   20220804104550    1W    00000010000010466200000000032W7    SYSYA-CH000000000000WJ129007
BI00B32W7    SC22104JMW     2022092818000004540              AV 8 W                   CCN000003200000003200FN00000000020221001000003200NNM   20220804104550    1W    00000010000010466200000000032W7    SYSYA-CH000000000000WJ229005
BI00B32W7    SC22101JMW     2022083118000004570              AV 8 Y                   CCN000001700000001700FN00000000020221001000001700NNM   20220804104550    1W    00000010000010466200000000032W7    SYSYA-CH000000000000WJ328012
BI00B32W7    SC22102JMW     2022091418000004570              AV 8 Y                   CCN000001800000001800FN00000000020221001000001800NNM   20220804104550    1W    00000010000010466200000000032W7    SYSYA-CH000000000000WJ528011
BI00B32W7    SC22103JMW     2022092118000004570              AV 8 Y                   CCN000001700000001700FN00000000020221001000001700NNM   20220804104550    1W    00000010000010466200000000032W7    SYSYA-CH000000000000WJ129008
BI00B32W7    SC22104JMW     2022092818000004570              AV 8 Y                   CCN000001100000001100FN00000000020221001000001100NNM   20220804104550    1W    00000010000010466200000000032W7    SYSYA-CH000000000000WJ229006
BI00B32W7    @SC22101JMW    20220831181B32013ZZ              AVSSCS 0.3FX1 DGY/O      CCN000007500000007500FN00000000020221001000007500NNM   20220804104548    1W    00000050000001780000000000032W7    SYSYA-CH000000000000WJ328002
BI00B32W7    @SC22102JMW    20220914181B32013ZZ              AVSSCS 0.3FX1 DGY/O      CCN000005500000005500FN00000000020221001000005500NNM   20220804104548    1W    00000050000001780000000000032W7    SYSYA-CH000000000000WJ528001
BI00B32W7    @SC22103JMW    20220921181B32013ZZ              AVSSCS 0.3FX1 DGY/O      CCN000005000000005000FN00000000020221001000005000NNM   20220804104548    1W    00000050000001780000000000032W7    SYSYA-CH000000000000WJ129001
BI00B32W7    @SC22104JMW    20220928181B32013ZZ              AVSSCS 0.3FX1 DGY/O      CCN000005000000005000FN00000000020221001000005000NNM   20220804104548    1W    00000050000001780000000000032W7    SYSYA-CH000000000000WJ229001
BI00B32W7    @SC22101JMW    20220831181B32037Y5              AVSSCS 0.3FX1 DGY/W      CCN000004000000004000FN00000000020221001000004000NNM   20220804104548    1W    00000050000001780000000000032W7    SYSYA-CH000000000000WJ328003
BI00B32W7    @SC22102JMW    20220914181B32037Y5              AVSSCS 0.3FX1 DGY/W      CCN000004000000004000FN00000000020221001000004000NNM   20220804104548    1W    00000050000001780000000000032W7    SYSYA-CH000000000000WJ528002
BI00B32W7    @SC22101JMW    20220831181B32116Y9              AVSSCS 0.3FX2 DGY/P      CCN000012600000012600FN00000000020221001000012600NNM   20220804104548    1W    00000035000002276000000000032W7    SYSYA-CH000000000000WJ328004
BI00B32W7    @SC22102JMW    20220914181B32116Y9              AVSSCS 0.3FX2 DGY/P      CCN000006300000006300FN00000000020221001000006300NNM   20220804104548    1W    00000035000002276000000000032W7    SYSYA-CH000000000000WJ528003
BI00B32W7    @SC22103JMW    20220921181B32116Y9              AVSSCS 0.3FX2 DGY/P      CCN000005950000005950FN00000000020221001000005950NNM   20220804104548    1W    00000035000002276000000000032W7    SYSYA-CH000000000000WJ129002
BI00B32W7    @SC22104JMW    20220928181B32116Y9              AVSSCS 0.3FX2 DGY/P      CCN000005950000005950FN00000000020221001000005950NNM   20220804104548    1W    00000035000002276000000000032W7    SYSYA-CH000000000000WJ229002
BI00B32W7    @SC22101JMW    20220831181B32116Y8              AVSSCS 0.3FX2 DGY/R      CCN000003850000003850FN00000000020221001000003850NNM   20220804104548    1W    00000035000002276000000000032W7    SYSYA-CH000000000000WJ328005
BI00B32W7    @SC22102JMW    20220914181B32116Y8              AVSSCS 0.3FX2 DGY/R      CCN000002450000002450FN00000000020221001000002450NNM   20220804104548    1W    00000035000002276000000000032W7    SYSYA-CH000000000000WJ528004
BI00B32W7    @SC22103JMW    20220921181B32116Y8              AVSSCS 0.3FX2 DGY/R      CCN000002800000002800FN00000000020221001000002800NNM   20220804104548    1W    00000035000002276000000000032W7    SYSYA-CH000000000000WJ129003
BI00B32W7    @SC22104JMW    20220928181B32116Y8              AVSSCS 0.3FX2 DGY/R      CCN000002100000002100FN00000000020221001000002100NNM   20220804104548    1W    00000035000002276000000000032W7    SYSYA-CH000000000000WJ229003
BI00B32W7    @SC22101JMW    20220831181E48022ZZ              CAVSAS-S 0.5X2 GY        CCN000001200000001200FN00000000020221001000001200NNM   20220804104548    1W    00000030000002561000000000032W7    SYSYA-CH000000000000WJ328006
BI00B32W9    4500183086     2022080918007703730              AVSS 0.3F B              CCN000002000000002000FN00000000020220101000002000NNE30 20220804110535W9  1W    00000200000000496000000000032W9    HKYHK   000000000000ZB121001
BI00B32Y6    @STAC32121     20220901181AD2017ZZ              CIVUSAS-S 0.22X3 B       CCN000000860000000860FN00000000020221201000000860NNE   20220804105108    1W    00000043000001678200000000032Y6    BSYBL-S 000000000000KH328009
BI00B32AG    XG22114CMW     2022102118000004590              AV 8 L                   CCN000000300000000300FN00000000020221101000000300NNM   20220804150550    1W    00000010000010466200000000032AG    XGXGY   000000000000XU12A001
BI00B32AG    XG22115CMW     2022102818000004590              AV 8 L                   CCN000000600000000600FN00000000020221101000000600NNM   20220804150550    1W    00000010000010466200000000032AG    XGXGY   000000000000XU22A001
BI00B32AG    @XG22111LMW    20220930181E48031ZZ              CAVSAS-S 0.3X2 GY        CCN000000350000000350FN00000000020221101000000350NNM   20220804150549    1W    00000035000002008700000000032AG    XGXGY   000000000000XY229001
BI00B32AG    @XG22112LMW    20221007181E48031ZZ              CAVSAS-S 0.3X2 GY        CCN000005600000005600FN00000000020221101000005600NNM   20220804150549    1W    00000035000002008700000000032AG    XGXGY   000000000000XY329001
BI00B32AG    @XG22113LMW    20221012181E48031ZZ              CAVSAS-S 0.3X2 GY        CCN000003150000003150FN00000000020221101000003150NNM   20220804150549    1W    00000035000002008700000000032AG    XGXGY   000000000000XY429001
BI00B32AG    @XG22114LMW    20221021181E48031ZZ              CAVSAS-S 0.3X2 GY        CCN000004200000004200FN00000000020221101000004200NNM   20220804150549    1W    00000035000002008700000000032AG    XGXGY   000000000000XY12A001
BI00B32AG    @XG22115LMW    20221028181E48031ZZ              CAVSAS-S 0.3X2 GY        CCN000004200000004200FN00000000020221101000004200NNM   20220804150549    1W    00000035000002008700000000032AG    XGXGY   000000000000XY22A001
BI00B32G7    JW2209C MW     2022082518007703990              AVSS 0.5F L              CCN000001500000001500FN00000000020220901000001500NNE   20220804111115    1W    00000150000000674000000000032G7    JIJAI   000000000000JJ228001
BI00B32G7    @JW2209C MW    20220901181E48060ZZ              CAVSAS-S 0.5X2 GY/V      CCN000005400000005400FN00000000020220901000005400NNE   20220804111113    1W    00000030000002561000000000032G7    JIJAI   000000000000JO328001
BI00B32G7    @JW2209CLMW    20220901181AD2020ZZ              CIVUSAS-S 0.5X2 B(R,G)   CCN000002800000002800FN00000000020220901000002800NNE   20220804111114    1W    00000040000002028000000000032G7    JIJAI   000000000000JP328001
BI00B32G7    @JW2209CLMW    20220901181AD2021ZZ              CIVUSAS-S 0.35X2 B(L,GY) CCN000003150000003150FN00000000020220901000003150NNE   20220804111114    1W    00000045000001714000000000032G7    JIJAI   000000000000JP328002
BI00B32G7    @JW2209CLMW    20220901181AD2022ZZ              CIVUSAS-S 0.35X2 B(R,G)  CCN000002250000002250FN00000000020220901000002250NNE   20220804111114    1W    00000045000001714000000000032G7    JIJAI   000000000000JP328003
BI00B32G7    JW2209CMMW     202208251801W006950              IVSSH 0.35F R            CCN000002500000002500FN00000000020220901000002500NNE   20220804111115    1W    00000250000000452000000000032G7    JIJAI   000000000000JN228002
BI00B32M8    PM2209A MW     2022082418007703941              AVSS 0.5F GY             CCN000001500000001500FN00000000020220901000001500NNE   20220804083506    1W    00000150000000674000000000032M8    PMPEMI  000000000000IE228001
BI00B32M8    PM2209A MW     2022082418007704040              AVSS 0.75F W             CCN000001000000001000FN00000000020220901000001000NNE   20220804083506    1W    00000100000000943000000000032M8    PMPEMI  000000000000IE228003
BI00B32M8    PM2209A MW     2022082418007704050              AVSS 0.75F R             CCN000001000000001000FN00000000020220901000001000NNE   20220804083506    1W    00000100000000943000000000032M8    PMPEMI  000000000000IE228002
BI00B32M8    @PM2209A MW    20220831181B32039S1              AVSSCS 0.5FX1 DGY        CCN000001600000001600FN00000000020220901000001600NNE   20220804083504    1W    00000040000002289000000000032M8    PMPEMI  000000000000IG328001
BI00B32M8    @PM2209A MW    20220831181D6910239              AVSSHCS 0.5FX2 B/L       CCN000001200000001200FN00000000020220901000001200NNE   20220804083504    1W    00000030000002385000000000032M8    PMPEMI  000000000000IG328002
BI00B32M8    @PM2209AJMW    20220831181B32102Y5              AVSSCS 0.5FX2 DGY/W      CCN000000600000000600FN00000000020220901000000600NNE   20220804083505    1W    00000030000002903000000000032M8    PMPEMI  000000000000IH328001
BI00B32M8    PM2209ATMW     202208241801W00395U              IVSSH 0.5F BE            CCN000001800000001800FN00000000020220901000001800NNE   20220804083507    1W    00000180000000625000000000032M8    PMPEMI  000000000000IF228001
BI00B32M8    PM22101 MW     2022090718007703992              AVSS 0.5F V              CCN000003000000003000FN00000000020221001000003000NNM   20220804092022    1W    00000150000000674000000000032M8    PMPEMI  000000000000IM428020
BI00B32M8    PM22102 MW     2022091418007703992              AVSS 0.5F V              CCN000007500000007500FN00000000020221001000007500NNM   20220804092022    1W    00000150000000674000000000032M8    PMPEMI  000000000000IM528033
BI00B32M8    PM22103 MW     2022092118007703992              AVSS 0.5F V              CCN000006000000006000FN00000000020221001000006000NNM   20220804092022    1W    00000150000000674000000000032M8    PMPEMI  000000000000IM129028
BI00B32M8    PM22104 MW     2022092818007703992              AVSS 0.5F V              CCN000007500000007500FN00000000020221001000007500NNM   20220804092022    1W    00000150000000674000000000032M8    PMPEMI  000000000000IM229028
BI00B32M8    PM22102 MW     2022091418007704160              AVSS 1.25F G             CCN000000800000000800FN00000000020221001000000800NNM   20220804092022    1W    00000080000001389000000000032M8    PMPEMI  000000000000IM528040
BI00B32M8    PM22103 MW     2022092118007704160              AVSS 1.25F G             CCN000000800000000800FN00000000020221001000000800NNM   20220804092022    1W    00000080000001389000000000032M8    PMPEMI  000000000000IM129034
BI00B32M8    PM22104 MW     2022092818007704160              AVSS 1.25F G             CCN000000800000000800FN00000000020221001000000800NNM   20220804092022    1W    00000080000001389000000000032M8    PMPEMI  000000000000IM229034
BI00B32M8    PM22102 MW     2022091418007704190              AVSS 1.25F L             CCN000000800000000800FN00000000020221001000000800NNM   20220804092022    1W    00000080000001389000000000032M8    PMPEMI  000000000000IM528041
BI00B32M8    PM22103 MW     2022092118007704190              AVSS 1.25F L             CCN000000800000000800FN00000000020221001000000800NNM   20220804092022    1W    00000080000001389000000000032M8    PMPEMI  000000000000IM129035
BI00B32M8    PM22104 MW     2022092818007704190              AVSS 1.25F L             CCN000000800000000800FN00000000020221001000000800NNM   20220804092022    1W    00000080000001389000000000032M8    PMPEMI  000000000000IM229035
BI00B32M8    PM22102 MW     202209141801W004043              IVSSH 0.75F W/B          CCN000001300000001300FN00000000020221001000001300NNM   20220804092022    1W    00000130000000882000000000032M8    PMPEMI  000000000000IM528047
BI00B32M8    PM22103 MW     202209211801W004043              IVSSH 0.75F W/B          CCN000001300000001300FN00000000020221001000001300NNM   20220804092022    1W    00000130000000882000000000032M8    PMPEMI  000000000000IM129041
BI00B32M8    PM22104 MW     202209281801W004043              IVSSH 0.75F W/B          CCN000001300000001300FN00000000020221001000001300NNM   20220804092022    1W    00000130000000882000000000032M8    PMPEMI  000000000000IM229040
BI00B32M8    PM22101 MW     2022090718007703930              AVSS 0.5F B              CCN000006000000006000FN00000000020221001000006000NNM   20220804092022    1W    00000150000000674000000000032M8    PMPEMI  000000000000IM428013
BI00B32M8    PM22102 MW     2022091418007703930              AVSS 0.5F B              CCN000006000000006000FN00000000020221001000006000NNM   20220804092022    1W    00000150000000674000000000032M8    PMPEMI  000000000000IM528025
BI00B32M8    PM22103 MW     2022092118007703930              AVSS 0.5F B              CCN000006000000006000FN00000000020221001000006000NNM   20220804092022    1W    00000150000000674000000000032M8    PMPEMI  000000000000IM129020
BI00B32M8    PM22104 MW     2022092818007703930              AVSS 0.5F B              CCN000006000000006000FN00000000020221001000006000NNM   20220804092022    1W    00000150000000674000000000032M8    PMPEMI  000000000000IM229020
BI00B32M8    PM22101 MW     2022090718007703940              AVSS 0.5F W              CCN000010500000010500FN00000000020221001000010500NNM   20220804092022    1W    00000150000000674000000000032M8    PMPEMI  000000000000IM428021
BI00B32M8    PM22102 MW     2022091418007703940              AVSS 0.5F W              CCN000012000000012000FN00000000020221001000012000NNM   20220804092022    1W    00000150000000674000000000032M8    PMPEMI  000000000000IM528034
BI00B32M8    PM22103 MW     2022092118007703940              AVSS 0.5F W              CCN000010500000010500FN00000000020221001000010500NNM   20220804092022    1W    00000150000000674000000000032M8    PMPEMI  000000000000IM129029
BI00B32M8    PM22104 MW     2022092818007703940              AVSS 0.5F W              CCN000010500000010500FN00000000020221001000010500NNM   20220804092022    1W    00000150000000674000000000032M8    PMPEMI  000000000000IM229029
BI00B32M8    PM22101 MW     2022090718007703941              AVSS 0.5F GY             CCN000001500000001500FN00000000020221001000001500NNM   20220804092022    1W    00000150000000674000000000032M8    PMPEMI  000000000000IM428015
BI00B32M8    PM22102 MW     2022091418007703941              AVSS 0.5F GY             CCN000003000000003000FN00000000020221001000003000NNM   20220804092022    1W    00000150000000674000000000032M8    PMPEMI  000000000000IM528028
BI00B32M8    PM22103 MW     2022092118007703941              AVSS 0.5F GY             CCN000001500000001500FN00000000020221001000001500NNM   20220804092022    1W    00000150000000674000000000032M8    PMPEMI  000000000000IM129023
BI00B32M8    PM22104 MW     2022092818007703941              AVSS 0.5F GY             CCN000001500000001500FN00000000020221001000001500NNM   20220804092022    1W    00000150000000674000000000032M8    PMPEMI  000000000000IM229023
BI00B32M8    PM22102 MW     2022091418007703943              AVSS 0.5F W/B            CCN000001500000001500FN00000000020221001000001500NNM   20220804092022    1W    00000150000000674000000000032M8    PMPEMI  000000000000IM528035
BI00B32M8    PM22101 MW     2022090718007703950              AVSS 0.5F R              CCN000006000000006000FN00000000020221001000006000NNM   20220804092022    1W    00000150000000674000000000032M8    PMPEMI  000000000000IM428019
BI00B32M8    PM22102 MW     2022091418007703950              AVSS 0.5F R              CCN000012000000012000FN00000000020221001000012000NNM   20220804092022    1W    00000150000000674000000000032M8    PMPEMI  000000000000IM528032
BI00B32M8    PM22103 MW     2022092118007703950              AVSS 0.5F R              CCN000010500000010500FN00000000020221001000010500NNM   20220804092022    1W    00000150000000674000000000032M8    PMPEMI  000000000000IM129027
BI00B32M8    PM22104 MW     2022092818007703950              AVSS 0.5F R              CCN000010500000010500FN00000000020221001000010500NNM   20220804092022    1W    00000150000000674000000000032M8    PMPEMI  000000000000IM229027
BI00B32M8    PM22101 MW     2022090718007703952              AVSS 0.5F P              CCN000003000000003000FN00000000020221001000003000NNM   20220804092022    1W    00000150000000674000000000032M8    PMPEMI  000000000000IM428018
BI00B32M8    PM22102 MW     2022091418007703952              AVSS 0.5F P              CCN000004500000004500FN00000000020221001000004500NNM   20220804092022    1W    00000150000000674000000000032M8    PMPEMI  000000000000IM528031
BI00B32M8    PM22103 MW     2022092118007703952              AVSS 0.5F P              CCN000004500000004500FN00000000020221001000004500NNM   20220804092022    1W    00000150000000674000000000032M8    PMPEMI  000000000000IM129026
BI00B32M8    PM22104 MW     2022092818007703952              AVSS 0.5F P              CCN000003000000003000FN00000000020221001000003000NNM   20220804092022    1W    00000150000000674000000000032M8    PMPEMI  000000000000IM229026
BI00B32M8    PM22102 MW     2022091418007703960              AVSS 0.5F G              CCN000006000000006000FN00000000020221001000006000NNM   20220804092022    1W    00000150000000674000000000032M8    PMPEMI  000000000000IM528027
BI00B32M8    PM22103 MW     2022092118007703960              AVSS 0.5F G              CCN000007500000007500FN00000000020221001000007500NNM   20220804092022    1W    00000150000000674000000000032M8    PMPEMI  000000000000IM129022
BI00B32M8    PM22104 MW     2022092818007703960              AVSS 0.5F G              CCN000007500000007500FN00000000020221001000007500NNM   20220804092022    1W    00000150000000674000000000032M8    PMPEMI  000000000000IM229022
BI00B32M8    PM22101 MW     2022090718007703961              AVSS 0.5F LG             CCN000003000000003000FN00000000020221001000003000NNM   20220804092022    1W    00000150000000674000000000032M8    PMPEMI  000000000000IM428017
BI00B32M8    PM22102 MW     2022091418007703961              AVSS 0.5F LG             CCN000004500000004500FN00000000020221001000004500NNM   20220804092022    1W    00000150000000674000000000032M8    PMPEMI  000000000000IM528030
BI00B32M8    PM22103 MW     2022092118007703961              AVSS 0.5F LG             CCN000004500000004500FN00000000020221001000004500NNM   20220804092022    1W    00000150000000674000000000032M8    PMPEMI  000000000000IM129025
BI00B32M8    PM22104 MW     2022092818007703961              AVSS 0.5F LG             CCN000003000000003000FN00000000020221001000003000NNM   20220804092022    1W    00000150000000674000000000032M8    PMPEMI  000000000000IM229025
BI00B32M8    PM22101 MW     2022090718007703970              AVSS 0.5F Y              CCN000004500000004500FN00000000020221001000004500NNM   20220804092022    1W    00000150000000674000000000032M8    PMPEMI  000000000000IM428022
BI00B32M8    PM22102 MW     2022091418007703970              AVSS 0.5F Y              CCN000004500000004500FN00000000020221001000004500NNM   20220804092022    1W    00000150000000674000000000032M8    PMPEMI  000000000000IM528036
BI00B32M8    PM22103 MW     2022092118007703970              AVSS 0.5F Y              CCN000004500000004500FN00000000020221001000004500NNM   20220804092022    1W    00000150000000674000000000032M8    PMPEMI  000000000000IM129030
BI00B32M8    PM22104 MW     2022092818007703970              AVSS 0.5F Y              CCN000004500000004500FN00000000020221001000004500NNM   20220804092022    1W    00000150000000674000000000032M8    PMPEMI  000000000000IM229030
BI00B32M8    PM22101 MW     2022090718007703980              AVSS 0.5F BR             CCN000001500000001500FN00000000020221001000001500NNM   20220804092022    1W    00000150000000674000000000032M8    PMPEMI  000000000000IM428014
BI00B32M8    PM22102 MW     2022091418007703980              AVSS 0.5F BR             CCN000003000000003000FN00000000020221001000003000NNM   20220804092022    1W    00000150000000674000000000032M8    PMPEMI  000000000000IM528026
BI00B32M8    PM22103 MW     2022092118007703980              AVSS 0.5F BR             CCN000001500000001500FN00000000020221001000001500NNM   20220804092022    1W    00000150000000674000000000032M8    PMPEMI  000000000000IM129021
BI00B32M8    PM22104 MW     2022092818007703980              AVSS 0.5F BR             CCN000001500000001500FN00000000020221001000001500NNM   20220804092022    1W    00000150000000674000000000032M8    PMPEMI  000000000000IM229021
BI00B32M8    PM22101 MW     2022090718007703990              AVSS 0.5F L              CCN000003000000003000FN00000000020221001000003000NNM   20220804092022    1W    00000150000000674000000000032M8    PMPEMI  000000000000IM428016
BI00B32M8    PM22102 MW     2022091418007703990              AVSS 0.5F L              CCN000004500000004500FN00000000020221001000004500NNM   20220804092022    1W    00000150000000674000000000032M8    PMPEMI  000000000000IM528029
BI00B32M8    PM22103 MW     2022092118007703990              AVSS 0.5F L              CCN000004500000004500FN00000000020221001000004500NNM   20220804092022    1W    00000150000000674000000000032M8    PMPEMI  000000000000IM129024
BI00B32M8    PM22104 MW     2022092818007703990              AVSS 0.5F L              CCN000004500000004500FN00000000020221001000004500NNM   20220804092022    1W    00000150000000674000000000032M8    PMPEMI  000000000000IM229024
BI00B32M8    PM22101 MW     2022090718007704040              AVSS 0.75F W             CCN000001000000001000FN00000000020221001000001000NNM   20220804092022    1W    00000100000000943000000000032M8    PMPEMI  000000000000IM428023
BI00B32M8    PM22102 MW     2022091418007704040              AVSS 0.75F W             CCN000001000000001000FN00000000020221001000001000NNM   20220804092022    1W    00000100000000943000000000032M8    PMPEMI  000000000000IM528038
BI00B32M8    PM22103 MW     2022092118007704040              AVSS 0.75F W             CCN000001000000001000FN00000000020221001000001000NNM   20220804092022    1W    00000100000000943000000000032M8    PMPEMI  000000000000IM129032
BI00B32M8    PM22104 MW     2022092818007704040              AVSS 0.75F W             CCN000001000000001000FN00000000020221001000001000NNM   20220804092022    1W    00000100000000943000000000032M8    PMPEMI  000000000000IM229032
BI00B32M8    PM22102 MW     2022091418007704050              AVSS 0.75F R             CCN000001000000001000FN00000000020221001000001000NNM   20220804092022    1W    00000100000000943000000000032M8    PMPEMI  000000000000IM528037
BI00B32M8    PM22103 MW     2022092118007704050              AVSS 0.75F R             CCN000001000000001000FN00000000020221001000001000NNM   20220804092022    1W    00000100000000943000000000032M8    PMPEMI  000000000000IM129031
BI00B32M8    PM22104 MW     2022092818007704050              AVSS 0.75F R             CCN000001000000001000FN00000000020221001000001000NNM   20220804092022    1W    00000100000000943000000000032M8    PMPEMI  000000000000IM229031
BI00B32M8    PM22101 MW     2022090718007704140              AVSS 1.25F W             CCN000000800000000800FN00000000020221001000000800NNM   20220804092022    1W    00000080000001389000000000032M8    PMPEMI  000000000000IM428026
BI00B32M8    PM22102 MW     2022091418007704140              AVSS 1.25F W             CCN000001600000001600FN00000000020221001000001600NNM   20220804092022    1W    00000080000001389000000000032M8    PMPEMI  000000000000IM528045
BI00B32M8    PM22103 MW     2022092118007704140              AVSS 1.25F W             CCN000000800000000800FN00000000020221001000000800NNM   20220804092022    1W    00000080000001389000000000032M8    PMPEMI  000000000000IM129039
BI00B32M8    PM22104 MW     2022092818007704140              AVSS 1.25F W             CCN000001600000001600FN00000000020221001000001600NNM   20220804092022    1W    00000080000001389000000000032M8    PMPEMI  000000000000IM229038
BI00B32M8    PM22101 MW     2022090718007704150              AVSS 1.25F R             CCN000000800000000800FN00000000020221001000000800NNM   20220804092022    1W    00000080000001389000000000032M8    PMPEMI  000000000000IM428025
BI00B32M8    PM22102 MW     2022091418007704150              AVSS 1.25F R             CCN000000800000000800FN00000000020221001000000800NNM   20220804092022    1W    00000080000001389000000000032M8    PMPEMI  000000000000IM528043
BI00B32M8    PM22103 MW     2022092118007704150              AVSS 1.25F R             CCN000000800000000800FN00000000020221001000000800NNM   20220804092022    1W    00000080000001389000000000032M8    PMPEMI  000000000000IM129037
BI00B32M8    PM22101 MW     2022090718007704152              AVSS 1.25F P             CCN000000800000000800FN00000000020221001000000800NNM   20220804092022    1W    00000080000001389000000000032M8    PMPEMI  000000000000IM428024
BI00B32M8    PM22102 MW     2022091418007704152              AVSS 1.25F P             CCN000002400000002400FN00000000020221001000002400NNM   20220804092022    1W    00000080000001389000000000032M8    PMPEMI  000000000000IM528042
BI00B32M8    PM22103 MW     2022092118007704152              AVSS 1.25F P             CCN000001600000001600FN00000000020221001000001600NNM   20220804092022    1W    00000080000001389000000000032M8    PMPEMI  000000000000IM129036
BI00B32M8    PM22104 MW     2022092818007704152              AVSS 1.25F P             CCN000001600000001600FN00000000020221001000001600NNM   20220804092022    1W    00000080000001389000000000032M8    PMPEMI  000000000000IM229036
BI00B32M8    PM22101 MW     2022090718007704170              AVSS 1.25F Y             CCN000000800000000800FN00000000020221001000000800NNM   20220804092022    1W    00000080000001389000000000032M8    PMPEMI  000000000000IM428027
BI00B32M8    PM22102 MW     2022091418007704170              AVSS 1.25F Y             CCN000001600000001600FN00000000020221001000001600NNM   20220804092022    1W    00000080000001389000000000032M8    PMPEMI  000000000000IM528046
BI00B32M8    PM22103 MW     2022092118007704170              AVSS 1.25F Y             CCN000000800000000800FN00000000020221001000000800NNM   20220804092022    1W    00000080000001389000000000032M8    PMPEMI  000000000000IM129040
BI00B32M8    PM22104 MW     2022092818007704170              AVSS 1.25F Y             CCN000000800000000800FN00000000020221001000000800NNM   20220804092022    1W    00000080000001389000000000032M8    PMPEMI  000000000000IM229039
BI00B32M8    PM22102 MW     2022091418007704180              AVSS 1.25F BR            CCN000000800000000800FN00000000020221001000000800NNM   20220804092022    1W    00000080000001389000000000032M8    PMPEMI  000000000000IM528039
BI00B32M8    PM22103 MW     2022092118007704180              AVSS 1.25F BR            CCN000000800000000800FN00000000020221001000000800NNM   20220804092022    1W    00000080000001389000000000032M8    PMPEMI  000000000000IM129033
BI00B32M8    PM22104 MW     2022092818007704180              AVSS 1.25F BR            CCN000000800000000800FN00000000020221001000000800NNM   20220804092022    1W    00000080000001389000000000032M8    PMPEMI  000000000000IM229033
BI00B32M8    PM22102 MW     2022091418007704192              AVSS 1.25F V             CCN000000800000000800FN00000000020221001000000800NNM   20220804092022    1W    00000080000001389000000000032M8    PMPEMI  000000000000IM528044
BI00B32M8    PM22103 MW     2022092118007704192              AVSS 1.25F V             CCN000000800000000800FN00000000020221001000000800NNM   20220804092022    1W    00000080000001389000000000032M8    PMPEMI  000000000000IM129038
BI00B32M8    PM22104 MW     2022092818007704192              AVSS 1.25F V             CCN000000800000000800FN00000000020221001000000800NNM   20220804092022    1W    00000080000001389000000000032M8    PMPEMI  000000000000IM229037
BI00B32M8    @PM22102 MW    20220914181B0910241              CAVSAS 0.5X2 GY          CCN000001800000001800FN00000000020221001000001800NNM   20220804092019    1W    00000030000002680000000000032M8    PMPEMI  000000000000IM528005
BI00B32M8    @PM22103 MW    20220921181B0910241              CAVSAS 0.5X2 GY          CCN000001800000001800FN00000000020221001000001800NNM   20220804092019    1W    00000030000002680000000000032M8    PMPEMI  000000000000IM129001
BI00B32M8    @PM22101 MW    20220907181B32037Z5              AVSSCS 0.3FX1 DGY/L      CCN000001500000001500FN00000000020221001000001500NNM   20220804092019    1W    00000050000001780000000000032M8    PMPEMI  000000000000IM428004
BI00B32M8    @PM22102 MW    20220914181B32037Z5              AVSSCS 0.3FX1 DGY/L      CCN000001500000001500FN00000000020221001000001500NNM   20220804092019    1W    00000050000001780000000000032M8    PMPEMI  000000000000IM528006
BI00B32M8    @PM22103 MW    20220921181B32037Z5              AVSSCS 0.3FX1 DGY/L      CCN000001500000001500FN00000000020221001000001500NNM   20220804092019    1W    00000050000001780000000000032M8    PMPEMI  000000000000IM129002
BI00B32M8    @PM22101 MW    20220907181B32039S1              AVSSCS 0.5FX1 DGY        CCN000001600000001600FN00000000020221001000001600NNM   20220804092019    1W    00000040000002289000000000032M8    PMPEMI  000000000000IM428005
BI00B32M8    @PM22102 MW    20220914181B32039S1              AVSSCS 0.5FX1 DGY        CCN000002000000002000FN00000000020221001000002000NNM   20220804092019    1W    00000040000002289000000000032M8    PMPEMI  000000000000IM528007
BI00B32M8    @PM22103 MW    20220921181B32039S1              AVSSCS 0.5FX1 DGY        CCN000001600000001600FN00000000020221001000001600NNM   20220804092019    1W    00000040000002289000000000032M8    PMPEMI  000000000000IM129003
BI00B32M8    @PM22104 MW    20220928181B32039S1              AVSSCS 0.5FX1 DGY        CCN000001600000001600FN00000000020221001000001600NNM   20220804092019    1W    00000040000002289000000000032M8    PMPEMI  000000000000IM229004
BI00B32M8    @PM22102 MW    20220914181B32102Y8              AVSSCS 0.5FX2 DGY/R      CCN000000300000000300FN00000000020221001000000300NNM   20220804092019    1W    00000030000002903000000000032M8    PMPEMI  000000000000IM528008
BI00B32M8    @PM22103 MW    20220921181B32102Y8              AVSSCS 0.5FX2 DGY/R      CCN000000300000000300FN00000000020221001000000300NNM   20220804092019    1W    00000030000002903000000000032M8    PMPEMI  000000000000IM129004
BI00B32M8    @PM22101 MW    20220907181D6910235              AVSSHCS 0.5FX2 B/R       CCN000001200000001200FN00000000020221001000001200NNM   20220804092019    1W    00000030000002385000000000032M8    PMPEMI  000000000000IM428007
BI00B32M8    @PM22102 MW    20220914181D6910235              AVSSHCS 0.5FX2 B/R       CCN000001500000001500FN00000000020221001000001500NNM   20220804092019    1W    00000030000002385000000000032M8    PMPEMI  000000000000IM528010
BI00B32M8    @PM22103 MW    20220921181D6910235              AVSSHCS 0.5FX2 B/R       CCN000001500000001500FN00000000020221001000001500NNM   20220804092019    1W    00000030000002385000000000032M8    PMPEMI  000000000000IM129006
BI00B32M8    @PM22104 MW    20220928181D6910235              AVSSHCS 0.5FX2 B/R       CCN000001200000001200FN00000000020221001000001200NNM   20220804092019    1W    00000030000002385000000000032M8    PMPEMI  000000000000IM229006
BI00B32M8    @PM22101 MW    20220907181D6910239              AVSSHCS 0.5FX2 B/L       CCN000001200000001200FN00000000020221001000001200NNM   20220804092019    1W    00000030000002385000000000032M8    PMPEMI  000000000000IM428006
BI00B32M8    @PM22102 MW    20220914181D6910239              AVSSHCS 0.5FX2 B/L       CCN000001200000001200FN00000000020221001000001200NNM   20220804092019    1W    00000030000002385000000000032M8    PMPEMI  000000000000IM528009
BI00B32M8    @PM22103 MW    20220921181D6910239              AVSSHCS 0.5FX2 B/L       CCN000001200000001200FN00000000020221001000001200NNM   20220804092019    1W    00000030000002385000000000032M8    PMPEMI  000000000000IM129005
BI00B32M8    @PM22104 MW    20220928181D6910239              AVSSHCS 0.5FX2 B/L       CCN000001200000001200FN00000000020221001000001200NNM   20220804092019    1W    00000030000002385000000000032M8    PMPEMI  000000000000IM229005
BI00B32M8    @PM22101 MW    20220907181F21008ZZ              AVSSHCS-S 0.5FX1 B/V     CCN000000800000000800FN00000000020221001000000800NNM   20220804092019    1W    00000040000001908400000000032M8    PMPEMI  000000000000IM428008
BI00B32M8    @PM22102 MW    20220914181F21008ZZ              AVSSHCS-S 0.5FX1 B/V     CCN000001600000001600FN00000000020221001000001600NNM   20220804092019    1W    00000040000001908400000000032M8    PMPEMI  000000000000IM528011
BI00B32M8    @PM22103 MW    20220921181F21008ZZ              AVSSHCS-S 0.5FX1 B/V     CCN000001600000001600FN00000000020221001000001600NNM   20220804092019    1W    00000040000001908400000000032M8    PMPEMI  000000000000IM129007
BI00B32M8    @PM22104 MW    20220928181F21008ZZ              AVSSHCS-S 0.5FX1 B/V     CCN000001600000001600FN00000000020221001000001600NNM   20220804092019    1W    00000040000001908400000000032M8    PMPEMI  000000000000IM229007
BI00B32M8    @PM22101 MW    20220907181F21009ZZ              AVSSHCS-S 0.5FX2 B       CCN000000600000000600FN00000000020221001000000600NNM   20220804092019    1W    00000030000002531400000000032M8    PMPEMI  000000000000IM428009
BI00B32M8    @PM22102 MW    20220914181F21009ZZ              AVSSHCS-S 0.5FX2 B       CCN000003900000003900FN00000000020221001000003900NNM   20220804092019    1W    00000030000002531400000000032M8    PMPEMI  000000000000IM528012
BI00B32M8    @PM22103 MW    20220921181F21009ZZ              AVSSHCS-S 0.5FX2 B       CCN000003900000003900FN00000000020221001000003900NNM   20220804092019    1W    00000030000002531400000000032M8    PMPEMI  000000000000IM129008
BI00B32M8    @PM22104 MW    20220928181F21009ZZ              AVSSHCS-S 0.5FX2 B       CCN000003900000003900FN00000000020221001000003900NNM   20220804092019    1W    00000030000002531400000000032M8    PMPEMI  000000000000IM229008
BI00B32M8    @PM22101JMW    20220907181B32102Y5              AVSSCS 0.5FX2 DGY/W      CCN000000600000000600FN00000000020221001000000600NNM   20220804092020    1W    00000030000002903000000000032M8    PMPEMI  000000000000IJ428001
BI00B32M8    @PM22102JMW    20220914181B32102Y5              AVSSCS 0.5FX2 DGY/W      CCN000000600000000600FN00000000020221001000000600NNM   20220804092020    1W    00000030000002903000000000032M8    PMPEMI  000000000000IJ528001
BI00B32M8    @PM22103JMW    20220921181B32102Y5              AVSSCS 0.5FX2 DGY/W      CCN000000600000000600FN00000000020221001000000600NNM   20220804092020    1W    00000030000002903000000000032M8    PMPEMI  000000000000IJ129001
BI00B32M8    @PM22104JMW    20220928181B32102Y5              AVSSCS 0.5FX2 DGY/W      CCN000000600000000600FN00000000020221001000000600NNM   20220804092020    1W    00000030000002903000000000032M8    PMPEMI  000000000000IJ229001
BI00B32M8    PM22102TMW     202209141801W003930              IVSSH 0.5F B             CCN000012600000012600FN00000000020221001000012600NNM   20220804092023    1W    00000180000000625000000000032M8    PMPEMI  000000000000IT528012
BI00B32M8    PM22103TMW     202209211801W003930              IVSSH 0.5F B             CCN000028800000028800FN00000000020221001000028800NNM   20220804092023    1W    00000180000000625000000000032M8    PMPEMI  000000000000IT129010
BI00B32M8    PM22104TMW     202209281801W003930              IVSSH 0.5F B             CCN000028800000028800FN00000000020221001000028800NNM   20220804092023    1W    00000180000000625000000000032M8    PMPEMI  000000000000IT229006
BI00B32M8    PM22102TMW     202209141801W003940              IVSSH 0.5F W             CCN000005400000005400FN00000000020221001000005400NNM   20220804092023    1W    00000180000000625000000000032M8    PMPEMI  000000000000IT528022
BI00B32M8    PM22103TMW     202209211801W003940              IVSSH 0.5F W             CCN000019800000019800FN00000000020221001000019800NNM   20220804092023    1W    00000180000000625000000000032M8    PMPEMI  000000000000IT129019
BI00B32M8    PM22104TMW     202209281801W003940              IVSSH 0.5F W             CCN000019800000019800FN00000000020221001000019800NNM   20220804092023    1W    00000180000000625000000000032M8    PMPEMI  000000000000IT229015
BI00B32M8    PM22102TMW     202209141801W003941              IVSSH 0.5F GY            CCN000009000000009000FN00000000020221001000009000NNM   20220804092023    1W    00000180000000625000000000032M8    PMPEMI  000000000000IT528015
BI00B32M8    PM22103TMW     202209211801W003941              IVSSH 0.5F GY            CCN000010800000010800FN00000000020221001000010800NNM   20220804092023    1W    00000180000000625000000000032M8    PMPEMI  000000000000IT129013
BI00B32M8    PM22104TMW     202209281801W003941              IVSSH 0.5F GY            CCN000010800000010800FN00000000020221001000010800NNM   20220804092023    1W    00000180000000625000000000032M8    PMPEMI  000000000000IT229009
BI00B32M8    PM22102TMW     202209141801W003943              IVSSH 0.5F W/B           CCN000010800000010800FN00000000020221001000010800NNM   20220804092023    1W    00000180000000625000000000032M8    PMPEMI  000000000000IT528023
BI00B32M8    PM22103TMW     202209211801W003943              IVSSH 0.5F W/B           CCN000018000000018000FN00000000020221001000018000NNM   20220804092023    1W    00000180000000625000000000032M8    PMPEMI  000000000000IT129020
BI00B32M8    PM22104TMW     202209281801W003943              IVSSH 0.5F W/B           CCN000018000000018000FN00000000020221001000018000NNM   20220804092023    1W    00000180000000625000000000032M8    PMPEMI  000000000000IT229016
BI00B32M8    PM22101TMW     202209071801W00395U              IVSSH 0.5F BE            CCN000003600000003600FN00000000020221001000003600NNM   20220804092023    1W    00000180000000625000000000032M8    PMPEMI  000000000000IT428006
BI00B32M8    PM22102TMW     202209141801W00395U              IVSSH 0.5F BE            CCN000003600000003600FN00000000020221001000003600NNM   20220804092023    1W    00000180000000625000000000032M8    PMPEMI  000000000000IT528013
BI00B32M8    PM22103TMW     202209211801W00395U              IVSSH 0.5F BE            CCN000003600000003600FN00000000020221001000003600NNM   20220804092023    1W    00000180000000625000000000032M8    PMPEMI  000000000000IT129011
BI00B32M8    PM22104TMW     202209281801W00395U              IVSSH 0.5F BE            CCN000003600000003600FN00000000020221001000003600NNM   20220804092023    1W    00000180000000625000000000032M8    PMPEMI  000000000000IT229007
BI00B32M8    PM22102TMW     202209141801W003950              IVSSH 0.5F R             CCN000030600000030600FN00000000020221001000030600NNM   20220804092023    1W    00000180000000625000000000032M8    PMPEMI  000000000000IT528019
BI00B32M8    PM22103TMW     202209211801W003950              IVSSH 0.5F R             CCN000034200000034200FN00000000020221001000034200NNM   20220804092023    1W    00000180000000625000000000032M8    PMPEMI  000000000000IT129017
BI00B32M8    PM22104TMW     202209281801W003950              IVSSH 0.5F R             CCN000034200000034200FN00000000020221001000034200NNM   20220804092023    1W    00000180000000625000000000032M8    PMPEMI  000000000000IT229013
BI00B32M8    PM22101TMW     202209071801W003952              IVSSH 0.5F P             CCN000001800000001800FN00000000020221001000001800NNM   20220804092023    1W    00000180000000625000000000032M8    PMPEMI  000000000000IT428008
BI00B32M8    PM22102TMW     202209141801W003952              IVSSH 0.5F P             CCN000010800000010800FN00000000020221001000010800NNM   20220804092023    1W    00000180000000625000000000032M8    PMPEMI  000000000000IT528018
BI00B32M8    PM22103TMW     202209211801W003952              IVSSH 0.5F P             CCN000012600000012600FN00000000020221001000012600NNM   20220804092023    1W    00000180000000625000000000032M8    PMPEMI  000000000000IT129016
BI00B32M8    PM22104TMW     202209281801W003952              IVSSH 0.5F P             CCN000012600000012600FN00000000020221001000012600NNM   20220804092023    1W    00000180000000625000000000032M8    PMPEMI  000000000000IT229012
BI00B32M8    PM22102TMW     202209141801W003960              IVSSH 0.5F G             CCN000016200000016200FN00000000020221001000016200NNM   20220804092023    1W    00000180000000625000000000032M8    PMPEMI  000000000000IT528014
BI00B32M8    PM22103TMW     202209211801W003960              IVSSH 0.5F G             CCN000019800000019800FN00000000020221001000019800NNM   20220804092023    1W    00000180000000625000000000032M8    PMPEMI  000000000000IT129012
BI00B32M8    PM22104TMW     202209281801W003960              IVSSH 0.5F G             CCN000019800000019800FN00000000020221001000019800NNM   20220804092023    1W    00000180000000625000000000032M8    PMPEMI  000000000000IT229008
BI00B32M8    PM22102TMW     202209141801W003961              IVSSH 0.5F LG            CCN000007200000007200FN00000000020221001000007200NNM   20220804092023    1W    00000180000000625000000000032M8    PMPEMI  000000000000IT528017
BI00B32M8    PM22103TMW     202209211801W003961              IVSSH 0.5F LG            CCN000009000000009000FN00000000020221001000009000NNM   20220804092023    1W    00000180000000625000000000032M8    PMPEMI  000000000000IT129015
BI00B32M8    PM22104TMW     202209281801W003961              IVSSH 0.5F LG            CCN000009000000009000FN00000000020221001000009000NNM   20220804092023    1W    00000180000000625000000000032M8    PMPEMI  000000000000IT229011
BI00B32M8    PM22102TMW     202209141801W003970              IVSSH 0.5F Y             CCN000005400000005400FN00000000020221001000005400NNM   20220804092023    1W    00000180000000625000000000032M8    PMPEMI  000000000000IT528024
BI00B32M8    PM22103TMW     202209211801W003970              IVSSH 0.5F Y             CCN000025200000025200FN00000000020221001000025200NNM   20220804092023    1W    00000180000000625000000000032M8    PMPEMI  000000000000IT129021
BI00B32M8    PM22104TMW     202209281801W003970              IVSSH 0.5F Y             CCN000025200000025200FN00000000020221001000025200NNM   20220804092023    1W    00000180000000625000000000032M8    PMPEMI  000000000000IT229017
BI00B32M8    PM22101TMW     202209071801W003990              IVSSH 0.5F L             CCN000001800000001800FN00000000020221001000001800NNM   20220804092023    1W    00000180000000625000000000032M8    PMPEMI  000000000000IT428007
BI00B32M8    PM22102TMW     202209141801W003990              IVSSH 0.5F L             CCN000025200000025200FN00000000020221001000025200NNM   20220804092023    1W    00000180000000625000000000032M8    PMPEMI  000000000000IT528016
BI00B32M8    PM22103TMW     202209211801W003990              IVSSH 0.5F L             CCN000025200000025200FN00000000020221001000025200NNM   20220804092023    1W    00000180000000625000000000032M8    PMPEMI  000000000000IT129014
BI00B32M8    PM22104TMW     202209281801W003990              IVSSH 0.5F L             CCN000025200000025200FN00000000020221001000025200NNM   20220804092023    1W    00000180000000625000000000032M8    PMPEMI  000000000000IT229010
BI00B32M8    PM22101TMW     202209071801W003991              IVSSH 0.5F SB            CCN000003600000003600FN00000000020221001000003600NNM   20220804092023    1W    00000180000000625000000000032M8    PMPEMI  000000000000IT428009
BI00B32M8    PM22102TMW     202209141801W003991              IVSSH 0.5F SB            CCN000009000000009000FN00000000020221001000009000NNM   20220804092023    1W    00000180000000625000000000032M8    PMPEMI  000000000000IT528020
BI00B32M8    PM22103TMW     202209211801W003991              IVSSH 0.5F SB            CCN000009000000009000FN00000000020221001000009000NNM   20220804092023    1W    00000180000000625000000000032M8    PMPEMI  000000000000IT129018
BI00B32M8    PM22104TMW     202209281801W003991              IVSSH 0.5F SB            CCN000007200000007200FN00000000020221001000007200NNM   20220804092023    1W    00000180000000625000000000032M8    PMPEMI  000000000000IT229014
BI00B32M8    PM22102TMW     202209141801W003992              IVSSH 0.5F V             CCN000001800000001800FN00000000020221001000001800NNM   20220804092023    1W    00000180000000625000000000032M8    PMPEMI  000000000000IT528021
BI00B32M8    PM22101TMW     202209071801W004030              IVSSH 0.75F B            CCN000005200000005200FN00000000020221001000005200NNM   20220804092023    1W    00000130000000882000000000032M8    PMPEMI  000000000000IT428010
BI00B32M8    PM22102TMW     202209141801W004030              IVSSH 0.75F B            CCN000006500000006500FN00000000020221001000006500NNM   20220804092023    1W    00000130000000882000000000032M8    PMPEMI  000000000000IT528025
BI00B32M8    PM22103TMW     202209211801W004030              IVSSH 0.75F B            CCN000005200000005200FN00000000020221001000005200NNM   20220804092023    1W    00000130000000882000000000032M8    PMPEMI  000000000000IT129022
