BI00B1200    OHM-202207-01  20220805REEL150-36               ALUMINUM REEL            PNN000000030000000135FN00000000020220801000000135NNE00020220729121337    1N0N  0000000030000075000000083201200    YCYC    005600540017
BI00B1200    OHM-202207-01  20220805REEL150-32               ALUMINUM REEL            PNN000000003000000009FN00000000020220801000000009NNE00020220729121337    1N0N  0000000030000073800000082101200    YCYC    005600540017
BI00B1200    OHM-202207-01  20220805REEL275-36               ALUMINUM REEL            PNN000000003000000018FN00000000020220801000000018NNE00020220729121337    1N0N  0000000030000088200000096601200    YCYC    005600540017
BI00B1200    OHM-202207-01  20220805REEL275-42               ALUMINUM REEL            PNN000000040000000120FN00000000020220801000000120NNE00020220729121337    1N0N  0000000020000061200000069601200    YCYC    005600540017
BI00B1200    #MKH2022-116   202209297282-1214-51             CONNECTOR                CCN000001000000001000FN00000000020220901000001000NNED0620220729121337    2N0N  0000010000000112000000129201200    YCYC    005500360039
BI00B1200    7360T52805     202208187196-1102-02             TERMINAL                 CCN000045000000045000FN00000000020220901000045000NNE   20220729121337    4P0P  0000225000000040500000069021200    YCYC    006400630015
BI00B1200    7360T52805     202208187196-1103-02             TERMINAL                 CCN000135000000135000FN00000000020220901000135000NNE   20220729121337    4P0P  0000225000000042980000071501200    YCYC    006400630015
BI00B1200    7360T52805     202208187196-1940-02             TERMINAL FEMALE          CCN000013500000013500FN00000000020220901000013500NNE   20220729121337    4P0P  0000135000000052920000081741200    YCYC    006400630015
BI00B1200    7360T52805     202208187196-2032-02             TERMINAL FEMALE          CCN000015000000015000FN00000000020220901000015000NNE   20220729121337    4P0P  0000150000000107100000123441200    YCYC    005100280028
BI00B1200    7360T52805     202208187288-3340-30             HOUSING MALE             CCN000004500000004500FN00000000020220901000004500NNE   20220729121337    4N0N  0000015000000086150000100641200    YCYC    005400370024
BI00B1200    #7360T52805    202208187172-5625-90             RUBBER STOPPER           CCN000060000000060000FN00000000020220901000060000NNE   20220729121337    2H0H  0000200000000008240000013381200    YCYC    004300270014
BI00B1200    #7360T52805    202208187172-5629-80             RUBBER STOPPER           CCN000120000000120000FN00000000020220901000120000NNE   20220729121337    2H0H  0000200000000006000000011111200    YCYC    004300270014
BI00B1200    #7360T52805    202208187172-5632-10             DUMMY PLUG               CCN000040000000040000FN00000000020220901000040000NNE   20220729121337    2H0H  0000200000000008040000013181200    YCYC    004300270014
BI00B1200    #7360T52805    202208187187-3356                JOINT CONNECTOR          CCN000001200000001200FN00000000020220901000001200NNE   20220729121337    2F0F  0000012000000075960000102441200    YCYC    005600390040
BI00B1200    #7360T52805    202208187189-3033                HOUSING FEMALE           CCN000006400000006400FN00000000020220901000006400NNE   20220729121337    2F0F  0000016000000121120000143121200    YCYC    005500360039
BI00B1200    7800T52801     202208117254-5840-30             ENG R/B SUB ASS'Y        CCN000000024000000024FN00000000020220901000000024NNE   20220729121337    4J0J  0000000240000073200000095201200    YCYC    005600390040
BI00B1200    O022J50087     202209297116-4100-02             TERMINAL                 CCN000030000000030000FN00000000020221001000030000NNE   20220729121337    4P0P  0000150000000069600000099021200    YCYC    006400630015
BI00B1200    7360T52804     202209017126-8891-02             FUSE TERMINAL            CCN000006000000006000FN00000000020221001000006000NNM   20220729121337    4P0P  0000060000000048180000076701200    YCYC    006400630015
BI00B1200    7360T52804     202209017195-2046-02             TERMINAL MALE            CCN000008400000008400FN00000000020221001000008400NNM   20220729121337    4P0P  0000084000000081820000111181200    YCYC    006400630015
BI00B1200    7360T52804     202209017196-2032-02             TERMINAL FEMALE          CCN000015000000015000FN00000000020221001000015000NNM   20220729121337    4P0P  0000150000000107100000123441200    YCYC    005100280028
BI00B1200    Y022K50036     202210067288-9556-30             SEALED ASSY MALE         CCN000002880000002880FN00000000020221101000002880NNM   20220729121337    4N0N  0000007200000053790000078631200    YCYC    005500360039
BI00T32AF    @JTB209C       202209087282-1060                HOUSING SUB ASSEMBLY     CCN000001600000001600FN00000000020220901000001600NNE   20220729133748    3N0N  00000160000000955500001169032AF    HBYHVTB 005500360039
BI00B32AF    JTB209D        202208117287-3885-30             HYBRID FEMALE ASS'Y      CCN000002400000002400FN00000000020220901000002400NNE   20220729134441    1N0N  00000240000001029600001249632AF    HBYHVTB 005500360039
BI00B32AF    JTB209D        202208117297-2287-30             HOUSING MALE ASS'Y       CCN000002400000002400FN00000000020220901000002400NNE   20220729134441    4N0N  00000120000000473900000590032AF    HBYHVTB 005400370024
BI00B32AF    JTB209E        202208197196-1938-02             TERMINAL FEMALE          CCN000013500000013500FN00000000020220901000013500NNE   20220729134501    4P0P  00001350000000507600000795832AF    HBYHVTB 006400630015
BI00B32AF    JTB209F        202208267286-4097                CONNECTOR MALE ASS'Y     CCN000003200000003200FN00000000020220901000003200NNE   20220729134517    1N0N  00000160000000768000000978032AF    HBYHVTB 005500360039
BI00B32AF    JTB2103        202209237017-1180-02             TERMINAL                 CCN000144000000144000FN00000000020221001000144000NNM   20220729134602    4P0P  00007200000001065600001229032AF    HBYHVTB 005100280028
BI00B32AF    JTB2104        202209307017-1180-02             TERMINAL                 CCN000360000000360000FN00000000020221001000360000NNM   20220729134602    4P0P  00007200000001065600001229032AF    HBYHVTB 005100280028
BI00B32AF    JTB2105        202210077017-1180-02             TERMINAL                 CCN000360000000360000FN00000000020221001000360000NNM   20220729134602    4P0P  00007200000001065600001229032AF    HBYHVTB 005100280028
BI00B32AF    JTB2103        202209237017-1181-02             TERMINAL                 CCN000063000000063000FN00000000020221001000063000NNM   20220729134602    4P0P  00006300000001089900001266832AF    HBYHVTB 005100280028
BI00B32AF    JTB2105        202210077017-1181-02             TERMINAL                 CCN000063000000063000FN00000000020221001000063000NNM   20220729134602    4P0P  00006300000001089900001266832AF    HBYHVTB 005100280028
BI00B32AF    JTB2103        202209237017-1182-02             TERMINAL                 CCN000045000000045000FN00000000020221001000045000NNM   20220729134602    4P0P  00004500000001165500001318632AF    HBYHVTB 005100280028
BI00B32AF    JTB2104        202209307017-1182-02             TERMINAL                 CCN000090000000090000FN00000000020221001000090000NNM   20220729134602    4P0P  00004500000001165500001318632AF    HBYHVTB 005100280028
BI00B32AF    JTB2105        202210077017-1182-02             TERMINAL                 CCN000090000000090000FN00000000020221001000090000NNM   20220729134602    4P0P  00004500000001165500001318632AF    HBYHVTB 005100280028
BI00B32AF    JTB2102        202209167017-1183-02             TERMINAL                 CCN000027000000027000FN00000000020221001000027000NNM   20220729134602    4P0P  00002700000001139400001307432AF    HBYHVTB 005100280028
BI00B32AF    JTB2103        202209237017-1183-02             TERMINAL                 CCN000027000000027000FN00000000020221001000027000NNM   20220729134602    4P0P  00002700000001139400001307432AF    HBYHVTB 005100280028
BI00B32AF    JTB2104        202209307017-1183-02             TERMINAL                 CCN000054000000054000FN00000000020221001000054000NNM   20220729134602    4P0P  00002700000001139400001307432AF    HBYHVTB 005100280028
BI00B32AF    JTB2105        202210077017-1183-02             TERMINAL                 CCN000027000000027000FN00000000020221001000027000NNM   20220729134602    4P0P  00002700000001139400001307432AF    HBYHVTB 005100280028
BI00B32AF    JTB2103        202209237114-1670-02             TERMINAL                 CCN000024000000024000FN00000000020221001000024000NNM   20220729134602    1P0P  00002400000000357600000645832AF    HBYHVTB 006400630015
BI00B32AF    JTB2104        202209307114-1670-02             TERMINAL                 CCN000024000000024000FN00000000020221001000024000NNM   20220729134602    1P0P  00002400000000357600000645832AF    HBYHVTB 006400630015
BI00B32AF    JTB2105        202210077114-1670-02             TERMINAL                 CCN000024000000024000FN00000000020221001000024000NNM   20220729134602    1P0P  00002400000000357600000645832AF    HBYHVTB 006400630015
BI00B32AF    JTB2102        202209167114-4020                TERMINAL                 CCN000021000000021000FN00000000020221001000021000NNM   20220729134602    4P0P  00002100000000875700001169332AF    HBYHVTB 006400630015
BI00B32AF    JTB2103        202209237114-4020                TERMINAL                 CCN000084000000084000FN00000000020221001000084000NNM   20220729134602    4P0P  00002100000000875700001169332AF    HBYHVTB 006400630015
BI00B32AF    JTB2104        202209307114-4020                TERMINAL                 CCN000084000000084000FN00000000020221001000084000NNM   20220729134602    4P0P  00002100000000875700001169332AF    HBYHVTB 006400630015
BI00B32AF    JTB2105        202210077114-4020                TERMINAL                 CCN000084000000084000FN00000000020221001000084000NNM   20220729134602    4P0P  00002100000000875700001169332AF    HBYHVTB 006400630015
BI00B32AF    JTB2103        202209237114-4021                TERMINAL                 CCN000030000000030000FN00000000020221001000030000NNM   20220729134602    4P0P  00001500000000670500000964132AF    HBYHVTB 006400630015
BI00B32AF    JTB2104        202209307114-4021                TERMINAL                 CCN000030000000030000FN00000000020221001000030000NNM   20220729134602    4P0P  00001500000000670500000964132AF    HBYHVTB 006400630015
BI00B32AF    JTB2105        202210077114-4021                TERMINAL                 CCN000030000000030000FN00000000020221001000030000NNM   20220729134602    4P0P  00001500000000670500000964132AF    HBYHVTB 006400630015
BI00B32AF    JTB2102        202209167114-4030                TERMINAL                 CCN000010500000010500FN00000000020221001000010500NNM   20220729134602    4P0P  00001050000000926100001254732AF    HBYHVTB 006400630017
BI00B32AF    JTB2105        202210077114-4030                TERMINAL                 CCN000010500000010500FN00000000020221001000010500NNM   20220729134602    4P0P  00001050000000926100001254732AF    HBYHVTB 006400630017
BI00B32AF    JTB2102        202209167114-4031                TERMINAL                 CCN000031500000031500FN00000000020221001000031500NNM   20220729134602    4P0P  00001050000000966000001294632AF    HBYHVTB 006400630017
BI00B32AF    JTB2103        202209237114-4031                TERMINAL                 CCN000031500000031500FN00000000020221001000031500NNM   20220729134602    4P0P  00001050000000966000001294632AF    HBYHVTB 006400630017
BI00B32AF    JTB2104        202209307114-4031                TERMINAL                 CCN000031500000031500FN00000000020221001000031500NNM   20220729134602    4P0P  00001050000000966000001294632AF    HBYHVTB 006400630017
BI00B32AF    JTB2105        202210077114-4031                TERMINAL                 CCN000031500000031500FN00000000020221001000031500NNM   20220729134602    4P0P  00001050000000966000001294632AF    HBYHVTB 006400630017
BI00B32AF    JTB2102        202209167114-4032                TERMINAL                 CCN000075000000075000FN00000000020221001000075000NNM   20220729134602    4P0P  00000750000000735000001063632AF    HBYHVTB 006400630017
BI00B32AF    JTB2103        202209237114-4032                TERMINAL                 CCN000082500000082500FN00000000020221001000082500NNM   20220729134602    4P0P  00000750000000735000001063632AF    HBYHVTB 006400630017
BI00B32AF    JTB2104        202209307114-4032                TERMINAL                 CCN000082500000082500FN00000000020221001000082500NNM   20220729134602    4P0P  00000750000000735000001063632AF    HBYHVTB 006400630017
BI00B32AF    JTB2105        202210077114-4032                TERMINAL                 CCN000075000000075000FN00000000020221001000075000NNM   20220729134602    4P0P  00000750000000735000001063632AF    HBYHVTB 006400630017
BI00B32AF    JTB2102        202209167114-4231-02             TERMINAL                 CCN000144000000144000FN00000000020221001000144000NNM   20220729134602    4P0P  00001800000000554400000848032AF    HBYHVTB 006400630015
BI00B32AF    JTB2103        202209237114-4231-02             TERMINAL                 CCN000198000000198000FN00000000020221001000198000NNM   20220729134602    4P0P  00001800000000554400000848032AF    HBYHVTB 006400630015
BI00B32AF    JTB2104        202209307114-4231-02             TERMINAL                 CCN000198000000198000FN00000000020221001000198000NNM   20220729134602    4P0P  00001800000000554400000848032AF    HBYHVTB 006400630015
BI00B32AF    JTB2105        202210077114-4231-02             TERMINAL                 CCN000216000000216000FN00000000020221001000216000NNM   20220729134602    4P0P  00001800000000554400000848032AF    HBYHVTB 006400630015
BI00B32AF    JTB2103        202209237114-4728-02             TERMINAL                 CCN000360000000360000FN00000000020221001000360000NNM   20220729134602    4P0P  00003000000000510000000804232AF    HBYHVTB 006400630015
BI00B32AF    JTB2104        202209307114-4728-02             TERMINAL                 CCN000780000000780000FN00000000020221001000780000NNM   20220729134602    4P0P  00003000000000510000000804232AF    HBYHVTB 006400630015
BI00B32AF    JTB2105        202210077114-4728-02             TERMINAL                 CCN000570000000570000FN00000000020221001000570000NNM   20220729134602    4P0P  00003000000000510000000804232AF    HBYHVTB 006400630015
BI00B32AF    JTB2103        202209237114-4729-02             TERMINAL                 CCN000030000000030000FN00000000020221001000030000NNM   20220729134602    4P0P  00003000000000516000000810232AF    HBYHVTB 006400630015
BI00B32AF    JTB2104        202209307114-4729-02             TERMINAL                 CCN000150000000150000FN00000000020221001000150000NNM   20220729134602    4P0P  00003000000000516000000810232AF    HBYHVTB 006400630015
BI00B32AF    JTB2105        202210077114-4729-02             TERMINAL                 CCN000120000000120000FN00000000020221001000120000NNM   20220729134602    4P0P  00003000000000516000000810232AF    HBYHVTB 006400630015
BI00B32AF    JTB2102        202209167114-5746-02             TERMINAL                 CCN000042000000042000FN00000000020221001000042000NNM   20220729134602    4P0P  00002100000000695100000988732AF    HBYHVTB 006400630015
BI00B32AF    JTB2103        202209237114-5746-02             TERMINAL                 CCN000063000000063000FN00000000020221001000063000NNM   20220729134602    4P0P  00002100000000695100000988732AF    HBYHVTB 006400630015
BI00B32AF    JTB2104        202209307114-5746-02             TERMINAL                 CCN000105000000105000FN00000000020221001000105000NNM   20220729134602    4P0P  00002100000000695100000988732AF    HBYHVTB 006400630015
BI00B32AF    JTB2105        202210077114-5746-02             TERMINAL                 CCN000063000000063000FN00000000020221001000063000NNM   20220729134602    4P0P  00002100000000695100000988732AF    HBYHVTB 006400630015
BI00B32AF    JTB2102        202209167114-5747-02             TERMINAL                 CCN000072000000072000FN00000000020221001000072000NNM   20220729134602    4P0P  00001800000000626400000920032AF    HBYHVTB 006400630015
BI00B32AF    JTB2103        202209237114-5747-02             TERMINAL                 CCN000162000000162000FN00000000020221001000162000NNM   20220729134602    4P0P  00001800000000626400000920032AF    HBYHVTB 006400630015
BI00B32AF    JTB2104        202209307114-5747-02             TERMINAL                 CCN000234000000234000FN00000000020221001000234000NNM   20220729134602    4P0P  00001800000000626400000920032AF    HBYHVTB 006400630015
BI00B32AF    JTB2105        202210077114-5747-02             TERMINAL                 CCN000144000000144000FN00000000020221001000144000NNM   20220729134602    4P0P  00001800000000626400000920032AF    HBYHVTB 006400630015
BI00B32AF    JTB2103        202209237114-5748-02             TERMINAL                 CCN000072000000072000FN00000000020221001000072000NNM   20220729134602    4P0P  00001200000000444000000737632AF    HBYHVTB 006400630015
BI00B32AF    JTB2104        202209307114-5748-02             TERMINAL                 CCN000108000000108000FN00000000020221001000108000NNM   20220729134602    4P0P  00001200000000444000000737632AF    HBYHVTB 006400630015
BI00B32AF    JTB2105        202210077114-5748-02             TERMINAL                 CCN000096000000096000FN00000000020221001000096000NNM   20220729134602    4P0P  00001200000000444000000737632AF    HBYHVTB 006400630015
BI00B32AF    JTB2102        202209167114-5753-02             TERMINAL                 CCN000027000000027000FN00000000020221001000027000NNM   20220729134602    4P0P  00002700000000847800001141432AF    HBYHVTB 006400630015
BI00B32AF    JTB2103        202209237114-5753-02             TERMINAL                 CCN000054000000054000FN00000000020221001000054000NNM   20220729134602    4P0P  00002700000000847800001141432AF    HBYHVTB 006400630015
BI00B32AF    JTB2104        202209307114-5753-02             TERMINAL                 CCN000108000000108000FN00000000020221001000108000NNM   20220729134602    4P0P  00002700000000847800001141432AF    HBYHVTB 006400630015
BI00B32AF    JTB2105        202210077114-5753-02             TERMINAL                 CCN000081000000081000FN00000000020221001000081000NNM   20220729134602    4P0P  00002700000000847800001141432AF    HBYHVTB 006400630015
BI00B32AF    JTB2102        202209167116-2891-02             TERMINAL                 CCN000015000000015000FN00000000020221001000015000NNM   20220729134602    4P0P  00001500000000982500001145932AF    HBYHVTB 005100280028
BI00B32AF    JTB2103        202209237116-2891-02             TERMINAL                 CCN000015000000015000FN00000000020221001000015000NNM   20220729134602    4P0P  00001500000000982500001145932AF    HBYHVTB 005100280028
BI00B32AF    JTB2104        202209307116-2891-02             TERMINAL                 CCN000015000000015000FN00000000020221001000015000NNM   20220729134602    4P0P  00001500000000982500001145932AF    HBYHVTB 005100280028
BI00B32AF    JTB2103        202209237116-3154-08             TERMINAL                 CCN000027000000027000FN00000000020221001000027000NNM   20220729134602    4P0P  00002700000000475200000760432AF    HBYHVTB 006400630015
BI00B32AF    JTB2105        202210077116-4020                TERMINAL                 CCN000040500000040500FN00000000020221001000040500NNM   20220729134602    4P0P  00001350000000513000000798232AF    HBYHVTB 006400630015
BI00B32AF    JTB2102        202209167116-4031                TERMINAL                 CCN000015000000015000FN00000000020221001000015000NNM   20220729134602    4P0P  00000750000000619500000904732AF    HBYHVTB 006400630015
BI00B32AF    JTB2103        202209237116-4031                TERMINAL                 CCN000022500000022500FN00000000020221001000022500NNM   20220729134602    4P0P  00000750000000619500000904732AF    HBYHVTB 006400630015
BI00B32AF    JTB2104        202209307116-4031                TERMINAL                 CCN000015000000015000FN00000000020221001000015000NNM   20220729134602    4P0P  00000750000000619500000904732AF    HBYHVTB 006400630015
BI00B32AF    JTB2105        202210077116-4031                TERMINAL                 CCN000015000000015000FN00000000020221001000015000NNM   20220729134602    4P0P  00000750000000619500000904732AF    HBYHVTB 006400630015
BI00B32AF    JTB2102        202209167116-4032                TERMINAL                 CCN000012000000012000FN00000000020221001000012000NNM   20220729134602    4P0P  00000600000000532800000818032AF    HBYHVTB 006400630015
BI00B32AF    JTB2103        202209237116-4032                TERMINAL                 CCN000018000000018000FN00000000020221001000018000NNM   20220729134602    4P0P  00000600000000532800000818032AF    HBYHVTB 006400630015
BI00B32AF    JTB2104        202209307116-4032                TERMINAL                 CCN000042000000042000FN00000000020221001000042000NNM   20220729134602    4P0P  00000600000000532800000818032AF    HBYHVTB 006400630015
BI00B32AF    JTB2105        202210077116-4032                TERMINAL                 CCN000030000000030000FN00000000020221001000030000NNM   20220729134602    4P0P  00000600000000532800000818032AF    HBYHVTB 006400630015
BI00B32AF    JTB2103        202209237116-4111-02             TERMINAL                 CCN000007500000007500FN00000000020221001000007500NNM   20220729134602    4P0P  00000750000000529500000817732AF    HBYHVTB 006400630015
BI00B32AF    JTB2103        202209237116-4112-02             TERMINAL                 CCN000006000000006000FN00000000020221001000006000NNM   20220729134602    4P0P  00000600000000450000000738232AF    HBYHVTB 006400630015
BI00B32AF    JTB2104        202209307116-4112-02             TERMINAL                 CCN000006000000006000FN00000000020221001000006000NNM   20220729134602    4P0P  00000600000000450000000738232AF    HBYHVTB 006400630015
BI00B32AF    JTB2105        202210077116-4112-02             TERMINAL                 CCN000006000000006000FN00000000020221001000006000NNM   20220729134602    4P0P  00000600000000450000000738232AF    HBYHVTB 006400630015
BI00B32AF    JTB2103        202209237116-4121-02             TERMINAL                 CCN000009000000009000FN00000000020221001000009000NNM   20220729134602    4P0P  00000450000000618800000912432AF    HBYHVTB 006400630015
BI00B32AF    JTB2104        202209307116-4121-02             TERMINAL                 CCN000009000000009000FN00000000020221001000009000NNM   20220729134602    4P0P  00000450000000618800000912432AF    HBYHVTB 006400630015
BI00B32AF    JTB2105        202210077116-4121-02             TERMINAL                 CCN000009000000009000FN00000000020221001000009000NNM   20220729134602    4P0P  00000450000000618800000912432AF    HBYHVTB 006400630015
BI00B32AF    JTB2103        202209237116-4231-02             TERMINAL                 CCN000130000000130000FN00000000020221001000130000NNM   20220729134602    4P0P  00002600000000683800001012532AF    HBYHVTB 006400630017
BI00B32AF    JTB2104        202209307116-4231-02             TERMINAL                 CCN000182000000182000FN00000000020221001000182000NNM   20220729134602    4P0P  00002600000000683800001012532AF    HBYHVTB 006400630017
BI00B32AF    JTB2105        202210077116-4231-02             TERMINAL                 CCN000182000000182000FN00000000020221001000182000NNM   20220729134602    4P0P  00002600000000683800001012532AF    HBYHVTB 006400630017
BI00B32AF    JTB2103        202209237116-4416-02             TERMINAL                 CCN000064000000064000FN00000000020221001000064000NNM   20220729134602    4P0P  00003200000000518400000847132AF    HBYHVTB 006400630017
BI00B32AF    JTB2104        202209307116-4416-02             TERMINAL                 CCN000032000000032000FN00000000020221001000032000NNM   20220729134602    4P0P  00003200000000518400000847132AF    HBYHVTB 006400630017
BI00B32AF    JTB2105        202210077116-4416-02             TERMINAL                 CCN000032000000032000FN00000000020221001000032000NNM   20220729134602    4P0P  00003200000000518400000847132AF    HBYHVTB 006400630017
BI00B32AF    JTB2102        202209167116-4486-02             TERMINAL                 CCN000252000000252000FN00000000020221001000252000NNM   20220729134602    4P0P  00002800000000666400000995132AF    HBYHVTB 006400630017
BI00B32AF    JTB2103        202209237116-4486-02             TERMINAL                 CCN000448000000448000FN00000000020221001000448000NNM   20220729134602    4P0P  00002800000000666400000995132AF    HBYHVTB 006400630017
BI00B32AF    JTB2104        202209307116-4486-02             TERMINAL                 CCN000504000000504000FN00000000020221001000504000NNM   20220729134602    4P0P  00002800000000666400000995132AF    HBYHVTB 006400630017
BI00B32AF    JTB2105        202210077116-4486-02             TERMINAL                 CCN000420000000420000FN00000000020221001000420000NNM   20220729134602    4P0P  00002800000000666400000995132AF    HBYHVTB 006400630017
BI00B32AF    JTB2104        202209307116-5035-02             TERMINAL                 CCN000030000000030000FN00000000020221001000030000NNM   20220729134602    4P0P  00001500000000543000000828232AF    HBYHVTB 006400630015
BI00B32AF    JTB2105        202210077116-5035-02             TERMINAL                 CCN000045000000045000FN00000000020221001000045000NNM   20220729134602    4P0P  00001500000000543000000828232AF    HBYHVTB 006400630015
BI00B32AF    JTB2102        202209167116-5043-02             TERMINAL FEMALE          CCN000060000000060000FN00000000020221001000060000NNM   20220729134602    4P0P  00001200000000559200000844432AF    HBYHVTB 006400630015
BI00B32AF    JTB2103        202209237116-5043-02             TERMINAL FEMALE          CCN000072000000072000FN00000000020221001000072000NNM   20220729134602    4P0P  00001200000000559200000844432AF    HBYHVTB 006400630015
BI00B32AF    JTB2104        202209307116-5043-02             TERMINAL FEMALE          CCN000096000000096000FN00000000020221001000096000NNM   20220729134602    4P0P  00001200000000559200000844432AF    HBYHVTB 006400630015
BI00B32AF    JTB2105        202210077116-5043-02             TERMINAL FEMALE          CCN000096000000096000FN00000000020221001000096000NNM   20220729134602    4P0P  00001200000000559200000844432AF    HBYHVTB 006400630015
BI00B32AF    JTB2103        202209237116-5044-02             TERMINAL                 CCN000048000000048000FN00000000020221001000048000NNM   20220729134602    4P0P  00001600000000641600000986332AF    HBYHVTB 006400630017
BI00B32AF    JTB2104        202209307116-5044-02             TERMINAL                 CCN000080000000080000FN00000000020221001000080000NNM   20220729134602    4P0P  00001600000000641600000986332AF    HBYHVTB 006400630017
BI00B32AF    JTB2105        202210077116-5044-02             TERMINAL                 CCN000064000000064000FN00000000020221001000064000NNM   20220729134602    4P0P  00001600000000641600000986332AF    HBYHVTB 006400630017
BI00B32AF    JTB2103        202209237116-5097-02             TERMINAL                 CCN000045000000045000FN00000000020221001000045000NNM   20220729134602    4P0P  00002250000000531000000816232AF    HBYHVTB 006400630015
BI00B32AF    JTB2104        202209307116-5097-02             TERMINAL                 CCN000067500000067500FN00000000020221001000067500NNM   20220729134602    4P0P  00002250000000531000000816232AF    HBYHVTB 006400630015
BI00B32AF    JTB2105        202210077116-5097-02             TERMINAL                 CCN000045000000045000FN00000000020221001000045000NNM   20220729134602    4P0P  00002250000000531000000816232AF    HBYHVTB 006400630015
BI00B32AF    JTB2102        202209167116-5750-02             TERMINAL                 CCN000270000000270000FN00000000020221001000270000NNM   20220729134602    4P0P  00001500000000457500000742732AF    HBYHVTB 006400630015
BI00B32AF    JTB2103        202209237116-5750-02             TERMINAL                 CCN000270000000270000FN00000000020221001000270000NNM   20220729134602    4P0P  00001500000000457500000742732AF    HBYHVTB 006400630015
BI00B32AF    JTB2104        202209307116-5750-02             TERMINAL                 CCN000270000000270000FN00000000020221001000270000NNM   20220729134602    4P0P  00001500000000457500000742732AF    HBYHVTB 006400630015
BI00B32AF    JTB2105        202210077116-5750-02             TERMINAL                 CCN000300000000300000FN00000000020221001000300000NNM   20220729134602    4P0P  00001500000000457500000742732AF    HBYHVTB 006400630015
BI00B32AF    JTB2101        202209097116-5752-02             TERMINAL                 CCN000021000000021000FN00000000020221001000021000NNM   20220729134602    4P0P  00002100000000571200000856432AF    HBYHVTB 006400630015
BI00B32AF    JTB2102        202209167116-5752-02             TERMINAL                 CCN000063000000063000FN00000000020221001000063000NNM   20220729134602    4P0P  00002100000000571200000856432AF    HBYHVTB 006400630015
BI00B32AF    JTB2103        202209237116-5752-02             TERMINAL                 CCN000042000000042000FN00000000020221001000042000NNM   20220729134602    4P0P  00002100000000571200000856432AF    HBYHVTB 006400630015
BI00B32AF    JTB2104        202209307116-5752-02             TERMINAL                 CCN000126000000126000FN00000000020221001000126000NNM   20220729134602    4P0P  00002100000000571200000856432AF    HBYHVTB 006400630015
BI00B32AF    JTB2105        202210077116-5752-02             TERMINAL                 CCN000084000000084000FN00000000020221001000084000NNM   20220729134602    4P0P  00002100000000571200000856432AF    HBYHVTB 006400630015
BI00B32AF    JTB2102        202209167116-6041                TERMINAL                 CCN000013500000013500FN00000000020221001000013500NNM   20220729134602    4P0P  00000450000000716000001009632AF    HBYHVTB 006400630015
BI00B32AF    JTB2103        202209237116-6041                TERMINAL                 CCN000013500000013500FN00000000020221001000013500NNM   20220729134602    4P0P  00000450000000716000001009632AF    HBYHVTB 006400630015
BI00B32AF    JTB2104        202209307116-6041                TERMINAL                 CCN000009000000009000FN00000000020221001000009000NNM   20220729134602    4P0P  00000450000000716000001009632AF    HBYHVTB 006400630015
BI00B32AF    JTB2105        202210077116-6041                TERMINAL                 CCN000009000000009000FN00000000020221001000009000NNM   20220729134602    4P0P  00000450000000716000001009632AF    HBYHVTB 006400630015
BI00B32AF    JTB2104        202209307126-8853-02             TERMINAL                 CCN000007500000007500FN00000000020221001000007500NNM   20220729134602    4P0P  00000750000000562500000847732AF    HBYHVTB 006400630015
BI00B32AF    JTB2102        202209167126-8855-02             TERMINAL                 CCN000036000000036000FN00000000020221001000036000NNM   20220729134602    4P0P  00000600000000510600000795832AF    HBYHVTB 006400630015
BI00B32AF    JTB2103        202209237126-8855-02             TERMINAL                 CCN000036000000036000FN00000000020221001000036000NNM   20220729134602    4P0P  00000600000000510600000795832AF    HBYHVTB 006400630015
BI00B32AF    JTB2104        202209307126-8855-02             TERMINAL                 CCN000030000000030000FN00000000020221001000030000NNM   20220729134602    4P0P  00000600000000510600000795832AF    HBYHVTB 006400630015
BI00B32AF    JTB2105        202210077126-8855-02             TERMINAL                 CCN000036000000036000FN00000000020221001000036000NNM   20220729134602    4P0P  00000600000000510600000795832AF    HBYHVTB 006400630015
BI00B32AF    JTB2103        202209237158-3009-60             RUBBER STOPPER           CCN000060000000060000FN00000000020221001000060000NNM   20220729134602    1C0C  00002000000000338000000386232AF    HBYHVTB 002700430014
BI00B32AF    JTB2104        202209307158-3009-60             RUBBER STOPPER           CCN000060000000060000FN00000000020221001000060000NNM   20220729134602    1C0C  00002000000000338000000386232AF    HBYHVTB 002700430014
BI00B32AF    JTB2105        202210077158-3009-60             RUBBER STOPPER           CCN000080000000080000FN00000000020221001000080000NNM   20220729134602    1C0C  00002000000000338000000386232AF    HBYHVTB 002700430014
BI00B32AF    JTB2101        202209097158-3070-80             RUBBER STOPPER           CCN000040000000040000FN00000000020221001000040000NNM   20220729134602    1C0C  00004000000000276000000333332AF    HBYHVTB 002700430014
BI00B32AF    JTB2102        202209167158-3070-80             RUBBER STOPPER           CCN000040000000040000FN00000000020221001000040000NNM   20220729134602    1C0C  00004000000000276000000333332AF    HBYHVTB 002700430014
BI00B32AF    JTB2103        202209237158-3070-80             RUBBER STOPPER           CCN000040000000040000FN00000000020221001000040000NNM   20220729134602    1C0C  00004000000000276000000333332AF    HBYHVTB 002700430014
BI00B32AF    JTB2104        202209307158-3070-80             RUBBER STOPPER           CCN000040000000040000FN00000000020221001000040000NNM   20220729134602    1C0C  00004000000000276000000333332AF    HBYHVTB 002700430014
BI00B32AF    JTB2105        202210077158-3070-80             RUBBER STOPPER           CCN000040000000040000FN00000000020221001000040000NNM   20220729134602    1C0C  00004000000000276000000333332AF    HBYHVTB 002700430014
BI00B32AF    JTB2103        202209237158-3165-90             WIRE SEAL                CCN000120000000120000FN00000000020221001000120000NNM   20220729134602    1C0C  00004000000000124000000172432AF    HBYHVTB 004300270014
BI00B32AF    JTB2104        202209307158-3165-90             WIRE SEAL                CCN000400000000400000FN00000000020221001000400000NNM   20220729134602    1C0C  00004000000000124000000172432AF    HBYHVTB 004300270014
BI00B32AF    JTB2105        202210077158-3165-90             WIRE SEAL                CCN000360000000360000FN00000000020221001000360000NNM   20220729134602    1C0C  00004000000000124000000172432AF    HBYHVTB 004300270014
BI00B32AF    JTB2103        202209237158-3166-60             WIRE SEAL                CCN000080000000080000FN00000000020221001000080000NNM   20220729134602    1C0C  00004000000000104000000152432AF    HBYHVTB 002700430014
BI00B32AF    JTB2104        202209307158-3166-60             WIRE SEAL                CCN000080000000080000FN00000000020221001000080000NNM   20220729134602    1C0C  00004000000000104000000152432AF    HBYHVTB 002700430014
BI00B32AF    JTB2105        202210077158-3166-60             WIRE SEAL                CCN000080000000080000FN00000000020221001000080000NNM   20220729134602    1C0C  00004000000000104000000152432AF    HBYHVTB 002700430014
BI00B32AF    JTB2102        202209167158-3167-80             WIRE SEAL                CCN000020000000020000FN00000000020221001000020000NNM   20220729134602    1C0C  00002000000000048000000109032AF    HBYHVTB 002700430014
BI00B32AF    JTB2103        202209237158-3167-80             WIRE SEAL                CCN000020000000020000FN00000000020221001000020000NNM   20220729134602    1C0C  00002000000000048000000109032AF    HBYHVTB 002700430014
BI00B32AF    JTB2102        202209167158-3169-40             SEALING PLUG             CCN000120000000120000FN00000000020221001000120000NNM   20220729134602    1C0C  00004000000000156000000204132AF    HBYHVTB 004300260014
BI00B32AF    JTB2103        202209237158-3169-40             SEALING PLUG             CCN000160000000160000FN00000000020221001000160000NNM   20220729134602    1C0C  00004000000000156000000204132AF    HBYHVTB 004300260014
BI00B32AF    JTB2104        202209307158-3169-40             SEALING PLUG             CCN000160000000160000FN00000000020221001000160000NNM   20220729134602    1C0C  00004000000000156000000204132AF    HBYHVTB 004300260014
BI00B32AF    JTB2105        202210077158-3169-40             SEALING PLUG             CCN000120000000120000FN00000000020221001000120000NNM   20220729134602    1C0C  00004000000000156000000204132AF    HBYHVTB 004300260014
BI00B32AF    JTB2102        202209167195-1463-02             TERMINAL MALE            CCN000114000000114000FN00000000020221001000114000NNM   20220729134602    4P0P  00002850000000456000000741232AF    HBYHVTB 006400630015
BI00B32AF    JTB2103        202209237195-1463-02             TERMINAL MALE            CCN000142500000142500FN00000000020221001000142500NNM   20220729134602    4P0P  00002850000000456000000741232AF    HBYHVTB 006400630015
BI00B32AF    JTB2104        202209307195-1463-02             TERMINAL MALE            CCN000142500000142500FN00000000020221001000142500NNM   20220729134602    4P0P  00002850000000456000000741232AF    HBYHVTB 006400630015
BI00B32AF    JTB2105        202210077195-1463-02             TERMINAL MALE            CCN000114000000114000FN00000000020221001000114000NNM   20220729134602    4P0P  00002850000000456000000741232AF    HBYHVTB 006400630015
BI00B32AF    JTB2101        202209097195-1464-02             TERMINAL MALE            CCN000025500000025500FN00000000020221001000025500NNM   20220729134602    4P0P  00002550000000420800000706032AF    HBYHVTB 006400630015
BI00B32AF    JTB2103        202209237195-1464-02             TERMINAL MALE            CCN000025500000025500FN00000000020221001000025500NNM   20220729134602    4P0P  00002550000000420800000706032AF    HBYHVTB 006400630015
BI00B32AF    JTB2104        202209307195-1467-02             TERMINAL MALE            CCN000028500000028500FN00000000020221001000028500NNM   20220729134602    4P0P  00002850000000438900000724132AF    HBYHVTB 006400630015
BI00B32AF    JTB2104        202209307195-1479-02             TERMINAL MALE            CCN000024000000024000FN00000000020221001000024000NNM   20220729134602    4P0P  00002400000000420000000714232AF    HBYHVTB 006400630015
BI00B32AF    JTB2103        202209237195-1935-02             TERMINAL MALE            CCN000019500000019500FN00000000020221001000019500NNM   20220729134602    4P0P  00001950000000670800000964432AF    HBYHVTB 006400630015
BI00B32AF    JTB2102        202209167195-1937-02             TERMINAL MALE            CCN000015000000015000FN00000000020221001000015000NNM   20220729134602    4P0P  00001500000000594000000887632AF    HBYHVTB 006400630015
BI00B32AF    JTB2104        202209307195-1937-02             TERMINAL MALE            CCN000015000000015000FN00000000020221001000015000NNM   20220729134602    4P0P  00001500000000594000000887632AF    HBYHVTB 006400630015
BI00B32AF    JTB2103        202209237196-0805-02             TERMINAL FEMALE          CCN000022500000022500FN00000000020221001000022500NNM   20220729134602    4P0P  00002250000000558000000843232AF    HBYHVTB 006400630015
BI00B32AF    JTB2104        202209307196-0805-02             TERMINAL FEMALE          CCN000022500000022500FN00000000020221001000022500NNM   20220729134602    4P0P  00002250000000558000000843232AF    HBYHVTB 006400630015
BI00B32AF    JTB2102        202209167196-1102-02             TERMINAL                 CCN000022500000022500FN00000000020221001000022500NNM   20220729134602    4P0P  00002250000000405000000690232AF    HBYHVTB 006400630015
BI00B32AF    JTB2104        202209307196-1102-02             TERMINAL                 CCN000022500000022500FN00000000020221001000022500NNM   20220729134602    4P0P  00002250000000405000000690232AF    HBYHVTB 006400630015
BI00B32AF    JTB2105        202210077196-1102-02             TERMINAL                 CCN000022500000022500FN00000000020221001000022500NNM   20220729134602    4P0P  00002250000000405000000690232AF    HBYHVTB 006400630015
BI00B32AF    JTB2104        202209307196-1103-02             TERMINAL                 CCN000022500000022500FN00000000020221001000022500NNM   20220729134602    4P0P  00002250000000429800000715032AF    HBYHVTB 006400630015
BI00B32AF    JTB2102        202209167196-1104-02             TERMINAL                 CCN000022500000022500FN00000000020221001000022500NNM   20220729134602    4P0P  00002250000000441000000726232AF    HBYHVTB 006400630015
BI00B32AF    JTB2104        202209307196-1104-02             TERMINAL                 CCN000022500000022500FN00000000020221001000022500NNM   20220729134602    4P0P  00002250000000441000000726232AF    HBYHVTB 006400630015
BI00B32AF    JTB2105        202210077196-1104-02             TERMINAL                 CCN000022500000022500FN00000000020221001000022500NNM   20220729134602    4P0P  00002250000000441000000726232AF    HBYHVTB 006400630015
BI00B32AF    JTB2103        202209237196-1326-02             TERMINAL FEMALE          CCN000060000000060000FN00000000020221001000060000NNM   20220729134602    4P0P  00006000000000456000000784732AF    HBYHVTB 006400630017
BI00B32AF    JTB2104        202209307196-1326-02             TERMINAL FEMALE          CCN000060000000060000FN00000000020221001000060000NNM   20220729134602    4P0P  00006000000000456000000784732AF    HBYHVTB 006400630017
BI00B32AF    JTB2102        202209167196-1460-02             TERMINAL FEMALE          CCN000085500000085500FN00000000020221001000085500NNM   20220729134602    4P0P  00002850000000444600000729832AF    HBYHVTB 006400630015
BI00B32AF    JTB2103        202209237196-1460-02             TERMINAL FEMALE          CCN000313500000313500FN00000000020221001000313500NNM   20220729134602    4P0P  00002850000000444600000729832AF    HBYHVTB 006400630015
BI00B32AF    JTB2104        202209307196-1460-02             TERMINAL FEMALE          CCN000342000000342000FN00000000020221001000342000NNM   20220729134602    4P0P  00002850000000444600000729832AF    HBYHVTB 006400630015
BI00B32AF    JTB2105        202210077196-1460-02             TERMINAL FEMALE          CCN000313500000313500FN00000000020221001000313500NNM   20220729134602    4P0P  00002850000000444600000729832AF    HBYHVTB 006400630015
BI00B32AF    JTB2101        202209097196-1462-02             TERMINAL FEMALE          CCN000021000000021000FN00000000020221001000021000NNM   20220729134602    4P0P  00002100000000352800000638032AF    HBYHVTB 006400630015
BI00B32AF    JTB2104        202209307196-1462-02             TERMINAL FEMALE          CCN000021000000021000FN00000000020221001000021000NNM   20220729134602    4P0P  00002100000000352800000638032AF    HBYHVTB 006400630015
BI00B32AF    JTB2105        202210077196-1462-02             TERMINAL FEMALE          CCN000021000000021000FN00000000020221001000021000NNM   20220729134602    4P0P  00002100000000352800000638032AF    HBYHVTB 006400630015
BI00B32AF    JTB2102        202209167196-1481-02             TERMINAL FEMALE          CCN000024000000024000FN00000000020221001000024000NNM   20220729134602    4P0P  00002400000000422400000707632AF    HBYHVTB 006400630015
BI00B32AF    JTB2104        202209307196-1481-02             TERMINAL FEMALE          CCN000024000000024000FN00000000020221001000024000NNM   20220729134602    4P0P  00002400000000422400000707632AF    HBYHVTB 006400630015
BI00B32AF    JTB2105        202210077196-1481-02             TERMINAL FEMALE          CCN000024000000024000FN00000000020221001000024000NNM   20220729134602    4P0P  00002400000000422400000707632AF    HBYHVTB 006400630015
BI00B32AF    JTB2102        202209167196-1482-02             TERMINAL FEMALE          CCN000024000000024000FN00000000020221001000024000NNM   20220729134602    4P0P  00002400000000424800000710032AF    HBYHVTB 006400630015
BI00B32AF    JTB2104        202209307196-1935-02             TERMINAL FEMALE          CCN000018000000018000FN00000000020221001000018000NNM   20220729134602    4P0P  00001800000000534600000819832AF    HBYHVTB 006400630015
BI00B32AF    JTB2103        202209237196-1937-02             TERMINAL FEMALE          CCN000013500000013500FN00000000020221001000013500NNM   20220729134602    4P0P  00001350000000446900000732132AF    HBYHVTB 006400630015
BI00B32AF    JTB2104        202209307196-1937-02             TERMINAL FEMALE          CCN000013500000013500FN00000000020221001000013500NNM   20220729134602    4P0P  00001350000000446900000732132AF    HBYHVTB 006400630015
BI00B32AF    JTB2101        202209097196-1938-02             TERMINAL FEMALE          CCN000013500000013500FN00000000020221001000013500NNM   20220729134602    4P0P  00001350000000507600000795832AF    HBYHVTB 006400630015
BI00B32AF    JTB2103        202209237196-1947-02             TERMINAL FEMALE          CCN000009000000009000FN00000000020221001000009000NNM   20220729134602    4POP  00000900000000407700000692932AF    HBYHVTB 006400630015
BI00B32AF    JTB2102        202209167282-4578-30             HOUSING MALE ASS'Y       CCN000003600000003600FN00000000020221001000003600NNM   20220729134602    4N0N  00000120000000782600000992632AF    HBYHVTB 005500360039
BI00B32AF    JTB2104        202209307282-4578-30             HOUSING MALE ASS'Y       CCN000004800000004800FN00000000020221001000004800NNM   20220729134602    4N0N  00000120000000782600000992632AF    HBYHVTB 005500360039
BI00B32AF    JTB2105        202210077282-4578-30             HOUSING MALE ASS'Y       CCN000002400000002400FN00000000020221001000002400NNM   20220729134602    4N0N  00000120000000782600000992632AF    HBYHVTB 005500360039
BI00B32AF    JTB2102        202209167282-4855                HOUSING MALE ASS'Y       CCN000002400000002400FN00000000020221001000002400NNM   20220729134602    4N0N  00000120000001063200001283232AF    HBYHVTB 005500360039
BI00B32AF    JTB2104        202209307282-4855                HOUSING MALE ASS'Y       CCN000002400000002400FN00000000020221001000002400NNM   20220729134602    4N0N  00000120000001063200001283232AF    HBYHVTB 005500360039
BI00B32AF    JTB2101        202209097283-1028                CONNECTOR HOUSING        CCN000006000000006000FN00000000020221001000006000NNM   20220729134602    4N0N  00000600000000779000001019332AF    HBYHVTB 005600390040
BI00B32AF    JTB2102        202209167283-1028                CONNECTOR HOUSING        CCN000006000000006000FN00000000020221001000006000NNM   20220729134602    4N0N  00000600000000779000001019332AF    HBYHVTB 005600390040
BI00B32AF    JTB2103        202209237283-1028                CONNECTOR HOUSING        CCN000006000000006000FN00000000020221001000006000NNM   20220729134602    4N0N  00000600000000779000001019332AF    HBYHVTB 005600390040
BI00B32AF    JTB2104        202209307283-1028                CONNECTOR HOUSING        CCN000006000000006000FN00000000020221001000006000NNM   20220729134602    4N0N  00000600000000779000001019332AF    HBYHVTB 005600390040
BI00B32AF    JTB2105        202210077283-1028                CONNECTOR HOUSING        CCN000006000000006000FN00000000020221001000006000NNM   20220729134602    4N0N  00000600000000779000001019332AF    HBYHVTB 005600390040
BI00B32AF    JTB2104        202209307283-1156                CONNECTOR                CCN000008800000008800FN00000000020221001000008800NNM   20220729134602    4N0N  00000080000000877600001078032AF    HBYHVTB 005600390040
BI00B32AF    JTB2105        202210077283-1156                CONNECTOR                CCN000000800000000800FN00000000020221001000000800NNM   20220729134602    4N0N  00000080000000877600001078032AF    HBYHVTB 005600390040
BI00B32AF    JTB2102        202209167283-4576                HOUSING FEMALE ASS'Y     CCN000033600000033600FN00000000020221001000033600NNM   20220729134602    4N0N  00000480000000651300000871332AF    HBYHVTB 005500360039
BI00B32AF    JTB2103        202209237283-4576                HOUSING FEMALE ASS'Y     CCN000028800000028800FN00000000020221001000028800NNM   20220729134602    4N0N  00000480000000651300000871332AF    HBYHVTB 005500360039
BI00B32AF    JTB2104        202209307283-4576                HOUSING FEMALE ASS'Y     CCN000033600000033600FN00000000020221001000033600NNM   20220729134602    4N0N  00000480000000651300000871332AF    HBYHVTB 005500360039
BI00B32AF    JTB2105        202210077283-4576                HOUSING FEMALE ASS'Y     CCN000028800000028800FN00000000020221001000028800NNM   20220729134602    4N0N  00000480000000651300000871332AF    HBYHVTB 005500360039
BI00B32AF    JTB2103        202209237283-4577                CONNECTOR HOUSING        CCN000004800000004800FN00000000020221001000004800NNM   20220729134602    4N0N  00000480000000916800001136832AF    HBYHVTB 005500360039
BI00B32AF    JTB2104        202209307283-4577                CONNECTOR HOUSING        CCN000004800000004800FN00000000020221001000004800NNM   20220729134602    4N0N  00000480000000916800001136832AF    HBYHVTB 005500360039
BI00B32AF    JTB2105        202210077283-4577                CONNECTOR HOUSING        CCN000004800000004800FN00000000020221001000004800NNM   20220729134602    4N0N  00000480000000916800001136832AF    HBYHVTB 005500360039
BI00B32AF    JTB2102        202209167283-4854                CONNECTOR HOUSING        CCN000004800000004800FN00000000020221001000004800NNM   20220729134602    4N0N  00000240000000694100000914132AF    HBYHVTB 005500360039
BI00B32AF    JTB2105        202210077283-4854                CONNECTOR HOUSING        CCN000002400000002400FN00000000020221001000002400NNM   20220729134602    4N0N  00000240000000694100000914132AF    HBYHVTB 005500360039
BI00B32AF    JTB2101        202209097283-4855                CONNECTOR HOUSING        CCN000004800000004800FN00000000020221001000004800NNM   20220729134602    4N0N  00000240000001188400001400032AF    HBYHVTB 005500360039
BI00B32AF    JTB2102        202209167283-4855                CONNECTOR HOUSING        CCN000004800000004800FN00000000020221001000004800NNM   20220729134602    4N0N  00000240000001188400001400032AF    HBYHVTB 005500360039
BI00B32AF    JTB2103        202209237283-4855                CONNECTOR HOUSING        CCN000004800000004800FN00000000020221001000004800NNM   20220729134602    4N0N  00000240000001188400001400032AF    HBYHVTB 005500360039
BI00B32AF    JTB2104        202209307283-4855                CONNECTOR HOUSING        CCN000004800000004800FN00000000020221001000004800NNM   20220729134602    4N0N  00000240000001188400001400032AF    HBYHVTB 005500360039
BI00B32AF    JTB2105        202210077283-4855                CONNECTOR HOUSING        CCN000004800000004800FN00000000020221001000004800NNM   20220729134602    4N0N  00000240000001188400001400032AF    HBYHVTB 005500360039
BI00B32AF    JTB2103        202209237283-5830-30             CONNECTOR                CCN000006000000006000FN00000000020221001000006000NNM   20220729134602    1N0N  00000600000000954000001104032AF    HBYHVTB 005500360039
BI00B32AF    JTB2105        202210077283-5830-30             CONNECTOR                CCN000006000000006000FN00000000020221001000006000NNM   20220729134602    1N0N  00000600000000954000001104032AF    HBYHVTB 005500360039
BI00B32AF    JTB2102        202209167283-5845                CONNECTOR HOUSING        CCN000030000000030000FN00000000020221001000030000NNM   20220729134602    1N0N  00000600000000444000000606332AF    HBYHVTB 005400370024
BI00B32AF    JTB2103        202209237283-5845                CONNECTOR HOUSING        CCN000018000000018000FN00000000020221001000018000NNM   20220729134602    1N0N  00000600000000444000000606332AF    HBYHVTB 005400370024
BI00B32AF    JTB2104        202209307283-5845                CONNECTOR HOUSING        CCN000042000000042000FN00000000020221001000042000NNM   20220729134602    1N0N  00000600000000444000000606332AF    HBYHVTB 005400370024
BI00B32AF    JTB2105        202210077283-5845                CONNECTOR HOUSING        CCN000012000000012000FN00000000020221001000012000NNM   20220729134602    1N0N  00000600000000444000000606332AF    HBYHVTB 005400370024
BI00B32AF    JTB2102        202209167283-5846                HOUSING                  CCN000009000000009000FN00000000020221001000009000NNM   20220729134602    1N0N  00000150000000885000001102032AF    HBYHVTB 005600390040
BI00B32AF    JTB2103        202209237283-5846                HOUSING                  CCN000012000000012000FN00000000020221001000012000NNM   20220729134602    1N0N  00000150000000885000001102032AF    HBYHVTB 005600390040
BI00B32AF    JTB2104        202209307283-5846                HOUSING                  CCN000015000000015000FN00000000020221001000015000NNM   20220729134602    1N0N  00000150000000885000001102032AF    HBYHVTB 005600390040
BI00B32AF    JTB2105        202210077283-5846                HOUSING                  CCN000009000000009000FN00000000020221001000009000NNM   20220729134602    1N0N  00000150000000885000001102032AF    HBYHVTB 005600390040
BI00B32AF    JTB2101        202209097286-1899                HOUSING SUB ASSEMBLY     CCN000002352000002352FN00000000020221001000002352NNM   20220729134602    4N0N  00000033600000814800001010832AF    HBYHVTB 005400370024
BI00B32AF    JTB2102        202209167286-1899                HOUSING SUB ASSEMBLY     CCN000010752000010752FN00000000020221001000010752NNM   20220729134602    4N0N  00000033600000814800001010832AF    HBYHVTB 005400370024
BI00B32AF    JTB2103        202209237286-1899                HOUSING SUB ASSEMBLY     CCN000011088000011088FN00000000020221001000011088NNM   20220729134602    4N0N  00000033600000814800001010832AF    HBYHVTB 005400370024
BI00B32AF    JTB2104        202209307286-1899                HOUSING SUB ASSEMBLY     CCN000011424000011424FN00000000020221001000011424NNM   20220729134602    4N0N  00000033600000814800001010832AF    HBYHVTB 005400370024
BI00B32AF    JTB2105        202210077286-1899                HOUSING SUB ASSEMBLY     CCN000011088000011088FN00000000020221001000011088NNM   20220729134602    4N0N  00000033600000814800001010832AF    HBYHVTB 005400370024
BI00B32AF    JTB2101        202209097286-1900                CONNECTOR HOUSING        CCN000009600000009600FN00000000020221001000009600NNM   20220729134602    4N0N  00000480000001161600001376632AF    HBYHVTB 005500360039
BI00B32AF    JTB2102        202209167286-1900                CONNECTOR HOUSING        CCN000014400000014400FN00000000020221001000014400NNM   20220729134602    4N0N  00000480000001161600001376632AF    HBYHVTB 005500360039
BI00B32AF    JTB2103        202209237286-1900                CONNECTOR HOUSING        CCN000009600000009600FN00000000020221001000009600NNM   20220729134602    4N0N  00000480000001161600001376632AF    HBYHVTB 005500360039
BI00B32AF    JTB2104        202209307286-1900                CONNECTOR HOUSING        CCN000009600000009600FN00000000020221001000009600NNM   20220729134602    4N0N  00000480000001161600001376632AF    HBYHVTB 005500360039
BI00B32AF    JTB2105        202210077286-1900                CONNECTOR HOUSING        CCN000009600000009600FN00000000020221001000009600NNM   20220729134602    4N0N  00000480000001161600001376632AF    HBYHVTB 005500360039
BI00B32AF    JTB2101        202209097286-4097                CONNECTOR MALE ASS'Y     CCN000004800000004800FN00000000020221001000004800NNM   20220729134602    1N0N  00000160000000768000000978032AF    HBYHVTB 005500360039
BI00B32AF    JTB2102        202209167286-4097                CONNECTOR MALE ASS'Y     CCN000003200000003200FN00000000020221001000003200NNM   20220729134602    1N0N  00000160000000768000000978032AF    HBYHVTB 005500360039
BI00B32AF    JTB2103        202209237286-4097                CONNECTOR MALE ASS'Y     CCN000004800000004800FN00000000020221001000004800NNM   20220729134602    1N0N  00000160000000768000000978032AF    HBYHVTB 005500360039
BI00B32AF    JTB2104        202209307286-4097                CONNECTOR MALE ASS'Y     CCN000003200000003200FN00000000020221001000003200NNM   20220729134602    1N0N  00000160000000768000000978032AF    HBYHVTB 005500360039
BI00B32AF    JTB2105        202210077286-4097                CONNECTOR MALE ASS'Y     CCN000003200000003200FN00000000020221001000003200NNM   20220729134602    1N0N  00000160000000768000000978032AF    HBYHVTB 005500360039
BI00B32AF    JTB2101        202209097287-3885-30             HYBRID FEMALE ASS'Y      CCN000004800000004800FN00000000020221001000004800NNM   20220729134602    1N0N  00000240000001029600001249632AF    HBYHVTB 005500360039
BI00B32AF    JTB2103        202209237287-3885-30             HYBRID FEMALE ASS'Y      CCN000002400000002400FN00000000020221001000002400NNM   20220729134602    1N0N  00000240000001029600001249632AF    HBYHVTB 005500360039
BI00B32AF    JTB2105        202210077287-3885-30             HYBRID FEMALE ASS'Y      CCN000002400000002400FN00000000020221001000002400NNM   20220729134602    1N0N  00000240000001029600001249632AF    HBYHVTB 005500360039
BI00B32AF    JTB2104        202209307289-3342                HOUSING FEMALE ASS'Y     CCN000002400000002400FN00000000020221001000002400NNM   20220729134602    1N0N  00000240000000686400000901432AF    HBYHVTB 005500360039
BI00B32AF    JTB2105        202210077289-3342                HOUSING FEMALE ASS'Y     CCN000012000000012000FN00000000020221001000012000NNM   20220729134602    1N0N  00000240000000686400000901432AF    HBYHVTB 005500360039
BI00B32AF    JTB2102        202209167289-3342-30             HOUSING FEMALE ASS'Y     CCN000012000000012000FN00000000020221001000012000NNM   20220729134602    1N0N  00000240000000686400000901432AF    HBYHVTB 005500360039
BI00B32AF    JTB2103        202209237289-3342-30             HOUSING FEMALE ASS'Y     CCN000033600000033600FN00000000020221001000033600NNM   20220729134602    1N0N  00000240000000686400000901432AF    HBYHVTB 005500360039
BI00B32AF    JTB2104        202209307289-3342-30             HOUSING FEMALE ASS'Y     CCN000033600000033600FN00000000020221001000033600NNM   20220729134602    1N0N  00000240000000686400000901432AF    HBYHVTB 005500360039
BI00B32AF    JTB2105        202210077289-3342-30             HOUSING FEMALE ASS'Y     CCN000033600000033600FN00000000020221001000033600NNM   20220729134602    1N0N  00000240000000686400000901432AF    HBYHVTB 005500360039
BI00B32AF    JTB2102        202209167289-5011-30             HOUSING FEMALE ASS'Y     CCN000002400000002400FN00000000020221001000002400NNM   20220729134602    4N0N  00000240000001171700001368632AF    HBYHVTB 005500360039
BI00B32AF    JTB2103        202209237289-5011-30             HOUSING FEMALE ASS'Y     CCN000031200000031200FN00000000020221001000031200NNM   20220729134602    4N0N  00000240000001171700001368632AF    HBYHVTB 005500360039
BI00B32AF    JTB2104        202209307289-5011-30             HOUSING FEMALE ASS'Y     CCN000031200000031200FN00000000020221001000031200NNM   20220729134602    4N0N  00000240000001171700001368632AF    HBYHVTB 005500360039
BI00B32AF    JTB2105        202210077289-5011-30             HOUSING FEMALE ASS'Y     CCN000031200000031200FN00000000020221001000031200NNM   20220729134602    4N0N  00000240000001171700001368632AF    HBYHVTB 005500360039
BI00B32AF    JTB2101        202209097297-2287-30             HOUSING MALE ASS'Y       CCN000003600000003600FN00000000020221001000003600NNM   20220729134602    4N0N  00000120000000473900000590032AF    HBYHVTB 005400370024
BI00B32AF    JTB2103        202209237297-2287-30             HOUSING MALE ASS'Y       CCN000001200000001200FN00000000020221001000001200NNM   20220729134602    4N0N  00000120000000473900000590032AF    HBYHVTB 005400370024
BI00B32AF    JTB2104        202209307297-2287-30             HOUSING MALE ASS'Y       CCN000001200000001200FN00000000020221001000001200NNM   20220729134602    4N0N  00000120000000473900000590032AF    HBYHVTB 005400370024
BI00B32AF    JTB2105        202210077297-2287-30             HOUSING MALE ASS'Y       CCN000002400000002400FN00000000020221001000002400NNM   20220729134602    4N0N  00000120000000473900000590032AF    HBYHVTB 005400370024
BI00B32AF    JTB2102        202209167298-1865-30             HOUSING FEMALE ASS'Y     CCN000004800000004800FN00000000020221001000004800NNM   20220729134602    4N0N  00000240000001003200001204532AF    HBYHVTB 005500360039
BI00B32AF    JTB2103        202209237298-1865-30             HOUSING FEMALE ASS'Y     CCN000040800000040800FN00000000020221001000040800NNM   20220729134602    4N0N  00000240000001003200001204532AF    HBYHVTB 005500360039
BI00B32AF    JTB2104        202209307298-1865-30             HOUSING FEMALE ASS'Y     CCN000038400000038400FN00000000020221001000038400NNM   20220729134602    4N0N  00000240000001003200001204532AF    HBYHVTB 005500360039
BI00B32AF    JTB2105        202210077298-1865-30             HOUSING FEMALE ASS'Y     CCN000038400000038400FN00000000020221001000038400NNM   20220729134602    4N0N  00000240000001003200001204532AF    HBYHVTB 005500360039
BI00B32AF    JTB2102        202209167298-1869-30             HOUSING FEMALE ASS'Y     CCN000001200000001200FN00000000020221001000001200NNM   20220729134602    4N0N  00000120000000737000000939832AF    HBYHVTB 005500360039
BI00B32AF    JTB2103        202209237298-1869-30             HOUSING FEMALE ASS'Y     CCN000001200000001200FN00000000020221001000001200NNM   20220729134602    4N0N  00000120000000737000000939832AF    HBYHVTB 005500360039
BI00B32AF    JTB2104        202209307298-1869-30             HOUSING FEMALE ASS'Y     CCN000001200000001200FN00000000020221001000001200NNM   20220729134602    4N0N  00000120000000737000000939832AF    HBYHVTB 005500360039
BI00B32AF    JTB2105        202210077298-1869-30             HOUSING FEMALE ASS'Y     CCN000002400000002400FN00000000020221001000002400NNM   20220729134602    4N0N  00000120000000737000000939832AF    HBYHVTB 005500360039
BI00B32AF    JTB2104        202209307298-2278-30             HOUSING FEMALE ASS'Y     CCN000002400000002400FN00000000020221001000002400NNM   20220729134602    4N0N  00000240000001091700001295432AF    HBYHVTB 005500360039
BI00B32AF    JTB2105        202210077298-2278-30             HOUSING FEMALE ASS'Y     CCN000004800000004800FN00000000020221001000004800NNM   20220729134602    4N0N  00000240000001091700001295432AF    HBYHVTB 005500360039
BI00B32AF    JTB2101        202209097298-2280-30             HOUSING FEMALE ASS'Y     CCN000001920000001920FN00000000020221001000001920NNM   20220729134602    4N0N  00000192000001068000001216032AF    HBYHVTB 005500360039
BI00B32AF    JTB2102        202209167298-2280-30             HOUSING FEMALE ASS'Y     CCN000003840000003840FN00000000020221001000003840NNM   20220729134602    4N0N  00000192000001068000001216032AF    HBYHVTB 005500360039
BI00B32AF    JTB2103        202209237298-2280-30             HOUSING FEMALE ASS'Y     CCN000001920000001920FN00000000020221001000001920NNM   20220729134602    4N0N  00000192000001068000001216032AF    HBYHVTB 005500360039
BI00B32AF    JTB2104        202209307298-2280-30             HOUSING FEMALE ASS'Y     CCN000003840000003840FN00000000020221001000003840NNM   20220729134602    4N0N  00000192000001068000001216032AF    HBYHVTB 005500360039
BI00B32AF    JTB2105        202210077298-2280-30             HOUSING FEMALE ASS'Y     CCN000003840000003840FN00000000020221001000003840NNM   20220729134602    4N0N  00000192000001068000001216032AF    HBYHVTB 005500360039
BI00B32AF    JTB2103        202209237298-2507-30             HOUSING FEMALE ASS'Y     CCN000003600000003600FN00000000020221001000003600NNM   20220729134602    4N0N  00000120000000713200000914532AF    HBYHVTB 005500360039
BI00B32AF    JTB2104        202209307298-2507-30             HOUSING FEMALE ASS'Y     CCN000004800000004800FN00000000020221001000004800NNM   20220729134602    4N0N  00000120000000713200000914532AF    HBYHVTB 005500360039
BI00B32AF    JTB2105        202210077298-2507-30             HOUSING FEMALE ASS'Y     CCN000003600000003600FN00000000020221001000003600NNM   20220729134602    4N0N  00000120000000713200000914532AF    HBYHVTB 005500360039
BI00B32AF    JTB2103        202209237298-2508-30             HOUSING FEMALE ASS'Y     CCN000003600000003600FN00000000020221001000003600NNM   20220729134602    4N0N  00000120000000822000001005032AF    HBYHVTB 005500360039
BI00B32AF    JTB2104        202209307298-2508-30             HOUSING FEMALE ASS'Y     CCN000003600000003600FN00000000020221001000003600NNM   20220729134602    4N0N  00000120000000822000001005032AF    HBYHVTB 005500360039
BI00B32AF    JTB2105        202210077298-2508-30             HOUSING FEMALE ASS'Y     CCN000003600000003600FN00000000020221001000003600NNM   20220729134602    4N0N  00000120000000822000001005032AF    HBYHVTB 005500360039
BI00B32AF    JTB2101        202209097298-2509-30             HOUSING FEMALE ASS'Y     CCN000008400000008400FN00000000020221001000008400NNM   20220729134602    4N0N  00000120000000857500001062532AF    HBYHVTB 005500360039
BI00B32AF    JTB2102        202209167298-2509-30             HOUSING FEMALE ASS'Y     CCN000008400000008400FN00000000020221001000008400NNM   20220729134602    4N0N  00000120000000857500001062532AF    HBYHVTB 005500360039
BI00B32AF    JTB2103        202209237298-2509-30             HOUSING FEMALE ASS'Y     CCN000008400000008400FN00000000020221001000008400NNM   20220729134602    4N0N  00000120000000857500001062532AF    HBYHVTB 005500360039
BI00B32AF    JTB2104        202209307298-2509-30             HOUSING FEMALE ASS'Y     CCN000009600000009600FN00000000020221001000009600NNM   20220729134602    4N0N  00000120000000857500001062532AF    HBYHVTB 005500360039
BI00B32AF    JTB2105        202210077298-2509-30             HOUSING FEMALE ASS'Y     CCN000006000000006000FN00000000020221001000006000NNM   20220729134602    4N0N  00000120000000857500001062532AF    HBYHVTB 005500360039
BI00B32AF    JTB2102        202209167298-5955                CONNECTOR SUB ASSY       CCN000028800000028800FN00000000020221001000028800NNM   20220729134602    4N0N  00000720000001029600001253032AF    HBYHVTB 005500360039
BI00B32AF    JTB2103        202209237298-5955                CONNECTOR SUB ASSY       CCN000043200000043200FN00000000020221001000043200NNM   20220729134602    4N0N  00000720000001029600001253032AF    HBYHVTB 005500360039
BI00B32AF    JTB2104        202209307298-5955                CONNECTOR SUB ASSY       CCN000043200000043200FN00000000020221001000043200NNM   20220729134602    4N0N  00000720000001029600001253032AF    HBYHVTB 005500360039
BI00B32AF    JTB2105        202210077298-5955                CONNECTOR SUB ASSY       CCN000043200000043200FN00000000020221001000043200NNM   20220729134602    4N0N  00000720000001029600001253032AF    HBYHVTB 005500360039
BI00B32AF    JTB2101        202209097388-0314                CONNECTOR ASS'Y          CCN000006000000006000FN00000000020221001000006000NNM   20220729134602    4N0N  00000120000001038000001132332AF    HBYHVTB 005400370024
BI00B32AF    JTB2102        202209167388-0314                CONNECTOR ASS'Y          CCN000012000000012000FN00000000020221001000012000NNM   20220729134602    4N0N  00000120000001038000001132332AF    HBYHVTB 005400370024
BI00B32AF    JTB2103        202209237388-0314                CONNECTOR ASS'Y          CCN000013200000013200FN00000000020221001000013200NNM   20220729134602    4N0N  00000120000001038000001132332AF    HBYHVTB 005400370024
BI00B32AF    JTB2104        202209307388-0314                CONNECTOR ASS'Y          CCN000013200000013200FN00000000020221001000013200NNM   20220729134602    4N0N  00000120000001038000001132332AF    HBYHVTB 005400370024
BI00B32AF    JTB2105        202210077388-0314                CONNECTOR ASS'Y          CCN000012000000012000FN00000000020221001000012000NNM   20220729134602    4N0N  00000120000001038000001132332AF    HBYHVTB 005400370024
BI00B32AF    JTB2101        202209097388-0316-80             CONNECTOR ASS'Y          CCN000001200000001200FN00000000020221001000001200NNM   20220729134602    4N0N  00000120000001002500001132532AF    HBYHVTB 005400370024
BI00B32AF    JTB2104        202209307388-0316-80             CONNECTOR ASS'Y          CCN000001200000001200FN00000000020221001000001200NNM   20220729134602    4N0N  00000120000001002500001132532AF    HBYHVTB 005400370024
BI00B32AF    JTB2101        202209097388-0317-60             CONNECTOR ASS'Y          CCN000004800000004800FN00000000020221001000004800NNM   20220729134602    4N0N  00000120000001034400001129332AF    HBYHVTB 005400370024
BI00B32AF    JTB2102        202209167388-0317-60             CONNECTOR ASS'Y          CCN000010800000010800FN00000000020221001000010800NNM   20220729134602    4N0N  00000120000001034400001129332AF    HBYHVTB 005400370024
BI00B32AF    JTB2103        202209237388-0317-60             CONNECTOR ASS'Y          CCN000012000000012000FN00000000020221001000012000NNM   20220729134602    4N0N  00000120000001034400001129332AF    HBYHVTB 005400370024
BI00B32AF    JTB2104        202209307388-0317-60             CONNECTOR ASS'Y          CCN000010800000010800FN00000000020221001000010800NNM   20220729134602    4N0N  00000120000001034400001129332AF    HBYHVTB 005400370024
BI00B32AF    JTB2105        202210077388-0317-60             CONNECTOR ASS'Y          CCN000010800000010800FN00000000020221001000010800NNM   20220729134602    4N0N  00000120000001034400001129332AF    HBYHVTB 005400370024
BI00B32AF    #JTB2105       202210077116-4021                TERMINAL                 CCN000027000000027000FN00000000020221001000027000NNM   20220729134556    2F0P  00001350000000534600000868832AF    HBYHVTB 006400630015
BI00B32AF    #JTB2102       202209167123-6347                CONNECTOR HOUSING        CCN000011200000011200FN00000000020221001000011200NNM   20220729134556    2F0F  00000160000000647000000904832AF    HBYHVTB 005500360039
BI00B32AF    #JTB2103       202209237123-6347                CONNECTOR HOUSING        CCN000012800000012800FN00000000020221001000012800NNM   20220729134556    2F0F  00000160000000647000000904832AF    HBYHVTB 005500360039
BI00B32AF    #JTB2104       202209307123-6347                CONNECTOR HOUSING        CCN000011200000011200FN00000000020221001000011200NNM   20220729134556    2F0F  00000160000000647000000904832AF    HBYHVTB 005500360039
BI00B32AF    #JTB2105       202210077123-6347                CONNECTOR HOUSING        CCN000011200000011200FN00000000020221001000011200NNM   20220729134556    2F0F  00000160000000647000000904832AF    HBYHVTB 005500360039
BI00B32AF    #JTB2103       202209237123-6423-30             CONNECTOR                CCN000006000000006000FN00000000020221001000006000NNM   20220729134556    2F0F  00000200000001002000001167632AF    HBYHVTB 005600390023
BI00B32AF    #JTB2104       202209307123-6423-30             CONNECTOR                CCN000006000000006000FN00000000020221001000006000NNM   20220729134556    2F0F  00000200000001002000001167632AF    HBYHVTB 005600390023
BI00B32AF    #JTB2105       202210077123-6423-30             CONNECTOR                CCN000006000000006000FN00000000020221001000006000NNM   20220729134556    2F0F  00000200000001002000001167632AF    HBYHVTB 005600390023
BI00B32AF    #JTB2101       202209097157-3992-90             CONNECTOR SEALED         CCN000040000000040000FN00000000020221001000040000NNM   20220729134556    2C0C  00004000000000300000000363332AF    HBYHVTB 002700430014
BI00B32AF    #JTB2104       202209307157-3992-90             CONNECTOR SEALED         CCN000040000000040000FN00000000020221001000040000NNM   20220729134556    2C0C  00004000000000300000000363332AF    HBYHVTB 002700430014
BI00B32AF    #JTB2102       202209167158-3120-90             CONNECTOR WIRE SEAL      CCN000080000000080000FN00000000020221001000080000NNM   20220729134556    2C0C  00002000000000136000000194032AF    HBYHVTB 002700430014
BI00B32AF    #JTB2103       202209237158-3120-90             CONNECTOR WIRE SEAL      CCN000080000000080000FN00000000020221001000080000NNM   20220729134556    2C0C  00002000000000136000000194032AF    HBYHVTB 002700430014
BI00B32AF    #JTB2104       202209307158-3120-90             CONNECTOR WIRE SEAL      CCN000100000000100000FN00000000020221001000100000NNM   20220729134556    2C0C  00002000000000136000000194032AF    HBYHVTB 002700430014
BI00B32AF    #JTB2105       202210077158-3120-90             CONNECTOR WIRE SEAL      CCN000100000000100000FN00000000020221001000100000NNM   20220729134556    2C0C  00002000000000136000000194032AF    HBYHVTB 002700430014
BI00B32AF    #JTB2101       202209097158-3121-80             WIRE SEAL                CCN000020000000020000FN00000000020221001000020000NNM   20220729134556    2C0C  00002000000000118000000187332AF    HBYHVTB 002700430014
BI00B32AF    #JTB2102       202209167158-3121-80             WIRE SEAL                CCN000040000000040000FN00000000020221001000040000NNM   20220729134556    2C0C  00002000000000118000000187332AF    HBYHVTB 002700430014
BI00B32AF    #JTB2103       202209237158-3121-80             WIRE SEAL                CCN000040000000040000FN00000000020221001000040000NNM   20220729134556    2C0C  00002000000000118000000187332AF    HBYHVTB 002700430014
BI00B32AF    #JTB2104       202209307158-3121-80             WIRE SEAL                CCN000060000000060000FN00000000020221001000060000NNM   20220729134556    2C0C  00002000000000118000000187332AF    HBYHVTB 002700430014
BI00B32AF    #JTB2105       202210077158-3121-80             WIRE SEAL                CCN000040000000040000FN00000000020221001000040000NNM   20220729134556    2C0C  00002000000000118000000187332AF    HBYHVTB 002700430014
BI00B32AF    #JTB2102       202209167172-5629-80             RUBBER STOPPER           CCN000040000000040000FN00000000020221001000040000NNM   20220729134556    2H0H  00002000000000060000000111132AF    HBYHVTB 004300270014
BI00B32AF    #JTB2103       202209237172-5629-80             RUBBER STOPPER           CCN000080000000080000FN00000000020221001000080000NNM   20220729134556    2H0H  00002000000000060000000111132AF    HBYHVTB 004300270014
BI00B32AF    #JTB2104       202209307172-5629-80             RUBBER STOPPER           CCN000060000000060000FN00000000020221001000060000NNM   20220729134556    2H0H  00002000000000060000000111132AF    HBYHVTB 004300270014
BI00B32AF    #JTB2102       202209167172-5630-40             RUBBER STOPPER           CCN000020000000020000FN00000000020221001000020000NNM   20220729134556    2H0H  00002000000000044000000095132AF    HBYHVTB 004300270014
BI00B32AF    #JTB2105       202210077172-5630-40             RUBBER STOPPER           CCN000020000000020000FN00000000020221001000020000NNM   20220729134556    2H0H  00002000000000044000000095132AF    HBYHVTB 004300270014
BI00B32AF    #JTB2102       202209167172-5631-60             RUBBER STOPPER           CCN000020000000020000FN00000000020221001000020000NNM   20220729134556    2H0H  00002000000000042000000093132AF    HBYHVTB 004300270014
BI00B32AF    #JTB2103       202209237172-5631-60             RUBBER STOPPER           CCN000020000000020000FN00000000020221001000020000NNM   20220729134556    2H0H  00002000000000042000000093132AF    HBYHVTB 004300270014
BI00B32AF    #JTB2104       202209307172-5631-60             RUBBER STOPPER           CCN000020000000020000FN00000000020221001000020000NNM   20220729134556    2H0H  00002000000000042000000093132AF    HBYHVTB 004300270014
BI00B32AF    #JTB2102       202209167172-5632-10             DUMMY PLUG               CCN000020000000020000FN00000000020221001000020000NNM   20220729134556    2H0H  00002000000000080400000131832AF    HBYHVTB 004300270014
BI00B32AF    #JTB2104       202209307172-5632-10             DUMMY PLUG               CCN000020000000020000FN00000000020221001000020000NNM   20220729134556    2H0H  00002000000000080400000131832AF    HBYHVTB 004300270014
BI00B32AF    #JTB2101       202209097183-2413                CONNECTOR HOUSING        CCN000009600000009600FN00000000020221001000009600NNM   20220729134556    2F0F  00000480000000478100000760032AF    HBYHVTB 005500360039
BI00B32AF    #JTB2102       202209167183-2413                CONNECTOR HOUSING        CCN000009600000009600FN00000000020221001000009600NNM   20220729134556    2F0F  00000480000000478100000760032AF    HBYHVTB 005500360039
BI00B32AF    #JTB2103       202209237183-2413                CONNECTOR HOUSING        CCN000014400000014400FN00000000020221001000014400NNM   20220729134556    2F0F  00000480000000478100000760032AF    HBYHVTB 005500360039
BI00B32AF    #JTB2104       202209307183-2413                CONNECTOR HOUSING        CCN000009600000009600FN00000000020221001000009600NNM   20220729134556    2F0F  00000480000000478100000760032AF    HBYHVTB 005500360039
BI00B32AF    #JTB2105       202210077183-2413                CONNECTOR HOUSING        CCN000009600000009600FN00000000020221001000009600NNM   20220729134556    2F0F  00000480000000478100000760032AF    HBYHVTB 005500360039
BI00B32AF    #JTB2102       202209167183-2414                CONNECTOR HOUSING        CCN000009600000009600FN00000000020221001000009600NNM   20220729134556    2F0F  00000480000000779200001061032AF    HBYHVTB 005500360039
BI00B32AF    #JTB2103       202209237183-2414                CONNECTOR HOUSING        CCN000009600000009600FN00000000020221001000009600NNM   20220729134556    2F0F  00000480000000779200001061032AF    HBYHVTB 005500360039
BI00B32AF    #JTB2104       202209307183-2414                CONNECTOR HOUSING        CCN000009600000009600FN00000000020221001000009600NNM   20220729134556    2F0F  00000480000000779200001061032AF    HBYHVTB 005500360039
BI00B32AF    #JTB2105       202210077183-2414                CONNECTOR HOUSING        CCN000038400000038400FN00000000020221001000038400NNM   20220729134556    2F0F  00000480000000779200001061032AF    HBYHVTB 005500360039
BI00B32AF    #JTB2102       202209167183-2418                CONNECTOR HOUSING        CCN000009600000009600FN00000000020221001000009600NNM   20220729134556    2F0F  00000480000000917000001477032AF    HBYHVTB 005500360039
BI00B32AF    #JTB2103       202209237183-2418                CONNECTOR HOUSING        CCN000009600000009600FN00000000020221001000009600NNM   20220729134556    2F0F  00000480000000917000001477032AF    HBYHVTB 005500360039
BI00B32AF    #JTB2104       202209307183-2418                CONNECTOR HOUSING        CCN000014400000014400FN00000000020221001000014400NNM   20220729134556    2F0F  00000480000000917000001477032AF    HBYHVTB 005500360039
BI00B32AF    #JTB2105       202210077183-2418                CONNECTOR HOUSING        CCN000009600000009600FN00000000020221001000009600NNM   20220729134556    2F0F  00000480000000917000001477032AF    HBYHVTB 005500360039
BI00B32AF    #JTB2103       202209237183-2418-30             CONNECTOR HOUSING        CCN000004800000004800FN00000000020221001000004800NNM   20220729134556    2F0F  00000480000000917000001235332AF    HBYHVTB 005500360039
BI00B32AF    #JTB2103       202209237186-8845-60             HOUSING MALE             CCN000003000000003000FN00000000020221001000003000NNM   20220729134556    2F0F  00000300000000690000000801532AF    HBYHVTB 005400370024
BI00B32AF    #JTB2101       202209097186-8851                HOUSING MALE             CCN000001000000001000FN00000000020221001000001000NNM   20220729134556    2F0F  00000100000000782200000906232AF    HBYHVTB 005400370024
BI00B32AF    #JTB2102       202209167186-8851                HOUSING MALE             CCN000002000000002000FN00000000020221001000002000NNM   20220729134556    2F0F  00000100000000782200000906232AF    HBYHVTB 005400370024
BI00B32AF    #JTB2103       202209237186-8851                HOUSING MALE             CCN000002000000002000FN00000000020221001000002000NNM   20220729134556    2F0F  00000100000000782200000906232AF    HBYHVTB 005400370024
BI00B32AF    #JTB2104       202209307186-8851                HOUSING MALE             CCN000003000000003000FN00000000020221001000003000NNM   20220729134556    2F0F  00000100000000782200000906232AF    HBYHVTB 005400370024
BI00B32AF    #JTB2105       202210077186-8851                HOUSING MALE             CCN000002000000002000FN00000000020221001000002000NNM   20220729134556    2F0F  00000100000000782200000906232AF    HBYHVTB 005400370024
BI00B32AF    #JTB2102       202209167187-8856-60             HLC HOUSING FEMALE       CCN000002000000002000FN00000000020221001000002000NNM   20220729134556    2F0F  00000200000000820000000931532AF    HBYHVTB 005400370024
BI00B32AF    #JTB2103       202209237187-8856-60             HLC HOUSING FEMALE       CCN000002000000002000FN00000000020221001000002000NNM   20220729134556    2F0F  00000200000000820000000931532AF    HBYHVTB 005400370024
BI00B32AF    #JTB2104       202209307187-8856-60             HLC HOUSING FEMALE       CCN000002000000002000FN00000000020221001000002000NNM   20220729134556    2F0F  00000200000000820000000931532AF    HBYHVTB 005400370024
BI00B32AF    #JTB2105       202210077187-8856-60             HLC HOUSING FEMALE       CCN000002000000002000FN00000000020221001000002000NNM   20220729134556    2F0F  00000200000000820000000931532AF    HBYHVTB 005400370024
BI00B32AF    #JTB2102       202209167189-3032                HOUSING FEMALE           CCN000001600000001600FN00000000020221001000001600NNM   20220729134556    2F0F  00000160000000788400001018432AF    HBYHVTB 005500360039
BI00B32AF    #JTB2104       202209307189-3032                HOUSING FEMALE           CCN000001600000001600FN00000000020221001000001600NNM   20220729134556    2F0F  00000160000000788400001018432AF    HBYHVTB 005500360039
BI00B32AF    #JTB2104       202209307189-3038-30             HOUSING                  CCN000001600000001600FN00000000020221001000001600NNM   20220729134556    2F0F  00000160000000921600001141632AF    HBYHVTB 005500360039
BI00B32AF    #JTB2102       202209167189-3297                HOUSING FEMALE           CCN000004000000004000FN00000000020221001000004000NNM   20220729134556    2F0F  00000400000000893200001029032AF    HBYHVTB 005400370024
BI00B32AF    #JTB2103       202209237189-3297                HOUSING FEMALE           CCN000004000000004000FN00000000020221001000004000NNM   20220729134556    2F0F  00000400000000893200001029032AF    HBYHVTB 005400370024
BI00B32AF    #JTB2104       202209307189-3297                HOUSING FEMALE           CCN000004000000004000FN00000000020221001000004000NNM   20220729134556    2F0F  00000400000000893200001029032AF    HBYHVTB 005400370024
BI00B32AF    #JTB2103       202209237282-1030                CONNECTOR MALE ASS'Y     CCN000003000000003000FN00000000020221001000003000NNM   20220729134556    2N0N  00000100000000365000000487532AF    HBYHVTB 005400370024
BI00B32AF    #JTB2104       202209307282-1030                CONNECTOR MALE ASS'Y     CCN000005000000005000FN00000000020221001000005000NNM   20220729134556    2N0N  00000100000000365000000487532AF    HBYHVTB 005400370024
BI00B32AF    #JTB2105       202210077282-1030                CONNECTOR MALE ASS'Y     CCN000005000000005000FN00000000020221001000005000NNM   20220729134556    2N0N  00000100000000365000000487532AF    HBYHVTB 005400370024
BI00B32AF    #JTB2102       202209167282-5528-70             HOUSING MALE ASS'Y       CCN000010000000010000FN00000000020221001000010000NNM   20220729134556    2N0N  00000100000000230000000339032AF    HBYHVTB 005400370024
BI00B32AF    #JTB2103       202209237282-5528-70             HOUSING MALE ASS'Y       CCN000012000000012000FN00000000020221001000012000NNM   20220729134556    2N0N  00000100000000230000000339032AF    HBYHVTB 005400370024
BI00B32AF    #JTB2104       202209307282-5528-70             HOUSING MALE ASS'Y       CCN000012000000012000FN00000000020221001000012000NNM   20220729134556    2N0N  00000100000000230000000339032AF    HBYHVTB 005400370024
BI00B32AF    #JTB2105       202210077282-5528-70             HOUSING MALE ASS'Y       CCN000009000000009000FN00000000020221001000009000NNM   20220729134556    2N0N  00000100000000230000000339032AF    HBYHVTB 005400370024
BI00B32AF    #JTB2102       202209167283-1150                HOUSING FEMALE ASS'Y     CCN000002000000002000FN00000000020221001000002000NNM   20220729134556    2N0N  00000100000000607000000719532AF    HBYHVTB 005400370024
BI00B32AF    #JTB2103       202209237283-1150                HOUSING FEMALE ASS'Y     CCN000003000000003000FN00000000020221001000003000NNM   20220729134556    2N0N  00000100000000607000000719532AF    HBYHVTB 005400370024
BI00B32AF    #JTB2104       202209307283-1150                HOUSING FEMALE ASS'Y     CCN000004000000004000FN00000000020221001000004000NNM   20220729134556    2N0N  00000100000000607000000719532AF    HBYHVTB 005400370024
BI00B32AF    #JTB2105       202210077283-1150                HOUSING FEMALE ASS'Y     CCN000001000000001000FN00000000020221001000001000NNM   20220729134556    2N0N  00000100000000607000000719532AF    HBYHVTB 005400370024
BI00B32AF    #JTB2102       202209167287-1669                HOUSING FEMALE ASS'Y     CCN000010000000010000FN00000000020221001000010000NNM   20220729134556    2N0N  00000200000000788800000980832AF    HBYHVTB 005400370024
BI00B32AF    #JTB2103       202209237287-1669                HOUSING FEMALE ASS'Y     CCN000010000000010000FN00000000020221001000010000NNM   20220729134556    2N0N  00000200000000788800000980832AF    HBYHVTB 005400370024
BI00B32AF    #JTB2104       202209307287-1669                HOUSING FEMALE ASS'Y     CCN000008000000008000FN00000000020221001000008000NNM   20220729134556    2N0N  00000200000000788800000980832AF    HBYHVTB 005400370024
BI00B32AF    #JTB2105       202210077287-1669                HOUSING FEMALE ASS'Y     CCN000010000000010000FN00000000020221001000010000NNM   20220729134556    2N0N  00000200000000788800000980832AF    HBYHVTB 005400370024
BI00B32AF    #JTB2101       202209097287-1670                HOUSING FEMALE ASS'Y     CCN000002800000002800FN00000000020221001000002800NNM   20220729134556    2N0N  00000280000000953100001145132AF    HBYHVTB 005400370024
BI00B32AF    #JTB2102       202209167287-1670                HOUSING FEMALE ASS'Y     CCN000008400000008400FN00000000020221001000008400NNM   20220729134556    2N0N  00000280000000953100001145132AF    HBYHVTB 005400370024
BI00B32AF    #JTB2103       202209237287-1670                HOUSING FEMALE ASS'Y     CCN000011200000011200FN00000000020221001000011200NNM   20220729134556    2N0N  00000280000000953100001145132AF    HBYHVTB 005400370024
BI00B32AF    #JTB2104       202209307287-1670                HOUSING FEMALE ASS'Y     CCN000008400000008400FN00000000020221001000008400NNM   20220729134556    2N0N  00000280000000953100001145132AF    HBYHVTB 005400370024
BI00B32AF    #JTB2105       202210077287-1670                HOUSING FEMALE ASS'Y     CCN000008400000008400FN00000000020221001000008400NNM   20220729134556    2N0N  00000280000000953100001145132AF    HBYHVTB 005400370024
BI00B32AF    #JTB2102       202209167287-1671                HOUSING FEMALE ASS'Y     CCN000008000000008000FN00000000020221001000008000NNM   20220729134556    2N0N  00000200000000782600000974632AF    HBYHVTB 005400370024
BI00B32AF    #JTB2103       202209237287-1671                HOUSING FEMALE ASS'Y     CCN000010000000010000FN00000000020221001000010000NNM   20220729134556    2N0N  00000200000000782600000974632AF    HBYHVTB 005400370024
BI00B32AF    #JTB2104       202209307287-1671                HOUSING FEMALE ASS'Y     CCN000010000000010000FN00000000020221001000010000NNM   20220729134556    2N0N  00000200000000782600000974632AF    HBYHVTB 005400370024
BI00B32AF    #JTB2105       202210077287-1671                HOUSING FEMALE ASS'Y     CCN000008000000008000FN00000000020221001000008000NNM   20220729134556    2N0N  00000200000000782600000974632AF    HBYHVTB 005400370024
BI00B32AF    #JTB2101       202209097287-1674                HYBRID FEMALE ASS'Y      CCN000002000000002000FN00000000020221001000002000NNM   20220729134556    2N0N  00000200000000810800001002832AF    HBYHVTB 005400370024
BI00B32AF    #JTB2102       202209167287-1674                HYBRID FEMALE ASS'Y      CCN000008000000008000FN00000000020221001000008000NNM   20220729134556    2N0N  00000200000000810800001002832AF    HBYHVTB 005400370024
BI00B32AF    #JTB2103       202209237287-1674                HYBRID FEMALE ASS'Y      CCN000010000000010000FN00000000020221001000010000NNM   20220729134556    2N0N  00000200000000810800001002832AF    HBYHVTB 005400370024
BI00B32AF    #JTB2104       202209307287-1674                HYBRID FEMALE ASS'Y      CCN000012000000012000FN00000000020221001000012000NNM   20220729134556    2N0N  00000200000000810800001002832AF    HBYHVTB 005400370024
BI00B32AF    #JTB2105       202210077287-1674                HYBRID FEMALE ASS'Y      CCN000008000000008000FN00000000020221001000008000NNM   20220729134556    2N0N  00000200000000810800001002832AF    HBYHVTB 005400370024
BI00B32AF    #JTB2101       202209097287-1915                CONNECTOR ASS'Y          CCN000004800000004800FN00000000020221001000004800NNM   20220729134556    2N0N  00000240000000666500000923132AF    HBYHVTB 005500360039
BI00B32AF    #JTB2103       202209237287-1915                CONNECTOR ASS'Y          CCN000002400000002400FN00000000020221001000002400NNM   20220729134556    2N0N  00000240000000666500000923132AF    HBYHVTB 005500360039
BI00B32AF    #JTB2104       202209307287-1915                CONNECTOR ASS'Y          CCN000002400000002400FN00000000020221001000002400NNM   20220729134556    2N0N  00000240000000666500000923132AF    HBYHVTB 005500360039
BI00B32AF    #JTB2102       202209167287-7022                CONNECTOR FEMALE         CCN000002400000002400FN00000000020221001000002400NNM   20220729134556    2NON  00000120000000742800000853032AF    HBYHVTB 005400370024
BI00B32AF    #JTB2103       202209237287-7022                CONNECTOR FEMALE         CCN000001200000001200FN00000000020221001000001200NNM   20220729134556    2NON  00000120000000742800000853032AF    HBYHVTB 005400370024
BI00B32AF    #JTB2104       202209307287-7022                CONNECTOR FEMALE         CCN000002400000002400FN00000000020221001000002400NNM   20220729134556    2NON  00000120000000742800000853032AF    HBYHVTB 005400370024
BI00B32AF    #JTB2105       202210077287-7022                CONNECTOR FEMALE         CCN000002400000002400FN00000000020221001000002400NNM   20220729134556    2NON  00000120000000742800000853032AF    HBYHVTB 005400370024
BI00B32AF    #JTB2102       202209167297-1907-30             HOUSING MALE ASS'Y       CCN000001500000001500FN00000000020221001000001500NNM   20220729134556    2N0N  00000150000000451800000568032AF    HBYHVTB 005400370024
BI00B32AF    #JTB2103       202209237297-1907-30             HOUSING MALE ASS'Y       CCN000003000000003000FN00000000020221001000003000NNM   20220729134556    2N0N  00000150000000451800000568032AF    HBYHVTB 005400370024
BI00B32AF    #JTB2104       202209307297-1907-30             HOUSING MALE ASS'Y       CCN000003000000003000FN00000000020221001000003000NNM   20220729134556    2N0N  00000150000000451800000568032AF    HBYHVTB 005400370024
BI00B32AF    #JTB2105       202210077297-1907-30             HOUSING MALE ASS'Y       CCN000004500000004500FN00000000020221001000004500NNM   20220729134556    2N0N  00000150000000451800000568032AF    HBYHVTB 005400370024
BI00B32AF    #JTB2102       202209167297-1911-30             HOUSING MALE ASS'Y       CCN000001000000001000FN00000000020221001000001000NNM   20220729134556    2N0N  00000100000000486900000600132AF    HBYHVTB 005400370024
BI00B32AF    #JTB2103       202209237297-1911-30             HOUSING MALE ASS'Y       CCN000001000000001000FN00000000020221001000001000NNM   20220729134556    2N0N  00000100000000486900000600132AF    HBYHVTB 005400370024
BI00B32AF    #JTB2104       202209307297-1911-30             HOUSING MALE ASS'Y       CCN000002000000002000FN00000000020221001000002000NNM   20220729134556    2N0N  00000100000000486900000600132AF    HBYHVTB 005400370024
BI00B32AF    #JTB2105       202210077297-1911-30             HOUSING MALE ASS'Y       CCN000001000000001000FN00000000020221001000001000NNM   20220729134556    2N0N  00000100000000486900000600132AF    HBYHVTB 005400370024
BI00T32AF    @JTB2101-I     202210067123-2825                HOUSING                  CCN000006000000006000FN00000000020221001000006000NNM   20220729134841    3F0F  00000600000000958800001136432AF    HBYHVTB 005500360039
BI00T32AF    @JTB2101-I     202210067183-2510                HOUSING                  CCN000027000000027000FN00000000020221001000027000NNM   20220729134841    3F0F  00000300000001063500001159032AF    HBYHVTB 005400370024
BI00T32AF    @JTB2101-I     202210067183-3190                JOINT CONNECTOR          CCN000284400000284400FN00000000020221001000284400NNM   20220729134841    3F0F  00000360000000457600000667832AF    HBYHVTB 005500360039
BI00T32AF    @JTB2101-I     202210067183-7770-40             HOUSING                  CCN000072000000072000FN00000000020221001000072000NNM   20220729134841    3F0F  00000600000001011000001161032AF    HBYHVTB 005400370024
BI00T32AF    @JTB2101-I     202210067282-1060                HOUSING SUB ASSEMBLY     CCN000008000000008000FN00000000020221001000008000NNM   20220729134841    3N0N  00000160000000955500001169032AF    HBYHVTB 005500360039
BI00T32AF    @JTB2101-I     202210067283-5972                CONNECTOR FEMALE         CCN000038400000038400FN00000000020221001000038400NNM   20220729134841    3N0N  00000480000000550100000763032AF    HBYHVTB 005500360039
BI00T32AF    @JTB2101-I     202210067283-5976                CONNECTOR ASS'Y          CCN000028800000028800FN00000000020221001000028800NNM   20220729134841    3N0N  00000480000000840000001083632AF    HBYHVTB 005500360039
BI00T32AF    @JTB2101-I     202210067283-8179                CONNECTOR HOUSING        CCN000019200000019200FN00000000020221001000019200NNM   20220729134841    3N0N  00000240000000549600000804032AF    HBYHVTB 005500360039
BI00B32A7    ZZ22101LMW     202208317017-1180-02             TERMINAL                 CCN000216000000216000FN00000000020221001000216000NNM   20220729161008    4P0P  00007200000001065600001229032A7    ZZZZY   005100280028
BI00B32A7    ZZ22102LMW     202209077017-1180-02             TERMINAL                 CCN000144000000144000FN00000000020221001000144000NNM   20220729161008    4P0P  00007200000001065600001229032A7    ZZZZY   005100280028
BI00B32A7    ZZ22103LMW     202209147017-1180-02             TERMINAL                 CCN000072000000072000FN00000000020221001000072000NNM   20220729161008    4P0P  00007200000001065600001229032A7    ZZZZY   005100280028
BI00B32A7    ZZ22104LMW     202209217017-1180-02             TERMINAL                 CCN000144000000144000FN00000000020221001000144000NNM   20220729161008    4P0P  00007200000001065600001229032A7    ZZZZY   005100280028
BI00B32A7    ZZ22101LMW     202208317017-1182-02             TERMINAL                 CCN000225000000225000FN00000000020221001000225000NNM   20220729161008    4P0P  00004500000001165500001318632A7    ZZZZY   005100280028
BI00B32A7    ZZ22102LMW     202209077017-1182-02             TERMINAL                 CCN000090000000090000FN00000000020221001000090000NNM   20220729161008    4P0P  00004500000001165500001318632A7    ZZZZY   005100280028
BI00B32A7    ZZ22103LMW     202209147017-1182-02             TERMINAL                 CCN000090000000090000FN00000000020221001000090000NNM   20220729161008    4P0P  00004500000001165500001318632A7    ZZZZY   005100280028
BI00B32A7    ZZ22104LMW     202209217017-1182-02             TERMINAL                 CCN000090000000090000FN00000000020221001000090000NNM   20220729161008    4P0P  00004500000001165500001318632A7    ZZZZY   005100280028
BI00B32A7    ZZ22101LMW     202208317017-1183-02             TERMINAL                 CCN000081000000081000FN00000000020221001000081000NNM   20220729161008    4P0P  00002700000001139400001307432A7    ZZZZY   005100280028
BI00B32A7    ZZ22102LMW     202209077017-1183-02             TERMINAL                 CCN000027000000027000FN00000000020221001000027000NNM   20220729161008    4P0P  00002700000001139400001307432A7    ZZZZY   005100280028
BI00B32A7    ZZ22103LMW     202209147017-1183-02             TERMINAL                 CCN000054000000054000FN00000000020221001000054000NNM   20220729161008    4P0P  00002700000001139400001307432A7    ZZZZY   005100280028
BI00B32A7    ZZ22104LMW     202209217017-1183-02             TERMINAL                 CCN000054000000054000FN00000000020221001000054000NNM   20220729161008    4P0P  00002700000001139400001307432A7    ZZZZY   005100280028
BI00B32A7    ZZ22104LMW     202209217114-1670-02             TERMINAL                 CCN000024000000024000FN00000000020221001000024000NNM   20220729161008    1P0P  00002400000000357600000645832A7    ZZZZY   006400630015
BI00B32A7    ZZ22103LMW     202209147114-4729-08             TERMINAL                 CCN000060000000060000FN00000000020221001000060000NNM   20220729161008    4P0P  00003000000000522000000816232A7    ZZZZY   006400630015
BI00B32A7    ZZ22104LMW     202209217116-1685-02             TERMINAL                 CCN000096000000096000FN00000000020221001000096000NNM   20220729161008    4P0P  00002400000000897600001065232A7    ZZZZY   005100280028
BI00B32A7    ZZ22101LMW     202208317116-3154-08             TERMINAL                 CCN000054000000054000FN00000000020221001000054000NNM   20220729161008    4P0P  00002700000000475200000760432A7    ZZZZY   006400630015
BI00B32A7    ZZ22102LMW     202209077116-3154-08             TERMINAL                 CCN000054000000054000FN00000000020221001000054000NNM   20220729161008    4P0P  00002700000000475200000760432A7    ZZZZY   006400630015
BI00B32A7    ZZ22103LMW     202209147116-3154-08             TERMINAL                 CCN000054000000054000FN00000000020221001000054000NNM   20220729161008    4P0P  00002700000000475200000760432A7    ZZZZY   006400630015
BI00B32A7    ZZ22103LMW     202209147116-4020                TERMINAL                 CCN000013500000013500FN00000000020221001000013500NNM   20220729161008    4P0P  00001350000000513000000798232A7    ZZZZY   006400630015
BI00B32A7    ZZ22101LMW     202208317116-4025                TERMINAL                 CCN000080000000080000FN00000000020221001000080000NNM   20220729161008    4P0P  00001600000000644800000975132A7    ZZZZY   006400630017
BI00B32A7    ZZ22102LMW     202209077116-4025                TERMINAL                 CCN000032000000032000FN00000000020221001000032000NNM   20220729161008    4P0P  00001600000000644800000975132A7    ZZZZY   006400630017
BI00B32A7    ZZ22103LMW     202209147116-4025                TERMINAL                 CCN000032000000032000FN00000000020221001000032000NNM   20220729161008    4P0P  00001600000000644800000975132A7    ZZZZY   006400630017
BI00B32A7    ZZ22104LMW     202209217116-4025                TERMINAL                 CCN000032000000032000FN00000000020221001000032000NNM   20220729161008    4P0P  00001600000000644800000975132A7    ZZZZY   006400630017
BI00B32A7    ZZ22101LMW     202208317116-4026                TERMINAL                 CCN000064000000064000FN00000000020221001000064000NNM   20220729161008    4P0P  00001600000000664000000994332A7    ZZZZY   006400630017
BI00B32A7    ZZ22102LMW     202209077116-4026                TERMINAL                 CCN000016000000016000FN00000000020221001000016000NNM   20220729161008    4P0P  00001600000000664000000994332A7    ZZZZY   006400630017
BI00B32A7    ZZ22103LMW     202209147116-4026                TERMINAL                 CCN000032000000032000FN00000000020221001000032000NNM   20220729161008    4P0P  00001600000000664000000994332A7    ZZZZY   006400630017
BI00B32A7    ZZ22104LMW     202209217116-4026                TERMINAL                 CCN000048000000048000FN00000000020221001000048000NNM   20220729161008    4P0P  00001600000000664000000994332A7    ZZZZY   006400630017
BI00B32A7    ZZ22101LMW     202208317116-4121-02             TERMINAL                 CCN000013500000013500FN00000000020221001000013500NNM   20220729161008    4P0P  00000450000000618800000912432A7    ZZZZY   006400630015
BI00B32A7    ZZ22102LMW     202209077116-4121-02             TERMINAL                 CCN000009000000009000FN00000000020221001000009000NNM   20220729161008    4P0P  00000450000000618800000912432A7    ZZZZY   006400630015
BI00B32A7    ZZ22103LMW     202209147116-4121-02             TERMINAL                 CCN000004500000004500FN00000000020221001000004500NNM   20220729161008    4P0P  00000450000000618800000912432A7    ZZZZY   006400630015
