AE00TI102209030203/09/202200000001600000000000000011981KGM  00000017238KGM  7114-4100-02             TERMINAL                 7114410002               0         0         0         0    0    0    00028800000001800000000034000097920000
AE00TI102209030203/09/202200000002800000000000000018054KGM  00000027303KGM  7116-4025                TERMINAL                 71164025                 0         0         0         0    0    0    00044800000001600000000034000152320000
AE00TI102209030203/09/202200000001600000000000000008472KGM  00000013083KGM  7116-4111-02             TERMINAL                 7116411102               0         0         0         0    0    0    00012000000000750000000061000073200000
AE00TI102209030203/09/202200000001400000000000000009573KGM  00000014175KGM  7116-4231-02             TERMINAL                 7116423102               0         0         0         0    0    0    00036400000002600000000022000080080000
AE00TI102209030203/09/202200000000700000000000000003629KGM  00000005930KGM  7116-4416-02             TERMINAL                 7116441602               0         0         0         0    0    0    00022400000003200000000016000035840000
AE00TI102209030203/09/202200000001600000000000000009000KGM  00000013563KGM  7126-8853-02             TERMINAL                 7126885302               0         0         0         0    0    0    00012000000000750000000057000068400000
AE00TI102209030203/09/202200000002700000000000000008926KGM  00000010422KGM  7158-3006-90             RUBBER STOPPER           7158300690               0         0         0         0    0    0    00054000000002000000000016000086400000
AE00TI102209030203/09/202200000002100000000000000007098KGM  00000008110KGM  7158-3009-60             RUBBER STOPPER           7158300960               0         0         0         0    0    0    00042000000002000000000012000050400000
AE00TI102209030203/09/202200000000600000000000000002805KGM  00000003144KGM  7158-3022-80             RUBBER STOPPER           7158302280               0         0         0         0    0    0    00003000000000500000000070000021000000
AE00TI102209030203/09/202200000001200000000000000001488KGM  00000002069KGM  7158-3165-90             WIRE SEAL                7158316590               0         0         0         0    0    0    00048000000004000000000006000028800000
AE00TI102209030203/09/202200000001800000000000000001872KGM  00000002743KGM  7158-3166-60             WIRE SEAL                7158316660               0         0         0         0    0    0    00072000000004000000000004000028800000
AE00TI102209030203/09/202200000006100000000000000002928KGM  00000006649KGM  7158-3167-80             WIRE SEAL                7158316780               0         0         0         0    0    0    00122000000002000000000005000061000000
AE00TI102209030203/09/202200000002300000000000000001012KGM  00000002118KGM  7158-3168-80             SEALED                   7158316880               0         0         0         0    0    0    00046000000002000000000004000018400000
AE00TI102209030203/09/202200000001000000000000000001560KGM  00000002041KGM  7158-3169-40             SEALING PLUG             7158316940               0         0         0         0    0    0    00040000000004000000000006000024000000
AE00TI102209030203/09/202200000000600000000000000003420KGM  00000005738KGM  7196-0104-02             TERMINAL                 7196010402               0         0         0         0    0    0    00022800000003800000000026000059280000
AE00TI102209030203/09/202200000000700000000000000006025KGM  00000007040KGM  7288-3332-30             HOUSING MALE             7288333230               0         0         0         0    0    0    00001050000000150000000354000037170000
AE00TI102209030203/09/202200000001200000000000000010393KGM  00000012144KGM  7288-3338-30             HOUSING MALE             7288333830               0         0         0         0    0    0    00001800000000150000000354000063720000
AE00TI102209030203/09/202200000000400000000000000003468KGM  00000004048KGM  7288-3339-30             HOUSING MALE             7288333930               0         0         0         0    0    0    00000600000000150000000354000021240000
AE00TI102209030203/09/202200000000300000000000000002585KGM  00000003019KGM  7288-3340-30             HOUSING MALE             7288334030               0         0         0         0    0    0    00000450000000150000000354000015930000
AE00TI102209030203/09/202200000000200000000000000001658KGM  00000002098KGM  7289-6518-30             HOUSING FEMALE ASS'Y     7289651830               0         0         0         0    0    0    00000240000000120000000598000014352000
AE00TI102209030203/09/202200000000500000000000000004196KGM  00000005596KGM  7289-6868-30             SEALED ASSY FEMALE       7289686830               0         0         0         0    0    0    00001260000000252000000332000041832000
AE00TI102209030203/09/202200000001000000000000000010032KGM  00000012045KGM  7298-1865-30             HOUSING FEMALE ASS'Y     7298186530               0         0         0         0    0    0    00002400000000240000000196000047040000
AE00TI102209030203/09/202200000000200000000000000002219KGM  00000002519KGM  7327-6572-3W             BATTERY FUSE             732765723W               0         0         0         0    0    0    00000019200000009600008162000015671040
AE00TI102209030203/09/202200000003700000000000000027454KGM  00000041514KGM  7388-2978-30             HOUSING MALE ASS'Y       7388297830               0         0         0         0    0    0    00001776000000048000001790000317904000
