AE00TI102209030103/09/202200000000100000000000000000894KGM  00000001185KGM  7287-9234                JOINT CONNECTOR          72879234                 0         0         0         0    0    0    00000960000000960000000137000013152000
AE00TI102209030103/09/202200000000300000000000000002598KGM  00000003033KGM  7288-3329-30             HOUSING MALE             7288332930               0         0         0         0    0    0    00000450000000150000000354000015930000
AE00TI102209030103/09/202200000001100000000000000009526KGM  00000011120KGM  7288-3331-30             HOUSING MALE             7288333130               0         0         0         0    0    0    00001650000000150000000354000058410000
AE00TI102209030103/09/202200000000400000000000000003443KGM  00000004023KGM  7288-3332-30             HOUSING MALE             7288333230               0         0         0         0    0    0    00000600000000150000000354000021240000
AE00TI102209030103/09/202200000000400000000000000003468KGM  00000004048KGM  7288-3334-30             HOUSING MALE             7288333430               0         0         0         0    0    0    00000600000000150000000354000021240000
AE00TI102209030103/09/202200000000200000000000000001734KGM  00000002024KGM  7288-3337-30             HOUSING MALE             7288333730               0         0         0         0    0    0    00000300000000150000000354000010620000
AE00TI102209030103/09/202200000000600000000000000005197KGM  00000006072KGM  7288-3338-30             HOUSING MALE             7288333830               0         0         0         0    0    0    00000900000000150000000354000031860000
AE00TI102209030103/09/202200000000100000000000000000867KGM  00000001012KGM  7288-3339-30             HOUSING MALE             7288333930               0         0         0         0    0    0    00000150000000150000000354000005310000
AE00TI102209030103/09/202200000000100000000000000000862KGM  00000001006KGM  7288-3340-30             HOUSING MALE             7288334030               0         0         0         0    0    0    00000150000000150000000354000005310000
AE00TI102209030103/09/202200000001300000000000000015669KGM  00000017424KGM  7288-6547                CONNECTOR MALE ASS'Y     72886547                 0         0         0         0    0    0    00000975000000075000001125000109687500
AE00TI102209030103/09/202200000000100000000000000001074KGM  00000001429KGM  7288-6598-70             HOUSING MALE ASS'Y       7288659870               0         0         0         0    0    0    00000144000000144000000911000013118400
AE00TI102209030103/09/202200000001100000000000000007550KGM  00000009915KGM  7289-3342                HOUSING FEMALE ASS'Y     72893342                 0         0         0         0    0    0    00002640000000240000000186000049104000
AE00TI102209030103/09/202200000002100000000000000014414KGM  00000018929KGM  7289-3342-30             HOUSING FEMALE ASS'Y     7289334230               0         0         0         0    0    0    00005040000000240000000191000096264000
AE00TI102209030103/09/202200000000600000000000000005035KGM  00000006715KGM  7289-6868-30             SEALED ASSY FEMALE       7289686830               0         0         0         0    0    0    00001512000000252000000332000050198400
AE00TI102209030103/09/202200000000300000000000000003324KGM  00000004562KGM  7289-9553-50             SEALED ASSY FEMALE       7289955350               0         0         0         0    0    0    00000882000000294000000252000022226400
AE00TI102209030103/09/202200000000300000000000000003010KGM  00000003614KGM  7298-1865-30             HOUSING FEMALE ASS'Y     7298186530               0         0         0         0    0    0    00000720000000240000000196000014112000
AE00TI102209030103/09/202200000002000000000000000014840KGM  00000022440KGM  7388-2978-30             HOUSING MALE ASS'Y       7388297830               0         0         0         0    0    0    00000960000000048000001790000171840000
