BI00B32DE    TCT2112        202210067017-1180-02             TERMINAL                 CCN000072000000072000FN00000000020221101000072000NNMD0020220903184308    4P0P  00007200000001065600001229032DE    TVYEV-TV005100280028
BI00B32DE    TCT2112        202210067017-1181-02             TERMINAL                 CCN000063000000063000FN00000000020221101000063000NNMD0020220903184308    4P0P  00006300000001089900001266832DE    TVYEV-TV005100280028
BI00B32DE    TCT2112        202210067114-4020                TERMINAL                 CCN000042000000042000FN00000000020221101000042000NNMD0020220903184308    4P0P  00002100000000875700001169332DE    TVYEV-TV006400630015
BI00B32DE    TCT2112        202210067114-4021                TERMINAL                 CCN000060000000060000FN00000000020221101000060000NNMD0020220903184308    4P0P  00001500000000670500000964132DE    TVYEV-TV006400630015
BI00B32DE    TCT2112        202210067114-4032                TERMINAL                 CCN000007500000007500FN00000000020221101000007500NNMD0020220903184308    4P0P  00000750000000735000001063632DE    TVYEV-TV006400630017
BI00B32DE    TCT2112        202210067114-4110-02             TERMINAL                 CCN000015000000015000FN00000000020221101000015000NNMD0020220903184308    4P0P  00001500000000901500001230132DE    TVYEV-TV006400630017
BI00B32DE    TCT2112        202210067114-4112-02             TERMINAL                 CCN000009000000009000FN00000000020221101000009000NNMD0020220903184308    4P0P  00000900000000598500000927132DE    TVYEV-TV006400630017
BI00B32DE    TCT2112        202210067114-4231-02             TERMINAL                 CCN000054000000054000FN00000000020221101000054000NNMD0020220903184308    4P0P  00001800000000554400000848032DE    TVYEV-TV006400630015
BI00B32DE    TCT2112        202210067114-4486-02             TERMINAL                 CCN000024000000024000FN00000000020221101000024000NNMD0020220903184308    4P0P  00002400000000662400000956032DE    TVYEV-TV006400630015
BI00B32DE    TCT2112        202210067114-4729-02             TERMINAL                 CCN000210000000210000FN00000000020221101000210000NNMD0020220903184308    4P0P  00003000000000516000000810232DE    TVYEV-TV006400630015
BI00B32DE    TCT2112        202210067114-5746-02             TERMINAL                 CCN000105000000105000FN00000000020221101000105000NNMD0020220903184308    4P0P  00002100000000695100000988732DE    TVYEV-TV006400630015
BI00B32DE    TCT2112        202210067116-1685-02             TERMINAL                 CCN000288000000288000FN00000000020221101000288000NNMD0020220903184308    4P0P  00002400000000897600001065232DE    TVYEV-TV005100280028
BI00B32DE    TCT2112        202210067116-1686-02             TERMINAL                 CCN000084000000084000FN00000000020221101000084000NNMD0020220903184308    4P0P  00002100000000869400001021632DE    TVYEV-TV005100280028
BI00B32DE    TCT2112        202210067116-1688-02             TERMINAL FEMALE          CCN000021000000021000FN00000000020221101000021000NNMD0020220903184308    4P0P  00002100000000299600000898832DE    TVYEV-TV005100280028
BI00B32DE    TCT2112        202210067116-2640                TERMINAL                 CCN000036000000036000FN00000000020221101000036000NNMD0020220903184308    4P0P  00001800000001018800001196632DE    TVYEV-TV005100280028
BI00B32DE    TCT2112        202210067116-2641                TERMINAL                 CCN000072000000072000FN00000000020221101000072000NNMD0020220903184308    4P0P  00001800000001161000001344632DE    TVYEV-TV005100280028
BI00B32DE    TCT2112        202210067116-2891-02             TERMINAL                 CCN000150000000150000FN00000000020221101000150000NNMD0020220903184308    4P0P  00001500000000982500001145932DE    TVYEV-TV005100280028
BI00B32DE    TCT2112        202210067116-2892-02             TERMINAL                 CCN000168000000168000FN00000000020221101000168000NNMD0020220903184308    4P0P  00001200000000818400000981832DE    TVYEV-TV005100280028
BI00B32DE    TCT2112        202210067116-2893-02             TERMINAL                 CCN000120000000120000FN00000000020221101000120000NNMD0020220903184308    4P0P  00001200000000895200001058632DE    TVYEV-TV005100280028
BI00B32DE    TCT2112        202210067116-4025                TERMINAL                 CCN000192000000192000FN00000000020221101000192000NNMD0020220903184308    4P0P  00001600000000644800000975132DE    TVYEV-TV006400630017
BI00B32DE    TCT2112        202210067116-4026                TERMINAL                 CCN000144000000144000FN00000000020221101000144000NNMD0020220903184308    4P0P  00001600000000664000000994332DE    TVYEV-TV006400630017
BI00B32DE    TCT2112        202210067116-4028-08             TERMINAL FEMALE          CCN000128000000128000FN00000000020221101000128000NNMD0020220903184308    4P0P  00001600000000652800000981532DE    TVYEV-TV006400630017
BI00B32DE    TCT2112        202210067116-4031                TERMINAL                 CCN000007500000007500FN00000000020221101000007500NNMD0020220903184308    4P0P  00000750000000619500000904732DE    TVYEV-TV006400630015
BI00B32DE    TCT2112        202210067116-4032                TERMINAL                 CCN000048000000048000FN00000000020221101000048000NNMD0020220903184308    4P0P  00000600000000532800000818032DE    TVYEV-TV006400630015
BI00B32DE    TCT2112        202210067116-4037                TERMINAL                 CCN000042000000042000FN00000000020221101000042000NNMD0020220903184308    4P0P  00000600000000600000000894232DE    TVYEV-TV006400630015
BI00B32DE    TCT2112        202210067116-4100-02             TERMINAL                 CCN000015000000015000FN00000000020221101000015000NNMD0020220903184308    4P0P  00001500000000696000000990232DE    TVYEV-TV006400630015
BI00B32DE    TCT2112        202210067116-4114-02             TERMINAL                 CCN000031500000031500FN00000000020221101000031500NNMD0020220903184308    4P0P  00001050000000693000000981232DE    TVYEV-TV006400630015
BI00B32DE    TCT2112        202210067116-4116-02             TERMINAL                 CCN000020700000020700FN00000000020221101000020700NNMD0020220903184308    4P0P  00000690000000517500000805732DE    TVYEV-TV006400630015
BI00B32DE    TCT2112        202210067116-4231-02             TERMINAL                 CCN000234000000234000FN00000000020221101000234000NNMD0020220903184308    4P0P  00002600000000683800001012532DE    TVYEV-TV006400630017
BI00B32DE    TCT2112        202210067116-4486-02             TERMINAL                 CCN000084000000084000FN00000000020221101000084000NNMD0020220903184308    4P0P  00002800000000666400000995132DE    TVYEV-TV006400630017
BI00B32DE    TCT2112        202210067116-5035-02             TERMINAL                 CCN000090000000090000FN00000000020221101000090000NNMD0020220903184308    4P0P  00001500000000543000000828232DE    TVYEV-TV006400630015
BI00B32DE    TCT2112        202210067116-5041-02             TERMINAL                 CCN000285000000285000FN00000000020221101000285000NNMD0020220903184308    4P0P  00001500000000583500000868732DE    TVYEV-TV006400630015
BI00B32DE    TCT2112        202210067116-5042-02             TERMINAL                 CCN000121500000121500FN00000000020221101000121500NNMD0020220903184308    4P0P  00001350000000560300000845532DE    TVYEV-TV006400630015
BI00B32DE    TCT2112        202210067116-5043-02             TERMINAL FEMALE          CCN000120000000120000FN00000000020221101000120000NNMD0020220903184308    4P0P  00001200000000559200000844432DE    TVYEV-TV006400630015
BI00B32DE    TCT2112        202210067116-5044-02             TERMINAL                 CCN000288000000288000FN00000000020221101000288000NNMD0020220903184308    4P0P  00001600000000641600000986332DE    TVYEV-TV006400630017
BI00B32DE    TCT2112        202210067116-5045-02             TERMINAL                 CCN000160000000160000FN00000000020221101000160000NNMD0020220903184308    4P0P  00001600000000678400001007132DE    TVYEV-TV006400630017
BI00B32DE    TCT2112        202210067116-5046-02             TERMINAL                 CCN000024000000024000FN00000000020221101000024000NNMD0020220903184308    4P0P  00001200000000544800000873532DE    TVYEV-TV006400630017
BI00B32DE    TCT2112        202210067116-5751-02             TERMINAL                 CCN000012000000012000FN00000000020221101000012000NNMD0020220903184308    4P0P  00001200000000379200000664432DE    TVYEV-TV006400630015
BI00B32DE    TCT2112        202210067116-6041                TERMINAL                 CCN000004500000004500FN00000000020221101000004500NNMD0020220903184308    4P0P  00000450000000716000001009632DE    TVYEV-TV006400630015
BI00B32DE    TCT2112        202210067116-6042                TERMINAL                 CCN000006000000006000FN00000000020221101000006000NNMD0020220903184308    4P0P  00000300000000523800000856132DE    TVYEV-TV006400630015
BI00B32DE    TCT2112        202210067126-8854-02             TERMINAL                 CCN000060000000060000FN00000000020221101000060000NNMD0020220903184308    4P0P  00000750000000604500000889732DE    TVYEV-TV006400630015
BI00B32DE    TCT2112        202210067158-3006-90             RUBBER STOPPER           CCN000700000000700000FN00000000020221101000700000NNMD0020220903184308    1C0C  00002000000000330600000386032DE    TVYEV-TV002700430014
BI00B32DE    TCT2112        202210067158-3167-80             WIRE SEAL                CCN000040000000040000FN00000000020221101000040000NNMD0020220903184308    1C0C  00002000000000048000000109032DE    TVYEV-TV002700430014
BI00B32DE    TCT2112        202210067196-0510-02             TERMINAL                 CCN000072000000072000FN00000000020221101000072000NNMD0020220903184308    4P0P  00002400000000871200001034632DE    TVYEV-TV002800510028
BI00B32DE    TCT2112        202210067283-1057-30             CONNECTOR HOUSING        CCN000000960000000960FN00000000020221101000000960NNMD0020220903184308    4N0N  00000096000000925400001075432DE    TVYEV-TV005500360039
BI00B32DE    TCT2112        202210067283-1222-40             CONNECTOR HOUSING        CCN000002400000002400FN00000000020221101000002400NNMD0020220903184308    4N0N  00000120000000858000001032732DE    TVYEV-TV005500360039
BI00B32DE    TCT2112        202210067283-1288-10             CONNECTOR HOUSING        CCN000014400000014400FN00000000020221101000014400NNMD0020220903184308    1N0N  00000120000001381000001637032DE    TVYEV-TV005600390040
BI00B32DE    TCT2112        202210067283-1288-40             CONNECTOR HOUSING        CCN000002400000002400FN00000000020221101000002400NNMD0020220903184308    1N0N  00000120000001382000001640732DE    TVYEV-TV005600390040
BI00B32DE    TCT2112        202210067283-1289-30             CONNECTOR HOUSING        CCN000000600000000600FN00000000020221101000000600NNMD0020220903184308    1N0N  00000060000000675600000820632DE    TVYEV-TV005400370024
BI00B32DE    TCT2112        202210067283-1289-40             CONNECTOR HOUSING        CCN000004800000004800FN00000000020221101000004800NNMD0020220903184308    1N0N  00000060000000679800000824832DE    TVYEV-TV005400370024
BI00B32DE    TCT2112        202210067283-4576-30             HOUSING FEMALE ASS'Y     CCN000004800000004800FN00000000020221101000004800NNMD0020220903184308    4N0N  00000480000000651300000871332DE    TVYEV-TV005500360039
BI00B32DE    TCT2112        202210067283-4855-40             CONNECTOR HOUSING        CCN000004800000004800FN00000000020221101000004800NNMD0020220903184308    4N0N  00000240000001188400001400032DE    TVYEV-TV005600360039
BI00B32DE    TCT2112        202210067283-5846-40             HOUSING                  CCN000001500000001500FN00000000020221101000001500NNMD0020220903184308    1N0N  00000150000000885000001102032DE    TVYEV-TV005600390040
BI00B32DE    TCT2112        202210067283-6120                CONNECTOR HOUSING        CCN000006000000006000FN00000000020221101000006000NNMD0020220903184308    1N0N  00000150000000914000001143032DE    TVYEV-TV005600390040
BI00B32DE    TCT2112        202210067283-7449-30             HOUSING FEMALE ASS'Y     CCN000009600000009600FN00000000020221101000009600NNMD0020220903184308    4N0N  00000240000001200000001410032DE    TVYEV-TV005500360039
BI00B32DE    TCT2112        202210067283-7449-40             HOUSING FEMALE ASS'Y     CCN000007200000007200FN00000000020221101000007200NNMD0020220903184308    4N0N  00000240000001200000001410032DE    TVYEV-TV005500360039
BI00B32DE    TCT2112        202210067283-7526-30             CONNECTOR HOUSING        CCN000003920000003920FN00000000020221101000003920NNMD0020220903184308    4N0N  00000196000000989800001248632DE    TVYEV-TV005500360039
BI00B32DE    TCT2112        202210067283-7526-40             CONNECTOR HOUSING        CCN000001960000001960FN00000000020221101000001960NNMD0020220903184308    4N0N  00000196000000989800001248632DE    TVYEV-TV005500360039
BI00B32DE    TCT2112        202210067287-7599-10             HOUSING FEMALE ASS'Y     CCN000001600000001600FN00000000020221101000001600NNMD0020220903184308    4N0N  00000160000001233600001445632DE    TVYEV-TV005500360039
BI00B32DE    TCT2112        202210067287-9234                JOINT CONNECTOR          CCN000067200000067200FN00000000020221101000067200NNMD0020220903184308    4N0N  00000960000000893800001184832DE    TVYEV-TV005500360039
BI00B32DE    TCT2112        202210067289-4696-30             HOUSING FEMALE ASS'Y     CCN000006000000006000FN00000000020221101000006000NNMD0020220903184308    4N0N  00000200000000913400001055432DE    TVYEV-TV005400370024
BI00B32DE    TCT2112        202210067382-1481-10             CONNECTOR                CCN000016800000016800FN00000000020221101000016800NNMD0020220903184308    4N0N  00000080000001025000001183032DE    TVYEV-TV005600390040
BI00B32H2    TIJ2094        202209027116-1180                TERMINAL                 CCN000019500000019500FY00001950020220901000000000NNM00020220903185243    1P0P  00001950000000618200000903432H2    HVYHV   006400630015
BI00B32H2    TIJ2094        202209027158-3006-90             RUBBER STOPPER           CCN000080000000080000FY00008000020220901000000000NNM00020220903185243    1C0C  00002000000000330600000386032H2    HVYHV   002700430014
BI00B32H2    TIJ2094        202209027158-3009-60             RUBBER STOPPER           CCN000240000000240000FY00024000020220901000000000NNM00020220903185243    1C0C  00002000000000338000000386232H2    HVYHV   002700430014
BI00B32H2    TIJ2094        202209027158-3070-80             RUBBER STOPPER           CCN000120000000120000FY00012000020220901000000000NNM00020220903185243    1C0C  00004000000000276000000333332H2    HVYHV   002700430014
BI00B32H2    TIJ2094        202209027158-3165-90             WIRE SEAL                CCN000240000000240000FY00024000020220901000000000NNM00020220903185243    1C0C  00004000000000124000000172432H2    HVYHV   004300270014
BI00B32H2    TIJ2094        202209027282-1024                HOUSING MALE             CCN000002000000002000FY00000200020220901000000000NNM00020220903185243    1N0N  00000100000000458000000580532H2    HVYHV   005400370024
BI00B32H2    TIJ2094        202209027283-1289-40             CONNECTOR HOUSING        CCN000003600000003600FY00000360020220901000000000NNM00020220903185243    1N0N  00000060000000679800000824832H2    HVYHV   005400370024
BI00B32H2    TIJ2094        202209027283-5845                CONNECTOR HOUSING        CCN000036000000036000FY00003600020220901000000000NNM00020220903185243    1N0N  00000600000000444000000606332H2    HVYHV   005400370024
BI00B32H2    TIJ2094        202209027283-5845-30             CONNECTOR HOUSING        CCN000012000000012000FY00001200020220901000000000NNM00020220903185243    1N0N  00000600000000444000000606332H2    HVYHV   005400370024
BI00B32H2    TIJ2094        202209027283-7029-40             CONNECTOR                CCN000006000000006000FY00000600020220901000000000NNM00020220903185243    1N0N  00000600000001026000001200032H2    HVYHV   005600390023
BI00B32H2    TIJ2094        202209027283-7062-90             CONNECTOR HOUSING        CCN000004800000004800FY00000480020220901000000000NNM00020220903185243    1N0N  00000060000000500400000645432H2    HVYHV   005400370024
BI00B32H2    TIJ2094        202208197283-7526-30             CONNECTOR HOUSING        CCN000001960000001960FY00000196020220901000000000NNMD0020220903185243    4N0N  00000196000000989800001248632H2    HVYHV   005500360039
BI00B32H2    TIJ2094        202209027287-8073                HOUSING FEMALE ASS'Y     CCN000002400000002400FY00000240020220901000000000NNM00020220903185243    1N0N  00000240000001166400001386432H2    HVYHV   005500360039
BI00B32H2    TIJ2094        202209027287-9323                UNSEALED HOUSING SUB     CCN000002400000002400FY00000240020220901000000000NNM00020220903185243    1N0N  00000240000000537600000690032H2    HVYHV   005600390023
BI00B32H2    TIJ2094        202209027288-3206                HOUSING MALE ASS'Y       CCN000001020000001020FY00000102020220901000000000NNM00020220903185258    1N0N  00000102000000387600000787632H2    HVYHV   005500360039
BI00B32H2    TIJ2094        202209027289-3342                HOUSING FEMALE ASS'Y     CCN000026400000026400FY00002640020220901000000000NNM00020220903185243    1N0N  00000240000000686400000901432H2    HVYHV   005500360039
BI00B32H2    TIJ2094        202209027289-3342-30             HOUSING FEMALE ASS'Y     CCN000148800000148800FY00014880020220901000000000NNM00020220903185243    1N0N  00000240000000686400000901432H2    HVYHV   005500360039
BI00B32H2    TIJ2094        202209027289-3342-40             HOUSING FEMALE ASS'Y     CCN000007200000007200FY00000720020220901000000000NNM00020220903185243    1N0N  00000240000000686400000901432H2    HVYHV   005500360039
BI00B32H2    TIJ2094        202209027289-3342-90             HOUSING FEMALE ASS'Y     CCN000024000000024000FY00002400020220901000000000NNM00020220903185243    1N0N  00000240000000686400000901432H2    HVYHV   005500360039
BI00B32H2    TIJ2094        202209027289-6547                HOUSING FEMALE ASS'Y     CCN000009600000009600FY00000960020220901000000000NNM00020220903185243    1N0N  00000240000001152000001362032H2    HVYHV   005500360039
BI00B32H2    TIJ209Q        202209027286-4097                CONNECTOR MALE ASS'Y     CCN000004800000004800FY00000480020220901000000000NNE00020220903185320    1N0N  00000160000000768000000978032H2    HVYHV   005500360039
BI00B32M3    #SM22103RMW    202209227185-9193                REAR HOLDER              CCN000007260000003960FN00000000020221001000003960NNMD0020220903120839    2F0F  00000066000000500900000855032M3    SASAMI  005400370024
BI00B32M3    #SM22103RMW    202209157185-9193                REAR HOLDER              CCN000003300000003300FN00000000020221001000003300NNMD0020220903120839    2F0F  00000066000000500900000855032M3    SASAMI  005400370024
BI00A32U5    #DI2039        202209027198-4979-30             HOUSING FEMALE           CCN000004000000004000FY00000400020221101000000000NNM00020220903185433U5  2F0F  00000400000000707200000876032U5    AMAMSD  005400370024
BI00A32W4    4500195605     202212087283-5574-10             CONNECTOR                CCN000001600000001600FN00000000020221201000001600NNED0020220903184656W4464N0N  00000080000001235000001435232W446  HJYHK   005500360039
BI00A32W4    4500199526     202209027282-8120                CONNECTOR HOUSING        CCN000006000000006000FY00000600020220801000000000NNE00020220903185347W4511N0N  00000300000001356000001520032W451  HJ32W9  005500360039
