AE00TI102209260226/09/202200000000500000000000000002710KGM  00000003607KGM  7147-3642-30             CLIP                     7147364230               0         0         0         0    0    0    00001500000000300000000074000011100000
AE00TI102209260226/09/202200000000300000000000000002481KGM  00000003306KGM  7154-5712-30             CASSETTE R/B             7154571230               0         0         0         0    0    0    00000240000000080000000288000006912000
AE00TI102209260226/09/202200000002700000000000000036156KGM  00000040206KGM  7171-6291                HOUSING MALE             71716291                 0         0         0         0    0    0    00000518400000019200001625000084240000
AE00TI102209260226/09/202200000000100000000000000000592KGM  00000000712KGM  7174-1164                COVER                    71741164                 0         0         0         0    0    0    00000080000000080000000173000001384000
AE00TI102209260226/09/202200000000200000000000000002564KGM  00000002954KGM  7182-4941                DOUBLE SIDED             71824941                 0         0         0         0    0    0    00000200000000100000000816000016320000
AE00TI102209260226/09/202200000000100000000000000001368KGM  00000001585KGM  7183-0521                HOUSING                  71830521                 0         0         0         0    0    0    00000480000000480000000082000003936000
AE00TI102209260226/09/202200000000100000000000000000959KGM  00000001191KGM  7183-0522-30             HOUSING                  7183052230               0         0         0         0    0    0    00000240000000240000000121000002904000
AE00TI102209260226/09/202200000000100000000000000001059KGM  00000001246KGM  7183-2412                HOUSING                  71832412                 0         0         0         0    0    0    00000160000000160000000155000002480000
AE00TI102209260226/09/202200000000100000000000000000478KGM  00000000760KGM  7183-2413                CONNECTOR HOUSING        71832413                 0         0         0         0    0    0    00000480000000480000000074000003552000
AE00TI102209260226/09/202200000000200000000000000000955KGM  00000001519KGM  7183-2413-30             CONNECTOR HOUSING        7183241330               0         0         0         0    0    0    00000960000000480000000076000007296000
AE00TI102209260226/09/202200000000100000000000000000779KGM  00000001061KGM  7183-2414                CONNECTOR HOUSING        71832414                 0         0         0         0    0    0    00000480000000480000000050000002400000
AE00TI102209260226/09/202200000000100000000000000000780KGM  00000001062KGM  7183-2414-30             CONNECTOR HOUSING        7183241430               0         0         0         0    0    0    00000480000000480000000054000002592000
AE00TI102209260226/09/202200000000300000000000000001911KGM  00000002346KGM  7188-9508-40             HLC HOUSING MALE         7188950840               0         0         0         0    0    0    00000600000000200000000240000014400000
AE00TI102209260226/09/202200000000300000000000000001879KGM  00000002314KGM  7188-9509                HLC HOUSING MALE         71889509                 0         0         0         0    0    0    00000600000000200000000231000013860000
AE00TI102209260226/09/202200000000200000000000000001262KGM  00000001552KGM  7188-9510-30             HLC HOUSING MALE         7188951030               0         0         0         0    0    0    00000400000000200000000238000009520000
AE00TI102209260226/09/202200000000300000000000000001882KGM  00000002317KGM  7188-9511-80             HLC HOUSING MALE         7188951180               0         0         0         0    0    0    00000600000000200000000245000014700000
AE00TI102209260226/09/202200000000100000000000000000628KGM  00000000773KGM  7188-9512-10             HLC HOUSING MALE         7188951210               0         0         0         0    0    0    00000200000000200000000242000004840000
AE00TI102209260226/09/202200000000300000000000000002314KGM  00000002749KGM  7188-9513                HLC HOUSING MALE         71889513                 0         0         0         0    0    0    00000600000000200000000261000015660000
AE00TI102209260226/09/202200000000300000000000000002336KGM  00000002771KGM  7188-9514-90             HLC HOUSING MALE         7188951490               0         0         0         0    0    0    00000600000000200000000275000016500000
AE00TI102209260226/09/202200000000100000000000000000579KGM  00000000686KGM  7189-9516-40             HOUSING                  7189951640               0         0         0         0    0    0    00000200000000200000000238000004760000
AE00TI102209260226/09/202200000000100000000000000000577KGM  00000000684KGM  7189-9517                HOUSING                  71899517                 0         0         0         0    0    0    00000200000000200000000228000004560000
AE00TI102209260226/09/202200000000100000000000000000584KGM  00000000691KGM  7189-9518-30             HOUSING                  7189951830               0         0         0         0    0    0    00000200000000200000000236000004720000
AE00TI102209260226/09/202200000000100000000000000000579KGM  00000000686KGM  7189-9519-80             HOUSING                  7189951980               0         0         0         0    0    0    00000200000000200000000243000004860000
AE00TI102209260226/09/202200000000200000000000000001157KGM  00000001371KGM  7189-9520-10             HOUSING                  7189952010               0         0         0         0    0    0    00000400000000200000000239000009560000
AE00TI102209260226/09/202200000000100000000000000000772KGM  00000000904KGM  7198-1867-10             HOUSING FEMALE           7198186710               0         0         0         0    0    0    00000240000000240000000114000002736000
AE00TI102209260226/09/202200000000100000000000000001030KGM  00000001176KGM  7222-7484-40             CONNECTOR                7222748440               0         0         0         0    0    0    00000100000000100000000758000007580000
AE00TI102209260226/09/202200000000100000000000000000840KGM  00000001049KGM  7283-1020                CONNECTOR                72831020                 0         0         0         0    0    0    00000600000000600000000216000012960000
AE00TI102209260226/09/202200000000300000000000000002633KGM  00000003234KGM  7283-1156                CONNECTOR                72831156                 0         0         0         0    0    0    00000240000000080000000810000019440000
AE00TI102209260226/09/202200000000100000000000000000380KGM  00000000532KGM  7283-8123                CONNECTOR HOUSING        72838123                 0         0         0         0    0    0    00000400000000400000000138000005520000
AE00TI102209260226/09/202200000000200000000000000001934KGM  00000002336KGM  7286-1917                CONNECTOR MALE ASS'Y     72861917                 0         0         0         0    0    0    00000240000000120000000517000012408000
AE00TI102209260226/09/202200000000100000000000000000952KGM  00000001140KGM  7286-7860                HOUSING MALE ASS'Y       72867860                 0         0         0         0    0    0    00000080000000080000000383000003064000
AE00TI102209260226/09/202200000000200000000000000001709KGM  00000002129KGM  7289-5979-30             HOUSING FEMALE ASS'Y     7289597930               0         0         0         0    0    0    00000050400000025200001346000006783840
AE00TI102209260226/09/202200000001900000000000000000000KGM  00000000000KGM  7470-5307E               J/B COMPLETE ASS'Y       74705307E                0         0         0         0    0    0    00000019000000001000000000000000000000
AE00TI102209260226/09/202200000000900000000000000000000KGM  00000000000KGM  7470-5782D               J/B COMPLETE ASS'Y       74705782D                0         0         0         0    0    0    00000013500000001500000000000000000000
AE00TI102209260226/09/202200000001100000000000000000000KGM  00000000000KGM  7470-5782E               J/B COMPLETE ASS'Y       74705782E                0         0         0         0    0    0    00000011000000001000000000000000000000
AE00TI102209260226/09/202200000002000000000000000000000KGM  00000000000KGM  7470-5783D               J/B COMPLETE ASS'Y       74705783D                0         0         0         0    0    0    00000030000000001500000000000000000000
AE00TI102209260226/09/202200000000900000000000000000000KGM  00000000000KGM  7470-5783E               J/B COMPLETE ASS'Y       74705783E                0         0         0         0    0    0    00000009000000001000000000000000000000
AE00TI102209260226/09/202200000004500000000000000000000KGM  00000000000KGM  7470-5791D               J/B COMPLETE ASS'Y       74705791D                0         0         0         0    0    0    00000067500000001500000000000000000000
AE00TI102209260226/09/202200000001500000000000000000000KGM  00000000000KGM  7470-5791E               J/B COMPLETE ASS'Y       74705791E                0         0         0         0    0    0    00000015000000001000000000000000000000
AE00TI102209260226/09/202200000003400000000000000016796KGM  00000022474KGM  7470-5933                J/B COMPLETE ASS'Y       74705933                 0         0         0         0    0    0    00000034000000001000000000000000000000
