BI00B1200    #2399T52911    202210067174-1270-30             SEALED COVER             CCN000000800000000800FN00000000020221101000000800NNMD0020220926133242    2F0F  0000008000000056070000067911200    YCYC    005500360039
BI00B1200    #8750T52A01    202211107172-5630-40             RUBBER STOPPER           CCN000100000000100000FN00000000020221201000100000NNM   20220926120712    2H0H  0000200000000004400000009511200    YCYC    004300270014
BI00B1200    #8750T52A01    202211107172-5631-60             RUBBER STOPPER           CCN000200000000200000FN00000000020221201000200000NNM   20220926120712    2H0H  0000200000000004200000009311200    YCYC    004300270014
BI00A32AF    QA-22-P16      202209277114-4021                TERMINAL                 PNN000105000000105000FN00000000020220901000105000NNE   20220926120712    4P0P  00001500000000670500000964132AF    HBYHVTB 006400630015
BI00B32BG    YY2211DGMW     202210067116-4120-02             TERMINAL                 CCN000018000000018000FN00000000020221101000018000NNE   20220926120712    4P0P  00000600000000780000001073632BG    YGYYA   006400630015
BI00B32BG    YY2211DGMW     202210067116-4121-02             TERMINAL                 CCN000063000000063000FN00000000020221101000063000NNE   20220926120712    4P0P  00000450000000618800000912432BG    YGYYA   006400630015
BI00B32BG    YY2211DGMW     202210067126-8854-02             TERMINAL                 CCN000006000000007500FN00000000020221101000007500NNE   20220926120712    4P0P  00000750000000604500000889732BG    YGYYA   006400630015
BI00B32BG    #YY2211DGMW    202210067158-3374-90             CONNECTOR WIRE SEAL      CCN000020000000020000FN00000000020221101000020000NNE   20220926120712    2H0H  00002000000000172000000229332BG    YGYYA   002700430014
BI00B32BG    YY2211EGMW     202210067116-4120-02             TERMINAL                 CCN000006000000006000FN00000000020221101000006000NNE   20220926120712    4P0P  00000600000000780000001073632BG    YGYYA   006400630015
BI00B32BG    YY2211EGMW     202210067116-4121-02             TERMINAL                 CCN000063000000063000FN00000000020221101000063000NNE   20220926120712    4P0P  00000450000000618800000912432BG    YGYYA   006400630015
BI00B32BG    YY2211EGMW     202210067126-8854-02             TERMINAL                 CCN000006000000007500FN00000000020221101000007500NNE   20220926120712    4P0P  00000750000000604500000889732BG    YGYYA   006400630015
BI00B32B1    #A22050        202211257158-3376-50             CONNECTOR WIRE SEAL      CCN000100000000100000FN00000000020230101000100000NNM   20220926120712B1  2C0C  00002000000000184000000240732B1    AXARNE-M002700430014
BI00B32B6    A72050         202210287116-4037                TERMINAL                 CCN000006000000006000FN00000000020230201000006000NNM   20220926120712B6  4P0P  00000600000000600000000894232B6    AXARNE-M006400630015
BI00B32B6    A72050         202210287017-1180-02             TERMINAL                 CCN000072000000072000FN00000000020230201000072000NNM   20220926120712B6  4P0P  00007200000001065600001229032B6    AXARNE-M005100280028
BI00B32B6    A72050         202210287017-1183-02             TERMINAL                 CCN000027000000027000FN00000000020230201000027000NNM   20220926120712B6  4P0P  00002700000001139400001307432B6    AXARNE-M005100280028
BI00B32B6    A72050         202210287116-4486-02             TERMINAL                 CCN000028000000028000FN00000000020230201000028000NNM   20220926120712B6  4P0P  00002800000000666400000995132B6    AXARNE-M006400630017
BI00B32B6    A72050         202210287116-5045-02             TERMINAL                 CCN000032000000032000FN00000000020230201000032000NNM   20220926120712B6  4P0P  00001600000000678400001007132B6    AXARNE-M006400630017
BI00B32B6    A72050         202210287158-3167-80             WIRE SEAL                CCN000160000000160000FN00000000020230201000160000NNM   20220926120712B6  1C0C  00002000000000048000000109032B6    AXARNE-M002700430014
BI00B32B6    A72050         202210287158-3168-80             SEALED                   CCN000040000000040000FN00000000020230201000040000NNM   20220926120712B6  1C0C  00002000000000044000000092132B6    AXARNE-M004300260014
BI00B32B6    A72050         202210287288-3339-30             HOUSING MALE             CCN000001500000001500FN00000000020230201000001500NNM   20220926120712B6  4N0N  00000150000000867000001012032B6    AXARNE-M005400370024
BI00B32B6    #A72050        202210287158-3003-90             RUBBER STOPPER           CCN000060000000060000FN00000000020230201000060000NNM   20220926120712B6  2C0C  00002000000000250000000306032B6    AXARNE-M002700430014
BI00B32B6    #A72050        202210287158-3004-40             RUBBER STOPPER           CCN000020000000020000FN00000000020230201000020000NNM   20220926120712B6  2C0C  00002000000000234000000306332B6    AXARNE-M002700430014
BI00B32B7    A82050         202210287158-3166-60             WIRE SEAL                CCN000200000000200000FN00000000020230201000200000NNM   20220926120712B7  1C0C  00004000000000104000000152432B7    AXARNE-M002700430014
BI00B32B7    A82050         202210287158-3169-40             SEALING PLUG             CCN000040000000040000FN00000000020230201000040000NNM   20220926120712B7  1C0C  00004000000000156000000204132B7    AXARNE-M004300260014
BI00B32B7    #A82050        202210287158-3376-50             CONNECTOR WIRE SEAL      CCN000020000000020000FN00000000020230201000020000NNM   20220926120712B7  2C0C  00002000000000184000000240732B7    AXARNE-M002700430014
BI00B32B7    #A82050        202210287282-8395-40             CONNECTOR                CCN000003000000003000FN00000000020230201000003000NNM   20220926120712B7  2N0N  00000100000001009000001188032B7    AXARNE-M005500360039
BI00B32B7    #A82050        202210287283-8397-40             CONNECTOR                CCN000007700000007700FN00000000020230201000007700NNM   20220926120712B7  2N0N  00000154000001007000001222732B7    AXARNE-M005600390023
BI00B32B7    #A82050        202210287283-8398-40             CONNECTOR                CCN000003080000003080FN00000000020230201000003080NNM   20220926120712B7  2N0N  00000154000001007000001171332B7    AXARNE-M005600390023
BI00A32CJ    JQN210M        202209307287-8642-40             HOUSING FEMALE ASS'Y     CCN000005600000005600FN00000000020221001000005600NNEM0020220926165557    4N0N  00000280000000915600001107632CJ    QNYHVQN 005400370024
BI00B32CJ    JQN210M        202210077298-4094-10             HOUSING FEMALE ASS'Y     CCN000003380000003380FN00000000020221001000003380NNE00020220926165528    4N0N  00000338000001097400001358732CJ    QNYHVQN 005400370024
BI00A32EJ    T220923P01     202210067116-4111-02             TERMINAL                 CCN000007500000007500FN00000000020221001000007500NNE   20220926120712EJ  4P0P  00000750000000529500000817732EJ    EJYKBO  006400630015
BI00B32EJ    T220923P02     202211037158-3168-80             SEALED                   CCN000100000000100000FN00000000020221101000100000NNE   20220926120712EJ  1C0C  00002000000000044000000092132EJ    EJYKBO  004300260014
BI00B32EJ    #T220923P02    202211037282-3042-90             CONNECTOR                CCN000036000000036000FN00000000020221101000036000NNE   20220926120712EJ  2N0N  00000090000001418000001584032EJ    EJYKBO  005500360039
BI00B32EJ    T220923P03     202211037116-4022                TERMINAL                 CCN000040500000040500FN00000000020221101000040500NNE   20220926120712EJ  4P0P  00001350000000618300000903532EJ    EJYKBO  006400630015
BI00B32EJ    T220923P03     202211037116-4103-02             TERMINAL                 CCN000036000000036000FN00000000020221101000036000NNE   20220926120712EJ  4P0P  00001200000000571200000859432EJ    EJYKBO  006400630015
BI00B32EJ    T220923P03     202211037116-4104-02             TERMINAL                 CCN000012000000012000FN00000000020221101000012000NNE   20220926120712EJ  4P0P  00001200000000580800000972432EJ    EJYKBO  006400630015
BI00B32EJ    T220923P03     202211037116-4120-02             TERMINAL                 CCN000012000000012000FN00000000020221101000012000NNE   20220926120712EJ  4P0P  00000600000000780000001073632EJ    EJYKBO  006400630015
BI00B32EJ    T220923P03     202211037158-3006-90             RUBBER STOPPER           CCN000080000000080000FN00000000020221101000080000NNE   20220926120712EJ  1C0C  00002000000000330600000386032EJ    EJYKBO  002700430014
BI00B32EJ    #T220923P03    202211037123-6423-30             CONNECTOR                CCN000020000000020000FN00000000020221101000020000NNE   20220926120712EJ  2F0F  00000200000001002000001167632EJ    EJYKBO  005600390023
BI00B32EJ    #T220923P03    202211037157-3821                RUBBER STOPPER           CCN000040000000040000FN00000000020221101000040000NNE   20220926120712EJ  2C0C  00002000000000176000000238032EJ    EJYKBO  002700430014
BI00B32EJ    T220923P04     202211037116-1231                TERMINAL                 CCN000072000000072000FN00000000020221101000072000NNE   20220926120712EJ  4P0P  00001200000000633600000921832EJ    EJYKBO  006400630015
BI00B32EJ    T220923P05     202211037116-4022                TERMINAL                 CCN000013500000013500FN00000000020221101000013500NNE   20220926120712EJ  4P0P  00001350000000618300000903532EJ    EJYKBO  006400630015
BI00B32EJ    T220923P05     202211037158-3070-80             RUBBER STOPPER           CCN000120000000120000FN00000000020221101000120000NNE   20220926120712EJ  1C0C  00004000000000276000000333332EJ    EJYKBO  002700430014
BI00B32EJ    #T220923P05    202211037283-8398-40             CONNECTOR                CCN000084700000084700FN00000000020221101000084700NNE   20220926120712EJ  2N0N  00000154000001007000001171332EJ    EJYKBO  005600390023
BI00B32EJ    #T220923P05    202211037158-3120-90             CONNECTOR WIRE SEAL      CCN000060000000060000FN00000000020221101000060000NNE   20220926120712EJ  2C0C  00002000000000136000000194032EJ    EJYKBO  002700430014
BI00B32EJ    QA-22-C087     202209297289-9553-30             SEALED ASSY FEMALE       PNY000000007000000007FN00000000020220901000000007NNE   20220926165318    4N0N  00000294000001109000001521532EJ    EJYKBO  005500360039
BI00B32G2    QA-22-C084     202209287289-3342-30             HOUSING FEMALE ASS'Y     PNN000002400000002400FN00000000020220901000002400NNE   20220926120712    1N0N  00000240000000686400000901432G2    AISUAI  005500360039
BI00B32G7    JJ22111MMW     202210207298-4899-70             SEALED HOUSING ASS'Y     CCN000018480000009240FN00000000020221101000009240NNMD0420220926120712    4N0N  00000231000000766900001036932G7    JIJAI   005500360039
BI00B32G7    JJ22111MMW     202210067298-4899-70             SEALED HOUSING ASS'Y     CCN000009240000009240FN00000000020221101000009240NNMD0020220926120712    4N0N  00000231000000766900001036932G7    JIJAI   005500360039
BI00B32H2    TIJ2105        202210177287-9234                JOINT CONNECTOR          CCN000019200000019200FN00000000020221001000019200NNMD0020220926134607    4N0N  00000960000000893800001184832H2    HVYHV   005500360039
BI00B32H2    #TIJ2105       202210177183-2415                CONNECTOR HOUSING        CCN000014400000014400FN00000000020221001000014400NNMD0020220926162020    2F0F  00000480000000798200001091432H2    HVYHV   005500360039
BI00B32H2    #TIJ2105       202210177287-7859                HYBRID FEMALE ASS'Y      CCN000006000000006000FN00000000020221001000006000NNMD0020220926162102    2N0N  00000120000000461600000671632H2    HVYHV   005500360039
BI00B32H2    #TIJ2105       202210177287-7860                HYBRID FEMALE ASS'Y      CCN000006000000006000FN00000000020221001000006000NNMD0020220926162737    2N0N  00000120000000644000000650432H2    HVYHV   005500360039
BI00B32H2    #TIJ210Q       202210177187-1616                HOUSING FEMALE           CCN000004000000004000FN00000000020221001000004000NNED0020220926160702    2F0F  00000400000001152000001262032H2    HVYHV   005500360039
BI00B32H2    TIJ2113        202210287282-9391                HOUSING MALE ASS'Y       CCN000004800000002400FN00000000020221101000002400NNMQ0820220926120712    4N0N  00000120000001017600001237632H2    HVYHV   005500360039
BI00B32H2    TIJ2114        202211047283-1156                CONNECTOR                CCN000013600000010400FN00000000020221101000010400NNMQ0820220926120712    4N0N  00000080000000877600001078032H2    HVYHV   005600390040
BI00B32H2    TIJ2113        202210287283-1222                CONNECTOR                CCN000003600000002400FN00000000020221101000002400NNMQ0820220926120712    4N0N  00000120000000852000001011032H2    HVYHV   005500360039
BI00B32H2    TIJ2111        202210287283-1289-40             CONNECTOR HOUSING        CCN000002400000002400FN00000000020221101000002400NNMD0020220926120712    1N0N  00000060000000679800000824832H2    HVYHV   005400370024
BI00B32H2    TIJ2112        202211047283-1289-40             CONNECTOR HOUSING        CCN000004800000004800FN00000000020221101000004800NNMD0020220926120712    1N0N  00000060000000679800000824832H2    HVYHV   005400370024
BI00B32H2    TIJ2113        202211117283-1289-40             CONNECTOR HOUSING        CCN000003600000003600FN00000000020221101000003600NNMD0020220926120712    1N0N  00000060000000679800000824832H2    HVYHV   005400370024
BI00B32H2    TIJ2114        202211187283-1289-40             CONNECTOR HOUSING        CCN000004200000004200FN00000000020221101000004200NNMD0020220926120712    1N0N  00000060000000679800000824832H2    HVYHV   005400370024
BI00B32H2    TIJ2113        202210287283-4577-30             CONNECTOR HOUSING        CCN000009600000004800FN00000000020221101000004800NNMQ0820220926120712    4N0N  00000480000000916800001136832H2    HVYHV   005500360039
BI00B32H2    TIJ2114        202211047283-5845                CONNECTOR HOUSING        CCN000042000000000000FY00000000020221101000000000NNMQ0820220926101023    1N0N  00000600000000444000000606332H2    HVYHV   005400370024
BI00B32H2    TIJ2114        202211117283-7062-90             CONNECTOR HOUSING        CCN000005400000005400FN00000000020221101000005400NNMD0020220926120712    1N0N  00000060000000500400000645432H2    HVYHV   005400370024
BI00B32H2    TIJ2114        202211047286-1899                HOUSING SUB ASSEMBLY     CCN000003360000002352FN00000000020221101000002352NNMQ0820220926120712    4N0N  00000033600000814800001010832H2    HVYHV   005400370024
BI00B32H2    TIJ2113        202210287286-4097                CONNECTOR MALE ASS'Y     CCN000006400000001600FN00000000020221101000001600NNMQ0820220926120712    1N0N  00000160000000768000000978032H2    HVYHV   005500360039
BI00B32H2    TIJ2114        202211047286-4097                CONNECTOR MALE ASS'Y     CCN000003200000000000FY00000000020221101000000000NNMQ0820220926111744    1N0N  00000160000000768000000978032H2    HVYHV   005500360039
BI00B32H2    TIJ2111        202210217287-9234                JOINT CONNECTOR          CCN000019200000019200FN00000000020221101000019200NNMD0020220926134530    4N0N  00000960000000893800001184832H2    HVYHV   005500360039
BI00B32H2    TIJ2112        202210287287-9234                JOINT CONNECTOR          CCN000019200000019200FN00000000020221101000019200NNMD0020220926134547    4N0N  00000960000000893800001184832H2    HVYHV   005500360039
BI00B32H2    TIJ2114        202211187298-2509-30             HOUSING FEMALE ASS'Y     CCN000001200000001200FN00000000020221101000001200NNMD0020220926120712    4N0N  00000120000000857500001062532H2    HVYHV   005500360039
BI00B32H2    #TIJ2114       202211047183-2413-30             CONNECTOR HOUSING        CCN000014400000009600FN00000000020221101000009600NNMQ0820220926120712    2F0F  00000480000000477600000759532H2    HVYHV   005500360039
BI00B32H2    #TIJ2114       202211047183-2416                HOUSING                  CCN000007200000004800FN00000000020221101000004800NNMQ0820220926132245    2F0F  00000240000001495200001771032H2    HVYHV   005500360039
BI00B32H2    #TIJ2114       202211047183-2418                CONNECTOR HOUSING        CCN000004800000000000FY00000000020221101000000000NNMQ0820220926163206    2F0F  00000480000000917000001477032H2    HVYHV   005500360039
BI00B32H2    #TIJ2114       202211047187-1616                HOUSING FEMALE           CCN000012000000008000FN00000000020221101000008000NNMQ0820220926161001    2F0F  00000400000001152000001262032H2    HVYHV   005500360039
BI00B32H2    #TIJ2114       202211047189-3034-30             HOUSING FEMALE           CCN000003200000001600FN00000000020221101000001600NNMD0020220926163313    2F0F  00000160000000972800001192832H2    HVYHV   005500360039
BI00B32H2    #TIJ2114       202211047283-1095-30             HOUSING FEMALE ASS'Y     CCN000003000000003000FN00000000020221101000003000NNM00020220926120712    2N0N  00000100000000470000000652532H2    HVYHV   005400370024
BI00B32H2    #TIJ2113       202210287283-5834-90             CONNECTOR ASS'Y          CCN000006480000003240FN00000000020221101000003240NNMQ0820220926132324    2N0N  00000324000001296000001736032H2    HVYHV   005600390040
BI00B32H2    #TIJ2114       202211047283-8123                CONNECTOR HOUSING        CCN000012000000000000FY00000000020221101000000000NNMQ0820220926163358    2N0N  00000400000000380000000531732H2    HVYHV   005600390023
BI00B32H2    #TIJ2114       202211117283-8123-30             CONNECTOR HOUSING        CCN000004000000004000FN00000000020221101000004000NNMD0020220926161219    2N0N  00000400000000380000000530032H2    HVYHV   005600390023
BI00B32H2    #TIJ2114       202211047283-8123-40             CONNECTOR HOUSING        CCN000012000000004000FN00000000020221101000004000NNMQ0820220926163417    2N0N  00000400000000380000000530032H2    HVYHV   005600390023
BI00B32H2    #TIJ2113       202210287286-7860                HOUSING MALE ASS'Y       CCN000019200000016000FN00000000020221101000016000NNMQ0820220926120712    2N0N  00000080000000951700001139832H2    HVYHV   005400370024
BI00B32H2    #TIJ2114       202211047287-1915-30             CONNECTOR ASS'Y          CCN000012000000009600FN00000000020221101000009600NNMQ0820220926161104    2N0N  00000240000000666500000923132H2    HVYHV   005500360039
BI00B32H2    #TIJ2111       202211117287-7859                HYBRID FEMALE ASS'Y      CCN000001200000001200FN00000000020221101000001200NNMD0020220926162326    2N0N  00000120000000461600000671632H2    HVYHV   005500360039
BI00B32H2    #TIJ2112       202211047287-7859                HYBRID FEMALE ASS'Y      CCN000004800000004800FN00000000020221101000004800NNMD0020220926162307    2N0N  00000120000000461600000671632H2    HVYHV   005500360039
BI00B32H2    #TIJ2111       202210217287-7860                HYBRID FEMALE ASS'Y      CCN000001200000001200FN00000000020221101000001200NNMD0020220926162801    2N0N  00000120000000644000000650432H2    HVYHV   005500360039
BI00B32H2    #TIJ2112       202211187287-7860                HYBRID FEMALE ASS'Y      CCN000003600000003600FN00000000020221101000003600NNMD0020220926162349    2N0N  00000120000000644000000650432H2    HVYHV   005500360039
BI00B32H2    #TIJ2113       202211257287-7860                HYBRID FEMALE ASS'Y      CCN000004800000004800FN00000000020221101000004800NNMD0020220926162414    2N0N  00000120000000644000000650432H2    HVYHV   005500360039
BI00B32H2    #TIJ2114       202212027287-7860                HYBRID FEMALE ASS'Y      CCN000004800000004800FN00000000020221101000004800NNMD0020220926162719    2N0N  00000120000000644000000650432H2    HVYHV   005500360039
BI00B32H2    TIJ210V        202210177289-3342-40             HOUSING FEMALE ASS'Y     CCN000002400000002400FN00000000020221001000002400NNED0020220926134645    1N0N  00000240000000686400000901432H2    HVYHV   005500360039
BI00B32H2    TIJ210V        202210177289-3342-90             HOUSING FEMALE ASS'Y     CCN000007200000007200FN00000000020221001000007200NNED0020220926134703    1N0N  00000240000000686400000901432H2    HVYHV   005500360039
BI00B32H2    TIJ211C        202211117283-4576-30             HOUSING FEMALE ASS'Y     CCN000004800000004800FN00000000020221101000004800NNED0020220926120712    4N0N  00000480000000651300000871332H2    HVYHV   005500360039
BI00B32H2    TIJ211C        202210287288-6547                CONNECTOR MALE ASS'Y     CCN000001500000000000FY00000000020221101000000000NNEQ0820220926113224    4N0N  00000075000001205300001340332H2    HVYHV   005400370024
BI00B32H2    TIJ211C        202210287289-3342                HOUSING FEMALE ASS'Y     CCN000009600000004800FN00000000020221101000004800NNEQ0820220926120712    1N0N  00000240000000686400000901432H2    HVYHV   005500360039
BI00B32H2    TIJ211C        202210287289-3342-40             HOUSING FEMALE ASS'Y     CCN000002400000000000FY00000000020221101000000000NNEQ0820220926113304    1N0N  00000240000000686400000901432H2    HVYHV   005500360039
BI00B32H2    TIJ211D        202211117283-4577                CONNECTOR HOUSING        CCN000004800000004800FN00000000020221101000004800NNED0020220926134507    4N0N  00000480000000916800001136832H2    HVYHV   005500360039
BI00B32H2    TIJ211D        202211047289-3342-90             HOUSING FEMALE ASS'Y     CCN000004800000002400FN00000000020221101000002400NNEQ0820220926120712    1N0N  00000240000000686400000901432H2    HVYHV   005500360039
BI00B32H2    #TIJ211D       202211047189-3031-90             HOUSING FEMALE           CCN000002400000000000FY00000000020221101000000000NNED0820220926163233    2F0F  00000240000000936000001373032H2    HVYHV   005500360039
BI00B32H2    TIJ211G        202210217288-6547                CONNECTOR MALE ASS'Y     CCN000002250000000000FY00000000020221101000000000NNEQ0820220926113209    4N0N  00000075000001205300001340332H2    HVYHV   005400370024
BI00B32H2    TIJ211G        202210217289-3342-40             HOUSING FEMALE ASS'Y     CCN000002400000000000FY00000000020221101000000000NNEQ0820220926113331    1N0N  00000240000000686400000901432H2    HVYHV   005500360039
BI00B32H2    TIJ211H        202210287289-3342-40             HOUSING FEMALE ASS'Y     CCN000002400000000000FY00000000020221101000000000NNEQ0820220926113346    1N0N  00000240000000686400000901432H2    HVYHV   005500360039
BI00B32H2    #TIJ211H       202211117287-7022                CONNECTOR FEMALE         CCN000002400000002400FN00000000020221101000002400NNED0020220926160907    2NON  00000120000000742800000853032H2    HVYHV   005400370024
BI00A32H2    QA-22-P17      202209277114-4021                TERMINAL                 PNN000255000000255000FN00000000020220901000255000NNE   20220926120712    4P0P  00001500000000670500000964132H2    HVYHV   006400630015
BI00A32J1    398041         202210037198-1867-10             HOUSING FEMALE           CCN000002400000002400FN00000000020220901000002400NNE00020220926120712    1F0F  00000240000000772100000904432J1    UKYEL-BL005500360039
BI00A32J1    398706         202210037283-7023-10             CONNECTOR                CCN000002500000002500FN00000000020220901000002500NNED0720220926160752    4N0N  00000250000001360000001550032J1    UKYEL-BL005500360039
BI00A32J1    398708         202210037297-2287-30             HOUSING MALE ASS'Y       CCN000001920000002400FN00000000020221001000002400NNE   20220926160800    4N0N  00000120000000473900000590032J1    UKYEL-BL005400370024
BI00B32K8    #K1220011631   202210077137-2200                CONNECTOR PACKING        CCN000005000000005000FN00000000020230101000005000NNMD0020220926135302    2C0C  00000500000000136000000211332K8    ELELCOM 004300270014
BI00B32U5    DI2050         202211257289-3342                HOUSING FEMALE ASS'Y     CCN000016800000016800FN00000000020230101000016800NNM   20220926120712U5  1N0N  00000240000000686400000901432U5    AMAMSD  005500360039
BI00B32U5    DI2050         202211257017-1180-02             TERMINAL                 CCN000216000000216000FN00000000020230101000216000NNM   20220926120712U5  4P0P  00007200000001065600001229032U5    AMAMSD  005100280028
BI00B32U5    DI2050         202211257017-1183-02             TERMINAL                 CCN000027000000027000FN00000000020230101000027000NNM   20220926120712U5  4P0P  00002700000001139400001307432U5    AMAMSD  005100280028
BI00B32U5    DI2050         202211257116-1685-02             TERMINAL                 CCN000216000000216000FN00000000020230101000216000NNM   20220926120712U5  4P0P  00002400000000897600001065232U5    AMAMSD  005100280028
BI00B32U5    DI2050         202211257116-1686-02             TERMINAL                 CCN000021000000021000FN00000000020230101000021000NNM   20220926120712U5  4P0P  00002100000000869400001021632U5    AMAMSD  005100280028
BI00B32U5    DI2050         202211257116-4486-02             TERMINAL                 CCN000168000000168000FN00000000020230101000168000NNM   20220926120712U5  4P0P  00002800000000666400000995132U5    AMAMSD  006400630017
BI00B32U5    DI2050         202211257116-5045-02             TERMINAL                 CCN000272000000272000FN00000000020230101000272000NNM   20220926120712U5  4P0P  00001600000000678400001007132U5    AMAMSD  006400630017
BI00B32U5    DI2050         202211257116-5046-02             TERMINAL                 CCN000144000000144000FN00000000020230101000144000NNM   20220926120712U5  4P0P  00001200000000544800000873532U5    AMAMSD  006400630017
BI00B32U5    DI2050         202211257196-1104-02             TERMINAL                 CCN000292500000292500FN00000000020230101000292500NNM   20220926120712U5  4P0P  00002250000000441000000726232U5    AMAMSD  006400630015
BI00B32U5    DI2050         202211257196-1936-02             TERMINAL FEMALE          CCN000013500000013500FN00000000020230101000013500NNM   20220926120712U5  4P0P  00001350000000441500000726732U5    AMAMSD  006400630015
BI00B32U5    DI2050         202211257196-1944-02             TERMINAL FEMALE          CCN000012000000012000FN00000000020230101000012000NNM   20220926120712U5  4P0P  00001200000000501600000786832U5    AMAMSD  006400630015
BI00B32U5    DI2050         202211257283-9458-30             CONNECTOR                CCN000002400000002400FN00000000020230101000002400NNM   20220926120712U5  4N0N  00000020000000792000000984332U5    AMAMSD  005600390023
BI00B32U5    DI2050         202211257288-3330-30             HOUSING MALE             CCN000004500000004500FN00000000020230101000004500NNM   20220926120712U5  4N0N  00000150000000866300001011232U5    AMAMSD  005400370024
BI00B32U5    DI2050         202211257298-4094-10             HOUSING FEMALE ASS'Y     CCN000003380000003380FN00000000020230101000003380NNM   20220926120712U5  4N0N  00000338000001097400001358732U5    AMAMSD  005400370024
BI00B32U5    DI2050         202211257298-5993-30             SEALED ASSY FEMALE       CCN000002184000002184FN00000000020230101000002184NNM   20220926120712U5  4N0N  00000218400000981500001290032U5    AMAMSD  005500360039
BI00B32U5    DI2050         202211257283-9457-3W             CONNECTOR                CCN000002040000002040FN00000000020230101000002040NNM   20220926120712U5  4N0N  00000012000000515000001067032U5    AMAMSD  005600390023
BI00B32U5    DI2050         202211257327-6731-3W             BATTERY FUSE             CCN000002048000002048FN00000000020230101000002048NNM   20220926120712U5  4N0N  00000006400000697600000843032U5    AMAMSD  005400370024
BI00B32U5    #DI2050        202211257158-3017                RUBBER STOPPER           CCN000020000000020000FN00000000020230101000020000NNM   20220926120712U5  2C0C  00001000000000375500000435032U5    AMAMSD  002700430014
BI00B32U5    #DI2050        202211257287-7859                HYBRID FEMALE ASS'Y      CCN000012000000012000FN00000000020230101000012000NNM   20220926120712U5  2N0N  00000120000000461600000671632U5    AMAMSD  005500360039
BI00B32U5    #DI2050        202211257158-3003-90             RUBBER STOPPER           CCN000180000000180000FN00000000020230101000180000NNM   20220926120712U5  2C0C  00002000000000250000000306032U5    AMAMSD  002700430014
BI00B32U5    #DI2050        202211257158-3004-40             RUBBER STOPPER           CCN000020000000020000FN00000000020230101000020000NNM   20220926120712U5  2C0C  00002000000000234000000306332U5    AMAMSD  002700430014
BI00B32U5    #DI2050        202211257158-3005-80             RUBBER STOPPER           CCN000020000000020000FN00000000020230101000020000NNM   20220926120712U5  2H0H  00002000000000210000000268732U5    AMAMSD  002700430014
BI00B32U5    #DI2050        202211257158-3007-10             RUBBER STOPPER           CCN000180000000180000FN00000000020230101000180000NNM   20220926120712U5  2H0H  00002000000000308000000362732U5    AMAMSD  002700430014
BI00B32U5    #DI2050        202211257158-3008-80             RUBBER STOPPER           CCN000140000000140000FN00000000020230101000140000NNM   20220926120712U5  2C0C  00002000000000288000000343032U5    AMAMSD  004300270014
BI00B32U5    #DI2050        202211257158-3015-10             RUBBER STOPPER           CCN000010000000010000FN00000000020230101000010000NNM   20220926120712U5  2C0C  00001000000000419500000474032U5    AMAMSD  002700430014
BI00B32U5    #DI2050        202211257172-5625-90             RUBBER STOPPER           CCN000040000000040000FN00000000020230101000040000NNM   20220926120712U5  2H0H  00002000000000082400000133832U5    AMAMSD  004300270014
BI00B32U5    #DI2050        202211257172-5626-90             RUBBER STOPPER           CCN000100000000100000FN00000000020230101000100000NNM   20220926120712U5  2H0H  00002000000000076400000127832U5    AMAMSD  004300270014
BI00B32U5    #DI2050        202211257172-5627-60             RUBBER STOPPER           CCN000220000000220000FN00000000020230101000220000NNM   20220926120712U5  2H0H  00002000000000070400000121832U5    AMAMSD  004300270014
BI00B32U5    #DI2050        202211257172-5628-80             DUMMY PLUG               CCN000100000000100000FN00000000020230101000100000NNM   20220926120712U5  2H0H  00002000000000110600000162032U5    AMAMSD  004300270014
BI00B32U5    #DI2050        202211257172-5629-80             RUBBER STOPPER           CCN000140000000140000FN00000000020230101000140000NNM   20220926120712U5  2H0H  00002000000000060000000111132U5    AMAMSD  004300270014
BI00B32U5    #DI2050        202211257172-5630-40             RUBBER STOPPER           CCN000480000000480000FN00000000020230101000480000NNM   20220926120712U5  2H0H  00002000000000044000000095132U5    AMAMSD  004300270014
BI00B32U5    #DI2050        202211257172-5631-60             RUBBER STOPPER           CCN000200000000200000FN00000000020230101000200000NNM   20220926120712U5  2H0H  00002000000000042000000093132U5    AMAMSD  004300270014
BI00B32U5    #DI2050        202211257172-5632-10             DUMMY PLUG               CCN000240000000240000FN00000000020230101000240000NNM   20220926120712U5  2H0H  00002000000000080400000131832U5    AMAMSD  004300270014
BI00B32U5    #DI2050        202211257182-8253-40             HOUSING                  CCN000002400000002400FN00000000020230101000002400NNM   20220926120712U5  2F0F  00000120000000573000000864032U5    AMAMSD  005600390040
BI00B32U5    #DI2050        202211257282-6446-40             CONNECTOR                CCN000004500000004500FN00000000020230101000004500NNM   20220926120712U5  2N0N  00000150000001185000001368032U5    AMAMSD  005500360039
BI00B32U5    #DI2050        202211257287-1915-40             CONNECTOR ASS'Y          CCN000002400000002400FN00000000020230101000002400NNM   20220926120712U5  2N0N  00000240000000666500000923132U5    AMAMSD  005500360039
BI00B32U9    TPA246         202210207298-1186-40             SQUIB SUB ASS'Y          CCN000050000000050000FN00000000020221201000050000NNMD0020220926120712U9  4N0N  00001000000000650000000774532U9    YNYNA-E 005400370024
BI00B32U9    TP0421S        202211177283-9458-30             CONNECTOR                CCN000000800000000800FN00000000020221201000000800NNE   20220926120712U9  4N0N  00000020000000792000000984332U9    YNYNA-E 005600390023
BI00B32U9    TP0421S        202211177298-1145-4W             SQUIB SUB ASS'Y          CCN000010000000010000FN00000000020221201000010000NNE   20220926120712U9  4N0N  00001000000000787900000944932U9    YNYNA-E 005400370024
BI00B32U9    TP0421S        202211177114-6041                TERMINAL                 CCN000007200000007200FN00000000020221201000007200NNE   20220926120712U9  4P0P  00000360000000580700000824232U9    YNYNA-E 006400630015
BI00B32U9    TP0421S        202211177298-1187-30             SHUNT RING ASSEMBLY      CCN000010000000010000FN00000000020221201000010000NNE   20220926120712U9  4N0N  00001000000000647000000769532U9    YNYNA-E 005400370024
BI00B32U9    TP0421S        202211177298-1186-40             SQUIB SUB ASS'Y          CCN000030000000030000FN00000000020221201000030000NNE   20220926120712U9  4N0N  00001000000000650000000774532U9    YNYNA-E 005400370024
BI00B32U9    TPA247         202210277289-6547                HOUSING FEMALE ASS'Y     CCN000002400000002400FN00000000020221201000002400NNM   20220926120712U9  1N0N  00000240000001152000001362032U9    YNYNA-E 005500360039
BI00B32U9    TPA247         202210277116-2951-02             TERMINAL                 CCN000108000000108000FN00000000020221201000108000NNM   20220926120712U9  4P0P  00000540000000817600001111832U9    YNYNA-E 006400630015
BI00B32U9    TPA247         202210277116-4060-02             TERMINAL                 CCN000024000000024000FN00000000020221201000024000NNM   20220926120712U9  1P0P  00002400000000511200000984232U9    YNYNA-E 006400630017
BI00B32U9    TPA247         202210277116-4231-02             TERMINAL                 CCN000286000000286000FN00000000020221201000286000NNM   20220926120712U9  4P0P  00002600000000683800001012532U9    YNYNA-E 006400630017
BI00B32U9    TPA247         202210277158-3165-90             WIRE SEAL                CCN000080000000080000FN00000000020221201000080000NNM   20220926120712U9  1C0C  00004000000000124000000172432U9    YNYNA-E 004300270014
BI00B32U9    TPA247         202210277158-3169-40             SEALING PLUG             CCN000360000000360000FN00000000020221201000360000NNM   20220926120712U9  1C0C  00004000000000156000000204132U9    YNYNA-E 004300260014
BI00B32U9    TPA247         202210277172-1372-10             FRONT HOLDER             CCN000003900000003900FN00000000020221201000003900NNM   20220926120712U9  4F0F  00000390000000655200000955232U9    YNYNA-E 005500360039
BI00B32U9    TPA247         202210277174-1849-70             COVER                    CCN000025000000025000FN00000000020221201000025000NNM   20220926120712U9  1F0F  00002500000000622500000761932U9    YNYNA-E 005400370024
BI00B32U9    TPA247         202210277282-5574-10             CONNECTOR                CCN000060000000060000FN00000000020221201000060000NNM   20220926120712U9  4N0N  00000080000001235000001423032U9    YNYNA-E 005600390040
BI00B32U9    TPA247         202210277289-4212-80             SEALED HOUSING ASS'Y     CCN000002000000002000FN00000000020221201000002000NNM   20220926120712U9  4N0N  00000200000000848600000978632U9    YNYNA-E 005400370024
BI00B32U9    TPA247         202210277289-7615-30             HOUSING FEMALE ASS'Y     CCN000003200000003200FN00000000020221201000003200NNM   20220926120712U9  4N0N  00000032000000738000000948032U9    YNYNA-E 005400370024
BI00B32U9    TPA247         202210277298-1186-40             SQUIB SUB ASS'Y          CCN000050000000050000FN00000000020221201000050000NNM   20220926120712U9  4N0N  00001000000000650000000774532U9    YNYNA-E 005400370024
BI00B32U9    TPA247         202210277298-1186-70             SQUIB SUB ASS'Y          CCN000010000000010000FN00000000020221201000010000NNM   20220926120712U9  4N0N  00001000000000650000000774532U9    YNYNA-E 005400370024
BI00B32U9    TPA247         202210277298-1187-30             SHUNT RING ASSEMBLY      CCN000010000000010000FN00000000020221201000010000NNM   20220926120712U9  4N0N  00001000000000647000000769532U9    YNYNA-E 005400370024
BI00B32U9    TPA247         202210277298-1145-4W             SQUIB SUB ASS'Y          CCN000010000000010000FN00000000020221201000010000NNM   20220926120712U9  4N0N  00001000000000787900000944932U9    YNYNA-E 005400370024
BI00B32U9    TPA247         202210277298-1149-3W             SQUIB SUB ASS'Y          CCN000010000000010000FN00000000020221201000010000NNM   20220926120712U9  4N0N  00001000000000785000000922032U9    YNYNA-E 005400370024
BI00B32U9    #TPA247        202210277147-9094                RETAINER                 CCN000012000000012000FN00000000020221201000012000NNM   20220926120712U9  2F0F  00000300000000717000000872932U9    YNYNA-E 005500360039
BI00B32U9    #TPA247        202210277157-3646                RUBBER STOPPER           CCN000100000000100000FN00000000020221201000100000NNM   20220926120712U9  2H0H  00002000000000184000000255232U9    YNYNA-E 002700430014
BI00B32U9    #TPA247        202210277158-3376-50             CONNECTOR WIRE SEAL      CCN000140000000140000FN00000000020221201000140000NNM   20220926120712U9  2C0C  00002000000000184000000240732U9    YNYNA-E 002700430014
BI00B32U9    #TPA247        202210277282-8395-40             CONNECTOR                CCN000022000000022000FN00000000020221201000022000NNM   20220926120712U9  2N0N  00000100000001009000001188032U9    YNYNA-E 005500360039
BI00B32U9    #TPA247        202210277283-8397-40             CONNECTOR                CCN000006160000006160FN00000000020221201000006160NNM   20220926120712U9  2N0N  00000154000001007000001222732U9    YNYNA-E 005600390023
BI00B32U9    #TPA247        202210277B58-3121-80             SEALED CONNECTOR         CCN000060000000060000FN00000000020221201000060000NNM   20220926120712U9  2C0C  00002000000000118000000195032U9    YNYNA-E 004300270014
BI00B32W4    #4500195610    202209237147-3642-30             CLIP                     CCN000042000000021000FY00002100020220901000000000NNE00020220926114704W4172F0F  00000300000000542000000721332W417  HJYHK   005600390040
BI00B32W4    #4500198024    202209237147-3642-30             CLIP                     CCN000015000000009000FY00000900020220901000000000NNE00020220926114643W4A22F0F  00000300000000542000000721332W4A2  HJYHK-J 005600390040
BI00B32W4    4500200848     202210277283-1020                CONNECTOR                CCN000150000000150000FN00000000020221001000150000NNED0420220926135735W4514N0N  00000600000000840000001049332W451  HJ32W9  005600390040
BI00B32W4    4500201052     202211227116-1180                TERMINAL                 CCN000019500000019500FN00000000020221101000019500NNE   20220926120712W41 1P0P  00001950000000618200000903432W41   HJYHK   006400630015
BI00B32W4    4500201052     202211227017-1180-02             TERMINAL                 CCN000072000000072000FN00000000020221101000072000NNE   20220926120712W41 4P0P  00007200000001065600001229032W41   HJYHK   005100280028
BI00A32W4    4500201059     202209277174-1849-70             COVER                    CCN000025000000025000FN00000000020220901000025000NNE   20220926161924W4D41F0F  00002500000000622500000761932W4D4  HJYHK-J 005400370024
BI00B32W9    4500199691     202210117114-4231-02             TERMINAL                 CCN000018000000018000FN00000000020221001000018000NNED0020220926155005W93 4P0P  00001800000000554400000848032W93   HKYHK   006400630015
BI00B32W9    4500199691     202210117222-7923-30             CONNECTOR                CCN000000600000000600FN00000000020221001000000600NNED0020220926154943W93 4N0N  00000060000000937000001067032W93   HKYHK   005500360039
BI00B32W9    4500201023     202210187158-3006-90             RUBBER STOPPER           CCN000060000000060000FN00000000020221001000060000NNE   20220926120712W9  1C0C  00002000000000330600000386032W9    HKYHK   002700430014
BI00B32W9    #4500201023    202210187186-8845                HOUSING MALE             CCN000003000000003000FN00000000020221001000003000NNE   20220926120712W9  2F0F  00000300000000690000000801532W9    HKYHK   005400370024
BI00B32W9    #4500201023    202210187158-3007-10             RUBBER STOPPER           CCN000020000000020000FN00000000020221001000020000NNE   20220926120712W9  2H0H  00002000000000308000000362732W9    HKYHK   002700430014
BI00B32X5    TIB2050        202211257116-4037                TERMINAL                 CCN000042000000042000FN00000000020230101000042000NNM   20220926120712X5  4P0P  00000600000000600000000894232X5    EPYNA-E 006400630015
BI00B32X5    TIB2050        202211257287-8072                HOUSING FEMALE ASS'Y     CCN000002400000002400FN00000000020230101000002400NNM   20220926120712X5  1N0N  00000240000001221600001441632X5    EPYNA-E 005500360039
BI00B32X5    TIB2050        202211257297-3482                JOINT CONNECTOR          CCN000010400000010400FN00000000020230101000010400NNM   20220926120712X5  4N0N  00000080000000621000000730532X5    EPYNA-E 005400370024
BI00B32X5    TIB2050        202211257298-3484                HOUSING FEMALE ASS'Y     CCN000008100000008100FN00000000020230101000008100NNM   20220926120712X5  4N0N  00000270000000742500001028732X5    EPYNA-E 005400370024
BI00B32X5    TIB2050        202211257017-1180-02             TERMINAL                 CCN000288000000288000FN00000000020230101000288000NNM   20220926120712X5  4P0P  00007200000001065600001229032X5    EPYNA-E 005100280028
BI00B32X5    TIB2050        202211257017-1182-02             TERMINAL                 CCN000045000000045000FN00000000020230101000045000NNM   20220926120712X5  4P0P  00004500000001165500001318632X5    EPYNA-E 005100280028
BI00B32X5    TIB2050        202211257116-4486-02             TERMINAL                 CCN000168000000168000FN00000000020230101000168000NNM   20220926120712X5  4P0P  00002800000000666400000995132X5    EPYNA-E 006400630017
BI00B32X5    TIB2050        202211257116-5045-02             TERMINAL                 CCN000240000000240000FN00000000020230101000240000NNM   20220926120712X5  4P0P  00001600000000678400001007132X5    EPYNA-E 006400630017
BI00B32X5    TIB2050        202211257116-5046-02             TERMINAL                 CCN000072000000072000FN00000000020230101000072000NNM   20220926120712X5  4P0P  00001200000000544800000873532X5    EPYNA-E 006400630017
BI00B32X5    TIB2050        202211257137-3047-30             UNIT PACKING             CCN000009000000009000FN00000000020230101000009000NNM   20220926120712X5  1C0C  00000100000000170500000218932X5    EPYNA-E 002700430014
BI00B32X5    TIB2050        202211257172-5402-30             SEAL RUBBER              CCN000016000000016000FN00000000020230101000016000NNM   20220926120712X5  1C0C  00000800000000457600000506032X5    EPYNA-E 004300270014
BI00B32X5    TIB2050        202211257172-5403-30             SEALED PACKING           CCN000020000000020000FN00000000020230101000020000NNM   20220926120712X5  1C0C  00000400000000653600000701732X5    EPYNA-E 004300270014
BI00B32X5    TIB2050        202211257195-0783-08             TERMINAL                 CCN000030000000030000FN00000000020230101000030000NNM   20220926120712X5  4P0P  00003000000000507000000801232X5    EPYNA-E 006400630015
BI00B32X5    TIB2050        202211257196-1104-02             TERMINAL                 CCN000180000000180000FN00000000020230101000180000NNM   20220926120712X5  4P0P  00002250000000441000000726232X5    EPYNA-E 006400630015
BI00B32X5    TIB2050        202211257282-5574-10             CONNECTOR                CCN000004800000004800FN00000000020230101000004800NNM   20220926120712X5  4N0N  00000080000001235000001423032X5    EPYNA-E 005600390040
BI00B32X5    TIB2050        202211257288-6598-70             HOUSING MALE ASS'Y       CCN000002880000002880FN00000000020230101000002880NNM   20220926120712X5  4N0N  00000144000001074200001429232X5    EPYNA-E 005500360039
BI00B32X5    TIB2050        202211257289-3342-30             HOUSING FEMALE ASS'Y     CCN000072000000072000FN00000000020230101000072000NNM   20220926120712X5  1N0N  00000240000000686400000901432X5    EPYNA-E 005500360039
BI00B32X5    TIB2050        202211257289-3342-90             HOUSING FEMALE ASS'Y     CCN000009600000009600FN00000000020230101000009600NNM   20220926120712X5  1N0N  00000240000000686400000901432X5    EPYNA-E 005500360039
BI00B32X5    TIB2050        202211257289-5979-30             HOUSING FEMALE ASS'Y     CCN000002016000002016FN00000000020230101000002016NNM   20220926120712X5  1N0N  00000025200000854700001064732X5    EPYNA-E 005400370024
BI00B32X5    TIB2050        202211257289-6518-30             HOUSING FEMALE ASS'Y     CCN000001200000001200FN00000000020230101000001200NNM   20220926120712X5  1N0N  00000120000000829200001049232X5    EPYNA-E 005500360039
BI00B32X5    TIB2050        202211257327-6872-30             MULTI FUSE               CCN000003456000003456FN00000000020230101000003456NNM   20220926120712X5  4N0N  00000028800000984500001150432X5    EPYNA-E 005400370024
BI00B32X5    TIB2050        202211257327-6878-30             MULTI FUSE               CCN000003456000003456FN00000000020230101000003456NNM   20220926120712X5  4N0N  00000028800000989700001155632X5    EPYNA-E 005400370024
BI00B32X5    TIB2050        202211257327-6882-30             MULTI FUSE               CCN000003456000003456FN00000000020230101000003456NNM   20220926120712X5  4N0N  00000028800001015900001181832X5    EPYNA-E 005400370024
BI00B32X5    TIB2050        202211257388-2978-30             HOUSING MALE ASS'Y       CCN000014880000014880FN00000000020230101000014880NNM   20220926120712X5  1N0N  00000048000000742000001122032X5    EPYNA-E 005500360039
BI00B32X5    TIB2050        202211257327-6731-3W             BATTERY FUSE             CCN000003904000003904FN00000000020230101000003904NNM   20220926120712X5  4N0N  00000006400000697600000843032X5    EPYNA-E 005400370024
BI00B32X5    TIB2050        202211257B96-0805-02             TERMINAL FEMALE          CCN000022500000022500FN00000000020230101000022500NNM   20220926120712X5  4P0P  00002250000000558000000843232X5    EPYNA-E 006400630015
BI00B32X5    #TIB2050       202211257147-9094                RETAINER                 CCN000003000000003000FN00000000020230101000003000NNM   20220926120712X5  2F0F  00000300000000717000000872932X5    EPYNA-E 005500360039
BI00B32X5    #TIB2050       202211257158-3017                RUBBER STOPPER           CCN000020000000020000FN00000000020230101000020000NNM   20220926120712X5  2C0C  00001000000000375500000435032X5    EPYNA-E 002700430014
BI00B32X5    #TIB2050       202211257198-1372                HOUSING FEMALE           CCN000004000000004000FN00000000020230101000004000NNM   20220926120712X5  2F0F  00000200000000857200000982232X5    EPYNA-E 005400370024
BI00B32X5    #TIB2050       202211257198-2458                HOUSING FEMALE           CCN000003520000003520FN00000000020230101000003520NNM   20220926120712X5  2F0F  00000176000000869100001160532X5    EPYNA-E 005400370024
BI00B32X5    #TIB2050       202211257287-7859                HYBRID FEMALE ASS'Y      CCN000012000000012000FN00000000020230101000012000NNM   20220926120712X5  2N0N  00000120000000461600000671632X5    EPYNA-E 005500360039
BI00B32X5    #TIB2050       202211257154-3424-30             REAR HOLDER              CCN000003000000003000FN00000000020230101000003000NNM   20220926120712X5  2F0F  00000300000000975000001138632X5    EPYNA-E 005500360039
BI00B32X5    #TIB2050       202211257158-3003-90             RUBBER STOPPER           CCN000180000000180000FN00000000020230101000180000NNM   20220926120712X5  2C0C  00002000000000250000000306032X5    EPYNA-E 002700430014
BI00B32X5    #TIB2050       202211257158-3004-40             RUBBER STOPPER           CCN000020000000020000FN00000000020230101000020000NNM   20220926120712X5  2C0C  00002000000000234000000306332X5    EPYNA-E 002700430014
BI00B32X5    #TIB2050       202211257158-3005-80             RUBBER STOPPER           CCN000040000000040000FN00000000020230101000040000NNM   20220926120712X5  2H0H  00002000000000210000000268732X5    EPYNA-E 002700430014
BI00B32X5    #TIB2050       202211257158-3007-10             RUBBER STOPPER           CCN000160000000160000FN00000000020230101000160000NNM   20220926120712X5  2H0H  00002000000000308000000362732X5    EPYNA-E 002700430014
BI00B32X5    #TIB2050       202211257158-3610-80             RUBBER STOPPER           CCN000006000000006000FN00000000020230101000006000NNM   20220926120712X5  2H0H  00000300000000396900000438932X5    EPYNA-E 004300270014
BI00B32X5    #TIB2050       202211257172-5625-90             RUBBER STOPPER           CCN000020000000020000FN00000000020230101000020000NNM   20220926120712X5  2H0H  00002000000000082400000133832X5    EPYNA-E 004300270014
BI00B32X5    #TIB2050       202211257172-5626-90             RUBBER STOPPER           CCN000060000000060000FN00000000020230101000060000NNM   20220926120712X5  2H0H  00002000000000076400000127832X5    EPYNA-E 004300270014
BI00B32X5    #TIB2050       202211257172-5627-60             RUBBER STOPPER           CCN000040000000040000FN00000000020230101000040000NNM   20220926120712X5  2H0H  00002000000000070400000121832X5    EPYNA-E 004300270014
BI00B32X5    #TIB2050       202211257172-5628-80             DUMMY PLUG               CCN000020000000020000FN00000000020230101000020000NNM   20220926120712X5  2H0H  00002000000000110600000162032X5    EPYNA-E 004300270014
BI00B32X5    #TIB2050       202211257172-5630-40             RUBBER STOPPER           CCN000280000000280000FN00000000020230101000280000NNM   20220926120712X5  2H0H  00002000000000044000000095132X5    EPYNA-E 004300270014
BI00B32X5    #TIB2050       202211257172-5631-60             RUBBER STOPPER           CCN000060000000060000FN00000000020230101000060000NNM   20220926120712X5  2H0H  00002000000000042000000093132X5    EPYNA-E 004300270014
BI00B32X5    #TIB2050       202211257172-5632-10             DUMMY PLUG               CCN000240000000240000FN00000000020230101000240000NNM   20220926120712X5  2H0H  00002000000000080400000131832X5    EPYNA-E 004300270014
BI00B32X5    #TIB2050       202211257183-8251-40             HOUSING                  CCN000002400000002400FN00000000020230101000002400NNM   20220926120712X5  2F0F  00000240000000357600000640032X5    EPYNA-E 005500360039
BI00B32X5    #TIB2050       202211257183-8253-40             HOUSING                  CCN000002400000002400FN00000000020230101000002400NNM   20220926120712X5  2F0F  00000240000000528000000805032X5    EPYNA-E 005500360039
BI00B32X5    #TIB2050       202211257189-2978-30             HOUSING FEMALE           CCN000015000000015000FN00000000020230101000015000NNM   20220926120712X5  2F0F  00000150000000966900001096932X5    EPYNA-E 005400370024
BI00B32X5    #TIB2050       202211257198-1371-60             HOUSING FEMALE           CCN000004000000004000FN00000000020230101000004000NNM   20220926120712X5  2F0F  00000200000000597800000721232X5    EPYNA-E 005400370024
BI00B32X5    #TIB2050       202211257198-1373-60             HOUSING FEMALE           CCN000004000000004000FN00000000020230101000004000NNM   20220926120712X5  2F0F  00000200000000819400000947432X5    EPYNA-E 005400370024
BI00B32X5    #TIB2050       202211257282-8395-40             CONNECTOR                CCN000001000000001000FN00000000020230101000001000NNM   20220926120712X5  2N0N  00000100000001009000001188032X5    EPYNA-E 005500360039
BI00B32X5    #TIB2050       202211257283-8397-40             CONNECTOR                CCN000003080000003080FN00000000020230101000003080NNM   20220926120712X5  2N0N  00000154000001007000001222732X5    EPYNA-E 005600390023
BI00B32Y8    TAIM2209D      202210197114-4021                TERMINAL                 CCN000015000000015000FN00000000020230401000015000NNM   20220926120712Y8  4P0P  00001500000000670500000964132Y8    CLYCL   006400630015
BI00B32Y8    TAIM2209D      202210197114-4030                TERMINAL                 CCN000010500000010500FN00000000020230401000010500NNM   20220926120712Y8  4P0P  00001050000000926100001254732Y8    CLYCL   006400630017
BI00B32Y8    TAIM2209D      202210197116-6041                TERMINAL                 CCN000004500000004500FN00000000020230401000004500NNM   20220926120712Y8  4P0P  00000450000000716000001009632Y8    CLYCL   006400630015
BI00B32Y8    TAIM2209D      202210197286-3970                CONNECTOR HOUSING        CCN000000110000000110FN00000000020230401000000110NNM   20220926120712Y8  1N0N  00000011000000977300001164032Y8    CLYCL   005500360039
BI00B32Y8    TAIM2209D      202210197370-0309                J/B ASS'Y                CCN000000192000000192FN00000000020230401000000192NNM   20220926120712Y8  1J0J  00000001600000870400001260032Y8    CLYCL   005500360039
BI00B32Y8    TAIM2209D      202210197370-0310                J/B ASS'Y                CCN000000220000000220FN00000000020230401000000220NNM   20220926120712Y8  1J0J  00000001000000559000000809032Y8    CLYCL   005500360039
BI00B32Y8    TAIM2209D      202210197116-4231-02             TERMINAL                 CCN000052000000052000FN00000000020230401000052000NNM   20220926120712Y8  4P0P  00002600000000683800001012532Y8    CLYCL   006400630017
BI00B32Y8    TAIM2209D      202210197116-5044-02             TERMINAL                 CCN000032000000032000FN00000000020230401000032000NNM   20220926120712Y8  4P0P  00001600000000641600000986332Y8    CLYCL   006400630017
BI00B32Y8    TAIM2209D      202210197116-5045-02             TERMINAL                 CCN000032000000032000FN00000000020230401000032000NNM   20220926120712Y8  4P0P  00001600000000678400001007132Y8    CLYCL   006400630017
BI00B32Y8    TAIM2209D      202210197140-1977-30             UPPER COVER              CCN000000170000000170FN00000000020230401000000170NNM   20220926120712Y8  1F0F  00000001000000099500000249532Y8    CLYCL   005600390040
BI00B32Y8    TAIM2209D      202210197158-3006-90             RUBBER STOPPER           CCN000080000000080000FN00000000020230401000080000NNM   20220926120712Y8  1C0C  00002000000000330600000386032Y8    CLYCL   002700430014
BI00B32Y8    #TAIM2209D     202210197035-2393                GROMMET                  CCN000000400000000400FN00000000020230401000000400NNM   20220926120712Y8  2H0H  00000010000001374000001581732Y8    CLYCL   005600390040
BI00B32Y8    #TAIM2209D     202210197174-0152                CONNECTOR                CCN000000350000000350FN00000000020230401000000350NNM   20220926120712Y8  2F0F  00000035000000746400000918632Y8    CLYCL   005500360039
BI00B32Y8    #TAIM2209D     202210197187-3356                JOINT CONNECTOR          CCN000001200000001200FN00000000020230401000001200NNM   20220926120712Y8  2F0F  00000120000000759600001024432Y8    CLYCL   005600390040
BI00B32Y8    #TAIM2209D     202210197187-3970                CONNECTOR FLAME          CCN000000368000000368FN00000000020230401000000368NNM   20220926120712Y8  2F0F  00000036800001414000001737332Y8    CLYCL   005600390040
BI00B32Y8    #TAIM2209D     202210197140-1978-30             LOWER COVER              CCN000000160000000160FN00000000020230401000000160NNM   20220926120712Y8  2F0F  00000000800000207100000395132Y8    CLYCL   005500360039
BI00B32Y8    #TAIM2209D     202210197157-7811-80             SEAL RUBBER              CCN000010000000010000FN00000000020230401000010000NNM   20220926120712Y8  2C0C  00001000000000105000000182732Y8    CLYCL   002700430014
BI00B32Y8    #TAIM2209D     202210197158-3003-90             RUBBER STOPPER           CCN000040000000040000FN00000000020230401000040000NNM   20220926120712Y8  2C0C  00002000000000250000000306032Y8    CLYCL   002700430014
BI00B32Y8    #TAIM2209D     202210197158-3004-40             RUBBER STOPPER           CCN000020000000020000FN00000000020230401000020000NNM   20220926120712Y8  2C0C  00002000000000234000000306332Y8    CLYCL   002700430014
BI00B32Y8    #TAIM2209D     202210197158-3015-10             RUBBER STOPPER           CCN000010000000010000FN00000000020230401000010000NNM   20220926120712Y8  2C0C  00001000000000419500000474032Y8    CLYCL   002700430014
