AE00TI102209260126/09/202200000000300000000000000002518KGM  00000003358KGM  7C89-6868-30             SEALED ASSY FEMALE       7C89686830               0         0         0         0    0    0    00000756000000252000000335000025326000
AE00TI102209260126/09/202200000000400000000000000004934KGM  00000005782KGM  7287-7599-40             HOUSING FEMALE ASS'Y     7287759940               0         0         0         0    0    0    00000640000000160000000367000023488000
AE00TI102209260126/09/202200000000600000000000000005197KGM  00000006067KGM  7288-3329-30             HOUSING MALE             7288332930               0         0         0         0    0    0    00000900000000150000000354000031860000
AE00TI102209260126/09/202200000000200000000000000001721KGM  00000002011KGM  7288-3332-30             HOUSING MALE             7288333230               0         0         0         0    0    0    00000300000000150000000354000010620000
AE00TI102209260126/09/202200000000100000000000000000867KGM  00000001012KGM  7288-3334-30             HOUSING MALE             7288333430               0         0         0         0    0    0    00000150000000150000000354000005310000
AE00TI102209260126/09/202200000000700000000000000006069KGM  00000007084KGM  7288-3337-30             HOUSING MALE             7288333730               0         0         0         0    0    0    00001050000000150000000354000037170000
AE00TI102209260126/09/202200000000100000000000000000862KGM  00000001006KGM  7288-3340-30             HOUSING MALE             7288334030               0         0         0         0    0    0    00000150000000150000000354000005310000
AE00TI102209260126/09/202200000003800000000000000026083KGM  00000034253KGM  7289-3342-30             HOUSING FEMALE ASS'Y     7289334230               0         0         0         0    0    0    00009120000000240000000191000174192000
AE00TI102209260126/09/202200000000800000000000000004392KGM  00000006072KGM  7289-5000                HOUSING FEMALE ASS'Y     72895000                 0         0         0         0    0    0    00000243200000030400000650000015808000
AE00TI102209260126/09/202200000000500000000000000004146KGM  00000005246KGM  7289-6518-30             HOUSING FEMALE ASS'Y     7289651830               0         0         0         0    0    0    00000600000000120000000598000035880000
AE00TI102209260126/09/202200000000300000000000000003869KGM  00000004619KGM  7289-6597-70             HOUSING FEMALE ASS'Y     7289659770               0         0         0         0    0    0    00000648000000216000000616000039916800
AE00TI102209260126/09/202200000000100000000000000000839KGM  00000001119KGM  7289-6868-30             SEALED ASSY FEMALE       7289686830               0         0         0         0    0    0    00000252000000252000000332000008366400
AE00TI102209260126/09/202200000001200000000000000013100KGM  00000015545KGM  7298-2278-30             HOUSING FEMALE ASS'Y     7298227830               0         0         0         0    0    0    00002880000000240000000227000065376000
AE00TI102209260126/09/202200000000200000000000000001963KGM  00000002580KGM  7298-5993-30             SEALED ASSY FEMALE       7298599330               0         0         0         0    0    0    00000436800000218400000266000011618880
AE00TI102209260126/09/202200000005200000000000000059327KGM  00000070507KGM  7327-6840-3W             BATTERY FUSE             732768403W               0         0         0         0    0    0    00000374400000007200009909000370992960
AE00TI102209260126/09/202200000010600000000000000078652KGM  00000118932KGM  7388-2978-30             HOUSING MALE ASS'Y       7388297830               0         0         0         0    0    0    00005088000000048000001790000910752000
AE00TI102209260126/09/202200000000500000000000000006600KGM  00000007850KGM  7470-4797                J/B COMPLETE ASS'Y       74704797                 0         0         0         0    0    0    00000012000000002400031662000037994400
AE00TI102209260126/09/202200000001300000000000000017160KGM  00000020410KGM  7470-5237                J/B ASS'Y                74705237                 0         0         0         0    0    0    00000031200000002400031359000097840080
