BI00B32H8    2211AIMW       2022101218007703718              AVSS 0.3F G/O            CCN000002000000002000FN00000000020221101000002000NNE   20220926091535    1W    00000200000000496000000000032H8    TYTYC   000000000000LG429001
BI00B32H8    2211AIMW       20221012180077039G1              AVSS 0.5F Y/V            CCN000001500000001500FN00000000020221101000001500NNE   20220926091535    1W    00000150000000674000000000032H8    TYTYC   000000000000LG429004
BI00B32H8    2211AIMW       20221012180077039G6              AVSS 0.5F P/L            CCN000001500000001500FN00000000020221101000001500NNE   20220926091535    1W    00000150000000674000000000032H8    TYTYC   000000000000LG429003
BI00B32H8    2211AIMW       2022101218007703910              AVSS 0.5F GY/R           CCN000001500000001500FN00000000020221101000001500NNE   20220926091535    1W    00000150000000674000000000032H8    TYTYC   000000000000LG429002
BI00B32H8    2211B MW       2022101218007703930              AVSS 0.5F B              CCN000003000000003000FN00000000020221101000003000NNE   20220926091537    1W    00000150000000674000000000032H8    TYTYC   000000000000LH429001
BI00B32H8    2211B MW       2022101218007703935              AVSS 0.5F B/R            CCN000001500000001500FN00000000020221101000001500NNE   20220926091537    1W    00000150000000674000000000032H8    TYTYC   000000000000LH429002
BI00B32H8    2211B MW       2022101218007703943              AVSS 0.5F W/B            CCN000001500000001500FN00000000020221101000001500NNE   20220926091537    1W    00000150000000674000000000032H8    TYTYC   000000000000LH429004
BI00B32H8    2211B MW       2022101218007703960              AVSS 0.5F G              CCN000001500000001500FN00000000020221101000001500NNE   20220926091537    1W    00000150000000674000000000032H8    TYTYC   000000000000LH429003
BI00B32H8    2211B MW       2022101218007703973              AVSS 0.5F Y/B            CCN000001500000001500FN00000000020221101000001500NNE   20220926091537    1W    00000150000000674000000000032H8    TYTYC   000000000000LH429005
BI00B32H8    2211B MW       2022101218007703975              AVSS 0.5F Y/R            CCN000004500000004500FN00000000020221101000004500NNE   20220926091537    1W    00000150000000674000000000032H8    TYTYC   000000000000LH429006
BI00B32H8    2211B MW       2022101218007704060              AVSS 0.75F G             CCN000001000000001000FN00000000020221101000001000NNE   20220926091537    1W    00000100000000943000000000032H8    TYTYC   000000000000LH429007
BI00B32M8    @PM2210F MW    20221019181B32039Y8              AVSSCS 0.5FX1 DGY/R      CCN000000400000000400FN00000000020221001000000400NNE   20220926115409    1W    00000040000002289000000000032M8    PMPEMI  000000000000IF12A001
BI00B32Q8    @EW2211ADMW    20221019181AD2019ZZ              CIVUSAS-S 0.22X5 B       CCN000001200000001200FN00000000020221101000001200NNE   20220926115447    1W    00000030000002487500000000032Q8    EMEMI   000000000000MA12A001
BI00B32Q8    EW2211ETMW     20221012180D0204143              AVSSH 1.25F W/B          CCN000026400000026400FN00000000020221101000026400NNE   20220926115448    1W    00000080000001458000000000032Q8    EMEMI   000000000000MQ429001
BI00B32Q8    EW2211FTMW     20221019180D0204143              AVSSH 1.25F W/B          CCN000026400000026400FN00000000020221101000026400NNE   20220926115449    1W    00000080000001458000000000032Q8    EMEMI   000000000000MB12A001
BI00B32Q8    EW2211K MW     20221012180D0203743              AVSSH 0.3F W/B           CCN000010000000010000FN00000000020221101000010000NNE   20220926115450    1W    00000200000000515000000000032Q8    EMEMI   000000000000MZ429001
BI00B32Q8    EW2212A MW     20221026180D0204180              AVSSH 1.25F BR           CCN000005600000005600FN00000000020221201000005600NNE   20220926115456    1W    00000080000001458000000000032Q8    EMEMI   000000000000ME22A002
BI00B32Q8    EW2212A MW     202210261801R704141              CIVUS 1.25 GY            CCN000005000000005000FN00000000020221201000005000NNE   20220926115456    1W    00000100000001228000000000032Q8    EMEMI   000000000000ME22A003
BI00B32Q8    @EW2212A MW    20221026181E48013ZZ              CAVSAS-S 0.3X3 GY        CCN000001000000001000FN00000000020221201000001000NNE   20220926115451    1W    00000025000002778200000000032Q8    EMEMI   000000000000ME22A001
BI00B32Q8    @EW2212ADMW    20221026181B32116Y9              AVSSCS 0.3FX2 DGY/P      CCN000007000000007000FN00000000020221201000007000NNE   20220926115451    1W    00000035000002276000000000032Q8    EMEMI   000000000000MF22A002
BI00B32Q8    @EW2212ADMW    20221026181AD2019ZZ              CIVUSAS-S 0.22X5 B       CCN000005100000005100FN00000000020221201000005100NNE   20220926115451    1W    00000030000002487500000000032Q8    EMEMI   000000000000MF22A001
BI00B32Q8    EW2212ATMW     202210261801W006930              IVSSH 0.35F B            CCN000135000000135000FN00000000020221201000135000NNE   20220926115457    1W    00000250000000452000000000032Q8    EMEMI   000000000000MG22A003
BI00B32Q8    EW2212ATMW     202210261801W003992              IVSSH 0.5F V             CCN000005400000005400FN00000000020221201000005400NNE   20220926115457    1W    00000180000000625000000000032Q8    EMEMI   000000000000MG22A001
BI00B32Q8    EW2212ATMW     202210261801W003943              IVSSH 0.5F W/B           CCN000054000000054000FN00000000020221201000054000NNE   20220926115457    1W    00000180000000625000000000032Q8    EMEMI   000000000000MG22A002
BI00B32Q8    EW2212B MW     20221102180D0204030              AVSSH 0.75F B            CCN000004000000004000FN00000000020221201000004000NNE   20220926115458    1W    00000100000000934000000000032Q8    EMEMI   000000000000MK32A001
BI00B32Q8    EW2212B MW     20221102180D0204180              AVSSH 1.25F BR           CCN000004800000004800FN00000000020221201000004800NNE   20220926115458    1W    00000080000001458000000000032Q8    EMEMI   000000000000MK32A002
BI00B32Q8    @EW2212BDMW    20221102181B32116Y9              AVSSCS 0.3FX2 DGY/P      CCN000007000000007000FN00000000020221201000007000NNE   20220926115452    1W    00000035000002276000000000032Q8    EMEMI   000000000000ML32A002
BI00B32Q8    @EW2212BDMW    20221102181AD2019ZZ              CIVUSAS-S 0.22X5 B       CCN000005700000005700FN00000000020221201000005700NNE   20220926115452    1W    00000030000002487500000000032Q8    EMEMI   000000000000ML32A001
BI00B32Q8    EW2212BTMW     202211021801W006990              IVSSH 0.35F L            CCN000150000000150000FN00000000020221201000150000NNE   20220926115459    1W    00000250000000452000000000032Q8    EMEMI   000000000000MO32A003
BI00B32Q8    EW2212BTMW     202211021801W006950              IVSSH 0.35F R            CCN000105000000105000FN00000000020221201000105000NNE   20220926115459    1W    00000250000000452000000000032Q8    EMEMI   000000000000MO32A004
BI00B32Q8    EW2212BTMW     202211021801W006940              IVSSH 0.35F W            CCN000117500000117500FN00000000020221201000117500NNE   20220926115459    1W    00000250000000452000000000032Q8    EMEMI   000000000000MO32A005
BI00B32Q8    EW2212BTMW     202211021801W003970              IVSSH 0.5F Y             CCN000059400000059400FN00000000020221201000059400NNE   20220926115459    1W    00000180000000625000000000032Q8    EMEMI   000000000000MO32A002
BI00B32Q8    @EW2212BTMW    20221102181E50028ZZ              AVSSCS-S 0.5FX3 DGY      CCN000002000000002000FN00000000020221201000002000NNE   20220926115453    1W    00000025000003265000000000032Q8    EMEMI   000000000000MO32A001
BI00B32Q8    EW2212C MW     2022110918007703741              AVSS 0.3F GY             CCN000012000000012000FN00000000020221201000012000NNE   20220926115500    1W    00000200000000496000000000032Q8    EMEMI   000000000000MR42A004
BI00B32Q8    EW2212C MW     2022110918007703750              AVSS 0.3F R              CCN000012000000012000FN00000000020221201000012000NNE   20220926115500    1W    00000200000000496000000000032Q8    EMEMI   000000000000MR42A005
BI00B32Q8    EW2212C MW     20221109180D0203992              AVSSH 0.5F V             CCN000007500000007500FN00000000020221201000007500NNE   20220926115500    1W    00000150000000689000000000032Q8    EMEMI   000000000000MR42A001
BI00B32Q8    EW2212C MW     20221109180D0203940              AVSSH 0.5F W             CCN000028500000028500FN00000000020221201000028500NNE   20220926115500    1W    00000150000000689000000000032Q8    EMEMI   000000000000MR42A002
BI00B32Q8    EW2212C MW     20221109180D0203943              AVSSH 0.5F W/B           CCN000016500000016500FN00000000020221201000016500NNE   20220926115500    1W    00000150000000689000000000032Q8    EMEMI   000000000000MR42A003
BI00B32Q8    @EW2212CDMW    20221109181B32116Y9              AVSSCS 0.3FX2 DGY/P      CCN000008400000008400FN00000000020221201000008400NNE   20220926115454    1W    00000035000002276000000000032Q8    EMEMI   000000000000MS42A002
BI00B32Q8    @EW2212CDMW    20221109181AD2019ZZ              CIVUSAS-S 0.22X5 B       CCN000006000000006000FN00000000020221201000006000NNE   20220926115454    1W    00000030000002487500000000032Q8    EMEMI   000000000000MS42A001
BI00B32Q8    EW2212CTMW     202211091801W006960              IVSSH 0.35F G            CCN000175000000175000FN00000000020221201000175000NNE   20220926115501    1W    00000250000000452000000000032Q8    EMEMI   000000000000MU42A003
BI00B32Q8    EW2212CTMW     202211091801W006950              IVSSH 0.35F R            CCN000105000000105000FN00000000020221201000105000NNE   20220926115501    1W    00000250000000452000000000032Q8    EMEMI   000000000000MU42A004
BI00B32Q8    EW2212CTMW     202211091801W006970              IVSSH 0.35F Y            CCN000045000000045000FN00000000020221201000045000NNE   20220926115501    1W    00000250000000452000000000032Q8    EMEMI   000000000000MU42A005
BI00B32Q8    EW2212CTMW     202211091801W003941              IVSSH 0.5F GY            CCN000018000000018000FN00000000020221201000018000NNE   20220926115501    1W    00000180000000625000000000032Q8    EMEMI   000000000000MU42A001
BI00B32Q8    EW2212CTMW     202211091801W003940              IVSSH 0.5F W             CCN000046800000046800FN00000000020221201000046800NNE   20220926115501    1W    00000180000000625000000000032Q8    EMEMI   000000000000MU42A002
BI00B32Q8    @EW2212DDMW    20221109181B32116Y9              AVSSCS 0.3FX2 DGY/P      CCN000003150000003150FN00000000020221201000003150NNE   20220926115455    1W    00000035000002276000000000032Q8    EMEMI   000000000000MV42A002
BI00B32Q8    @EW2212DDMW    20221109181AD2019ZZ              CIVUSAS-S 0.22X5 B       CCN000003300000003300FN00000000020221201000003300NNE   20220926115455    1W    00000030000002487500000000032Q8    EMEMI   000000000000MV42A001
BI00B32Q8    EW2212DTMW     202211091801W006980              IVSSH 0.35F BR           CCN000012500000012500FN00000000020221201000012500NNE   20220926115502    1W    00000250000000452000000000032Q8    EMEMI   000000000000MW42A004
BI00B32Q8    EW2212DTMW     202211091801W003930              IVSSH 0.5F B             CCN000102600000102600FN00000000020221201000102600NNE   20220926115502    1W    00000180000000625000000000032Q8    EMEMI   000000000000MW42A001
BI00B32Q8    EW2212DTMW     202211091801W00395U              IVSSH 0.5F BE            CCN000005400000005400FN00000000020221201000005400NNE   20220926115502    1W    00000180000000625000000000032Q8    EMEMI   000000000000MW42A002
BI00B32Q8    EW2212DTMW     202211091801W003980              IVSSH 0.5F BR            CCN000010800000010800FN00000000020221201000010800NNE   20220926115502    1W    00000180000000625000000000032Q8    EMEMI   000000000000MW42A003
BI00B32X5    TWB2049        202211041801W006980              IVSSH 0.35F BR           CCN000002500000002500FN00000000020230101000002500NNM   20220926084310X5  1W    00000250000000452000000000032X5    EPYNA-E 000000000000AE32A011
