AE00TI102209260326/09/202200000000500000000000000001653KGM  00000001930KGM  7158-3006-90             RUBBER STOPPER           7158300690               0         0         0         0    0    0    00010000000002000000000016000016000000
AE00TI102209260326/09/202200000000800000000000000002704KGM  00000003090KGM  7158-3009-60             RUBBER STOPPER           7158300960               0         0         0         0    0    0    00016000000002000000000012000019200000
AE00TI102209260326/09/202200000000900000000000000002484KGM  00000003000KGM  7158-3070-80             RUBBER STOPPER           7158307080               0         0         0         0    0    0    00036000000004000000000008000028800000
AE00TI102209260326/09/202200000001000000000000000001040KGM  00000001524KGM  7158-3166-60             WIRE SEAL                7158316660               0         0         0         0    0    0    00040000000004000000000004000016000000
AE00TI102209260326/09/202200000001600000000000000000768KGM  00000001744KGM  7158-3167-80             WIRE SEAL                7158316780               0         0         0         0    0    0    00032000000002000000000005000016000000
AE00TI102209260326/09/202200000000400000000000000000176KGM  00000000368KGM  7158-3168-80             SEALED                   7158316880               0         0         0         0    0    0    00008000000002000000000004000003200000
AE00TI102209260326/09/202200000000300000000000000000468KGM  00000000612KGM  7158-3169-40             SEALING PLUG             7158316940               0         0         0         0    0    0    00012000000004000000000006000007200000
AE00TI102209260326/09/202200000001000000000000000007621KGM  00000009803KGM  7171-6292                HOUSING                  71716292                 0         0         0         0    0    0    00000180000000018000001240000022320000
AE00TI102209260326/09/202200000000700000000000000003203KGM  00000003542KGM  7172-5402-30             SEAL RUBBER              7172540230               0         0         0         0    0    0    00005600000000800000000077000043120000
AE00TI102209260326/09/202200000000200000000000000000372KGM  00000000469KGM  7172-5540-80             SEALED WIRE SEAL         7172554080               0         0         0         0    0    0    00004000000002000000000010000004000000
AE00TI102209260326/09/202200000001400000000000000000000KGM  00000000000KGM  7273-2981-0WD            CASSETTE BRACKET         727329810WD              0         0         0         0    0    0    00000140000000010000000000000000000000
AE00TI102209260326/09/202200000000600000000000000000000KGM  00000000000KGM  7273-2981-0WE            CASSETTE BRACKET         727329810WE              0         0         0         0    0    0    00000048000000008000000000000000000000
AE00TI102209260326/09/202200000003400000000000000000000KGM  00000000000KGM  7273-2982-0WD            CASSETTE BRACKET         727329820WD              0         0         0         0    0    0    00000340000000010000000000000000000000
AE00TI102209260326/09/202200000001300000000000000000000KGM  00000000000KGM  7273-2982-0WE            CASSETTE BRACKET         727329820WE              0         0         0         0    0    0    00000195000000015000000000000000000000
AE00TI102209260326/09/202200000002400000000000000000000KGM  00000000000KGM  7273-2983-0WD            CASSETTE BRACKET         727329830WD              0         0         0         0    0    0    00000240000000010000000000000000000000
AE00TI102209260326/09/202200000002800000000000000032676KGM  00000038416KGM  7282-1248                HOUSING SUB ASSEMBLY     72821248                 0         0         0         0    0    0    00001680000000060000000490000082320000
AE00TI102209260326/09/202200000001300000000000000015171KGM  00000017836KGM  7282-1248-30             HOUSING SUB ASSEMBLY     7282124830               0         0         0         0    0    0    00000780000000060000000503000039234000
AE00TI102209260326/09/202200000000600000000000000004696KGM  00000005956KGM  7282-4578                HOUSING MALE ASS'Y       72824578                 0         0         0         0    0    0    00000720000000120000000255000018360000
AE00TI102209260326/09/202200000000100000000000000000230KGM  00000000339KGM  7282-5528-70             HOUSING MALE ASS'Y       7282552870               0         0         0         0    0    0    00000100000000100000000434000004340000
AE00TI102209260326/09/202200000000100000000000000001356KGM  00000001520KGM  7282-8120-30             CONNECTOR HOUSING        7282812030               0         0         0         0    0    0    00000300000000300000000000000000000000
AE00TI102209260326/09/202200000000200000000000000002712KGM  00000003040KGM  7282-8120-40             CONNECTOR HOUSING        7282812040               0         0         0         0    0    0    00000600000000300000000215000012900000
AE00TI102209260326/09/202200000000400000000000000005524KGM  00000006548KGM  7283-1288                CONNECTOR HOUSING        72831288                 0         0         0         0    0    0    00000480000000120000000781000037488000
AE00TI102209260326/09/202200000002400000000000000033144KGM  00000039288KGM  7283-1288-10             CONNECTOR HOUSING        7283128810               0         0         0         0    0    0    00002880000000120000000785000226080000
AE00TI102209260326/09/202200000000400000000000000001776KGM  00000002425KGM  7283-5845                CONNECTOR HOUSING        72835845                 0         0         0         0    0    0    00002400000000600000000133000031920000
AE00TI102209260326/09/202200000000100000000000000000444KGM  00000000606KGM  7283-5845-30             CONNECTOR HOUSING        7283584530               0         0         0         0    0    0    00000600000000600000000133000007980000
AE00TI102209260326/09/202200000000200000000000000001828KGM  00000002286KGM  7283-6120                CONNECTOR HOUSING        72836120                 0         0         0         0    0    0    00000300000000150000000368000011040000
AE00TI102209260326/09/202200000000300000000000000003078KGM  00000003600KGM  7283-7029-40             CONNECTOR                7283702940               0         0         0         0    0    0    00001800000000600000000231000041580000
AE00TI102209260326/09/202200000000100000000000000001200KGM  00000001410KGM  7283-7449-30             HOUSING FEMALE ASS'Y     7283744930               0         0         0         0    0    0    00000240000000240000000386000009264000
AE00TI102209260326/09/202200000000100000000000000000915KGM  00000001132KGM  7283-7476                CONNECTOR                72837476                 0         0         0         0    0    0    00000150000000150000000329000004935000
AE00TI102209260326/09/202200000000100000000000000000990KGM  00000001249KGM  7283-7526                CONNECTOR HOUSING        72837526                 0         0         0         0    0    0    00000196000000196000000503000009858800
AE00TI102209260326/09/202200000000700000000000000006929KGM  00000008740KGM  7283-7526-30             CONNECTOR HOUSING        7283752630               0         0         0         0    0    0    00001372000000196000000506000069423200
AE00TI102209260326/09/202200000000100000000000000000990KGM  00000001249KGM  7283-7526-40             CONNECTOR HOUSING        7283752640               0         0         0         0    0    0    00000196000000196000000504000009878400
AE00TI102209260326/09/202200000000100000000000000000350KGM  00000000463KGM  7283-8721-30             HOUSING FEMALE ASS'Y     7283872130               0         0         0         0    0    0    00000100000000100000000415000004150000
AE00TI102209260326/09/202200000000300000000000000002732KGM  00000003392KGM  7286-3885                CONNECTOR MALE ASS'Y     72863885                 0         0         0         0    0    0    00000360000000120000000295000010620000
AE00TI102209260326/09/202200000000300000000000000002732KGM  00000003392KGM  7286-3885-40             CONNECTOR MALE ASS'Y     7286388540               0         0         0         0    0    0    00000360000000120000000313000011268000
AE00TI102209260326/09/202200000000100000000000000000614KGM  00000000834KGM  7287-2705                HOUSING FEMALE ASS'Y     72872705                 0         0         0         0    0    0    00000960000000960000000148000014208000
AE00TI102209260326/09/202200000000200000000000000002059KGM  00000002499KGM  7287-3885                HYBRID FEMALE ASS'Y      72873885                 0         0         0         0    0    0    00000480000000240000000207000009936000
AE00TI102209260326/09/202200000000200000000000000002333KGM  00000002773KGM  7287-8073                HOUSING FEMALE ASS'Y     72878073                 0         0         0         0    0    0    00000480000000240000000244000011712000
AE00TI102209260326/09/202200000000400000000000000003415KGM  00000004181KGM  7287-9155                HOUSING FEMALE ASS'Y     72879155                 0         0         0         0    0    0    00000384000000096000000357000013708800
AE00TI102209260326/09/202200000001600000000000000008602KGM  00000011040KGM  7287-9323                UNSEALED HOUSING SUB     72879323                 0         0         0         0    0    0    00003840000000240000000146000056064000
AE00TI102209260326/09/202200000000300000000000000001613KGM  00000002070KGM  7287-9323-40             UNSEALED HOUSING SUB     7287932340               0         0         0         0    0    0    00000720000000240000000155000011160000
AE00TI102209260326/09/202200000000200000000000000000000KGM  00000000000KGM  7289-3342-30M            HOUSING FEMALE ASS'Y     7289334230M              0         0         0         0    0    0    00000204000000102000000188000003835200
AE00TI102209260326/09/202200000002000000000000000013728KGM  00000018028KGM  7289-3342-40             HOUSING FEMALE ASS'Y     7289334240               0         0         0         0    0    0    00004800000000240000000192000092160000
AE00TI102209260326/09/202200000000200000000000000001373KGM  00000001803KGM  7289-3342-90             HOUSING FEMALE ASS'Y     7289334290               0         0         0         0    0    0    00000480000000240000000196000009408000
AE00TI102209260326/09/202200000003000000000000000025641KGM  00000031941KGM  7289-5979-30             HOUSING FEMALE ASS'Y     7289597930               0         0         0         0    0    0    00000756000000025200001346000101757600
AE00TI102209260326/09/202200000005700000000000000065664KGM  00000077634KGM  7289-6547                HOUSING FEMALE ASS'Y     72896547                 0         0         0         0    0    0    00013680000000240000000229000313272000
AE00TI102209260326/09/202200000000200000000000000002324KGM  00000002569KGM  7386-2747                CONNECTOR ASS'Y          73862747                 0         0         0         0    0    0    00000400000000200000000413000016520000
