AE00TO202209260126/09/202200000025800000000000000270028KGM  00000282641KGM  18000004530              AV 8 B                   AV 8 B                   0         0         0         0    0    0    00000000000258000000000211100054463800
AE00TO202209260126/09/202200000004700000000000000049191KGM  00000051489KGM  18000004534              AV 8 B/W                 AV 8 B/W                 0         0         0         0    0    0    00000000000047000000000211100009921700
AE00TO202209260126/09/202200000010600000000000000110942KGM  00000116124KGM  18000004535              AV 8 B/R                 AV 8 B/R                 0         0         0         0    0    0    00000000000106000000000211100022376600
AE00TO202209260126/09/202200000010500000000000000109895KGM  00000115029KGM  18000004540              AV 8 W                   AV 8 W                   0         0         0         0    0    0    00000000000105000000000211100022165500
AE00TO202209260126/09/202200000022200000000000000232350KGM  00000243203KGM  18000004543              AV 8 W/B                 AV 8 W/B                 0         0         0         0    0    0    00000000000222000000000211100046864200
AE00TO202209260126/09/202200000000400000000000000004044KGM  00000004240KGM  18007703930              AVSS 05F B               AVSS 05F B               0         0         0         0    0    0    00000000000060000000000015600000936000
AE00TO202209260126/09/202200000000300000000000000003033KGM  00000003180KGM  18007703937              AVSS 05F B/Y             AVSS 05F B/Y             0         0         0         0    0    0    00000000000045000000000015600000702000
AE00TO202209260126/09/202200000000100000000000000001011KGM  00000001060KGM  18007703940              AVSS 05F W               AVSS 05F W               0         0         0         0    0    0    00000000000015000000000015600000234000
AE00TO202209260126/09/202200000000200000000000000002022KGM  00000002120KGM  18007703943              AVSS 05F W/B             AVSS 05F W/B             0         0         0         0    0    0    00000000000030000000000015600000468000
AE00TO202209260126/09/202200000000100000000000000001011KGM  00000001060KGM  18007703950              AVSS 05F R               AVSS 05F R               0         0         0         0    0    0    00000000000015000000000015600000234000
AE00TO202209260126/09/202200000000100000000000000001011KGM  00000001060KGM  18007703952              AVSS 05F P               AVSS 05F P               0         0         0         0    0    0    00000000000015000000000015600000234000
AE00TO202209260126/09/202200000000400000000000000004044KGM  00000004240KGM  18007703970              AVSS 05F Y               AVSS 05F Y               0         0         0         0    0    0    00000000000060000000000015600000936000
AE00TO202209260126/09/202200000000200000000000000002022KGM  00000002120KGM  18007703973              AVSS 05F Y/B             AVSS 05F Y/B             0         0         0         0    0    0    00000000000030000000000015600000468000
AE00TO202209260126/09/202200000000200000000000000002022KGM  00000002120KGM  18007703975              AVSS 05F Y/R             AVSS 05F Y/R             0         0         0         0    0    0    00000000000030000000000015600000468000
AE00TO202209260126/09/202200000000100000000000000001011KGM  00000001060KGM  18007703990              AVSS 05F L               AVSS 05F L               0         0         0         0    0    0    00000000000015000000000015600000234000
AE00TO202209260126/09/202200000000100000000000000000942KGM  00000000991KGM  18018403780              CAVS 03 BR               CAVS 03 BR               0         0         0         0    0    0    00000000000020000000000010300000206000
AE00TO202209260126/09/202200000000100000000000000000942KGM  00000000991KGM  18018403791              CAVS 03 SB               CAVS 03 SB               0         0         0         0    0    0    00000000000020000000000010300000206000
AE00TO202209260126/09/202200000000100000000000000000942KGM  00000000991KGM  180184037F7              CAVS 03 V/Y              CAVS 03 V/Y              0         0         0         0    0    0    00000000000020000000000010300000206000
AE00TO202209260126/09/202200000003300000000000000031845KGM  00000033458KGM  18018404040              CAVS 085 W               CAVS 085 W               0         0         0         0    0    0    00000000000330000000000022700007491000
AE00TO202209260126/09/202200000009200000000000000088780KGM  00000093278KGM  18018404041              CAVS 085 GY              CAVS 085 GY              0         0         0         0    0    0    00000000000920000000000022700020884000
AE00TO202209260126/09/202200000008500000000000000082025KGM  00000086181KGM  18018404070              CAVS 085 Y               CAVS 085 Y               0         0         0         0    0    0    00000000000850000000000022700019295000
AE00TO202209260126/09/202200000000200000000000000001930KGM  00000002028KGM  18018404075              CAVS 085 Y/R             CAVS 085 Y/R             0         0         0         0    0    0    00000000000020000000000022700000454000
AE00TO202209260126/09/202200000000200000000000000001930KGM  00000002028KGM  18018404080              CAVS 085 BR              CAVS 085 BR              0         0         0         0    0    0    00000000000020000000000022700000454000
AE00TO202209260126/09/202200000000200000000000000001930KGM  00000002028KGM  180184040G1              CAVS 085 Y/V             CAVS 085 Y/V             0         0         0         0    0    0    00000000000020000000000022700000454000
AE00TO202209260126/09/202200000005400000000000000066312KGM  00000068952KGM  1801R704130              CIVUS 125 B              CIVUS 125 B              0         0         0         0    0    0    00000000000540000000000031500017010000
AE00TO202209260126/09/202200000000200000000000000002456KGM  00000002554KGM  1801R704140              CIVUS 125 W              CIVUS 125 W              0         0         0         0    0    0    00000000000020000000000031500000630000
AE00TO202209260126/09/202200000003600000000000000044208KGM  00000045968KGM  1801R704150              CIVUS 125 R              CIVUS 125 R              0         0         0         0    0    0    00000000000360000000000031500011340000
AE00TO202209260126/09/202200000004500000000000000055260KGM  00000057460KGM  1801R704170              CIVUS 125 Y              CIVUS 125 Y              0         0         0         0    0    0    00000000000450000000000031500014175000
AE00TO202209260126/09/202200000004800000000000000054000KGM  00000056346KGM  1801W003940              IVSSH 05F W              IVSSH 05F W              0         0         0         0    0    0    00000000000864000000000015400013305600
AE00TO202209260126/09/202200000003100000000000000034875KGM  00000036391KGM  1801W003943              IVSSH 05F W/B            IVSSH 05F W/B            0         0         0         0    0    0    00000000000558000000000015400008593200
AE00TO202209260126/09/202200000001300000000000000014625KGM  00000015262KGM  1801W003970              IVSSH 05F Y              IVSSH 05F Y              0         0         0         0    0    0    00000000000234000000000015400003603600
AE00TO202209260126/09/202200000000100000000000000001125KGM  00000001174KGM  1801W003991              IVSSH 05F SB             IVSSH 05F SB             0         0         0         0    0    0    00000000000018000000000015400000277200
AE00TO202209260126/09/202200000000500000000000000005650KGM  00000005895KGM  1801W006940              IVSSH 035F W             IVSSH 035F W             0         0         0         0    0    0    00000000000125000000000011400001425000
AE00TO202209260126/09/202200000000100000000000000001030KGM  00000001079KGM  180D0203735              AVSSH 03F B/R            AVSSH 03F B/R            0         0         0         0    0    0    00000000000020000000000012200000244000
AE00TO202209260126/09/202200000000100000000000000001030KGM  00000001079KGM  180D0203739              AVSSH 03F B/L            AVSSH 03F B/L            0         0         0         0    0    0    00000000000020000000000012200000244000
AE00TO202209260126/09/202200000000100000000000000001030KGM  00000001079KGM  180D0203740              AVSSH 03F W              AVSSH 03F W              0         0         0         0    0    0    00000000000020000000000012200000244000
AE00TO202209260126/09/202200000000300000000000000003090KGM  00000003237KGM  180D0203741              AVSSH 03F GY             AVSSH 03F GY             0         0         0         0    0    0    00000000000060000000000012200000732000
AE00TO202209260126/09/202200000000200000000000000002060KGM  00000002158KGM  180D0203743              AVSSH 03F W/B            AVSSH 03F W/B            0         0         0         0    0    0    00000000000040000000000012200000488000
AE00TO202209260126/09/202200000000200000000000000002060KGM  00000002158KGM  180D0203750              AVSSH 03F R              AVSSH 03F R              0         0         0         0    0    0    00000000000040000000000012200000488000
AE00TO202209260126/09/202200000000200000000000000002060KGM  00000002158KGM  180D0203752              AVSSH 03F P              AVSSH 03F P              0         0         0         0    0    0    00000000000040000000000012200000488000
AE00TO202209260126/09/202200000001300000000000000013390KGM  00000014026KGM  180D0203761              AVSSH 03F LG             AVSSH 03F LG             0         0         0         0    0    0    00000000000260000000000012200003172000
AE00TO202209260126/09/202200000000200000000000000002060KGM  00000002158KGM  180D0203770              AVSSH 03F Y              AVSSH 03F Y              0         0         0         0    0    0    00000000000040000000000012200000488000
AE00TO202209260126/09/202200000000400000000000000004120KGM  00000004316KGM  180D0203780              AVSSH 03F BR             AVSSH 03F BR             0         0         0         0    0    0    00000000000080000000000012200000976000
AE00TO202209260126/09/202200000000400000000000000004120KGM  00000004316KGM  180D0203790              AVSSH 03F L              AVSSH 03F L              0         0         0         0    0    0    00000000000080000000000012200000976000
AE00TO202209260126/09/202200000000100000000000000001030KGM  00000001079KGM  180D0203792              AVSSH 03F V              AVSSH 03F V              0         0         0         0    0    0    00000000000020000000000012200000244000
AE00TO202209260126/09/202200000011600000000000000089454KGM  00000095126KGM  181AD2002ZZ              CIVUSAS-S 035X2 B        CIVUSAS-S 035X2 B        0         0         0         0    0    0    00000000000522000000000043700022811400
AE00TO202209260126/09/202200000004500000000000000037799KGM  00000039999KGM  181AD2004ZZ              CIVUSAS-S 035X4 B        CIVUSAS-S 035X4 B        0         0         0         0    0    0    00000000000135000000000066700009004500
AE00TO202209260126/09/202200000000400000000000000003214KGM  00000003410KGM  181AD2010ZZ              CIVUSAS-S 05X4 B         CIVUSAS-S 05X4 B         0         0         0         0    0    0    00000000000010000000000083700000837000
AE00TO202209260126/09/202200000001700000000000000013668KGM  00000014499KGM  181B0910241              CAVSAS 05X2 GY           CAVSAS 05X2 GY           0         0         0         0    0    0    00000000000051000000000061200003121200
AE00TO202209260126/09/202200000000100000000000000000871KGM  00000000920KGM  181B32102S1              AVSSCS 05FX2 DGY         AVSSCS 05FX2 DGY         0         0         0         0    0    0    00000000000003000000000075800000227400
AE00TO202209260126/09/202200000000100000000000000000871KGM  00000000920KGM  181B32102Y9              AVSSCS 05FX2 DGY/P       AVSSCS 05FX2 DGY/P       0         0         0         0    0    0    00000000000003000000000075800000227400
AE00TO202209260126/09/202200000000300000000000000002390KGM  00000002536KGM  181B32116Z5              AVSSCS 03FX2 DGY/L       AVSSCS 03FX2 DGY/L       0         0         0         0    0    0    00000000000010500000000060900000639450
AE00TO202209260126/09/202200000000100000000000000000705KGM  00000000754KGM  181CQ7003ZZ              IVSSHCS-S 05FX2 B(B,W)   IVSSHCS-S 05FX2 B(B,W)   0         0         0         0    0    0    00000000000003000000000072600000217800
AE00TO202209260126/09/202200000000100000000000000000705KGM  00000000754KGM  181CQ7004ZZ              IVSSHCS-S 05FX2 B(R,G)   IVSSHCS-S 05FX2 B(R,G)   0         0         0         0    0    0    00000000000003000000000072600000217800
AE00TO202209260126/09/202200000000200000000000000001536KGM  00000001634KGM  181E48022ZZ              CAVSAS-S 05X2 GY         CAVSAS-S 05X2 GY         0         0         0         0    0    0    00000000000006000000000056500000339000
AE00TO202209260126/09/202200000000300000000000000002305KGM  00000002451KGM  181E48060ZZ              CAVSAS-S 05X2 GY/V       CAVSAS-S 05X2 GY/V       0         0         0         0    0    0    00000000000009000000000056500000508500
AE00TO202209260126/09/202200000000600000000000000004547KGM  00000004840KGM  181E50002ZZ              AVSSCS-S 03FX2 DGY/G     AVSSCS-S 03FX2 DGY/G     0         0         0         0    0    0    00000000000021000000000059400001247400
AE00TO202209260126/09/202200000000400000000000000003031KGM  00000003227KGM  181E50020ZZ              AVSSCS-S 03FX2 DGY/R     AVSSCS-S 03FX2 DGY/R     0         0         0         0    0    0    00000000000014000000000059400000831600
AE00TO202209260126/09/202200000000200000000000000001516KGM  00000001613KGM  181E50021ZZ              AVSSCS-S 03FX2 DGY/P     AVSSCS-S 03FX2 DGY/P     0         0         0         0    0    0    00000000000007000000000059400000415800
AE00TO202209260126/09/202200000000400000000000000003265KGM  00000003461KGM  181E50027ZZ              AVSSCS-S 05FX3 DGY/G     AVSSCS-S 05FX3 DGY/G     0         0         0         0    0    0    00000000000010000000000091500000915000
AE00TO202209260126/09/202200000000100000000000000000816KGM  00000000865KGM  181E50028ZZ              AVSSCS-S 05FX3 DGY       AVSSCS-S 05FX3 DGY       0         0         0         0    0    0    00000000000002500000000091500000228750
AE00TO202209260126/09/202200000002500000000000000018944KGM  00000020166KGM  181E50036ZZ              AVSSCS-S 03FX2 DGY       AVSSCS-S 03FX2 DGY       0         0         0         0    0    0    00000000000087500000000059400005197500
