AE00TI102209260526/09/202200000000500000000000000003113KGM  00000003810KGM  7174-1849-70             COVER                    7174184970               0         0         0         0    0    0    00012500000002500000000046000057500000
AE00TI102209260526/09/202200000000500000000000000005140KGM  00000005585KGM  7183-8257-40             HOUSING                  7183825740               0         0         0         0    0    0    00000600000000120000000247000014820000
AE00TI102209260526/09/202200000000600000000000000004558KGM  00000006146KGM  7187-3356                JOINT CONNECTOR          71873356                 0         0         0         0    0    0    00000720000000120000001038000074736000
AE00TI102209260526/09/202200000003000000000000000022896KGM  00000030912KGM  7187-3359-60             JOINT CONNECTOR          7187335960               0         0         0         0    0    0    00003600000000120000001079000388440000
AE00TI102209260526/09/202200000000100000000000000000760KGM  00000001027KGM  7187-3360                JOINT CONNECTOR          71873360                 0         0         0         0    0    0    00000120000000120000001062000012744000
AE00TI102209260526/09/202200000000400000000000000003350KGM  00000004230KGM  7283-4578                HOUSING FEMALE ASS'Y     72834578                 0         0         0         0    0    0    00000960000000240000000190000018240000
AE00TI102209260526/09/202200000000300000000000000002667KGM  00000003396KGM  7283-5843                CONNECTOR                72835843                 0         0         0         0    0    0    00000450000000150000000280000012600000
AE00TI102209260526/09/202200000000600000000000000005464KGM  00000006784KGM  7286-3885                CONNECTOR MALE ASS'Y     72863885                 0         0         0         0    0    0    00000720000000120000000295000021240000
AE00TI102209260526/09/202200000000400000000000000003642KGM  00000004522KGM  7286-3885-40             CONNECTOR MALE ASS'Y     7286388540               0         0         0         0    0    0    00000480000000120000000313000015024000
AE00TI102209260526/09/202200000000100000000000000001030KGM  00000001250KGM  7287-3885                HYBRID FEMALE ASS'Y      72873885                 0         0         0         0    0    0    00000240000000240000000207000004968000
AE00TI102209260526/09/202200000000200000000000000002333KGM  00000002773KGM  7287-8073                HOUSING FEMALE ASS'Y     72878073                 0         0         0         0    0    0    00000480000000240000000244000011712000
AE00TI102209260526/09/202200000001600000000000000010982KGM  00000014422KGM  7289-3342                HOUSING FEMALE ASS'Y     72893342                 0         0         0         0    0    0    00003840000000240000000186000071424000
AE00TI102209260526/09/202200000001400000000000000009610KGM  00000012620KGM  7289-3342-90             HOUSING FEMALE ASS'Y     7289334290               0         0         0         0    0    0    00003360000000240000000196000065856000
AE00TI102209260526/09/202200000000400000000000000004608KGM  00000005448KGM  7289-6547                HOUSING FEMALE ASS'Y     72896547                 0         0         0         0    0    0    00000960000000240000000229000021984000
AE00TI102209260526/09/202200000000600000000000000006019KGM  00000007227KGM  7298-1865-30             HOUSING FEMALE ASS'Y     7298186530               0         0         0         0    0    0    00001440000000240000000196000028224000
AE00TI102209260526/09/202200000001600000000000000018254KGM  00000021694KGM  7327-6840-3W             BATTERY FUSE             732768403W               0         0         0         0    0    0    00000115200000007200009909000114151680
AE00TI102209260526/09/202200000001800000000000000013356KGM  00000020196KGM  7388-2978-30             HOUSING MALE ASS'Y       7388297830               0         0         0         0    0    0    00000864000000048000001790000154656000
AE00TI102209260526/09/202200000001800000000000000023760KGM  00000028260KGM  7470-5237                J/B ASS'Y                74705237                 0         0         0         0    0    0    00000043200000002400031359000135470880
AE00TI102209260526/09/202200000001500000000000000000000KGM  00000000000KGM  7470-5300E               J/B COMPLETE ASS'Y       74705300E                0         0         0         0    0    0    00000015000000001000000000000000000000
AE00TI102209260526/09/202200000002100000000000000000000KGM  00000000000KGM  7470-5308E               J/B COMPLETE ASS'Y       74705308E                0         0         0         0    0    0    00000021000000001000000000000000000000
AE00TI102209260526/09/202200000000500000000000000000000KGM  00000000000KGM  7470-5791D               J/B COMPLETE ASS'Y       74705791D                0         0         0         0    0    0    00000007500000001500000000000000000000
AE00TI102209260526/09/202200000003500000000000000000000KGM  00000000000KGM  7470-5791E               J/B COMPLETE ASS'Y       74705791E                0         0         0         0    0    0    00000035000000001000000000000000000000
AE00TI102209260526/09/202200000001000000000000000000000KGM  00000000000KGM  7470-5927D               J/B COMPLETE ASS'Y       74705927D                0         0         0         0    0    0    00000015000000001500000000000000000000
