AE00TI102209260426/09/202200000000100000000000000000105KGM  00000000183KGM  7157-7811-80             SEAL RUBBER              7157781180               0         0         0         0    0    0    00001000000001000000000055000005500000
AE00TI102209260426/09/202200000000700000000000000001750KGM  00000002142KGM  7158-3003-90             RUBBER STOPPER           7158300390               0         0         0         0    0    0    00014000000002000000000012000016800000
AE00TI102209260426/09/202200000001200000000000000003967KGM  00000004632KGM  7158-3006-90             RUBBER STOPPER           7158300690               0         0         0         0    0    0    00024000000002000000000016000038400000
AE00TI102209260426/09/202200000001900000000000000006422KGM  00000007338KGM  7158-3009-60             RUBBER STOPPER           7158300960               0         0         0         0    0    0    00038000000002000000000012000045600000
AE00TI102209260426/09/202200000000500000000000000001380KGM  00000001667KGM  7158-3070-80             RUBBER STOPPER           7158307080               0         0         0         0    0    0    00020000000004000000000008000016000000
AE00TI102209260426/09/202200000002300000000000000002392KGM  00000003505KGM  7158-3166-60             WIRE SEAL                7158316660               0         0         0         0    0    0    00092000000004000000000004000036800000
AE00TI102209260426/09/202200000001200000000000000000576KGM  00000001308KGM  7158-3167-80             WIRE SEAL                7158316780               0         0         0         0    0    0    00024000000002000000000005000012000000
AE00TI102209260426/09/202200000002800000000000000001232KGM  00000002579KGM  7158-3168-80             SEALED                   7158316880               0         0         0         0    0    0    00056000000002000000000004000022400000
AE00TI102209260426/09/202200000001100000000000000001716KGM  00000002245KGM  7158-3169-40             SEALING PLUG             7158316940               0         0         0         0    0    0    00044000000004000000000006000026400000
AE00TI102209260426/09/202200000001200000000000000005491KGM  00000006072KGM  7172-5402-30             SEAL RUBBER              7172540230               0         0         0         0    0    0    00009600000000800000000077000073920000
AE00TI102209260426/09/202200000001600000000000000002976KGM  00000003750KGM  7172-5540-80             SEALED WIRE SEAL         7172554080               0         0         0         0    0    0    00032000000002000000000010000032000000
AE00TI102209260426/09/202200000000300000000000000002824KGM  00000003547KGM  7173-6362                ELEMENT COVER            71736362                 0         0         0         0    0    0    00000543000000181000000494000026824200
AE00TI102209260426/09/202200000004000000000000000009592KGM  00000019592KGM  7271-1820-30             CASE SUB ASSY,ECU        7271182030               0         0         0         0    0    0    00000072000000001800009576000068947200
AE00TI102209260426/09/202200000000200000000000000001565KGM  00000001985KGM  7282-4578                HOUSING MALE ASS'Y       72824578                 0         0         0         0    0    0    00000240000000120000000255000006120000
AE00TI102209260426/09/202200000000400000000000000004253KGM  00000005133KGM  7282-4855                HOUSING MALE ASS'Y       72824855                 0         0         0         0    0    0    00000480000000120000000347000016656000
AE00TI102209260426/09/202200000000400000000000000003816KGM  00000004416KGM  7283-5830                CONNECTOR                72835830                 0         0         0         0    0    0    00002400000000600000000154000036960000
AE00TI102209260426/09/202200000000100000000000000000954KGM  00000001104KGM  7283-5830-30             CONNECTOR                7283583030               0         0         0         0    0    0    00000600000000600000000155000009300000
AE00TI102209260426/09/202200000000100000000000000000724KGM  00000000874KGM  7283-5832                CONNECTOR HOUSING        72835832                 0         0         0         0    0    0    00000240000000240000000206000004944000
AE00TI102209260426/09/202200000000200000000000000000888KGM  00000001213KGM  7283-5845                CONNECTOR HOUSING        72835845                 0         0         0         0    0    0    00001200000000600000000133000015960000
AE00TI102209260426/09/202200000000200000000000000001821KGM  00000002261KGM  7286-3885-40             CONNECTOR MALE ASS'Y     7286388540               0         0         0         0    0    0    00000240000000120000000313000007512000
AE00TI102209260426/09/202200000000500000000000000004887KGM  00000005820KGM  7286-3970                CONNECTOR HOUSING        72863970                 0         0         0         0    0    0    00000055000000011000002089000011489500
AE00TI102209260426/09/202200000000300000000000000003089KGM  00000003749KGM  7287-3885                HYBRID FEMALE ASS'Y      72873885                 0         0         0         0    0    0    00000720000000240000000207000014904000
AE00TI102209260426/09/202200000000400000000000000004118KGM  00000004998KGM  7287-3885-30             HYBRID FEMALE ASS'Y      7287388530               0         0         0         0    0    0    00000960000000240000000215000020640000
AE00TI102209260426/09/202200000000100000000000000001030KGM  00000001250KGM  7287-3885-40             HYBRID FEMALE ASS'Y      7287388540               0         0         0         0    0    0    00000240000000240000000216000005184000
AE00TI102209260426/09/202200000000300000000000000003665KGM  00000004325KGM  7287-8072                HOUSING FEMALE ASS'Y     72878072                 0         0         0         0    0    0    00000720000000240000000247000017784000
AE00TI102209260426/09/202200000000100000000000000001229KGM  00000001449KGM  7287-8999                HOUSING FEMALE ASS'Y     72878999                 0         0         0         0    0    0    00000480000000480000000163000007824000
AE00TI102209260426/09/202200000000500000000000000006144KGM  00000007244KGM  7287-8999-30             HOUSING FEMALE ASS'Y     7287899930               0         0         0         0    0    0    00002400000000480000000168000040320000
AE00TI102209260426/09/202200000000800000000000000009830KGM  00000011590KGM  7287-9000                HOUSING FEMALE ASS'Y     72879000                 0         0         0         0    0    0    00003840000000480000000162000062208000
AE00TI102209260426/09/202200000000700000000000000002713KGM  00000005513KGM  7288-3206                HOUSING MALE ASS'Y       72883206                 0         0         0         0    0    0    00000714000000102000000351000025061400
AE00TI102209260426/09/202200000002700000000000000023657KGM  00000029746KGM  7288-7969                HYBRID MALE ASS'Y        72887969                 0         0         0         0    0    0    00000864000000032000001019000088041600
AE00TI102209260426/09/202200000002400000000000000016474KGM  00000021634KGM  7289-3342                HOUSING FEMALE ASS'Y     72893342                 0         0         0         0    0    0    00005760000000240000000186000107136000
AE00TI102209260426/09/202200000007000000000000000048048KGM  00000063098KGM  7289-3342-30             HOUSING FEMALE ASS'Y     7289334230               0         0         0         0    0    0    00016800000000240000000191000320880000
AE00TI102209260426/09/202200000002400000000000000016474KGM  00000021634KGM  7289-3342-90             HOUSING FEMALE ASS'Y     7289334290               0         0         0         0    0    0    00005760000000240000000196000112896000
AE00TI102209260426/09/202200000000300000000000000003456KGM  00000004086KGM  7289-6547                HOUSING FEMALE ASS'Y     72896547                 0         0         0         0    0    0    00000720000000240000000229000016488000
AE00TI102209260426/09/202200000000100000000000000001279KGM  00000001594KGM  7289-7208-30             HOUSING FEMALE ASS'Y     7289720830               0         0         0         0    0    0    00000024000000024000004419000010605600
