AE00TI102209260626/09/202200000002900000000000000009587KGM  00000011194KGM  7158-3006-90             RUBBER STOPPER           7158300690               0         0         0         0    0    0    00058000000002000000000016000092800000
AE00TI102209260626/09/202200000001300000000000000004394KGM  00000005021KGM  7158-3009-60             RUBBER STOPPER           7158300960               0         0         0         0    0    0    00026000000002000000000012000031200000
AE00TI102209260626/09/202200000000800000000000000002208KGM  00000002666KGM  7158-3070-80             RUBBER STOPPER           7158307080               0         0         0         0    0    0    00032000000004000000000008000025600000
AE00TI102209260626/09/202200000000700000000000000000728KGM  00000001067KGM  7158-3166-60             WIRE SEAL                7158316660               0         0         0         0    0    0    00028000000004000000000004000011200000
AE00TI102209260626/09/202200000005300000000000000002544KGM  00000005777KGM  7158-3167-80             WIRE SEAL                7158316780               0         0         0         0    0    0    00106000000002000000000005000053000000
AE00TI102209260626/09/202200000001200000000000000000528KGM  00000001105KGM  7158-3168-80             SEALED                   7158316880               0         0         0         0    0    0    00024000000002000000000004000009600000
AE00TI102209260626/09/202200000000300000000000000000468KGM  00000000612KGM  7158-3169-40             SEALING PLUG             7158316940               0         0         0         0    0    0    00012000000004000000000006000007200000
AE00TI102209260626/09/202200000000400000000000000000744KGM  00000000938KGM  7172-5540-80             SEALED WIRE SEAL         7172554080               0         0         0         0    0    0    00008000000002000000000010000008000000
AE00TI102209260626/09/202200000008000000000000000019184KGM  00000039184KGM  7271-1820-30             CASE SUB ASSY,ECU        7271182030               0         0         0         0    0    0    00000144000000001800009576000137894400
AE00TI102209260626/09/202200000000200000000000000002183KGM  00000002591KGM  7298-2278-30             HOUSING FEMALE ASS'Y     7298227830               0         0         0         0    0    0    00000480000000240000000227000010896000
AE00TI102209260626/09/202200000000600000000000000006845KGM  00000008135KGM  7327-6840-3W             BATTERY FUSE             732768403W               0         0         0         0    0    0    00000043200000007200009909000042806880
AE00TI102209260626/09/202200000006400000000000000047488KGM  00000071808KGM  7388-2978-30             HOUSING MALE ASS'Y       7388297830               0         0         0         0    0    0    00003072000000048000001790000549888000
AE00TI102209260626/09/202200000001800000000000000023760KGM  00000028260KGM  7470-5237                J/B ASS'Y                74705237                 0         0         0         0    0    0    00000043200000002400031359000135470880
AE00TI102209260626/09/202200000001500000000000000000000KGM  00000000000KGM  7470-5782D               J/B COMPLETE ASS'Y       74705782D                0         0         0         0    0    0    00000022500000001500000000000000000000
AE00TI102209260626/09/202200000001400000000000000000000KGM  00000000000KGM  7470-5927D               J/B COMPLETE ASS'Y       74705927D                0         0         0         0    0    0    00000021000000001500000000000000000000
