AE00TO202209260226/09/202200000027200000000000000284681KGM  00000297979KGM  18000004530              AV 8 B                   AV 8 B                   0         0         0         0    0    0    00000000000272000000000211100057419200
AE00TO202209260226/09/202200000000100000000000000001047KGM  00000001096KGM  18000004534              AV 8 B/W                 AV 8 B/W                 0         0         0         0    0    0    00000000000001000000000211100000211100
AE00TO202209260226/09/202200000000400000000000000004186KGM  00000004382KGM  18000004535              AV 8 B/R                 AV 8 B/R                 0         0         0         0    0    0    00000000000004000000000211100000844400
AE00TO202209260226/09/202200000043500000000000000455280KGM  00000476546KGM  18000004540              AV 8 W                   AV 8 W                   0         0         0         0    0    0    00000000000435000000000211100091828500
AE00TO202209260226/09/202200000011100000000000000116175KGM  00000121601KGM  18000004543              AV 8 W/B                 AV 8 W/B                 0         0         0         0    0    0    00000000000111000000000211100023432100
AE00TO202209260226/09/202200000000100000000000000000992KGM  00000001041KGM  18007703759              AVSS 03F R/L             AVSS 03F R/L             0         0         0         0    0    0    00000000000020000000000011700000234000
AE00TO202209260226/09/202200000002900000000000000029319KGM  00000030737KGM  18007703930              AVSS 05F B               AVSS 05F B               0         0         0         0    0    0    00000000000435000000000015600006786000
AE00TO202209260226/09/202200000000200000000000000002022KGM  00000002120KGM  18007703950              AVSS 05F R               AVSS 05F R               0         0         0         0    0    0    00000000000030000000000015600000468000
AE00TO202209260226/09/202200000000700000000000000007077KGM  00000007419KGM  18007703952              AVSS 05F P               AVSS 05F P               0         0         0         0    0    0    00000000000105000000000015600001638000
AE00TO202209260226/09/202200000000100000000000000001011KGM  00000001060KGM  18007703970              AVSS 05F Y               AVSS 05F Y               0         0         0         0    0    0    00000000000015000000000015600000234000
AE00TO202209260226/09/202200000000200000000000000002022KGM  00000002120KGM  18007703991              AVSS 05F SB              AVSS 05F SB              0         0         0         0    0    0    00000000000030000000000015600000468000
AE00TO202209260226/09/202200000001500000000000000014130KGM  00000014863KGM  18018403780              CAVS 03 BR               CAVS 03 BR               0         0         0         0    0    0    00000000000300000000000010300003090000
AE00TO202209260226/09/202200000000100000000000000000942KGM  00000000991KGM  18018403791              CAVS 03 SB               CAVS 03 SB               0         0         0         0    0    0    00000000000020000000000010300000206000
AE00TO202209260226/09/202200000000700000000000000006594KGM  00000006936KGM  18018403792              CAVS 03 V                CAVS 03 V                0         0         0         0    0    0    00000000000140000000000010300001442000
AE00TO202209260226/09/202200000007000000000000000067550KGM  00000070973KGM  18018404040              CAVS 085 W               CAVS 085 W               0         0         0         0    0    0    00000000000700000000000022700015890000
AE00TO202209260226/09/202200000006000000000000000057900KGM  00000060834KGM  18018404041              CAVS 085 GY              CAVS 085 GY              0         0         0         0    0    0    00000000000600000000000022700013620000
AE00TO202209260226/09/202200000007600000000000000073340KGM  00000077055KGM  18018404050              CAVS 085 R               CAVS 085 R               0         0         0         0    0    0    00000000000760000000000022700017252000
AE00TO202209260226/09/202200000000200000000000000001930KGM  00000002028KGM  18018404070              CAVS 085 Y               CAVS 085 Y               0         0         0         0    0    0    00000000000020000000000022700000454000
AE00TO202209260226/09/202200000003900000000000000037635KGM  00000039542KGM  18018404091              CAVS 085 SB              CAVS 085 SB              0         0         0         0    0    0    00000000000390000000000022700008853000
AE00TO202209260226/09/202200000004500000000000000055260KGM  00000057460KGM  1801R704150              CIVUS 125 R              CIVUS 125 R              0         0         0         0    0    0    00000000000450000000000031500014175000
AE00TO202209260226/09/202200000001800000000000000022104KGM  00000022984KGM  1801R704160              CIVUS 125 G              CIVUS 125 G              0         0         0         0    0    0    00000000000180000000000031500005670000
AE00TO202209260226/09/202200000000500000000000000006140KGM  00000006384KGM  1801R704170              CIVUS 125 Y              CIVUS 125 Y              0         0         0         0    0    0    00000000000050000000000031500001575000
AE00TO202209260226/09/202200000000200000000000000002456KGM  00000002554KGM  1801R704180              CIVUS 125 BR             CIVUS 125 BR             0         0         0         0    0    0    00000000000020000000000031500000630000
AE00TO202209260226/09/202200000004700000000000000057716KGM  00000060014KGM  1801R704190              CIVUS 125 L              CIVUS 125 L              0         0         0         0    0    0    00000000000470000000000031500014805000
AE00TO202209260226/09/202200000002300000000000000028244KGM  00000029368KGM  1801R704192              CIVUS 125 V              CIVUS 125 V              0         0         0         0    0    0    00000000000230000000000031500007245000
AE00TO202209260226/09/202200000000100000000000000001158KGM  00000001207KGM  1801R706930              CIVUS 035 B              CIVUS 035 B              0         0         0         0    0    0    00000000000030000000000009600000288000
AE00TO202209260226/09/202200000000100000000000000001158KGM  00000001207KGM  1801R706940              CIVUS 035 W              CIVUS 035 W              0         0         0         0    0    0    00000000000030000000000009600000288000
AE00TO202209260226/09/202200000000200000000000000002316KGM  00000002414KGM  1801R706970              CIVUS 035 Y              CIVUS 035 Y              0         0         0         0    0    0    00000000000060000000000009600000576000
AE00TO202209260226/09/202200000000400000000000000004632KGM  00000004828KGM  1801R706990              CIVUS 035 L              CIVUS 035 L              0         0         0         0    0    0    00000000000120000000000009600001152000
AE00TO202209260226/09/202200000000700000000000000007875KGM  00000008218KGM  1801W003952              IVSSH 05F P              IVSSH 05F P              0         0         0         0    0    0    00000000000126000000000015400001940400
AE00TO202209260226/09/202200000003000000000000000033750KGM  00000035217KGM  1801W003960              IVSSH 05F G              IVSSH 05F G              0         0         0         0    0    0    00000000000540000000000015400008316000
AE00TO202209260226/09/202200000001700000000000000019125KGM  00000019957KGM  1801W003970              IVSSH 05F Y              IVSSH 05F Y              0         0         0         0    0    0    00000000000306000000000015400004712400
AE00TO202209260226/09/202200000000700000000000000007910KGM  00000008252KGM  1801W006940              IVSSH 035F W             IVSSH 035F W             0         0         0         0    0    0    00000000000175000000000011400001995000
AE00TO202209260226/09/202200000000100000000000000001130KGM  00000001179KGM  1801W006943              IVSSH 035F W/B           IVSSH 035F W/B           0         0         0         0    0    0    00000000000025000000000011400000285000
AE00TO202209260226/09/202200000000100000000000000001030KGM  00000001079KGM  180D0203730              AVSSH 03F B              AVSSH 03F B              0         0         0         0    0    0    00000000000020000000000012200000244000
AE00TO202209260226/09/202200000000100000000000000001030KGM  00000001079KGM  180D0203740              AVSSH 03F W              AVSSH 03F W              0         0         0         0    0    0    00000000000020000000000012200000244000
AE00TO202209260226/09/202200000000100000000000000000934KGM  00000000983KGM  180D0204030              AVSSH 075F B             AVSSH 075F B             0         0         0         0    0    0    00000000000010000000000023200000232000
AE00TO202209260226/09/202200000000100000000000000000934KGM  00000000983KGM  180D0204034              AVSSH 075F B/W           AVSSH 075F B/W           0         0         0         0    0    0    00000000000010000000000023200000232000
AE00TO202209260226/09/202200000000100000000000000000934KGM  00000000983KGM  180D0204040              AVSSH 075F W             AVSSH 075F W             0         0         0         0    0    0    00000000000010000000000023200000232000
AE00TO202209260226/09/202200000000400000000000000003736KGM  00000003932KGM  180D0204043              AVSSH 075F W/B           AVSSH 075F W/B           0         0         0         0    0    0    00000000000040000000000023200000928000
AE00TO202209260226/09/202200000000200000000000000001868KGM  00000001966KGM  180D0204080              AVSSH 075F BR            AVSSH 075F BR            0         0         0         0    0    0    00000000000020000000000023200000464000
AE00TO202209260226/09/202200000009700000000000000074803KGM  00000079545KGM  181AD2002ZZ              CIVUSAS-S 035X2 B        CIVUSAS-S 035X2 B        0         0         0         0    0    0    00000000000436500000000043700019075050
AE00TO202209260226/09/202200000001300000000000000011903KGM  00000012537KGM  181B32039S1              AVSSCS 05FX1 DGY         AVSSCS 05FX1 DGY         0         0         0         0    0    0    00000000000052000000000055900002906800
AE00TO202209260226/09/202200000001500000000000000013734KGM  00000014467KGM  181B32039Y6              AVSSCS 05FX1 DGY/G       AVSSCS 05FX1 DGY/G       0         0         0         0    0    0    00000000000060000000000055900003354000
AE00TO202209260226/09/202200000000900000000000000007839KGM  00000008279KGM  181B32102S1              AVSSCS 05FX2 DGY         AVSSCS 05FX2 DGY         0         0         0         0    0    0    00000000000027000000000075800002046600
AE00TO202209260226/09/202200000001800000000000000012691KGM  00000013571KGM  181CQ7003ZZ              IVSSHCS-S 05FX2 B(B,W)   IVSSHCS-S 05FX2 B(B,W)   0         0         0         0    0    0    00000000000054000000000072600003920400
AE00TO202209260226/09/202200000000500000000000000003525KGM  00000003770KGM  181CQ7004ZZ              IVSSHCS-S 05FX2 B(R,G)   IVSSHCS-S 05FX2 B(R,G)   0         0         0         0    0    0    00000000000015000000000072600001089000
AE00TO202209260226/09/202200000000900000000000000006914KGM  00000007355KGM  181E48018ZZ              CAVSAS-S 05X2 GY/SB      CAVSAS-S 05X2 GY/SB      0         0         0         0    0    0    00000000000027000000000056500001525500
AE00TO202209260226/09/202200000000400000000000000003073KGM  00000003269KGM  181E48022ZZ              CAVSAS-S 05X2 GY         CAVSAS-S 05X2 GY         0         0         0         0    0    0    00000000000012000000000056500000678000
AE00TO202209260226/09/202200000000900000000000000006915KGM  00000007354KGM  181E48027ZZ              CAVSAS-S 05X2 GY/P       CAVSAS-S 05X2 GY/P       0         0         0         0    0    0    00000000000027000000000056500001525500
AE00TO202209260226/09/202200000003700000000000000028427KGM  00000030236KGM  181E48060ZZ              CAVSAS-S 05X2 GY/V       CAVSAS-S 05X2 GY/V       0         0         0         0    0    0    00000000000111000000000056500006271500
AE00TO202209260226/09/202200000000300000000000000002305KGM  00000002451KGM  181E48062ZZ              CAVSAS-S 05X2 GY/BR      CAVSAS-S 05X2 GY/BR      0         0         0         0    0    0    00000000000009000000000056500000508500
