AE00TI102208240524/08/202200000000100000000000000000738KGM  00000000821KGM  REEL-A32                 ALUMINUM REEL            REELA32                  0         0         0         0    0    0    00000000300000000300000000000000000000
AE00TI102208240524/08/202200000001200000000000000009000KGM  00000009984KGM  REEL-A36                 ALUMINUM REEL            REELA36                  0         0         0         0    0    0    00000003600000000300000000000000000000
AE00TI102208240524/08/202200000000300000000000000002646KGM  00000002898KGM  REEL-B36                 ALUMINUM REEL            REELB36                  0         0         0         0    0    0    00000000900000000300000000000000000000
AE00TI102208240524/08/202200000003000000000000000002985KGM  00000007485KGM  7140-1977-30             UPPER COVER              7140197730               0         0         0         0    0    0    00000030000000001000002698000008094000
AE00TI102208240524/08/202200000000400000000000000003308KGM  00000004408KGM  7154-5712-30             CASSETTE R/B             7154571230               0         0         0         0    0    0    00000320000000080000000288000009216000
AE00TI102208240524/08/202200000000100000000000000000105KGM  00000000183KGM  7157-7811-80             SEAL RUBBER              7157781180               0         0         0         0    0    0    00001000000001000000000055000005500000
AE00TI102208240524/08/202200000000200000000000000000500KGM  00000000612KGM  7158-3003-90             RUBBER STOPPER           7158300390               0         0         0         0    0    0    00004000000002000000000012000004800000
AE00TI102208240524/08/202200000000100000000000000000478KGM  00000000760KGM  7183-2413                CONNECTOR HOUSING        71832413                 0         0         0         0    0    0    00000480000000480000000074000003552000
AE00TI102208240524/08/202200000000400000000000000001910KGM  00000003038KGM  7183-2413-30             CONNECTOR HOUSING        7183241330               0         0         0         0    0    0    00001920000000480000000076000014592000
AE00TI102208240524/08/202200000001800000000000000000000KGM  00000000000KGM  7273-2981-0WD            CASSETTE BRACKET         727329810WD              0         0         0         0    0    0    00000180000000010000000000000000000000
AE00TI102208240524/08/202200000001000000000000000000000KGM  00000000000KGM  7273-2981-0WE            CASSETTE BRACKET         727329810WE              0         0         0         0    0    0    00000080000000008000000000000000000000
AE00TI102208240524/08/202200000002100000000000000000000KGM  00000000000KGM  7273-2982-0WD            CASSETTE BRACKET         727329820WD              0         0         0         0    0    0    00000210000000010000000000000000000000
AE00TI102208240524/08/202200000000100000000000000000000KGM  00000000000KGM  7273-2982-0WE            CASSETTE BRACKET         727329820WE              0         0         0         0    0    0    00000015000000015000000000000000000000
AE00TI102208240524/08/202200000001700000000000000000000KGM  00000000000KGM  7273-2983-0WD            CASSETTE BRACKET         727329830WD              0         0         0         0    0    0    00000170000000010000000000000000000000
AE00TI102208240524/08/202200000000800000000000000006261KGM  00000007941KGM  7282-4578                HOUSING MALE ASS'Y       72824578                 0         0         0         0    0    0    00000960000000120000000255000024480000
AE00TI102208240524/08/202200000000200000000000000002126KGM  00000002566KGM  7282-4855                HOUSING MALE ASS'Y       72824855                 0         0         0         0    0    0    00000240000000120000000347000008328000
AE00TI102208240524/08/202200000000200000000000000001303KGM  00000001743KGM  7283-4576                HOUSING FEMALE ASS'Y     72834576                 0         0         0         0    0    0    00000960000000480000000128000012288000
AE00TI102208240524/08/202200000000500000000000000004188KGM  00000005288KGM  7283-4578                HOUSING FEMALE ASS'Y     72834578                 0         0         0         0    0    0    00001200000000240000000190000022800000
AE00TI102208240524/08/202200000000200000000000000001908KGM  00000002208KGM  7283-5830-30             CONNECTOR                7283583030               0         0         0         0    0    0    00001200000000600000000155000018600000
AE00TI102208240524/08/202200000001100000000000000009779KGM  00000012452KGM  7283-5843                CONNECTOR                72835843                 0         0         0         0    0    0    00001650000000150000000280000046200000
AE00TI102208240524/08/202200000000400000000000000001776KGM  00000002425KGM  7283-5845                CONNECTOR HOUSING        72835845                 0         0         0         0    0    0    00002400000000600000000133000031920000
AE00TI102208240524/08/202200000000100000000000000000444KGM  00000000606KGM  7283-5845-30             CONNECTOR HOUSING        7283584530               0         0         0         0    0    0    00000600000000600000000133000007980000
AE00TI102208240524/08/202200000000100000000000000000624KGM  00000000882KGM  7283-6039                CONNECTOR                72836039                 0         0         0         0    0    0    00000160000000160000000344000005504000
AE00TI102208240524/08/202200000000300000000000000002742KGM  00000003429KGM  7283-6120                CONNECTOR HOUSING        72836120                 0         0         0         0    0    0    00000450000000150000000368000016560000
AE00TI102208240524/08/202200000000200000000000000001934KGM  00000002336KGM  7286-1917                CONNECTOR MALE ASS'Y     72861917                 0         0         0         0    0    0    00000240000000120000000517000012408000
AE00TI102208240524/08/202200000000600000000000000005464KGM  00000006784KGM  7286-3885                CONNECTOR MALE ASS'Y     72863885                 0         0         0         0    0    0    00000720000000120000000295000021240000
AE00TI102208240524/08/202200000000600000000000000005464KGM  00000006784KGM  7286-3885-40             CONNECTOR MALE ASS'Y     7286388540               0         0         0         0    0    0    00000720000000120000000313000022536000
AE00TI102208240524/08/202200000001100000000000000011326KGM  00000013746KGM  7287-3885                HYBRID FEMALE ASS'Y      72873885                 0         0         0         0    0    0    00002640000000240000000207000054648000
AE00TI102208240524/08/202200000000100000000000000001030KGM  00000001250KGM  7287-3885-30             HYBRID FEMALE ASS'Y      7287388530               0         0         0         0    0    0    00000240000000240000000215000005160000
AE00TI102208240524/08/202200000000400000000000000004118KGM  00000004998KGM  7287-3885-40             HYBRID FEMALE ASS'Y      7287388540               0         0         0         0    0    0    00000960000000240000000216000020736000
AE00TI102208240524/08/202200000000600000000000000006998KGM  00000008318KGM  7287-8073                HOUSING FEMALE ASS'Y     72878073                 0         0         0         0    0    0    00001440000000240000000244000035136000
AE00TI102208240524/08/202200000002000000000000000007752KGM  00000015752KGM  7288-3206                HOUSING MALE ASS'Y       72883206                 0         0         0         0    0    0    00002040000000102000000351000071604000
AE00TI102208240524/08/202200000004000000000000000027456KGM  00000036056KGM  7289-3342                HOUSING FEMALE ASS'Y     72893342                 0         0         0         0    0    0    00009600000000240000000186000178560000
AE00TI102208240524/08/202200000003500000000000000024024KGM  00000031549KGM  7289-3342-30             HOUSING FEMALE ASS'Y     7289334230               0         0         0         0    0    0    00008400000000240000000191000160440000
AE00TI102208240524/08/202200000002800000000000000019219KGM  00000025239KGM  7289-3342-40             HOUSING FEMALE ASS'Y     7289334240               0         0         0         0    0    0    00006720000000240000000192000129024000
AE00TI102208240524/08/202200000002500000000000000017160KGM  00000022535KGM  7289-3342-90             HOUSING FEMALE ASS'Y     7289334290               0         0         0         0    0    0    00006000000000240000000196000117600000
AE00TI102208240524/08/202200000002300000000000000026496KGM  00000031326KGM  7289-6547                HOUSING FEMALE ASS'Y     72896547                 0         0         0         0    0    0    00005520000000240000000229000126408000
