AE00TI102208240124/08/202200000000100000000000000000839KGM  00000001119KGM  7C89-6868-30             SEALED ASSY FEMALE       7C89686830               0         0         0         0    0    0    00000252000000252000000335000008442000
AE00TI102208240124/08/202200000000100000000000000000894KGM  00000001185KGM  7287-9234                JOINT CONNECTOR          72879234                 0         0         0         0    0    0    00000960000000960000000137000013152000
AE00TI102208240124/08/202200000000800000000000000006930KGM  00000008090KGM  7288-3330-30             HOUSING MALE             7288333030               0         0         0         0    0    0    00001200000000150000000354000042480000
AE00TI102208240124/08/202200000000900000000000000007794KGM  00000009098KGM  7288-3331-30             HOUSING MALE             7288333130               0         0         0         0    0    0    00001350000000150000000354000047790000
AE00TI102208240124/08/202200000000200000000000000001721KGM  00000002011KGM  7288-3332-30             HOUSING MALE             7288333230               0         0         0         0    0    0    00000300000000150000000354000010620000
AE00TI102208240124/08/202200000000100000000000000000867KGM  00000001012KGM  7288-3336-30             HOUSING MALE             7288333630               0         0         0         0    0    0    00000150000000150000000354000005310000
AE00TI102208240124/08/202200000000400000000000000002746KGM  00000003606KGM  7289-3342                HOUSING FEMALE ASS'Y     72893342                 0         0         0         0    0    0    00000960000000240000000186000017856000
AE00TI102208240124/08/202200000001500000000000000010296KGM  00000013521KGM  7289-3342-30             HOUSING FEMALE ASS'Y     7289334230               0         0         0         0    0    0    00003600000000240000000191000068760000
AE00TI102208240124/08/202200000000700000000000000008202KGM  00000009580KGM  7289-5011-30             HOUSING FEMALE ASS'Y     7289501130               0         0         0         0    0    0    00001680000000240000000333000055944000
AE00TI102208240124/08/202200000000500000000000000004146KGM  00000005246KGM  7289-6518-30             HOUSING FEMALE ASS'Y     7289651830               0         0         0         0    0    0    00000600000000120000000598000035880000
AE00TI102208240124/08/202200000000300000000000000002945KGM  00000003870KGM  7298-5993-30             SEALED ASSY FEMALE       7298599330               0         0         0         0    0    0    00000655200000218400000266000017428320
AE00TI102208240124/08/202200000000800000000000000009127KGM  00000010847KGM  7327-6840-3W             BATTERY FUSE             732768403W               0         0         0         0    0    0    00000057600000007200009909000057075840
AE00TI102208240124/08/202200000000300000000000000002985KGM  00000003375KGM  7388-0313-30             CONNECTOR ASS'Y          7388031330               0         0         0         0    0    0    00000360000000120000000376000013536000
AE00TI102208240124/08/202200000001200000000000000008904KGM  00000013464KGM  7388-2978-30             HOUSING MALE ASS'Y       7388297830               0         0         0         0    0    0    00000576000000048000001790000103104000
AE00TI102208240124/08/202200000003600000000000000047520KGM  00000056520KGM  7470-4481                J/B COMPLETE ASS'Y       74704481                 0         0         0         0    0    0    00000086400000002400000000000000000000
AE00TI102208240124/08/202200000001000000000000000000000KGM  00000000000KGM  7470-4815D               J/B COMPLETE ASS'Y       74704815D                0         0         0         0    0    0    00000015000000001500000000000000000000
AE00TI102208240124/08/202200000000500000000000000000000KGM  00000000000KGM  7470-4816D               J/B COMPLETE ASS'Y       74704816D                0         0         0         0    0    0    00000007500000001500000000000000000000
AE00TI102208240124/08/202200000003000000000000000000000KGM  00000000000KGM  7470-5308E               J/B COMPLETE ASS'Y       74705308E                0         0         0         0    0    0    00000030000000001000000000000000000000
AE00TI102208240124/08/202200000003000000000000000000000KGM  00000000000KGM  7470-5791D               J/B COMPLETE ASS'Y       74705791D                0         0         0         0    0    0    00000045000000001500000000000000000000
AE00TI102208240124/08/202200000002000000000000000000000KGM  00000000000KGM  7470-5823D               J/B COMPLETE ASS'Y       74705823D                0         0         0         0    0    0    00000030000000001500000000000000000000
AE00TI102208240124/08/202200000001000000000000000000000KGM  00000000000KGM  7470-5927D               J/B COMPLETE ASS'Y       74705927D                0         0         0         0    0    0    00000015000000001500000000000000000000
