AE00TI102208240624/08/202200000000400000000000000003357KGM  00000004477KGM  7C89-6868-30             SEALED ASSY FEMALE       7C89686830               0         0         0         0    0    0    00001008000000252000000335000033768000
AE00TI102208240624/08/202200000001200000000000000010508KGM  00000014032KGM  7114-4020                TERMINAL                 71144020                 0         0         0         0    0    0    00025200000002100000000023000057960000
AE00TI102208240624/08/202200000001600000000000000008870KGM  00000013568KGM  7114-4231-02             TERMINAL                 7114423102               0         0         0         0    0    0    00028800000001800000000025000072000000
AE00TI102208240624/08/202200000002400000000000000023580KGM  00000027502KGM  7116-2891-02             TERMINAL                 7116289102               0         0         0         0    0    0    00036000000001500000000052000187200000
AE00TI102208240624/08/202200000001600000000000000007344KGM  00000011907KGM  7116-3153-02             TERMINAL FEMALE          7116315302               0         0         0         0    0    0    00043200000002700000000015000064800000
AE00TI102208240624/08/202200000001400000000000000006577KGM  00000010570KGM  7116-3154-02             TERMINAL FEMALE          7116315402               0         0         0         0    0    0    00037800000002700000000015000056700000
AE00TI102208240624/08/202200000000400000000000000002052KGM  00000003193KGM  7116-4020                TERMINAL                 71164020                 0         0         0         0    0    0    00005400000001350000000028000015120000
AE00TI102208240624/08/202200000001800000000000000009958KGM  00000015145KGM  7116-4102-02             TERMINAL                 7116410202               0         0         0         0    0    0    00021600000001200000000037000079920000
AE00TI102208240624/08/202200000001000000000000000005835KGM  00000008687KGM  7116-5041-02             TERMINAL                 7116504102               0         0         0         0    0    0    00015000000001500000000027000040500000
AE00TI102208240624/08/202200000000200000000000000000758KGM  00000001329KGM  7116-5751-02             TERMINAL                 7116575102               0         0         0         0    0    0    00002400000001200000000025000006000000
AE00TI102208240624/08/202200000001600000000000000011456KGM  00000016154KGM  7116-6041                TERMINAL                 71166041                 0         0         0         0    0    0    00007200000000450000000128000092160000
AE00TI102208240624/08/202200000001000000000000000005625KGM  00000008477KGM  7126-8853-02             TERMINAL                 7126885302               0         0         0         0    0    0    00007500000000750000000057000042750000
AE00TI102208240624/08/202200000000000000000000000000000KGM  00000000000KGM  7172-1613                FRONT HOLDER             71721613                 0         0         0         0    0    0    00000200000000720000000000000000000000
AE00TI102208240624/08/202200000000000000000000000000000KGM  00000000000KGM  7172-1634                FRONT HOLDER             71721634                 0         0         0         0    0    0    00000200000000720000000000000000000000
AE00TI102208240624/08/202200000001000000000000000005580KGM  00000008432KGM  7196-0805-02             TERMINAL FEMALE          7196080502               0         0         0         0    0    0    00022500000002250000000021000047250000
AE00TI102208240624/08/202200000001000000000000000004446KGM  00000007298KGM  7196-1460-02             TERMINAL FEMALE          7196146002               0         0         0         0    0    0    00028500000002850000000014000039900000
AE00TI102208240624/08/202200000000200000000000000001613KGM  00000001898KGM  7198-1865-30             HOUSING FEMALE           7198186530               0         0         0         0    0    0    00000500000000240000000000000000000000
AE00TI102208240624/08/202200000000100000000000000000809KGM  00000001029KGM  7282-4576                HOUSING MALE ASS'Y       72824576                 0         0         0         0    0    0    00000240000000240000000221000005304000
AE00TI102208240624/08/202200000000600000000000000005789KGM  00000007049KGM  7282-4577                HOUSING MALE ASS'Y       72824577                 0         0         0         0    0    0    00001440000000240000000229000032976000
AE00TI102208240624/08/202200000000800000000000000008141KGM  00000009901KGM  7282-9391                HOUSING MALE ASS'Y       72829391                 0         0         0         0    0    0    00000960000000120000000325000031200000
AE00TI102208240624/08/202200000000100000000000000000852KGM  00000001011KGM  7283-1222                CONNECTOR                72831222                 0         0         0         0    0    0    00000120000000120000000367000004404000
AE00TI102208240624/08/202200000000200000000000000001448KGM  00000001748KGM  7283-5832                CONNECTOR HOUSING        72835832                 0         0         0         0    0    0    00000480000000240000000206000009888000
AE00TI102208240624/08/202200000000100000000000000000724KGM  00000000874KGM  7283-5832-30             CONNECTOR HOUSING        7283583230               0         0         0         0    0    0    00000240000000240000000208000004992000
AE00TI102208240624/08/202200000001000000000000000008850KGM  00000011020KGM  7283-5846                HOUSING                  72835846                 0         0         0         0    0    0    00001500000000150000000241000036150000
AE00TI102208240624/08/202200000000100000000000000000977KGM  00000001164KGM  7286-3970                CONNECTOR HOUSING        72863970                 0         0         0         0    0    0    00000011000000011000002089000002297900
AE00TI102208240624/08/202200000000200000000000000001536KGM  00000001956KGM  7286-4097                CONNECTOR MALE ASS'Y     72864097                 0         0         0         0    0    0    00000320000000160000000196000006272000
AE00TI102208240624/08/202200000000300000000000000003665KGM  00000004325KGM  7287-8072                HOUSING FEMALE ASS'Y     72878072                 0         0         0         0    0    0    00000720000000240000000247000017784000
AE00TI102208240624/08/202200000000200000000000000002458KGM  00000002898KGM  7287-8999                HOUSING FEMALE ASS'Y     72878999                 0         0         0         0    0    0    00000960000000480000000163000015648000
AE00TI102208240624/08/202200000000200000000000000002458KGM  00000002898KGM  7287-9000                HOUSING FEMALE ASS'Y     72879000                 0         0         0         0    0    0    00000960000000480000000162000015552000
AE00TI102208240624/08/202200000000100000000000000000894KGM  00000001185KGM  7287-9234                JOINT CONNECTOR          72879234                 0         0         0         0    0    0    00000960000000960000000137000013152000
AE00TI102208240624/08/202200000000800000000000000006886KGM  00000008046KGM  7288-3332-30             HOUSING MALE             7288333230               0         0         0         0    0    0    00001200000000150000000354000042480000
AE00TI102208240624/08/202200000000400000000000000003468KGM  00000004048KGM  7288-3336-30             HOUSING MALE             7288333630               0         0         0         0    0    0    00000600000000150000000354000021240000
AE00TI102208240624/08/202200000000900000000000000006178KGM  00000008113KGM  7289-3342                HOUSING FEMALE ASS'Y     72893342                 0         0         0         0    0    0    00002160000000240000000186000040176000
AE00TI102208240624/08/202200000000100000000000000000829KGM  00000001049KGM  7289-6518-30             HOUSING FEMALE ASS'Y     7289651830               0         0         0         0    0    0    00000120000000120000000598000007176000
AE00TI102208240624/08/202200000000300000000000000004054KGM  00000004999KGM  7289-6524-30             HOUSING FEMALE ASS'Y     7289652430               0         0         0         0    0    0    00000072000000024000004757000034250400
AE00TI102208240624/08/202200000000600000000000000007619KGM  00000009262KGM  7289-9613-30             HOUSING FEMALE ASS'Y     7289961330               0         0         0         0    0    0    00000144000000024000004796000069062400
AE00TI102208240624/08/202200000000800000000000000007466KGM  00000009066KGM  7327-6769-3W             BATTERY FUSE             732767693W               0         0         0         0    0    0    00000076800000009600008902000068367360
AE00TI102208240624/08/202200000001300000000000000014832KGM  00000017627KGM  7327-6840-3W             BATTERY FUSE             732768403W               0         0         0         0    0    0    00000093600000007200009909000092748240
AE00TI102208240724/08/202200000000700000000000000003289KGM  00000005285KGM  7116-3154-02             TERMINAL FEMALE          7116315402               0         0         0         0    0    0    00018900000002700000000015000028350000
AE00TI102208240724/08/202200000000900000000000000004658KGM  00000007251KGM  7116-4116-02             TERMINAL                 7116411602               0         0         0         0    0    0    00006210000000690000000062000038502000
AE00TI102208240724/08/202200000003000000000000000002985KGM  00000007485KGM  7140-1977-30             UPPER COVER              7140197730               0         0         0         0    0    0    00000030000000001000002698000008094000
AE00TI102208240724/08/202200000000400000000000000004440KGM  00000005456KGM  7157-7915-80             REAR HOLDER              7157791580               0         0         0         0    0    0    00004000000001000000000124000049600000
AE00TI102208240724/08/202200000000200000000000000001245KGM  00000001524KGM  7174-1849-70             COVER                    7174184970               0         0         0         0    0    0    00005000000002500000000046000023000000
AE00TI102208240724/08/202200000000100000000000000000917KGM  00000001137KGM  7283-4577                CONNECTOR HOUSING        72834577                 0         0         0         0    0    0    00000480000000480000000172000008256000
AE00TI102208240724/08/202200000001500000000000000010296KGM  00000013521KGM  7289-3342-30             HOUSING FEMALE ASS'Y     7289334230               0         0         0         0    0    0    00003600000000240000000191000068760000
AE00TI102208240724/08/202200000000600000000000000007030KGM  00000008212KGM  7289-5011-30             HOUSING FEMALE ASS'Y     7289501130               0         0         0         0    0    0    00001440000000240000000333000047952000
AE00TI102208240724/08/202200000000700000000000000006871KGM  00000009030KGM  7298-5993-30             SEALED ASSY FEMALE       7298599330               0         0         0         0    0    0    00001528800000218400000266000040666080
AE00TI102208240724/08/202200000000300000000000000002985KGM  00000003375KGM  7388-0313-30             CONNECTOR ASS'Y          7388031330               0         0         0         0    0    0    00000360000000120000000376000013536000
AE00TI102208240724/08/202200000003400000000000000025228KGM  00000038148KGM  7388-2978-30             HOUSING MALE ASS'Y       7388297830               0         0         0         0    0    0    00001632000000048000001790000292128000
AE00TI102208240724/08/202200000003600000000000000047520KGM  00000056520KGM  7470-4481                J/B COMPLETE ASS'Y       74704481                 0         0         0         0    0    0    00000086400000002400000000000000000000
AE00TI102208240724/08/202200000002000000000000000000000KGM  00000000000KGM  7470-5300E               J/B COMPLETE ASS'Y       74705300E                0         0         0         0    0    0    00000020000000001000000000000000000000
AE00TI102208240724/08/202200000000600000000000000000000KGM  00000000000KGM  7470-5307E               J/B COMPLETE ASS'Y       74705307E                0         0         0         0    0    0    00000006000000001000000000000000000000
AE00TI102208240724/08/202200000001200000000000000000000KGM  00000000000KGM  7470-5784E               J/B COMPLETE ASS'Y       74705784E                0         0         0         0    0    0    00000012000000001000000000000000000000
AE00TI102208240724/08/202200000002000000000000000000000KGM  00000000000KGM  7470-5823E               J/B COMPLETE ASS'Y       74705823E                0         0         0         0    0    0    00000020000000001000000000000000000000
AE00TI102208240724/08/202200000003200000000000000000000KGM  00000000000KGM  7470-5858D               J/B COMPLETE ASS'Y       74705858D                0         0         0         0    0    0    00000032000000001000000000000000000000
