AE00TI102208240224/08/202200000000100000000000000000337KGM  00000000654KGM  7W40012-500              WIPPER CASE              7W40012500               0         0         0         0    0    0    00000009600000009600000210000000201600
AE00TI102208240224/08/202200000002100000000000000003889KGM  00000004906KGM  7137-3001-30             COVER PACKING            7137300130               0         0         0         0    0    0    00001050000000050000000340000035700000
AE00TI102208240224/08/202200000000600000000000000003252KGM  00000004328KGM  7147-3642-30             CLIP                     7147364230               0         0         0         0    0    0    00001800000000300000000074000013320000
AE00TI102208240224/08/202200000005100000000000000016861KGM  00000019686KGM  7158-3006-90             RUBBER STOPPER           7158300690               0         0         0         0    0    0    00102000000002000000000016000163200000
AE00TI102208240224/08/202200000002400000000000000008112KGM  00000009269KGM  7158-3009-60             RUBBER STOPPER           7158300960               0         0         0         0    0    0    00048000000002000000000012000057600000
AE00TI102208240224/08/202200000001800000000000000004968KGM  00000005999KGM  7158-3070-80             RUBBER STOPPER           7158307080               0         0         0         0    0    0    00072000000004000000000008000057600000
AE00TI102208240224/08/202200000002900000000000000003016KGM  00000004420KGM  7158-3166-60             WIRE SEAL                7158316660               0         0         0         0    0    0    00116000000004000000000004000046400000
AE00TI102208240224/08/202200000000000000000000000000000KGM  00000000000KGM  7158-3167-61             WIRE SEAL                7158316761               0         0         0         0    0    0    00001200000002000000000005000000600000
AE00TI102208240224/08/202200000004700000000000000002256KGM  00000005123KGM  7158-3167-80             WIRE SEAL                7158316780               0         0         0         0    0    0    00094000000002000000000005000047000000
AE00TI102208240224/08/202200000003200000000000000001408KGM  00000002947KGM  7158-3168-80             SEALED                   7158316880               0         0         0         0    0    0    00064000000002000000000004000025600000
AE00TI102208240224/08/202200000001500000000000000002340KGM  00000003062KGM  7158-3169-40             SEALING PLUG             7158316940               0         0         0         0    0    0    00060000000004000000000006000036000000
AE00TI102208240224/08/202200000001000000000000000007621KGM  00000009803KGM  7171-6292                HOUSING                  71716292                 0         0         0         0    0    0    00000180000000018000001240000022320000
AE00TI102208240224/08/202200000002000000000000000003720KGM  00000004688KGM  7172-5540-80             SEALED WIRE SEAL         7172554080               0         0         0         0    0    0    00040000000002000000000010000040000000
AE00TI102208240224/08/202200000000100000000000000001282KGM  00000001477KGM  7182-4941                DOUBLE SIDED             71824941                 0         0         0         0    0    0    00000100000000100000000816000008160000
AE00TI102208240224/08/202200000000200000000000000001559KGM  00000002123KGM  7183-2414-30             CONNECTOR HOUSING        7183241430               0         0         0         0    0    0    00000960000000480000000054000005184000
AE00TI102208240224/08/202200000000100000000000000000228KGM  00000000343KGM  7185-9322                RETAINER                 71859322                 0         0         0         0    0    0    00000050000000050000000416000002080000
AE00TI102208240224/08/202200000000200000000000000001158KGM  00000001372KGM  7189-9516-40             HOUSING                  7189951640               0         0         0         0    0    0    00000400000000200000000238000009520000
AE00TI102208240224/08/202200000000100000000000000000577KGM  00000000684KGM  7189-9517                HOUSING                  71899517                 0         0         0         0    0    0    00000200000000200000000228000004560000
AE00TI102208240224/08/202200000000300000000000000001751KGM  00000002072KGM  7189-9518-30             HOUSING                  7189951830               0         0         0         0    0    0    00000600000000200000000236000014160000
AE00TI102208240224/08/202200000000100000000000000001030KGM  00000001176KGM  7222-7484-40             CONNECTOR                7222748440               0         0         0         0    0    0    00000100000000100000000758000007580000
AE00TI102208240224/08/202200000001600000000000000015472KGM  00000017552KGM  7222-7564-40             CONNECTOR                7222756440               0         0         0         0    0    0    00000800000000050000001166000093280000
AE00TI102208240224/08/202200000012000000000000000028512KGM  00000058512KGM  7271-1818-30             CASE SUB ASSY,ECU        7271181830               0         0         0         0    0    0    00000216000000001800009388000202780800
AE00TI102208240224/08/202200000002000000000000000024700KGM  00000028460KGM  7282-5574-10             CONNECTOR                7282557410               0         0         0         0    0    0    00001600000000080000000727000116320000
AE00TI102208240224/08/202200000000300000000000000003372KGM  00000003638KGM  7282-7028-30             CONNECTOR                7282702830               0         0         0         0    0    0    00000600000000200000000248000014880000
AE00TI102208240224/08/202200000000200000000000000001755KGM  00000002156KGM  7283-1156                CONNECTOR                72831156                 0         0         0         0    0    0    00000160000000080000000810000012960000
AE00TI102208240224/08/202200000000500000000000000005700KGM  00000006592KGM  7283-1968-30             CONNECTOR                7283196830               0         0         0         0    0    0    00000450000000090000000687000030915000
AE00TI102208240224/08/202200000000300000000000000001545KGM  00000003201KGM  7283-9457-3W             CONNECTOR                728394573W               0         0         0         0    0    0    00000036000000012000002337000008413200
AE00TI102208240224/08/202200000000800000000000000006830KGM  00000008362KGM  7287-9155                HOUSING FEMALE ASS'Y     72879155                 0         0         0         0    0    0    00000768000000096000000357000027417600
AE00TI102208240224/08/202200000000100000000000000000894KGM  00000001185KGM  7287-9234                JOINT CONNECTOR          72879234                 0         0         0         0    0    0    00000960000000960000000137000013152000
AE00TI102208240224/08/202200000000500000000000000004331KGM  00000005056KGM  7288-3329-30             HOUSING MALE             7288332930               0         0         0         0    0    0    00000750000000150000000354000026550000
AE00TI102208240224/08/202200000000900000000000000007794KGM  00000009098KGM  7288-3331-30             HOUSING MALE             7288333130               0         0         0         0    0    0    00001350000000150000000354000047790000
AE00TI102208240224/08/202200000001200000000000000008237KGM  00000010817KGM  7289-3342                HOUSING FEMALE ASS'Y     72893342                 0         0         0         0    0    0    00002880000000240000000186000053568000
AE00TI102208240224/08/202200000000400000000000000002746KGM  00000003606KGM  7289-3342-30             HOUSING FEMALE ASS'Y     7289334230               0         0         0         0    0    0    00000960000000240000000191000018336000
AE00TI102208240224/08/202200000000500000000000000005859KGM  00000006843KGM  7289-5011-30             HOUSING FEMALE ASS'Y     7289501130               0         0         0         0    0    0    00001200000000240000000333000039960000
AE00TI102208240224/08/202200000000200000000000000002195KGM  00000002717KGM  7298-4094-10             HOUSING FEMALE ASS'Y     7298409410               0         0         0         0    0    0    00000676000000338000000241000016291600
AE00TI102208240224/08/202200000000200000000000000001990KGM  00000002250KGM  7388-0313-30             CONNECTOR ASS'Y          7388031330               0         0         0         0    0    0    00000240000000120000000376000009024000
