AE00TO202208240124/08/202200000000500000000000000005234KGM  00000005479KGM  18000004530              AV 8 B                   AV 8 B                   0         0         0         0    0    0    00000000000005000000000213300001066500
AE00TO202208240124/08/202200000000100000000000000001047KGM  00000001096KGM  18000004550              AV 8 R                   AV 8 R                   0         0         0         0    0    0    00000000000001000000000213300000213300
AE00TO202208240124/08/202200000002300000000000000022816KGM  00000023941KGM  18007703730              AVSS 03F B               AVSS 03F B               0         0         0         0    0    0    00000000000460000000000011800005428000
AE00TO202208240124/08/202200000001000000000000000009920KGM  00000010409KGM  18007703750              AVSS 03F R               AVSS 03F R               0         0         0         0    0    0    00000000000200000000000011800002360000
AE00TO202208240124/08/202200000000200000000000000001984KGM  00000002082KGM  18007703752              AVSS 03F P               AVSS 03F P               0         0         0         0    0    0    00000000000040000000000011800000472000
AE00TO202208240124/08/202200000000300000000000000002976KGM  00000003123KGM  18007703760              AVSS 03F G               AVSS 03F G               0         0         0         0    0    0    00000000000060000000000011800000708000
AE00TO202208240124/08/202200000000800000000000000007936KGM  00000008327KGM  18007703770              AVSS 03F Y               AVSS 03F Y               0         0         0         0    0    0    00000000000160000000000011800001888000
AE00TO202208240124/08/202200000000100000000000000000992KGM  00000001041KGM  18007703790              AVSS 03F L               AVSS 03F L               0         0         0         0    0    0    00000000000020000000000011800000236000
AE00TO202208240124/08/202200000002900000000000000028768KGM  00000030186KGM  18007703791              AVSS 03F SB              AVSS 03F SB              0         0         0         0    0    0    00000000000580000000000011800006844000
AE00TO202208240124/08/202200000000800000000000000007936KGM  00000008327KGM  18007703792              AVSS 03F V               AVSS 03F V               0         0         0         0    0    0    00000000000160000000000011800001888000
AE00TO202208240124/08/202200000000400000000000000003772KGM  00000003968KGM  18007704003              AVSS 075F B/O            AVSS 075F B/O            0         0         0         0    0    0    00000000000040000000000022500000900000
AE00TO202208240124/08/202200000000200000000000000001886KGM  00000001984KGM  18007704009              AVSS 075F LG/R           AVSS 075F LG/R           0         0         0         0    0    0    00000000000020000000000022500000450000
AE00TO202208240124/08/202200000002300000000000000021689KGM  00000022814KGM  18007704030              AVSS 075F B              AVSS 075F B              0         0         0         0    0    0    00000000000230000000000022500005175000
AE00TO202208240124/08/202200000000200000000000000001886KGM  00000001984KGM  18007704033              AVSS 075F V/W            AVSS 075F V/W            0         0         0         0    0    0    00000000000020000000000022500000450000
AE00TO202208240124/08/202200000000100000000000000000943KGM  00000000992KGM  18007704036              AVSS 075F B/G            AVSS 075F B/G            0         0         0         0    0    0    00000000000010000000000022500000225000
AE00TO202208240124/08/202200000000200000000000000001886KGM  00000001984KGM  18007704037              AVSS 075F B/Y            AVSS 075F B/Y            0         0         0         0    0    0    00000000000020000000000022500000450000
AE00TO202208240124/08/202200000000300000000000000002829KGM  00000002976KGM  18007704040              AVSS 075F W              AVSS 075F W              0         0         0         0    0    0    00000000000030000000000022500000675000
AE00TO202208240124/08/202200000000100000000000000000943KGM  00000000992KGM  18007704041              AVSS 075F GY             AVSS 075F GY             0         0         0         0    0    0    00000000000010000000000022500000225000
AE00TO202208240124/08/202200000000100000000000000000943KGM  00000000992KGM  18007704050              AVSS 075F R              AVSS 075F R              0         0         0         0    0    0    00000000000010000000000022500000225000
AE00TO202208240124/08/202200000000200000000000000001886KGM  00000001984KGM  18007704052              AVSS 075F P              AVSS 075F P              0         0         0         0    0    0    00000000000020000000000022500000450000
AE00TO202208240124/08/202200000000200000000000000002222KGM  00000002320KGM  18007704130              AVSS 125F B              AVSS 125F B              0         0         0         0    0    0    00000000000016000000000035000000560000
AE00TO202208240124/08/202200000000100000000000000001111KGM  00000001160KGM  18007704180              AVSS 125F BR             AVSS 125F BR             0         0         0         0    0    0    00000000000008000000000035000000280000
AE00TO202208240124/08/202200000000100000000000000001533KGM  00000001582KGM  18009604334              AVS 3 B/W                AVS 3 B/W                0         0         0         0    0    0    00000000000004000000000088400000353600
AE00TO202208240124/08/202200000000100000000000000001533KGM  00000001581KGM  18009604340              AVS 3 W                  AVS 3 W                  0         0         0         0    0    0    00000000000004000000000088400000353600
AE00TO202208240124/08/202200000004100000000000000041637KGM  00000043640KGM  18018403950              CAVS 05 R                CAVS 05 R                0         0         0         0    0    0    00000000000615000000000015200009348000
AE00TO202208240124/08/202200000000500000000000000005078KGM  00000005322KGM  18018403954              CAVS 05 R/W              CAVS 05 R/W              0         0         0         0    0    0    00000000000075000000000015200001140000
AE00TO202208240124/08/202200000000300000000000000003047KGM  00000003193KGM  18018403956              CAVS 05 R/G              CAVS 05 R/G              0         0         0         0    0    0    00000000000045000000000015200000684000
AE00TO202208240124/08/202200000000900000000000000009140KGM  00000009580KGM  18018403960              CAVS 05 G                CAVS 05 G                0         0         0         0    0    0    00000000000135000000000015200002052000
AE00TO202208240124/08/202200000001100000000000000011171KGM  00000011708KGM  18018403964              CAVS 05 G/W              CAVS 05 G/W              0         0         0         0    0    0    00000000000165000000000015200002508000
AE00TO202208240124/08/202200000001300000000000000013202KGM  00000013837KGM  18018403990              CAVS 05 L                CAVS 05 L                0         0         0         0    0    0    00000000000195000000000015200002964000
AE00TO202208240124/08/202200000000100000000000000001016KGM  00000001064KGM  18018403995              CAVS 05 L/R              CAVS 05 L/R              0         0         0         0    0    0    00000000000015000000000015200000228000
AE00TO202208240124/08/202200000000200000000000000002205KGM  00000002303KGM  18018404146              CAVS 125 W/G             CAVS 125 W/G             0         0         0         0    0    0    00000000000016000000000032700000523200
AE00TO202208240124/08/202200000000100000000000000001155KGM  00000001204KGM  1801R703960              CIVUS 05 G               CIVUS 05 G               0         0         0         0    0    0    00000000000022000000000013600000299200
AE00TO202208240124/08/202200000000100000000000000001155KGM  00000001204KGM  1801R703991              CIVUS 05 SB              CIVUS 05 SB              0         0         0         0    0    0    00000000000022000000000013600000299200
AE00TO202208240124/08/202200000000200000000000000002316KGM  00000002414KGM  1801R706940              CIVUS 035 W              CIVUS 035 W              0         0         0         0    0    0    00000000000060000000000009700000582000
AE00TO202208240124/08/202200000002000000000000000023160KGM  00000024137KGM  1801R706943              CIVUS 035 W/B            CIVUS 035 W/B            0         0         0         0    0    0    00000000000600000000000009700005820000
AE00TO202208240124/08/202200000000200000000000000002316KGM  00000002414KGM  1801R706970              CIVUS 035 Y              CIVUS 035 Y              0         0         0         0    0    0    00000000000060000000000009700000582000
AE00TO202208240124/08/202200000004200000000000000048636KGM  00000050689KGM  1801R706973              CIVUS 035 Y/B            CIVUS 035 Y/B            0         0         0         0    0    0    00000000001260000000000009700012222000
AE00TO202208240124/08/202200000000100000000000000001158KGM  00000001207KGM  1801R706992              CIVUS 035 V              CIVUS 035 V              0         0         0         0    0    0    00000000000030000000000009700000291000
AE00TO202208240124/08/202200000006100000000000000068625KGM  00000071608KGM  1801W003930              IVSSH 05F B              IVSSH 05F B              0         0         0         0    0    0    00000000001098000000000015600017128800
AE00TO202208240124/08/202200000007900000000000000088875KGM  00000092737KGM  1801W003940              IVSSH 05F W              IVSSH 05F W              0         0         0         0    0    0    00000000001422000000000015600022183200
AE00TO202208240124/08/202200000002500000000000000028125KGM  00000029348KGM  1801W003943              IVSSH 05F W/B            IVSSH 05F W/B            0         0         0         0    0    0    00000000000450000000000015600007020000
AE00TO202208240124/08/202200000000100000000000000001125KGM  00000001174KGM  1801W003952              IVSSH 05F P              IVSSH 05F P              0         0         0         0    0    0    00000000000018000000000015600000280800
AE00TO202208240124/08/202200000003500000000000000039375KGM  00000041086KGM  1801W003960              IVSSH 05F G              IVSSH 05F G              0         0         0         0    0    0    00000000000630000000000015600009828000
AE00TO202208240124/08/202200000002800000000000000031500KGM  00000032869KGM  1801W003970              IVSSH 05F Y              IVSSH 05F Y              0         0         0         0    0    0    00000000000504000000000015600007862400
AE00TO202208240124/08/202200000001100000000000000012375KGM  00000012913KGM  1801W003990              IVSSH 05F L              IVSSH 05F L              0         0         0         0    0    0    00000000000198000000000015600003088800
AE00TO202208240124/08/202200000000300000000000000003441KGM  00000003585KGM  1801W004040              IVSSH 075F W             IVSSH 075F W             0         0         0         0    0    0    00000000000039000000000021700000846300
AE00TO202208240124/08/202200000000200000000000000002294KGM  00000002390KGM  1801W004043              IVSSH 075F W/B           IVSSH 075F W/B           0         0         0         0    0    0    00000000000026000000000021700000564200
AE00TO202208240124/08/202200000004800000000000000055037KGM  00000057383KGM  1801W004050              IVSSH 075F R             IVSSH 075F R             0         0         0         0    0    0    00000000000624000000000021700013540800
AE00TO202208240124/08/202200000001100000000000000012613KGM  00000013150KGM  1801W004052              IVSSH 075F P             IVSSH 075F P             0         0         0         0    0    0    00000000000143000000000021700003103100
AE00TO202208240124/08/202200000001500000000000000017199KGM  00000017932KGM  1801W004090              IVSSH 075F L             IVSSH 075F L             0         0         0         0    0    0    00000000000195000000000021700004231500
AE00TO202208240124/08/202200000001800000000000000020639KGM  00000021519KGM  1801W004092              IVSSH 075F V             IVSSH 075F V             0         0         0         0    0    0    00000000000234000000000021700005077800
AE00TO202208240124/08/202200000000100000000000000001130KGM  00000001179KGM  1801W006930              IVSSH 035F B             IVSSH 035F B             0         0         0         0    0    0    00000000000025000000000011500000287500
AE00TO202208240124/08/202200000000200000000000000002260KGM  00000002358KGM  1801W006940              IVSSH 035F W             IVSSH 035F W             0         0         0         0    0    0    00000000000050000000000011500000575000
AE00TO202208240124/08/202200000000200000000000000002260KGM  00000002358KGM  1801W006970              IVSSH 035F Y             IVSSH 035F Y             0         0         0         0    0    0    00000000000050000000000011500000575000
AE00TO202208240124/08/202200000000100000000000000001130KGM  00000001179KGM  1801W006980              IVSSH 035F BR            IVSSH 035F BR            0         0         0         0    0    0    00000000000025000000000011500000287500
AE00TO202208240124/08/202200000004000000000000000045200KGM  00000047156KGM  1801W006990              IVSSH 035F L             IVSSH 035F L             0         0         0         0    0    0    00000000001000000000000011500011500000
AE00TO202208240124/08/202200000000200000000000000002068KGM  00000002164KGM  180D0203952              AVSSH 05F P              AVSSH 05F P              0         0         0         0    0    0    00000000000030000000000016500000495000
AE00TO202208240124/08/202200000000100000000000000001034KGM  00000001082KGM  180D0203970              AVSSH 05F Y              AVSSH 05F Y              0         0         0         0    0    0    00000000000015000000000016500000247500
AE00TO202208240124/08/202200000000100000000000000001034KGM  00000001082KGM  180D0203975              AVSSH 05F Y/R            AVSSH 05F Y/R            0         0         0         0    0    0    00000000000015000000000016500000247500
AE00TO202208240124/08/202200000000100000000000000001034KGM  00000001082KGM  180D0203990              AVSSH 05F L              AVSSH 05F L              0         0         0         0    0    0    00000000000015000000000016500000247500
AE00TO202208240124/08/202200000000100000000000000001034KGM  00000001082KGM  180D0203994              AVSSH 05F L/W            AVSSH 05F L/W            0         0         0         0    0    0    00000000000015000000000016500000247500
AE00TO202208240124/08/202200000000300000000000000002542KGM  00000002689KGM  181AD2001ZZ              CIVUSAS-S 035X1 B        CIVUSAS-S 035X1 B        0         0         0         0    0    0    00000000000016500000000034400000567600
AE00TO202208240124/08/202200000005800000000000000044727KGM  00000047562KGM  181AD2002ZZ              CIVUSAS-S 035X2 B        CIVUSAS-S 035X2 B        0         0         0         0    0    0    00000000000261000000000044000011484000
AE00TO202208240124/08/202200000007200000000000000054736KGM  00000058257KGM  181AD2003ZZ              CIVUSAS-S 035X3 B        CIVUSAS-S 035X3 B        0         0         0         0    0    0    00000000000252000000000055700014036400
AE00TO202208240124/08/202200000000400000000000000003380KGM  00000003575KGM  181AD2013ZZ              CIVUSAS-S 125X2 B        CIVUSAS-S 125X2 B        0         0         0         0    0    0    00000000000008800000000098400000865920
AE00TO202208240124/08/202200000000300000000000000002314KGM  00000002461KGM  181AD2022ZZ              CIVUSAS-S 035X2 B(R,G)   CIVUSAS-S 035X2 B(R,G)   0         0         0         0    0    0    00000000000013500000000044000000594000
AE00TO202208240124/08/202200000000500000000000000003733KGM  00000003977KGM  181B0911611              CAVSAS 03X2 GY/L         CAVSAS 03X2 GY/L         0         0         0         0    0    0    00000000000017500000000047700000834750
AE00TO202208240124/08/202200000000700000000000000005226KGM  00000005568KGM  181B0911641              CAVSAS 03X2 GY           CAVSAS 03X2 GY           0         0         0         0    0    0    00000000000024500000000047700001168650
AE00TO202208240124/08/202200000000100000000000000000797KGM  00000000845KGM  181B32012ZZ              AVSSCS 03FX2 DGY/BR      AVSSCS 03FX2 DGY/BR      0         0         0         0    0    0    00000000000003500000000061200000214200
AE00TO202208240124/08/202200000000200000000000000001780KGM  00000001878KGM  181B32037Z5              AVSSCS 03FX1 DGY/L       AVSSCS 03FX1 DGY/L       0         0         0         0    0    0    00000000000010000000000046800000468000
AE00TO202208240124/08/202200000000300000000000000002390KGM  00000002536KGM  181B32116Y8              AVSSCS 03FX2 DGY/R       AVSSCS 03FX2 DGY/R       0         0         0         0    0    0    00000000000010500000000061200000642600
AE00TO202208240124/08/202200000001400000000000000011152KGM  00000011837KGM  181B32116Y9              AVSSCS 03FX2 DGY/P       AVSSCS 03FX2 DGY/P       0         0         0         0    0    0    00000000000049000000000061200002998800
AE00TO202208240124/08/202200000005500000000000000038778KGM  00000041468KGM  181CQ7003ZZ              IVSSHCS-S 05FX2 B(B,W)   IVSSHCS-S 05FX2 B(B,W)   0         0         0         0    0    0    00000000000165000000000073000012045000
AE00TO202208240124/08/202200000009100000000000000064160KGM  00000068609KGM  181CQ7004ZZ              IVSSHCS-S 05FX2 B(R,G)   IVSSHCS-S 05FX2 B(R,G)   0         0         0         0    0    0    00000000000273000000000073000019929000
AE00TO202208240124/08/202200000000900000000000000006883KGM  00000007323KGM  181E48011ZZ              CAVSAS-S 03X1 GY/W       CAVSAS-S 03X1 GY/W       0         0         0         0    0    0    00000000000045000000000035500001597500
AE00TO202208240124/08/202200000000200000000000000001518KGM  00000001616KGM  181E48033ZZ              CAVSAS-S 05X3 GY/B       CAVSAS-S 05X3 GY/B       0         0         0         0    0    0    00000000000004000000000076800000307200
AE00TO202208240124/08/202200000000100000000000000000851KGM  00000000900KGM  181E48044ZZ              CAVSAS-S 03X1 GY/L       CAVSAS-S 03X1 GY/L       0         0         0         0    0    0    00000000000005000000000035500000177500
AE00TO202208240124/08/202200000000100000000000000000758KGM  00000000807KGM  181E50002ZZ              AVSSCS-S 03FX2 DGY/G     AVSSCS-S 03FX2 DGY/G     0         0         0         0    0    0    00000000000003500000000059700000208950
AE00TO202208240124/08/202200000000900000000000000007347KGM  00000007786KGM  181E50027ZZ              AVSSCS-S 05FX3 DGY/G     AVSSCS-S 05FX3 DGY/G     0         0         0         0    0    0    00000000000022500000000092000002070000
AE00TO202208240124/08/202200000000100000000000000000816KGM  00000000865KGM  181E50028ZZ              AVSSCS-S 05FX3 DGY       AVSSCS-S 05FX3 DGY       0         0         0         0    0    0    00000000000002500000000092000000230000
AE00TO202208240124/08/202200000000300000000000000002273KGM  00000002420KGM  181E50036ZZ              AVSSCS-S 03FX2 DGY       AVSSCS-S 03FX2 DGY       0         0         0         0    0    0    00000000000010500000000059700000626850
AE00TO202208240124/08/202200000000100000000000000000712KGM  00000000761KGM  181F21001ZZ              AVSSHCS-S 03FX2 B/Y      AVSSHCS-S 03FX2 B/Y      0         0         0         0    0    0    00000000000003500000000062300000218050
AE00TO202208240124/08/202200000002100000000000000016030KGM  00000017058KGM  181F21002ZZ              AVSSHCS-S 05FX1 B        AVSSHCS-S 05FX1 B        0         0         0         0    0    0    00000000000084000000000054000004536000
AE00TO202208240124/08/202200000000200000000000000001527KGM  00000001624KGM  181F21003ZZ              AVSSHCS-S 05FX1 B/W      AVSSHCS-S 05FX1 B/W      0         0         0         0    0    0    00000000000008000000000054000000432000
AE00TO202208240124/08/202200000000300000000000000002290KGM  00000002437KGM  181F21008ZZ              AVSSHCS-S 05FX1 B/V      AVSSHCS-S 05FX1 B/V      0         0         0         0    0    0    00000000000012000000000054000000648000
AE00TO202208240124/08/202200000000400000000000000003038KGM  00000003233KGM  181F21011ZZ              AVSSHCS-S 05FX2 B/R      AVSSHCS-S 05FX2 B/R      0         0         0         0    0    0    00000000000012000000000074200000890400
AE00TO202208240124/08/202200000000800000000000000006075KGM  00000006467KGM  181F21013ZZ              AVSSHCS-S 05FX2 B/Y      AVSSHCS-S 05FX2 B/Y      0         0         0         0    0    0    00000000000024000000000074200001780800
AE00TO202208240124/08/202200000000800000000000000006075KGM  00000006467KGM  181F21015ZZ              AVSSHCS-S 05FX2 B/P      AVSSHCS-S 05FX2 B/P      0         0         0         0    0    0    00000000000024000000000074200001780800
AE00TO202208240124/08/202200000001000000000000000007594KGM  00000008083KGM  181F21016ZZ              AVSSHCS-S 05FX2 B/BR     AVSSHCS-S 05FX2 B/BR     0         0         0         0    0    0    00000000000030000000000074200002226000
