AE00TO202208240324/08/202200000008900000000000000093149KGM  00000097500KGM  18000004530              AV 8 B                   AV 8 B                   0         0         0         0    0    0    00000000000089000000000213300018983700
AE00TO202208240324/08/202200000000100000000000000001047KGM  00000001096KGM  18000004540              AV 8 W                   AV 8 W                   0         0         0         0    0    0    00000000000001000000000213300000213300
AE00TO202208240324/08/202200000001800000000000000018280KGM  00000019159KGM  18018403930              CAVS 05 B                CAVS 05 B                0         0         0         0    0    0    00000000000270000000000015200004104000
AE00TO202208240324/08/202200000000200000000000000002031KGM  00000002129KGM  18018403937              CAVS 05 B/Y              CAVS 05 B/Y              0         0         0         0    0    0    00000000000030000000000015200000456000
AE00TO202208240324/08/202200000000300000000000000003047KGM  00000003193KGM  18018403939              CAVS 05 B/L              CAVS 05 B/L              0         0         0         0    0    0    00000000000045000000000015200000684000
AE00TO202208240324/08/202200000000200000000000000002031KGM  00000002129KGM  18018403940              CAVS 05 W                CAVS 05 W                0         0         0         0    0    0    00000000000030000000000015200000456000
AE00TO202208240324/08/202200000002400000000000000024373KGM  00000025546KGM  18018403950              CAVS 05 R                CAVS 05 R                0         0         0         0    0    0    00000000000360000000000015200005472000
AE00TO202208240324/08/202200000000900000000000000009140KGM  00000009579KGM  18018403952              CAVS 05 P                CAVS 05 P                0         0         0         0    0    0    00000000000135000000000015200002052000
AE00TO202208240324/08/202200000002800000000000000028434KGM  00000029803KGM  18018403954              CAVS 05 R/W              CAVS 05 R/W              0         0         0         0    0    0    00000000000420000000000015200006384000
AE00TO202208240324/08/202200000002700000000000000027419KGM  00000028739KGM  18018403970              CAVS 05 Y                CAVS 05 Y                0         0         0         0    0    0    00000000000405000000000015200006156000
AE00TO202208240324/08/202200000001600000000000000016248KGM  00000017030KGM  18018403990              CAVS 05 L                CAVS 05 L                0         0         0         0    0    0    00000000000240000000000015200003648000
AE00TO202208240324/08/202200000001000000000000000009650KGM  00000010139KGM  18018404040              CAVS 085 W               CAVS 085 W               0         0         0         0    0    0    00000000000100000000000022900002290000
AE00TO202208240324/08/202200000001900000000000000018335KGM  00000019264KGM  18018404060              CAVS 085 G               CAVS 085 G               0         0         0         0    0    0    00000000000190000000000022900004351000
AE00TO202208240324/08/202200000001600000000000000015440KGM  00000016222KGM  18018404091              CAVS 085 SB              CAVS 085 SB              0         0         0         0    0    0    00000000000160000000000022900003664000
AE00TO202208240324/08/202200000000400000000000000004410KGM  00000004605KGM  18018404130              CAVS 125 B               CAVS 125 B               0         0         0         0    0    0    00000000000032000000000032700001046400
AE00TO202208240324/08/202200000000200000000000000002205KGM  00000002303KGM  18018404140              CAVS 125 W               CAVS 125 W               0         0         0         0    0    0    00000000000016000000000032700000523200
AE00TO202208240324/08/202200000000100000000000000001228KGM  00000001277KGM  1801R704140              CIVUS 125 W              CIVUS 125 W              0         0         0         0    0    0    00000000000010000000000031800000318000
AE00TO202208240324/08/202200000000100000000000000001228KGM  00000001277KGM  1801R704143              CIVUS 125 W/B            CIVUS 125 W/B            0         0         0         0    0    0    00000000000010000000000031800000318000
AE00TO202208240324/08/202200000004500000000000000055260KGM  00000057460KGM  1801R704150              CIVUS 125 R              CIVUS 125 R              0         0         0         0    0    0    00000000000450000000000031800014310000
AE00TO202208240324/08/202200000000300000000000000003684KGM  00000003831KGM  1801R704161              CIVUS 125 LG             CIVUS 125 LG             0         0         0         0    0    0    00000000000030000000000031800000954000
AE00TO202208240324/08/202200000001600000000000000019648KGM  00000020430KGM  1801R704180              CIVUS 125 BR             CIVUS 125 BR             0         0         0         0    0    0    00000000000160000000000031800005088000
AE00TO202208240324/08/202200000000500000000000000006140KGM  00000006384KGM  1801R704190              CIVUS 125 L              CIVUS 125 L              0         0         0         0    0    0    00000000000050000000000031800001590000
AE00TO202208240324/08/202200000003900000000000000045162KGM  00000047069KGM  1801R706940              CIVUS 035 W              CIVUS 035 W              0         0         0         0    0    0    00000000001170000000000009700011349000
AE00TO202208240324/08/202200000000600000000000000006948KGM  00000007241KGM  1801R706943              CIVUS 035 W/B            CIVUS 035 W/B            0         0         0         0    0    0    00000000000180000000000009700001746000
AE00TO202208240324/08/202200000000100000000000000000771KGM  00000000820KGM  181AD2002ZZ              CIVUSAS-S 035X2 B        CIVUSAS-S 035X2 B        0         0         0         0    0    0    00000000000004500000000044000000198000
AE00TO202208240324/08/202200000000900000000000000008697KGM  00000009137KGM  181AD2011ZZ              CIVUSAS-S 075X2 B        CIVUSAS-S 075X2 B        0         0         0         0    0    0    00000000000031500000000070800002230200
AE00TO202208240324/08/202200000000500000000000000003857KGM  00000004101KGM  181AD2022ZZ              CIVUSAS-S 035X2 B(R,G)   CIVUSAS-S 035X2 B(R,G)   0         0         0         0    0    0    00000000000022500000000044000000990000
AE00TO202208240324/08/202200000000100000000000000000916KGM  00000000964KGM  181B32039Y5              AVSSCS 05FX1 DGY/W       AVSSCS 05FX1 DGY/W       0         0         0         0    0    0    00000000000004000000000056200000224800
AE00TO202208240324/08/202200000001300000000000000010356KGM  00000010991KGM  181B32116Y8              AVSSCS 03FX2 DGY/R       AVSSCS 03FX2 DGY/R       0         0         0         0    0    0    00000000000045500000000061200002784600
AE00TO202208240324/08/202200000000900000000000000007169KGM  00000007609KGM  181B32116Z5              AVSSCS 03FX2 DGY/L       AVSSCS 03FX2 DGY/L       0         0         0         0    0    0    00000000000031500000000061200001927800
AE00TO202208240324/08/202200000004500000000000000031728KGM  00000033928KGM  181CQ7003ZZ              IVSSHCS-S 05FX2 B(B,W)   IVSSHCS-S 05FX2 B(B,W)   0         0         0         0    0    0    00000000000135000000000073000009855000
AE00TO202208240324/08/202200000004500000000000000032198KGM  00000034398KGM  181D6910239              AVSSHCS 05FX2 B/L        AVSSHCS 05FX2 B/L        0         0         0         0    0    0    00000000000135000000000080200010827000
AE00TO202208240324/08/202200000000200000000000000001536KGM  00000001634KGM  181E48027ZZ              CAVSAS-S 05X2 GY/P       CAVSAS-S 05X2 GY/P       0         0         0         0    0    0    00000000000006000000000056900000341400
AE00TO202208240324/08/202200000002400000000000000019590KGM  00000020763KGM  181E50028ZZ              AVSSCS-S 05FX3 DGY       AVSSCS-S 05FX3 DGY       0         0         0         0    0    0    00000000000060000000000092000005520000
AE00TO202208240324/08/202200000004500000000000000034173KGM  00000036374KGM  181F21009ZZ              AVSSHCS-S 05FX2 B        AVSSHCS-S 05FX2 B        0         0         0         0    0    0    00000000000135000000000074200010017000
