AE00TI102208240324/08/202200000000700000000000000005107KGM  00000005831KGM  7182-2412                HOUSING MALE             71822412                 0         0         0         0    0    0    00000350000000050000000638000022330000
AE00TI102208240324/08/202200000000200000000000000001519KGM  00000002049KGM  7187-3356                JOINT CONNECTOR          71873356                 0         0         0         0    0    0    00000240000000120000001038000024912000
AE00TI102208240324/08/202200000000300000000000000002286KGM  00000003088KGM  7187-3357-40             JOINT CONNECTOR          7187335740               0         0         0         0    0    0    00000360000000120000001059000038124000
AE00TI102208240324/08/202200000000100000000000000000763KGM  00000001030KGM  7187-3359-60             JOINT CONNECTOR          7187335960               0         0         0         0    0    0    00000120000000120000001079000012948000
AE00TI102208240324/08/202200000000100000000000000000967KGM  00000001097KGM  7222-7564-40             CONNECTOR                7222756440               0         0         0         0    0    0    00000050000000050000001166000005830000
AE00TI102208240324/08/202200000001300000000000000005954KGM  00000007547KGM  7282-1024                HOUSING MALE             72821024                 0         0         0         0    0    0    00001300000000100000000534000069420000
AE00TI102208240324/08/202200000000100000000000000000795KGM  00000001012KGM  7282-1065-30             CONNECTOR                7282106530               0         0         0         0    0    0    00000150000000150000000422000006330000
AE00TI102208240324/08/202200000000100000000000000000230KGM  00000000339KGM  7282-5528-70             HOUSING MALE ASS'Y       7282552870               0         0         0         0    0    0    00000100000000100000000434000004340000
AE00TI102208240324/08/202200000000100000000000000000620KGM  00000000732KGM  7282-7040                HOUSING MALE ASS'Y       72827040                 0         0         0         0    0    0    00000120000000120000000687000008244000
AE00TI102208240324/08/202200000000200000000000000002712KGM  00000003040KGM  7282-8120                CONNECTOR HOUSING        72828120                 0         0         0         0    0    0    00000600000000300000000212000012720000
AE00TI102208240324/08/202200000000600000000000000008136KGM  00000009120KGM  7282-8120-30             CONNECTOR HOUSING        7282812030               0         0         0         0    0    0    00001800000000300000000000000000000000
AE00TI102208240324/08/202200000000600000000000000008136KGM  00000009120KGM  7282-8120-40             CONNECTOR HOUSING        7282812040               0         0         0         0    0    0    00001800000000300000000215000038700000
AE00TI102208240324/08/202200000000200000000000000001338KGM  00000001865KGM  7283-1140                CONNECTOR HOUSING        72831140                 0         0         0         0    0    0    00000300000000150000000259000007770000
AE00TI102208240324/08/202200000000400000000000000005524KGM  00000006548KGM  7283-1288                CONNECTOR HOUSING        72831288                 0         0         0         0    0    0    00000480000000120000000781000037488000
AE00TI102208240324/08/202200000000100000000000000000915KGM  00000001132KGM  7283-7476                CONNECTOR                72837476                 0         0         0         0    0    0    00000150000000150000000329000004935000
AE00TI102208240324/08/202200000000700000000000000006929KGM  00000008740KGM  7283-7526-30             CONNECTOR HOUSING        7283752630               0         0         0         0    0    0    00001372000000196000000506000069423200
AE00TI102208240324/08/202200000000100000000000000000990KGM  00000001249KGM  7283-7526-40             CONNECTOR HOUSING        7283752640               0         0         0         0    0    0    00000196000000196000000504000009878400
AE00TI102208240324/08/202200000000700000000000000002450KGM  00000003238KGM  7283-8721-30             HOUSING FEMALE ASS'Y     7283872130               0         0         0         0    0    0    00000700000000100000000415000029050000
AE00TI102208240324/08/202200000000100000000000000000794KGM  00000000907KGM  7283-8730-30             HOUSING FEMALE ASS'Y     7283873030               0         0         0         0    0    0    00000200000000200000000426000008520000
AE00TI102208240324/08/202200000000400000000000000002150KGM  00000002760KGM  7287-9323                UNSEALED HOUSING SUB     72879323                 0         0         0         0    0    0    00000960000000240000000146000014016000
AE00TI102208240324/08/202200000000200000000000000002324KGM  00000002569KGM  7386-2747                CONNECTOR ASS'Y          73862747                 0         0         0         0    0    0    00000400000000200000000413000016520000
AE00TI102208240324/08/202200000001800000000000000023760KGM  00000028260KGM  7470-4481                J/B COMPLETE ASS'Y       74704481                 0         0         0         0    0    0    00000043200000002400000000000000000000
AE00TI102208240324/08/202200000002500000000000000000000KGM  00000000000KGM  7470-4816D               J/B COMPLETE ASS'Y       74704816D                0         0         0         0    0    0    00000037500000001500000000000000000000
AE00TI102208240324/08/202200000001000000000000000000000KGM  00000000000KGM  7470-4818D               J/B COMPLETE ASS'Y       74704818D                0         0         0         0    0    0    00000015000000001500000000000000000000
AE00TI102208240324/08/202200000001800000000000000000000KGM  00000000000KGM  7470-5307E               J/B COMPLETE ASS'Y       74705307E                0         0         0         0    0    0    00000018000000001000000000000000000000
AE00TI102208240324/08/202200000002000000000000000000000KGM  00000000000KGM  7470-5782D               J/B COMPLETE ASS'Y       74705782D                0         0         0         0    0    0    00000030000000001500000000000000000000
AE00TI102208240324/08/202200000001800000000000000000000KGM  00000000000KGM  7470-5783E               J/B COMPLETE ASS'Y       74705783E                0         0         0         0    0    0    00000018000000001000000000000000000000
AE00TI102208240324/08/202200000001000000000000000000000KGM  00000000000KGM  7470-5791D               J/B COMPLETE ASS'Y       74705791D                0         0         0         0    0    0    00000015000000001500000000000000000000
AE00TI102208240324/08/202200000002700000000000000000000KGM  00000000000KGM  7470-5791E               J/B COMPLETE ASS'Y       74705791E                0         0         0         0    0    0    00000027000000001000000000000000000000
