BI00B1200    8100T52901     202210207289-9553-30             SEALED ASSY FEMALE       CCN000002940000002940FN00000000020221101000002940NNM   20220824122105    4N0N  0000029400000110900000152151200    YCYC    005500360039
BI00B1200    8100T52901     202210207289-9553-50             SEALED ASSY FEMALE       CCN000002940000002940FN00000000020221101000002940NNM   20220824122105    4N0N  0000029400000110810000152061200    YCYC    005500360039
BI00B1200    #8100T52902    202210067174-1760-50             CAP                      CCN000003000000003000FN00000000020221101000003000NNM   20220824122105    2F0F  0000030000000081360000092261200    YCYC    005400370024
BI00B1200    #8100T52903    202210207174-1760-50             CAP                      CCN000003000000003000FN00000000020221101000003000NNM   20220824122105    2F0F  0000030000000081360000092261200    YCYC    005400370024
BI00B1200    8100T52904     202210067196-1103-02             TERMINAL                 CCN000022500000022500FN00000000020221101000022500NNM   20220824122105    4P0P  0000225000000042980000071501200    YCYC    006400630015
BI00B1200    #8100T52904    202210067172-5629-80             RUBBER STOPPER           CCN000020000000020000FN00000000020221101000020000NNM   20220824122105    2H0H  0000200000000006000000011111200    YCYC    004300270014
BI00B1200    8100T52905     202210207288-3339-30             HOUSING MALE             CCN000001500000001500FN00000000020221101000001500NNM   20220824122105    4N0N  0000015000000086700000101201200    YCYC    005400370024
BI00B1200    8100T52905     202210207289-3342-30             HOUSING FEMALE ASS'Y     CCN000004800000004800FN00000000020221101000004800NNM   20220824122105    1N0N  0000024000000068640000090141200    YCYC    005500360039
BI00B1200    #8100T52905    202210207189-3033                HOUSING FEMALE           CCN000001600000001600FN00000000020221101000001600NNM   20220824122105    2F0F  0000016000000121120000143121200    YCYC    005500360039
BI00B1200    8100T52906     202210067327-6870-30             MULTI FUSE               CCN000000576000000576FN00000000020221101000000576NNM   20220824122105    4N0N  0000002880000101520000118111200    YCYC    005400370024
BI00B1200    8100T52907     202210207327-6870-30             MULTI FUSE               CCN000000288000000288FN00000000020221101000000288NNM   20220824122105    4N0N  0000002880000101520000118111200    YCYC    005400370024
BI00B1200    8100T52906     202210067327-6874-30             MULTI FUSE               CCN000000576000000576FN00000000020221101000000576NNM   20220824122105    4N0N  0000002880000099140000115731200    YCYC    005400370024
BI00B1200    8100T52907     202210207289-6868-30             SEALED ASSY FEMALE       CCN000002520000002520FN00000000020221101000002520NNM   20220824122105    4N0N  0000025200000083920000111921200    YCYC    005500360039
BI00B1200    8100T52907     202210207298-5993-30             SEALED ASSY FEMALE       CCN000002184000002184FN00000000020221101000002184NNM   20220824122105    4N0N  0000021840000098150000129001200    YCYC    005500360039
BI00B1200    8100T52907     202210207327-6908                MAIN FUSE                CCN000000600000000600FN00000000020221101000000600NNM   20220824122105    4N0N  0000006000000073040000091541200    YCYC    005400370024
BI00B1200    #8100T52906    202210067298-2457-90             LIF FEMALE ASSEMBLY      CCN000000168000000168FN00000000020221101000000168NNM   20220824122105    2N0N  0000001680000053330000072891200    YCYC    005400370024
BI00B1200    #8100T52907    202210207298-2457-90             LIF FEMALE ASSEMBLY      CCN000000168000000168FN00000000020221101000000168NNM   20220824122105    2N0N  0000001680000053330000072891200    YCYC    005400370024
BI00B1200    #8100T52906    202210067298-2459-60             LIF FEMALE ASSEMBLY      CCN000000168000000168FN00000000020221101000000168NNM   20220824122105    2N0N  0000001680000053400000072961200    YCYC    005400370024
BI00B1200    8100T52908     202210067158-3022-80             RUBBER STOPPER           CCN000005000000005000FN00000000020221101000005000NNM   20220824122105    1C0C  0000050000000046750000052401200    YCYC    002700430014
BI00B1200    8100T52908     202210067196-0805-02             TERMINAL FEMALE          CCN000022500000022500FN00000000020221101000022500NNM   20220824122105    4P0P  0000225000000055800000084321200    YCYC    006400630015
BI00B1200    8750T52901     202210067288-3340-30             HOUSING MALE             CCN000001500000001500FN00000000020221101000001500NNM   20220824122105    4N0N  0000015000000086150000100641200    YCYC    005400370024
BI00B1200    #8750T52901    202210067189-3031-30             HOUSING FEMALE           CCN000002400000002400FN00000000020221101000002400NNM   20220824122105    2F0F  0000024000000092880000136581200    YCYC    005500360039
BI00B1200    #7242T52901    202210067154-5597-30             CASSETTE R/B             CCN000000800000000800FN00000000020221101000000800NNM   20220824122105    2F0F  0000008000000073600000095201200    YCYC    005500360039
BI00B1200    #7242T52901    202210067189-3031-30             HOUSING FEMALE           CCN000002400000002400FN00000000020221101000002400NNM   20220824122105    2F0F  0000024000000092880000136581200    YCYC    005500360039
BI00B1200    #7242T52901    202210067289-2274-60             JOINT CONNECTOR          CCN000001200000001200FN00000000020221101000001200NNM   20220824122105    2N0N  0000012000000068280000094991200    YCYC    005600390040
BI00B1200    #7242T52904    202210277289-2274-60             JOINT CONNECTOR          CCN000001200000001200FN00000000020221101000001200NNM   20220824122105    2N0N  0000012000000068280000094991200    YCYC    005600390040
BI00B1200    #7242T52902    202210067187-3356                JOINT CONNECTOR          CCN000004800000004800FN00000000020221101000004800NNM   20220824122105    2F0F  0000012000000075960000102441200    YCYC    005600390040
BI00B1200    #7242T52903    202210207187-3356                JOINT CONNECTOR          CCN000004800000004800FN00000000020221101000004800NNM   20220824122105    2F0F  0000012000000075960000102441200    YCYC    005600390040
BI00B1200    #7242T52904    202210277187-3356                JOINT CONNECTOR          CCN000004800000004800FN00000000020221101000004800NNM   20220824122105    2F0F  0000012000000075960000102441200    YCYC    005600390040
BI00B1200    #7242T52902    202210067187-3358-30             JOINT CONNECTOR          CCN000004800000004800FN00000000020221101000004800NNM   20220824122105    2F0F  0000012000000067320000094041200    YCYC    005600390040
BI00B1200    #7242T52903    202210207187-3358-30             JOINT CONNECTOR          CCN000003600000003600FN00000000020221101000003600NNM   20220824122105    2F0F  0000012000000067320000094041200    YCYC    005600390040
BI00B1200    #7242T52902    202210067187-3359-60             JOINT CONNECTOR          CCN000004800000004800FN00000000020221101000004800NNM   20220824122105    2F0F  0000012000000076320000103041200    YCYC    005600390040
BI00B1200    #7242T52903    202210207187-3359-60             JOINT CONNECTOR          CCN000007200000007200FN00000000020221101000007200NNM   20220824122105    2F0F  0000012000000076320000103041200    YCYC    005600390040
BI00B1200    #7242T52904    202210277187-3359-60             JOINT CONNECTOR          CCN000006000000006000FN00000000020221101000006000NNM   20220824122105    2F0F  0000012000000076320000103041200    YCYC    005600390040
BI00B1200    #7242T52902    202210067187-3360                JOINT CONNECTOR          CCN000002400000002400FN00000000020221101000002400NNM   20220824122105    2F0F  0000012000000075960000102681200    YCYC    005600390040
BI00B1200    #7242T52903    202210207187-3360                JOINT CONNECTOR          CCN000001200000001200FN00000000020221101000001200NNM   20220824122105    2F0F  0000012000000075960000102681200    YCYC    005600390040
BI00B1200    7360T52901     202210067196-1103-02             TERMINAL                 CCN000157500000157500FN00000000020221101000157500NNM   20220824122105    4P0P  0000225000000042980000071501200    YCYC    006400630015
BI00B1200    7360T52902     202210067196-1103-02             TERMINAL                 CCN000135000000135000FN00000000020221101000135000NNM   20220824122105    4P0P  0000225000000042980000071501200    YCYC    006400630015
BI00B1200    7360T52903     202210207196-1103-02             TERMINAL                 CCN000135000000135000FN00000000020221101000135000NNM   20220824122105    4P0P  0000225000000042980000071501200    YCYC    006400630015
BI00B1200    7360T52901     202210067288-3329-30             HOUSING MALE             CCN000006000000006000FN00000000020221101000006000NNM   20220824122105    4N0N  0000015000000086610000101111200    YCYC    005400370024
BI00B1200    7360T52902     202210067288-3329-30             HOUSING MALE             CCN000006000000006000FN00000000020221101000006000NNM   20220824122105    4N0N  0000015000000086610000101111200    YCYC    005400370024
BI00B1200    7360T52903     202210207288-3329-30             HOUSING MALE             CCN000006000000006000FN00000000020221101000006000NNM   20220824122105    4N0N  0000015000000086610000101111200    YCYC    005400370024
BI00B1200    7360T52901     202210067288-3334-30             HOUSING MALE             CCN000009000000009000FN00000000020221101000009000NNM   20220824122105    4N0N  0000015000000086700000101201200    YCYC    005400370024
BI00B1200    7360T52902     202210067288-3334-30             HOUSING MALE             CCN000007500000007500FN00000000020221101000007500NNM   20220824122105    4N0N  0000015000000086700000101201200    YCYC    005400370024
BI00B1200    7360T52903     202210207288-3334-30             HOUSING MALE             CCN000007500000007500FN00000000020221101000007500NNM   20220824122105    4N0N  0000015000000086700000101201200    YCYC    005400370024
BI00B1200    7360T52901     202210067288-3335-30             HOUSING MALE             CCN000006000000006000FN00000000020221101000006000NNM   20220824122105    4N0N  0000015000000086700000101201200    YCYC    005400370024
BI00B1200    7360T52902     202210067288-3335-30             HOUSING MALE             CCN000006000000006000FN00000000020221101000006000NNM   20220824122105    4N0N  0000015000000086700000101201200    YCYC    005400370024
BI00B1200    7360T52903     202210207288-3335-30             HOUSING MALE             CCN000006000000006000FN00000000020221101000006000NNM   20220824122105    4N0N  0000015000000086700000101201200    YCYC    005400370024
BI00B1200    7360T52901     202210067288-3337-30             HOUSING MALE             CCN000006000000006000FN00000000020221101000006000NNM   20220824122105    4N0N  0000015000000086700000101201200    YCYC    005400370024
BI00B1200    7360T52902     202210067288-3337-30             HOUSING MALE             CCN000006000000006000FN00000000020221101000006000NNM   20220824122105    4N0N  0000015000000086700000101201200    YCYC    005400370024
BI00B1200    7360T52903     202210207288-3337-30             HOUSING MALE             CCN000006000000006000FN00000000020221101000006000NNM   20220824122105    4N0N  0000015000000086700000101201200    YCYC    005400370024
BI00B1200    7360T52901     202210067288-3338-30             HOUSING MALE             CCN000004500000004500FN00000000020221101000004500NNM   20220824122105    4N0N  0000015000000086610000101201200    YCYC    005400370024
BI00B1200    7360T52902     202210067288-3338-30             HOUSING MALE             CCN000004500000004500FN00000000020221101000004500NNM   20220824122105    4N0N  0000015000000086610000101201200    YCYC    005400370024
BI00B1200    7360T52903     202210207288-3338-30             HOUSING MALE             CCN000004500000004500FN00000000020221101000004500NNM   20220824122105    4N0N  0000015000000086610000101201200    YCYC    005400370024
BI00B1200    7360T52901     202210067288-3340-30             HOUSING MALE             CCN000007500000007500FN00000000020221101000007500NNM   20220824122105    4N0N  0000015000000086150000100641200    YCYC    005400370024
BI00B1200    7360T52902     202210067288-3340-30             HOUSING MALE             CCN000007500000007500FN00000000020221101000007500NNM   20220824122105    4N0N  0000015000000086150000100641200    YCYC    005400370024
BI00B1200    7360T52903     202210207288-3340-30             HOUSING MALE             CCN000006000000006000FN00000000020221101000006000NNM   20220824122105    4N0N  0000015000000086150000100641200    YCYC    005400370024
BI00B1200    7360T52901     202210067289-3342-30             HOUSING FEMALE ASS'Y     CCN000031200000031200FN00000000020221101000031200NNM   20220824122105    1N0N  0000024000000068640000090141200    YCYC    005500360039
BI00B1200    7360T52902     202210067289-3342-30             HOUSING FEMALE ASS'Y     CCN000031200000031200FN00000000020221101000031200NNM   20220824122105    1N0N  0000024000000068640000090141200    YCYC    005500360039
BI00B1200    7360T52903     202210207289-3342-30             HOUSING FEMALE ASS'Y     CCN000028800000028800FN00000000020221101000028800NNM   20220824122105    1N0N  0000024000000068640000090141200    YCYC    005500360039
BI00B1200    7360T52901     202210067289-6547                HOUSING FEMALE ASS'Y     CCN000002400000002400FN00000000020221101000002400NNM   20220824122105    1N0N  0000024000000115200000136201200    YCYC    005500360039
BI00B1200    7360T52901     202210067388-2978-30             HOUSING MALE ASS'Y       CCN000000480000000480FN00000000020221101000000480NNM   20220824122105    1N0N  0000004800000074200000112201200    YCYC    005500360039
BI00B1200    7360T52902     202210067388-2978-30             HOUSING MALE ASS'Y       CCN000000480000000480FN00000000020221101000000480NNM   20220824122105    1N0N  0000004800000074200000112201200    YCYC    005500360039
BI00B1200    #7360T52901    202210067172-5629-80             RUBBER STOPPER           CCN000180000000180000FN00000000020221101000180000NNM   20220824122105    2H0H  0000200000000006000000011111200    YCYC    004300270014
BI00B1200    #7360T52902    202210067172-5629-80             RUBBER STOPPER           CCN000160000000160000FN00000000020221101000160000NNM   20220824122105    2H0H  0000200000000006000000011111200    YCYC    004300270014
BI00B1200    #7360T52903    202210207172-5629-80             RUBBER STOPPER           CCN000160000000160000FN00000000020221101000160000NNM   20220824122105    2H0H  0000200000000006000000011111200    YCYC    004300270014
BI00B1200    #7360T52901    202210067172-5631-60             RUBBER STOPPER           CCN000060000000060000FN00000000020221101000060000NNM   20220824122105    2H0H  0000200000000004200000009311200    YCYC    004300270014
BI00B1200    #7360T52902    202210067172-5631-60             RUBBER STOPPER           CCN000060000000060000FN00000000020221101000060000NNM   20220824122105    2H0H  0000200000000004200000009311200    YCYC    004300270014
BI00B1200    #7360T52903    202210207172-5631-60             RUBBER STOPPER           CCN000040000000040000FN00000000020221101000040000NNM   20220824122105    2H0H  0000200000000004200000009311200    YCYC    004300270014
BI00B1200    #7360T52901    202210067172-5632-10             DUMMY PLUG               CCN000040000000040000FN00000000020221101000040000NNM   20220824122105    2H0H  0000200000000008040000013181200    YCYC    004300270014
BI00B1200    #7360T52902    202210067172-5632-10             DUMMY PLUG               CCN000020000000020000FN00000000020221101000020000NNM   20220824122105    2H0H  0000200000000008040000013181200    YCYC    004300270014
BI00B1200    #7360T52903    202210207172-5632-10             DUMMY PLUG               CCN000020000000020000FN00000000020221101000020000NNM   20220824122105    2H0H  0000200000000008040000013181200    YCYC    004300270014
BI00B1200    #7360T52901    202210067187-3356                JOINT CONNECTOR          CCN000001200000001200FN00000000020221101000001200NNM   20220824122105    2F0F  0000012000000075960000102441200    YCYC    005600390040
BI00B1200    #7360T52901    202210067187-3359-60             JOINT CONNECTOR          CCN000001200000001200FN00000000020221101000001200NNM   20220824122105    2F0F  0000012000000076320000103041200    YCYC    005600390040
BI00B1200    #7360T52901    202210067188-3035                HOUSING MALE             CCN000002400000002400FN00000000020221101000002400NNM   20220824122105    2F0F  0000024000000069360000091361200    YCYC    005500360039
BI00B1200    #7360T52901    202210067189-3031                HOUSING FEMALE           CCN000002400000002400FN00000000020221101000002400NNM   20220824122105    2F0F  0000024000000092880000136581200    YCYC    005500360039
BI00B1200    #7360T52901    202210067189-3032-30             HOUSING FEMALE           CCN000001600000001600FN00000000020221101000001600NNM   20220824122105    2F0F  0000016000000080160000102161200    YCYC    005500360039
BI00B1200    #7360T52901    202210067189-3033                HOUSING FEMALE           CCN000003200000003200FN00000000020221101000003200NNM   20220824122105    2F0F  0000016000000121120000143121200    YCYC    005500360039
BI00B1200    #7360T52902    202210067189-3033                HOUSING FEMALE           CCN000003200000003200FN00000000020221101000003200NNM   20220824122105    2F0F  0000016000000121120000143121200    YCYC    005500360039
BI00B1200    #7360T52903    202210207189-3033                HOUSING FEMALE           CCN000001600000001600FN00000000020221101000001600NNM   20220824122105    2F0F  0000016000000121120000143121200    YCYC    005500360039
BI00B1200    #7360T52901    202210067189-3036                HOUSING FEMALE           CCN000003200000003200FN00000000020221101000003200NNM   20220824122105    2F0F  0000016000000092160000114161200    YCYC    005500360039
BI00B1200    #7360T52902    202210067189-3036                HOUSING FEMALE           CCN000001600000001600FN00000000020221101000001600NNM   20220824122105    2F0F  0000016000000092160000114161200    YCYC    005500360039
BI00B1200    #7360T52903    202210207189-3036                HOUSING FEMALE           CCN000001600000001600FN00000000020221101000001600NNM   20220824122105    2F0F  0000016000000092160000114161200    YCYC    005500360039
BI00B1200    #7360T52901    202210067289-2913-30             HOUSING FEMALE ASS'Y     CCN000001500000001500FN00000000020221101000001500NNM   20220824122105    2N0N  0000015000000090750000103451200    YCYC    005400370024
BI00B1200    #7360T52901    202210067289-2914                HOUSING FEMALE ASS'Y     CCN000001500000001500FN00000000020221101000001500NNM   20220824122105    2N0N  0000015000000090600000103301200    YCYC    005400370024
BI00B1200    #7360T52901    202210067289-2914-40             HOUSING FEMALE ASS'Y     CCN000001500000001500FN00000000020221101000001500NNM   20220824122105    2N0N  0000015000000090450000103151200    YCYC    005400370024
BI00B1200    #7360T52902    202210067289-2914-40             HOUSING FEMALE ASS'Y     CCN000001500000001500FN00000000020221101000001500NNM   20220824122105    2N0N  0000015000000090450000103151200    YCYC    005400370024
BI00B1200    #7360T52903    202210207289-2914-40             HOUSING FEMALE ASS'Y     CCN000001500000001500FN00000000020221101000001500NNM   20220824122105    2N0N  0000015000000090450000103151200    YCYC    005400370024
BI00B1200    #7360T52901    202210067289-2915-30             HOUSING FEMALE ASS'Y     CCN000001500000001500FN00000000020221101000001500NNM   20220824122105    2N0N  0000015000000096450000109151200    YCYC    005400370024
BI00B1200    #7360T52902    202210067289-2915-30             HOUSING FEMALE ASS'Y     CCN000001500000001500FN00000000020221101000001500NNM   20220824122105    2N0N  0000015000000096450000109151200    YCYC    005400370024
BI00B1200    #7360T52903    202210207289-2915-30             HOUSING FEMALE ASS'Y     CCN000001500000001500FN00000000020221101000001500NNM   20220824122105    2N0N  0000015000000096450000109151200    YCYC    005400370024
BI00B1200    #7360T52901    202210067289-2916-30             HOUSING FEMALE ASS'Y     CCN000001000000001000FN00000000020221101000001000NNM   20220824122105    2N0N  0000010000000085700000108401200    YCYC    005400370024
BI00B1200    #7360T52901    202210067289-2917-30             HOUSING FEMALE ASS'Y     CCN000001000000001000FN00000000020221101000001000NNM   20220824122105    2N0N  0000010000000096400000109101200    YCYC    005400370024
BI00B1200    #7360T52901    202210067289-2918-30             HOUSING FEMALE ASS'Y     CCN000001000000001000FN00000000020221101000001000NNM   20220824122105    2N0N  0000010000000101800000114501200    YCYC    005400370024
BI00B1200    #7360T52902    202210067289-2918-30             HOUSING FEMALE ASS'Y     CCN000001000000001000FN00000000020221101000001000NNM   20220824122105    2N0N  0000010000000101800000114501200    YCYC    005400370024
BI00B1200    #7360T52903    202210207289-2918-30             HOUSING FEMALE ASS'Y     CCN000001000000001000FN00000000020221101000001000NNM   20220824122105    2N0N  0000010000000101800000114501200    YCYC    005400370024
BI00B1200    #7360T52901    202210067289-2918-40             HOUSING FEMALE ASS'Y     CCN000001000000001000FN00000000020221101000001000NNM   20220824122105    2N0N  0000010000000102000000114701200    YCYC    005400370024
BI00B1200    #7360T52901    202210067289-2919-30             HOUSING FEMALE ASS'Y     CCN000001500000001500FN00000000020221101000001500NNM   20220824122105    2N0N  0000015000000090750000103451200    YCYC    005400370024
BI00B1200    #7360T52901    202210067289-3622-30             HOUSING FEMALE ASS'Y     CCN000000864000000864FN00000000020221101000000864NNM   20220824122105    2N0N  0000004320000083940000103841200    YCYC    005400370024
BI00B1200    #7360T52902    202210067289-3622-30             HOUSING FEMALE ASS'Y     CCN000000432000000432FN00000000020221101000000432NNM   20220824122105    2N0N  0000004320000083940000103841200    YCYC    005400370024
BI00B1200    #7360T52903    202210207289-3622-30             HOUSING FEMALE ASS'Y     CCN000000432000000432FN00000000020221101000000432NNM   20220824122105    2N0N  0000004320000083940000103841200    YCYC    005400370024
BI00B1200    7360T52904     202209157288-3329-30             HOUSING MALE             CCN000001500000001500FN00000000020221001000001500NNE   20220824122105    4N0N  0000015000000086610000101111200    YCYC    005400370024
BI00B1200    7360T52904     202209157288-3334-30             HOUSING MALE             CCN000001500000001500FN00000000020221001000001500NNE   20220824122105    4N0N  0000015000000086700000101201200    YCYC    005400370024
BI00B1200    7360T52904     202209157288-3337-30             HOUSING MALE             CCN000007500000007500FN00000000020221001000007500NNE   20220824122105    4N0N  0000015000000086700000101201200    YCYC    005400370024
BI00B1200    7360T52904     202209157288-3338-30             HOUSING MALE             CCN000001500000001500FN00000000020221001000001500NNE   20220824122105    4N0N  0000015000000086610000101201200    YCYC    005400370024
BI00B1200    7360T52904     202209157289-3342-30             HOUSING FEMALE ASS'Y     CCN000009600000009600FN00000000020221001000009600NNE   20220824122105    1N0N  0000024000000068640000090141200    YCYC    005500360039
BI00B1200    #7360T52904    202209157158-8627                GROMMET INNER            CCN000002000000002000FN00000000020221001000002000NNE   20220824122105    2F0F  0000020000000065620000084001200    YCYC    005600390040
BI00B1200    #7360T52904    202209157187-3360                JOINT CONNECTOR          CCN000001200000001200FN00000000020221001000001200NNE   20220824122105    2F0F  0000012000000075960000102681200    YCYC    005600390040
BI00B1200    #7360T52904    202209157189-3033                HOUSING FEMALE           CCN000001600000001600FN00000000020221001000001600NNE   20220824122105    2F0F  0000016000000121120000143121200    YCYC    005500360039
BI00B1200    #7360T52904    202209157289-2914                HOUSING FEMALE ASS'Y     CCN000001500000001500FN00000000020221001000001500NNE   20220824122105    2N0N  0000015000000090600000103301200    YCYC    005400370024
BI00B1200    #7360T52904    202209157289-2918-30             HOUSING FEMALE ASS'Y     CCN000002000000002000FN00000000020221001000002000NNE   20220824122105    2N0N  0000010000000101800000114501200    YCYC    005400370024
BI00B1200    #7360T52904    202209157289-2919-30             HOUSING FEMALE ASS'Y     CCN000001500000001500FN00000000020221001000001500NNE   20220824122105    2N0N  0000015000000090750000103451200    YCYC    005400370024
BI00B1200    7860T52901     202210067158-3022-80             RUBBER STOPPER           CCN000025000000025000FN00000000020221101000025000NNM   20220824122105    1C0C  0000050000000046750000052401200    YCYC    002700430014
BI00B1200    7860T52903     202210207288-3332-30             HOUSING MALE             CCN000001500000001500FN00000000020221101000001500NNM   20220824122105    4N0N  0000015000000086070000100571200    YCYC    005400370024
BI00B1200    7860T52903     202210207289-3342-30             HOUSING FEMALE ASS'Y     CCN000002400000002400FN00000000020221101000002400NNM   20220824122105    1N0N  0000024000000068640000090141200    YCYC    005500360039
BI00B1200    7860T52903     202210207289-4696-30             HOUSING FEMALE ASS'Y     CCN000002000000002000FN00000000020221101000002000NNM   20220824122105    4N0N  0000020000000091340000105541200    YCYC    005400370024
BI00B1200    #7860T52901    202210067172-5632-10             DUMMY PLUG               CCN000020000000020000FN00000000020221101000020000NNM   20220824122105    2H0H  0000200000000008040000013181200    YCYC    004300270014
BI00B1200    #7860T52902    202210067172-5632-10             DUMMY PLUG               CCN000020000000020000FN00000000020221101000020000NNM   20220824122105    2H0H  0000200000000008040000013181200    YCYC    004300270014
BI00B1200    #7860T52903    202210207172-5632-10             DUMMY PLUG               CCN000020000000020000FN00000000020221101000020000NNM   20220824122105    2H0H  0000200000000008040000013181200    YCYC    004300270014
BI00B1200    #7860T52904    202210277172-5632-10             DUMMY PLUG               CCN000040000000040000FN00000000020221101000040000NNM   20220824122105    2H0H  0000200000000008040000013181200    YCYC    004300270014
BI00B1200    #7860T52901    202210067189-3031                HOUSING FEMALE           CCN000002400000002400FN00000000020221101000002400NNM   20220824122105    2F0F  0000024000000092880000136581200    YCYC    005500360039
BI00B1200    #7860T52902    202210067189-3031                HOUSING FEMALE           CCN000002400000002400FN00000000020221101000002400NNM   20220824122105    2F0F  0000024000000092880000136581200    YCYC    005500360039
BI00B1200    #7860T52903    202210207189-3031                HOUSING FEMALE           CCN000002400000002400FN00000000020221101000002400NNM   20220824122105    2F0F  0000024000000092880000136581200    YCYC    005500360039
BI00B1200    #7860T52904    202210277189-3031                HOUSING FEMALE           CCN000002400000002400FN00000000020221101000002400NNM   20220824122105    2F0F  0000024000000092880000136581200    YCYC    005500360039
BI00B1200    #7960T52901    202210067172-5629-80             RUBBER STOPPER           CCN000080000000080000FN00000000020221101000080000NNE   20220824122105    2H0H  0000200000000006000000011111200    YCYC    004300270014
BI00B1200    #H322K50032    202210277174-1760-50             CAP                      CCN000012000000012000FN00000000020221101000012000NNM   20220824122105    2F0F  0000030000000081360000092261200    YCYC    005400370024
BI00B1200    #H322K50033    202210277174-1760-50             CAP                      CCN000045000000045000FN00000000020221101000045000NNM   20220824122105    2F0F  0000030000000081360000092261200    YCYC    005400370024
BI00B1200    O022K50034     202210207116-4100-02             TERMINAL                 CCN000135000000135000FN00000000020221101000135000NNE   20220824122105    4P0P  0000150000000069600000099021200    YCYC    006400630015
BI00B1200    O022K50035     202210207116-4100-02             TERMINAL                 CCN000135000000135000FN00000000020221101000135000NNE   20220824122105    4P0P  0000150000000069600000099021200    YCYC    006400630015
BI00B32AF    #JTB2105       202210217282-5528-70             HOUSING MALE ASS'Y       CCN000009000000009000FN00000000020221001000009000NNMD0020220824134607    2N0N  00000100000000230000000339032AF    HBYHVTB 005400370024
BI00A32DJ    GHT2210B 1     202208237116-4037                TERMINAL                 CCN000096000000096000FY00009600020221001000000000NNM00020220824111221    4P0P  00000600000000600000000894232DJ    RBYIPLRB006400630015
BI00A32DJ    GHT2210B 2     202208237116-4037                TERMINAL                 CCN000036000000036000FY00003600020221001000000000NNM00020220824111121    4P0P  00000600000000600000000894232DJ    RBYIPLRB006400630015
BI00A32DJ    GHT2210B 1     202208237158-3006-90             RUBBER STOPPER           CCN000060000000060000FY00006000020221001000000000NNM00020220824111146    1C0C  00002000000000330600000386032DJ    RBYIPLRB002700430014
BI00A32DJ    GHT2210B 2     202208237158-3006-90             RUBBER STOPPER           CCN000140000000140000FY00014000020221001000000000NNM00020220824111114    1C0C  00002000000000330600000386032DJ    RBYIPLRB002700430014
BI00A32DJ    GHT2210B 1     202208237116-3153-02             TERMINAL FEMALE          CCN000783000000513000FY00051300020221001000000000NNM00020220824111210    4P0P  00002700000000459000000744232DJ    RBYIPLRB006400630015
BI00A32DJ    #GHT2210B 1    202208237189-3031-30             HOUSING FEMALE           CCN000002400000002400FY00000240020221001000000000NNM00020220824111011    2F0F  00000240000000928800001365832DJ    RBYIPLRB005500360039
BI00A32DJ    #GHT2210B 2    202208237189-3031-30             HOUSING FEMALE           CCN000002400000002400FY00000240020221001000000000NNM00020220824111040    2F0F  00000240000000928800001365832DJ    RBYIPLRB005500360039
BI00A32DJ    #GHT2210B 1    202208237189-3037                HOUSING FEMALE           CCN000019200000019200FY00001920020221001000000000NNM00020220824111011    2F0F  00000480000000806400001066432DJ    RBYIPLRB005500360039
BI00A32DJ    #GHT2210B 2    202208237189-3037                HOUSING FEMALE           CCN000004800000004800FY00000480020221001000000000NNM00020220824111040    2F0F  00000480000000806400001066432DJ    RBYIPLRB005500360039
BI00A32DJ    #GHT2210B 1    202208237183-2414                CONNECTOR HOUSING        CCN000009600000009600FY00000960020221001000000000NNM00020220824111011    2F0F  00000480000000779200001061032DJ    RBYIPLRB005500360039
BI00A32DJ    #GHT2210B 2    202208237183-2414                CONNECTOR HOUSING        CCN000004800000004800FY00000480020221001000000000NNM00020220824111040    2F0F  00000480000000779200001061032DJ    RBYIPLRB005500360039
BI00A32DJ    #GHT2210C 1    202208237116-4021                TERMINAL                 CCN000027000000027000FY00002700020221001000000000NNM00020220824111302    2F0P  00001350000000534600000868832DJ    RBYIPLRB006400630015
BI00A32DJ    #GHT2210C 2    202208237116-4021                TERMINAL                 CCN000027000000027000FY00002700020221001000000000NNM00020220824111257    2F0P  00001350000000534600000868832DJ    RBYIPLRB006400630015
BI00A32DJ    GHT2210B 1     202208237116-1685-02             TERMINAL                 CCN000480000000480000FY00048000020221001000000000NNM00020220824111155    4P0P  00002400000000897600001065232DJ    RBYIPLRB005100280028
BI00A32DJ    GHT2210B 1     202208237116-5750-02             TERMINAL                 CCN000150000000150000FY00015000020221001000000000NNM00020220824111232    4P0P  00001500000000457500000742732DJ    RBYIPLRB006400630015
BI00A32DJ    GHT2210H       202208237116-4022                TERMINAL                 CCN000013500000013500FY00001350020221001000000000NNE00020220824111325    4P0P  00001350000000618300000903532DJ    RBYIPLRB006400630015
BI00A32DJ    #GHT2210H      202208237189-3031-30             HOUSING FEMALE           CCN000002400000002400FY00000240020221001000000000NNE00020220824111341    2F0F  00000240000000928800001365832DJ    RBYIPLRB005500360039
BI00A32DJ    #GHT2210H      202208237116-4021                TERMINAL                 CCN000027000000027000FY00002700020221001000000000NNE00020220824111341    2F0P  00001350000000534600000868832DJ    RBYIPLRB006400630015
BI00B32E2    NY211A         202209077116-1473                TERMINAL                 CCN000013500000013500FN00000000020221101000013500NNE   20220824122105    4P0P  00001350000000523800000809032E2    SPYSE   006400630015
BI00B32E2    NY211A         202209077126-8851-02             TERMINAL                 CCN000009000000009000FN00000000020221101000009000NNE   20220824122105    1P0P  00000900000000739800001025032E2    SPYSE   006400630015
BI00B32E2    #NY211A        202209077158-3003-90             RUBBER STOPPER           CCN000020000000020000FN00000000020221101000020000NNE   20220824122105    2C0C  00002000000000250000000306032E2    SPYSE   002700430014
BI00B32E2    #NY211A        202209077158-3121-80             WIRE SEAL                CCN000020000000020000FN00000000020221101000020000NNE   20220824122105    2C0C  00002000000000118000000187332E2    SPYSE   002700430014
BI00B32H0    TT2210AVMW     202209137017-1182-02             TERMINAL                 CCN000045000000045000FN00000000020221001000045000NNE   20220824122105    4P0P  00004500000001165500001318632H0    TTTJY   005100280028
BI00B32H0    #TT2210AVMW    202209137289-3622-30             HOUSING FEMALE ASS'Y     CCN000000864000000864FN00000000020221001000000864NNE   20220824122105    2N0N  00000043200000839400001038432H0    TTTJY   005400370024
BI00B32H2    TIJ2103        202209027470-5651                J/B COMPLETE ASS'Y       CCN000000050000000050FN00000000020221001000000050NNMD0020220824122105    4J0J  00000001000000494000000661032H2    HVYHV   005400370024
BI00B32H2    TIJ2105        202209097470-5651                J/B COMPLETE ASS'Y       CCN000000050000000050FN00000000020221001000000050NNMD0020220824122105    4J0J  00000001000000494000000661032H2    HVYHV   005400370024
BI00B32H2    #TIJ2104       202210077287-1915-40             CONNECTOR ASS'Y          CCN000004800000004800FN00000000020221001000004800NNMD0020220824122105    2N0N  00000240000000666500000923132H2    HVYHV   005500360039
BI00B32H2    #TIJ2102       202209097287-7859                HYBRID FEMALE ASS'Y      CCN000004800000004800FN00000000020221001000004800NNMD0020220824122105    2N0N  00000120000000461600000671632H2    HVYHV   005500360039
BI00B32H2    #TIJ2103       202209167287-7859                HYBRID FEMALE ASS'Y      CCN000006000000006000FN00000000020221001000006000NNMD0020220824122105    2N0N  00000120000000461600000671632H2    HVYHV   005500360039
BI00B32H2    #TIJ2102       202209097287-7860                HYBRID FEMALE ASS'Y      CCN000004800000004800FN00000000020221001000004800NNMD0020220824122105    2N0N  00000120000000644000000650432H2    HVYHV   005500360039
BI00B32H2    #TIJ2103       202209167287-7860                HYBRID FEMALE ASS'Y      CCN000006000000006000FN00000000020221001000006000NNMD0020220824122105    2N0N  00000120000000644000000650432H2    HVYHV   005500360039
BI00B32H2    #TIJ2101       202209167289-2916-30             HOUSING FEMALE ASS'Y     CCN000001000000001000FN00000000020221001000001000NNMD0020220824122105    2N0N  00000100000000857000001084032H2    HVYHV   005400370024
BI00B32H2    #TIJ2102       202209307289-2919-30             HOUSING FEMALE ASS'Y     CCN000001500000001500FN00000000020221001000001500NNMD0020220824122105    2N0N  00000150000000907500001034532H2    HVYHV   005400370024
BI00B32H2    TIJ210M        202209237196-1946-02             TERMINAL FEMALE          CCN000009000000009000FN00000000020221001000009000NNE   20220824122105    4P0P  00000900000000405000000690232H2    HVYHV   006400630015
BI00B32H2    TIJ210M        202209237196-2038-02             TERMINAL FEMALE          CCN000003600000003600FN00000000020221001000003600NNE   20220824122105    4P0P  00000360000000590000000883632H2    HVYHV   006400630015
BI00B32H2    TIJ210M        202209237283-4576-40             HOUSING FEMALE ASS'Y     CCN000004800000004800FN00000000020221001000004800NNE   20220824122105    4N0N  00000480000000651300000871332H2    HVYHV   005500360039
BI00B32H2    #TIJ210M       202209237172-5627-60             RUBBER STOPPER           CCN000020000000020000FN00000000020221001000020000NNE   20220824122105    2H0H  00002000000000070400000121832H2    HVYHV   004300270014
BI00B32H2    #TIJ210M       202209237189-3034                HOUSING FEMALE           CCN000001600000001600FN00000000020221001000001600NNE   20220824122105    2F0F  00000160000001211200001431232H2    HVYHV   005500360039
BI00B32K8    #K1220011601   202211117137-2717-50             SEALED CONNECTOR         CCN000020000000020000FN00000000020221201000020000NNM   20220824122105    2C0C  00000400000000212800000284032K8    ELELCOM 002700430014
BI00B32K8    #K1220011601   202211117137-2718-50             SEALED CONNECTOR         CCN000012000000012000FN00000000020221201000012000NNM   20220824122105    2C0C  00000100000000118300000236632K8    ELELCOM 002700430014
BI00A32M3    SM2209BEMW     202208247289-7213-30             HOUSING FEMALE ASS'Y     CCN000001920000000240FY00000024020220901000000000NNE00020220824164942    4N0N  00000024000001352800001667832M3    SASAMI  005500360039
BI00A32M3    SM2209BEMW     202208297289-7213-30             HOUSING FEMALE ASS'Y     CCN000000960000000480FN00000000020220901000000480NNEM0020220824164613    4N0N  00000024000001352800001667832M3    SASAMI  005500360039
BI00B32M3    SM2209BEMW     202209087289-7213-30             HOUSING FEMALE ASS'Y     CCN000001200000001200FN00000000020220901000001200NNEM0020220824132719    4N0N  00000024000001352800001667832M3    SASAMI  005500360039
BI00B32R7    R-TAP220361    202209087158-3169-40             SEALING PLUG             CCN000040000000040000FN00000000020220901000040000NNE   20220824122105    1C0C  00004000000000156000000204132R7    IVYCIC  004300260014
BI00B32R7    R-TAP220362    202209087158-3169-40             SEALING PLUG             CCN000040000000040000FN00000000020220901000040000NNE   20220824122105    1C0C  00004000000000156000000204132R7    IVYCIC  004300260014
BI00B32R7    R-TAP220363    202209087116-4025                TERMINAL                 CCN000064000000064000FN00000000020220901000064000NNE   20220824122105    4P0P  00001600000000644800000975132R7    IVYCIC  006400630017
BI00B32R7    #R-TAP220364   202209087283-8397-40             CONNECTOR                CCN000010780000010780FN00000000020220901000010780NNE   20220824122105    2N0N  00000154000001007000001222732R7    IVYCIC  005600390023
BI00B32W4    4500195182     202209297289-9553-50             SEALED ASSY FEMALE       CCN000035280000035280FN00000000020220801000035280NNED0420220824122105W4N64N0N  00000294000001108100001520632W4N6  HJYHK-J 005500360039
BI00A32W4    4500195307     202208257283-5845                CONNECTOR HOUSING        CCN000012000000012000FN00000000020220901000012000NNED0020220824122105W4731N0N  00000600000000444000000606332W473  HJYHK-J 005400370024
BI00B32W4    4500196289     202208237283-4577                CONNECTOR HOUSING        CCN000009600000009600FY00000960020220801000000000NNE00020220824110918W9234N0N  00000480000000916800001136832W923  HJYHK   005500360039
BI00A32W4    4500197035     202208307116-4111-02             TERMINAL                 CCN000007500000007500FN00000000020220901000007500NNED0020220824143305W4194P0P  00000750000000529500000817732W419  HJYHK   006400630015
BI00A32W4    #4500197059    202209057158-3120-90             CONNECTOR WIRE SEAL      CCN000020000000020000FN00000000020220901000020000NNED0020220824122105W4G92C0C  00002000000000136000000194032W4G9  HJYHK-J 002700430014
BI00B32W4    #4500197171    202208237157-7812                SEAL RUBBER              CCN000080000000080000FY00008000020220801000000000NNE00020220824110934W4Q12C0C  00001000000000137000000202032W4Q1  SCYHK-J 002700430014
BI00B32W4    #4500198530    202209087157-3821                RUBBER STOPPER           CCN000040000000000000FY00000000020220801000000000NNEQ0820220824093857W4512C0C  00002000000000176000000238032W451  HJ32W9  002700430014
BI00A32W4    4500199138     202210247158-3167-80             WIRE SEAL                CCN000080000000080000FN00000000020221001000080000NNED0020220824122105W4G91C0C  00002000000000048000000109032W4G9  HJYHK-J 002700430014
BI00A32W4    4500199138     202210247158-3168-80             SEALED                   CCN000040000000040000FN00000000020221001000040000NNED0020220824122105W4G91C0C  00002000000000044000000092132W4G9  HJYHK-J 004300260014
BI00A32W4    4500199138     202210247116-4025                TERMINAL                 CCN000016000000016000FN00000000020221001000016000NNED0020220824122105W4G94P0P  00001600000000644800000975132W4G9  HJYHK-J 006400630017
BI00A32W4    #4500199138    202210247158-3120-90             CONNECTOR WIRE SEAL      CCN000020000000020000FN00000000020221001000020000NNE   20220824122105W4G92C0C  00002000000000136000000194032W4G9  HJYHK-J 002700430014
BI00B32W4    4500199141     202210067158-3167-80             WIRE SEAL                CCN000400000000400000FN00000000020221001000400000NNE   20220824122105W4B71C0C  00002000000000048000000109032W4B7  HJYHK-J 002700430014
BI00B32W4    4500199141     202210067158-3169-40             SEALING PLUG             CCN000040000000040000FN00000000020221001000040000NNE   20220824122105W4B71C0C  00004000000000156000000204132W4B7  HJYHK-J 004300260014
BI00B32W4    4500199147     202210277116-4100-02             TERMINAL                 CCN000135000000135000FN00000000020221001000135000NNE   20220824122105W4164P0P  00001500000000696000000990232W416  HJYHK   006400630015
BI00B32W4    4500199147     202210277116-4121-02             TERMINAL                 CCN000009000000009000FN00000000020221001000009000NNE   20220824122105W4164P0P  00000450000000618800000912432W416  HJYHK   006400630015
BI00B32W4    4500199147     202210277116-4111-02             TERMINAL                 CCN000007500000007500FN00000000020221001000007500NNE   20220824122105W4164P0P  00000750000000529500000817732W416  HJYHK   006400630015
BI00B32W4    4500199147     202210277116-4112-02             TERMINAL                 CCN000036000000036000FN00000000020221001000036000NNE   20220824122105W4164P0P  00000600000000450000000738232W416  HJYHK   006400630015
BI00B32W4    4500199147     202210277116-4102-02             TERMINAL                 CCN000024000000024000FN00000000020221001000024000NNE   20220824122105W4164P0P  00001200000000553200000841432W416  HJYHK   006400630015
BI00B32W4    4500199147     202210277116-4025                TERMINAL                 CCN000016000000016000FN00000000020221001000016000NNE   20220824122105W4164P0P  00001600000000644800000975132W416  HJYHK   006400630017
BI00B32W4    4500199147     202210277283-7028-30             CONNECTOR                CCN000003000000003000FN00000000020221001000003000NNE   20220824122105W4164N0N  00000300000001452000001681332W416  HJYHK   005600390040
BI00B32W4    4500199147     202210277114-4100-02             TERMINAL                 CCN000072000000072000FN00000000020221001000072000NNE   20220824122105W4164P0P  00001800000000748800001077432W416  HJYHK   006400630017
BI00B32W4    4500199147     202210277116-4124-02             TERMINAL                 CCN000003000000003000FN00000000020221001000003000NNE   20220824122105W4164P0P  00000300000000459900000753532W416  HJYHK   006400630015
BI00B32W4    4500199147     202210277283-5548-30             CONNECTOR                CCN000001500000001500FN00000000020221001000001500NNE   20220824122105W4164N0N  00000150000001109000001302032W416  HJYHK   005600390040
BI00B32W4    4500199147     202210277158-3166-60             WIRE SEAL                CCN000080000000080000FN00000000020221001000080000NNE   20220824122105W4161C0C  00004000000000104000000152432W416  HJYHK   002700430014
BI00B32W4    4500199147     202210277158-3169-40             SEALING PLUG             CCN000040000000040000FN00000000020221001000040000NNE   20220824122105W4161C0C  00004000000000156000000204132W416  HJYHK   004300260014
BI00B32W4    4500199147     202210277116-4101-02             TERMINAL                 CCN000036000000036000FN00000000020221001000036000NNE   20220824122105W4164P0P  00001200000000582000000876232W416  HJYHK   006400630015
BI00B32W4    4500199147     202210277116-4120-02             TERMINAL                 CCN000012000000012000FN00000000020221001000012000NNE   20220824122105W4164P0P  00000600000000780000001073632W416  HJYHK   006400630015
BI00B32W4    4500199147     202210277114-4101-02             TERMINAL                 CCN000015000000015000FN00000000020221001000015000NNE   20220824122105W4164P0P  00001500000000675000001003632W416  HJYHK   006400630017
BI00B32W4    4500199147     202210277116-4104-02             TERMINAL                 CCN000048000000048000FN00000000020221001000048000NNE   20220824122105W4164P0P  00001200000000580800000972432W416  HJYHK   006400630015
BI00B32W4    4500199147     202210277116-4110-02             TERMINAL                 CCN000009000000009000FN00000000020221001000009000NNE   20220824122105W4164P0P  00000900000000594000000882232W416  HJYHK   006400630015
BI00B32W4    4500199147     202210277116-4103-02             TERMINAL                 CCN000024000000024000FN00000000020221001000024000NNE   20220824122105W4164P0P  00001200000000571200000859432W416  HJYHK   006400630015
BI00B32W4    4500199147     202210277283-1020                CONNECTOR                CCN000006000000006000FN00000000020221001000006000NNE   20220824122105W4164N0N  00000600000000840000001049332W416  HJYHK   005600390040
BI00B32W4    4500199147     202210277283-1024                CONNECTOR SUB ASSY       CCN000018000000018000FN00000000020221001000018000NNE   20220824122105W4164N0N  00000200000000400000000522532W416  HJYHK   005400370024
BI00B32W4    4500199147     202210277282-1024                HOUSING MALE             CCN000016000000016000FN00000000020221001000016000NNE   20220824122105W4161N0N  00000100000000458000000580532W416  HJYHK   005400370024
BI00B32W4    4500199147     202210277283-1030                CONNECTOR                CCN000024000000024000FN00000000020221001000024000NNE   20220824122105W4164N0N  00000600000000988000001172032W416  HJYHK   005500360039
BI00B32W4    4500199147     202210277288-6547                CONNECTOR MALE ASS'Y     CCN000018000000018000FN00000000020221001000018000NNE   20220824122105W4164N0N  00000075000001205300001340332W416  HJYHK   005400370024
BI00B32W4    4500199147     202210277289-6547                HOUSING FEMALE ASS'Y     CCN000021600000021600FN00000000020221001000021600NNE   20220824122105W4161N0N  00000240000001152000001362032W416  HJYHK   005500360039
BI00B32W4    4500199147     202210277283-1156                CONNECTOR                CCN000014400000014400FN00000000020221001000014400NNE   20220824122105W4164N0N  00000080000000877600001078032W416  HJYHK   005600390040
BI00B32W4    4500199147     202210277114-4032                TERMINAL                 CCN000015000000015000FN00000000020221001000015000NNE   20220824122105W4164P0P  00000750000000735000001063632W416  HJYHK   006400630017
BI00B32W4    #4500199147    202210277282-4190-30             CONNECTOR                CCN000002640000002640FN00000000020221001000002640NNE   20220824122105W4162N0N  00000024000000801000001071332W416  HJYHK   005600390040
BI00B32W4    #4500199147    202210277283-4190-30             CONNECTOR                CCN000002640000002640FN00000000020221001000002640NNE   20220824122105W4162N0N  00000024000000846000001115532W416  HJYHK   005600390040
BI00B32W4    #4500199147    202210277187-1616                HOUSING FEMALE           CCN000008000000008000FN00000000020221001000008000NNE   20220824122105W4162F0F  00000400000001152000001262032W416  HJYHK   005500360039
BI00B32W4    @4500199147    202210277183-8049                CONNECTOR HOUSING        CCN000004000000004000FN00000000020221001000004000NNE   20220824122105W4163F0F  00000400000000583600000740032W416  HJYHK   005400370024
BI00B32W4    @4500199147    202210277287-6634                HOUSING FEMALE ASS'Y     CCN000009600000009600FN00000000020221001000009600NNE   20220824122105W4163N0N  00000240000001088400001337032W416  HJYHK   005500360039
BI00A32W4    4500199150     202210247158-3167-80             WIRE SEAL                CCN000040000000040000FN00000000020221001000040000NNE   20220824122105W4O21C0C  00002000000000048000000109032W4O2  HJYHK-J 002700430014
BI00A32W4    4500199150     202210247116-4100-02             TERMINAL                 CCN000015000000015000FN00000000020221001000015000NNE   20220824122105W4O24P0P  00001500000000696000000990232W4O2  HJYHK-J 006400630015
BI00A32W4    4500199150     202210247116-4112-02             TERMINAL                 CCN000018000000018000FN00000000020221001000018000NNE   20220824122105W4O24P0P  00000600000000450000000738232W4O2  HJYHK-J 006400630015
BI00A32W4    4500199150     202210247116-4025                TERMINAL                 CCN000032000000032000FN00000000020221001000032000NNE   20220824122105W4O24P0P  00001600000000644800000975132W4O2  HJYHK-J 006400630017
BI00A32W4    4500199150     202210247158-3166-60             WIRE SEAL                CCN000040000000040000FN00000000020221001000040000NNE   20220824122105W4O21C0C  00004000000000104000000152432W4O2  HJYHK-J 002700430014
BI00A32W4    4500199150     202210247158-3169-40             SEALING PLUG             CCN000040000000040000FN00000000020221001000040000NNE   20220824122105W4O21C0C  00004000000000156000000204132W4O2  HJYHK-J 004300260014
BI00A32W4    4500199150     202210247116-4110-02             TERMINAL                 CCN000009000000009000FN00000000020221001000009000NNE   20220824122105W4O24P0P  00000900000000594000000882232W4O2  HJYHK-J 006400630015
BI00A32W4    #4500199150    202210247183-7725-40             HOUSING                  CCN000006000000006000FN00000000020221001000006000NNE   20220824122105W4O22F0F  00000600000000840000001040032W4O2  HJYHK-J 005600390040
BI00A32W4    @4500199150    202210247183-8049                CONNECTOR HOUSING        CCN000008000000008000FN00000000020221001000008000NNE   20220824122105W4O23F0F  00000400000000583600000740032W4O2  HJYHK-J 005400370024
BI00B32W4    @4500199151    202210277287-4098                CONNECTOR FEMALE         CCN000002400000002400FN00000000020221001000002400NNE   20220824122105W4L63N0N  00000240000000668600000908032W4L6  HJYHK-K 005500360039
BI00B32W4    4500199161     202210207283-5843                CONNECTOR                CCN000003000000003000FN00000000020221001000003000NNE   20220824122105W4171N0N  00000150000000889000001132032W417  HJYHK   005600390040
BI00B32W4    4500199161     202210207283-5832                CONNECTOR HOUSING        CCN000002400000002400FN00000000020221001000002400NNE   20220824122105W4171N47  00000240000000723800000873832W417  HJYHK   005500360039
BI00B32W4    #4500199161    202210207183-8927                HOUSING                  CCN000008000000008000FN00000000020221001000008000NNE   20220824122105W4172F0F  00000400000000714000000912732W417  HJYHK   005500360039
BI00B32W4    #4500199161    202210207282-3020                CONNECTOR                CCN000005000000005000FN00000000020221001000005000NNE   20220824122105W4172N0N  00000100000000984000001145432W417  HJYHK   005500360039
BI00B32W4    #4500199162    202211037147-3642-30             CLIP                     CCN000087000000087000FN00000000020221101000087000NNE   20220824122105W4172F0F  00000300000000542000000721332W417  HJYHK   005600390040
BI00B32Y4    ITA32111       202208237158-3166-60             WIRE SEAL                CCN000920000000920000FY00092000020221101000000000NNE00020220824110858    1C0C  00004000000000104000000152432Y4    BIYAB-I 002700430014
BI00B32Y4    ITA32111       202208237158-3167-80             WIRE SEAL                CCN000880000000880000FY00088000020221101000000000NNE00020220824110858    1C0C  00002000000000048000000109032Y4    BIYAB-I 002700430014
BI00B32Y4    ITA32111       202208237158-3168-80             SEALED                   CCN000240000000240000FY00024000020221101000000000NNE00020220824110858    1C0C  00002000000000044000000092132Y4    BIYAB-I 004300260014
BI00B32Y4    ITA32111       202208237158-3169-40             SEALING PLUG             CCN000200000000200000FY00020000020221101000000000NNE00020220824110858    1C0C  00004000000000156000000204132Y4    BIYAB-I 004300260014
BI00A32Y6    QA-22-C060     202208257287-3885-40             HYBRID FEMALE ASS'Y      PNN000009600000009600FN00000000020220801000009600NNE   20220824122105    1N0N  00000240000001029600001249632Y6    BSYBL-S 005500360039
