BI00B1200    8640T52801     202209297288-3329-30             HOUSING MALE             CCN000001500000001500FN00000000020221001000001500NNE   20220726130546    4N0N  0000015000000086610000101111200    YCYC    005400370024
BI00B1200    8640T52801     202209297288-3340-30             HOUSING MALE             CCN000001500000001500FN00000000020221001000001500NNE   20220726130546    4N0N  0000015000000086150000100641200    YCYC    005400370024
BI00B1200    8640T52801     202209297289-3342-30             HOUSING FEMALE ASS'Y     CCN000002400000002400FN00000000020221001000002400NNE   20220726130546    1N0N  0000024000000068640000090141200    YCYC    005500360039
BI00B1200    #MKH2022-116   202209017282-1214-51             CONNECTOR                CCN000001000000001000FN00000000020220901000001000NNE   20220726130546    2N0N  0000010000000112000000129201200    YCYC    005500360039
BI00B32AG    XG2209AGMW     202208267327-6840-3W             BATTERY FUSE             CCN000001224000001224FN00000000020220901000001224NNE   20220726130546    4N0N  00000007200001140900001355932AG    XGXGY   005500360039
BI00B32AG    XG2209ELMW     202208197388-0314                CONNECTOR ASS'Y          CCN000001200000001200FN00000000020220901000001200NNE   20220726130546    4N0N  00000120000001038000001132332AG    XGXGY   005400370024
BI00A32CA    CA-188-004     202208047386-2747                CONNECTOR ASS'Y          CCN000004000000004000FN00000000020220701000004000NNEM0020220726130546    4N0N  00000200000001162000001284532CA    YPYPY   005400370024
BI00B32CG    S220726-S      202210267116-4121-02             TERMINAL                 CCN000004500000004500FN00000000020221001000004500NNE   20220726130546    4P0P  00000450000000618800000912432CG    ASASIACO006400630015
BI00B32CG    S220726-S      202210267116-4111-02             TERMINAL                 CCN000015000000015000FN00000000020221001000015000NNE   20220726130546    4P0P  00000750000000529500000817732CG    ASASIACO006400630015
BI00B32CG    S220726-G      202210267116-4120-02             TERMINAL                 CCN000006000000006000FN00000000020221001000006000NNE   20220726130546    4P0P  00000600000000780000001073632CG    ASASIACO006400630015
BI00B32CG    S220726-G      202210267114-4111-02             TERMINAL                 CCN000012000000012000FN00000000020221001000012000NNE   20220726130546    4P0P  00001200000000758400001087032CG    ASASIACO006400630017
BI00B32CG    #S220726-G     202210267158-3376-50             CONNECTOR WIRE SEAL      CCN000020000000020000FN00000000020221001000020000NNE   20220726130546    2C0C  00002000000000184000000240732CG    ASASIACO002700430014
BI00B32DE    TCT2091        202208047158-3167-80             WIRE SEAL                CCN000080000000080000FN00000000020220901000080000NNMD0020220726150638    1C0C  00002000000000048000000109032DE    TVYEV-TV002700430014
BI00B32DE    TCT2091        202208047283-5843                CONNECTOR                CCN000001500000001500FN00000000020220901000001500NNMD0020220726150638    1N0N  00000150000000889000001132032DE    TVYEV-TV005600390040
BI00B32DE    TCT2091        202208047283-5846                HOUSING                  CCN000001500000001500FN00000000020220901000001500NNMD0020220726150638    1N0N  00000150000000885000001102032DE    TVYEV-TV005600390040
BI00T32DE    @ICT208A       202208057183-3190                JOINT CONNECTOR          CCN000014400000014400FN00000000020220801000014400NNED0020220726165408    3F0F  00000360000000457600000667832DE    TVYEV-TV005500360039
BI00B32EJ    T220725P02     202209297114-4100-02             TERMINAL                 CCN000126000000126000FN00000000020220901000126000NNE   20220726130546EJ  4P0P  00001800000000748800001077432EJ    EJYKBO  006400630017
BI00B32EJ    T220725P02     202209297116-4122-02             TERMINAL                 CCN000040500000040500FN00000000020220901000040500NNE   20220726130546EJ  4P0P  00000450000000656600000950232EJ    EJYKBO  006400630015
BI00B32EJ    T220725P01     202211247114-4100-02             TERMINAL                 CCN000288000000288000FN00000000020221101000288000NNE   20220726130546EJ  4P0P  00001800000000748800001077432EJ    EJYKBO  006400630017
BI00B32EJ    T220725P01     202211247116-4122-02             TERMINAL                 CCN000040500000040500FN00000000020221101000040500NNE   20220726130546EJ  4P0P  00000450000000656600000950232EJ    EJYKBO  006400630015
BI00A32K8    #K1220011306   202208017137-2719-50             SEALED CONNECTOR         CCN000015000000005000FN00000000020220801000005000NNMM0020220726155712    2C0C  00000100000000120700000185732K8    ELELCOM 002700430014
BI00B32K8    #K1220011306   202209237137-2719-50             SEALED CONNECTOR         CCN000010000000010000FN00000000020220801000010000NNMD0420220726155726    2C0C  00000100000000120700000185732K8    ELELCOM 002700430014
BI00A32M4    #TL2074B       202207277183-2419                HOUSING                  CCN000004800000004800FN00000000020220701000004800NNED0720220726130546    2F0F  00000480000001065600001352732M4    SISAI   005500360039
BI00B32N1    NST2121E       202208047116-3153-02             TERMINAL FEMALE          CCN000027000000027000FN00000000020220901000027000NNMQ0020220726165200    4P0P  00002700000000459000000744232N1    TAYIPL  006400630015
BI00B32N1    NST2121E-1     202208187116-3153-02             TERMINAL FEMALE          CCN000027000000000000FY00000000020220901000000000NNEQ0820220726114933    4P0P  00002700000000459000000744232N1    TAYIPL  006400630015
BI00B32N1    NST2121JCU     202208187114-4021                TERMINAL                 CCN000015000000015000FN00000000020220901000015000NNED0020220726131634    4P0P  00001500000000670500000964132N1    TAYIPL  006400630015
BI00B32N1    NST2121JCU     202208187114-4031                TERMINAL                 CCN000094500000094500FN00000000020220901000094500NNED0020220726131634    4P0P  00001050000000966000001294632N1    TAYIPL  006400630017
BI00B32N1    NST2121JCU     202208187114-4415-02             TERMINAL MALE            CCN000081000000081000FN00000000020220901000081000NNED0020220726131634    4P0P  00002700000000429300000717532N1    TAYIPL  006400630015
BI00B32N1    NST2121JCU     202208187116-1180                TERMINAL                 CCN000039000000039000FN00000000020220901000039000NNED0020220726131634    1P0P  00001950000000618200000903432N1    TAYIPL  006400630015
BI00B32N1    NST2121JCU     202208187116-4122-02             TERMINAL                 CCN000040500000040500FN00000000020220901000040500NNED0020220726131634    4P0P  00000450000000656600000950232N1    TAYIPL  006400630015
BI00B32N1    NST2121JCU     202208187116-4231-02             TERMINAL                 CCN000182000000182000FN00000000020220901000182000NNED0020220726131634    4P0P  00002600000000683800001012532N1    TAYIPL  006400630017
BI00B32N1    NST2121JCU     202208187116-6042                TERMINAL                 CCN000003000000003000FN00000000020220901000003000NNED0020220726131634    4P0P  00000300000000523800000856132N1    TAYIPL  006400630015
BI00B32N1    NST2121JCU     202208187157-6287-70             SPACER                   CCN000070000000070000FN00000000020220901000070000NNED0020220726131634    1F0F  00007000000000700000000963032N1    TAYIPL  005500360039
BI00B32N1    NST2121JCU     202208187158-3070-80             RUBBER STOPPER           CCN000240000000240000FN00000000020220901000240000NNED0020220726131634    1C0C  00004000000000276000000333332N1    TAYIPL  002700430014
BI00B32N1    NST2121JCU     202208187158-3166-60             WIRE SEAL                CCN000280000000280000FN00000000020220901000280000NNED0020220726131634    1C0C  00004000000000104000000152432N1    TAYIPL  002700430014
BI00B32N1    NST2121JCU     202208187158-3167-80             WIRE SEAL                CCN000440000000440000FN00000000020220901000440000NNED0020220726131634    1C0C  00002000000000048000000109032N1    TAYIPL  002700430014
BI00B32N1    NST2121JCU     202208187158-3168-80             SEALED                   CCN001120000001120000FN00000000020220901001120000NNED0020220726131634    1C0C  00002000000000044000000092132N1    TAYIPL  004300260014
BI00B32N1    NST2121JCU     202208187196-0805-02             TERMINAL FEMALE          CCN000090000000090000FN00000000020220901000090000NNED0020220726131634    4P0P  00002250000000558000000843232N1    TAYIPL  006400630015
BI00B32N1    NST2121JCU     202208187222-7564-40             CONNECTOR                CCN000001500000001500FN00000000020220901000001500NNED0020220726131634    1N0N  00000050000000967000001097032N1    TAYIPL  005500360039
BI00B32N1    NST2121JCU     202208187289-6524-30             HOUSING FEMALE ASS'Y     CCN000004320000004320FN00000000020220901000004320NNED0020220726131634    4N0N  00000024000001351200001666232N1    TAYIPL  005500360039
BI00B32N1    NST2121JCU     202208187116-3154-02             TERMINAL FEMALE          CCN004023000004023000FN00000000020220901004023000NNED0020220726131634    4P0P  00002700000000469800000755032N1    TAYIPL  006400630015
BI00B32N1    #NST2121JCU    202208187116-4021                TERMINAL                 CCN000027000000027000FN00000000020220901000027000NNED0020220726131705    2F0P  00001350000000534600000868832N1    TAYIPL  006400630015
BI00B32N1    #NST2121JCU    202208187158-3008-80             RUBBER STOPPER           CCN000020000000020000FN00000000020220901000020000NNED0020220726131705    2C0C  00002000000000288000000343032N1    TAYIPL  004300270014
BI00B32N1    #NST2121JCU    202208187174-1315-30             SEALED COVER             CCN000004000000004000FN00000000020220901000004000NNED0020220726131629    2F0F  00000080000000782000000902032N1    TAYIPL  005500360039
BI00B32N1    #NST2121JCU    202208187183-1616                CONNECTOR HOUSING        CCN000002400000002400FN00000000020220901000002400NNED0020220726131629    2F0F  00000240000000557500000823332N1    TAYIPL  005500360039
BI00B32N1    #NST2121JCU    202208187189-3037                HOUSING FEMALE           CCN000009600000009600FN00000000020220901000009600NNED0020220726131629    2F0F  00000480000000806400001066432N1    TAYIPL  005500360039
BI00B32N1    #NST2121JCU    202208187282-7424                CONNECTOR                CCN000012000000012000FN00000000020220901000012000NNED0020220726131629    2N0N  00000400000001064000001243032N1    TAYIPL  005500360039
BI00B32N1    NST2121HCU     202208187283-5843                CONNECTOR                CCN000004500000000000FY00000000020220901000000000NNEQ0820220726132444    1N0N  00000150000000889000001132032N1    TAYIPL  005600390040
BI00B32N1    #NST2121HCU    202208187289-2912-30             HOUSING FEMALE ASS'Y     CCN000006000000000000FY00000000020220901000000000NNEQ0820220726132524    2N0N  00000200000000804000000929032N1    TAYIPL  005400370024
BI00B32Q8    EU22103 MW     202207277283-7062-30             CONNECTOR HOUSING        CCN000001920000002400FN00000000020221001000002400NNMD0020220726151553    1N0N  00000060000000500400000645432Q8    EMEMI   005400370024
BI00B32Q8    EU22104 MW     202207277283-7062-30             CONNECTOR HOUSING        CCN000002880000003000FN00000000020221001000003000NNMD0020220726145559    1N0N  00000060000000500400000645432Q8    EMEMI   005400370024
BI00B32Q8    EU22103TMW     202208247283-1144-90             CONNECTOR                CCN000002400000002400FN00000000020221001000002400NNMD0020220726133930    4N0N  00000240000000602200000866132Q8    EMEMI   005500360039
BI00B32Q8    EU2209G MW     202207277283-7062-30             CONNECTOR HOUSING        CCN000004800000003000FN00000000020220901000003000NNEQ0020220726160243    1N0N  00000060000000500400000645432Q8    EMEMI   005400370024
BI00B32Q8    EU2209H MW     202208037283-7062-30             CONNECTOR HOUSING        CCN000004800000004800FN00000000020220901000004800NNE   20220726153421    1N0N  00000060000000500400000645432Q8    EMEMI   005400370024
BI00B32Q8    EU2209G MW     202208037283-7062-30             CONNECTOR HOUSING        CCN000001800000001800FN00000000020220901000001800NNED0720220726160231    1N0N  00000060000000500400000645432Q8    EMEMI   005400370024
BI00B32R7    R-TAP220314    202208117116-4121-02             TERMINAL                 CCN000022500000022500FN00000000020220801000022500NNE   20220726130546    4P0P  00000450000000618800000912432R7    IVYCIC  006400630015
BI00B32R7    R-TAP220315    202208117116-4025                TERMINAL                 CCN000016000000016000FN00000000020220801000016000NNE   20220726130546    4P0P  00001600000000644800000975132R7    IVYCIC  006400630017
BI00B32R7    R-TAP220315    202208117158-3006-90             RUBBER STOPPER           CCN000120000000120000FN00000000020220801000120000NNE   20220726130546    1C0C  00002000000000330600000386032R7    IVYCIC  002700430014
BI00B32R7    #R-TAP220316   202208117283-8397-40             CONNECTOR                CCN000006160000006160FN00000000020220801000006160NNE   20220726130546    2N0N  00000154000001007000001222732R7    IVYCIC  005600390023
BI00A32W4    4500194400     202207257116-4111-02             TERMINAL                 CCN000007500000007500FY00000750020220701000000000NNE00020220726113449W4494P0P  00000750000000529500000817732W449  HJYHK   006400630015
BI00A32W4    4500194636     202207257283-7028-30             CONNECTOR                CCN000003000000003000FY00000300020220801000000000NNED0020220726113520W4M54N0N  00000300000001452000001681332W4M5  HJYHK-J 005600390040
BI00A32W4    4500197404     202210067158-3167-80             WIRE SEAL                CCN000040000000040000FN00000000020221001000040000NNE   20220726130546W4M61C0C  00002000000000048000000109032W4M6  HJYHK-J 002700430014
BI00B32W4    4500197419     202209157116-4120-02             TERMINAL                 CCN000006000000006000FN00000000020220901000006000NNE   20220726130546W46 4P0P  00000600000000780000001073632W46   HJYHK   006400630015
BI00B32W4    4500197419     202209157116-4122-02             TERMINAL                 CCN000004500000004500FN00000000020220901000004500NNE   20220726130546W46 4P0P  00000450000000656600000950232W46   HJYHK   006400630015
BI00B32W4    4500197419     202209157116-2951-02             TERMINAL                 CCN000005400000005400FN00000000020220901000005400NNE   20220726130546W46 4P0P  00000540000000817600001111832W46   HJYHK   006400630015
BI00B32W4    4500197419     202209157116-4026                TERMINAL                 CCN000016000000016000FN00000000020220901000016000NNE   20220726130546W46 4P0P  00001600000000664000000994332W46   HJYHK   006400630017
BI00B32W4    4500197419     202209157114-4101-02             TERMINAL                 CCN000015000000015000FN00000000020220901000015000NNE   20220726130546W46 4P0P  00001500000000675000001003632W46   HJYHK   006400630017
BI00B32W4    4500197419     202209157114-4112-02             TERMINAL                 CCN000009000000009000FN00000000020220901000009000NNE   20220726130546W46 4P0P  00000900000000598500000927132W46   HJYHK   006400630017
BI00B32W4    4500197419     202209157116-4121-02             TERMINAL                 CCN000009000000009000FN00000000020220901000009000NNE   20220726130546W46 4P0P  00000450000000618800000912432W46   HJYHK   006400630015
BI00B32W4    4500197419     202209157114-4111-02             TERMINAL                 CCN000012000000012000FN00000000020220901000012000NNE   20220726130546W46 4P0P  00001200000000758400001087032W46   HJYHK   006400630017
BI00B32W4    #4500197419    202209157158-3007-10             RUBBER STOPPER           CCN000020000000020000FN00000000020220901000020000NNE   20220726130546W46 2H0H  00002000000000308000000362732W46   HJYHK   002700430014
BI00B32W4    4500197420     202210067116-4120-02             TERMINAL                 CCN000006000000006000FN00000000020221001000006000NNE   20220726130546W46 4P0P  00000600000000780000001073632W46   HJYHK   006400630015
BI00B32W4    4500197420     202210067116-4122-02             TERMINAL                 CCN000009000000009000FN00000000020221001000009000NNE   20220726130546W46 4P0P  00000450000000656600000950232W46   HJYHK   006400630015
BI00B32W4    4500197420     202210067114-4101-02             TERMINAL                 CCN000015000000015000FN00000000020221001000015000NNE   20220726130546W46 4P0P  00001500000000675000001003632W46   HJYHK   006400630017
BI00B32W4    4500197420     202210067114-4112-02             TERMINAL                 CCN000027000000027000FN00000000020221001000027000NNE   20220726130546W46 4P0P  00000900000000598500000927132W46   HJYHK   006400630017
BI00B32W4    4500197420     202210067114-4100-02             TERMINAL                 CCN000072000000072000FN00000000020221001000072000NNE   20220726130546W46 4P0P  00001800000000748800001077432W46   HJYHK   006400630017
BI00B32W4    4500197420     202210067116-4121-02             TERMINAL                 CCN000018000000018000FN00000000020221001000018000NNE   20220726130546W46 4P0P  00000450000000618800000912432W46   HJYHK   006400630015
BI00B32W4    4500197420     202210067114-4111-02             TERMINAL                 CCN000024000000024000FN00000000020221001000024000NNE   20220726130546W46 4P0P  00001200000000758400001087032W46   HJYHK   006400630017
BI00B32W4    4500197420     202210067116-4102-02             TERMINAL                 CCN000012000000012000FN00000000020221001000012000NNE   20220726130546W46 4P0P  00001200000000553200000841432W46   HJYHK   006400630015
BI00B32W4    #4500197420    202210067158-3121-80             WIRE SEAL                CCN000020000000020000FN00000000020221001000020000NNE   20220726130546W46 2C0C  00002000000000118000000187332W46   HJYHK   002700430014
BI00B32W4    #4500197436    202208167157-7812                SEAL RUBBER              CCN000020000000020000FN00000000020220801000020000NNE   20220726130546W42 2C0C  00001000000000137000000202032W42   HJYHK   002700430014
BI00B32W4    #4500197436    202208167158-3003-90             RUBBER STOPPER           CCN000020000000020000FN00000000020220801000020000NNE   20220726130546W42 2C0C  00002000000000250000000306032W42   HJYHK   002700430014
BI00B32W9    #4500197411    202208097283-8398-40             CONNECTOR                CCN000053900000053900FN00000000020220801000053900NNE   20220726130546W9  2N0N  00000154000001007000001171332W9    HKYHK   005600390023
BI00B32W9    4500197412     202208097289-9553-50             SEALED ASSY FEMALE       CCN000008820000008820FN00000000020220801000008820NNE   20220726130546W9  4N0N  00000294000001108100001520632W9    HKYHK   005500360039
BI00B1200    8640T52801     202209297288-3329-30             HOUSING MALE             CCN000001500000001500FN00000000020221001000001500NNE   20220726130546    4N0N  0000015000000086610000101111200    YCYC    005400370024
BI00B1200    8640T52801     202209297288-3340-30             HOUSING MALE             CCN000001500000001500FN00000000020221001000001500NNE   20220726130546    4N0N  0000015000000086150000100641200    YCYC    005400370024
BI00B1200    8640T52801     202209297289-3342-30             HOUSING FEMALE ASS'Y     CCN000002400000002400FN00000000020221001000002400NNE   20220726130546    1N0N  0000024000000068640000090141200    YCYC    005500360039
BI00B1200    #MKH2022-116   202209017282-1214-51             CONNECTOR                CCN000001000000001000FN00000000020220901000001000NNE   20220726130546    2N0N  0000010000000112000000129201200    YCYC    005500360039
BI00B32AG    XG2209AGMW     202208267327-6840-3W             BATTERY FUSE             CCN000001224000001224FN00000000020220901000001224NNE   20220726130546    4N0N  00000007200001140900001355932AG    XGXGY   005500360039
BI00B32AG    XG2209ELMW     202208197388-0314                CONNECTOR ASS'Y          CCN000001200000001200FN00000000020220901000001200NNE   20220726130546    4N0N  00000120000001038000001132332AG    XGXGY   005400370024
BI00A32CA    CA-188-004     202208047386-2747                CONNECTOR ASS'Y          CCN000004000000004000FN00000000020220701000004000NNEM0020220726130546    4N0N  00000200000001162000001284532CA    YPYPY   005400370024
BI00B32CG    S220726-S      202210267116-4121-02             TERMINAL                 CCN000004500000004500FN00000000020221001000004500NNE   20220726130546    4P0P  00000450000000618800000912432CG    ASASIACO006400630015
BI00B32CG    S220726-S      202210267116-4111-02             TERMINAL                 CCN000015000000015000FN00000000020221001000015000NNE   20220726130546    4P0P  00000750000000529500000817732CG    ASASIACO006400630015
BI00B32CG    S220726-G      202210267116-4120-02             TERMINAL                 CCN000006000000006000FN00000000020221001000006000NNE   20220726130546    4P0P  00000600000000780000001073632CG    ASASIACO006400630015
BI00B32CG    S220726-G      202210267114-4111-02             TERMINAL                 CCN000012000000012000FN00000000020221001000012000NNE   20220726130546    4P0P  00001200000000758400001087032CG    ASASIACO006400630017
BI00B32CG    #S220726-G     202210267158-3376-50             CONNECTOR WIRE SEAL      CCN000020000000020000FN00000000020221001000020000NNE   20220726130546    2C0C  00002000000000184000000240732CG    ASASIACO002700430014
BI00B32DE    TCT2091        202208047158-3167-80             WIRE SEAL                CCN000080000000080000FN00000000020220901000080000NNMD0020220726150638    1C0C  00002000000000048000000109032DE    TVYEV-TV002700430014
BI00B32DE    TCT2091        202208047283-5843                CONNECTOR                CCN000001500000001500FN00000000020220901000001500NNMD0020220726150638    1N0N  00000150000000889000001132032DE    TVYEV-TV005600390040
BI00B32DE    TCT2091        202208047283-5846                HOUSING                  CCN000001500000001500FN00000000020220901000001500NNMD0020220726150638    1N0N  00000150000000885000001102032DE    TVYEV-TV005600390040
BI00T32DE    @ICT208A       202208057183-3190                JOINT CONNECTOR          CCN000014400000014400FN00000000020220801000014400NNED0020220726165408    3F0F  00000360000000457600000667832DE    TVYEV-TV005500360039
BI00B32EJ    T220725P02     202209297114-4100-02             TERMINAL                 CCN000126000000126000FN00000000020220901000126000NNE   20220726130546EJ  4P0P  00001800000000748800001077432EJ    EJYKBO  006400630017
BI00B32EJ    T220725P02     202209297116-4122-02             TERMINAL                 CCN000040500000040500FN00000000020220901000040500NNE   20220726130546EJ  4P0P  00000450000000656600000950232EJ    EJYKBO  006400630015
BI00B32EJ    T220725P01     202211247114-4100-02             TERMINAL                 CCN000288000000288000FN00000000020221101000288000NNE   20220726130546EJ  4P0P  00001800000000748800001077432EJ    EJYKBO  006400630017
BI00B32EJ    T220725P01     202211247116-4122-02             TERMINAL                 CCN000040500000040500FN00000000020221101000040500NNE   20220726130546EJ  4P0P  00000450000000656600000950232EJ    EJYKBO  006400630015
BI00A32K8    #K1220011306   202208017137-2719-50             SEALED CONNECTOR         CCN000015000000005000FN00000000020220801000005000NNMM0020220726155712    2C0C  00000100000000120700000185732K8    ELELCOM 002700430014
BI00B32K8    #K1220011306   202209237137-2719-50             SEALED CONNECTOR         CCN000010000000010000FN00000000020220801000010000NNMD0420220726155726    2C0C  00000100000000120700000185732K8    ELELCOM 002700430014
BI00A32M4    #TL2074B       202207277183-2419                HOUSING                  CCN000004800000004800FN00000000020220701000004800NNED0720220726130546    2F0F  00000480000001065600001352732M4    SISAI   005500360039
BI00B32N1    NST2121E       202208047116-3153-02             TERMINAL FEMALE          CCN000027000000027000FN00000000020220901000027000NNMQ0020220726165200    4P0P  00002700000000459000000744232N1    TAYIPL  006400630015
BI00B32N1    NST2121E-1     202208187116-3153-02             TERMINAL FEMALE          CCN000027000000000000FY00000000020220901000000000NNEQ0820220726114933    4P0P  00002700000000459000000744232N1    TAYIPL  006400630015
BI00B32N1    NST2121JCU     202208187114-4021                TERMINAL                 CCN000015000000015000FN00000000020220901000015000NNED0020220726131634    4P0P  00001500000000670500000964132N1    TAYIPL  006400630015
BI00B32N1    NST2121JCU     202208187114-4031                TERMINAL                 CCN000094500000094500FN00000000020220901000094500NNED0020220726131634    4P0P  00001050000000966000001294632N1    TAYIPL  006400630017
BI00B32N1    NST2121JCU     202208187114-4415-02             TERMINAL MALE            CCN000081000000081000FN00000000020220901000081000NNED0020220726131634    4P0P  00002700000000429300000717532N1    TAYIPL  006400630015
BI00B32N1    NST2121JCU     202208187116-1180                TERMINAL                 CCN000039000000039000FN00000000020220901000039000NNED0020220726131634    1P0P  00001950000000618200000903432N1    TAYIPL  006400630015
BI00B32N1    NST2121JCU     202208187116-4122-02             TERMINAL                 CCN000040500000040500FN00000000020220901000040500NNED0020220726131634    4P0P  00000450000000656600000950232N1    TAYIPL  006400630015
BI00B32N1    NST2121JCU     202208187116-4231-02             TERMINAL                 CCN000182000000182000FN00000000020220901000182000NNED0020220726131634    4P0P  00002600000000683800001012532N1    TAYIPL  006400630017
BI00B32N1    NST2121JCU     202208187116-6042                TERMINAL                 CCN000003000000003000FN00000000020220901000003000NNED0020220726131634    4P0P  00000300000000523800000856132N1    TAYIPL  006400630015
BI00B32N1    NST2121JCU     202208187157-6287-70             SPACER                   CCN000070000000070000FN00000000020220901000070000NNED0020220726131634    1F0F  00007000000000700000000963032N1    TAYIPL  005500360039
BI00B32N1    NST2121JCU     202208187158-3070-80             RUBBER STOPPER           CCN000240000000240000FN00000000020220901000240000NNED0020220726131634    1C0C  00004000000000276000000333332N1    TAYIPL  002700430014
BI00B32N1    NST2121JCU     202208187158-3166-60             WIRE SEAL                CCN000280000000280000FN00000000020220901000280000NNED0020220726131634    1C0C  00004000000000104000000152432N1    TAYIPL  002700430014
BI00B32N1    NST2121JCU     202208187158-3167-80             WIRE SEAL                CCN000440000000440000FN00000000020220901000440000NNED0020220726131634    1C0C  00002000000000048000000109032N1    TAYIPL  002700430014
BI00B32N1    NST2121JCU     202208187158-3168-80             SEALED                   CCN001120000001120000FN00000000020220901001120000NNED0020220726131634    1C0C  00002000000000044000000092132N1    TAYIPL  004300260014
BI00B32N1    NST2121JCU     202208187196-0805-02             TERMINAL FEMALE          CCN000090000000090000FN00000000020220901000090000NNED0020220726131634    4P0P  00002250000000558000000843232N1    TAYIPL  006400630015
BI00B32N1    NST2121JCU     202208187222-7564-40             CONNECTOR                CCN000001500000001500FN00000000020220901000001500NNED0020220726131634    1N0N  00000050000000967000001097032N1    TAYIPL  005500360039
BI00B32N1    NST2121JCU     202208187289-6524-30             HOUSING FEMALE ASS'Y     CCN000004320000004320FN00000000020220901000004320NNED0020220726131634    4N0N  00000024000001351200001666232N1    TAYIPL  005500360039
BI00B32N1    NST2121JCU     202208187116-3154-02             TERMINAL FEMALE          CCN004023000004023000FN00000000020220901004023000NNED0020220726131634    4P0P  00002700000000469800000755032N1    TAYIPL  006400630015
BI00B32N1    #NST2121JCU    202208187116-4021                TERMINAL                 CCN000027000000027000FN00000000020220901000027000NNED0020220726131705    2F0P  00001350000000534600000868832N1    TAYIPL  006400630015
BI00B32N1    #NST2121JCU    202208187158-3008-80             RUBBER STOPPER           CCN000020000000020000FN00000000020220901000020000NNED0020220726131705    2C0C  00002000000000288000000343032N1    TAYIPL  004300270014
BI00B32N1    #NST2121JCU    202208187174-1315-30             SEALED COVER             CCN000004000000004000FN00000000020220901000004000NNED0020220726131629    2F0F  00000080000000782000000902032N1    TAYIPL  005500360039
BI00B32N1    #NST2121JCU    202208187183-1616                CONNECTOR HOUSING        CCN000002400000002400FN00000000020220901000002400NNED0020220726131629    2F0F  00000240000000557500000823332N1    TAYIPL  005500360039
BI00B32N1    #NST2121JCU    202208187189-3037                HOUSING FEMALE           CCN000009600000009600FN00000000020220901000009600NNED0020220726131629    2F0F  00000480000000806400001066432N1    TAYIPL  005500360039
BI00B32N1    #NST2121JCU    202208187282-7424                CONNECTOR                CCN000012000000012000FN00000000020220901000012000NNED0020220726131629    2N0N  00000400000001064000001243032N1    TAYIPL  005500360039
BI00B32N1    NST2121HCU     202208187283-5843                CONNECTOR                CCN000004500000000000FY00000000020220901000000000NNEQ0820220726132444    1N0N  00000150000000889000001132032N1    TAYIPL  005600390040
BI00B32N1    #NST2121HCU    202208187289-2912-30             HOUSING FEMALE ASS'Y     CCN000006000000000000FY00000000020220901000000000NNEQ0820220726132524    2N0N  00000200000000804000000929032N1    TAYIPL  005400370024
BI00B32Q8    EU22103 MW     202207277283-7062-30             CONNECTOR HOUSING        CCN000001920000002400FN00000000020221001000002400NNMD0020220726151553    1N0N  00000060000000500400000645432Q8    EMEMI   005400370024
BI00B32Q8    EU22104 MW     202207277283-7062-30             CONNECTOR HOUSING        CCN000002880000003000FN00000000020221001000003000NNMD0020220726145559    1N0N  00000060000000500400000645432Q8    EMEMI   005400370024
BI00B32Q8    EU22103TMW     202208247283-1144-90             CONNECTOR                CCN000002400000002400FN00000000020221001000002400NNMD0020220726133930    4N0N  00000240000000602200000866132Q8    EMEMI   005500360039
BI00B32Q8    EU2209G MW     202207277283-7062-30             CONNECTOR HOUSING        CCN000004800000003000FN00000000020220901000003000NNEQ0020220726160243    1N0N  00000060000000500400000645432Q8    EMEMI   005400370024
BI00B32Q8    EU2209H MW     202208037283-7062-30             CONNECTOR HOUSING        CCN000004800000004800FN00000000020220901000004800NNE   20220726153421    1N0N  00000060000000500400000645432Q8    EMEMI   005400370024
BI00B32Q8    EU2209G MW     202208037283-7062-30             CONNECTOR HOUSING        CCN000001800000001800FN00000000020220901000001800NNED0720220726160231    1N0N  00000060000000500400000645432Q8    EMEMI   005400370024
BI00B32R7    R-TAP220314    202208117116-4121-02             TERMINAL                 CCN000022500000022500FN00000000020220801000022500NNE   20220726130546    4P0P  00000450000000618800000912432R7    IVYCIC  006400630015
BI00B32R7    R-TAP220315    202208117116-4025                TERMINAL                 CCN000016000000016000FN00000000020220801000016000NNE   20220726130546    4P0P  00001600000000644800000975132R7    IVYCIC  006400630017
BI00B32R7    R-TAP220315    202208117158-3006-90             RUBBER STOPPER           CCN000120000000120000FN00000000020220801000120000NNE   20220726130546    1C0C  00002000000000330600000386032R7    IVYCIC  002700430014
BI00B32R7    #R-TAP220316   202208117283-8397-40             CONNECTOR                CCN000006160000006160FN00000000020220801000006160NNE   20220726130546    2N0N  00000154000001007000001222732R7    IVYCIC  005600390023
BI00A32W4    4500194400     202207257116-4111-02             TERMINAL                 CCN000007500000007500FY00000750020220701000000000NNE00020220726113449W4494P0P  00000750000000529500000817732W449  HJYHK   006400630015
BI00A32W4    4500194636     202207257283-7028-30             CONNECTOR                CCN000003000000003000FY00000300020220801000000000NNED0020220726113520W4M54N0N  00000300000001452000001681332W4M5  HJYHK-J 005600390040
BI00A32W4    4500197404     202210067158-3167-80             WIRE SEAL                CCN000040000000040000FN00000000020221001000040000NNE   20220726130546W4M61C0C  00002000000000048000000109032W4M6  HJYHK-J 002700430014
BI00B32W4    4500197419     202209157116-4120-02             TERMINAL                 CCN000006000000006000FN00000000020220901000006000NNE   20220726130546W46 4P0P  00000600000000780000001073632W46   HJYHK   006400630015
BI00B32W4    4500197419     202209157116-4122-02             TERMINAL                 CCN000004500000004500FN00000000020220901000004500NNE   20220726130546W46 4P0P  00000450000000656600000950232W46   HJYHK   006400630015
BI00B32W4    4500197419     202209157116-2951-02             TERMINAL                 CCN000005400000005400FN00000000020220901000005400NNE   20220726130546W46 4P0P  00000540000000817600001111832W46   HJYHK   006400630015
BI00B32W4    4500197419     202209157116-4026                TERMINAL                 CCN000016000000016000FN00000000020220901000016000NNE   20220726130546W46 4P0P  00001600000000664000000994332W46   HJYHK   006400630017
BI00B32W4    4500197419     202209157114-4101-02             TERMINAL                 CCN000015000000015000FN00000000020220901000015000NNE   20220726130546W46 4P0P  00001500000000675000001003632W46   HJYHK   006400630017
BI00B32W4    4500197419     202209157114-4112-02             TERMINAL                 CCN000009000000009000FN00000000020220901000009000NNE   20220726130546W46 4P0P  00000900000000598500000927132W46   HJYHK   006400630017
BI00B32W4    4500197419     202209157116-4121-02             TERMINAL                 CCN000009000000009000FN00000000020220901000009000NNE   20220726130546W46 4P0P  00000450000000618800000912432W46   HJYHK   006400630015
BI00B32W4    4500197419     202209157114-4111-02             TERMINAL                 CCN000012000000012000FN00000000020220901000012000NNE   20220726130546W46 4P0P  00001200000000758400001087032W46   HJYHK   006400630017
BI00B32W4    #4500197419    202209157158-3007-10             RUBBER STOPPER           CCN000020000000020000FN00000000020220901000020000NNE   20220726130546W46 2H0H  00002000000000308000000362732W46   HJYHK   002700430014
BI00B32W4    4500197420     202210067116-4120-02             TERMINAL                 CCN000006000000006000FN00000000020221001000006000NNE   20220726130546W46 4P0P  00000600000000780000001073632W46   HJYHK   006400630015
BI00B32W4    4500197420     202210067116-4122-02             TERMINAL                 CCN000009000000009000FN00000000020221001000009000NNE   20220726130546W46 4P0P  00000450000000656600000950232W46   HJYHK   006400630015
BI00B32W4    4500197420     202210067114-4101-02             TERMINAL                 CCN000015000000015000FN00000000020221001000015000NNE   20220726130546W46 4P0P  00001500000000675000001003632W46   HJYHK   006400630017
BI00B32W4    4500197420     202210067114-4112-02             TERMINAL                 CCN000027000000027000FN00000000020221001000027000NNE   20220726130546W46 4P0P  00000900000000598500000927132W46   HJYHK   006400630017
BI00B32W4    4500197420     202210067114-4100-02             TERMINAL                 CCN000072000000072000FN00000000020221001000072000NNE   20220726130546W46 4P0P  00001800000000748800001077432W46   HJYHK   006400630017
BI00B32W4    4500197420     202210067116-4121-02             TERMINAL                 CCN000018000000018000FN00000000020221001000018000NNE   20220726130546W46 4P0P  00000450000000618800000912432W46   HJYHK   006400630015
BI00B32W4    4500197420     202210067114-4111-02             TERMINAL                 CCN000024000000024000FN00000000020221001000024000NNE   20220726130546W46 4P0P  00001200000000758400001087032W46   HJYHK   006400630017
BI00B32W4    4500197420     202210067116-4102-02             TERMINAL                 CCN000012000000012000FN00000000020221001000012000NNE   20220726130546W46 4P0P  00001200000000553200000841432W46   HJYHK   006400630015
BI00B32W4    #4500197420    202210067158-3121-80             WIRE SEAL                CCN000020000000020000FN00000000020221001000020000NNE   20220726130546W46 2C0C  00002000000000118000000187332W46   HJYHK   002700430014
BI00B32W4    #4500197436    202208167157-7812                SEAL RUBBER              CCN000020000000020000FN00000000020220801000020000NNE   20220726130546W42 2C0C  00001000000000137000000202032W42   HJYHK   002700430014
BI00B32W4    #4500197436    202208167158-3003-90             RUBBER STOPPER           CCN000020000000020000FN00000000020220801000020000NNE   20220726130546W42 2C0C  00002000000000250000000306032W42   HJYHK   002700430014
BI00B32W9    #4500197411    202208097283-8398-40             CONNECTOR                CCN000053900000053900FN00000000020220801000053900NNE   20220726130546W9  2N0N  00000154000001007000001171332W9    HKYHK   005600390023
BI00B32W9    4500197412     202208097289-9553-50             SEALED ASSY FEMALE       CCN000008820000008820FN00000000020220801000008820NNE   20220726130546W9  4N0N  00000294000001108100001520632W9    HKYHK   005500360039