BI00A32CJ    TTQ208D        2022072618000004550              AV 8 R                   CCN000000400000000400FN00000000020220701000000400NNE   20220726164014    1W    00000010000010466200000000032CJ    QNYHVQN 000000000000UM426003
BI00A32CJ    TTQ208D        2022072618007704130              AVSS 1.25F B             CCN000002400000002400FN00000000020220701000002400NNE   20220726164014    1W    00000080000001389000000000032CJ    QNYHVQN 000000000000UM426004
BI00A32CJ    @TTQ208D       20220726181B32012ZZ              AVSSCS 0.3FX2 DGY/BR     CCN000000700000000700FN00000000020220701000000700NNE   20220726164014    1W    00000035000002276000000000032CJ    QNYHVQN 000000000000UM426002
BI00B32DE    TT2094         2022081118007704190              AVSS 1.25F L             CCN000001600000001600FN00000000020220901000001600NNM20 20220726120445    1W    00000080000001389000000000032DE    TVYEV-TV000000000000VT328108
BI00B32D1    @DFTW2241C     20220818181E50020ZZ              AVSSCS-S 0.3FX2 DGY/R    CCN000000700000000700FN00000000020221001000000700NNE   20220726120445    1W    00000035000002165000000000032D1    TOYOT-K 000000000000KK128004
BI00B32D1    @DFTW2241C     20220818181E50036ZZ              AVSSCS-S 0.3FX2 DGY      CCN000000700000000700FN00000000020221001000000700NNE   20220726120445    1W    00000035000002165000000000032D1    TOYOT-K 000000000000KK128003
BI00B32D2    @DGTW2241C     20220818181E50016ZZ              AVSSCS-S 0.5FX2 DGY/R    CCN000001800000001800FN00000000020221001000001800NNE   20220726120445    1W    00000030000003096000000000032D2    TGYOT-G 000000000000KP128007
BI00B32D2    @DGTW2241C     20220818181F21014ZZ              AVSSHCS-S 0.5FX2 B/L     CCN000002100000002100FN00000000020221001000002100NNE   20220726120445    1W    00000030000002531400000000032D2    TGYOT-G 000000000000KP128009
BI00B32D2    @DGTW2241C     20220818181F21016ZZ              AVSSHCS-S 0.5FX2 B/BR    CCN000003000000003000FN00000000020221001000003000NNE   20220726120445    1W    00000030000002531400000000032D2    TGYOT-G 000000000000KP128008
BI00B32D2    @DGTW2241C     20220818181F21031ZZ              AVSSHCS-S 1.25FX2 B/P    CCN000002200000002200FN00000000020221001000002200NNE   20220726120445    1W    00000020000004267300000000032D2    TGYOT-G 000000000000KP128010
BI00B32G2    SA2208BJMW     202208101801W00395U              IVSSH 0.5F BE            CCN000001200000001800FN00000000020220801000001800NNE   20220726120445    1W    00000180000000625000000000032G2    AISUAI  000000000000IU427001
BI00B32G2    SA2208BJMW     202208101801W00695U              IVSSH 0.35F BE           CCN000002500000002500FN00000000020220801000002500NNE   20220726120445    1W    00000250000000452000000000032G2    AISUAI  000000000000IU427002
BI00B32G7    @JW2209B MW    20220818181AD2008ZZ              CIVUSAS-S 0.5X2 B        CCN000001200000001200FN00000000020220901000001200NNE   20220726120445    1W    00000040000002028000000000032G7    JIJAI   000000000000JE128003
BI00B32G7    @JW2209B MW    20220818181E48060ZZ              CAVSAS-S 0.5X2 GY/V      CCN000001500000001500FN00000000020220901000001500NNE   20220726120445    1W    00000030000002561000000000032G7    JIJAI   000000000000JE128004
BI00B32G7    @JW2209BLMW    20220818181AD2021ZZ              CIVUSAS-S 0.35X2 B(L,GY) CCN000001350000001350FN00000000020220901000001350NNE   20220726120445    1W    00000045000001714000000000032G7    JIJAI   000000000000JF128001
BI00B32G7    @JW2209BLMW    20220818181AD2022ZZ              CIVUSAS-S 0.35X2 B(R,G)  CCN000000900000000900FN00000000020220901000000900NNE   20220726120445    1W    00000045000001714000000000032G7    JIJAI   000000000000JF128002
BI00B32G7    JW2209BMMW     202208181801W003943              IVSSH 0.5F W/B           CCN000003600000003600FN00000000020220901000003600NNE   20220726120445    1W    00000180000000625000000000032G7    JIJAI   000000000000JG128007
BI00B32G7    JW2209BMMW     202208181801W003950              IVSSH 0.5F R             CCN000009000000009000FN00000000020220901000009000NNE   20220726120445    1W    00000180000000625000000000032G7    JIJAI   000000000000JG128006
BI00B32G7    JW2209BMMW     202208181801W006950              IVSSH 0.35F R            CCN000002500000002500FN00000000020220901000002500NNE   20220726120445    1W    00000250000000452000000000032G7    JIJAI   000000000000JG128009
BI00B32G7    JW2209BMMW     202208181801W006960              IVSSH 0.35F G            CCN000017500000017500FN00000000020220901000017500NNE   20220726120445    1W    00000250000000452000000000032G7    JIJAI   000000000000JG128008
BI00B32H2    TAW209H        2022081918000004530              AV 8 B                   CCN000000200000000200FN00000000020220901000000200NNE   20220726120445    1W    00000010000010466200000000032H2    HVYHV   000000000000UF128005
BI00B32H2    TAW209H        2022081918007704150              AVSS 1.25F R             CCN000000800000000800FN00000000020220901000000800NNE   20220726120445    1W    00000080000001389000000000032H2    HVYHV   000000000000UF128006
BI00B32H2    TAW209H        2022081918007704140              AVSS 1.25F W             CCN000000800000000800FN00000000020220901000000800NNE   20220726120445    1W    00000080000001389000000000032H2    HVYHV   000000000000UF128007
BI00B32H2    @TAW209H       20220819181D6910230              AVSSHCS 0.5FX2 B         CCN000000600000000600FN00000000020220901000000600NNE   20220726120445    1W    00000030000002385000000000032H2    HVYHV   000000000000UF128003
BI00B32H2    @TAW209H       20220819181F21002ZZ              AVSSHCS-S 0.5FX1 B       CCN000002800000002800FN00000000020220901000002800NNE   20220726120445    1W    00000040000001908400000000032H2    HVYHV   000000000000UF128004
BI00B32H2    @TAW209H       20220819181AD2026ZZ              CIVUSAS-S 0.13X6 B       CCN000000300000000300FN00000000020220901000000300NNE   20220726120445    1W    00000030000002258300000000032H2    HVYHV   000000000000UF128002
BI00B32H8    @2207AKMW      20220729181B32102Y9              AVSSCS 0.5FX2 DGY/P      CCN000000300000000300FN00000000020220701000000300NNE30 20220726152155    1W    00000030000002903000000000032H8    TYTYC   000000000000LG326001
BI00B32M3    SM2208E MW     2022081118007703930              AVSS 0.5F B              CCN000013500000013500FN00000000020220801000013500NNE   20220726120445    1W    00000150000000674000000000032M3    SASAMI  000000000000QL427003
BI00B32N2    2152103969     2022072718007703929              AVSS 0.5F LG/W           CCN000001500000001500FN00000000020220601000001500NNE   20220726120445    1W    00000150000000674000000000032N2    YWYIPLTC000000000000KU327016
BI00B32N2    2152103969     2022072718007703930              AVSS 0.5F B              CCN000001500000001500FN00000000020220601000001500NNE   20220726120445    1W    00000150000000674000000000032N2    YWYIPLTC000000000000KU327015
BI00B32N2    2152103969     2022072718007703970              AVSS 0.5F Y              CCN000001500000001500FN00000000020220601000001500NNE   20220726120445    1W    00000150000000674000000000032N2    YWYIPLTC000000000000KU327017
BI00B32N2    2152103969     2022072718007704190              AVSS 1.25F L             CCN000000800000000800FN00000000020220601000000800NNE   20220726120445    1W    00000080000001389000000000032N2    YWYIPLTC000000000000KU327018
BI00B32N2    2152103969     2022072718007704195              AVSS 1.25F L/R           CCN000000800000000800FN00000000020220601000000800NNE   20220726120445    1W    00000080000001389000000000032N2    YWYIPLTC000000000000KU327019
BI00B32N2    2152104043     2022072718007703930              AVSS 0.5F B              CCN000003000000003000FN00000000020220701000003000NNE   20220726120445    1W    00000150000000674000000000032N2    YWYIPLTC000000000000KU327022
BI00B32N2    2152104043     2022072718007703941              AVSS 0.5F GY             CCN000001500000001500FN00000000020220701000001500NNE   20220726120445    1W    00000150000000674000000000032N2    YWYIPLTC000000000000KU327026
BI00B32N2    2152104043     2022072718007703951              AVSS 0.5F O              CCN000001500000001500FN00000000020220701000001500NNE   20220726120445    1W    00000150000000674000000000032N2    YWYIPLTC000000000000KU327028
BI00B32N2    2152104043     2022072718007703952              AVSS 0.5F P              CCN000001500000001500FN00000000020220701000001500NNE   20220726120445    1W    00000150000000674000000000032N2    YWYIPLTC000000000000KU327029
BI00B32N2    2152104043     2022072718007703960              AVSS 0.5F G              CCN000003000000003000FN00000000020220701000003000NNE   20220726120445    1W    00000150000000674000000000032N2    YWYIPLTC000000000000KU327024
BI00B32N2    2152104043     2022072718007703965              AVSS 0.5F G/R            CCN000001500000001500FN00000000020220701000001500NNE   20220726120445    1W    00000150000000674000000000032N2    YWYIPLTC000000000000KU327025
BI00B32N2    2152104043     2022072718007703970              AVSS 0.5F Y              CCN000004500000004500FN00000000020220701000004500NNE   20220726120445    1W    00000150000000674000000000032N2    YWYIPLTC000000000000KU327030
BI00B32N2    2152104043     2022072718007703975              AVSS 0.5F Y/R            CCN000001500000001500FN00000000020220701000001500NNE   20220726120445    1W    00000150000000674000000000032N2    YWYIPLTC000000000000KU327031
BI00B32N2    2152104043     2022072718007703984              AVSS 0.5F BR/W           CCN000001500000001500FN00000000020220701000001500NNE   20220726120445    1W    00000150000000674000000000032N2    YWYIPLTC000000000000KU327023
BI00B32N2    2152104043     2022072718007703990              AVSS 0.5F L              CCN000006000000006000FN00000000020220701000006000NNE   20220726120445    1W    00000150000000674000000000032N2    YWYIPLTC000000000000KU327027
BI00B32N2    2152104043     2022072718007704190              AVSS 1.25F L             CCN000001600000001600FN00000000020220701000001600NNE   20220726120445    1W    00000080000001389000000000032N2    YWYIPLTC000000000000KU327032
BI00B32N2    2152104043     2022072718007704194              AVSS 1.25F L/W           CCN000000800000000800FN00000000020220701000000800NNE   20220726120445    1W    00000080000001389000000000032N2    YWYIPLTC000000000000KU327034
BI00B32N2    2152104043     2022072718007704195              AVSS 1.25F L/R           CCN000002400000002400FN00000000020220701000002400NNE   20220726120445    1W    00000080000001389000000000032N2    YWYIPLTC000000000000KU327033
BI00B32N2    2152104043     20220727180D0204040              AVSSH 0.75F W            CCN000001000000001000FN00000000020220701000001000NNE   20220726120445    1W    00000100000000934000000000032N2    YWYIPLTC000000000000KU327021
BI00B32N2    2152104043     20220727180D0204090              AVSSH 0.75F L            CCN000001000000001000FN00000000020220701000001000NNE   20220726120445    1W    00000100000000934000000000032N2    YWYIPLTC000000000000KU327020
BI00B32N2    2152104097     2022080318007703918              AVSS 0.5F G/O            CCN000001500000001500FN00000000020220801000001500NNE   20220726120445    1W    00000150000000674000000000032N2    YWYIPLTC000000000000KU327006
BI00B32N2    2152104097     2022080318007703929              AVSS 0.5F LG/W           CCN000004500000004500FN00000000020220801000004500NNE   20220726120445    1W    00000150000000674000000000032N2    YWYIPLTC000000000000KU327008
BI00B32N2    2152104097     2022080318007703930              AVSS 0.5F B              CCN000001500000001500FN00000000020220801000001500NNE   20220726120445    1W    00000150000000674000000000032N2    YWYIPLTC000000000000KU327002
BI00B32N2    2152104097     2022080318007703937              AVSS 0.5F B/Y            CCN000001500000001500FN00000000020220801000001500NNE   20220726120445    1W    00000150000000674000000000032N2    YWYIPLTC000000000000KU327003
BI00B32N2    2152104097     2022080318007703941              AVSS 0.5F GY             CCN000001500000001500FN00000000020220801000001500NNE   20220726120445    1W    00000150000000674000000000032N2    YWYIPLTC000000000000KU327007
BI00B32N2    2152104097     2022080318007703951              AVSS 0.5F O              CCN000001500000001500FN00000000020220801000001500NNE   20220726120445    1W    00000150000000674000000000032N2    YWYIPLTC000000000000KU327009
BI00B32N2    2152104097     2022080318007703957              AVSS 0.5F R/Y            CCN000003000000003000FN00000000020220801000003000NNE   20220726120445    1W    00000150000000674000000000032N2    YWYIPLTC000000000000KU327010
BI00B32N2    2152104097     2022080318007703963              AVSS 0.5F G/B            CCN000001500000001500FN00000000020220801000001500NNE   20220726120445    1W    00000150000000674000000000032N2    YWYIPLTC000000000000KU327005
BI00B32N2    2152104097     2022080318007703984              AVSS 0.5F BR/W           CCN000001500000001500FN00000000020220801000001500NNE   20220726120445    1W    00000150000000674000000000032N2    YWYIPLTC000000000000KU327004
BI00B32N2    2152104097     2022080318007704185              AVSS 1.25F BR/R          CCN000000800000000800FN00000000020220801000000800NNE   20220726120445    1W    00000080000001389000000000032N2    YWYIPLTC000000000000KU327011
BI00B32N2    2152104097     2022080318007704190              AVSS 1.25F L             CCN000006400000006400FN00000000020220801000006400NNE   20220726120445    1W    00000080000001389000000000032N2    YWYIPLTC000000000000KU327012
BI00B32N2    2152104097     2022080318007704194              AVSS 1.25F L/W           CCN000003200000003200FN00000000020220801000003200NNE   20220726120445    1W    00000080000001389000000000032N2    YWYIPLTC000000000000KU327014
BI00B32N2    2152104097     2022080318007704195              AVSS 1.25F L/R           CCN000005600000005600FN00000000020220801000005600NNE   20220726120445    1W    00000080000001389000000000032N2    YWYIPLTC000000000000KU327013
BI00B32N2    2152104097     20220803180D0204097              AVSSH 0.75F L/Y          CCN000001000000001000FN00000000020220801000001000NNE   20220726120445    1W    00000100000000933600000000032N2    YWYIPLTC000000000000KU327001
BI00B32N2    2152104098     2022080318007703929              AVSS 0.5F LG/W           CCN000001500000001500FN00000000020220801000001500NNE   20220726120445    1W    00000150000000674000000000032N2    YWYIPLTC000000000000KV327007
BI00B32N2    2152104098     2022080318007703930              AVSS 0.5F B              CCN000003000000003000FN00000000020220801000003000NNE   20220726120445    1W    00000150000000674000000000032N2    YWYIPLTC000000000000KV327001
BI00B32N2    2152104098     2022080318007703940              AVSS 0.5F W              CCN000001500000001500FN00000000020220801000001500NNE   20220726120445    1W    00000150000000674000000000032N2    YWYIPLTC000000000000KV327010
BI00B32N2    2152104098     2022080318007703941              AVSS 0.5F GY             CCN000001500000001500FN00000000020220801000001500NNE   20220726120445    1W    00000150000000674000000000032N2    YWYIPLTC000000000000KV327005
BI00B32N2    2152104098     2022080318007703951              AVSS 0.5F O              CCN000001500000001500FN00000000020220801000001500NNE   20220726120445    1W    00000150000000674000000000032N2    YWYIPLTC000000000000KV327008
BI00B32N2    2152104098     2022080318007703959              AVSS 0.5F R/L            CCN000001500000001500FN00000000020220801000001500NNE   20220726120445    1W    00000150000000674000000000032N2    YWYIPLTC000000000000KV327009
BI00B32N2    2152104098     2022080318007703960              AVSS 0.5F G              CCN000001500000001500FN00000000020220801000001500NNE   20220726120445    1W    00000150000000674000000000032N2    YWYIPLTC000000000000KV327003
BI00B32N2    2152104098     2022080318007703965              AVSS 0.5F G/R            CCN000001500000001500FN00000000020220801000001500NNE   20220726120445    1W    00000150000000674000000000032N2    YWYIPLTC000000000000KV327004
BI00B32N2    2152104098     2022080318007703970              AVSS 0.5F Y              CCN000001500000001500FN00000000020220801000001500NNE   20220726120445    1W    00000150000000674000000000032N2    YWYIPLTC000000000000KV327011
BI00B32N2    2152104098     2022080318007703984              AVSS 0.5F BR/W           CCN000001500000001500FN00000000020220801000001500NNE   20220726120445    1W    00000150000000674000000000032N2    YWYIPLTC000000000000KV327002
BI00B32N2    2152104098     2022080318007703990              AVSS 0.5F L              CCN000003000000003000FN00000000020220801000003000NNE   20220726120445    1W    00000150000000674000000000032N2    YWYIPLTC000000000000KV327006
BI00B32N2    2152104098     2022080318007704190              AVSS 1.25F L             CCN000001600000001600FN00000000020220801000001600NNE   20220726120445    1W    00000080000001389000000000032N2    YWYIPLTC000000000000KV327012
BI00B32N2    2152104098     2022080318007704194              AVSS 1.25F L/W           CCN000000800000000800FN00000000020220801000000800NNE   20220726120445    1W    00000080000001389000000000032N2    YWYIPLTC000000000000KV327014
BI00B32N2    2152104098     2022080318007704195              AVSS 1.25F L/R           CCN000002400000002400FN00000000020220801000002400NNE   20220726120445    1W    00000080000001389000000000032N2    YWYIPLTC000000000000KV327013
BI00B32Q8    EW22102 MW     20220803180D0203960              AVSSH 0.5F G             CCN000006000000006000FN00000000020221001000006000NNM20 20220726132311    1W    00000150000000689000000000032Q8    EMEMI   000000000000MI328011
BI00B32Q8    EW22104 MW     20220803180D0203960              AVSSH 0.5F G             CCN000007500000007500FN00000000020221001000007500NNM20 20220726132324    1W    00000150000000689000000000032Q8    EMEMI   000000000000MI528016
BI00B32Q8    @EW22104DMW    20220817181B32116Y9              AVSSCS 0.3FX2 DGY/P      CCN000007000000007000FN00000000020221001000007000NNM20 20220726120445    1W    00000035000002276000000000032Q8    EMEMI   000000000000MD528003
BI00B32W2    HN2208KWMW     2022080918000004560              AV 8 G                   CCN000007000000007000FN00000000020220801000007000NNE   20220726120445    1W    00000010000010466200000000032W2    HNHNY   000000000000HM427001
BI00B32W2    HN2208KWMW     2022080918000004540              AV 8 W                   CCN000004000000004000FN00000000020220801000004000NNE   20220726120445    1W    00000010000010466200000000032W2    HNHNY   000000000000HM427002
BI00B32W2    HN2209AWMW     2022081618000004560              AV 8 G                   CCN000010000000010000FN00000000020220901000010000NNE   20220726120445    1W    00000010000010466200000000032W2    HNHNY   000000000000HA128001
BI00B32W2    HN2209AWMW     2022081618000004550              AV 8 R                   CCN000002700000002700FN00000000020220901000002700NNE   20220726120445    1W    00000010000010466200000000032W2    HNHNY   000000000000HA128002