AE00TI102209120212/09/202200000000700000000000000003794KGM  00000005049KGM  7147-3642-30             CLIP                     7147364230               0         0         0         0    0    0    00002100000000300000000074000015540000
AE00TI102209120212/09/202200000002900000000000000009587KGM  00000011194KGM  7158-3006-90             RUBBER STOPPER           7158300690               0         0         0         0    0    0    00058000000002000000000016000092800000
AE00TI102209120212/09/202200000002900000000000000009802KGM  00000011200KGM  7158-3009-60             RUBBER STOPPER           7158300960               0         0         0         0    0    0    00058000000002000000000012000069600000
AE00TI102209120212/09/202200000001800000000000000008415KGM  00000009432KGM  7158-3022-80             RUBBER STOPPER           7158302280               0         0         0         0    0    0    00009000000000500000000070000063000000
AE00TI102209120212/09/202200000001800000000000000002232KGM  00000003103KGM  7158-3165-90             WIRE SEAL                7158316590               0         0         0         0    0    0    00072000000004000000000006000043200000
AE00TI102209120212/09/202200000002000000000000000002080KGM  00000003048KGM  7158-3166-60             WIRE SEAL                7158316660               0         0         0         0    0    0    00080000000004000000000004000032000000
AE00TI102209120212/09/202200000011600000000000000005568KGM  00000012644KGM  7158-3167-80             WIRE SEAL                7158316780               0         0         0         0    0    0    00232000000002000000000005000116000000
AE00TI102209120212/09/202200000002700000000000000036156KGM  00000040206KGM  7171-6291                HOUSING MALE             71716291                 0         0         0         0    0    0    00000518400000019200001625000084240000
AE00TI102209120212/09/202200000001500000000000000011432KGM  00000014705KGM  7171-6292                HOUSING                  71716292                 0         0         0         0    0    0    00000270000000018000001240000033480000
AE00TI102209120212/09/202200000000100000000000000000951KGM  00000001230KGM  7183-0522                HOUSING                  71830522                 0         0         0         0    0    0    00000240000000240000000113000002712000
AE00TI102209120212/09/202200000000100000000000000001059KGM  00000001246KGM  7183-2412                HOUSING                  71832412                 0         0         0         0    0    0    00000160000000160000000155000002480000
AE00TI102209120212/09/202200000000200000000000000000956KGM  00000001520KGM  7183-2413                CONNECTOR HOUSING        71832413                 0         0         0         0    0    0    00000960000000480000000074000007104000
AE00TI102209120212/09/202200000000200000000000000000955KGM  00000001519KGM  7183-2413-30             CONNECTOR HOUSING        7183241330               0         0         0         0    0    0    00000960000000480000000076000007296000
AE00TI102209120212/09/202200000000300000000000000002338KGM  00000003183KGM  7183-2414                CONNECTOR HOUSING        71832414                 0         0         0         0    0    0    00001440000000480000000050000007200000
AE00TI102209120212/09/202200000000100000000000000000917KGM  00000001477KGM  7183-2418                CONNECTOR HOUSING        71832418                 0         0         0         0    0    0    00000480000000480000000078000003744000
AE00TI102209120212/09/202200000000200000000000000001274KGM  00000001564KGM  7188-9508-40             HLC HOUSING MALE         7188950840               0         0         0         0    0    0    00000400000000200000000240000009600000
AE00TI102209120212/09/202200000000200000000000000001262KGM  00000001552KGM  7188-9510-30             HLC HOUSING MALE         7188951030               0         0         0         0    0    0    00000400000000200000000238000009520000
AE00TI102209120212/09/202200000000200000000000000001254KGM  00000001544KGM  7188-9511-80             HLC HOUSING MALE         7188951180               0         0         0         0    0    0    00000400000000200000000245000009800000
AE00TI102209120212/09/202200000000200000000000000001543KGM  00000001833KGM  7188-9513                HLC HOUSING MALE         71889513                 0         0         0         0    0    0    00000400000000200000000261000010440000
AE00TI102209120212/09/202200000000200000000000000001557KGM  00000001847KGM  7188-9514-90             HLC HOUSING MALE         7188951490               0         0         0         0    0    0    00000400000000200000000275000011000000
AE00TI102209120212/09/202200000000100000000000000000579KGM  00000000686KGM  7189-9519-80             HOUSING                  7189951980               0         0         0         0    0    0    00000200000000200000000243000004860000
AE00TI102209120212/09/202200000000100000000000000001030KGM  00000001176KGM  7222-7484-40             CONNECTOR                7222748440               0         0         0         0    0    0    00000100000000100000000758000007580000
AE00TI102209120212/09/202200000000100000000000000000967KGM  00000001097KGM  7222-7564-40             CONNECTOR                7222756440               0         0         0         0    0    0    00000050000000050000001166000005830000
AE00TI102209120212/09/202200000000100000000000000001124KGM  00000001213KGM  7282-7028-30             CONNECTOR                7282702830               0         0         0         0    0    0    00000200000000200000000248000004960000
AE00TI102209120212/09/202200000000300000000000000002633KGM  00000003234KGM  7283-1156                CONNECTOR                72831156                 0         0         0         0    0    0    00000240000000080000000810000019440000
AE00TI102209120212/09/202200000000100000000000000001160KGM  00000001341KGM  7283-1485                CONNECTOR                72831485                 0         0         0         0    0    0    00000200000000200000000366000007320000
AE00TI102209120212/09/202200000000100000000000000000667KGM  00000000923KGM  7287-1915                CONNECTOR ASS'Y          72871915                 0         0         0         0    0    0    00000240000000240000000161000003864000
AE00TI102209120212/09/202200000000100000000000000000667KGM  00000000923KGM  7287-1915-30             CONNECTOR ASS'Y          7287191530               0         0         0         0    0    0    00000240000000240000000167000004008000
AE00TI102209120212/09/202200000000500000000000000004269KGM  00000005226KGM  7287-9155                HOUSING FEMALE ASS'Y     72879155                 0         0         0         0    0    0    00000480000000096000000357000017136000
AE00TI102209120212/09/202200000001600000000000000010982KGM  00000014422KGM  7289-3342                HOUSING FEMALE ASS'Y     72893342                 0         0         0         0    0    0    00003840000000240000000186000071424000
AE00TI102209120212/09/202200000000400000000000000002746KGM  00000003606KGM  7289-3342-40             HOUSING FEMALE ASS'Y     7289334240               0         0         0         0    0    0    00000960000000240000000192000018432000
AE00TI102209120212/09/202200000000600000000000000004118KGM  00000005408KGM  7289-3342-90             HOUSING FEMALE ASS'Y     7289334290               0         0         0         0    0    0    00001440000000240000000196000028224000
AE00TI102209120212/09/202200000001000000000000000000000KGM  00000000000KGM  7470-5783D               J/B COMPLETE ASS'Y       74705783D                0         0         0         0    0    0    00000015000000001500000000000000000000
AE00TI102209120212/09/202200000001900000000000000000000KGM  00000000000KGM  7470-5783E               J/B COMPLETE ASS'Y       74705783E                0         0         0         0    0    0    00000019000000001000000000000000000000
AE00TI102209120212/09/202200000002000000000000000000000KGM  00000000000KGM  7470-5791D               J/B COMPLETE ASS'Y       74705791D                0         0         0         0    0    0    00000030000000001500000000000000000000
AE00TI102209120212/09/202200000001800000000000000000000KGM  00000000000KGM  7470-5791E               J/B COMPLETE ASS'Y       74705791E                0         0         0         0    0    0    00000018000000001000000000000000000000
AE00TI102209120212/09/202200000001500000000000000000000KGM  00000000000KGM  7470-5823D               J/B COMPLETE ASS'Y       74705823D                0         0         0         0    0    0    00000022500000001500000000000000000000
