AE00TI102209120112/09/202200000000100000000000000001188KGM  00000001400KGM  7283-4855                CONNECTOR HOUSING        72834855                 0         0         0         0    0    0    00000240000000240000000272000006528000
AE00TI102209120112/09/202200000000100000000000000000894KGM  00000001185KGM  7287-9234                JOINT CONNECTOR          72879234                 0         0         0         0    0    0    00000960000000960000000137000013152000
AE00TI102209120112/09/202200000000400000000000000003443KGM  00000004023KGM  7288-3332-30             HOUSING MALE             7288333230               0         0         0         0    0    0    00000600000000150000000354000021240000
AE00TI102209120112/09/202200000000600000000000000005202KGM  00000006072KGM  7288-3334-30             HOUSING MALE             7288333430               0         0         0         0    0    0    00000900000000150000000354000031860000
AE00TI102209120112/09/202200000000100000000000000000867KGM  00000001012KGM  7288-3339-30             HOUSING MALE             7288333930               0         0         0         0    0    0    00000150000000150000000354000005310000
AE00TI102209120112/09/202200000001200000000000000008237KGM  00000010817KGM  7289-3342                HOUSING FEMALE ASS'Y     72893342                 0         0         0         0    0    0    00002880000000240000000186000053568000
AE00TI102209120112/09/202200000003900000000000000026770KGM  00000035155KGM  7289-3342-30             HOUSING FEMALE ASS'Y     7289334230               0         0         0         0    0    0    00009360000000240000000191000178776000
AE00TI102209120112/09/202200000000100000000000000001172KGM  00000001369KGM  7289-5011-30             HOUSING FEMALE ASS'Y     7289501130               0         0         0         0    0    0    00000240000000240000000333000007992000
AE00TI102209120112/09/202200000000200000000000000001658KGM  00000002098KGM  7289-6518-30             HOUSING FEMALE ASS'Y     7289651830               0         0         0         0    0    0    00000240000000120000000598000014352000
AE00TI102209120112/09/202200000000900000000000000009029KGM  00000010841KGM  7298-1865-30             HOUSING FEMALE ASS'Y     7298186530               0         0         0         0    0    0    00002160000000240000000196000042336000
AE00TI102209120112/09/202200000000600000000000000006657KGM  00000007558KGM  7327-6424-4W             BATTERY FUSE             732764244W               0         0         0         0    0    0    00000057600000009600007969000045901440
AE00TI102209120112/09/202200000000600000000000000007381KGM  00000008536KGM  7327-6533-3W             BATTERY FUSE             732765333W               0         0         0         0    0    0    00000043200000007200010131000043765920
AE00TI102209120112/09/202200000001000000000000000011409KGM  00000013559KGM  7327-6840-3W             BATTERY FUSE             732768403W               0         0         0         0    0    0    00000072000000007200009909000071344800
AE00TI102209120112/09/202200000006300000000000000046746KGM  00000070686KGM  7388-2978-30             HOUSING MALE ASS'Y       7388297830               0         0         0         0    0    0    00003024000000048000001790000541296000
AE00TI102209120112/09/202200000001400000000000000018480KGM  00000021980KGM  7470-4481                J/B COMPLETE ASS'Y       74704481                 0         0         0         0    0    0    00000033600000002400000000000000000000
AE00TI102209120112/09/202200000003000000000000000000000KGM  00000000000KGM  7470-5783D               J/B COMPLETE ASS'Y       74705783D                0         0         0         0    0    0    00000045000000001500000000000000000000
AE00TI102209120112/09/202200000002600000000000000000000KGM  00000000000KGM  7470-5784D               J/B COMPLETE ASS'Y       74705784D                0         0         0         0    0    0    00000039000000001500000000000000000000
AE00TI102209120112/09/202200000000500000000000000000000KGM  00000000000KGM  7470-5791D               J/B COMPLETE ASS'Y       74705791D                0         0         0         0    0    0    00000007500000001500000000000000000000
