AE00TO202209120312/09/202200000012800000000000000133968KGM  00000140225KGM  18000004530              AV 8 B                   AV 8 B                   0         0         0         0    0    0    00000000000128000000000211100027020800
AE00TO202209120312/09/202200000015700000000000000164320KGM  00000171996KGM  18000004540              AV 8 W                   AV 8 W                   0         0         0         0    0    0    00000000000157000000000211100033142700
AE00TO202209120312/09/202200000000200000000000000002093KGM  00000002191KGM  18000004560              AV 8 G                   AV 8 G                   0         0         0         0    0    0    00000000000002000000000211100000422200
AE00TO202209120312/09/202200000000600000000000000006280KGM  00000006573KGM  18000004580              AV 8 BR                  AV 8 BR                  0         0         0         0    0    0    00000000000006000000000211100001266600
AE00TO202209120312/09/202200000000200000000000000002031KGM  00000002129KGM  18018403951              CAVS 05 O                CAVS 05 O                0         0         0         0    0    0    00000000000030000000000015000000450000
AE00TO202209120312/09/202200000000100000000000000001016KGM  00000001064KGM  18018403992              CAVS 05 V                CAVS 05 V                0         0         0         0    0    0    00000000000015000000000015000000225000
AE00TO202209120312/09/202200000000200000000000000002250KGM  00000002348KGM  1801W003930              IVSSH 05F B              IVSSH 05F B              0         0         0         0    0    0    00000000000036000000000015400000554400
AE00TO202209120312/09/202200000002500000000000000028125KGM  00000029348KGM  1801W003940              IVSSH 05F W              IVSSH 05F W              0         0         0         0    0    0    00000000000450000000000015400006930000
AE00TO202209120312/09/202200000002000000000000000022500KGM  00000023478KGM  1801W003943              IVSSH 05F W/B            IVSSH 05F W/B            0         0         0         0    0    0    00000000000360000000000015400005544000
AE00TO202209120312/09/202200000000200000000000000002250KGM  00000002348KGM  1801W003950              IVSSH 05F R              IVSSH 05F R              0         0         0         0    0    0    00000000000036000000000015400000554400
AE00TO202209120312/09/202200000000100000000000000001125KGM  00000001174KGM  1801W003960              IVSSH 05F G              IVSSH 05F G              0         0         0         0    0    0    00000000000018000000000015400000277200
AE00TO202209120312/09/202200000000200000000000000002250KGM  00000002348KGM  1801W003970              IVSSH 05F Y              IVSSH 05F Y              0         0         0         0    0    0    00000000000036000000000015400000554400
AE00TO202209120312/09/202200000000200000000000000002250KGM  00000002348KGM  1801W003990              IVSSH 05F L              IVSSH 05F L              0         0         0         0    0    0    00000000000036000000000015400000554400
AE00TO202209120312/09/202200000000100000000000000001034KGM  00000001082KGM  180D0203934              AVSSH 05F B/W            AVSSH 05F B/W            0         0         0         0    0    0    00000000000015000000000016300000244500
AE00TO202209120312/09/202200000000100000000000000001034KGM  00000001082KGM  180D0203935              AVSSH 05F B/R            AVSSH 05F B/R            0         0         0         0    0    0    00000000000015000000000016300000244500
AE00TO202209120312/09/202200000000100000000000000001034KGM  00000001082KGM  180D0203937              AVSSH 05F B/Y            AVSSH 05F B/Y            0         0         0         0    0    0    00000000000015000000000016300000244500
AE00TO202209120312/09/202200000000100000000000000001034KGM  00000001082KGM  180D0203940              AVSSH 05F W              AVSSH 05F W              0         0         0         0    0    0    00000000000015000000000016300000244500
AE00TO202209120312/09/202200000000100000000000000001034KGM  00000001082KGM  180D0203950              AVSSH 05F R              AVSSH 05F R              0         0         0         0    0    0    00000000000015000000000016300000244500
AE00TO202209120312/09/202200000000100000000000000001034KGM  00000001082KGM  180D0203952              AVSSH 05F P              AVSSH 05F P              0         0         0         0    0    0    00000000000015000000000016300000244500
AE00TO202209120312/09/202200000000200000000000000002067KGM  00000002165KGM  180D0203990              AVSSH 05F L              AVSSH 05F L              0         0         0         0    0    0    00000000000030000000000016300000489000
AE00TO202209120312/09/202200000000100000000000000001034KGM  00000001082KGM  180D0203995              AVSSH 05F L/R            AVSSH 05F L/R            0         0         0         0    0    0    00000000000015000000000016300000244500
AE00TO202209120312/09/202200000008600000000000000072238KGM  00000076442KGM  181AD2004ZZ              CIVUSAS-S 035X4 B        CIVUSAS-S 035X4 B        0         0         0         0    0    0    00000000000258000000000066700017208600
AE00TO202209120312/09/202200000000100000000000000000811KGM  00000000860KGM  181AD2008ZZ              CIVUSAS-S 05X2 B         CIVUSAS-S 05X2 B         0         0         0         0    0    0    00000000000004000000000051400000205600
AE00TO202209120312/09/202200000000400000000000000003186KGM  00000003382KGM  181B32116S1              AVSSCS 03FX2 DGY         AVSSCS 03FX2 DGY         0         0         0         0    0    0    00000000000014000000000060900000852600
AE00TO202209120312/09/202200000004500000000000000034099KGM  00000036299KGM  181E50003ZZ              AVSSCS-S 03FX2 DGY/BR    AVSSCS-S 03FX2 DGY/BR    0         0         0         0    0    0    00000000000157500000000059400009355500
