AE00TI102209120312/09/202200000000100000000000000000783KGM  00000001002KGM  7047-5303                CLIP                     70475303                 0         0         0         0    0    0    00000900000000900000000081000007290000
AE00TI102209120312/09/202200000000000000000000000000000KGM  00000000000KGM  7116-3153-02             TERMINAL FEMALE          7116315302               0         0         0         0    0    0    00000900000002700000000015000001350000
AE00TI102209120312/09/202200000000500000000000000004665KGM  00000005870KGM  7123-1508                CONNECTOR                71231508                 0         0         0         0    0    0    00000500000000100000000226000011300000
AE00TI102209120312/09/202200000000100000000000000000501KGM  00000000855KGM  7185-9193                REAR HOLDER              71859193                 0         0         0         0    0    0    00000066000000066000000638000004210800
AE00TI102209120312/09/202200000004000000000000000009592KGM  00000019592KGM  7271-1820-30             CASE SUB ASSY,ECU        7271182030               0         0         0         0    0    0    00000072000000001800009576000068947200
AE00TI102209120312/09/202200000001500000000000000000000KGM  00000000000KGM  7273-2981-0WD            CASSETTE BRACKET         727329810WD              0         0         0         0    0    0    00000150000000010000000000000000000000
AE00TI102209120312/09/202200000000300000000000000000000KGM  00000000000KGM  7273-2981-0WE            CASSETTE BRACKET         727329810WE              0         0         0         0    0    0    00000024000000008000000000000000000000
AE00TI102209120312/09/202200000002600000000000000000000KGM  00000000000KGM  7273-2982-0WD            CASSETTE BRACKET         727329820WD              0         0         0         0    0    0    00000260000000010000000000000000000000
AE00TI102209120312/09/202200000001900000000000000000000KGM  00000000000KGM  7273-2982-0WE            CASSETTE BRACKET         727329820WE              0         0         0         0    0    0    00000285000000015000000000000000000000
AE00TI102209120312/09/202200000002000000000000000000000KGM  00000000000KGM  7273-2983-0WD            CASSETTE BRACKET         727329830WD              0         0         0         0    0    0    00000200000000010000000000000000000000
AE00TI102209120312/09/202200000000600000000000000000000KGM  00000000000KGM  7273-2983-0WE            CASSETTE BRACKET         727329830WE              0         0         0         0    0    0    00000048000000008000000000000000000000
AE00TI102209120312/09/202200000000400000000000000003130KGM  00000003970KGM  7282-4578                HOUSING MALE ASS'Y       72824578                 0         0         0         0    0    0    00000480000000120000000255000012240000
AE00TI102209120312/09/202200000001200000000000000014820KGM  00000017076KGM  7282-5574-10             CONNECTOR                7282557410               0         0         0         0    0    0    00000960000000080000000727000069792000
AE00TI102209120312/09/202200000000100000000000000001356KGM  00000001520KGM  7282-8120                CONNECTOR HOUSING        72828120                 0         0         0         0    0    0    00000300000000300000000212000006360000
AE00TI102209120312/09/202200000000300000000000000004068KGM  00000004560KGM  7282-8120-30             CONNECTOR HOUSING        7282812030               0         0         0         0    0    0    00000900000000300000000000000000000000
AE00TI102209120312/09/202200000000700000000000000009492KGM  00000010640KGM  7282-8120-40             CONNECTOR HOUSING        7282812040               0         0         0         0    0    0    00002100000000300000000215000045150000
AE00TI102209120312/09/202200000000100000000000000000669KGM  00000000933KGM  7283-1140                CONNECTOR HOUSING        72831140                 0         0         0         0    0    0    00000150000000150000000259000003885000
AE00TI102209120312/09/202200000001000000000000000013810KGM  00000016370KGM  7283-1288                CONNECTOR HOUSING        72831288                 0         0         0         0    0    0    00001200000000120000000781000093720000
AE00TI102209120312/09/202200000002200000000000000030382KGM  00000036014KGM  7283-1288-10             CONNECTOR HOUSING        7283128810               0         0         0         0    0    0    00002640000000120000000785000207240000
AE00TI102209120312/09/202200000000300000000000000004146KGM  00000004922KGM  7283-1288-40             CONNECTOR HOUSING        7283128840               0         0         0         0    0    0    00000360000000120000000785000028260000
AE00TI102209120312/09/202200000000200000000000000001675KGM  00000002115KGM  7283-4578                HOUSING FEMALE ASS'Y     72834578                 0         0         0         0    0    0    00000480000000240000000190000009120000
AE00TI102209120312/09/202200000000200000000000000003092KGM  00000003693KGM  7283-5623-60             CONNECTOR                7283562360               0         0         0         0    0    0    00000320000000160000000568000018176000
AE00TI102209120312/09/202200000000100000000000000000954KGM  00000001104KGM  7283-5830-30             CONNECTOR                7283583030               0         0         0         0    0    0    00000600000000600000000155000009300000
AE00TI102209120312/09/202200000000100000000000000000444KGM  00000000606KGM  7283-5845-40             CONNECTOR HOUSING        7283584540               0         0         0         0    0    0    00000600000000600000000133000007980000
AE00TI102209120312/09/202200000000100000000000000000914KGM  00000001143KGM  7283-6120                CONNECTOR HOUSING        72836120                 0         0         0         0    0    0    00000150000000150000000368000005520000
AE00TI102209120312/09/202200000000100000000000000001060KGM  00000001181KGM  7283-7029                CONNECTOR                72837029                 0         0         0         0    0    0    00000600000000600000000227000013620000
AE00TI102209120312/09/202200000000100000000000000001026KGM  00000001200KGM  7283-7029-40             CONNECTOR                7283702940               0         0         0         0    0    0    00000600000000600000000231000013860000
AE00TI102209120312/09/202200000000800000000000000007918KGM  00000009989KGM  7283-7526-30             CONNECTOR HOUSING        7283752630               0         0         0         0    0    0    00001568000000196000000506000079340800
AE00TI102209120312/09/202200000000200000000000000001980KGM  00000002497KGM  7283-7526-40             CONNECTOR HOUSING        7283752640               0         0         0         0    0    0    00000392000000196000000504000019756800
AE00TI102209120312/09/202200000000100000000000000000815KGM  00000001011KGM  7286-1899                HOUSING SUB ASSEMBLY     72861899                 0         0         0         0    0    0    00000033600000033600000853000002866080
AE00TI102209120312/09/202200000000500000000000000004553KGM  00000005653KGM  7286-3885                CONNECTOR MALE ASS'Y     72863885                 0         0         0         0    0    0    00000600000000120000000295000017700000
AE00TI102209120312/09/202200000000300000000000000002732KGM  00000003392KGM  7286-3885-40             CONNECTOR MALE ASS'Y     7286388540               0         0         0         0    0    0    00000360000000120000000313000011268000
AE00TI102209120312/09/202200000000100000000000000000614KGM  00000000834KGM  7287-2705                HOUSING FEMALE ASS'Y     72872705                 0         0         0         0    0    0    00000960000000960000000148000014208000
AE00TI102209120312/09/202200000000200000000000000002059KGM  00000002499KGM  7287-3885                HYBRID FEMALE ASS'Y      72873885                 0         0         0         0    0    0    00000480000000240000000207000009936000
AE00TI102209120312/09/202200000000400000000000000004118KGM  00000004998KGM  7287-3885-30             HYBRID FEMALE ASS'Y      7287388530               0         0         0         0    0    0    00000960000000240000000215000020640000
AE00TI102209120312/09/202200000001200000000000000006451KGM  00000008280KGM  7287-9323                UNSEALED HOUSING SUB     72879323                 0         0         0         0    0    0    00002880000000240000000146000042048000
AE00TI102209120312/09/202200000000100000000000000000538KGM  00000000690KGM  7287-9323-40             UNSEALED HOUSING SUB     7287932340               0         0         0         0    0    0    00000240000000240000000155000003720000
AE00TI102209120312/09/202200000000100000000000000000388KGM  00000000788KGM  7288-3206                HOUSING MALE ASS'Y       72883206                 0         0         0         0    0    0    00000102000000102000000351000003580200
AE00TI102209120312/09/202200000000100000000000000001002KGM  00000001235KGM  7289-0269                HOUSING SUB ASSEMBLY     72890269                 0         0         0         0    0    0    00000160000000160000000227000003632000
AE00TI102209120312/09/202200000007000000000000000048048KGM  00000063098KGM  7289-3342-30             HOUSING FEMALE ASS'Y     7289334230               0         0         0         0    0    0    00016800000000240000000191000320880000
AE00TI102209120312/09/202200000000200000000000000001373KGM  00000001803KGM  7289-3342-90             HOUSING FEMALE ASS'Y     7289334290               0         0         0         0    0    0    00000480000000240000000196000009408000
AE00TI102209120312/09/202200000000100000000000000000913KGM  00000001055KGM  7289-4696-30             HOUSING FEMALE ASS'Y     7289469630               0         0         0         0    0    0    00000200000000200000000410000008200000
AE00TI102209120312/09/202200000001500000000000000000000KGM  00000000000KGM  7470-5307E               J/B COMPLETE ASS'Y       74705307E                0         0         0         0    0    0    00000015000000001000000000000000000000
AE00TI102209120312/09/202200000000600000000000000000000KGM  00000000000KGM  7470-5791E               J/B COMPLETE ASS'Y       74705791E                0         0         0         0    0    0    00000006000000001000000000000000000000
AE00TI102209120312/09/202200000001600000000000000000000KGM  00000000000KGM  7470-5823E               J/B COMPLETE ASS'Y       74705823E                0         0         0         0    0    0    00000016000000001000000000000000000000
