AE00TO202209120412/09/202200000022200000000000000232351KGM  00000243203KGM  18000004530              AV 8 B                   AV 8 B                   0         0         0         0    0    0    00000000000222000000000211100046864200
AE00TO202209120412/09/202200000004100000000000000042911KGM  00000044916KGM  18000004535              AV 8 B/R                 AV 8 B/R                 0         0         0         0    0    0    00000000000041000000000211100008655100
AE00TO202209120412/09/202200000002900000000000000030352KGM  00000031770KGM  18000004540              AV 8 W                   AV 8 W                   0         0         0         0    0    0    00000000000029000000000211100006121900
AE00TO202209120412/09/202200000000100000000000000001047KGM  00000001096KGM  18000004543              AV 8 W/B                 AV 8 W/B                 0         0         0         0    0    0    00000000000001000000000211100000211100
AE00TO202209120412/09/202200000001500000000000000014880KGM  00000015613KGM  18007703740              AVSS 03F W               AVSS 03F W               0         0         0         0    0    0    00000000000300000000000011700003510000
AE00TO202209120412/09/202200000002900000000000000028768KGM  00000030186KGM  18007703761              AVSS 03F LG              AVSS 03F LG              0         0         0         0    0    0    00000000000580000000000011700006786000
AE00TO202209120412/09/202200000000100000000000000001196KGM  00000001245KGM  18009604460              AVS 5 G                  AVS 5 G                  0         0         0         0    0    0    00000000000002000000000137600000275200
AE00TO202209120412/09/202200000001300000000000000012545KGM  00000013181KGM  18018404041              CAVS 085 GY              CAVS 085 GY              0         0         0         0    0    0    00000000000130000000000022700002951000
AE00TO202209120412/09/202200000000300000000000000003332KGM  00000003478KGM  1801W004330              IVSSH 3 B                IVSSH 3 B                0         0         0         0    0    0    00000000000010500000000087900000922950
AE00TO202209120412/09/202200000000300000000000000003332KGM  00000003478KGM  1801W004343              IVSSH 3 W/B              IVSSH 3 W/B              0         0         0         0    0    0    00000000000010500000000087900000922950
AE00TO202209120412/09/202200000000200000000000000002221KGM  00000002319KGM  1801W004390              IVSSH 3 L                IVSSH 3 L                0         0         0         0    0    0    00000000000007000000000087900000615300
AE00TO202209120412/09/202200000000100000000000000001130KGM  00000001179KGM  1801W006940              IVSSH 035F W             IVSSH 035F W             0         0         0         0    0    0    00000000000025000000000011400000285000
AE00TO202209120412/09/202200000004500000000000000036504KGM  00000038704KGM  181AD2008ZZ              CIVUSAS-S 05X2 B         CIVUSAS-S 05X2 B         0         0         0         0    0    0    00000000000180000000000051400009252000
AE00TO202209120412/09/202200000001000000000000000009664KGM  00000010153KGM  181AD2011ZZ              CIVUSAS-S 075X2 B        CIVUSAS-S 075X2 B        0         0         0         0    0    0    00000000000035000000000070300002460500
AE00TO202209120412/09/202200000001000000000000000008112KGM  00000008601KGM  181AD2020ZZ              CIVUSAS-S 05X2 B(R,G)    CIVUSAS-S 05X2 B(R,G)    0         0         0         0    0    0    00000000000040000000000051400002056000
AE00TO202209120412/09/202200000000500000000000000004450KGM  00000004695KGM  181B32037Z5              AVSSCS 03FX1 DGY/L       AVSSCS 03FX1 DGY/L       0         0         0         0    0    0    00000000000025000000000046600001165000
AE00TO202209120412/09/202200000000100000000000000000797KGM  00000000845KGM  181B32116S1              AVSSCS 03FX2 DGY         AVSSCS 03FX2 DGY         0         0         0         0    0    0    00000000000003500000000060900000213150
AE00TO202209120412/09/202200000000100000000000000000797KGM  00000000845KGM  181B32116Y8              AVSSCS 03FX2 DGY/R       AVSSCS 03FX2 DGY/R       0         0         0         0    0    0    00000000000003500000000060900000213150
AE00TO202209120412/09/202200000000100000000000000000797KGM  00000000845KGM  181B32116Z5              AVSSCS 03FX2 DGY/L       AVSSCS 03FX2 DGY/L       0         0         0         0    0    0    00000000000003500000000060900000213150
AE00TO202209120412/09/202200000001000000000000000008156KGM  00000008644KGM  181E48037ZZ              CAVSAS-S 03X4 GY         CAVSAS-S 03X4 GY         0         0         0         0    0    0    00000000000025000000000079200001980000
AE00TO202209120412/09/202200000004300000000000000032583KGM  00000034685KGM  181E50003ZZ              AVSSCS-S 03FX2 DGY/BR    AVSSCS-S 03FX2 DGY/BR    0         0         0         0    0    0    00000000000150500000000059400008939700
AE00TO202209120412/09/202200000000500000000000000003789KGM  00000004033KGM  181E50020ZZ              AVSSCS-S 03FX2 DGY/R     AVSSCS-S 03FX2 DGY/R     0         0         0         0    0    0    00000000000017500000000059400001039500
AE00TO202209120412/09/202200000000400000000000000003038KGM  00000003233KGM  181F21014ZZ              AVSSHCS-S 05FX2 B/L      AVSSHCS-S 05FX2 B/L      0         0         0         0    0    0    00000000000012000000000073800000885600
