BI00B32AF    TTB211A        2022100718007704150              AVSS 1.25F R             CCN000004000000004000FN00000000020221101000004000NNE   20220912093634    1W    00000080000001389000000000032AF    HBYHVTB 000000000000UT329001
BI00B32AF    TTB211A        2022100718007704140              AVSS 1.25F W             CCN000002400000002400FN00000000020221101000002400NNE   20220912093634    1W    00000080000001389000000000032AF    HBYHVTB 000000000000UT329002
BI00B32CJ    TTQ2105        20221007180D0203780              AVSSH 0.3F BR            CCN000002000000000000FY00000000020221001000000000NNM10 20220912102000    1W    00000200000000515000000000032CJ    QNYHVQN 000000000000UQ329028
BI00B32CJ    @TTQ210F       20221007181E48032ZZ              CAVSAS-S 0.3X2 GY/P      CCN000001050000001050FN00000000020221001000001050NNE   20220912093907    1W    00000035000002008700000000032CJ    QNYHVQN 000000000000UL329014
BI00B32CJ    @TTQ210F       20221007181AD2007ZZ              CIVUSAS-S 0.5X1 B        CCN000002500000002500FN00000000020221001000002500NNE   20220912093907    1W    00000050000001639600000000032CJ    QNYHVQN 000000000000UL329013
BI00B32CJ    @TTQ211A       20221007181E48027ZZ              CAVSAS-S 0.5X2 GY/P      CCN000000600000000600FN00000000020221101000000600NNE   20220912094220    1W    00000030000002561000000000032CJ    QNYHVQN 000000000000UM329002
BI00B32CJ    @TTQ211A       20221007181E48029ZZ              CAVSAS-S 0.5X4 GY        CCN000000400000000400FN00000000020221101000000400NNE   20220912094220    1W    00000020000003995000000000032CJ    QNYHVQN 000000000000UM329003
BI00B32CJ    TTQ211B        2022102118007704130              AVSS 1.25F B             CCN000000800000000800FN00000000020221101000000800NNE   20220912094221    1W    00000080000001389000000000032CJ    QNYHVQN 000000000000UV12A007
BI00B32CJ    @TTQ211B       20221021181E48011ZZ              CAVSAS-S 0.3X1 GY/W      CCN000002000000002000FN00000000020221101000002000NNE   20220912094221    1W    00000050000001529500000000032CJ    QNYHVQN 000000000000UV12A006
BI00B32CJ    @TTQ211B       20221021181AD2017ZZ              CIVUSAS-S 0.22X3 B       CCN000000420000000430FN00000000020221101000000430NNE   20220912094221    1W    00000043000001678200000000032CJ    QNYHVQN 000000000000UV12A005
BI00B32DE    TT2114         2022101218007704130              AVSS 1.25F B             CCN000000800000000800FN00000000020221101000000800NNM20 20220912102028    1W    00000080000001389000000000032DE    TVYEV-TV000000000000VT22A091
BI00B32H2    TAW210L        20220916180D0204130              AVSSH 1.25F B            CCN000000800000000800FN00000000020221001000000800NNE20 20220912105859    1W    00000080000001458000000000032H2    HVYHV   000000000000UB229010
BI00B32H2    TAW2111        2022101218000004530              AV 8 B                   CCN000001700000000700FN00000000020221101000000700NNM00 20220912085453    1W    00000010000010466200000000032H2    HVYHV   000000000000UH429057
BI00B32H2    TAW2111        2022101218000004540              AV 8 W                   CCN000001200000000600FN00000000020221101000000600NNM00 20220912085521    1W    00000010000010466200000000032H2    HVYHV   000000000000UH429058
BI00B32H2    TAW2111        2022100718007704130              AVSS 1.25F B             CCN000000800000000800FN00000000020221101000000800NNM20 20220912085540    1W    00000080000001389000000000032H2    HVYHV   000000000000UH429059
BI00B32H2    TAW2111        2022092318007704160              AVSS 1.25F G             CCN000000800000000800FN00000000020221101000000800NNM21 20220912085620    1W    00000080000001389000000000032H2    HVYHV   000000000000UH429060
BI00B32H2    TAW2111        2022092318007704190              AVSS 1.25F L             CCN000000800000000800FN00000000020221101000000800NNM21 20220912085633    1W    00000080000001389000000000032H2    HVYHV   000000000000UH429061
BI00B32H2    TAW2111        20221007180D0203980              AVSSH 0.5F BR            CCN000001500000001500FN00000000020221101000001500NNM20 20220912085756    1W    00000150000000689000000000032H2    HVYHV   000000000000UH429051
BI00B32H2    TAW2111        20221007180D0203960              AVSSH 0.5F G             CCN000001500000001500FN00000000020221101000001500NNM20 20220912085816    1W    00000150000000689000000000032H2    HVYHV   000000000000UH429052
BI00B32H2    @TAW2111       20221012181F21002ZZ              AVSSHCS-S 0.5FX1 B       CCN000006400000004800FN00000000020221101000004800NNM10 20220912083731    1W    00000040000001908400000000032H2    HVYHV   000000000000UH429050
BI00B32H2    @TAW2111       20221012181AD2001ZZ              CIVUSAS-S 0.35X1 B       CCN000012650000009350FN00000000020221101000009350NNM10 20220912083754    1W    00000055000001540800000000032H2    HVYHV   000000000000UH429044
BI00B32H2    @TAW2111       20221012181AD2002ZZ              CIVUSAS-S 0.35X2 B       CCN000016650000012150FN00000000020221101000012150NNM10 20220912083818    1W    00000045000001713700000000032H2    HVYHV   000000000000UH429046
BI00B32H2    @TAW2111       20221012181AD2003ZZ              CIVUSAS-S 0.35X3 B       CCN000037800000029750FN00000000020221101000029750NNM10 20220912083835    1W    00000035000002172100000000032H2    HVYHV   000000000000UH429047
BI00B32H2    @TAW2112       20221021181AD2004ZZ              CIVUSAS-S 0.35X4 B       CCN000045000000042900FN00000000020221101000042900NNM10 20220912083957    1W    00000030000002799900000000032H2    HVYHV   000000000000UH12A053
BI00B32H2    @TAW2113       20221028181AD2004ZZ              CIVUSAS-S 0.35X4 B       CCN000043500000040800FN00000000020221101000040800NNM10 20220912084119    1W    00000030000002799900000000032H2    HVYHV   000000000000UH22A055
BI00B32H2    @TAW2114       20221104181AD2004ZZ              CIVUSAS-S 0.35X4 B       CCN000048300000043200FN00000000020221101000043200NNM10 20220912084218    1W    00000030000002799900000000032H2    HVYHV   000000000000UH32A053
BI00B32H2    @TAW2111       20221012181AD2008ZZ              CIVUSAS-S 0.5X2 B        CCN000020400000012000FN00000000020221101000012000NNM10 20220912083848    1W    00000040000002028000000000032H2    HVYHV   000000000000UH429045
BI00B32H2    @TAW2112       20221021181AD2008ZZ              CIVUSAS-S 0.5X2 B        CCN000027200000022400FN00000000020221101000022400NNM10 20220912084017    1W    00000040000002028000000000032H2    HVYHV   000000000000UH12A050
BI00B32H2    @TAW2114       20221104181AD2008ZZ              CIVUSAS-S 0.5X2 B        CCN000024000000020000FN00000000020221101000020000NNM10 20220912084233    1W    00000040000002028000000000032H2    HVYHV   000000000000UH32A050
BI00B32H2    TAW2111        2022100718000004530              AV 8 B                   CCN000001000000001000FN00000000020221101000001000NNM20 20220912085453    1W    00000010000010466200000000032H2    HVYHV   000000000000UH429057
BI00B32H2    TAW2111        2022100718000004540              AV 8 W                   CCN000000600000000600FN00000000020221101000000600NNM20 20220912085521    1W    00000010000010466200000000032H2    HVYHV   000000000000UH429058
BI00B32H2    @TAW210M       20221007181B32102S1              AVSSCS 0.5FX2 DGY        CCN000005100000005100FN00000000020221001000005100NNE   20220912100350    1W    00000030000002903000000000032H2    HVYHV   000000000000UF329029
BI00B32H2    @TAW210M       20221007181AD2023ZZ              CIVUSAS-S 0.13X2 B       CCN000002400000002400FN00000000020221001000002400NNE   20220912100350    1W    00000060000001031100000000032H2    HVYHV   000000000000UF329027
BI00B32H2    @TAW210M       20221007181AD2024ZZ              CIVUSAS-S 0.13X3 B       CCN000002500000002500FN00000000020221001000002500NNE   20220912100350    1W    00000050000001297300000000032H2    HVYHV   000000000000UF329028
BI00B32H2    @TAW210N       20221007181B32102S1              AVSSCS 0.5FX2 DGY        CCN000001800000001800FN00000000020221001000001800NNE   20220912100351    1W    00000030000002903000000000032H2    HVYHV   000000000000UG329004
BI00B32H2    TAW210P        2022100718000004540              AV 8 W                   CCN000000300000000300FN00000000020221001000000300NNE   20220912100353    1W    00000010000010466200000000032H2    HVYHV   000000000000UI329037
BI00B32H2    @TAW210P       20221007181B32102S1              AVSSCS 0.5FX2 DGY        CCN000004200000004200FN00000000020221001000004200NNE   20220912100352    1W    00000030000002903000000000032H2    HVYHV   000000000000UI329036
BI00B32H2    @TAW210P       20221007181AD2023ZZ              CIVUSAS-S 0.13X2 B       CCN000003000000003000FN00000000020221001000003000NNE   20220912100352    1W    00000060000001031100000000032H2    HVYHV   000000000000UI329034
BI00B32H2    @TAW210P       20221007181AD2024ZZ              CIVUSAS-S 0.13X3 B       CCN000002000000002000FN00000000020221001000002000NNE   20220912100352    1W    00000050000001297300000000032H2    HVYHV   000000000000UI329035
BI00B32H2    @TAW211B       20221007181AD2023ZZ              CIVUSAS-S 0.13X2 B       CCN000001200000001200FN00000000020221101000001200NNE   20220912100354    1W    00000060000001031100000000032H2    HVYHV   000000000000UD329029
BI00B32H2    TAW211C        2022102118000004530              AV 8 B                   CCN000000300000000300FN00000000020221101000000300NNE   20220912100356    1W    00000010000010466200000000032H2    HVYHV   000000000000UA12A034
BI00B32H2    @TAW211C       20221021181AD2023ZZ              CIVUSAS-S 0.13X2 B       CCN000001800000001800FN00000000020221101000001800NNE   20220912100354    1W    00000060000001031100000000032H2    HVYHV   000000000000UA12A032
BI00B32H2    @TAW211C       20221021181AD2024ZZ              CIVUSAS-S 0.13X3 B       CCN000001000000001000FN00000000020221101000001000NNE   20220912100354    1W    00000050000001297300000000032H2    HVYHV   000000000000UA12A033
BI00B32H2    TAW211D        20221028180D0203950              AVSSH 0.5F R             CCN000001500000001500FN00000000020221101000001500NNE   20220912100357    1W    00000150000000689000000000032H2    HVYHV   000000000000UB22A033
BI00B32H2    @TAW211D       20221028181AD2023ZZ              CIVUSAS-S 0.13X2 B       CCN000001800000001800FN00000000020221101000001800NNE   20220912100355    1W    00000060000001031100000000032H2    HVYHV   000000000000UB22A031
BI00B32H2    @TAW211D       20221028181AD2024ZZ              CIVUSAS-S 0.13X3 B       CCN000001000000001000FN00000000020221101000001000NNE   20220912100355    1W    00000050000001297300000000032H2    HVYHV   000000000000UB22A032
BI00B32M3    SM2210C MW     2022092918007703952              AVSS 0.5F P              CCN000001500000001500FN00000000020221001000001500NNE   20220912092154    1W    00000150000000674000000000032M3    SASAMI  000000000000QK229001
BI00B32M3    SM2210C MW     2022092918007703900              AVSS 0.5F P/W            CCN000006000000006000FN00000000020221001000006000NNE   20220912092154    1W    00000150000000674000000000032M3    SASAMI  000000000000QK229002
BI00B32M3    SM2210C MW     2022092918007703992              AVSS 0.5F V              CCN000003000000003000FN00000000020221001000003000NNE   20220912092154    1W    00000150000000674000000000032M3    SASAMI  000000000000QK229003
BI00B32M3    SM2210C MW     2022092918007704180              AVSS 1.25F BR            CCN000000800000000800FN00000000020221001000000800NNE   20220912092154    1W    00000080000001389000000000032M3    SASAMI  000000000000QK229004
BI00B32M3    SM2210C MW     2022092918007704161              AVSS 1.25F LG            CCN000000800000000800FN00000000020221001000000800NNE   20220912092154    1W    00000080000001389000000000032M3    SASAMI  000000000000QK229005
BI00B32M8    PM2210D MW     202210051801W004043              IVSSH 0.75F W/B          CCN000002600000002600FN00000000020221001000002600NNE   20220912151105    1W    00000130000000882000000000032M8    PMPEMI  000000000000ID329007
BI00B32M8    PM2210D MW     2022100518007704180              AVSS 1.25F BR            CCN000000800000000800FN00000000020221001000000800NNE   20220912151105    1W    00000080000001389000000000032M8    PMPEMI  000000000000ID329005
BI00B32M8    PM2210D MW     2022100518007704192              AVSS 1.25F V             CCN000000800000000800FN00000000020221001000000800NNE   20220912151105    1W    00000080000001389000000000032M8    PMPEMI  000000000000ID329006
BI00B32M8    @PM2210D MW    20221005181B32039S1              AVSSCS 0.5FX1 DGY        CCN000000400000000400FN00000000020221001000000400NNE   20220912151103    1W    00000040000002289000000000032M8    PMPEMI  000000000000ID329002
BI00B32M8    @PM2210D MW    20221005181D6910235              AVSSHCS 0.5FX2 B/R       CCN000000300000000300FN00000000020221001000000300NNE   20220912151103    1W    00000030000002385000000000032M8    PMPEMI  000000000000ID329004
BI00B32M8    @PM2210D MW    20221005181D6910239              AVSSHCS 0.5FX2 B/L       CCN000000300000000300FN00000000020221001000000300NNE   20220912151103    1W    00000030000002385000000000032M8    PMPEMI  000000000000ID329003
BI00B32M8    PM2210DTMW     202210051801W003952              IVSSH 0.5F P             CCN000001800000001800FN00000000020221001000001800NNE   20220912151106    1W    00000180000000625000000000032M8    PMPEMI  000000000000IE329001
BI00B32M8    PM2210DTMW     202210051801W004060              IVSSH 0.75F G            CCN000002600000002600FN00000000020221001000002600NNE   20220912151106    1W    00000130000000882000000000032M8    PMPEMI  000000000000IE329002
BI00B32M8    @PM2210DTMW    20221012181F21015ZZ              AVSSHCS-S 0.5FX2 B/P     CCN000004500000004500FN00000000020221001000004500NNE   20220912151104    1W    00000030000002531400000000032M8    PMPEMI  000000000000IH429001
BI00B32Q8    @EW2210BNMW    20221005181E48025ZZ              CAVSAS-S 0.5X2 GY/G      CCN000000300000000300FN00000000020221001000000300NNE   20220912105200    1W    00000030000002561000000000032Q8    EMEMI   000000000000MP329001
BI00B32Q8    @EW2211DTMW    20221005181CQ7003ZZ              IVSSHCS-S 0.5FX2 B(B,W)  CCN000010200000010200FN00000000020221101000010200NNE   20220912105201    1W    00000030000002350200000000032Q8    EMEMI   000000000000MU329001
BI00B32Q8    EW2211G MW     2022100518007703760              AVSS 0.3F G              CCN000016000000016000FN00000000020221101000016000NNE   20220912105202    1W    00000200000000496000000000032Q8    EMEMI   000000000000MV329002
BI00B32Q8    @EW2211G MW    20221005181D6910237              AVSSHCS 0.5FX2 B/Y       CCN000000600000000600FN00000000020221101000000600NNE   20220912105201    1W    00000030000002385000000000032Q8    EMEMI   000000000000MV329001
BI00B32Q8    EW2211H MW     2022100518007703760              AVSS 0.3F G              CCN000046000000046000FN00000000020221101000046000NNE   20220912105203    1W    00000200000000496000000000032Q8    EMEMI   000000000000MW329001
BI00B32Q8    @EW2211H MW    20221005181D6910237              AVSSHCS 0.5FX2 B/Y       CCN000000600000000600FN00000000020221101000000600NNE   20220912105202    1W    00000030000002385000000000032Q8    EMEMI   000000000000MX329001
BI00B32Q8    @EW2211H MW    20221005181E48041ZZ              CAVSAS-S 0.3X2 GY/R      CCN000001750000001750FN00000000020221101000001750NNE   20220912105202    1W    00000035000002008700000000032Q8    EMEMI   000000000000MX329002
BI00B32Q8    EW2211J MW     2022101218007703750              AVSS 0.3F R              CCN000026000000026000FN00000000020221101000026000NNE   20220912105204    1W    00000200000000496000000000032Q8    EMEMI   000000000000MY429002
BI00B32Q8    EW2211J MW     2022101218007703792              AVSS 0.3F V              CCN000082000000082000FN00000000020221101000082000NNE   20220912105204    1W    00000200000000496000000000032Q8    EMEMI   000000000000MY429003
BI00B32Q8    EW2211J MW     20221012180D0203740              AVSSH 0.3F W             CCN000012000000012000FN00000000020221101000012000NNE   20220912105204    1W    00000200000000515000000000032Q8    EMEMI   000000000000MY429001
BI00B32W4    @4500200122    20221025181D6910239              AVSSHCS 0.5FX2 B/L       CCN000029700000029700FN00000000020221001000029700NNE   20220912112549W4A21W    00000030000002385000000000032W4A2  HJYHK-J 000000000000OR22A001
BI00B32W4    4500200140     2022101818007704250              AVSS 2F R                CCN000000500000000500FN00000000020221001000000500NNE   20220912112550W41 1W    00000050000002126400000000032W41   HJYHK-J 000000000000OO12A001
BI00B32W4    4500200140     2022101818018403930              CAVS 0.5 B               CCN000001500000001500FN00000000020221001000001500NNE   20220912112550W41 1W    00000150000000677000000000032W41   HJYHK-J 000000000000OO12A002
BI00B32W4    4500200140     2022101818018403940              CAVS 0.5 W               CCN000001500000001500FN00000000020221001000001500NNE   20220912112550W41 1W    00000150000000677000000000032W41   HJYHK-J 000000000000OO12A003
BI00B32W4    4500200140     2022101818018404041              CAVS 0.85 GY             CCN000003000000003000FN00000000020221001000003000NNE   20220912112550W41 1W    00000100000000965000000000032W41   HJYHK-J 000000000000OO12A005
BI00B32W4    4500200140     2022101818018404050              CAVS 0.85 R              CCN000004000000004000FN00000000020221001000004000NNE   20220912112550W41 1W    00000100000000965000000000032W41   HJYHK-J 000000000000OO12A006
BI00B32W4    4500200140     2022101818018404080              CAVS 0.85 BR             CCN000001000000001000FN00000000020221001000001000NNE   20220912112550W41 1W    00000100000000965000000000032W41   HJYHK-J 000000000000OO12A004
BI00B32W4    4500200140     2022101818018404091              CAVS 0.85 SB             CCN000003000000003000FN00000000020221001000003000NNE   20220912112550W41 1W    00000100000000965000000000032W41   HJYHK-J 000000000000OO12A007
BI00B32W4    4500200140     2022101818018404092              CAVS 0.85 V              CCN000001000000001000FN00000000020221001000001000NNE   20220912112550W41 1W    00000100000000965000000000032W41   HJYHK-J 000000000000OO12A008
BI00B32W4    4500200168     2022110118018403951              CAVS 0.5 O               CCN000001500000001500FN00000000020221101000001500NNE   20220912112553W41 1W    00000150000000677000000000032W41   HJYHK-J 000000000000OP32A002
BI00B32W4    4500200168     2022110118018403952              CAVS 0.5 P               CCN000001500000001500FN00000000020221101000001500NNE   20220912112553W41 1W    00000150000000677000000000032W41   HJYHK-J 000000000000OP32A003
BI00B32W4    4500200168     202211011801R706950              CIVUS 0.35 R             CCN000003000000003000FN00000000020221101000003000NNE   20220912112553W41 1W    00000300000000386000000000032W41   HJYHK-J 000000000000OP32A001
BI00B32W4    4500200170     2022110818018403791              CAVS 0.3 SB              CCN000016000000016000FN00000000020221101000016000NNE   20220912112554W41 1W    00000200000000471000000000032W41   HJYHK-J 000000000000OW42A019
BI00B32W4    4500200170     2022110818018403740              CAVS 0.3 W               CCN000010000000010000FN00000000020221101000010000NNE   20220912112554W41 1W    00000200000000471000000000032W41   HJYHK-J 000000000000OW42A021
BI00B32W4    4500200170     2022110818018403730              CAVS 0.3 B               CCN000018000000018000FN00000000020221101000018000NNE   20220912112554W41 1W    00000200000000471000000000032W41   HJYHK-J 000000000000OW42A008
BI00B32W4    4500200170     2022110818018403750              CAVS 0.3 R               CCN000008000000008000FN00000000020221101000008000NNE   20220912112554W41 1W    00000200000000471000000000032W41   HJYHK-J 000000000000OW42A017
BI00B32W4    4500200170     2022110818018403760              CAVS 0.3 G               CCN000002000000002000FN00000000020221101000002000NNE   20220912112554W41 1W    00000200000000471000000000032W41   HJYHK-J 000000000000OW42A011
BI00B32W4    4500200170     2022110818018403770              CAVS 0.3 Y               CCN000012000000012000FN00000000020221101000012000NNE   20220912112554W41 1W    00000200000000471000000000032W41   HJYHK-J 000000000000OW42A023
BI00B32W4    4500200170     2022110818018403780              CAVS 0.3 BR              CCN000004000000004000FN00000000020221101000004000NNE   20220912112554W41 1W    00000200000000471000000000032W41   HJYHK-J 000000000000OW42A009
BI00B32W4    4500200170     2022110818018403790              CAVS 0.3 L               CCN000008000000008000FN00000000020221101000008000NNE   20220912112554W41 1W    00000200000000471000000000032W41   HJYHK-J 000000000000OW42A013
BI00B32W4    4500200170     2022110818018403792              CAVS 0.3 V               CCN000014000000014000FN00000000020221101000014000NNE   20220912112554W41 1W    00000200000000471000000000032W41   HJYHK-J 000000000000OW42A020
BI00B32W4    4500200170     2022110818018403761              CAVS 0.3 LG              CCN000014000000014000FN00000000020221101000014000NNE   20220912112554W41 1W    00000200000000471000000000032W41   HJYHK-J 000000000000OW42A015
BI00B32W4    4500200170     2022110818018403741              CAVS 0.3 GY              CCN000016000000016000FN00000000020221101000016000NNE   20220912112554W41 1W    00000200000000471000000000032W41   HJYHK-J 000000000000OW42A012
BI00B32W4    4500200170     2022110818018403751              CAVS 0.3 O               CCN000008000000008000FN00000000020221101000008000NNE   20220912112554W41 1W    00000200000000471000000000032W41   HJYHK-J 000000000000OW42A016
BI00B32W4    4500200170     2022110818018403753              CAVS 0.3 R/B             CCN000002000000002000FN00000000020221101000002000NNE   20220912112554W41 1W    00000200000000471000000000032W41   HJYHK-J 000000000000OW42A018
BI00B32W4    4500200170     2022110818018403795              CAVS 0.3 L/R             CCN000002000000002000FN00000000020221101000002000NNE   20220912112554W41 1W    00000200000000471000000000032W41   HJYHK-J 000000000000OW42A014
BI00B32W4    4500200170     2022110818018403784              CAVS 0.3 BR/W            CCN000006000000006000FN00000000020221101000006000NNE   20220912112554W41 1W    00000200000000471000000000032W41   HJYHK-J 000000000000OW42A010
BI00B32W4    4500200170     2022110818018403749              CAVS 0.3 W/L             CCN000010000000010000FN00000000020221101000010000NNE   20220912112554W41 1W    00000200000000471000000000032W41   HJYHK-J 000000000000OW42A022
BI00B32W4    4500200170     2022110818018403930              CAVS 0.5 B               CCN000021000000021000FN00000000020221101000021000NNE   20220912112554W41 1W    00000150000000677000000000032W41   HJYHK-J 000000000000OW42A024
BI00B32W4    4500200170     2022110818018403940              CAVS 0.5 W               CCN000006000000006000FN00000000020221101000006000NNE   20220912112554W41 1W    00000150000000677000000000032W41   HJYHK-J 000000000000OW42A033
BI00B32W4    4500200170     2022110818018403941              CAVS 0.5 GY              CCN000007500000007500FN00000000020221101000007500NNE   20220912112554W41 1W    00000150000000677000000000032W41   HJYHK-J 000000000000OW42A027
BI00B32W4    4500200170     2022110818018403950              CAVS 0.5 R               CCN000015000000015000FN00000000020221101000015000NNE   20220912112554W41 1W    00000150000000677000000000032W41   HJYHK-J 000000000000OW42A030
BI00B32W4    4500200170     2022110818018403952              CAVS 0.5 P               CCN000003000000003000FN00000000020221101000003000NNE   20220912112554W41 1W    00000150000000677000000000032W41   HJYHK-J 000000000000OW42A029
BI00B32W4    4500200170     2022110818018403960              CAVS 0.5 G               CCN000003000000003000FN00000000020221101000003000NNE   20220912112554W41 1W    00000150000000677000000000032W41   HJYHK-J 000000000000OW42A026
BI00B32W4    4500200170     2022110818018403961              CAVS 0.5 LG              CCN000003000000003000FN00000000020221101000003000NNE   20220912112554W41 1W    00000150000000677000000000032W41   HJYHK-J 000000000000OW42A028
BI00B32W4    4500200170     2022110818018403970              CAVS 0.5 Y               CCN000001500000001500FN00000000020221101000001500NNE   20220912112554W41 1W    00000150000000677000000000032W41   HJYHK-J 000000000000OW42A034
BI00B32W4    4500200170     2022110818018403980              CAVS 0.5 BR              CCN000001500000001500FN00000000020221101000001500NNE   20220912112554W41 1W    00000150000000677000000000032W41   HJYHK-J 000000000000OW42A025
BI00B32W4    4500200170     2022110818018403991              CAVS 0.5 SB              CCN000007500000007500FN00000000020221101000007500NNE   20220912112554W41 1W    00000150000000677000000000032W41   HJYHK-J 000000000000OW42A031
BI00B32W4    4500200170     2022110818018403992              CAVS 0.5 V               CCN000004500000004500FN00000000020221101000004500NNE   20220912112554W41 1W    00000150000000677000000000032W41   HJYHK-J 000000000000OW42A032
BI00B32W4    4500200170     2022110818018404157              CAVS 1.25 R/Y            CCN000000800000000800FN00000000020221101000000800NNE   20220912112554W41 1W    00000080000001378000000000032W41   HJYHK-J 000000000000OW42A036
BI00B32W4    4500200170     2022110818018404194              CAVS 1.25 L/W            CCN000000800000000800FN00000000020221101000000800NNE   20220912112554W41 1W    00000080000001378000000000032W41   HJYHK-J 000000000000OW42A035
BI00B32W4    4500200170     202211081801R706940              CIVUS 0.35 W             CCN000003000000003000FN00000000020221101000003000NNE   20220912112554W41 1W    00000300000000386000000000032W41   HJYHK-J 000000000000OW42A006
BI00B32W4    4500200170     202211081801R706930              CIVUS 0.35 B             CCN000003000000003000FN00000000020221101000003000NNE   20220912112554W41 1W    00000300000000386000000000032W41   HJYHK-J 000000000000OW42A004
BI00B32W4    4500200170     202211081801R706970              CIVUS 0.35 Y             CCN000003000000003000FN00000000020221101000003000NNE   20220912112554W41 1W    00000300000000386000000000032W41   HJYHK-J 000000000000OW42A007
BI00B32W4    4500200170     202211081801R706990              CIVUS 0.35 L             CCN000003000000003000FN00000000020221101000003000NNE   20220912112554W41 1W    00000300000000386000000000032W41   HJYHK-J 000000000000OW42A005
BI00B32W4    @4500200170    20221108181B0911611              CAVSAS 0.3X2 GY/L        CCN000002100000002100FN00000000020221101000002100NNE   20220912112552W41 1W    00000035000002254000000000032W41   HJYHK-J 000000000000OW42A002
BI00B32W4    @4500200170    20221108181B09116K3              CAVSAS 0.3X2 GY/P        CCN000001050000001050FN00000000020221101000001050NNE   20220912112552W41 1W    00000035000002254000000000032W41   HJYHK-J 000000000000OW42A003
BI00B32W4    @4500200170    20221108181B0911641              CAVSAS 0.3X2 GY          CCN000002450000002450FN00000000020221101000002450NNE   20220912112552W41 1W    00000035000002254000000000032W41   HJYHK-J 000000000000OW42A001
BI00B32W4    4500200201     2022092718009604330              AVS 3 B                  CCN000001600000001600FN00000000020220901000001600NNE   20220912112548W42 1W    00000040000003831600000000032W42   HJYHK-J 000000000000OD229010
BI00B32W4    4500200201     2022092718009604354              AVS 3 R/W                CCN000000800000000800FN00000000020220901000000800NNE   20220912112548W42 1W    00000040000003831600000000032W42   HJYHK-J 000000000000OD229011
BI00B32W4    4500200201     2022092718009604357              AVS 3 R/Y                CCN000000800000000800FN00000000020220901000000800NNE   20220912112548W42 1W    00000040000003831600000000032W42   HJYHK-J 000000000000OD229012
BI00B32W4    4500200201     2022092718007703930              AVSS 0.5F B              CCN000001500000001500FN00000000020220901000001500NNE   20220912112548W42 1W    00000150000000674000000000032W42   HJYHK-J 000000000000OD229001
BI00B32W4    4500200201     2022092718007703960              AVSS 0.5F G              CCN000001500000001500FN00000000020220901000001500NNE   20220912112548W42 1W    00000150000000674000000000032W42   HJYHK-J 000000000000OD229002
BI00B32W4    4500200201     2022092718007703990              AVSS 0.5F L              CCN000001500000001500FN00000000020220901000001500NNE   20220912112548W42 1W    00000150000000674000000000032W42   HJYHK-J 000000000000OD229003
BI00B32W4    4500200201     2022092718007703970              AVSS 0.5F Y              CCN000001500000001500FN00000000020220901000001500NNE   20220912112548W42 1W    00000150000000674000000000032W42   HJYHK-J 000000000000OD229004
BI00B32W4    4500200201     2022092718007704130              AVSS 1.25F B             CCN000001600000001600FN00000000020220901000001600NNE   20220912112548W42 1W    00000080000001389000000000032W42   HJYHK-J 000000000000OD229005
BI00B32W4    4500200201     2022092718007704151              AVSS 1.25F O             CCN000001600000001600FN00000000020220901000001600NNE   20220912112548W42 1W    00000080000001389000000000032W42   HJYHK-J 000000000000OD229006
BI00B32W4    4500200201     2022092718007704150              AVSS 1.25F R             CCN000000800000000800FN00000000020220901000000800NNE   20220912112548W42 1W    00000080000001389000000000032W42   HJYHK-J 000000000000OD229007
BI00B32W4    4500200201     2022092718007704230              AVSS 2F B                CCN000004500000004500FN00000000020220901000004500NNE   20220912112548W42 1W    00000050000002126400000000032W42   HJYHK-J 000000000000OD229008
BI00B32W4    4500200201     2022092718007704250              AVSS 2F R                CCN000001500000001500FN00000000020220901000001500NNE   20220912112548W42 1W    00000050000002126400000000032W42   HJYHK-J 000000000000OD229009
BI00B32W4    4500200201     2022092718018403730              CAVS 0.3 B               CCN000004000000004000FN00000000020220901000004000NNE   20220912112548W42 1W    00000200000000471000000000032W42   HJYHK-J 000000000000OD229013
BI00B32W4    4500200201     2022092718018403734              CAVS 0.3 B/W             CCN000004000000004000FN00000000020220901000004000NNE   20220912112548W42 1W    00000200000000471000000000032W42   HJYHK-J 000000000000OD229014
BI00B32W4    4500200201     2022092718018403760              CAVS 0.3 G               CCN000002000000002000FN00000000020220901000002000NNE   20220912112548W42 1W    00000200000000471000000000032W42   HJYHK-J 000000000000OD229015
BI00B32W4    4500200201     2022092718018403763              CAVS 0.3 G/B             CCN000002000000002000FN00000000020220901000002000NNE   20220912112548W42 1W    00000200000000471000000000032W42   HJYHK-J 000000000000OD229016
BI00B32W4    4500200201     2022092718018403767              CAVS 0.3 G/Y             CCN000002000000002000FN00000000020220901000002000NNE   20220912112548W42 1W    00000200000000471000000000032W42   HJYHK-J 000000000000OD229017
BI00B32W4    4500200201     2022092718018403790              CAVS 0.3 L               CCN000002000000002000FN00000000020220901000002000NNE   20220912112548W42 1W    00000200000000471000000000032W42   HJYHK-J 000000000000OD229018
BI00B32W4    4500200201     2022092718018403751              CAVS 0.3 O               CCN000002000000002000FN00000000020220901000002000NNE   20220912112548W42 1W    00000200000000471000000000032W42   HJYHK-J 000000000000OD229019
BI00B32W4    4500200201     2022092718018403752              CAVS 0.3 P               CCN000002000000002000FN00000000020220901000002000NNE   20220912112548W42 1W    00000200000000471000000000032W42   HJYHK-J 000000000000OD229020
BI00B32W4    4500200201     2022092718018403754              CAVS 0.3 R/W             CCN000002000000002000FN00000000020220901000002000NNE   20220912112548W42 1W    00000200000000471000000000032W42   HJYHK-J 000000000000OD229021
BI00B32W4    4500200201     2022092718018403757              CAVS 0.3 R/Y             CCN000002000000002000FN00000000020220901000002000NNE   20220912112548W42 1W    00000200000000471000000000032W42   HJYHK-J 000000000000OD229022
BI00B32W4    4500200201     2022092718018403740              CAVS 0.3 W               CCN000002000000002000FN00000000020220901000002000NNE   20220912112548W42 1W    00000200000000471000000000032W42   HJYHK-J 000000000000OD229023
BI00B32W4    4500200201     2022092718018403745              CAVS 0.3 W/R             CCN000002000000002000FN00000000020220901000002000NNE   20220912112548W42 1W    00000200000000471000000000032W42   HJYHK-J 000000000000OD229024
BI00B32W4    4500200201     2022092718018403770              CAVS 0.3 Y               CCN000002000000002000FN00000000020220901000002000NNE   20220912112548W42 1W    00000200000000471000000000032W42   HJYHK-J 000000000000OD229025
BI00B32W4    4500200201     2022092718018403775              CAVS 0.3 Y/R             CCN000002000000002000FN00000000020220901000002000NNE   20220912112548W42 1W    00000200000000471000000000032W42   HJYHK-J 000000000000OD229026
BI00B32W4    4500200201     2022092718018403930              CAVS 0.5 B               CCN000013500000013500FN00000000020220901000013500NNE   20220912112548W42 1W    00000150000000677000000000032W42   HJYHK-J 000000000000OD229027
BI00B32W4    4500200201     2022092718018403936              CAVS 0.5 B/G             CCN000001500000001500FN00000000020220901000001500NNE   20220912112548W42 1W    00000150000000677000000000032W42   HJYHK-J 000000000000OD229028
BI00B32W4    4500200201     2022092718018403939              CAVS 0.5 B/L             CCN000003000000003000FN00000000020220901000003000NNE   20220912112548W42 1W    00000150000000677000000000032W42   HJYHK-J 000000000000OD229029
BI00B32W4    4500200201     2022092718018403935              CAVS 0.5 B/R             CCN000003000000003000FN00000000020220901000003000NNE   20220912112548W42 1W    00000150000000677000000000032W42   HJYHK-J 000000000000OD229030
BI00B32W4    4500200201     2022092718018403934              CAVS 0.5 B/W             CCN000013500000013500FN00000000020220901000013500NNE   20220912112548W42 1W    00000150000000677000000000032W42   HJYHK-J 000000000000OD229031
BI00B32W4    4500200201     2022092718018403980              CAVS 0.5 BR              CCN000006000000006000FN00000000020220901000006000NNE   20220912112548W42 1W    00000150000000677000000000032W42   HJYHK-J 000000000000OD229032
BI00B32W4    4500200201     2022092718018403984              CAVS 0.5 BR/W            CCN000006000000006000FN00000000020220901000006000NNE   20220912112548W42 1W    00000150000000677000000000032W42   HJYHK-J 000000000000OD229033
BI00B32W4    4500200201     2022092718018403987              CAVS 0.5 BR/Y            CCN000001500000001500FN00000000020220901000001500NNE   20220912112548W42 1W    00000150000000677000000000032W42   HJYHK-J 000000000000OD229034
BI00B32W4    4500200201     2022092718018403960              CAVS 0.5 G               CCN000009000000009000FN00000000020220901000009000NNE   20220912112548W42 1W    00000150000000677000000000032W42   HJYHK-J 000000000000OD229035
BI00B32W4    4500200201     2022092718018403964              CAVS 0.5 G/W             CCN000003000000003000FN00000000020220901000003000NNE   20220912112548W42 1W    00000150000000677000000000032W42   HJYHK-J 000000000000OD229036
BI00B32W4    4500200201     2022092718018403990              CAVS 0.5 L               CCN000007500000007500FN00000000020220901000007500NNE   20220912112548W42 1W    00000150000000677000000000032W42   HJYHK-J 000000000000OD229037
BI00B32W4    4500200201     2022092718018403995              CAVS 0.5 L/R             CCN000004500000004500FN00000000020220901000004500NNE   20220912112548W42 1W    00000150000000677000000000032W42   HJYHK-J 000000000000OD229038
BI00B32W4    4500200201     2022092718018403994              CAVS 0.5 L/W             CCN000001500000001500FN00000000020220901000001500NNE   20220912112548W42 1W    00000150000000677000000000032W42   HJYHK-J 000000000000OD229039
BI00B32W4    4500200201     2022092718018403997              CAVS 0.5 L/Y             CCN000001500000001500FN00000000020220901000001500NNE   20220912112548W42 1W    00000150000000677000000000032W42   HJYHK-J 000000000000OD229040
BI00B32W4    4500200201     2022092718018403961              CAVS 0.5 LG              CCN000001500000001500FN00000000020220901000001500NNE   20220912112548W42 1W    00000150000000677000000000032W42   HJYHK-J 000000000000OD229041
BI00B32W4    4500200201     2022092718018403951              CAVS 0.5 O               CCN000003000000003000FN00000000020220901000003000NNE   20220912112548W42 1W    00000150000000677000000000032W42   HJYHK-J 000000000000OD229042
BI00B32W4    4500200201     2022092718018403952              CAVS 0.5 P               CCN000004500000004500FN00000000020220901000004500NNE   20220912112548W42 1W    00000150000000677000000000032W42   HJYHK-J 000000000000OD229043
BI00B32W4    4500200201     2022092718018403950              CAVS 0.5 R               CCN000004500000004500FN00000000020220901000004500NNE   20220912112548W42 1W    00000150000000677000000000032W42   HJYHK-J 000000000000OD229044
BI00B32W4    4500200201     2022092718018403956              CAVS 0.5 R/G             CCN000007500000007500FN00000000020220901000007500NNE   20220912112548W42 1W    00000150000000677000000000032W42   HJYHK-J 000000000000OD229045
BI00B32W4    4500200201     2022092718018403954              CAVS 0.5 R/W             CCN000007500000007500FN00000000020220901000007500NNE   20220912112548W42 1W    00000150000000677000000000032W42   HJYHK-J 000000000000OD229046
BI00B32W4    4500200201     2022092718018403957              CAVS 0.5 R/Y             CCN000004500000004500FN00000000020220901000004500NNE   20220912112548W42 1W    00000150000000677000000000032W42   HJYHK-J 000000000000OD229047
BI00B32W4    4500200201     2022092718018403992              CAVS 0.5 V               CCN000003000000003000FN00000000020220901000003000NNE   20220912112548W42 1W    00000150000000677000000000032W42   HJYHK-J 000000000000OD229048
BI00B32W4    4500200201     2022092718018403940              CAVS 0.5 W               CCN000003000000003000FN00000000020220901000003000NNE   20220912112548W42 1W    00000150000000677000000000032W42   HJYHK-J 000000000000OD229049
BI00B32W4    4500200201     2022092718018403943              CAVS 0.5 W/B             CCN000004500000004500FN00000000020220901000004500NNE   20220912112548W42 1W    00000150000000677000000000032W42   HJYHK-J 000000000000OD229050
BI00B32W4    4500200201     2022092718018403949              CAVS 0.5 W/L             CCN000001500000001500FN00000000020220901000001500NNE   20220912112548W42 1W    00000150000000677000000000032W42   HJYHK-J 000000000000OD229051
BI00B32W4    4500200201     2022092718018403945              CAVS 0.5 W/R             CCN000001500000001500FN00000000020220901000001500NNE   20220912112548W42 1W    00000150000000677000000000032W42   HJYHK-J 000000000000OD229052
BI00B32W4    4500200201     2022092718018403970              CAVS 0.5 Y               CCN000007500000007500FN00000000020220901000007500NNE   20220912112548W42 1W    00000150000000677000000000032W42   HJYHK-J 000000000000OD229053
BI00B32W4    4500200201     2022092718018403975              CAVS 0.5 Y/R             CCN000004500000004500FN00000000020220901000004500NNE   20220912112548W42 1W    00000150000000677000000000032W42   HJYHK-J 000000000000OD229054
BI00B32W4    4500200201     2022092718018404030              CAVS 0.85 B              CCN000001000000001000FN00000000020220901000001000NNE   20220912112548W42 1W    00000100000000965000000000032W42   HJYHK-J 000000000000OD229055
BI00B32W4    4500200201     2022092718018404070              CAVS 0.85 Y              CCN000001000000001000FN00000000020220901000001000NNE   20220912112548W42 1W    00000100000000965000000000032W42   HJYHK-J 000000000000OD229056
BI00B32W4    4500200201     2022092718018404130              CAVS 1.25 B              CCN000008800000008800FN00000000020220901000008800NNE   20220912112548W42 1W    00000080000001378000000000032W42   HJYHK-J 000000000000OD229057
BI00B32W4    4500200201     2022092718018404160              CAVS 1.25 G              CCN000001600000001600FN00000000020220901000001600NNE   20220912112548W42 1W    00000080000001378000000000032W42   HJYHK-J 000000000000OD229058
BI00B32W4    4500200201     2022092718018404190              CAVS 1.25 L              CCN000004800000004800FN00000000020220901000004800NNE   20220912112548W42 1W    00000080000001378000000000032W42   HJYHK-J 000000000000OD229059
BI00B32W4    4500200201     2022092718018404150              CAVS 1.25 R              CCN000006400000006400FN00000000020220901000006400NNE   20220912112548W42 1W    00000080000001378000000000032W42   HJYHK-J 000000000000OD229060
BI00B32W4    4500200201     2022092718018404140              CAVS 1.25 W              CCN000002400000002400FN00000000020220901000002400NNE   20220912112548W42 1W    00000080000001378000000000032W42   HJYHK-J 000000000000OD229061
BI00B32W4    4500200186     2022101118018404030              CAVS 0.85 B              CCN000002000000002000FN00000000020221001000002000NNE   20220912112551W41 1W    00000100000000965000000000032W41   HJYHK-J 000000000000OE429001
BI00B32W4    4500200186     2022101118018404040              CAVS 0.85 W              CCN000002000000002000FN00000000020221001000002000NNE   20220912112551W41 1W    00000100000000965000000000032W41   HJYHK-J 000000000000OE429009
BI00B32W4    4500200186     2022101118018404041              CAVS 0.85 GY             CCN000003000000003000FN00000000020221001000003000NNE   20220912112551W41 1W    00000100000000965000000000032W41   HJYHK-J 000000000000OE429003
BI00B32W4    4500200186     2022101118018404050              CAVS 0.85 R              CCN000004000000004000FN00000000020221001000004000NNE   20220912112551W41 1W    00000100000000965000000000032W41   HJYHK-J 000000000000OE429006
BI00B32W4    4500200186     2022101118018404051              CAVS 0.85 O              CCN000001000000001000FN00000000020221001000001000NNE   20220912112551W41 1W    00000100000000965000000000032W41   HJYHK-J 000000000000OE429004
BI00B32W4    4500200186     2022101118018404052              CAVS 0.85 P              CCN000001000000001000FN00000000020221001000001000NNE   20220912112551W41 1W    00000100000000965000000000032W41   HJYHK-J 000000000000OE429005
BI00B32W4    4500200186     2022101118018404060              CAVS 0.85 G              CCN000002000000002000FN00000000020221001000002000NNE   20220912112551W41 1W    00000100000000965000000000032W41   HJYHK-J 000000000000OE429002
BI00B32W4    4500200186     2022101118018404070              CAVS 0.85 Y              CCN000003000000003000FN00000000020221001000003000NNE   20220912112551W41 1W    00000100000000965000000000032W41   HJYHK-J 000000000000OE429010
BI00B32W4    4500200186     2022101118018404091              CAVS 0.85 SB             CCN000003000000003000FN00000000020221001000003000NNE   20220912112551W41 1W    00000100000000965000000000032W41   HJYHK-J 000000000000OE429007
BI00B32W4    4500200186     2022101118018404092              CAVS 0.85 V              CCN000001000000001000FN00000000020221001000001000NNE   20220912112551W41 1W    00000100000000965000000000032W41   HJYHK-J 000000000000OE429008
BI00B32W4    4500200188     2022110818018403791              CAVS 0.3 SB              CCN000006000000006000FN00000000020221101000006000NNE   20220912112555W41 1W    00000200000000471000000000032W41   HJYHK-J 000000000000OY42A006
BI00B32W4    4500200188     2022110818018403740              CAVS 0.3 W               CCN000036000000036000FN00000000020221101000036000NNE   20220912112555W41 1W    00000200000000471000000000032W41   HJYHK-J 000000000000OY42A007
BI00B32W4    4500200188     2022110818018403730              CAVS 0.3 B               CCN000008000000008000FN00000000020221101000008000NNE   20220912112555W41 1W    00000200000000471000000000032W41   HJYHK-J 000000000000OY42A001
BI00B32W4    4500200188     2022110818018403752              CAVS 0.3 P               CCN000010000000010000FN00000000020221101000010000NNE   20220912112555W41 1W    00000200000000471000000000032W41   HJYHK-J 000000000000OY42A005
BI00B32W4    4500200188     2022110818018403760              CAVS 0.3 G               CCN000016000000016000FN00000000020221101000016000NNE   20220912112555W41 1W    00000200000000471000000000032W41   HJYHK-J 000000000000OY42A003
BI00B32W4    4500200188     2022110818018403770              CAVS 0.3 Y               CCN000012000000012000FN00000000020221101000012000NNE   20220912112555W41 1W    00000200000000471000000000032W41   HJYHK-J 000000000000OY42A008
BI00B32W4    4500200188     2022110818018403780              CAVS 0.3 BR              CCN000016000000016000FN00000000020221101000016000NNE   20220912112555W41 1W    00000200000000471000000000032W41   HJYHK-J 000000000000OY42A002
BI00B32W4    4500200188     2022110818018403790              CAVS 0.3 L               CCN000022000000022000FN00000000020221101000022000NNE   20220912112555W41 1W    00000200000000471000000000032W41   HJYHK-J 000000000000OY42A004
BI00B32W4    4500200188     2022110818018403963              CAVS 0.5 G/B             CCN000001500000001500FN00000000020221101000001500NNE   20220912112555W41 1W    00000150000000677000000000032W41   HJYHK-J 000000000000OY42A010
BI00B32W4    4500200188     2022110818018403941              CAVS 0.5 GY              CCN000013500000013500FN00000000020221101000013500NNE   20220912112555W41 1W    00000150000000677000000000032W41   HJYHK-J 000000000000OY42A011
BI00B32W4    4500200188     2022110818018403950              CAVS 0.5 R               CCN000015000000015000FN00000000020221101000015000NNE   20220912112555W41 1W    00000150000000677000000000032W41   HJYHK-J 000000000000OY42A016
BI00B32W4    4500200188     2022110818018403951              CAVS 0.5 O               CCN000034500000034500FN00000000020221101000034500NNE   20220912112555W41 1W    00000150000000677000000000032W41   HJYHK-J 000000000000OY42A014
BI00B32W4    4500200188     2022110818018403952              CAVS 0.5 P               CCN000069000000069000FN00000000020221101000069000NNE   20220912112555W41 1W    00000150000000677000000000032W41   HJYHK-J 000000000000OY42A015
BI00B32W4    4500200188     2022110818018403961              CAVS 0.5 LG              CCN000001500000001500FN00000000020221101000001500NNE   20220912112555W41 1W    00000150000000677000000000032W41   HJYHK-J 000000000000OY42A013
BI00B32W4    4500200188     2022110818018403970              CAVS 0.5 Y               CCN000049500000049500FN00000000020221101000049500NNE   20220912112555W41 1W    00000150000000677000000000032W41   HJYHK-J 000000000000OY42A019
BI00B32W4    4500200188     2022110818018403980              CAVS 0.5 BR              CCN000018000000018000FN00000000020221101000018000NNE   20220912112555W41 1W    00000150000000677000000000032W41   HJYHK-J 000000000000OY42A009
BI00B32W4    4500200188     2022110818018403990              CAVS 0.5 L               CCN000073500000073500FN00000000020221101000073500NNE   20220912112555W41 1W    00000150000000677000000000032W41   HJYHK-J 000000000000OY42A012
BI00B32W4    4500200188     2022110818018403991              CAVS 0.5 SB              CCN000001500000001500FN00000000020221101000001500NNE   20220912112555W41 1W    00000150000000677000000000032W41   HJYHK-J 000000000000OY42A017
BI00B32W4    4500200188     2022110818018403992              CAVS 0.5 V               CCN000018000000018000FN00000000020221101000018000NNE   20220912112555W41 1W    00000150000000677000000000032W41   HJYHK-J 000000000000OY42A018
BI00B32W4    4500200188     2022110818018404030              CAVS 0.85 B              CCN000070000000070000FN00000000020221101000070000NNE   20220912112555W41 1W    00000100000000965000000000032W41   HJYHK-J 000000000000OY42A020
BI00B32W4    4500200188     2022110818018404040              CAVS 0.85 W              CCN000043000000043000FN00000000020221101000043000NNE   20220912112555W41 1W    00000100000000965000000000032W41   HJYHK-J 000000000000OY42A030
BI00B32W4    4500200188     2022110818018404041              CAVS 0.85 GY             CCN000088000000088000FN00000000020221101000088000NNE   20220912112555W41 1W    00000100000000965000000000032W41   HJYHK-J 000000000000OY42A023
BI00B32W4    4500200188     2022110818018404050              CAVS 0.85 R              CCN000105000000105000FN00000000020221101000105000NNE   20220912112555W41 1W    00000100000000965000000000032W41   HJYHK-J 000000000000OY42A027
BI00B32W4    4500200188     2022110818018404051              CAVS 0.85 O              CCN000031000000031000FN00000000020221101000031000NNE   20220912112555W41 1W    00000100000000965000000000032W41   HJYHK-J 000000000000OY42A025
BI00B32W4    4500200188     2022110818018404052              CAVS 0.85 P              CCN000025000000025000FN00000000020221101000025000NNE   20220912112555W41 1W    00000100000000965000000000032W41   HJYHK-J 000000000000OY42A026
BI00B32W4    4500200188     2022110818018404060              CAVS 0.85 G              CCN000033000000033000FN00000000020221101000033000NNE   20220912112555W41 1W    00000100000000965000000000032W41   HJYHK-J 000000000000OY42A022
BI00B32W4    4500200188     2022110818018404061              CAVS 0.85 LG             CCN000005000000005000FN00000000020221101000005000NNE   20220912112555W41 1W    00000100000000965000000000032W41   HJYHK-J 000000000000OY42A024
BI00B32W4    4500200188     2022110818018404070              CAVS 0.85 Y              CCN000054000000054000FN00000000020221101000054000NNE   20220912112555W41 1W    00000100000000965000000000032W41   HJYHK-J 000000000000OY42A031
BI00B32W4    4500200188     2022110818018404080              CAVS 0.85 BR             CCN000030000000030000FN00000000020221101000030000NNE   20220912112555W41 1W    00000100000000965000000000032W41   HJYHK-J 000000000000OY42A021
BI00B32W4    4500200188     2022110818018404091              CAVS 0.85 SB             CCN000041000000041000FN00000000020221101000041000NNE   20220912112555W41 1W    00000100000000965000000000032W41   HJYHK-J 000000000000OY42A028
BI00B32W4    4500200188     2022110818018404092              CAVS 0.85 V              CCN000018000000018000FN00000000020221101000018000NNE   20220912112555W41 1W    00000100000000965000000000032W41   HJYHK-J 000000000000OY42A029
BI00B32W7    SC2210AJMW     2022100518000004590              AV 8 L                   CCN000006000000006000FN00000000020221001000006000NNE   20220912104317    1W    00000010000010466200000000032W7    SYSYA-CH000000000000WG329002
BI00B32W7    SC2210AJMW     2022100518000004550              AV 8 R                   CCN000020000000020000FN00000000020221001000020000NNE   20220912104317    1W    00000010000010466200000000032W7    SYSYA-CH000000000000WG329003
BI00B32W7    SC2210AJMW     2022100518000004540              AV 8 W                   CCN000006000000006000FN00000000020221001000006000NNE   20220912104317    1W    00000010000010466200000000032W7    SYSYA-CH000000000000WG329004
BI00B32W7    @SC2210AJMW    20221005181B32116Y9              AVSSCS 0.3FX2 DGY/P      CCN000006650000006650FN00000000020221001000006650NNE   20220912104316    1W    00000035000002276000000000032W7    SYSYA-CH000000000000WG329001
