BI00B1200    #8000T52901    202209297182-8251-40             HOUSING                  CCN000002400000002400FN00000000020221001000002400NNM   20220912122510    2F0F  0000024000000075500000105501200    YCYC    005500360039
BI00B1200    H322L50014     202211177116-4112-02             TERMINAL                 CCN000012000000012000FN00000000020221201000012000NNE   20220912122510    4P0P  0000060000000045000000073821200    YCYC    006400630015
BI00B1200    7504T52906     202212017154-7140-30             LOWER COVER              CCN000003000000003000FN00000000020230101000003000NNM   20220912122510    4F0F  0000000600000019900000041001200    YCYC    005600390040
BI00B1200    7504T52906     202212017254-5840-30             ENG R/B SUB ASS'Y        CCN000003000000003000FN00000000020230101000003000NNM   20220912122510    4J0J  0000000240000073200000095201200    YCYC    005600390040
BI00B32AF    JTB2103        202209167283-4855                CONNECTOR HOUSING        CCN000004800000004800FN00000000020221001000004800NNMD0020220912164504    4N0N  00000240000001188400001400032AF    HBYHVTB 005500360039
BI00B32AF    JTB210L        202209237283-5846                HOUSING                  CCN000009000000009000FN00000000020221001000009000NNE   20220912122510    1N0N  00000150000000885000001102032AF    HBYHVTB 005600390040
BI00B32AF    JTB210M        202209307289-3342                HOUSING FEMALE ASS'Y     CCN000002400000002400FN00000000020221001000002400NNE   20220912122510    1N0N  00000240000000686400000901432AF    HBYHVTB 005500360039
BI00B32AF    JTB210M        202209307388-0316-80             CONNECTOR ASS'Y          CCN000001200000001200FN00000000020221001000001200NNE   20220912122510    4N0N  00000120000001002500001132532AF    HBYHVTB 005400370024
BI00B32AF    JTB211A        202210077283-1028                CONNECTOR HOUSING        CCN000006000000006000FN00000000020221101000006000NNED0020220912122510    4N0N  00000600000000779000001019332AF    HBYHVTB 005600390040
BI00B32AF    JTB211A        202210077283-8853-30             HOUSING FEMALE ASS'Y     CCN000002400000002400FN00000000020221101000002400NNED0020220912122510    4N0N  00000240000001120600001336032AF    HBYHVTB 005500360039
BI00B32AF    JTB211A        202210077289-3342                HOUSING FEMALE ASS'Y     CCN000002400000002400FN00000000020221101000002400NNED0020220912122510    1N0N  00000240000000686400000901432AF    HBYHVTB 005500360039
BI00B32AF    JTB211A        202210077388-0314                CONNECTOR ASS'Y          CCN000037200000037200FN00000000020221101000037200NNED0020220912122510    4N0N  00000120000001038000001132332AF    HBYHVTB 005400370024
BI00B32AF    JTB211B        202210217282-4578-30             HOUSING MALE ASS'Y       CCN000001200000001200FN00000000020221101000001200NNE   20220912122510    4N0N  00000120000000782600000992632AF    HBYHVTB 005500360039
BI00B32AF    JTB211B        202210217282-4855                HOUSING MALE ASS'Y       CCN000001200000001200FN00000000020221101000001200NNE   20220912122510    4N0N  00000120000001063200001283232AF    HBYHVTB 005500360039
BI00B32AF    JTB211B        202210217283-5830-30             CONNECTOR                CCN000006000000006000FN00000000020221101000006000NNE   20220912122510    1N0N  00000600000000954000001104032AF    HBYHVTB 005500360039
BI00B32AF    #JTB211B       202210217282-5528-70             HOUSING MALE ASS'Y       CCN000002000000002000FN00000000020221101000002000NNE   20220912122510    2N0N  00000100000000230000000339032AF    HBYHVTB 005400370024
BI00B32CJ    JQN2104        202209237116-1180                TERMINAL                 CCN000019500000019500FN00000000020221001000019500NNMD0020220912131456    1P0P  00001950000000618200000903432CJ    QNYHVQN 006400630015
BI00B32CJ    JQN2105        202209307116-1180                TERMINAL                 CCN000039000000039000FN00000000020221001000039000NNMD0020220912131403    1P0P  00001950000000618200000903432CJ    QNYHVQN 006400630015
BI00B32CJ    JQN2105        202209237196-1482-02             TERMINAL FEMALE          CCN000024000000024000FN00000000020221001000024000NNMD0020220912130821    4P0P  00002400000000424800000710032CJ    QNYHVQN 006400630015
BI00B32CJ    JQN2111        202209237114-6041                TERMINAL                 CCN000003600000003600FN00000000020221101000003600NNMD0020220912130912    4P0P  00000360000000580700000824232CJ    QNYHVQN 006400630015
BI00B32CJ    JQN2112        202209307114-6041                TERMINAL                 CCN000003600000003600FN00000000020221101000003600NNMD0020220912130931    4P0P  00000360000000580700000824232CJ    QNYHVQN 006400630015
BI00B32CJ    JQN2113        202210077114-6041                TERMINAL                 CCN000003600000003600FN00000000020221101000003600NNMD0020220912130957    4P0P  00000360000000580700000824232CJ    QNYHVQN 006400630015
BI00B32CJ    JQN2114        202210177114-6041                TERMINAL                 CCN000003600000003600FN00000000020221101000003600NNMD0020220912131029    4P0P  00000360000000580700000824232CJ    QNYHVQN 006400630015
BI00B32CJ    JQN2111        202210077116-1180                TERMINAL                 CCN000058500000058500FN00000000020221101000058500NNMD0020220912131055    1P0P  00001950000000618200000903432CJ    QNYHVQN 006400630015
BI00B32CJ    JQN2112        202210177116-1180                TERMINAL                 CCN000039000000039000FN00000000020221101000039000NNMD0020220912131342    1P0P  00001950000000618200000903432CJ    QNYHVQN 006400630015
BI00B32CJ    JQN2113        202210217116-1180                TERMINAL                 CCN000019500000019500FN00000000020221101000019500NNMD0020220912131137    1P0P  00001950000000618200000903432CJ    QNYHVQN 006400630015
BI00B32CJ    JQN2114        202210287116-1180                TERMINAL                 CCN000019500000019500FN00000000020221101000019500NNMD0020220912131111    1P0P  00001950000000618200000903432CJ    QNYHVQN 006400630015
BI00B32CJ    JQN2111        202209237298-4094-10             HOUSING FEMALE ASS'Y     CCN000003380000003380FN00000000020221101000003380NNMD0020220912140915    4N0N  00000338000001097400001358732CJ    QNYHVQN 005400370024
BI00B32CJ    JQN2112        202210077298-4094-10             HOUSING FEMALE ASS'Y     CCN000003380000003380FN00000000020221101000003380NNMD0020220912140936    4N0N  00000338000001097400001358732CJ    QNYHVQN 005400370024
BI00B32CJ    JQN2114        202210177298-4094-10             HOUSING FEMALE ASS'Y     CCN000003380000003380FN00000000020221101000003380NNMD0020220912141004    4N0N  00000338000001097400001358732CJ    QNYHVQN 005400370024
BI00B32CJ    JQN210L        202209307114-6041                TERMINAL                 CCN000007200000007200FN00000000020221001000007200NNE   20220912122510    4P0P  00000360000000580700000824232CJ    QNYHVQN 006400630015
BI00B32D9    #I24211        202209227186-3973                CONNECTOR HOUSING        CCN000002400000002400FN00000000020221001000002400NNMD0020220912122510    2F0F  00000240000001061800001232932D9    UEHESTO 005500360039
BI00B32H2    TIJ2104        202209237287-1917                CONNECTOR FEMALE         CCN000002400000002400FN00000000020221001000002400NNMD0020220912143341    4N0N  00000240000001060800001312532H2    HVYHV   005500360039
BI00B32H2    TIJ2104        202209237289-3342-40             HOUSING FEMALE ASS'Y     CCN000009600000009600FN00000000020221001000009600NNMD0020220912140644    1N0N  00000240000000686400000901432H2    HVYHV   005500360039
BI00B32H2    #TIJ2104       202209237287-1915-90             CONNECTOR ASS'Y          CCN000004800000004800FN00000000020221001000004800NNMD0020220912165928    2N0N  00000240000000666500000923132H2    HVYHV   005500360039
BI00B32H2    #TIJ2104       202209237287-7022                CONNECTOR FEMALE         CCN000003600000003600FN00000000020221001000003600NNMD0020220912153808    2NON  00000120000000742800000853032H2    HVYHV   005400370024
BI00B32H2    #TIJ2102       202209237289-2919-30             HOUSING FEMALE ASS'Y     CCN000001500000001500FN00000000020221001000001500NNMD0020220912151836    2N0N  00000150000000907500001034532H2    HVYHV   005400370024
BI00T32H2    @TIJ2111-I     202210207183-7770-40             HOUSING                  CCN000006000000006000FN00000000020221101000006000NNMD0020220912122510    3F0F  00000600000001011000001161032H2    HVYHV   005400370024
BI00B32H2    TIJ2114        202211047116-2891-02             TERMINAL                 CCN000030000000015000FN00000000020221101000015000NNMQ0020220912155825    4P0P  00001500000000982500001145932H2    HVYHV   005100280028
BI00B32H2    TIJ2112        202210177116-2893-02             TERMINAL                 CCN000024000000012000FN00000000020221101000012000NNMD0020220912155915    4P0P  00001200000000895200001058632H2    HVYHV   005100280028
BI00B32H2    TIJ2114        202211047116-3154-08             TERMINAL                 CCN000054000000027000FN00000000020221101000027000NNMQ0020220912155955    4P0P  00002700000000475200000760432H2    HVYHV   006400630015
BI00B32H2    TIJ2114        202211047116-6042                TERMINAL                 CCN000009000000006000FN00000000020221101000006000NNMQ0020220912160335    4P0P  00000300000000523800000856132H2    HVYHV   006400630015
BI00B32H2    TIJ2114        202210287183-2417                CONNECTOR HOUSING        CCN000002400000002400FN00000000020221101000002400NNMD0020220912140613    4F0F  00000240000001137400001297732H2    HVYHV   005500360039
BI00B32H2    TIJ2111        202209237195-1936-02             TERMINAL MALE            CCN000015000000015000FN00000000020221101000015000NNMD0020220912160452    4P0P  00001500000000589500000883132H2    HVYHV   006400630015
BI00B32H2    TIJ2114        202210177196-1020-02             TERMINAL ALUMINIUM       CCN000023700000023700FN00000000020221101000023700NNMD0020220912160525    4P0P  00002370000000722900001008132H2    HVYHV   006400630015
BI00B32H2    TIJ2112        202210217196-1325-02             TERMINAL FEMALE          CCN000240000000120000FN00000000020221101000120000NNMQ0020220912160747    4P0P  00006000000000450000000778732H2    HVYHV   006400630017
BI00B32H2    TIJ2111        202210177196-1482-02             TERMINAL FEMALE          CCN000072000000048000FN00000000020221101000048000NNMQ0020220912160916    4P0P  00002400000000424800000710032H2    HVYHV   006400630015
BI00B32H2    TIJ2111        202209307196-1933-02             TERMINAL FEMALE          CCN000021000000021000FN00000000020221101000021000NNMD0020220912161120    4P0P  00002100000000590100000875332H2    HVYHV   006400630015
BI00B32H2    TIJ2111        202209237196-1937-02             TERMINAL FEMALE          CCN000027000000027000FN00000000020221101000027000NNMD0020220912161152    4P0P  00001350000000446900000732132H2    HVYHV   006400630015
BI00B32H2    #TIJ2114       202210287183-2414-30             CONNECTOR HOUSING        CCN000004800000004800FN00000000020221101000004800NNMD0020220912150005    2F0F  00000480000000779500001061532H2    HVYHV   005500360039
BI00B32H2    #TIJ2112       202210177289-2915-30             HOUSING FEMALE ASS'Y     CCN000001500000001500FN00000000020221101000001500NNMD0020220912151805    2N0N  00000150000000964500001091532H2    HVYHV   005400370024
BI00B32H2    TIJ210U        202209307282-9391                HOUSING MALE ASS'Y       CCN000001200000001200FN00000000020221001000001200NNE   20220912122510    4N0N  00000120000001017600001237632H2    HVYHV   005500360039
BI00B32H2    TIJ210U        202209307283-4577                CONNECTOR HOUSING        CCN000004800000004800FN00000000020221001000004800NNE   20220912122510    4N0N  00000480000000916800001136832H2    HVYHV   005500360039
BI00B32H2    TIJ210U        202209307287-1917                CONNECTOR FEMALE         CCN000002400000002400FN00000000020221001000002400NNE   20220912122510    4N0N  00000240000001060800001312532H2    HVYHV   005500360039
BI00B32H2    TIJ210U        202209307288-6547                CONNECTOR MALE ASS'Y     CCN000003000000003000FN00000000020221001000003000NNE   20220912122510    4N0N  00000075000001205300001340332H2    HVYHV   005400370024
BI00B32H2    TIJ210U        202209307289-3342-40             HOUSING FEMALE ASS'Y     CCN000004800000004800FN00000000020221001000004800NNE   20220912122510    1N0N  00000240000000686400000901432H2    HVYHV   005500360039
BI00B32H2    TIJ210V        202210077196-1326-02             TERMINAL FEMALE          CCN000120000000120000FN00000000020221001000120000NNE   20220912122510    4P0P  00006000000000456000000784732H2    HVYHV   006400630017
BI00B32H2    TIJ210V        202210077196-1936-02             TERMINAL FEMALE          CCN000027000000027000FN00000000020221001000027000NNE   20220912122510    4P0P  00001350000000441500000726732H2    HVYHV   006400630015
BI00B32H2    TIJ210V        202210077283-7062-40             CONNECTOR HOUSING        CCN000000600000000600FN00000000020221001000000600NNE   20220912122510    1N0N  00000060000000500400000645432H2    HVYHV   005400370024
BI00B32H2    TIJ210V        202210077287-1917                CONNECTOR FEMALE         CCN000002400000002400FN00000000020221001000002400NNE   20220912122510    4N0N  00000240000001060800001312532H2    HVYHV   005500360039
BI00B32H2    TIJ210V        202210077288-6547                CONNECTOR MALE ASS'Y     CCN000006000000006000FN00000000020221001000006000NNE   20220912122510    4N0N  00000075000001205300001340332H2    HVYHV   005400370024
BI00B32H2    TIJ210V        202210077289-3342-40             HOUSING FEMALE ASS'Y     CCN000002400000002400FN00000000020221001000002400NNE   20220912122510    1N0N  00000240000000686400000901432H2    HVYHV   005500360039
BI00B32H2    TIJ210V        202210077289-3342-90             HOUSING FEMALE ASS'Y     CCN000007200000007200FN00000000020221001000007200NNE   20220912122510    1N0N  00000240000000686400000901432H2    HVYHV   005500360039
BI00B32H2    TIJ210V        202210077289-6547                HOUSING FEMALE ASS'Y     CCN000007200000007200FN00000000020221001000007200NNE   20220912122510    1N0N  00000240000001152000001362032H2    HVYHV   005500360039
BI00B32H2    #TIJ210V       202210077172-5625-90             RUBBER STOPPER           CCN000020000000020000FN00000000020221001000020000NNE   20220912122510    2H0H  00002000000000082400000133832H2    HVYHV   004300270014
BI00B32H2    #TIJ210V       202210077172-5630-40             RUBBER STOPPER           CCN000020000000020000FN00000000020221001000020000NNE   20220912122510    2H0H  00002000000000044000000095132H2    HVYHV   004300270014
BI00B32H2    #TIJ210V       202210077287-1915                CONNECTOR ASS'Y          CCN000002400000002400FN00000000020221001000002400NNE   20220912122510    2N0N  00000240000000666500000923132H2    HVYHV   005500360039
BI00B32H2    #TIJ210V       202210077287-1915-90             CONNECTOR ASS'Y          CCN000002400000002400FN00000000020221001000002400NNE   20220912122510    2N0N  00000240000000666500000923132H2    HVYHV   005500360039
BI00B32H2    #TIJ210V       202210077289-2916-30             HOUSING FEMALE ASS'Y     CCN000001000000001000FN00000000020221001000001000NNE   20220912122510    2N0N  00000100000000857000001084032H2    HVYHV   005400370024
BI00B32H2    TIJ211A        202210077114-4728-08             TERMINAL                 CCN000030000000030000FN00000000020221101000030000NNE   20220912122510    4P0P  00003000000000507000000801232H2    HVYHV   006400630015
BI00B32H2    TIJ211A        202210077114-4729-02             TERMINAL                 CCN000060000000060000FN00000000020221101000060000NNE   20220912122510    4P0P  00003000000000516000000810232H2    HVYHV   006400630015
BI00B32H2    TIJ211A        202210077116-5752-02             TERMINAL                 CCN000168000000168000FN00000000020221101000168000NNE   20220912122510    4P0P  00002100000000571200000856432H2    HVYHV   006400630015
BI00B32H2    TIJ211A        202210077195-1933-02             TERMINAL MALE            CCN000024000000024000FN00000000020221101000024000NNE   20220912122510    4P0P  00002400000000777600001071232H2    HVYHV   006400630015
BI00B32H2    TIJ211A        202210077195-1934-02             TERMINAL MALE            CCN000024000000024000FN00000000020221101000024000NNE   20220912122510    4P0P  00002400000000801600001095232H2    HVYHV   006400630015
BI00B32H2    TIJ211A        202210077195-1935-02             TERMINAL MALE            CCN000019500000019500FN00000000020221101000019500NNE   20220912122510    4P0P  00001950000000670800000964432H2    HVYHV   006400630015
BI00B32H2    TIJ211A        202210077195-1936-02             TERMINAL MALE            CCN000030000000030000FN00000000020221101000030000NNE   20220912122510    4P0P  00001500000000589500000883132H2    HVYHV   006400630015
BI00B32H2    TIJ211A        202210077196-1325-02             TERMINAL FEMALE          CCN000120000000120000FN00000000020221101000120000NNE   20220912122510    4P0P  00006000000000450000000778732H2    HVYHV   006400630017
BI00B32H2    TIJ211A        202210077196-1326-02             TERMINAL FEMALE          CCN000240000000240000FN00000000020221101000240000NNE   20220912122510    4P0P  00006000000000456000000784732H2    HVYHV   006400630017
BI00B32H2    TIJ211A        202210077196-1327-02             TERMINAL FEMALE          CCN000052000000052000FN00000000020221101000052000NNE   20220912122510    4P0P  00005200000000336000000739532H2    HVYHV   006400630017
BI00B32H2    TIJ211A        202210077196-1482-02             TERMINAL FEMALE          CCN000048000000048000FN00000000020221101000048000NNE   20220912122510    4P0P  00002400000000424800000710032H2    HVYHV   006400630015
BI00B32H2    TIJ211A        202210077196-1933-02             TERMINAL FEMALE          CCN000021000000021000FN00000000020221101000021000NNE   20220912122510    4P0P  00002100000000590100000875332H2    HVYHV   006400630015
BI00B32H2    TIJ211A        202210077196-1934-02             TERMINAL FEMALE          CCN000039000000039000FN00000000020221101000039000NNE   20220912122510    4P0P  00001950000000561600000846832H2    HVYHV   006400630015
BI00B32H2    TIJ211A        202210077196-1935-02             TERMINAL FEMALE          CCN000036000000036000FN00000000020221101000036000NNE   20220912122510    4P0P  00001800000000534600000819832H2    HVYHV   006400630015
BI00B32H2    TIJ211A        202210077196-1936-02             TERMINAL FEMALE          CCN000081000000081000FN00000000020221101000081000NNE   20220912122510    4P0P  00001350000000441500000726732H2    HVYHV   006400630015
BI00B32H2    TIJ211A        202210077196-1937-02             TERMINAL FEMALE          CCN000027000000027000FN00000000020221101000027000NNE   20220912122510    4P0P  00001350000000446900000732132H2    HVYHV   006400630015
BI00B32H2    TIJ211A        202210077196-1941-02             TERMINAL FEMALE          CCN000011400000011400FN00000000020221101000011400NNE   20220912122510    4P0P  00001140000000506200000794432H2    HVYHV   006400630015
BI00B32H2    TIJ211A        202210077282-4576                HOUSING MALE ASS'Y       CCN000002400000002400FN00000000020221101000002400NNE   20220912122510    4N0N  00000240000000808800001028832H2    HVYHV   005500360039
BI00B32H2    TIJ211A        202210077282-4578                HOUSING MALE ASS'Y       CCN000003600000003600FN00000000020221101000003600NNE   20220912122510    4N0N  00000120000000782600000992632H2    HVYHV   005500360039
BI00B32H2    TIJ211A        202210077283-4576                HOUSING FEMALE ASS'Y     CCN000014400000014400FN00000000020221101000014400NNE   20220912122510    4N0N  00000480000000651300000871332H2    HVYHV   005500360039
BI00B32H2    TIJ211A        202210077283-5845-30             CONNECTOR HOUSING        CCN000006000000006000FN00000000020221101000006000NNE   20220912122510    1N0N  00000600000000444000000606332H2    HVYHV   005400370024
BI00B32H2    TIJ211A        202210077283-7062-40             CONNECTOR HOUSING        CCN000000600000000600FN00000000020221101000000600NNE   20220912122510    1N0N  00000060000000500400000645432H2    HVYHV   005400370024
BI00B32H2    #TIJ211A       202210077158-3003-90             RUBBER STOPPER           CCN000020000000020000FN00000000020221101000020000NNED0020220912122510    2C0C  00002000000000250000000306032H2    HVYHV   002700430014
BI00B32H2    TIJ211B        202210217114-5748-02             TERMINAL                 CCN000012000000012000FN00000000020221101000012000NNE   20220912122510    4P0P  00001200000000444000000737632H2    HVYHV   006400630015
BI00B32H2    TIJ211B        202210217114-5753-02             TERMINAL                 CCN000054000000054000FN00000000020221101000054000NNE   20220912122510    4P0P  00002700000000847800001141432H2    HVYHV   006400630015
BI00B32H2    TIJ211B        202210217116-1180                TERMINAL                 CCN000019500000019500FN00000000020221101000019500NNE   20220912122510    1P0P  00001950000000618200000903432H2    HVYHV   006400630015
BI00B32H2    TIJ211B        202210217116-3153-08             TERMINAL                 CCN000054000000054000FN00000000020221101000054000NNE   20220912122510    4P0P  00002700000000461700000746932H2    HVYHV   006400630015
BI00B32H2    TIJ211B        202210217116-4486-02             TERMINAL                 CCN000028000000028000FN00000000020221101000028000NNE   20220912122510    4P0P  00002800000000666400000995132H2    HVYHV   006400630017
BI00B32H2    TIJ211B        202210217116-5042-02             TERMINAL                 CCN000013500000013500FN00000000020221101000013500NNE   20220912122510    4P0P  00001350000000560300000845532H2    HVYHV   006400630015
BI00B32H2    TIJ211B        202210217116-5752-02             TERMINAL                 CCN000063000000063000FN00000000020221101000063000NNE   20220912122510    4P0P  00002100000000571200000856432H2    HVYHV   006400630015
BI00B32H2    TIJ211B        202210217116-6041                TERMINAL                 CCN000004500000004500FN00000000020221101000004500NNE   20220912122510    4P0P  00000450000000716000001009632H2    HVYHV   006400630015
BI00B32H2    TIJ211B        202210217126-8853-02             TERMINAL                 CCN000007500000007500FN00000000020221101000007500NNE   20220912122510    4P0P  00000750000000562500000847732H2    HVYHV   006400630015
BI00B32H2    TIJ211B        202210217196-1103-02             TERMINAL                 CCN000067500000067500FN00000000020221101000067500NNE   20220912122510    4P0P  00002250000000429800000715032H2    HVYHV   006400630015
BI00B32H2    TIJ211B        202210217196-1325-02             TERMINAL FEMALE          CCN000180000000180000FN00000000020221101000180000NNE   20220912122510    4P0P  00006000000000450000000778732H2    HVYHV   006400630017
BI00B32H2    TIJ211B        202210217196-1326-02             TERMINAL FEMALE          CCN000120000000120000FN00000000020221101000120000NNE   20220912122510    4P0P  00006000000000456000000784732H2    HVYHV   006400630017
BI00B32H2    TIJ211B        202210217196-1482-02             TERMINAL FEMALE          CCN000024000000024000FN00000000020221101000024000NNE   20220912122510    4P0P  00002400000000424800000710032H2    HVYHV   006400630015
BI00B32H2    TIJ211B        202210217196-1935-02             TERMINAL FEMALE          CCN000018000000018000FN00000000020221101000018000NNE   20220912122510    4P0P  00001800000000534600000819832H2    HVYHV   006400630015
BI00B32H2    TIJ211B        202210217196-1936-02             TERMINAL FEMALE          CCN000040500000040500FN00000000020221101000040500NNE   20220912122510    4P0P  00001350000000441500000726732H2    HVYHV   006400630015
BI00B32H2    TIJ211B        202210217196-1941-02             TERMINAL FEMALE          CCN000022800000022800FN00000000020221101000022800NNE   20220912122510    4P0P  00001140000000506200000794432H2    HVYHV   006400630015
BI00B32H2    TIJ211B        202210217283-4576                HOUSING FEMALE ASS'Y     CCN000009600000009600FN00000000020221101000009600NNE   20220912122510    4N0N  00000480000000651300000871332H2    HVYHV   005500360039
BI00B32H2    TIJ211B        202210217289-3342-90             HOUSING FEMALE ASS'Y     CCN000004800000004800FN00000000020221101000004800NNE   20220912122510    1N0N  00000240000000686400000901432H2    HVYHV   005500360039
BI00B32H2    TIJ211B        202210217289-6547                HOUSING FEMALE ASS'Y     CCN000002400000002400FN00000000020221101000002400NNE   20220912122510    1N0N  00000240000001152000001362032H2    HVYHV   005500360039
BI00B32H2    TIJ211B        202210217388-2978-30             HOUSING MALE ASS'Y       CCN000000480000000480FN00000000020221101000000480NNE   20220912122510    1N0N  00000048000000742000001122032H2    HVYHV   005500360039
BI00B32H2    #TIJ211B       202210217114-4022                TERMINAL                 CCN000030000000030000FN00000000020221101000030000NNE   20220912122510    2F0P  00001500000000708000001120632H2    HVYHV   006400630015
BI00B32H2    #TIJ211B       202210217172-5629-80             RUBBER STOPPER           CCN000080000000080000FN00000000020221101000080000NNE   20220912122510    2H0H  00002000000000060000000111132H2    HVYHV   004300270014
BI00B32H2    #TIJ211B       202210217283-1095-30             HOUSING FEMALE ASS'Y     CCN000001000000001000FN00000000020221101000001000NNE   20220912122510    2N0N  00000100000000470000000652532H2    HVYHV   005400370024
BI00B32H2    #TIJ211B       202210217287-1915                CONNECTOR ASS'Y          CCN000004800000004800FN00000000020221101000004800NNE   20220912122510    2N0N  00000240000000666500000923132H2    HVYHV   005500360039
BI00B32H2    TIJ211C        202210287195-1479-02             TERMINAL MALE            CCN000024000000024000FN00000000020221101000024000NNE   20220912122510    4P0P  00002400000000420000000714232H2    HVYHV   006400630015
BI00B32H2    TIJ211C        202210287195-1936-02             TERMINAL MALE            CCN000015000000015000FN00000000020221101000015000NNE   20220912122510    4P0P  00001500000000589500000883132H2    HVYHV   006400630015
BI00B32H2    TIJ211C        202210287196-1325-02             TERMINAL FEMALE          CCN000060000000060000FN00000000020221101000060000NNE   20220912122510    4P0P  00006000000000450000000778732H2    HVYHV   006400630017
BI00B32H2    TIJ211C        202210287196-1326-02             TERMINAL FEMALE          CCN000060000000060000FN00000000020221101000060000NNE   20220912122510    4P0P  00006000000000456000000784732H2    HVYHV   006400630017
BI00B32H2    TIJ211C        202210287196-1481-02             TERMINAL FEMALE          CCN000072000000072000FN00000000020221101000072000NNE   20220912122510    4P0P  00002400000000422400000707632H2    HVYHV   006400630015
BI00B32H2    TIJ211C        202210287196-1482-02             TERMINAL FEMALE          CCN000024000000024000FN00000000020221101000024000NNE   20220912122510    4P0P  00002400000000424800000710032H2    HVYHV   006400630015
BI00B32H2    TIJ211C        202210287196-1934-02             TERMINAL FEMALE          CCN000019500000019500FN00000000020221101000019500NNE   20220912122510    4P0P  00001950000000561600000846832H2    HVYHV   006400630015
BI00B32H2    TIJ211C        202210287196-1936-02             TERMINAL FEMALE          CCN000040500000040500FN00000000020221101000040500NNE   20220912122510    4P0P  00001350000000441500000726732H2    HVYHV   006400630015
BI00B32H2    TIJ211C        202210287196-1937-02             TERMINAL FEMALE          CCN000013500000013500FN00000000020221101000013500NNE   20220912122510    4P0P  00001350000000446900000732132H2    HVYHV   006400630015
BI00B32H2    TIJ211C        202210287196-1940-02             TERMINAL FEMALE          CCN000013500000013500FN00000000020221101000013500NNE   20220912122510    4P0P  00001350000000529200000817432H2    HVYHV   006400630015
BI00B32H2    TIJ211C        202210287196-1941-02             TERMINAL FEMALE          CCN000022800000022800FN00000000020221101000022800NNE   20220912122510    4P0P  00001140000000506200000794432H2    HVYHV   006400630015
BI00B32H2    TIJ211C        202210287282-0517                HOUSING MALE ASS'Y       CCN000001440000001440FN00000000020221101000001440NNE   20220912122510    4N0N  00000036000000612000000832032H2    HVYHV   005600390040
BI00B32H2    TIJ211C        202210287283-4576-30             HOUSING FEMALE ASS'Y     CCN000004800000004800FN00000000020221101000004800NNE   20220912122510    4N0N  00000480000000651300000871332H2    HVYHV   005500360039
BI00B32H2    TIJ211C        202210287288-6547                CONNECTOR MALE ASS'Y     CCN000001500000001500FN00000000020221101000001500NNE   20220912122510    4N0N  00000075000001205300001340332H2    HVYHV   005400370024
BI00B32H2    TIJ211C        202210287289-3342                HOUSING FEMALE ASS'Y     CCN000009600000009600FN00000000020221101000009600NNE   20220912122510    1N0N  00000240000000686400000901432H2    HVYHV   005500360039
BI00B32H2    TIJ211C        202210287289-3342-40             HOUSING FEMALE ASS'Y     CCN000002400000002400FN00000000020221101000002400NNE   20220912122510    1N0N  00000240000000686400000901432H2    HVYHV   005500360039
BI00B32H2    TIJ211C        202210287289-6547                HOUSING FEMALE ASS'Y     CCN000002400000002400FN00000000020221101000002400NNE   20220912122510    1N0N  00000240000001152000001362032H2    HVYHV   005500360039
BI00B32H2    TIJ211D        202211047116-2892-02             TERMINAL                 CCN000012000000012000FN00000000020221101000012000NNE   20220912122510    4P0P  00001200000000818400000981832H2    HVYHV   005100280028
BI00B32H2    TIJ211D        202211047116-5752-02             TERMINAL                 CCN000042000000042000FN00000000020221101000042000NNE   20220912122510    4P0P  00002100000000571200000856432H2    HVYHV   006400630015
BI00B32H2    TIJ211D        202211047195-1480-02             TERMINAL MALE            CCN000024000000024000FN00000000020221101000024000NNE   20220912122510    4P0P  00002400000000422400000716632H2    HVYHV   006400630015
BI00B32H2    TIJ211D        202211047196-1325-02             TERMINAL FEMALE          CCN000060000000060000FN00000000020221101000060000NNE   20220912122510    4P0P  00006000000000450000000778732H2    HVYHV   006400630017
BI00B32H2    TIJ211D        202211047196-1326-02             TERMINAL FEMALE          CCN000060000000060000FN00000000020221101000060000NNE   20220912122510    4P0P  00006000000000456000000784732H2    HVYHV   006400630017
BI00B32H2    TIJ211D        202211047196-1481-02             TERMINAL FEMALE          CCN000048000000048000FN00000000020221101000048000NNE   20220912122510    4P0P  00002400000000422400000707632H2    HVYHV   006400630015
BI00B32H2    TIJ211D        202211047196-1482-02             TERMINAL FEMALE          CCN000024000000024000FN00000000020221101000024000NNE   20220912122510    4P0P  00002400000000424800000710032H2    HVYHV   006400630015
BI00B32H2    TIJ211D        202211047196-1933-02             TERMINAL FEMALE          CCN000021000000021000FN00000000020221101000021000NNE   20220912122510    4P0P  00002100000000590100000875332H2    HVYHV   006400630015
BI00B32H2    TIJ211D        202211047196-1934-02             TERMINAL FEMALE          CCN000019500000019500FN00000000020221101000019500NNE   20220912122510    4P0P  00001950000000561600000846832H2    HVYHV   006400630015
BI00B32H2    TIJ211D        202211047196-1935-02             TERMINAL FEMALE          CCN000018000000018000FN00000000020221101000018000NNE   20220912122510    4P0P  00001800000000534600000819832H2    HVYHV   006400630015
BI00B32H2    TIJ211D        202211047196-1936-02             TERMINAL FEMALE          CCN000027000000027000FN00000000020221101000027000NNE   20220912122510    4P0P  00001350000000441500000726732H2    HVYHV   006400630015
BI00B32H2    TIJ211D        202211047196-1937-02             TERMINAL FEMALE          CCN000013500000013500FN00000000020221101000013500NNE   20220912122510    4P0P  00001350000000446900000732132H2    HVYHV   006400630015
BI00B32H2    TIJ211D        202211047196-1941-02             TERMINAL FEMALE          CCN000022800000022800FN00000000020221101000022800NNE   20220912122510    4P0P  00001140000000506200000794432H2    HVYHV   006400630015
BI00B32H2    TIJ211D        202211047283-4576                HOUSING FEMALE ASS'Y     CCN000004800000004800FN00000000020221101000004800NNE   20220912122510    4N0N  00000480000000651300000871332H2    HVYHV   005500360039
BI00B32H2    TIJ211D        202211047283-4577                CONNECTOR HOUSING        CCN000004800000004800FN00000000020221101000004800NNE   20220912122510    4N0N  00000480000000916800001136832H2    HVYHV   005500360039
BI00B32H2    TIJ211D        202211047289-3342-40             HOUSING FEMALE ASS'Y     CCN000002400000002400FN00000000020221101000002400NNE   20220912122510    1N0N  00000240000000686400000901432H2    HVYHV   005500360039
BI00B32H2    TIJ211D        202211047289-3342-90             HOUSING FEMALE ASS'Y     CCN000004800000004800FN00000000020221101000004800NNE   20220912122510    1N0N  00000240000000686400000901432H2    HVYHV   005500360039
BI00B32H2    #TIJ211D       202211047172-5630-40             RUBBER STOPPER           CCN000020000000020000FN00000000020221101000020000NNE   20220912122510    2H0H  00002000000000044000000095132H2    HVYHV   004300270014
BI00B32H2    #TIJ211D       202211047189-3031-90             HOUSING FEMALE           CCN000002400000002400FN00000000020221101000002400NNE   20220912122510    2F0F  00000240000000936000001373032H2    HVYHV   005500360039
BI00B32H2    TIJ2114        202210217116-2891-02             TERMINAL                 CCN000030000000030000FN00000000020221101000030000NNMD0020220912155833    4P0P  00001500000000982500001145932H2    HVYHV   005100280028
BI00B32H2    TIJ2112        202210217116-2893-02             TERMINAL                 CCN000012000000012000FN00000000020221101000012000NNMD0020220912155915    4P0P  00001200000000895200001058632H2    HVYHV   005100280028
BI00B32H2    TIJ2114        202210287116-3154-08             TERMINAL                 CCN000027000000027000FN00000000020221101000027000NNMD0020220912160005    4P0P  00002700000000475200000760432H2    HVYHV   006400630015
BI00B32H2    TIJ2114        202210287116-6042                TERMINAL                 CCN000003000000003000FN00000000020221101000003000NNMD0020220912160335    4P0P  00000300000000523800000856132H2    HVYHV   006400630015
BI00B32H2    TIJ2112        202209237196-1325-02             TERMINAL FEMALE          CCN000120000000120000FN00000000020221101000120000NNMD0020220912160747    4P0P  00006000000000450000000778732H2    HVYHV   006400630017
BI00B32H2    TIJ2111        202209307196-1482-02             TERMINAL FEMALE          CCN000072000000024000FN00000000020221101000024000NNMD0020220912161027    4P0P  00002400000000424800000710032H2    HVYHV   006400630015
BI00A32J1    396854         202209197298-1187-30             SHUNT RING ASSEMBLY      CCN000020000000020000FN00000000020220801000020000NNMM0020220912150507    4N0N  00001000000000647000000769532J1    UKYEL-BL005400370024
BI00B32K8    #K1220011753   202210217137-2717-50             SEALED CONNECTOR         CCN000016000000016000FN00000000020230101000016000NNM   20220912122510    2C0C  00000400000000212800000284032K8    ELELCOM 002700430014
BI00B32M1    TCV210A        202209297158-3009-60             RUBBER STOPPER           CCN000300000000300000FN00000000020221001000300000NNE   20220912122510    1C0C  00002000000000338000000386232M1    VNYEV   002700430014
BI00B32M1    TCV210A        202209297196-1933-02             TERMINAL FEMALE          CCN000063000000063000FN00000000020221001000063000NNE   20220912122510    4P0P  00002100000000590100000875332M1    VNYEV   006400630015
BI00B32M1    TCV210A        202209297283-7028-30             CONNECTOR                CCN000001000000003000FN00000000020221001000003000NNE   20220912122510    4N0N  00000300000001452000001681332M1    VNYEV   005600390040
BI00B32M1    TCV210A        202209297283-8599-30             CONNECTOR                CCN000001540000001540FN00000000020221001000001540NNE   20220912122510    4N0N  00000154000000947100001157032M1    VNYEV   005600390023
BI00B32M3    #SM22112DMW    202210207183-6320                HOUSING                  CCN000004800000004800FN00000000020221101000004800NNMD0020220912164248    2F0F  00000480000000820800001103632M3    SASAMI  005500360039
BI00B32M4    TP2103A        202209157296-1021-02             TERMINAL ALUMINIUM       CCN000022500000022500FN00000000020221001000022500NNE00020220912133238    4P0P  00002250000000715500001000732M4    SISAI   006400630015
BI00B32M8    PM2210ARMW     202210057196-0104-02             TERMINAL                 CCN000038000000038000FN00000000020221001000038000NNE   20220912161519    4P0P  00003800000000570000000956432M8    PMPEMI  006400630017
BI00B32M8    #PM2210BTMW    202210057172-5628-80             DUMMY PLUG               CCN000020000000020000FN00000000020221001000020000NNE   20220912161528    2H0H  00002000000000110600000162032M8    PMPEMI  004300270014
BI00B32M8    #PM2210BTMW    202210057189-2978-30             HOUSING FEMALE           CCN000001500000001500FN00000000020221001000001500NNE   20220912161528    2F0F  00000150000000966900001096932M8    PMPEMI  005400370024
BI00B32M8    #PM2210BTMW    202210057289-4104-40             HOUSING FEMALE ASS'Y     CCN000001000000001000FN00000000020221001000001000NNE   20220912161528    2NON  00000050000000606900000821132M8    PMPEMI  005400370024
BI00B32M8    #PM2210BTMW    202210057289-4200-30             HOUSING FEMALE ASS'Y     CCN000002000000002000FN00000000020221001000002000NNE   20220912161528    2N0N  00000200000000926000001021032M8    PMPEMI  005400370024
BI00B32M8    PM2210C MW     202210057114-4231-02             TERMINAL                 CCN000018000000018000FN00000000020221001000018000NNE   20220912161554    4P0P  00001800000000554400000848032M8    PMPEMI  006400630015
BI00B32M8    PM2210C MW     202210057126-8850-02             TERMINAL                 CCN000009000000009000FN00000000020221001000009000NNE   20220912161554    1P0P  00000900000000672300000957532M8    PMPEMI  006400630015
BI00B32M8    PM2210C MW     202210057126-8851-02             TERMINAL                 CCN000018000000018000FN00000000020221001000018000NNE   20220912161554    1P0P  00000900000000739800001025032M8    PMPEMI  006400630015
BI00B32M8    PM2210C MW     202210057126-8852-02             TERMINAL                 CCN000007500000007500FN00000000020221001000007500NNE   20220912161554    1P0P  00000750000000648000000933232M8    PMPEMI  006400630015
BI00B32M8    PM2210C MW     202210057287-7599-40             HOUSING FEMALE ASS'Y     CCN000001600000001600FN00000000020221001000001600NNE   20220912161554    4N0N  00000160000001233600001445632M8    PMPEMI  005500360039
BI00B32M8    #PM2210C MW    202210057158-3008-80             RUBBER STOPPER           CCN000040000000040000FN00000000020221001000040000NNE   20220912161550    2C0C  00002000000000288000000343032M8    PMPEMI  004300270014
BI00B32N1    NST2911        202209227116-1686-02             TERMINAL                 CCN000020000000021000FN00000000020221001000021000NNE   20220912122510    4P0P  00002100000000869400001021632N1    TAYIPL  005100280028
BI00B32N1    NST2911        202209227126-8855-02             TERMINAL                 CCN000020000000024000FN00000000020221001000024000NNE   20220912122510    4P0P  00000600000000510600000795832N1    TAYIPL  006400630015
BI00B32N1    NST2911        202209227126-8852-02             TERMINAL                 CCN000020000000022500FN00000000020221001000022500NNE   20220912122510    1P0P  00000750000000648000000933232N1    TAYIPL  006400630015
BI00B32N1    NST2911        202209227116-4025                TERMINAL                 CCN000020000000032000FN00000000020221001000032000NNE   20220912122510    4P0P  00001600000000644800000975132N1    TAYIPL  006400630017
BI00B32N1    NST2911        202209227116-5045-02             TERMINAL                 CCN000020000000032000FN00000000020221001000032000NNE   20220912122510    4P0P  00001600000000678400001007132N1    TAYIPL  006400630017
BI00B32N1    #NST2911       202209297137-2665-80             SEALED CONNECTOR         CCN000070000000072000FN00000000020221001000072000NNE   20220912122510    2C0C  00000400000000128400000186432N1    TAYIPL  004300270014
BI00B32R7    R-TAP220409    202209297158-3006-90             RUBBER STOPPER           CCN000040000000040000FN00000000020220901000040000NNED0720220912122510    1C0C  00002000000000330600000386032R7    IVYCIC  002700430014
BI00B32R7    R-TAP220406    202209297B74-1849-70             COVER                    CCN000050000000050000FN00000000020221001000050000NNED0720220912122510    1F0F  00002500000000622500000761932R7    IVYCIC  005400370024
BI00B32R7    R-TAP220406    202209297C98-1149-3W             SQUIB SUB ASS'Y          CCN000030000000030000FN00000000020221001000030000NNED0720220912122510    4N0N  00001000000000785000000922032R7    IVYCIC  005400370024
BI00B32R7    R-TAP220407    202209297C98-1149-3W             SQUIB SUB ASS'Y          CCN000020000000020000FN00000000020221001000020000NNE   20220912122510    4N0N  00001000000000785000000922032R7    IVYCIC  005400370024
BI00B32R7    R-TAP220408    202210067116-4025                TERMINAL                 CCN000128000000128000FN00000000020221001000128000NNE   20220912122510    4P0P  00001600000000644800000975132R7    IVYCIC  006400630017
BI00B32R7    R-TAP220408    202210067158-3006-90             RUBBER STOPPER           CCN000040000000040000FN00000000020221001000040000NNE   20220912122510    1C0C  00002000000000330600000386032R7    IVYCIC  002700430014
BI00B32R7    R-TAP220408    202210067158-3169-40             SEALING PLUG             CCN000360000000360000FN00000000020221001000360000NNE   20220912122510    1C0C  00004000000000156000000204132R7    IVYCIC  004300260014
BI00B32U9    TP0419S        202211037222-7564-30             CONNECTOR                CCN000000500000000500FN00000000020221201000000500NNE   20220912122510U9  1N0N  00000050000000966500001125032U9    YNYNA-E 005500360039
BI00B32U9    TP0419S        202211037298-1187-30             SHUNT RING ASSEMBLY      CCN000020000000020000FN00000000020221201000020000NNE   20220912122510U9  4N0N  00001000000000647000000769532U9    YNYNA-E 005400370024
BI00B32U9    TP0419S        202211037298-1186-40             SQUIB SUB ASS'Y          CCN000020000000020000FN00000000020221201000020000NNE   20220912122510U9  4N0N  00001000000000650000000774532U9    YNYNA-E 005400370024
BI00B32U9    #TP0419S       202211037157-3646                RUBBER STOPPER           CCN000040000000040000FN00000000020221201000040000NNE   20220912122510U9  2H0H  00002000000000184000000255232U9    YNYNA-E 002700430014
BI00B32U9    TPA245         202210067114-4032                TERMINAL                 CCN000015000000015000FN00000000020221201000015000NNM   20220912122510U9  4P0P  00000750000000735000001063632U9    YNYNA-E 006400630017
BI00B32U9    TPA245         202210067116-4037                TERMINAL                 CCN000006000000006000FN00000000020221201000006000NNM   20220912122510U9  4P0P  00000600000000600000000894232U9    YNYNA-E 006400630015
BI00B32U9    TPA245         202210067288-6547                CONNECTOR MALE ASS'Y     CCN000001500000001500FN00000000020221201000001500NNM   20220912122510U9  4N0N  00000075000001205300001340332U9    YNYNA-E 005400370024
BI00B32U9    TPA245         202210067116-1257-02             TERMINAL                 CCN000048000000048000FN00000000020221201000048000NNM   20220912122510U9  4P0P  00002400000000518400000847132U9    YNYNA-E 006400630017
BI00B32U9    TPA245         202210067116-2951-02             TERMINAL                 CCN000064800000064800FN00000000020221201000064800NNM   20220912122510U9  4P0P  00000540000000817600001111832U9    YNYNA-E 006400630015
BI00B32U9    TPA245         202210067116-4231-02             TERMINAL                 CCN000286000000286000FN00000000020221201000286000NNM   20220912122510U9  4P0P  00002600000000683800001012532U9    YNYNA-E 006400630017
BI00B32U9    TPA245         202210067158-3006-90             RUBBER STOPPER           CCN000040000000040000FN00000000020221201000040000NNM   20220912122510U9  1C0C  00002000000000330600000386032U9    YNYNA-E 002700430014
BI00B32U9    TPA245         202210067158-3165-90             WIRE SEAL                CCN000120000000120000FN00000000020221201000120000NNM   20220912122510U9  1C0C  00004000000000124000000172432U9    YNYNA-E 004300270014
BI00B32U9    TPA245         202210067158-3166-60             WIRE SEAL                CCN000520000000520000FN00000000020221201000520000NNM   20220912122510U9  1C0C  00004000000000104000000152432U9    YNYNA-E 002700430014
BI00B32U9    TPA245         202210067158-3167-80             WIRE SEAL                CCN000680000000680000FN00000000020221201000680000NNM   20220912122510U9  1C0C  00002000000000048000000109032U9    YNYNA-E 002700430014
BI00B32U9    TPA245         202210067158-3168-80             SEALED                   CCN000200000000200000FN00000000020221201000200000NNM   20220912122510U9  1C0C  00002000000000044000000092132U9    YNYNA-E 004300260014
BI00B32U9    TPA245         202210067158-3169-40             SEALING PLUG             CCN000360000000360000FN00000000020221201000360000NNM   20220912122510U9  1C0C  00004000000000156000000204132U9    YNYNA-E 004300260014
BI00B32U9    TPA245         202210067172-1372-10             FRONT HOLDER             CCN000003900000003900FN00000000020221201000003900NNM   20220912122510U9  4F0F  00000390000000655200000955232U9    YNYNA-E 005500360039
BI00B32U9    TPA245         202210067172-5540-80             SEALED WIRE SEAL         CCN000020000000020000FN00000000020221201000020000NNM   20220912122510U9  1C0C  00002000000000186000000234432U9    YNYNA-E 004300270014
BI00B32U9    TPA245         202210067174-1849-70             COVER                    CCN000025000000025000FN00000000020221201000025000NNM   20220912122510U9  1F0F  00002500000000622500000761932U9    YNYNA-E 005400370024
BI00B32U9    TPA245         202210067222-4220-30             CONNECTOR                CCN000001500000001500FN00000000020221201000001500NNM   20220912122510U9  4N0N  00000075000001219000001384032U9    YNYNA-E 005600390040
BI00B32U9    TPA245         202210067282-5574-10             CONNECTOR                CCN000060000000060000FN00000000020221201000060000NNM   20220912122510U9  4N0N  00000080000001235000001423032U9    YNYNA-E 005600390040
BI00B32U9    TPA245         202210067289-4212-80             SEALED HOUSING ASS'Y     CCN000002000000002000FN00000000020221201000002000NNM   20220912122510U9  4N0N  00000200000000848600000978632U9    YNYNA-E 005400370024
BI00B32U9    TPA245         202210067289-6868-30             SEALED ASSY FEMALE       CCN000020160000020160FN00000000020221201000020160NNM   20220912122510U9  4N0N  00000252000000839200001119232U9    YNYNA-E 005500360039
BI00B32U9    TPA245         202210067289-7615-30             HOUSING FEMALE ASS'Y     CCN000003200000003200FN00000000020221201000003200NNM   20220912122510U9  4N0N  00000032000000738000000948032U9    YNYNA-E 005400370024
BI00B32U9    TPA245         202210067298-1186-40             SQUIB SUB ASS'Y          CCN000040000000040000FN00000000020221201000040000NNM   20220912122510U9  4N0N  00001000000000650000000774532U9    YNYNA-E 005400370024
BI00B32U9    TPA245         202210067298-1186-70             SQUIB SUB ASS'Y          CCN000010000000010000FN00000000020221201000010000NNM   20220912122510U9  4N0N  00001000000000650000000774532U9    YNYNA-E 005400370024
BI00B32U9    TPA245         202210067298-1187-30             SHUNT RING ASSEMBLY      CCN000010000000010000FN00000000020221201000010000NNM   20220912122510U9  4N0N  00001000000000647000000769532U9    YNYNA-E 005400370024
BI00B32U9    #TPA245        202210067147-9094                RETAINER                 CCN000003000000003000FN00000000020221201000003000NNM   20220912122510U9  2F0F  00000300000000717000000872932U9    YNYNA-E 005500360039
BI00B32U9    #TPA245        202210067157-3646                RUBBER STOPPER           CCN000100000000100000FN00000000020221201000100000NNM   20220912122510U9  2H0H  00002000000000184000000255232U9    YNYNA-E 002700430014
BI00B32U9    #TPA245        202210067157-3790-90             WIRE SEAL                CCN000020000000020000FN00000000020221201000020000NNM   20220912122510U9  2C0C  00002000000000176000000232732U9    YNYNA-E 002700430014
BI00B32U9    #TPA245        202210067158-3008-80             RUBBER STOPPER           CCN000020000000020000FN00000000020221201000020000NNM   20220912122510U9  2C0C  00002000000000288000000343032U9    YNYNA-E 004300270014
BI00B32U9    #TPA245        202210067158-3376-50             CONNECTOR WIRE SEAL      CCN000120000000120000FN00000000020221201000120000NNM   20220912122510U9  2C0C  00002000000000184000000240732U9    YNYNA-E 002700430014
BI00B32U9    #TPA245        202210067282-6446-40             CONNECTOR                CCN000012000000012000FN00000000020221201000012000NNM   20220912122510U9  2N0N  00000150000001185000001368032U9    YNYNA-E 005500360039
BI00B32U9    #TPA245        202210067282-8395-40             CONNECTOR                CCN000018000000018000FN00000000020221201000018000NNM   20220912122510U9  2N0N  00000100000001009000001188032U9    YNYNA-E 005500360039
BI00B32U9    #TPA245        202210067283-8397-40             CONNECTOR                CCN000012320000012320FN00000000020221201000012320NNM   20220912122510U9  2N0N  00000154000001007000001222732U9    YNYNA-E 005600390023
BI00B32U9    #TPA245        202210067B58-3121-80             SEALED CONNECTOR         CCN000060000000060000FN00000000020221201000060000NNM   20220912122510U9  2C0C  00002000000000118000000195032U9    YNYNA-E 004300270014
BI00B32W2    #HN22114NMW    202209277123-1424                CONNECTOR HOUSING        CCN000004200000004200FN00000000020221101000004200NNMD0020220912140240    2F0F  00000420000000979400001124432W2    HNHNY   005400370024
BI00B32W2    #HN2210BNMW    202209277187-3357-40             JOINT CONNECTOR          CCN000004800000004800FN00000000020221001000004800NNE   20220912122510    2F0F  00000120000000762000001029232W2    HNHNY   005600390040
BI00B32W2    #HN2210BNMW    202209277187-3360                JOINT CONNECTOR          CCN000006000000006000FN00000000020221001000006000NNE   20220912122510    2F0F  00000120000000759600001026832W2    HNHNY   005600390040
BI00B32W2    #HN2210BNMW    202209277283-1161                CONNECTOR FEMALE         CCN000001000000001000FN00000000020221001000001000NNE   20220912122510    2N0N  00000100000000602000000711032W2    HNHNY   005400370024
BI00B32W2    #HN2210BNMW    202209277283-4861                CONNECTOR                CCN000001500000001500FN00000000020221001000001500NNE   20220912122510    2N0N  00000150000001200000001359932W2    HNHNY   005500360039
BI00A32W4    4500198942     202209137283-8721-30             HOUSING FEMALE ASS'Y     CCN000003000000003000FN00000000020220901000003000NNED0020220912122510W4G34N0N  00000100000000350000000462532W4G3  HJYHK-J 005400370024
