AE00TI102209120512/09/202200000000100000000000000000154KGM  00000000440KGM  7157-3950-80             SEAL RUBBER              7157395080               0         0         0         0    0    0    00004000000004000000000044000017600000
AE00TI102209120512/09/202200000000400000000000000001000KGM  00000001224KGM  7158-3003-90             RUBBER STOPPER           7158300390               0         0         0         0    0    0    00008000000002000000000012000009600000
AE00TI102209120512/09/202200000002600000000000000008596KGM  00000010036KGM  7158-3006-90             RUBBER STOPPER           7158300690               0         0         0         0    0    0    00052000000002000000000016000083200000
AE00TI102209120512/09/202200000002700000000000000009126KGM  00000010427KGM  7158-3009-60             RUBBER STOPPER           7158300960               0         0         0         0    0    0    00054000000002000000000012000064800000
AE00TI102209120512/09/202200000001900000000000000008883KGM  00000009956KGM  7158-3022-80             RUBBER STOPPER           7158302280               0         0         0         0    0    0    00009500000000500000000070000066500000
AE00TI102209120512/09/202200000000200000000000000000248KGM  00000000345KGM  7158-3165-90             WIRE SEAL                7158316590               0         0         0         0    0    0    00008000000004000000000006000004800000
AE00TI102209120512/09/202200000000500000000000000000520KGM  00000000762KGM  7158-3166-60             WIRE SEAL                7158316660               0         0         0         0    0    0    00020000000004000000000004000008000000
AE00TI102209120512/09/202200000003200000000000000001536KGM  00000003488KGM  7158-3167-80             WIRE SEAL                7158316780               0         0         0         0    0    0    00064000000002000000000005000032000000
AE00TI102209120512/09/202200000000800000000000000000352KGM  00000000737KGM  7158-3168-80             SEALED                   7158316880               0         0         0         0    0    0    00016000000002000000000004000006400000
AE00TI102209120512/09/202200000000300000000000000001868KGM  00000002286KGM  7174-1849-70             COVER                    7174184970               0         0         0         0    0    0    00007500000002500000000046000034500000
AE00TI102209120512/09/202200000000300000000000000003412KGM  00000003893KGM  7183-2417                CONNECTOR HOUSING        71832417                 0         0         0         0    0    0    00000720000000240000000138000009936000
AE00TI102209120512/09/202200000000500000000000000003257KGM  00000004357KGM  7283-4576                HOUSING FEMALE ASS'Y     72834576                 0         0         0         0    0    0    00002400000000480000000128000030720000
AE00TI102209120512/09/202200000000100000000000000000651KGM  00000000871KGM  7283-4576-30             HOUSING FEMALE ASS'Y     7283457630               0         0         0         0    0    0    00000480000000480000000131000006288000
AE00TI102209120512/09/202200000000300000000000000002513KGM  00000003173KGM  7283-4578                HOUSING FEMALE ASS'Y     72834578                 0         0         0         0    0    0    00000720000000240000000190000013680000
AE00TI102209120512/09/202200000000300000000000000001332KGM  00000001819KGM  7283-5845                CONNECTOR HOUSING        72835845                 0         0         0         0    0    0    00001800000000600000000133000023940000
AE00TI102209120512/09/202200000000100000000000000000444KGM  00000000606KGM  7283-5845-30             CONNECTOR HOUSING        7283584530               0         0         0         0    0    0    00000600000000600000000133000007980000
AE00TI102209120512/09/202200000000500000000000000004553KGM  00000005653KGM  7286-3885-40             CONNECTOR MALE ASS'Y     7286388540               0         0         0         0    0    0    00000600000000120000000313000018780000
AE00TI102209120512/09/202200000000100000000000000000667KGM  00000000923KGM  7287-1915                CONNECTOR ASS'Y          72871915                 0         0         0         0    0    0    00000240000000240000000161000003864000
AE00TI102209120512/09/202200000000100000000000000000667KGM  00000000923KGM  7287-1915-30             CONNECTOR ASS'Y          7287191530               0         0         0         0    0    0    00000240000000240000000167000004008000
AE00TI102209120512/09/202200000000100000000000000001030KGM  00000001250KGM  7287-3885-40             HYBRID FEMALE ASS'Y      7287388540               0         0         0         0    0    0    00000240000000240000000216000005184000
AE00TI102209120512/09/202200000003100000000000000021278KGM  00000027943KGM  7289-3342                HOUSING FEMALE ASS'Y     72893342                 0         0         0         0    0    0    00007440000000240000000186000138384000
AE00TI102209120512/09/202200000001600000000000000010982KGM  00000014422KGM  7289-3342-40             HOUSING FEMALE ASS'Y     7289334240               0         0         0         0    0    0    00003840000000240000000192000073728000
AE00TI102209120512/09/202200000004100000000000000028142KGM  00000036957KGM  7289-3342-90             HOUSING FEMALE ASS'Y     7289334290               0         0         0         0    0    0    00009840000000240000000196000192864000
AE00TI102209120512/09/202200000000100000000000000001152KGM  00000001362KGM  7289-6547                HOUSING FEMALE ASS'Y     72896547                 0         0         0         0    0    0    00000240000000240000000229000005496000
AE00TI102209120512/09/202200000000100000000000000001003KGM  00000001205KGM  7298-1865-30             HOUSING FEMALE ASS'Y     7298186530               0         0         0         0    0    0    00000240000000240000000196000004704000
AE00TI102209120512/09/202200000000400000000000000003926KGM  00000005160KGM  7298-5993-30             SEALED ASSY FEMALE       7298599330               0         0         0         0    0    0    00000873600000218400000266000023237760
AE00TI102209120512/09/202200000000600000000000000006657KGM  00000007558KGM  7327-6424-4W             BATTERY FUSE             732764244W               0         0         0         0    0    0    00000057600000009600007969000045901440
AE00TI102209120512/09/202200000000500000000000000006151KGM  00000007113KGM  7327-6533-3W             BATTERY FUSE             732765333W               0         0         0         0    0    0    00000036000000007200010131000036471600
AE00TI102209120512/09/202200000000300000000000000003329KGM  00000003779KGM  7327-6572-3W             BATTERY FUSE             732765723W               0         0         0         0    0    0    00000028800000009600008162000023506560
AE00TI102209120512/09/202200000000900000000000000011991KGM  00000013811KGM  7327-6627-3W             BATTERY FUSE             732766273W               0         0         0         0    0    0    00000086400000009600008444000072956160
AE00TI102209120512/09/202200000001300000000000000014832KGM  00000017627KGM  7327-6840-3W             BATTERY FUSE             732768403W               0         0         0         0    0    0    00000093600000007200009909000092748240
AE00TI102209120512/09/202200000001500000000000000013056KGM  00000018900KGM  7370-0309                J/B ASS'Y                73700309                 0         0         0         0    0    0    00000024000000001600028585000068604000
AE00TI102209120512/09/202200000000600000000000000003354KGM  00000004854KGM  7370-0310                J/B ASS'Y                73700310                 0         0         0         0    0    0    00000006000000001000031643000018985800
AE00TI102209120512/09/202200000000100000000000000001360KGM  00000001486KGM  7386-6939                CONNECTOR MALE ASS'Y     73866939                 0         0         0         0    0    0    00000090000000090000001879000016911000
AE00TI102209120512/09/202200000000500000000000000006222KGM  00000006850KGM  7386-9155                CONNECTOR MALE ASS'Y     73869155                 0         0         0         0    0    0    00000300000000060000002466000073980000
AE00TI102209120512/09/202200000000800000000000000005936KGM  00000008976KGM  7388-2978-30             HOUSING MALE ASS'Y       7388297830               0         0         0         0    0    0    00000384000000048000001790000068736000
AE00TI102209120512/09/202200000003500000000000000046200KGM  00000054950KGM  7470-4481                J/B COMPLETE ASS'Y       74704481                 0         0         0         0    0    0    00000084000000002400000000000000000000
AE00TI102209120512/09/202200000001400000000000000000000KGM  00000000000KGM  7470-4816D               J/B COMPLETE ASS'Y       74704816D                0         0         0         0    0    0    00000021000000001500000000000000000000
AE00TI102209120512/09/202200000000800000000000000000000KGM  00000000000KGM  7470-4818D               J/B COMPLETE ASS'Y       74704818D                0         0         0         0    0    0    00000012000000001500000000000000000000
AE00TI102209120512/09/202200000003500000000000000000000KGM  00000000000KGM  7470-5782D               J/B COMPLETE ASS'Y       74705782D                0         0         0         0    0    0    00000052500000001500000000000000000000
AE00TI102209120512/09/202200000001800000000000000000000KGM  00000000000KGM  7470-5784E               J/B COMPLETE ASS'Y       74705784E                0         0         0         0    0    0    00000018000000001000000000000000000000
AE00TI102209120512/09/202200000000500000000000000000000KGM  00000000000KGM  7470-5791D               J/B COMPLETE ASS'Y       74705791D                0         0         0         0    0    0    00000007500000001500000000000000000000
AE00TI102209120512/09/202200000000500000000000000000000KGM  00000000000KGM  7470-5823D               J/B COMPLETE ASS'Y       74705823D                0         0         0         0    0    0    00000007500000001500000000000000000000
AE00TI102209120612/09/202200000000100000000000000000749KGM  00000001077KGM  7114-4100-02             TERMINAL                 7114410002               0         0         0         0    0    0    00001800000001800000000034000006120000
