AE00TI102209120412/09/202200000001300000000000000009734KGM  00000014006KGM  7114-4100-02             TERMINAL                 7114410002               0         0         0         0    0    0    00023400000001800000000034000079560000
AE00TI102209120412/09/202200000001600000000000000009291KGM  00000013187KGM  7114-6041                TERMINAL                 71146041                 0         0         0         0    0    0    00005760000000360000000107000061632000
AE00TI102209120412/09/202200000005400000000000000033383KGM  00000048784KGM  7116-1180                TERMINAL                 71161180                 0         0         0         0    0    0    00105300000001950000000022000231660000
AE00TI102209120412/09/202200000001600000000000000007344KGM  00000011907KGM  7116-3153-02             TERMINAL FEMALE          7116315302               0         0         0         0    0    0    00043200000002700000000015000064800000
AE00TI102209120412/09/202200000001600000000000000009893KGM  00000014456KGM  7116-4022                TERMINAL                 71164022                 0         0         0         0    0    0    00021600000001350000000037000079920000
AE00TI102209120412/09/202200000001600000000000000009672KGM  00000014235KGM  7126-8854-02             TERMINAL                 7126885402               0         0         0         0    0    0    00012000000000750000000059000070800000
AE00TI102209120412/09/202200000000400000000000000002918KGM  00000003332KGM  7182-2412                HOUSING MALE             71822412                 0         0         0         0    0    0    00000200000000050000000638000012760000
AE00TI102209120412/09/202200000001500000000000000007916KGM  00000012128KGM  7185-9192                FRONT HOLDER             71859192                 0         0         0         0    0    0    00000450000000030000001160000052200000
AE00TI102209120412/09/202200000000200000000000000001930KGM  00000002350KGM  7282-4577                HOUSING MALE ASS'Y       72824577                 0         0         0         0    0    0    00000480000000240000000229000010992000
AE00TI102209120412/09/202200000000100000000000000000230KGM  00000000339KGM  7282-5528-70             HOUSING MALE ASS'Y       7282552870               0         0         0         0    0    0    00000100000000100000000434000004340000
AE00TI102209120412/09/202200000000600000000000000006106KGM  00000007426KGM  7282-9391                HOUSING MALE ASS'Y       72829391                 0         0         0         0    0    0    00000720000000120000000325000023400000
AE00TI102209120412/09/202200000000100000000000000000724KGM  00000000874KGM  7283-5832                CONNECTOR HOUSING        72835832                 0         0         0         0    0    0    00000240000000240000000206000004944000
AE00TI102209120412/09/202200000000900000000000000007965KGM  00000009918KGM  7283-5846                HOUSING                  72835846                 0         0         0         0    0    0    00001350000000150000000241000032535000
AE00TI102209120412/09/202200000000400000000000000001400KGM  00000001850KGM  7283-8721-30             HOUSING FEMALE ASS'Y     7283872130               0         0         0         0    0    0    00000400000000100000000415000016600000
AE00TI102209120412/09/202200000000800000000000000006144KGM  00000007824KGM  7286-4097                CONNECTOR MALE ASS'Y     72864097                 0         0         0         0    0    0    00001280000000160000000196000025088000
AE00TI102209120412/09/202200000000300000000000000003665KGM  00000004325KGM  7287-8072                HOUSING FEMALE ASS'Y     72878072                 0         0         0         0    0    0    00000720000000240000000247000017784000
AE00TI102209120412/09/202200000000200000000000000002458KGM  00000002898KGM  7287-8999                HOUSING FEMALE ASS'Y     72878999                 0         0         0         0    0    0    00000960000000480000000163000015648000
AE00TI102209120412/09/202200000000200000000000000002558KGM  00000003187KGM  7289-7208-30             HOUSING FEMALE ASS'Y     7289720830               0         0         0         0    0    0    00000048000000024000004419000021211200
AE00TI102209120412/09/202200000000100000000000000001307KGM  00000001622KGM  7289-7211-30             HOUSING FEMALE ASS'Y     7289721130               0         0         0         0    0    0    00000024000000024000004728000011347200
AE00TI102209120412/09/202200000002200000000000000016240KGM  00000021223KGM  7289-7970                HYBRID FEMALE ASS'Y      72897970                 0         0         0         0    0    0    00000704000000032000000956000067302400
AE00TI102209120412/09/202200000000100000000000000001162KGM  00000001285KGM  7386-2747                CONNECTOR ASS'Y          73862747                 0         0         0         0    0    0    00000200000000200000000413000008260000
