AE00TO202209120212/09/202200000018100000000000000189439KGM  00000198287KGM  18000004530              AV 8 B                   AV 8 B                   0         0         0         0    0    0    00000000000181000000000211100038209100
AE00TO202209120212/09/202200000009800000000000000102569KGM  00000107360KGM  18000004540              AV 8 W                   AV 8 W                   0         0         0         0    0    0    00000000000098000000000211100020687800
AE00TO202209120212/09/202200000004800000000000000050238KGM  00000052584KGM  18000004543              AV 8 W/B                 AV 8 W/B                 0         0         0         0    0    0    00000000000048000000000211100010132800
AE00TO202209120212/09/202200000000100000000000000001111KGM  00000001160KGM  18007704160              AVSS 125F G              AVSS 125F G              0         0         0         0    0    0    00000000000008000000000034700000277600
AE00TO202209120212/09/202200000000100000000000000001111KGM  00000001160KGM  18007704190              AVSS 125F L              AVSS 125F L              0         0         0         0    0    0    00000000000008000000000034700000277600
AE00TO202209120212/09/202200000000200000000000000002316KGM  00000002414KGM  1801R706952              CIVUS 035 P              CIVUS 035 P              0         0         0         0    0    0    00000000000060000000000009600000576000
AE00TO202209120212/09/202200000001800000000000000020844KGM  00000021724KGM  1801R706961              CIVUS 035 LG             CIVUS 035 LG             0         0         0         0    0    0    00000000000540000000000009600005184000
AE00TO202209120212/09/202200000000200000000000000002250KGM  00000002348KGM  1801W003940              IVSSH 05F W              IVSSH 05F W              0         0         0         0    0    0    00000000000036000000000015400000554400
AE00TO202209120212/09/202200000000400000000000000004135KGM  00000004329KGM  180D0203930              AVSSH 05F B              AVSSH 05F B              0         0         0         0    0    0    00000000000060000000000016300000978000
AE00TO202209120212/09/202200000000100000000000000001034KGM  00000001082KGM  180D0203935              AVSSH 05F B/R            AVSSH 05F B/R            0         0         0         0    0    0    00000000000015000000000016300000244500
AE00TO202209120212/09/202200000000100000000000000001034KGM  00000001082KGM  180D0203950              AVSSH 05F R              AVSSH 05F R              0         0         0         0    0    0    00000000000015000000000016300000244500
AE00TO202209120212/09/202200000000100000000000000001034KGM  00000001082KGM  180D0203960              AVSSH 05F G              AVSSH 05F G              0         0         0         0    0    0    00000000000015000000000016300000244500
AE00TO202209120212/09/202200000000200000000000000002067KGM  00000002165KGM  180D0203990              AVSSH 05F L              AVSSH 05F L              0         0         0         0    0    0    00000000000030000000000016300000489000
AE00TO202209120212/09/202200000000100000000000000001034KGM  00000001082KGM  180D0203994              AVSSH 05F L/W            AVSSH 05F L/W            0         0         0         0    0    0    00000000000015000000000016300000244500
AE00TO202209120212/09/202200000000300000000000000003499KGM  00000003646KGM  180D0204150              AVSSH 125F R             AVSSH 125F R             0         0         0         0    0    0    00000000000024000000000035700000856800
AE00TO202209120212/09/202200000008700000000000000066140KGM  00000070394KGM  181AD2003ZZ              CIVUSAS-S 035X3 B        CIVUSAS-S 035X3 B        0         0         0         0    0    0    00000000000304500000000055300016838850
AE00TO202209120212/09/202200000004500000000000000037799KGM  00000039999KGM  181AD2004ZZ              CIVUSAS-S 035X4 B        CIVUSAS-S 035X4 B        0         0         0         0    0    0    00000000000135000000000066700009004500
AE00TO202209120212/09/202200000000100000000000000000896KGM  00000000945KGM  181B32103S1              AVSSCS 05FX3 DGY         AVSSCS 05FX3 DGY         0         0         0         0    0    0    00000000000002500000000096400000241000
AE00TO202209120212/09/202200000003500000000000000027882KGM  00000029590KGM  181B32116Z5              AVSSCS 03FX2 DGY/L       AVSSCS 03FX2 DGY/L       0         0         0         0    0    0    00000000000122500000000060900007460250
AE00TO202209120212/09/202200000000400000000000000003056KGM  00000003251KGM  181E50005ZZ              AVSSCS-S 05FX1 DGY/W     AVSSCS-S 05FX1 DGY/W     0         0         0         0    0    0    00000000000016000000000050400000806400
AE00TO202209120212/09/202200000000400000000000000003265KGM  00000003460KGM  181E50028ZZ              AVSSCS-S 05FX3 DGY       AVSSCS-S 05FX3 DGY       0         0         0         0    0    0    00000000000010000000000091500000915000
