BI00B32AF    JTB2102        202209097196-1102-02             TERMINAL                 CCN000022500000022500FN00000000020221001000022500NNMD0020220811121542    4P0P  00002250000000405000000690232AF    HBYHVTB 006400630015
BI00B32AF    JTB2102        202209097196-1104-02             TERMINAL                 CCN000022500000022500FN00000000020221001000022500NNMD0020220811121542    4P0P  00002250000000441000000726232AF    HBYHVTB 006400630015
BI00B32AF    #JTB2102       202209097172-5629-80             RUBBER STOPPER           CCN000040000000040000FN00000000020221001000040000NNMD0020220811121542    2H0H  00002000000000060000000111132AF    HBYHVTB 004300270014
BI00B32AF    #JTB2102       202209097172-5630-40             RUBBER STOPPER           CCN000020000000020000FN00000000020221001000020000NNMD0020220811121542    2H0H  00002000000000044000000095132AF    HBYHVTB 004300270014
BI00B32AF    #JTB2102       202209097172-5631-60             RUBBER STOPPER           CCN000020000000020000FN00000000020221001000020000NNMD0020220811121542    2H0H  00002000000000042000000093132AF    HBYHVTB 004300270014
BI00A32CA    PTA33021A      202208187114-5096-02             TERMINAL                 CCN000016000000030000FN00000000020220801000030000NNED0020220811121542    4P0P  00003000000000498000000792232CA    YPYPY   006400630015
BI00A32CA    PTA33021A      202208187114-5096-08             TERMINAL                 CCN000048000000060000FN00000000020220801000060000NNED0020220811121542    4P0P  00003000000000498000000792232CA    YPYPY   006400630015
BI00A32CA    PTA33021A      202208187116-3153-02             TERMINAL FEMALE          CCN000726000000729000FN00000000020220801000729000NNED0020220811121542    4P0P  00002700000000459000000744232CA    YPYPY   006400630015
BI00A32CA    PTA33021A      202208187116-3154-02             TERMINAL FEMALE          CCN000264000000270000FN00000000020220801000270000NNED0020220811121542    4P0P  00002700000000469800000755032CA    YPYPY   006400630015
BI00A32CA    PTA33021A      202208187116-4486-02             TERMINAL                 CCN000006500000028000FN00000000020220801000028000NNED0020220811121542    4P0P  00002800000000666400000995132CA    YPYPY   006400630017
BI00A32CA    PTA33021A      202208187196-0510-02             TERMINAL                 CCN000120000000120000FN00000000020220801000120000NNED0020220811121542    4P0P  00002400000000871200001034632CA    YPYPY   002800510028
BI00A32CA    PTA33021A      202208187287-9323                UNSEALED HOUSING SUB     CCN000007200000007200FN00000000020220801000007200NNED0020220811121542    1N0N  00000240000000537600000690032CA    YPYPY   005600390023
BI00A32CA    PTA33021A      202208187289-3342                HOUSING FEMALE ASS'Y     CCN000091200000091200FN00000000020220801000091200NNED0020220811121542    1N0N  00000240000000686400000901432CA    YPYPY   005500360039
BI00A32CA    PTA33021A      202208187289-3342-30             HOUSING FEMALE ASS'Y     CCN000100800000100800FN00000000020220801000100800NNED0020220811121542    1N0N  00000240000000686400000901432CA    YPYPY   005500360039
BI00A32CA    PTA33021A      202208187289-3342-90             HOUSING FEMALE ASS'Y     CCN000024000000024000FN00000000020220801000024000NNED0020220811121542    1N0N  00000240000000686400000901432CA    YPYPY   005500360039
BI00A32CA    #PTA33021A     202208187189-3032-30             HOUSING FEMALE           CCN000001600000001600FN00000000020220801000001600NNED0020220811121542    2F0F  00000160000000801600001021632CA    YPYPY   005500360039
BI00B32CH    SJ2209A MW     202208187116-5035-02             TERMINAL                 CCN000015000000015000FN00000000020220901000015000NNED0720220811121542    4P0P  00001500000000543000000828232CH    SJSAMIJF006400630015
BI00B32CH    SJ2209ADMW     202208257114-4729-08             TERMINAL                 CCN000008000000030000FN00000000020220901000030000NNED0720220811121542    4P0P  00003000000000522000000816232CH    SJSAMIJF006400630015
BI00B32CH    SJ2209ADMW     202208257116-3153-08             TERMINAL                 CCN000027000000027000FN00000000020220901000027000NNED0720220811121542    4P0P  00002700000000461700000746932CH    SJSAMIJF006400630015
BI00B32CJ    JQN209E        202208267282-4578-40             HOUSING MALE ASS'Y       CCN000001200000001200FN00000000020220901000001200NNE   20220811121542    4N0N  00000120000000782600000992632CJ    QNYHVQN 005500360039
BI00B32EJ    T220810P01     202208257116-2871                TERMINAL                 CCN000012000000012000FN00000000020220901000012000NNE   20220811121542EJ  1P0P  00001200000000842400001072632EJ    EJYKBO  005100280028
BI00B32EJ    T220810P01     202208257158-3070-80             RUBBER STOPPER           CCN000040000000040000FN00000000020220901000040000NNE   20220811121542EJ  1C0C  00004000000000276000000333332EJ    EJYKBO  002700430014
BI00B32EJ    T220810P01     202208257116-4124-02             TERMINAL                 CCN000012000000012000FN00000000020220901000012000NNE   20220811121542EJ  4P0P  00000300000000459900000753532EJ    EJYKBO  006400630015
BI00B32EJ    T220810P01     202208257196-1461-06             TERMINAL FEMALE          CCN000048000000048000FN00000000020220901000048000NNE   20220811121542EJ  4P0P  00002400000000386400000692932EJ    EJYKBO  006400630015
BI00B32EJ    T220810P01     202208257114-4111-02             TERMINAL                 CCN000012000000012000FN00000000020220901000012000NNE   20220811121542EJ  4P0P  00001200000000758400001087032EJ    EJYKBO  006400630017
BI00B32EJ    T220810P01     202208257116-4100-02             TERMINAL                 CCN000015000000015000FN00000000020220901000015000NNE   20220811121542EJ  4P0P  00001500000000696000000990232EJ    EJYKBO  006400630015
BI00B32EJ    T220810P01     202208257116-4120-02             TERMINAL                 CCN000012000000012000FN00000000020220901000012000NNE   20220811121542EJ  4P0P  00000600000000780000001073632EJ    EJYKBO  006400630015
BI00B32EJ    T220810P01     202208257116-4122-02             TERMINAL                 CCN000018000000018000FN00000000020220901000018000NNE   20220811121542EJ  4P0P  00000450000000656600000950232EJ    EJYKBO  006400630015
BI00B32EJ    T220810P01     202208257116-4121-02             TERMINAL                 CCN000040500000040500FN00000000020220901000040500NNE   20220811121542EJ  4P0P  00000450000000618800000912432EJ    EJYKBO  006400630015
BI00B32EJ    T220810P01     202208257116-4112-02             TERMINAL                 CCN000036000000036000FN00000000020220901000036000NNE   20220811121542EJ  4P0P  00000600000000450000000738232EJ    EJYKBO  006400630015
BI00B32EJ    T220810P01     202208257116-4111-02             TERMINAL                 CCN000007500000007500FN00000000020220901000007500NNE   20220811121542EJ  4P0P  00000750000000529500000817732EJ    EJYKBO  006400630015
BI00B32EJ    T220810P01     202208257126-8854-02             TERMINAL                 CCN000015000000015000FN00000000020220901000015000NNE   20220811121542EJ  4P0P  00000750000000604500000889732EJ    EJYKBO  006400630015
BI00B32EJ    T220810P01     202208257126-8855-02             TERMINAL                 CCN000012000000012000FN00000000020220901000012000NNE   20220811121542EJ  4P0P  00000600000000510600000795832EJ    EJYKBO  006400630015
BI00B32EJ    T220810P01     202208257116-2951-02             TERMINAL                 CCN000005400000005400FN00000000020220901000005400NNE   20220811121542EJ  4P0P  00000540000000817600001111832EJ    EJYKBO  006400630015
BI00B32EJ    T220810P01     202208257158-3166-60             WIRE SEAL                CCN000440000000440000FN00000000020220901000440000NNE   20220811121542EJ  1C0C  00004000000000104000000152432EJ    EJYKBO  002700430014
BI00B32EJ    T220810P01     202208257158-3167-80             WIRE SEAL                CCN000440000000440000FN00000000020220901000440000NNE   20220811121542EJ  1C0C  00002000000000048000000109032EJ    EJYKBO  002700430014
BI00B32EJ    T220810P01     202208257158-3168-80             SEALED                   CCN000040000000040000FN00000000020220901000040000NNE   20220811121542EJ  1C0C  00002000000000044000000092132EJ    EJYKBO  004300260014
BI00B32EJ    T220810P01     202208257158-3167-61             WIRE SEAL                CCN000080000000080000FN00000000020220901000080000NNE   20220811121542EJ  1C0C  00002000000000048000000096432EJ    EJYKBO  004300270014
BI00B32EJ    #T220810P01    202208257158-3120-90             CONNECTOR WIRE SEAL      CCN000040000000040000FN00000000020220901000040000NNE   20220811121542EJ  2C0C  00002000000000136000000194032EJ    EJYKBO  002700430014
BI00B32EJ    #T220810P01    202208257123-6423-30             CONNECTOR                CCN000004000000004000FN00000000020220901000004000NNE   20220811121542EJ  2F0F  00000200000001002000001167632EJ    EJYKBO  005600390023
BI00B32EJ    #T220810P01    202208257282-6458-40             CONNECTOR                CCN000003000000003000FN00000000020220901000003000NNE   20220811121542EJ  2N0N  00000100000001206000001350532EJ    EJYKBO  005500360039
BI00B32EJ    @T220810P01    202208257123-4312-80             HOUSING                  CCN000000800000000800FN00000000020220901000000800NNE   20220811121542EJ  3F0F  00000080000000644200000794032EJ    EJYKBO  005500360039
BI00B32G7    #JJ22101 MW    202209157183-2413                CONNECTOR HOUSING        CCN000004800000000000FY00000000020221001000000000NNMQ0820220811102358    2F0F  00000480000000478100000760032G7    JIJAI   005500360039
BI00B32H2    TIJ2105        202209167017-1180-02             TERMINAL                 CCN000144000000144000FN00000000020221001000144000NNMD0020220811151814    4P0P  00007200000001065600001229032H2    HVYHV   005100280028
BI00B32H2    TIJ2103        202209167195-1933-02             TERMINAL MALE            CCN000024000000024000FN00000000020221001000024000NNMD0020220811151903    4P0P  00002400000000777600001071232H2    HVYHV   006400630015
BI00B32H2    TIJ2105        202209307195-1933-02             TERMINAL MALE            CCN000024000000024000FN00000000020221001000024000NNMD0020220811151917    4P0P  00002400000000777600001071232H2    HVYHV   006400630015
BI00B32H2    TIJ2102        202208267195-1936-02             TERMINAL MALE            CCN000030000000030000FN00000000020221001000030000NNMD0020220811152016    4P0P  00001500000000589500000883132H2    HVYHV   006400630015
BI00B32H2    TIJ2102        202208267196-1325-02             TERMINAL FEMALE          CCN000300000000300000FN00000000020221001000300000NNMD0020220811152050    4P0P  00006000000000450000000778732H2    HVYHV   006400630017
BI00B32H2    TIJ2103        202208267196-1326-02             TERMINAL FEMALE          CCN000300000000300000FN00000000020221001000300000NNMD0020220811152110    4P0P  00006000000000456000000784732H2    HVYHV   006400630017
BI00B32H2    #TIJ2101       202208267172-5625-90             RUBBER STOPPER           CCN000020000000020000FN00000000020221001000020000NNMD0020220811152139    2H0H  00002000000000082400000133832H2    HVYHV   004300270014
BI00B32H2    TIJ210B        202208267114-5096-08             TERMINAL                 CCN000030000000030000FN00000000020221001000030000NNED0020220811151834    4P0P  00003000000000498000000792232H2    HVYHV   006400630015
BI00B32H8    #TY22101 MW    202208267157-7812                SEAL RUBBER              CCN000150000000150000FN00000000020221001000150000NNMD0220220811150030    2C0C  00001000000000137000000202032H8    TYTYC   002700430014
BI00B32H8    #TY22102 MW    202209027157-7812                SEAL RUBBER              CCN000300000000300000FN00000000020221001000300000NNMD0220220811150051    2C0C  00001000000000137000000202032H8    TYTYC   002700430014
BI00B32H8    #TY22103 MW    202209097157-7812                SEAL RUBBER              CCN000400000000400000FN00000000020221001000400000NNMD0220220811150102    2C0C  00001000000000137000000202032H8    TYTYC   002700430014
BI00B32H8    TY2209AKMW     202209027382-7523                JOINT CONNECTOR          CCN000001200000001200FN00000000020220901000001200NNE   20220811121542    4N0N  00000120000000942200001087232H8    TYTYC   005400370024
BI00B32H8    TY2209B MW     202209027114-4231-02             TERMINAL                 CCN000036000000036000FN00000000020220901000036000NNE   20220811121542    4P0P  00001800000000554400000848032H8    TYTYC   006400630015
BI00B32H8    TY2209B MW     202209027116-2640                TERMINAL                 CCN000018000000018000FN00000000020220901000018000NNE   20220811121542    4P0P  00001800000001018800001196632H8    TYTYC   005100280028
BI00B32H8    TY2209B MW     202209027283-5832                CONNECTOR HOUSING        CCN000002400000002400FN00000000020220901000002400NNE   20220811121542    1N47  00000240000000723800000873832H8    TYTYC   005500360039
BI00B32H8    #TY2209B MW    202209027119-3130                HOUSING                  CCN000003000000003000FN00000000020220901000003000NNE   20220811121542    2F0F  00000300000001758000001868032H8    TYTYC   005500360039
BI00A32J1    396854         202209127298-1187-30             SHUNT RING ASSEMBLY      CCN000020000000020000FN00000000020220801000020000NNMM0020220811165509    4N0N  00001000000000647000000769532J1    UKYEL-BL005400370024
BI00B32J1    397231         202208297283-7023-10             CONNECTOR                CCN000005000000005000FN00000000020220701000005000NNED0720220811121542    4N0N  00000250000001360000001550032J1    UKYEL-BL005500360039
BI00B32K8    #K1220011532   202209307137-2718-50             SEALED CONNECTOR         CCN000005000000005000FN00000000020221101000005000NNM   20220811121542    2C0C  00000100000000118300000236632K8    ELELCOM 002700430014
BI00B32K8    #K1220011533   202210077137-2718-50             SEALED CONNECTOR         CCN000005000000005000FN00000000020221101000005000NNM   20220811121542    2C0C  00000100000000118300000236632K8    ELELCOM 002700430014
BI00B32K8    #K1220011534   202210077137-2718-50             SEALED CONNECTOR         CCN000005000000005000FN00000000020221101000005000NNM   20220811121542    2C0C  00000100000000118300000236632K8    ELELCOM 002700430014
BI00B32M1    #TCV208E       202208257287-1915-90             CONNECTOR ASS'Y          CCN000008000000009600FN00000000020220801000009600NNE   20220811121542    2N0N  00000240000000666500000923132M1    VNYEV   005500360039
BI00B32N1    NST2808        202209017114-4416-02             TERMINAL MALE            CCN000010000000027000FN00000000020220901000027000NNE   20220811121542    4P0P  00002700000000442800000731032N1    TAYIPL  006400630015
BI00B32N1    NST2808        202209017158-3167-80             WIRE SEAL                CCN000010000000020000FN00000000020220901000020000NNE   20220811121542    1C0C  00002000000000048000000109032N1    TAYIPL  002700430014
BI00B32N1    NST2808        202209017116-4415-02             TERMINAL                 CCN000010000000038000FN00000000020220901000038000NNE   20220811121542    4P0P  00003800000000596600000925732N1    TAYIPL  006400630017
BI00B32N1    NST2808        202209017116-4416-02             TERMINAL                 CCN000010000000032000FN00000000020220901000032000NNE   20220811121542    4P0P  00003200000000518400000847132N1    TAYIPL  006400630017
BI00B32N1    NST2808        202209017116-2893-02             TERMINAL                 CCN000010000000012000FN00000000020220901000012000NNE   20220811121542    4P0P  00001200000000895200001058632N1    TAYIPL  005100280028
BI00B32N1    NST2808        202209017116-1686-02             TERMINAL                 CCN000010000000021000FN00000000020220901000021000NNE   20220811121542    4P0P  00002100000000869400001021632N1    TAYIPL  005100280028
BI00B32N1    NST2808        202209017126-8855-02             TERMINAL                 CCN000020000000024000FN00000000020220901000024000NNE   20220811121542    4P0P  00000600000000510600000795832N1    TAYIPL  006400630015
BI00B32N1    NST2808        202209017126-8852-02             TERMINAL                 CCN000015000000015000FN00000000020220901000015000NNE   20220811121542    1P0P  00000750000000648000000933232N1    TAYIPL  006400630015
BI00B32N1    NST2808        202209017116-4025                TERMINAL                 CCN000020000000032000FN00000000020220901000032000NNE   20220811121542    4P0P  00001600000000644800000975132N1    TAYIPL  006400630017
BI00B32Q8    EU22102 MW     202208317114-4020                TERMINAL                 CCN000042000000042000FN00000000020221001000042000NNMD0020220811164638    4P0P  00002100000000875700001169332Q8    EMEMI   006400630015
BI00B32Q8    EU22104 MW     202209077114-4020                TERMINAL                 CCN000042000000042000FN00000000020221001000042000NNMD0020220811164658    4P0P  00002100000000875700001169332Q8    EMEMI   006400630015
BI00B32Q8    EU22104 MW     202208317114-4021                TERMINAL                 CCN000075000000075000FN00000000020221001000075000NNMD0020220811164715    4P0P  00001500000000670500000964132Q8    EMEMI   006400630015
BI00B32Q8    EU22104 MW     202208317114-4031                TERMINAL                 CCN000010500000010500FN00000000020221001000010500NNMD0020220811164900    4P0P  00001050000000966000001294632Q8    EMEMI   006400630017
BI00B32Q8    EU22104 MW     202209077114-4032                TERMINAL                 CCN000037500000037500FN00000000020221001000037500NNMD0020220811164928    4P0P  00000750000000735000001063632Q8    EMEMI   006400630017
BI00B32Q8    EU22104 MW     202208317114-6041                TERMINAL                 CCN000003600000003600FN00000000020221001000003600NNMD0020220811164956    4P0P  00000360000000580700000824232Q8    EMEMI   006400630015
BI00B32Q8    EU22104 MW     202208317116-1685-02             TERMINAL                 CCN000024000000024000FN00000000020221001000024000NNMD0020220811165017    4P0P  00002400000000897600001065232Q8    EMEMI   005100280028
BI00B32Q8    EU22102 MW     202208317116-1686-02             TERMINAL                 CCN000021000000021000FN00000000020221001000021000NNMD0020220811165037    4P0P  00002100000000869400001021632Q8    EMEMI   005100280028
BI00B32Q8    EU22104 MW     202208317116-4231-02             TERMINAL                 CCN000130000000130000FN00000000020221001000130000NNMD0020220811165055    4P0P  00002600000000683800001012532Q8    EMEMI   006400630017
BI00B32Q8    EU22104 MW     202209147158-3070-80             RUBBER STOPPER           CCN000040000000040000FN00000000020221001000040000NNMD0020220811165111    1C0C  00004000000000276000000333332Q8    EMEMI   002700430014
BI00B32Q8    #EU22104 MW    202208317114-4022                TERMINAL                 CCN000090000000090000FN00000000020221001000090000NNMD0020220811164738    2F0P  00001500000000708000001120632Q8    EMEMI   006400630015
BI00B32Q8    #EU22104 MW    202209077283-1161                CONNECTOR FEMALE         CCN000004000000004000FN00000000020221001000004000NNMD0020220811155709    2N0N  00000100000000602000000711032Q8    EMEMI   005400370024
BI00B32Q8    #EU22104 MW    202208317283-5834-30             CONNECTOR ASS'Y          CCN000006480000006480FN00000000020221001000006480NNMD0020220811161349    2N0N  00000324000001296000001853432Q8    EMEMI   005600390040
BI00B32Q8    EU22104DMW     202209077B74-1849-70             COVER                    CCN000025000000025000FN00000000020221001000025000NNMD0020220811142757    1F0F  00002500000000622500000761932Q8    EMEMI   005400370024
BI00B32Q8    EU22104DMW     202209077B96-0805-02             TERMINAL FEMALE          CCN000022500000022500FN00000000020221001000022500NNMD0020220811165142    4P0P  00002250000000558000000843232Q8    EMEMI   006400630015
BI00B32Q8    EU22104DMW     202209147C89-6868-30             SEALED ASSY FEMALE       CCN000012600000012600FN00000000020221001000012600NNMD0020220811142819    4N0N  00000252000000839200001119232Q8    EMEMI   005500360039
BI00B32Q8    EU22104DMW     202209147298-4094-10             HOUSING FEMALE ASS'Y     CCN000003380000003380FN00000000020221001000003380NNMD0020220811142841    4N0N  00000338000001097400001358732Q8    EMEMI   005400370024
BI00B32Q8    EU22104TMW     202208177283-1289-30             CONNECTOR HOUSING        CCN000001200000001200FN00000000020221001000001200NNMD0020220811142944    1N0N  00000060000000675600000820632Q8    EMEMI   005400370024
BI00B32Q8    #EU22104TMW    202208177183-1616-30             CONNECTOR HOUSING        CCN000002400000002400FN00000000020221001000002400NNMD0020220811161411    2F0F  00000240000000557500000837132Q8    EMEMI   005500360039
BI00B32Q8    EU2209K MW     202208317283-5843                CONNECTOR                CCN000001500000001500FN00000000020220901000001500NNED0720220811121542    1N0N  00000150000000889000001132032Q8    EMEMI   005600390040
BI00B32Q8    #EU2209L MW    202208317123-6347                CONNECTOR HOUSING        CCN000003200000003200FN00000000020220901000003200NNED0720220811121542    2F0F  00000160000000647000000904832Q8    EMEMI   005500360039
BI00B32Q8    #EU2209L MW    202208317283-1065                CONNECTOR                CCN000002500000002500FN00000000020220901000002500NNED0720220811121542    2N0N  00000250000001152500001310432Q8    EMEMI   005500360039
BI00B32Q8    #EU2209RTMW    202208317183-2412-40             HOUSING                  CCN000003200000003200FN00000000020220901000003200NNED0720220811121542    2F0F  00000160000001062100001221232Q8    EMEMI   005500360039
BI00B32Q8    EU2210B MW     202209077114-4020                TERMINAL                 CCN000042000000042000FN00000000020221001000042000NNE   20220811121542    4P0P  00002100000000875700001169332Q8    EMEMI   006400630015
BI00B32Q8    EU2210B MW     202209077283-5843                CONNECTOR                CCN000001500000001500FN00000000020221001000001500NNE   20220811121542    1N0N  00000150000000889000001132032Q8    EMEMI   005600390040
BI00B32Q8    EU2210B MW     202209077283-5845                CONNECTOR HOUSING        CCN000006000000006000FN00000000020221001000006000NNE   20220811121542    1N0N  00000600000000444000000606332Q8    EMEMI   005400370024
BI00B32Q8    EU2210BNMW     202209077298-1866-40             HOUSING FEMALE ASS'Y     CCN000002400000002400FN00000000020221001000002400NNE   20220811121542    4N0N  00000240000001003000001217932Q8    EMEMI   005500360039
BI00B32Q8    EU2210C MW     202209147114-4020                TERMINAL                 CCN000042000000042000FN00000000020221001000042000NNE   20220811121542    4P0P  00002100000000875700001169332Q8    EMEMI   006400630015
BI00B32Q8    EU2210C MW     202209147283-5843                CONNECTOR                CCN000001500000001500FN00000000020221001000001500NNE   20220811121542    1N0N  00000150000000889000001132032Q8    EMEMI   005600390040
BI00B32Q8    #EU2210C MW    202209147158-3121-80             WIRE SEAL                CCN000020000000020000FN00000000020221001000020000NNE   20220811121542    2C0C  00002000000000118000000187332Q8    EMEMI   002700430014
BI00B32Q8    EU2210DTMW     202208317116-4486-02             TERMINAL                 CCN000028000000028000FN00000000020221001000028000NNE   20220811121542    4P0P  00002800000000666400000995132Q8    EMEMI   006400630017
BI00B32Q8    EU2210FTMW     202209147283-1289-30             CONNECTOR HOUSING        CCN000000600000000600FN00000000020221001000000600NNE   20220811121542    1N0N  00000060000000675600000820632Q8    EMEMI   005400370024
BI00B32Q8    EU2210ETMW     202209077283-1289-30             CONNECTOR HOUSING        CCN000000600000000600FN00000000020221001000000600NNE   20220811121542    1N0N  00000060000000675600000820632Q8    EMEMI   005400370024
BI00B32Q8    EU2210ETMW     202209077288-3337-30             HOUSING MALE             CCN000001500000001500FN00000000020221001000001500NNE   20220811121542    4N0N  00000150000000867000001012032Q8    EMEMI   005400370024
BI00B32R7    R-TAP220341    202209017C98-1145-4W             SQUIB SUB ASS'Y          CCN000010000000010000FN00000000020220901000010000NNE   20220811121542    4N0N  00001000000000787900000944932R7    IVYCIC  005400370024
BI00B32R7    R-TAP220340    202210207298-1186-40             SQUIB SUB ASS'Y          CCN000180000000180000FN00000000020220901000180000NNED0420220811164438    4N0N  00001000000000650000000774532R7    IVYCIC  005400370024
BI00B32R7    R-TAP220339    202210277298-1186-40             SQUIB SUB ASS'Y          CCN000090000000090000FN00000000020221101000090000NNED0420220811164452    4N0N  00001000000000650000000774532R7    IVYCIC  005400370024
BI00B32U9    TPA234         202208137289-6868-30             SEALED ASSY FEMALE       CCN000012600000012600FN00000000020220801000012600NNM00020220811154850U9  4N0N  00000252000000839200001119232U9    YNYNA-E 005500360039
BI00B32U9    TPA234         202208137298-1187-30             SHUNT RING ASSEMBLY      CCN000010000000010000FN00000000020220801000010000NNM00020220811121542U9  4N0N  00001000000000647000000769532U9    YNYNA-E 005400370024
BI00B32U9    TP0406S        202208137298-1187-30             SHUNT RING ASSEMBLY      CCN000010000000010000FN00000000020220801000010000NNE00020220811121542U9  4N0N  00001000000000647000000769532U9    YNYNA-E 005400370024
BI00B32U9    TP0406S        202208137298-1186-70             SQUIB SUB ASS'Y          CCN000030000000030000FN00000000020220801000030000NNE00020220811121542U9  4N0N  00001000000000650000000774532U9    YNYNA-E 005400370024
BI00B32U9    TPA235         202208137298-1186-70             SQUIB SUB ASS'Y          CCN000020000000010000FN00000000020220901000010000NNM00020220811121542U9  4N0N  00001000000000650000000774532U9    YNYNA-E 005400370024
BI00B32U9    TPA238         202208257289-6868-30             SEALED ASSY FEMALE       CCN000022680000022680FN00000000020221001000022680NNMD0020220811130759U9  4N0N  00000252000000839200001119232U9    YNYNA-E 005500360039
BI00B32U9    TPA238         202208257298-1186-40             SQUIB SUB ASS'Y          CCN000020000000020000FN00000000020221001000020000NNMD0020220811130812U9  4N0N  00001000000000650000000774532U9    YNYNA-E 005400370024
BI00B32U9    TPA238         202208257298-1186-70             SQUIB SUB ASS'Y          CCN000010000000010000FN00000000020221001000010000NNMD0020220811130828U9  4N0N  00001000000000650000000774532U9    YNYNA-E 005400370024
BI00B32U9    TPA238         202208257298-1187-30             SHUNT RING ASSEMBLY      CCN000010000000010000FN00000000020221001000010000NNMD0020220811130828U9  4N0N  00001000000000647000000769532U9    YNYNA-E 005400370024
BI00A32U9    TPA235         202208117298-1186-70             SQUIB SUB ASS'Y          CCN000010000000010000FY00001000020220901000000000NNM00020220811154939U9  4N0N  00001000000000650000000774532U9    YNYNA-E 005400370024
BI00B32W2    HN2209ANMW     202208237283-7023                CONNECTOR                CCN000002500000002500FN00000000020220901000002500NNED0720220811153758    4N0N  00000250000001360000001510032W2    HNHNY   005500360039
BI00B32W2    @HN2209ANMW    202208237283-3030                HOUSING FEMALE ASS'Y     CCN000001600000001600FN00000000020220901000001600NNED0720220811153754    3N0N  00000160000001056300001275032W2    HNHNY   005500360039
BI00B32W4    #4500198331    202209277157-7812                SEAL RUBBER              CCN000020000000020000FN00000000020220801000020000NNED0420220811121542W42 2C0C  00001000000000137000000202032W42   HJYHK   002700430014
BI00A32W4    4500198372     202210107116-4112-02             TERMINAL                 CCN000054000000054000FN00000000020221001000054000NNE   20220811121542W4O24P0P  00000600000000450000000738232W4O2  HJYHK-J 006400630015
BI00A32W4    4500198372     202210107116-4231-02             TERMINAL                 CCN000026000000026000FN00000000020221001000026000NNE   20220811121542W4O24P0P  00002600000000683800001012532W4O2  HJYHK-J 006400630017
BI00A32W4    4500198372     202210107158-3169-40             SEALING PLUG             CCN000080000000080000FN00000000020221001000080000NNE   20220811121542W4O21C0C  00004000000000156000000204132W4O2  HJYHK-J 004300260014
BI00B32W4    4500198389     202210067114-4112-02             TERMINAL                 CCN000081000000081000FN00000000020221001000081000NNE   20220811121542W4664P0P  00000900000000598500000927132W466  HJYHK   006400630017
BI00B32W4    4500198389     202210067116-4100-02             TERMINAL                 CCN000705000000705000FN00000000020221001000705000NNE   20220811121542W4664P0P  00001500000000696000000990232W466  HJYHK   006400630015
BI00B32W4    4500198389     202210067116-4111-02             TERMINAL                 CCN000007500000007500FN00000000020221001000007500NNE   20220811121542W4664P0P  00000750000000529500000817732W466  HJYHK   006400630015
BI00B32W4    4500198389     202210067116-4112-02             TERMINAL                 CCN000096000000096000FN00000000020221001000096000NNE   20220811121542W4664P0P  00000600000000450000000738232W466  HJYHK   006400630015
BI00B32W4    4500198389     202210067116-4102-02             TERMINAL                 CCN000120000000120000FN00000000020221001000120000NNE   20220811121542W4664P0P  00001200000000553200000841432W466  HJYHK   006400630015
BI00B32W4    4500198389     202210067116-4025                TERMINAL                 CCN000016000000016000FN00000000020221001000016000NNE   20220811121542W4664P0P  00001600000000644800000975132W466  HJYHK   006400630017
BI00B32W4    4500198389     202210067114-4100-02             TERMINAL                 CCN000198000000198000FN00000000020221001000198000NNE   20220811121542W4664P0P  00001800000000748800001077432W466  HJYHK   006400630017
BI00B32W4    4500198389     202210067116-4026                TERMINAL                 CCN000016000000016000FN00000000020221001000016000NNE   20220811121542W4664P0P  00001600000000664000000994332W466  HJYHK   006400630017
BI00B32W4    4500198389     202210067114-4111-02             TERMINAL                 CCN000012000000012000FN00000000020221001000012000NNE   20220811121542W4664P0P  00001200000000758400001087032W466  HJYHK   006400630017
BI00B32W4    4500198389     202210067283-5548-30             CONNECTOR                CCN000003000000003000FN00000000020221001000003000NNE   20220811121542W4664N0N  00000150000001109000001302032W466  HJYHK   005600390040
BI00B32W4    4500198389     202210067116-4101-02             TERMINAL                 CCN000012000000012000FN00000000020221001000012000NNE   20220811121542W4664P0P  00001200000000582000000876232W466  HJYHK   006400630015
BI00B32W4    4500198389     202210067114-4101-02             TERMINAL                 CCN000060000000060000FN00000000020221001000060000NNE   20220811121542W4664P0P  00001500000000675000001003632W466  HJYHK   006400630017
BI00B32W4    4500198389     202210067116-4104-02             TERMINAL                 CCN000132000000132000FN00000000020221001000132000NNE   20220811121542W4664P0P  00001200000000580800000972432W466  HJYHK   006400630015
BI00B32W4    4500198389     202210067114-4110-02             TERMINAL                 CCN000075000000075000FN00000000020221001000075000NNE   20220811121542W4664P0P  00001500000000901500001230132W466  HJYHK   006400630017
BI00B32W4    4500198389     202210067116-4110-02             TERMINAL                 CCN000045000000045000FN00000000020221001000045000NNE   20220811121542W4664P0P  00000900000000594000000882232W466  HJYHK   006400630015
BI00B32W4    4500198389     202210067116-4103-02             TERMINAL                 CCN000012000000012000FN00000000020221001000012000NNE   20220811121542W4664P0P  00001200000000571200000859432W466  HJYHK   006400630015
BI00B32W4    #4500198389    202210067282-4190-30             CONNECTOR                CCN000006480000006480FN00000000020221001000006480NNE   20220811121542W4662N0N  00000024000000801000001071332W466  HJYHK   005600390040
BI00B32W4    #4500198389    202210067283-4190-30             CONNECTOR                CCN000004560000004560FN00000000020221001000004560NNE   20220811121542W4662N0N  00000024000000846000001115532W466  HJYHK   005600390040
BI00B32W4    #4500198389    202210067158-3003-90             RUBBER STOPPER           CCN000020000000020000FN00000000020221001000020000NNE   20220811121542W4662C0C  00002000000000250000000306032W466  HJYHK   002700430014
BI00B32W4    #4500198389    202210067158-3004-40             RUBBER STOPPER           CCN000040000000040000FN00000000020221001000040000NNE   20220811121542W4662C0C  00002000000000234000000306332W466  HJYHK   002700430014
BI00B32W4    4500198392     202210067116-4100-02             TERMINAL                 CCN000075000000075000FN00000000020221001000075000NNE   20220811121542W4464P0P  00001500000000696000000990232W446  HJYHK   006400630015
BI00B32W4    4500198392     202210067116-4111-02             TERMINAL                 CCN000007500000007500FN00000000020221001000007500NNE   20220811121542W4464P0P  00000750000000529500000817732W446  HJYHK   006400630015
BI00B32W4    4500198392     202210067116-4102-02             TERMINAL                 CCN000072000000072000FN00000000020221001000072000NNE   20220811121542W4464P0P  00001200000000553200000841432W446  HJYHK   006400630015
BI00B32W4    4500198392     202210067114-4100-02             TERMINAL                 CCN000018000000018000FN00000000020221001000018000NNE   20220811121542W4464P0P  00001800000000748800001077432W446  HJYHK   006400630017
BI00B32W4    4500198392     202210067283-6448-40             CONNECTOR                CCN000003000000003000FN00000000020221001000003000NNE   20220811121542W4464N0N  00000150000001087000001329032W446  HJYHK   005600390040
BI00B32W4    4500198392     202210067114-1470                TERMINAL                 CCN000016500000016500FN00000000020221001000016500NNE   20220811121542W4464P0P  00001650000000544500000838732W446  HJYHK   006400630015
BI00B32W4    4500198392     202210067158-3166-60             WIRE SEAL                CCN000160000000160000FN00000000020221001000160000NNE   20220811121542W4461C0C  00004000000000104000000152432W446  HJYHK   002700430014
BI00B32W4    4500198392     202210067283-5548-30             CONNECTOR                CCN000003000000003000FN00000000020221001000003000NNE   20220811121542W4464N0N  00000150000001109000001302032W446  HJYHK   005600390040
BI00B32W4    4500198392     202210067116-4101-02             TERMINAL                 CCN000048000000048000FN00000000020221001000048000NNE   20220811121542W4464P0P  00001200000000582000000876232W446  HJYHK   006400630015
BI00B32W4    4500198392     202210067116-4104-02             TERMINAL                 CCN000024000000024000FN00000000020221001000024000NNE   20220811121542W4464P0P  00001200000000580800000972432W446  HJYHK   006400630015
BI00B32W4    4500198392     202210067114-4110-02             TERMINAL                 CCN000045000000045000FN00000000020221001000045000NNE   20220811121542W4464P0P  00001500000000901500001230132W446  HJYHK   006400630017
BI00B32W4    4500198392     202210067116-4110-02             TERMINAL                 CCN000009000000009000FN00000000020221001000009000NNE   20220811121542W4464P0P  00000900000000594000000882232W446  HJYHK   006400630015
BI00B32W4    4500198392     202210067116-4103-02             TERMINAL                 CCN000024000000024000FN00000000020221001000024000NNE   20220811121542W4464P0P  00001200000000571200000859432W446  HJYHK   006400630015
BI00B32W4    #4500198392    202210067282-3243-40             CONNECTOR                CCN000000800000000800FN00000000020221001000000800NNE   20220811121542W4462N0N  00000080000001006000001282332W446  HJYHK   005600390040
BI00B32W4    #4500198392    202210067283-8123-40             CONNECTOR HOUSING        CCN000004000000004000FN00000000020221001000004000NNE   20220811121542W4462N0N  00000400000000380000000530032W446  HJYHK   005600390023
BI00B32W4    #4500198392    202210067047-5344                RETAINER                 CCN000020000000020000FN00000000020221001000020000NNE   20220811121542W4462F0F  00001000000000870000001016032W446  HJYHK   005600390023
BI00B32W4    4500198395     202210207114-1475                TERMINAL                 CCN000013500000013500FN00000000020221001000013500NNE   20220811121542W4464P0P  00001350000000480600000774232W446  HJYHK   006400630015
BI00B32W4    4500198400     202302027283-5574-10             CONNECTOR                CCN000000800000000800FN00000000020230201000000800NNE   20220811121542W4464N0N  00000080000001235000001435232W446  HJYHK   005500360039
BI00B32W4    4500198409     202210067116-4100-02             TERMINAL                 CCN000075000000075000FN00000000020221001000075000NNE   20220811121542W4654P0P  00001500000000696000000990232W465  HJYHK   006400630015
BI00B32W4    4500198409     202210067116-4112-02             TERMINAL                 CCN000042000000042000FN00000000020221001000042000NNE   20220811121542W4654P0P  00000600000000450000000738232W465  HJYHK   006400630015
BI00B32W4    4500198409     202210067116-4102-02             TERMINAL                 CCN000192000000192000FN00000000020221001000192000NNE   20220811121542W4654P0P  00001200000000553200000841432W465  HJYHK   006400630015
BI00B32W4    4500198409     202210067116-4025                TERMINAL                 CCN000016000000016000FN00000000020221001000016000NNE   20220811121542W4654P0P  00001600000000644800000975132W465  HJYHK   006400630017
BI00B32W4    4500198409     202210067158-3169-40             SEALING PLUG             CCN000120000000120000FN00000000020221001000120000NNE   20220811121542W4651C0C  00004000000000156000000204132W465  HJYHK   004300260014
BI00B32W4    4500198409     202210067114-4110-02             TERMINAL                 CCN000015000000015000FN00000000020221001000015000NNE   20220811121542W4654P0P  00001500000000901500001230132W465  HJYHK   006400630017
BI00B32W4    4500198409     202210067116-4110-02             TERMINAL                 CCN000072000000072000FN00000000020221001000072000NNE   20220811121542W4654P0P  00000900000000594000000882232W465  HJYHK   006400630015
BI00B32W4    4500198409     202210067116-4103-02             TERMINAL                 CCN000120000000120000FN00000000020221001000120000NNE   20220811121542W4654P0P  00001200000000571200000859432W465  HJYHK   006400630015
BI00B32W4    #4500198410    202210277289-4104-40             HOUSING FEMALE ASS'Y     CCN000005500000005500FN00000000020221001000005500NNE   20220811121542W4652NON  00000050000000606900000821132W465  HJYHK   005400370024
BI00B32W4    4500198425     202209297158-3167-80             WIRE SEAL                CCN000080000000080000FN00000000020220901000080000NNE   20220811121542W4A21C0C  00002000000000048000000109032W4A2  HJYHK-J 002700430014
BI00B32W4    4500198425     202209297116-4111-02             TERMINAL                 CCN000007500000007500FN00000000020220901000007500NNE   20220811121542W4A24P0P  00000750000000529500000817732W4A2  HJYHK-J 006400630015
BI00B32W4    #4500198425    202209297147-3642-30             CLIP                     CCN000030000000030000FN00000000020220901000030000NNE   20220811121542W4A22F0F  00000300000000542000000721332W4A2  HJYHK-J 005600390040
BI00B32W4    #4500198425    202209297283-4190-30             CONNECTOR                CCN000003120000003120FN00000000020220901000003120NNE   20220811121542W4A22N0N  00000024000000846000001115532W4A2  HJYHK-J 005600390040
BI00B32W4    4500198426     202210067116-4026                TERMINAL                 CCN000016000000016000FN00000000020221001000016000NNE   20220811121542W4A24P0P  00001600000000664000000994332W4A2  HJYHK-J 006400630017
BI00B32W4    #4500198426    202210067283-8226-30             CONNECTOR                CCN000006000000006000FN00000000020221001000006000NNE   20220811121542W4A22N0N  00000200000000820000001008032W4A2  HJYHK-J 005400370024
BI00B32W4    #4500198426    202210067157-3646                RUBBER STOPPER           CCN000040000000040000FN00000000020221001000040000NNE   20220811121542W4A22H0H  00002000000000184000000255232W4A2  HJYHK-J 002700430014
BI00B32W4    4500198427     202210067158-3169-40             SEALING PLUG             CCN000040000000040000FN00000000020221001000040000NNE   20220811121542W4A21C0C  00004000000000156000000204132W4A2  HJYHK-J 004300260014
BI00B32W4    4500198427     202210067116-4102-02             TERMINAL                 CCN000012000000012000FN00000000020221001000012000NNE   20220811121542W4A24P0P  00001200000000553200000841432W4A2  HJYHK-J 006400630015
BI00B32W4    4500198427     202210067116-4031                TERMINAL                 CCN000007500000007500FN00000000020221001000007500NNE   20220811121542W4A24P0P  00000750000000619500000904732W4A2  HJYHK-J 006400630015
BI00B32W4    4500198427     202210067116-4112-02             TERMINAL                 CCN000006000000006000FN00000000020221001000006000NNE   20220811121542W4A24P0P  00000600000000450000000738232W4A2  HJYHK-J 006400630015
BI00B32W4    #4500198427    202209087183-7725-40             HOUSING                  CCN000006000000006000FN00000000020221001000006000NNE   20220811121542W4A22F0F  00000600000000840000001040032W4A2  HJYHK-J 005600390040
BI00B32W4    4500198431     202209297116-1686                TERMINAL                 CCN000021000000021000FN00000000020221001000021000NNE   20220811121542W4244P0P  00002100000000861000001045632W424  HJYHK   005100280028
BI00B32W4    4500198431     202209297116-1685                TERMINAL                 CCN000024000000024000FN00000000020221001000024000NNE   20220811121542W4244P0P  00002400000000892800001067232W424  HJYHK   005100280028
BI00B32W4    4500198432     202210277116-1685                TERMINAL                 CCN000024000000024000FN00000000020221101000024000NNE   20220811121542W4244P0P  00002400000000892800001067232W424  HJYHK   005100280028
BI00B32W4    4500198437     202210067116-4031                TERMINAL                 CCN000007500000007500FN00000000020221001000007500NNE   20220811121542W4174P0P  00000750000000619500000904732W417  HJYHK   006400630015
BI00B32W4    4500198437     202210067158-3166-60             WIRE SEAL                CCN000080000000080000FN00000000020221001000080000NNE   20220811121542W4171C0C  00004000000000104000000152432W417  HJYHK   002700430014
BI00B32W4    4500198438     202210067283-5843                CONNECTOR                CCN000001500000001500FN00000000020221001000001500NNE   20220811121542W4171N0N  00000150000000889000001132032W417  HJYHK   005600390040
BI00B32W4    #4500198438    202210067282-3020                CONNECTOR                CCN000002000000002000FN00000000020221001000002000NNE   20220811121542W4172N0N  00000100000000984000001145432W417  HJYHK   005500360039
BI00B32W4    #4500198439    202210207147-3642-30             CLIP                     CCN000042000000042000FN00000000020221001000042000NNE   20220811121542W4172F0F  00000300000000542000000721332W417  HJYHK   005600390040
BI00B32W4    4500198444     202209297116-4104-02             TERMINAL                 CCN000024000000024000FN00000000020220901000024000NNE   20220811121542W4374P0P  00001200000000580800000972432W437  HJYHK   006400630015
BI00B32W4    4500198445     202210067116-4121-02             TERMINAL                 CCN000009000000009000FN00000000020221001000009000NNE   20220811121542W4374P0P  00000450000000618800000912432W437  HJYHK   006400630015
BI00A32W4    4500198450     202210067158-3167-80             WIRE SEAL                CCN000020000000020000FN00000000020221001000020000NNE   20220811121542W4141C0C  00002000000000048000000109032W414  HJYHK   002700430014
BI00B32W4    @4500198456    202210067286-1238-30             CONNECTOR                CCN000001200000001200FN00000000020221001000001200NNE   20220811121542W4N23N0N  00000120000001224000001466032W4N2  HJYHK-J 005500360039
BI00B32W4    4500198460     202302027283-5574-10             CONNECTOR                CCN000001600000001600FN00000000020230201000001600NNE   20220811121542W4N24N0N  00000080000001235000001435232W4N2  HJYHK-J 005500360039
BI00B32W4    4500198461     202209297116-4111-02             TERMINAL                 CCN000007500000007500FN00000000020220901000007500NNE   20220811121542W4N24P0P  00000750000000529500000817732W4N2  HJYHK-J 006400630015
BI00B32W4    4500198461     202209297116-4112-02             TERMINAL                 CCN000006000000006000FN00000000020220901000006000NNE   20220811121542W4N24P0P  00000600000000450000000738232W4N2  HJYHK-J 006400630015
BI00B32W4    4500198461     202209297158-3165-90             WIRE SEAL                CCN000040000000040000FN00000000020220901000040000NNE   20220811121542W4N21C0C  00004000000000124000000172432W4N2  HJYHK-J 004300270014
BI00B32W4    4500198461     202209297158-3167-80             WIRE SEAL                CCN000020000000020000FN00000000020220901000020000NNE   20220811121542W4N21C0C  00002000000000048000000109032W4N2  HJYHK-J 002700430014
BI00B32W4    4500198461     202209297116-4101-02             TERMINAL                 CCN000024000000024000FN00000000020220901000024000NNE   20220811121542W4N24P0P  00001200000000582000000876232W4N2  HJYHK-J 006400630015
BI00B32W4    4500198461     202209297116-4104-02             TERMINAL                 CCN000012000000012000FN00000000020220901000012000NNE   20220811121542W4N24P0P  00001200000000580800000972432W4N2  HJYHK-J 006400630015
BI00B32W4    4500198461     202209297114-4101-02             TERMINAL                 CCN000015000000015000FN00000000020220901000015000NNE   20220811121542W4N24P0P  00001500000000675000001003632W4N2  HJYHK-J 006400630017
BI00B32W4    4500198465     202209297158-3166-60             WIRE SEAL                CCN001520000001520000FN00000000020220901001520000NNE   20220811121542W4B71C0C  00004000000000104000000152432W4B7  HJYHK-J 002700430014
BI00B32W4    4500198465     202209297158-3169-40             SEALING PLUG             CCN001520000001520000FN00000000020220901001520000NNE   20220811121542W4B71C0C  00004000000000156000000204132W4B7  HJYHK-J 004300260014
BI00B32W4    4500198465     202209297158-3167-80             WIRE SEAL                CCN001500000001500000FN00000000020220901001500000NNE   20220811121542W4B71C0C  00002000000000048000000109032W4B7  HJYHK-J 002700430014
BI00B32W4    4500198465     202209297158-3168-80             SEALED                   CCN001500000001500000FN00000000020220901001500000NNE   20220811121542W4B71C0C  00002000000000044000000092132W4B7  HJYHK-J 004300260014
BI00B32W9    4500198282     202211087289-6868-30             SEALED ASSY FEMALE       CCN000511560000063000FN00000000020220901000063000NNED0420220811162834W9  4N0N  00000252000000839200001119232W9    HKYHK   005500360039
BI00B32W9    4500198362     202210047114-4100-02             TERMINAL                 CCN000018000000018000FN00000000020221001000018000NNE   20220811121542W9  4P0P  00001800000000748800001077432W9    HKYHK   006400630017
BI00B32W9    4500198282     202211157289-6868-30             SEALED ASSY FEMALE       CCN000063000000063000FN00000000020220901000063000NNED0420220811162851W9  4N0N  00000252000000839200001119232W9    HKYHK   005500360039
BI00B32W9    4500198282     202211227289-6868-30             SEALED ASSY FEMALE       CCN000063000000063000FN00000000020220901000063000NNED0420220811162905W9  4N0N  00000252000000839200001119232W9    HKYHK   005500360039
BI00B32W9    4500198282     202211297289-6868-30             SEALED ASSY FEMALE       CCN000063000000063000FN00000000020220901000063000NNED0420220811162926W9  4N0N  00000252000000839200001119232W9    HKYHK   005500360039
BI00B32W9    4500198282     202212067289-6868-30             SEALED ASSY FEMALE       CCN000063000000063000FN00000000020220901000063000NNED0420220811162940W9  4N0N  00000252000000839200001119232W9    HKYHK   005500360039
BI00B32W9    4500198282     202212137289-6868-30             SEALED ASSY FEMALE       CCN000063000000063000FN00000000020220901000063000NNED0420220811162955W9  4N0N  00000252000000839200001119232W9    HKYHK   005500360039
BI00B32W9    4500198282     202212207289-6868-30             SEALED ASSY FEMALE       CCN000063000000063000FN00000000020220901000063000NNED0420220811163018W9  4N0N  00000252000000839200001119232W9    HKYHK   005500360039
BI00B32W9    4500198282     202212277289-6868-30             SEALED ASSY FEMALE       CCN000070560000070560FN00000000020220901000070560NNED0420220811163025W9  4N0N  00000252000000839200001119232W9    HKYHK   005500360039
BI00B32X5    TIB2017        202208197289-3342                HOUSING FEMALE ASS'Y     CCN000026400000026400FN00000000020220601000026400NNM00020220811155025X5  1N0N  00000240000000686400000901432X5    EPYNA-E 005500360039
BI00B32X5    TIB2018        202208197289-3342                HOUSING FEMALE ASS'Y     CCN000024000000024000FN00000000020220601000024000NNM00020220811155046X5  1N0N  00000240000000686400000901432X5    EPYNA-E 005500360039
BI00B32Y2    TAU1241        202209017289-3342-30             HOUSING FEMALE ASS'Y     CCN000050400000026400FN00000000020230101000026400NNMQ0020220811121542    1N0N  00000240000000686400000901432Y2    YUYUY   005500360039
BI00A32Y2    TAU1241        202208167289-3342-30             HOUSING FEMALE ASS'Y     CCN000024000000024000FN00000000020230101000024000NNMM0020220811121542    1N0N  00000240000000686400000901432Y2    YUYUY   005500360039
BI00B32Y4    ITA3212EM      202209087288-9556-30             SEALED ASSY MALE         CCN000005040000005040FN00000000020221201000005040NNED0720220811121542    4N0N  00000072000000537900000786332Y4    BIYAB-I 005500360039
