BI00B32DE    TT2094         20220818180D0204030              AVSSH 0.75F B            CCN000001000000001000FN00000000020220901000001000NNM27 20220811082424    1W    00000100000000934000000000032DE    TVYEV-TV000000000000VT328076
BI00B32DE    @TT2103        20220915181F21029ZZ              AVSSHCS-S 1.25FX2 B/Y    CCN000001200000001200FN00000000020221001000001200NNM24 20220811085141    1W    00000020000004267300000000032DE    TVYEV-TV000000000000VT129021
BI00B32M1    @TV2101        20220915181B32116S1              AVSSCS 0.3FX2 DGY        CCN000002100000000000FY00000000020221001000000000NNM10 20220811152320    1W    00000035000002276000000000032M1    VNYEV   000000000000VE528024
BI00B32M1    @TV2102        20220922181B32116S1              AVSSCS 0.3FX2 DGY        CCN000001400000000000FY00000000020221001000000000NNM10 20220811152328    1W    00000035000002276000000000032M1    VNYEV   000000000000VE129045
BI00B32M1    @TV2103        20220929181B32116S1              AVSSCS 0.3FX2 DGY        CCN000001400000000000FY00000000020221001000000000NNM10 20220811152337    1W    00000035000002276000000000032M1    VNYEV   000000000000VE229046
BI00B32M1    @TV2104        20221006181B32116S1              AVSSCS 0.3FX2 DGY        CCN000001050000000000FY00000000020221001000000000NNM10 20220811152308    1W    00000035000002276000000000032M1    VNYEV   000000000000VE329044
BI00B32M1    @TV2102        20220922181B32117S1              AVSSCS 0.3FX3 DGY        CCN000001000000000000FY00000000020221001000000000NNM10 20220811152355    1W    00000025000003023200000000032M1    VNYEV   000000000000VE129046
BI00B32M1    @TV2103        20220929181B32117S1              AVSSCS 0.3FX3 DGY        CCN000001000000000000FY00000000020221001000000000NNM10 20220811152348    1W    00000025000003023200000000032M1    VNYEV   000000000000VE229047
BI00B32M1    @TV2104        20221006181B32117S1              AVSSCS 0.3FX3 DGY        CCN000001000000000000FY00000000020221001000000000NNM10 20220811152403    1W    00000025000003023200000000032M1    VNYEV   000000000000VE329045
BI00A32M3    SM22093 MW     2022081818007703940              AVSS 0.5F W              CCN000001500000001500FN00000000020220901000001500NNM20 20220811151459    1W    00000150000000674000000000032M3    SASAMI  000000000000QM228012
BI00B32Q8    EW22104 MW     202208311801R704141              CIVUS 1.25 GY            CCN000010000000010000FN00000000020221001000010000NNM22 20220811145026    1W    00000100000001228000000000032Q8    EMEMI   000000000000MI528062
BI00B32Q8    @EW22104TMW    20220817181E50028ZZ              AVSSCS-S 0.5FX3 DGY      CCN000006500000006500FN00000000020221001000006500NNM20 20220811144959    1W    00000025000003265000000000032Q8    EMEMI   000000000000MT528007
BI00B32Q8    EW2210A MW     20220907180D0203960              AVSSH 0.5F G             CCN000004500000000000FY00000000020221001000000000NNE10 20220811154625    1W    00000150000000689000000000032Q8    EMEMI   000000000000MO428001
BI00B32Q8    @EW2210ANMW    20220907181E48025ZZ              CAVSAS-S 0.5X2 GY/G      CCN000000300000000000FY00000000020221001000000000NNE10 20220811154450    1W    00000030000002561000000000032Q8    EMEMI   000000000000MK428001
BI00B32Q8    EW2210B MW     202209141801R70415U              CIVUS 1.25 BE            CCN000001000000000000FY00000000020221001000000000NNE10 20220811154636    1W    00000100000001228000000000032Q8    EMEMI   000000000000MS528001
BI00A32W4    4500197486     2022081518018404061              CAVS 0.85 LG             CCN000003000000001000FN00000000020220801000001000NNE21 20220811162223W41 1W    00000100000000965000000000032W41   HJYHK-J 000000000000ON128004
