AE00TI102210010101/10/202200000001800000000000000008262KGM  00000013396KGM  7116-3153-02             TERMINAL FEMALE          7116315302               0         0         0         0    0    0    00048600000002700000000015000072900000
AE00TI102210010101/10/202200000000400000000000000000741KGM  00000000934KGM  7137-3001-30             COVER PACKING            7137300130               0         0         0         0    0    0    00000200000000050000000340000006800000
AE00TI102210010101/10/202200000001100000000000000001876KGM  00000002408KGM  7137-3047-30             UNIT PACKING             7137304730               0         0         0         0    0    0    00001100000000100000000189000020790000
AE00TI102210010101/10/202200000005300000000000000017522KGM  00000020458KGM  7158-3006-90             RUBBER STOPPER           7158300690               0         0         0         0    0    0    00106000000002000000000016000169600000
AE00TI102210010101/10/202200000002900000000000000009802KGM  00000011200KGM  7158-3009-60             RUBBER STOPPER           7158300960               0         0         0         0    0    0    00058000000002000000000012000069600000
AE00TI102210010101/10/202200000000600000000000000002805KGM  00000003144KGM  7158-3022-80             RUBBER STOPPER           7158302280               0         0         0         0    0    0    00003000000000500000000070000021000000
AE00TI102210010101/10/202200000000900000000000000001116KGM  00000001552KGM  7158-3165-90             WIRE SEAL                7158316590               0         0         0         0    0    0    00036000000004000000000006000021600000
AE00TI102210010101/10/202200000002000000000000000002080KGM  00000003048KGM  7158-3166-60             WIRE SEAL                7158316660               0         0         0         0    0    0    00080000000004000000000004000032000000
AE00TI102210010101/10/202200000005400000000000000002592KGM  00000005886KGM  7158-3167-80             WIRE SEAL                7158316780               0         0         0         0    0    0    00108000000002000000000005000054000000
AE00TI102210010101/10/202200000001200000000000000000528KGM  00000001105KGM  7158-3168-80             SEALED                   7158316880               0         0         0         0    0    0    00024000000002000000000004000009600000
AE00TI102210010101/10/202200000000800000000000000001248KGM  00000001633KGM  7158-3169-40             SEALING PLUG             7158316940               0         0         0         0    0    0    00032000000004000000000006000019200000
AE00TI102210010101/10/202200000000200000000000000001245KGM  00000001524KGM  7174-1849-70             COVER                    7174184970               0         0         0         0    0    0    00005000000002500000000046000023000000
AE00TI102210010101/10/202200000000200000000000000002148KGM  00000002858KGM  7288-6598-70             HOUSING MALE ASS'Y       7288659870               0         0         0         0    0    0    00000288000000144000000911000026236800
AE00TI102210010101/10/202200000001300000000000000013042KGM  00000015659KGM  7298-1865-30             HOUSING FEMALE ASS'Y     7298186530               0         0         0         0    0    0    00003120000000240000000196000061152000
AE00TI102210010101/10/202200000001100000000000000012455KGM  00000014436KGM  7327-6654-3W             BATTERY FUSE             732766543W               0         0         0         0    0    0    00000105600000009600008263000087257280
AE00TI102210010101/10/202200000005700000000000000042294KGM  00000063954KGM  7388-2978-30             HOUSING MALE ASS'Y       7388297830               0         0         0         0    0    0    00002736000000048000001790000489744000
AE00TI102210010101/10/202200000006300000000000000083160KGM  00000098910KGM  7470-4481                J/B COMPLETE ASS'Y       74704481                 0         0         0         0    0    0    00000151200000002400000000000000000000
