BI00B32M3    SM2208AHMW     2022080418007704030              AVSS 0.75F B             CCN000011000000011000FN00000000020220801000011000NNE   20220711114524    1W    00000100000000943000000000032M3    SASAMI  000000000000QJ327001
BI00B32M3    SM2208AHMW     2022080418007704130              AVSS 1.25F B             CCN000002400000002400FN00000000020220801000002400NNE   20220711114524    1W    00000080000001389000000000032M3    SASAMI  000000000000QJ327002
BI00B32M3    @SM2208BMMW    20220804181E50011ZZ              AVSSCS-S 0.5FX2 DGY/Y    CCN000003000000003000FN00000000020220801000003000NNE   20220711114523    1W    00000030000003096000000000032M3    SASAMI  000000000000QI327001
BI00B32M3    SM2208C MW     2022080418007703930              AVSS 0.5F B              CCN000012000000012000FN00000000020220801000012000NNE   20220711114525    1W    00000150000000674000000000032M3    SASAMI  000000000000QK327003
BI00B32M3    SM2208C MW     2022080418007703941              AVSS 0.5F GY             CCN000001500000001500FN00000000020220801000001500NNE   20220711114525    1W    00000150000000674000000000032M3    SASAMI  000000000000QK327004
BI00B32M3    SM2208C MW     2022080418007703990              AVSS 0.5F L              CCN000007500000007500FN00000000020220801000007500NNE   20220711114525    1W    00000150000000674000000000032M3    SASAMI  000000000000QK327005
BI00B32M3    SM2208C MW     2022080418007703900              AVSS 0.5F P/W            CCN000003000000003000FN00000000020220801000003000NNE   20220711114525    1W    00000150000000674000000000032M3    SASAMI  000000000000QK327006
BI00B32M3    SM2208C MW     2022080418007703940              AVSS 0.5F W              CCN000001500000001500FN00000000020220801000001500NNE   20220711114525    1W    00000150000000674000000000032M3    SASAMI  000000000000QK327007
BI00B32W2    HN2208EWMW     2022080218000004560              AV 8 G                   CCN000009000000009000FN00000000020220801000009000NNE   20220711114251    1W    00000010000010466200000000032W2    HNHNY   000000000000HE327002
BI00B32W2    @HN2208EWMW    20220802181B32116Z5              AVSSCS 0.3FX2 DGY/L      CCN000002800000002800FN00000000020220801000002800NNE   20220711114250    1W    00000035000002276000000000032W2    HNHNY   000000000000HE327001
