BI00B1200    2399T52622     202207217289-6523-30             HOUSING FEMALE ASS'Y     CCN000005520000002880FN00000000020220801000002880NNMD0320220711170139    4N0N  0000002400000129050000162051200    YCYC    005500360039
BI00B1200    2399T52622     202207297298-3990-30             HOUSING FEMALE ASS'Y     CCN000005280000005280FN00000000020220801000005280NNMD0320220711162127    4NON  0000002400000120890000157391200    YCYC    005500360039
BI00A1200    H722H50056     202207147289-5979-30             HOUSING FEMALE ASS'Y     CCN000000252000000252FN00000000020220801000000252NNEM0020220711121842    1N0N  0000002520000085470000106471200    YCYC    005400370024
BI00A1200    #H722H50057    202207147173-3225-10             LIF LEVER                CCN000000800000000800FN00000000020220801000000800NNEM0020220711121842    2F0F  0000008000000059200000071201200    YCYC    005500360039
BI00B1200    2399T52317     202207117289-5979-30             HOUSING FEMALE ASS'Y     CCN000055440000000000FY00000000020220501000000000NNMD0420220711082947    1N0N  0000002520000085470000106471200    YCYC    005400370024
BI00B1200    O022I50342     202208257298-1145-4W             SQUIB SUB ASS'Y          CCN000010000000010000FN00000000020220901000010000NNE   20220711121842    4N0N  0000100000000078790000094491200    YCYC    005400370024
BI00B1200    H322J50024     202209157116-4112-02             TERMINAL                 CCN000006000000006000FN00000000020221001000006000NNE   20220711121842    4P0P  0000060000000045000000073821200    YCYC    006400630015
BI00B1200    H322J50026     202209157298-4094-10             HOUSING FEMALE ASS'Y     CCN000006760000006760FN00000000020221001000006760NNE   20220711121842    4N0N  0000033800000109740000135871200    YCYC    005400370024
BI00B1200    CE22-MN-0077   202207217189-5000                HYBRID HOUSING           CCN000006000000006000FN00000000020220801000006000NNE   20220711121842    1F0F  0000012000000083310000112471200    YCYC    005400370024
BI00B1200    #CE22-MN-0077  202207217172-1095                FEMALE SPACER            CCN000005600000005600FN00000000020220801000005600NNE   20220711132411    2H0H  0000056000000044130000054961200    YCYC    005400370024
BI00B1200    CE22-MN-0078   202208047189-5000                HYBRID HOUSING           CCN000006000000006000FN00000000020220801000006000NNE   20220711121842    1F0F  0000012000000083310000112471200    YCYC    005400370024
BI00B1200    #CE22-MN-0078  202208047172-1095                FEMALE SPACER            CCN000005600000005600FN00000000020220801000005600NNE   20220711121842    2H0H  0000056000000044130000054961200    YCYC    005400370024
BI00B1200    2399T52622     202208047289-6523-30             HOUSING FEMALE ASS'Y     CCN000002640000002640FN00000000020220801000002640NNMD0320220711170148    4N0N  0000002400000129050000162051200    YCYC    005500360039
BI00B32AF    JTB2091        202208117298-2280-30             HOUSING FEMALE ASS'Y     CCN000001920000000000FY00000000020220901000000000NNMQ0820220711112518    4N0N  00000192000001068000001216032AF    HBYHVTB 005500360039
BI00B32AF    JTB2093        202208267298-2280-30             HOUSING FEMALE ASS'Y     CCN000001920000000000FY00000000020220901000000000NNMQ0820220711112535    4N0N  00000192000001068000001216032AF    HBYHVTB 005500360039
BI00B32AF    JTB2093        202208267298-2507-30             HOUSING FEMALE ASS'Y     CCN000002400000000000FY00000000020220901000000000NNMQ0820220711112612    4N0N  00000120000000713200000914532AF    HBYHVTB 005500360039
BI00B32AF    JTB2091        202208117298-2509-30             HOUSING FEMALE ASS'Y     CCN000004800000000000FY00000000020220901000000000NNMQ0820220711112640    4N0N  00000120000000857500001062532AF    HBYHVTB 005500360039
BI00B32AF    #JTB2074       202207117287-1915                CONNECTOR ASS'Y          CCN000009600000000000FY00000000020220701000000000NNM00020220711083228    2N0N  00000240000001386000000923132AF    HBYHVTB 005500360039
BI00B32AF    JTB209A        202208117116-3154-08             TERMINAL                 CCN000027000000027000FN00000000020220901000027000NNE   20220711121842    4P0P  00002700000000475200000760432AF    HBYHVTB 006400630015
BI00B32AF    JTB209A        202208117116-4121-02             TERMINAL                 CCN000004500000004500FN00000000020220901000004500NNE   20220711121842    4P0P  00000450000000618800000912432AF    HBYHVTB 006400630015
BI00B32B1    A22039         202209027114-4032                TERMINAL                 CCN000007500000007500FN00000000020221101000007500NNM   20220711121842B1  4P0P  00000750000000735000001063632B1    AXARNE-M006400630017
BI00B32B1    A22039         202209027282-5574-10             CONNECTOR                CCN000000800000000800FN00000000020221101000000800NNM   20220711121842B1  4N0N  00000080000001235000001423032B1    AXARNE-M005600390040
BI00B32B1    #A22039        202209027282-6446-40             CONNECTOR                CCN000001500000001500FN00000000020221101000001500NNM   20220711121842B1  2N0N  00000150000001185000001368032B1    AXARNE-M005500360039
BI00B32B1    #A22039        202209027283-8226-30             CONNECTOR                CCN000006000000006000FN00000000020221101000006000NNM   20220711121842B1  2N0N  00000200000000820000001008032B1    AXARNE-M005400370024
BI00B32B6    A72039         202209027116-4037                TERMINAL                 CCN000018000000018000FN00000000020221101000018000NNM   20220711121842B6  4P0P  00000600000000600000000894232B6    AXARNE-M006400630015
BI00B32B6    A72039         202209027116-4486-02             TERMINAL                 CCN000028000000028000FN00000000020221101000028000NNM   20220711121842B6  4P0P  00002800000000666400000995132B6    AXARNE-M006400630017
BI00B32B6    A72039         202209027158-3169-40             SEALING PLUG             CCN000160000000160000FN00000000020221101000160000NNM   20220711121842B6  1C0C  00004000000000156000000204132B6    AXARNE-M004300260014
BI00B32B6    A72039         202209027288-3339-30             HOUSING MALE             CCN000003000000003000FN00000000020221101000003000NNM   20220711121842B6  4N0N  00000150000000867000001012032B6    AXARNE-M005400370024
BI00B32B6    A72039         202209027289-3342-30             HOUSING FEMALE ASS'Y     CCN000004800000004800FN00000000020221101000004800NNM   20220711121842B6  1N0N  00000240000000686400000901432B6    AXARNE-M005500360039
BI00B32B6    #A72039        202209027158-3017                RUBBER STOPPER           CCN000010000000010000FN00000000020221101000010000NNM   20220711121842B6  2C0C  00001000000000375500000435032B6    AXARNE-M002700430014
BI00B32B6    #A72039        202209027158-3015-10             RUBBER STOPPER           CCN000010000000010000FN00000000020221101000010000NNM   20220711121842B6  2C0C  00001000000000419500000474032B6    AXARNE-M002700430014
BI00B32B6    #A72039        202209027289-2915-30             HOUSING FEMALE ASS'Y     CCN000001500000001500FN00000000020221101000001500NNM   20220711121842B6  2N0N  00000150000000964500001091532B6    AXARNE-M005400370024
BI00B32B7    A82039         202209027158-3166-60             WIRE SEAL                CCN000080000000080000FN00000000020221101000080000NNM   20220711121842B7  1C0C  00004000000000104000000152432B7    AXARNE-M002700430014
BI00B32B7    A82039         202209027158-3168-80             SEALED                   CCN000060000000060000FN00000000020221101000060000NNM   20220711121842B7  1C0C  00002000000000044000000092132B7    AXARNE-M004300260014
BI00B32B7    A82039         202209027158-3169-40             SEALING PLUG             CCN000080000000080000FN00000000020221101000080000NNM   20220711121842B7  1C0C  00004000000000156000000204132B7    AXARNE-M004300260014
BI00B32B7    A82039         202209027282-6448-40             CONNECTOR                CCN000015200000015200FN00000000020221101000015200NNM   20220711121842B7  4N0N  00000080000000887000001152732B7    AXARNE-M005600390040
BI00B32CA    #PTA32101      202207087189-3033                HOUSING FEMALE           CCN000001600000001600FY00000160020221001000000000NNE00020220711114236    2F0F  00000160000001211200001431232CA    YPYPY   005500360039
BI00B32CA    #PTA32101      202207087189-3034-30             HOUSING FEMALE           CCN000004800000004800FY00000480020221001000000000NNE00020220711114236    2F0F  00000160000000972800001192832CA    YPYPY   005500360039
BI00B32CA    #PTA32101      202207087189-3036                HOUSING FEMALE           CCN000001600000001600FY00000160020221001000000000NNE00020220711114236    2F0F  00000160000000921600001141632CA    YPYPY   005500360039
BI00B32CA    #PTA32102      202207087183-2414-30             CONNECTOR HOUSING        CCN000003750000004800FY00000480020221001000000000NNE00020220711114253    2F0F  00000480000000779500001061532CA    YPYPY   005500360039
BI00B32CA    #PTA32102      202207087189-3032-30             HOUSING FEMALE           CCN000006400000006400FY00000640020221001000000000NNE00020220711114253    2F0F  00000160000000801600001021632CA    YPYPY   005500360039
BI00B32CA    #PTA32104      202207087183-2414-30             CONNECTOR HOUSING        CCN000003750000004800FY00000480020221001000000000NNE00020220711114311    2F0F  00000480000000779500001061532CA    YPYPY   005500360039
BI00B32CA    #PTA32104      202207087189-3033                HOUSING FEMALE           CCN000001600000001600FY00000160020221001000000000NNE00020220711114311    2F0F  00000160000001211200001431232CA    YPYPY   005500360039
BI00B32CA    #PTA32104      202207087189-3034-30             HOUSING FEMALE           CCN000003200000003200FY00000320020221001000000000NNE00020220711114311    2F0F  00000160000000972800001192832CA    YPYPY   005500360039
BI00B32CJ    #JQN2074       202207117287-1915                CONNECTOR ASS'Y          CCN000007200000000000FY00000000020220701000000000NNM00020220711083014    2N0N  00000240000001386000000923132CJ    QNYHVQN 005500360039
BI00B32EJ    T220708P01     202208187114-4100-02             TERMINAL                 CCN000180000000180000FN00000000020220801000180000NNE   20220711121842EJ  4P0P  00001800000000748800001077432EJ    EJYKBO  006400630017
BI00B32EJ    T220708P01     202208187116-4022                TERMINAL                 CCN000040500000040500FN00000000020220801000040500NNE   20220711121842EJ  4P0P  00001350000000618300000903532EJ    EJYKBO  006400630015
BI00B32EJ    T220708P01     202208187283-5843                CONNECTOR                CCN000060000000060000FN00000000020220801000060000NNE   20220711121842EJ  1N0N  00000150000000889000001132032EJ    EJYKBO  005600390040
BI00B32EJ    T220708P02     202208187158-3166-60             WIRE SEAL                CCN000040000000040000FN00000000020220801000040000NNE   20220711121842EJ  1C0C  00004000000000104000000152432EJ    EJYKBO  002700430014
BI00B32EJ    T220708P02     202208187116-2951-02             TERMINAL                 CCN000027000000027000FN00000000020220801000027000NNE   20220711121842EJ  4P0P  00000540000000817600001111832EJ    EJYKBO  006400630015
BI00B32EJ    T220708P02     202208187116-4022                TERMINAL                 CCN000054000000054000FN00000000020220801000054000NNE   20220711121842EJ  4P0P  00001350000000618300000903532EJ    EJYKBO  006400630015
BI00B32EJ    T220708P02     202208187116-4103-02             TERMINAL                 CCN000048000000048000FN00000000020220801000048000NNE   20220711121842EJ  4P0P  00001200000000571200000859432EJ    EJYKBO  006400630015
BI00B32EJ    T220708P02     202208187116-4104-02             TERMINAL                 CCN000012000000012000FN00000000020220801000012000NNE   20220711121842EJ  4P0P  00001200000000580800000972432EJ    EJYKBO  006400630015
BI00B32EJ    T220708P02     202208187116-4120-02             TERMINAL                 CCN000006000000006000FN00000000020220801000006000NNE   20220711121842EJ  4P0P  00000600000000780000001073632EJ    EJYKBO  006400630015
BI00B32EJ    T220708P02     202208187116-5751-02             TERMINAL                 CCN000012000000012000FN00000000020220801000012000NNE   20220711121842EJ  4P0P  00001200000000379200000664432EJ    EJYKBO  006400630015
BI00B32EJ    T220708P02     202208187158-3006-90             RUBBER STOPPER           CCN000060000000060000FN00000000020220801000060000NNE   20220711121842EJ  1C0C  00002000000000330600000386032EJ    EJYKBO  002700430014
BI00B32EJ    #T220708P02    202208187157-3821                RUBBER STOPPER           CCN000020000000020000FN00000000020220801000020000NNE   20220711121842EJ  2C0C  00002000000000176000000238032EJ    EJYKBO  002700430014
BI00B32EJ    #T220708P02    202208187158-3003-90             RUBBER STOPPER           CCN000020000000020000FN00000000020220801000020000NNE   20220711121842EJ  2C0C  00002000000000250000000306032EJ    EJYKBO  002700430014
BI00B32EJ    #T220708P02    202208187158-3120-90             CONNECTOR WIRE SEAL      CCN000020000000020000FN00000000020220801000020000NNE   20220711121842EJ  2C0C  00002000000000136000000194032EJ    EJYKBO  002700430014
BI00B32EJ    #T220708P02    202208187283-8398-40             CONNECTOR                CCN000007700000007700FN00000000020220801000007700NNE   20220711121842EJ  2N0N  00000154000001007000001171332EJ    EJYKBO  005600390023
BI00A32EJ    T220708P03     202208047116-1257-02             TERMINAL                 CCN000024000000024000FN00000000020220801000024000NNE   20220711121842EJ  4P0P  00002400000000518400000847132EJ    EJYKBO  006400630017
BI00B32EJ    T220708P04     202208187114-4231-02             TERMINAL                 CCN000036000000036000FN00000000020220801000036000NNE   20220711121842EJ  4P0P  00001800000000554400000848032EJ    EJYKBO  006400630015
BI00B32G8    PATA2091       202208247470-5945                J/B COMPLETE ASS'Y       CCN000005010000005010FN00000000020220901000005010NNMD0220220711121842    4J0J  00000001000000494000000661032G8    PSPASI  005400370024
BI00B32H2    #TIJ2074       202207117287-1915                CONNECTOR ASS'Y          CCN000002400000000000FY00000000020220701000000000NNMQ0920220711083033    2N0N  00000240000001386000000923132H2    HVYHV   005500360039
BI00B32H2    TIJ208P        202207227196-0510-02             TERMINAL                 CCN000024000000024000FN00000000020220801000024000NNE   20220711121842    4P0P  00002400000000871200001034632H2    HVYHV   002800510028
BI00B32H2    TIJ209A        202208117116-6042                TERMINAL                 CCN000003000000003000FN00000000020220901000003000NNE   20220711121842    4P0P  00000300000000523800000856132H2    HVYHV   006400630015
BI00B32H2    TIJ209B        202208197116-1301                TERMINAL                 CCN000015000000015000FN00000000020220901000015000NNE   20220711121842    4P0P  00001500000000487500000772732H2    HVYHV   006400630015
BI00B32H2    TIJ209C        202208267017-1182-02             TERMINAL                 CCN000045000000045000FN00000000020220901000045000NNE   20220711121842    4P0P  00004500000001165500001318632H2    HVYHV   005100280028
BI00B32H2    TIJ209C        202208267114-4486-02             TERMINAL                 CCN000024000000024000FN00000000020220901000024000NNE   20220711121842    4P0P  00002400000000662400000956032H2    HVYHV   006400630015
BI00B32H2    TIJ209C        202208267116-4415-02             TERMINAL                 CCN000038000000038000FN00000000020220901000038000NNE   20220711121842    4P0P  00003800000000596600000925732H2    HVYHV   006400630017
BI00B32H2    TIJ209D        202209027114-4486-02             TERMINAL                 CCN000024000000024000FN00000000020220901000024000NNE   20220711121842    4P0P  00002400000000662400000956032H2    HVYHV   006400630015
BI00B32M4    #TP2083A       202207217289-4104-40             HOUSING FEMALE ASS'Y     CCN000004000000004000FN00000000020220801000004000NNE   20220711155721    2NON  00000050000000606900000821132M4    SISAI   005400370024
BI00B32M4    #TP2084B       202207217289-4104-40             HOUSING FEMALE ASS'Y     CCN000004500000004500FN00000000020220801000004500NNE   20220711155723    2NON  00000050000000606900000821132M4    SISAI   005400370024
BI00B32M4    #TP2091A       202208047289-4104-40             HOUSING FEMALE ASS'Y     CCN000006000000006000FN00000000020220901000006000NNE   20220711155724    2NON  00000050000000606900000821132M4    SISAI   005400370024
BI00B32M4    #TP2092B       202208117289-4104-40             HOUSING FEMALE ASS'Y     CCN000001000000001000FN00000000020220901000001000NNE   20220711155730    2NON  00000050000000606900000821132M4    SISAI   005400370024
BI00B32M4    #TP2093C       202208187289-4104-40             HOUSING FEMALE ASS'Y     CCN000008500000008500FN00000000020220901000008500NNE   20220711160229    2NON  00000050000000606900000821132M4    SISAI   005400370024
BI00A32P8    #TAPI-206V3    202207087282-3243-40             CONNECTOR                CCN000000800000000800FY00000080020220601000000000NNEM0020220711114154    2N0N  00000080000001006000001282332P8    YIYTM   005600390040
BI00B32Q8    #EU2209JTMW    202207277289-4104-40             HOUSING FEMALE ASS'Y     CCN000005000000005000FN00000000020220901000005000NNE   20220711155027    2NON  00000050000000606900000821132Q8    EMEMI   005400370024
BI00B32Q8    #EU2209KTMW    202208037289-4104-40             HOUSING FEMALE ASS'Y     CCN000002500000002500FN00000000020220901000002500NNE   20220711155048    2NON  00000050000000606900000821132Q8    EMEMI   005400370024
BI00B32Q8    #EU2209LTMW    202208177289-4104-40             HOUSING FEMALE ASS'Y     CCN000004500000004500FN00000000020220901000004500NNE   20220711155056    2NON  00000050000000606900000821132Q8    EMEMI   005400370024
BI00B32R7    R-TAP220295    202208047298-1186-40             SQUIB SUB ASS'Y          CCN000010000000010000FN00000000020220801000010000NNED0720220711121842    4N0N  00001000000000650000000774532R7    IVYCIC  005400370024
BI00B32U5    TEST-SPL       202207297116-4037                TERMINAL                 CCN000006000000006000FN00000000020220701000006000NNED0020220711163910    4P0P  00000600000000600000000894232U5    AMAMSD  006400630015
BI00B32U5    TEST-SPL       202207297289-3342                HOUSING FEMALE ASS'Y     CCN000002400000002400FN00000000020220701000002400NNED0020220711163910    1N0N  00000240000000686400000901432U5    AMAMSD  005500360039
BI00B32U5    TEST-SPL       202207297C89-6868-30             SEALED ASSY FEMALE       CCN000002520000002520FN00000000020220701000002520NNED0020220711163910    4N0N  00000252000000839200001119232U5    AMAMSD  005500360039
BI00B32U5    #TEST-SPL      202207117157-3821                RUBBER STOPPER           CCN000020000000000000FY00000000020220701000000000NNEQ0820220711083335    2C0C  00002000000000176000000238032U5    AMAMSD  002700430014
BI00B32U5    DI2039         202209027114-4032                TERMINAL                 CCN000007500000007500FN00000000020221101000007500NNM   20220711130745U5  4P0P  00000750000000735000001063632U5    AMAMSD  006400630017
BI00B32U5    DI2039         202209027116-4037                TERMINAL                 CCN000030000000030000FN00000000020221101000030000NNM   20220711130745U5  4P0P  00000600000000600000000894232U5    AMAMSD  006400630015
BI00B32U5    DI2039         202209027289-3342                HOUSING FEMALE ASS'Y     CCN000016800000016800FN00000000020221101000016800NNM   20220711130745U5  1N0N  00000240000000686400000901432U5    AMAMSD  005500360039
BI00B32U5    DI2039         202209027017-1180-02             TERMINAL                 CCN000288000000288000FN00000000020221101000288000NNM   20220711130745U5  4P0P  00007200000001065600001229032U5    AMAMSD  005100280028
BI00B32U5    DI2039         202209027017-1182-02             TERMINAL                 CCN000045000000045000FN00000000020221101000045000NNM   20220711130745U5  4P0P  00004500000001165500001318632U5    AMAMSD  005100280028
BI00B32U5    DI2039         202209027114-4624-02             TERMINAL                 CCN000048000000048000FN00000000020221101000048000NNM   20220711130745U5  4P0P  00002400000000895200001188832U5    AMAMSD  006400630015
BI00B32U5    DI2039         202209027116-1685-02             TERMINAL                 CCN000240000000240000FN00000000020221101000240000NNM   20220711130745U5  4P0P  00002400000000897600001065232U5    AMAMSD  005100280028
BI00B32U5    DI2039         202209027116-4486-02             TERMINAL                 CCN000168000000168000FN00000000020221101000168000NNM   20220711130745U5  4P0P  00002800000000666400000995132U5    AMAMSD  006400630017
BI00B32U5    DI2039         202209027116-5045-02             TERMINAL                 CCN000304000000304000FN00000000020221101000304000NNM   20220711130745U5  4P0P  00001600000000678400001007132U5    AMAMSD  006400630017
BI00B32U5    DI2039         202209027116-5046-02             TERMINAL                 CCN000156000000156000FN00000000020221101000156000NNM   20220711130745U5  4P0P  00001200000000544800000873532U5    AMAMSD  006400630017
BI00B32U5    DI2039         202209027158-3167-80             WIRE SEAL                CCN000020000000020000FN00000000020221101000020000NNM   20220711130745U5  1C0C  00002000000000048000000109032U5    AMAMSD  002700430014
BI00B32U5    DI2039         202209027196-0805-02             TERMINAL FEMALE          CCN000022500000022500FN00000000020221101000022500NNM   20220711130745U5  4P0P  00002250000000558000000843232U5    AMAMSD  006400630015
BI00B32U5    DI2039         202209027196-1102-02             TERMINAL                 CCN000022500000022500FN00000000020221101000022500NNM   20220711130745U5  4P0P  00002250000000405000000690232U5    AMAMSD  006400630015
BI00B32U5    DI2039         202209027196-1104-02             TERMINAL                 CCN000337500000337500FN00000000020221101000337500NNM   20220711130745U5  4P0P  00002250000000441000000726232U5    AMAMSD  006400630015
BI00B32U5    DI2039         202209027283-9458-30             CONNECTOR                CCN000001600000001600FN00000000020221101000001600NNM   20220711130745U5  4N0N  00000020000000792000000984332U5    AMAMSD  005600390023
BI00B32U5    DI2039         202209027288-3330-30             HOUSING MALE             CCN000006000000006000FN00000000020221101000006000NNM   20220711130745U5  4N0N  00000150000000866300001011232U5    AMAMSD  005400370024
BI00B32U5    DI2039         202209027288-3331-30             HOUSING MALE             CCN000003000000003000FN00000000020221101000003000NNM   20220711130745U5  4N0N  00000150000000866000001010932U5    AMAMSD  005400370024
BI00B32U5    DI2039         202209027289-3342-30             HOUSING FEMALE ASS'Y     CCN000019200000019200FN00000000020221101000019200NNM   20220711130745U5  1N0N  00000240000000686400000901432U5    AMAMSD  005500360039
BI00B32U5    DI2039         202209027289-4696-30             HOUSING FEMALE ASS'Y     CCN000002000000002000FN00000000020221101000002000NNM   20220711130745U5  4N0N  00000200000000913400001055432U5    AMAMSD  005400370024
BI00B32U5    DI2039         202209027298-5993-30             SEALED ASSY FEMALE       CCN000006552000006552FN00000000020221101000006552NNM   20220711130745U5  4N0N  00000218400000981500001290032U5    AMAMSD  005500360039
BI00B32U5    DI2039         202209027327-6983-30             MAIN FUSE                CCN000001200000001200FN00000000020221101000001200NNM   20220711130745U5  4N0N  00000060000000748800000951532U5    AMAMSD  005400370024
BI00B32U5    DI2039         202209027327-6985-30             MULTI FUSE               CCN000000864000000864FN00000000020221101000000864NNM   20220711130745U5  4N0N  00000028800000886100001052032U5    AMAMSD  005400370024
BI00B32U5    DI2039         202209027327-6990-30             MULTI FUSE               CCN000001680000001680FN00000000020221101000001680NNM   20220711130745U5  4NON  00000056000000724000000907032U5    AMAMSD  005400370024
BI00B32U5    DI2039         202209027388-2978-30             HOUSING MALE ASS'Y       CCN000005760000005760FN00000000020221101000005760NNM   20220711130745U5  1N0N  00000048000000742000001122032U5    AMAMSD  005500360039
BI00B32U5    DI2039         202209027283-9457-3W             CONNECTOR                CCN000001800000001800FN00000000020221101000001800NNM   20220711130745U5  4N0N  00000012000000515000001067032U5    AMAMSD  005600390023
BI00B32U5    DI2039         202209027327-6731-3W             BATTERY FUSE             CCN000000448000000448FN00000000020221101000000448NNM   20220711130745U5  4N0N  00000006400000697600000843032U5    AMAMSD  005400370024
BI00B32U5    DI2039         202209027B96-0805-02             TERMINAL FEMALE          CCN000022500000022500FN00000000020221101000022500NNM   20220711130745U5  4P0P  00002250000000558000000843232U5    AMAMSD  006400630015
BI00B32U5    DI2039         202209027C89-6868-30             SEALED ASSY FEMALE       CCN000002520000002520FN00000000020221101000002520NNM   20220711130745U5  4N0N  00000252000000839200001119232U5    AMAMSD  005500360039
BI00B32U5    #DI2039        202209027158-3017                RUBBER STOPPER           CCN000020000000020000FN00000000020221101000020000NNM   20220711130740U5  2C0C  00001000000000375500000435032U5    AMAMSD  002700430014
BI00B32U5    #DI2039        202209027189-3032                HOUSING FEMALE           CCN000006400000006400FN00000000020221101000006400NNM   20220711130740U5  2F0F  00000160000000788400001018432U5    AMAMSD  005500360039
BI00B32U5    #DI2039        202209027287-7859                HYBRID FEMALE ASS'Y      CCN000010800000010800FN00000000020221101000010800NNM   20220711130740U5  2N0N  00000120000000461600000671632U5    AMAMSD  005500360039
BI00B32U5    #DI2039        202209027154-5597-30             CASSETTE R/B             CCN000001600000001600FN00000000020221101000001600NNM   20220711130740U5  2F0F  00000080000000736000000952032U5    AMAMSD  005500360039
BI00B32U5    #DI2039        202209027158-3003-90             RUBBER STOPPER           CCN000140000000140000FN00000000020221101000140000NNM   20220711130740U5  2C0C  00002000000000250000000306032U5    AMAMSD  002700430014
BI00B32U5    #DI2039        202209027158-3004-40             RUBBER STOPPER           CCN000020000000020000FN00000000020221101000020000NNM   20220711130740U5  2C0C  00002000000000234000000306332U5    AMAMSD  002700430014
BI00B32U5    #DI2039        202209027158-3005-80             RUBBER STOPPER           CCN000040000000040000FN00000000020221101000040000NNM   20220711130740U5  2H0H  00002000000000210000000268732U5    AMAMSD  002700430014
BI00B32U5    #DI2039        202209027158-3007-10             RUBBER STOPPER           CCN000020000000020000FN00000000020221101000020000NNM   20220711130740U5  2H0H  00002000000000308000000362732U5    AMAMSD  002700430014
BI00B32U5    #DI2039        202209027158-3008-80             RUBBER STOPPER           CCN000020000000020000FN00000000020221101000020000NNM   20220711130740U5  2C0C  00002000000000288000000343032U5    AMAMSD  004300270014
BI00B32U5    #DI2039        202209027158-3015-10             RUBBER STOPPER           CCN000020000000020000FN00000000020221101000020000NNM   20220711130740U5  2C0C  00001000000000419500000474032U5    AMAMSD  002700430014
BI00B32U5    #DI2039        202209027158-3376-50             CONNECTOR WIRE SEAL      CCN000060000000060000FN00000000020221101000060000NNM   20220711130740U5  2C0C  00002000000000184000000240732U5    AMAMSD  002700430014
BI00B32U5    #DI2039        202209027172-5625-90             RUBBER STOPPER           CCN000040000000040000FN00000000020221101000040000NNM   20220711130740U5  2H0H  00002000000000082400000133832U5    AMAMSD  004300270014
BI00B32U5    #DI2039        202209027172-5626-90             RUBBER STOPPER           CCN000340000000340000FN00000000020221101000340000NNM   20220711130740U5  2H0H  00002000000000076400000127832U5    AMAMSD  004300270014
BI00B32U5    #DI2039        202209027172-5627-60             RUBBER STOPPER           CCN000240000000240000FN00000000020221101000240000NNM   20220711130740U5  2H0H  00002000000000070400000121832U5    AMAMSD  004300270014
BI00B32U5    #DI2039        202209027172-5628-80             DUMMY PLUG               CCN000140000000140000FN00000000020221101000140000NNM   20220711130740U5  2H0H  00002000000000110600000162032U5    AMAMSD  004300270014
BI00B32U5    #DI2039        202209027172-5629-80             RUBBER STOPPER           CCN000180000000180000FN00000000020221101000180000NNM   20220711130740U5  2H0H  00002000000000060000000111132U5    AMAMSD  004300270014
BI00B32U5    #DI2039        202209027172-5630-40             RUBBER STOPPER           CCN000500000000500000FN00000000020221101000500000NNM   20220711130740U5  2H0H  00002000000000044000000095132U5    AMAMSD  004300270014
BI00B32U5    #DI2039        202209027172-5631-60             RUBBER STOPPER           CCN000260000000260000FN00000000020221101000260000NNM   20220711130740U5  2H0H  00002000000000042000000093132U5    AMAMSD  004300270014
BI00B32U5    #DI2039        202209027172-5632-10             DUMMY PLUG               CCN000260000000260000FN00000000020221101000260000NNM   20220711130740U5  2H0H  00002000000000080400000131832U5    AMAMSD  004300270014
BI00B32U5    #DI2039        202209027182-8253-40             HOUSING                  CCN000002400000002400FN00000000020221101000002400NNM   20220711130740U5  2F0F  00000120000000573000000864032U5    AMAMSD  005600390040
BI00B32U5    #DI2039        202209027189-2978-30             HOUSING FEMALE           CCN000006000000006000FN00000000020221101000006000NNM   20220711130740U5  2F0F  00000150000000966900001096932U5    AMAMSD  005400370024
BI00B32U5    #DI2039        202209027198-4979-30             HOUSING FEMALE           CCN000004000000004000FN00000000020221101000004000NNM   20220711130740U5  2F0F  00000400000000707200000876032U5    AMAMSD  005400370024
BI00B32U5    #DI2039        202209027282-6446-40             CONNECTOR                CCN000003000000003000FN00000000020221101000003000NNM   20220711130740U5  2N0N  00000150000001185000001368032U5    AMAMSD  005500360039
BI00B32U5    #DI2039        202209027287-1915-40             CONNECTOR ASS'Y          CCN000004800000004800FN00000000020221101000004800NNM   20220711130740U5  2N0N  00000240000000666500000923132U5    AMAMSD  005500360039
BI00B32U5    #DI2039        202209027289-4200-30             HOUSING FEMALE ASS'Y     CCN000016000000016000FN00000000020221101000016000NNM   20220711130740U5  2N0N  00000200000000926000001021032U5    AMAMSD  005400370024
BI00B32U9    TP0408S        202208257114-4231-02             TERMINAL                 CCN000084000000090000FN00000000020220901000090000NNE   20220711121842U9  4P0P  00001800000000554400000848032U9    YNYNA-E 006400630015
BI00B32U9    TP0408S        202208257195-0547-08             TERMINAL MALE            CCN000127500000127500FN00000000020220901000127500NNE   20220711121842U9  4P0P  00002550000000418200000706432U9    YNYNA-E 006400630015
BI00B32U9    TPA236         202208117114-4231-02             TERMINAL                 CCN000252000000252000FN00000000020220901000252000NNM   20220711121842U9  4P0P  00001800000000554400000848032U9    YNYNA-E 006400630015
BI00B32U9    TPA236         202208117116-2951-02             TERMINAL                 CCN000027000000027000FN00000000020220901000027000NNM   20220711121842U9  4P0P  00000540000000817600001111832U9    YNYNA-E 006400630015
BI00B32U9    TPA236         202208117116-4060-02             TERMINAL                 CCN000024000000024000FN00000000020220901000024000NNM   20220711121842U9  1P0P  00002400000000511200000984232U9    YNYNA-E 006400630017
BI00B32U9    TPA236         202208117116-4231-02             TERMINAL                 CCN000416000000416000FN00000000020220901000416000NNM   20220711121842U9  4P0P  00002600000000683800001012532U9    YNYNA-E 006400630017
BI00B32U9    TPA236         202208117158-3165-90             WIRE SEAL                CCN000320000000320000FN00000000020220901000320000NNM   20220711121842U9  1C0C  00004000000000124000000172432U9    YNYNA-E 004300270014
BI00B32U9    TPA236         202208117158-3166-60             WIRE SEAL                CCN000400000000400000FN00000000020220901000400000NNM   20220711121842U9  1C0C  00004000000000104000000152432U9    YNYNA-E 002700430014
BI00B32U9    TPA236         202208117158-3168-80             SEALED                   CCN000040000000040000FN00000000020220901000040000NNM   20220711121842U9  1C0C  00002000000000044000000092132U9    YNYNA-E 004300260014
BI00B32U9    TPA236         202208117172-5540-80             SEALED WIRE SEAL         CCN000060000000060000FN00000000020220901000060000NNM   20220711121842U9  1C0C  00002000000000186000000234432U9    YNYNA-E 004300270014
BI00B32U9    TPA236         202208117195-0547-08             TERMINAL MALE            CCN000025500000025500FN00000000020220901000025500NNM   20220711121842U9  4P0P  00002550000000418200000706432U9    YNYNA-E 006400630015
BI00B32U9    TPA236         202208117196-0805-02             TERMINAL FEMALE          CCN000090000000090000FN00000000020220901000090000NNM   20220711121842U9  4P0P  00002250000000558000000843232U9    YNYNA-E 006400630015
BI00B32U9    TPA236         202208117282-5574-10             CONNECTOR                CCN000058400000058400FN00000000020220901000058400NNM   20220711121842U9  4N0N  00000080000001235000001423032U9    YNYNA-E 005600390040
BI00B32U9    TPA236         202208117289-4212-80             SEALED HOUSING ASS'Y     CCN000002000000002000FN00000000020220901000002000NNM   20220711121842U9  4N0N  00000200000000848600000978632U9    YNYNA-E 005400370024
BI00B32U9    TPA236         202208117289-6868-30             SEALED ASSY FEMALE       CCN000030240000030240FN00000000020220901000030240NNM   20220711121842U9  4N0N  00000252000000839200001119232U9    YNYNA-E 005500360039
BI00B32U9    TPA236         202208117B58-3070-80             RUBBER STOPPER           CCN000120000000120000FN00000000020220901000120000NNM   20220711121842U9  1C0C  00004000000000276000000333032U9    YNYNA-E 004300270014
BI00B32U9    #TPA236        202208117157-7812                SEAL RUBBER              CCN000020000000020000FN00000000020220901000020000NNM   20220711121842U9  2C0C  00001000000000137000000202032U9    YNYNA-E 002700430014
BI00B32U9    #TPA236        202208117158-3003-90             RUBBER STOPPER           CCN000020000000020000FN00000000020220901000020000NNM   20220711121842U9  2C0C  00002000000000250000000306032U9    YNYNA-E 002700430014
BI00B32U9    #TPA236        202208117158-3376-50             CONNECTOR WIRE SEAL      CCN000200000000200000FN00000000020220901000200000NNM   20220711121842U9  2C0C  00002000000000184000000240732U9    YNYNA-E 002700430014
BI00B32U9    #TPA236        202208117282-6446-40             CONNECTOR                CCN000012000000012000FN00000000020220901000012000NNM   20220711121842U9  2N0N  00000150000001185000001368032U9    YNYNA-E 005500360039
BI00B32U9    #TPA236        202208117282-8395-40             CONNECTOR                CCN000014000000014000FN00000000020220901000014000NNM   20220711121842U9  2N0N  00000100000001009000001188032U9    YNYNA-E 005500360039
BI00B32U9    #TPA236        202208117283-8397-40             CONNECTOR                CCN000007700000007700FN00000000020220901000007700NNM   20220711121842U9  2N0N  00000154000001007000001222732U9    YNYNA-E 005600390023
BI00B32W2    #HN2208ANMW    202207197283-1161                CONNECTOR FEMALE         CCN000001000000001000FN00000000020220801000001000NNE   20220711181417    2N0N  00000100000000602000000711032W2    HNHNY   005400370024
BI00B32W2    #HN2208ANMW    202207197283-1161-40             CONNECTOR FEMALE         CCN000001000000001000FN00000000020220801000001000NNE   20220711181417    2N0N  00000100000000602000000711032W2    HNHNY   005400370024
BI00B32W2    @HN2208ANMW    202207197282-1064-40             CONNECTOR ASS'Y          CCN000000800000000800FN00000000020220801000000800NNE   20220711121842    3N0N  00000080000000910400001136232W2    HNHNY   005500360039
BI00B32W2    HN2208CWMW     202207197116-6041                TERMINAL                 CCN000013500000013500FN00000000020220801000013500NNE   20220711134109    4P0P  00000450000000716000001009632W2    HNHNY   006400630015
BI00B32W2    HN2208CWMW     202208097298-4094-10             HOUSING FEMALE ASS'Y     CCN000003380000003380FN00000000020220801000003380NNED0720220711133530    4N0N  00000338000001097400001358732W2    HNHNY   005400370024
BI00B32W2    HN2208CWMW     202207197327-6533-3W             BATTERY FUSE             CCN000001080000001080FN00000000020220801000001080NNE   20220711134109    4N0N  00000007200001230100001422632W2    HNHNY   005500360039
BI00B32W2    HN2208CWMW     202207197388-0313-30             CONNECTOR ASS'Y          CCN000002400000002400FN00000000020220801000002400NNE   20220711121842    4N0N  00000120000000995000001125032W2    HNHNY   005400370024
BI00B32W2    HN2208CWMW     202207197388-0317-60             CONNECTOR ASS'Y          CCN000002400000002400FN00000000020220801000002400NNE   20220711121842    4N0N  00000120000001034400001129332W2    HNHNY   005400370024
BI00B32W2    #HN2208CWMW    202207197298-2459-60             LIF FEMALE ASSEMBLY      CCN000000336000000336FN00000000020220801000000336NNE   20220711181417    2N0N  00000016800000534000000729632W2    HNHNY   005400370024
BI00B32W4    #4500194913    202208187147-3642-30             CLIP                     CCN000096000000048000FN00000000020220801000048000NNED0420220711121842W4172F0F  00000300000000542000000721332W417  HJYHK   005600390040
BI00B32W4    #4500195233    202208117147-3642-30             CLIP                     CCN000012000000012000FN00000000020220801000012000NNED0420220711121842W4A22F0F  00000300000000542000000721332W4A2  HJYHK-J 005600390040
BI00B32W4    #4500194913    202208257147-3642-30             CLIP                     CCN000048000000048000FN00000000020220801000048000NNED0420220711121842W4172F0F  00000300000000542000000721332W417  HJYHK   005600390040
BI00B32W4    4500196571     202209017116-4120-02             TERMINAL                 CCN000012000000012000FN00000000020220901000012000NNE   20220711121842W48 4P0P  00000600000000780000001073632W48   HJYHK   006400630015
BI00B32W4    4500196571     202209017116-4103-02             TERMINAL                 CCN000012000000012000FN00000000020220901000012000NNE   20220711121842W48 4P0P  00001200000000571200000859432W48   HJYHK   006400630015
BI00B32W4    4500196571     202209017116-4121-02             TERMINAL                 CCN000022500000022500FN00000000020220901000022500NNE   20220711121842W48 4P0P  00000450000000618800000912432W48   HJYHK   006400630015
BI00B32W4    4500196571     202209017158-3165-90             WIRE SEAL                CCN000040000000040000FN00000000020220901000040000NNE   20220711121842W48 1C0C  00004000000000124000000172432W48   HJYHK   004300270014
BI00B32W4    4500196571     202209017158-3006-90             RUBBER STOPPER           CCN000020000000020000FN00000000020220901000020000NNE   20220711121842W48 1C0C  00002000000000330600000386032W48   HJYHK   002700430014
BI00B32W4    4500196571     202209017158-3166-60             WIRE SEAL                CCN000040000000040000FN00000000020220901000040000NNE   20220711121842W48 1C0C  00004000000000104000000152432W48   HJYHK   002700430014
BI00B32W4    4500196571     202209017116-4122-02             TERMINAL                 CCN000004500000004500FN00000000020220901000004500NNE   20220711121842W48 4P0P  00000450000000656600000950232W48   HJYHK   006400630015
BI00B32W4    4500196571     202209017116-5044-02             TERMINAL                 CCN000016000000016000FN00000000020220901000016000NNE   20220711121842W48 4P0P  00001600000000641600000986332W48   HJYHK   006400630017
BI00B32W4    4500196571     202209017222-6244-40             CONNECTOR                CCN000004000000004000FN00000000020220901000004000NNE   20220711121842W48 4N0N  00000080000001239200001422032W48   HJYHK   005600390040
BI00B32W4    4500196571     202209017289-7615-30             HOUSING FEMALE ASS'Y     CCN000004160000004160FN00000000020220901000004160NNE   20220711121842W48 4N0N  00000032000000738000000948032W48   HJYHK   005400370024
BI00B32W4    4500196571     202209017172-1372-10             FRONT HOLDER             CCN000003900000003900FN00000000020220901000003900NNE   20220711121842W48 4F0F  00000390000000655200000955232W48   HJYHK   005500360039
BI00B32W4    #4500196571    202209017123-6423-30             CONNECTOR                CCN000002000000002000FN00000000020220901000002000NNE   20220711121842W48 2F0F  00000200000001002000001167632W48   HJYHK   005600390023
BI00B32W4    #4500196571    202209017157-3950-80             SEAL RUBBER              CCN000040000000040000FN00000000020220901000040000NNE   20220711121842W48 2C0C  00004000000000154000000440332W48   HJYHK   002700430014
BI00B32W4    #4500196571    202209017157-3952-80             RUBBER STOPPER           CCN000010000000010000FN00000000020220901000010000NNE   20220711121842W48 2C0C  00001000000000117000000175032W48   HJYHK   002700430014
BI00B32W4    @4500196571    202209017123-4312-80             HOUSING                  CCN000004000000004000FN00000000020220901000004000NNE   20220711121842W48 3F0F  00000080000000644200000794032W48   HJYHK   005500360039
BI00B32W4    4500196570     202209087116-4120-02             TERMINAL                 CCN000006000000006000FN00000000020220901000006000NNE   20220711121842W48 4P0P  00000600000000780000001073632W48   HJYHK   006400630015
BI00B32W4    4500196570     202209087116-1230                TERMINAL                 CCN000013500000013500FN00000000020220901000013500NNE   20220711121842W48 4P0P  00001350000000664200000952432W48   HJYHK   006400630015
BI00B32W4    4500196570     202209087116-4025                TERMINAL                 CCN000032000000032000FN00000000020220901000032000NNE   20220711121842W48 4P0P  00001600000000644800000975132W48   HJYHK   006400630017
BI00B32W4    4500196570     202209087116-4121-02             TERMINAL                 CCN000031500000031500FN00000000020220901000031500NNE   20220711121842W48 4P0P  00000450000000618800000912432W48   HJYHK   006400630015
BI00B32W4    4500196570     202209087158-3070-80             RUBBER STOPPER           CCN000040000000040000FN00000000020220901000040000NNE   20220711121842W48 1C0C  00004000000000276000000333332W48   HJYHK   002700430014
BI00B32W4    4500196570     202209087158-3165-90             WIRE SEAL                CCN000040000000040000FN00000000020220901000040000NNE   20220711121842W48 1C0C  00004000000000124000000172432W48   HJYHK   004300270014
BI00B32W4    4500196570     202209087158-3006-90             RUBBER STOPPER           CCN000020000000020000FN00000000020220901000020000NNE   20220711121842W48 1C0C  00002000000000330600000386032W48   HJYHK   002700430014
BI00B32W4    4500196570     202209087158-3166-60             WIRE SEAL                CCN000080000000080000FN00000000020220901000080000NNE   20220711121842W48 1C0C  00004000000000104000000152432W48   HJYHK   002700430014
BI00B32W4    #4500196570    202209087123-6423-30             CONNECTOR                CCN000004000000004000FN00000000020220901000004000NNE   20220711121842W48 2F0F  00000200000001002000001167632W48   HJYHK   005600390023
BI00B32W4    #4500196570    202209087158-3004-40             RUBBER STOPPER           CCN000020000000020000FN00000000020220901000020000NNE   20220711121842W48 2C0C  00002000000000234000000306332W48   HJYHK   002700430014
BI00B32W4    @4500196570    202209087123-4312-80             HOUSING                  CCN000004800000004800FN00000000020220901000004800NNE   20220711121842W48 3F0F  00000080000000644200000794032W48   HJYHK   005500360039
BI00B32W4    4500196572     202208257158-3165-90             WIRE SEAL                CCN000040000000040000FN00000000020220801000040000NNE   20220711121842W48 1C0C  00004000000000124000000172432W48   HJYHK   004300270014
BI00B32W4    4500196572     202208257116-4122-02             TERMINAL                 CCN000004500000004500FN00000000020220801000004500NNE   20220711121842W48 4P0P  00000450000000656600000950232W48   HJYHK   006400630015
BI00B32W4    4500196572     202208257222-6244-40             CONNECTOR                CCN000002400000002400FN00000000020220801000002400NNE   20220711121842W48 4N0N  00000080000001239200001422032W48   HJYHK   005600390040
BI00B32W4    4500196572     202208257289-7615-30             HOUSING FEMALE ASS'Y     CCN000002240000002240FN00000000020220801000002240NNE   20220711121842W48 4N0N  00000032000000738000000948032W48   HJYHK   005400370024
BI00B32W4    #4500196572    202208257157-3952-80             RUBBER STOPPER           CCN000010000000010000FN00000000020220801000010000NNE   20220711121842W48 2C0C  00001000000000117000000175032W48   HJYHK   002700430014
BI00B32W4    #4500196572    202208257183-2418                CONNECTOR HOUSING        CCN000004800000004800FN00000000020220801000004800NNE   20220711121842W48 2F0F  00000480000000917000001477032W48   HJYHK   005500360039
BI00B32W4    4500196616     202209057017-1181-02             TERMINAL                 CCN000063000000063000FN00000000020220901000063000NNE   20220711121842W41 4P0P  00006300000001089900001266832W41   HJYHK   005100280028
BI00B32W4    4500196616     202209057017-1180-02             TERMINAL                 CCN000072000000072000FN00000000020220901000072000NNE   20220711121842W41 4P0P  00007200000001065600001229032W41   HJYHK   005100280028
BI00B32W4    4500196616     202209057283-8630                CONNECTOR ASS'Y          CCN000024000000024000FN00000000020220901000024000NNE   20220711121842W41 4N0N  00000600000000540000000701332W41   HJYHK   005400370024
BI00B32W4    4500196616     202209057116-4102-02             TERMINAL                 CCN000036000000036000FN00000000020220901000036000NNE   20220711121842W41 4P0P  00001200000000553200000841432W41   HJYHK   006400630015
BI00B32W4    4500196616     202209057283-5545-10             CONNECTOR                CCN000002400000002400FN00000000020220901000002400NNE   20220711121842W41 4N0N  00000060000001279000001409232W41   HJYHK   005600390040
BI00B32W4    4500196621     202209067116-1180                TERMINAL                 CCN000019500000019500FN00000000020220901000019500NNE   20220711121842W41 1P0P  00001950000000618200000903432W41   HJYHK   006400630015
BI00B32W4    4500196621     202209067017-1180-02             TERMINAL                 CCN000144000000144000FN00000000020220901000144000NNE   20220711121842W41 4P0P  00007200000001065600001229032W41   HJYHK   005100280028
BI00B32W4    4500196621     202209067283-1020                CONNECTOR                CCN000006000000006000FN00000000020220901000006000NNE   20220711121842W41 4N0N  00000600000000840000001049332W41   HJYHK   005600390040
BI00A32W4    4500196560     202209267283-5845                CONNECTOR HOUSING        CCN000012000000012000FN00000000020220901000012000NNE   20220711121842W4731N0N  00000600000000444000000606332W473  HJYHK-J 005400370024
BI00A32W4    4500196560     202209267116-4231-02             TERMINAL                 CCN000026000000026000FN00000000020220901000026000NNE   20220711121842W4734P0P  00002600000000683800001012532W473  HJYHK-J 006400630017
BI00B32W4    4500196548     202208257116-4101-02             TERMINAL                 CCN000012000000012000FN00000000020220801000012000NNE   20220711121842W4374P0P  00001200000000582000000876232W437  HJYHK   006400630015
BI00B32W4    4500196548     202208257116-4111-02             TERMINAL                 CCN000007500000007500FN00000000020220801000007500NNE   20220711121842W4374P0P  00000750000000529500000817732W437  HJYHK   006400630015
BI00B32W4    #4500196574    202208117158-3003-90             RUBBER STOPPER           CCN000040000000040000FN00000000020220801000040000NNE   20220711121842W48 2C0C  00002000000000250000000306032W48   HJYHK   002700430014
BI00B32W4    #4500196575    202208047158-3003-90             RUBBER STOPPER           CCN000020000000020000FN00000000020220801000020000NNE   20220711121842W48 2C0C  00002000000000250000000306032W48   HJYHK   002700430014
BI00A32W4    #4500196617    202208257282-3243-40             CONNECTOR                CCN000005600000005600FN00000000020220801000005600NNE   20220711121842W4802N0N  00000080000001006000001282332W480  HJYHK-J 005600390040
BI00A32W4    4500196618     202207277116-4103-02             TERMINAL                 CCN000024000000024000FN00000000020220701000024000NNE   20220711121842W4804P0P  00001200000000571200000859432W480  HJYHK-J 006400630015
BI00B32W4    4500196573     202208187222-6244-40             CONNECTOR                CCN000002400000002400FN00000000020220801000002400NNE   20220711121842W48 4N0N  00000080000001239200001422032W48   HJYHK   005600390040
BI00B32W4    4500196547     202208117116-4111-02             TERMINAL                 CCN000007500000007500FN00000000020220801000007500NNED0720220711151106W4374P0P  00000750000000529500000817732W437  HJYHK   006400630015
BI00B32W4    4500196546     202209227116-4122-02             TERMINAL                 CCN000009000000009000FN00000000020220901000009000NNE   20220711121842W46 4P0P  00000450000000656600000950232W46   HJYHK   006400630015
BI00B32W4    4500196546     202209227116-4101-02             TERMINAL                 CCN000012000000012000FN00000000020220901000012000NNE   20220711121842W46 4P0P  00001200000000582000000876232W46   HJYHK   006400630015
BI00B32W4    4500196546     202209227114-4112-02             TERMINAL                 CCN000009000000009000FN00000000020220901000009000NNE   20220711121842W46 4P0P  00000900000000598500000927132W46   HJYHK   006400630017
BI00B32W4    4500196546     202209227116-4121-02             TERMINAL                 CCN000013500000013500FN00000000020220901000013500NNE   20220711121842W46 4P0P  00000450000000618800000912432W46   HJYHK   006400630015
BI00B32W9    4500196559     202208027116-4025                TERMINAL                 CCN000016000000016000FN00000000020220801000016000NNE   20220711121842W9  4P0P  00001600000000644800000975132W9    HKYHK   006400630017
BI00B32W9    #4500196564    202208167283-8398-40             CONNECTOR                CCN000026180000026180FN00000000020220801000026180NNE   20220711121842W9  2N0N  00000154000001007000001171332W9    HKYHK   005600390023
BI00B32X5    #TAPPLT07C     202207297198-1371-60             HOUSING FEMALE           CCN000004000000004000FN00000000020220701000004000NNED0720220711121842    2F0F  00000200000000597800000721232X5    EPYNA-E 005400370024
BI00B32X5    #TIB07D09A     202207297198-4979-30             HOUSING FEMALE           CCN000008000000008000FN00000000020220701000008000NNED0720220711121842X5  2F0F  00000400000000707200000876032X5    EPYNA-E 005400370024
BI00B32X5    TIB2039        202209027114-4031                TERMINAL                 CCN000010500000010500FN00000000020221101000010500NNM   20220711130827X5  4P0P  00001050000000966000001294632X5    EPYNA-E 006400630017
BI00B32X5    TIB2039        202209027116-4037                TERMINAL                 CCN000018000000018000FN00000000020221101000018000NNM   20220711130827X5  4P0P  00000600000000600000000894232X5    EPYNA-E 006400630015
BI00B32X5    TIB2039        202209027288-6547                CONNECTOR MALE ASS'Y     CCN000009750000009750FN00000000020221101000009750NNM   20220711130827X5  4N0N  00000075000001205300001340332X5    EPYNA-E 005400370024
BI00B32X5    TIB2039        202209027289-6547                HOUSING FEMALE ASS'Y     CCN000004800000004800FN00000000020221101000004800NNM   20220711130827X5  1N0N  00000240000001152000001362032X5    EPYNA-E 005500360039
BI00B32X5    TIB2039        202209027017-1180-02             TERMINAL                 CCN000288000000288000FN00000000020221101000288000NNM   20220711130827X5  4P0P  00007200000001065600001229032X5    EPYNA-E 005100280028
BI00B32X5    TIB2039        202209027017-1181-02             TERMINAL                 CCN000063000000063000FN00000000020221101000063000NNM   20220711130827X5  4P0P  00006300000001089900001266832X5    EPYNA-E 005100280028
BI00B32X5    TIB2039        202209027017-1183-02             TERMINAL                 CCN000027000000027000FN00000000020221101000027000NNM   20220711130827X5  4P0P  00002700000001139400001307432X5    EPYNA-E 005100280028
BI00B32X5    TIB2039        202209027114-4486-02             TERMINAL                 CCN000072000000072000FN00000000020221101000072000NNM   20220711130827X5  4P0P  00002400000000662400000956032X5    EPYNA-E 006400630015
BI00B32X5    TIB2039        202209027114-4624-02             TERMINAL                 CCN000024000000024000FN00000000020221101000024000NNM   20220711130827X5  4P0P  00002400000000895200001188832X5    EPYNA-E 006400630015
BI00B32X5    TIB2039        202209027116-1685-02             TERMINAL                 CCN000024000000024000FN00000000020221101000024000NNM   20220711130827X5  4P0P  00002400000000897600001065232X5    EPYNA-E 005100280028
BI00B32X5    TIB2039        202209027116-1686-02             TERMINAL                 CCN000021000000021000FN00000000020221101000021000NNM   20220711130827X5  4P0P  00002100000000869400001021632X5    EPYNA-E 005100280028
BI00B32X5    TIB2039        202209027116-2951-02             TERMINAL                 CCN000005400000005400FN00000000020221101000005400NNM   20220711130827X5  4P0P  00000540000000817600001111832X5    EPYNA-E 006400630015
BI00B32X5    TIB2039        202209027116-4486-02             TERMINAL                 CCN000168000000168000FN00000000020221101000168000NNM   20220711130827X5  4P0P  00002800000000666400000995132X5    EPYNA-E 006400630017
BI00B32X5    TIB2039        202209027116-5045-02             TERMINAL                 CCN000160000000160000FN00000000020221101000160000NNM   20220711130827X5  4P0P  00001600000000678400001007132X5    EPYNA-E 006400630017
BI00B32X5    TIB2039        202209027137-3047-30             UNIT PACKING             CCN000005000000005000FN00000000020221101000005000NNM   20220711130827X5  1C0C  00000100000000170500000218932X5    EPYNA-E 002700430014
BI00B32X5    TIB2039        202209027158-3167-80             WIRE SEAL                CCN000040000000040000FN00000000020221101000040000NNM   20220711130827X5  1C0C  00002000000000048000000109032X5    EPYNA-E 002700430014
BI00B32X5    TIB2039        202209027172-5402-30             SEAL RUBBER              CCN000016000000016000FN00000000020221101000016000NNM   20220711130827X5  1C0C  00000800000000457600000506032X5    EPYNA-E 004300270014
BI00B32X5    TIB2039        202209027172-5403-30             SEALED PACKING           CCN000016000000016000FN00000000020221101000016000NNM   20220711130827X5  1C0C  00000400000000653600000701732X5    EPYNA-E 004300270014
BI00B32X5    TIB2039        202209027195-0783-08             TERMINAL                 CCN000030000000030000FN00000000020221101000030000NNM   20220711130827X5  4P0P  00003000000000507000000801232X5    EPYNA-E 006400630015
BI00B32X5    TIB2039        202209027196-0396-02             TERMINAL                 CCN000015000000015000FN00000000020221101000015000NNM   20220711130827X5  4P0P  00001500000000949500001112932X5    EPYNA-E 002800510028
BI00B32X5    TIB2039        202209027196-1102-02             TERMINAL                 CCN000022500000022500FN00000000020221101000022500NNM   20220711130827X5  4P0P  00002250000000405000000690232X5    EPYNA-E 006400630015
BI00B32X5    TIB2039        202209027196-1104-02             TERMINAL                 CCN000090000000090000FN00000000020221101000090000NNM   20220711130827X5  4P0P  00002250000000441000000726232X5    EPYNA-E 006400630015
BI00B32X5    TIB2039        202209027196-1325-02             TERMINAL FEMALE          CCN000180000000180000FN00000000020221101000180000NNM   20220711130827X5  4P0P  00006000000000450000000778732X5    EPYNA-E 006400630017
BI00B32X5    TIB2039        202209027196-1326-02             TERMINAL FEMALE          CCN000180000000180000FN00000000020221101000180000NNM   20220711130827X5  4P0P  00006000000000456000000784732X5    EPYNA-E 006400630017
BI00B32X5    TIB2039        202209027196-1327-02             TERMINAL FEMALE          CCN000052000000052000FN00000000020221101000052000NNM   20220711130827X5  4P0P  00005200000000336000000739532X5    EPYNA-E 006400630017
BI00B32X5    TIB2039        202209027282-4576-90             HOUSING MALE ASS'Y       CCN000002400000002400FN00000000020221101000002400NNM   20220711130827X5  4N0N  00000240000000808800001028832X5    EPYNA-E 005500360039
BI00B32X5    TIB2039        202209027282-5574-10             CONNECTOR                CCN000009600000009600FN00000000020221101000009600NNM   20220711130827X5  4N0N  00000080000001235000001423032X5    EPYNA-E 005600390040
BI00B32X5    TIB2039        202209027288-6598-70             HOUSING MALE ASS'Y       CCN000004320000004320FN00000000020221101000004320NNM   20220711130827X5  4N0N  00000144000001074200001429232X5    EPYNA-E 005500360039
BI00B32X5    TIB2039        202209027289-3342-30             HOUSING FEMALE ASS'Y     CCN000105600000105600FN00000000020221101000105600NNM   20220711130827X5  1N0N  00000240000000686400000901432X5    EPYNA-E 005500360039
BI00B32X5    TIB2039        202209027289-3342-90             HOUSING FEMALE ASS'Y     CCN000009600000009600FN00000000020221101000009600NNM   20220711130827X5  1N0N  00000240000000686400000901432X5    EPYNA-E 005500360039
BI00B32X5    TIB2039        202209027289-5979-30             HOUSING FEMALE ASS'Y     CCN000000504000000504FN00000000020221101000000504NNM   20220711130827X5  1N0N  00000025200000854700001064732X5    EPYNA-E 005400370024
BI00B32X5    TIB2039        202209027295-0785-02             TERMINAL ALUMINIUM       CCN000051000000051000FN00000000020221101000051000NNM   20220711130827X5  4P0P  00002550000000510000000803632X5    EPYNA-E 006400630015
BI00B32X5    TIB2039        202209027296-0784-02             TERMINAL ALUMINIUM       CCN000072000000072000FN00000000020221101000072000NNM   20220711130827X5  4P0P  00002400000000480000000765232X5    EPYNA-E 006400630015
BI00B32X5    TIB2039        202209027388-2978-30             HOUSING MALE ASS'Y       CCN000011520000011520FN00000000020221101000011520NNM   20220711130827X5  1N0N  00000048000000742000001122032X5    EPYNA-E 005500360039
BI00B32X5    TIB2039        202209027327-6731-3W             BATTERY FUSE             CCN000003136000003136FN00000000020221101000003136NNM   20220711130827X5  4N0N  00000006400000697600000843032X5    EPYNA-E 005400370024
BI00B32X5    #TIB2039       202209027147-9094                RETAINER                 CCN000003000000003000FN00000000020221101000003000NNM   20220711130822X5  2F0F  00000300000000717000000872932X5    EPYNA-E 005500360039
BI00B32X5    #TIB2039       202209027158-3017                RUBBER STOPPER           CCN000010000000010000FN00000000020221101000010000NNM   20220711130822X5  2C0C  00001000000000375500000435032X5    EPYNA-E 002700430014
BI00B32X5    #TIB2039       202209027287-7859                HYBRID FEMALE ASS'Y      CCN000010800000010800FN00000000020221101000010800NNM   20220711130822X5  2N0N  00000120000000461600000671632X5    EPYNA-E 005500360039
BI00B32X5    #TIB2039       202209027287-9155                HOUSING FEMALE ASS'Y     CCN000005760000005760FN00000000020221101000005760NNM   20220711130822X5  2N0N  00000096000000853700001045232X5    EPYNA-E 005400370024
BI00B32X5    #TIB2039       202209027154-3424-30             REAR HOLDER              CCN000006000000006000FN00000000020221101000006000NNM   20220711130822X5  2F0F  00000300000000975000001138632X5    EPYNA-E 005500360039
BI00B32X5    #TIB2039       202209027158-3003-90             RUBBER STOPPER           CCN000140000000140000FN00000000020221101000140000NNM   20220711130822X5  2C0C  00002000000000250000000306032X5    EPYNA-E 002700430014
BI00B32X5    #TIB2039       202209027158-3004-40             RUBBER STOPPER           CCN000120000000120000FN00000000020221101000120000NNM   20220711130822X5  2C0C  00002000000000234000000306332X5    EPYNA-E 002700430014
BI00B32X5    #TIB2039       202209027158-3005-80             RUBBER STOPPER           CCN000020000000020000FN00000000020221101000020000NNM   20220711130822X5  2H0H  00002000000000210000000268732X5    EPYNA-E 002700430014
BI00B32X5    #TIB2039       202209027158-3007-10             RUBBER STOPPER           CCN000140000000140000FN00000000020221101000140000NNM   20220711130822X5  2H0H  00002000000000308000000362732X5    EPYNA-E 002700430014
BI00B32X5    #TIB2039       202209027158-3008-80             RUBBER STOPPER           CCN000040000000040000FN00000000020221101000040000NNM   20220711130822X5  2C0C  00002000000000288000000343032X5    EPYNA-E 004300270014
BI00B32X5    #TIB2039       202209027158-3015-10             RUBBER STOPPER           CCN000020000000020000FN00000000020221101000020000NNM   20220711130822X5  2C0C  00001000000000419500000474032X5    EPYNA-E 002700430014
BI00B32X5    #TIB2039       202209027158-3610-80             RUBBER STOPPER           CCN000006000000006000FN00000000020221101000006000NNM   20220711130822X5  2H0H  00000300000000396900000438932X5    EPYNA-E 004300270014
BI00B32X5    #TIB2039       202209027172-5626-90             RUBBER STOPPER           CCN000040000000040000FN00000000020221101000040000NNM   20220711130822X5  2H0H  00002000000000076400000127832X5    EPYNA-E 004300270014
BI00B32X5    #TIB2039       202209027172-5627-60             RUBBER STOPPER           CCN000020000000020000FN00000000020221101000020000NNM   20220711130822X5  2H0H  00002000000000070400000121832X5    EPYNA-E 004300270014
BI00B32X5    #TIB2039       202209027172-5629-80             RUBBER STOPPER           CCN000440000000440000FN00000000020221101000440000NNM   20220711130822X5  2H0H  00002000000000060000000111132X5    EPYNA-E 004300270014
BI00B32X5    #TIB2039       202209027172-5630-40             RUBBER STOPPER           CCN000180000000180000FN00000000020221101000180000NNM   20220711130822X5  2H0H  00002000000000044000000095132X5    EPYNA-E 004300270014
BI00B32X5    #TIB2039       202209027172-5631-60             RUBBER STOPPER           CCN000040000000040000FN00000000020221101000040000NNM   20220711130822X5  2H0H  00002000000000042000000093132X5    EPYNA-E 004300270014
BI00B32X5    #TIB2039       202209027172-5632-10             DUMMY PLUG               CCN000220000000220000FN00000000020221101000220000NNM   20220711130822X5  2H0H  00002000000000080400000131832X5    EPYNA-E 004300270014
BI00B32X5    #TIB2039       202209027183-8251-40             HOUSING                  CCN000004800000004800FN00000000020221101000004800NNM   20220711130822X5  2F0F  00000240000000357600000640032X5    EPYNA-E 005500360039
BI00B32X5    #TIB2039       202209027183-8253-40             HOUSING                  CCN000002400000002400FN00000000020221101000002400NNM   20220711130822X5  2F0F  00000240000000528000000805032X5    EPYNA-E 005500360039
BI00B32X5    #TIB2039       202209027189-2978-30             HOUSING FEMALE           CCN000007500000007500FN00000000020221101000007500NNM   20220711130822X5  2F0F  00000150000000966900001096932X5    EPYNA-E 005400370024
BI00B32X5    #TIB2039       202209027282-8395-40             CONNECTOR                CCN000005000000005000FN00000000020221101000005000NNM   20220711130822X5  2N0N  00000100000001009000001188032X5    EPYNA-E 005500360039
BI00B32X5    #TIB2039       202209027298-2459-60             LIF FEMALE ASSEMBLY      CCN000003192000003192FN00000000020221101000003192NNM   20220711130822X5  2N0N  00000016800000534000000729632X5    EPYNA-E 005400370024
BI00B32X5    @TIB2039       202209027286-4098                CONNECTOR MALE ASS'Y     CCN000009600000009600FN00000000020221101000009600NNM   20220711130825X5  3N0N  00000160000000949100001163032X5    EPYNA-E 005500360039
