AE00TI102209280428/09/202200000000100000000000000000653KGM  00000000835KGM  7047-1664                CLIP                     70471664                 0         0         0         0    0    0    00000600000000600000000187000011220000
AE00TI102209280428/09/202200000002100000000000000014910KGM  00000018831KGM  7123-7500                CONNECTOR                71237500                 0         0         0         0    0    0    00001680000000080000000261000043848000
AE00TI102209280428/09/202200000000100000000000000000828KGM  00000000986KGM  7124-1026-30             PROTECTOR                7124102630               0         0         0         0    0    0    00000300000000300000000126000003780000
AE00TI102209280428/09/202200000000200000000000000001654KGM  00000002204KGM  7154-5712-30             CASSETTE R/B             7154571230               0         0         0         0    0    0    00000160000000080000000288000004608000
AE00TI102209280428/09/202200000000500000000000000001653KGM  00000001930KGM  7158-3006-90             RUBBER STOPPER           7158300690               0         0         0         0    0    0    00010000000002000000000016000016000000
AE00TI102209280428/09/202200000000100000000000000000104KGM  00000000152KGM  7158-3166-60             WIRE SEAL                7158316660               0         0         0         0    0    0    00004000000004000000000004000001600000
AE00TI102209280428/09/202200000000700000000000000003203KGM  00000003542KGM  7172-5402-30             SEAL RUBBER              7172540230               0         0         0         0    0    0    00005600000000800000000077000043120000
AE00TI102209280428/09/202200000000100000000000000000186KGM  00000000234KGM  7172-5540-80             SEALED WIRE SEAL         7172554080               0         0         0         0    0    0    00002000000002000000000010000002000000
AE00TI102209280428/09/202200000000200000000000000001459KGM  00000001666KGM  7182-2412                HOUSING MALE             71822412                 0         0         0         0    0    0    00000100000000050000000638000006380000
AE00TI102209280428/09/202200000000100000000000000001282KGM  00000001477KGM  7182-4941                DOUBLE SIDED             71824941                 0         0         0         0    0    0    00000100000000100000000816000008160000
AE00TI102209280428/09/202200000000500000000000000000000KGM  00000000000KGM  7183-5510-40             HOUSING FEMALE           7183551040               0         0         0         0    0    0    00000500000000100000000499000024950000
AE00TI102209280428/09/202200000001700000000000000018756KGM  00000021213KGM  7183-7665-30             HOUSING                  7183766530               0         0         0         0    0    0    00002040000000120000000242000049368000
AE00TI102209280428/09/202200000000600000000000000005622KGM  00000006274KGM  7183-8256-40             HOUSING                  7183825640               0         0         0         0    0    0    00000720000000120000000250000018000000
AE00TI102209280428/09/202200000000300000000000000002263KGM  00000002584KGM  7189-9521                HOUSING                  71899521                 0         0         0         0    0    0    00000600000000200000000276000016560000
AE00TI102209280428/09/202200000000400000000000000003013KGM  00000003441KGM  7189-9522-90             HOUSING                  7189952290               0         0         0         0    0    0    00000800000000200000000303000024240000
AE00TI102209280428/09/202200000000700000000000000006769KGM  00000007679KGM  7222-7564-40             CONNECTOR                7222756440               0         0         0         0    0    0    00000350000000050000001166000040810000
AE00TI102209280428/09/202200000008000000000000000019184KGM  00000039184KGM  7271-1820-30             CASE SUB ASSY,ECU        7271182030               0         0         0         0    0    0    00000144000000001800009576000137894400
AE00TI102209280428/09/202200000000600000000000000000000KGM  00000000000KGM  7273-2981-0WD            CASSETTE BRACKET         727329810WD              0         0         0         0    0    0    00000060000000010000000000000000000000
AE00TI102209280428/09/202200000000200000000000000000000KGM  00000000000KGM  7273-2981-0WE            CASSETTE BRACKET         727329810WE              0         0         0         0    0    0    00000016000000008000000000000000000000
AE00TI102209280428/09/202200000000600000000000000000000KGM  00000000000KGM  7273-2982-0WE            CASSETTE BRACKET         727329820WE              0         0         0         0    0    0    00000090000000015000000000000000000000
AE00TI102209280428/09/202200000000100000000000000000795KGM  00000001012KGM  7282-1065-30             CONNECTOR                7282106530               0         0         0         0    0    0    00000150000000150000000422000006330000
AE00TI102209280428/09/202200000000800000000000000009336KGM  00000010976KGM  7282-1248                HOUSING SUB ASSEMBLY     72821248                 0         0         0         0    0    0    00000480000000060000000490000023520000
AE00TI102209280428/09/202200000000400000000000000004668KGM  00000005488KGM  7282-1248-30             HOUSING SUB ASSEMBLY     7282124830               0         0         0         0    0    0    00000240000000060000000503000012072000
AE00TI102209280428/09/202200000000100000000000000000230KGM  00000000339KGM  7282-5528-70             HOUSING MALE ASS'Y       7282552870               0         0         0         0    0    0    00000100000000100000000434000004340000
AE00TI102209280428/09/202200000000200000000000000002712KGM  00000003040KGM  7282-8120-30             CONNECTOR HOUSING        7282812030               0         0         0         0    0    0    00000600000000300000000000000000000000
AE00TI102209280428/09/202200000000200000000000000002712KGM  00000003040KGM  7282-8120-40             CONNECTOR HOUSING        7282812040               0         0         0         0    0    0    00000600000000300000000215000012900000
AE00TI102209280428/09/202200000000100000000000000001381KGM  00000001637KGM  7283-1288                CONNECTOR HOUSING        72831288                 0         0         0         0    0    0    00000120000000120000000781000009372000
AE00TI102209280428/09/202200000001000000000000000013820KGM  00000016407KGM  7283-1288-40             CONNECTOR HOUSING        7283128840               0         0         0         0    0    0    00001200000000120000000785000094200000
AE00TI102209280428/09/202200000000100000000000000001160KGM  00000001341KGM  7283-1485                CONNECTOR                72831485                 0         0         0         0    0    0    00000200000000200000000366000007320000
AE00TI102209280428/09/202200000001300000000000000014820KGM  00000017138KGM  7283-1968-30             CONNECTOR                7283196830               0         0         0         0    0    0    00001170000000090000000687000080379000
AE00TI102209280428/09/202200000000100000000000000001138KGM  00000001284KGM  7283-3013-30             CONNECTOR                7283301330               0         0         0         0    0    0    00000200000000200000000927000018540000
AE00TI102209280428/09/202200000000100000000000000000678KGM  00000000945KGM  7283-6036                CONNECTOR HOUSING        72836036                 0         0         0         0    0    0    00000160000000160000000260000004160000
AE00TI102209280428/09/202200000000100000000000000001032KGM  00000001206KGM  7283-7029-30             CONNECTOR                7283702930               0         0         0         0    0    0    00000600000000600000000231000013860000
AE00TI102209280428/09/202200000000100000000000000001200KGM  00000001410KGM  7283-7449-30             HOUSING FEMALE ASS'Y     7283744930               0         0         0         0    0    0    00000240000000240000000386000009264000
AE00TI102209280428/09/202200000000100000000000000000990KGM  00000001249KGM  7283-7526-30             CONNECTOR HOUSING        7283752630               0         0         0         0    0    0    00000196000000196000000506000009917600
AE00TI102209280428/09/202200000000100000000000000000990KGM  00000001249KGM  7283-7526-40             CONNECTOR HOUSING        7283752640               0         0         0         0    0    0    00000196000000196000000504000009878400
AE00TI102209280428/09/202200000000100000000000000000795KGM  00000001012KGM  7283-8692                CONNECTOR HOUSING        72838692                 0         0         0         0    0    0    00000150000000150000000300000004500000
AE00TI102209280428/09/202200000000200000000000000000700KGM  00000000925KGM  7283-8721-30             HOUSING FEMALE ASS'Y     7283872130               0         0         0         0    0    0    00000200000000100000000415000008300000
AE00TI102209280428/09/202200000000200000000000000001934KGM  00000002336KGM  7286-1917                CONNECTOR MALE ASS'Y     72861917                 0         0         0         0    0    0    00000240000000120000000517000012408000
AE00TI102209280428/09/202200000000900000000000000007683KGM  00000009407KGM  7287-9155                HOUSING FEMALE ASS'Y     72879155                 0         0         0         0    0    0    00000864000000096000000357000030844800
AE00TI102209280428/09/202200000006900000000000000047362KGM  00000062197KGM  7289-3342-30             HOUSING FEMALE ASS'Y     7289334230               0         0         0         0    0    0    00016560000000240000000191000316296000
AE00TI102209280428/09/202200000003200000000000000027350KGM  00000034070KGM  7289-5979-30             HOUSING FEMALE ASS'Y     7289597930               0         0         0         0    0    0    00000806400000025200001346000108541440
