AE00TI102209280228/09/202200000000600000000000000003096KGM  00000004861KGM  7114-4729-02             TERMINAL                 7114472902               0         0         0         0    0    0    00018000000003000000000015000027000000
AE00TI102209280228/09/202200000000600000000000000003709KGM  00000005420KGM  7116-1180                TERMINAL                 71161180                 0         0         0         0    0    0    00011700000001950000000022000025740000
AE00TI102209280228/09/202200000001600000000000000015720KGM  00000018334KGM  7116-2891-02             TERMINAL                 7116289102               0         0         0         0    0    0    00024000000001500000000052000124800000
AE00TI102209280228/09/202200000002400000000000000019642KGM  00000023563KGM  7116-2892-02             TERMINAL                 7116289202               0         0         0         0    0    0    00028800000001200000000053000152640000
AE00TI102209280228/09/202200000000800000000000000007162KGM  00000008469KGM  7116-2893-02             TERMINAL                 7116289302               0         0         0         0    0    0    00009600000001200000000054000051840000
AE00TI102209280228/09/202200000001000000000000000004698KGM  00000007550KGM  7116-3154-02             TERMINAL FEMALE          7116315402               0         0         0         0    0    0    00027000000002700000000015000040500000
AE00TI102209280228/09/202200000001500000000000000010085KGM  00000014363KGM  7126-8850-02             TERMINAL                 7126885002               0         0         0         0    0    0    00013500000000900000000058000078300000
AE00TI102209280228/09/202200000000100000000000000000740KGM  00000001025KGM  7126-8851-02             TERMINAL                 7126885102               0         0         0         0    0    0    00000900000000900000000060000005400000
AE00TI102209280228/09/202200000001600000000000000002728KGM  00000003502KGM  7137-3047-30             UNIT PACKING             7137304730               0         0         0         0    0    0    00001600000000100000000189000030240000
AE00TI102209280228/09/202200000002900000000000000009587KGM  00000011194KGM  7158-3006-90             RUBBER STOPPER           7158300690               0         0         0         0    0    0    00058000000002000000000016000092800000
AE00TI102209280228/09/202200000001100000000000000003718KGM  00000004248KGM  7158-3009-60             RUBBER STOPPER           7158300960               0         0         0         0    0    0    00022000000002000000000012000026400000
AE00TI102209280228/09/202200000000300000000000000000828KGM  00000001000KGM  7158-3070-80             RUBBER STOPPER           7158307080               0         0         0         0    0    0    00012000000004000000000008000009600000
AE00TI102209280228/09/202200000002700000000000000002808KGM  00000004115KGM  7158-3166-60             WIRE SEAL                7158316660               0         0         0         0    0    0    00108000000004000000000004000043200000
AE00TI102209280228/09/202200000002600000000000000001248KGM  00000002834KGM  7158-3167-80             WIRE SEAL                7158316780               0         0         0         0    0    0    00052000000002000000000005000026000000
AE00TI102209280228/09/202200000001600000000000000000704KGM  00000001474KGM  7158-3168-80             SEALED                   7158316880               0         0         0         0    0    0    00032000000002000000000004000012800000
AE00TI102209280228/09/202200000001300000000000000002028KGM  00000002653KGM  7158-3169-40             SEALING PLUG             7158316940               0         0         0         0    0    0    00052000000004000000000006000031200000
AE00TI102209280228/09/202200000001100000000000000002046KGM  00000002578KGM  7172-5540-80             SEALED WIRE SEAL         7172554080               0         0         0         0    0    0    00022000000002000000000010000022000000
AE00TI102209280228/09/202200000001000000000000000003528KGM  00000006380KGM  7196-1462-02             TERMINAL FEMALE          7196146202               0         0         0         0    0    0    00021000000002100000000014000029400000
AE00TI102209280228/09/202200000000600000000000000007920KGM  00000009420KGM  7470-3082                J/B COMPLETE ASS'Y       74703082                 0         0         0         0    0    0    00000014400000002400031298000045069120
AE00TI102209280228/09/202200000001200000000000000015840KGM  00000018840KGM  7470-4481                J/B COMPLETE ASS'Y       74704481                 0         0         0         0    0    0    00000028800000002400000000000000000000
AE00TI102209280228/09/202200000000400000000000000000000KGM  00000000000KGM  7470-4816D               J/B COMPLETE ASS'Y       74704816D                0         0         0         0    0    0    00000006000000001500000000000000000000
AE00TI102209280228/09/202200000000500000000000000000000KGM  00000000000KGM  7470-5300E               J/B COMPLETE ASS'Y       74705300E                0         0         0         0    0    0    00000005000000001000000000000000000000
AE00TI102209280228/09/202200000002700000000000000000000KGM  00000000000KGM  7470-5308E               J/B COMPLETE ASS'Y       74705308E                0         0         0         0    0    0    00000027000000001000000000000000000000
AE00TI102209280228/09/202200000001000000000000000000000KGM  00000000000KGM  7470-5783D               J/B COMPLETE ASS'Y       74705783D                0         0         0         0    0    0    00000015000000001500000000000000000000
AE00TI102209280228/09/202200000003300000000000000000000KGM  00000000000KGM  7470-5784E               J/B COMPLETE ASS'Y       74705784E                0         0         0         0    0    0    00000033000000001000000000000000000000
