AE00TI102209280328/09/202200000000100000000000000000838KGM  00000001058KGM  7283-4578                HOUSING FEMALE ASS'Y     72834578                 0         0         0         0    0    0    00000240000000240000000190000004560000
AE00TI102209280328/09/202200000000100000000000000000889KGM  00000001132KGM  7283-5843                CONNECTOR                72835843                 0         0         0         0    0    0    00000150000000150000000280000004200000
AE00TI102209280328/09/202200000000100000000000000001166KGM  00000001386KGM  7287-8073                HOUSING FEMALE ASS'Y     72878073                 0         0         0         0    0    0    00000240000000240000000244000005856000
