AE00TI102209280128/09/202200000000100000000000000000623KGM  00000000762KGM  7174-1849-70             COVER                    7174184970               0         0         0         0    0    0    00002500000002500000000046000011500000
AE00TI102209280128/09/202200000004000000000000000009592KGM  00000019592KGM  7271-1820-30             CASE SUB ASSY,ECU        7271182030               0         0         0         0    0    0    00000072000000001800009576000068947200
AE00TI102209280128/09/202200000000200000000000000001732KGM  00000002022KGM  7288-3329-30             HOUSING MALE             7288332930               0         0         0         0    0    0    00000300000000150000000354000010620000
AE00TI102209280128/09/202200000000600000000000000005196KGM  00000006065KGM  7288-3331-30             HOUSING MALE             7288333130               0         0         0         0    0    0    00000900000000150000000354000031860000
AE00TI102209280128/09/202200000000500000000000000004335KGM  00000005060KGM  7288-3339-30             HOUSING MALE             7288333930               0         0         0         0    0    0    00000750000000150000000354000026550000
AE00TI102209280128/09/202200000001300000000000000008923KGM  00000011718KGM  7289-3342-30             HOUSING FEMALE ASS'Y     7289334230               0         0         0         0    0    0    00003120000000240000000191000059592000
AE00TI102209280128/09/202200000000200000000000000002481KGM  00000002812KGM  7298-1853-10             HOUSING FEMALE ASS'Y     7298185310               0         0         0         0    0    0    00000780000000390000000186000014508000
AE00TI102209280128/09/202200000000200000000000000002183KGM  00000002591KGM  7298-2278-30             HOUSING FEMALE ASS'Y     7298227830               0         0         0         0    0    0    00000480000000240000000227000010896000
AE00TI102209280128/09/202200000000100000000000000001097KGM  00000001359KGM  7298-4094-10             HOUSING FEMALE ASS'Y     7298409410               0         0         0         0    0    0    00000338000000338000000241000008145800
AE00TI102209280128/09/202200000000300000000000000002945KGM  00000003870KGM  7298-5993-30             SEALED ASSY FEMALE       7298599330               0         0         0         0    0    0    00000655200000218400000266000017428320
AE00TI102209280128/09/202200000001200000000000000013314KGM  00000015115KGM  7327-6572-3W             BATTERY FUSE             732765723W               0         0         0         0    0    0    00000115200000009600008162000094026240
AE00TI102209280128/09/202200000001000000000000000006976KGM  00000000000KGM  7327-6731-3WS            BATTERY FUSE             732767313WS              0         0         0         0    0    0    00000001000000000100000000000000000000
AE00TI102209280128/09/202200000002700000000000000030804KGM  00000036609KGM  7327-6840-3W             BATTERY FUSE             732768403W               0         0         0         0    0    0    00000194400000007200009909000192630960
AE00TI102209280128/09/202200000001100000000000000010945KGM  00000012375KGM  7388-0313-30             CONNECTOR ASS'Y          7388031330               0         0         0         0    0    0    00001320000000120000000376000049632000
AE00TI102209280128/09/202200000000300000000000000003114KGM  00000003397KGM  7388-0314                CONNECTOR ASS'Y          73880314                 0         0         0         0    0    0    00000360000000120000000364000013104000
AE00TI102209280128/09/202200000006100000000000000045262KGM  00000068442KGM  7388-2978-30             HOUSING MALE ASS'Y       7388297830               0         0         0         0    0    0    00002928000000048000001790000524112000
AE00TI102209280128/09/202200000000200000000000000000000KGM  00000000000KGM  7470-4816S               J/B COMPLETE ASS'Y       74704816S                0         0         0         0    0    0    00000000200000000100000000000000000000
AE00TI102209280128/09/202200000001800000000000000000000KGM  00000000000KGM  7470-5300E               J/B COMPLETE ASS'Y       74705300E                0         0         0         0    0    0    00000018000000001000000000000000000000
AE00TI102209280128/09/202200000000400000000000000000000KGM  00000000000KGM  7470-5300S               J/B COMPLETE ASS'Y       74705300S                0         0         0         0    0    0    00000000400000000100000000000000000000
AE00TI102209280128/09/202200000003000000000000000000000KGM  00000000000KGM  7470-5307E               J/B COMPLETE ASS'Y       74705307E                0         0         0         0    0    0    00000030000000001000000000000000000000
AE00TI102209280128/09/202200000001200000000000000000000KGM  00000000000KGM  7470-5858D               J/B COMPLETE ASS'Y       74705858D                0         0         0         0    0    0    00000012000000001000000000000000000000
AE00TI102209280128/09/202200000001700000000000000000000KGM  00000000000KGM  7470-5936D               J/B COMPLETE ASS'Y       74705936D                0         0         0         0    0    0    00000025500000001500000000000000000000
