AE00TI102209280728/09/202200000000300000000000000000750KGM  00000000918KGM  7158-3003-90             RUBBER STOPPER           7158300390               0         0         0         0    0    0    00006000000002000000000012000007200000
AE00TI102209280728/09/202200000000100000000000000000718KGM  00000000839KGM  7183-4000                HOUSING FEMALE           71834000                 0         0         0         0    0    0    00000200000000200000000259000005180000
AE00TI102209280728/09/202200000001000000000000000008091KGM  00000009238KGM  7188-0149                HLC HOUSING MALE         71880149                 0         0         0         0    0    0    00000900000000090000000530000047700000
AE00TI102209280728/09/202200000000700000000000000005478KGM  00000006948KGM  7282-4578                HOUSING MALE ASS'Y       72824578                 0         0         0         0    0    0    00000840000000120000000255000021420000
AE00TI102209280728/09/202200000000500000000000000005316KGM  00000006416KGM  7282-4855                HOUSING MALE ASS'Y       72824855                 0         0         0         0    0    0    00000600000000120000000347000020820000
AE00TI102209280728/09/202200000002100000000000000014200KGM  00000017170KGM  7283-1289                CONNECTOR HOUSING        72831289                 0         0         0         0    0    0    00001260000000060000000795000100170000
AE00TI102209280728/09/202200000000200000000000000001351KGM  00000001641KGM  7283-1289-30             CONNECTOR HOUSING        7283128930               0         0         0         0    0    0    00000120000000060000000813000009756000
AE00TI102209280728/09/202200000009000000000000000061182KGM  00000074232KGM  7283-1289-40             CONNECTOR HOUSING        7283128940               0         0         0         0    0    0    00005400000000060000000813000439020000
AE00TI102209280728/09/202200000000200000000000000001675KGM  00000002115KGM  7283-4578                HOUSING FEMALE ASS'Y     72834578                 0         0         0         0    0    0    00000480000000240000000190000009120000
AE00TI102209280728/09/202200000000100000000000000000954KGM  00000001104KGM  7283-5830-30             CONNECTOR                7283583030               0         0         0         0    0    0    00000600000000600000000155000009300000
AE00TI102209280728/09/202200000000300000000000000002667KGM  00000003396KGM  7283-5843                CONNECTOR                72835843                 0         0         0         0    0    0    00000450000000150000000280000012600000
AE00TI102209280728/09/202200000000600000000000000002664KGM  00000003638KGM  7283-5845                CONNECTOR HOUSING        72835845                 0         0         0         0    0    0    00003600000000600000000133000047880000
AE00TI102209280728/09/202200000000100000000000000000444KGM  00000000606KGM  7283-5845-30             CONNECTOR HOUSING        7283584530               0         0         0         0    0    0    00000600000000600000000133000007980000
AE00TI102209280728/09/202200000000400000000000000003656KGM  00000004572KGM  7283-6120                CONNECTOR HOUSING        72836120                 0         0         0         0    0    0    00000600000000150000000368000022080000
AE00TI102209280728/09/202200000001400000000000000007006KGM  00000009036KGM  7283-7062-40             CONNECTOR HOUSING        7283706240               0         0         0         0    0    0    00000840000000060000000666000055944000
AE00TI102209280728/09/202200000001200000000000000006005KGM  00000007745KGM  7283-7062-90             CONNECTOR HOUSING        7283706290               0         0         0         0    0    0    00000720000000060000000669000048168000
AE00TI102209280728/09/202200000000500000000000000002913KGM  00000003748KGM  7283-7064-10             CONNECTOR HOUSING        7283706410               0         0         0         0    0    0    00000300000000060000000719000021570000
AE00TI102209280728/09/202200000000100000000000000000585KGM  00000000752KGM  7283-7064-40             CONNECTOR HOUSING        7283706440               0         0         0         0    0    0    00000060000000060000000719000004314000
AE00TI102209280728/09/202200000000400000000000000002979KGM  00000003559KGM  7283-8720-30             HOUSING FEMALE           7283872030               0         0         0         0    0    0    00000960000000240000000616000059136000
AE00TI102209280728/09/202200000001400000000000000012748KGM  00000015828KGM  7286-3885                CONNECTOR MALE ASS'Y     72863885                 0         0         0         0    0    0    00001680000000120000000295000049560000
AE00TI102209280728/09/202200000000700000000000000006374KGM  00000007914KGM  7286-3885-40             CONNECTOR MALE ASS'Y     7286388540               0         0         0         0    0    0    00000840000000120000000313000026292000
AE00TI102209280728/09/202200000000100000000000000000614KGM  00000000834KGM  7287-2705                HOUSING FEMALE ASS'Y     72872705                 0         0         0         0    0    0    00000960000000960000000148000014208000
AE00TI102209280728/09/202200000001000000000000000010296KGM  00000012496KGM  7287-3885                HYBRID FEMALE ASS'Y      72873885                 0         0         0         0    0    0    00002400000000240000000207000049680000
AE00TI102209280728/09/202200000000600000000000000006178KGM  00000007498KGM  7287-3885-30             HYBRID FEMALE ASS'Y      7287388530               0         0         0         0    0    0    00001440000000240000000215000030960000
AE00TI102209280728/09/202200000000500000000000000005148KGM  00000006248KGM  7287-3885-40             HYBRID FEMALE ASS'Y      7287388540               0         0         0         0    0    0    00001200000000240000000216000025920000
AE00TI102209280728/09/202200000000500000000000000005832KGM  00000006932KGM  7287-8073                HOUSING FEMALE ASS'Y     72878073                 0         0         0         0    0    0    00001200000000240000000244000029280000
AE00TI102209280728/09/202200000000100000000000000000894KGM  00000001185KGM  7287-9234                JOINT CONNECTOR          72879234                 0         0         0         0    0    0    00000960000000960000000137000013152000
AE00TI102209280728/09/202200000001100000000000000004264KGM  00000008664KGM  7288-3206                HOUSING MALE ASS'Y       72883206                 0         0         0         0    0    0    00001122000000102000000351000039382200
AE00TI102209280728/09/202200000000100000000000000000686KGM  00000000901KGM  7289-3342                HOUSING FEMALE ASS'Y     72893342                 0         0         0         0    0    0    00000240000000240000000186000004464000
AE00TI102209280728/09/202200000000700000000000000004805KGM  00000006310KGM  7289-3342-30             HOUSING FEMALE ASS'Y     7289334230               0         0         0         0    0    0    00001680000000240000000191000032088000
AE00TI102209280728/09/202200000000200000000000000001373KGM  00000001803KGM  7289-3342-40             HOUSING FEMALE ASS'Y     7289334240               0         0         0         0    0    0    00000480000000240000000192000009216000
AE00TI102209280728/09/202200000000100000000000000000913KGM  00000001055KGM  7289-4696-30             HOUSING FEMALE ASS'Y     7289469630               0         0         0         0    0    0    00000200000000200000000410000008200000
AE00TI102209280728/09/202200000001000000000000000011520KGM  00000013620KGM  7289-6547                HOUSING FEMALE ASS'Y     72896547                 0         0         0         0    0    0    00002400000000240000000229000054960000
AE00TI102209280728/09/202200000000100000000000000001097KGM  00000001359KGM  7298-4094-10             HOUSING FEMALE ASS'Y     7298409410               0         0         0         0    0    0    00000338000000338000000241000008145800
AE00TI102209280728/09/202200000001000000000000000011095KGM  00000012596KGM  7327-6572-3W             BATTERY FUSE             732765723W               0         0         0         0    0    0    00000096000000009600008162000078355200
AE00TI102209280728/09/202200000001400000000000000015973KGM  00000018983KGM  7327-6840-3W             BATTERY FUSE             732768403W               0         0         0         0    0    0    00000100800000007200009909000099882720
AE00TI102209280728/09/202200000000100000000000000000942KGM  00000001087KGM  7382-7523                JOINT CONNECTOR          73827523                 0         0         0         0    0    0    00000120000000120000000571000006852000
AE00TI102209280728/09/202200000000200000000000000001484KGM  00000002244KGM  7388-2978-30             HOUSING MALE ASS'Y       7388297830               0         0         0         0    0    0    00000096000000048000001790000017184000
AE00TI102209280828/09/202200000000000000000000000000000KGM  00000000000KGM  38200-T4V-F210-M1        BOX ASSY FUSE            38200T4VF210M1           0         0         0         0    0    0    00000000100000000600000000000000000000
AE00TI102209280828/09/202200000000300000000000000001548KGM  00000002431KGM  7114-4729-02             TERMINAL                 7114472902               0         0         0         0    0    0    00009000000003000000000015000013500000
AE00TI102209280828/09/202200000001800000000000000011128KGM  00000016261KGM  7116-1180                TERMINAL                 71161180                 0         0         0         0    0    0    00035100000001950000000022000077220000
AE00TI102209280828/09/202200000001000000000000000004698KGM  00000007550KGM  7116-3154-02             TERMINAL FEMALE          7116315402               0         0         0         0    0    0    00027000000002700000000015000040500000
AE00TI102209280828/09/202200000001400000000000000009027KGM  00000013651KGM  7116-4025                TERMINAL                 71164025                 0         0         0         0    0    0    00022400000001600000000034000076160000
AE00TI102209280828/09/202200000000300000000000000002219KGM  00000003075KGM  7126-8851-02             TERMINAL                 7126885102               0         0         0         0    0    0    00002700000000900000000060000016200000
AE00TI102209280828/09/202200000001600000000000000010368KGM  00000014931KGM  7126-8852-02             TERMINAL                 7126885202               0         0         0         0    0    0    00012000000000750000000062000074400000
AE00TI102209280828/09/202200000001600000000000000009000KGM  00000013563KGM  7126-8853-02             TERMINAL                 7126885302               0         0         0         0    0    0    00012000000000750000000057000068400000
AE00TI102209280828/09/202200000003800000000000000012563KGM  00000014668KGM  7158-3006-90             RUBBER STOPPER           7158300690               0         0         0         0    0    0    00076000000002000000000016000121600000
AE00TI102209280828/09/202200000002200000000000000007436KGM  00000008496KGM  7158-3009-60             RUBBER STOPPER           7158300960               0         0         0         0    0    0    00044000000002000000000012000052800000
AE00TI102209280828/09/202200000000600000000000000000624KGM  00000000914KGM  7158-3166-60             WIRE SEAL                7158316660               0         0         0         0    0    0    00024000000004000000000004000009600000
AE00TI102209280828/09/202200000004300000000000000002064KGM  00000004687KGM  7158-3167-80             WIRE SEAL                7158316780               0         0         0         0    0    0    00086000000002000000000005000043000000
AE00TI102209280828/09/202200000002000000000000000000880KGM  00000001842KGM  7158-3168-80             SEALED                   7158316880               0         0         0         0    0    0    00040000000002000000000004000016000000
AE00TI102209280828/09/202200000000500000000000000000780KGM  00000001021KGM  7158-3169-40             SEALING PLUG             7158316940               0         0         0         0    0    0    00020000000004000000000006000012000000
AE00TI102209280828/09/202200000002400000000000000017808KGM  00000026928KGM  7388-2978-30             HOUSING MALE ASS'Y       7388297830               0         0         0         0    0    0    00001152000000048000001790000206208000
AE00TI102209280828/09/202200000000100000000000000000000KGM  00000000000KGM  7470-4810S               J/B COMPLETE ASS'Y       74704810S                0         0         0         0    0    0    00000000100000000100000000000000000000
AE00TI102209280828/09/202200000000100000000000000000000KGM  00000000000KGM  7470-4815E               J/B COMPLETE ASS'Y       74704815E                0         0         0         0    0    0    00000001000000001000000000000000000000
AE00TI102209280828/09/202200000000100000000000000000000KGM  00000000000KGM  7470-4817S               J/B COMPLETE ASS'Y       74704817S                0         0         0         0    0    0    00000000100000000100000000000000000000
AE00TI102209280828/09/202200000000100000000000000000000KGM  00000000000KGM  7470-5208S               J/B COMPLETE ASS'Y       74705208S                0         0         0         0    0    0    00000000100000000100000000000000000000
AE00TI102209280828/09/202200000002000000000000000000000KGM  00000000000KGM  7470-5782D               J/B COMPLETE ASS'Y       74705782D                0         0         0         0    0    0    00000030000000001500000000000000000000
AE00TI102209280828/09/202200000000800000000000000000000KGM  00000000000KGM  7470-5783D               J/B COMPLETE ASS'Y       74705783D                0         0         0         0    0    0    00000012000000001500000000000000000000
AE00TI102209280828/09/202200000001300000000000000000000KGM  00000000000KGM  7470-5783E               J/B COMPLETE ASS'Y       74705783E                0         0         0         0    0    0    00000013000000001000000000000000000000
AE00TI102209280828/09/202200000000100000000000000000000KGM  00000000000KGM  7470-5791S               J/B COMPLETE ASS'Y       74705791S                0         0         0         0    0    0    00000000100000000100000000000000000000
AE00TI102209280828/09/202200000002500000000000000000000KGM  00000000000KGM  7470-5823D               J/B COMPLETE ASS'Y       74705823D                0         0         0         0    0    0    00000037500000001500000000000000000000
AE00TI102209280828/09/202200000000600000000000000000000KGM  00000000000KGM  7470-5858S               J/B COMPLETE ASS'Y       74705858S                0         0         0         0    0    0    00000000600000000100000000000000000000
AE00TI102209280828/09/202200000000300000000000000000000KGM  00000000000KGM  7470-5870S               J/B COMPLETE ASS'Y       74705870S                0         0         0         0    0    0    00000000300000000100000000000000000000
AE00TI102209280828/09/202200000000900000000000000000000KGM  00000000000KGM  7470-5927D               J/B COMPLETE ASS'Y       74705927D                0         0         0         0    0    0    00000013500000001500000000000000000000
AE00TI102209280828/09/202200000001500000000000000000000KGM  00000000000KGM  7470-5927E               J/B COMPLETE ASS'Y       74705927E                0         0         0         0    0    0    00000015000000001000000000000000000000
