AE00TI102209280528/09/202200000000500000000000000004824KGM  00000005874KGM  7282-4577                HOUSING MALE ASS'Y       72824577                 0         0         0         0    0    0    00001200000000240000000229000027480000
AE00TI102209280528/09/202200000001400000000000000014246KGM  00000017326KGM  7282-9391                HOUSING MALE ASS'Y       72829391                 0         0         0         0    0    0    00001680000000120000000325000054600000
AE00TI102209280528/09/202200000000200000000000000001448KGM  00000001748KGM  7283-5832-30             CONNECTOR HOUSING        7283583230               0         0         0         0    0    0    00000480000000240000000208000009984000
AE00TI102209280528/09/202200000000600000000000000005310KGM  00000006612KGM  7283-5846                HOUSING                  72835846                 0         0         0         0    0    0    00000900000000150000000241000021690000
AE00TI102209280528/09/202200000000100000000000000000885KGM  00000001102KGM  7283-5846-40             HOUSING                  7283584640               0         0         0         0    0    0    00000150000000150000000245000003675000
AE00TI102209280528/09/202200000000200000000000000001955KGM  00000002328KGM  7286-3970                CONNECTOR HOUSING        72863970                 0         0         0         0    0    0    00000022000000011000002089000004595800
AE00TI102209280528/09/202200000001100000000000000008448KGM  00000010758KGM  7286-4097                CONNECTOR MALE ASS'Y     72864097                 0         0         0         0    0    0    00001760000000160000000196000034496000
AE00TI102209280528/09/202200000000400000000000000004886KGM  00000005766KGM  7287-8072                HOUSING FEMALE ASS'Y     72878072                 0         0         0         0    0    0    00000960000000240000000247000023712000
AE00TI102209280528/09/202200000000300000000000000003686KGM  00000004346KGM  7287-9000                HOUSING FEMALE ASS'Y     72879000                 0         0         0         0    0    0    00001440000000480000000162000023328000
AE00TI102209280528/09/202200000001200000000000000010514KGM  00000013220KGM  7288-7969                HYBRID MALE ASS'Y        72887969                 0         0         0         0    0    0    00000384000000032000001019000039129600
AE00TI102209280528/09/202200000003400000000000000025099KGM  00000032800KGM  7289-7970                HYBRID FEMALE ASS'Y      72897970                 0         0         0         0    0    0    00001088000000032000000956000104012800
AE00TI102209280528/09/202200000001800000000000000023760KGM  00000028260KGM  7470-3082                J/B COMPLETE ASS'Y       74703082                 0         0         0         0    0    0    00000043200000002400031298000135207360
AE00TI102209280528/09/202200000001500000000000000000000KGM  00000000000KGM  7470-5783D               J/B COMPLETE ASS'Y       74705783D                0         0         0         0    0    0    00000022500000001500000000000000000000
AE00TI102209280528/09/202200000005400000000000000000000KGM  00000000000KGM  7470-5783E               J/B COMPLETE ASS'Y       74705783E                0         0         0         0    0    0    00000054000000001000000000000000000000
AE00TI102209280528/09/202200000002200000000000000000000KGM  00000000000KGM  7470-5858D               J/B COMPLETE ASS'Y       74705858D                0         0         0         0    0    0    00000022000000001000000000000000000000
AE00TI102209280528/09/202200000001500000000000000000000KGM  00000000000KGM  7470-5927D               J/B COMPLETE ASS'Y       74705927D                0         0         0         0    0    0    00000022500000001500000000000000000000
