BI00B1200    2399T52622     202208057298-3990-30             HOUSING FEMALE ASS'Y     CCN000005280000005280FN00000000020220801000005280NNM00020220722142630    4NON  0000002400000120890000157391200    YCYC    005500360039
BI00B1200    OHM-202207-01  20220805REEL275-42               ALUMINUM REEL            CCN000000040000000120FN00000000020220801000000120NNE00020220722121608    1N0N  0000000020000061200000069601200    YCYC    005600540017
BI00B1200    #7960T52801    202209017158-3374-90             CONNECTOR WIRE SEAL      CCN000040000000040000FN00000000020221001000040000NNE   20220722121608    2H0H  0000200000000017200000022931200    YCYC    002700430014
BI00B1200    #7960T52801    202209017172-5629-80             RUBBER STOPPER           CCN000080000000080000FN00000000020221001000080000NNE   20220722121608    2H0H  0000200000000006000000011111200    YCYC    004300270014
BI00B1200    H322J50033     202209297158-3022-80             RUBBER STOPPER           CCN000005000000005000FN00000000020221001000005000NNE   20220722121608    1C0C  0000050000000046750000052401200    YCYC    002700430014
BI00B1200    O022J50028     202209227116-4100-02             TERMINAL                 CCN000015000000015000FN00000000020221001000015000NNE   20220722121608    4P0P  0000150000000069600000099021200    YCYC    006400630015
BI00B1200    Y122G05N       202207277288-3332-30             HOUSING MALE             CCN000001500000001500FN00000000020220801000001500NNED0720220722121608    4N0N  0000015000000086070000100571200    YCYC    005400370024
BI00B1200    Y122G05N       202207277288-3338-30             HOUSING MALE             CCN000001500000001500FN00000000020220801000001500NNED0720220722121608    4N0N  0000015000000086610000101201200    YCYC    005400370024
BI00B32AG    XG2209DLMW     202208197017-1183-02             TERMINAL                 CCN000027000000027000FN00000000020220901000027000NNE   20220722121608    4P0P  00002700000001139400001307432AG    XGXGY   005100280028
BI00B32CA    PTA32113       202208117289-3342                HOUSING FEMALE ASS'Y     CCN000026400000017400FN00000000020221101000017400NNEQ0020220722121608    1N0N  00000240000000686400000901432CA    YPYPY   005500360039
BI00A32CA    PTA32113       202207257289-3342                HOUSING FEMALE ASS'Y     CCN000009000000009000FN00000000020221101000009000NNEM0020220722121608    1N0N  00000240000000686400000901432CA    YPYPY   005500360039
BI00B32CJ    JQN208C        202208057116-5750-02             TERMINAL                 CCN000075000000075000FN00000000020220801000075000NNE   20220722121608    4P0P  00001500000000457500000742732CJ    QNYHVQN 006400630015
BI00B32CJ    JQN208C        202208057116-5752-02             TERMINAL                 CCN000084000000084000FN00000000020220801000084000NNE   20220722121608    4P0P  00002100000000571200000856432CJ    QNYHVQN 006400630015
BI00B32DE    TCT2092        202208117017-1181-02             TERMINAL                 CCN000063000000063000FN00000000020220901000063000NNMD0020220722121608    4P0P  00006300000001089900001266832DE    TVYEV-TV005100280028
BI00B32DE    TCT2092        202208117116-4100-02             TERMINAL                 CCN000015000000015000FN00000000020220901000015000NNMD0020220722121608    4P0P  00001500000000696000000990232DE    TVYEV-TV006400630015
BI00B32DE    TCT2093        202208187283-5832                CONNECTOR HOUSING        CCN000002400000002400FN00000000020220901000002400NNMD0020220722121608    1N47  00000240000000723800000873832DE    TVYEV-TV005500360039
BI00B32DE    #TCTL2091      202208047182-2410                CONNECTOR HOUSING        CCN000001200000001200FN00000000020220901000001200NNMD0020220722162255    2F0F  00000120000000959800001245632DE    TVYEV-TV005500360039
BI00B32DE    TCT209D        202208187158-3165-90             WIRE SEAL                CCN000080000000080000FN00000000020220901000080000NNE   20220722121608    1C0C  00004000000000124000000172432DE    TVYEV-TV004300270014
BI00B32DE    TCT209D        202208187283-1288-40             CONNECTOR HOUSING        CCN000003600000003600FN00000000020220901000003600NNE   20220722121608    1N0N  00000120000001382000001640732DE    TVYEV-TV005600390040
BI00B32DE    TCT209E        202208257017-1181-02             TERMINAL                 CCN000063000000063000FN00000000020220901000063000NNE   20220722121608    4P0P  00006300000001089900001266832DE    TVYEV-TV005100280028
BI00B32DE    TCT209E        202208257283-1288-10             CONNECTOR HOUSING        CCN000009600000009600FN00000000020220901000009600NNE   20220722121608    1N0N  00000120000001381000001637032DE    TVYEV-TV005600390040
BI00B32DJ    GHT2209B 1     202207217114-4021                TERMINAL                 CCN000240000000240000FY00024000020220901000000000NNM00020220722104525    4P0P  00001500000000670500000964132DJ    RBYIPLRB006400630015
BI00B32DJ    GHT2209B 1     202207217114-4415-02             TERMINAL MALE            CCN001107000001107000FY00110700020220901000000000NNM00020220722104525    4P0P  00002700000000429300000717532DJ    RBYIPLRB006400630015
BI00B32DJ    GHT2209B 1     202207217114-4624-02             TERMINAL                 CCN000288000000288000FY00028800020220901000000000NNM00020220722104525    4P0P  00002400000000895200001188832DJ    RBYIPLRB006400630015
BI00B32DJ    GHT2209B 1     202207217114-4020                TERMINAL                 CCN000252000000252000FY00025200020220901000000000NNM00020220722104525    4P0P  00002100000000875700001169332DJ    RBYIPLRB006400630015
BI00B32DJ    GHT2209B 1     202207217114-4032                TERMINAL                 CCN000202500000202500FY00020250020220901000000000NNM00020220722104525    4P0P  00000750000000735000001063632DJ    RBYIPLRB006400630017
BI00B32DJ    GHT2209B 1     202207217114-6041                TERMINAL                 CCN000032400000032400FY00003240020220901000000000NNM00020220722104525    4P0P  00000360000000580700000824232DJ    RBYIPLRB006400630015
BI00B32DJ    GHT2209B 1     202207217114-4728-02             TERMINAL                 CCN000600000000600000FY00060000020220901000000000NNM00020220722104525    4P0P  00003000000000510000000804232DJ    RBYIPLRB006400630015
BI00B32DJ    GHT2209B 1     202207217116-4026                TERMINAL                 CCN000624000000624000FY00062400020220901000000000NNM00020220722104525    4P0P  00001600000000664000000994332DJ    RBYIPLRB006400630017
BI00B32DJ    GHT2209B 1     202207217116-4020                TERMINAL                 CCN000540000000540000FY00054000020220901000000000NNM00020220722104525    4P0P  00001350000000513000000798232DJ    RBYIPLRB006400630015
BI00B32DJ    GHT2209B 1     202207217116-4025                TERMINAL                 CCN001472000001472000FY00147200020220901000000000NNM00020220722104525    4P0P  00001600000000644800000975132DJ    RBYIPLRB006400630017
BI00B32DJ    GHT2209B 1     202207217116-4486-02             TERMINAL                 CCN000308000000308000FY00030800020220901000000000NNM00020220722104525    4P0P  00002800000000666400000995132DJ    RBYIPLRB006400630017
BI00B32DJ    GHT2209B 1     202207217114-4729-02             TERMINAL                 CCN000720000000720000FY00072000020220901000000000NNM00020220722104525    4P0P  00003000000000516000000810232DJ    RBYIPLRB006400630015
BI00B32DJ    GHT2209B 1     202207217116-5042-02             TERMINAL                 CCN000067500000067500FY00006750020220901000000000NNM00020220722104525    4P0P  00001350000000560300000845532DJ    RBYIPLRB006400630015
BI00B32DJ    GHT2209B 1     202207217114-5748-02             TERMINAL                 CCN000120000000120000FY00012000020220901000000000NNM00020220722104525    4P0P  00001200000000444000000737632DJ    RBYIPLRB006400630015
BI00B32DJ    GHT2209B 1     202207217114-5747-02             TERMINAL                 CCN000540000000540000FY00054000020220901000000000NNM00020220722104525    4P0P  00001800000000626400000920032DJ    RBYIPLRB006400630015
BI00B32DJ    GHT2209B 1     202207217116-3153-02             TERMINAL FEMALE          CCN002241000002241000FY00224100020220901000000000NNM00020220722104525    4P0P  00002700000000459000000744232DJ    RBYIPLRB006400630015
BI00B32DJ    GHT2209B 1     202207217116-3154-02             TERMINAL FEMALE          CCN000783000000783000FY00078300020220901000000000NNM00020220722104525    4P0P  00002700000000469800000755032DJ    RBYIPLRB006400630015
BI00B32DJ    GHT2209B 1     202207217B96-0805-02             TERMINAL FEMALE          CCN000045000000045000FY00004500020220901000000000NNM00020220722104525    4P0P  00002250000000558000000843232DJ    RBYIPLRB006400630015
BI00B32DJ    GHT2209B 1     202207217114-4416-02             TERMINAL MALE            CCN000486000000486000FY00048600020220901000000000NNM00020220722104525    4P0P  00002700000000442800000731032DJ    RBYIPLRB006400630015
BI00B32DJ    GHT2209B 1     202207217116-4416-02             TERMINAL                 CCN000064000000064000FY00006400020220901000000000NNM00020220722104525    4P0P  00003200000000518400000847132DJ    RBYIPLRB006400630017
BI00B32DJ    GHT2209B 1     202207217116-4231-02             TERMINAL                 CCN000130000000130000FY00013000020220901000000000NNM00020220722104525    4P0P  00002600000000683800001012532DJ    RBYIPLRB006400630017
BI00B32DJ    GHT2209B 1     202207217114-5746-02             TERMINAL                 CCN000210000000210000FY00021000020220901000000000NNM00020220722104525    4P0P  00002100000000695100000988732DJ    RBYIPLRB006400630015
BI00B32DJ    GHT2209B 1     202207217114-5753-02             TERMINAL                 CCN000027000000027000FY00002700020220901000000000NNM00020220722104525    4P0P  00002700000000847800001141432DJ    RBYIPLRB006400630015
BI00B32EJ    #T220714P02    202209017123-6423-30             CONNECTOR                CCN000020000000020000FN00000000020220901000020000NNED0020220722121608EJ  2F0F  00000200000001002000001167632EJ    EJYKBO  005600390023
BI00B32EJ    #T220714P02    202209017157-3821                RUBBER STOPPER           CCN000020000000020000FN00000000020220901000020000NNED0020220722121608EJ  2C0C  00002000000000176000000238032EJ    EJYKBO  002700430014
BI00B32EJ    T220713P01     202209157116-1230                TERMINAL                 CCN000013500000013500FN00000000020221001000013500NNED0020220722164121EJ  4P0P  00001350000000664200000952432EJ    EJYKBO  006400630015
BI00B32E1    NC2091         202207297254-1884-30             PRIMARY PDB BASE         CCN000000108000000108FN00000000020220801000000108NNMD0220220722135422    4N0N  00000003600001160000001390732E1    SPYSE   005600390040
BI00B32E1    NC2093         202207297254-1884-30             PRIMARY PDB BASE         CCN000000036000000036FN00000000020220801000000036NNMD0220220722135428    4N0N  00000003600001160000001390732E1    SPYSE   005600390040
BI00B32E1    NC2101         202207297254-1884-30             PRIMARY PDB BASE         CCN000000144000000144FN00000000020220901000000144NNMD0020220722135439    4N0N  00000003600001160000001390732E1    SPYSE   005600390040
BI00B32E1    NC2063         202207297254-1884-30             PRIMARY PDB BASE         CCN000000036000000036FN00000000020220501000000036NNMD0420220722135415    4N0N  00000003600001160000001390732E1    SPYSE   005600390040
BI00B32H2    #TIJ2082       202207257183-2415                CONNECTOR HOUSING        CCN000028800000024000FN00000000020220801000024000NNM00020220722121608    2F0F  00000480000000798200001091432H2    HVYHV   005500360039
BI00B32H2    #TIJ2082       202207257287-1915-90             CONNECTOR ASS'Y          CCN000002400000002400FN00000000020220801000002400NNM00020220722121608    2N0N  00000240000000666500000923132H2    HVYHV   005500360039
BI00B32H2    #TIJ2082       202207267183-2415                CONNECTOR HOUSING        CCN000004800000004800FN00000000020220801000004800NNMD0020220722121608    2F0F  00000480000000798200001091432H2    HVYHV   005500360039
BI00B32J1    396580         202209127370-0309                J/B ASS'Y                CCN000002144000002144FN00000000020220801000002144NNED0120220722140224    1J0J  00000001600000870400001260032J1    UKYEL-BL005500360039
BI00B32M1    QA-22-S026     202207277158-3070-80             RUBBER STOPPER           PNY000064000000064000FN00000000020220701000064000NNE   20220722160155    1C0C  00004000000000276000000333332M1    VNYEV   002700430014
BI00A32N1    NST2121HCU     202207257288-3335-30             HOUSING MALE             CCN000004500000004500FN00000000020220801000004500NNED0020220722121608    4N0N  00000150000000867000001012032N1    TAYIPL  005400370024
BI00B32N3    NBT209 C       202208187470-6015                J/B COMPLETE ASS'Y       CCN000001310000001310FN00000000020220801000001310NNED0720220722131227    4J0J  00000001000000494000000661032N3    ABYIPL-B005400360024
BI00A32U9    TPA226         202207257298-1186-40             SQUIB SUB ASS'Y          CCN000050000000050000FN00000000020220701000050000NNMM0020220722121608U9  4N0N  00001000000000650000000774532U9    YNYNA-E 005400370024
BI00A32U9    TPA227         202207257298-1186-40             SQUIB SUB ASS'Y          CCN000050000000050000FN00000000020220701000050000NNMM0020220722121608U9  4N0N  00001000000000650000000774532U9    YNYNA-E 005400370024
BI00A32U9    TPA230         202207257298-1186-40             SQUIB SUB ASS'Y          CCN000020000000020000FN00000000020220701000020000NNMM0020220722121608U9  4N0N  00001000000000650000000774532U9    YNYNA-E 005400370024
BI00A32U9    TPA232         202207257298-1186-40             SQUIB SUB ASS'Y          CCN000020000000020000FN00000000020220801000020000NNMM0020220722121608U9  4N0N  00001000000000650000000774532U9    YNYNA-E 005400370024
BI00A32U9    #TPA237        202207267157-3790-90             WIRE SEAL                CCN000020000000020000FN00000000020221001000020000NNMM0020220722121608U9  2C0C  00002000000000176000000232732U9    YNYNA-E 002700430014
BI00B32W2    HN2208FWMW     202208097B72-5540-80             SEALED WIRE SEAL         CCN000040000000040000FN00000000020220801000040000NNE   20220722121608    1C0C  00002000000000186000000234432W2    HNHNY   004300270014
BI00B32W2    HN2208FWMW     202208097B96-0805-02             TERMINAL FEMALE          CCN000045000000045000FN00000000020220801000045000NNE   20220722121608    4P0P  00002250000000558000000843232W2    HNHNY   006400630015
BI00B32W2    HN2208FWMW     202208097C89-6868-30             SEALED ASSY FEMALE       CCN000015120000015120FN00000000020220801000015120NNE   20220722121608    4N0N  00000252000000839200001119232W2    HNHNY   005500360039
BI00B32W2    HN2208FWMW     202208097116-1685-02             TERMINAL                 CCN000360000000360000FN00000000020220801000360000NNE   20220722121608    4P0P  00002400000000897600001065232W2    HNHNY   005100280028
BI00B32W2    HN2208FWMW     202208097116-4026                TERMINAL                 CCN000016000000016000FN00000000020220801000016000NNE   20220722121608    4P0P  00001600000000664000000994332W2    HNHNY   006400630017
BI00B32W2    HN2208FWMW     202208097116-4037                TERMINAL                 CCN000054000000054000FN00000000020220801000054000NNE   20220722121608    4P0P  00000600000000600000000894232W2    HNHNY   006400630015
BI00B32W2    HN2208FWMW     202208097116-4415-02             TERMINAL                 CCN000342000000342000FN00000000020220801000342000NNE   20220722121608    4P0P  00003800000000596600000925732W2    HNHNY   006400630017
BI00B32W2    HN2208FWMW     202208097116-4416-02             TERMINAL                 CCN000064000000064000FN00000000020220801000064000NNE   20220722121608    4P0P  00003200000000518400000847132W2    HNHNY   006400630017
BI00B32W2    HN2208FWMW     202208097116-6041                TERMINAL                 CCN000022500000022500FN00000000020220801000022500NNE   20220722121608    4P0P  00000450000000716000001009632W2    HNHNY   006400630015
BI00B32W2    HN2208FWMW     202208097126-8853-02             TERMINAL                 CCN000112500000112500FN00000000020220801000112500NNE   20220722121608    4P0P  00000750000000562500000847732W2    HNHNY   006400630015
BI00B32W2    HN2208FWMW     202208097158-3165-90             WIRE SEAL                CCN000120000000120000FN00000000020220801000120000NNE   20220722121608    1C0C  00004000000000124000000172432W2    HNHNY   004300270014
BI00B32W2    HN2208FWMW     202208097158-3166-60             WIRE SEAL                CCN000120000000120000FN00000000020220801000120000NNE   20220722121608    1C0C  00004000000000104000000152432W2    HNHNY   002700430014
BI00B32W2    HN2208FWMW     202208097158-3167-80             WIRE SEAL                CCN000060000000060000FN00000000020220801000060000NNE   20220722121608    1C0C  00002000000000048000000109032W2    HNHNY   002700430014
BI00B32W2    HN2208FWMW     202208097158-3168-80             SEALED                   CCN000040000000040000FN00000000020220801000040000NNE   20220722121608    1C0C  00002000000000044000000092132W2    HNHNY   004300260014
BI00B32W2    HN2208FWMW     202208097158-3169-40             SEALING PLUG             CCN000120000000120000FN00000000020220801000120000NNE   20220722121608    1C0C  00004000000000156000000204132W2    HNHNY   004300260014
BI00B32W2    HN2208FWMW     202208097298-4094-10             HOUSING FEMALE ASS'Y     CCN000010140000010140FN00000000020220801000010140NNE   20220722121608    4N0N  00000338000001097400001358732W2    HNHNY   005400370024
BI00B32W2    HN2208FWMW     202208097327-6533-3W             BATTERY FUSE             CCN000009648000009648FN00000000020220801000009648NNE   20220722121608    4N0N  00000007200001230100001422632W2    HNHNY   005500360039
BI00B32W2    HN2208FWMW     202208097388-0313-30             CONNECTOR ASS'Y          CCN000008400000008400FN00000000020220801000008400NNE   20220722121608    4N0N  00000120000000995000001125032W2    HNHNY   005400370024
BI00B32W2    HN2208FWMW     202208097388-0315-40             CONNECTOR ASS'Y          CCN000007200000007200FN00000000020220801000007200NNE   20220722121608    4N0N  00000120000000999600001129632W2    HNHNY   005400370024
BI00B32W2    HN2208FWMW     202208097388-0317-60             CONNECTOR ASS'Y          CCN000009600000009600FN00000000020220801000009600NNE   20220722121608    4N0N  00000120000001034400001129332W2    HNHNY   005400370024
BI00A32W4    4500194012     202207217283-5548-30             CONNECTOR                CCN000003000000003000FY00000300020220701000000000NNE00020220722104243W4664N0N  00000150000001109000001302032W466  HJYHK   005600390040
BI00A32W4    4500197202     202209017158-3165-90             WIRE SEAL                CCN000040000000040000FN00000000020220901000040000NNE   20220722121608W4521C0C  00004000000000124000000172432W452  HJYHK   004300270014
BI00A32W4    4500197215     202209157116-4231-02             TERMINAL                 CCN000182000000182000FN00000000020220901000182000NNE   20220722121608W4334P0P  00002600000000683800001012532W433  HJYHK   006400630017
BI00A32W4    4500197215     202209157116-4102-02             TERMINAL                 CCN000024000000024000FN00000000020220901000024000NNE   20220722121608W4334P0P  00001200000000553200000841432W433  HJYHK   006400630015
BI00A32W4    4500197215     202209157116-4112-02             TERMINAL                 CCN000012000000012000FN00000000020220901000012000NNE   20220722121608W4334P0P  00000600000000450000000738232W433  HJYHK   006400630015
BI00A32W4    4500197215     202209157114-4100-02             TERMINAL                 CCN000036000000036000FN00000000020220901000036000NNE   20220722121608W4334P0P  00001800000000748800001077432W433  HJYHK   006400630017
BI00A32W4    4500197215     202209157283-5846                HOUSING                  CCN000001500000001500FN00000000020220901000001500NNE   20220722121608W4331N0N  00000150000000885000001102032W433  HJYHK   005600390040
BI00A32W4    #4500197215    202209157282-8395-40             CONNECTOR                CCN000003000000003000FN00000000020220901000003000NNE   20220722121608W4332N0N  00000100000001009000001188032W433  HJYHK   005500360039
BI00A32W4    #4500197215    202209157123-6423-30             CONNECTOR                CCN000002000000002000FN00000000020220901000002000NNE   20220722121608W4332F0F  00000200000001002000001167632W433  HJYHK   005600390023
BI00B32W4    4500197216     202208257116-4031                TERMINAL                 CCN000007500000007500FN00000000020220801000007500NNE   20220722121608W4514P0P  00000750000000619500000904732W451  HJ32W9  006400630015
BI00B32W4    4500197216     202208257222-7484-40             CONNECTOR                CCN000001000000001000FN00000000020220801000001000NNE   20220722121608W4514N0N  00000100000001030000001176032W451  HJ32W9  005500360039
BI00B32W4    4500197216     202208257283-1020                CONNECTOR                CCN000048000000048000FN00000000020220801000048000NNE   20220722121608W4514N0N  00000600000000840000001049332W451  HJ32W9  005600390040
BI00B32W4    4500197216     202208257283-7028-30             CONNECTOR                CCN000009000000009000FN00000000020220801000009000NNE   20220722121608W4514N0N  00000300000001452000001681332W451  HJ32W9  005600390040
BI00B32W4    #4500197216    202208257114-4022                TERMINAL                 CCN000015000000015000FN00000000020220801000015000NNE   20220722121608W4512F0P  00001500000000708000001120632W451  HJ32W9  006400630015
BI00A32W4    4500197230     202210317283-1020                CONNECTOR                CCN000018000000018000FN00000000020221001000018000NNE   20220722121608W4P84N0N  00000600000000840000001049332W4P8  HJYHK-J 005600390040
BI00A32W4    4500197236     202209227116-4100-02             TERMINAL                 CCN000030000000030000FN00000000020220901000030000NNE   20220722121608W4144P0P  00001500000000696000000990232W414  HJYHK   006400630015
BI00A32W4    4500197236     202209227116-4112-02             TERMINAL                 CCN000036000000036000FN00000000020220901000036000NNE   20220722121608W4144P0P  00000600000000450000000738232W414  HJYHK   006400630015
BI00A32W4    4500197236     202209227116-4102-02             TERMINAL                 CCN000012000000012000FN00000000020220901000012000NNE   20220722121608W4144P0P  00001200000000553200000841432W414  HJYHK   006400630015
BI00A32W4    4500197236     202209227114-4100-02             TERMINAL                 CCN000036000000036000FN00000000020220901000036000NNE   20220722121608W4144P0P  00001800000000748800001077432W414  HJYHK   006400630017
BI00A32W4    4500197236     202209227158-3167-80             WIRE SEAL                CCN000020000000020000FN00000000020220901000020000NNE   20220722121608W4141C0C  00002000000000048000000109032W414  HJYHK   002700430014
BI00B32W6    SW2209AQMW     202208177116-4032                TERMINAL                 CCN000012000000012000FN00000000020220901000012000NNE   20220722121608    4P0P  00000600000000532800000818032W6    SYSYA-WJ006400630015
BI00B32W6    SW2209AQMW     202208177116-4415-02             TERMINAL                 CCN000190000000190000FN00000000020220901000190000NNE   20220722121608    4P0P  00003800000000596600000925732W6    SYSYA-WJ006400630017
BI00B32W6    SW2209AQMW     202208177116-6041                TERMINAL                 CCN000063000000063000FN00000000020220901000063000NNE   20220722121608    4P0P  00000450000000716000001009632W6    SYSYA-WJ006400630015
BI00B32W6    SW2209AQMW     202208177126-8853-02             TERMINAL                 CCN000060000000060000FN00000000020220901000060000NNE   20220722121608    4P0P  00000750000000562500000847732W6    SYSYA-WJ006400630015
BI00B32W6    SW2209AQMW     202208177158-3070-80             RUBBER STOPPER           CCN000040000000040000FN00000000020220901000040000NNE   20220722121608    1C0C  00004000000000276000000333332W6    SYSYA-WJ002700430014
BI00B32W6    SW2209AQMW     202208177172-5540-80             SEALED WIRE SEAL         CCN000060000000060000FN00000000020220901000060000NNE   20220722121608    1C0C  00002000000000186000000234432W6    SYSYA-WJ004300270014
BI00B32W6    SW2209AQMW     202208177196-0805-02             TERMINAL FEMALE          CCN000045000000045000FN00000000020220901000045000NNE   20220722121608    4P0P  00002250000000558000000843232W6    SYSYA-WJ006400630015
BI00B32W6    SW2209AQMW     202208177196-1326-02             TERMINAL FEMALE          CCN000060000000060000FN00000000020220901000060000NNE   20220722121608    4P0P  00006000000000456000000784732W6    SYSYA-WJ006400630017
BI00B32W6    SW2209AQMW     202208177296-0784-02             TERMINAL ALUMINIUM       CCN000024000000024000FN00000000020220901000024000NNE   20220722121608    4P0P  00002400000000480000000765232W6    SYSYA-WJ006400630015
BI00B32W6    SW2209AQMW     202208177298-3822-70             HOUSING FEMALE ASS'Y     CCN000020160000020160FN00000000020220901000020160NNE   20220722121608    4N0N  00000252000000776200001077032W6    SYSYA-WJ005500360039
BI00B32W6    SW2209AQMW     202208177327-6832-60             MAIN FUSE                CCN000008400000008400FN00000000020220901000008400NNE   20220722121608    4N0N  00000060000000729200000930732W6    SYSYA-WJ005400370024
BI00B32W6    SW2209AQMW     202208177386-9155                CONNECTOR MALE ASS'Y     CCN000002400000002400FN00000000020220901000002400NNE   20220722121608    4N0N  00000060000001244400001369932W6    SYSYA-WJ005400370024
BI00B32W6    SW2209AQMW     202208177388-0316-80             CONNECTOR ASS'Y          CCN000009600000009600FN00000000020220901000009600NNE   20220722121608    4N0N  00000120000001002500001132532W6    SYSYA-WJ005400370024
BI00B32W6    #SW2209AQMW    202208177158-3007-10             RUBBER STOPPER           CCN000020000000020000FN00000000020220901000020000NNE   20220722121608    2H0H  00002000000000308000000362732W6    SYSYA-WJ002700430014
BI00B32W6    #SW2209AQMW    202208177172-5632-10             DUMMY PLUG               CCN000040000000040000FN00000000020220901000040000NNE   20220722121608    2H0H  00002000000000080400000131832W6    SYSYA-WJ004300270014
BI00B32W6    #SW2209AQMW    202208177198-1371-60             HOUSING FEMALE           CCN000010000000010000FN00000000020220901000010000NNE   20220722121608    2F0F  00000200000000597800000721232W6    SYSYA-WJ005400370024
BI00B32W6    #SW2209AQMW    202208177198-1372                HOUSING FEMALE           CCN000010000000010000FN00000000020220901000010000NNE   20220722121608    2F0F  00000200000000857200000982232W6    SYSYA-WJ005400370024
BI00B32W6    #SW2209AQMW    202208177198-1373-60             HOUSING FEMALE           CCN000010000000010000FN00000000020220901000010000NNE   20220722121608    2F0F  00000200000000819400000947432W6    SYSYA-WJ005400370024
BI00B32W6    #SW2209AQMW    202208177198-2458                HOUSING FEMALE           CCN000008800000008800FN00000000020220901000008800NNE   20220722121608    2F0F  00000176000000869100001160532W6    SYSYA-WJ005400370024
BI00B32W6    #SW2209AQMW    202208177298-2459-60             LIF FEMALE ASSEMBLY      CCN000007728000007728FN00000000020220901000007728NNE   20220722121608    2N0N  00000016800000534000000729632W6    SYSYA-WJ005400370024
BI00B32W9    4500197030     202208167282-6568-40             CONNECTOR                CCN000019000000019000FN00000000020220701000019000NNED0720220722165750W9  4N0N  00000100000001206000001370732W9    HKYHK   005500360039
BI00B32W9    4500197240     202208097116-4111-02             TERMINAL                 CCN000015000000015000FN00000000020220801000015000NNE   20220722121608W9  4P0P  00000750000000529500000817732W9    HKYHK   006400630015
BI00B32W9    4500197243     202208307116-4111-02             TERMINAL                 CCN000022500000022500FN00000000020220801000022500NNE   20220722121608W9  4P0P  00000750000000529500000817732W9    HKYHK   006400630015
BI00B32W9    4500197243     202208307114-4111-02             TERMINAL                 CCN000012000000012000FN00000000020220801000012000NNE   20220722121608W9  4P0P  00001200000000758400001087032W9    HKYHK   006400630017
BI00B32W9    4500197243     202208307114-4100-02             TERMINAL                 CCN000018000000018000FN00000000020220801000018000NNE   20220722121608W9  4P0P  00001800000000748800001077432W9    HKYHK   006400630017
BI00B32W9    4500197246     202208307116-4025                TERMINAL                 CCN000032000000032000FN00000000020220801000032000NNE   20220722121608W9  4P0P  00001600000000644800000975132W9    HKYHK   006400630017
BI00B32W9    4500197249     202208307158-3006-90             RUBBER STOPPER           CCN000040000000040000FN00000000020220801000040000NNE   20220722121608W9  1C0C  00002000000000330600000386032W9    HKYHK   002700430014
BI00B32W9    4500197250     202208307283-7029                CONNECTOR                CCN000006000000006000FN00000000020220801000006000NNE   20220722121608W9  1N0N  00000600000001060200001181032W9    HKYHK   005600390023
BI00A32X5    PX5TAT207A     202208057195-1479-02             TERMINAL MALE            CCN000024000000024000FN00000000020220701000024000NNED0720220722121608X5  4P0P  00002400000000420000000714232X5    EPYNA-E 006400630015
