BI00B32CJ    TTQ2094        2022090218000004530              AV 8 B                   CCN000002200000000000FY00000000020220901000000000NNM11 20220722133855    1W    00000010000010466200000000032CJ    QNYHVQN 000000000000UQ328026
BI00B32CJ    @TTQ2093       20220826181E48029ZZ              CAVSAS-S 0.5X4 GY        CCN000000800000000000FY00000000020220901000000000NNM11 20220722133452    1W    00000020000003995000000000032CJ    QNYHVQN 000000000000UQ228022
BI00B32DE    TT209B         2022082518007703960              AVSS 0.5F G              CCN000001500000001500FN00000000020220901000001500NNE   20220722153351    1W    00000150000000674000000000032DE    TVYEV-TV000000000000VW128011
BI00B32DE    TT209B         2022082518007703941              AVSS 0.5F GY             CCN000001500000001500FN00000000020220901000001500NNE   20220722153351    1W    00000150000000674000000000032DE    TVYEV-TV000000000000VW128012
BI00B32DE    TT209B         2022082518007703990              AVSS 0.5F L              CCN000001500000001500FN00000000020220901000001500NNE   20220722153351    1W    00000150000000674000000000032DE    TVYEV-TV000000000000VW128013
BI00B32DE    TT209B         2022082518007703940              AVSS 0.5F W              CCN000001500000001500FN00000000020220901000001500NNE   20220722153351    1W    00000150000000674000000000032DE    TVYEV-TV000000000000VW128014
BI00B32DE    TT209B         2022082518007704190              AVSS 1.25F L             CCN000001600000001600FN00000000020220901000001600NNE   20220722153351    1W    00000080000001389000000000032DE    TVYEV-TV000000000000VW128015
BI00B32DE    TT209B         2022082518007704152              AVSS 1.25F P             CCN000003200000003200FN00000000020220901000003200NNE   20220722153351    1W    00000080000001389000000000032DE    TVYEV-TV000000000000VW128016
BI00B32DE    TT209B         2022082518007704192              AVSS 1.25F V             CCN000001600000001600FN00000000020220901000001600NNE   20220722153351    1W    00000080000001389000000000032DE    TVYEV-TV000000000000VW128017
BI00B32DE    TT209B         2022082518007704140              AVSS 1.25F W             CCN000004000000004000FN00000000020220901000004000NNE   20220722153351    1W    00000080000001389000000000032DE    TVYEV-TV000000000000VW128018
BI00B32DE    TT209B         20220825180D0203960              AVSSH 0.5F G             CCN000003000000003000FN00000000020220901000003000NNE   20220722153351    1W    00000150000000689000000000032DE    TVYEV-TV000000000000VW128004
BI00B32DE    TT209B         20220825180D0203941              AVSSH 0.5F GY            CCN000006000000006000FN00000000020220901000006000NNE   20220722153351    1W    00000150000000689000000000032DE    TVYEV-TV000000000000VW128005
BI00B32DE    TT209B         20220825180D0203952              AVSSH 0.5F P             CCN000004500000004500FN00000000020220901000004500NNE   20220722153351    1W    00000150000000689000000000032DE    TVYEV-TV000000000000VW128006
BI00B32DE    TT209B         20220825180D0203950              AVSSH 0.5F R             CCN000001500000001500FN00000000020220901000001500NNE   20220722153351    1W    00000150000000689000000000032DE    TVYEV-TV000000000000VW128007
BI00B32DE    TT209B         20220825180D0203992              AVSSH 0.5F V             CCN000001500000001500FN00000000020220901000001500NNE   20220722153351    1W    00000150000000689000000000032DE    TVYEV-TV000000000000VW128008
BI00B32DE    TT209B         20220825180D0203970              AVSSH 0.5F Y             CCN000010500000010500FN00000000020220901000010500NNE   20220722153351    1W    00000150000000689000000000032DE    TVYEV-TV000000000000VW128009
BI00B32DE    TT209B         20220825180D0204180              AVSSH 1.25F BR           CCN000000800000000800FN00000000020220901000000800NNE   20220722153351    1W    00000080000001458000000000032DE    TVYEV-TV000000000000VW128010
BI00B32DE    @TT209B        20220825181E50010ZZ              AVSSCS-S 0.5FX2 DGY/P    CCN000001500000001500FN00000000020220901000001500NNE   20220722153350    1W    00000030000003096000000000032DE    TVYEV-TV000000000000VW128001
BI00B32DE    @TT209B        20220825181F21003ZZ              AVSSHCS-S 0.5FX1 B/W     CCN000002000000002000FN00000000020220901000002000NNE   20220722153350    1W    00000040000001908400000000032DE    TVYEV-TV000000000000VW128002
BI00B32DE    @TT209B        20220825181F21014ZZ              AVSSHCS-S 0.5FX2 B/L     CCN000000300000000300FN00000000020220901000000300NNE   20220722153350    1W    00000030000002531400000000032DE    TVYEV-TV000000000000VW128003
BI00B32GE    DHTW2242       2022082518000004530              AV 8 B                   CCN000030400000030400FN00000000020221001000030400NNE   20220722153952    1W    00000010000010466200000000032GE    GEYKHT  000000000000RA228062
BI00B32GE    DHTW2242       2022082518000004534              AV 8 B/W                 CCN000004000000004000FN00000000020221001000004000NNE   20220722153952    1W    00000010000010466200000000032GE    GEYKHT  000000000000RA228064
BI00B32GE    DHTW2242       2022082518000004535              AV 8 B/R                 CCN000004400000004400FN00000000020221001000004400NNE   20220722153952    1W    00000010000010466200000000032GE    GEYKHT  000000000000RA228063
BI00B32GE    DHTW2242       2022082518000004540              AV 8 W                   CCN000019100000019100FN00000000020221001000019100NNE   20220722153952    1W    00000010000010466200000000032GE    GEYKHT  000000000000RA228067
BI00B32GE    DHTW2242       2022082518000004543              AV 8 W/B                 CCN000012800000012800FN00000000020221001000012800NNE   20220722153952    1W    00000010000010466200000000032GE    GEYKHT  000000000000RA228068
BI00B32GE    DHTW2242       2022082518000004550              AV 8 R                   CCN000000400000000400FN00000000020221001000000400NNE   20220722153952    1W    00000010000010466200000000032GE    GEYKHT  000000000000RA228066
BI00B32GE    DHTW2242       2022082518000004590              AV 8 L                   CCN000004700000004700FN00000000020221001000004700NNE   20220722153952    1W    00000010000010466200000000032GE    GEYKHT  000000000000RA228065
BI00B32GE    @DHTW2242      20220825181AD2002ZZ              CIVUSAS-S 0.35X2 B       CCN000029250000029250FN00000000020221001000029250NNE   20220722153951    1W    00000045000001713700000000032GE    GEYKHT  000000000000RA228034
BI00B32GE    @DHTW2242      20220825181AD2003ZZ              CIVUSAS-S 0.35X3 B       CCN000015500000015750FN00000000020221001000015750NNE   20220722153951    1W    00000035000002172100000000032GE    GEYKHT  000000000000RA228035
BI00B32GE    @DHTW2242      20220825181AD2004ZZ              CIVUSAS-S 0.35X4 B       CCN000037600000037800FN00000000020221001000037800NNE   20220722153951    1W    00000030000002799900000000032GE    GEYKHT  000000000000RA228036
BI00B32GE    @DHTW2242      20220825181E48031ZZ              CAVSAS-S 0.3X2 GY        CCN000007000000007000FN00000000020221001000007000NNE   20220722153951    1W    00000035000002008700000000032GE    GEYKHT  000000000000RA228037
BI00B32GE    @DHTW2242      20220825181E48037ZZ              CAVSAS-S 0.3X4 GY        CCN000011500000011500FN00000000020221001000011500NNE   20220722153951    1W    00000025000003262000000000032GE    GEYKHT  000000000000RA228039
BI00B32GE    @DHTW2242      20220825181E48041ZZ              CAVSAS-S 0.3X2 GY/R      CCN000008050000008050FN00000000020221001000008050NNE   20220722153951    1W    00000035000002008700000000032GE    GEYKHT  000000000000RA228038
BI00B32GE    @DHTW2242      20220825181E50002ZZ              AVSSCS-S 0.3FX2 DGY/G    CCN000007350000007350FN00000000020221001000007350NNE   20220722153951    1W    00000035000002165000000000032GE    GEYKHT  000000000000RA228045
BI00B32GE    @DHTW2242      20220825181E50004ZZ              AVSSCS-S 0.5FX1 DGY      CCN000023600000023600FN00000000020221001000023600NNE   20220722153951    1W    00000040000001909700000000032GE    GEYKHT  000000000000RA228040
BI00B32GE    @DHTW2242      20220825181E50005ZZ              AVSSCS-S 0.5FX1 DGY/W    CCN000012400000012400FN00000000020221001000012400NNE   20220722153951    1W    00000040000001909700000000032GE    GEYKHT  000000000000RA228042
BI00B32GE    @DHTW2242      20220825181E50007ZZ              AVSSCS-S 0.5FX1 DGY/L    CCN000008800000008800FN00000000020221001000008800NNE   20220722153951    1W    00000040000001909700000000032GE    GEYKHT  000000000000RA228041
BI00B32GE    @DHTW2242      20220825181E50016ZZ              AVSSCS-S 0.5FX2 DGY/R    CCN000003300000003300FN00000000020221001000003300NNE   20220722153951    1W    00000030000003096000000000032GE    GEYKHT  000000000000RA228043
BI00B32GE    @DHTW2242      20220825181E50020ZZ              AVSSCS-S 0.3FX2 DGY/R    CCN000004550000004550FN00000000020221001000004550NNE   20220722153951    1W    00000035000002165000000000032GE    GEYKHT  000000000000RA228047
BI00B32GE    @DHTW2242      20220825181E50021ZZ              AVSSCS-S 0.3FX2 DGY/P    CCN000005250000005250FN00000000020221001000005250NNE   20220722153951    1W    00000035000002165000000000032GE    GEYKHT  000000000000RA228046
BI00B32GE    @DHTW2242      20220825181E50036ZZ              AVSSCS-S 0.3FX2 DGY      CCN000008050000008050FN00000000020221001000008050NNE   20220722153951    1W    00000035000002165000000000032GE    GEYKHT  000000000000RA228044
BI00B32GE    @DHTW2242      20220825181F21014ZZ              AVSSHCS-S 0.5FX2 B/L     CCN000009900000009900FN00000000020221001000009900NNE   20220722153951    1W    00000030000002531400000000032GE    GEYKHT  000000000000RA228048
BI00B32H2    TAW2093        2022082618000004540              AV 8 W                   CCN000001100000000600FN00000000020220901000000600NNM11 20220722160543    1W    00000010000010466200000000032H2    HVYHV   000000000000UH228070
BI00B32H2    TAW2093        20220826180D0204190              AVSSH 1.25F L            CCN000000800000000000FY00000000020220901000000000NNM11 20220722160600    1W    00000080000001458000000000032H2    HVYHV   000000000000UH228066
BI00B32H2    @TAW2094       20220902181B32102S1              AVSSCS 0.5FX2 DGY        CCN000009000000007800FN00000000020220901000007800NNM11 20220722162159    1W    00000030000002903000000000032H2    HVYHV   000000000000UH328055
BI00B32H2    @TAW2094       20220902181AD2002ZZ              CIVUSAS-S 0.35X2 B       CCN000014850000000000FY00000000020220901000000000NNM11 20220722162235    1W    00000045000001713700000000032H2    HVYHV   000000000000UH328052
BI00B32H2    @TAW2093       20220826181AD2003ZZ              CIVUSAS-S 0.35X3 B       CCN000044450000000000FY00000000020220901000000000NNM11 20220722160733    1W    00000035000002172100000000032H2    HVYHV   000000000000UH228054
BI00B32H2    @TAW2094       20220902181AD2004ZZ              CIVUSAS-S 0.35X4 B       CCN000034200000000000FY00000000020220901000000000NNM11 20220722162257    1W    00000030000002799900000000032H2    HVYHV   000000000000UH328054
BI00B32H2    @TAW2093       20220826181AD2024ZZ              CIVUSAS-S 0.13X3 B       CCN000004000000003500FN00000000020220901000003500NNM11 20220722160749    1W    00000050000001297300000000032H2    HVYHV   000000000000UH228050
BI00B32H2    @TAW2094       20220902181AD2024ZZ              CIVUSAS-S 0.13X3 B       CCN000004000000003500FN00000000020220901000003500NNM11 20220722162314    1W    00000050000001297300000000032H2    HVYHV   000000000000UH328048
BI00B32H2    @TAW2094       20220902181AD2025ZZ              CIVUSAS-S 0.13X4 B       CCN000001200000000000FY00000000020220901000000000NNM11 20220722162346    1W    00000040000001661800000000032H2    HVYHV   000000000000UH328049
BI00B32R7    R-TAP220308    2022072718009603950              AVS 0.5 R                CCN000001000000001000FN00000000020220801000001000NNE   20220722164107    1W    00000100000000850000000000032R7    IVYCIC  000000000000SO227001
BI00B32R7    R-TAP220308    2022072718009603970              AVS 0.5 Y                CCN000001000000001000FN00000000020220801000001000NNE   20220722164107    1W    00000100000000850000000000032R7    IVYCIC  000000000000SO227002
