AE00TI102209250225/09/202200000001300000000000000003588KGM  00000004329KGM  7B58-3070-80             RUBBER STOPPER           7B58307080               0         0         0         0    0    0    00052000000004000000000012000062400000
AE00TI102209250225/09/202200000001200000000000000002046KGM  00000002627KGM  7137-3047-30             UNIT PACKING             7137304730               0         0         0         0    0    0    00001200000000100000000189000022680000
AE00TI102209250225/09/202200000003700000000000000012232KGM  00000014282KGM  7158-3006-90             RUBBER STOPPER           7158300690               0         0         0         0    0    0    00074000000002000000000016000118400000
AE00TI102209250225/09/202200000002200000000000000007436KGM  00000008496KGM  7158-3009-60             RUBBER STOPPER           7158300960               0         0         0         0    0    0    00044000000002000000000012000052800000
AE00TI102209250225/09/202200000002300000000000000006348KGM  00000007666KGM  7158-3070-80             RUBBER STOPPER           7158307080               0         0         0         0    0    0    00092000000004000000000008000073600000
AE00TI102209250225/09/202200000003700000000000000003848KGM  00000005639KGM  7158-3166-60             WIRE SEAL                7158316660               0         0         0         0    0    0    00148000000004000000000004000059200000
AE00TI102209250225/09/202200000008100000000000000003888KGM  00000008829KGM  7158-3167-80             WIRE SEAL                7158316780               0         0         0         0    0    0    00162000000002000000000005000081000000
AE00TI102209250225/09/202200000002600000000000000001144KGM  00000002395KGM  7158-3168-80             SEALED                   7158316880               0         0         0         0    0    0    00052000000002000000000004000020800000
AE00TI102209250225/09/202200000001600000000000000002496KGM  00000003266KGM  7158-3169-40             SEALING PLUG             7158316940               0         0         0         0    0    0    00064000000004000000000006000038400000
AE00TI102209250225/09/202200000003800000000000000007068KGM  00000008907KGM  7172-5540-80             SEALED WIRE SEAL         7172554080               0         0         0         0    0    0    00076000000002000000000010000076000000
AE00TI102209250225/09/202200000000100000000000000000866KGM  00000001011KGM  7288-3331-30             HOUSING MALE             7288333130               0         0         0         0    0    0    00000150000000150000000354000005310000
AE00TI102209250225/09/202200000000400000000000000003468KGM  00000004048KGM  7288-3337-30             HOUSING MALE             7288333730               0         0         0         0    0    0    00000600000000150000000354000021240000
AE00TI102209250225/09/202200000000200000000000000002411KGM  00000002681KGM  7288-6547                CONNECTOR MALE ASS'Y     72886547                 0         0         0         0    0    0    00000150000000075000001125000016875000
AE00TI102209250225/09/202200000001900000000000000013042KGM  00000017127KGM  7289-3342-30             HOUSING FEMALE ASS'Y     7289334230               0         0         0         0    0    0    00004560000000240000000191000087096000
AE00TI102209250225/09/202200000002400000000000000017808KGM  00000026928KGM  7388-2978-30             HOUSING MALE ASS'Y       7388297830               0         0         0         0    0    0    00001152000000048000001790000206208000
