AE00TI102209250125/09/202200000003800000000000000026083KGM  00000034253KGM  7289-3342-30             HOUSING FEMALE ASS'Y     7289334230               0         0         0         0    0    0    00009120000000240000000191000174192000
AE00TI102209250125/09/202200000000100000000000000001109KGM  00000001522KGM  7289-9553-30             SEALED ASSY FEMALE       7289955330               0         0         0         0    0    0    00000294000000294000000245000007203000
AE00TI102209250125/09/202200000000400000000000000003926KGM  00000005160KGM  7298-5993-30             SEALED ASSY FEMALE       7298599330               0         0         0         0    0    0    00000873600000218400000266000023237760
AE00TI102209250125/09/202200000002300000000000000025519KGM  00000028971KGM  7327-6424-4W             BATTERY FUSE             732764244W               0         0         0         0    0    0    00000220800000009600007969000175955520
AE00TI102209250125/09/202200000003200000000000000036509KGM  00000043389KGM  7327-6840-3W             BATTERY FUSE             732768403W               0         0         0         0    0    0    00000230400000007200009909000228303360
AE00TI102209250125/09/202200000002200000000000000016324KGM  00000024684KGM  7388-2978-30             HOUSING MALE ASS'Y       7388297830               0         0         0         0    0    0    00001056000000048000001790000189024000
