AE00TI102209140514/09/202200000000100000000000000000105KGM  00000000183KGM  7157-7811-80             SEAL RUBBER              7157781180               0         0         0         0    0    0    00001000000001000000000055000005500000
AE00TI102209140514/09/202200000000300000000000000000750KGM  00000000918KGM  7158-3003-90             RUBBER STOPPER           7158300390               0         0         0         0    0    0    00006000000002000000000012000007200000
AE00TI102209140514/09/202200000000200000000000000001459KGM  00000001666KGM  7182-2412                HOUSING MALE             71822412                 0         0         0         0    0    0    00000100000000050000000638000006380000
AE00TI102209140514/09/202200000000100000000000000000558KGM  00000000837KGM  7183-1616-30             CONNECTOR HOUSING        7183161630               0         0         0         0    0    0    00000240000000240000000082000001968000
AE00TI102209140514/09/202200000000400000000000000003038KGM  00000004098KGM  7187-3356                JOINT CONNECTOR          71873356                 0         0         0         0    0    0    00000480000000120000001038000049824000
AE00TI102209140514/09/202200000000300000000000000002286KGM  00000003088KGM  7187-3357-40             JOINT CONNECTOR          7187335740               0         0         0         0    0    0    00000360000000120000001059000038124000
AE00TI102209140514/09/202200000000300000000000000002290KGM  00000003091KGM  7187-3359-60             JOINT CONNECTOR          7187335960               0         0         0         0    0    0    00000360000000120000001079000038844000
AE00TI102209140514/09/202200000000700000000000000003206KGM  00000004064KGM  7282-1024                HOUSING MALE             72821024                 0         0         0         0    0    0    00000700000000100000000534000037380000
AE00TI102209140514/09/202200000000900000000000000007043KGM  00000008933KGM  7282-4578                HOUSING MALE ASS'Y       72824578                 0         0         0         0    0    0    00001080000000120000000255000027540000
AE00TI102209140514/09/202200000000500000000000000005316KGM  00000006416KGM  7282-4855                HOUSING MALE ASS'Y       72824855                 0         0         0         0    0    0    00000600000000120000000347000020820000
AE00TI102209140514/09/202200000000100000000000000000230KGM  00000000339KGM  7282-5528-70             HOUSING MALE ASS'Y       7282552870               0         0         0         0    0    0    00000100000000100000000434000004340000
AE00TI102209140514/09/202200000000200000000000000001303KGM  00000001743KGM  7283-4576                HOUSING FEMALE ASS'Y     72834576                 0         0         0         0    0    0    00000960000000480000000128000012288000
AE00TI102209140514/09/202200000000200000000000000001675KGM  00000002115KGM  7283-4578                HOUSING FEMALE ASS'Y     72834578                 0         0         0         0    0    0    00000480000000240000000190000009120000
AE00TI102209140514/09/202200000000200000000000000001908KGM  00000002208KGM  7283-5830                CONNECTOR                72835830                 0         0         0         0    0    0    00001200000000600000000154000018480000
AE00TI102209140514/09/202200000000200000000000000001908KGM  00000002208KGM  7283-5830-30             CONNECTOR                7283583030               0         0         0         0    0    0    00001200000000600000000155000018600000
AE00TI102209140514/09/202200000000400000000000000003556KGM  00000004528KGM  7283-5843                CONNECTOR                72835843                 0         0         0         0    0    0    00000600000000150000000280000016800000
AE00TI102209140514/09/202200000000500000000000000002220KGM  00000003032KGM  7283-5845                CONNECTOR HOUSING        72835845                 0         0         0         0    0    0    00003000000000600000000133000039900000
AE00TI102209140514/09/202200000000100000000000000000444KGM  00000000606KGM  7283-5845-30             CONNECTOR HOUSING        7283584530               0         0         0         0    0    0    00000600000000600000000133000007980000
AE00TI102209140514/09/202200000000700000000000000006195KGM  00000007714KGM  7283-5846                HOUSING                  72835846                 0         0         0         0    0    0    00001050000000150000000241000025305000
AE00TI102209140514/09/202200000000100000000000000000914KGM  00000001143KGM  7283-6120                CONNECTOR HOUSING        72836120                 0         0         0         0    0    0    00000150000000150000000368000005520000
AE00TI102209140514/09/202200000000400000000000000001400KGM  00000001850KGM  7283-8721-30             HOUSING FEMALE ASS'Y     7283872130               0         0         0         0    0    0    00000400000000100000000415000016600000
AE00TI102209140514/09/202200000000700000000000000006374KGM  00000007914KGM  7286-3885                CONNECTOR MALE ASS'Y     72863885                 0         0         0         0    0    0    00000840000000120000000295000024780000
AE00TI102209140514/09/202200000000100000000000000000768KGM  00000000978KGM  7286-4097                CONNECTOR MALE ASS'Y     72864097                 0         0         0         0    0    0    00000160000000160000000196000003136000
AE00TI102209140514/09/202200000000100000000000000001061KGM  00000001313KGM  7287-1917                CONNECTOR FEMALE         72871917                 0         0         0         0    0    0    00000240000000240000000253000006072000
AE00TI102209140514/09/202200000000600000000000000006178KGM  00000007498KGM  7287-3885                HYBRID FEMALE ASS'Y      72873885                 0         0         0         0    0    0    00001440000000240000000207000029808000
AE00TI102209140514/09/202200000000600000000000000006178KGM  00000007498KGM  7287-3885-30             HYBRID FEMALE ASS'Y      7287388530               0         0         0         0    0    0    00001440000000240000000215000030960000
AE00TI102209140514/09/202200000000100000000000000001030KGM  00000001250KGM  7287-3885-40             HYBRID FEMALE ASS'Y      7287388540               0         0         0         0    0    0    00000240000000240000000216000005184000
AE00TI102209140514/09/202200000000600000000000000007330KGM  00000008650KGM  7287-8072                HOUSING FEMALE ASS'Y     72878072                 0         0         0         0    0    0    00001440000000240000000247000035568000
AE00TI102209140514/09/202200000000600000000000000006998KGM  00000008318KGM  7287-8073                HOUSING FEMALE ASS'Y     72878073                 0         0         0         0    0    0    00001440000000240000000244000035136000
AE00TI102209140514/09/202200000000300000000000000003686KGM  00000004346KGM  7287-8999                HOUSING FEMALE ASS'Y     72878999                 0         0         0         0    0    0    00001440000000480000000163000023472000
AE00TI102209140514/09/202200000000200000000000000002458KGM  00000002898KGM  7287-9000                HOUSING FEMALE ASS'Y     72879000                 0         0         0         0    0    0    00000960000000480000000162000015552000
AE00TI102209140514/09/202200000000700000000000000002713KGM  00000005513KGM  7288-3206                HOUSING MALE ASS'Y       72883206                 0         0         0         0    0    0    00000714000000102000000351000025061400
AE00TI102209140514/09/202200000001500000000000000010296KGM  00000013521KGM  7289-3342                HOUSING FEMALE ASS'Y     72893342                 0         0         0         0    0    0    00003600000000240000000186000066960000
AE00TI102209140514/09/202200000001000000000000000006864KGM  00000009014KGM  7289-3342-40             HOUSING FEMALE ASS'Y     7289334240               0         0         0         0    0    0    00002400000000240000000192000046080000
AE00TI102209140514/09/202200000002000000000000000013728KGM  00000018028KGM  7289-3342-90             HOUSING FEMALE ASS'Y     7289334290               0         0         0         0    0    0    00004800000000240000000196000094080000
AE00TI102209140514/09/202200000000200000000000000002304KGM  00000002724KGM  7289-6547                HOUSING FEMALE ASS'Y     72896547                 0         0         0         0    0    0    00000480000000240000000229000010992000
AE00TI102209140514/09/202200000000200000000000000002558KGM  00000003187KGM  7289-7208-30             HOUSING FEMALE ASS'Y     7289720830               0         0         0         0    0    0    00000048000000024000004419000021211200
AE00TI102209140514/09/202200000000300000000000000003920KGM  00000004865KGM  7289-7211-30             HOUSING FEMALE ASS'Y     7289721130               0         0         0         0    0    0    00000072000000024000004728000034041600
AE00TI102209140514/09/202200000001400000000000000018480KGM  00000021980KGM  7470-3082                J/B COMPLETE ASS'Y       74703082                 0         0         0         0    0    0    00000033600000002400031298000105161280
AE00TI102209140514/09/202200000000400000000000000005280KGM  00000006280KGM  7470-4481                J/B COMPLETE ASS'Y       74704481                 0         0         0         0    0    0    00000009600000002400000000000000000000
AE00TI102209140514/09/202200000002800000000000000000000KGM  00000000000KGM  7470-5783D               J/B COMPLETE ASS'Y       74705783D                0         0         0         0    0    0    00000042000000001500000000000000000000
AE00TI102209140514/09/202200000003600000000000000000000KGM  00000000000KGM  7470-5784E               J/B COMPLETE ASS'Y       74705784E                0         0         0         0    0    0    00000036000000001000000000000000000000
AE00TI102209140614/09/202200000003800000000000000012563KGM  00000014668KGM  7158-3006-90             RUBBER STOPPER           7158300690               0         0         0         0    0    0    00076000000002000000000016000121600000
AE00TI102209140614/09/202200000002100000000000000007098KGM  00000008110KGM  7158-3009-60             RUBBER STOPPER           7158300960               0         0         0         0    0    0    00042000000002000000000012000050400000
AE00TI102209140614/09/202200000000200000000000000000887KGM  00000001004KGM  7158-3023                RUBBER STOPPER           71583023                 0         0         0         0    0    0    00001000000000500000000078000007800000
AE00TI102209140614/09/202200000000700000000000000000868KGM  00000001207KGM  7158-3165-90             WIRE SEAL                7158316590               0         0         0         0    0    0    00028000000004000000000006000016800000
AE00TI102209140614/09/202200000001300000000000000001352KGM  00000001981KGM  7158-3166-60             WIRE SEAL                7158316660               0         0         0         0    0    0    00052000000004000000000004000020800000
AE00TI102209140614/09/202200000003900000000000000001872KGM  00000004251KGM  7158-3167-80             WIRE SEAL                7158316780               0         0         0         0    0    0    00078000000002000000000005000039000000
AE00TI102209140614/09/202200000000300000000000000000468KGM  00000000612KGM  7158-3169-40             SEALING PLUG             7158316940               0         0         0         0    0    0    00012000000004000000000006000007200000
AE00TI102209140614/09/202200000000200000000000000001736KGM  00000002136KGM  7173-3291-40             LIF LEVER                7173329140               0         0         0         0    0    0    00000480000000240000000142000006816000
AE00TI102209140614/09/202200000001500000000000000010296KGM  00000013521KGM  7289-3342-30             HOUSING FEMALE ASS'Y     7289334230               0         0         0         0    0    0    00003600000000240000000191000068760000
AE00TI102209140614/09/202200000000200000000000000002343KGM  00000002737KGM  7289-5011-30             HOUSING FEMALE ASS'Y     7289501130               0         0         0         0    0    0    00000480000000240000000333000015984000
AE00TI102209140614/09/202200000000400000000000000005158KGM  00000006158KGM  7289-6597-70             HOUSING FEMALE ASS'Y     7289659770               0         0         0         0    0    0    00000864000000216000000616000053222400
AE00TI102209140614/09/202200000000700000000000000007757KGM  00000010644KGM  7289-9553-50             SEALED ASSY FEMALE       7289955350               0         0         0         0    0    0    00002058000000294000000252000051861600
AE00TI102209140614/09/202200000000300000000000000002945KGM  00000003870KGM  7298-5993-30             SEALED ASSY FEMALE       7298599330               0         0         0         0    0    0    00000655200000218400000266000017428320
AE00TI102209140614/09/202200000000400000000000000004438KGM  00000005038KGM  7327-6572-3W             BATTERY FUSE             732765723W               0         0         0         0    0    0    00000038400000009600008162000031342080
AE00TI102209140614/09/202200000000100000000000000000933KGM  00000001133KGM  7327-6769-3W             BATTERY FUSE             732767693W               0         0         0         0    0    0    00000009600000009600008902000008545920
AE00TI102209140614/09/202200000003500000000000000025970KGM  00000039270KGM  7388-2978-30             HOUSING MALE ASS'Y       7388297830               0         0         0         0    0    0    00001680000000048000001790000300720000
AE00TI102209140614/09/202200000000300000000000000000000KGM  00000000000KGM  7470-4816E               J/B COMPLETE ASS'Y       74704816E                0         0         0         0    0    0    00000003000000001000000000000000000000
AE00TI102209140614/09/202200000001300000000000000000000KGM  00000000000KGM  7470-4818E               J/B COMPLETE ASS'Y       74704818E                0         0         0         0    0    0    00000013000000001000000000000000000000
AE00TI102209140614/09/202200000001200000000000000000000KGM  00000000000KGM  7470-5300D               J/B COMPLETE ASS'Y       74705300D                0         0         0         0    0    0    00000012000000001000000000000000000000
AE00TI102209140614/09/202200000001000000000000000000000KGM  00000000000KGM  7470-5300E               J/B COMPLETE ASS'Y       74705300E                0         0         0         0    0    0    00000010000000001000000000000000000000
AE00TI102209140614/09/202200000003000000000000000000000KGM  00000000000KGM  7470-5783E               J/B COMPLETE ASS'Y       74705783E                0         0         0         0    0    0    00000030000000001000000000000000000000
AE00TI102209140614/09/202200000003000000000000000000000KGM  00000000000KGM  7470-5784D               J/B COMPLETE ASS'Y       74705784D                0         0         0         0    0    0    00000045000000001500000000000000000000
AE00TI102209140614/09/202200000000700000000000000000000KGM  00000000000KGM  7470-5784E               J/B COMPLETE ASS'Y       74705784E                0         0         0         0    0    0    00000007000000001000000000000000000000
