BI00B32DE    @TT210E        20220922181E50006ZZ              AVSSCS-S 0.5FX1 DGY/Y    CCN000002000000002000FN00000000020221001000002000NNE20 20220914121545    1W    00000040000001909700000000032DE    TVYEV-TV000000000000VS229004
BI00B32DE    @TT210E        20220922181E50007ZZ              AVSSCS-S 0.5FX1 DGY/L    CCN000002800000002800FN00000000020221001000002800NNE20 20220914121545    1W    00000040000001909700000000032DE    TVYEV-TV000000000000VS229002
BI00B32DE    @TT211A        20221012181E50000ZZ              AVSSCS-S 0.5FX1 DGY/BR   CCN000000400000000400FN00000000020221101000000400NNE   20220914152622    1W    00000040000001909700000000032DE    TVYEV-TV000000000000VW429002
BI00B32DE    @TT211A        20221012181E50005ZZ              AVSSCS-S 0.5FX1 DGY/W    CCN000001200000001200FN00000000020221101000001200NNE   20220914152622    1W    00000040000001909700000000032DE    TVYEV-TV000000000000VW429004
BI00B32DE    @TT211A        20221012181E50006ZZ              AVSSCS-S 0.5FX1 DGY/Y    CCN000001600000001600FN00000000020221101000001600NNE   20220914152622    1W    00000040000001909700000000032DE    TVYEV-TV000000000000VW429005
BI00B32DE    @TT211A        20221012181E50007ZZ              AVSSCS-S 0.5FX1 DGY/L    CCN000001200000001200FN00000000020221101000001200NNE   20220914152622    1W    00000040000001909700000000032DE    TVYEV-TV000000000000VW429003
BI00B32DE    @TT211A        20221012181AD2002ZZ              CIVUSAS-S 0.35X2 B       CCN000002250000002250FN00000000020221101000002250NNE   20220914152622    1W    00000045000001713700000000032DE    TVYEV-TV000000000000VW429001
BI00B32GE    DHTW2250       2022102018000004530              AV 8 B                   CCN000033100000033100FN00000000020221201000033100NNE   20220914160557    1W    00000010000010466200000000032GE    GEYKHT  000000000000RA12A062
BI00B32GE    DHTW2250       2022102018000004534              AV 8 B/W                 CCN000004500000004500FN00000000020221201000004500NNE   20220914160557    1W    00000010000010466200000000032GE    GEYKHT  000000000000RA12A064
BI00B32GE    DHTW2250       2022102018000004535              AV 8 B/R                 CCN000007400000007400FN00000000020221201000007400NNE   20220914160557    1W    00000010000010466200000000032GE    GEYKHT  000000000000RA12A063
BI00B32GE    DHTW2250       2022102018000004540              AV 8 W                   CCN000017100000017100FN00000000020221201000017100NNE   20220914160557    1W    00000010000010466200000000032GE    GEYKHT  000000000000RA12A067
BI00B32GE    DHTW2250       2022102018000004543              AV 8 W/B                 CCN000011000000011000FN00000000020221201000011000NNE   20220914160557    1W    00000010000010466200000000032GE    GEYKHT  000000000000RA12A068
BI00B32GE    DHTW2250       2022102018000004550              AV 8 R                   CCN000001400000001400FN00000000020221201000001400NNE   20220914160557    1W    00000010000010466200000000032GE    GEYKHT  000000000000RA12A066
BI00B32GE    DHTW2250       2022102018000004590              AV 8 L                   CCN000006400000006400FN00000000020221201000006400NNE   20220914160557    1W    00000010000010466200000000032GE    GEYKHT  000000000000RA12A065
BI00B32GE    @DHTW2250      20221020181AD2002ZZ              CIVUSAS-S 0.35X2 B       CCN000020700000020700FN00000000020221201000020700NNE   20220914160555    1W    00000045000001713700000000032GE    GEYKHT  000000000000RA12A029
BI00B32GE    @DHTW2250      20221020181AD2003ZZ              CIVUSAS-S 0.35X3 B       CCN000020000000020300FN00000000020221201000020300NNE   20220914160555    1W    00000035000002172100000000032GE    GEYKHT  000000000000RA12A031
BI00B32GE    @DHTW2250      20221020181AD2004ZZ              CIVUSAS-S 0.35X4 B       CCN000029600000029700FN00000000020221201000029700NNE   20220914160555    1W    00000030000002799900000000032GE    GEYKHT  000000000000RA12A032
BI00B32GE    @DHTW2250      20221020181AD2022ZZ              CIVUSAS-S 0.35X2 B(R,G)  CCN000000300000000450FN00000000020221201000000450NNE   20220914160555    1W    00000045000001714000000000032GE    GEYKHT  000000000000RA12A030
BI00B32GE    @DHTW2250      20221020181B32039Z5              AVSSCS 0.5FX1 DGY/L      CCN000001600000001600FN00000000020221201000001600NNE   20220914160555    1W    00000040000002289000000000032GE    GEYKHT  000000000000RA12A033
BI00B32GE    @DHTW2250      20221020181E48031ZZ              CAVSAS-S 0.3X2 GY        CCN000008400000008400FN00000000020221201000008400NNE   20220914160555    1W    00000035000002008700000000032GE    GEYKHT  000000000000RA12A034
BI00B32GE    @DHTW2250      20221020181E48037ZZ              CAVSAS-S 0.3X4 GY        CCN000006250000006250FN00000000020221201000006250NNE   20220914160555    1W    00000025000003262000000000032GE    GEYKHT  000000000000RA12A036
BI00B32GE    @DHTW2250      20221020181E48041ZZ              CAVSAS-S 0.3X2 GY/R      CCN000007700000007700FN00000000020221201000007700NNE   20220914160555    1W    00000035000002008700000000032GE    GEYKHT  000000000000RA12A035
BI00B32GE    @DHTW2250      20221020181E50002ZZ              AVSSCS-S 0.3FX2 DGY/G    CCN000009100000009100FN00000000020221201000009100NNE   20220914160555    1W    00000035000002165000000000032GE    GEYKHT  000000000000RA12A043
BI00B32GE    @DHTW2250      20221020181E50004ZZ              AVSSCS-S 0.5FX1 DGY      CCN000005200000005200FN00000000020221201000005200NNE   20220914160555    1W    00000040000001909700000000032GE    GEYKHT  000000000000RA12A037
BI00B32GE    @DHTW2250      20221020181E50005ZZ              AVSSCS-S 0.5FX1 DGY/W    CCN000004000000004000FN00000000020221201000004000NNE   20220914160555    1W    00000040000001909700000000032GE    GEYKHT  000000000000RA12A039
BI00B32GE    @DHTW2250      20221020181E50006ZZ              AVSSCS-S 0.5FX1 DGY/Y    CCN000003600000003600FN00000000020221201000003600NNE   20220914160555    1W    00000040000001909700000000032GE    GEYKHT  000000000000RA12A040
BI00B32GE    @DHTW2250      20221020181E50007ZZ              AVSSCS-S 0.5FX1 DGY/L    CCN000007200000007200FN00000000020221201000007200NNE   20220914160555    1W    00000040000001909700000000032GE    GEYKHT  000000000000RA12A038
BI00B32GE    @DHTW2250      20221020181E50012ZZ              AVSSCS-S 0.5FX2 DGY/G    CCN000004500000004500FN00000000020221201000004500NNE   20220914160555    1W    00000030000003096000000000032GE    GEYKHT  000000000000RA12A041
BI00B32GE    @DHTW2250      20221020181E50020ZZ              AVSSCS-S 0.3FX2 DGY/R    CCN000002800000002800FN00000000020221201000002800NNE   20220914160555    1W    00000035000002165000000000032GE    GEYKHT  000000000000RA12A045
BI00B32GE    @DHTW2250      20221020181E50021ZZ              AVSSCS-S 0.3FX2 DGY/P    CCN000006300000006300FN00000000020221201000006300NNE   20220914160555    1W    00000035000002165000000000032GE    GEYKHT  000000000000RA12A044
BI00B32GE    @DHTW2250      20221020181E50036ZZ              AVSSCS-S 0.3FX2 DGY      CCN000004900000004900FN00000000020221201000004900NNE   20220914160555    1W    00000035000002165000000000032GE    GEYKHT  000000000000RA12A042
BI00B32GE    @DHTW2250      20221020181F21015ZZ              AVSSHCS-S 0.5FX2 B/P     CCN000007800000007800FN00000000020221201000007800NNE   20220914160555    1W    00000030000002531400000000032GE    GEYKHT  000000000000RA12A047
BI00B32GE    @DHTW2250      20221020181F21016ZZ              AVSSHCS-S 0.5FX2 B/BR    CCN000004800000004800FN00000000020221201000004800NNE   20220914160555    1W    00000030000002531400000000032GE    GEYKHT  000000000000RA12A046
BI00B32GE    @DHTW2250      20221020181F21031ZZ              AVSSHCS-S 1.25FX2 B/P    CCN000005200000005200FN00000000020221201000005200NNE   20220914160555    1W    00000020000004267300000000032GE    GEYKHT  000000000000RA12A048
BI00B32H8    @2210AKMW      20220923181E50004ZZ              AVSSCS-S 0.5FX1 DGY      CCN000001200000001200FN00000000020221001000001200NNE20 20220914121545    1W    00000040000001909700000000032H8    TYTYC   000000000000LA229001
BI00B32M1    TV209B         202209291801W004330              IVSSH 3 B                CCN000002450000000700FN00000000020220901000000700NNE00 20220914141544    1W    00000035000003173100000000032M1    VNYEV   000000000000VB229005
BI00B32M1    TV209B         202209291801W004390              IVSSH 3 L                CCN000001750000000700FN00000000020220901000000700NNE00 20220914141738    1W    00000035000003173100000000032M1    VNYEV   000000000000VB229006
BI00B32M1    TV209B         202209291801W004343              IVSSH 3 W/B              CCN000001750000000350FN00000000020220901000000350NNE00 20220914141638    1W    00000035000003173100000000032M1    VNYEV   000000000000VB229007
BI00A32M1    TV209B         202209161801W004330              IVSSH 3 B                CCN000000350000000350FN00000000020220901000000350NNE22 20220914143846    1W    00000035000003173100000000032M1    VNYEV   000000000000VB229005
BI00A32M1    TV209B         202209161801W004343              IVSSH 3 W/B              CCN000000350000000350FN00000000020220901000000350NNE22 20220914143846    1W    00000035000003173100000000032M1    VNYEV   000000000000VB229007
BI00A32M1    TV209B         202209161801W004390              IVSSH 3 L                CCN000000350000000350FN00000000020220901000000350NNE22 20220914143846    1W    00000035000003173100000000032M1    VNYEV   000000000000VB229006
BI00B32M4    TW2111A        202210061801W004043              IVSSH 0.75F W/B          CCN000002600000002600FN00000000020221101000002600NNE   20220914164834    1W    00000130000000882000000000032M4    SISAI   000000000000GD329001
BI00B32M8    @PM2210BJMW    20221012181B32039Z6              AVSSCS 0.5FX1 DGY/V      CCN000000400000000400FN00000000020221001000000400NNE   20220914164530    1W    00000040000002289000000000032M8    PMPEMI  000000000000IN429001
BI00B32M8    @PM2210E MW    20220928181B32039Z5              AVSSCS 0.5FX1 DGY/L      CCN000000400000000400FN00000000020221001000000400NNE   20220914164531    1W    00000040000002289000000000032M8    PMPEMI  000000000000IE229001
BI00B32M8    PM2210CJMW     2022092818007704035              AVSS 0.75F B/R           CCN000001000000001000FN00000000020221001000001000NNE   20220914164532    1W    00000100000000943000000000032M8    PMPEMI  000000000000IC229001
BI00B32N2    2152104215     2022101918007703910              AVSS 0.5F GY/R           CCN000001500000001500FN00000000020221001000001500NNE   20220914143456    1W    00000150000000674000000000032N2    YWYIPLTC000000000000KU12A002
BI00B32N2    2152104215     2022101918007703935              AVSS 0.5F B/R            CCN000001500000001500FN00000000020221001000001500NNE   20220914143456    1W    00000150000000674000000000032N2    YWYIPLTC000000000000KU12A001
BI00B32N2    2152104215     2022101918007703954              AVSS 0.5F R/W            CCN000001500000001500FN00000000020221001000001500NNE   20220914143456    1W    00000150000000674000000000032N2    YWYIPLTC000000000000KU12A003
BI00B32P8    TAPAW-212A1    2022101218007703734              AVSS 0.3F B/W            CCN000002000000002000FN00000000020221201000002000NNE   20220914143332    1W    00000200000000496000000000032P8    YIYTM   000000000000YA429009
BI00B32P8    TAPAW-212A1    2022101218007703994              AVSS 0.5F L/W            CCN000007500000007500FN00000000020221201000007500NNE   20220914143332    1W    00000150000000674000000000032P8    YIYTM   000000000000YA429010
BI00B32P8    TAPAW-212A1    2022101218007704080              AVSS 0.75F BR            CCN000001000000001000FN00000000020221201000001000NNE   20220914143332    1W    00000100000000943000000000032P8    YIYTM   000000000000YA429011
BI00B32P8    TAPAW-212A1    2022101218007704146              AVSS 1.25F W/G           CCN000000800000000800FN00000000020221201000000800NNE   20220914143332    1W    00000080000001389000000000032P8    YIYTM   000000000000YA429012
BI00B32P8    TAPAW-212A1    20221012180D0203941              AVSSH 0.5F GY            CCN000007500000007500FN00000000020221201000007500NNE   20220914143332    1W    00000150000000689000000000032P8    YIYTM   000000000000YA429006
BI00B32P8    TAPAW-212A1    20221012180D0203961              AVSSH 0.5F LG            CCN000001500000001500FN00000000020221201000001500NNE   20220914143332    1W    00000150000000689000000000032P8    YIYTM   000000000000YA429007
BI00B32P8    TAPAW-212A1    20221012180D0203907              AVSSH 0.5F P/B           CCN000001500000001500FN00000000020221201000001500NNE   20220914143332    1W    00000150000000689000000000032P8    YIYTM   000000000000YA429008
BI00B32P8    @TAPAW-212A1   20221012181E48015ZZ              CAVSAS-S 0.5X1 GY        CCN000002000000002000FN00000000020221201000002000NNE   20220914143331    1W    00000040000001900600000000032P8    YIYTM   000000000000YA429004
BI00B32P8    @TAPAW-212A1   20221012181E48033ZZ              CAVSAS-S 0.5X3 GY/B      CCN000000400000000400FN00000000020221201000000400NNE   20220914143331    1W    00000020000003795300000000032P8    YIYTM   000000000000YA429005
BI00B32P8    TAPAW-2121     2022110218000004530              AV 8 B                   CCN000002200000002200FN00000000020221201000002200NNM   20220914154434    1W    00000010000010466200000000032P8    YIYTM   000000000000YT32A060
BI00B32P8    TAPAW-2122     2022110918000004530              AV 8 B                   CCN000013600000013600FN00000000020221201000013600NNM   20220914154434    1W    00000010000010466200000000032P8    YIYTM   000000000000YT42A089
BI00B32P8    TAPAW-2123     2022111618000004530              AV 8 B                   CCN000013600000013600FN00000000020221201000013600NNM   20220914154434    1W    00000010000010466200000000032P8    YIYTM   000000000000YT12B107
BI00B32P8    TAPAW-2122     2022110918000004560              AV 8 G                   CCN000006600000006600FN00000000020221201000006600NNM   20220914154434    1W    00000010000010466200000000032P8    YIYTM   000000000000YT42A091
BI00B32P8    TAPAW-2123     2022111618000004560              AV 8 G                   CCN000009100000009100FN00000000020221201000009100NNM   20220914154434    1W    00000010000010466200000000032P8    YIYTM   000000000000YT12B109
BI00B32P8    TAPAW-2122     2022110918000004550              AV 8 R                   CCN000004900000004900FN00000000020221201000004900NNM   20220914154434    1W    00000010000010466200000000032P8    YIYTM   000000000000YT42A093
BI00B32P8    TAPAW-2123     2022111618000004550              AV 8 R                   CCN000011100000011100FN00000000020221201000011100NNM   20220914154434    1W    00000010000010466200000000032P8    YIYTM   000000000000YT12B111
BI00B32P8    TAPAW-2121     2022110218000004540              AV 8 W                   CCN000007300000007300FN00000000020221201000007300NNM   20220914154434    1W    00000010000010466200000000032P8    YIYTM   000000000000YT32A061
BI00B32P8    TAPAW-2122     2022110918000004540              AV 8 W                   CCN000015500000015500FN00000000020221201000015500NNM   20220914154434    1W    00000010000010466200000000032P8    YIYTM   000000000000YT42A094
BI00B32P8    TAPAW-2123     2022111618000004540              AV 8 W                   CCN000015500000015500FN00000000020221201000015500NNM   20220914154434    1W    00000010000010466200000000032P8    YIYTM   000000000000YT12B113
BI00B32P8    TAPAW-2122     2022110918000004543              AV 8 W/B                 CCN000004600000004600FN00000000020221201000004600NNM   20220914154434    1W    00000010000010466200000000032P8    YIYTM   000000000000YT42A095
BI00B32P8    TAPAW-2123     2022111618000004543              AV 8 W/B                 CCN000005200000005200FN00000000020221201000005200NNM   20220914154434    1W    00000010000010466200000000032P8    YIYTM   000000000000YT12B114
BI00B32P8    TAPAW-2121     2022110218009604034              AVS 0.85 B/W             CCN000001000000001000FN00000000020221201000001000NNM   20220914154434    1W    00000100000001167700000000032P8    YIYTM   000000000000YT32A105
BI00B32P8    TAPAW-2122     2022110918009604034              AVS 0.85 B/W             CCN000001000000001000FN00000000020221201000001000NNM   20220914154434    1W    00000100000001167700000000032P8    YIYTM   000000000000YT42A189
BI00B32P8    TAPAW-2123     2022111618009604034              AVS 0.85 B/W             CCN000001000000001000FN00000000020221201000001000NNM   20220914154434    1W    00000100000001167700000000032P8    YIYTM   000000000000YT12B227
BI00B32P8    TAPAW-2122     2022110918009604037              AVS 0.85 B/Y             CCN000001000000001000FN00000000020221201000001000NNM   20220914154434    1W    00000100000001167700000000032P8    YIYTM   000000000000YT42A190
BI00B32P8    TAPAW-2122     2022110918007703730              AVSS 0.3F B              CCN000006000000006000FN00000000020221201000006000NNM   20220914154434    1W    00000200000000496000000000032P8    YIYTM   000000000000YT42A097
BI00B32P8    TAPAW-2123     2022111618007703730              AVSS 0.3F B              CCN000004000000004000FN00000000020221201000004000NNM   20220914154434    1W    00000200000000496000000000032P8    YIYTM   000000000000YT12B116
BI00B32P8    TAPAW-2123     2022111618007703734              AVSS 0.3F B/W            CCN000002000000002000FN00000000020221201000002000NNM   20220914154434    1W    00000200000000496000000000032P8    YIYTM   000000000000YT12B117
BI00B32P8    TAPAW-2123     2022111618007703760              AVSS 0.3F G              CCN000004000000004000FN00000000020221201000004000NNM   20220914154434    1W    00000200000000496000000000032P8    YIYTM   000000000000YT12B118
BI00B32P8    TAPAW-2123     2022111618007703765              AVSS 0.3F G/R            CCN000002000000002000FN00000000020221201000002000NNM   20220914154434    1W    00000200000000496000000000032P8    YIYTM   000000000000YT12B119
BI00B32P8    TAPAW-2122     2022110918007703764              AVSS 0.3F G/W            CCN000002000000002000FN00000000020221201000002000NNM   20220914154434    1W    00000200000000496000000000032P8    YIYTM   000000000000YT42A098
BI00B32P8    TAPAW-2123     2022111618007703764              AVSS 0.3F G/W            CCN000002000000002000FN00000000020221201000002000NNM   20220914154434    1W    00000200000000496000000000032P8    YIYTM   000000000000YT12B120
BI00B32P8    TAPAW-2122     2022110918007703767              AVSS 0.3F G/Y            CCN000002000000002000FN00000000020221201000002000NNM   20220914154434    1W    00000200000000496000000000032P8    YIYTM   000000000000YT42A099
BI00B32P8    TAPAW-2123     2022111618007703767              AVSS 0.3F G/Y            CCN000004000000004000FN00000000020221201000004000NNM   20220914154434    1W    00000200000000496000000000032P8    YIYTM   000000000000YT12B121
BI00B32P8    TAPAW-2122     2022110918007703790              AVSS 0.3F L              CCN000002000000002000FN00000000020221201000002000NNM   20220914154434    1W    00000200000000496000000000032P8    YIYTM   000000000000YT42A100
BI00B32P8    TAPAW-2121     2022110218007703793              AVSS 0.3F L/B            CCN000002000000002000FN00000000020221201000002000NNM   20220914154434    1W    00000200000000496000000000032P8    YIYTM   000000000000YT32A062
BI00B32P8    TAPAW-2121     2022110218007703795              AVSS 0.3F L/R            CCN000002000000002000FN00000000020221201000002000NNM   20220914154434    1W    00000200000000496000000000032P8    YIYTM   000000000000YT32A063
BI00B32P8    TAPAW-2121     2022110218007703794              AVSS 0.3F L/W            CCN000002000000002000FN00000000020221201000002000NNM   20220914154434    1W    00000200000000496000000000032P8    YIYTM   000000000000YT32A064
BI00B32P8    TAPAW-2123     2022111618007703794              AVSS 0.3F L/W            CCN000002000000002000FN00000000020221201000002000NNM   20220914154434    1W    00000200000000496000000000032P8    YIYTM   000000000000YT12B122
BI00B32P8    TAPAW-2121     2022110218007703751              AVSS 0.3F O              CCN000002000000002000FN00000000020221201000002000NNM   20220914154434    1W    00000200000000496000000000032P8    YIYTM   000000000000YT32A065
BI00B32P8    TAPAW-2122     2022110918007703791              AVSS 0.3F SB             CCN000002000000002000FN00000000020221201000002000NNM   20220914154434    1W    00000200000000496000000000032P8    YIYTM   000000000000YT42A101
BI00B32P8    TAPAW-2123     2022111618007703740              AVSS 0.3F W              CCN000002000000002000FN00000000020221201000002000NNM   20220914154434    1W    00000200000000496000000000032P8    YIYTM   000000000000YT12B123
BI00B32P8    TAPAW-2121     2022110218007703770              AVSS 0.3F Y              CCN000002000000002000FN00000000020221201000002000NNM   20220914154434    1W    00000200000000496000000000032P8    YIYTM   000000000000YT32A066
BI00B32P8    TAPAW-2123     2022111618007703770              AVSS 0.3F Y              CCN000002000000002000FN00000000020221201000002000NNM   20220914154434    1W    00000200000000496000000000032P8    YIYTM   000000000000YT12B124
BI00B32P8    TAPAW-2121     2022110218007703776              AVSS 0.3F Y/G            CCN000002000000002000FN00000000020221201000002000NNM   20220914154434    1W    00000200000000496000000000032P8    YIYTM   000000000000YT32A067
BI00B32P8    TAPAW-2121     2022110218007703775              AVSS 0.3F Y/R            CCN000002000000002000FN00000000020221201000002000NNM   20220914154434    1W    00000200000000496000000000032P8    YIYTM   000000000000YT32A068
BI00B32P8    TAPAW-2123     2022111618007703775              AVSS 0.3F Y/R            CCN000002000000002000FN00000000020221201000002000NNM   20220914154434    1W    00000200000000496000000000032P8    YIYTM   000000000000YT12B125
BI00B32P8    TAPAW-2121     2022110218007703930              AVSS 0.5F B              CCN000015000000015000FN00000000020221201000015000NNM   20220914154434    1W    00000150000000674000000000032P8    YIYTM   000000000000YT32A069
BI00B32P8    TAPAW-2122     2022110918007703930              AVSS 0.5F B              CCN000027000000027000FN00000000020221201000027000NNM   20220914154434    1W    00000150000000674000000000032P8    YIYTM   000000000000YT42A102
BI00B32P8    TAPAW-2123     2022111618007703930              AVSS 0.5F B              CCN000025500000025500FN00000000020221201000025500NNM   20220914154434    1W    00000150000000674000000000032P8    YIYTM   000000000000YT12B126
BI00B32P8    TAPAW-2123     2022111618007703939              AVSS 0.5F B/L            CCN000004500000004500FN00000000020221201000004500NNM   20220914154434    1W    00000150000000674000000000032P8    YIYTM   000000000000YT12B127
BI00B32P8    TAPAW-2121     20221102180077039A8              AVSS 0.5F B/P            CCN000001500000001500FN00000000020221201000001500NNM   20220914154434    1W    00000150000000674000000000032P8    YIYTM   000000000000YT32A070
BI00B32P8    TAPAW-2122     20221109180077039A8              AVSS 0.5F B/P            CCN000019500000019500FN00000000020221201000019500NNM   20220914154434    1W    00000150000000674000000000032P8    YIYTM   000000000000YT42A103
BI00B32P8    TAPAW-2123     20221116180077039A8              AVSS 0.5F B/P            CCN000019500000019500FN00000000020221201000019500NNM   20220914154434    1W    00000150000000674000000000032P8    YIYTM   000000000000YT12B128
BI00B32P8    TAPAW-2121     2022110218007703935              AVSS 0.5F B/R            CCN000010500000010500FN00000000020221201000010500NNM   20220914154434    1W    00000150000000674000000000032P8    YIYTM   000000000000YT32A071
BI00B32P8    TAPAW-2122     2022110918007703935              AVSS 0.5F B/R            CCN000006000000006000FN00000000020221201000006000NNM   20220914154434    1W    00000150000000674000000000032P8    YIYTM   000000000000YT42A104
BI00B32P8    TAPAW-2123     2022111618007703935              AVSS 0.5F B/R            CCN000004500000004500FN00000000020221201000004500NNM   20220914154434    1W    00000150000000674000000000032P8    YIYTM   000000000000YT12B129
BI00B32P8    TAPAW-2121     2022110218007703934              AVSS 0.5F B/W            CCN000013500000013500FN00000000020221201000013500NNM   20220914154434    1W    00000150000000674000000000032P8    YIYTM   000000000000YT32A072
BI00B32P8    TAPAW-2122     2022110918007703934              AVSS 0.5F B/W            CCN000007500000007500FN00000000020221201000007500NNM   20220914154434    1W    00000150000000674000000000032P8    YIYTM   000000000000YT42A105
BI00B32P8    TAPAW-2123     2022111618007703934              AVSS 0.5F B/W            CCN000006000000006000FN00000000020221201000006000NNM   20220914154434    1W    00000150000000674000000000032P8    YIYTM   000000000000YT12B130
BI00B32P8    TAPAW-2121     2022110218007703937              AVSS 0.5F B/Y            CCN000009000000009000FN00000000020221201000009000NNM   20220914154434    1W    00000150000000674000000000032P8    YIYTM   000000000000YT32A073
BI00B32P8    TAPAW-2122     2022110918007703937              AVSS 0.5F B/Y            CCN000007500000007500FN00000000020221201000007500NNM   20220914154434    1W    00000150000000674000000000032P8    YIYTM   000000000000YT42A106
BI00B32P8    TAPAW-2123     2022111618007703937              AVSS 0.5F B/Y            CCN000007500000007500FN00000000020221201000007500NNM   20220914154434    1W    00000150000000674000000000032P8    YIYTM   000000000000YT12B131
BI00B32P8    TAPAW-2122     2022110918007703980              AVSS 0.5F BR             CCN000001500000001500FN00000000020221201000001500NNM   20220914154434    1W    00000150000000674000000000032P8    YIYTM   000000000000YT42A107
BI00B32P8    TAPAW-2123     2022111618007703980              AVSS 0.5F BR             CCN000003000000003000FN00000000020221201000003000NNM   20220914154434    1W    00000150000000674000000000032P8    YIYTM   000000000000YT12B132
BI00B32P8    TAPAW-2123     2022111618007703987              AVSS 0.5F BR/Y           CCN000001500000001500FN00000000020221201000001500NNM   20220914154434    1W    00000150000000674000000000032P8    YIYTM   000000000000YT12B133
BI00B32P8    TAPAW-2122     2022110918007703960              AVSS 0.5F G              CCN000007500000007500FN00000000020221201000007500NNM   20220914154434    1W    00000150000000674000000000032P8    YIYTM   000000000000YT42A108
BI00B32P8    TAPAW-2123     2022111618007703960              AVSS 0.5F G              CCN000012000000012000FN00000000020221201000012000NNM   20220914154434    1W    00000150000000674000000000032P8    YIYTM   000000000000YT12B134
BI00B32P8    TAPAW-2121     2022110218007703963              AVSS 0.5F G/B            CCN000001500000001500FN00000000020221201000001500NNM   20220914154434    1W    00000150000000674000000000032P8    YIYTM   000000000000YT32A074
BI00B32P8    TAPAW-2122     2022110918007703963              AVSS 0.5F G/B            CCN000001500000001500FN00000000020221201000001500NNM   20220914154434    1W    00000150000000674000000000032P8    YIYTM   000000000000YT42A109
BI00B32P8    TAPAW-2123     2022111618007703963              AVSS 0.5F G/B            CCN000001500000001500FN00000000020221201000001500NNM   20220914154434    1W    00000150000000674000000000032P8    YIYTM   000000000000YT12B135
BI00B32P8    TAPAW-2121     2022110218007703918              AVSS 0.5F G/O            CCN000001500000001500FN00000000020221201000001500NNM   20220914154434    1W    00000150000000674000000000032P8    YIYTM   000000000000YT32A075
BI00B32P8    TAPAW-2123     2022111618007703918              AVSS 0.5F G/O            CCN000001500000001500FN00000000020221201000001500NNM   20220914154434    1W    00000150000000674000000000032P8    YIYTM   000000000000YT12B136
BI00B32P8    TAPAW-2121     2022110218007703965              AVSS 0.5F G/R            CCN000003000000003000FN00000000020221201000003000NNM   20220914154434    1W    00000150000000674000000000032P8    YIYTM   000000000000YT32A076
BI00B32P8    TAPAW-2122     2022110918007703965              AVSS 0.5F G/R            CCN000006000000006000FN00000000020221201000006000NNM   20220914154434    1W    00000150000000674000000000032P8    YIYTM   000000000000YT42A110
BI00B32P8    TAPAW-2123     2022111618007703965              AVSS 0.5F G/R            CCN000006000000006000FN00000000020221201000006000NNM   20220914154434    1W    00000150000000674000000000032P8    YIYTM   000000000000YT12B137
BI00B32P8    TAPAW-2122     2022110918007703964              AVSS 0.5F G/W            CCN000004500000004500FN00000000020221201000004500NNM   20220914154434    1W    00000150000000674000000000032P8    YIYTM   000000000000YT42A111
BI00B32P8    TAPAW-2123     2022111618007703964              AVSS 0.5F G/W            CCN000006000000006000FN00000000020221201000006000NNM   20220914154434    1W    00000150000000674000000000032P8    YIYTM   000000000000YT12B138
BI00B32P8    TAPAW-2122     2022110918007703967              AVSS 0.5F G/Y            CCN000003000000003000FN00000000020221201000003000NNM   20220914154434    1W    00000150000000674000000000032P8    YIYTM   000000000000YT42A112
BI00B32P8    TAPAW-2123     2022111618007703967              AVSS 0.5F G/Y            CCN000003000000003000FN00000000020221201000003000NNM   20220914154434    1W    00000150000000674000000000032P8    YIYTM   000000000000YT12B139
BI00B32P8    TAPAW-2121     2022110218007703941              AVSS 0.5F GY             CCN000001500000001500FN00000000020221201000001500NNM   20220914154434    1W    00000150000000674000000000032P8    YIYTM   000000000000YT32A077
BI00B32P8    TAPAW-2122     2022110918007703941              AVSS 0.5F GY             CCN000004500000004500FN00000000020221201000004500NNM   20220914154434    1W    00000150000000674000000000032P8    YIYTM   000000000000YT42A113
BI00B32P8    TAPAW-2123     2022111618007703941              AVSS 0.5F GY             CCN000003000000003000FN00000000020221201000003000NNM   20220914154434    1W    00000150000000674000000000032P8    YIYTM   000000000000YT12B140
BI00B32P8    TAPAW-2122     20221109180077039F0              AVSS 0.5F GY/B           CCN000001500000001500FN00000000020221201000001500NNM   20220914154434    1W    00000150000000674000000000032P8    YIYTM   000000000000YT42A114
BI00B32P8    TAPAW-2123     20221116180077039F0              AVSS 0.5F GY/B           CCN000001500000001500FN00000000020221201000001500NNM   20220914154434    1W    00000150000000674000000000032P8    YIYTM   000000000000YT12B141
BI00B32P8    TAPAW-2122     2022110918007703911              AVSS 0.5F GY/L           CCN000001500000001500FN00000000020221201000001500NNM   20220914154434    1W    00000150000000674000000000032P8    YIYTM   000000000000YT42A115
BI00B32P8    TAPAW-2122     2022110918007703910              AVSS 0.5F GY/R           CCN000001500000001500FN00000000020221201000001500NNM   20220914154434    1W    00000150000000674000000000032P8    YIYTM   000000000000YT42A116
BI00B32P8    TAPAW-2123     2022111618007703910              AVSS 0.5F GY/R           CCN000001500000001500FN00000000020221201000001500NNM   20220914154434    1W    00000150000000674000000000032P8    YIYTM   000000000000YT12B142
BI00B32P8    TAPAW-2122     20221109180077039H7              AVSS 0.5F GY/W           CCN000001500000001500FN00000000020221201000001500NNM   20220914154434    1W    00000150000000674000000000032P8    YIYTM   000000000000YT42A117
BI00B32P8    TAPAW-2122     2022110918007703990              AVSS 0.5F L              CCN000001500000001500FN00000000020221201000001500NNM   20220914154434    1W    00000150000000674000000000032P8    YIYTM   000000000000YT42A118
BI00B32P8    TAPAW-2123     2022111618007703990              AVSS 0.5F L              CCN000022500000022500FN00000000020221201000022500NNM   20220914154434    1W    00000150000000674000000000032P8    YIYTM   000000000000YT12B143
BI00B32P8    TAPAW-2122     2022110918007703995              AVSS 0.5F L/R            CCN000001500000001500FN00000000020221201000001500NNM   20220914154434    1W    00000150000000674000000000032P8    YIYTM   000000000000YT42A119
BI00B32P8    TAPAW-2123     2022111618007703995              AVSS 0.5F L/R            CCN000003000000003000FN00000000020221201000003000NNM   20220914154434    1W    00000150000000674000000000032P8    YIYTM   000000000000YT12B144
BI00B32P8    TAPAW-2121     2022110218007703994              AVSS 0.5F L/W            CCN000010500000010500FN00000000020221201000010500NNM   20220914154434    1W    00000150000000674000000000032P8    YIYTM   000000000000YT32A078
BI00B32P8    TAPAW-2122     2022110918007703994              AVSS 0.5F L/W            CCN000006000000006000FN00000000020221201000006000NNM   20220914154434    1W    00000150000000674000000000032P8    YIYTM   000000000000YT42A120
BI00B32P8    TAPAW-2123     2022111618007703994              AVSS 0.5F L/W            CCN000006000000006000FN00000000020221201000006000NNM   20220914154434    1W    00000150000000674000000000032P8    YIYTM   000000000000YT12B145
BI00B32P8    TAPAW-2121     2022110218007703997              AVSS 0.5F L/Y            CCN000001500000001500FN00000000020221201000001500NNM   20220914154434    1W    00000150000000674000000000032P8    YIYTM   000000000000YT32A079
BI00B32P8    TAPAW-2122     2022110918007703997              AVSS 0.5F L/Y            CCN000003000000003000FN00000000020221201000003000NNM   20220914154434    1W    00000150000000674000000000032P8    YIYTM   000000000000YT42A121
BI00B32P8    TAPAW-2123     2022111618007703997              AVSS 0.5F L/Y            CCN000001500000001500FN00000000020221201000001500NNM   20220914154434    1W    00000150000000674000000000032P8    YIYTM   000000000000YT12B146
BI00B32P8    TAPAW-2123     2022111618007703951              AVSS 0.5F O              CCN000024000000024000FN00000000020221201000024000NNM   20220914154434    1W    00000150000000674000000000032P8    YIYTM   000000000000YT12B147
BI00B32P8    TAPAW-2122     2022110918007703952              AVSS 0.5F P              CCN000001500000001500FN00000000020221201000001500NNM   20220914154434    1W    00000150000000674000000000032P8    YIYTM   000000000000YT42A122
BI00B32P8    TAPAW-2123     2022111618007703952              AVSS 0.5F P              CCN000001500000001500FN00000000020221201000001500NNM   20220914154434    1W    00000150000000674000000000032P8    YIYTM   000000000000YT12B148
BI00B32P8    TAPAW-2122     2022110918007703950              AVSS 0.5F R              CCN000015000000015000FN00000000020221201000015000NNM   20220914154434    1W    00000150000000674000000000032P8    YIYTM   000000000000YT42A123
BI00B32P8    TAPAW-2123     2022111618007703950              AVSS 0.5F R              CCN000016500000016500FN00000000020221201000016500NNM   20220914154434    1W    00000150000000674000000000032P8    YIYTM   000000000000YT12B149
BI00B32P8    TAPAW-2122     2022110918007703953              AVSS 0.5F R/B            CCN000001500000001500FN00000000020221201000001500NNM   20220914154434    1W    00000150000000674000000000032P8    YIYTM   000000000000YT42A124
BI00B32P8    TAPAW-2123     2022111618007703953              AVSS 0.5F R/B            CCN000003000000003000FN00000000020221201000003000NNM   20220914154434    1W    00000150000000674000000000032P8    YIYTM   000000000000YT12B150
BI00B32P8    TAPAW-2123     2022111618007703956              AVSS 0.5F R/G            CCN000001500000001500FN00000000020221201000001500NNM   20220914154434    1W    00000150000000674000000000032P8    YIYTM   000000000000YT12B151
BI00B32P8    TAPAW-2122     2022110918007703954              AVSS 0.5F R/W            CCN000004500000004500FN00000000020221201000004500NNM   20220914154434    1W    00000150000000674000000000032P8    YIYTM   000000000000YT42A125
BI00B32P8    TAPAW-2123     2022111618007703954              AVSS 0.5F R/W            CCN000003000000003000FN00000000020221201000003000NNM   20220914154434    1W    00000150000000674000000000032P8    YIYTM   000000000000YT12B152
BI00B32P8    TAPAW-2122     2022110918007703957              AVSS 0.5F R/Y            CCN000004500000004500FN00000000020221201000004500NNM   20220914154434    1W    00000150000000674000000000032P8    YIYTM   000000000000YT42A126
BI00B32P8    TAPAW-2123     2022111618007703957              AVSS 0.5F R/Y            CCN000004500000004500FN00000000020221201000004500NNM   20220914154434    1W    00000150000000674000000000032P8    YIYTM   000000000000YT12B153
BI00B32P8    TAPAW-2122     2022110918007703991              AVSS 0.5F SB             CCN000001500000001500FN00000000020221201000001500NNM   20220914154434    1W    00000150000000674000000000032P8    YIYTM   000000000000YT42A127
BI00B32P8    TAPAW-2123     2022111618007703992              AVSS 0.5F V              CCN000004500000004500FN00000000020221201000004500NNM   20220914154434    1W    00000150000000674000000000032P8    YIYTM   000000000000YT12B154
BI00B32P8    TAPAW-2121     2022110218007703940              AVSS 0.5F W              CCN000003000000003000FN00000000020221201000003000NNM   20220914154434    1W    00000150000000674000000000032P8    YIYTM   000000000000YT32A080
BI00B32P8    TAPAW-2122     2022110918007703940              AVSS 0.5F W              CCN000015000000015000FN00000000020221201000015000NNM   20220914154434    1W    00000150000000674000000000032P8    YIYTM   000000000000YT42A129
BI00B32P8    TAPAW-2123     2022111618007703940              AVSS 0.5F W              CCN000015000000015000FN00000000020221201000015000NNM   20220914154434    1W    00000150000000674000000000032P8    YIYTM   000000000000YT12B155
BI00B32P8    TAPAW-2121     2022110218007703943              AVSS 0.5F W/B            CCN000006000000006000FN00000000020221201000006000NNM   20220914154434    1W    00000150000000674000000000032P8    YIYTM   000000000000YT32A081
BI00B32P8    TAPAW-2122     2022110918007703943              AVSS 0.5F W/B            CCN000004500000004500FN00000000020221201000004500NNM   20220914154434    1W    00000150000000674000000000032P8    YIYTM   000000000000YT42A130
BI00B32P8    TAPAW-2123     2022111618007703943              AVSS 0.5F W/B            CCN000003000000003000FN00000000020221201000003000NNM   20220914154434    1W    00000150000000674000000000032P8    YIYTM   000000000000YT12B156
BI00B32P8    TAPAW-2123     2022111618007703946              AVSS 0.5F W/G            CCN000001500000001500FN00000000020221201000001500NNM   20220914154434    1W    00000150000000674000000000032P8    YIYTM   000000000000YT12B157
BI00B32P8    TAPAW-2122     2022110918007703949              AVSS 0.5F W/L            CCN000004500000004500FN00000000020221201000004500NNM   20220914154434    1W    00000150000000674000000000032P8    YIYTM   000000000000YT42A131
BI00B32P8    TAPAW-2123     2022111618007703949              AVSS 0.5F W/L            CCN000003000000003000FN00000000020221201000003000NNM   20220914154434    1W    00000150000000674000000000032P8    YIYTM   000000000000YT12B158
BI00B32P8    TAPAW-2123     2022111618007703945              AVSS 0.5F W/R            CCN000003000000003000FN00000000020221201000003000NNM   20220914154434    1W    00000150000000674000000000032P8    YIYTM   000000000000YT12B159
BI00B32P8    TAPAW-2122     2022110918007703970              AVSS 0.5F Y              CCN000010500000010500FN00000000020221201000010500NNM   20220914154434    1W    00000150000000674000000000032P8    YIYTM   000000000000YT42A132
BI00B32P8    TAPAW-2123     2022111618007703970              AVSS 0.5F Y              CCN000012000000012000FN00000000020221201000012000NNM   20220914154434    1W    00000150000000674000000000032P8    YIYTM   000000000000YT12B160
BI00B32P8    TAPAW-2121     2022110218007703973              AVSS 0.5F Y/B            CCN000001500000001500FN00000000020221201000001500NNM   20220914154434    1W    00000150000000674000000000032P8    YIYTM   000000000000YT32A082
BI00B32P8    TAPAW-2122     2022110918007703973              AVSS 0.5F Y/B            CCN000006000000006000FN00000000020221201000006000NNM   20220914154434    1W    00000150000000674000000000032P8    YIYTM   000000000000YT42A133
BI00B32P8    TAPAW-2123     2022111618007703973              AVSS 0.5F Y/B            CCN000006000000006000FN00000000020221201000006000NNM   20220914154434    1W    00000150000000674000000000032P8    YIYTM   000000000000YT12B161
BI00B32P8    TAPAW-2121     2022110218007703976              AVSS 0.5F Y/G            CCN000001500000001500FN00000000020221201000001500NNM   20220914154434    1W    00000150000000674000000000032P8    YIYTM   000000000000YT32A083
BI00B32P8    TAPAW-2123     2022111618007703976              AVSS 0.5F Y/G            CCN000001500000001500FN00000000020221201000001500NNM   20220914154434    1W    00000150000000674000000000032P8    YIYTM   000000000000YT12B162
BI00B32P8    TAPAW-2122     2022110918007703979              AVSS 0.5F Y/L            CCN000003000000003000FN00000000020221201000003000NNM   20220914154434    1W    00000150000000674000000000032P8    YIYTM   000000000000YT42A134
BI00B32P8    TAPAW-2123     2022111618007703979              AVSS 0.5F Y/L            CCN000003000000003000FN00000000020221201000003000NNM   20220914154434    1W    00000150000000674000000000032P8    YIYTM   000000000000YT12B163
BI00B32P8    TAPAW-2121     2022110218007703975              AVSS 0.5F Y/R            CCN000001500000001500FN00000000020221201000001500NNM   20220914154434    1W    00000150000000674000000000032P8    YIYTM   000000000000YT32A084
BI00B32P8    TAPAW-2122     2022110918007703975              AVSS 0.5F Y/R            CCN000009000000009000FN00000000020221201000009000NNM   20220914154434    1W    00000150000000674000000000032P8    YIYTM   000000000000YT42A135
BI00B32P8    TAPAW-2123     2022111618007703975              AVSS 0.5F Y/R            CCN000009000000009000FN00000000020221201000009000NNM   20220914154434    1W    00000150000000674000000000032P8    YIYTM   000000000000YT12B164
BI00B32P8    TAPAW-2123     2022111618007703974              AVSS 0.5F Y/W            CCN000001500000001500FN00000000020221201000001500NNM   20220914154434    1W    00000150000000674000000000032P8    YIYTM   000000000000YT12B165
BI00B32P8    TAPAW-2122     2022110918007704030              AVSS 0.75F B             CCN000023000000023000FN00000000020221201000023000NNM   20220914154434    1W    00000100000000943000000000032P8    YIYTM   000000000000YT42A136
BI00B32P8    TAPAW-2123     2022111618007704030              AVSS 0.75F B             CCN000035000000035000FN00000000020221201000035000NNM   20220914154434    1W    00000100000000943000000000032P8    YIYTM   000000000000YT12B166
BI00B32P8    TAPAW-2123     2022111618007704036              AVSS 0.75F B/G           CCN000006000000006000FN00000000020221201000006000NNM   20220914154434    1W    00000100000000943000000000032P8    YIYTM   000000000000YT12B167
BI00B32P8    TAPAW-2123     2022111618007704039              AVSS 0.75F B/L           CCN000004000000004000FN00000000020221201000004000NNM   20220914154434    1W    00000100000000943000000000032P8    YIYTM   000000000000YT12B168
BI00B32P8    TAPAW-2122     2022110918007704035              AVSS 0.75F B/R           CCN000014000000014000FN00000000020221201000014000NNM   20220914154434    1W    00000100000000943000000000032P8    YIYTM   000000000000YT42A137
BI00B32P8    TAPAW-2123     2022111618007704035              AVSS 0.75F B/R           CCN000013000000013000FN00000000020221201000013000NNM   20220914154434    1W    00000100000000943000000000032P8    YIYTM   000000000000YT12B169
BI00B32P8    TAPAW-2121     2022110218007704034              AVSS 0.75F B/W           CCN000009000000009000FN00000000020221201000009000NNM   20220914154434    1W    00000100000000943000000000032P8    YIYTM   000000000000YT32A085
BI00B32P8    TAPAW-2122     2022110918007704034              AVSS 0.75F B/W           CCN000018000000018000FN00000000020221201000018000NNM   20220914154434    1W    00000100000000943000000000032P8    YIYTM   000000000000YT42A138
BI00B32P8    TAPAW-2123     2022111618007704034              AVSS 0.75F B/W           CCN000018000000018000FN00000000020221201000018000NNM   20220914154434    1W    00000100000000943000000000032P8    YIYTM   000000000000YT12B170
BI00B32P8    TAPAW-2122     2022110918007704037              AVSS 0.75F B/Y           CCN000009000000009000FN00000000020221201000009000NNM   20220914154434    1W    00000100000000943000000000032P8    YIYTM   000000000000YT42A139
BI00B32P8    TAPAW-2123     2022111618007704037              AVSS 0.75F B/Y           CCN000017000000017000FN00000000020221201000017000NNM   20220914154434    1W    00000100000000943000000000032P8    YIYTM   000000000000YT12B171
BI00B32P8    TAPAW-2121     2022110218007704080              AVSS 0.75F BR            CCN000003000000003000FN00000000020221201000003000NNM   20220914154434    1W    00000100000000943000000000032P8    YIYTM   000000000000YT32A086
BI00B32P8    TAPAW-2122     2022110918007704080              AVSS 0.75F BR            CCN000002000000002000FN00000000020221201000002000NNM   20220914154434    1W    00000100000000943000000000032P8    YIYTM   000000000000YT42A140
BI00B32P8    TAPAW-2123     2022111618007704080              AVSS 0.75F BR            CCN000002000000002000FN00000000020221201000002000NNM   20220914154434    1W    00000100000000943000000000032P8    YIYTM   000000000000YT12B172
BI00B32P8    TAPAW-2121     2022110218007704084              AVSS 0.75F BR/W          CCN000001000000001000FN00000000020221201000001000NNM   20220914154434    1W    00000100000000943000000000032P8    YIYTM   000000000000YT32A087
BI00B32P8    TAPAW-2122     2022110918007704084              AVSS 0.75F BR/W          CCN000001000000001000FN00000000020221201000001000NNM   20220914154434    1W    00000100000000943000000000032P8    YIYTM   000000000000YT42A141
BI00B32P8    TAPAW-2121     2022110218007704060              AVSS 0.75F G             CCN000019000000019000FN00000000020221201000019000NNM   20220914154434    1W    00000100000000943000000000032P8    YIYTM   000000000000YT32A088
BI00B32P8    TAPAW-2122     2022110918007704060              AVSS 0.75F G             CCN000017000000017000FN00000000020221201000017000NNM   20220914154434    1W    00000100000000943000000000032P8    YIYTM   000000000000YT42A142
BI00B32P8    TAPAW-2123     2022111618007704060              AVSS 0.75F G             CCN000016000000016000FN00000000020221201000016000NNM   20220914154434    1W    00000100000000943000000000032P8    YIYTM   000000000000YT12B173
BI00B32P8    TAPAW-2122     2022110918007704063              AVSS 0.75F G/B           CCN000002000000002000FN00000000020221201000002000NNM   20220914154434    1W    00000100000000943000000000032P8    YIYTM   000000000000YT42A143
BI00B32P8    TAPAW-2123     2022111618007704063              AVSS 0.75F G/B           CCN000002000000002000FN00000000020221201000002000NNM   20220914154434    1W    00000100000000943000000000032P8    YIYTM   000000000000YT12B174
BI00B32P8    TAPAW-2122     2022110918007704065              AVSS 0.75F G/R           CCN000003000000003000FN00000000020221201000003000NNM   20220914154434    1W    00000100000000943000000000032P8    YIYTM   000000000000YT42A144
BI00B32P8    TAPAW-2123     2022111618007704065              AVSS 0.75F G/R           CCN000006000000006000FN00000000020221201000006000NNM   20220914154434    1W    00000100000000943000000000032P8    YIYTM   000000000000YT12B175
BI00B32P8    TAPAW-2122     2022110918007704067              AVSS 0.75F G/Y           CCN000009000000009000FN00000000020221201000009000NNM   20220914154434    1W    00000100000000943000000000032P8    YIYTM   000000000000YT42A145
BI00B32P8    TAPAW-2123     2022111618007704067              AVSS 0.75F G/Y           CCN000009000000009000FN00000000020221201000009000NNM   20220914154434    1W    00000100000000943000000000032P8    YIYTM   000000000000YT12B176
BI00B32P8    TAPAW-2122     2022110918007704041              AVSS 0.75F GY            CCN000002000000002000FN00000000020221201000002000NNM   20220914154434    1W    00000100000000943000000000032P8    YIYTM   000000000000YT42A146
BI00B32P8    TAPAW-2123     2022111618007704041              AVSS 0.75F GY            CCN000007000000007000FN00000000020221201000007000NNM   20220914154434    1W    00000100000000943000000000032P8    YIYTM   000000000000YT12B177
BI00B32P8    TAPAW-2123     2022111618007704011              AVSS 0.75F GY/L          CCN000001000000001000FN00000000020221201000001000NNM   20220914154434    1W    00000100000000943000000000032P8    YIYTM   000000000000YT12B179
BI00B32P8    TAPAW-2121     2022110218007704090              AVSS 0.75F L             CCN000007000000007000FN00000000020221201000007000NNM   20220914154434    1W    00000100000000943000000000032P8    YIYTM   000000000000YT32A089
BI00B32P8    TAPAW-2122     2022110918007704090              AVSS 0.75F L             CCN000012000000012000FN00000000020221201000012000NNM   20220914154434    1W    00000100000000943000000000032P8    YIYTM   000000000000YT42A149
BI00B32P8    TAPAW-2123     2022111618007704090              AVSS 0.75F L             CCN000012000000012000FN00000000020221201000012000NNM   20220914154434    1W    00000100000000943000000000032P8    YIYTM   000000000000YT12B181
BI00B32P8    TAPAW-2122     2022110918007704096              AVSS 0.75F L/G           CCN000001000000001000FN00000000020221201000001000NNM   20220914154434    1W    00000100000000943000000000032P8    YIYTM   000000000000YT42A150
BI00B32P8    TAPAW-2122     2022110918007704095              AVSS 0.75F L/R           CCN000002000000002000FN00000000020221201000002000NNM   20220914154434    1W    00000100000000943000000000032P8    YIYTM   000000000000YT42A151
BI00B32P8    TAPAW-2123     2022111618007704095              AVSS 0.75F L/R           CCN000003000000003000FN00000000020221201000003000NNM   20220914154434    1W    00000100000000943000000000032P8    YIYTM   000000000000YT12B182
BI00B32P8    TAPAW-2123     2022111618007704094              AVSS 0.75F L/W           CCN000004000000004000FN00000000020221201000004000NNM   20220914154434    1W    00000100000000943000000000032P8    YIYTM   000000000000YT12B183
BI00B32P8    TAPAW-2122     2022110918007704097              AVSS 0.75F L/Y           CCN000007000000007000FN00000000020221201000007000NNM   20220914154434    1W    00000100000000943000000000032P8    YIYTM   000000000000YT42A152
BI00B32P8    TAPAW-2123     2022111618007704097              AVSS 0.75F L/Y           CCN000009000000009000FN00000000020221201000009000NNM   20220914154434    1W    00000100000000943000000000032P8    YIYTM   000000000000YT12B184
BI00B32P8    TAPAW-2121     2022110218007704061              AVSS 0.75F LG            CCN000001000000001000FN00000000020221201000001000NNM   20220914154434    1W    00000100000000943000000000032P8    YIYTM   000000000000YT32A090
BI00B32P8    TAPAW-2122     2022110918007704061              AVSS 0.75F LG            CCN000002000000002000FN00000000020221201000002000NNM   20220914154434    1W    00000100000000943000000000032P8    YIYTM   000000000000YT42A153
BI00B32P8    TAPAW-2123     2022111618007704061              AVSS 0.75F LG            CCN000002000000002000FN00000000020221201000002000NNM   20220914154434    1W    00000100000000943000000000032P8    YIYTM   000000000000YT12B185
BI00B32P8    TAPAW-2123     2022111618007704052              AVSS 0.75F P             CCN000002000000002000FN00000000020221201000002000NNM   20220914154434    1W    00000100000000943000000000032P8    YIYTM   000000000000YT12B186
BI00B32P8    TAPAW-2122     2022110918007704050              AVSS 0.75F R             CCN000010000000010000FN00000000020221201000010000NNM   20220914154434    1W    00000100000000943000000000032P8    YIYTM   000000000000YT42A154
BI00B32P8    TAPAW-2123     2022111618007704050              AVSS 0.75F R             CCN000011000000011000FN00000000020221201000011000NNM   20220914154434    1W    00000100000000943000000000032P8    YIYTM   000000000000YT12B187
BI00B32P8    TAPAW-2121     2022110218007704053              AVSS 0.75F R/B           CCN000003000000003000FN00000000020221201000003000NNM   20220914154434    1W    00000100000000943000000000032P8    YIYTM   000000000000YT32A091
BI00B32P8    TAPAW-2122     2022110918007704053              AVSS 0.75F R/B           CCN000002000000002000FN00000000020221201000002000NNM   20220914154434    1W    00000100000000943000000000032P8    YIYTM   000000000000YT42A155
BI00B32P8    TAPAW-2123     2022111618007704053              AVSS 0.75F R/B           CCN000002000000002000FN00000000020221201000002000NNM   20220914154434    1W    00000100000000943000000000032P8    YIYTM   000000000000YT12B188
BI00B32P8    TAPAW-2121     2022110218007704056              AVSS 0.75F R/G           CCN000001000000001000FN00000000020221201000001000NNM   20220914154434    1W    00000100000000943000000000032P8    YIYTM   000000000000YT32A092
BI00B32P8    TAPAW-2122     2022110918007704056              AVSS 0.75F R/G           CCN000005000000005000FN00000000020221201000005000NNM   20220914154434    1W    00000100000000943000000000032P8    YIYTM   000000000000YT42A156
BI00B32P8    TAPAW-2123     2022111618007704056              AVSS 0.75F R/G           CCN000005000000005000FN00000000020221201000005000NNM   20220914154434    1W    00000100000000943000000000032P8    YIYTM   000000000000YT12B189
BI00B32P8    TAPAW-2121     2022110218007704059              AVSS 0.75F R/L           CCN000003000000003000FN00000000020221201000003000NNM   20220914154434    1W    00000100000000943000000000032P8    YIYTM   000000000000YT32A093
BI00B32P8    TAPAW-2122     2022110918007704059              AVSS 0.75F R/L           CCN000003000000003000FN00000000020221201000003000NNM   20220914154434    1W    00000100000000943000000000032P8    YIYTM   000000000000YT42A157
BI00B32P8    TAPAW-2123     2022111618007704059              AVSS 0.75F R/L           CCN000004000000004000FN00000000020221201000004000NNM   20220914154434    1W    00000100000000943000000000032P8    YIYTM   000000000000YT12B190
BI00B32P8    TAPAW-2122     2022110918007704054              AVSS 0.75F R/W           CCN000006000000006000FN00000000020221201000006000NNM   20220914154434    1W    00000100000000943000000000032P8    YIYTM   000000000000YT42A158
BI00B32P8    TAPAW-2123     2022111618007704054              AVSS 0.75F R/W           CCN000006000000006000FN00000000020221201000006000NNM   20220914154434    1W    00000100000000943000000000032P8    YIYTM   000000000000YT12B191
BI00B32P8    TAPAW-2122     2022110918007704057              AVSS 0.75F R/Y           CCN000007000000007000FN00000000020221201000007000NNM   20220914154434    1W    00000100000000943000000000032P8    YIYTM   000000000000YT42A159
BI00B32P8    TAPAW-2123     2022111618007704057              AVSS 0.75F R/Y           CCN000008000000008000FN00000000020221201000008000NNM   20220914154434    1W    00000100000000943000000000032P8    YIYTM   000000000000YT12B192
BI00B32P8    TAPAW-2121     2022110218007704092              AVSS 0.75F V             CCN000008000000008000FN00000000020221201000008000NNM   20220914154434    1W    00000100000000943000000000032P8    YIYTM   000000000000YT32A094
BI00B32P8    TAPAW-2122     2022110918007704092              AVSS 0.75F V             CCN000006000000006000FN00000000020221201000006000NNM   20220914154434    1W    00000100000000943000000000032P8    YIYTM   000000000000YT42A160
BI00B32P8    TAPAW-2123     2022111618007704092              AVSS 0.75F V             CCN000005000000005000FN00000000020221201000005000NNM   20220914154434    1W    00000100000000943000000000032P8    YIYTM   000000000000YT12B193
BI00B32P8    TAPAW-2121     2022110218007704040              AVSS 0.75F W             CCN000016000000016000FN00000000020221201000016000NNM   20220914154434    1W    00000100000000943000000000032P8    YIYTM   000000000000YT32A096
BI00B32P8    TAPAW-2122     2022110918007704040              AVSS 0.75F W             CCN000009000000009000FN00000000020221201000009000NNM   20220914154434    1W    00000100000000943000000000032P8    YIYTM   000000000000YT42A163
BI00B32P8    TAPAW-2123     2022111618007704040              AVSS 0.75F W             CCN000009000000009000FN00000000020221201000009000NNM   20220914154434    1W    00000100000000943000000000032P8    YIYTM   000000000000YT12B196
BI00B32P8    TAPAW-2122     2022110918007704049              AVSS 0.75F W/L           CCN000002000000002000FN00000000020221201000002000NNM   20220914154434    1W    00000100000000943000000000032P8    YIYTM   000000000000YT42A164
BI00B32P8    TAPAW-2123     2022111618007704049              AVSS 0.75F W/L           CCN000005000000005000FN00000000020221201000005000NNM   20220914154434    1W    00000100000000943000000000032P8    YIYTM   000000000000YT12B197
BI00B32P8    TAPAW-2122     2022110918007704045              AVSS 0.75F W/R           CCN000003000000003000FN00000000020221201000003000NNM   20220914154434    1W    00000100000000943000000000032P8    YIYTM   000000000000YT42A165
BI00B32P8    TAPAW-2123     2022111618007704045              AVSS 0.75F W/R           CCN000004000000004000FN00000000020221201000004000NNM   20220914154434    1W    00000100000000943000000000032P8    YIYTM   000000000000YT12B198
BI00B32P8    TAPAW-2121     2022110218007704070              AVSS 0.75F Y             CCN000008000000008000FN00000000020221201000008000NNM   20220914154434    1W    00000100000000943000000000032P8    YIYTM   000000000000YT32A097
BI00B32P8    TAPAW-2122     2022110918007704070              AVSS 0.75F Y             CCN000005000000005000FN00000000020221201000005000NNM   20220914154434    1W    00000100000000943000000000032P8    YIYTM   000000000000YT42A166
BI00B32P8    TAPAW-2123     2022111618007704070              AVSS 0.75F Y             CCN000004000000004000FN00000000020221201000004000NNM   20220914154434    1W    00000100000000943000000000032P8    YIYTM   000000000000YT12B199
BI00B32P8    TAPAW-2121     2022110218007704073              AVSS 0.75F Y/B           CCN000005000000005000FN00000000020221201000005000NNM   20220914154434    1W    00000100000000943000000000032P8    YIYTM   000000000000YT32A098
BI00B32P8    TAPAW-2122     2022110918007704073              AVSS 0.75F Y/B           CCN000003000000003000FN00000000020221201000003000NNM   20220914154434    1W    00000100000000943000000000032P8    YIYTM   000000000000YT42A167
BI00B32P8    TAPAW-2123     2022111618007704073              AVSS 0.75F Y/B           CCN000003000000003000FN00000000020221201000003000NNM   20220914154434    1W    00000100000000943000000000032P8    YIYTM   000000000000YT12B200
BI00B32P8    TAPAW-2122     2022110918007704075              AVSS 0.75F Y/R           CCN000007000000007000FN00000000020221201000007000NNM   20220914154434    1W    00000100000000943000000000032P8    YIYTM   000000000000YT42A169
BI00B32P8    TAPAW-2123     2022111618007704075              AVSS 0.75F Y/R           CCN000010000000010000FN00000000020221201000010000NNM   20220914154434    1W    00000100000000943000000000032P8    YIYTM   000000000000YT12B202
BI00B32P8    TAPAW-2122     2022110918007704130              AVSS 1.25F B             CCN000010400000010400FN00000000020221201000010400NNM   20220914154434    1W    00000080000001389000000000032P8    YIYTM   000000000000YT42A170
BI00B32P8    TAPAW-2123     2022111618007704130              AVSS 1.25F B             CCN000020800000020800FN00000000020221201000020800NNM   20220914154434    1W    00000080000001389000000000032P8    YIYTM   000000000000YT12B203
BI00B32P8    TAPAW-2122     2022110918007704134              AVSS 1.25F B/W           CCN000006400000006400FN00000000020221201000006400NNM   20220914154434    1W    00000080000001389000000000032P8    YIYTM   000000000000YT42A171
BI00B32P8    TAPAW-2123     2022111618007704134              AVSS 1.25F B/W           CCN000006400000006400FN00000000020221201000006400NNM   20220914154434    1W    00000080000001389000000000032P8    YIYTM   000000000000YT12B204
BI00B32P8    TAPAW-2122     2022110918007704180              AVSS 1.25F BR            CCN000000800000000800FN00000000020221201000000800NNM   20220914154434    1W    00000080000001389000000000032P8    YIYTM   000000000000YT42A172
BI00B32P8    TAPAW-2123     2022111618007704180              AVSS 1.25F BR            CCN000001600000001600FN00000000020221201000001600NNM   20220914154434    1W    00000080000001389000000000032P8    YIYTM   000000000000YT12B205
BI00B32P8    TAPAW-2122     2022110918007704160              AVSS 1.25F G             CCN000003200000003200FN00000000020221201000003200NNM   20220914154434    1W    00000080000001389000000000032P8    YIYTM   000000000000YT42A173
BI00B32P8    TAPAW-2123     2022111618007704160              AVSS 1.25F G             CCN000004000000004000FN00000000020221201000004000NNM   20220914154434    1W    00000080000001389000000000032P8    YIYTM   000000000000YT12B206
BI00B32P8    TAPAW-2123     2022111618007704163              AVSS 1.25F G/B           CCN000001600000001600FN00000000020221201000001600NNM   20220914154434    1W    00000080000001389000000000032P8    YIYTM   000000000000YT12B207
BI00B32P8    TAPAW-2123     2022111618007704165              AVSS 1.25F G/R           CCN000001600000001600FN00000000020221201000001600NNM   20220914154434    1W    00000080000001389000000000032P8    YIYTM   000000000000YT12B208
BI00B32P8    TAPAW-2122     2022110918007704141              AVSS 1.25F GY            CCN000004000000004000FN00000000020221201000004000NNM   20220914154434    1W    00000080000001389000000000032P8    YIYTM   000000000000YT42A174
BI00B32P8    TAPAW-2123     2022111618007704141              AVSS 1.25F GY            CCN000004800000004800FN00000000020221201000004800NNM   20220914154434    1W    00000080000001389000000000032P8    YIYTM   000000000000YT12B209
BI00B32P8    TAPAW-2122     2022110918007704190              AVSS 1.25F L             CCN000003200000003200FN00000000020221201000003200NNM   20220914154434    1W    00000080000001389000000000032P8    YIYTM   000000000000YT42A175
BI00B32P8    TAPAW-2123     2022111618007704190              AVSS 1.25F L             CCN000004000000004000FN00000000020221201000004000NNM   20220914154434    1W    00000080000001389000000000032P8    YIYTM   000000000000YT12B210
BI00B32P8    TAPAW-2121     2022110218007704193              AVSS 1.25F L/B           CCN000000800000000800FN00000000020221201000000800NNM   20220914154434    1W    00000080000001389000000000032P8    YIYTM   000000000000YT32A100
BI00B32P8    TAPAW-2122     2022110918007704193              AVSS 1.25F L/B           CCN000001600000001600FN00000000020221201000001600NNM   20220914154434    1W    00000080000001389000000000032P8    YIYTM   000000000000YT42A176
BI00B32P8    TAPAW-2123     2022111618007704193              AVSS 1.25F L/B           CCN000001600000001600FN00000000020221201000001600NNM   20220914154434    1W    00000080000001389000000000032P8    YIYTM   000000000000YT12B211
BI00B32P8    TAPAW-2122     2022110918007704195              AVSS 1.25F L/R           CCN000000800000000800FN00000000020221201000000800NNM   20220914154434    1W    00000080000001389000000000032P8    YIYTM   000000000000YT42A177
BI00B32P8    TAPAW-2123     2022111618007704197              AVSS 1.25F L/Y           CCN000002400000002400FN00000000020221201000002400NNM   20220914154434    1W    00000080000001389000000000032P8    YIYTM   000000000000YT12B212
BI00B32P8    TAPAW-2121     2022110218007704152              AVSS 1.25F P             CCN000001600000001600FN00000000020221201000001600NNM   20220914154434    1W    00000080000001389000000000032P8    YIYTM   000000000000YT32A101
BI00B32P8    TAPAW-2122     2022110918007704152              AVSS 1.25F P             CCN000000800000000800FN00000000020221201000000800NNM   20220914154434    1W    00000080000001389000000000032P8    YIYTM   000000000000YT42A178
BI00B32P8    TAPAW-2123     2022111618007704152              AVSS 1.25F P             CCN000000800000000800FN00000000020221201000000800NNM   20220914154434    1W    00000080000001389000000000032P8    YIYTM   000000000000YT12B213
BI00B32P8    TAPAW-2122     2022110918007704150              AVSS 1.25F R             CCN000001600000001600FN00000000020221201000001600NNM   20220914154434    1W    00000080000001389000000000032P8    YIYTM   000000000000YT42A179
BI00B32P8    TAPAW-2123     2022111618007704150              AVSS 1.25F R             CCN000006400000006400FN00000000020221201000006400NNM   20220914154434    1W    00000080000001389000000000032P8    YIYTM   000000000000YT12B214
BI00B32P8    TAPAW-2123     2022111618007704159              AVSS 1.25F R/L           CCN000001600000001600FN00000000020221201000001600NNM   20220914154434    1W    00000080000001389000000000032P8    YIYTM   000000000000YT12B216
BI00B32P8    TAPAW-2121     2022110218007704157              AVSS 1.25F R/Y           CCN000002400000002400FN00000000020221201000002400NNM   20220914154434    1W    00000080000001389000000000032P8    YIYTM   000000000000YT32A103
BI00B32P8    TAPAW-2122     2022110918007704157              AVSS 1.25F R/Y           CCN000004800000004800FN00000000020221201000004800NNM   20220914154434    1W    00000080000001389000000000032P8    YIYTM   000000000000YT42A181
BI00B32P8    TAPAW-2123     2022111618007704157              AVSS 1.25F R/Y           CCN000004800000004800FN00000000020221201000004800NNM   20220914154434    1W    00000080000001389000000000032P8    YIYTM   000000000000YT12B217
BI00B32P8    TAPAW-2123     2022111618007704140              AVSS 1.25F W             CCN000007200000007200FN00000000020221201000007200NNM   20220914154434    1W    00000080000001389000000000032P8    YIYTM   000000000000YT12B218
BI00B32P8    TAPAW-2122     2022110918007704143              AVSS 1.25F W/B           CCN000000800000000800FN00000000020221201000000800NNM   20220914154434    1W    00000080000001389000000000032P8    YIYTM   000000000000YT42A182
BI00B32P8    TAPAW-2123     2022111618007704143              AVSS 1.25F W/B           CCN000003200000003200FN00000000020221201000003200NNM   20220914154434    1W    00000080000001389000000000032P8    YIYTM   000000000000YT12B219
BI00B32P8    TAPAW-2121     2022110218007704146              AVSS 1.25F W/G           CCN000003200000003200FN00000000020221201000003200NNM   20220914154434    1W    00000080000001389000000000032P8    YIYTM   000000000000YT32A104
BI00B32P8    TAPAW-2122     2022110918007704146              AVSS 1.25F W/G           CCN000001600000001600FN00000000020221201000001600NNM   20220914154434    1W    00000080000001389000000000032P8    YIYTM   000000000000YT42A183
BI00B32P8    TAPAW-2123     2022111618007704146              AVSS 1.25F W/G           CCN000001600000001600FN00000000020221201000001600NNM   20220914154434    1W    00000080000001389000000000032P8    YIYTM   000000000000YT12B220
BI00B32P8    TAPAW-2122     2022110918007704149              AVSS 1.25F W/L           CCN000002400000002400FN00000000020221201000002400NNM   20220914154434    1W    00000080000001389000000000032P8    YIYTM   000000000000YT42A184
BI00B32P8    TAPAW-2123     2022111618007704149              AVSS 1.25F W/L           CCN000002400000002400FN00000000020221201000002400NNM   20220914154434    1W    00000080000001389000000000032P8    YIYTM   000000000000YT12B221
BI00B32P8    TAPAW-2122     2022110918007704145              AVSS 1.25F W/R           CCN000000800000000800FN00000000020221201000000800NNM   20220914154434    1W    00000080000001389000000000032P8    YIYTM   000000000000YT42A185
BI00B32P8    TAPAW-2122     2022110918007704170              AVSS 1.25F Y             CCN000000800000000800FN00000000020221201000000800NNM   20220914154434    1W    00000080000001389000000000032P8    YIYTM   000000000000YT42A186
BI00B32P8    TAPAW-2123     2022111618007704170              AVSS 1.25F Y             CCN000008000000008000FN00000000020221201000008000NNM   20220914154434    1W    00000080000001389000000000032P8    YIYTM   000000000000YT12B222
BI00B32P8    TAPAW-2122     2022110918007704173              AVSS 1.25F Y/B           CCN000000800000000800FN00000000020221201000000800NNM   20220914154434    1W    00000080000001389000000000032P8    YIYTM   000000000000YT42A187
BI00B32P8    TAPAW-2123     2022111618007704173              AVSS 1.25F Y/B           CCN000002400000002400FN00000000020221201000002400NNM   20220914154434    1W    00000080000001389000000000032P8    YIYTM   000000000000YT12B223
BI00B32P8    TAPAW-2123     2022111618007704176              AVSS 1.25F Y/G           CCN000000800000000800FN00000000020221201000000800NNM   20220914154434    1W    00000080000001389000000000032P8    YIYTM   000000000000YT12B224
BI00B32P8    TAPAW-2123     2022111618007704175              AVSS 1.25F Y/R           CCN000000800000000800FN00000000020221201000000800NNM   20220914154434    1W    00000080000001389000000000032P8    YIYTM   000000000000YT12B225
BI00B32P8    TAPAW-2121     20221102180D0203740              AVSSH 0.3F W             CCN000004000000004000FN00000000020221201000004000NNM   20220914154434    1W    00000200000000515000000000032P8    YIYTM   000000000000YT32A046
BI00B32P8    TAPAW-2122     20221109180D0203740              AVSSH 0.3F W             CCN000006000000006000FN00000000020221201000006000NNM   20220914154434    1W    00000200000000515000000000032P8    YIYTM   000000000000YT42A064
BI00B32P8    TAPAW-2123     20221116180D0203740              AVSSH 0.3F W             CCN000004000000004000FN00000000020221201000004000NNM   20220914154434    1W    00000200000000515000000000032P8    YIYTM   000000000000YT12B078
BI00B32P8    TAPAW-2122     20221109180D0203930              AVSSH 0.5F B             CCN000001500000001500FN00000000020221201000001500NNM   20220914154434    1W    00000150000000689000000000032P8    YIYTM   000000000000YT42A065
BI00B32P8    TAPAW-2123     20221116180D0203930              AVSSH 0.5F B             CCN000012000000012000FN00000000020221201000012000NNM   20220914154434    1W    00000150000000689000000000032P8    YIYTM   000000000000YT12B079
BI00B32P8    TAPAW-2122     20221109180D0203935              AVSSH 0.5F B/R           CCN000003000000003000FN00000000020221201000003000NNM   20220914154434    1W    00000150000000689000000000032P8    YIYTM   000000000000YT42A066
BI00B32P8    TAPAW-2123     20221116180D0203935              AVSSH 0.5F B/R           CCN000003000000003000FN00000000020221201000003000NNM   20220914154434    1W    00000150000000689000000000032P8    YIYTM   000000000000YT12B080
BI00B32P8    TAPAW-2121     20221102180D0203934              AVSSH 0.5F B/W           CCN000001500000001500FN00000000020221201000001500NNM   20220914154434    1W    00000150000000689000000000032P8    YIYTM   000000000000YT32A047
BI00B32P8    TAPAW-2123     20221116180D0203934              AVSSH 0.5F B/W           CCN000001500000001500FN00000000020221201000001500NNM   20220914154434    1W    00000150000000689000000000032P8    YIYTM   000000000000YT12B081
BI00B32P8    TAPAW-2121     20221102180D0203964              AVSSH 0.5F G/W           CCN000003000000003000FN00000000020221201000003000NNM   20220914154434    1W    00000150000000689000000000032P8    YIYTM   000000000000YT32A048
BI00B32P8    TAPAW-2122     20221109180D0203964              AVSSH 0.5F G/W           CCN000003000000003000FN00000000020221201000003000NNM   20220914154434    1W    00000150000000689000000000032P8    YIYTM   000000000000YT42A067
BI00B32P8    TAPAW-2123     20221116180D0203964              AVSSH 0.5F G/W           CCN000003000000003000FN00000000020221201000003000NNM   20220914154434    1W    00000150000000689000000000032P8    YIYTM   000000000000YT12B082
BI00B32P8    TAPAW-2121     20221102180D0203941              AVSSH 0.5F GY            CCN000003000000003000FN00000000020221201000003000NNM   20220914154434    1W    00000150000000689000000000032P8    YIYTM   000000000000YT32A049
BI00B32P8    TAPAW-2122     20221109180D0203941              AVSSH 0.5F GY            CCN000001500000001500FN00000000020221201000001500NNM   20220914154434    1W    00000150000000689000000000032P8    YIYTM   000000000000YT42A068
BI00B32P8    TAPAW-2123     20221116180D0203941              AVSSH 0.5F GY            CCN000001500000001500FN00000000020221201000001500NNM   20220914154434    1W    00000150000000689000000000032P8    YIYTM   000000000000YT12B083
BI00B32P8    TAPAW-2121     20221102180D0203990              AVSSH 0.5F L             CCN000001500000001500FN00000000020221201000001500NNM   20220914154434    1W    00000150000000689000000000032P8    YIYTM   000000000000YT32A050
BI00B32P8    TAPAW-2122     20221109180D0203990              AVSSH 0.5F L             CCN000007500000007500FN00000000020221201000007500NNM   20220914154434    1W    00000150000000689000000000032P8    YIYTM   000000000000YT42A069
BI00B32P8    TAPAW-2123     20221116180D0203990              AVSSH 0.5F L             CCN000007500000007500FN00000000020221201000007500NNM   20220914154434    1W    00000150000000689000000000032P8    YIYTM   000000000000YT12B084
BI00B32P8    TAPAW-2121     20221102180D0203994              AVSSH 0.5F L/W           CCN000003000000003000FN00000000020221201000003000NNM   20220914154434    1W    00000150000000689000000000032P8    YIYTM   000000000000YT32A051
BI00B32P8    TAPAW-2122     20221109180D0203994              AVSSH 0.5F L/W           CCN000004500000004500FN00000000020221201000004500NNM   20220914154434    1W    00000150000000689000000000032P8    YIYTM   000000000000YT42A070
BI00B32P8    TAPAW-2123     20221116180D0203994              AVSSH 0.5F L/W           CCN000004500000004500FN00000000020221201000004500NNM   20220914154434    1W    00000150000000689000000000032P8    YIYTM   000000000000YT12B085
BI00B32P8    TAPAW-2122     20221109180D0203961              AVSSH 0.5F LG            CCN000001500000001500FN00000000020221201000001500NNM   20220914154434    1W    00000150000000689000000000032P8    YIYTM   000000000000YT42A071
BI00B32P8    TAPAW-2121     20221102180D0203952              AVSSH 0.5F P             CCN000004500000004500FN00000000020221201000004500NNM   20220914154434    1W    00000150000000689000000000032P8    YIYTM   000000000000YT32A052
BI00B32P8    TAPAW-2122     20221109180D0203952              AVSSH 0.5F P             CCN000003000000003000FN00000000020221201000003000NNM   20220914154434    1W    00000150000000689000000000032P8    YIYTM   000000000000YT42A072
BI00B32P8    TAPAW-2123     20221116180D0203952              AVSSH 0.5F P             CCN000003000000003000FN00000000020221201000003000NNM   20220914154434    1W    00000150000000689000000000032P8    YIYTM   000000000000YT12B086
BI00B32P8    TAPAW-2121     20221102180D0203907              AVSSH 0.5F P/B           CCN000003000000003000FN00000000020221201000003000NNM   20220914154434    1W    00000150000000689000000000032P8    YIYTM   000000000000YT32A053
BI00B32P8    TAPAW-2122     20221109180D0203907              AVSSH 0.5F P/B           CCN000003000000003000FN00000000020221201000003000NNM   20220914154434    1W    00000150000000689000000000032P8    YIYTM   000000000000YT42A073
BI00B32P8    TAPAW-2123     20221116180D0203907              AVSSH 0.5F P/B           CCN000001500000001500FN00000000020221201000001500NNM   20220914154434    1W    00000150000000689000000000032P8    YIYTM   000000000000YT12B087
BI00B32P8    TAPAW-2123     20221116180D0203950              AVSSH 0.5F R             CCN000003000000003000FN00000000020221201000003000NNM   20220914154434    1W    00000150000000689000000000032P8    YIYTM   000000000000YT12B088
BI00B32P8    TAPAW-2122     20221109180D0203954              AVSSH 0.5F R/W           CCN000001500000001500FN00000000020221201000001500NNM   20220914154434    1W    00000150000000689000000000032P8    YIYTM   000000000000YT42A074
BI00B32P8    TAPAW-2123     20221116180D0203954              AVSSH 0.5F R/W           CCN000003000000003000FN00000000020221201000003000NNM   20220914154434    1W    00000150000000689000000000032P8    YIYTM   000000000000YT12B089
BI00B32P8    TAPAW-2122     20221109180D0203940              AVSSH 0.5F W             CCN000001500000001500FN00000000020221201000001500NNM   20220914154434    1W    00000150000000689000000000032P8    YIYTM   000000000000YT42A075
BI00B32P8    TAPAW-2123     20221116180D0203940              AVSSH 0.5F W             CCN000003000000003000FN00000000020221201000003000NNM   20220914154434    1W    00000150000000689000000000032P8    YIYTM   000000000000YT12B090
BI00B32P8    TAPAW-2121     20221102180D0203943              AVSSH 0.5F W/B           CCN000003000000003000FN00000000020221201000003000NNM   20220914154434    1W    00000150000000689000000000032P8    YIYTM   000000000000YT32A054
BI00B32P8    TAPAW-2122     20221109180D0203943              AVSSH 0.5F W/B           CCN000016500000016500FN00000000020221201000016500NNM   20220914154434    1W    00000150000000689000000000032P8    YIYTM   000000000000YT42A076
BI00B32P8    TAPAW-2123     20221116180D0203943              AVSSH 0.5F W/B           CCN000016500000016500FN00000000020221201000016500NNM   20220914154434    1W    00000150000000689000000000032P8    YIYTM   000000000000YT12B091
BI00B32P8    TAPAW-2121     20221102180D0203970              AVSSH 0.5F Y             CCN000004500000004500FN00000000020221201000004500NNM   20220914154434    1W    00000150000000689000000000032P8    YIYTM   000000000000YT32A055
BI00B32P8    TAPAW-2122     20221109180D0203970              AVSSH 0.5F Y             CCN000004500000004500FN00000000020221201000004500NNM   20220914154434    1W    00000150000000689000000000032P8    YIYTM   000000000000YT42A077
BI00B32P8    TAPAW-2123     20221116180D0203970              AVSSH 0.5F Y             CCN000004500000004500FN00000000020221201000004500NNM   20220914154434    1W    00000150000000689000000000032P8    YIYTM   000000000000YT12B092
BI00B32P8    TAPAW-2121     20221102180D0203973              AVSSH 0.5F Y/B           CCN000001500000001500FN00000000020221201000001500NNM   20220914154434    1W    00000150000000689000000000032P8    YIYTM   000000000000YT32A056
BI00B32P8    TAPAW-2122     20221109180D0203973              AVSSH 0.5F Y/B           CCN000001500000001500FN00000000020221201000001500NNM   20220914154434    1W    00000150000000689000000000032P8    YIYTM   000000000000YT42A078
BI00B32P8    TAPAW-2122     20221109180D0203975              AVSSH 0.5F Y/R           CCN000001500000001500FN00000000020221201000001500NNM   20220914154434    1W    00000150000000689000000000032P8    YIYTM   000000000000YT42A079
BI00B32P8    TAPAW-2122     20221109180D0204030              AVSSH 0.75F B            CCN000001000000001000FN00000000020221201000001000NNM   20220914154434    1W    00000100000000934000000000032P8    YIYTM   000000000000YT42A080
BI00B32P8    TAPAW-2123     20221116180D0204030              AVSSH 0.75F B            CCN000001000000001000FN00000000020221201000001000NNM   20220914154434    1W    00000100000000934000000000032P8    YIYTM   000000000000YT12B093
BI00B32P8    TAPAW-2123     20221116180D0204039              AVSSH 0.75F B/L          CCN000001000000001000FN00000000020221201000001000NNM   20220914154434    1W    00000100000000934000000000032P8    YIYTM   000000000000YT12B094
BI00B32P8    TAPAW-2122     20221109180D0204034              AVSSH 0.75F B/W          CCN000001000000001000FN00000000020221201000001000NNM   20220914154434    1W    00000100000000934000000000032P8    YIYTM   000000000000YT42A081
BI00B32P8    TAPAW-2123     20221116180D0204034              AVSSH 0.75F B/W          CCN000002000000002000FN00000000020221201000002000NNM   20220914154434    1W    00000100000000934000000000032P8    YIYTM   000000000000YT12B095
BI00B32P8    TAPAW-2121     20221102180D0204060              AVSSH 0.75F G            CCN000002000000002000FN00000000020221201000002000NNM   20220914154434    1W    00000100000000934000000000032P8    YIYTM   000000000000YT32A057
BI00B32P8    TAPAW-2122     20221109180D0204060              AVSSH 0.75F G            CCN000001000000001000FN00000000020221201000001000NNM   20220914154434    1W    00000100000000934000000000032P8    YIYTM   000000000000YT42A082
BI00B32P8    TAPAW-2123     20221116180D0204060              AVSSH 0.75F G            CCN000001000000001000FN00000000020221201000001000NNM   20220914154434    1W    00000100000000934000000000032P8    YIYTM   000000000000YT12B096
BI00B32P8    TAPAW-2121     20221102180D0204054              AVSSH 0.75F R/W          CCN000006000000006000FN00000000020221201000006000NNM   20220914154434    1W    00000100000000934000000000032P8    YIYTM   000000000000YT32A058
BI00B32P8    TAPAW-2122     20221109180D0204054              AVSSH 0.75F R/W          CCN000003000000003000FN00000000020221201000003000NNM   20220914154434    1W    00000100000000934000000000032P8    YIYTM   000000000000YT42A084
BI00B32P8    TAPAW-2123     20221116180D0204054              AVSSH 0.75F R/W          CCN000004000000004000FN00000000020221201000004000NNM   20220914154434    1W    00000100000000934000000000032P8    YIYTM   000000000000YT12B098
BI00B32P8    TAPAW-2123     20221116180D0204049              AVSSH 0.75F W/L          CCN000001000000001000FN00000000020221201000001000NNM   20220914154434    1W    00000100000000934000000000032P8    YIYTM   000000000000YT12B099
BI00B32P8    TAPAW-2122     20221109180D0204130              AVSSH 1.25F B            CCN000003200000003200FN00000000020221201000003200NNM   20220914154434    1W    00000080000001458000000000032P8    YIYTM   000000000000YT42A085
BI00B32P8    TAPAW-2123     20221116180D0204130              AVSSH 1.25F B            CCN000009600000009600FN00000000020221201000009600NNM   20220914154434    1W    00000080000001458000000000032P8    YIYTM   000000000000YT12B100
BI00B32P8    TAPAW-2123     20221116180D0204160              AVSSH 1.25F G            CCN000005600000005600FN00000000020221201000005600NNM   20220914154434    1W    00000080000001458000000000032P8    YIYTM   000000000000YT12B101
BI00B32P8    TAPAW-2123     20221116180D0204190              AVSSH 1.25F L            CCN000003200000003200FN00000000020221201000003200NNM   20220914154434    1W    00000080000001458000000000032P8    YIYTM   000000000000YT12B102
BI00B32P8    TAPAW-2121     20221102180D0204150              AVSSH 1.25F R            CCN000002400000002400FN00000000020221201000002400NNM   20220914154434    1W    00000080000001458000000000032P8    YIYTM   000000000000YT32A059
BI00B32P8    TAPAW-2122     20221109180D0204150              AVSSH 1.25F R            CCN000002400000002400FN00000000020221201000002400NNM   20220914154434    1W    00000080000001458000000000032P8    YIYTM   000000000000YT42A086
BI00B32P8    TAPAW-2123     20221116180D0204150              AVSSH 1.25F R            CCN000002400000002400FN00000000020221201000002400NNM   20220914154434    1W    00000080000001458000000000032P8    YIYTM   000000000000YT12B103
BI00B32P8    TAPAW-2122     20221109180D0204140              AVSSH 1.25F W            CCN000004800000004800FN00000000020221201000004800NNM   20220914154434    1W    00000080000001458000000000032P8    YIYTM   000000000000YT42A087
BI00B32P8    TAPAW-2123     20221116180D0204140              AVSSH 1.25F W            CCN000011200000011200FN00000000020221201000011200NNM   20220914154434    1W    00000080000001458000000000032P8    YIYTM   000000000000YT12B104
BI00B32P8    TAPAW-2122     20221109180D0204143              AVSSH 1.25F W/B          CCN000018400000018400FN00000000020221201000018400NNM   20220914154434    1W    00000080000001458000000000032P8    YIYTM   000000000000YT42A088
BI00B32P8    TAPAW-2123     20221116180D0204143              AVSSH 1.25F W/B          CCN000022400000022400FN00000000020221201000022400NNM   20220914154434    1W    00000080000001458000000000032P8    YIYTM   000000000000YT12B105
BI00B32P8    TAPAW-2123     20221116180D0204170              AVSSH 1.25F Y            CCN000002400000002400FN00000000020221201000002400NNM   20220914154434    1W    00000080000001458000000000032P8    YIYTM   000000000000YT12B106
BI00B32P8    TAPAW-2122     202211091801W003980              IVSSH 0.5F BR            CCN000003600000003600FN00000000020221201000003600NNM   20220914154434    1W    00000180000000625000000000032P8    YIYTM   000000000000YT42A192
BI00B32P8    TAPAW-2123     202211161801W003980              IVSSH 0.5F BR            CCN000010800000010800FN00000000020221201000010800NNM   20220914154434    1W    00000180000000625000000000032P8    YIYTM   000000000000YT12B230
BI00B32P8    TAPAW-2122     202211091801W003960              IVSSH 0.5F G             CCN000039600000039600FN00000000020221201000039600NNM   20220914154434    1W    00000180000000625000000000032P8    YIYTM   000000000000YT42A193
BI00B32P8    TAPAW-2123     202211161801W003960              IVSSH 0.5F G             CCN000050400000050400FN00000000020221201000050400NNM   20220914154434    1W    00000180000000625000000000032P8    YIYTM   000000000000YT12B231
BI00B32P8    TAPAW-2122     202211091801W003990              IVSSH 0.5F L             CCN000027000000027000FN00000000020221201000027000NNM   20220914154434    1W    00000180000000625000000000032P8    YIYTM   000000000000YT42A194
BI00B32P8    TAPAW-2123     202211161801W003990              IVSSH 0.5F L             CCN000032400000032400FN00000000020221201000032400NNM   20220914154434    1W    00000180000000625000000000032P8    YIYTM   000000000000YT12B232
BI00B32P8    TAPAW-2122     202211091801W003950              IVSSH 0.5F R             CCN000010800000010800FN00000000020221201000010800NNM   20220914154434    1W    00000180000000625000000000032P8    YIYTM   000000000000YT42A196
BI00B32P8    TAPAW-2123     202211161801W003950              IVSSH 0.5F R             CCN000009000000009000FN00000000020221201000009000NNM   20220914154434    1W    00000180000000625000000000032P8    YIYTM   000000000000YT12B234
BI00B32P8    TAPAW-2122     202211091801W003943              IVSSH 0.5F W/B           CCN000010800000010800FN00000000020221201000010800NNM   20220914154434    1W    00000180000000625000000000032P8    YIYTM   000000000000YT42A197
BI00B32P8    TAPAW-2123     202211161801W003943              IVSSH 0.5F W/B           CCN000019800000019800FN00000000020221201000019800NNM   20220914154434    1W    00000180000000625000000000032P8    YIYTM   000000000000YT12B236
BI00B32P8    TAPAW-2122     202211091801W004090              IVSSH 0.75F L            CCN000002600000002600FN00000000020221201000002600NNM   20220914154434    1W    00000130000000882000000000032P8    YIYTM   000000000000YT42A199
BI00B32P8    TAPAW-2123     202211161801W004090              IVSSH 0.75F L            CCN000006500000006500FN00000000020221201000006500NNM   20220914154434    1W    00000130000000882000000000032P8    YIYTM   000000000000YT12B239
BI00B32P8    TAPAW-2121     202211021801W004050              IVSSH 0.75F R            CCN000001300000001300FN00000000020221201000001300NNM   20220914154434    1W    00000130000000882000000000032P8    YIYTM   000000000000YT32A106
BI00B32P8    TAPAW-2123     202211161801W004050              IVSSH 0.75F R            CCN000001300000001300FN00000000020221201000001300NNM   20220914154434    1W    00000130000000882000000000032P8    YIYTM   000000000000YT12B240
BI00B32P8    TAPAW-2121     202211021801W004040              IVSSH 0.75F W            CCN000006500000006500FN00000000020221201000006500NNM   20220914154434    1W    00000130000000882000000000032P8    YIYTM   000000000000YT32A107
BI00B32P8    TAPAW-2122     202211091801W004040              IVSSH 0.75F W            CCN000003900000003900FN00000000020221201000003900NNM   20220914154434    1W    00000130000000882000000000032P8    YIYTM   000000000000YT42A200
BI00B32P8    TAPAW-2123     202211161801W004040              IVSSH 0.75F W            CCN000003900000003900FN00000000020221201000003900NNM   20220914154434    1W    00000130000000882000000000032P8    YIYTM   000000000000YT12B241
BI00B32P8    TAPAW-2123     202211161801W004043              IVSSH 0.75F W/B          CCN000001300000001300FN00000000020221201000001300NNM   20220914154434    1W    00000130000000882000000000032P8    YIYTM   000000000000YT12B242
BI00B32P8    TAPAW-2122     2022110918000004580              AV 8 BR                  CCN000000300000000300FN00000000020221201000000300NNM   20220914154434    1W    00000010000010466200000000032P8    YIYTM   000000000000YT42A090
BI00B32P8    TAPAW-2123     2022111618000004580              AV 8 BR                  CCN000000700000000700FN00000000020221201000000700NNM   20220914154434    1W    00000010000010466200000000032P8    YIYTM   000000000000YT12B108
BI00B32P8    TAPAW-2122     2022110918000004590              AV 8 L                   CCN000009500000009500FN00000000020221201000009500NNM   20220914154434    1W    00000010000010466200000000032P8    YIYTM   000000000000YT42A092
BI00B32P8    TAPAW-2123     2022111618000004590              AV 8 L                   CCN000014500000014500FN00000000020221201000014500NNM   20220914154434    1W    00000010000010466200000000032P8    YIYTM   000000000000YT12B110
BI00B32P8    TAPAW-2123     2022111618000004554              AV 8 R/W                 CCN000000100000000100FN00000000020221201000000100NNM   20220914154434    1W    00000010000010466200000000032P8    YIYTM   000000000000YT12B112
BI00B32P8    TAPAW-2122     2022110918000004570              AV 8 Y                   CCN000008100000008100FN00000000020221201000008100NNM   20220914154434    1W    00000010000010466200000000032P8    YIYTM   000000000000YT42A096
BI00B32P8    TAPAW-2123     2022111618000004570              AV 8 Y                   CCN000008600000008600FN00000000020221201000008600NNM   20220914154434    1W    00000010000010466200000000032P8    YIYTM   000000000000YT12B115
BI00B32P8    TAPAW-2122     20221109180077039F7              AVSS 0.5F V/Y            CCN000001500000001500FN00000000020221201000001500NNM   20220914154434    1W    00000150000000674000000000032P8    YIYTM   000000000000YT42A128
BI00B32P8    TAPAW-2122     20221109180077040F0              AVSS 0.75F GY/B          CCN000002000000002000FN00000000020221201000002000NNM   20220914154434    1W    00000100000000943000000000032P8    YIYTM   000000000000YT42A147
BI00B32P8    TAPAW-2123     20221116180077040F0              AVSS 0.75F GY/B          CCN000002000000002000FN00000000020221201000002000NNM   20220914154434    1W    00000100000000943000000000032P8    YIYTM   000000000000YT12B178
BI00B32P8    TAPAW-2122     2022110918007704010              AVSS 0.75F GY/R          CCN000001000000001000FN00000000020221201000001000NNM   20220914154434    1W    00000100000000943000000000032P8    YIYTM   000000000000YT42A148
BI00B32P8    TAPAW-2123     2022111618007704010              AVSS 0.75F GY/R          CCN000007000000007000FN00000000020221201000007000NNM   20220914154434    1W    00000100000000943000000000032P8    YIYTM   000000000000YT12B180
BI00B32P8    TAPAW-2121     20221102180077040G9              AVSS 0.75F V/G           CCN000008000000008000FN00000000020221201000008000NNM   20220914154434    1W    00000100000000943000000000032P8    YIYTM   000000000000YT32A095
BI00B32P8    TAPAW-2122     20221109180077040G9              AVSS 0.75F V/G           CCN000006000000006000FN00000000020221201000006000NNM   20220914154434    1W    00000100000000943000000000032P8    YIYTM   000000000000YT42A161
BI00B32P8    TAPAW-2123     20221116180077040G9              AVSS 0.75F V/G           CCN000006000000006000FN00000000020221201000006000NNM   20220914154434    1W    00000100000000943000000000032P8    YIYTM   000000000000YT12B194
BI00B32P8    TAPAW-2122     20221109180077040F7              AVSS 0.75F V/Y           CCN000005000000005000FN00000000020221201000005000NNM   20220914154434    1W    00000100000000943000000000032P8    YIYTM   000000000000YT42A162
BI00B32P8    TAPAW-2123     20221116180077040F7              AVSS 0.75F V/Y           CCN000004000000004000FN00000000020221201000004000NNM   20220914154434    1W    00000100000000943000000000032P8    YIYTM   000000000000YT12B195
BI00B32P8    TAPAW-2121     2022110218007704076              AVSS 0.75F Y/G           CCN000002000000002000FN00000000020221201000002000NNM   20220914154434    1W    00000100000000943000000000032P8    YIYTM   000000000000YT32A099
BI00B32P8    TAPAW-2122     2022110918007704076              AVSS 0.75F Y/G           CCN000005000000005000FN00000000020221201000005000NNM   20220914154434    1W    00000100000000943000000000032P8    YIYTM   000000000000YT42A168
BI00B32P8    TAPAW-2123     2022111618007704076              AVSS 0.75F Y/G           CCN000006000000006000FN00000000020221201000006000NNM   20220914154434    1W    00000100000000943000000000032P8    YIYTM   000000000000YT12B201
BI00B32P8    TAPAW-2121     2022110218007704156              AVSS 1.25F R/G           CCN000000800000000800FN00000000020221201000000800NNM   20220914154434    1W    00000080000001389000000000032P8    YIYTM   000000000000YT32A102
BI00B32P8    TAPAW-2122     2022110918007704156              AVSS 1.25F R/G           CCN000002400000002400FN00000000020221201000002400NNM   20220914154434    1W    00000080000001389000000000032P8    YIYTM   000000000000YT42A180
BI00B32P8    TAPAW-2123     2022111618007704156              AVSS 1.25F R/G           CCN000001600000001600FN00000000020221201000001600NNM   20220914154434    1W    00000080000001389000000000032P8    YIYTM   000000000000YT12B215
BI00B32P8    TAPAW-2122     2022110918007704174              AVSS 1.25F Y/W           CCN000000800000000800FN00000000020221201000000800NNM   20220914154434    1W    00000080000001389000000000032P8    YIYTM   000000000000YT42A188
BI00B32P8    TAPAW-2123     2022111618007704174              AVSS 1.25F Y/W           CCN000001600000001600FN00000000020221201000001600NNM   20220914154434    1W    00000080000001389000000000032P8    YIYTM   000000000000YT12B226
BI00B32P8    TAPAW-2122     20221109180D0204093              AVSSH 0.75F L/B          CCN000001000000001000FN00000000020221201000001000NNM   20220914154434    1W    00000100000000933600000000032P8    YIYTM   000000000000YT42A083
BI00B32P8    TAPAW-2123     20221116180D0204093              AVSSH 0.75F L/B          CCN000002000000002000FN00000000020221201000002000NNM   20220914154434    1W    00000100000000933600000000032P8    YIYTM   000000000000YT12B097
BI00B32P8    TAPAW-2123     202211161801R706090              CIVUS 1 L                CCN000001200000001200FN00000000020221201000001200NNM   20220914154434    1W    00000120000001016000000000032P8    YIYTM   000000000000YT12B228
BI00B32P8    TAPAW-2122     202211091801W006930              IVSSH 0.35F B            CCN000022500000022500FN00000000020221201000022500NNM   20220914154434    1W    00000250000000452000000000032P8    YIYTM   000000000000YT42A205
BI00B32P8    TAPAW-2123     202211161801W006930              IVSSH 0.35F B            CCN000097500000097500FN00000000020221201000097500NNM   20220914154434    1W    00000250000000452000000000032P8    YIYTM   000000000000YT12B247
BI00B32P8    TAPAW-2122     202211091801W00695U              IVSSH 0.35F BE           CCN000005000000005000FN00000000020221201000005000NNM   20220914154434    1W    00000250000000452000000000032P8    YIYTM   000000000000YT42A206
BI00B32P8    TAPAW-2123     202211161801W00695U              IVSSH 0.35F BE           CCN000010000000010000FN00000000020221201000010000NNM   20220914154434    1W    00000250000000452000000000032P8    YIYTM   000000000000YT12B248
BI00B32P8    TAPAW-2122     202211091801W006980              IVSSH 0.35F BR           CCN000012500000012500FN00000000020221201000012500NNM   20220914154434    1W    00000250000000452000000000032P8    YIYTM   000000000000YT42A207
BI00B32P8    TAPAW-2123     202211161801W006980              IVSSH 0.35F BR           CCN000010000000010000FN00000000020221201000010000NNM   20220914154434    1W    00000250000000452000000000032P8    YIYTM   000000000000YT12B249
BI00B32P8    TAPAW-2122     202211091801W006960              IVSSH 0.35F G            CCN000037500000037500FN00000000020221201000037500NNM   20220914154434    1W    00000250000000452000000000032P8    YIYTM   000000000000YT42A208
BI00B32P8    TAPAW-2123     202211161801W006960              IVSSH 0.35F G            CCN000075000000075000FN00000000020221201000075000NNM   20220914154434    1W    00000250000000452000000000032P8    YIYTM   000000000000YT12B250
BI00B32P8    TAPAW-2123     202211161801W006941              IVSSH 0.35F GY           CCN000010000000010000FN00000000020221201000010000NNM   20220914154434    1W    00000250000000452000000000032P8    YIYTM   000000000000YT12B251
BI00B32P8    TAPAW-2122     202211091801W006990              IVSSH 0.35F L            CCN000057500000057500FN00000000020221201000057500NNM   20220914154434    1W    00000250000000452000000000032P8    YIYTM   000000000000YT42A209
BI00B32P8    TAPAW-2123     202211161801W006990              IVSSH 0.35F L            CCN000072500000072500FN00000000020221201000072500NNM   20220914154434    1W    00000250000000452000000000032P8    YIYTM   000000000000YT12B252
BI00B32P8    TAPAW-2123     202211161801W006961              IVSSH 0.35F LG           CCN000012500000012500FN00000000020221201000012500NNM   20220914154434    1W    00000250000000452000000000032P8    YIYTM   000000000000YT12B253
BI00B32P8    TAPAW-2122     202211091801W006952              IVSSH 0.35F P            CCN000007500000007500FN00000000020221201000007500NNM   20220914154434    1W    00000250000000452000000000032P8    YIYTM   000000000000YT42A210
BI00B32P8    TAPAW-2123     202211161801W006952              IVSSH 0.35F P            CCN000022500000022500FN00000000020221201000022500NNM   20220914154434    1W    00000250000000452000000000032P8    YIYTM   000000000000YT12B254
BI00B32P8    TAPAW-2122     202211091801W006950              IVSSH 0.35F R            CCN000062500000062500FN00000000020221201000062500NNM   20220914154434    1W    00000250000000452000000000032P8    YIYTM   000000000000YT42A211
BI00B32P8    TAPAW-2123     202211161801W006950              IVSSH 0.35F R            CCN000075000000075000FN00000000020221201000075000NNM   20220914154434    1W    00000250000000452000000000032P8    YIYTM   000000000000YT12B255
BI00B32P8    TAPAW-2123     202211161801W006991              IVSSH 0.35F SB           CCN000002500000002500FN00000000020221201000002500NNM   20220914154434    1W    00000250000000452000000000032P8    YIYTM   000000000000YT12B256
BI00B32P8    TAPAW-2122     202211091801W006992              IVSSH 0.35F V            CCN000007500000007500FN00000000020221201000007500NNM   20220914154434    1W    00000250000000452000000000032P8    YIYTM   000000000000YT42A212
BI00B32P8    TAPAW-2123     202211161801W006992              IVSSH 0.35F V            CCN000045000000045000FN00000000020221201000045000NNM   20220914154434    1W    00000250000000452000000000032P8    YIYTM   000000000000YT12B257
BI00B32P8    TAPAW-2122     202211091801W006940              IVSSH 0.35F W            CCN000025000000025000FN00000000020221201000025000NNM   20220914154434    1W    00000250000000452000000000032P8    YIYTM   000000000000YT42A213
BI00B32P8    TAPAW-2123     202211161801W006940              IVSSH 0.35F W            CCN000045000000045000FN00000000020221201000045000NNM   20220914154434    1W    00000250000000452000000000032P8    YIYTM   000000000000YT12B258
