AE00TI102209140114/09/202200000004000000000000000009504KGM  00000019504KGM  7271-1818-30             CASE SUB ASSY,ECU        7271181830               0         0         0         0    0    0    00000072000000001800009388000067593600
AE00TI102209140114/09/202200000008000000000000000019184KGM  00000039184KGM  7271-1820-30             CASE SUB ASSY,ECU        7271182030               0         0         0         0    0    0    00000144000000001800009576000137894400
AE00TI102209140114/09/202200000000300000000000000002598KGM  00000003033KGM  7288-3329-30             HOUSING MALE             7288332930               0         0         0         0    0    0    00000450000000150000000354000015930000
AE00TI102209140114/09/202200000000600000000000000005196KGM  00000006065KGM  7288-3331-30             HOUSING MALE             7288333130               0         0         0         0    0    0    00000900000000150000000354000031860000
AE00TI102209140114/09/202200000000100000000000000000861KGM  00000001006KGM  7288-3332-30             HOUSING MALE             7288333230               0         0         0         0    0    0    00000150000000150000000354000005310000
AE00TI102209140114/09/202200000000400000000000000003468KGM  00000004048KGM  7288-3335-30             HOUSING MALE             7288333530               0         0         0         0    0    0    00000600000000150000000354000021240000
AE00TI102209140114/09/202200000001200000000000000010404KGM  00000012144KGM  7288-3339-30             HOUSING MALE             7288333930               0         0         0         0    0    0    00001800000000150000000354000063720000
AE00TI102209140114/09/202200000000400000000000000003446KGM  00000004026KGM  7288-3340-30             HOUSING MALE             7288334030               0         0         0         0    0    0    00000600000000150000000354000021240000
AE00TI102209140114/09/202200000000900000000000000006178KGM  00000008113KGM  7289-3342                HOUSING FEMALE ASS'Y     72893342                 0         0         0         0    0    0    00002160000000240000000186000040176000
AE00TI102209140114/09/202200000002400000000000000016474KGM  00000021634KGM  7289-3342-30             HOUSING FEMALE ASS'Y     7289334230               0         0         0         0    0    0    00005760000000240000000191000110016000
AE00TI102209140114/09/202200000000300000000000000002488KGM  00000003148KGM  7289-6518-30             HOUSING FEMALE ASS'Y     7289651830               0         0         0         0    0    0    00000360000000120000000598000021528000
AE00TI102209140114/09/202200000000100000000000000001290KGM  00000001540KGM  7289-6597-70             HOUSING FEMALE ASS'Y     7289659770               0         0         0         0    0    0    00000216000000216000000616000013305600
AE00TI102209140114/09/202200000000200000000000000001678KGM  00000002238KGM  7289-6868-30             SEALED ASSY FEMALE       7289686830               0         0         0         0    0    0    00000504000000252000000332000016732800
AE00TI102209140114/09/202200000000300000000000000002945KGM  00000003870KGM  7298-5993-30             SEALED ASSY FEMALE       7298599330               0         0         0         0    0    0    00000655200000218400000266000017428320
AE00TI102209140114/09/202200000001600000000000000017752KGM  00000020154KGM  7327-6572-3W             BATTERY FUSE             732765723W               0         0         0         0    0    0    00000153600000009600008162000125368320
AE00TI102209140114/09/202200000002500000000000000023333KGM  00000028333KGM  7327-6769-3W             BATTERY FUSE             732767693W               0         0         0         0    0    0    00000240000000009600008902000213648000
AE00TI102209140114/09/202200000002500000000000000028523KGM  00000033898KGM  7327-6840-3W             BATTERY FUSE             732768403W               0         0         0         0    0    0    00000180000000007200009909000178362000
AE00TI102209140114/09/202200000000700000000000000005194KGM  00000007854KGM  7388-2978-30             HOUSING MALE ASS'Y       7388297830               0         0         0         0    0    0    00000336000000048000001790000060144000
AE00TI102209140114/09/202200000000800000000000000010560KGM  00000012560KGM  7470-3082                J/B COMPLETE ASS'Y       74703082                 0         0         0         0    0    0    00000019200000002400031298000060092160
AE00TI102209140114/09/202200000002800000000000000036960KGM  00000043960KGM  7470-4481                J/B COMPLETE ASS'Y       74704481                 0         0         0         0    0    0    00000067200000002400000000000000000000
AE00TI102209140114/09/202200000000800000000000000000000KGM  00000000000KGM  7470-5782D               J/B COMPLETE ASS'Y       74705782D                0         0         0         0    0    0    00000012000000001500000000000000000000
