AE00TO202209140414/09/202200000009000000000000000094196KGM  00000098596KGM  18000004530              AV 8 B                   AV 8 B                   0         0         0         0    0    0    00000000000090000000000211100018999000
AE00TO202209140414/09/202200000000100000000000000001047KGM  00000001096KGM  18000004540              AV 8 W                   AV 8 W                   0         0         0         0    0    0    00000000000001000000000211100000211100
AE00TO202209140414/09/202200000000500000000000000005055KGM  00000005299KGM  18007703900              AVSS 05F P/W             AVSS 05F P/W             0         0         0         0    0    0    00000000000075000000000015600001170000
AE00TO202209140414/09/202200000000200000000000000002022KGM  00000002120KGM  18007703903              AVSS 05F B/O             AVSS 05F B/O             0         0         0         0    0    0    00000000000030000000000015600000468000
AE00TO202209140414/09/202200000002500000000000000025275KGM  00000026498KGM  18007703930              AVSS 05F B               AVSS 05F B               0         0         0         0    0    0    00000000000375000000000015600005850000
AE00TO202209140414/09/202200000000300000000000000003033KGM  00000003180KGM  18007703935              AVSS 05F B/R             AVSS 05F B/R             0         0         0         0    0    0    00000000000045000000000015600000702000
AE00TO202209140414/09/202200000000300000000000000003033KGM  00000003180KGM  18007703937              AVSS 05F B/Y             AVSS 05F B/Y             0         0         0         0    0    0    00000000000045000000000015600000702000
AE00TO202209140414/09/202200000001800000000000000018198KGM  00000019078KGM  18007703940              AVSS 05F W               AVSS 05F W               0         0         0         0    0    0    00000000000270000000000015600004212000
AE00TO202209140414/09/202200000001500000000000000015165KGM  00000015899KGM  18007703941              AVSS 05F GY              AVSS 05F GY              0         0         0         0    0    0    00000000000225000000000015600003510000
AE00TO202209140414/09/202200000000300000000000000003033KGM  00000003180KGM  18007703945              AVSS 05F W/R             AVSS 05F W/R             0         0         0         0    0    0    00000000000045000000000015600000702000
AE00TO202209140414/09/202200000000100000000000000001011KGM  00000001060KGM  18007703946              AVSS 05F W/G             AVSS 05F W/G             0         0         0         0    0    0    00000000000015000000000015600000234000
AE00TO202209140414/09/202200000000100000000000000001011KGM  00000001060KGM  18007703949              AVSS 05F W/L             AVSS 05F W/L             0         0         0         0    0    0    00000000000015000000000015600000234000
AE00TO202209140414/09/202200000002500000000000000025275KGM  00000026498KGM  18007703950              AVSS 05F R               AVSS 05F R               0         0         0         0    0    0    00000000000375000000000015600005850000
AE00TO202209140414/09/202200000000300000000000000003033KGM  00000003180KGM  18007703952              AVSS 05F P               AVSS 05F P               0         0         0         0    0    0    00000000000045000000000015600000702000
AE00TO202209140414/09/202200000000400000000000000004044KGM  00000004240KGM  18007703953              AVSS 05F R/B             AVSS 05F R/B             0         0         0         0    0    0    00000000000060000000000015600000936000
AE00TO202209140414/09/202200000000300000000000000003033KGM  00000003180KGM  18007703954              AVSS 05F R/W             AVSS 05F R/W             0         0         0         0    0    0    00000000000045000000000015600000702000
AE00TO202209140414/09/202200000000300000000000000003033KGM  00000003180KGM  18007703956              AVSS 05F R/G             AVSS 05F R/G             0         0         0         0    0    0    00000000000045000000000015600000702000
AE00TO202209140414/09/202200000000300000000000000003033KGM  00000003180KGM  18007703957              AVSS 05F R/Y             AVSS 05F R/Y             0         0         0         0    0    0    00000000000045000000000015600000702000
AE00TO202209140414/09/202200000001300000000000000013143KGM  00000013779KGM  18007703960              AVSS 05F G               AVSS 05F G               0         0         0         0    0    0    00000000000195000000000015600003042000
AE00TO202209140414/09/202200000000200000000000000002022KGM  00000002120KGM  18007703961              AVSS 05F LG              AVSS 05F LG              0         0         0         0    0    0    00000000000030000000000015600000468000
AE00TO202209140414/09/202200000000700000000000000007077KGM  00000007419KGM  18007703963              AVSS 05F G/B             AVSS 05F G/B             0         0         0         0    0    0    00000000000105000000000015600001638000
AE00TO202209140414/09/202200000000100000000000000001011KGM  00000001060KGM  18007703964              AVSS 05F G/W             AVSS 05F G/W             0         0         0         0    0    0    00000000000015000000000015600000234000
AE00TO202209140414/09/202200000000700000000000000007077KGM  00000007419KGM  18007703965              AVSS 05F G/R             AVSS 05F G/R             0         0         0         0    0    0    00000000000105000000000015600001638000
AE00TO202209140414/09/202200000000800000000000000008088KGM  00000008479KGM  18007703967              AVSS 05F G/Y             AVSS 05F G/Y             0         0         0         0    0    0    00000000000120000000000015600001872000
AE00TO202209140414/09/202200000000300000000000000003033KGM  00000003180KGM  18007703970              AVSS 05F Y               AVSS 05F Y               0         0         0         0    0    0    00000000000045000000000015600000702000
AE00TO202209140414/09/202200000000400000000000000004044KGM  00000004240KGM  18007703973              AVSS 05F Y/B             AVSS 05F Y/B             0         0         0         0    0    0    00000000000060000000000015600000936000
AE00TO202209140414/09/202200000000200000000000000002022KGM  00000002120KGM  18007703980              AVSS 05F BR              AVSS 05F BR              0         0         0         0    0    0    00000000000030000000000015600000468000
AE00TO202209140414/09/202200000000100000000000000001011KGM  00000001060KGM  180077039G6              AVSS 05F P/L             AVSS 05F P/L             0         0         0         0    0    0    00000000000015000000000015600000234000
AE00TO202209140414/09/202200000000100000000000000000943KGM  00000000992KGM  18007704011              AVSS 075F GY/L           AVSS 075F GY/L           0         0         0         0    0    0    00000000000010000000000022300000223000
AE00TO202209140414/09/202200000001500000000000000014145KGM  00000014878KGM  18007704030              AVSS 075F B              AVSS 075F B              0         0         0         0    0    0    00000000000150000000000022300003345000
AE00TO202209140414/09/202200000000200000000000000001886KGM  00000001984KGM  18007704036              AVSS 075F B/G            AVSS 075F B/G            0         0         0         0    0    0    00000000000020000000000022300000446000
AE00TO202209140414/09/202200000000200000000000000001886KGM  00000001984KGM  18007704037              AVSS 075F B/Y            AVSS 075F B/Y            0         0         0         0    0    0    00000000000020000000000022300000446000
AE00TO202209140414/09/202200000000300000000000000002829KGM  00000002976KGM  18007704040              AVSS 075F W              AVSS 075F W              0         0         0         0    0    0    00000000000030000000000022300000669000
AE00TO202209140414/09/202200000000400000000000000003772KGM  00000003968KGM  18007704052              AVSS 075F P              AVSS 075F P              0         0         0         0    0    0    00000000000040000000000022300000892000
AE00TO202209140414/09/202200000000100000000000000000943KGM  00000000992KGM  18007704096              AVSS 075F L/G            AVSS 075F L/G            0         0         0         0    0    0    00000000000010000000000022300000223000
AE00TO202209140414/09/202200000000100000000000000001196KGM  00000001245KGM  18009604440              AVS 5 W                  AVS 5 W                  0         0         0         0    0    0    00000000000002000000000137600000275200
AE00TO202209140414/09/202200000006600000000000000063690KGM  00000066916KGM  18018404040              CAVS 085 W               CAVS 085 W               0         0         0         0    0    0    00000000000660000000000022700014982000
AE00TO202209140414/09/202200000004700000000000000045355KGM  00000047654KGM  18018404050              CAVS 085 R               CAVS 085 R               0         0         0         0    0    0    00000000000470000000000022700010669000
AE00TO202209140414/09/202200000007300000000000000070445KGM  00000074013KGM  18018404091              CAVS 085 SB              CAVS 085 SB              0         0         0         0    0    0    00000000000730000000000022700016571000
AE00TO202209140414/09/202200000000100000000000000001125KGM  00000001174KGM  1801W003940              IVSSH 05F W              IVSSH 05F W              0         0         0         0    0    0    00000000000018000000000015400000277200
AE00TO202209140414/09/202200000002400000000000000027000KGM  00000028173KGM  1801W003980              IVSSH 05F BR             IVSSH 05F BR             0         0         0         0    0    0    00000000000432000000000015400006652800
AE00TO202209140414/09/202200000009000000000000000101250KGM  00000105650KGM  1801W003990              IVSSH 05F L              IVSSH 05F L              0         0         0         0    0    0    00000000001620000000000015400024948000
AE00TO202209140414/09/202200000001700000000000000019210KGM  00000020041KGM  1801W006930              IVSSH 035F B             IVSSH 035F B             0         0         0         0    0    0    00000000000425000000000011400004845000
AE00TO202209140414/09/202200000002200000000000000024860KGM  00000025936KGM  1801W006950              IVSSH 035F R             IVSSH 035F R             0         0         0         0    0    0    00000000000550000000000011400006270000
AE00TO202209140414/09/202200000001300000000000000014690KGM  00000015326KGM  1801W00695U              IVSSH 035F BE            IVSSH 035F BE            0         0         0         0    0    0    00000000000325000000000011400003705000
AE00TO202209140414/09/202200000000200000000000000002260KGM  00000002358KGM  1801W006960              IVSSH 035F G             IVSSH 035F G             0         0         0         0    0    0    00000000000050000000000011400000570000
AE00TO202209140414/09/202200000002600000000000000029380KGM  00000030652KGM  1801W006970              IVSSH 035F Y             IVSSH 035F Y             0         0         0         0    0    0    00000000000650000000000011400007410000
AE00TO202209140414/09/202200000005400000000000000061020KGM  00000063661KGM  1801W006990              IVSSH 035F L             IVSSH 035F L             0         0         0         0    0    0    00000000001350000000000011400015390000
AE00TO202209140414/09/202200000000300000000000000003090KGM  00000003237KGM  180D0203730              AVSSH 03F B              AVSSH 03F B              0         0         0         0    0    0    00000000000060000000000012200000732000
AE00TO202209140414/09/202200000000500000000000000005150KGM  00000005394KGM  180D0203741              AVSSH 03F GY             AVSSH 03F GY             0         0         0         0    0    0    00000000000100000000000012200001220000
AE00TO202209140414/09/202200000000500000000000000005150KGM  00000005395KGM  180D0203752              AVSSH 03F P              AVSSH 03F P              0         0         0         0    0    0    00000000000100000000000012200001220000
AE00TO202209140414/09/202200000000700000000000000007210KGM  00000007552KGM  180D0203761              AVSSH 03F LG             AVSSH 03F LG             0         0         0         0    0    0    00000000000140000000000012200001708000
AE00TO202209140414/09/202200000000300000000000000003090KGM  00000003237KGM  180D0203770              AVSSH 03F Y              AVSSH 03F Y              0         0         0         0    0    0    00000000000060000000000012200000732000
AE00TO202209140414/09/202200000000100000000000000001030KGM  00000001079KGM  180D0203773              AVSSH 03F Y/B            AVSSH 03F Y/B            0         0         0         0    0    0    00000000000020000000000012200000244000
AE00TO202209140414/09/202200000000300000000000000003090KGM  00000003237KGM  180D0203792              AVSSH 03F V              AVSSH 03F V              0         0         0         0    0    0    00000000000060000000000012200000732000
AE00TO202209140414/09/202200000000100000000000000000916KGM  00000000964KGM  181B32039S1              AVSSCS 05FX1 DGY         AVSSCS 05FX1 DGY         0         0         0         0    0    0    00000000000004000000000055900000223600
AE00TO202209140414/09/202200000001100000000000000007756KGM  00000008293KGM  181CQ7004ZZ              IVSSHCS-S 05FX2 B(R,G)   IVSSHCS-S 05FX2 B(R,G)   0         0         0         0    0    0    00000000000033000000000072600002395800
AE00TO202209140414/09/202200000000100000000000000000871KGM  00000000920KGM  181D69004ZZ              AVSSHCS 125FX2 B         AVSSHCS 125FX2 B         0         0         0         0    0    0    00000000000002000000000130000000260000
AE00TO202209140414/09/202200000006200000000000000047361KGM  00000050392KGM  181E50004ZZ              AVSSCS-S 05FX1 DGY       AVSSCS-S 05FX1 DGY       0         0         0         0    0    0    00000000000248000000000050400012499200
AE00TO202209140414/09/202200000001500000000000000012244KGM  00000012977KGM  181E50028ZZ              AVSSCS-S 05FX3 DGY       AVSSCS-S 05FX3 DGY       0         0         0         0    0    0    00000000000037500000000091500003431250
AE00TO202209140414/09/202200000010400000000000000078980KGM  00000084063KGM  181F21009ZZ              AVSSHCS-S 05FX2 B        AVSSHCS-S 05FX2 B        0         0         0         0    0    0    00000000000312000000000073800023025600
AE00TO202209140414/09/202200000000200000000000000001519KGM  00000001617KGM  181F21011ZZ              AVSSHCS-S 05FX2 B/R      AVSSHCS-S 05FX2 B/R      0         0         0         0    0    0    00000000000006000000000073800000442800
AE00TO202209140414/09/202200000000500000000000000003797KGM  00000004042KGM  181F21013ZZ              AVSSHCS-S 05FX2 B/Y      AVSSHCS-S 05FX2 B/Y      0         0         0         0    0    0    00000000000015000000000073800001107000
AE00TO202209140414/09/202200000001900000000000000014429KGM  00000015358KGM  181F21014ZZ              AVSSHCS-S 05FX2 B/L      AVSSHCS-S 05FX2 B/L      0         0         0         0    0    0    00000000000057000000000073800004206600
AE00TO202209140414/09/202200000000800000000000000006075KGM  00000006467KGM  181F21015ZZ              AVSSHCS-S 05FX2 B/P      AVSSHCS-S 05FX2 B/P      0         0         0         0    0    0    00000000000024000000000073800001771200
AE00TO202209140414/09/202200000001000000000000000007594KGM  00000008083KGM  181F21016ZZ              AVSSHCS-S 05FX2 B/BR     AVSSHCS-S 05FX2 B/BR     0         0         0         0    0    0    00000000000030000000000073800002214000
AE00TO202209140414/09/202200000000300000000000000002560KGM  00000002707KGM  181F21027ZZ              AVSSHCS-S 125FX2 B       AVSSHCS-S 125FX2 B       0         0         0         0    0    0    00000000000006000000000127800000766800
AE00TO202209140414/09/202200000000100000000000000000853KGM  00000000902KGM  181F21029ZZ              AVSSHCS-S 125FX2 B/Y     AVSSHCS-S 125FX2 B/Y     0         0         0         0    0    0    00000000000002000000000127800000255600
AE00TO202209140414/09/202200000000100000000000000000853KGM  00000000902KGM  181F21031ZZ              AVSSHCS-S 125FX2 B/P     AVSSHCS-S 125FX2 B/P     0         0         0         0    0    0    00000000000002000000000127800000255600
