AE00TI102209140414/09/202200000002400000000000000027972KGM  00000031646KGM  7017-1182-02             TERMINAL                 7017118202               0         0         0         0    0    0    00108000000004500000000013000140400000
AE00TI102209140414/09/202200000002400000000000000017971KGM  00000025858KGM  7114-4100-02             TERMINAL                 7114410002               0         0         0         0    0    0    00043200000001800000000034000146880000
AE00TI102209140414/09/202200000001600000000000000008256KGM  00000012963KGM  7114-4729-02             TERMINAL                 7114472902               0         0         0         0    0    0    00048000000003000000000015000072000000
AE00TI102209140414/09/202200000000100000000000000000581KGM  00000000824KGM  7114-6041                TERMINAL                 71146041                 0         0         0         0    0    0    00000360000000360000000107000003852000
AE00TI102209140414/09/202200000000800000000000000006739KGM  00000008581KGM  7116-2871                TERMINAL                 71162871                 0         0         0         0    0    0    00009600000001200000000043000041280000
AE00TI102209140414/09/202200000001600000000000000014323KGM  00000016938KGM  7116-2893-02             TERMINAL                 7116289302               0         0         0         0    0    0    00019200000001200000000054000103680000
AE00TI102209140414/09/202200000003200000000000000015034KGM  00000024160KGM  7116-3154-02             TERMINAL FEMALE          7116315402               0         0         0         0    0    0    00086400000002700000000015000129600000
AE00TI102209140414/09/202200000001600000000000000008851KGM  00000013462KGM  7116-4102-02             TERMINAL                 7116410202               0         0         0         0    0    0    00019200000001200000000037000071040000
AE00TI102209140414/09/202200000001600000000000000009672KGM  00000014235KGM  7126-8854-02             TERMINAL                 7126885402               0         0         0         0    0    0    00012000000000750000000059000070800000
AE00TI102209140414/09/202200000000200000000000000000840KGM  00000001428KGM  7195-1479-02             TERMINAL MALE            7195147902               0         0         0         0    0    0    00004800000002400000000014000006720000
AE00TI102209140414/09/202200000000900000000000000004001KGM  00000006568KGM  7196-1460-02             TERMINAL FEMALE          7196146002               0         0         0         0    0    0    00025650000002850000000014000035910000
AE00TI102209140414/09/202200000000400000000000000001766KGM  00000002907KGM  7196-1936-02             TERMINAL FEMALE          7196193602               0         0         0         0    0    0    00005400000001350000000026000014040000
AE00TI102209140414/09/202200000004000000000000000009504KGM  00000019504KGM  7271-1818-30             CASE SUB ASSY,ECU        7271181830               0         0         0         0    0    0    00000072000000001800009388000067593600
AE00TI102209140414/09/202200000000300000000000000002894KGM  00000003524KGM  7282-4577                HOUSING MALE ASS'Y       72824577                 0         0         0         0    0    0    00000720000000240000000229000016488000
AE00TI102209140414/09/202200000001700000000000000017299KGM  00000021039KGM  7282-9391                HOUSING MALE ASS'Y       72829391                 0         0         0         0    0    0    00002040000000120000000325000066300000
AE00TI102209140414/09/202200000000200000000000000001448KGM  00000001748KGM  7283-5832-30             CONNECTOR HOUSING        7283583230               0         0         0         0    0    0    00000480000000240000000208000009984000
AE00TI102209140414/09/202200000000200000000000000001536KGM  00000001956KGM  7286-4097                CONNECTOR MALE ASS'Y     72864097                 0         0         0         0    0    0    00000320000000160000000196000006272000
AE00TI102209140414/09/202200000000400000000000000000000KGM  00000000000KGM  7289-3342-30M            HOUSING FEMALE ASS'Y     7289334230M              0         0         0         0    0    0    00000408000000102000000188000007670400
AE00TI102209140414/09/202200000001000000000000000013512KGM  00000016662KGM  7289-6524-30             HOUSING FEMALE ASS'Y     7289652430               0         0         0         0    0    0    00000240000000024000004757000114168000
AE00TI102209140414/09/202200000001000000000000000012699KGM  00000015437KGM  7289-9613-30             HOUSING FEMALE ASS'Y     7289961330               0         0         0         0    0    0    00000240000000024000004796000115104000
