AE00TI102209140214/09/202200000000600000000000000003252KGM  00000004328KGM  7147-3642-30             CLIP                     7147364230               0         0         0         0    0    0    00001800000000300000000074000013320000
AE00TI102209140214/09/202200000000100000000000000000827KGM  00000001102KGM  7154-5712-30             CASSETTE R/B             7154571230               0         0         0         0    0    0    00000080000000080000000288000002304000
AE00TI102209140214/09/202200000000200000000000000001524KGM  00000001961KGM  7171-6292                HOUSING                  71716292                 0         0         0         0    0    0    00000036000000018000001240000004464000
AE00TI102209140214/09/202200000000100000000000000000592KGM  00000000712KGM  7174-1164                COVER                    71741164                 0         0         0         0    0    0    00000080000000080000000173000001384000
AE00TI102209140214/09/202200000000900000000000000006924KGM  00000008004KGM  7174-1314-30             SEALED COVER             7174131430               0         0         0         0    0    0    00000720000000080000000451000032472000
AE00TI102209140214/09/202200000000100000000000000001267KGM  00000001558KGM  7182-2411                CONNECTOR HOUSING        71822411                 0         0         0         0    0    0    00000120000000120000000254000003048000
AE00TI102209140214/09/202200000000200000000000000002564KGM  00000002954KGM  7182-4941                DOUBLE SIDED             71824941                 0         0         0         0    0    0    00000200000000100000000816000016320000
AE00TI102209140214/09/202200000000100000000000000000951KGM  00000001230KGM  7183-0522                HOUSING                  71830522                 0         0         0         0    0    0    00000240000000240000000113000002712000
AE00TI102209140214/09/202200000000100000000000000001059KGM  00000001246KGM  7183-2412                HOUSING                  71832412                 0         0         0         0    0    0    00000160000000160000000155000002480000
AE00TI102209140214/09/202200000000200000000000000000956KGM  00000001520KGM  7183-2413                CONNECTOR HOUSING        71832413                 0         0         0         0    0    0    00000960000000480000000074000007104000
AE00TI102209140214/09/202200000000100000000000000000478KGM  00000000760KGM  7183-2413-30             CONNECTOR HOUSING        7183241330               0         0         0         0    0    0    00000480000000480000000076000003648000
AE00TI102209140214/09/202200000000200000000000000001558KGM  00000002122KGM  7183-2414                CONNECTOR HOUSING        71832414                 0         0         0         0    0    0    00000960000000480000000050000004800000
AE00TI102209140214/09/202200000000100000000000000001065KGM  00000001352KGM  7183-2419-30             HOUSING                  7183241930               0         0         0         0    0    0    00000480000000480000000093000004464000
AE00TI102209140214/09/202200000000100000000000000000821KGM  00000001104KGM  7183-6320                HOUSING                  71836320                 0         0         0         0    0    0    00000480000000480000000092000004416000
AE00TI102209140214/09/202200000000100000000000000000819KGM  00000001102KGM  7183-6320-30             HOUSING                  7183632030               0         0         0         0    0    0    00000480000000480000000114000005472000
AE00TI102209140214/09/202200000001200000000000000011604KGM  00000013164KGM  7222-7564-40             CONNECTOR                7222756440               0         0         0         0    0    0    00000600000000050000001166000069960000
AE00TI102209140214/09/202200000000300000000000000003420KGM  00000003955KGM  7283-1968-30             CONNECTOR                7283196830               0         0         0         0    0    0    00000270000000090000000687000018549000
AE00TI102209140214/09/202200000000300000000000000002750KGM  00000003410KGM  7283-4577                CONNECTOR HOUSING        72834577                 0         0         0         0    0    0    00001440000000480000000172000024768000
AE00TI102209140214/09/202200000000200000000000000002014KGM  00000002343KGM  7283-8398-40             CONNECTOR                7283839840               0         0         0         0    0    0    00000308000000154000000398000012258400
AE00TI102209140214/09/202200000000200000000000000002467KGM  00000002891KGM  7287-7599                HOUSING FEMALE ASS'Y     72877599                 0         0         0         0    0    0    00000320000000160000000350000011200000
AE00TI102209140214/09/202200000001100000000000000009391KGM  00000011497KGM  7287-9155                HOUSING FEMALE ASS'Y     72879155                 0         0         0         0    0    0    00001056000000096000000357000037699200
AE00TI102209140214/09/202200000000100000000000000000894KGM  00000001185KGM  7287-9234                JOINT CONNECTOR          72879234                 0         0         0         0    0    0    00000960000000960000000137000013152000
AE00TI102209140214/09/202200000000100000000000000000861KGM  00000001006KGM  7288-3332-30             HOUSING MALE             7288333230               0         0         0         0    0    0    00000150000000150000000354000005310000
AE00TI102209140214/09/202200000000800000000000000006936KGM  00000008096KGM  7288-3339-30             HOUSING MALE             7288333930               0         0         0         0    0    0    00001200000000150000000354000042480000
AE00TI102209140214/09/202200000000600000000000000004118KGM  00000005408KGM  7289-3342                HOUSING FEMALE ASS'Y     72893342                 0         0         0         0    0    0    00001440000000240000000186000026784000
AE00TI102209140214/09/202200000012000000000000000102564KGM  00000127764KGM  7289-5979-30             HOUSING FEMALE ASS'Y     7289597930               0         0         0         0    0    0    00003024000000025200001346000407030400
AE00TI102209140214/09/202200000000200000000000000001658KGM  00000002098KGM  7289-6518-30             HOUSING FEMALE ASS'Y     7289651830               0         0         0         0    0    0    00000240000000120000000598000014352000
AE00TI102209140214/09/202200000000100000000000000001241KGM  00000001406KGM  7298-1853-10             HOUSING FEMALE ASS'Y     7298185310               0         0         0         0    0    0    00000390000000390000000186000007254000
AE00TI102209140214/09/202200000003000000000000000016770KGM  00000024270KGM  7370-0310                J/B ASS'Y                73700310                 0         0         0         0    0    0    00000030000000001000031643000094929000
AE00TI102209140214/09/202200000000500000000000000000000KGM  00000000000KGM  7470-4816D               J/B COMPLETE ASS'Y       74704816D                0         0         0         0    0    0    00000007500000001500000000000000000000
AE00TI102209140214/09/202200000001800000000000000000000KGM  00000000000KGM  7470-5308E               J/B COMPLETE ASS'Y       74705308E                0         0         0         0    0    0    00000018000000001000000000000000000000
AE00TI102209140214/09/202200000001500000000000000000000KGM  00000000000KGM  7470-5782D               J/B COMPLETE ASS'Y       74705782D                0         0         0         0    0    0    00000022500000001500000000000000000000
AE00TI102209140214/09/202200000002000000000000000000000KGM  00000000000KGM  7470-5791E               J/B COMPLETE ASS'Y       74705791E                0         0         0         0    0    0    00000020000000001000000000000000000000
AE00TI102209140214/09/202200000000800000000000000000000KGM  00000000000KGM  7470-5823D               J/B COMPLETE ASS'Y       74705823D                0         0         0         0    0    0    00000012000000001500000000000000000000
