AE00TI102209140314/09/202200000000200000000000000001678KGM  00000002238KGM  7C89-6868-30             SEALED ASSY FEMALE       7C89686830               0         0         0         0    0    0    00000504000000252000000335000016884000
AE00TI102209140314/09/202200000000100000000000000000783KGM  00000001002KGM  7047-5303                CLIP                     70475303                 0         0         0         0    0    0    00000900000000900000000081000007290000
AE00TI102209140314/09/202200000000100000000000000000933KGM  00000001174KGM  7123-1508                CONNECTOR                71231508                 0         0         0         0    0    0    00000100000000100000000226000002260000
AE00TI102209140314/09/202200000000100000000000000000700KGM  00000000963KGM  7157-6287-70             SPACER                   7157628770               0         0         0         0    0    0    00007000000007000000000076000053200000
AE00TI102209140314/09/202200000001700000000000000005620KGM  00000006562KGM  7158-3006-90             RUBBER STOPPER           7158300690               0         0         0         0    0    0    00034000000002000000000016000054400000
AE00TI102209140314/09/202200000000400000000000000001352KGM  00000001545KGM  7158-3009-60             RUBBER STOPPER           7158300960               0         0         0         0    0    0    00008000000002000000000012000009600000
AE00TI102209140314/09/202200000000500000000000000002218KGM  00000002510KGM  7158-3023                RUBBER STOPPER           71583023                 0         0         0         0    0    0    00002500000000500000000078000019500000
AE00TI102209140314/09/202200000000600000000000000000744KGM  00000001034KGM  7158-3165-90             WIRE SEAL                7158316590               0         0         0         0    0    0    00024000000004000000000006000014400000
AE00TI102209140314/09/202200000001600000000000000001664KGM  00000002438KGM  7158-3166-60             WIRE SEAL                7158316660               0         0         0         0    0    0    00064000000004000000000004000025600000
AE00TI102209140314/09/202200000004800000000000000002304KGM  00000005232KGM  7158-3167-80             WIRE SEAL                7158316780               0         0         0         0    0    0    00096000000002000000000005000048000000
AE00TI102209140314/09/202200000001900000000000000000836KGM  00000001750KGM  7158-3168-80             SEALED                   7158316880               0         0         0         0    0    0    00038000000002000000000004000015200000
AE00TI102209140314/09/202200000001000000000000000001560KGM  00000002041KGM  7158-3169-40             SEALING PLUG             7158316940               0         0         0         0    0    0    00040000000004000000000006000024000000
AE00TI102209140314/09/202200000000500000000000000002288KGM  00000002530KGM  7172-5402-30             SEAL RUBBER              7172540230               0         0         0         0    0    0    00004000000000800000000077000030800000
AE00TI102209140314/09/202200000000100000000000000000769KGM  00000000889KGM  7174-1314-30             SEALED COVER             7174131430               0         0         0         0    0    0    00000080000000080000000451000003608000
AE00TI102209140314/09/202200000000800000000000000008826KGM  00000009982KGM  7183-7665-30             HOUSING                  7183766530               0         0         0         0    0    0    00000960000000120000000242000023232000
AE00TI102209140314/09/202200000000200000000000000001874KGM  00000002091KGM  7183-8256-40             HOUSING                  7183825640               0         0         0         0    0    0    00000240000000120000000250000006000000
AE00TI102209140314/09/202200000000800000000000000000000KGM  00000000000KGM  7273-2981-0WD            CASSETTE BRACKET         727329810WD              0         0         0         0    0    0    00000080000000010000000000000000000000
AE00TI102209140314/09/202200000003100000000000000000000KGM  00000000000KGM  7273-2981-0WE            CASSETTE BRACKET         727329810WE              0         0         0         0    0    0    00000248000000008000000000000000000000
AE00TI102209140314/09/202200000005700000000000000000000KGM  00000000000KGM  7273-2982-0WD            CASSETTE BRACKET         727329820WD              0         0         0         0    0    0    00000570000000010000000000000000000000
AE00TI102209140314/09/202200000001600000000000000000000KGM  00000000000KGM  7273-2982-0WE            CASSETTE BRACKET         727329820WE              0         0         0         0    0    0    00000240000000015000000000000000000000
AE00TI102209140314/09/202200000002600000000000000000000KGM  00000000000KGM  7273-2983-0WD            CASSETTE BRACKET         727329830WD              0         0         0         0    0    0    00000260000000010000000000000000000000
AE00TI102209140314/09/202200000000100000000000000000000KGM  00000000000KGM  7273-2983-0WE            CASSETTE BRACKET         727329830WE              0         0         0         0    0    0    00000008000000008000000000000000000000
AE00TI102209140314/09/202200000000200000000000000002712KGM  00000003040KGM  7282-8120-30             CONNECTOR HOUSING        7282812030               0         0         0         0    0    0    00000600000000300000000000000000000000
AE00TI102209140314/09/202200000000400000000000000005424KGM  00000006080KGM  7282-8120-40             CONNECTOR HOUSING        7282812040               0         0         0         0    0    0    00001200000000300000000215000025800000
AE00TI102209140314/09/202200000000100000000000000000624KGM  00000000929KGM  7283-1114-40             CONNECTOR                7283111440               0         0         0         0    0    0    00000200000000200000000568000011360000
AE00TI102209140314/09/202200000000200000000000000001338KGM  00000001865KGM  7283-1140                CONNECTOR HOUSING        72831140                 0         0         0         0    0    0    00000300000000150000000259000007770000
AE00TI102209140314/09/202200000000400000000000000005524KGM  00000006548KGM  7283-1288                CONNECTOR HOUSING        72831288                 0         0         0         0    0    0    00000480000000120000000781000037488000
AE00TI102209140314/09/202200000000300000000000000003181KGM  00000003543KGM  7283-7029                CONNECTOR                72837029                 0         0         0         0    0    0    00001800000000600000000227000040860000
AE00TI102209140314/09/202200000000200000000000000002400KGM  00000002820KGM  7283-7449-30             HOUSING FEMALE ASS'Y     7283744930               0         0         0         0    0    0    00000480000000240000000386000018528000
AE00TI102209140314/09/202200000000200000000000000001980KGM  00000002497KGM  7283-7526                CONNECTOR HOUSING        72837526                 0         0         0         0    0    0    00000392000000196000000503000019717600
AE00TI102209140314/09/202200000001300000000000000012867KGM  00000016232KGM  7283-7526-30             CONNECTOR HOUSING        7283752630               0         0         0         0    0    0    00002548000000196000000506000128928800
AE00TI102209140314/09/202200000000200000000000000001980KGM  00000002497KGM  7283-7526-40             CONNECTOR HOUSING        7283752640               0         0         0         0    0    0    00000392000000196000000504000019756800
AE00TI102209140314/09/202200000000400000000000000003868KGM  00000004671KGM  7286-1917                CONNECTOR MALE ASS'Y     72861917                 0         0         0         0    0    0    00000480000000120000000517000024816000
AE00TI102209140314/09/202200000000100000000000000000538KGM  00000000690KGM  7287-9323                UNSEALED HOUSING SUB     72879323                 0         0         0         0    0    0    00000240000000240000000146000003504000
AE00TI102209140314/09/202200000000100000000000000000538KGM  00000000690KGM  7287-9323-40             UNSEALED HOUSING SUB     7287932340               0         0         0         0    0    0    00000240000000240000000155000003720000
AE00TI102209140314/09/202200000003500000000000000024024KGM  00000031549KGM  7289-3342-30             HOUSING FEMALE ASS'Y     7289334230               0         0         0         0    0    0    00008400000000240000000191000160440000
AE00TI102209140314/09/202200000003100000000000000026496KGM  00000033006KGM  7289-5979-30             HOUSING FEMALE ASS'Y     7289597930               0         0         0         0    0    0    00000781200000025200001346000105149520
AE00TI102209140314/09/202200000001800000000000000023760KGM  00000028260KGM  7470-3082                J/B COMPLETE ASS'Y       74703082                 0         0         0         0    0    0    00000043200000002400031298000135207360
AE00TI102209140314/09/202200000001300000000000000000000KGM  00000000000KGM  7470-5308E               J/B COMPLETE ASS'Y       74705308E                0         0         0         0    0    0    00000013000000001000000000000000000000
AE00TI102209140314/09/202200000001000000000000000000000KGM  00000000000KGM  7470-5782E               J/B COMPLETE ASS'Y       74705782E                0         0         0         0    0    0    00000010000000001000000000000000000000
AE00TI102209140314/09/202200000001200000000000000000000KGM  00000000000KGM  7470-5784E               J/B COMPLETE ASS'Y       74705784E                0         0         0         0    0    0    00000012000000001000000000000000000000
