AE00TO202209140114/09/202200000000100000000000000001011KGM  00000001060KGM  18007703910              AVSS 05F GY/R            AVSS 05F GY/R            0         0         0         0    0    0    00000000000015000000000015600000234000
AE00TO202209140114/09/202200000000300000000000000003033KGM  00000003180KGM  18007703930              AVSS 05F B               AVSS 05F B               0         0         0         0    0    0    00000000000045000000000015600000702000
AE00TO202209140114/09/202200000001500000000000000015165KGM  00000015899KGM  18007703940              AVSS 05F W               AVSS 05F W               0         0         0         0    0    0    00000000000225000000000015600003510000
AE00TO202209140114/09/202200000000100000000000000001011KGM  00000001060KGM  18007703941              AVSS 05F GY              AVSS 05F GY              0         0         0         0    0    0    00000000000015000000000015600000234000
AE00TO202209140114/09/202200000000200000000000000002022KGM  00000002120KGM  18007703945              AVSS 05F W/R             AVSS 05F W/R             0         0         0         0    0    0    00000000000030000000000015600000468000
AE00TO202209140114/09/202200000000100000000000000001011KGM  00000001060KGM  18007703946              AVSS 05F W/G             AVSS 05F W/G             0         0         0         0    0    0    00000000000015000000000015600000234000
AE00TO202209140114/09/202200000000200000000000000002022KGM  00000002120KGM  18007703949              AVSS 05F W/L             AVSS 05F W/L             0         0         0         0    0    0    00000000000030000000000015600000468000
AE00TO202209140114/09/202200000000100000000000000001011KGM  00000001060KGM  18007703952              AVSS 05F P               AVSS 05F P               0         0         0         0    0    0    00000000000015000000000015600000234000
AE00TO202209140114/09/202200000000700000000000000007077KGM  00000007419KGM  18007703960              AVSS 05F G               AVSS 05F G               0         0         0         0    0    0    00000000000105000000000015600001638000
AE00TO202209140114/09/202200000000200000000000000002022KGM  00000002120KGM  18007703963              AVSS 05F G/B             AVSS 05F G/B             0         0         0         0    0    0    00000000000030000000000015600000468000
AE00TO202209140114/09/202200000000300000000000000003033KGM  00000003180KGM  18007703967              AVSS 05F G/Y             AVSS 05F G/Y             0         0         0         0    0    0    00000000000045000000000015600000702000
AE00TO202209140114/09/202200000000800000000000000008088KGM  00000008479KGM  18007703970              AVSS 05F Y               AVSS 05F Y               0         0         0         0    0    0    00000000000120000000000015600001872000
AE00TO202209140114/09/202200000000100000000000000001011KGM  00000001060KGM  18007703980              AVSS 05F BR              AVSS 05F BR              0         0         0         0    0    0    00000000000015000000000015600000234000
AE00TO202209140114/09/202200000000100000000000000001011KGM  00000001060KGM  18007703987              AVSS 05F BR/Y            AVSS 05F BR/Y            0         0         0         0    0    0    00000000000015000000000015600000234000
AE00TO202209140114/09/202200000000100000000000000001011KGM  00000001060KGM  180077039G6              AVSS 05F P/L             AVSS 05F P/L             0         0         0         0    0    0    00000000000015000000000015600000234000
AE00TO202209140114/09/202200000011500000000000000137563KGM  00000143185KGM  18009604440              AVS 5 W                  AVS 5 W                  0         0         0         0    0    0    00000000000230000000000137600031648000
AE00TO202209140114/09/202200000000300000000000000002895KGM  00000003042KGM  18018404040              CAVS 085 W               CAVS 085 W               0         0         0         0    0    0    00000000000030000000000022700000681000
AE00TO202209140114/09/202200000013200000000000000127380KGM  00000133833KGM  18018404050              CAVS 085 R               CAVS 085 R               0         0         0         0    0    0    00000000001320000000000022700029964000
AE00TO202209140114/09/202200000000400000000000000004500KGM  00000004696KGM  1801W003950              IVSSH 05F R              IVSSH 05F R              0         0         0         0    0    0    00000000000072000000000015400001108800
AE00TO202209140114/09/202200000000100000000000000001125KGM  00000001174KGM  1801W003960              IVSSH 05F G              IVSSH 05F G              0         0         0         0    0    0    00000000000018000000000015400000277200
AE00TO202209140114/09/202200000002400000000000000027519KGM  00000028690KGM  1801W004030              IVSSH 075F B             IVSSH 075F B             0         0         0         0    0    0    00000000000312000000000021500006708000
AE00TO202209140114/09/202200000001200000000000000013760KGM  00000014344KGM  1801W004040              IVSSH 075F W             IVSSH 075F W             0         0         0         0    0    0    00000000000156000000000021500003354000
AE00TO202209140114/09/202200000000600000000000000006880KGM  00000007172KGM  1801W004043              IVSSH 075F W/B           IVSSH 075F W/B           0         0         0         0    0    0    00000000000078000000000021500001677000
AE00TO202209140114/09/202200000005000000000000000057330KGM  00000059773KGM  1801W004050              IVSSH 075F R             IVSSH 075F R             0         0         0         0    0    0    00000000000650000000000021500013975000
AE00TO202209140114/09/202200000001400000000000000016053KGM  00000016736KGM  1801W004052              IVSSH 075F P             IVSSH 075F P             0         0         0         0    0    0    00000000000182000000000021500003913000
AE00TO202209140114/09/202200000000300000000000000003440KGM  00000003586KGM  1801W004060              IVSSH 075F G             IVSSH 075F G             0         0         0         0    0    0    00000000000039000000000021500000838500
AE00TO202209140114/09/202200000000300000000000000003440KGM  00000003586KGM  1801W004061              IVSSH 075F LG            IVSSH 075F LG            0         0         0         0    0    0    00000000000039000000000021500000838500
AE00TO202209140114/09/202200000001700000000000000019494KGM  00000020321KGM  1801W004070              IVSSH 075F Y             IVSSH 075F Y             0         0         0         0    0    0    00000000000221000000000021500004751500
AE00TO202209140114/09/202200000000100000000000000001147KGM  00000001195KGM  1801W004080              IVSSH 075F BR            IVSSH 075F BR            0         0         0         0    0    0    00000000000013000000000021500000279500
AE00TO202209140114/09/202200000000500000000000000005733KGM  00000005977KGM  1801W004090              IVSSH 075F L             IVSSH 075F L             0         0         0         0    0    0    00000000000065000000000021500001397500
AE00TO202209140114/09/202200000000600000000000000006780KGM  00000007074KGM  1801W006950              IVSSH 035F R             IVSSH 035F R             0         0         0         0    0    0    00000000000150000000000011400001710000
AE00TO202209140114/09/202200000009100000000000000102830KGM  00000107280KGM  1801W006960              IVSSH 035F G             IVSSH 035F G             0         0         0         0    0    0    00000000002275000000000011400025935000
AE00TO202209140114/09/202200000000300000000000000002542KGM  00000002689KGM  181AD2001ZZ              CIVUSAS-S 035X1 B        CIVUSAS-S 035X1 B        0         0         0         0    0    0    00000000000016500000000034200000564300
AE00TO202209140114/09/202200000000400000000000000003041KGM  00000003236KGM  181AD2003ZZ              CIVUSAS-S 035X3 B        CIVUSAS-S 035X3 B        0         0         0         0    0    0    00000000000014000000000055300000774200
AE00TO202209140114/09/202200000001500000000000000012600KGM  00000013333KGM  181AD2004ZZ              CIVUSAS-S 035X4 B        CIVUSAS-S 035X4 B        0         0         0         0    0    0    00000000000045000000000066700003001500
AE00TO202209140114/09/202200000000500000000000000004056KGM  00000004300KGM  181AD2008ZZ              CIVUSAS-S 05X2 B         CIVUSAS-S 05X2 B         0         0         0         0    0    0    00000000000020000000000051400001028000
AE00TO202209140114/09/202200000001000000000000000008448KGM  00000008937KGM  181AD2013ZZ              CIVUSAS-S 125X2 B        CIVUSAS-S 125X2 B        0         0         0         0    0    0    00000000000022000000000097600002147200
AE00TO202209140114/09/202200000001600000000000000012341KGM  00000013123KGM  181AD2021ZZ              CIVUSAS-S 035X2 B(L,GY)  CIVUSAS-S 035X2 B(L,GY)  0         0         0         0    0    0    00000000000072000000000043700003146400
AE00TO202209140114/09/202200000000500000000000000003857KGM  00000004101KGM  181AD2022ZZ              CIVUSAS-S 035X2 B(R,G)   CIVUSAS-S 035X2 B(R,G)   0         0         0         0    0    0    00000000000022500000000043700000983250
AE00TO202209140114/09/202200000000200000000000000001608KGM  00000001706KGM  181B0910241              CAVSAS 05X2 GY           CAVSAS 05X2 GY           0         0         0         0    0    0    00000000000006000000000061200000367200
AE00TO202209140114/09/202200000000700000000000000004975KGM  00000005317KGM  181B0911741              CAVSAS 03X3 GY           CAVSAS 03X3 GY           0         0         0         0    0    0    00000000000017500000000060100001051750
AE00TO202209140114/09/202200000000400000000000000003262KGM  00000003458KGM  181B0911941              CAVSAS 03X4 GY           CAVSAS 03X4 GY           0         0         0         0    0    0    00000000000010000000000074600000746000
AE00TO202209140114/09/202200000000300000000000000002390KGM  00000002536KGM  181B32012ZZ              AVSSCS 03FX2 DGY/BR      AVSSCS 03FX2 DGY/BR      0         0         0         0    0    0    00000000000010500000000060900000639450
AE00TO202209140114/09/202200000000100000000000000000916KGM  00000000964KGM  181B32039Y6              AVSSCS 05FX1 DGY/G       AVSSCS 05FX1 DGY/G       0         0         0         0    0    0    00000000000004000000000055900000223600
AE00TO202209140114/09/202200000000700000000000000006275KGM  00000006617KGM  181B32103S1              AVSSCS 05FX3 DGY         AVSSCS 05FX3 DGY         0         0         0         0    0    0    00000000000017500000000096400001687000
AE00TO202209140114/09/202200000000500000000000000003983KGM  00000004227KGM  181B32116Y9              AVSSCS 03FX2 DGY/P       AVSSCS 03FX2 DGY/P       0         0         0         0    0    0    00000000000017500000000060900001065750
AE00TO202209140114/09/202200000000300000000000000002390KGM  00000002536KGM  181B32116Z5              AVSSCS 03FX2 DGY/L       AVSSCS 03FX2 DGY/L       0         0         0         0    0    0    00000000000010500000000060900000639450
AE00TO202209140114/09/202200000000200000000000000001594KGM  00000001690KGM  181B32116Z6              AVSSCS 03FX2 DGY/V       AVSSCS 03FX2 DGY/V       0         0         0         0    0    0    00000000000007000000000060900000426300
AE00TO202209140114/09/202200000000100000000000000000914KGM  00000000963KGM  181D6903930              AVSSHCS 05FX1 B          AVSSHCS 05FX1 B          0         0         0         0    0    0    00000000000004000000000059700000238800
AE00TO202209140114/09/202200000000300000000000000002084KGM  00000002230KGM  181E48013ZZ              CAVSAS-S 03X3 GY         CAVSAS-S 03X3 GY         0         0         0         0    0    0    00000000000007500000000059600000447000
AE00TO202209140114/09/202200000000600000000000000004794KGM  00000005087KGM  181E48029ZZ              CAVSAS-S 05X4 GY         CAVSAS-S 05X4 GY         0         0         0         0    0    0    00000000000012000000000101000001212000
AE00TO202209140114/09/202200000000500000000000000003515KGM  00000003760KGM  181E48031ZZ              CAVSAS-S 03X2 GY         CAVSAS-S 03X2 GY         0         0         0         0    0    0    00000000000017500000000045900000803250
AE00TO202209140114/09/202200000001800000000000000012654KGM  00000013536KGM  181E48041ZZ              CAVSAS-S 03X2 GY/R       CAVSAS-S 03X2 GY/R       0         0         0         0    0    0    00000000000063000000000045900002891700
AE00TO202209140114/09/202200000000500000000000000003515KGM  00000003760KGM  181E48048ZZ              CAVSAS-S 03X2 GY/O       CAVSAS-S 03X2 GY/O       0         0         0         0    0    0    00000000000017500000000045900000803250
AE00TO202209140114/09/202200000000600000000000000004583KGM  00000004877KGM  181E50000ZZ              AVSSCS-S 05FX1 DGY/BR    AVSSCS-S 05FX1 DGY/BR    0         0         0         0    0    0    00000000000024000000000050400001209600
AE00TO202209140114/09/202200000000400000000000000003032KGM  00000003226KGM  181E50002ZZ              AVSSCS-S 03FX2 DGY/G     AVSSCS-S 03FX2 DGY/G     0         0         0         0    0    0    00000000000014000000000059400000831600
AE00TO202209140114/09/202200000001000000000000000007578KGM  00000008066KGM  181E50003ZZ              AVSSCS-S 03FX2 DGY/BR    AVSSCS-S 03FX2 DGY/BR    0         0         0         0    0    0    00000000000035000000000059400002079000
AE00TO202209140114/09/202200000012500000000000000095485KGM  00000101597KGM  181E50004ZZ              AVSSCS-S 05FX1 DGY       AVSSCS-S 05FX1 DGY       0         0         0         0    0    0    00000000000500000000000050400025200000
AE00TO202209140114/09/202200000004200000000000000032084KGM  00000034136KGM  181E50005ZZ              AVSSCS-S 05FX1 DGY/W     AVSSCS-S 05FX1 DGY/W     0         0         0         0    0    0    00000000000168000000000050400008467200
AE00TO202209140114/09/202200000001200000000000000009167KGM  00000009753KGM  181E50006ZZ              AVSSCS-S 05FX1 DGY/Y     AVSSCS-S 05FX1 DGY/Y     0         0         0         0    0    0    00000000000048000000000050400002419200
AE00TO202209140114/09/202200000003200000000000000024445KGM  00000026008KGM  181E50007ZZ              AVSSCS-S 05FX1 DGY/L     AVSSCS-S 05FX1 DGY/L     0         0         0         0    0    0    00000000000128000000000050400006451200
AE00TO202209140114/09/202200000000100000000000000000929KGM  00000000978KGM  181E50010ZZ              AVSSCS-S 05FX2 DGY/P     AVSSCS-S 05FX2 DGY/P     0         0         0         0    0    0    00000000000003000000000070600000211800
AE00TO202209140114/09/202200000000100000000000000000764KGM  00000000813KGM  181E50013ZZ              AVSSCS-S 05FX1 DGY/G     AVSSCS-S 05FX1 DGY/G     0         0         0         0    0    0    00000000000004000000000050400000201600
AE00TO202209140114/09/202200000000300000000000000002273KGM  00000002420KGM  181E50020ZZ              AVSSCS-S 03FX2 DGY/R     AVSSCS-S 03FX2 DGY/R     0         0         0         0    0    0    00000000000010500000000059400000623700
AE00TO202209140114/09/202200000000300000000000000002273KGM  00000002420KGM  181E50021ZZ              AVSSCS-S 03FX2 DGY/P     AVSSCS-S 03FX2 DGY/P     0         0         0         0    0    0    00000000000010500000000059400000623700
AE00TO202209140114/09/202200000000700000000000000005714KGM  00000006056KGM  181E50027ZZ              AVSSCS-S 05FX3 DGY/G     AVSSCS-S 05FX3 DGY/G     0         0         0         0    0    0    00000000000017500000000091500001601250
AE00TO202209140114/09/202200000001600000000000000012124KGM  00000012907KGM  181E50036ZZ              AVSSCS-S 03FX2 DGY       AVSSCS-S 03FX2 DGY       0         0         0         0    0    0    00000000000056000000000059400003326400
AE00TO202209140114/09/202200000000500000000000000003817KGM  00000004061KGM  181F21004ZZ              AVSSHCS-S 05FX1 B/R      AVSSHCS-S 05FX1 B/R      0         0         0         0    0    0    00000000000020000000000053700001074000
AE00TO202209140114/09/202200000000300000000000000002290KGM  00000002436KGM  181F21006ZZ              AVSSHCS-S 05FX1 B/Y      AVSSHCS-S 05FX1 B/Y      0         0         0         0    0    0    00000000000012000000000053700000644400
AE00TO202209140114/09/202200000001000000000000000007633KGM  00000008122KGM  181F21008ZZ              AVSSHCS-S 05FX1 B/V      AVSSHCS-S 05FX1 B/V      0         0         0         0    0    0    00000000000040000000000053700002148000
AE00TO202209140114/09/202200000000100000000000000000759KGM  00000000808KGM  181F21011ZZ              AVSSHCS-S 05FX2 B/R      AVSSHCS-S 05FX2 B/R      0         0         0         0    0    0    00000000000003000000000073800000221400
AE00TO202209140114/09/202200000000700000000000000005316KGM  00000005658KGM  181F21013ZZ              AVSSHCS-S 05FX2 B/Y      AVSSHCS-S 05FX2 B/Y      0         0         0         0    0    0    00000000000021000000000073800001549800
AE00TO202209140114/09/202200000000300000000000000002278KGM  00000002425KGM  181F21014ZZ              AVSSHCS-S 05FX2 B/L      AVSSHCS-S 05FX2 B/L      0         0         0         0    0    0    00000000000009000000000073800000664200
AE00TO202209140114/09/202200000000600000000000000004556KGM  00000004850KGM  181F21015ZZ              AVSSHCS-S 05FX2 B/P      AVSSHCS-S 05FX2 B/P      0         0         0         0    0    0    00000000000018000000000073800001328400
AE00TO202209140114/09/202200000001700000000000000012910KGM  00000013741KGM  181F21016ZZ              AVSSHCS-S 05FX2 B/BR     AVSSHCS-S 05FX2 B/BR     0         0         0         0    0    0    00000000000051000000000073800003763800
AE00TO202209140114/09/202200000001000000000000000008535KGM  00000009023KGM  181F21028ZZ              AVSSHCS-S 125FX2 B/R     AVSSHCS-S 125FX2 B/R     0         0         0         0    0    0    00000000000020000000000127800002556000
