BI00B1200    7360T52905     202209297196-1937-02             TERMINAL FEMALE          CCN000013500000013500FN00000000020221001000013500NNE   20220914121333    4P0P  0000135000000044690000073211200    YCYC    006400630015
BI00B1200    7360T52906     202210067196-1937-02             TERMINAL FEMALE          CCN000013500000013500FN00000000020221101000013500NNE   20220914121333    4P0P  0000135000000044690000073211200    YCYC    006400630015
BI00B1200    7360T52907     202210067196-1103-02             TERMINAL                 CCN000022500000022500FN00000000020221101000022500NNE   20220914121333    4P0P  0000225000000042980000071501200    YCYC    006400630015
BI00B1200    #7360T52907    202210067172-5629-80             RUBBER STOPPER           CCN000040000000040000FN00000000020221101000040000NNE   20220914121333    2H0H  0000200000000006000000011111200    YCYC    004300270014
BI00B1200    #7360T52907    202210067172-5632-10             DUMMY PLUG               CCN000040000000040000FN00000000020221101000040000NNE   20220914121333    2H0H  0000200000000008040000013181200    YCYC    004300270014
BI00B1200    7800T52901     202210207288-3340-30             HOUSING MALE             CCN000001500000001500FN00000000020221101000001500NNE   20220914121333    4N0N  0000015000000086150000100641200    YCYC    005400370024
BI00B1200    7800T52901     202210207289-3342-30             HOUSING FEMALE ASS'Y     CCN000002400000002400FN00000000020221101000002400NNE   20220914121333    1N0N  0000024000000068640000090141200    YCYC    005500360039
BI00B1200    O022L50022     202211107116-4100-02             TERMINAL                 CCN000060000000060000FN00000000020221201000060000NNE   20220914121333    4P0P  0000150000000069600000099021200    YCYC    006400630015
BI00B32AG    XG2211CNMW     202209307116-4121-02             TERMINAL                 CCN000054000000054000FN00000000020221101000054000NNE   20220914155543    4P0P  00000450000000618800000912432AG    XGXGY   006400630015
BI00B32BG    YY2211BCMW     202210067158-3070-80             RUBBER STOPPER           CCN000080000000080000FN00000000020221101000080000NNE   20220914121333    1C0C  00004000000000276000000333332BG    YGYYA   002700430014
BI00B32BG    YY2211BGMW     202210067114-4111-02             TERMINAL                 CCN000072000000072000FN00000000020221101000072000NNE   20220914121333    4P0P  00001200000000758400001087032BG    YGYYA   006400630017
BI00B32BG    YY2211BGMW     202210067114-4112-02             TERMINAL                 CCN000063000000063000FN00000000020221101000063000NNE   20220914121333    4P0P  00000900000000598500000927132BG    YGYYA   006400630017
BI00B32BG    YY2211BGMW     202210067116-4100-02             TERMINAL                 CCN000060000000060000FN00000000020221101000060000NNE   20220914121333    4P0P  00001500000000696000000990232BG    YGYYA   006400630015
BI00B32BG    YY2211BGMW     202210067116-4104-02             TERMINAL                 CCN000048000000048000FN00000000020221101000048000NNE   20220914121333    4P0P  00001200000000580800000972432BG    YGYYA   006400630015
BI00B32BG    YY2211BGMW     202210067116-4110-02             TERMINAL                 CCN000027000000027000FN00000000020221101000027000NNE   20220914121333    4P0P  00000900000000594000000882232BG    YGYYA   006400630015
BI00B32BG    YY2211BGMW     202210067116-4111-02             TERMINAL                 CCN000045000000045000FN00000000020221101000045000NNE   20220914121333    4P0P  00000750000000529500000817732BG    YGYYA   006400630015
BI00B32BG    YY2211BGMW     202210067116-4112-02             TERMINAL                 CCN000030000000030000FN00000000020221101000030000NNE   20220914121333    4P0P  00000600000000450000000738232BG    YGYYA   006400630015
BI00B32BG    YY2211BGMW     202210067116-4122-02             TERMINAL                 CCN000022500000022500FN00000000020221101000022500NNE   20220914121333    4P0P  00000450000000656600000950232BG    YGYYA   006400630015
BI00B32BG    #YY2211BGMW    202210067158-3008-80             RUBBER STOPPER           CCN000020000000020000FN00000000020221101000020000NNE   20220914121333    2C0C  00002000000000288000000343032BG    YGYYA   004300270014
BI00B32BG    YY2211CGMW     202210067114-4111-02             TERMINAL                 CCN000048000000048000FN00000000020221101000048000NNE   20220914121333    4P0P  00001200000000758400001087032BG    YGYYA   006400630017
BI00B32BG    YY2211CGMW     202210067114-4112-02             TERMINAL                 CCN000045000000045000FN00000000020221101000045000NNE   20220914121333    4P0P  00000900000000598500000927132BG    YGYYA   006400630017
BI00B32BG    YY2211CGMW     202210067116-4100-02             TERMINAL                 CCN000060000000060000FN00000000020221101000060000NNE   20220914121333    4P0P  00001500000000696000000990232BG    YGYYA   006400630015
BI00B32BG    YY2211CGMW     202210067116-4104-02             TERMINAL                 CCN000048000000048000FN00000000020221101000048000NNE   20220914121333    4P0P  00001200000000580800000972432BG    YGYYA   006400630015
BI00B32BG    YY2211CGMW     202210067116-4110-02             TERMINAL                 CCN000027000000027000FN00000000020221101000027000NNE   20220914121333    4P0P  00000900000000594000000882232BG    YGYYA   006400630015
BI00B32BG    YY2211CGMW     202210067116-4111-02             TERMINAL                 CCN000045000000045000FN00000000020221101000045000NNE   20220914121333    4P0P  00000750000000529500000817732BG    YGYYA   006400630015
BI00B32BG    YY2211CGMW     202210067116-4112-02             TERMINAL                 CCN000030000000030000FN00000000020221101000030000NNE   20220914121333    4P0P  00000600000000450000000738232BG    YGYYA   006400630015
BI00B32BG    YY2211CGMW     202210067116-4122-02             TERMINAL                 CCN000022500000022500FN00000000020221101000022500NNE   20220914121333    4P0P  00000450000000656600000950232BG    YGYYA   006400630015
BI00B32BG    YY2212AGMW     202211107116-4121-02             TERMINAL                 CCN000018000000018000FN00000000020221201000018000NNE   20220914121333    4P0P  00000450000000618800000912432BG    YGYYA   006400630015
BI00B32B1    A22048         202211047114-4032                TERMINAL                 CCN000007500000007500FN00000000020230101000007500NNM   20220914121333B1  4P0P  00000750000000735000001063632B1    AXARNE-M006400630017
BI00B32B1    A22048         202211047282-5553-30             CONNECTOR                CCN000003000000003000FN00000000020230101000003000NNM   20220914121333B1  4N0N  00000100000001010000001187332B1    AXARNE-M005500360039
BI00B32B1    A22048         202211047282-5574-10             CONNECTOR                CCN000000800000000800FN00000000020230101000000800NNM   20220914121333B1  4N0N  00000080000001235000001423032B1    AXARNE-M005600390040
BI00B32B1    #A22048        202211047158-3376-50             CONNECTOR WIRE SEAL      CCN000080000000080000FN00000000020230101000080000NNM   20220914121333B1  2C0C  00002000000000184000000240732B1    AXARNE-M002700430014
BI00B32B1    #A22048        202211047283-8226-30             CONNECTOR                CCN000010000000010000FN00000000020230101000010000NNM   20220914121333B1  2N0N  00000200000000820000001008032B1    AXARNE-M005400370024
BI00B32B6    A72048         202211047116-4037                TERMINAL                 CCN000012000000012000FN00000000020230101000012000NNM   20220914121333B6  4P0P  00000600000000600000000894232B6    AXARNE-M006400630015
BI00B32B6    A72048         202211047017-1180-02             TERMINAL                 CCN000072000000072000FN00000000020230101000072000NNM   20220914121333B6  4P0P  00007200000001065600001229032B6    AXARNE-M005100280028
BI00B32B6    A72048         202211047017-1181-02             TERMINAL                 CCN000063000000063000FN00000000020230101000063000NNM   20220914121333B6  4P0P  00006300000001089900001266832B6    AXARNE-M005100280028
BI00B32B6    A72048         202211047017-1182-02             TERMINAL                 CCN000045000000045000FN00000000020230101000045000NNM   20220914121333B6  4P0P  00004500000001165500001318632B6    AXARNE-M005100280028
BI00B32B6    A72048         202211047116-4486-02             TERMINAL                 CCN000028000000028000FN00000000020230101000028000NNM   20220914121333B6  4P0P  00002800000000666400000995132B6    AXARNE-M006400630017
BI00B32B6    A72048         202211047116-5045-02             TERMINAL                 CCN000032000000032000FN00000000020230101000032000NNM   20220914121333B6  4P0P  00001600000000678400001007132B6    AXARNE-M006400630017
BI00B32B6    A72048         202211047158-3167-80             WIRE SEAL                CCN000180000000180000FN00000000020230101000180000NNM   20220914121333B6  1C0C  00002000000000048000000109032B6    AXARNE-M002700430014
BI00B32B6    A72048         202211047158-3168-80             SEALED                   CCN000020000000020000FN00000000020230101000020000NNM   20220914121333B6  1C0C  00002000000000044000000092132B6    AXARNE-M004300260014
BI00B32B6    A72048         202211047288-3339-30             HOUSING MALE             CCN000001500000001500FN00000000020230101000001500NNM   20220914121333B6  4N0N  00000150000000867000001012032B6    AXARNE-M005400370024
BI00B32B6    A72048         202211047289-3342-30             HOUSING FEMALE ASS'Y     CCN000002400000002400FN00000000020230101000002400NNM   20220914121333B6  1N0N  00000240000000686400000901432B6    AXARNE-M005500360039
BI00B32B6    #A72048        202211047158-3017                RUBBER STOPPER           CCN000010000000010000FN00000000020230101000010000NNM   20220914121333B6  2C0C  00001000000000375500000435032B6    AXARNE-M002700430014
BI00B32B6    #A72048        202211047158-3003-90             RUBBER STOPPER           CCN000060000000060000FN00000000020230101000060000NNM   20220914121333B6  2C0C  00002000000000250000000306032B6    AXARNE-M002700430014
BI00B32B6    #A72048        202211047158-3004-40             RUBBER STOPPER           CCN000020000000020000FN00000000020230101000020000NNM   20220914121333B6  2C0C  00002000000000234000000306332B6    AXARNE-M002700430014
BI00B32B6    #A72048        202211047158-3015-10             RUBBER STOPPER           CCN000020000000020000FN00000000020230101000020000NNM   20220914121333B6  2C0C  00001000000000419500000474032B6    AXARNE-M002700430014
BI00B32B6    #A72048        202211047158-3121-80             WIRE SEAL                CCN000060000000060000FN00000000020230101000060000NNM   20220914121333B6  2C0C  00002000000000118000000187332B6    AXARNE-M002700430014
BI00B32B7    A82048         202211047158-3166-60             WIRE SEAL                CCN000120000000120000FN00000000020230101000120000NNM   20220914121333B7  1C0C  00004000000000104000000152432B7    AXARNE-M002700430014
BI00B32B7    A82048         202211047158-3168-80             SEALED                   CCN000080000000080000FN00000000020230101000080000NNM   20220914121333B7  1C0C  00002000000000044000000092132B7    AXARNE-M004300260014
BI00B32B7    A82048         202211047282-6448-40             CONNECTOR                CCN000014400000014400FN00000000020230101000014400NNM   20220914121333B7  4N0N  00000080000000887000001152732B7    AXARNE-M005600390040
BI00B32B7    #A82048        202211047135-7031                GROMMET                  CCN000006500000006500FN00000000020230101000006500NNM   20220914121333B7  2H0H  00000010000000634200000744232B7    AXARNE-M005400370024
BI00B32B7    #A82048        202211047158-3376-50             CONNECTOR WIRE SEAL      CCN000060000000060000FN00000000020230101000060000NNM   20220914121333B7  2C0C  00002000000000184000000240732B7    AXARNE-M002700430014
BI00B32B7    #A82048        202211047283-8397-40             CONNECTOR                CCN000006160000006160FN00000000020230101000006160NNM   20220914121333B7  2N0N  00000154000001007000001222732B7    AXARNE-M005600390023
BI00B32B7    #A82048        202211047283-8398-40             CONNECTOR                CCN000003080000003080FN00000000020230101000003080NNM   20220914121333B7  2N0N  00000154000001007000001171332B7    AXARNE-M005600390023
BI00B32CA    PTA33034       202211037196-0511-02             TERMINAL                 CCN000005000000024000FN00000000020230301000024000NNE   20220914121333    4P0P  00002400000000916800001080232CA    YPYPY   002800510028
BI00B32CC    CTA32128       202210217289-6868-30             SEALED ASSY FEMALE       CCN000025200000025200FN00000000020230101000025200NNED0720220914121333    4N0N  00000252000000839200001119232CC    BIYABCBU005500360039
BI00B32CH    SJ2210CDMW     202209297126-8891-02             FUSE TERMINAL            CCN000006000000006000FN00000000020221001000006000NNE   20220914155601    4P0P  00000600000000481800000767032CH    SJSAMIJF006400630015
BI00B32CH    SJ2210CDMW     202209297196-1103-02             TERMINAL                 CCN000022500000022500FN00000000020221001000022500NNE   20220914155601    4P0P  00002250000000429800000715032CH    SJSAMIJF006400630015
BI00B32CH    SJ2210CDMW     202209297388-2978-30             HOUSING MALE ASS'Y       CCN000000960000000960FN00000000020221001000000960NNE   20220914155601    1N0N  00000048000000742000001122032CH    SJSAMIJF005500360039
BI00B32CH    #SJ2210CDMW    202209297172-5629-80             RUBBER STOPPER           CCN000020000000020000FN00000000020221001000020000NNE   20220914155557    2H0H  00002000000000060000000111132CH    SJSAMIJF004300270014
BI00B32CH    #SJ2210CDMW    202209297172-5632-10             DUMMY PLUG               CCN000020000000020000FN00000000020221001000020000NNE   20220914155557    2H0H  00002000000000080400000131832CH    SJSAMIJF004300270014
BI00B32CH    #SJ2210CDMW    202209297189-2978-30             HOUSING FEMALE           CCN000001500000001500FN00000000020221001000001500NNE   20220914155557    2F0F  00000150000000966900001096932CH    SJSAMIJF005400370024
BI00B32CH    #SJ2210CDMW    202209297289-4104-40             HOUSING FEMALE ASS'Y     CCN000001500000001500FN00000000020221001000001500NNE   20220914155557    2NON  00000050000000606900000821132CH    SJSAMIJF005400370024
BI00B32CJ    #QA-22-C080    202209167287-1915-30             CONNECTOR ASS'Y          PNY000001820000001820FN00000000020220901000001820NNE   20220914132050    2N0N  00000240000000666500000923132CJ    QNYHVQN 005500360039
BI00A32DE    #QA-22-C078    202209167187-8856                HOUSING FEMALE           PNN000024000000026000FN00000000020220901000026000NNED0020220914162142    2F0F  00000200000000820000000931532DE    TVYEV-TV005400370024
BI00B32D1    DGTC2245H      202210207285-1755-0W             HOUSING FEMALE ASS'Y     CCN000001000000000000FY00000000020221001000000000NNED0720220914094930    4N0N  00000014000000641700000867232D1    TOYOT-K 005500360039
BI00B32D1    #DGTC2245H     202210207137-3420-30             UNIT PACKING             CCN000001000000000000FY00000000020221001000000000NNED0720220914094922    2F0F  00000100000000157300000202032D1    TOYOT-K 004300270014
BI00B32D1    #DGTC2245H     202210207185-1757                HOUSING FEMALE           CCN000001000000000000FY00000000020221001000000000NNED0720220914094922    2F0F  00000100000000575700000701832D1    TOYOT-K 005400370024
BI00B32D1    #DGTC2245H     202210207185-6056                REAR COVER               CCN000001000000000000FY00000000020221001000000000NNED0720220914094922    2F0F  00000048000000784400000954632D1    TOYOT-K 005400370024
BI00B32D1    #DGTC2245H     202210207185-9378-51             FRONT HOLDER             CCN000001000000000000FY00000000020221001000000000NNED0720220914094922    2F0F  00000100000000278500000393732D1    TOYOT-K 005400370024
BI00B32D1    DFTC2245J      202211107285-1755-0W             HOUSING FEMALE ASS'Y     CCN000001120000001120FN00000000020221201000001120NNED0120220914121333    4N0N  00000014000000641700000867232D1    TOYOT-K 005500360039
BI00B32D1    #DFTC2245J     202211107137-3420-30             UNIT PACKING             CCN000001000000001000FN00000000020221201000001000NNED0120220914121333    2F0F  00000100000000157300000202032D1    TOYOT-K 004300270014
BI00B32D1    #DFTC2245J     202211107185-1757                HOUSING FEMALE           CCN000001000000001000FN00000000020221201000001000NNED0120220914121333    2F0F  00000100000000575700000701832D1    TOYOT-K 005400370024
BI00B32D1    #DFTC2245J     202211107185-6056                REAR COVER               CCN000001440000001440FN00000000020221201000001440NNED0120220914121333    2F0F  00000048000000784400000954632D1    TOYOT-K 005400370024
BI00B32D1    #DFTC2245J     202211107185-9378-51             FRONT HOLDER             CCN000001000000001000FN00000000020221201000001000NNED0120220914121333    2F0F  00000100000000278500000393732D1    TOYOT-K 005400370024
BI00B32D4    #4513608054    202210197047-5344                RETAINER                 CCN000030000000030000FN00000000020221001000030000NNM   20220914121333    2F0F  00001000000000870000001016032D4    YRYRL   005600390023
BI00B32G0    TZ2211AEMW     202209277297-3482                JOINT CONNECTOR          CCN000000400000000800FN00000000020221101000000800NNE   20220914155620    4N0N  00000080000000621000000730532G0    TTTJY   005400370024
BI00B32H0    TT2211BVMW     202210047116-5046-02             TERMINAL                 CCN000012000000012000FN00000000020221101000012000NNE   20220914121333    4P0P  00001200000000544800000873532H0    TTTJY   006400630017
BI00B32H0    TT2211BVMW     202210047158-3022-80             RUBBER STOPPER           CCN000005000000005000FN00000000020221101000005000NNE   20220914121333    1C0C  00000500000000467500000524032H0    TTTJY   002700430014
BI00B32H0    TT2211BVMW     202210047287-3885-40             HYBRID FEMALE ASS'Y      CCN000002400000002400FN00000000020221101000002400NNE   20220914121333    1N0N  00000240000001029600001249632H0    TTTJY   005500360039
BI00B32H0    TT2211BVMW     202210047298-3484                HOUSING FEMALE ASS'Y     CCN000002700000002700FN00000000020221101000002700NNE   20220914121333    4N0N  00000270000000742500001028732H0    TTTJY   005400370024
BI00B32H0    #TT2211BVMW    202210047172-5625-90             RUBBER STOPPER           CCN000040000000040000FN00000000020221101000040000NNE   20220914121333    2H0H  00002000000000082400000133832H0    TTTJY   004300270014
BI00B32H0    #TT2211BVMW    202210047172-5626-90             RUBBER STOPPER           CCN000020000000020000FN00000000020221101000020000NNE   20220914121333    2H0H  00002000000000076400000127832H0    TTTJY   004300270014
BI00B32H0    #TT2211BVMW    202210047172-5628-80             DUMMY PLUG               CCN000020000000020000FN00000000020221101000020000NNE   20220914121333    2H0H  00002000000000110600000162032H0    TTTJY   004300270014
BI00B32H0    #TT2211BVMW    202210047172-5629-80             RUBBER STOPPER           CCN000080000000080000FN00000000020221101000080000NNE   20220914121333    2H0H  00002000000000060000000111132H0    TTTJY   004300270014
BI00B32H0    #TT2211BVMW    202210047198-4979-30             HOUSING FEMALE           CCN000004000000004000FN00000000020221101000004000NNE   20220914121333    2F0F  00000400000000707200000876032H0    TTTJY   005400370024
BI00B32H0    #TT2211BVMW    202210047198-5394                HOUSING FEMALE           CCN000004800000004800FN00000000020221101000004800NNE   20220914121333    2F0F  00000480000000489700000688832H0    TTTJY   005500360039
BI00B32H2    #QA-22-C080    202209167287-1915-30             CONNECTOR ASS'Y          PNY000002063000002063FN00000000020220901000002063NNE   20220914132259    2N0N  00000240000000666500000923132H2    HVYHV   005500360039
BI00B32H2    #TIJ210R       202209307282-1214                CONNECTOR                CCN000001000000001000FN00000000020221001000001000NNE   20220914144613    2N0N  00000100000000900000001030032H2    HVYHV   005500360039
BI00B32H8    #TY2210AIMW    202209307187-3358-30             JOINT CONNECTOR          CCN000001200000001200FN00000000020221001000001200NNE   20220914121333    2F0F  00000120000000673200000940432H8    TYTYC   005600390040
BI00B32H8    #TY2210AIMW    202209307282-1150-50             CONNECTOR MALE ASS'Y     CCN000001200000001200FN00000000020221001000001200NNE   20220914121333    2N0N  00000060000000688800000800032H8    TYTYC   005400370024
BI00B32H8    #TY2210AIMW    202209307283-1194                CONNECTOR FEMALE         CCN000002000000002000FN00000000020221001000002000NNE   20220914121333    2N0N  00000100000000947000001069532H8    TYTYC   005400370024
BI00B32H8    TY2210B MW     202209307116-1180                TERMINAL                 CCN000019500000019500FN00000000020221001000019500NNE   20220914121333    1P0P  00001950000000618200000903432H8    TYTYC   006400630015
BI00B32H8    TY2210B MW     202209307116-1471                TERMINAL                 CCN000165000000165000FN00000000020221001000165000NNE   20220914121333    4P0P  00001500000000579000000867232H8    TYTYC   006400630015
BI00B32H8    TY2210B MW     202209307116-1473                TERMINAL                 CCN000081000000081000FN00000000020221001000081000NNE   20220914121333    4P0P  00001350000000523800000809032H8    TYTYC   006400630015
BI00B32H8    TY2210B MW     202209307116-1685                TERMINAL                 CCN000024000000024000FN00000000020221001000024000NNE   20220914121333    4P0P  00002400000000892800001067232H8    TYTYC   005100280028
BI00B32H8    TY2210B MW     202209307116-2640                TERMINAL                 CCN000018000000018000FN00000000020221001000018000NNE   20220914121333    4P0P  00001800000001018800001196632H8    TYTYC   005100280028
BI00B32H8    TY2210B MW     202209307116-2870                TERMINAL                 CCN000024000000024000FN00000000020221001000024000NNE   20220914121333    1P0P  00001200000000783600001020232H8    TYTYC   005100280028
BI00B32H8    TY2210B MW     202209307116-2871                TERMINAL                 CCN000024000000024000FN00000000020221001000024000NNE   20220914121333    1P0P  00001200000000842400001072632H8    TYTYC   005100280028
BI00B32H8    TY2210B MW     202209307116-4025                TERMINAL                 CCN000048000000048000FN00000000020221001000048000NNE   20220914121333    4P0P  00001600000000644800000975132H8    TYTYC   006400630017
BI00B32H8    TY2210B MW     202209307116-4026                TERMINAL                 CCN000032000000032000FN00000000020221001000032000NNE   20220914121333    4P0P  00001600000000664000000994332H8    TYTYC   006400630017
BI00B32H8    TY2210B MW     202209307116-4031                TERMINAL                 CCN000007500000007500FN00000000020221001000007500NNE   20220914121333    4P0P  00000750000000619500000904732H8    TYTYC   006400630015
BI00B32H8    TY2210B MW     202209307116-4032                TERMINAL                 CCN000006000000006000FN00000000020221001000006000NNE   20220914121333    4P0P  00000600000000532800000818032H8    TYTYC   006400630015
BI00B32H8    TY2210B MW     202209307116-4416-02             TERMINAL                 CCN000032000000032000FN00000000020221001000032000NNE   20220914121333    4P0P  00003200000000518400000847132H8    TYTYC   006400630017
BI00B32H8    TY2210B MW     202209307116-6041                TERMINAL                 CCN000004500000004500FN00000000020221001000004500NNE   20220914121333    4P0P  00000450000000716000001009632H8    TYTYC   006400630015
BI00B32H8    TY2210B MW     202209307116-6042                TERMINAL                 CCN000006000000006000FN00000000020221001000006000NNE   20220914121333    4P0P  00000300000000523800000856132H8    TYTYC   006400630015
BI00B32H8    TY2210B MW     202209307123-7500                CONNECTOR                CCN000004000000004000FN00000000020221001000004000NNE   20220914121333    1F0F  00000080000000710000000896732H8    TYTYC   005500360039
BI00B32H8    TY2210B MW     202209307126-8855-02             TERMINAL                 CCN000006000000006000FN00000000020221001000006000NNE   20220914121333    4P0P  00000600000000510600000795832H8    TYTYC   006400630015
BI00B32H8    TY2210B MW     202209307157-7915-80             REAR HOLDER              CCN000010000000010000FN00000000020221001000010000NNE   20220914121333    1F0F  00001000000001110000001364032H8    TYTYC   005500360039
BI00B32H8    TY2210B MW     202209307158-3167-80             WIRE SEAL                CCN000040000000040000FN00000000020221001000040000NNE   20220914121333    1C0C  00002000000000048000000109032H8    TYTYC   002700430014
BI00B32H8    TY2210B MW     202209307222-6244-40             CONNECTOR                CCN000000800000000800FN00000000020221001000000800NNE   20220914121333    4N0N  00000080000001239200001422032H8    TYTYC   005600390040
BI00B32H8    TY2210B MW     202209307222-7564-30             CONNECTOR                CCN000001000000001000FN00000000020221001000001000NNE   20220914121333    1N0N  00000050000000966500001125032H8    TYTYC   005500360039
BI00B32H8    TY2210B MW     202209307222-7564-40             CONNECTOR                CCN000000500000000500FN00000000020221001000000500NNE   20220914121333    1N0N  00000050000000967000001097032H8    TYTYC   005500360039
BI00B32H8    TY2210B MW     202209307222-7923-30             CONNECTOR                CCN000000600000000600FN00000000020221001000000600NNE   20220914121333    4N0N  00000060000000937000001067032H8    TYTYC   005500360039
BI00B32H8    TY2210B MW     202209307222-7923-40             CONNECTOR                CCN000001200000001200FN00000000020221001000001200NNE   20220914121333    4N0N  00000060000000937000001123032H8    TYTYC   005500360039
BI00B32H8    TY2210B MW     202209307283-1024                CONNECTOR SUB ASSY       CCN000002000000002000FN00000000020221001000002000NNE   20220914121333    4N0N  00000200000000400000000522532H8    TYTYC   005400370024
BI00B32H8    TY2210B MW     202209307283-1222                CONNECTOR                CCN000001200000001200FN00000000020221001000001200NNE   20220914121333    4N0N  00000120000000852000001011032H8    TYTYC   005500360039
BI00B32H8    TY2210B MW     202209307283-1222-30             CONNECTOR HOUSING        CCN000001200000001200FN00000000020221001000001200NNE   20220914121333    4N0N  00000120000000855000001013032H8    TYTYC   005500360039
BI00B32H8    TY2210B MW     202209307283-5832                CONNECTOR HOUSING        CCN000002400000002400FN00000000020221001000002400NNE   20220914121333    1N47  00000240000000723800000873832H8    TYTYC   005500360039
BI00B32H8    TY2210B MW     202209307283-5845                CONNECTOR HOUSING        CCN000006000000006000FN00000000020221001000006000NNE   20220914121333    1N0N  00000600000000444000000606332H8    TYTYC   005400370024
BI00B32H8    #TY2210B MW    202209307123-1424-40             CONNECTOR HOUSING        CCN000004200000004200FN00000000020221001000004200NNE   20220914121333    2F0F  00000420000000987000001112032H8    TYTYC   005400370024
BI00B32H8    #TY2210B MW    202209307123-7484-40             CONNECTOR                CCN000002000000002000FN00000000020221001000002000NNE   20220914121333    2F0F  00000200000001393800001541032H8    TYTYC   005500360039
BI00B32H8    #TY2210B MW    202209307123-7564-40             CONNECTOR                CCN000003000000003000FN00000000020221001000003000NNE   20220914121333    2F0F  00000100000001301000001479032H8    TYTYC   005600390040
BI00B32H8    #TY2210B MW    202209307123-7923-30             CONNECTOR                CCN000003000000003000FN00000000020221001000003000NNE   20220914121333    2F0F  00000150000001491000001657032H8    TYTYC   005600390040
BI00B32H8    #TY2210B MW    202209307123-7923-40             CONNECTOR                CCN000003000000003000FN00000000020221001000003000NNE   20220914121333    2F0F  00000150000001492500001665932H8    TYTYC   005600390040
BI00B32H8    #TY2210B MW    202209307157-3790-90             WIRE SEAL                CCN000020000000020000FN00000000020221001000020000NNE   20220914121333    2C0C  00002000000000176000000232732H8    TYTYC   002700430014
BI00B32H8    #TY2210B MW    202209307157-7811-80             SEAL RUBBER              CCN000020000000020000FN00000000020221001000020000NNE   20220914121333    2C0C  00001000000000105000000182732H8    TYTYC   002700430014
BI00B32H8    #TY2210B MW    202209307157-7812                SEAL RUBBER              CCN000200000000200000FN00000000020221001000200000NNE   20220914121333    2C0C  00001000000000137000000202032H8    TYTYC   002700430014
BI00B32H8    #TY2210B MW    202209307157-7916-80             REAR HOLDER              CCN000008000000008000FN00000000020221001000008000NNE   20220914121333    2F0F  00000800000001100800001263032H8    TYTYC   003600540039
BI00B32H8    #TY2210B MW    202209307158-3003-90             RUBBER STOPPER           CCN000020000000020000FN00000000020221001000020000NNE   20220914121333    2C0C  00002000000000250000000306032H8    TYTYC   002700430014
BI00B32H8    #TY2210B MW    202209307158-3004-40             RUBBER STOPPER           CCN000020000000020000FN00000000020221001000020000NNE   20220914121333    2C0C  00002000000000234000000306332H8    TYTYC   002700430014
BI00B32H8    #TY2210B MW    202209307183-0520                HOUSING FEMALE           CCN000003000000003000FN00000000020221001000003000NNE   20220914121333    2F0F  00000300000000729000000874032H8    TYTYC   005400370024
BI00B32H8    #TY2210B MW    202209307183-2416                HOUSING                  CCN000002400000002400FN00000000020221001000002400NNE   20220914121333    2F0F  00000240000001495200001771032H8    TYTYC   005500360039
BI00B32H8    #TY2210B MW    202209307183-2511                HOUSING                  CCN000001600000001600FN00000000020221001000001600NNE   20220914121333    2F0F  00000160000000972200001242132H8    TYTYC   005500360039
BI00B32H8    @TY2210B MW    202209307283-1100-60             CONNECTOR ASS'Y          CCN000001600000001600FN00000000020221001000001600NNE   20220914121333    3N0N  00000160000000567500000801432H8    TYTYC   005500360039
BI00B32H8    @TY2210B MW    202209307283-1100-90             CONNECTOR ASS'Y          CCN000001600000001600FN00000000020221001000001600NNE   20220914121333    3N0N  00000160000000564800000806832H8    TYTYC   005500360039
BI00A32M3    #QA-22-C075    202209157187-8856                HOUSING FEMALE           PNN000010000000010000FN00000600020220801000004000NNED0020220914164442    2F0F  00000200000000820000000931532M3    SASAMI  005400370024
BI00B32N2    #2152104214    202210067183-1616                CONNECTOR HOUSING        CCN000002400000002400FN00000000020221101000002400NNE   20220914133844    2F0F  00000240000000557500000823332N2    YWYIPLTC005500360039
BI00B32Q8    EU22113TMW     202209217116-4486-02             TERMINAL                 CCN000028000000028000FN00000000020221101000028000NNMD0020220914150750    4P0P  00002800000000666400000995132Q8    EMEMI   006400630017
BI00B32Q8    #EU22112TMW    202209217158-7586-30             BLOCK LIF                CCN000001600000001600FN00000000020221101000001600NNMD0020220914161423    2F0F  00000080000000617400000844232Q8    EMEMI   005500360039
BI00B32Q8    #EU22113TMW    202210127183-2416                HOUSING                  CCN000007200000002400FN00000000020221101000002400NNMQ0020220914150134    2F0F  00000240000001495200001771032Q8    EMEMI   005500360039
BI00B32Q8    EU2211C MW     202209217017-1183-02             TERMINAL                 CCN000027000000027000FN00000000020221101000027000NNED0020220914161540    4P0P  00002700000001139400001307432Q8    EMEMI   005100280028
BI00B32Q8    #EU22113TMW    202209217183-2416                HOUSING                  CCN000004800000004800FN00000000020221101000004800NNMD0020220914150142    2F0F  00000240000001495200001771032Q8    EMEMI   005500360039
BI00B32R7    R-TAP220385    202209227C98-1149-3W             SQUIB SUB ASS'Y          CCN000010000000010000FN00000000020221001000010000NNED0020220914121333    4N0N  00001000000000785000000922032R7    IVYCIC  005400370024
BI00B32U5    DI2048         202211047116-4037                TERMINAL                 CCN000030000000030000FN00000000020230101000030000NNM   20220914121333U5  4P0P  00000600000000600000000894232U5    AMAMSD  006400630015
BI00B32U5    DI2048         202211047289-3342                HOUSING FEMALE ASS'Y     CCN000012000000012000FN00000000020230101000012000NNM   20220914121333U5  1N0N  00000240000000686400000901432U5    AMAMSD  005500360039
BI00B32U5    DI2048         202211047017-1180-02             TERMINAL                 CCN000288000000288000FN00000000020230101000288000NNM   20220914121333U5  4P0P  00007200000001065600001229032U5    AMAMSD  005100280028
BI00B32U5    DI2048         202211047017-1182-02             TERMINAL                 CCN000045000000045000FN00000000020230101000045000NNM   20220914121333U5  4P0P  00004500000001165500001318632U5    AMAMSD  005100280028
BI00B32U5    DI2048         202211047114-4624-02             TERMINAL                 CCN000072000000072000FN00000000020230101000072000NNM   20220914121333U5  4P0P  00002400000000895200001188832U5    AMAMSD  006400630015
BI00B32U5    DI2048         202211047116-1685-02             TERMINAL                 CCN000288000000288000FN00000000020230101000288000NNM   20220914121333U5  4P0P  00002400000000897600001065232U5    AMAMSD  005100280028
BI00B32U5    DI2048         202211047116-1686-02             TERMINAL                 CCN000042000000042000FN00000000020230101000042000NNM   20220914121333U5  4P0P  00002100000000869400001021632U5    AMAMSD  005100280028
BI00B32U5    DI2048         202211047116-4486-02             TERMINAL                 CCN000112000000112000FN00000000020230101000112000NNM   20220914121333U5  4P0P  00002800000000666400000995132U5    AMAMSD  006400630017
BI00B32U5    DI2048         202211047116-5045-02             TERMINAL                 CCN000144000000144000FN00000000020230101000144000NNM   20220914121333U5  4P0P  00001600000000678400001007132U5    AMAMSD  006400630017
BI00B32U5    DI2048         202211047116-5046-02             TERMINAL                 CCN000108000000108000FN00000000020230101000108000NNM   20220914121333U5  4P0P  00001200000000544800000873532U5    AMAMSD  006400630017
BI00B32U5    DI2048         202211047196-1104-02             TERMINAL                 CCN000202500000202500FN00000000020230101000202500NNM   20220914121333U5  4P0P  00002250000000441000000726232U5    AMAMSD  006400630015
BI00B32U5    DI2048         202211047283-9458-30             CONNECTOR                CCN000002400000002400FN00000000020230101000002400NNM   20220914121333U5  4N0N  00000020000000792000000984332U5    AMAMSD  005600390023
BI00B32U5    DI2048         202211047288-3330-30             HOUSING MALE             CCN000004500000004500FN00000000020230101000004500NNM   20220914121333U5  4N0N  00000150000000866300001011232U5    AMAMSD  005400370024
BI00B32U5    DI2048         202211047298-4094-10             HOUSING FEMALE ASS'Y     CCN000003380000003380FN00000000020230101000003380NNM   20220914121333U5  4N0N  00000338000001097400001358732U5    AMAMSD  005400370024
BI00B32U5    DI2048         202211047298-5993-30             SEALED ASSY FEMALE       CCN000002184000002184FN00000000020230101000002184NNM   20220914121333U5  4N0N  00000218400000981500001290032U5    AMAMSD  005500360039
BI00B32U5    DI2048         202211047283-9457-3W             CONNECTOR                CCN000001920000001920FN00000000020230101000001920NNM   20220914121333U5  4N0N  00000012000000515000001067032U5    AMAMSD  005600390023
BI00B32U5    DI2048         202211047327-6731-3W             BATTERY FUSE             CCN000001664000001664FN00000000020230101000001664NNM   20220914121333U5  4N0N  00000006400000697600000843032U5    AMAMSD  005400370024
BI00B32U5    #DI2048        202211047189-3032                HOUSING FEMALE           CCN000006400000006400FN00000000020230101000006400NNM   20220914121333U5  2F0F  00000160000000788400001018432U5    AMAMSD  005500360039
BI00B32U5    #DI2048        202211047158-3003-90             RUBBER STOPPER           CCN000140000000140000FN00000000020230101000140000NNM   20220914121333U5  2C0C  00002000000000250000000306032U5    AMAMSD  002700430014
BI00B32U5    #DI2048        202211047158-3004-40             RUBBER STOPPER           CCN000060000000060000FN00000000020230101000060000NNM   20220914121333U5  2C0C  00002000000000234000000306332U5    AMAMSD  002700430014
BI00B32U5    #DI2048        202211047158-3007-10             RUBBER STOPPER           CCN000180000000180000FN00000000020230101000180000NNM   20220914121333U5  2H0H  00002000000000308000000362732U5    AMAMSD  002700430014
BI00B32U5    #DI2048        202211047158-3008-80             RUBBER STOPPER           CCN000060000000060000FN00000000020230101000060000NNM   20220914121333U5  2C0C  00002000000000288000000343032U5    AMAMSD  004300270014
BI00B32U5    #DI2048        202211047158-3015-10             RUBBER STOPPER           CCN000020000000020000FN00000000020230101000020000NNM   20220914121333U5  2C0C  00001000000000419500000474032U5    AMAMSD  002700430014
BI00B32U5    #DI2048        202211047158-3376-50             CONNECTOR WIRE SEAL      CCN000100000000100000FN00000000020230101000100000NNM   20220914121333U5  2C0C  00002000000000184000000240732U5    AMAMSD  002700430014
BI00B32U5    #DI2048        202211047172-5626-90             RUBBER STOPPER           CCN000280000000280000FN00000000020230101000280000NNM   20220914121333U5  2H0H  00002000000000076400000127832U5    AMAMSD  004300270014
BI00B32U5    #DI2048        202211047172-5627-60             RUBBER STOPPER           CCN000180000000180000FN00000000020230101000180000NNM   20220914121333U5  2H0H  00002000000000070400000121832U5    AMAMSD  004300270014
BI00B32U5    #DI2048        202211047172-5628-80             DUMMY PLUG               CCN000100000000100000FN00000000020230101000100000NNM   20220914121333U5  2H0H  00002000000000110600000162032U5    AMAMSD  004300270014
BI00B32U5    #DI2048        202211047172-5629-80             RUBBER STOPPER           CCN000120000000120000FN00000000020230101000120000NNM   20220914121333U5  2H0H  00002000000000060000000111132U5    AMAMSD  004300270014
BI00B32U5    #DI2048        202211047172-5630-40             RUBBER STOPPER           CCN000380000000380000FN00000000020230101000380000NNM   20220914121333U5  2H0H  00002000000000044000000095132U5    AMAMSD  004300270014
BI00B32U5    #DI2048        202211047172-5631-60             RUBBER STOPPER           CCN000200000000200000FN00000000020230101000200000NNM   20220914121333U5  2H0H  00002000000000042000000093132U5    AMAMSD  004300270014
BI00B32U5    #DI2048        202211047172-5632-10             DUMMY PLUG               CCN000180000000180000FN00000000020230101000180000NNM   20220914121333U5  2H0H  00002000000000080400000131832U5    AMAMSD  004300270014
BI00B32U5    #DI2048        202211047282-6446-40             CONNECTOR                CCN000003000000003000FN00000000020230101000003000NNM   20220914121333U5  2N0N  00000150000001185000001368032U5    AMAMSD  005500360039
BI00B32U5    #DI2048        202211047287-1915-40             CONNECTOR ASS'Y          CCN000004800000004800FN00000000020230101000004800NNM   20220914121333U5  2N0N  00000240000000666500000923132U5    AMAMSD  005500360039
BI00B32U5    #DI2048        202211047289-4200-30             HOUSING FEMALE ASS'Y     CCN000018000000018000FN00000000020230101000018000NNM   20220914121333U5  2N0N  00000200000000926000001021032U5    AMAMSD  005400370024
BI00B32U9    TPA245         202210277298-1186-70             SQUIB SUB ASS'Y          CCN000010000000010000FN00000000020221201000010000NNMD0620220914121333U9  4N0N  00001000000000650000000774532U9    YNYNA-E 005400370024
BI00B32W4    4500197937     202209227114-4110-02             TERMINAL                 CCN000015000000015000FN00000000020221001000015000NNED0020220914160923W4464P0P  00001500000000901500001230132W446  HJYHK   006400630017
BI00B32W4    4500198392     202209227114-4110-02             TERMINAL                 CCN000045000000045000FN00000000020221001000045000NNED0020220914160100W4464P0P  00001500000000901500001230132W446  HJYHK   006400630017
BI00B32W4    4500200206     202210207289-6868-30             SEALED ASSY FEMALE       CCN000007560000007560FN00000000020221001000007560NNED0420220914121333W4D44N0N  00000252000000839200001119232W4D4  HJYHK-J 005500360039
BI00A32W4    4500200270     202211147116-4102-02             TERMINAL                 CCN000012000000012000FN00000000020221101000012000NNE   20220914121333W4L74P0P  00001200000000553200000841432W4L7  HJYHK-J 006400630015
BI00B32W4    4500200304     202211107116-1230                TERMINAL                 CCN000013500000013500FN00000000020221101000013500NNE   20220914121333W48 4P0P  00001350000000664200000952432W48   HJYHK   006400630015
BI00B32W4    4500200304     202211107116-4025                TERMINAL                 CCN000016000000016000FN00000000020221101000016000NNE   20220914121333W48 4P0P  00001600000000644800000975132W48   HJYHK   006400630017
BI00B32W4    4500200304     202211107116-4121-02             TERMINAL                 CCN000018000000018000FN00000000020221101000018000NNE   20220914121333W48 4P0P  00000450000000618800000912432W48   HJYHK   006400630015
BI00B32W4    4500200304     202211107158-3165-90             WIRE SEAL                CCN000040000000040000FN00000000020221101000040000NNE   20220914121333W48 1C0C  00004000000000124000000172432W48   HJYHK   004300270014
BI00B32W4    4500200304     202211107158-3166-60             WIRE SEAL                CCN000040000000040000FN00000000020221101000040000NNE   20220914121333W48 1C0C  00004000000000104000000152432W48   HJYHK   002700430014
BI00B32W4    #4500200304    202211107123-6423-30             CONNECTOR                CCN000004000000004000FN00000000020221101000004000NNE   20220914121333W48 2F0F  00000200000001002000001167632W48   HJYHK   005600390023
BI00B32W4    @4500200304    202211107123-4312-80             HOUSING                  CCN000003200000003200FN00000000020221101000003200NNE   20220914121333W48 3F0F  00000080000000644200000794032W48   HJYHK   005500360039
BI00B32W4    4500200305     202211037158-3006-90             RUBBER STOPPER           CCN000020000000020000FN00000000020221101000020000NNE   20220914121333W48 1C0C  00002000000000330600000386032W48   HJYHK   002700430014
BI00B32W4    4500200305     202211037116-4025                TERMINAL                 CCN000016000000016000FN00000000020221101000016000NNE   20220914121333W48 4P0P  00001600000000644800000975132W48   HJYHK   006400630017
BI00B32W4    4500200305     202211037116-4121-02             TERMINAL                 CCN000009000000009000FN00000000020221101000009000NNE   20220914121333W48 4P0P  00000450000000618800000912432W48   HJYHK   006400630015
BI00B32W4    4500200305     202211037158-3166-60             WIRE SEAL                CCN000040000000040000FN00000000020221101000040000NNE   20220914121333W48 1C0C  00004000000000104000000152432W48   HJYHK   002700430014
BI00B32W4    4500200305     202211037289-7615-30             HOUSING FEMALE ASS'Y     CCN000002880000002880FN00000000020221101000002880NNE   20220914121333W48 4N0N  00000032000000738000000948032W48   HJYHK   005400370024
BI00B32W4    4500200305     202211037222-6244-40             CONNECTOR                CCN000002400000002400FN00000000020221101000002400NNE   20220914121333W48 4N0N  00000080000001239200001422032W48   HJYHK   005600390040
BI00B32W4    4500200305     202211037116-5044-02             TERMINAL                 CCN000016000000016000FN00000000020221101000016000NNE   20220914121333W48 4P0P  00001600000000641600000986332W48   HJYHK   006400630017
BI00B32W4    4500200305     202211037172-1372-10             FRONT HOLDER             CCN000003900000003900FN00000000020221101000003900NNE   20220914121333W48 4F0F  00000390000000655200000955232W48   HJYHK   005500360039
BI00B32W4    #4500200305    202211037183-2418                CONNECTOR HOUSING        CCN000004800000004800FN00000000020221101000004800NNE   20220914121333W48 2F0F  00000480000000917000001477032W48   HJYHK   005500360039
BI00B32W4    4500200306     202210277289-7615-30             HOUSING FEMALE ASS'Y     CCN000001600000001600FN00000000020221001000001600NNE   20220914121333W48 4N0N  00000032000000738000000948032W48   HJYHK   005400370024
BI00B32W4    4500200306     202210277116-4122-02             TERMINAL                 CCN000004500000004500FN00000000020221001000004500NNE   20220914121333W48 4P0P  00000450000000656600000950232W48   HJYHK   006400630015
BI00B32W4    #4500200306    202210277157-3952-80             RUBBER STOPPER           CCN000010000000010000FN00000000020221001000010000NNE   20220914121333W48 2C0C  00001000000000117000000175032W48   HJYHK   002700430014
BI00B32W4    #4500200307    202210067158-3003-90             RUBBER STOPPER           CCN000040000000040000FN00000000020221001000040000NNE   20220914121333W48 2C0C  00002000000000250000000306032W48   HJYHK   002700430014
BI00B32W4    #4500200308    202210067158-3003-90             RUBBER STOPPER           CCN000020000000020000FN00000000020221001000020000NNE   20220914121333W48 2C0C  00002000000000250000000306032W48   HJYHK   002700430014
BI00B32W4    4500200309     202209297116-4103-02             TERMINAL                 CCN000012000000012000FN00000000020220901000012000NNE   20220914121333W48 4P0P  00001200000000571200000859432W48   HJYHK   006400630015
BI00A32W4    4500200317     202211107126-8854-02             TERMINAL                 CCN000007500000007500FN00000000020221101000007500NNE   20220914121333W4804P0P  00000750000000604500000889732W480  HJYHK-J 006400630015
BI00A32W4    #4500200317    202211107283-8398-40             CONNECTOR                CCN000001540000001540FN00000000020221101000001540NNE   20220914121333W4802N0N  00000154000001007000001171332W480  HJYHK-J 005600390023
BI00A32W4    4500200319     202211037116-4103-02             TERMINAL                 CCN000012000000012000FN00000000020221101000012000NNE   20220914121333W4804P0P  00001200000000571200000859432W480  HJYHK-J 006400630015
BI00A32W4    4500200319     202211037116-4121-02             TERMINAL                 CCN000027000000027000FN00000000020221101000027000NNE   20220914121333W4804P0P  00000450000000618800000912432W480  HJYHK-J 006400630015
BI00A32W4    4500200321     202210277283-5548-30             CONNECTOR                CCN000001500000001500FN00000000020221001000001500NNE   20220914121333W4804N0N  00000150000001109000001302032W480  HJYHK-J 005600390040
BI00A32W4    #4500200321    202210277047-5344                RETAINER                 CCN000010000000010000FN00000000020221001000010000NNE   20220914121333W4802F0F  00001000000000870000001016032W480  HJYHK-J 005600390023
BI00A32W4    4500200324     202210127126-8855-02             TERMINAL                 CCN000006000000006000FN00000000020221001000006000NNE   20220914121333W4804P0P  00000600000000510600000795832W480  HJYHK-J 006400630015
BI00A32W4    4500200325     202211147283-6568-40             CONNECTOR                CCN000002000000002000FN00000000020221101000002000NNE   20220914121333W4194N0N  00000200000001090000001263032W419  HJYHK   005500360039
BI00B32W4    4500200331     202211037116-4100-02             TERMINAL                 CCN000015000000015000FN00000000020221101000015000NNE   20220914121333W4L64P0P  00001500000000696000000990232W4L6  HJYHK-K 006400630015
BI00B32W4    4500200332     202211177283-1156                CONNECTOR                CCN000000800000000800FN00000000020221101000000800NNE   20220914121333W4L64N0N  00000080000000877600001078032W4L6  HJYHK-K 005600390040
BI00A32W4    4500200342     202211147158-3167-80             WIRE SEAL                CCN000040000000040000FN00000000020221101000040000NNE   20220914121333W4G91C0C  00002000000000048000000109032W4G9  HJYHK-J 002700430014
BI00A32W4    4500200342     202211147158-3169-40             SEALING PLUG             CCN000040000000040000FN00000000020221101000040000NNE   20220914121333W4G91C0C  00004000000000156000000204132W4G9  HJYHK-J 004300260014
BI00A32W4    #4500200342    202211147157-3992-90             CONNECTOR SEALED         CCN000040000000040000FN00000000020221101000040000NNE   20220914121333W4G92C0C  00004000000000300000000363332W4G9  HJYHK-J 002700430014
BI00A32W4    4500200343     202211147158-3167-80             WIRE SEAL                CCN000040000000040000FN00000000020221101000040000NNE   20220914121333W4P61C0C  00002000000000048000000109032W4P6  HJYHK-J 002700430014
BI00B32W4    4500200352     202210067116-2893-02             TERMINAL                 CCN000036000000036000FN00000000020221001000036000NNE   20220914121333W4N64P0P  00001200000000895200001058632W4N6  HJYHK-J 005100280028
BI00B32W4    4500200352     202210067126-8853-02             TERMINAL                 CCN000037500000037500FN00000000020221001000037500NNE   20220914121333W4N64P0P  00000750000000562500000847732W4N6  HJYHK-J 006400630015
BI00B32W4    4500200353     202212087158-3167-80             WIRE SEAL                CCN000280000000280000FN00000000020221201000280000NNE   20220914121333W4N61C0C  00002000000000048000000109032W4N6  HJYHK-J 002700430014
BI00B32W4    4500200354     202212087289-9553-50             SEALED ASSY FEMALE       CCN000017640000017640FN00000000020221201000017640NNE   20220914121333W4N64N0N  00000294000001108100001520632W4N6  HJYHK-J 005500360039
BI00B32W4    4500200354     202212087126-8853-02             TERMINAL                 CCN000135000000135000FN00000000020221201000135000NNE   20220914121333W4N64P0P  00000750000000562500000847732W4N6  HJYHK-J 006400630015
BI00B32W4    #4500200354    202212087174-1760-50             CAP                      CCN000018000000018000FN00000000020221201000018000NNE   20220914121333W4N62F0F  00000300000000813600000922632W4N6  HJYHK-J 005400370024
BI00B32W4    4500200357     202212017158-3167-80             WIRE SEAL                CCN000660000000660000FN00000000020221201000660000NNE   20220914121333W4N61C0C  00002000000000048000000109032W4N6  HJYHK-J 002700430014
BI00B32W4    4500200359     202212017158-3167-80             WIRE SEAL                CCN000320000000320000FN00000000020221201000320000NNE   20220914121333W4N61C0C  00002000000000048000000109032W4N6  HJYHK-J 002700430014
BI00B32W4    4500200359     202212017289-9553-30             SEALED ASSY FEMALE       CCN000002940000002940FN00000000020221201000002940NNE   20220914121333W4N64N0N  00000294000001109000001521532W4N6  HJYHK-J 005500360039
BI00B32W4    4500200359     202212017289-9553-50             SEALED ASSY FEMALE       CCN000023520000023520FN00000000020221201000023520NNE   20220914121333W4N64N0N  00000294000001108100001520632W4N6  HJYHK-J 005500360039
BI00B32W4    4500200359     202212017116-2893-02             TERMINAL                 CCN000132000000132000FN00000000020221201000132000NNE   20220914121333W4N64P0P  00001200000000895200001058632W4N6  HJYHK-J 005100280028
BI00B32W4    4500200359     202212017126-8853-02             TERMINAL                 CCN000420000000420000FN00000000020221201000420000NNE   20220914121333W4N64P0P  00000750000000562500000847732W4N6  HJYHK-J 006400630015
BI00B32W4    #4500200359    202212017174-1760-50             CAP                      CCN000027000000027000FN00000000020221201000027000NNE   20220914121333W4N62F0F  00000300000000813600000922632W4N6  HJYHK-J 005400370024
BI00A32W4    4500200363     202211147283-1030                CONNECTOR                CCN000006000000006000FN00000000020221101000006000NNE   20220914121333W4M54N0N  00000600000000988000001172032W4M5  HJYHK-J 005500360039
BI00A32W4    4500200364     202211217116-4112-02             TERMINAL                 CCN000030000000030000FN00000000020221101000030000NNE   20220914121333W4M54P0P  00000600000000450000000738232W4M5  HJYHK-J 006400630015
BI00B32W4    #4500200366    202210067282-1030                CONNECTOR MALE ASS'Y     CCN000004000000004000FN00000000020221001000004000NNE   20220914121333W4592N0N  00000100000000365000000487532W459  HJYHK   005400370024
BI00B32W4    4500200382     202209297289-4696-30             HOUSING FEMALE ASS'Y     CCN000008000000008000FN00000000020220901000008000NNE   20220914121333W4284N0N  00000200000000913400001055432W428  HJYHK   005400370024
BI00B32W4    4500200383     202210277289-4696-30             HOUSING FEMALE ASS'Y     CCN000034000000034000FN00000000020221001000034000NNE   20220914121333W4284N0N  00000200000000913400001055432W428  HJYHK   005400370024
BI00B32W4    4500200384     202211177289-4696-30             HOUSING FEMALE ASS'Y     CCN000004000000004000FN00000000020221101000004000NNE   20220914121333W4284N0N  00000200000000913400001055432W428  HJYHK   005400370024
BI00B32W4    4500200386     202211107298-2278-30             HOUSING FEMALE ASS'Y     CCN000043200000043200FN00000000020221101000043200NNE   20220914121333W4284N0N  00000240000001091700001295432W428  HJYHK   005500360039
BI00B32W4    4500200386     202211107298-1865-30             HOUSING FEMALE ASS'Y     CCN000048000000048000FN00000000020221101000048000NNE   20220914121333W4284N0N  00000240000001003200001204532W428  HJYHK   005500360039
BI00B32W4    4500200394     202211177116-4100-02             TERMINAL                 CCN000165000000165000FN00000000020221101000165000NNE   20220914121333W4164P0P  00001500000000696000000990232W416  HJYHK   006400630015
BI00B32W4    4500200394     202211177116-4121-02             TERMINAL                 CCN000013500000013500FN00000000020221101000013500NNE   20220914121333W4164P0P  00000450000000618800000912432W416  HJYHK   006400630015
BI00B32W4    4500200394     202211177116-4112-02             TERMINAL                 CCN000048000000048000FN00000000020221101000048000NNE   20220914121333W4164P0P  00000600000000450000000738232W416  HJYHK   006400630015
BI00B32W4    4500200394     202211177116-4102-02             TERMINAL                 CCN000024000000024000FN00000000020221101000024000NNE   20220914121333W4164P0P  00001200000000553200000841432W416  HJYHK   006400630015
BI00B32W4    4500200394     202211177116-4025                TERMINAL                 CCN000016000000016000FN00000000020221101000016000NNE   20220914121333W4164P0P  00001600000000644800000975132W416  HJYHK   006400630017
BI00B32W4    4500200394     202211177283-7028-30             CONNECTOR                CCN000003000000003000FN00000000020221101000003000NNE   20220914121333W4164N0N  00000300000001452000001681332W416  HJYHK   005600390040
BI00B32W4    4500200394     202211177114-4100-02             TERMINAL                 CCN000054000000054000FN00000000020221101000054000NNE   20220914121333W4164P0P  00001800000000748800001077432W416  HJYHK   006400630017
BI00B32W4    4500200394     202211177116-4026                TERMINAL                 CCN000016000000016000FN00000000020221101000016000NNE   20220914121333W4164P0P  00001600000000664000000994332W416  HJYHK   006400630017
BI00B32W4    4500200394     202211177158-3166-60             WIRE SEAL                CCN000080000000080000FN00000000020221101000080000NNE   20220914121333W4161C0C  00004000000000104000000152432W416  HJYHK   002700430014
BI00B32W4    4500200394     202211177158-3169-40             SEALING PLUG             CCN000080000000080000FN00000000020221101000080000NNE   20220914121333W4161C0C  00004000000000156000000204132W416  HJYHK   004300260014
BI00B32W4    4500200394     202211177116-4101-02             TERMINAL                 CCN000048000000048000FN00000000020221101000048000NNE   20220914121333W4164P0P  00001200000000582000000876232W416  HJYHK   006400630015
BI00B32W4    4500200394     202211177116-4120-02             TERMINAL                 CCN000006000000006000FN00000000020221101000006000NNE   20220914121333W4164P0P  00000600000000780000001073632W416  HJYHK   006400630015
BI00B32W4    4500200394     202211177114-4101-02             TERMINAL                 CCN000015000000015000FN00000000020221101000015000NNE   20220914121333W4164P0P  00001500000000675000001003632W416  HJYHK   006400630017
BI00B32W4    4500200394     202211177116-4104-02             TERMINAL                 CCN000036000000036000FN00000000020221101000036000NNE   20220914121333W4164P0P  00001200000000580800000972432W416  HJYHK   006400630015
BI00B32W4    4500200394     202211177114-4110-02             TERMINAL                 CCN000015000000015000FN00000000020221101000015000NNE   20220914121333W4164P0P  00001500000000901500001230132W416  HJYHK   006400630017
BI00B32W4    4500200394     202211177116-4110-02             TERMINAL                 CCN000009000000009000FN00000000020221101000009000NNE   20220914121333W4164P0P  00000900000000594000000882232W416  HJYHK   006400630015
BI00B32W4    4500200394     202211177116-4103-02             TERMINAL                 CCN000024000000024000FN00000000020221101000024000NNE   20220914121333W4164P0P  00001200000000571200000859432W416  HJYHK   006400630015
BI00B32W4    4500200394     202211177283-1020                CONNECTOR                CCN000012000000012000FN00000000020221101000012000NNE   20220914121333W4164N0N  00000600000000840000001049332W416  HJYHK   005600390040
BI00B32W4    4500200394     202211177283-1024                CONNECTOR SUB ASSY       CCN000006000000006000FN00000000020221101000006000NNE   20220914121333W4164N0N  00000200000000400000000522532W416  HJYHK   005400370024
BI00B32W4    4500200394     202211177282-1024                HOUSING MALE             CCN000005000000005000FN00000000020221101000005000NNE   20220914121333W4161N0N  00000100000000458000000580532W416  HJYHK   005400370024
BI00B32W4    4500200394     202211177283-1030                CONNECTOR                CCN000006000000006000FN00000000020221101000006000NNE   20220914121333W4164N0N  00000600000000988000001172032W416  HJYHK   005500360039
BI00B32W4    4500200394     202211177288-6547                CONNECTOR MALE ASS'Y     CCN000009750000009750FN00000000020221101000009750NNE   20220914121333W4164N0N  00000075000001205300001340332W416  HJYHK   005400370024
BI00B32W4    4500200394     202211177289-6547                HOUSING FEMALE ASS'Y     CCN000009600000009600FN00000000020221101000009600NNE   20220914121333W4161N0N  00000240000001152000001362032W416  HJYHK   005500360039
BI00B32W4    4500200394     202211177283-1156                CONNECTOR                CCN000007200000007200FN00000000020221101000007200NNE   20220914121333W4164N0N  00000080000000877600001078032W416  HJYHK   005600390040
BI00B32W4    #4500200394    202211177282-4190-30             CONNECTOR                CCN000001680000001680FN00000000020221101000001680NNE   20220914121333W4162N0N  00000024000000801000001071332W416  HJYHK   005600390040
BI00B32W4    #4500200394    202211177283-4190-30             CONNECTOR                CCN000001920000001920FN00000000020221101000001920NNE   20220914121333W4162N0N  00000024000000846000001115532W416  HJYHK   005600390040
BI00B32W4    #4500200394    202211177187-1616                HOUSING FEMALE           CCN000004000000004000FN00000000020221101000004000NNE   20220914121333W4162F0F  00000400000001152000001262032W416  HJYHK   005500360039
BI00B32W4    @4500200394    202211177183-8049                CONNECTOR HOUSING        CCN000004000000004000FN00000000020221101000004000NNE   20220914121333W4163F0F  00000400000000583600000740032W416  HJYHK   005400370024
BI00B32W4    @4500200394    202211177287-6634                HOUSING FEMALE ASS'Y     CCN000004800000004800FN00000000020221101000004800NNE   20220914121333W4163N0N  00000240000001088400001337032W416  HJYHK   005500360039
BI00A32W4    4500200414     202211247158-3169-40             SEALING PLUG             CCN000080000000080000FN00000000020221101000080000NNE   20220914121333W4D31C0C  00004000000000156000000204132W4D3  HJYHK-J 004300260014
BI00T32W4    4500200422     202212067283-4577-30             CONNECTOR HOUSING        CCN000004800000004800FN00000000020221201000004800NNED0020220914121333W4K84N0N  00000480000000916800001136832W4K8  HJYHK-J 005500360039
BI00T32W4    4500200422     202212067158-3009-60             RUBBER STOPPER           CCN000060000000060000FN00000000020221201000060000NNED0020220914121333W4K81C0C  00002000000000338000000386232W4K8  HJYHK-J 002700430014
BI00T32W4    4500200422     202212067172-5540-80             SEALED WIRE SEAL         CCN000020000000020000FN00000000020221201000020000NNED0020220914121333W4K81C0C  00002000000000186000000234432W4K8  HJYHK-J 004300270014
BI00T32W4    4500200422     202212067114-4728-02             TERMINAL                 CCN000090000000090000FN00000000020221201000090000NNED0020220914121333W4K84P0P  00003000000000510000000804232W4K8  HJYHK-J 006400630015
BI00T32W4    4500200422     202212067283-5846                HOUSING                  CCN000007500000007500FN00000000020221201000007500NNED0020220914121333W4K81N0N  00000150000000885000001102032W4K8  HJYHK-J 005600390040
BI00T32W4    4500200422     202212067286-1915                CONNECTOR SUB ASSY       CCN000008000000008000FN00000000020221201000008000NNED0020220914121333W4K84N0N  00000160000000965600001165632W4K8  HJYHK-J 005500360039
BI00T32W4    4500200422     202212067B96-0805-02             TERMINAL FEMALE          CCN000022500000022500FN00000000020221201000022500NNED0020220914121333W4K84P0P  00002250000000558000000843232W4K8  HJYHK-J 006400630015
BI00T32W4    4500200422     202212067114-5753-02             TERMINAL                 CCN000081000000081000FN00000000020221201000081000NNED0020220914121333W4K84P0P  00002700000000847800001141432W4K8  HJYHK-J 006400630015
BI00T32W4    4500200422     202212067116-5750-02             TERMINAL                 CCN000270000000270000FN00000000020221201000270000NNED0020220914121333W4K84P0P  00001500000000457500000742732W4K8  HJYHK-J 006400630015
BI00T32W4    4500200422     202212067116-5041-02             TERMINAL                 CCN000360000000360000FN00000000020221201000360000NNED0020220914121333W4K84P0P  00001500000000583500000868732W4K8  HJYHK-J 006400630015
BI00T32W4    4500200422     202212067116-5044-02             TERMINAL                 CCN000048000000048000FN00000000020221201000048000NNED0020220914121333W4K84P0P  00001600000000641600000986332W4K8  HJYHK-J 006400630017
BI00T32W4    4500200422     202212067116-4231-02             TERMINAL                 CCN000052000000052000FN00000000020221201000052000NNED0020220914121333W4K84P0P  00002600000000683800001012532W4K8  HJYHK-J 006400630017
BI00T32W4    4500200422     202212067114-4624-02             TERMINAL                 CCN000048000000048000FN00000000020221201000048000NNED0020220914121333W4K84P0P  00002400000000895200001188832W4K8  HJYHK-J 006400630015
BI00T32W4    4500200422     202212067158-3006-90             RUBBER STOPPER           CCN000020000000020000FN00000000020221201000020000NNED0020220914121333W4K81C0C  00002000000000330600000386032W4K8  HJYHK-J 002700430014
BI00T32W4    4500200422     202212067286-4097                CONNECTOR MALE ASS'Y     CCN000014400000014400FN00000000020221201000014400NNED0020220914121333W4K81N0N  00000160000000768000000978032W4K8  HJYHK-J 005500360039
BI00T32W4    4500200422     202212067287-1917                CONNECTOR FEMALE         CCN000012000000012000FN00000000020221201000012000NNED0020220914121333W4K84N0N  00000240000001060800001312532W4K8  HJYHK-J 005500360039
BI00T32W4    4500200422     202212067116-5752-02             TERMINAL                 CCN000042000000042000FN00000000020221201000042000NNED0020220914121333W4K84P0P  00002100000000571200000856432W4K8  HJYHK-J 006400630015
BI00T32W4    4500200422     202212067116-5045-02             TERMINAL                 CCN000096000000096000FN00000000020221201000096000NNED0020220914121333W4K84P0P  00001600000000678400001007132W4K8  HJYHK-J 006400630017
BI00T32W4    4500200422     202212067282-1014                CONNECTOR                CCN000012000000012000FN00000000020221201000012000NNED0020220914121333W4K84N0N  00000600000001200000001377932W4K8  HJYHK-J 005500360039
BI00T32W4    4500200422     202212067282-4855                HOUSING MALE ASS'Y       CCN000001200000001200FN00000000020221201000001200NNED0020220914121333W4K84N0N  00000120000001063200001283232W4K8  HJYHK-J 005500360039
BI00T32W4    4500200422     202212067283-4576-30             HOUSING FEMALE ASS'Y     CCN000004800000004800FN00000000020221201000004800NNED0020220914121333W4K84N0N  00000480000000651300000871332W4K8  HJYHK-J 005500360039
BI00T32W4    4500200422     202212067116-4486-02             TERMINAL                 CCN000028000000028000FN00000000020221201000028000NNED0020220914121333W4K84P0P  00002800000000666400000995132W4K8  HJYHK-J 006400630017
BI00T32W4    #4500200422    202212067182-2410                CONNECTOR HOUSING        CCN000001200000001200FN00000000020221201000001200NNED0020220914121333W4K82F0F  00000120000000959800001245632W4K8  HJYHK-J 005500360039
BI00T32W4    #4500200422    202212067147-3642-30             CLIP                     CCN000009000000009000FN00000000020221201000009000NNED0020220914121333W4K82F0F  00000300000000542000000721332W4K8  HJYHK-J 005600390040
BI00T32W4    #4500200422    202212067035-5731                GROMMET                  CCN000004500000004500FN00000000020221201000004500NNED0020220914121333W4K82H0H  00000050000000808000000918032W4K8  HJYHK-J 005600390040
BI00T32W4    #4500200422    202212067158-3007-10             RUBBER STOPPER           CCN000020000000020000FN00000000020221201000020000NNED0020220914121333W4K82H0H  00002000000000308000000362732W4K8  HJYHK-J 002700430014
BI00T32W4    #4500200422    202212067183-2414                CONNECTOR HOUSING        CCN000033600000033600FN00000000020221201000033600NNED0020220914121333W4K82F0F  00000480000000779200001061032W4K8  HJYHK-J 005500360039
BI00T32W4    #4500200422    202212067158-3004-40             RUBBER STOPPER           CCN000060000000060000FN00000000020221201000060000NNED0020220914121333W4K82C0C  00002000000000234000000306332W4K8  HJYHK-J 002700430014
BI00T32W4    #4500200422    202212067158-3003-90             RUBBER STOPPER           CCN000020000000020000FN00000000020221201000020000NNED0020220914121333W4K82C0C  00002000000000250000000306032W4K8  HJYHK-J 002700430014
BI00T32W4    #4500200422    202212067282-1030                CONNECTOR MALE ASS'Y     CCN000001000000001000FN00000000020221201000001000NNED0020220914121333W4K82N0N  00000100000000365000000487532W4K8  HJYHK-J 005400370024
BI00T32W4    @4500200422    202212067282-1060                HOUSING SUB ASSEMBLY     CCN000003200000003200FN00000000020221201000003200NNED0020220914121333W4K83N0N  00000160000000955500001169032W4K8  HJYHK-J 005500360039
BI00T32W4    @4500200422    202212067123-2825                HOUSING                  CCN000030000000030000FN00000000020221201000030000NNED0020220914121333W4K83F0F  00000600000000958800001136432W4K8  HJYHK-J 005500360039
BI00T32W4    @4500200422    202212067183-2510                HOUSING                  CCN000021000000021000FN00000000020221201000021000NNED0020220914121333W4K83F0F  00000300000001063500001159032W4K8  HJYHK-J 005400370024
BI00B32W4    4500200423     202212017116-1685                TERMINAL                 CCN000024000000024000FN00000000020221201000024000NNE   20220914121333W4244P0P  00002400000000892800001067232W424  HJYHK   005100280028
BI00B32W4    4500200423     202212017116-1686                TERMINAL                 CCN000021000000021000FN00000000020221201000021000NNE   20220914121333W4244P0P  00002100000000861000001045632W424  HJYHK   005100280028
BI00B32W4    4500200385     202210207116-2951-02             TERMINAL                 CCN000005400000005400FN00000000020221001000005400NNE   20220914121333W4284P0P  00000540000000817600001111832W428  HJYHK   006400630015
BI00B32W4    #4500200385    202210207158-3374-90             CONNECTOR WIRE SEAL      CCN000020000000020000FN00000000020221001000020000NNE   20220914121333W4282H0H  00002000000000172000000229332W428  HJYHK   002700430014
BI00B32W9    4500200051     202301107289-6868-30             SEALED ASSY FEMALE       CCN000378000000063000FN00000000020221001000063000NNED0420220914121333W9  4N0N  00000252000000839200001119232W9    HKYHK   005500360039
BI00B32W9    4500200350     202211087298-1145-4W             SQUIB SUB ASS'Y          CCN000070000000070000FN00000000020221101000070000NNE   20220914121333W9  4N0N  00001000000000787900000944932W9    HKYHK   005400370024
BI00B32W9    4500200350     202211087174-1849-70             COVER                    CCN000050000000050000FN00000000020221101000050000NNE   20220914121333W9  1F0F  00002500000000622500000761932W9    HKYHK   005400370024
BI00B32W9    #4500200372    202211017147-8931-30             CLIP                     CCN000004500000004500FN00000000020221101000004500NNE   20220914121333W9  2F0F  00000450000000387000000531732W9    HKYHK   005600390023
BI00B32W9    4500200376     202209277116-4100-02             TERMINAL                 CCN000060000000060000FN00000000020220901000060000NNE   20220914121333W9  4P0P  00001500000000696000000990232W9    HKYHK   006400630015
BI00B32W9    4500200380     202210117298-4094-10             HOUSING FEMALE ASS'Y     CCN000006760000006760FN00000000020221001000006760NNE   20220914121333W9  4N0N  00000338000001097400001358732W9    HKYHK   005400370024
BI00B32W9    4500200380     202210117116-4100-02             TERMINAL                 CCN000030000000030000FN00000000020221001000030000NNE   20220914121333W9  4P0P  00001500000000696000000990232W9    HKYHK   006400630015
BI00B32W9    4500200406     202210187298-4094-10             HOUSING FEMALE ASS'Y     CCN000006760000006760FN00000000020221001000006760NNE   20220914121333W9  4N0N  00000338000001097400001358732W9    HKYHK   005400370024
BI00B32W9    4500200410     202211087287-7975-4W             SQUIB SUB ASS'Y          CCN000020000000020000FN00000000020221101000020000NNE   20220914121333W9  4N0N  00001000000000837000001017032W9    HKYHK   005400370024
BI00B32W9    4500200410     202211087298-4094-10             HOUSING FEMALE ASS'Y     CCN000003380000003380FN00000000020221101000003380NNE   20220914121333W9  4N0N  00000338000001097400001358732W9    HKYHK   005400370024
BI00B32W9    4500200051     202301177289-6868-30             SEALED ASSY FEMALE       CCN000063000000063000FN00000000020221001000063000NNED0420220914121333W9  4N0N  00000252000000839200001119232W9    HKYHK   005500360039
BI00B32W9    4500200051     202301247289-6868-30             SEALED ASSY FEMALE       CCN000063000000063000FN00000000020221001000063000NNED0420220914121333W9  4N0N  00000252000000839200001119232W9    HKYHK   005500360039
BI00B32W9    4500200051     202301317289-6868-30             SEALED ASSY FEMALE       CCN000063000000063000FN00000000020221001000063000NNED0420220914121333W9  4N0N  00000252000000839200001119232W9    HKYHK   005500360039
BI00B32W9    4500200051     202302077289-6868-30             SEALED ASSY FEMALE       CCN000063000000063000FN00000000020221001000063000NNED0420220914121333W9  4N0N  00000252000000839200001119232W9    HKYHK   005500360039
BI00B32W9    4500200051     202302147289-6868-30             SEALED ASSY FEMALE       CCN000063000000063000FN00000000020221001000063000NNED0420220914121333W9  4N0N  00000252000000839200001119232W9    HKYHK   005500360039
BI00B32X5    TIB2048        202211047116-4037                TERMINAL                 CCN000036000000036000FN00000000020230101000036000NNM   20220914121333X5  4P0P  00000600000000600000000894232X5    EPYNA-E 006400630015
BI00B32X5    TIB2048        202211047297-3482                JOINT CONNECTOR          CCN000007200000007200FN00000000020230101000007200NNM   20220914121333X5  4N0N  00000080000000621000000730532X5    EPYNA-E 005400370024
BI00B32X5    TIB2048        202211047298-3484                HOUSING FEMALE ASS'Y     CCN000008400000010800FN00000000020230101000010800NNM   20220914121333X5  4N0N  00000270000000742500001028732X5    EPYNA-E 005400370024
BI00B32X5    TIB2048        202211047017-1180-02             TERMINAL                 CCN000288000000288000FN00000000020230101000288000NNM   20220914121333X5  4P0P  00007200000001065600001229032X5    EPYNA-E 005100280028
BI00B32X5    TIB2048        202211047017-1181-02             TERMINAL                 CCN000063000000063000FN00000000020230101000063000NNM   20220914121333X5  4P0P  00006300000001089900001266832X5    EPYNA-E 005100280028
BI00B32X5    TIB2048        202211047017-1183-02             TERMINAL                 CCN000027000000027000FN00000000020230101000027000NNM   20220914121333X5  4P0P  00002700000001139400001307432X5    EPYNA-E 005100280028
BI00B32X5    TIB2048        202211047114-4486-02             TERMINAL                 CCN000072000000072000FN00000000020230101000072000NNM   20220914121333X5  4P0P  00002400000000662400000956032X5    EPYNA-E 006400630015
BI00B32X5    TIB2048        202211047116-2951-02             TERMINAL                 CCN000010800000010800FN00000000020230101000010800NNM   20220914121333X5  4P0P  00000540000000817600001111832X5    EPYNA-E 006400630015
BI00B32X5    TIB2048        202211047116-4486-02             TERMINAL                 CCN000168000000168000FN00000000020230101000168000NNM   20220914121333X5  4P0P  00002800000000666400000995132X5    EPYNA-E 006400630017
BI00B32X5    TIB2048        202211047116-5045-02             TERMINAL                 CCN000240000000240000FN00000000020230101000240000NNM   20220914121333X5  4P0P  00001600000000678400001007132X5    EPYNA-E 006400630017
BI00B32X5    TIB2048        202211047137-3047-30             UNIT PACKING             CCN000009000000009000FN00000000020230101000009000NNM   20220914121333X5  1C0C  00000100000000170500000218932X5    EPYNA-E 002700430014
BI00B32X5    TIB2048        202211047158-3167-80             WIRE SEAL                CCN000060000000060000FN00000000020230101000060000NNM   20220914121333X5  1C0C  00002000000000048000000109032X5    EPYNA-E 002700430014
BI00B32X5    TIB2048        202211047172-5402-30             SEAL RUBBER              CCN000024000000024000FN00000000020230101000024000NNM   20220914121333X5  1C0C  00000800000000457600000506032X5    EPYNA-E 004300270014
BI00B32X5    TIB2048        202211047172-5403-30             SEALED PACKING           CCN000016000000016000FN00000000020230101000016000NNM   20220914121333X5  1C0C  00000400000000653600000701732X5    EPYNA-E 004300270014
BI00B32X5    TIB2048        202211047196-0396-02             TERMINAL                 CCN000015000000015000FN00000000020230101000015000NNM   20220914121333X5  4P0P  00001500000000949500001112932X5    EPYNA-E 002800510028
BI00B32X5    TIB2048        202211047282-5574-10             CONNECTOR                CCN000012800000012800FN00000000020230101000012800NNM   20220914121333X5  4N0N  00000080000001235000001423032X5    EPYNA-E 005600390040
BI00B32X5    TIB2048        202211047288-6598-70             HOUSING MALE ASS'Y       CCN000002880000002880FN00000000020230101000002880NNM   20220914121333X5  4N0N  00000144000001074200001429232X5    EPYNA-E 005500360039
BI00B32X5    TIB2048        202211047289-3342-30             HOUSING FEMALE ASS'Y     CCN000050400000050400FN00000000020230101000050400NNM   20220914121333X5  1N0N  00000240000000686400000901432X5    EPYNA-E 005500360039
BI00B32X5    TIB2048        202211047296-0784-02             TERMINAL ALUMINIUM       CCN000096000000096000FN00000000020230101000096000NNM   20220914121333X5  4P0P  00002400000000480000000765232X5    EPYNA-E 006400630015
BI00B32X5    TIB2048        202211047327-6872-30             MULTI FUSE               CCN000006048000006048FN00000000020230101000006048NNM   20220914121333X5  4N0N  00000028800000984500001150432X5    EPYNA-E 005400370024
BI00B32X5    TIB2048        202211047327-6878-30             MULTI FUSE               CCN000006048000006048FN00000000020230101000006048NNM   20220914121333X5  4N0N  00000028800000989700001155632X5    EPYNA-E 005400370024
BI00B32X5    TIB2048        202211047327-6882-30             MULTI FUSE               CCN000006048000006048FN00000000020230101000006048NNM   20220914121333X5  4N0N  00000028800001015900001181832X5    EPYNA-E 005400370024
BI00B32X5    TIB2048        202211047388-0313-30             CONNECTOR ASS'Y          CCN000019200000019200FN00000000020230101000019200NNM   20220914121333X5  4N0N  00000120000000995000001125032X5    EPYNA-E 005400370024
BI00B32X5    TIB2048        202211047327-6731-3W             BATTERY FUSE             CCN000003008000003008FN00000000020230101000003008NNM   20220914121333X5  4N0N  00000006400000697600000843032X5    EPYNA-E 005400370024
BI00B32X5    TIB2048        202211047C89-6868-30             SEALED ASSY FEMALE       CCN000012600000012600FN00000000020230101000012600NNM   20220914121333X5  4N0N  00000252000000839200001119232X5    EPYNA-E 005500360039
BI00B32X5    #TIB2048       202211047147-9094                RETAINER                 CCN000003000000003000FN00000000020230101000003000NNM   20220914121333X5  2F0F  00000300000000717000000872932X5    EPYNA-E 005500360039
BI00B32X5    #TIB2048       202211047158-3017                RUBBER STOPPER           CCN000010000000010000FN00000000020230101000010000NNM   20220914121333X5  2C0C  00001000000000375500000435032X5    EPYNA-E 002700430014
BI00B32X5    #TIB2048       202211047198-1372                HOUSING FEMALE           CCN000006000000006000FN00000000020230101000006000NNM   20220914121333X5  2F0F  00000200000000857200000982232X5    EPYNA-E 005400370024
BI00B32X5    #TIB2048       202211047198-2458                HOUSING FEMALE           CCN000007040000007040FN00000000020230101000007040NNM   20220914121333X5  2F0F  00000176000000869100001160532X5    EPYNA-E 005400370024
BI00B32X5    #TIB2048       202211047287-7859                HYBRID FEMALE ASS'Y      CCN000010800000010800FN00000000020230101000010800NNM   20220914121333X5  2N0N  00000120000000461600000671632X5    EPYNA-E 005500360039
BI00B32X5    #TIB2048       202211047154-3424-30             REAR HOLDER              CCN000009000000009000FN00000000020230101000009000NNM   20220914121333X5  2F0F  00000300000000975000001138632X5    EPYNA-E 005500360039
BI00B32X5    #TIB2048       202211047158-3003-90             RUBBER STOPPER           CCN000140000000140000FN00000000020230101000140000NNM   20220914121333X5  2C0C  00002000000000250000000306032X5    EPYNA-E 002700430014
BI00B32X5    #TIB2048       202211047158-3004-40             RUBBER STOPPER           CCN000140000000140000FN00000000020230101000140000NNM   20220914121333X5  2C0C  00002000000000234000000306332X5    EPYNA-E 002700430014
BI00B32X5    #TIB2048       202211047158-3005-80             RUBBER STOPPER           CCN000020000000020000FN00000000020230101000020000NNM   20220914121333X5  2H0H  00002000000000210000000268732X5    EPYNA-E 002700430014
BI00B32X5    #TIB2048       202211047158-3007-10             RUBBER STOPPER           CCN000160000000160000FN00000000020230101000160000NNM   20220914121333X5  2H0H  00002000000000308000000362732X5    EPYNA-E 002700430014
BI00B32X5    #TIB2048       202211047158-3015-10             RUBBER STOPPER           CCN000040000000040000FN00000000020230101000040000NNM   20220914121333X5  2C0C  00001000000000419500000474032X5    EPYNA-E 002700430014
BI00B32X5    #TIB2048       202211047158-3610-80             RUBBER STOPPER           CCN000003000000003000FN00000000020230101000003000NNM   20220914121333X5  2H0H  00000300000000396900000438932X5    EPYNA-E 004300270014
BI00B32X5    #TIB2048       202211047172-5627-60             RUBBER STOPPER           CCN000020000000020000FN00000000020230101000020000NNM   20220914121333X5  2H0H  00002000000000070400000121832X5    EPYNA-E 004300270014
BI00B32X5    #TIB2048       202211047172-5631-60             RUBBER STOPPER           CCN000020000000020000FN00000000020230101000020000NNM   20220914121333X5  2H0H  00002000000000042000000093132X5    EPYNA-E 004300270014
BI00B32X5    #TIB2048       202211047173-3225-10             LIF LEVER                CCN000001600000001600FN00000000020230101000001600NNM   20220914121333X5  2F0F  00000080000000592000000712032X5    EPYNA-E 005500360039
BI00B32X5    #TIB2048       202211047183-8251-40             HOUSING                  CCN000004800000004800FN00000000020230101000004800NNM   20220914121333X5  2F0F  00000240000000357600000640032X5    EPYNA-E 005500360039
BI00B32X5    #TIB2048       202211047189-2978-30             HOUSING FEMALE           CCN000013500000013500FN00000000020230101000013500NNM   20220914121333X5  2F0F  00000150000000966900001096932X5    EPYNA-E 005400370024
BI00B32X5    #TIB2048       202211047198-1371-60             HOUSING FEMALE           CCN000006000000006000FN00000000020230101000006000NNM   20220914121333X5  2F0F  00000200000000597800000721232X5    EPYNA-E 005400370024
BI00B32X5    #TIB2048       202211047198-1373-60             HOUSING FEMALE           CCN000006000000006000FN00000000020230101000006000NNM   20220914121333X5  2F0F  00000200000000819400000947432X5    EPYNA-E 005400370024
BI00B32X5    #TIB2048       202211047282-8395-40             CONNECTOR                CCN000005000000005000FN00000000020230101000005000NNM   20220914121333X5  2N0N  00000100000001009000001188032X5    EPYNA-E 005500360039
BI00B32X5    #TIB2048       202211047283-8397-40             CONNECTOR                CCN000003080000003080FN00000000020230101000003080NNM   20220914121333X5  2N0N  00000154000001007000001222732X5    EPYNA-E 005600390023
BI00B32X5    #TIB2048       202211047289-2913-30             HOUSING FEMALE ASS'Y     CCN000001500000001500FN00000000020230101000001500NNM   20220914121333X5  2N0N  00000150000000907500001034532X5    EPYNA-E 005400370024
BI00B32X5    #TIB2048       202211047289-2914-40             HOUSING FEMALE ASS'Y     CCN000001500000001500FN00000000020230101000001500NNM   20220914121333X5  2N0N  00000150000000904500001031532X5    EPYNA-E 005400370024
BI00B32X5    #TIB2048       202211047289-2915-30             HOUSING FEMALE ASS'Y     CCN000001500000001500FN00000000020230101000001500NNM   20220914121333X5  2N0N  00000150000000964500001091532X5    EPYNA-E 005400370024
BI00B32X5    #TIB2048       202211047298-2459-60             LIF FEMALE ASSEMBLY      CCN000006216000006216FN00000000020230101000006216NNM   20220914121333X5  2N0N  00000016800000534000000729632X5    EPYNA-E 005400370024
BI00B32Y2    #TAU1253       202210067189-3034-30             HOUSING FEMALE           CCN000001600000001600FN00000000020230201000001600NNE   20220914121333    2F0F  00000160000000972800001192832Y2    YUYUY   005500360039
