BI00B1200    O022J50406     202209227174-1849-70             COVER                    CCN000025000000025000FN00000000020221001000025000NNE   20220810122251    1F0F  0000250000000062250000076191200    YCYC    005400370024
BI00B1200    O022J50407     202209227298-1145-4W             SQUIB SUB ASS'Y          CCN000020000000020000FN00000000020221001000020000NNE   20220810122251    4N0N  0000100000000078790000094491200    YCYC    005400370024
BI00B1200    O022J50408     202209227158-3022-80             RUBBER STOPPER           CCN000005000000005000FN00000000020221001000005000NNE   20220810122251    1C0C  0000050000000046750000052401200    YCYC    002700430014
BI00B1200    #BY02998       202209157154-5597-30             CASSETTE R/B             CCN000004800000004800FN00000000020221001000004800NNE   20220810122251    2F0F  0000008000000073600000095201200    YCYC    005500360039
BI00A1200    ATG-220809-1   202208267195-0547-08             TERMINAL MALE            CCN000025500000025500FN00000000020220801000025500NNED0020220810130509    4P0P  0000255000000041820000070641200    YCYC    006400630015
BI00A1200    ATG-220809-1   202208267196-0550-08             TERMINAL ALUMINIUM       CCN000032000000032000FN00000000020220801000032000NNED0720220810130517    4P0P  0000320000000052160000085031200    YCYC    006400630017
BI00A1200    CE22-MN-0095   202208237327-6922-3W             BATTERY FUSE             CCN000000096000000096FN00000000020220801000000096NNE   20220810131909    4N0N  0000000960000110470000123551200    YCYC    005400370024
BI00A32AF    QA-22-C060     202208117287-3885-30             HYBRID FEMALE ASS'Y      PNY000000583000000583FN00000000020220801000000583NNED0020220810122251    1N0N  00000240000001029600001249632AF    HBYHVTB 005500360039
BI00B32B1    4502226810     202209237158-9150                SHIELD                   CCN000000192000000192FN00000000020221101000000192NNE   20220810122251B1  4F0F  00000019200000332000000652032B1    AXARNE-M005600390040
BI00A32CG    S220616        202208117283-9458-30             CONNECTOR                CCN000003800000002400FN00000000020220801000002400NNEM0020220810151946    4N0N  00000020000000792000000984332CG    ASASIACO005600390023
BI00A32CG    S220616        202208157283-9458-30             CONNECTOR                CCN000001400000001400FN00000000020220801000001400NNEM0020220810151955    4N0N  00000020000000792000000984332CG    ASASIACO005600390023
BI00B32CH    SJ22093DMW     202208257287-3885-30             HYBRID FEMALE ASS'Y      CCN000031200000031200FN00000000020220901000031200NNMD0320220810161950    1N0N  00000240000001029600001249632CH    SJSAMIJF005500360039
BI00B32CH    SJ22094DMW     202209017287-3885-30             HYBRID FEMALE ASS'Y      CCN000033600000033600FN00000000020220901000033600NNMD0320220810162009    1N0N  00000240000001029600001249632CH    SJSAMIJF005500360039
BI00B32DE    TCT2093        202208187116-2640                TERMINAL                 CCN000036000000036000FN00000000020220901000036000NNMD0020220810142740    4P0P  00001800000001018800001196632DE    TVYEV-TV005100280028
BI00B32DE    TCT2094        202208257116-2640                TERMINAL                 CCN000036000000036000FN00000000020220901000036000NNMD0020220810122251    4P0P  00001800000001018800001196632DE    TVYEV-TV005100280028
BI00B32DE    TCT2093        202208187116-4102-02             TERMINAL                 CCN000012000000012000FN00000000020220901000012000NNMD0020220810142740    4P0P  00001200000000553200000841432DE    TVYEV-TV006400630015
BI00B32DE    TCT2094        202208257116-4102-02             TERMINAL                 CCN000024000000024000FN00000000020220901000024000NNMD0020220810122251    4P0P  00001200000000553200000841432DE    TVYEV-TV006400630015
BI00B32DE    TCT2093        202208187116-4415-02             TERMINAL                 CCN000266000000266000FN00000000020220901000266000NNMD0020220810142740    4P0P  00003800000000596600000925732DE    TVYEV-TV006400630017
BI00B32DE    TCT2094        202208257116-4415-02             TERMINAL                 CCN000266000000266000FN00000000020220901000266000NNMD0020220810122251    4P0P  00003800000000596600000925732DE    TVYEV-TV006400630017
BI00B32DE    TCT2093        202208187158-3006-90             RUBBER STOPPER           CCN000600000000600000FN00000000020220901000600000NNMD0020220810142430    1C0C  00002000000000330600000386032DE    TVYEV-TV002700430014
BI00B32DE    TCT2094        202208257158-3006-90             RUBBER STOPPER           CCN000700000000700000FN00000000020220901000700000NNMD0020220810122251    1C0C  00002000000000330600000386032DE    TVYEV-TV002700430014
BI00B32DE    TCT2094        202208257283-1289-30             CONNECTOR HOUSING        CCN000001200000001200FN00000000020220901000001200NNMD0020220810122251    1N0N  00000060000000675600000820632DE    TVYEV-TV005400370024
BI00T32DE    @ICT209A       202209057183-3190                JOINT CONNECTOR          CCN000007200000007200FN00000000020220901000007200NNE   20220810133443    3F0F  00000360000000457600000667832DE    TVYEV-TV005500360039
BI00B32E1    NC2121         202209287017-1180-02             TERMINAL                 CCN000072000000072000FN00000000020221101000072000NNM   20220810122251    4P0P  00007200000001065600001229032E1    SPYSE   005100280028
BI00B32E1    NC2121         202209287017-1182-02             TERMINAL                 CCN000045000000045000FN00000000020221101000045000NNM   20220810122251    4P0P  00004500000001165500001318632E1    SPYSE   005100280028
BI00B32E1    NC2121         202209287017-1183-02             TERMINAL                 CCN000027000000027000FN00000000020221101000027000NNM   20220810122251    4P0P  00002700000001139400001307432E1    SPYSE   005100280028
BI00B32E1    NC2121         202209287116-1257-02             TERMINAL                 CCN000024000000024000FN00000000020221101000024000NNM   20220810122251    4P0P  00002400000000518400000847132E1    SPYSE   006400630017
BI00B32E1    NC2121         202209287116-1685-02             TERMINAL                 CCN000024000000024000FN00000000020221101000024000NNM   20220810122251    4P0P  00002400000000897600001065232E1    SPYSE   005100280028
BI00B32E1    NC2121         202209287116-4121-02             TERMINAL                 CCN000004500000004500FN00000000020221101000004500NNM   20220810122251    4P0P  00000450000000618800000912432E1    SPYSE   006400630015
BI00B32E1    NC2122         202210057116-4121-02             TERMINAL                 CCN000004500000004500FN00000000020221101000004500NNM   20220810122251    4P0P  00000450000000618800000912432E1    SPYSE   006400630015
BI00B32E1    NC2123         202210127116-4121-02             TERMINAL                 CCN000004500000004500FN00000000020221101000004500NNM   20220810122251    4P0P  00000450000000618800000912432E1    SPYSE   006400630015
BI00B32E1    NC2121         202209287116-4122-02             TERMINAL                 CCN000004500000004500FN00000000020221101000004500NNM   20220810122251    4P0P  00000450000000656600000950232E1    SPYSE   006400630015
BI00B32E1    NC2121         202209287116-4124-02             TERMINAL                 CCN000003000000003000FN00000000020221101000003000NNM   20220810122251    4P0P  00000300000000459900000753532E1    SPYSE   006400630015
BI00B32E1    NC2121         202209287116-5045-02             TERMINAL                 CCN000016000000016000FN00000000020221101000016000NNM   20220810122251    4P0P  00001600000000678400001007132E1    SPYSE   006400630017
BI00B32E1    NC2121         202209287154-3176                COVER                    CCN000000100000000100FN00000000020221101000000100NNM   20220810122251    1F0F  00000005000000426000000580332E1    SPYSE   005600390040
BI00B32E1    NC2122         202210057154-3176                COVER                    CCN000000100000000100FN00000000020221101000000100NNM   20220810122251    1F0F  00000005000000426000000580332E1    SPYSE   005600390040
BI00B32E1    NC2123         202210127154-3176                COVER                    CCN000000100000000100FN00000000020221101000000100NNM   20220810122251    1F0F  00000005000000426000000580332E1    SPYSE   005600390040
BI00B32E1    NC2124         202210197154-3176                COVER                    CCN000000100000000100FN00000000020221101000000100NNM   20220810122251    1F0F  00000005000000426000000580332E1    SPYSE   005600390040
BI00B32E1    NC2121         202209287158-3006-90             RUBBER STOPPER           CCN000020000000020000FN00000000020221101000020000NNM   20220810122251    1C0C  00002000000000330600000386032E1    SPYSE   002700430014
BI00B32E1    NC2123         202210127158-3006-90             RUBBER STOPPER           CCN000020000000020000FN00000000020221101000020000NNM   20220810122251    1C0C  00002000000000330600000386032E1    SPYSE   002700430014
BI00B32E1    NC2121         202209287254-1884-30             PRIMARY PDB BASE         CCN000000108000000108FN00000000020221101000000108NNM   20220810122251    4N0N  00000003600001160000001390732E1    SPYSE   005600390040
BI00B32E1    NC2122         202210057254-1884-30             PRIMARY PDB BASE         CCN000000108000000108FN00000000020221101000000108NNM   20220810122251    4N0N  00000003600001160000001390732E1    SPYSE   005600390040
BI00B32E1    NC2123         202210127254-1884-30             PRIMARY PDB BASE         CCN000000144000000144FN00000000020221101000000144NNM   20220810122251    4N0N  00000003600001160000001390732E1    SPYSE   005600390040
BI00B32E1    NC2124         202210197254-1884-30             PRIMARY PDB BASE         CCN000000072000000072FN00000000020221101000000072NNM   20220810122251    4N0N  00000003600001160000001390732E1    SPYSE   005600390040
BI00B32E1    NC2121         202209287282-6448-40             CONNECTOR                CCN000000800000000800FN00000000020221101000000800NNM   20220810122251    4N0N  00000080000000887000001152732E1    SPYSE   005600390040
BI00B32E1    NC2121         202209287283-5623-30             CONNECTOR                CCN000001600000001600FN00000000020221101000001600NNM   20220810122251    4N0N  00000160000001520000001804032E1    SPYSE   005600390040
BI00B32E1    NC2121         202209287288-3329-30             HOUSING MALE             CCN000001500000001500FN00000000020221101000001500NNM   20220810122251    4N0N  00000150000000866100001011132E1    SPYSE   005400370024
BI00B32E1    NC2122         202210057288-3329-30             HOUSING MALE             CCN000001500000001500FN00000000020221101000001500NNM   20220810122251    4N0N  00000150000000866100001011132E1    SPYSE   005400370024
BI00B32E1    NC2121         202209287289-3342-30             HOUSING FEMALE ASS'Y     CCN000004800000004800FN00000000020221101000004800NNM   20220810122251    1N0N  00000240000000686400000901432E1    SPYSE   005500360039
BI00B32E1    #NC2121        202209287154-3424-30             REAR HOLDER              CCN000003000000003000FN00000000020221101000003000NNM   20220810122251    2F0F  00000300000000975000001138632E1    SPYSE   005500360039
BI00B32E1    #NC2121        202209287154-5616-30             SECONDARY PDB BASE       CCN000000096000000096FN00000000020221101000000096NNM   20220810122251    2F0F  00000004800000806400001009132E1    SPYSE   005600390040
BI00B32E1    #NC2122        202210057154-5616-30             SECONDARY PDB BASE       CCN000000096000000096FN00000000020221101000000096NNM   20220810122251    2F0F  00000004800000806400001009132E1    SPYSE   005600390040
BI00B32E1    #NC2123        202210127154-5616-30             SECONDARY PDB BASE       CCN000000096000000096FN00000000020221101000000096NNM   20220810122251    2F0F  00000004800000806400001009132E1    SPYSE   005600390040
BI00B32E1    #NC2124        202210197154-5616-30             SECONDARY PDB BASE       CCN000000096000000096FN00000000020221101000000096NNM   20220810122251    2F0F  00000004800000806400001009132E1    SPYSE   005600390040
BI00B32E1    #NC2122        202210057157-3790-90             WIRE SEAL                CCN000020000000020000FN00000000020221101000020000NNM   20220810122251    2C0C  00002000000000176000000232732E1    SPYSE   002700430014
BI00B32E1    #NC2121        202209287158-3003-90             RUBBER STOPPER           CCN000020000000020000FN00000000020221101000020000NNM   20220810122251    2C0C  00002000000000250000000306032E1    SPYSE   002700430014
BI00B32E1    #NC2124        202210197158-3003-90             RUBBER STOPPER           CCN000020000000020000FN00000000020221101000020000NNM   20220810122251    2C0C  00002000000000250000000306032E1    SPYSE   002700430014
BI00B32E1    #NC2121        202209287158-3004-40             RUBBER STOPPER           CCN000020000000020000FN00000000020221101000020000NNM   20220810122251    2C0C  00002000000000234000000306332E1    SPYSE   002700430014
BI00B32E1    #NC2121        202209287182-2410                CONNECTOR HOUSING        CCN000001200000001200FN00000000020221101000001200NNM   20220810122251    2F0F  00000120000000959800001245632E1    SPYSE   005500360039
BI00B32E1    #NC2122        202210057182-2410                CONNECTOR HOUSING        CCN000001200000001200FN00000000020221101000001200NNM   20220810122251    2F0F  00000120000000959800001245632E1    SPYSE   005500360039
BI00B32E2    NY2121         202209287017-1183-02             TERMINAL                 CCN000027000000027000FN00000000020221101000027000NNM   20220810122251    4P0P  00002700000001139400001307432E2    SPYSE   005100280028
BI00B32E2    NY2121         202209287116-1685-02             TERMINAL                 CCN000024000000024000FN00000000020221101000024000NNM   20220810122251    4P0P  00002400000000897600001065232E2    SPYSE   005100280028
BI00B32E2    NY2122         202210057116-1685-02             TERMINAL                 CCN000024000000024000FN00000000020221101000024000NNM   20220810122251    4P0P  00002400000000897600001065232E2    SPYSE   005100280028
BI00B32E2    NY2121         202209287116-1686-02             TERMINAL                 CCN000021000000021000FN00000000020221101000021000NNM   20220810122251    4P0P  00002100000000869400001021632E2    SPYSE   005100280028
BI00B32E2    NY2121         202209287158-3006-90             RUBBER STOPPER           CCN000020000000020000FN00000000020221101000020000NNM   20220810122251    1C0C  00002000000000330600000386032E2    SPYSE   002700430014
BI00B32E2    NY2122         202210057158-3006-90             RUBBER STOPPER           CCN000020000000020000FN00000000020221101000020000NNM   20220810122251    1C0C  00002000000000330600000386032E2    SPYSE   002700430014
BI00B32E2    NY2121         202209287283-1040                CONNECTOR                CCN000002000000002000FN00000000020221101000002000NNM   20220810122251    4N0N  00000200000000396000000670032E2    SPYSE   005600390040
BI00B32E2    #NY2121        202209287282-3020                CONNECTOR                CCN000001000000001000FN00000000020221101000001000NNM   20220810122251    2N0N  00000100000000984000001145432E2    SPYSE   005500360039
BI00B32E2    #NY2121        202209287282-6446-40             CONNECTOR                CCN000003000000003000FN00000000020221101000003000NNM   20220810122251    2N0N  00000150000001185000001368032E2    SPYSE   005500360039
BI00B32E2    #NY2122        202210057282-6446-40             CONNECTOR                CCN000001500000001500FN00000000020221101000001500NNM   20220810122251    2N0N  00000150000001185000001368032E2    SPYSE   005500360039
BI00B32GE    DHTC2245       202209157017-1180-02             TERMINAL                 CCN000072000000072000FN00000000020221101000072000NNM   20220810144808    4P0P  00007200000001065600001229032GE    GEYKHT  005100280028
BI00B32GE    DHTC2245       202209157114-4032                TERMINAL                 CCN000007500000007500FN00000000020221101000007500NNM   20220810144808    4P0P  00000750000000735000001063632GE    GEYKHT  006400630017
BI00B32GE    DHTC2245       202209157114-5748-02             TERMINAL                 CCN000108000000108000FN00000000020221101000108000NNM   20220810144808    4P0P  00001200000000444000000737632GE    GEYKHT  006400630015
BI00B32GE    DHTC2245       202209157114-5753-02             TERMINAL                 CCN000378000000378000FN00000000020221101000378000NNM   20220810144808    4P0P  00002700000000847800001141432GE    GEYKHT  006400630015
BI00B32GE    DHTC2245       202209157114-7842-02             TERMINAL MALE            CCN000012000000012000FN00000000020221101000012000NNM   20220810144808    4P0P  00001200000000460800000754432GE    GEYKHT  006400630015
BI00B32GE    DHTC2245       202209157116-1685-02             TERMINAL                 CCN000120000000120000FN00000000020221101000120000NNM   20220810144808    4P0P  00002400000000897600001065232GE    GEYKHT  005100280028
BI00B32GE    DHTC2245       202209157116-2891-02             TERMINAL                 CCN000105000000105000FN00000000020221101000105000NNM   20220810144808    4P0P  00001500000000982500001145932GE    GEYKHT  005100280028
BI00B32GE    DHTC2245       202209157116-4101-02             TERMINAL                 CCN000019600000024000FN00000000020221101000024000NNM   20220810144808    4P0P  00001200000000582000000876232GE    GEYKHT  006400630015
BI00B32GE    DHTC2245       202209157116-4110-02             TERMINAL                 CCN000052500000054000FN00000000020221101000054000NNM   20220810144808    4P0P  00000900000000594000000882232GE    GEYKHT  006400630015
BI00B32GE    DHTC2245       202209157116-4111-02             TERMINAL                 CCN000075000000075000FN00000000020221101000075000NNM   20220810144808    4P0P  00000750000000529500000817732GE    GEYKHT  006400630015
BI00B32GE    DHTC2245       202209157116-4112-02             TERMINAL                 CCN000037500000042000FN00000000020221101000042000NNM   20220810144808    4P0P  00000600000000450000000738232GE    GEYKHT  006400630015
BI00B32GE    DHTC2245       202209157116-4486-02             TERMINAL                 CCN000168000000168000FN00000000020221101000168000NNM   20220810144808    4P0P  00002800000000666400000995132GE    GEYKHT  006400630017
BI00B32GE    DHTC2245       202209157116-5045-02             TERMINAL                 CCN000160000000160000FN00000000020221101000160000NNM   20220810144808    4P0P  00001600000000678400001007132GE    GEYKHT  006400630017
BI00B32GE    DHTC2245       202209157126-8853-02             TERMINAL                 CCN000120000000120000FN00000000020221101000120000NNM   20220810144808    4P0P  00000750000000562500000847732GE    GEYKHT  006400630015
BI00B32GE    DHTC2245       202209157126-8854-02             TERMINAL                 CCN000097500000097500FN00000000020221101000097500NNM   20220810144808    4P0P  00000750000000604500000889732GE    GEYKHT  006400630015
BI00B32GE    DHTC2245       202209157126-8855-02             TERMINAL                 CCN000120000000120000FN00000000020221101000120000NNM   20220810144808    4P0P  00000600000000510600000795832GE    GEYKHT  006400630015
BI00B32GE    DHTC2245       202209157158-3070-80             RUBBER STOPPER           CCN000040000000040000FN00000000020221101000040000NNM   20220810144808    1C0C  00004000000000276000000333332GE    GEYKHT  002700430014
BI00B32GE    DHTC2245       202209157158-3166-60             WIRE SEAL                CCN000080000000080000FN00000000020221101000080000NNM   20220810144808    1C0C  00004000000000104000000152432GE    GEYKHT  002700430014
BI00B32GE    DHTC2245       202209157158-3167-80             WIRE SEAL                CCN000200000000200000FN00000000020221101000200000NNM   20220810144808    1C0C  00002000000000048000000109032GE    GEYKHT  002700430014
BI00B32GE    DHTC2245       202209157173-3291-40             LIF LEVER                CCN000007200000007200FN00000000020221101000007200NNM   20220810144808    1F0F  00000240000000867800001067832GE    GEYKHT  005500360039
BI00B32GE    DHTC2245       202209157196-0396-02             TERMINAL                 CCN000015000000015000FN00000000020221101000015000NNM   20220810144808    4P0P  00001500000000949500001112932GE    GEYKHT  002800510028
BI00B32GE    DHTC2245       202209157196-0510-02             TERMINAL                 CCN000048000000048000FN00000000020221101000048000NNM   20220810144808    4P0P  00002400000000871200001034632GE    GEYKHT  002800510028
BI00B32GE    DHTC2245       202209157196-1325-02             TERMINAL FEMALE          CCN000420000000420000FN00000000020221101000420000NNM   20220810144808    4P0P  00006000000000450000000778732GE    GEYKHT  006400630017
BI00B32GE    DHTC2245       202209157196-1326-02             TERMINAL FEMALE          CCN000840000000840000FN00000000020221101000840000NNM   20220810144808    4P0P  00006000000000456000000784732GE    GEYKHT  006400630017
BI00B32GE    DHTC2245       202209157196-1327-02             TERMINAL FEMALE          CCN000052000000052000FN00000000020221101000052000NNM   20220810144808    4P0P  00005200000000336000000739532GE    GEYKHT  006400630017
BI00B32GE    DHTC2245       202209157196-1482-02             TERMINAL FEMALE          CCN000048000000048000FN00000000020221101000048000NNM   20220810144808    4P0P  00002400000000424800000710032GE    GEYKHT  006400630015
BI00B32GE    DHTC2245       202209157196-1936-02             TERMINAL FEMALE          CCN000013500000013500FN00000000020221101000013500NNM   20220810144808    4P0P  00001350000000441500000726732GE    GEYKHT  006400630015
BI00B32GE    DHTC2245       202209157282-4576                HOUSING MALE ASS'Y       CCN000014400000014400FN00000000020221101000014400NNM   20220810144808    4N0N  00000240000000808800001028832GE    GEYKHT  005500360039
BI00B32GE    DHTC2245       202209157283-1156                CONNECTOR                CCN000004000000004000FN00000000020221101000004000NNM   20220810144808    4N0N  00000080000000877600001078032GE    GEYKHT  005600390040
BI00B32GE    DHTC2245       202209157288-6547                CONNECTOR MALE ASS'Y     CCN000009000000009000FN00000000020221101000009000NNM   20220810144808    4N0N  00000075000001205300001340332GE    GEYKHT  005400370024
BI00B32GE    DHTC2245       202209157289-3342                HOUSING FEMALE ASS'Y     CCN000074400000074400FN00000000020221101000074400NNM   20220810144808    1N0N  00000240000000686400000901432GE    GEYKHT  005500360039
BI00B32GE    DHTC2245       202209157289-3342-30             HOUSING FEMALE ASS'Y     CCN000112800000112800FN00000000020221101000112800NNM   20220810144808    1N0N  00000240000000686400000901432GE    GEYKHT  005500360039
BI00B32GE    DHTC2245       202209157289-3342-40             HOUSING FEMALE ASS'Y     CCN000026400000026400FN00000000020221101000026400NNM   20220810144808    1N0N  00000240000000686400000901432GE    GEYKHT  005500360039
BI00B32GE    DHTC2245       202209157289-3342-90             HOUSING FEMALE ASS'Y     CCN000031200000031200FN00000000020221101000031200NNM   20220810144808    1N0N  00000240000000686400000901432GE    GEYKHT  005500360039
BI00B32GE    DHTC2245       202209157289-6518-30             HOUSING FEMALE ASS'Y     CCN000008400000008400FN00000000020221101000008400NNM   20220810144808    1N0N  00000120000000829200001049232GE    GEYKHT  005500360039
BI00B32GE    DHTC2245       202209157289-6547                HOUSING FEMALE ASS'Y     CCN000009600000009600FN00000000020221101000009600NNM   20220810144808    1N0N  00000240000001152000001362032GE    GEYKHT  005500360039
BI00B32GE    DHTC2245       202209157296-0784-02             TERMINAL ALUMINIUM       CCN000072000000072000FN00000000020221101000072000NNM   20220810144808    4P0P  00002400000000480000000765232GE    GEYKHT  006400630015
BI00B32GE    DHTC2245       202209157296-1020-02             TERMINAL ALUMINIUM       CCN000022500000022500FN00000000020221101000022500NNM   20220810144808    4P0P  00002250000000699800000985032GE    GEYKHT  006400630015
BI00B32GE    DHTC2245       202209157296-1025-02             TERMINAL ALUMINIUM       CCN000018000000018000FN00000000020221101000018000NNM   20220810144808    4P0P  00001800000000635400000920632GE    GEYKHT  006400630015
BI00B32GE    DHTC2245       202209157297-3482                JOINT CONNECTOR          CCN000037800000038400FN00000000020221101000038400NNM   20220810144808    4N0N  00000080000000621000000730532GE    GEYKHT  005400370024
BI00B32GE    DHTC2245       202209157298-3484                HOUSING FEMALE ASS'Y     CCN000039900000040500FN00000000020221101000040500NNM   20220810144808    4N0N  00000270000000742500001028732GE    GEYKHT  005400370024
BI00B32GE    DHTC2245       202209157298-3484-30             HOUSING FEMALE ASS'Y     CCN000014700000016200FN00000000020221101000016200NNM   20220810144808    4N0N  00000270000000742500001028732GE    GEYKHT  005400370024
BI00B32GE    DHTC2245       202209157327-6731-3W             BATTERY FUSE             CCN000001920000001920FN00000000020221101000001920NNM   20220810144808    4N0N  00000006400000697600000843032GE    GEYKHT  005400370024
BI00B32GE    DHTC2245       202209157327-6801-3W             BATTERY FUSE             CCN000002976000002976FN00000000020221101000002976NNM   20220810144808    4N0N  00000009600000928400001143432GE    GEYKHT  005500360039
BI00B32GE    DHTC2245       202209157327-6803                MULTI FUSE               CCN000001120000001120FN00000000020221101000001120NNM   20220810144808    4N0N  00000056000000854600001067032GE    GEYKHT  005400370024
BI00B32GE    DHTC2245       202209157327-6806                MULTI FUSE               CCN000003360000003360FN00000000020221101000003360NNM   20220810144808    4N0N  00000056000000851500001063932GE    GEYKHT  005400370024
BI00B32GE    DHTC2245       202209157327-6809                MULTI FUSE               CCN000010080000010080FN00000000020221101000010080NNM   20220810144808    4N0N  00000056000000849300001061732GE    GEYKHT  005400370024
BI00B32GE    DHTC2245       202209157327-6930                MULTI FUSE               CCN000001680000001680FN00000000020221101000001680NNM   20220810144808    4N0N  00000056000000848900001031932GE    GEYKHT  005400370024
BI00B32GE    DHTC2245       202209157388-2978-30             HOUSING MALE ASS'Y       CCN000020640000020640FN00000000020221101000020640NNM   20220810144808    1N0N  00000048000000742000001122032GE    GEYKHT  005500360039
BI00B32GE    #DHTC2245      202209157158-3003-90             RUBBER STOPPER           CCN000200000000200000FN00000000020221101000200000NNM   20220810144805    2C0C  00002000000000250000000306032GE    GEYKHT  002700430014
BI00B32GE    #DHTC2245      202209157158-3004-40             RUBBER STOPPER           CCN000040000000040000FN00000000020221101000040000NNM   20220810144805    2C0C  00002000000000234000000306332GE    GEYKHT  002700430014
BI00B32GE    #DHTC2245      202209157158-3005-80             RUBBER STOPPER           CCN000060000000060000FN00000000020221101000060000NNM   20220810144805    2H0H  00002000000000210000000268732GE    GEYKHT  002700430014
BI00B32GE    #DHTC2245      202209157158-3008-80             RUBBER STOPPER           CCN000140000000140000FN00000000020221101000140000NNM   20220810144805    2C0C  00002000000000288000000343032GE    GEYKHT  004300270014
BI00B32GE    #DHTC2245      202209157158-3015-10             RUBBER STOPPER           CCN000030000000030000FN00000000020221101000030000NNM   20220810144805    2C0C  00001000000000419500000474032GE    GEYKHT  002700430014
BI00B32GE    #DHTC2245      202209157158-3017                RUBBER STOPPER           CCN000050000000050000FN00000000020221101000050000NNM   20220810144805    2C0C  00001000000000375500000435032GE    GEYKHT  002700430014
BI00B32GE    #DHTC2245      202209157172-5629-80             RUBBER STOPPER           CCN000040000000040000FN00000000020221101000040000NNM   20220810144805    2H0H  00002000000000060000000111132GE    GEYKHT  004300270014
BI00B32GE    #DHTC2245      202209157172-5630-40             RUBBER STOPPER           CCN000100000000100000FN00000000020221101000100000NNM   20220810144805    2H0H  00002000000000044000000095132GE    GEYKHT  004300270014
BI00B32GE    #DHTC2245      202209157172-5631-60             RUBBER STOPPER           CCN000040000000040000FN00000000020221101000040000NNM   20220810144805    2H0H  00002000000000042000000093132GE    GEYKHT  004300270014
BI00B32GE    #DHTC2245      202209157172-5632-10             DUMMY PLUG               CCN000020000000020000FN00000000020221101000020000NNM   20220810144805    2H0H  00002000000000080400000131832GE    GEYKHT  004300270014
BI00B32GE    #DHTC2245      202209157183-2415-90             CONNECTOR HOUSING        CCN000009600000009600FN00000000020221101000009600NNM   20220810144805    2F0F  00000480000000798200001091432GE    GEYKHT  005500360039
BI00B32GE    #DHTC2245      202209157183-2418-30             CONNECTOR HOUSING        CCN000009600000009600FN00000000020221101000009600NNM   20220810144805    2F0F  00000480000000917000001235332GE    GEYKHT  005500360039
BI00B32GE    #DHTC2245      202209157189-2978-30             HOUSING FEMALE           CCN000019500000019500FN00000000020221101000019500NNM   20220810144805    2F0F  00000150000000966900001096932GE    GEYKHT  005400370024
BI00B32GE    #DHTC2245      202209157189-3033                HOUSING FEMALE           CCN000004800000004800FN00000000020221101000004800NNM   20220810144805    2F0F  00000160000001211200001431232GE    GEYKHT  005500360039
BI00B32GE    #DHTC2245      202209157189-3036                HOUSING FEMALE           CCN000001600000001600FN00000000020221101000001600NNM   20220810144805    2F0F  00000160000000921600001141632GE    GEYKHT  005500360039
BI00B32GE    #DHTC2245      202209157282-1641                CONNECTOR                CCN000004000000004000FN00000000020221101000004000NNM   20220810144805    2N0N  00000200000000813000000986032GE    GEYKHT  005500360039
BI00B32GE    #DHTC2245      202209157282-7424                CONNECTOR                CCN000004000000004000FN00000000020221101000004000NNM   20220810144805    2N0N  00000400000001064000001243032GE    GEYKHT  005500360039
BI00B32GE    #DHTC2245      202209157283-8226-30             CONNECTOR                CCN000004000000004000FN00000000020221101000004000NNM   20220810144805    2N0N  00000200000000820000001008032GE    GEYKHT  005400370024
BI00B32GE    #DHTC2245      202209157289-2912-40             HOUSING FEMALE ASS'Y     CCN000004000000004000FN00000000020221101000004000NNM   20220810144805    2N0N  00000200000000804000000931032GE    GEYKHT  005400370024
BI00B32GE    #DHTC2245      202209157289-3622-30             HOUSING FEMALE ASS'Y     CCN000003888000003888FN00000000020221101000003888NNM   20220810144805    2N0N  00000043200000839400001038432GE    GEYKHT  005400370024
BI00B32GE    #DHTC2245      202209157289-4200-30             HOUSING FEMALE ASS'Y     CCN000002000000002000FN00000000020221101000002000NNM   20220810144805    2N0N  00000200000000926000001021032GE    GEYKHT  005400370024
BI00B32H2    TIJ2094        202209167283-4577-30             CONNECTOR HOUSING        CCN000009600000009600FN00000000020220901000009600NNMD0020220810154848    4N0N  00000480000000916800001136832H2    HVYHV   005500360039
BI00B32H2    TIJ2104        202209307283-4577-30             CONNECTOR HOUSING        CCN000009600000000000FY00000000020221001000000000NNMQ0820220810155050    4N0N  00000480000000916800001136832H2    HVYHV   005500360039
BI00B32H2    TIJ2104        202209307388-2978-30             HOUSING MALE ASS'Y       CCN000000480000000000FY00000000020221001000000000NNMQ0820220810155123    1N0N  00000048000000742000001122032H2    HVYHV   005500360039
BI00B32H2    TIJ2105        202210077388-2978-30             HOUSING MALE ASS'Y       CCN000000480000000000FY00000000020221001000000000NNMQ0820220810155150    1N0N  00000048000000742000001122032H2    HVYHV   005500360039
BI00A32J1    397221         202209057298-1867-10             HOUSING FEMALE ASS'Y     CCN000002400000002400FN00000000020220901000002400NNE   20220810122251    4N0N  00000240000000998400001213332J1    UKYEL-BL005500360039
BI00A32J1    397221         202209057298-1868-80             HOUSING FEMALE ASS'Y     CCN000002400000002400FN00000000020220901000002400NNE   20220810122251    4N0N  00000240000001028600001243532J1    UKYEL-BL005500360039
BI00A32J1    397221         202209057298-2508-30             HOUSING FEMALE ASS'Y     CCN000001200000001200FN00000000020220901000001200NNE   20220810122251    4N0N  00000120000000822000001005032J1    UKYEL-BL005500360039
BI00A32J1    397221         202209057298-2509-30             HOUSING FEMALE ASS'Y     CCN000001200000001200FN00000000020220901000001200NNE   20220810122251    4N0N  00000120000000857500001062532J1    UKYEL-BL005500360039
BI00B32K8    #K1220011256   202209097137-2717-50             SEALED CONNECTOR         CCN000016000000016000FN00000000020221101000016000NNMD0020220810122251    2C0C  00000400000000212800000284032K8    ELELCOM 002700430014
BI00B32K8    #K1220011256   202208197137-2718-50             SEALED CONNECTOR         CCN000005000000005000FN00000000020221101000005000NNMD0020220810122251    2C0C  00000100000000118300000236632K8    ELELCOM 002700430014
BI00B32K8    #K1220011283   202208197137-2718-50             SEALED CONNECTOR         CCN000005000000005000FN00000000020221101000005000NNMD0020220810122251    2C0C  00000100000000118300000236632K8    ELELCOM 002700430014
BI00B32K8    #K1220011181   202208197137-2718-50             SEALED CONNECTOR         CCN000005000000005000FN00000000020221001000005000NNMD0020220810122251    2C0C  00000100000000118300000236632K8    ELELCOM 002700430014
BI00B32K8    #K1220011424   202208197137-2200                CONNECTOR PACKING        CCN000005000000005000FN00000000020221101000005000NNMD0020220810122251    2C0C  00000500000000136000000211332K8    ELELCOM 004300270014
BI00B32K8    #K1220011462   202208197137-2200                CONNECTOR PACKING        CCN000005000000005000FN00000000020221201000005000NNMD0020220810122251    2C0C  00000500000000136000000211332K8    ELELCOM 004300270014
BI00B32M8    QA-22-C060     202208177287-3885-40             HYBRID FEMALE ASS'Y      PNN000002400000002400FN00000000020220801000002400NNE   20220810122251    1N0N  00000240000001029600001249632M8    PMPEMI  005500360039
BI00B32M8    PM2209BTMW     202208317196-1943-02             TERMINAL FEMALE          CCN000000200000012000FN00000000020220901000012000NNE   20220810140042    4P0P  00001200000000492000000777232M8    PMPEMI  006400630015
BI00B32M8    PM2209BTMW     202208317288-6547                CONNECTOR MALE ASS'Y     CCN000000750000000750FN00000000020220901000000750NNE   20220810140042    4N0N  00000075000001205300001340332M8    PMPEMI  005400370024
BI00B32M8    #PM2209BTMW    202208317172-5625-90             RUBBER STOPPER           CCN000020000000020000FN00000000020220901000020000NNE   20220810140038    2H0H  00002000000000082400000133832M8    PMPEMI  004300270014
BI00B32M8    #PM2209BTMW    202208317172-5627-60             RUBBER STOPPER           CCN000020000000020000FN00000000020220901000020000NNE   20220810140038    2H0H  00002000000000070400000121832M8    PMPEMI  004300270014
BI00B32M8    #PM2209BTMW    202208317189-3034-30             HOUSING FEMALE           CCN000001600000001600FN00000000020220901000001600NNE   20220810140038    2F0F  00000160000000972800001192832M8    PMPEMI  005500360039
BI00B32M8    #PM2209BTMW    202208317289-4200-30             HOUSING FEMALE ASS'Y     CCN000002000000002000FN00000000020220901000002000NNE   20220810140038    2N0N  00000200000000926000001021032M8    PMPEMI  005400370024
BI00B32N1    NST2122DCU     202209017283-5845                CONNECTOR HOUSING        CCN000018000000006000FN00000000020220901000006000NNED0220220810122251    1N0N  00000600000000444000000606332N1    TAYIPL  005400370024
BI00B32N1    NST2122DCU     202209087283-5845                CONNECTOR HOUSING        CCN000006000000006000FN00000000020220901000006000NNED0220220810122251    1N0N  00000600000000444000000606332N1    TAYIPL  005400370024
BI00B32N1    NST2122DCU     202209157283-5845                CONNECTOR HOUSING        CCN000006000000006000FN00000000020220901000006000NNED0220220810122251    1N0N  00000600000000444000000606332N1    TAYIPL  005400370024
BI00B32N1    NST2808        202208257114-4416-02             TERMINAL MALE            CCN000010000000027000FN00000000020220901000027000NNM   20220810122251    4P0P  00002700000000442800000731032N1    TAYIPL  006400630015
BI00B32N1    NST2808        202208257158-3167-80             WIRE SEAL                CCN000010000000020000FN00000000020220901000020000NNM   20220810122251    1C0C  00002000000000048000000109032N1    TAYIPL  002700430014
BI00B32N1    NST2808        202208257116-4415-02             TERMINAL                 CCN000010000000038000FN00000000020220901000038000NNM   20220810122251    4P0P  00003800000000596600000925732N1    TAYIPL  006400630017
BI00B32N1    NST2808        202208257116-4416-02             TERMINAL                 CCN000010000000032000FN00000000020220901000032000NNM   20220810122251    4P0P  00003200000000518400000847132N1    TAYIPL  006400630017
BI00B32N1    NST2808        202208257116-2893-02             TERMINAL                 CCN000010000000012000FN00000000020220901000012000NNM   20220810122251    4P0P  00001200000000895200001058632N1    TAYIPL  005100280028
BI00B32N1    NST2808        202208257116-1686-02             TERMINAL                 CCN000010000000021000FN00000000020220901000021000NNM   20220810122251    4P0P  00002100000000869400001021632N1    TAYIPL  005100280028
BI00B32N1    NST2808        202208257126-8855-02             TERMINAL                 CCN000020000000024000FN00000000020220901000024000NNM   20220810122251    4P0P  00000600000000510600000795832N1    TAYIPL  006400630015
BI00B32N1    NST2808        202208257126-8852-02             TERMINAL                 CCN000015000000015000FN00000000020220901000015000NNM   20220810122251    1P0P  00000750000000648000000933232N1    TAYIPL  006400630015
BI00B32N1    NST2808        202208257116-4025                TERMINAL                 CCN000020000000032000FN00000000020220901000032000NNM   20220810122251    4P0P  00001600000000644800000975132N1    TAYIPL  006400630017
BI00B32R7    R-TAP220337    202208187116-4025                TERMINAL                 CCN000208000000208000FN00000000020220901000208000NNE   20220810162737    4P0P  00001600000000644800000975132R7    IVYCIC  006400630017
BI00B32R7    R-TAP220338    202208187196-0805-02             TERMINAL FEMALE          CCN000045000000045000FN00000000020220901000045000NNE   20220810162737    4P0P  00002250000000558000000843232R7    IVYCIC  006400630015
BI00B32R7    R-TAP220338    202208187289-3342-30             HOUSING FEMALE ASS'Y     CCN000012000000012000FN00000000020220901000012000NNE   20220810162505    1N0N  00000240000000686400000901432R7    IVYCIC  005500360039
BI00A32W4    4500194399     202210107116-4100-02             TERMINAL                 CCN000030000000030000FN00000000020220801000030000NNED0020220810122251W4494P0P  00001500000000696000000990232W449  HJYHK   006400630015
BI00A32W4    4500194951     202209127116-4110-02             TERMINAL                 CCN000009000000009000FN00000000020220801000009000NNED0020220810122251W4494P0P  00000900000000594000000882232W449  HJYHK   006400630015
BI00A32W4    4500195569     202208227116-4111-02             TERMINAL                 CCN000037500000037500FN00000000020220801000037500NNED0020220810142940W4144P0P  00000750000000529500000817732W414  HJYHK   006400630015
BI00A32W4    4500195569     202208227116-4112-02             TERMINAL                 CCN000048000000048000FN00000000020220801000048000NNED0020220810143256W4144P0P  00000600000000450000000738232W414  HJYHK   006400630015
BI00A32W4    4500195569     202208227116-4102-02             TERMINAL                 CCN000012000000012000FN00000000020220801000012000NNED0020220810143432W4144P0P  00001200000000553200000841432W414  HJYHK   006400630015
BI00A32W4    4500195569     202208227114-4100-02             TERMINAL                 CCN000054000000054000FN00000000020220801000054000NNED0020220810143634W4144P0P  00001800000000748800001077432W414  HJYHK   006400630017
BI00A32W4    4500195569     202208227114-4111-02             TERMINAL                 CCN000024000000024000FN00000000020220801000024000NNED0020220810143221W4144P0P  00001200000000758400001087032W414  HJYHK   006400630017
BI00A32W4    4500195569     202208227158-3169-40             SEALING PLUG             CCN000040000000040000FN00000000020220801000040000NNED0020220810154103W4141C0C  00004000000000156000000204132W414  HJYHK   004300260014
BI00A32W4    4500195570     202208227116-4110-02             TERMINAL                 CCN000009000000009000FN00000000020220801000009000NNED0020220810143006W4144P0P  00000900000000594000000882232W414  HJYHK   006400630015
BI00A32W4    #4500195570    202208227282-6458-40             CONNECTOR                CCN000002000000002000FN00000000020220801000002000NNED0020220810154410W4142N0N  00000100000001206000001350532W414  HJYHK   005500360039
BI00A32W4    #4500195570    202208227183-7725-40             HOUSING                  CCN000006000000006000FN00000000020220801000006000NNED0020220810145148W4142F0F  00000600000000840000001040032W414  HJYHK   005600390040
BI00A32W4    4500195948     202208227116-4100-02             TERMINAL                 CCN000030000000030000FN00000000020220801000030000NNED0020220810142915W4144P0P  00001500000000696000000990232W414  HJYHK   006400630015
BI00A32W4    4500195948     202208227116-4112-02             TERMINAL                 CCN000024000000024000FN00000000020220801000024000NNED0020220810143314W4144P0P  00000600000000450000000738232W414  HJYHK   006400630015
BI00A32W4    4500195948     202208227114-4100-02             TERMINAL                 CCN000018000000018000FN00000000020220801000018000NNED0020220810143650W4144P0P  00001800000000748800001077432W414  HJYHK   006400630017
BI00A32W4    4500195948     202208227116-4110-02             TERMINAL                 CCN000018000000018000FN00000000020220801000018000NNED0020220810143027W4144P0P  00000900000000594000000882232W414  HJYHK   006400630015
BI00A32W4    #4500195948    202208227282-6458-40             CONNECTOR                CCN000002000000002000FN00000000020220801000002000NNED0020220810154425W4142N0N  00000100000001206000001350532W414  HJYHK   005500360039
BI00A32W4    4500196392     202210207116-4022                TERMINAL                 CCN000081000000081000FN00000000020220801000081000NNED0020220810122251W4494P0P  00001350000000618300000903532W449  HJYHK   006400630015
BI00A32W4    4500196433     202208307116-4112-02             TERMINAL                 CCN000006000000006000FN00000000020220901000006000NNED0020220810143343W4144P0P  00000600000000450000000738232W414  HJYHK   006400630015
BI00A32W4    4500196819     202208307116-4112-02             TERMINAL                 CCN000090000000090000FN00000000020220901000090000NNED0020220810143411W4144P0P  00000600000000450000000738232W414  HJYHK   006400630015
BI00A32W4    4500196819     202208227116-4102-02             TERMINAL                 CCN000024000000024000FN00000000020220901000024000NNED0020220810143453W4144P0P  00001200000000553200000841432W414  HJYHK   006400630015
BI00A32W4    4500196819     202208227114-4100-02             TERMINAL                 CCN000090000000090000FN00000000020220901000090000NNED0020220810143706W4144P0P  00001800000000748800001077432W414  HJYHK   006400630017
BI00A32W4    #4500196819    202208307282-6458-40             CONNECTOR                CCN000004000000004000FN00000000020220901000004000NNED0020220810154440W4142N0N  00000100000001206000001350532W414  HJYHK   005500360039
BI00A32W4    4500197128     202209077114-4112-02             TERMINAL                 CCN000081000000081000FN00000000020220901000081000NNEM0020220810122251W4664P0P  00000900000000598500000927132W466  HJYHK   006400630017
BI00A32W4    4500197147     202210277116-4022                TERMINAL                 CCN000027000000027000FN00000000020220901000027000NNED0020220810122251W4494P0P  00001350000000618300000903532W449  HJYHK   006400630015
BI00A32W4    4500197236     202208227158-3167-80             WIRE SEAL                CCN000020000000020000FN00000000020220901000020000NNED0020220810154123W4141C0C  00002000000000048000000109032W414  HJYHK   002700430014
BI00A32W4    4500197933     202209077114-4112-02             TERMINAL                 CCN000081000000081000FN00000000020221001000081000NNEM0020220810122251W4664P0P  00000900000000598500000927132W466  HJYHK   006400630017
BI00B32W4    4500198304     202210067282-4855                HOUSING MALE ASS'Y       CCN000006000000006000FN00000000020221001000006000NNE   20220810122251W4L64N0N  00000120000001063200001283232W4L6  HJYHK-K 005500360039
BI00A32W4    4500198312     202210107158-3167-80             WIRE SEAL                CCN000120000000120000FN00000000020221001000120000NNE   20220810122251W4G91C0C  00002000000000048000000109032W4G9  HJYHK-J 002700430014
BI00A32W4    4500198312     202210107158-3168-80             SEALED                   CCN000040000000040000FN00000000020221001000040000NNE   20220810122251W4G91C0C  00002000000000044000000092132W4G9  HJYHK-J 004300260014
BI00A32W4    #4500198312    202210107158-3120-90             CONNECTOR WIRE SEAL      CCN000020000000020000FN00000000020221001000020000NNE   20220810122251W4G92C0C  00002000000000136000000194032W4G9  HJYHK-J 002700430014
BI00B32W4    4500198313     202210067116-4100-02             TERMINAL                 CCN000255000000255000FN00000000020221001000255000NNE   20220810122251W4164P0P  00001500000000696000000990232W416  HJYHK   006400630015
BI00B32W4    4500198313     202210067116-4121-02             TERMINAL                 CCN000018000000018000FN00000000020221001000018000NNE   20220810122251W4164P0P  00000450000000618800000912432W416  HJYHK   006400630015
BI00B32W4    4500198313     202210067116-4112-02             TERMINAL                 CCN000084000000084000FN00000000020221001000084000NNE   20220810122251W4164P0P  00000600000000450000000738232W416  HJYHK   006400630015
BI00B32W4    4500198313     202210067116-4102-02             TERMINAL                 CCN000024000000024000FN00000000020221001000024000NNE   20220810122251W4164P0P  00001200000000553200000841432W416  HJYHK   006400630015
BI00B32W4    4500198313     202210067116-4025                TERMINAL                 CCN000016000000016000FN00000000020221001000016000NNE   20220810122251W4164P0P  00001600000000644800000975132W416  HJYHK   006400630017
BI00B32W4    4500198313     202210067283-7028-30             CONNECTOR                CCN000009000000009000FN00000000020221001000009000NNE   20220810122251W4164N0N  00000300000001452000001681332W416  HJYHK   005600390040
BI00B32W4    4500198313     202210067114-4100-02             TERMINAL                 CCN000036000000036000FN00000000020221001000036000NNE   20220810122251W4164P0P  00001800000000748800001077432W416  HJYHK   006400630017
BI00B32W4    4500198313     202210067116-4026                TERMINAL                 CCN000016000000016000FN00000000020221001000016000NNE   20220810122251W4164P0P  00001600000000664000000994332W416  HJYHK   006400630017
BI00B32W4    4500198313     202210067116-4124-02             TERMINAL                 CCN000003000000003000FN00000000020221001000003000NNE   20220810122251W4164P0P  00000300000000459900000753532W416  HJYHK   006400630015
BI00B32W4    4500198313     202210067116-5045-02             TERMINAL                 CCN000016000000016000FN00000000020221001000016000NNE   20220810122251W4164P0P  00001600000000678400001007132W416  HJYHK   006400630017
BI00B32W4    4500198313     202210067158-3166-60             WIRE SEAL                CCN000120000000120000FN00000000020221001000120000NNE   20220810122251W4161C0C  00004000000000104000000152432W416  HJYHK   002700430014
BI00B32W4    4500198313     202210067158-3169-40             SEALING PLUG             CCN000080000000080000FN00000000020221001000080000NNE   20220810122251W4161C0C  00004000000000156000000204132W416  HJYHK   004300260014
BI00B32W4    4500198313     202210067116-4101-02             TERMINAL                 CCN000036000000036000FN00000000020221001000036000NNE   20220810122251W4164P0P  00001200000000582000000876232W416  HJYHK   006400630015
BI00B32W4    4500198313     202210067116-4120-02             TERMINAL                 CCN000012000000012000FN00000000020221001000012000NNE   20220810122251W4164P0P  00000600000000780000001073632W416  HJYHK   006400630015
BI00B32W4    4500198313     202210067116-4104-02             TERMINAL                 CCN000036000000036000FN00000000020221001000036000NNE   20220810122251W4164P0P  00001200000000580800000972432W416  HJYHK   006400630015
BI00B32W4    4500198313     202210067116-4110-02             TERMINAL                 CCN000009000000009000FN00000000020221001000009000NNE   20220810122251W4164P0P  00000900000000594000000882232W416  HJYHK   006400630015
BI00B32W4    4500198313     202210067116-4103-02             TERMINAL                 CCN000012000000012000FN00000000020221001000012000NNE   20220810122251W4164P0P  00001200000000571200000859432W416  HJYHK   006400630015
BI00B32W4    4500198313     202210067283-1020                CONNECTOR                CCN000024000000024000FN00000000020221001000024000NNE   20220810122251W4164N0N  00000600000000840000001049332W416  HJYHK   005600390040
BI00B32W4    4500198313     202210067283-1024                CONNECTOR SUB ASSY       CCN000008000000008000FN00000000020221001000008000NNE   20220810122251W4164N0N  00000200000000400000000522532W416  HJYHK   005400370024
BI00B32W4    4500198313     202210067282-1024                HOUSING MALE             CCN000009000000009000FN00000000020221001000009000NNE   20220810122251W4161N0N  00000100000000458000000580532W416  HJYHK   005400370024
BI00B32W4    4500198313     202210067283-1030                CONNECTOR                CCN000012000000012000FN00000000020221001000012000NNE   20220810122251W4164N0N  00000600000000988000001172032W416  HJYHK   005500360039
BI00B32W4    4500198313     202210067288-6547                CONNECTOR MALE ASS'Y     CCN000015750000015750FN00000000020221001000015750NNE   20220810122251W4164N0N  00000075000001205300001340332W416  HJYHK   005400370024
BI00B32W4    4500198313     202210067289-6547                HOUSING FEMALE ASS'Y     CCN000016800000016800FN00000000020221001000016800NNE   20220810122251W4161N0N  00000240000001152000001362032W416  HJYHK   005500360039
BI00B32W4    4500198313     202210067283-1156                CONNECTOR                CCN000010400000010400FN00000000020221001000010400NNE   20220810122251W4164N0N  00000080000000877600001078032W416  HJYHK   005600390040
BI00B32W4    4500198313     202210067114-4032                TERMINAL                 CCN000007500000007500FN00000000020221001000007500NNE   20220810122251W4164P0P  00000750000000735000001063632W416  HJYHK   006400630017
BI00B32W4    #4500198313    202210067282-4190-30             CONNECTOR                CCN000003840000003840FN00000000020221001000003840NNE   20220810122251W4162N0N  00000024000000801000001071332W416  HJYHK   005600390040
BI00B32W4    #4500198313    202210067283-4190-30             CONNECTOR                CCN000004320000004320FN00000000020221001000004320NNE   20220810122251W4162N0N  00000024000000846000001115532W416  HJYHK   005600390040
BI00B32W4    #4500198313    202210067187-1616                HOUSING FEMALE           CCN000004000000004000FN00000000020221001000004000NNE   20220810122251W4162F0F  00000400000001152000001262032W416  HJYHK   005500360039
BI00B32W4    @4500198313    202210067183-8049                CONNECTOR HOUSING        CCN000008000000008000FN00000000020221001000008000NNE   20220810122251W4163F0F  00000400000000583600000740032W416  HJYHK   005400370024
BI00B32W4    @4500198313    202210067287-6634                HOUSING FEMALE ASS'Y     CCN000007200000007200FN00000000020221001000007200NNE   20220810122251W4163N0N  00000240000001088400001337032W416  HJYHK   005500360039
BI00B32W4    4500198319     202209297017-1180-02             TERMINAL                 CCN000720000000720000FN00000000020221001000720000NNE   20220810122251W4Q24P0P  00007200000001065600001229032W4Q2  SCYHK-J 005100280028
BI00A32W4    4500198321     202210207158-3169-40             SEALING PLUG             CCN000040000000040000FN00000000020221001000040000NNE   20220810122251W4D31C0C  00004000000000156000000204132W4D3  HJYHK-J 004300260014
BI00B32W4    #4500198331    202208307157-7812                SEAL RUBBER              CCN000020000000020000FN00000000020220801000020000NNE   20220810122251W42 2C0C  00001000000000137000000202032W42   HJYHK   002700430014
BI00B32W4    4500198337     202209067116-1180                TERMINAL                 CCN000039000000039000FN00000000020220901000039000NNE   20220810122251W41 1P0P  00001950000000618200000903432W41   HJYHK   006400630015
BI00A32W9    4500198359     202208237282-5574-10             CONNECTOR                CCN000009600000009600FN00000000020220801000009600NNE   20220810122251W9  4N0N  00000080000001235000001423032W9    HKYHK   005600390040
BI00A32Y1    TA2094A        202208157289-3342-30             HOUSING FEMALE ASS'Y     CCN000007200000007200FN00000000020220801000007200NNE00020220810141302    1N0N  00000240000000686400000901432Y1    YAYAS   005500360039
BI00A32Y1    #TA2094A       202208157158-3015-10             RUBBER STOPPER           CCN000010000000010000FN00000000020220801000010000NNE00020220810141317    2C0C  00001000000000419500000474032Y1    YAYAS   002700430014
BI00A32Y1    #TA2094A       202208157154-5597-30             CASSETTE R/B             CCN000009600000009600FN00000000020220801000009600NNE00020220810141317    2F0F  00000080000000736000000952032Y1    YAYAS   005500360039
BI00B32Y2    TAU1242        202209087158-3070-80             RUBBER STOPPER           CCN000040000000040000FN00000000020230101000040000NNE   20220810122251    1C0C  00004000000000276000000333332Y2    YUYUY   002700430014
BI00B32Y2    TAU1242        202209087282-4855                HOUSING MALE ASS'Y       CCN000004350000004800FN00000000020230101000004800NNE   20220810122251    4N0N  00000120000001063200001283232Y2    YUYUY   005500360039
