AE00TI102209230323/09/202200000001400000000000000006577KGM  00000010570KGM  7116-3154-02             TERMINAL FEMALE          7116315402               0         0         0         0    0    0    00037800000002700000000015000056700000
AE00TI102209230323/09/202200000001600000000000000008525KGM  00000013088KGM  7116-4032                TERMINAL                 71164032                 0         0         0         0    0    0    00009600000000600000000057000054720000
AE00TI102209230323/09/202200000001600000000000000008965KGM  00000013528KGM  7116-5042-02             TERMINAL                 7116504202               0         0         0         0    0    0    00021600000001350000000028000060480000
AE00TI102209230323/09/202200000001600000000000000009000KGM  00000013563KGM  7126-8853-02             TERMINAL                 7126885302               0         0         0         0    0    0    00012000000000750000000057000068400000
AE00TI102209230323/09/202200000000200000000000000002197KGM  00000002597KGM  7270-8994                6P MODULE ASSEMBLY       72708994                 0         0         0         0    0    0    00000020000000010000017952000035904000
AE00TI102209230323/09/202200000000100000000000000000620KGM  00000000732KGM  7282-7040                HOUSING MALE ASS'Y       72827040                 0         0         0         0    0    0    00000120000000120000000687000008244000
AE00TI102209230323/09/202200000003500000000000000024024KGM  00000031549KGM  7289-3342-30             HOUSING FEMALE ASS'Y     7289334230               0         0         0         0    0    0    00008400000000240000000191000160440000
AE00TI102209230323/09/202200000000100000000000000001162KGM  00000001285KGM  7386-2747                CONNECTOR ASS'Y          73862747                 0         0         0         0    0    0    00000200000000200000000413000008260000
AE00TI102209230323/09/202200000003300000000000000043560KGM  00000051810KGM  7470-4481                J/B COMPLETE ASS'Y       74704481                 0         0         0         0    0    0    00000079200000002400000000000000000000
AE00TI102209230323/09/202200000002300000000000000000000KGM  00000000000KGM  7470-4816D               J/B COMPLETE ASS'Y       74704816D                0         0         0         0    0    0    00000034500000001500000000000000000000
AE00TI102209230323/09/202200000000700000000000000000000KGM  00000000000KGM  7470-4818D               J/B COMPLETE ASS'Y       74704818D                0         0         0         0    0    0    00000010500000001500000000000000000000
AE00TI102209230323/09/202200000001500000000000000000000KGM  00000000000KGM  7470-5784D               J/B COMPLETE ASS'Y       74705784D                0         0         0         0    0    0    00000022500000001500000000000000000000
AE00TI102209230323/09/202200000004000000000000000019760KGM  00000026440KGM  7470-5934                J/B COMPLETE ASS'Y       74705934                 0         0         0         0    0    0    00000040000000001000000000000000000000
