BI00B1200    #O022K50470    202211037154-7040                RELAY BLOCK              CCN000006000000006000FN00000000020221201000006000NNE   20220923121922    2F0F  0000030000000060300000074491200    YCYC    005500360039
BI00B1200    O022L50029     202211177298-1187-30             SHUNT RING ASSEMBLY      CCN000040000000040000FN00000000020221201000040000NNE   20220923121922    4N0N  0000100000000064700000076951200    YCYC    005400370024
BI00B1200    #O023A50005    202212227154-8273                RELAY BLOCK              CCN000003000000003000FN00000000020230101000003000NNE   20220923121922    2F0F  0000010000000052300000067251200    YCYC    005500360039
BI00B32CC    CTA32128       202211037289-6868-30             SEALED ASSY FEMALE       CCN000025200000025200FN00000000020230101000025200NNED0420220923121922    4N0N  00000252000000839200001119232CC    BIYABCBU005500360039
BI00B32CJ    JQN210M        202210077116-1686-02             TERMINAL                 CCN000042000000042000FN00000000020221001000042000NNE   20220923121922    4P0P  00002100000000869400001021632CJ    QNYHVQN 005100280028
BI00B32CJ    JQN210M        202210077116-4037                TERMINAL                 CCN000024000000024000FN00000000020221001000024000NNE   20220923121922    4P0P  00000600000000600000000894232CJ    QNYHVQN 006400630015
BI00B32CJ    JQN210M        202210077116-4415-02             TERMINAL                 CCN000228000000228000FN00000000020221001000228000NNE   20220923121922    4P0P  00003800000000596600000925732CJ    QNYHVQN 006400630017
BI00B32CJ    JQN210M        202210077116-4416-02             TERMINAL                 CCN000064000000064000FN00000000020221001000064000NNE   20220923121922    4P0P  00003200000000518400000847132CJ    QNYHVQN 006400630017
BI00B32CJ    JQN210M        202210077126-8853-02             TERMINAL                 CCN000030000000030000FN00000000020221001000030000NNE   20220923121922    4P0P  00000750000000562500000847732CJ    QNYHVQN 006400630015
BI00B32CJ    JQN210M        202210077158-3165-90             WIRE SEAL                CCN000200000000200000FN00000000020221001000200000NNE   20220923121922    1C0C  00004000000000124000000172432CJ    QNYHVQN 004300270014
BI00B32CJ    JQN210M        202210077287-8642-40             HOUSING FEMALE ASS'Y     CCN000005600000005600FN00000000020221001000005600NNE   20220923121922    4N0N  00000280000000915600001107632CJ    QNYHVQN 005400370024
BI00B32CJ    JQN210M        202210077298-4094-10             HOUSING FEMALE ASS'Y     CCN000003380000003380FN00000000020221001000003380NNE   20220923121922    4N0N  00000338000001097400001358732CJ    QNYHVQN 005400370024
BI00A32CJ    JQN210N        202209297298-4094-10             HOUSING FEMALE ASS'Y     CCN000003380000003380FN00000000020221001000003380NNE   20220923143038    4N0N  00000338000001097400001358732CJ    QNYHVQN 005400370024
BI00A32CJ    #JQN210N       202209297158-3015-10             RUBBER STOPPER           CCN000020000000020000FN00000000020221001000020000NNE   20220923142944    2C0C  00001000000000419500000474032CJ    QNYHVQN 002700430014
BI00B32CJ    JQN211A        202210077116-2641                TERMINAL                 CCN000018000000018000FN00000000020221101000018000NNE   20220923121922    4P0P  00001800000001161000001344632CJ    QNYHVQN 005100280028
BI00B32CJ    JQN211A        202210077116-3153-08             TERMINAL                 CCN000027000000027000FN00000000020221101000027000NNE   20220923121922    4P0P  00002700000000461700000746932CJ    QNYHVQN 006400630015
BI00B32CJ    JQN211A        202210077116-4037                TERMINAL                 CCN000024000000024000FN00000000020221101000024000NNE   20220923121922    4P0P  00000600000000600000000894232CJ    QNYHVQN 006400630015
BI00B32CJ    JQN211A        202210077116-4111-02             TERMINAL                 CCN000007500000007500FN00000000020221101000007500NNE   20220923121922    4P0P  00000750000000529500000817732CJ    QNYHVQN 006400630015
BI00B32CJ    JQN211A        202210077116-4415-02             TERMINAL                 CCN000190000000190000FN00000000020221101000190000NNE   20220923121922    4P0P  00003800000000596600000925732CJ    QNYHVQN 006400630017
BI00B32CJ    JQN211A        202210077116-4416-02             TERMINAL                 CCN000064000000064000FN00000000020221101000064000NNE   20220923121922    4P0P  00003200000000518400000847132CJ    QNYHVQN 006400630017
BI00B32CJ    JQN211A        202210077116-6041                TERMINAL                 CCN000004500000004500FN00000000020221101000004500NNE   20220923121922    4P0P  00000450000000716000001009632CJ    QNYHVQN 006400630015
BI00B32CJ    JQN211A        202210077116-6042                TERMINAL                 CCN000009000000009000FN00000000020221101000009000NNE   20220923121922    4P0P  00000300000000523800000856132CJ    QNYHVQN 006400630015
BI00B32CJ    JQN211A        202210077126-8853-02             TERMINAL                 CCN000030000000030000FN00000000020221101000030000NNE   20220923121922    4P0P  00000750000000562500000847732CJ    QNYHVQN 006400630015
BI00B32CJ    JQN211A        202210077287-8642-40             HOUSING FEMALE ASS'Y     CCN000002800000002800FN00000000020221101000002800NNE   20220923121922    4N0N  00000280000000915600001107632CJ    QNYHVQN 005400370024
BI00B32CJ    #JQN211A       202210077158-3015-10             RUBBER STOPPER           CCN000020000000020000FN00000000020221101000020000NNE   20220923121922    2C0C  00001000000000419500000474032CJ    QNYHVQN 002700430014
BI00B32CJ    #JQN211A       202210077158-3017                RUBBER STOPPER           CCN000010000000010000FN00000000020221101000010000NNE   20220923121922    2C0C  00001000000000375500000435032CJ    QNYHVQN 002700430014
BI00B32EJ    T220922P01     202211037114-4111-02             TERMINAL                 CCN000060000000060000FN00000000020221101000060000NNE   20220923121922EJ  4P0P  00001200000000758400001087032EJ    EJYKBO  006400630017
BI00B32EJ    T220922P01     202211037114-4112-02             TERMINAL                 CCN000018000000018000FN00000000020221101000018000NNE   20220923121922EJ  4P0P  00000900000000598500000927132EJ    EJYKBO  006400630017
BI00B32EJ    T220922P01     202211037114-4100-02             TERMINAL                 CCN000198000000198000FN00000000020221101000198000NNE   20220923121922EJ  4P0P  00001800000000748800001077432EJ    EJYKBO  006400630017
BI00B32EJ    T220922P01     202211037116-4101-02             TERMINAL                 CCN000012000000012000FN00000000020221101000012000NNE   20220923121922EJ  4P0P  00001200000000582000000876232EJ    EJYKBO  006400630015
BI00B32EJ    T220922P01     202211037116-4121-02             TERMINAL                 CCN000027000000027000FN00000000020221101000027000NNE   20220923121922EJ  4P0P  00000450000000618800000912432EJ    EJYKBO  006400630015
BI00B32EJ    T220922P01     202211037116-4111-02             TERMINAL                 CCN000097500000097500FN00000000020221101000097500NNE   20220923121922EJ  4P0P  00000750000000529500000817732EJ    EJYKBO  006400630015
BI00B32EJ    T220922P02     202211037116-4102-02             TERMINAL                 CCN000024000000024000FN00000000020221101000024000NNE   20220923121922EJ  4P0P  00001200000000553200000841432EJ    EJYKBO  006400630015
BI00B32EJ    T220922P02     202211037283-1968-30             CONNECTOR                CCN000000900000000900FN00000000020221101000000900NNE   20220923121922EJ  1N0N  00000090000001140000001318332EJ    EJYKBO  005600390040
BI00B32EJ    T220922P02     202211037116-4124-02             TERMINAL                 CCN000012000000012000FN00000000020221101000012000NNE   20220923121922EJ  4P0P  00000300000000459900000753532EJ    EJYKBO  006400630015
BI00B32EJ    T220922P02     202211037196-1461-06             TERMINAL FEMALE          CCN000024000000024000FN00000000020221101000024000NNE   20220923121922EJ  4P0P  00002400000000386400000692932EJ    EJYKBO  006400630015
BI00B32EJ    T220922P02     202211037114-4110-02             TERMINAL                 CCN000015000000015000FN00000000020221101000015000NNE   20220923121922EJ  4P0P  00001500000000901500001230132EJ    EJYKBO  006400630017
BI00B32EJ    T220922P02     202211037114-4112-02             TERMINAL                 CCN000018000000018000FN00000000020221101000018000NNE   20220923121922EJ  4P0P  00000900000000598500000927132EJ    EJYKBO  006400630017
BI00B32EJ    T220922P02     202211037116-4100-02             TERMINAL                 CCN000015000000015000FN00000000020221101000015000NNE   20220923121922EJ  4P0P  00001500000000696000000990232EJ    EJYKBO  006400630015
BI00B32EJ    T220922P02     202211037116-4120-02             TERMINAL                 CCN000012000000012000FN00000000020221101000012000NNE   20220923121922EJ  4P0P  00000600000000780000001073632EJ    EJYKBO  006400630015
BI00B32EJ    T220922P02     202211037116-4122-02             TERMINAL                 CCN000013500000013500FN00000000020221101000013500NNE   20220923121922EJ  4P0P  00000450000000656600000950232EJ    EJYKBO  006400630015
BI00B32EJ    T220922P02     202211037116-4121-02             TERMINAL                 CCN000036000000036000FN00000000020221101000036000NNE   20220923121922EJ  4P0P  00000450000000618800000912432EJ    EJYKBO  006400630015
BI00B32EJ    T220922P02     202211037116-4112-02             TERMINAL                 CCN000024000000024000FN00000000020221101000024000NNE   20220923121922EJ  4P0P  00000600000000450000000738232EJ    EJYKBO  006400630015
BI00B32EJ    T220922P02     202211037116-4110-02             TERMINAL                 CCN000009000000009000FN00000000020221101000009000NNE   20220923121922EJ  4P0P  00000900000000594000000882232EJ    EJYKBO  006400630015
BI00B32EJ    T220922P02     202211037126-8854-02             TERMINAL                 CCN000007500000007500FN00000000020221101000007500NNE   20220923121922EJ  4P0P  00000750000000604500000889732EJ    EJYKBO  006400630015
BI00B32EJ    T220922P02     202211037116-2951-02             TERMINAL                 CCN000005400000005400FN00000000020221101000005400NNE   20220923121922EJ  4P0P  00000540000000817600001111832EJ    EJYKBO  006400630015
BI00B32EJ    T220922P02     202211037158-3166-60             WIRE SEAL                CCN000400000000400000FN00000000020221101000400000NNE   20220923121922EJ  1C0C  00004000000000104000000152432EJ    EJYKBO  002700430014
BI00B32EJ    T220922P02     202211037158-3167-80             WIRE SEAL                CCN000420000000420000FN00000000020221101000420000NNE   20220923121922EJ  1C0C  00002000000000048000000109032EJ    EJYKBO  002700430014
BI00B32EJ    T220922P02     202211037158-3168-80             SEALED                   CCN000060000000060000FN00000000020221101000060000NNE   20220923121922EJ  1C0C  00002000000000044000000092132EJ    EJYKBO  004300260014
BI00B32EJ    T220922P02     202211037B58-3070-80             RUBBER STOPPER           CCN000040000000040000FN00000000020221101000040000NNE   20220923121922EJ  1C0C  00004000000000276000000333032EJ    EJYKBO  004300270014
BI00B32EJ    T220922P02     202211037158-3167-61             WIRE SEAL                CCN000080000000080000FN00000000020221101000080000NNE   20220923121922EJ  1C0C  00002000000000048000000096432EJ    EJYKBO  004300270014
BI00B32EJ    #T220922P02    202211037158-3120-90             CONNECTOR WIRE SEAL      CCN000040000000040000FN00000000020221101000040000NNE   20220923121922EJ  2C0C  00002000000000136000000194032EJ    EJYKBO  002700430014
BI00B32EJ    #T220922P02    202211037282-6458-40             CONNECTOR                CCN000002000000002000FN00000000020221101000002000NNE   20220923121922EJ  2N0N  00000100000001206000001350532EJ    EJYKBO  005500360039
BI00B32EJ    @T220922P02    202211037123-4312-80             HOUSING                  CCN000002400000002400FN00000000020221101000002400NNE   20220923121922EJ  3F0F  00000080000000644200000794032EJ    EJYKBO  005500360039
BI00B32GE    #DHTC2248      202210067158-3374-90             CONNECTOR WIRE SEAL      CCN000040000000000000FY00000000020221201000000000NNMQ0820220923102438    2H0H  00002000000000172000000229332GE    GEYKHT  002700430014
BI00B32GE    DHTC2249B      202210127327-6801-3W             BATTERY FUSE             CCN000000672000000672FN00000000020221101000000672NNED0420220923154211    4N0N  00000009600000928400001143432GE    GEYKHT  005500360039
BI00B32GE    DHTC2249B      202210127327-6803                MULTI FUSE               CCN000000560000000560FN00000000020221101000000560NNED0420220923154211    4N0N  00000056000000854600001067032GE    GEYKHT  005400370024
BI00B32GE    #DHTC2250      202210127158-3008-80             RUBBER STOPPER           CCN000120000000120000FN00000000020221201000120000NNMD0420220923154038    2C0C  00002000000000288000000343032GE    GEYKHT  004300270014
BI00B32GE    #DHTC2250      202210127172-5632-10             DUMMY PLUG               CCN000180000000180000FN00000000020221201000180000NNMD0420220923154038    2H0H  00002000000000080400000131832GE    GEYKHT  004300270014
BI00B32GE    DHTC2251       202210207017-1180-02             TERMINAL                 CCN000072000000072000FN00000000020221201000072000NNM   20220923121922    4P0P  00007200000001065600001229032GE    GEYKHT  005100280028
BI00B32GE    DHTC2251       202210207114-4032                TERMINAL                 CCN000037500000037500FN00000000020221201000037500NNM   20220923121922    4P0P  00000750000000735000001063632GE    GEYKHT  006400630017
BI00B32GE    DHTC2251       202210207114-4624-02             TERMINAL                 CCN000072000000072000FN00000000020221201000072000NNM   20220923121922    4P0P  00002400000000895200001188832GE    GEYKHT  006400630015
BI00B32GE    DHTC2251       202210207114-5748-02             TERMINAL                 CCN000180000000180000FN00000000020221201000180000NNM   20220923121922    4P0P  00001200000000444000000737632GE    GEYKHT  006400630015
BI00B32GE    DHTC2251       202210207114-5753-02             TERMINAL                 CCN000432000000432000FN00000000020221201000432000NNM   20220923121922    4P0P  00002700000000847800001141432GE    GEYKHT  006400630015
BI00B32GE    DHTC2251       202210207114-7842-02             TERMINAL MALE            CCN000012000000012000FN00000000020221201000012000NNM   20220923121922    4P0P  00001200000000460800000754432GE    GEYKHT  006400630015
BI00B32GE    DHTC2251       202210207116-1685-02             TERMINAL                 CCN000048000000048000FN00000000020221201000048000NNM   20220923121922    4P0P  00002400000000897600001065232GE    GEYKHT  005100280028
BI00B32GE    DHTC2251       202210207116-2891-02             TERMINAL                 CCN000120000000120000FN00000000020221201000120000NNM   20220923121922    4P0P  00001500000000982500001145932GE    GEYKHT  005100280028
BI00B32GE    DHTC2251       202210207116-4100-02             TERMINAL                 CCN000022800000030000FN00000000020221201000030000NNM   20220923121922    4P0P  00001500000000696000000990232GE    GEYKHT  006400630015
BI00B32GE    DHTC2251       202210207116-4110-02             TERMINAL                 CCN000054000000054000FN00000000020221201000054000NNM   20220923121922    4P0P  00000900000000594000000882232GE    GEYKHT  006400630015
BI00B32GE    DHTC2251       202210207116-4111-02             TERMINAL                 CCN000015000000015000FN00000000020221201000015000NNM   20220923121922    4P0P  00000750000000529500000817732GE    GEYKHT  006400630015
BI00B32GE    DHTC2251       202210207116-4112-02             TERMINAL                 CCN000100000000102000FN00000000020221201000102000NNM   20220923121922    4P0P  00000600000000450000000738232GE    GEYKHT  006400630015
BI00B32GE    DHTC2251       202210207116-4486-02             TERMINAL                 CCN000280000000280000FN00000000020221201000280000NNM   20220923121922    4P0P  00002800000000666400000995132GE    GEYKHT  006400630017
BI00B32GE    DHTC2251       202210207116-5045-02             TERMINAL                 CCN000128000000128000FN00000000020221201000128000NNM   20220923121922    4P0P  00001600000000678400001007132GE    GEYKHT  006400630017
BI00B32GE    DHTC2251       202210207126-8853-02             TERMINAL                 CCN000217500000217500FN00000000020221201000217500NNM   20220923121922    4P0P  00000750000000562500000847732GE    GEYKHT  006400630015
BI00B32GE    DHTC2251       202210207126-8854-02             TERMINAL                 CCN000150000000150000FN00000000020221201000150000NNM   20220923121922    4P0P  00000750000000604500000889732GE    GEYKHT  006400630015
BI00B32GE    DHTC2251       202210207126-8855-02             TERMINAL                 CCN000210000000210000FN00000000020221201000210000NNM   20220923121922    4P0P  00000600000000510600000795832GE    GEYKHT  006400630015
BI00B32GE    DHTC2251       202210207158-3070-80             RUBBER STOPPER           CCN000080000000080000FN00000000020221201000080000NNM   20220923121922    1C0C  00004000000000276000000333332GE    GEYKHT  002700430014
BI00B32GE    DHTC2251       202210207158-3166-60             WIRE SEAL                CCN000120000000120000FN00000000020221201000120000NNM   20220923121922    1C0C  00004000000000104000000152432GE    GEYKHT  002700430014
BI00B32GE    DHTC2251       202210207158-3167-80             WIRE SEAL                CCN000080000000080000FN00000000020221201000080000NNM   20220923121922    1C0C  00002000000000048000000109032GE    GEYKHT  002700430014
BI00B32GE    DHTC2251       202210207173-3291-40             LIF LEVER                CCN000014400000014400FN00000000020221201000014400NNM   20220923121922    1F0F  00000240000000867800001067832GE    GEYKHT  005500360039
BI00B32GE    DHTC2251       202210207195-1479-02             TERMINAL MALE            CCN000048000000048000FN00000000020221201000048000NNM   20220923121922    4P0P  00002400000000420000000714232GE    GEYKHT  006400630015
BI00B32GE    DHTC2251       202210207195-1480-02             TERMINAL MALE            CCN000024000000024000FN00000000020221201000024000NNM   20220923121922    4P0P  00002400000000422400000716632GE    GEYKHT  006400630015
BI00B32GE    DHTC2251       202210207196-0396-02             TERMINAL                 CCN000045000000045000FN00000000020221201000045000NNM   20220923121922    4P0P  00001500000000949500001112932GE    GEYKHT  002800510028
BI00B32GE    DHTC2251       202210207196-0510-02             TERMINAL                 CCN000024000000024000FN00000000020221201000024000NNM   20220923121922    4P0P  00002400000000871200001034632GE    GEYKHT  002800510028
BI00B32GE    DHTC2251       202210207196-0805-02             TERMINAL FEMALE          CCN000022500000022500FN00000000020221201000022500NNM   20220923121922    4P0P  00002250000000558000000843232GE    GEYKHT  006400630015
BI00B32GE    DHTC2251       202210207196-1325-02             TERMINAL FEMALE          CCN000420000000420000FN00000000020221201000420000NNM   20220923121922    4P0P  00006000000000450000000778732GE    GEYKHT  006400630017
BI00B32GE    DHTC2251       202210207196-1326-02             TERMINAL FEMALE          CCN000900000000900000FN00000000020221201000900000NNM   20220923121922    4P0P  00006000000000456000000784732GE    GEYKHT  006400630017
BI00B32GE    DHTC2251       202210207196-1327-02             TERMINAL FEMALE          CCN000104000000104000FN00000000020221201000104000NNM   20220923121922    4P0P  00005200000000336000000739532GE    GEYKHT  006400630017
BI00B32GE    DHTC2251       202210207196-1481-02             TERMINAL FEMALE          CCN000048000000048000FN00000000020221201000048000NNM   20220923121922    4P0P  00002400000000422400000707632GE    GEYKHT  006400630015
BI00B32GE    DHTC2251       202210207196-1482-02             TERMINAL FEMALE          CCN000024000000024000FN00000000020221201000024000NNM   20220923121922    4P0P  00002400000000424800000710032GE    GEYKHT  006400630015
BI00B32GE    DHTC2251       202210207282-4576                HOUSING MALE ASS'Y       CCN000002400000002400FN00000000020221201000002400NNM   20220923121922    4N0N  00000240000000808800001028832GE    GEYKHT  005500360039
BI00B32GE    DHTC2251       202210207283-1156                CONNECTOR                CCN000009600000009600FN00000000020221201000009600NNM   20220923121922    4N0N  00000080000000877600001078032GE    GEYKHT  005600390040
BI00B32GE    DHTC2251       202210207283-1968-30             CONNECTOR                CCN000003600000003600FN00000000020221201000003600NNM   20220923121922    1N0N  00000090000001140000001318332GE    GEYKHT  005600390040
BI00B32GE    DHTC2251       202210207288-6547                CONNECTOR MALE ASS'Y     CCN000007500000007500FN00000000020221201000007500NNM   20220923121922    4N0N  00000075000001205300001340332GE    GEYKHT  005400370024
BI00B32GE    DHTC2251       202210207289-3342                HOUSING FEMALE ASS'Y     CCN000091200000091200FN00000000020221201000091200NNM   20220923121922    1N0N  00000240000000686400000901432GE    GEYKHT  005500360039
BI00B32GE    DHTC2251       202210207289-3342-30             HOUSING FEMALE ASS'Y     CCN000084000000084000FN00000000020221201000084000NNM   20220923121922    1N0N  00000240000000686400000901432GE    GEYKHT  005500360039
BI00B32GE    DHTC2251       202210207289-3342-40             HOUSING FEMALE ASS'Y     CCN000019200000019200FN00000000020221201000019200NNM   20220923121922    1N0N  00000240000000686400000901432GE    GEYKHT  005500360039
BI00B32GE    DHTC2251       202210207289-3342-90             HOUSING FEMALE ASS'Y     CCN000052800000052800FN00000000020221201000052800NNM   20220923121922    1N0N  00000240000000686400000901432GE    GEYKHT  005500360039
BI00B32GE    DHTC2251       202210207289-6518-30             HOUSING FEMALE ASS'Y     CCN000014400000014400FN00000000020221201000014400NNM   20220923121922    1N0N  00000120000000829200001049232GE    GEYKHT  005500360039
BI00B32GE    DHTC2251       202210207289-6547                HOUSING FEMALE ASS'Y     CCN000007200000007200FN00000000020221201000007200NNM   20220923121922    1N0N  00000240000001152000001362032GE    GEYKHT  005500360039
BI00B32GE    DHTC2251       202210207295-0785-02             TERMINAL ALUMINIUM       CCN000051000000051000FN00000000020221201000051000NNM   20220923121922    4P0P  00002550000000510000000803632GE    GEYKHT  006400630015
BI00B32GE    DHTC2251       202210207296-0784-02             TERMINAL ALUMINIUM       CCN000240000000240000FN00000000020221201000240000NNM   20220923121922    4P0P  00002400000000480000000765232GE    GEYKHT  006400630015
BI00B32GE    DHTC2251       202210207296-1024-02             TERMINAL ALUMINIUM       CCN000018000000018000FN00000000020221201000018000NNM   20220923121922    4P0P  00001800000000698400000983632GE    GEYKHT  006400630015
BI00B32GE    DHTC2251       202210207297-3482                JOINT CONNECTOR          CCN000048600000048800FN00000000020221201000048800NNM   20220923121922    4N0N  00000080000000621000000730532GE    GEYKHT  005400370024
BI00B32GE    DHTC2251       202210207298-3484                HOUSING FEMALE ASS'Y     CCN000052500000054000FN00000000020221201000054000NNM   20220923121922    4N0N  00000270000000742500001028732GE    GEYKHT  005400370024
BI00B32GE    DHTC2251       202210207298-3484-30             HOUSING FEMALE ASS'Y     CCN000010500000010800FN00000000020221201000010800NNM   20220923121922    4N0N  00000270000000742500001028732GE    GEYKHT  005400370024
BI00B32GE    DHTC2251       202210207327-6731-3W             BATTERY FUSE             CCN000000960000000960FN00000000020221201000000960NNM   20220923121922    4N0N  00000006400000697600000843032GE    GEYKHT  005400370024
BI00B32GE    DHTC2251       202210207327-6801-3W             BATTERY FUSE             CCN000003168000003168FN00000000020221201000003168NNM   20220923121922    4N0N  00000009600000928400001143432GE    GEYKHT  005500360039
BI00B32GE    DHTC2251       202210207327-6803                MULTI FUSE               CCN000001120000001120FN00000000020221201000001120NNM   20220923121922    4N0N  00000056000000854600001067032GE    GEYKHT  005400370024
BI00B32GE    DHTC2251       202210207327-6806                MULTI FUSE               CCN000003360000003360FN00000000020221201000003360NNM   20220923121922    4N0N  00000056000000851500001063932GE    GEYKHT  005400370024
BI00B32GE    DHTC2251       202210207327-6809                MULTI FUSE               CCN000008960000008960FN00000000020221201000008960NNM   20220923121922    4N0N  00000056000000849300001061732GE    GEYKHT  005400370024
BI00B32GE    DHTC2251       202210207327-6930                MULTI FUSE               CCN000002240000002240FN00000000020221201000002240NNM   20220923121922    4N0N  00000056000000848900001031932GE    GEYKHT  005400370024
BI00B32GE    DHTC2251       202210207327-6983-30             MAIN FUSE                CCN000004800000004800FN00000000020221201000004800NNM   20220923121922    4N0N  00000060000000748800000951532GE    GEYKHT  005400370024
BI00B32GE    DHTC2251       202210207327-6985-30             MULTI FUSE               CCN000005184000005184FN00000000020221201000005184NNM   20220923121922    4N0N  00000028800000886100001052032GE    GEYKHT  005400370024
BI00B32GE    DHTC2251       202210207327-6990-30             MULTI FUSE               CCN000004480000004480FN00000000020221201000004480NNM   20220923121922    4NON  00000056000000724000000907032GE    GEYKHT  005400370024
BI00B32GE    DHTC2251       202210207327-6998-30             MULTI FUSE               CCN000004896000004896FN00000000020221201000004896NNM   20220923121922    4N0N  00000028800000886000001051932GE    GEYKHT  005400370024
BI00B32GE    DHTC2251       202210207388-2978-30             HOUSING MALE ASS'Y       CCN000035040000035040FN00000000020221201000035040NNM   20220923121922    1N0N  00000048000000742000001122032GE    GEYKHT  005500360039
BI00B32GE    #DHTC2251      202210207047-5344                RETAINER                 CCN000010000000010000FN00000000020221201000010000NNM   20220923121922    2F0F  00001000000000870000001016032GE    GEYKHT  005600390023
BI00B32GE    #DHTC2251      202210207158-3003-90             RUBBER STOPPER           CCN000200000000200000FN00000000020221201000200000NNM   20220923121922    2C0C  00002000000000250000000306032GE    GEYKHT  002700430014
BI00B32GE    #DHTC2251      202210207158-3005-80             RUBBER STOPPER           CCN000040000000040000FN00000000020221201000040000NNM   20220923121922    2H0H  00002000000000210000000268732GE    GEYKHT  002700430014
BI00B32GE    #DHTC2251      202210207158-3008-80             RUBBER STOPPER           CCN000200000000200000FN00000000020221201000200000NNM   20220923121922    2C0C  00002000000000288000000343032GE    GEYKHT  004300270014
BI00B32GE    #DHTC2251      202210207158-3017                RUBBER STOPPER           CCN000030000000030000FN00000000020221201000030000NNM   20220923121922    2C0C  00001000000000375500000435032GE    GEYKHT  002700430014
BI00B32GE    #DHTC2251      202210207172-5629-80             RUBBER STOPPER           CCN000600000000600000FN00000000020221201000600000NNM   20220923121922    2H0H  00002000000000060000000111132GE    GEYKHT  004300270014
BI00B32GE    #DHTC2251      202210207172-5630-40             RUBBER STOPPER           CCN000580000000580000FN00000000020221201000580000NNM   20220923121922    2H0H  00002000000000044000000095132GE    GEYKHT  004300270014
BI00B32GE    #DHTC2251      202210207172-5631-60             RUBBER STOPPER           CCN000140000000140000FN00000000020221201000140000NNM   20220923121922    2H0H  00002000000000042000000093132GE    GEYKHT  004300270014
BI00B32GE    #DHTC2251      202210207172-5632-10             DUMMY PLUG               CCN000560000000560000FN00000000020221201000560000NNM   20220923121922    2H0H  00002000000000080400000131832GE    GEYKHT  004300270014
BI00B32GE    #DHTC2251      202210207183-2511                HOUSING                  CCN000004800000004800FN00000000020221201000004800NNM   20220923121922    2F0F  00000160000000972200001242132GE    GEYKHT  005500360039
BI00B32GE    #DHTC2251      202210207189-2978-30             HOUSING FEMALE           CCN000034500000034500FN00000000020221201000034500NNM   20220923121922    2F0F  00000150000000966900001096932GE    GEYKHT  005400370024
BI00B32GE    #DHTC2251      202210207189-3033                HOUSING FEMALE           CCN000043200000043200FN00000000020221201000043200NNM   20220923121922    2F0F  00000160000001211200001431232GE    GEYKHT  005500360039
BI00B32GE    #DHTC2251      202210207189-3036                HOUSING FEMALE           CCN000033600000033600FN00000000020221201000033600NNM   20220923121922    2F0F  00000160000000921600001141632GE    GEYKHT  005500360039
BI00B32GE    #DHTC2251      202210207189-3037                HOUSING FEMALE           CCN000004800000004800FN00000000020221201000004800NNM   20220923121922    2F0F  00000480000000806400001066432GE    GEYKHT  005500360039
BI00B32GE    #DHTC2251      202210207189-3037-40             HOUSING FEMALE           CCN000004800000004800FN00000000020221201000004800NNM   20220923121922    2F0F  00000480000000901600001061632GE    GEYKHT  005500360039
BI00B32GE    #DHTC2251      202210207198-5394                HOUSING FEMALE           CCN000024000000024000FN00000000020221201000024000NNM   20220923121922    2F0F  00000480000000489700000688832GE    GEYKHT  005500360039
BI00B32GE    #DHTC2251      202210207282-1641                CONNECTOR                CCN000008000000008000FN00000000020221201000008000NNM   20220923121922    2N0N  00000200000000813000000986032GE    GEYKHT  005500360039
BI00B32GE    #DHTC2251      202210207289-2912-40             HOUSING FEMALE ASS'Y     CCN000002000000002000FN00000000020221201000002000NNM   20220923121922    2N0N  00000200000000804000000931032GE    GEYKHT  005400370024
BI00B32GE    #DHTC2251      202210207289-3622-30             HOUSING FEMALE ASS'Y     CCN000000432000000432FN00000000020221201000000432NNM   20220923121922    2N0N  00000043200000839400001038432GE    GEYKHT  005400370024
BI00B32GE    #DHTC2251      202210207289-4200-30             HOUSING FEMALE ASS'Y     CCN000004000000004000FN00000000020221201000004000NNM   20220923121922    2N0N  00000200000000926000001021032GE    GEYKHT  005400370024
BI00B32GE    DHTC2250B      202210277114-4032                TERMINAL                 CCN000022500000022500FN00000000020221201000022500NNE   20220923142706    4P0P  00000750000000735000001063632GE    GEYKHT  006400630017
BI00B32GE    DHTC2250B      202210277114-4624-02             TERMINAL                 CCN000072000000072000FN00000000020221201000072000NNE   20220923142706    4P0P  00002400000000895200001188832GE    GEYKHT  006400630015
BI00B32GE    DHTC2250B      202210277195-1479-02             TERMINAL MALE            CCN000048000000048000FN00000000020221201000048000NNE   20220923142706    4P0P  00002400000000420000000714232GE    GEYKHT  006400630015
BI00B32GE    DHTC2250B      202210277196-1481-02             TERMINAL FEMALE          CCN000048000000048000FN00000000020221201000048000NNE   20220923142706    4P0P  00002400000000422400000707632GE    GEYKHT  006400630015
BI00B32GE    #DHTC2250B     202210277172-5629-80             RUBBER STOPPER           CCN000440000000440000FN00000000020221201000440000NNE   20220923142704    2H0H  00002000000000060000000111132GE    GEYKHT  004300270014
BI00B32GE    #DHTC2250B     202210277183-2511                HOUSING                  CCN000004800000004800FN00000000020221201000004800NNE   20220923142704    2F0F  00000160000000972200001242132GE    GEYKHT  005500360039
BI00B32GE    #DHTC2250B     202210277189-3033                HOUSING FEMALE           CCN000033600000033600FN00000000020221201000033600NNE   20220923142704    2F0F  00000160000001211200001431232GE    GEYKHT  005500360039
BI00B32GE    #DHTC2250B     202210277189-3036                HOUSING FEMALE           CCN000038400000038400FN00000000020221201000038400NNE   20220923142704    2F0F  00000160000000921600001141632GE    GEYKHT  005500360039
BI00B32GE    #DHTC2250B     202210277198-5394                HOUSING FEMALE           CCN000019200000019200FN00000000020221201000019200NNE   20220923142704    2F0F  00000480000000489700000688832GE    GEYKHT  005500360039
BI00B32H0    TT2212AVMW     202210187289-6597-70             HOUSING FEMALE ASS'Y     CCN000002160000002160FN00000000020221201000002160NNE   20220923121922    4N0N  00000216000001289500001539532H0    TTTJY   005500360039
BI00B32H2    TIJ210Y        202211047287-3885-30             HYBRID FEMALE ASS'Y      CCN000002400000002400FN00000000020221001000002400NNED0120220923164842    1N0N  00000240000001029600001249632H2    HVYHV   005500360039
BI00B32H2    TIJ211L        202210077116-3153-02             TERMINAL FEMALE          CCY000009000000009000FN00000000020221101000009000NNEQ0020220923121922    4P0P  00002700000000459000000744232H2    HVYHV   006400630015
BI00B32H8    TY2211A MW     202210077222-7484-30             CONNECTOR                CCN000001000000001000FN00000000020221101000001000NNE   20220923121922    4N0N  00000100000001030000001175732H8    TYTYC   005500360039
BI00B32H8    #TY2211A MW    202210077158-3008-80             RUBBER STOPPER           CCN000020000000020000FN00000000020221101000020000NNE   20220923121922    2C0C  00002000000000288000000343032H8    TYTYC   004300270014
BI00A32J1    398041         202209277198-1867-10             HOUSING FEMALE           CCN000002400000002400FN00000000020220901000002400NNE00020220923121922    1F0F  00000240000000772100000904432J1    UKYEL-BL005500360039
BI00B32J1    398578         202210177114-4032                TERMINAL                 CCN000007500000007500FN00000000020221001000007500NNM   20220923121922    4P0P  00000750000000735000001063632J1    UKYEL-BL006400630017
BI00B32J1    398578         202210177114-6041                TERMINAL                 CCN000025200000025200FN00000000020221001000025200NNM   20220923121922    4P0P  00000360000000580700000824232J1    UKYEL-BL006400630015
BI00B32J1    398578         202210177116-4020                TERMINAL                 CCN000054000000054000FN00000000020221001000054000NNM   20220923121922    4P0P  00001350000000513000000798232J1    UKYEL-BL006400630015
BI00B32J1    398578         202210177116-6042                TERMINAL                 CCN000018000000018000FN00000000020221001000018000NNM   20220923121922    4P0P  00000300000000523800000856132J1    UKYEL-BL006400630015
BI00B32J1    398578         202210177158-3006-90             RUBBER STOPPER           CCN000040000000040000FN00000000020221001000040000NNM   20220923121922    1C0C  00002000000000330600000386032J1    UKYEL-BL002700430014
BI00B32J1    398578         202210177158-3165-90             WIRE SEAL                CCN000600000000600000FN00000000020221001000600000NNM   20220923121922    1C0C  00004000000000124000000172432J1    UKYEL-BL004300270014
BI00B32J1    398578         202210177158-3166-60             WIRE SEAL                CCN002160000002160000FN00000000020221001002160000NNM   20220923121922    1C0C  00004000000000104000000152432J1    UKYEL-BL002700430014
BI00B32J1    398578         202210177158-3167-80             WIRE SEAL                CCN002640000002640000FN00000000020221001002640000NNM   20220923121922    1C0C  00002000000000048000000109032J1    UKYEL-BL002700430014
BI00B32J1    398578         202210177158-3168-80             SEALED                   CCN007000000007000000FN00000000020221001007000000NNM   20220923121922    1C0C  00002000000000044000000092132J1    UKYEL-BL004300260014
BI00B32J1    398578         202210177196-1461-02             TERMINAL FEMALE          CCN000408000000408000FN00000000020221001000408000NNM   20220923121922    4P0P  00002400000000386400000671632J1    UKYEL-BL006400630015
BI00B32J1    398578         202210177196-1462-02             TERMINAL FEMALE          CCN000042000000042000FN00000000020221001000042000NNM   20220923121922    4P0P  00002100000000352800000638032J1    UKYEL-BL006400630015
BI00B32J1    398578         202210177282-5574-10             CONNECTOR                CCN000004000000004000FN00000000020221001000004000NNM   20220923121922    4N0N  00000080000001235000001423032J1    UKYEL-BL005600390040
BI00B32J1    398578         202210177282-6448-40             CONNECTOR                CCN000005600000005600FN00000000020221001000005600NNM   20220923121922    4N0N  00000080000000887000001152732J1    UKYEL-BL005600390040
BI00B32J1    398578         202210177283-1040                CONNECTOR                CCN000004000000004000FN00000000020221001000004000NNM   20220923121922    4N0N  00000200000000396000000670032J1    UKYEL-BL005600390040
BI00B32J1    398578         202210177283-1968-30             CONNECTOR                CCN000004500000004500FN00000000020221001000004500NNM   20220923121922    1N0N  00000090000001140000001318332J1    UKYEL-BL005600390040
BI00B32J1    398578         202210177283-5553-10             CONNECTOR                CCN000001000000001000FN00000000020221001000001000NNM   20220923121922    4N0N  00000100000001374000001658032J1    UKYEL-BL005600390040
BI00B32J1    398578         202210177283-6448-40             CONNECTOR                CCN000004500000004500FN00000000020221001000004500NNM   20220923121922    4N0N  00000150000001087000001329032J1    UKYEL-BL005600390040
BI00B32J1    398578         202210177283-8630                CONNECTOR ASS'Y          CCN000030000000030000FN00000000020221001000030000NNM   20220923121922    4N0N  00000600000000540000000701332J1    UKYEL-BL005400370024
BI00B32J1    398578         202210177289-5000                HOUSING FEMALE ASS'Y     CCN000000304000000304FN00000000020221001000000304NNM   20220923121922    1N0N  00000030400000549000000759032J1    UKYEL-BL005400370024
BI00B32J1    398578         202210177289-7970                HYBRID FEMALE ASS'Y      CCN000008320000008320FN00000000020221001000008320NNM   20220923121922    1N0N  00000032000000738200000964732J1    UKYEL-BL005400370024
BI00B32J1    398578         202210177327-6840-3W             BATTERY FUSE             CCN000003240000003240FN00000000020221001000003240NNM   20220923121922    4N0N  00000007200001140900001355932J1    UKYEL-BL005500360039
BI00B32J1    #398578        202210177047-5344                RETAINER                 CCN000010000000010000FN00000000020221001000010000NNM   20220923121922    2F0F  00001000000000870000001016032J1    UKYEL-BL005600390023
BI00B32J1    #398578        202210177147-8717-30             CLIP                     CCN000005000000005000FN00000000020221001000005000NNM   20220923121922    2F0F  00000500000000660000000875032J1    UKYEL-BL005600390040
BI00B32J1    #398578        202210177158-3654-80             WIRE TUBE                CCN000240000000240000FN00000000020221001000240000NNM   20220923121922    2H0H  00004000000000104000000152232J1    UKYEL-BL004300270014
BI00B32J1    #398578        202210177282-5545-10             CONNECTOR                CCN000012000000012000FN00000000020221001000012000NNM   20220923121922    2N0N  00000080000001293600001465332J1    UKYEL-BL005500360039
BI00B32J1    #398578        202210177282-6446-40             CONNECTOR                CCN000010500000010500FN00000000020221001000010500NNM   20220923121922    2N0N  00000150000001185000001368032J1    UKYEL-BL005500360039
BI00B32J1    #398578        202210177283-8226-30             CONNECTOR                CCN000002000000002000FN00000000020221001000002000NNM   20220923121922    2N0N  00000200000000820000001008032J1    UKYEL-BL005400370024
BI00B32J1    #398578        202210177283-8397-40             CONNECTOR                CCN000027720000027720FN00000000020221001000027720NNM   20220923121922    2N0N  00000154000001007000001222732J1    UKYEL-BL005600390023
BI00B32J1    398535         202211077114-4231-02             TERMINAL                 CCN000036000000036000FN00000000020221101000036000NNE   20220923121922    4P0P  00001800000000554400000848032J1    UKYEL-BL006400630015
BI00B32J1    398535         202211077116-1257-02             TERMINAL                 CCN000024000000024000FN00000000020221101000024000NNE   20220923121922    4P0P  00002400000000518400000847132J1    UKYEL-BL006400630017
BI00B32J1    398535         202211077116-1686-02             TERMINAL                 CCN000021000000021000FN00000000020221101000021000NNE   20220923121922    4P0P  00002100000000869400001021632J1    UKYEL-BL005100280028
BI00B32J1    398535         202211077158-3006-90             RUBBER STOPPER           CCN000440000000440000FN00000000020221101000440000NNE   20220923121922    1C0C  00002000000000330600000386032J1    UKYEL-BL002700430014
BI00B32J1    398535         202211077158-3070-80             RUBBER STOPPER           CCN001040000001040000FN00000000020221101001040000NNE   20220923121922    1C0C  00004000000000276000000333332J1    UKYEL-BL002700430014
BI00B32J1    398535         202211077158-3165-90             WIRE SEAL                CCN000560000000560000FN00000000020221101000560000NNE   20220923121922    1C0C  00004000000000124000000172432J1    UKYEL-BL004300270014
BI00B32J1    398535         202211077283-5846                HOUSING                  CCN000009000000009000FN00000000020221101000009000NNE   20220923121922    1N0N  00000150000000885000001102032J1    UKYEL-BL005600390040
BI00B32J1    398535         202211077288-3340-30             HOUSING MALE             CCN000001500000001500FN00000000020221101000001500NNE   20220923121922    4N0N  00000150000000861500001006432J1    UKYEL-BL005400370024
BI00B32J1    398535         202211077289-3342-30             HOUSING FEMALE ASS'Y     CCN000002400000002400FN00000000020221101000002400NNE   20220923121922    1N0N  00000240000000686400000901432J1    UKYEL-BL005500360039
BI00B32J1    #398535        202211077158-3008-80             RUBBER STOPPER           CCN000200000000200000FN00000000020221101000200000NNE   20220923121922    2C0C  00002000000000288000000343032J1    UKYEL-BL004300270014
BI00B32J1    #398535        202211077158-3120-90             CONNECTOR WIRE SEAL      CCN000020000000020000FN00000000020221101000020000NNE   20220923121922    2C0C  00002000000000136000000194032J1    UKYEL-BL002700430014
BI00B32J1    #398535        202211077158-3374-90             CONNECTOR WIRE SEAL      CCN000040000000040000FN00000000020221101000040000NNE   20220923121922    2H0H  00002000000000172000000229332J1    UKYEL-BL002700430014
BI00B32J1    #398535        202211077158-3376-50             CONNECTOR WIRE SEAL      CCN000040000000040000FN00000000020221101000040000NNE   20220923121922    2C0C  00002000000000184000000240732J1    UKYEL-BL002700430014
BI00B32J1    #398535        202211077183-7725-40             HOUSING                  CCN000042000000042000FN00000000020221101000042000NNE   20220923121922    2F0F  00000600000000840000001040032J1    UKYEL-BL005600390040
BI00B32J1    #398535        202211077283-8226-30             CONNECTOR                CCN000008000000008000FN00000000020221101000008000NNE   20220923121922    2N0N  00000200000000820000001008032J1    UKYEL-BL005400370024
BI00B32J1    398539         202211147283-5553-30             CONNECTOR                CCN000001000000001000FN00000000020221101000001000NNE   20220923121922    4N0N  00000100000001371000001666732J1    UKYEL-BL005600390040
BI00B32J1    #398541        202211217158-3120-90             CONNECTOR WIRE SEAL      CCN000020000000020000FN00000000020221101000020000NNE   20220923121922    2C0C  00002000000000136000000194032J1    UKYEL-BL002700430014
BI00B32J1    398674         202211217116-5045-02             TERMINAL                 CCN000016000000016000FN00000000020221101000016000NNE   20220923162723    4P0P  00001600000000678400001007132J1    UKYEL-BL006400630017
BI00B32J1    398675         202211077116-5046-02             TERMINAL                 CCN000012000000012000FN00000000020221101000012000NNE   20220923162729    4P0P  00001200000000544800000873532J1    UKYEL-BL006400630017
BI00B32M3    SM2211A MW     202210067282-4577                HOUSING MALE ASS'Y       CCN000004800000004800FN00000000020221101000004800NNE   20220923121922    4N0N  00000240000000964800001174832M3    SASAMI  005500360039
BI00B32M3    SM2211A MW     202210067287-3885-40             HYBRID FEMALE ASS'Y      CCN000002400000002400FN00000000020221101000002400NNE   20220923121922    1N0N  00000240000001029600001249632M3    SASAMI  005500360039
BI00B32M3    SM2211ADMW     202210067283-4577                CONNECTOR HOUSING        CCN000004800000004800FN00000000020221101000004800NNE   20220923121922    4N0N  00000480000000916800001136832M3    SASAMI  005500360039
BI00B32M4    TP2111         202210207327-6983-30             MAIN FUSE                CCN000011400000011400FN00000000020221101000011400NNMD0420220923154714    4N0N  00000060000000748800000951532M4    SISAI   005400370024
BI00B32Q8    #EU2210G MW    202210057283-8123                CONNECTOR HOUSING        CCN000004000000004000FN00000000020221001000004000NNE   20220923161118    2N0N  00000400000000380000000531732Q8    EMEMI   005600390023
BI00B32Q8    EU2211GTMW     202210057287-7599-40             HOUSING FEMALE ASS'Y     CCN000001600000001600FN00000000020221101000001600NNE   20220923161140    4N0N  00000160000001233600001445632Q8    EMEMI   005500360039
BI00B32Q8    EU2212A MW     202210267114-4112-02             TERMINAL                 CCN000009000000009000FN00000000020221201000009000NNE   20220923161146    4P0P  00000900000000598500000927132Q8    EMEMI   006400630017
BI00B32Q8    #EU2212ADMW    202211097183-8251-40             HOUSING                  CCN000002400000002400FN00000000020221201000002400NNE   20220923161153    2F0F  00000240000000357600000640032Q8    EMEMI   005500360039
BI00B32Q8    EU2212ATMW     202211027287-7599-40             HOUSING FEMALE ASS'Y     CCN000001600000001600FN00000000020221201000001600NNE   20220923161201    4N0N  00000160000001233600001445632Q8    EMEMI   005500360039
BI00B32Q8    EU2212B MW     202211027114-4100-02             TERMINAL                 CCN000036000000036000FN00000000020221201000036000NNE   20220923161212    4P0P  00001800000000748800001077432Q8    EMEMI   006400630017
BI00B32Q8    EU2212B MW     202211027114-4111-02             TERMINAL                 CCN000024000000024000FN00000000020221201000024000NNE   20220923161212    4P0P  00001200000000758400001087032Q8    EMEMI   006400630017
BI00B32Q8    EU2212B MW     202211027114-4112-02             TERMINAL                 CCN000018000000018000FN00000000020221201000018000NNE   20220923161212    4P0P  00000900000000598500000927132Q8    EMEMI   006400630017
BI00B32Q8    EU2212B MW     202211027116-4102-02             TERMINAL                 CCN000024000000024000FN00000000020221201000024000NNE   20220923161212    4P0P  00001200000000553200000841432Q8    EMEMI   006400630015
BI00B32Q8    #EU2212B MW    202211027283-8398-40             CONNECTOR                CCN000001540000001540FN00000000020221201000001540NNE   20220923161206    2N0N  00000154000001007000001171332Q8    EMEMI   005600390023
BI00B32Q8    EU2212BDMW     202211167298-4094-10             HOUSING FEMALE ASS'Y     CCN000003380000003380FN00000000020221201000003380NNE   20220923161217    4N0N  00000338000001097400001358732Q8    EMEMI   005400370024
BI00B32Q8    EU2212C MW     202211097114-4100-02             TERMINAL                 CCN000072000000072000FN00000000020221201000072000NNE   20220923161227    4P0P  00001800000000748800001077432Q8    EMEMI   006400630017
BI00B32Q8    EU2212C MW     202211097114-4110-02             TERMINAL                 CCN000015000000015000FN00000000020221201000015000NNE   20220923161227    4P0P  00001500000000901500001230132Q8    EMEMI   006400630017
BI00B32Q8    EU2212C MW     202211097114-4111-02             TERMINAL                 CCN000024000000024000FN00000000020221201000024000NNE   20220923161227    4P0P  00001200000000758400001087032Q8    EMEMI   006400630017
BI00B32Q8    EU2212C MW     202211097114-4415-02             TERMINAL MALE            CCN000027000000027000FN00000000020221201000027000NNE   20220923161227    4P0P  00002700000000429300000717532Q8    EMEMI   006400630015
BI00B32Q8    EU2212C MW     202211097116-4102-02             TERMINAL                 CCN000024000000024000FN00000000020221201000024000NNE   20220923161227    4P0P  00001200000000553200000841432Q8    EMEMI   006400630015
BI00B32Q8    #EU2212C MW    202211097283-8398-40             CONNECTOR                CCN000001540000001540FN00000000020221201000001540NNE   20220923161225    2N0N  00000154000001007000001171332Q8    EMEMI   005600390023
BI00B32Q8    EU2212D MW     202211167114-4110-02             TERMINAL                 CCN000015000000015000FN00000000020221201000015000NNE   20220923161232    4P0P  00001500000000901500001230132Q8    EMEMI   006400630017
BI00B32R7    #R-TAP220427   202210207114-4022                TERMINAL                 CCN000015000000015000FN00000000020221001000015000NNE   20220923121922    2F0P  00001500000000708000001120632R7    IVYCIC  006400630015
BI00B32R7    R-TAP220423    202210067116-1685-02             TERMINAL                 CCN000024000000024000FN00000000020221101000024000NNE   20220923121922    4P0P  00002400000000897600001065232R7    IVYCIC  005100280028
BI00B32R7    R-TAP220424    202210067116-1685-02             TERMINAL                 CCN000024000000024000FN00000000020221101000024000NNE   20220923121922    4P0P  00002400000000897600001065232R7    IVYCIC  005100280028
BI00B32R7    R-TAP220425    202211107298-1186-40             SQUIB SUB ASS'Y          CCN000070000000070000FN00000000020221101000070000NNE   20220923121922    4N0N  00001000000000650000000774532R7    IVYCIC  005400370024
BI00B32R7    R-TAP220426    202211177298-1186-40             SQUIB SUB ASS'Y          CCN000070000000070000FN00000000020221201000070000NNE   20220923121922    4N0N  00001000000000650000000774532R7    IVYCIC  005400370024
BI00B32W4    4500201002     202210207114-4100-02             TERMINAL                 CCN000018000000018000FN00000000020221001000018000NNE   20220923121922W46 4P0P  00001800000000748800001077432W46   HJYHK   006400630017
BI00B32W4    4500201002     202210207116-4111-02             TERMINAL                 CCN000007500000007500FN00000000020221001000007500NNE   20220923121922W46 4P0P  00000750000000529500000817732W46   HJYHK   006400630015
BI00B32W4    4500201002     202210207116-4112-02             TERMINAL                 CCN000384000000384000FN00000000020221001000384000NNE   20220923121922W46 4P0P  00000600000000450000000738232W46   HJYHK   006400630015
BI00B32W4    4500200939     202211037288-9556-30             SEALED ASSY MALE         CCN000030240000030240FN00000000020221101000030240NNE   20220923121922W4O74N0N  00000072000000537900000786332W4O7  H YHK-J 005500360039
BI00B32W4    4500201003     202210207116-4112-02             TERMINAL                 CCN000258000000258000FN00000000020221001000258000NNE   20220923121922W46 4P0P  00000600000000450000000738232W46   HJYHK   006400630015
BI00B32W4    4500201003     202210207116-4102-02             TERMINAL                 CCN000012000000012000FN00000000020221001000012000NNE   20220923121922W46 4P0P  00001200000000553200000841432W46   HJYHK   006400630015
BI00A32W4    4500200941     202211107114-4100-02             TERMINAL                 CCN000018000000018000FN00000000020221101000018000NNE   20220923121922W4204P0P  00001800000000748800001077432W420  HJYHK   006400630017
BI00A32W4    4500201006     202210277116-4231-02             TERMINAL                 CCN000130000000130000FN00000000020221001000130000NNE   20220923121922W4334P0P  00002600000000683800001012532W433  HJYHK   006400630017
BI00A32W4    4500201006     202210277114-4100-02             TERMINAL                 CCN000018000000018000FN00000000020221001000018000NNE   20220923121922W4334P0P  00001800000000748800001077432W433  HJYHK   006400630017
BI00B32W4    4500200955     202211107116-4100-02             TERMINAL                 CCN000045000000045000FN00000000020221101000045000NNE   20220923121922W4N24P0P  00001500000000696000000990232W4N2  HJYHK-J 006400630015
BI00B32W4    4500200955     202211107116-4111-02             TERMINAL                 CCN000015000000015000FN00000000020221101000015000NNE   20220923121922W4N24P0P  00000750000000529500000817732W4N2  HJYHK-J 006400630015
BI00B32W4    4500200955     202211107116-4102-02             TERMINAL                 CCN000024000000024000FN00000000020221101000024000NNE   20220923121922W4N24P0P  00001200000000553200000841432W4N2  HJYHK-J 006400630015
BI00B32W4    4500200955     202211107158-3168-80             SEALED                   CCN000020000000020000FN00000000020221101000020000NNE   20220923121922W4N21C0C  00002000000000044000000092132W4N2  HJYHK-J 004300260014
BI00B32W4    4500200955     202211107158-3166-60             WIRE SEAL                CCN000040000000040000FN00000000020221101000040000NNE   20220923121922W4N21C0C  00004000000000104000000152432W4N2  HJYHK-J 002700430014
BI00B32W4    4500200955     202211107116-4101-02             TERMINAL                 CCN000024000000024000FN00000000020221101000024000NNE   20220923121922W4N24P0P  00001200000000582000000876232W4N2  HJYHK-J 006400630015
BI00B32W4    @4500200957    202211247287-1238-30             HOUSING FEMALE ASS'Y     CCN000000780000000780FN00000000020221101000000780NNE   20220923121922W4N23N0N  00000078000000721100001122032W4N2  HJYHK-J 005500360039
BI00B32W4    4500200972     202211247116-4100-02             TERMINAL                 CCN000060000000060000FN00000000020221101000060000NNE   20220923121922W4654P0P  00001500000000696000000990232W465  HJYHK   006400630015
BI00B32W4    4500200972     202211247116-4111-02             TERMINAL                 CCN000037500000037500FN00000000020221101000037500NNE   20220923121922W4654P0P  00000750000000529500000817732W465  HJYHK   006400630015
BI00B32W4    4500200972     202211247116-4112-02             TERMINAL                 CCN000114000000114000FN00000000020221101000114000NNE   20220923121922W4654P0P  00000600000000450000000738232W465  HJYHK   006400630015
BI00B32W4    4500200972     202211247116-4102-02             TERMINAL                 CCN000024000000024000FN00000000020221101000024000NNE   20220923121922W4654P0P  00001200000000553200000841432W465  HJYHK   006400630015
BI00B32W4    4500200972     202211247116-4025                TERMINAL                 CCN000016000000016000FN00000000020221101000016000NNE   20220923121922W4654P0P  00001600000000644800000975132W465  HJYHK   006400630017
BI00B32W4    4500200972     202211247114-4111-02             TERMINAL                 CCN000036000000036000FN00000000020221101000036000NNE   20220923121922W4654P0P  00001200000000758400001087032W465  HJYHK   006400630017
BI00B32W4    4500200972     202211247116-4101-02             TERMINAL                 CCN000060000000060000FN00000000020221101000060000NNE   20220923121922W4654P0P  00001200000000582000000876232W465  HJYHK   006400630015
BI00B32W4    4500200972     202211247114-4101-02             TERMINAL                 CCN000015000000015000FN00000000020221101000015000NNE   20220923121922W4654P0P  00001500000000675000001003632W465  HJYHK   006400630017
BI00B32W4    4500200972     202211247116-4104-02             TERMINAL                 CCN000012000000012000FN00000000020221101000012000NNE   20220923121922W4654P0P  00001200000000580800000972432W465  HJYHK   006400630015
BI00B32W4    4500200972     202211247114-4110-02             TERMINAL                 CCN000015000000015000FN00000000020221101000015000NNE   20220923121922W4654P0P  00001500000000901500001230132W465  HJYHK   006400630017
BI00B32W4    4500200972     202211247116-4110-02             TERMINAL                 CCN000081000000081000FN00000000020221101000081000NNE   20220923121922W4654P0P  00000900000000594000000882232W465  HJYHK   006400630015
BI00B32W4    4500200972     202211247116-4103-02             TERMINAL                 CCN000012000000012000FN00000000020221101000012000NNE   20220923121922W4654P0P  00001200000000571200000859432W465  HJYHK   006400630015
BI00B32W4    4500200972     202211247283-1030                CONNECTOR                CCN000012000000012000FN00000000020221101000012000NNE   20220923121922W4654N0N  00000600000000988000001172032W465  HJYHK   005500360039
BI00B32W4    #4500200972    202211247158-3003-90             RUBBER STOPPER           CCN000020000000020000FN00000000020221101000020000NNE   20220923121922W4652C0C  00002000000000250000000306032W465  HJYHK   002700430014
BI00B32W4    4500201004     202211247116-4100-02             TERMINAL                 CCN000015000000015000FN00000000020221101000015000NNE   20220923121922W4L64P0P  00001500000000696000000990232W4L6  HJYHK-K 006400630015
BI00A32W4    4500200960     202212087158-3169-40             SEALING PLUG             CCN000080000000080000FN00000000020221201000080000NNE   20220923121922W4D31C0C  00004000000000156000000204132W4D3  HJYHK-J 004300260014
BI00A32W4    4500200961     202212017158-3169-40             SEALING PLUG             CCN000080000000080000FN00000000020221201000080000NNE   20220923121922W4D31C0C  00004000000000156000000204132W4D3  HJYHK-J 004300260014
BI00B32W4    #4500200973    202212087289-4104-40             HOUSING FEMALE ASS'Y     CCN000005000000005000FN00000000020221201000005000NNE   20220923121922W4652NON  00000050000000606900000821132W465  HJYHK   005400370024
BI00T32W4    4500201008     202212017172-5540-80             SEALED WIRE SEAL         CCN000060000000060000FN00000000020221201000060000NNE   20220923121922W4K81C0C  00002000000000186000000234432W4K8  HJYHK-J 004300270014
BI00B32W9    #4500200946    202210187158-3120-90             CONNECTOR WIRE SEAL      CCN000040000000040000FN00000000020221001000040000NNE   20220923121922W9  2C0C  00002000000000136000000194032W9    HKYHK   002700430014
BI00B32W9    #4500200991    202211087186-8845                HOUSING MALE             CCN000012000000012000FN00000000020221101000012000NNE   20220923121922W9  2F0F  00000300000000690000000801532W9    HKYHK   005400370024
