AE00TI102209230123/09/202200000004000000000000000009504KGM  00000019504KGM  7271-1818-30             CASE SUB ASSY,ECU        7271181830               0         0         0         0    0    0    00000072000000001800009388000067593600
AE00TI102209230123/09/202200000000100000000000000000699KGM  00000000909KGM  7282-4854                HOUSING MALE ASS'Y       72824854                 0         0         0         0    0    0    00000120000000120000000339000004068000
AE00TI102209230123/09/202200000000300000000000000002598KGM  00000003033KGM  7288-3329-30             HOUSING MALE             7288332930               0         0         0         0    0    0    00000450000000150000000354000015930000
AE00TI102209230123/09/202200000001000000000000000008660KGM  00000010109KGM  7288-3331-30             HOUSING MALE             7288333130               0         0         0         0    0    0    00001500000000150000000354000053100000
AE00TI102209230123/09/202200000000600000000000000004975KGM  00000006295KGM  7289-6518-30             HOUSING FEMALE ASS'Y     7289651830               0         0         0         0    0    0    00000720000000120000000598000043056000
AE00TI102209230123/09/202200000000300000000000000002518KGM  00000003358KGM  7289-6868-30             SEALED ASSY FEMALE       7289686830               0         0         0         0    0    0    00000756000000252000000332000025099200
AE00TI102209230123/09/202200000000100000000000000001097KGM  00000001359KGM  7298-4094-10             HOUSING FEMALE ASS'Y     7298409410               0         0         0         0    0    0    00000338000000338000000241000008145800
AE00TI102209230123/09/202200000002200000000000000024409KGM  00000027711KGM  7327-6424-4W             BATTERY FUSE             732764244W               0         0         0         0    0    0    00000211200000009600007969000168305280
AE00TI102209230123/09/202200000001200000000000000008904KGM  00000013464KGM  7388-2978-30             HOUSING MALE ASS'Y       7388297830               0         0         0         0    0    0    00000576000000048000001790000103104000
AE00TI102209230123/09/202200000000100000000000000000990KGM  00000000000KGM  7470-1693G               J/B COMPLETE ASS'Y       74701693G                0         0         0         0    0    0    00000000100000000100030345000000303450
AE00TI102209230123/09/202200000000400000000000000000000KGM  00000000000KGM  7470-5782E               J/B COMPLETE ASS'Y       74705782E                0         0         0         0    0    0    00000004000000001000000000000000000000
AE00TI102209230123/09/202200000002000000000000000000000KGM  00000000000KGM  7470-5783D               J/B COMPLETE ASS'Y       74705783D                0         0         0         0    0    0    00000030000000001500000000000000000000
AE00TI102209230123/09/202200000002500000000000000000000KGM  00000000000KGM  7470-5784D               J/B COMPLETE ASS'Y       74705784D                0         0         0         0    0    0    00000037500000001500000000000000000000
AE00TI102209230123/09/202200000002500000000000000000000KGM  00000000000KGM  7470-5823D               J/B COMPLETE ASS'Y       74705823D                0         0         0         0    0    0    00000037500000001500000000000000000000
AE00TI102209230123/09/202200000001300000000000000000000KGM  00000000000KGM  7470-5823E               J/B COMPLETE ASS'Y       74705823E                0         0         0         0    0    0    00000013000000001000000000000000000000
AE00TI102209230123/09/202200000002000000000000000000000KGM  00000000000KGM  7470-5858D               J/B COMPLETE ASS'Y       74705858D                0         0         0         0    0    0    00000020000000001000000000000000000000
