AE00TI102209230623/09/202200000000000000000000000000000KGM  00000000000KGM  38200-TF0-X031-M1        BOX ASSY FUSE            38200TF0X031M1           0         0         0         0    0    0    00000000100000000600000000000000000000
AE00TI102209230623/09/202200000000200000000000000001848KGM  00000002700KGM  38200-TM0-B010-M1        BOX ASSY FUSE            38200TM0B010M1           0         0         0         0    0    0    00000001400000000600000000000000000000
AE00TI102209230623/09/202200000000000000000000000000000KGM  00000000000KGM  38200-TM0-P131-M1        BOX ASSY FUSE            38200TM0P131M1           0         0         0         0    0    0    00000000200000000600000000000000000000
AE00TI102209230623/09/202200000000000000000000000000000KGM  00000000000KGM  38200-TM0-T232-M1        BOX ASSY FUSE            38200TM0T232M1           0         0         0         0    0    0    00000000400000000600000000000000000000
AE00TI102209230623/09/202200000000000000000000000000000KGM  00000000000KGM  38200-TM0-T430-M1        BOX ASSY FUSE            38200TM0T430M1           0         0         0         0    0    0    00000000100000000600000000000000000000
AE00TI102209230623/09/202200000000000000000000000000000KGM  00000000000KGM  38200-TM0-T713-M1        BOX ASSY FUSE            38200TM0T713M1           0         0         0         0    0    0    00000000300000000600000000000000000000
AE00TI102209230623/09/202200000000100000000000000000623KGM  00000000762KGM  7B74-1849-70             COVER                    7B74184970               0         0         0         0    0    0    00002500000002500000000046000011500000
AE00TI102209230623/09/202200000000300000000000000001868KGM  00000002286KGM  7174-1849-70             COVER                    7174184970               0         0         0         0    0    0    00007500000002500000000046000034500000
AE00TI102209230623/09/202200000008000000000000000019008KGM  00000039008KGM  7271-1818-30             CASE SUB ASSY,ECU        7271181830               0         0         0         0    0    0    00000144000000001800009388000135187200
AE00TI102209230623/09/202200000000100000000000000000894KGM  00000001185KGM  7287-9234                JOINT CONNECTOR          72879234                 0         0         0         0    0    0    00000960000000960000000137000013152000
AE00TI102209230623/09/202200000000500000000000000004331KGM  00000005056KGM  7288-3329-30             HOUSING MALE             7288332930               0         0         0         0    0    0    00000750000000150000000354000026550000
AE00TI102209230623/09/202200000000300000000000000002582KGM  00000003017KGM  7288-3332-30             HOUSING MALE             7288333230               0         0         0         0    0    0    00000450000000150000000354000015930000
AE00TI102209230623/09/202200000000500000000000000006027KGM  00000006702KGM  7288-6547                CONNECTOR MALE ASS'Y     72886547                 0         0         0         0    0    0    00000375000000075000001125000042187500
AE00TI102209230623/09/202200000001900000000000000013042KGM  00000017127KGM  7289-3342-30             HOUSING FEMALE ASS'Y     7289334230               0         0         0         0    0    0    00004560000000240000000191000087096000
AE00TI102209230623/09/202200000000600000000000000005035KGM  00000006715KGM  7289-6868-30             SEALED ASSY FEMALE       7289686830               0         0         0         0    0    0    00001512000000252000000332000050198400
AE00TI102209230623/09/202200000000200000000000000002218KGM  00000003043KGM  7289-9553-30             SEALED ASSY FEMALE       7289955330               0         0         0         0    0    0    00000588000000294000000245000014406000
AE00TI102209230623/09/202200000000200000000000000002216KGM  00000003041KGM  7289-9553-50             SEALED ASSY FEMALE       7289955350               0         0         0         0    0    0    00000588000000294000000252000014817600
AE00TI102209230623/09/202200000000100000000000000001097KGM  00000001359KGM  7298-4094-10             HOUSING FEMALE ASS'Y     7298409410               0         0         0         0    0    0    00000338000000338000000241000008145800
AE00TI102209230623/09/202200000000600000000000000005889KGM  00000007740KGM  7298-5993-30             SEALED ASSY FEMALE       7298599330               0         0         0         0    0    0    00001310400000218400000266000034856640
AE00TI102209230623/09/202200000000400000000000000004564KGM  00000005424KGM  7327-6840-3W             BATTERY FUSE             732768403W               0         0         0         0    0    0    00000028800000007200009909000028537920
AE00TI102209230623/09/202200000000300000000000000002985KGM  00000003375KGM  7388-0313-30             CONNECTOR ASS'Y          7388031330               0         0         0         0    0    0    00000360000000120000000376000013536000
AE00TI102209230623/09/202200000001100000000000000008162KGM  00000012342KGM  7388-2978-30             HOUSING MALE ASS'Y       7388297830               0         0         0         0    0    0    00000528000000048000001790000094512000
AE00TI102209230623/09/202200000000800000000000000010560KGM  00000012560KGM  7470-4481                J/B COMPLETE ASS'Y       74704481                 0         0         0         0    0    0    00000019200000002400000000000000000000
AE00TI102209230623/09/202200000001000000000000000013200KGM  00000015700KGM  7470-4797                J/B COMPLETE ASS'Y       74704797                 0         0         0         0    0    0    00000024000000002400031662000075988800
AE00TI102209230623/09/202200000001000000000000000000000KGM  00000000000KGM  7470-5783D               J/B COMPLETE ASS'Y       74705783D                0         0         0         0    0    0    00000015000000001500000000000000000000
AE00TI102209230623/09/202200000001800000000000000000000KGM  00000000000KGM  7470-5783E               J/B COMPLETE ASS'Y       74705783E                0         0         0         0    0    0    00000018000000001000000000000000000000
AE00TI102209230623/09/202200000000500000000000000000000KGM  00000000000KGM  7470-5784D               J/B COMPLETE ASS'Y       74705784D                0         0         0         0    0    0    00000007500000001500000000000000000000
AE00TI102209230623/09/202200000003000000000000000000000KGM  00000000000KGM  7470-5784E               J/B COMPLETE ASS'Y       74705784E                0         0         0         0    0    0    00000030000000001000000000000000000000
AE00TI102209230623/09/202200000003600000000000000017784KGM  00000023796KGM  7470-5933                J/B COMPLETE ASS'Y       74705933                 0         0         0         0    0    0    00000036000000001000000000000000000000
AE00TI102209230723/09/202200000001300000000000000009750KGM  00000010816KGM  REEL-A36                 ALUMINUM REEL            REELA36                  0         0         0         0    0    0    00000003900000000300217262000084732180
AE00TI102209230723/09/202200000000300000000000000002646KGM  00000002898KGM  REEL-B36                 ALUMINUM REEL            REELB36                  0         0         0         0    0    0    00000000900000000300236638000021297420
AE00TI102209230723/09/202200000001600000000000000009792KGM  00000011136KGM  REEL-B42                 ALUMINUM REEL            REELB42                  0         0         0         0    0    0    00000003200000000200241676000077336320
AE00TI102209230723/09/202200000001000000000000000001705KGM  00000002189KGM  7137-3047-30             UNIT PACKING             7137304730               0         0         0         0    0    0    00001000000000100000000189000018900000
AE00TI102209230723/09/202200000002800000000000000009257KGM  00000010808KGM  7158-3006-90             RUBBER STOPPER           7158300690               0         0         0         0    0    0    00056000000002000000000016000089600000
AE00TI102209230723/09/202200000001700000000000000005746KGM  00000006565KGM  7158-3009-60             RUBBER STOPPER           7158300960               0         0         0         0    0    0    00034000000002000000000012000040800000
AE00TI102209230723/09/202200000000100000000000000000276KGM  00000000333KGM  7158-3070-80             RUBBER STOPPER           7158307080               0         0         0         0    0    0    00004000000004000000000008000003200000
AE00TI102209230723/09/202200000001600000000000000001664KGM  00000002438KGM  7158-3166-60             WIRE SEAL                7158316660               0         0         0         0    0    0    00064000000004000000000004000025600000
AE00TI102209230723/09/202200000000400000000000000000624KGM  00000000816KGM  7158-3169-40             SEALING PLUG             7158316940               0         0         0         0    0    0    00016000000004000000000006000009600000
AE00TI102209230723/09/202200000000600000000000000001116KGM  00000001406KGM  7172-5540-80             SEALED WIRE SEAL         7172554080               0         0         0         0    0    0    00012000000002000000000010000012000000
