AE00TI102209230423/09/202200000000100000000000000000700KGM  00000000963KGM  7157-6287-70             SPACER                   7157628770               0         0         0         0    0    0    00007000000007000000000076000053200000
AE00TI102209230423/09/202200000000200000000000000000500KGM  00000000612KGM  7158-3003-90             RUBBER STOPPER           7158300390               0         0         0         0    0    0    00004000000002000000000012000004800000
AE00TI102209230423/09/202200000001200000000000000013240KGM  00000014974KGM  7183-7665-30             HOUSING                  7183766530               0         0         0         0    0    0    00001440000000120000000242000034848000
AE00TI102209230423/09/202200000000400000000000000003278KGM  00000003790KGM  7198-1373-60             HOUSING FEMALE           7198137360               0         0         0         0    0    0    00000800000000200000000134000010720000
AE00TI102209230423/09/202200000001800000000000000000000KGM  00000000000KGM  7273-2981-0WD            CASSETTE BRACKET         727329810WD              0         0         0         0    0    0    00000180000000010000000000000000000000
AE00TI102209230423/09/202200000001000000000000000000000KGM  00000000000KGM  7273-2981-0WE            CASSETTE BRACKET         727329810WE              0         0         0         0    0    0    00000080000000008000000000000000000000
AE00TI102209230423/09/202200000005100000000000000000000KGM  00000000000KGM  7273-2982-0WD            CASSETTE BRACKET         727329820WD              0         0         0         0    0    0    00000510000000010000000000000000000000
AE00TI102209230423/09/202200000001900000000000000000000KGM  00000000000KGM  7273-2982-0WE            CASSETTE BRACKET         727329820WE              0         0         0         0    0    0    00000285000000015000000000000000000000
AE00TI102209230423/09/202200000002600000000000000000000KGM  00000000000KGM  7273-2983-0WD            CASSETTE BRACKET         727329830WD              0         0         0         0    0    0    00000260000000010000000000000000000000
AE00TI102209230423/09/202200000000700000000000000000614KGM  00000000981KGM  7273-3238-0W             CASSETTE BRACKET         727332380W               0         0         0         0    0    0    00000070000000010000000372000002604000
AE00TI102209230423/09/202200000000200000000000000001590KGM  00000002024KGM  7282-1065                CONNECTOR                72821065                 0         0         0         0    0    0    00000300000000150000000415000012450000
AE00TI102209230423/09/202200000000100000000000000001167KGM  00000001372KGM  7282-1248                HOUSING SUB ASSEMBLY     72821248                 0         0         0         0    0    0    00000060000000060000000490000002940000
AE00TI102209230423/09/202200000000100000000000000001167KGM  00000001372KGM  7282-1248-30             HOUSING SUB ASSEMBLY     7282124830               0         0         0         0    0    0    00000060000000060000000503000003018000
AE00TI102209230423/09/202200000000200000000000000001930KGM  00000002350KGM  7282-4577                HOUSING MALE ASS'Y       72824577                 0         0         0         0    0    0    00000480000000240000000229000010992000
AE00TI102209230423/09/202200000000500000000000000003913KGM  00000004963KGM  7282-4578                HOUSING MALE ASS'Y       72824578                 0         0         0         0    0    0    00000600000000120000000255000015300000
AE00TI102209230423/09/202200000000200000000000000002126KGM  00000002566KGM  7282-4855                HOUSING MALE ASS'Y       72824855                 0         0         0         0    0    0    00000240000000120000000347000008328000
AE00TI102209230423/09/202200000000200000000000000002248KGM  00000002425KGM  7282-7028-30             CONNECTOR                7282702830               0         0         0         0    0    0    00000400000000200000000248000009920000
AE00TI102209230423/09/202200000000100000000000000001356KGM  00000001520KGM  7282-8120                CONNECTOR HOUSING        72828120                 0         0         0         0    0    0    00000300000000300000000212000006360000
AE00TI102209230423/09/202200000000400000000000000005424KGM  00000006080KGM  7282-8120-30             CONNECTOR HOUSING        7282812030               0         0         0         0    0    0    00001200000000300000000000000000000000
AE00TI102209230423/09/202200000000300000000000000004068KGM  00000004560KGM  7282-8120-40             CONNECTOR HOUSING        7282812040               0         0         0         0    0    0    00000900000000300000000215000019350000
AE00TI102209230423/09/202200000000300000000000000003053KGM  00000003713KGM  7282-9391                HOUSING MALE ASS'Y       72829391                 0         0         0         0    0    0    00000360000000120000000325000011700000
AE00TI102209230423/09/202200000000100000000000000000624KGM  00000000973KGM  7283-1114-30             CONNECTOR                7283111430               0         0         0         0    0    0    00000200000000200000000568000011360000
AE00TI102209230423/09/202200000000300000000000000002007KGM  00000002798KGM  7283-1140                CONNECTOR HOUSING        72831140                 0         0         0         0    0    0    00000450000000150000000259000011655000
AE00TI102209230423/09/202200000000100000000000000000852KGM  00000001011KGM  7283-1222                CONNECTOR                72831222                 0         0         0         0    0    0    00000120000000120000000367000004404000
AE00TI102209230423/09/202200000000800000000000000011048KGM  00000013096KGM  7283-1288                CONNECTOR HOUSING        72831288                 0         0         0         0    0    0    00000960000000120000000781000074976000
AE00TI102209230423/09/202200000000100000000000000001381KGM  00000001637KGM  7283-1288-10             CONNECTOR HOUSING        7283128810               0         0         0         0    0    0    00000120000000120000000785000009420000
AE00TI102209230423/09/202200000000700000000000000009674KGM  00000011485KGM  7283-1288-40             CONNECTOR HOUSING        7283128840               0         0         0         0    0    0    00000840000000120000000785000065940000
AE00TI102209230423/09/202200000000100000000000000000651KGM  00000000871KGM  7283-4576-30             HOUSING FEMALE ASS'Y     7283457630               0         0         0         0    0    0    00000480000000480000000131000006288000
AE00TI102209230423/09/202200000000100000000000000000651KGM  00000000871KGM  7283-4576-90             HOUSING FEMALE ASS'Y     7283457690               0         0         0         0    0    0    00000480000000480000000133000006384000
AE00TI102209230423/09/202200000000400000000000000003350KGM  00000004230KGM  7283-4578                HOUSING FEMALE ASS'Y     72834578                 0         0         0         0    0    0    00000960000000240000000190000018240000
AE00TI102209230423/09/202200000000100000000000000001546KGM  00000001846KGM  7283-5623-60             CONNECTOR                7283562360               0         0         0         0    0    0    00000160000000160000000568000009088000
AE00TI102209230423/09/202200000000200000000000000001908KGM  00000002208KGM  7283-5830                CONNECTOR                72835830                 0         0         0         0    0    0    00001200000000600000000154000018480000
AE00TI102209230423/09/202200000000100000000000000000954KGM  00000001104KGM  7283-5830-30             CONNECTOR                7283583030               0         0         0         0    0    0    00000600000000600000000155000009300000
AE00TI102209230423/09/202200000000100000000000000000724KGM  00000000874KGM  7283-5832                CONNECTOR HOUSING        72835832                 0         0         0         0    0    0    00000240000000240000000206000004944000
AE00TI102209230423/09/202200000000100000000000000000724KGM  00000000874KGM  7283-5832-30             CONNECTOR HOUSING        7283583230               0         0         0         0    0    0    00000240000000240000000208000004992000
AE00TI102209230423/09/202200000000100000000000000000889KGM  00000001132KGM  7283-5843                CONNECTOR                72835843                 0         0         0         0    0    0    00000150000000150000000280000004200000
AE00TI102209230423/09/202200000000400000000000000001776KGM  00000002425KGM  7283-5845                CONNECTOR HOUSING        72835845                 0         0         0         0    0    0    00002400000000600000000133000031920000
AE00TI102209230423/09/202200000000100000000000000000885KGM  00000001102KGM  7283-5846                HOUSING                  72835846                 0         0         0         0    0    0    00000150000000150000000241000003615000
AE00TI102209230423/09/202200000000100000000000000000914KGM  00000001143KGM  7283-6120                CONNECTOR HOUSING        72836120                 0         0         0         0    0    0    00000150000000150000000368000005520000
AE00TI102209230423/09/202200000000200000000000000002904KGM  00000003363KGM  7283-7028-30             CONNECTOR                7283702830               0         0         0         0    0    0    00000600000000300000000520000031200000
AE00TI102209230423/09/202200000000100000000000000001060KGM  00000001181KGM  7283-7029                CONNECTOR                72837029                 0         0         0         0    0    0    00000600000000600000000227000013620000
AE00TI102209230423/09/202200000000400000000000000004128KGM  00000004824KGM  7283-7029-30             CONNECTOR                7283702930               0         0         0         0    0    0    00002400000000600000000231000055440000
AE00TI102209230423/09/202200000000100000000000000001026KGM  00000001200KGM  7283-7029-40             CONNECTOR                7283702940               0         0         0         0    0    0    00000600000000600000000231000013860000
AE00TI102209230423/09/202200000000100000000000000000990KGM  00000001249KGM  7283-7526                CONNECTOR HOUSING        72837526                 0         0         0         0    0    0    00000196000000196000000503000009858800
AE00TI102209230423/09/202200000000400000000000000003959KGM  00000004994KGM  7283-7526-30             CONNECTOR HOUSING        7283752630               0         0         0         0    0    0    00000784000000196000000506000039670400
AE00TI102209230423/09/202200000000200000000000000001980KGM  00000002497KGM  7283-7526-40             CONNECTOR HOUSING        7283752640               0         0         0         0    0    0    00000392000000196000000504000019756800
AE00TI102209230423/09/202200000000600000000000000005464KGM  00000006784KGM  7286-3885                CONNECTOR MALE ASS'Y     72863885                 0         0         0         0    0    0    00000720000000120000000295000021240000
AE00TI102209230423/09/202200000000400000000000000003642KGM  00000004522KGM  7286-3885-40             CONNECTOR MALE ASS'Y     7286388540               0         0         0         0    0    0    00000480000000120000000313000015024000
AE00TI102209230423/09/202200000001300000000000000009984KGM  00000012714KGM  7286-4097                CONNECTOR MALE ASS'Y     72864097                 0         0         0         0    0    0    00002080000000160000000196000040768000
AE00TI102209230423/09/202200000000200000000000000002059KGM  00000002499KGM  7287-3885                HYBRID FEMALE ASS'Y      72873885                 0         0         0         0    0    0    00000480000000240000000207000009936000
AE00TI102209230423/09/202200000000400000000000000004118KGM  00000004998KGM  7287-3885-30             HYBRID FEMALE ASS'Y      7287388530               0         0         0         0    0    0    00000960000000240000000215000020640000
AE00TI102209230423/09/202200000000100000000000000001030KGM  00000001250KGM  7287-3885-40             HYBRID FEMALE ASS'Y      7287388540               0         0         0         0    0    0    00000240000000240000000216000005184000
AE00TI102209230423/09/202200000000700000000000000008551KGM  00000010091KGM  7287-8072                HOUSING FEMALE ASS'Y     72878072                 0         0         0         0    0    0    00001680000000240000000247000041496000
AE00TI102209230423/09/202200000000200000000000000002333KGM  00000002773KGM  7287-8073                HOUSING FEMALE ASS'Y     72878073                 0         0         0         0    0    0    00000480000000240000000244000011712000
AE00TI102209230423/09/202200000000200000000000000002458KGM  00000002898KGM  7287-8999                HOUSING FEMALE ASS'Y     72878999                 0         0         0         0    0    0    00000960000000480000000163000015648000
AE00TI102209230423/09/202200000000100000000000000001229KGM  00000001449KGM  7287-9000                HOUSING FEMALE ASS'Y     72879000                 0         0         0         0    0    0    00000480000000480000000162000007776000
AE00TI102209230423/09/202200000000400000000000000002150KGM  00000002760KGM  7287-9323                UNSEALED HOUSING SUB     72879323                 0         0         0         0    0    0    00000960000000240000000146000014016000
AE00TI102209230423/09/202200000000100000000000000000538KGM  00000000690KGM  7287-9323-40             UNSEALED HOUSING SUB     7287932340               0         0         0         0    0    0    00000240000000240000000155000003720000
AE00TI102209230423/09/202200000000900000000000000003488KGM  00000007088KGM  7288-3206                HOUSING MALE ASS'Y       72883206                 0         0         0         0    0    0    00000918000000102000000351000032221800
AE00TI102209230423/09/202200000004500000000000000039429KGM  00000049577KGM  7288-7969                HYBRID MALE ASS'Y        72887969                 0         0         0         0    0    0    00001440000000032000001019000146736000
AE00TI102209230423/09/202200000001500000000000000010296KGM  00000013521KGM  7289-3342                HOUSING FEMALE ASS'Y     72893342                 0         0         0         0    0    0    00003600000000240000000186000066960000
AE00TI102209230423/09/202200000001000000000000000006864KGM  00000009014KGM  7289-3342-40             HOUSING FEMALE ASS'Y     7289334240               0         0         0         0    0    0    00002400000000240000000192000046080000
AE00TI102209230423/09/202200000001500000000000000010296KGM  00000013521KGM  7289-3342-90             HOUSING FEMALE ASS'Y     7289334290               0         0         0         0    0    0    00003600000000240000000196000070560000
AE00TI102209230423/09/202200000001200000000000000016214KGM  00000019994KGM  7289-6524-30             HOUSING FEMALE ASS'Y     7289652430               0         0         0         0    0    0    00000288000000024000004757000137001600
AE00TI102209230423/09/202200000000100000000000000001152KGM  00000001362KGM  7289-6547                HOUSING FEMALE ASS'Y     72896547                 0         0         0         0    0    0    00000240000000240000000229000005496000
AE00TI102209230423/09/202200000000200000000000000002558KGM  00000003187KGM  7289-7208-30             HOUSING FEMALE ASS'Y     7289720830               0         0         0         0    0    0    00000048000000024000004419000021211200
