AE00TI102209230523/09/202200000001600000000000000014011KGM  00000018709KGM  7114-4020                TERMINAL                 71144020                 0         0         0         0    0    0    00033600000002100000000023000077280000
AE00TI102209230523/09/202200000000000000000000000000000KGM  00000000000KGM  7116-3153-02             TERMINAL FEMALE          7116315302               0         0         0         0    0    0    00000900000002700000000015000001350000
AE00TI102209230523/09/202200000001600000000000000007517KGM  00000012080KGM  7116-3154-02             TERMINAL FEMALE          7116315402               0         0         0         0    0    0    00043200000002700000000015000064800000
AE00TI102209230523/09/202200000001000000000000000005130KGM  00000007982KGM  7116-4020                TERMINAL                 71164020                 0         0         0         0    0    0    00013500000001350000000028000037800000
AE00TI102209230523/09/202200000001500000000000000009672KGM  00000014627KGM  7116-4025                TERMINAL                 71164025                 0         0         0         0    0    0    00024000000001600000000034000081600000
AE00TI102209230523/09/202200000001400000000000000009296KGM  00000013920KGM  7116-4026                TERMINAL                 71164026                 0         0         0         0    0    0    00022400000001600000000033000073920000
AE00TI102209230523/09/202200000000600000000000000003319KGM  00000005048KGM  7116-4102-02             TERMINAL                 7116410202               0         0         0         0    0    0    00007200000001200000000037000026640000
AE00TI102209230523/09/202200000001600000000000000008928KGM  00000013491KGM  7196-0805-02             TERMINAL FEMALE          7196080502               0         0         0         0    0    0    00036000000002250000000021000075600000
