AE00TI102209230223/09/202200000003000000000000000005115KGM  00000006567KGM  7137-3047-30             UNIT PACKING             7137304730               0         0         0         0    0    0    00003000000000100000000189000056700000
AE00TI102209230223/09/202200000000600000000000000003252KGM  00000004328KGM  7147-3642-30             CLIP                     7147364230               0         0         0         0    0    0    00001800000000300000000074000013320000
AE00TI102209230223/09/202200000000200000000000000001654KGM  00000002204KGM  7154-5712-30             CASSETTE R/B             7154571230               0         0         0         0    0    0    00000160000000080000000288000004608000
AE00TI102209230223/09/202200000002900000000000000009587KGM  00000011194KGM  7158-3006-90             RUBBER STOPPER           7158300690               0         0         0         0    0    0    00058000000002000000000016000092800000
AE00TI102209230223/09/202200000001400000000000000004732KGM  00000005407KGM  7158-3009-60             RUBBER STOPPER           7158300960               0         0         0         0    0    0    00028000000002000000000012000033600000
AE00TI102209230223/09/202200000002200000000000000006072KGM  00000007333KGM  7158-3070-80             RUBBER STOPPER           7158307080               0         0         0         0    0    0    00088000000004000000000008000070400000
AE00TI102209230223/09/202200000002700000000000000002808KGM  00000004115KGM  7158-3166-60             WIRE SEAL                7158316660               0         0         0         0    0    0    00108000000004000000000004000043200000
AE00TI102209230223/09/202200000001300000000000000000624KGM  00000001417KGM  7158-3167-80             WIRE SEAL                7158316780               0         0         0         0    0    0    00026000000002000000000005000013000000
AE00TI102209230223/09/202200000001800000000000000000792KGM  00000001658KGM  7158-3168-80             SEALED                   7158316880               0         0         0         0    0    0    00036000000002000000000004000014400000
AE00TI102209230223/09/202200000000800000000000000001248KGM  00000001633KGM  7158-3169-40             SEALING PLUG             7158316940               0         0         0         0    0    0    00032000000004000000000006000019200000
AE00TI102209230223/09/202200000001000000000000000001860KGM  00000002344KGM  7172-5540-80             SEALED WIRE SEAL         7172554080               0         0         0         0    0    0    00020000000002000000000010000020000000
AE00TI102209230223/09/202200000000500000000000000003910KGM  00000004510KGM  7174-1315-30             SEALED COVER             7174131530               0         0         0         0    0    0    00000400000000080000000459000018360000
AE00TI102209230223/09/202200000000100000000000000000814KGM  00000000923KGM  7174-1760-50             CAP                      7174176050               0         0         0         0    0    0    00000300000000300000000100000003000000
AE00TI102209230223/09/202200000000200000000000000002564KGM  00000002954KGM  7182-4941                DOUBLE SIDED             71824941                 0         0         0         0    0    0    00000200000000100000000816000016320000
AE00TI102209230223/09/202200000000100000000000000000951KGM  00000001230KGM  7183-0522                HOUSING                  71830522                 0         0         0         0    0    0    00000240000000240000000113000002712000
AE00TI102209230223/09/202200000000100000000000000000478KGM  00000000760KGM  7183-2413                CONNECTOR HOUSING        71832413                 0         0         0         0    0    0    00000480000000480000000074000003552000
AE00TI102209230223/09/202200000000100000000000000000478KGM  00000000760KGM  7183-2413-30             CONNECTOR HOUSING        7183241330               0         0         0         0    0    0    00000480000000480000000076000003648000
AE00TI102209230223/09/202200000000100000000000000000779KGM  00000001061KGM  7183-2414                CONNECTOR HOUSING        71832414                 0         0         0         0    0    0    00000480000000480000000050000002400000
AE00TI102209230223/09/202200000000100000000000000000917KGM  00000001477KGM  7183-2418                CONNECTOR HOUSING        71832418                 0         0         0         0    0    0    00000480000000480000000078000003744000
AE00TI102209230223/09/202200000000100000000000000000819KGM  00000001102KGM  7183-6320-30             HOUSING                  7183632030               0         0         0         0    0    0    00000480000000480000000114000005472000
AE00TI102209230223/09/202200000000300000000000000001738KGM  00000002059KGM  7189-9519-80             HOUSING                  7189951980               0         0         0         0    0    0    00000600000000200000000243000014580000
AE00TI102209230223/09/202200000000500000000000000005150KGM  00000005880KGM  7222-7484-40             CONNECTOR                7222748440               0         0         0         0    0    0    00000500000000100000000758000037900000
AE00TI102209230223/09/202200000000600000000000000005802KGM  00000006582KGM  7222-7564-40             CONNECTOR                7222756440               0         0         0         0    0    0    00000300000000050000001166000034980000
AE00TI102209230223/09/202200000008000000000000000019008KGM  00000039008KGM  7271-1818-30             CASE SUB ASSY,ECU        7271181830               0         0         0         0    0    0    00000144000000001800009388000135187200
AE00TI102209230223/09/202200000000100000000000000001153KGM  00000001310KGM  7283-1065                CONNECTOR                72831065                 0         0         0         0    0    0    00000250000000250000000278000006950000
AE00TI102209230223/09/202200000000300000000000000002633KGM  00000003234KGM  7283-1156                CONNECTOR                72831156                 0         0         0         0    0    0    00000240000000080000000810000019440000
AE00TI102209230223/09/202200000000100000000000000001160KGM  00000001341KGM  7283-1485                CONNECTOR                72831485                 0         0         0         0    0    0    00000200000000200000000366000007320000
AE00TI102209230223/09/202200000000100000000000000000917KGM  00000001137KGM  7283-4577                CONNECTOR HOUSING        72834577                 0         0         0         0    0    0    00000480000000480000000172000008256000
AE00TI102209230223/09/202200000000100000000000000000678KGM  00000000945KGM  7283-6036                CONNECTOR HOUSING        72836036                 0         0         0         0    0    0    00000160000000160000000260000004160000
AE00TI102209230223/09/202200000000400000000000000003415KGM  00000004181KGM  7287-9155                HOUSING FEMALE ASS'Y     72879155                 0         0         0         0    0    0    00000384000000096000000357000013708800
AE00TI102209230223/09/202200000000100000000000000000866KGM  00000001011KGM  7288-3329-30             HOUSING MALE             7288332930               0         0         0         0    0    0    00000150000000150000000354000005310000
AE00TI102209230223/09/202200000000300000000000000002599KGM  00000003034KGM  7288-3330-30             HOUSING MALE             7288333030               0         0         0         0    0    0    00000450000000150000000354000015930000
AE00TI102209230223/09/202200000001200000000000000010392KGM  00000012131KGM  7288-3331-30             HOUSING MALE             7288333130               0         0         0         0    0    0    00001800000000150000000354000063720000
AE00TI102209230223/09/202200000000500000000000000004304KGM  00000005029KGM  7288-3332-30             HOUSING MALE             7288333230               0         0         0         0    0    0    00000750000000150000000354000026550000
AE00TI102209230223/09/202200000000400000000000000003464KGM  00000004048KGM  7288-3338-30             HOUSING MALE             7288333830               0         0         0         0    0    0    00000600000000150000000354000021240000
AE00TI102209230223/09/202200000000100000000000000000862KGM  00000001006KGM  7288-3340-30             HOUSING MALE             7288334030               0         0         0         0    0    0    00000150000000150000000354000005310000
AE00TI102209230223/09/202200000002200000000000000015101KGM  00000019831KGM  7289-3342-30             HOUSING FEMALE ASS'Y     7289334230               0         0         0         0    0    0    00005280000000240000000191000100848000
AE00TI102209230223/09/202200000001600000000000000013675KGM  00000017035KGM  7289-5979-30             HOUSING FEMALE ASS'Y     7289597930               0         0         0         0    0    0    00000403200000025200001346000054270720
AE00TI102209230223/09/202200000000400000000000000003357KGM  00000004477KGM  7289-6868-30             SEALED ASSY FEMALE       7289686830               0         0         0         0    0    0    00001008000000252000000332000033465600
AE00TI102209230223/09/202200000000100000000000000001108KGM  00000001521KGM  7289-9553-50             SEALED ASSY FEMALE       7289955350               0         0         0         0    0    0    00000294000000294000000252000007408800
AE00TI102209230223/09/202200000000300000000000000002985KGM  00000003375KGM  7388-0313-30             CONNECTOR ASS'Y          7388031330               0         0         0         0    0    0    00000360000000120000000376000013536000
