BI00B32AF    @TTB210H       20221012181AD2007ZZ              CIVUSAS-S 0.5X1 B        CCN000003000000003000FN00000000020221001000003000NNE   20220923115204    1W    00000050000001639600000000032AF    HBYHVTB 000000000000UU429001
BI00B32AF    @TTB211B       20221012181AD2007ZZ              CIVUSAS-S 0.5X1 B        CCN000002500000002500FN00000000020221101000002500NNE   20220923115205    1W    00000050000001639600000000032AF    HBYHVTB 000000000000UY429001
BI00B32A7    ZZ2210BLMW     2022101918000004560              AV 8 G                   CCN000007000000007000FN00000000020221001000007000NNE   20220923140141    1W    00000010000010466200000000032A7    ZZZZY   000000000000ZV12A004
BI00B32A7    ZZ2210BLMW     2022101918000004550              AV 8 R                   CCN000005000000005000FN00000000020221001000005000NNE   20220923140141    1W    00000010000010466200000000032A7    ZZZZY   000000000000ZV12A005
BI00B32A7    ZZ2210BLMW     2022101918000004540              AV 8 W                   CCN000005000000005000FN00000000020221001000005000NNE   20220923140141    1W    00000010000010466200000000032A7    ZZZZY   000000000000ZV12A006
BI00B32A7    ZZ2210BLMW     2022101918000004570              AV 8 Y                   CCN000002000000002000FN00000000020221001000002000NNE   20220923140141    1W    00000010000010466200000000032A7    ZZZZY   000000000000ZV12A007
BI00B32A7    @ZZ2210BLMW    20221019181E48040ZZ              CAVSAS-S 0.3X2 GY/V      CCN000009450000009450FN00000000020221001000009450NNE   20220923140140    1W    00000035000002008700000000032A7    ZZZZY   000000000000ZV12A003
BI00B32CJ    TTQ2112        2022102118000004530              AV 8 B                   CCN000003200000001800FN00000000020221101000001800NNM12 20220923135257    1W    00000010000010466200000000032CJ    QNYHVQN 000000000000UQ12A025
BI00B32CJ    TTQ2112        2022102118007704130              AVSS 1.25F B             CCN000001600000000000FY00000000020221101000000000NNM12 20220923135311    1W    00000080000001389000000000032CJ    QNYHVQN 000000000000UQ12A027
BI00B32CJ    @TTQ2114       20221104181E48011ZZ              CAVSAS-S 0.3X1 GY/W      CCN000001000000000000FY00000000020221101000000000NNM12 20220923135433    1W    00000050000001529500000000032CJ    QNYHVQN 000000000000UQ32A023
BI00B32CJ    @TTQ211B       20221021181E48011ZZ              CAVSAS-S 0.3X1 GY/W      CCN000002000000000000FY00000000020221101000000000NNE12 20220923135444    1W    00000050000001529500000000032CJ    QNYHVQN 000000000000UV12A006
BI00B32DE    @TT211B        20221012181AD2002ZZ              CIVUSAS-S 0.35X2 B       CCN000004950000004950FN00000000020221101000004950NNE   20220923141348    1W    00000045000001713700000000032DE    TVYEV-TV000000000000VR429001
BI00B32DE    @TT211B        20221012181AD2003ZZ              CIVUSAS-S 0.35X3 B       CCN000002800000002800FN00000000020221101000002800NNE   20220923141348    1W    00000035000002172100000000032DE    TVYEV-TV000000000000VR429002
BI00B32DE    @TT211B        20221012181AD2004ZZ              CIVUSAS-S 0.35X4 B       CCN000003000000003000FN00000000020221101000003000NNE   20220923141348    1W    00000030000002799900000000032DE    TVYEV-TV000000000000VR429003
BI00B32DE    @TT211C        20221020181AD2002ZZ              CIVUSAS-S 0.35X2 B       CCN000004950000004950FN00000000020221101000004950NNE   20220923141349    1W    00000045000001713700000000032DE    TVYEV-TV000000000000VS12A001
BI00B32DE    @TT211C        20221020181AD2003ZZ              CIVUSAS-S 0.35X3 B       CCN000002800000002800FN00000000020221101000002800NNE   20220923141349    1W    00000035000002172100000000032DE    TVYEV-TV000000000000VS12A002
BI00B32DE    @TT211C        20221020181AD2004ZZ              CIVUSAS-S 0.35X4 B       CCN000003000000003000FN00000000020221101000003000NNE   20220923141349    1W    00000030000002799900000000032DE    TVYEV-TV000000000000VS12A003
BI00B32DG    RW2113A        202210201801W006930              IVSSH 0.35F B            CCN000002500000002500FN00000000020221101000002500NNE   20220923150206    1W    00000250000000452000000000032DG    BFSAIBF 000000000000GR12A008
BI00B32E2    @WY212A        20221005181E50016ZZ              AVSSCS-S 0.5FX2 DGY/R    CCN000000300000000300FN00000000020221201000000300NNE   20220923160806    1W    00000030000003096000000000032E2    SPYSE   000000000000KX329001
BI00B32GE    DHTW2251       2022102718000004530              AV 8 B                   CCN000043600000043600FN00000000020221201000043600NNE   20220923144206    1W    00000010000010466200000000032GE    GEYKHT  000000000000RA22A065
BI00B32GE    DHTW2251       2022102718000004534              AV 8 B/W                 CCN000000200000000200FN00000000020221201000000200NNE   20220923144206    1W    00000010000010466200000000032GE    GEYKHT  000000000000RA22A067
BI00B32GE    DHTW2251       2022102718000004535              AV 8 B/R                 CCN000001500000001500FN00000000020221201000001500NNE   20220923144206    1W    00000010000010466200000000032GE    GEYKHT  000000000000RA22A066
BI00B32GE    DHTW2251       2022102718000004540              AV 8 W                   CCN000023300000023300FN00000000020221201000023300NNE   20220923144206    1W    00000010000010466200000000032GE    GEYKHT  000000000000RA22A070
BI00B32GE    DHTW2251       2022102718000004543              AV 8 W/B                 CCN000009800000009800FN00000000020221201000009800NNE   20220923144206    1W    00000010000010466200000000032GE    GEYKHT  000000000000RA22A071
BI00B32GE    DHTW2251       2022102718000004550              AV 8 R                   CCN000000300000000300FN00000000020221201000000300NNE   20220923144206    1W    00000010000010466200000000032GE    GEYKHT  000000000000RA22A069
BI00B32GE    DHTW2251       2022102718000004590              AV 8 L                   CCN000009100000009100FN00000000020221201000009100NNE   20220923144206    1W    00000010000010466200000000032GE    GEYKHT  000000000000RA22A068
BI00B32GE    @DHTW2251      20221027181AD2002ZZ              CIVUSAS-S 0.35X2 B       CCN000022050000022050FN00000000020221201000022050NNE   20220923144202    1W    00000045000001713700000000032GE    GEYKHT  000000000000RA22A031
BI00B32GE    @DHTW2251      20221027181AD2003ZZ              CIVUSAS-S 0.35X3 B       CCN000007500000007700FN00000000020221201000007700NNE   20220923144202    1W    00000035000002172100000000032GE    GEYKHT  000000000000RA22A032
BI00B32GE    @DHTW2251      20221027181AD2004ZZ              CIVUSAS-S 0.35X4 B       CCN000038800000039000FN00000000020221201000039000NNE   20220923144202    1W    00000030000002799900000000032GE    GEYKHT  000000000000RA22A033
BI00B32GE    @DHTW2251      20221027181B32039S1              AVSSCS 0.5FX1 DGY        CCN000000400000000400FN00000000020221201000000400NNE   20220923144202    1W    00000040000002289000000000032GE    GEYKHT  000000000000RA22A034
BI00B32GE    @DHTW2251      20221027181B32039Z5              AVSSCS 0.5FX1 DGY/L      CCN000002000000002000FN00000000020221201000002000NNE   20220923144202    1W    00000040000002289000000000032GE    GEYKHT  000000000000RA22A035
BI00B32GE    @DHTW2251      20221027181E48031ZZ              CAVSAS-S 0.3X2 GY        CCN000000700000000700FN00000000020221201000000700NNE   20220923144202    1W    00000035000002008700000000032GE    GEYKHT  000000000000RA22A036
BI00B32GE    @DHTW2251      20221027181E48037ZZ              CAVSAS-S 0.3X4 GY        CCN000006000000006000FN00000000020221201000006000NNE   20220923144202    1W    00000025000003262000000000032GE    GEYKHT  000000000000RA22A038
BI00B32GE    @DHTW2251      20221027181E48041ZZ              CAVSAS-S 0.3X2 GY/R      CCN000001400000001400FN00000000020221201000001400NNE   20220923144202    1W    00000035000002008700000000032GE    GEYKHT  000000000000RA22A037
BI00B32GE    @DHTW2251      20221027181E50002ZZ              AVSSCS-S 0.3FX2 DGY/G    CCN000001400000001400FN00000000020221201000001400NNE   20220923144202    1W    00000035000002165000000000032GE    GEYKHT  000000000000RA22A045
BI00B32GE    @DHTW2251      20221027181E50004ZZ              AVSSCS-S 0.5FX1 DGY      CCN000008800000008800FN00000000020221201000008800NNE   20220923144202    1W    00000040000001909700000000032GE    GEYKHT  000000000000RA22A039
BI00B32GE    @DHTW2251      20221027181E50005ZZ              AVSSCS-S 0.5FX1 DGY/W    CCN000008800000008800FN00000000020221201000008800NNE   20220923144202    1W    00000040000001909700000000032GE    GEYKHT  000000000000RA22A041
BI00B32GE    @DHTW2251      20221027181E50006ZZ              AVSSCS-S 0.5FX1 DGY/Y    CCN000004000000004000FN00000000020221201000004000NNE   20220923144202    1W    00000040000001909700000000032GE    GEYKHT  000000000000RA22A042
BI00B32GE    @DHTW2251      20221027181E50007ZZ              AVSSCS-S 0.5FX1 DGY/L    CCN000002400000002400FN00000000020221201000002400NNE   20220923144202    1W    00000040000001909700000000032GE    GEYKHT  000000000000RA22A040
BI00B32GE    @DHTW2251      20221027181E50012ZZ              AVSSCS-S 0.5FX2 DGY/G    CCN000000600000000600FN00000000020221201000000600NNE   20220923144202    1W    00000030000003096000000000032GE    GEYKHT  000000000000RA22A043
BI00B32GE    @DHTW2251      20221027181E50020ZZ              AVSSCS-S 0.3FX2 DGY/R    CCN000000700000000700FN00000000020221201000000700NNE   20220923144202    1W    00000035000002165000000000032GE    GEYKHT  000000000000RA22A047
BI00B32GE    @DHTW2251      20221027181E50021ZZ              AVSSCS-S 0.3FX2 DGY/P    CCN000001050000001050FN00000000020221201000001050NNE   20220923144202    1W    00000035000002165000000000032GE    GEYKHT  000000000000RA22A046
BI00B32GE    @DHTW2251      20221027181E50036ZZ              AVSSCS-S 0.3FX2 DGY      CCN000004550000004550FN00000000020221201000004550NNE   20220923144202    1W    00000035000002165000000000032GE    GEYKHT  000000000000RA22A044
BI00B32GE    @DHTW2251      20221027181F21001ZZ              AVSSHCS-S 0.3FX2 B/Y     CCN000000350000000350FN00000000020221201000000350NNE   20220923144202    1W    00000035000002034300000000032GE    GEYKHT  000000000000RA22A050
BI00B32GE    @DHTW2251      20221027181F21015ZZ              AVSSHCS-S 0.5FX2 B/P     CCN000000600000000600FN00000000020221201000000600NNE   20220923144202    1W    00000030000002531400000000032GE    GEYKHT  000000000000RA22A049
BI00B32GE    @DHTW2251      20221027181F21016ZZ              AVSSHCS-S 0.5FX2 B/BR    CCN000000600000000600FN00000000020221201000000600NNE   20220923144202    1W    00000030000002531400000000032GE    GEYKHT  000000000000RA22A048
BI00B32GE    @DHTW2251      20221027181F21031ZZ              AVSSHCS-S 1.25FX2 B/P    CCN000000400000000400FN00000000020221201000000400NNE   20220923144202    1W    00000020000004267300000000032GE    GEYKHT  000000000000RA22A051
BI00B32G7    JW2211CMMW     202210201801W006941              IVSSH 0.35F GY           CCN000005000000005000FN00000000020221101000005000NNE   20220923161130    1W    00000250000000452000000000032G7    JIJAI   000000000000JC12A014
BI00B32H2    TAW2112        2022102118007704130              AVSS 1.25F B             CCN000000800000000000FY00000000020221101000000000NNM12 20220923142647    1W    00000080000001389000000000032H2    HVYHV   000000000000UH12A066
BI00B32H2    TAW2113        2022102818007704130              AVSS 1.25F B             CCN000000800000000000FY00000000020221101000000000NNM12 20220923150845    1W    00000080000001389000000000032H2    HVYHV   000000000000UH22A066
BI00B32H2    TAW2114        2022110418007704130              AVSS 1.25F B             CCN000001600000000800FN00000000020221101000000800NNM12 20220923151035    1W    00000080000001389000000000032H2    HVYHV   000000000000UH32A063
BI00B32H2    TAW2113        2022102818007704160              AVSS 1.25F G             CCN000000800000000000FY00000000020221101000000000NNM12 20220923150854    1W    00000080000001389000000000032H2    HVYHV   000000000000UH22A067
BI00B32H2    TAW2113        2022102818007704190              AVSS 1.25F L             CCN000000800000000000FY00000000020221101000000000NNM12 20220923150913    1W    00000080000001389000000000032H2    HVYHV   000000000000UH22A068
BI00B32H2    TAW2112        2022102118007704150              AVSS 1.25F R             CCN000002400000000000FY00000000020221101000000000NNM12 20220923142659    1W    00000080000001389000000000032H2    HVYHV   000000000000UH12A067
BI00B32H2    TAW2113        2022102818007704150              AVSS 1.25F R             CCN000001600000000000FY00000000020221101000000000NNM12 20220923150926    1W    00000080000001389000000000032H2    HVYHV   000000000000UH22A069
BI00B32H2    TAW2114        2022110418007704150              AVSS 1.25F R             CCN000001600000000000FY00000000020221101000000000NNM12 20220923151046    1W    00000080000001389000000000032H2    HVYHV   000000000000UH32A064
BI00B32H2    TAW2112        2022102118007704140              AVSS 1.25F W             CCN000003200000000000FY00000000020221101000000000NNM12 20220923142710    1W    00000080000001389000000000032H2    HVYHV   000000000000UH12A068
BI00B32H2    TAW2113        2022102818007704140              AVSS 1.25F W             CCN000002400000000000FY00000000020221101000000000NNM12 20220923150936    1W    00000080000001389000000000032H2    HVYHV   000000000000UH22A070
BI00B32H2    TAW2114        2022110418007704140              AVSS 1.25F W             CCN000002400000000000FY00000000020221101000000000NNM12 20220923151055    1W    00000080000001389000000000032H2    HVYHV   000000000000UH32A065
BI00B32H2    TAW2114        20221104180D0203960              AVSSH 0.5F G             CCN000001500000000000FY00000000020221101000000000NNM12 20220923151135    1W    00000150000000689000000000032H2    HVYHV   000000000000UH32A058
BI00B32H2    @TAW2112       20221021181B32102S1              AVSSCS 0.5FX2 DGY        CCN000005700000004800FN00000000020221101000004800NNM12 20220923142742    1W    00000030000002903000000000032H2    HVYHV   000000000000UH12A054
BI00B32H2    @TAW2114       20221104181B32102S1              AVSSCS 0.5FX2 DGY        CCN000006300000005100FN00000000020221101000005100NNM12 20220923151119    1W    00000030000002903000000000032H2    HVYHV   000000000000UH32A054
BI00B32H2    @TAW2113       20221028181F21002ZZ              AVSSHCS-S 0.5FX1 B       CCN000009200000005200FN00000000020221101000005200NNM12 20220923151952    1W    00000040000001908400000000032H2    HVYHV   000000000000UH22A058
BI00B32H2    @TAW2112       20221021181AD2001ZZ              CIVUSAS-S 0.35X1 B       CCN000017050000009350FN00000000020221101000009350NNM12 20220923150720    1W    00000055000001540800000000032H2    HVYHV   000000000000UH12A049
BI00B32H2    @TAW2112       20221021181AD2008ZZ              CIVUSAS-S 0.5X2 B        CCN000027200000000000FY00000000020221101000000000NNM12 20220923150744    1W    00000040000002028000000000032H2    HVYHV   000000000000UH12A050
BI00B32H2    @TAW2113       20221028181AD2008ZZ              CIVUSAS-S 0.5X2 B        CCN000024000000015200FN00000000020221101000015200NNM12 20220923152010    1W    00000040000002028000000000032H2    HVYHV   000000000000UH22A052
BI00B32H2    @TAW2111       20221012181AD2023ZZ              CIVUSAS-S 0.13X2 B       CCN000005400000000000FY00000000020221101000000000NNM12 20220923142308    1W    00000060000001031100000000032H2    HVYHV   000000000000UH429042
BI00B32H2    @TAW2111       20221012181AD2024ZZ              CIVUSAS-S 0.13X3 B       CCN000004000000000000FY00000000020221101000000000NNM12 20220923142219    1W    00000050000001297300000000032H2    HVYHV   000000000000UH429043
BI00B32H2    @TAW211E       20221012181AD2023ZZ              CIVUSAS-S 0.13X2 B       CCN000003000000000000FY00000000020221101000000000NNE12 20220923151450    1W    00000060000001031100000000032H2    HVYHV   000000000000UE429001
BI00B32H2    @TAW211F       20221021181AD2023ZZ              CIVUSAS-S 0.13X2 B       CCN000002400000001800FN00000000020221101000001800NNE12 20220923151710    1W    00000060000001031100000000032H2    HVYHV   000000000000UF12A001
BI00B32H2    @TAW211F       20221021181AD2025ZZ              CIVUSAS-S 0.13X4 B       CCN000000400000000000FY00000000020221101000000000NNE12 20220923151722    1W    00000040000001661800000000032H2    HVYHV   000000000000UF12A003
BI00B32J1    @398579        20221017181AD2009ZZ              CIVUSAS-S 0.5X3 B        CCN000002100000002100FN00000000020221001000002100NNE   20220923084347    1W    00000030000002716800000000032J1    UKYEL-BL000000000000KG12A001
BI00B32M3    SM2211A MW     2022101218007703792              AVSS 0.3F V              CCN000002000000002000FN00000000020221101000002000NNE   20220923163236    1W    00000200000000496000000000032M3    SASAMI  000000000000QG429001
BI00B32M4    @TH2113A       20221020181E50016ZZ              AVSSCS-S 0.5FX2 DGY/R    CCN000000300000000300FN00000000020221101000000300NNE   20220923163329    1W    00000030000003096000000000032M4    SISAI   000000000000GA12A001
BI00B32M4    TW2113B        202210201801W006930              IVSSH 0.35F B            CCN000002500000002500FN00000000020221101000002500NNE   20220923163330    1W    00000250000000452000000000032M4    SISAI   000000000000GB12A001
BI00B32M4    TW2113B        202210201801W006952              IVSSH 0.35F P            CCN000002500000002500FN00000000020221101000002500NNE   20220923163330    1W    00000250000000452000000000032M4    SISAI   000000000000GB12A002
BI00B32M4    TW2113B        202210201801W006970              IVSSH 0.35F Y            CCN000002500000002500FN00000000020221101000002500NNE   20220923163330    1W    00000250000000452000000000032M4    SISAI   000000000000GB12A003
BI00A32P8    TAPAW-209B     202209281801W004140              IVSSH 1.25F W            CCN000013600000013600FN00000000020220901000013600NNE   20220923102819    1W    00000080000001405000000000032P8    YIYTM   000000000000YC229001
BI00B32W4    4500200691     2022102518018403769              CAVS 0.3 G/L             CCN000002000000002000FN00000000020221001000002000NNE   20220923111214W41 1W    00000200000000471000000000032W41   HJYHK-J 000000000000OE22A001
BI00B32W4    4500200697     2022101818018403760              CAVS 0.3 G               CCN000008000000008000FN00000000020221001000008000NNE   20220923111215W41 1W    00000200000000471000000000032W41   HJYHK-J 000000000000OF12A001
BI00B32W4    4500200697     2022101818018403792              CAVS 0.3 V               CCN000006000000006000FN00000000020221001000006000NNE   20220923111215W41 1W    00000200000000471000000000032W41   HJYHK-J 000000000000OF12A002
BI00B32W4    4500200697     2022101818018403930              CAVS 0.5 B               CCN000001500000001500FN00000000020221001000001500NNE   20220923111215W41 1W    00000150000000677000000000032W41   HJYHK-J 000000000000OF12A003
BI00B32W4    4500200697     2022101818018403951              CAVS 0.5 O               CCN000003000000003000FN00000000020221001000003000NNE   20220923111215W41 1W    00000150000000677000000000032W41   HJYHK-J 000000000000OF12A005
BI00B32W4    4500200697     2022101818018403961              CAVS 0.5 LG              CCN000003000000003000FN00000000020221001000003000NNE   20220923111215W41 1W    00000150000000677000000000032W41   HJYHK-J 000000000000OF12A004
BI00B32W4    4500200692     2022110118018403793              CAVS 0.3 L/B             CCN000002000000002000FN00000000020221101000002000NNE   20220923111218W41 1W    00000200000000471000000000032W41   HJYHK-J 000000000000OS32A002
BI00B32W4    @4500200692    20221101181B09116K2              CAVSAS 0.3X2 GY/V        CCN000001750000001750FN00000000020221101000001750NNE   20220923111216W41 1W    00000035000002254000000000032W41   HJYHK-J 000000000000OS32A001
BI00B32W4    4500200693     202211081801840375U              CAVS 0.3 BE              CCN000002000000002000FN00000000020221101000002000NNE   20220923111219W41 1W    00000200000000471000000000032W41   HJYHK-J 000000000000OV42A001
BI00B32W4    4500200695     2022111518018403791              CAVS 0.3 SB              CCN000012000000012000FN00000000020221101000012000NNE   20220923111220W41 1W    00000200000000471000000000032W41   HJYHK-J 000000000000OA12B018
BI00B32W4    4500200695     2022111518018403740              CAVS 0.3 W               CCN000006000000006000FN00000000020221101000006000NNE   20220923111220W41 1W    00000200000000471000000000032W41   HJYHK-J 000000000000OA12B020
BI00B32W4    4500200695     2022111518018403730              CAVS 0.3 B               CCN000008000000008000FN00000000020221101000008000NNE   20220923111220W41 1W    00000200000000471000000000032W41   HJYHK-J 000000000000OA12B007
BI00B32W4    4500200695     2022111518018403750              CAVS 0.3 R               CCN000006000000006000FN00000000020221101000006000NNE   20220923111220W41 1W    00000200000000471000000000032W41   HJYHK-J 000000000000OA12B016
BI00B32W4    4500200695     2022111518018403752              CAVS 0.3 P               CCN000004000000004000FN00000000020221101000004000NNE   20220923111220W41 1W    00000200000000471000000000032W41   HJYHK-J 000000000000OA12B015
BI00B32W4    4500200695     2022111518018403760              CAVS 0.3 G               CCN000008000000008000FN00000000020221101000008000NNE   20220923111220W41 1W    00000200000000471000000000032W41   HJYHK-J 000000000000OA12B010
BI00B32W4    4500200695     2022111518018403770              CAVS 0.3 Y               CCN000016000000016000FN00000000020221101000016000NNE   20220923111220W41 1W    00000200000000471000000000032W41   HJYHK-J 000000000000OA12B022
BI00B32W4    4500200695     2022111518018403780              CAVS 0.3 BR              CCN000004000000004000FN00000000020221101000004000NNE   20220923111220W41 1W    00000200000000471000000000032W41   HJYHK-J 000000000000OA12B008
BI00B32W4    4500200695     2022111518018403790              CAVS 0.3 L               CCN000008000000008000FN00000000020221101000008000NNE   20220923111220W41 1W    00000200000000471000000000032W41   HJYHK-J 000000000000OA12B012
BI00B32W4    4500200695     2022111518018403792              CAVS 0.3 V               CCN000002000000002000FN00000000020221101000002000NNE   20220923111220W41 1W    00000200000000471000000000032W41   HJYHK-J 000000000000OA12B019
BI00B32W4    4500200695     2022111518018403761              CAVS 0.3 LG              CCN000014000000014000FN00000000020221101000014000NNE   20220923111220W41 1W    00000200000000471000000000032W41   HJYHK-J 000000000000OA12B013
BI00B32W4    4500200695     2022111518018403741              CAVS 0.3 GY              CCN000014000000014000FN00000000020221101000014000NNE   20220923111220W41 1W    00000200000000471000000000032W41   HJYHK-J 000000000000OA12B011
BI00B32W4    4500200695     2022111518018403751              CAVS 0.3 O               CCN000002000000002000FN00000000020221101000002000NNE   20220923111220W41 1W    00000200000000471000000000032W41   HJYHK-J 000000000000OA12B014
BI00B32W4    4500200695     2022111518018403753              CAVS 0.3 R/B             CCN000004000000004000FN00000000020221101000004000NNE   20220923111220W41 1W    00000200000000471000000000032W41   HJYHK-J 000000000000OA12B017
BI00B32W4    4500200695     2022111518018403784              CAVS 0.3 BR/W            CCN000006000000006000FN00000000020221101000006000NNE   20220923111220W41 1W    00000200000000471000000000032W41   HJYHK-J 000000000000OA12B009
BI00B32W4    4500200695     2022111518018403749              CAVS 0.3 W/L             CCN000002000000002000FN00000000020221101000002000NNE   20220923111220W41 1W    00000200000000471000000000032W41   HJYHK-J 000000000000OA12B021
BI00B32W4    4500200695     2022111518018403934              CAVS 0.5 B/W             CCN000003000000003000FN00000000020221101000003000NNE   20220923111220W41 1W    00000150000000677000000000032W41   HJYHK-J 000000000000OA12B024
BI00B32W4    4500200695     2022111518018403930              CAVS 0.5 B               CCN000024000000024000FN00000000020221101000024000NNE   20220923111220W41 1W    00000150000000677000000000032W41   HJYHK-J 000000000000OA12B023
BI00B32W4    4500200695     2022111518018403940              CAVS 0.5 W               CCN000004500000004500FN00000000020221101000004500NNE   20220923111220W41 1W    00000150000000677000000000032W41   HJYHK-J 000000000000OA12B034
BI00B32W4    4500200695     2022111518018403941              CAVS 0.5 GY              CCN000007500000007500FN00000000020221101000007500NNE   20220923111220W41 1W    00000150000000677000000000032W41   HJYHK-J 000000000000OA12B026
BI00B32W4    4500200695     2022111518018403950              CAVS 0.5 R               CCN000013500000013500FN00000000020221101000013500NNE   20220923111220W41 1W    00000150000000677000000000032W41   HJYHK-J 000000000000OA12B031
BI00B32W4    4500200695     2022111518018403951              CAVS 0.5 O               CCN000001500000001500FN00000000020221101000001500NNE   20220923111220W41 1W    00000150000000677000000000032W41   HJYHK-J 000000000000OA12B029
BI00B32W4    4500200695     2022111518018403952              CAVS 0.5 P               CCN000003000000003000FN00000000020221101000003000NNE   20220923111220W41 1W    00000150000000677000000000032W41   HJYHK-J 000000000000OA12B030
BI00B32W4    4500200695     2022111518018403960              CAVS 0.5 G               CCN000001500000001500FN00000000020221101000001500NNE   20220923111220W41 1W    00000150000000677000000000032W41   HJYHK-J 000000000000OA12B025
BI00B32W4    4500200695     2022111518018403961              CAVS 0.5 LG              CCN000003000000003000FN00000000020221101000003000NNE   20220923111220W41 1W    00000150000000677000000000032W41   HJYHK-J 000000000000OA12B028
BI00B32W4    4500200695     2022111518018403970              CAVS 0.5 Y               CCN000001500000001500FN00000000020221101000001500NNE   20220923111220W41 1W    00000150000000677000000000032W41   HJYHK-J 000000000000OA12B035
BI00B32W4    4500200695     2022111518018403990              CAVS 0.5 L               CCN000003000000003000FN00000000020221101000003000NNE   20220923111220W41 1W    00000150000000677000000000032W41   HJYHK-J 000000000000OA12B027
BI00B32W4    4500200695     2022111518018403991              CAVS 0.5 SB              CCN000007500000007500FN00000000020221101000007500NNE   20220923111220W41 1W    00000150000000677000000000032W41   HJYHK-J 000000000000OA12B032
BI00B32W4    4500200695     2022111518018403992              CAVS 0.5 V               CCN000007500000007500FN00000000020221101000007500NNE   20220923111220W41 1W    00000150000000677000000000032W41   HJYHK-J 000000000000OA12B033
BI00B32W4    4500200695     2022111518018404130              CAVS 1.25 B              CCN000001600000001600FN00000000020221101000001600NNE   20220923111220W41 1W    00000080000001378000000000032W41   HJYHK-J 000000000000OA12B036
BI00B32W4    4500200695     2022111518018404141              CAVS 1.25 GY             CCN000001600000001600FN00000000020221101000001600NNE   20220923111220W41 1W    00000080000001378000000000032W41   HJYHK-J 000000000000OA12B037
BI00B32W4    4500200695     202211151801R706950              CIVUS 0.35 R             CCN000003000000003000FN00000000020221101000003000NNE   20220923111220W41 1W    00000300000000386000000000032W41   HJYHK-J 000000000000OA12B006
BI00B32W4    4500200695     202211151801R706980              CIVUS 0.35 BR            CCN000003000000003000FN00000000020221101000003000NNE   20220923111220W41 1W    00000300000000386000000000032W41   HJYHK-J 000000000000OA12B005
BI00B32W4    4500200695     202211151801R703930              CIVUS 0.5 B              CCN000002200000002200FN00000000020221101000002200NNE   20220923111220W41 1W    00000220000000525000000000032W41   HJYHK-J 000000000000OA12B003
BI00B32W4    4500200695     202211151801R703970              CIVUS 0.5 Y              CCN000002200000002200FN00000000020221101000002200NNE   20220923111220W41 1W    00000220000000525000000000032W41   HJYHK-J 000000000000OA12B004
BI00B32W4    @4500200695    20221115181B09116K2              CAVSAS 0.3X2 GY/V        CCN000001750000001750FN00000000020221101000001750NNE   20220923111217W41 1W    00000035000002254000000000032W41   HJYHK-J 000000000000OA12B002
BI00B32W4    @4500200695    20221115181B0911641              CAVSAS 0.3X2 GY          CCN000003150000003150FN00000000020221101000003150NNE   20220923111217W41 1W    00000035000002254000000000032W41   HJYHK-J 000000000000OA12B001
BI00B32W4    4500200699     2022111518007704260              AVSS 2F G                CCN000000500000000500FN00000000020221101000000500NNE   20220923111221W41 1W    00000050000002126400000000032W41   HJYHK-J 000000000000OC12B002
BI00B32W4    4500200699     2022111518007704270              AVSS 2F Y                CCN000000500000000500FN00000000020221101000000500NNE   20220923111221W41 1W    00000050000002126400000000032W41   HJYHK-J 000000000000OC12B004
BI00B32W4    4500200699     2022111518007704230              AVSS 2F B                CCN000004000000004000FN00000000020221101000004000NNE   20220923111221W41 1W    00000050000002126400000000032W41   HJYHK-J 000000000000OC12B001
BI00B32W4    4500200699     2022111518007704250              AVSS 2F R                CCN000003000000003000FN00000000020221101000003000NNE   20220923111221W41 1W    00000050000002126400000000032W41   HJYHK-J 000000000000OC12B003
BI00B32W4    4500200699     2022111518018403791              CAVS 0.3 SB              CCN000008000000008000FN00000000020221101000008000NNE   20220923111221W41 1W    00000200000000471000000000032W41   HJYHK-J 000000000000OC12B011
BI00B32W4    4500200699     2022111518018403740              CAVS 0.3 W               CCN000014000000014000FN00000000020221101000014000NNE   20220923111221W41 1W    00000200000000471000000000032W41   HJYHK-J 000000000000OC12B013
BI00B32W4    4500200699     2022111518018403730              CAVS 0.3 B               CCN000016000000016000FN00000000020221101000016000NNE   20220923111221W41 1W    00000200000000471000000000032W41   HJYHK-J 000000000000OC12B005
BI00B32W4    4500200699     2022111518018403750              CAVS 0.3 R               CCN000002000000002000FN00000000020221101000002000NNE   20220923111221W41 1W    00000200000000471000000000032W41   HJYHK-J 000000000000OC12B010
BI00B32W4    4500200699     2022111518018403752              CAVS 0.3 P               CCN000012000000012000FN00000000020221101000012000NNE   20220923111221W41 1W    00000200000000471000000000032W41   HJYHK-J 000000000000OC12B009
BI00B32W4    4500200699     2022111518018403760              CAVS 0.3 G               CCN000024000000024000FN00000000020221101000024000NNE   20220923111221W41 1W    00000200000000471000000000032W41   HJYHK-J 000000000000OC12B007
BI00B32W4    4500200699     2022111518018403770              CAVS 0.3 Y               CCN000010000000010000FN00000000020221101000010000NNE   20220923111221W41 1W    00000200000000471000000000032W41   HJYHK-J 000000000000OC12B014
BI00B32W4    4500200699     2022111518018403780              CAVS 0.3 BR              CCN000016000000016000FN00000000020221101000016000NNE   20220923111221W41 1W    00000200000000471000000000032W41   HJYHK-J 000000000000OC12B006
BI00B32W4    4500200699     2022111518018403790              CAVS 0.3 L               CCN000004000000004000FN00000000020221101000004000NNE   20220923111221W41 1W    00000200000000471000000000032W41   HJYHK-J 000000000000OC12B008
BI00B32W4    4500200699     2022111518018403792              CAVS 0.3 V               CCN000008000000008000FN00000000020221101000008000NNE   20220923111221W41 1W    00000200000000471000000000032W41   HJYHK-J 000000000000OC12B012
BI00B32W4    4500200699     2022111518018403914              CAVS 0.5 L/O             CCN000001500000001500FN00000000020221101000001500NNE   20220923111221W41 1W    00000150000000677000000000032W41   HJYHK-J 000000000000OC12B018
BI00B32W4    4500200699     2022111518018403930              CAVS 0.5 B               CCN000016500000016500FN00000000020221101000016500NNE   20220923111221W41 1W    00000150000000677000000000032W41   HJYHK-J 000000000000OC12B015
BI00B32W4    4500200699     2022111518018403940              CAVS 0.5 W               CCN000007500000007500FN00000000020221101000007500NNE   20220923111221W41 1W    00000150000000677000000000032W41   HJYHK-J 000000000000OC12B025
BI00B32W4    4500200699     2022111518018403950              CAVS 0.5 R               CCN000012000000012000FN00000000020221101000012000NNE   20220923111221W41 1W    00000150000000677000000000032W41   HJYHK-J 000000000000OC12B022
BI00B32W4    4500200699     2022111518018403951              CAVS 0.5 O               CCN000034500000034500FN00000000020221101000034500NNE   20220923111221W41 1W    00000150000000677000000000032W41   HJYHK-J 000000000000OC12B020
BI00B32W4    4500200699     2022111518018403952              CAVS 0.5 P               CCN000001500000001500FN00000000020221101000001500NNE   20220923111221W41 1W    00000150000000677000000000032W41   HJYHK-J 000000000000OC12B021
BI00B32W4    4500200699     2022111518018403960              CAVS 0.5 G               CCN000007500000007500FN00000000020221101000007500NNE   20220923111221W41 1W    00000150000000677000000000032W41   HJYHK-J 000000000000OC12B017
BI00B32W4    4500200699     2022111518018403961              CAVS 0.5 LG              CCN000006000000006000FN00000000020221101000006000NNE   20220923111221W41 1W    00000150000000677000000000032W41   HJYHK-J 000000000000OC12B019
BI00B32W4    4500200699     2022111518018403980              CAVS 0.5 BR              CCN000003000000003000FN00000000020221101000003000NNE   20220923111221W41 1W    00000150000000677000000000032W41   HJYHK-J 000000000000OC12B016
BI00B32W4    4500200699     2022111518018403991              CAVS 0.5 SB              CCN000013500000013500FN00000000020221101000013500NNE   20220923111221W41 1W    00000150000000677000000000032W41   HJYHK-J 000000000000OC12B023
BI00B32W4    4500200699     2022111518018403992              CAVS 0.5 V               CCN000001500000001500FN00000000020221101000001500NNE   20220923111221W41 1W    00000150000000677000000000032W41   HJYHK-J 000000000000OC12B024
BI00B32W4    4500200699     2022111518018404030              CAVS 0.85 B              CCN000015000000015000FN00000000020221101000015000NNE   20220923111221W41 1W    00000100000000965000000000032W41   HJYHK-J 000000000000OC12B026
BI00B32W4    4500200699     2022111518018404040              CAVS 0.85 W              CCN000012000000012000FN00000000020221101000012000NNE   20220923111221W41 1W    00000100000000965000000000032W41   HJYHK-J 000000000000OC12B036
BI00B32W4    4500200699     2022111518018404041              CAVS 0.85 GY             CCN000018000000018000FN00000000020221101000018000NNE   20220923111221W41 1W    00000100000000965000000000032W41   HJYHK-J 000000000000OC12B029
BI00B32W4    4500200699     2022111518018404050              CAVS 0.85 R              CCN000035000000035000FN00000000020221101000035000NNE   20220923111221W41 1W    00000100000000965000000000032W41   HJYHK-J 000000000000OC12B034
BI00B32W4    4500200699     2022111518018404051              CAVS 0.85 O              CCN000005000000005000FN00000000020221101000005000NNE   20220923111221W41 1W    00000100000000965000000000032W41   HJYHK-J 000000000000OC12B032
BI00B32W4    4500200699     2022111518018404052              CAVS 0.85 P              CCN000010000000010000FN00000000020221101000010000NNE   20220923111221W41 1W    00000100000000965000000000032W41   HJYHK-J 000000000000OC12B033
BI00B32W4    4500200699     2022111518018404060              CAVS 0.85 G              CCN000012000000012000FN00000000020221101000012000NNE   20220923111221W41 1W    00000100000000965000000000032W41   HJYHK-J 000000000000OC12B028
BI00B32W4    4500200699     2022111518018404061              CAVS 0.85 LG             CCN000004000000004000FN00000000020221101000004000NNE   20220923111221W41 1W    00000100000000965000000000032W41   HJYHK-J 000000000000OC12B031
BI00B32W4    4500200699     2022111518018404070              CAVS 0.85 Y              CCN000026000000026000FN00000000020221101000026000NNE   20220923111221W41 1W    00000100000000965000000000032W41   HJYHK-J 000000000000OC12B037
BI00B32W4    4500200699     2022111518018404080              CAVS 0.85 BR             CCN000008000000008000FN00000000020221101000008000NNE   20220923111221W41 1W    00000100000000965000000000032W41   HJYHK-J 000000000000OC12B027
BI00B32W4    4500200699     2022111518018404090              CAVS 0.85 L              CCN000003000000003000FN00000000020221101000003000NNE   20220923111221W41 1W    00000100000000965000000000032W41   HJYHK-J 000000000000OC12B030
BI00B32W4    4500200699     2022111518018404091              CAVS 0.85 SB             CCN000013000000013000FN00000000020221101000013000NNE   20220923111221W41 1W    00000100000000965000000000032W41   HJYHK-J 000000000000OC12B035
BI00B32W4    4500200699     2022111518018404140              CAVS 1.25 W              CCN000008000000008000FN00000000020221101000008000NNE   20220923111221W41 1W    00000080000001378000000000032W41   HJYHK-J 000000000000OC12B045
BI00B32W4    4500200699     2022111518018404170              CAVS 1.25 Y              CCN000008000000008000FN00000000020221101000008000NNE   20220923111221W41 1W    00000080000001378000000000032W41   HJYHK-J 000000000000OC12B046
BI00B32W4    4500200699     2022111518018404130              CAVS 1.25 B              CCN000000800000000800FN00000000020221101000000800NNE   20220923111221W41 1W    00000080000001378000000000032W41   HJYHK-J 000000000000OC12B038
BI00B32W4    4500200699     2022111518018404141              CAVS 1.25 GY             CCN000001600000001600FN00000000020221101000001600NNE   20220923111221W41 1W    00000080000001378000000000032W41   HJYHK-J 000000000000OC12B039
BI00B32W4    4500200699     2022111518018404151              CAVS 1.25 O              CCN000001600000001600FN00000000020221101000001600NNE   20220923111221W41 1W    00000080000001378000000000032W41   HJYHK-J 000000000000OC12B041
BI00B32W4    4500200699     2022111518018404152              CAVS 1.25 P              CCN000001600000001600FN00000000020221101000001600NNE   20220923111221W41 1W    00000080000001378000000000032W41   HJYHK-J 000000000000OC12B042
BI00B32W4    4500200699     2022111518018404150              CAVS 1.25 R              CCN000001600000001600FN00000000020221101000001600NNE   20220923111221W41 1W    00000080000001378000000000032W41   HJYHK-J 000000000000OC12B043
BI00B32W4    4500200699     2022111518018404190              CAVS 1.25 L              CCN000002400000002400FN00000000020221101000002400NNE   20220923111221W41 1W    00000080000001378000000000032W41   HJYHK-J 000000000000OC12B040
BI00B32W4    4500200699     2022111518018404192              CAVS 1.25 V              CCN000002400000002400FN00000000020221101000002400NNE   20220923111221W41 1W    00000080000001378000000000032W41   HJYHK-J 000000000000OC12B044
BI00B32W4    4500200774     2022102518018403940              CAVS 0.5 W               CCN000003000000003000FN00000000020221001000003000NNE   20220923111215W41 1W    00000150000000677000000000032W41   HJYHK-J 000000000000OD22A002
BI00B32W4    4500200774     2022102518018403950              CAVS 0.5 R               CCN000006000000006000FN00000000020221001000006000NNE   20220923111215W41 1W    00000150000000677000000000032W41   HJYHK-J 000000000000OD22A001
BI00B32W4    4500200775     2022111518018403934              CAVS 0.5 B/W             CCN000003000000003000FN00000000020221101000003000NNE   20220923111221W41 1W    00000150000000677000000000032W41   HJYHK-J 000000000000OH12B002
BI00B32W4    4500200775     2022111518018403930              CAVS 0.5 B               CCN000001500000001500FN00000000020221101000001500NNE   20220923111221W41 1W    00000150000000677000000000032W41   HJYHK-J 000000000000OH12B001
BI00B32W4    4500200775     2022111518018403940              CAVS 0.5 W               CCN000001500000001500FN00000000020221101000001500NNE   20220923111221W41 1W    00000150000000677000000000032W41   HJYHK-J 000000000000OH12B004
BI00B32W4    4500200775     2022111518018403950              CAVS 0.5 R               CCN000001500000001500FN00000000020221101000001500NNE   20220923111221W41 1W    00000150000000677000000000032W41   HJYHK-J 000000000000OH12B003
BI00B32W4    @4500200833    20221025181E50036ZZ              AVSSCS-S 0.3FX2 DGY      CCN000005600000005600FN00000000020221001000005600NNE   20220923111213W4591W    00000035000002165000000000032W459  HJYHK-J 000000000000OT22A001
BI00B32W4    @4500200904    20221108181D6910239              AVSSHCS 0.5FX2 B/L       CCN000025800000025800FN00000000020221101000025800NNE   20220923111217W4A21W    00000030000002385000000000032W4A2  HJYHK-J 000000000000OU42A001
BI00B32W4    @4500200815    20221129181B32116S1              AVSSCS 0.3FX2 DGY        CCN000001750000001750FN00000000020221201000001750NNE   20220923111222W4171W    00000035000002276000000000032W417  HJYHK-J 000000000000OP32B002
BI00B32W4    @4500200815    20221129181B32037Y5              AVSSCS 0.3FX1 DGY/W      CCN000002000000002000FN00000000020221201000002000NNE   20220923111222W4171W    00000050000001780000000000032W417  HJYHK-J 000000000000OP32B001
BI00T32W4    4500201007     202211291801R706930              CIVUS 0.35 B             CCN000003000000003000FN00000000020221201000003000NNE   20220923111223W4K81W    00000300000000386000000000032W4K8  HJYHK-J 000000000000OO32B010
BI00T32W4    4500201007     202211291801R703961              CIVUS 0.5 LG             CCN000002200000002200FN00000000020221201000002200NNE   20220923111223W4K81W    00000220000000525000000000032W4K8  HJYHK-J 000000000000OO32B004
BI00T32W4    4500201007     202211291801R704191              CIVUS 1.25 SB            CCN000001000000001000FN00000000020221201000001000NNE   20220923111223W4K81W    00000100000001228000000000032W4K8  HJYHK-J 000000000000OO32B009
BI00T32W4    4500201007     202211291801R706973              CIVUS 0.35 Y/B           CCN000003000000003000FN00000000020221201000003000NNE   20220923111223W4K81W    00000300000000386000000000032W4K8  HJYHK-J 000000000000OO32B015
BI00T32W4    4500201007     202211291801R704150              CIVUS 1.25 R             CCN000001000000001000FN00000000020221201000001000NNE   20220923111223W4K81W    00000100000001228000000000032W4K8  HJYHK-J 000000000000OO32B008
BI00T32W4    4500201007     202211291801R70695U              CIVUS 0.35 BE            CCN000003000000003000FN00000000020221201000003000NNE   20220923111223W4K81W    00000300000000386000000000032W4K8  HJYHK-J 000000000000OO32B011
BI00T32W4    4500201007     202211291801R703980              CIVUS 0.5 BR             CCN000002200000002200FN00000000020221201000002200NNE   20220923111223W4K81W    00000220000000525000000000032W4K8  HJYHK-J 000000000000OO32B002
BI00T32W4    4500201007     202211291801R703990              CIVUS 0.5 L              CCN000002200000002200FN00000000020221201000002200NNE   20220923111223W4K81W    00000220000000525000000000032W4K8  HJYHK-J 000000000000OO32B003
BI00T32W4    4500201007     202211291801R706952              CIVUS 0.35 P             CCN000003000000003000FN00000000020221201000003000NNE   20220923111223W4K81W    00000300000000386000000000032W4K8  HJYHK-J 000000000000OO32B012
BI00T32W4    4500201007     202211291801R704130              CIVUS 1.25 B             CCN000002000000002000FN00000000020221201000002000NNE   20220923111223W4K81W    00000100000001228000000000032W4K8  HJYHK-J 000000000000OO32B007
BI00T32W4    4500201007     202211291801R706970              CIVUS 0.35 Y             CCN000003000000003000FN00000000020221201000003000NNE   20220923111223W4K81W    00000300000000386000000000032W4K8  HJYHK-J 000000000000OO32B014
BI00T32W4    4500201007     202211291801R706991              CIVUS 0.35 SB            CCN000015000000015000FN00000000020221201000015000NNE   20220923111223W4K81W    00000300000000386000000000032W4K8  HJYHK-J 000000000000OO32B013
BI00T32W4    4500201007     2022112918018403790              CAVS 0.3 L               CCN000002000000002000FN00000000020221201000002000NNE   20220923111223W4K81W    00000200000000471000000000032W4K8  HJYHK-J 000000000000OO32B016
BI00T32W4    4500201007     202211291801R703943              CIVUS 0.5 W/B            CCN000002200000002200FN00000000020221201000002200NNE   20220923111223W4K81W    00000220000000525000000000032W4K8  HJYHK-J 000000000000OO32B006
BI00T32W4    4500201007     202211291801R703950              CIVUS 0.5 R              CCN000002200000002200FN00000000020221201000002200NNE   20220923111223W4K81W    00000220000000525000000000032W4K8  HJYHK-J 000000000000OO32B005
BI00T32W4    4500201007     2022112918007704243              AVSS 2F W/B              CCN000002500000002500FN00000000020221201000002500NNE   20220923111223W4K81W    00000050000002126400000000032W4K8  HJYHK-J 000000000000OO32B001
