AE00TO202209230423/09/202200000000500000000000000005233KGM  00000005478KGM  18000004530              AV 8 B                   AV 8 B                   0         0         0         0    0    0    00000000000005000000000211100001055500
AE00TO202209230423/09/202200000007100000000000000074311KGM  00000077782KGM  18000004540              AV 8 W                   AV 8 W                   0         0         0         0    0    0    00000000000071000000000211100014988100
AE00TO202209230423/09/202200000000100000000000000001047KGM  00000001096KGM  18000004550              AV 8 R                   AV 8 R                   0         0         0         0    0    0    00000000000001000000000211100000211100
AE00TO202209230423/09/202200000000300000000000000002976KGM  00000003123KGM  18007703740              AVSS 03F W               AVSS 03F W               0         0         0         0    0    0    00000000000060000000000011700000702000
AE00TO202209230423/09/202200000000100000000000000000992KGM  00000001041KGM  18007703761              AVSS 03F LG              AVSS 03F LG              0         0         0         0    0    0    00000000000020000000000011700000234000
AE00TO202209230423/09/202200000001800000000000000017856KGM  00000018736KGM  18007703770              AVSS 03F Y               AVSS 03F Y               0         0         0         0    0    0    00000000000360000000000011700004212000
AE00TO202209230423/09/202200000000200000000000000001984KGM  00000002082KGM  18007703790              AVSS 03F L               AVSS 03F L               0         0         0         0    0    0    00000000000040000000000011700000468000
AE00TO202209230423/09/202200000000400000000000000003772KGM  00000003968KGM  18007704030              AVSS 075F B              AVSS 075F B              0         0         0         0    0    0    00000000000040000000000022300000892000
AE00TO202209230423/09/202200000002900000000000000032224KGM  00000033643KGM  18007704130              AVSS 125F B              AVSS 125F B              0         0         0         0    0    0    00000000000232000000000034700008050400
AE00TO202209230423/09/202200000000300000000000000003333KGM  00000003480KGM  18007704135              AVSS 125F B/R            AVSS 125F B/R            0         0         0         0    0    0    00000000000024000000000034700000832800
AE00TO202209230423/09/202200000002200000000000000024445KGM  00000025520KGM  18007704140              AVSS 125F W              AVSS 125F W              0         0         0         0    0    0    00000000000176000000000034700006107200
AE00TO202209230423/09/202200000000700000000000000007778KGM  00000008121KGM  18007704143              AVSS 125F W/B            AVSS 125F W/B            0         0         0         0    0    0    00000000000056000000000034700001943200
AE00TO202209230423/09/202200000000600000000000000006667KGM  00000006960KGM  18007704150              AVSS 125F R              AVSS 125F R              0         0         0         0    0    0    00000000000048000000000034700001665600
AE00TO202209230423/09/202200000000600000000000000006667KGM  00000006961KGM  18007704152              AVSS 125F P              AVSS 125F P              0         0         0         0    0    0    00000000000048000000000034700001665600
AE00TO202209230423/09/202200000000600000000000000006667KGM  00000006960KGM  18007704160              AVSS 125F G              AVSS 125F G              0         0         0         0    0    0    00000000000048000000000034700001665600
AE00TO202209230423/09/202200000000100000000000000001111KGM  00000001160KGM  18007704161              AVSS 125F LG             AVSS 125F LG             0         0         0         0    0    0    00000000000008000000000034700000277600
AE00TO202209230423/09/202200000000200000000000000002222KGM  00000002320KGM  18007704163              AVSS 125F G/B            AVSS 125F G/B            0         0         0         0    0    0    00000000000016000000000034700000555200
AE00TO202209230423/09/202200000000600000000000000006667KGM  00000006960KGM  18007704170              AVSS 125F Y              AVSS 125F Y              0         0         0         0    0    0    00000000000048000000000034700001665600
AE00TO202209230423/09/202200000000300000000000000003334KGM  00000003480KGM  18007704174              AVSS 125F Y/W            AVSS 125F Y/W            0         0         0         0    0    0    00000000000024000000000034700000832800
AE00TO202209230423/09/202200000001200000000000000013334KGM  00000013921KGM  18007704180              AVSS 125F BR             AVSS 125F BR             0         0         0         0    0    0    00000000000096000000000034700003331200
AE00TO202209230423/09/202200000000100000000000000001111KGM  00000001160KGM  18007704184              AVSS 125F BR/W           AVSS 125F BR/W           0         0         0         0    0    0    00000000000008000000000034700000277600
AE00TO202209230423/09/202200000000300000000000000003334KGM  00000003480KGM  18007704185              AVSS 125F BR/R           AVSS 125F BR/R           0         0         0         0    0    0    00000000000024000000000034700000832800
AE00TO202209230423/09/202200000000400000000000000004444KGM  00000004640KGM  18007704190              AVSS 125F L              AVSS 125F L              0         0         0         0    0    0    00000000000032000000000034700001110400
AE00TO202209230423/09/202200000000900000000000000009999KGM  00000010440KGM  18007704192              AVSS 125F V              AVSS 125F V              0         0         0         0    0    0    00000000000072000000000034700002498400
AE00TO202209230423/09/202200000000200000000000000002222KGM  00000002320KGM  18007704193              AVSS 125F L/B            AVSS 125F L/B            0         0         0         0    0    0    00000000000016000000000034700000555200
AE00TO202209230423/09/202200000000200000000000000003065KGM  00000003163KGM  18009604330              AVS 3 B                  AVS 3 B                  0         0         0         0    0    0    00000000000008000000000087500000700000
AE00TO202209230423/09/202200000000700000000000000006594KGM  00000006937KGM  18018403740              CAVS 03 W                CAVS 03 W                0         0         0         0    0    0    00000000000140000000000010300001442000
AE00TO202209230423/09/202200000000500000000000000004710KGM  00000004954KGM  18018403741              CAVS 03 GY               CAVS 03 GY               0         0         0         0    0    0    00000000000100000000000010300001030000
AE00TO202209230423/09/202200000001300000000000000012246KGM  00000012882KGM  18018403750              CAVS 03 R                CAVS 03 R                0         0         0         0    0    0    00000000000260000000000010300002678000
AE00TO202209230423/09/202200000000300000000000000002826KGM  00000002973KGM  18018403751              CAVS 03 O                CAVS 03 O                0         0         0         0    0    0    00000000000060000000000010300000618000
AE00TO202209230423/09/202200000000800000000000000007536KGM  00000007927KGM  18018403752              CAVS 03 P                CAVS 03 P                0         0         0         0    0    0    00000000000160000000000010300001648000
AE00TO202209230423/09/202200000002300000000000000021666KGM  00000022791KGM  18018403760              CAVS 03 G                CAVS 03 G                0         0         0         0    0    0    00000000000460000000000010300004738000
AE00TO202209230423/09/202200000001100000000000000010362KGM  00000010900KGM  18018403761              CAVS 03 LG               CAVS 03 LG               0         0         0         0    0    0    00000000000220000000000010300002266000
AE00TO202209230423/09/202200000000700000000000000006594KGM  00000006936KGM  18018403770              CAVS 03 Y                CAVS 03 Y                0         0         0         0    0    0    00000000000140000000000010300001442000
AE00TO202209230423/09/202200000000500000000000000004710KGM  00000004955KGM  18018403790              CAVS 03 L                CAVS 03 L                0         0         0         0    0    0    00000000000100000000000010300001030000
AE00TO202209230423/09/202200000000200000000000000001884KGM  00000001982KGM  18018403793              CAVS 03 L/B              CAVS 03 L/B              0         0         0         0    0    0    00000000000040000000000010300000412000
AE00TO202209230423/09/202200000000100000000000000001125KGM  00000001174KGM  1801W003930              IVSSH 05F B              IVSSH 05F B              0         0         0         0    0    0    00000000000018000000000015400000277200
AE00TO202209230423/09/202200000000100000000000000001125KGM  00000001174KGM  1801W003940              IVSSH 05F W              IVSSH 05F W              0         0         0         0    0    0    00000000000018000000000015400000277200
AE00TO202209230423/09/202200000000200000000000000002250KGM  00000002348KGM  1801W003950              IVSSH 05F R              IVSSH 05F R              0         0         0         0    0    0    00000000000036000000000015400000554400
AE00TO202209230423/09/202200000000200000000000000002250KGM  00000002348KGM  1801W00395U              IVSSH 05F BE             IVSSH 05F BE             0         0         0         0    0    0    00000000000036000000000015400000554400
AE00TO202209230423/09/202200000000800000000000000009000KGM  00000009391KGM  1801W003960              IVSSH 05F G              IVSSH 05F G              0         0         0         0    0    0    00000000000144000000000015400002217600
AE00TO202209230423/09/202200000002500000000000000028125KGM  00000029347KGM  1801W003970              IVSSH 05F Y              IVSSH 05F Y              0         0         0         0    0    0    00000000000450000000000015400006930000
AE00TO202209230423/09/202200000000500000000000000005625KGM  00000005870KGM  1801W003990              IVSSH 05F L              IVSSH 05F L              0         0         0         0    0    0    00000000000090000000000015400001386000
AE00TO202209230423/09/202200000000900000000000000010125KGM  00000010566KGM  1801W003992              IVSSH 05F V              IVSSH 05F V              0         0         0         0    0    0    00000000000162000000000015400002494800
AE00TO202209230423/09/202200000000100000000000000001147KGM  00000001195KGM  1801W004043              IVSSH 075F W/B           IVSSH 075F W/B           0         0         0         0    0    0    00000000000013000000000021500000279500
AE00TO202209230423/09/202200000000200000000000000002260KGM  00000002358KGM  1801W006950              IVSSH 035F R             IVSSH 035F R             0         0         0         0    0    0    00000000000050000000000011400000570000
AE00TO202209230423/09/202200000000200000000000000002260KGM  00000002358KGM  1801W006952              IVSSH 035F P             IVSSH 035F P             0         0         0         0    0    0    00000000000050000000000011400000570000
AE00TO202209230423/09/202200000003600000000000000040680KGM  00000042440KGM  1801W00695U              IVSSH 035F BE            IVSSH 035F BE            0         0         0         0    0    0    00000000000900000000000011400010260000
AE00TO202209230423/09/202200000000300000000000000003390KGM  00000003537KGM  1801W006961              IVSSH 035F LG            IVSSH 035F LG            0         0         0         0    0    0    00000000000075000000000011400000855000
AE00TO202209230423/09/202200000000100000000000000001130KGM  00000001179KGM  1801W006970              IVSSH 035F Y             IVSSH 035F Y             0         0         0         0    0    0    00000000000025000000000011400000285000
AE00TO202209230423/09/202200000000500000000000000005650KGM  00000005895KGM  1801W006990              IVSSH 035F L             IVSSH 035F L             0         0         0         0    0    0    00000000000125000000000011400001425000
AE00TO202209230423/09/202200000002000000000000000022600KGM  00000023578KGM  1801W006991              IVSSH 035F SB            IVSSH 035F SB            0         0         0         0    0    0    00000000000500000000000011400005700000
AE00TO202209230423/09/202200000000100000000000000001030KGM  00000001079KGM  180D0203752              AVSSH 03F P              AVSSH 03F P              0         0         0         0    0    0    00000000000020000000000012200000244000
AE00TO202209230423/09/202200000000100000000000000001030KGM  00000001079KGM  180D0203761              AVSSH 03F LG             AVSSH 03F LG             0         0         0         0    0    0    00000000000020000000000012200000244000
AE00TO202209230423/09/202200000000100000000000000001034KGM  00000001082KGM  180D0203943              AVSSH 05F W/B            AVSSH 05F W/B            0         0         0         0    0    0    00000000000015000000000016300000244500
AE00TO202209230423/09/202200000000100000000000000001034KGM  00000001082KGM  180D0203990              AVSSH 05F L              AVSSH 05F L              0         0         0         0    0    0    00000000000015000000000016300000244500
AE00TO202209230423/09/202200000000100000000000000001034KGM  00000001082KGM  180D0203995              AVSSH 05F L/R            AVSSH 05F L/R            0         0         0         0    0    0    00000000000015000000000016300000244500
AE00TO202209230423/09/202200000000400000000000000003085KGM  00000003280KGM  181AD2002ZZ              CIVUSAS-S 035X2 B        CIVUSAS-S 035X2 B        0         0         0         0    0    0    00000000000018000000000043700000786600
AE00TO202209230423/09/202200000000100000000000000000760KGM  00000000809KGM  181AD2003ZZ              CIVUSAS-S 035X3 B        CIVUSAS-S 035X3 B        0         0         0         0    0    0    00000000000003500000000055300000193550
AE00TO202209230423/09/202200000000500000000000000004200KGM  00000004444KGM  181AD2004ZZ              CIVUSAS-S 035X4 B        CIVUSAS-S 035X4 B        0         0         0         0    0    0    00000000000015000000000066700001000500
AE00TO202209230423/09/202200000000200000000000000001832KGM  00000001928KGM  181B32039Y6              AVSSCS 05FX1 DGY/G       AVSSCS 05FX1 DGY/G       0         0         0         0    0    0    00000000000008000000000055900000447200
AE00TO202209230423/09/202200000001400000000000000011152KGM  00000011837KGM  181B32116S1              AVSSCS 03FX2 DGY         AVSSCS 03FX2 DGY         0         0         0         0    0    0    00000000000049000000000060900002984100
AE00TO202209230423/09/202200000001900000000000000015135KGM  00000016064KGM  181B32116Y9              AVSSCS 03FX2 DGY/P       AVSSCS 03FX2 DGY/P       0         0         0         0    0    0    00000000000066500000000060900004049850
AE00TO202209230423/09/202200000003900000000000000031068KGM  00000032974KGM  181B32116Z5              AVSSCS 03FX2 DGY/L       AVSSCS 03FX2 DGY/L       0         0         0         0    0    0    00000000000136500000000060900008312850
AE00TO202209230423/09/202200000000200000000000000001410KGM  00000001508KGM  181CQ7003ZZ              IVSSHCS-S 05FX2 B(B,W)   IVSSHCS-S 05FX2 B(B,W)   0         0         0         0    0    0    00000000000006000000000072600000435600
AE00TO202209230423/09/202200000000100000000000000000705KGM  00000000754KGM  181CQ7004ZZ              IVSSHCS-S 05FX2 B(R,G)   IVSSHCS-S 05FX2 B(R,G)   0         0         0         0    0    0    00000000000003000000000072600000217800
AE00TO202209230423/09/202200000000400000000000000002862KGM  00000003058KGM  181D6910230              AVSSHCS 05FX2 B          AVSSHCS 05FX2 B          0         0         0         0    0    0    00000000000012000000000079800000957600
AE00TO202209230423/09/202200000000100000000000000000716KGM  00000000764KGM  181D6910237              AVSSHCS 05FX2 B/Y        AVSSHCS 05FX2 B/Y        0         0         0         0    0    0    00000000000003000000000079800000239400
AE00TO202209230423/09/202200000000300000000000000002147KGM  00000002293KGM  181D6910239              AVSSHCS 05FX2 B/L        AVSSHCS 05FX2 B/L        0         0         0         0    0    0    00000000000009000000000079800000718200
AE00TO202209230423/09/202200000001100000000000000008452KGM  00000008988KGM  181E48022ZZ              CAVSAS-S 05X2 GY         CAVSAS-S 05X2 GY         0         0         0         0    0    0    00000000000033000000000056500001864500
AE00TO202209230423/09/202200000000100000000000000000758KGM  00000000807KGM  181E50002ZZ              AVSSCS-S 03FX2 DGY/G     AVSSCS-S 03FX2 DGY/G     0         0         0         0    0    0    00000000000003500000000059400000207900
AE00TO202209230423/09/202200000000100000000000000000758KGM  00000000807KGM  181E50003ZZ              AVSSCS-S 03FX2 DGY/BR    AVSSCS-S 03FX2 DGY/BR    0         0         0         0    0    0    00000000000003500000000059400000207900
AE00TO202209230423/09/202200000001300000000000000012075KGM  00000012709KGM  181E50011ZZ              AVSSCS-S 05FX2 DGY/Y     AVSSCS-S 05FX2 DGY/Y     0         0         0         0    0    0    00000000000039000000000070600002753400
AE00TO202209230423/09/202200000000200000000000000001858KGM  00000001955KGM  181E50016ZZ              AVSSCS-S 05FX2 DGY/R     AVSSCS-S 05FX2 DGY/R     0         0         0         0    0    0    00000000000006000000000070600000423600
AE00TO202209230423/09/202200000001700000000000000013876KGM  00000014707KGM  181E50028ZZ              AVSSCS-S 05FX3 DGY       AVSSCS-S 05FX3 DGY       0         0         0         0    0    0    00000000000042500000000091500003888750
AE00TO202209230423/09/202200000000100000000000000000763KGM  00000000812KGM  181F21002ZZ              AVSSHCS-S 05FX1 B        AVSSHCS-S 05FX1 B        0         0         0         0    0    0    00000000000004000000000053700000214800
AE00TO202209230423/09/202200000000200000000000000001527KGM  00000001624KGM  181F21003ZZ              AVSSHCS-S 05FX1 B/W      AVSSHCS-S 05FX1 B/W      0         0         0         0    0    0    00000000000008000000000053700000429600
AE00TO202209230423/09/202200000000100000000000000000759KGM  00000000808KGM  181F21013ZZ              AVSSHCS-S 05FX2 B/Y      AVSSHCS-S 05FX2 B/Y      0         0         0         0    0    0    00000000000003000000000073800000221400
