AE00TI102209170117/09/202200000000400000000000000004934KGM  00000005782KGM  7287-7599                HOUSING FEMALE ASS'Y     72877599                 0         0         0         0    0    0    00000640000000160000000350000022400000
AE00TI102209170117/09/202200000000400000000000000003464KGM  00000004044KGM  7288-3329-30             HOUSING MALE             7288332930               0         0         0         0    0    0    00000600000000150000000354000021240000
AE00TI102209170117/09/202200000000200000000000000001733KGM  00000002022KGM  7288-3330-30             HOUSING MALE             7288333030               0         0         0         0    0    0    00000300000000150000000354000010620000
AE00TI102209170117/09/202200000000600000000000000005196KGM  00000006065KGM  7288-3331-30             HOUSING MALE             7288333130               0         0         0         0    0    0    00000900000000150000000354000031860000
AE00TI102209170117/09/202200000001100000000000000007550KGM  00000009915KGM  7289-3342                HOUSING FEMALE ASS'Y     72893342                 0         0         0         0    0    0    00002640000000240000000186000049104000
AE00TI102209170117/09/202200000000100000000000000001241KGM  00000001406KGM  7298-1853-10             HOUSING FEMALE ASS'Y     7298185310               0         0         0         0    0    0    00000390000000390000000186000007254000
AE00TI102209170117/09/202200000001000000000000000009815KGM  00000012900KGM  7298-5993-30             SEALED ASSY FEMALE       7298599330               0         0         0         0    0    0    00002184000000218400000266000058094400
AE00TI102209170117/09/202200000000900000000000000009986KGM  00000011336KGM  7327-6572-3W             BATTERY FUSE             732765723W               0         0         0         0    0    0    00000086400000009600008162000070519680
AE00TI102209170117/09/202200000002800000000000000031945KGM  00000037965KGM  7327-6840-3W             BATTERY FUSE             732768403W               0         0         0         0    0    0    00000201600000007200009909000199765440
AE00TI102209170117/09/202200000002700000000000000020034KGM  00000030294KGM  7388-2978-30             HOUSING MALE ASS'Y       7388297830               0         0         0         0    0    0    00001296000000048000001790000231984000
