AE00TI102208270127/08/202200000003200000000000000019152KGM  00000029667KGM  7114-4112-02             TERMINAL                 7114411202               0         0         0         0    0    0    00028800000000900000000051000146880000
AE00TI102208270127/08/202200000000700000000000000004514KGM  00000006826KGM  7116-4025                TERMINAL                 71164025                 0         0         0         0    0    0    00011200000001600000000034000038080000
AE00TI102208270127/08/202200000000700000000000000004648KGM  00000006960KGM  7116-4026                TERMINAL                 71164026                 0         0         0         0    0    0    00011200000001600000000033000036960000
AE00TI102208270127/08/202200000000100000000000000000653KGM  00000000982KGM  7116-4028-08             TERMINAL FEMALE          7116402808               0         0         0         0    0    0    00001600000001600000000127000020320000
AE00TI102208270127/08/202200000000100000000000000000642KGM  00000000986KGM  7116-5044-02             TERMINAL                 7116504402               0         0         0         0    0    0    00001600000001600000000029000004640000
AE00TI102208270127/08/202200000001200000000000000002222KGM  00000002803KGM  7137-3001-30             COVER PACKING            7137300130               0         0         0         0    0    0    00000600000000050000000340000020400000
AE00TI102208270127/08/202200000002900000000000000009587KGM  00000011194KGM  7158-3006-90             RUBBER STOPPER           7158300690               0         0         0         0    0    0    00058000000002000000000016000092800000
AE00TI102208270127/08/202200000001600000000000000005408KGM  00000006179KGM  7158-3009-60             RUBBER STOPPER           7158300960               0         0         0         0    0    0    00032000000002000000000012000038400000
AE00TI102208270127/08/202200000001900000000000000001976KGM  00000002896KGM  7158-3166-60             WIRE SEAL                7158316660               0         0         0         0    0    0    00076000000004000000000004000030400000
AE00TI102208270127/08/202200000000800000000000000000352KGM  00000000737KGM  7158-3168-80             SEALED                   7158316880               0         0         0         0    0    0    00016000000002000000000004000006400000
AE00TI102208270127/08/202200000000900000000000000001404KGM  00000001837KGM  7158-3169-40             SEALING PLUG             7158316940               0         0         0         0    0    0    00036000000004000000000006000021600000
AE00TI102208270127/08/202200000000600000000000000003922KGM  00000004210KGM  7172-5403-30             SEALED PACKING           7172540330               0         0         0         0    0    0    00002400000000400000000119000028560000
AE00TI102208270127/08/202200000000200000000000000000372KGM  00000000469KGM  7172-5540-80             SEALED WIRE SEAL         7172554080               0         0         0         0    0    0    00004000000002000000000010000004000000
AE00TI102208270127/08/202200000000200000000000000001666KGM  00000002249KGM  7189-5000                HYBRID HOUSING           71895000                 0         0         0         0    0    0    00000240000000120000000310000007440000
AE00TI102208270127/08/202200000001600000000000000008928KGM  00000013491KGM  7196-0805-02             TERMINAL FEMALE          7196080502               0         0         0         0    0    0    00036000000002250000000021000075600000
AE00TI102208270127/08/202200000001600000000000000007114KGM  00000011677KGM  7196-1460-02             TERMINAL FEMALE          7196146002               0         0         0         0    0    0    00045600000002850000000014000063840000
AE00TI102208270127/08/202200000004000000000000000009504KGM  00000019504KGM  7271-1818-30             CASE SUB ASSY,ECU        7271181830               0         0         0         0    0    0    00000072000000001800009388000067593600
AE00TI102208270127/08/202200000002700000000000000018533KGM  00000024338KGM  7289-3342-30             HOUSING FEMALE ASS'Y     7289334230               0         0         0         0    0    0    00006480000000240000000191000123768000
AE00TI102208270127/08/202200000000500000000000000005859KGM  00000006843KGM  7289-5011-30             HOUSING FEMALE ASS'Y     7289501130               0         0         0         0    0    0    00001200000000240000000333000039960000
AE00TI102208270127/08/202200000000500000000000000004908KGM  00000006450KGM  7298-5993-30             SEALED ASSY FEMALE       7298599330               0         0         0         0    0    0    00001092000000218400000266000029047200
AE00TI102208270127/08/202200000001200000000000000011940KGM  00000013500KGM  7388-0313-30             CONNECTOR ASS'Y          7388031330               0         0         0         0    0    0    00001440000000120000000376000054144000
AE00TI102208270127/08/202200000004200000000000000031164KGM  00000047124KGM  7388-2978-30             HOUSING MALE ASS'Y       7388297830               0         0         0         0    0    0    00002016000000048000001790000360864000
