AE00TI102208220422/08/202200000000200000000000000001459KGM  00000001666KGM  7182-2412                HOUSING MALE             71822412                 0         0         0         0    0    0    00000100000000050000000638000006380000
AE00TI102208220422/08/202200000000700000000000000007723KGM  00000008735KGM  7183-7665-30             HOUSING                  7183766530               0         0         0         0    0    0    00000840000000120000000242000020328000
AE00TI102208220422/08/202200000002000000000000000000000KGM  00000000000KGM  7273-2981-0WD            CASSETTE BRACKET         727329810WD              0         0         0         0    0    0    00000200000000010000000000000000000000
AE00TI102208220422/08/202200000002000000000000000000000KGM  00000000000KGM  7273-2981-0WE            CASSETTE BRACKET         727329810WE              0         0         0         0    0    0    00000160000000008000000000000000000000
AE00TI102208220422/08/202200000004000000000000000000000KGM  00000000000KGM  7273-2982-0WD            CASSETTE BRACKET         727329820WD              0         0         0         0    0    0    00000400000000010000000000000000000000
AE00TI102208220422/08/202200000001400000000000000000000KGM  00000000000KGM  7273-2982-0WE            CASSETTE BRACKET         727329820WE              0         0         0         0    0    0    00000210000000015000000000000000000000
AE00TI102208220422/08/202200000002700000000000000000000KGM  00000000000KGM  7273-2983-0WD            CASSETTE BRACKET         727329830WD              0         0         0         0    0    0    00000270000000010000000000000000000000
AE00TI102208220422/08/202200000001200000000000000009391KGM  00000011911KGM  7282-4578                HOUSING MALE ASS'Y       72824578                 0         0         0         0    0    0    00001440000000120000000255000036720000
AE00TI102208220422/08/202200000000700000000000000007442KGM  00000008982KGM  7282-4855                HOUSING MALE ASS'Y       72824855                 0         0         0         0    0    0    00000840000000120000000347000029148000
AE00TI102208220422/08/202200000000100000000000000000230KGM  00000000339KGM  7282-5528-70             HOUSING MALE ASS'Y       7282552870               0         0         0         0    0    0    00000100000000100000000434000004340000
AE00TI102208220422/08/202200000000300000000000000004068KGM  00000004560KGM  7282-8120-40             CONNECTOR HOUSING        7282812040               0         0         0         0    0    0    00000900000000300000000215000019350000
AE00TI102208220422/08/202200000000600000000000000006106KGM  00000007426KGM  7282-9391                HOUSING MALE ASS'Y       72829391                 0         0         0         0    0    0    00000720000000120000000325000023400000
AE00TI102208220422/08/202200000000300000000000000001954KGM  00000002614KGM  7283-4576                HOUSING FEMALE ASS'Y     72834576                 0         0         0         0    0    0    00001440000000480000000128000018432000
AE00TI102208220422/08/202200000000300000000000000002513KGM  00000003173KGM  7283-4578                HOUSING FEMALE ASS'Y     72834578                 0         0         0         0    0    0    00000720000000240000000190000013680000
AE00TI102208220422/08/202200000000200000000000000001908KGM  00000002208KGM  7283-5830                CONNECTOR                72835830                 0         0         0         0    0    0    00001200000000600000000154000018480000
AE00TI102208220422/08/202200000000200000000000000001908KGM  00000002208KGM  7283-5830-30             CONNECTOR                7283583030               0         0         0         0    0    0    00001200000000600000000155000018600000
AE00TI102208220422/08/202200000000100000000000000000724KGM  00000000874KGM  7283-5832                CONNECTOR HOUSING        72835832                 0         0         0         0    0    0    00000240000000240000000206000004944000
AE00TI102208220422/08/202200000000500000000000000004445KGM  00000005660KGM  7283-5843                CONNECTOR                72835843                 0         0         0         0    0    0    00000750000000150000000280000021000000
AE00TI102208220422/08/202200000000300000000000000001332KGM  00000001819KGM  7283-5845                CONNECTOR HOUSING        72835845                 0         0         0         0    0    0    00001800000000600000000133000023940000
AE00TI102208220422/08/202200000000300000000000000002655KGM  00000003306KGM  7283-5846                HOUSING                  72835846                 0         0         0         0    0    0    00000450000000150000000241000010845000
AE00TI102208220422/08/202200000000100000000000000000914KGM  00000001143KGM  7283-6120                CONNECTOR HOUSING        72836120                 0         0         0         0    0    0    00000150000000150000000368000005520000
AE00TI102208220422/08/202200000000100000000000000000543KGM  00000000666KGM  7283-7022-30             HOUSING FEMALE ASS'Y     7283702230               0         0         0         0    0    0    00000100000000100000001133000011330000
AE00TI102208220422/08/202200000000200000000000000002052KGM  00000002400KGM  7283-7029-40             CONNECTOR                7283702940               0         0         0         0    0    0    00001200000000600000000231000027720000
AE00TI102208220422/08/202200000001000000000000000009898KGM  00000012486KGM  7283-7526-30             CONNECTOR HOUSING        7283752630               0         0         0         0    0    0    00001960000000196000000506000099176000
AE00TI102208220422/08/202200000000300000000000000002969KGM  00000003746KGM  7283-7526-40             CONNECTOR HOUSING        7283752640               0         0         0         0    0    0    00000588000000196000000504000029635200
AE00TI102208220422/08/202200000000200000000000000000700KGM  00000000925KGM  7283-8721-30             HOUSING FEMALE ASS'Y     7283872130               0         0         0         0    0    0    00000200000000100000000415000008300000
AE00TI102208220422/08/202200000000800000000000000007285KGM  00000009045KGM  7286-3885                CONNECTOR MALE ASS'Y     72863885                 0         0         0         0    0    0    00000960000000120000000295000028320000
AE00TI102208220422/08/202200000000300000000000000002732KGM  00000003392KGM  7286-3885-30             CONNECTOR MALE ASS'Y     7286388530               0         0         0         0    0    0    00000360000000120000000309000011124000
AE00TI102208220422/08/202200000000600000000000000005464KGM  00000006784KGM  7286-3885-40             CONNECTOR MALE ASS'Y     7286388540               0         0         0         0    0    0    00000720000000120000000313000022536000
AE00TI102208220422/08/202200000000100000000000000000977KGM  00000001164KGM  7286-3970                CONNECTOR HOUSING        72863970                 0         0         0         0    0    0    00000011000000011000002089000002297900
AE00TI102208220422/08/202200000000700000000000000005376KGM  00000006846KGM  7286-4097                CONNECTOR MALE ASS'Y     72864097                 0         0         0         0    0    0    00001120000000160000000196000021952000
AE00TI102208220422/08/202200000000100000000000000001061KGM  00000001313KGM  7287-1917                CONNECTOR FEMALE         72871917                 0         0         0         0    0    0    00000240000000240000000253000006072000
AE00TI102208220422/08/202200000000200000000000000002059KGM  00000002499KGM  7287-3885                HYBRID FEMALE ASS'Y      72873885                 0         0         0         0    0    0    00000480000000240000000207000009936000
AE00TI102208220422/08/202200000000700000000000000008165KGM  00000009705KGM  7287-8073                HOUSING FEMALE ASS'Y     72878073                 0         0         0         0    0    0    00001680000000240000000244000040992000
AE00TI102208220422/08/202200000000100000000000000001229KGM  00000001449KGM  7287-9000                HOUSING FEMALE ASS'Y     72879000                 0         0         0         0    0    0    00000480000000480000000162000007776000
AE00TI102208220422/08/202200000002000000000000000010752KGM  00000013800KGM  7287-9323                UNSEALED HOUSING SUB     72879323                 0         0         0         0    0    0    00004800000000240000000146000070080000
AE00TI102208220422/08/202200000000100000000000000000538KGM  00000000690KGM  7287-9323-40             UNSEALED HOUSING SUB     7287932340               0         0         0         0    0    0    00000240000000240000000155000003720000
AE00TI102208220422/08/202200000000900000000000000003488KGM  00000007088KGM  7288-3206                HOUSING MALE ASS'Y       72883206                 0         0         0         0    0    0    00000918000000102000000351000032221800
AE00TI102208220422/08/202200000000200000000000000001732KGM  00000002022KGM  7288-3329-30             HOUSING MALE             7288332930               0         0         0         0    0    0    00000300000000150000000354000010620000
AE00TI102208220422/08/202200000001000000000000000008670KGM  00000010120KGM  7288-3334-30             HOUSING MALE             7288333430               0         0         0         0    0    0    00001500000000150000000354000053100000
AE00TI102208220422/08/202200000000100000000000000000862KGM  00000001006KGM  7288-3340-30             HOUSING MALE             7288334030               0         0         0         0    0    0    00000150000000150000000354000005310000
AE00TI102208220422/08/202200000000900000000000000006178KGM  00000008113KGM  7289-3342                HOUSING FEMALE ASS'Y     72893342                 0         0         0         0    0    0    00002160000000240000000186000040176000
AE00TI102208220422/08/202200000007000000000000000048048KGM  00000063098KGM  7289-3342-30             HOUSING FEMALE ASS'Y     7289334230               0         0         0         0    0    0    00016800000000240000000191000320880000
AE00TI102208220422/08/202200000000900000000000000006178KGM  00000008113KGM  7289-3342-40             HOUSING FEMALE ASS'Y     7289334240               0         0         0         0    0    0    00002160000000240000000192000041472000
AE00TI102208220422/08/202200000003700000000000000025397KGM  00000033352KGM  7289-3342-90             HOUSING FEMALE ASS'Y     7289334290               0         0         0         0    0    0    00008880000000240000000196000174048000
AE00TI102208220422/08/202200000000100000000000000000829KGM  00000001049KGM  7289-6518-30             HOUSING FEMALE ASS'Y     7289651830               0         0         0         0    0    0    00000120000000120000000598000007176000
AE00TI102208220422/08/202200000000200000000000000002702KGM  00000003332KGM  7289-6524-30             HOUSING FEMALE ASS'Y     7289652430               0         0         0         0    0    0    00000048000000024000004757000022833600
AE00TI102208220422/08/202200000000100000000000000001152KGM  00000001362KGM  7289-6547                HOUSING FEMALE ASS'Y     72896547                 0         0         0         0    0    0    00000240000000240000000229000005496000
AE00TI102208220422/08/202200000000100000000000000000839KGM  00000001119KGM  7289-6868-30             SEALED ASSY FEMALE       7289686830               0         0         0         0    0    0    00000252000000252000000332000008366400
AE00TI102208220422/08/202200000000300000000000000003810KGM  00000004631KGM  7289-9613-30             HOUSING FEMALE ASS'Y     7289961330               0         0         0         0    0    0    00000072000000024000004796000034531200
AE00TI102208220422/08/202200000000100000000000000001162KGM  00000001285KGM  7386-2747                CONNECTOR ASS'Y          73862747                 0         0         0         0    0    0    00000200000000200000000413000008260000
AE00TI102208220422/08/202200000000200000000000000002489KGM  00000002740KGM  7386-9155                CONNECTOR MALE ASS'Y     73869155                 0         0         0         0    0    0    00000120000000060000002466000029592000
