AE00TI102208220122/08/202200000000300000000000000003701KGM  00000004337KGM  7287-7599                HOUSING FEMALE ASS'Y     72877599                 0         0         0         0    0    0    00000480000000160000000350000016800000
AE00TI102208220122/08/202200000000300000000000000003701KGM  00000004337KGM  7287-7599-40             HOUSING FEMALE ASS'Y     7287759940               0         0         0         0    0    0    00000480000000160000000367000017616000
AE00TI102208220122/08/202200000000100000000000000000894KGM  00000001185KGM  7287-9234                JOINT CONNECTOR          72879234                 0         0         0         0    0    0    00000960000000960000000137000013152000
AE00TI102208220122/08/202200000002100000000000000018188KGM  00000021233KGM  7288-3329-30             HOUSING MALE             7288332930               0         0         0         0    0    0    00003150000000150000000354000111510000
AE00TI102208220122/08/202200000000300000000000000002582KGM  00000003017KGM  7288-3332-30             HOUSING MALE             7288333230               0         0         0         0    0    0    00000450000000150000000354000015930000
AE00TI102208220122/08/202200000000400000000000000003468KGM  00000004048KGM  7288-3334-30             HOUSING MALE             7288333430               0         0         0         0    0    0    00000600000000150000000354000021240000
AE00TI102208220122/08/202200000001100000000000000009537KGM  00000011132KGM  7288-3335-30             HOUSING MALE             7288333530               0         0         0         0    0    0    00001650000000150000000354000058410000
AE00TI102208220122/08/202200000002400000000000000020808KGM  00000024288KGM  7288-3339-30             HOUSING MALE             7288333930               0         0         0         0    0    0    00003600000000150000000354000127440000
AE00TI102208220122/08/202200000000400000000000000003446KGM  00000004026KGM  7288-3340-30             HOUSING MALE             7288334030               0         0         0         0    0    0    00000600000000150000000354000021240000
AE00TI102208220122/08/202200000001600000000000000010982KGM  00000014422KGM  7289-3342-30             HOUSING FEMALE ASS'Y     7289334230               0         0         0         0    0    0    00003840000000240000000191000073344000
AE00TI102208220122/08/202200000000500000000000000005859KGM  00000006843KGM  7289-5011-30             HOUSING FEMALE ASS'Y     7289501130               0         0         0         0    0    0    00001200000000240000000333000039960000
AE00TI102208220122/08/202200000000200000000000000001658KGM  00000002098KGM  7289-6518-30             HOUSING FEMALE ASS'Y     7289651830               0         0         0         0    0    0    00000240000000120000000598000014352000
AE00TI102208220122/08/202200000001800000000000000015106KGM  00000020146KGM  7289-6868-30             SEALED ASSY FEMALE       7289686830               0         0         0         0    0    0    00004536000000252000000332000150595200
AE00TI102208220122/08/202200000000300000000000000003324KGM  00000004562KGM  7289-9553-50             SEALED ASSY FEMALE       7289955350               0         0         0         0    0    0    00000882000000294000000252000022226400
AE00TI102208220122/08/202200000000700000000000000007022KGM  00000008432KGM  7298-1865-30             HOUSING FEMALE ASS'Y     7298186530               0         0         0         0    0    0    00001680000000240000000196000032928000
AE00TI102208220122/08/202200000000200000000000000002195KGM  00000002717KGM  7298-4094-10             HOUSING FEMALE ASS'Y     7298409410               0         0         0         0    0    0    00000676000000338000000241000016291600
AE00TI102208220122/08/202200000011300000000000000083846KGM  00000126786KGM  7388-2978-30             HOUSING MALE ASS'Y       7388297830               0         0         0         0    0    0    00005424000000048000001790000970896000
AE00TI102208220122/08/202200000002000000000000000026400KGM  00000031400KGM  7470-3082                J/B COMPLETE ASS'Y       74703082                 0         0         0         0    0    0    00000048000000002400031298000150230400
AE00TI102208220122/08/202200000002000000000000000000000KGM  00000000000KGM  7470-5308E               J/B COMPLETE ASS'Y       74705308E                0         0         0         0    0    0    00000020000000001000000000000000000000
AE00TI102208220122/08/202200000001800000000000000000000KGM  00000000000KGM  7470-5784E               J/B COMPLETE ASS'Y       74705784E                0         0         0         0    0    0    00000018000000001000000000000000000000
