BI00B32CJ    TTQ209H        202209091801W004091              IVSSH 0.75F SB           CCN000002600000002600FN00000000020220901000002600NNE   20220822085940    1W    00000130000000882000000000032CJ    QNYHVQN 000000000000UO428001
BI00B32CJ    @TTQ209H       20220916181E48032ZZ              CAVSAS-S 0.3X2 GY/P      CCN000001050000001050FN00000000020220901000001050NNE   20220822085940    1W    00000035000002008700000000032CJ    QNYHVQN 000000000000UP528002
BI00B32CJ    @TTQ209H       20220916181AD2010ZZ              CIVUSAS-S 0.5X4 B        CCN000002500000002500FN00000000020220901000002500NNE   20220822085940    1W    00000025000003214000000000032CJ    QNYHVQN 000000000000UP528001
BI00B32DE    TT209B         2022082518007704152              AVSS 1.25F P             CCN000003200000003200FN00000000020220901000003200NNE00 20220822141032    1W    00000080000001389000000000032DE    TVYEV-TV000000000000VW128016
BI00B32DE    TT209B         2022082518007704192              AVSS 1.25F V             CCN000001600000001600FN00000000020220901000001600NNE00 20220822141032    1W    00000080000001389000000000032DE    TVYEV-TV000000000000VW128017
BI00B32DE    TT2102         2022091518007704152              AVSS 1.25F P             CCN000002400000002400FN00000000020221001000002400NNM00 20220822114929    1W    00000080000001389000000000032DE    TVYEV-TV000000000000VT528078
BI00B32DE    TT2104         20220929180D0204192              AVSSH 1.25F V            CCN000003200000003200FN00000000020221001000003200NNM00 20220822114824    1W    00000080000001458000000000032DE    TVYEV-TV000000000000VT229086
BI00B32DE    @TT210A        20220908181F21031ZZ              AVSSHCS-S 1.25FX2 B/P    CCN000000400000000200FN00000000020221001000000200NNE00 20220822114750    1W    00000020000004267300000000032DE    TVYEV-TV000000000000VR428007
BI00A32DE    @TT210A        20220823181F21031ZZ              AVSSHCS-S 1.25FX2 B/P    CCN000000200000000200FN00000000020221001000000200NNE20 20220822114750    1W    00000020000004267300000000032DE    TVYEV-TV000000000000VR428007
BI00A32DE    TT2102         2022082418007704152              AVSS 1.25F P             CCN000000800000000000FY00000000020221001000000000NNM10 20220822114929    1W    00000080000001389000000000032DE    TVYEV-TV000000000000VT528078
BI00B32G7    @JW2210B MW    20220915181E48032ZZ              CAVSAS-S 0.3X2 GY/P      CCN000000350000000350FN00000000020221001000000350NNE   20220822093648    1W    00000035000002008700000000032G7    JIJAI   000000000000JU528001
BI00B32G7    JW2210BMMW     202209151801W004030              IVSSH 0.75F B            CCN000001300000001300FN00000000020221001000001300NNE   20220822093649    1W    00000130000000882000000000032G7    JIJAI   000000000000JV528010
BI00B32G7    JW2210BMMW     202209151801W004050              IVSSH 0.75F R            CCN000003900000003900FN00000000020221001000003900NNE   20220822093649    1W    00000130000000882000000000032G7    JIJAI   000000000000JV528011
BI00B32G7    JW2210BMMW     202209151801W004070              IVSSH 0.75F Y            CCN000001300000001300FN00000000020221001000001300NNE   20220822093649    1W    00000130000000882000000000032G7    JIJAI   000000000000JV528012
BI00B32H2    TAW2094        2022090218000004530              AV 8 B                   CCN000002400000001100FN00000000020220901000001100NNM00 20220822105101    1W    00000010000010466200000000032H2    HVYHV   000000000000UH328061
BI00B32H2    TAW2094        20220902180D0203930              AVSSH 0.5F B             CCN000003000000001500FN00000000020220901000001500NNM00 20220822105101    1W    00000150000000689000000000032H2    HVYHV   000000000000UH328058
BI00B32H2    TAW2094        20220902180D0203943              AVSSH 0.5F W/B           CCN000001500000001500FN00000000020220901000001500NNM00 20220822105101    1W    00000150000000689000000000032H2    HVYHV   000000000000UH328060
BI00B32H2    TAW2102        2022091618000004530              AV 8 B                   CCN000001300000000000FY00000000020221001000000000NNM11 20220822094414    1W    00000010000010466200000000032H2    HVYHV   000000000000UH528054
BI00B32H2    TAW2103        2022092318000004530              AV 8 B                   CCN000002600000000200FN00000000020221001000000200NNM11 20220822094718    1W    00000010000010466200000000032H2    HVYHV   000000000000UH129060
BI00B32H2    TAW2102        2022091618000004540              AV 8 W                   CCN000001400000000000FY00000000020221001000000000NNM11 20220822094429    1W    00000010000010466200000000032H2    HVYHV   000000000000UH528055
BI00B32H2    TAW2103        20220923180D0203930              AVSSH 0.5F B             CCN000004500000001500FN00000000020221001000001500NNM11 20220822094803    1W    00000150000000689000000000032H2    HVYHV   000000000000UH129055
BI00B32H2    TAW2102        20220916180D0203943              AVSSH 0.5F W/B           CCN000003000000000000FY00000000020221001000000000NNM11 20220822094502    1W    00000150000000689000000000032H2    HVYHV   000000000000UH528052
BI00B32H2    TAW2102        20221007180D0204170              AVSSH 1.25F Y            CCN000000800000000800FN00000000020221001000000800NNM21 20220822105622    1W    00000080000001458000000000032H2    HVYHV   000000000000UH528053
BI00B32H2    @TAW2103       20220923181B32102S1              AVSSCS 0.5FX2 DGY        CCN000003900000000000FY00000000020221001000000000NNM11 20220822094739    1W    00000030000002903000000000032H2    HVYHV   000000000000UH129052
BI00B32H2    @TAW2104       20220930181B32102S1              AVSSCS 0.5FX2 DGY        CCN000007200000005700FN00000000020221001000005700NNM11 20220822095033    1W    00000030000002903000000000032H2    HVYHV   000000000000UH229052
BI00B32H2    @TAW2103       20220923181D6910230              AVSSHCS 0.5FX2 B         CCN000000600000000000FY00000000020221001000000000NNM11 20220822094827    1W    00000030000002385000000000032H2    HVYHV   000000000000UH129053
BI00B32H2    @TAW2104       20220930181D6910230              AVSSHCS 0.5FX2 B         CCN000000600000000000FY00000000020221001000000000NNM11 20220822095051    1W    00000030000002385000000000032H2    HVYHV   000000000000UH229053
BI00B32H2    TAW210H        2022091618007704160              AVSS 1.25F G             CCN000000800000000800FN00000000020221001000000800NNE20 20220822115934    1W    00000080000001389000000000032H2    HVYHV   000000000000UK329002
BI00B32H2    TAW210J        2022091618007704130              AVSS 1.25F B             CCN000000800000000800FN00000000020221001000000800NNE   20220822093614    1W    00000080000001389000000000032H2    HVYHV   000000000000UK528004
BI00B32H2    TAW210J        2022091618007704143              AVSS 1.25F W/B           CCN000000800000000800FN00000000020221001000000800NNE   20220822093614    1W    00000080000001389000000000032H2    HVYHV   000000000000UK528005
BI00B32H2    @TAW210J       20220916181F21009ZZ              AVSSHCS-S 0.5FX2 B       CCN000000300000000300FN00000000020221001000000300NNE   20220822093613    1W    00000030000002531400000000032H2    HVYHV   000000000000UK528003
BI00B32H2    @TAW210J       20220916181AD2004ZZ              CIVUSAS-S 0.35X4 B       CCN000002400000002400FN00000000020221001000002400NNE   20220822093613    1W    00000030000002799900000000032H2    HVYHV   000000000000UK528002
BI00B32H2    @TAW210J       20220916181AD2025ZZ              CIVUSAS-S 0.13X4 B       CCN000001600000001600FN00000000020221001000001600NNE   20220822093613    1W    00000040000001661800000000032H2    HVYHV   000000000000UK528001
BI00B32H8    2209A MW       2022090218007703937              AVSS 0.5F B/Y            CCN000001500000001500FN00000000020220901000001500NNE20 20220822164521    1W    00000150000000674000000000032H8    TYTYC   000000000000LN428004
BI00B32M1    @TV209A        20220901181D69004ZZ              AVSSHCS 1.25FX2 B        CCN000000200000000200FN00000000020220901000000200NNE   20220822111936    1W    00000020000004357000000000032M1    VNYEV   000000000000VM328002
BI00B32M1    @TV209A        20220901181D6910235              AVSSHCS 0.5FX2 B/R       CCN000000600000000600FN00000000020220901000000600NNE   20220822111936    1W    00000030000002385000000000032M1    VNYEV   000000000000VM328001
BI00B32M1    @TV209A        20220901181F21001ZZ              AVSSHCS-S 0.3FX2 B/Y     CCN000000350000000350FN00000000020220901000000350NNE   20220822111936    1W    00000035000002034300000000032M1    VNYEV   000000000000VM328003
BI00B32M3    SM2209AHMW     2022090818007704030              AVSS 0.75F B             CCN000003000000003000FN00000000020220901000003000NNE   20220822093800    1W    00000100000000943000000000032M3    SASAMI  000000000000QI428001
BI00B32M3    SM2209AHMW     2022090818007704130              AVSS 1.25F B             CCN000001600000001600FN00000000020220901000001600NNE   20220822093800    1W    00000080000001389000000000032M3    SASAMI  000000000000QI428002
BI00B32M3    @SM2209BMMW    20220915181E50011ZZ              AVSSCS-S 0.5FX2 DGY/Y    CCN000002700000002700FN00000000020220901000002700NNE   20220822093759    1W    00000030000003096000000000032M3    SASAMI  000000000000QJ528001
BI00B32M3    SM2209C MW     2022090818007703992              AVSS 0.5F V              CCN000003000000003000FN00000000020220901000003000NNE   20220822093801    1W    00000150000000674000000000032M3    SASAMI  000000000000QF428001
BI00B32M3    SM2209C MW     2022090818007704161              AVSS 1.25F LG            CCN000000800000000800FN00000000020220901000000800NNE   20220822093801    1W    00000080000001389000000000032M3    SASAMI  000000000000QF428002
BI00B32M4    TW2103A        202209151801W006930              IVSSH 0.35F B            CCN000005000000005000FN00000000020221001000005000NNE   20220822081408    1W    00000250000000452000000000032M4    SISAI   000000000000GM528005
BI00B32M4    TW2103A        202209151801W003930              IVSSH 0.5F B             CCN000001800000001800FN00000000020221001000001800NNE   20220822081408    1W    00000180000000625000000000032M4    SISAI   000000000000GM528001
BI00B32M4    TW2103A        202209151801W003952              IVSSH 0.5F P             CCN000003600000003600FN00000000020221001000003600NNE   20220822081408    1W    00000180000000625000000000032M4    SISAI   000000000000GM528002
BI00B32M4    TW2103A        202209151801W003991              IVSSH 0.5F SB            CCN000001800000001800FN00000000020221001000001800NNE   20220822081408    1W    00000180000000625000000000032M4    SISAI   000000000000GM528003
BI00B32M4    TW2103A        202209151801W003970              IVSSH 0.5F Y             CCN000005400000005400FN00000000020221001000005400NNE   20220822081408    1W    00000180000000625000000000032M4    SISAI   000000000000GM528004
BI00B32M8    PM2209BJMW     2022090718007703903              AVSS 0.5F B/O            CCN000001500000001500FN00000000020220901000001500NNE   20220822160052    1W    00000150000000674000000000032M8    PMPEMI  000000000000ID428002
BI00B32M8    PM2209BJMW     2022090718007703939              AVSS 0.5F B/L            CCN000001500000001500FN00000000020220901000001500NNE   20220822160052    1W    00000150000000674000000000032M8    PMPEMI  000000000000ID428001
BI00B32P8    TAPAW-211A1    2022091418007703730              AVSS 0.3F B              CCN000004000000004000FN00000000020221101000004000NNE   20220822102151    1W    00000200000000496000000000032P8    YIYTM   000000000000YM528004
BI00B32P8    TAPAW-211A1    2022091418007703752              AVSS 0.3F P              CCN000002000000002000FN00000000020221101000002000NNE   20220822102151    1W    00000200000000496000000000032P8    YIYTM   000000000000YM528005
BI00B32P8    TAPAW-211A1    2022091418007703980              AVSS 0.5F BR             CCN000001500000001500FN00000000020221101000001500NNE   20220822102151    1W    00000150000000674000000000032P8    YIYTM   000000000000YM528006
BI00B32P8    TAPAW-211A1    2022091418007703991              AVSS 0.5F SB             CCN000001500000001500FN00000000020221101000001500NNE   20220822102151    1W    00000150000000674000000000032P8    YIYTM   000000000000YM528007
BI00B32P8    TAPAW-211A1    2022091418007704184              AVSS 1.25F BR/W          CCN000000800000000800FN00000000020221101000000800NNE   20220822102151    1W    00000080000001389000000000032P8    YIYTM   000000000000YM528008
BI00B32P8    TAPAW-211A1    2022091418007704143              AVSS 1.25F W/B           CCN000002400000002400FN00000000020221101000002400NNE   20220822102151    1W    00000080000001389000000000032P8    YIYTM   000000000000YM528009
BI00B32P8    TAPAW-211A1    20220914180D0204090              AVSSH 0.75F L            CCN000004000000004000FN00000000020221101000004000NNE   20220822102151    1W    00000100000000934000000000032P8    YIYTM   000000000000YM528001
BI00B32P8    TAPAW-211A1    20220914180D0204050              AVSSH 0.75F R            CCN000001000000001000FN00000000020221101000001000NNE   20220822102151    1W    00000100000000934000000000032P8    YIYTM   000000000000YM528002
BI00B32P8    TAPAW-211A1    2022091418000004580              AV 8 BR                  CCN000000900000000900FN00000000020221101000000900NNE   20220822102151    1W    00000010000010466200000000032P8    YIYTM   000000000000YM528003
BI00B32P8    TAPAW-211A1    202209141801W004230              IVSSH 2F B               CCN000011550000011550FN00000000020221101000011550NNE   20220822102151    1W    00000055000002091100000000032P8    YIYTM   000000000000YM528010
BI00B32P8    TAPAW-211A1    202209141801W004250              IVSSH 2F R               CCN000004400000004400FN00000000020221101000004400NNE   20220822102151    1W    00000055000002091100000000032P8    YIYTM   000000000000YM528011
BI00B32P8    TAPAW-211A1    202209141801W004240              IVSSH 2F W               CCN000001100000001100FN00000000020221101000001100NNE   20220822102151    1W    00000055000002091100000000032P8    YIYTM   000000000000YM528012
BI00B32P8    TAPAW-211A1    202209141801W004243              IVSSH 2F W/B             CCN000001650000001650FN00000000020221101000001650NNE   20220822102151    1W    00000055000002091100000000032P8    YIYTM   000000000000YM528013
BI00B32P8    TAPAW-2114     2022102618000004530              AV 8 B                   CCN000010700000010700FN00000000020221101000010700NNM   20220822103216    1W    00000010000010466200000000032P8    YIYTM   000000000000YT22A094
BI00B32P8    TAPAW-2113     2022101918000004560              AV 8 G                   CCN000003000000003000FN00000000020221101000003000NNM   20220822103216    1W    00000010000010466200000000032P8    YIYTM   000000000000YT12A070
BI00B32P8    TAPAW-2114     2022102618000004560              AV 8 G                   CCN000008700000008700FN00000000020221101000008700NNM   20220822103216    1W    00000010000010466200000000032P8    YIYTM   000000000000YT22A096
BI00B32P8    TAPAW-2111     2022100518000004550              AV 8 R                   CCN000003100000003100FN00000000020221101000003100NNM   20220822103216    1W    00000010000010466200000000032P8    YIYTM   000000000000YT329019
BI00B32P8    TAPAW-2112     2022101218000004550              AV 8 R                   CCN000010900000010900FN00000000020221101000010900NNM   20220822103216    1W    00000010000010466200000000032P8    YIYTM   000000000000YT429047
BI00B32P8    TAPAW-2113     2022101918000004550              AV 8 R                   CCN000010900000010900FN00000000020221101000010900NNM   20220822103216    1W    00000010000010466200000000032P8    YIYTM   000000000000YT12A072
BI00B32P8    TAPAW-2114     2022102618000004550              AV 8 R                   CCN000010900000010900FN00000000020221101000010900NNM   20220822103216    1W    00000010000010466200000000032P8    YIYTM   000000000000YT22A098
BI00B32P8    TAPAW-2111     2022100518000004540              AV 8 W                   CCN000029600000029600FN00000000020221101000029600NNM   20220822103216    1W    00000010000010466200000000032P8    YIYTM   000000000000YT329022
BI00B32P8    TAPAW-2112     2022101218000004540              AV 8 W                   CCN000015100000015100FN00000000020221101000015100NNM   20220822103216    1W    00000010000010466200000000032P8    YIYTM   000000000000YT429050
BI00B32P8    TAPAW-2113     2022101918000004540              AV 8 W                   CCN000015000000015000FN00000000020221101000015000NNM   20220822103216    1W    00000010000010466200000000032P8    YIYTM   000000000000YT12A075
BI00B32P8    TAPAW-2114     2022102618000004540              AV 8 W                   CCN000015100000015100FN00000000020221101000015100NNM   20220822103216    1W    00000010000010466200000000032P8    YIYTM   000000000000YT22A101
BI00B32P8    TAPAW-2112     2022101218009604030              AVS 0.85 B               CCN000001000000001000FN00000000020221101000001000NNM   20220822103216    1W    00000100000001167700000000032P8    YIYTM   000000000000YT429116
BI00B32P8    TAPAW-2114     2022102618009604034              AVS 0.85 B/W             CCN000001000000001000FN00000000020221101000001000NNM   20220822103216    1W    00000100000001167700000000032P8    YIYTM   000000000000YT22A214
BI00B32P8    TAPAW-2112     2022101218009604037              AVS 0.85 B/Y             CCN000001000000001000FN00000000020221101000001000NNM   20220822103216    1W    00000100000001167700000000032P8    YIYTM   000000000000YT429117
BI00B32P8    TAPAW-2114     2022102618009604037              AVS 0.85 B/Y             CCN000001000000001000FN00000000020221101000001000NNM   20220822103216    1W    00000100000001167700000000032P8    YIYTM   000000000000YT22A215
BI00B32P8    TAPAW-2111     2022100518007703730              AVSS 0.3F B              CCN000010000000010000FN00000000020221101000010000NNM   20220822103216    1W    00000200000000496000000000032P8    YIYTM   000000000000YT329024
BI00B32P8    TAPAW-2112     2022101218007703730              AVSS 0.3F B              CCN000004000000004000FN00000000020221101000004000NNM   20220822103216    1W    00000200000000496000000000032P8    YIYTM   000000000000YT429052
BI00B32P8    TAPAW-2113     2022101918007703730              AVSS 0.3F B              CCN000004000000004000FN00000000020221101000004000NNM   20220822103216    1W    00000200000000496000000000032P8    YIYTM   000000000000YT12A077
BI00B32P8    TAPAW-2114     2022102618007703730              AVSS 0.3F B              CCN000004000000004000FN00000000020221101000004000NNM   20220822103216    1W    00000200000000496000000000032P8    YIYTM   000000000000YT22A103
BI00B32P8    TAPAW-2113     2022101918007703739              AVSS 0.3F B/L            CCN000002000000002000FN00000000020221101000002000NNM   20220822103216    1W    00000200000000496000000000032P8    YIYTM   000000000000YT12A078
BI00B32P8    TAPAW-2111     2022100518007703737              AVSS 0.3F B/Y            CCN000002000000002000FN00000000020221101000002000NNM   20220822103216    1W    00000200000000496000000000032P8    YIYTM   000000000000YT329025
BI00B32P8    TAPAW-2111     2022100518007703760              AVSS 0.3F G              CCN000004000000004000FN00000000020221101000004000NNM   20220822103216    1W    00000200000000496000000000032P8    YIYTM   000000000000YT329026
BI00B32P8    TAPAW-2112     2022101218007703760              AVSS 0.3F G              CCN000002000000002000FN00000000020221101000002000NNM   20220822103216    1W    00000200000000496000000000032P8    YIYTM   000000000000YT429053
BI00B32P8    TAPAW-2113     2022101918007703760              AVSS 0.3F G              CCN000004000000004000FN00000000020221101000004000NNM   20220822103216    1W    00000200000000496000000000032P8    YIYTM   000000000000YT12A079
BI00B32P8    TAPAW-2114     2022102618007703760              AVSS 0.3F G              CCN000002000000002000FN00000000020221101000002000NNM   20220822103216    1W    00000200000000496000000000032P8    YIYTM   000000000000YT22A104
BI00B32P8    TAPAW-2111     2022100518007703765              AVSS 0.3F G/R            CCN000002000000002000FN00000000020221101000002000NNM   20220822103216    1W    00000200000000496000000000032P8    YIYTM   000000000000YT329027
BI00B32P8    TAPAW-2112     2022101218007703765              AVSS 0.3F G/R            CCN000002000000002000FN00000000020221101000002000NNM   20220822103216    1W    00000200000000496000000000032P8    YIYTM   000000000000YT429054
BI00B32P8    TAPAW-2113     2022101918007703765              AVSS 0.3F G/R            CCN000002000000002000FN00000000020221101000002000NNM   20220822103216    1W    00000200000000496000000000032P8    YIYTM   000000000000YT12A080
BI00B32P8    TAPAW-2114     2022102618007703765              AVSS 0.3F G/R            CCN000002000000002000FN00000000020221101000002000NNM   20220822103216    1W    00000200000000496000000000032P8    YIYTM   000000000000YT22A105
BI00B32P8    TAPAW-2112     2022101218007703764              AVSS 0.3F G/W            CCN000002000000002000FN00000000020221101000002000NNM   20220822103216    1W    00000200000000496000000000032P8    YIYTM   000000000000YT429055
BI00B32P8    TAPAW-2113     2022101918007703764              AVSS 0.3F G/W            CCN000002000000002000FN00000000020221101000002000NNM   20220822103216    1W    00000200000000496000000000032P8    YIYTM   000000000000YT12A081
BI00B32P8    TAPAW-2111     2022100518007703767              AVSS 0.3F G/Y            CCN000006000000006000FN00000000020221101000006000NNM   20220822103216    1W    00000200000000496000000000032P8    YIYTM   000000000000YT329028
BI00B32P8    TAPAW-2112     2022101218007703767              AVSS 0.3F G/Y            CCN000004000000004000FN00000000020221101000004000NNM   20220822103216    1W    00000200000000496000000000032P8    YIYTM   000000000000YT429056
BI00B32P8    TAPAW-2113     2022101918007703767              AVSS 0.3F G/Y            CCN000004000000004000FN00000000020221101000004000NNM   20220822103216    1W    00000200000000496000000000032P8    YIYTM   000000000000YT12A082
BI00B32P8    TAPAW-2114     2022102618007703767              AVSS 0.3F G/Y            CCN000006000000006000FN00000000020221101000006000NNM   20220822103216    1W    00000200000000496000000000032P8    YIYTM   000000000000YT22A106
BI00B32P8    TAPAW-2114     2022102618007703790              AVSS 0.3F L              CCN000002000000002000FN00000000020221101000002000NNM   20220822103216    1W    00000200000000496000000000032P8    YIYTM   000000000000YT22A107
BI00B32P8    TAPAW-2112     2022101218007703793              AVSS 0.3F L/B            CCN000002000000002000FN00000000020221101000002000NNM   20220822103216    1W    00000200000000496000000000032P8    YIYTM   000000000000YT429057
BI00B32P8    TAPAW-2114     2022102618007703793              AVSS 0.3F L/B            CCN000002000000002000FN00000000020221101000002000NNM   20220822103216    1W    00000200000000496000000000032P8    YIYTM   000000000000YT22A108
BI00B32P8    TAPAW-2111     2022100518007703795              AVSS 0.3F L/R            CCN000002000000002000FN00000000020221101000002000NNM   20220822103216    1W    00000200000000496000000000032P8    YIYTM   000000000000YT329029
BI00B32P8    TAPAW-2114     2022102618007703795              AVSS 0.3F L/R            CCN000002000000002000FN00000000020221101000002000NNM   20220822103216    1W    00000200000000496000000000032P8    YIYTM   000000000000YT22A109
BI00B32P8    TAPAW-2112     2022101218007703794              AVSS 0.3F L/W            CCN000002000000002000FN00000000020221101000002000NNM   20220822103216    1W    00000200000000496000000000032P8    YIYTM   000000000000YT429058
BI00B32P8    TAPAW-2113     2022101918007703794              AVSS 0.3F L/W            CCN000002000000002000FN00000000020221101000002000NNM   20220822103216    1W    00000200000000496000000000032P8    YIYTM   000000000000YT12A083
BI00B32P8    TAPAW-2114     2022102618007703761              AVSS 0.3F LG             CCN000002000000002000FN00000000020221101000002000NNM   20220822103216    1W    00000200000000496000000000032P8    YIYTM   000000000000YT22A110
BI00B32P8    TAPAW-2114     2022102618007703750              AVSS 0.3F R              CCN000002000000002000FN00000000020221101000002000NNM   20220822103216    1W    00000200000000496000000000032P8    YIYTM   000000000000YT22A111
BI00B32P8    TAPAW-2111     2022100518007703740              AVSS 0.3F W              CCN000002000000002000FN00000000020221101000002000NNM   20220822103216    1W    00000200000000496000000000032P8    YIYTM   000000000000YT329030
BI00B32P8    TAPAW-2113     2022101918007703740              AVSS 0.3F W              CCN000002000000002000FN00000000020221101000002000NNM   20220822103216    1W    00000200000000496000000000032P8    YIYTM   000000000000YT12A084
BI00B32P8    TAPAW-2112     2022101218007703770              AVSS 0.3F Y              CCN000002000000002000FN00000000020221101000002000NNM   20220822103216    1W    00000200000000496000000000032P8    YIYTM   000000000000YT429059
BI00B32P8    TAPAW-2114     2022102618007703770              AVSS 0.3F Y              CCN000002000000002000FN00000000020221101000002000NNM   20220822103216    1W    00000200000000496000000000032P8    YIYTM   000000000000YT22A112
BI00B32P8    TAPAW-2112     2022101218007703773              AVSS 0.3F Y/B            CCN000002000000002000FN00000000020221101000002000NNM   20220822103216    1W    00000200000000496000000000032P8    YIYTM   000000000000YT429060
BI00B32P8    TAPAW-2112     2022101218007703779              AVSS 0.3F Y/L            CCN000002000000002000FN00000000020221101000002000NNM   20220822103216    1W    00000200000000496000000000032P8    YIYTM   000000000000YT429061
BI00B32P8    TAPAW-2114     2022102618007703779              AVSS 0.3F Y/L            CCN000002000000002000FN00000000020221101000002000NNM   20220822103216    1W    00000200000000496000000000032P8    YIYTM   000000000000YT22A113
BI00B32P8    TAPAW-2113     2022101918007703775              AVSS 0.3F Y/R            CCN000002000000002000FN00000000020221101000002000NNM   20220822103216    1W    00000200000000496000000000032P8    YIYTM   000000000000YT12A085
BI00B32P8    TAPAW-2111     2022100518007703930              AVSS 0.5F B              CCN000001500000001500FN00000000020221101000001500NNM   20220822103216    1W    00000150000000674000000000032P8    YIYTM   000000000000YT329031
BI00B32P8    TAPAW-2112     2022101218007703930              AVSS 0.5F B              CCN000025500000025500FN00000000020221101000025500NNM   20220822103216    1W    00000150000000674000000000032P8    YIYTM   000000000000YT429062
BI00B32P8    TAPAW-2113     2022101918007703930              AVSS 0.5F B              CCN000027000000027000FN00000000020221101000027000NNM   20220822103216    1W    00000150000000674000000000032P8    YIYTM   000000000000YT12A086
BI00B32P8    TAPAW-2114     2022102618007703930              AVSS 0.5F B              CCN000025500000025500FN00000000020221101000025500NNM   20220822103216    1W    00000150000000674000000000032P8    YIYTM   000000000000YT22A114
BI00B32P8    TAPAW-2111     2022100518007703936              AVSS 0.5F B/G            CCN000003000000003000FN00000000020221101000003000NNM   20220822103216    1W    00000150000000674000000000032P8    YIYTM   000000000000YT329032
BI00B32P8    TAPAW-2112     2022101218007703936              AVSS 0.5F B/G            CCN000003000000003000FN00000000020221101000003000NNM   20220822103216    1W    00000150000000674000000000032P8    YIYTM   000000000000YT429063
BI00B32P8    TAPAW-2113     2022101918007703936              AVSS 0.5F B/G            CCN000003000000003000FN00000000020221101000003000NNM   20220822103216    1W    00000150000000674000000000032P8    YIYTM   000000000000YT12A087
BI00B32P8    TAPAW-2114     2022102618007703936              AVSS 0.5F B/G            CCN000004500000004500FN00000000020221101000004500NNM   20220822103216    1W    00000150000000674000000000032P8    YIYTM   000000000000YT22A115
BI00B32P8    TAPAW-2113     2022101918007703939              AVSS 0.5F B/L            CCN000006000000006000FN00000000020221101000006000NNM   20220822103216    1W    00000150000000674000000000032P8    YIYTM   000000000000YT12A088
BI00B32P8    TAPAW-2114     2022102618007703939              AVSS 0.5F B/L            CCN000006000000006000FN00000000020221101000006000NNM   20220822103216    1W    00000150000000674000000000032P8    YIYTM   000000000000YT22A116
BI00B32P8    TAPAW-2111     20221005180077039A8              AVSS 0.5F B/P            CCN000004500000004500FN00000000020221101000004500NNM   20220822103216    1W    00000150000000674000000000032P8    YIYTM   000000000000YT329033
BI00B32P8    TAPAW-2112     20221012180077039A8              AVSS 0.5F B/P            CCN000019500000019500FN00000000020221101000019500NNM   20220822103216    1W    00000150000000674000000000032P8    YIYTM   000000000000YT429064
BI00B32P8    TAPAW-2113     20221019180077039A8              AVSS 0.5F B/P            CCN000019500000019500FN00000000020221101000019500NNM   20220822103216    1W    00000150000000674000000000032P8    YIYTM   000000000000YT12A089
BI00B32P8    TAPAW-2114     20221026180077039A8              AVSS 0.5F B/P            CCN000019500000019500FN00000000020221101000019500NNM   20220822103216    1W    00000150000000674000000000032P8    YIYTM   000000000000YT22A117
BI00B32P8    TAPAW-2111     2022100518007703935              AVSS 0.5F B/R            CCN000006000000006000FN00000000020221101000006000NNM   20220822103216    1W    00000150000000674000000000032P8    YIYTM   000000000000YT329034
BI00B32P8    TAPAW-2112     2022101218007703935              AVSS 0.5F B/R            CCN000004500000004500FN00000000020221101000004500NNM   20220822103216    1W    00000150000000674000000000032P8    YIYTM   000000000000YT429065
BI00B32P8    TAPAW-2113     2022101918007703935              AVSS 0.5F B/R            CCN000006000000006000FN00000000020221101000006000NNM   20220822103216    1W    00000150000000674000000000032P8    YIYTM   000000000000YT12A090
BI00B32P8    TAPAW-2114     2022102618007703935              AVSS 0.5F B/R            CCN000004500000004500FN00000000020221101000004500NNM   20220822103216    1W    00000150000000674000000000032P8    YIYTM   000000000000YT22A118
BI00B32P8    TAPAW-2112     2022101218007703934              AVSS 0.5F B/W            CCN000007500000007500FN00000000020221101000007500NNM   20220822103216    1W    00000150000000674000000000032P8    YIYTM   000000000000YT429066
BI00B32P8    TAPAW-2113     2022101918007703934              AVSS 0.5F B/W            CCN000006000000006000FN00000000020221101000006000NNM   20220822103216    1W    00000150000000674000000000032P8    YIYTM   000000000000YT12A091
BI00B32P8    TAPAW-2114     2022102618007703934              AVSS 0.5F B/W            CCN000007500000007500FN00000000020221101000007500NNM   20220822103216    1W    00000150000000674000000000032P8    YIYTM   000000000000YT22A119
BI00B32P8    TAPAW-2112     2022101218007703937              AVSS 0.5F B/Y            CCN000004500000004500FN00000000020221101000004500NNM   20220822103216    1W    00000150000000674000000000032P8    YIYTM   000000000000YT429067
BI00B32P8    TAPAW-2113     2022101918007703937              AVSS 0.5F B/Y            CCN000007500000007500FN00000000020221101000007500NNM   20220822103216    1W    00000150000000674000000000032P8    YIYTM   000000000000YT12A092
BI00B32P8    TAPAW-2114     2022102618007703937              AVSS 0.5F B/Y            CCN000007500000007500FN00000000020221101000007500NNM   20220822103216    1W    00000150000000674000000000032P8    YIYTM   000000000000YT22A120
BI00B32P8    TAPAW-2111     2022100518007703980              AVSS 0.5F BR             CCN000004500000004500FN00000000020221101000004500NNM   20220822103216    1W    00000150000000674000000000032P8    YIYTM   000000000000YT329035
BI00B32P8    TAPAW-2112     2022101218007703980              AVSS 0.5F BR             CCN000003000000003000FN00000000020221101000003000NNM   20220822103216    1W    00000150000000674000000000032P8    YIYTM   000000000000YT429068
BI00B32P8    TAPAW-2113     2022101918007703980              AVSS 0.5F BR             CCN000003000000003000FN00000000020221101000003000NNM   20220822103216    1W    00000150000000674000000000032P8    YIYTM   000000000000YT12A093
BI00B32P8    TAPAW-2114     2022102618007703980              AVSS 0.5F BR             CCN000001500000001500FN00000000020221101000001500NNM   20220822103216    1W    00000150000000674000000000032P8    YIYTM   000000000000YT22A121
BI00B32P8    TAPAW-2111     2022100518007703984              AVSS 0.5F BR/W           CCN000001500000001500FN00000000020221101000001500NNM   20220822103216    1W    00000150000000674000000000032P8    YIYTM   000000000000YT329036
BI00B32P8    TAPAW-2112     2022101218007703984              AVSS 0.5F BR/W           CCN000001500000001500FN00000000020221101000001500NNM   20220822103216    1W    00000150000000674000000000032P8    YIYTM   000000000000YT429069
BI00B32P8    TAPAW-2114     2022102618007703984              AVSS 0.5F BR/W           CCN000001500000001500FN00000000020221101000001500NNM   20220822103216    1W    00000150000000674000000000032P8    YIYTM   000000000000YT22A122
BI00B32P8    TAPAW-2113     2022101918007703987              AVSS 0.5F BR/Y           CCN000001500000001500FN00000000020221101000001500NNM   20220822103216    1W    00000150000000674000000000032P8    YIYTM   000000000000YT12A094
BI00B32P8    TAPAW-2114     2022102618007703987              AVSS 0.5F BR/Y           CCN000003000000003000FN00000000020221101000003000NNM   20220822103216    1W    00000150000000674000000000032P8    YIYTM   000000000000YT22A123
BI00B32P8    TAPAW-2111     2022100518007703960              AVSS 0.5F G              CCN000015000000015000FN00000000020221101000015000NNM   20220822103216    1W    00000150000000674000000000032P8    YIYTM   000000000000YT329037
BI00B32P8    TAPAW-2112     2022101218007703960              AVSS 0.5F G              CCN000013500000013500FN00000000020221101000013500NNM   20220822103216    1W    00000150000000674000000000032P8    YIYTM   000000000000YT429070
BI00B32P8    TAPAW-2113     2022101918007703960              AVSS 0.5F G              CCN000012000000012000FN00000000020221101000012000NNM   20220822103216    1W    00000150000000674000000000032P8    YIYTM   000000000000YT12A095
BI00B32P8    TAPAW-2114     2022102618007703960              AVSS 0.5F G              CCN000012000000012000FN00000000020221101000012000NNM   20220822103216    1W    00000150000000674000000000032P8    YIYTM   000000000000YT22A124
BI00B32P8    TAPAW-2114     2022102618007703963              AVSS 0.5F G/B            CCN000001500000001500FN00000000020221101000001500NNM   20220822103216    1W    00000150000000674000000000032P8    YIYTM   000000000000YT22A125
BI00B32P8    TAPAW-2111     2022100518007703965              AVSS 0.5F G/R            CCN000006000000006000FN00000000020221101000006000NNM   20220822103216    1W    00000150000000674000000000032P8    YIYTM   000000000000YT329038
BI00B32P8    TAPAW-2112     2022101218007703965              AVSS 0.5F G/R            CCN000006000000006000FN00000000020221101000006000NNM   20220822103216    1W    00000150000000674000000000032P8    YIYTM   000000000000YT429071
BI00B32P8    TAPAW-2113     2022101918007703965              AVSS 0.5F G/R            CCN000006000000006000FN00000000020221101000006000NNM   20220822103216    1W    00000150000000674000000000032P8    YIYTM   000000000000YT12A096
BI00B32P8    TAPAW-2114     2022102618007703965              AVSS 0.5F G/R            CCN000006000000006000FN00000000020221101000006000NNM   20220822103216    1W    00000150000000674000000000032P8    YIYTM   000000000000YT22A126
BI00B32P8    TAPAW-2111     2022100518007703964              AVSS 0.5F G/W            CCN000003000000003000FN00000000020221101000003000NNM   20220822103216    1W    00000150000000674000000000032P8    YIYTM   000000000000YT329039
BI00B32P8    TAPAW-2112     2022101218007703964              AVSS 0.5F G/W            CCN000006000000006000FN00000000020221101000006000NNM   20220822103216    1W    00000150000000674000000000032P8    YIYTM   000000000000YT429072
BI00B32P8    TAPAW-2113     2022101918007703964              AVSS 0.5F G/W            CCN000006000000006000FN00000000020221101000006000NNM   20220822103216    1W    00000150000000674000000000032P8    YIYTM   000000000000YT12A097
BI00B32P8    TAPAW-2114     2022102618007703964              AVSS 0.5F G/W            CCN000006000000006000FN00000000020221101000006000NNM   20220822103216    1W    00000150000000674000000000032P8    YIYTM   000000000000YT22A127
BI00B32P8    TAPAW-2112     2022101218007703967              AVSS 0.5F G/Y            CCN000003000000003000FN00000000020221101000003000NNM   20220822103216    1W    00000150000000674000000000032P8    YIYTM   000000000000YT429073
BI00B32P8    TAPAW-2113     2022101918007703967              AVSS 0.5F G/Y            CCN000003000000003000FN00000000020221101000003000NNM   20220822103216    1W    00000150000000674000000000032P8    YIYTM   000000000000YT12A098
BI00B32P8    TAPAW-2114     2022102618007703967              AVSS 0.5F G/Y            CCN000003000000003000FN00000000020221101000003000NNM   20220822103216    1W    00000150000000674000000000032P8    YIYTM   000000000000YT22A128
BI00B32P8    TAPAW-2111     2022100518007703941              AVSS 0.5F GY             CCN000004500000004500FN00000000020221101000004500NNM   20220822103216    1W    00000150000000674000000000032P8    YIYTM   000000000000YT329040
BI00B32P8    TAPAW-2112     2022101218007703941              AVSS 0.5F GY             CCN000003000000003000FN00000000020221101000003000NNM   20220822103216    1W    00000150000000674000000000032P8    YIYTM   000000000000YT429074
BI00B32P8    TAPAW-2113     2022101918007703941              AVSS 0.5F GY             CCN000004500000004500FN00000000020221101000004500NNM   20220822103216    1W    00000150000000674000000000032P8    YIYTM   000000000000YT12A099
BI00B32P8    TAPAW-2114     2022102618007703941              AVSS 0.5F GY             CCN000003000000003000FN00000000020221101000003000NNM   20220822103216    1W    00000150000000674000000000032P8    YIYTM   000000000000YT22A129
BI00B32P8    TAPAW-2114     20221026180077039F0              AVSS 0.5F GY/B           CCN000003000000003000FN00000000020221101000003000NNM   20220822103216    1W    00000150000000674000000000032P8    YIYTM   000000000000YT22A130
BI00B32P8    TAPAW-2111     20221005180077039H1              AVSS 0.5F GY/G           CCN000001500000001500FN00000000020221101000001500NNM   20220822103216    1W    00000150000000674000000000032P8    YIYTM   000000000000YT329041
BI00B32P8    TAPAW-2112     20221012180077039H1              AVSS 0.5F GY/G           CCN000001500000001500FN00000000020221101000001500NNM   20220822103216    1W    00000150000000674000000000032P8    YIYTM   000000000000YT429075
BI00B32P8    TAPAW-2114     20221026180077039H1              AVSS 0.5F GY/G           CCN000001500000001500FN00000000020221101000001500NNM   20220822103216    1W    00000150000000674000000000032P8    YIYTM   000000000000YT22A131
BI00B32P8    TAPAW-2112     2022101218007703911              AVSS 0.5F GY/L           CCN000001500000001500FN00000000020221101000001500NNM   20220822103216    1W    00000150000000674000000000032P8    YIYTM   000000000000YT429076
BI00B32P8    TAPAW-2114     2022102618007703911              AVSS 0.5F GY/L           CCN000001500000001500FN00000000020221101000001500NNM   20220822103216    1W    00000150000000674000000000032P8    YIYTM   000000000000YT22A132
BI00B32P8    TAPAW-2111     2022100518007703910              AVSS 0.5F GY/R           CCN000003000000003000FN00000000020221101000003000NNM   20220822103216    1W    00000150000000674000000000032P8    YIYTM   000000000000YT329042
BI00B32P8    TAPAW-2113     2022101918007703910              AVSS 0.5F GY/R           CCN000001500000001500FN00000000020221101000001500NNM   20220822103216    1W    00000150000000674000000000032P8    YIYTM   000000000000YT12A100
BI00B32P8    TAPAW-2114     2022102618007703910              AVSS 0.5F GY/R           CCN000001500000001500FN00000000020221101000001500NNM   20220822103216    1W    00000150000000674000000000032P8    YIYTM   000000000000YT22A133
BI00B32P8    TAPAW-2114     20221026180077039H7              AVSS 0.5F GY/W           CCN000001500000001500FN00000000020221101000001500NNM   20220822103216    1W    00000150000000674000000000032P8    YIYTM   000000000000YT22A134
BI00B32P8    TAPAW-2111     2022100518007703990              AVSS 0.5F L              CCN000028500000028500FN00000000020221101000028500NNM   20220822103216    1W    00000150000000674000000000032P8    YIYTM   000000000000YT329043
BI00B32P8    TAPAW-2112     2022101218007703990              AVSS 0.5F L              CCN000022500000022500FN00000000020221101000022500NNM   20220822103216    1W    00000150000000674000000000032P8    YIYTM   000000000000YT429077
BI00B32P8    TAPAW-2113     2022101918007703990              AVSS 0.5F L              CCN000021000000021000FN00000000020221101000021000NNM   20220822103216    1W    00000150000000674000000000032P8    YIYTM   000000000000YT12A101
BI00B32P8    TAPAW-2114     2022102618007703990              AVSS 0.5F L              CCN000022500000022500FN00000000020221101000022500NNM   20220822103216    1W    00000150000000674000000000032P8    YIYTM   000000000000YT22A135
BI00B32P8    TAPAW-2111     2022100518007703995              AVSS 0.5F L/R            CCN000003000000003000FN00000000020221101000003000NNM   20220822103216    1W    00000150000000674000000000032P8    YIYTM   000000000000YT329044
BI00B32P8    TAPAW-2112     2022101218007703995              AVSS 0.5F L/R            CCN000003000000003000FN00000000020221101000003000NNM   20220822103216    1W    00000150000000674000000000032P8    YIYTM   000000000000YT429078
BI00B32P8    TAPAW-2113     2022101918007703995              AVSS 0.5F L/R            CCN000003000000003000FN00000000020221101000003000NNM   20220822103216    1W    00000150000000674000000000032P8    YIYTM   000000000000YT12A102
BI00B32P8    TAPAW-2114     2022102618007703995              AVSS 0.5F L/R            CCN000001500000001500FN00000000020221101000001500NNM   20220822103216    1W    00000150000000674000000000032P8    YIYTM   000000000000YT22A136
BI00B32P8    TAPAW-2114     2022102618007703994              AVSS 0.5F L/W            CCN000004500000004500FN00000000020221101000004500NNM   20220822103216    1W    00000150000000674000000000032P8    YIYTM   000000000000YT22A137
BI00B32P8    TAPAW-2112     2022101218007703997              AVSS 0.5F L/Y            CCN000001500000001500FN00000000020221101000001500NNM   20220822103216    1W    00000150000000674000000000032P8    YIYTM   000000000000YT429079
BI00B32P8    TAPAW-2113     2022101918007703997              AVSS 0.5F L/Y            CCN000003000000003000FN00000000020221101000003000NNM   20220822103216    1W    00000150000000674000000000032P8    YIYTM   000000000000YT12A103
BI00B32P8    TAPAW-2114     2022102618007703997              AVSS 0.5F L/Y            CCN000001500000001500FN00000000020221101000001500NNM   20220822103216    1W    00000150000000674000000000032P8    YIYTM   000000000000YT22A138
BI00B32P8    TAPAW-2113     2022101918007703961              AVSS 0.5F LG             CCN000001500000001500FN00000000020221101000001500NNM   20220822103216    1W    00000150000000674000000000032P8    YIYTM   000000000000YT12A104
BI00B32P8    TAPAW-2111     2022100518007703951              AVSS 0.5F O              CCN000024000000024000FN00000000020221101000024000NNM   20220822103216    1W    00000150000000674000000000032P8    YIYTM   000000000000YT329045
BI00B32P8    TAPAW-2112     2022101218007703951              AVSS 0.5F O              CCN000025500000025500FN00000000020221101000025500NNM   20220822103216    1W    00000150000000674000000000032P8    YIYTM   000000000000YT429080
BI00B32P8    TAPAW-2113     2022101918007703951              AVSS 0.5F O              CCN000025500000025500FN00000000020221101000025500NNM   20220822103216    1W    00000150000000674000000000032P8    YIYTM   000000000000YT12A105
BI00B32P8    TAPAW-2114     2022102618007703951              AVSS 0.5F O              CCN000025500000025500FN00000000020221101000025500NNM   20220822103216    1W    00000150000000674000000000032P8    YIYTM   000000000000YT22A139
BI00B32P8    TAPAW-2111     20221005180077039M3              AVSS 0.5F O/B            CCN000001500000001500FN00000000020221101000001500NNM   20220822103216    1W    00000150000000674000000000032P8    YIYTM   000000000000YT329046
BI00B32P8    TAPAW-2114     20221026180077039M3              AVSS 0.5F O/B            CCN000001500000001500FN00000000020221101000001500NNM   20220822103216    1W    00000150000000674000000000032P8    YIYTM   000000000000YT22A140
BI00B32P8    TAPAW-2112     2022101218007703977              AVSS 0.5F O/L            CCN000001500000001500FN00000000020221101000001500NNM   20220822103216    1W    00000150000000674000000000032P8    YIYTM   000000000000YT429081
BI00B32P8    TAPAW-2114     2022102618007703977              AVSS 0.5F O/L            CCN000001500000001500FN00000000020221101000001500NNM   20220822103216    1W    00000150000000674000000000032P8    YIYTM   000000000000YT22A141
BI00B32P8    TAPAW-2112     2022101218007703952              AVSS 0.5F P              CCN000001500000001500FN00000000020221101000001500NNM   20220822103216    1W    00000150000000674000000000032P8    YIYTM   000000000000YT429082
BI00B32P8    TAPAW-2113     2022101918007703952              AVSS 0.5F P              CCN000001500000001500FN00000000020221101000001500NNM   20220822103216    1W    00000150000000674000000000032P8    YIYTM   000000000000YT12A106
BI00B32P8    TAPAW-2114     2022102618007703952              AVSS 0.5F P              CCN000001500000001500FN00000000020221101000001500NNM   20220822103216    1W    00000150000000674000000000032P8    YIYTM   000000000000YT22A142
BI00B32P8    TAPAW-2111     2022100518007703950              AVSS 0.5F R              CCN000013500000013500FN00000000020221101000013500NNM   20220822103216    1W    00000150000000674000000000032P8    YIYTM   000000000000YT329047
BI00B32P8    TAPAW-2112     2022101218007703950              AVSS 0.5F R              CCN000016500000016500FN00000000020221101000016500NNM   20220822103216    1W    00000150000000674000000000032P8    YIYTM   000000000000YT429083
BI00B32P8    TAPAW-2113     2022101918007703950              AVSS 0.5F R              CCN000016500000016500FN00000000020221101000016500NNM   20220822103216    1W    00000150000000674000000000032P8    YIYTM   000000000000YT12A107
BI00B32P8    TAPAW-2114     2022102618007703950              AVSS 0.5F R              CCN000018000000018000FN00000000020221101000018000NNM   20220822103216    1W    00000150000000674000000000032P8    YIYTM   000000000000YT22A143
BI00B32P8    TAPAW-2111     2022100518007703953              AVSS 0.5F R/B            CCN000003000000003000FN00000000020221101000003000NNM   20220822103216    1W    00000150000000674000000000032P8    YIYTM   000000000000YT329048
BI00B32P8    TAPAW-2112     2022101218007703953              AVSS 0.5F R/B            CCN000001500000001500FN00000000020221101000001500NNM   20220822103216    1W    00000150000000674000000000032P8    YIYTM   000000000000YT429084
BI00B32P8    TAPAW-2113     2022101918007703953              AVSS 0.5F R/B            CCN000003000000003000FN00000000020221101000003000NNM   20220822103216    1W    00000150000000674000000000032P8    YIYTM   000000000000YT12A108
BI00B32P8    TAPAW-2114     2022102618007703953              AVSS 0.5F R/B            CCN000001500000001500FN00000000020221101000001500NNM   20220822103216    1W    00000150000000674000000000032P8    YIYTM   000000000000YT22A144
BI00B32P8    TAPAW-2114     2022102618007703956              AVSS 0.5F R/G            CCN000003000000003000FN00000000020221101000003000NNM   20220822103216    1W    00000150000000674000000000032P8    YIYTM   000000000000YT22A145
BI00B32P8    TAPAW-2113     2022101918007703954              AVSS 0.5F R/W            CCN000003000000003000FN00000000020221101000003000NNM   20220822103216    1W    00000150000000674000000000032P8    YIYTM   000000000000YT12A109
BI00B32P8    TAPAW-2114     2022102618007703954              AVSS 0.5F R/W            CCN000003000000003000FN00000000020221101000003000NNM   20220822103216    1W    00000150000000674000000000032P8    YIYTM   000000000000YT22A146
BI00B32P8    TAPAW-2111     2022100518007703957              AVSS 0.5F R/Y            CCN000009000000009000FN00000000020221101000009000NNM   20220822103216    1W    00000150000000674000000000032P8    YIYTM   000000000000YT329049
BI00B32P8    TAPAW-2112     2022101218007703957              AVSS 0.5F R/Y            CCN000006000000006000FN00000000020221101000006000NNM   20220822103216    1W    00000150000000674000000000032P8    YIYTM   000000000000YT429085
BI00B32P8    TAPAW-2113     2022101918007703957              AVSS 0.5F R/Y            CCN000006000000006000FN00000000020221101000006000NNM   20220822103216    1W    00000150000000674000000000032P8    YIYTM   000000000000YT12A110
BI00B32P8    TAPAW-2114     2022102618007703957              AVSS 0.5F R/Y            CCN000006000000006000FN00000000020221101000006000NNM   20220822103216    1W    00000150000000674000000000032P8    YIYTM   000000000000YT22A147
BI00B32P8    TAPAW-2111     2022100518007703991              AVSS 0.5F SB             CCN000001500000001500FN00000000020221101000001500NNM   20220822103216    1W    00000150000000674000000000032P8    YIYTM   000000000000YT329050
BI00B32P8    TAPAW-2113     2022101918007703991              AVSS 0.5F SB             CCN000001500000001500FN00000000020221101000001500NNM   20220822103216    1W    00000150000000674000000000032P8    YIYTM   000000000000YT12A111
BI00B32P8    TAPAW-2111     2022100518007703992              AVSS 0.5F V              CCN000004500000004500FN00000000020221101000004500NNM   20220822103216    1W    00000150000000674000000000032P8    YIYTM   000000000000YT329051
BI00B32P8    TAPAW-2112     2022101218007703992              AVSS 0.5F V              CCN000004500000004500FN00000000020221101000004500NNM   20220822103216    1W    00000150000000674000000000032P8    YIYTM   000000000000YT429086
BI00B32P8    TAPAW-2113     2022101918007703992              AVSS 0.5F V              CCN000003000000003000FN00000000020221101000003000NNM   20220822103216    1W    00000150000000674000000000032P8    YIYTM   000000000000YT12A112
BI00B32P8    TAPAW-2114     2022102618007703992              AVSS 0.5F V              CCN000004500000004500FN00000000020221101000004500NNM   20220822103216    1W    00000150000000674000000000032P8    YIYTM   000000000000YT22A148
BI00B32P8    TAPAW-2111     2022100518007703940              AVSS 0.5F W              CCN000019500000019500FN00000000020221101000019500NNM   20220822103216    1W    00000150000000674000000000032P8    YIYTM   000000000000YT329052
BI00B32P8    TAPAW-2112     2022101218007703940              AVSS 0.5F W              CCN000015000000015000FN00000000020221101000015000NNM   20220822103216    1W    00000150000000674000000000032P8    YIYTM   000000000000YT429087
BI00B32P8    TAPAW-2113     2022101918007703940              AVSS 0.5F W              CCN000015000000015000FN00000000020221101000015000NNM   20220822103216    1W    00000150000000674000000000032P8    YIYTM   000000000000YT12A113
BI00B32P8    TAPAW-2114     2022102618007703940              AVSS 0.5F W              CCN000015000000015000FN00000000020221101000015000NNM   20220822103216    1W    00000150000000674000000000032P8    YIYTM   000000000000YT22A150
BI00B32P8    TAPAW-2112     2022101218007703943              AVSS 0.5F W/B            CCN000004500000004500FN00000000020221101000004500NNM   20220822103216    1W    00000150000000674000000000032P8    YIYTM   000000000000YT429088
BI00B32P8    TAPAW-2113     2022101918007703943              AVSS 0.5F W/B            CCN000003000000003000FN00000000020221101000003000NNM   20220822103216    1W    00000150000000674000000000032P8    YIYTM   000000000000YT12A114
BI00B32P8    TAPAW-2114     2022102618007703943              AVSS 0.5F W/B            CCN000003000000003000FN00000000020221101000003000NNM   20220822103216    1W    00000150000000674000000000032P8    YIYTM   000000000000YT22A151
BI00B32P8    TAPAW-2112     2022101218007703946              AVSS 0.5F W/G            CCN000001500000001500FN00000000020221101000001500NNM   20220822103216    1W    00000150000000674000000000032P8    YIYTM   000000000000YT429089
BI00B32P8    TAPAW-2113     2022101918007703946              AVSS 0.5F W/G            CCN000003000000003000FN00000000020221101000003000NNM   20220822103216    1W    00000150000000674000000000032P8    YIYTM   000000000000YT12A115
BI00B32P8    TAPAW-2114     2022102618007703946              AVSS 0.5F W/G            CCN000001500000001500FN00000000020221101000001500NNM   20220822103216    1W    00000150000000674000000000032P8    YIYTM   000000000000YT22A152
BI00B32P8    TAPAW-2111     2022100518007703949              AVSS 0.5F W/L            CCN000004500000004500FN00000000020221101000004500NNM   20220822103216    1W    00000150000000674000000000032P8    YIYTM   000000000000YT329053
BI00B32P8    TAPAW-2112     2022101218007703949              AVSS 0.5F W/L            CCN000004500000004500FN00000000020221101000004500NNM   20220822103216    1W    00000150000000674000000000032P8    YIYTM   000000000000YT429090
BI00B32P8    TAPAW-2113     2022101918007703949              AVSS 0.5F W/L            CCN000003000000003000FN00000000020221101000003000NNM   20220822103216    1W    00000150000000674000000000032P8    YIYTM   000000000000YT12A116
BI00B32P8    TAPAW-2114     2022102618007703949              AVSS 0.5F W/L            CCN000004500000004500FN00000000020221101000004500NNM   20220822103216    1W    00000150000000674000000000032P8    YIYTM   000000000000YT22A153
BI00B32P8    TAPAW-2111     2022100518007703945              AVSS 0.5F W/R            CCN000007500000007500FN00000000020221101000007500NNM   20220822103216    1W    00000150000000674000000000032P8    YIYTM   000000000000YT329054
BI00B32P8    TAPAW-2112     2022101218007703945              AVSS 0.5F W/R            CCN000004500000004500FN00000000020221101000004500NNM   20220822103216    1W    00000150000000674000000000032P8    YIYTM   000000000000YT429091
BI00B32P8    TAPAW-2113     2022101918007703945              AVSS 0.5F W/R            CCN000004500000004500FN00000000020221101000004500NNM   20220822103216    1W    00000150000000674000000000032P8    YIYTM   000000000000YT12A117
BI00B32P8    TAPAW-2114     2022102618007703945              AVSS 0.5F W/R            CCN000004500000004500FN00000000020221101000004500NNM   20220822103216    1W    00000150000000674000000000032P8    YIYTM   000000000000YT22A154
BI00B32P8    TAPAW-2111     2022100518007703970              AVSS 0.5F Y              CCN000019500000019500FN00000000020221101000019500NNM   20220822103216    1W    00000150000000674000000000032P8    YIYTM   000000000000YT329055
BI00B32P8    TAPAW-2112     2022101218007703970              AVSS 0.5F Y              CCN000012000000012000FN00000000020221101000012000NNM   20220822103216    1W    00000150000000674000000000032P8    YIYTM   000000000000YT429092
BI00B32P8    TAPAW-2113     2022101918007703970              AVSS 0.5F Y              CCN000012000000012000FN00000000020221101000012000NNM   20220822103216    1W    00000150000000674000000000032P8    YIYTM   000000000000YT12A118
BI00B32P8    TAPAW-2114     2022102618007703970              AVSS 0.5F Y              CCN000012000000012000FN00000000020221101000012000NNM   20220822103216    1W    00000150000000674000000000032P8    YIYTM   000000000000YT22A155
BI00B32P8    TAPAW-2113     2022101918007703976              AVSS 0.5F Y/G            CCN000001500000001500FN00000000020221101000001500NNM   20220822103216    1W    00000150000000674000000000032P8    YIYTM   000000000000YT12A119
BI00B32P8    TAPAW-2114     2022102618007703976              AVSS 0.5F Y/G            CCN000001500000001500FN00000000020221101000001500NNM   20220822103216    1W    00000150000000674000000000032P8    YIYTM   000000000000YT22A156
BI00B32P8    TAPAW-2113     2022101918007703979              AVSS 0.5F Y/L            CCN000001500000001500FN00000000020221101000001500NNM   20220822103216    1W    00000150000000674000000000032P8    YIYTM   000000000000YT12A120
BI00B32P8    TAPAW-2114     2022102618007703979              AVSS 0.5F Y/L            CCN000001500000001500FN00000000020221101000001500NNM   20220822103216    1W    00000150000000674000000000032P8    YIYTM   000000000000YT22A157
BI00B32P8    TAPAW-2113     2022101918007703974              AVSS 0.5F Y/W            CCN000001500000001500FN00000000020221101000001500NNM   20220822103216    1W    00000150000000674000000000032P8    YIYTM   000000000000YT12A121
BI00B32P8    TAPAW-2113     2022101918007704030              AVSS 0.75F B             CCN000034000000034000FN00000000020221101000034000NNM   20220822103216    1W    00000100000000943000000000032P8    YIYTM   000000000000YT12A122
BI00B32P8    TAPAW-2114     2022102618007704030              AVSS 0.75F B             CCN000035000000035000FN00000000020221101000035000NNM   20220822103216    1W    00000100000000943000000000032P8    YIYTM   000000000000YT22A158
BI00B32P8    TAPAW-2114     2022102618007704036              AVSS 0.75F B/G           CCN000004000000004000FN00000000020221101000004000NNM   20220822103216    1W    00000100000000943000000000032P8    YIYTM   000000000000YT22A159
BI00B32P8    TAPAW-2112     2022101218007704039              AVSS 0.75F B/L           CCN000002000000002000FN00000000020221101000002000NNM   20220822103216    1W    00000100000000943000000000032P8    YIYTM   000000000000YT429093
BI00B32P8    TAPAW-2113     2022101918007704039              AVSS 0.75F B/L           CCN000005000000005000FN00000000020221101000005000NNM   20220822103216    1W    00000100000000943000000000032P8    YIYTM   000000000000YT12A123
BI00B32P8    TAPAW-2114     2022102618007704039              AVSS 0.75F B/L           CCN000004000000004000FN00000000020221101000004000NNM   20220822103216    1W    00000100000000943000000000032P8    YIYTM   000000000000YT22A160
BI00B32P8    TAPAW-2113     2022101918007704035              AVSS 0.75F B/R           CCN000006000000006000FN00000000020221101000006000NNM   20220822103216    1W    00000100000000943000000000032P8    YIYTM   000000000000YT12A124
BI00B32P8    TAPAW-2114     2022102618007704035              AVSS 0.75F B/R           CCN000014000000014000FN00000000020221101000014000NNM   20220822103216    1W    00000100000000943000000000032P8    YIYTM   000000000000YT22A161
BI00B32P8    TAPAW-2113     2022101918007704034              AVSS 0.75F B/W           CCN000008000000008000FN00000000020221101000008000NNM   20220822103216    1W    00000100000000943000000000032P8    YIYTM   000000000000YT12A125
BI00B32P8    TAPAW-2114     2022102618007704034              AVSS 0.75F B/W           CCN000018000000018000FN00000000020221101000018000NNM   20220822103216    1W    00000100000000943000000000032P8    YIYTM   000000000000YT22A162
BI00B32P8    TAPAW-2113     2022101918007704037              AVSS 0.75F B/Y           CCN000010000000010000FN00000000020221101000010000NNM   20220822103216    1W    00000100000000943000000000032P8    YIYTM   000000000000YT12A126
BI00B32P8    TAPAW-2114     2022102618007704037              AVSS 0.75F B/Y           CCN000016000000016000FN00000000020221101000016000NNM   20220822103216    1W    00000100000000943000000000032P8    YIYTM   000000000000YT22A163
BI00B32P8    TAPAW-2112     2022101218007704080              AVSS 0.75F BR            CCN000001000000001000FN00000000020221101000001000NNM   20220822103216    1W    00000100000000943000000000032P8    YIYTM   000000000000YT429094
BI00B32P8    TAPAW-2113     2022101918007704080              AVSS 0.75F BR            CCN000001000000001000FN00000000020221101000001000NNM   20220822103216    1W    00000100000000943000000000032P8    YIYTM   000000000000YT12A127
BI00B32P8    TAPAW-2114     2022102618007704080              AVSS 0.75F BR            CCN000002000000002000FN00000000020221101000002000NNM   20220822103216    1W    00000100000000943000000000032P8    YIYTM   000000000000YT22A164
BI00B32P8    TAPAW-2113     2022101918007704060              AVSS 0.75F G             CCN000009000000009000FN00000000020221101000009000NNM   20220822103216    1W    00000100000000943000000000032P8    YIYTM   000000000000YT12A128
BI00B32P8    TAPAW-2114     2022102618007704060              AVSS 0.75F G             CCN000016000000016000FN00000000020221101000016000NNM   20220822103216    1W    00000100000000943000000000032P8    YIYTM   000000000000YT22A165
BI00B32P8    TAPAW-2112     2022101218007704063              AVSS 0.75F G/B           CCN000001000000001000FN00000000020221101000001000NNM   20220822103216    1W    00000100000000943000000000032P8    YIYTM   000000000000YT429095
BI00B32P8    TAPAW-2113     2022101918007704063              AVSS 0.75F G/B           CCN000002000000002000FN00000000020221101000002000NNM   20220822103216    1W    00000100000000943000000000032P8    YIYTM   000000000000YT12A129
BI00B32P8    TAPAW-2114     2022102618007704063              AVSS 0.75F G/B           CCN000002000000002000FN00000000020221101000002000NNM   20220822103216    1W    00000100000000943000000000032P8    YIYTM   000000000000YT22A166
BI00B32P8    TAPAW-2112     2022101218007704065              AVSS 0.75F G/R           CCN000004000000004000FN00000000020221101000004000NNM   20220822103216    1W    00000100000000943000000000032P8    YIYTM   000000000000YT429096
BI00B32P8    TAPAW-2113     2022101918007704065              AVSS 0.75F G/R           CCN000007000000007000FN00000000020221101000007000NNM   20220822103216    1W    00000100000000943000000000032P8    YIYTM   000000000000YT12A130
BI00B32P8    TAPAW-2114     2022102618007704065              AVSS 0.75F G/R           CCN000007000000007000FN00000000020221101000007000NNM   20220822103216    1W    00000100000000943000000000032P8    YIYTM   000000000000YT22A167
BI00B32P8    TAPAW-2113     2022101918007704067              AVSS 0.75F G/Y           CCN000008000000008000FN00000000020221101000008000NNM   20220822103216    1W    00000100000000943000000000032P8    YIYTM   000000000000YT12A131
BI00B32P8    TAPAW-2114     2022102618007704067              AVSS 0.75F G/Y           CCN000009000000009000FN00000000020221101000009000NNM   20220822103216    1W    00000100000000943000000000032P8    YIYTM   000000000000YT22A168
BI00B32P8    TAPAW-2113     2022101918007704041              AVSS 0.75F GY            CCN000005000000005000FN00000000020221101000005000NNM   20220822103216    1W    00000100000000943000000000032P8    YIYTM   000000000000YT12A132
BI00B32P8    TAPAW-2114     2022102618007704041              AVSS 0.75F GY            CCN000006000000006000FN00000000020221101000006000NNM   20220822103216    1W    00000100000000943000000000032P8    YIYTM   000000000000YT22A169
BI00B32P8    TAPAW-2111     2022100518007704011              AVSS 0.75F GY/L          CCN000002000000002000FN00000000020221101000002000NNM   20220822103216    1W    00000100000000943000000000032P8    YIYTM   000000000000YT329056
BI00B32P8    TAPAW-2112     2022101218007704011              AVSS 0.75F GY/L          CCN000007000000007000FN00000000020221101000007000NNM   20220822103216    1W    00000100000000943000000000032P8    YIYTM   000000000000YT429098
BI00B32P8    TAPAW-2113     2022101918007704011              AVSS 0.75F GY/L          CCN000006000000006000FN00000000020221101000006000NNM   20220822103216    1W    00000100000000943000000000032P8    YIYTM   000000000000YT12A134
BI00B32P8    TAPAW-2114     2022102618007704011              AVSS 0.75F GY/L          CCN000007000000007000FN00000000020221101000007000NNM   20220822103216    1W    00000100000000943000000000032P8    YIYTM   000000000000YT22A171
BI00B32P8    TAPAW-2113     2022101918007704093              AVSS 0.75F L/B           CCN000002000000002000FN00000000020221101000002000NNM   20220822103216    1W    00000100000000943000000000032P8    YIYTM   000000000000YT12A136
BI00B32P8    TAPAW-2114     2022102618007704093              AVSS 0.75F L/B           CCN000006000000006000FN00000000020221101000006000NNM   20220822103216    1W    00000100000000943000000000032P8    YIYTM   000000000000YT22A173
BI00B32P8    TAPAW-2111     2022100518007704096              AVSS 0.75F L/G           CCN000001000000001000FN00000000020221101000001000NNM   20220822103216    1W    00000100000000943000000000032P8    YIYTM   000000000000YT329057
BI00B32P8    TAPAW-2112     2022101218007704096              AVSS 0.75F L/G           CCN000001000000001000FN00000000020221101000001000NNM   20220822103216    1W    00000100000000943000000000032P8    YIYTM   000000000000YT429099
BI00B32P8    TAPAW-2114     2022102618007704096              AVSS 0.75F L/G           CCN000001000000001000FN00000000020221101000001000NNM   20220822103216    1W    00000100000000943000000000032P8    YIYTM   000000000000YT22A174
BI00B32P8    TAPAW-2112     2022101218007704095              AVSS 0.75F L/R           CCN000003000000003000FN00000000020221101000003000NNM   20220822103216    1W    00000100000000943000000000032P8    YIYTM   000000000000YT429100
BI00B32P8    TAPAW-2113     2022101918007704095              AVSS 0.75F L/R           CCN000003000000003000FN00000000020221101000003000NNM   20220822103216    1W    00000100000000943000000000032P8    YIYTM   000000000000YT12A137
BI00B32P8    TAPAW-2114     2022102618007704095              AVSS 0.75F L/R           CCN000003000000003000FN00000000020221101000003000NNM   20220822103216    1W    00000100000000943000000000032P8    YIYTM   000000000000YT22A175
BI00B32P8    TAPAW-2113     2022101918007704097              AVSS 0.75F L/Y           CCN000002000000002000FN00000000020221101000002000NNM   20220822103216    1W    00000100000000943000000000032P8    YIYTM   000000000000YT12A138
BI00B32P8    TAPAW-2114     2022102618007704097              AVSS 0.75F L/Y           CCN000009000000009000FN00000000020221101000009000NNM   20220822103216    1W    00000100000000943000000000032P8    YIYTM   000000000000YT22A176
BI00B32P8    TAPAW-2111     2022100518007704052              AVSS 0.75F P             CCN000004000000004000FN00000000020221101000004000NNM   20220822103216    1W    00000100000000943000000000032P8    YIYTM   000000000000YT329058
BI00B32P8    TAPAW-2112     2022101218007704052              AVSS 0.75F P             CCN000002000000002000FN00000000020221101000002000NNM   20220822103216    1W    00000100000000943000000000032P8    YIYTM   000000000000YT429101
BI00B32P8    TAPAW-2113     2022101918007704052              AVSS 0.75F P             CCN000002000000002000FN00000000020221101000002000NNM   20220822103216    1W    00000100000000943000000000032P8    YIYTM   000000000000YT12A139
BI00B32P8    TAPAW-2114     2022102618007704052              AVSS 0.75F P             CCN000002000000002000FN00000000020221101000002000NNM   20220822103216    1W    00000100000000943000000000032P8    YIYTM   000000000000YT22A177
BI00B32P8    TAPAW-2114     2022102618007704050              AVSS 0.75F R             CCN000007000000007000FN00000000020221101000007000NNM   20220822103216    1W    00000100000000943000000000032P8    YIYTM   000000000000YT22A178
BI00B32P8    TAPAW-2112     2022101218007704056              AVSS 0.75F R/G           CCN000003000000003000FN00000000020221101000003000NNM   20220822103216    1W    00000100000000943000000000032P8    YIYTM   000000000000YT429102
BI00B32P8    TAPAW-2113     2022101918007704056              AVSS 0.75F R/G           CCN000005000000005000FN00000000020221101000005000NNM   20220822103216    1W    00000100000000943000000000032P8    YIYTM   000000000000YT12A140
BI00B32P8    TAPAW-2114     2022102618007704056              AVSS 0.75F R/G           CCN000005000000005000FN00000000020221101000005000NNM   20220822103216    1W    00000100000000943000000000032P8    YIYTM   000000000000YT22A179
BI00B32P8    TAPAW-2114     2022102618007704059              AVSS 0.75F R/L           CCN000002000000002000FN00000000020221101000002000NNM   20220822103216    1W    00000100000000943000000000032P8    YIYTM   000000000000YT22A180
BI00B32P8    TAPAW-2113     2022101918007704057              AVSS 0.75F R/Y           CCN000003000000003000FN00000000020221101000003000NNM   20220822103216    1W    00000100000000943000000000032P8    YIYTM   000000000000YT12A141
BI00B32P8    TAPAW-2114     2022102618007704057              AVSS 0.75F R/Y           CCN000009000000009000FN00000000020221101000009000NNM   20220822103216    1W    00000100000000943000000000032P8    YIYTM   000000000000YT22A181
BI00B32P8    TAPAW-2113     2022101918007704092              AVSS 0.75F V             CCN000003000000003000FN00000000020221101000003000NNM   20220822103216    1W    00000100000000943000000000032P8    YIYTM   000000000000YT12A142
BI00B32P8    TAPAW-2114     2022102618007704092              AVSS 0.75F V             CCN000005000000005000FN00000000020221101000005000NNM   20220822103216    1W    00000100000000943000000000032P8    YIYTM   000000000000YT22A182
BI00B32P8    TAPAW-2114     2022102618007704040              AVSS 0.75F W             CCN000005000000005000FN00000000020221101000005000NNM   20220822103216    1W    00000100000000943000000000032P8    YIYTM   000000000000YT22A185
BI00B32P8    TAPAW-2112     2022101218007704049              AVSS 0.75F W/L           CCN000001000000001000FN00000000020221101000001000NNM   20220822103216    1W    00000100000000943000000000032P8    YIYTM   000000000000YT429103
BI00B32P8    TAPAW-2113     2022101918007704049              AVSS 0.75F W/L           CCN000006000000006000FN00000000020221101000006000NNM   20220822103216    1W    00000100000000943000000000032P8    YIYTM   000000000000YT12A143
BI00B32P8    TAPAW-2114     2022102618007704049              AVSS 0.75F W/L           CCN000005000000005000FN00000000020221101000005000NNM   20220822103216    1W    00000100000000943000000000032P8    YIYTM   000000000000YT22A186
BI00B32P8    TAPAW-2113     2022101918007704045              AVSS 0.75F W/R           CCN000003000000003000FN00000000020221101000003000NNM   20220822103216    1W    00000100000000943000000000032P8    YIYTM   000000000000YT12A144
BI00B32P8    TAPAW-2114     2022102618007704045              AVSS 0.75F W/R           CCN000004000000004000FN00000000020221101000004000NNM   20220822103216    1W    00000100000000943000000000032P8    YIYTM   000000000000YT22A187
BI00B32P8    TAPAW-2114     2022102618007704070              AVSS 0.75F Y             CCN000002000000002000FN00000000020221101000002000NNM   20220822103216    1W    00000100000000943000000000032P8    YIYTM   000000000000YT22A188
BI00B32P8    TAPAW-2113     2022101918007704073              AVSS 0.75F Y/B           CCN000002000000002000FN00000000020221101000002000NNM   20220822103216    1W    00000100000000943000000000032P8    YIYTM   000000000000YT12A145
BI00B32P8    TAPAW-2114     2022102618007704073              AVSS 0.75F Y/B           CCN000003000000003000FN00000000020221101000003000NNM   20220822103216    1W    00000100000000943000000000032P8    YIYTM   000000000000YT22A189
BI00B32P8    TAPAW-2113     2022101918007704075              AVSS 0.75F Y/R           CCN000003000000003000FN00000000020221101000003000NNM   20220822103216    1W    00000100000000943000000000032P8    YIYTM   000000000000YT12A147
BI00B32P8    TAPAW-2114     2022102618007704075              AVSS 0.75F Y/R           CCN000009000000009000FN00000000020221101000009000NNM   20220822103216    1W    00000100000000943000000000032P8    YIYTM   000000000000YT22A191
BI00B32P8    TAPAW-2111     2022100518007704130              AVSS 1.25F B             CCN000005600000005600FN00000000020221101000005600NNM   20220822103216    1W    00000080000001389000000000032P8    YIYTM   000000000000YT329059
BI00B32P8    TAPAW-2112     2022101218007704130              AVSS 1.25F B             CCN000020800000020800FN00000000020221101000020800NNM   20220822103216    1W    00000080000001389000000000032P8    YIYTM   000000000000YT429104
BI00B32P8    TAPAW-2113     2022101918007704130              AVSS 1.25F B             CCN000020800000020800FN00000000020221101000020800NNM   20220822103216    1W    00000080000001389000000000032P8    YIYTM   000000000000YT12A148
BI00B32P8    TAPAW-2114     2022102618007704130              AVSS 1.25F B             CCN000020800000020800FN00000000020221101000020800NNM   20220822103216    1W    00000080000001389000000000032P8    YIYTM   000000000000YT22A192
BI00B32P8    TAPAW-2112     2022101218007704180              AVSS 1.25F BR            CCN000000800000000800FN00000000020221101000000800NNM   20220822103216    1W    00000080000001389000000000032P8    YIYTM   000000000000YT429105
BI00B32P8    TAPAW-2113     2022101918007704180              AVSS 1.25F BR            CCN000001600000001600FN00000000020221101000001600NNM   20220822103216    1W    00000080000001389000000000032P8    YIYTM   000000000000YT12A149
BI00B32P8    TAPAW-2114     2022102618007704180              AVSS 1.25F BR            CCN000000800000000800FN00000000020221101000000800NNM   20220822103216    1W    00000080000001389000000000032P8    YIYTM   000000000000YT22A193
BI00B32P8    TAPAW-2111     2022100518007704184              AVSS 1.25F BR/W          CCN000000800000000800FN00000000020221101000000800NNM   20220822103216    1W    00000080000001389000000000032P8    YIYTM   000000000000YT329060
BI00B32P8    TAPAW-2112     2022101218007704184              AVSS 1.25F BR/W          CCN000000800000000800FN00000000020221101000000800NNM   20220822103216    1W    00000080000001389000000000032P8    YIYTM   000000000000YT429106
BI00B32P8    TAPAW-2114     2022102618007704184              AVSS 1.25F BR/W          CCN000000800000000800FN00000000020221101000000800NNM   20220822103216    1W    00000080000001389000000000032P8    YIYTM   000000000000YT22A194
BI00B32P8    TAPAW-2111     2022100518007704160              AVSS 1.25F G             CCN000000800000000800FN00000000020221101000000800NNM   20220822103216    1W    00000080000001389000000000032P8    YIYTM   000000000000YT329061
BI00B32P8    TAPAW-2112     2022101218007704160              AVSS 1.25F G             CCN000004000000004000FN00000000020221101000004000NNM   20220822103216    1W    00000080000001389000000000032P8    YIYTM   000000000000YT429107
BI00B32P8    TAPAW-2113     2022101918007704160              AVSS 1.25F G             CCN000004000000004000FN00000000020221101000004000NNM   20220822103216    1W    00000080000001389000000000032P8    YIYTM   000000000000YT12A150
BI00B32P8    TAPAW-2114     2022102618007704160              AVSS 1.25F G             CCN000004000000004000FN00000000020221101000004000NNM   20220822103216    1W    00000080000001389000000000032P8    YIYTM   000000000000YT22A195
BI00B32P8    TAPAW-2111     2022100518007704163              AVSS 1.25F G/B           CCN000001600000001600FN00000000020221101000001600NNM   20220822103216    1W    00000080000001389000000000032P8    YIYTM   000000000000YT329062
BI00B32P8    TAPAW-2112     2022101218007704163              AVSS 1.25F G/B           CCN000000800000000800FN00000000020221101000000800NNM   20220822103216    1W    00000080000001389000000000032P8    YIYTM   000000000000YT429108
BI00B32P8    TAPAW-2113     2022101918007704163              AVSS 1.25F G/B           CCN000001600000001600FN00000000020221101000001600NNM   20220822103216    1W    00000080000001389000000000032P8    YIYTM   000000000000YT12A151
BI00B32P8    TAPAW-2114     2022102618007704163              AVSS 1.25F G/B           CCN000000800000000800FN00000000020221101000000800NNM   20220822103216    1W    00000080000001389000000000032P8    YIYTM   000000000000YT22A196
BI00B32P8    TAPAW-2113     2022101918007704165              AVSS 1.25F G/R           CCN000001600000001600FN00000000020221101000001600NNM   20220822103216    1W    00000080000001389000000000032P8    YIYTM   000000000000YT12A152
BI00B32P8    TAPAW-2114     2022102618007704165              AVSS 1.25F G/R           CCN000002400000002400FN00000000020221101000002400NNM   20220822103216    1W    00000080000001389000000000032P8    YIYTM   000000000000YT22A197
BI00B32P8    TAPAW-2112     2022101218007704141              AVSS 1.25F GY            CCN000004800000004800FN00000000020221101000004800NNM   20220822103216    1W    00000080000001389000000000032P8    YIYTM   000000000000YT429109
BI00B32P8    TAPAW-2113     2022101918007704141              AVSS 1.25F GY            CCN000004800000004800FN00000000020221101000004800NNM   20220822103216    1W    00000080000001389000000000032P8    YIYTM   000000000000YT12A153
BI00B32P8    TAPAW-2114     2022102618007704141              AVSS 1.25F GY            CCN000004000000004000FN00000000020221101000004000NNM   20220822103216    1W    00000080000001389000000000032P8    YIYTM   000000000000YT22A198
BI00B32P8    TAPAW-2112     2022101218007704190              AVSS 1.25F L             CCN000004000000004000FN00000000020221101000004000NNM   20220822103216    1W    00000080000001389000000000032P8    YIYTM   000000000000YT429110
BI00B32P8    TAPAW-2113     2022101918007704190              AVSS 1.25F L             CCN000004000000004000FN00000000020221101000004000NNM   20220822103216    1W    00000080000001389000000000032P8    YIYTM   000000000000YT12A154
BI00B32P8    TAPAW-2114     2022102618007704190              AVSS 1.25F L             CCN000004000000004000FN00000000020221101000004000NNM   20220822103216    1W    00000080000001389000000000032P8    YIYTM   000000000000YT22A199
BI00B32P8    TAPAW-2111     2022100518007704193              AVSS 1.25F L/B           CCN000002400000002400FN00000000020221101000002400NNM   20220822103216    1W    00000080000001389000000000032P8    YIYTM   000000000000YT329064
BI00B32P8    TAPAW-2112     2022101218007704193              AVSS 1.25F L/B           CCN000001600000001600FN00000000020221101000001600NNM   20220822103216    1W    00000080000001389000000000032P8    YIYTM   000000000000YT429111
BI00B32P8    TAPAW-2113     2022101918007704193              AVSS 1.25F L/B           CCN000001600000001600FN00000000020221101000001600NNM   20220822103216    1W    00000080000001389000000000032P8    YIYTM   000000000000YT12A155
BI00B32P8    TAPAW-2114     2022102618007704193              AVSS 1.25F L/B           CCN000001600000001600FN00000000020221101000001600NNM   20220822103216    1W    00000080000001389000000000032P8    YIYTM   000000000000YT22A200
BI00B32P8    TAPAW-2113     2022101918007704197              AVSS 1.25F L/Y           CCN000000800000000800FN00000000020221101000000800NNM   20220822103216    1W    00000080000001389000000000032P8    YIYTM   000000000000YT12A156
BI00B32P8    TAPAW-2114     2022102618007704197              AVSS 1.25F L/Y           CCN000003200000003200FN00000000020221101000003200NNM   20220822103216    1W    00000080000001389000000000032P8    YIYTM   000000000000YT22A201
BI00B32P8    TAPAW-2113     2022101918007704152              AVSS 1.25F P             CCN000000800000000800FN00000000020221101000000800NNM   20220822103216    1W    00000080000001389000000000032P8    YIYTM   000000000000YT12A157
BI00B32P8    TAPAW-2114     2022102618007704152              AVSS 1.25F P             CCN000000800000000800FN00000000020221101000000800NNM   20220822103216    1W    00000080000001389000000000032P8    YIYTM   000000000000YT22A202
BI00B32P8    TAPAW-2113     2022101918007704150              AVSS 1.25F R             CCN000003200000003200FN00000000020221101000003200NNM   20220822103216    1W    00000080000001389000000000032P8    YIYTM   000000000000YT12A158
BI00B32P8    TAPAW-2114     2022102618007704150              AVSS 1.25F R             CCN000006400000006400FN00000000020221101000006400NNM   20220822103216    1W    00000080000001389000000000032P8    YIYTM   000000000000YT22A203
BI00B32P8    TAPAW-2114     2022102618007704159              AVSS 1.25F R/L           CCN000000800000000800FN00000000020221101000000800NNM   20220822103216    1W    00000080000001389000000000032P8    YIYTM   000000000000YT22A205
BI00B32P8    TAPAW-2114     2022102618007704157              AVSS 1.25F R/Y           CCN000002400000002400FN00000000020221101000002400NNM   20220822103216    1W    00000080000001389000000000032P8    YIYTM   000000000000YT22A206
BI00B32P8    TAPAW-2111     2022100518007704143              AVSS 1.25F W/B           CCN000006400000006400FN00000000020221101000006400NNM   20220822103216    1W    00000080000001389000000000032P8    YIYTM   000000000000YT329065
BI00B32P8    TAPAW-2112     2022101218007704143              AVSS 1.25F W/B           CCN000003200000003200FN00000000020221101000003200NNM   20220822103216    1W    00000080000001389000000000032P8    YIYTM   000000000000YT429112
BI00B32P8    TAPAW-2113     2022101918007704143              AVSS 1.25F W/B           CCN000003200000003200FN00000000020221101000003200NNM   20220822103216    1W    00000080000001389000000000032P8    YIYTM   000000000000YT12A159
BI00B32P8    TAPAW-2114     2022102618007704143              AVSS 1.25F W/B           CCN000003200000003200FN00000000020221101000003200NNM   20220822103216    1W    00000080000001389000000000032P8    YIYTM   000000000000YT22A207
BI00B32P8    TAPAW-2114     2022102618007704146              AVSS 1.25F W/G           CCN000001600000001600FN00000000020221101000001600NNM   20220822103216    1W    00000080000001389000000000032P8    YIYTM   000000000000YT22A208
BI00B32P8    TAPAW-2112     2022101218007704149              AVSS 1.25F W/L           CCN000001600000001600FN00000000020221101000001600NNM   20220822103216    1W    00000080000001389000000000032P8    YIYTM   000000000000YT429113
BI00B32P8    TAPAW-2113     2022101918007704149              AVSS 1.25F W/L           CCN000002400000002400FN00000000020221101000002400NNM   20220822103216    1W    00000080000001389000000000032P8    YIYTM   000000000000YT12A160
BI00B32P8    TAPAW-2114     2022102618007704149              AVSS 1.25F W/L           CCN000003200000003200FN00000000020221101000003200NNM   20220822103216    1W    00000080000001389000000000032P8    YIYTM   000000000000YT22A209
BI00B32P8    TAPAW-2112     2022101218007704170              AVSS 1.25F Y             CCN000003200000003200FN00000000020221101000003200NNM   20220822103216    1W    00000080000001389000000000032P8    YIYTM   000000000000YT429114
BI00B32P8    TAPAW-2113     2022101918007704170              AVSS 1.25F Y             CCN000008000000008000FN00000000020221101000008000NNM   20220822103216    1W    00000080000001389000000000032P8    YIYTM   000000000000YT12A161
BI00B32P8    TAPAW-2114     2022102618007704170              AVSS 1.25F Y             CCN000008000000008000FN00000000020221101000008000NNM   20220822103216    1W    00000080000001389000000000032P8    YIYTM   000000000000YT22A210
BI00B32P8    TAPAW-2114     2022102618007704173              AVSS 1.25F Y/B           CCN000000800000000800FN00000000020221101000000800NNM   20220822103216    1W    00000080000001389000000000032P8    YIYTM   000000000000YT22A211
BI00B32P8    TAPAW-2113     2022101918007704176              AVSS 1.25F Y/G           CCN000000800000000800FN00000000020221101000000800NNM   20220822103216    1W    00000080000001389000000000032P8    YIYTM   000000000000YT12A162
BI00B32P8    TAPAW-2113     2022101918007704175              AVSS 1.25F Y/R           CCN000000800000000800FN00000000020221101000000800NNM   20220822103216    1W    00000080000001389000000000032P8    YIYTM   000000000000YT12A163
BI00B32P8    TAPAW-2114     2022102618007704175              AVSS 1.25F Y/R           CCN000000800000000800FN00000000020221101000000800NNM   20220822103216    1W    00000080000001389000000000032P8    YIYTM   000000000000YT22A212
BI00B32P8    TAPAW-2111     20221005180D0203740              AVSSH 0.3F W             CCN000004000000004000FN00000000020221101000004000NNM   20220822103216    1W    00000200000000515000000000032P8    YIYTM   000000000000YT329007
BI00B32P8    TAPAW-2112     20221012180D0203740              AVSSH 0.3F W             CCN000004000000004000FN00000000020221101000004000NNM   20220822103216    1W    00000200000000515000000000032P8    YIYTM   000000000000YT429027
BI00B32P8    TAPAW-2113     20221019180D0203740              AVSSH 0.3F W             CCN000006000000006000FN00000000020221101000006000NNM   20220822103216    1W    00000200000000515000000000032P8    YIYTM   000000000000YT12A041
BI00B32P8    TAPAW-2114     20221026180D0203740              AVSSH 0.3F W             CCN000004000000004000FN00000000020221101000004000NNM   20220822103216    1W    00000200000000515000000000032P8    YIYTM   000000000000YT22A063
BI00B32P8    TAPAW-2113     20221019180D0203930              AVSSH 0.5F B             CCN000012000000012000FN00000000020221101000012000NNM   20220822103216    1W    00000150000000689000000000032P8    YIYTM   000000000000YT12A042
BI00B32P8    TAPAW-2114     20221026180D0203930              AVSSH 0.5F B             CCN000012000000012000FN00000000020221101000012000NNM   20220822103216    1W    00000150000000689000000000032P8    YIYTM   000000000000YT22A064
BI00B32P8    TAPAW-2114     20221026180D0203935              AVSSH 0.5F B/R           CCN000001500000001500FN00000000020221101000001500NNM   20220822103216    1W    00000150000000689000000000032P8    YIYTM   000000000000YT22A065
BI00B32P8    TAPAW-2111     20221005180D0203960              AVSSH 0.5F G             CCN000001500000001500FN00000000020221101000001500NNM   20220822103216    1W    00000150000000689000000000032P8    YIYTM   000000000000YT329008
BI00B32P8    TAPAW-2112     20221012180D0203960              AVSSH 0.5F G             CCN000003000000003000FN00000000020221101000003000NNM   20220822103216    1W    00000150000000689000000000032P8    YIYTM   000000000000YT429028
BI00B32P8    TAPAW-2113     20221019180D0203960              AVSSH 0.5F G             CCN000004500000004500FN00000000020221101000004500NNM   20220822103216    1W    00000150000000689000000000032P8    YIYTM   000000000000YT12A043
BI00B32P8    TAPAW-2114     20221026180D0203960              AVSSH 0.5F G             CCN000003000000003000FN00000000020221101000003000NNM   20220822103216    1W    00000150000000689000000000032P8    YIYTM   000000000000YT22A066
BI00B32P8    TAPAW-2111     20221005180D0203964              AVSSH 0.5F G/W           CCN000001500000001500FN00000000020221101000001500NNM   20220822103216    1W    00000150000000689000000000032P8    YIYTM   000000000000YT329009
BI00B32P8    TAPAW-2112     20221012180D0203964              AVSSH 0.5F G/W           CCN000003000000003000FN00000000020221101000003000NNM   20220822103216    1W    00000150000000689000000000032P8    YIYTM   000000000000YT429029
BI00B32P8    TAPAW-2113     20221019180D0203964              AVSSH 0.5F G/W           CCN000004500000004500FN00000000020221101000004500NNM   20220822103216    1W    00000150000000689000000000032P8    YIYTM   000000000000YT12A044
BI00B32P8    TAPAW-2114     20221026180D0203964              AVSSH 0.5F G/W           CCN000003000000003000FN00000000020221101000003000NNM   20220822103216    1W    00000150000000689000000000032P8    YIYTM   000000000000YT22A067
BI00B32P8    TAPAW-2112     20221012180D0203990              AVSSH 0.5F L             CCN000007500000007500FN00000000020221101000007500NNM   20220822103216    1W    00000150000000689000000000032P8    YIYTM   000000000000YT429030
BI00B32P8    TAPAW-2113     20221019180D0203990              AVSSH 0.5F L             CCN000006000000006000FN00000000020221101000006000NNM   20220822103216    1W    00000150000000689000000000032P8    YIYTM   000000000000YT12A045
BI00B32P8    TAPAW-2114     20221026180D0203990              AVSSH 0.5F L             CCN000007500000007500FN00000000020221101000007500NNM   20220822103216    1W    00000150000000689000000000032P8    YIYTM   000000000000YT22A068
BI00B32P8    TAPAW-2112     20221012180D0203994              AVSSH 0.5F L/W           CCN000001500000001500FN00000000020221101000001500NNM   20220822103216    1W    00000150000000689000000000032P8    YIYTM   000000000000YT429031
BI00B32P8    TAPAW-2113     20221019180D0203994              AVSSH 0.5F L/W           CCN000004500000004500FN00000000020221101000004500NNM   20220822103216    1W    00000150000000689000000000032P8    YIYTM   000000000000YT12A046
BI00B32P8    TAPAW-2114     20221026180D0203994              AVSSH 0.5F L/W           CCN000004500000004500FN00000000020221101000004500NNM   20220822103216    1W    00000150000000689000000000032P8    YIYTM   000000000000YT22A069
BI00B32P8    TAPAW-2111     20221005180D0203952              AVSSH 0.5F P             CCN000001500000001500FN00000000020221101000001500NNM   20220822103216    1W    00000150000000689000000000032P8    YIYTM   000000000000YT329010
BI00B32P8    TAPAW-2112     20221012180D0203952              AVSSH 0.5F P             CCN000003000000003000FN00000000020221101000003000NNM   20220822103216    1W    00000150000000689000000000032P8    YIYTM   000000000000YT429032
BI00B32P8    TAPAW-2113     20221019180D0203952              AVSSH 0.5F P             CCN000004500000004500FN00000000020221101000004500NNM   20220822103216    1W    00000150000000689000000000032P8    YIYTM   000000000000YT12A048
BI00B32P8    TAPAW-2114     20221026180D0203952              AVSSH 0.5F P             CCN000003000000003000FN00000000020221101000003000NNM   20220822103216    1W    00000150000000689000000000032P8    YIYTM   000000000000YT22A070
BI00B32P8    TAPAW-2113     20221019180D0203907              AVSSH 0.5F P/B           CCN000003000000003000FN00000000020221101000003000NNM   20220822103216    1W    00000150000000689000000000032P8    YIYTM   000000000000YT12A049
BI00B32P8    TAPAW-2114     20221026180D0203907              AVSSH 0.5F P/B           CCN000001500000001500FN00000000020221101000001500NNM   20220822103216    1W    00000150000000689000000000032P8    YIYTM   000000000000YT22A071
BI00B32P8    TAPAW-2111     20221005180D0203950              AVSSH 0.5F R             CCN000001500000001500FN00000000020221101000001500NNM   20220822103216    1W    00000150000000689000000000032P8    YIYTM   000000000000YT329011
BI00B32P8    TAPAW-2112     20221012180D0203950              AVSSH 0.5F R             CCN000009000000009000FN00000000020221101000009000NNM   20220822103216    1W    00000150000000689000000000032P8    YIYTM   000000000000YT429033
BI00B32P8    TAPAW-2113     20221019180D0203950              AVSSH 0.5F R             CCN000010500000010500FN00000000020221101000010500NNM   20220822103216    1W    00000150000000689000000000032P8    YIYTM   000000000000YT12A050
BI00B32P8    TAPAW-2114     20221026180D0203950              AVSSH 0.5F R             CCN000009000000009000FN00000000020221101000009000NNM   20220822103216    1W    00000150000000689000000000032P8    YIYTM   000000000000YT22A072
BI00B32P8    TAPAW-2113     20221019180D0203954              AVSSH 0.5F R/W           CCN000004500000004500FN00000000020221101000004500NNM   20220822103216    1W    00000150000000689000000000032P8    YIYTM   000000000000YT12A051
BI00B32P8    TAPAW-2114     20221026180D0203954              AVSSH 0.5F R/W           CCN000003000000003000FN00000000020221101000003000NNM   20220822103216    1W    00000150000000689000000000032P8    YIYTM   000000000000YT22A073
BI00B32P8    TAPAW-2113     20221019180D02039G4              AVSSH 0.5F V/R           CCN000001500000001500FN00000000020221101000001500NNM   20220822103216    1W    00000150000000689000000000032P8    YIYTM   000000000000YT12A052
BI00B32P8    TAPAW-2114     20221026180D0203940              AVSSH 0.5F W             CCN000001500000001500FN00000000020221101000001500NNM   20220822103216    1W    00000150000000689000000000032P8    YIYTM   000000000000YT22A074
BI00B32P8    TAPAW-2112     20221012180D0203943              AVSSH 0.5F W/B           CCN000006000000006000FN00000000020221101000006000NNM   20220822103216    1W    00000150000000689000000000032P8    YIYTM   000000000000YT429034
BI00B32P8    TAPAW-2113     20221019180D0203943              AVSSH 0.5F W/B           CCN000018000000018000FN00000000020221101000018000NNM   20220822103216    1W    00000150000000689000000000032P8    YIYTM   000000000000YT12A053
BI00B32P8    TAPAW-2114     20221026180D0203943              AVSSH 0.5F W/B           CCN000018000000018000FN00000000020221101000018000NNM   20220822103216    1W    00000150000000689000000000032P8    YIYTM   000000000000YT22A075
BI00B32P8    TAPAW-2114     20221026180D0203945              AVSSH 0.5F W/R           CCN000001500000001500FN00000000020221101000001500NNM   20220822103216    1W    00000150000000689000000000032P8    YIYTM   000000000000YT22A076
BI00B32P8    TAPAW-2113     20221019180D0203970              AVSSH 0.5F Y             CCN000003000000003000FN00000000020221101000003000NNM   20220822103216    1W    00000150000000689000000000032P8    YIYTM   000000000000YT12A054
BI00B32P8    TAPAW-2114     20221026180D0203970              AVSSH 0.5F Y             CCN000006000000006000FN00000000020221101000006000NNM   20220822103216    1W    00000150000000689000000000032P8    YIYTM   000000000000YT22A077
BI00B32P8    TAPAW-2112     20221012180D0203973              AVSSH 0.5F Y/B           CCN000001500000001500FN00000000020221101000001500NNM   20220822103216    1W    00000150000000689000000000032P8    YIYTM   000000000000YT429035
BI00B32P8    TAPAW-2113     20221019180D0203973              AVSSH 0.5F Y/B           CCN000001500000001500FN00000000020221101000001500NNM   20220822103216    1W    00000150000000689000000000032P8    YIYTM   000000000000YT12A055
BI00B32P8    TAPAW-2113     20221019180D0204030              AVSSH 0.75F B            CCN000001000000001000FN00000000020221101000001000NNM   20220822103216    1W    00000100000000934000000000032P8    YIYTM   000000000000YT12A056
BI00B32P8    TAPAW-2114     20221026180D0204030              AVSSH 0.75F B            CCN000001000000001000FN00000000020221101000001000NNM   20220822103216    1W    00000100000000934000000000032P8    YIYTM   000000000000YT22A078
BI00B32P8    TAPAW-2112     20221012180D0204034              AVSSH 0.75F B/W          CCN000002000000002000FN00000000020221101000002000NNM   20220822103216    1W    00000100000000934000000000032P8    YIYTM   000000000000YT429036
BI00B32P8    TAPAW-2113     20221019180D0204034              AVSSH 0.75F B/W          CCN000002000000002000FN00000000020221101000002000NNM   20220822103216    1W    00000100000000934000000000032P8    YIYTM   000000000000YT12A057
BI00B32P8    TAPAW-2114     20221026180D0204034              AVSSH 0.75F B/W          CCN000002000000002000FN00000000020221101000002000NNM   20220822103216    1W    00000100000000934000000000032P8    YIYTM   000000000000YT22A079
BI00B32P8    TAPAW-2112     20221012180D0204060              AVSSH 0.75F G            CCN000001000000001000FN00000000020221101000001000NNM   20220822103216    1W    00000100000000934000000000032P8    YIYTM   000000000000YT429037
BI00B32P8    TAPAW-2113     20221019180D0204060              AVSSH 0.75F G            CCN000002000000002000FN00000000020221101000002000NNM   20220822103216    1W    00000100000000934000000000032P8    YIYTM   000000000000YT12A058
BI00B32P8    TAPAW-2114     20221026180D0204060              AVSSH 0.75F G            CCN000001000000001000FN00000000020221101000001000NNM   20220822103216    1W    00000100000000934000000000032P8    YIYTM   000000000000YT22A080
BI00B32P8    TAPAW-2111     20221005180D0204090              AVSSH 0.75F L            CCN000002000000002000FN00000000020221101000002000NNM   20220822103216    1W    00000100000000934000000000032P8    YIYTM   000000000000YT329012
BI00B32P8    TAPAW-2112     20221012180D0204090              AVSSH 0.75F L            CCN000001000000001000FN00000000020221101000001000NNM   20220822103216    1W    00000100000000934000000000032P8    YIYTM   000000000000YT429038
BI00B32P8    TAPAW-2114     20221026180D0204090              AVSSH 0.75F L            CCN000001000000001000FN00000000020221101000001000NNM   20220822103216    1W    00000100000000934000000000032P8    YIYTM   000000000000YT22A081
BI00B32P8    TAPAW-2111     20221005180D0204050              AVSSH 0.75F R            CCN000001000000001000FN00000000020221101000001000NNM   20220822103216    1W    00000100000000934000000000032P8    YIYTM   000000000000YT329013
BI00B32P8    TAPAW-2112     20221012180D0204050              AVSSH 0.75F R            CCN000001000000001000FN00000000020221101000001000NNM   20220822103216    1W    00000100000000934000000000032P8    YIYTM   000000000000YT429039
BI00B32P8    TAPAW-2114     20221026180D0204050              AVSSH 0.75F R            CCN000001000000001000FN00000000020221101000001000NNM   20220822103216    1W    00000100000000934000000000032P8    YIYTM   000000000000YT22A083
BI00B32P8    TAPAW-2112     20221012180D0204054              AVSSH 0.75F R/W          CCN000004000000004000FN00000000020221101000004000NNM   20220822103216    1W    00000100000000934000000000032P8    YIYTM   000000000000YT429040
BI00B32P8    TAPAW-2113     20221019180D0204054              AVSSH 0.75F R/W          CCN000004000000004000FN00000000020221101000004000NNM   20220822103216    1W    00000100000000934000000000032P8    YIYTM   000000000000YT12A059
BI00B32P8    TAPAW-2114     20221026180D0204054              AVSSH 0.75F R/W          CCN000003000000003000FN00000000020221101000003000NNM   20220822103216    1W    00000100000000934000000000032P8    YIYTM   000000000000YT22A084
BI00B32P8    TAPAW-2111     20221005180D0204040              AVSSH 0.75F W            CCN000001000000001000FN00000000020221101000001000NNM   20220822103216    1W    00000100000000934000000000032P8    YIYTM   000000000000YT329014
BI00B32P8    TAPAW-2113     20221019180D0204040              AVSSH 0.75F W            CCN000001000000001000FN00000000020221101000001000NNM   20220822103216    1W    00000100000000934000000000032P8    YIYTM   000000000000YT12A061
BI00B32P8    TAPAW-2111     20221005180D0204049              AVSSH 0.75F W/L          CCN000001000000001000FN00000000020221101000001000NNM   20220822103216    1W    00000100000000934000000000032P8    YIYTM   000000000000YT329015
BI00B32P8    TAPAW-2112     20221012180D0204049              AVSSH 0.75F W/L          CCN000001000000001000FN00000000020221101000001000NNM   20220822103216    1W    00000100000000934000000000032P8    YIYTM   000000000000YT429041
BI00B32P8    TAPAW-2114     20221026180D0204049              AVSSH 0.75F W/L          CCN000001000000001000FN00000000020221101000001000NNM   20220822103216    1W    00000100000000934000000000032P8    YIYTM   000000000000YT22A086
BI00B32P8    TAPAW-2113     20221019180D0204070              AVSSH 0.75F Y            CCN000001000000001000FN00000000020221101000001000NNM   20220822103216    1W    00000100000000934000000000032P8    YIYTM   000000000000YT12A062
BI00B32P8    TAPAW-2114     20221026180D0204070              AVSSH 0.75F Y            CCN000001000000001000FN00000000020221101000001000NNM   20220822103216    1W    00000100000000934000000000032P8    YIYTM   000000000000YT22A087
BI00B32P8    TAPAW-2112     20221012180D0204130              AVSSH 1.25F B            CCN000004800000004800FN00000000020221101000004800NNM   20220822103216    1W    00000080000001458000000000032P8    YIYTM   000000000000YT429042
BI00B32P8    TAPAW-2113     20221019180D0204130              AVSSH 1.25F B            CCN000009600000009600FN00000000020221101000009600NNM   20220822103216    1W    00000080000001458000000000032P8    YIYTM   000000000000YT12A063
