AE00TI102208220522/08/202200000000600000000000000003709KGM  00000005420KGM  7116-1180                TERMINAL                 71161180                 0         0         0         0    0    0    00011700000001950000000022000025740000
AE00TI102208220522/08/202200000002000000000000000009180KGM  00000014884KGM  7116-3153-02             TERMINAL FEMALE          7116315302               0         0         0         0    0    0    00054000000002700000000015000081000000
AE00TI102208220522/08/202200000002800000000000000013154KGM  00000021140KGM  7116-3154-02             TERMINAL FEMALE          7116315402               0         0         0         0    0    0    00075600000002700000000015000113400000
AE00TI102208220522/08/202200000004400000000000000022572KGM  00000035121KGM  7116-4020                TERMINAL                 71164020                 0         0         0         0    0    0    00059400000001350000000028000166320000
AE00TI102208220522/08/202200000001600000000000000010624KGM  00000015909KGM  7116-4026                TERMINAL                 71164026                 0         0         0         0    0    0    00025600000001600000000033000084480000
AE00TI102208220522/08/202200000001600000000000000008525KGM  00000013088KGM  7116-4032                TERMINAL                 71164032                 0         0         0         0    0    0    00009600000000600000000057000054720000
AE00TI102208220522/08/202200000003200000000000000016762KGM  00000027395KGM  7116-6042                TERMINAL                 71166042                 0         0         0         0    0    0    00009600000000300000000135000129600000
AE00TI102208220522/08/202200000001000000000000000002500KGM  00000003060KGM  7158-3003-90             RUBBER STOPPER           7158300390               0         0         0         0    0    0    00020000000002000000000012000024000000
AE00TI102208220522/08/202200000000100000000000000000445KGM  00000000730KGM  7196-1460-02             TERMINAL FEMALE          7196146002               0         0         0         0    0    0    00002850000002850000000014000003990000
AE00TI102208220522/08/202200000000100000000000000001068KGM  00000001178KGM  7282-5845                HOUSING MALE ASS'Y       72825845                 0         0         0         0    0    0    00000400000000400000000321000012840000
AE00TI102208220522/08/202200000000100000000000000001068KGM  00000001178KGM  7282-5845-30             HOUSING MALE ASS'Y       7282584530               0         0         0         0    0    0    00000400000000400000000323000012920000
AE00TI102208220522/08/202200000000100000000000000001018KGM  00000001238KGM  7282-9391                HOUSING MALE ASS'Y       72829391                 0         0         0         0    0    0    00000120000000120000000325000003900000
AE00TI102208220522/08/202200000000100000000000000000444KGM  00000000606KGM  7283-5845                CONNECTOR HOUSING        72835845                 0         0         0         0    0    0    00000600000000600000000133000007980000
AE00TI102208220522/08/202200000000200000000000000001821KGM  00000002261KGM  7286-3885-30             CONNECTOR MALE ASS'Y     7286388530               0         0         0         0    0    0    00000240000000120000000309000007416000
AE00TI102208220522/08/202200000000100000000000000000743KGM  00000000853KGM  7287-7022                CONNECTOR FEMALE         72877022                 0         0         0         0    0    0    00000120000000120000000982000011784000
AE00TI102208220522/08/202200000001500000000000000010296KGM  00000013521KGM  7289-3342-30             HOUSING FEMALE ASS'Y     7289334230               0         0         0         0    0    0    00003600000000240000000191000068760000
AE00TI102208220522/08/202200000000700000000000000004805KGM  00000006310KGM  7289-3342-40             HOUSING FEMALE ASS'Y     7289334240               0         0         0         0    0    0    00001680000000240000000192000032256000
AE00TI102208220522/08/202200000001300000000000000008923KGM  00000011718KGM  7289-3342-90             HOUSING FEMALE ASS'Y     7289334290               0         0         0         0    0    0    00003120000000240000000196000061152000
AE00TI102208220522/08/202200000000300000000000000003515KGM  00000004106KGM  7289-5011-30             HOUSING FEMALE ASS'Y     7289501130               0         0         0         0    0    0    00000720000000240000000333000023976000
AE00TI102208220522/08/202200000000500000000000000005545KGM  00000007608KGM  7289-9553-30             SEALED ASSY FEMALE       7289955330               0         0         0         0    0    0    00001470000000294000000245000036015000
AE00TI102208220522/08/202200000000100000000000000001108KGM  00000001521KGM  7289-9553-50             SEALED ASSY FEMALE       7289955350               0         0         0         0    0    0    00000294000000294000000252000007408800
AE00TI102208220522/08/202200000002400000000000000027382KGM  00000032542KGM  7327-6840-3W             BATTERY FUSE             732768403W               0         0         0         0    0    0    00000172800000007200009909000171227520
AE00TI102208220622/08/202200000000400000000000000000741KGM  00000000934KGM  7137-3001-30             COVER PACKING            7137300130               0         0         0         0    0    0    00000200000000050000000340000006800000
AE00TI102208220622/08/202200000001300000000000000004298KGM  00000005018KGM  7158-3006-90             RUBBER STOPPER           7158300690               0         0         0         0    0    0    00026000000002000000000016000041600000
AE00TI102208220622/08/202200000001000000000000000003380KGM  00000003862KGM  7158-3009-60             RUBBER STOPPER           7158300960               0         0         0         0    0    0    00020000000002000000000012000024000000
AE00TI102208220622/08/202200000000300000000000000000828KGM  00000001000KGM  7158-3070-80             RUBBER STOPPER           7158307080               0         0         0         0    0    0    00012000000004000000000008000009600000
AE00TI102208220622/08/202200000001800000000000000001872KGM  00000002743KGM  7158-3166-60             WIRE SEAL                7158316660               0         0         0         0    0    0    00072000000004000000000004000028800000
AE00TI102208220622/08/202200000001400000000000000000672KGM  00000001526KGM  7158-3167-80             WIRE SEAL                7158316780               0         0         0         0    0    0    00028000000002000000000005000014000000
AE00TI102208220622/08/202200000000700000000000000000308KGM  00000000645KGM  7158-3168-80             SEALED                   7158316880               0         0         0         0    0    0    00014000000002000000000004000005600000
AE00TI102208220622/08/202200000000500000000000000000780KGM  00000001021KGM  7158-3169-40             SEALING PLUG             7158316940               0         0         0         0    0    0    00020000000004000000000006000012000000
AE00TI102208220622/08/202200000000600000000000000001116KGM  00000001406KGM  7172-5540-80             SEALED WIRE SEAL         7172554080               0         0         0         0    0    0    00012000000002000000000010000012000000
AE00TI102208220622/08/202200000000200000000000000001788KGM  00000002370KGM  7287-9234                JOINT CONNECTOR          72879234                 0         0         0         0    0    0    00001920000000960000000137000026304000
AE00TI102208220622/08/202200000000500000000000000004331KGM  00000005056KGM  7288-3329-30             HOUSING MALE             7288332930               0         0         0         0    0    0    00000750000000150000000354000026550000
AE00TI102208220622/08/202200000000200000000000000001734KGM  00000002024KGM  7288-3335-30             HOUSING MALE             7288333530               0         0         0         0    0    0    00000300000000150000000354000010620000
AE00TI102208220622/08/202200000000100000000000000000866KGM  00000001012KGM  7288-3338-30             HOUSING MALE             7288333830               0         0         0         0    0    0    00000150000000150000000354000005310000
AE00TI102208220622/08/202200000000500000000000000003432KGM  00000004507KGM  7289-3342                HOUSING FEMALE ASS'Y     72893342                 0         0         0         0    0    0    00001200000000240000000186000022320000
AE00TI102208220622/08/202200000000100000000000000001097KGM  00000001359KGM  7298-4094-10             HOUSING FEMALE ASS'Y     7298409410               0         0         0         0    0    0    00000338000000338000000241000008145800
AE00TI102208220622/08/202200000000500000000000000004908KGM  00000006450KGM  7298-5993-30             SEALED ASSY FEMALE       7298599330               0         0         0         0    0    0    00001092000000218400000266000029047200
AE00TI102208220622/08/202200000003000000000000000016770KGM  00000024270KGM  7370-0310                J/B ASS'Y                73700310                 0         0         0         0    0    0    00000030000000001000031643000094929000
AE00TI102208220622/08/202200000001900000000000000014098KGM  00000021318KGM  7388-2978-30             HOUSING MALE ASS'Y       7388297830               0         0         0         0    0    0    00000912000000048000001790000163248000
AE00TI102208220622/08/202200000002000000000000000000000KGM  00000000000KGM  7470-5782D               J/B COMPLETE ASS'Y       74705782D                0         0         0         0    0    0    00000030000000001500000000000000000000
AE00TI102208220622/08/202200000005100000000000000000000KGM  00000000000KGM  7470-5783D               J/B COMPLETE ASS'Y       74705783D                0         0         0         0    0    0    00000076500000001500000000000000000000
AE00TI102208220622/08/202200000002000000000000000000000KGM  00000000000KGM  7470-5784D               J/B COMPLETE ASS'Y       74705784D                0         0         0         0    0    0    00000030000000001500000000000000000000
AE00TI102208220622/08/202200000001400000000000000000000KGM  00000000000KGM  7470-5823E               J/B COMPLETE ASS'Y       74705823E                0         0         0         0    0    0    00000014000000001000000000000000000000
AE00TI102208220622/08/202200000001000000000000000000000KGM  00000000000KGM  7470-5858D               J/B COMPLETE ASS'Y       74705858D                0         0         0         0    0    0    00000010000000001000000000000000000000
