AE00TI102208220222/08/202200000000700000000000000001932KGM  00000002331KGM  7B58-3070-80             RUBBER STOPPER           7B58307080               0         0         0         0    0    0    00028000000004000000000012000033600000
AE00TI102208220222/08/202200000001500000000000000002778KGM  00000003504KGM  7137-3001-30             COVER PACKING            7137300130               0         0         0         0    0    0    00000750000000050000000340000025500000
AE00TI102208220222/08/202200000000600000000000000003252KGM  00000004328KGM  7147-3642-30             CLIP                     7147364230               0         0         0         0    0    0    00001800000000300000000074000013320000
AE00TI102208220222/08/202200000000300000000000000002481KGM  00000003306KGM  7154-5712-30             CASSETTE R/B             7154571230               0         0         0         0    0    0    00000240000000080000000288000006912000
AE00TI102208220222/08/202200000001400000000000000004628KGM  00000005404KGM  7158-3006-90             RUBBER STOPPER           7158300690               0         0         0         0    0    0    00028000000002000000000016000044800000
AE00TI102208220222/08/202200000004100000000000000013858KGM  00000015834KGM  7158-3009-60             RUBBER STOPPER           7158300960               0         0         0         0    0    0    00082000000002000000000012000098400000
AE00TI102208220222/08/202200000000100000000000000000444KGM  00000000502KGM  7158-3023                RUBBER STOPPER           71583023                 0         0         0         0    0    0    00000500000000500000000078000003900000
AE00TI102208220222/08/202200000002900000000000000008004KGM  00000009666KGM  7158-3070-80             RUBBER STOPPER           7158307080               0         0         0         0    0    0    00116000000004000000000008000092800000
AE00TI102208220222/08/202200000008000000000000000008320KGM  00000012192KGM  7158-3166-60             WIRE SEAL                7158316660               0         0         0         0    0    0    00320000000004000000000004000128000000
AE00TI102208220222/08/202200000003300000000000000001584KGM  00000003597KGM  7158-3167-80             WIRE SEAL                7158316780               0         0         0         0    0    0    00066000000002000000000005000033000000
AE00TI102208220222/08/202200000000500000000000000000220KGM  00000000461KGM  7158-3168-80             SEALED                   7158316880               0         0         0         0    0    0    00010000000002000000000004000004000000
AE00TI102208220222/08/202200000000600000000000000000936KGM  00000001225KGM  7158-3169-40             SEALING PLUG             7158316940               0         0         0         0    0    0    00024000000004000000000006000014400000
AE00TI102208220222/08/202200000002900000000000000038834KGM  00000043184KGM  7171-6291                HOUSING MALE             71716291                 0         0         0         0    0    0    00000556800000019200001625000090480000
AE00TI102208220222/08/202200000000700000000000000003203KGM  00000003542KGM  7172-5402-30             SEAL RUBBER              7172540230               0         0         0         0    0    0    00005600000000800000000077000043120000
AE00TI102208220222/08/202200000002900000000000000018954KGM  00000020349KGM  7172-5403-30             SEALED PACKING           7172540330               0         0         0         0    0    0    00011600000000400000000119000138040000
AE00TI102208220222/08/202200000000400000000000000005128KGM  00000005908KGM  7182-4941                DOUBLE SIDED             71824941                 0         0         0         0    0    0    00000400000000100000000816000032640000
AE00TI102208220222/08/202200000000100000000000000000959KGM  00000001191KGM  7183-0522-30             HOUSING                  7183052230               0         0         0         0    0    0    00000240000000240000000121000002904000
AE00TI102208220222/08/202200000000200000000000000000956KGM  00000001520KGM  7183-2413                CONNECTOR HOUSING        71832413                 0         0         0         0    0    0    00000960000000480000000074000007104000
AE00TI102208220222/08/202200000000100000000000000000478KGM  00000000760KGM  7183-2413-30             CONNECTOR HOUSING        7183241330               0         0         0         0    0    0    00000480000000480000000076000003648000
AE00TI102208220222/08/202200000000300000000000000002338KGM  00000003183KGM  7183-2414                CONNECTOR HOUSING        71832414                 0         0         0         0    0    0    00001440000000480000000050000007200000
AE00TI102208220222/08/202200000000100000000000000000780KGM  00000001062KGM  7183-2414-30             CONNECTOR HOUSING        7183241430               0         0         0         0    0    0    00000480000000480000000054000002592000
AE00TI102208220222/08/202200000000100000000000000000821KGM  00000001104KGM  7183-6320                HOUSING                  71836320                 0         0         0         0    0    0    00000480000000480000000092000004416000
AE00TI102208220222/08/202200000000100000000000000000228KGM  00000000343KGM  7185-9322                RETAINER                 71859322                 0         0         0         0    0    0    00000050000000050000000416000002080000
AE00TI102208220222/08/202200000000300000000000000001911KGM  00000002346KGM  7188-9508-40             HLC HOUSING MALE         7188950840               0         0         0         0    0    0    00000600000000200000000240000014400000
AE00TI102208220222/08/202200000000300000000000000001879KGM  00000002314KGM  7188-9509                HLC HOUSING MALE         71889509                 0         0         0         0    0    0    00000600000000200000000231000013860000
AE00TI102208220222/08/202200000000300000000000000001893KGM  00000002328KGM  7188-9510-30             HLC HOUSING MALE         7188951030               0         0         0         0    0    0    00000600000000200000000238000014280000
AE00TI102208220222/08/202200000000300000000000000001882KGM  00000002317KGM  7188-9511-80             HLC HOUSING MALE         7188951180               0         0         0         0    0    0    00000600000000200000000245000014700000
AE00TI102208220222/08/202200000000200000000000000001543KGM  00000001833KGM  7188-9513                HLC HOUSING MALE         71889513                 0         0         0         0    0    0    00000400000000200000000261000010440000
AE00TI102208220222/08/202200000000200000000000000001557KGM  00000001847KGM  7188-9514-90             HLC HOUSING MALE         7188951490               0         0         0         0    0    0    00000400000000200000000275000011000000
AE00TI102208220222/08/202200000000400000000000000003013KGM  00000003441KGM  7189-9522-90             HOUSING                  7189952290               0         0         0         0    0    0    00000800000000200000000303000024240000
AE00TI102208220222/08/202200000000200000000000000001934KGM  00000002194KGM  7222-7564-40             CONNECTOR                7222756440               0         0         0         0    0    0    00000100000000050000001166000011660000
AE00TI102208220222/08/202200000000200000000000000002712KGM  00000003040KGM  7282-8120                CONNECTOR HOUSING        72828120                 0         0         0         0    0    0    00000600000000300000000212000012720000
AE00TI102208220222/08/202200000000400000000000000005424KGM  00000006080KGM  7282-8120-30             CONNECTOR HOUSING        7282812030               0         0         0         0    0    0    00001200000000300000000000000000000000
AE00TI102208220222/08/202200000000100000000000000000396KGM  00000000670KGM  7283-1040                CONNECTOR                72831040                 0         0         0         0    0    0    00000200000000200000000214000004280000
AE00TI102208220222/08/202200000000200000000000000001338KGM  00000001865KGM  7283-1140                CONNECTOR HOUSING        72831140                 0         0         0         0    0    0    00000300000000150000000259000007770000
AE00TI102208220222/08/202200000000200000000000000001755KGM  00000002156KGM  7283-1156                CONNECTOR                72831156                 0         0         0         0    0    0    00000160000000080000000810000012960000
AE00TI102208220222/08/202200000000100000000000000001381KGM  00000001637KGM  7283-1288                CONNECTOR HOUSING        72831288                 0         0         0         0    0    0    00000120000000120000000781000009372000
AE00TI102208220222/08/202200000002800000000000000038668KGM  00000045836KGM  7283-1288-10             CONNECTOR HOUSING        7283128810               0         0         0         0    0    0    00003360000000120000000785000263760000
AE00TI102208220222/08/202200000000400000000000000005528KGM  00000006563KGM  7283-1288-40             CONNECTOR HOUSING        7283128840               0         0         0         0    0    0    00000480000000120000000785000037680000
AE00TI102208220222/08/202200000000100000000000000001160KGM  00000001341KGM  7283-1485                CONNECTOR                72831485                 0         0         0         0    0    0    00000200000000200000000366000007320000
AE00TI102208220222/08/202200000000100000000000000001140KGM  00000001318KGM  7283-1968-30             CONNECTOR                7283196830               0         0         0         0    0    0    00000090000000090000000687000006183000
AE00TI102208220222/08/202200000000100000000000000001500KGM  00000001630KGM  7283-7046-30             CONNECTOR                7283704630               0         0         0         0    0    0    00000100000000100000001901000019010000
AE00TI102208220222/08/202200000000800000000000000007736KGM  00000009342KGM  7286-1917                CONNECTOR MALE ASS'Y     72861917                 0         0         0         0    0    0    00000960000000120000000517000049632000
AE00TI102208220222/08/202200000000100000000000000000952KGM  00000001140KGM  7286-7860                HOUSING MALE ASS'Y       72867860                 0         0         0         0    0    0    00000080000000080000000383000003064000
AE00TI102208220222/08/202200000001100000000000000009391KGM  00000011497KGM  7287-9155                HOUSING FEMALE ASS'Y     72879155                 0         0         0         0    0    0    00001056000000096000000357000037699200
AE00TI102208220222/08/202200000000600000000000000003226KGM  00000004140KGM  7287-9323                UNSEALED HOUSING SUB     72879323                 0         0         0         0    0    0    00001440000000240000000146000021024000
AE00TI102208220222/08/202200000000200000000000000002004KGM  00000002469KGM  7289-0269                HOUSING SUB ASSEMBLY     72890269                 0         0         0         0    0    0    00000320000000160000000227000007264000
AE00TI102208220222/08/202200000001700000000000000011669KGM  00000015324KGM  7289-3342-30             HOUSING FEMALE ASS'Y     7289334230               0         0         0         0    0    0    00004080000000240000000191000077928000
AE00TI102208220222/08/202200000000200000000000000002343KGM  00000002737KGM  7289-5011-30             HOUSING FEMALE ASS'Y     7289501130               0         0         0         0    0    0    00000480000000240000000333000015984000
AE00TI102208220222/08/202200000004900000000000000041880KGM  00000052170KGM  7289-5979-30             HOUSING FEMALE ASS'Y     7289597930               0         0         0         0    0    0    00001234800000025200001346000166204080
AE00TI102208220222/08/202200000000500000000000000005545KGM  00000007608KGM  7289-9553-30             SEALED ASSY FEMALE       7289955330               0         0         0         0    0    0    00001470000000294000000245000036015000
