BI00B32BG    YY2209DGMW     202208257116-4110-02             TERMINAL                 CCN000027000000027000FN00000000020220901000027000NNE   20220822121142    4P0P  00000900000000594000000882232BG    YGYYA   006400630015
BI00B32BG    YY2209DGMW     202208257116-4111-02             TERMINAL                 CCN000052500000052500FN00000000020220901000052500NNE   20220822121142    4P0P  00000750000000529500000817732BG    YGYYA   006400630015
BI00B32BG    YY2210AGMW     202209087114-4112-02             TERMINAL                 CCN000090000000090000FN00000000020221001000090000NNE   20220822121142    4P0P  00000900000000598500000927132BG    YGYYA   006400630017
BI00B32BG    YY2210AGMW     202209087116-4100-02             TERMINAL                 CCN000060000000060000FN00000000020221001000060000NNE   20220822121142    4P0P  00001500000000696000000990232BG    YGYYA   006400630015
BI00B32BG    YY2210AGMW     202209087116-4104-02             TERMINAL                 CCN000060000000060000FN00000000020221001000060000NNE   20220822121142    4P0P  00001200000000580800000972432BG    YGYYA   006400630015
BI00B32BG    YY2210AGMW     202209087116-4112-02             TERMINAL                 CCN000036000000036000FN00000000020221001000036000NNE   20220822121142    4P0P  00000600000000450000000738232BG    YGYYA   006400630015
BI00B32BG    YY2210AGMW     202209087116-4120-02             TERMINAL                 CCN000012000000012000FN00000000020221001000012000NNE   20220822121142    4P0P  00000600000000780000001073632BG    YGYYA   006400630015
BI00B32BG    YY2210AGMW     202209087116-4121-02             TERMINAL                 CCN000045000000045000FN00000000020221001000045000NNE   20220822121142    4P0P  00000450000000618800000912432BG    YGYYA   006400630015
BI00B32BG    YY2210AGMW     202209087116-4122-02             TERMINAL                 CCN000045000000045000FN00000000020221001000045000NNE   20220822121142    4P0P  00000450000000656600000950232BG    YGYYA   006400630015
BI00B32BG    #YY2210AGMW    202209087283-8398-40             CONNECTOR                CCN000003080000003080FN00000000020221001000003080NNE   20220822121142    2N0N  00000154000001007000001171332BG    YGYYA   005600390023
BI00B32BG    YY2210BGMW     202209157116-4121-02             TERMINAL                 CCN000045000000045000FN00000000020221001000045000NNE   20220822121142    4P0P  00000450000000618800000912432BG    YGYYA   006400630015
BI00B32BG    YY2210CGMW     202209157116-4100-02             TERMINAL                 CCN000060000000060000FN00000000020221001000060000NNE   20220822121142    4P0P  00001500000000696000000990232BG    YGYYA   006400630015
BI00B32B1    A22045         202210077157-7925-80             REAR HOLDER              CCN000030000000030000FN00000000020221201000030000NNM   20220822133537B1  1F0F  00003000000000720000000871032B1    AXARNE-M005600390023
BI00B32B1    A22045         202210077282-5553-30             CONNECTOR                CCN000002000000002000FN00000000020221201000002000NNM   20220822133537B1  4N0N  00000100000001010000001187332B1    AXARNE-M005500360039
BI00B32B1    A22045         202210077282-5574-10             CONNECTOR                CCN000000800000000800FN00000000020221201000000800NNM   20220822133537B1  4N0N  00000080000001235000001423032B1    AXARNE-M005600390040
BI00B32B1    A22045         202210077288-3339-30             HOUSING MALE             CCN000001500000001500FN00000000020221201000001500NNM   20220822133537B1  4N0N  00000150000000867000001012032B1    AXARNE-M005400370024
BI00B32B1    #A22045        202210077157-3821                RUBBER STOPPER           CCN000020000000020000FN00000000020221201000020000NNM   20220822133535B1  2C0C  00002000000000176000000238032B1    AXARNE-M002700430014
BI00B32B1    #A22045        202210077283-8226-30             CONNECTOR                CCN000016000000016000FN00000000020221201000016000NNM   20220822133535B1  2N0N  00000200000000820000001008032B1    AXARNE-M005400370024
BI00B32B6    A72045         202210077017-1182-02             TERMINAL                 CCN000045000000045000FN00000000020221201000045000NNM   20220822133718B6  4P0P  00004500000001165500001318632B6    AXARNE-M005100280028
BI00B32B6    A72045         202210077017-1183-02             TERMINAL                 CCN000027000000027000FN00000000020221201000027000NNM   20220822133718B6  4P0P  00002700000001139400001307432B6    AXARNE-M005100280028
BI00B32B7    A82045         202210077158-3166-60             WIRE SEAL                CCN000080000000080000FN00000000020230101000080000NNM   20220822121142B7  1C0C  00004000000000104000000152432B7    AXARNE-M002700430014
BI00B32B7    A82045         202210077158-3169-40             SEALING PLUG             CCN000200000000200000FN00000000020230101000200000NNM   20220822121142B7  1C0C  00004000000000156000000204132B7    AXARNE-M004300260014
BI00B32B7    A82045         202210077282-6448-40             CONNECTOR                CCN000011200000011200FN00000000020230101000011200NNM   20220822121142B7  4N0N  00000080000000887000001152732B7    AXARNE-M005600390040
BI00B32B7    #A82045        202210077135-7031                GROMMET                  CCN000003700000003700FN00000000020230101000003700NNM   20220822121142B7  2H0H  00000010000000634200000744232B7    AXARNE-M005400370024
BI00B32B7    #A82045        202210077283-8397-40             CONNECTOR                CCN000003080000003080FN00000000020230101000003080NNM   20220822121142B7  2N0N  00000154000001007000001222732B7    AXARNE-M005600390023
BI00B32B7    #A82045        202210077283-8398-40             CONNECTOR                CCN000006160000006160FN00000000020230101000006160NNM   20220822121142B7  2N0N  00000154000001007000001171332B7    AXARNE-M005600390023
BI00B32CA    #PTA33021A     202208227189-3032-30             HOUSING FEMALE           CCN000001600000001600FN00000160020220801000000000NNED0020220822153118    2F0F  00000160000000801600001021632CA    YPYPY   005500360039
BI00B32CG    S220636-S      202209027283-9457-3W             CONNECTOR                CCN000006120000006120FN00000000020220901000006120NNED0020220822170235    4N0N  00000012000000515000001067032CG    ASASIACO005600390023
BI00B32CG    S220636-S      202208257283-9458-30             CONNECTOR                CCN000007000000007000FN00000000020220901000007000NNED0020220822170235    4N0N  00000020000000792000000984332CG    ASASIACO005600390023
BI00B32EJ    T220819P01     202209297158-3070-80             RUBBER STOPPER           CCN000080000000080000FN00000000020220901000080000NNE   20220822121142EJ  1C0C  00004000000000276000000333332EJ    EJYKBO  002700430014
BI00B32EJ    T220819P02     202209297158-3070-80             RUBBER STOPPER           CCN000120000000120000FN00000000020220901000120000NNE   20220822121142EJ  1C0C  00004000000000276000000333332EJ    EJYKBO  002700430014
BI00B32EJ    T220819P02     202209297116-4100-02             TERMINAL                 CCN000015000000015000FN00000000020220901000015000NNE   20220822121142EJ  4P0P  00001500000000696000000990232EJ    EJYKBO  006400630015
BI00B32EJ    T220819P02     202209297114-4231-02             TERMINAL                 CCN000036000000036000FN00000000020220901000036000NNE   20220822121142EJ  4P0P  00001800000000554400000848032EJ    EJYKBO  006400630015
BI00B32EJ    #T220819P02    202209297157-3992-90             CONNECTOR SEALED         CCN000040000000040000FN00000000020220901000040000NNE   20220822121142EJ  2C0C  00004000000000300000000363332EJ    EJYKBO  002700430014
BI00B32EJ    #T220819P02    202209297158-3374-90             CONNECTOR WIRE SEAL      CCN000060000000060000FN00000000020220901000060000NNE   20220822121142EJ  2H0H  00002000000000172000000229332EJ    EJYKBO  002700430014
BI00B32EJ    #T220819P03    202209297157-7897-60             SEAL RUBBER              CCN000030000000030000FN00000000020220901000030000NNE   20220822121142EJ  2C0C  00001000000000132000000214732EJ    EJYKBO  002700430014
BI00B32EJ    #T220819P03    202209297158-3120-90             CONNECTOR WIRE SEAL      CCN000040000000040000FN00000000020220901000040000NNE   20220822121142EJ  2C0C  00002000000000136000000194032EJ    EJYKBO  002700430014
BI00B32EJ    T220819P04     202209297158-3166-60             WIRE SEAL                CCN000040000000040000FN00000000020220901000040000NNE   20220822121142EJ  1C0C  00004000000000104000000152432EJ    EJYKBO  002700430014
BI00B32EJ    T220819P04     202209297116-4101-02             TERMINAL                 CCN000024000000024000FN00000000020220901000024000NNE   20220822121142EJ  4P0P  00001200000000582000000876232EJ    EJYKBO  006400630015
BI00B32EJ    T220819P04     202209297116-4103-02             TERMINAL                 CCN000024000000024000FN00000000020220901000024000NNE   20220822121142EJ  4P0P  00001200000000571200000859432EJ    EJYKBO  006400630015
BI00B32EJ    T220819P04     202209297158-3006-90             RUBBER STOPPER           CCN000100000000100000FN00000000020220901000100000NNE   20220822121142EJ  1C0C  00002000000000330600000386032EJ    EJYKBO  002700430014
BI00B32EJ    #T220819P04    202209297123-6423-30             CONNECTOR                CCN000018000000018000FN00000000020220901000018000NNE   20220822121142EJ  2F0F  00000200000001002000001167632EJ    EJYKBO  005600390023
BI00B32EJ    #T220819P04    202209297157-3821                RUBBER STOPPER           CCN000020000000020000FN00000000020220901000020000NNE   20220822121142EJ  2C0C  00002000000000176000000238032EJ    EJYKBO  002700430014
BI00B32EJ    #T220819P04    202209297283-8398-40             CONNECTOR                CCN000010780000010780FN00000000020220901000010780NNE   20220822121142EJ  2N0N  00000154000001007000001171332EJ    EJYKBO  005600390023
BI00B32EJ    T220819P05     202209297114-4100-02             TERMINAL                 CCN000108000000108000FN00000000020220901000108000NNE   20220822121142EJ  4P0P  00001800000000748800001077432EJ    EJYKBO  006400630017
BI00B32EJ    T220819P05     202209297114-4110-02             TERMINAL                 CCN000015000000015000FN00000000020220901000015000NNE   20220822121142EJ  4P0P  00001500000000901500001230132EJ    EJYKBO  006400630017
BI00B32EJ    T220819P05     202209297114-4111-02             TERMINAL                 CCN000048000000048000FN00000000020220901000048000NNE   20220822121142EJ  4P0P  00001200000000758400001087032EJ    EJYKBO  006400630017
BI00B32EJ    T220819P05     202209297116-4121-02             TERMINAL                 CCN000045000000045000FN00000000020220901000045000NNE   20220822121142EJ  4P0P  00000450000000618800000912432EJ    EJYKBO  006400630015
BI00A32J1    #397573        202208297297-2286-30             HOUSING MALE ASS'Y       CCN000002000000002000FN00000000020220801000002000NNED0720220822144329    2N0N  00000200000000691000000776632J1    UKYEL-BL005400370024
BI00B32R7    R-TAP220340    202210067298-1186-40             SQUIB SUB ASS'Y          CCN000180000000180000FN00000000020220901000180000NNED0020220822121142    4N0N  00001000000000650000000774532R7    IVYCIC  005400370024
BI00B32R7    R-TAP220339    202210207298-1186-40             SQUIB SUB ASS'Y          CCN000090000000090000FN00000000020221101000090000NNED0020220822121142    4N0N  00001000000000650000000774532R7    IVYCIC  005400370024
BI00B32U5    DI2045         202210077297-3482                JOINT CONNECTOR          CCN000003600000004000FN00000000020221201000004000NNM   20220822134005U5  4N0N  00000080000000621000000730532U5    AMAMSD  005400370024
BI00B32U5    DI2045         202210077298-3484                HOUSING FEMALE ASS'Y     CCN000004200000005400FN00000000020221201000005400NNM   20220822134005U5  4N0N  00000270000000742500001028732U5    AMAMSD  005400370024
BI00B32U5    DI2045         202210077017-1182-02             TERMINAL                 CCN000045000000045000FN00000000020221201000045000NNM   20220822134005U5  4P0P  00004500000001165500001318632U5    AMAMSD  005100280028
BI00B32U5    DI2045         202210077017-1183-02             TERMINAL                 CCN000027000000027000FN00000000020221201000027000NNM   20220822134005U5  4P0P  00002700000001139400001307432U5    AMAMSD  005100280028
BI00B32U5    DI2045         202210077116-1686-02             TERMINAL                 CCN000042000000042000FN00000000020221201000042000NNM   20220822134005U5  4P0P  00002100000000869400001021632U5    AMAMSD  005100280028
BI00B32U5    DI2045         202210077116-4486-02             TERMINAL                 CCN000084000000084000FN00000000020221201000084000NNM   20220822134005U5  4P0P  00002800000000666400000995132U5    AMAMSD  006400630017
BI00B32U5    DI2045         202210077116-5045-02             TERMINAL                 CCN000512000000512000FN00000000020221201000512000NNM   20220822134005U5  4P0P  00001600000000678400001007132U5    AMAMSD  006400630017
BI00B32U5    DI2045         202210077195-1936-02             TERMINAL MALE            CCN000015000000015000FN00000000020221201000015000NNM   20220822134005U5  4P0P  00001500000000589500000883132U5    AMAMSD  006400630015
BI00B32U5    DI2045         202210077196-0805-02             TERMINAL FEMALE          CCN000022500000022500FN00000000020221201000022500NNM   20220822134005U5  4P0P  00002250000000558000000843232U5    AMAMSD  006400630015
BI00B32U5    DI2045         202210077283-9458-30             CONNECTOR                CCN000004400000004400FN00000000020221201000004400NNM   20220822134005U5  4N0N  00000020000000792000000984332U5    AMAMSD  005600390023
BI00B32U5    DI2045         202210077327-6985-30             MULTI FUSE               CCN000001440000001440FN00000000020221201000001440NNM   20220822134005U5  4N0N  00000028800000886100001052032U5    AMAMSD  005400370024
BI00B32U5    DI2045         202210077327-6990-30             MULTI FUSE               CCN000003360000003360FN00000000020221201000003360NNM   20220822134005U5  4NON  00000056000000724000000907032U5    AMAMSD  005400370024
BI00B32U5    #DI2045        202210077189-3032                HOUSING FEMALE           CCN000006400000006400FN00000000020221201000006400NNM   20220822134003U5  2F0F  00000160000000788400001018432U5    AMAMSD  005500360039
BI00B32U5    #DI2045        202210077287-7859                HYBRID FEMALE ASS'Y      CCN000008400000008400FN00000000020221201000008400NNM   20220822134003U5  2N0N  00000120000000461600000671632U5    AMAMSD  005500360039
BI00B32U5    #DI2045        202210077158-3004-40             RUBBER STOPPER           CCN000060000000060000FN00000000020221201000060000NNM   20220822134003U5  2C0C  00002000000000234000000306332U5    AMAMSD  002700430014
BI00B32U5    #DI2045        202210077158-3007-10             RUBBER STOPPER           CCN000260000000260000FN00000000020221201000260000NNM   20220822134003U5  2H0H  00002000000000308000000362732U5    AMAMSD  002700430014
BI00B32U5    #DI2045        202210077158-3008-80             RUBBER STOPPER           CCN000120000000120000FN00000000020221201000120000NNM   20220822134003U5  2C0C  00002000000000288000000343032U5    AMAMSD  004300270014
BI00B32U5    #DI2045        202210077158-3015-10             RUBBER STOPPER           CCN000020000000020000FN00000000020221201000020000NNM   20220822134003U5  2C0C  00001000000000419500000474032U5    AMAMSD  002700430014
BI00B32U5    #DI2045        202210077158-3376-50             CONNECTOR WIRE SEAL      CCN000120000000120000FN00000000020221201000120000NNM   20220822134003U5  2C0C  00002000000000184000000240732U5    AMAMSD  002700430014
BI00B32U5    #DI2045        202210077172-5627-60             RUBBER STOPPER           CCN000200000000200000FN00000000020221201000200000NNM   20220822134003U5  2H0H  00002000000000070400000121832U5    AMAMSD  004300270014
BI00B32U5    #DI2045        202210077282-6446-40             CONNECTOR                CCN000004500000004500FN00000000020221201000004500NNM   20220822134003U5  2N0N  00000150000001185000001368032U5    AMAMSD  005500360039
BI00B32U5    #DI2045        202210077289-4200-30             HOUSING FEMALE ASS'Y     CCN000028000000028000FN00000000020221201000028000NNM   20220822134003U5  2N0N  00000200000000926000001021032U5    AMAMSD  005400370024
BI00B32U9    TP0414S        202210067298-1187-30             SHUNT RING ASSEMBLY      CCN000030000000030000FN00000000020221101000030000NNE   20220822135857U9  4N0N  00001000000000647000000769532U9    YNYNA-E 005400370024
BI00B32U9    #TP0414S       202210067282-5545-10             CONNECTOR                CCN000000800000000800FN00000000020221101000000800NNE   20220822135855U9  2N0N  00000080000001293600001465332U9    YNYNA-E 005500360039
BI00B32U9    TPA242         202209227114-4032                TERMINAL                 CCN000007500000007500FN00000000020221101000007500NNM   20220822140633U9  4P0P  00000750000000735000001063632U9    YNYNA-E 006400630017
BI00B32U9    TPA242         202209227288-6547                CONNECTOR MALE ASS'Y     CCN000002250000002250FN00000000020221101000002250NNM   20220822140633U9  4N0N  00000075000001205300001340332U9    YNYNA-E 005400370024
BI00B32U9    TPA242         202209227289-6547                HOUSING FEMALE ASS'Y     CCN000002400000002400FN00000000020221101000002400NNM   20220822140633U9  1N0N  00000240000001152000001362032U9    YNYNA-E 005500360039
BI00B32U9    TPA242         202209227114-4231-02             TERMINAL                 CCN000090000000090000FN00000000020221101000090000NNM   20220822140633U9  4P0P  00001800000000554400000848032U9    YNYNA-E 006400630015
BI00B32U9    TPA242         202209227116-1257-02             TERMINAL                 CCN000024000000024000FN00000000020221101000024000NNM   20220822140633U9  4P0P  00002400000000518400000847132U9    YNYNA-E 006400630017
BI00B32U9    TPA242         202209227116-2951-02             TERMINAL                 CCN000108000000108000FN00000000020221101000108000NNM   20220822140633U9  4P0P  00000540000000817600001111832U9    YNYNA-E 006400630015
BI00B32U9    TPA242         202209227116-4231-02             TERMINAL                 CCN000338000000338000FN00000000020221101000338000NNM   20220822140633U9  4P0P  00002600000000683800001012532U9    YNYNA-E 006400630017
BI00B32U9    TPA242         202209227158-3006-90             RUBBER STOPPER           CCN000100000000100000FN00000000020221101000100000NNM   20220822140633U9  1C0C  00002000000000330600000386032U9    YNYNA-E 002700430014
BI00B32U9    TPA242         202209227158-3165-90             WIRE SEAL                CCN000120000000120000FN00000000020221101000120000NNM   20220822140633U9  1C0C  00004000000000124000000172432U9    YNYNA-E 004300270014
BI00B32U9    TPA242         202209227158-3166-60             WIRE SEAL                CCN000200000000200000FN00000000020221101000200000NNM   20220822140633U9  1C0C  00004000000000104000000152432U9    YNYNA-E 002700430014
BI00B32U9    TPA242         202209227158-3168-80             SEALED                   CCN000200000000200000FN00000000020221101000200000NNM   20220822140633U9  1C0C  00002000000000044000000092132U9    YNYNA-E 004300260014
BI00B32U9    TPA242         202209227158-3169-40             SEALING PLUG             CCN000280000000280000FN00000000020221101000280000NNM   20220822140633U9  1C0C  00004000000000156000000204132U9    YNYNA-E 004300260014
BI00B32U9    TPA242         202209227196-0805-02             TERMINAL FEMALE          CCN000045000000045000FN00000000020221101000045000NNM   20220822140633U9  4P0P  00002250000000558000000843232U9    YNYNA-E 006400630015
BI00B32U9    TPA242         202209227222-4220-30             CONNECTOR                CCN000003000000003000FN00000000020221101000003000NNM   20220822140633U9  4N0N  00000075000001219000001384032U9    YNYNA-E 005600390040
BI00B32U9    TPA242         202209227282-5574-10             CONNECTOR                CCN000040000000040000FN00000000020221101000040000NNM   20220822140633U9  4N0N  00000080000001235000001423032U9    YNYNA-E 005600390040
BI00B32U9    TPA242         202209227282-7301-40             CONNECTOR                CCN000003000000003000FN00000000020221101000003000NNM   20220822140633U9  4N0N  00000150000001125000001497932U9    YNYNA-E 005500360039
BI00B32U9    TPA242         202209227283-3698-30             UNSEALED FEMALE          CCN000001540000001540FN00000000020221101000001540NNM   20220822140633U9  4N0N  00000154000000954800001150832U9    YNYNA-E 005400370024
BI00B32U9    TPA242         202209227283-5623-60             CONNECTOR                CCN000003200000003200FN00000000020221101000003200NNM   20220822140633U9  1N0N  00000160000001546000001846332U9    YNYNA-E 005600390040
BI00B32U9    TPA242         202209227283-8599-30             CONNECTOR                CCN000001540000001540FN00000000020221101000001540NNM   20220822140633U9  4N0N  00000154000000947100001157032U9    YNYNA-E 005600390023
BI00B32U9    TPA242         202209227289-4212-80             SEALED HOUSING ASS'Y     CCN000002000000002000FN00000000020221101000002000NNM   20220822140633U9  4N0N  00000200000000848600000978632U9    YNYNA-E 005400370024
BI00B32U9    TPA242         202209227289-6868-30             SEALED ASSY FEMALE       CCN000020160000020160FN00000000020221101000020160NNM   20220822140633U9  4N0N  00000252000000839200001119232U9    YNYNA-E 005500360039
BI00B32U9    TPA242         202209227298-1186-40             SQUIB SUB ASS'Y          CCN000050000000050000FN00000000020221101000050000NNM   20220822140633U9  4N0N  00001000000000650000000774532U9    YNYNA-E 005400370024
BI00B32U9    TPA242         202209227298-1186-70             SQUIB SUB ASS'Y          CCN000020000000020000FN00000000020221101000020000NNM   20220822140633U9  4N0N  00001000000000650000000774532U9    YNYNA-E 005400370024
BI00B32U9    TPA242         202209227298-1187-30             SHUNT RING ASSEMBLY      CCN000010000000010000FN00000000020221101000010000NNM   20220822140633U9  4N0N  00001000000000647000000769532U9    YNYNA-E 005400370024
BI00B32U9    TPA242         202209227298-1149-3W             SQUIB SUB ASS'Y          CCN000010000000010000FN00000000020221101000010000NNM   20220822140633U9  4N0N  00001000000000785000000922032U9    YNYNA-E 005400370024
BI00B32U9    TPA242         202209227B58-3070-80             RUBBER STOPPER           CCN000040000000040000FN00000000020221101000040000NNM   20220822140633U9  1C0C  00004000000000276000000333032U9    YNYNA-E 004300270014
BI00B32U9    #TPA242        202209227147-9094                RETAINER                 CCN000018000000018000FN00000000020221101000018000NNM   20220822140630U9  2F0F  00000300000000717000000872932U9    YNYNA-E 005500360039
BI00B32U9    #TPA242        202209227158-3376-50             CONNECTOR WIRE SEAL      CCN000460000000460000FN00000000020221101000460000NNM   20220822140630U9  2C0C  00002000000000184000000240732U9    YNYNA-E 002700430014
BI00B32U9    #TPA242        202209227282-6446-40             CONNECTOR                CCN000010500000010500FN00000000020221101000010500NNM   20220822140630U9  2N0N  00000150000001185000001368032U9    YNYNA-E 005500360039
BI00B32U9    #TPA242        202209227282-6457-40             CONNECTOR                CCN000003200000003200FN00000000020221101000003200NNM   20220822140630U9  2N0N  00000080000001137000001421332U9    YNYNA-E 005600390040
BI00B32U9    #TPA242        202209227282-8395-40             CONNECTOR                CCN000015000000015000FN00000000020221101000015000NNM   20220822140630U9  2N0N  00000100000001009000001188032U9    YNYNA-E 005500360039
BI00B32U9    #TPA242        202209227B58-3121-80             SEALED CONNECTOR         CCN000060000000060000FN00000000020221101000060000NNM   20220822140630U9  2C0C  00002000000000118000000195032U9    YNYNA-E 004300270014
BI00B32W4    4500192751     202208237289-9553-50             SEALED ASSY FEMALE       CCN000067620000067620FN00000000020220701000067620NNE00020220822153257W4564N0N  00000294000001108100001520632W456  HJYHK   005500360039
BI00B32W4    4500192751     202208237158-3167-80             WIRE SEAL                CCN001000000001000000FN00000000020220701001000000NNE00020220822153257W4561C0C  00002000000000048000000109032W456  HJYHK   002700430014
BI00A32W4    4500197262     202208237158-3167-80             WIRE SEAL                CCN000040000000040000FN00000000020220901000040000NNEM0020220822142120W9151C0C  00002000000000048000000109032W915  HJYHK   002700430014
BI00B32W4    #4500199013    202209087282-1210                CONNECTOR MALE ASS'Y     CCN000001000000001000FN00000000020220901000001000NNE   20220822121142W4162N0N  00000100000000336000000458532W416  HJYHK   005400370024
BI00B32X5    TIB2045        202210077114-6041                TERMINAL                 CCN000003600000003600FN00000000020221201000003600NNM   20220822134224X5  4P0P  00000360000000580700000824232X5    EPYNA-E 006400630015
BI00B32X5    TIB2045        202210077297-3482                JOINT CONNECTOR          CCN000005400000005600FN00000000020221201000005600NNM   20220822134224X5  4N0N  00000080000000621000000730532X5    EPYNA-E 005400370024
BI00B32X5    TIB2045        202210077298-3484                HOUSING FEMALE ASS'Y     CCN000008400000010800FN00000000020221201000010800NNM   20220822134224X5  4N0N  00000270000000742500001028732X5    EPYNA-E 005400370024
BI00B32X5    TIB2045        202210077017-1182-02             TERMINAL                 CCN000045000000045000FN00000000020221201000045000NNM   20220822134224X5  4P0P  00004500000001165500001318632X5    EPYNA-E 005100280028
BI00B32X5    TIB2045        202210077116-1257-02             TERMINAL                 CCN000024000000024000FN00000000020221201000024000NNM   20220822134224X5  4P0P  00002400000000518400000847132X5    EPYNA-E 006400630017
BI00B32X5    TIB2045        202210077116-2951-02             TERMINAL                 CCN000016200000016200FN00000000020221201000016200NNM   20220822134224X5  4P0P  00000540000000817600001111832X5    EPYNA-E 006400630015
BI00B32X5    TIB2045        202210077282-5574-10             CONNECTOR                CCN000020800000020800FN00000000020221201000020800NNM   20220822134224X5  4N0N  00000080000001235000001423032X5    EPYNA-E 005600390040
BI00B32X5    TIB2045        202210077288-6598-70             HOUSING MALE ASS'Y       CCN000005760000005760FN00000000020221201000005760NNM   20220822134224X5  4N0N  00000144000001074200001429232X5    EPYNA-E 005500360039
BI00B32X5    TIB2045        202210077C89-6868-30             SEALED ASSY FEMALE       CCN000007560000007560FN00000000020221201000007560NNM   20220822134224X5  4N0N  00000252000000839200001119232X5    EPYNA-E 005500360039
BI00B32X5    #TIB2045       202210077147-9094                RETAINER                 CCN000003000000003000FN00000000020221201000003000NNM   20220822134219X5  2F0F  00000300000000717000000872932X5    EPYNA-E 005500360039
BI00B32X5    #TIB2045       202210077198-2458                HOUSING FEMALE           CCN000001760000001760FN00000000020221201000001760NNM   20220822134219X5  2F0F  00000176000000869100001160532X5    EPYNA-E 005400370024
BI00B32X5    #TIB2045       202210077154-3424-30             REAR HOLDER              CCN000009000000009000FN00000000020221201000009000NNM   20220822134219X5  2F0F  00000300000000975000001138632X5    EPYNA-E 005500360039
BI00B32X5    #TIB2045       202210077158-3004-40             RUBBER STOPPER           CCN000280000000280000FN00000000020221201000280000NNM   20220822134219X5  2C0C  00002000000000234000000306332X5    EPYNA-E 002700430014
BI00B32X5    #TIB2045       202210077158-3015-10             RUBBER STOPPER           CCN000050000000050000FN00000000020221201000050000NNM   20220822134219X5  2C0C  00001000000000419500000474032X5    EPYNA-E 002700430014
BI00B32X5    #TIB2045       202210077183-8253-40             HOUSING                  CCN000002400000002400FN00000000020221201000002400NNM   20220822134219X5  2F0F  00000240000000528000000805032X5    EPYNA-E 005500360039
BI00B32X5    #TIB2045       202210077198-1371-60             HOUSING FEMALE           CCN000004000000004000FN00000000020221201000004000NNM   20220822134219X5  2F0F  00000200000000597800000721232X5    EPYNA-E 005400370024
BI00B32X5    #TIB2045       202210077198-1373-60             HOUSING FEMALE           CCN000004000000004000FN00000000020221201000004000NNM   20220822134219X5  2F0F  00000200000000819400000947432X5    EPYNA-E 005400370024
BI00B32X5    #TIB2045       202210077282-8395-40             CONNECTOR                CCN000011000000011000FN00000000020221201000011000NNM   20220822134219X5  2N0N  00000100000001009000001188032X5    EPYNA-E 005500360039
BI00B32X5    #TIB2045       202210077283-8397-40             CONNECTOR                CCN000001540000001540FN00000000020221201000001540NNM   20220822134219X5  2N0N  00000154000001007000001222732X5    EPYNA-E 005600390023
