AE00TI102209040104/09/202200000003000000000000000015390KGM  00000023946KGM  7116-4020                TERMINAL                 71164020                 0         0         0         0    0    0    00040500000001350000000028000113400000
AE00TI102209040104/09/202200000000900000000000000005337KGM  00000007931KGM  7116-4115-02             TERMINAL                 7116411502               0         0         0         0    0    0    00007560000000840000000066000049896000
AE00TI102209040104/09/202200000001400000000000000002387KGM  00000003065KGM  7137-3047-30             UNIT PACKING             7137304730               0         0         0         0    0    0    00001400000000100000000189000026460000
AE00TI102209040104/09/202200000003900000000000000012893KGM  00000015054KGM  7158-3006-90             RUBBER STOPPER           7158300690               0         0         0         0    0    0    00078000000002000000000016000124800000
AE00TI102209040104/09/202200000003500000000000000011830KGM  00000013517KGM  7158-3009-60             RUBBER STOPPER           7158300960               0         0         0         0    0    0    00070000000002000000000012000084000000
AE00TI102209040104/09/202200000002800000000000000013090KGM  00000014672KGM  7158-3022-80             RUBBER STOPPER           7158302280               0         0         0         0    0    0    00014000000000500000000070000098000000
AE00TI102209040104/09/202200000001300000000000000001612KGM  00000002241KGM  7158-3165-90             WIRE SEAL                7158316590               0         0         0         0    0    0    00052000000004000000000006000031200000
AE00TI102209040104/09/202200000002500000000000000002600KGM  00000003810KGM  7158-3166-60             WIRE SEAL                7158316660               0         0         0         0    0    0    00100000000004000000000004000040000000
AE00TI102209040104/09/202200000006900000000000000003312KGM  00000007521KGM  7158-3167-80             WIRE SEAL                7158316780               0         0         0         0    0    0    00138000000002000000000005000069000000
AE00TI102209040104/09/202200000000100000000000000000044KGM  00000000092KGM  7158-3168-80             SEALED                   7158316880               0         0         0         0    0    0    00002000000002000000000004000000800000
AE00TI102209040104/09/202200000000300000000000000000468KGM  00000000612KGM  7158-3169-40             SEALING PLUG             7158316940               0         0         0         0    0    0    00012000000004000000000006000007200000
AE00TI102209040104/09/202200000001300000000000000008497KGM  00000009122KGM  7172-5403-30             SEALED PACKING           7172540330               0         0         0         0    0    0    00005200000000400000000119000061880000
AE00TI102209040104/09/202200000000100000000000000001234KGM  00000001446KGM  7287-7599                HOUSING FEMALE ASS'Y     72877599                 0         0         0         0    0    0    00000160000000160000000350000005600000
AE00TI102209040104/09/202200000000200000000000000001732KGM  00000002022KGM  7288-3331-30             HOUSING MALE             7288333130               0         0         0         0    0    0    00000300000000150000000354000010620000
AE00TI102209040104/09/202200000000700000000000000006025KGM  00000007040KGM  7288-3332-30             HOUSING MALE             7288333230               0         0         0         0    0    0    00001050000000150000000354000037170000
AE00TI102209040104/09/202200000000400000000000000003468KGM  00000004048KGM  7288-3334-30             HOUSING MALE             7288333430               0         0         0         0    0    0    00000600000000150000000354000021240000
AE00TI102209040104/09/202200000001200000000000000010393KGM  00000012144KGM  7288-3338-30             HOUSING MALE             7288333830               0         0         0         0    0    0    00001800000000150000000354000063720000
AE00TI102209040104/09/202200000003500000000000000024024KGM  00000031549KGM  7289-3342-30             HOUSING FEMALE ASS'Y     7289334230               0         0         0         0    0    0    00008400000000240000000191000160440000
AE00TI102209040104/09/202200000000400000000000000003357KGM  00000004477KGM  7289-6868-30             SEALED ASSY FEMALE       7289686830               0         0         0         0    0    0    00001008000000252000000332000033465600
AE00TI102209040104/09/202200000000300000000000000003327KGM  00000004565KGM  7289-9553-30             SEALED ASSY FEMALE       7289955330               0         0         0         0    0    0    00000882000000294000000245000021609000
AE00TI102209040104/09/202200000001000000000000000011081KGM  00000015206KGM  7289-9553-50             SEALED ASSY FEMALE       7289955350               0         0         0         0    0    0    00002940000000294000000252000074088000
AE00TI102209040104/09/202200000001700000000000000017054KGM  00000020477KGM  7298-1865-30             HOUSING FEMALE ASS'Y     7298186530               0         0         0         0    0    0    00004080000000240000000196000079968000
AE00TI102209040104/09/202200000000300000000000000002985KGM  00000003375KGM  7388-0313-30             CONNECTOR ASS'Y          7388031330               0         0         0         0    0    0    00000360000000120000000376000013536000
AE00TI102209040104/09/202200000005500000000000000040810KGM  00000061710KGM  7388-2978-30             HOUSING MALE ASS'Y       7388297830               0         0         0         0    0    0    00002640000000048000001790000472560000
