AE00TI102209040204/09/202200000004000000000000000009592KGM  00000019592KGM  7271-1820-30             CASE SUB ASSY,ECU        7271182030               0         0         0         0    0    0    00000072000000001800009576000068947200
AE00TI102209040204/09/202200000000100000000000000000866KGM  00000001011KGM  7288-3329-30             HOUSING MALE             7288332930               0         0         0         0    0    0    00000150000000150000000354000005310000
AE00TI102209040204/09/202200000001100000000000000009526KGM  00000011120KGM  7288-3331-30             HOUSING MALE             7288333130               0         0         0         0    0    0    00001650000000150000000354000058410000
AE00TI102209040204/09/202200000000900000000000000007746KGM  00000009051KGM  7288-3332-30             HOUSING MALE             7288333230               0         0         0         0    0    0    00001350000000150000000354000047790000
AE00TI102209040204/09/202200000000100000000000000000867KGM  00000001012KGM  7288-3335-30             HOUSING MALE             7288333530               0         0         0         0    0    0    00000150000000150000000354000005310000
AE00TI102209040204/09/202200000000300000000000000002598KGM  00000003036KGM  7288-3338-30             HOUSING MALE             7288333830               0         0         0         0    0    0    00000450000000150000000354000015930000
AE00TI102209040204/09/202200000000600000000000000005202KGM  00000006072KGM  7288-3339-30             HOUSING MALE             7288333930               0         0         0         0    0    0    00000900000000150000000354000031860000
AE00TI102209040204/09/202200000000200000000000000001723KGM  00000002013KGM  7288-3340-30             HOUSING MALE             7288334030               0         0         0         0    0    0    00000300000000150000000354000010620000
AE00TI102209040204/09/202200000000200000000000000001678KGM  00000002238KGM  7289-6868-30             SEALED ASSY FEMALE       7289686830               0         0         0         0    0    0    00000504000000252000000332000016732800
AE00TI102209040204/09/202200000001500000000000000015048KGM  00000018068KGM  7298-1865-30             HOUSING FEMALE ASS'Y     7298186530               0         0         0         0    0    0    00003600000000240000000196000070560000
AE00TI102209040204/09/202200000005700000000000000042294KGM  00000063954KGM  7388-2978-30             HOUSING MALE ASS'Y       7388297830               0         0         0         0    0    0    00002736000000048000001790000489744000
