AE00TI102208260226/08/202200000001100000000000000001876KGM  00000002408KGM  7137-3047-30             UNIT PACKING             7137304730               0         0         0         0    0    0    00001100000000100000000189000020790000
AE00TI102208260226/08/202200000009000000000000000008955KGM  00000022455KGM  7140-1977-30             UPPER COVER              7140197730               0         0         0         0    0    0    00000090000000001000002698000024282000
AE00TI102208260226/08/202200000000600000000000000003252KGM  00000004328KGM  7147-3642-30             CLIP                     7147364230               0         0         0         0    0    0    00001800000000300000000074000013320000
AE00TI102208260226/08/202200000000400000000000000003308KGM  00000004408KGM  7154-5712-30             CASSETTE R/B             7154571230               0         0         0         0    0    0    00000320000000080000000288000009216000
AE00TI102208260226/08/202200000002400000000000000007934KGM  00000009264KGM  7158-3006-90             RUBBER STOPPER           7158300690               0         0         0         0    0    0    00048000000002000000000016000076800000
AE00TI102208260226/08/202200000002100000000000000007098KGM  00000008110KGM  7158-3009-60             RUBBER STOPPER           7158300960               0         0         0         0    0    0    00042000000002000000000012000050400000
AE00TI102208260226/08/202200000000400000000000000001104KGM  00000001333KGM  7158-3070-80             RUBBER STOPPER           7158307080               0         0         0         0    0    0    00016000000004000000000008000012800000
AE00TI102208260226/08/202200000002400000000000000002496KGM  00000003658KGM  7158-3166-60             WIRE SEAL                7158316660               0         0         0         0    0    0    00096000000004000000000004000038400000
AE00TI102208260226/08/202200000003200000000000000001536KGM  00000003488KGM  7158-3167-80             WIRE SEAL                7158316780               0         0         0         0    0    0    00064000000002000000000005000032000000
AE00TI102208260226/08/202200000001300000000000000000572KGM  00000001197KGM  7158-3168-80             SEALED                   7158316880               0         0         0         0    0    0    00026000000002000000000004000010400000
AE00TI102208260226/08/202200000004400000000000000058920KGM  00000065520KGM  7171-6291                HOUSING MALE             71716291                 0         0         0         0    0    0    00000844800000019200001625000137280000
AE00TI102208260226/08/202200000001500000000000000011432KGM  00000014705KGM  7171-6292                HOUSING                  71716292                 0         0         0         0    0    0    00000270000000018000001240000033480000
AE00TI102208260226/08/202200000000500000000000000003268KGM  00000003509KGM  7172-5403-30             SEALED PACKING           7172540330               0         0         0         0    0    0    00002000000000400000000119000023800000
AE00TI102208260226/08/202200000000900000000000000001674KGM  00000002110KGM  7172-5540-80             SEALED WIRE SEAL         7172554080               0         0         0         0    0    0    00018000000002000000000010000018000000
AE00TI102208260226/08/202200000000100000000000000001282KGM  00000001477KGM  7182-4941                DOUBLE SIDED             71824941                 0         0         0         0    0    0    00000100000000100000000816000008160000
AE00TI102208260226/08/202200000000100000000000000000951KGM  00000001230KGM  7183-0522                HOUSING                  71830522                 0         0         0         0    0    0    00000240000000240000000113000002712000
AE00TI102208260226/08/202200000000200000000000000002118KGM  00000002491KGM  7183-2412                HOUSING                  71832412                 0         0         0         0    0    0    00000320000000160000000155000004960000
AE00TI102208260226/08/202200000000100000000000000000779KGM  00000001061KGM  7183-2414                CONNECTOR HOUSING        71832414                 0         0         0         0    0    0    00000480000000480000000050000002400000
AE00TI102208260226/08/202200000000100000000000000000917KGM  00000001477KGM  7183-2418                CONNECTOR HOUSING        71832418                 0         0         0         0    0    0    00000480000000480000000078000003744000
AE00TI102208260226/08/202200000000100000000000000001065KGM  00000001352KGM  7183-2419-30             HOUSING                  7183241930               0         0         0         0    0    0    00000480000000480000000093000004464000
AE00TI102208260226/08/202200000000700000000000000005746KGM  00000007725KGM  7183-6320                HOUSING                  71836320                 0         0         0         0    0    0    00003360000000480000000092000030912000
AE00TI102208260226/08/202200000000100000000000000000819KGM  00000001102KGM  7183-6320-30             HOUSING                  7183632030               0         0         0         0    0    0    00000480000000480000000114000005472000
AE00TI102208260226/08/202200000000600000000000000003822KGM  00000004692KGM  7188-9508-40             HLC HOUSING MALE         7188950840               0         0         0         0    0    0    00001200000000200000000240000028800000
AE00TI102208260226/08/202200000000500000000000000003131KGM  00000003856KGM  7188-9509                HLC HOUSING MALE         71889509                 0         0         0         0    0    0    00001000000000200000000231000023100000
AE00TI102208260226/08/202200000000300000000000000001893KGM  00000002328KGM  7188-9510-30             HLC HOUSING MALE         7188951030               0         0         0         0    0    0    00000600000000200000000238000014280000
AE00TI102208260226/08/202200000000600000000000000003763KGM  00000004633KGM  7188-9511-80             HLC HOUSING MALE         7188951180               0         0         0         0    0    0    00001200000000200000000245000029400000
AE00TI102208260226/08/202200000000200000000000000001256KGM  00000001546KGM  7188-9512-10             HLC HOUSING MALE         7188951210               0         0         0         0    0    0    00000400000000200000000242000009680000
AE00TI102208260226/08/202200000000500000000000000003893KGM  00000004618KGM  7188-9514-90             HLC HOUSING MALE         7188951490               0         0         0         0    0    0    00001000000000200000000275000027500000
AE00TI102208260226/08/202200000000200000000000000001158KGM  00000001372KGM  7189-9516-40             HOUSING                  7189951640               0         0         0         0    0    0    00000400000000200000000238000009520000
AE00TI102208260226/08/202200000000200000000000000001153KGM  00000001367KGM  7189-9517                HOUSING                  71899517                 0         0         0         0    0    0    00000400000000200000000228000009120000
AE00TI102208260226/08/202200000000200000000000000001167KGM  00000001381KGM  7189-9518-30             HOUSING                  7189951830               0         0         0         0    0    0    00000400000000200000000236000009440000
AE00TI102208260226/08/202200000000200000000000000001159KGM  00000001373KGM  7189-9519-80             HOUSING                  7189951980               0         0         0         0    0    0    00000400000000200000000243000009720000
AE00TI102208260226/08/202200000000200000000000000002060KGM  00000002352KGM  7222-7484-40             CONNECTOR                7222748440               0         0         0         0    0    0    00000200000000100000000758000015160000
AE00TI102208260226/08/202200000000400000000000000003360KGM  00000004197KGM  7283-1020                CONNECTOR                72831020                 0         0         0         0    0    0    00002400000000600000000216000051840000
AE00TI102208260226/08/202200000000100000000000000001160KGM  00000001341KGM  7283-1485                CONNECTOR                72831485                 0         0         0         0    0    0    00000200000000200000000366000007320000
AE00TI102208260226/08/202200000000100000000000000001140KGM  00000001318KGM  7283-1968-30             CONNECTOR                7283196830               0         0         0         0    0    0    00000090000000090000000687000006183000
AE00TI102208260226/08/202200000000200000000000000002904KGM  00000003363KGM  7283-7028-30             CONNECTOR                7283702830               0         0         0         0    0    0    00000600000000300000000520000031200000
AE00TI102208260226/08/202200000000100000000000000000380KGM  00000000532KGM  7283-8123                CONNECTOR HOUSING        72838123                 0         0         0         0    0    0    00000400000000400000000138000005520000
AE00TI102208260226/08/202200000001300000000000000011098KGM  00000013588KGM  7287-9155                HOUSING FEMALE ASS'Y     72879155                 0         0         0         0    0    0    00001248000000096000000357000044553600
AE00TI102208260226/08/202200000001900000000000000000000KGM  00000000000KGM  7470-5300E               J/B COMPLETE ASS'Y       74705300E                0         0         0         0    0    0    00000019000000001000000000000000000000
AE00TI102208260226/08/202200000001500000000000000000000KGM  00000000000KGM  7470-5784D               J/B COMPLETE ASS'Y       74705784D                0         0         0         0    0    0    00000022500000001500000000000000000000
