AE00TI102208260526/08/202200000002400000000000000017971KGM  00000025858KGM  7114-4100-02             TERMINAL                 7114410002               0         0         0         0    0    0    00043200000001800000000034000146880000
AE00TI102208260526/08/202200000005600000000000000033516KGM  00000051918KGM  7114-4112-02             TERMINAL                 7114411202               0         0         0         0    0    0    00050400000000900000000051000257040000
AE00TI102208260526/08/202200000001600000000000000009264KGM  00000013875KGM  7116-1471                TERMINAL                 71161471                 0         0         0         0    0    0    00024000000001500000000034000081600000
AE00TI102208260526/08/202200000001900000000000000003519KGM  00000004438KGM  7137-3001-30             COVER PACKING            7137300130               0         0         0         0    0    0    00000950000000050000000340000032300000
AE00TI102208260526/08/202200000002400000000000000007934KGM  00000009264KGM  7158-3006-90             RUBBER STOPPER           7158300690               0         0         0         0    0    0    00048000000002000000000016000076800000
AE00TI102208260526/08/202200000001700000000000000005746KGM  00000006565KGM  7158-3009-60             RUBBER STOPPER           7158300960               0         0         0         0    0    0    00034000000002000000000012000040800000
AE00TI102208260526/08/202200000000400000000000000001104KGM  00000001333KGM  7158-3070-80             RUBBER STOPPER           7158307080               0         0         0         0    0    0    00016000000004000000000008000012800000
AE00TI102208260526/08/202200000001700000000000000001768KGM  00000002591KGM  7158-3166-60             WIRE SEAL                7158316660               0         0         0         0    0    0    00068000000004000000000004000027200000
AE00TI102208260526/08/202200000002900000000000000001392KGM  00000003161KGM  7158-3167-80             WIRE SEAL                7158316780               0         0         0         0    0    0    00058000000002000000000005000029000000
AE00TI102208260526/08/202200000001300000000000000000572KGM  00000001197KGM  7158-3168-80             SEALED                   7158316880               0         0         0         0    0    0    00026000000002000000000004000010400000
AE00TI102208260526/08/202200000001000000000000000001560KGM  00000002041KGM  7158-3169-40             SEALING PLUG             7158316940               0         0         0         0    0    0    00040000000004000000000006000024000000
AE00TI102208260526/08/202200000001000000000000000001860KGM  00000002344KGM  7172-5540-80             SEALED WIRE SEAL         7172554080               0         0         0         0    0    0    00020000000002000000000010000020000000
AE00TI102208260526/08/202200000000000000000000000000000KGM  00000000000KGM  7196-1938-02             TERMINAL FEMALE          7196193802               0         0         0         0    0    0    00000440000001350000000027000001188000
AE00TI102208260526/08/202200000002300000000000000017066KGM  00000025806KGM  7388-2978-30             HOUSING MALE ASS'Y       7388297830               0         0         0         0    0    0    00001104000000048000001790000197616000
AE00TI102208260526/08/202200000001800000000000000023760KGM  00000028260KGM  7470-3082                J/B COMPLETE ASS'Y       74703082                 0         0         0         0    0    0    00000043200000002400031298000135207360
AE00TI102208260526/08/202200000000500000000000000000000KGM  00000000000KGM  7470-5308E               J/B COMPLETE ASS'Y       74705308E                0         0         0         0    0    0    00000005000000001000000000000000000000
AE00TI102208260526/08/202200000004000000000000000000000KGM  00000000000KGM  7470-5783E               J/B COMPLETE ASS'Y       74705783E                0         0         0         0    0    0    00000040000000001000000000000000000000
AE00TI102208260526/08/202200000000600000000000000000000KGM  00000000000KGM  7470-5784E               J/B COMPLETE ASS'Y       74705784E                0         0         0         0    0    0    00000006000000001000000000000000000000
AE00TI102208260526/08/202200000001800000000000000000000KGM  00000000000KGM  7470-5823E               J/B COMPLETE ASS'Y       74705823E                0         0         0         0    0    0    00000018000000001000000000000000000000
