AE00TI102208260126/08/202200000000200000000000000001788KGM  00000002370KGM  7287-9234                JOINT CONNECTOR          72879234                 0         0         0         0    0    0    00001920000000960000000137000026304000
AE00TI102208260126/08/202200000000100000000000000000866KGM  00000001011KGM  7288-3331-30             HOUSING MALE             7288333130               0         0         0         0    0    0    00000150000000150000000354000005310000
AE00TI102208260126/08/202200000000100000000000000000861KGM  00000001006KGM  7288-3332-30             HOUSING MALE             7288333230               0         0         0         0    0    0    00000150000000150000000354000005310000
AE00TI102208260126/08/202200000001100000000000000009537KGM  00000011132KGM  7288-3335-30             HOUSING MALE             7288333530               0         0         0         0    0    0    00001650000000150000000354000058410000
AE00TI102208260126/08/202200000000700000000000000006063KGM  00000007084KGM  7288-3338-30             HOUSING MALE             7288333830               0         0         0         0    0    0    00001050000000150000000354000037170000
AE00TI102208260126/08/202200000001300000000000000008923KGM  00000011718KGM  7289-3342-30             HOUSING FEMALE ASS'Y     7289334230               0         0         0         0    0    0    00003120000000240000000191000059592000
AE00TI102208260126/08/202200000000500000000000000005859KGM  00000006843KGM  7289-5011-30             HOUSING FEMALE ASS'Y     7289501130               0         0         0         0    0    0    00001200000000240000000333000039960000
AE00TI102208260126/08/202200000000200000000000000001658KGM  00000002098KGM  7289-6518-30             HOUSING FEMALE ASS'Y     7289651830               0         0         0         0    0    0    00000240000000120000000598000014352000
AE00TI102208260126/08/202200000000500000000000000004975KGM  00000005625KGM  7388-0313-30             CONNECTOR ASS'Y          7388031330               0         0         0         0    0    0    00000600000000120000000376000022560000
AE00TI102208260126/08/202200000000100000000000000000000KGM  00000000000KGM  7470-4816E               J/B COMPLETE ASS'Y       74704816E                0         0         0         0    0    0    00000001000000001000000000000000000000
AE00TI102208260126/08/202200000001500000000000000000000KGM  00000000000KGM  7470-4818D               J/B COMPLETE ASS'Y       74704818D                0         0         0         0    0    0    00000022500000001500000000000000000000
AE00TI102208260126/08/202200000003000000000000000000000KGM  00000000000KGM  7470-5308E               J/B COMPLETE ASS'Y       74705308E                0         0         0         0    0    0    00000030000000001000000000000000000000
AE00TI102208260126/08/202200000003500000000000000000000KGM  00000000000KGM  7470-5784D               J/B COMPLETE ASS'Y       74705784D                0         0         0         0    0    0    00000052500000001500000000000000000000
AE00TI102208260126/08/202200000005500000000000000000000KGM  00000000000KGM  7470-5784E               J/B COMPLETE ASS'Y       74705784E                0         0         0         0    0    0    00000055000000001000000000000000000000
AE00TI102208260126/08/202200000002500000000000000000000KGM  00000000000KGM  7470-5791D               J/B COMPLETE ASS'Y       74705791D                0         0         0         0    0    0    00000037500000001500000000000000000000
AE00TI102208260126/08/202200000000600000000000000000000KGM  00000000000KGM  7470-5791E               J/B COMPLETE ASS'Y       74705791E                0         0         0         0    0    0    00000006000000001000000000000000000000
