AE00TO202208260226/08/202200000007800000000000000081636KGM  00000085450KGM  18000004590              AV 8 L                   AV 8 L                   0         0         0         0    0    0    00000000000078000000000213300016637400
AE00TO202208260226/08/202200000001000000000000000011112KGM  00000011601KGM  18007704140              AVSS 125F W              AVSS 125F W              0         0         0         0    0    0    00000000000080000000000035000002800000
AE00TO202208260226/08/202200000003400000000000000037781KGM  00000039443KGM  18007704150              AVSS 125F R              AVSS 125F R              0         0         0         0    0    0    00000000000272000000000035000009520000
AE00TO202208260226/08/202200000003100000000000000034447KGM  00000035963KGM  18007704152              AVSS 125F P              AVSS 125F P              0         0         0         0    0    0    00000000000248000000000035000008680000
AE00TO202208260226/08/202200000001500000000000000016668KGM  00000017401KGM  18007704160              AVSS 125F G              AVSS 125F G              0         0         0         0    0    0    00000000000120000000000035000004200000
AE00TO202208260226/08/202200000007000000000000000083734KGM  00000087156KGM  18009604430              AVS 5 B                  AVS 5 B                  0         0         0         0    0    0    00000000000140000000000139000019460000
AE00TO202208260226/08/202200000002000000000000000023924KGM  00000024902KGM  18009604443              AVS 5 W/B                AVS 5 W/B                0         0         0         0    0    0    00000000000040000000000139000005560000
AE00TO202208260226/08/202200000005400000000000000052110KGM  00000054750KGM  18018404030              CAVS 085 B               CAVS 085 B               0         0         0         0    0    0    00000000000540000000000022900012366000
AE00TO202208260226/08/202200000004500000000000000043425KGM  00000045625KGM  18018404041              CAVS 085 GY              CAVS 085 GY              0         0         0         0    0    0    00000000000450000000000022900010305000
AE00TO202208260226/08/202200000003600000000000000034740KGM  00000036500KGM  18018404051              CAVS 085 O               CAVS 085 O               0         0         0         0    0    0    00000000000360000000000022900008244000
AE00TO202208260226/08/202200000001300000000000000014690KGM  00000015326KGM  1801W006930              IVSSH 035F B             IVSSH 035F B             0         0         0         0    0    0    00000000000325000000000011500003737500
AE00TO202208260226/08/202200000000400000000000000004520KGM  00000004716KGM  1801W006941              IVSSH 035F GY            IVSSH 035F GY            0         0         0         0    0    0    00000000000100000000000011500001150000
AE00TO202208260226/08/202200000009000000000000000101700KGM  00000106100KGM  1801W006961              IVSSH 035F LG            IVSSH 035F LG            0         0         0         0    0    0    00000000002250000000000011500025875000
AE00TO202208260226/08/202200000001400000000000000015820KGM  00000016504KGM  1801W006980              IVSSH 035F BR            IVSSH 035F BR            0         0         0         0    0    0    00000000000350000000000011500004025000
AE00TO202208260226/08/202200000004500000000000000050850KGM  00000053050KGM  1801W006991              IVSSH 035F SB            IVSSH 035F SB            0         0         0         0    0    0    00000000001125000000000011500012937500
AE00TO202208260226/08/202200000001800000000000000020340KGM  00000021220KGM  1801W006992              IVSSH 035F V             IVSSH 035F V             0         0         0         0    0    0    00000000000450000000000011500005175000
AE00TO202208260226/08/202200000001200000000000000013997KGM  00000014584KGM  180D0204130              AVSSH 125F B             AVSSH 125F B             0         0         0         0    0    0    00000000000096000000000036000003456000
AE00TO202208260226/08/202200000001900000000000000022161KGM  00000023091KGM  180D0204140              AVSSH 125F W             AVSSH 125F W             0         0         0         0    0    0    00000000000152000000000036000005472000
AE00TO202208260226/08/202200000001500000000000000017496KGM  00000018229KGM  180D0204143              AVSSH 125F W/B           AVSSH 125F W/B           0         0         0         0    0    0    00000000000120000000000036000004320000
AE00TO202208260226/08/202200000003700000000000000043157KGM  00000044965KGM  180D0204150              AVSSH 125F R             AVSSH 125F R             0         0         0         0    0    0    00000000000296000000000036000010656000
AE00TO202208260226/08/202200000002400000000000000027994KGM  00000029167KGM  180D0204160              AVSSH 125F G             AVSSH 125F G             0         0         0         0    0    0    00000000000192000000000036000006912000
AE00TO202208260226/08/202200000000900000000000000010498KGM  00000010938KGM  180D0204170              AVSSH 125F Y             AVSSH 125F Y             0         0         0         0    0    0    00000000000072000000000036000002592000
AE00TO202208260226/08/202200000001100000000000000012830KGM  00000013368KGM  180D0204180              AVSSH 125F BR            AVSSH 125F BR            0         0         0         0    0    0    00000000000088000000000036000003168000
AE00TO202208260226/08/202200000005300000000000000061819KGM  00000064411KGM  180D0204190              AVSSH 125F L             AVSSH 125F L             0         0         0         0    0    0    00000000000424000000000036000015264000
AE00TO202208260226/08/202200000000300000000000000002411KGM  00000002557KGM  181AD2010ZZ              CIVUSAS-S 05X4 B         CIVUSAS-S 05X4 B         0         0         0         0    0    0    00000000000007500000000084400000633000
AE00TO202208260226/08/202200000000400000000000000003484KGM  00000003679KGM  181B32102S1              AVSSCS 05FX2 DGY         AVSSCS 05FX2 DGY         0         0         0         0    0    0    00000000000012000000000076200000914400
AE00TO202208260226/08/202200000000100000000000000000871KGM  00000000920KGM  181B32102Y5              AVSSCS 05FX2 DGY/W       AVSSCS 05FX2 DGY/W       0         0         0         0    0    0    00000000000003000000000076200000228600
AE00TO202208260226/08/202200000004500000000000000031728KGM  00000033928KGM  181CQ7004ZZ              IVSSHCS-S 05FX2 B(R,G)   IVSSHCS-S 05FX2 B(R,G)   0         0         0         0    0    0    00000000000135000000000073000009855000
