AE00TO202208260426/08/202200000011400000000000000119315KGM  00000124887KGM  18000004540              AV 8 W                   AV 8 W                   0         0         0         0    0    0    00000000000114000000000213300024316200
AE00TO202208260426/08/202200000002600000000000000027212KGM  00000028484KGM  18000004560              AV 8 G                   AV 8 G                   0         0         0         0    0    0    00000000000026000000000213300005545800
AE00TO202208260426/08/202200000000800000000000000008373KGM  00000008765KGM  18000004580              AV 8 BR                  AV 8 BR                  0         0         0         0    0    0    00000000000008000000000213300001706400
AE00TO202208260426/08/202200000020900000000000000218744KGM  00000228962KGM  18000004590              AV 8 L                   AV 8 L                   0         0         0         0    0    0    00000000000209000000000213300044579700
AE00TO202208260426/08/202200000000300000000000000002709KGM  00000002856KGM  18001403930              AV 05F B                 AV 05F B                 0         0         0         0    0    0    00000000000030000000000017200000516000
AE00TO202208260426/08/202200000000300000000000000002709KGM  00000002856KGM  18001403946              AV 05F W/G               AV 05F W/G               0         0         0         0    0    0    00000000000030000000000017200000516000
AE00TO202208260426/08/202200000000200000000000000001806KGM  00000001904KGM  18001403960              AV 05F G                 AV 05F G                 0         0         0         0    0    0    00000000000020000000000017200000344000
AE00TO202208260426/08/202200000000100000000000000001011KGM  00000001060KGM  18007703997              AVSS 05F L/Y             AVSS 05F L/Y             0         0         0         0    0    0    00000000000015000000000015800000237000
AE00TO202208260426/08/202200000000100000000000000001011KGM  00000001060KGM  180077039H7              AVSS 05F GY/W            AVSS 05F GY/W            0         0         0         0    0    0    00000000000015000000000015800000237000
AE00TO202208260426/08/202200000001800000000000000020002KGM  00000020882KGM  18007704160              AVSS 125F G              AVSS 125F G              0         0         0         0    0    0    00000000000144000000000035000005040000
AE00TO202208260426/08/202200000002700000000000000030002KGM  00000031322KGM  18007704180              AVSS 125F BR             AVSS 125F BR             0         0         0         0    0    0    00000000000216000000000035000007560000
AE00TO202208260426/08/202200000000100000000000000000942KGM  00000000991KGM  18018403740              CAVS 03 W                CAVS 03 W                0         0         0         0    0    0    00000000000020000000000010400000208000
AE00TO202208260426/08/202200000001100000000000000010615KGM  00000011153KGM  18018404030              CAVS 085 B               CAVS 085 B               0         0         0         0    0    0    00000000000110000000000022900002519000
AE00TO202208260426/08/202200000000800000000000000007720KGM  00000008111KGM  18018404051              CAVS 085 O               CAVS 085 O               0         0         0         0    0    0    00000000000080000000000022900001832000
AE00TO202208260426/08/202200000001100000000000000010615KGM  00000011153KGM  18018404080              CAVS 085 BR              CAVS 085 BR              0         0         0         0    0    0    00000000000110000000000022900002519000
AE00TO202208260426/08/202200000000100000000000000000965KGM  00000001014KGM  18018404090              CAVS 085 L               CAVS 085 L               0         0         0         0    0    0    00000000000010000000000022900000229000
AE00TO202208260426/08/202200000000300000000000000002895KGM  00000003042KGM  18018404092              CAVS 085 V               CAVS 085 V               0         0         0         0    0    0    00000000000030000000000022900000687000
AE00TO202208260426/08/202200000003400000000000000041752KGM  00000043414KGM  1801R704143              CIVUS 125 W/B            CIVUS 125 W/B            0         0         0         0    0    0    00000000000340000000000031800010812000
AE00TO202208260426/08/202200000000100000000000000001219KGM  00000001268KGM  1801R706090              CIVUS 1 L                CIVUS 1 L                0         0         0         0    0    0    00000000000012000000000026400000316800
AE00TO202208260426/08/202200000000100000000000000001158KGM  00000001207KGM  1801R706930              CIVUS 035 B              CIVUS 035 B              0         0         0         0    0    0    00000000000030000000000009700000291000
AE00TO202208260426/08/202200000000200000000000000002250KGM  00000002348KGM  1801W003940              IVSSH 05F W              IVSSH 05F W              0         0         0         0    0    0    00000000000036000000000015600000561600
AE00TO202208260426/08/202200000000100000000000000001111KGM  00000001159KGM  1801W004390              IVSSH 3 L                IVSSH 3 L                0         0         0         0    0    0    00000000000003500000000088800000310800
AE00TO202208260426/08/202200000000500000000000000005650KGM  00000005894KGM  1801W006930              IVSSH 035F B             IVSSH 035F B             0         0         0         0    0    0    00000000000125000000000011500001437500
AE00TO202208260426/08/202200000004000000000000000045200KGM  00000047156KGM  1801W006941              IVSSH 035F GY            IVSSH 035F GY            0         0         0         0    0    0    00000000001000000000000011500011500000
AE00TO202208260426/08/202200000003200000000000000036160KGM  00000037725KGM  1801W006950              IVSSH 035F R             IVSSH 035F R             0         0         0         0    0    0    00000000000800000000000011500009200000
AE00TO202208260426/08/202200000009600000000000000108480KGM  00000113174KGM  1801W006952              IVSSH 035F P             IVSSH 035F P             0         0         0         0    0    0    00000000002400000000000011500027600000
AE00TO202208260426/08/202200000000100000000000000001130KGM  00000001179KGM  1801W006960              IVSSH 035F G             IVSSH 035F G             0         0         0         0    0    0    00000000000025000000000011500000287500
AE00TO202208260426/08/202200000000200000000000000002260KGM  00000002358KGM  1801W006991              IVSSH 035F SB            IVSSH 035F SB            0         0         0         0    0    0    00000000000050000000000011500000575000
AE00TO202208260426/08/202200000003200000000000000033072KGM  00000034636KGM  180D0203940              AVSSH 05F W              AVSSH 05F W              0         0         0         0    0    0    00000000000480000000000016500007920000
AE00TO202208260426/08/202200000000900000000000000009302KGM  00000009742KGM  180D0203941              AVSSH 05F GY             AVSSH 05F GY             0         0         0         0    0    0    00000000000135000000000016500002227500
AE00TO202208260426/08/202200000002300000000000000023771KGM  00000024895KGM  180D0203943              AVSSH 05F W/B            AVSSH 05F W/B            0         0         0         0    0    0    00000000000345000000000016500005692500
AE00TO202208260426/08/202200000000100000000000000001034KGM  00000001082KGM  180D0203946              AVSSH 05F W/G            AVSSH 05F W/G            0         0         0         0    0    0    00000000000015000000000016500000247500
AE00TO202208260426/08/202200000000200000000000000002067KGM  00000002165KGM  180D0203949              AVSSH 05F W/L            AVSSH 05F W/L            0         0         0         0    0    0    00000000000030000000000016500000495000
AE00TO202208260426/08/202200000000800000000000000008269KGM  00000008659KGM  180D0203961              AVSSH 05F LG             AVSSH 05F LG             0         0         0         0    0    0    00000000000120000000000016500001980000
AE00TO202208260426/08/202200000001200000000000000012403KGM  00000012989KGM  180D0203970              AVSSH 05F Y              AVSSH 05F Y              0         0         0         0    0    0    00000000000180000000000016500002970000
AE00TO202208260426/08/202200000000100000000000000001034KGM  00000001082KGM  180D0203973              AVSSH 05F Y/B            AVSSH 05F Y/B            0         0         0         0    0    0    00000000000015000000000016500000247500
AE00TO202208260426/08/202200000000200000000000000002067KGM  00000002165KGM  180D0203976              AVSSH 05F Y/G            AVSSH 05F Y/G            0         0         0         0    0    0    00000000000030000000000016500000495000
AE00TO202208260426/08/202200000008600000000000000072238KGM  00000076442KGM  181AD2004ZZ              CIVUSAS-S 035X4 B        CIVUSAS-S 035X4 B        0         0         0         0    0    0    00000000000258000000000067100017311800
AE00TO202208260426/08/202200000000200000000000000001607KGM  00000001705KGM  181AD2010ZZ              CIVUSAS-S 05X4 B         CIVUSAS-S 05X4 B         0         0         0         0    0    0    00000000000005000000000084400000422000
AE00TO202208260426/08/202200000000300000000000000002613KGM  00000002760KGM  181B32102S1              AVSSCS 05FX2 DGY         AVSSCS 05FX2 DGY         0         0         0         0    0    0    00000000000009000000000076200000685800
AE00TO202208260426/08/202200000000300000000000000002613KGM  00000002759KGM  181B32102Y9              AVSSCS 05FX2 DGY/P       AVSSCS 05FX2 DGY/P       0         0         0         0    0    0    00000000000009000000000076200000685800
AE00TO202208260426/08/202200000000100000000000000000871KGM  00000000920KGM  181B32102Z8              AVSSCS 05FX2 DGY/O       AVSSCS 05FX2 DGY/O       0         0         0         0    0    0    00000000000003000000000076200000228600
AE00TO202208260426/08/202200000000100000000000000000716KGM  00000000764KGM  181D6910230              AVSSHCS 05FX2 B          AVSSHCS 05FX2 B          0         0         0         0    0    0    00000000000003000000000080200000240600
AE00TO202208260426/08/202200000000100000000000000000716KGM  00000000764KGM  181D6910235              AVSSHCS 05FX2 B/R        AVSSHCS 05FX2 B/R        0         0         0         0    0    0    00000000000003000000000080200000240600
AE00TO202208260426/08/202200000000100000000000000000759KGM  00000000808KGM  181F21013ZZ              AVSSHCS-S 05FX2 B/Y      AVSSHCS-S 05FX2 B/Y      0         0         0         0    0    0    00000000000003000000000074200000222600
AE00TO202208260426/08/202200000000100000000000000000759KGM  00000000808KGM  181F21015ZZ              AVSSHCS-S 05FX2 B/P      AVSSHCS-S 05FX2 B/P      0         0         0         0    0    0    00000000000003000000000074200000222600
AE00TO202208260426/08/202200000000400000000000000003038KGM  00000003233KGM  181F21016ZZ              AVSSHCS-S 05FX2 B/BR     AVSSHCS-S 05FX2 B/BR     0         0         0         0    0    0    00000000000012000000000074200000890400
