BI00B1200    2399T52719     202208257289-6160-30             HOUSING FEMALE ASS'Y     CCN000000160000000160FY00000016020220901000000000NNM00020220826141244    4N0N  0000001600000103740000132041200    YCYC    005500360039
BI00B1200    2399T52719     202208257289-6524-30             HOUSING FEMALE ASS'Y     CCN000000960000000960FY00000096020220901000000000NNM00020220826141244    4N0N  0000002400000135120000166621200    YCYC    005500360039
BI00B1200    2399T52719     202208257289-6597-70             HOUSING FEMALE ASS'Y     CCN000015120000015120FY00001512020220901000000000NNM00020220826141244    4N0N  0000021600000128950000153951200    YCYC    005500360039
BI00B1200    2399T52719     202208257289-6868-30             SEALED ASSY FEMALE       CCN000080640000080640FY00008064020220901000000000NNM00020220826141244    4N0N  0000025200000083920000111921200    YCYC    005500360039
BI00B1200    2399T52719     202208257289-7212-30             HOUSING FEMALE ASS'Y     CCN000006480000006480FY00000648020220901000000000NNM00020220826141244    4N0N  0000002400000138840000159341200    YCYC    005500360039
BI00B1200    2399T52719     202208257289-9553-30             SEALED ASSY FEMALE       CCN000011760000011760FY00001176020220901000000000NNM00020220826141244    4N0N  0000029400000110900000152151200    YCYC    005500360039
BI00B1200    2399T52719     202208257289-9553-50             SEALED ASSY FEMALE       CCN000041160000041160FY00004116020220901000000000NNM00020220826141244    4N0N  0000029400000110810000152061200    YCYC    005500360039
BI00B1200    2399T52719     202208257289-9612-30             HOUSING FEMALE ASS'Y     CCN000000240000000240FY00000024020220901000000000NNM00020220826141244    4N0N  0000002400000134880000166881200    YCYC    005500360039
BI00B1200    2399T52719     202208257298-3990-30             HOUSING FEMALE ASS'Y     CCN000002400000002400FY00000240020220901000000000NNM00020220826141244    4NON  0000002400000120890000157391200    YCYC    005500360039
BI00B1200    2399T52909     202210207172-5540-80             SEALED WIRE SEAL         CCN000460000000460000FN00000000020221101000460000NNMD0420220826161817    1C0C  0000200000000018600000023441200    YCYC    004300270014
BI00B1200    2399T52910     202210277172-5540-80             SEALED WIRE SEAL         CCN000460000000460000FN00000000020221101000460000NNMD0420220826161836    1C0C  0000200000000018600000023441200    YCYC    004300270014
BI00B1200    2399T52911     202211037172-5540-80             SEALED WIRE SEAL         CCN000460000000460000FN00000000020221101000460000NNMD0420220826161857    1C0C  0000200000000018600000023441200    YCYC    004300270014
BI00B1200    2399T52912     202211107172-5540-80             SEALED WIRE SEAL         CCN000440000000440000FN00000000020221101000440000NNMD0420220826161910    1C0C  0000200000000018600000023441200    YCYC    004300270014
BI00B1200    2399T52917     202209297289-6547                HOUSING FEMALE ASS'Y     CCN000218400000218400FN00000000020221101000218400NNMD0020220826141920    1N0N  0000024000000115200000136201200    YCYC    005500360039
BI00B1200    2399T52917     202210207289-6868-30             SEALED ASSY FEMALE       CCN000194040000098280FN00000000020221101000098280NNMD0420220826160609    4N0N  0000025200000083920000111921200    YCYC    005500360039
BI00B1200    2399T52918     202211037289-6868-30             SEALED ASSY FEMALE       CCN000194040000098280FN00000000020221101000098280NNMD0420220826160658    4N0N  0000025200000083920000111921200    YCYC    005500360039
BI00B1200    2399T52919     202211177289-6868-30             SEALED ASSY FEMALE       CCN000194040000098280FN00000000020221101000098280NNMD0420220826160735    4N0N  0000025200000083920000111921200    YCYC    005500360039
BI00B1200    2399T52920     202212017289-6868-30             SEALED ASSY FEMALE       CCN000194040000098280FN00000000020221101000098280NNMD0420220826160823    4N0N  0000025200000083920000111921200    YCYC    005500360039
BI00B1200    H322L50008     202211037298-4094-10             HOUSING FEMALE ASS'Y     CCN000003380000003380FN00000000020221201000003380NNE   20220826121744    4N0N  0000033800000109740000135871200    YCYC    005400370024
BI00B1200    2399T52925     202211177116-4100-02             TERMINAL                 CCN000105000000105000FN00000000020221201000105000NNE   20220826121744    4P0P  0000150000000069600000099021200    YCYC    006400630015
BI00B1200    2399T52917     202210277289-6868-30             SEALED ASSY FEMALE       CCN000095760000095760FN00000000020221101000095760NNMD0420220826160615    4N0N  0000025200000083920000111921200    YCYC    005500360039
BI00B1200    2399T52918     202211107289-6868-30             SEALED ASSY FEMALE       CCN000095760000095760FN00000000020221101000095760NNMD0420220826160703    4N0N  0000025200000083920000111921200    YCYC    005500360039
BI00B1200    2399T52919     202211247289-6868-30             SEALED ASSY FEMALE       CCN000095760000095760FN00000000020221101000095760NNMD0420220826160740    4N0N  0000025200000083920000111921200    YCYC    005500360039
BI00B1200    2399T52920     202212087289-6868-30             SEALED ASSY FEMALE       CCN000095760000095760FN00000000020221101000095760NNMD0420220826160831    4N0N  0000025200000083920000111921200    YCYC    005500360039
BI00B32AF    JTB209K        202209097283-4855                CONNECTOR HOUSING        CCN000002400000002400FN00000000020220901000002400NNE   20220826132136    4N0N  00000240000001188400001400032AF    HBYHVTB 005500360039
BI00B32AF    JTB210J        202209237282-4578-30             HOUSING MALE ASS'Y       CCN000002400000002400FN00000000020221001000002400NNE   20220826132148    4N0N  00000120000000782600000992632AF    HBYHVTB 005500360039
BI00B32AF    JTB210K        202210077158-3169-40             SEALING PLUG             CCN000040000000040000FN00000000020221001000040000NNE   20220826132203    1C0C  00004000000000156000000204132AF    HBYHVTB 004300260014
BI00B32AF    JTB210K        202210077196-1103-02             TERMINAL                 CCN000022500000022500FN00000000020221001000022500NNE   20220826132203    4P0P  00002250000000429800000715032AF    HBYHVTB 006400630015
BI00B32AF    JTB210K        202210077196-1326-02             TERMINAL FEMALE          CCN000060000000060000FN00000000020221001000060000NNE   20220826132203    4P0P  00006000000000456000000784732AF    HBYHVTB 006400630017
BI00B32AF    JTB210K        202210077282-4855                HOUSING MALE ASS'Y       CCN000001200000001200FN00000000020221001000001200NNE   20220826132203    4N0N  00000120000001063200001283232AF    HBYHVTB 005500360039
BI00B32AF    JTB210K        202210077283-4576                HOUSING FEMALE ASS'Y     CCN000009600000009600FN00000000020221001000009600NNE   20220826132203    4N0N  00000480000000651300000871332AF    HBYHVTB 005500360039
BI00B32AF    JTB210K        202210077283-4855                CONNECTOR HOUSING        CCN000002400000002400FN00000000020221001000002400NNE   20220826132203    4N0N  00000240000001188400001400032AF    HBYHVTB 005500360039
BI00B32AF    JTB210K        202210077283-5845                CONNECTOR HOUSING        CCN000012000000012000FN00000000020221001000012000NNE   20220826132203    1N0N  00000600000000444000000606332AF    HBYHVTB 005400370024
BI00B32AF    JTB210K        202210077289-3342                HOUSING FEMALE ASS'Y     CCN000007200000007200FN00000000020221001000007200NNE   20220826132203    1N0N  00000240000000686400000901432AF    HBYHVTB 005500360039
BI00B32AF    JTB210K        202210077289-3342-30             HOUSING FEMALE ASS'Y     CCN000016800000016800FN00000000020221001000016800NNE   20220826132203    1N0N  00000240000000686400000901432AF    HBYHVTB 005500360039
BI00B32AF    JTB210K        202210077298-2507-30             HOUSING FEMALE ASS'Y     CCN000001200000001200FN00000000020221001000001200NNE   20220826132203    4N0N  00000120000000713200000914532AF    HBYHVTB 005500360039
BI00B32AF    JTB210K        202210077298-2508-30             HOUSING FEMALE ASS'Y     CCN000002400000002400FN00000000020221001000002400NNE   20220826132203    4N0N  00000120000000822000001005032AF    HBYHVTB 005500360039
BI00B32AF    JTB210K        202210077298-2509-30             HOUSING FEMALE ASS'Y     CCN000001200000001200FN00000000020221001000001200NNE   20220826132203    4N0N  00000120000000857500001062532AF    HBYHVTB 005500360039
BI00B32AF    #JTB210K       202210077172-5632-10             DUMMY PLUG               CCN000020000000020000FN00000000020221001000020000NNE   20220826132157    2H0H  00002000000000080400000131832AF    HBYHVTB 004300270014
BI00B32AF    #JTB210K       202210077183-2418-30             CONNECTOR HOUSING        CCN000004800000004800FN00000000020221001000004800NNE   20220826132157    2F0F  00000480000000917000001235332AF    HBYHVTB 005500360039
BI00B32AF    #JTB210K       202210077187-1616                HOUSING FEMALE           CCN000004000000004000FN00000000020221001000004000NNE   20220826132157    2F0F  00000400000001152000001262032AF    HBYHVTB 005500360039
BI00B32AF    #JTB210K       202210077189-3038-30             HOUSING                  CCN000001600000001600FN00000000020221001000001600NNE   20220826132157    2F0F  00000160000000921600001141632AF    HBYHVTB 005500360039
BI00B32AF    #JTB210K       202210077198-5394                HOUSING FEMALE           CCN000004800000004800FN00000000020221001000004800NNE   20220826132157    2F0F  00000480000000489700000688832AF    HBYHVTB 005500360039
BI00B32AF    #JTB210K       202210077297-1907-30             HOUSING MALE ASS'Y       CCN000001500000001500FN00000000020221001000001500NNE   20220826132157    2N0N  00000150000000451800000568032AF    HBYHVTB 005400370024
BI00B32AF    #JTB210K       202210077297-1911-30             HOUSING MALE ASS'Y       CCN000001000000001000FN00000000020221001000001000NNE   20220826132157    2N0N  00000100000000486900000600132AF    HBYHVTB 005400370024
BI00B32AF    JTB2112        202210217017-1180-02             TERMINAL                 CCN000216000000216000FN00000000020221101000216000NNM   20220826132514    4P0P  00007200000001065600001229032AF    HBYHVTB 005100280028
BI00B32AF    JTB2113        202210287017-1180-02             TERMINAL                 CCN000288000000288000FN00000000020221101000288000NNM   20220826132514    4P0P  00007200000001065600001229032AF    HBYHVTB 005100280028
BI00B32AF    JTB2114        202211047017-1180-02             TERMINAL                 CCN000288000000288000FN00000000020221101000288000NNM   20220826132514    4P0P  00007200000001065600001229032AF    HBYHVTB 005100280028
BI00B32AF    JTB2113        202210287017-1181-02             TERMINAL                 CCN000063000000063000FN00000000020221101000063000NNM   20220826132514    4P0P  00006300000001089900001266832AF    HBYHVTB 005100280028
BI00B32AF    JTB2112        202210217017-1182-02             TERMINAL                 CCN000090000000090000FN00000000020221101000090000NNM   20220826132514    4P0P  00004500000001165500001318632AF    HBYHVTB 005100280028
BI00B32AF    JTB2113        202210287017-1182-02             TERMINAL                 CCN000090000000090000FN00000000020221101000090000NNM   20220826132514    4P0P  00004500000001165500001318632AF    HBYHVTB 005100280028
BI00B32AF    JTB2114        202211047017-1182-02             TERMINAL                 CCN000090000000090000FN00000000020221101000090000NNM   20220826132514    4P0P  00004500000001165500001318632AF    HBYHVTB 005100280028
BI00B32AF    JTB2111        202210177114-1670-02             TERMINAL                 CCN000024000000024000FN00000000020221101000024000NNM   20220826132514    1P0P  00002400000000357600000645832AF    HBYHVTB 006400630015
BI00B32AF    JTB2112        202210217114-1670-02             TERMINAL                 CCN000024000000024000FN00000000020221101000024000NNM   20220826132514    1P0P  00002400000000357600000645832AF    HBYHVTB 006400630015
BI00B32AF    JTB2113        202210287114-1670-02             TERMINAL                 CCN000024000000024000FN00000000020221101000024000NNM   20220826132514    1P0P  00002400000000357600000645832AF    HBYHVTB 006400630015
BI00B32AF    JTB2114        202211047114-1670-02             TERMINAL                 CCN000024000000024000FN00000000020221101000024000NNM   20220826132514    1P0P  00002400000000357600000645832AF    HBYHVTB 006400630015
BI00B32AF    JTB2111        202210177114-4020                TERMINAL                 CCN000084000000084000FN00000000020221101000084000NNM   20220826132514    4P0P  00002100000000875700001169332AF    HBYHVTB 006400630015
BI00B32AF    JTB2112        202210217114-4020                TERMINAL                 CCN000042000000042000FN00000000020221101000042000NNM   20220826132514    4P0P  00002100000000875700001169332AF    HBYHVTB 006400630015
BI00B32AF    JTB2113        202210287114-4020                TERMINAL                 CCN000063000000063000FN00000000020221101000063000NNM   20220826132514    4P0P  00002100000000875700001169332AF    HBYHVTB 006400630015
BI00B32AF    JTB2114        202211047114-4020                TERMINAL                 CCN000084000000084000FN00000000020221101000084000NNM   20220826132514    4P0P  00002100000000875700001169332AF    HBYHVTB 006400630015
BI00B32AF    JTB2111        202210177114-4021                TERMINAL                 CCN000030000000030000FN00000000020221101000030000NNM   20220826132514    4P0P  00001500000000670500000964132AF    HBYHVTB 006400630015
BI00B32AF    JTB2112        202210217114-4021                TERMINAL                 CCN000030000000030000FN00000000020221101000030000NNM   20220826132514    4P0P  00001500000000670500000964132AF    HBYHVTB 006400630015
BI00B32AF    JTB2113        202210287114-4021                TERMINAL                 CCN000015000000015000FN00000000020221101000015000NNM   20220826132514    4P0P  00001500000000670500000964132AF    HBYHVTB 006400630015
BI00B32AF    JTB2114        202211047114-4021                TERMINAL                 CCN000030000000030000FN00000000020221101000030000NNM   20220826132514    4P0P  00001500000000670500000964132AF    HBYHVTB 006400630015
BI00B32AF    JTB2114        202211047114-4030                TERMINAL                 CCN000010500000010500FN00000000020221101000010500NNM   20220826132514    4P0P  00001050000000926100001254732AF    HBYHVTB 006400630017
BI00B32AF    JTB2112        202210217114-4031                TERMINAL                 CCN000031500000031500FN00000000020221101000031500NNM   20220826132514    4P0P  00001050000000966000001294632AF    HBYHVTB 006400630017
BI00B32AF    JTB2113        202210287114-4031                TERMINAL                 CCN000031500000031500FN00000000020221101000031500NNM   20220826132514    4P0P  00001050000000966000001294632AF    HBYHVTB 006400630017
BI00B32AF    JTB2114        202211047114-4031                TERMINAL                 CCN000021000000021000FN00000000020221101000021000NNM   20220826132514    4P0P  00001050000000966000001294632AF    HBYHVTB 006400630017
BI00B32AF    JTB2112        202210217114-4032                TERMINAL                 CCN000052500000052500FN00000000020221101000052500NNM   20220826132514    4P0P  00000750000000735000001063632AF    HBYHVTB 006400630017
BI00B32AF    JTB2113        202210287114-4032                TERMINAL                 CCN000075000000075000FN00000000020221101000075000NNM   20220826132514    4P0P  00000750000000735000001063632AF    HBYHVTB 006400630017
BI00B32AF    JTB2114        202211047114-4032                TERMINAL                 CCN000075000000075000FN00000000020221101000075000NNM   20220826132514    4P0P  00000750000000735000001063632AF    HBYHVTB 006400630017
BI00B32AF    JTB2111        202210177114-4231-02             TERMINAL                 CCN000054000000054000FN00000000020221101000054000NNM   20220826132514    4P0P  00001800000000554400000848032AF    HBYHVTB 006400630015
BI00B32AF    JTB2112        202210217114-4231-02             TERMINAL                 CCN000216000000216000FN00000000020221101000216000NNM   20220826132514    4P0P  00001800000000554400000848032AF    HBYHVTB 006400630015
BI00B32AF    JTB2113        202210287114-4231-02             TERMINAL                 CCN000198000000198000FN00000000020221101000198000NNM   20220826132514    4P0P  00001800000000554400000848032AF    HBYHVTB 006400630015
BI00B32AF    JTB2114        202211047114-4231-02             TERMINAL                 CCN000216000000216000FN00000000020221101000216000NNM   20220826132514    4P0P  00001800000000554400000848032AF    HBYHVTB 006400630015
BI00B32AF    JTB2113        202210287114-4624-02             TERMINAL                 CCN000024000000024000FN00000000020221101000024000NNM   20220826132514    4P0P  00002400000000895200001188832AF    HBYHVTB 006400630015
BI00B32AF    JTB2111        202210177114-4728-02             TERMINAL                 CCN000480000000480000FN00000000020221101000480000NNM   20220826132514    4P0P  00003000000000510000000804232AF    HBYHVTB 006400630015
BI00B32AF    JTB2112        202210217114-4728-02             TERMINAL                 CCN000750000000750000FN00000000020221101000750000NNM   20220826132514    4P0P  00003000000000510000000804232AF    HBYHVTB 006400630015
BI00B32AF    JTB2113        202210287114-4728-02             TERMINAL                 CCN000570000000570000FN00000000020221101000570000NNM   20220826132514    4P0P  00003000000000510000000804232AF    HBYHVTB 006400630015
BI00B32AF    JTB2114        202211047114-4728-02             TERMINAL                 CCN000600000000600000FN00000000020221101000600000NNM   20220826132514    4P0P  00003000000000510000000804232AF    HBYHVTB 006400630015
BI00B32AF    JTB2112        202210217114-4729-02             TERMINAL                 CCN000090000000090000FN00000000020221101000090000NNM   20220826132514    4P0P  00003000000000516000000810232AF    HBYHVTB 006400630015
BI00B32AF    JTB2113        202210287114-4729-02             TERMINAL                 CCN000120000000120000FN00000000020221101000120000NNM   20220826132514    4P0P  00003000000000516000000810232AF    HBYHVTB 006400630015
BI00B32AF    JTB2114        202211047114-4729-02             TERMINAL                 CCN000090000000090000FN00000000020221101000090000NNM   20220826132514    4P0P  00003000000000516000000810232AF    HBYHVTB 006400630015
BI00B32AF    JTB2111        202210177114-5746-02             TERMINAL                 CCN000063000000063000FN00000000020221101000063000NNM   20220826132514    4P0P  00002100000000695100000988732AF    HBYHVTB 006400630015
BI00B32AF    JTB2112        202210217114-5746-02             TERMINAL                 CCN000084000000084000FN00000000020221101000084000NNM   20220826132514    4P0P  00002100000000695100000988732AF    HBYHVTB 006400630015
BI00B32AF    JTB2113        202210287114-5746-02             TERMINAL                 CCN000084000000084000FN00000000020221101000084000NNM   20220826132514    4P0P  00002100000000695100000988732AF    HBYHVTB 006400630015
BI00B32AF    JTB2114        202211047114-5746-02             TERMINAL                 CCN000084000000084000FN00000000020221101000084000NNM   20220826132514    4P0P  00002100000000695100000988732AF    HBYHVTB 006400630015
BI00B32AF    JTB2111        202210177114-5747-02             TERMINAL                 CCN000108000000108000FN00000000020221101000108000NNM   20220826132514    4P0P  00001800000000626400000920032AF    HBYHVTB 006400630015
BI00B32AF    JTB2112        202210217114-5747-02             TERMINAL                 CCN000216000000216000FN00000000020221101000216000NNM   20220826132514    4P0P  00001800000000626400000920032AF    HBYHVTB 006400630015
BI00B32AF    JTB2113        202210287114-5747-02             TERMINAL                 CCN000180000000180000FN00000000020221101000180000NNM   20220826132514    4P0P  00001800000000626400000920032AF    HBYHVTB 006400630015
BI00B32AF    JTB2114        202211047114-5747-02             TERMINAL                 CCN000180000000180000FN00000000020221101000180000NNM   20220826132514    4P0P  00001800000000626400000920032AF    HBYHVTB 006400630015
BI00B32AF    JTB2111        202210177114-5748-02             TERMINAL                 CCN000048000000048000FN00000000020221101000048000NNM   20220826132514    4P0P  00001200000000444000000737632AF    HBYHVTB 006400630015
BI00B32AF    JTB2112        202210217114-5748-02             TERMINAL                 CCN000096000000096000FN00000000020221101000096000NNM   20220826132514    4P0P  00001200000000444000000737632AF    HBYHVTB 006400630015
BI00B32AF    JTB2113        202210287114-5748-02             TERMINAL                 CCN000096000000096000FN00000000020221101000096000NNM   20220826132514    4P0P  00001200000000444000000737632AF    HBYHVTB 006400630015
BI00B32AF    JTB2114        202211047114-5748-02             TERMINAL                 CCN000096000000096000FN00000000020221101000096000NNM   20220826132514    4P0P  00001200000000444000000737632AF    HBYHVTB 006400630015
BI00B32AF    JTB2111        202210177114-5753-02             TERMINAL                 CCN000081000000081000FN00000000020221101000081000NNM   20220826132514    4P0P  00002700000000847800001141432AF    HBYHVTB 006400630015
BI00B32AF    JTB2112        202210217114-5753-02             TERMINAL                 CCN000108000000108000FN00000000020221101000108000NNM   20220826132514    4P0P  00002700000000847800001141432AF    HBYHVTB 006400630015
BI00B32AF    JTB2113        202210287114-5753-02             TERMINAL                 CCN000108000000108000FN00000000020221101000108000NNM   20220826132514    4P0P  00002700000000847800001141432AF    HBYHVTB 006400630015
BI00B32AF    JTB2114        202211047114-5753-02             TERMINAL                 CCN000108000000108000FN00000000020221101000108000NNM   20220826132514    4P0P  00002700000000847800001141432AF    HBYHVTB 006400630015
BI00B32AF    JTB2113        202210287116-1257-02             TERMINAL                 CCN000024000000024000FN00000000020221101000024000NNM   20220826132514    4P0P  00002400000000518400000847132AF    HBYHVTB 006400630017
BI00B32AF    JTB2114        202211047116-2891-02             TERMINAL                 CCN000015000000015000FN00000000020221101000015000NNM   20220826132514    4P0P  00001500000000982500001145932AF    HBYHVTB 005100280028
BI00B32AF    JTB2111        202210177116-3153-08             TERMINAL                 CCN000027000000027000FN00000000020221101000027000NNM   20220826132514    4P0P  00002700000000461700000746932AF    HBYHVTB 006400630015
BI00B32AF    JTB2112        202210217116-3153-08             TERMINAL                 CCN000027000000027000FN00000000020221101000027000NNM   20220826132514    4P0P  00002700000000461700000746932AF    HBYHVTB 006400630015
BI00B32AF    JTB2113        202210287116-3153-08             TERMINAL                 CCN000027000000027000FN00000000020221101000027000NNM   20220826132514    4P0P  00002700000000461700000746932AF    HBYHVTB 006400630015
BI00B32AF    JTB2112        202210217116-4020                TERMINAL                 CCN000013500000013500FN00000000020221101000013500NNM   20220826132514    4P0P  00001350000000513000000798232AF    HBYHVTB 006400630015
BI00B32AF    JTB2113        202210287116-4020                TERMINAL                 CCN000054000000054000FN00000000020221101000054000NNM   20220826132514    4P0P  00001350000000513000000798232AF    HBYHVTB 006400630015
BI00B32AF    JTB2114        202211047116-4020                TERMINAL                 CCN000040500000040500FN00000000020221101000040500NNM   20220826132514    4P0P  00001350000000513000000798232AF    HBYHVTB 006400630015
BI00B32AF    JTB2114        202211047116-4025                TERMINAL                 CCN000016000000016000FN00000000020221101000016000NNM   20220826132514    4P0P  00001600000000644800000975132AF    HBYHVTB 006400630017
BI00B32AF    JTB2112        202210217116-4026                TERMINAL                 CCN000016000000016000FN00000000020221101000016000NNM   20220826132514    4P0P  00001600000000664000000994332AF    HBYHVTB 006400630017
BI00B32AF    JTB2112        202210217116-4031                TERMINAL                 CCN000015000000015000FN00000000020221101000015000NNM   20220826132514    4P0P  00000750000000619500000904732AF    HBYHVTB 006400630015
BI00B32AF    JTB2113        202210287116-4031                TERMINAL                 CCN000015000000015000FN00000000020221101000015000NNM   20220826132514    4P0P  00000750000000619500000904732AF    HBYHVTB 006400630015
BI00B32AF    JTB2114        202211047116-4031                TERMINAL                 CCN000015000000015000FN00000000020221101000015000NNM   20220826132514    4P0P  00000750000000619500000904732AF    HBYHVTB 006400630015
BI00B32AF    JTB2111        202210177116-4032                TERMINAL                 CCN000024000000024000FN00000000020221101000024000NNM   20220826132514    4P0P  00000600000000532800000818032AF    HBYHVTB 006400630015
BI00B32AF    JTB2112        202210217116-4032                TERMINAL                 CCN000036000000036000FN00000000020221101000036000NNM   20220826132514    4P0P  00000600000000532800000818032AF    HBYHVTB 006400630015
BI00B32AF    JTB2113        202210287116-4032                TERMINAL                 CCN000030000000030000FN00000000020221101000030000NNM   20220826132514    4P0P  00000600000000532800000818032AF    HBYHVTB 006400630015
BI00B32AF    JTB2114        202211047116-4032                TERMINAL                 CCN000030000000030000FN00000000020221101000030000NNM   20220826132514    4P0P  00000600000000532800000818032AF    HBYHVTB 006400630015
BI00B32AF    JTB2112        202210217116-4111-02             TERMINAL                 CCN000007500000007500FN00000000020221101000007500NNM   20220826132514    4P0P  00000750000000529500000817732AF    HBYHVTB 006400630015
BI00B32AF    JTB2114        202211047116-4111-02             TERMINAL                 CCN000007500000007500FN00000000020221101000007500NNM   20220826132514    4P0P  00000750000000529500000817732AF    HBYHVTB 006400630015
BI00B32AF    JTB2111        202210177116-4112-02             TERMINAL                 CCN000012000000012000FN00000000020221101000012000NNM   20220826132514    4P0P  00000600000000450000000738232AF    HBYHVTB 006400630015
BI00B32AF    JTB2112        202210217116-4112-02             TERMINAL                 CCN000006000000006000FN00000000020221101000006000NNM   20220826132514    4P0P  00000600000000450000000738232AF    HBYHVTB 006400630015
BI00B32AF    JTB2113        202210287116-4112-02             TERMINAL                 CCN000006000000006000FN00000000020221101000006000NNM   20220826132514    4P0P  00000600000000450000000738232AF    HBYHVTB 006400630015
BI00B32AF    JTB2114        202211047116-4112-02             TERMINAL                 CCN000006000000006000FN00000000020221101000006000NNM   20220826132514    4P0P  00000600000000450000000738232AF    HBYHVTB 006400630015
BI00B32AF    JTB2112        202210217116-4121-02             TERMINAL                 CCN000009000000009000FN00000000020221101000009000NNM   20220826132514    4P0P  00000450000000618800000912432AF    HBYHVTB 006400630015
BI00B32AF    JTB2113        202210287116-4121-02             TERMINAL                 CCN000009000000009000FN00000000020221101000009000NNM   20220826132514    4P0P  00000450000000618800000912432AF    HBYHVTB 006400630015
BI00B32AF    JTB2114        202211047116-4121-02             TERMINAL                 CCN000009000000009000FN00000000020221101000009000NNM   20220826132514    4P0P  00000450000000618800000912432AF    HBYHVTB 006400630015
BI00B32AF    JTB2111        202210177116-4231-02             TERMINAL                 CCN000052000000052000FN00000000020221101000052000NNM   20220826132514    4P0P  00002600000000683800001012532AF    HBYHVTB 006400630017
BI00B32AF    JTB2112        202210217116-4231-02             TERMINAL                 CCN000208000000208000FN00000000020221101000208000NNM   20220826132514    4P0P  00002600000000683800001012532AF    HBYHVTB 006400630017
BI00B32AF    JTB2113        202210287116-4231-02             TERMINAL                 CCN000182000000182000FN00000000020221101000182000NNM   20220826132514    4P0P  00002600000000683800001012532AF    HBYHVTB 006400630017
BI00B32AF    JTB2114        202211047116-4231-02             TERMINAL                 CCN000182000000182000FN00000000020221101000182000NNM   20220826132514    4P0P  00002600000000683800001012532AF    HBYHVTB 006400630017
BI00B32AF    JTB2111        202210177116-4416-02             TERMINAL                 CCN000032000000032000FN00000000020221101000032000NNM   20220826132514    4P0P  00003200000000518400000847132AF    HBYHVTB 006400630017
BI00B32AF    JTB2112        202210217116-4416-02             TERMINAL                 CCN000064000000064000FN00000000020221101000064000NNM   20220826132514    4P0P  00003200000000518400000847132AF    HBYHVTB 006400630017
BI00B32AF    JTB2113        202210287116-4416-02             TERMINAL                 CCN000032000000032000FN00000000020221101000032000NNM   20220826132514    4P0P  00003200000000518400000847132AF    HBYHVTB 006400630017
BI00B32AF    JTB2114        202211047116-4416-02             TERMINAL                 CCN000032000000032000FN00000000020221101000032000NNM   20220826132514    4P0P  00003200000000518400000847132AF    HBYHVTB 006400630017
BI00B32AF    JTB2112        202210217116-4486-02             TERMINAL                 CCN000560000000560000FN00000000020221101000560000NNM   20220826132514    4P0P  00002800000000666400000995132AF    HBYHVTB 006400630017
BI00B32AF    JTB2113        202210287116-4486-02             TERMINAL                 CCN000476000000476000FN00000000020221101000476000NNM   20220826132514    4P0P  00002800000000666400000995132AF    HBYHVTB 006400630017
BI00B32AF    JTB2114        202211047116-4486-02             TERMINAL                 CCN000476000000476000FN00000000020221101000476000NNM   20220826132514    4P0P  00002800000000666400000995132AF    HBYHVTB 006400630017
BI00B32AF    JTB2111        202210177116-5035-02             TERMINAL                 CCN000030000000030000FN00000000020221101000030000NNM   20220826132514    4P0P  00001500000000543000000828232AF    HBYHVTB 006400630015
BI00B32AF    JTB2112        202210217116-5035-02             TERMINAL                 CCN000030000000030000FN00000000020221101000030000NNM   20220826132514    4P0P  00001500000000543000000828232AF    HBYHVTB 006400630015
BI00B32AF    JTB2113        202210287116-5035-02             TERMINAL                 CCN000030000000030000FN00000000020221101000030000NNM   20220826132514    4P0P  00001500000000543000000828232AF    HBYHVTB 006400630015
BI00B32AF    JTB2114        202211047116-5035-02             TERMINAL                 CCN000030000000030000FN00000000020221101000030000NNM   20220826132514    4P0P  00001500000000543000000828232AF    HBYHVTB 006400630015
BI00B32AF    JTB2112        202210217116-5042-02             TERMINAL                 CCN000162000000162000FN00000000020221101000162000NNM   20220826132514    4P0P  00001350000000560300000845532AF    HBYHVTB 006400630015
BI00B32AF    JTB2113        202210287116-5042-02             TERMINAL                 CCN000148500000148500FN00000000020221101000148500NNM   20220826132514    4P0P  00001350000000560300000845532AF    HBYHVTB 006400630015
BI00B32AF    JTB2114        202211047116-5042-02             TERMINAL                 CCN000162000000162000FN00000000020221101000162000NNM   20220826132514    4P0P  00001350000000560300000845532AF    HBYHVTB 006400630015
BI00B32AF    JTB2112        202210217116-5043-02             TERMINAL FEMALE          CCN000108000000108000FN00000000020221101000108000NNM   20220826132514    4P0P  00001200000000559200000844432AF    HBYHVTB 006400630015
BI00B32AF    JTB2113        202210287116-5043-02             TERMINAL FEMALE          CCN000084000000084000FN00000000020221101000084000NNM   20220826132514    4P0P  00001200000000559200000844432AF    HBYHVTB 006400630015
BI00B32AF    JTB2114        202211047116-5043-02             TERMINAL FEMALE          CCN000096000000096000FN00000000020221101000096000NNM   20220826132514    4P0P  00001200000000559200000844432AF    HBYHVTB 006400630015
BI00B32AF    JTB2113        202210287116-5044-02             TERMINAL                 CCN000032000000032000FN00000000020221101000032000NNM   20220826132514    4P0P  00001600000000641600000986332AF    HBYHVTB 006400630017
BI00B32AF    JTB2114        202211047116-5044-02             TERMINAL                 CCN000064000000064000FN00000000020221101000064000NNM   20220826132514    4P0P  00001600000000641600000986332AF    HBYHVTB 006400630017
BI00B32AF    JTB2112        202210217116-5045-02             TERMINAL                 CCN000016000000016000FN00000000020221101000016000NNM   20220826132514    4P0P  00001600000000678400001007132AF    HBYHVTB 006400630017
BI00B32AF    JTB2114        202211047116-5045-02             TERMINAL                 CCN000016000000016000FN00000000020221101000016000NNM   20220826132514    4P0P  00001600000000678400001007132AF    HBYHVTB 006400630017
BI00B32AF    JTB2112        202210217116-5046-02             TERMINAL                 CCN000012000000012000FN00000000020221101000012000NNM   20220826132514    4P0P  00001200000000544800000873532AF    HBYHVTB 006400630017
BI00B32AF    JTB2111        202210177116-5097-02             TERMINAL                 CCN000045000000045000FN00000000020221101000045000NNM   20220826132514    4P0P  00002250000000531000000816232AF    HBYHVTB 006400630015
BI00B32AF    JTB2112        202210217116-5097-02             TERMINAL                 CCN000067500000067500FN00000000020221101000067500NNM   20220826132514    4P0P  00002250000000531000000816232AF    HBYHVTB 006400630015
BI00B32AF    JTB2113        202210287116-5097-02             TERMINAL                 CCN000067500000067500FN00000000020221101000067500NNM   20220826132514    4P0P  00002250000000531000000816232AF    HBYHVTB 006400630015
BI00B32AF    JTB2114        202211047116-5097-02             TERMINAL                 CCN000045000000045000FN00000000020221101000045000NNM   20220826132514    4P0P  00002250000000531000000816232AF    HBYHVTB 006400630015
BI00B32AF    JTB2111        202210177116-5750-02             TERMINAL                 CCN000150000000150000FN00000000020221101000150000NNM   20220826132514    4P0P  00001500000000457500000742732AF    HBYHVTB 006400630015
BI00B32AF    JTB2112        202210217116-5750-02             TERMINAL                 CCN000255000000255000FN00000000020221101000255000NNM   20220826132514    4P0P  00001500000000457500000742732AF    HBYHVTB 006400630015
BI00B32AF    JTB2113        202210287116-5750-02             TERMINAL                 CCN000270000000270000FN00000000020221101000270000NNM   20220826132514    4P0P  00001500000000457500000742732AF    HBYHVTB 006400630015
BI00B32AF    JTB2114        202211047116-5750-02             TERMINAL                 CCN000285000000285000FN00000000020221101000285000NNM   20220826132514    4P0P  00001500000000457500000742732AF    HBYHVTB 006400630015
BI00B32AF    JTB2111        202210177116-5752-02             TERMINAL                 CCN000105000000105000FN00000000020221101000105000NNM   20220826132514    4P0P  00002100000000571200000856432AF    HBYHVTB 006400630015
BI00B32AF    JTB2112        202210217116-5752-02             TERMINAL                 CCN000105000000105000FN00000000020221101000105000NNM   20220826132514    4P0P  00002100000000571200000856432AF    HBYHVTB 006400630015
BI00B32AF    JTB2113        202210287116-5752-02             TERMINAL                 CCN000084000000084000FN00000000020221101000084000NNM   20220826132514    4P0P  00002100000000571200000856432AF    HBYHVTB 006400630015
BI00B32AF    JTB2114        202211047116-5752-02             TERMINAL                 CCN000084000000084000FN00000000020221101000084000NNM   20220826132514    4P0P  00002100000000571200000856432AF    HBYHVTB 006400630015
BI00B32AF    JTB2112        202210217116-6041                TERMINAL                 CCN000009000000009000FN00000000020221101000009000NNM   20220826132514    4P0P  00000450000000716000001009632AF    HBYHVTB 006400630015
BI00B32AF    JTB2113        202210287116-6041                TERMINAL                 CCN000013500000013500FN00000000020221101000013500NNM   20220826132514    4P0P  00000450000000716000001009632AF    HBYHVTB 006400630015
BI00B32AF    JTB2114        202211047116-6041                TERMINAL                 CCN000013500000013500FN00000000020221101000013500NNM   20220826132514    4P0P  00000450000000716000001009632AF    HBYHVTB 006400630015
BI00B32AF    JTB2111        202210177126-8853-02             TERMINAL                 CCN000007500000007500FN00000000020221101000007500NNM   20220826132514    4P0P  00000750000000562500000847732AF    HBYHVTB 006400630015
BI00B32AF    JTB2112        202210217126-8853-02             TERMINAL                 CCN000007500000007500FN00000000020221101000007500NNM   20220826132514    4P0P  00000750000000562500000847732AF    HBYHVTB 006400630015
BI00B32AF    JTB2112        202210217126-8855-02             TERMINAL                 CCN000042000000042000FN00000000020221101000042000NNM   20220826132514    4P0P  00000600000000510600000795832AF    HBYHVTB 006400630015
BI00B32AF    JTB2113        202210287126-8855-02             TERMINAL                 CCN000042000000042000FN00000000020221101000042000NNM   20220826132514    4P0P  00000600000000510600000795832AF    HBYHVTB 006400630015
BI00B32AF    JTB2114        202211047126-8855-02             TERMINAL                 CCN000030000000030000FN00000000020221101000030000NNM   20220826132514    4P0P  00000600000000510600000795832AF    HBYHVTB 006400630015
BI00B32AF    JTB2111        202210177158-3006-90             RUBBER STOPPER           CCN000020000000020000FN00000000020221101000020000NNM   20220826132514    1C0C  00002000000000330600000386032AF    HBYHVTB 002700430014
BI00B32AF    JTB2112        202210217158-3006-90             RUBBER STOPPER           CCN000020000000020000FN00000000020221101000020000NNM   20220826132514    1C0C  00002000000000330600000386032AF    HBYHVTB 002700430014
BI00B32AF    JTB2113        202210287158-3006-90             RUBBER STOPPER           CCN000020000000020000FN00000000020221101000020000NNM   20220826132514    1C0C  00002000000000330600000386032AF    HBYHVTB 002700430014
BI00B32AF    JTB2111        202210177158-3009-60             RUBBER STOPPER           CCN000020000000020000FN00000000020221101000020000NNM   20220826132514    1C0C  00002000000000338000000386232AF    HBYHVTB 002700430014
BI00B32AF    JTB2112        202210217158-3009-60             RUBBER STOPPER           CCN000040000000040000FN00000000020221101000040000NNM   20220826132514    1C0C  00002000000000338000000386232AF    HBYHVTB 002700430014
BI00B32AF    JTB2113        202210287158-3009-60             RUBBER STOPPER           CCN000080000000080000FN00000000020221101000080000NNM   20220826132514    1C0C  00002000000000338000000386232AF    HBYHVTB 002700430014
BI00B32AF    JTB2114        202211047158-3009-60             RUBBER STOPPER           CCN000060000000060000FN00000000020221101000060000NNM   20220826132514    1C0C  00002000000000338000000386232AF    HBYHVTB 002700430014
BI00B32AF    JTB2112        202210217158-3070-80             RUBBER STOPPER           CCN000040000000040000FN00000000020221101000040000NNM   20220826132514    1C0C  00004000000000276000000333332AF    HBYHVTB 002700430014
BI00B32AF    JTB2113        202210287158-3070-80             RUBBER STOPPER           CCN000040000000040000FN00000000020221101000040000NNM   20220826132514    1C0C  00004000000000276000000333332AF    HBYHVTB 002700430014
BI00B32AF    JTB2111        202210177158-3165-90             WIRE SEAL                CCN000120000000120000FN00000000020221101000120000NNM   20220826132514    1C0C  00004000000000124000000172432AF    HBYHVTB 004300270014
BI00B32AF    JTB2112        202210217158-3165-90             WIRE SEAL                CCN000320000000320000FN00000000020221101000320000NNM   20220826132514    1C0C  00004000000000124000000172432AF    HBYHVTB 004300270014
BI00B32AF    JTB2113        202210287158-3165-90             WIRE SEAL                CCN000320000000320000FN00000000020221101000320000NNM   20220826132514    1C0C  00004000000000124000000172432AF    HBYHVTB 004300270014
BI00B32AF    JTB2114        202211047158-3165-90             WIRE SEAL                CCN000320000000320000FN00000000020221101000320000NNM   20220826132514    1C0C  00004000000000124000000172432AF    HBYHVTB 004300270014
BI00B32AF    JTB2111        202210177158-3166-60             WIRE SEAL                CCN000080000000080000FN00000000020221101000080000NNM   20220826132514    1C0C  00004000000000104000000152432AF    HBYHVTB 002700430014
BI00B32AF    JTB2112        202210217158-3166-60             WIRE SEAL                CCN000080000000080000FN00000000020221101000080000NNM   20220826132514    1C0C  00004000000000104000000152432AF    HBYHVTB 002700430014
BI00B32AF    JTB2113        202210287158-3166-60             WIRE SEAL                CCN000040000000040000FN00000000020221101000040000NNM   20220826132514    1C0C  00004000000000104000000152432AF    HBYHVTB 002700430014
BI00B32AF    JTB2114        202211047158-3166-60             WIRE SEAL                CCN000080000000080000FN00000000020221101000080000NNM   20220826132514    1C0C  00004000000000104000000152432AF    HBYHVTB 002700430014
BI00B32AF    JTB2112        202210217158-3167-80             WIRE SEAL                CCN000020000000020000FN00000000020221101000020000NNM   20220826132514    1C0C  00002000000000048000000109032AF    HBYHVTB 002700430014
BI00B32AF    JTB2111        202210177158-3169-40             SEALING PLUG             CCN000040000000040000FN00000000020221101000040000NNM   20220826132514    1C0C  00004000000000156000000204132AF    HBYHVTB 004300260014
BI00B32AF    JTB2112        202210217158-3169-40             SEALING PLUG             CCN000120000000120000FN00000000020221101000120000NNM   20220826132514    1C0C  00004000000000156000000204132AF    HBYHVTB 004300260014
BI00B32AF    JTB2113        202210287158-3169-40             SEALING PLUG             CCN000080000000080000FN00000000020221101000080000NNM   20220826132514    1C0C  00004000000000156000000204132AF    HBYHVTB 004300260014
BI00B32AF    JTB2114        202211047158-3169-40             SEALING PLUG             CCN000120000000120000FN00000000020221101000120000NNM   20220826132514    1C0C  00004000000000156000000204132AF    HBYHVTB 004300260014
BI00B32AF    JTB2111        202210177195-1463-02             TERMINAL MALE            CCN000028500000028500FN00000000020221101000028500NNM   20220826132514    4P0P  00002850000000456000000741232AF    HBYHVTB 006400630015
BI00B32AF    JTB2112        202210217195-1463-02             TERMINAL MALE            CCN000142500000142500FN00000000020221101000142500NNM   20220826132514    4P0P  00002850000000456000000741232AF    HBYHVTB 006400630015
BI00B32AF    JTB2113        202210287195-1463-02             TERMINAL MALE            CCN000114000000114000FN00000000020221101000114000NNM   20220826132514    4P0P  00002850000000456000000741232AF    HBYHVTB 006400630015
BI00B32AF    JTB2114        202211047195-1463-02             TERMINAL MALE            CCN000114000000114000FN00000000020221101000114000NNM   20220826132514    4P0P  00002850000000456000000741232AF    HBYHVTB 006400630015
BI00B32AF    JTB2111        202210177195-1464-02             TERMINAL MALE            CCN000025500000025500FN00000000020221101000025500NNM   20220826132514    4P0P  00002550000000420800000706032AF    HBYHVTB 006400630015
BI00B32AF    JTB2113        202210287195-1464-02             TERMINAL MALE            CCN000025500000025500FN00000000020221101000025500NNM   20220826132514    4P0P  00002550000000420800000706032AF    HBYHVTB 006400630015
BI00B32AF    JTB2112        202210217195-1467-02             TERMINAL MALE            CCN000028500000028500FN00000000020221101000028500NNM   20220826132514    4P0P  00002850000000438900000724132AF    HBYHVTB 006400630015
BI00B32AF    JTB2112        202210217195-1479-02             TERMINAL MALE            CCN000024000000024000FN00000000020221101000024000NNM   20220826132514    4P0P  00002400000000420000000714232AF    HBYHVTB 006400630015
BI00B32AF    JTB2112        202210217195-1935-02             TERMINAL MALE            CCN000019500000019500FN00000000020221101000019500NNM   20220826132514    4P0P  00001950000000670800000964432AF    HBYHVTB 006400630015
BI00B32AF    JTB2113        202210287195-1935-02             TERMINAL MALE            CCN000019500000019500FN00000000020221101000019500NNM   20220826132514    4P0P  00001950000000670800000964432AF    HBYHVTB 006400630015
BI00B32AF    JTB2114        202211047195-1937-02             TERMINAL MALE            CCN000015000000015000FN00000000020221101000015000NNM   20220826132514    4P0P  00001500000000594000000887632AF    HBYHVTB 006400630015
BI00B32AF    JTB2114        202211047196-0805-02             TERMINAL FEMALE          CCN000022500000022500FN00000000020221101000022500NNM   20220826132514    4P0P  00002250000000558000000843232AF    HBYHVTB 006400630015
BI00B32AF    JTB2112        202210217196-1102-02             TERMINAL                 CCN000022500000022500FN00000000020221101000022500NNM   20220826132514    4P0P  00002250000000405000000690232AF    HBYHVTB 006400630015
BI00B32AF    JTB2113        202210287196-1102-02             TERMINAL                 CCN000022500000022500FN00000000020221101000022500NNM   20220826132514    4P0P  00002250000000405000000690232AF    HBYHVTB 006400630015
BI00B32AF    JTB2114        202211047196-1102-02             TERMINAL                 CCN000022500000022500FN00000000020221101000022500NNM   20220826132514    4P0P  00002250000000405000000690232AF    HBYHVTB 006400630015
BI00B32AF    JTB2111        202210177196-1103-02             TERMINAL                 CCN000022500000022500FN00000000020221101000022500NNM   20220826132514    4P0P  00002250000000429800000715032AF    HBYHVTB 006400630015
BI00B32AF    JTB2112        202210217196-1103-02             TERMINAL                 CCN000022500000022500FN00000000020221101000022500NNM   20220826132514    4P0P  00002250000000429800000715032AF    HBYHVTB 006400630015
BI00B32AF    JTB2113        202210287196-1103-02             TERMINAL                 CCN000022500000022500FN00000000020221101000022500NNM   20220826132514    4P0P  00002250000000429800000715032AF    HBYHVTB 006400630015
BI00B32AF    JTB2114        202211047196-1103-02             TERMINAL                 CCN000022500000022500FN00000000020221101000022500NNM   20220826132514    4P0P  00002250000000429800000715032AF    HBYHVTB 006400630015
BI00B32AF    JTB2112        202210217196-1104-02             TERMINAL                 CCN000022500000022500FN00000000020221101000022500NNM   20220826132514    4P0P  00002250000000441000000726232AF    HBYHVTB 006400630015
BI00B32AF    JTB2113        202210287196-1104-02             TERMINAL                 CCN000022500000022500FN00000000020221101000022500NNM   20220826132514    4P0P  00002250000000441000000726232AF    HBYHVTB 006400630015
BI00B32AF    JTB2111        202210177196-1325-02             TERMINAL FEMALE          CCN000060000000060000FN00000000020221101000060000NNM   20220826132514    4P0P  00006000000000450000000778732AF    HBYHVTB 006400630017
BI00B32AF    JTB2111        202210177196-1326-02             TERMINAL FEMALE          CCN000060000000060000FN00000000020221101000060000NNM   20220826132514    4P0P  00006000000000456000000784732AF    HBYHVTB 006400630017
BI00B32AF    JTB2112        202210217196-1326-02             TERMINAL FEMALE          CCN000060000000060000FN00000000020221101000060000NNM   20220826132514    4P0P  00006000000000456000000784732AF    HBYHVTB 006400630017
BI00B32AF    JTB2113        202210287196-1326-02             TERMINAL FEMALE          CCN000060000000060000FN00000000020221101000060000NNM   20220826132514    4P0P  00006000000000456000000784732AF    HBYHVTB 006400630017
BI00B32AF    JTB2114        202211047196-1326-02             TERMINAL FEMALE          CCN000060000000060000FN00000000020221101000060000NNM   20220826132514    4P0P  00006000000000456000000784732AF    HBYHVTB 006400630017
BI00B32AF    JTB2111        202210177196-1460-02             TERMINAL FEMALE          CCN000142500000142500FN00000000020221101000142500NNM   20220826132514    4P0P  00002850000000444600000729832AF    HBYHVTB 006400630015
BI00B32AF    JTB2112        202210217196-1460-02             TERMINAL FEMALE          CCN000256500000256500FN00000000020221101000256500NNM   20220826132514    4P0P  00002850000000444600000729832AF    HBYHVTB 006400630015
BI00B32AF    JTB2113        202210287196-1460-02             TERMINAL FEMALE          CCN000285000000285000FN00000000020221101000285000NNM   20220826132514    4P0P  00002850000000444600000729832AF    HBYHVTB 006400630015
BI00B32AF    JTB2114        202211047196-1460-02             TERMINAL FEMALE          CCN000285000000285000FN00000000020221101000285000NNM   20220826132514    4P0P  00002850000000444600000729832AF    HBYHVTB 006400630015
BI00B32AF    JTB2111        202210177196-1461-02             TERMINAL FEMALE          CCN000072000000072000FN00000000020221101000072000NNM   20220826132514    4P0P  00002400000000386400000671632AF    HBYHVTB 006400630015
BI00B32AF    JTB2112        202210217196-1461-02             TERMINAL FEMALE          CCN000048000000048000FN00000000020221101000048000NNM   20220826132514    4P0P  00002400000000386400000671632AF    HBYHVTB 006400630015
BI00B32AF    JTB2113        202210287196-1461-02             TERMINAL FEMALE          CCN000072000000072000FN00000000020221101000072000NNM   20220826132514    4P0P  00002400000000386400000671632AF    HBYHVTB 006400630015
BI00B32AF    JTB2114        202211047196-1461-02             TERMINAL FEMALE          CCN000048000000048000FN00000000020221101000048000NNM   20220826132514    4P0P  00002400000000386400000671632AF    HBYHVTB 006400630015
BI00B32AF    JTB2111        202210177196-1466-02             TERMINAL MALE            CCN000028500000028500FN00000000020221101000028500NNM   20220826132514    4P0P  00002850000000427500000712732AF    HBYHVTB 006400630015
BI00B32AF    JTB2112        202210217196-1466-02             TERMINAL MALE            CCN000028500000028500FN00000000020221101000028500NNM   20220826132514    4P0P  00002850000000427500000712732AF    HBYHVTB 006400630015
BI00B32AF    JTB2113        202210287196-1466-02             TERMINAL MALE            CCN000028500000028500FN00000000020221101000028500NNM   20220826132514    4P0P  00002850000000427500000712732AF    HBYHVTB 006400630015
BI00B32AF    JTB2114        202211047196-1466-02             TERMINAL MALE            CCN000028500000028500FN00000000020221101000028500NNM   20220826132514    4P0P  00002850000000427500000712732AF    HBYHVTB 006400630015
BI00B32AF    JTB2114        202211047196-1933-02             TERMINAL FEMALE          CCN000021000000021000FN00000000020221101000021000NNM   20220826132514    4P0P  00002100000000590100000875332AF    HBYHVTB 006400630015
BI00B32AF    JTB2111        202210177196-1934-02             TERMINAL FEMALE          CCN000019500000019500FN00000000020221101000019500NNM   20220826132514    4P0P  00001950000000561600000846832AF    HBYHVTB 006400630015
BI00B32AF    JTB2111        202210177196-1935-02             TERMINAL FEMALE          CCN000018000000018000FN00000000020221101000018000NNM   20220826132514    4P0P  00001800000000534600000819832AF    HBYHVTB 006400630015
BI00B32AF    JTB2112        202210217196-1935-02             TERMINAL FEMALE          CCN000018000000018000FN00000000020221101000018000NNM   20220826132514    4P0P  00001800000000534600000819832AF    HBYHVTB 006400630015
BI00B32AF    JTB2111        202210177196-1937-02             TERMINAL FEMALE          CCN000013500000013500FN00000000020221101000013500NNM   20220826132514    4P0P  00001350000000446900000732132AF    HBYHVTB 006400630015
BI00B32AF    JTB2111        202210177282-4578-30             HOUSING MALE ASS'Y       CCN000003600000003600FN00000000020221101000003600NNM   20220826132514    4N0N  00000120000000782600000992632AF    HBYHVTB 005500360039
BI00B32AF    JTB2112        202210217282-4578-30             HOUSING MALE ASS'Y       CCN000003600000003600FN00000000020221101000003600NNM   20220826132514    4N0N  00000120000000782600000992632AF    HBYHVTB 005500360039
BI00B32AF    JTB2113        202210287282-4578-30             HOUSING MALE ASS'Y       CCN000003600000003600FN00000000020221101000003600NNM   20220826132514    4N0N  00000120000000782600000992632AF    HBYHVTB 005500360039
BI00B32AF    JTB2114        202211047282-4578-30             HOUSING MALE ASS'Y       CCN000003600000003600FN00000000020221101000003600NNM   20220826132514    4N0N  00000120000000782600000992632AF    HBYHVTB 005500360039
BI00B32AF    JTB2111        202210177282-4855                HOUSING MALE ASS'Y       CCN000001200000001200FN00000000020221101000001200NNM   20220826132514    4N0N  00000120000001063200001283232AF    HBYHVTB 005500360039
BI00B32AF    JTB2112        202210217282-4855                HOUSING MALE ASS'Y       CCN000001200000001200FN00000000020221101000001200NNM   20220826132514    4N0N  00000120000001063200001283232AF    HBYHVTB 005500360039
BI00B32AF    JTB2113        202210287282-4855                HOUSING MALE ASS'Y       CCN000002400000002400FN00000000020221101000002400NNM   20220826132514    4N0N  00000120000001063200001283232AF    HBYHVTB 005500360039
BI00B32AF    JTB2114        202211047282-4855                HOUSING MALE ASS'Y       CCN000001200000001200FN00000000020221101000001200NNM   20220826132514    4N0N  00000120000001063200001283232AF    HBYHVTB 005500360039
BI00B32AF    JTB2112        202210217283-1028                CONNECTOR HOUSING        CCN000006000000006000FN00000000020221101000006000NNM   20220826132514    4N0N  00000600000000779000001019332AF    HBYHVTB 005600390040
BI00B32AF    JTB2113        202210287283-1028                CONNECTOR HOUSING        CCN000006000000006000FN00000000020221101000006000NNM   20220826132514    4N0N  00000600000000779000001019332AF    HBYHVTB 005600390040
BI00B32AF    JTB2114        202211047283-1028                CONNECTOR HOUSING        CCN000006000000006000FN00000000020221101000006000NNM   20220826132514    4N0N  00000600000000779000001019332AF    HBYHVTB 005600390040
BI00B32AF    JTB2111        202210177283-1156                CONNECTOR                CCN000001600000001600FN00000000020221101000001600NNM   20220826132514    4N0N  00000080000000877600001078032AF    HBYHVTB 005600390040
BI00B32AF    JTB2112        202210217283-1156                CONNECTOR                CCN000004800000004800FN00000000020221101000004800NNM   20220826132514    4N0N  00000080000000877600001078032AF    HBYHVTB 005600390040
BI00B32AF    JTB2113        202210287283-1156                CONNECTOR                CCN000005600000005600FN00000000020221101000005600NNM   20220826132514    4N0N  00000080000000877600001078032AF    HBYHVTB 005600390040
BI00B32AF    JTB2114        202211047283-1156                CONNECTOR                CCN000005600000005600FN00000000020221101000005600NNM   20220826132514    4N0N  00000080000000877600001078032AF    HBYHVTB 005600390040
BI00B32AF    JTB2111        202210177283-4576                HOUSING FEMALE ASS'Y     CCN000028800000028800FN00000000020221101000028800NNM   20220826132514    4N0N  00000480000000651300000871332AF    HBYHVTB 005500360039
BI00B32AF    JTB2112        202210217283-4576                HOUSING FEMALE ASS'Y     CCN000033600000033600FN00000000020221101000033600NNM   20220826132514    4N0N  00000480000000651300000871332AF    HBYHVTB 005500360039
BI00B32AF    JTB2113        202210287283-4576                HOUSING FEMALE ASS'Y     CCN000028800000028800FN00000000020221101000028800NNM   20220826132514    4N0N  00000480000000651300000871332AF    HBYHVTB 005500360039
BI00B32AF    JTB2114        202211047283-4576                HOUSING FEMALE ASS'Y     CCN000033600000033600FN00000000020221101000033600NNM   20220826132514    4N0N  00000480000000651300000871332AF    HBYHVTB 005500360039
BI00B32AF    JTB2111        202210177283-4577                CONNECTOR HOUSING        CCN000004800000004800FN00000000020221101000004800NNM   20220826132514    4N0N  00000480000000916800001136832AF    HBYHVTB 005500360039
BI00B32AF    JTB2112        202210217283-4577                CONNECTOR HOUSING        CCN000004800000004800FN00000000020221101000004800NNM   20220826132514    4N0N  00000480000000916800001136832AF    HBYHVTB 005500360039
BI00B32AF    JTB2113        202210287283-4577                CONNECTOR HOUSING        CCN000004800000004800FN00000000020221101000004800NNM   20220826132514    4N0N  00000480000000916800001136832AF    HBYHVTB 005500360039
BI00B32AF    JTB2114        202211047283-4577                CONNECTOR HOUSING        CCN000004800000004800FN00000000020221101000004800NNM   20220826132514    4N0N  00000480000000916800001136832AF    HBYHVTB 005500360039
BI00B32AF    JTB2111        202210177283-4854                CONNECTOR HOUSING        CCN000002400000002400FN00000000020221101000002400NNM   20220826132514    4N0N  00000240000000694100000914132AF    HBYHVTB 005500360039
BI00B32AF    JTB2113        202210287283-4854                CONNECTOR HOUSING        CCN000002400000002400FN00000000020221101000002400NNM   20220826132514    4N0N  00000240000000694100000914132AF    HBYHVTB 005500360039
BI00B32AF    JTB2114        202211047283-4854                CONNECTOR HOUSING        CCN000002400000002400FN00000000020221101000002400NNM   20220826132514    4N0N  00000240000000694100000914132AF    HBYHVTB 005500360039
BI00B32AF    JTB2111        202210177283-4855                CONNECTOR HOUSING        CCN000004800000004800FN00000000020221101000004800NNM   20220826132514    4N0N  00000240000001188400001400032AF    HBYHVTB 005500360039
BI00B32AF    JTB2112        202210217283-4855                CONNECTOR HOUSING        CCN000007200000007200FN00000000020221101000007200NNM   20220826132514    4N0N  00000240000001188400001400032AF    HBYHVTB 005500360039
BI00B32AF    JTB2113        202210287283-4855                CONNECTOR HOUSING        CCN000004800000004800FN00000000020221101000004800NNM   20220826132514    4N0N  00000240000001188400001400032AF    HBYHVTB 005500360039
BI00B32AF    JTB2114        202211047283-4855                CONNECTOR HOUSING        CCN000004800000004800FN00000000020221101000004800NNM   20220826132514    4N0N  00000240000001188400001400032AF    HBYHVTB 005500360039
BI00B32AF    JTB2114        202211047283-5830                CONNECTOR                CCN000006000000006000FN00000000020221101000006000NNM   20220826132514    1N47  00000600000000954000001104032AF    HBYHVTB 005500360039
BI00B32AF    JTB2111        202210177283-5845                CONNECTOR HOUSING        CCN000024000000024000FN00000000020221101000024000NNM   20220826132514    1N0N  00000600000000444000000606332AF    HBYHVTB 005400370024
BI00B32AF    JTB2112        202210217283-5845                CONNECTOR HOUSING        CCN000036000000036000FN00000000020221101000036000NNM   20220826132514    1N0N  00000600000000444000000606332AF    HBYHVTB 005400370024
BI00B32AF    JTB2113        202210287283-5845                CONNECTOR HOUSING        CCN000030000000030000FN00000000020221101000030000NNM   20220826132514    1N0N  00000600000000444000000606332AF    HBYHVTB 005400370024
BI00B32AF    JTB2114        202211047283-5845                CONNECTOR HOUSING        CCN000030000000030000FN00000000020221101000030000NNM   20220826132514    1N0N  00000600000000444000000606332AF    HBYHVTB 005400370024
BI00B32AF    JTB2112        202210217283-5846                HOUSING                  CCN000013500000013500FN00000000020221101000013500NNM   20220826132514    1N0N  00000150000000885000001102032AF    HBYHVTB 005600390040
BI00B32AF    JTB2113        202210287283-5846                HOUSING                  CCN000012000000012000FN00000000020221101000012000NNM   20220826132514    1N0N  00000150000000885000001102032AF    HBYHVTB 005600390040
BI00B32AF    JTB2114        202211047283-5846                HOUSING                  CCN000010500000010500FN00000000020221101000010500NNM   20220826132514    1N0N  00000150000000885000001102032AF    HBYHVTB 005600390040
BI00B32AF    JTB2111        202210177283-8853-30             HOUSING FEMALE ASS'Y     CCN000002400000002400FN00000000020221101000002400NNM   20220826132514    4N0N  00000240000001120600001336032AF    HBYHVTB 005500360039
BI00B32AF    JTB2112        202210217283-8853-30             HOUSING FEMALE ASS'Y     CCN000007200000007200FN00000000020221101000007200NNM   20220826132514    4N0N  00000240000001120600001336032AF    HBYHVTB 005500360039
BI00B32AF    JTB2113        202210287283-8853-30             HOUSING FEMALE ASS'Y     CCN000004800000004800FN00000000020221101000004800NNM   20220826132514    4N0N  00000240000001120600001336032AF    HBYHVTB 005500360039
BI00B32AF    JTB2114        202211047283-8853-30             HOUSING FEMALE ASS'Y     CCN000007200000007200FN00000000020221101000007200NNM   20220826132514    4N0N  00000240000001120600001336032AF    HBYHVTB 005500360039
BI00B32AF    JTB2112        202210217286-1899                HOUSING SUB ASSEMBLY     CCN000009408000009408FN00000000020221101000009408NNM   20220826132514    4N0N  00000033600000814800001010832AF    HBYHVTB 005400370024
BI00B32AF    JTB2113        202210287286-1899                HOUSING SUB ASSEMBLY     CCN000011088000011088FN00000000020221101000011088NNM   20220826132514    4N0N  00000033600000814800001010832AF    HBYHVTB 005400370024
BI00B32AF    JTB2114        202211047286-1899                HOUSING SUB ASSEMBLY     CCN000011424000011424FN00000000020221101000011424NNM   20220826132514    4N0N  00000033600000814800001010832AF    HBYHVTB 005400370024
BI00B32AF    JTB2112        202210217286-1900                CONNECTOR HOUSING        CCN000009600000009600FN00000000020221101000009600NNM   20220826132514    4N0N  00000480000001161600001376632AF    HBYHVTB 005500360039
BI00B32AF    JTB2113        202210287286-1900                CONNECTOR HOUSING        CCN000009600000009600FN00000000020221101000009600NNM   20220826132514    4N0N  00000480000001161600001376632AF    HBYHVTB 005500360039
BI00B32AF    JTB2114        202211047286-1900                CONNECTOR HOUSING        CCN000014400000014400FN00000000020221101000014400NNM   20220826132514    4N0N  00000480000001161600001376632AF    HBYHVTB 005500360039
BI00B32AF    JTB2112        202210217286-4097                CONNECTOR MALE ASS'Y     CCN000003200000003200FN00000000020221101000003200NNM   20220826132514    1N0N  00000160000000768000000978032AF    HBYHVTB 005500360039
BI00B32AF    JTB2113        202210287286-4097                CONNECTOR MALE ASS'Y     CCN000004800000004800FN00000000020221101000004800NNM   20220826132514    1N0N  00000160000000768000000978032AF    HBYHVTB 005500360039
BI00B32AF    JTB2114        202211047286-4097                CONNECTOR MALE ASS'Y     CCN000004800000004800FN00000000020221101000004800NNM   20220826132514    1N0N  00000160000000768000000978032AF    HBYHVTB 005500360039
BI00B32AF    JTB2111        202210177287-9234                JOINT CONNECTOR          CCN000009600000009600FN00000000020221101000009600NNM   20220826132514    4N0N  00000960000000893800001184832AF    HBYHVTB 005500360039
BI00B32AF    JTB2111        202210177289-3342                HOUSING FEMALE ASS'Y     CCN000004800000004800FN00000000020221101000004800NNM   20220826132514    1N0N  00000240000000686400000901432AF    HBYHVTB 005500360039
BI00B32AF    JTB2112        202210217289-3342                HOUSING FEMALE ASS'Y     CCN000014400000014400FN00000000020221101000014400NNM   20220826132514    1N0N  00000240000000686400000901432AF    HBYHVTB 005500360039
BI00B32AF    JTB2113        202210287289-3342                HOUSING FEMALE ASS'Y     CCN000009600000009600FN00000000020221101000009600NNM   20220826132514    1N0N  00000240000000686400000901432AF    HBYHVTB 005500360039
BI00B32AF    JTB2114        202211047289-3342                HOUSING FEMALE ASS'Y     CCN000014400000014400FN00000000020221101000014400NNM   20220826132514    1N0N  00000240000000686400000901432AF    HBYHVTB 005500360039
BI00B32AF    JTB2111        202210177289-3342-30             HOUSING FEMALE ASS'Y     CCN000014400000014400FN00000000020221101000014400NNM   20220826132514    1N0N  00000240000000686400000901432AF    HBYHVTB 005500360039
BI00B32AF    JTB2112        202210217289-3342-30             HOUSING FEMALE ASS'Y     CCN000040800000040800FN00000000020221101000040800NNM   20220826132514    1N0N  00000240000000686400000901432AF    HBYHVTB 005500360039
BI00B32AF    JTB2113        202210287289-3342-30             HOUSING FEMALE ASS'Y     CCN000036000000036000FN00000000020221101000036000NNM   20220826132514    1N0N  00000240000000686400000901432AF    HBYHVTB 005500360039
BI00B32AF    JTB2114        202211047289-3342-30             HOUSING FEMALE ASS'Y     CCN000038400000038400FN00000000020221101000038400NNM   20220826132514    1N0N  00000240000000686400000901432AF    HBYHVTB 005500360039
BI00B32AF    JTB2112        202210217289-5011-30             HOUSING FEMALE ASS'Y     CCN000026400000026400FN00000000020221101000026400NNM   20220826132514    4N0N  00000240000001171700001368632AF    HBYHVTB 005500360039
BI00B32AF    JTB2113        202210287289-5011-30             HOUSING FEMALE ASS'Y     CCN000028800000028800FN00000000020221101000028800NNM   20220826132514    4N0N  00000240000001171700001368632AF    HBYHVTB 005500360039
BI00B32AF    JTB2114        202211047289-5011-30             HOUSING FEMALE ASS'Y     CCN000028800000028800FN00000000020221101000028800NNM   20220826132514    4N0N  00000240000001171700001368632AF    HBYHVTB 005500360039
BI00B32AF    JTB2111        202210177297-2287-30             HOUSING MALE ASS'Y       CCN000001200000001200FN00000000020221101000001200NNM   20220826132514    4N0N  00000120000000473900000590032AF    HBYHVTB 005400370024
BI00B32AF    JTB2112        202210217297-2287-30             HOUSING MALE ASS'Y       CCN000002400000002400FN00000000020221101000002400NNM   20220826132514    4N0N  00000120000000473900000590032AF    HBYHVTB 005400370024
BI00B32AF    JTB2113        202210287297-2287-30             HOUSING MALE ASS'Y       CCN000001200000001200FN00000000020221101000001200NNM   20220826132514    4N0N  00000120000000473900000590032AF    HBYHVTB 005400370024
BI00B32AF    JTB2114        202211047297-2287-30             HOUSING MALE ASS'Y       CCN000001200000001200FN00000000020221101000001200NNM   20220826132514    4N0N  00000120000000473900000590032AF    HBYHVTB 005400370024
BI00B32AF    JTB2111        202210177298-1865-30             HOUSING FEMALE ASS'Y     CCN000007200000007200FN00000000020221101000007200NNM   20220826132514    4N0N  00000240000001003200001204532AF    HBYHVTB 005500360039
BI00B32AF    JTB2112        202210217298-1865-30             HOUSING FEMALE ASS'Y     CCN000019200000019200FN00000000020221101000019200NNM   20220826132514    4N0N  00000240000001003200001204532AF    HBYHVTB 005500360039
BI00B32AF    JTB2113        202210287298-1865-30             HOUSING FEMALE ASS'Y     CCN000028800000028800FN00000000020221101000028800NNM   20220826132514    4N0N  00000240000001003200001204532AF    HBYHVTB 005500360039
BI00B32AF    JTB2114        202211047298-1865-30             HOUSING FEMALE ASS'Y     CCN000040800000040800FN00000000020221101000040800NNM   20220826132514    4N0N  00000240000001003200001204532AF    HBYHVTB 005500360039
BI00B32AF    JTB2112        202210217298-1869-30             HOUSING FEMALE ASS'Y     CCN000001200000001200FN00000000020221101000001200NNM   20220826132514    4N0N  00000120000000737000000939832AF    HBYHVTB 005500360039
BI00B32AF    JTB2113        202210287298-1869-30             HOUSING FEMALE ASS'Y     CCN000001200000001200FN00000000020221101000001200NNM   20220826132514    4N0N  00000120000000737000000939832AF    HBYHVTB 005500360039
BI00B32AF    JTB2114        202211047298-1869-30             HOUSING FEMALE ASS'Y     CCN000002400000002400FN00000000020221101000002400NNM   20220826132514    4N0N  00000120000000737000000939832AF    HBYHVTB 005500360039
BI00B32AF    JTB2112        202210217298-2278-30             HOUSING FEMALE ASS'Y     CCN000004800000004800FN00000000020221101000004800NNM   20220826132514    4N0N  00000240000001091700001295432AF    HBYHVTB 005500360039
BI00B32AF    JTB2113        202210287298-2278-30             HOUSING FEMALE ASS'Y     CCN000002400000002400FN00000000020221101000002400NNM   20220826132514    4N0N  00000240000001091700001295432AF    HBYHVTB 005500360039
BI00B32AF    JTB2114        202211047298-2278-30             HOUSING FEMALE ASS'Y     CCN000004800000004800FN00000000020221101000004800NNM   20220826132514    4N0N  00000240000001091700001295432AF    HBYHVTB 005500360039
BI00B32AF    JTB2113        202210287298-2280-30             HOUSING FEMALE ASS'Y     CCN000001920000001920FN00000000020221101000001920NNM   20220826132514    4N0N  00000192000001068000001216032AF    HBYHVTB 005500360039
BI00B32AF    JTB2111        202210177298-2507-30             HOUSING FEMALE ASS'Y     CCN000002400000002400FN00000000020221101000002400NNM   20220826132514    4N0N  00000120000000713200000914532AF    HBYHVTB 005500360039
BI00B32AF    JTB2112        202210217298-2507-30             HOUSING FEMALE ASS'Y     CCN000002400000002400FN00000000020221101000002400NNM   20220826132514    4N0N  00000120000000713200000914532AF    HBYHVTB 005500360039
BI00B32AF    JTB2113        202210287298-2507-30             HOUSING FEMALE ASS'Y     CCN000002400000002400FN00000000020221101000002400NNM   20220826132514    4N0N  00000120000000713200000914532AF    HBYHVTB 005500360039
BI00B32AF    JTB2114        202211047298-2507-30             HOUSING FEMALE ASS'Y     CCN000006000000006000FN00000000020221101000006000NNM   20220826132514    4N0N  00000120000000713200000914532AF    HBYHVTB 005500360039
BI00B32AF    JTB2111        202210177298-2508-30             HOUSING FEMALE ASS'Y     CCN000002400000002400FN00000000020221101000002400NNM   20220826132514    4N0N  00000120000000822000001005032AF    HBYHVTB 005500360039
BI00B32AF    JTB2112        202210217298-2508-30             HOUSING FEMALE ASS'Y     CCN000001200000001200FN00000000020221101000001200NNM   20220826132514    4N0N  00000120000000822000001005032AF    HBYHVTB 005500360039
BI00B32AF    JTB2113        202210287298-2508-30             HOUSING FEMALE ASS'Y     CCN000003600000003600FN00000000020221101000003600NNM   20220826132514    4N0N  00000120000000822000001005032AF    HBYHVTB 005500360039
BI00B32AF    JTB2114        202211047298-2508-30             HOUSING FEMALE ASS'Y     CCN000004800000004800FN00000000020221101000004800NNM   20220826132514    4N0N  00000120000000822000001005032AF    HBYHVTB 005500360039
BI00B32AF    JTB2111        202210177298-2509-30             HOUSING FEMALE ASS'Y     CCN000002400000002400FN00000000020221101000002400NNM   20220826132514    4N0N  00000120000000857500001062532AF    HBYHVTB 005500360039
BI00B32AF    JTB2112        202210217298-2509-30             HOUSING FEMALE ASS'Y     CCN000007200000007200FN00000000020221101000007200NNM   20220826132514    4N0N  00000120000000857500001062532AF    HBYHVTB 005500360039
BI00B32AF    JTB2113        202210287298-2509-30             HOUSING FEMALE ASS'Y     CCN000003600000003600FN00000000020221101000003600NNM   20220826132514    4N0N  00000120000000857500001062532AF    HBYHVTB 005500360039
BI00B32AF    JTB2114        202211047298-2509-30             HOUSING FEMALE ASS'Y     CCN000010800000010800FN00000000020221101000010800NNM   20220826132514    4N0N  00000120000000857500001062532AF    HBYHVTB 005500360039
BI00B32AF    JTB2111        202210177298-5955                CONNECTOR SUB ASSY       CCN000007200000007200FN00000000020221101000007200NNM   20220826132514    4N0N  00000720000001029600001253032AF    HBYHVTB 005500360039
BI00B32AF    JTB2112        202210217298-5955                CONNECTOR SUB ASSY       CCN000043200000043200FN00000000020221101000043200NNM   20220826132514    4N0N  00000720000001029600001253032AF    HBYHVTB 005500360039
BI00B32AF    JTB2113        202210287298-5955                CONNECTOR SUB ASSY       CCN000036000000036000FN00000000020221101000036000NNM   20220826132514    4N0N  00000720000001029600001253032AF    HBYHVTB 005500360039
BI00B32AF    JTB2114        202211047298-5955                CONNECTOR SUB ASSY       CCN000043200000043200FN00000000020221101000043200NNM   20220826132514    4N0N  00000720000001029600001253032AF    HBYHVTB 005500360039
BI00B32AF    JTB2113        202210287386-2747                CONNECTOR ASS'Y          CCN000002000000002000FN00000000020221101000002000NNM   20220826132514    4N0N  00000200000001162000001284532AF    HBYHVTB 005400370024
BI00B32AF    JTB2114        202211047386-2747                CONNECTOR ASS'Y          CCN000002000000002000FN00000000020221101000002000NNM   20220826132514    4N0N  00000200000001162000001284532AF    HBYHVTB 005400370024
BI00B32AF    JTB2111        202210177388-0316-80             CONNECTOR ASS'Y          CCN000001200000001200FN00000000020221101000001200NNM   20220826132514    4N0N  00000120000001002500001132532AF    HBYHVTB 005400370024
BI00B32AF    JTB2112        202210217388-0317-60             CONNECTOR ASS'Y          CCN000007200000007200FN00000000020221101000007200NNM   20220826132514    4N0N  00000120000001034400001129332AF    HBYHVTB 005400370024
BI00B32AF    JTB2113        202210287388-0317-60             CONNECTOR ASS'Y          CCN000009600000009600FN00000000020221101000009600NNM   20220826132514    4N0N  00000120000001034400001129332AF    HBYHVTB 005400370024
BI00B32AF    JTB2114        202211047388-0317-60             CONNECTOR ASS'Y          CCN000010800000010800FN00000000020221101000010800NNM   20220826132514    4N0N  00000120000001034400001129332AF    HBYHVTB 005400370024
BI00B32AF    #JTB2114       202211047114-4022                TERMINAL                 CCN000015000000015000FN00000000020221101000015000NNM   20220826132502    2F0P  00001500000000708000001120632AF    HBYHVTB 006400630015
BI00B32AF    #JTB2112       202210217116-4021                TERMINAL                 CCN000013500000013500FN00000000020221101000013500NNM   20220826132502    2F0P  00001350000000534600000868832AF    HBYHVTB 006400630015
BI00B32AF    #JTB2113       202210287116-4021                TERMINAL                 CCN000013500000013500FN00000000020221101000013500NNM   20220826132502    2F0P  00001350000000534600000868832AF    HBYHVTB 006400630015
BI00B32AF    #JTB2114       202211047116-4021                TERMINAL                 CCN000013500000013500FN00000000020221101000013500NNM   20220826132502    2F0P  00001350000000534600000868832AF    HBYHVTB 006400630015
BI00B32AF    #JTB2112       202210217123-6347                CONNECTOR HOUSING        CCN000003200000003200FN00000000020221101000003200NNM   20220826132502    2F0F  00000160000000647000000904832AF    HBYHVTB 005500360039
BI00B32AF    #JTB2113       202210287123-6347                CONNECTOR HOUSING        CCN000009600000009600FN00000000020221101000009600NNM   20220826132502    2F0F  00000160000000647000000904832AF    HBYHVTB 005500360039
BI00B32AF    #JTB2114       202211047123-6347                CONNECTOR HOUSING        CCN000009600000009600FN00000000020221101000009600NNM   20220826132502    2F0F  00000160000000647000000904832AF    HBYHVTB 005500360039
BI00B32AF    #JTB2111       202210177123-6423-30             CONNECTOR                CCN000004000000004000FN00000000020221101000004000NNM   20220826132502    2F0F  00000200000001002000001167632AF    HBYHVTB 005600390023
BI00B32AF    #JTB2112       202210217123-6423-30             CONNECTOR                CCN000006000000006000FN00000000020221101000006000NNM   20220826132502    2F0F  00000200000001002000001167632AF    HBYHVTB 005600390023
BI00B32AF    #JTB2113       202210287123-6423-30             CONNECTOR                CCN000006000000006000FN00000000020221101000006000NNM   20220826132502    2F0F  00000200000001002000001167632AF    HBYHVTB 005600390023
BI00B32AF    #JTB2114       202211047123-6423-30             CONNECTOR                CCN000006000000006000FN00000000020221101000006000NNM   20220826132502    2F0F  00000200000001002000001167632AF    HBYHVTB 005600390023
BI00B32AF    #JTB2112       202210217157-3992-90             CONNECTOR SEALED         CCN000040000000040000FN00000000020221101000040000NNM   20220826132502    2C0C  00004000000000300000000363332AF    HBYHVTB 002700430014
BI00B32AF    #JTB2111       202210177158-3007-10             RUBBER STOPPER           CCN000020000000020000FN00000000020221101000020000NNM   20220826132502    2H0H  00002000000000308000000362732AF    HBYHVTB 002700430014
BI00B32AF    #JTB2111       202210177158-3008-80             RUBBER STOPPER           CCN000020000000020000FN00000000020221101000020000NNM   20220826132502    2C0C  00002000000000288000000343032AF    HBYHVTB 004300270014
BI00B32AF    #JTB2112       202210217158-3008-80             RUBBER STOPPER           CCN000020000000020000FN00000000020221101000020000NNM   20220826132502    2C0C  00002000000000288000000343032AF    HBYHVTB 004300270014
BI00B32AF    #JTB2113       202210287158-3008-80             RUBBER STOPPER           CCN000020000000020000FN00000000020221101000020000NNM   20220826132502    2C0C  00002000000000288000000343032AF    HBYHVTB 004300270014
BI00B32AF    #JTB2113       202210287158-3120-90             CONNECTOR WIRE SEAL      CCN000080000000080000FN00000000020221101000080000NNM   20220826132502    2C0C  00002000000000136000000194032AF    HBYHVTB 002700430014
BI00B32AF    #JTB2114       202211047158-3120-90             CONNECTOR WIRE SEAL      CCN000080000000080000FN00000000020221101000080000NNM   20220826132502    2C0C  00002000000000136000000194032AF    HBYHVTB 002700430014
BI00B32AF    #JTB2112       202210217158-3121-80             WIRE SEAL                CCN000040000000040000FN00000000020221101000040000NNM   20220826132502    2C0C  00002000000000118000000187332AF    HBYHVTB 002700430014
BI00B32AF    #JTB2113       202210287158-3121-80             WIRE SEAL                CCN000040000000040000FN00000000020221101000040000NNM   20220826132502    2C0C  00002000000000118000000187332AF    HBYHVTB 002700430014
BI00B32AF    #JTB2114       202211047158-3121-80             WIRE SEAL                CCN000040000000040000FN00000000020221101000040000NNM   20220826132502    2C0C  00002000000000118000000187332AF    HBYHVTB 002700430014
BI00B32AF    #JTB2111       202210177172-5629-80             RUBBER STOPPER           CCN000060000000060000FN00000000020221101000060000NNM   20220826132502    2H0H  00002000000000060000000111132AF    HBYHVTB 004300270014
BI00B32AF    #JTB2112       202210217172-5629-80             RUBBER STOPPER           CCN000060000000060000FN00000000020221101000060000NNM   20220826132502    2H0H  00002000000000060000000111132AF    HBYHVTB 004300270014
BI00B32AF    #JTB2113       202210287172-5629-80             RUBBER STOPPER           CCN000060000000060000FN00000000020221101000060000NNM   20220826132502    2H0H  00002000000000060000000111132AF    HBYHVTB 004300270014
BI00B32AF    #JTB2114       202211047172-5629-80             RUBBER STOPPER           CCN000040000000040000FN00000000020221101000040000NNM   20220826132502    2H0H  00002000000000060000000111132AF    HBYHVTB 004300270014
BI00B32AF    #JTB2111       202210177172-5630-40             RUBBER STOPPER           CCN000020000000020000FN00000000020221101000020000NNM   20220826132502    2H0H  00002000000000044000000095132AF    HBYHVTB 004300270014
BI00B32AF    #JTB2112       202210217172-5630-40             RUBBER STOPPER           CCN000020000000020000FN00000000020221101000020000NNM   20220826132502    2H0H  00002000000000044000000095132AF    HBYHVTB 004300270014
BI00B32AF    #JTB2113       202210287172-5630-40             RUBBER STOPPER           CCN000020000000020000FN00000000020221101000020000NNM   20220826132502    2H0H  00002000000000044000000095132AF    HBYHVTB 004300270014
BI00B32AF    #JTB2112       202210217172-5631-60             RUBBER STOPPER           CCN000020000000020000FN00000000020221101000020000NNM   20220826132502    2H0H  00002000000000042000000093132AF    HBYHVTB 004300270014
BI00B32AF    #JTB2114       202211047172-5631-60             RUBBER STOPPER           CCN000020000000020000FN00000000020221101000020000NNM   20220826132502    2H0H  00002000000000042000000093132AF    HBYHVTB 004300270014
BI00B32AF    #JTB2112       202210217172-5632-10             DUMMY PLUG               CCN000020000000020000FN00000000020221101000020000NNM   20220826132502    2H0H  00002000000000080400000131832AF    HBYHVTB 004300270014
BI00B32AF    #JTB2113       202210287172-5632-10             DUMMY PLUG               CCN000020000000020000FN00000000020221101000020000NNM   20220826132502    2H0H  00002000000000080400000131832AF    HBYHVTB 004300270014
BI00B32AF    #JTB2111       202210177183-2413                CONNECTOR HOUSING        CCN000004800000004800FN00000000020221101000004800NNM   20220826132502    2F0F  00000480000000478100000760032AF    HBYHVTB 005500360039
BI00B32AF    #JTB2112       202210217183-2413                CONNECTOR HOUSING        CCN000009600000009600FN00000000020221101000009600NNM   20220826132502    2F0F  00000480000000478100000760032AF    HBYHVTB 005500360039
BI00B32AF    #JTB2113       202210287183-2413                CONNECTOR HOUSING        CCN000014400000014400FN00000000020221101000014400NNM   20220826132502    2F0F  00000480000000478100000760032AF    HBYHVTB 005500360039
BI00B32AF    #JTB2114       202211047183-2413                CONNECTOR HOUSING        CCN000009600000009600FN00000000020221101000009600NNM   20220826132502    2F0F  00000480000000478100000760032AF    HBYHVTB 005500360039
BI00B32AF    #JTB2112       202210217183-2414                CONNECTOR HOUSING        CCN000004800000004800FN00000000020221101000004800NNM   20220826132502    2F0F  00000480000000779200001061032AF    HBYHVTB 005500360039
BI00B32AF    #JTB2113       202210287183-2414                CONNECTOR HOUSING        CCN000009600000009600FN00000000020221101000009600NNM   20220826132502    2F0F  00000480000000779200001061032AF    HBYHVTB 005500360039
BI00B32AF    #JTB2114       202211047183-2414                CONNECTOR HOUSING        CCN000009600000009600FN00000000020221101000009600NNM   20220826132502    2F0F  00000480000000779200001061032AF    HBYHVTB 005500360039
BI00B32AF    #JTB2112       202210217183-2418                CONNECTOR HOUSING        CCN000009600000009600FN00000000020221101000009600NNM   20220826132502    2F0F  00000480000000917000001477032AF    HBYHVTB 005500360039
BI00B32AF    #JTB2113       202210287183-2418                CONNECTOR HOUSING        CCN000014400000014400FN00000000020221101000014400NNM   20220826132502    2F0F  00000480000000917000001477032AF    HBYHVTB 005500360039
BI00B32AF    #JTB2114       202211047183-2418                CONNECTOR HOUSING        CCN000009600000009600FN00000000020221101000009600NNM   20220826132502    2F0F  00000480000000917000001477032AF    HBYHVTB 005500360039
BI00B32AF    #JTB2113       202210287183-2418-30             CONNECTOR HOUSING        CCN000004800000004800FN00000000020221101000004800NNM   20220826132502    2F0F  00000480000000917000001235332AF    HBYHVTB 005500360039
BI00B32AF    #JTB2112       202210217186-8845-60             HOUSING MALE             CCN000003000000003000FN00000000020221101000003000NNM   20220826132502    2F0F  00000300000000690000000801532AF    HBYHVTB 005400370024
BI00B32AF    #JTB2113       202210287186-8845-60             HOUSING MALE             CCN000003000000003000FN00000000020221101000003000NNM   20220826132502    2F0F  00000300000000690000000801532AF    HBYHVTB 005400370024
BI00B32AF    #JTB2113       202210287186-8851                HOUSING MALE             CCN000003000000003000FN00000000020221101000003000NNM   20220826132502    2F0F  00000100000000782200000906232AF    HBYHVTB 005400370024
BI00B32AF    #JTB2114       202211047186-8851                HOUSING MALE             CCN000002000000002000FN00000000020221101000002000NNM   20220826132502    2F0F  00000100000000782200000906232AF    HBYHVTB 005400370024
BI00B32AF    #JTB2111       202210177187-1616                HOUSING FEMALE           CCN000004000000004000FN00000000020221101000004000NNM   20220826132502    2F0F  00000400000001152000001262032AF    HBYHVTB 005500360039
BI00B32AF    #JTB2112       202210217187-1616                HOUSING FEMALE           CCN000004000000004000FN00000000020221101000004000NNM   20220826132502    2F0F  00000400000001152000001262032AF    HBYHVTB 005500360039
BI00B32AF    #JTB2113       202210287187-1616                HOUSING FEMALE           CCN000004000000004000FN00000000020221101000004000NNM   20220826132502    2F0F  00000400000001152000001262032AF    HBYHVTB 005500360039
BI00B32AF    #JTB2114       202211047187-1616                HOUSING FEMALE           CCN000004000000004000FN00000000020221101000004000NNM   20220826132502    2F0F  00000400000001152000001262032AF    HBYHVTB 005500360039
BI00B32AF    #JTB2111       202210177189-3032                HOUSING FEMALE           CCN000001600000001600FN00000000020221101000001600NNM   20220826132502    2F0F  00000160000000788400001018432AF    HBYHVTB 005500360039
BI00B32AF    #JTB2112       202210217189-3032                HOUSING FEMALE           CCN000001600000001600FN00000000020221101000001600NNM   20220826132502    2F0F  00000160000000788400001018432AF    HBYHVTB 005500360039
BI00B32AF    #JTB2113       202210287189-3032                HOUSING FEMALE           CCN000001600000001600FN00000000020221101000001600NNM   20220826132502    2F0F  00000160000000788400001018432AF    HBYHVTB 005500360039
BI00B32AF    #JTB2114       202211047189-3032                HOUSING FEMALE           CCN000001600000001600FN00000000020221101000001600NNM   20220826132502    2F0F  00000160000000788400001018432AF    HBYHVTB 005500360039
BI00B32AF    #JTB2111       202210177189-3038-30             HOUSING                  CCN000001600000001600FN00000000020221101000001600NNM   20220826132502    2F0F  00000160000000921600001141632AF    HBYHVTB 005500360039
BI00B32AF    #JTB2112       202210217189-3038-30             HOUSING                  CCN000001600000001600FN00000000020221101000001600NNM   20220826132502    2F0F  00000160000000921600001141632AF    HBYHVTB 005500360039
BI00B32AF    #JTB2113       202210287189-3038-30             HOUSING                  CCN000001600000001600FN00000000020221101000001600NNM   20220826132502    2F0F  00000160000000921600001141632AF    HBYHVTB 005500360039
BI00B32AF    #JTB2111       202210177189-3297                HOUSING FEMALE           CCN000004000000004000FN00000000020221101000004000NNM   20220826132502    2F0F  00000400000000893200001029032AF    HBYHVTB 005400370024
BI00B32AF    #JTB2112       202210217189-3297                HOUSING FEMALE           CCN000004000000004000FN00000000020221101000004000NNM   20220826132502    2F0F  00000400000000893200001029032AF    HBYHVTB 005400370024
BI00B32AF    #JTB2113       202210287189-3297                HOUSING FEMALE           CCN000004000000004000FN00000000020221101000004000NNM   20220826132502    2F0F  00000400000000893200001029032AF    HBYHVTB 005400370024
BI00B32AF    #JTB2114       202211047189-3297                HOUSING FEMALE           CCN000004000000004000FN00000000020221101000004000NNM   20220826132502    2F0F  00000400000000893200001029032AF    HBYHVTB 005400370024
BI00B32AF    #JTB2112       202210217282-1030                CONNECTOR MALE ASS'Y     CCN000004000000004000FN00000000020221101000004000NNM   20220826132502    2N0N  00000100000000365000000487532AF    HBYHVTB 005400370024
BI00B32AF    #JTB2113       202210287282-1030                CONNECTOR MALE ASS'Y     CCN000004000000004000FN00000000020221101000004000NNM   20220826132502    2N0N  00000100000000365000000487532AF    HBYHVTB 005400370024
BI00B32AF    #JTB2114       202211047282-1030                CONNECTOR MALE ASS'Y     CCN000005000000005000FN00000000020221101000005000NNM   20220826132502    2N0N  00000100000000365000000487532AF    HBYHVTB 005400370024
BI00B32AF    #JTB2113       202210287282-5528-70             HOUSING MALE ASS'Y       CCN000002000000002000FN00000000020221101000002000NNM   20220826132502    2N0N  00000100000000230000000339032AF    HBYHVTB 005400370024
BI00B32AF    #JTB2114       202211047282-5528-70             HOUSING MALE ASS'Y       CCN000009000000009000FN00000000020221101000009000NNM   20220826132502    2N0N  00000100000000230000000339032AF    HBYHVTB 005400370024
BI00B32AF    #JTB2111       202210177283-1150                HOUSING FEMALE ASS'Y     CCN000001000000001000FN00000000020221101000001000NNM   20220826132502    2N0N  00000100000000607000000719532AF    HBYHVTB 005400370024
BI00B32AF    #JTB2112       202210217283-1150                HOUSING FEMALE ASS'Y     CCN000004000000004000FN00000000020221101000004000NNM   20220826132502    2N0N  00000100000000607000000719532AF    HBYHVTB 005400370024
BI00B32AF    #JTB2113       202210287283-1150                HOUSING FEMALE ASS'Y     CCN000004000000004000FN00000000020221101000004000NNM   20220826132502    2N0N  00000100000000607000000719532AF    HBYHVTB 005400370024
BI00B32AF    #JTB2114       202211047283-1150                HOUSING FEMALE ASS'Y     CCN000003000000003000FN00000000020221101000003000NNM   20220826132502    2N0N  00000100000000607000000719532AF    HBYHVTB 005400370024
BI00B32AF    #JTB2114       202211047287-1669                HOUSING FEMALE ASS'Y     CCN000004000000004000FN00000000020221101000004000NNM   20220826132502    2N0N  00000200000000788800000980832AF    HBYHVTB 005400370024
BI00B32AF    #JTB2114       202211047287-1670                HOUSING FEMALE ASS'Y     CCN000005600000005600FN00000000020221101000005600NNM   20220826132502    2N0N  00000280000000953100001145132AF    HBYHVTB 005400370024
BI00B32AF    #JTB2114       202211047287-1671                HOUSING FEMALE ASS'Y     CCN000002000000002000FN00000000020221101000002000NNM   20220826132502    2N0N  00000200000000782600000974632AF    HBYHVTB 005400370024
BI00B32AF    #JTB2114       202211047287-1674                HYBRID FEMALE ASS'Y      CCN000004000000004000FN00000000020221101000004000NNM   20220826132502    2N0N  00000200000000810800001002832AF    HBYHVTB 005400370024
BI00B32AF    #JTB2113       202210287287-1915                CONNECTOR ASS'Y          CCN000002400000002400FN00000000020221101000002400NNM   20220826132502    2N0N  00000240000000666500000923132AF    HBYHVTB 005500360039
BI00B32AF    #JTB2114       202211047287-1915                CONNECTOR ASS'Y          CCN000004800000004800FN00000000020221101000004800NNM   20220826132502    2N0N  00000240000000666500000923132AF    HBYHVTB 005500360039
BI00B32AF    #JTB2111       202210177287-1915-30             CONNECTOR ASS'Y          CCN000004800000004800FN00000000020221101000004800NNM   20220826132502    2N0N  00000240000000666500000923132AF    HBYHVTB 005500360039
BI00B32AF    #JTB2114       202211047287-1915-30             CONNECTOR ASS'Y          CCN000002400000002400FN00000000020221101000002400NNM   20220826132502    2N0N  00000240000000666500000923132AF    HBYHVTB 005500360039
BI00B32AF    #JTB2113       202210287287-7022                CONNECTOR FEMALE         CCN000001200000001200FN00000000020221101000001200NNM   20220826132502    2NON  00000120000000742800000853032AF    HBYHVTB 005400370024
BI00B32AF    #JTB2111       202210177297-1907-30             HOUSING MALE ASS'Y       CCN000001500000001500FN00000000020221101000001500NNM   20220826132502    2N0N  00000150000000451800000568032AF    HBYHVTB 005400370024
BI00B32AF    #JTB2112       202210217297-1907-30             HOUSING MALE ASS'Y       CCN000004500000004500FN00000000020221101000004500NNM   20220826132502    2N0N  00000150000000451800000568032AF    HBYHVTB 005400370024
BI00B32AF    #JTB2113       202210287297-1907-30             HOUSING MALE ASS'Y       CCN000003000000003000FN00000000020221101000003000NNM   20220826132502    2N0N  00000150000000451800000568032AF    HBYHVTB 005400370024
BI00B32AF    #JTB2114       202211047297-1907-30             HOUSING MALE ASS'Y       CCN000003000000003000FN00000000020221101000003000NNM   20220826132502    2N0N  00000150000000451800000568032AF    HBYHVTB 005400370024
BI00B32AF    #JTB2111       202210177297-1911-30             HOUSING MALE ASS'Y       CCN000001000000001000FN00000000020221101000001000NNM   20220826132502    2N0N  00000100000000486900000600132AF    HBYHVTB 005400370024
BI00B32AF    #JTB2112       202210217297-1911-30             HOUSING MALE ASS'Y       CCN000002000000002000FN00000000020221101000002000NNM   20220826132502    2N0N  00000100000000486900000600132AF    HBYHVTB 005400370024
BI00B32AF    #JTB2113       202210287297-1911-30             HOUSING MALE ASS'Y       CCN000001000000001000FN00000000020221101000001000NNM   20220826132502    2N0N  00000100000000486900000600132AF    HBYHVTB 005400370024
BI00B32AF    #JTB2111       202210177297-2286-30             HOUSING MALE ASS'Y       CCN000002000000002000FN00000000020221101000002000NNM   20220826132502    2N0N  00000200000000691000000776632AF    HBYHVTB 005400370024
BI00T32AF    @JTB2111-I     202211107123-2825                HOUSING                  CCN000006000000006000FN00000000020221101000006000NNM   20220826140308    3F0F  00000600000000958800001136432AF    HBYHVTB 005500360039
BI00T32AF    @JTB2111-I     202211107183-2510                HOUSING                  CCN000015000000015000FN00000000020221101000015000NNM   20220826140308    3F0F  00000300000001063500001159032AF    HBYHVTB 005400370024
BI00T32AF    @JTB2111-I     202211107183-3190                JOINT CONNECTOR          CCN000226800000226800FN00000000020221101000226800NNM   20220826140308    3F0F  00000360000000457600000667832AF    HBYHVTB 005500360039
BI00T32AF    @JTB2111-I     202211107183-7770-40             HOUSING                  CCN000054000000054000FN00000000020221101000054000NNM   20220826140308    3F0F  00000600000001011000001161032AF    HBYHVTB 005400370024
BI00T32AF    @JTB2111-I     202211107282-1060                HOUSING SUB ASSEMBLY     CCN000006400000006400FN00000000020221101000006400NNM   20220826140308    3N0N  00000160000000955500001169032AF    HBYHVTB 005500360039
BI00T32AF    @JTB2111-I     202211107283-1556                CONNECTOR ASS'Y          CCN000069600000069600FN00000000020221101000069600NNM   20220826140308    3N0N  00000240000000755000001014032AF    HBYHVTB 005500360039
BI00T32AF    @JTB2111-I     202211107283-5972                CONNECTOR FEMALE         CCN000028800000028800FN00000000020221101000028800NNM   20220826140308    3N0N  00000480000000550100000763032AF    HBYHVTB 005500360039
BI00T32AF    @JTB2111-I     202211107283-5976                CONNECTOR ASS'Y          CCN000028800000028800FN00000000020221101000028800NNM   20220826140308    3N0N  00000480000000840000001083632AF    HBYHVTB 005500360039
BI00T32AF    @JTB2111-I     202211107283-8179                CONNECTOR HOUSING        CCN000012000000012000FN00000000020221101000012000NNM   20220826140308    3N0N  00000240000000549600000804032AF    HBYHVTB 005500360039
BI00T32AF    @JTB2111-I     202211107287-6634                HOUSING FEMALE ASS'Y     CCN000002400000002400FN00000000020221101000002400NNM   20220826140308    3N0N  00000240000001088400001337032AF    HBYHVTB 005500360039
BI00B32CC    CTA32123       202209157289-3342                HOUSING FEMALE ASS'Y     CCN000002400000002400FN00000000020221201000002400NNE   20220826121744    1N0N  00000240000000686400000901432CC    BIYABCBU005500360039
BI00B32CC    #CTA32123      202209157283-8226-30             CONNECTOR                CCN000002000000002000FN00000000020221201000002000NNE   20220826121744    2N0N  00000200000000820000001008032CC    BIYABCBU005400370024
BI00B32CC    #CTA32123      202209157183-7725-40             HOUSING                  CCN000006000000006000FN00000000020221201000006000NNE   20220826121744    2F0F  00000600000000840000001040032CC    BIYABCBU005600390040
BI00B32CC    CTA32124       202209157158-3167-80             WIRE SEAL                CCN000180000000180000FN00000000020221201000180000NNE   20220826121744    1C0C  00002000000000048000000109032CC    BIYABCBU002700430014
BI00B32EJ    T220825P01     202209297298-1869-30             HOUSING FEMALE ASS'Y     CCN000001200000001200FN00000000020220901000001200NNE   20220826121744EJ  4N0N  00000120000000737000000939832EJ    EJYKBO  005500360039
BI00B32EJ    T220825P01     202209297116-4124-02             TERMINAL                 CCN000015000000015000FN00000000020220901000015000NNE   20220826121744EJ  4P0P  00000300000000459900000753532EJ    EJYKBO  006400630015
BI00B32EJ    T220825P01     202209297196-1461-06             TERMINAL FEMALE          CCN000096000000096000FN00000000020220901000096000NNE   20220826121744EJ  4P0P  00002400000000386400000692932EJ    EJYKBO  006400630015
BI00B32EJ    T220825P01     202209297114-4110-02             TERMINAL                 CCN000015000000015000FN00000000020220901000015000NNE   20220826121744EJ  4P0P  00001500000000901500001230132EJ    EJYKBO  006400630017
BI00B32EJ    T220825P01     202209297114-4112-02             TERMINAL                 CCN000018000000018000FN00000000020220901000018000NNE   20220826121744EJ  4P0P  00000900000000598500000927132EJ    EJYKBO  006400630017
BI00B32EJ    T220825P01     202209297114-4100-02             TERMINAL                 CCN000018000000018000FN00000000020220901000018000NNE   20220826121744EJ  4P0P  00001800000000748800001077432EJ    EJYKBO  006400630017
BI00B32EJ    T220825P01     202209297116-4100-02             TERMINAL                 CCN000015000000015000FN00000000020220901000015000NNE   20220826121744EJ  4P0P  00001500000000696000000990232EJ    EJYKBO  006400630015
BI00B32EJ    T220825P01     202209297116-4120-02             TERMINAL                 CCN000006000000006000FN00000000020220901000006000NNE   20220826121744EJ  4P0P  00000600000000780000001073632EJ    EJYKBO  006400630015
BI00B32EJ    T220825P01     202209297116-4122-02             TERMINAL                 CCN000022500000022500FN00000000020220901000022500NNE   20220826121744EJ  4P0P  00000450000000656600000950232EJ    EJYKBO  006400630015
BI00B32EJ    T220825P01     202209297116-4121-02             TERMINAL                 CCN000022500000022500FN00000000020220901000022500NNE   20220826121744EJ  4P0P  00000450000000618800000912432EJ    EJYKBO  006400630015
BI00B32EJ    T220825P01     202209297116-4112-02             TERMINAL                 CCN000018000000018000FN00000000020220901000018000NNE   20220826121744EJ  4P0P  00000600000000450000000738232EJ    EJYKBO  006400630015
BI00B32EJ    T220825P01     202209297126-8854-02             TERMINAL                 CCN000007500000007500FN00000000020220901000007500NNE   20220826121744EJ  4P0P  00000750000000604500000889732EJ    EJYKBO  006400630015
