AE00TO202208260326/08/202200000009000000000000000094196KGM  00000098596KGM  18000004540              AV 8 W                   AV 8 W                   0         0         0         0    0    0    00000000000090000000000213300019197000
AE00TO202208260326/08/202200000000200000000000000002093KGM  00000002191KGM  18000004560              AV 8 G                   AV 8 G                   0         0         0         0    0    0    00000000000002000000000213300000426600
AE00TO202208260326/08/202200000000100000000000000001047KGM  00000001096KGM  18000004570              AV 8 Y                   AV 8 Y                   0         0         0         0    0    0    00000000000001000000000213300000213300
AE00TO202208260326/08/202200000009100000000000000095243KGM  00000099692KGM  18000004590              AV 8 L                   AV 8 L                   0         0         0         0    0    0    00000000000091000000000213300019410300
AE00TO202208260326/08/202200000002900000000000000029319KGM  00000030737KGM  18007703941              AVSS 05F GY              AVSS 05F GY              0         0         0         0    0    0    00000000000435000000000015800006873000
AE00TO202208260326/08/202200000000600000000000000007177KGM  00000007471KGM  18009604440              AVS 5 W                  AVS 5 W                  0         0         0         0    0    0    00000000000012000000000139000001668000
AE00TO202208260326/08/202200000003900000000000000046652KGM  00000048558KGM  18009604443              AVS 5 W/B                AVS 5 W/B                0         0         0         0    0    0    00000000000078000000000139000010842000
AE00TO202208260326/08/202200000002700000000000000026055KGM  00000027375KGM  18018404030              CAVS 085 B               CAVS 085 B               0         0         0         0    0    0    00000000000270000000000022900006183000
AE00TO202208260326/08/202200000000200000000000000001930KGM  00000002028KGM  18018404060              CAVS 085 G               CAVS 085 G               0         0         0         0    0    0    00000000000020000000000022900000458000
AE00TO202208260326/08/202200000000600000000000000005790KGM  00000006083KGM  18018404061              CAVS 085 LG              CAVS 085 LG              0         0         0         0    0    0    00000000000060000000000022900001374000
AE00TO202208260326/08/202200000000600000000000000005790KGM  00000006083KGM  18018404080              CAVS 085 BR              CAVS 085 BR              0         0         0         0    0    0    00000000000060000000000022900001374000
AE00TO202208260326/08/202200000000300000000000000002895KGM  00000003042KGM  18018404090              CAVS 085 L               CAVS 085 L               0         0         0         0    0    0    00000000000030000000000022900000687000
AE00TO202208260326/08/202200000000100000000000000000965KGM  00000001014KGM  18018404092              CAVS 085 V               CAVS 085 V               0         0         0         0    0    0    00000000000010000000000022900000229000
AE00TO202208260326/08/202200000004100000000000000050348KGM  00000052352KGM  1801R704130              CIVUS 125 B              CIVUS 125 B              0         0         0         0    0    0    00000000000410000000000031800013038000
AE00TO202208260326/08/202200000001400000000000000017192KGM  00000017876KGM  1801R704150              CIVUS 125 R              CIVUS 125 R              0         0         0         0    0    0    00000000000140000000000031800004452000
AE00TO202208260326/08/202200000000900000000000000011052KGM  00000011492KGM  1801R704160              CIVUS 125 G              CIVUS 125 G              0         0         0         0    0    0    00000000000090000000000031800002862000
AE00TO202208260326/08/202200000002600000000000000031928KGM  00000033199KGM  1801R704180              CIVUS 125 BR             CIVUS 125 BR             0         0         0         0    0    0    00000000000260000000000031800008268000
AE00TO202208260326/08/202200000000100000000000000001125KGM  00000001174KGM  1801W003940              IVSSH 05F W              IVSSH 05F W              0         0         0         0    0    0    00000000000018000000000015600000280800
AE00TO202208260326/08/202200000001900000000000000021786KGM  00000022714KGM  1801W004030              IVSSH 075F B             IVSSH 075F B             0         0         0         0    0    0    00000000000247000000000021700005359900
AE00TO202208260326/08/202200000000400000000000000004586KGM  00000004782KGM  1801W004050              IVSSH 075F R             IVSSH 075F R             0         0         0         0    0    0    00000000000052000000000021700001128400
AE00TO202208260326/08/202200000001100000000000000012613KGM  00000013149KGM  1801W004060              IVSSH 075F G             IVSSH 075F G             0         0         0         0    0    0    00000000000143000000000021700003103100
AE00TO202208260326/08/202200000003300000000000000037838KGM  00000039451KGM  1801W004090              IVSSH 075F L             IVSSH 075F L             0         0         0         0    0    0    00000000000429000000000021700009309300
AE00TO202208260326/08/202200000004500000000000000050850KGM  00000053050KGM  1801W006930              IVSSH 035F B             IVSSH 035F B             0         0         0         0    0    0    00000000001125000000000011500012937500
AE00TO202208260326/08/202200000005900000000000000066670KGM  00000069555KGM  1801W006941              IVSSH 035F GY            IVSSH 035F GY            0         0         0         0    0    0    00000000001475000000000011500016962500
AE00TO202208260326/08/202200000000100000000000000001130KGM  00000001179KGM  1801W006943              IVSSH 035F W/B           IVSSH 035F W/B           0         0         0         0    0    0    00000000000025000000000011500000287500
AE00TO202208260326/08/202200000000500000000000000005650KGM  00000005895KGM  1801W006950              IVSSH 035F R             IVSSH 035F R             0         0         0         0    0    0    00000000000125000000000011500001437500
AE00TO202208260326/08/202200000000400000000000000004520KGM  00000004716KGM  1801W006952              IVSSH 035F P             IVSSH 035F P             0         0         0         0    0    0    00000000000100000000000011500001150000
AE00TO202208260326/08/202200000000300000000000000003390KGM  00000003537KGM  1801W006960              IVSSH 035F G             IVSSH 035F G             0         0         0         0    0    0    00000000000075000000000011500000862500
AE00TO202208260326/08/202200000000700000000000000007910KGM  00000008253KGM  1801W006970              IVSSH 035F Y             IVSSH 035F Y             0         0         0         0    0    0    00000000000175000000000011500002012500
AE00TO202208260326/08/202200000000400000000000000004520KGM  00000004716KGM  1801W006980              IVSSH 035F BR            IVSSH 035F BR            0         0         0         0    0    0    00000000000100000000000011500001150000
AE00TO202208260326/08/202200000000100000000000000001130KGM  00000001179KGM  1801W006990              IVSSH 035F L             IVSSH 035F L             0         0         0         0    0    0    00000000000025000000000011500000287500
AE00TO202208260326/08/202200000011100000000000000125430KGM  00000130856KGM  1801W006992              IVSSH 035F V             IVSSH 035F V             0         0         0         0    0    0    00000000002775000000000011500031912500
AE00TO202208260326/08/202200000000100000000000000001030KGM  00000001079KGM  180D0203740              AVSSH 03F W              AVSSH 03F W              0         0         0         0    0    0    00000000000020000000000012300000246000
AE00TO202208260326/08/202200000004500000000000000052488KGM  00000054688KGM  180D0204190              AVSSH 125F L             AVSSH 125F L             0         0         0         0    0    0    00000000000360000000000036000012960000
AE00TO202208260326/08/202200000000600000000000000005229KGM  00000005522KGM  181D69004ZZ              AVSSHCS 125FX2 B         AVSSHCS 125FX2 B         0         0         0         0    0    0    00000000000012000000000130800001569600
AE00TO202208260326/08/202200000000200000000000000001431KGM  00000001529KGM  181D6910239              AVSSHCS 05FX2 B/L        AVSSHCS 05FX2 B/L        0         0         0         0    0    0    00000000000006000000000080200000481200
AE00TO202208260326/08/202200000004500000000000000034375KGM  00000036575KGM  181E50004ZZ              AVSSCS-S 05FX1 DGY       AVSSCS-S 05FX1 DGY       0         0         0         0    0    0    00000000000180000000000050700009126000
AE00TO202208260326/08/202200000000900000000000000007681KGM  00000008121KGM  181F21027ZZ              AVSSHCS-S 125FX2 B       AVSSHCS-S 125FX2 B       0         0         0         0    0    0    00000000000018000000000128600002314800
AE00TO202208260326/08/202200000000100000000000000000853KGM  00000000902KGM  181F21029ZZ              AVSSHCS-S 125FX2 B/Y     AVSSHCS-S 125FX2 B/Y     0         0         0         0    0    0    00000000000002000000000128600000257200
