AE00TI102208260326/08/202200000001600000000000000011981KGM  00000017238KGM  7114-4100-02             TERMINAL                 7114410002               0         0         0         0    0    0    00028800000001800000000034000097920000
AE00TI102208260326/08/202200000001600000000000000009576KGM  00000014834KGM  7114-4112-02             TERMINAL                 7114411202               0         0         0         0    0    0    00014400000000900000000051000073440000
AE00TI102208260326/08/202200000000700000000000000003100KGM  00000005117KGM  7114-4416-02             TERMINAL MALE            7114441602               0         0         0         0    0    0    00018900000002700000000016000030240000
AE00TI102208260326/08/202200000000800000000000000004104KGM  00000006386KGM  7116-4020                TERMINAL                 71164020                 0         0         0         0    0    0    00010800000001350000000028000030240000
AE00TI102208260326/08/202200000000900000000000000006237KGM  00000008831KGM  7116-4114-02             TERMINAL                 7116411402               0         0         0         0    0    0    00009450000001050000000059000055755000
AE00TI102208260326/08/202200000000000000000000000000000KGM  00000000000KGM  7173-4520                ELEMENT COVER            71734520                 0         0         0         0    0    0    00000030000000067200000412000001236000
AE00TI102208260326/08/202200000000000000000000000000000KGM  00000000000KGM  7173-4521-30             ELEMENT COVER            7173452130               0         0         0         0    0    0    00000030000000192000000285000000855000
AE00TI102208260326/08/202200000000200000000000000001459KGM  00000001666KGM  7182-2412                HOUSING MALE             71822412                 0         0         0         0    0    0    00000100000000050000000638000006380000
AE00TI102208260326/08/202200000000800000000000000003557KGM  00000005838KGM  7196-1460-02             TERMINAL FEMALE          7196146002               0         0         0         0    0    0    00022800000002850000000014000031920000
AE00TI102208260326/08/202200000001800000000000000000000KGM  00000000000KGM  7273-2981-0WD            CASSETTE BRACKET         727329810WD              0         0         0         0    0    0    00000180000000010000000000000000000000
AE00TI102208260326/08/202200000002800000000000000000000KGM  00000000000KGM  7273-2981-0WE            CASSETTE BRACKET         727329810WE              0         0         0         0    0    0    00000224000000008000000000000000000000
AE00TI102208260326/08/202200000005200000000000000000000KGM  00000000000KGM  7273-2982-0WD            CASSETTE BRACKET         727329820WD              0         0         0         0    0    0    00000520000000010000000000000000000000
AE00TI102208260326/08/202200000002100000000000000000000KGM  00000000000KGM  7273-2982-0WE            CASSETTE BRACKET         727329820WE              0         0         0         0    0    0    00000315000000015000000000000000000000
AE00TI102208260326/08/202200000002800000000000000000000KGM  00000000000KGM  7273-2983-0WD            CASSETTE BRACKET         727329830WD              0         0         0         0    0    0    00000280000000010000000000000000000000
AE00TI102208260326/08/202200000000200000000000000001590KGM  00000002024KGM  7282-1065                CONNECTOR                72821065                 0         0         0         0    0    0    00000300000000150000000415000012450000
AE00TI102208260326/08/202200000000100000000000000000795KGM  00000001012KGM  7282-1065-30             CONNECTOR                7282106530               0         0         0         0    0    0    00000150000000150000000422000006330000
AE00TI102208260326/08/202200000000100000000000000000230KGM  00000000339KGM  7282-5528-70             HOUSING MALE ASS'Y       7282552870               0         0         0         0    0    0    00000100000000100000000434000004340000
AE00TI102208260326/08/202200000000100000000000000001060KGM  00000001181KGM  7283-7029                CONNECTOR                72837029                 0         0         0         0    0    0    00000600000000600000000227000013620000
AE00TI102208260326/08/202200000000100000000000000001026KGM  00000001200KGM  7283-7029-40             CONNECTOR                7283702940               0         0         0         0    0    0    00000600000000600000000231000013860000
AE00TI102208260326/08/202200000000100000000000000000990KGM  00000001249KGM  7283-7526-30             CONNECTOR HOUSING        7283752630               0         0         0         0    0    0    00000196000000196000000506000009917600
AE00TI102208260326/08/202200000000300000000000000001613KGM  00000002070KGM  7287-9323                UNSEALED HOUSING SUB     72879323                 0         0         0         0    0    0    00000720000000240000000146000010512000
AE00TI102208260326/08/202200000000100000000000000000538KGM  00000000690KGM  7287-9323-30             UNSEALED HOUSING SUB     7287932330               0         0         0         0    0    0    00000240000000240000000153000003672000
AE00TI102208260326/08/202200000000100000000000000000538KGM  00000000690KGM  7287-9323-40             UNSEALED HOUSING SUB     7287932340               0         0         0         0    0    0    00000240000000240000000155000003720000
AE00TI102208260326/08/202200000000200000000000000002324KGM  00000002569KGM  7386-2747                CONNECTOR ASS'Y          73862747                 0         0         0         0    0    0    00000400000000200000000413000016520000
AE00TI102208260326/08/202200000004000000000000000052800KGM  00000062800KGM  7470-3082                J/B COMPLETE ASS'Y       74703082                 0         0         0         0    0    0    00000096000000002400031298000300460800
AE00TI102208260326/08/202200000001400000000000000018480KGM  00000021980KGM  7470-5237                J/B ASS'Y                74705237                 0         0         0         0    0    0    00000033600000002400031359000105366240
AE00TI102208260326/08/202200000003500000000000000000000KGM  00000000000KGM  7470-5783D               J/B COMPLETE ASS'Y       74705783D                0         0         0         0    0    0    00000052500000001500000000000000000000
AE00TI102208260326/08/202200000001000000000000000000000KGM  00000000000KGM  7470-5784D               J/B COMPLETE ASS'Y       74705784D                0         0         0         0    0    0    00000015000000001500000000000000000000
