AE00TO202208260126/08/202200000000100000000000000001047KGM  00000001096KGM  18000004550              AV 8 R                   AV 8 R                   0         0         0         0    0    0    00000000000001000000000213300000213300
AE00TO202208260126/08/202200000012800000000000000133967KGM  00000140226KGM  18000004560              AV 8 G                   AV 8 G                   0         0         0         0    0    0    00000000000128000000000213300027302400
AE00TO202208260126/08/202200000011200000000000000117220KGM  00000122697KGM  18000004570              AV 8 Y                   AV 8 Y                   0         0         0         0    0    0    00000000000112000000000213300023889600
AE00TO202208260126/08/202200000004500000000000000047098KGM  00000049298KGM  18000004590              AV 8 L                   AV 8 L                   0         0         0         0    0    0    00000000000045000000000213300009598500
AE00TO202208260126/08/202200000003100000000000000034446KGM  00000035962KGM  18007704130              AVSS 125F B              AVSS 125F B              0         0         0         0    0    0    00000000000248000000000035000008680000
AE00TO202208260126/08/202200000000100000000000000001111KGM  00000001160KGM  18007704139              AVSS 125F B/L            AVSS 125F B/L            0         0         0         0    0    0    00000000000008000000000035000000280000
AE00TO202208260126/08/202200000001500000000000000016667KGM  00000017400KGM  18007704140              AVSS 125F W              AVSS 125F W              0         0         0         0    0    0    00000000000120000000000035000004200000
AE00TO202208260126/08/202200000000700000000000000007779KGM  00000008120KGM  18007704143              AVSS 125F W/B            AVSS 125F W/B            0         0         0         0    0    0    00000000000056000000000035000001960000
AE00TO202208260126/08/202200000000100000000000000001111KGM  00000001160KGM  18007704146              AVSS 125F W/G            AVSS 125F W/G            0         0         0         0    0    0    00000000000008000000000035000000280000
AE00TO202208260126/08/202200000000600000000000000006667KGM  00000006960KGM  18007704150              AVSS 125F R              AVSS 125F R              0         0         0         0    0    0    00000000000048000000000035000001680000
AE00TO202208260126/08/202200000000700000000000000007778KGM  00000008120KGM  18007704152              AVSS 125F P              AVSS 125F P              0         0         0         0    0    0    00000000000056000000000035000001960000
AE00TO202208260126/08/202200000000100000000000000001111KGM  00000001160KGM  18007704153              AVSS 125F R/B            AVSS 125F R/B            0         0         0         0    0    0    00000000000008000000000035000000280000
AE00TO202208260126/08/202200000003400000000000000037781KGM  00000039443KGM  18007704160              AVSS 125F G              AVSS 125F G              0         0         0         0    0    0    00000000000272000000000035000009520000
AE00TO202208260126/08/202200000000400000000000000004445KGM  00000004640KGM  18007704161              AVSS 125F LG             AVSS 125F LG             0         0         0         0    0    0    00000000000032000000000035000001120000
AE00TO202208260126/08/202200000000700000000000000007778KGM  00000008120KGM  18007704170              AVSS 125F Y              AVSS 125F Y              0         0         0         0    0    0    00000000000056000000000035000001960000
AE00TO202208260126/08/202200000003100000000000000034447KGM  00000035963KGM  18007704180              AVSS 125F BR             AVSS 125F BR             0         0         0         0    0    0    00000000000248000000000035000008680000
AE00TO202208260126/08/202200000000900000000000000010001KGM  00000010440KGM  18007704190              AVSS 125F L              AVSS 125F L              0         0         0         0    0    0    00000000000072000000000035000002520000
AE00TO202208260126/08/202200000004600000000000000051115KGM  00000053364KGM  18007704192              AVSS 125F V              AVSS 125F V              0         0         0         0    0    0    00000000000368000000000035000012880000
AE00TO202208260126/08/202200000000100000000000000000942KGM  00000000991KGM  18018403751              CAVS 03 O                CAVS 03 O                0         0         0         0    0    0    00000000000020000000000010400000208000
AE00TO202208260126/08/202200000000100000000000000001016KGM  00000001064KGM  18018403943              CAVS 05 W/B              CAVS 05 W/B              0         0         0         0    0    0    00000000000015000000000015200000228000
AE00TO202208260126/08/202200000006400000000000000061760KGM  00000064889KGM  18018404041              CAVS 085 GY              CAVS 085 GY              0         0         0         0    0    0    00000000000640000000000022900014656000
AE00TO202208260126/08/202200000000100000000000000001155KGM  00000001204KGM  1801R703960              CIVUS 05 G               CIVUS 05 G               0         0         0         0    0    0    00000000000022000000000013600000299200
AE00TO202208260126/08/202200000000200000000000000002310KGM  00000002408KGM  1801R703961              CIVUS 05 LG              CIVUS 05 LG              0         0         0         0    0    0    00000000000044000000000013600000598400
AE00TO202208260126/08/202200000003800000000000000043704KGM  00000045562KGM  1801W004290              IVSSH 2F L               IVSSH 2F L               0         0         0         0    0    0    00000000000209000000000056100011724900
AE00TO202208260126/08/202200000000100000000000000001111KGM  00000001159KGM  1801W004343              IVSSH 3 W/B              IVSSH 3 W/B              0         0         0         0    0    0    00000000000003500000000088800000310800
AE00TO202208260126/08/202200000001800000000000000020340KGM  00000021220KGM  1801W006950              IVSSH 035F R             IVSSH 035F R             0         0         0         0    0    0    00000000000450000000000011500005175000
AE00TO202208260126/08/202200000001000000000000000011300KGM  00000011789KGM  1801W006952              IVSSH 035F P             IVSSH 035F P             0         0         0         0    0    0    00000000000250000000000011500002875000
AE00TO202208260126/08/202200000004800000000000000054240KGM  00000056587KGM  1801W006960              IVSSH 035F G             IVSSH 035F G             0         0         0         0    0    0    00000000001200000000000011500013800000
AE00TO202208260126/08/202200000000300000000000000003390KGM  00000003537KGM  1801W006961              IVSSH 035F LG            IVSSH 035F LG            0         0         0         0    0    0    00000000000075000000000011500000862500
AE00TO202208260126/08/202200000010200000000000000115260KGM  00000120248KGM  1801W006991              IVSSH 035F SB            IVSSH 035F SB            0         0         0         0    0    0    00000000002550000000000011500029325000
AE00TO202208260126/08/202200000000500000000000000005150KGM  00000005395KGM  180D0203730              AVSSH 03F B              AVSSH 03F B              0         0         0         0    0    0    00000000000100000000000012300001230000
AE00TO202208260126/08/202200000004000000000000000041200KGM  00000043156KGM  180D0203740              AVSSH 03F W              AVSSH 03F W              0         0         0         0    0    0    00000000000800000000000012300009840000
AE00TO202208260126/08/202200000000600000000000000006180KGM  00000006473KGM  180D0203741              AVSSH 03F GY             AVSSH 03F GY             0         0         0         0    0    0    00000000000120000000000012300001476000
AE00TO202208260126/08/202200000000200000000000000002060KGM  00000002158KGM  180D0203750              AVSSH 03F R              AVSSH 03F R              0         0         0         0    0    0    00000000000040000000000012300000492000
AE00TO202208260126/08/202200000000100000000000000001030KGM  00000001079KGM  180D0203752              AVSSH 03F P              AVSSH 03F P              0         0         0         0    0    0    00000000000020000000000012300000246000
AE00TO202208260126/08/202200000004900000000000000050470KGM  00000052866KGM  180D0203760              AVSSH 03F G              AVSSH 03F G              0         0         0         0    0    0    00000000000980000000000012300012054000
AE00TO202208260126/08/202200000001500000000000000015450KGM  00000016183KGM  180D0203761              AVSSH 03F LG             AVSSH 03F LG             0         0         0         0    0    0    00000000000300000000000012300003690000
AE00TO202208260126/08/202200000000400000000000000004120KGM  00000004316KGM  180D0203780              AVSSH 03F BR             AVSSH 03F BR             0         0         0         0    0    0    00000000000080000000000012300000984000
AE00TO202208260126/08/202200000001400000000000000014420KGM  00000015106KGM  180D0203790              AVSSH 03F L              AVSSH 03F L              0         0         0         0    0    0    00000000000280000000000012300003444000
AE00TO202208260126/08/202200000000100000000000000001034KGM  00000001082KGM  180D0203930              AVSSH 05F B              AVSSH 05F B              0         0         0         0    0    0    00000000000015000000000016500000247500
AE00TO202208260126/08/202200000001700000000000000014406KGM  00000015238KGM  181AD2001ZZ              CIVUSAS-S 035X1 B        CIVUSAS-S 035X1 B        0         0         0         0    0    0    00000000000093500000000034400003216400
AE00TO202208260126/08/202200000001900000000000000015412KGM  00000016342KGM  181AD2020ZZ              CIVUSAS-S 05X2 B(R,G)    CIVUSAS-S 05X2 B(R,G)    0         0         0         0    0    0    00000000000076000000000051700003929200
AE00TO202208260126/08/202200000000300000000000000002390KGM  00000002536KGM  181B32116Y8              AVSSCS 03FX2 DGY/R       AVSSCS 03FX2 DGY/R       0         0         0         0    0    0    00000000000010500000000061200000642600
AE00TO202208260126/08/202200000000600000000000000004780KGM  00000005072KGM  181B32116Y9              AVSSCS 03FX2 DGY/P       AVSSCS 03FX2 DGY/P       0         0         0         0    0    0    00000000000021000000000061200001285200
AE00TO202208260126/08/202200000001400000000000000009871KGM  00000010555KGM  181CQ7004ZZ              IVSSHCS-S 05FX2 B(R,G)   IVSSHCS-S 05FX2 B(R,G)   0         0         0         0    0    0    00000000000042000000000073000003066000
AE00TO202208260126/08/202200000000600000000000000004293KGM  00000004587KGM  181D6910230              AVSSHCS 05FX2 B          AVSSHCS 05FX2 B          0         0         0         0    0    0    00000000000018000000000080200001443600
AE00TO202208260126/08/202200000000200000000000000001431KGM  00000001529KGM  181D6910235              AVSSHCS 05FX2 B/R        AVSSHCS 05FX2 B/R        0         0         0         0    0    0    00000000000006000000000080200000481200
AE00TO202208260126/08/202200000003800000000000000026392KGM  00000028251KGM  181E48013ZZ              CAVSAS-S 03X3 GY         CAVSAS-S 03X3 GY         0         0         0         0    0    0    00000000000095000000000060000005700000
AE00TO202208260126/08/202200000000400000000000000002812KGM  00000003008KGM  181E48031ZZ              CAVSAS-S 03X2 GY         CAVSAS-S 03X2 GY         0         0         0         0    0    0    00000000000014000000000046200000646800
AE00TO202208260126/08/202200000003800000000000000030989KGM  00000032847KGM  181E48037ZZ              CAVSAS-S 03X4 GY         CAVSAS-S 03X4 GY         0         0         0         0    0    0    00000000000095000000000079700007571500
AE00TO202208260126/08/202200000000300000000000000002109KGM  00000002256KGM  181E48040ZZ              CAVSAS-S 03X2 GY/V       CAVSAS-S 03X2 GY/V       0         0         0         0    0    0    00000000000010500000000046200000485100
AE00TO202208260126/08/202200000000200000000000000001406KGM  00000001504KGM  181E48041ZZ              CAVSAS-S 03X2 GY/R       CAVSAS-S 03X2 GY/R       0         0         0         0    0    0    00000000000007000000000046200000323400
AE00TO202208260126/08/202200000000100000000000000000758KGM  00000000807KGM  181E50002ZZ              AVSSCS-S 03FX2 DGY/G     AVSSCS-S 03FX2 DGY/G     0         0         0         0    0    0    00000000000003500000000059700000208950
AE00TO202208260126/08/202200000000300000000000000002273KGM  00000002420KGM  181E50036ZZ              AVSSCS-S 03FX2 DGY       AVSSCS-S 03FX2 DGY       0         0         0         0    0    0    00000000000010500000000059700000626850
AE00TO202208260126/08/202200000000300000000000000002278KGM  00000002425KGM  181F21009ZZ              AVSSHCS-S 05FX2 B        AVSSHCS-S 05FX2 B        0         0         0         0    0    0    00000000000009000000000074200000667800
AE00TO202208260126/08/202200000000900000000000000006834KGM  00000007275KGM  181F21016ZZ              AVSSHCS-S 05FX2 B/BR     AVSSHCS-S 05FX2 B/BR     0         0         0         0    0    0    00000000000027000000000074200002003400
