AE00TI102208260426/08/202200000002000000000000000001990KGM  00000004990KGM  7140-1977-30             UPPER COVER              7140197730               0         0         0         0    0    0    00000020000000001000002698000005396000
AE00TI102208260426/08/202200000000100000000000000000105KGM  00000000183KGM  7157-7811-80             SEAL RUBBER              7157781180               0         0         0         0    0    0    00001000000001000000000055000005500000
AE00TI102208260426/08/202200000000400000000000000001000KGM  00000001224KGM  7158-3003-90             RUBBER STOPPER           7158300390               0         0         0         0    0    0    00008000000002000000000012000009600000
AE00TI102208260426/08/202200000000100000000000000001167KGM  00000001372KGM  7282-1248                HOUSING SUB ASSEMBLY     72821248                 0         0         0         0    0    0    00000060000000060000000490000002940000
AE00TI102208260426/08/202200000000300000000000000002894KGM  00000003524KGM  7282-4577                HOUSING MALE ASS'Y       72824577                 0         0         0         0    0    0    00000720000000240000000229000016488000
AE00TI102208260426/08/202200000000600000000000000004696KGM  00000005956KGM  7282-4578                HOUSING MALE ASS'Y       72824578                 0         0         0         0    0    0    00000720000000120000000255000018360000
AE00TI102208260426/08/202200000000600000000000000006379KGM  00000007699KGM  7282-4855                HOUSING MALE ASS'Y       72824855                 0         0         0         0    0    0    00000720000000120000000347000024984000
AE00TI102208260426/08/202200000000200000000000000002712KGM  00000003040KGM  7282-8120-40             CONNECTOR HOUSING        7282812040               0         0         0         0    0    0    00000600000000300000000215000012900000
AE00TI102208260426/08/202200000001600000000000000016282KGM  00000019802KGM  7282-9391                HOUSING MALE ASS'Y       72829391                 0         0         0         0    0    0    00001920000000120000000325000062400000
AE00TI102208260426/08/202200000000200000000000000001338KGM  00000001865KGM  7283-1140                CONNECTOR HOUSING        72831140                 0         0         0         0    0    0    00000300000000150000000259000007770000
AE00TI102208260426/08/202200000000200000000000000002762KGM  00000003274KGM  7283-1288                CONNECTOR HOUSING        72831288                 0         0         0         0    0    0    00000240000000120000000781000018744000
AE00TI102208260426/08/202200000000100000000000000001381KGM  00000001637KGM  7283-1288-10             CONNECTOR HOUSING        7283128810               0         0         0         0    0    0    00000120000000120000000785000009420000
AE00TI102208260426/08/202200000000600000000000000008292KGM  00000009844KGM  7283-1288-40             CONNECTOR HOUSING        7283128840               0         0         0         0    0    0    00000720000000120000000785000056520000
AE00TI102208260426/08/202200000000200000000000000001675KGM  00000002115KGM  7283-4578                HOUSING FEMALE ASS'Y     72834578                 0         0         0         0    0    0    00000480000000240000000190000009120000
AE00TI102208260426/08/202200000000200000000000000001908KGM  00000002208KGM  7283-5830                CONNECTOR                72835830                 0         0         0         0    0    0    00001200000000600000000154000018480000
AE00TI102208260426/08/202200000000100000000000000000724KGM  00000000874KGM  7283-5832                CONNECTOR HOUSING        72835832                 0         0         0         0    0    0    00000240000000240000000206000004944000
AE00TI102208260426/08/202200000000400000000000000003556KGM  00000004528KGM  7283-5843                CONNECTOR                72835843                 0         0         0         0    0    0    00000600000000150000000280000016800000
AE00TI102208260426/08/202200000000300000000000000001332KGM  00000001819KGM  7283-5845                CONNECTOR HOUSING        72835845                 0         0         0         0    0    0    00001800000000600000000133000023940000
AE00TI102208260426/08/202200000000200000000000000001770KGM  00000002204KGM  7283-5846                HOUSING                  72835846                 0         0         0         0    0    0    00000300000000150000000241000007230000
AE00TI102208260426/08/202200000000200000000000000002400KGM  00000002820KGM  7283-7449-30             HOUSING FEMALE ASS'Y     7283744930               0         0         0         0    0    0    00000480000000240000000386000018528000
AE00TI102208260426/08/202200000000200000000000000001980KGM  00000002497KGM  7283-7526                CONNECTOR HOUSING        72837526                 0         0         0         0    0    0    00000392000000196000000503000019717600
AE00TI102208260426/08/202200000000200000000000000001980KGM  00000002497KGM  7283-7526-30             CONNECTOR HOUSING        7283752630               0         0         0         0    0    0    00000392000000196000000506000019835200
AE00TI102208260426/08/202200000000400000000000000003959KGM  00000004994KGM  7283-7526-40             CONNECTOR HOUSING        7283752640               0         0         0         0    0    0    00000784000000196000000504000039513600
AE00TI102208260426/08/202200000000500000000000000004553KGM  00000005653KGM  7286-3885                CONNECTOR MALE ASS'Y     72863885                 0         0         0         0    0    0    00000600000000120000000295000017700000
AE00TI102208260426/08/202200000000500000000000000004887KGM  00000005820KGM  7286-3970                CONNECTOR HOUSING        72863970                 0         0         0         0    0    0    00000055000000011000002089000011489500
AE00TI102208260426/08/202200000001100000000000000008448KGM  00000010758KGM  7286-4097                CONNECTOR MALE ASS'Y     72864097                 0         0         0         0    0    0    00001760000000160000000196000034496000
AE00TI102208260426/08/202200000000100000000000000001061KGM  00000001313KGM  7287-1917                CONNECTOR FEMALE         72871917                 0         0         0         0    0    0    00000240000000240000000253000006072000
AE00TI102208260426/08/202200000000200000000000000002059KGM  00000002499KGM  7287-3885                HYBRID FEMALE ASS'Y      72873885                 0         0         0         0    0    0    00000480000000240000000207000009936000
AE00TI102208260426/08/202200000000100000000000000001030KGM  00000001250KGM  7287-3885-40             HYBRID FEMALE ASS'Y      7287388540               0         0         0         0    0    0    00000240000000240000000216000005184000
AE00TI102208260426/08/202200000000500000000000000006108KGM  00000007208KGM  7287-8072                HOUSING FEMALE ASS'Y     72878072                 0         0         0         0    0    0    00001200000000240000000247000029640000
AE00TI102208260426/08/202200000000200000000000000002333KGM  00000002773KGM  7287-8073                HOUSING FEMALE ASS'Y     72878073                 0         0         0         0    0    0    00000480000000240000000244000011712000
AE00TI102208260426/08/202200000000300000000000000003686KGM  00000004346KGM  7287-8999                HOUSING FEMALE ASS'Y     72878999                 0         0         0         0    0    0    00001440000000480000000163000023472000
AE00TI102208260426/08/202200000000200000000000000002458KGM  00000002898KGM  7287-9000                HOUSING FEMALE ASS'Y     72879000                 0         0         0         0    0    0    00000960000000480000000162000015552000
AE00TI102208260426/08/202200000000700000000000000002713KGM  00000005513KGM  7288-3206                HOUSING MALE ASS'Y       72883206                 0         0         0         0    0    0    00000714000000102000000351000025061400
AE00TI102208260426/08/202200000002500000000000000017160KGM  00000022535KGM  7289-3342                HOUSING FEMALE ASS'Y     72893342                 0         0         0         0    0    0    00006000000000240000000186000111600000
AE00TI102208260426/08/202200000003500000000000000024024KGM  00000031549KGM  7289-3342-30             HOUSING FEMALE ASS'Y     7289334230               0         0         0         0    0    0    00008400000000240000000191000160440000
AE00TI102208260426/08/202200000001000000000000000006864KGM  00000009014KGM  7289-3342-40             HOUSING FEMALE ASS'Y     7289334240               0         0         0         0    0    0    00002400000000240000000192000046080000
AE00TI102208260426/08/202200000002500000000000000017160KGM  00000022535KGM  7289-3342-90             HOUSING FEMALE ASS'Y     7289334290               0         0         0         0    0    0    00006000000000240000000196000117600000
AE00TI102208260426/08/202200000000100000000000000000913KGM  00000001055KGM  7289-4696-30             HOUSING FEMALE ASS'Y     7289469630               0         0         0         0    0    0    00000200000000200000000410000008200000
AE00TI102208260426/08/202200000000200000000000000002702KGM  00000003332KGM  7289-6524-30             HOUSING FEMALE ASS'Y     7289652430               0         0         0         0    0    0    00000048000000024000004757000022833600
AE00TI102208260426/08/202200000000100000000000000001152KGM  00000001362KGM  7289-6547                HOUSING FEMALE ASS'Y     72896547                 0         0         0         0    0    0    00000240000000240000000229000005496000
AE00TI102208260426/08/202200000000900000000000000006644KGM  00000008682KGM  7289-7970                HYBRID FEMALE ASS'Y      72897970                 0         0         0         0    0    0    00000288000000032000000956000027532800
AE00TI102208260426/08/202200000000100000000000000000534KGM  00000000730KGM  7298-2459-60             LIF FEMALE ASSEMBLY      7298245960               0         0         0         0    0    0    00000016800000016800001474000002476320
