BI00A1200    AWNYS-AL-22-06 202207201801W006950              IVSSH 0.35F R            PNN000002500000002500FN00000000020220701000002500NNE30 20220718111711    1W    0000025000000045200000000001200    YCYC    000000000000RQ127006
BI00A1200    AWNYS-AL-22-06 202207201801W003950              IVSSH 0.5F R             PNN000001800000001800FN00000000020220701000001800NNE30 20220718111711    1W    0000018000000062500000000001200    YCYC    000000000000RQ127001
BI00A1200    AWNYS-AL-22-06 202207201801W004050              IVSSH 0.75F R            PNN000001300000001300FN00000000020220701000001300NNE30 20220718111711    1W    0000013000000088200000000001200    YCYC    000000000000RQ127002
BI00A1200    AWNYS-AL-22-06 202207201801W004140              IVSSH 1.25F W            PNN000000800000000800FN00000000020220701000000800NNE30 20220718111711    1W    0000008000000140500000000001200    YCYC    000000000000RQ127003
BI00A1200    AWNYS-AL-22-06 202207201801W004250              IVSSH 2F R               PNN000000550000000550FN00000000020220701000000550NNE30 20220718111711    1W    0000005500000209110000000001200    YCYC    000000000000RQ127004
BI00A1200    AWNYS-AL-22-06 202207201801W004350              IVSSH 3 R                PNN000000350000000350FN00000000020220701000000350NNE30 20220718111711    1W    0000003500000317310000000001200    YCYC    000000000000RQ127005
BI00B32CJ    TTQ209A        20220811180D0203730              AVSSH 0.3F B             CCN000004000000004000FN00000000020220901000004000NNE   20220718090749    1W    00000200000000515000000000032CJ    QNYHVQN 000000000000UM427001
BI00B32CJ    TTQ209A        20220811180D0204040              AVSSH 0.75F W            CCN000013000000013000FN00000000020220901000013000NNE   20220718090749    1W    00000100000000934000000000032CJ    QNYHVQN 000000000000UM427002
BI00B32CJ    TTQ209A        202208111801W004030              IVSSH 0.75F B            CCN000015600000015600FN00000000020220901000015600NNE   20220718090749    1W    00000130000000882000000000032CJ    QNYHVQN 000000000000UM427003
BI00B32CJ    TTQ208C        202208051801W004030              IVSSH 0.75F B            CCN000009100000009100FN00000000020220801000009100NNE   20220718090747    1W    00000130000000882000000000032CJ    QNYHVQN 000000000000UL327001
BI00B32CJ    TTQ209B        20220819180D0203780              AVSSH 0.3F BR            CCN000028000000028000FN00000000020220901000028000NNE   20220718090750    1W    00000200000000515000000000032CJ    QNYHVQN 000000000000UN128002
BI00B32CJ    TTQ209B        20220819180D0203760              AVSSH 0.3F G             CCN000016000000016000FN00000000020220901000016000NNE   20220718090750    1W    00000200000000515000000000032CJ    QNYHVQN 000000000000UN128003
BI00B32CJ    TTQ209B        20220819180D0203790              AVSSH 0.3F L             CCN000022000000022000FN00000000020220901000022000NNE   20220718090750    1W    00000200000000515000000000032CJ    QNYHVQN 000000000000UN128004
BI00B32CJ    TTQ209B        20220819180D0203740              AVSSH 0.3F W             CCN000002000000002000FN00000000020220901000002000NNE   20220718090750    1W    00000200000000515000000000032CJ    QNYHVQN 000000000000UN128005
BI00B32CJ    TTQ209B        20220819180D0204130              AVSSH 1.25F B            CCN000064000000064000FN00000000020220901000064000NNE   20220718090750    1W    00000080000001458000000000032CJ    QNYHVQN 000000000000UN128006
BI00B32CJ    TTQ209B        20220819180D0204180              AVSSH 1.25F BR           CCN000011200000011200FN00000000020220901000011200NNE   20220718090750    1W    00000080000001458000000000032CJ    QNYHVQN 000000000000UN128007
BI00B32CJ    TTQ209B        202208191801W006980              IVSSH 0.35F BR           CCN000010000000010000FN00000000020220901000010000NNE   20220718090750    1W    00000250000000452000000000032CJ    QNYHVQN 000000000000UN128010
BI00B32CJ    TTQ209B        202208191801W003980              IVSSH 0.5F BR            CCN000003600000003600FN00000000020220901000003600NNE   20220718090750    1W    00000180000000625000000000032CJ    QNYHVQN 000000000000UN128008
BI00B32CJ    TTQ209B        202208191801W004050              IVSSH 0.75F R            CCN000026000000026000FN00000000020220901000026000NNE   20220718090750    1W    00000130000000882000000000032CJ    QNYHVQN 000000000000UN128009
BI00B32CJ    @TTQ209B       20220819181B32012ZZ              AVSSCS 0.3FX2 DGY/BR     CCN000001050000001050FN00000000020220901000001050NNE   20220718090748    1W    00000035000002276000000000032CJ    QNYHVQN 000000000000UN128001
BI00B32CJ    TTQ209C        202208261801W006961              IVSSH 0.35F LG           CCN000010000000010000FN00000000020220901000010000NNE   20220718090750    1W    00000250000000452000000000032CJ    QNYHVQN 000000000000UO228003
BI00B32CJ    TTQ209C        202208261801W006940              IVSSH 0.35F W            CCN000005000000005000FN00000000020220901000005000NNE   20220718090750    1W    00000250000000452000000000032CJ    QNYHVQN 000000000000UO228004
BI00B32CJ    @TTQ209C       20220826181E48032ZZ              CAVSAS-S 0.3X2 GY/P      CCN000001050000001050FN00000000020220901000001050NNE   20220718090748    1W    00000035000002008700000000032CJ    QNYHVQN 000000000000UO228002
BI00B32CJ    @TTQ209C       20220826181AD2010ZZ              CIVUSAS-S 0.5X4 B        CCN000001000000001000FN00000000020220901000001000NNE   20220718090748    1W    00000025000003214000000000032CJ    QNYHVQN 000000000000UO228001
BI00B32DE    @TT2094        20220811181F21010ZZ              AVSSHCS-S 0.5FX2 B/W     CCN000000300000000300FN00000000020220901000000300NNM20 20220718110344    1W    00000030000002531400000000032DE    TVYEV-TV000000000000VT328037
BI00B32DG    @RH2093A       20220818181E50011ZZ              AVSSCS-S 0.5FX2 DGY/Y    CCN000003000000003000FN00000000020220901000003000NNE   20220718150858    1W    00000030000003096000000000032DG    BFSAIBF 000000000000GR128001
BI00B32DG    RW2093A        202208181801W003970              IVSSH 0.5F Y             CCN000003600000003600FN00000000020220901000003600NNE   20220718150900    1W    00000180000000625000000000032DG    BFSAIBF 000000000000GS128001
BI00B32E2    @WY2111        20220831181B09116K3              CAVSAS 0.3X2 GY/P        CCN000001750000001750FN00000000020221001000001750NNM   20220718085029    1W    00000035000002254000000000032E2    SPYSE   000000000000KZ328001
BI00B32E2    @WY2112        20220907181B09116K3              CAVSAS 0.3X2 GY/P        CCN000001750000001750FN00000000020221001000001750NNM   20220718085029    1W    00000035000002254000000000032E2    SPYSE   000000000000KZ428001
BI00B32E2    @WY2113        20220914181B09116K3              CAVSAS 0.3X2 GY/P        CCN000001400000001400FN00000000020221001000001400NNM   20220718085029    1W    00000035000002254000000000032E2    SPYSE   000000000000KZ528001
BI00B32G7    JW2209A MW     2022081818007703990              AVSS 0.5F L              CCN000003000000003000FN00000000020220901000003000NNE   20220718115910    1W    00000150000000674000000000032G7    JIJAI   000000000000JB128018
BI00B32G7    @JW2209A MW    20220818181AD2002ZZ              CIVUSAS-S 0.35X2 B       CCN000019350000019350FN00000000020220901000019350NNE   20220718115908    1W    00000045000001713700000000032G7    JIJAI   000000000000JB128006
BI00B32G7    @JW2209A MW    20220818181AD2008ZZ              CIVUSAS-S 0.5X2 B        CCN000008400000008400FN00000000020220901000008400NNE   20220718115908    1W    00000040000002028000000000032G7    JIJAI   000000000000JB128005
BI00B32G7    @JW2209A MW    20220818181E48040ZZ              CAVSAS-S 0.3X2 GY/V      CCN000011200000011200FN00000000020220901000011200NNE   20220718115908    1W    00000035000002008700000000032G7    JIJAI   000000000000JB128008
BI00B32G7    @JW2209A MW    20220818181E48060ZZ              CAVSAS-S 0.5X2 GY/V      CCN000003600000003600FN00000000020220901000003600NNE   20220718115908    1W    00000030000002561000000000032G7    JIJAI   000000000000JB128007
BI00B32G7    @JW2209ALMW    20220818181AD2020ZZ              CIVUSAS-S 0.5X2 B(R,G)   CCN000002000000002000FN00000000020220901000002000NNE   20220718115909    1W    00000040000002028000000000032G7    JIJAI   000000000000JD128001
BI00B32G7    @JW2209ALMW    20220818181AD2021ZZ              CIVUSAS-S 0.35X2 B(L,GY) CCN000003600000003600FN00000000020220901000003600NNE   20220718115909    1W    00000045000001714000000000032G7    JIJAI   000000000000JD128002
BI00B32G7    @JW2209ALMW    20220818181AD2022ZZ              CIVUSAS-S 0.35X2 B(R,G)  CCN000002700000002700FN00000000020220901000002700NNE   20220718115909    1W    00000045000001714000000000032G7    JIJAI   000000000000JD128003
BI00B32G7    JW2209AMMW     202208181801W006930              IVSSH 0.35F B            CCN000027500000027500FN00000000020220901000027500NNE   20220718115910    1W    00000250000000452000000000032G7    JIJAI   000000000000JC128013
BI00B32G7    JW2209AMMW     202208181801W006941              IVSSH 0.35F GY           CCN000002500000002500FN00000000020220901000002500NNE   20220718115910    1W    00000250000000452000000000032G7    JIJAI   000000000000JC128014
BI00B32G7    JW2209AMMW     202208181801W006943              IVSSH 0.35F W/B          CCN000002500000002500FN00000000020220901000002500NNE   20220718115910    1W    00000250000000452000000000032G7    JIJAI   000000000000JC128017
BI00B32G7    JW2209AMMW     202208181801W006970              IVSSH 0.35F Y            CCN000005000000005000FN00000000020220901000005000NNE   20220718115910    1W    00000250000000452000000000032G7    JIJAI   000000000000JC128018
BI00B32G7    JW2209AMMW     202208181801W006990              IVSSH 0.35F L            CCN000002500000002500FN00000000020220901000002500NNE   20220718115910    1W    00000250000000452000000000032G7    JIJAI   000000000000JC128015
BI00B32G7    JW2209AMMW     202208181801W006992              IVSSH 0.35F V            CCN000005000000005000FN00000000020220901000005000NNE   20220718115910    1W    00000250000000452000000000032G7    JIJAI   000000000000JC128016
BI00B32H2    TAW208N        2022080518007704150              AVSS 1.25F R             CCN000001600000001600FN00000000020220801000001600NNE   20220718115110    1W    00000080000001389000000000032H2    HVYHV   000000000000UG327001
BI00B32H2    TAW209D        2022081118007704140              AVSS 1.25F W             CCN000002400000002400FN00000000020220901000002400NNE   20220718115112    1W    00000080000001389000000000032H2    HVYHV   000000000000UI427005
BI00B32H2    @TAW209D       20220811181F21002ZZ              AVSSHCS-S 0.5FX1 B       CCN000001200000001200FN00000000020220901000001200NNE   20220718115111    1W    00000040000001908400000000032H2    HVYHV   000000000000UI427004
BI00B32H2    @TAW209E       20220819181B32102S1              AVSSCS 0.5FX2 DGY        CCN000003000000003000FN00000000020220901000003000NNE   20220718115112    1W    00000030000002903000000000032H2    HVYHV   000000000000UJ128002
BI00B32H2    TAW209G        2022090218007704143              AVSS 1.25F W/B           CCN000000800000000800FN00000000020220901000000800NNE   20220718115113    1W    00000080000001389000000000032H2    HVYHV   000000000000UD328001
BI00B32M1    TV207B         20220804180D0203930              AVSSH 0.5F B             CCN000004500000004500FN00000000020220701000004500NNE   20220718115331    1W    00000150000000689000000000032M1    VNYEV   000000000000VG327004
BI00B32M3    SM2208BHMW     2022080418007704030              AVSS 0.75F B             CCN000002000000002000FN00000000020220801000002000NNE   20220718120451    1W    00000100000000943000000000032M3    SASAMI  000000000000QB327001
BI00B32M3    SM2208BHMW     2022080418007704130              AVSS 1.25F B             CCN000002400000002400FN00000000020220801000002400NNE   20220718120451    1W    00000080000001389000000000032M3    SASAMI  000000000000QB327002
BI00B32M4    @TH2093A       20220818181E50011ZZ              AVSSCS-S 0.5FX2 DGY/Y    CCN000004200000004200FN00000000020220901000004200NNE   20220718150609    1W    00000030000003096000000000032M4    SISAI   000000000000GA128001
BI00B32U5    @DW2040        20220902181AD2013ZZ              CIVUSAS-S 1.25X2 B       CCN000003100000003300FN00000000020221101000003300NNE   20220718164002U5  1W    00000022000003840000000000032U5    ASAMSD  000000000000AM328019
BI00B32U5    @DW2040        20220902181E48011ZZ              CAVSAS-S 0.3X1 GY/W      CCN000003000000003000FN00000000020221101000003000NNE   20220718164002U5  1W    00000050000001529500000000032U5    ASAMSD  000000000000AM328020
BI00B32U5    @DW2040        20220902181F21027ZZ              AVSSHCS-S 1.25FX2 B      CCN000007800000007800FN00000000020221101000007800NNE   20220718164002U5  1W    00000020000004267300000000032U5    ASAMSD  000000000000AM328021
BI00B32W7    SC2208BJMW     2022080318000004580              AV 8 BR                  CCN000001100000001100FN00000000020220801000001100NNE   20220718153203    1W    00000010000010466200000000032W7    SYSYA-CH000000000000WK327001
BI00B32W7    SC2208BJMW     2022080318000004560              AV 8 G                   CCN000008600000008600FN00000000020220801000008600NNE   20220718153203    1W    00000010000010466200000000032W7    SYSYA-CH000000000000WK327002
BI00B32W7    SC2208BJMW     2022080318000004590              AV 8 L                   CCN000008300000008300FN00000000020220801000008300NNE   20220718153203    1W    00000010000010466200000000032W7    SYSYA-CH000000000000WK327003
BI00B32W7    SC2208BJMW     2022080318000004550              AV 8 R                   CCN000017000000017000FN00000000020220801000017000NNE   20220718153203    1W    00000010000010466200000000032W7    SYSYA-CH000000000000WK327004
BI00B32W7    SC2208BJMW     2022080318000004540              AV 8 W                   CCN000007200000007200FN00000000020220801000007200NNE   20220718153203    1W    00000010000010466200000000032W7    SYSYA-CH000000000000WK327005
BI00B32W7    SC2208BJMW     2022080318000004570              AV 8 Y                   CCN000005200000005200FN00000000020220801000005200NNE   20220718153203    1W    00000010000010466200000000032W7    SYSYA-CH000000000000WK327006
