BI00A1200    #CE22-MN-0074  202207207189-6524-30             SEALED FEMALE            CCN000000480000000480FN00000000020220701000000480NNED0120220718170647    2F0F  0000002400000058900000086641200    YCYC    005500360039
BI00B1200    O022I50420     202209017289-4696-30             HOUSING FEMALE ASS'Y     CCN000002000000002000FN00000000020220901000002000NNE   20220718170647    4N0N  0000020000000091340000105541200    YCYC    005400370024
BI00B1200    O022I50421     202209017289-4696-30             HOUSING FEMALE ASS'Y     CCN000006000000006000FN00000000020220901000006000NNE   20220718170647    4N0N  0000020000000091340000105541200    YCYC    005400370024
BI00B1200    O022I50422     202209017289-4696-30             HOUSING FEMALE ASS'Y     CCN000004000000004000FN00000000020220901000004000NNE   20220718170647    4N0N  0000020000000091340000105541200    YCYC    005400370024
BI00B1200    Y022J50058     202209297298-1145-4W             SQUIB SUB ASS'Y          CCN000010000000010000FN00000000020221001000010000NNM   20220718170647    4N0N  0000100000000078790000094491200    YCYC    005400370024
BI00B32AG    #XG22102LMW    202209167157-3992-90             CONNECTOR SEALED         CCN000040000000000000FY00000000020221001000000000NNMQ0820220718104347    2C0C  00004000000000300000000363332AG    XGXGY   002700430014
BI00B32AG    #XG22102LMW    202209167182-9631-40             JOINT CONNECTOR          CCN000006000000000000FY00000000020221001000000000NNMQ0820220718104259    2F0F  00000300000001182000001307432AG    XGXGY   005400370024
BI00B32AG    #XG22102LMW    202209167182-9633-40             JOINT CONNECTOR          CCN000006000000000000FY00000000020221001000000000NNMQ0820220718104259    2F0F  00000300000001335000001460532AG    XGXGY   005400370024
BI00B32AG    #XG22103LMW    202209237182-9633-40             JOINT CONNECTOR          CCN000003000000000000FY00000000020221001000000000NNMQ0820220718104323    2F0F  00000300000001335000001460532AG    XGXGY   005400370024
BI00B32B1    A22040         202209097157-7925-80             REAR HOLDER              CCN000030000000030000FN00000000020221101000030000NNM   20220718170647B1  1F0F  00003000000000720000000871032B1    AXARNE-M005600390023
BI00B32B1    A22040         202209097288-3339-30             HOUSING MALE             CCN000001500000001500FN00000000020221101000001500NNM   20220718170647B1  4N0N  00000150000000867000001012032B1    AXARNE-M005400370024
BI00B32B1    A22040         202209097289-3342-30             HOUSING FEMALE ASS'Y     CCN000002400000002400FN00000000020221101000002400NNM   20220718170647B1  1N0N  00000240000000686400000901432B1    AXARNE-M005500360039
BI00B32B1    A22040         202209097289-3342-90             HOUSING FEMALE ASS'Y     CCN000002400000002400FN00000000020221101000002400NNM   20220718170647B1  1N0N  00000240000000686400000901432B1    AXARNE-M005500360039
BI00B32B1    #A22040        202209097157-3891                RUBBER STOPPER           CCN000020000000020000FN00000000020221101000020000NNM   20220718170647B1  2H0H  00001000000000145000000241732B1    AXARNE-M004300270014
BI00B32B1    #A22040        202209097282-8395-40             CONNECTOR                CCN000007000000007000FN00000000020221101000007000NNM   20220718170647B1  2N0N  00000100000001009000001188032B1    AXARNE-M005500360039
BI00B32B1    #A22040        202209097283-8226-30             CONNECTOR                CCN000008000000008000FN00000000020221101000008000NNM   20220718170647B1  2N0N  00000200000000820000001008032B1    AXARNE-M005400370024
BI00B32B6    A72040         202209097017-1181-02             TERMINAL                 CCN000063000000063000FN00000000020221101000063000NNM   20220718170647B6  4P0P  00006300000001089900001266832B6    AXARNE-M005100280028
BI00B32B6    A72040         202209097017-1183-02             TERMINAL                 CCN000027000000027000FN00000000020221101000027000NNM   20220718170647B6  4P0P  00002700000001139400001307432B6    AXARNE-M005100280028
BI00B32B6    A72040         202209097116-5045-02             TERMINAL                 CCN000032000000032000FN00000000020221101000032000NNM   20220718170647B6  4P0P  00001600000000678400001007132B6    AXARNE-M006400630017
BI00B32B6    A72040         202209097158-3167-80             WIRE SEAL                CCN000040000000040000FN00000000020221101000040000NNM   20220718170647B6  1C0C  00002000000000048000000109032B6    AXARNE-M002700430014
BI00B32B6    #A72040        202209097158-3003-90             RUBBER STOPPER           CCN000020000000020000FN00000000020221101000020000NNM   20220718170647B6  2C0C  00002000000000250000000306032B6    AXARNE-M002700430014
BI00B32B7    A82040         202209097158-3169-40             SEALING PLUG             CCN000080000000080000FN00000000020221201000080000NNM   20220718170647B7  1C0C  00004000000000156000000204132B7    AXARNE-M004300260014
BI00B32CG    S220706        202210127283-9458-30             CONNECTOR                CCN000001600000001600FN00000000020221001000001600NNE   20220718170647    4N0N  00000020000000792000000984332CG    ASASIACO005600390023
BI00B32CG    S220706        202210127116-4121-02             TERMINAL                 CCN000009000000009000FN00000000020221001000009000NNE   20220718170647    4P0P  00000450000000618800000912432CG    ASASIACO006400630015
BI00B32DA    SBT2209        202208047114-4020                TERMINAL                 CCN000021000000021000FN00000000020220901000021000NNM   20220718170647    4P0P  00002100000000875700001169332DA    GBYIPLGB006400630015
BI00B32DA    SBT2209        202208047114-4021                TERMINAL                 CCN000450000000450000FN00000000020220901000450000NNM   20220718170647    4P0P  00001500000000670500000964132DA    GBYIPLGB006400630015
BI00B32DA    SBT2209        202208047114-4032                TERMINAL                 CCN000015000000015000FN00000000020220901000015000NNM   20220718170647    4P0P  00000750000000735000001063632DA    GBYIPLGB006400630017
BI00B32DA    SBT2209A       202208117114-4032                TERMINAL                 CCN000007500000007500FN00000000020220901000007500NNM   20220718170647    4P0P  00000750000000735000001063632DA    GBYIPLGB006400630017
BI00B32DA    SBT2209        202208047116-1301                TERMINAL                 CCN000015000000015000FN00000000020220901000015000NNM   20220718170647    4P0P  00001500000000487500000772732DA    GBYIPLGB006400630015
BI00B32DA    SBT2209        202208047116-4020                TERMINAL                 CCN000054000000054000FN00000000020220901000054000NNM   20220718170647    4P0P  00001350000000513000000798232DA    GBYIPLGB006400630015
BI00B32DA    SBT2209        202208047116-4022                TERMINAL                 CCN000027000000027000FN00000000020220901000027000NNM   20220718170647    4P0P  00001350000000618300000903532DA    GBYIPLGB006400630015
BI00B32DA    SBT2209A       202208117116-4022                TERMINAL                 CCN000013500000013500FN00000000020220901000013500NNM   20220718170647    4P0P  00001350000000618300000903532DA    GBYIPLGB006400630015
BI00B32DA    SBT2209        202208047116-4025                TERMINAL                 CCN000288000000288000FN00000000020220901000288000NNM   20220718170647    4P0P  00001600000000644800000975132DA    GBYIPLGB006400630017
BI00B32DA    SBT2209        202208047116-4026                TERMINAL                 CCN000224000000224000FN00000000020220901000224000NNM   20220718170647    4P0P  00001600000000664000000994332DA    GBYIPLGB006400630017
BI00B32DA    SBT2209        202208047116-4032                TERMINAL                 CCN000108000000108000FN00000000020220901000108000NNM   20220718170647    4P0P  00000600000000532800000818032DA    GBYIPLGB006400630015
BI00B32DA    SBT2209        202208047116-4037                TERMINAL                 CCN000078000000078000FN00000000020220901000078000NNM   20220718170647    4P0P  00000600000000600000000894232DA    GBYIPLGB006400630015
BI00B32DA    SBT2209        202208047116-6042                TERMINAL                 CCN000051000000051000FN00000000020220901000051000NNM   20220718170647    4P0P  00000300000000523800000856132DA    GBYIPLGB006400630015
BI00B32DA    SBT2209        202208047283-5830                CONNECTOR                CCN000036000000036000FN00000000020220901000036000NNM   20220718170647    1N47  00000600000000954000001104032DA    GBYIPLGB005500360039
BI00B32DA    SBT2209        202208047283-5845                CONNECTOR HOUSING        CCN000018000000018000FN00000000020220901000018000NNM   20220718170647    1N0N  00000600000000444000000606332DA    GBYIPLGB005400370024
BI00B32DA    SBT2209A       202208117283-5845                CONNECTOR HOUSING        CCN000018000000018000FN00000000020220901000018000NNM   20220718170647    1N0N  00000600000000444000000606332DA    GBYIPLGB005400370024
BI00B32DA    SBT2209        202208047287-9234                JOINT CONNECTOR          CCN000028800000028800FN00000000020220901000028800NNM   20220718170647    4N0N  00000960000000893800001184832DA    GBYIPLGB005500360039
BI00B32DA    SBT2209A       202208117287-9234                JOINT CONNECTOR          CCN000028800000028800FN00000000020220901000028800NNM   20220718170647    4N0N  00000960000000893800001184832DA    GBYIPLGB005500360039
BI00B32DA    SBT2209        202208047017-1180-02             TERMINAL                 CCN000144000000144000FN00000000020220901000144000NNM   20220718170647    4P0P  00007200000001065600001229032DA    GBYIPLGB005100280028
BI00B32DA    SBT2209        202208047017-1182-02             TERMINAL                 CCN000045000000045000FN00000000020220901000045000NNM   20220718170647    4P0P  00004500000001165500001318632DA    GBYIPLGB005100280028
BI00B32DA    SBT2209        202208047114-4624-02             TERMINAL                 CCN000024000000024000FN00000000020220901000024000NNM   20220718170647    4P0P  00002400000000895200001188832DA    GBYIPLGB006400630015
BI00B32DA    SBT2209        202208047114-4728-02             TERMINAL                 CCN001050000001050000FN00000000020220901001050000NNM   20220718170647    4P0P  00003000000000510000000804232DA    GBYIPLGB006400630015
BI00B32DA    SBT2209        202208047114-4729-02             TERMINAL                 CCN000030000000030000FN00000000020220901000030000NNM   20220718170647    4P0P  00003000000000516000000810232DA    GBYIPLGB006400630015
BI00B32DA    SBT2209A       202208117114-4729-02             TERMINAL                 CCN000030000000030000FN00000000020220901000030000NNM   20220718170647    4P0P  00003000000000516000000810232DA    GBYIPLGB006400630015
BI00B32DA    SBT2209        202208047114-5746-02             TERMINAL                 CCN000063000000063000FN00000000020220901000063000NNM   20220718170647    4P0P  00002100000000695100000988732DA    GBYIPLGB006400630015
BI00B32DA    SBT2209        202208047114-5747-02             TERMINAL                 CCN000054000000054000FN00000000020220901000054000NNM   20220718170647    4P0P  00001800000000626400000920032DA    GBYIPLGB006400630015
BI00B32DA    SBT2209        202208047114-5748-02             TERMINAL                 CCN000060000000060000FN00000000020220901000060000NNM   20220718170647    4P0P  00001200000000444000000737632DA    GBYIPLGB006400630015
BI00B32DA    SBT2209        202208047114-5753-02             TERMINAL                 CCN000135000000135000FN00000000020220901000135000NNM   20220718170647    4P0P  00002700000000847800001141432DA    GBYIPLGB006400630015
BI00B32DA    SBT2209        202208047116-1257-02             TERMINAL                 CCN000012000000024000FN00000000020220901000024000NNM   20220718170647    4P0P  00002400000000518400000847132DA    GBYIPLGB006400630017
BI00B32DA    SBT2209        202208047116-4231-02             TERMINAL                 CCN000026000000026000FN00000000020220901000026000NNM   20220718170647    4P0P  00002600000000683800001012532DA    GBYIPLGB006400630017
BI00B32DA    SBT2209        202208047116-4486-02             TERMINAL                 CCN000280000000280000FN00000000020220901000280000NNM   20220718170647    4P0P  00002800000000666400000995132DA    GBYIPLGB006400630017
BI00B32DA    SBT2209        202208047116-5045-02             TERMINAL                 CCN000016000000016000FN00000000020220901000016000NNM   20220718170647    4P0P  00001600000000678400001007132DA    GBYIPLGB006400630017
BI00B32DA    SBT2209A       202208117116-5045-02             TERMINAL                 CCN000016000000016000FN00000000020220901000016000NNM   20220718170647    4P0P  00001600000000678400001007132DA    GBYIPLGB006400630017
BI00B32DA    SBT2209        202208047158-3006-90             RUBBER STOPPER           CCN000320000000320000FN00000000020220901000320000NNM   20220718170647    1C0C  00002000000000330600000386032DA    GBYIPLGB002700430014
BI00B32DA    SBT2209        202208047158-3009-60             RUBBER STOPPER           CCN000220000000220000FN00000000020220901000220000NNM   20220718170647    1C0C  00002000000000338000000386232DA    GBYIPLGB002700430014
BI00B32DA    SBT2209A       202208117158-3167-80             WIRE SEAL                CCN000020000000020000FN00000000020220901000020000NNM   20220718170647    1C0C  00002000000000048000000109032DA    GBYIPLGB002700430014
BI00B32DA    SBT2209        202208047172-5540-80             SEALED WIRE SEAL         CCN000020000000020000FN00000000020220901000020000NNM   20220718170647    1C0C  00002000000000186000000234432DA    GBYIPLGB004300270014
BI00B32DA    SBT2209A       202208117172-5540-80             SEALED WIRE SEAL         CCN000020000000020000FN00000000020220901000020000NNM   20220718170647    1C0C  00002000000000186000000234432DA    GBYIPLGB004300270014
BI00B32DA    SBT2209A       202208117196-0805-02             TERMINAL FEMALE          CCN000022500000022500FN00000000020220901000022500NNM   20220718170647    4P0P  00002250000000558000000843232DA    GBYIPLGB006400630015
BI00B32DA    SBT2209        202208047283-5830-30             CONNECTOR                CCN000012000000012000FN00000000020220901000012000NNM   20220718170647    1N0N  00000600000000954000001104032DA    GBYIPLGB005500360039
BI00B32DA    SBT2209A       202208117283-5830-30             CONNECTOR                CCN000012000000012000FN00000000020220901000012000NNM   20220718170647    1N0N  00000600000000954000001104032DA    GBYIPLGB005500360039
BI00B32DA    SBT2209        202208047288-3329-30             HOUSING MALE             CCN000007500000007500FN00000000020220901000007500NNM   20220718170647    4N0N  00000150000000866100001011132DA    GBYIPLGB005400370024
BI00B32DA    SBT2209A       202208117288-3329-30             HOUSING MALE             CCN000015000000015000FN00000000020220901000015000NNM   20220718170647    4N0N  00000150000000866100001011132DA    GBYIPLGB005400370024
BI00B32DA    SBT2209        202208047288-3331-30             HOUSING MALE             CCN000007500000007500FN00000000020220901000007500NNM   20220718170647    4N0N  00000150000000866000001010932DA    GBYIPLGB005400370024
BI00B32DA    SBT2209A       202208117288-3331-30             HOUSING MALE             CCN000015000000015000FN00000000020220901000015000NNM   20220718170647    4N0N  00000150000000866000001010932DA    GBYIPLGB005400370024
BI00B32DA    SBT2209        202208047288-3336-30             HOUSING MALE             CCN000007500000007500FN00000000020220901000007500NNM   20220718170647    4N0N  00000150000000867000001012032DA    GBYIPLGB005400370024
BI00B32DA    SBT2209A       202208117288-3336-30             HOUSING MALE             CCN000015000000015000FN00000000020220901000015000NNM   20220718170647    4N0N  00000150000000867000001012032DA    GBYIPLGB005400370024
BI00B32DA    SBT2209        202208047288-3337-30             HOUSING MALE             CCN000015000000015000FN00000000020220901000015000NNM   20220718170647    4N0N  00000150000000867000001012032DA    GBYIPLGB005400370024
BI00B32DA    SBT2209A       202208117288-3337-30             HOUSING MALE             CCN000015000000015000FN00000000020220901000015000NNM   20220718170647    4N0N  00000150000000867000001012032DA    GBYIPLGB005400370024
BI00B32DA    SBT2209        202208047289-3342-30             HOUSING FEMALE ASS'Y     CCN000048000000048000FN00000000020220901000048000NNM   20220718170647    1N0N  00000240000000686400000901432DA    GBYIPLGB005500360039
BI00B32DA    SBT2209A       202208117289-3342-30             HOUSING FEMALE ASS'Y     CCN000048000000048000FN00000000020220901000048000NNM   20220718170647    1N0N  00000240000000686400000901432DA    GBYIPLGB005500360039
BI00B32DA    SBT2209        202208047286-3885-40             CONNECTOR MALE ASS'Y     CCN000025200000025200FN00000000020220901000025200NNM   20220718170647    1N0N  00000120000000910600001130632DA    GBYIPLGB005500360039
BI00B32DA    SBT2209A       202208117286-3885-40             CONNECTOR MALE ASS'Y     CCN000025200000025200FN00000000020220901000025200NNM   20220718170647    1N0N  00000120000000910600001130632DA    GBYIPLGB005500360039
BI00B32DA    SBT2209        202208047287-3885-40             HYBRID FEMALE ASS'Y      CCN000012000000012000FN00000000020220901000012000NNM   20220718170647    1N0N  00000240000001029600001249632DA    GBYIPLGB005500360039
BI00B32DA    SBT2209A       202208117287-3885-40             HYBRID FEMALE ASS'Y      CCN000012000000012000FN00000000020220901000012000NNM   20220718170647    1N0N  00000240000001029600001249632DA    GBYIPLGB005500360039
BI00B32DA    SBT2209A       202208117114-4415-02             TERMINAL MALE            CCN000027000000027000FN00000000020220901000027000NNM   20220718170647    4P0P  00002700000000429300000717532DA    GBYIPLGB006400630015
BI00B32DA    SBT2209A       202208117158-3169-40             SEALING PLUG             CCN000040000000040000FN00000000020220901000040000NNM   20220718170647    1C0C  00004000000000156000000204132DA    GBYIPLGB004300260014
BI00B32DA    SBT2209        202208047116-3153-02             TERMINAL FEMALE          CCN001760000001782000FN00000000020220901001782000NNM   20220718170647    4P0P  00002700000000459000000744232DA    GBYIPLGB006400630015
BI00B32DA    #SBT2209       202208047114-4022                TERMINAL                 CCN000015000000015000FN00000000020220901000015000NNM   20220718170647    2F0P  00001500000000708000001120632DA    GBYIPLGB006400630015
BI00B32DA    #SBT2209A      202208117114-4022                TERMINAL                 CCN000015000000015000FN00000000020220901000015000NNM   20220718170647    2F0P  00001500000000708000001120632DA    GBYIPLGB006400630015
BI00B32DA    #SBT2209       202208047183-2414                CONNECTOR HOUSING        CCN000019200000019200FN00000000020220901000019200NNM   20220718170647    2F0F  00000480000000779200001061032DA    GBYIPLGB005500360039
BI00B32DA    #SBT2209       202208047189-3037                HOUSING FEMALE           CCN000009600000009600FN00000000020220901000009600NNM   20220718170647    2F0F  00000480000000806400001066432DA    GBYIPLGB005500360039
BI00B32DA    #SBT2209A      202208117189-3037                HOUSING FEMALE           CCN000009600000009600FN00000000020220901000009600NNM   20220718170647    2F0F  00000480000000806400001066432DA    GBYIPLGB005500360039
BI00B32DA    #SBT2209       202208047158-3015-10             RUBBER STOPPER           CCN000080000000080000FN00000000020220901000080000NNM   20220718170647    2C0C  00001000000000419500000474032DA    GBYIPLGB002700430014
BI00B32DA    #SBT2209       202208047183-1616-30             CONNECTOR HOUSING        CCN000019200000019200FN00000000020220901000019200NNM   20220718170647    2F0F  00000240000000557500000837132DA    GBYIPLGB005500360039
BI00B32DA    #SBT2209       202208047183-2414-40             CONNECTOR HOUSING        CCN000009600000009600FN00000000020220901000009600NNM   20220718170647    2F0F  00000480000000777600000963632DA    GBYIPLGB005500360039
BI00B32DA    #SBT2209A      202208117183-2414-40             CONNECTOR HOUSING        CCN000004800000004800FN00000000020220901000004800NNM   20220718170647    2F0F  00000480000000777600000963632DA    GBYIPLGB005500360039
BI00B32DA    #SBT2209       202208047183-7725-40             HOUSING                  CCN000012000000012000FN00000000020220901000012000NNM   20220718170647    2F0F  00000600000000840000001040032DA    GBYIPLGB005600390040
BI00B32DA    #SBT2209A      202208117183-7725-40             HOUSING                  CCN000012000000012000FN00000000020220901000012000NNM   20220718170647    2F0F  00000600000000840000001040032DA    GBYIPLGB005600390040
BI00B32DE    TCT2082        202207217287-1915-90             CONNECTOR ASS'Y          CCN000007200000007200FN00000000020220801000007200NNM00020220718170647    1N0N  00000240000000666500000923132DE    TVYEV-TV005500360039
BI00B32DE    TCT2084        202207217287-1915-90             CONNECTOR ASS'Y          CCN000012000000012000FN00000000020220801000012000NNM00020220718170647    1N0N  00000240000000666500000923132DE    TVYEV-TV005500360039
BI00B32DE    #TCTL209B      202208257125-3236-30             HEAD LAMP CONNECTOR      CCN000002800000002800FN00000000020220901000002800NNE   20220718170647    2F0F  00000280000000945000001085932DE    TVYEV-TV005500360039
BI00B32DE    #TCTL209A      202208117154-5597-30             CASSETTE R/B             CCN000003200000003200FN00000000020220901000003200NNE   20220718170647    2F0F  00000080000000736000000952032DE    TVYEV-TV005500360039
BI00B32DE    #TCTL209B      202208257154-5597-30             CASSETTE R/B             CCN000004000000004000FN00000000020220901000004000NNE   20220718170647    2F0F  00000080000000736000000952032DE    TVYEV-TV005500360039
BI00B32DE    #TCTL209B      202208257157-8991-80             RUBBER STOPPER           CCN000020000000020000FN00000000020220901000020000NNE   20220718170647    2C0C  00002000000000214000000271032DE    TVYEV-TV002700430014
BI00B32DE    #TCTL209B      202208257158-3003-90             RUBBER STOPPER           CCN000060000000060000FN00000000020220901000060000NNE   20220718170647    2C0C  00002000000000250000000306032DE    TVYEV-TV002700430014
BI00B32DE    #TCTL209B      202208257158-3007-10             RUBBER STOPPER           CCN000040000000040000FN00000000020220901000040000NNE   20220718170647    2H0H  00002000000000308000000362732DE    TVYEV-TV002700430014
BI00B32DE    #TCTL209A      202208117158-3008-80             RUBBER STOPPER           CCN000020000000020000FN00000000020220901000020000NNE   20220718170647    2C0C  00002000000000288000000343032DE    TVYEV-TV004300270014
BI00B32DE    #TCTL209A      202208117158-3015-10             RUBBER STOPPER           CCN000020000000020000FN00000000020220901000020000NNE   20220718170647    2C0C  00001000000000419500000474032DE    TVYEV-TV002700430014
BI00B32DE    #TCTL209B      202208257158-3015-10             RUBBER STOPPER           CCN000010000000010000FN00000000020220901000010000NNE   20220718170647    2C0C  00001000000000419500000474032DE    TVYEV-TV002700430014
BI00B32DE    #TCTL209A      202208117158-3017                RUBBER STOPPER           CCN000020000000020000FN00000000020220901000020000NNE   20220718170647    2C0C  00001000000000375500000435032DE    TVYEV-TV002700430014
BI00B32DE    #TCTL209B      202208257158-3017                RUBBER STOPPER           CCN000030000000030000FN00000000020220901000030000NNE   20220718170647    2C0C  00001000000000375500000435032DE    TVYEV-TV002700430014
BI00B32DE    #TCTL209A      202208117158-7586-30             BLOCK LIF                CCN000002400000002400FN00000000020220901000002400NNE   20220718170647    2F0F  00000080000000617400000844232DE    TVYEV-TV005500360039
BI00B32DE    #TCTL209B      202208257158-7586-30             BLOCK LIF                CCN000003200000003200FN00000000020220901000003200NNE   20220718170647    2F0F  00000080000000617400000844232DE    TVYEV-TV005500360039
BI00B32DE    #TCTL209A      202208117183-2412                HOUSING                  CCN000001600000001600FN00000000020220901000001600NNE   20220718170647    2F0F  00000160000001059200001245632DE    TVYEV-TV005500360039
BI00B32DE    #TCTL209B      202208257183-2412                HOUSING                  CCN000001600000001600FN00000000020220901000001600NNE   20220718170647    2F0F  00000160000001059200001245632DE    TVYEV-TV005500360039
BI00B32DE    #TCTL209B      202208257183-7725-40             HOUSING                  CCN000006000000006000FN00000000020220901000006000NNE   20220718170647    2F0F  00000600000000840000001040032DE    TVYEV-TV005600390040
BI00B32DE    #TCTL209B      202208257187-8856                HOUSING FEMALE           CCN000008000000008000FN00000000020220901000008000NNE   20220718170647    2F0F  00000200000000820000000931532DE    TVYEV-TV005400370024
BI00B32DE    #TCTL209B      202208257188-0149                HLC HOUSING MALE         CCN000009900000009900FN00000000020220901000009900NNE   20220718170647    2F0F  00000090000000809100000923832DE    TVYEV-TV005400370024
BI00B32DE    #TCTL209A      202208117189-0149                HLC HOUSING FEMALE       CCN000004000000004000FN00000000020220901000004000NNE   20220718170647    2F0F  00000200000000970000001078532DE    TVYEV-TV005400370024
BI00B32DE    #TCTL209B      202208257189-0149                HLC HOUSING FEMALE       CCN000006000000006000FN00000000020220901000006000NNE   20220718170647    2F0F  00000200000000970000001078532DE    TVYEV-TV005400370024
BI00B32DE    #TCTL209A      202208117283-1065                CONNECTOR                CCN000005000000005000FN00000000020220901000005000NNE   20220718170647    2N0N  00000250000001152500001310432DE    TVYEV-TV005500360039
BI00B32DE    #TCTL209B      202208257283-1065                CONNECTOR                CCN000007500000007500FN00000000020220901000007500NNE   20220718170647    2N0N  00000250000001152500001310432DE    TVYEV-TV005500360039
BI00B32DE    #TCTL209A      202208117158-3120-90             CONNECTOR WIRE SEAL      CCN000020000000020000FN00000000020220901000020000NNE   20220718170647    2C0C  00002000000000136000000194032DE    TVYEV-TV002700430014
BI00B32DE    #TCTL209B      202208257158-3120-90             CONNECTOR WIRE SEAL      CCN000020000000020000FN00000000020220901000020000NNE   20220718170647    2C0C  00002000000000136000000194032DE    TVYEV-TV002700430014
BI00B32DE    #TCTL209B      202208257183-2416-90             HOUSING                  CCN000002400000002400FN00000000020220901000002400NNE   20220718170647    2F0F  00000240000001489700001765832DE    TVYEV-TV005500360039
BI00B32EJ    @T220712P01    202208187123-4312-80             HOUSING                  CCN000004000000004000FN00000000020220801000004000NNED0020220718170647EJ  3F0F  00000080000000644200000794032EJ    EJYKBO  005500360039
BI00B32EJ    T220713P01     202210067116-1230                TERMINAL                 CCN000013500000013500FN00000000020221001000013500NNED0020220718170647EJ  4P0P  00001350000000664200000952432EJ    EJYKBO  006400630015
BI00B32H2    #TIJ2082       202207267183-2414                CONNECTOR HOUSING        CCN000004800000004800FN00000000020220801000004800NNMD0020220718170647    2F0F  00000480000000779200001061032H2    HVYHV   005500360039
BI00B32J1    396263         202207257114-1475                TERMINAL                 CCN000040500000040500FN00000000020220801000040500NNMD0020220718173433    4P0P  00001350000000480600000774232J1    UKYEL-BL006400630015
BI00B32J1    396263         202207257327-6654-3W             BATTERY FUSE             CCN000000864000000864FN00000000020220801000000864NNMD0020220718173433    4N0N  00000009600001132300001312432J1    UKYEL-BL005500360039
BI00B32J1    #396263        202207257047-5344                RETAINER                 CCN000040000000040000FN00000000020220801000040000NNMD0020220718170647    2F0F  00001000000000870000001016032J1    UKYEL-BL005600390023
BI00B32J1    #396263        202207257297-1907-30             HOUSING MALE ASS'Y       CCN000004500000004500FN00000000020220801000004500NNMD0020220718170647    2N0N  00000150000000451800000568032J1    UKYEL-BL005400370024
BI00B32J1    396406         202208017114-1475                TERMINAL                 CCN000081000000081000FN00000000020220801000081000NNMD0020220718170647    4P0P  00001350000000480600000774232J1    UKYEL-BL006400630015
BI00B32J1    396406         202208017158-3006-90             RUBBER STOPPER           CCN000020000000020000FN00000000020220801000020000NNMD0020220718170647    1C0C  00002000000000330600000386032J1    UKYEL-BL002700430014
BI00B32J1    396406         202208017283-1968-30             CONNECTOR                CCN000005400000005400FN00000000020220801000005400NNMD0020220718170647    1N0N  00000090000001140000001318332J1    UKYEL-BL005600390040
BI00B32J1    396406         202208017289-5000                HOUSING FEMALE ASS'Y     CCN000001520000001520FN00000000020220801000001520NNMD0020220718170647    1N0N  00000030400000549000000759032J1    UKYEL-BL005400370024
BI00B32J1    #396406        202208017047-5344                RETAINER                 CCN000130000000130000FN00000000020220801000130000NNMD0020220718170647    2F0F  00001000000000870000001016032J1    UKYEL-BL005600390023
BI00B32J1    #396406        202208017174-1164                COVER                    CCN000001600000001600FN00000000020220801000001600NNMD0020220718170647    2F0F  00000080000000592000000712032J1    UKYEL-BL005500360039
BI00B32J1    #396406        202208017282-4192-40             CONNECTOR                CCN000003840000003840FN00000000020220801000003840NNMD0020220718170647    2N0N  00000024000000801000001083732J1    UKYEL-BL005600390040
BI00B32J1    #396406        202208017282-6446-40             CONNECTOR                CCN000010500000010500FN00000000020220801000010500NNMD0020220718170647    2N0N  00000150000001185000001368032J1    UKYEL-BL005500360039
BI00B32M1    TCV2082        202207217287-1915-90             CONNECTOR ASS'Y          CCN000004800000004800FN00000000020220801000004800NNM00020220718170647    1N0N  00000240000000666500000923132M1    VNYEV   005500360039
BI00B32M8    PM22082 MW     202207207287-1915-40             CONNECTOR ASS'Y          CCN000002400000002400FN00000000020220801000002400NNMD0020220718170647    1N0N  00000240000000666500000923132M8    PMPEMI  005500360039
BI00B32N1    NST2121HCU     202207217288-3335-30             HOUSING MALE             CCN000012000000007500FN00000000020220801000007500NNED0020220718170647    4N0N  00000150000000867000001012032N1    TAYIPL  005400370024
BI00A32N1    NST2121HCU     202207217288-3335-30             HOUSING MALE             CCN000004500000004500FN00000000020220801000004500NNEM0020220718183451    4N0N  00000150000000867000001012032N1    TAYIPL  005400370024
BI00B32N1    NST2711        202208047114-4416-02             TERMINAL MALE            CCN000010000000027000FN00000000020220801000027000NNE   20220718170647    4P0P  00002700000000442800000731032N1    TAYIPL  006400630015
BI00B32N1    NST2711        202208047158-3167-80             WIRE SEAL                CCN000010000000020000FN00000000020220801000020000NNE   20220718170647    1C0C  00002000000000048000000109032N1    TAYIPL  002700430014
BI00B32N1    NST2711        202208047116-2893-02             TERMINAL                 CCN000010000000012000FN00000000020220801000012000NNE   20220718170647    4P0P  00001200000000895200001058632N1    TAYIPL  005100280028
BI00B32N1    NST2711        202208047116-1686-02             TERMINAL                 CCN000025000000042000FN00000000020220801000042000NNE   20220718170647    4P0P  00002100000000869400001021632N1    TAYIPL  005100280028
BI00B32N1    NST2711        202208047126-8855-02             TERMINAL                 CCN000025000000030000FN00000000020220801000030000NNE   20220718170647    4P0P  00000600000000510600000795832N1    TAYIPL  006400630015
BI00B32N1    NST2711        202208047126-8852-02             TERMINAL                 CCN000025000000030000FN00000000020220801000030000NNE   20220718170647    1P0P  00000750000000648000000933232N1    TAYIPL  006400630015
BI00B32N1    NST2711        202208047116-4025                TERMINAL                 CCN000025000000032000FN00000000020220801000032000NNE   20220718170647    4P0P  00001600000000644800000975132N1    TAYIPL  006400630017
BI00B32N1    NST2711        202208047116-5045-02             TERMINAL                 CCN000025000000032000FN00000000020220801000032000NNE   20220718170647    4P0P  00001600000000678400001007132N1    TAYIPL  006400630017
BI00B32N1    NST2121ICU     202208117114-1470                TERMINAL                 CCN000165000000165000FN00000000020220901000165000NNE   20220718170647    4P0P  00001650000000544500000838732N1    TAYIPL  006400630015
BI00B32N1    NST2121ICU     202208117114-4021                TERMINAL                 CCN000030000000030000FN00000000020220901000030000NNE   20220718170647    4P0P  00001500000000670500000964132N1    TAYIPL  006400630015
BI00B32N1    NST2121ICU     202208117114-4031                TERMINAL                 CCN000084000000084000FN00000000020220901000084000NNE   20220718170647    4P0P  00001050000000966000001294632N1    TAYIPL  006400630017
BI00B32N1    NST2121ICU     202208117114-6041                TERMINAL                 CCN000018000000018000FN00000000020220901000018000NNE   20220718170647    4P0P  00000360000000580700000824232N1    TAYIPL  006400630015
BI00B32N1    NST2121ICU     202208117116-1301                TERMINAL                 CCN000015000000015000FN00000000020220901000015000NNE   20220718170647    4P0P  00001500000000487500000772732N1    TAYIPL  006400630015
BI00B32N1    NST2121ICU     202208117116-4025                TERMINAL                 CCN000080000000080000FN00000000020220901000080000NNE   20220718170647    4P0P  00001600000000644800000975132N1    TAYIPL  006400630017
BI00B32N1    NST2121ICU     202208117283-1289                CONNECTOR HOUSING        CCN000014400000014400FN00000000020220901000014400NNE   20220718170647    1N0N  00000060000000676200000817632N1    TAYIPL  005400370024
BI00B32N1    NST2121ICU     202208117283-4577                CONNECTOR HOUSING        CCN000009600000009600FN00000000020220901000009600NNE   20220718170647    4N0N  00000480000000916800001136832N1    TAYIPL  005500360039
BI00B32N1    NST2121ICU     202208117283-5830                CONNECTOR                CCN000024000000024000FN00000000020220901000024000NNE   20220718170647    1N47  00000600000000954000001104032N1    TAYIPL  005500360039
BI00B32N1    NST2121ICU     202208117283-5845                CONNECTOR HOUSING        CCN000036000000036000FN00000000020220901000036000NNE   20220718170647    1N0N  00000600000000444000000606332N1    TAYIPL  005400370024
BI00B32N1    NST2121ICU     202208117283-8630                CONNECTOR ASS'Y          CCN000006000000006000FN00000000020220901000006000NNE   20220718170647    4N0N  00000600000000540000000701332N1    TAYIPL  005400370024
BI00B32N1    NST2121ICU     202208117114-4415-02             TERMINAL MALE            CCN001026000001026000FN00000000020220901001026000NNE   20220718170647    4P0P  00002700000000429300000717532N1    TAYIPL  006400630015
BI00B32N1    NST2121ICU     202208117114-4416-02             TERMINAL MALE            CCN000459000000459000FN00000000020220901000459000NNE   20220718170647    4P0P  00002700000000442800000731032N1    TAYIPL  006400630015
BI00B32N1    NST2121ICU     202208117116-1486-02             TERMINAL                 CCN000148500000148500FN00000000020220901000148500NNE   20220718170647    4P0P  00001650000000655100000940332N1    TAYIPL  006400630015
BI00B32N1    NST2121ICU     202208117116-1685-02             TERMINAL                 CCN000528000000528000FN00000000020220901000528000NNE   20220718170647    4P0P  00002400000000897600001065232N1    TAYIPL  005100280028
BI00B32N1    NST2121ICU     202208117116-2892-02             TERMINAL                 CCN000204000000204000FN00000000020220901000204000NNE   20220718170647    4P0P  00001200000000818400000981832N1    TAYIPL  005100280028
BI00B32N1    NST2121ICU     202208117116-2893-02             TERMINAL                 CCN000192000000192000FN00000000020220901000192000NNE   20220718170647    4P0P  00001200000000895200001058632N1    TAYIPL  005100280028
BI00B32N1    NST2121ICU     202208117116-3154-02             TERMINAL FEMALE          CCN004806000004806000FN00000000020220901004806000NNE   20220718170647    4P0P  00002700000000469800000755032N1    TAYIPL  006400630015
BI00B32N1    NST2121ICU     202208117116-4102-02             TERMINAL                 CCN000504000000504000FN00000000020220901000504000NNE   20220718170647    4P0P  00001200000000553200000841432N1    TAYIPL  006400630015
BI00B32N1    NST2121ICU     202208117116-4112-02             TERMINAL                 CCN000084000000084000FN00000000020220901000084000NNE   20220718170647    4P0P  00000600000000450000000738232N1    TAYIPL  006400630015
BI00B32N1    NST2121ICU     202208117116-4114-02             TERMINAL                 CCN000021000000021000FN00000000020220901000021000NNE   20220718170647    4P0P  00001050000000693000000981232N1    TAYIPL  006400630015
BI00B32N1    NST2121ICU     202208117116-4122-02             TERMINAL                 CCN000004500000004500FN00000000020220901000004500NNE   20220718170647    4P0P  00000450000000656600000950232N1    TAYIPL  006400630015
BI00B32N1    NST2121ICU     202208117116-4231-02             TERMINAL                 CCN000052000000052000FN00000000020220901000052000NNE   20220718170647    4P0P  00002600000000683800001012532N1    TAYIPL  006400630017
BI00B32N1    NST2121ICU     202208117116-4415-02             TERMINAL                 CCN000950000000950000FN00000000020220901000950000NNE   20220718170647    4P0P  00003800000000596600000925732N1    TAYIPL  006400630017
BI00B32N1    NST2121ICU     202208117116-5044-02             TERMINAL                 CCN000016000000016000FN00000000020220901000016000NNE   20220718170647    4P0P  00001600000000641600000986332N1    TAYIPL  006400630017
BI00B32N1    NST2121ICU     202208117116-5045-02             TERMINAL                 CCN000016000000016000FN00000000020220901000016000NNE   20220718170647    4P0P  00001600000000678400001007132N1    TAYIPL  006400630017
BI00B32N1    NST2121ICU     202208117126-8853-02             TERMINAL                 CCN000285000000285000FN00000000020220901000285000NNE   20220718170647    4P0P  00000750000000562500000847732N1    TAYIPL  006400630015
BI00B32N1    NST2121ICU     202208117126-8854-02             TERMINAL                 CCN000285000000285000FN00000000020220901000285000NNE   20220718170647    4P0P  00000750000000604500000889732N1    TAYIPL  006400630015
BI00B32N1    NST2121ICU     202208117126-8855-02             TERMINAL                 CCN000192000000192000FN00000000020220901000192000NNE   20220718170647    4P0P  00000600000000510600000795832N1    TAYIPL  006400630015
BI00B32N1    NST2121ICU     202208117158-3006-90             RUBBER STOPPER           CCN000240000000240000FN00000000020220901000240000NNE   20220718170647    1C0C  00002000000000330600000386032N1    TAYIPL  002700430014
BI00B32N1    NST2121ICU     202208117158-3070-80             RUBBER STOPPER           CCN002120000002120000FN00000000020220901002120000NNE   20220718170647    1C0C  00004000000000276000000333332N1    TAYIPL  002700430014
BI00B32N1    NST2121ICU     202208117158-3166-60             WIRE SEAL                CCN002080000002080000FN00000000020220901002080000NNE   20220718170647    1C0C  00004000000000104000000152432N1    TAYIPL  002700430014
BI00B32N1    NST2121ICU     202208117158-3167-80             WIRE SEAL                CCN001360000001360000FN00000000020220901001360000NNE   20220718170647    1C0C  00002000000000048000000109032N1    TAYIPL  002700430014
BI00B32N1    NST2121ICU     202208117172-5540-80             SEALED WIRE SEAL         CCN000060000000060000FN00000000020220901000060000NNE   20220718170647    1C0C  00002000000000186000000234432N1    TAYIPL  004300270014
BI00B32N1    NST2121ICU     202208117196-0648-02             TERMINAL                 CCN000030000000030000FN00000000020220901000030000NNE   20220718170647    4P0P  00001500000000355500000689732N1    TAYIPL  006400630015
BI00B32N1    NST2121ICU     202208117196-0805-02             TERMINAL FEMALE          CCN000045000000045000FN00000000020220901000045000NNE   20220718170647    4P0P  00002250000000558000000843232N1    TAYIPL  006400630015
BI00B32N1    NST2121ICU     202208117222-7564-40             CONNECTOR                CCN000003000000003000FN00000000020220901000003000NNE   20220718170647    1N0N  00000050000000967000001097032N1    TAYIPL  005500360039
BI00B32N1    NST2121ICU     202208117288-3335-30             HOUSING MALE             CCN000003000000003000FN00000000020220901000003000NNE   20220718170647    4N0N  00000150000000867000001012032N1    TAYIPL  005400370024
BI00B32N1    NST2121ICU     202208117289-4212-80             SEALED HOUSING ASS'Y     CCN000004000000004000FN00000000020220901000004000NNE   20220718170647    4N0N  00000200000000848600000978632N1    TAYIPL  005400370024
BI00B32N1    NST2121ICU     202208117289-6524-30             HOUSING FEMALE ASS'Y     CCN000004080000004080FN00000000020220901000004080NNE   20220718170647    4N0N  00000024000001351200001666232N1    TAYIPL  005500360039
BI00B32N1    NST2121ICU     202208117B58-3070-80             RUBBER STOPPER           CCN000040000000040000FN00000000020220901000040000NNE   20220718170647    1C0C  00004000000000276000000333032N1    TAYIPL  004300270014
BI00B32N1    #NST2121ICU    202208117116-4021                TERMINAL                 CCN000108000000108000FN00000000020220901000108000NNE   20220718170647    2F0P  00001350000000534600000868832N1    TAYIPL  006400630015
BI00B32N1    #NST2121ICU    202208117157-7812                SEAL RUBBER              CCN000250000000250000FN00000000020220901000250000NNE   20220718170647    2C0C  00001000000000137000000202032N1    TAYIPL  002700430014
BI00B32N1    #NST2121ICU    202208117183-1616                CONNECTOR HOUSING        CCN000031200000031200FN00000000020220901000031200NNE   20220718170647    2F0F  00000240000000557500000823332N1    TAYIPL  005500360039
BI00B32N1    #NST2121ICU    202208117183-2418                CONNECTOR HOUSING        CCN000004800000004800FN00000000020220901000004800NNE   20220718170647    2F0F  00000480000000917000001477032N1    TAYIPL  005500360039
BI00B32N1    #NST2121ICU    202208117189-3037                HOUSING FEMALE           CCN000004800000004800FN00000000020220901000004800NNE   20220718170647    2F0F  00000480000000806400001066432N1    TAYIPL  005500360039
BI00B32N1    #NST2121ICU    202208117283-5831                CONNECTOR                CCN000021000000021000FN00000000020220901000021000NNE   20220718170647    2N0N  00000300000000750000000880032N1    TAYIPL  005400370024
BI00B32N1    #NST2121ICU    202208117283-5834                CONNECTOR ASS'Y          CCN000003240000003240FN00000000020220901000003240NNE   20220718170647    2N0N  00000324000001296000001849732N1    TAYIPL  005600390040
BI00B32N1    #NST2121ICU    202208117157-3950-80             SEAL RUBBER              CCN000120000000120000FN00000000020220901000120000NNE   20220718170647    2C0C  00004000000000154000000440332N1    TAYIPL  002700430014
BI00B32N1    #NST2121ICU    202208117158-3003-90             RUBBER STOPPER           CCN000120000000120000FN00000000020220901000120000NNE   20220718170647    2C0C  00002000000000250000000306032N1    TAYIPL  002700430014
BI00B32N1    #NST2121ICU    202208117158-3121-80             WIRE SEAL                CCN000500000000500000FN00000000020220901000500000NNE   20220718170647    2C0C  00002000000000118000000187332N1    TAYIPL  002700430014
BI00B32N1    #NST2121ICU    202208117158-3374-90             CONNECTOR WIRE SEAL      CCN000020000000020000FN00000000020220901000020000NNE   20220718170647    2H0H  00002000000000172000000229332N1    TAYIPL  002700430014
BI00B32N1    #NST2121ICU    202208117174-1315-30             SEALED COVER             CCN000004800000004800FN00000000020220901000004800NNE   20220718170647    2F0F  00000080000000782000000902032N1    TAYIPL  005500360039
BI00B32N1    #NST2121ICU    202208117183-7725-40             HOUSING                  CCN000024000000024000FN00000000020220901000024000NNE   20220718170647    2F0F  00000600000000840000001040032N1    TAYIPL  005600390040
BI00B32N1    #NST2121ICU    202208117289-2912-30             HOUSING FEMALE ASS'Y     CCN000010000000010000FN00000000020220901000010000NNE   20220718170647    2N0N  00000200000000804000000929032N1    TAYIPL  005400370024
BI00B32N1    @NST2121ICU    202208117283-3030-30             HOUSING FEMALE ASS'Y     CCN000011200000011200FN00000000020220901000011200NNE   20220718170647    3N0N  00000160000001062000001275032N1    TAYIPL  005500360039
BI00B32N2    #2152104117    202208117186-3971                CONNECTOR HOUSING        CCN000002400000002400FN00000000020220901000002400NNE   20220718170647    2F0F  00000240000001002200001191432N2    YWYIPLTC005500360039
BI00B32N2    #2152104117    202208117187-3971                CONNECTOR HOUSING        CCN000002400000002400FN00000000020220901000002400NNE   20220718170647    2F0F  00000240000000928300001099532N2    YWYIPLTC005500360039
BI00B32N2    #2152104117    202208117186-3974-30             CONNECTOR HOUSING        CCN000002400000002400FN00000000020220901000002400NNE   20220718170647    2F0F  00000240000001062200001233432N2    YWYIPLTC005500360039
BI00B32N2    #2152104117    202208117186-3976-60             CONNECTOR HOUSING        CCN000004800000004800FN00000000020220901000004800NNE   20220718170647    2F0F  00000240000001065100001236332N2    YWYIPLTC005500360039
BI00B32N2    @2152104117    202208117283-1100                CONNECTOR ASS'Y          CCN000001600000001600FN00000000020220901000001600NNE   20220718170647    3N0N  00000160000000566500000799632N2    YWYIPLTC005500360039
BI00B32Q8    EU22084TMW     202207207287-1915-40             CONNECTOR ASS'Y          CCN000002400000002400FN00000000020220801000002400NNMD0020220718170647    1N0N  00000240000000666500000923132Q8    EMEMI   005500360039
BI00B32R4    HZYSW2209022   202209017116-1230                TERMINAL                 CCN000013500000013500FN00000000020220901000013500NNM   20220718170647    4P0P  00001350000000664200000952432R4    HZHZYME 006400630015
BI00B32R7    #R-TAP220305   202208047283-8730-30             HOUSING FEMALE ASS'Y     CCN000004000000004000FN00000000020220801000004000NNE   20220718170647    2N0N  00000200000000794000000906532R7    IVYCIC  005400370024
BI00B32R7    R-TAP220306    202207277116-4121-02             TERMINAL                 CCN000013500000013500FN00000000020220801000013500NNE   20220718174154    4P0P  00000450000000618800000912432R7    IVYCIC  006400630015
BI00B32R7    R-TAP220307    202207277116-4121-02             TERMINAL                 CCN000009000000009000FN00000000020220801000009000NNE   20220718174154    4P0P  00000450000000618800000912432R7    IVYCIC  006400630015
BI00B32R7    R-TAP220309    202208047C98-1145-4W             SQUIB SUB ASS'Y          CCN000020000000020000FN00000000020220801000020000NNE   20220718170647    4N0N  00001000000000787900000944932R7    IVYCIC  005400370024
BI00A32U5    #PU5TAP207A    202207217174-2201-30             SEALED COVER             CCN000001000000001000FN00000000020220701000001000NNE   20220718170647U5  2F0F  00000100000000529500000656432U5    AMAMSD  005400370024
BI00A32U5    #PU5TAP207A    202207217174-2202-30             SEALED COVER             CCN000001400000001400FN00000000020220701000001400NNE   20220718170647U5  2F0F  00000140000000658000000735632U5    AMAMSD  005400370024
BI00A32U5    #PU5TAP207A    202207217298-4919-30             HOUSING FEMALE ASS'Y     CCN000000600000000600FN00000000020220701000000600NNE   20220718170647U5  2N0N  00000060000000727200000837932U5    AMAMSD  005400370024
BI00B32U5    DI2040         202209097114-4032                TERMINAL                 CCN000015000000015000FN00000000020221101000015000NNM   20220718170647U5  4P0P  00000750000000735000001063632U5    AMAMSD  006400630017
BI00B32U5    DI2040         202209097289-3342                HOUSING FEMALE ASS'Y     CCN000016800000016800FN00000000020221101000016800NNM   20220718170647U5  1N0N  00000240000000686400000901432U5    AMAMSD  005500360039
BI00B32U5    DI2040         202209097017-1180-02             TERMINAL                 CCN000144000000144000FN00000000020221101000144000NNM   20220718170647U5  4P0P  00007200000001065600001229032U5    AMAMSD  005100280028
BI00B32U5    DI2040         202209097017-1183-02             TERMINAL                 CCN000054000000054000FN00000000020221101000054000NNM   20220718170647U5  4P0P  00002700000001139400001307432U5    AMAMSD  005100280028
BI00B32U5    DI2040         202209097114-4624-02             TERMINAL                 CCN000096000000096000FN00000000020221101000096000NNM   20220718170647U5  4P0P  00002400000000895200001188832U5    AMAMSD  006400630015
BI00B32U5    DI2040         202209097116-1685-02             TERMINAL                 CCN000264000000264000FN00000000020221101000264000NNM   20220718170647U5  4P0P  00002400000000897600001065232U5    AMAMSD  005100280028
BI00B32U5    DI2040         202209097116-4486-02             TERMINAL                 CCN000112000000112000FN00000000020221101000112000NNM   20220718170647U5  4P0P  00002800000000666400000995132U5    AMAMSD  006400630017
BI00B32U5    DI2040         202209097116-5045-02             TERMINAL                 CCN000112000000112000FN00000000020221101000112000NNM   20220718170647U5  4P0P  00001600000000678400001007132U5    AMAMSD  006400630017
BI00B32U5    DI2040         202209097116-5046-02             TERMINAL                 CCN000072000000072000FN00000000020221101000072000NNM   20220718170647U5  4P0P  00001200000000544800000873532U5    AMAMSD  006400630017
BI00B32U5    DI2040         202209097158-3167-80             WIRE SEAL                CCN000040000000040000FN00000000020221101000040000NNM   20220718170647U5  1C0C  00002000000000048000000109032U5    AMAMSD  002700430014
BI00B32U5    DI2040         202209097195-1936-02             TERMINAL MALE            CCN000015000000015000FN00000000020221101000015000NNM   20220718170647U5  4P0P  00001500000000589500000883132U5    AMAMSD  006400630015
BI00B32U5    DI2040         202209097196-1102-02             TERMINAL                 CCN000022500000022500FN00000000020221101000022500NNM   20220718170647U5  4P0P  00002250000000405000000690232U5    AMAMSD  006400630015
BI00B32U5    DI2040         202209097196-1104-02             TERMINAL                 CCN000270000000270000FN00000000020221101000270000NNM   20220718170647U5  4P0P  00002250000000441000000726232U5    AMAMSD  006400630015
BI00B32U5    DI2040         202209097196-1936-02             TERMINAL FEMALE          CCN000013500000013500FN00000000020221101000013500NNM   20220718170647U5  4P0P  00001350000000441500000726732U5    AMAMSD  006400630015
BI00B32U5    DI2040         202209097196-1944-02             TERMINAL FEMALE          CCN000012000000012000FN00000000020221101000012000NNM   20220718170647U5  4P0P  00001200000000501600000786832U5    AMAMSD  006400630015
BI00B32U5    DI2040         202209097283-9458-30             CONNECTOR                CCN000001200000001200FN00000000020221101000001200NNM   20220718170647U5  4N0N  00000020000000792000000984332U5    AMAMSD  005600390023
BI00B32U5    DI2040         202209097288-3330-30             HOUSING MALE             CCN000004500000004500FN00000000020221101000004500NNM   20220718170647U5  4N0N  00000150000000866300001011232U5    AMAMSD  005400370024
BI00B32U5    DI2040         202209097288-3331-30             HOUSING MALE             CCN000001500000001500FN00000000020221101000001500NNM   20220718170647U5  4N0N  00000150000000866000001010932U5    AMAMSD  005400370024
BI00B32U5    DI2040         202209097289-3342-30             HOUSING FEMALE ASS'Y     CCN000021600000021600FN00000000020221101000021600NNM   20220718170647U5  1N0N  00000240000000686400000901432U5    AMAMSD  005500360039
BI00B32U5    DI2040         202209097289-4696-30             HOUSING FEMALE ASS'Y     CCN000004000000004000FN00000000020221101000004000NNM   20220718170647U5  4N0N  00000200000000913400001055432U5    AMAMSD  005400370024
BI00B32U5    DI2040         202209097298-5993-30             SEALED ASSY FEMALE       CCN000004368000004368FN00000000020221101000004368NNM   20220718170647U5  4N0N  00000218400000981500001290032U5    AMAMSD  005500360039
BI00B32U5    DI2040         202209097327-6983-30             MAIN FUSE                CCN000001200000001200FN00000000020221101000001200NNM   20220718170647U5  4N0N  00000060000000748800000951532U5    AMAMSD  005400370024
BI00B32U5    DI2040         202209097327-6985-30             MULTI FUSE               CCN000000576000000576FN00000000020221101000000576NNM   20220718170647U5  4N0N  00000028800000886100001052032U5    AMAMSD  005400370024
BI00B32U5    DI2040         202209097327-6990-30             MULTI FUSE               CCN000001120000001120FN00000000020221101000001120NNM   20220718170647U5  4NON  00000056000000724000000907032U5    AMAMSD  005400370024
BI00B32U5    DI2040         202209097388-2978-30             HOUSING MALE ASS'Y       CCN000003840000003840FN00000000020221101000003840NNM   20220718170647U5  1N0N  00000048000000742000001122032U5    AMAMSD  005500360039
BI00B32U5    DI2040         202209097283-9457-3W             CONNECTOR                CCN000001680000001680FN00000000020221101000001680NNM   20220718170647U5  4N0N  00000012000000515000001067032U5    AMAMSD  005600390023
BI00B32U5    DI2040         202209097327-6731-3W             BATTERY FUSE             CCN000001536000001536FN00000000020221101000001536NNM   20220718170647U5  4N0N  00000006400000697600000843032U5    AMAMSD  005400370024
BI00B32U5    DI2040         202209097B72-5540-80             SEALED WIRE SEAL         CCN000020000000020000FN00000000020221101000020000NNM   20220718170647U5  1C0C  00002000000000186000000234432U5    AMAMSD  004300270014
BI00B32U5    DI2040         202209097B96-0805-02             TERMINAL FEMALE          CCN000022500000022500FN00000000020221101000022500NNM   20220718170647U5  4P0P  00002250000000558000000843232U5    AMAMSD  006400630015
BI00B32U5    DI2040         202209097C89-6868-30             SEALED ASSY FEMALE       CCN000007560000007560FN00000000020221101000007560NNM   20220718170647U5  4N0N  00000252000000839200001119232U5    AMAMSD  005500360039
BI00B32U5    #DI2040        202209097157-3821                RUBBER STOPPER           CCN000020000000020000FN00000000020221101000020000NNM   20220718170647U5  2C0C  00002000000000176000000238032U5    AMAMSD  002700430014
BI00B32U5    #DI2040        202209097287-7859                HYBRID FEMALE ASS'Y      CCN000009600000009600FN00000000020221101000009600NNM   20220718170647U5  2N0N  00000120000000461600000671632U5    AMAMSD  005500360039
BI00B32U5    #DI2040        202209097154-5597-30             CASSETTE R/B             CCN000001600000001600FN00000000020221101000001600NNM   20220718170647U5  2F0F  00000080000000736000000952032U5    AMAMSD  005500360039
BI00B32U5    #DI2040        202209097158-3003-90             RUBBER STOPPER           CCN000160000000160000FN00000000020221101000160000NNM   20220718170647U5  2C0C  00002000000000250000000306032U5    AMAMSD  002700430014
BI00B32U5    #DI2040        202209097158-3004-40             RUBBER STOPPER           CCN000040000000040000FN00000000020221101000040000NNM   20220718170647U5  2C0C  00002000000000234000000306332U5    AMAMSD  002700430014
BI00B32U5    #DI2040        202209097158-3005-80             RUBBER STOPPER           CCN000020000000020000FN00000000020221101000020000NNM   20220718170647U5  2H0H  00002000000000210000000268732U5    AMAMSD  002700430014
BI00B32U5    #DI2040        202209097158-3007-10             RUBBER STOPPER           CCN000120000000120000FN00000000020221101000120000NNM   20220718170647U5  2H0H  00002000000000308000000362732U5    AMAMSD  002700430014
BI00B32U5    #DI2040        202209097158-3008-80             RUBBER STOPPER           CCN000060000000060000FN00000000020221101000060000NNM   20220718170647U5  2C0C  00002000000000288000000343032U5    AMAMSD  004300270014
BI00B32U5    #DI2040        202209097172-5625-90             RUBBER STOPPER           CCN000040000000040000FN00000000020221101000040000NNM   20220718170647U5  2H0H  00002000000000082400000133832U5    AMAMSD  004300270014
BI00B32U5    #DI2040        202209097172-5626-90             RUBBER STOPPER           CCN000300000000300000FN00000000020221101000300000NNM   20220718170647U5  2H0H  00002000000000076400000127832U5    AMAMSD  004300270014
BI00B32U5    #DI2040        202209097172-5627-60             RUBBER STOPPER           CCN000240000000240000FN00000000020221101000240000NNM   20220718170647U5  2H0H  00002000000000070400000121832U5    AMAMSD  004300270014
BI00B32U5    #DI2040        202209097172-5628-80             DUMMY PLUG               CCN000120000000120000FN00000000020221101000120000NNM   20220718170647U5  2H0H  00002000000000110600000162032U5    AMAMSD  004300270014
BI00B32U5    #DI2040        202209097172-5629-80             RUBBER STOPPER           CCN000160000000160000FN00000000020221101000160000NNM   20220718170647U5  2H0H  00002000000000060000000111132U5    AMAMSD  004300270014
BI00B32U5    #DI2040        202209097172-5630-40             RUBBER STOPPER           CCN000460000000460000FN00000000020221101000460000NNM   20220718170647U5  2H0H  00002000000000044000000095132U5    AMAMSD  004300270014
BI00B32U5    #DI2040        202209097172-5631-60             RUBBER STOPPER           CCN000240000000240000FN00000000020221101000240000NNM   20220718170647U5  2H0H  00002000000000042000000093132U5    AMAMSD  004300270014
BI00B32U5    #DI2040        202209097172-5632-10             DUMMY PLUG               CCN000220000000220000FN00000000020221101000220000NNM   20220718170647U5  2H0H  00002000000000080400000131832U5    AMAMSD  004300270014
BI00B32U5    #DI2040        202209097182-8253-40             HOUSING                  CCN000002400000002400FN00000000020221101000002400NNM   20220718170647U5  2F0F  00000120000000573000000864032U5    AMAMSD  005600390040
BI00B32U5    #DI2040        202209097189-2978-30             HOUSING FEMALE           CCN000003000000003000FN00000000020221101000003000NNM   20220718170647U5  2F0F  00000150000000966900001096932U5    AMAMSD  005400370024
BI00B32U5    #DI2040        202209097282-6446-40             CONNECTOR                CCN000003000000003000FN00000000020221101000003000NNM   20220718170647U5  2N0N  00000150000001185000001368032U5    AMAMSD  005500360039
BI00B32U5    #DI2040        202209097287-1915-40             CONNECTOR ASS'Y          CCN000004800000004800FN00000000020221101000004800NNM   20220718170647U5  2N0N  00000240000000666500000923132U5    AMAMSD  005500360039
BI00B32U5    #DI2040        202209097289-4200-30             HOUSING FEMALE ASS'Y     CCN000006000000006000FN00000000020221101000006000NNM   20220718170647U5  2N0N  00000200000000926000001021032U5    AMAMSD  005400370024
BI00B32U9    TPA237         202208187114-4030                TERMINAL                 CCN000010500000010500FN00000000020221001000010500NNM   20220718170647U9  4P0P  00001050000000926100001254732U9    YNYNA-E 006400630017
BI00B32U9    TPA237         202208187114-4031                TERMINAL                 CCN000010500000010500FN00000000020221001000010500NNM   20220718170647U9  4P0P  00001050000000966000001294632U9    YNYNA-E 006400630017
BI00B32U9    TPA237         202208187114-6041                TERMINAL                 CCN000010800000010800FN00000000020221001000010800NNM   20220718170647U9  4P0P  00000360000000580700000824232U9    YNYNA-E 006400630015
BI00B32U9    TPA237         202208187116-1257-02             TERMINAL                 CCN000048000000048000FN00000000020221001000048000NNM   20220718170647U9  4P0P  00002400000000518400000847132U9    YNYNA-E 006400630017
BI00B32U9    TPA237         202208187116-2951-02             TERMINAL                 CCN000027000000027000FN00000000020221001000027000NNM   20220718170647U9  4P0P  00000540000000817600001111832U9    YNYNA-E 006400630015
BI00B32U9    TPA237         202208187116-4231-02             TERMINAL                 CCN000260000000260000FN00000000020221001000260000NNM   20220718170647U9  4P0P  00002600000000683800001012532U9    YNYNA-E 006400630017
BI00B32U9    TPA237         202208187116-5046-02             TERMINAL                 CCN000012000000012000FN00000000020221001000012000NNM   20220718170647U9  4P0P  00001200000000544800000873532U9    YNYNA-E 006400630017
BI00B32U9    TPA237         202208187158-3006-90             RUBBER STOPPER           CCN000020000000020000FN00000000020221001000020000NNM   20220718170647U9  1C0C  00002000000000330600000386032U9    YNYNA-E 002700430014
BI00B32U9    TPA237         202208187158-3165-90             WIRE SEAL                CCN000200000000200000FN00000000020221001000200000NNM   20220718170647U9  1C0C  00004000000000124000000172432U9    YNYNA-E 004300270014
BI00B32U9    TPA237         202208187158-3166-60             WIRE SEAL                CCN000400000000400000FN00000000020221001000400000NNM   20220718170647U9  1C0C  00004000000000104000000152432U9    YNYNA-E 002700430014
BI00B32U9    TPA237         202208187158-3168-80             SEALED                   CCN000020000000020000FN00000000020221001000020000NNM   20220718170647U9  1C0C  00002000000000044000000092132U9    YNYNA-E 004300260014
BI00B32U9    TPA237         202208187158-3169-40             SEALING PLUG             CCN000040000000040000FN00000000020221001000040000NNM   20220718170647U9  1C0C  00004000000000156000000204132U9    YNYNA-E 004300260014
BI00B32U9    TPA237         202208187172-1372-10             FRONT HOLDER             CCN000003900000003900FN00000000020221001000003900NNM   20220718170647U9  4F0F  00000390000000655200000955232U9    YNYNA-E 005500360039
BI00B32U9    TPA237         202208187172-5540-80             SEALED WIRE SEAL         CCN000060000000060000FN00000000020221001000060000NNM   20220718170647U9  1C0C  00002000000000186000000234432U9    YNYNA-E 004300270014
BI00B32U9    TPA237         202208187196-0805-02             TERMINAL FEMALE          CCN000067500000067500FN00000000020221001000067500NNM   20220718170647U9  4P0P  00002250000000558000000843232U9    YNYNA-E 006400630015
BI00B32U9    TPA237         202208187222-4220-30             CONNECTOR                CCN000003000000003000FN00000000020221001000003000NNM   20220718170647U9  4N0N  00000075000001219000001384032U9    YNYNA-E 005600390040
BI00B32U9    TPA237         202208187282-5574-10             CONNECTOR                CCN000043200000043200FN00000000020221001000043200NNM   20220718170647U9  4N0N  00000080000001235000001423032U9    YNYNA-E 005600390040
BI00B32U9    TPA237         202208187283-9458-30             CONNECTOR                CCN000000200000000200FN00000000020221001000000200NNM   20220718170647U9  4N0N  00000020000000792000000984332U9    YNYNA-E 005600390023
BI00B32U9    TPA237         202208187289-6868-30             SEALED ASSY FEMALE       CCN000022680000022680FN00000000020221001000022680NNM   20220718170647U9  4N0N  00000252000000839200001119232U9    YNYNA-E 005500360039
BI00B32U9    TPA237         202208187298-1186-40             SQUIB SUB ASS'Y          CCN000020000000020000FN00000000020221001000020000NNM   20220718170647U9  4N0N  00001000000000650000000774532U9    YNYNA-E 005400370024
BI00B32U9    TPA237         202208187298-1186-70             SQUIB SUB ASS'Y          CCN000020000000020000FN00000000020221001000020000NNM   20220718170647U9  4N0N  00001000000000650000000774532U9    YNYNA-E 005400370024
BI00B32U9    TPA237         202208187298-1187-30             SHUNT RING ASSEMBLY      CCN000010000000010000FN00000000020221001000010000NNM   20220718170647U9  4N0N  00001000000000647000000769532U9    YNYNA-E 005400370024
BI00B32U9    TPA237         202208187283-9457-3W             CONNECTOR                CCN000000120000000120FN00000000020221001000000120NNM   20220718170647U9  4N0N  00000012000000515000001067032U9    YNYNA-E 005600390023
BI00B32U9    TPA237         202208187298-1149-3W             SQUIB SUB ASS'Y          CCN000010000000010000FN00000000020221001000010000NNM   20220718170647U9  4N0N  00001000000000785000000922032U9    YNYNA-E 005400370024
BI00B32U9    TPA237         202208187B58-3070-80             RUBBER STOPPER           CCN000040000000040000FN00000000020221001000040000NNM   20220718170647U9  1C0C  00004000000000276000000333032U9    YNYNA-E 004300270014
BI00B32U9    #TPA237        202208187147-9094                RETAINER                 CCN000003000000003000FN00000000020221001000003000NNM   20220718170647U9  2F0F  00000300000000717000000872932U9    YNYNA-E 005500360039
BI00B32U9    #TPA237        202208187157-7812                SEAL RUBBER              CCN000010000000010000FN00000000020221001000010000NNM   20220718170647U9  2C0C  00001000000000137000000202032U9    YNYNA-E 002700430014
BI00B32U9    #TPA237        202208187047-1611-30             CLIP                     CCN000004000000004000FN00000000020221001000004000NNM   20220718170647U9  2F0F  00000200000001600000001739032U9    YNYNA-E 005600390040
BI00B32U9    #TPA237        202208187157-3790-90             WIRE SEAL                CCN000020000000020000FN00000000020221001000020000NNM   20220718170647U9  2C0C  00002000000000176000000232732U9    YNYNA-E 002700430014
BI00B32U9    #TPA237        202208187158-3376-50             CONNECTOR WIRE SEAL      CCN000360000000360000FN00000000020221001000360000NNM   20220718170647U9  2C0C  00002000000000184000000240732U9    YNYNA-E 002700430014
BI00B32U9    #TPA237        202208187282-6446-40             CONNECTOR                CCN000012000000012000FN00000000020221001000012000NNM   20220718170647U9  2N0N  00000150000001185000001368032U9    YNYNA-E 005500360039
BI00B32U9    #TPA237        202208187282-6457-40             CONNECTOR                CCN000003200000003200FN00000000020221001000003200NNM   20220718170647U9  2N0N  00000080000001137000001421332U9    YNYNA-E 005600390040
BI00B32U9    #TPA237        202208187282-8395-40             CONNECTOR                CCN000020000000020000FN00000000020221001000020000NNM   20220718170647U9  2N0N  00000100000001009000001188032U9    YNYNA-E 005500360039
BI00B32U9    #TPA237        202208187283-8397-40             CONNECTOR                CCN000003080000003080FN00000000020221001000003080NNM   20220718170647U9  2N0N  00000154000001007000001222732U9    YNYNA-E 005600390023
BI00A32U9    #TP0013E       202207227157-3646                RUBBER STOPPER           CCN000160000000160000FN00000000020220701000160000NNE   20220718170647U9  2H0H  00002000000000184000000255232U9    YNYNA-E 002700430014
BI00B32W2    HN22091WMW     202208027C89-6868-30             SEALED ASSY FEMALE       CCN000025200000025200FN00000000020220901000025200NNMD0420220718170647    4N0N  00000252000000839200001119232W2    HNHNY   005500360039
BI00B32W2    HN22092WMW     202208097C89-6868-30             SEALED ASSY FEMALE       CCN000012600000012600FN00000000020220901000012600NNMD0420220718170647    4N0N  00000252000000839200001119232W2    HNHNY   005500360039
BI00B32W2    HN22093WMW     202208167C89-6868-30             SEALED ASSY FEMALE       CCN000002520000002520FN00000000020220901000002520NNMD0420220718170647    4N0N  00000252000000839200001119232W2    HNHNY   005500360039
BI00B32W2    HN22094WMW     202208237C89-6868-30             SEALED ASSY FEMALE       CCN000015120000015120FN00000000020220901000015120NNMD0420220718170647    4N0N  00000252000000839200001119232W2    HNHNY   005500360039
BI00B32W2    HN2208BNMW     202208027283-7062-40             CONNECTOR HOUSING        CCN000001200000001200FN00000000020220801000001200NNE   20220718170647    1N0N  00000060000000500400000645432W2    HNHNY   005400370024
BI00B32W2    #HN2208BNMW    202208027183-2418                CONNECTOR HOUSING        CCN000004800000004800FN00000000020220801000004800NNE   20220718170647    2F0F  00000480000000917000001477032W2    HNHNY   005500360039
BI00B32W2    #HN2208BNMW    202208027187-3361-40             JOINT CONNECTOR          CCN000001200000001200FN00000000020220801000001200NNE   20220718170647    2F0F  00000120000000676800000944032W2    HNHNY   005600390040
BI00B32W2    #HN2208BNMW    202208027282-1150-50             CONNECTOR MALE ASS'Y     CCN000000600000000600FN00000000020220801000000600NNE   20220718170647    2N0N  00000060000000688800000800032W2    HNHNY   005400370024
BI00B32W2    #HN2208BNMW    202208027282-1210                CONNECTOR MALE ASS'Y     CCN000001000000001000FN00000000020220801000001000NNE   20220718170647    2N0N  00000100000000336000000458532W2    HNHNY   005400370024
BI00B32W2    @HN2208BNMW    202208027283-1100-30             CONNECTOR ASS'Y          CCN000001600000001600FN00000000020220801000001600NNE   20220718170647    3N0N  00000160000000561600000803032W2    HNHNY   005500360039
BI00B32W2    @HN2208BNMW    202208027283-1100-60             CONNECTOR ASS'Y          CCN000001600000001600FN00000000020220801000001600NNE   20220718170647    3N0N  00000160000000567500000801432W2    HNHNY   005500360039
BI00B32W2    @HN2208BNMW    202208027283-1100-90             CONNECTOR ASS'Y          CCN000001600000001600FN00000000020220801000001600NNE   20220718170647    3N0N  00000160000000564800000806832W2    HNHNY   005500360039
BI00B32W2    HN2208EWMW     202208027126-8853-02             TERMINAL                 CCN000015000000015000FN00000000020220801000015000NNE   20220718170647    4P0P  00000750000000562500000847732W2    HNHNY   006400630015
BI00B32W2    HN2208EWMW     202208027158-3167-80             WIRE SEAL                CCN000020000000020000FN00000000020220801000020000NNE   20220718170647    1C0C  00002000000000048000000109032W2    HNHNY   002700430014
BI00B32W2    HN2208EWMW     202208027158-3169-40             SEALING PLUG             CCN000040000000040000FN00000000020220801000040000NNE   20220718170647    1C0C  00004000000000156000000204132W2    HNHNY   004300260014
BI00A32W4    #4500194589    202207257282-6458-40             CONNECTOR                CCN000002000000002000FN00000000020220801000002000NNED0020220718170647W4142N0N  00000100000001206000001350532W414  HJYHK   005500360039
BI00A32W4    #4500194945    202208037282-6458-40             CONNECTOR                CCN000001000000001000FN00000000020220801000001000NNED0020220718170647W4142N0N  00000100000001206000001350532W414  HJYHK   005500360039
BI00B32W4    4500196951     202208307116-1180                TERMINAL                 CCN000058500000058500FN00000000020220801000058500NNED0020220718170647W41 1P0P  00001950000000618200000903432W41   HJYHK   006400630015
BI00B32W4    4500196915     202209087172-1372-10             FRONT HOLDER             CCN000003900000003900FN00000000020220901000003900NNE   20220718170647W48 4F0F  00000390000000655200000955232W48   HJYHK   005500360039
BI00B32W4    #4500196915    202209087183-2418                CONNECTOR HOUSING        CCN000004800000004800FN00000000020220901000004800NNE   20220718170647W48 2F0F  00000480000000917000001477032W48   HJYHK   005500360039
BI00A32W4    4500196941     202209057283-1020                CONNECTOR                CCN000024000000024000FN00000000020220901000024000NNE   20220718170647W4P84N0N  00000600000000840000001049332W4P8  HJYHK-J 005600390040
BI00A32W4    4500196942     202210037283-1020                CONNECTOR                CCN000042000000042000FN00000000020221001000042000NNE   20220718170647W4P84N0N  00000600000000840000001049332W4P8  HJYHK-J 005600390040
BI00B32X5    TIB2040        202209097114-4031                TERMINAL                 CCN000010500000010500FN00000000020221101000010500NNM   20220718170647X5  4P0P  00001050000000966000001294632X5    EPYNA-E 006400630017
BI00B32X5    TIB2040        202209097114-6041                TERMINAL                 CCN000003600000003600FN00000000020221101000003600NNM   20220718170647X5  4P0P  00000360000000580700000824232X5    EPYNA-E 006400630015
BI00B32X5    TIB2040        202209097116-4037                TERMINAL                 CCN000054000000054000FN00000000020221101000054000NNM   20220718170647X5  4P0P  00000600000000600000000894232X5    EPYNA-E 006400630015
BI00B32X5    TIB2040        202209097288-6547                CONNECTOR MALE ASS'Y     CCN000012750000012750FN00000000020221101000012750NNM   20220718170647X5  4N0N  00000075000001205300001340332X5    EPYNA-E 005400370024
BI00B32X5    TIB2040        202209097289-6547                HOUSING FEMALE ASS'Y     CCN000014400000014400FN00000000020221101000014400NNM   20220718170647X5  1N0N  00000240000001152000001362032X5    EPYNA-E 005500360039
BI00B32X5    TIB2040        202209097017-1180-02             TERMINAL                 CCN000432000000432000FN00000000020221101000432000NNM   20220718170647X5  4P0P  00007200000001065600001229032X5    EPYNA-E 005100280028
BI00B32X5    TIB2040        202209097017-1182-02             TERMINAL                 CCN000045000000045000FN00000000020221101000045000NNM   20220718170647X5  4P0P  00004500000001165500001318632X5    EPYNA-E 005100280028
BI00B32X5    TIB2040        202209097114-4486-02             TERMINAL                 CCN000120000000120000FN00000000020221101000120000NNM   20220718170647X5  4P0P  00002400000000662400000956032X5    EPYNA-E 006400630015
BI00B32X5    TIB2040        202209097114-4624-02             TERMINAL                 CCN000048000000048000FN00000000020221101000048000NNM   20220718170647X5  4P0P  00002400000000895200001188832X5    EPYNA-E 006400630015
BI00B32X5    TIB2040        202209097116-1685-02             TERMINAL                 CCN000072000000072000FN00000000020221101000072000NNM   20220718170647X5  4P0P  00002400000000897600001065232X5    EPYNA-E 005100280028
BI00B32X5    TIB2040        202209097116-2951-02             TERMINAL                 CCN000010800000010800FN00000000020221101000010800NNM   20220718170647X5  4P0P  00000540000000817600001111832X5    EPYNA-E 006400630015
BI00B32X5    TIB2040        202209097116-4486-02             TERMINAL                 CCN000168000000168000FN00000000020221101000168000NNM   20220718170647X5  4P0P  00002800000000666400000995132X5    EPYNA-E 006400630017
BI00B32X5    TIB2040        202209097116-5045-02             TERMINAL                 CCN000144000000144000FN00000000020221101000144000NNM   20220718170647X5  4P0P  00001600000000678400001007132X5    EPYNA-E 006400630017
BI00B32X5    TIB2040        202209097116-5046-02             TERMINAL                 CCN000096000000096000FN00000000020221101000096000NNM   20220718170647X5  4P0P  00001200000000544800000873532X5    EPYNA-E 006400630017
BI00B32X5    TIB2040        202209097126-8851-02             TERMINAL                 CCN000009000000009000FN00000000020221101000009000NNM   20220718170647X5  1P0P  00000900000000739800001025032X5    EPYNA-E 006400630015
BI00B32X5    TIB2040        202209097158-3167-80             WIRE SEAL                CCN000020000000020000FN00000000020221101000020000NNM   20220718170647X5  1C0C  00002000000000048000000109032X5    EPYNA-E 002700430014
BI00B32X5    TIB2040        202209097195-0783-08             TERMINAL                 CCN000030000000030000FN00000000020221101000030000NNM   20220718170647X5  4P0P  00003000000000507000000801232X5    EPYNA-E 006400630015
BI00B32X5    TIB2040        202209097196-0396-02             TERMINAL                 CCN000030000000030000FN00000000020221101000030000NNM   20220718170647X5  4P0P  00001500000000949500001112932X5    EPYNA-E 002800510028
BI00B32X5    TIB2040        202209097196-0510-02             TERMINAL                 CCN000048000000048000FN00000000020221101000048000NNM   20220718170647X5  4P0P  00002400000000871200001034632X5    EPYNA-E 002800510028
BI00B32X5    TIB2040        202209097196-1102-02             TERMINAL                 CCN000022500000022500FN00000000020221101000022500NNM   20220718170647X5  4P0P  00002250000000405000000690232X5    EPYNA-E 006400630015
BI00B32X5    TIB2040        202209097196-1104-02             TERMINAL                 CCN000360000000360000FN00000000020221101000360000NNM   20220718170647X5  4P0P  00002250000000441000000726232X5    EPYNA-E 006400630015
BI00B32X5    TIB2040        202209097196-1325-02             TERMINAL FEMALE          CCN000240000000240000FN00000000020221101000240000NNM   20220718170647X5  4P0P  00006000000000450000000778732X5    EPYNA-E 006400630017
BI00B32X5    TIB2040        202209097282-4576-90             HOUSING MALE ASS'Y       CCN000004800000004800FN00000000020221101000004800NNM   20220718170647X5  4N0N  00000240000000808800001028832X5    EPYNA-E 005500360039
BI00B32X5    TIB2040        202209097282-5574-10             CONNECTOR                CCN000006400000006400FN00000000020221101000006400NNM   20220718170647X5  4N0N  00000080000001235000001423032X5    EPYNA-E 005600390040
BI00B32X5    TIB2040        202209097288-6598-70             HOUSING MALE ASS'Y       CCN000001440000001440FN00000000020221101000001440NNM   20220718170647X5  4N0N  00000144000001074200001429232X5    EPYNA-E 005500360039
BI00B32X5    TIB2040        202209097289-3342-30             HOUSING FEMALE ASS'Y     CCN000019200000019200FN00000000020221101000019200NNM   20220718170647X5  1N0N  00000240000000686400000901432X5    EPYNA-E 005500360039
BI00B32X5    TIB2040        202209097289-3342-40             HOUSING FEMALE ASS'Y     CCN000004800000004800FN00000000020221101000004800NNM   20220718170647X5  1N0N  00000240000000686400000901432X5    EPYNA-E 005500360039
BI00B32X5    TIB2040        202209097289-3342-90             HOUSING FEMALE ASS'Y     CCN000009600000009600FN00000000020221101000009600NNM   20220718170647X5  1N0N  00000240000000686400000901432X5    EPYNA-E 005500360039
BI00B32X5    TIB2040        202209097296-0784-02             TERMINAL ALUMINIUM       CCN000096000000096000FN00000000020221101000096000NNM   20220718170647X5  4P0P  00002400000000480000000765232X5    EPYNA-E 006400630015
BI00B32X5    TIB2040        202209097327-6731-3W             BATTERY FUSE             CCN000003328000003328FN00000000020221101000003328NNM   20220718170647X5  4N0N  00000006400000697600000843032X5    EPYNA-E 005400370024
BI00B32X5    #TIB2040       202209097147-9094                RETAINER                 CCN000003000000003000FN00000000020221101000003000NNM   20220718170647X5  2F0F  00000300000000717000000872932X5    EPYNA-E 005500360039
BI00B32X5    #TIB2040       202209097157-7812                SEAL RUBBER              CCN000010000000010000FN00000000020221101000010000NNM   20220718170647X5  2C0C  00001000000000137000000202032X5    EPYNA-E 002700430014
BI00B32X5    #TIB2040       202209097158-3017                RUBBER STOPPER           CCN000040000000040000FN00000000020221101000040000NNM   20220718170647X5  2C0C  00001000000000375500000435032X5    EPYNA-E 002700430014
BI00B32X5    #TIB2040       202209097287-7859                HYBRID FEMALE ASS'Y      CCN000013200000013200FN00000000020221101000013200NNM   20220718170647X5  2N0N  00000120000000461600000671632X5    EPYNA-E 005500360039
BI00B32X5    #TIB2040       202209097287-9155                HOUSING FEMALE ASS'Y     CCN000007680000007680FN00000000020221101000007680NNM   20220718170647X5  2N0N  00000096000000853700001045232X5    EPYNA-E 005400370024
BI00B32X5    #TIB2040       202209097154-3424-30             REAR HOLDER              CCN000009000000009000FN00000000020221101000009000NNM   20220718170647X5  2F0F  00000300000000975000001138632X5    EPYNA-E 005500360039
BI00B32X5    #TIB2040       202209097158-3003-90             RUBBER STOPPER           CCN000280000000280000FN00000000020221101000280000NNM   20220718170647X5  2C0C  00002000000000250000000306032X5    EPYNA-E 002700430014
BI00B32X5    #TIB2040       202209097158-3004-40             RUBBER STOPPER           CCN000140000000140000FN00000000020221101000140000NNM   20220718170647X5  2C0C  00002000000000234000000306332X5    EPYNA-E 002700430014
BI00B32X5    #TIB2040       202209097158-3005-80             RUBBER STOPPER           CCN000040000000040000FN00000000020221101000040000NNM   20220718170647X5  2H0H  00002000000000210000000268732X5    EPYNA-E 002700430014
BI00B32X5    #TIB2040       202209097158-3007-10             RUBBER STOPPER           CCN000280000000280000FN00000000020221101000280000NNM   20220718170647X5  2H0H  00002000000000308000000362732X5    EPYNA-E 002700430014
BI00B32X5    #TIB2040       202209097158-3008-80             RUBBER STOPPER           CCN000060000000060000FN00000000020221101000060000NNM   20220718170647X5  2C0C  00002000000000288000000343032X5    EPYNA-E 004300270014
BI00B32X5    #TIB2040       202209097158-3015-10             RUBBER STOPPER           CCN000030000000030000FN00000000020221101000030000NNM   20220718170647X5  2C0C  00001000000000419500000474032X5    EPYNA-E 002700430014
BI00B32X5    #TIB2040       202209097158-3610-80             RUBBER STOPPER           CCN000003000000003000FN00000000020221101000003000NNM   20220718170647X5  2H0H  00000300000000396900000438932X5    EPYNA-E 004300270014
BI00B32X5    #TIB2040       202209097172-5625-90             RUBBER STOPPER           CCN000040000000040000FN00000000020221101000040000NNM   20220718170647X5  2H0H  00002000000000082400000133832X5    EPYNA-E 004300270014
BI00B32X5    #TIB2040       202209097172-5627-60             RUBBER STOPPER           CCN000120000000120000FN00000000020221101000120000NNM   20220718170647X5  2H0H  00002000000000070400000121832X5    EPYNA-E 004300270014
BI00B32X5    #TIB2040       202209097172-5629-80             RUBBER STOPPER           CCN001300000001300000FN00000000020221101001300000NNM   20220718170647X5  2H0H  00002000000000060000000111132X5    EPYNA-E 004300270014
BI00B32X5    #TIB2040       202209097172-5630-40             RUBBER STOPPER           CCN000800000000800000FN00000000020221101000800000NNM   20220718170647X5  2H0H  00002000000000044000000095132X5    EPYNA-E 004300270014
BI00B32X5    #TIB2040       202209097172-5631-60             RUBBER STOPPER           CCN000120000000120000FN00000000020221101000120000NNM   20220718170647X5  2H0H  00002000000000042000000093132X5    EPYNA-E 004300270014
BI00B32X5    #TIB2040       202209097172-5632-10             DUMMY PLUG               CCN000260000000260000FN00000000020221101000260000NNM   20220718170647X5  2H0H  00002000000000080400000131832X5    EPYNA-E 004300270014
BI00B32X5    #TIB2040       202209097173-3225-10             LIF LEVER                CCN000003200000003200FN00000000020221101000003200NNM   20220718170647X5  2F0F  00000080000000592000000712032X5    EPYNA-E 005500360039
BI00B32X5    #TIB2040       202209097183-8251-40             HOUSING                  CCN000004800000004800FN00000000020221101000004800NNM   20220718170647X5  2F0F  00000240000000357600000640032X5    EPYNA-E 005500360039
BI00B32X5    #TIB2040       202209097189-2978-30             HOUSING FEMALE           CCN000013500000013500FN00000000020221101000013500NNM   20220718170647X5  2F0F  00000150000000966900001096932X5    EPYNA-E 005400370024
BI00B32X5    #TIB2040       202209097189-3034-30             HOUSING FEMALE           CCN000003200000003200FN00000000020221101000003200NNM   20220718170647X5  2F0F  00000160000000972800001192832X5    EPYNA-E 005500360039
BI00B32X5    #TIB2040       202209097198-4979-30             HOUSING FEMALE           CCN000004000000004000FN00000000020221101000004000NNM   20220718170647X5  2F0F  00000400000000707200000876032X5    EPYNA-E 005400370024
BI00B32X5    #TIB2040       202209097282-8395-40             CONNECTOR                CCN000005000000005000FN00000000020221101000005000NNM   20220718170647X5  2N0N  00000100000001009000001188032X5    EPYNA-E 005500360039
BI00B32X5    #TIB2040       202209097289-2913-30             HOUSING FEMALE ASS'Y     CCN000001500000001500FN00000000020221101000001500NNM   20220718170647X5  2N0N  00000150000000907500001034532X5    EPYNA-E 005400370024
BI00B32X5    #TIB2040       202209097298-2459-60             LIF FEMALE ASSEMBLY      CCN000003192000003192FN00000000020221101000003192NNM   20220718170647X5  2N0N  00000016800000534000000729632X5    EPYNA-E 005400370024
BI00B32X5    @TIB2040       202209097286-4098                CONNECTOR MALE ASS'Y     CCN000020800000020800FN00000000020221101000020800NNM   20220718170647X5  3N0N  00000160000000949100001163032X5    EPYNA-E 005500360039
