BI00B1200    #O022I50311    202208047282-6458-40             CONNECTOR                CCN000011000000011000FN00000000020220901000011000NNE   20220707122229    2N0N  0000010000000120600000135051200    YCYC    005500360039
BI00B1200    #O022I50312    202208047282-6458-40             CONNECTOR                CCN000011000000011000FN00000000020220901000011000NNE   20220707122229    2N0N  0000010000000120600000135051200    YCYC    005500360039
BI00B1200    #O022I50313    202208047282-6458-40             CONNECTOR                CCN000011000000011000FN00000000020220901000011000NNE   20220707122229    2N0N  0000010000000120600000135051200    YCYC    005500360039
BI00B1200    #O022I50314    202208047282-6458-40             CONNECTOR                CCN000011000000011000FN00000000020220901000011000NNE   20220707122229    2N0N  0000010000000120600000135051200    YCYC    005500360039
BI00B1200    #O022I50315    202208047282-6458-40             CONNECTOR                CCN000022000000022000FN00000000020220901000022000NNE   20220707122229    2N0N  0000010000000120600000135051200    YCYC    005500360039
BI00B1200    #O022I50316    202208047282-6458-40             CONNECTOR                CCN000022000000022000FN00000000020220901000022000NNE   20220707122229    2N0N  0000010000000120600000135051200    YCYC    005500360039
BI00B1200    7200T52701     202208047298-1865-30             HOUSING FEMALE ASS'Y     CCN000002400000002400FN00000000020220901000002400NNE   20220707122229    4N0N  0000024000000100320000120451200    YCYC    005500360039
BI00B1200    Y022J50025     202209017196-0805-02             TERMINAL FEMALE          CCN000022500000022500FN00000000020220901000022500NNM   20220707122229    4P0P  0000225000000055800000084321200    YCYC    006400630015
BI00B1200    Y022J50026     202209017298-3822-70             HOUSING FEMALE ASS'Y     CCN000002520000002520FN00000000020220901000002520NNM   20220707122229    4N0N  0000025200000077620000107701200    YCYC    005500360039
BI00A1200    CE22-MN-0075   202207197297-2287-30             HOUSING MALE ASS'Y       CCN000001200000001200FN00000000020220701000001200NNE   20220707142114    4N0N  0000012000000047390000059001200    YCYC    005400370024
BI00A1200    CE22-MN-0076   202207127196-0648-02             TERMINAL                 CCN000015000000015000FN00000000020220701000015000NNE   20220707160850    4P0P  0000150000000035550000068971200    YCYC    006400630015
BI00B32BG    YY2208AGMW     202207217114-4110-02             TERMINAL                 CCN000090000000090000FN00000000020220801000090000NNE   20220707122229    4P0P  00001500000000901500001230132BG    YGYYA   006400630017
BI00B32BG    YY2208AGMW     202207217114-4111-02             TERMINAL                 CCN000060000000060000FN00000000020220801000060000NNE   20220707122229    4P0P  00001200000000758400001087032BG    YGYYA   006400630017
BI00B32BG    YY2208AGMW     202207217114-4112-02             TERMINAL                 CCN000090000000090000FN00000000020220801000090000NNE   20220707122229    4P0P  00000900000000598500000927132BG    YGYYA   006400630017
BI00B32BG    YY2208AGMW     202207217116-4100-02             TERMINAL                 CCN000030000000030000FN00000000020220801000030000NNE   20220707122229    4P0P  00001500000000696000000990232BG    YGYYA   006400630015
BI00B32BG    YY2208AGMW     202207217116-4102-02             TERMINAL                 CCN000036000000036000FN00000000020220801000036000NNE   20220707122229    4P0P  00001200000000553200000841432BG    YGYYA   006400630015
BI00B32BG    YY2208AGMW     202207217116-4104-02             TERMINAL                 CCN000036000000036000FN00000000020220801000036000NNE   20220707122229    4P0P  00001200000000580800000972432BG    YGYYA   006400630015
BI00B32BG    YY2208AGMW     202207217116-4112-02             TERMINAL                 CCN000036000000036000FN00000000020220801000036000NNE   20220707122229    4P0P  00000600000000450000000738232BG    YGYYA   006400630015
BI00B32BG    YY2208AGMW     202207217116-4120-02             TERMINAL                 CCN000006000000006000FN00000000020220801000006000NNE   20220707122229    4P0P  00000600000000780000001073632BG    YGYYA   006400630015
BI00B32BG    YY2208AGMW     202207217116-4121-02             TERMINAL                 CCN000045000000045000FN00000000020220801000045000NNE   20220707122229    4P0P  00000450000000618800000912432BG    YGYYA   006400630015
BI00B32BG    YY2209AGMW     202208047114-4112-02             TERMINAL                 CCN000090000000090000FN00000000020220901000090000NNE   20220707122229    4P0P  00000900000000598500000927132BG    YGYYA   006400630017
BI00B32BG    YY2209AGMW     202208047116-4100-02             TERMINAL                 CCN000030000000030000FN00000000020220901000030000NNE   20220707122229    4P0P  00001500000000696000000990232BG    YGYYA   006400630015
BI00B32BG    YY2209AGMW     202208047116-4102-02             TERMINAL                 CCN000036000000036000FN00000000020220901000036000NNE   20220707122229    4P0P  00001200000000553200000841432BG    YGYYA   006400630015
BI00B32BG    YY2209AGMW     202208047116-4104-02             TERMINAL                 CCN000036000000036000FN00000000020220901000036000NNE   20220707122229    4P0P  00001200000000580800000972432BG    YGYYA   006400630015
BI00B32BG    YY2209AGMW     202208047116-4112-02             TERMINAL                 CCN000036000000036000FN00000000020220901000036000NNE   20220707122229    4P0P  00000600000000450000000738232BG    YGYYA   006400630015
BI00B32BG    YY2209AGMW     202208047116-4120-02             TERMINAL                 CCN000006000000006000FN00000000020220901000006000NNE   20220707122229    4P0P  00000600000000780000001073632BG    YGYYA   006400630015
BI00B32BG    YY2209AGMW     202208047116-4121-02             TERMINAL                 CCN000045000000045000FN00000000020220901000045000NNE   20220707122229    4P0P  00000450000000618800000912432BG    YGYYA   006400630015
BI00B32BG    YY2209AGMW     202208047126-8853-02             TERMINAL                 CCN000007500000007500FN00000000020220901000007500NNE   20220707122229    4P0P  00000750000000562500000847732BG    YGYYA   006400630015
BI00B32BG    YY2209BGMW     202208117116-4104-02             TERMINAL                 CCN000036000000036000FN00000000020220901000036000NNE   20220707122229    4P0P  00001200000000580800000972432BG    YGYYA   006400630015
BI00B32BG    YY2209BGMW     202208117116-4111-02             TERMINAL                 CCN000052500000052500FN00000000020220901000052500NNE   20220707122229    4P0P  00000750000000529500000817732BG    YGYYA   006400630015
BI00B32BG    YY22101CMW     202208187158-3070-80             RUBBER STOPPER           CCN000120000000120000FN00000000020221001000120000NNM   20220707122229    1C0C  00004000000000276000000333332BG    YGYYA   002700430014
BI00B32BG    YY22102CMW     202208257158-3070-80             RUBBER STOPPER           CCN000120000000120000FN00000000020221001000120000NNM   20220707122229    1C0C  00004000000000276000000333332BG    YGYYA   002700430014
BI00B32BG    YY22103CMW     202209087158-3070-80             RUBBER STOPPER           CCN000120000000120000FN00000000020221001000120000NNM   20220707122229    1C0C  00004000000000276000000333332BG    YGYYA   002700430014
BI00B32BG    YY22101CMW     202208187296-1025-02             TERMINAL ALUMINIUM       CCN000036000000036000FN00000000020221001000036000NNM   20220707122229    4P0P  00001800000000635400000920632BG    YGYYA   006400630015
BI00B32BG    YY22102CMW     202208257296-1025-02             TERMINAL ALUMINIUM       CCN000036000000036000FN00000000020221001000036000NNM   20220707122229    4P0P  00001800000000635400000920632BG    YGYYA   006400630015
BI00B32BG    YY22103CMW     202209087296-1025-02             TERMINAL ALUMINIUM       CCN000036000000036000FN00000000020221001000036000NNM   20220707122229    4P0P  00001800000000635400000920632BG    YGYYA   006400630015
BI00B32BG    #YY22101CMW    202208187172-5630-40             RUBBER STOPPER           CCN000040000000040000FN00000000020221001000040000NNM   20220707122229    2H0H  00002000000000044000000095132BG    YGYYA   004300270014
BI00B32BG    #YY22102CMW    202208257172-5630-40             RUBBER STOPPER           CCN000040000000040000FN00000000020221001000040000NNM   20220707122229    2H0H  00002000000000044000000095132BG    YGYYA   004300270014
BI00B32BG    #YY22103CMW    202209087172-5630-40             RUBBER STOPPER           CCN000080000000080000FN00000000020221001000080000NNM   20220707122229    2H0H  00002000000000044000000095132BG    YGYYA   004300270014
BI00B32BG    #YY22101CMW    202208187189-3033                HOUSING FEMALE           CCN000001600000001600FN00000000020221001000001600NNM   20220707122229    2F0F  00000160000001211200001431232BG    YGYYA   005500360039
BI00B32BG    #YY22102CMW    202208257189-3033                HOUSING FEMALE           CCN000001600000001600FN00000000020221001000001600NNM   20220707122229    2F0F  00000160000001211200001431232BG    YGYYA   005500360039
BI00B32BG    #YY22103CMW    202209087189-3033                HOUSING FEMALE           CCN000001600000001600FN00000000020221001000001600NNM   20220707122229    2F0F  00000160000001211200001431232BG    YGYYA   005500360039
BI00B32BG    #YY22101CMW    202208187189-3036                HOUSING FEMALE           CCN000001600000001600FN00000000020221001000001600NNM   20220707122229    2F0F  00000160000000921600001141632BG    YGYYA   005500360039
BI00B32BG    #YY22102CMW    202208257189-3036                HOUSING FEMALE           CCN000001600000001600FN00000000020221001000001600NNM   20220707122229    2F0F  00000160000000921600001141632BG    YGYYA   005500360039
BI00B32BG    #YY22103CMW    202209087189-3036                HOUSING FEMALE           CCN000001600000001600FN00000000020221001000001600NNM   20220707122229    2F0F  00000160000000921600001141632BG    YGYYA   005500360039
BI00B32BG    YY22101GMW     202208187114-4110-02             TERMINAL                 CCN000060000000060000FN00000000020221001000060000NNM   20220707122229    4P0P  00001500000000901500001230132BG    YGYYA   006400630017
BI00B32BG    YY22102GMW     202208257114-4110-02             TERMINAL                 CCN000060000000060000FN00000000020221001000060000NNM   20220707122229    4P0P  00001500000000901500001230132BG    YGYYA   006400630017
BI00B32BG    YY22103GMW     202209087114-4110-02             TERMINAL                 CCN000060000000060000FN00000000020221001000060000NNM   20220707122229    4P0P  00001500000000901500001230132BG    YGYYA   006400630017
BI00B32BG    YY22101GMW     202208187114-4111-02             TERMINAL                 CCN000096000000096000FN00000000020221001000096000NNM   20220707122229    4P0P  00001200000000758400001087032BG    YGYYA   006400630017
BI00B32BG    YY22102GMW     202208257114-4111-02             TERMINAL                 CCN000096000000096000FN00000000020221001000096000NNM   20220707122229    4P0P  00001200000000758400001087032BG    YGYYA   006400630017
BI00B32BG    YY22103GMW     202209087114-4111-02             TERMINAL                 CCN000096000000096000FN00000000020221001000096000NNM   20220707122229    4P0P  00001200000000758400001087032BG    YGYYA   006400630017
BI00B32BG    YY22101GMW     202208187114-4112-02             TERMINAL                 CCN000090000000090000FN00000000020221001000090000NNM   20220707122229    4P0P  00000900000000598500000927132BG    YGYYA   006400630017
BI00B32BG    YY22102GMW     202208257114-4112-02             TERMINAL                 CCN000090000000090000FN00000000020221001000090000NNM   20220707122229    4P0P  00000900000000598500000927132BG    YGYYA   006400630017
BI00B32BG    YY22103GMW     202209087114-4112-02             TERMINAL                 CCN000090000000090000FN00000000020221001000090000NNM   20220707122229    4P0P  00000900000000598500000927132BG    YGYYA   006400630017
BI00B32BG    YY22101GMW     202208187116-4100-02             TERMINAL                 CCN000060000000060000FN00000000020221001000060000NNM   20220707122229    4P0P  00001500000000696000000990232BG    YGYYA   006400630015
BI00B32BG    YY22102GMW     202208257116-4100-02             TERMINAL                 CCN000060000000060000FN00000000020221001000060000NNM   20220707122229    4P0P  00001500000000696000000990232BG    YGYYA   006400630015
BI00B32BG    YY22103GMW     202209087116-4100-02             TERMINAL                 CCN000060000000060000FN00000000020221001000060000NNM   20220707122229    4P0P  00001500000000696000000990232BG    YGYYA   006400630015
BI00B32BG    YY22101GMW     202208187116-4102-02             TERMINAL                 CCN000048000000048000FN00000000020221001000048000NNM   20220707122229    4P0P  00001200000000553200000841432BG    YGYYA   006400630015
BI00B32BG    YY22102GMW     202208257116-4102-02             TERMINAL                 CCN000048000000048000FN00000000020221001000048000NNM   20220707122229    4P0P  00001200000000553200000841432BG    YGYYA   006400630015
BI00B32BG    YY22103GMW     202209087116-4102-02             TERMINAL                 CCN000048000000048000FN00000000020221001000048000NNM   20220707122229    4P0P  00001200000000553200000841432BG    YGYYA   006400630015
BI00B32BG    YY22101GMW     202208187116-4104-02             TERMINAL                 CCN000060000000060000FN00000000020221001000060000NNM   20220707122229    4P0P  00001200000000580800000972432BG    YGYYA   006400630015
BI00B32BG    YY22102GMW     202208257116-4104-02             TERMINAL                 CCN000060000000060000FN00000000020221001000060000NNM   20220707122229    4P0P  00001200000000580800000972432BG    YGYYA   006400630015
BI00B32BG    YY22103GMW     202209087116-4104-02             TERMINAL                 CCN000048000000048000FN00000000020221001000048000NNM   20220707122229    4P0P  00001200000000580800000972432BG    YGYYA   006400630015
BI00B32BG    YY22101GMW     202208187116-4110-02             TERMINAL                 CCN000036000000036000FN00000000020221001000036000NNM   20220707122229    4P0P  00000900000000594000000882232BG    YGYYA   006400630015
BI00B32BG    YY22102GMW     202208257116-4110-02             TERMINAL                 CCN000036000000036000FN00000000020221001000036000NNM   20220707122229    4P0P  00000900000000594000000882232BG    YGYYA   006400630015
BI00B32BG    YY22103GMW     202209087116-4110-02             TERMINAL                 CCN000036000000036000FN00000000020221001000036000NNM   20220707122229    4P0P  00000900000000594000000882232BG    YGYYA   006400630015
BI00B32BG    YY22101GMW     202208187116-4111-02             TERMINAL                 CCN000052500000052500FN00000000020221001000052500NNM   20220707122229    4P0P  00000750000000529500000817732BG    YGYYA   006400630015
BI00B32BG    YY22102GMW     202208257116-4111-02             TERMINAL                 CCN000052500000052500FN00000000020221001000052500NNM   20220707122229    4P0P  00000750000000529500000817732BG    YGYYA   006400630015
BI00B32BG    YY22103GMW     202209087116-4111-02             TERMINAL                 CCN000052500000052500FN00000000020221001000052500NNM   20220707122229    4P0P  00000750000000529500000817732BG    YGYYA   006400630015
BI00B32BG    YY22101GMW     202208187116-4112-02             TERMINAL                 CCN000042000000042000FN00000000020221001000042000NNM   20220707122229    4P0P  00000600000000450000000738232BG    YGYYA   006400630015
BI00B32BG    YY22102GMW     202208257116-4112-02             TERMINAL                 CCN000042000000042000FN00000000020221001000042000NNM   20220707122229    4P0P  00000600000000450000000738232BG    YGYYA   006400630015
BI00B32BG    YY22103GMW     202209087116-4112-02             TERMINAL                 CCN000042000000042000FN00000000020221001000042000NNM   20220707122229    4P0P  00000600000000450000000738232BG    YGYYA   006400630015
BI00B32BG    YY22101GMW     202208187116-4120-02             TERMINAL                 CCN000012000000012000FN00000000020221001000012000NNM   20220707122229    4P0P  00000600000000780000001073632BG    YGYYA   006400630015
BI00B32BG    YY22102GMW     202208257116-4120-02             TERMINAL                 CCN000012000000012000FN00000000020221001000012000NNM   20220707122229    4P0P  00000600000000780000001073632BG    YGYYA   006400630015
BI00B32BG    YY22103GMW     202209087116-4120-02             TERMINAL                 CCN000012000000012000FN00000000020221001000012000NNM   20220707122229    4P0P  00000600000000780000001073632BG    YGYYA   006400630015
BI00B32BG    YY22101GMW     202208187116-4121-02             TERMINAL                 CCN000063000000063000FN00000000020221001000063000NNM   20220707122229    4P0P  00000450000000618800000912432BG    YGYYA   006400630015
BI00B32BG    YY22102GMW     202208257116-4121-02             TERMINAL                 CCN000063000000063000FN00000000020221001000063000NNM   20220707122229    4P0P  00000450000000618800000912432BG    YGYYA   006400630015
BI00B32BG    YY22103GMW     202209087116-4121-02             TERMINAL                 CCN000090000000090000FN00000000020221001000090000NNM   20220707122229    4P0P  00000450000000618800000912432BG    YGYYA   006400630015
BI00B32BG    YY22101GMW     202208187116-4122-02             TERMINAL                 CCN000058500000058500FN00000000020221001000058500NNM   20220707122229    4P0P  00000450000000656600000950232BG    YGYYA   006400630015
BI00B32BG    YY22102GMW     202208257116-4122-02             TERMINAL                 CCN000058500000058500FN00000000020221001000058500NNM   20220707122229    4P0P  00000450000000656600000950232BG    YGYYA   006400630015
BI00B32BG    YY22103GMW     202209087116-4122-02             TERMINAL                 CCN000058500000058500FN00000000020221001000058500NNM   20220707122229    4P0P  00000450000000656600000950232BG    YGYYA   006400630015
BI00B32BG    YY22101GMW     202208187126-8853-02             TERMINAL                 CCN000007500000007500FN00000000020221001000007500NNM   20220707122229    4P0P  00000750000000562500000847732BG    YGYYA   006400630015
BI00B32BG    YY22101GMW     202208187126-8854-02             TERMINAL                 CCN000006000000007500FN00000000020221001000007500NNM   20220707122229    4P0P  00000750000000604500000889732BG    YGYYA   006400630015
BI00B32BG    YY22102GMW     202208257126-8854-02             TERMINAL                 CCN000006000000007500FN00000000020221001000007500NNM   20220707122229    4P0P  00000750000000604500000889732BG    YGYYA   006400630015
BI00B32BG    #YY22102GMW    202208257158-3008-80             RUBBER STOPPER           CCN000020000000020000FN00000000020221001000020000NNM   20220707122229    2C0C  00002000000000288000000343032BG    YGYYA   004300270014
BI00B32BG    #YY22101GMW    202208187158-3374-90             CONNECTOR WIRE SEAL      CCN000020000000020000FN00000000020221001000020000NNM   20220707122229    2H0H  00002000000000172000000229332BG    YGYYA   002700430014
BI00B32BG    #YY22102GMW    202208257158-3374-90             CONNECTOR WIRE SEAL      CCN000020000000020000FN00000000020221001000020000NNM   20220707122229    2H0H  00002000000000172000000229332BG    YGYYA   002700430014
BI00B32BG    #YY22101GMW    202208187283-8398-40             CONNECTOR                CCN000001540000001540FN00000000020221001000001540NNM   20220707122229    2N0N  00000154000001007000001171332BG    YGYYA   005600390023
BI00B32BG    #YY22102GMW    202208257283-8398-40             CONNECTOR                CCN000001540000001540FN00000000020221001000001540NNM   20220707122229    2N0N  00000154000001007000001171332BG    YGYYA   005600390023
BI00B32BG    #YY22103GMW    202209087283-8398-40             CONNECTOR                CCN000003080000003080FN00000000020221001000003080NNM   20220707122229    2N0N  00000154000001007000001171332BG    YGYYA   005600390023
BI00B32BG    #YY22101NMW    202208187158-3008-80             RUBBER STOPPER           CCN000020000000020000FN00000000020221001000020000NNM   20220707122229    2C0C  00002000000000288000000343032BG    YGYYA   004300270014
BI00B32D2    DGTC2240       202208187017-1180-02             TERMINAL                 CCN000072000000072000FN00000000020221001000072000NNM   20220707122229    4P0P  00007200000001065600001229032D2    TGYOT-G 005100280028
BI00B32D2    DGTC2240       202208187114-4032                TERMINAL                 CCN000030000000030000FN00000000020221001000030000NNM   20220707122229    4P0P  00000750000000735000001063632D2    TGYOT-G 006400630017
BI00B32D2    DGTC2240       202208187114-4231-02             TERMINAL                 CCN000018000000018000FN00000000020221001000018000NNM   20220707122229    4P0P  00001800000000554400000848032D2    TGYOT-G 006400630015
BI00B32D2    DGTC2240       202208187114-4624-02             TERMINAL                 CCN000024000000024000FN00000000020221001000024000NNM   20220707122229    4P0P  00002400000000895200001188832D2    TGYOT-G 006400630015
BI00B32D2    DGTC2240       202208187114-5748-02             TERMINAL                 CCN000048000000048000FN00000000020221001000048000NNM   20220707122229    4P0P  00001200000000444000000737632D2    TGYOT-G 006400630015
BI00B32D2    DGTC2240       202208187114-5753-02             TERMINAL                 CCN000081000000081000FN00000000020221001000081000NNM   20220707122229    4P0P  00002700000000847800001141432D2    TGYOT-G 006400630015
BI00B32D2    DGTC2240       202208187116-2891-02             TERMINAL                 CCN000030000000030000FN00000000020221001000030000NNM   20220707122229    4P0P  00001500000000982500001145932D2    TGYOT-G 005100280028
BI00B32D2    DGTC2240       202208187116-4486-02             TERMINAL                 CCN000056000000056000FN00000000020221001000056000NNM   20220707122229    4P0P  00002800000000666400000995132D2    TGYOT-G 006400630017
BI00B32D2    DGTC2240       202208187116-5045-02             TERMINAL                 CCN000032000000032000FN00000000020221001000032000NNM   20220707122229    4P0P  00001600000000678400001007132D2    TGYOT-G 006400630017
BI00B32D2    DGTC2240       202208187116-5046-02             TERMINAL                 CCN000072000000072000FN00000000020221001000072000NNM   20220707122229    4P0P  00001200000000544800000873532D2    TGYOT-G 006400630017
BI00B32D2    DGTC2240       202208187116-6042                TERMINAL                 CCN000045000000045000FN00000000020221001000045000NNM   20220707122229    4P0P  00000300000000523800000856132D2    TGYOT-G 006400630015
BI00B32D2    DGTC2240       202208187126-8853-02             TERMINAL                 CCN000090000000090000FN00000000020221001000090000NNM   20220707122229    4P0P  00000750000000562500000847732D2    TGYOT-G 006400630015
BI00B32D2    DGTC2240       202208187126-8854-02             TERMINAL                 CCN000067500000067500FN00000000020221001000067500NNM   20220707122229    4P0P  00000750000000604500000889732D2    TGYOT-G 006400630015
BI00B32D2    DGTC2240       202208187126-8855-02             TERMINAL                 CCN000108000000108000FN00000000020221001000108000NNM   20220707122229    4P0P  00000600000000510600000795832D2    TGYOT-G 006400630015
BI00B32D2    DGTC2240       202208187158-3070-80             RUBBER STOPPER           CCN000040000000040000FN00000000020221001000040000NNM   20220707122229    1C0C  00004000000000276000000333332D2    TGYOT-G 002700430014
BI00B32D2    DGTC2240       202208187158-3166-60             WIRE SEAL                CCN000040000000040000FN00000000020221001000040000NNM   20220707122229    1C0C  00004000000000104000000152432D2    TGYOT-G 002700430014
BI00B32D2    DGTC2240       202208187158-3167-80             WIRE SEAL                CCN000080000000080000FN00000000020221001000080000NNM   20220707122229    1C0C  00002000000000048000000109032D2    TGYOT-G 002700430014
BI00B32D2    DGTC2240       202208187173-3291-40             LIF LEVER                CCN000009600000009600FN00000000020221001000009600NNM   20220707122229    1F0F  00000240000000867800001067832D2    TGYOT-G 005500360039
BI00B32D2    DGTC2240       202208187196-1325-02             TERMINAL FEMALE          CCN000060000000060000FN00000000020221001000060000NNM   20220707122229    4P0P  00006000000000450000000778732D2    TGYOT-G 006400630017
BI00B32D2    DGTC2240       202208187196-1326-02             TERMINAL FEMALE          CCN000660000000660000FN00000000020221001000660000NNM   20220707122229    4P0P  00006000000000456000000784732D2    TGYOT-G 006400630017
BI00B32D2    DGTC2240       202208187196-1327-02             TERMINAL FEMALE          CCN000052000000052000FN00000000020221001000052000NNM   20220707122229    4P0P  00005200000000336000000739532D2    TGYOT-G 006400630017
BI00B32D2    DGTC2240       202208187283-1156                CONNECTOR                CCN000000800000000800FN00000000020221001000000800NNM   20220707122229    4N0N  00000080000000877600001078032D2    TGYOT-G 005600390040
BI00B32D2    DGTC2240       202208187289-3342                HOUSING FEMALE ASS'Y     CCN000007200000007200FN00000000020221001000007200NNM   20220707122229    1N0N  00000240000000686400000901432D2    TGYOT-G 005500360039
BI00B32D2    DGTC2240       202208187289-3342-30             HOUSING FEMALE ASS'Y     CCN000004800000004800FN00000000020221001000004800NNM   20220707122229    1N0N  00000240000000686400000901432D2    TGYOT-G 005500360039
BI00B32D2    DGTC2240       202208187289-3342-40             HOUSING FEMALE ASS'Y     CCN000004800000004800FN00000000020221001000004800NNM   20220707122229    1N0N  00000240000000686400000901432D2    TGYOT-G 005500360039
BI00B32D2    DGTC2240       202208187289-3342-90             HOUSING FEMALE ASS'Y     CCN000004800000004800FN00000000020221001000004800NNM   20220707122229    1N0N  00000240000000686400000901432D2    TGYOT-G 005500360039
BI00B32D2    DGTC2240       202208187289-6518-30             HOUSING FEMALE ASS'Y     CCN000009600000009600FN00000000020221001000009600NNM   20220707122229    1N0N  00000120000000829200001049232D2    TGYOT-G 005500360039
BI00B32D2    DGTC2240       202208187296-0784-02             TERMINAL ALUMINIUM       CCN000024000000024000FN00000000020221001000024000NNM   20220707122229    4P0P  00002400000000480000000765232D2    TGYOT-G 006400630015
BI00B32D2    DGTC2240       202208187296-1020-02             TERMINAL ALUMINIUM       CCN000022500000022500FN00000000020221001000022500NNM   20220707122229    4P0P  00002250000000699800000985032D2    TGYOT-G 006400630015
BI00B32D2    DGTC2240       202208187296-1024-02             TERMINAL ALUMINIUM       CCN000018000000018000FN00000000020221001000018000NNM   20220707122229    4P0P  00001800000000698400000983632D2    TGYOT-G 006400630015
BI00B32D2    DGTC2240       202208187297-3482                JOINT CONNECTOR          CCN000010800000011200FN00000000020221001000011200NNM   20220707122229    4N0N  00000080000000621000000730532D2    TGYOT-G 005400370024
BI00B32D2    DGTC2240       202208187298-3484                HOUSING FEMALE ASS'Y     CCN000008400000010800FN00000000020221001000010800NNM   20220707122229    4N0N  00000270000000742500001028732D2    TGYOT-G 005400370024
BI00B32D2    DGTC2240       202208187298-3484-30             HOUSING FEMALE ASS'Y     CCN000002100000002700FN00000000020221001000002700NNM   20220707122229    4N0N  00000270000000742500001028732D2    TGYOT-G 005400370024
BI00B32D2    DGTC2240       202208187327-6801-3W             BATTERY FUSE             CCN000001632000001632FN00000000020221001000001632NNM   20220707122229    4N0N  00000009600000928400001143432D2    TGYOT-G 005500360039
BI00B32D2    DGTC2240       202208187327-6806                MULTI FUSE               CCN000001680000001680FN00000000020221001000001680NNM   20220707122229    4N0N  00000056000000851500001063932D2    TGYOT-G 005400370024
BI00B32D2    DGTC2240       202208187327-6809                MULTI FUSE               CCN000005600000005600FN00000000020221001000005600NNM   20220707122229    4N0N  00000056000000849300001061732D2    TGYOT-G 005400370024
BI00B32D2    DGTC2240       202208187327-6930                MULTI FUSE               CCN000001120000001120FN00000000020221001000001120NNM   20220707122229    4N0N  00000056000000848900001031932D2    TGYOT-G 005400370024
BI00B32D2    DGTC2240       202208187327-6983-30             MAIN FUSE                CCN000001200000001200FN00000000020221001000001200NNM   20220707122229    4N0N  00000060000000748800000951532D2    TGYOT-G 005400370024
BI00B32D2    DGTC2240       202208187327-6985-30             MULTI FUSE               CCN000001152000001152FN00000000020221001000001152NNM   20220707122229    4N0N  00000028800000886100001052032D2    TGYOT-G 005400370024
BI00B32D2    DGTC2240       202208187327-6998-30             MULTI FUSE               CCN000001152000001152FN00000000020221001000001152NNM   20220707122229    4N0N  00000028800000886000001051932D2    TGYOT-G 005400370024
BI00B32D2    DGTC2240       202208187388-2978-30             HOUSING MALE ASS'Y       CCN000015840000015840FN00000000020221001000015840NNM   20220707122229    1N0N  00000048000000742000001122032D2    TGYOT-G 005500360039
BI00B32D2    #DGTC2240      202208187158-3003-90             RUBBER STOPPER           CCN000160000000160000FN00000000020221001000160000NNM   20220707122229    2C0C  00002000000000250000000306032D2    TGYOT-G 002700430014
BI00B32D2    #DGTC2240      202208187158-3005-80             RUBBER STOPPER           CCN000020000000020000FN00000000020221001000020000NNM   20220707122229    2H0H  00002000000000210000000268732D2    TGYOT-G 002700430014
BI00B32D2    #DGTC2240      202208187158-3008-80             RUBBER STOPPER           CCN000060000000060000FN00000000020221001000060000NNM   20220707122229    2C0C  00002000000000288000000343032D2    TGYOT-G 004300270014
BI00B32D2    #DGTC2240      202208187158-3015-10             RUBBER STOPPER           CCN000010000000010000FN00000000020221001000010000NNM   20220707122229    2C0C  00001000000000419500000474032D2    TGYOT-G 002700430014
BI00B32D2    #DGTC2240      202208187158-3017                RUBBER STOPPER           CCN000020000000020000FN00000000020221001000020000NNM   20220707122229    2C0C  00001000000000375500000435032D2    TGYOT-G 002700430014
BI00B32D2    #DGTC2240      202208187158-3374-90             CONNECTOR WIRE SEAL      CCN000020000000020000FN00000000020221001000020000NNM   20220707122229    2H0H  00002000000000172000000229332D2    TGYOT-G 002700430014
BI00B32D2    #DGTC2240      202208187172-5625-90             RUBBER STOPPER           CCN000020000000020000FN00000000020221001000020000NNM   20220707122229    2H0H  00002000000000082400000133832D2    TGYOT-G 004300270014
BI00B32D2    #DGTC2240      202208187172-5627-60             RUBBER STOPPER           CCN000020000000020000FN00000000020221001000020000NNM   20220707122229    2H0H  00002000000000070400000121832D2    TGYOT-G 004300270014
BI00B32D2    #DGTC2240      202208187172-5629-80             RUBBER STOPPER           CCN000340000000340000FN00000000020221001000340000NNM   20220707122229    2H0H  00002000000000060000000111132D2    TGYOT-G 004300270014
BI00B32D2    #DGTC2240      202208187172-5630-40             RUBBER STOPPER           CCN000200000000200000FN00000000020221001000200000NNM   20220707122229    2H0H  00002000000000044000000095132D2    TGYOT-G 004300270014
BI00B32D2    #DGTC2240      202208187172-5631-60             RUBBER STOPPER           CCN000120000000120000FN00000000020221001000120000NNM   20220707122229    2H0H  00002000000000042000000093132D2    TGYOT-G 004300270014
BI00B32D2    #DGTC2240      202208187172-5632-10             DUMMY PLUG               CCN000160000000160000FN00000000020221001000160000NNM   20220707122229    2H0H  00002000000000080400000131832D2    TGYOT-G 004300270014
BI00B32D2    #DGTC2240      202208187189-2978-30             HOUSING FEMALE           CCN000018000000018000FN00000000020221001000018000NNM   20220707122229    2F0F  00000150000000966900001096932D2    TGYOT-G 005400370024
BI00B32D2    #DGTC2240      202208187189-3033                HOUSING FEMALE           CCN000006400000006400FN00000000020221001000006400NNM   20220707122229    2F0F  00000160000001211200001431232D2    TGYOT-G 005500360039
BI00B32D2    #DGTC2240      202208187189-3036                HOUSING FEMALE           CCN000004800000004800FN00000000020221001000004800NNM   20220707122229    2F0F  00000160000000921600001141632D2    TGYOT-G 005500360039
BI00B32D2    #DGTC2240      202208187189-3037                HOUSING FEMALE           CCN000004800000004800FN00000000020221001000004800NNM   20220707122229    2F0F  00000480000000806400001066432D2    TGYOT-G 005500360039
BI00B32D2    #DGTC2240      202208187283-8226-30             CONNECTOR                CCN000004000000004000FN00000000020221001000004000NNM   20220707122229    2N0N  00000200000000820000001008032D2    TGYOT-G 005400370024
BI00B32D2    #DGTC2240      202208187289-2912-40             HOUSING FEMALE ASS'Y     CCN000002000000002000FN00000000020221001000002000NNM   20220707122229    2N0N  00000200000000804000000931032D2    TGYOT-G 005400370024
BI00B32D2    #DGTC2240      202208187289-3622-30             HOUSING FEMALE ASS'Y     CCN000000432000000432FN00000000020221001000000432NNM   20220707122229    2N0N  00000043200000839400001038432D2    TGYOT-G 005400370024
BI00B32D2    #DGTC2240      202208187289-4200-30             HOUSING FEMALE ASS'Y     CCN000002000000002000FN00000000020221001000002000NNM   20220707122229    2N0N  00000200000000926000001021032D2    TGYOT-G 005400370024
BI00B32G8    PATA2091A      202208107254-5840-30             ENG R/B SUB ASS'Y        CCN000000024000000024FN00000000020220901000000024NNE   20220707132030    4J0J  00000002400000732000000952032G8    PSPASI  005600390040
BI00B32K8    #K1220011224   202207227137-2719-50             SEALED CONNECTOR         CCN000008000000008000FN00000000020220701000008000NNMD0420220707150421    2C0C  00000100000000120700000185732K8    ELELCOM 002700430014
BI00B32K8    #K1220011339   202209307137-2200                CONNECTOR PACKING        CCN000005000000005000FN00000000020221101000005000NNM   20220707122229    2C0C  00000500000000136000000211332K8    ELELCOM 004300270014
BI00B32K8    #K1220011339   202209307137-2717-50             SEALED CONNECTOR         CCN000016000000016000FN00000000020221101000016000NNM   20220707122229    2C0C  00000400000000212800000284032K8    ELELCOM 002700430014
BI00B32M1    TCV208A        202207217114-4231-02             TERMINAL                 CCN000018000000018000FN00000000020220801000018000NNE   20220707122229    4P0P  00001800000000554400000848032M1    VNYEV   006400630015
BI00B32M1    TCV208A        202207217114-4486-02             TERMINAL                 CCN000120000000120000FN00000000020220801000120000NNE   20220707122229    4P0P  00002400000000662400000956032M1    VNYEV   006400630015
BI00B32M1    TCV208A        202207217116-5042-02             TERMINAL                 CCN000054000000054000FN00000000020220801000054000NNE   20220707122229    4P0P  00001350000000560300000845532M1    VNYEV   006400630015
BI00B32M1    TCV208A        202207217116-5097-02             TERMINAL                 CCN000090000000090000FN00000000020220801000090000NNE   20220707122229    4P0P  00002250000000531000000816232M1    VNYEV   006400630015
BI00B32M1    TCV208A        202207217116-5750-02             TERMINAL                 CCN000165000000165000FN00000000020220801000165000NNE   20220707122229    4P0P  00001500000000457500000742732M1    VNYEV   006400630015
BI00B32M1    TCV208A        202207217196-1103-02             TERMINAL                 CCN000045000000045000FN00000000020220801000045000NNE   20220707122229    4P0P  00002250000000429800000715032M1    VNYEV   006400630015
BI00B32M4    #TL2083B       202207217198-4980-30             HOUSING FEMALE           CCN000006000000006000FN00000000020220801000006000NNE   20220707122229    2F0F  00000120000000840000000921032M4    SISAI   005400370024
BI00B32R7    R-TAP220278    202208257298-1186-40             SQUIB SUB ASS'Y          CCN000100000000100000FN00000000020220701000100000NNED0220220707135322    4N0N  00001000000000650000000774532R7    IVYCIC  005400370024
BI00B32W2    HN22091NMW     202208027114-1475                TERMINAL                 CCN000013500000013500FN00000000020220901000013500NNM   20220707122229    4P0P  00001350000000480600000774232W2    HNHNY   006400630015
BI00B32W2    HN22092NMW     202208097114-1475                TERMINAL                 CCN000013500000013500FN00000000020220901000013500NNM   20220707122229    4P0P  00001350000000480600000774232W2    HNHNY   006400630015
BI00B32W2    HN22093NMW     202208167114-1475                TERMINAL                 CCN000013500000013500FN00000000020220901000013500NNM   20220707122229    4P0P  00001350000000480600000774232W2    HNHNY   006400630015
BI00B32W2    HN22094NMW     202208237114-1475                TERMINAL                 CCN000013500000013500FN00000000020220901000013500NNM   20220707122229    4P0P  00001350000000480600000774232W2    HNHNY   006400630015
BI00B32W2    HN22091NMW     202208027114-4032                TERMINAL                 CCN000015000000015000FN00000000020220901000015000NNM   20220707122229    4P0P  00000750000000735000001063632W2    HNHNY   006400630017
BI00B32W2    HN22092NMW     202208097114-4032                TERMINAL                 CCN000015000000015000FN00000000020220901000015000NNM   20220707122229    4P0P  00000750000000735000001063632W2    HNHNY   006400630017
BI00B32W2    HN22093NMW     202208167114-4032                TERMINAL                 CCN000007500000007500FN00000000020220901000007500NNM   20220707122229    4P0P  00000750000000735000001063632W2    HNHNY   006400630017
BI00B32W2    HN22094NMW     202208237114-4032                TERMINAL                 CCN000015000000015000FN00000000020220901000015000NNM   20220707122229    4P0P  00000750000000735000001063632W2    HNHNY   006400630017
BI00B32W2    HN22091NMW     202208027116-1180                TERMINAL                 CCN000058500000058500FN00000000020220901000058500NNM   20220707122229    1P0P  00001950000000618200000903432W2    HNHNY   006400630015
BI00B32W2    HN22092NMW     202208097116-1180                TERMINAL                 CCN000019500000019500FN00000000020220901000019500NNM   20220707122229    1P0P  00001950000000618200000903432W2    HNHNY   006400630015
BI00B32W2    HN22093NMW     202208167116-1180                TERMINAL                 CCN000019500000019500FN00000000020220901000019500NNM   20220707122229    1P0P  00001950000000618200000903432W2    HNHNY   006400630015
BI00B32W2    HN22094NMW     202208237116-1180                TERMINAL                 CCN000058500000058500FN00000000020220901000058500NNM   20220707122229    1P0P  00001950000000618200000903432W2    HNHNY   006400630015
BI00B32W2    HN22092NMW     202208097116-1471                TERMINAL                 CCN000015000000015000FN00000000020220901000015000NNM   20220707122229    4P0P  00001500000000579000000867232W2    HNHNY   006400630015
BI00B32W2    HN22091NMW     202208027116-1473                TERMINAL                 CCN000135000000135000FN00000000020220901000135000NNM   20220707122229    4P0P  00001350000000523800000809032W2    HNHNY   006400630015
BI00B32W2    HN22092NMW     202208097116-1473                TERMINAL                 CCN000135000000135000FN00000000020220901000135000NNM   20220707122229    4P0P  00001350000000523800000809032W2    HNHNY   006400630015
BI00B32W2    HN22094NMW     202208237116-1473                TERMINAL                 CCN000148500000148500FN00000000020220901000148500NNM   20220707122229    4P0P  00001350000000523800000809032W2    HNHNY   006400630015
BI00B32W2    HN22091NMW     202208027116-1685                TERMINAL                 CCN000024000000024000FN00000000020220901000024000NNM   20220707122229    4P0P  00002400000000892800001067232W2    HNHNY   005100280028
BI00B32W2    HN22092NMW     202208097116-1685                TERMINAL                 CCN000024000000024000FN00000000020220901000024000NNM   20220707122229    4P0P  00002400000000892800001067232W2    HNHNY   005100280028
BI00B32W2    HN22094NMW     202208237116-1685                TERMINAL                 CCN000024000000024000FN00000000020220901000024000NNM   20220707122229    4P0P  00002400000000892800001067232W2    HNHNY   005100280028
BI00B32W2    HN22091NMW     202208027116-1685-02             TERMINAL                 CCN000024000000024000FN00000000020220901000024000NNM   20220707122229    4P0P  00002400000000897600001065232W2    HNHNY   005100280028
BI00B32W2    HN22093NMW     202208167116-1686                TERMINAL                 CCN000021000000021000FN00000000020220901000021000NNM   20220707122229    4P0P  00002100000000861000001045632W2    HNHNY   005100280028
BI00B32W2    HN22091NMW     202208027116-4020                TERMINAL                 CCN000675000000675000FN00000000020220901000675000NNM   20220707122229    4P0P  00001350000000513000000798232W2    HNHNY   006400630015
BI00B32W2    HN22092NMW     202208097116-4020                TERMINAL                 CCN000675000000675000FN00000000020220901000675000NNM   20220707122229    4P0P  00001350000000513000000798232W2    HNHNY   006400630015
BI00B32W2    HN22094NMW     202208237116-4020                TERMINAL                 CCN001080000001080000FN00000000020220901001080000NNM   20220707122229    4P0P  00001350000000513000000798232W2    HNHNY   006400630015
BI00B32W2    HN22091NMW     202208027116-4022                TERMINAL                 CCN000027000000027000FN00000000020220901000027000NNM   20220707122229    4P0P  00001350000000618300000903532W2    HNHNY   006400630015
BI00B32W2    HN22092NMW     202208097116-4022                TERMINAL                 CCN000027000000027000FN00000000020220901000027000NNM   20220707122229    4P0P  00001350000000618300000903532W2    HNHNY   006400630015
BI00B32W2    HN22093NMW     202208167116-4022                TERMINAL                 CCN000027000000027000FN00000000020220901000027000NNM   20220707122229    4P0P  00001350000000618300000903532W2    HNHNY   006400630015
BI00B32W2    HN22094NMW     202208237116-4022                TERMINAL                 CCN000027000000027000FN00000000020220901000027000NNM   20220707122229    4P0P  00001350000000618300000903532W2    HNHNY   006400630015
BI00B32W2    HN22091NMW     202208027116-4025                TERMINAL                 CCN000048000000048000FN00000000020220901000048000NNM   20220707122229    4P0P  00001600000000644800000975132W2    HNHNY   006400630017
BI00B32W2    HN22092NMW     202208097116-4025                TERMINAL                 CCN000048000000048000FN00000000020220901000048000NNM   20220707122229    4P0P  00001600000000644800000975132W2    HNHNY   006400630017
BI00B32W2    HN22094NMW     202208237116-4025                TERMINAL                 CCN000032000000032000FN00000000020220901000032000NNM   20220707122229    4P0P  00001600000000644800000975132W2    HNHNY   006400630017
BI00B32W2    HN22091NMW     202208027116-4031                TERMINAL                 CCN000022500000022500FN00000000020220901000022500NNM   20220707122229    4P0P  00000750000000619500000904732W2    HNHNY   006400630015
BI00B32W2    HN22092NMW     202208097116-4031                TERMINAL                 CCN000015000000015000FN00000000020220901000015000NNM   20220707122229    4P0P  00000750000000619500000904732W2    HNHNY   006400630015
BI00B32W2    HN22094NMW     202208237116-4031                TERMINAL                 CCN000015000000015000FN00000000020220901000015000NNM   20220707122229    4P0P  00000750000000619500000904732W2    HNHNY   006400630015
BI00B32W2    HN22091NMW     202208027116-4032                TERMINAL                 CCN000060000000060000FN00000000020220901000060000NNM   20220707122229    4P0P  00000600000000532800000818032W2    HNHNY   006400630015
BI00B32W2    HN22092NMW     202208097116-4032                TERMINAL                 CCN000036000000036000FN00000000020220901000036000NNM   20220707122229    4P0P  00000600000000532800000818032W2    HNHNY   006400630015
BI00B32W2    HN22093NMW     202208167116-4032                TERMINAL                 CCN000018000000018000FN00000000020220901000018000NNM   20220707122229    4P0P  00000600000000532800000818032W2    HNHNY   006400630015
BI00B32W2    HN22094NMW     202208237116-4032                TERMINAL                 CCN000060000000060000FN00000000020220901000060000NNM   20220707122229    4P0P  00000600000000532800000818032W2    HNHNY   006400630015
BI00B32W2    HN22092NMW     202208097116-6041                TERMINAL                 CCN000004500000004500FN00000000020220901000004500NNM   20220707122229    4P0P  00000450000000716000001009632W2    HNHNY   006400630015
BI00B32W2    HN22093NMW     202208167116-6041                TERMINAL                 CCN000004500000004500FN00000000020220901000004500NNM   20220707122229    4P0P  00000450000000716000001009632W2    HNHNY   006400630015
BI00B32W2    HN22094NMW     202208237116-6041                TERMINAL                 CCN000009000000009000FN00000000020220901000009000NNM   20220707122229    4P0P  00000450000000716000001009632W2    HNHNY   006400630015
BI00B32W2    HN22091NMW     202208027126-8853-02             TERMINAL                 CCN000030000000030000FN00000000020220901000030000NNM   20220707122229    4P0P  00000750000000562500000847732W2    HNHNY   006400630015
BI00B32W2    HN22093NMW     202208167126-8853-02             TERMINAL                 CCN000007500000007500FN00000000020220901000007500NNM   20220707122229    4P0P  00000750000000562500000847732W2    HNHNY   006400630015
BI00B32W2    HN22094NMW     202208237126-8853-02             TERMINAL                 CCN000007500000007500FN00000000020220901000007500NNM   20220707122229    4P0P  00000750000000562500000847732W2    HNHNY   006400630015
BI00B32W2    HN22091NMW     202208027158-3022-80             RUBBER STOPPER           CCN000005000000005000FN00000000020220901000005000NNM   20220707122229    1C0C  00000500000000467500000524032W2    HNHNY   002700430014
BI00B32W2    HN22094NMW     202208237158-3022-80             RUBBER STOPPER           CCN000005000000005000FN00000000020220901000005000NNM   20220707122229    1C0C  00000500000000467500000524032W2    HNHNY   002700430014
BI00B32W2    HN22091NMW     202208027283-7062-40             CONNECTOR HOUSING        CCN000002400000002400FN00000000020220901000002400NNM   20220707122229    1N0N  00000060000000500400000645432W2    HNHNY   005400370024
BI00B32W2    HN22092NMW     202208097283-7062-40             CONNECTOR HOUSING        CCN000002400000002400FN00000000020220901000002400NNM   20220707122229    1N0N  00000060000000500400000645432W2    HNHNY   005400370024
BI00B32W2    HN22094NMW     202208237283-7062-40             CONNECTOR HOUSING        CCN000000600000000600FN00000000020220901000000600NNM   20220707122229    1N0N  00000060000000500400000645432W2    HNHNY   005400370024
BI00B32W2    #HN22091NMW    202208027116-4021                TERMINAL                 CCN000135000000135000FN00000000020220901000135000NNM   20220707122229    2F0P  00001350000000534600000868832W2    HNHNY   006400630015
BI00B32W2    #HN22092NMW    202208097116-4021                TERMINAL                 CCN000040500000040500FN00000000020220901000040500NNM   20220707122229    2F0P  00001350000000534600000868832W2    HNHNY   006400630015
BI00B32W2    #HN22094NMW    202208237116-4021                TERMINAL                 CCN000094500000094500FN00000000020220901000094500NNM   20220707122229    2F0P  00001350000000534600000868832W2    HNHNY   006400630015
BI00B32W2    #HN22091NMW    202208027157-7812                SEAL RUBBER              CCN000030000000030000FN00000000020220901000030000NNM   20220707122229    2C0C  00001000000000137000000202032W2    HNHNY   002700430014
BI00B32W2    #HN22092NMW    202208097157-7812                SEAL RUBBER              CCN000010000000010000FN00000000020220901000010000NNM   20220707122229    2C0C  00001000000000137000000202032W2    HNHNY   002700430014
BI00B32W2    #HN22093NMW    202208167157-7812                SEAL RUBBER              CCN000010000000010000FN00000000020220901000010000NNM   20220707122229    2C0C  00001000000000137000000202032W2    HNHNY   002700430014
BI00B32W2    #HN22091NMW    202208027183-1616                CONNECTOR HOUSING        CCN000002400000002400FN00000000020220901000002400NNM   20220707122229    2F0F  00000240000000557500000823332W2    HNHNY   005500360039
BI00B32W2    #HN22092NMW    202208097183-1616                CONNECTOR HOUSING        CCN000002400000002400FN00000000020220901000002400NNM   20220707122229    2F0F  00000240000000557500000823332W2    HNHNY   005500360039
BI00B32W2    #HN22094NMW    202208237183-1616                CONNECTOR HOUSING        CCN000002400000002400FN00000000020220901000002400NNM   20220707122229    2F0F  00000240000000557500000823332W2    HNHNY   005500360039
BI00B32W2    #HN22091NMW    202208027187-3356                JOINT CONNECTOR          CCN000013200000013200FN00000000020220901000013200NNM   20220707122229    2F0F  00000120000000759600001024432W2    HNHNY   005600390040
BI00B32W2    #HN22092NMW    202208097187-3356                JOINT CONNECTOR          CCN000012000000012000FN00000000020220901000012000NNM   20220707122229    2F0F  00000120000000759600001024432W2    HNHNY   005600390040
BI00B32W2    #HN22093NMW    202208167187-3356                JOINT CONNECTOR          CCN000008400000008400FN00000000020220901000008400NNM   20220707122229    2F0F  00000120000000759600001024432W2    HNHNY   005600390040
BI00B32W2    #HN22094NMW    202208237187-3356                JOINT CONNECTOR          CCN000016800000016800FN00000000020220901000016800NNM   20220707122229    2F0F  00000120000000759600001024432W2    HNHNY   005600390040
BI00B32W2    #HN22091NMW    202208027187-3357-40             JOINT CONNECTOR          CCN000007200000007200FN00000000020220901000007200NNM   20220707122229    2F0F  00000120000000762000001029232W2    HNHNY   005600390040
BI00B32W2    #HN22092NMW    202208097187-3357-40             JOINT CONNECTOR          CCN000002400000002400FN00000000020220901000002400NNM   20220707122229    2F0F  00000120000000762000001029232W2    HNHNY   005600390040
BI00B32W2    #HN22093NMW    202208167187-3357-40             JOINT CONNECTOR          CCN000002400000002400FN00000000020220901000002400NNM   20220707122229    2F0F  00000120000000762000001029232W2    HNHNY   005600390040
BI00B32W2    #HN22094NMW    202208237187-3357-40             JOINT CONNECTOR          CCN000003600000003600FN00000000020220901000003600NNM   20220707122229    2F0F  00000120000000762000001029232W2    HNHNY   005600390040
BI00B32W2    #HN22091NMW    202208027187-3358-30             JOINT CONNECTOR          CCN000007200000007200FN00000000020220901000007200NNM   20220707122229    2F0F  00000120000000673200000940432W2    HNHNY   005600390040
BI00B32W2    #HN22092NMW    202208097187-3358-30             JOINT CONNECTOR          CCN000002400000002400FN00000000020220901000002400NNM   20220707122229    2F0F  00000120000000673200000940432W2    HNHNY   005600390040
BI00B32W2    #HN22093NMW    202208167187-3358-30             JOINT CONNECTOR          CCN000002400000002400FN00000000020220901000002400NNM   20220707122229    2F0F  00000120000000673200000940432W2    HNHNY   005600390040
BI00B32W2    #HN22094NMW    202208237187-3358-30             JOINT CONNECTOR          CCN000004800000004800FN00000000020220901000004800NNM   20220707122229    2F0F  00000120000000673200000940432W2    HNHNY   005600390040
BI00B32W2    #HN22091NMW    202208027187-3359-60             JOINT CONNECTOR          CCN000012000000012000FN00000000020220901000012000NNM   20220707122229    2F0F  00000120000000763200001030432W2    HNHNY   005600390040
BI00B32W2    #HN22092NMW    202208097187-3359-60             JOINT CONNECTOR          CCN000006000000006000FN00000000020220901000006000NNM   20220707122229    2F0F  00000120000000763200001030432W2    HNHNY   005600390040
BI00B32W2    #HN22093NMW    202208167187-3359-60             JOINT CONNECTOR          CCN000002400000002400FN00000000020220901000002400NNM   20220707122229    2F0F  00000120000000763200001030432W2    HNHNY   005600390040
BI00B32W2    #HN22094NMW    202208237187-3359-60             JOINT CONNECTOR          CCN000010800000010800FN00000000020220901000010800NNM   20220707122229    2F0F  00000120000000763200001030432W2    HNHNY   005600390040
BI00B32W2    #HN22091NMW    202208027187-3360                JOINT CONNECTOR          CCN000006000000006000FN00000000020220901000006000NNM   20220707122229    2F0F  00000120000000759600001026832W2    HNHNY   005600390040
BI00B32W2    #HN22092NMW    202208097187-3360                JOINT CONNECTOR          CCN000006000000006000FN00000000020220901000006000NNM   20220707122229    2F0F  00000120000000759600001026832W2    HNHNY   005600390040
BI00B32W2    #HN22093NMW    202208167187-3360                JOINT CONNECTOR          CCN000002400000002400FN00000000020220901000002400NNM   20220707122229    2F0F  00000120000000759600001026832W2    HNHNY   005600390040
BI00B32W2    #HN22094NMW    202208237187-3360                JOINT CONNECTOR          CCN000007200000007200FN00000000020220901000007200NNM   20220707122229    2F0F  00000120000000759600001026832W2    HNHNY   005600390040
BI00B32W2    #HN22091NMW    202208027187-3361-40             JOINT CONNECTOR          CCN000001200000001200FN00000000020220901000001200NNM   20220707122229    2F0F  00000120000000676800000944032W2    HNHNY   005600390040
BI00B32W2    #HN22093NMW    202208167187-3361-40             JOINT CONNECTOR          CCN000001200000001200FN00000000020220901000001200NNM   20220707122229    2F0F  00000120000000676800000944032W2    HNHNY   005600390040
BI00B32W2    #HN22091NMW    202208027282-1150-50             CONNECTOR MALE ASS'Y     CCN000001800000001800FN00000000020220901000001800NNM   20220707122229    2N0N  00000060000000688800000800032W2    HNHNY   005400370024
BI00B32W2    #HN22092NMW    202208097282-1150-50             CONNECTOR MALE ASS'Y     CCN000000600000000600FN00000000020220901000000600NNM   20220707122229    2N0N  00000060000000688800000800032W2    HNHNY   005400370024
BI00B32W2    #HN22093NMW    202208167282-1150-50             CONNECTOR MALE ASS'Y     CCN000000600000000600FN00000000020220901000000600NNM   20220707122229    2N0N  00000060000000688800000800032W2    HNHNY   005400370024
BI00B32W2    #HN22094NMW    202208237282-1150-50             CONNECTOR MALE ASS'Y     CCN000001200000001200FN00000000020220901000001200NNM   20220707122229    2N0N  00000060000000688800000800032W2    HNHNY   005400370024
BI00B32W2    #HN22092NMW    202208097282-1210                CONNECTOR MALE ASS'Y     CCN000001000000001000FN00000000020220901000001000NNM   20220707122229    2N0N  00000100000000336000000458532W2    HNHNY   005400370024
BI00B32W2    #HN22091NMW    202208027283-1161-40             CONNECTOR FEMALE         CCN000001000000001000FN00000000020220901000001000NNM   20220707122229    2N0N  00000100000000602000000711032W2    HNHNY   005400370024
BI00B32W2    #HN22092NMW    202208097283-1161-40             CONNECTOR FEMALE         CCN000001000000001000FN00000000020220901000001000NNM   20220707122229    2N0N  00000100000000602000000711032W2    HNHNY   005400370024
BI00B32W2    #HN22093NMW    202208167283-1161-40             CONNECTOR FEMALE         CCN000001000000001000FN00000000020220901000001000NNM   20220707122229    2N0N  00000100000000602000000711032W2    HNHNY   005400370024
BI00B32W2    #HN22094NMW    202208237283-1161-40             CONNECTOR FEMALE         CCN000001000000001000FN00000000020220901000001000NNM   20220707122229    2N0N  00000100000000602000000711032W2    HNHNY   005400370024
BI00B32W2    #HN22091NMW    202208027283-4861                CONNECTOR                CCN000003000000003000FN00000000020220901000003000NNM   20220707122229    2N0N  00000150000001200000001359932W2    HNHNY   005500360039
BI00B32W2    #HN22092NMW    202208097283-4861                CONNECTOR                CCN000003000000003000FN00000000020220901000003000NNM   20220707122229    2N0N  00000150000001200000001359932W2    HNHNY   005500360039
BI00B32W2    #HN22093NMW    202208167283-4861                CONNECTOR                CCN000001500000001500FN00000000020220901000001500NNM   20220707122229    2N0N  00000150000001200000001359932W2    HNHNY   005500360039
BI00B32W2    #HN22094NMW    202208237283-4861                CONNECTOR                CCN000003000000003000FN00000000020220901000003000NNM   20220707122229    2N0N  00000150000001200000001359932W2    HNHNY   005500360039
BI00B32W2    #HN22091NMW    202208027283-5833                CONNECTOR HOUSING        CCN000003640000003640FN00000000020220901000003640NNM   20220707122229    2N0N  00000364000001378000001686732W2    HNHNY   005500360039
BI00B32W2    #HN22092NMW    202208097283-5833                CONNECTOR HOUSING        CCN000003640000003640FN00000000020220901000003640NNM   20220707122229    2N0N  00000364000001378000001686732W2    HNHNY   005500360039
BI00B32W2    #HN22091NMW    202208027289-2274-60             JOINT CONNECTOR          CCN000001200000001200FN00000000020220901000001200NNM   20220707122229    2N0N  00000120000000682800000949932W2    HNHNY   005600390040
BI00B32W2    #HN22092NMW    202208097289-2274-60             JOINT CONNECTOR          CCN000001200000001200FN00000000020220901000001200NNM   20220707122229    2N0N  00000120000000682800000949932W2    HNHNY   005600390040
BI00B32W2    #HN22094NMW    202208237289-2274-60             JOINT CONNECTOR          CCN000001200000001200FN00000000020220901000001200NNM   20220707122229    2N0N  00000120000000682800000949932W2    HNHNY   005600390040
BI00B32W2    @HN22092NMW    202208097282-1064-40             CONNECTOR ASS'Y          CCN000000800000000800FN00000000020220901000000800NNM   20220707122229    3N0N  00000080000000910400001136232W2    HNHNY   005500360039
BI00B32W2    @HN22093NMW    202208167282-1064-40             CONNECTOR ASS'Y          CCN000000800000000800FN00000000020220901000000800NNM   20220707122229    3N0N  00000080000000910400001136232W2    HNHNY   005500360039
BI00B32W2    @HN22091NMW    202208027283-1100                CONNECTOR ASS'Y          CCN000003200000003200FN00000000020220901000003200NNM   20220707122229    3N0N  00000160000000566500000799632W2    HNHNY   005500360039
BI00B32W2    @HN22094NMW    202208237283-1100                CONNECTOR ASS'Y          CCN000001600000001600FN00000000020220901000001600NNM   20220707122229    3N0N  00000160000000566500000799632W2    HNHNY   005500360039
BI00B32W2    @HN22091NMW    202208027283-1100-30             CONNECTOR ASS'Y          CCN000008000000008000FN00000000020220901000008000NNM   20220707122229    3N0N  00000160000000561600000803032W2    HNHNY   005500360039
BI00B32W2    @HN22092NMW    202208097283-1100-30             CONNECTOR ASS'Y          CCN000008000000008000FN00000000020220901000008000NNM   20220707122229    3N0N  00000160000000561600000803032W2    HNHNY   005500360039
BI00B32W2    @HN22094NMW    202208237283-1100-30             CONNECTOR ASS'Y          CCN000008000000008000FN00000000020220901000008000NNM   20220707122229    3N0N  00000160000000561600000803032W2    HNHNY   005500360039
BI00B32W2    @HN22091NMW    202208027283-1100-60             CONNECTOR ASS'Y          CCN000004800000004800FN00000000020220901000004800NNM   20220707122229    3N0N  00000160000000567500000801432W2    HNHNY   005500360039
BI00B32W2    @HN22092NMW    202208097283-1100-60             CONNECTOR ASS'Y          CCN000003200000003200FN00000000020220901000003200NNM   20220707122229    3N0N  00000160000000567500000801432W2    HNHNY   005500360039
BI00B32W2    @HN22094NMW    202208237283-1100-60             CONNECTOR ASS'Y          CCN000001600000001600FN00000000020220901000001600NNM   20220707122229    3N0N  00000160000000567500000801432W2    HNHNY   005500360039
BI00B32W2    @HN22091NMW    202208027283-1100-90             CONNECTOR ASS'Y          CCN000004800000004800FN00000000020220901000004800NNM   20220707122229    3N0N  00000160000000564800000806832W2    HNHNY   005500360039
BI00B32W2    @HN22092NMW    202208097283-1100-90             CONNECTOR ASS'Y          CCN000003200000003200FN00000000020220901000003200NNM   20220707122229    3N0N  00000160000000564800000806832W2    HNHNY   005500360039
BI00B32W2    @HN22094NMW    202208237283-1100-90             CONNECTOR ASS'Y          CCN000004800000004800FN00000000020220901000004800NNM   20220707122229    3N0N  00000160000000564800000806832W2    HNHNY   005500360039
BI00B32W2    HN22091WMW     202208027B72-5540-80             SEALED WIRE SEAL         CCN000040000000040000FN00000000020220901000040000NNM   20220707122229    1C0C  00002000000000186000000234432W2    HNHNY   004300270014
BI00B32W2    HN22092WMW     202208097B72-5540-80             SEALED WIRE SEAL         CCN000020000000020000FN00000000020220901000020000NNM   20220707122229    1C0C  00002000000000186000000234432W2    HNHNY   004300270014
BI00B32W2    HN22094WMW     202208237B72-5540-80             SEALED WIRE SEAL         CCN000040000000040000FN00000000020220901000040000NNM   20220707122229    1C0C  00002000000000186000000234432W2    HNHNY   004300270014
BI00B32W2    HN22091WMW     202208027B96-0805-02             TERMINAL FEMALE          CCN000045000000045000FN00000000020220901000045000NNM   20220707122229    4P0P  00002250000000558000000843232W2    HNHNY   006400630015
BI00B32W2    HN22092WMW     202208097B96-0805-02             TERMINAL FEMALE          CCN000022500000022500FN00000000020220901000022500NNM   20220707122229    4P0P  00002250000000558000000843232W2    HNHNY   006400630015
BI00B32W2    HN22093WMW     202208167B96-0805-02             TERMINAL FEMALE          CCN000022500000022500FN00000000020220901000022500NNM   20220707122229    4P0P  00002250000000558000000843232W2    HNHNY   006400630015
BI00B32W2    HN22094WMW     202208237B96-0805-02             TERMINAL FEMALE          CCN000022500000022500FN00000000020220901000022500NNM   20220707122229    4P0P  00002250000000558000000843232W2    HNHNY   006400630015
BI00B32W2    HN22091WMW     202208027C89-6868-30             SEALED ASSY FEMALE       CCN000025200000025200FN00000000020220901000025200NNM   20220707122229    4N0N  00000252000000839200001119232W2    HNHNY   005500360039
BI00B32W2    HN22092WMW     202208097C89-6868-30             SEALED ASSY FEMALE       CCN000012600000012600FN00000000020220901000012600NNM   20220707122229    4N0N  00000252000000839200001119232W2    HNHNY   005500360039
BI00B32W2    HN22093WMW     202208167C89-6868-30             SEALED ASSY FEMALE       CCN000002520000002520FN00000000020220901000002520NNM   20220707122229    4N0N  00000252000000839200001119232W2    HNHNY   005500360039
BI00B32W2    HN22094WMW     202208237C89-6868-30             SEALED ASSY FEMALE       CCN000015120000015120FN00000000020220901000015120NNM   20220707122229    4N0N  00000252000000839200001119232W2    HNHNY   005500360039
BI00B32W2    HN22093WMW     202208167116-1685-02             TERMINAL                 CCN000216000000216000FN00000000020220901000216000NNM   20220707122229    4P0P  00002400000000897600001065232W2    HNHNY   005100280028
BI00B32W2    HN22092WMW     202208097116-4037                TERMINAL                 CCN000024000000024000FN00000000020220901000024000NNM   20220707122229    4P0P  00000600000000600000000894232W2    HNHNY   006400630015
BI00B32W2    HN22093WMW     202208167116-4037                TERMINAL                 CCN000024000000024000FN00000000020220901000024000NNM   20220707122229    4P0P  00000600000000600000000894232W2    HNHNY   006400630015
BI00B32W2    HN22094WMW     202208237116-4037                TERMINAL                 CCN000006000000006000FN00000000020220901000006000NNM   20220707122229    4P0P  00000600000000600000000894232W2    HNHNY   006400630015
BI00B32W2    HN22091WMW     202208027116-4415-02             TERMINAL                 CCN000152000000152000FN00000000020220901000152000NNM   20220707122229    4P0P  00003800000000596600000925732W2    HNHNY   006400630017
BI00B32W2    HN22092WMW     202208097116-4415-02             TERMINAL                 CCN000152000000152000FN00000000020220901000152000NNM   20220707122229    4P0P  00003800000000596600000925732W2    HNHNY   006400630017
BI00B32W2    HN22093WMW     202208167116-4415-02             TERMINAL                 CCN000038000000038000FN00000000020220901000038000NNM   20220707122229    4P0P  00003800000000596600000925732W2    HNHNY   006400630017
BI00B32W2    HN22094WMW     202208237116-4415-02             TERMINAL                 CCN000190000000190000FN00000000020220901000190000NNM   20220707122229    4P0P  00003800000000596600000925732W2    HNHNY   006400630017
BI00B32W2    HN22092WMW     202208097116-4416-02             TERMINAL                 CCN000032000000032000FN00000000020220901000032000NNM   20220707122229    4P0P  00003200000000518400000847132W2    HNHNY   006400630017
BI00B32W2    HN22094WMW     202208237116-4416-02             TERMINAL                 CCN000032000000032000FN00000000020220901000032000NNM   20220707122229    4P0P  00003200000000518400000847132W2    HNHNY   006400630017
BI00B32W2    HN22092WMW     202208097116-6041                TERMINAL                 CCN000022500000022500FN00000000020220901000022500NNM   20220707122229    4P0P  00000450000000716000001009632W2    HNHNY   006400630015
BI00B32W2    HN22092WMW     202208097126-8853-02             TERMINAL                 CCN000075000000075000FN00000000020220901000075000NNM   20220707122229    4P0P  00000750000000562500000847732W2    HNHNY   006400630015
BI00B32W2    HN22091WMW     202208027158-3165-90             WIRE SEAL                CCN000160000000160000FN00000000020220901000160000NNM   20220707122229    1C0C  00004000000000124000000172432W2    HNHNY   004300270014
BI00B32W2    HN22092WMW     202208097158-3165-90             WIRE SEAL                CCN000120000000120000FN00000000020220901000120000NNM   20220707122229    1C0C  00004000000000124000000172432W2    HNHNY   004300270014
BI00B32W2    HN22094WMW     202208237158-3165-90             WIRE SEAL                CCN000080000000080000FN00000000020220901000080000NNM   20220707122229    1C0C  00004000000000124000000172432W2    HNHNY   004300270014
BI00B32W2    HN22091WMW     202208027158-3166-60             WIRE SEAL                CCN000120000000120000FN00000000020220901000120000NNM   20220707122229    1C0C  00004000000000104000000152432W2    HNHNY   002700430014
BI00B32W2    HN22092WMW     202208097158-3166-60             WIRE SEAL                CCN000040000000040000FN00000000020220901000040000NNM   20220707122229    1C0C  00004000000000104000000152432W2    HNHNY   002700430014
BI00B32W2    HN22093WMW     202208167158-3166-60             WIRE SEAL                CCN000040000000040000FN00000000020220901000040000NNM   20220707122229    1C0C  00004000000000104000000152432W2    HNHNY   002700430014
BI00B32W2    HN22094WMW     202208237158-3166-60             WIRE SEAL                CCN000080000000080000FN00000000020220901000080000NNM   20220707122229    1C0C  00004000000000104000000152432W2    HNHNY   002700430014
BI00B32W2    HN22091WMW     202208027158-3167-80             WIRE SEAL                CCN000020000000020000FN00000000020220901000020000NNM   20220707122229    1C0C  00002000000000048000000109032W2    HNHNY   002700430014
BI00B32W2    HN22092WMW     202208097158-3167-80             WIRE SEAL                CCN000020000000020000FN00000000020220901000020000NNM   20220707122229    1C0C  00002000000000048000000109032W2    HNHNY   002700430014
BI00B32W2    HN22094WMW     202208237158-3167-80             WIRE SEAL                CCN000020000000020000FN00000000020220901000020000NNM   20220707122229    1C0C  00002000000000048000000109032W2    HNHNY   002700430014
BI00B32W2    HN22093WMW     202208167158-3168-80             SEALED                   CCN000040000000040000FN00000000020220901000040000NNM   20220707122229    1C0C  00002000000000044000000092132W2    HNHNY   004300260014
BI00B32W2    HN22091WMW     202208027158-3169-40             SEALING PLUG             CCN000040000000040000FN00000000020220901000040000NNM   20220707122229    1C0C  00004000000000156000000204132W2    HNHNY   004300260014
BI00B32W2    HN22092WMW     202208097158-3169-40             SEALING PLUG             CCN000040000000040000FN00000000020220901000040000NNM   20220707122229    1C0C  00004000000000156000000204132W2    HNHNY   004300260014
BI00B32W2    HN22094WMW     202208237158-3169-40             SEALING PLUG             CCN000080000000080000FN00000000020220901000080000NNM   20220707122229    1C0C  00004000000000156000000204132W2    HNHNY   004300260014
BI00B32W2    HN22091WMW     202208027298-1853-10             HOUSING FEMALE ASS'Y     CCN000003900000003900FN00000000020220901000003900NNM   20220707122229    4N00  00000390000001240500001405832W2    HNHNY   005400370024
BI00B32W2    HN22092WMW     202208097298-1853-10             HOUSING FEMALE ASS'Y     CCN000003900000003900FN00000000020220901000003900NNM   20220707122229    4N00  00000390000001240500001405832W2    HNHNY   005400370024
BI00B32W2    HN22093WMW     202208167298-1853-10             HOUSING FEMALE ASS'Y     CCN000003900000003900FN00000000020220901000003900NNM   20220707122229    4N00  00000390000001240500001405832W2    HNHNY   005400370024
BI00B32W2    HN22094WMW     202208237298-1853-10             HOUSING FEMALE ASS'Y     CCN000003900000003900FN00000000020220901000003900NNM   20220707122229    4N00  00000390000001240500001405832W2    HNHNY   005400370024
BI00B32W2    HN22091WMW     202208027298-4094-10             HOUSING FEMALE ASS'Y     CCN000003380000003380FN00000000020220901000003380NNM   20220707122229    4N0N  00000338000001097400001358732W2    HNHNY   005400370024
BI00B32W2    HN22092WMW     202208097298-4094-10             HOUSING FEMALE ASS'Y     CCN000003380000003380FN00000000020220901000003380NNM   20220707122229    4N0N  00000338000001097400001358732W2    HNHNY   005400370024
BI00B32W2    HN22093WMW     202208167298-4094-10             HOUSING FEMALE ASS'Y     CCN000003380000003380FN00000000020220901000003380NNM   20220707122229    4N0N  00000338000001097400001358732W2    HNHNY   005400370024
BI00B32W2    HN22094WMW     202208237298-4094-10             HOUSING FEMALE ASS'Y     CCN000003380000003380FN00000000020220901000003380NNM   20220707122229    4N0N  00000338000001097400001358732W2    HNHNY   005400370024
BI00B32W2    HN22091WMW     202208027327-6533-3W             BATTERY FUSE             CCN000007200000007200FN00000000020220901000007200NNM   20220707122229    4N0N  00000007200001230100001422632W2    HNHNY   005500360039
BI00B32W2    HN22092WMW     202208097327-6533-3W             BATTERY FUSE             CCN000004464000004464FN00000000020220901000004464NNM   20220707122229    4N0N  00000007200001230100001422632W2    HNHNY   005500360039
BI00B32W2    HN22093WMW     202208167327-6533-3W             BATTERY FUSE             CCN000002448000002448FN00000000020220901000002448NNM   20220707122229    4N0N  00000007200001230100001422632W2    HNHNY   005500360039
BI00B32W2    HN22094WMW     202208237327-6533-3W             BATTERY FUSE             CCN000000792000000792FN00000000020220901000000792NNM   20220707122229    4N0N  00000007200001230100001422632W2    HNHNY   005500360039
BI00B32W2    HN22091WMW     202208027327-6832-60             MAIN FUSE                CCN000002400000002400FN00000000020220901000002400NNM   20220707122229    4N0N  00000060000000729200000930732W2    HNHNY   005400370024
BI00B32W2    HN22092WMW     202208097327-6832-60             MAIN FUSE                CCN000002400000002400FN00000000020220901000002400NNM   20220707122229    4N0N  00000060000000729200000930732W2    HNHNY   005400370024
BI00B32W2    HN22094WMW     202208237327-6832-60             MAIN FUSE                CCN000001800000001800FN00000000020220901000001800NNM   20220707122229    4N0N  00000060000000729200000930732W2    HNHNY   005400370024
BI00B32W2    HN22091WMW     202208027327-6870-30             MULTI FUSE               CCN000002880000002880FN00000000020220901000002880NNM   20220707122229    4N0N  00000028800001015200001181132W2    HNHNY   005400370024
BI00B32W2    HN22092WMW     202208097327-6870-30             MULTI FUSE               CCN000002016000002016FN00000000020220901000002016NNM   20220707122229    4N0N  00000028800001015200001181132W2    HNHNY   005400370024
BI00B32W2    HN22091WMW     202208027327-6880-30             MULTI FUSE               CCN000002880000002880FN00000000020220901000002880NNM   20220707122229    4N0N  00000028800001012600001178532W2    HNHNY   005400370024
BI00B32W2    HN22092WMW     202208097327-6880-30             MULTI FUSE               CCN000002016000002016FN00000000020220901000002016NNM   20220707122229    4N0N  00000028800001012600001178532W2    HNHNY   005400370024
BI00B32W2    HN22091WMW     202208027327-6884-30             MULTI FUSE               CCN000004896000004896FN00000000020220901000004896NNM   20220707122229    4N0N  00000028800000988900001154832W2    HNHNY   005400370024
BI00B32W2    HN22092WMW     202208097327-6884-30             MULTI FUSE               CCN000004896000004896FN00000000020220901000004896NNM   20220707122229    4N0N  00000028800000988900001154832W2    HNHNY   005400370024
BI00B32W2    HN22091WMW     202208027388-0313-30             CONNECTOR ASS'Y          CCN000006000000006000FN00000000020220901000006000NNM   20220707122229    4N0N  00000120000000995000001125032W2    HNHNY   005400370024
BI00B32W2    HN22092WMW     202208097388-0313-30             CONNECTOR ASS'Y          CCN000006000000006000FN00000000020220901000006000NNM   20220707122229    4N0N  00000120000000995000001125032W2    HNHNY   005400370024
BI00B32W2    HN22094WMW     202208237388-0313-30             CONNECTOR ASS'Y          CCN000007200000007200FN00000000020220901000007200NNM   20220707122229    4N0N  00000120000000995000001125032W2    HNHNY   005400370024
BI00B32W2    HN22091WMW     202208027388-0315-40             CONNECTOR ASS'Y          CCN000004800000004800FN00000000020220901000004800NNM   20220707122229    4N0N  00000120000000999600001129632W2    HNHNY   005400370024
BI00B32W2    HN22092WMW     202208097388-0315-40             CONNECTOR ASS'Y          CCN000003600000003600FN00000000020220901000003600NNM   20220707122229    4N0N  00000120000000999600001129632W2    HNHNY   005400370024
BI00B32W2    HN22093WMW     202208167388-0315-40             CONNECTOR ASS'Y          CCN000001200000001200FN00000000020220901000001200NNM   20220707122229    4N0N  00000120000000999600001129632W2    HNHNY   005400370024
BI00B32W2    HN22094WMW     202208237388-0315-40             CONNECTOR ASS'Y          CCN000004800000004800FN00000000020220901000004800NNM   20220707122229    4N0N  00000120000000999600001129632W2    HNHNY   005400370024
BI00B32W2    HN22091WMW     202208027388-0317-60             CONNECTOR ASS'Y          CCN000002400000002400FN00000000020220901000002400NNM   20220707122229    4N0N  00000120000001034400001129332W2    HNHNY   005400370024
BI00B32W2    HN22092WMW     202208097388-0317-60             CONNECTOR ASS'Y          CCN000002400000002400FN00000000020220901000002400NNM   20220707122229    4N0N  00000120000001034400001129332W2    HNHNY   005400370024
BI00B32W2    HN22093WMW     202208167388-0317-60             CONNECTOR ASS'Y          CCN000003600000003600FN00000000020220901000003600NNM   20220707122229    4N0N  00000120000001034400001129332W2    HNHNY   005400370024
BI00B32W2    HN22094WMW     202208237388-0317-60             CONNECTOR ASS'Y          CCN000003600000003600FN00000000020220901000003600NNM   20220707122229    4N0N  00000120000001034400001129332W2    HNHNY   005400370024
BI00B32W2    #HN22091WMW    202208027198-1371-60             HOUSING FEMALE           CCN000002000000002000FN00000000020220901000002000NNM   20220707122229    2F0F  00000200000000597800000721232W2    HNHNY   005400370024
BI00B32W2    #HN22092WMW    202208097198-1371-60             HOUSING FEMALE           CCN000002000000002000FN00000000020220901000002000NNM   20220707122229    2F0F  00000200000000597800000721232W2    HNHNY   005400370024
BI00B32W2    #HN22093WMW    202208167198-1371-60             HOUSING FEMALE           CCN000002000000002000FN00000000020220901000002000NNM   20220707122229    2F0F  00000200000000597800000721232W2    HNHNY   005400370024
BI00B32W2    #HN22094WMW    202208237198-1371-60             HOUSING FEMALE           CCN000002000000002000FN00000000020220901000002000NNM   20220707122229    2F0F  00000200000000597800000721232W2    HNHNY   005400370024
BI00B32W2    #HN22091WMW    202208027198-1372                HOUSING FEMALE           CCN000002000000002000FN00000000020220901000002000NNM   20220707122229    2F0F  00000200000000857200000982232W2    HNHNY   005400370024
BI00B32W2    #HN22092WMW    202208097198-1372                HOUSING FEMALE           CCN000002000000002000FN00000000020220901000002000NNM   20220707122229    2F0F  00000200000000857200000982232W2    HNHNY   005400370024
BI00B32W2    #HN22093WMW    202208167198-1372                HOUSING FEMALE           CCN000002000000002000FN00000000020220901000002000NNM   20220707122229    2F0F  00000200000000857200000982232W2    HNHNY   005400370024
BI00B32W2    #HN22094WMW    202208237198-1372                HOUSING FEMALE           CCN000002000000002000FN00000000020220901000002000NNM   20220707122229    2F0F  00000200000000857200000982232W2    HNHNY   005400370024
BI00B32W2    #HN22091WMW    202208027198-1373-60             HOUSING FEMALE           CCN000002000000002000FN00000000020220901000002000NNM   20220707122229    2F0F  00000200000000819400000947432W2    HNHNY   005400370024
BI00B32W2    #HN22092WMW    202208097198-1373-60             HOUSING FEMALE           CCN000002000000002000FN00000000020220901000002000NNM   20220707122229    2F0F  00000200000000819400000947432W2    HNHNY   005400370024
BI00B32W2    #HN22093WMW    202208167198-1373-60             HOUSING FEMALE           CCN000002000000002000FN00000000020220901000002000NNM   20220707122229    2F0F  00000200000000819400000947432W2    HNHNY   005400370024
BI00B32W2    #HN22094WMW    202208237198-1373-60             HOUSING FEMALE           CCN000002000000002000FN00000000020220901000002000NNM   20220707122229    2F0F  00000200000000819400000947432W2    HNHNY   005400370024
BI00B32W2    #HN22091WMW    202208027198-2458                HOUSING FEMALE           CCN000001760000001760FN00000000020220901000001760NNM   20220707122229    2F0F  00000176000000869100001160532W2    HNHNY   005400370024
BI00B32W2    #HN22092WMW    202208097198-2458                HOUSING FEMALE           CCN000001760000001760FN00000000020220901000001760NNM   20220707122229    2F0F  00000176000000869100001160532W2    HNHNY   005400370024
BI00B32W2    #HN22093WMW    202208167198-2458                HOUSING FEMALE           CCN000001760000001760FN00000000020220901000001760NNM   20220707122229    2F0F  00000176000000869100001160532W2    HNHNY   005400370024
BI00B32W2    #HN22094WMW    202208237198-2458                HOUSING FEMALE           CCN000001760000001760FN00000000020220901000001760NNM   20220707122229    2F0F  00000176000000869100001160532W2    HNHNY   005400370024
BI00B32W2    #HN22091WMW    202208027298-2459-60             LIF FEMALE ASSEMBLY      CCN000001680000001680FN00000000020220901000001680NNM   20220707122229    2N0N  00000016800000534000000729632W2    HNHNY   005400370024
BI00B32W2    #HN22092WMW    202208097298-2459-60             LIF FEMALE ASSEMBLY      CCN000001680000001680FN00000000020220901000001680NNM   20220707122229    2N0N  00000016800000534000000729632W2    HNHNY   005400370024
BI00B32W2    #HN22093WMW    202208167298-2459-60             LIF FEMALE ASSEMBLY      CCN000001680000001680FN00000000020220901000001680NNM   20220707122229    2N0N  00000016800000534000000729632W2    HNHNY   005400370024
BI00B32W2    #HN22094WMW    202208237298-2459-60             LIF FEMALE ASSEMBLY      CCN000001344000001344FN00000000020220901000001344NNM   20220707122229    2N0N  00000016800000534000000729632W2    HNHNY   005400370024
BI00B32W4    4500196366     202209087116-4100-02             TERMINAL                 CCN000225000000225000FN00000000020220901000225000NNE   20220707122229W4664P0P  00001500000000696000000990232W466  HJYHK   006400630015
BI00B32W4    4500196366     202209087116-4111-02             TERMINAL                 CCN000015000000015000FN00000000020220901000015000NNE   20220707122229W4664P0P  00000750000000529500000817732W466  HJYHK   006400630015
BI00B32W4    4500196366     202209087116-4112-02             TERMINAL                 CCN000084000000084000FN00000000020220901000084000NNE   20220707122229W4664P0P  00000600000000450000000738232W466  HJYHK   006400630015
BI00B32W4    4500196366     202209087116-4102-02             TERMINAL                 CCN000036000000036000FN00000000020220901000036000NNE   20220707122229W4664P0P  00001200000000553200000841432W466  HJYHK   006400630015
BI00B32W4    4500196366     202209087116-4025                TERMINAL                 CCN000016000000016000FN00000000020220901000016000NNE   20220707122229W4664P0P  00001600000000644800000975132W466  HJYHK   006400630017
BI00B32W4    4500196366     202209087114-4100-02             TERMINAL                 CCN000216000000216000FN00000000020220901000216000NNE   20220707122229W4664P0P  00001800000000748800001077432W466  HJYHK   006400630017
BI00B32W4    4500196366     202209087116-5045-02             TERMINAL                 CCN000016000000016000FN00000000020220901000016000NNE   20220707122229W4664P0P  00001600000000678400001007132W466  HJYHK   006400630017
BI00B32W4    4500196366     202209087283-5548-30             CONNECTOR                CCN000004500000004500FN00000000020220901000004500NNE   20220707122229W4664N0N  00000150000001109000001302032W466  HJYHK   005600390040
BI00B32W4    4500196366     202209087116-4101-02             TERMINAL                 CCN000096000000096000FN00000000020220901000096000NNE   20220707122229W4664P0P  00001200000000582000000876232W466  HJYHK   006400630015
BI00B32W4    4500196366     202209087114-4101-02             TERMINAL                 CCN000075000000075000FN00000000020220901000075000NNE   20220707122229W4664P0P  00001500000000675000001003632W466  HJYHK   006400630017
BI00B32W4    4500196366     202209087116-4104-02             TERMINAL                 CCN000084000000084000FN00000000020220901000084000NNE   20220707122229W4664P0P  00001200000000580800000972432W466  HJYHK   006400630015
BI00B32W4    4500196366     202209087114-4110-02             TERMINAL                 CCN000015000000015000FN00000000020220901000015000NNE   20220707122229W4664P0P  00001500000000901500001230132W466  HJYHK   006400630017
BI00B32W4    4500196366     202209087116-4103-02             TERMINAL                 CCN000012000000012000FN00000000020220901000012000NNE   20220707122229W4664P0P  00001200000000571200000859432W466  HJYHK   006400630015
BI00B32W4    #4500196366    202209087282-4190-30             CONNECTOR                CCN000007200000007200FN00000000020220901000007200NNE   20220707122229W4662N0N  00000024000000801000001071332W466  HJYHK   005600390040
BI00B32W4    #4500196366    202209087283-4190-30             CONNECTOR                CCN000006000000006000FN00000000020220901000006000NNE   20220707122229W4662N0N  00000024000000846000001115532W466  HJYHK   005600390040
BI00B32W4    4500196376     202209087116-4100-02             TERMINAL                 CCN000150000000150000FN00000000020220901000150000NNE   20220707122229W4654P0P  00001500000000696000000990232W465  HJYHK   006400630015
BI00B32W4    4500196376     202209087116-4111-02             TERMINAL                 CCN000052500000052500FN00000000020220901000052500NNE   20220707122229W4654P0P  00000750000000529500000817732W465  HJYHK   006400630015
BI00B32W4    4500196376     202209087116-4112-02             TERMINAL                 CCN000156000000156000FN00000000020220901000156000NNE   20220707122229W4654P0P  00000600000000450000000738232W465  HJYHK   006400630015
BI00B32W4    4500196376     202209087116-4102-02             TERMINAL                 CCN000228000000228000FN00000000020220901000228000NNE   20220707122229W4654P0P  00001200000000553200000841432W465  HJYHK   006400630015
BI00B32W4    4500196376     202209087116-4025                TERMINAL                 CCN000016000000016000FN00000000020220901000016000NNE   20220707122229W4654P0P  00001600000000644800000975132W465  HJYHK   006400630017
BI00B32W4    4500196376     202209087114-4111-02             TERMINAL                 CCN000072000000072000FN00000000020220901000072000NNE   20220707122229W4654P0P  00001200000000758400001087032W465  HJYHK   006400630017
BI00B32W4    4500196376     202209087116-4101-02             TERMINAL                 CCN000084000000084000FN00000000020220901000084000NNE   20220707122229W4654P0P  00001200000000582000000876232W465  HJYHK   006400630015
BI00B32W4    4500196376     202209087116-4104-02             TERMINAL                 CCN000012000000012000FN00000000020220901000012000NNE   20220707122229W4654P0P  00001200000000580800000972432W465  HJYHK   006400630015
BI00B32W4    4500196376     202209087114-4110-02             TERMINAL                 CCN000030000000030000FN00000000020220901000030000NNE   20220707122229W4654P0P  00001500000000901500001230132W465  HJYHK   006400630017
BI00B32W4    4500196376     202209087116-4110-02             TERMINAL                 CCN000126000000126000FN00000000020220901000126000NNE   20220707122229W4654P0P  00000900000000594000000882232W465  HJYHK   006400630015
BI00B32W4    4500196376     202209087116-4103-02             TERMINAL                 CCN000096000000096000FN00000000020220901000096000NNE   20220707122229W4654P0P  00001200000000571200000859432W465  HJYHK   006400630015
BI00B32W4    4500196376     202209087283-6568-40             CONNECTOR                CCN000002000000002000FN00000000020220901000002000NNE   20220707122229W4654N0N  00000200000001090000001263032W465  HJYHK   005500360039
BI00B32W4    4500196376     202209087196-1461-06             TERMINAL FEMALE          CCN000024000000024000FN00000000020220901000024000NNE   20220707122229W4654P0P  00002400000000386400000692932W465  HJYHK   006400630015
BI00B32W4    4500196376     202209087283-1030                CONNECTOR                CCN000024000000024000FN00000000020220901000024000NNE   20220707122229W4654N0N  00000600000000988000001172032W465  HJYHK   005500360039
BI00B32W4    #4500196376    202209087282-6458-40             CONNECTOR                CCN000001000000001000FN00000000020220901000001000NNE   20220707122229W4652N0N  00000100000001206000001350532W465  HJYHK   005500360039
BI00A32W4    4500196421     202209057116-4100-02             TERMINAL                 CCN000015000000015000FN00000000020220901000015000NNE   20220707122229W4O24P0P  00001500000000696000000990232W4O2  HJYHK-J 006400630015
BI00A32W4    4500196421     202209057116-4112-02             TERMINAL                 CCN000018000000018000FN00000000020220901000018000NNE   20220707122229W4O24P0P  00000600000000450000000738232W4O2  HJYHK-J 006400630015
BI00A32W4    4500196421     202209057116-4102-02             TERMINAL                 CCN000060000000060000FN00000000020220901000060000NNE   20220707122229W4O24P0P  00001200000000553200000841432W4O2  HJYHK-J 006400630015
BI00A32W4    4500196421     202209057158-3166-60             WIRE SEAL                CCN000040000000040000FN00000000020220901000040000NNE   20220707122229W4O21C0C  00004000000000104000000152432W4O2  HJYHK-J 002700430014
BI00A32W4    4500196421     202209057158-3167-80             WIRE SEAL                CCN000020000000020000FN00000000020220901000020000NNE   20220707122229W4O21C0C  00002000000000048000000109032W4O2  HJYHK-J 002700430014
BI00A32W4    4500196421     202209057116-4101-02             TERMINAL                 CCN000012000000012000FN00000000020220901000012000NNE   20220707122229W4O24P0P  00001200000000582000000876232W4O2  HJYHK-J 006400630015
BI00A32W4    4500196421     202209057157-6240-30             REAR HOLDER              CCN000005000000005000FN00000000020220901000005000NNE   20220707122229W4O21F0F  00000500000000545000000716032W4O2  HJYHK-J 005500360039
BI00A32W4    4500196421     202209057116-4110-02             TERMINAL                 CCN000018000000018000FN00000000020220901000018000NNE   20220707122229W4O24P0P  00000900000000594000000882232W4O2  HJYHK-J 006400630015
BI00A32W4    4500196421     202209057116-4103-02             TERMINAL                 CCN000024000000024000FN00000000020220901000024000NNE   20220707122229W4O24P0P  00001200000000571200000859432W4O2  HJYHK-J 006400630015
BI00A32W4    4500196421     202209057282-5574-10             CONNECTOR                CCN000001600000001600FN00000000020220901000001600NNE   20220707122229W4O24N0N  00000080000001235000001423032W4O2  HJYHK-J 005600390040
BI00B32W4    4500196372     202208187116-4100-02             TERMINAL                 CCN000015000000015000FN00000000020220801000015000NNE   20220707122229W4N24P0P  00001500000000696000000990232W4N2  HJYHK-J 006400630015
BI00B32W4    4500196372     202208187116-4112-02             TERMINAL                 CCN000018000000018000FN00000000020220801000018000NNE   20220707122229W4N24P0P  00000600000000450000000738232W4N2  HJYHK-J 006400630015
BI00B32W4    4500196372     202208187116-4102-02             TERMINAL                 CCN000084000000084000FN00000000020220801000084000NNE   20220707122229W4N24P0P  00001200000000553200000841432W4N2  HJYHK-J 006400630015
BI00B32W4    4500196372     202208187114-4100-02             TERMINAL                 CCN000036000000036000FN00000000020220801000036000NNE   20220707122229W4N24P0P  00001800000000748800001077432W4N2  HJYHK-J 006400630017
BI00B32W4    4500196372     202208187114-4111-02             TERMINAL                 CCN000024000000024000FN00000000020220801000024000NNE   20220707122229W4N24P0P  00001200000000758400001087032W4N2  HJYHK-J 006400630017
BI00B32W4    4500196372     202208187116-4103-02             TERMINAL                 CCN000012000000012000FN00000000020220801000012000NNE   20220707122229W4N24P0P  00001200000000571200000859432W4N2  HJYHK-J 006400630015
BI00B32W4    4500196370     202209087282-4855                HOUSING MALE ASS'Y       CCN000002400000002400FN00000000020220901000002400NNE   20220707122229W4L64N0N  00000120000001063200001283232W4L6  HJYHK-K 005500360039
BI00B32W4    4500196370     202209087114-6041                TERMINAL                 CCN000021600000021600FN00000000020220901000021600NNE   20220707122229W4L64P0P  00000360000000580700000824232W4L6  HJYHK-K 006400630015
BI00B32W4    4500196370     202209087283-1156                CONNECTOR                CCN000007200000007200FN00000000020220901000007200NNE   20220707122229W4L64N0N  00000080000000877600001078032W4L6  HJYHK-K 005600390040
BI00B32W4    @4500196370    202209087287-6634                HOUSING FEMALE ASS'Y     CCN000007200000007200FN00000000020220901000007200NNE   20220707122229W4L63N0N  00000240000001088400001337032W4L6  HJYHK-K 005500360039
BI00A32W4    4500196413     202209057116-4022                TERMINAL                 CCN000040500000040500FN00000000020220901000040500NNE   20220707122229W4494P0P  00001350000000618300000903532W449  HJYHK   006400630015
BI00A32W4    #4500196413    202209057183-2414                CONNECTOR HOUSING        CCN000009600000009600FN00000000020220901000009600NNE   20220707122229W4492F0F  00000480000000779200001061032W449  HJYHK   005500360039
BI00A32W4    @4500196413    202209057183-8049                CONNECTOR HOUSING        CCN000004000000004000FN00000000020220901000004000NNE   20220707122229W4493F0F  00000400000000583600000740032W449  HJYHK   005400370024
BI00B32W4    4500196374     202208257116-4104-02             TERMINAL                 CCN000012000000012000FN00000000020220801000012000NNE   20220707122229W4N24P0P  00001200000000580800000972432W4N2  HJYHK-J 006400630015
BI00B32W4    4500196374     202208257114-4101-02             TERMINAL                 CCN000015000000015000FN00000000020220801000015000NNE   20220707122229W4N24P0P  00001500000000675000001003632W4N2  HJYHK-J 006400630017
BI00A32W4    4500196411     202209267116-4780-02             TERMINAL FEMALE          CCN000015000000015000FN00000000020220901000015000NNE   20220707122229W4494P0P  00001500000000691500000985732W449  HJYHK   006400630015
BI00A32W4    4500196411     202209267116-4110-02             TERMINAL                 CCN000009000000009000FN00000000020220901000009000NNE   20220707122229W4494P0P  00000900000000594000000882232W449  HJYHK   006400630015
BI00A32W4    4500196409     202209127116-4111-02             TERMINAL                 CCN000007500000007500FN00000000020220901000007500NNE   20220707122229W4494P0P  00000750000000529500000817732W449  HJYHK   006400630015
BI00A32W4    4500196409     202209127116-4025                TERMINAL                 CCN000016000000016000FN00000000020220901000016000NNE   20220707122229W4494P0P  00001600000000644800000975132W449  HJYHK   006400630017
BI00A32W4    4500196400     202210037116-4100-02             TERMINAL                 CCN000030000000030000FN00000000020221001000030000NNE   20220707122229W4494P0P  00001500000000696000000990232W449  HJYHK   006400630015
BI00A32W4    @4500196391    202208227183-8049                CONNECTOR HOUSING        CCN000004000000004000FN00000000020220801000004000NNE   20220707122229W4493F0F  00000400000000583600000740032W449  HJYHK   005400370024
BI00A32W4    4500196392     202208227116-4022                TERMINAL                 CCN000081000000081000FN00000000020220801000081000NNE   20220707122229W4494P0P  00001350000000618300000903532W449  HJYHK   006400630015
BI00B32W4    #4500196377    202209227289-4104-40             HOUSING FEMALE ASS'Y     CCN000013500000013500FN00000000020220901000013500NNE   20220707122229W4652NON  00000050000000606900000821132W465  HJYHK   005400370024
BI00A32W4    #4500196359    202209237157-3821                RUBBER STOPPER           CCN000040000000040000FN00000000020220901000040000NNE   20220707122229W43 2C0C  00002000000000176000000238032W43   HJYHK   002700430014
BI00B32Y4    ITA32111       202208047158-3166-60             WIRE SEAL                CCN000920000000920000FN00000000020221101000920000NNE   20220707122229    1C0C  00004000000000104000000152432Y4    BIYAB-I 002700430014
BI00B32Y4    ITA32111       202208047158-3167-80             WIRE SEAL                CCN000880000000880000FN00000000020221101000880000NNE   20220707122229    1C0C  00002000000000048000000109032Y4    BIYAB-I 002700430014
BI00B32Y4    ITA32111       202208047158-3168-80             SEALED                   CCN000240000000240000FN00000000020221101000240000NNE   20220707122229    1C0C  00002000000000044000000092132Y4    BIYAB-I 004300260014
BI00B32Y4    ITA32111       202208047158-3169-40             SEALING PLUG             CCN000200000000200000FN00000000020221101000200000NNE   20220707122229    1C0C  00004000000000156000000204132Y4    BIYAB-I 004300260014
BI00B32Y4    ITA32111       202208047196-1461-06             TERMINAL FEMALE          CCN000024000000024000FN00000000020221101000024000NNE   20220707122229    4P0P  00002400000000386400000692932Y4    BIYAB-I 006400630015
BI00B32Y4    ITA32111       202208047289-4696-30             HOUSING FEMALE ASS'Y     CCN000026000000026000FN00000000020221101000026000NNE   20220707122229    4N0N  00000200000000913400001055432Y4    BIYAB-I 005400370024
BI00B32Y4    ITA32111       202208047327-6654-3W             BATTERY FUSE             CCN000009050000009120FN00000000020221101000009120NNE   20220707122229    4N0N  00000009600001132300001312432Y4    BIYAB-I 005500360039
BI00B32Y4    #ITA32111      202208047183-7725-40             HOUSING                  CCN000018000000018000FN00000000020221101000018000NNE   20220707122229    2F0F  00000600000000840000001040032Y4    BIYAB-I 005600390040
