BI00B32CH    SJ22092 MW     2022081118007703930              AVSS 0.5F B              CCN000009000000009000FN00000000020220901000009000NNM   20220707143842    1W    00000150000000674000000000032CH    SJSAMIJF000000000000QX427004
BI00B32CH    SJ22093 MW     2022081818007703930              AVSS 0.5F B              CCN000013500000013500FN00000000020220901000013500NNM   20220707143842    1W    00000150000000674000000000032CH    SJSAMIJF000000000000QX128006
BI00B32CH    SJ22094 MW     2022082518007703930              AVSS 0.5F B              CCN000016500000016500FN00000000020220901000016500NNM   20220707143842    1W    00000150000000674000000000032CH    SJSAMIJF000000000000QX228006
BI00B32CH    SJ22092 MW     2022081118007703941              AVSS 0.5F GY             CCN000001500000001500FN00000000020220901000001500NNM   20220707143842    1W    00000150000000674000000000032CH    SJSAMIJF000000000000QX427005
BI00B32CH    SJ22094 MW     2022082518007703941              AVSS 0.5F GY             CCN000001500000001500FN00000000020220901000001500NNM   20220707143842    1W    00000150000000674000000000032CH    SJSAMIJF000000000000QX228007
BI00B32CH    @SJ22091 MW    20220804181E50011ZZ              AVSSCS-S 0.5FX2 DGY/Y    CCN000003900000003900FN00000000020220901000003900NNM   20220707143839    1W    00000030000003096000000000032CH    SJSAMIJF000000000000QX327001
BI00B32CH    @SJ22092 MW    20220811181E50011ZZ              AVSSCS-S 0.5FX2 DGY/Y    CCN000002100000002100FN00000000020220901000002100NNM   20220707143839    1W    00000030000003096000000000032CH    SJSAMIJF000000000000QX427001
BI00B32CH    @SJ22093 MW    20220818181E50011ZZ              AVSSCS-S 0.5FX2 DGY/Y    CCN000002100000002100FN00000000020220901000002100NNM   20220707143839    1W    00000030000003096000000000032CH    SJSAMIJF000000000000QX128001
BI00B32CH    @SJ22094 MW    20220825181E50011ZZ              AVSSCS-S 0.5FX2 DGY/Y    CCN000001800000001800FN00000000020220901000001800NNM   20220707143839    1W    00000030000003096000000000032CH    SJSAMIJF000000000000QX228001
BI00B32CH    @SJ22092 MW    20220811181F21009ZZ              AVSSHCS-S 0.5FX2 B       CCN000029700000029700FN00000000020220901000029700NNM   20220707143839    1W    00000030000002531400000000032CH    SJSAMIJF000000000000QX427002
BI00B32CH    @SJ22093 MW    20220818181F21009ZZ              AVSSHCS-S 0.5FX2 B       CCN000029100000029100FN00000000020220901000029100NNM   20220707143839    1W    00000030000002531400000000032CH    SJSAMIJF000000000000QX128002
BI00B32CH    @SJ22094 MW    20220825181F21009ZZ              AVSSHCS-S 0.5FX2 B       CCN000029100000029100FN00000000020220901000029100NNM   20220707143839    1W    00000030000002531400000000032CH    SJSAMIJF000000000000QX228002
BI00B32CH    @SJ22091DMW    20220804181B32037Z5              AVSSCS 0.3FX1 DGY/L      CCN000001500000001500FN00000000020220901000001500NNM   20220707143840    1W    00000050000001780000000000032CH    SJSAMIJF000000000000QY327001
BI00B32CH    @SJ22092DMW    20220811181B32037Z5              AVSSCS 0.3FX1 DGY/L      CCN000004500000004500FN00000000020220901000004500NNM   20220707143840    1W    00000050000001780000000000032CH    SJSAMIJF000000000000QY427001
BI00B32CH    @SJ22093DMW    20220818181B32037Z5              AVSSCS 0.3FX1 DGY/L      CCN000003500000003500FN00000000020220901000003500NNM   20220707143840    1W    00000050000001780000000000032CH    SJSAMIJF000000000000QY128001
BI00B32CH    @SJ22094DMW    20220825181B32037Z5              AVSSCS 0.3FX1 DGY/L      CCN000004000000004000FN00000000020220901000004000NNM   20220707143840    1W    00000050000001780000000000032CH    SJSAMIJF000000000000QY228001
BI00B32CH    SJ22092HMW     2022081118007704030              AVSS 0.75F B             CCN000001000000001000FN00000000020220901000001000NNM   20220707143844    1W    00000100000000943000000000032CH    SJSAMIJF000000000000QW427001
BI00B32CH    SJ22093HMW     2022081818007704030              AVSS 0.75F B             CCN000001000000001000FN00000000020220901000001000NNM   20220707143844    1W    00000100000000943000000000032CH    SJSAMIJF000000000000QW128001
BI00B32CH    SJ22094HMW     2022082518007704030              AVSS 0.75F B             CCN000001000000001000FN00000000020220901000001000NNM   20220707143844    1W    00000100000000943000000000032CH    SJSAMIJF000000000000QW228001
BI00B32CH    SJ22092HMW     2022081118007704130              AVSS 1.25F B             CCN000004000000004000FN00000000020220901000004000NNM   20220707143844    1W    00000080000001389000000000032CH    SJSAMIJF000000000000QW427002
BI00B32CH    SJ22093HMW     2022081818007704130              AVSS 1.25F B             CCN000002400000002400FN00000000020220901000002400NNM   20220707143844    1W    00000080000001389000000000032CH    SJSAMIJF000000000000QW128002
BI00B32CH    SJ22094HMW     2022082518007704130              AVSS 1.25F B             CCN000004000000004000FN00000000020220901000004000NNM   20220707143844    1W    00000080000001389000000000032CH    SJSAMIJF000000000000QW228002
BI00B32CH    @SJ22091MMW    20220804181E48022ZZ              CAVSAS-S 0.5X2 GY        CCN000001500000001500FN00000000020220901000001500NNM   20220707143841    1W    00000030000002561000000000032CH    SJSAMIJF000000000000QZ327001
BI00B32CH    @SJ22092MMW    20220811181E48022ZZ              CAVSAS-S 0.5X2 GY        CCN000000600000000600FN00000000020220901000000600NNM   20220707143841    1W    00000030000002561000000000032CH    SJSAMIJF000000000000QZ427001
BI00B32CH    @SJ22093MMW    20220818181E48022ZZ              CAVSAS-S 0.5X2 GY        CCN000000300000000300FN00000000020220901000000300NNM   20220707143841    1W    00000030000002561000000000032CH    SJSAMIJF000000000000QZ128001
BI00B32CH    @SJ22094MMW    20220825181E48022ZZ              CAVSAS-S 0.5X2 GY        CCN000000600000000600FN00000000020220901000000600NNM   20220707143841    1W    00000030000002561000000000032CH    SJSAMIJF000000000000QZ228001
BI00B32CH    @SJ22091MMW    20220804181E48062ZZ              CAVSAS-S 0.5X2 GY/BR     CCN000000900000000900FN00000000020220901000000900NNM   20220707143841    1W    00000030000002561000000000032CH    SJSAMIJF000000000000QZ327002
BI00B32CH    @SJ22092MMW    20220811181E48062ZZ              CAVSAS-S 0.5X2 GY/BR     CCN000000300000000300FN00000000020220901000000300NNM   20220707143841    1W    00000030000002561000000000032CH    SJSAMIJF000000000000QZ427002
BI00B32CH    @SJ22093MMW    20220818181E48062ZZ              CAVSAS-S 0.5X2 GY/BR     CCN000000300000000300FN00000000020220901000000300NNM   20220707143841    1W    00000030000002561000000000032CH    SJSAMIJF000000000000QZ128002
BI00B32CH    @SJ22094MMW    20220825181E48062ZZ              CAVSAS-S 0.5X2 GY/BR     CCN000000600000000600FN00000000020220901000000600NNM   20220707143841    1W    00000030000002561000000000032CH    SJSAMIJF000000000000QZ228002
BI00B32CH    @SJ22092SMW    20220811181E48011ZZ              CAVSAS-S 0.3X1 GY/W      CCN000014500000014500FN00000000020220901000014500NNM   20220707143841    1W    00000050000001529500000000032CH    SJSAMIJF000000000000QS427001
BI00B32CH    @SJ22093SMW    20220818181E48011ZZ              CAVSAS-S 0.3X1 GY/W      CCN000013500000013500FN00000000020220901000013500NNM   20220707143841    1W    00000050000001529500000000032CH    SJSAMIJF000000000000QS128001
BI00B32CH    @SJ22094SMW    20220825181E48011ZZ              CAVSAS-S 0.3X1 GY/W      CCN000013500000013500FN00000000020220901000013500NNM   20220707143841    1W    00000050000001529500000000032CH    SJSAMIJF000000000000QS228001
BI00B32DG    @RH2091        20220804181E48048ZZ              CAVSAS-S 0.3X2 GY/O      CCN000005600000005600FN00000000020220901000005600NNM   20220707094705    1W    00000035000002008700000000032DG    BFSAIBF 000000000000GY327001
BI00B32DG    @RH2092        20220811181E48048ZZ              CAVSAS-S 0.3X2 GY/O      CCN000005600000005600FN00000000020220901000005600NNM   20220707094705    1W    00000035000002008700000000032DG    BFSAIBF 000000000000GY427001
BI00B32DG    @RH2093        20220818181E48048ZZ              CAVSAS-S 0.3X2 GY/O      CCN000005600000005600FN00000000020220901000005600NNM   20220707094705    1W    00000035000002008700000000032DG    BFSAIBF 000000000000GY128001
BI00B32DG    @RH2094        20220825181E48048ZZ              CAVSAS-S 0.3X2 GY/O      CCN000004900000004900FN00000000020220901000004900NNM   20220707094705    1W    00000035000002008700000000032DG    BFSAIBF 000000000000GY228001
BI00B32DG    @RH2091        20220804181E50016ZZ              AVSSCS-S 0.5FX2 DGY/R    CCN000000900000000900FN00000000020220901000000900NNM   20220707094705    1W    00000030000003096000000000032DG    BFSAIBF 000000000000GY327002
BI00B32DG    @RH2092        20220811181E50016ZZ              AVSSCS-S 0.5FX2 DGY/R    CCN000000900000000900FN00000000020220901000000900NNM   20220707094705    1W    00000030000003096000000000032DG    BFSAIBF 000000000000GY427002
BI00B32DG    @RH2093        20220818181E50016ZZ              AVSSCS-S 0.5FX2 DGY/R    CCN000000900000000900FN00000000020220901000000900NNM   20220707094705    1W    00000030000003096000000000032DG    BFSAIBF 000000000000GY128002
BI00B32DG    @RH2094        20220825181E50016ZZ              AVSSCS-S 0.5FX2 DGY/R    CCN000000300000000300FN00000000020220901000000300NNM   20220707094705    1W    00000030000003096000000000032DG    BFSAIBF 000000000000GY228002
BI00B32DG    @RH2091        20220804181E50011ZZ              AVSSCS-S 0.5FX2 DGY/Y    CCN000003000000003000FN00000000020220901000003000NNM   20220707094705    1W    00000030000003096000000000032DG    BFSAIBF 000000000000GY327003
BI00B32DG    @RH2092        20220811181E50011ZZ              AVSSCS-S 0.5FX2 DGY/Y    CCN000003000000003000FN00000000020220901000003000NNM   20220707094705    1W    00000030000003096000000000032DG    BFSAIBF 000000000000GY427003
BI00B32DG    @RH2093        20220818181E50011ZZ              AVSSCS-S 0.5FX2 DGY/Y    CCN000003000000003000FN00000000020220901000003000NNM   20220707094705    1W    00000030000003096000000000032DG    BFSAIBF 000000000000GY128003
BI00B32DG    @RH2094        20220825181E50011ZZ              AVSSCS-S 0.5FX2 DGY/Y    CCN000003000000003000FN00000000020220901000003000NNM   20220707094705    1W    00000030000003096000000000032DG    BFSAIBF 000000000000GY228003
BI00B32DG    RW2091         202208041801W006980              IVSSH 0.35F BR           CCN000012500000012500FN00000000020220901000012500NNM   20220707094707    1W    00000250000000452000000000032DG    BFSAIBF 000000000000GZ327027
BI00B32DG    RW2092         202208111801W006980              IVSSH 0.35F BR           CCN000012500000012500FN00000000020220901000012500NNM   20220707094707    1W    00000250000000452000000000032DG    BFSAIBF 000000000000GZ427023
BI00B32DG    RW2093         202208181801W006980              IVSSH 0.35F BR           CCN000012500000012500FN00000000020220901000012500NNM   20220707094707    1W    00000250000000452000000000032DG    BFSAIBF 000000000000GZ128021
BI00B32DG    RW2094         202208251801W006980              IVSSH 0.35F BR           CCN000005000000005000FN00000000020220901000005000NNM   20220707094707    1W    00000250000000452000000000032DG    BFSAIBF 000000000000GZ228015
BI00B32DG    RW2091         202208041801W006960              IVSSH 0.35F G            CCN000015000000015000FN00000000020220901000015000NNM   20220707094707    1W    00000250000000452000000000032DG    BFSAIBF 000000000000GZ327028
BI00B32DG    RW2092         202208111801W006960              IVSSH 0.35F G            CCN000015000000015000FN00000000020220901000015000NNM   20220707094707    1W    00000250000000452000000000032DG    BFSAIBF 000000000000GZ427024
BI00B32DG    RW2093         202208181801W006960              IVSSH 0.35F G            CCN000015000000015000FN00000000020220901000015000NNM   20220707094707    1W    00000250000000452000000000032DG    BFSAIBF 000000000000GZ128022
BI00B32DG    RW2094         202208251801W006960              IVSSH 0.35F G            CCN000015000000015000FN00000000020220901000015000NNM   20220707094707    1W    00000250000000452000000000032DG    BFSAIBF 000000000000GZ228016
BI00B32DG    RW2091         202208041801W006941              IVSSH 0.35F GY           CCN000015000000015000FN00000000020220901000015000NNM   20220707094707    1W    00000250000000452000000000032DG    BFSAIBF 000000000000GZ327029
BI00B32DG    RW2092         202208111801W006941              IVSSH 0.35F GY           CCN000015000000015000FN00000000020220901000015000NNM   20220707094707    1W    00000250000000452000000000032DG    BFSAIBF 000000000000GZ427025
BI00B32DG    RW2093         202208181801W006941              IVSSH 0.35F GY           CCN000015000000015000FN00000000020220901000015000NNM   20220707094707    1W    00000250000000452000000000032DG    BFSAIBF 000000000000GZ128023
BI00B32DG    RW2094         202208251801W006941              IVSSH 0.35F GY           CCN000010000000010000FN00000000020220901000010000NNM   20220707094707    1W    00000250000000452000000000032DG    BFSAIBF 000000000000GZ228017
BI00B32DG    RW2091         202208041801W006990              IVSSH 0.35F L            CCN000022500000022500FN00000000020220901000022500NNM   20220707094707    1W    00000250000000452000000000032DG    BFSAIBF 000000000000GZ327030
BI00B32DG    RW2092         202208111801W006990              IVSSH 0.35F L            CCN000022500000022500FN00000000020220901000022500NNM   20220707094707    1W    00000250000000452000000000032DG    BFSAIBF 000000000000GZ427026
BI00B32DG    RW2093         202208181801W006990              IVSSH 0.35F L            CCN000022500000022500FN00000000020220901000022500NNM   20220707094707    1W    00000250000000452000000000032DG    BFSAIBF 000000000000GZ128024
BI00B32DG    RW2094         202208251801W006990              IVSSH 0.35F L            CCN000022500000022500FN00000000020220901000022500NNM   20220707094707    1W    00000250000000452000000000032DG    BFSAIBF 000000000000GZ228018
BI00B32DG    RW2091         202208041801W006961              IVSSH 0.35F LG           CCN000012500000012500FN00000000020220901000012500NNM   20220707094707    1W    00000250000000452000000000032DG    BFSAIBF 000000000000GZ327031
BI00B32DG    RW2092         202208111801W006961              IVSSH 0.35F LG           CCN000012500000012500FN00000000020220901000012500NNM   20220707094707    1W    00000250000000452000000000032DG    BFSAIBF 000000000000GZ427027
BI00B32DG    RW2093         202208181801W006961              IVSSH 0.35F LG           CCN000012500000012500FN00000000020220901000012500NNM   20220707094707    1W    00000250000000452000000000032DG    BFSAIBF 000000000000GZ128025
BI00B32DG    RW2094         202208251801W006961              IVSSH 0.35F LG           CCN000007500000007500FN00000000020220901000007500NNM   20220707094707    1W    00000250000000452000000000032DG    BFSAIBF 000000000000GZ228019
BI00B32DG    RW2091         202208041801W006952              IVSSH 0.35F P            CCN000015000000015000FN00000000020220901000015000NNM   20220707094707    1W    00000250000000452000000000032DG    BFSAIBF 000000000000GZ327032
BI00B32DG    RW2092         202208111801W006952              IVSSH 0.35F P            CCN000015000000015000FN00000000020220901000015000NNM   20220707094707    1W    00000250000000452000000000032DG    BFSAIBF 000000000000GZ427028
BI00B32DG    RW2093         202208181801W006952              IVSSH 0.35F P            CCN000015000000015000FN00000000020220901000015000NNM   20220707094707    1W    00000250000000452000000000032DG    BFSAIBF 000000000000GZ128026
BI00B32DG    RW2094         202208251801W006952              IVSSH 0.35F P            CCN000010000000010000FN00000000020220901000010000NNM   20220707094707    1W    00000250000000452000000000032DG    BFSAIBF 000000000000GZ228020
BI00B32DG    RW2091         202208041801W006950              IVSSH 0.35F R            CCN000020000000020000FN00000000020220901000020000NNM   20220707094707    1W    00000250000000452000000000032DG    BFSAIBF 000000000000GZ327033
BI00B32DG    RW2092         202208111801W006950              IVSSH 0.35F R            CCN000020000000020000FN00000000020220901000020000NNM   20220707094707    1W    00000250000000452000000000032DG    BFSAIBF 000000000000GZ427029
BI00B32DG    RW2093         202208181801W006950              IVSSH 0.35F R            CCN000020000000020000FN00000000020220901000020000NNM   20220707094707    1W    00000250000000452000000000032DG    BFSAIBF 000000000000GZ128027
BI00B32DG    RW2094         202208251801W006950              IVSSH 0.35F R            CCN000017500000017500FN00000000020220901000017500NNM   20220707094707    1W    00000250000000452000000000032DG    BFSAIBF 000000000000GZ228021
BI00B32DG    RW2091         202208041801W006991              IVSSH 0.35F SB           CCN000017500000017500FN00000000020220901000017500NNM   20220707094707    1W    00000250000000452000000000032DG    BFSAIBF 000000000000GZ327034
BI00B32DG    RW2092         202208111801W006991              IVSSH 0.35F SB           CCN000017500000017500FN00000000020220901000017500NNM   20220707094707    1W    00000250000000452000000000032DG    BFSAIBF 000000000000GZ427030
BI00B32DG    RW2093         202208181801W006991              IVSSH 0.35F SB           CCN000017500000017500FN00000000020220901000017500NNM   20220707094707    1W    00000250000000452000000000032DG    BFSAIBF 000000000000GZ128028
BI00B32DG    RW2094         202208251801W006991              IVSSH 0.35F SB           CCN000012500000012500FN00000000020220901000012500NNM   20220707094707    1W    00000250000000452000000000032DG    BFSAIBF 000000000000GZ228022
BI00B32DG    RW2091         202208041801W006992              IVSSH 0.35F V            CCN000022500000022500FN00000000020220901000022500NNM   20220707094707    1W    00000250000000452000000000032DG    BFSAIBF 000000000000GZ327035
BI00B32DG    RW2092         202208111801W006992              IVSSH 0.35F V            CCN000022500000022500FN00000000020220901000022500NNM   20220707094707    1W    00000250000000452000000000032DG    BFSAIBF 000000000000GZ427031
BI00B32DG    RW2093         202208181801W006992              IVSSH 0.35F V            CCN000022500000022500FN00000000020220901000022500NNM   20220707094707    1W    00000250000000452000000000032DG    BFSAIBF 000000000000GZ128029
BI00B32DG    RW2094         202208251801W006992              IVSSH 0.35F V            CCN000015000000015000FN00000000020220901000015000NNM   20220707094707    1W    00000250000000452000000000032DG    BFSAIBF 000000000000GZ228023
BI00B32DG    RW2091         202208041801W006970              IVSSH 0.35F Y            CCN000002500000002500FN00000000020220901000002500NNM   20220707094707    1W    00000250000000452000000000032DG    BFSAIBF 000000000000GZ327036
BI00B32DG    RW2092         202208111801W006970              IVSSH 0.35F Y            CCN000002500000002500FN00000000020220901000002500NNM   20220707094707    1W    00000250000000452000000000032DG    BFSAIBF 000000000000GZ427032
BI00B32DG    RW2093         202208181801W006970              IVSSH 0.35F Y            CCN000002500000002500FN00000000020220901000002500NNM   20220707094707    1W    00000250000000452000000000032DG    BFSAIBF 000000000000GZ128030
BI00B32DG    RW2094         202208251801W006970              IVSSH 0.35F Y            CCN000002500000002500FN00000000020220901000002500NNM   20220707094707    1W    00000250000000452000000000032DG    BFSAIBF 000000000000GZ228024
BI00B32DG    RW2091         202208041801W003960              IVSSH 0.5F G             CCN000016200000016200FN00000000020220901000016200NNM   20220707094707    1W    00000180000000625000000000032DG    BFSAIBF 000000000000GZ327017
BI00B32DG    RW2092         202208111801W003960              IVSSH 0.5F G             CCN000016200000016200FN00000000020220901000016200NNM   20220707094707    1W    00000180000000625000000000032DG    BFSAIBF 000000000000GZ427013
BI00B32DG    RW2093         202208181801W003960              IVSSH 0.5F G             CCN000016200000016200FN00000000020220901000016200NNM   20220707094707    1W    00000180000000625000000000032DG    BFSAIBF 000000000000GZ128011
BI00B32DG    RW2094         202208251801W003960              IVSSH 0.5F G             CCN000012600000012600FN00000000020220901000012600NNM   20220707094707    1W    00000180000000625000000000032DG    BFSAIBF 000000000000GZ228007
BI00B32DG    RW2091         202208041801W003941              IVSSH 0.5F GY            CCN000007200000007200FN00000000020220901000007200NNM   20220707094707    1W    00000180000000625000000000032DG    BFSAIBF 000000000000GZ327018
BI00B32DG    RW2092         202208111801W003941              IVSSH 0.5F GY            CCN000007200000007200FN00000000020220901000007200NNM   20220707094707    1W    00000180000000625000000000032DG    BFSAIBF 000000000000GZ427014
BI00B32DG    RW2093         202208181801W003941              IVSSH 0.5F GY            CCN000007200000007200FN00000000020220901000007200NNM   20220707094707    1W    00000180000000625000000000032DG    BFSAIBF 000000000000GZ128012
BI00B32DG    RW2094         202208251801W003941              IVSSH 0.5F GY            CCN000003600000003600FN00000000020220901000003600NNM   20220707094707    1W    00000180000000625000000000032DG    BFSAIBF 000000000000GZ228008
BI00B32DG    RW2091         202208041801W003990              IVSSH 0.5F L             CCN000009000000009000FN00000000020220901000009000NNM   20220707094707    1W    00000180000000625000000000032DG    BFSAIBF 000000000000GZ327019
BI00B32DG    RW2092         202208111801W003990              IVSSH 0.5F L             CCN000009000000009000FN00000000020220901000009000NNM   20220707094707    1W    00000180000000625000000000032DG    BFSAIBF 000000000000GZ427015
BI00B32DG    RW2093         202208181801W003990              IVSSH 0.5F L             CCN000009000000009000FN00000000020220901000009000NNM   20220707094707    1W    00000180000000625000000000032DG    BFSAIBF 000000000000GZ128013
BI00B32DG    RW2094         202208251801W003990              IVSSH 0.5F L             CCN000003600000003600FN00000000020220901000003600NNM   20220707094707    1W    00000180000000625000000000032DG    BFSAIBF 000000000000GZ228009
BI00B32DG    RW2091         202208041801W003952              IVSSH 0.5F P             CCN000005400000005400FN00000000020220901000005400NNM   20220707094707    1W    00000180000000625000000000032DG    BFSAIBF 000000000000GZ327021
BI00B32DG    RW2092         202208111801W003952              IVSSH 0.5F P             CCN000005400000005400FN00000000020220901000005400NNM   20220707094707    1W    00000180000000625000000000032DG    BFSAIBF 000000000000GZ427017
BI00B32DG    RW2093         202208181801W003952              IVSSH 0.5F P             CCN000005400000005400FN00000000020220901000005400NNM   20220707094707    1W    00000180000000625000000000032DG    BFSAIBF 000000000000GZ128015
BI00B32DG    RW2094         202208251801W003952              IVSSH 0.5F P             CCN000001800000001800FN00000000020220901000001800NNM   20220707094707    1W    00000180000000625000000000032DG    BFSAIBF 000000000000GZ228010
BI00B32DG    RW2091         202208041801W003992              IVSSH 0.5F V             CCN000007200000007200FN00000000020220901000007200NNM   20220707094707    1W    00000180000000625000000000032DG    BFSAIBF 000000000000GZ327023
BI00B32DG    RW2092         202208111801W003992              IVSSH 0.5F V             CCN000007200000007200FN00000000020220901000007200NNM   20220707094707    1W    00000180000000625000000000032DG    BFSAIBF 000000000000GZ427019
BI00B32DG    RW2093         202208181801W003992              IVSSH 0.5F V             CCN000007200000007200FN00000000020220901000007200NNM   20220707094707    1W    00000180000000625000000000032DG    BFSAIBF 000000000000GZ128017
BI00B32DG    RW2094         202208251801W003992              IVSSH 0.5F V             CCN000003600000003600FN00000000020220901000003600NNM   20220707094707    1W    00000180000000625000000000032DG    BFSAIBF 000000000000GZ228012
BI00B32DG    RW2091         202208041801W003940              IVSSH 0.5F W             CCN000010800000010800FN00000000020220901000010800NNM   20220707094707    1W    00000180000000625000000000032DG    BFSAIBF 000000000000GZ327024
BI00B32DG    RW2092         202208111801W003940              IVSSH 0.5F W             CCN000010800000010800FN00000000020220901000010800NNM   20220707094707    1W    00000180000000625000000000032DG    BFSAIBF 000000000000GZ427020
BI00B32DG    RW2093         202208181801W003940              IVSSH 0.5F W             CCN000010800000010800FN00000000020220901000010800NNM   20220707094707    1W    00000180000000625000000000032DG    BFSAIBF 000000000000GZ128018
BI00B32DG    RW2094         202208251801W003940              IVSSH 0.5F W             CCN000005400000005400FN00000000020220901000005400NNM   20220707094707    1W    00000180000000625000000000032DG    BFSAIBF 000000000000GZ228013
BI00B32DG    RW2091         202208041801W003970              IVSSH 0.5F Y             CCN000003600000003600FN00000000020220901000003600NNM   20220707094707    1W    00000180000000625000000000032DG    BFSAIBF 000000000000GZ327026
BI00B32DG    RW2092         202208111801W003970              IVSSH 0.5F Y             CCN000003600000003600FN00000000020220901000003600NNM   20220707094707    1W    00000180000000625000000000032DG    BFSAIBF 000000000000GZ427022
BI00B32DG    RW2093         202208181801W003970              IVSSH 0.5F Y             CCN000003600000003600FN00000000020220901000003600NNM   20220707094707    1W    00000180000000625000000000032DG    BFSAIBF 000000000000GZ128020
BI00B32DG    RW2094         202208251801W003970              IVSSH 0.5F Y             CCN000001800000001800FN00000000020220901000001800NNM   20220707094707    1W    00000180000000625000000000032DG    BFSAIBF 000000000000GZ228014
BI00B32DG    RW2091         202208041801W00395U              IVSSH 0.5F BE            CCN000005400000005400FN00000000020220901000005400NNM   20220707094707    1W    00000180000000625000000000032DG    BFSAIBF 000000000000GZ327015
BI00B32DG    RW2092         202208111801W00395U              IVSSH 0.5F BE            CCN000005400000005400FN00000000020220901000005400NNM   20220707094707    1W    00000180000000625000000000032DG    BFSAIBF 000000000000GZ427011
BI00B32DG    RW2093         202208181801W00395U              IVSSH 0.5F BE            CCN000005400000005400FN00000000020220901000005400NNM   20220707094707    1W    00000180000000625000000000032DG    BFSAIBF 000000000000GZ128009
BI00B32DG    RW2091         202208041801W003950              IVSSH 0.5F R             CCN000001800000001800FN00000000020220901000001800NNM   20220707094707    1W    00000180000000625000000000032DG    BFSAIBF 000000000000GZ327022
BI00B32DG    RW2092         202208111801W003950              IVSSH 0.5F R             CCN000001800000001800FN00000000020220901000001800NNM   20220707094707    1W    00000180000000625000000000032DG    BFSAIBF 000000000000GZ427018
BI00B32DG    RW2093         202208181801W003950              IVSSH 0.5F R             CCN000001800000001800FN00000000020220901000001800NNM   20220707094707    1W    00000180000000625000000000032DG    BFSAIBF 000000000000GZ128016
BI00B32DG    RW2094         202208251801W003950              IVSSH 0.5F R             CCN000001800000001800FN00000000020220901000001800NNM   20220707094707    1W    00000180000000625000000000032DG    BFSAIBF 000000000000GZ228011
BI00B32DG    RW2091         202208041801W003943              IVSSH 0.5F W/B           CCN000001800000001800FN00000000020220901000001800NNM   20220707094707    1W    00000180000000625000000000032DG    BFSAIBF 000000000000GZ327025
BI00B32DG    RW2092         202208111801W003943              IVSSH 0.5F W/B           CCN000001800000001800FN00000000020220901000001800NNM   20220707094707    1W    00000180000000625000000000032DG    BFSAIBF 000000000000GZ427021
BI00B32DG    RW2093         202208181801W003943              IVSSH 0.5F W/B           CCN000001800000001800FN00000000020220901000001800NNM   20220707094707    1W    00000180000000625000000000032DG    BFSAIBF 000000000000GZ128019
BI00B32DG    RW2091         202208041801W003980              IVSSH 0.5F BR            CCN000007200000007200FN00000000020220901000007200NNM   20220707094707    1W    00000180000000625000000000032DG    BFSAIBF 000000000000GZ327016
BI00B32DG    RW2092         202208111801W003980              IVSSH 0.5F BR            CCN000007200000007200FN00000000020220901000007200NNM   20220707094707    1W    00000180000000625000000000032DG    BFSAIBF 000000000000GZ427012
BI00B32DG    RW2093         202208181801W003980              IVSSH 0.5F BR            CCN000007200000007200FN00000000020220901000007200NNM   20220707094707    1W    00000180000000625000000000032DG    BFSAIBF 000000000000GZ128010
BI00B32DG    RW2094         202208251801W003980              IVSSH 0.5F BR            CCN000001800000001800FN00000000020220901000001800NNM   20220707094707    1W    00000180000000625000000000032DG    BFSAIBF 000000000000GZ228006
BI00B32DG    RW2091         202208041801W003961              IVSSH 0.5F LG            CCN000005400000005400FN00000000020220901000005400NNM   20220707094707    1W    00000180000000625000000000032DG    BFSAIBF 000000000000GZ327020
BI00B32DG    RW2092         202208111801W003961              IVSSH 0.5F LG            CCN000005400000005400FN00000000020220901000005400NNM   20220707094707    1W    00000180000000625000000000032DG    BFSAIBF 000000000000GZ427016
BI00B32DG    RW2093         202208181801W003961              IVSSH 0.5F LG            CCN000005400000005400FN00000000020220901000005400NNM   20220707094707    1W    00000180000000625000000000032DG    BFSAIBF 000000000000GZ128014
BI00B32D1    DFTW2240       2022081118000004534              AV 8 B/W                 CCN000001200000001200FN00000000020221001000001200NNE   20220707153709    1W    00000010000010466200000000032D1    TOYOT-K 000000000000KO427037
BI00B32D1    DFTW2240       2022081118000004535              AV 8 B/R                 CCN000003500000003500FN00000000020221001000003500NNE   20220707153709    1W    00000010000010466200000000032D1    TOYOT-K 000000000000KO427036
BI00B32D1    DFTW2240       2022081118000004540              AV 8 W                   CCN000001000000001000FN00000000020221001000001000NNE   20220707153709    1W    00000010000010466200000000032D1    TOYOT-K 000000000000KO427039
BI00B32D1    DFTW2240       2022081118000004543              AV 8 W/B                 CCN000001400000001400FN00000000020221001000001400NNE   20220707153709    1W    00000010000010466200000000032D1    TOYOT-K 000000000000KO427040
BI00B32D1    DFTW2240       2022081118000004550              AV 8 R                   CCN000000100000000100FN00000000020221001000000100NNE   20220707153709    1W    00000010000010466200000000032D1    TOYOT-K 000000000000KO427038
BI00B32D1    @DFTW2240      20220811181AD2002ZZ              CIVUSAS-S 0.35X2 B       CCN000012150000012150FN00000000020221001000012150NNE   20220707153707    1W    00000045000001713700000000032D1    TOYOT-K 000000000000KO427012
BI00B32D1    @DFTW2240      20220811181AD2003ZZ              CIVUSAS-S 0.35X3 B       CCN000004000000004200FN00000000020221001000004200NNE   20220707153707    1W    00000035000002172100000000032D1    TOYOT-K 000000000000KO427013
BI00B32D1    @DFTW2240      20220811181AD2004ZZ              CIVUSAS-S 0.35X4 B       CCN000000800000000900FN00000000020221001000000900NNE   20220707153707    1W    00000030000002799900000000032D1    TOYOT-K 000000000000KO427014
BI00B32D1    @DFTW2240      20220811181E48031ZZ              CAVSAS-S 0.3X2 GY        CCN000006650000006650FN00000000020221001000006650NNE   20220707153707    1W    00000035000002008700000000032D1    TOYOT-K 000000000000KO427015
BI00B32D1    @DFTW2240      20220811181E48037ZZ              CAVSAS-S 0.3X4 GY        CCN000004750000004750FN00000000020221001000004750NNE   20220707153707    1W    00000025000003262000000000032D1    TOYOT-K 000000000000KO427017
BI00B32D1    @DFTW2240      20220811181E48041ZZ              CAVSAS-S 0.3X2 GY/R      CCN000002100000002100FN00000000020221001000002100NNE   20220707153707    1W    00000035000002008700000000032D1    TOYOT-K 000000000000KO427016
BI00B32D1    @DFTW2240      20220811181E50002ZZ              AVSSCS-S 0.3FX2 DGY/G    CCN000005600000005600FN00000000020221001000005600NNE   20220707153707    1W    00000035000002165000000000032D1    TOYOT-K 000000000000KO427021
BI00B32D1    @DFTW2240      20220811181E50004ZZ              AVSSCS-S 0.5FX1 DGY      CCN000000800000000800FN00000000020221001000000800NNE   20220707153707    1W    00000040000001909700000000032D1    TOYOT-K 000000000000KO427018
BI00B32D1    @DFTW2240      20220811181E50007ZZ              AVSSCS-S 0.5FX1 DGY/L    CCN000001600000001600FN00000000020221001000001600NNE   20220707153707    1W    00000040000001909700000000032D1    TOYOT-K 000000000000KO427019
BI00B32D1    @DFTW2240      20220811181E50020ZZ              AVSSCS-S 0.3FX2 DGY/R    CCN000004200000004200FN00000000020221001000004200NNE   20220707153707    1W    00000035000002165000000000032D1    TOYOT-K 000000000000KO427023
BI00B32D1    @DFTW2240      20220811181E50021ZZ              AVSSCS-S 0.3FX2 DGY/P    CCN000004200000004200FN00000000020221001000004200NNE   20220707153707    1W    00000035000002165000000000032D1    TOYOT-K 000000000000KO427022
BI00B32D1    @DFTW2240      20220811181E50036ZZ              AVSSCS-S 0.3FX2 DGY      CCN000003500000003500FN00000000020221001000003500NNE   20220707153707    1W    00000035000002165000000000032D1    TOYOT-K 000000000000KO427020
BI00B32D2    DGTW2240       2022081118000004530              AV 8 B                   CCN000027700000027700FN00000000020221001000027700NNE   20220707154539    1W    00000010000010466200000000032D2    TGYOT-G 000000000000KR427049
BI00B32D2    DGTW2240       2022081118000004540              AV 8 W                   CCN000009200000009200FN00000000020221001000009200NNE   20220707154539    1W    00000010000010466200000000032D2    TGYOT-G 000000000000KR427051
BI00B32D2    DGTW2240       2022081118000004543              AV 8 W/B                 CCN000002400000002400FN00000000020221001000002400NNE   20220707154539    1W    00000010000010466200000000032D2    TGYOT-G 000000000000KR427052
BI00B32D2    DGTW2240       2022081118000004590              AV 8 L                   CCN000004700000004700FN00000000020221001000004700NNE   20220707154539    1W    00000010000010466200000000032D2    TGYOT-G 000000000000KR427050
BI00B32D2    @DGTW2240      20220811181AD2002ZZ              CIVUSAS-S 0.35X2 B       CCN000011250000011250FN00000000020221001000011250NNE   20220707154538    1W    00000045000001713700000000032D2    TGYOT-G 000000000000KR427024
BI00B32D2    @DGTW2240      20220811181AD2003ZZ              CIVUSAS-S 0.35X3 B       CCN000002000000002100FN00000000020221001000002100NNE   20220707154538    1W    00000035000002172100000000032D2    TGYOT-G 000000000000KR427025
BI00B32D2    @DGTW2240      20220811181AD2004ZZ              CIVUSAS-S 0.35X4 B       CCN000018000000018000FN00000000020221001000018000NNE   20220707154538    1W    00000030000002799900000000032D2    TGYOT-G 000000000000KR427026
BI00B32D2    @DGTW2240      20220811181E48037ZZ              CAVSAS-S 0.3X4 GY        CCN000001750000001750FN00000000020221001000001750NNE   20220707154538    1W    00000025000003262000000000032D2    TGYOT-G 000000000000KR427027
BI00B32D2    @DGTW2240      20220811181E50004ZZ              AVSSCS-S 0.5FX1 DGY      CCN000008800000008800FN00000000020221001000008800NNE   20220707154538    1W    00000040000001909700000000032D2    TGYOT-G 000000000000KR427028
BI00B32D2    @DGTW2240      20220811181E50005ZZ              AVSSCS-S 0.5FX1 DGY/W    CCN000005600000005600FN00000000020221001000005600NNE   20220707154538    1W    00000040000001909700000000032D2    TGYOT-G 000000000000KR427030
BI00B32D2    @DGTW2240      20220811181E50007ZZ              AVSSCS-S 0.5FX1 DGY/L    CCN000001600000001600FN00000000020221001000001600NNE   20220707154538    1W    00000040000001909700000000032D2    TGYOT-G 000000000000KR427029
BI00B32D2    @DGTW2240      20220811181E50016ZZ              AVSSCS-S 0.5FX2 DGY/R    CCN000001200000001200FN00000000020221001000001200NNE   20220707154538    1W    00000030000003096000000000032D2    TGYOT-G 000000000000KR427031
BI00B32D2    @DGTW2240      20220811181E50036ZZ              AVSSCS-S 0.3FX2 DGY      CCN000001400000001400FN00000000020221001000001400NNE   20220707154538    1W    00000035000002165000000000032D2    TGYOT-G 000000000000KR427032
BI00B32D2    @DGTW2240      20220811181F21014ZZ              AVSSHCS-S 0.5FX2 B/L     CCN000002100000002100FN00000000020221001000002100NNE   20220707154538    1W    00000030000002531400000000032D2    TGYOT-G 000000000000KR427034
BI00B32D2    @DGTW2240      20220811181F21016ZZ              AVSSHCS-S 0.5FX2 B/BR    CCN000000900000000900FN00000000020221001000000900NNE   20220707154538    1W    00000030000002531400000000032D2    TGYOT-G 000000000000KR427033
BI00B32D2    @DGTW2240      20220811181F21031ZZ              AVSSHCS-S 1.25FX2 B/P    CCN000001000000001000FN00000000020221001000001000NNE   20220707154538    1W    00000020000004267300000000032D2    TGYOT-G 000000000000KR427035
BI00B32D9    C23509         202208041801W003941              IVSSH 0.5F GY            CCN000001800000001800FN00000000020220901000001800NNM   20220707152955    1W    00000180000000625000000000032D9    UEHESTO 000000000000HT327003
BI00B32D9    C23609         202208111801W003941              IVSSH 0.5F GY            CCN000001800000001800FN00000000020220901000001800NNM   20220707152955    1W    00000180000000625000000000032D9    UEHESTO 000000000000HT427005
BI00B32D9    C23709         202208181801W003941              IVSSH 0.5F GY            CCN000001800000001800FN00000000020220901000001800NNM   20220707152955    1W    00000180000000625000000000032D9    UEHESTO 000000000000HT128004
BI00B32D9    C23810         202208251801W003941              IVSSH 0.5F GY            CCN000001800000001800FN00000000020220901000001800NNM   20220707152955    1W    00000180000000625000000000032D9    UEHESTO 000000000000HT228004
BI00B32D9    C23509         202208041801W004043              IVSSH 0.75F W/B          CCN000001300000001300FN00000000020220901000001300NNM   20220707152955    1W    00000130000000882000000000032D9    UEHESTO 000000000000HT327004
BI00B32D9    C23609         202208111801W004043              IVSSH 0.75F W/B          CCN000001300000001300FN00000000020220901000001300NNM   20220707152955    1W    00000130000000882000000000032D9    UEHESTO 000000000000HT427006
BI00B32D9    C23709         202208181801W004070              IVSSH 0.75F Y            CCN000001300000001300FN00000000020220901000001300NNM   20220707152955    1W    00000130000000882000000000032D9    UEHESTO 000000000000HT128005
BI00B32D9    C23509         202208041801W006930              IVSSH 0.35F B            CCN000002500000002500FN00000000020220901000002500NNM   20220707152955    1W    00000250000000452000000000032D9    UEHESTO 000000000000HT327005
BI00B32D9    C23609         202208111801W006930              IVSSH 0.35F B            CCN000002500000002500FN00000000020220901000002500NNM   20220707152955    1W    00000250000000452000000000032D9    UEHESTO 000000000000HT427007
BI00B32D9    C23709         202208181801W006930              IVSSH 0.35F B            CCN000002500000002500FN00000000020220901000002500NNM   20220707152955    1W    00000250000000452000000000032D9    UEHESTO 000000000000HT128006
BI00B32D9    C23810         202208251801W006930              IVSSH 0.35F B            CCN000005000000005000FN00000000020220901000005000NNM   20220707152955    1W    00000250000000452000000000032D9    UEHESTO 000000000000HT228005
BI00B32D9    C23709         202208181801W006941              IVSSH 0.35F GY           CCN000002500000002500FN00000000020220901000002500NNM   20220707152955    1W    00000250000000452000000000032D9    UEHESTO 000000000000HT128007
BI00B32D9    C23810         202208251801W006943              IVSSH 0.35F W/B          CCN000002500000002500FN00000000020220901000002500NNM   20220707152955    1W    00000250000000452000000000032D9    UEHESTO 000000000000HT228010
BI00B32D9    C23509         202208041801W006950              IVSSH 0.35F R            CCN000002500000002500FN00000000020220901000002500NNM   20220707152955    1W    00000250000000452000000000032D9    UEHESTO 000000000000HT327008
BI00B32D9    C23609         202208111801W006950              IVSSH 0.35F R            CCN000002500000002500FN00000000020220901000002500NNM   20220707152955    1W    00000250000000452000000000032D9    UEHESTO 000000000000HT427010
BI00B32D9    C23709         202208181801W006950              IVSSH 0.35F R            CCN000007500000007500FN00000000020220901000007500NNM   20220707152955    1W    00000250000000452000000000032D9    UEHESTO 000000000000HT128010
BI00B32D9    C23810         202208251801W006950              IVSSH 0.35F R            CCN000007500000007500FN00000000020220901000007500NNM   20220707152955    1W    00000250000000452000000000032D9    UEHESTO 000000000000HT228008
BI00B32D9    C23509         202208041801W006952              IVSSH 0.35F P            CCN000002500000002500FN00000000020220901000002500NNM   20220707152955    1W    00000250000000452000000000032D9    UEHESTO 000000000000HT327007
BI00B32D9    C23609         202208111801W006952              IVSSH 0.35F P            CCN000002500000002500FN00000000020220901000002500NNM   20220707152955    1W    00000250000000452000000000032D9    UEHESTO 000000000000HT427009
BI00B32D9    C23709         202208181801W006952              IVSSH 0.35F P            CCN000002500000002500FN00000000020220901000002500NNM   20220707152955    1W    00000250000000452000000000032D9    UEHESTO 000000000000HT128009
BI00B32D9    C23810         202208251801W006952              IVSSH 0.35F P            CCN000005000000005000FN00000000020220901000005000NNM   20220707152955    1W    00000250000000452000000000032D9    UEHESTO 000000000000HT228007
BI00B32D9    C23609         202208111801W006970              IVSSH 0.35F Y            CCN000002500000002500FN00000000020220901000002500NNM   20220707152955    1W    00000250000000452000000000032D9    UEHESTO 000000000000HT427012
BI00B32D9    C23709         202208181801W006970              IVSSH 0.35F Y            CCN000002500000002500FN00000000020220901000002500NNM   20220707152955    1W    00000250000000452000000000032D9    UEHESTO 000000000000HT128012
BI00B32D9    C23810         202208251801W006970              IVSSH 0.35F Y            CCN000002500000002500FN00000000020220901000002500NNM   20220707152955    1W    00000250000000452000000000032D9    UEHESTO 000000000000HT228011
BI00B32D9    C23509         202208041801W006990              IVSSH 0.35F L            CCN000002500000002500FN00000000020220901000002500NNM   20220707152955    1W    00000250000000452000000000032D9    UEHESTO 000000000000HT327006
BI00B32D9    C23609         202208111801W006990              IVSSH 0.35F L            CCN000005000000005000FN00000000020220901000005000NNM   20220707152955    1W    00000250000000452000000000032D9    UEHESTO 000000000000HT427008
BI00B32D9    C23709         202208181801W006990              IVSSH 0.35F L            CCN000005000000005000FN00000000020220901000005000NNM   20220707152955    1W    00000250000000452000000000032D9    UEHESTO 000000000000HT128008
BI00B32D9    C23810         202208251801W006990              IVSSH 0.35F L            CCN000005000000005000FN00000000020220901000005000NNM   20220707152955    1W    00000250000000452000000000032D9    UEHESTO 000000000000HT228006
BI00B32D9    C23509         202208041801W006992              IVSSH 0.35F V            CCN000002500000002500FN00000000020220901000002500NNM   20220707152955    1W    00000250000000452000000000032D9    UEHESTO 000000000000HT327009
BI00B32D9    C23609         202208111801W006992              IVSSH 0.35F V            CCN000002500000002500FN00000000020220901000002500NNM   20220707152955    1W    00000250000000452000000000032D9    UEHESTO 000000000000HT427011
BI00B32D9    C23709         202208181801W006992              IVSSH 0.35F V            CCN000002500000002500FN00000000020220901000002500NNM   20220707152955    1W    00000250000000452000000000032D9    UEHESTO 000000000000HT128011
BI00B32D9    C23810         202208251801W006992              IVSSH 0.35F V            CCN000005000000005000FN00000000020220901000005000NNM   20220707152955    1W    00000250000000452000000000032D9    UEHESTO 000000000000HT228009
BI00B32D9    C23609         20220811180D0203752              AVSSH 0.3F P             CCN000002000000002000FN00000000020220901000002000NNM   20220707152955    1W    00000200000000515000000000032D9    UEHESTO 000000000000HT427004
BI00B32G0    TZ2208AEMW     2022080218007703750              AVSS 0.3F R              CCN000002000000002000FN00000000020220801000002000NNE   20220707160620    1W    00000200000000496000000000032G0    TTTJY   000000000000NG327007
BI00B32G0    TZ2208AEMW     20220802180D0203760              AVSSH 0.3F G             CCN000018000000018000FN00000000020220801000018000NNE   20220707160620    1W    00000200000000515000000000032G0    TTTJY   000000000000NG327003
BI00B32G0    TZ2208AEMW     20220802180D0203761              AVSSH 0.3F LG            CCN000006000000006000FN00000000020220801000006000NNE   20220707160620    1W    00000200000000515000000000032G0    TTTJY   000000000000NG327004
BI00B32G0    TZ2208AEMW     20220802180D0203743              AVSSH 0.3F W/B           CCN000010000000010000FN00000000020220801000010000NNE   20220707160620    1W    00000200000000515000000000032G0    TTTJY   000000000000NG327005
BI00B32G0    TZ2208AEMW     20220802180D0204043              AVSSH 0.75F W/B          CCN000004000000004000FN00000000020220801000004000NNE   20220707160620    1W    00000100000000934000000000032G0    TTTJY   000000000000NG327006
BI00B32G0    TZ22101EMW     2022081618007703730              AVSS 0.3F B              CCN000008000000008000FN00000000020221001000008000NNM   20220707160623    1W    00000200000000496000000000032G0    TTTJY   000000000000NE128049
BI00B32G0    TZ22102EMW     2022082318007703730              AVSS 0.3F B              CCN000008000000008000FN00000000020221001000008000NNM   20220707160623    1W    00000200000000496000000000032G0    TTTJY   000000000000NE228037
BI00B32G0    TZ22101EMW     2022081618007703760              AVSS 0.3F G              CCN000008000000008000FN00000000020221001000008000NNM   20220707160623    1W    00000200000000496000000000032G0    TTTJY   000000000000NE128050
BI00B32G0    TZ22101EMW     2022081618007703752              AVSS 0.3F P              CCN000008000000008000FN00000000020221001000008000NNM   20220707160623    1W    00000200000000496000000000032G0    TTTJY   000000000000NE128051
BI00B32G0    TZ22101EMW     2022081618007703750              AVSS 0.3F R              CCN000010000000010000FN00000000020221001000010000NNM   20220707160623    1W    00000200000000496000000000032G0    TTTJY   000000000000NE128052
BI00B32G0    TZ22101EMW     2022081618007703792              AVSS 0.3F V              CCN000012000000012000FN00000000020221001000012000NNM   20220707160623    1W    00000200000000496000000000032G0    TTTJY   000000000000NE128053
BI00B32G0    TZ22102EMW     2022082318007703792              AVSS 0.3F V              CCN000012000000012000FN00000000020221001000012000NNM   20220707160623    1W    00000200000000496000000000032G0    TTTJY   000000000000NE228038
BI00B32G0    TZ22101EMW     20220816180D0203760              AVSSH 0.3F G             CCN000036000000036000FN00000000020221001000036000NNM   20220707160623    1W    00000200000000515000000000032G0    TTTJY   000000000000NE128035
BI00B32G0    TZ22102EMW     20220823180D0203760              AVSSH 0.3F G             CCN000032000000032000FN00000000020221001000032000NNM   20220707160623    1W    00000200000000515000000000032G0    TTTJY   000000000000NE228027
BI00B32G0    TZ22101EMW     20220816180D0203761              AVSSH 0.3F LG            CCN000026000000026000FN00000000020221001000026000NNM   20220707160623    1W    00000200000000515000000000032G0    TTTJY   000000000000NE128036
BI00B32G0    TZ22102EMW     20220823180D0203761              AVSSH 0.3F LG            CCN000010000000010000FN00000000020221001000010000NNM   20220707160623    1W    00000200000000515000000000032G0    TTTJY   000000000000NE228028
BI00B32G0    TZ22101EMW     20220816180D0203750              AVSSH 0.3F R             CCN000010000000010000FN00000000020221001000010000NNM   20220707160623    1W    00000200000000515000000000032G0    TTTJY   000000000000NE128037
BI00B32G0    TZ22101EMW     20220816180D0203740              AVSSH 0.3F W             CCN000020000000020000FN00000000020221001000020000NNM   20220707160623    1W    00000200000000515000000000032G0    TTTJY   000000000000NE128038
BI00B32G0    TZ22102EMW     20220823180D0203740              AVSSH 0.3F W             CCN000012000000012000FN00000000020221001000012000NNM   20220707160623    1W    00000200000000515000000000032G0    TTTJY   000000000000NE228029
BI00B32G0    TZ22101EMW     20220816180D0203743              AVSSH 0.3F W/B           CCN000022000000022000FN00000000020221001000022000NNM   20220707160623    1W    00000200000000515000000000032G0    TTTJY   000000000000NE128039
BI00B32G0    TZ22101EMW     20220816180D0203980              AVSSH 0.5F BR            CCN000009000000009000FN00000000020221001000009000NNM   20220707160623    1W    00000150000000689000000000032G0    TTTJY   000000000000NE128040
BI00B32G0    TZ22101EMW     20220816180D0203990              AVSSH 0.5F L             CCN000015000000015000FN00000000020221001000015000NNM   20220707160623    1W    00000150000000689000000000032G0    TTTJY   000000000000NE128041
BI00B32G0    TZ22102EMW     20220823180D0203990              AVSSH 0.5F L             CCN000007500000007500FN00000000020221001000007500NNM   20220707160623    1W    00000150000000689000000000032G0    TTTJY   000000000000NE228030
BI00B32G0    TZ22101EMW     20220816180D0203950              AVSSH 0.5F R             CCN000009000000009000FN00000000020221001000009000NNM   20220707160623    1W    00000150000000689000000000032G0    TTTJY   000000000000NE128042
BI00B32G0    TZ22102EMW     20220823180D0203950              AVSSH 0.5F R             CCN000006000000006000FN00000000020221001000006000NNM   20220707160623    1W    00000150000000689000000000032G0    TTTJY   000000000000NE228031
BI00B32G0    TZ22101EMW     20220816180D0204030              AVSSH 0.75F B            CCN000016000000016000FN00000000020221001000016000NNM   20220707160623    1W    00000100000000934000000000032G0    TTTJY   000000000000NE128043
BI00B32G0    TZ22102EMW     20220823180D0204030              AVSSH 0.75F B            CCN000007000000007000FN00000000020221001000007000NNM   20220707160623    1W    00000100000000934000000000032G0    TTTJY   000000000000NE228032
BI00B32G0    TZ22101EMW     20220816180D0204043              AVSSH 0.75F W/B          CCN000025000000025000FN00000000020221001000025000NNM   20220707160623    1W    00000100000000934000000000032G0    TTTJY   000000000000NE128044
BI00B32G0    TZ22102EMW     20220823180D0204043              AVSSH 0.75F W/B          CCN000011000000011000FN00000000020221001000011000NNM   20220707160623    1W    00000100000000934000000000032G0    TTTJY   000000000000NE228033
BI00B32G0    TZ22101EMW     20220816180D0204160              AVSSH 1.25F G            CCN000017600000017600FN00000000020221001000017600NNM   20220707160623    1W    00000080000001458000000000032G0    TTTJY   000000000000NE128045
BI00B32G0    TZ22102EMW     20220823180D0204160              AVSSH 1.25F G            CCN000010400000010400FN00000000020221001000010400NNM   20220707160623    1W    00000080000001458000000000032G0    TTTJY   000000000000NE228034
BI00B32G0    TZ22101EMW     20220816180D0204190              AVSSH 1.25F L            CCN000006400000006400FN00000000020221001000006400NNM   20220707160623    1W    00000080000001458000000000032G0    TTTJY   000000000000NE128046
BI00B32G0    TZ22102EMW     20220823180D0204190              AVSSH 1.25F L            CCN000004000000004000FN00000000020221001000004000NNM   20220707160623    1W    00000080000001458000000000032G0    TTTJY   000000000000NE228035
BI00B32G0    TZ22101EMW     20220816180D0204150              AVSSH 1.25F R            CCN000012800000012800FN00000000020221001000012800NNM   20220707160623    1W    00000080000001458000000000032G0    TTTJY   000000000000NE128047
BI00B32G0    TZ22102EMW     20220823180D0204150              AVSSH 1.25F R            CCN000007200000007200FN00000000020221001000007200NNM   20220707160623    1W    00000080000001458000000000032G0    TTTJY   000000000000NE228036
BI00B32G0    TZ22101EMW     20220816180D0204143              AVSSH 1.25F W/B          CCN000003200000003200FN00000000020221001000003200NNM   20220707160623    1W    00000080000001458000000000032G0    TTTJY   000000000000NE128048
BI00B32G0    @TZ22101EMW    20220816181E50036ZZ              AVSSCS-S 0.3FX2 DGY      CCN000007000000007000FN00000000020221001000007000NNM   20220707160623    1W    00000035000002165000000000032G0    TTTJY   000000000000NE128025
BI00B32G0    @TZ22102EMW    20220823181E50036ZZ              AVSSCS-S 0.3FX2 DGY      CCN000006300000006300FN00000000020221001000006300NNM   20220707160623    1W    00000035000002165000000000032G0    TTTJY   000000000000NE228015
BI00B32G2    SA2208AJMW     2022072718007704170              AVSS 1.25F Y             CCN000000800000000800FN00000000020220801000000800NNE   20220707132411    1W    00000080000001389000000000032G2    AISUAI  000000000000IP227002
BI00B32G2    SA2208AJMW     202207271801W003950              IVSSH 0.5F R             CCN000007200000007200FN00000000020220801000007200NNE   20220707132411    1W    00000180000000625000000000032G2    AISUAI  000000000000IP227004
BI00B32G2    SA2208AJMW     202207271801W003980              IVSSH 0.5F BR            CCN000012600000012600FN00000000020220801000012600NNE   20220707132411    1W    00000180000000625000000000032G2    AISUAI  000000000000IP227003
BI00B32G2    SA2208AJMW     202207271801W004052              IVSSH 0.75F P            CCN000001300000001300FN00000000020220801000001300NNE   20220707132411    1W    00000130000000882000000000032G2    AISUAI  000000000000IP227009
BI00B32G2    SA2208AJMW     202207271801W004060              IVSSH 0.75F G            CCN000006500000006500FN00000000020220801000006500NNE   20220707132411    1W    00000130000000882000000000032G2    AISUAI  000000000000IP227006
BI00B32G2    SA2208AJMW     202207271801W004061              IVSSH 0.75F LG           CCN000005200000005200FN00000000020220801000005200NNE   20220707132411    1W    00000130000000882000000000032G2    AISUAI  000000000000IP227008
BI00B32G2    SA2208AJMW     202207271801W004070              IVSSH 0.75F Y            CCN000002600000002600FN00000000020220801000002600NNE   20220707132411    1W    00000130000000882000000000032G2    AISUAI  000000000000IP227010
BI00B32G2    SA2208AJMW     202207271801W004080              IVSSH 0.75F BR           CCN000003900000003900FN00000000020220801000003900NNE   20220707132411    1W    00000130000000882000000000032G2    AISUAI  000000000000IP227005
BI00B32G2    SA2208AJMW     202207271801W004090              IVSSH 0.75F L            CCN000002600000002600FN00000000020220801000002600NNE   20220707132411    1W    00000130000000882000000000032G2    AISUAI  000000000000IP227007
BI00B32G2    SA2208AJMW     202207271801W006940              IVSSH 0.35F W            CCN000017500000017500FN00000000020220801000017500NNE   20220707132411    1W    00000250000000452000000000032G2    AISUAI  000000000000IP227015
BI00B32G2    SA2208AJMW     202207271801W006950              IVSSH 0.35F R            CCN000020000000020000FN00000000020220801000020000NNE   20220707132411    1W    00000250000000452000000000032G2    AISUAI  000000000000IP227013
BI00B32G2    SA2208AJMW     202207271801W006952              IVSSH 0.35F P            CCN000002500000002500FN00000000020220801000002500NNE   20220707132411    1W    00000250000000452000000000032G2    AISUAI  000000000000IP227012
BI00B32G2    SA2208AJMW     202207271801W006961              IVSSH 0.35F LG           CCN000005000000005000FN00000000020220801000005000NNE   20220707132411    1W    00000250000000452000000000032G2    AISUAI  000000000000IP227011
BI00B32G2    SA2208AJMW     202207271801W006970              IVSSH 0.35F Y            CCN000005000000005000FN00000000020220801000005000NNE   20220707132411    1W    00000250000000452000000000032G2    AISUAI  000000000000IP227016
BI00B32G2    SA2208AJMW     202207271801W006991              IVSSH 0.35F SB           CCN000002500000002500FN00000000020220801000002500NNE   20220707132411    1W    00000250000000452000000000032G2    AISUAI  000000000000IP227014
BI00B32G2    SA22091 MW     2022081018007704040              AVSS 0.75F W             CCN000001000000001000FN00000000020220901000001000NNM   20220707132513    1W    00000100000000943000000000032G2    AISUAI  000000000000IX427022
BI00B32G2    SA22092 MW     2022081718007704040              AVSS 0.75F W             CCN000001000000001000FN00000000020220901000001000NNM   20220707132513    1W    00000100000000943000000000032G2    AISUAI  000000000000IX128021
BI00B32G2    SA22093 MW     2022082418007704040              AVSS 0.75F W             CCN000001000000001000FN00000000020220901000001000NNM   20220707132513    1W    00000100000000943000000000032G2    AISUAI  000000000000IX228020
BI00B32G2    SA22091 MW     202208101801W003960              IVSSH 0.5F G             CCN000046800000046800FN00000000020220901000046800NNM   20220707132513    1W    00000180000000625000000000032G2    AISUAI  000000000000IX427023
BI00B32G2    SA22092 MW     202208171801W003960              IVSSH 0.5F G             CCN000043200000043200FN00000000020220901000043200NNM   20220707132513    1W    00000180000000625000000000032G2    AISUAI  000000000000IX128022
BI00B32G2    SA22093 MW     202208241801W003960              IVSSH 0.5F G             CCN000039600000039600FN00000000020220901000039600NNM   20220707132513    1W    00000180000000625000000000032G2    AISUAI  000000000000IX228021
BI00B32G2    SA22094 MW     202208311801W003960              IVSSH 0.5F G             CCN000021600000021600FN00000000020220901000021600NNM   20220707132513    1W    00000180000000625000000000032G2    AISUAI  000000000000IX328019
BI00B32G2    SA22091 MW     202208101801W003990              IVSSH 0.5F L             CCN000050400000050400FN00000000020220901000050400NNM   20220707132513    1W    00000180000000625000000000032G2    AISUAI  000000000000IX427024
BI00B32G2    SA22092 MW     202208171801W003990              IVSSH 0.5F L             CCN000043200000043200FN00000000020220901000043200NNM   20220707132513    1W    00000180000000625000000000032G2    AISUAI  000000000000IX128023
BI00B32G2    SA22093 MW     202208241801W003990              IVSSH 0.5F L             CCN000034200000034200FN00000000020220901000034200NNM   20220707132513    1W    00000180000000625000000000032G2    AISUAI  000000000000IX228022
BI00B32G2    SA22094 MW     202208311801W003990              IVSSH 0.5F L             CCN000023400000023400FN00000000020220901000023400NNM   20220707132513    1W    00000180000000625000000000032G2    AISUAI  000000000000IX328020
BI00B32G2    SA22091 MW     202208101801W004030              IVSSH 0.75F B            CCN000007800000007800FN00000000020220901000007800NNM   20220707132513    1W    00000130000000882000000000032G2    AISUAI  000000000000IX427025
BI00B32G2    SA22092 MW     202208171801W004030              IVSSH 0.75F B            CCN000005200000005200FN00000000020220901000005200NNM   20220707132513    1W    00000130000000882000000000032G2    AISUAI  000000000000IX128024
BI00B32G2    SA22093 MW     202208241801W004030              IVSSH 0.75F B            CCN000005200000005200FN00000000020220901000005200NNM   20220707132513    1W    00000130000000882000000000032G2    AISUAI  000000000000IX228023
BI00B32G2    SA22094 MW     202208311801W004030              IVSSH 0.75F B            CCN000005200000005200FN00000000020220901000005200NNM   20220707132513    1W    00000130000000882000000000032G2    AISUAI  000000000000IX328021
BI00B32G2    SA22091 MW     202208101801W006930              IVSSH 0.35F B            CCN000022500000022500FN00000000020220901000022500NNM   20220707132513    1W    00000250000000452000000000032G2    AISUAI  000000000000IX427026
BI00B32G2    SA22092 MW     202208171801W006930              IVSSH 0.35F B            CCN000017500000017500FN00000000020220901000017500NNM   20220707132513    1W    00000250000000452000000000032G2    AISUAI  000000000000IX128025
BI00B32G2    SA22093 MW     202208241801W006930              IVSSH 0.35F B            CCN000017500000017500FN00000000020220901000017500NNM   20220707132513    1W    00000250000000452000000000032G2    AISUAI  000000000000IX228024
BI00B32G2    SA22094 MW     202208311801W006930              IVSSH 0.35F B            CCN000015000000015000FN00000000020220901000015000NNM   20220707132513    1W    00000250000000452000000000032G2    AISUAI  000000000000IX328022
BI00B32G2    SA22091 MW     202208101801W006941              IVSSH 0.35F GY           CCN000015000000015000FN00000000020220901000015000NNM   20220707132513    1W    00000250000000452000000000032G2    AISUAI  000000000000IX427028
BI00B32G2    SA22092 MW     202208171801W006941              IVSSH 0.35F GY           CCN000010000000010000FN00000000020220901000010000NNM   20220707132513    1W    00000250000000452000000000032G2    AISUAI  000000000000IX128027
BI00B32G2    SA22093 MW     202208241801W006941              IVSSH 0.35F GY           CCN000010000000010000FN00000000020220901000010000NNM   20220707132513    1W    00000250000000452000000000032G2    AISUAI  000000000000IX228026
BI00B32G2    SA22094 MW     202208311801W006941              IVSSH 0.35F GY           CCN000007500000007500FN00000000020220901000007500NNM   20220707132513    1W    00000250000000452000000000032G2    AISUAI  000000000000IX328024
BI00B32G2    SA22091 MW     202208101801W006960              IVSSH 0.35F G            CCN000012500000012500FN00000000020220901000012500NNM   20220707132513    1W    00000250000000452000000000032G2    AISUAI  000000000000IX427027
BI00B32G2    SA22092 MW     202208171801W006960              IVSSH 0.35F G            CCN000010000000010000FN00000000020220901000010000NNM   20220707132513    1W    00000250000000452000000000032G2    AISUAI  000000000000IX128026
BI00B32G2    SA22093 MW     202208241801W006960              IVSSH 0.35F G            CCN000007500000007500FN00000000020220901000007500NNM   20220707132513    1W    00000250000000452000000000032G2    AISUAI  000000000000IX228025
BI00B32G2    SA22094 MW     202208311801W006960              IVSSH 0.35F G            CCN000007500000007500FN00000000020220901000007500NNM   20220707132513    1W    00000250000000452000000000032G2    AISUAI  000000000000IX328023
BI00B32G2    SA22091 MW     202208101801W006990              IVSSH 0.35F L            CCN000025000000025000FN00000000020220901000025000NNM   20220707132513    1W    00000250000000452000000000032G2    AISUAI  000000000000IX427029
BI00B32G2    SA22092 MW     202208171801W006990              IVSSH 0.35F L            CCN000020000000020000FN00000000020220901000020000NNM   20220707132513    1W    00000250000000452000000000032G2    AISUAI  000000000000IX128028
BI00B32G2    SA22093 MW     202208241801W006990              IVSSH 0.35F L            CCN000015000000015000FN00000000020220901000015000NNM   20220707132513    1W    00000250000000452000000000032G2    AISUAI  000000000000IX228027
BI00B32G2    SA22094 MW     202208311801W006990              IVSSH 0.35F L            CCN000010000000010000FN00000000020220901000010000NNM   20220707132513    1W    00000250000000452000000000032G2    AISUAI  000000000000IX328025
BI00B32G2    SA22091 MW     202208101801W006992              IVSSH 0.35F V            CCN000012500000012500FN00000000020220901000012500NNM   20220707132513    1W    00000250000000452000000000032G2    AISUAI  000000000000IX427030
BI00B32G2    SA22092 MW     202208171801W006992              IVSSH 0.35F V            CCN000010000000010000FN00000000020220901000010000NNM   20220707132513    1W    00000250000000452000000000032G2    AISUAI  000000000000IX128029
BI00B32G2    SA22093 MW     202208241801W006992              IVSSH 0.35F V            CCN000007500000007500FN00000000020220901000007500NNM   20220707132513    1W    00000250000000452000000000032G2    AISUAI  000000000000IX228028
BI00B32G2    SA22094 MW     202208311801W006992              IVSSH 0.35F V            CCN000007500000007500FN00000000020220901000007500NNM   20220707132513    1W    00000250000000452000000000032G2    AISUAI  000000000000IX328026
BI00B32G2    @SA22091 MW    20220810181B32102Y6              AVSSCS 0.5FX2 DGY/G      CCN000000300000000300FN00000000020220901000000300NNM   20220707132508    1W    00000030000002903000000000032G2    AISUAI  000000000000IX427003
BI00B32G2    @SA22092 MW    20220817181B32102Y6              AVSSCS 0.5FX2 DGY/G      CCN000000300000000300FN00000000020220901000000300NNM   20220707132508    1W    00000030000002903000000000032G2    AISUAI  000000000000IX128003
BI00B32G2    @SA22091 MW    20220810181D6903930              AVSSHCS 0.5FX1 B         CCN000000400000000400FN00000000020220901000000400NNM   20220707132508    1W    00000040000002285000000000032G2    AISUAI  000000000000IX427004
BI00B32G2    @SA22092 MW    20220817181D6903930              AVSSHCS 0.5FX1 B         CCN000000400000000400FN00000000020220901000000400NNM   20220707132508    1W    00000040000002285000000000032G2    AISUAI  000000000000IX128004
BI00B32G2    @SA22093 MW    20220824181D6903930              AVSSHCS 0.5FX1 B         CCN000000400000000400FN00000000020220901000000400NNM   20220707132508    1W    00000040000002285000000000032G2    AISUAI  000000000000IX228003
BI00B32G2    @SA22091 MW    20220810181D6910230              AVSSHCS 0.5FX2 B         CCN000011400000011400FN00000000020220901000011400NNM   20220707132508    1W    00000030000002385000000000032G2    AISUAI  000000000000IX427005
BI00B32G2    @SA22092 MW    20220817181D6910230              AVSSHCS 0.5FX2 B         CCN000008400000008400FN00000000020220901000008400NNM   20220707132508    1W    00000030000002385000000000032G2    AISUAI  000000000000IX128005
BI00B32G2    @SA22093 MW    20220824181D6910230              AVSSHCS 0.5FX2 B         CCN000005400000005400FN00000000020220901000005400NNM   20220707132508    1W    00000030000002385000000000032G2    AISUAI  000000000000IX228004
BI00B32G2    @SA22094 MW    20220831181D6910230              AVSSHCS 0.5FX2 B         CCN000003300000003300FN00000000020220901000003300NNM   20220707132508    1W    00000030000002385000000000032G2    AISUAI  000000000000IX328003
BI00B32G2    @SA22091 MW    20220810181D6910237              AVSSHCS 0.5FX2 B/Y       CCN000000300000000300FN00000000020220901000000300NNM   20220707132508    1W    00000030000002385000000000032G2    AISUAI  000000000000IX427006
BI00B32G2    @SA22091 MW    20220810181E50007ZZ              AVSSCS-S 0.5FX1 DGY/L    CCN000002800000002800FN00000000020220901000002800NNM   20220707132508    1W    00000040000001909700000000032G2    AISUAI  000000000000IX427007
BI00B32G2    @SA22092 MW    20220817181E50007ZZ              AVSSCS-S 0.5FX1 DGY/L    CCN000002400000002400FN00000000020220901000002400NNM   20220707132508    1W    00000040000001909700000000032G2    AISUAI  000000000000IX128006
BI00B32G2    @SA22093 MW    20220824181E50007ZZ              AVSSCS-S 0.5FX1 DGY/L    CCN000002000000002000FN00000000020220901000002000NNM   20220707132508    1W    00000040000001909700000000032G2    AISUAI  000000000000IX228005
BI00B32G2    @SA22094 MW    20220831181E50007ZZ              AVSSCS-S 0.5FX1 DGY/L    CCN000001200000001200FN00000000020220901000001200NNM   20220707132508    1W    00000040000001909700000000032G2    AISUAI  000000000000IX328004
BI00B32G2    @SA22091 MW    20220810181E50016ZZ              AVSSCS-S 0.5FX2 DGY/R    CCN000004500000004500FN00000000020220901000004500NNM   20220707132508    1W    00000030000003096000000000032G2    AISUAI  000000000000IX427008
BI00B32G2    @SA22092 MW    20220817181E50016ZZ              AVSSCS-S 0.5FX2 DGY/R    CCN000003600000003600FN00000000020220901000003600NNM   20220707132508    1W    00000030000003096000000000032G2    AISUAI  000000000000IX128007
BI00B32G2    @SA22093 MW    20220824181E50016ZZ              AVSSCS-S 0.5FX2 DGY/R    CCN000003000000003000FN00000000020220901000003000NNM   20220707132508    1W    00000030000003096000000000032G2    AISUAI  000000000000IX228006
BI00B32G2    @SA22094 MW    20220831181E50016ZZ              AVSSCS-S 0.5FX2 DGY/R    CCN000002400000002400FN00000000020220901000002400NNM   20220707132508    1W    00000030000003096000000000032G2    AISUAI  000000000000IX328005
BI00B32G2    @SA22091 MW    20220810181F21009ZZ              AVSSHCS-S 0.5FX2 B       CCN000009000000009000FN00000000020220901000009000NNM   20220707132508    1W    00000030000002531400000000032G2    AISUAI  000000000000IX427009
BI00B32G2    @SA22092 MW    20220817181F21009ZZ              AVSSHCS-S 0.5FX2 B       CCN000006600000006600FN00000000020220901000006600NNM   20220707132508    1W    00000030000002531400000000032G2    AISUAI  000000000000IX128008
BI00B32G2    @SA22093 MW    20220824181F21009ZZ              AVSSHCS-S 0.5FX2 B       CCN000005400000005400FN00000000020220901000005400NNM   20220707132508    1W    00000030000002531400000000032G2    AISUAI  000000000000IX228007
BI00B32G2    @SA22094 MW    20220831181F21009ZZ              AVSSHCS-S 0.5FX2 B       CCN000003900000003900FN00000000020220901000003900NNM   20220707132508    1W    00000030000002531400000000032G2    AISUAI  000000000000IX328006
BI00B32G2    SA22091HMW     202208101801W006980              IVSSH 0.35F BR           CCN000005000000005000FN00000000020220901000005000NNM   20220707132514    1W    00000250000000452000000000032G2    AISUAI  000000000000IY427003
BI00B32G2    SA22092HMW     202208171801W006980              IVSSH 0.35F BR           CCN000005000000005000FN00000000020220901000005000NNM   20220707132514    1W    00000250000000452000000000032G2    AISUAI  000000000000IY128002
BI00B32G2    SA22093HMW     202208241801W006980              IVSSH 0.35F BR           CCN000005000000005000FN00000000020220901000005000NNM   20220707132514    1W    00000250000000452000000000032G2    AISUAI  000000000000IY228002
BI00B32G2    SA22094HMW     202208311801W006980              IVSSH 0.35F BR           CCN000002500000002500FN00000000020220901000002500NNM   20220707132514    1W    00000250000000452000000000032G2    AISUAI  000000000000IY328002
BI00B32G2    @SA22091HMW    20220810181B32116Z5              AVSSCS 0.3FX2 DGY/L      CCN000001400000001400FN00000000020220901000001400NNM   20220707132510    1W    00000035000002276000000000032G2    AISUAI  000000000000IY427002
BI00B32G2    @SA22092HMW    20220817181B32116Z5              AVSSCS 0.3FX2 DGY/L      CCN000001050000001050FN00000000020220901000001050NNM   20220707132510    1W    00000035000002276000000000032G2    AISUAI  000000000000IY128001
BI00B32G2    @SA22093HMW    20220824181B32116Z5              AVSSCS 0.3FX2 DGY/L      CCN000000700000000700FN00000000020220901000000700NNM   20220707132510    1W    00000035000002276000000000032G2    AISUAI  000000000000IY228001
BI00B32G2    @SA22094HMW    20220831181B32116Z5              AVSSCS 0.3FX2 DGY/L      CCN000000700000000700FN00000000020220901000000700NNM   20220707132510    1W    00000035000002276000000000032G2    AISUAI  000000000000IY328001
BI00B32G2    SA22091JMW     2022081018007704170              AVSS 1.25F Y             CCN000000800000000800FN00000000020220901000000800NNM   20220707132515    1W    00000080000001389000000000032G2    AISUAI  000000000000IZ427010
BI00B32G2    SA22092JMW     2022081718007704170              AVSS 1.25F Y             CCN000000800000000800FN00000000020220901000000800NNM   20220707132515    1W    00000080000001389000000000032G2    AISUAI  000000000000IZ128009
BI00B32G2    SA22091JMW     202208101801W003930              IVSSH 0.5F B             CCN000072000000072000FN00000000020220901000072000NNM   20220707132515    1W    00000180000000625000000000032G2    AISUAI  000000000000IZ427011
BI00B32G2    SA22092JMW     202208171801W003930              IVSSH 0.5F B             CCN000054000000054000FN00000000020220901000054000NNM   20220707132515    1W    00000180000000625000000000032G2    AISUAI  000000000000IZ128010
BI00B32G2    SA22093JMW     202208241801W003930              IVSSH 0.5F B             CCN000045000000045000FN00000000020220901000045000NNM   20220707132515    1W    00000180000000625000000000032G2    AISUAI  000000000000IZ228009
BI00B32G2    SA22094JMW     202208311801W003930              IVSSH 0.5F B             CCN000034200000034200FN00000000020220901000034200NNM   20220707132515    1W    00000180000000625000000000032G2    AISUAI  000000000000IZ328009
BI00B32G2    SA22091JMW     202208101801W003940              IVSSH 0.5F W             CCN000075600000075600FN00000000020220901000075600NNM   20220707132515    1W    00000180000000625000000000032G2    AISUAI  000000000000IZ427019
BI00B32G2    SA22092JMW     202208171801W003940              IVSSH 0.5F W             CCN000057600000057600FN00000000020220901000057600NNM   20220707132515    1W    00000180000000625000000000032G2    AISUAI  000000000000IZ128018
BI00B32G2    SA22093JMW     202208241801W003940              IVSSH 0.5F W             CCN000039600000039600FN00000000020220901000039600NNM   20220707132515    1W    00000180000000625000000000032G2    AISUAI  000000000000IZ228016
BI00B32G2    SA22094JMW     202208311801W003940              IVSSH 0.5F W             CCN000021600000021600FN00000000020220901000021600NNM   20220707132515    1W    00000180000000625000000000032G2    AISUAI  000000000000IZ328016
BI00B32G2    SA22091JMW     202208101801W003941              IVSSH 0.5F GY            CCN000010800000010800FN00000000020220901000010800NNM   20220707132515    1W    00000180000000625000000000032G2    AISUAI  000000000000IZ427013
BI00B32G2    SA22092JMW     202208171801W003941              IVSSH 0.5F GY            CCN000007200000007200FN00000000020220901000007200NNM   20220707132515    1W    00000180000000625000000000032G2    AISUAI  000000000000IZ128012
BI00B32G2    SA22093JMW     202208241801W003941              IVSSH 0.5F GY            CCN000007200000007200FN00000000020220901000007200NNM   20220707132515    1W    00000180000000625000000000032G2    AISUAI  000000000000IZ228011
BI00B32G2    SA22094JMW     202208311801W003941              IVSSH 0.5F GY            CCN000005400000005400FN00000000020220901000005400NNM   20220707132515    1W    00000180000000625000000000032G2    AISUAI  000000000000IZ328011
BI00B32G2    SA22091JMW     202208101801W003943              IVSSH 0.5F W/B           CCN000018000000018000FN00000000020220901000018000NNM   20220707132515    1W    00000180000000625000000000032G2    AISUAI  000000000000IZ427020
BI00B32G2    SA22092JMW     202208171801W003943              IVSSH 0.5F W/B           CCN000012600000012600FN00000000020220901000012600NNM   20220707132515    1W    00000180000000625000000000032G2    AISUAI  000000000000IZ128019
BI00B32G2    SA22093JMW     202208241801W003943              IVSSH 0.5F W/B           CCN000009000000009000FN00000000020220901000009000NNM   20220707132515    1W    00000180000000625000000000032G2    AISUAI  000000000000IZ228017
BI00B32G2    SA22094JMW     202208311801W003943              IVSSH 0.5F W/B           CCN000005400000005400FN00000000020220901000005400NNM   20220707132515    1W    00000180000000625000000000032G2    AISUAI  000000000000IZ328017
BI00B32G2    SA22091JMW     202208101801W003950              IVSSH 0.5F R             CCN000072000000072000FN00000000020220901000072000NNM   20220707132515    1W    00000180000000625000000000032G2    AISUAI  000000000000IZ427016
BI00B32G2    SA22092JMW     202208171801W003950              IVSSH 0.5F R             CCN000054000000054000FN00000000020220901000054000NNM   20220707132515    1W    00000180000000625000000000032G2    AISUAI  000000000000IZ128015
BI00B32G2    SA22093JMW     202208241801W003950              IVSSH 0.5F R             CCN000045000000045000FN00000000020220901000045000NNM   20220707132515    1W    00000180000000625000000000032G2    AISUAI  000000000000IZ228014
BI00B32G2    SA22094JMW     202208311801W003950              IVSSH 0.5F R             CCN000028800000028800FN00000000020220901000028800NNM   20220707132515    1W    00000180000000625000000000032G2    AISUAI  000000000000IZ328014
BI00B32G2    SA22091JMW     202208101801W003952              IVSSH 0.5F P             CCN000012600000012600FN00000000020220901000012600NNM   20220707132515    1W    00000180000000625000000000032G2    AISUAI  000000000000IZ427015
BI00B32G2    SA22092JMW     202208171801W003952              IVSSH 0.5F P             CCN000010800000010800FN00000000020220901000010800NNM   20220707132515    1W    00000180000000625000000000032G2    AISUAI  000000000000IZ128014
BI00B32G2    SA22093JMW     202208241801W003952              IVSSH 0.5F P             CCN000009000000009000FN00000000020220901000009000NNM   20220707132515    1W    00000180000000625000000000032G2    AISUAI  000000000000IZ228013
BI00B32G2    SA22094JMW     202208311801W003952              IVSSH 0.5F P             CCN000007200000007200FN00000000020220901000007200NNM   20220707132515    1W    00000180000000625000000000032G2    AISUAI  000000000000IZ328013
BI00B32G2    SA22091JMW     202208101801W003961              IVSSH 0.5F LG            CCN000001800000001800FN00000000020220901000001800NNM   20220707132515    1W    00000180000000625000000000032G2    AISUAI  000000000000IZ427014
BI00B32G2    SA22092JMW     202208171801W003961              IVSSH 0.5F LG            CCN000001800000001800FN00000000020220901000001800NNM   20220707132515    1W    00000180000000625000000000032G2    AISUAI  000000000000IZ128013
BI00B32G2    SA22093JMW     202208241801W003961              IVSSH 0.5F LG            CCN000001800000001800FN00000000020220901000001800NNM   20220707132515    1W    00000180000000625000000000032G2    AISUAI  000000000000IZ228012
BI00B32G2    SA22094JMW     202208311801W003961              IVSSH 0.5F LG            CCN000001800000001800FN00000000020220901000001800NNM   20220707132515    1W    00000180000000625000000000032G2    AISUAI  000000000000IZ328012
BI00B32G2    SA22091JMW     202208101801W003970              IVSSH 0.5F Y             CCN000039600000039600FN00000000020220901000039600NNM   20220707132515    1W    00000180000000625000000000032G2    AISUAI  000000000000IZ427021
BI00B32G2    SA22092JMW     202208171801W003970              IVSSH 0.5F Y             CCN000028800000028800FN00000000020220901000028800NNM   20220707132515    1W    00000180000000625000000000032G2    AISUAI  000000000000IZ128020
BI00B32G2    SA22093JMW     202208241801W003970              IVSSH 0.5F Y             CCN000021600000021600FN00000000020220901000021600NNM   20220707132515    1W    00000180000000625000000000032G2    AISUAI  000000000000IZ228018
BI00B32G2    SA22094JMW     202208311801W003970              IVSSH 0.5F Y             CCN000014400000014400FN00000000020220901000014400NNM   20220707132515    1W    00000180000000625000000000032G2    AISUAI  000000000000IZ328018
BI00B32G2    SA22091JMW     202208101801W003980              IVSSH 0.5F BR            CCN000012600000012600FN00000000020220901000012600NNM   20220707132515    1W    00000180000000625000000000032G2    AISUAI  000000000000IZ427012
BI00B32G2    SA22092JMW     202208171801W003980              IVSSH 0.5F BR            CCN000010800000010800FN00000000020220901000010800NNM   20220707132515    1W    00000180000000625000000000032G2    AISUAI  000000000000IZ128011
BI00B32G2    SA22093JMW     202208241801W003980              IVSSH 0.5F BR            CCN000010800000010800FN00000000020220901000010800NNM   20220707132515    1W    00000180000000625000000000032G2    AISUAI  000000000000IZ228010
BI00B32G2    SA22094JMW     202208311801W003980              IVSSH 0.5F BR            CCN000007200000007200FN00000000020220901000007200NNM   20220707132515    1W    00000180000000625000000000032G2    AISUAI  000000000000IZ328010
BI00B32G2    SA22091JMW     202208101801W003991              IVSSH 0.5F SB            CCN000001800000001800FN00000000020220901000001800NNM   20220707132515    1W    00000180000000625000000000032G2    AISUAI  000000000000IZ427017
BI00B32G2    SA22092JMW     202208171801W003991              IVSSH 0.5F SB            CCN000001800000001800FN00000000020220901000001800NNM   20220707132515    1W    00000180000000625000000000032G2    AISUAI  000000000000IZ128016
BI00B32G2    SA22091JMW     202208101801W003992              IVSSH 0.5F V             CCN000012600000012600FN00000000020220901000012600NNM   20220707132515    1W    00000180000000625000000000032G2    AISUAI  000000000000IZ427018
BI00B32G2    SA22092JMW     202208171801W003992              IVSSH 0.5F V             CCN000010800000010800FN00000000020220901000010800NNM   20220707132515    1W    00000180000000625000000000032G2    AISUAI  000000000000IZ128017
BI00B32G2    SA22093JMW     202208241801W003992              IVSSH 0.5F V             CCN000009000000009000FN00000000020220901000009000NNM   20220707132515    1W    00000180000000625000000000032G2    AISUAI  000000000000IZ228015
BI00B32G2    SA22094JMW     202208311801W003992              IVSSH 0.5F V             CCN000005400000005400FN00000000020220901000005400NNM   20220707132515    1W    00000180000000625000000000032G2    AISUAI  000000000000IZ328015
BI00B32G2    SA22091JMW     202208101801W004050              IVSSH 0.75F R            CCN000005200000005200FN00000000020220901000005200NNM   20220707132515    1W    00000130000000882000000000032G2    AISUAI  000000000000IZ427027
BI00B32G2    SA22092JMW     202208171801W004050              IVSSH 0.75F R            CCN000003900000003900FN00000000020220901000003900NNM   20220707132515    1W    00000130000000882000000000032G2    AISUAI  000000000000IZ128026
BI00B32G2    SA22093JMW     202208241801W004050              IVSSH 0.75F R            CCN000002600000002600FN00000000020220901000002600NNM   20220707132515    1W    00000130000000882000000000032G2    AISUAI  000000000000IZ228023
BI00B32G2    SA22094JMW     202208311801W004050              IVSSH 0.75F R            CCN000002600000002600FN00000000020220901000002600NNM   20220707132515    1W    00000130000000882000000000032G2    AISUAI  000000000000IZ328022
BI00B32G2    SA22091JMW     202208101801W004052              IVSSH 0.75F P            CCN000001300000001300FN00000000020220901000001300NNM   20220707132515    1W    00000130000000882000000000032G2    AISUAI  000000000000IZ427026
BI00B32G2    SA22092JMW     202208171801W004052              IVSSH 0.75F P            CCN000001300000001300FN00000000020220901000001300NNM   20220707132515    1W    00000130000000882000000000032G2    AISUAI  000000000000IZ128025
BI00B32G2    SA22091JMW     202208101801W004060              IVSSH 0.75F G            CCN000015600000015600FN00000000020220901000015600NNM   20220707132515    1W    00000130000000882000000000032G2    AISUAI  000000000000IZ427023
BI00B32G2    SA22092JMW     202208171801W004060              IVSSH 0.75F G            CCN000011700000011700FN00000000020220901000011700NNM   20220707132515    1W    00000130000000882000000000032G2    AISUAI  000000000000IZ128022
BI00B32G2    SA22093JMW     202208241801W004060              IVSSH 0.75F G            CCN000009100000009100FN00000000020220901000009100NNM   20220707132515    1W    00000130000000882000000000032G2    AISUAI  000000000000IZ228020
BI00B32G2    SA22094JMW     202208311801W004060              IVSSH 0.75F G            CCN000007800000007800FN00000000020220901000007800NNM   20220707132515    1W    00000130000000882000000000032G2    AISUAI  000000000000IZ328020
BI00B32G2    SA22091JMW     202208101801W004061              IVSSH 0.75F LG           CCN000006500000006500FN00000000020220901000006500NNM   20220707132515    1W    00000130000000882000000000032G2    AISUAI  000000000000IZ427025
BI00B32G2    SA22092JMW     202208171801W004061              IVSSH 0.75F LG           CCN000003900000003900FN00000000020220901000003900NNM   20220707132515    1W    00000130000000882000000000032G2    AISUAI  000000000000IZ128024
BI00B32G2    SA22093JMW     202208241801W004061              IVSSH 0.75F LG           CCN000003900000003900FN00000000020220901000003900NNM   20220707132515    1W    00000130000000882000000000032G2    AISUAI  000000000000IZ228022
BI00B32G2    SA22094JMW     202208311801W004061              IVSSH 0.75F LG           CCN000002600000002600FN00000000020220901000002600NNM   20220707132515    1W    00000130000000882000000000032G2    AISUAI  000000000000IZ328021
BI00B32G2    SA22091JMW     202208101801W004070              IVSSH 0.75F Y            CCN000001300000001300FN00000000020220901000001300NNM   20220707132515    1W    00000130000000882000000000032G2    AISUAI  000000000000IZ427029
BI00B32G2    SA22092JMW     202208171801W004070              IVSSH 0.75F Y            CCN000001300000001300FN00000000020220901000001300NNM   20220707132515    1W    00000130000000882000000000032G2    AISUAI  000000000000IZ128027
BI00B32G2    SA22091JMW     202208101801W004080              IVSSH 0.75F BR           CCN000005200000005200FN00000000020220901000005200NNM   20220707132515    1W    00000130000000882000000000032G2    AISUAI  000000000000IZ427022
BI00B32G2    SA22092JMW     202208171801W004080              IVSSH 0.75F BR           CCN000003900000003900FN00000000020220901000003900NNM   20220707132515    1W    00000130000000882000000000032G2    AISUAI  000000000000IZ128021
BI00B32G2    SA22093JMW     202208241801W004080              IVSSH 0.75F BR           CCN000002600000002600FN00000000020220901000002600NNM   20220707132515    1W    00000130000000882000000000032G2    AISUAI  000000000000IZ228019
BI00B32G2    SA22094JMW     202208311801W004080              IVSSH 0.75F BR           CCN000001300000001300FN00000000020220901000001300NNM   20220707132515    1W    00000130000000882000000000032G2    AISUAI  000000000000IZ328019
BI00B32G2    SA22091JMW     202208101801W004090              IVSSH 0.75F L            CCN000001300000001300FN00000000020220901000001300NNM   20220707132515    1W    00000130000000882000000000032G2    AISUAI  000000000000IZ427024
BI00B32G2    SA22092JMW     202208171801W004090              IVSSH 0.75F L            CCN000001300000001300FN00000000020220901000001300NNM   20220707132515    1W    00000130000000882000000000032G2    AISUAI  000000000000IZ128023
BI00B32G2    SA22093JMW     202208241801W004090              IVSSH 0.75F L            CCN000001300000001300FN00000000020220901000001300NNM   20220707132515    1W    00000130000000882000000000032G2    AISUAI  000000000000IZ228021
BI00B32G2    SA22091JMW     202208101801W004092              IVSSH 0.75F V            CCN000001200000001300FN00000000020220901000001300NNM   20220707132515    1W    00000130000000882000000000032G2    AISUAI  000000000000IZ427028
BI00B32G2    SA22091JMW     202208101801W006940              IVSSH 0.35F W            CCN000030000000030000FN00000000020220901000030000NNM   20220707132515    1W    00000250000000452000000000032G2    AISUAI  000000000000IZ427034
BI00B32G2    SA22092JMW     202208171801W006940              IVSSH 0.35F W            CCN000022500000022500FN00000000020220901000022500NNM   20220707132515    1W    00000250000000452000000000032G2    AISUAI  000000000000IZ128032
BI00B32G2    SA22093JMW     202208241801W006940              IVSSH 0.35F W            CCN000017500000017500FN00000000020220901000017500NNM   20220707132515    1W    00000250000000452000000000032G2    AISUAI  000000000000IZ228028
BI00B32G2    SA22094JMW     202208311801W006940              IVSSH 0.35F W            CCN000012500000012500FN00000000020220901000012500NNM   20220707132515    1W    00000250000000452000000000032G2    AISUAI  000000000000IZ328027
BI00B32G2    SA22091JMW     202208101801W006950              IVSSH 0.35F R            CCN000015000000015000FN00000000020220901000015000NNM   20220707132515    1W    00000250000000452000000000032G2    AISUAI  000000000000IZ427032
BI00B32G2    SA22092JMW     202208171801W006950              IVSSH 0.35F R            CCN000010000000010000FN00000000020220901000010000NNM   20220707132515    1W    00000250000000452000000000032G2    AISUAI  000000000000IZ128030
BI00B32G2    SA22093JMW     202208241801W006950              IVSSH 0.35F R            CCN000010000000010000FN00000000020220901000010000NNM   20220707132515    1W    00000250000000452000000000032G2    AISUAI  000000000000IZ228026
BI00B32G2    SA22094JMW     202208311801W006950              IVSSH 0.35F R            CCN000007500000007500FN00000000020220901000007500NNM   20220707132515    1W    00000250000000452000000000032G2    AISUAI  000000000000IZ328025
BI00B32G2    SA22091JMW     202208101801W006952              IVSSH 0.35F P            CCN000015000000015000FN00000000020220901000015000NNM   20220707132515    1W    00000250000000452000000000032G2    AISUAI  000000000000IZ427031
BI00B32G2    SA22092JMW     202208171801W006952              IVSSH 0.35F P            CCN000010000000010000FN00000000020220901000010000NNM   20220707132515    1W    00000250000000452000000000032G2    AISUAI  000000000000IZ128029
BI00B32G2    SA22093JMW     202208241801W006952              IVSSH 0.35F P            CCN000010000000010000FN00000000020220901000010000NNM   20220707132515    1W    00000250000000452000000000032G2    AISUAI  000000000000IZ228025
BI00B32G2    SA22094JMW     202208311801W006952              IVSSH 0.35F P            CCN000007500000007500FN00000000020220901000007500NNM   20220707132515    1W    00000250000000452000000000032G2    AISUAI  000000000000IZ328024
BI00B32G2    SA22091JMW     202208101801W006961              IVSSH 0.35F LG           CCN000012500000012500FN00000000020220901000012500NNM   20220707132515    1W    00000250000000452000000000032G2    AISUAI  000000000000IZ427030
BI00B32G2    SA22092JMW     202208171801W006961              IVSSH 0.35F LG           CCN000010000000010000FN00000000020220901000010000NNM   20220707132515    1W    00000250000000452000000000032G2    AISUAI  000000000000IZ128028
BI00B32G2    SA22093JMW     202208241801W006961              IVSSH 0.35F LG           CCN000007500000007500FN00000000020220901000007500NNM   20220707132515    1W    00000250000000452000000000032G2    AISUAI  000000000000IZ228024
BI00B32G2    SA22094JMW     202208311801W006961              IVSSH 0.35F LG           CCN000005000000005000FN00000000020220901000005000NNM   20220707132515    1W    00000250000000452000000000032G2    AISUAI  000000000000IZ328023
BI00B32G2    SA22091JMW     202208101801W006970              IVSSH 0.35F Y            CCN000002500000002500FN00000000020220901000002500NNM   20220707132515    1W    00000250000000452000000000032G2    AISUAI  000000000000IZ427035
BI00B32G2    SA22092JMW     202208171801W006970              IVSSH 0.35F Y            CCN000002500000002500FN00000000020220901000002500NNM   20220707132515    1W    00000250000000452000000000032G2    AISUAI  000000000000IZ128033
BI00B32G2    SA22091JMW     202208101801W006991              IVSSH 0.35F SB           CCN000010000000010000FN00000000020220901000010000NNM   20220707132515    1W    00000250000000452000000000032G2    AISUAI  000000000000IZ427033
BI00B32G2    SA22092JMW     202208171801W006991              IVSSH 0.35F SB           CCN000005000000005000FN00000000020220901000005000NNM   20220707132515    1W    00000250000000452000000000032G2    AISUAI  000000000000IZ128031
BI00B32G2    SA22093JMW     202208241801W006991              IVSSH 0.35F SB           CCN000002500000002500FN00000000020220901000002500NNM   20220707132515    1W    00000250000000452000000000032G2    AISUAI  000000000000IZ228027
BI00B32G2    SA22094JMW     202208311801W006991              IVSSH 0.35F SB           CCN000002500000002500FN00000000020220901000002500NNM   20220707132515    1W    00000250000000452000000000032G2    AISUAI  000000000000IZ328026
BI00B32G2    @SA22091JMW    20220810181F21016ZZ              AVSSHCS-S 0.5FX2 B/BR    CCN000001200000001200FN00000000020220901000001200NNM   20220707132511    1W    00000030000002531400000000032G2    AISUAI  000000000000IZ427008
BI00B32G2    SA22091NMW     2022081018007704061              AVSS 0.75F LG            CCN000001000000001000FN00000000020220901000001000NNM   20220707132516    1W    00000100000000943000000000032G2    AISUAI  000000000000IW427002
BI00B32G2    @SA22091NMW    20220810181B32102Z8              AVSSCS 0.5FX2 DGY/O      CCN000000600000000600FN00000000020220901000000600NNM   20220707132512    1W    00000030000002903000000000032G2    AISUAI  000000000000IW427001
BI00B32G2    @SA22092NMW    20220817181B32102Z8              AVSSCS 0.5FX2 DGY/O      CCN000000300000000300FN00000000020220901000000300NNM   20220707132512    1W    00000030000002903000000000032G2    AISUAI  000000000000IW128001
BI00B32G2    @SA22093NMW    20220824181B32102Z8              AVSSCS 0.5FX2 DGY/O      CCN000000300000000300FN00000000020220901000000300NNM   20220707132512    1W    00000030000002903000000000032G2    AISUAI  000000000000IW228001
BI00B32G2    @SA22094NMW    20220831181B32102Z8              AVSSCS 0.5FX2 DGY/O      CCN000000300000000300FN00000000020220901000000300NNM   20220707132512    1W    00000030000002903000000000032G2    AISUAI  000000000000IW328001
BI00B32G7    JW22092 MW     2022082518007703952              AVSS 0.5F P              CCN000001500000001500FN00000000020220901000001500NNM   20220707135115    1W    00000150000000674000000000032G7    JIJAI   000000000000JA228022
BI00B32G7    JW22092 MW     2022082518007703990              AVSS 0.5F L              CCN000003000000003000FN00000000020220901000003000NNM   20220707135115    1W    00000150000000674000000000032G7    JIJAI   000000000000JA228021
BI00B32G7    JW22093 MW     2022090118007703990              AVSS 0.5F L              CCN000003000000003000FN00000000020220901000003000NNM   20220707135115    1W    00000150000000674000000000032G7    JIJAI   000000000000JA328022
BI00B32G7    JW22094 MW     2022090818007703990              AVSS 0.5F L              CCN000003000000003000FN00000000020220901000003000NNM   20220707135115    1W    00000150000000674000000000032G7    JIJAI   000000000000JA428022
BI00B32G7    @JW22092 MW    20220825181AD2002ZZ              CIVUSAS-S 0.35X2 B       CCN000009450000009450FN00000000020220901000009450NNM   20220707135113    1W    00000045000001713700000000032G7    JIJAI   000000000000JA228007
BI00B32G7    @JW22093 MW    20220901181AD2002ZZ              CIVUSAS-S 0.35X2 B       CCN000022050000022050FN00000000020220901000022050NNM   20220707135113    1W    00000045000001713700000000032G7    JIJAI   000000000000JA328007
BI00B32G7    @JW22094 MW    20220908181AD2002ZZ              CIVUSAS-S 0.35X2 B       CCN000022500000022500FN00000000020220901000022500NNM   20220707135113    1W    00000045000001713700000000032G7    JIJAI   000000000000JA428007
BI00B32G7    @JW22092 MW    20220825181AD2008ZZ              CIVUSAS-S 0.5X2 B        CCN000011600000011600FN00000000020220901000011600NNM   20220707135113    1W    00000040000002028000000000032G7    JIJAI   000000000000JA228006
BI00B32G7    @JW22093 MW    20220901181AD2008ZZ              CIVUSAS-S 0.5X2 B        CCN000011200000011200FN00000000020220901000011200NNM   20220707135113    1W    00000040000002028000000000032G7    JIJAI   000000000000JA328006
BI00B32G7    @JW22094 MW    20220908181AD2008ZZ              CIVUSAS-S 0.5X2 B        CCN000010800000010800FN00000000020220901000010800NNM   20220707135113    1W    00000040000002028000000000032G7    JIJAI   000000000000JA428006
BI00B32G7    @JW22092 MW    20220825181E48032ZZ              CAVSAS-S 0.3X2 GY/P      CCN000000350000000350FN00000000020220901000000350NNM   20220707135113    1W    00000035000002008700000000032G7    JIJAI   000000000000JA228009
BI00B32G7    @JW22093 MW    20220901181E48032ZZ              CAVSAS-S 0.3X2 GY/P      CCN000001050000001050FN00000000020220901000001050NNM   20220707135113    1W    00000035000002008700000000032G7    JIJAI   000000000000JA328009
BI00B32G7    @JW22094 MW    20220908181E48032ZZ              CAVSAS-S 0.3X2 GY/P      CCN000001400000001400FN00000000020220901000001400NNM   20220707135113    1W    00000035000002008700000000032G7    JIJAI   000000000000JA428009
BI00B32G7    @JW22093 MW    20220901181E48040ZZ              CAVSAS-S 0.3X2 GY/V      CCN000008400000008400FN00000000020220901000008400NNM   20220707135113    1W    00000035000002008700000000032G7    JIJAI   000000000000JA328010
BI00B32G7    @JW22094 MW    20220908181E48040ZZ              CAVSAS-S 0.3X2 GY/V      CCN000009450000009450FN00000000020220901000009450NNM   20220707135113    1W    00000035000002008700000000032G7    JIJAI   000000000000JA428010
BI00B32G7    @JW22091 MW    20220818181E48060ZZ              CAVSAS-S 0.5X2 GY/V      CCN000005400000005400FN00000000020220901000005400NNM   20220707135113    1W    00000030000002561000000000032G7    JIJAI   000000000000JA128001
BI00B32G7    @JW22092 MW    20220825181E48060ZZ              CAVSAS-S 0.5X2 GY/V      CCN000005100000005100FN00000000020220901000005100NNM   20220707135113    1W    00000030000002561000000000032G7    JIJAI   000000000000JA228008
BI00B32G7    @JW22093 MW    20220901181E48060ZZ              CAVSAS-S 0.5X2 GY/V      CCN000004500000004500FN00000000020220901000004500NNM   20220707135113    1W    00000030000002561000000000032G7    JIJAI   000000000000JA328008
BI00B32G7    @JW22094 MW    20220908181E48060ZZ              CAVSAS-S 0.5X2 GY/V      CCN000004500000004500FN00000000020220901000004500NNM   20220707135113    1W    00000030000002561000000000032G7    JIJAI   000000000000JA428008
BI00B32G7    @JW22091 MW    20220818181E48078ZZ              CAVSAS-S 0.3X2 W/R       CCN000000350000000350FN00000000020220901000000350NNM   20220707135113    1W    00000035000002008700000000032G7    JIJAI   000000000000JA128002
BI00B32G7    @JW22091LMW    20220818181AD2020ZZ              CIVUSAS-S 0.5X2 B(R,G)   CCN000004000000004000FN00000000020220901000004000NNM   20220707135114    1W    00000040000002028000000000032G7    JIJAI   000000000000JL128001
BI00B32G7    @JW22092LMW    20220825181AD2020ZZ              CIVUSAS-S 0.5X2 B(R,G)   CCN000003200000003200FN00000000020220901000003200NNM   20220707135114    1W    00000040000002028000000000032G7    JIJAI   000000000000JL228001
BI00B32G7    @JW22093LMW    20220901181AD2020ZZ              CIVUSAS-S 0.5X2 B(R,G)   CCN000002800000002800FN00000000020220901000002800NNM   20220707135114    1W    00000040000002028000000000032G7    JIJAI   000000000000JL328001
BI00B32G7    @JW22094LMW    20220908181AD2020ZZ              CIVUSAS-S 0.5X2 B(R,G)   CCN000002800000002800FN00000000020220901000002800NNM   20220707135114    1W    00000040000002028000000000032G7    JIJAI   000000000000JL428001
