BI00A1200    #CE22-MN-0074  202208047189-6524-30             SEALED FEMALE            CCN000000480000000480FN00000000020220701000000480NNED0120220712182925    2F0F  0000002400000058900000086641200    YCYC    005500360039
BI00A1200    #CE22-MN-0074  202208047189-6523-30             SEALED FEMALE            CCN000000240000000240FN00000000020220701000000240NNED0120220712182925    2F0F  0000002400000053400000081241200    YCYC    005500360039
BI00B32A7    ZZ2209ALMW     202208177123-1508                CONNECTOR                CCN000015000000015000FN00000000020220901000015000NNE   20220712182925    1F0F  00000100000000933000001174032A7    ZZZZY   005600390040
BI00B32A7    #ZZ2209ALMW    202208177158-3654-80             WIRE TUBE                CCN000080000000080000FN00000000020220901000080000NNE   20220712182925    2H0H  00004000000000104000000152232A7    ZZZZY   004300270014
BI00B32B7    4502206536     202207297283-3698-30             UNSEALED FEMALE          CCN000001540000001540FN00000000020220701000001540NNED0720220712182925B7  4N0N  00000154000000954800001150832B7    AXARNE-M005400370024
BI00B32CA    PTA32101       202207217289-3342                HOUSING FEMALE ASS'Y     CCN000060000000060000FN00000000020221001000060000NNED0020220712182925    1N0N  00000240000000686400000901432CA    YPYPY   005500360039
BI00B32CA    PTA32101       202207217289-3342-30             HOUSING FEMALE ASS'Y     CCN000067200000067200FN00000000020221001000067200NNED0020220712182925    1N0N  00000240000000686400000901432CA    YPYPY   005500360039
BI00B32CA    PTA32101       202207217289-3342-90             HOUSING FEMALE ASS'Y     CCN000016800000016800FN00000000020221001000016800NNED0020220712182925    1N0N  00000240000000686400000901432CA    YPYPY   005500360039
BI00B32CA    PTA32102       202207217289-3342                HOUSING FEMALE ASS'Y     CCN000036000000036000FN00000000020221001000036000NNED0020220712182925    1N0N  00000240000000686400000901432CA    YPYPY   005500360039
BI00B32CA    PTA32102       202207217289-3342-30             HOUSING FEMALE ASS'Y     CCN000043200000043200FN00000000020221001000043200NNED0020220712182925    1N0N  00000240000000686400000901432CA    YPYPY   005500360039
BI00B32CA    PTA32102       202207217289-3342-90             HOUSING FEMALE ASS'Y     CCN000012000000012000FN00000000020221001000012000NNED0020220712182925    1N0N  00000240000000686400000901432CA    YPYPY   005500360039
BI00B32CA    PTA32111       202207217196-0510-02             TERMINAL                 CCN000120000000120000FN00000000020221101000120000NNE00020220712182925    4P0P  00002400000000871200001034632CA    YPYPY   002800510028
BI00B32CA    PTA32112       202207217196-0510-02             TERMINAL                 CCN000024000000024000FN00000000020221101000024000NNE00020220712182925    4P0P  00002400000000871200001034632CA    YPYPY   002800510028
BI00B32CA    PTA32114       202207217196-0510-02             TERMINAL                 CCN000048000000048000FN00000000020221101000048000NNE00020220712182925    4P0P  00002400000000871200001034632CA    YPYPY   002800510028
BI00B32CH    SJ22083SMW     202207147283-1289-40             CONNECTOR HOUSING        CCN000017400000000000FY00000000020220801000000000NNMQ0820220712102411    1N0N  00000060000000679800000824832CH    SJSAMIJF005400370024
BI00B32CH    SJ22084SMW     202207217283-1289-40             CONNECTOR HOUSING        CCN000016200000000000FY00000000020220801000000000NNMQ0820220712102427    1N0N  00000060000000679800000824832CH    SJSAMIJF005400370024
BI00B32EJ    T220708P01     202208187283-5843                CONNECTOR                CCN000060000000030000FN00000000020220801000030000NNED0420220712182925EJ  1N0N  00000150000000889000001132032EJ    EJYKBO  005600390040
BI00B32EJ    #T220711P01    202207277123-6423-30             CONNECTOR                CCN000004000000004000FN00000000020220801000004000NNED0720220712182925EJ  2F0F  00000200000001002000001167632EJ    EJYKBO  005600390023
BI00B32EJ    #T220711P01    202207277158-3374-90             CONNECTOR WIRE SEAL      CCN000020000000020000FN00000000020220801000020000NNED0720220712182925EJ  2H0H  00002000000000172000000229332EJ    EJYKBO  002700430014
BI00B32EJ    T220711P02     202207277158-3070-80             RUBBER STOPPER           CCN000080000000080000FN00000000020220801000080000NNED0720220712182925EJ  1C0C  00004000000000276000000333332EJ    EJYKBO  002700430014
BI00B32EJ    T220711P04     202207277B58-3070-80             RUBBER STOPPER           CCN000080000000080000FN00000000020220801000080000NNED0720220712182925EJ  1C0C  00004000000000276000000333032EJ    EJYKBO  004300270014
BI00B32EJ    T220711P04     202207277116-4101-02             TERMINAL                 CCN000012000000012000FN00000000020220801000012000NNED0720220712182925EJ  4P0P  00001200000000582000000876232EJ    EJYKBO  006400630015
BI00B32EJ    #T220711P04    202207277157-7897-60             SEAL RUBBER              CCN000030000000030000FN00000000020220801000030000NNED0720220712182925EJ  2C0C  00001000000000132000000214732EJ    EJYKBO  002700430014
BI00B32EJ    T220711P03     202209017158-3070-80             RUBBER STOPPER           CCN000120000000120000FN00000000020220901000120000NNE   20220712182925EJ  1C0C  00004000000000276000000333332EJ    EJYKBO  002700430014
BI00B32EJ    #T220711P03    202209017283-8398-40             CONNECTOR                CCN000041580000041580FN00000000020220901000041580NNE   20220712182925EJ  2N0N  00000154000001007000001171332EJ    EJYKBO  005600390023
BI00B32EJ    #T220711P03    202209017158-3120-90             CONNECTOR WIRE SEAL      CCN000080000000080000FN00000000020220901000080000NNE   20220712182925EJ  2C0C  00002000000000136000000194032EJ    EJYKBO  002700430014
BI00B32EJ    T220711P05     202208117114-4100-02             TERMINAL                 CCN000216000000216000FN00000000020220901000216000NNE   20220712182925EJ  4P0P  00001800000000748800001077432EJ    EJYKBO  006400630017
BI00B32EJ    T220711P05     202208117114-4111-02             TERMINAL                 CCN000024000000024000FN00000000020220901000024000NNE   20220712182925EJ  4P0P  00001200000000758400001087032EJ    EJYKBO  006400630017
BI00B32EJ    T220708P01     202208257283-5843                CONNECTOR                CCN000030000000030000FN00000000020220801000030000NNED0420220712182925EJ  1N0N  00000150000000889000001132032EJ    EJYKBO  005600390040
BI00A32J1    394858         202207257114-4032                TERMINAL                 CCN000007500000007500FN00000000020220701000007500NNE00020220712182925    4P0P  00000750000000735000001063632J1    UKYEL-BL006400630017
BI00A32J1    395493         202208227298-1869-30             HOUSING FEMALE ASS'Y     CCN000002400000002400FN00000000020220801000002400NNED0020220712182925    4N0N  00000120000000737000000939832J1    UKYEL-BL005500360039
BI00A32J1    395822         202208087298-1869-30             HOUSING FEMALE ASS'Y     CCN000014400000014400FN00000000020220801000014400NNED0020220712182925    4N0N  00000120000000737000000939832J1    UKYEL-BL005500360039
BI00A32J1    396067         202207257298-1865-30             HOUSING FEMALE ASS'Y     CCN000002400000002400FN00000000020220701000002400NNE00020220712182925    4N0N  00000240000001003200001204532J1    UKYEL-BL005500360039
BI00A32J1    396067         202207257298-2280-30             HOUSING FEMALE ASS'Y     CCN000001920000001920FN00000000020220701000001920NNE00020220712182925    4N0N  00000192000001068000001216032J1    UKYEL-BL005500360039
BI00A32J1    396067         202207257298-2507-30             HOUSING FEMALE ASS'Y     CCN000001200000001200FN00000000020220701000001200NNE00020220712182925    4N0N  00000120000000713200000914532J1    UKYEL-BL005500360039
BI00B32K8    #K1220010970   202207227137-2717-50             SEALED CONNECTOR         CCN000008000000008000FN00000000020220801000008000NNMD0020220712182925    2C0C  00000400000000212800000284032K8    ELELCOM 002700430014
BI00A32K8    #K1220011073   202207207137-2718-50             SEALED CONNECTOR         CCN000005000000005000FN00000000020221001000005000NNMM0020220712182925    2C0C  00000100000000118300000236632K8    ELELCOM 002700430014
BI00B32K8    #K1220011105   202207227137-2717-50             SEALED CONNECTOR         CCN000012000000012000FN00000000020220901000012000NNMD0020220712182925    2C0C  00000400000000212800000284032K8    ELELCOM 002700430014
BI00B32K8    #K1220011105   202207227137-2718-50             SEALED CONNECTOR         CCN000006000000004000FN00000000020220901000004000NNMD0020220712182925    2C0C  00000100000000118300000236632K8    ELELCOM 002700430014
BI00A32K8    #K1220011106   202207207137-2717-50             SEALED CONNECTOR         CCN000016000000016000FN00000000020220901000016000NNMM0020220712182925    2C0C  00000400000000212800000284032K8    ELELCOM 002700430014
BI00A32K8    #K1220011106   202207207137-2718-50             SEALED CONNECTOR         CCN000005000000005000FN00000000020220901000005000NNMM0020220712182925    2C0C  00000100000000118300000236632K8    ELELCOM 002700430014
BI00A32K8    #K1220011107   202207207137-2717-50             SEALED CONNECTOR         CCN000012000000012000FN00000000020220901000012000NNMM0020220712182925    2C0C  00000400000000212800000284032K8    ELELCOM 002700430014
BI00A32K8    #K1220011107   202207207137-2718-50             SEALED CONNECTOR         CCN000005000000005000FN00000000020220901000005000NNMM0020220712182925    2C0C  00000100000000118300000236632K8    ELELCOM 002700430014
BI00A32K8    #K1220011109   202207207137-2718-50             SEALED CONNECTOR         CCN000005000000005000FN00000000020220901000005000NNMM0020220712182925    2C0C  00000100000000118300000236632K8    ELELCOM 002700430014
BI00A32K8    #K1220011142   202207207137-2718-50             SEALED CONNECTOR         CCN000002000000002000FN00000000020221001000002000NNMM0020220712182925    2C0C  00000100000000118300000236632K8    ELELCOM 002700430014
BI00A32K8    #K1220011152   202207207137-2200                CONNECTOR PACKING        CCN000010000000005000FN00000000020220901000005000NNMM0020220712182925    2C0C  00000500000000136000000211332K8    ELELCOM 004300270014
BI00A32K8    #K1220011181   202207207137-2200                CONNECTOR PACKING        CCN000005000000005000FN00000000020221001000005000NNMM0020220712182925    2C0C  00000500000000136000000211332K8    ELELCOM 004300270014
BI00A32K8    #K1220011189   202207207137-2200                CONNECTOR PACKING        CCN000005000000005000FN00000000020221001000005000NNMM0020220712182925    2C0C  00000500000000136000000211332K8    ELELCOM 004300270014
BI00A32K8    #K1220011189   202207207137-2717-50             SEALED CONNECTOR         CCN000012000000012000FN00000000020221001000012000NNMM0020220712182925    2C0C  00000400000000212800000284032K8    ELELCOM 002700430014
BI00A32K8    #K1220011189   202207207137-2718-50             SEALED CONNECTOR         CCN000006000000006000FN00000000020221001000006000NNMM0020220712182925    2C0C  00000100000000118300000236632K8    ELELCOM 002700430014
BI00B32K8    #K1220011222   202207227137-2200                CONNECTOR PACKING        CCN000010000000010000FN00000000020220901000010000NNMD0020220712182925    2C0C  00000500000000136000000211332K8    ELELCOM 004300270014
BI00A32K8    #K1220011223   202207207137-2200                CONNECTOR PACKING        CCN000010000000010000FN00000000020221001000010000NNMM0020220712182925    2C0C  00000500000000136000000211332K8    ELELCOM 004300270014
BI00A32K8    #K1220011283   202207207137-2200                CONNECTOR PACKING        CCN000005000000005000FN00000000020221101000005000NNMM0020220712182925    2C0C  00000500000000136000000211332K8    ELELCOM 004300270014
BI00B32M1    TCV208C        202207277116-4031                TERMINAL                 CCN000007500000007500FN00000000020220801000007500NNED0720220712182925    4P0P  00000750000000619500000904732M1    VNYEV   006400630015
BI00B32M1    TCV208C        202207277116-6041                TERMINAL                 CCN000018000000018000FN00000000020220801000018000NNED0720220712182925    4P0P  00000450000000716000001009632M1    VNYEV   006400630015
BI00B32M1    TCV208C        202207277196-1482-02             TERMINAL FEMALE          CCN000024000000024000FN00000000020220801000024000NNED0720220712182925    4P0P  00002400000000424800000710032M1    VNYEV   006400630015
BI00B32M4    #TL2083B       202207217198-4980-30             HOUSING FEMALE           CCN000006000000003600FN00000000020220801000003600NNEQ0020220712182925    2F0F  00000120000000840000000921032M4    SISAI   005400370024
BI00A32M4    #TL2083B       202207187198-4980-30             HOUSING FEMALE           CCN000001200000001200FN00000000020220801000001200NNEQ0020220712182925    2F0F  00000120000000840000000921032M4    SISAI   005400370024
BI00B32N1    NST2119BCU     202207147158-3167-80             WIRE SEAL                CCN000800000000800000FN00000000020220601000800000NNE00020220712182925    1C0C  00002000000000048000000109032N1    TAYIPL  002700430014
BI00B32N1    NST2121FCU     202207217283-5830-30             CONNECTOR                CCN000024000000024000FN00000000020220801000024000NNM00020220712182925    1N0N  00000600000000954000001104032N1    TAYIPL  005500360039
BI00B32N1    GMT2206        202207217283-9457-3W             CONNECTOR                CCN000001320000001320FN00000000020220701000001320NNED0720220712182925    4N0N  00000012000000515000001067032N1    TAYIPL  005600390023
BI00B32P8    TAPI-210A1     202208107114-4100-02             TERMINAL                 CCN000162000000162000FN00000000020221001000162000NNM   20220712182925    4P0P  00001800000000748800001077432P8    YIYTM   006400630017
BI00B32P8    TAPI-210A1     202208107114-5096-02             TERMINAL                 CCN000030000000030000FN00000000020221001000030000NNM   20220712182925    4P0P  00003000000000498000000792232P8    YIYTM   006400630015
BI00B32P8    TAPI-210A1     202208107116-4037                TERMINAL                 CCN000024000000024000FN00000000020221001000024000NNM   20220712182925    4P0P  00000600000000600000000894232P8    YIYTM   006400630015
BI00B32P8    TAPI-210A1     202208107116-4110-02             TERMINAL                 CCN000072000000072000FN00000000020221001000072000NNM   20220712182925    4P0P  00000900000000594000000882232P8    YIYTM   006400630015
BI00B32P8    TAPI-210A1     202208107116-4120-02             TERMINAL                 CCN000024000000024000FN00000000020221001000024000NNM   20220712182925    4P0P  00000600000000780000001073632P8    YIYTM   006400630015
BI00B32P8    TAPI-210A1     202208107116-4124-02             TERMINAL                 CCN000006000000006000FN00000000020221001000006000NNM   20220712182925    4P0P  00000300000000459900000753532P8    YIYTM   006400630015
BI00B32P8    TAPI-210A1     202208107116-5097-02             TERMINAL                 CCN000180000000180000FN00000000020221001000180000NNM   20220712182925    4P0P  00002250000000531000000816232P8    YIYTM   006400630015
BI00B32P8    TAPI-210A1     202208107183-2417                CONNECTOR HOUSING        CCN000002400000002400FN00000000020221001000002400NNM   20220712182925    4F0F  00000240000001137400001297732P8    YIYTM   005500360039
BI00B32P8    TAPI-210A1     202208107282-4577                HOUSING MALE ASS'Y       CCN000004800000004800FN00000000020221001000004800NNM   20220712182925    4N0N  00000240000000964800001174832P8    YIYTM   005500360039
BI00B32P8    TAPI-210A1     202208107282-8120-40             CONNECTOR HOUSING        CCN000003000000003000FN00000000020221001000003000NNM   20220712182925    1N0N  00000300000001356000001520032P8    YIYTM   005500360039
BI00B32P8    TAPI-210A1     202208107283-4577                CONNECTOR HOUSING        CCN000004800000004800FN00000000020221001000004800NNM   20220712182925    4N0N  00000480000000916800001136832P8    YIYTM   005500360039
BI00B32P8    TAPI-210A1     202208107283-6388-40             CONNECTOR                CCN000004000000004000FN00000000020221001000004000NNM   20220712182925    4N0N  00000200000001029000001173532P8    YIYTM   005500360039
BI00B32P8    TAPI-210A1     202208107283-7046-30             CONNECTOR                CCN000006000000006000FN00000000020221001000006000NNM   20220712182925    4N0N  00000100000001500000001630032P8    YIYTM   005600390040
BI00B32P8    TAPI-210A1     202208107288-3330-30             HOUSING MALE             CCN000001500000001500FN00000000020221001000001500NNM   20220712182925    4N0N  00000150000000866300001011232P8    YIYTM   005400370024
BI00B32P8    TAPI-210A1     202208107288-3332-30             HOUSING MALE             CCN000003000000003000FN00000000020221001000003000NNM   20220712182925    4N0N  00000150000000860700001005732P8    YIYTM   005400370024
BI00B32P8    TAPI-210A1     202208107382-1481-10             CONNECTOR                CCN000003200000003200FN00000000020221001000003200NNM   20220712182925    4N0N  00000080000001025000001183032P8    YIYTM   005600390040
BI00B32P8    TAPI-210A1     202208107470-3082                J/B COMPLETE ASS'Y       CCN000001200000001200FN00000000020221001000001200NNM   20220712182925    1J0J  00000002400001320000001570032P8    YIYTM   005500360039
BI00B32P8    TAPI-210A1     202208107327-6424-4W             BATTERY FUSE             CCN000001248000001248FN00000000020221001000001248NNM   20220712182925    4N0N  00000009600001109500001259632P8    YIYTM   005400370024
BI00B32P8    #TAPI-210A1    202208107158-3017                RUBBER STOPPER           CCN000020000000020000FN00000000020221001000020000NNM   20220712182925    2C0C  00001000000000375500000435032P8    YIYTM   002700430014
BI00B32P8    #TAPI-210A1    202208107182-2410                CONNECTOR HOUSING        CCN000004800000004800FN00000000020221001000004800NNM   20220712182925    2F0F  00000120000000959800001245632P8    YIYTM   005500360039
BI00B32P8    #TAPI-210A1    202208107183-2412-30             HOUSING                  CCN000001600000001600FN00000000020221001000001600NNM   20220712182925    2F0F  00000160000001059700001059732P8    YIYTM   005500360039
BI00B32P8    #TAPI-210A1    202208107183-2412-90             HOUSING                  CCN000003200000003200FN00000000020221001000003200NNM   20220712182925    2F0F  00000160000001065300001224432P8    YIYTM   005500360039
BI00B32P8    #TAPI-210A1    202208107183-2415                CONNECTOR HOUSING        CCN000004800000004800FN00000000020221001000004800NNM   20220712182925    2F0F  00000480000000798200001091432P8    YIYTM   005500360039
BI00B32P8    #TAPI-210A1    202208107187-3358-30             JOINT CONNECTOR          CCN000002400000002400FN00000000020221001000002400NNM   20220712182925    2F0F  00000120000000673200000940432P8    YIYTM   005600390040
BI00B32P8    #TAPI-210A1    202208107187-3359-60             JOINT CONNECTOR          CCN000002400000002400FN00000000020221001000002400NNM   20220712182925    2F0F  00000120000000763200001030432P8    YIYTM   005600390040
BI00B32P8    #TAPI-210A1    202208107187-3360                JOINT CONNECTOR          CCN000002400000002400FN00000000020221001000002400NNM   20220712182925    2F0F  00000120000000759600001026832P8    YIYTM   005600390040
BI00B32P8    #TAPI-210A1    202208107283-1071                CONNECTOR HOUSING        CCN000006000000006000FN00000000020221001000006000NNM   20220712182925    2N0N  00000200000000800000000930032P8    YIYTM   005400370024
BI00B32P8    #TAPI-210A1    202208107289-2912-30             HOUSING FEMALE ASS'Y     CCN000002000000002000FN00000000020221001000002000NNM   20220712182925    2N0N  00000200000000804000000929032P8    YIYTM   005400370024
BI00B32P8    #TAPI-210A1    202208107289-2915-40             HOUSING FEMALE ASS'Y     CCN000004500000004500FN00000000020221001000004500NNM   20220712182925    2N0N  00000150000000961500001088532P8    YIYTM   005400370024
BI00B32P8    @TAPI-210A1    202208107123-4312-80             HOUSING                  CCN000005600000005600FN00000000020221001000005600NNM   20220712182925    3F0F  00000080000000644200000794032P8    YIYTM   005500360039
BI00B32R7    R-TAP220297    202207277116-4121-02             TERMINAL                 CCN000049500000049500FN00000000020220701000049500NNED0720220712182925    4P0P  00000450000000618800000912432R7    IVYCIC  006400630015
BI00B32R7    R-TAP220296    202207277158-3167-80             WIRE SEAL                CCN000040000000040000FN00000000020220801000040000NNED0720220712182925    1C0C  00002000000000048000000109032R7    IVYCIC  002700430014
BI00B32R7    R-TAP220296    202207277158-3169-40             SEALING PLUG             CCN000160000000160000FN00000000020220801000160000NNED0720220712182925    1C0C  00004000000000156000000204132R7    IVYCIC  004300260014
BI00B32R7    R-TAP220296    202208187289-9553-50             SEALED ASSY FEMALE       CCN000041160000041160FN00000000020220801000041160NNED0420220712182925    4N0N  00000294000001108100001520632R7    IVYCIC  005500360039
BI00B32R7    R-TAP220298    202207277137-3047-30             UNIT PACKING             CCN000005000000005000FN00000000020220801000005000NNED0720220712182925    1C0C  00000100000000170500000218932R7    IVYCIC  002700430014
BI00B32R7    R-TAP220298    202207277172-5402-30             SEAL RUBBER              CCN000008000000008000FN00000000020220801000008000NNED0720220712182925    1C0C  00000800000000457600000506032R7    IVYCIC  004300270014
BI00B32R7    #R-TAP220298   202207277183-2415-40             CONNECTOR HOUSING        CCN000028800000028800FN00000000020220801000028800NNED0720220712182925    2F0F  00000480000000798200001091432R7    IVYCIC  005500360039
BI00B32R7    R-TAP220299    202207277116-4025                TERMINAL                 CCN000064000000064000FN00000000020220801000064000NNED0720220712182925    4P0P  00001600000000644800000975132R7    IVYCIC  006400630017
BI00A32U9    #TPA234        202207187283-8397-40             CONNECTOR                CCN000009240000009240FN00000000020220801000009240NNMM0020220712182925U9  2N0N  00000154000001007000001222732U9    YNYNA-E 005600390023
BI00B32W4    #4500194315    202207217158-3120-90             CONNECTOR WIRE SEAL      CCN000020000000020000FN00000000020220701000020000NNED0020220712182925W4A22C0C  00002000000000136000000194032W4A2  HJYHK-J 002700430014
BI00A32W4    4500194617     202208047116-4104-02             TERMINAL                 CCN000096000000096000FN00000000020220801000096000NNEM0020220712182925W4664P0P  00001200000000580800000972432W466  HJYHK   006400630015
BI00A32W4    4500194938     202208017283-7028-30             CONNECTOR                CCN000003000000003000FN00000000020220801000003000NNED0020220712182925W4M54N0N  00000300000001452000001681332W4M5  HJYHK-J 005600390040
BI00A32W4    4500195948     202207257114-4112-02             TERMINAL                 CCN000072000000072000FN00000000020220801000072000NNED0020220712182925W4144P0P  00000900000000598500000927132W414  HJYHK   006400630017
BI00A32W4    4500195948     202208297116-4112-02             TERMINAL                 CCN000024000000024000FN00000000020220801000024000NNED0020220712182925W4144P0P  00000600000000450000000738232W414  HJYHK   006400630015
BI00A32W4    4500196642     202208047116-4103-02             TERMINAL                 CCN000012000000012000FN00000000020220701000012000NNED0720220712182925W4804P0P  00001200000000571200000859432W480  HJYHK-J 006400630015
BI00A32W4    4500196642     202208047114-1475                TERMINAL                 CCN000013500000013500FN00000000020220701000013500NNED0720220712182925W4804P0P  00001350000000480600000774232W480  HJYHK-J 006400630015
BI00A32W4    4500196665     202209127116-4102-02             TERMINAL                 CCN000012000000012000FN00000000020220901000012000NNE   20220712182925W4L74P0P  00001200000000553200000841432W4L7  HJYHK-J 006400630015
BI00A32W4    4500196664     202208297283-1020                CONNECTOR                CCN000006000000006000FN00000000020220801000006000NNE   20220712182925W4L74N0N  00000600000000840000001049332W4L7  HJYHK-J 005600390040
BI00A32W4    #4500196641    202210127282-3243-40             CONNECTOR                CCN000003200000003200FN00000000020221001000003200NNE   20220712182925W4802N0N  00000080000001006000001282332W480  HJYHK-J 005600390040
BI00B32W9    4500196639     202208027116-4102-02             TERMINAL                 CCN000024000000024000FN00000000020220701000024000NNED0720220712182925W9  4P0P  00001200000000553200000841432W9    HKYHK   006400630015
