BI00B32H8    2208A MW       2022072218007704037              AVSS 0.75F B/Y           CCN000010000000010000FN00000000020220801000010000NNE20 20220712120250    1W    00000100000000943000000000032H8    TYTYC   000000000000LC327002
BI00B32H8    2208A MW       2022072218007704060              AVSS 0.75F G             CCN000001000000001000FN00000000020220801000001000NNE20 20220712120250    1W    00000100000000943000000000032H8    TYTYC   000000000000LC327003
BI00B32H8    2208A MW       2022072218007704063              AVSS 0.75F G/B           CCN000004000000004000FN00000000020220801000004000NNE20 20220712120250    1W    00000100000000943000000000032H8    TYTYC   000000000000LC327004
BI00B32H8    @2208A MW      20220722181B32102S1              AVSSCS 0.5FX2 DGY        CCN000003000000003000FN00000000020220801000003000NNE20 20220712132504    1W    00000030000002903000000000032H8    TYTYC   000000000000LC327001
BI00B32H8    2208AIMW       2022072218007704036              AVSS 0.75F B/G           CCN000003000000003000FN00000000020220801000003000NNE20 20220712120250    1W    00000100000000943000000000032H8    TYTYC   000000000000LD327003
BI00B32H8    @2208AIMW      20220729181B32037Y5              AVSSCS 0.3FX1 DGY/W      CCN000001000000001000FN00000000020220801000001000NNE21 20220712132549    1W    00000050000001780000000000032H8    TYTYC   000000000000LD327001
BI00B32H8    @2208AIMW      20220722181B32039Y6              AVSSCS 0.5FX1 DGY/G      CCN000000400000000400FN00000000020220801000000400NNE22 20220712132549    1W    00000040000002289000000000032H8    TYTYC   000000000000LD327002
BI00B32W4    4500196659     202207261801R703940              CIVUS 0.5 W              CCN000002200000002200FN00000000020220701000002200NNE   20220712120250W41 1W    00000220000000525000000000032W41   HJYHK-J 000000000000OX227007
BI00B32W4    4500196659     202207261801R703941              CIVUS 0.5 GY             CCN000002200000002200FN00000000020220701000002200NNE   20220712120250W41 1W    00000220000000525000000000032W41   HJYHK-J 000000000000OX227003
BI00B32W4    4500196659     202207261801R703952              CIVUS 0.5 P              CCN000002200000002200FN00000000020220701000002200NNE   20220712120250W41 1W    00000220000000525000000000032W41   HJYHK-J 000000000000OX227005
BI00B32W4    4500196659     202207261801R703960              CIVUS 0.5 G              CCN000002200000002200FN00000000020220701000002200NNE   20220712120250W41 1W    00000220000000525000000000032W41   HJYHK-J 000000000000OX227002
BI00B32W4    4500196659     202207261801R703980              CIVUS 0.5 BR             CCN000002200000002200FN00000000020220701000002200NNE   20220712120250W41 1W    00000220000000525000000000032W41   HJYHK-J 000000000000OX227001
BI00B32W4    4500196659     202207261801R703990              CIVUS 0.5 L              CCN000002200000002200FN00000000020220701000002200NNE   20220712120250W41 1W    00000220000000525000000000032W41   HJYHK-J 000000000000OX227004
BI00B32W4    4500196659     202207261801R703991              CIVUS 0.5 SB             CCN000002200000002200FN00000000020220701000002200NNE   20220712120250W41 1W    00000220000000525000000000032W41   HJYHK-J 000000000000OX227006
BI00B32W4    4500196659     202207261801R706952              CIVUS 0.35 P             CCN000003000000003000FN00000000020220701000003000NNE   20220712120250W41 1W    00000300000000386000000000032W41   HJYHK-J 000000000000OX227008
