BI00B32AG    XG22122CMW     2022111118000004590              AV 8 L                   CCN000000100000000100FN00000000020221201000000100NNM   20220908141316    1W    00000010000010466200000000032AG    XGXGY   000000000000XU42A001
BI00B32AG    XG22123CMW     2022111818000004590              AV 8 L                   CCN000000600000000600FN00000000020221201000000600NNM   20220908141316    1W    00000010000010466200000000032AG    XGXGY   000000000000XU12B001
BI00B32AG    XG22124CMW     2022112518000004590              AV 8 L                   CCN000000100000000100FN00000000020221201000000100NNM   20220908141316    1W    00000010000010466200000000032AG    XGXGY   000000000000XU22B001
BI00B32AG    @XG22121LMW    20221104181E48031ZZ              CAVSAS-S 0.3X2 GY        CCN000004900000004900FN00000000020221201000004900NNM   20220908141314    1W    00000035000002008700000000032AG    XGXGY   000000000000XX32A001
BI00B32AG    @XG22122LMW    20221111181E48031ZZ              CAVSAS-S 0.3X2 GY        CCN000003150000003150FN00000000020221201000003150NNM   20220908141314    1W    00000035000002008700000000032AG    XGXGY   000000000000XX42A001
BI00B32AG    @XG22123LMW    20221118181E48031ZZ              CAVSAS-S 0.3X2 GY        CCN000003500000003500FN00000000020221201000003500NNM   20220908141314    1W    00000035000002008700000000032AG    XGXGY   000000000000XX12B001
BI00B32AG    @XG22124LMW    20221125181E48031ZZ              CAVSAS-S 0.3X2 GY        CCN000001400000001400FN00000000020221201000001400NNM   20220908141314    1W    00000035000002008700000000032AG    XGXGY   000000000000XX22B001
BI00B32AG    @XG22123QMW    20221118181E48027ZZ              CAVSAS-S 0.5X2 GY/P      CCN000000300000000300FN00000000020221201000000300NNM   20220908141315    1W    00000030000002561000000000032AG    XGXGY   000000000000XZ12B002
BI00B32AG    @XG22122QMW    20221111181E48018ZZ              CAVSAS-S 0.5X2 GY/SB     CCN000000300000000300FN00000000020221201000000300NNM   20220908141315    1W    00000030000002561000000000032AG    XGXGY   000000000000XZ42A002
BI00B32BF    TT22121KMW     2022101818009603937              AVS 0.5 B/Y              CCN000003000000003000FN00000000020221201000003000NNM   20220908132555    1W    00000100000000850000000000032BF    TTTJY   000000000000NK12A001
BI00B32BF    TT22122KMW     2022102518009603937              AVS 0.5 B/Y              CCN000003000000003000FN00000000020221201000003000NNM   20220908132555    1W    00000100000000850000000000032BF    TTTJY   000000000000NK22A001
BI00B32CH    SJ2210ADMW     202209291801W004260              IVSSH 2F G               CCN000001100000001100FN00000000020221001000001100NNE   20220908131330    1W    00000055000002091100000000032CH    SJSAMIJF000000000000QT229001
BI00B32CH    SJ2210ADMW     202209291801W004250              IVSSH 2F R               CCN000001100000001100FN00000000020221001000001100NNE   20220908131330    1W    00000055000002091100000000032CH    SJSAMIJF000000000000QT229002
BI00A32E1    WC209B         2022091418000004540              AV 8 W                   CCN000000100000000100FN00000000020220901000000100NNE   20220908133510    1W    00000010000010466200000000032E1    SPYSE   000000000000KD528002
BI00A32E1    WC209B         2022091418000004553              AV 8 R/B                 CCN000000200000000200FN00000000020220901000000200NNE   20220908133510    1W    00000010000010466200000000032E1    SPYSE   000000000000KD528001
BI00B32G0    TZ22121EMW     2022101818007703730              AVSS 0.3F B              CCN000010000000010000FN00000000020221201000010000NNM   20220908135248    1W    00000200000000496000000000032G0    TTTJY   000000000000NE12A018
BI00B32G0    TZ22122EMW     2022102518007703730              AVSS 0.3F B              CCN000006000000006000FN00000000020221201000006000NNM   20220908135248    1W    00000200000000496000000000032G0    TTTJY   000000000000NE22A019
BI00B32G0    TZ22122EMW     2022102518007703760              AVSS 0.3F G              CCN000002000000002000FN00000000020221201000002000NNM   20220908135248    1W    00000200000000496000000000032G0    TTTJY   000000000000NE22A020
BI00B32G0    TZ22122EMW     2022102518007703752              AVSS 0.3F P              CCN000004000000004000FN00000000020221201000004000NNM   20220908135248    1W    00000200000000496000000000032G0    TTTJY   000000000000NE22A021
BI00B32G0    TZ22121EMW     2022101818007703750              AVSS 0.3F R              CCN000004000000004000FN00000000020221201000004000NNM   20220908135248    1W    00000200000000496000000000032G0    TTTJY   000000000000NE12A019
BI00B32G0    TZ22121EMW     2022101818007703792              AVSS 0.3F V              CCN000010000000010000FN00000000020221201000010000NNM   20220908135248    1W    00000200000000496000000000032G0    TTTJY   000000000000NE12A020
BI00B32G0    TZ22122EMW     2022102518007703792              AVSS 0.3F V              CCN000010000000010000FN00000000020221201000010000NNM   20220908135248    1W    00000200000000496000000000032G0    TTTJY   000000000000NE22A022
BI00B32G0    @TZ22124EMW    20221108181E50036ZZ              AVSSCS-S 0.3FX2 DGY      CCN000004200000004200FN00000000020221201000004200NNM   20220908135247    1W    00000035000002165000000000032G0    TTTJY   000000000000NE42A001
BI00B32M1    TV209B         202209291801W004330              IVSSH 3 B                CCN000002450000001050FN00000000020220901000001050NNE00 20220908094915    1W    00000035000003173100000000032M1    VNYEV   000000000000VB229005
BI00B32M1    TV209B         202209291801W004390              IVSSH 3 L                CCN000001750000001050FN00000000020220901000001050NNE00 20220908094949    1W    00000035000003173100000000032M1    VNYEV   000000000000VB229006
BI00B32M1    TV209B         202209291801W004343              IVSSH 3 W/B              CCN000001750000000700FN00000000020220901000000700NNE00 20220908095101    1W    00000035000003173100000000032M1    VNYEV   000000000000VB229007
BI00A32M1    TV209B         202209081801W004330              IVSSH 3 B                CCN000001050000001050FY00000105020220901000000000NNE21 20220908155625    1W    00000035000003173100000000032M1    VNYEV   000000000000VB229005
BI00A32M1    TV209B         202209081801W004390              IVSSH 3 L                CCN000000350000000350FY00000035020220901000000000NNE21 20220908155625    1W    00000035000003173100000000032M1    VNYEV   000000000000VB229006
BI00A32M1    TV209B         202209081801W004343              IVSSH 3 W/B              CCN000000700000000700FY00000070020220901000000000NNE21 20220908155625    1W    00000035000003173100000000032M1    VNYEV   000000000000VB229007
BI00B32R7    R-TAP220397    2022092918018403940              CAVS 0.5 W               CCN000006000000006000FN00000000020221001000006000NNE   20220908092202    1W    00000150000000677000000000032R7    IVYCIC  000000000000SG229004
BI00B32R7    R-TAP220397    2022092918018403951              CAVS 0.5 O               CCN000010500000010500FN00000000020221001000010500NNE   20220908092202    1W    00000150000000677000000000032R7    IVYCIC  000000000000SG229003
BI00B32R7    R-TAP220397    2022092918018403961              CAVS 0.5 LG              CCN000003000000003000FN00000000020221001000003000NNE   20220908092202    1W    00000150000000677000000000032R7    IVYCIC  000000000000SG229002
BI00B32R7    R-TAP220397    2022092918018403970              CAVS 0.5 Y               CCN000012000000012000FN00000000020221001000012000NNE   20220908092202    1W    00000150000000677000000000032R7    IVYCIC  000000000000SG229005
BI00B32R7    R-TAP220397    2022092918018403990              CAVS 0.5 L               CCN000006000000006000FN00000000020221001000006000NNE   20220908092202    1W    00000150000000677000000000032R7    IVYCIC  000000000000SG229001
BI00B32R7    R-TAP220399    2022092918018403940              CAVS 0.5 W               CCN000003000000003000FN00000000020221001000003000NNE   20220908092203    1W    00000150000000677000000000032R7    IVYCIC  000000000000SF229003
BI00B32R7    R-TAP220399    2022092918018403951              CAVS 0.5 O               CCN000007500000007500FN00000000020221001000007500NNE   20220908092203    1W    00000150000000677000000000032R7    IVYCIC  000000000000SF229002
BI00B32R7    R-TAP220399    2022092918018403970              CAVS 0.5 Y               CCN000007500000007500FN00000000020221001000007500NNE   20220908092203    1W    00000150000000677000000000032R7    IVYCIC  000000000000SF229004
BI00B32R7    R-TAP220399    2022092918018403990              CAVS 0.5 L               CCN000004500000004500FN00000000020221001000004500NNE   20220908092203    1W    00000150000000677000000000032R7    IVYCIC  000000000000SF229001
BI00B32W4    4500199970     2022101118018403753              CAVS 0.3 R/B             CCN000002000000002000FN00000000020221001000002000NNE   20220908083712W41 1W    00000200000000471000000000032W41   HJYHK-J 000000000000OF429002
BI00B32W4    4500199970     2022101118018403784              CAVS 0.3 BR/W            CCN000004000000004000FN00000000020221001000004000NNE   20220908083712W41 1W    00000200000000471000000000032W41   HJYHK-J 000000000000OF429001
BI00B32W4    4500199971     2022101818018403784              CAVS 0.3 BR/W            CCN000004000000004000FN00000000020221001000004000NNE   20220908083714W41 1W    00000200000000471000000000032W41   HJYHK-J 000000000000OE12A001
BI00B32W4    4500199973     2022102518018403791              CAVS 0.3 SB              CCN000004000000004000FN00000000020221001000004000NNE   20220908083715W41 1W    00000200000000471000000000032W41   HJYHK-J 000000000000OL22A003
BI00B32W4    4500199973     2022102518018403740              CAVS 0.3 W               CCN000004000000004000FN00000000020221001000004000NNE   20220908083715W41 1W    00000200000000471000000000032W41   HJYHK-J 000000000000OL22A004
BI00B32W4    4500199973     2022102518018403770              CAVS 0.3 Y               CCN000004000000004000FN00000000020221001000004000NNE   20220908083715W41 1W    00000200000000471000000000032W41   HJYHK-J 000000000000OL22A005
BI00B32W4    4500199973     2022102518018403741              CAVS 0.3 GY              CCN000006000000006000FN00000000020221001000006000NNE   20220908083715W41 1W    00000200000000471000000000032W41   HJYHK-J 000000000000OL22A001
BI00B32W4    4500199973     2022102518018403753              CAVS 0.3 R/B             CCN000002000000002000FN00000000020221001000002000NNE   20220908083715W41 1W    00000200000000471000000000032W41   HJYHK-J 000000000000OL22A002
BI00B32W4    4500199973     2022102518018403992              CAVS 0.5 V               CCN000001500000001500FN00000000020221001000001500NNE   20220908083715W41 1W    00000150000000677000000000032W41   HJYHK-J 000000000000OL22A006
BI00B32W4    4500199985     2022100418018403740              CAVS 0.3 W               CCN000010000000010000FN00000000020221001000010000NNE   20220908083716W41 1W    00000200000000471000000000032W41   HJYHK-J 000000000000OA329002
BI00B32W4    4500199985     2022100418018403790              CAVS 0.3 L               CCN000012000000012000FN00000000020221001000012000NNE   20220908083716W41 1W    00000200000000471000000000032W41   HJYHK-J 000000000000OA329001
BI00B32W4    4500199985     2022100418018403941              CAVS 0.5 GY              CCN000021000000021000FN00000000020221001000021000NNE   20220908083716W41 1W    00000150000000677000000000032W41   HJYHK-J 000000000000OA329004
BI00B32W4    4500199985     2022100418018403950              CAVS 0.5 R               CCN000021000000021000FN00000000020221001000021000NNE   20220908083716W41 1W    00000150000000677000000000032W41   HJYHK-J 000000000000OA329007
BI00B32W4    4500199985     2022100418018403952              CAVS 0.5 P               CCN000063000000063000FN00000000020221001000063000NNE   20220908083716W41 1W    00000150000000677000000000032W41   HJYHK-J 000000000000OA329006
BI00B32W4    4500199985     2022100418018403970              CAVS 0.5 Y               CCN000036000000036000FN00000000020221001000036000NNE   20220908083716W41 1W    00000150000000677000000000032W41   HJYHK-J 000000000000OA329008
BI00B32W4    4500199985     2022100418018403980              CAVS 0.5 BR              CCN000015000000015000FN00000000020221001000015000NNE   20220908083716W41 1W    00000150000000677000000000032W41   HJYHK-J 000000000000OA329003
BI00B32W4    4500199985     2022100418018403990              CAVS 0.5 L               CCN000069000000069000FN00000000020221001000069000NNE   20220908083716W41 1W    00000150000000677000000000032W41   HJYHK-J 000000000000OA329005
BI00B32W4    4500199985     2022100418018404030              CAVS 0.85 B              CCN000013000000013000FN00000000020221001000013000NNE   20220908083716W41 1W    00000100000000965000000000032W41   HJYHK-J 000000000000OA329009
BI00B32W4    4500199985     2022100418018404092              CAVS 0.85 V              CCN000002000000002000FN00000000020221001000002000NNE   20220908083716W41 1W    00000100000000965000000000032W41   HJYHK-J 000000000000OA329010
BI00B32W4    4500199987     2022101118018403740              CAVS 0.3 W               CCN000008000000008000FN00000000020221001000008000NNE   20220908083717W41 1W    00000200000000471000000000032W41   HJYHK-J 000000000000OG429002
BI00B32W4    4500199987     2022101118018403790              CAVS 0.3 L               CCN000006000000006000FN00000000020221001000006000NNE   20220908083717W41 1W    00000200000000471000000000032W41   HJYHK-J 000000000000OG429001
BI00B32W4    4500199987     2022101118018403941              CAVS 0.5 GY              CCN000004500000004500FN00000000020221001000004500NNE   20220908083717W41 1W    00000150000000677000000000032W41   HJYHK-J 000000000000OG429004
BI00B32W4    4500199987     2022101118018403950              CAVS 0.5 R               CCN000003000000003000FN00000000020221001000003000NNE   20220908083717W41 1W    00000150000000677000000000032W41   HJYHK-J 000000000000OG429007
BI00B32W4    4500199987     2022101118018403952              CAVS 0.5 P               CCN000021000000021000FN00000000020221001000021000NNE   20220908083717W41 1W    00000150000000677000000000032W41   HJYHK-J 000000000000OG429006
BI00B32W4    4500199987     2022101118018403970              CAVS 0.5 Y               CCN000012000000012000FN00000000020221001000012000NNE   20220908083717W41 1W    00000150000000677000000000032W41   HJYHK-J 000000000000OG429008
BI00B32W4    4500199987     2022101118018403980              CAVS 0.5 BR              CCN000006000000006000FN00000000020221001000006000NNE   20220908083717W41 1W    00000150000000677000000000032W41   HJYHK-J 000000000000OG429003
BI00B32W4    4500199987     2022101118018403990              CAVS 0.5 L               CCN000019500000019500FN00000000020221001000019500NNE   20220908083717W41 1W    00000150000000677000000000032W41   HJYHK-J 000000000000OG429005
BI00B32W4    4500199987     2022101118018404030              CAVS 0.85 B              CCN000013000000013000FN00000000020221001000013000NNE   20220908083717W41 1W    00000100000000965000000000032W41   HJYHK-J 000000000000OG429009
BI00B32W4    4500199987     2022101118018404041              CAVS 0.85 GY             CCN000010000000010000FN00000000020221001000010000NNE   20220908083717W41 1W    00000100000000965000000000032W41   HJYHK-J 000000000000OG429010
BI00B32W4    4500199987     2022101118018404050              CAVS 0.85 R              CCN000003000000003000FN00000000020221001000003000NNE   20220908083717W41 1W    00000100000000965000000000032W41   HJYHK-J 000000000000OG429012
BI00B32W4    4500199987     2022101118018404051              CAVS 0.85 O              CCN000005000000005000FN00000000020221001000005000NNE   20220908083717W41 1W    00000100000000965000000000032W41   HJYHK-J 000000000000OG429011
BI00B32W4    4500199987     2022101118018404092              CAVS 0.85 V              CCN000003000000003000FN00000000020221001000003000NNE   20220908083717W41 1W    00000100000000965000000000032W41   HJYHK-J 000000000000OG429013
BI00B32W4    4500199990     2022101818018403740              CAVS 0.3 W               CCN000010000000010000FN00000000020221001000010000NNE   20220908083717W41 1W    00000200000000471000000000032W41   HJYHK-J 000000000000OP12A002
BI00B32W4    4500199990     2022101818018403790              CAVS 0.3 L               CCN000004000000004000FN00000000020221001000004000NNE   20220908083717W41 1W    00000200000000471000000000032W41   HJYHK-J 000000000000OP12A001
BI00B32W4    4500199990     2022101818018403930              CAVS 0.5 B               CCN000015000000015000FN00000000020221001000015000NNE   20220908083717W41 1W    00000150000000677000000000032W41   HJYHK-J 000000000000OP12A003
BI00B32W4    4500199990     2022101818018403941              CAVS 0.5 GY              CCN000004500000004500FN00000000020221001000004500NNE   20220908083717W41 1W    00000150000000677000000000032W41   HJYHK-J 000000000000OP12A005
BI00B32W4    4500199990     2022101818018403950              CAVS 0.5 R               CCN000007500000007500FN00000000020221001000007500NNE   20220908083717W41 1W    00000150000000677000000000032W41   HJYHK-J 000000000000OP12A008
BI00B32W4    4500199990     2022101818018403952              CAVS 0.5 P               CCN000036000000036000FN00000000020221001000036000NNE   20220908083717W41 1W    00000150000000677000000000032W41   HJYHK-J 000000000000OP12A007
BI00B32W4    4500199990     2022101818018403970              CAVS 0.5 Y               CCN000036000000036000FN00000000020221001000036000NNE   20220908083717W41 1W    00000150000000677000000000032W41   HJYHK-J 000000000000OP12A010
BI00B32W4    4500199990     2022101818018403980              CAVS 0.5 BR              CCN000009000000009000FN00000000020221001000009000NNE   20220908083717W41 1W    00000150000000677000000000032W41   HJYHK-J 000000000000OP12A004
BI00B32W4    4500199990     2022101818018403990              CAVS 0.5 L               CCN000033000000033000FN00000000020221001000033000NNE   20220908083717W41 1W    00000150000000677000000000032W41   HJYHK-J 000000000000OP12A006
BI00B32W4    4500199990     2022101818018403992              CAVS 0.5 V               CCN000006000000006000FN00000000020221001000006000NNE   20220908083717W41 1W    00000150000000677000000000032W41   HJYHK-J 000000000000OP12A009
BI00B32W4    4500199990     2022101818018404030              CAVS 0.85 B              CCN000038000000038000FN00000000020221001000038000NNE   20220908083717W41 1W    00000100000000965000000000032W41   HJYHK-J 000000000000OP12A011
BI00B32W4    4500199990     2022101818018404040              CAVS 0.85 W              CCN000031000000031000FN00000000020221001000031000NNE   20220908083717W41 1W    00000100000000965000000000032W41   HJYHK-J 000000000000OP12A021
BI00B32W4    4500199990     2022101818018404041              CAVS 0.85 GY             CCN000068000000068000FN00000000020221001000068000NNE   20220908083717W41 1W    00000100000000965000000000032W41   HJYHK-J 000000000000OP12A014
BI00B32W4    4500199990     2022101818018404050              CAVS 0.85 R              CCN000073000000073000FN00000000020221001000073000NNE   20220908083717W41 1W    00000100000000965000000000032W41   HJYHK-J 000000000000OP12A018
BI00B32W4    4500199990     2022101818018404051              CAVS 0.85 O              CCN000022000000022000FN00000000020221001000022000NNE   20220908083717W41 1W    00000100000000965000000000032W41   HJYHK-J 000000000000OP12A016
BI00B32W4    4500199990     2022101818018404052              CAVS 0.85 P              CCN000019000000019000FN00000000020221001000019000NNE   20220908083717W41 1W    00000100000000965000000000032W41   HJYHK-J 000000000000OP12A017
BI00B32W4    4500199990     2022101818018404060              CAVS 0.85 G              CCN000024000000024000FN00000000020221001000024000NNE   20220908083717W41 1W    00000100000000965000000000032W41   HJYHK-J 000000000000OP12A013
BI00B32W4    4500199990     2022101818018404061              CAVS 0.85 LG             CCN000001000000001000FN00000000020221001000001000NNE   20220908083717W41 1W    00000100000000965000000000032W41   HJYHK-J 000000000000OP12A015
BI00B32W4    4500199990     2022101818018404070              CAVS 0.85 Y              CCN000024000000024000FN00000000020221001000024000NNE   20220908083717W41 1W    00000100000000965000000000032W41   HJYHK-J 000000000000OP12A022
BI00B32W4    4500199990     2022101818018404080              CAVS 0.85 BR             CCN000020000000020000FN00000000020221001000020000NNE   20220908083717W41 1W    00000100000000965000000000032W41   HJYHK-J 000000000000OP12A012
BI00B32W4    4500199990     2022101818018404091              CAVS 0.85 SB             CCN000023000000023000FN00000000020221001000023000NNE   20220908083717W41 1W    00000100000000965000000000032W41   HJYHK-J 000000000000OP12A019
BI00B32W4    4500199990     2022101818018404092              CAVS 0.85 V              CCN000016000000016000FN00000000020221001000016000NNE   20220908083717W41 1W    00000100000000965000000000032W41   HJYHK-J 000000000000OP12A020
BI00B32W4    4500199990     2022101818018404130              CAVS 1.25 B              CCN000000800000000800FN00000000020221001000000800NNE   20220908083717W41 1W    00000080000001378000000000032W41   HJYHK-J 000000000000OP12A023
BI00B32W4    4500199993     2022102518007704230              AVSS 2F B                CCN000002500000002500FN00000000020221001000002500NNE   20220908083718W41 1W    00000050000002126400000000032W41   HJYHK-J 000000000000OM22A002
BI00B32W4    4500199993     2022102518018403740              CAVS 0.3 W               CCN000002000000002000FN00000000020221001000002000NNE   20220908083718W41 1W    00000200000000471000000000032W41   HJYHK-J 000000000000OM22A004
BI00B32W4    4500199993     2022102518018403790              CAVS 0.3 L               CCN000004000000004000FN00000000020221001000004000NNE   20220908083718W41 1W    00000200000000471000000000032W41   HJYHK-J 000000000000OM22A003
BI00B32W4    4500199993     2022102518018403930              CAVS 0.5 B               CCN000006000000006000FN00000000020221001000006000NNE   20220908083718W41 1W    00000150000000677000000000032W41   HJYHK-J 000000000000OM22A005
BI00B32W4    4500199993     2022102518018403940              CAVS 0.5 W               CCN000003000000003000FN00000000020221001000003000NNE   20220908083718W41 1W    00000150000000677000000000032W41   HJYHK-J 000000000000OM22A013
BI00B32W4    4500199993     2022102518018403941              CAVS 0.5 GY              CCN000003000000003000FN00000000020221001000003000NNE   20220908083718W41 1W    00000150000000677000000000032W41   HJYHK-J 000000000000OM22A007
BI00B32W4    4500199993     2022102518018403950              CAVS 0.5 R               CCN000001500000001500FN00000000020221001000001500NNE   20220908083718W41 1W    00000150000000677000000000032W41   HJYHK-J 000000000000OM22A011
BI00B32W4    4500199993     2022102518018403951              CAVS 0.5 O               CCN000006000000006000FN00000000020221001000006000NNE   20220908083718W41 1W    00000150000000677000000000032W41   HJYHK-J 000000000000OM22A009
BI00B32W4    4500199993     2022102518018403952              CAVS 0.5 P               CCN000006000000006000FN00000000020221001000006000NNE   20220908083718W41 1W    00000150000000677000000000032W41   HJYHK-J 000000000000OM22A010
BI00B32W4    4500199993     2022102518018403980              CAVS 0.5 BR              CCN000001500000001500FN00000000020221001000001500NNE   20220908083718W41 1W    00000150000000677000000000032W41   HJYHK-J 000000000000OM22A006
BI00B32W4    4500199993     2022102518018403990              CAVS 0.5 L               CCN000004500000004500FN00000000020221001000004500NNE   20220908083718W41 1W    00000150000000677000000000032W41   HJYHK-J 000000000000OM22A008
BI00B32W4    4500199993     2022102518018403992              CAVS 0.5 V               CCN000001500000001500FN00000000020221001000001500NNE   20220908083718W41 1W    00000150000000677000000000032W41   HJYHK-J 000000000000OM22A012
BI00B32W4    4500199993     2022102518018404030              CAVS 0.85 B              CCN000003000000003000FN00000000020221001000003000NNE   20220908083718W41 1W    00000100000000965000000000032W41   HJYHK-J 000000000000OM22A014
BI00B32W4    4500199993     2022102518018404040              CAVS 0.85 W              CCN000002000000002000FN00000000020221001000002000NNE   20220908083718W41 1W    00000100000000965000000000032W41   HJYHK-J 000000000000OM22A023
BI00B32W4    4500199993     2022102518018404041              CAVS 0.85 GY             CCN000008000000008000FN00000000020221001000008000NNE   20220908083718W41 1W    00000100000000965000000000032W41   HJYHK-J 000000000000OM22A017
BI00B32W4    4500199993     2022102518018404050              CAVS 0.85 R              CCN000014000000014000FN00000000020221001000014000NNE   20220908083718W41 1W    00000100000000965000000000032W41   HJYHK-J 000000000000OM22A020
BI00B32W4    4500199993     2022102518018404051              CAVS 0.85 O              CCN000005000000005000FN00000000020221001000005000NNE   20220908083718W41 1W    00000100000000965000000000032W41   HJYHK-J 000000000000OM22A018
BI00B32W4    4500199993     2022102518018404052              CAVS 0.85 P              CCN000006000000006000FN00000000020221001000006000NNE   20220908083718W41 1W    00000100000000965000000000032W41   HJYHK-J 000000000000OM22A019
BI00B32W4    4500199993     2022102518018404060              CAVS 0.85 G              CCN000006000000006000FN00000000020221001000006000NNE   20220908083718W41 1W    00000100000000965000000000032W41   HJYHK-J 000000000000OM22A016
BI00B32W4    4500199993     2022102518018404070              CAVS 0.85 Y              CCN000007000000007000FN00000000020221001000007000NNE   20220908083718W41 1W    00000100000000965000000000032W41   HJYHK-J 000000000000OM22A024
BI00B32W4    4500199993     2022102518018404080              CAVS 0.85 BR             CCN000004000000004000FN00000000020221001000004000NNE   20220908083718W41 1W    00000100000000965000000000032W41   HJYHK-J 000000000000OM22A015
BI00B32W4    4500199993     2022102518018404091              CAVS 0.85 SB             CCN000009000000009000FN00000000020221001000009000NNE   20220908083718W41 1W    00000100000000965000000000032W41   HJYHK-J 000000000000OM22A021
BI00B32W4    4500199993     2022102518018404092              CAVS 0.85 V              CCN000003000000003000FN00000000020221001000003000NNE   20220908083718W41 1W    00000100000000965000000000032W41   HJYHK-J 000000000000OM22A022
BI00B32W4    4500199993     2022102518018404140              CAVS 1.25 W              CCN000003200000003200FN00000000020221001000003200NNE   20220908083718W41 1W    00000080000001378000000000032W41   HJYHK-J 000000000000OM22A025
BI00B32W4    4500199993     2022102518018404170              CAVS 1.25 Y              CCN000000800000000800FN00000000020221001000000800NNE   20220908083718W41 1W    00000080000001378000000000032W41   HJYHK-J 000000000000OM22A026
BI00B32W4    4500199993     2022102518001403964              AV 0.5F G/W              CCN000003000000003000FN00000000020221001000003000NNE   20220908083718W41 1W    00000100000000903000000000032W41   HJYHK-J 000000000000OM22A001
BI00B32W4    4500199975     2022110118018403791              CAVS 0.3 SB              CCN000002000000002000FN00000000020221101000002000NNE   20220908083719W41 1W    00000200000000471000000000032W41   HJYHK-J 000000000000OU32A002
BI00B32W4    4500199975     2022110118018403730              CAVS 0.3 B               CCN000008000000008000FN00000000020221101000008000NNE   20220908083719W41 1W    00000200000000471000000000032W41   HJYHK-J 000000000000OU32A001
BI00B32W4    4500199975     2022110118018403749              CAVS 0.3 W/L             CCN000006000000006000FN00000000020221101000006000NNE   20220908083719W41 1W    00000200000000471000000000032W41   HJYHK-J 000000000000OU32A003
BI00B32W4    4500199995     2022110118007704230              AVSS 2F B                CCN000004000000004000FN00000000020221101000004000NNE   20220908083720W41 1W    00000050000002126400000000032W41   HJYHK-J 000000000000OV32A001
BI00B32W4    4500199995     2022110118018403740              CAVS 0.3 W               CCN000002000000002000FN00000000020221101000002000NNE   20220908083720W41 1W    00000200000000471000000000032W41   HJYHK-J 000000000000OV32A002
BI00B32W4    4500199995     2022110118018403940              CAVS 0.5 W               CCN000007500000007500FN00000000020221101000007500NNE   20220908083720W41 1W    00000150000000677000000000032W41   HJYHK-J 000000000000OV32A010
BI00B32W4    4500199995     2022110118018403941              CAVS 0.5 GY              CCN000001500000001500FN00000000020221101000001500NNE   20220908083720W41 1W    00000150000000677000000000032W41   HJYHK-J 000000000000OV32A004
BI00B32W4    4500199995     2022110118018403950              CAVS 0.5 R               CCN000001500000001500FN00000000020221101000001500NNE   20220908083720W41 1W    00000150000000677000000000032W41   HJYHK-J 000000000000OV32A008
BI00B32W4    4500199995     2022110118018403952              CAVS 0.5 P               CCN000007500000007500FN00000000020221101000007500NNE   20220908083720W41 1W    00000150000000677000000000032W41   HJYHK-J 000000000000OV32A007
BI00B32W4    4500199995     2022110118018403961              CAVS 0.5 LG              CCN000001500000001500FN00000000020221101000001500NNE   20220908083720W41 1W    00000150000000677000000000032W41   HJYHK-J 000000000000OV32A006
BI00B32W4    4500199995     2022110118018403970              CAVS 0.5 Y               CCN000006000000006000FN00000000020221101000006000NNE   20220908083720W41 1W    00000150000000677000000000032W41   HJYHK-J 000000000000OV32A011
BI00B32W4    4500199995     2022110118018403980              CAVS 0.5 BR              CCN000003000000003000FN00000000020221101000003000NNE   20220908083720W41 1W    00000150000000677000000000032W41   HJYHK-J 000000000000OV32A003
BI00B32W4    4500199995     2022110118018403990              CAVS 0.5 L               CCN000007500000007500FN00000000020221101000007500NNE   20220908083720W41 1W    00000150000000677000000000032W41   HJYHK-J 000000000000OV32A005
BI00B32W4    4500199995     2022110118018403991              CAVS 0.5 SB              CCN000007500000007500FN00000000020221101000007500NNE   20220908083720W41 1W    00000150000000677000000000032W41   HJYHK-J 000000000000OV32A009
BI00B32W4    4500199995     2022110118018404030              CAVS 0.85 B              CCN000005000000005000FN00000000020221101000005000NNE   20220908083720W41 1W    00000100000000965000000000032W41   HJYHK-J 000000000000OV32A012
BI00B32W4    4500199995     2022110118018404040              CAVS 0.85 W              CCN000004000000004000FN00000000020221101000004000NNE   20220908083720W41 1W    00000100000000965000000000032W41   HJYHK-J 000000000000OV32A020
BI00B32W4    4500199995     2022110118018404041              CAVS 0.85 GY             CCN000006000000006000FN00000000020221101000006000NNE   20220908083720W41 1W    00000100000000965000000000032W41   HJYHK-J 000000000000OV32A014
BI00B32W4    4500199995     2022110118018404050              CAVS 0.85 R              CCN000007000000007000FN00000000020221101000007000NNE   20220908083720W41 1W    00000100000000965000000000032W41   HJYHK-J 000000000000OV32A017
BI00B32W4    4500199995     2022110118018404051              CAVS 0.85 O              CCN000003000000003000FN00000000020221101000003000NNE   20220908083720W41 1W    00000100000000965000000000032W41   HJYHK-J 000000000000OV32A015
BI00B32W4    4500199995     2022110118018404052              CAVS 0.85 P              CCN000003000000003000FN00000000020221101000003000NNE   20220908083720W41 1W    00000100000000965000000000032W41   HJYHK-J 000000000000OV32A016
BI00B32W4    4500199995     2022110118018404060              CAVS 0.85 G              CCN000005000000005000FN00000000020221101000005000NNE   20220908083720W41 1W    00000100000000965000000000032W41   HJYHK-J 000000000000OV32A013
BI00B32W4    4500199995     2022110118018404070              CAVS 0.85 Y              CCN000005000000005000FN00000000020221101000005000NNE   20220908083720W41 1W    00000100000000965000000000032W41   HJYHK-J 000000000000OV32A021
BI00B32W4    4500199995     2022110118018404091              CAVS 0.85 SB             CCN000003000000003000FN00000000020221101000003000NNE   20220908083720W41 1W    00000100000000965000000000032W41   HJYHK-J 000000000000OV32A018
BI00B32W4    4500199995     2022110118018404092              CAVS 0.85 V              CCN000003000000003000FN00000000020221101000003000NNE   20220908083720W41 1W    00000100000000965000000000032W41   HJYHK-J 000000000000OV32A019
BI00B32W4    4500199995     2022110118018404140              CAVS 1.25 W              CCN000005600000005600FN00000000020221101000005600NNE   20220908083720W41 1W    00000080000001378000000000032W41   HJYHK-J 000000000000OV32A025
BI00B32W4    4500199995     2022110118018404170              CAVS 1.25 Y              CCN000004000000004000FN00000000020221101000004000NNE   20220908083720W41 1W    00000080000001378000000000032W41   HJYHK-J 000000000000OV32A026
BI00B32W4    4500199995     2022110118018404130              CAVS 1.25 B              CCN000002400000002400FN00000000020221101000002400NNE   20220908083720W41 1W    00000080000001378000000000032W41   HJYHK-J 000000000000OV32A022
BI00B32W4    4500199995     2022110118018404141              CAVS 1.25 GY             CCN000000800000000800FN00000000020221101000000800NNE   20220908083720W41 1W    00000080000001378000000000032W41   HJYHK-J 000000000000OV32A023
BI00B32W4    4500199995     2022110118018404150              CAVS 1.25 R              CCN000001600000001600FN00000000020221101000001600NNE   20220908083720W41 1W    00000080000001378000000000032W41   HJYHK-J 000000000000OV32A024
BI00B32W4    @4500200022    20221115181B32116S1              AVSSCS 0.3FX2 DGY        CCN000006300000006300FN00000000020221101000006300NNE   20220908083719W4171W    00000035000002276000000000032W417  HJYHK-J 000000000000OB12B002
BI00B32W4    @4500200022    20221115181B32037Y5              AVSSCS 0.3FX1 DGY/W      CCN000006500000006500FN00000000020221101000006500NNE   20220908083719W4171W    00000050000001780000000000032W417  HJYHK-J 000000000000OB12B001
