AE00TI102209080508/09/202200000001000000000000000006195KGM  00000009047KGM  7116-4031                TERMINAL                 71164031                 0         0         0         0    0    0    00007500000000750000000058000043500000
AE00TI102209080508/09/202200000002000000000000000013446KGM  00000019150KGM  7126-8850-02             TERMINAL                 7126885002               0         0         0         0    0    0    00018000000000900000000058000104400000
AE00TI102209080508/09/202200000001600000000000000008928KGM  00000013491KGM  7196-0805-02             TERMINAL FEMALE          7196080502               0         0         0         0    0    0    00036000000002250000000021000075600000
AE00TI102209080508/09/202200000000900000000000000006178KGM  00000008113KGM  7289-3342-30             HOUSING FEMALE ASS'Y     7289334230               0         0         0         0    0    0    00002160000000240000000191000041256000
AE00TI102209080508/09/202200000000300000000000000003515KGM  00000004106KGM  7289-5011-30             HOUSING FEMALE ASS'Y     7289501130               0         0         0         0    0    0    00000720000000240000000333000023976000
AE00TI102209080508/09/202200000000400000000000000004432KGM  00000006082KGM  7289-9553-50             SEALED ASSY FEMALE       7289955350               0         0         0         0    0    0    00001176000000294000000252000029635200
