AE00TO202209080108/09/202200000012600000000000000131874KGM  00000138034KGM  18000004540              AV 8 W                   AV 8 W                   0         0         0         0    0    0    00000000000126000000000211100026598600
AE00TO202209080108/09/202200000003700000000000000038725KGM  00000040534KGM  18000004543              AV 8 W/B                 AV 8 W/B                 0         0         0         0    0    0    00000000000037000000000211100007810700
AE00TO202209080108/09/202200000004500000000000000047098KGM  00000049298KGM  18000004570              AV 8 Y                   AV 8 Y                   0         0         0         0    0    0    00000000000045000000000211100009499500
AE00TO202209080108/09/202200000000100000000000000001011KGM  00000001060KGM  18007703950              AVSS 05F R               AVSS 05F R               0         0         0         0    0    0    00000000000015000000000015600000234000
AE00TO202209080108/09/202200000000100000000000000001011KGM  00000001060KGM  18007703977              AVSS 05F O/L             AVSS 05F O/L             0         0         0         0    0    0    00000000000015000000000015600000234000
AE00TO202209080108/09/202200000000200000000000000002222KGM  00000002320KGM  18007704140              AVSS 125F W              AVSS 125F W              0         0         0         0    0    0    00000000000016000000000034700000555200
AE00TO202209080108/09/202200000000100000000000000001111KGM  00000001160KGM  18007704150              AVSS 125F R              AVSS 125F R              0         0         0         0    0    0    00000000000008000000000034700000277600
AE00TO202209080108/09/202200000000200000000000000002222KGM  00000002320KGM  18007704152              AVSS 125F P              AVSS 125F P              0         0         0         0    0    0    00000000000016000000000034700000555200
AE00TO202209080108/09/202200000000100000000000000001111KGM  00000001160KGM  18007704160              AVSS 125F G              AVSS 125F G              0         0         0         0    0    0    00000000000008000000000034700000277600
AE00TO202209080108/09/202200000000100000000000000001111KGM  00000001160KGM  18007704180              AVSS 125F BR             AVSS 125F BR             0         0         0         0    0    0    00000000000008000000000034700000277600
AE00TO202209080108/09/202200000000200000000000000002222KGM  00000002320KGM  18007704190              AVSS 125F L              AVSS 125F L              0         0         0         0    0    0    00000000000016000000000034700000555200
AE00TO202209080108/09/202200000000100000000000000001111KGM  00000001160KGM  18007704192              AVSS 125F V              AVSS 125F V              0         0         0         0    0    0    00000000000008000000000034700000277600
AE00TO202209080108/09/202200000000100000000000000001168KGM  00000001217KGM  18009604037              AVS 085 B/Y              AVS 085 B/Y              0         0         0         0    0    0    00000000000010000000000024100000241000
AE00TO202209080108/09/202200000000200000000000000003065KGM  00000003163KGM  18009604330              AVS 3 B                  AVS 3 B                  0         0         0         0    0    0    00000000000008000000000087500000700000
AE00TO202209080108/09/202200000000700000000000000010729KGM  00000011071KGM  18009604339              AVS 3 B/L                AVS 3 B/L                0         0         0         0    0    0    00000000000028000000000087500002450000
AE00TO202209080108/09/202200000000700000000000000010729KGM  00000011071KGM  18009604350              AVS 3 R                  AVS 3 R                  0         0         0         0    0    0    00000000000028000000000087500002450000
AE00TO202209080108/09/202200000004000000000000000038600KGM  00000040555KGM  18018404051              CAVS 085 O               CAVS 085 O               0         0         0         0    0    0    00000000000400000000000022700009080000
AE00TO202209080108/09/202200000000400000000000000003860KGM  00000004056KGM  18018404052              CAVS 085 P               CAVS 085 P               0         0         0         0    0    0    00000000000040000000000022700000908000
AE00TO202209080108/09/202200000000400000000000000003860KGM  00000004056KGM  18018404061              CAVS 085 LG              CAVS 085 LG              0         0         0         0    0    0    00000000000040000000000022700000908000
AE00TO202209080108/09/202200000001800000000000000017370KGM  00000018250KGM  18018404080              CAVS 085 BR              CAVS 085 BR              0         0         0         0    0    0    00000000000180000000000022700004086000
AE00TO202209080108/09/202200000000100000000000000000965KGM  00000001014KGM  18018404092              CAVS 085 V               CAVS 085 V               0         0         0         0    0    0    00000000000010000000000022700000227000
AE00TO202209080108/09/202200000000600000000000000007368KGM  00000007661KGM  1801R704130              CIVUS 125 B              CIVUS 125 B              0         0         0         0    0    0    00000000000060000000000031500001890000
AE00TO202209080108/09/202200000000200000000000000002456KGM  00000002554KGM  1801R704141              CIVUS 125 GY             CIVUS 125 GY             0         0         0         0    0    0    00000000000020000000000031500000630000
AE00TO202209080108/09/202200000004000000000000000049120KGM  00000051076KGM  1801R704150              CIVUS 125 R              CIVUS 125 R              0         0         0         0    0    0    00000000000400000000000031500012600000
AE00TO202209080108/09/202200000003200000000000000039296KGM  00000040860KGM  1801R704152              CIVUS 125 P              CIVUS 125 P              0         0         0         0    0    0    00000000000320000000000031500010080000
AE00TO202209080108/09/202200000002200000000000000027016KGM  00000028092KGM  1801R704170              CIVUS 125 Y              CIVUS 125 Y              0         0         0         0    0    0    00000000000220000000000031500006930000
AE00TO202209080108/09/202200000000200000000000000002456KGM  00000002554KGM  1801R704180              CIVUS 125 BR             CIVUS 125 BR             0         0         0         0    0    0    00000000000020000000000031500000630000
AE00TO202209080108/09/202200000000100000000000000001228KGM  00000001277KGM  1801R704192              CIVUS 125 V              CIVUS 125 V              0         0         0         0    0    0    00000000000010000000000031500000315000
AE00TO202209080108/09/202200000000600000000000000006750KGM  00000007044KGM  1801W003930              IVSSH 05F B              IVSSH 05F B              0         0         0         0    0    0    00000000000108000000000015400001663200
AE00TO202209080108/09/202200000000100000000000000001125KGM  00000001174KGM  1801W003940              IVSSH 05F W              IVSSH 05F W              0         0         0         0    0    0    00000000000018000000000015400000277200
AE00TO202209080108/09/202200000000200000000000000002250KGM  00000002348KGM  1801W003941              IVSSH 05F GY             IVSSH 05F GY             0         0         0         0    0    0    00000000000036000000000015400000554400
AE00TO202209080108/09/202200000000100000000000000001125KGM  00000001174KGM  1801W00395U              IVSSH 05F BE             IVSSH 05F BE             0         0         0         0    0    0    00000000000018000000000015400000277200
AE00TO202209080108/09/202200000000200000000000000002250KGM  00000002348KGM  1801W003960              IVSSH 05F G              IVSSH 05F G              0         0         0         0    0    0    00000000000036000000000015400000554400
AE00TO202209080108/09/202200000000100000000000000001125KGM  00000001174KGM  1801W003961              IVSSH 05F LG             IVSSH 05F LG             0         0         0         0    0    0    00000000000018000000000015400000277200
AE00TO202209080108/09/202200000000100000000000000001125KGM  00000001174KGM  1801W003980              IVSSH 05F BR             IVSSH 05F BR             0         0         0         0    0    0    00000000000018000000000015400000277200
AE00TO202209080108/09/202200000000100000000000000001125KGM  00000001174KGM  1801W003991              IVSSH 05F SB             IVSSH 05F SB             0         0         0         0    0    0    00000000000018000000000015400000277200
AE00TO202209080108/09/202200000000600000000000000006880KGM  00000007173KGM  1801W004052              IVSSH 075F P             IVSSH 075F P             0         0         0         0    0    0    00000000000078000000000021500001677000
AE00TO202209080108/09/202200000003900000000000000044717KGM  00000046624KGM  1801W004090              IVSSH 075F L             IVSSH 075F L             0         0         0         0    0    0    00000000000507000000000021500010900500
AE00TO202209080108/09/202200000004800000000000000054240KGM  00000056589KGM  1801W006930              IVSSH 035F B             IVSSH 035F B             0         0         0         0    0    0    00000000001200000000000011400013680000
AE00TO202209080108/09/202200000007800000000000000088140KGM  00000091953KGM  1801W006941              IVSSH 035F GY            IVSSH 035F GY            0         0         0         0    0    0    00000000001950000000000011400022230000
AE00TO202209080108/09/202200000000600000000000000006780KGM  00000007073KGM  1801W006950              IVSSH 035F R             IVSSH 035F R             0         0         0         0    0    0    00000000000150000000000011400001710000
AE00TO202209080108/09/202200000000100000000000000001130KGM  00000001179KGM  1801W006952              IVSSH 035F P             IVSSH 035F P             0         0         0         0    0    0    00000000000025000000000011400000285000
AE00TO202209080108/09/202200000002100000000000000023730KGM  00000024757KGM  1801W00695U              IVSSH 035F BE            IVSSH 035F BE            0         0         0         0    0    0    00000000000525000000000011400005985000
AE00TO202209080108/09/202200000001900000000000000021470KGM  00000022400KGM  1801W006960              IVSSH 035F G             IVSSH 035F G             0         0         0         0    0    0    00000000000475000000000011400005415000
AE00TO202209080108/09/202200000001300000000000000014690KGM  00000015325KGM  1801W006961              IVSSH 035F LG            IVSSH 035F LG            0         0         0         0    0    0    00000000000325000000000011400003705000
AE00TO202209080108/09/202200000000900000000000000010170KGM  00000010610KGM  1801W006980              IVSSH 035F BR            IVSSH 035F BR            0         0         0         0    0    0    00000000000225000000000011400002565000
AE00TO202209080108/09/202200000002800000000000000031640KGM  00000033010KGM  1801W006990              IVSSH 035F L             IVSSH 035F L             0         0         0         0    0    0    00000000000700000000000011400007980000
AE00TO202209080108/09/202200000000100000000000000001030KGM  00000001079KGM  180D0203761              AVSSH 03F LG             AVSSH 03F LG             0         0         0         0    0    0    00000000000020000000000012200000244000
AE00TO202209080108/09/202200000002900000000000000033826KGM  00000035243KGM  180D0204130              AVSSH 125F B             AVSSH 125F B             0         0         0         0    0    0    00000000000232000000000035700008282400
AE00TO202209080108/09/202200000000200000000000000002333KGM  00000002431KGM  180D0204135              AVSSH 125F B/R           AVSSH 125F B/R           0         0         0         0    0    0    00000000000016000000000035700000571200
AE00TO202209080108/09/202200000001000000000000000011664KGM  00000012152KGM  180D0204143              AVSSH 125F W/B           AVSSH 125F W/B           0         0         0         0    0    0    00000000000080000000000035700002856000
AE00TO202209080108/09/202200000000400000000000000004666KGM  00000004861KGM  180D0204153              AVSSH 125F R/B           AVSSH 125F R/B           0         0         0         0    0    0    00000000000032000000000035700001142400
AE00TO202209080108/09/202200000005900000000000000068818KGM  00000071702KGM  180D0204160              AVSSH 125F G             AVSSH 125F G             0         0         0         0    0    0    00000000000472000000000035700016850400
AE00TO202209080108/09/202200000000100000000000000001166KGM  00000001215KGM  180D0204161              AVSSH 125F LG            AVSSH 125F LG            0         0         0         0    0    0    00000000000008000000000035700000285600
AE00TO202209080108/09/202200000001700000000000000019829KGM  00000020660KGM  180D0204180              AVSSH 125F BR            AVSSH 125F BR            0         0         0         0    0    0    00000000000136000000000035700004855200
AE00TO202209080108/09/202200000003900000000000000045490KGM  00000047396KGM  180D0204190              AVSSH 125F L             AVSSH 125F L             0         0         0         0    0    0    00000000000312000000000035700011138400
AE00TO202209080108/09/202200000000200000000000000001578KGM  00000001676KGM  181B09116K3              CAVSAS 03X2 GY/P         CAVSAS 03X2 GY/P         0         0         0         0    0    0    00000000000007000000000047400000331800
AE00TO202209080108/09/202200000001900000000000000016547KGM  00000017476KGM  181B32102S1              AVSSCS 05FX2 DGY         AVSSCS 05FX2 DGY         0         0         0         0    0    0    00000000000057000000000075800004320600
AE00TO202209080108/09/202200000000400000000000000003484KGM  00000003680KGM  181B32102Y5              AVSSCS 05FX2 DGY/W       AVSSCS 05FX2 DGY/W       0         0         0         0    0    0    00000000000012000000000075800000909600
AE00TO202209080108/09/202200000000200000000000000001742KGM  00000001840KGM  181B32102Y9              AVSSCS 05FX2 DGY/P       AVSSCS 05FX2 DGY/P       0         0         0         0    0    0    00000000000006000000000075800000454800
AE00TO202209080108/09/202200000000300000000000000002613KGM  00000002760KGM  181B32102Z8              AVSSCS 05FX2 DGY/O       AVSSCS 05FX2 DGY/O       0         0         0         0    0    0    00000000000009000000000075800000682200
AE00TO202209080108/09/202200000000500000000000000003578KGM  00000003822KGM  181D6910230              AVSSHCS 05FX2 B          AVSSHCS 05FX2 B          0         0         0         0    0    0    00000000000015000000000079800001197000
AE00TO202209080108/09/202200000009400000000000000067257KGM  00000071853KGM  181D6910239              AVSSHCS 05FX2 B/L        AVSSHCS 05FX2 B/L        0         0         0         0    0    0    00000000000282000000000079800022503600
AE00TO202209080108/09/202200000005600000000000000042778KGM  00000045515KGM  181E50004ZZ              AVSSCS-S 05FX1 DGY       AVSSCS-S 05FX1 DGY       0         0         0         0    0    0    00000000000224000000000050400011289600
AE00TO202209080108/09/202200000000400000000000000003056KGM  00000003251KGM  181E50006ZZ              AVSSCS-S 05FX1 DGY/Y     AVSSCS-S 05FX1 DGY/Y     0         0         0         0    0    0    00000000000016000000000050400000806400
AE00TO202209080108/09/202200000002300000000000000017570KGM  00000018694KGM  181E50007ZZ              AVSSCS-S 05FX1 DGY/L     AVSSCS-S 05FX1 DGY/L     0         0         0         0    0    0    00000000000092000000000050400004636800
AE00TO202209080108/09/202200000000500000000000000003820KGM  00000004064KGM  181E50013ZZ              AVSSCS-S 05FX1 DGY/G     AVSSCS-S 05FX1 DGY/G     0         0         0         0    0    0    00000000000020000000000050400001008000
AE00TO202209080108/09/202200000000300000000000000002449KGM  00000002595KGM  181E50027ZZ              AVSSCS-S 05FX3 DGY/G     AVSSCS-S 05FX3 DGY/G     0         0         0         0    0    0    00000000000007500000000091500000686250
AE00TO202209080108/09/202200000000400000000000000003265KGM  00000003461KGM  181E50028ZZ              AVSSCS-S 05FX3 DGY       AVSSCS-S 05FX3 DGY       0         0         0         0    0    0    00000000000010000000000091500000915000
AE00TO202209080108/09/202200000000200000000000000001516KGM  00000001613KGM  181E50036ZZ              AVSSCS-S 03FX2 DGY       AVSSCS-S 03FX2 DGY       0         0         0         0    0    0    00000000000007000000000059400000415800
