AE00TI102209080308/09/202200000001600000000000000014011KGM  00000018709KGM  7114-4020                TERMINAL                 71144020                 0         0         0         0    0    0    00033600000002100000000023000077280000
AE00TI102209080308/09/202200000001600000000000000008208KGM  00000012771KGM  7116-4020                TERMINAL                 71164020                 0         0         0         0    0    0    00021600000001350000000028000060480000
AE00TI102209080308/09/202200000002100000000000000013541KGM  00000020477KGM  7116-4025                TERMINAL                 71164025                 0         0         0         0    0    0    00033600000001600000000034000114240000
AE00TI102209080308/09/202200000000400000000000000002735KGM  00000004050KGM  7116-4231-02             TERMINAL                 7116423102               0         0         0         0    0    0    00010400000002600000000022000022880000
AE00TI102209080308/09/202200000000700000000000000004176KGM  00000006480KGM  7116-4415-02             TERMINAL                 7116441502               0         0         0         0    0    0    00026600000003800000000016000042560000
AE00TI102209080308/09/202200000003000000000000000019440KGM  00000027996KGM  7126-8852-02             TERMINAL                 7126885202               0         0         0         0    0    0    00022500000000750000000062000139500000
AE00TI102209080308/09/202200000001600000000000000007114KGM  00000011677KGM  7196-1460-02             TERMINAL FEMALE          7196146002               0         0         0         0    0    0    00045600000002850000000014000063840000
AE00TI102209080308/09/202200000003500000000000000024024KGM  00000031549KGM  7289-3342-30             HOUSING FEMALE ASS'Y     7289334230               0         0         0         0    0    0    00008400000000240000000191000160440000
AE00TI102209080308/09/202200000002400000000000000020890KGM  00000030240KGM  7370-0309                J/B ASS'Y                73700309                 0         0         0         0    0    0    00000038400000001600028585000109766400
AE00TI102209080308/09/202200000001000000000000000000000KGM  00000000000KGM  7470-4815D               J/B COMPLETE ASS'Y       74704815D                0         0         0         0    0    0    00000015000000001500000000000000000000
AE00TI102209080308/09/202200000001500000000000000000000KGM  00000000000KGM  7470-4816D               J/B COMPLETE ASS'Y       74704816D                0         0         0         0    0    0    00000022500000001500000000000000000000
AE00TI102209080308/09/202200000000400000000000000000000KGM  00000000000KGM  7470-5300D               J/B COMPLETE ASS'Y       74705300D                0         0         0         0    0    0    00000004000000001000000000000000000000
AE00TI102209080308/09/202200000001200000000000000000000KGM  00000000000KGM  7470-5858D               J/B COMPLETE ASS'Y       74705858D                0         0         0         0    0    0    00000012000000001000000000000000000000
