AE00TI102209080208/09/202200000000200000000000000001084KGM  00000001443KGM  7147-3642-30             CLIP                     7147364230               0         0         0         0    0    0    00000600000000300000000074000004440000
AE00TI102209080208/09/202200000003000000000000000009918KGM  00000011580KGM  7158-3006-90             RUBBER STOPPER           7158300690               0         0         0         0    0    0    00060000000002000000000016000096000000
AE00TI102209080208/09/202200000002300000000000000007774KGM  00000008883KGM  7158-3009-60             RUBBER STOPPER           7158300960               0         0         0         0    0    0    00046000000002000000000012000055200000
AE00TI102209080208/09/202200000000600000000000000002805KGM  00000003144KGM  7158-3022-80             RUBBER STOPPER           7158302280               0         0         0         0    0    0    00003000000000500000000070000021000000
AE00TI102209080208/09/202200000000700000000000000000868KGM  00000001207KGM  7158-3165-90             WIRE SEAL                7158316590               0         0         0         0    0    0    00028000000004000000000006000016800000
AE00TI102209080208/09/202200000001200000000000000001248KGM  00000001829KGM  7158-3166-60             WIRE SEAL                7158316660               0         0         0         0    0    0    00048000000004000000000004000019200000
AE00TI102209080208/09/202200000001600000000000000000768KGM  00000001542KGM  7158-3167-61             WIRE SEAL                7158316761               0         0         0         0    0    0    00032000000002000000000005000016000000
AE00TI102209080208/09/202200000002600000000000000001248KGM  00000002834KGM  7158-3167-80             WIRE SEAL                7158316780               0         0         0         0    0    0    00052000000002000000000005000026000000
AE00TI102209080208/09/202200000001000000000000000000440KGM  00000000921KGM  7158-3168-80             SEALED                   7158316880               0         0         0         0    0    0    00020000000002000000000004000008000000
AE00TI102209080208/09/202200000000600000000000000000936KGM  00000001225KGM  7158-3169-40             SEALING PLUG             7158316940               0         0         0         0    0    0    00024000000004000000000006000014400000
AE00TI102209080208/09/202200000000400000000000000005356KGM  00000005956KGM  7171-6291                HOUSING MALE             71716291                 0         0         0         0    0    0    00000076800000019200001625000012480000
AE00TI102209080208/09/202200000000900000000000000005882KGM  00000006315KGM  7172-5403-30             SEALED PACKING           7172540330               0         0         0         0    0    0    00003600000000400000000119000042840000
AE00TI102209080208/09/202200000000100000000000000001282KGM  00000001477KGM  7182-4941                DOUBLE SIDED             71824941                 0         0         0         0    0    0    00000100000000100000000816000008160000
AE00TI102209080208/09/202200000000100000000000000000757KGM  00000001042KGM  7183-1615                HOUSING                  71831615                 0         0         0         0    0    0    00000480000000480000000081000003888000
AE00TI102209080208/09/202200000000200000000000000002118KGM  00000002491KGM  7183-2412                HOUSING                  71832412                 0         0         0         0    0    0    00000320000000160000000155000004960000
AE00TI102209080208/09/202200000000100000000000000000478KGM  00000000760KGM  7183-2413                CONNECTOR HOUSING        71832413                 0         0         0         0    0    0    00000480000000480000000074000003552000
AE00TI102209080208/09/202200000000200000000000000000955KGM  00000001519KGM  7183-2413-30             CONNECTOR HOUSING        7183241330               0         0         0         0    0    0    00000960000000480000000076000007296000
AE00TI102209080208/09/202200000000200000000000000001558KGM  00000002122KGM  7183-2414                CONNECTOR HOUSING        71832414                 0         0         0         0    0    0    00000960000000480000000050000004800000
AE00TI102209080208/09/202200000000200000000000000001559KGM  00000002123KGM  7183-2414-30             CONNECTOR HOUSING        7183241430               0         0         0         0    0    0    00000960000000480000000054000005184000
AE00TI102209080208/09/202200000000100000000000000000917KGM  00000001477KGM  7183-2418                CONNECTOR HOUSING        71832418                 0         0         0         0    0    0    00000480000000480000000078000003744000
AE00TI102209080208/09/202200000000100000000000000001065KGM  00000001352KGM  7183-2419-30             HOUSING                  7183241930               0         0         0         0    0    0    00000480000000480000000093000004464000
AE00TI102209080208/09/202200000000100000000000000000821KGM  00000001104KGM  7183-6320                HOUSING                  71836320                 0         0         0         0    0    0    00000480000000480000000092000004416000
AE00TI102209080208/09/202200000000100000000000000000819KGM  00000001102KGM  7183-6320-30             HOUSING                  7183632030               0         0         0         0    0    0    00000480000000480000000114000005472000
AE00TI102209080208/09/202200000000100000000000000000626KGM  00000000771KGM  7188-9509                HLC HOUSING MALE         71889509                 0         0         0         0    0    0    00000200000000200000000231000004620000
AE00TI102209080208/09/202200000000100000000000000000627KGM  00000000772KGM  7188-9511-80             HLC HOUSING MALE         7188951180               0         0         0         0    0    0    00000200000000200000000245000004900000
AE00TI102209080208/09/202200000000100000000000000000579KGM  00000000686KGM  7189-9516-40             HOUSING                  7189951640               0         0         0         0    0    0    00000200000000200000000238000004760000
AE00TI102209080208/09/202200000000100000000000000000577KGM  00000000684KGM  7189-9517                HOUSING                  71899517                 0         0         0         0    0    0    00000200000000200000000228000004560000
AE00TI102209080208/09/202200000000100000000000000000579KGM  00000000686KGM  7189-9519-80             HOUSING                  7189951980               0         0         0         0    0    0    00000200000000200000000243000004860000
AE00TI102209080208/09/202200000000100000000000000000578KGM  00000000685KGM  7189-9520-10             HOUSING                  7189952010               0         0         0         0    0    0    00000200000000200000000239000004780000
AE00TI102209080208/09/202200000000200000000000000001933KGM  00000002250KGM  7222-7564-30             CONNECTOR                7222756430               0         0         0         0    0    0    00000100000000050000001175000011750000
AE00TI102209080208/09/202200000000200000000000000001934KGM  00000002194KGM  7222-7564-40             CONNECTOR                7222756440               0         0         0         0    0    0    00000100000000050000001166000011660000
AE00TI102209080208/09/202200000012000000000000000028776KGM  00000058776KGM  7271-1820-30             CASE SUB ASSY,ECU        7271182030               0         0         0         0    0    0    00000216000000001800009576000206841600
AE00TI102209080208/09/202200000000200000000000000001755KGM  00000002156KGM  7283-1156                CONNECTOR                72831156                 0         0         0         0    0    0    00000160000000080000000810000012960000
AE00TI102209080208/09/202200000000100000000000000001160KGM  00000001341KGM  7283-1485                CONNECTOR                72831485                 0         0         0         0    0    0    00000200000000200000000366000007320000
AE00TI102209080208/09/202200000000100000000000000001140KGM  00000001318KGM  7283-1968-30             CONNECTOR                7283196830               0         0         0         0    0    0    00000090000000090000000687000006183000
AE00TI102209080208/09/202200000000200000000000000001356KGM  00000001891KGM  7283-6036                CONNECTOR HOUSING        72836036                 0         0         0         0    0    0    00000320000000160000000260000008320000
AE00TI102209080208/09/202200000000100000000000000001005KGM  00000001158KGM  7283-6038                CONNECTOR                72836038                 0         0         0         0    0    0    00000400000000400000000273000010920000
AE00TI102209080208/09/202200000000100000000000000001452KGM  00000001681KGM  7283-7028-30             CONNECTOR                7283702830               0         0         0         0    0    0    00000300000000300000000520000015600000
AE00TI102209080208/09/202200000001200000000000000008237KGM  00000010817KGM  7289-3342                HOUSING FEMALE ASS'Y     72893342                 0         0         0         0    0    0    00002880000000240000000186000053568000
AE00TI102209080208/09/202200000000500000000000000003432KGM  00000004507KGM  7289-3342-30             HOUSING FEMALE ASS'Y     7289334230               0         0         0         0    0    0    00001200000000240000000191000022920000
AE00TI102209080208/09/202200000000600000000000000004118KGM  00000005408KGM  7289-3342-40             HOUSING FEMALE ASS'Y     7289334240               0         0         0         0    0    0    00001440000000240000000192000027648000
AE00TI102209080208/09/202200000003500000000000000024024KGM  00000031549KGM  7289-3342-90             HOUSING FEMALE ASS'Y     7289334290               0         0         0         0    0    0    00008400000000240000000196000164640000
AE00TI102209080208/09/202200000000600000000000000007030KGM  00000008212KGM  7289-5011-30             HOUSING FEMALE ASS'Y     7289501130               0         0         0         0    0    0    00001440000000240000000333000047952000
AE00TI102209080208/09/202200000000500000000000000005541KGM  00000007603KGM  7289-9553-50             SEALED ASSY FEMALE       7289955350               0         0         0         0    0    0    00001470000000294000000252000037044000
AE00TI102209080208/09/202200000000300000000000000003594KGM  00000004848KGM  7341-5305-40             SOCKET PLUG              7341530540               0         0         0         0    0    0    00000600000000200000000437000026220000
