AE00TI102209080608/09/202200000000100000000000000000154KGM  00000000440KGM  7157-3950-80             SEAL RUBBER              7157395080               0         0         0         0    0    0    00004000000004000000000044000017600000
AE00TI102209080608/09/202200000001000000000000000002500KGM  00000003060KGM  7158-3003-90             RUBBER STOPPER           7158300390               0         0         0         0    0    0    00020000000002000000000012000024000000
AE00TI102209080608/09/202200000000100000000000000000118KGM  00000000187KGM  7158-3121-80             WIRE SEAL                7158312180               0         0         0         0    0    0    00002000000002000000000010000002000000
AE00TI102209080608/09/202200000000200000000000000001519KGM  00000002049KGM  7187-3356                JOINT CONNECTOR          71873356                 0         0         0         0    0    0    00000240000000120000001038000024912000
AE00TI102209080608/09/202200000000900000000000000006869KGM  00000009274KGM  7187-3359-60             JOINT CONNECTOR          7187335960               0         0         0         0    0    0    00001080000000120000001079000116532000
AE00TI102209080608/09/202200000000100000000000000000809KGM  00000000924KGM  7188-0149                HLC HOUSING MALE         71880149                 0         0         0         0    0    0    00000090000000090000000530000004770000
AE00TI102209080608/09/202200000000100000000000000000598KGM  00000000721KGM  7198-1371-60             HOUSING FEMALE           7198137160               0         0         0         0    0    0    00000200000000200000000121000002420000
AE00TI102209080608/09/202200000000100000000000000000857KGM  00000000982KGM  7198-1372                HOUSING FEMALE           71981372                 0         0         0         0    0    0    00000200000000200000000131000002620000
AE00TI102209080608/09/202200000000100000000000000000819KGM  00000000947KGM  7198-1373-60             HOUSING FEMALE           7198137360               0         0         0         0    0    0    00000200000000200000000134000002680000
AE00TI102209080608/09/202200000000200000000000000001738KGM  00000002321KGM  7198-2458                HOUSING FEMALE           71982458                 0         0         0         0    0    0    00000352000000176000000237000008342400
AE00TI102209080608/09/202200000001300000000000000010174KGM  00000012904KGM  7282-4578                HOUSING MALE ASS'Y       72824578                 0         0         0         0    0    0    00001560000000120000000255000039780000
AE00TI102209080608/09/202200000000400000000000000004253KGM  00000005133KGM  7282-4855                HOUSING MALE ASS'Y       72824855                 0         0         0         0    0    0    00000480000000120000000347000016656000
AE00TI102209080608/09/202200000000100000000000000000676KGM  00000000818KGM  7283-1289                CONNECTOR HOUSING        72831289                 0         0         0         0    0    0    00000060000000060000000795000004770000
AE00TI102209080608/09/202200000000100000000000000000651KGM  00000000871KGM  7283-4576                HOUSING FEMALE ASS'Y     72834576                 0         0         0         0    0    0    00000480000000480000000128000006144000
AE00TI102209080608/09/202200000000100000000000000000651KGM  00000000871KGM  7283-4576-90             HOUSING FEMALE ASS'Y     7283457690               0         0         0         0    0    0    00000480000000480000000133000006384000
AE00TI102209080608/09/202200000001000000000000000008376KGM  00000010576KGM  7283-4578                HOUSING FEMALE ASS'Y     72834578                 0         0         0         0    0    0    00002400000000240000000190000045600000
AE00TI102209080608/09/202200000000100000000000000000838KGM  00000001058KGM  7283-4578-40             HOUSING FEMALE ASS'Y     7283457840               0         0         0         0    0    0    00000240000000240000000198000004752000
AE00TI102209080608/09/202200000000400000000000000003556KGM  00000004528KGM  7283-5843                CONNECTOR                72835843                 0         0         0         0    0    0    00000600000000150000000280000016800000
AE00TI102209080608/09/202200000000500000000000000002220KGM  00000003032KGM  7283-5845                CONNECTOR HOUSING        72835845                 0         0         0         0    0    0    00003000000000600000000133000039900000
AE00TI102209080608/09/202200000000200000000000000000888KGM  00000001213KGM  7283-5845-30             CONNECTOR HOUSING        7283584530               0         0         0         0    0    0    00001200000000600000000133000015960000
AE00TI102209080608/09/202200000000300000000000000002742KGM  00000003429KGM  7283-6120                CONNECTOR HOUSING        72836120                 0         0         0         0    0    0    00000450000000150000000368000016560000
AE00TI102209080608/09/202200000000100000000000000000583KGM  00000000750KGM  7283-7064-10             CONNECTOR HOUSING        7283706410               0         0         0         0    0    0    00000060000000060000000719000004314000
AE00TI102209080608/09/202200000000100000000000000000745KGM  00000000890KGM  7283-8720-30             HOUSING FEMALE           7283872030               0         0         0         0    0    0    00000240000000240000000616000014784000
AE00TI102209080608/09/202200000000700000000000000006374KGM  00000007914KGM  7286-3885                CONNECTOR MALE ASS'Y     72863885                 0         0         0         0    0    0    00000840000000120000000295000024780000
AE00TI102209080608/09/202200000000200000000000000001333KGM  00000001846KGM  7287-1915                CONNECTOR ASS'Y          72871915                 0         0         0         0    0    0    00000480000000240000000161000007728000
AE00TI102209080608/09/202200000000400000000000000004118KGM  00000004998KGM  7287-3885-40             HYBRID FEMALE ASS'Y      7287388540               0         0         0         0    0    0    00000960000000240000000216000020736000
AE00TI102209080608/09/202200000000300000000000000001163KGM  00000002363KGM  7288-3206                HOUSING MALE ASS'Y       72883206                 0         0         0         0    0    0    00000306000000102000000351000010740600
AE00TI102209080608/09/202200000001200000000000000010393KGM  00000012133KGM  7288-3329-30             HOUSING MALE             7288332930               0         0         0         0    0    0    00001800000000150000000354000063720000
AE00TI102209080608/09/202200000000800000000000000006886KGM  00000008046KGM  7288-3332-30             HOUSING MALE             7288333230               0         0         0         0    0    0    00001200000000150000000354000042480000
AE00TI102209080608/09/202200000000100000000000000000867KGM  00000001012KGM  7288-3335-30             HOUSING MALE             7288333530               0         0         0         0    0    0    00000150000000150000000354000005310000
AE00TI102209080608/09/202200000000300000000000000002601KGM  00000003036KGM  7288-3337-30             HOUSING MALE             7288333730               0         0         0         0    0    0    00000450000000150000000354000015930000
AE00TI102209080608/09/202200000001500000000000000010296KGM  00000013521KGM  7289-3342                HOUSING FEMALE ASS'Y     72893342                 0         0         0         0    0    0    00003600000000240000000186000066960000
AE00TI102209080608/09/202200000000400000000000000002746KGM  00000003606KGM  7289-3342-40             HOUSING FEMALE ASS'Y     7289334240               0         0         0         0    0    0    00000960000000240000000192000018432000
AE00TI102209080608/09/202200000000200000000000000001827KGM  00000002111KGM  7289-4696-30             HOUSING FEMALE ASS'Y     7289469630               0         0         0         0    0    0    00000400000000200000000410000016400000
AE00TI102209080608/09/202200000019600000000000000225792KGM  00000266952KGM  7289-6547                HOUSING FEMALE ASS'Y     72896547                 0         0         0         0    0    0    00047040000000240000000229001077216000
AE00TI102209080608/09/202200000000300000000000000002518KGM  00000003358KGM  7289-6868-30             SEALED ASSY FEMALE       7289686830               0         0         0         0    0    0    00000756000000252000000332000025099200
AE00TI102209080608/09/202200000000100000000000000001097KGM  00000001359KGM  7298-4094-10             HOUSING FEMALE ASS'Y     7298409410               0         0         0         0    0    0    00000338000000338000000241000008145800
AE00TI102209080708/09/202200000001600000000000000011122KGM  00000015819KGM  7114-5746-02             TERMINAL                 7114574602               0         0         0         0    0    0    00033600000002100000000030000100800000
AE00TI102209080708/09/202200000001600000000000000009912KGM  00000014475KGM  7116-4031                TERMINAL                 71164031                 0         0         0         0    0    0    00012000000000750000000058000069600000
AE00TI102209080708/09/202200000001600000000000000010941KGM  00000016200KGM  7116-4231-02             TERMINAL                 7116423102               0         0         0         0    0    0    00041600000002600000000022000091520000
AE00TI102209080708/09/202200000016000000000000000038368KGM  00000078368KGM  7271-1820-30             CASE SUB ASSY,ECU        7271182030               0         0         0         0    0    0    00000288000000001800009576000275788800
AE00TI102209080708/09/202200000001500000000000000000000KGM  00000000000KGM  7470-4816D               J/B COMPLETE ASS'Y       74704816D                0         0         0         0    0    0    00000022500000001500000000000000000000
AE00TI102209080708/09/202200000001200000000000000000000KGM  00000000000KGM  7470-4818D               J/B COMPLETE ASS'Y       74704818D                0         0         0         0    0    0    00000018000000001500000000000000000000
AE00TI102209080708/09/202200000001800000000000000000000KGM  00000000000KGM  7470-5308E               J/B COMPLETE ASS'Y       74705308E                0         0         0         0    0    0    00000018000000001000000000000000000000
AE00TI102209080708/09/202200000003600000000000000000000KGM  00000000000KGM  7470-5783E               J/B COMPLETE ASS'Y       74705783E                0         0         0         0    0    0    00000036000000001000000000000000000000
AE00TI102209080708/09/202200000001500000000000000000000KGM  00000000000KGM  7470-5858D               J/B COMPLETE ASS'Y       74705858D                0         0         0         0    0    0    00000015000000001000000000000000000000
