AE00TO202209080308/09/202200000007800000000000000081637KGM  00000085450KGM  18000004540              AV 8 W                   AV 8 W                   0         0         0         0    0    0    00000000000078000000000211100016465800
AE00TO202209080308/09/202200000000200000000000000002093KGM  00000002191KGM  18000004543              AV 8 W/B                 AV 8 W/B                 0         0         0         0    0    0    00000000000002000000000211100000422200
AE00TO202209080308/09/202200000001500000000000000015699KGM  00000016433KGM  18000004550              AV 8 R                   AV 8 R                   0         0         0         0    0    0    00000000000015000000000211100003166500
AE00TO202209080308/09/202200000000200000000000000002093KGM  00000002191KGM  18000004553              AV 8 R/B                 AV 8 R/B                 0         0         0         0    0    0    00000000000002000000000211100000422200
AE00TO202209080308/09/202200000006900000000000000072216KGM  00000075590KGM  18000004570              AV 8 Y                   AV 8 Y                   0         0         0         0    0    0    00000000000069000000000211100014565900
AE00TO202209080308/09/202200000000100000000000000001011KGM  00000001060KGM  18007703954              AVSS 05F R/W             AVSS 05F R/W             0         0         0         0    0    0    00000000000015000000000015600000234000
AE00TO202209080308/09/202200000000100000000000000000850KGM  00000000899KGM  18009603937              AVS 05 B/Y               AVS 05 B/Y               0         0         0         0    0    0    00000000000010000000000016600000166000
AE00TO202209080308/09/202200000000900000000000000008685KGM  00000009125KGM  18018404051              CAVS 085 O               CAVS 085 O               0         0         0         0    0    0    00000000000090000000000022700002043000
AE00TO202209080308/09/202200000000400000000000000003860KGM  00000004056KGM  18018404052              CAVS 085 P               CAVS 085 P               0         0         0         0    0    0    00000000000040000000000022700000908000
AE00TO202209080308/09/202200000000100000000000000000965KGM  00000001014KGM  18018404080              CAVS 085 BR              CAVS 085 BR              0         0         0         0    0    0    00000000000010000000000022700000227000
AE00TO202209080308/09/202200000000500000000000000004825KGM  00000005069KGM  18018404090              CAVS 085 L               CAVS 085 L               0         0         0         0    0    0    00000000000050000000000022700001135000
AE00TO202209080308/09/202200000001200000000000000014736KGM  00000015323KGM  1801R704140              CIVUS 125 W              CIVUS 125 W              0         0         0         0    0    0    00000000000120000000000031500003780000
AE00TO202209080308/09/202200000002800000000000000034384KGM  00000035753KGM  1801R704170              CIVUS 125 Y              CIVUS 125 Y              0         0         0         0    0    0    00000000000280000000000031500008820000
AE00TO202209080308/09/202200000002400000000000000027519KGM  00000028690KGM  1801W004030              IVSSH 075F B             IVSSH 075F B             0         0         0         0    0    0    00000000000312000000000021500006708000
AE00TO202209080308/09/202200000003000000000000000034398KGM  00000035865KGM  1801W004040              IVSSH 075F W             IVSSH 075F W             0         0         0         0    0    0    00000000000390000000000021500008385000
AE00TO202209080308/09/202200000001200000000000000013761KGM  00000014343KGM  1801W004050              IVSSH 075F R             IVSSH 075F R             0         0         0         0    0    0    00000000000156000000000021500003354000
AE00TO202209080308/09/202200000000800000000000000009173KGM  00000009563KGM  1801W004052              IVSSH 075F P             IVSSH 075F P             0         0         0         0    0    0    00000000000104000000000021500002236000
AE00TO202209080308/09/202200000002600000000000000029812KGM  00000031080KGM  1801W004060              IVSSH 075F G             IVSSH 075F G             0         0         0         0    0    0    00000000000338000000000021500007267000
AE00TO202209080308/09/202200000000400000000000000004587KGM  00000004781KGM  1801W004061              IVSSH 075F LG            IVSSH 075F LG            0         0         0         0    0    0    00000000000052000000000021500001118000
AE00TO202209080308/09/202200000000800000000000000009173KGM  00000009563KGM  1801W004070              IVSSH 075F Y             IVSSH 075F Y             0         0         0         0    0    0    00000000000104000000000021500002236000
AE00TO202209080308/09/202200000000600000000000000006880KGM  00000007172KGM  1801W004080              IVSSH 075F BR            IVSSH 075F BR            0         0         0         0    0    0    00000000000078000000000021500001677000
AE00TO202209080308/09/202200000001600000000000000018346KGM  00000019127KGM  1801W004090              IVSSH 075F L             IVSSH 075F L             0         0         0         0    0    0    00000000000208000000000021500004472000
AE00TO202209080308/09/202200000000200000000000000002294KGM  00000002390KGM  1801W004091              IVSSH 075F SB            IVSSH 075F SB            0         0         0         0    0    0    00000000000026000000000021500000559000
AE00TO202209080308/09/202200000000300000000000000003440KGM  00000003586KGM  1801W004092              IVSSH 075F V             IVSSH 075F V             0         0         0         0    0    0    00000000000039000000000021500000838500
AE00TO202209080308/09/202200000000300000000000000003332KGM  00000003478KGM  1801W004330              IVSSH 3 B                IVSSH 3 B                0         0         0         0    0    0    00000000000010500000000087900000922950
AE00TO202209080308/09/202200000000200000000000000002221KGM  00000002319KGM  1801W004343              IVSSH 3 W/B              IVSSH 3 W/B              0         0         0         0    0    0    00000000000007000000000087900000615300
AE00TO202209080308/09/202200000000100000000000000001111KGM  00000001159KGM  1801W004390              IVSSH 3 L                IVSSH 3 L                0         0         0         0    0    0    00000000000003500000000087900000307650
AE00TO202209080308/09/202200000000500000000000000005650KGM  00000005895KGM  1801W006941              IVSSH 035F GY            IVSSH 035F GY            0         0         0         0    0    0    00000000000125000000000011400001425000
AE00TO202209080308/09/202200000000100000000000000001130KGM  00000001179KGM  1801W006961              IVSSH 035F LG            IVSSH 035F LG            0         0         0         0    0    0    00000000000025000000000011400000285000
AE00TO202209080308/09/202200000000100000000000000001130KGM  00000001179KGM  1801W006970              IVSSH 035F Y             IVSSH 035F Y             0         0         0         0    0    0    00000000000025000000000011400000285000
AE00TO202209080308/09/202200000000200000000000000002060KGM  00000002158KGM  180D0203740              AVSSH 03F W              AVSSH 03F W              0         0         0         0    0    0    00000000000040000000000012200000488000
AE00TO202209080308/09/202200000000500000000000000005150KGM  00000005394KGM  180D0203741              AVSSH 03F GY             AVSSH 03F GY             0         0         0         0    0    0    00000000000100000000000012200001220000
AE00TO202209080308/09/202200000000700000000000000007210KGM  00000007552KGM  180D0203761              AVSSH 03F LG             AVSSH 03F LG             0         0         0         0    0    0    00000000000140000000000012200001708000
AE00TO202209080308/09/202200000000300000000000000003090KGM  00000003237KGM  180D0203790              AVSSH 03F L              AVSSH 03F L              0         0         0         0    0    0    00000000000060000000000012200000732000
AE00TO202209080308/09/202200000000100000000000000000934KGM  00000000983KGM  180D0204043              AVSSH 075F W/B           AVSSH 075F W/B           0         0         0         0    0    0    00000000000010000000000023200000232000
AE00TO202209080308/09/202200000001000000000000000011664KGM  00000012153KGM  180D0204130              AVSSH 125F B             AVSSH 125F B             0         0         0         0    0    0    00000000000080000000000035700002856000
AE00TO202209080308/09/202200000000800000000000000009331KGM  00000009722KGM  180D0204140              AVSSH 125F W             AVSSH 125F W             0         0         0         0    0    0    00000000000064000000000035700002284800
AE00TO202209080308/09/202200000000200000000000000002332KGM  00000002430KGM  180D0204143              AVSSH 125F W/B           AVSSH 125F W/B           0         0         0         0    0    0    00000000000016000000000035700000571200
AE00TO202209080308/09/202200000000100000000000000001166KGM  00000001215KGM  180D0204149              AVSSH 125F W/L           AVSSH 125F W/L           0         0         0         0    0    0    00000000000008000000000035700000285600
AE00TO202209080308/09/202200000001400000000000000016329KGM  00000017014KGM  180D0204160              AVSSH 125F G             AVSSH 125F G             0         0         0         0    0    0    00000000000112000000000035700003998400
AE00TO202209080308/09/202200000000700000000000000008165KGM  00000008507KGM  180D0204170              AVSSH 125F Y             AVSSH 125F Y             0         0         0         0    0    0    00000000000056000000000035700001999200
AE00TO202209080308/09/202200000001000000000000000011664KGM  00000012153KGM  180D0204180              AVSSH 125F BR            AVSSH 125F BR            0         0         0         0    0    0    00000000000080000000000035700002856000
AE00TO202209080308/09/202200000001700000000000000019829KGM  00000020660KGM  180D0204190              AVSSH 125F L             AVSSH 125F L             0         0         0         0    0    0    00000000000136000000000035700004855200
AE00TO202209080308/09/202200000000900000000000000010498KGM  00000010937KGM  180D0204192              AVSSH 125F V             AVSSH 125F V             0         0         0         0    0    0    00000000000072000000000035700002570400
AE00TO202209080308/09/202200000002400000000000000020337KGM  00000021511KGM  181AD2001ZZ              CIVUSAS-S 035X1 B        CIVUSAS-S 035X1 B        0         0         0         0    0    0    00000000000132000000000034200004514400
AE00TO202209080308/09/202200000002200000000000000018479KGM  00000019555KGM  181AD2004ZZ              CIVUSAS-S 035X4 B        CIVUSAS-S 035X4 B        0         0         0         0    0    0    00000000000066000000000066700004402200
AE00TO202209080308/09/202200000000100000000000000000820KGM  00000000869KGM  181AD2007ZZ              CIVUSAS-S 05X1 B         CIVUSAS-S 05X1 B         0         0         0         0    0    0    00000000000005000000000038700000193500
AE00TO202209080308/09/202200000000200000000000000001607KGM  00000001705KGM  181AD2010ZZ              CIVUSAS-S 05X4 B         CIVUSAS-S 05X4 B         0         0         0         0    0    0    00000000000005000000000083700000418500
AE00TO202209080308/09/202200000000500000000000000004482KGM  00000004726KGM  181B32103S1              AVSSCS 05FX3 DGY         AVSSCS 05FX3 DGY         0         0         0         0    0    0    00000000000012500000000096400001205000
AE00TO202209080308/09/202200000006600000000000000046534KGM  00000049761KGM  181CQ7003ZZ              IVSSHCS-S 05FX2 B(B,W)   IVSSHCS-S 05FX2 B(B,W)   0         0         0         0    0    0    00000000000198000000000072600014374800
AE00TO202209080308/09/202200000000700000000000000005009KGM  00000005351KGM  181D6910230              AVSSHCS 05FX2 B          AVSSHCS 05FX2 B          0         0         0         0    0    0    00000000000021000000000079800001675800
AE00TO202209080308/09/202200000000600000000000000004294KGM  00000004586KGM  181D6910235              AVSSHCS 05FX2 B/R        AVSSHCS 05FX2 B/R        0         0         0         0    0    0    00000000000018000000000079800001436400
AE00TO202209080308/09/202200000001500000000000000010733KGM  00000011467KGM  181D6910239              AVSSHCS 05FX2 B/L        AVSSHCS 05FX2 B/L        0         0         0         0    0    0    00000000000045000000000079800003591000
AE00TO202209080308/09/202200000000600000000000000004584KGM  00000004877KGM  181E50004ZZ              AVSSCS-S 05FX1 DGY       AVSSCS-S 05FX1 DGY       0         0         0         0    0    0    00000000000024000000000050400001209600
AE00TO202209080308/09/202200000000100000000000000000764KGM  00000000813KGM  181E50007ZZ              AVSSCS-S 05FX1 DGY/L     AVSSCS-S 05FX1 DGY/L     0         0         0         0    0    0    00000000000004000000000050400000201600
