AE00TI102209080108/09/202200000000400000000000000002490KGM  00000003048KGM  7174-1849-70             COVER                    7174184970               0         0         0         0    0    0    00010000000002500000000046000046000000
AE00TI102209080108/09/202200000000400000000000000003464KGM  00000004044KGM  7288-3329-30             HOUSING MALE             7288332930               0         0         0         0    0    0    00000600000000150000000354000021240000
AE00TI102209080108/09/202200000000100000000000000000861KGM  00000001006KGM  7288-3332-30             HOUSING MALE             7288333230               0         0         0         0    0    0    00000150000000150000000354000005310000
AE00TI102209080108/09/202200000000700000000000000008437KGM  00000009382KGM  7288-6547                CONNECTOR MALE ASS'Y     72886547                 0         0         0         0    0    0    00000525000000075000001125000059062500
AE00TI102209080108/09/202200000000800000000000000005491KGM  00000007211KGM  7289-3342                HOUSING FEMALE ASS'Y     72893342                 0         0         0         0    0    0    00001920000000240000000186000035712000
AE00TI102209080108/09/202200000001300000000000000008923KGM  00000011718KGM  7289-3342-30             HOUSING FEMALE ASS'Y     7289334230               0         0         0         0    0    0    00003120000000240000000191000059592000
AE00TI102209080108/09/202200000001900000000000000010431KGM  00000014421KGM  7289-5000                HOUSING FEMALE ASS'Y     72895000                 0         0         0         0    0    0    00000577600000030400000650000037544000
AE00TI102209080108/09/202200000000400000000000000004687KGM  00000005474KGM  7289-5011-30             HOUSING FEMALE ASS'Y     7289501130               0         0         0         0    0    0    00000960000000240000000333000031968000
AE00TI102209080108/09/202200000000600000000000000005035KGM  00000006715KGM  7289-6868-30             SEALED ASSY FEMALE       7289686830               0         0         0         0    0    0    00001512000000252000000332000050198400
AE00TI102209080108/09/202200000000300000000000000003324KGM  00000004562KGM  7289-9553-50             SEALED ASSY FEMALE       7289955350               0         0         0         0    0    0    00000882000000294000000252000022226400
AE00TI102209080108/09/202200000000200000000000000002481KGM  00000002812KGM  7298-1853-10             HOUSING FEMALE ASS'Y     7298185310               0         0         0         0    0    0    00000780000000390000000186000014508000
AE00TI102209080108/09/202200000000100000000000000001097KGM  00000001359KGM  7298-4094-10             HOUSING FEMALE ASS'Y     7298409410               0         0         0         0    0    0    00000338000000338000000241000008145800
AE00TI102209080108/09/202200000000400000000000000003926KGM  00000005160KGM  7298-5993-30             SEALED ASSY FEMALE       7298599330               0         0         0         0    0    0    00000873600000218400000266000023237760
AE00TI102209080108/09/202200000002000000000000000022818KGM  00000027118KGM  7327-6840-3W             BATTERY FUSE             732768403W               0         0         0         0    0    0    00000144000000007200009909000142689600
AE00TI102209080108/09/202200000003500000000000000025970KGM  00000039270KGM  7388-2978-30             HOUSING MALE ASS'Y       7388297830               0         0         0         0    0    0    00001680000000048000001790000300720000
AE00TI102209080108/09/202200000001800000000000000023760KGM  00000028260KGM  7470-3082                J/B COMPLETE ASS'Y       74703082                 0         0         0         0    0    0    00000043200000002400031298000135207360
AE00TI102209080108/09/202200000002000000000000000000000KGM  00000000000KGM  7470-5300E               J/B COMPLETE ASS'Y       74705300E                0         0         0         0    0    0    00000020000000001000000000000000000000
AE00TI102209080108/09/202200000001200000000000000000000KGM  00000000000KGM  7470-5782D               J/B COMPLETE ASS'Y       74705782D                0         0         0         0    0    0    00000018000000001500000000000000000000
AE00TI102209080108/09/202200000005200000000000000000000KGM  00000000000KGM  7470-5791D               J/B COMPLETE ASS'Y       74705791D                0         0         0         0    0    0    00000078000000001500000000000000000000
AE00TI102209080108/09/202200000001200000000000000000000KGM  00000000000KGM  7470-5858D               J/B COMPLETE ASS'Y       74705858D                0         0         0         0    0    0    00000012000000001000000000000000000000
