AE00TI102209080408/09/202200000003100000000000000016573KGM  00000026933KGM  7116-4021                TERMINAL                 71164021                 0         0         0         0    0    0    00041850000001350000000028000117180000
AE00TI102209080408/09/202200000000200000000000000001472KGM  00000001904KGM  7154-5597-30             CASSETTE R/B             7154559730               0         0         0         0    0    0    00000160000000080000000255000004080000
AE00TI102209080408/09/202200000000200000000000000001654KGM  00000002204KGM  7154-5712-30             CASSETTE R/B             7154571230               0         0         0         0    0    0    00000160000000080000000288000004608000
AE00TI102209080408/09/202200000001500000000000000011432KGM  00000014705KGM  7171-6292                HOUSING                  71716292                 0         0         0         0    0    0    00000270000000018000001240000033480000
AE00TI102209080408/09/202200000000200000000000000001920KGM  00000002491KGM  7182-2410                CONNECTOR HOUSING        71822410                 0         0         0         0    0    0    00000240000000120000000187000004488000
AE00TI102209080408/09/202200000000700000000000000005107KGM  00000005831KGM  7182-2412                HOUSING MALE             71822412                 0         0         0         0    0    0    00000350000000050000000638000022330000
AE00TI102209080408/09/202200000000400000000000000002872KGM  00000003356KGM  7183-4000                HOUSING FEMALE           71834000                 0         0         0         0    0    0    00000800000000200000000259000020720000
AE00TI102209080408/09/202200000000900000000000000007282KGM  00000008314KGM  7188-0149                HLC HOUSING MALE         71880149                 0         0         0         0    0    0    00000810000000090000000530000042930000
AE00TI102209080408/09/202200000000100000000000000000230KGM  00000000339KGM  7282-5528-70             HOUSING MALE ASS'Y       7282552870               0         0         0         0    0    0    00000100000000100000000434000004340000
AE00TI102209080408/09/202200000000100000000000000000620KGM  00000000732KGM  7282-7040-30             HOUSING MALE ASS'Y       7282704030               0         0         0         0    0    0    00000120000000120000000702000008424000
AE00TI102209080408/09/202200000000800000000000000005410KGM  00000006541KGM  7283-1289                CONNECTOR HOUSING        72831289                 0         0         0         0    0    0    00000480000000060000000795000038160000
AE00TI102209080408/09/202200000000500000000000000003381KGM  00000004106KGM  7283-1289-10             CONNECTOR HOUSING        7283128910               0         0         0         0    0    0    00000300000000060000000813000024390000
AE00TI102209080408/09/202200000000600000000000000004054KGM  00000004924KGM  7283-1289-30             CONNECTOR HOUSING        7283128930               0         0         0         0    0    0    00000360000000060000000813000029268000
AE00TI102209080408/09/202200000005500000000000000037389KGM  00000045364KGM  7283-1289-40             CONNECTOR HOUSING        7283128940               0         0         0         0    0    0    00003300000000060000000813000268290000
AE00TI102209080408/09/202200000000200000000000000001834KGM  00000002274KGM  7283-4577                CONNECTOR HOUSING        72834577                 0         0         0         0    0    0    00000960000000480000000172000016512000
AE00TI102209080408/09/202200000001600000000000000008006KGM  00000010326KGM  7283-7062-30             CONNECTOR HOUSING        7283706230               0         0         0         0    0    0    00000960000000060000000666000063936000
AE00TI102209080408/09/202200000001600000000000000008006KGM  00000010326KGM  7283-7062-40             CONNECTOR HOUSING        7283706240               0         0         0         0    0    0    00000960000000060000000666000063936000
AE00TI102209080408/09/202200000000700000000000000004078KGM  00000005247KGM  7283-7064-10             CONNECTOR HOUSING        7283706410               0         0         0         0    0    0    00000420000000060000000719000030198000
AE00TI102209080408/09/202200000000100000000000000000585KGM  00000000752KGM  7283-7064-40             CONNECTOR HOUSING        7283706440               0         0         0         0    0    0    00000060000000060000000719000004314000
AE00TI102209080408/09/202200000000300000000000000002234KGM  00000002669KGM  7283-8720-30             HOUSING FEMALE           7283872030               0         0         0         0    0    0    00000720000000240000000616000044352000
AE00TI102209080408/09/202200000000300000000000000001050KGM  00000001388KGM  7283-8721-30             HOUSING FEMALE ASS'Y     7283872130               0         0         0         0    0    0    00000300000000100000000415000012450000
AE00TI102209080408/09/202200000000100000000000000000967KGM  00000001168KGM  7286-1917                CONNECTOR MALE ASS'Y     72861917                 0         0         0         0    0    0    00000120000000120000000517000006204000
AE00TI102209080408/09/202200000000100000000000000000952KGM  00000001140KGM  7286-7860                HOUSING MALE ASS'Y       72867860                 0         0         0         0    0    0    00000080000000080000000383000003064000
AE00TI102209080408/09/202200000000800000000000000006830KGM  00000008362KGM  7287-9155                HOUSING FEMALE ASS'Y     72879155                 0         0         0         0    0    0    00000768000000096000000357000027417600
AE00TI102209080408/09/202200000000400000000000000003443KGM  00000004023KGM  7288-3332-30             HOUSING MALE             7288333230               0         0         0         0    0    0    00000600000000150000000354000021240000
AE00TI102209080408/09/202200000000500000000000000003432KGM  00000004507KGM  7289-3342                HOUSING FEMALE ASS'Y     72893342                 0         0         0         0    0    0    00001200000000240000000186000022320000
AE00TI102209080408/09/202200000000300000000000000002488KGM  00000003148KGM  7289-6518-30             HOUSING FEMALE ASS'Y     7289651830               0         0         0         0    0    0    00000360000000120000000598000021528000
AE00TI102209080408/09/202200000000200000000000000001678KGM  00000002238KGM  7289-6868-30             SEALED ASSY FEMALE       7289686830               0         0         0         0    0    0    00000504000000252000000332000016732800
AE00TI102209080408/09/202200000000100000000000000001097KGM  00000001359KGM  7298-4094-10             HOUSING FEMALE ASS'Y     7298409410               0         0         0         0    0    0    00000338000000338000000241000008145800
AE00TI102209080408/09/202200000000200000000000000001884KGM  00000002174KGM  7382-7523                JOINT CONNECTOR          73827523                 0         0         0         0    0    0    00000240000000120000000571000013704000
AE00TI102209080408/09/202200000000300000000000000003486KGM  00000003854KGM  7386-2747                CONNECTOR ASS'Y          73862747                 0         0         0         0    0    0    00000600000000200000000413000024780000
