BI00B1200    O022K50336     202210207174-1849-70             COVER                    CCN000025000000025000FN00000000020221101000025000NNE   20220908130825    1F0F  0000250000000062250000076191200    YCYC    005400370024
BI00B1200    Y022L50050     202211177116-4100-02             TERMINAL                 CCN000570000000570000FN00000000020221201000570000NNE   20220908130825    4P0P  0000150000000069600000099021200    YCYC    006400630015
BI00B32B6    TAPP13C10A     202209307196-1461-02             TERMINAL FEMALE          CCN000024000000024000FN00000000020220901000024000NNED0720220908130825B6  4P0P  00002400000000386400000671632B6    AXARNE-M006400630015
BI00B32B6    TAPP13C10A     202209307298-1865-30             HOUSING FEMALE ASS'Y     CCN000004800000004800FN00000000020220901000004800NNED0720220908130825B6  4N0N  00000240000001003200001204532B6    AXARNE-M005500360039
BI00B32B6    TAPP13C10C     202209307327-6994-3W             BATTERY FUSE             CCN000000360000000360FN00000000020220901000000360NNED0720220908130825B6  4N0N  00000007200001215100001430132B6    AXARNE-M005500360039
BI00B32CH    SJ2210BDMW     202209227195-1479-02             TERMINAL MALE            CCN000024000000024000FN00000000020221001000024000NNE   20220908140637    4P0P  00002400000000420000000714232CH    SJSAMIJF006400630015
BI00B32CH    SJ2210BDMW     202209227196-0512-02             TERMINAL                 CCN000021000000021000FN00000000020221001000021000NNE   20220908140637    4P0P  00002100000000871500001034932CH    SJSAMIJF002800510028
BI00B32CH    SJ2210BDMW     202209227196-2038-02             TERMINAL FEMALE          CCN000003600000003600FN00000000020221001000003600NNE   20220908140637    4P0P  00000360000000590000000883632CH    SJSAMIJF006400630015
BI00B32CH    SJ2210BDMW     202209227196-2039-02             TERMINAL FEMALE          CCN000003000000003000FN00000000020221001000003000NNE   20220908140637    4P0P  00000300000000526800000820432CH    SJSAMIJF006400630015
BI00B32CH    SJ2210BDMW     202209227282-8120-40             CONNECTOR HOUSING        CCN000003000000003000FN00000000020221001000003000NNE   20220908140637    1N0N  00000300000001356000001520032CH    SJSAMIJF005500360039
BI00B32CH    SJ2210BDMW     202209227283-6175-30             HOUSING FEMALE ASS'Y     CCN000001000000001000FN00000000020221001000001000NNE   20220908140637    4N0N  00000100000000372000000554532CH    SJSAMIJF005400370024
BI00B32CH    SJ2210BDMW     202209227288-3330-30             HOUSING MALE             CCN000001500000001500FN00000000020221001000001500NNE   20220908140637    4N0N  00000150000000866300001011232CH    SJSAMIJF005400370024
BI00B32CH    SJ2210BDMW     202209227288-3331-30             HOUSING MALE             CCN000001500000001500FN00000000020221001000001500NNE   20220908140637    4N0N  00000150000000866000001010932CH    SJSAMIJF005400370024
BI00B32CH    SJ2210BDMW     202209227288-3332-30             HOUSING MALE             CCN000001500000001500FN00000000020221001000001500NNE   20220908140637    4N0N  00000150000000860700001005732CH    SJSAMIJF005400370024
BI00B32CH    SJ2210BDMW     202209227288-3337-30             HOUSING MALE             CCN000001500000001500FN00000000020221001000001500NNE   20220908140637    4N0N  00000150000000867000001012032CH    SJSAMIJF005400370024
BI00B32CH    SJ2210BDMW     202209227289-3342                HOUSING FEMALE ASS'Y     CCN000002400000002400FN00000000020221001000002400NNE   20220908140637    1N0N  00000240000000686400000901432CH    SJSAMIJF005500360039
BI00B32CH    #SJ2210BDMW    202209227183-2415-30             CONNECTOR HOUSING        CCN000004800000004800FN00000000020221001000004800NNE   20220908140631    2F0F  00000480000000798200001091432CH    SJSAMIJF005500360039
BI00A32DE    #QA-22-C078    202209157187-8856                HOUSING FEMALE           PNN000024000000024000FN00000000020220901000024000NNE   20220908130825    2F0F  00000200000000820000000931532DE    TVYEV-TV005400370024
BI00B32D9    #I22908        202209077158-7586-30             BLOCK LIF                CCN000000800000000800FY00000080020220701000000000NNMD0020220908143443    2F0F  00000080000000617400000844232D9    UEHESTO 005500360039
BI00B32D9    #I22908        202209077187-3356                JOINT CONNECTOR          CCN000002400000002400FY00000240020220701000000000NNMD0020220908143443    2F0F  00000120000000759600001024432D9    UEHESTO 005600390040
BI00B32D9    #I23008        202209077187-3356                JOINT CONNECTOR          CCN000002400000002400FY00000240020220701000000000NNMD0020220908143409    2F0F  00000120000000759600001024432D9    UEHESTO 005600390040
BI00B32D9    #I23008        202209077283-5834                CONNECTOR ASS'Y          CCN000003240000003240FY00000324020220701000000000NNMD0020220908143409    2N0N  00000324000001296000001849732D9    UEHESTO 005600390040
BI00B32EJ    T220907P01     202210207158-3166-60             WIRE SEAL                CCN000040000000040000FN00000000020221001000040000NNE   20220908130825EJ  1C0C  00004000000000104000000152432EJ    EJYKBO  002700430014
BI00B32EJ    T220907P01     202210207116-2951-02             TERMINAL                 CCN000010800000010800FN00000000020221001000010800NNE   20220908130825EJ  4P0P  00000540000000817600001111832EJ    EJYKBO  006400630015
BI00B32EJ    T220907P01     202210207116-4101-02             TERMINAL                 CCN000012000000012000FN00000000020221001000012000NNE   20220908130825EJ  4P0P  00001200000000582000000876232EJ    EJYKBO  006400630015
BI00B32EJ    T220907P01     202210207116-4103-02             TERMINAL                 CCN000036000000036000FN00000000020221001000036000NNE   20220908130825EJ  4P0P  00001200000000571200000859432EJ    EJYKBO  006400630015
BI00B32EJ    T220907P01     202210207116-4122-02             TERMINAL                 CCN000009000000009000FN00000000020221001000009000NNE   20220908130825EJ  4P0P  00000450000000656600000950232EJ    EJYKBO  006400630015
BI00B32EJ    T220907P01     202210207158-3070-80             RUBBER STOPPER           CCN000200000000200000FN00000000020221001000200000NNE   20220908130825EJ  1C0C  00004000000000276000000333332EJ    EJYKBO  002700430014
BI00B32EJ    #T220907P01    202210207123-6423-30             CONNECTOR                CCN000016000000016000FN00000000020221001000016000NNE   20220908130825EJ  2F0F  00000200000001002000001167632EJ    EJYKBO  005600390023
BI00B32EJ    #T220907P01    202210207157-3821                RUBBER STOPPER           CCN000040000000040000FN00000000020221001000040000NNE   20220908130825EJ  2C0C  00002000000000176000000238032EJ    EJYKBO  002700430014
BI00B32EJ    #T220907P01    202210207157-7812                SEAL RUBBER              CCN000010000000010000FN00000000020221001000010000NNE   20220908130825EJ  2C0C  00001000000000137000000202032EJ    EJYKBO  002700430014
BI00B32EJ    T220907P02     202210207283-5843                CONNECTOR                CCN000055500000055500FN00000000020221001000055500NNE   20220908130825EJ  1N0N  00000150000000889000001132032EJ    EJYKBO  005600390040
BI00B32E2    NY211C         202209287116-1685-02             TERMINAL                 CCN000024000000024000FN00000000020221101000024000NNED0720220908130825    4P0P  00002400000000897600001065232E2    SPYSE   005100280028
BI00B32E2    #NY211C        202209287289-2914-40             HOUSING FEMALE ASS'Y     CCN000001500000001500FN00000000020221101000001500NNED0720220908130825    2N0N  00000150000000904500001031532E2    SPYSE   005400370024
BI00B32E2    #NY211C        202209287289-2917-30             HOUSING FEMALE ASS'Y     CCN000001000000001000FN00000000020221101000001000NNED0720220908130825    2N0N  00000100000000964000001091032E2    SPYSE   005400370024
BI00B32G7    JJ22111MMW     202210207298-4899-70             SEALED HOUSING ASS'Y     CCN000018480000018480FN00000000020221101000018480NNMD0420220908135219    4N0N  00000231000000766900001036932G7    JIJAI   005500360039
BI00A32G7    #QA-22-C080    202209127287-1915-30             CONNECTOR ASS'Y          PNN000009600000009600FN00000000020220901000009600NNED0020220908130825    2N0N  00000240000000666500000923132G7    JIJAI   005500360039
BI00B32J1    396778         202209197298-1865-30             HOUSING FEMALE ASS'Y     CCN000597600000300000FN00000000020220801000300000NNED0420220908130825    4N0N  00000240000001003200001204532J1    UKYEL-BL005500360039
BI00B32J1    396778         202209267298-1865-30             HOUSING FEMALE ASS'Y     CCN000297600000297600FN00000000020220801000297600NNED0420220908130825    4N0N  00000240000001003200001204532J1    UKYEL-BL005500360039
BI00A32M3    #QA-22-C075    202209147187-8856                HOUSING FEMALE           PNN000010000000010000FN00000000020220801000010000NNED0020220908145132    2F0F  00000200000000820000000931532M3    SASAMI  005400370024
BI00B32M3    SM2210B MW     202209227126-8850-02             TERMINAL                 CCN000009000000009000FN00000000020221001000009000NNE   20220908150048    1P0P  00000900000000672300000957532M3    SASAMI  006400630015
BI00B32M3    #SM2210B MW    202209227186-8845                HOUSING MALE             CCN000003000000003000FN00000000020221001000003000NNE   20220908150043    2F0F  00000300000000690000000801532M3    SASAMI  005400370024
BI00B32M3    SM2210CDMW     202209227137-3047-30             UNIT PACKING             CCN000004000000004000FN00000000020221001000004000NNE   20220908150100    1C0C  00000100000000170500000218932M3    SASAMI  002700430014
BI00B32M3    SM2210CDMW     202209227172-5403-30             SEALED PACKING           CCN000016000000016000FN00000000020221001000016000NNE   20220908150100    1C0C  00000400000000653600000701732M3    SASAMI  004300270014
BI00A32M8    #QA-22-C078    202209097187-8856                HOUSING FEMALE           PNN000002000000002000FN00000000020220901000002000NNE   20220908130825    2F0F  00000200000000820000000931532M8    PMPEMI  005400370024
BI00A32N3    NBT210 A4      202209097288-3334-30             HOUSING MALE             CCN000001500000001500FN00000000020221001000001500NNMM0020220908130825    4N0N  00000150000000867000001012032N3    ABYIPL-B005400370024
BI00B32N3    @NBT210 A2     202209077187-1769                HOUSING FEMALE           CCN000002000000002000FY00000200020221001000000000NNM00020220908143509    3F0F  00000200000001035800001182032N3    ABYIPL-B005500360039
BI00B32N3    @NBT210 A2     202209077283-1556                CONNECTOR ASS'Y          CCN000004800000004800FY00000480020221001000000000NNM00020220908143509    3N0N  00000240000000755000001014032N3    ABYIPL-B005500360039
BI00B32R7    R-TAP220389    202209227B74-1849-70             COVER                    CCN000050000000050000FN00000000020221001000050000NNE   20220908130825    1F0F  00002500000000622500000761932R7    IVYCIC  005400370024
BI00B32R7    R-TAP220389    202209227C98-1145-4W             SQUIB SUB ASS'Y          CCN000030000000030000FN00000000020221001000030000NNE   20220908130825    4N0N  00001000000000787900000944932R7    IVYCIC  005400370024
BI00B32R7    R-TAP220390    202209227B74-1849-70             COVER                    CCN000025000000025000FN00000000020221001000025000NNE   20220908130825    1F0F  00002500000000622500000761932R7    IVYCIC  005400370024
BI00B32R7    R-TAP220390    202209227C98-1149-3W             SQUIB SUB ASS'Y          CCN000020000000020000FN00000000020221001000020000NNE   20220908130825    4N0N  00001000000000785000000922032R7    IVYCIC  005400370024
BI00B32R7    R-TAP220391    202209297C98-1145-4W             SQUIB SUB ASS'Y          CCN000020000000020000FN00000000020221001000020000NNE   20220908130825    4N0N  00001000000000787900000944932R7    IVYCIC  005400370024
BI00B32R7    R-TAP220392    202209227C98-1149-3W             SQUIB SUB ASS'Y          CCN000010000000010000FN00000000020221001000010000NNE   20220908130825    4N0N  00001000000000785000000922032R7    IVYCIC  005400370024
BI00B32R7    R-TAP220393    202209227B74-1849-70             COVER                    CCN000025000000025000FN00000000020221001000025000NNE   20220908130825    1F0F  00002500000000622500000761932R7    IVYCIC  005400370024
BI00B32R7    R-TAP220393    202209227C98-1145-4W             SQUIB SUB ASS'Y          CCN000030000000030000FN00000000020221001000030000NNE   20220908130825    4N0N  00001000000000787900000944932R7    IVYCIC  005400370024
BI00B32R7    R-TAP220394    202209227B74-1849-70             COVER                    CCN000025000000025000FN00000000020221001000025000NNE   20220908130825    1F0F  00002500000000622500000761932R7    IVYCIC  005400370024
BI00B32R7    R-TAP220394    202209227C98-1149-3W             SQUIB SUB ASS'Y          CCN000020000000020000FN00000000020221001000020000NNE   20220908130825    4N0N  00001000000000785000000922032R7    IVYCIC  005400370024
BI00B32R7    R-TAP220395    202210067B74-1849-70             COVER                    CCN000050000000050000FN00000000020221001000050000NNE   20220908130825    1F0F  00002500000000622500000761932R7    IVYCIC  005400370024
BI00B32R7    R-TAP220395    202210067C98-1145-4W             SQUIB SUB ASS'Y          CCN000030000000030000FN00000000020221001000030000NNE   20220908130825    4N0N  00001000000000787900000944932R7    IVYCIC  005400370024
BI00B32R7    R-TAP220396    202210067B74-1849-70             COVER                    CCN000025000000025000FN00000000020221001000025000NNE   20220908130825    1F0F  00002500000000622500000761932R7    IVYCIC  005400370024
BI00B32R7    R-TAP220396    202210067C98-1145-4W             SQUIB SUB ASS'Y          CCN000020000000020000FN00000000020221001000020000NNE   20220908130825    4N0N  00001000000000787900000944932R7    IVYCIC  005400370024
BI00B32R7    R-TAP220398    202209297116-1257-02             TERMINAL                 CCN000048000000048000FN00000000020221001000048000NNE   20220908130825    4P0P  00002400000000518400000847132R7    IVYCIC  006400630017
BI00B32R7    R-TAP220400    202210067116-1257-02             TERMINAL                 CCN000024000000024000FN00000000020221001000024000NNE   20220908130825    4P0P  00002400000000518400000847132R7    IVYCIC  006400630017
BI00B32R7    R-TAP220401    202211037298-1186-40             SQUIB SUB ASS'Y          CCN000180000000180000FN00000000020221101000180000NNE   20220908130825    4N0N  00001000000000650000000774532R7    IVYCIC  005400370024
BI00A32U9    TPA241         202209137B58-3070-80             RUBBER STOPPER           CCN000080000000080000FN00000000020221101000080000NNMM0020220908133217U9  1C0C  00004000000000276000000333032U9    YNYNA-E 004300270014
BI00A32U9    TPA242         202209137B58-3070-80             RUBBER STOPPER           CCN000040000000040000FN00000000020221101000040000NNMM0020220908133217U9  1C0C  00004000000000276000000333032U9    YNYNA-E 004300270014
BI00A32U9    TP0415S        202209137B58-3070-80             RUBBER STOPPER           CCN000040000000040000FN00000000020221101000040000NNEM0020220908133217U9  1C0C  00004000000000276000000333032U9    YNYNA-E 004300270014
BI00A32U9    TPA243         202209137B58-3070-80             RUBBER STOPPER           CCN000040000000040000FN00000000020221101000040000NNMM0020220908133217U9  1C0C  00004000000000276000000333032U9    YNYNA-E 004300270014
BI00A32U9    TPA244         202209137B58-3070-80             RUBBER STOPPER           CCN000080000000080000FN00000000020221201000080000NNMM0020220908133217U9  1C0C  00004000000000276000000333032U9    YNYNA-E 004300270014
BI00A32W4    4500195179     202209087289-9553-30             SEALED ASSY FEMALE       CCN000002940000002940FY00000294020220901000000000NNEM0020220908165127W4N64N0N  00000294000001109000001521532W4N6  HJYHK-J 005500360039
BI00A32W4    4500197177     202209087116-4110-02             TERMINAL                 CCN000009000000009000FY00000900020220901000000000NNE00020220908165143W4N24P0P  00000900000000594000000882232W4N2  HJYHK-J 006400630015
BI00B32W4    4500199804     202209227196-1461-02             TERMINAL FEMALE          CCN000024000000000000FY00000000020220901000000000NNEQ0820220908102243W4514P0P  00002400000000386400000671632W451  HJ32W9  006400630015
BI00A32W4    4500200083     202210207114-4112-02             TERMINAL                 CCN000027000000027000FN00000000020221001000027000NNE   20220908130825W4524P0P  00000900000000598500000927132W452  HJYHK   006400630017
BI00A32W4    4500200081     202211077116-4111-02             TERMINAL                 CCN000007500000007500FN00000000020221101000007500NNE   20220908130825W4O24P0P  00000750000000529500000817732W4O2  HJYHK-J 006400630015
BI00A32W4    4500200081     202211077158-3166-60             WIRE SEAL                CCN000040000000040000FN00000000020221101000040000NNE   20220908130825W4O21C0C  00004000000000104000000152432W4O2  HJYHK-J 002700430014
BI00A32W4    4500200081     202211077282-5574-10             CONNECTOR                CCN000000800000000800FN00000000020221101000000800NNE   20220908130825W4O24N0N  00000080000001235000001423032W4O2  HJYHK-J 005600390040
BI00B32W4    4500200074     202211077116-1685                TERMINAL                 CCN000024000000024000FN00000000020221101000024000NNE   20220908130825W45 4P0P  00002400000000892800001067232W45   HJYHK   005100280028
BI00B32W4    4500200071     202211107116-4100-02             TERMINAL                 CCN000045000000045000FN00000000020221101000045000NNE   20220908130825W4164P0P  00001500000000696000000990232W416  HJYHK   006400630015
BI00B32W4    4500200071     202211107116-4121-02             TERMINAL                 CCN000009000000009000FN00000000020221101000009000NNE   20220908130825W4164P0P  00000450000000618800000912432W416  HJYHK   006400630015
BI00B32W4    4500200071     202211107116-4112-02             TERMINAL                 CCN000024000000024000FN00000000020221101000024000NNE   20220908130825W4164P0P  00000600000000450000000738232W416  HJYHK   006400630015
BI00B32W4    4500200071     202211107116-5045-02             TERMINAL                 CCN000016000000016000FN00000000020221101000016000NNE   20220908130825W4164P0P  00001600000000678400001007132W416  HJYHK   006400630017
BI00B32W4    4500200071     202211107158-3166-60             WIRE SEAL                CCN000080000000080000FN00000000020221101000080000NNE   20220908130825W4161C0C  00004000000000104000000152432W416  HJYHK   002700430014
BI00B32W4    4500200071     202211107158-3169-40             SEALING PLUG             CCN000080000000080000FN00000000020221101000080000NNE   20220908130825W4161C0C  00004000000000156000000204132W416  HJYHK   004300260014
BI00B32W4    4500200071     202211107116-4110-02             TERMINAL                 CCN000009000000009000FN00000000020221101000009000NNE   20220908130825W4164P0P  00000900000000594000000882232W416  HJYHK   006400630015
BI00B32W4    4500200071     202211107283-1020                CONNECTOR                CCN000018000000018000FN00000000020221101000018000NNE   20220908130825W4164N0N  00000600000000840000001049332W416  HJYHK   005600390040
BI00B32W4    @4500200071    202211107183-8049                CONNECTOR HOUSING        CCN000004000000004000FN00000000020221101000004000NNE   20220908130825W4163F0F  00000400000000583600000740032W416  HJYHK   005400370024
BI00B32W4    #4500200061    202211177289-4104-40             HOUSING FEMALE ASS'Y     CCN000014000000014000FN00000000020221101000014000NNE   20220908130825W4652NON  00000050000000606900000821132W465  HJYHK   005400370024
BI00B32W4    4500200060     202211107116-4102-02             TERMINAL                 CCN000168000000168000FN00000000020221101000168000NNE   20220908130825W4654P0P  00001200000000553200000841432W465  HJYHK   006400630015
BI00B32W4    4500200060     202211107114-4100-02             TERMINAL                 CCN000018000000018000FN00000000020221101000018000NNE   20220908130825W4654P0P  00001800000000748800001077432W465  HJYHK   006400630017
BI00B32W4    4500200060     202211107116-4103-02             TERMINAL                 CCN000060000000060000FN00000000020221101000060000NNE   20220908130825W4654P0P  00001200000000571200000859432W465  HJYHK   006400630015
BI00B32W4    4500200060     202211107283-1030                CONNECTOR                CCN000006000000006000FN00000000020221101000006000NNE   20220908130825W4654N0N  00000600000000988000001172032W465  HJYHK   005500360039
BI00A32W4    4500200059     202209097298-1145-4W             SQUIB SUB ASS'Y          CCN000010000000010000FN00000000020220901000010000NNED0020220908133315W4D44N0N  00001000000000787900000944932W4D4  HJYHK-J 005400370024
BI00A32W4    4500200053     202211177158-3169-40             SEALING PLUG             CCN000040000000040000FN00000000020221101000040000NNE   20220908130825W4D31C0C  00004000000000156000000204132W4D3  HJYHK-J 004300260014
BI00A32W4    4500200049     202211177158-3169-40             SEALING PLUG             CCN000040000000040000FN00000000020221101000040000NNE   20220908130825W4761C0C  00004000000000156000000204132W476  HJYHK-J 004300260014
BI00A32W4    4500200048     202211037158-3167-80             WIRE SEAL                CCN000140000000140000FN00000000020221101000140000NNE   20220908130825W4761C0C  00002000000000048000000109032W476  HJYHK-J 002700430014
BI00B32W4    4500200042     202209227116-4022                TERMINAL                 CCN000432000000432000FN00000000020220901000432000NNED0020220908130825W4514P0P  00001350000000618300000903532W451  HJ32W9  006400630015
BI00B32W4    4500200042     202209227116-4026                TERMINAL                 CCN000016000000016000FN00000000020220901000016000NNED0020220908130825W4514P0P  00001600000000664000000994332W451  HJ32W9  006400630017
BI00B32W4    4500200042     202209227116-4231-02             TERMINAL                 CCN003250000003250000FN00000000020220901003250000NNED0020220908130825W4514P0P  00002600000000683800001012532W451  HJ32W9  006400630017
BI00B32W4    4500200042     202209227116-5752-02             TERMINAL                 CCN000084000000084000FN00000000020220901000084000NNED0020220908130825W4514P0P  00002100000000571200000856432W451  HJ32W9  006400630015
BI00B32W4    4500200042     202209227116-6041                TERMINAL                 CCN000013500000013500FN00000000020220901000013500NNED0020220908130825W4514P0P  00000450000000716000001009632W451  HJ32W9  006400630015
BI00B32W4    4500200042     202209227283-1020                CONNECTOR                CCN000126000000126000FN00000000020220901000126000NNED0020220908130825W4514N0N  00000600000000840000001049332W451  HJ32W9  005600390040
BI00B32W4    4500200042     202209227283-7028-30             CONNECTOR                CCN000030000000030000FN00000000020220901000030000NNED0020220908130825W4514N0N  00000300000001452000001681332W451  HJ32W9  005600390040
BI00B32W4    #4500200042    202209227158-3610-80             RUBBER STOPPER           CCN000006000000006000FN00000000020220901000006000NNE   20220908130825W4512H0H  00000300000000396900000438932W451  HJ32W9  004300270014
BI00B32W4    #4500200042    202209227157-3821                RUBBER STOPPER           CCN000040000000040000FN00000000020220901000040000NNE   20220908130825W4512C0C  00002000000000176000000238032W451  HJ32W9  002700430014
BI00B32W4    #4500200042    202209227283-8397-40             CONNECTOR                CCN000026180000026180FN00000000020220901000026180NNE   20220908130825W4512N0N  00000154000001007000001222732W451  HJ32W9  005600390023
BI00B32W4    4500200031     202211037116-4100-02             TERMINAL                 CCN000090000000090000FN00000000020221101000090000NNE   20220908130825W4664P0P  00001500000000696000000990232W466  HJYHK   006400630015
BI00B32W4    4500200031     202211037116-4111-02             TERMINAL                 CCN000022500000022500FN00000000020221101000022500NNE   20220908130825W4664P0P  00000750000000529500000817732W466  HJYHK   006400630015
BI00B32W4    4500200031     202211037116-4112-02             TERMINAL                 CCN000012000000012000FN00000000020221101000012000NNE   20220908130825W4664P0P  00000600000000450000000738232W466  HJYHK   006400630015
BI00B32W4    4500200031     202211037116-4026                TERMINAL                 CCN000016000000016000FN00000000020221101000016000NNE   20220908130825W4664P0P  00001600000000664000000994332W466  HJYHK   006400630017
BI00B32W4    4500200031     202211037114-4112-02             TERMINAL                 CCN000081000000081000FN00000000020221101000081000NNE   20220908130825W4664P0P  00000900000000598500000927132W466  HJYHK   006400630017
BI00B32W4    4500200031     202211037114-4101-02             TERMINAL                 CCN000060000000060000FN00000000020221101000060000NNE   20220908130825W4664P0P  00001500000000675000001003632W466  HJYHK   006400630017
BI00B32W4    4500200031     202211037116-4104-02             TERMINAL                 CCN000036000000036000FN00000000020221101000036000NNE   20220908130825W4664P0P  00001200000000580800000972432W466  HJYHK   006400630015
BI00B32W4    #4500200031    202211037282-4190-30             CONNECTOR                CCN000001680000001680FN00000000020221101000001680NNE   20220908130825W4662N0N  00000024000000801000001071332W466  HJYHK   005600390040
BI00B32W9    4500200084     202211017158-3167-80             WIRE SEAL                CCN000020000000020000FN00000000020221101000020000NNE   20220908130825W9  1C0C  00002000000000048000000109032W9    HKYHK   002700430014
BI00B32W9    4500200069     202210257116-4231-02             TERMINAL                 CCN000026000000026000FN00000000020221001000026000NNE   20220908130825W9  4P0P  00002600000000683800001012532W9    HKYHK   006400630017
BI00B32W9    4500200069     202210257116-4022                TERMINAL                 CCN000013500000013500FN00000000020221001000013500NNE   20220908130825W9  4P0P  00001350000000618300000903532W9    HKYHK   006400630015
BI00B32W9    4500200069     202210257283-5846                HOUSING                  CCN000001500000001500FN00000000020221001000001500NNE   20220908130825W9  1N0N  00000150000000885000001102032W9    HKYHK   005600390040
BI00B32W9    4500200069     202210257114-4100-02             TERMINAL                 CCN000018000000018000FN00000000020221001000018000NNE   20220908130825W9  4P0P  00001800000000748800001077432W9    HKYHK   006400630017
BI00B32W9    4500200051     202210187172-5540-80             SEALED WIRE SEAL         CCN000800000000800000FN00000000020221001000800000NNE   20220908130825W9  1C0C  00002000000000186000000234432W9    HKYHK   004300270014
BI00B32W9    4500200051     202210187196-0805-02             TERMINAL FEMALE          CCN000787500000787500FN00000000020221001000787500NNE   20220908130825W9  4P0P  00002250000000558000000843232W9    HKYHK   006400630015
BI00B32W9    4500200051     202210187289-6868-30             SEALED ASSY FEMALE       CCN000378000000378000FN00000000020221001000378000NNE   20220908130825W9  4N0N  00000252000000839200001119232W9    HKYHK   005500360039
BI00B32W9    4500200051     202210187298-1145-4W             SQUIB SUB ASS'Y          CCN000500000000500000FN00000000020221001000500000NNE   20220908130825W9  4N0N  00001000000000787900000944932W9    HKYHK   005400370024
BI00B32W9    4500200051     202210187174-1849-70             COVER                    CCN000500000000500000FN00000000020221001000500000NNE   20220908130825W9  1F0F  00002500000000622500000761932W9    HKYHK   005400370024
BI00B32W9    4500200051     202210187196-0104-02             TERMINAL                 CCN000038000000038000FN00000000020221001000038000NNE   20220908130825W9  4P0P  00003800000000570000000956432W9    HKYHK   006400630017
BI00B32W9    4500200051     202210187298-4094-10             HOUSING FEMALE ASS'Y     CCN000162240000162240FN00000000020221001000162240NNE   20220908130825W9  4N0N  00000338000001097400001358732W9    HKYHK   005400370024
BI00B32W9    #4500200051    202210187158-3015-10             RUBBER STOPPER           CCN000010000000010000FN00000000020221001000010000NNE   20220908130825W9  2C0C  00001000000000419500000474032W9    HKYHK   002700430014
BI00B32W9    #4500200051    202210187198-1373-60             HOUSING FEMALE           CCN000050000000050000FN00000000020221001000050000NNE   20220908130825W9  2F0F  00000200000000819400000947432W9    HKYHK   005400370024
BI00B32W9    #4500200047    202209277283-8398-40             CONNECTOR                CCN000035420000035420FN00000000020220901000035420NNE   20220908130825W9  2N0N  00000154000001007000001171332W9    HKYHK   005600390023
BI00B32Y2    #TAU1252       202210067158-3008-80             RUBBER STOPPER           CCN000020000000020000FN00000000020230201000020000NNE   20220908130825    2C0C  00002000000000288000000343032Y2    YUYUY   004300270014
BI00B32Y2    #TAU1252       202210067289-2918-40             HOUSING FEMALE ASS'Y     CCN000004000000004000FN00000000020230201000004000NNE   20220908130825    2N0N  00000100000001020000001147032Y2    YUYUY   005400370024
