AE00TI102209080308/09/202200000008000000000000000014011KGM  00000018709KGM  7114-4020                TERMINAL                 71144020                 0         0         0         0    0    0    00168000000002100000000023000386400000
AE00TI102209080308/09/202200000008000000000000000008208KGM  00000012771KGM  7116-4020                TERMINAL                 71164020                 0         0         0         0    0    0    00108000000001350000000028000302400000
AE00TI102209080308/09/202200000010500000000000000013541KGM  00000020477KGM  7116-4025                TERMINAL                 71164025                 0         0         0         0    0    0    00168000000001600000000034000571200000
AE00TI102209080308/09/202200000002000000000000000002735KGM  00000004050KGM  7116-4231-02             TERMINAL                 7116423102               0         0         0         0    0    0    00052000000002600000000022000114400000
AE00TI102209080308/09/202200000003500000000000000004176KGM  00000006480KGM  7116-4415-02             TERMINAL                 7116441502               0         0         0         0    0    0    00133000000003800000000016000212800000
AE00TI102209080308/09/202200000015000000000000000019440KGM  00000027996KGM  7126-8852-02             TERMINAL                 7126885202               0         0         0         0    0    0    00112500000000750000000062000697500000
AE00TI102209080308/09/202200000008000000000000000007114KGM  00000011677KGM  7196-1460-02             TERMINAL FEMALE          7196146002               0         0         0         0    0    0    00228000000002850000000014000319200000
AE00TI102209080308/09/202200000017500000000000000024024KGM  00000031549KGM  7289-3342-30             HOUSING FEMALE ASS'Y     7289334230               0         0         0         0    0    0    00042000000000240000000191000802200000
AE00TI102209080308/09/202200000012000000000000000020890KGM  00000030240KGM  7370-0309                J/B ASS'Y                73700309                 0         0         0         0    0    0    00000192000000001600028585000548832000
AE00TI102209080308/09/202200000005000000000000000000000KGM  00000000000KGM  7470-4815D               J/B COMPLETE ASS'Y       74704815D                0         0         0         0    0    0    00000075000000001500000000000000000000
AE00TI102209080308/09/202200000007500000000000000000000KGM  00000000000KGM  7470-4816D               J/B COMPLETE ASS'Y       74704816D                0         0         0         0    0    0    00000112500000001500000000000000000000
AE00TI102209080308/09/202200000002000000000000000000000KGM  00000000000KGM  7470-5300D               J/B COMPLETE ASS'Y       74705300D                0         0         0         0    0    0    00000020000000001000000000000000000000
AE00TI102209080308/09/202200000006000000000000000000000KGM  00000000000KGM  7470-5858D               J/B COMPLETE ASS'Y       74705858D                0         0         0         0    0    0    00000060000000001000000000000000000000
