AE00TI102209110211/09/202200000005800000000000000019175KGM  00000022388KGM  7158-3006-90             RUBBER STOPPER           7158300690               0         0         0         0    0    0    00116000000002000000000016000185600000
AE00TI102209110211/09/202200000003600000000000000012168KGM  00000013903KGM  7158-3009-60             RUBBER STOPPER           7158300960               0         0         0         0    0    0    00072000000002000000000012000086400000
AE00TI102209110211/09/202200000002200000000000000010285KGM  00000011528KGM  7158-3022-80             RUBBER STOPPER           7158302280               0         0         0         0    0    0    00011000000000500000000070000077000000
AE00TI102209110211/09/202200000001700000000000000002108KGM  00000002931KGM  7158-3165-90             WIRE SEAL                7158316590               0         0         0         0    0    0    00068000000004000000000006000040800000
AE00TI102209110211/09/202200000002700000000000000002808KGM  00000004115KGM  7158-3166-60             WIRE SEAL                7158316660               0         0         0         0    0    0    00108000000004000000000004000043200000
AE00TI102209110211/09/202200000011200000000000000005376KGM  00000012208KGM  7158-3167-80             WIRE SEAL                7158316780               0         0         0         0    0    0    00224000000002000000000005000112000000
AE00TI102209110211/09/202200000000500000000000000000220KGM  00000000461KGM  7158-3168-80             SEALED                   7158316880               0         0         0         0    0    0    00010000000002000000000004000004000000
AE00TI102209110211/09/202200000000200000000000000000312KGM  00000000408KGM  7158-3169-40             SEALING PLUG             7158316940               0         0         0         0    0    0    00008000000004000000000006000004800000
AE00TI102209110211/09/202200000001800000000000000011765KGM  00000012631KGM  7172-5403-30             SEALED PACKING           7172540330               0         0         0         0    0    0    00007200000000400000000119000085680000
AE00TI102209110211/09/202200000012000000000000000028776KGM  00000058776KGM  7271-1820-30             CASE SUB ASSY,ECU        7271182030               0         0         0         0    0    0    00000216000000001800009576000206841600
AE00TI102209110211/09/202200000000100000000000000000917KGM  00000001137KGM  7283-4577                CONNECTOR HOUSING        72834577                 0         0         0         0    0    0    00000480000000480000000172000008256000
AE00TI102209110211/09/202200000000800000000000000006929KGM  00000008089KGM  7288-3329-30             HOUSING MALE             7288332930               0         0         0         0    0    0    00001200000000150000000354000042480000
AE00TI102209110211/09/202200000000100000000000000000861KGM  00000001006KGM  7288-3332-30             HOUSING MALE             7288333230               0         0         0         0    0    0    00000150000000150000000354000005310000
AE00TI102209110211/09/202200000001600000000000000013872KGM  00000016192KGM  7288-3337-30             HOUSING MALE             7288333730               0         0         0         0    0    0    00002400000000150000000354000084960000
AE00TI102209110211/09/202200000001600000000000000010982KGM  00000014422KGM  7289-3342                HOUSING FEMALE ASS'Y     72893342                 0         0         0         0    0    0    00003840000000240000000186000071424000
AE00TI102209110211/09/202200000000100000000000000001097KGM  00000001359KGM  7298-4094-10             HOUSING FEMALE ASS'Y     7298409410               0         0         0         0    0    0    00000338000000338000000241000008145800
