AE00TI102209110111/09/202200000001600000000000000011981KGM  00000017238KGM  7114-4100-02             TERMINAL                 7114410002               0         0         0         0    0    0    00028800000001800000000034000097920000
AE00TI102209110111/09/202200000002100000000000000012982KGM  00000018971KGM  7116-1180                TERMINAL                 71161180                 0         0         0         0    0    0    00040950000001950000000022000090090000
AE00TI102209110111/09/202200000001100000000000000008138KGM  00000011275KGM  7126-8851-02             TERMINAL                 7126885102               0         0         0         0    0    0    00009900000000900000000060000059400000
AE00TI102209110111/09/202200000000700000000000000006075KGM  00000007475KGM  7173-3291-40             LIF LEVER                7173329140               0         0         0         0    0    0    00001680000000240000000142000023856000
AE00TI102209110111/09/202200000002600000000000000014388KGM  00000026632KGM  7174-2052-30             COVER                    7174205230               0         0         0         0    0    0    00003276000000126000000237000077641200
AE00TI102209110111/09/202200000002300000000000000015787KGM  00000020732KGM  7289-3342-30             HOUSING FEMALE ASS'Y     7289334230               0         0         0         0    0    0    00005520000000240000000191000105432000
AE00TI102209110111/09/202200000000100000000000000001172KGM  00000001369KGM  7289-5011-30             HOUSING FEMALE ASS'Y     7289501130               0         0         0         0    0    0    00000240000000240000000333000007992000
AE00TI102209110111/09/202200000001100000000000000011035KGM  00000013250KGM  7298-1865-30             HOUSING FEMALE ASS'Y     7298186530               0         0         0         0    0    0    00002640000000240000000196000051744000
AE00TI102209110111/09/202200000000500000000000000005459KGM  00000006477KGM  7298-2278-30             HOUSING FEMALE ASS'Y     7298227830               0         0         0         0    0    0    00001200000000240000000227000027240000
AE00TI102209110111/09/202200000000400000000000000004438KGM  00000005038KGM  7327-6424-4W             BATTERY FUSE             732764244W               0         0         0         0    0    0    00000038400000009600007969000030600960
AE00TI102209110111/09/202200000011700000000000000086814KGM  00000131274KGM  7388-2978-30             HOUSING MALE ASS'Y       7388297830               0         0         0         0    0    0    00005616000000048000001790001005264000
