AE00TO202209020102/09/202200000015500000000000000162226KGM  00000169804KGM  18000004530              AV 8 B                   AV 8 B                   0         0         0         0    0    0    00000000000155000000000211100032720500
AE00TO202209020102/09/202200000000100000000000000001047KGM  00000001096KGM  18000004550              AV 8 R                   AV 8 R                   0         0         0         0    0    0    00000000000001000000000211100000211100
AE00TO202209020102/09/202200000012800000000000000133967KGM  00000140225KGM  18000004560              AV 8 G                   AV 8 G                   0         0         0         0    0    0    00000000000128000000000211100027020800
AE00TO202209020102/09/202200000002500000000000000026166KGM  00000027389KGM  18000004580              AV 8 BR                  AV 8 BR                  0         0         0         0    0    0    00000000000025000000000211100005277500
AE00TO202209020102/09/202200000001900000000000000018848KGM  00000019777KGM  18007703750              AVSS 03F R               AVSS 03F R               0         0         0         0    0    0    00000000000380000000000011700004446000
AE00TO202209020102/09/202200000003200000000000000031744KGM  00000033308KGM  18007703752              AVSS 03F P               AVSS 03F P               0         0         0         0    0    0    00000000000640000000000011700007488000
AE00TO202209020102/09/202200000000100000000000000000992KGM  00000001041KGM  18007703770              AVSS 03F Y               AVSS 03F Y               0         0         0         0    0    0    00000000000020000000000011700000234000
AE00TO202209020102/09/202200000004400000000000000043648KGM  00000045799KGM  18007703792              AVSS 03F V               AVSS 03F V               0         0         0         0    0    0    00000000000880000000000011700010296000
AE00TO202209020102/09/202200000001400000000000000014217KGM  00000014901KGM  18018403940              CAVS 05 W                CAVS 05 W                0         0         0         0    0    0    00000000000210000000000015000003150000
AE00TO202209020102/09/202200000001300000000000000013202KGM  00000013837KGM  18018403941              CAVS 05 GY               CAVS 05 GY               0         0         0         0    0    0    00000000000195000000000015000002925000
AE00TO202209020102/09/202200000001800000000000000018279KGM  00000019159KGM  18018403970              CAVS 05 Y                CAVS 05 Y                0         0         0         0    0    0    00000000000270000000000015000004050000
AE00TO202209020102/09/202200000004500000000000000055260KGM  00000057460KGM  1801R704140              CIVUS 125 W              CIVUS 125 W              0         0         0         0    0    0    00000000000450000000000031500014175000
AE00TO202209020102/09/202200000000200000000000000002250KGM  00000002348KGM  1801W003960              IVSSH 05F G              IVSSH 05F G              0         0         0         0    0    0    00000000000036000000000015400000554400
AE00TO202209020102/09/202200000000100000000000000001125KGM  00000001174KGM  1801W003961              IVSSH 05F LG             IVSSH 05F LG             0         0         0         0    0    0    00000000000018000000000015400000277200
AE00TO202209020102/09/202200000000200000000000000002250KGM  00000002348KGM  1801W003970              IVSSH 05F Y              IVSSH 05F Y              0         0         0         0    0    0    00000000000036000000000015400000554400
AE00TO202209020102/09/202200000013600000000000000153000KGM  00000159649KGM  1801W003990              IVSSH 05F L              IVSSH 05F L              0         0         0         0    0    0    00000000002448000000000015400037699200
AE00TO202209020102/09/202200000000100000000000000001125KGM  00000001174KGM  1801W003991              IVSSH 05F SB             IVSSH 05F SB             0         0         0         0    0    0    00000000000018000000000015400000277200
AE00TO202209020102/09/202200000000100000000000000001125KGM  00000001174KGM  1801W003992              IVSSH 05F V              IVSSH 05F V              0         0         0         0    0    0    00000000000018000000000015400000277200
AE00TO202209020102/09/202200000000100000000000000001147KGM  00000001195KGM  1801W004040              IVSSH 075F W             IVSSH 075F W             0         0         0         0    0    0    00000000000013000000000021500000279500
AE00TO202209020102/09/202200000001800000000000000020639KGM  00000021518KGM  1801W004043              IVSSH 075F W/B           IVSSH 075F W/B           0         0         0         0    0    0    00000000000234000000000021500005031000
AE00TO202209020102/09/202200000008500000000000000097462KGM  00000101616KGM  1801W004050              IVSSH 075F R             IVSSH 075F R             0         0         0         0    0    0    00000000001105000000000021500023757500
AE00TO202209020102/09/202200000001600000000000000018346KGM  00000019128KGM  1801W004052              IVSSH 075F P             IVSSH 075F P             0         0         0         0    0    0    00000000000208000000000021500004472000
AE00TO202209020102/09/202200000000100000000000000001147KGM  00000001195KGM  1801W004061              IVSSH 075F LG            IVSSH 075F LG            0         0         0         0    0    0    00000000000013000000000021500000279500
AE00TO202209020102/09/202200000000500000000000000005733KGM  00000005977KGM  1801W004070              IVSSH 075F Y             IVSSH 075F Y             0         0         0         0    0    0    00000000000065000000000021500001397500
AE00TO202209020102/09/202200000000700000000000000008027KGM  00000008368KGM  1801W004090              IVSSH 075F L             IVSSH 075F L             0         0         0         0    0    0    00000000000091000000000021500001956500
AE00TO202209020102/09/202200000001600000000000000018346KGM  00000019128KGM  1801W004092              IVSSH 075F V             IVSSH 075F V             0         0         0         0    0    0    00000000000208000000000021500004472000
AE00TO202209020102/09/202200000009200000000000000103960KGM  00000108458KGM  1801W006940              IVSSH 035F W             IVSSH 035F W             0         0         0         0    0    0    00000000002300000000000011400026220000
AE00TO202209020102/09/202200000000100000000000000000934KGM  00000000983KGM  180D0204030              AVSSH 075F B             AVSSH 075F B             0         0         0         0    0    0    00000000000010000000000023200000232000
AE00TO202209020102/09/202200000000600000000000000005604KGM  00000005897KGM  180D0204043              AVSSH 075F W/B           AVSSH 075F W/B           0         0         0         0    0    0    00000000000060000000000023200001392000
AE00TO202209020102/09/202200000000100000000000000000934KGM  00000000983KGM  180D0204050              AVSSH 075F R             AVSSH 075F R             0         0         0         0    0    0    00000000000010000000000023200000232000
AE00TO202209020102/09/202200000000400000000000000003736KGM  00000003932KGM  180D0204054              AVSSH 075F R/W           AVSSH 075F R/W           0         0         0         0    0    0    00000000000040000000000023200000928000
AE00TO202209020102/09/202200000000100000000000000000934KGM  00000000983KGM  180D0204059              AVSSH 075F R/L           AVSSH 075F R/L           0         0         0         0    0    0    00000000000010000000000023200000232000
AE00TO202209020102/09/202200000000200000000000000001868KGM  00000001966KGM  180D0204060              AVSSH 075F G             AVSSH 075F G             0         0         0         0    0    0    00000000000020000000000023200000464000
AE00TO202209020102/09/202200000000100000000000000000934KGM  00000000983KGM  180D0204070              AVSSH 075F Y             AVSSH 075F Y             0         0         0         0    0    0    00000000000010000000000023200000232000
AE00TO202209020102/09/202200000000700000000000000006538KGM  00000006880KGM  180D0204080              AVSSH 075F BR            AVSSH 075F BR            0         0         0         0    0    0    00000000000070000000000023200001624000
AE00TO202209020102/09/202200000000400000000000000003736KGM  00000003932KGM  180D0204090              AVSSH 075F L             AVSSH 075F L             0         0         0         0    0    0    00000000000040000000000023200000928000
AE00TO202209020102/09/202200000000200000000000000001868KGM  00000001966KGM  180D0204092              AVSSH 075F V             AVSSH 075F V             0         0         0         0    0    0    00000000000020000000000023200000464000
AE00TO202209020102/09/202200000002000000000000000016800KGM  00000017777KGM  181AD2004ZZ              CIVUSAS-S 035X4 B        CIVUSAS-S 035X4 B        0         0         0         0    0    0    00000000000060000000000066700004002000
AE00TO202209020102/09/202200000000700000000000000005964KGM  00000006307KGM  181B09037K5              CAVSAS 03X1 GY/BR        CAVSAS 03X1 GY/BR        0         0         0         0    0    0    00000000000035000000000036200001267000
AE00TO202209020102/09/202200000000100000000000000000789KGM  00000000838KGM  181B09116K3              CAVSAS 03X2 GY/P         CAVSAS 03X2 GY/P         0         0         0         0    0    0    00000000000003500000000047400000165900
AE00TO202209020102/09/202200000002300000000000000016216KGM  00000017341KGM  181CQ7003ZZ              IVSSHCS-S 05FX2 B(B,W)   IVSSHCS-S 05FX2 B(B,W)   0         0         0         0    0    0    00000000000069000000000072600005009400
AE00TO202209020102/09/202200000001200000000000000008461KGM  00000009047KGM  181CQ7004ZZ              IVSSHCS-S 05FX2 B(R,G)   IVSSHCS-S 05FX2 B(R,G)   0         0         0         0    0    0    00000000000036000000000072600002613600
AE00TO202209020102/09/202200000000200000000000000001537KGM  00000001634KGM  181E48027ZZ              CAVSAS-S 05X2 GY/P       CAVSAS-S 05X2 GY/P       0         0         0         0    0    0    00000000000006000000000056500000339000
AE00TO202209020102/09/202200000000300000000000000002109KGM  00000002256KGM  181E48032ZZ              CAVSAS-S 03X2 GY/P       CAVSAS-S 03X2 GY/P       0         0         0         0    0    0    00000000000010500000000045900000481950
AE00TO202209020102/09/202200000000300000000000000002109KGM  00000002256KGM  181E48040ZZ              CAVSAS-S 03X2 GY/V       CAVSAS-S 03X2 GY/V       0         0         0         0    0    0    00000000000010500000000045900000481950
AE00TO202209020102/09/202200000000800000000000000005624KGM  00000006016KGM  181E48041ZZ              CAVSAS-S 03X2 GY/R       CAVSAS-S 03X2 GY/R       0         0         0         0    0    0    00000000000028000000000045900001285200
AE00TO202209020102/09/202200000000100000000000000000929KGM  00000000978KGM  181E50011ZZ              AVSSCS-S 05FX2 DGY/Y     AVSSCS-S 05FX2 DGY/Y     0         0         0         0    0    0    00000000000003000000000070600000211800
AE00TO202209020102/09/202200000000200000000000000001516KGM  00000001613KGM  181E50036ZZ              AVSSCS-S 03FX2 DGY       AVSSCS-S 03FX2 DGY       0         0         0         0    0    0    00000000000007000000000059400000415800
