AE00TI102209020202/09/202200000000400000000000000002168KGM  00000002885KGM  7147-3642-30             CLIP                     7147364230               0         0         0         0    0    0    00001200000000300000000074000008880000
AE00TI102209020202/09/202200000005400000000000000003294KGM  00000000000KGM  7154-8690-30S            UPPER COVER              7154869030S              0         0         0         0    0    0    00000005400000000100000000000000000000
AE00TI102209020202/09/202200000003600000000000000000000KGM  00000000000KGM  7154-9963-30S            UPPER COVER              7154996330S              0         0         0         0    0    0    00000003600000000100000000000000000000
AE00TI102209020202/09/202200000003600000000000000000000KGM  00000000000KGM  7154-9964-30S            UPPER COVER              7154996430S              0         0         0         0    0    0    00000003600000000100000000000000000000
AE00TI102209020202/09/202200000002300000000000000007604KGM  00000008878KGM  7158-3006-90             RUBBER STOPPER           7158300690               0         0         0         0    0    0    00046000000002000000000016000073600000
AE00TI102209020202/09/202200000002100000000000000007098KGM  00000008110KGM  7158-3009-60             RUBBER STOPPER           7158300960               0         0         0         0    0    0    00042000000002000000000012000050400000
AE00TI102209020202/09/202200000001700000000000000002108KGM  00000002931KGM  7158-3165-90             WIRE SEAL                7158316590               0         0         0         0    0    0    00068000000004000000000006000040800000
AE00TI102209020202/09/202200000001900000000000000001976KGM  00000002896KGM  7158-3166-60             WIRE SEAL                7158316660               0         0         0         0    0    0    00076000000004000000000004000030400000
AE00TI102209020202/09/202200000006100000000000000002928KGM  00000006649KGM  7158-3167-80             WIRE SEAL                7158316780               0         0         0         0    0    0    00122000000002000000000005000061000000
AE00TI102209020202/09/202200000002700000000000000001188KGM  00000002487KGM  7158-3168-80             SEALED                   7158316880               0         0         0         0    0    0    00054000000002000000000004000021600000
AE00TI102209020202/09/202200000000800000000000000001248KGM  00000001633KGM  7158-3169-40             SEALING PLUG             7158316940               0         0         0         0    0    0    00032000000004000000000006000019200000
AE00TI102209020202/09/202200000004200000000000000002562KGM  00000000000KGM  7171-3347-30S            UPPER COVER              7171334730S              0         0         0         0    0    0    00000004200000000100000000000000000000
AE00TI102209020202/09/202200000000600000000000000000366KGM  00000000000KGM  7171-3351-30S            UPPER COVER              7171335130S              0         0         0         0    0    0    00000000600000000100000000000000000000
AE00TI102209020202/09/202200000003000000000000000001830KGM  00000000000KGM  7171-3434-30S            UPPER COVER              7171343430S              0         0         0         0    0    0    00000003000000000100000000000000000000
AE00TI102209020202/09/202200000001200000000000000000732KGM  00000000000KGM  7171-3682-30S            UPPER COVER              7171368230S              0         0         0         0    0    0    00000001200000000100000000000000000000
AE00TI102209020202/09/202200000001800000000000000000000KGM  00000000000KGM  7171-4070-30S            UPPER COVER              7171407030S              0         0         0         0    0    0    00000001800000000100000000000000000000
AE00TI102209020202/09/202200000001000000000000000007621KGM  00000009803KGM  7171-6292                HOUSING                  71716292                 0         0         0         0    0    0    00000180000000018000001240000022320000
AE00TI102209020202/09/202200000000100000000000000000000KGM  00000000000KGM  7173-0417-30             BLOCK LEVER              7173041730               0         0         0         0    0    0    00000080000000080000000196000001568000
AE00TI102209020202/09/202200000000100000000000000000592KGM  00000000712KGM  7174-1164                COVER                    71741164                 0         0         0         0    0    0    00000080000000080000000173000001384000
AE00TI102209020202/09/202200000001000000000000000007693KGM  00000008893KGM  7174-1314-30             SEALED COVER             7174131430               0         0         0         0    0    0    00000800000000080000000451000036080000
AE00TI102209020202/09/202200000000100000000000000001282KGM  00000001477KGM  7182-4941                DOUBLE SIDED             71824941                 0         0         0         0    0    0    00000100000000100000000816000008160000
AE00TI102209020202/09/202200000000100000000000000000951KGM  00000001230KGM  7183-0522                HOUSING                  71830522                 0         0         0         0    0    0    00000240000000240000000113000002712000
AE00TI102209020202/09/202200000000100000000000000001059KGM  00000001246KGM  7183-2412                HOUSING                  71832412                 0         0         0         0    0    0    00000160000000160000000155000002480000
AE00TI102209020202/09/202200000000200000000000000000956KGM  00000001520KGM  7183-2413                CONNECTOR HOUSING        71832413                 0         0         0         0    0    0    00000960000000480000000074000007104000
AE00TI102209020202/09/202200000000200000000000000001558KGM  00000002122KGM  7183-2414                CONNECTOR HOUSING        71832414                 0         0         0         0    0    0    00000960000000480000000050000004800000
AE00TI102209020202/09/202200000000100000000000000000821KGM  00000001104KGM  7183-6320                HOUSING                  71836320                 0         0         0         0    0    0    00000480000000480000000092000004416000
AE00TI102209020202/09/202200000000100000000000000000579KGM  00000000686KGM  7189-9519-80             HOUSING                  7189951980               0         0         0         0    0    0    00000200000000200000000243000004860000
AE00TI102209020202/09/202200000000100000000000000001030KGM  00000001176KGM  7222-7484-40             CONNECTOR                7222748440               0         0         0         0    0    0    00000100000000100000000758000007580000
AE00TI102209020202/09/202200000000100000000000000000967KGM  00000001097KGM  7222-7564-40             CONNECTOR                7222756440               0         0         0         0    0    0    00000050000000050000001166000005830000
AE00TI102209020202/09/202200000012000000000000000028776KGM  00000058776KGM  7271-1820-30             CASE SUB ASSY,ECU        7271182030               0         0         0         0    0    0    00000216000000001800009576000206841600
AE00TI102209020202/09/202200000000100000000000000001124KGM  00000001213KGM  7282-7028-30             CONNECTOR                7282702830               0         0         0         0    0    0    00000200000000200000000248000004960000
AE00TI102209020202/09/202200000000100000000000000001153KGM  00000001310KGM  7283-1065                CONNECTOR                72831065                 0         0         0         0    0    0    00000250000000250000000278000006950000
AE00TI102209020202/09/202200000000300000000000000002633KGM  00000003234KGM  7283-1156                CONNECTOR                72831156                 0         0         0         0    0    0    00000240000000080000000810000019440000
AE00TI102209020202/09/202200000000500000000000000005700KGM  00000006592KGM  7283-1968-30             CONNECTOR                7283196830               0         0         0         0    0    0    00000450000000090000000687000030915000
AE00TI102209020202/09/202200000000200000000000000000760KGM  00000001063KGM  7283-8123                CONNECTOR HOUSING        72838123                 0         0         0         0    0    0    00000800000000400000000138000011040000
AE00TI102209020202/09/202200000000200000000000000002014KGM  00000002343KGM  7283-8398-40             CONNECTOR                7283839840               0         0         0         0    0    0    00000308000000154000000398000012258400
AE00TI102209020202/09/202200000000100000000000000000967KGM  00000001168KGM  7286-1917                CONNECTOR MALE ASS'Y     72861917                 0         0         0         0    0    0    00000120000000120000000517000006204000
AE00TI102209020202/09/202200000000700000000000000005976KGM  00000007316KGM  7287-9155                HOUSING FEMALE ASS'Y     72879155                 0         0         0         0    0    0    00000672000000096000000357000023990400
AE00TI102209020202/09/202200000000200000000000000000000KGM  00000000000KGM  7289-3342-30M            HOUSING FEMALE ASS'Y     7289334230M              0         0         0         0    0    0    00000204000000102000000188000003835200
AE00TI102209020202/09/202200000000100000000000000001025KGM  00000001183KGM  7382-1481-10             CONNECTOR                7382148110               0         0         0         0    0    0    00000080000000080000000745000005960000
AE00TI102209020202/09/202200000001300000000000000017160KGM  00000020410KGM  7470-3082                J/B COMPLETE ASS'Y       74703082                 0         0         0         0    0    0    00000031200000002400031298000097649760
AE00TI102209020202/09/202200000000500000000000000006600KGM  00000007850KGM  7470-4481                J/B COMPLETE ASS'Y       74704481                 0         0         0         0    0    0    00000012000000002400000000000000000000
AE00TI102209020202/09/202200000000700000000000000000000KGM  00000000000KGM  7470-5784D               J/B COMPLETE ASS'Y       74705784D                0         0         0         0    0    0    00000010500000001500000000000000000000
AE00TI102209020202/09/202200000000500000000000000000000KGM  00000000000KGM  7470-5791D               J/B COMPLETE ASS'Y       74705791D                0         0         0         0    0    0    00000007500000001500000000000000000000
