AE00TI102209020102/09/202200000000300000000000000001868KGM  00000002286KGM  7B74-1849-70             COVER                    7B74184970               0         0         0         0    0    0    00007500000002500000000046000034500000
AE00TI102209020102/09/202200000000100000000000000000545KGM  00000000716KGM  7157-6240-30             REAR HOLDER              7157624030               0         0         0         0    0    0    00000500000000500000000030000001500000
AE00TI102209020102/09/202200000000100000000000000000917KGM  00000001137KGM  7283-4577                CONNECTOR HOUSING        72834577                 0         0         0         0    0    0    00000480000000480000000172000008256000
AE00TI102209020102/09/202200000000100000000000000000894KGM  00000001185KGM  7287-9234                JOINT CONNECTOR          72879234                 0         0         0         0    0    0    00000960000000960000000137000013152000
AE00TI102209020102/09/202200000000600000000000000005197KGM  00000006067KGM  7288-3329-30             HOUSING MALE             7288332930               0         0         0         0    0    0    00000900000000150000000354000031860000
AE00TI102209020102/09/202200000000200000000000000001732KGM  00000002022KGM  7288-3331-30             HOUSING MALE             7288333130               0         0         0         0    0    0    00000300000000150000000354000010620000
AE00TI102209020102/09/202200000000600000000000000007232KGM  00000008042KGM  7288-6547                CONNECTOR MALE ASS'Y     72886547                 0         0         0         0    0    0    00000450000000075000001125000050625000
AE00TI102209020102/09/202200000000700000000000000004805KGM  00000006310KGM  7289-3342                HOUSING FEMALE ASS'Y     72893342                 0         0         0         0    0    0    00001680000000240000000186000031248000
AE00TI102209020102/09/202200000002100000000000000014414KGM  00000018929KGM  7289-3342-30             HOUSING FEMALE ASS'Y     7289334230               0         0         0         0    0    0    00005040000000240000000191000096264000
AE00TI102209020102/09/202200000000200000000000000001658KGM  00000002098KGM  7289-6518-30             HOUSING FEMALE ASS'Y     7289651830               0         0         0         0    0    0    00000240000000120000000598000014352000
AE00TI102209020102/09/202200000000500000000000000006448KGM  00000007698KGM  7289-6597-70             HOUSING FEMALE ASS'Y     7289659770               0         0         0         0    0    0    00001080000000216000000616000066528000
AE00TI102209020102/09/202200000000600000000000000005035KGM  00000006715KGM  7289-6868-30             SEALED ASSY FEMALE       7289686830               0         0         0         0    0    0    00001512000000252000000332000050198400
AE00TI102209020102/09/202200000000600000000000000006649KGM  00000009124KGM  7289-9553-50             SEALED ASSY FEMALE       7289955350               0         0         0         0    0    0    00001764000000294000000252000044452800
AE00TI102209020102/09/202200000000200000000000000002006KGM  00000002409KGM  7298-1865-30             HOUSING FEMALE ASS'Y     7298186530               0         0         0         0    0    0    00000480000000240000000196000009408000
AE00TI102209020102/09/202200000000800000000000000007852KGM  00000010320KGM  7298-5993-30             SEALED ASSY FEMALE       7298599330               0         0         0         0    0    0    00001747200000218400000266000046475520
AE00TI102209020102/09/202200000001500000000000000016643KGM  00000018894KGM  7327-6424-4W             BATTERY FUSE             732764244W               0         0         0         0    0    0    00000144000000009600007969000114753600
AE00TI102209020102/09/202200000001300000000000000015991KGM  00000018494KGM  7327-6533-3W             BATTERY FUSE             732765333W               0         0         0         0    0    0    00000093600000007200010131000094826160
AE00TI102209020102/09/202200000000200000000000000002219KGM  00000002519KGM  7327-6572-3W             BATTERY FUSE             732765723W               0         0         0         0    0    0    00000019200000009600008162000015671040
AE00TI102209020102/09/202200000001300000000000000009646KGM  00000014586KGM  7388-2978-30             HOUSING MALE ASS'Y       7388297830               0         0         0         0    0    0    00000624000000048000001790000111696000
AE00TI102209020102/09/202200000001600000000000000000000KGM  00000000000KGM  7470-4808S               J/B COMPLETE ASS'Y       74704808S                0         0         0         0    0    0    00000001600000000100000000000000000000
AE00TI102209020102/09/202200000000100000000000000000000KGM  00000000000KGM  7470-5208S               J/B COMPLETE ASS'Y       74705208S                0         0         0         0    0    0    00000000100000000100000000000000000000
AE00TI102209020102/09/202200000000500000000000000000000KGM  00000000000KGM  7470-5308E               J/B COMPLETE ASS'Y       74705308E                0         0         0         0    0    0    00000005000000001000000000000000000000
AE00TI102209020102/09/202200000002500000000000000000000KGM  00000000000KGM  7470-5783D               J/B COMPLETE ASS'Y       74705783D                0         0         0         0    0    0    00000037500000001500000000000000000000
AE00TI102209020102/09/202200000002700000000000000000000KGM  00000000000KGM  7470-5783S               J/B COMPLETE ASS'Y       74705783S                0         0         0         0    0    0    00000002700000000100000000000000000000
AE00TI102209020102/09/202200000001500000000000000000000KGM  00000000000KGM  7470-5784D               J/B COMPLETE ASS'Y       74705784D                0         0         0         0    0    0    00000022500000001500000000000000000000
AE00TI102209020102/09/202200000003000000000000000000000KGM  00000000000KGM  7470-5784E               J/B COMPLETE ASS'Y       74705784E                0         0         0         0    0    0    00000030000000001000000000000000000000
AE00TI102209020102/09/202200000003000000000000000000000KGM  00000000000KGM  7470-5791D               J/B COMPLETE ASS'Y       74705791D                0         0         0         0    0    0    00000045000000001500000000000000000000
AE00TI102209020102/09/202200000000600000000000000000000KGM  00000000000KGM  7470-5936D               J/B COMPLETE ASS'Y       74705936D                0         0         0         0    0    0    00000009000000001500000000000000000000
