AE00TI102209020402/09/202200000000100000000000000000154KGM  00000000440KGM  7157-3950-80             SEAL RUBBER              7157395080               0         0         0         0    0    0    00004000000004000000000044000017600000
AE00TI102209020402/09/202200000000100000000000000000250KGM  00000000306KGM  7158-3003-90             RUBBER STOPPER           7158300390               0         0         0         0    0    0    00002000000002000000000012000002400000
AE00TI102209020402/09/202200000000500000000000000004097KGM  00000004737KGM  7198-1373-60             HOUSING FEMALE           7198137360               0         0         0         0    0    0    00001000000000200000000134000013400000
AE00TI102209020402/09/202200000000300000000000000002894KGM  00000003524KGM  7282-4577                HOUSING MALE ASS'Y       72824577                 0         0         0         0    0    0    00000720000000240000000229000016488000
AE00TI102209020402/09/202200000000800000000000000006261KGM  00000007941KGM  7282-4578                HOUSING MALE ASS'Y       72824578                 0         0         0         0    0    0    00000960000000120000000255000024480000
AE00TI102209020402/09/202200000000500000000000000005316KGM  00000006416KGM  7282-4855                HOUSING MALE ASS'Y       72824855                 0         0         0         0    0    0    00000600000000120000000347000020820000
AE00TI102209020402/09/202200000002600000000000000026458KGM  00000032178KGM  7282-9391                HOUSING MALE ASS'Y       72829391                 0         0         0         0    0    0    00003120000000120000000325000101400000
AE00TI102209020402/09/202200000000100000000000000000602KGM  00000000866KGM  7283-1144                CONNECTOR                72831144                 0         0         0         0    0    0    00000240000000240000000260000006240000
AE00TI102209020402/09/202200000000200000000000000001303KGM  00000001743KGM  7283-4576                HOUSING FEMALE ASS'Y     72834576                 0         0         0         0    0    0    00000960000000480000000128000012288000
AE00TI102209020402/09/202200000000800000000000000006701KGM  00000008461KGM  7283-4578                HOUSING FEMALE ASS'Y     72834578                 0         0         0         0    0    0    00001920000000240000000190000036480000
AE00TI102209020402/09/202200000000000000000000000000000KGM  00000000000KGM  7283-5092                CONNECTOR HOUSING        72835092                 0         0         0         0    0    0    00000030000000160000000358000001074000
AE00TI102209020402/09/202200000000100000000000000000954KGM  00000001104KGM  7283-5830                CONNECTOR                72835830                 0         0         0         0    0    0    00000600000000600000000154000009240000
AE00TI102209020402/09/202200000000200000000000000001448KGM  00000001748KGM  7283-5832                CONNECTOR HOUSING        72835832                 0         0         0         0    0    0    00000480000000240000000206000009888000
AE00TI102209020402/09/202200000000100000000000000001378KGM  00000001687KGM  7283-5833                CONNECTOR HOUSING        72835833                 0         0         0         0    0    0    00000364000000364000000252000009172800
AE00TI102209020402/09/202200000001000000000000000008890KGM  00000011320KGM  7283-5843                CONNECTOR                72835843                 0         0         0         0    0    0    00001500000000150000000280000042000000
AE00TI102209020402/09/202200000000100000000000000000444KGM  00000000606KGM  7283-5845                CONNECTOR HOUSING        72835845                 0         0         0         0    0    0    00000600000000600000000133000007980000
AE00TI102209020402/09/202200000000500000000000000004425KGM  00000005510KGM  7283-5846                HOUSING                  72835846                 0         0         0         0    0    0    00000750000000150000000241000018075000
AE00TI102209020402/09/202200000000100000000000000000350KGM  00000000463KGM  7283-8721-30             HOUSING FEMALE ASS'Y     7283872130               0         0         0         0    0    0    00000100000000100000000415000004150000
AE00TI102209020402/09/202200000000100000000000000000794KGM  00000000907KGM  7283-8730-30             HOUSING FEMALE ASS'Y     7283873030               0         0         0         0    0    0    00000200000000200000000426000008520000
AE00TI102209020402/09/202200000000300000000000000002732KGM  00000003392KGM  7286-3885                CONNECTOR MALE ASS'Y     72863885                 0         0         0         0    0    0    00000360000000120000000295000010620000
AE00TI102209020402/09/202200000000300000000000000002732KGM  00000003392KGM  7286-3885-40             CONNECTOR MALE ASS'Y     7286388540               0         0         0         0    0    0    00000360000000120000000313000011268000
AE00TI102209020402/09/202200000000100000000000000000977KGM  00000001164KGM  7286-3970                CONNECTOR HOUSING        72863970                 0         0         0         0    0    0    00000011000000011000002089000002297900
AE00TI102209020402/09/202200000001300000000000000009984KGM  00000012714KGM  7286-4097                CONNECTOR MALE ASS'Y     72864097                 0         0         0         0    0    0    00002080000000160000000196000040768000
AE00TI102209020402/09/202200000000100000000000000001061KGM  00000001313KGM  7287-1917                CONNECTOR FEMALE         72871917                 0         0         0         0    0    0    00000240000000240000000253000006072000
AE00TI102209020402/09/202200000000300000000000000003089KGM  00000003749KGM  7287-3885                HYBRID FEMALE ASS'Y      72873885                 0         0         0         0    0    0    00000720000000240000000207000014904000
AE00TI102209020402/09/202200000000100000000000000001030KGM  00000001250KGM  7287-3885-30             HYBRID FEMALE ASS'Y      7287388530               0         0         0         0    0    0    00000240000000240000000215000005160000
AE00TI102209020402/09/202200000000200000000000000002059KGM  00000002499KGM  7287-3885-40             HYBRID FEMALE ASS'Y      7287388540               0         0         0         0    0    0    00000480000000240000000216000010368000
AE00TI102209020402/09/202200000000700000000000000008551KGM  00000010091KGM  7287-8072                HOUSING FEMALE ASS'Y     72878072                 0         0         0         0    0    0    00001680000000240000000247000041496000
AE00TI102209020402/09/202200000000300000000000000003499KGM  00000004159KGM  7287-8073                HOUSING FEMALE ASS'Y     72878073                 0         0         0         0    0    0    00000720000000240000000244000017568000
AE00TI102209020402/09/202200000000200000000000000002458KGM  00000002898KGM  7287-8999                HOUSING FEMALE ASS'Y     72878999                 0         0         0         0    0    0    00000960000000480000000163000015648000
AE00TI102209020402/09/202200000000100000000000000001229KGM  00000001449KGM  7287-8999-30             HOUSING FEMALE ASS'Y     7287899930               0         0         0         0    0    0    00000480000000480000000168000008064000
AE00TI102209020402/09/202200000000300000000000000003686KGM  00000004346KGM  7287-9000                HOUSING FEMALE ASS'Y     72879000                 0         0         0         0    0    0    00001440000000480000000162000023328000
AE00TI102209020402/09/202200000000400000000000000001550KGM  00000003150KGM  7288-3206                HOUSING MALE ASS'Y       72883206                 0         0         0         0    0    0    00000408000000102000000351000014320800
AE00TI102209020402/09/202200000004900000000000000033634KGM  00000044169KGM  7289-3342                HOUSING FEMALE ASS'Y     72893342                 0         0         0         0    0    0    00011760000000240000000186000218736000
AE00TI102209020402/09/202200000001400000000000000009610KGM  00000012620KGM  7289-3342-40             HOUSING FEMALE ASS'Y     7289334240               0         0         0         0    0    0    00003360000000240000000192000064512000
AE00TI102209020402/09/202200000002700000000000000018533KGM  00000024338KGM  7289-3342-90             HOUSING FEMALE ASS'Y     7289334290               0         0         0         0    0    0    00006480000000240000000196000127008000
AE00TI102209020402/09/202200000001000000000000000013512KGM  00000016662KGM  7289-6524-30             HOUSING FEMALE ASS'Y     7289652430               0         0         0         0    0    0    00000240000000024000004757000114168000
AE00TI102209020402/09/202200000001000000000000000011520KGM  00000013620KGM  7289-6547                HOUSING FEMALE ASS'Y     72896547                 0         0         0         0    0    0    00002400000000240000000229000054960000
AE00TI102209020402/09/202200000000100000000000000001307KGM  00000001622KGM  7289-7211-30             HOUSING FEMALE ASS'Y     7289721130               0         0         0         0    0    0    00000024000000024000004728000011347200
AE00TI102209020402/09/202200000001000000000000000012699KGM  00000015437KGM  7289-9613-30             HOUSING FEMALE ASS'Y     7289961330               0         0         0         0    0    0    00000240000000024000004796000115104000
AE00TI102209020502/09/202200000004000000000000000009592KGM  00000019592KGM  7271-1820-30             CASE SUB ASSY,ECU        7271182030               0         0         0         0    0    0    00000072000000001800009576000068947200
AE00TI102209020502/09/202200000001300000000000000008923KGM  00000011718KGM  7289-3342-30             HOUSING FEMALE ASS'Y     7289334230               0         0         0         0    0    0    00003120000000240000000191000059592000
AE00TI102209020502/09/202200000000400000000000000004432KGM  00000006082KGM  7289-9553-50             SEALED ASSY FEMALE       7289955350               0         0         0         0    0    0    00001176000000294000000252000029635200
AE00TI102209020502/09/202200000000600000000000000006550KGM  00000007772KGM  7298-2278-30             HOUSING FEMALE ASS'Y     7298227830               0         0         0         0    0    0    00001440000000240000000227000032688000
AE00TI102209020502/09/202200000000300000000000000002945KGM  00000003870KGM  7298-5993-30             SEALED ASSY FEMALE       7298599330               0         0         0         0    0    0    00000655200000218400000266000017428320
AE00TI102209020502/09/202200000000800000000000000008876KGM  00000010077KGM  7327-6572-3W             BATTERY FUSE             732765723W               0         0         0         0    0    0    00000076800000009600008162000062684160
AE00TI102209020502/09/202200000001100000000000000008162KGM  00000012342KGM  7388-2978-30             HOUSING MALE ASS'Y       7388297830               0         0         0         0    0    0    00000528000000048000001790000094512000
AE00TI102209020502/09/202200000000100000000000000000000KGM  00000000000KGM  7470-5783D               J/B COMPLETE ASS'Y       74705783D                0         0         0         0    0    0    00000001500000001500000000000000000000
AE00TI102209020502/09/202200000000500000000000000000000KGM  00000000000KGM  7470-5791D               J/B COMPLETE ASS'Y       74705791D                0         0         0         0    0    0    00000007500000001500000000000000000000
