AE00TI102209020302/09/202200000001600000000000000009792KGM  00000011136KGM  REEL-B42                 ALUMINUM REEL            REELB42                  0         0         0         0    0    0    00000003200000000200000000000000000000
AE00TI102209020302/09/202200000000100000000000000000760KGM  00000001024KGM  7187-3356                JOINT CONNECTOR          71873356                 0         0         0         0    0    0    00000120000000120000001038000012456000
AE00TI102209020302/09/202200000000500000000000000003810KGM  00000005146KGM  7187-3357-40             JOINT CONNECTOR          7187335740               0         0         0         0    0    0    00000600000000120000001059000063540000
AE00TI102209020302/09/202200000000300000000000000002290KGM  00000003091KGM  7187-3359-60             JOINT CONNECTOR          7187335960               0         0         0         0    0    0    00000360000000120000001079000038844000
AE00TI102209020302/09/202200000001700000000000000000000KGM  00000000000KGM  7273-2981-0WD            CASSETTE BRACKET         727329810WD              0         0         0         0    0    0    00000170000000010000000000000000000000
AE00TI102209020302/09/202200000001900000000000000000000KGM  00000000000KGM  7273-2981-0WE            CASSETTE BRACKET         727329810WE              0         0         0         0    0    0    00000152000000008000000000000000000000
AE00TI102209020302/09/202200000002000000000000000000000KGM  00000000000KGM  7273-2982-0WD            CASSETTE BRACKET         727329820WD              0         0         0         0    0    0    00000200000000010000000000000000000000
AE00TI102209020302/09/202200000001600000000000000000000KGM  00000000000KGM  7273-2982-0WE            CASSETTE BRACKET         727329820WE              0         0         0         0    0    0    00000240000000015000000000000000000000
AE00TI102209020302/09/202200000002500000000000000000000KGM  00000000000KGM  7273-2983-0WD            CASSETTE BRACKET         727329830WD              0         0         0         0    0    0    00000250000000010000000000000000000000
AE00TI102209020302/09/202200000000400000000000000000000KGM  00000000000KGM  7273-2983-0WE            CASSETTE BRACKET         727329830WE              0         0         0         0    0    0    00000032000000008000000000000000000000
AE00TI102209020302/09/202200000000200000000000000001590KGM  00000002024KGM  7282-1065                CONNECTOR                72821065                 0         0         0         0    0    0    00000300000000150000000415000012450000
AE00TI102209020302/09/202200000000200000000000000002334KGM  00000002744KGM  7282-1248                HOUSING SUB ASSEMBLY     72821248                 0         0         0         0    0    0    00000120000000060000000490000005880000
AE00TI102209020302/09/202200000000500000000000000006780KGM  00000007600KGM  7282-8120-30             CONNECTOR HOUSING        7282812030               0         0         0         0    0    0    00001500000000300000000000000000000000
AE00TI102209020302/09/202200000000600000000000000008136KGM  00000009120KGM  7282-8120-40             CONNECTOR HOUSING        7282812040               0         0         0         0    0    0    00001800000000300000000215000038700000
AE00TI102209020302/09/202200000000200000000000000001338KGM  00000001865KGM  7283-1140                CONNECTOR HOUSING        72831140                 0         0         0         0    0    0    00000300000000150000000259000007770000
AE00TI102209020302/09/202200000000400000000000000005524KGM  00000006548KGM  7283-1288                CONNECTOR HOUSING        72831288                 0         0         0         0    0    0    00000480000000120000000781000037488000
AE00TI102209020302/09/202200000000100000000000000001381KGM  00000001637KGM  7283-1288-10             CONNECTOR HOUSING        7283128810               0         0         0         0    0    0    00000120000000120000000785000009420000
AE00TI102209020302/09/202200000000400000000000000005528KGM  00000006563KGM  7283-1288-40             CONNECTOR HOUSING        7283128840               0         0         0         0    0    0    00000480000000120000000785000037680000
AE00TI102209020302/09/202200000000300000000000000002969KGM  00000003746KGM  7283-7526-30             CONNECTOR HOUSING        7283752630               0         0         0         0    0    0    00000588000000196000000506000029752800
AE00TI102209020302/09/202200000000100000000000000000990KGM  00000001249KGM  7283-7526-40             CONNECTOR HOUSING        7283752640               0         0         0         0    0    0    00000196000000196000000504000009878400
AE00TI102209020302/09/202200000000100000000000000000815KGM  00000001011KGM  7286-1899                HOUSING SUB ASSEMBLY     72861899                 0         0         0         0    0    0    00000033600000033600000853000002866080
AE00TI102209020302/09/202200000000100000000000000000894KGM  00000001185KGM  7287-9234                JOINT CONNECTOR          72879234                 0         0         0         0    0    0    00000960000000960000000137000013152000
AE00TI102209020302/09/202200000000300000000000000001613KGM  00000002070KGM  7287-9323                UNSEALED HOUSING SUB     72879323                 0         0         0         0    0    0    00000720000000240000000146000010512000
AE00TI102209020302/09/202200000000100000000000000000538KGM  00000000690KGM  7287-9323-30             UNSEALED HOUSING SUB     7287932330               0         0         0         0    0    0    00000240000000240000000153000003672000
AE00TI102209020302/09/202200000000200000000000000001075KGM  00000001380KGM  7287-9323-40             UNSEALED HOUSING SUB     7287932340               0         0         0         0    0    0    00000480000000240000000155000007440000
AE00TI102209020302/09/202200000000800000000000000006929KGM  00000008089KGM  7288-3329-30             HOUSING MALE             7288332930               0         0         0         0    0    0    00001200000000150000000354000042480000
AE00TI102209020302/09/202200000000800000000000000006928KGM  00000008087KGM  7288-3331-30             HOUSING MALE             7288333130               0         0         0         0    0    0    00001200000000150000000354000042480000
AE00TI102209020302/09/202200000000300000000000000002601KGM  00000003036KGM  7288-3334-30             HOUSING MALE             7288333430               0         0         0         0    0    0    00000450000000150000000354000015930000
AE00TI102209020302/09/202200000000800000000000000009642KGM  00000010722KGM  7288-6547                CONNECTOR MALE ASS'Y     72886547                 0         0         0         0    0    0    00000600000000075000001125000067500000
AE00TI102209020302/09/202200000000300000000000000002059KGM  00000002704KGM  7289-3342                HOUSING FEMALE ASS'Y     72893342                 0         0         0         0    0    0    00000720000000240000000186000013392000
AE00TI102209020302/09/202200000003500000000000000024024KGM  00000031549KGM  7289-3342-30             HOUSING FEMALE ASS'Y     7289334230               0         0         0         0    0    0    00008400000000240000000191000160440000
AE00TI102209020302/09/202200000000200000000000000001678KGM  00000002238KGM  7289-6868-30             SEALED ASSY FEMALE       7289686830               0         0         0         0    0    0    00000504000000252000000332000016732800
AE00TI102209020302/09/202200000000100000000000000000000KGM  00000000000KGM  7470-4363S               J/B COMPLETE ASS'Y       74704363S                0         0         0         0    0    0    00000000100000000100000000000000000000
AE00TI102209020302/09/202200000001800000000000000023760KGM  00000028260KGM  7470-4481                J/B COMPLETE ASS'Y       74704481                 0         0         0         0    0    0    00000043200000002400000000000000000000
AE00TI102209020302/09/202200000000100000000000000000000KGM  00000000000KGM  7470-4811S               J/B COMPLETE ASS'Y       74704811S                0         0         0         0    0    0    00000000100000000100000000000000000000
AE00TI102209020302/09/202200000000200000000000000000000KGM  00000000000KGM  7470-4814S               J/B COMPLETE ASS'Y       74704814S                0         0         0         0    0    0    00000000200000000100000000000000000000
AE00TI102209020302/09/202200000002000000000000000000000KGM  00000000000KGM  7470-5307E               J/B COMPLETE ASS'Y       74705307E                0         0         0         0    0    0    00000020000000001000000000000000000000
AE00TI102209020302/09/202200000000100000000000000000000KGM  00000000000KGM  7470-5679S               J/B COMPLETE ASS'Y       74705679S                0         0         0         0    0    0    00000000100000000100000000000000000000
AE00TI102209020302/09/202200000002900000000000000000000KGM  00000000000KGM  7470-5783E               J/B COMPLETE ASS'Y       74705783E                0         0         0         0    0    0    00000029000000001000000000000000000000
AE00TI102209020302/09/202200000001500000000000000000000KGM  00000000000KGM  7470-5823E               J/B COMPLETE ASS'Y       74705823E                0         0         0         0    0    0    00000015000000001000000000000000000000
AE00TI102209020302/09/202200000001400000000000000000000KGM  00000000000KGM  7470-5858S               J/B COMPLETE ASS'Y       74705858S                0         0         0         0    0    0    00000001400000000100000000000000000000
AE00TI102209020302/09/202200000000300000000000000000000KGM  00000000000KGM  7470-5870S               J/B COMPLETE ASS'Y       74705870S                0         0         0         0    0    0    00000000300000000100000000000000000000
AE00TI102209020302/09/202200000000200000000000000000000KGM  00000000000KGM  7470-5873S               J/B COMPLETE ASS'Y       74705873S                0         0         0         0    0    0    00000000200000000100000000000000000000
AE00TI102209020302/09/202200000001500000000000000000000KGM  00000000000KGM  7470-5927S               J/B COMPLETE ASS'Y       74705927S                0         0         0         0    0    0    00000001500000000100000000000000000000
