BI00B1200    2399T52917     202209157289-3342-30             HOUSING FEMALE ASS'Y     CCN000004800000004800FN00000000020221101000004800NNMD0020220902121357    1N0N  0000024000000068640000090141200    YCYC    005500360039
BI00B1200    2399T52918     202209157289-3342-30             HOUSING FEMALE ASS'Y     CCN000004800000004800FN00000000020221101000004800NNMD0020220902121357    1N0N  0000024000000068640000090141200    YCYC    005500360039
BI00B1200    2399T52919     202209157289-3342-30             HOUSING FEMALE ASS'Y     CCN000002400000002400FN00000000020221101000002400NNMD0020220902121357    1N0N  0000024000000068640000090141200    YCYC    005500360039
BI00B1200    2399T52920     202209157289-3342-30             HOUSING FEMALE ASS'Y     CCN000002400000002400FN00000000020221101000002400NNMD0020220902121357    1N0N  0000024000000068640000090141200    YCYC    005500360039
BI00B1200    2399T52926     202210067289-3342-30             HOUSING FEMALE ASS'Y     CCN000007200000007200FN00000000020221101000007200NNE   20220902121357    1N0N  0000024000000068640000090141200    YCYC    005500360039
BI00B1200    2399T52927     202210207289-3342-30             HOUSING FEMALE ASS'Y     CCN000004800000004800FN00000000020221101000004800NNE   20220902121357    1N0N  0000024000000068640000090141200    YCYC    005500360039
BI00B1200    2399T52928     202210277289-3342-30             HOUSING FEMALE ASS'Y     CCN000004800000004800FN00000000020221101000004800NNE   20220902121357    1N0N  0000024000000068640000090141200    YCYC    005500360039
BI00B1200    2399T52929     202211037289-3342-30             HOUSING FEMALE ASS'Y     CCN000004800000004800FN00000000020221101000004800NNE   20220902121357    1N0N  0000024000000068640000090141200    YCYC    005500360039
BI00B1200    Y022L50037     202211107116-4112-02             TERMINAL                 CCN000204000000204000FN00000000020221201000204000NNE   20220902121357    4P0P  0000060000000045000000073821200    YCYC    006400630015
BI00B1200    Y022L50038     202211107116-4112-02             TERMINAL                 CCN000996000000996000FN00000000020221201000996000NNE   20220902121357    4P0P  0000060000000045000000073821200    YCYC    006400630015
BI00B1200    2399T52930     202211107289-3342-30             HOUSING FEMALE ASS'Y     CCN000004800000004800FN00000000020221201000004800NNE   20220902121357    1N0N  0000024000000068640000090141200    YCYC    005500360039
BI00A1200    #CE22-MN-0104  202209067158-3007-10             RUBBER STOPPER           CCN000020000000020000FN00000000020220901000020000NNE   20220902141255    2H0H  0000200000000030800000036271200    YCYC    002700430014
BI00B32B1    A22039         202209017114-4032                TERMINAL                 CCN000007500000007500FY00000750020221101000000000NNMD0020220902131354B1  4P0P  00000750000000735000001063632B1    AXARNE-M006400630017
BI00B32B1    A22039         202209017282-5574-10             CONNECTOR                CCN000000800000000800FY00000080020221101000000000NNMD0020220902131354B1  4N0N  00000080000001235000001423032B1    AXARNE-M005600390040
BI00A32CA    PTA32090A      202209057289-3342                HOUSING FEMALE ASS'Y     CCN000024000000024000FN00000000020220901000024000NNEM0020220902131817    1N0N  00000240000000686400000901432CA    YPYPY   005500360039
BI00A32CA    PTA32090A      202209057289-3342-30             HOUSING FEMALE ASS'Y     CCN000040800000040800FN00000000020220901000040800NNEM0020220902131817    1N0N  00000240000000686400000901432CA    YPYPY   005500360039
BI00A32CA    PTA32090A      202209057289-3342-90             HOUSING FEMALE ASS'Y     CCN000012000000012000FN00000000020220901000012000NNEM0020220902131817    1N0N  00000240000000686400000901432CA    YPYPY   005500360039
BI00A32CA    PTA32091A      202209057289-3342                HOUSING FEMALE ASS'Y     CCN000062400000062400FN00000000020220901000062400NNEM0020220902131817    1N0N  00000240000000686400000901432CA    YPYPY   005500360039
BI00A32CA    PTA32091A      202209057289-3342-30             HOUSING FEMALE ASS'Y     CCN000110400000110400FN00000000020220901000110400NNEM0020220902131817    1N0N  00000240000000686400000901432CA    YPYPY   005500360039
BI00A32CA    PTA32091A      202209057289-3342-90             HOUSING FEMALE ASS'Y     CCN000009600000009600FN00000000020220901000009600NNEM0020220902131817    1N0N  00000240000000686400000901432CA    YPYPY   005500360039
BI00A32CA    PTA32090A      202209057114-5096-02             TERMINAL                 CCN000120000000120000FN00000000020220901000120000NNEM0020220902131931    4P0P  00003000000000498000000792232CA    YPYPY   006400630015
BI00A32CA    PTA32090A      202209057116-4486-02             TERMINAL                 CCN000084000000084000FN00000000020220901000084000NNEM0020220902131931    4P0P  00002800000000666400000995132CA    YPYPY   006400630017
BI00B32CA    PTA33031       202211037116-3153-02             TERMINAL FEMALE          CCN001122000001134000FN00000000020230301001134000NNE   20220902121357    4P0P  00002700000000459000000744232CA    YPYPY   006400630015
BI00B32CA    PTA33031       202211037116-3154-02             TERMINAL FEMALE          CCN000462000000486000FN00000000020230301000486000NNE   20220902121357    4P0P  00002700000000469800000755032CA    YPYPY   006400630015
BI00B32CA    PTA33031       202211037116-4022                TERMINAL                 CCN000135000000135000FN00000000020230301000135000NNE   20220902121357    4P0P  00001350000000618300000903532CA    YPYPY   006400630015
BI00B32CA    PTA33031       202211037158-3166-60             WIRE SEAL                CCN000040000000040000FN00000000020230301000040000NNE   20220902121357    1C0C  00004000000000104000000152432CA    YPYPY   002700430014
BI00B32CA    PTA33031       202211037158-3167-61             WIRE SEAL                CCN000020000000020000FN00000000020230301000020000NNE   20220902121357    1C0C  00002000000000048000000096432CA    YPYPY   004300270014
BI00B32CA    PTA33031       202211037158-3168-80             SEALED                   CCN000040000000040000FN00000000020230301000040000NNE   20220902121357    1C0C  00002000000000044000000092132CA    YPYPY   004300260014
BI00B32CA    PTA33031       202211037158-3169-40             SEALING PLUG             CCN000040000000040000FN00000000020230301000040000NNE   20220902121357    1C0C  00004000000000156000000204132CA    YPYPY   004300260014
BI00B32CA    PTA33031       202211037196-0510-02             TERMINAL                 CCN000144000000144000FN00000000020230301000144000NNE   20220902121357    4P0P  00002400000000871200001034632CA    YPYPY   002800510028
BI00B32CA    PTA33031       202211037196-0511-02             TERMINAL                 CCN000005000000024000FN00000000020230301000024000NNE   20220902121357    4P0P  00002400000000916800001080232CA    YPYPY   002800510028
BI00B32CA    PTA33031       202211037196-1461-06             TERMINAL FEMALE          CCN000024000000024000FN00000000020230301000024000NNE   20220902121357    4P0P  00002400000000386400000692932CA    YPYPY   006400630015
BI00B32CA    PTA33031       202211037287-9323                UNSEALED HOUSING SUB     CCN000009600000009600FN00000000020230301000009600NNE   20220902121357    1N0N  00000240000000537600000690032CA    YPYPY   005600390023
BI00B32CA    PTA33031       202211037289-3342                HOUSING FEMALE ASS'Y     CCN000055200000055200FN00000000020230301000055200NNE   20220902121357    1N0N  00000240000000686400000901432CA    YPYPY   005500360039
BI00B32CA    PTA33031       202211037289-3342-90             HOUSING FEMALE ASS'Y     CCN000024000000024000FN00000000020230301000024000NNE   20220902121357    1N0N  00000240000000686400000901432CA    YPYPY   005500360039
BI00B32CA    PTA33031       202211037386-2747                CONNECTOR ASS'Y          CCN000007000000008000FN00000000020230301000008000NNE   20220902121357    4N0N  00000200000001162000001284532CA    YPYPY   005400370024
BI00B32CA    #PTA33031      202211037154-5597-30             CASSETTE R/B             CCN000012000000012000FN00000000020230301000012000NNE   20220902121357    2F0F  00000080000000736000000952032CA    YPYPY   005500360039
BI00B32CA    #PTA33031      202211037189-3032-30             HOUSING FEMALE           CCN000006400000006400FN00000000020230301000006400NNE   20220902121357    2F0F  00000160000000801600001021632CA    YPYPY   005500360039
BI00B32CA    #PTA33031      202211037189-3034-30             HOUSING FEMALE           CCN000003200000003200FN00000000020230301000003200NNE   20220902121357    2F0F  00000160000000972800001192832CA    YPYPY   005500360039
BI00B32CA    PTA33033       202212087116-3153-02             TERMINAL FEMALE          CCN000264000000270000FN00000000020230301000270000NNE   20220902121357    4P0P  00002700000000459000000744232CA    YPYPY   006400630015
BI00B32CA    PTA33033       202212087116-3154-02             TERMINAL FEMALE          CCN000132000000135000FN00000000020230301000135000NNE   20220902121357    4P0P  00002700000000469800000755032CA    YPYPY   006400630015
BI00B32CA    PTA33033       202212087116-4022                TERMINAL                 CCN000045000000054000FN00000000020230301000054000NNE   20220902121357    4P0P  00001350000000618300000903532CA    YPYPY   006400630015
BI00B32CA    PTA33033       202212087196-0511-02             TERMINAL                 CCN000005000000024000FN00000000020230301000024000NNE   20220902121357    4P0P  00002400000000916800001080232CA    YPYPY   002800510028
BI00B32CA    PTA33033       202212087386-2747                CONNECTOR ASS'Y          CCN000006000000006000FN00000000020230301000006000NNE   20220902121357    4N0N  00000200000001162000001284532CA    YPYPY   005400370024
BI00B32CA    #PTA33033      202212087154-5597-30             CASSETTE R/B             CCN000007200000007200FN00000000020230301000007200NNE   20220902121357    2F0F  00000080000000736000000952032CA    YPYPY   005500360039
BI00B32CA    #PTA33033      202212087189-3032-30             HOUSING FEMALE           CCN000004800000004800FN00000000020230301000004800NNE   20220902121357    2F0F  00000160000000801600001021632CA    YPYPY   005500360039
BI00B32CA    #PTA33033      202212087189-3034-30             HOUSING FEMALE           CCN000003200000003200FN00000000020230301000003200NNE   20220902121357    2F0F  00000160000000972800001192832CA    YPYPY   005500360039
BI00B32DA    SBT2210        202209017283-5830                CONNECTOR                CCN000048000000024000FY00002400020221001000000000NNM00020220902131649    1N47  00000600000000954000001104032DA    GBYIPLGB005500360039
BI00B32DA    SBT2210        202209017158-3006-90             RUBBER STOPPER           CCN000580000000580000FY00058000020221001000000000NNM00020220902131649    1C0C  00002000000000330600000386032DA    GBYIPLGB002700430014
BI00B32DA    SBT2210        202209017158-3009-60             RUBBER STOPPER           CCN000460000000460000FY00046000020221001000000000NNM00020220902131649    1C0C  00002000000000338000000386232DA    GBYIPLGB002700430014
BI00B32DA    SBT2210        202209017172-5540-80             SEALED WIRE SEAL         CCN000020000000020000FY00002000020221001000000000NNM00020220902131649    1C0C  00002000000000186000000234432DA    GBYIPLGB004300270014
BI00B32DA    SBT2210        202209017283-5830-30             CONNECTOR                CCN000006000000006000FY00000600020221001000000000NNM00020220902131649    1N0N  00000600000000954000001104032DA    GBYIPLGB005500360039
BI00B32DA    SBT2210        202209017289-3342-30             HOUSING FEMALE ASS'Y     CCN000031200000031200FY00003120020221001000000000NNM00020220902131649    1N0N  00000240000000686400000901432DA    GBYIPLGB005500360039
BI00B32DA    SBT2210        202209017287-3885-40             HYBRID FEMALE ASS'Y      CCN000012000000012000FY00001200020221001000000000NNM00020220902131649    1N0N  00000240000001029600001249632DA    GBYIPLGB005500360039
BI00B32DE    TCT210D        202209297114-4486-02             TERMINAL                 CCN000024000000024000FN00000000020221001000024000NNE   20220902121357    4P0P  00002400000000662400000956032DE    TVYEV-TV006400630015
BI00B32DE    TCT210D        202209297116-4116-02             TERMINAL                 CCN000013800000013800FN00000000020221001000013800NNE   20220902121357    4P0P  00000690000000517500000805732DE    TVYEV-TV006400630015
BI00B32DE    TCT210E        202209087114-4111-02             TERMINAL                 CCN000012000000012000FN00000000020221001000012000NNE   20220902121357    4P0P  00001200000000758400001087032DE    TVYEV-TV006400630017
BI00B32DE    TCT2112        202210137017-1180-02             TERMINAL                 CCN000072000000072000FN00000000020221101000072000NNM   20220902121357    4P0P  00007200000001065600001229032DE    TVYEV-TV005100280028
BI00B32DE    TCT2113        202210207017-1180-02             TERMINAL                 CCN000072000000072000FN00000000020221101000072000NNM   20220902121357    4P0P  00007200000001065600001229032DE    TVYEV-TV005100280028
BI00B32DE    TCT2112        202210137017-1181-02             TERMINAL                 CCN000063000000063000FN00000000020221101000063000NNM   20220902121357    4P0P  00006300000001089900001266832DE    TVYEV-TV005100280028
BI00B32DE    TCT2112        202210137114-4020                TERMINAL                 CCN000042000000042000FN00000000020221101000042000NNM   20220902121357    4P0P  00002100000000875700001169332DE    TVYEV-TV006400630015
BI00B32DE    TCT2113        202210207114-4020                TERMINAL                 CCN000042000000042000FN00000000020221101000042000NNM   20220902121357    4P0P  00002100000000875700001169332DE    TVYEV-TV006400630015
BI00B32DE    TCT2114        202210277114-4020                TERMINAL                 CCN000042000000042000FN00000000020221101000042000NNM   20220902121357    4P0P  00002100000000875700001169332DE    TVYEV-TV006400630015
BI00B32DE    TCT2111        202210067114-4021                TERMINAL                 CCN000015000000015000FN00000000020221101000015000NNM   20220902121357    4P0P  00001500000000670500000964132DE    TVYEV-TV006400630015
BI00B32DE    TCT2112        202210137114-4021                TERMINAL                 CCN000060000000060000FN00000000020221101000060000NNM   20220902121357    4P0P  00001500000000670500000964132DE    TVYEV-TV006400630015
BI00B32DE    TCT2113        202210207114-4021                TERMINAL                 CCN000060000000060000FN00000000020221101000060000NNM   20220902121357    4P0P  00001500000000670500000964132DE    TVYEV-TV006400630015
BI00B32DE    TCT2114        202210277114-4021                TERMINAL                 CCN000045000000045000FN00000000020221101000045000NNM   20220902121357    4P0P  00001500000000670500000964132DE    TVYEV-TV006400630015
BI00B32DE    TCT2111        202210067114-4032                TERMINAL                 CCN000007500000007500FN00000000020221101000007500NNM   20220902121357    4P0P  00000750000000735000001063632DE    TVYEV-TV006400630017
BI00B32DE    TCT2112        202210137114-4032                TERMINAL                 CCN000007500000007500FN00000000020221101000007500NNM   20220902121357    4P0P  00000750000000735000001063632DE    TVYEV-TV006400630017
BI00B32DE    TCT2113        202210207114-4032                TERMINAL                 CCN000007500000007500FN00000000020221101000007500NNM   20220902121357    4P0P  00000750000000735000001063632DE    TVYEV-TV006400630017
BI00B32DE    TCT2114        202210277114-4032                TERMINAL                 CCN000007500000007500FN00000000020221101000007500NNM   20220902121357    4P0P  00000750000000735000001063632DE    TVYEV-TV006400630017
BI00B32DE    TCT2112        202210137114-4110-02             TERMINAL                 CCN000015000000015000FN00000000020221101000015000NNM   20220902121357    4P0P  00001500000000901500001230132DE    TVYEV-TV006400630017
BI00B32DE    TCT2111        202210067114-4111-02             TERMINAL                 CCN000012000000012000FN00000000020221101000012000NNM   20220902121357    4P0P  00001200000000758400001087032DE    TVYEV-TV006400630017
BI00B32DE    TCT2112        202210137114-4112-02             TERMINAL                 CCN000009000000009000FN00000000020221101000009000NNM   20220902121357    4P0P  00000900000000598500000927132DE    TVYEV-TV006400630017
BI00B32DE    TCT2113        202210207114-4112-02             TERMINAL                 CCN000009000000009000FN00000000020221101000009000NNM   20220902121357    4P0P  00000900000000598500000927132DE    TVYEV-TV006400630017
BI00B32DE    TCT2112        202210137114-4231-02             TERMINAL                 CCN000054000000054000FN00000000020221101000054000NNM   20220902121357    4P0P  00001800000000554400000848032DE    TVYEV-TV006400630015
BI00B32DE    TCT2113        202210207114-4231-02             TERMINAL                 CCN000036000000036000FN00000000020221101000036000NNM   20220902121357    4P0P  00001800000000554400000848032DE    TVYEV-TV006400630015
BI00B32DE    TCT2114        202210277114-4231-02             TERMINAL                 CCN000036000000036000FN00000000020221101000036000NNM   20220902121357    4P0P  00001800000000554400000848032DE    TVYEV-TV006400630015
BI00B32DE    TCT2111        202210067114-4486-02             TERMINAL                 CCN000024000000024000FN00000000020221101000024000NNM   20220902121357    4P0P  00002400000000662400000956032DE    TVYEV-TV006400630015
BI00B32DE    TCT2112        202210137114-4486-02             TERMINAL                 CCN000024000000024000FN00000000020221101000024000NNM   20220902121357    4P0P  00002400000000662400000956032DE    TVYEV-TV006400630015
BI00B32DE    TCT2113        202210207114-4486-02             TERMINAL                 CCN000024000000024000FN00000000020221101000024000NNM   20220902121357    4P0P  00002400000000662400000956032DE    TVYEV-TV006400630015
BI00B32DE    TCT2114        202210277114-4486-02             TERMINAL                 CCN000024000000024000FN00000000020221101000024000NNM   20220902121357    4P0P  00002400000000662400000956032DE    TVYEV-TV006400630015
BI00B32DE    TCT2114        202210277114-4624-02             TERMINAL                 CCN000024000000024000FN00000000020221101000024000NNM   20220902121357    4P0P  00002400000000895200001188832DE    TVYEV-TV006400630015
BI00B32DE    TCT2113        202210207114-4728-02             TERMINAL                 CCN000090000000090000FN00000000020221101000090000NNM   20220902121357    4P0P  00003000000000510000000804232DE    TVYEV-TV006400630015
BI00B32DE    TCT2114        202210277114-4728-02             TERMINAL                 CCN000270000000270000FN00000000020221101000270000NNM   20220902121357    4P0P  00003000000000510000000804232DE    TVYEV-TV006400630015
BI00B32DE    TCT2112        202210137114-4729-02             TERMINAL                 CCN000210000000210000FN00000000020221101000210000NNM   20220902121357    4P0P  00003000000000516000000810232DE    TVYEV-TV006400630015
BI00B32DE    TCT2113        202210207114-4729-02             TERMINAL                 CCN000210000000210000FN00000000020221101000210000NNM   20220902121357    4P0P  00003000000000516000000810232DE    TVYEV-TV006400630015
BI00B32DE    TCT2114        202210277114-4729-02             TERMINAL                 CCN000150000000150000FN00000000020221101000150000NNM   20220902121357    4P0P  00003000000000516000000810232DE    TVYEV-TV006400630015
BI00B32DE    TCT2112        202210137114-5746-02             TERMINAL                 CCN000105000000105000FN00000000020221101000105000NNM   20220902121357    4P0P  00002100000000695100000988732DE    TVYEV-TV006400630015
BI00B32DE    TCT2113        202210207114-5746-02             TERMINAL                 CCN000084000000084000FN00000000020221101000084000NNM   20220902121357    4P0P  00002100000000695100000988732DE    TVYEV-TV006400630015
BI00B32DE    TCT2114        202210277114-5746-02             TERMINAL                 CCN000084000000084000FN00000000020221101000084000NNM   20220902121357    4P0P  00002100000000695100000988732DE    TVYEV-TV006400630015
BI00B32DE    TCT2114        202210277114-5747-02             TERMINAL                 CCN000018000000018000FN00000000020221101000018000NNM   20220902121357    4P0P  00001800000000626400000920032DE    TVYEV-TV006400630015
BI00B32DE    TCT2114        202210277114-5748-02             TERMINAL                 CCN000012000000012000FN00000000020221101000012000NNM   20220902121357    4P0P  00001200000000444000000737632DE    TVYEV-TV006400630015
BI00B32DE    TCT2113        202210207114-5753-02             TERMINAL                 CCN000054000000054000FN00000000020221101000054000NNM   20220902121357    4P0P  00002700000000847800001141432DE    TVYEV-TV006400630015
BI00B32DE    TCT2114        202210277114-5753-02             TERMINAL                 CCN000027000000027000FN00000000020221101000027000NNM   20220902121357    4P0P  00002700000000847800001141432DE    TVYEV-TV006400630015
BI00B32DE    TCT2112        202210137116-1685-02             TERMINAL                 CCN000288000000288000FN00000000020221101000288000NNM   20220902121357    4P0P  00002400000000897600001065232DE    TVYEV-TV005100280028
BI00B32DE    TCT2113        202210207116-1685-02             TERMINAL                 CCN000648000000648000FN00000000020221101000648000NNM   20220902121357    4P0P  00002400000000897600001065232DE    TVYEV-TV005100280028
BI00B32DE    TCT2114        202210277116-1685-02             TERMINAL                 CCN000432000000432000FN00000000020221101000432000NNM   20220902121357    4P0P  00002400000000897600001065232DE    TVYEV-TV005100280028
BI00B32DE    TCT2111        202210067116-1686-02             TERMINAL                 CCN000021000000021000FN00000000020221101000021000NNM   20220902121357    4P0P  00002100000000869400001021632DE    TVYEV-TV005100280028
BI00B32DE    TCT2112        202210137116-1686-02             TERMINAL                 CCN000084000000084000FN00000000020221101000084000NNM   20220902121357    4P0P  00002100000000869400001021632DE    TVYEV-TV005100280028
BI00B32DE    TCT2113        202210207116-1686-02             TERMINAL                 CCN000084000000084000FN00000000020221101000084000NNM   20220902121357    4P0P  00002100000000869400001021632DE    TVYEV-TV005100280028
BI00B32DE    TCT2114        202210277116-1686-02             TERMINAL                 CCN000042000000042000FN00000000020221101000042000NNM   20220902121357    4P0P  00002100000000869400001021632DE    TVYEV-TV005100280028
BI00B32DE    TCT2111        202210067116-1688-02             TERMINAL FEMALE          CCN000021000000021000FN00000000020221101000021000NNM   20220902121357    4P0P  00002100000000299600000898832DE    TVYEV-TV005100280028
BI00B32DE    TCT2112        202210137116-1688-02             TERMINAL FEMALE          CCN000021000000021000FN00000000020221101000021000NNM   20220902121357    4P0P  00002100000000299600000898832DE    TVYEV-TV005100280028
BI00B32DE    TCT2113        202210207116-1688-02             TERMINAL FEMALE          CCN000021000000021000FN00000000020221101000021000NNM   20220902121357    4P0P  00002100000000299600000898832DE    TVYEV-TV005100280028
BI00B32DE    TCT2114        202210277116-1688-02             TERMINAL FEMALE          CCN000021000000021000FN00000000020221101000021000NNM   20220902121357    4P0P  00002100000000299600000898832DE    TVYEV-TV005100280028
BI00B32DE    TCT2111        202210067116-2640                TERMINAL                 CCN000018000000018000FN00000000020221101000018000NNM   20220902121357    4P0P  00001800000001018800001196632DE    TVYEV-TV005100280028
BI00B32DE    TCT2112        202210137116-2640                TERMINAL                 CCN000036000000036000FN00000000020221101000036000NNM   20220902121357    4P0P  00001800000001018800001196632DE    TVYEV-TV005100280028
BI00B32DE    TCT2113        202210207116-2640                TERMINAL                 CCN000036000000036000FN00000000020221101000036000NNM   20220902121357    4P0P  00001800000001018800001196632DE    TVYEV-TV005100280028
BI00B32DE    TCT2114        202210277116-2640                TERMINAL                 CCN000036000000036000FN00000000020221101000036000NNM   20220902121357    4P0P  00001800000001018800001196632DE    TVYEV-TV005100280028
BI00B32DE    TCT2112        202210137116-2641                TERMINAL                 CCN000072000000072000FN00000000020221101000072000NNM   20220902121357    4P0P  00001800000001161000001344632DE    TVYEV-TV005100280028
BI00B32DE    TCT2113        202210207116-2641                TERMINAL                 CCN000054000000054000FN00000000020221101000054000NNM   20220902121357    4P0P  00001800000001161000001344632DE    TVYEV-TV005100280028
BI00B32DE    TCT2114        202210277116-2641                TERMINAL                 CCN000036000000036000FN00000000020221101000036000NNM   20220902121357    4P0P  00001800000001161000001344632DE    TVYEV-TV005100280028
BI00B32DE    TCT2112        202210137116-2891-02             TERMINAL                 CCN000150000000150000FN00000000020221101000150000NNM   20220902121357    4P0P  00001500000000982500001145932DE    TVYEV-TV005100280028
BI00B32DE    TCT2113        202210207116-2891-02             TERMINAL                 CCN000240000000240000FN00000000020221101000240000NNM   20220902121357    4P0P  00001500000000982500001145932DE    TVYEV-TV005100280028
BI00B32DE    TCT2114        202210277116-2891-02             TERMINAL                 CCN000165000000165000FN00000000020221101000165000NNM   20220902121357    4P0P  00001500000000982500001145932DE    TVYEV-TV005100280028
BI00B32DE    TCT2112        202210137116-2892-02             TERMINAL                 CCN000168000000168000FN00000000020221101000168000NNM   20220902121357    4P0P  00001200000000818400000981832DE    TVYEV-TV005100280028
BI00B32DE    TCT2113        202210207116-2892-02             TERMINAL                 CCN000228000000228000FN00000000020221101000228000NNM   20220902121357    4P0P  00001200000000818400000981832DE    TVYEV-TV005100280028
BI00B32DE    TCT2114        202210277116-2892-02             TERMINAL                 CCN000144000000144000FN00000000020221101000144000NNM   20220902121357    4P0P  00001200000000818400000981832DE    TVYEV-TV005100280028
BI00B32DE    TCT2112        202210137116-2893-02             TERMINAL                 CCN000120000000120000FN00000000020221101000120000NNM   20220902121357    4P0P  00001200000000895200001058632DE    TVYEV-TV005100280028
BI00B32DE    TCT2113        202210207116-2893-02             TERMINAL                 CCN000408000000408000FN00000000020221101000408000NNM   20220902121357    4P0P  00001200000000895200001058632DE    TVYEV-TV005100280028
BI00B32DE    TCT2114        202210277116-2893-02             TERMINAL                 CCN000252000000252000FN00000000020221101000252000NNM   20220902121357    4P0P  00001200000000895200001058632DE    TVYEV-TV005100280028
BI00B32DE    TCT2113        202210207116-3153-08             TERMINAL                 CCN000027000000027000FN00000000020221101000027000NNM   20220902121357    4P0P  00002700000000461700000746932DE    TVYEV-TV006400630015
BI00B32DE    TCT2114        202210277116-3153-08             TERMINAL                 CCN000027000000027000FN00000000020221101000027000NNM   20220902121357    4P0P  00002700000000461700000746932DE    TVYEV-TV006400630015
BI00B32DE    TCT2112        202210137116-4025                TERMINAL                 CCN000192000000192000FN00000000020221101000192000NNM   20220902121357    4P0P  00001600000000644800000975132DE    TVYEV-TV006400630017
BI00B32DE    TCT2113        202210207116-4025                TERMINAL                 CCN000192000000192000FN00000000020221101000192000NNM   20220902121357    4P0P  00001600000000644800000975132DE    TVYEV-TV006400630017
BI00B32DE    TCT2114        202210277116-4025                TERMINAL                 CCN000128000000128000FN00000000020221101000128000NNM   20220902121357    4P0P  00001600000000644800000975132DE    TVYEV-TV006400630017
BI00B32DE    TCT2112        202210137116-4026                TERMINAL                 CCN000144000000144000FN00000000020221101000144000NNM   20220902121357    4P0P  00001600000000664000000994332DE    TVYEV-TV006400630017
BI00B32DE    TCT2113        202210207116-4026                TERMINAL                 CCN000128000000128000FN00000000020221101000128000NNM   20220902121357    4P0P  00001600000000664000000994332DE    TVYEV-TV006400630017
BI00B32DE    TCT2114        202210277116-4026                TERMINAL                 CCN000096000000096000FN00000000020221101000096000NNM   20220902121357    4P0P  00001600000000664000000994332DE    TVYEV-TV006400630017
BI00B32DE    TCT2112        202210137116-4028-08             TERMINAL FEMALE          CCN000128000000128000FN00000000020221101000128000NNM   20220902121357    4P0P  00001600000000652800000981532DE    TVYEV-TV006400630017
BI00B32DE    TCT2113        202210207116-4028-08             TERMINAL FEMALE          CCN000144000000144000FN00000000020221101000144000NNM   20220902121357    4P0P  00001600000000652800000981532DE    TVYEV-TV006400630017
BI00B32DE    TCT2114        202210277116-4028-08             TERMINAL FEMALE          CCN000128000000128000FN00000000020221101000128000NNM   20220902121357    4P0P  00001600000000652800000981532DE    TVYEV-TV006400630017
BI00B32DE    TCT2111        202210067116-4031                TERMINAL                 CCN000007500000007500FN00000000020221101000007500NNM   20220902121357    4P0P  00000750000000619500000904732DE    TVYEV-TV006400630015
BI00B32DE    TCT2112        202210137116-4031                TERMINAL                 CCN000007500000007500FN00000000020221101000007500NNM   20220902121357    4P0P  00000750000000619500000904732DE    TVYEV-TV006400630015
BI00B32DE    TCT2113        202210207116-4031                TERMINAL                 CCN000007500000007500FN00000000020221101000007500NNM   20220902121357    4P0P  00000750000000619500000904732DE    TVYEV-TV006400630015
BI00B32DE    TCT2114        202210277116-4031                TERMINAL                 CCN000007500000007500FN00000000020221101000007500NNM   20220902121357    4P0P  00000750000000619500000904732DE    TVYEV-TV006400630015
BI00B32DE    TCT2111        202210067116-4032                TERMINAL                 CCN000024000000024000FN00000000020221101000024000NNM   20220902121357    4P0P  00000600000000532800000818032DE    TVYEV-TV006400630015
BI00B32DE    TCT2112        202210137116-4032                TERMINAL                 CCN000048000000048000FN00000000020221101000048000NNM   20220902121357    4P0P  00000600000000532800000818032DE    TVYEV-TV006400630015
BI00B32DE    TCT2113        202210207116-4032                TERMINAL                 CCN000054000000054000FN00000000020221101000054000NNM   20220902121357    4P0P  00000600000000532800000818032DE    TVYEV-TV006400630015
BI00B32DE    TCT2114        202210277116-4032                TERMINAL                 CCN000036000000036000FN00000000020221101000036000NNM   20220902121357    4P0P  00000600000000532800000818032DE    TVYEV-TV006400630015
BI00B32DE    TCT2111        202210067116-4037                TERMINAL                 CCN000036000000036000FN00000000020221101000036000NNM   20220902121357    4P0P  00000600000000600000000894232DE    TVYEV-TV006400630015
BI00B32DE    TCT2112        202210137116-4037                TERMINAL                 CCN000042000000042000FN00000000020221101000042000NNM   20220902121357    4P0P  00000600000000600000000894232DE    TVYEV-TV006400630015
BI00B32DE    TCT2113        202210207116-4037                TERMINAL                 CCN000042000000042000FN00000000020221101000042000NNM   20220902121357    4P0P  00000600000000600000000894232DE    TVYEV-TV006400630015
BI00B32DE    TCT2114        202210277116-4037                TERMINAL                 CCN000030000000030000FN00000000020221101000030000NNM   20220902121357    4P0P  00000600000000600000000894232DE    TVYEV-TV006400630015
BI00B32DE    TCT2112        202210137116-4100-02             TERMINAL                 CCN000015000000015000FN00000000020221101000015000NNM   20220902121357    4P0P  00001500000000696000000990232DE    TVYEV-TV006400630015
BI00B32DE    TCT2114        202210277116-4102-02             TERMINAL                 CCN000012000000012000FN00000000020221101000012000NNM   20220902121357    4P0P  00001200000000553200000841432DE    TVYEV-TV006400630015
BI00B32DE    TCT2114        202210277116-4103-02             TERMINAL                 CCN000012000000012000FN00000000020221101000012000NNM   20220902121357    4P0P  00001200000000571200000859432DE    TVYEV-TV006400630015
BI00B32DE    TCT2112        202210137116-4114-02             TERMINAL                 CCN000031500000031500FN00000000020221101000031500NNM   20220902121357    4P0P  00001050000000693000000981232DE    TVYEV-TV006400630015
BI00B32DE    TCT2113        202210207116-4114-02             TERMINAL                 CCN000021000000021000FN00000000020221101000021000NNM   20220902121357    4P0P  00001050000000693000000981232DE    TVYEV-TV006400630015
BI00B32DE    TCT2114        202210277116-4114-02             TERMINAL                 CCN000021000000021000FN00000000020221101000021000NNM   20220902121357    4P0P  00001050000000693000000981232DE    TVYEV-TV006400630015
BI00B32DE    TCT2113        202210207116-4115-02             TERMINAL                 CCN000008400000008400FN00000000020221101000008400NNM   20220902121357    4P0P  00000840000000593000000881232DE    TVYEV-TV006400630015
BI00B32DE    TCT2111        202210067116-4116-02             TERMINAL                 CCN000013800000013800FN00000000020221101000013800NNM   20220902121357    4P0P  00000690000000517500000805732DE    TVYEV-TV006400630015
BI00B32DE    TCT2112        202210137116-4116-02             TERMINAL                 CCN000020700000020700FN00000000020221101000020700NNM   20220902121357    4P0P  00000690000000517500000805732DE    TVYEV-TV006400630015
BI00B32DE    TCT2113        202210207116-4116-02             TERMINAL                 CCN000013800000013800FN00000000020221101000013800NNM   20220902121357    4P0P  00000690000000517500000805732DE    TVYEV-TV006400630015
BI00B32DE    TCT2114        202210277116-4116-02             TERMINAL                 CCN000006900000006900FN00000000020221101000006900NNM   20220902121357    4P0P  00000690000000517500000805732DE    TVYEV-TV006400630015
BI00B32DE    TCT2111        202210067116-4231-02             TERMINAL                 CCN000182000000182000FN00000000020221101000182000NNM   20220902121357    4P0P  00002600000000683800001012532DE    TVYEV-TV006400630017
BI00B32DE    TCT2112        202210137116-4231-02             TERMINAL                 CCN000234000000234000FN00000000020221101000234000NNM   20220902121357    4P0P  00002600000000683800001012532DE    TVYEV-TV006400630017
BI00B32DE    TCT2113        202210207116-4231-02             TERMINAL                 CCN000234000000234000FN00000000020221101000234000NNM   20220902121357    4P0P  00002600000000683800001012532DE    TVYEV-TV006400630017
BI00B32DE    TCT2114        202210277116-4231-02             TERMINAL                 CCN000182000000182000FN00000000020221101000182000NNM   20220902121357    4P0P  00002600000000683800001012532DE    TVYEV-TV006400630017
BI00B32DE    TCT2113        202210207116-4415-02             TERMINAL                 CCN000076000000076000FN00000000020221101000076000NNM   20220902121357    4P0P  00003800000000596600000925732DE    TVYEV-TV006400630017
BI00B32DE    TCT2114        202210277116-4415-02             TERMINAL                 CCN000152000000152000FN00000000020221101000152000NNM   20220902121357    4P0P  00003800000000596600000925732DE    TVYEV-TV006400630017
BI00B32DE    TCT2113        202210207116-4416-02             TERMINAL                 CCN000064000000064000FN00000000020221101000064000NNM   20220902121357    4P0P  00003200000000518400000847132DE    TVYEV-TV006400630017
BI00B32DE    TCT2114        202210277116-4416-02             TERMINAL                 CCN000032000000032000FN00000000020221101000032000NNM   20220902121357    4P0P  00003200000000518400000847132DE    TVYEV-TV006400630017
BI00B32DE    TCT2111        202210067116-4486-02             TERMINAL                 CCN000084000000084000FN00000000020221101000084000NNM   20220902121357    4P0P  00002800000000666400000995132DE    TVYEV-TV006400630017
BI00B32DE    TCT2112        202210137116-4486-02             TERMINAL                 CCN000084000000084000FN00000000020221101000084000NNM   20220902121357    4P0P  00002800000000666400000995132DE    TVYEV-TV006400630017
BI00B32DE    TCT2113        202210207116-4486-02             TERMINAL                 CCN000056000000056000FN00000000020221101000056000NNM   20220902121357    4P0P  00002800000000666400000995132DE    TVYEV-TV006400630017
BI00B32DE    TCT2114        202210277116-4486-02             TERMINAL                 CCN000084000000084000FN00000000020221101000084000NNM   20220902121357    4P0P  00002800000000666400000995132DE    TVYEV-TV006400630017
BI00B32DE    TCT2111        202210067116-5035-02             TERMINAL                 CCN000060000000060000FN00000000020221101000060000NNM   20220902121357    4P0P  00001500000000543000000828232DE    TVYEV-TV006400630015
BI00B32DE    TCT2112        202210137116-5035-02             TERMINAL                 CCN000090000000090000FN00000000020221101000090000NNM   20220902121357    4P0P  00001500000000543000000828232DE    TVYEV-TV006400630015
BI00B32DE    TCT2113        202210207116-5035-02             TERMINAL                 CCN000105000000105000FN00000000020221101000105000NNM   20220902121357    4P0P  00001500000000543000000828232DE    TVYEV-TV006400630015
BI00B32DE    TCT2114        202210277116-5035-02             TERMINAL                 CCN000090000000090000FN00000000020221101000090000NNM   20220902121357    4P0P  00001500000000543000000828232DE    TVYEV-TV006400630015
BI00B32DE    TCT2111        202210067116-5041-02             TERMINAL                 CCN000090000000090000FN00000000020221101000090000NNM   20220902121357    4P0P  00001500000000583500000868732DE    TVYEV-TV006400630015
BI00B32DE    TCT2112        202210137116-5041-02             TERMINAL                 CCN000285000000285000FN00000000020221101000285000NNM   20220902121357    4P0P  00001500000000583500000868732DE    TVYEV-TV006400630015
BI00B32DE    TCT2113        202210207116-5041-02             TERMINAL                 CCN000255000000255000FN00000000020221101000255000NNM   20220902121357    4P0P  00001500000000583500000868732DE    TVYEV-TV006400630015
BI00B32DE    TCT2114        202210277116-5041-02             TERMINAL                 CCN000225000000225000FN00000000020221101000225000NNM   20220902121357    4P0P  00001500000000583500000868732DE    TVYEV-TV006400630015
BI00B32DE    TCT2111        202210067116-5042-02             TERMINAL                 CCN000054000000054000FN00000000020221101000054000NNM   20220902121357    4P0P  00001350000000560300000845532DE    TVYEV-TV006400630015
BI00B32DE    TCT2112        202210137116-5042-02             TERMINAL                 CCN000121500000121500FN00000000020221101000121500NNM   20220902121357    4P0P  00001350000000560300000845532DE    TVYEV-TV006400630015
BI00B32DE    TCT2113        202210207116-5042-02             TERMINAL                 CCN000121500000121500FN00000000020221101000121500NNM   20220902121357    4P0P  00001350000000560300000845532DE    TVYEV-TV006400630015
BI00B32DE    TCT2114        202210277116-5042-02             TERMINAL                 CCN000108000000108000FN00000000020221101000108000NNM   20220902121357    4P0P  00001350000000560300000845532DE    TVYEV-TV006400630015
BI00B32DE    TCT2111        202210067116-5043-02             TERMINAL FEMALE          CCN000072000000072000FN00000000020221101000072000NNM   20220902121357    4P0P  00001200000000559200000844432DE    TVYEV-TV006400630015
BI00B32DE    TCT2112        202210137116-5043-02             TERMINAL FEMALE          CCN000120000000120000FN00000000020221101000120000NNM   20220902121357    4P0P  00001200000000559200000844432DE    TVYEV-TV006400630015
BI00B32DE    TCT2113        202210207116-5043-02             TERMINAL FEMALE          CCN000108000000108000FN00000000020221101000108000NNM   20220902121357    4P0P  00001200000000559200000844432DE    TVYEV-TV006400630015
BI00B32DE    TCT2114        202210277116-5043-02             TERMINAL FEMALE          CCN000084000000084000FN00000000020221101000084000NNM   20220902121357    4P0P  00001200000000559200000844432DE    TVYEV-TV006400630015
BI00B32DE    TCT2111        202210067116-5044-02             TERMINAL                 CCN000112000000112000FN00000000020221101000112000NNM   20220902121357    4P0P  00001600000000641600000986332DE    TVYEV-TV006400630017
BI00B32DE    TCT2112        202210137116-5044-02             TERMINAL                 CCN000288000000288000FN00000000020221101000288000NNM   20220902121357    4P0P  00001600000000641600000986332DE    TVYEV-TV006400630017
BI00B32DE    TCT2113        202210207116-5044-02             TERMINAL                 CCN000272000000272000FN00000000020221101000272000NNM   20220902121357    4P0P  00001600000000641600000986332DE    TVYEV-TV006400630017
BI00B32DE    TCT2114        202210277116-5044-02             TERMINAL                 CCN000224000000224000FN00000000020221101000224000NNM   20220902121357    4P0P  00001600000000641600000986332DE    TVYEV-TV006400630017
BI00B32DE    TCT2111        202210067116-5045-02             TERMINAL                 CCN000080000000080000FN00000000020221101000080000NNM   20220902121357    4P0P  00001600000000678400001007132DE    TVYEV-TV006400630017
BI00B32DE    TCT2112        202210137116-5045-02             TERMINAL                 CCN000160000000160000FN00000000020221101000160000NNM   20220902121357    4P0P  00001600000000678400001007132DE    TVYEV-TV006400630017
BI00B32DE    TCT2113        202210207116-5045-02             TERMINAL                 CCN000176000000176000FN00000000020221101000176000NNM   20220902121357    4P0P  00001600000000678400001007132DE    TVYEV-TV006400630017
BI00B32DE    TCT2114        202210277116-5045-02             TERMINAL                 CCN000144000000144000FN00000000020221101000144000NNM   20220902121357    4P0P  00001600000000678400001007132DE    TVYEV-TV006400630017
BI00B32DE    TCT2112        202210137116-5046-02             TERMINAL                 CCN000024000000024000FN00000000020221101000024000NNM   20220902121357    4P0P  00001200000000544800000873532DE    TVYEV-TV006400630017
BI00B32DE    TCT2113        202210207116-5046-02             TERMINAL                 CCN000024000000024000FN00000000020221101000024000NNM   20220902121357    4P0P  00001200000000544800000873532DE    TVYEV-TV006400630017
BI00B32DE    TCT2114        202210277116-5046-02             TERMINAL                 CCN000036000000036000FN00000000020221101000036000NNM   20220902121357    4P0P  00001200000000544800000873532DE    TVYEV-TV006400630017
BI00B32DE    TCT2114        202210277116-5750-02             TERMINAL                 CCN000030000000030000FN00000000020221101000030000NNM   20220902121357    4P0P  00001500000000457500000742732DE    TVYEV-TV006400630015
BI00B32DE    TCT2111        202210067116-5751-02             TERMINAL                 CCN000012000000012000FN00000000020221101000012000NNM   20220902121357    4P0P  00001200000000379200000664432DE    TVYEV-TV006400630015
BI00B32DE    TCT2112        202210137116-5751-02             TERMINAL                 CCN000012000000012000FN00000000020221101000012000NNM   20220902121357    4P0P  00001200000000379200000664432DE    TVYEV-TV006400630015
BI00B32DE    TCT2113        202210207116-5751-02             TERMINAL                 CCN000024000000024000FN00000000020221101000024000NNM   20220902121357    4P0P  00001200000000379200000664432DE    TVYEV-TV006400630015
BI00B32DE    TCT2114        202210277116-5751-02             TERMINAL                 CCN000024000000024000FN00000000020221101000024000NNM   20220902121357    4P0P  00001200000000379200000664432DE    TVYEV-TV006400630015
BI00B32DE    TCT2113        202210207116-5752-02             TERMINAL                 CCN000042000000042000FN00000000020221101000042000NNM   20220902121357    4P0P  00002100000000571200000856432DE    TVYEV-TV006400630015
BI00B32DE    TCT2114        202210277116-5752-02             TERMINAL                 CCN000042000000042000FN00000000020221101000042000NNM   20220902121357    4P0P  00002100000000571200000856432DE    TVYEV-TV006400630015
BI00B32DE    TCT2112        202210137116-6041                TERMINAL                 CCN000004500000004500FN00000000020221101000004500NNM   20220902121357    4P0P  00000450000000716000001009632DE    TVYEV-TV006400630015
BI00B32DE    TCT2113        202210207116-6041                TERMINAL                 CCN000009000000009000FN00000000020221101000009000NNM   20220902121357    4P0P  00000450000000716000001009632DE    TVYEV-TV006400630015
BI00B32DE    TCT2114        202210277116-6041                TERMINAL                 CCN000004500000004500FN00000000020221101000004500NNM   20220902121357    4P0P  00000450000000716000001009632DE    TVYEV-TV006400630015
BI00B32DE    TCT2112        202210137116-6042                TERMINAL                 CCN000006000000006000FN00000000020221101000006000NNM   20220902121357    4P0P  00000300000000523800000856132DE    TVYEV-TV006400630015
BI00B32DE    TCT2113        202210207116-6042                TERMINAL                 CCN000015000000015000FN00000000020221101000015000NNM   20220902121357    4P0P  00000300000000523800000856132DE    TVYEV-TV006400630015
BI00B32DE    TCT2114        202210277116-6042                TERMINAL                 CCN000012000000012000FN00000000020221101000012000NNM   20220902121357    4P0P  00000300000000523800000856132DE    TVYEV-TV006400630015
BI00B32DE    TCT2113        202210207126-8853-02             TERMINAL                 CCN000210000000210000FN00000000020221101000210000NNM   20220902121357    4P0P  00000750000000562500000847732DE    TVYEV-TV006400630015
BI00B32DE    TCT2114        202210277126-8853-02             TERMINAL                 CCN000165000000165000FN00000000020221101000165000NNM   20220902121357    4P0P  00000750000000562500000847732DE    TVYEV-TV006400630015
BI00B32DE    TCT2112        202210137126-8854-02             TERMINAL                 CCN000060000000060000FN00000000020221101000060000NNM   20220902121357    4P0P  00000750000000604500000889732DE    TVYEV-TV006400630015
BI00B32DE    TCT2113        202210207126-8854-02             TERMINAL                 CCN000255000000255000FN00000000020221101000255000NNM   20220902121357    4P0P  00000750000000604500000889732DE    TVYEV-TV006400630015
BI00B32DE    TCT2114        202210277126-8854-02             TERMINAL                 CCN000180000000180000FN00000000020221101000180000NNM   20220902121357    4P0P  00000750000000604500000889732DE    TVYEV-TV006400630015
BI00B32DE    TCT2113        202210207126-8855-02             TERMINAL                 CCN000090000000090000FN00000000020221101000090000NNM   20220902121357    4P0P  00000600000000510600000795832DE    TVYEV-TV006400630015
BI00B32DE    TCT2114        202210277126-8855-02             TERMINAL                 CCN000192000000192000FN00000000020221101000192000NNM   20220902121357    4P0P  00000600000000510600000795832DE    TVYEV-TV006400630015
BI00B32DE    TCT2111        202210067158-3006-90             RUBBER STOPPER           CCN000160000000160000FN00000000020221101000160000NNM   20220902121357    1C0C  00002000000000330600000386032DE    TVYEV-TV002700430014
BI00B32DE    TCT2112        202210137158-3006-90             RUBBER STOPPER           CCN000700000000700000FN00000000020221101000700000NNM   20220902121357    1C0C  00002000000000330600000386032DE    TVYEV-TV002700430014
BI00B32DE    TCT2113        202210207158-3006-90             RUBBER STOPPER           CCN000620000000620000FN00000000020221101000620000NNM   20220902121357    1C0C  00002000000000330600000386032DE    TVYEV-TV002700430014
BI00B32DE    TCT2114        202210277158-3006-90             RUBBER STOPPER           CCN000500000000500000FN00000000020221101000500000NNM   20220902121357    1C0C  00002000000000330600000386032DE    TVYEV-TV002700430014
BI00B32DE    TCT2111        202210067158-3022-80             RUBBER STOPPER           CCN000005000000005000FN00000000020221101000005000NNM   20220902121357    1C0C  00000500000000467500000524032DE    TVYEV-TV002700430014
BI00B32DE    TCT2113        202210207158-3070-80             RUBBER STOPPER           CCN000040000000040000FN00000000020221101000040000NNM   20220902121357    1C0C  00004000000000276000000333332DE    TVYEV-TV002700430014
BI00B32DE    TCT2114        202210277158-3070-80             RUBBER STOPPER           CCN000080000000080000FN00000000020221101000080000NNM   20220902121357    1C0C  00004000000000276000000333332DE    TVYEV-TV002700430014
BI00B32DE    TCT2114        202210277158-3165-90             WIRE SEAL                CCN000080000000080000FN00000000020221101000080000NNM   20220902121357    1C0C  00004000000000124000000172432DE    TVYEV-TV004300270014
BI00B32DE    TCT2114        202210277158-3166-60             WIRE SEAL                CCN000080000000080000FN00000000020221101000080000NNM   20220902121357    1C0C  00004000000000104000000152432DE    TVYEV-TV002700430014
BI00B32DE    TCT2112        202210137158-3167-80             WIRE SEAL                CCN000040000000040000FN00000000020221101000040000NNM   20220902121357    1C0C  00002000000000048000000109032DE    TVYEV-TV002700430014
BI00B32DE    TCT2113        202210207158-3167-80             WIRE SEAL                CCN000060000000060000FN00000000020221101000060000NNM   20220902121357    1C0C  00002000000000048000000109032DE    TVYEV-TV002700430014
BI00B32DE    TCT2114        202210277158-3167-80             WIRE SEAL                CCN000040000000040000FN00000000020221101000040000NNM   20220902121357    1C0C  00002000000000048000000109032DE    TVYEV-TV002700430014
BI00B32DE    TCT2114        202210277195-1479-02             TERMINAL MALE            CCN000048000000048000FN00000000020221101000048000NNM   20220902121357    4P0P  00002400000000420000000714232DE    TVYEV-TV006400630015
BI00B32DE    TCT2112        202210137196-0510-02             TERMINAL                 CCN000072000000072000FN00000000020221101000072000NNM   20220902121357    4P0P  00002400000000871200001034632DE    TVYEV-TV002800510028
BI00B32DE    TCT2113        202210207196-0510-02             TERMINAL                 CCN000120000000120000FN00000000020221101000120000NNM   20220902121357    4P0P  00002400000000871200001034632DE    TVYEV-TV002800510028
BI00B32DE    TCT2114        202210277196-0510-02             TERMINAL                 CCN000048000000048000FN00000000020221101000048000NNM   20220902121357    4P0P  00002400000000871200001034632DE    TVYEV-TV002800510028
BI00B32DE    TCT2113        202210207196-0511-02             TERMINAL                 CCN000024000000024000FN00000000020221101000024000NNM   20220902121357    4P0P  00002400000000916800001080232DE    TVYEV-TV002800510028
BI00B32DE    TCT2114        202210277196-0550-02             TERMINAL ALUMINIUM       CCN000032000000032000FN00000000020221101000032000NNM   20220902121357    4P0P  00003200000000515200000901632DE    TVYEV-TV006400630017
BI00B32DE    TCT2113        202210207196-1103-02             TERMINAL                 CCN000022500000022500FN00000000020221101000022500NNM   20220902121357    4P0P  00002250000000429800000715032DE    TVYEV-TV006400630015
BI00B32DE    TCT2114        202210277196-1103-02             TERMINAL                 CCN000022500000022500FN00000000020221101000022500NNM   20220902121357    4P0P  00002250000000429800000715032DE    TVYEV-TV006400630015
BI00B32DE    TCT2114        202210277196-1481-02             TERMINAL FEMALE          CCN000048000000048000FN00000000020221101000048000NNM   20220902121357    4P0P  00002400000000422400000707632DE    TVYEV-TV006400630015
BI00B32DE    TCT2114        202210277196-1934-02             TERMINAL FEMALE          CCN000039000000039000FN00000000020221101000039000NNM   20220902121357    4P0P  00001950000000561600000846832DE    TVYEV-TV006400630015
BI00B32DE    TCT2114        202210277196-1936-02             TERMINAL FEMALE          CCN000067500000067500FN00000000020221101000067500NNM   20220902121357    4P0P  00001350000000441500000726732DE    TVYEV-TV006400630015
BI00B32DE    TCT2114        202210277196-1939-02             TERMINAL FEMALE          CCN000015000000015000FN00000000020221101000015000NNM   20220902121357    4P0P  00001500000000574500000862732DE    TVYEV-TV006400630015
BI00B32DE    TCT2114        202210277282-4576                HOUSING MALE ASS'Y       CCN000002400000002400FN00000000020221101000002400NNM   20220902121357    4N0N  00000240000000808800001028832DE    TVYEV-TV005500360039
BI00B32DE    TCT2113        202210207282-4577                HOUSING MALE ASS'Y       CCN000002400000002400FN00000000020221101000002400NNM   20220902121357    4N0N  00000240000000964800001174832DE    TVYEV-TV005500360039
BI00B32DE    TCT2113        202210207283-1020-30             CONNECTOR                CCN000006000000006000FN00000000020221101000006000NNM   20220902121357    4N0N  00000600000000840000001064032DE    TVYEV-TV005600390040
BI00B32DE    TCT2111        202210067283-1057-30             CONNECTOR HOUSING        CCN000000960000000960FN00000000020221101000000960NNM   20220902121357    4N0N  00000096000000925400001075432DE    TVYEV-TV005500360039
BI00B32DE    TCT2112        202210137283-1057-30             CONNECTOR HOUSING        CCN000000960000000960FN00000000020221101000000960NNM   20220902121357    4N0N  00000096000000925400001075432DE    TVYEV-TV005500360039
BI00B32DE    TCT2114        202210277283-1057-30             CONNECTOR HOUSING        CCN000000960000000960FN00000000020221101000000960NNM   20220902121357    4N0N  00000096000000925400001075432DE    TVYEV-TV005500360039
BI00B32DE    TCT2111        202210067283-1222-40             CONNECTOR HOUSING        CCN000002400000002400FN00000000020221101000002400NNM   20220902121357    4N0N  00000120000000858000001032732DE    TVYEV-TV005500360039
BI00B32DE    TCT2112        202210137283-1222-40             CONNECTOR HOUSING        CCN000002400000002400FN00000000020221101000002400NNM   20220902121357    4N0N  00000120000000858000001032732DE    TVYEV-TV005500360039
BI00B32DE    TCT2113        202210207283-1222-40             CONNECTOR HOUSING        CCN000002400000002400FN00000000020221101000002400NNM   20220902121357    4N0N  00000120000000858000001032732DE    TVYEV-TV005500360039
BI00B32DE    TCT2114        202210277283-1222-40             CONNECTOR HOUSING        CCN000002400000002400FN00000000020221101000002400NNM   20220902121357    4N0N  00000120000000858000001032732DE    TVYEV-TV005500360039
BI00B32DE    TCT2112        202210137283-1288-10             CONNECTOR HOUSING        CCN000014400000014400FN00000000020221101000014400NNM   20220902121357    1N0N  00000120000001381000001637032DE    TVYEV-TV005600390040
BI00B32DE    TCT2113        202210207283-1288-10             CONNECTOR HOUSING        CCN000020400000020400FN00000000020221101000020400NNM   20220902121357    1N0N  00000120000001381000001637032DE    TVYEV-TV005600390040
BI00B32DE    TCT2114        202210277283-1288-10             CONNECTOR HOUSING        CCN000010800000010800FN00000000020221101000010800NNM   20220902121357    1N0N  00000120000001381000001637032DE    TVYEV-TV005600390040
BI00B32DE    TCT2111        202210067283-1288-40             CONNECTOR HOUSING        CCN000001200000001200FN00000000020221101000001200NNM   20220902121357    1N0N  00000120000001382000001640732DE    TVYEV-TV005600390040
BI00B32DE    TCT2112        202210137283-1288-40             CONNECTOR HOUSING        CCN000002400000002400FN00000000020221101000002400NNM   20220902121357    1N0N  00000120000001382000001640732DE    TVYEV-TV005600390040
BI00B32DE    TCT2113        202210207283-1288-40             CONNECTOR HOUSING        CCN000003600000003600FN00000000020221101000003600NNM   20220902121357    1N0N  00000120000001382000001640732DE    TVYEV-TV005600390040
BI00B32DE    TCT2114        202210277283-1288-40             CONNECTOR HOUSING        CCN000001200000001200FN00000000020221101000001200NNM   20220902121357    1N0N  00000120000001382000001640732DE    TVYEV-TV005600390040
BI00B32DE    TCT2112        202210137283-1289-30             CONNECTOR HOUSING        CCN000000600000000600FN00000000020221101000000600NNM   20220902121357    1N0N  00000060000000675600000820632DE    TVYEV-TV005400370024
BI00B32DE    TCT2113        202210207283-1289-30             CONNECTOR HOUSING        CCN000001200000001200FN00000000020221101000001200NNM   20220902121357    1N0N  00000060000000675600000820632DE    TVYEV-TV005400370024
BI00B32DE    TCT2114        202210277283-1289-30             CONNECTOR HOUSING        CCN000001200000001200FN00000000020221101000001200NNM   20220902121357    1N0N  00000060000000675600000820632DE    TVYEV-TV005400370024
BI00B32DE    TCT2111        202210067283-1289-40             CONNECTOR HOUSING        CCN000001800000001800FN00000000020221101000001800NNM   20220902121357    1N0N  00000060000000679800000824832DE    TVYEV-TV005400370024
BI00B32DE    TCT2112        202210137283-1289-40             CONNECTOR HOUSING        CCN000004800000004800FN00000000020221101000004800NNM   20220902121357    1N0N  00000060000000679800000824832DE    TVYEV-TV005400370024
BI00B32DE    TCT2113        202210207283-1289-40             CONNECTOR HOUSING        CCN000003600000003600FN00000000020221101000003600NNM   20220902121357    1N0N  00000060000000679800000824832DE    TVYEV-TV005400370024
BI00B32DE    TCT2114        202210277283-1289-40             CONNECTOR HOUSING        CCN000003600000003600FN00000000020221101000003600NNM   20220902121357    1N0N  00000060000000679800000824832DE    TVYEV-TV005400370024
BI00B32DE    TCT2111        202210067283-3013-30             CONNECTOR                CCN000002000000002000FN00000000020221101000002000NNM   20220902121357    4N0N  00000200000001138000001284032DE    TVYEV-TV005600390040
BI00B32DE    TCT2113        202210207283-3013-30             CONNECTOR                CCN000002000000002000FN00000000020221101000002000NNM   20220902121357    4N0N  00000200000001138000001284032DE    TVYEV-TV005600390040
BI00B32DE    TCT2114        202210277283-3013-30             CONNECTOR                CCN000002000000002000FN00000000020221101000002000NNM   20220902121357    4N0N  00000200000001138000001284032DE    TVYEV-TV005600390040
BI00B32DE    TCT2114        202210277283-4576                HOUSING FEMALE ASS'Y     CCN000004800000004800FN00000000020221101000004800NNM   20220902121357    4N0N  00000480000000651300000871332DE    TVYEV-TV005500360039
BI00B32DE    TCT2112        202210137283-4576-30             HOUSING FEMALE ASS'Y     CCN000004800000004800FN00000000020221101000004800NNM   20220902121357    4N0N  00000480000000651300000871332DE    TVYEV-TV005500360039
BI00B32DE    TCT2113        202210207283-4576-30             HOUSING FEMALE ASS'Y     CCN000004800000004800FN00000000020221101000004800NNM   20220902121357    4N0N  00000480000000651300000871332DE    TVYEV-TV005500360039
BI00B32DE    TCT2114        202210277283-4576-30             HOUSING FEMALE ASS'Y     CCN000004800000004800FN00000000020221101000004800NNM   20220902121357    4N0N  00000480000000651300000871332DE    TVYEV-TV005500360039
BI00B32DE    TCT2111        202210067283-4576-40             HOUSING FEMALE ASS'Y     CCN000004800000004800FN00000000020221101000004800NNM   20220902121357    4N0N  00000480000000651300000871332DE    TVYEV-TV005500360039
BI00B32DE    TCT2113        202210207283-4576-40             HOUSING FEMALE ASS'Y     CCN000004800000004800FN00000000020221101000004800NNM   20220902121357    4N0N  00000480000000651300000871332DE    TVYEV-TV005500360039
BI00B32DE    TCT2111        202210067283-4576-90             HOUSING FEMALE ASS'Y     CCN000004800000004800FN00000000020221101000004800NNM   20220902121357    4N0N  00000480000000651300000871332DE    TVYEV-TV005500360039
BI00B32DE    TCT2113        202210207283-4576-90             HOUSING FEMALE ASS'Y     CCN000004800000004800FN00000000020221101000004800NNM   20220902121357    4N0N  00000480000000651300000871332DE    TVYEV-TV005500360039
BI00B32DE    TCT2113        202210207283-4577                CONNECTOR HOUSING        CCN000004800000004800FN00000000020221101000004800NNM   20220902121357    4N0N  00000480000000916800001136832DE    TVYEV-TV005500360039
BI00B32DE    TCT2114        202210277283-4577-30             CONNECTOR HOUSING        CCN000004800000004800FN00000000020221101000004800NNM   20220902121357    4N0N  00000480000000916800001136832DE    TVYEV-TV005500360039
BI00B32DE    TCT2114        202210277283-4577-40             CONNECTOR HOUSING        CCN000004800000004800FN00000000020221101000004800NNM   20220902121357    4N0N  00000480000000916800001136832DE    TVYEV-TV005500360039
BI00B32DE    TCT2112        202210137283-4855-40             CONNECTOR HOUSING        CCN000004800000004800FN00000000020221101000004800NNM   20220902121357    4N0N  00000240000001188400001400032DE    TVYEV-TV005600360039
BI00B32DE    TCT2113        202210207283-4855-40             CONNECTOR HOUSING        CCN000002400000002400FN00000000020221101000002400NNM   20220902121357    4N0N  00000240000001188400001400032DE    TVYEV-TV005600360039
BI00B32DE    TCT2114        202210277283-4855-40             CONNECTOR HOUSING        CCN000004800000004800FN00000000020221101000004800NNM   20220902121357    4N0N  00000240000001188400001400032DE    TVYEV-TV005600360039
BI00B32DE    TCT2113        202210207283-5830                CONNECTOR                CCN000006000000006000FN00000000020221101000006000NNM   20220902121357    1N47  00000600000000954000001104032DE    TVYEV-TV005500360039
BI00B32DE    TCT2111        202210067283-5830-30             CONNECTOR                CCN000006000000006000FN00000000020221101000006000NNM   20220902121357    1N0N  00000600000000954000001104032DE    TVYEV-TV005500360039
BI00B32DE    TCT2114        202210277283-5830-30             CONNECTOR                CCN000006000000006000FN00000000020221101000006000NNM   20220902121357    1N0N  00000600000000954000001104032DE    TVYEV-TV005500360039
BI00B32DE    TCT2113        202210207283-5832                CONNECTOR HOUSING        CCN000002400000002400FN00000000020221101000002400NNM   20220902121357    1N47  00000240000000723800000873832DE    TVYEV-TV005500360039
BI00B32DE    TCT2114        202210277283-5843                CONNECTOR                CCN000001500000001500FN00000000020221101000001500NNM   20220902121357    1N0N  00000150000000889000001132032DE    TVYEV-TV005600390040
BI00B32DE    TCT2114        202210277283-5846                HOUSING                  CCN000001500000001500FN00000000020221101000001500NNM   20220902121357    1N0N  00000150000000885000001102032DE    TVYEV-TV005600390040
BI00B32DE    TCT2112        202210137283-5846-40             HOUSING                  CCN000001500000001500FN00000000020221101000001500NNM   20220902121357    1N0N  00000150000000885000001102032DE    TVYEV-TV005600390040
BI00B32DE    TCT2111        202210067283-6120                CONNECTOR HOUSING        CCN000004500000004500FN00000000020221101000004500NNM   20220902121357    1N0N  00000150000000914000001143032DE    TVYEV-TV005600390040
BI00B32DE    TCT2112        202210137283-6120                CONNECTOR HOUSING        CCN000006000000006000FN00000000020221101000006000NNM   20220902121357    1N0N  00000150000000914000001143032DE    TVYEV-TV005600390040
BI00B32DE    TCT2113        202210207283-6120                CONNECTOR HOUSING        CCN000004500000004500FN00000000020221101000004500NNM   20220902121357    1N0N  00000150000000914000001143032DE    TVYEV-TV005600390040
BI00B32DE    TCT2114        202210277283-6120                CONNECTOR HOUSING        CCN000004500000004500FN00000000020221101000004500NNM   20220902121357    1N0N  00000150000000914000001143032DE    TVYEV-TV005600390040
BI00B32DE    TCT2114        202210277283-7023-30             CONNECTOR                CCN000002500000002500FN00000000020221101000002500NNM   20220902121357    4N0N  00000250000001358000001556032DE    TVYEV-TV005500360039
BI00B32DE    TCT2111        202210067283-7449-30             HOUSING FEMALE ASS'Y     CCN000004800000004800FN00000000020221101000004800NNM   20220902121357    4N0N  00000240000001200000001410032DE    TVYEV-TV005500360039
BI00B32DE    TCT2112        202210137283-7449-30             HOUSING FEMALE ASS'Y     CCN000009600000009600FN00000000020221101000009600NNM   20220902121357    4N0N  00000240000001200000001410032DE    TVYEV-TV005500360039
BI00B32DE    TCT2113        202210207283-7449-30             HOUSING FEMALE ASS'Y     CCN000009600000009600FN00000000020221101000009600NNM   20220902121357    4N0N  00000240000001200000001410032DE    TVYEV-TV005500360039
BI00B32DE    TCT2114        202210277283-7449-30             HOUSING FEMALE ASS'Y     CCN000007200000007200FN00000000020221101000007200NNM   20220902121357    4N0N  00000240000001200000001410032DE    TVYEV-TV005500360039
BI00B32DE    TCT2111        202210067283-7449-40             HOUSING FEMALE ASS'Y     CCN000002400000002400FN00000000020221101000002400NNM   20220902121357    4N0N  00000240000001200000001410032DE    TVYEV-TV005500360039
BI00B32DE    TCT2112        202210137283-7449-40             HOUSING FEMALE ASS'Y     CCN000007200000007200FN00000000020221101000007200NNM   20220902121357    4N0N  00000240000001200000001410032DE    TVYEV-TV005500360039
BI00B32DE    TCT2113        202210207283-7449-40             HOUSING FEMALE ASS'Y     CCN000007200000007200FN00000000020221101000007200NNM   20220902121357    4N0N  00000240000001200000001410032DE    TVYEV-TV005500360039
BI00B32DE    TCT2114        202210277283-7449-40             HOUSING FEMALE ASS'Y     CCN000004800000004800FN00000000020221101000004800NNM   20220902121357    4N0N  00000240000001200000001410032DE    TVYEV-TV005500360039
BI00B32DE    TCT2111        202210067283-7526-30             CONNECTOR HOUSING        CCN000001960000001960FN00000000020221101000001960NNM   20220902121357    4N0N  00000196000000989800001248632DE    TVYEV-TV005500360039
BI00B32DE    TCT2112        202210137283-7526-30             CONNECTOR HOUSING        CCN000003920000003920FN00000000020221101000003920NNM   20220902121357    4N0N  00000196000000989800001248632DE    TVYEV-TV005500360039
BI00B32DE    TCT2113        202210207283-7526-30             CONNECTOR HOUSING        CCN000003920000003920FN00000000020221101000003920NNM   20220902121357    4N0N  00000196000000989800001248632DE    TVYEV-TV005500360039
BI00B32DE    TCT2114        202210277283-7526-30             CONNECTOR HOUSING        CCN000001960000001960FN00000000020221101000001960NNM   20220902121357    4N0N  00000196000000989800001248632DE    TVYEV-TV005500360039
BI00B32DE    TCT2112        202210137283-7526-40             CONNECTOR HOUSING        CCN000001960000001960FN00000000020221101000001960NNM   20220902121357    4N0N  00000196000000989800001248632DE    TVYEV-TV005500360039
BI00B32DE    TCT2113        202210207283-7526-40             CONNECTOR HOUSING        CCN000003920000003920FN00000000020221101000003920NNM   20220902121357    4N0N  00000196000000989800001248632DE    TVYEV-TV005500360039
BI00B32DE    TCT2111        202210067283-8228-40             CONNECTOR                CCN000003000000003000FN00000000020221101000003000NNM   20220902121357    4N0N  00000300000001215000001361032DE    TVYEV-TV005600390040
BI00B32DE    TCT2113        202210207283-8228-40             CONNECTOR                CCN000003000000003000FN00000000020221101000003000NNM   20220902121357    4N0N  00000300000001215000001361032DE    TVYEV-TV005600390040
BI00B32DE    TCT2114        202210277283-8228-40             CONNECTOR                CCN000003000000003000FN00000000020221101000003000NNM   20220902121357    4N0N  00000300000001215000001361032DE    TVYEV-TV005600390040
BI00B32DE    TCT2114        202210277286-1900                CONNECTOR HOUSING        CCN000004800000004800FN00000000020221101000004800NNM   20220902121357    4N0N  00000480000001161600001376632DE    TVYEV-TV005500360039
BI00B32DE    TCT2112        202210137287-7599-10             HOUSING FEMALE ASS'Y     CCN000001600000001600FN00000000020221101000001600NNM   20220902121357    4N0N  00000160000001233600001445632DE    TVYEV-TV005500360039
BI00B32DE    TCT2113        202210207287-7599-10             HOUSING FEMALE ASS'Y     CCN000003200000003200FN00000000020221101000003200NNM   20220902121357    4N0N  00000160000001233600001445632DE    TVYEV-TV005500360039
BI00B32DE    TCT2114        202210277287-7599-10             HOUSING FEMALE ASS'Y     CCN000001600000001600FN00000000020221101000001600NNM   20220902121357    4N0N  00000160000001233600001445632DE    TVYEV-TV005500360039
BI00B32DE    TCT2112        202210137287-9234                JOINT CONNECTOR          CCN000067200000067200FN00000000020221101000067200NNM   20220902121357    4N0N  00000960000000893800001184832DE    TVYEV-TV005500360039
BI00B32DE    TCT2113        202210207287-9234                JOINT CONNECTOR          CCN000086400000086400FN00000000020221101000086400NNM   20220902121357    4N0N  00000960000000893800001184832DE    TVYEV-TV005500360039
BI00B32DE    TCT2114        202210277287-9234                JOINT CONNECTOR          CCN000057600000057600FN00000000020221101000057600NNM   20220902121357    4N0N  00000960000000893800001184832DE    TVYEV-TV005500360039
BI00B32DE    TCT2114        202210277288-3335-30             HOUSING MALE             CCN000001500000001500FN00000000020221101000001500NNM   20220902121357    4N0N  00000150000000867000001012032DE    TVYEV-TV005400370024
BI00B32DE    TCT2114        202210277288-6547                CONNECTOR MALE ASS'Y     CCN000001500000001500FN00000000020221101000001500NNM   20220902121357    4N0N  00000075000001205300001340332DE    TVYEV-TV005400370024
BI00B32DE    TCT2114        202210277289-3342                HOUSING FEMALE ASS'Y     CCN000002400000002400FN00000000020221101000002400NNM   20220902121357    1N0N  00000240000000686400000901432DE    TVYEV-TV005500360039
BI00B32DE    TCT2113        202210207289-3342-30             HOUSING FEMALE ASS'Y     CCN000004800000004800FN00000000020221101000004800NNM   20220902121357    1N0N  00000240000000686400000901432DE    TVYEV-TV005500360039
BI00B32DE    TCT2114        202210277289-3342-30             HOUSING FEMALE ASS'Y     CCN000024000000024000FN00000000020221101000024000NNM   20220902121357    1N0N  00000240000000686400000901432DE    TVYEV-TV005500360039
BI00B32DE    TCT2114        202210277289-3342-90             HOUSING FEMALE ASS'Y     CCN000002400000002400FN00000000020221101000002400NNM   20220902121357    1N0N  00000240000000686400000901432DE    TVYEV-TV005500360039
BI00B32DE    TCT2112        202210137289-4696-30             HOUSING FEMALE ASS'Y     CCN000006000000006000FN00000000020221101000006000NNM   20220902121357    4N0N  00000200000000913400001055432DE    TVYEV-TV005400370024
BI00B32DE    TCT2113        202210207289-4696-30             HOUSING FEMALE ASS'Y     CCN000004000000004000FN00000000020221101000004000NNM   20220902121357    4N0N  00000200000000913400001055432DE    TVYEV-TV005400370024
BI00B32DE    TCT2114        202210277289-4696-30             HOUSING FEMALE ASS'Y     CCN000004000000004000FN00000000020221101000004000NNM   20220902121357    4N0N  00000200000000913400001055432DE    TVYEV-TV005400370024
BI00B32DE    TCT2114        202210277289-6547                HOUSING FEMALE ASS'Y     CCN000002400000002400FN00000000020221101000002400NNM   20220902121357    1N0N  00000240000001152000001362032DE    TVYEV-TV005500360039
BI00B32DE    TCT2112        202210137382-1481-10             CONNECTOR                CCN000016800000016800FN00000000020221101000016800NNM   20220902121357    4N0N  00000080000001025000001183032DE    TVYEV-TV005600390040
BI00B32DE    TCT2113        202210207382-1481-10             CONNECTOR                CCN000022400000022400FN00000000020221101000022400NNM   20220902121357    4N0N  00000080000001025000001183032DE    TVYEV-TV005600390040
BI00B32DE    TCT2114        202210277382-1481-10             CONNECTOR                CCN000013600000013600FN00000000020221101000013600NNM   20220902121357    4N0N  00000080000001025000001183032DE    TVYEV-TV005600390040
BI00B32DE    #TCT2111       202210067114-4022                TERMINAL                 CCN000060000000060000FN00000000020221101000060000NNM   20220902121357    2F0P  00001500000000708000001120632DE    TVYEV-TV006400630015
BI00B32DE    #TCT2113       202210207114-4022                TERMINAL                 CCN000060000000060000FN00000000020221101000060000NNM   20220902121357    2F0P  00001500000000708000001120632DE    TVYEV-TV006400630015
BI00B32DE    #TCT2111       202210067125-3236-30             HEAD LAMP CONNECTOR      CCN000002800000002800FN00000000020221101000002800NNM   20220902121357    2F0F  00000280000000945000001085932DE    TVYEV-TV005500360039
BI00B32DE    #TCT2113       202210207125-3236-30             HEAD LAMP CONNECTOR      CCN000002800000002800FN00000000020221101000002800NNM   20220902121357    2F0F  00000280000000945000001085932DE    TVYEV-TV005500360039
BI00B32DE    #TCT2111       202210067154-5597-30             CASSETTE R/B             CCN000006400000006400FN00000000020221101000006400NNM   20220902121357    2F0F  00000080000000736000000952032DE    TVYEV-TV005500360039
BI00B32DE    #TCT2113       202210207154-5597-30             CASSETTE R/B             CCN000006400000006400FN00000000020221101000006400NNM   20220902121357    2F0F  00000080000000736000000952032DE    TVYEV-TV005500360039
BI00B32DE    #TCT2113       202210207157-8991-80             RUBBER STOPPER           CCN000080000000080000FN00000000020221101000080000NNM   20220902121357    2C0C  00002000000000214000000271032DE    TVYEV-TV002700430014
BI00B32DE    #TCT2111       202210067158-3003-90             RUBBER STOPPER           CCN000260000000260000FN00000000020221101000260000NNM   20220902121357    2C0C  00002000000000250000000306032DE    TVYEV-TV002700430014
BI00B32DE    #TCT2113       202210207158-3003-90             RUBBER STOPPER           CCN000280000000280000FN00000000020221101000280000NNM   20220902121357    2C0C  00002000000000250000000306032DE    TVYEV-TV002700430014
BI00B32DE    #TCT2111       202210067158-3004-40             RUBBER STOPPER           CCN000060000000060000FN00000000020221101000060000NNM   20220902121357    2C0C  00002000000000234000000306332DE    TVYEV-TV002700430014
BI00B32DE    #TCT2113       202210207158-3004-40             RUBBER STOPPER           CCN000080000000080000FN00000000020221101000080000NNM   20220902121357    2C0C  00002000000000234000000306332DE    TVYEV-TV002700430014
BI00B32DE    #TCT2111       202210067158-3005-80             RUBBER STOPPER           CCN000020000000020000FN00000000020221101000020000NNM   20220902121357    2H0H  00002000000000210000000268732DE    TVYEV-TV002700430014
BI00B32DE    #TCT2113       202210207158-3005-80             RUBBER STOPPER           CCN000040000000040000FN00000000020221101000040000NNM   20220902121357    2H0H  00002000000000210000000268732DE    TVYEV-TV002700430014
BI00B32DE    #TCT2111       202210067158-3007-10             RUBBER STOPPER           CCN000080000000080000FN00000000020221101000080000NNM   20220902121357    2H0H  00002000000000308000000362732DE    TVYEV-TV002700430014
BI00B32DE    #TCT2113       202210207158-3007-10             RUBBER STOPPER           CCN000100000000100000FN00000000020221101000100000NNM   20220902121357    2H0H  00002000000000308000000362732DE    TVYEV-TV002700430014
BI00B32DE    #TCT2111       202210067158-3008-80             RUBBER STOPPER           CCN000040000000040000FN00000000020221101000040000NNM   20220902121357    2C0C  00002000000000288000000343032DE    TVYEV-TV004300270014
BI00B32DE    #TCT2113       202210207158-3008-80             RUBBER STOPPER           CCN000060000000060000FN00000000020221101000060000NNM   20220902121357    2C0C  00002000000000288000000343032DE    TVYEV-TV004300270014
BI00B32DE    #TCT2111       202210067158-3015-10             RUBBER STOPPER           CCN000070000000070000FN00000000020221101000070000NNM   20220902121357    2C0C  00001000000000419500000474032DE    TVYEV-TV002700430014
BI00B32DE    #TCT2113       202210207158-3015-10             RUBBER STOPPER           CCN000050000000050000FN00000000020221101000050000NNM   20220902121357    2C0C  00001000000000419500000474032DE    TVYEV-TV002700430014
BI00B32DE    #TCT2111       202210067158-3017                RUBBER STOPPER           CCN000040000000040000FN00000000020221101000040000NNM   20220902121357    2C0C  00001000000000375500000435032DE    TVYEV-TV002700430014
BI00B32DE    #TCT2113       202210207158-3017                RUBBER STOPPER           CCN000040000000040000FN00000000020221101000040000NNM   20220902121357    2C0C  00001000000000375500000435032DE    TVYEV-TV002700430014
BI00B32DE    #TCT2111       202210067158-3120-90             CONNECTOR WIRE SEAL      CCN000040000000040000FN00000000020221101000040000NNM   20220902121357    2C0C  00002000000000136000000194032DE    TVYEV-TV002700430014
BI00B32DE    #TCT2113       202210207158-3120-90             CONNECTOR WIRE SEAL      CCN000100000000100000FN00000000020221101000100000NNM   20220902121357    2C0C  00002000000000136000000194032DE    TVYEV-TV002700430014
BI00B32DE    #TCT2111       202210067158-7584-30             BLOCK LIF                CCN000000800000000800FN00000000020221101000000800NNM   20220902121357    2F0F  00000080000000534500000688532DE    TVYEV-TV005500360039
BI00B32DE    #TCT2113       202210207158-7584-30             BLOCK LIF                CCN000000800000000800FN00000000020221101000000800NNM   20220902121357    2F0F  00000080000000534500000688532DE    TVYEV-TV005500360039
BI00B32DE    #TCT2111       202210067158-7586-30             BLOCK LIF                CCN000004000000004000FN00000000020221101000004000NNM   20220902121357    2F0F  00000080000000617400000844232DE    TVYEV-TV005500360039
BI00B32DE    #TCT2113       202210207158-7586-30             BLOCK LIF                CCN000003200000003200FN00000000020221101000003200NNM   20220902121357    2F0F  00000080000000617400000844232DE    TVYEV-TV005500360039
BI00B32DE    #TCT2111       202210067172-5629-80             RUBBER STOPPER           CCN000040000000040000FN00000000020221101000040000NNM   20220902121357    2H0H  00002000000000060000000111132DE    TVYEV-TV004300270014
BI00B32DE    #TCT2113       202210207172-5629-80             RUBBER STOPPER           CCN000040000000040000FN00000000020221101000040000NNM   20220902121357    2H0H  00002000000000060000000111132DE    TVYEV-TV004300270014
BI00B32DE    #TCT2113       202210207172-5630-40             RUBBER STOPPER           CCN000020000000020000FN00000000020221101000020000NNM   20220902121357    2H0H  00002000000000044000000095132DE    TVYEV-TV004300270014
BI00B32DE    #TCT2113       202210207182-2410                CONNECTOR HOUSING        CCN000001200000001200FN00000000020221101000001200NNM   20220902121357    2F0F  00000120000000959800001245632DE    TVYEV-TV005500360039
BI00B32DE    #TCT2111       202210067183-0520                HOUSING FEMALE           CCN000003000000003000FN00000000020221101000003000NNM   20220902121357    2F0F  00000300000000729000000874032DE    TVYEV-TV005400370024
BI00B32DE    #TCT2111       202210067183-0521                HOUSING                  CCN000004800000004800FN00000000020221101000004800NNM   20220902121357    2F0F  00000480000001367500001585032DE    TVYEV-TV005500360039
BI00B32DE    #TCT2113       202210207183-0521                HOUSING                  CCN000004800000004800FN00000000020221101000004800NNM   20220902121357    2F0F  00000480000001367500001585032DE    TVYEV-TV005500360039
BI00B32DE    #TCT2113       202210207183-0522                HOUSING                  CCN000002400000002400FN00000000020221101000002400NNM   20220902121357    2F0F  00000240000000951000001230032DE    TVYEV-TV005500360039
BI00B32DE    #TCT2111       202210067183-1616-30             CONNECTOR HOUSING        CCN000002400000002400FN00000000020221101000002400NNM   20220902121357    2F0F  00000240000000557500000837132DE    TVYEV-TV005500360039
BI00B32DE    #TCT2113       202210207183-1616-30             CONNECTOR HOUSING        CCN000002400000002400FN00000000020221101000002400NNM   20220902121357    2F0F  00000240000000557500000837132DE    TVYEV-TV005500360039
BI00B32DE    #TCT2111       202210067183-2412                HOUSING                  CCN000001600000001600FN00000000020221101000001600NNM   20220902121357    2F0F  00000160000001059200001245632DE    TVYEV-TV005500360039
BI00B32DE    #TCT2113       202210207183-2412                HOUSING                  CCN000003200000003200FN00000000020221101000003200NNM   20220902121357    2F0F  00000160000001059200001245632DE    TVYEV-TV005500360039
BI00B32DE    #TCT2111       202210067183-2413                CONNECTOR HOUSING        CCN000004800000004800FN00000000020221101000004800NNM   20220902121357    2F0F  00000480000000478100000760032DE    TVYEV-TV005500360039
BI00B32DE    #TCT2111       202210067183-2415-90             CONNECTOR HOUSING        CCN000004800000004800FN00000000020221101000004800NNM   20220902121357    2F0F  00000480000000798200001091432DE    TVYEV-TV005500360039
BI00B32DE    #TCT2113       202210207183-2415-90             CONNECTOR HOUSING        CCN000004800000004800FN00000000020221101000004800NNM   20220902121357    2F0F  00000480000000798200001091432DE    TVYEV-TV005500360039
BI00B32DE    #TCT2111       202210067183-2416-90             HOUSING                  CCN000009600000009600FN00000000020221101000009600NNM   20220902121357    2F0F  00000240000001489700001765832DE    TVYEV-TV005500360039
BI00B32DE    #TCT2113       202210207183-2416-90             HOUSING                  CCN000009600000009600FN00000000020221101000009600NNM   20220902121357    2F0F  00000240000001489700001765832DE    TVYEV-TV005500360039
BI00B32DE    #TCT2111       202210067183-2419                HOUSING                  CCN000004800000004800FN00000000020221101000004800NNM   20220902121357    2F0F  00000480000001065600001352732DE    TVYEV-TV005500360039
BI00B32DE    #TCT2111       202210067183-7725-40             HOUSING                  CCN000012000000012000FN00000000020221101000012000NNM   20220902121357    2F0F  00000600000000840000001040032DE    TVYEV-TV005600390040
BI00B32DE    #TCT2113       202210207183-7725-40             HOUSING                  CCN000012000000012000FN00000000020221101000012000NNM   20220902121357    2F0F  00000600000000840000001040032DE    TVYEV-TV005600390040
BI00B32DE    #TCT2113       202210207187-8856                HOUSING FEMALE           CCN000002000000002000FN00000000020221101000002000NNM   20220902121357    2F0F  00000200000000820000000931532DE    TVYEV-TV005400370024
BI00B32DE    #TCT2113       202210207188-0149                HLC HOUSING MALE         CCN000016200000016200FN00000000020221101000016200NNM   20220902121357    2F0F  00000090000000809100000923832DE    TVYEV-TV005400370024
BI00B32DE    #TCT2111       202210067189-0149                HLC HOUSING FEMALE       CCN000020000000020000FN00000000020221101000020000NNM   20220902121357    2F0F  00000200000000970000001078532DE    TVYEV-TV005400370024
BI00B32DE    #TCT2113       202210207189-0149                HLC HOUSING FEMALE       CCN000028000000028000FN00000000020221101000028000NNM   20220902121357    2F0F  00000200000000970000001078532DE    TVYEV-TV005400370024
BI00B32DE    #TCT2111       202210067189-3031-30             HOUSING FEMALE           CCN000004800000004800FN00000000020221101000004800NNM   20220902121357    2F0F  00000240000000928800001365832DE    TVYEV-TV005500360039
BI00B32DE    #TCT2113       202210207189-3031-30             HOUSING FEMALE           CCN000004800000004800FN00000000020221101000004800NNM   20220902121357    2F0F  00000240000000928800001365832DE    TVYEV-TV005500360039
BI00B32DE    #TCT2113       202210207189-3036                HOUSING FEMALE           CCN000001600000001600FN00000000020221101000001600NNM   20220902121357    2F0F  00000160000000921600001141632DE    TVYEV-TV005500360039
BI00B32DE    #TCT2113       202210207198-4980-30             HOUSING FEMALE           CCN000001200000001200FN00000000020221101000001200NNM   20220902121357    2F0F  00000120000000840000000921032DE    TVYEV-TV005400370024
BI00B32DE    #TCT2111       202210067282-7040-40             HOUSING MALE ASS'Y       CCN000001200000001200FN00000000020221101000001200NNM   20220902121357    2N0N  00000120000000620400000731932DE    TVYEV-TV005400370024
BI00B32DE    #TCT2113       202210207282-7040-40             HOUSING MALE ASS'Y       CCN000001200000001200FN00000000020221101000001200NNM   20220902121357    2N0N  00000120000000620400000731932DE    TVYEV-TV005400370024
BI00B32DE    #TCT2111       202210067283-1065                CONNECTOR                CCN000007500000007500FN00000000020221101000007500NNM   20220902121357    2N0N  00000250000001152500001310432DE    TVYEV-TV005500360039
BI00B32DE    #TCT2113       202210207283-1065                CONNECTOR                CCN000015000000015000FN00000000020221101000015000NNM   20220902121357    2N0N  00000250000001152500001310432DE    TVYEV-TV005500360039
BI00B32DE    #TCT2111       202210067283-1485                CONNECTOR                CCN000002000000002000FN00000000020221101000002000NNM   20220902121357    2N0N  00000200000001160000001340732DE    TVYEV-TV005500360039
BI00B32DE    #TCT2113       202210207283-1485                CONNECTOR                CCN000004000000004000FN00000000020221101000004000NNM   20220902121357    2N0N  00000200000001160000001340732DE    TVYEV-TV005500360039
BI00B32DE    #TCT2111       202210067283-5834                CONNECTOR ASS'Y          CCN000003240000003240FN00000000020221101000003240NNM   20220902121357    2N0N  00000324000001296000001849732DE    TVYEV-TV005600390040
BI00B32DE    #TCT2113       202210207283-5834                CONNECTOR ASS'Y          CCN000006480000006480FN00000000020221101000006480NNM   20220902121357    2N0N  00000324000001296000001849732DE    TVYEV-TV005600390040
BI00B32DE    #TCT2111       202210067283-5834-30             CONNECTOR ASS'Y          CCN000006480000006480FN00000000020221101000006480NNM   20220902121357    2N0N  00000324000001296000001853432DE    TVYEV-TV005600390040
BI00B32DE    #TCT2113       202210207283-5834-30             CONNECTOR ASS'Y          CCN000009720000009720FN00000000020221101000009720NNM   20220902121357    2N0N  00000324000001296000001853432DE    TVYEV-TV005600390040
BI00B32DE    #TCT2111       202210067283-5834-40             CONNECTOR ASS'Y          CCN000003240000003240FN00000000020221101000003240NNM   20220902121357    2N0N  00000324000001296000001854332DE    TVYEV-TV005600390040
BI00B32DE    #TCT2113       202210207283-5834-40             CONNECTOR ASS'Y          CCN000006480000006480FN00000000020221101000006480NNM   20220902121357    2N0N  00000324000001296000001854332DE    TVYEV-TV005600390040
BI00B32DE    #TCT2113       202210207287-1670                HOUSING FEMALE ASS'Y     CCN000002800000002800FN00000000020221101000002800NNM   20220902121357    2N0N  00000280000000953100001145132DE    TVYEV-TV005400370024
BI00B32DE    #TCT2113       202210207287-1671                HOUSING FEMALE ASS'Y     CCN000002000000002000FN00000000020221101000002000NNM   20220902121357    2N0N  00000200000000782600000974632DE    TVYEV-TV005400370024
BI00B32DE    #TCT2113       202210207287-1915                CONNECTOR ASS'Y          CCN000002400000002400FN00000000020221101000002400NNM   20220902121357    2N0N  00000240000000666500000923132DE    TVYEV-TV005500360039
BI00B32DE    #TCT2111       202210067287-1915-90             CONNECTOR ASS'Y          CCN000014400000014400FN00000000020221101000014400NNM   20220902121357    2N0N  00000240000000666500000923132DE    TVYEV-TV005500360039
BI00B32DE    #TCT2113       202210207287-1915-90             CONNECTOR ASS'Y          CCN000016800000016800FN00000000020221101000016800NNM   20220902121357    2N0N  00000240000000666500000923132DE    TVYEV-TV005500360039
BI00B32DE    #TCT2113       202210207289-2913-30             HOUSING FEMALE ASS'Y     CCN000001500000001500FN00000000020221101000001500NNM   20220902121357    2N0N  00000150000000907500001034532DE    TVYEV-TV005400370024
BI00B32DE    #TCT2111       202210067289-2914                HOUSING FEMALE ASS'Y     CCN000001500000001500FN00000000020221101000001500NNM   20220902121357    2N0N  00000150000000906000001033032DE    TVYEV-TV005400370024
BI00B32DE    #TCT2113       202210207289-2914                HOUSING FEMALE ASS'Y     CCN000003000000003000FN00000000020221101000003000NNM   20220902121357    2N0N  00000150000000906000001033032DE    TVYEV-TV005400370024
BI00B32DE    #TCT2111       202210067289-2915-30             HOUSING FEMALE ASS'Y     CCN000003000000003000FN00000000020221101000003000NNM   20220902121357    2N0N  00000150000000964500001091532DE    TVYEV-TV005400370024
BI00B32DE    #TCT2113       202210207289-2915-30             HOUSING FEMALE ASS'Y     CCN000003000000003000FN00000000020221101000003000NNM   20220902121357    2N0N  00000150000000964500001091532DE    TVYEV-TV005400370024
BI00B32DE    #TCT2111       202210067289-2916-30             HOUSING FEMALE ASS'Y     CCN000001000000001000FN00000000020221101000001000NNM   20220902121357    2N0N  00000100000000857000001084032DE    TVYEV-TV005400370024
BI00B32DE    #TCT2113       202210207289-2916-30             HOUSING FEMALE ASS'Y     CCN000003000000003000FN00000000020221101000003000NNM   20220902121357    2N0N  00000100000000857000001084032DE    TVYEV-TV005400370024
BI00B32D9    I24311         202209297017-1180-02             TERMINAL                 CCN000078000000144000FN00000000020221101000144000NNM   20220902142842    4P0P  00007200000001065600001229032D9    UEHESTO 005100280028
BI00B32D9    I24511         202210067017-1180-02             TERMINAL                 CCN000078000000144000FN00000000020221101000144000NNM   20220902142842    4P0P  00007200000001065600001229032D9    UEHESTO 005100280028
BI00B32D9    I24511         202210067017-1182-02             TERMINAL                 CCN000045000000045000FN00000000020221101000045000NNM   20220902142842    4P0P  00004500000001165500001318632D9    UEHESTO 005100280028
BI00B32D9    I24311         202209297114-4100-02             TERMINAL                 CCN000018000000018000FN00000000020221101000018000NNM   20220902142842    4P0P  00001800000000748800001077432D9    UEHESTO 006400630017
BI00B32D9    I24411         202210067114-4100-02             TERMINAL                 CCN000018000000018000FN00000000020221101000018000NNM   20220902142842    4P0P  00001800000000748800001077432D9    UEHESTO 006400630017
BI00B32D9    I24511         202210067114-4100-02             TERMINAL                 CCN000018000000018000FN00000000020221101000018000NNM   20220902142842    4P0P  00001800000000748800001077432D9    UEHESTO 006400630017
BI00B32D9    I24611         202210207114-4100-02             TERMINAL                 CCN000018000000018000FN00000000020221101000018000NNM   20220902142842    4P0P  00001800000000748800001077432D9    UEHESTO 006400630017
BI00B32D9    I24311         202209297114-4101-02             TERMINAL                 CCN000030000000030000FN00000000020221101000030000NNM   20220902142842    4P0P  00001500000000675000001003632D9    UEHESTO 006400630017
BI00B32D9    I24411         202210067114-4101-02             TERMINAL                 CCN000015000000015000FN00000000020221101000015000NNM   20220902142842    4P0P  00001500000000675000001003632D9    UEHESTO 006400630017
BI00B32D9    I24511         202210067114-4101-02             TERMINAL                 CCN000015000000015000FN00000000020221101000015000NNM   20220902142842    4P0P  00001500000000675000001003632D9    UEHESTO 006400630017
BI00B32D9    I24611         202210207114-4101-02             TERMINAL                 CCN000015000000015000FN00000000020221101000015000NNM   20220902142842    4P0P  00001500000000675000001003632D9    UEHESTO 006400630017
BI00B32D9    I24511         202210067114-4111-02             TERMINAL                 CCN000012000000012000FN00000000020221101000012000NNM   20220902142842    4P0P  00001200000000758400001087032D9    UEHESTO 006400630017
BI00B32D9    I24311         202209297114-4231-02             TERMINAL                 CCN000018000000018000FN00000000020221101000018000NNM   20220902142842    4P0P  00001800000000554400000848032D9    UEHESTO 006400630015
BI00B32D9    I24411         202210067114-4231-02             TERMINAL                 CCN000018000000018000FN00000000020221101000018000NNM   20220902142842    4P0P  00001800000000554400000848032D9    UEHESTO 006400630015
BI00B32D9    I24511         202210067114-4231-02             TERMINAL                 CCN000018000000018000FN00000000020221101000018000NNM   20220902142842    4P0P  00001800000000554400000848032D9    UEHESTO 006400630015
BI00B32D9    I24311         202209297114-4486-02             TERMINAL                 CCN000024000000024000FN00000000020221101000024000NNM   20220902142842    4P0P  00002400000000662400000956032D9    UEHESTO 006400630015
BI00B32D9    I24411         202210067114-4624-02             TERMINAL                 CCN000024000000024000FN00000000020221101000024000NNM   20220902142842    4P0P  00002400000000895200001188832D9    UEHESTO 006400630015
BI00B32D9    I24311         202209297114-6041                TERMINAL                 CCN000003600000003600FN00000000020221101000003600NNM   20220902142842    4P0P  00000360000000580700000824232D9    UEHESTO 006400630015
BI00B32D9    I24411         202210067114-6041                TERMINAL                 CCN000007200000007200FN00000000020221101000007200NNM   20220902142842    4P0P  00000360000000580700000824232D9    UEHESTO 006400630015
BI00B32D9    I24511         202210067114-6041                TERMINAL                 CCN000007200000007200FN00000000020221101000007200NNM   20220902142842    4P0P  00000360000000580700000824232D9    UEHESTO 006400630015
BI00B32D9    I24611         202210207114-6041                TERMINAL                 CCN000007200000007200FN00000000020221101000007200NNM   20220902142842    4P0P  00000360000000580700000824232D9    UEHESTO 006400630015
BI00B32D9    I24611         202210207116-1257-02             TERMINAL                 CCN000024000000024000FN00000000020221101000024000NNM   20220902142842    4P0P  00002400000000518400000847132D9    UEHESTO 006400630017
BI00B32D9    I24611         202210207116-4037                TERMINAL                 CCN000006600000012000FN00000000020221101000012000NNM   20220902142842    4P0P  00000600000000600000000894232D9    UEHESTO 006400630015
BI00B32D9    I24311         202209297116-4101-02             TERMINAL                 CCN000024000000024000FN00000000020221101000024000NNM   20220902142842    4P0P  00001200000000582000000876232D9    UEHESTO 006400630015
BI00B32D9    I24411         202210067116-4101-02             TERMINAL                 CCN000012000000012000FN00000000020221101000012000NNM   20220902142842    4P0P  00001200000000582000000876232D9    UEHESTO 006400630015
BI00B32D9    I24511         202210067116-4101-02             TERMINAL                 CCN000012000000012000FN00000000020221101000012000NNM   20220902142842    4P0P  00001200000000582000000876232D9    UEHESTO 006400630015
BI00B32D9    I24611         202210207116-4101-02             TERMINAL                 CCN000012000000012000FN00000000020221101000012000NNM   20220902142842    4P0P  00001200000000582000000876232D9    UEHESTO 006400630015
BI00B32D9    I24311         202209297116-4102-02             TERMINAL                 CCN000036000000036000FN00000000020221101000036000NNM   20220902142842    4P0P  00001200000000553200000841432D9    UEHESTO 006400630015
BI00B32D9    I24411         202210067116-4102-02             TERMINAL                 CCN000036000000036000FN00000000020221101000036000NNM   20220902142842    4P0P  00001200000000553200000841432D9    UEHESTO 006400630015
BI00B32D9    I24511         202210067116-4102-02             TERMINAL                 CCN000036000000036000FN00000000020221101000036000NNM   20220902142842    4P0P  00001200000000553200000841432D9    UEHESTO 006400630015
BI00B32D9    I24611         202210207116-4102-02             TERMINAL                 CCN000036000000036000FN00000000020221101000036000NNM   20220902142842    4P0P  00001200000000553200000841432D9    UEHESTO 006400630015
BI00B32D9    I24311         202209297116-4103-02             TERMINAL                 CCN000024000000024000FN00000000020221101000024000NNM   20220902142842    4P0P  00001200000000571200000859432D9    UEHESTO 006400630015
BI00B32D9    I24411         202210067116-4103-02             TERMINAL                 CCN000024000000024000FN00000000020221101000024000NNM   20220902142842    4P0P  00001200000000571200000859432D9    UEHESTO 006400630015
BI00B32D9    I24511         202210067116-4103-02             TERMINAL                 CCN000024000000024000FN00000000020221101000024000NNM   20220902142842    4P0P  00001200000000571200000859432D9    UEHESTO 006400630015
BI00B32D9    I24611         202210207116-4103-02             TERMINAL                 CCN000024000000024000FN00000000020221101000024000NNM   20220902142842    4P0P  00001200000000571200000859432D9    UEHESTO 006400630015
BI00B32D9    I24311         202209297116-4104-02             TERMINAL                 CCN000012000000012000FN00000000020221101000012000NNM   20220902142842    4P0P  00001200000000580800000972432D9    UEHESTO 006400630015
BI00B32D9    I24611         202210207116-4120-02             TERMINAL                 CCN000006000000006000FN00000000020221101000006000NNM   20220902142842    4P0P  00000600000000780000001073632D9    UEHESTO 006400630015
BI00B32D9    I24311         202209297116-4121-02             TERMINAL                 CCN000018000000018000FN00000000020221101000018000NNM   20220902142842    4P0P  00000450000000618800000912432D9    UEHESTO 006400630015
BI00B32D9    I24411         202210067116-4121-02             TERMINAL                 CCN000018000000018000FN00000000020221101000018000NNM   20220902142842    4P0P  00000450000000618800000912432D9    UEHESTO 006400630015
BI00B32D9    I24511         202210067116-4121-02             TERMINAL                 CCN000018000000018000FN00000000020221101000018000NNM   20220902142842    4P0P  00000450000000618800000912432D9    UEHESTO 006400630015
BI00B32D9    I24611         202210207116-4121-02             TERMINAL                 CCN000018000000018000FN00000000020221101000018000NNM   20220902142842    4P0P  00000450000000618800000912432D9    UEHESTO 006400630015
BI00B32D9    I24311         202209297116-4122-02             TERMINAL                 CCN000036000000036000FN00000000020221101000036000NNM   20220902142842    4P0P  00000450000000656600000950232D9    UEHESTO 006400630015
BI00B32D9    I24411         202210067116-4122-02             TERMINAL                 CCN000036000000036000FN00000000020221101000036000NNM   20220902142842    4P0P  00000450000000656600000950232D9    UEHESTO 006400630015
BI00B32D9    I24511         202210067116-4122-02             TERMINAL                 CCN000036000000036000FN00000000020221101000036000NNM   20220902142842    4P0P  00000450000000656600000950232D9    UEHESTO 006400630015
