AE00TI102209020602/09/202200000001600000000000000008525KGM  00000013088KGM  7116-4032                TERMINAL                 71164032                 0         0         0         0    0    0    00009600000000600000000057000054720000
AE00TI102209020602/09/202200000001400000000000000009573KGM  00000014175KGM  7116-4231-02             TERMINAL                 7116423102               0         0         0         0    0    0    00036400000002600000000022000080080000
AE00TI102209020602/09/202200000001600000000000000009000KGM  00000013563KGM  7126-8853-02             TERMINAL                 7126885302               0         0         0         0    0    0    00012000000000750000000057000068400000
AE00TI102209020602/09/202200000001800000000000000003069KGM  00000003940KGM  7137-3047-30             UNIT PACKING             7137304730               0         0         0         0    0    0    00001800000000100000000189000034020000
AE00TI102209020602/09/202200000000900000000000000002975KGM  00000003474KGM  7158-3006-90             RUBBER STOPPER           7158300690               0         0         0         0    0    0    00018000000002000000000016000028800000
AE00TI102209020602/09/202200000001400000000000000004732KGM  00000005407KGM  7158-3009-60             RUBBER STOPPER           7158300960               0         0         0         0    0    0    00028000000002000000000012000033600000
AE00TI102209020602/09/202200000000200000000000000000248KGM  00000000345KGM  7158-3165-90             WIRE SEAL                7158316590               0         0         0         0    0    0    00008000000004000000000006000004800000
AE00TI102209020602/09/202200000001300000000000000001352KGM  00000001981KGM  7158-3166-60             WIRE SEAL                7158316660               0         0         0         0    0    0    00052000000004000000000004000020800000
AE00TI102209020602/09/202200000001400000000000000000672KGM  00000001526KGM  7158-3167-80             WIRE SEAL                7158316780               0         0         0         0    0    0    00028000000002000000000005000014000000
AE00TI102209020602/09/202200000000200000000000000000088KGM  00000000184KGM  7158-3168-80             SEALED                   7158316880               0         0         0         0    0    0    00004000000002000000000004000001600000
AE00TI102209020602/09/202200000004000000000000000009592KGM  00000019592KGM  7271-1820-30             CASE SUB ASSY,ECU        7271182030               0         0         0         0    0    0    00000072000000001800009576000068947200
AE00TI102209020602/09/202200000001800000000000000023760KGM  00000028260KGM  7470-4481                J/B COMPLETE ASS'Y       74704481                 0         0         0         0    0    0    00000043200000002400000000000000000000
AE00TI102209020602/09/202200000001500000000000000000000KGM  00000000000KGM  7470-5300E               J/B COMPLETE ASS'Y       74705300E                0         0         0         0    0    0    00000015000000001000000000000000000000
AE00TI102209020602/09/202200000001000000000000000000000KGM  00000000000KGM  7470-5783D               J/B COMPLETE ASS'Y       74705783D                0         0         0         0    0    0    00000015000000001500000000000000000000
AE00TI102209020602/09/202200000001500000000000000000000KGM  00000000000KGM  7470-5784D               J/B COMPLETE ASS'Y       74705784D                0         0         0         0    0    0    00000022500000001500000000000000000000
AE00TI102209020602/09/202200000002000000000000000000000KGM  00000000000KGM  7470-5784E               J/B COMPLETE ASS'Y       74705784E                0         0         0         0    0    0    00000020000000001000000000000000000000
AE00TI102209020602/09/202200000001000000000000000000000KGM  00000000000KGM  7470-5784E1              J/B COMPLETE ASS'Y       74705784E1               0         0         0         0    0    0    00000010000000001000000000000000000000
AE00TI102209020602/09/202200000001200000000000000000000KGM  00000000000KGM  7470-5927D               J/B COMPLETE ASS'Y       74705927D                0         0         0         0    0    0    00000018000000001500000000000000000000
AE00TI102209020602/09/202200000000300000000000000000000KGM  00000000000KGM  7470-5936S               J/B COMPLETE ASS'Y       74705936S                0         0         0         0    0    0    00000000300000000100000000000000000000
