BI00B32AF    @TTB2104       20220930181AD2002ZZ              CIVUSAS-S 0.35X2 B       CCN000076500000000000FY00000000020221001000000000NNM10 20220819081208    1W    00000045000001713700000000032AF    HBYHVTB 000000000000UZ229024
BI00B32AF    @TTB2105       20221007181AD2002ZZ              CIVUSAS-S 0.35X2 B       CCN000081000000045000FN00000000020221001000045000NNM10 20220819081229    1W    00000045000001713700000000032AF    HBYHVTB 000000000000UZ329024
BI00B32AF    @TTB2103       20220923181AD2003ZZ              CIVUSAS-S 0.35X3 B       CCN000017500000000000FY00000000020221001000000000NNM10 20220819081345    1W    00000035000002172100000000032AF    HBYHVTB 000000000000UZ129023
BI00B32AF    @TTB2104       20220930181AD2003ZZ              CIVUSAS-S 0.35X3 B       CCN000045500000017500FN00000000020221001000017500NNM10 20220819081403    1W    00000035000002172100000000032AF    HBYHVTB 000000000000UZ229025
BI00B32AF    @TTB2105       20221007181AD2003ZZ              CIVUSAS-S 0.35X3 B       CCN000043750000035000FN00000000020221001000035000NNM10 20220819081424    1W    00000035000002172100000000032AF    HBYHVTB 000000000000UZ329025
BI00B32AF    @TTB2103       20220923181AD2008ZZ              CIVUSAS-S 0.5X2 B        CCN000052000000012000FN00000000020221001000012000NNM10 20220819081448    1W    00000040000002028000000000032AF    HBYHVTB 000000000000UZ129021
BI00B32GE    DHTW2246       2022092218000004530              AV 8 B                   CCN000005000000005000FN00000000020221101000005000NNE   20220819144344    1W    00000010000010466200000000032GE    GEYKHT  000000000000RA129061
BI00B32GE    DHTW2246       2022092218000004534              AV 8 B/W                 CCN000003400000003400FN00000000020221101000003400NNE   20220819144344    1W    00000010000010466200000000032GE    GEYKHT  000000000000RA129063
BI00B32GE    DHTW2246       2022092218000004535              AV 8 B/R                 CCN000006200000006200FN00000000020221101000006200NNE   20220819144344    1W    00000010000010466200000000032GE    GEYKHT  000000000000RA129062
BI00B32GE    DHTW2246       2022092218000004540              AV 8 W                   CCN000001600000001600FN00000000020221101000001600NNE   20220819144344    1W    00000010000010466200000000032GE    GEYKHT  000000000000RA129065
BI00B32GE    DHTW2246       2022092218000004543              AV 8 W/B                 CCN000007600000007600FN00000000020221101000007600NNE   20220819144344    1W    00000010000010466200000000032GE    GEYKHT  000000000000RA129066
BI00B32GE    DHTW2246       2022092218000004550              AV 8 R                   CCN000000800000000800FN00000000020221101000000800NNE   20220819144344    1W    00000010000010466200000000032GE    GEYKHT  000000000000RA129064
BI00B32GE    @DHTW2246      20220922181AD2002ZZ              CIVUSAS-S 0.35X2 B       CCN000018900000018900FN00000000020221101000018900NNE   20220819144343    1W    00000045000001713700000000032GE    GEYKHT  000000000000RA129032
BI00B32GE    @DHTW2246      20220922181AD2003ZZ              CIVUSAS-S 0.35X3 B       CCN000007500000007700FN00000000020221101000007700NNE   20220819144343    1W    00000035000002172100000000032GE    GEYKHT  000000000000RA129033
BI00B32GE    @DHTW2246      20220922181AD2004ZZ              CIVUSAS-S 0.35X4 B       CCN000024800000024900FN00000000020221101000024900NNE   20220819144343    1W    00000030000002799900000000032GE    GEYKHT  000000000000RA129034
BI00B32GE    @DHTW2246      20220922181E48031ZZ              CAVSAS-S 0.3X2 GY        CCN000008400000008400FN00000000020221101000008400NNE   20220819144343    1W    00000035000002008700000000032GE    GEYKHT  000000000000RA129035
BI00B32GE    @DHTW2246      20220922181E48037ZZ              CAVSAS-S 0.3X4 GY        CCN000008000000008000FN00000000020221101000008000NNE   20220819144343    1W    00000025000003262000000000032GE    GEYKHT  000000000000RA129037
BI00B32GE    @DHTW2246      20220922181E48041ZZ              CAVSAS-S 0.3X2 GY/R      CCN000010150000010150FN00000000020221101000010150NNE   20220819144343    1W    00000035000002008700000000032GE    GEYKHT  000000000000RA129036
BI00B32GE    @DHTW2246      20220922181E50002ZZ              AVSSCS-S 0.3FX2 DGY/G    CCN000009450000009450FN00000000020221101000009450NNE   20220819144343    1W    00000035000002165000000000032GE    GEYKHT  000000000000RA129044
BI00B32GE    @DHTW2246      20220922181E50004ZZ              AVSSCS-S 0.5FX1 DGY      CCN000012800000012800FN00000000020221101000012800NNE   20220819144343    1W    00000040000001909700000000032GE    GEYKHT  000000000000RA129038
BI00B32GE    @DHTW2246      20220922181E50005ZZ              AVSSCS-S 0.5FX1 DGY/W    CCN000005200000005200FN00000000020221101000005200NNE   20220819144343    1W    00000040000001909700000000032GE    GEYKHT  000000000000RA129040
BI00B32GE    @DHTW2246      20220922181E50006ZZ              AVSSCS-S 0.5FX1 DGY/Y    CCN000001600000001600FN00000000020221101000001600NNE   20220819144343    1W    00000040000001909700000000032GE    GEYKHT  000000000000RA129041
BI00B32GE    @DHTW2246      20220922181E50007ZZ              AVSSCS-S 0.5FX1 DGY/L    CCN000008000000008000FN00000000020221101000008000NNE   20220819144343    1W    00000040000001909700000000032GE    GEYKHT  000000000000RA129039
BI00B32GE    @DHTW2246      20220922181E50016ZZ              AVSSCS-S 0.5FX2 DGY/R    CCN000001500000001500FN00000000020221101000001500NNE   20220819144343    1W    00000030000003096000000000032GE    GEYKHT  000000000000RA129042
BI00B32GE    @DHTW2246      20220922181E50020ZZ              AVSSCS-S 0.3FX2 DGY/R    CCN000006650000006650FN00000000020221101000006650NNE   20220819144343    1W    00000035000002165000000000032GE    GEYKHT  000000000000RA129046
BI00B32GE    @DHTW2246      20220922181E50021ZZ              AVSSCS-S 0.3FX2 DGY/P    CCN000007350000007350FN00000000020221101000007350NNE   20220819144343    1W    00000035000002165000000000032GE    GEYKHT  000000000000RA129045
BI00B32GE    @DHTW2246      20220922181E50036ZZ              AVSSCS-S 0.3FX2 DGY      CCN000009800000009800FN00000000020221101000009800NNE   20220819144343    1W    00000035000002165000000000032GE    GEYKHT  000000000000RA129043
BI00B32GE    @DHTW2246      20220922181F21014ZZ              AVSSHCS-S 0.5FX2 B/L     CCN000002400000002400FN00000000020221101000002400NNE   20220819144343    1W    00000030000002531400000000032GE    GEYKHT  000000000000RA129047
BI00B32J1    @397486        20220912181AD2001ZZ              CIVUSAS-S 0.35X1 B       CCN000068200000068200FN00000000020220901000068200NNM   20220819142415    1W    00000055000001540800000000032J1    UKYEL-BL000000000000KG528001
BI00B32J1    @397486        20220912181AD2002ZZ              CIVUSAS-S 0.35X2 B       CCN000000450000000450FN00000000020220901000000450NNM   20220819142415    1W    00000045000001713700000000032J1    UKYEL-BL000000000000KG528003
BI00B32J1    @397486        20220912181AD2009ZZ              CIVUSAS-S 0.5X3 B        CCN000000300000000300FN00000000020220901000000300NNM   20220819142415    1W    00000030000002716800000000032J1    UKYEL-BL000000000000KG528002
BI00B32N1    NST2121C-1     20220908180D0204161              AVSSH 1.25F LG           CCN000000800000000800FN00000000020200801000000800NNE   20220819144146    1W    00000080000001458000000000032N1    TAYIPL  000000000000XR428002
BI00B32N1    NST2121C-1     20220908180D0204190              AVSSH 1.25F L            CCN000000800000000800FN00000000020200801000000800NNE   20220819144146    1W    00000080000001458000000000032N1    TAYIPL  000000000000XR428001
BI00A32P8    POTA-2208A     202208221801W004140              IVSSH 1.25F W            CCN000000800000000800FN00000000020220801000000800NNE   20220819132143    1W    00000080000001405000000000032P8    YIYTM   000000000000YD228001
BI00A32P8    POTA-2208A     202208221801W004291              IVSSH 2F SB              CCN000000550000000550FN00000000020220801000000550NNE   20220819132143    1W    00000055000002091100000000032P8    YIYTM   000000000000YD228002
BI00A32P8    POTA-2208A     202208221801W004343              IVSSH 3 W/B              CCN000000350000000350FN00000000020220801000000350NNE   20220819132143    1W    00000035000003173100000000032P8    YIYTM   000000000000YD228003
BI00B32W4    4500199011     2022090618001403960              AV 0.5F G                CCN000001000000001000FN00000000020220901000001000NNE   20220819143417W41 1W    00000100000000903000000000032W41   HJYHK-J 000000000000OP428001
BI00B32W4    4500199011     2022090618001403964              AV 0.5F G/W              CCN000002000000002000FN00000000020220901000002000NNE   20220819143417W41 1W    00000100000000903000000000032W41   HJYHK-J 000000000000OP428002
BI00T32W4    4500198835     202210251801R703943              CIVUS 0.5 W/B            CCN000211200000211200FN00000000020221001000211200NNE   20220819145756W4K81W    00000220000000525000000000032W4K8  HJYHK-J 000000000000OH22A033
BI00T32W4    4500198835     202210251801R703961              CIVUS 0.5 LG             CCN000110000000110000FN00000000020221001000110000NNE   20220819145756W4K81W    00000220000000525000000000032W4K8  HJYHK-J 000000000000OH22A027
BI00T32W4    4500198835     202210251801R703980              CIVUS 0.5 BR             CCN000110000000110000FN00000000020221001000110000NNE   20220819145756W4K81W    00000220000000525000000000032W4K8  HJYHK-J 000000000000OH22A023
BI00T32W4    4500198835     202210251801R704130              CIVUS 1.25 B             CCN000045000000045000FN00000000020221001000045000NNE   20220819145756W4K81W    00000100000001228000000000032W4K8  HJYHK-J 000000000000OH22A038
BI00T32W4    4500198835     202210251801R704143              CIVUS 1.25 W/B           CCN000045000000045000FN00000000020221001000045000NNE   20220819145756W4K81W    00000100000001228000000000032W4K8  HJYHK-J 000000000000OH22A048
BI00T32W4    4500198835     2022102518018404130              CAVS 1.25 B              CCN000041600000041600FN00000000020221001000041600NNE   20220819145756W4K81W    00000080000001378000000000032W4K8  HJYHK-J 000000000000OH22A101
BI00T32W4    4500198835     2022102518018404141              CAVS 1.25 GY             CCN000039200000039200FN00000000020221001000039200NNE   20220819145756W4K81W    00000080000001378000000000032W4K8  HJYHK-J 000000000000OH22A102
BI00T32W4    4500198835     2022102518018404143              CAVS 1.25 W/B            CCN000039200000039200FN00000000020221001000039200NNE   20220819145756W4K81W    00000080000001378000000000032W4K8  HJYHK-J 000000000000OH22A108
BI00T32W4    4500198835     202210251801R706940              CIVUS 0.35 W             CCN000129000000129000FN00000000020221001000129000NNE   20220819145756W4K81W    00000300000000386000000000032W4K8  HJYHK-J 000000000000OH22A060
BI00T32W4    4500198835     2022102518018403961              CAVS 0.5 LG              CCN000073500000073500FN00000000020221001000073500NNE   20220819145756W4K81W    00000150000000677000000000032W4K8  HJYHK-J 000000000000OH22A087
BI00T32W4    4500198835     202210251801R706973              CIVUS 0.35 Y/B           CCN000111000000111000FN00000000020221001000111000NNE   20220819145756W4K81W    00000300000000386000000000032W4K8  HJYHK-J 000000000000OH22A063
BI00T32W4    4500198835     202210251801R706990              CIVUS 0.35 L             CCN000111000000111000FN00000000020221001000111000NNE   20220819145756W4K81W    00000300000000386000000000032W4K8  HJYHK-J 000000000000OH22A054
BI00T32W4    4500198835     2022102518018404146              CAVS 1.25 W/G            CCN000030400000030400FN00000000020221001000030400NNE   20220819145756W4K81W    00000080000001378000000000032W4K8  HJYHK-J 000000000000OH22A109
BI00T32W4    4500198835     202210251801R706941              CIVUS 0.35 GY            CCN000102000000102000FN00000000020221001000102000NNE   20220819145756W4K81W    00000300000000386000000000032W4K8  HJYHK-J 000000000000OH22A053
BI00T32W4    4500198835     2022102518018403991              CAVS 0.5 SB              CCN000063000000063000FN00000000020221001000063000NNE   20220819145756W4K81W    00000150000000677000000000032W4K8  HJYHK-J 000000000000OH22A091
BI00T32W4    4500198835     2022102518018403930              CAVS 0.5 B               CCN000063000000063000FN00000000020221001000063000NNE   20220819145756W4K81W    00000150000000677000000000032W4K8  HJYHK-J 000000000000OH22A078
BI00T32W4    4500198835     202210251801R706980              CIVUS 0.35 BR            CCN000093000000093000FN00000000020221001000093000NNE   20220819145756W4K81W    00000300000000386000000000032W4K8  HJYHK-J 000000000000OH22A051
BI00T32W4    4500198835     202210251801R703930              CIVUS 0.5 B              CCN000059400000059400FN00000000020221001000059400NNE   20220819145756W4K81W    00000220000000525000000000032W4K8  HJYHK-J 000000000000OH22A021
BI00T32W4    4500198835     202210251801R706960              CIVUS 0.35 G             CCN000084000000084000FN00000000020221001000084000NNE   20220819145756W4K81W    00000300000000386000000000032W4K8  HJYHK-J 000000000000OH22A052
BI00T32W4    4500198835     2022102518018403941              CAVS 0.5 GY              CCN000052500000052500FN00000000020221001000052500NNE   20220819145756W4K81W    00000150000000677000000000032W4K8  HJYHK-J 000000000000OH22A083
BI00T32W4    4500198835     202210251801R703991              CIVUS 0.5 SB             CCN000057200000057200FN00000000020221001000057200NNE   20220819145756W4K81W    00000220000000525000000000032W4K8  HJYHK-J 000000000000OH22A030
BI00T32W4    4500198835     2022102518018404192              CAVS 1.25 V              CCN000023200000023200FN00000000020221001000023200NNE   20220819145756W4K81W    00000080000001378000000000032W4K8  HJYHK-J 000000000000OH22A106
BI00T32W4    4500198835     202210251801R706930              CIVUS 0.35 B             CCN000078000000078000FN00000000020221001000078000NNE   20220819145756W4K81W    00000300000000386000000000032W4K8  HJYHK-J 000000000000OH22A049
BI00T32W4    4500198835     2022102518018403970              CAVS 0.5 Y               CCN000048000000048000FN00000000020221001000048000NNE   20220819145756W4K81W    00000150000000677000000000032W4K8  HJYHK-J 000000000000OH22A095
BI00T32W4    4500198835     2022102518018403943              CAVS 0.5 W/B             CCN000048000000048000FN00000000020221001000048000NNE   20220819145756W4K81W    00000150000000677000000000032W4K8  HJYHK-J 000000000000OH22A094
BI00T32W4    4500198835     2022102518018403960              CAVS 0.5 G               CCN000046500000046500FN00000000020221001000046500NNE   20220819145756W4K81W    00000150000000677000000000032W4K8  HJYHK-J 000000000000OH22A081
BI00T32W4    4500198835     202210251801R706991              CIVUS 0.35 SB            CCN000069000000069000FN00000000020221001000069000NNE   20220819145756W4K81W    00000300000000386000000000032W4K8  HJYHK-J 000000000000OH22A058
BI00T32W4    4500198835     2022102518018403952              CAVS 0.5 P               CCN000043500000043500FN00000000020221001000043500NNE   20220819145756W4K81W    00000150000000677000000000032W4K8  HJYHK-J 000000000000OH22A088
BI00T32W4    4500198835     2022102518018403990              CAVS 0.5 L               CCN000043500000043500FN00000000020221001000043500NNE   20220819145756W4K81W    00000150000000677000000000032W4K8  HJYHK-J 000000000000OH22A084
BI00T32W4    4500198835     2022102518007704243              AVSS 2F W/B              CCN000012500000012500FN00000000020221001000012500NNE   20220819145756W4K81W    00000050000002126400000000032W4K8  HJYHK-J 000000000000OH22A020
BI00T32W4    4500198835     202210251801R703941              CIVUS 0.5 GY             CCN000046200000046200FN00000000020221001000046200NNE   20220819145756W4K81W    00000220000000525000000000032W4K8  HJYHK-J 000000000000OH22A025
BI00T32W4    4500198835     202210251801R70695U              CIVUS 0.35 BE            CCN000063000000063000FN00000000020221001000063000NNE   20220819145756W4K81W    00000300000000386000000000032W4K8  HJYHK-J 000000000000OH22A050
BI00T32W4    4500198835     2022102518018404152              CAVS 1.25 P              CCN000018400000018400FN00000000020221001000018400NNE   20220819145756W4K81W    00000080000001378000000000032W4K8  HJYHK-J 000000000000OH22A104
BI00T32W4    4500198835     2022102518018404145              CAVS 1.25 W/R            CCN000018400000018400FN00000000020221001000018400NNE   20220819145756W4K81W    00000080000001378000000000032W4K8  HJYHK-J 000000000000OH22A110
BI00T32W4    4500198835     202210251801R703940              CIVUS 0.5 W              CCN000044000000044000FN00000000020221001000044000NNE   20220819145756W4K81W    00000220000000525000000000032W4K8  HJYHK-J 000000000000OH22A032
BI00T32W4    4500198835     202210251801R704140              CIVUS 1.25 W             CCN000018000000018000FN00000000020221001000018000NNE   20220819145756W4K81W    00000100000001228000000000032W4K8  HJYHK-J 000000000000OH22A047
BI00T32W4    4500198835     2022102518018403940              CAVS 0.5 W               CCN000037500000037500FN00000000020221001000037500NNE   20220819145756W4K81W    00000150000000677000000000032W4K8  HJYHK-J 000000000000OH22A093
BI00T32W4    4500198835     2022102518007704230              AVSS 2F B                CCN000011000000011000FN00000000020221001000011000NNE   20220819145756W4K81W    00000050000002126400000000032W4K8  HJYHK-J 000000000000OH22A015
BI00T32W4    4500198835     202210251801R706952              CIVUS 0.35 P             CCN000057000000057000FN00000000020221001000057000NNE   20220819145756W4K81W    00000300000000386000000000032W4K8  HJYHK-J 000000000000OH22A056
BI00T32W4    4500198835     202210251801R703990              CIVUS 0.5 L              CCN000039600000039600FN00000000020221001000039600NNE   20220819145756W4K81W    00000220000000525000000000032W4K8  HJYHK-J 000000000000OH22A026
BI00T32W4    4500198835     202210251801R70395U              CIVUS 0.5 BE             CCN000039600000039600FN00000000020221001000039600NNE   20220819145756W4K81W    00000220000000525000000000032W4K8  HJYHK-J 000000000000OH22A022
BI00T32W4    4500198835     202210251801R706992              CIVUS 0.35 V             CCN000051000000051000FN00000000020221001000051000NNE   20220819145756W4K81W    00000300000000386000000000032W4K8  HJYHK-J 000000000000OH22A059
BI00T32W4    4500198835     202210251801R704180              CIVUS 1.25 BR            CCN000015000000015000FN00000000020221001000015000NNE   20220819145756W4K81W    00000100000001228000000000032W4K8  HJYHK-J 000000000000OH22A040
BI00T32W4    4500198835     202210251801R704161              CIVUS 1.25 LG            CCN000015000000015000FN00000000020221001000015000NNE   20220819145756W4K81W    00000100000001228000000000032W4K8  HJYHK-J 000000000000OH22A042
BI00T32W4    4500198835     202210251801R70415U              CIVUS 1.25 BE            CCN000015000000015000FN00000000020221001000015000NNE   20220819145756W4K81W    00000100000001228000000000032W4K8  HJYHK-J 000000000000OH22A039
BI00T32W4    4500198835     2022102518007704260              AVSS 2F G                CCN000009000000009000FN00000000020221001000009000NNE   20220819145756W4K81W    00000050000002126400000000032W4K8  HJYHK-J 000000000000OH22A017
BI00T32W4    4500198835     2022102518007704240              AVSS 2F W                CCN000009000000009000FN00000000020221001000009000NNE   20220819145756W4K81W    00000050000002126400000000032W4K8  HJYHK-J 000000000000OH22A019
BI00T32W4    4500198835     2022102518018404140              CAVS 1.25 W              CCN000013600000013600FN00000000020221001000013600NNE   20220819145756W4K81W    00000080000001378000000000032W4K8  HJYHK-J 000000000000OH22A107
BI00T32W4    4500198835     2022102518007704290              AVSS 2F L                CCN000008000000008000FN00000000020221001000008000NNE   20220819145756W4K81W    00000050000002126400000000032W4K8  HJYHK-J 000000000000OH22A018
BI00T32W4    4500198835     202210251801R706943              CIVUS 0.35 W/B           CCN000042000000042000FN00000000020221001000042000NNE   20220819145756W4K81W    00000300000000386000000000032W4K8  HJYHK-J 000000000000OH22A061
BI00T32W4    4500198835     2022102518018404150              CAVS 1.25 R              CCN000012000000012000FN00000000020221001000012000NNE   20220819145756W4K81W    00000080000001378000000000032W4K8  HJYHK-J 000000000000OH22A105
BI00T32W4    4500198835     2022102518018404090              CAVS 0.85 L              CCN000017000000017000FN00000000020221001000017000NNE   20220819145756W4K81W    00000100000000965000000000032W4K8  HJYHK-J 000000000000OH22A096
BI00T32W4    4500198835     2022102518018403954              CAVS 0.5 R/W             CCN000025500000025500FN00000000020221001000025500NNE   20220819145756W4K81W    00000150000000677000000000032W4K8  HJYHK-J 000000000000OH22A090
BI00T32W4    4500198835     202210251801R703952              CIVUS 0.5 P              CCN000026400000026400FN00000000020221001000026400NNE   20220819145756W4K81W    00000220000000525000000000032W4K8  HJYHK-J 000000000000OH22A028
BI00T32W4    4500198835     2022102518018403992              CAVS 0.5 V               CCN000024000000024000FN00000000020221001000024000NNE   20220819145756W4K81W    00000150000000677000000000032W4K8  HJYHK-J 000000000000OH22A092
BI00T32W4    4500198835     202210251801R704061              CIVUS 0.75 LG            CCN000018000000018000FN00000000020221001000018000NNE   20220819145756W4K81W    00000150000000765000000000032W4K8  HJYHK-J 000000000000OH22A036
BI00T32W4    4500198835     2022102518018403934              CAVS 0.5 B/W             CCN000022500000022500FN00000000020221001000022500NNE   20220819145756W4K81W    00000150000000677000000000032W4K8  HJYHK-J 000000000000OH22A079
BI00T32W4    4500198835     2022102518018403790              CAVS 0.3 L               CCN000032000000032000FN00000000020221001000032000NNE   20220819145756W4K81W    00000200000000471000000000032W4K8  HJYHK-J 000000000000OH22A068
BI00T32W4    4500198835     202210251801R704150              CIVUS 1.25 R             CCN000010000000010000FN00000000020221001000010000NNE   20220819145756W4K81W    00000100000001228000000000032W4K8  HJYHK-J 000000000000OH22A044
BI00T32W4    4500198835     202210251801R704191              CIVUS 1.25 SB            CCN000009000000009000FN00000000020221001000009000NNE   20220819145756W4K81W    00000100000001228000000000032W4K8  HJYHK-J 000000000000OH22A045
BI00T32W4    4500198835     202210251801R703960              CIVUS 0.5 G              CCN000019800000019800FN00000000020221001000019800NNE   20220819145756W4K81W    00000220000000525000000000032W4K8  HJYHK-J 000000000000OH22A024
BI00T32W4    4500198835     202210251801R704192              CIVUS 1.25 V             CCN000008000000008000FN00000000020221001000008000NNE   20220819145756W4K81W    00000100000001228000000000032W4K8  HJYHK-J 000000000000OH22A046
BI00T32W4    4500198835     2022102518018403980              CAVS 0.5 BR              CCN000016500000016500FN00000000020221001000016500NNE   20220819145756W4K81W    00000150000000677000000000032W4K8  HJYHK-J 000000000000OH22A080
BI00T32W4    4500198835     2022102518018403760              CAVS 0.3 G               CCN000024000000024000FN00000000020221001000024000NNE   20220819145756W4K81W    00000200000000471000000000032W4K8  HJYHK-J 000000000000OH22A066
BI00T32W4    4500198835     2022102518018404061              CAVS 0.85 LG             CCN000010000000010000FN00000000020221001000010000NNE   20220819145756W4K81W    00000100000000965000000000032W4K8  HJYHK-J 000000000000OH22A097
BI00T32W4    4500198835     2022102518018404092              CAVS 0.85 V              CCN000010000000010000FN00000000020221001000010000NNE   20220819145756W4K81W    00000100000000965000000000032W4K8  HJYHK-J 000000000000OH22A099
BI00T32W4    4500198835     2022102518018403730              CAVS 0.3 B               CCN000022000000022000FN00000000020221001000022000NNE   20220819145756W4K81W    00000200000000471000000000032W4K8  HJYHK-J 000000000000OH22A064
BI00T32W4    4500198835     2022102518018403740              CAVS 0.3 W               CCN000022000000022000FN00000000020221001000022000NNE   20220819145756W4K81W    00000200000000471000000000032W4K8  HJYHK-J 000000000000OH22A075
BI00T32W4    4500198835     2022102518018403950              CAVS 0.5 R               CCN000015000000015000FN00000000020221001000015000NNE   20220819145756W4K81W    00000150000000677000000000032W4K8  HJYHK-J 000000000000OH22A089
BI00T32W4    4500198835     202210251801R704030              CIVUS 0.75 B             CCN000009000000009000FN00000000020221001000009000NNE   20220819145756W4K81W    00000150000000765000000000032W4K8  HJYHK-J 000000000000OH22A034
BI00T32W4    4500198835     2022102518018404161              CAVS 1.25 LG             CCN000006400000006400FN00000000020221001000006400NNE   20220819145756W4K81W    00000080000001378000000000032W4K8  HJYHK-J 000000000000OH22A103
BI00T32W4    4500198835     2022102518018403741              CAVS 0.3 GY              CCN000020000000020000FN00000000020221001000020000NNE   20220819145756W4K81W    00000200000000471000000000032W4K8  HJYHK-J 000000000000OH22A067
BI00T32W4    4500198835     2022102518018403995              CAVS 0.5 L/R             CCN000013500000013500FN00000000020221001000013500NNE   20220819145756W4K81W    00000150000000677000000000032W4K8  HJYHK-J 000000000000OH22A085
BI00T32W4    4500198835     202210251801R704190              CIVUS 1.25 L             CCN000006000000006000FN00000000020221001000006000NNE   20220819145756W4K81W    00000100000001228000000000032W4K8  HJYHK-J 000000000000OH22A041
BI00T32W4    4500198835     2022102518018403707              CAVS 0.3 P/B             CCN000018000000018000FN00000000020221001000018000NNE   20220819145756W4K81W    00000200000000471000000000032W4K8  HJYHK-J 000000000000OH22A070
BI00T32W4    4500198835     2022102518018403750              CAVS 0.3 R               CCN000018000000018000FN00000000020221001000018000NNE   20220819145756W4K81W    00000200000000471000000000032W4K8  HJYHK-J 000000000000OH22A072
BI00T32W4    4500198835     2022102518018404043              CAVS 0.85 W/B            CCN000008000000008000FN00000000020221001000008000NNE   20220819145756W4K81W    00000100000000965000000000032W4K8  HJYHK-J 000000000000OH22A100
BI00T32W4    4500198835     2022102518018404052              CAVS 0.85 P              CCN000008000000008000FN00000000020221001000008000NNE   20220819145756W4K81W    00000100000000965000000000032W4K8  HJYHK-J 000000000000OH22A098
BI00T32W4    4500198835     202210251801R703992              CIVUS 0.5 V              CCN000013200000013200FN00000000020221001000013200NNE   20220819145756W4K81W    00000220000000525000000000032W4K8  HJYHK-J 000000000000OH22A031
BI00T32W4    4500198835     2022102518018403964              CAVS 0.5 G/W             CCN000012000000012000FN00000000020221001000012000NNE   20220819145756W4K81W    00000150000000677000000000032W4K8  HJYHK-J 000000000000OH22A082
BI00T32W4    4500198835     202210251801R706950              CIVUS 0.35 R             CCN000018000000018000FN00000000020221001000018000NNE   20220819145756W4K81W    00000300000000386000000000032W4K8  HJYHK-J 000000000000OH22A057
BI00T32W4    4500198835     202210251801R706961              CIVUS 0.35 LG            CCN000015000000015000FN00000000020221001000015000NNE   20220819145756W4K81W    00000300000000386000000000032W4K8  HJYHK-J 000000000000OH22A055
BI00T32W4    4500198835     20221025180T8403970              ACCAVS 0.5 Y             CCN000009000000009000FN00000000020221001000009000NNE   20220819145756W4K81W    00000150000000674300000000032W4K8  HJYHK-J 000000000000OH22A003
BI00T32W4    4500198835     20221025180T8403973              ACCAVS 0.5 Y/B           CCN000009000000009000FN00000000020221001000009000NNE   20220819145756W4K81W    00000150000000674300000000032W4K8  HJYHK-J 000000000000OH22A004
BI00T32W4    4500198835     2022102518007704195              AVSS 1.25F L/R           CCN000004000000004000FN00000000020221001000004000NNE   20220819145756W4K81W    00000080000001389000000000032W4K8  HJYHK-J 000000000000OH22A013
BI00T32W4    4500198835     2022102518018403792              CAVS 0.3 V               CCN000012000000012000FN00000000020221001000012000NNE   20220819145756W4K81W    00000200000000471000000000032W4K8  HJYHK-J 000000000000OH22A074
BI00T32W4    4500198835     202210251801R704052              CIVUS 0.75 P             CCN000006000000006000FN00000000020221001000006000NNE   20220819145756W4K81W    00000150000000765000000000032W4K8  HJYHK-J 000000000000OH22A037
BI00T32W4    4500198835     2022102518007704194              AVSS 1.25F L/W           CCN000003200000003200FN00000000020221001000003200NNE   20220819145756W4K81W    00000080000001389000000000032W4K8  HJYHK-J 000000000000OH22A014
BI00T32W4    4500198835     2022102518018403734              CAVS 0.3 B/W             CCN000010000000010000FN00000000020221001000010000NNE   20220819145756W4K81W    00000200000000471000000000032W4K8  HJYHK-J 000000000000OH22A065
BI00T32W4    4500198835     2022102518018403749              CAVS 0.3 W/L             CCN000010000000010000FN00000000020221001000010000NNE   20220819145756W4K81W    00000200000000471000000000032W4K8  HJYHK-J 000000000000OH22A077
BI00T32W4    4500198835     2022102518007703930              AVSS 0.5F B              CCN000006000000006000FN00000000020221001000006000NNE   20220819145756W4K81W    00000150000000674000000000032W4K8  HJYHK-J 000000000000OH22A005
BI00T32W4    4500198835     202210251801R703950              CIVUS 0.5 R              CCN000006600000006600FN00000000020221001000006600NNE   20220819145756W4K81W    00000220000000525000000000032W4K8  HJYHK-J 000000000000OH22A029
BI00T32W4    4500198835     2022102518007704287              AVSS 2F BR/Y             CCN000001500000001500FN00000000020221001000001500NNE   20220819145756W4K81W    00000050000002126400000000032W4K8  HJYHK-J 000000000000OH22A016
BI00T32W4    4500198835     2022102518007703967              AVSS 0.5F G/Y            CCN000004500000004500FN00000000020221001000004500NNE   20220819145756W4K81W    00000150000000674000000000032W4K8  HJYHK-J 000000000000OH22A008
BI00T32W4    4500198835     2022102518007703965              AVSS 0.5F G/R            CCN000004500000004500FN00000000020221001000004500NNE   20220819145756W4K81W    00000150000000674000000000032W4K8  HJYHK-J 000000000000OH22A007
BI00T32W4    4500198835     202210251801R704152              CIVUS 1.25 P             CCN000002000000002000FN00000000020221001000002000NNE   20220819145756W4K81W    00000100000001228000000000032W4K8  HJYHK-J 000000000000OH22A043
BI00T32W4    4500198835     20221025180184037H2              CAVS 0.3 P/G             CCN000006000000006000FN00000000020221001000006000NNE   20220819145756W4K81W    00000200000000471000000000032W4K8  HJYHK-J 000000000000OH22A071
BI00T32W4    4500198835     202210251801R704080              CIVUS 0.75 BR            CCN000003000000003000FN00000000020221001000003000NNE   20220819145756W4K81W    00000150000000765000000000032W4K8  HJYHK-J 000000000000OH22A035
BI00T32W4    4500198835     2022102518007704187              AVSS 1.25F BR/Y          CCN000001600000001600FN00000000020221001000001600NNE   20220819145756W4K81W    00000080000001389000000000032W4K8  HJYHK-J 000000000000OH22A012
BI00T32W4    4500198835     2022102518007703963              AVSS 0.5F G/B            CCN000003000000003000FN00000000020221001000003000NNE   20220819145756W4K81W    00000150000000674000000000032W4K8  HJYHK-J 000000000000OH22A006
BI00T32W4    4500198835     2022102518018403743              CAVS 0.3 W/B             CCN000004000000004000FN00000000020221001000004000NNE   20220819145756W4K81W    00000200000000471000000000032W4K8  HJYHK-J 000000000000OH22A076
BI00T32W4    4500198835     2022102518018403791              CAVS 0.3 SB              CCN000004000000004000FN00000000020221001000004000NNE   20220819145756W4K81W    00000200000000471000000000032W4K8  HJYHK-J 000000000000OH22A073
BI00T32W4    4500198835     2022102518018403994              CAVS 0.5 L/W             CCN000003000000003000FN00000000020221001000003000NNE   20220819145756W4K81W    00000150000000677000000000032W4K8  HJYHK-J 000000000000OH22A086
BI00T32W4    4500198835     202210251801R706970              CIVUS 0.35 Y             CCN000003000000003000FN00000000020221001000003000NNE   20220819145756W4K81W    00000300000000386000000000032W4K8  HJYHK-J 000000000000OH22A062
BI00T32W4    4500198835     2022102518007703941              AVSS 0.5F GY             CCN000001500000001500FN00000000020221001000001500NNE   20220819145756W4K81W    00000150000000674000000000032W4K8  HJYHK-J 000000000000OH22A009
BI00T32W4    4500198835     2022102518007703956              AVSS 0.5F R/G            CCN000001500000001500FN00000000020221001000001500NNE   20220819145756W4K81W    00000150000000674000000000032W4K8  HJYHK-J 000000000000OH22A011
BI00T32W4    4500198835     2022102518007703951              AVSS 0.5F O              CCN000001500000001500FN00000000020221001000001500NNE   20220819145756W4K81W    00000150000000674000000000032W4K8  HJYHK-J 000000000000OH22A010
BI00T32W4    4500198835     2022102518018403761              CAVS 0.3 LG              CCN000002000000002000FN00000000020221001000002000NNE   20220819145756W4K81W    00000200000000471000000000032W4K8  HJYHK-J 000000000000OH22A069
BI00T32W4    @4500198835    20221025181B32116Z6              AVSSCS 0.3FX2 DGY/V      CCN000019950000019950FN00000000020221001000019950NNE   20220819145751W4K81W    00000035000002276000000000032W4K8  HJYHK-J 000000000000OH22A002
BI00T32W4    @4500198835    20221025181B32116S1              AVSSCS 0.3FX2 DGY        CCN000002100000002100FN00000000020221001000002100NNE   20220819145751W4K81W    00000035000002276000000000032W4K8  HJYHK-J 000000000000OH22A001
BI00B32W4    @4500198864    20221004181B09037K5              CAVSAS 0.3X1 GY/BR       CCN000001500000001500FN00000000020221001000001500NNE   20220819145754W4N21W    00000050000001704000000000032W4N2  HJYHK-J 000000000000ON329001
BI00B32W4    @4500198928    20221004181D6910239              AVSSHCS 0.5FX2 B/L       CCN000012000000012000FN00000000020221001000012000NNE   20220819145755W4A21W    00000030000002385000000000032W4A2  HJYHK-J 000000000000OW329001
BI00B32AF    @TTB2104       20220930181AD2002ZZ              CIVUSAS-S 0.35X2 B       CCN000076500000000000FY00000000020221001000000000NNM10 20220819081208    1W    00000045000001713700000000032AF    HBYHVTB 000000000000UZ229024
BI00B32AF    @TTB2105       20221007181AD2002ZZ              CIVUSAS-S 0.35X2 B       CCN000081000000045000FN00000000020221001000045000NNM10 20220819081229    1W    00000045000001713700000000032AF    HBYHVTB 000000000000UZ329024
BI00B32AF    @TTB2103       20220923181AD2003ZZ              CIVUSAS-S 0.35X3 B       CCN000017500000000000FY00000000020221001000000000NNM10 20220819081345    1W    00000035000002172100000000032AF    HBYHVTB 000000000000UZ129023
BI00B32AF    @TTB2104       20220930181AD2003ZZ              CIVUSAS-S 0.35X3 B       CCN000045500000017500FN00000000020221001000017500NNM10 20220819081403    1W    00000035000002172100000000032AF    HBYHVTB 000000000000UZ229025
BI00B32AF    @TTB2105       20221007181AD2003ZZ              CIVUSAS-S 0.35X3 B       CCN000043750000035000FN00000000020221001000035000NNM10 20220819081424    1W    00000035000002172100000000032AF    HBYHVTB 000000000000UZ329025
BI00B32AF    @TTB2103       20220923181AD2008ZZ              CIVUSAS-S 0.5X2 B        CCN000052000000012000FN00000000020221001000012000NNM10 20220819081448    1W    00000040000002028000000000032AF    HBYHVTB 000000000000UZ129021
BI00B32GE    DHTW2246       2022092218000004530              AV 8 B                   CCN000005000000005000FN00000000020221101000005000NNE   20220819144344    1W    00000010000010466200000000032GE    GEYKHT  000000000000RA129061
BI00B32GE    DHTW2246       2022092218000004534              AV 8 B/W                 CCN000003400000003400FN00000000020221101000003400NNE   20220819144344    1W    00000010000010466200000000032GE    GEYKHT  000000000000RA129063
BI00B32GE    DHTW2246       2022092218000004535              AV 8 B/R                 CCN000006200000006200FN00000000020221101000006200NNE   20220819144344    1W    00000010000010466200000000032GE    GEYKHT  000000000000RA129062
BI00B32GE    DHTW2246       2022092218000004540              AV 8 W                   CCN000001600000001600FN00000000020221101000001600NNE   20220819144344    1W    00000010000010466200000000032GE    GEYKHT  000000000000RA129065
BI00B32GE    DHTW2246       2022092218000004543              AV 8 W/B                 CCN000007600000007600FN00000000020221101000007600NNE   20220819144344    1W    00000010000010466200000000032GE    GEYKHT  000000000000RA129066
BI00B32GE    DHTW2246       2022092218000004550              AV 8 R                   CCN000000800000000800FN00000000020221101000000800NNE   20220819144344    1W    00000010000010466200000000032GE    GEYKHT  000000000000RA129064
BI00B32GE    @DHTW2246      20220922181AD2002ZZ              CIVUSAS-S 0.35X2 B       CCN000018900000018900FN00000000020221101000018900NNE   20220819144343    1W    00000045000001713700000000032GE    GEYKHT  000000000000RA129032
BI00B32GE    @DHTW2246      20220922181AD2003ZZ              CIVUSAS-S 0.35X3 B       CCN000007500000007700FN00000000020221101000007700NNE   20220819144343    1W    00000035000002172100000000032GE    GEYKHT  000000000000RA129033
BI00B32GE    @DHTW2246      20220922181AD2004ZZ              CIVUSAS-S 0.35X4 B       CCN000024800000024900FN00000000020221101000024900NNE   20220819144343    1W    00000030000002799900000000032GE    GEYKHT  000000000000RA129034
BI00B32GE    @DHTW2246      20220922181E48031ZZ              CAVSAS-S 0.3X2 GY        CCN000008400000008400FN00000000020221101000008400NNE   20220819144343    1W    00000035000002008700000000032GE    GEYKHT  000000000000RA129035
BI00B32GE    @DHTW2246      20220922181E48037ZZ              CAVSAS-S 0.3X4 GY        CCN000008000000008000FN00000000020221101000008000NNE   20220819144343    1W    00000025000003262000000000032GE    GEYKHT  000000000000RA129037
BI00B32GE    @DHTW2246      20220922181E48041ZZ              CAVSAS-S 0.3X2 GY/R      CCN000010150000010150FN00000000020221101000010150NNE   20220819144343    1W    00000035000002008700000000032GE    GEYKHT  000000000000RA129036
BI00B32GE    @DHTW2246      20220922181E50002ZZ              AVSSCS-S 0.3FX2 DGY/G    CCN000009450000009450FN00000000020221101000009450NNE   20220819144343    1W    00000035000002165000000000032GE    GEYKHT  000000000000RA129044
BI00B32GE    @DHTW2246      20220922181E50004ZZ              AVSSCS-S 0.5FX1 DGY      CCN000012800000012800FN00000000020221101000012800NNE   20220819144343    1W    00000040000001909700000000032GE    GEYKHT  000000000000RA129038
BI00B32GE    @DHTW2246      20220922181E50005ZZ              AVSSCS-S 0.5FX1 DGY/W    CCN000005200000005200FN00000000020221101000005200NNE   20220819144343    1W    00000040000001909700000000032GE    GEYKHT  000000000000RA129040
BI00B32GE    @DHTW2246      20220922181E50006ZZ              AVSSCS-S 0.5FX1 DGY/Y    CCN000001600000001600FN00000000020221101000001600NNE   20220819144343    1W    00000040000001909700000000032GE    GEYKHT  000000000000RA129041
BI00B32GE    @DHTW2246      20220922181E50007ZZ              AVSSCS-S 0.5FX1 DGY/L    CCN000008000000008000FN00000000020221101000008000NNE   20220819144343    1W    00000040000001909700000000032GE    GEYKHT  000000000000RA129039
BI00B32GE    @DHTW2246      20220922181E50016ZZ              AVSSCS-S 0.5FX2 DGY/R    CCN000001500000001500FN00000000020221101000001500NNE   20220819144343    1W    00000030000003096000000000032GE    GEYKHT  000000000000RA129042
BI00B32GE    @DHTW2246      20220922181E50020ZZ              AVSSCS-S 0.3FX2 DGY/R    CCN000006650000006650FN00000000020221101000006650NNE   20220819144343    1W    00000035000002165000000000032GE    GEYKHT  000000000000RA129046
BI00B32GE    @DHTW2246      20220922181E50021ZZ              AVSSCS-S 0.3FX2 DGY/P    CCN000007350000007350FN00000000020221101000007350NNE   20220819144343    1W    00000035000002165000000000032GE    GEYKHT  000000000000RA129045
BI00B32GE    @DHTW2246      20220922181E50036ZZ              AVSSCS-S 0.3FX2 DGY      CCN000009800000009800FN00000000020221101000009800NNE   20220819144343    1W    00000035000002165000000000032GE    GEYKHT  000000000000RA129043
BI00B32GE    @DHTW2246      20220922181F21014ZZ              AVSSHCS-S 0.5FX2 B/L     CCN000002400000002400FN00000000020221101000002400NNE   20220819144343    1W    00000030000002531400000000032GE    GEYKHT  000000000000RA129047
BI00B32J1    @397486        20220912181AD2001ZZ              CIVUSAS-S 0.35X1 B       CCN000068200000068200FN00000000020220901000068200NNM   20220819142415    1W    00000055000001540800000000032J1    UKYEL-BL000000000000KG528001
BI00B32J1    @397486        20220912181AD2002ZZ              CIVUSAS-S 0.35X2 B       CCN000000450000000450FN00000000020220901000000450NNM   20220819142415    1W    00000045000001713700000000032J1    UKYEL-BL000000000000KG528003
BI00B32J1    @397486        20220912181AD2009ZZ              CIVUSAS-S 0.5X3 B        CCN000000300000000300FN00000000020220901000000300NNM   20220819142415    1W    00000030000002716800000000032J1    UKYEL-BL000000000000KG528002
BI00B32N1    NST2121C-1     20220908180D0204161              AVSSH 1.25F LG           CCN000000800000000800FN00000000020200801000000800NNE   20220819144146    1W    00000080000001458000000000032N1    TAYIPL  000000000000XR428002
BI00B32N1    NST2121C-1     20220908180D0204190              AVSSH 1.25F L            CCN000000800000000800FN00000000020200801000000800NNE   20220819144146    1W    00000080000001458000000000032N1    TAYIPL  000000000000XR428001
BI00A32P8    POTA-2208A     202208221801W004140              IVSSH 1.25F W            CCN000000800000000800FN00000000020220801000000800NNE   20220819132143    1W    00000080000001405000000000032P8    YIYTM   000000000000YD228001
BI00A32P8    POTA-2208A     202208221801W004291              IVSSH 2F SB              CCN000000550000000550FN00000000020220801000000550NNE   20220819132143    1W    00000055000002091100000000032P8    YIYTM   000000000000YD228002
BI00A32P8    POTA-2208A     202208221801W004343              IVSSH 3 W/B              CCN000000350000000350FN00000000020220801000000350NNE   20220819132143    1W    00000035000003173100000000032P8    YIYTM   000000000000YD228003
BI00B32W4    4500199011     2022090618001403960              AV 0.5F G                CCN000001000000001000FN00000000020220901000001000NNE   20220819143417W41 1W    00000100000000903000000000032W41   HJYHK-J 000000000000OP428001
BI00B32W4    4500199011     2022090618001403964              AV 0.5F G/W              CCN000002000000002000FN00000000020220901000002000NNE   20220819143417W41 1W    00000100000000903000000000032W41   HJYHK-J 000000000000OP428002
BI00T32W4    4500198835     202210251801R703943              CIVUS 0.5 W/B            CCN000211200000211200FN00000000020221001000211200NNE   20220819145756W4K81W    00000220000000525000000000032W4K8  HJYHK-J 000000000000OH22A033
BI00T32W4    4500198835     202210251801R703961              CIVUS 0.5 LG             CCN000110000000110000FN00000000020221001000110000NNE   20220819145756W4K81W    00000220000000525000000000032W4K8  HJYHK-J 000000000000OH22A027
BI00T32W4    4500198835     202210251801R703980              CIVUS 0.5 BR             CCN000110000000110000FN00000000020221001000110000NNE   20220819145756W4K81W    00000220000000525000000000032W4K8  HJYHK-J 000000000000OH22A023
BI00T32W4    4500198835     202210251801R704130              CIVUS 1.25 B             CCN000045000000045000FN00000000020221001000045000NNE   20220819145756W4K81W    00000100000001228000000000032W4K8  HJYHK-J 000000000000OH22A038
BI00T32W4    4500198835     202210251801R704143              CIVUS 1.25 W/B           CCN000045000000045000FN00000000020221001000045000NNE   20220819145756W4K81W    00000100000001228000000000032W4K8  HJYHK-J 000000000000OH22A048
BI00T32W4    4500198835     2022102518018404130              CAVS 1.25 B              CCN000041600000041600FN00000000020221001000041600NNE   20220819145756W4K81W    00000080000001378000000000032W4K8  HJYHK-J 000000000000OH22A101
BI00T32W4    4500198835     2022102518018404141              CAVS 1.25 GY             CCN000039200000039200FN00000000020221001000039200NNE   20220819145756W4K81W    00000080000001378000000000032W4K8  HJYHK-J 000000000000OH22A102
BI00T32W4    4500198835     2022102518018404143              CAVS 1.25 W/B            CCN000039200000039200FN00000000020221001000039200NNE   20220819145756W4K81W    00000080000001378000000000032W4K8  HJYHK-J 000000000000OH22A108
BI00T32W4    4500198835     202210251801R706940              CIVUS 0.35 W             CCN000129000000129000FN00000000020221001000129000NNE   20220819145756W4K81W    00000300000000386000000000032W4K8  HJYHK-J 000000000000OH22A060
BI00T32W4    4500198835     2022102518018403961              CAVS 0.5 LG              CCN000073500000073500FN00000000020221001000073500NNE   20220819145756W4K81W    00000150000000677000000000032W4K8  HJYHK-J 000000000000OH22A087
BI00T32W4    4500198835     202210251801R706973              CIVUS 0.35 Y/B           CCN000111000000111000FN00000000020221001000111000NNE   20220819145756W4K81W    00000300000000386000000000032W4K8  HJYHK-J 000000000000OH22A063
BI00T32W4    4500198835     202210251801R706990              CIVUS 0.35 L             CCN000111000000111000FN00000000020221001000111000NNE   20220819145756W4K81W    00000300000000386000000000032W4K8  HJYHK-J 000000000000OH22A054
BI00T32W4    4500198835     2022102518018404146              CAVS 1.25 W/G            CCN000030400000030400FN00000000020221001000030400NNE   20220819145756W4K81W    00000080000001378000000000032W4K8  HJYHK-J 000000000000OH22A109
BI00T32W4    4500198835     202210251801R706941              CIVUS 0.35 GY            CCN000102000000102000FN00000000020221001000102000NNE   20220819145756W4K81W    00000300000000386000000000032W4K8  HJYHK-J 000000000000OH22A053
BI00T32W4    4500198835     2022102518018403991              CAVS 0.5 SB              CCN000063000000063000FN00000000020221001000063000NNE   20220819145756W4K81W    00000150000000677000000000032W4K8  HJYHK-J 000000000000OH22A091
BI00T32W4    4500198835     2022102518018403930              CAVS 0.5 B               CCN000063000000063000FN00000000020221001000063000NNE   20220819145756W4K81W    00000150000000677000000000032W4K8  HJYHK-J 000000000000OH22A078
BI00T32W4    4500198835     202210251801R706980              CIVUS 0.35 BR            CCN000093000000093000FN00000000020221001000093000NNE   20220819145756W4K81W    00000300000000386000000000032W4K8  HJYHK-J 000000000000OH22A051
BI00T32W4    4500198835     202210251801R703930              CIVUS 0.5 B              CCN000059400000059400FN00000000020221001000059400NNE   20220819145756W4K81W    00000220000000525000000000032W4K8  HJYHK-J 000000000000OH22A021
BI00T32W4    4500198835     202210251801R706960              CIVUS 0.35 G             CCN000084000000084000FN00000000020221001000084000NNE   20220819145756W4K81W    00000300000000386000000000032W4K8  HJYHK-J 000000000000OH22A052
BI00T32W4    4500198835     2022102518018403941              CAVS 0.5 GY              CCN000052500000052500FN00000000020221001000052500NNE   20220819145756W4K81W    00000150000000677000000000032W4K8  HJYHK-J 000000000000OH22A083
BI00T32W4    4500198835     202210251801R703991              CIVUS 0.5 SB             CCN000057200000057200FN00000000020221001000057200NNE   20220819145756W4K81W    00000220000000525000000000032W4K8  HJYHK-J 000000000000OH22A030
BI00T32W4    4500198835     2022102518018404192              CAVS 1.25 V              CCN000023200000023200FN00000000020221001000023200NNE   20220819145756W4K81W    00000080000001378000000000032W4K8  HJYHK-J 000000000000OH22A106
BI00T32W4    4500198835     202210251801R706930              CIVUS 0.35 B             CCN000078000000078000FN00000000020221001000078000NNE   20220819145756W4K81W    00000300000000386000000000032W4K8  HJYHK-J 000000000000OH22A049
BI00T32W4    4500198835     2022102518018403970              CAVS 0.5 Y               CCN000048000000048000FN00000000020221001000048000NNE   20220819145756W4K81W    00000150000000677000000000032W4K8  HJYHK-J 000000000000OH22A095
BI00T32W4    4500198835     2022102518018403943              CAVS 0.5 W/B             CCN000048000000048000FN00000000020221001000048000NNE   20220819145756W4K81W    00000150000000677000000000032W4K8  HJYHK-J 000000000000OH22A094
BI00T32W4    4500198835     2022102518018403960              CAVS 0.5 G               CCN000046500000046500FN00000000020221001000046500NNE   20220819145756W4K81W    00000150000000677000000000032W4K8  HJYHK-J 000000000000OH22A081
BI00T32W4    4500198835     202210251801R706991              CIVUS 0.35 SB            CCN000069000000069000FN00000000020221001000069000NNE   20220819145756W4K81W    00000300000000386000000000032W4K8  HJYHK-J 000000000000OH22A058
BI00T32W4    4500198835     2022102518018403952              CAVS 0.5 P               CCN000043500000043500FN00000000020221001000043500NNE   20220819145756W4K81W    00000150000000677000000000032W4K8  HJYHK-J 000000000000OH22A088
BI00T32W4    4500198835     2022102518018403990              CAVS 0.5 L               CCN000043500000043500FN00000000020221001000043500NNE   20220819145756W4K81W    00000150000000677000000000032W4K8  HJYHK-J 000000000000OH22A084
BI00T32W4    4500198835     2022102518007704243              AVSS 2F W/B              CCN000012500000012500FN00000000020221001000012500NNE   20220819145756W4K81W    00000050000002126400000000032W4K8  HJYHK-J 000000000000OH22A020
BI00T32W4    4500198835     202210251801R703941              CIVUS 0.5 GY             CCN000046200000046200FN00000000020221001000046200NNE   20220819145756W4K81W    00000220000000525000000000032W4K8  HJYHK-J 000000000000OH22A025
BI00T32W4    4500198835     202210251801R70695U              CIVUS 0.35 BE            CCN000063000000063000FN00000000020221001000063000NNE   20220819145756W4K81W    00000300000000386000000000032W4K8  HJYHK-J 000000000000OH22A050
BI00T32W4    4500198835     2022102518018404152              CAVS 1.25 P              CCN000018400000018400FN00000000020221001000018400NNE   20220819145756W4K81W    00000080000001378000000000032W4K8  HJYHK-J 000000000000OH22A104
BI00T32W4    4500198835     2022102518018404145              CAVS 1.25 W/R            CCN000018400000018400FN00000000020221001000018400NNE   20220819145756W4K81W    00000080000001378000000000032W4K8  HJYHK-J 000000000000OH22A110
BI00T32W4    4500198835     202210251801R703940              CIVUS 0.5 W              CCN000044000000044000FN00000000020221001000044000NNE   20220819145756W4K81W    00000220000000525000000000032W4K8  HJYHK-J 000000000000OH22A032
BI00T32W4    4500198835     202210251801R704140              CIVUS 1.25 W             CCN000018000000018000FN00000000020221001000018000NNE   20220819145756W4K81W    00000100000001228000000000032W4K8  HJYHK-J 000000000000OH22A047
BI00T32W4    4500198835     2022102518018403940              CAVS 0.5 W               CCN000037500000037500FN00000000020221001000037500NNE   20220819145756W4K81W    00000150000000677000000000032W4K8  HJYHK-J 000000000000OH22A093
BI00T32W4    4500198835     2022102518007704230              AVSS 2F B                CCN000011000000011000FN00000000020221001000011000NNE   20220819145756W4K81W    00000050000002126400000000032W4K8  HJYHK-J 000000000000OH22A015
BI00T32W4    4500198835     202210251801R706952              CIVUS 0.35 P             CCN000057000000057000FN00000000020221001000057000NNE   20220819145756W4K81W    00000300000000386000000000032W4K8  HJYHK-J 000000000000OH22A056
BI00T32W4    4500198835     202210251801R703990              CIVUS 0.5 L              CCN000039600000039600FN00000000020221001000039600NNE   20220819145756W4K81W    00000220000000525000000000032W4K8  HJYHK-J 000000000000OH22A026
BI00T32W4    4500198835     202210251801R70395U              CIVUS 0.5 BE             CCN000039600000039600FN00000000020221001000039600NNE   20220819145756W4K81W    00000220000000525000000000032W4K8  HJYHK-J 000000000000OH22A022
BI00T32W4    4500198835     202210251801R706992              CIVUS 0.35 V             CCN000051000000051000FN00000000020221001000051000NNE   20220819145756W4K81W    00000300000000386000000000032W4K8  HJYHK-J 000000000000OH22A059
BI00T32W4    4500198835     202210251801R704180              CIVUS 1.25 BR            CCN000015000000015000FN00000000020221001000015000NNE   20220819145756W4K81W    00000100000001228000000000032W4K8  HJYHK-J 000000000000OH22A040
BI00T32W4    4500198835     202210251801R704161              CIVUS 1.25 LG            CCN000015000000015000FN00000000020221001000015000NNE   20220819145756W4K81W    00000100000001228000000000032W4K8  HJYHK-J 000000000000OH22A042
BI00T32W4    4500198835     202210251801R70415U              CIVUS 1.25 BE            CCN000015000000015000FN00000000020221001000015000NNE   20220819145756W4K81W    00000100000001228000000000032W4K8  HJYHK-J 000000000000OH22A039
BI00T32W4    4500198835     2022102518007704260              AVSS 2F G                CCN000009000000009000FN00000000020221001000009000NNE   20220819145756W4K81W    00000050000002126400000000032W4K8  HJYHK-J 000000000000OH22A017
BI00T32W4    4500198835     2022102518007704240              AVSS 2F W                CCN000009000000009000FN00000000020221001000009000NNE   20220819145756W4K81W    00000050000002126400000000032W4K8  HJYHK-J 000000000000OH22A019
BI00T32W4    4500198835     2022102518018404140              CAVS 1.25 W              CCN000013600000013600FN00000000020221001000013600NNE   20220819145756W4K81W    00000080000001378000000000032W4K8  HJYHK-J 000000000000OH22A107
BI00T32W4    4500198835     2022102518007704290              AVSS 2F L                CCN000008000000008000FN00000000020221001000008000NNE   20220819145756W4K81W    00000050000002126400000000032W4K8  HJYHK-J 000000000000OH22A018
BI00T32W4    4500198835     202210251801R706943              CIVUS 0.35 W/B           CCN000042000000042000FN00000000020221001000042000NNE   20220819145756W4K81W    00000300000000386000000000032W4K8  HJYHK-J 000000000000OH22A061
BI00T32W4    4500198835     2022102518018404150              CAVS 1.25 R              CCN000012000000012000FN00000000020221001000012000NNE   20220819145756W4K81W    00000080000001378000000000032W4K8  HJYHK-J 000000000000OH22A105
BI00T32W4    4500198835     2022102518018404090              CAVS 0.85 L              CCN000017000000017000FN00000000020221001000017000NNE   20220819145756W4K81W    00000100000000965000000000032W4K8  HJYHK-J 000000000000OH22A096
BI00T32W4    4500198835     2022102518018403954              CAVS 0.5 R/W             CCN000025500000025500FN00000000020221001000025500NNE   20220819145756W4K81W    00000150000000677000000000032W4K8  HJYHK-J 000000000000OH22A090
BI00T32W4    4500198835     202210251801R703952              CIVUS 0.5 P              CCN000026400000026400FN00000000020221001000026400NNE   20220819145756W4K81W    00000220000000525000000000032W4K8  HJYHK-J 000000000000OH22A028
BI00T32W4    4500198835     2022102518018403992              CAVS 0.5 V               CCN000024000000024000FN00000000020221001000024000NNE   20220819145756W4K81W    00000150000000677000000000032W4K8  HJYHK-J 000000000000OH22A092
BI00T32W4    4500198835     202210251801R704061              CIVUS 0.75 LG            CCN000018000000018000FN00000000020221001000018000NNE   20220819145756W4K81W    00000150000000765000000000032W4K8  HJYHK-J 000000000000OH22A036
BI00T32W4    4500198835     2022102518018403934              CAVS 0.5 B/W             CCN000022500000022500FN00000000020221001000022500NNE   20220819145756W4K81W    00000150000000677000000000032W4K8  HJYHK-J 000000000000OH22A079
BI00T32W4    4500198835     2022102518018403790              CAVS 0.3 L               CCN000032000000032000FN00000000020221001000032000NNE   20220819145756W4K81W    00000200000000471000000000032W4K8  HJYHK-J 000000000000OH22A068
BI00T32W4    4500198835     202210251801R704150              CIVUS 1.25 R             CCN000010000000010000FN00000000020221001000010000NNE   20220819145756W4K81W    00000100000001228000000000032W4K8  HJYHK-J 000000000000OH22A044
BI00T32W4    4500198835     202210251801R704191              CIVUS 1.25 SB            CCN000009000000009000FN00000000020221001000009000NNE   20220819145756W4K81W    00000100000001228000000000032W4K8  HJYHK-J 000000000000OH22A045
BI00T32W4    4500198835     202210251801R703960              CIVUS 0.5 G              CCN000019800000019800FN00000000020221001000019800NNE   20220819145756W4K81W    00000220000000525000000000032W4K8  HJYHK-J 000000000000OH22A024
BI00T32W4    4500198835     202210251801R704192              CIVUS 1.25 V             CCN000008000000008000FN00000000020221001000008000NNE   20220819145756W4K81W    00000100000001228000000000032W4K8  HJYHK-J 000000000000OH22A046
BI00T32W4    4500198835     2022102518018403980              CAVS 0.5 BR              CCN000016500000016500FN00000000020221001000016500NNE   20220819145756W4K81W    00000150000000677000000000032W4K8  HJYHK-J 000000000000OH22A080
BI00T32W4    4500198835     2022102518018403760              CAVS 0.3 G               CCN000024000000024000FN00000000020221001000024000NNE   20220819145756W4K81W    00000200000000471000000000032W4K8  HJYHK-J 000000000000OH22A066
BI00T32W4    4500198835     2022102518018404061              CAVS 0.85 LG             CCN000010000000010000FN00000000020221001000010000NNE   20220819145756W4K81W    00000100000000965000000000032W4K8  HJYHK-J 000000000000OH22A097
BI00T32W4    4500198835     2022102518018404092              CAVS 0.85 V              CCN000010000000010000FN00000000020221001000010000NNE   20220819145756W4K81W    00000100000000965000000000032W4K8  HJYHK-J 000000000000OH22A099
BI00T32W4    4500198835     2022102518018403730              CAVS 0.3 B               CCN000022000000022000FN00000000020221001000022000NNE   20220819145756W4K81W    00000200000000471000000000032W4K8  HJYHK-J 000000000000OH22A064
BI00T32W4    4500198835     2022102518018403740              CAVS 0.3 W               CCN000022000000022000FN00000000020221001000022000NNE   20220819145756W4K81W    00000200000000471000000000032W4K8  HJYHK-J 000000000000OH22A075
BI00T32W4    4500198835     2022102518018403950              CAVS 0.5 R               CCN000015000000015000FN00000000020221001000015000NNE   20220819145756W4K81W    00000150000000677000000000032W4K8  HJYHK-J 000000000000OH22A089
BI00T32W4    4500198835     202210251801R704030              CIVUS 0.75 B             CCN000009000000009000FN00000000020221001000009000NNE   20220819145756W4K81W    00000150000000765000000000032W4K8  HJYHK-J 000000000000OH22A034
BI00T32W4    4500198835     2022102518018404161              CAVS 1.25 LG             CCN000006400000006400FN00000000020221001000006400NNE   20220819145756W4K81W    00000080000001378000000000032W4K8  HJYHK-J 000000000000OH22A103
BI00T32W4    4500198835     2022102518018403741              CAVS 0.3 GY              CCN000020000000020000FN00000000020221001000020000NNE   20220819145756W4K81W    00000200000000471000000000032W4K8  HJYHK-J 000000000000OH22A067
BI00T32W4    4500198835     2022102518018403995              CAVS 0.5 L/R             CCN000013500000013500FN00000000020221001000013500NNE   20220819145756W4K81W    00000150000000677000000000032W4K8  HJYHK-J 000000000000OH22A085
BI00T32W4    4500198835     202210251801R704190              CIVUS 1.25 L             CCN000006000000006000FN00000000020221001000006000NNE   20220819145756W4K81W    00000100000001228000000000032W4K8  HJYHK-J 000000000000OH22A041
BI00T32W4    4500198835     2022102518018403707              CAVS 0.3 P/B             CCN000018000000018000FN00000000020221001000018000NNE   20220819145756W4K81W    00000200000000471000000000032W4K8  HJYHK-J 000000000000OH22A070
BI00T32W4    4500198835     2022102518018403750              CAVS 0.3 R               CCN000018000000018000FN00000000020221001000018000NNE   20220819145756W4K81W    00000200000000471000000000032W4K8  HJYHK-J 000000000000OH22A072
BI00T32W4    4500198835     2022102518018404043              CAVS 0.85 W/B            CCN000008000000008000FN00000000020221001000008000NNE   20220819145756W4K81W    00000100000000965000000000032W4K8  HJYHK-J 000000000000OH22A100
BI00T32W4    4500198835     2022102518018404052              CAVS 0.85 P              CCN000008000000008000FN00000000020221001000008000NNE   20220819145756W4K81W    00000100000000965000000000032W4K8  HJYHK-J 000000000000OH22A098
BI00T32W4    4500198835     202210251801R703992              CIVUS 0.5 V              CCN000013200000013200FN00000000020221001000013200NNE   20220819145756W4K81W    00000220000000525000000000032W4K8  HJYHK-J 000000000000OH22A031
BI00T32W4    4500198835     2022102518018403964              CAVS 0.5 G/W             CCN000012000000012000FN00000000020221001000012000NNE   20220819145756W4K81W    00000150000000677000000000032W4K8  HJYHK-J 000000000000OH22A082
BI00T32W4    4500198835     202210251801R706950              CIVUS 0.35 R             CCN000018000000018000FN00000000020221001000018000NNE   20220819145756W4K81W    00000300000000386000000000032W4K8  HJYHK-J 000000000000OH22A057
BI00T32W4    4500198835     202210251801R706961              CIVUS 0.35 LG            CCN000015000000015000FN00000000020221001000015000NNE   20220819145756W4K81W    00000300000000386000000000032W4K8  HJYHK-J 000000000000OH22A055
BI00T32W4    4500198835     20221025180T8403970              ACCAVS 0.5 Y             CCN000009000000009000FN00000000020221001000009000NNE   20220819145756W4K81W    00000150000000674300000000032W4K8  HJYHK-J 000000000000OH22A003
BI00T32W4    4500198835     20221025180T8403973              ACCAVS 0.5 Y/B           CCN000009000000009000FN00000000020221001000009000NNE   20220819145756W4K81W    00000150000000674300000000032W4K8  HJYHK-J 000000000000OH22A004
BI00T32W4    4500198835     2022102518007704195              AVSS 1.25F L/R           CCN000004000000004000FN00000000020221001000004000NNE   20220819145756W4K81W    00000080000001389000000000032W4K8  HJYHK-J 000000000000OH22A013
BI00T32W4    4500198835     2022102518018403792              CAVS 0.3 V               CCN000012000000012000FN00000000020221001000012000NNE   20220819145756W4K81W    00000200000000471000000000032W4K8  HJYHK-J 000000000000OH22A074
BI00T32W4    4500198835     202210251801R704052              CIVUS 0.75 P             CCN000006000000006000FN00000000020221001000006000NNE   20220819145756W4K81W    00000150000000765000000000032W4K8  HJYHK-J 000000000000OH22A037
BI00T32W4    4500198835     2022102518007704194              AVSS 1.25F L/W           CCN000003200000003200FN00000000020221001000003200NNE   20220819145756W4K81W    00000080000001389000000000032W4K8  HJYHK-J 000000000000OH22A014
BI00T32W4    4500198835     2022102518018403734              CAVS 0.3 B/W             CCN000010000000010000FN00000000020221001000010000NNE   20220819145756W4K81W    00000200000000471000000000032W4K8  HJYHK-J 000000000000OH22A065
BI00T32W4    4500198835     2022102518018403749              CAVS 0.3 W/L             CCN000010000000010000FN00000000020221001000010000NNE   20220819145756W4K81W    00000200000000471000000000032W4K8  HJYHK-J 000000000000OH22A077
BI00T32W4    4500198835     2022102518007703930              AVSS 0.5F B              CCN000006000000006000FN00000000020221001000006000NNE   20220819145756W4K81W    00000150000000674000000000032W4K8  HJYHK-J 000000000000OH22A005
BI00T32W4    4500198835     202210251801R703950              CIVUS 0.5 R              CCN000006600000006600FN00000000020221001000006600NNE   20220819145756W4K81W    00000220000000525000000000032W4K8  HJYHK-J 000000000000OH22A029
BI00T32W4    4500198835     2022102518007704287              AVSS 2F BR/Y             CCN000001500000001500FN00000000020221001000001500NNE   20220819145756W4K81W    00000050000002126400000000032W4K8  HJYHK-J 000000000000OH22A016
BI00T32W4    4500198835     2022102518007703967              AVSS 0.5F G/Y            CCN000004500000004500FN00000000020221001000004500NNE   20220819145756W4K81W    00000150000000674000000000032W4K8  HJYHK-J 000000000000OH22A008
BI00T32W4    4500198835     2022102518007703965              AVSS 0.5F G/R            CCN000004500000004500FN00000000020221001000004500NNE   20220819145756W4K81W    00000150000000674000000000032W4K8  HJYHK-J 000000000000OH22A007
BI00T32W4    4500198835     202210251801R704152              CIVUS 1.25 P             CCN000002000000002000FN00000000020221001000002000NNE   20220819145756W4K81W    00000100000001228000000000032W4K8  HJYHK-J 000000000000OH22A043
BI00T32W4    4500198835     20221025180184037H2              CAVS 0.3 P/G             CCN000006000000006000FN00000000020221001000006000NNE   20220819145756W4K81W    00000200000000471000000000032W4K8  HJYHK-J 000000000000OH22A071
BI00T32W4    4500198835     202210251801R704080              CIVUS 0.75 BR            CCN000003000000003000FN00000000020221001000003000NNE   20220819145756W4K81W    00000150000000765000000000032W4K8  HJYHK-J 000000000000OH22A035
BI00T32W4    4500198835     2022102518007704187              AVSS 1.25F BR/Y          CCN000001600000001600FN00000000020221001000001600NNE   20220819145756W4K81W    00000080000001389000000000032W4K8  HJYHK-J 000000000000OH22A012
BI00T32W4    4500198835     2022102518007703963              AVSS 0.5F G/B            CCN000003000000003000FN00000000020221001000003000NNE   20220819145756W4K81W    00000150000000674000000000032W4K8  HJYHK-J 000000000000OH22A006
BI00T32W4    4500198835     2022102518018403743              CAVS 0.3 W/B             CCN000004000000004000FN00000000020221001000004000NNE   20220819145756W4K81W    00000200000000471000000000032W4K8  HJYHK-J 000000000000OH22A076
BI00T32W4    4500198835     2022102518018403791              CAVS 0.3 SB              CCN000004000000004000FN00000000020221001000004000NNE   20220819145756W4K81W    00000200000000471000000000032W4K8  HJYHK-J 000000000000OH22A073
BI00T32W4    4500198835     2022102518018403994              CAVS 0.5 L/W             CCN000003000000003000FN00000000020221001000003000NNE   20220819145756W4K81W    00000150000000677000000000032W4K8  HJYHK-J 000000000000OH22A086
BI00T32W4    4500198835     202210251801R706970              CIVUS 0.35 Y             CCN000003000000003000FN00000000020221001000003000NNE   20220819145756W4K81W    00000300000000386000000000032W4K8  HJYHK-J 000000000000OH22A062
BI00T32W4    4500198835     2022102518007703941              AVSS 0.5F GY             CCN000001500000001500FN00000000020221001000001500NNE   20220819145756W4K81W    00000150000000674000000000032W4K8  HJYHK-J 000000000000OH22A009
BI00T32W4    4500198835     2022102518007703956              AVSS 0.5F R/G            CCN000001500000001500FN00000000020221001000001500NNE   20220819145756W4K81W    00000150000000674000000000032W4K8  HJYHK-J 000000000000OH22A011
BI00T32W4    4500198835     2022102518007703951              AVSS 0.5F O              CCN000001500000001500FN00000000020221001000001500NNE   20220819145756W4K81W    00000150000000674000000000032W4K8  HJYHK-J 000000000000OH22A010
BI00T32W4    4500198835     2022102518018403761              CAVS 0.3 LG              CCN000002000000002000FN00000000020221001000002000NNE   20220819145756W4K81W    00000200000000471000000000032W4K8  HJYHK-J 000000000000OH22A069
BI00T32W4    @4500198835    20221025181B32116Z6              AVSSCS 0.3FX2 DGY/V      CCN000019950000019950FN00000000020221001000019950NNE   20220819145751W4K81W    00000035000002276000000000032W4K8  HJYHK-J 000000000000OH22A002
BI00T32W4    @4500198835    20221025181B32116S1              AVSSCS 0.3FX2 DGY        CCN000002100000002100FN00000000020221001000002100NNE   20220819145751W4K81W    00000035000002276000000000032W4K8  HJYHK-J 000000000000OH22A001
BI00B32W4    @4500198864    20221004181B09037K5              CAVSAS 0.3X1 GY/BR       CCN000001500000001500FN00000000020221001000001500NNE   20220819145754W4N21W    00000050000001704000000000032W4N2  HJYHK-J 000000000000ON329001
BI00B32W4    @4500198928    20221004181D6910239              AVSSHCS 0.5FX2 B/L       CCN000012000000012000FN00000000020221001000012000NNE   20220819145755W4A21W    00000030000002385000000000032W4A2  HJYHK-J 000000000000OW329001
BI00B32AF    @TTB2104       20220930181AD2002ZZ              CIVUSAS-S 0.35X2 B       CCN000076500000000000FY00000000020221001000000000NNM10 20220819081208    1W    00000045000001713700000000032AF    HBYHVTB 000000000000UZ229024
BI00B32AF    @TTB2105       20221007181AD2002ZZ              CIVUSAS-S 0.35X2 B       CCN000081000000045000FN00000000020221001000045000NNM10 20220819081229    1W    00000045000001713700000000032AF    HBYHVTB 000000000000UZ329024
BI00B32AF    @TTB2103       20220923181AD2003ZZ              CIVUSAS-S 0.35X3 B       CCN000017500000000000FY00000000020221001000000000NNM10 20220819081345    1W    00000035000002172100000000032AF    HBYHVTB 000000000000UZ129023
BI00B32AF    @TTB2104       20220930181AD2003ZZ              CIVUSAS-S 0.35X3 B       CCN000045500000017500FN00000000020221001000017500NNM10 20220819081403    1W    00000035000002172100000000032AF    HBYHVTB 000000000000UZ229025
BI00B32AF    @TTB2105       20221007181AD2003ZZ              CIVUSAS-S 0.35X3 B       CCN000043750000035000FN00000000020221001000035000NNM10 20220819081424    1W    00000035000002172100000000032AF    HBYHVTB 000000000000UZ329025
BI00B32AF    @TTB2103       20220923181AD2008ZZ              CIVUSAS-S 0.5X2 B        CCN000052000000012000FN00000000020221001000012000NNM10 20220819081448    1W    00000040000002028000000000032AF    HBYHVTB 000000000000UZ129021
BI00B32GE    DHTW2246       2022092218000004530              AV 8 B                   CCN000005000000005000FN00000000020221101000005000NNE   20220819144344    1W    00000010000010466200000000032GE    GEYKHT  000000000000RA129061
BI00B32GE    DHTW2246       2022092218000004534              AV 8 B/W                 CCN000003400000003400FN00000000020221101000003400NNE   20220819144344    1W    00000010000010466200000000032GE    GEYKHT  000000000000RA129063
BI00B32GE    DHTW2246       2022092218000004535              AV 8 B/R                 CCN000006200000006200FN00000000020221101000006200NNE   20220819144344    1W    00000010000010466200000000032GE    GEYKHT  000000000000RA129062
BI00B32GE    DHTW2246       2022092218000004540              AV 8 W                   CCN000001600000001600FN00000000020221101000001600NNE   20220819144344    1W    00000010000010466200000000032GE    GEYKHT  000000000000RA129065
BI00B32GE    DHTW2246       2022092218000004543              AV 8 W/B                 CCN000007600000007600FN00000000020221101000007600NNE   20220819144344    1W    00000010000010466200000000032GE    GEYKHT  000000000000RA129066
BI00B32GE    DHTW2246       2022092218000004550              AV 8 R                   CCN000000800000000800FN00000000020221101000000800NNE   20220819144344    1W    00000010000010466200000000032GE    GEYKHT  000000000000RA129064
BI00B32GE    @DHTW2246      20220922181AD2002ZZ              CIVUSAS-S 0.35X2 B       CCN000018900000018900FN00000000020221101000018900NNE   20220819144343    1W    00000045000001713700000000032GE    GEYKHT  000000000000RA129032
BI00B32GE    @DHTW2246      20220922181AD2003ZZ              CIVUSAS-S 0.35X3 B       CCN000007500000007700FN00000000020221101000007700NNE   20220819144343    1W    00000035000002172100000000032GE    GEYKHT  000000000000RA129033
BI00B32GE    @DHTW2246      20220922181AD2004ZZ              CIVUSAS-S 0.35X4 B       CCN000024800000024900FN00000000020221101000024900NNE   20220819144343    1W    00000030000002799900000000032GE    GEYKHT  000000000000RA129034
BI00B32GE    @DHTW2246      20220922181E48031ZZ              CAVSAS-S 0.3X2 GY        CCN000008400000008400FN00000000020221101000008400NNE   20220819144343    1W    00000035000002008700000000032GE    GEYKHT  000000000000RA129035
BI00B32GE    @DHTW2246      20220922181E48037ZZ              CAVSAS-S 0.3X4 GY        CCN000008000000008000FN00000000020221101000008000NNE   20220819144343    1W    00000025000003262000000000032GE    GEYKHT  000000000000RA129037
BI00B32GE    @DHTW2246      20220922181E48041ZZ              CAVSAS-S 0.3X2 GY/R      CCN000010150000010150FN00000000020221101000010150NNE   20220819144343    1W    00000035000002008700000000032GE    GEYKHT  000000000000RA129036
BI00B32GE    @DHTW2246      20220922181E50002ZZ              AVSSCS-S 0.3FX2 DGY/G    CCN000009450000009450FN00000000020221101000009450NNE   20220819144343    1W    00000035000002165000000000032GE    GEYKHT  000000000000RA129044
BI00B32GE    @DHTW2246      20220922181E50004ZZ              AVSSCS-S 0.5FX1 DGY      CCN000012800000012800FN00000000020221101000012800NNE   20220819144343    1W    00000040000001909700000000032GE    GEYKHT  000000000000RA129038
BI00B32GE    @DHTW2246      20220922181E50005ZZ              AVSSCS-S 0.5FX1 DGY/W    CCN000005200000005200FN00000000020221101000005200NNE   20220819144343    1W    00000040000001909700000000032GE    GEYKHT  000000000000RA129040
BI00B32GE    @DHTW2246      20220922181E50006ZZ              AVSSCS-S 0.5FX1 DGY/Y    CCN000001600000001600FN00000000020221101000001600NNE   20220819144343    1W    00000040000001909700000000032GE    GEYKHT  000000000000RA129041
BI00B32GE    @DHTW2246      20220922181E50007ZZ              AVSSCS-S 0.5FX1 DGY/L    CCN000008000000008000FN00000000020221101000008000NNE   20220819144343    1W    00000040000001909700000000032GE    GEYKHT  000000000000RA129039
BI00B32GE    @DHTW2246      20220922181E50016ZZ              AVSSCS-S 0.5FX2 DGY/R    CCN000001500000001500FN00000000020221101000001500NNE   20220819144343    1W    00000030000003096000000000032GE    GEYKHT  000000000000RA129042
BI00B32GE    @DHTW2246      20220922181E50020ZZ              AVSSCS-S 0.3FX2 DGY/R    CCN000006650000006650FN00000000020221101000006650NNE   20220819144343    1W    00000035000002165000000000032GE    GEYKHT  000000000000RA129046
BI00B32GE    @DHTW2246      20220922181E50021ZZ              AVSSCS-S 0.3FX2 DGY/P    CCN000007350000007350FN00000000020221101000007350NNE   20220819144343    1W    00000035000002165000000000032GE    GEYKHT  000000000000RA129045
BI00B32GE    @DHTW2246      20220922181E50036ZZ              AVSSCS-S 0.3FX2 DGY      CCN000009800000009800FN00000000020221101000009800NNE   20220819144343    1W    00000035000002165000000000032GE    GEYKHT  000000000000RA129043
BI00B32GE    @DHTW2246      20220922181F21014ZZ              AVSSHCS-S 0.5FX2 B/L     CCN000002400000002400FN00000000020221101000002400NNE   20220819144343    1W    00000030000002531400000000032GE    GEYKHT  000000000000RA129047
BI00B32J1    @397486        20220912181AD2001ZZ              CIVUSAS-S 0.35X1 B       CCN000068200000068200FN00000000020220901000068200NNM   20220819142415    1W    00000055000001540800000000032J1    UKYEL-BL000000000000KG528001
BI00B32J1    @397486        20220912181AD2002ZZ              CIVUSAS-S 0.35X2 B       CCN000000450000000450FN00000000020220901000000450NNM   20220819142415    1W    00000045000001713700000000032J1    UKYEL-BL000000000000KG528003
BI00B32J1    @397486        20220912181AD2009ZZ              CIVUSAS-S 0.5X3 B        CCN000000300000000300FN00000000020220901000000300NNM   20220819142415    1W    00000030000002716800000000032J1    UKYEL-BL000000000000KG528002
BI00B32N1    NST2121C-1     20220908180D0204161              AVSSH 1.25F LG           CCN000000800000000800FN00000000020200801000000800NNE   20220819144146    1W    00000080000001458000000000032N1    TAYIPL  000000000000XR428002
BI00B32N1    NST2121C-1     20220908180D0204190              AVSSH 1.25F L            CCN000000800000000800FN00000000020200801000000800NNE   20220819144146    1W    00000080000001458000000000032N1    TAYIPL  000000000000XR428001
BI00A32P8    POTA-2208A     202208221801W004140              IVSSH 1.25F W            CCN000000800000000800FN00000000020220801000000800NNE   20220819132143    1W    00000080000001405000000000032P8    YIYTM   000000000000YD228001
BI00A32P8    POTA-2208A     202208221801W004291              IVSSH 2F SB              CCN000000550000000550FN00000000020220801000000550NNE   20220819132143    1W    00000055000002091100000000032P8    YIYTM   000000000000YD228002
BI00A32P8    POTA-2208A     202208221801W004343              IVSSH 3 W/B              CCN000000350000000350FN00000000020220801000000350NNE   20220819132143    1W    00000035000003173100000000032P8    YIYTM   000000000000YD228003
BI00B32W4    4500199011     2022090618001403960              AV 0.5F G                CCN000001000000001000FN00000000020220901000001000NNE   20220819143417W41 1W    00000100000000903000000000032W41   HJYHK-J 000000000000OP428001
BI00B32W4    4500199011     2022090618001403964              AV 0.5F G/W              CCN000002000000002000FN00000000020220901000002000NNE   20220819143417W41 1W    00000100000000903000000000032W41   HJYHK-J 000000000000OP428002
BI00T32W4    4500198835     202210251801R703943              CIVUS 0.5 W/B            CCN000211200000211200FN00000000020221001000211200NNE   20220819145756W4K81W    00000220000000525000000000032W4K8  HJYHK-J 000000000000OH22A033
BI00T32W4    4500198835     202210251801R703961              CIVUS 0.5 LG             CCN000110000000110000FN00000000020221001000110000NNE   20220819145756W4K81W    00000220000000525000000000032W4K8  HJYHK-J 000000000000OH22A027
BI00T32W4    4500198835     202210251801R703980              CIVUS 0.5 BR             CCN000110000000110000FN00000000020221001000110000NNE   20220819145756W4K81W    00000220000000525000000000032W4K8  HJYHK-J 000000000000OH22A023
BI00T32W4    4500198835     202210251801R704130              CIVUS 1.25 B             CCN000045000000045000FN00000000020221001000045000NNE   20220819145756W4K81W    00000100000001228000000000032W4K8  HJYHK-J 000000000000OH22A038
BI00T32W4    4500198835     202210251801R704143              CIVUS 1.25 W/B           CCN000045000000045000FN00000000020221001000045000NNE   20220819145756W4K81W    00000100000001228000000000032W4K8  HJYHK-J 000000000000OH22A048
BI00T32W4    4500198835     2022102518018404130              CAVS 1.25 B              CCN000041600000041600FN00000000020221001000041600NNE   20220819145756W4K81W    00000080000001378000000000032W4K8  HJYHK-J 000000000000OH22A101
BI00T32W4    4500198835     2022102518018404141              CAVS 1.25 GY             CCN000039200000039200FN00000000020221001000039200NNE   20220819145756W4K81W    00000080000001378000000000032W4K8  HJYHK-J 000000000000OH22A102
BI00T32W4    4500198835     2022102518018404143              CAVS 1.25 W/B            CCN000039200000039200FN00000000020221001000039200NNE   20220819145756W4K81W    00000080000001378000000000032W4K8  HJYHK-J 000000000000OH22A108
BI00T32W4    4500198835     202210251801R706940              CIVUS 0.35 W             CCN000129000000129000FN00000000020221001000129000NNE   20220819145756W4K81W    00000300000000386000000000032W4K8  HJYHK-J 000000000000OH22A060
BI00T32W4    4500198835     2022102518018403961              CAVS 0.5 LG              CCN000073500000073500FN00000000020221001000073500NNE   20220819145756W4K81W    00000150000000677000000000032W4K8  HJYHK-J 000000000000OH22A087
BI00T32W4    4500198835     202210251801R706973              CIVUS 0.35 Y/B           CCN000111000000111000FN00000000020221001000111000NNE   20220819145756W4K81W    00000300000000386000000000032W4K8  HJYHK-J 000000000000OH22A063
BI00T32W4    4500198835     202210251801R706990              CIVUS 0.35 L             CCN000111000000111000FN00000000020221001000111000NNE   20220819145756W4K81W    00000300000000386000000000032W4K8  HJYHK-J 000000000000OH22A054
BI00T32W4    4500198835     2022102518018404146              CAVS 1.25 W/G            CCN000030400000030400FN00000000020221001000030400NNE   20220819145756W4K81W    00000080000001378000000000032W4K8  HJYHK-J 000000000000OH22A109
BI00T32W4    4500198835     202210251801R706941              CIVUS 0.35 GY            CCN000102000000102000FN00000000020221001000102000NNE   20220819145756W4K81W    00000300000000386000000000032W4K8  HJYHK-J 000000000000OH22A053
BI00T32W4    4500198835     2022102518018403991              CAVS 0.5 SB              CCN000063000000063000FN00000000020221001000063000NNE   20220819145756W4K81W    00000150000000677000000000032W4K8  HJYHK-J 000000000000OH22A091
BI00T32W4    4500198835     2022102518018403930              CAVS 0.5 B               CCN000063000000063000FN00000000020221001000063000NNE   20220819145756W4K81W    00000150000000677000000000032W4K8  HJYHK-J 000000000000OH22A078
BI00T32W4    4500198835     202210251801R706980              CIVUS 0.35 BR            CCN000093000000093000FN00000000020221001000093000NNE   20220819145756W4K81W    00000300000000386000000000032W4K8  HJYHK-J 000000000000OH22A051
BI00T32W4    4500198835     202210251801R703930              CIVUS 0.5 B              CCN000059400000059400FN00000000020221001000059400NNE   20220819145756W4K81W    00000220000000525000000000032W4K8  HJYHK-J 000000000000OH22A021
BI00T32W4    4500198835     202210251801R706960              CIVUS 0.35 G             CCN000084000000084000FN00000000020221001000084000NNE   20220819145756W4K81W    00000300000000386000000000032W4K8  HJYHK-J 000000000000OH22A052
BI00T32W4    4500198835     2022102518018403941              CAVS 0.5 GY              CCN000052500000052500FN00000000020221001000052500NNE   20220819145756W4K81W    00000150000000677000000000032W4K8  HJYHK-J 000000000000OH22A083
BI00T32W4    4500198835     202210251801R703991              CIVUS 0.5 SB             CCN000057200000057200FN00000000020221001000057200NNE   20220819145756W4K81W    00000220000000525000000000032W4K8  HJYHK-J 000000000000OH22A030
BI00T32W4    4500198835     2022102518018404192              CAVS 1.25 V              CCN000023200000023200FN00000000020221001000023200NNE   20220819145756W4K81W    00000080000001378000000000032W4K8  HJYHK-J 000000000000OH22A106
BI00T32W4    4500198835     202210251801R706930              CIVUS 0.35 B             CCN000078000000078000FN00000000020221001000078000NNE   20220819145756W4K81W    00000300000000386000000000032W4K8  HJYHK-J 000000000000OH22A049
BI00T32W4    4500198835     2022102518018403970              CAVS 0.5 Y               CCN000048000000048000FN00000000020221001000048000NNE   20220819145756W4K81W    00000150000000677000000000032W4K8  HJYHK-J 000000000000OH22A095
BI00T32W4    4500198835     2022102518018403943              CAVS 0.5 W/B             CCN000048000000048000FN00000000020221001000048000NNE   20220819145756W4K81W    00000150000000677000000000032W4K8  HJYHK-J 000000000000OH22A094
BI00T32W4    4500198835     2022102518018403960              CAVS 0.5 G               CCN000046500000046500FN00000000020221001000046500NNE   20220819145756W4K81W    00000150000000677000000000032W4K8  HJYHK-J 000000000000OH22A081
BI00T32W4    4500198835     202210251801R706991              CIVUS 0.35 SB            CCN000069000000069000FN00000000020221001000069000NNE   20220819145756W4K81W    00000300000000386000000000032W4K8  HJYHK-J 000000000000OH22A058
BI00T32W4    4500198835     2022102518018403952              CAVS 0.5 P               CCN000043500000043500FN00000000020221001000043500NNE   20220819145756W4K81W    00000150000000677000000000032W4K8  HJYHK-J 000000000000OH22A088
BI00T32W4    4500198835     2022102518018403990              CAVS 0.5 L               CCN000043500000043500FN00000000020221001000043500NNE   20220819145756W4K81W    00000150000000677000000000032W4K8  HJYHK-J 000000000000OH22A084
BI00T32W4    4500198835     2022102518007704243              AVSS 2F W/B              CCN000012500000012500FN00000000020221001000012500NNE   20220819145756W4K81W    00000050000002126400000000032W4K8  HJYHK-J 000000000000OH22A020
BI00T32W4    4500198835     202210251801R703941              CIVUS 0.5 GY             CCN000046200000046200FN00000000020221001000046200NNE   20220819145756W4K81W    00000220000000525000000000032W4K8  HJYHK-J 000000000000OH22A025
BI00T32W4    4500198835     202210251801R70695U              CIVUS 0.35 BE            CCN000063000000063000FN00000000020221001000063000NNE   20220819145756W4K81W    00000300000000386000000000032W4K8  HJYHK-J 000000000000OH22A050
BI00T32W4    4500198835     2022102518018404152              CAVS 1.25 P              CCN000018400000018400FN00000000020221001000018400NNE   20220819145756W4K81W    00000080000001378000000000032W4K8  HJYHK-J 000000000000OH22A104
BI00T32W4    4500198835     2022102518018404145              CAVS 1.25 W/R            CCN000018400000018400FN00000000020221001000018400NNE   20220819145756W4K81W    00000080000001378000000000032W4K8  HJYHK-J 000000000000OH22A110
BI00T32W4    4500198835     202210251801R703940              CIVUS 0.5 W              CCN000044000000044000FN00000000020221001000044000NNE   20220819145756W4K81W    00000220000000525000000000032W4K8  HJYHK-J 000000000000OH22A032
BI00T32W4    4500198835     202210251801R704140              CIVUS 1.25 W             CCN000018000000018000FN00000000020221001000018000NNE   20220819145756W4K81W    00000100000001228000000000032W4K8  HJYHK-J 000000000000OH22A047
BI00T32W4    4500198835     2022102518018403940              CAVS 0.5 W               CCN000037500000037500FN00000000020221001000037500NNE   20220819145756W4K81W    00000150000000677000000000032W4K8  HJYHK-J 000000000000OH22A093
BI00T32W4    4500198835     2022102518007704230              AVSS 2F B                CCN000011000000011000FN00000000020221001000011000NNE   20220819145756W4K81W    00000050000002126400000000032W4K8  HJYHK-J 000000000000OH22A015
BI00T32W4    4500198835     202210251801R706952              CIVUS 0.35 P             CCN000057000000057000FN00000000020221001000057000NNE   20220819145756W4K81W    00000300000000386000000000032W4K8  HJYHK-J 000000000000OH22A056
BI00T32W4    4500198835     202210251801R703990              CIVUS 0.5 L              CCN000039600000039600FN00000000020221001000039600NNE   20220819145756W4K81W    00000220000000525000000000032W4K8  HJYHK-J 000000000000OH22A026
BI00T32W4    4500198835     202210251801R70395U              CIVUS 0.5 BE             CCN000039600000039600FN00000000020221001000039600NNE   20220819145756W4K81W    00000220000000525000000000032W4K8  HJYHK-J 000000000000OH22A022
BI00T32W4    4500198835     202210251801R706992              CIVUS 0.35 V             CCN000051000000051000FN00000000020221001000051000NNE   20220819145756W4K81W    00000300000000386000000000032W4K8  HJYHK-J 000000000000OH22A059
BI00T32W4    4500198835     202210251801R704180              CIVUS 1.25 BR            CCN000015000000015000FN00000000020221001000015000NNE   20220819145756W4K81W    00000100000001228000000000032W4K8  HJYHK-J 000000000000OH22A040
BI00T32W4    4500198835     202210251801R704161              CIVUS 1.25 LG            CCN000015000000015000FN00000000020221001000015000NNE   20220819145756W4K81W    00000100000001228000000000032W4K8  HJYHK-J 000000000000OH22A042
BI00T32W4    4500198835     202210251801R70415U              CIVUS 1.25 BE            CCN000015000000015000FN00000000020221001000015000NNE   20220819145756W4K81W    00000100000001228000000000032W4K8  HJYHK-J 000000000000OH22A039
BI00T32W4    4500198835     2022102518007704260              AVSS 2F G                CCN000009000000009000FN00000000020221001000009000NNE   20220819145756W4K81W    00000050000002126400000000032W4K8  HJYHK-J 000000000000OH22A017
BI00T32W4    4500198835     2022102518007704240              AVSS 2F W                CCN000009000000009000FN00000000020221001000009000NNE   20220819145756W4K81W    00000050000002126400000000032W4K8  HJYHK-J 000000000000OH22A019
BI00T32W4    4500198835     2022102518018404140              CAVS 1.25 W              CCN000013600000013600FN00000000020221001000013600NNE   20220819145756W4K81W    00000080000001378000000000032W4K8  HJYHK-J 000000000000OH22A107
BI00T32W4    4500198835     2022102518007704290              AVSS 2F L                CCN000008000000008000FN00000000020221001000008000NNE   20220819145756W4K81W    00000050000002126400000000032W4K8  HJYHK-J 000000000000OH22A018
BI00T32W4    4500198835     202210251801R706943              CIVUS 0.35 W/B           CCN000042000000042000FN00000000020221001000042000NNE   20220819145756W4K81W    00000300000000386000000000032W4K8  HJYHK-J 000000000000OH22A061
BI00T32W4    4500198835     2022102518018404150              CAVS 1.25 R              CCN000012000000012000FN00000000020221001000012000NNE   20220819145756W4K81W    00000080000001378000000000032W4K8  HJYHK-J 000000000000OH22A105
BI00T32W4    4500198835     2022102518018404090              CAVS 0.85 L              CCN000017000000017000FN00000000020221001000017000NNE   20220819145756W4K81W    00000100000000965000000000032W4K8  HJYHK-J 000000000000OH22A096
BI00T32W4    4500198835     2022102518018403954              CAVS 0.5 R/W             CCN000025500000025500FN00000000020221001000025500NNE   20220819145756W4K81W    00000150000000677000000000032W4K8  HJYHK-J 000000000000OH22A090
BI00T32W4    4500198835     202210251801R703952              CIVUS 0.5 P              CCN000026400000026400FN00000000020221001000026400NNE   20220819145756W4K81W    00000220000000525000000000032W4K8  HJYHK-J 000000000000OH22A028
BI00T32W4    4500198835     2022102518018403992              CAVS 0.5 V               CCN000024000000024000FN00000000020221001000024000NNE   20220819145756W4K81W    00000150000000677000000000032W4K8  HJYHK-J 000000000000OH22A092
BI00T32W4    4500198835     202210251801R704061              CIVUS 0.75 LG            CCN000018000000018000FN00000000020221001000018000NNE   20220819145756W4K81W    00000150000000765000000000032W4K8  HJYHK-J 000000000000OH22A036
BI00T32W4    4500198835     2022102518018403934              CAVS 0.5 B/W             CCN000022500000022500FN00000000020221001000022500NNE   20220819145756W4K81W    00000150000000677000000000032W4K8  HJYHK-J 000000000000OH22A079
BI00T32W4    4500198835     2022102518018403790              CAVS 0.3 L               CCN000032000000032000FN00000000020221001000032000NNE   20220819145756W4K81W    00000200000000471000000000032W4K8  HJYHK-J 000000000000OH22A068
BI00T32W4    4500198835     202210251801R704150              CIVUS 1.25 R             CCN000010000000010000FN00000000020221001000010000NNE   20220819145756W4K81W    00000100000001228000000000032W4K8  HJYHK-J 000000000000OH22A044
BI00T32W4    4500198835     202210251801R704191              CIVUS 1.25 SB            CCN000009000000009000FN00000000020221001000009000NNE   20220819145756W4K81W    00000100000001228000000000032W4K8  HJYHK-J 000000000000OH22A045
BI00T32W4    4500198835     202210251801R703960              CIVUS 0.5 G              CCN000019800000019800FN00000000020221001000019800NNE   20220819145756W4K81W    00000220000000525000000000032W4K8  HJYHK-J 000000000000OH22A024
BI00T32W4    4500198835     202210251801R704192              CIVUS 1.25 V             CCN000008000000008000FN00000000020221001000008000NNE   20220819145756W4K81W    00000100000001228000000000032W4K8  HJYHK-J 000000000000OH22A046
BI00T32W4    4500198835     2022102518018403980              CAVS 0.5 BR              CCN000016500000016500FN00000000020221001000016500NNE   20220819145756W4K81W    00000150000000677000000000032W4K8  HJYHK-J 000000000000OH22A080
BI00T32W4    4500198835     2022102518018403760              CAVS 0.3 G               CCN000024000000024000FN00000000020221001000024000NNE   20220819145756W4K81W    00000200000000471000000000032W4K8  HJYHK-J 000000000000OH22A066
BI00T32W4    4500198835     2022102518018404061              CAVS 0.85 LG             CCN000010000000010000FN00000000020221001000010000NNE   20220819145756W4K81W    00000100000000965000000000032W4K8  HJYHK-J 000000000000OH22A097
BI00T32W4    4500198835     2022102518018404092              CAVS 0.85 V              CCN000010000000010000FN00000000020221001000010000NNE   20220819145756W4K81W    00000100000000965000000000032W4K8  HJYHK-J 000000000000OH22A099
BI00T32W4    4500198835     2022102518018403730              CAVS 0.3 B               CCN000022000000022000FN00000000020221001000022000NNE   20220819145756W4K81W    00000200000000471000000000032W4K8  HJYHK-J 000000000000OH22A064
BI00T32W4    4500198835     2022102518018403740              CAVS 0.3 W               CCN000022000000022000FN00000000020221001000022000NNE   20220819145756W4K81W    00000200000000471000000000032W4K8  HJYHK-J 000000000000OH22A075
BI00T32W4    4500198835     2022102518018403950              CAVS 0.5 R               CCN000015000000015000FN00000000020221001000015000NNE   20220819145756W4K81W    00000150000000677000000000032W4K8  HJYHK-J 000000000000OH22A089
BI00T32W4    4500198835     202210251801R704030              CIVUS 0.75 B             CCN000009000000009000FN00000000020221001000009000NNE   20220819145756W4K81W    00000150000000765000000000032W4K8  HJYHK-J 000000000000OH22A034
BI00T32W4    4500198835     2022102518018404161              CAVS 1.25 LG             CCN000006400000006400FN00000000020221001000006400NNE   20220819145756W4K81W    00000080000001378000000000032W4K8  HJYHK-J 000000000000OH22A103
BI00T32W4    4500198835     2022102518018403741              CAVS 0.3 GY              CCN000020000000020000FN00000000020221001000020000NNE   20220819145756W4K81W    00000200000000471000000000032W4K8  HJYHK-J 000000000000OH22A067
BI00T32W4    4500198835     2022102518018403995              CAVS 0.5 L/R             CCN000013500000013500FN00000000020221001000013500NNE   20220819145756W4K81W    00000150000000677000000000032W4K8  HJYHK-J 000000000000OH22A085
BI00T32W4    4500198835     202210251801R704190              CIVUS 1.25 L             CCN000006000000006000FN00000000020221001000006000NNE   20220819145756W4K81W    00000100000001228000000000032W4K8  HJYHK-J 000000000000OH22A041
BI00T32W4    4500198835     2022102518018403707              CAVS 0.3 P/B             CCN000018000000018000FN00000000020221001000018000NNE   20220819145756W4K81W    00000200000000471000000000032W4K8  HJYHK-J 000000000000OH22A070
BI00T32W4    4500198835     2022102518018403750              CAVS 0.3 R               CCN000018000000018000FN00000000020221001000018000NNE   20220819145756W4K81W    00000200000000471000000000032W4K8  HJYHK-J 000000000000OH22A072
BI00T32W4    4500198835     2022102518018404043              CAVS 0.85 W/B            CCN000008000000008000FN00000000020221001000008000NNE   20220819145756W4K81W    00000100000000965000000000032W4K8  HJYHK-J 000000000000OH22A100
BI00T32W4    4500198835     2022102518018404052              CAVS 0.85 P              CCN000008000000008000FN00000000020221001000008000NNE   20220819145756W4K81W    00000100000000965000000000032W4K8  HJYHK-J 000000000000OH22A098
BI00T32W4    4500198835     202210251801R703992              CIVUS 0.5 V              CCN000013200000013200FN00000000020221001000013200NNE   20220819145756W4K81W    00000220000000525000000000032W4K8  HJYHK-J 000000000000OH22A031
BI00T32W4    4500198835     2022102518018403964              CAVS 0.5 G/W             CCN000012000000012000FN00000000020221001000012000NNE   20220819145756W4K81W    00000150000000677000000000032W4K8  HJYHK-J 000000000000OH22A082
BI00T32W4    4500198835     202210251801R706950              CIVUS 0.35 R             CCN000018000000018000FN00000000020221001000018000NNE   20220819145756W4K81W    00000300000000386000000000032W4K8  HJYHK-J 000000000000OH22A057
BI00T32W4    4500198835     202210251801R706961              CIVUS 0.35 LG            CCN000015000000015000FN00000000020221001000015000NNE   20220819145756W4K81W    00000300000000386000000000032W4K8  HJYHK-J 000000000000OH22A055
BI00T32W4    4500198835     20221025180T8403970              ACCAVS 0.5 Y             CCN000009000000009000FN00000000020221001000009000NNE   20220819145756W4K81W    00000150000000674300000000032W4K8  HJYHK-J 000000000000OH22A003
BI00T32W4    4500198835     20221025180T8403973              ACCAVS 0.5 Y/B           CCN000009000000009000FN00000000020221001000009000NNE   20220819145756W4K81W    00000150000000674300000000032W4K8  HJYHK-J 000000000000OH22A004
BI00T32W4    4500198835     2022102518007704195              AVSS 1.25F L/R           CCN000004000000004000FN00000000020221001000004000NNE   20220819145756W4K81W    00000080000001389000000000032W4K8  HJYHK-J 000000000000OH22A013
BI00T32W4    4500198835     2022102518018403792              CAVS 0.3 V               CCN000012000000012000FN00000000020221001000012000NNE   20220819145756W4K81W    00000200000000471000000000032W4K8  HJYHK-J 000000000000OH22A074
BI00T32W4    4500198835     202210251801R704052              CIVUS 0.75 P             CCN000006000000006000FN00000000020221001000006000NNE   20220819145756W4K81W    00000150000000765000000000032W4K8  HJYHK-J 000000000000OH22A037
BI00T32W4    4500198835     2022102518007704194              AVSS 1.25F L/W           CCN000003200000003200FN00000000020221001000003200NNE   20220819145756W4K81W    00000080000001389000000000032W4K8  HJYHK-J 000000000000OH22A014
BI00T32W4    4500198835     2022102518018403734              CAVS 0.3 B/W             CCN000010000000010000FN00000000020221001000010000NNE   20220819145756W4K81W    00000200000000471000000000032W4K8  HJYHK-J 000000000000OH22A065
BI00T32W4    4500198835     2022102518018403749              CAVS 0.3 W/L             CCN000010000000010000FN00000000020221001000010000NNE   20220819145756W4K81W    00000200000000471000000000032W4K8  HJYHK-J 000000000000OH22A077
BI00T32W4    4500198835     2022102518007703930              AVSS 0.5F B              CCN000006000000006000FN00000000020221001000006000NNE   20220819145756W4K81W    00000150000000674000000000032W4K8  HJYHK-J 000000000000OH22A005
BI00T32W4    4500198835     202210251801R703950              CIVUS 0.5 R              CCN000006600000006600FN00000000020221001000006600NNE   20220819145756W4K81W    00000220000000525000000000032W4K8  HJYHK-J 000000000000OH22A029
BI00T32W4    4500198835     2022102518007704287              AVSS 2F BR/Y             CCN000001500000001500FN00000000020221001000001500NNE   20220819145756W4K81W    00000050000002126400000000032W4K8  HJYHK-J 000000000000OH22A016
BI00T32W4    4500198835     2022102518007703967              AVSS 0.5F G/Y            CCN000004500000004500FN00000000020221001000004500NNE   20220819145756W4K81W    00000150000000674000000000032W4K8  HJYHK-J 000000000000OH22A008
BI00T32W4    4500198835     2022102518007703965              AVSS 0.5F G/R            CCN000004500000004500FN00000000020221001000004500NNE   20220819145756W4K81W    00000150000000674000000000032W4K8  HJYHK-J 000000000000OH22A007
BI00T32W4    4500198835     202210251801R704152              CIVUS 1.25 P             CCN000002000000002000FN00000000020221001000002000NNE   20220819145756W4K81W    00000100000001228000000000032W4K8  HJYHK-J 000000000000OH22A043
