BI00A1200    CE22-MN-0088   202210267327-7026-3W             BATTERY FUSE             CCN000000072000000072FN00000000020221001000000072NNE   20220819121849    4NON  0000000720000114080000000001200    YCYC    005500360039
BI00B32AG    XG22111LMW     202209307388-0314                CONNECTOR ASS'Y          CCN000001200000000000FY00000000020221101000000000NNMQ0820220819144927    4N0N  00000120000001038000001132332AG    XGXGY   005400370024
BI00B32CH    SJ2209B MW     202209087116-2640                TERMINAL                 CCN000018000000018000FN00000000020220901000018000NNE   20220819121849    4P0P  00001800000001018800001196632CH    SJSAMIJF005100280028
BI00B32DE    TCT210B        202209157283-5092                CONNECTOR HOUSING        CCN000001600000000000FY00000000020221001000000000NNEQ0820220819110110    4N0N  00000160000000856000001126732DE    TVYEV-TV005500360039
BI00B32G7    JJ2210B MW     202209157116-4037                TERMINAL                 CCN000006000000006000FN00000000020221001000006000NNE   20220819161534    4P0P  00000600000000600000000894232G7    JIJAI   006400630015
BI00B32G7    JJ2210B MW     202209157116-5044-02             TERMINAL                 CCN000016000000016000FN00000000020221001000016000NNE   20220819161534    4P0P  00001600000000641600000986332G7    JIJAI   006400630017
BI00B32G7    JJ2210B MW     202209157126-8854-02             TERMINAL                 CCN000015000000015000FN00000000020221001000015000NNE   20220819161534    4P0P  00000750000000604500000889732G7    JIJAI   006400630015
BI00B32G7    JJ2210B MW     202209157158-3006-90             RUBBER STOPPER           CCN000040000000040000FN00000000020221001000040000NNE   20220819161534    1C0C  00002000000000330600000386032G7    JIJAI   002700430014
BI00B32G7    JJ2210B MW     202209157158-3070-80             RUBBER STOPPER           CCN000040000000040000FN00000000020221001000040000NNE   20220819161534    1C0C  00004000000000276000000333332G7    JIJAI   002700430014
BI00B32G7    #JJ2210B MW    202209157158-3003-90             RUBBER STOPPER           CCN000040000000040000FN00000000020221001000040000NNE   20220819161529    2C0C  00002000000000250000000306032G7    JIJAI   002700430014
BI00B32G7    JJ2210BMMW     202209157126-8890-02             FUSE TERMINAL            CCN000006000000006000FN00000000020221001000006000NNE   20220819161600    4P0P  00000600000000465000000750232G7    JIJAI   006400630015
BI00B32G7    JJ2210BMMW     202209157126-8891-02             FUSE TERMINAL            CCN000006000000006000FN00000000020221001000006000NNE   20220819161600    4P0P  00000600000000481800000767032G7    JIJAI   006400630015
BI00B32G7    JJ2210BMMW     202209157195-1480-02             TERMINAL MALE            CCN000024000000024000FN00000000020221001000024000NNE   20220819161600    4P0P  00002400000000422400000716632G7    JIJAI   006400630015
BI00B32G7    JJ2210BMMW     202209157196-1938-02             TERMINAL FEMALE          CCN000013500000013500FN00000000020221001000013500NNE   20220819161600    4P0P  00001350000000507600000795832G7    JIJAI   006400630015
BI00B32G7    JJ2210BMMW     202209157289-6518-30             HOUSING FEMALE ASS'Y     CCN000001200000001200FN00000000020221001000001200NNE   20220819161600    1N0N  00000120000000829200001049232G7    JIJAI   005500360039
BI00B32G7    JJ2210BMMW     202209157296-0784-02             TERMINAL ALUMINIUM       CCN000024000000024000FN00000000020221001000024000NNE   20220819161600    4P0P  00002400000000480000000765232G7    JIJAI   006400630015
BI00B32G7    #JJ2210BMMW    202209157172-5631-60             RUBBER STOPPER           CCN000020000000020000FN00000000020221001000020000NNE   20220819161554    2H0H  00002000000000042000000093132G7    JIJAI   004300270014
BI00B32G7    #JJ2210BMMW    202209157287-1915-90             CONNECTOR ASS'Y          CCN000002400000002400FN00000000020221001000002400NNE   20220819161554    2N0N  00000240000000666500000923132G7    JIJAI   005500360039
BI00B32J1    397479         202209127114-1475                TERMINAL                 CCN000081000000081000FN00000000020220901000081000NNM   20220819121849    4P0P  00001350000000480600000774232J1    UKYEL-BL006400630015
BI00B32J1    397479         202209127114-6041                TERMINAL                 CCN000010800000010800FN00000000020220901000010800NNM   20220819121849    4P0P  00000360000000580700000824232J1    UKYEL-BL006400630015
BI00B32J1    397479         202209127116-5045-02             TERMINAL                 CCN000064000000064000FN00000000020220901000064000NNM   20220819121849    4P0P  00001600000000678400001007132J1    UKYEL-BL006400630017
BI00B32J1    397479         202209127116-6042                TERMINAL                 CCN000012000000012000FN00000000020220901000012000NNM   20220819121849    4P0P  00000300000000523800000856132J1    UKYEL-BL006400630015
BI00B32J1    397479         202209127158-3006-90             RUBBER STOPPER           CCN000040000000040000FN00000000020220901000040000NNM   20220819121849    1C0C  00002000000000330600000386032J1    UKYEL-BL002700430014
BI00B32J1    397479         202209127158-3165-90             WIRE SEAL                CCN000080000000080000FN00000000020220901000080000NNM   20220819121849    1C0C  00004000000000124000000172432J1    UKYEL-BL004300270014
BI00B32J1    397479         202209127158-3166-60             WIRE SEAL                CCN002160000002160000FN00000000020220901002160000NNM   20220819121849    1C0C  00004000000000104000000152432J1    UKYEL-BL002700430014
BI00B32J1    397479         202209127158-3167-80             WIRE SEAL                CCN002640000002640000FN00000000020220901002640000NNM   20220819121849    1C0C  00002000000000048000000109032J1    UKYEL-BL002700430014
BI00B32J1    397479         202209127158-3168-80             SEALED                   CCN000860000000860000FN00000000020220901000860000NNM   20220819121849    1C0C  00002000000000044000000092132J1    UKYEL-BL004300260014
BI00B32J1    397479         202209127196-1461-02             TERMINAL FEMALE          CCN000144000000144000FN00000000020220901000144000NNM   20220819121849    4P0P  00002400000000386400000671632J1    UKYEL-BL006400630015
BI00B32J1    397479         202209127196-1461-06             TERMINAL FEMALE          CCN000048000000048000FN00000000020220901000048000NNM   20220819121849    4P0P  00002400000000386400000692932J1    UKYEL-BL006400630015
BI00B32J1    397479         202209127282-5574-10             CONNECTOR                CCN000012000000012000FN00000000020220901000012000NNM   20220819121849    4N0N  00000080000001235000001423032J1    UKYEL-BL005600390040
BI00B32J1    397479         202209127282-6568-40             CONNECTOR                CCN000005000000005000FN00000000020220901000005000NNM   20220819121849    4N0N  00000100000001206000001370732J1    UKYEL-BL005500360039
BI00B32J1    397479         202209127283-1040                CONNECTOR                CCN000004000000004000FN00000000020220901000004000NNM   20220819121849    4N0N  00000200000000396000000670032J1    UKYEL-BL005600390040
BI00B32J1    397479         202209127283-1968-30             CONNECTOR                CCN000004500000004500FN00000000020220901000004500NNM   20220819121849    1N0N  00000090000001140000001318332J1    UKYEL-BL005600390040
BI00B32J1    397479         202209127283-5545-10             CONNECTOR                CCN000007200000007200FN00000000020220901000007200NNM   20220819121849    4N0N  00000060000001279000001409232J1    UKYEL-BL005600390040
BI00B32J1    397479         202209127283-5623-60             CONNECTOR                CCN000003200000003200FN00000000020220901000003200NNM   20220819121849    1N0N  00000160000001546000001846332J1    UKYEL-BL005600390040
BI00B32J1    397479         202209127283-5846                HOUSING                  CCN000001500000001500FN00000000020220901000001500NNM   20220819121849    1N0N  00000150000000885000001102032J1    UKYEL-BL005600390040
BI00B32J1    397479         202209127283-8630                CONNECTOR ASS'Y          CCN000012000000012000FN00000000020220901000012000NNM   20220819121849    4N0N  00000600000000540000000701332J1    UKYEL-BL005400370024
BI00B32J1    #397479        202209127047-5344                RETAINER                 CCN000140000000140000FN00000000020220901000140000NNM   20220819121849    2F0F  00001000000000870000001016032J1    UKYEL-BL005600390023
BI00B32J1    #397479        202209127134-4547-30             COVER                    CCN000007500000007500FN00000000020220901000007500NNM   20220819121849    2F0F  00000250000000989000001156732J1    UKYEL-BL005600390040
BI00B32J1    #397479        202209127147-8717-30             CLIP                     CCN000010000000010000FN00000000020220901000010000NNM   20220819121849    2F0F  00000500000000660000000875032J1    UKYEL-BL005600390040
BI00B32J1    #397479        202209127157-3646                RUBBER STOPPER           CCN000020000000020000FN00000000020220901000020000NNM   20220819121849    2H0H  00002000000000184000000255232J1    UKYEL-BL002700430014
BI00B32J1    #397479        202209127158-3120-90             CONNECTOR WIRE SEAL      CCN000220000000220000FN00000000020220901000220000NNM   20220819121849    2C0C  00002000000000136000000194032J1    UKYEL-BL002700430014
BI00B32J1    #397479        202209127282-3243-40             CONNECTOR                CCN000016000000016000FN00000000020220901000016000NNM   20220819121849    2N0N  00000080000001006000001282332J1    UKYEL-BL005600390040
BI00B32J1    #397479        202209127282-6446-40             CONNECTOR                CCN000006000000006000FN00000000020220901000006000NNM   20220819121849    2N0N  00000150000001185000001368032J1    UKYEL-BL005500360039
BI00B32J1    #397479        202209127282-6457-40             CONNECTOR                CCN000006400000006400FN00000000020220901000006400NNM   20220819121849    2N0N  00000080000001137000001421332J1    UKYEL-BL005600390040
BI00B32J1    #397479        202209127282-8395-40             CONNECTOR                CCN000001000000001000FN00000000020220901000001000NNM   20220819121849    2N0N  00000100000001009000001188032J1    UKYEL-BL005500360039
BI00B32J1    #397479        202209127283-8226-30             CONNECTOR                CCN000004000000004000FN00000000020220901000004000NNM   20220819121849    2N0N  00000200000000820000001008032J1    UKYEL-BL005400370024
BI00B32J1    #397479        202209127283-8397-40             CONNECTOR                CCN000009240000009240FN00000000020220901000009240NNM   20220819121849    2N0N  00000154000001007000001222732J1    UKYEL-BL005600390023
BI00B32J1    #397479        202209127283-8398-40             CONNECTOR                CCN000001540000001540FN00000000020220901000001540NNM   20220819121849    2N0N  00000154000001007000001171332J1    UKYEL-BL005600390023
BI00A32J1    #397573        202209057297-2286-30             HOUSING MALE ASS'Y       CCN000002000000002000FN00000000020220801000002000NNED0720220819121849    2N0N  00000200000000691000000776632J1    UKYEL-BL005400370024
BI00B32M3    #SM2209BDMW    202209017189-3031                HOUSING FEMALE           CCN000002400000002400FN00000000020220901000002400NNE   20220819121849    2F0F  00000240000000928800001365832M3    SASAMI  005500360039
BI00B32M3    #SM2209BDMW    202209017198-4979-30             HOUSING FEMALE           CCN000004000000004000FN00000000020220901000004000NNE   20220819121849    2F0F  00000400000000707200000876032M3    SASAMI  005400370024
BI00B32M3    SM2209B MW     202209087114-4030                TERMINAL                 CCN000010500000010500FN00000000020220901000010500NNE   20220819161621    4P0P  00001050000000926100001254732M3    SASAMI  006400630017
BI00B32M3    SM2209B MW     202209087114-4032                TERMINAL                 CCN000007500000007500FN00000000020220901000007500NNE   20220819161621    4P0P  00000750000000735000001063632M3    SASAMI  006400630017
BI00B32M3    SM2209B MW     202209087116-4037                TERMINAL                 CCN000012000000012000FN00000000020220901000012000NNE   20220819161621    4P0P  00000600000000600000000894232M3    SASAMI  006400630015
BI00B32M3    SM2209B MW     202209087116-4114-02             TERMINAL                 CCN000021000000021000FN00000000020220901000021000NNE   20220819161621    4P0P  00001050000000693000000981232M3    SASAMI  006400630015
BI00B32M3    SM2209B MW     202209087116-4231-02             TERMINAL                 CCN000104000000104000FN00000000020220901000104000NNE   20220819161621    4P0P  00002600000000683800001012532M3    SASAMI  006400630017
BI00B32M3    SM2209B MW     202209087116-4415-02             TERMINAL                 CCN000266000000266000FN00000000020220901000266000NNE   20220819161621    4P0P  00003800000000596600000925732M3    SASAMI  006400630017
BI00B32M3    SM2209B MW     202209087116-4416-02             TERMINAL                 CCN000064000000064000FN00000000020220901000064000NNE   20220819161621    4P0P  00003200000000518400000847132M3    SASAMI  006400630017
BI00B32M3    SM2209B MW     202209087116-6041                TERMINAL                 CCN000004500000004500FN00000000020220901000004500NNE   20220819161621    4P0P  00000450000000716000001009632M3    SASAMI  006400630015
BI00B32M3    SM2209B MW     202209087116-6042                TERMINAL                 CCN000003000000003000FN00000000020220901000003000NNE   20220819161621    4P0P  00000300000000523800000856132M3    SASAMI  006400630015
BI00B32M3    SM2209B MW     202209087126-8853-02             TERMINAL                 CCN000037500000037500FN00000000020220901000037500NNE   20220819161621    4P0P  00000750000000562500000847732M3    SASAMI  006400630015
BI00B32M3    SM2209B MW     202209087126-8854-02             TERMINAL                 CCN000015000000015000FN00000000020220901000015000NNE   20220819161621    4P0P  00000750000000604500000889732M3    SASAMI  006400630015
BI00B32M3    SM2209B MW     202209087158-3009-60             RUBBER STOPPER           CCN000040000000040000FN00000000020220901000040000NNE   20220819161621    1C0C  00002000000000338000000386232M3    SASAMI  002700430014
BI00B32M3    SM2209B MW     202209087158-3165-90             WIRE SEAL                CCN000120000000120000FN00000000020220901000120000NNE   20220819161621    1C0C  00004000000000124000000172432M3    SASAMI  004300270014
BI00B32M3    SM2209B MW     202209087282-4577                HOUSING MALE ASS'Y       CCN000009600000009600FN00000000020220901000009600NNE   20220819161621    4N0N  00000240000000964800001174832M3    SASAMI  005500360039
BI00B32M3    SM2209B MW     202209087283-1110                CONNECTOR                CCN000002000000002000FN00000000020220901000002000NNE   20220819161621    4N0N  00000200000000878000001067532M3    SASAMI  005500360039
BI00B32M3    SM2209B MW     202209087283-7526-40             CONNECTOR HOUSING        CCN000001960000001960FN00000000020220901000001960NNE   20220819161621    4N0N  00000196000000989800001248632M3    SASAMI  005500360039
BI00B32M3    SM2209B MW     202209087286-3885                CONNECTOR MALE ASS'Y     CCN000001200000001200FN00000000020220901000001200NNE   20220819161621    1N0N  00000120000000910600001130632M3    SASAMI  005500360039
BI00B32M3    SM2209B MW     202209087287-9234                JOINT CONNECTOR          CCN000009600000009600FN00000000020220901000009600NNE   20220819161621    4N0N  00000960000000893800001184832M3    SASAMI  005500360039
BI00B32M3    #SM2209B MW    202209087158-3008-80             RUBBER STOPPER           CCN000020000000020000FN00000000020220901000020000NNE   20220819161619    2C0C  00002000000000288000000343032M3    SASAMI  004300270014
BI00B32M3    #SM2209B MW    202209087158-3017                RUBBER STOPPER           CCN000010000000010000FN00000000020220901000010000NNE   20220819161619    2C0C  00001000000000375500000435032M3    SASAMI  002700430014
BI00B32M3    #SM2209B MW    202209087183-2418                CONNECTOR HOUSING        CCN000004800000004800FN00000000020220901000004800NNE   20220819161619    2F0F  00000480000000917000001477032M3    SASAMI  005500360039
BI00B32M3    #SM2209B MW    202209087186-8845                HOUSING MALE             CCN000003000000003000FN00000000020220901000003000NNE   20220819161619    2F0F  00000300000000690000000801532M3    SASAMI  005400370024
BI00B32M3    #SM2209B MW    202209087186-8851                HOUSING MALE             CCN000001000000001000FN00000000020220901000001000NNE   20220819161619    2F0F  00000100000000782200000906232M3    SASAMI  005400370024
BI00B32M3    #SM2209B MW    202209087187-8856                HOUSING FEMALE           CCN000002000000002000FN00000000020220901000002000NNE   20220819161619    2F0F  00000200000000820000000931532M3    SASAMI  005400370024
BI00B32M3    SM2209BEMW     202209087289-7213-30             HOUSING FEMALE ASS'Y     CCN000001920000001920FN00000000020220901000001920NNE   20220819161644    4N0N  00000024000001352800001667832M3    SASAMI  005500360039
BI00B32M3    SM2209BHMW     202209087158-3168-80             SEALED                   CCN000020000000020000FN00000000020220901000020000NNE   20220819161701    1C0C  00002000000000044000000092132M3    SASAMI  004300260014
BI00B32M3    SM2209BHMW     202209087298-1853-10             HOUSING FEMALE ASS'Y     CCN000007800000007800FN00000000020220901000007800NNE   20220819161701    4N00  00000390000001240500001405832M3    SASAMI  005400370024
BI00B32M3    #SM2209BHMW    202209087287-8860                HOUSING FEMALE ASS'Y     CCN000025600000025600FN00000000020220901000025600NNE   20220819161700    2N0N  00000160000000693400000853432M3    SASAMI  005400370024
BI00B32M3    SM2209BMMW     202209087116-4115-02             TERMINAL                 CCN000008400000008400FN00000000020220901000008400NNE   20220819161718    4P0P  00000840000000593000000881232M3    SASAMI  006400630015
BI00B32M3    SM2209BMMW     202209087283-1288-10             CONNECTOR HOUSING        CCN000001200000001200FN00000000020220901000001200NNE   20220819161718    1N0N  00000120000001381000001637032M3    SASAMI  005600390040
BI00B32M3    @SM2209BMMW    202209087183-8049                CONNECTOR HOUSING        CCN000004000000004000FN00000000020220901000004000NNE   20220819161716    3F0F  00000400000000583600000740032M3    SASAMI  005400370024
BI00B32M3    SM2209CDMW     202209087116-3153-08             TERMINAL                 CCN000027000000027000FN00000000020220901000027000NNE   20220819161731    4P0P  00002700000000461700000746932M3    SASAMI  006400630015
BI00B32M3    SM2209CDMW     202209087116-3154-08             TERMINAL                 CCN000027000000027000FN00000000020220901000027000NNE   20220819161731    4P0P  00002700000000475200000760432M3    SASAMI  006400630015
BI00B32M3    SM2209CDMW     202209087172-5402-30             SEAL RUBBER              CCN000008000000008000FN00000000020220901000008000NNE   20220819161731    1C0C  00000800000000457600000506032M3    SASAMI  004300270014
BI00B32M3    SM2209CDMW     202209087283-4577                CONNECTOR HOUSING        CCN000014400000014400FN00000000020220901000014400NNE   20220819161731    4N0N  00000480000000916800001136832M3    SASAMI  005500360039
BI00B32M4    #TL2103A       202209157283-5834                CONNECTOR ASS'Y          CCN000003240000003240FN00000000020221001000003240NNE   20220819161806    2N0N  00000324000001296000001849732M4    SISAI   005600390040
BI00B32M4    TP2103A        202209157116-4114-02             TERMINAL                 CCN000010500000010500FN00000000020221001000010500NNE   20220819161819    4P0P  00001050000000693000000981232M4    SISAI   006400630015
BI00B32M4    TP2103A        202209157116-4115-02             TERMINAL                 CCN000008400000008400FN00000000020221001000008400NNE   20220819161819    4P0P  00000840000000593000000881232M4    SISAI   006400630015
BI00B32M4    TP2103A        202209157287-3885-30             HYBRID FEMALE ASS'Y      CCN000004800000004800FN00000000020221001000004800NNE   20220819161819    1N0N  00000240000001029600001249632M4    SISAI   005500360039
BI00B32M4    TP2103A        202209157296-1021-02             TERMINAL ALUMINIUM       CCN000022500000022500FN00000000020221001000022500NNE   20220819161819    4P0P  00002250000000715500001000732M4    SISAI   006400630015
BI00B32M4    TP2103A        202209157296-0784-02             TERMINAL ALUMINIUM       CCN000024000000024000FN00000000020221001000024000NNE   20220819161819    4P0P  00002400000000480000000765232M4    SISAI   006400630015
BI00B32P8    TAPI-2112      202210127158-3169-40             SEALING PLUG             CCN000040000000040000FN00000000020221101000040000NNM   20220819121849    1C0C  00004000000000156000000204132P8    YIYTM   004300260014
BI00B32P8    TAPI-2113      202210197158-3169-40             SEALING PLUG             CCN000120000000120000FN00000000020221101000120000NNM   20220819121849    1C0C  00004000000000156000000204132P8    YIYTM   004300260014
BI00B32P8    TAPI-2114      202210267158-3169-40             SEALING PLUG             CCN000160000000160000FN00000000020221101000160000NNM   20220819121849    1C0C  00004000000000156000000204132P8    YIYTM   004300260014
BI00B32P8    TAPI-2113      202210197158-3006-90             RUBBER STOPPER           CCN000280000000280000FN00000000020221101000280000NNM   20220819121849    1C0C  00002000000000330600000386032P8    YIYTM   002700430014
BI00B32P8    TAPI-2114      202210267158-3006-90             RUBBER STOPPER           CCN000380000000380000FN00000000020221101000380000NNM   20220819121849    1C0C  00002000000000330600000386032P8    YIYTM   002700430014
BI00B32P8    TAPI-2113      202210197158-3009-60             RUBBER STOPPER           CCN000220000000220000FN00000000020221101000220000NNM   20220819121849    1C0C  00002000000000338000000386232P8    YIYTM   002700430014
BI00B32P8    TAPI-2114      202210267158-3009-60             RUBBER STOPPER           CCN000300000000300000FN00000000020221101000300000NNM   20220819121849    1C0C  00002000000000338000000386232P8    YIYTM   002700430014
BI00B32P8    TAPI-2111      202210057158-3165-90             WIRE SEAL                CCN000080000000080000FN00000000020221101000080000NNM   20220819121849    1C0C  00004000000000124000000172432P8    YIYTM   004300270014
BI00B32P8    TAPI-2112      202210127158-3165-90             WIRE SEAL                CCN000200000000200000FN00000000020221101000200000NNM   20220819121849    1C0C  00004000000000124000000172432P8    YIYTM   004300270014
BI00B32P8    TAPI-2113      202210197158-3165-90             WIRE SEAL                CCN000200000000200000FN00000000020221101000200000NNM   20220819121849    1C0C  00004000000000124000000172432P8    YIYTM   004300270014
BI00B32P8    TAPI-2114      202210267158-3165-90             WIRE SEAL                CCN000160000000160000FN00000000020221101000160000NNM   20220819121849    1C0C  00004000000000124000000172432P8    YIYTM   004300270014
BI00B32P8    TAPI-2111      202210057158-3166-60             WIRE SEAL                CCN000080000000080000FN00000000020221101000080000NNM   20220819121849    1C0C  00004000000000104000000152432P8    YIYTM   002700430014
BI00B32P8    TAPI-2112      202210127158-3166-60             WIRE SEAL                CCN000200000000200000FN00000000020221101000200000NNM   20220819121849    1C0C  00004000000000104000000152432P8    YIYTM   002700430014
BI00B32P8    TAPI-2113      202210197158-3166-60             WIRE SEAL                CCN000200000000200000FN00000000020221101000200000NNM   20220819121849    1C0C  00004000000000104000000152432P8    YIYTM   002700430014
BI00B32P8    TAPI-2114      202210267158-3166-60             WIRE SEAL                CCN000160000000160000FN00000000020221101000160000NNM   20220819121849    1C0C  00004000000000104000000152432P8    YIYTM   002700430014
BI00B32P8    TAPI-2112      202210127158-3167-80             WIRE SEAL                CCN000060000000060000FN00000000020221101000060000NNM   20220819121849    1C0C  00002000000000048000000109032P8    YIYTM   002700430014
BI00B32P8    TAPI-2113      202210197158-3167-80             WIRE SEAL                CCN000160000000160000FN00000000020221101000160000NNM   20220819121849    1C0C  00002000000000048000000109032P8    YIYTM   002700430014
BI00B32P8    TAPI-2114      202210267158-3167-80             WIRE SEAL                CCN000180000000180000FN00000000020221101000180000NNM   20220819121849    1C0C  00002000000000048000000109032P8    YIYTM   002700430014
BI00B32P8    TAPI-2113      202210197158-3168-80             SEALED                   CCN000040000000040000FN00000000020221101000040000NNM   20220819121849    1C0C  00002000000000044000000092132P8    YIYTM   004300260014
BI00B32P8    TAPI-2114      202210267158-3168-80             SEALED                   CCN000020000000020000FN00000000020221101000020000NNM   20220819121849    1C0C  00002000000000044000000092132P8    YIYTM   004300260014
BI00B32P8    TAPI-2114      202210267114-1470                TERMINAL                 CCN000066000000066000FN00000000020221101000066000NNM   20220819121849    4P0P  00001650000000544500000838732P8    YIYTM   006400630015
BI00B32P8    TAPI-2113      202210197114-4020                TERMINAL                 CCN000042000000042000FN00000000020221101000042000NNM   20220819121849    4P0P  00002100000000875700001169332P8    YIYTM   006400630015
BI00B32P8    TAPI-2114      202210267114-4020                TERMINAL                 CCN000063000000063000FN00000000020221101000063000NNM   20220819121849    4P0P  00002100000000875700001169332P8    YIYTM   006400630015
BI00B32P8    TAPI-2113      202210197114-4021                TERMINAL                 CCN000015000000015000FN00000000020221101000015000NNM   20220819121849    4P0P  00001500000000670500000964132P8    YIYTM   006400630015
BI00B32P8    TAPI-2114      202210267114-4021                TERMINAL                 CCN000060000000060000FN00000000020221101000060000NNM   20220819121849    4P0P  00001500000000670500000964132P8    YIYTM   006400630015
BI00B32P8    TAPI-2111      202210057114-4100-02             TERMINAL                 CCN000018000000018000FN00000000020221101000018000NNM   20220819121849    4P0P  00001800000000748800001077432P8    YIYTM   006400630017
BI00B32P8    TAPI-2112      202210127114-4100-02             TERMINAL                 CCN000054000000054000FN00000000020221101000054000NNM   20220819121849    4P0P  00001800000000748800001077432P8    YIYTM   006400630017
BI00B32P8    TAPI-2113      202210197114-4100-02             TERMINAL                 CCN000054000000054000FN00000000020221101000054000NNM   20220819121849    4P0P  00001800000000748800001077432P8    YIYTM   006400630017
BI00B32P8    TAPI-2114      202210267114-4100-02             TERMINAL                 CCN000054000000054000FN00000000020221101000054000NNM   20220819121849    4P0P  00001800000000748800001077432P8    YIYTM   006400630017
BI00B32P8    TAPI-2111      202210057114-4101-02             TERMINAL                 CCN000015000000015000FN00000000020221101000015000NNM   20220819121849    4P0P  00001500000000675000001003632P8    YIYTM   006400630017
BI00B32P8    TAPI-2112      202210127114-4101-02             TERMINAL                 CCN000015000000015000FN00000000020221101000015000NNM   20220819121849    4P0P  00001500000000675000001003632P8    YIYTM   006400630017
BI00B32P8    TAPI-2113      202210197114-4101-02             TERMINAL                 CCN000015000000015000FN00000000020221101000015000NNM   20220819121849    4P0P  00001500000000675000001003632P8    YIYTM   006400630017
BI00B32P8    TAPI-2114      202210267114-4101-02             TERMINAL                 CCN000015000000015000FN00000000020221101000015000NNM   20220819121849    4P0P  00001500000000675000001003632P8    YIYTM   006400630017
BI00B32P8    TAPI-2111      202210057114-4110-02             TERMINAL                 CCN000090000000090000FN00000000020221101000090000NNM   20220819121849    4P0P  00001500000000901500001230132P8    YIYTM   006400630017
BI00B32P8    TAPI-2112      202210127114-4110-02             TERMINAL                 CCN000060000000060000FN00000000020221101000060000NNM   20220819121849    4P0P  00001500000000901500001230132P8    YIYTM   006400630017
BI00B32P8    TAPI-2113      202210197114-4110-02             TERMINAL                 CCN000045000000045000FN00000000020221101000045000NNM   20220819121849    4P0P  00001500000000901500001230132P8    YIYTM   006400630017
BI00B32P8    TAPI-2114      202210267114-4110-02             TERMINAL                 CCN000060000000060000FN00000000020221101000060000NNM   20220819121849    4P0P  00001500000000901500001230132P8    YIYTM   006400630017
BI00B32P8    TAPI-2112      202210127114-4111-02             TERMINAL                 CCN000024000000024000FN00000000020221101000024000NNM   20220819121849    4P0P  00001200000000758400001087032P8    YIYTM   006400630017
BI00B32P8    TAPI-2113      202210197114-4111-02             TERMINAL                 CCN000024000000024000FN00000000020221101000024000NNM   20220819121849    4P0P  00001200000000758400001087032P8    YIYTM   006400630017
BI00B32P8    TAPI-2114      202210267114-4111-02             TERMINAL                 CCN000024000000024000FN00000000020221101000024000NNM   20220819121849    4P0P  00001200000000758400001087032P8    YIYTM   006400630017
BI00B32P8    TAPI-2113      202210197114-4112-02             TERMINAL                 CCN000027000000027000FN00000000020221101000027000NNM   20220819121849    4P0P  00000900000000598500000927132P8    YIYTM   006400630017
BI00B32P8    TAPI-2114      202210267114-4112-02             TERMINAL                 CCN000027000000027000FN00000000020221101000027000NNM   20220819121849    4P0P  00000900000000598500000927132P8    YIYTM   006400630017
BI00B32P8    TAPI-2112      202210127114-4415-02             TERMINAL MALE            CCN000027000000027000FN00000000020221101000027000NNM   20220819121849    4P0P  00002700000000429300000717532P8    YIYTM   006400630015
BI00B32P8    TAPI-2113      202210197114-4415-02             TERMINAL MALE            CCN000054000000054000FN00000000020221101000054000NNM   20220819121849    4P0P  00002700000000429300000717532P8    YIYTM   006400630015
BI00B32P8    TAPI-2112      202210127114-4416-02             TERMINAL MALE            CCN000027000000027000FN00000000020221101000027000NNM   20220819121849    4P0P  00002700000000442800000731032P8    YIYTM   006400630015
BI00B32P8    TAPI-2113      202210197114-4416-02             TERMINAL MALE            CCN000054000000054000FN00000000020221101000054000NNM   20220819121849    4P0P  00002700000000442800000731032P8    YIYTM   006400630015
BI00B32P8    TAPI-2114      202210267114-4416-02             TERMINAL MALE            CCN000027000000027000FN00000000020221101000027000NNM   20220819121849    4P0P  00002700000000442800000731032P8    YIYTM   006400630015
BI00B32P8    TAPI-2114      202210267114-4728-02             TERMINAL                 CCN000030000000030000FN00000000020221101000030000NNM   20220819121849    4P0P  00003000000000510000000804232P8    YIYTM   006400630015
BI00B32P8    TAPI-2114      202210267114-4728-08             TERMINAL                 CCN000030000000030000FN00000000020221101000030000NNM   20220819121849    4P0P  00003000000000507000000801232P8    YIYTM   006400630015
BI00B32P8    TAPI-2113      202210197114-4729-02             TERMINAL                 CCN000030000000030000FN00000000020221101000030000NNM   20220819121849    4P0P  00003000000000516000000810232P8    YIYTM   006400630015
BI00B32P8    TAPI-2114      202210267114-4729-02             TERMINAL                 CCN000060000000060000FN00000000020221101000060000NNM   20220819121849    4P0P  00003000000000516000000810232P8    YIYTM   006400630015
BI00B32P8    TAPI-2114      202210267114-5096-02             TERMINAL                 CCN000030000000030000FN00000000020221101000030000NNM   20220819121849    4P0P  00003000000000498000000792232P8    YIYTM   006400630015
BI00B32P8    TAPI-2113      202210197114-5746-02             TERMINAL                 CCN000021000000021000FN00000000020221101000021000NNM   20220819121849    4P0P  00002100000000695100000988732P8    YIYTM   006400630015
BI00B32P8    TAPI-2114      202210267116-1180                TERMINAL                 CCN000019500000019500FN00000000020221101000019500NNM   20220819121849    1P0P  00001950000000618200000903432P8    YIYTM   006400630015
BI00B32P8    TAPI-2114      202210267116-1486-02             TERMINAL                 CCN000066000000066000FN00000000020221101000066000NNM   20220819121849    4P0P  00001650000000655100000940332P8    YIYTM   006400630015
BI00B32P8    TAPI-2113      202210197116-1685-02             TERMINAL                 CCN000024000000024000FN00000000020221101000024000NNM   20220819121849    4P0P  00002400000000897600001065232P8    YIYTM   005100280028
BI00B32P8    TAPI-2114      202210267116-1685-02             TERMINAL                 CCN000024000000024000FN00000000020221101000024000NNM   20220819121849    4P0P  00002400000000897600001065232P8    YIYTM   005100280028
BI00B32P8    TAPI-2112      202210127116-2640                TERMINAL                 CCN000018000000018000FN00000000020221101000018000NNM   20220819121849    4P0P  00001800000001018800001196632P8    YIYTM   005100280028
BI00B32P8    TAPI-2113      202210197116-2640                TERMINAL                 CCN000054000000054000FN00000000020221101000054000NNM   20220819121849    4P0P  00001800000001018800001196632P8    YIYTM   005100280028
BI00B32P8    TAPI-2114      202210267116-2640                TERMINAL                 CCN000054000000054000FN00000000020221101000054000NNM   20220819121849    4P0P  00001800000001018800001196632P8    YIYTM   005100280028
BI00B32P8    TAPI-2114      202210267116-2641                TERMINAL                 CCN000018000000018000FN00000000020221101000018000NNM   20220819121849    4P0P  00001800000001161000001344632P8    YIYTM   005100280028
BI00B32P8    TAPI-2113      202210197116-2870                TERMINAL                 CCN000012000000012000FN00000000020221101000012000NNM   20220819121849    1P0P  00001200000000783600001020232P8    YIYTM   005100280028
BI00B32P8    TAPI-2114      202210267116-2871                TERMINAL                 CCN000012000000012000FN00000000020221101000012000NNM   20220819121849    1P0P  00001200000000842400001072632P8    YIYTM   005100280028
BI00B32P8    TAPI-2112      202210127116-2891-02             TERMINAL                 CCN000015000000015000FN00000000020221101000015000NNM   20220819121849    4P0P  00001500000000982500001145932P8    YIYTM   005100280028
BI00B32P8    TAPI-2113      202210197116-2891-02             TERMINAL                 CCN000015000000015000FN00000000020221101000015000NNM   20220819121849    4P0P  00001500000000982500001145932P8    YIYTM   005100280028
BI00B32P8    TAPI-2112      202210127116-2893-02             TERMINAL                 CCN000012000000012000FN00000000020221101000012000NNM   20220819121849    4P0P  00001200000000895200001058632P8    YIYTM   005100280028
BI00B32P8    TAPI-2113      202210197116-2893-02             TERMINAL                 CCN000012000000012000FN00000000020221101000012000NNM   20220819121849    4P0P  00001200000000895200001058632P8    YIYTM   005100280028
BI00B32P8    TAPI-2114      202210267116-2893-02             TERMINAL                 CCN000012000000012000FN00000000020221101000012000NNM   20220819121849    4P0P  00001200000000895200001058632P8    YIYTM   005100280028
BI00B32P8    TAPI-2111      202210057116-2951                TERMINAL                 CCN000005400000005400FN00000000020221101000005400NNM   20220819121849    4P0P  00000540000000815900001110132P8    YIYTM   006400630015
BI00B32P8    TAPI-2112      202210127116-2951                TERMINAL                 CCN000005400000005400FN00000000020221101000005400NNM   20220819121849    4P0P  00000540000000815900001110132P8    YIYTM   006400630015
BI00B32P8    TAPI-2113      202210197116-2951                TERMINAL                 CCN000005400000005400FN00000000020221101000005400NNM   20220819121849    4P0P  00000540000000815900001110132P8    YIYTM   006400630015
BI00B32P8    TAPI-2114      202210267116-2951                TERMINAL                 CCN000005400000005400FN00000000020221101000005400NNM   20220819121849    4P0P  00000540000000815900001110132P8    YIYTM   006400630015
BI00B32P8    TAPI-2111      202210057116-2951-02             TERMINAL                 CCN000021600000021600FN00000000020221101000021600NNM   20220819121849    4P0P  00000540000000817600001111832P8    YIYTM   006400630015
BI00B32P8    TAPI-2112      202210127116-2951-02             TERMINAL                 CCN000010800000010800FN00000000020221101000010800NNM   20220819121849    4P0P  00000540000000817600001111832P8    YIYTM   006400630015
BI00B32P8    TAPI-2113      202210197116-2951-02             TERMINAL                 CCN000010800000010800FN00000000020221101000010800NNM   20220819121849    4P0P  00000540000000817600001111832P8    YIYTM   006400630015
BI00B32P8    TAPI-2114      202210267116-2951-02             TERMINAL                 CCN000016200000016200FN00000000020221101000016200NNM   20220819121849    4P0P  00000540000000817600001111832P8    YIYTM   006400630015
BI00B32P8    TAPI-2111      202210057116-3153-02             TERMINAL FEMALE          CCN000560000000567000FN00000000020221101000567000NNM   20220819121849    4P0P  00002700000000459000000744232P8    YIYTM   006400630015
BI00B32P8    TAPI-2112      202210127116-3153-02             TERMINAL FEMALE          CCN000280000000297000FN00000000020221101000297000NNM   20220819121849    4P0P  00002700000000459000000744232P8    YIYTM   006400630015
BI00B32P8    TAPI-2113      202210197116-3153-02             TERMINAL FEMALE          CCN000280000000297000FN00000000020221101000297000NNM   20220819121849    4P0P  00002700000000459000000744232P8    YIYTM   006400630015
BI00B32P8    TAPI-2114      202210267116-3153-02             TERMINAL FEMALE          CCN000280000000297000FN00000000020221101000297000NNM   20220819121849    4P0P  00002700000000459000000744232P8    YIYTM   006400630015
BI00B32P8    TAPI-2113      202210197116-4020                TERMINAL                 CCN000081000000081000FN00000000020221101000081000NNM   20220819121849    4P0P  00001350000000513000000798232P8    YIYTM   006400630015
BI00B32P8    TAPI-2114      202210267116-4020                TERMINAL                 CCN000135000000135000FN00000000020221101000135000NNM   20220819121849    4P0P  00001350000000513000000798232P8    YIYTM   006400630015
BI00B32P8    TAPI-2114      202210267116-4025                TERMINAL                 CCN000016000000016000FN00000000020221101000016000NNM   20220819121849    4P0P  00001600000000644800000975132P8    YIYTM   006400630017
BI00B32P8    TAPI-2112      202210127116-4026                TERMINAL                 CCN000032000000032000FN00000000020221101000032000NNM   20220819121849    4P0P  00001600000000664000000994332P8    YIYTM   006400630017
BI00B32P8    TAPI-2113      202210197116-4026                TERMINAL                 CCN000032000000032000FN00000000020221101000032000NNM   20220819121849    4P0P  00001600000000664000000994332P8    YIYTM   006400630017
BI00B32P8    TAPI-2114      202210267116-4026                TERMINAL                 CCN000048000000048000FN00000000020221101000048000NNM   20220819121849    4P0P  00001600000000664000000994332P8    YIYTM   006400630017
BI00B32P8    TAPI-2113      202210197116-4028-08             TERMINAL FEMALE          CCN000080000000080000FN00000000020221101000080000NNM   20220819121849    4P0P  00001600000000652800000981532P8    YIYTM   006400630017
BI00B32P8    TAPI-2114      202210267116-4028-08             TERMINAL FEMALE          CCN000192000000192000FN00000000020221101000192000NNM   20220819121849    4P0P  00001600000000652800000981532P8    YIYTM   006400630017
BI00B32P8    TAPI-2114      202210267116-4031                TERMINAL                 CCN000007500000007500FN00000000020221101000007500NNM   20220819121849    4P0P  00000750000000619500000904732P8    YIYTM   006400630015
BI00B32P8    TAPI-2112      202210127116-4032                TERMINAL                 CCN000006000000006000FN00000000020221101000006000NNM   20220819121849    4P0P  00000600000000532800000818032P8    YIYTM   006400630015
BI00B32P8    TAPI-2113      202210197116-4032                TERMINAL                 CCN000018000000018000FN00000000020221101000018000NNM   20220819121849    4P0P  00000600000000532800000818032P8    YIYTM   006400630015
BI00B32P8    TAPI-2114      202210267116-4032                TERMINAL                 CCN000018000000018000FN00000000020221101000018000NNM   20220819121849    4P0P  00000600000000532800000818032P8    YIYTM   006400630015
BI00B32P8    TAPI-2114      202210267116-4037                TERMINAL                 CCN000018000000018000FN00000000020221101000018000NNM   20220819121849    4P0P  00000600000000600000000894232P8    YIYTM   006400630015
BI00B32P8    TAPI-2111      202210057116-4101-02             TERMINAL                 CCN000012000000012000FN00000000020221101000012000NNM   20220819121849    4P0P  00001200000000582000000876232P8    YIYTM   006400630015
BI00B32P8    TAPI-2112      202210127116-4101-02             TERMINAL                 CCN000012000000012000FN00000000020221101000012000NNM   20220819121849    4P0P  00001200000000582000000876232P8    YIYTM   006400630015
BI00B32P8    TAPI-2113      202210197116-4101-02             TERMINAL                 CCN000012000000012000FN00000000020221101000012000NNM   20220819121849    4P0P  00001200000000582000000876232P8    YIYTM   006400630015
BI00B32P8    TAPI-2114      202210267116-4101-02             TERMINAL                 CCN000012000000012000FN00000000020221101000012000NNM   20220819121849    4P0P  00001200000000582000000876232P8    YIYTM   006400630015
BI00B32P8    TAPI-2112      202210127116-4110-02             TERMINAL                 CCN000018000000018000FN00000000020221101000018000NNM   20220819121849    4P0P  00000900000000594000000882232P8    YIYTM   006400630015
BI00B32P8    TAPI-2113      202210197116-4110-02             TERMINAL                 CCN000036000000036000FN00000000020221101000036000NNM   20220819121849    4P0P  00000900000000594000000882232P8    YIYTM   006400630015
BI00B32P8    TAPI-2114      202210267116-4110-02             TERMINAL                 CCN000027000000027000FN00000000020221101000027000NNM   20220819121849    4P0P  00000900000000594000000882232P8    YIYTM   006400630015
BI00B32P8    TAPI-2111      202210057116-4111-02             TERMINAL                 CCN000045000000045000FN00000000020221101000045000NNM   20220819121849    4P0P  00000750000000529500000817732P8    YIYTM   006400630015
BI00B32P8    TAPI-2112      202210127116-4111-02             TERMINAL                 CCN000015000000015000FN00000000020221101000015000NNM   20220819121849    4P0P  00000750000000529500000817732P8    YIYTM   006400630015
BI00B32P8    TAPI-2113      202210197116-4111-02             TERMINAL                 CCN000022500000022500FN00000000020221101000022500NNM   20220819121849    4P0P  00000750000000529500000817732P8    YIYTM   006400630015
BI00B32P8    TAPI-2114      202210267116-4111-02             TERMINAL                 CCN000022500000022500FN00000000020221101000022500NNM   20220819121849    4P0P  00000750000000529500000817732P8    YIYTM   006400630015
BI00B32P8    TAPI-2111      202210057116-4112-02             TERMINAL                 CCN000156000000156000FN00000000020221101000156000NNM   20220819121849    4P0P  00000600000000450000000738232P8    YIYTM   006400630015
BI00B32P8    TAPI-2112      202210127116-4112-02             TERMINAL                 CCN000102000000102000FN00000000020221101000102000NNM   20220819121849    4P0P  00000600000000450000000738232P8    YIYTM   006400630015
BI00B32P8    TAPI-2113      202210197116-4112-02             TERMINAL                 CCN000102000000102000FN00000000020221101000102000NNM   20220819121849    4P0P  00000600000000450000000738232P8    YIYTM   006400630015
BI00B32P8    TAPI-2114      202210267116-4112-02             TERMINAL                 CCN000108000000108000FN00000000020221101000108000NNM   20220819121849    4P0P  00000600000000450000000738232P8    YIYTM   006400630015
BI00B32P8    TAPI-2111      202210057116-4116-02             TERMINAL                 CCN000020700000020700FN00000000020221101000020700NNM   20220819121849    4P0P  00000690000000517500000805732P8    YIYTM   006400630015
BI00B32P8    TAPI-2112      202210127116-4116-02             TERMINAL                 CCN000013800000013800FN00000000020221101000013800NNM   20220819121849    4P0P  00000690000000517500000805732P8    YIYTM   006400630015
BI00B32P8    TAPI-2113      202210197116-4116-02             TERMINAL                 CCN000006900000006900FN00000000020221101000006900NNM   20220819121849    4P0P  00000690000000517500000805732P8    YIYTM   006400630015
BI00B32P8    TAPI-2114      202210267116-4116-02             TERMINAL                 CCN000013800000013800FN00000000020221101000013800NNM   20220819121849    4P0P  00000690000000517500000805732P8    YIYTM   006400630015
BI00B32P8    TAPI-2112      202210127116-4120-02             TERMINAL                 CCN000006000000006000FN00000000020221101000006000NNM   20220819121849    4P0P  00000600000000780000001073632P8    YIYTM   006400630015
BI00B32P8    TAPI-2113      202210197116-4120-02             TERMINAL                 CCN000030000000030000FN00000000020221101000030000NNM   20220819121849    4P0P  00000600000000780000001073632P8    YIYTM   006400630015
BI00B32P8    TAPI-2114      202210267116-4120-02             TERMINAL                 CCN000030000000030000FN00000000020221101000030000NNM   20220819121849    4P0P  00000600000000780000001073632P8    YIYTM   006400630015
BI00B32P8    TAPI-2111      202210057116-4121-02             TERMINAL                 CCN000063000000063000FN00000000020221101000063000NNM   20220819121849    4P0P  00000450000000618800000912432P8    YIYTM   006400630015
BI00B32P8    TAPI-2112      202210127116-4121-02             TERMINAL                 CCN000063000000063000FN00000000020221101000063000NNM   20220819121849    4P0P  00000450000000618800000912432P8    YIYTM   006400630015
BI00B32P8    TAPI-2113      202210197116-4121-02             TERMINAL                 CCN000067500000067500FN00000000020221101000067500NNM   20220819121849    4P0P  00000450000000618800000912432P8    YIYTM   006400630015
BI00B32P8    TAPI-2114      202210267116-4121-02             TERMINAL                 CCN000067500000067500FN00000000020221101000067500NNM   20220819121849    4P0P  00000450000000618800000912432P8    YIYTM   006400630015
BI00B32P8    TAPI-2111      202210057116-4122-02             TERMINAL                 CCN000346500000346500FN00000000020221101000346500NNM   20220819121849    4P0P  00000450000000656600000950232P8    YIYTM   006400630015
BI00B32P8    TAPI-2112      202210127116-4122-02             TERMINAL                 CCN000180000000180000FN00000000020221101000180000NNM   20220819121849    4P0P  00000450000000656600000950232P8    YIYTM   006400630015
BI00B32P8    TAPI-2113      202210197116-4122-02             TERMINAL                 CCN000175500000175500FN00000000020221101000175500NNM   20220819121849    4P0P  00000450000000656600000950232P8    YIYTM   006400630015
BI00B32P8    TAPI-2114      202210267116-4122-02             TERMINAL                 CCN000175500000175500FN00000000020221101000175500NNM   20220819121849    4P0P  00000450000000656600000950232P8    YIYTM   006400630015
BI00B32P8    TAPI-2111      202210057116-4415-02             TERMINAL                 CCN000342000000342000FN00000000020221101000342000NNM   20220819121849    4P0P  00003800000000596600000925732P8    YIYTM   006400630017
BI00B32P8    TAPI-2112      202210127116-4415-02             TERMINAL                 CCN000190000000190000FN00000000020221101000190000NNM   20220819121849    4P0P  00003800000000596600000925732P8    YIYTM   006400630017
BI00B32P8    TAPI-2113      202210197116-4415-02             TERMINAL                 CCN000190000000190000FN00000000020221101000190000NNM   20220819121849    4P0P  00003800000000596600000925732P8    YIYTM   006400630017
BI00B32P8    TAPI-2114      202210267116-4415-02             TERMINAL                 CCN000228000000228000FN00000000020221101000228000NNM   20220819121849    4P0P  00003800000000596600000925732P8    YIYTM   006400630017
BI00B32P8    TAPI-2111      202210057116-4416-02             TERMINAL                 CCN000064000000064000FN00000000020221101000064000NNM   20220819121849    4P0P  00003200000000518400000847132P8    YIYTM   006400630017
BI00B32P8    TAPI-2112      202210127116-4416-02             TERMINAL                 CCN000224000000224000FN00000000020221101000224000NNM   20220819121849    4P0P  00003200000000518400000847132P8    YIYTM   006400630017
BI00B32P8    TAPI-2113      202210197116-4416-02             TERMINAL                 CCN000256000000256000FN00000000020221101000256000NNM   20220819121849    4P0P  00003200000000518400000847132P8    YIYTM   006400630017
BI00B32P8    TAPI-2114      202210267116-4416-02             TERMINAL                 CCN000224000000224000FN00000000020221101000224000NNM   20220819121849    4P0P  00003200000000518400000847132P8    YIYTM   006400630017
BI00B32P8    TAPI-2114      202210267116-4486-02             TERMINAL                 CCN000028000000028000FN00000000020221101000028000NNM   20220819121849    4P0P  00002800000000666400000995132P8    YIYTM   006400630017
BI00B32P8    TAPI-2111      202210057116-4780-02             TERMINAL FEMALE          CCN000165000000165000FN00000000020221101000165000NNM   20220819121849    4P0P  00001500000000691500000985732P8    YIYTM   006400630015
BI00B32P8    TAPI-2112      202210127116-4780-02             TERMINAL FEMALE          CCN000165000000165000FN00000000020221101000165000NNM   20220819121849    4P0P  00001500000000691500000985732P8    YIYTM   006400630015
BI00B32P8    TAPI-2113      202210197116-4780-02             TERMINAL FEMALE          CCN000180000000180000FN00000000020221101000180000NNM   20220819121849    4P0P  00001500000000691500000985732P8    YIYTM   006400630015
BI00B32P8    TAPI-2114      202210267116-4780-02             TERMINAL FEMALE          CCN000165000000165000FN00000000020221101000165000NNM   20220819121849    4P0P  00001500000000691500000985732P8    YIYTM   006400630015
BI00B32P8    TAPI-2112      202210127116-5041-02             TERMINAL                 CCN000015000000015000FN00000000020221101000015000NNM   20220819121849    4P0P  00001500000000583500000868732P8    YIYTM   006400630015
BI00B32P8    TAPI-2113      202210197116-5041-02             TERMINAL                 CCN000015000000015000FN00000000020221101000015000NNM   20220819121849    4P0P  00001500000000583500000868732P8    YIYTM   006400630015
BI00B32P8    TAPI-2114      202210267116-5041-02             TERMINAL                 CCN000030000000030000FN00000000020221101000030000NNM   20220819121849    4P0P  00001500000000583500000868732P8    YIYTM   006400630015
BI00B32P8    TAPI-2112      202210127116-5042-02             TERMINAL                 CCN000027000000027000FN00000000020221101000027000NNM   20220819121849    4P0P  00001350000000560300000845532P8    YIYTM   006400630015
BI00B32P8    TAPI-2113      202210197116-5042-02             TERMINAL                 CCN000040500000040500FN00000000020221101000040500NNM   20220819121849    4P0P  00001350000000560300000845532P8    YIYTM   006400630015
BI00B32P8    TAPI-2114      202210267116-5042-02             TERMINAL                 CCN000040500000040500FN00000000020221101000040500NNM   20220819121849    4P0P  00001350000000560300000845532P8    YIYTM   006400630015
BI00B32P8    TAPI-2114      202210267116-5043-02             TERMINAL FEMALE          CCN000024000000024000FN00000000020221101000024000NNM   20220819121849    4P0P  00001200000000559200000844432P8    YIYTM   006400630015
BI00B32P8    TAPI-2113      202210197116-5044-02             TERMINAL                 CCN000272000000272000FN00000000020221101000272000NNM   20220819121849    4P0P  00001600000000641600000986332P8    YIYTM   006400630017
BI00B32P8    TAPI-2114      202210267116-5044-02             TERMINAL                 CCN000448000000448000FN00000000020221101000448000NNM   20220819121849    4P0P  00001600000000641600000986332P8    YIYTM   006400630017
BI00B32P8    TAPI-2113      202210197116-5045-02             TERMINAL                 CCN000064000000064000FN00000000020221101000064000NNM   20220819121849    4P0P  00001600000000678400001007132P8    YIYTM   006400630017
BI00B32P8    TAPI-2114      202210267116-5045-02             TERMINAL                 CCN000080000000080000FN00000000020221101000080000NNM   20220819121849    4P0P  00001600000000678400001007132P8    YIYTM   006400630017
BI00B32P8    TAPI-2114      202210267116-5046-02             TERMINAL                 CCN000024000000024000FN00000000020221101000024000NNM   20220819121849    4P0P  00001200000000544800000873532P8    YIYTM   006400630017
BI00B32P8    TAPI-2112      202210127116-5750-02             TERMINAL                 CCN000030000000030000FN00000000020221101000030000NNM   20220819121849    4P0P  00001500000000457500000742732P8    YIYTM   006400630015
BI00B32P8    TAPI-2113      202210197116-5750-02             TERMINAL                 CCN000045000000045000FN00000000020221101000045000NNM   20220819121849    4P0P  00001500000000457500000742732P8    YIYTM   006400630015
BI00B32P8    TAPI-2114      202210267116-5750-02             TERMINAL                 CCN000030000000030000FN00000000020221101000030000NNM   20220819121849    4P0P  00001500000000457500000742732P8    YIYTM   006400630015
BI00B32P8    TAPI-2113      202210197116-5751-02             TERMINAL                 CCN000012000000012000FN00000000020221101000012000NNM   20220819121849    4P0P  00001200000000379200000664432P8    YIYTM   006400630015
BI00B32P8    TAPI-2114      202210267116-5751-02             TERMINAL                 CCN000036000000036000FN00000000020221101000036000NNM   20220819121849    4P0P  00001200000000379200000664432P8    YIYTM   006400630015
BI00B32P8    TAPI-2111      202210057116-5752-02             TERMINAL                 CCN000021000000021000FN00000000020221101000021000NNM   20220819121849    4P0P  00002100000000571200000856432P8    YIYTM   006400630015
BI00B32P8    TAPI-2112      202210127116-5752-02             TERMINAL                 CCN000042000000042000FN00000000020221101000042000NNM   20220819121849    4P0P  00002100000000571200000856432P8    YIYTM   006400630015
BI00B32P8    TAPI-2113      202210197116-5752-02             TERMINAL                 CCN000021000000021000FN00000000020221101000021000NNM   20220819121849    4P0P  00002100000000571200000856432P8    YIYTM   006400630015
BI00B32P8    TAPI-2114      202210267116-5752-02             TERMINAL                 CCN000042000000042000FN00000000020221101000042000NNM   20220819121849    4P0P  00002100000000571200000856432P8    YIYTM   006400630015
BI00B32P8    TAPI-2113      202210197116-6041                TERMINAL                 CCN000004500000004500FN00000000020221101000004500NNM   20220819121849    4P0P  00000450000000716000001009632P8    YIYTM   006400630015
BI00B32P8    TAPI-2114      202210267116-6041                TERMINAL                 CCN000004500000004500FN00000000020221101000004500NNM   20220819121849    4P0P  00000450000000716000001009632P8    YIYTM   006400630015
BI00B32P8    TAPI-2114      202210267116-6042                TERMINAL                 CCN000003000000003000FN00000000020221101000003000NNM   20220819121849    4P0P  00000300000000523800000856132P8    YIYTM   006400630015
BI00B32P8    TAPI-2111      202210057126-8826-02             TERMINAL                 CCN000081000000081000FN00000000020221101000081000NNM   20220819121849    1P0P  00000900000000788400001073632P8    YIYTM   006400630015
BI00B32P8    TAPI-2112      202210127126-8826-02             TERMINAL                 CCN000036000000036000FN00000000020221101000036000NNM   20220819121849    1P0P  00000900000000788400001073632P8    YIYTM   006400630015
BI00B32P8    TAPI-2113      202210197126-8826-02             TERMINAL                 CCN000036000000036000FN00000000020221101000036000NNM   20220819121849    1P0P  00000900000000788400001073632P8    YIYTM   006400630015
BI00B32P8    TAPI-2114      202210267126-8826-02             TERMINAL                 CCN000036000000036000FN00000000020221101000036000NNM   20220819121849    1P0P  00000900000000788400001073632P8    YIYTM   006400630015
BI00B32P8    TAPI-2113      202210197126-8850-02             TERMINAL                 CCN000009000000009000FN00000000020221101000009000NNM   20220819121849    1P0P  00000900000000672300000957532P8    YIYTM   006400630015
BI00B32P8    TAPI-2114      202210267126-8852-02             TERMINAL                 CCN000007500000007500FN00000000020221101000007500NNM   20220819121849    1P0P  00000750000000648000000933232P8    YIYTM   006400630015
BI00B32P8    TAPI-2112      202210127126-8853-02             TERMINAL                 CCN000037500000037500FN00000000020221101000037500NNM   20220819121849    4P0P  00000750000000562500000847732P8    YIYTM   006400630015
BI00B32P8    TAPI-2113      202210197126-8853-02             TERMINAL                 CCN000052500000052500FN00000000020221101000052500NNM   20220819121849    4P0P  00000750000000562500000847732P8    YIYTM   006400630015
BI00B32P8    TAPI-2114      202210267126-8853-02             TERMINAL                 CCN000045000000045000FN00000000020221101000045000NNM   20220819121849    4P0P  00000750000000562500000847732P8    YIYTM   006400630015
BI00B32P8    TAPI-2111      202210057126-8854-02             TERMINAL                 CCN000045000000045000FN00000000020221101000045000NNM   20220819121849    4P0P  00000750000000604500000889732P8    YIYTM   006400630015
BI00B32P8    TAPI-2112      202210127126-8854-02             TERMINAL                 CCN000037500000037500FN00000000020221101000037500NNM   20220819121849    4P0P  00000750000000604500000889732P8    YIYTM   006400630015
BI00B32P8    TAPI-2113      202210197126-8854-02             TERMINAL                 CCN000037500000037500FN00000000020221101000037500NNM   20220819121849    4P0P  00000750000000604500000889732P8    YIYTM   006400630015
BI00B32P8    TAPI-2114      202210267126-8854-02             TERMINAL                 CCN000030000000030000FN00000000020221101000030000NNM   20220819121849    4P0P  00000750000000604500000889732P8    YIYTM   006400630015
BI00B32P8    TAPI-2112      202210127126-8855-02             TERMINAL                 CCN000012000000012000FN00000000020221101000012000NNM   20220819121849    4P0P  00000600000000510600000795832P8    YIYTM   006400630015
BI00B32P8    TAPI-2113      202210197126-8855-02             TERMINAL                 CCN000006000000006000FN00000000020221101000006000NNM   20220819121849    4P0P  00000600000000510600000795832P8    YIYTM   006400630015
BI00B32P8    TAPI-2114      202210267126-8855-02             TERMINAL                 CCN000012000000012000FN00000000020221101000012000NNM   20220819121849    4P0P  00000600000000510600000795832P8    YIYTM   006400630015
BI00B32P8    TAPI-2111      202210057195-1463-02             TERMINAL MALE            CCN000028500000028500FN00000000020221101000028500NNM   20220819121849    4P0P  00002850000000456000000741232P8    YIYTM   006400630015
BI00B32P8    TAPI-2112      202210127195-1463-02             TERMINAL MALE            CCN000028500000028500FN00000000020221101000028500NNM   20220819121849    4P0P  00002850000000456000000741232P8    YIYTM   006400630015
BI00B32P8    TAPI-2114      202210267195-1463-02             TERMINAL MALE            CCN000028500000028500FN00000000020221101000028500NNM   20220819121849    4P0P  00002850000000456000000741232P8    YIYTM   006400630015
BI00B32P8    TAPI-2113      202210197195-1464-02             TERMINAL MALE            CCN000025500000025500FN00000000020221101000025500NNM   20220819121849    4P0P  00002550000000420800000706032P8    YIYTM   006400630015
BI00B32P8    TAPI-2114      202210267195-1464-02             TERMINAL MALE            CCN000025500000025500FN00000000020221101000025500NNM   20220819121849    4P0P  00002550000000420800000706032P8    YIYTM   006400630015
BI00B32P8    TAPI-2111      202210057195-1465-02             TERMINAL MALE            CCN000021000000021000FN00000000020221101000021000NNM   20220819121849    4P0P  00002100000000359100000644332P8    YIYTM   006400630015
BI00B32P8    TAPI-2114      202210267196-0396-02             TERMINAL                 CCN000015000000015000FN00000000020221101000015000NNM   20220819121849    4P0P  00001500000000949500001112932P8    YIYTM   002800510028
BI00B32P8    TAPI-2113      202210197196-0510-02             TERMINAL                 CCN000024000000024000FN00000000020221101000024000NNM   20220819121849    4P0P  00002400000000871200001034632P8    YIYTM   002800510028
BI00B32P8    TAPI-2111      202210057196-0648-02             TERMINAL                 CCN000015000000015000FN00000000020221101000015000NNM   20220819121849    4P0P  00001500000000355500000689732P8    YIYTM   006400630015
BI00B32P8    TAPI-2112      202210127196-1104-02             TERMINAL                 CCN000022500000022500FN00000000020221101000022500NNM   20220819121849    4P0P  00002250000000441000000726232P8    YIYTM   006400630015
BI00B32P8    TAPI-2113      202210197196-1104-02             TERMINAL                 CCN000112500000112500FN00000000020221101000112500NNM   20220819121849    4P0P  00002250000000441000000726232P8    YIYTM   006400630015
BI00B32P8    TAPI-2114      202210267196-1104-02             TERMINAL                 CCN000135000000135000FN00000000020221101000135000NNM   20220819121849    4P0P  00002250000000441000000726232P8    YIYTM   006400630015
BI00B32P8    TAPI-2111      202210057196-1460-02             TERMINAL FEMALE          CCN000199500000199500FN00000000020221101000199500NNM   20220819121849    4P0P  00002850000000444600000729832P8    YIYTM   006400630015
BI00B32P8    TAPI-2112      202210127196-1460-02             TERMINAL FEMALE          CCN000228000000228000FN00000000020221101000228000NNM   20220819121849    4P0P  00002850000000444600000729832P8    YIYTM   006400630015
BI00B32P8    TAPI-2113      202210197196-1460-02             TERMINAL FEMALE          CCN000199500000199500FN00000000020221101000199500NNM   20220819121849    4P0P  00002850000000444600000729832P8    YIYTM   006400630015
BI00B32P8    TAPI-2114      202210267196-1460-02             TERMINAL FEMALE          CCN000228000000228000FN00000000020221101000228000NNM   20220819121849    4P0P  00002850000000444600000729832P8    YIYTM   006400630015
BI00B32P8    TAPI-2112      202210127196-1461-02             TERMINAL FEMALE          CCN000024000000024000FN00000000020221101000024000NNM   20220819121849    4P0P  00002400000000386400000671632P8    YIYTM   006400630015
BI00B32P8    TAPI-2113      202210197196-1461-02             TERMINAL FEMALE          CCN000120000000120000FN00000000020221101000120000NNM   20220819121849    4P0P  00002400000000386400000671632P8    YIYTM   006400630015
BI00B32P8    TAPI-2114      202210267196-1461-02             TERMINAL FEMALE          CCN000120000000120000FN00000000020221101000120000NNM   20220819121849    4P0P  00002400000000386400000671632P8    YIYTM   006400630015
BI00B32P8    TAPI-2114      202210267196-1462-02             TERMINAL FEMALE          CCN000021000000021000FN00000000020221101000021000NNM   20220819121849    4P0P  00002100000000352800000638032P8    YIYTM   006400630015
BI00B32P8    TAPI-2113      202210197196-1604-02             TERMINAL                 CCN000015000000015000FN00000000020221101000015000NNM   20220819121849    4P0P  00001500000000337500000622732P8    YIYTM   006400630015
BI00B32P8    TAPI-2112      202210127273-2982-0W             CASSETTE BRACKET         CCN000000600000000600FN00000000020221101000000600NNM   20220819121849    4N0N  00000060000000526000000726032P8    YIYTM   005500360039
BI00B32P8    TAPI-2113      202210197273-2982-0W             CASSETTE BRACKET         CCN000000600000000600FN00000000020221101000000600NNM   20220819121849    4N0N  00000060000000526000000726032P8    YIYTM   005500360039
BI00B32P8    TAPI-2114      202210267273-2982-0W             CASSETTE BRACKET         CCN000001200000001200FN00000000020221101000001200NNM   20220819121849    4N0N  00000060000000526000000726032P8    YIYTM   005500360039
BI00B32P8    TAPI-2114      202210267183-7665-30             HOUSING                  CCN000001200000001200FN00000000020221101000001200NNM   20220819121849    1F0F  00000120000001103300001247832P8    YIYTM   005500360039
BI00B32P8    TAPI-2113      202210197282-4577                HOUSING MALE ASS'Y       CCN000002400000002400FN00000000020221101000002400NNM   20220819121849    4N0N  00000240000000964800001174832P8    YIYTM   005500360039
BI00B32P8    TAPI-2114      202210267282-4577                HOUSING MALE ASS'Y       CCN000002400000002400FN00000000020221101000002400NNM   20220819121849    4N0N  00000240000000964800001174832P8    YIYTM   005500360039
BI00B32P8    TAPI-2113      202210197282-9391                HOUSING MALE ASS'Y       CCN000002400000002400FN00000000020221101000002400NNM   20220819121849    4N0N  00000120000001017600001237632P8    YIYTM   005500360039
BI00B32P8    TAPI-2114      202210267282-9391                HOUSING MALE ASS'Y       CCN000001200000001200FN00000000020221101000001200NNM   20220819121849    4N0N  00000120000001017600001237632P8    YIYTM   005500360039
BI00B32P8    TAPI-2111      202210057283-0259                CONNECTOR SUB ASSY       CCN000000240000000240FN00000000020221101000000240NNM   20220819121849    4N0N  00000024000001332000001607032P8    YIYTM   005600390040
BI00B32P8    TAPI-2114      202210267283-0259                CONNECTOR SUB ASSY       CCN000000240000000240FN00000000020221101000000240NNM   20220819121849    4N0N  00000024000001332000001607032P8    YIYTM   005600390040
BI00B32P8    TAPI-2113      202210197283-1140                CONNECTOR HOUSING        CCN000001500000001500FN00000000020221101000001500NNM   20220819121849    4N0N  00000150000000669000000932732P8    YIYTM   005600390040
BI00B32P8    TAPI-2112      202210127283-1144                CONNECTOR                CCN000002400000002400FN00000000020221101000002400NNM   20220819121849    4N0N  00000240000000602200000866132P8    YIYTM   005500360039
BI00B32P8    TAPI-2114      202210267283-1144                CONNECTOR                CCN000002400000002400FN00000000020221101000002400NNM   20220819121849    4N0N  00000240000000602200000866132P8    YIYTM   005500360039
BI00B32P8    TAPI-2113      202210197283-1156                CONNECTOR                CCN000000800000000800FN00000000020221101000000800NNM   20220819121849    4N0N  00000080000000877600001078032P8    YIYTM   005600390040
BI00B32P8    TAPI-2113      202210197283-1222-40             CONNECTOR HOUSING        CCN000001200000001200FN00000000020221101000001200NNM   20220819121849    4N0N  00000120000000858000001032732P8    YIYTM   005500360039
BI00B32P8    TAPI-2112      202210127283-1927-30             CONNECTOR                CCN000002000000002000FN00000000020221101000002000NNM   20220819121849    4N0N  00000200000001190000001368032P8    YIYTM   005500360039
BI00B32P8    TAPI-2114      202210267283-1927-30             CONNECTOR                CCN000002000000002000FN00000000020221101000002000NNM   20220819121849    4N0N  00000200000001190000001368032P8    YIYTM   005500360039
BI00B32P8    TAPI-2114      202210267283-1968-30             CONNECTOR                CCN000001800000001800FN00000000020221101000001800NNM   20220819121849    1N0N  00000090000001140000001318332P8    YIYTM   005600390040
BI00B32P8    TAPI-2113      202210197283-4577                CONNECTOR HOUSING        CCN000004800000004800FN00000000020221101000004800NNM   20220819121849    4N0N  00000480000000916800001136832P8    YIYTM   005500360039
BI00B32P8    TAPI-2113      202210197283-4855                CONNECTOR HOUSING        CCN000002400000002400FN00000000020221101000002400NNM   20220819121849    4N0N  00000240000001188400001400032P8    YIYTM   005500360039
BI00B32P8    TAPI-2114      202210267283-4855                CONNECTOR HOUSING        CCN000009600000009600FN00000000020221101000009600NNM   20220819121849    4N0N  00000240000001188400001400032P8    YIYTM   005500360039
BI00B32P8    TAPI-2112      202210127283-5845                CONNECTOR HOUSING        CCN000006000000006000FN00000000020221101000006000NNM   20220819121849    1N0N  00000600000000444000000606332P8    YIYTM   005400370024
BI00B32P8    TAPI-2112      202210127283-6388-40             CONNECTOR                CCN000002000000002000FN00000000020221101000002000NNM   20220819121849    4N0N  00000200000001029000001173532P8    YIYTM   005500360039
BI00B32P8    TAPI-2113      202210197283-6388-40             CONNECTOR                CCN000002000000002000FN00000000020221101000002000NNM   20220819121849    4N0N  00000200000001029000001173532P8    YIYTM   005500360039
BI00B32P8    TAPI-2114      202210267283-6388-40             CONNECTOR                CCN000004000000004000FN00000000020221101000004000NNM   20220819121849    4N0N  00000200000001029000001173532P8    YIYTM   005500360039
BI00B32P8    TAPI-2113      202210197283-8630                CONNECTOR ASS'Y          CCN000006000000006000FN00000000020221101000006000NNM   20220819121849    4N0N  00000600000000540000000701332P8    YIYTM   005400370024
BI00B32P8    TAPI-2113      202210197286-1915                CONNECTOR SUB ASSY       CCN000001600000001600FN00000000020221101000001600NNM   20220819121849    4N0N  00000160000000965600001165632P8    YIYTM   005500360039
BI00B32P8    TAPI-2112      202210127286-4097                CONNECTOR MALE ASS'Y     CCN000001600000001600FN00000000020221101000001600NNM   20220819121849    1N0N  00000160000000768000000978032P8    YIYTM   005500360039
BI00B32P8    TAPI-2114      202210267286-4097                CONNECTOR MALE ASS'Y     CCN000001600000001600FN00000000020221101000001600NNM   20220819121849    1N0N  00000160000000768000000978032P8    YIYTM   005500360039
BI00B32P8    TAPI-2114      202210267287-1917-40             CONNECTOR FEMALE         CCN000002400000002400FN00000000020221101000002400NNM   20220819121849    4N0N  00000240000001060800001312532P8    YIYTM   005500360039
BI00B32P8    TAPI-2113      202210197287-7599-40             HOUSING FEMALE ASS'Y     CCN000009600000009600FN00000000020221101000009600NNM   20220819121849    4N0N  00000160000001233600001445632P8    YIYTM   005500360039
BI00B32P8    TAPI-2114      202210267287-7599-40             HOUSING FEMALE ASS'Y     CCN000009600000009600FN00000000020221101000009600NNM   20220819121849    4N0N  00000160000001233600001445632P8    YIYTM   005500360039
BI00B32P8    TAPI-2114      202210267287-8999                HOUSING FEMALE ASS'Y     CCN000004800000004800FN00000000020221101000004800NNM   20220819121849    1N0N  00000480000001228800001448832P8    YIYTM   005500360039
BI00B32P8    TAPI-2114      202210267287-9323-40             UNSEALED HOUSING SUB     CCN000002400000002400FN00000000020221101000002400NNM   20220819121849    1N0N  00000240000000537600000690032P8    YIYTM   005600390023
BI00B32P8    TAPI-2111      202210057288-3206                HOUSING MALE ASS'Y       CCN000001020000001020FN00000000020221101000001020NNM   20220819121849    1N0N  00000102000000387600000787632P8    YIYTM   005500360039
BI00B32P8    TAPI-2112      202210127288-3206                HOUSING MALE ASS'Y       CCN000001020000001020FN00000000020221101000001020NNM   20220819121849    1N0N  00000102000000387600000787632P8    YIYTM   005500360039
BI00B32P8    TAPI-2114      202210267288-3206                HOUSING MALE ASS'Y       CCN000001020000001020FN00000000020221101000001020NNM   20220819121849    1N0N  00000102000000387600000787632P8    YIYTM   005500360039
BI00B32P8    TAPI-2112      202210127288-3329-30             HOUSING MALE             CCN000003000000003000FN00000000020221101000003000NNM   20220819121849    4N0N  00000150000000866100001011132P8    YIYTM   005400370024
BI00B32P8    TAPI-2113      202210197288-3329-30             HOUSING MALE             CCN000003000000003000FN00000000020221101000003000NNM   20220819121849    4N0N  00000150000000866100001011132P8    YIYTM   005400370024
BI00B32P8    TAPI-2114      202210267288-3329-30             HOUSING MALE             CCN000003000000003000FN00000000020221101000003000NNM   20220819121849    4N0N  00000150000000866100001011132P8    YIYTM   005400370024
BI00B32P8    TAPI-2112      202210127288-3332-30             HOUSING MALE             CCN000001500000001500FN00000000020221101000001500NNM   20220819121849    4N0N  00000150000000860700001005732P8    YIYTM   005400370024
BI00B32P8    TAPI-2114      202210267288-3332-30             HOUSING MALE             CCN000001500000001500FN00000000020221101000001500NNM   20220819121849    4N0N  00000150000000860700001005732P8    YIYTM   005400370024
BI00B32P8    TAPI-2112      202210127288-3334-30             HOUSING MALE             CCN000001500000001500FN00000000020221101000001500NNM   20220819121849    4N0N  00000150000000867000001012032P8    YIYTM   005400370024
BI00B32P8    TAPI-2112      202210127288-3337-30             HOUSING MALE             CCN000001500000001500FN00000000020221101000001500NNM   20220819121849    4N0N  00000150000000867000001012032P8    YIYTM   005400370024
BI00B32P8    TAPI-2114      202210267288-3337-30             HOUSING MALE             CCN000001500000001500FN00000000020221101000001500NNM   20220819121849    4N0N  00000150000000867000001012032P8    YIYTM   005400370024
BI00B32P8    TAPI-2113      202210197288-3339-30             HOUSING MALE             CCN000001500000001500FN00000000020221101000001500NNM   20220819121849    4N0N  00000150000000867000001012032P8    YIYTM   005400370024
BI00B32P8    TAPI-2114      202210267288-3339-30             HOUSING MALE             CCN000001500000001500FN00000000020221101000001500NNM   20220819121849    4N0N  00000150000000867000001012032P8    YIYTM   005400370024
BI00B32P8    TAPI-2112      202210127288-3340-30             HOUSING MALE             CCN000003000000003000FN00000000020221101000003000NNM   20220819121849    4N0N  00000150000000861500001006432P8    YIYTM   005400370024
BI00B32P8    TAPI-2113      202210197288-3340-30             HOUSING MALE             CCN000001500000001500FN00000000020221101000001500NNM   20220819121849    4N0N  00000150000000861500001006432P8    YIYTM   005400370024
BI00B32P8    TAPI-2114      202210267288-3340-30             HOUSING MALE             CCN000001500000001500FN00000000020221101000001500NNM   20220819121849    4N0N  00000150000000861500001006432P8    YIYTM   005400370024
BI00B32P8    TAPI-2112      202210127289-3342-30             HOUSING FEMALE ASS'Y     CCN000007200000007200FN00000000020221101000007200NNM   20220819121849    1N0N  00000240000000686400000901432P8    YIYTM   005500360039
BI00B32P8    TAPI-2113      202210197289-3342-30             HOUSING FEMALE ASS'Y     CCN000009600000009600FN00000000020221101000009600NNM   20220819121849    1N0N  00000240000000686400000901432P8    YIYTM   005500360039
BI00B32P8    TAPI-2114      202210267289-3342-30             HOUSING FEMALE ASS'Y     CCN000009600000009600FN00000000020221101000009600NNM   20220819121849    1N0N  00000240000000686400000901432P8    YIYTM   005500360039
BI00B32P8    TAPI-2112      202210127289-4696-30             HOUSING FEMALE ASS'Y     CCN000002000000002000FN00000000020221101000002000NNM   20220819121849    4N0N  00000200000000913400001055432P8    YIYTM   005400370024
BI00B32P8    TAPI-2113      202210197289-4696-30             HOUSING FEMALE ASS'Y     CCN000002000000002000FN00000000020221101000002000NNM   20220819121849    4N0N  00000200000000913400001055432P8    YIYTM   005400370024
BI00B32P8    TAPI-2114      202210267289-4696-30             HOUSING FEMALE ASS'Y     CCN000004000000004000FN00000000020221101000004000NNM   20220819121849    4N0N  00000200000000913400001055432P8    YIYTM   005400370024
BI00B32P8    TAPI-2113      202210197298-1865-30             HOUSING FEMALE ASS'Y     CCN000004800000004800FN00000000020221101000004800NNM   20220819121849    4N0N  00000240000001003200001204532P8    YIYTM   005500360039
BI00B32P8    TAPI-2114      202210267298-1865-30             HOUSING FEMALE ASS'Y     CCN000014400000014400FN00000000020221101000014400NNM   20220819121849    4N0N  00000240000001003200001204532P8    YIYTM   005500360039
BI00B32P8    TAPI-2111      202210057298-1869-30             HOUSING FEMALE ASS'Y     CCN000001200000001200FN00000000020221101000001200NNM   20220819121849    4N0N  00000120000000737000000939832P8    YIYTM   005500360039
BI00B32P8    TAPI-2112      202210127298-1869-30             HOUSING FEMALE ASS'Y     CCN000002400000002400FN00000000020221101000002400NNM   20220819121849    4N0N  00000120000000737000000939832P8    YIYTM   005500360039
BI00B32P8    TAPI-2113      202210197298-1869-30             HOUSING FEMALE ASS'Y     CCN000003600000003600FN00000000020221101000003600NNM   20220819121849    4N0N  00000120000000737000000939832P8    YIYTM   005500360039
BI00B32P8    TAPI-2114      202210267298-1869-30             HOUSING FEMALE ASS'Y     CCN000002400000002400FN00000000020221101000002400NNM   20220819121849    4N0N  00000120000000737000000939832P8    YIYTM   005500360039
BI00B32P8    TAPI-2113      202210197298-2278-30             HOUSING FEMALE ASS'Y     CCN000004800000004800FN00000000020221101000004800NNM   20220819121849    4N0N  00000240000001091700001295432P8    YIYTM   005500360039
BI00B32P8    TAPI-2114      202210267298-2278-30             HOUSING FEMALE ASS'Y     CCN000004800000004800FN00000000020221101000004800NNM   20220819121849    4N0N  00000240000001091700001295432P8    YIYTM   005500360039
BI00B32P8    TAPI-2111      202210057298-2508-30             HOUSING FEMALE ASS'Y     CCN000001200000001200FN00000000020221101000001200NNM   20220819121849    4N0N  00000120000000822000001005032P8    YIYTM   005500360039
BI00B32P8    TAPI-2112      202210127298-2508-30             HOUSING FEMALE ASS'Y     CCN000002400000002400FN00000000020221101000002400NNM   20220819121849    4N0N  00000120000000822000001005032P8    YIYTM   005500360039
BI00B32P8    TAPI-2113      202210197298-2508-30             HOUSING FEMALE ASS'Y     CCN000001200000001200FN00000000020221101000001200NNM   20220819121849    4N0N  00000120000000822000001005032P8    YIYTM   005500360039
BI00B32P8    TAPI-2114      202210267298-2508-30             HOUSING FEMALE ASS'Y     CCN000001200000001200FN00000000020221101000001200NNM   20220819121849    4N0N  00000120000000822000001005032P8    YIYTM   005500360039
BI00B32P8    TAPI-2112      202210127298-2852-30             HOUSING FEMALE ASS'Y     CCN000000720000000720FN00000000020221101000000720NNM   20220819121849    4N0N  00000024000001095200001361232P8    YIYTM   005500360039
BI00B32P8    TAPI-2113      202210197298-2852-30             HOUSING FEMALE ASS'Y     CCN000000720000000720FN00000000020221101000000720NNM   20220819121849    4N0N  00000024000001095200001361232P8    YIYTM   005500360039
BI00B32P8    TAPI-2114      202210267298-2852-30             HOUSING FEMALE ASS'Y     CCN000000720000000720FN00000000020221101000000720NNM   20220819121849    4N0N  00000024000001095200001361232P8    YIYTM   005500360039
BI00B32P8    TAPI-2111      202210057298-5955                CONNECTOR SUB ASSY       CCN000050400000050400FN00000000020221101000050400NNM   20220819121849    4N0N  00000720000001029600001253032P8    YIYTM   005500360039
BI00B32P8    TAPI-2112      202210127298-5955                CONNECTOR SUB ASSY       CCN000064800000064800FN00000000020221101000064800NNM   20220819121849    4N0N  00000720000001029600001253032P8    YIYTM   005500360039
BI00B32P8    TAPI-2113      202210197298-5955                CONNECTOR SUB ASSY       CCN000064800000064800FN00000000020221101000064800NNM   20220819121849    4N0N  00000720000001029600001253032P8    YIYTM   005500360039
BI00B32P8    TAPI-2114      202210267298-5955                CONNECTOR SUB ASSY       CCN000064800000064800FN00000000020221101000064800NNM   20220819121849    4N0N  00000720000001029600001253032P8    YIYTM   005500360039
BI00B32P8    TAPI-2111      202210057388-0316-80             CONNECTOR ASS'Y          CCN000000600000001200FN00000000020221101000001200NNM   20220819121849    4N0N  00000120000001002500001132532P8    YIYTM   005400370024
BI00B32P8    TAPI-2112      202210127388-0316-80             CONNECTOR ASS'Y          CCN000000600000001200FN00000000020221101000001200NNM   20220819121849    4N0N  00000120000001002500001132532P8    YIYTM   005400370024
BI00B32P8    TAPI-2114      202210267388-0316-80             CONNECTOR ASS'Y          CCN000000600000001200FN00000000020221101000001200NNM   20220819121849    4N0N  00000120000001002500001132532P8    YIYTM   005400370024
BI00B32P8    TAPI-2113      202210197388-2978-30             HOUSING MALE ASS'Y       CCN000000960000000960FN00000000020221101000000960NNM   20220819121849    1N0N  00000048000000742000001122032P8    YIYTM   005500360039
BI00B32P8    TAPI-2114      202210267388-2978-30             HOUSING MALE ASS'Y       CCN000000480000000480FN00000000020221101000000480NNM   20220819121849    1N0N  00000048000000742000001122032P8    YIYTM   005500360039
BI00B32P8    TAPI-2113      202210197470-3082                J/B COMPLETE ASS'Y       CCN000000408000000408FN00000000020221101000000408NNM   20220819121849    1J0J  00000002400001320000001570032P8    YIYTM   005500360039
BI00B32P8    TAPI-2114      202210267470-3082                J/B COMPLETE ASS'Y       CCN000000456000000456FN00000000020221101000000456NNM   20220819121849    1J0J  00000002400001320000001570032P8    YIYTM   005500360039
BI00B32P8    TAPI-2112      202210127017-1180-02             TERMINAL                 CCN000072000000072000FN00000000020221101000072000NNM   20220819121849    4P0P  00007200000001065600001229032P8    YIYTM   005100280028
BI00B32P8    TAPI-2113      202210197017-1180-02             TERMINAL                 CCN000216000000216000FN00000000020221101000216000NNM   20220819121849    4P0P  00007200000001065600001229032P8    YIYTM   005100280028
BI00B32P8    TAPI-2114      202210267017-1180-02             TERMINAL                 CCN000216000000216000FN00000000020221101000216000NNM   20220819121849    4P0P  00007200000001065600001229032P8    YIYTM   005100280028
BI00B32P8    TAPI-2112      202210127017-1181-02             TERMINAL                 CCN000063000000063000FN00000000020221101000063000NNM   20220819121849    4P0P  00006300000001089900001266832P8    YIYTM   005100280028
BI00B32P8    TAPI-2113      202210197017-1181-02             TERMINAL                 CCN000063000000063000FN00000000020221101000063000NNM   20220819121849    4P0P  00006300000001089900001266832P8    YIYTM   005100280028
BI00B32P8    TAPI-2114      202210267017-1181-02             TERMINAL                 CCN000063000000063000FN00000000020221101000063000NNM   20220819121849    4P0P  00006300000001089900001266832P8    YIYTM   005100280028
BI00B32P8    TAPI-2114      202210267017-1182-02             TERMINAL                 CCN000045000000045000FN00000000020221101000045000NNM   20220819121849    4P0P  00004500000001165500001318632P8    YIYTM   005100280028
BI00B32P8    TAPI-2114      202210267017-1183-02             TERMINAL                 CCN000027000000027000FN00000000020221101000027000NNM   20220819121849    4P0P  00002700000001139400001307432P8    YIYTM   005100280028
BI00B32P8    TAPI-2113      202210197386-6939                CONNECTOR MALE ASS'Y     CCN000000900000000900FN00000000020221101000000900NNM   20220819121849    4N0N  00000090000001359900001486432P8    YIYTM   005400370024
BI00B32P8    TAPI-2114      202210267386-6939                CONNECTOR MALE ASS'Y     CCN000000900000000900FN00000000020221101000000900NNM   20220819121849    4N0N  00000090000001359900001486432P8    YIYTM   005400370024
BI00B32P8    TAPI-2112      202210127327-6424-4W             BATTERY FUSE             CCN000000096000000096FN00000000020221101000000096NNM   20220819121849    4N0N  00000009600001109500001259632P8    YIYTM   005400370024
BI00B32P8    TAPI-2113      202210197327-6424-4W             BATTERY FUSE             CCN000000384000000384FN00000000020221101000000384NNM   20220819121849    4N0N  00000009600001109500001259632P8    YIYTM   005400370024
BI00B32P8    TAPI-2114      202210267327-6424-4W             BATTERY FUSE             CCN000000480000000480FN00000000020221101000000480NNM   20220819121849    4N0N  00000009600001109500001259632P8    YIYTM   005400370024
BI00B32P8    TAPI-2112      202210127158-3070-80             RUBBER STOPPER           CCN000040000000040000FN00000000020221101000040000NNM   20220819121849    1C0C  00004000000000276000000333332P8    YIYTM   002700430014
BI00B32P8    TAPI-2112      202210127470-5303                J/B COMPLETE ASS'Y       CCN000000750000000750FN00000000020221101000000750NNM   20220819121849    4J0J  00000001000000494000000661032P8    YIYTM   005400370024
BI00B32P8    TAPI-2113      202210197470-5303                J/B COMPLETE ASS'Y       CCN000000800000000800FN00000000020221101000000800NNM   20220819121849    4J0J  00000001000000494000000661032P8    YIYTM   005400370024
BI00B32P8    TAPI-2114      202210267470-5303                J/B COMPLETE ASS'Y       CCN000000800000000800FN00000000020221101000000800NNM   20220819121849    4J0J  00000001000000494000000661032P8    YIYTM   005400370024
BI00B32P8    TAPI-2112      202210127470-5650                J/B COMPLETE ASS'Y       CCN000000370000000370FN00000000020221101000000370NNM   20220819121849    4J0J  00000001000000494000000661032P8    YIYTM   005400370024
BI00B32P8    TAPI-2113      202210197470-5650                J/B COMPLETE ASS'Y       CCN000000390000000390FN00000000020221101000000390NNM   20220819121849    4J0J  00000001000000494000000661032P8    YIYTM   005400370024
BI00B32P8    TAPI-2114      202210267470-5650                J/B COMPLETE ASS'Y       CCN000000380000000380FN00000000020221101000000380NNM   20220819121849    4J0J  00000001000000494000000661032P8    YIYTM   005400370024
BI00B32P8    TAPI-2112      202210127273-3885-0W             CASSETTE BRACKET         CCN000000600000000600FN00000000020221101000000600NNM   20220819121849    4N0N  00000060000000864400001004432P8    YIYTM   005500360039
BI00B32P8    TAPI-2114      202210267273-3885-0W             CASSETTE BRACKET         CCN000000600000000600FN00000000020221101000000600NNM   20220819121849    4N0N  00000060000000864400001004432P8    YIYTM   005500360039
BI00B32P8    TAPI-2112      202210127273-3887-0W             CASSETTE BRACKET         CCN000000600000000600FN00000000020221101000000600NNM   20220819121849    4N0N  00000060000000526000000652032P8    YIYTM   005500360039
BI00B32P8    TAPI-2114      202210267273-3887-0W             CASSETTE BRACKET         CCN000000600000000600FN00000000020221101000000600NNM   20220819121849    4N0N  00000060000000526000000652032P8    YIYTM   005500360039
BI00B32P8    TAPI-2112      202210127327-6994-3W             BATTERY FUSE             CCN000001152000001152FN00000000020221101000001152NNM   20220819121849    4N0N  00000007200001215100001430132P8    YIYTM   005500360039
BI00B32P8    TAPI-2113      202210197327-6994-3W             BATTERY FUSE             CCN000001224000001224FN00000000020221101000001224NNM   20220819121849    4N0N  00000007200001215100001430132P8    YIYTM   005500360039
BI00B32P8    TAPI-2114      202210267327-6994-3W             BATTERY FUSE             CCN000001152000001152FN00000000020221101000001152NNM   20220819121849    4N0N  00000007200001215100001430132P8    YIYTM   005500360039
BI00B32P8    #TAPI-2114     202210267157-3992-90             CONNECTOR SEALED         CCN000040000000040000FN00000000020221101000040000NNM   20220819121849    2C0C  00004000000000300000000363332P8    YIYTM   002700430014
BI00B32P8    #TAPI-2114     202210267157-7811-80             SEAL RUBBER              CCN000010000000010000FN00000000020221101000010000NNM   20220819121849    2C0C  00001000000000105000000182732P8    YIYTM   002700430014
BI00B32P8    #TAPI-2112     202210127158-3003-90             RUBBER STOPPER           CCN000100000000100000FN00000000020221101000100000NNM   20220819121849    2C0C  00002000000000250000000306032P8    YIYTM   002700430014
BI00B32P8    #TAPI-2113     202210197158-3003-90             RUBBER STOPPER           CCN000160000000160000FN00000000020221101000160000NNM   20220819121849    2C0C  00002000000000250000000306032P8    YIYTM   002700430014
BI00B32P8    #TAPI-2114     202210267158-3003-90             RUBBER STOPPER           CCN000160000000160000FN00000000020221101000160000NNM   20220819121849    2C0C  00002000000000250000000306032P8    YIYTM   002700430014
BI00B32P8    #TAPI-2113     202210197158-3007-10             RUBBER STOPPER           CCN000040000000040000FN00000000020221101000040000NNM   20220819121849    2H0H  00002000000000308000000362732P8    YIYTM   002700430014
BI00B32P8    #TAPI-2114     202210267158-3007-10             RUBBER STOPPER           CCN000040000000040000FN00000000020221101000040000NNM   20220819121849    2H0H  00002000000000308000000362732P8    YIYTM   002700430014
BI00B32P8    #TAPI-2114     202210267158-3008-80             RUBBER STOPPER           CCN000060000000060000FN00000000020221101000060000NNM   20220819121849    2C0C  00002000000000288000000343032P8    YIYTM   004300270014
BI00B32P8    #TAPI-2114     202210267158-3017                RUBBER STOPPER           CCN000010000000010000FN00000000020221101000010000NNM   20220819121849    2C0C  00001000000000375500000435032P8    YIYTM   002700430014
BI00B32P8    #TAPI-2113     202210197158-3120-90             CONNECTOR WIRE SEAL      CCN000020000000020000FN00000000020221101000020000NNM   20220819121849    2C0C  00002000000000136000000194032P8    YIYTM   002700430014
BI00B32P8    #TAPI-2114     202210267158-3120-90             CONNECTOR WIRE SEAL      CCN000060000000060000FN00000000020221101000060000NNM   20220819121849    2C0C  00002000000000136000000194032P8    YIYTM   002700430014
BI00B32P8    #TAPI-2114     202210267158-3121-80             WIRE SEAL                CCN000020000000020000FN00000000020221101000020000NNM   20220819121849    2C0C  00002000000000118000000187332P8    YIYTM   002700430014
BI00B32P8    #TAPI-2111     202210057158-3654-80             WIRE TUBE                CCN000080000000080000FN00000000020221101000080000NNM   20220819121849    2H0H  00004000000000104000000152232P8    YIYTM   004300270014
BI00B32P8    #TAPI-2112     202210127158-3654-80             WIRE TUBE                CCN000040000000040000FN00000000020221101000040000NNM   20220819121849    2H0H  00004000000000104000000152232P8    YIYTM   004300270014
BI00B32P8    #TAPI-2113     202210197158-3654-80             WIRE TUBE                CCN000040000000040000FN00000000020221101000040000NNM   20220819121849    2H0H  00004000000000104000000152232P8    YIYTM   004300270014
BI00B32P8    #TAPI-2114     202210267158-3654-80             WIRE TUBE                CCN000080000000080000FN00000000020221101000080000NNM   20220819121849    2H0H  00004000000000104000000152232P8    YIYTM   004300270014
BI00B32P8    #TAPI-2111     202210057172-5631-60             RUBBER STOPPER           CCN000020000000020000FN00000000020221101000020000NNM   20220819121849    2H0H  00002000000000042000000093132P8    YIYTM   004300270014
BI00B32P8    #TAPI-2112     202210127172-5631-60             RUBBER STOPPER           CCN000200000000200000FN00000000020221101000200000NNM   20220819121849    2H0H  00002000000000042000000093132P8    YIYTM   004300270014
BI00B32P8    #TAPI-2113     202210197172-5631-60             RUBBER STOPPER           CCN000200000000200000FN00000000020221101000200000NNM   20220819121849    2H0H  00002000000000042000000093132P8    YIYTM   004300270014
BI00B32P8    #TAPI-2114     202210267172-5631-60             RUBBER STOPPER           CCN000200000000200000FN00000000020221101000200000NNM   20220819121849    2H0H  00002000000000042000000093132P8    YIYTM   004300270014
BI00B32P8    #TAPI-2114     202210267116-4021                TERMINAL                 CCN000067500000067500FN00000000020221101000067500NNM   20220819121849    2F0P  00001350000000534600000868832P8    YIYTM   006400630015
BI00B32P8    #TAPI-2111     202210057189-3038-30             HOUSING                  CCN000001600000001600FN00000000020221101000001600NNM   20220819121849    2F0F  00000160000000921600001141632P8    YIYTM   005500360039
BI00B32P8    #TAPI-2114     202210267158-3005-80             RUBBER STOPPER           CCN000020000000020000FN00000000020221101000020000NNM   20220819121849    2H0H  00002000000000210000000268732P8    YIYTM   002700430014
BI00B32P8    #TAPI-2111     202210057123-6347                CONNECTOR HOUSING        CCN000006400000006400FN00000000020221101000006400NNM   20220819121849    2F0F  00000160000000647000000904832P8    YIYTM   005500360039
BI00B32P8    #TAPI-2112     202210127123-6347                CONNECTOR HOUSING        CCN000009600000009600FN00000000020221101000009600NNM   20220819121849    2F0F  00000160000000647000000904832P8    YIYTM   005500360039
BI00B32P8    #TAPI-2113     202210197123-6347                CONNECTOR HOUSING        CCN000009600000009600FN00000000020221101000009600NNM   20220819121849    2F0F  00000160000000647000000904832P8    YIYTM   005500360039
BI00B32P8    #TAPI-2114     202210267123-6347                CONNECTOR HOUSING        CCN000011200000011200FN00000000020221101000011200NNM   20220819121849    2F0F  00000160000000647000000904832P8    YIYTM   005500360039
BI00B32P8    #TAPI-2112     202210127123-6347-40             HOUSING                  CCN000001600000001600FN00000000020221101000001600NNM   20220819121849    2F0F  00000160000000650400000905032P8    YIYTM   005500360039
BI00B32P8    #TAPI-2114     202210267123-6347-40             HOUSING                  CCN000001600000001600FN00000000020221101000001600NNM   20220819121849    2F0F  00000160000000650400000905032P8    YIYTM   005500360039
BI00B32P8    #TAPI-2114     202210267123-7564-30             CONNECTOR                CCN000001000000001000FN00000000020221101000001000NNM   20220819121849    2F0F  00000100000001310000001455632P8    YIYTM   005600390040
BI00B32P8    #TAPI-2114     202210267123-7564-40             CONNECTOR                CCN000001000000001000FN00000000020221101000001000NNM   20220819121849    2F0F  00000100000001301000001479032P8    YIYTM   005600390040
BI00B32P8    #TAPI-2114     202210267182-9633-40             JOINT CONNECTOR          CCN000003000000003000FN00000000020221101000003000NNM   20220819121849    2F0F  00000300000001335000001460532P8    YIYTM   005400370024
BI00B32P8    #TAPI-2114     202210267183-0521                HOUSING                  CCN000004800000004800FN00000000020221101000004800NNM   20220819121849    2F0F  00000480000001367500001585032P8    YIYTM   005500360039
BI00B32P8    #TAPI-2113     202210197183-2412                HOUSING                  CCN000003200000003200FN00000000020221101000003200NNM   20220819121849    2F0F  00000160000001059200001245632P8    YIYTM   005500360039
BI00B32P8    #TAPI-2114     202210267183-2412                HOUSING                  CCN000001600000001600FN00000000020221101000001600NNM   20220819121849    2F0F  00000160000001059200001245632P8    YIYTM   005500360039
BI00B32P8    #TAPI-2112     202210127183-2413-30             CONNECTOR HOUSING        CCN000004800000004800FN00000000020221101000004800NNM   20220819121849    2F0F  00000480000000477600000759532P8    YIYTM   005500360039
BI00B32P8    #TAPI-2113     202210197183-2414-40             CONNECTOR HOUSING        CCN000004800000004800FN00000000020221101000004800NNM   20220819121849    2F0F  00000480000000777600000963632P8    YIYTM   005500360039
BI00B32P8    #TAPI-2111     202210057183-2415                CONNECTOR HOUSING        CCN000004800000004800FN00000000020221101000004800NNM   20220819121849    2F0F  00000480000000798200001091432P8    YIYTM   005500360039
BI00B32P8    #TAPI-2113     202210197183-2415                CONNECTOR HOUSING        CCN000004800000004800FN00000000020221101000004800NNM   20220819121849    2F0F  00000480000000798200001091432P8    YIYTM   005500360039
BI00B32P8    #TAPI-2112     202210127183-2416                HOUSING                  CCN000002400000002400FN00000000020221101000002400NNM   20220819121849    2F0F  00000240000001495200001771032P8    YIYTM   005500360039
BI00B32P8    #TAPI-2114     202210267183-2416                HOUSING                  CCN000002400000002400FN00000000020221101000002400NNM   20220819121849    2F0F  00000240000001495200001771032P8    YIYTM   005500360039
BI00B32P8    #TAPI-2113     202210197183-2416-30             HOUSING                  CCN000002400000002400FN00000000020221101000002400NNM   20220819121849    2F0F  00000240000001495200001770032P8    YIYTM   005500360039
BI00B32P8    #TAPI-2114     202210267183-6320                HOUSING                  CCN000004800000004800FN00000000020221101000004800NNM   20220819121849    2F0F  00000480000000820800001103632P8    YIYTM   005500360039
BI00B32P8    #TAPI-2111     202210057183-7725-40             HOUSING                  CCN000006000000006000FN00000000020221101000006000NNM   20220819121849    2F0F  00000600000000840000001040032P8    YIYTM   005600390040
BI00B32P8    #TAPI-2114     202210267183-7725-40             HOUSING                  CCN000006000000006000FN00000000020221101000006000NNM   20220819121849    2F0F  00000600000000840000001040032P8    YIYTM   005600390040
BI00B32P8    #TAPI-2113     202210197187-3359-60             JOINT CONNECTOR          CCN000001200000001200FN00000000020221101000001200NNM   20220819121849    2F0F  00000120000000763200001030432P8    YIYTM   005600390040
BI00B32P8    #TAPI-2113     202210197187-3360                JOINT CONNECTOR          CCN000001200000001200FN00000000020221101000001200NNM   20220819121849    2F0F  00000120000000759600001026832P8    YIYTM   005600390040
BI00B32P8    #TAPI-2111     202210057187-3361-40             JOINT CONNECTOR          CCN000001200000001200FN00000000020221101000001200NNM   20220819121849    2F0F  00000120000000676800000944032P8    YIYTM   005600390040
BI00B32P8    #TAPI-2114     202210267187-8856                HOUSING FEMALE           CCN000002000000002000FN00000000020221101000002000NNM   20220819121849    2F0F  00000200000000820000000931532P8    YIYTM   005400370024
BI00B32P8    #TAPI-2113     202210197189-2978-30             HOUSING FEMALE           CCN000001500000001500FN00000000020221101000001500NNM   20220819121849    2F0F  00000150000000966900001096932P8    YIYTM   005400370024
BI00B32P8    #TAPI-2114     202210267189-3031                HOUSING FEMALE           CCN000002400000002400FN00000000020221101000002400NNM   20220819121849    2F0F  00000240000000928800001365832P8    YIYTM   005500360039
