AE00TI102209010301/09/202200000001300000000000000003588KGM  00000004329KGM  7B58-3070-80             RUBBER STOPPER           7B58307080               0         0         0         0    0    0    00052000000004000000000012000062400000
AE00TI102209010301/09/202200000002400000000000000004092KGM  00000005254KGM  7137-3047-30             UNIT PACKING             7137304730               0         0         0         0    0    0    00002400000000100000000189000045360000
AE00TI102209010301/09/202200000000700000000000000003794KGM  00000005049KGM  7147-3642-30             CLIP                     7147364230               0         0         0         0    0    0    00002100000000300000000074000015540000
AE00TI102209010301/09/202200000000500000000000000004135KGM  00000005510KGM  7154-5712-30             CASSETTE R/B             7154571230               0         0         0         0    0    0    00000400000000080000000288000011520000
AE00TI102209010301/09/202200000004000000000000000013224KGM  00000015440KGM  7158-3006-90             RUBBER STOPPER           7158300690               0         0         0         0    0    0    00080000000002000000000016000128000000
AE00TI102209010301/09/202200000003400000000000000011492KGM  00000013131KGM  7158-3009-60             RUBBER STOPPER           7158300960               0         0         0         0    0    0    00068000000002000000000012000081600000
AE00TI102209010301/09/202200000000600000000000000000744KGM  00000001034KGM  7158-3165-90             WIRE SEAL                7158316590               0         0         0         0    0    0    00024000000004000000000006000014400000
AE00TI102209010301/09/202200000003300000000000000003432KGM  00000005029KGM  7158-3166-60             WIRE SEAL                7158316660               0         0         0         0    0    0    00132000000004000000000004000052800000
AE00TI102209010301/09/202200000004800000000000000002304KGM  00000005232KGM  7158-3167-80             WIRE SEAL                7158316780               0         0         0         0    0    0    00096000000002000000000005000048000000
AE00TI102209010301/09/202200000002700000000000000001188KGM  00000002487KGM  7158-3168-80             SEALED                   7158316880               0         0         0         0    0    0    00054000000002000000000004000021600000
AE00TI102209010301/09/202200000001600000000000000002496KGM  00000003266KGM  7158-3169-40             SEALING PLUG             7158316940               0         0         0         0    0    0    00064000000004000000000006000038400000
AE00TI102209010301/09/202200000001800000000000000013718KGM  00000017645KGM  7171-6292                HOUSING                  71716292                 0         0         0         0    0    0    00000324000000018000001240000040176000
AE00TI102209010301/09/202200000000100000000000000000814KGM  00000000923KGM  7174-1760-50             CAP                      7174176050               0         0         0         0    0    0    00000300000000300000000100000003000000
AE00TI102209010301/09/202200000000200000000000000002564KGM  00000002954KGM  7182-4941                DOUBLE SIDED             71824941                 0         0         0         0    0    0    00000200000000100000000816000016320000
AE00TI102209010301/09/202200000000100000000000000000951KGM  00000001230KGM  7183-0522                HOUSING                  71830522                 0         0         0         0    0    0    00000240000000240000000113000002712000
AE00TI102209010301/09/202200000000200000000000000002118KGM  00000002491KGM  7183-2412                HOUSING                  71832412                 0         0         0         0    0    0    00000320000000160000000155000004960000
AE00TI102209010301/09/202200000000200000000000000000956KGM  00000001520KGM  7183-2413                CONNECTOR HOUSING        71832413                 0         0         0         0    0    0    00000960000000480000000074000007104000
AE00TI102209010301/09/202200000000400000000000000001910KGM  00000003038KGM  7183-2413-30             CONNECTOR HOUSING        7183241330               0         0         0         0    0    0    00001920000000480000000076000014592000
AE00TI102209010301/09/202200000000200000000000000001558KGM  00000002122KGM  7183-2414                CONNECTOR HOUSING        71832414                 0         0         0         0    0    0    00000960000000480000000050000004800000
AE00TI102209010301/09/202200000000100000000000000001065KGM  00000001352KGM  7183-2419-30             HOUSING                  7183241930               0         0         0         0    0    0    00000480000000480000000093000004464000
AE00TI102209010301/09/202200000000300000000000000002154KGM  00000002517KGM  7183-4000                HOUSING FEMALE           71834000                 0         0         0         0    0    0    00000600000000200000000259000015540000
AE00TI102209010301/09/202200000000100000000000000000821KGM  00000001104KGM  7183-6320                HOUSING                  71836320                 0         0         0         0    0    0    00000480000000480000000092000004416000
AE00TI102209010301/09/202200000000100000000000000000819KGM  00000001102KGM  7183-6320-30             HOUSING                  7183632030               0         0         0         0    0    0    00000480000000480000000114000005472000
AE00TI102209010301/09/202200000000600000000000000005622KGM  00000006274KGM  7183-8256-40             HOUSING                  7183825640               0         0         0         0    0    0    00000720000000120000000250000018000000
AE00TI102209010301/09/202200000000100000000000000000760KGM  00000001024KGM  7187-3356                JOINT CONNECTOR          71873356                 0         0         0         0    0    0    00000120000000120000001038000012456000
AE00TI102209010301/09/202200000001500000000000000012137KGM  00000013857KGM  7188-0149                HLC HOUSING MALE         71880149                 0         0         0         0    0    0    00001350000000090000000530000071550000
AE00TI102209010301/09/202200000000500000000000000004833KGM  00000005625KGM  7222-7564-30             CONNECTOR                7222756430               0         0         0         0    0    0    00000250000000050000001175000029375000
AE00TI102209010301/09/202200000000200000000000000001934KGM  00000002194KGM  7222-7564-40             CONNECTOR                7222756440               0         0         0         0    0    0    00000100000000050000001166000011660000
AE00TI102209010301/09/202200000000800000000000000000000KGM  00000000000KGM  7273-2981-0WD            CASSETTE BRACKET         727329810WD              0         0         0         0    0    0    00000080000000010000000000000000000000
AE00TI102209010301/09/202200000001100000000000000000000KGM  00000000000KGM  7273-2981-0WE            CASSETTE BRACKET         727329810WE              0         0         0         0    0    0    00000088000000008000000000000000000000
AE00TI102209010301/09/202200000002000000000000000000000KGM  00000000000KGM  7273-2982-0WD            CASSETTE BRACKET         727329820WD              0         0         0         0    0    0    00000200000000010000000000000000000000
AE00TI102209010301/09/202200000000500000000000000000000KGM  00000000000KGM  7273-2982-0WE            CASSETTE BRACKET         727329820WE              0         0         0         0    0    0    00000075000000015000000000000000000000
AE00TI102209010301/09/202200000001000000000000000000000KGM  00000000000KGM  7273-2983-0WD            CASSETTE BRACKET         727329830WD              0         0         0         0    0    0    00000100000000010000000000000000000000
AE00TI102209010301/09/202200000000100000000000000001124KGM  00000001213KGM  7282-7028-30             CONNECTOR                7282702830               0         0         0         0    0    0    00000200000000200000000248000004960000
AE00TI102209010301/09/202200000000500000000000000006905KGM  00000008185KGM  7283-1288                CONNECTOR HOUSING        72831288                 0         0         0         0    0    0    00000600000000120000000781000046860000
AE00TI102209010301/09/202200000000200000000000000002762KGM  00000003274KGM  7283-1288-10             CONNECTOR HOUSING        7283128810               0         0         0         0    0    0    00000240000000120000000785000018840000
AE00TI102209010301/09/202200000000100000000000000001382KGM  00000001641KGM  7283-1288-40             CONNECTOR HOUSING        7283128840               0         0         0         0    0    0    00000120000000120000000785000009420000
AE00TI102209010301/09/202200000000100000000000000001160KGM  00000001341KGM  7283-1485                CONNECTOR                72831485                 0         0         0         0    0    0    00000200000000200000000366000007320000
AE00TI102209010301/09/202200000000200000000000000003092KGM  00000003693KGM  7283-5623-60             CONNECTOR                7283562360               0         0         0         0    0    0    00000320000000160000000568000018176000
AE00TI102209010301/09/202200000000100000000000000000678KGM  00000000945KGM  7283-6036                CONNECTOR HOUSING        72836036                 0         0         0         0    0    0    00000160000000160000000260000004160000
AE00TI102209010301/09/202200000000200000000000000002400KGM  00000002820KGM  7283-7449-30             HOUSING FEMALE ASS'Y     7283744930               0         0         0         0    0    0    00000480000000240000000386000018528000
AE00TI102209010301/09/202200000000200000000000000001980KGM  00000002497KGM  7283-7526                CONNECTOR HOUSING        72837526                 0         0         0         0    0    0    00000392000000196000000503000019717600
AE00TI102209010301/09/202200000000400000000000000003959KGM  00000004994KGM  7283-7526-30             CONNECTOR HOUSING        7283752630               0         0         0         0    0    0    00000784000000196000000506000039670400
AE00TI102209010301/09/202200000000200000000000000001980KGM  00000002497KGM  7283-7526-40             CONNECTOR HOUSING        7283752640               0         0         0         0    0    0    00000392000000196000000504000019756800
AE00TI102209010301/09/202200000000400000000000000002160KGM  00000002805KGM  7283-8630                CONNECTOR ASS'Y          72838630                 0         0         0         0    0    0    00002400000000600000000117000028080000
AE00TI102209010301/09/202200000000300000000000000002234KGM  00000002669KGM  7283-8720-30             HOUSING FEMALE           7283872030               0         0         0         0    0    0    00000720000000240000000616000044352000
AE00TI102209010301/09/202200000001100000000000000009391KGM  00000011497KGM  7287-9155                HOUSING FEMALE ASS'Y     72879155                 0         0         0         0    0    0    00001056000000096000000357000037699200
AE00TI102209010301/09/202200000000100000000000000000538KGM  00000000690KGM  7287-9323                UNSEALED HOUSING SUB     72879323                 0         0         0         0    0    0    00000240000000240000000146000003504000
AE00TI102209010301/09/202200000000400000000000000003464KGM  00000004044KGM  7288-3329-30             HOUSING MALE             7288332930               0         0         0         0    0    0    00000600000000150000000354000021240000
AE00TI102209010301/09/202200000000200000000000000001734KGM  00000002024KGM  7288-3334-30             HOUSING MALE             7288333430               0         0         0         0    0    0    00000300000000150000000354000010620000
AE00TI102209010301/09/202200000000200000000000000001734KGM  00000002024KGM  7288-3337-30             HOUSING MALE             7288333730               0         0         0         0    0    0    00000300000000150000000354000010620000
AE00TI102209010301/09/202200000000500000000000000006027KGM  00000006702KGM  7288-6547                CONNECTOR MALE ASS'Y     72886547                 0         0         0         0    0    0    00000375000000075000001125000042187500
AE00TI102209010301/09/202200000000200000000000000001373KGM  00000001803KGM  7289-3342                HOUSING FEMALE ASS'Y     72893342                 0         0         0         0    0    0    00000480000000240000000186000008928000
AE00TI102209010301/09/202200000003500000000000000024024KGM  00000031549KGM  7289-3342-30             HOUSING FEMALE ASS'Y     7289334230               0         0         0         0    0    0    00008400000000240000000191000160440000
AE00TI102209010301/09/202200000000200000000000000000000KGM  00000000000KGM  7289-3342-30M            HOUSING FEMALE ASS'Y     7289334230M              0         0         0         0    0    0    00000204000000102000000188000003835200
AE00TI102209010301/09/202200000000400000000000000004792KGM  00000006464KGM  7341-5305-40             SOCKET PLUG              7341530540               0         0         0         0    0    0    00000800000000200000000437000034960000
AE00TI102209010301/09/202200000000200000000000000001884KGM  00000002174KGM  7382-7523                JOINT CONNECTOR          73827523                 0         0         0         0    0    0    00000240000000120000000571000013704000
AE00TI102209010301/09/202200000001700000000000000016915KGM  00000019125KGM  7388-0313-30             CONNECTOR ASS'Y          7388031330               0         0         0         0    0    0    00002040000000120000000376000076704000
