AE00TI102209010101/09/202200000000200000000000000001245KGM  00000001524KGM  7B74-1849-70             COVER                    7B74184970               0         0         0         0    0    0    00005000000002500000000046000023000000
AE00TI102209010101/09/202200000000100000000000000001110KGM  00000001364KGM  7157-7915-80             REAR HOLDER              7157791580               0         0         0         0    0    0    00001000000001000000000124000012400000
AE00TI102209010101/09/202200000000100000000000000000868KGM  00000001068KGM  7173-3291-40             LIF LEVER                7173329140               0         0         0         0    0    0    00000240000000240000000142000003408000
AE00TI102209010101/09/202200000000500000000000000003113KGM  00000003810KGM  7174-1849-70             COVER                    7174184970               0         0         0         0    0    0    00012500000002500000000046000057500000
AE00TI102209010101/09/202200000012000000000000000028776KGM  00000058776KGM  7271-1820-30             CASE SUB ASSY,ECU        7271182030               0         0         0         0    0    0    00000216000000001800009576000206841600
AE00TI102209010101/09/202200000000200000000000000002467KGM  00000002891KGM  7287-7599-40             HOUSING FEMALE ASS'Y     7287759940               0         0         0         0    0    0    00000320000000160000000367000011744000
AE00TI102209010101/09/202200000000800000000000000006929KGM  00000008089KGM  7288-3329-30             HOUSING MALE             7288332930               0         0         0         0    0    0    00001200000000150000000354000042480000
AE00TI102209010101/09/202200000001300000000000000015669KGM  00000017424KGM  7288-6547                CONNECTOR MALE ASS'Y     72886547                 0         0         0         0    0    0    00000975000000075000001125000109687500
AE00TI102209010101/09/202200000000600000000000000004118KGM  00000005408KGM  7289-3342                HOUSING FEMALE ASS'Y     72893342                 0         0         0         0    0    0    00001440000000240000000186000026784000
AE00TI102209010101/09/202200000002400000000000000016474KGM  00000021634KGM  7289-3342-30             HOUSING FEMALE ASS'Y     7289334230               0         0         0         0    0    0    00005760000000240000000191000110016000
AE00TI102209010101/09/202200000000800000000000000006634KGM  00000008394KGM  7289-6518-30             HOUSING FEMALE ASS'Y     7289651830               0         0         0         0    0    0    00000960000000120000000598000057408000
AE00TI102209010101/09/202200000000800000000000000006714KGM  00000008954KGM  7289-6868-30             SEALED ASSY FEMALE       7289686830               0         0         0         0    0    0    00002016000000252000000332000066931200
AE00TI102209010101/09/202200000000200000000000000002006KGM  00000002409KGM  7298-1865-30             HOUSING FEMALE ASS'Y     7298186530               0         0         0         0    0    0    00000480000000240000000196000009408000
AE00TI102209010101/09/202200000000200000000000000002195KGM  00000002717KGM  7298-4094-10             HOUSING FEMALE ASS'Y     7298409410               0         0         0         0    0    0    00000676000000338000000241000016291600
AE00TI102209010101/09/202200000000700000000000000006871KGM  00000009030KGM  7298-5993-30             SEALED ASSY FEMALE       7298599330               0         0         0         0    0    0    00001528800000218400000266000040666080
AE00TI102209010101/09/202200000001500000000000000018452KGM  00000021339KGM  7327-6533-3W             BATTERY FUSE             732765333W               0         0         0         0    0    0    00000108000000007200010131000109414800
AE00TI102209010101/09/202200000002300000000000000026241KGM  00000031186KGM  7327-6840-3W             BATTERY FUSE             732768403W               0         0         0         0    0    0    00000165600000007200009909000164093040
AE00TI102209010101/09/202200000001200000000000000011940KGM  00000013500KGM  7388-0313-30             CONNECTOR ASS'Y          7388031330               0         0         0         0    0    0    00001440000000120000000376000054144000
AE00TI102209010101/09/202200000004200000000000000031164KGM  00000047124KGM  7388-2978-30             HOUSING MALE ASS'Y       7388297830               0         0         0         0    0    0    00002016000000048000001790000360864000
AE00TI102209010101/09/202200000003000000000000000000000KGM  00000000000KGM  7470-5301                J/B COMPLETE ASS'Y       74705301                 0         0         0         0    0    0    00000030000000001000000000000000000000
AE00TI102209010101/09/202200000001400000000000000000000KGM  00000000000KGM  7470-5784E               J/B COMPLETE ASS'Y       74705784E                0         0         0         0    0    0    00000014000000001000000000000000000000
