AE00TI102209010501/09/202200000000800000000000000006936KGM  00000008096KGM  7288-3334-30             HOUSING MALE             7288333430               0         0         0         0    0    0    00001200000000150000000354000042480000
AE00TI102209010501/09/202200000000600000000000000007232KGM  00000008042KGM  7288-6547                CONNECTOR MALE ASS'Y     72886547                 0         0         0         0    0    0    00000450000000075000001125000050625000
AE00TI102209010501/09/202200000000300000000000000003223KGM  00000004288KGM  7288-6598-70             HOUSING MALE ASS'Y       7288659870               0         0         0         0    0    0    00000432000000144000000911000039355200
AE00TI102209010501/09/202200000000600000000000000004118KGM  00000005408KGM  7289-3342                HOUSING FEMALE ASS'Y     72893342                 0         0         0         0    0    0    00001440000000240000000186000026784000
AE00TI102209010501/09/202200000000200000000000000001658KGM  00000002098KGM  7289-6518-30             HOUSING FEMALE ASS'Y     7289651830               0         0         0         0    0    0    00000240000000120000000598000014352000
AE00TI102209010501/09/202200000000500000000000000004908KGM  00000006450KGM  7298-5993-30             SEALED ASSY FEMALE       7298599330               0         0         0         0    0    0    00001092000000218400000266000029047200
AE00TI102209010501/09/202200000000500000000000000006151KGM  00000007113KGM  7327-6533-3W             BATTERY FUSE             732765333W               0         0         0         0    0    0    00000036000000007200010131000036471600
AE00TI102209010501/09/202200000001800000000000000015667KGM  00000022680KGM  7370-0309                J/B ASS'Y                73700309                 0         0         0         0    0    0    00000028800000001600028585000082324800
AE00TI102209010501/09/202200000001100000000000000008162KGM  00000012342KGM  7388-2978-30             HOUSING MALE ASS'Y       7388297830               0         0         0         0    0    0    00000528000000048000001790000094512000
AE00TI102209010501/09/202200000001400000000000000018480KGM  00000021980KGM  7470-3082                J/B COMPLETE ASS'Y       74703082                 0         0         0         0    0    0    00000033600000002400031298000105161280
AE00TI102209010501/09/202200000002200000000000000029040KGM  00000034540KGM  7470-4481                J/B COMPLETE ASS'Y       74704481                 0         0         0         0    0    0    00000052800000002400000000000000000000
AE00TI102209010501/09/202200000001000000000000000000000KGM  00000000000KGM  7470-4818E               J/B COMPLETE ASS'Y       74704818E                0         0         0         0    0    0    00000010000000001000000000000000000000
AE00TI102209010501/09/202200000001500000000000000000000KGM  00000000000KGM  7470-5300E               J/B COMPLETE ASS'Y       74705300E                0         0         0         0    0    0    00000015000000001000000000000000000000
AE00TI102209010501/09/202200000001000000000000000000000KGM  00000000000KGM  7470-5782E               J/B COMPLETE ASS'Y       74705782E                0         0         0         0    0    0    00000010000000001000000000000000000000
AE00TI102209010501/09/202200000001200000000000000000000KGM  00000000000KGM  7470-5783D               J/B COMPLETE ASS'Y       74705783D                0         0         0         0    0    0    00000018000000001500000000000000000000
