BI00B1200    H322J50026     202209157298-4094-10             HOUSING FEMALE ASS'Y     CCN000006760000003380FN00000000020221001000003380NNEQ0020220901121518    4N0N  0000033800000109740000135871200    YCYC    005400370024
BI00B1200    8670T52901     202210277137-3047-30             UNIT PACKING             CCN000006000000006000FN00000000020221101000006000NNM   20220901121518    1C0C  0000010000000017050000021891200    YCYC    002700430014
BI00B1200    8670T52902     202211037137-3047-30             UNIT PACKING             CCN000005000000005000FN00000000020221101000005000NNM   20220901121518    1C0C  0000010000000017050000021891200    YCYC    002700430014
BI00B1200    8670T52903     202211177137-3047-30             UNIT PACKING             CCN000005000000005000FN00000000020221101000005000NNM   20220901121518    1C0C  0000010000000017050000021891200    YCYC    002700430014
BI00B1200    8670T52901     202210277172-5402-30             SEAL RUBBER              CCN000016000000016000FN00000000020221101000016000NNM   20220901121518    1C0C  0000080000000045760000050601200    YCYC    004300270014
BI00B1200    8670T52902     202211037172-5402-30             SEAL RUBBER              CCN000008000000008000FN00000000020221101000008000NNM   20220901121518    1C0C  0000080000000045760000050601200    YCYC    004300270014
BI00B1200    8670T52903     202211177172-5402-30             SEAL RUBBER              CCN000008000000008000FN00000000020221101000008000NNM   20220901121518    1C0C  0000080000000045760000050601200    YCYC    004300270014
BI00B1200    8670T52901     202210277172-5403-30             SEALED PACKING           CCN000012000000012000FN00000000020221101000012000NNM   20220901121518    1C0C  0000040000000065360000070171200    YCYC    004300270014
BI00B1200    8670T52902     202211037172-5403-30             SEALED PACKING           CCN000008000000008000FN00000000020221101000008000NNM   20220901121518    1C0C  0000040000000065360000070171200    YCYC    004300270014
BI00B1200    8670T52903     202211177172-5403-30             SEALED PACKING           CCN000008000000008000FN00000000020221101000008000NNM   20220901121518    1C0C  0000040000000065360000070171200    YCYC    004300270014
BI00B1200    8670T52901     202210277196-1103-02             TERMINAL                 CCN000022500000022500FN00000000020221101000022500NNM   20220901121518    4P0P  0000225000000042980000071501200    YCYC    006400630015
BI00B1200    8670T52902     202211037196-1103-02             TERMINAL                 CCN000022500000022500FN00000000020221101000022500NNM   20220901121518    4P0P  0000225000000042980000071501200    YCYC    006400630015
BI00B1200    8670T52903     202211177196-1103-02             TERMINAL                 CCN000022500000022500FN00000000020221101000022500NNM   20220901121518    4P0P  0000225000000042980000071501200    YCYC    006400630015
BI00B1200    8670T52901     202210277196-1104-02             TERMINAL                 CCN000022500000022500FN00000000020221101000022500NNM   20220901121518    4P0P  0000225000000044100000072621200    YCYC    006400630015
BI00B1200    #8670T52901    202210277172-5629-80             RUBBER STOPPER           CCN000020000000020000FN00000000020221101000020000NNM   20220901121518    2H0H  0000200000000006000000011111200    YCYC    004300270014
BI00B1200    #8670T52902    202211037172-5629-80             RUBBER STOPPER           CCN000040000000040000FN00000000020221101000040000NNM   20220901121518    2H0H  0000200000000006000000011111200    YCYC    004300270014
BI00B1200    #8670T52903    202211177172-5629-80             RUBBER STOPPER           CCN000020000000020000FN00000000020221101000020000NNM   20220901121518    2H0H  0000200000000006000000011111200    YCYC    004300270014
BI00B1200    #8670T52901    202210277172-5630-40             RUBBER STOPPER           CCN000020000000020000FN00000000020221101000020000NNM   20220901121518    2H0H  0000200000000004400000009511200    YCYC    004300270014
BI00B1200    #8670T52903    202211177172-5630-40             RUBBER STOPPER           CCN000020000000020000FN00000000020221101000020000NNM   20220901121518    2H0H  0000200000000004400000009511200    YCYC    004300270014
BI00B1200    #8670T52901    202210277289-2919-30             HOUSING FEMALE ASS'Y     CCN000001500000001500FN00000000020221101000001500NNM   20220901121518    2N0N  0000015000000090750000103451200    YCYC    005400370024
BI00B1200    #H322L50012    202211107147-8717-30             CLIP                     CCN000050000000050000FN00000000020221201000050000NNE   20220901121518    2F0F  0000050000000066000000087501200    YCYC    005600390040
BI00B1200    #Y022L50031    202211107174-1314-30             SEALED COVER             CCN000001600000001600FN00000000020221201000001600NNM   20220901121518    2F0F  0000008000000076930000088931200    YCYC    005500360039
BI00B1200    #Y022L50032    202211107174-1315-30             SEALED COVER             CCN000001600000001600FN00000000020221201000001600NNM   20220901121518    2F0F  0000008000000078200000090201200    YCYC    005500360039
BI00B1200    Y022L50033     202211107196-0648-02             TERMINAL                 CCN000030000000030000FN00000000020221201000030000NNM   20220901121518    4P0P  0000150000000035550000068971200    YCYC    006400630015
BI00B1200    Y022L50034     202211107289-6523-30             HOUSING FEMALE ASS'Y     CCN000001200000001200FN00000000020221201000001200NNM   20220901121518    4N0N  0000002400000129050000162051200    YCYC    005500360039
BI00B1200    Y022L50035     202211107289-9612-30             HOUSING FEMALE ASS'Y     CCN000000960000000960FN00000000020221201000000960NNM   20220901121518    4N0N  0000002400000134880000166881200    YCYC    005500360039
BI00B1200    Y022L50042     202211107288-9556-30             SEALED ASSY MALE         CCN000004320000004320FN00000000020221201000004320NNM   20220901121518    4N0N  0000007200000053790000078631200    YCYC    005500360039
BI00A1200    H322J50026     202209027298-4094-10             HOUSING FEMALE ASS'Y     CCN000006380000003380FN00000000020221001000003380NNEM0020220901121518    4N0N  0000033800000109740000135871200    YCYC    005400370024
BI00B32AG    #XG2211AHMW    202210077158-3005-80             RUBBER STOPPER           CCN000020000000020000FN00000000020221101000020000NNE   20220901145653    2H0H  00002000000000210000000268732AG    XGXGY   002700430014
BI00B32AG    XG2211BNMW     202210077116-4120-02             TERMINAL                 CCN000006000000006000FN00000000020221101000006000NNE   20220901145711    4P0P  00000600000000780000001073632AG    XGXGY   006400630015
BI00B32AG    XG2211BNMW     202210077116-4122-02             TERMINAL                 CCN000013500000013500FN00000000020221101000013500NNE   20220901145711    4P0P  00000450000000656600000950232AG    XGXGY   006400630015
BI00B32AG    XG2211BNMW     202210077116-4415-02             TERMINAL                 CCN000190000000190000FN00000000020221101000190000NNE   20220901145711    4P0P  00003800000000596600000925732AG    XGXGY   006400630017
BI00B32AG    XG2211BNMW     202210077158-3165-90             WIRE SEAL                CCN000080000000080000FN00000000020221101000080000NNE   20220901145711    1C0C  00004000000000124000000172432AG    XGXGY   004300270014
BI00B32AG    XG2211BNMW     202210077158-3166-60             WIRE SEAL                CCN000160000000160000FN00000000020221101000160000NNE   20220901145711    1C0C  00004000000000104000000152432AG    XGXGY   002700430014
BI00B32AG    XG2211BNMW     202210077158-3167-80             WIRE SEAL                CCN000140000000140000FN00000000020221101000140000NNE   20220901145711    1C0C  00002000000000048000000109032AG    XGXGY   002700430014
BI00B32AG    XG2211BNMW     202210077158-3168-80             SEALED                   CCN000040000000040000FN00000000020221101000040000NNE   20220901145711    1C0C  00002000000000044000000092132AG    XGXGY   004300260014
BI00B32AG    XG2211BNMW     202210077158-3169-40             SEALING PLUG             CCN000040000000040000FN00000000020221101000040000NNE   20220901145711    1C0C  00004000000000156000000204132AG    XGXGY   004300260014
BI00B32AG    #XG2211BNMW    202210077123-6423-30             CONNECTOR                CCN000002000000002000FN00000000020221101000002000NNE   20220901145706    2F0F  00000200000001002000001167632AG    XGXGY   005600390023
BI00B32AG    XG2211CLMW     202210077116-4025                TERMINAL                 CCN000032000000032000FN00000000020221101000032000NNE   20220901145744    4P0P  00001600000000644800000975132AG    XGXGY   006400630017
BI00B32AG    XG2211CLMW     202210077116-4026                TERMINAL                 CCN000048000000048000FN00000000020221101000048000NNE   20220901145744    4P0P  00001600000000664000000994332AG    XGXGY   006400630017
BI00B32AG    XG2211CLMW     202210077172-1372-10             FRONT HOLDER             CCN000003900000003900FN00000000020221101000003900NNE   20220901145744    4F0F  00000390000000655200000955232AG    XGXGY   005500360039
BI00B32AG    XG2211CLMW     202210077289-4696-30             HOUSING FEMALE ASS'Y     CCN000014000000014000FN00000000020221101000014000NNE   20220901145744    4N0N  00000200000000913400001055432AG    XGXGY   005400370024
BI00B32AG    XG2211CLMW     202210077289-7615-30             HOUSING FEMALE ASS'Y     CCN000004160000004160FN00000000020221101000004160NNE   20220901145744    4N0N  00000032000000738000000948032AG    XGXGY   005400370024
BI00B32AG    #XG2211CLMW    202210077158-3003-90             RUBBER STOPPER           CCN000060000000060000FN00000000020221101000060000NNE   20220901145738    2C0C  00002000000000250000000306032AG    XGXGY   002700430014
BI00B32AG    #XG2211CLMW    202210077158-3008-80             RUBBER STOPPER           CCN000020000000020000FN00000000020221101000020000NNE   20220901145738    2C0C  00002000000000288000000343032AG    XGXGY   004300270014
BI00B32AG    #XG2211CLMW    202210077158-3120-90             CONNECTOR WIRE SEAL      CCN000080000000080000FN00000000020221101000080000NNE   20220901145738    2C0C  00002000000000136000000194032AG    XGXGY   002700430014
BI00B32AG    #XG2211CLMW    202210077158-3121-80             WIRE SEAL                CCN000020000000020000FN00000000020221101000020000NNE   20220901145738    2C0C  00002000000000118000000187332AG    XGXGY   002700430014
BI00B32AG    #XG2211CLMW    202210077158-3654-80             WIRE TUBE                CCN000120000000120000FN00000000020221101000120000NNE   20220901145738    2H0H  00004000000000104000000152232AG    XGXGY   004300270014
BI00B32AG    #XG2211CLMW    202210077182-9631-40             JOINT CONNECTOR          CCN000006000000006000FN00000000020221101000006000NNE   20220901145738    2F0F  00000300000001182000001307432AG    XGXGY   005400370024
BI00B32AG    #XG2211CLMW    202210077182-9633-40             JOINT CONNECTOR          CCN000009000000009000FN00000000020221101000009000NNE   20220901145738    2F0F  00000300000001335000001460532AG    XGXGY   005400370024
BI00B32AG    XG22124CMW     202211257B96-0805-02             TERMINAL FEMALE          CCN000022500000022500FN00000000020221201000022500NNM   20220901145848    4P0P  00002250000000558000000843232AG    XGXGY   006400630015
BI00B32AG    XG22124CMW     202211257C89-6868-30             SEALED ASSY FEMALE       CCN000005040000005040FN00000000020221201000005040NNM   20220901145848    4N0N  00000252000000839200001119232AG    XGXGY   005500360039
BI00B32AG    XG22121CMW     202211047017-1180-02             TERMINAL                 CCN000072000000072000FN00000000020221201000072000NNM   20220901145848    4P0P  00007200000001065600001229032AG    XGXGY   005100280028
BI00B32AG    XG22123CMW     202211187116-1685-02             TERMINAL                 CCN000024000000024000FN00000000020221201000024000NNM   20220901145848    4P0P  00002400000000897600001065232AG    XGXGY   005100280028
BI00B32AG    XG22124CMW     202211257116-4032                TERMINAL                 CCN000006000000006000FN00000000020221201000006000NNM   20220901145848    4P0P  00000600000000532800000818032AG    XGXGY   006400630015
BI00B32AG    XG22124CMW     202211257158-3070-80             RUBBER STOPPER           CCN000040000000040000FN00000000020221201000040000NNM   20220901145848    1C0C  00004000000000276000000333332AG    XGXGY   002700430014
BI00B32AG    XG22123CMW     202211187172-5540-80             SEALED WIRE SEAL         CCN000040000000040000FN00000000020221201000040000NNM   20220901145848    1C0C  00002000000000186000000234432AG    XGXGY   004300270014
BI00B32AG    XG22124CMW     202211257196-0805-02             TERMINAL FEMALE          CCN000022500000022500FN00000000020221201000022500NNM   20220901145848    4P0P  00002250000000558000000843232AG    XGXGY   006400630015
BI00B32AG    XG22124CMW     202211257298-3822-70             HOUSING FEMALE ASS'Y     CCN000002520000002520FN00000000020221201000002520NNM   20220901145848    4N0N  00000252000000776200001077032AG    XGXGY   005500360039
BI00B32AG    XG22122CMW     202211117327-6908                MAIN FUSE                CCN000001200000001200FN00000000020221201000001200NNM   20220901145848    4N0N  00000060000000730400000915432AG    XGXGY   005400370024
BI00B32AG    XG22123CMW     202211187327-6908                MAIN FUSE                CCN000001800000001800FN00000000020221201000001800NNM   20220901145848    4N0N  00000060000000730400000915432AG    XGXGY   005400370024
BI00B32AG    XG22124CMW     202211257327-6908                MAIN FUSE                CCN000000600000000600FN00000000020221201000000600NNM   20220901145848    4N0N  00000060000000730400000915432AG    XGXGY   005400370024
BI00B32AG    #XG22124CMW    202211257198-1371-60             HOUSING FEMALE           CCN000002000000002000FN00000000020221201000002000NNM   20220901145843    2F0F  00000200000000597800000721232AG    XGXGY   005400370024
BI00B32AG    #XG22124CMW    202211257198-1372                HOUSING FEMALE           CCN000002000000002000FN00000000020221201000002000NNM   20220901145843    2F0F  00000200000000857200000982232AG    XGXGY   005400370024
BI00B32AG    #XG22124CMW    202211257198-1373-60             HOUSING FEMALE           CCN000002000000002000FN00000000020221201000002000NNM   20220901145843    2F0F  00000200000000819400000947432AG    XGXGY   005400370024
BI00B32AG    #XG22124CMW    202211257198-2458                HOUSING FEMALE           CCN000001760000001760FN00000000020221201000001760NNM   20220901145843    2F0F  00000176000000869100001160532AG    XGXGY   005400370024
BI00B32AG    #XG22124CMW    202211257298-2459-60             LIF FEMALE ASSEMBLY      CCN000002016000002016FN00000000020221201000002016NNM   20220901145843    2N0N  00000016800000534000000729632AG    XGXGY   005400370024
BI00B32AG    XG22122GMW     202211117327-6840-3W             BATTERY FUSE             CCN000000792000000792FN00000000020221201000000792NNM   20220901145858    4N0N  00000007200001140900001355932AG    XGXGY   005500360039
BI00B32AG    XG22123GMW     202211187327-6840-3W             BATTERY FUSE             CCN000000864000000864FN00000000020221201000000864NNM   20220901145858    4N0N  00000007200001140900001355932AG    XGXGY   005500360039
BI00B32AG    XG22124GMW     202211257327-6840-3W             BATTERY FUSE             CCN000000720000000720FN00000000020221201000000720NNM   20220901145858    4N0N  00000007200001140900001355932AG    XGXGY   005500360039
BI00B32AG    #XG22123HMW    202211187158-3005-80             RUBBER STOPPER           CCN000020000000020000FN00000000020221201000020000NNM   20220901145930    2H0H  00002000000000210000000268732AG    XGXGY   002700430014
BI00B32AG    XG22124JMW     202211257196-1461-02             TERMINAL FEMALE          CCN000072000000072000FN00000000020221201000072000NNM   20220901150035    4P0P  00002400000000386400000671632AG    XGXGY   006400630015
BI00B32AG    XG22123JMW     202211187196-1462-02             TERMINAL FEMALE          CCN000021000000021000FN00000000020221201000021000NNM   20220901150035    4P0P  00002100000000352800000638032AG    XGXGY   006400630015
BI00B32AG    XG22124JMW     202211257196-1462-02             TERMINAL FEMALE          CCN000021000000021000FN00000000020221201000021000NNM   20220901150035    4P0P  00002100000000352800000638032AG    XGXGY   006400630015
BI00B32AG    XG22121KMW     202211047196-0104-02             TERMINAL                 CCN000038000000038000FN00000000020221201000038000NNM   20220901150055    4P0P  00003800000000570000000956432AG    XGXGY   006400630017
BI00B32AG    XG22121LMW     202211047017-1183-02             TERMINAL                 CCN000054000000054000FN00000000020221201000054000NNM   20220901150120    4P0P  00002700000001139400001307432AG    XGXGY   005100280028
BI00B32AG    XG22122LMW     202211117017-1183-02             TERMINAL                 CCN000027000000027000FN00000000020221201000027000NNM   20220901150120    4P0P  00002700000001139400001307432AG    XGXGY   005100280028
BI00B32AG    XG22123LMW     202211187017-1183-02             TERMINAL                 CCN000027000000027000FN00000000020221201000027000NNM   20220901150120    4P0P  00002700000001139400001307432AG    XGXGY   005100280028
BI00B32AG    XG22124LMW     202211257017-1183-02             TERMINAL                 CCN000027000000027000FN00000000020221201000027000NNM   20220901150120    4P0P  00002700000001139400001307432AG    XGXGY   005100280028
BI00B32AG    XG22122LMW     202211117116-4022                TERMINAL                 CCN000013500000013500FN00000000020221201000013500NNM   20220901150120    4P0P  00001350000000618300000903532AG    XGXGY   006400630015
BI00B32AG    XG22124LMW     202211257116-4022                TERMINAL                 CCN000013500000013500FN00000000020221201000013500NNM   20220901150120    4P0P  00001350000000618300000903532AG    XGXGY   006400630015
BI00B32AG    XG22121LMW     202211047116-4025                TERMINAL                 CCN000048000000048000FN00000000020221201000048000NNM   20220901150120    4P0P  00001600000000644800000975132AG    XGXGY   006400630017
BI00B32AG    XG22122LMW     202211117116-4025                TERMINAL                 CCN000048000000048000FN00000000020221201000048000NNM   20220901150120    4P0P  00001600000000644800000975132AG    XGXGY   006400630017
BI00B32AG    XG22123LMW     202211187116-4025                TERMINAL                 CCN000048000000048000FN00000000020221201000048000NNM   20220901150120    4P0P  00001600000000644800000975132AG    XGXGY   006400630017
BI00B32AG    XG22124LMW     202211257116-4025                TERMINAL                 CCN000032000000032000FN00000000020221201000032000NNM   20220901150120    4P0P  00001600000000644800000975132AG    XGXGY   006400630017
BI00B32AG    XG22121LMW     202211047116-4026                TERMINAL                 CCN000032000000032000FN00000000020221201000032000NNM   20220901150120    4P0P  00001600000000664000000994332AG    XGXGY   006400630017
BI00B32AG    XG22122LMW     202211117116-4026                TERMINAL                 CCN000032000000032000FN00000000020221201000032000NNM   20220901150120    4P0P  00001600000000664000000994332AG    XGXGY   006400630017
BI00B32AG    XG22123LMW     202211187116-4026                TERMINAL                 CCN000032000000032000FN00000000020221201000032000NNM   20220901150120    4P0P  00001600000000664000000994332AG    XGXGY   006400630017
BI00B32AG    XG22124LMW     202211257116-4026                TERMINAL                 CCN000032000000032000FN00000000020221201000032000NNM   20220901150120    4P0P  00001600000000664000000994332AG    XGXGY   006400630017
BI00B32AG    XG22121LMW     202211047172-1372-10             FRONT HOLDER             CCN000003900000003900FN00000000020221201000003900NNM   20220901150120    4F0F  00000390000000655200000955232AG    XGXGY   005500360039
BI00B32AG    XG22122LMW     202211117172-1372-10             FRONT HOLDER             CCN000003900000003900FN00000000020221201000003900NNM   20220901150120    4F0F  00000390000000655200000955232AG    XGXGY   005500360039
BI00B32AG    XG22123LMW     202211187172-1372-10             FRONT HOLDER             CCN000003900000003900FN00000000020221201000003900NNM   20220901150120    4F0F  00000390000000655200000955232AG    XGXGY   005500360039
BI00B32AG    XG22121LMW     202211047289-4696-30             HOUSING FEMALE ASS'Y     CCN000010000000010000FN00000000020221201000010000NNM   20220901150120    4N0N  00000200000000913400001055432AG    XGXGY   005400370024
BI00B32AG    XG22122LMW     202211117289-4696-30             HOUSING FEMALE ASS'Y     CCN000010000000010000FN00000000020221201000010000NNM   20220901150120    4N0N  00000200000000913400001055432AG    XGXGY   005400370024
BI00B32AG    XG22123LMW     202211187289-4696-30             HOUSING FEMALE ASS'Y     CCN000010000000010000FN00000000020221201000010000NNM   20220901150120    4N0N  00000200000000913400001055432AG    XGXGY   005400370024
BI00B32AG    XG22124LMW     202211257289-4696-30             HOUSING FEMALE ASS'Y     CCN000008000000008000FN00000000020221201000008000NNM   20220901150120    4N0N  00000200000000913400001055432AG    XGXGY   005400370024
BI00B32AG    XG22121LMW     202211047289-7615-30             HOUSING FEMALE ASS'Y     CCN000003200000003200FN00000000020221201000003200NNM   20220901150120    4N0N  00000032000000738000000948032AG    XGXGY   005400370024
BI00B32AG    XG22122LMW     202211117289-7615-30             HOUSING FEMALE ASS'Y     CCN000003520000003520FN00000000020221201000003520NNM   20220901150120    4N0N  00000032000000738000000948032AG    XGXGY   005400370024
BI00B32AG    XG22123LMW     202211187289-7615-30             HOUSING FEMALE ASS'Y     CCN000003520000003520FN00000000020221201000003520NNM   20220901150120    4N0N  00000032000000738000000948032AG    XGXGY   005400370024
BI00B32AG    XG22124LMW     202211257289-7615-30             HOUSING FEMALE ASS'Y     CCN000002560000002560FN00000000020221201000002560NNM   20220901150120    4N0N  00000032000000738000000948032AG    XGXGY   005400370024
BI00B32AG    #XG22121LMW    202211047158-3003-90             RUBBER STOPPER           CCN000100000000100000FN00000000020221201000100000NNM   20220901150105    2C0C  00002000000000250000000306032AG    XGXGY   002700430014
BI00B32AG    #XG22122LMW    202211117158-3003-90             RUBBER STOPPER           CCN000040000000040000FN00000000020221201000040000NNM   20220901150105    2C0C  00002000000000250000000306032AG    XGXGY   002700430014
BI00B32AG    #XG22123LMW    202211187158-3003-90             RUBBER STOPPER           CCN000060000000060000FN00000000020221201000060000NNM   20220901150105    2C0C  00002000000000250000000306032AG    XGXGY   002700430014
BI00B32AG    #XG22124LMW    202211257158-3003-90             RUBBER STOPPER           CCN000040000000040000FN00000000020221201000040000NNM   20220901150105    2C0C  00002000000000250000000306032AG    XGXGY   002700430014
BI00B32AG    #XG22121LMW    202211047158-3008-80             RUBBER STOPPER           CCN000040000000040000FN00000000020221201000040000NNM   20220901150105    2C0C  00002000000000288000000343032AG    XGXGY   004300270014
BI00B32AG    #XG22123LMW    202211187158-3008-80             RUBBER STOPPER           CCN000020000000020000FN00000000020221201000020000NNM   20220901150105    2C0C  00002000000000288000000343032AG    XGXGY   004300270014
BI00B32AG    #XG22121LMW    202211047158-3120-90             CONNECTOR WIRE SEAL      CCN000060000000060000FN00000000020221201000060000NNM   20220901150105    2C0C  00002000000000136000000194032AG    XGXGY   002700430014
BI00B32AG    #XG22122LMW    202211117158-3120-90             CONNECTOR WIRE SEAL      CCN000040000000040000FN00000000020221201000040000NNM   20220901150105    2C0C  00002000000000136000000194032AG    XGXGY   002700430014
BI00B32AG    #XG22123LMW    202211187158-3120-90             CONNECTOR WIRE SEAL      CCN000060000000060000FN00000000020221201000060000NNM   20220901150105    2C0C  00002000000000136000000194032AG    XGXGY   002700430014
BI00B32AG    #XG22124LMW    202211257158-3120-90             CONNECTOR WIRE SEAL      CCN000020000000020000FN00000000020221201000020000NNM   20220901150105    2C0C  00002000000000136000000194032AG    XGXGY   002700430014
BI00B32AG    #XG22122LMW    202211117158-3121-80             WIRE SEAL                CCN000020000000020000FN00000000020221201000020000NNM   20220901150105    2C0C  00002000000000118000000187332AG    XGXGY   002700430014
BI00B32AG    #XG22123LMW    202211187158-3121-80             WIRE SEAL                CCN000020000000020000FN00000000020221201000020000NNM   20220901150105    2C0C  00002000000000118000000187332AG    XGXGY   002700430014
BI00B32AG    #XG22124LMW    202211257158-3121-80             WIRE SEAL                CCN000020000000020000FN00000000020221201000020000NNM   20220901150105    2C0C  00002000000000118000000187332AG    XGXGY   002700430014
BI00B32AG    #XG22121LMW    202211047158-3654-80             WIRE TUBE                CCN000080000000080000FN00000000020221201000080000NNM   20220901150105    2H0H  00004000000000104000000152232AG    XGXGY   004300270014
BI00B32AG    #XG22122LMW    202211117158-3654-80             WIRE TUBE                CCN000080000000080000FN00000000020221201000080000NNM   20220901150105    2H0H  00004000000000104000000152232AG    XGXGY   004300270014
BI00B32AG    #XG22123LMW    202211187158-3654-80             WIRE TUBE                CCN000080000000080000FN00000000020221201000080000NNM   20220901150105    2H0H  00004000000000104000000152232AG    XGXGY   004300270014
BI00B32AG    #XG22124LMW    202211257158-3654-80             WIRE TUBE                CCN000080000000080000FN00000000020221201000080000NNM   20220901150105    2H0H  00004000000000104000000152232AG    XGXGY   004300270014
BI00B32AG    #XG22121LMW    202211047182-9631-40             JOINT CONNECTOR          CCN000003000000003000FN00000000020221201000003000NNM   20220901150105    2F0F  00000300000001182000001307432AG    XGXGY   005400370024
BI00B32AG    #XG22122LMW    202211117182-9631-40             JOINT CONNECTOR          CCN000003000000003000FN00000000020221201000003000NNM   20220901150105    2F0F  00000300000001182000001307432AG    XGXGY   005400370024
BI00B32AG    #XG22123LMW    202211187182-9631-40             JOINT CONNECTOR          CCN000003000000003000FN00000000020221201000003000NNM   20220901150105    2F0F  00000300000001182000001307432AG    XGXGY   005400370024
BI00B32AG    #XG22124LMW    202211257182-9631-40             JOINT CONNECTOR          CCN000003000000003000FN00000000020221201000003000NNM   20220901150105    2F0F  00000300000001182000001307432AG    XGXGY   005400370024
BI00B32AG    #XG22121LMW    202211047182-9633-40             JOINT CONNECTOR          CCN000003000000003000FN00000000020221201000003000NNM   20220901150105    2F0F  00000300000001335000001460532AG    XGXGY   005400370024
BI00B32AG    #XG22122LMW    202211117182-9633-40             JOINT CONNECTOR          CCN000006000000006000FN00000000020221201000006000NNM   20220901150105    2F0F  00000300000001335000001460532AG    XGXGY   005400370024
BI00B32AG    #XG22123LMW    202211187182-9633-40             JOINT CONNECTOR          CCN000003000000003000FN00000000020221201000003000NNM   20220901150105    2F0F  00000300000001335000001460532AG    XGXGY   005400370024
BI00B32AG    #XG22124LMW    202211257182-9633-40             JOINT CONNECTOR          CCN000003000000003000FN00000000020221201000003000NNM   20220901150105    2F0F  00000300000001335000001460532AG    XGXGY   005400370024
BI00B32AG    XG22121NMW     202211047116-4120-02             TERMINAL                 CCN000012000000012000FN00000000020221201000012000NNM   20220901150233    4P0P  00000600000000780000001073632AG    XGXGY   006400630015
BI00B32AG    XG22122NMW     202211117116-4120-02             TERMINAL                 CCN000012000000012000FN00000000020221201000012000NNM   20220901150233    4P0P  00000600000000780000001073632AG    XGXGY   006400630015
BI00B32AG    XG22123NMW     202211187116-4120-02             TERMINAL                 CCN000018000000018000FN00000000020221201000018000NNM   20220901150233    4P0P  00000600000000780000001073632AG    XGXGY   006400630015
BI00B32AG    XG22124NMW     202211257116-4120-02             TERMINAL                 CCN000006000000006000FN00000000020221201000006000NNM   20220901150233    4P0P  00000600000000780000001073632AG    XGXGY   006400630015
BI00B32AG    XG22121NMW     202211047116-4121-02             TERMINAL                 CCN000049500000049500FN00000000020221201000049500NNM   20220901150233    4P0P  00000450000000618800000912432AG    XGXGY   006400630015
BI00B32AG    XG22122NMW     202211117116-4121-02             TERMINAL                 CCN000054000000054000FN00000000020221201000054000NNM   20220901150233    4P0P  00000450000000618800000912432AG    XGXGY   006400630015
BI00B32AG    XG22123NMW     202211187116-4121-02             TERMINAL                 CCN000058500000058500FN00000000020221201000058500NNM   20220901150233    4P0P  00000450000000618800000912432AG    XGXGY   006400630015
BI00B32AG    XG22124NMW     202211257116-4121-02             TERMINAL                 CCN000031500000031500FN00000000020221201000031500NNM   20220901150233    4P0P  00000450000000618800000912432AG    XGXGY   006400630015
BI00B32AG    XG22121NMW     202211047116-4122-02             TERMINAL                 CCN000004500000004500FN00000000020221201000004500NNM   20220901150233    4P0P  00000450000000656600000950232AG    XGXGY   006400630015
BI00B32AG    XG22122NMW     202211117116-4122-02             TERMINAL                 CCN000009000000009000FN00000000020221201000009000NNM   20220901150233    4P0P  00000450000000656600000950232AG    XGXGY   006400630015
BI00B32AG    XG22123NMW     202211187116-4122-02             TERMINAL                 CCN000009000000009000FN00000000020221201000009000NNM   20220901150233    4P0P  00000450000000656600000950232AG    XGXGY   006400630015
BI00B32AG    XG22121NMW     202211047116-4415-02             TERMINAL                 CCN000570000000570000FN00000000020221201000570000NNM   20220901150233    4P0P  00003800000000596600000925732AG    XGXGY   006400630017
BI00B32AG    XG22122NMW     202211117116-4415-02             TERMINAL                 CCN000494000000494000FN00000000020221201000494000NNM   20220901150233    4P0P  00003800000000596600000925732AG    XGXGY   006400630017
BI00B32AG    XG22123NMW     202211187116-4415-02             TERMINAL                 CCN000456000000456000FN00000000020221201000456000NNM   20220901150233    4P0P  00003800000000596600000925732AG    XGXGY   006400630017
BI00B32AG    XG22124NMW     202211257116-4415-02             TERMINAL                 CCN000304000000304000FN00000000020221201000304000NNM   20220901150233    4P0P  00003800000000596600000925732AG    XGXGY   006400630017
BI00B32AG    XG22123NMW     202211187126-8853-02             TERMINAL                 CCN000037500000037500FN00000000020221201000037500NNM   20220901150233    4P0P  00000750000000562500000847732AG    XGXGY   006400630015
BI00B32AG    XG22124NMW     202211257126-8853-02             TERMINAL                 CCN000037500000037500FN00000000020221201000037500NNM   20220901150233    4P0P  00000750000000562500000847732AG    XGXGY   006400630015
BI00B32AG    XG22121NMW     202211047126-8855-02             TERMINAL                 CCN000012000000012000FN00000000020221201000012000NNM   20220901150233    4P0P  00000600000000510600000795832AG    XGXGY   006400630015
BI00B32AG    XG22122NMW     202211117126-8855-02             TERMINAL                 CCN000012000000012000FN00000000020221201000012000NNM   20220901150233    4P0P  00000600000000510600000795832AG    XGXGY   006400630015
BI00B32AG    XG22123NMW     202211187126-8855-02             TERMINAL                 CCN000012000000012000FN00000000020221201000012000NNM   20220901150233    4P0P  00000600000000510600000795832AG    XGXGY   006400630015
BI00B32AG    XG22124NMW     202211257126-8855-02             TERMINAL                 CCN000012000000012000FN00000000020221201000012000NNM   20220901150233    4P0P  00000600000000510600000795832AG    XGXGY   006400630015
BI00B32AG    XG22121NMW     202211047158-3165-90             WIRE SEAL                CCN000160000000160000FN00000000020221201000160000NNM   20220901150233    1C0C  00004000000000124000000172432AG    XGXGY   004300270014
BI00B32AG    XG22122NMW     202211117158-3165-90             WIRE SEAL                CCN000200000000200000FN00000000020221201000200000NNM   20220901150233    1C0C  00004000000000124000000172432AG    XGXGY   004300270014
BI00B32AG    XG22123NMW     202211187158-3165-90             WIRE SEAL                CCN000160000000160000FN00000000020221201000160000NNM   20220901150233    1C0C  00004000000000124000000172432AG    XGXGY   004300270014
BI00B32AG    XG22124NMW     202211257158-3165-90             WIRE SEAL                CCN000120000000120000FN00000000020221201000120000NNM   20220901150233    1C0C  00004000000000124000000172432AG    XGXGY   004300270014
BI00B32AG    XG22121NMW     202211047158-3166-60             WIRE SEAL                CCN000360000000360000FN00000000020221201000360000NNM   20220901150233    1C0C  00004000000000104000000152432AG    XGXGY   002700430014
BI00B32AG    XG22122NMW     202211117158-3166-60             WIRE SEAL                CCN000320000000320000FN00000000020221201000320000NNM   20220901150233    1C0C  00004000000000104000000152432AG    XGXGY   002700430014
BI00B32AG    XG22123NMW     202211187158-3166-60             WIRE SEAL                CCN000320000000320000FN00000000020221201000320000NNM   20220901150233    1C0C  00004000000000104000000152432AG    XGXGY   002700430014
BI00B32AG    XG22124NMW     202211257158-3166-60             WIRE SEAL                CCN000280000000280000FN00000000020221201000280000NNM   20220901150233    1C0C  00004000000000104000000152432AG    XGXGY   002700430014
BI00B32AG    XG22121NMW     202211047158-3167-80             WIRE SEAL                CCN000220000000220000FN00000000020221201000220000NNM   20220901150233    1C0C  00002000000000048000000109032AG    XGXGY   002700430014
BI00B32AG    XG22122NMW     202211117158-3167-80             WIRE SEAL                CCN000220000000220000FN00000000020221201000220000NNM   20220901150233    1C0C  00002000000000048000000109032AG    XGXGY   002700430014
BI00B32AG    XG22123NMW     202211187158-3167-80             WIRE SEAL                CCN000200000000200000FN00000000020221201000200000NNM   20220901150233    1C0C  00002000000000048000000109032AG    XGXGY   002700430014
BI00B32AG    XG22124NMW     202211257158-3167-80             WIRE SEAL                CCN000140000000140000FN00000000020221201000140000NNM   20220901150233    1C0C  00002000000000048000000109032AG    XGXGY   002700430014
BI00B32AG    XG22121NMW     202211047158-3168-80             SEALED                   CCN000040000000040000FN00000000020221201000040000NNM   20220901150233    1C0C  00002000000000044000000092132AG    XGXGY   004300260014
BI00B32AG    XG22122NMW     202211117158-3168-80             SEALED                   CCN000040000000040000FN00000000020221201000040000NNM   20220901150233    1C0C  00002000000000044000000092132AG    XGXGY   004300260014
BI00B32AG    XG22123NMW     202211187158-3168-80             SEALED                   CCN000040000000040000FN00000000020221201000040000NNM   20220901150233    1C0C  00002000000000044000000092132AG    XGXGY   004300260014
BI00B32AG    XG22124NMW     202211257158-3168-80             SEALED                   CCN000020000000020000FN00000000020221201000020000NNM   20220901150233    1C0C  00002000000000044000000092132AG    XGXGY   004300260014
BI00B32AG    XG22121NMW     202211047158-3169-40             SEALING PLUG             CCN000080000000080000FN00000000020221201000080000NNM   20220901150233    1C0C  00004000000000156000000204132AG    XGXGY   004300260014
BI00B32AG    XG22122NMW     202211117158-3169-40             SEALING PLUG             CCN000040000000040000FN00000000020221201000040000NNM   20220901150233    1C0C  00004000000000156000000204132AG    XGXGY   004300260014
BI00B32AG    XG22123NMW     202211187158-3169-40             SEALING PLUG             CCN000080000000080000FN00000000020221201000080000NNM   20220901150233    1C0C  00004000000000156000000204132AG    XGXGY   004300260014
BI00B32AG    XG22124NMW     202211257158-3169-40             SEALING PLUG             CCN000040000000040000FN00000000020221201000040000NNM   20220901150233    1C0C  00004000000000156000000204132AG    XGXGY   004300260014
BI00B32AG    #XG22121NMW    202211047123-6423-30             CONNECTOR                CCN000004000000004000FN00000000020221201000004000NNM   20220901150131    2F0F  00000200000001002000001167632AG    XGXGY   005600390023
BI00B32AG    #XG22122NMW    202211117123-6423-30             CONNECTOR                CCN000002000000002000FN00000000020221201000002000NNM   20220901150131    2F0F  00000200000001002000001167632AG    XGXGY   005600390023
BI00B32AG    #XG22123NMW    202211187123-6423-30             CONNECTOR                CCN000004000000004000FN00000000020221201000004000NNM   20220901150131    2F0F  00000200000001002000001167632AG    XGXGY   005600390023
BI00B32AG    #XG22124NMW    202211257123-6423-30             CONNECTOR                CCN000002000000002000FN00000000020221201000002000NNM   20220901150131    2F0F  00000200000001002000001167632AG    XGXGY   005600390023
BI00B32AG    XG22121QMW     202211047158-3022-80             RUBBER STOPPER           CCN000005000000005000FN00000000020221201000005000NNM   20220901150253    1C0C  00000500000000467500000524032AG    XGXGY   002700430014
BI00B32AG    XG22122QMW     202211117158-3022-80             RUBBER STOPPER           CCN000010000000010000FN00000000020221201000010000NNM   20220901150253    1C0C  00000500000000467500000524032AG    XGXGY   002700430014
BI00B32AG    XG22123QMW     202211187158-3022-80             RUBBER STOPPER           CCN000010000000010000FN00000000020221201000010000NNM   20220901150253    1C0C  00000500000000467500000524032AG    XGXGY   002700430014
BI00B32AG    XG22121QMW     202211047196-1460-02             TERMINAL FEMALE          CCN000057000000057000FN00000000020221201000057000NNM   20220901150253    4P0P  00002850000000444600000729832AG    XGXGY   006400630015
BI00B32AG    XG22122QMW     202211117196-1460-02             TERMINAL FEMALE          CCN000085500000085500FN00000000020221201000085500NNM   20220901150253    4P0P  00002850000000444600000729832AG    XGXGY   006400630015
BI00B32AG    XG22123QMW     202211187196-1460-02             TERMINAL FEMALE          CCN000114000000114000FN00000000020221201000114000NNM   20220901150253    4P0P  00002850000000444600000729832AG    XGXGY   006400630015
BI00B32AG    XG22124QMW     202211257196-1460-02             TERMINAL FEMALE          CCN000057000000057000FN00000000020221201000057000NNM   20220901150253    4P0P  00002850000000444600000729832AG    XGXGY   006400630015
BI00B32A7    ZZ22113LMW     202210197017-1180-02             TERMINAL                 CCN000144000000144000FN00000000020221101000144000NNM   20220901163248    4P0P  00007200000001065600001229032A7    ZZZZY   005100280028
BI00B32A7    ZZ22114LMW     202210267017-1180-02             TERMINAL                 CCN000072000000072000FN00000000020221101000072000NNM   20220901163248    4P0P  00007200000001065600001229032A7    ZZZZY   005100280028
BI00B32A7    ZZ22112LMW     202210127017-1182-02             TERMINAL                 CCN000090000000090000FN00000000020221101000090000NNM   20220901163248    4P0P  00004500000001165500001318632A7    ZZZZY   005100280028
BI00B32A7    ZZ22113LMW     202210197017-1182-02             TERMINAL                 CCN000090000000090000FN00000000020221101000090000NNM   20220901163248    4P0P  00004500000001165500001318632A7    ZZZZY   005100280028
BI00B32A7    ZZ22114LMW     202210267017-1182-02             TERMINAL                 CCN000090000000090000FN00000000020221101000090000NNM   20220901163248    4P0P  00004500000001165500001318632A7    ZZZZY   005100280028
BI00B32A7    ZZ22111LMW     202210057017-1183-02             TERMINAL                 CCN000081000000081000FN00000000020221101000081000NNM   20220901163248    4P0P  00002700000001139400001307432A7    ZZZZY   005100280028
BI00B32A7    ZZ22112LMW     202210127017-1183-02             TERMINAL                 CCN000054000000054000FN00000000020221101000054000NNM   20220901163248    4P0P  00002700000001139400001307432A7    ZZZZY   005100280028
BI00B32A7    ZZ22113LMW     202210197017-1183-02             TERMINAL                 CCN000054000000054000FN00000000020221101000054000NNM   20220901163248    4P0P  00002700000001139400001307432A7    ZZZZY   005100280028
BI00B32A7    ZZ22114LMW     202210267017-1183-02             TERMINAL                 CCN000054000000054000FN00000000020221101000054000NNM   20220901163248    4P0P  00002700000001139400001307432A7    ZZZZY   005100280028
BI00B32A7    ZZ22114LMW     202210267114-4728-08             TERMINAL                 CCN000030000000030000FN00000000020221101000030000NNM   20220901163248    4P0P  00003000000000507000000801232A7    ZZZZY   006400630015
BI00B32A7    ZZ22112LMW     202210127114-4729-08             TERMINAL                 CCN000090000000090000FN00000000020221101000090000NNM   20220901163248    4P0P  00003000000000522000000816232A7    ZZZZY   006400630015
BI00B32A7    ZZ22113LMW     202210197114-4729-08             TERMINAL                 CCN000090000000090000FN00000000020221101000090000NNM   20220901163248    4P0P  00003000000000522000000816232A7    ZZZZY   006400630015
BI00B32A7    ZZ22114LMW     202210267114-4729-08             TERMINAL                 CCN000090000000090000FN00000000020221101000090000NNM   20220901163248    4P0P  00003000000000522000000816232A7    ZZZZY   006400630015
BI00B32A7    ZZ22111LMW     202210057116-1685-02             TERMINAL                 CCN000144000000144000FN00000000020221101000144000NNM   20220901163248    4P0P  00002400000000897600001065232A7    ZZZZY   005100280028
BI00B32A7    ZZ22112LMW     202210127116-1685-02             TERMINAL                 CCN000096000000096000FN00000000020221101000096000NNM   20220901163248    4P0P  00002400000000897600001065232A7    ZZZZY   005100280028
BI00B32A7    ZZ22113LMW     202210197116-1685-02             TERMINAL                 CCN000072000000072000FN00000000020221101000072000NNM   20220901163248    4P0P  00002400000000897600001065232A7    ZZZZY   005100280028
BI00B32A7    ZZ22114LMW     202210267116-1685-02             TERMINAL                 CCN000072000000072000FN00000000020221101000072000NNM   20220901163248    4P0P  00002400000000897600001065232A7    ZZZZY   005100280028
BI00B32A7    ZZ22113LMW     202210197116-3153-08             TERMINAL                 CCN000027000000027000FN00000000020221101000027000NNM   20220901163248    4P0P  00002700000000461700000746932A7    ZZZZY   006400630015
BI00B32A7    ZZ22114LMW     202210267116-3153-08             TERMINAL                 CCN000027000000027000FN00000000020221101000027000NNM   20220901163248    4P0P  00002700000000461700000746932A7    ZZZZY   006400630015
BI00B32A7    ZZ22112LMW     202210127116-3154-08             TERMINAL                 CCN000081000000081000FN00000000020221101000081000NNM   20220901163248    4P0P  00002700000000475200000760432A7    ZZZZY   006400630015
BI00B32A7    ZZ22113LMW     202210197116-3154-08             TERMINAL                 CCN000108000000108000FN00000000020221101000108000NNM   20220901163248    4P0P  00002700000000475200000760432A7    ZZZZY   006400630015
BI00B32A7    ZZ22114LMW     202210267116-3154-08             TERMINAL                 CCN000081000000081000FN00000000020221101000081000NNM   20220901163248    4P0P  00002700000000475200000760432A7    ZZZZY   006400630015
BI00B32A7    ZZ22111LMW     202210057116-4025                TERMINAL                 CCN000032000000032000FN00000000020221101000032000NNM   20220901163248    4P0P  00001600000000644800000975132A7    ZZZZY   006400630017
BI00B32A7    ZZ22112LMW     202210127116-4025                TERMINAL                 CCN000032000000032000FN00000000020221101000032000NNM   20220901163248    4P0P  00001600000000644800000975132A7    ZZZZY   006400630017
BI00B32A7    ZZ22113LMW     202210197116-4025                TERMINAL                 CCN000032000000032000FN00000000020221101000032000NNM   20220901163248    4P0P  00001600000000644800000975132A7    ZZZZY   006400630017
BI00B32A7    ZZ22114LMW     202210267116-4025                TERMINAL                 CCN000032000000032000FN00000000020221101000032000NNM   20220901163248    4P0P  00001600000000644800000975132A7    ZZZZY   006400630017
BI00B32A7    ZZ22111LMW     202210057116-4026                TERMINAL                 CCN000048000000048000FN00000000020221101000048000NNM   20220901163248    4P0P  00001600000000664000000994332A7    ZZZZY   006400630017
BI00B32A7    ZZ22112LMW     202210127116-4026                TERMINAL                 CCN000032000000032000FN00000000020221101000032000NNM   20220901163248    4P0P  00001600000000664000000994332A7    ZZZZY   006400630017
BI00B32A7    ZZ22113LMW     202210197116-4026                TERMINAL                 CCN000048000000048000FN00000000020221101000048000NNM   20220901163248    4P0P  00001600000000664000000994332A7    ZZZZY   006400630017
BI00B32A7    ZZ22114LMW     202210267116-4026                TERMINAL                 CCN000032000000032000FN00000000020221101000032000NNM   20220901163248    4P0P  00001600000000664000000994332A7    ZZZZY   006400630017
BI00B32A7    ZZ22111LMW     202210057116-4121-02             TERMINAL                 CCN000009000000009000FN00000000020221101000009000NNM   20220901163248    4P0P  00000450000000618800000912432A7    ZZZZY   006400630015
BI00B32A7    ZZ22112LMW     202210127116-4121-02             TERMINAL                 CCN000004500000004500FN00000000020221101000004500NNM   20220901163248    4P0P  00000450000000618800000912432A7    ZZZZY   006400630015
BI00B32A7    ZZ22113LMW     202210197116-4121-02             TERMINAL                 CCN000009000000009000FN00000000020221101000009000NNM   20220901163248    4P0P  00000450000000618800000912432A7    ZZZZY   006400630015
BI00B32A7    ZZ22114LMW     202210267116-4121-02             TERMINAL                 CCN000004500000004500FN00000000020221101000004500NNM   20220901163248    4P0P  00000450000000618800000912432A7    ZZZZY   006400630015
BI00B32A7    ZZ22111LMW     202210057116-4122-02             TERMINAL                 CCN000009000000009000FN00000000020221101000009000NNM   20220901163248    4P0P  00000450000000656600000950232A7    ZZZZY   006400630015
BI00B32A7    ZZ22112LMW     202210127116-4122-02             TERMINAL                 CCN000013500000013500FN00000000020221101000013500NNM   20220901163248    4P0P  00000450000000656600000950232A7    ZZZZY   006400630015
BI00B32A7    ZZ22113LMW     202210197116-4122-02             TERMINAL                 CCN000018000000018000FN00000000020221101000018000NNM   20220901163248    4P0P  00000450000000656600000950232A7    ZZZZY   006400630015
BI00B32A7    ZZ22114LMW     202210267116-4122-02             TERMINAL                 CCN000009000000009000FN00000000020221101000009000NNM   20220901163248    4P0P  00000450000000656600000950232A7    ZZZZY   006400630015
BI00B32A7    ZZ22112LMW     202210127123-1508                CONNECTOR                CCN000003000000003000FN00000000020221101000003000NNM   20220901163248    1F0F  00000100000000933000001174032A7    ZZZZY   005600390040
BI00B32A7    ZZ22113LMW     202210197123-1508                CONNECTOR                CCN000009000000009000FN00000000020221101000009000NNM   20220901163248    1F0F  00000100000000933000001174032A7    ZZZZY   005600390040
BI00B32A7    ZZ22114LMW     202210267123-1508                CONNECTOR                CCN000005000000005000FN00000000020221101000005000NNM   20220901163248    1F0F  00000100000000933000001174032A7    ZZZZY   005600390040
BI00B32A7    ZZ22111LMW     202210057126-8853-02             TERMINAL                 CCN000052500000052500FN00000000020221101000052500NNM   20220901163248    4P0P  00000750000000562500000847732A7    ZZZZY   006400630015
BI00B32A7    ZZ22112LMW     202210127126-8853-02             TERMINAL                 CCN000067500000067500FN00000000020221101000067500NNM   20220901163248    4P0P  00000750000000562500000847732A7    ZZZZY   006400630015
BI00B32A7    ZZ22113LMW     202210197126-8853-02             TERMINAL                 CCN000067500000067500FN00000000020221101000067500NNM   20220901163248    4P0P  00000750000000562500000847732A7    ZZZZY   006400630015
BI00B32A7    ZZ22114LMW     202210267126-8853-02             TERMINAL                 CCN000045000000045000FN00000000020221101000045000NNM   20220901163248    4P0P  00000750000000562500000847732A7    ZZZZY   006400630015
BI00B32A7    ZZ22111LMW     202210057126-8854-02             TERMINAL                 CCN000067500000067500FN00000000020221101000067500NNM   20220901163248    4P0P  00000750000000604500000889732A7    ZZZZY   006400630015
BI00B32A7    ZZ22112LMW     202210127126-8854-02             TERMINAL                 CCN000060000000060000FN00000000020221101000060000NNM   20220901163248    4P0P  00000750000000604500000889732A7    ZZZZY   006400630015
BI00B32A7    ZZ22113LMW     202210197126-8854-02             TERMINAL                 CCN000060000000060000FN00000000020221101000060000NNM   20220901163248    4P0P  00000750000000604500000889732A7    ZZZZY   006400630015
BI00B32A7    ZZ22114LMW     202210267126-8854-02             TERMINAL                 CCN000037500000037500FN00000000020221101000037500NNM   20220901163248    4P0P  00000750000000604500000889732A7    ZZZZY   006400630015
BI00B32A7    ZZ22111LMW     202210057126-8855-02             TERMINAL                 CCN000084000000084000FN00000000020221101000084000NNM   20220901163248    4P0P  00000600000000510600000795832A7    ZZZZY   006400630015
BI00B32A7    ZZ22112LMW     202210127126-8855-02             TERMINAL                 CCN000054000000054000FN00000000020221101000054000NNM   20220901163248    4P0P  00000600000000510600000795832A7    ZZZZY   006400630015
BI00B32A7    ZZ22113LMW     202210197126-8855-02             TERMINAL                 CCN000060000000060000FN00000000020221101000060000NNM   20220901163248    4P0P  00000600000000510600000795832A7    ZZZZY   006400630015
BI00B32A7    ZZ22114LMW     202210267126-8855-02             TERMINAL                 CCN000042000000042000FN00000000020221101000042000NNM   20220901163248    4P0P  00000600000000510600000795832A7    ZZZZY   006400630015
BI00B32A7    ZZ22112LMW     202210127137-3047-30             UNIT PACKING             CCN000021000000021000FN00000000020221101000021000NNM   20220901163248    1C0C  00000100000000170500000218932A7    ZZZZY   002700430014
BI00B32A7    ZZ22113LMW     202210197137-3047-30             UNIT PACKING             CCN000015000000015000FN00000000020221101000015000NNM   20220901163248    1C0C  00000100000000170500000218932A7    ZZZZY   002700430014
BI00B32A7    ZZ22114LMW     202210267137-3047-30             UNIT PACKING             CCN000010000000010000FN00000000020221101000010000NNM   20220901163248    1C0C  00000100000000170500000218932A7    ZZZZY   002700430014
BI00B32A7    ZZ22112LMW     202210127158-3006-90             RUBBER STOPPER           CCN000040000000040000FN00000000020221101000040000NNM   20220901163248    1C0C  00002000000000330600000386032A7    ZZZZY   002700430014
BI00B32A7    ZZ22113LMW     202210197158-3006-90             RUBBER STOPPER           CCN000100000000100000FN00000000020221101000100000NNM   20220901163248    1C0C  00002000000000330600000386032A7    ZZZZY   002700430014
BI00B32A7    ZZ22114LMW     202210267158-3006-90             RUBBER STOPPER           CCN000100000000100000FN00000000020221101000100000NNM   20220901163248    1C0C  00002000000000330600000386032A7    ZZZZY   002700430014
BI00B32A7    ZZ22111LMW     202210057158-3070-80             RUBBER STOPPER           CCN000040000000040000FN00000000020221101000040000NNM   20220901163248    1C0C  00004000000000276000000333332A7    ZZZZY   002700430014
BI00B32A7    ZZ22112LMW     202210127158-3166-60             WIRE SEAL                CCN000080000000080000FN00000000020221101000080000NNM   20220901163248    1C0C  00004000000000104000000152432A7    ZZZZY   002700430014
BI00B32A7    ZZ22113LMW     202210197158-3166-60             WIRE SEAL                CCN000360000000360000FN00000000020221101000360000NNM   20220901163248    1C0C  00004000000000104000000152432A7    ZZZZY   002700430014
BI00B32A7    ZZ22114LMW     202210267158-3166-60             WIRE SEAL                CCN000240000000240000FN00000000020221101000240000NNM   20220901163248    1C0C  00004000000000104000000152432A7    ZZZZY   002700430014
BI00B32A7    ZZ22112LMW     202210127158-3167-80             WIRE SEAL                CCN000120000000120000FN00000000020221101000120000NNM   20220901163248    1C0C  00002000000000048000000109032A7    ZZZZY   002700430014
BI00B32A7    ZZ22113LMW     202210197158-3167-80             WIRE SEAL                CCN000400000000400000FN00000000020221101000400000NNM   20220901163248    1C0C  00002000000000048000000109032A7    ZZZZY   002700430014
BI00B32A7    ZZ22114LMW     202210267158-3167-80             WIRE SEAL                CCN000240000000240000FN00000000020221101000240000NNM   20220901163248    1C0C  00002000000000048000000109032A7    ZZZZY   002700430014
BI00B32A7    ZZ22114LMW     202210267158-3168-80             SEALED                   CCN000040000000040000FN00000000020221101000040000NNM   20220901163248    1C0C  00002000000000044000000092132A7    ZZZZY   004300260014
BI00B32A7    ZZ22113LMW     202210197158-3169-40             SEALING PLUG             CCN000080000000080000FN00000000020221101000080000NNM   20220901163248    1C0C  00004000000000156000000204132A7    ZZZZY   004300260014
BI00B32A7    ZZ22114LMW     202210267158-3169-40             SEALING PLUG             CCN000040000000040000FN00000000020221101000040000NNM   20220901163248    1C0C  00004000000000156000000204132A7    ZZZZY   004300260014
BI00B32A7    ZZ22112LMW     202210127172-5402-30             SEAL RUBBER              CCN000104000000104000FN00000000020221101000104000NNM   20220901163248    1C0C  00000800000000457600000506032A7    ZZZZY   004300270014
BI00B32A7    ZZ22113LMW     202210197172-5402-30             SEAL RUBBER              CCN000048000000048000FN00000000020221101000048000NNM   20220901163248    1C0C  00000800000000457600000506032A7    ZZZZY   004300270014
BI00B32A7    ZZ22114LMW     202210267172-5402-30             SEAL RUBBER              CCN000104000000104000FN00000000020221101000104000NNM   20220901163248    1C0C  00000800000000457600000506032A7    ZZZZY   004300270014
BI00B32A7    ZZ22112LMW     202210127172-5403-30             SEALED PACKING           CCN000116000000116000FN00000000020221101000116000NNM   20220901163248    1C0C  00000400000000653600000701732A7    ZZZZY   004300270014
BI00B32A7    ZZ22113LMW     202210197172-5403-30             SEALED PACKING           CCN000084000000084000FN00000000020221101000084000NNM   20220901163248    1C0C  00000400000000653600000701732A7    ZZZZY   004300270014
BI00B32A7    ZZ22114LMW     202210267172-5403-30             SEALED PACKING           CCN000052000000052000FN00000000020221101000052000NNM   20220901163248    1C0C  00000400000000653600000701732A7    ZZZZY   004300270014
BI00B32A7    ZZ22111LMW     202210057196-0550-02             TERMINAL ALUMINIUM       CCN000032000000032000FN00000000020221101000032000NNM   20220901163248    4P0P  00003200000000515200000901632A7    ZZZZY   006400630017
BI00B32A7    ZZ22111LMW     202210057283-8630                CONNECTOR ASS'Y          CCN000012000000012000FN00000000020221101000012000NNM   20220901163248    4N0N  00000600000000540000000701332A7    ZZZZY   005400370024
BI00B32A7    ZZ22112LMW     202210127283-8630                CONNECTOR ASS'Y          CCN000012000000012000FN00000000020221101000012000NNM   20220901163248    4N0N  00000600000000540000000701332A7    ZZZZY   005400370024
BI00B32A7    ZZ22113LMW     202210197283-8630                CONNECTOR ASS'Y          CCN000006000000006000FN00000000020221101000006000NNM   20220901163248    4N0N  00000600000000540000000701332A7    ZZZZY   005400370024
BI00B32A7    ZZ22111LMW     202210057289-3342-30             HOUSING FEMALE ASS'Y     CCN000002400000002400FN00000000020221101000002400NNM   20220901163248    1N0N  00000240000000686400000901432A7    ZZZZY   005500360039
BI00B32A7    ZZ22112LMW     202210127289-3342-30             HOUSING FEMALE ASS'Y     CCN000002400000002400FN00000000020221101000002400NNM   20220901163248    1N0N  00000240000000686400000901432A7    ZZZZY   005500360039
BI00B32A7    ZZ22113LMW     202210197289-3342-30             HOUSING FEMALE ASS'Y     CCN000004800000004800FN00000000020221101000004800NNM   20220901163248    1N0N  00000240000000686400000901432A7    ZZZZY   005500360039
BI00B32A7    ZZ22114LMW     202210267289-3342-30             HOUSING FEMALE ASS'Y     CCN000002400000002400FN00000000020221101000002400NNM   20220901163248    1N0N  00000240000000686400000901432A7    ZZZZY   005500360039
BI00B32A7    ZZ22111LMW     202210057289-4696-30             HOUSING FEMALE ASS'Y     CCN000024000000024000FN00000000020221101000024000NNM   20220901163248    4N0N  00000200000000913400001055432A7    ZZZZY   005400370024
BI00B32A7    ZZ22112LMW     202210127289-4696-30             HOUSING FEMALE ASS'Y     CCN000030000000030000FN00000000020221101000030000NNM   20220901163248    4N0N  00000200000000913400001055432A7    ZZZZY   005400370024
BI00B32A7    ZZ22113LMW     202210197289-4696-30             HOUSING FEMALE ASS'Y     CCN000030000000030000FN00000000020221101000030000NNM   20220901163248    4N0N  00000200000000913400001055432A7    ZZZZY   005400370024
BI00B32A7    ZZ22114LMW     202210267289-4696-30             HOUSING FEMALE ASS'Y     CCN000022000000022000FN00000000020221101000022000NNM   20220901163248    4N0N  00000200000000913400001055432A7    ZZZZY   005400370024
BI00B32A7    ZZ22111LMW     202210057327-6769-3W             BATTERY FUSE             CCN000011904000011904FN00000000020221101000011904NNM   20220901163248    4N0N  00000009600000933300001133332A7    ZZZZY   005500360039
BI00B32A7    ZZ22112LMW     202210127327-6769-3W             BATTERY FUSE             CCN000006816000006816FN00000000020221101000006816NNM   20220901163248    4N0N  00000009600000933300001133332A7    ZZZZY   005500360039
BI00B32A7    ZZ22113LMW     202210197327-6769-3W             BATTERY FUSE             CCN000007296000007296FN00000000020221101000007296NNM   20220901163248    4N0N  00000009600000933300001133332A7    ZZZZY   005500360039
BI00B32A7    ZZ22114LMW     202210267327-6769-3W             BATTERY FUSE             CCN000005856000005856FN00000000020221101000005856NNM   20220901163248    4N0N  00000009600000933300001133332A7    ZZZZY   005500360039
BI00B32A7    #ZZ22111LMW    202210057114-4022                TERMINAL                 CCN000015000000015000FN00000000020221101000015000NNM   20220901163233    2F0P  00001500000000708000001120632A7    ZZZZY   006400630015
BI00B32A7    #ZZ22113LMW    202210197114-4022                TERMINAL                 CCN000015000000015000FN00000000020221101000015000NNM   20220901163233    2F0P  00001500000000708000001120632A7    ZZZZY   006400630015
BI00B32A7    #ZZ22113LMW    202210197116-4021                TERMINAL                 CCN000013500000013500FN00000000020221101000013500NNM   20220901163233    2F0P  00001350000000534600000868832A7    ZZZZY   006400630015
BI00B32A7    #ZZ22111LMW    202210057123-6423-30             CONNECTOR                CCN000002000000002000FN00000000020221101000002000NNM   20220901163233    2F0F  00000200000001002000001167632A7    ZZZZY   005600390023
BI00B32A7    #ZZ22112LMW    202210127123-6423-30             CONNECTOR                CCN000008000000008000FN00000000020221101000008000NNM   20220901163233    2F0F  00000200000001002000001167632A7    ZZZZY   005600390023
BI00B32A7    #ZZ22113LMW    202210197123-6423-30             CONNECTOR                CCN000010000000010000FN00000000020221101000010000NNM   20220901163233    2F0F  00000200000001002000001167632A7    ZZZZY   005600390023
BI00B32A7    #ZZ22114LMW    202210267123-6423-30             CONNECTOR                CCN000004000000004000FN00000000020221101000004000NNM   20220901163233    2F0F  00000200000001002000001167632A7    ZZZZY   005600390023
BI00B32A7    #ZZ22111LMW    202210057157-3952-80             RUBBER STOPPER           CCN000010000000010000FN00000000020221101000010000NNM   20220901163233    2C0C  00001000000000117000000175032A7    ZZZZY   002700430014
BI00B32A7    #ZZ22112LMW    202210127157-3952-80             RUBBER STOPPER           CCN000020000000020000FN00000000020221101000020000NNM   20220901163233    2C0C  00001000000000117000000175032A7    ZZZZY   002700430014
BI00B32A7    #ZZ22113LMW    202210197157-3952-80             RUBBER STOPPER           CCN000010000000010000FN00000000020221101000010000NNM   20220901163233    2C0C  00001000000000117000000175032A7    ZZZZY   002700430014
BI00B32A7    #ZZ22114LMW    202210267157-3952-80             RUBBER STOPPER           CCN000010000000010000FN00000000020221101000010000NNM   20220901163233    2C0C  00001000000000117000000175032A7    ZZZZY   002700430014
BI00B32A7    #ZZ22114LMW    202210267157-3992-90             CONNECTOR SEALED         CCN000040000000040000FN00000000020221101000040000NNM   20220901163233    2C0C  00004000000000300000000363332A7    ZZZZY   002700430014
BI00B32A7    #ZZ22111LMW    202210057157-7812                SEAL RUBBER              CCN000020000000020000FN00000000020221101000020000NNM   20220901163233    2C0C  00001000000000137000000202032A7    ZZZZY   002700430014
BI00B32A7    #ZZ22112LMW    202210127157-7812                SEAL RUBBER              CCN000020000000020000FN00000000020221101000020000NNM   20220901163233    2C0C  00001000000000137000000202032A7    ZZZZY   002700430014
BI00B32A7    #ZZ22113LMW    202210197157-7812                SEAL RUBBER              CCN000010000000010000FN00000000020221101000010000NNM   20220901163233    2C0C  00001000000000137000000202032A7    ZZZZY   002700430014
BI00B32A7    #ZZ22114LMW    202210267157-7812                SEAL RUBBER              CCN000010000000010000FN00000000020221101000010000NNM   20220901163233    2C0C  00001000000000137000000202032A7    ZZZZY   002700430014
BI00B32A7    #ZZ22112LMW    202210127158-3003-90             RUBBER STOPPER           CCN000040000000040000FN00000000020221101000040000NNM   20220901163233    2C0C  00002000000000250000000306032A7    ZZZZY   002700430014
BI00B32A7    #ZZ22113LMW    202210197158-3003-90             RUBBER STOPPER           CCN000020000000020000FN00000000020221101000020000NNM   20220901163233    2C0C  00002000000000250000000306032A7    ZZZZY   002700430014
BI00B32A7    #ZZ22114LMW    202210267158-3003-90             RUBBER STOPPER           CCN000020000000020000FN00000000020221101000020000NNM   20220901163233    2C0C  00002000000000250000000306032A7    ZZZZY   002700430014
BI00B32A7    #ZZ22111LMW    202210057158-3007-10             RUBBER STOPPER           CCN000020000000020000FN00000000020221101000020000NNM   20220901163233    2H0H  00002000000000308000000362732A7    ZZZZY   002700430014
BI00B32A7    #ZZ22112LMW    202210127158-3007-10             RUBBER STOPPER           CCN000020000000020000FN00000000020221101000020000NNM   20220901163233    2H0H  00002000000000308000000362732A7    ZZZZY   002700430014
BI00B32A7    #ZZ22113LMW    202210197158-3008-80             RUBBER STOPPER           CCN000020000000020000FN00000000020221101000020000NNM   20220901163233    2C0C  00002000000000288000000343032A7    ZZZZY   004300270014
BI00B32A7    #ZZ22114LMW    202210267158-3008-80             RUBBER STOPPER           CCN000020000000020000FN00000000020221101000020000NNM   20220901163233    2C0C  00002000000000288000000343032A7    ZZZZY   004300270014
BI00B32A7    #ZZ22111LMW    202210057158-3120-90             CONNECTOR WIRE SEAL      CCN000060000000060000FN00000000020221101000060000NNM   20220901163233    2C0C  00002000000000136000000194032A7    ZZZZY   002700430014
BI00B32A7    #ZZ22112LMW    202210127158-3120-90             CONNECTOR WIRE SEAL      CCN000100000000100000FN00000000020221101000100000NNM   20220901163233    2C0C  00002000000000136000000194032A7    ZZZZY   002700430014
BI00B32A7    #ZZ22113LMW    202210197158-3120-90             CONNECTOR WIRE SEAL      CCN000100000000100000FN00000000020221101000100000NNM   20220901163233    2C0C  00002000000000136000000194032A7    ZZZZY   002700430014
BI00B32A7    #ZZ22114LMW    202210267158-3120-90             CONNECTOR WIRE SEAL      CCN000060000000060000FN00000000020221101000060000NNM   20220901163233    2C0C  00002000000000136000000194032A7    ZZZZY   002700430014
BI00B32A7    #ZZ22111LMW    202210057158-3121-80             WIRE SEAL                CCN000180000000180000FN00000000020221101000180000NNM   20220901163233    2C0C  00002000000000118000000187332A7    ZZZZY   002700430014
BI00B32A7    #ZZ22112LMW    202210127158-3121-80             WIRE SEAL                CCN000180000000180000FN00000000020221101000180000NNM   20220901163233    2C0C  00002000000000118000000187332A7    ZZZZY   002700430014
BI00B32A7    #ZZ22113LMW    202210197158-3121-80             WIRE SEAL                CCN000180000000180000FN00000000020221101000180000NNM   20220901163233    2C0C  00002000000000118000000187332A7    ZZZZY   002700430014
BI00B32A7    #ZZ22114LMW    202210267158-3121-80             WIRE SEAL                CCN000160000000160000FN00000000020221101000160000NNM   20220901163233    2C0C  00002000000000118000000187332A7    ZZZZY   002700430014
BI00B32A7    #ZZ22111LMW    202210057158-3654-80             WIRE TUBE                CCN000040000000040000FN00000000020221101000040000NNM   20220901163233    2H0H  00004000000000104000000152232A7    ZZZZY   004300270014
BI00B32A7    #ZZ22112LMW    202210127158-3654-80             WIRE TUBE                CCN000120000000120000FN00000000020221101000120000NNM   20220901163233    2H0H  00004000000000104000000152232A7    ZZZZY   004300270014
BI00B32A7    #ZZ22113LMW    202210197158-3654-80             WIRE TUBE                CCN000120000000120000FN00000000020221101000120000NNM   20220901163233    2H0H  00004000000000104000000152232A7    ZZZZY   004300270014
BI00B32A7    #ZZ22114LMW    202210267158-3654-80             WIRE TUBE                CCN000080000000080000FN00000000020221101000080000NNM   20220901163233    2H0H  00004000000000104000000152232A7    ZZZZY   004300270014
BI00B32A7    #ZZ22112LMW    202210127172-5937-90             SEAL RUBBER              CCN000003000000003000FN00000000020221101000003000NNM   20220901163233    2H0H  00000100000000620000000666832A7    ZZZZY   004300270014
BI00B32A7    #ZZ22113LMW    202210197172-5937-90             SEAL RUBBER              CCN000003000000003000FN00000000020221101000003000NNM   20220901163233    2H0H  00000100000000620000000666832A7    ZZZZY   004300270014
BI00B32A7    #ZZ22111LMW    202210057182-9632-30             JOINT CONNECTOR          CCN000003000000003000FN00000000020221101000003000NNM   20220901163233    2F0F  00000300000001320000001445532A7    ZZZZY   005400370024
BI00B32A7    #ZZ22112LMW    202210127182-9632-30             JOINT CONNECTOR          CCN000009000000009000FN00000000020221101000009000NNM   20220901163233    2F0F  00000300000001320000001445532A7    ZZZZY   005400370024
BI00B32A7    #ZZ22113LMW    202210197182-9632-30             JOINT CONNECTOR          CCN000009000000009000FN00000000020221101000009000NNM   20220901163233    2F0F  00000300000001320000001445532A7    ZZZZY   005400370024
BI00B32A7    #ZZ22114LMW    202210267182-9632-30             JOINT CONNECTOR          CCN000009000000009000FN00000000020221101000009000NNM   20220901163233    2F0F  00000300000001320000001445532A7    ZZZZY   005400370024
BI00B32A7    @ZZ22114LMW    202210267123-2825                HOUSING                  CCN000006000000006000FN00000000020221101000006000NNM   20220901163236    3F0F  00000600000000958800001136432A7    ZZZZY   005500360039
BI00B32BF    TT22125BMW     202211157114-4624-02             TERMINAL                 CCN000024000000024000FN00000000020221201000024000NNM   20220901132433    4P0P  00002400000000895200001188832BF    TTTJYCD 006400630015
BI00B32BF    TT22124BMW     202211087114-4728-08             TERMINAL                 CCN000030000000030000FN00000000020221201000030000NNM   20220901132433    4P0P  00003000000000507000000801232BF    TTTJYCD 006400630015
BI00B32BF    TT22125BMW     202211157114-5748-02             TERMINAL                 CCN000012000000012000FN00000000020221201000012000NNM   20220901132433    4P0P  00001200000000444000000737632BF    TTTJYCD 006400630015
BI00B32BF    TT22125BMW     202211157114-6041                TERMINAL                 CCN000003600000003600FN00000000020221201000003600NNM   20220901132433    4P0P  00000360000000580700000824232BF    TTTJYCD 006400630015
BI00B32BF    TT22121BMW     202210187116-3153-08             TERMINAL                 CCN000027000000027000FN00000000020221201000027000NNM   20220901132433    4P0P  00002700000000461700000746932BF    TTTJYCD 006400630015
BI00B32BF    TT22123BMW     202211017126-8853-02             TERMINAL                 CCN000007500000007500FN00000000020221201000007500NNM   20220901132433    4P0P  00000750000000562500000847732BF    TTTJYCD 006400630015
BI00B32BF    TT22124BMW     202211087126-8853-02             TERMINAL                 CCN000007500000007500FN00000000020221201000007500NNM   20220901132433    4P0P  00000750000000562500000847732BF    TTTJYCD 006400630015
BI00B32BF    TT22124BMW     202211087196-0510-02             TERMINAL                 CCN000024000000024000FN00000000020221201000024000NNM   20220901132433    4P0P  00002400000000871200001034632BF    TTTJYCD 002800510028
BI00B32BF    TT22124BMW     202211087283-4855                CONNECTOR HOUSING        CCN000002400000002400FN00000000020221201000002400NNM   20220901132433    4N0N  00000240000001188400001400032BF    TTTJYCD 005500360039
BI00B32CA    PTA32090A      202209227114-5096-02             TERMINAL                 CCN000240000000120000FN00000000020220901000120000NNEQ0020220901160932    4P0P  00003000000000498000000792232CA    YPYPY   006400630015
BI00B32CA    PTA32090A      202209227116-4486-02             TERMINAL                 CCN000168000000084000FN00000000020220901000084000NNEQ0020220901161005    4P0P  00002800000000666400000995132CA    YPYPY   006400630017
BI00A32CA    PTA32090A      202209157289-3342                HOUSING FEMALE ASS'Y     CCN000024000000024000FN00000000020220901000024000NNEM0020220901121518    1N0N  00000240000000686400000901432CA    YPYPY   005500360039
BI00A32CA    PTA32090A      202209157289-3342-30             HOUSING FEMALE ASS'Y     CCN000040800000040800FN00000000020220901000040800NNEM0020220901121518    1N0N  00000240000000686400000901432CA    YPYPY   005500360039
BI00A32CA    PTA32090A      202209157289-3342-90             HOUSING FEMALE ASS'Y     CCN000012000000012000FN00000000020220901000012000NNEM0020220901121518    1N0N  00000240000000686400000901432CA    YPYPY   005500360039
BI00A32CA    PTA32091A      202209157289-3342                HOUSING FEMALE ASS'Y     CCN000062400000062400FN00000000020220901000062400NNEM0020220901121518    1N0N  00000240000000686400000901432CA    YPYPY   005500360039
BI00A32CA    PTA32091A      202209157289-3342-30             HOUSING FEMALE ASS'Y     CCN000110400000110400FN00000000020220901000110400NNEM0020220901121518    1N0N  00000240000000686400000901432CA    YPYPY   005500360039
BI00A32CA    PTA32091A      202209157289-3342-90             HOUSING FEMALE ASS'Y     CCN000009600000009600FN00000000020220901000009600NNEM0020220901121518    1N0N  00000240000000686400000901432CA    YPYPY   005500360039
BI00A32CA    PTA32090A      202209157114-5096-02             TERMINAL                 CCN000120000000120000FN00000000020220901000120000NNEM0020220901160937    4P0P  00003000000000498000000792232CA    YPYPY   006400630015
BI00A32CA    PTA32090A      202209157116-4486-02             TERMINAL                 CCN000084000000084000FN00000000020220901000084000NNEM0020220901161009    4P0P  00002800000000666400000995132CA    YPYPY   006400630017
BI00B32CC    CTA32125       202209157289-3342-30             HOUSING FEMALE ASS'Y     CCN000004800000004800FN00000000020230101000004800NNE   20220901121518    1N0N  00000240000000686400000901432CC    BIYABCBU005500360039
BI00B32CC    CTA32126       202209157283-4855                CONNECTOR HOUSING        CCN000009600000009600FN00000000020230101000009600NNE   20220901121518    4N0N  00000240000001188400001400032CC    BIYABCBU005500360039
BI00B32CC    CTA32126       202209157289-3342                HOUSING FEMALE ASS'Y     CCN000016800000016800FN00000000020230101000016800NNE   20220901121518    1N0N  00000240000000686400000901432CC    BIYABCBU005500360039
BI00B32CC    CTA32126       202209157289-3342-30             HOUSING FEMALE ASS'Y     CCN000043200000043200FN00000000020230101000043200NNE   20220901121518    1N0N  00000240000000686400000901432CC    BIYABCBU005500360039
BI00B32CC    #CTA32126      202209157283-8226-30             CONNECTOR                CCN000024000000024000FN00000000020230101000024000NNE   20220901121518    2N0N  00000200000000820000001008032CC    BIYABCBU005400370024
BI00B32CC    #CTA32126      202209157183-7725-40             HOUSING                  CCN000006000000006000FN00000000020230101000006000NNE   20220901121518    2F0F  00000600000000840000001040032CC    BIYABCBU005600390040
BI00B32CC    CTA32127       202209157158-3167-80             WIRE SEAL                CCN000020000000020000FN00000000020230101000020000NNE   20220901121518    1C0C  00002000000000048000000109032CC    BIYABCBU002700430014
BI00B32CH    SJ2210ADMW     202209227114-5096-02             TERMINAL                 CCN000030000000030000FN00000000020221001000030000NNE   20220901132146    4P0P  00003000000000498000000792232CH    SJSAMIJF006400630015
BI00B32CH    SJ2210ADMW     202209227114-5096-08             TERMINAL                 CCN000030000000030000FN00000000020221001000030000NNE   20220901132146    4P0P  00003000000000498000000792232CH    SJSAMIJF006400630015
BI00B32CH    SJ2210ADMW     202209227126-8890-02             FUSE TERMINAL            CCN000006000000006000FN00000000020221001000006000NNE   20220901132146    4P0P  00000600000000465000000750232CH    SJSAMIJF006400630015
BI00B32CH    SJ2210ADMW     202209227126-8891-02             FUSE TERMINAL            CCN000006000000006000FN00000000020221001000006000NNE   20220901132146    4P0P  00000600000000481800000767032CH    SJSAMIJF006400630015
BI00B32CH    SJ2210ADMW     202209227195-1933-02             TERMINAL MALE            CCN000024000000024000FN00000000020221001000024000NNE   20220901132146    4P0P  00002400000000777600001071232CH    SJSAMIJF006400630015
BI00B32CH    SJ2210ADMW     202209227195-1936-02             TERMINAL MALE            CCN000015000000015000FN00000000020221001000015000NNE   20220901132146    4P0P  00001500000000589500000883132CH    SJSAMIJF006400630015
BI00B32CH    SJ2210ADMW     202209227196-0396-02             TERMINAL                 CCN000015000000015000FN00000000020221001000015000NNE   20220901132146    4P0P  00001500000000949500001112932CH    SJSAMIJF002800510028
BI00B32CH    SJ2210ADMW     202209227196-0510-02             TERMINAL                 CCN000024000000024000FN00000000020221001000024000NNE   20220901132146    4P0P  00002400000000871200001034632CH    SJSAMIJF002800510028
BI00B32CH    SJ2210ADMW     202209227196-0511-02             TERMINAL                 CCN000024000000024000FN00000000020221001000024000NNE   20220901132146    4P0P  00002400000000916800001080232CH    SJSAMIJF002800510028
BI00B32CH    SJ2210ADMW     202209227196-1102-02             TERMINAL                 CCN000022500000022500FN00000000020221001000022500NNE   20220901132146    4P0P  00002250000000405000000690232CH    SJSAMIJF006400630015
BI00B32CH    SJ2210ADMW     202209227196-1103-02             TERMINAL                 CCN000022500000022500FN00000000020221001000022500NNE   20220901132146    4P0P  00002250000000429800000715032CH    SJSAMIJF006400630015
BI00B32CH    SJ2210ADMW     202209227196-1104-02             TERMINAL                 CCN000022500000022500FN00000000020221001000022500NNE   20220901132146    4P0P  00002250000000441000000726232CH    SJSAMIJF006400630015
BI00B32CH    SJ2210ADMW     202209227196-1481-02             TERMINAL FEMALE          CCN000024000000024000FN00000000020221001000024000NNE   20220901132146    4P0P  00002400000000422400000707632CH    SJSAMIJF006400630015
BI00B32CH    SJ2210ADMW     202209227196-1933-02             TERMINAL FEMALE          CCN000021000000021000FN00000000020221001000021000NNE   20220901132146    4P0P  00002100000000590100000875332CH    SJSAMIJF006400630015
BI00B32CH    SJ2210ADMW     202209227196-1938-02             TERMINAL FEMALE          CCN000013500000013500FN00000000020221001000013500NNE   20220901132146    4P0P  00001350000000507600000795832CH    SJSAMIJF006400630015
BI00B32CH    SJ2210ADMW     202209227196-1943-02             TERMINAL FEMALE          CCN000019500000024000FN00000000020221001000024000NNE   20220901132146    4P0P  00001200000000492000000777232CH    SJSAMIJF006400630015
BI00B32CH    SJ2210ADMW     202209227196-1946-02             TERMINAL FEMALE          CCN000009000000009000FN00000000020221001000009000NNE   20220901132146    4P0P  00000900000000405000000690232CH    SJSAMIJF006400630015
BI00B32CH    SJ2210ADMW     202209227196-2026-02             TERMINAL FEMALE          CCN000018000000018000FN00000000020221001000018000NNE   20220901132146    4P0P  00001800000000774000000937432CH    SJSAMIJF005100280028
BI00B32CH    SJ2210ADMW     202209227196-2030-02             TERMINAL FEMALE          CCN000015000000015000FN00000000020221001000015000NNE   20220901132146    4P0P  00001500000001002000001165432CH    SJSAMIJF005100280028
BI00B32CH    SJ2210ADMW     202209227288-6547                CONNECTOR MALE ASS'Y     CCN000000750000000750FN00000000020221001000000750NNE   20220901132146    4N0N  00000075000001205300001340332CH    SJSAMIJF005400370024
BI00B32CH    SJ2210ADMW     202209227289-5979-30             HOUSING FEMALE ASS'Y     CCN000000252000000252FN00000000020221001000000252NNE   20220901132146    1N0N  00000025200000854700001064732CH    SJSAMIJF005400370024
BI00B32CH    SJ2210ADMW     202209227289-6547                HOUSING FEMALE ASS'Y     CCN000002400000002400FN00000000020221001000002400NNE   20220901132146    1N0N  00000240000001152000001362032CH    SJSAMIJF005500360039
BI00B32CH    SJ2210ADMW     202209227298-4899-70             SEALED HOUSING ASS'Y     CCN000002310000002310FN00000000020221001000002310NNE   20220901132146    4N0N  00000231000000766900001036932CH    SJSAMIJF005500360039
BI00B32CH    SJ2210ADMW     202209227388-2978-30             HOUSING MALE ASS'Y       CCN000001440000001440FN00000000020221001000001440NNE   20220901132146    1N0N  00000048000000742000001122032CH    SJSAMIJF005500360039
BI00B32CH    #SJ2210ADMW    202209227172-5625-90             RUBBER STOPPER           CCN000020000000020000FN00000000020221001000020000NNE   20220901132144    2H0H  00002000000000082400000133832CH    SJSAMIJF004300270014
BI00B32CH    #SJ2210ADMW    202209227172-5626-90             RUBBER STOPPER           CCN000020000000020000FN00000000020221001000020000NNE   20220901132144    2H0H  00002000000000076400000127832CH    SJSAMIJF004300270014
BI00B32CH    #SJ2210ADMW    202209227172-5627-60             RUBBER STOPPER           CCN000020000000020000FN00000000020221001000020000NNE   20220901132144    2H0H  00002000000000070400000121832CH    SJSAMIJF004300270014
BI00B32CH    #SJ2210ADMW    202209227172-5628-80             DUMMY PLUG               CCN000020000000020000FN00000000020221001000020000NNE   20220901132144    2H0H  00002000000000110600000162032CH    SJSAMIJF004300270014
BI00B32CH    #SJ2210ADMW    202209227172-5629-80             RUBBER STOPPER           CCN000020000000020000FN00000000020221001000020000NNE   20220901132144    2H0H  00002000000000060000000111132CH    SJSAMIJF004300270014
BI00B32CH    #SJ2210ADMW    202209227172-5630-40             RUBBER STOPPER           CCN000020000000020000FN00000000020221001000020000NNE   20220901132144    2H0H  00002000000000044000000095132CH    SJSAMIJF004300270014
BI00B32CH    #SJ2210ADMW    202209227172-5631-60             RUBBER STOPPER           CCN000020000000020000FN00000000020221001000020000NNE   20220901132144    2H0H  00002000000000042000000093132CH    SJSAMIJF004300270014
BI00B32CH    #SJ2210ADMW    202209227172-5632-10             DUMMY PLUG               CCN000020000000020000FN00000000020221001000020000NNE   20220901132144    2H0H  00002000000000080400000131832CH    SJSAMIJF004300270014
BI00B32CH    #SJ2210ADMW    202209227173-3225-10             LIF LEVER                CCN000000800000000800FN00000000020221001000000800NNE   20220901132144    2F0F  00000080000000592000000712032CH    SJSAMIJF005500360039
BI00B32CH    #SJ2210ADMW    202209227187-6919                HOUSING FEMALE           CCN000002400000002400FN00000000020221001000002400NNE   20220901132144    2F0F  00000240000000584600000708632CH    SJSAMIJF005400370024
BI00B32CH    #SJ2210ADMW    202209227189-2978-30             HOUSING FEMALE           CCN000001500000001500FN00000000020221001000001500NNE   20220901132144    2F0F  00000150000000966900001096932CH    SJSAMIJF005400370024
BI00B32CH    #SJ2210ADMW    202209227189-3033                HOUSING FEMALE           CCN000001600000001600FN00000000020221001000001600NNE   20220901132144    2F0F  00000160000001211200001431232CH    SJSAMIJF005500360039
BI00B32CH    #SJ2210ADMW    202209227189-3038                HOUSING FEMALE           CCN000001600000001600FN00000000020221001000001600NNE   20220901132144    2F0F  00000160000000817600000850132CH    SJSAMIJF005500360039
BI00B32CH    #SJ2210ADMW    202209227198-4979-30             HOUSING FEMALE           CCN000004000000004000FN00000000020221001000004000NNE   20220901132144    2F0F  00000400000000707200000876032CH    SJSAMIJF005400370024
BI00B32CH    #SJ2210ADMW    202209227286-1917                CONNECTOR MALE ASS'Y     CCN000001200000001200FN00000000020221001000001200NNE   20220901132144    2N0N  00000120000000967000001167832CH    SJSAMIJF005500360039
BI00B32CH    #SJ2210ADMW    202209227289-2919-30             HOUSING FEMALE ASS'Y     CCN000001500000001500FN00000000020221001000001500NNE   20220901132144    2N0N  00000150000000907500001034532CH    SJSAMIJF005400370024
BI00B32CH    #SJ2210ADMW    202209227289-4104-40             HOUSING FEMALE ASS'Y     CCN000001000000001000FN00000000020221001000001000NNE   20220901132144    2NON  00000050000000606900000821132CH    SJSAMIJF005400370024
BI00B32DJ    GHT2211B 2     202210207388-0314                CONNECTOR ASS'Y          CCN000001200000001200FN00000000020221101000001200NNM   20220901121518    4N0N  00000120000001038000001132332DJ    RBYIPLRB005400370024
BI00B32DJ    GHT2211B 1     202210067327-6533-3W             BATTERY FUSE             CCN000000288000000288FN00000000020221101000000288NNM   20220901121518    4N0N  00000007200001230100001422632DJ    RBYIPLRB005500360039
BI00B32DJ    GHT2211B 2     202210207327-6533-3W             BATTERY FUSE             CCN000002808000002808FN00000000020221101000002808NNM   20220901121518    4N0N  00000007200001230100001422632DJ    RBYIPLRB005500360039
BI00B32DJ    GHT2211B 2     202210207288-3340-30             HOUSING MALE             CCN000003000000003000FN00000000020221101000003000NNM   20220901121518    4N0N  00000150000000861500001006432DJ    RBYIPLRB005400370024
BI00B32DJ    GHT2211B 1     202210067288-3329-30             HOUSING MALE             CCN000001500000001500FN00000000020221101000001500NNM   20220901121518    4N0N  00000150000000866100001011132DJ    RBYIPLRB005400370024
BI00B32DJ    GHT2211B 2     202210207288-3329-30             HOUSING MALE             CCN000004500000004500FN00000000020221101000004500NNM   20220901121518    4N0N  00000150000000866100001011132DJ    RBYIPLRB005400370024
BI00B32DJ    GHT2211B 1     202210067196-0511-02             TERMINAL                 CCN000048000000048000FN00000000020221101000048000NNM   20220901121518    4P0P  00002400000000916800001080232DJ    RBYIPLRB002800510028
BI00B32DJ    GHT2211B 1     202210067388-0317-60             CONNECTOR ASS'Y          CCN000001200000001200FN00000000020221101000001200NNM   20220901121518    4N0N  00000120000001034400001129332DJ    RBYIPLRB005400370024
BI00B32DJ    GHT2211B 2     202210207388-0317-60             CONNECTOR ASS'Y          CCN000003600000003600FN00000000020221101000003600NNM   20220901121518    4N0N  00000120000001034400001129332DJ    RBYIPLRB005400370024
BI00B32DJ    GHT2211B 2     202210207298-4094-10             HOUSING FEMALE ASS'Y     CCN000003380000003380FN00000000020221101000003380NNM   20220901121518    4N0N  00000338000001097400001358732DJ    RBYIPLRB005400370024
BI00B32DJ    GHT2211B 2     202210207114-6041                TERMINAL                 CCN000007200000007200FN00000000020221101000007200NNM   20220901121518    4P0P  00000360000000580700000824232DJ    RBYIPLRB006400630015
BI00B32DJ    GHT2211B 2     202210207298-1853-10             HOUSING FEMALE ASS'Y     CCN000007800000007800FN00000000020221101000007800NNM   20220901121518    4N00  00000390000001240500001405832DJ    RBYIPLRB005400370024
BI00B32DJ    GHT2211B 2     202210207B72-5540-80             SEALED WIRE SEAL         CCN000020000000020000FN00000000020221101000020000NNM   20220901121518    1C0C  00002000000000186000000234432DJ    RBYIPLRB004300270014
BI00B32DJ    GHT2211B 2     202210207116-6042                TERMINAL                 CCN000021000000021000FN00000000020221101000021000NNM   20220901121518    4P0P  00000300000000523800000856132DJ    RBYIPLRB006400630015
BI00B32DJ    GHT2211B 2     202210207116-4231-02             TERMINAL                 CCN000026000000026000FN00000000020221101000026000NNM   20220901121518    4P0P  00002600000000683800001012532DJ    RBYIPLRB006400630017
BI00B32DJ    GHT2211B 2     202210207116-6041                TERMINAL                 CCN000018000000018000FN00000000020221101000018000NNM   20220901121518    4P0P  00000450000000716000001009632DJ    RBYIPLRB006400630015
BI00B32DJ    GHT2211B 2     202210207196-0805-02             TERMINAL FEMALE          CCN000045000000045000FN00000000020221101000045000NNM   20220901121518    4P0P  00002250000000558000000843232DJ    RBYIPLRB006400630015
BI00B32DJ    GHT2211B 2     202210207172-5540-80             SEALED WIRE SEAL         CCN000040000000040000FN00000000020221101000040000NNM   20220901121518    1C0C  00002000000000186000000234432DJ    RBYIPLRB004300270014
BI00B32DJ    GHT2211B 2     202210207116-5751-02             TERMINAL                 CCN000024000000024000FN00000000020221101000024000NNM   20220901121518    4P0P  00001200000000379200000664432DJ    RBYIPLRB006400630015
BI00B32DJ    GHT2211B 2     202210207114-4020                TERMINAL                 CCN000021000000021000FN00000000020221101000021000NNM   20220901121518    4P0P  00002100000000875700001169332DJ    RBYIPLRB006400630015
BI00B32DJ    GHT2211B 2     202210207114-4032                TERMINAL                 CCN000030000000030000FN00000000020221101000030000NNM   20220901121518    4P0P  00000750000000735000001063632DJ    RBYIPLRB006400630017
BI00B32DJ    GHT2211B 1     202210067116-5752-02             TERMINAL                 CCN000021000000021000FN00000000020221101000021000NNM   20220901121518    4P0P  00002100000000571200000856432DJ    RBYIPLRB006400630015
BI00B32DJ    GHT2211B 2     202210207116-5752-02             TERMINAL                 CCN000042000000042000FN00000000020221101000042000NNM   20220901121518    4P0P  00002100000000571200000856432DJ    RBYIPLRB006400630015
BI00B32DJ    GHT2211B 2     202210207287-9234                JOINT CONNECTOR          CCN000009600000009600FN00000000020221101000009600NNM   20220901121518    4N0N  00000960000000893800001184832DJ    RBYIPLRB005500360039
BI00B32DJ    GHT2211B 1     202210067114-5746-02             TERMINAL                 CCN000021000000021000FN00000000020221101000021000NNM   20220901121518    4P0P  00002100000000695100000988732DJ    RBYIPLRB006400630015
BI00B32DJ    GHT2211B 2     202210207114-5746-02             TERMINAL                 CCN000084000000084000FN00000000020221101000084000NNM   20220901121518    4P0P  00002100000000695100000988732DJ    RBYIPLRB006400630015
BI00B32DJ    GHT2211B 2     202210207114-4021                TERMINAL                 CCN000075000000075000FN00000000020221101000075000NNM   20220901121518    4P0P  00001500000000670500000964132DJ    RBYIPLRB006400630015
BI00B32DJ    GHT2211B 2     202210207126-8855-02             TERMINAL                 CCN000012000000012000FN00000000020221101000012000NNM   20220901121518    4P0P  00000600000000510600000795832DJ    RBYIPLRB006400630015
BI00B32DJ    GHT2211B 2     202210207116-2892-02             TERMINAL                 CCN000048000000048000FN00000000020221101000048000NNM   20220901121518    4P0P  00001200000000818400000981832DJ    RBYIPLRB005100280028
BI00B32DJ    GHT2211B 2     202210207116-5750-02             TERMINAL                 CCN000030000000030000FN00000000020221101000030000NNM   20220901121518    4P0P  00001500000000457500000742732DJ    RBYIPLRB006400630015
BI00B32DJ    GHT2211B 2     202210207114-5747-02             TERMINAL                 CCN000054000000054000FN00000000020221101000054000NNM   20220901121518    4P0P  00001800000000626400000920032DJ    RBYIPLRB006400630015
BI00B32DJ    GHT2211B 2     202210207116-4020                TERMINAL                 CCN000094500000094500FN00000000020221101000094500NNM   20220901121518    4P0P  00001350000000513000000798232DJ    RBYIPLRB006400630015
BI00B32DJ    GHT2211B 2     202210207116-2891-02             TERMINAL                 CCN000045000000045000FN00000000020221101000045000NNM   20220901121518    4P0P  00001500000000982500001145932DJ    RBYIPLRB005100280028
BI00B32DJ    GHT2211B 2     202210207126-8854-02             TERMINAL                 CCN000082500000082500FN00000000020221101000082500NNM   20220901121518    4P0P  00000750000000604500000889732DJ    RBYIPLRB006400630015
BI00B32DJ    GHT2211B 2     202210207126-8853-02             TERMINAL                 CCN000060000000060000FN00000000020221101000060000NNM   20220901121518    4P0P  00000750000000562500000847732DJ    RBYIPLRB006400630015
BI00B32DJ    GHT2211B 2     202210207114-4416-02             TERMINAL MALE            CCN000027000000027000FN00000000020221101000027000NNM   20220901121518    4P0P  00002700000000442800000731032DJ    RBYIPLRB006400630015
BI00B32DJ    GHT2211B 2     202210207158-3168-80             SEALED                   CCN000100000000100000FN00000000020221101000100000NNM   20220901121518    1C0C  00002000000000044000000092132DJ    RBYIPLRB004300260014
BI00B32DJ    GHT2211B 2     202210207116-4026                TERMINAL                 CCN000064000000064000FN00000000020221101000064000NNM   20220901121518    4P0P  00001600000000664000000994332DJ    RBYIPLRB006400630017
BI00B32DJ    GHT2211B 2     202210207116-3154-02             TERMINAL FEMALE          CCN000135000000135000FN00000000020221101000135000NNM   20220901121518    4P0P  00002700000000469800000755032DJ    RBYIPLRB006400630015
BI00B32DJ    GHT2211B 1     202210067158-3006-90             RUBBER STOPPER           CCN000060000000060000FN00000000020221101000060000NNM   20220901121518    1C0C  00002000000000330600000386032DJ    RBYIPLRB002700430014
BI00B32DJ    GHT2211B 2     202210207158-3006-90             RUBBER STOPPER           CCN000300000000300000FN00000000020221101000300000NNM   20220901121518    1C0C  00002000000000330600000386032DJ    RBYIPLRB002700430014
BI00B32DJ    GHT2211B 2     202210207116-2893-02             TERMINAL                 CCN000084000000084000FN00000000020221101000084000NNM   20220901121518    4P0P  00001200000000895200001058632DJ    RBYIPLRB005100280028
BI00B32DJ    GHT2211B 2     202210207158-3009-60             RUBBER STOPPER           CCN000120000000120000FN00000000020221101000120000NNM   20220901121518    1C0C  00002000000000338000000386232DJ    RBYIPLRB002700430014
BI00B32DJ    GHT2211B 2     202210207116-4025                TERMINAL                 CCN000112000000112000FN00000000020221101000112000NNM   20220901121518    4P0P  00001600000000644800000975132DJ    RBYIPLRB006400630017
BI00B32DJ    GHT2211B 2     202210207116-1685-02             TERMINAL                 CCN000240000000240000FN00000000020221101000240000NNM   20220901121518    4P0P  00002400000000897600001065232DJ    RBYIPLRB005100280028
BI00B32DJ    GHT2211B 2     202210207116-3153-02             TERMINAL FEMALE          CCN000324000000324000FN00000000020221101000324000NNM   20220901121518    4P0P  00002700000000459000000744232DJ    RBYIPLRB006400630015
BI00B32DJ    #GHT2211B 1    202210067189-3032                HOUSING FEMALE           CCN000001600000001600FN00000000020221101000001600NNM   20220901121518    2F0F  00000160000000788400001018432DJ    RBYIPLRB005500360039
BI00B32DJ    #GHT2211B 2    202210207189-3032                HOUSING FEMALE           CCN000001600000001600FN00000000020221101000001600NNM   20220901121518    2F0F  00000160000000788400001018432DJ    RBYIPLRB005500360039
BI00B32DJ    #GHT2211B 2    202210207189-3031-30             HOUSING FEMALE           CCN000002400000002400FN00000000020221101000002400NNM   20220901121518    2F0F  00000240000000928800001365832DJ    RBYIPLRB005500360039
BI00B32DJ    #GHT2211B 1    202210067183-2414-30             CONNECTOR HOUSING        CCN000004800000004800FN00000000020221101000004800NNM   20220901121518    2F0F  00000480000000779500001061532DJ    RBYIPLRB005500360039
BI00B32DJ    #GHT2211B 1    202210067183-8252-40             HOUSING                  CCN000002400000002400FN00000000020221101000002400NNM   20220901121518    2F0F  00000240000000454000000729032DJ    RBYIPLRB005500360039
BI00B32DJ    #GHT2211B 2    202210207183-8252-40             HOUSING                  CCN000004800000004800FN00000000020221101000004800NNM   20220901121518    2F0F  00000240000000454000000729032DJ    RBYIPLRB005500360039
BI00B32DJ    #GHT2211B 1    202210067183-1616                CONNECTOR HOUSING        CCN000004800000004800FN00000000020221101000004800NNM   20220901121518    2F0F  00000240000000557500000823332DJ    RBYIPLRB005500360039
BI00B32DJ    #GHT2211B 2    202210207183-1616                CONNECTOR HOUSING        CCN000007200000007200FN00000000020221101000007200NNM   20220901121518    2F0F  00000240000000557500000823332DJ    RBYIPLRB005500360039
BI00B32DJ    #GHT2211B 2    202210207189-3037                HOUSING FEMALE           CCN000009600000009600FN00000000020221101000009600NNM   20220901121518    2F0F  00000480000000806400001066432DJ    RBYIPLRB005500360039
BI00B32DJ    #GHT2211B 1    202210067183-2414                CONNECTOR HOUSING        CCN000004800000004800FN00000000020221101000004800NNM   20220901121518    2F0F  00000480000000779200001061032DJ    RBYIPLRB005500360039
BI00B32DJ    #GHT2211B 2    202210207183-2414                CONNECTOR HOUSING        CCN000019200000019200FN00000000020221101000019200NNM   20220901121518    2F0F  00000480000000779200001061032DJ    RBYIPLRB005500360039
BI00B32DJ    #GHT2211C 2    202210207283-8226-30             CONNECTOR                CCN000002000000002000FN00000000020221101000002000NNM   20220901121518    2N0N  00000200000000820000001008032DJ    RBYIPLRB005400370024
BI00B32DJ    #GHT2211C 2    202210207183-8927                HOUSING                  CCN000008000000008000FN00000000020221101000008000NNM   20220901121518    2F0F  00000400000000714000000912732DJ    RBYIPLRB005500360039
BI00B32DJ    #GHT2211C 2    202210207183-8251-40             HOUSING                  CCN000007200000007200FN00000000020221101000007200NNM   20220901121518    2F0F  00000240000000357600000640032DJ    RBYIPLRB005500360039
BI00B32DJ    #GHT2211C 1    202210067158-3017                RUBBER STOPPER           CCN000010000000010000FN00000000020221101000010000NNM   20220901121518    2C0C  00001000000000375500000435032DJ    RBYIPLRB002700430014
BI00B32DJ    #GHT2211C 2    202210207158-3017                RUBBER STOPPER           CCN000020000000020000FN00000000020221101000020000NNM   20220901121518    2C0C  00001000000000375500000435032DJ    RBYIPLRB002700430014
BI00B32DJ    #GHT2211C 2    202210207114-4022                TERMINAL                 CCN000015000000015000FN00000000020221101000015000NNM   20220901121518    2F0P  00001500000000708000001120632DJ    RBYIPLRB006400630015
BI00B32DJ    #GHT2211C 2    202210207183-7725-40             HOUSING                  CCN000012000000012000FN00000000020221101000012000NNM   20220901121518    2F0F  00000600000000840000001040032DJ    RBYIPLRB005600390040
BI00B32DJ    #GHT2211C 2    202210207116-4021                TERMINAL                 CCN000027000000027000FN00000000020221101000027000NNM   20220901121518    2F0P  00001350000000534600000868832DJ    RBYIPLRB006400630015
BI00B32DJ    #GHT2211C 2    202210207158-3015-10             RUBBER STOPPER           CCN000200000000200000FN00000000020221101000200000NNM   20220901121518    2C0C  00001000000000419500000474032DJ    RBYIPLRB002700430014
BI00A32EJ    T220825P01     202209157298-1869-30             HOUSING FEMALE ASS'Y     CCN000001200000001200FN00000000020220901000001200NNEM0020220901140454EJ  4N0N  00000120000000737000000939832EJ    EJYKBO  005500360039
BI00B32G9    TY22111TMW     202209167114-4231-02             TERMINAL                 CCN000018000000018000FN00000000020221101000018000NNM   20220901163341    4P0P  00001800000000554400000848032G9    TYTYC   006400630015
BI00B32G9    TY22111TMW     202209167114-6041                TERMINAL                 CCN000003600000003600FN00000000020221101000003600NNM   20220901163341    4P0P  00000360000000580700000824232G9    TYTYC   006400630015
BI00B32G9    TY22111TMW     202209167116-2891-02             TERMINAL                 CCN000015000000015000FN00000000020221101000015000NNM   20220901163341    4P0P  00001500000000982500001145932G9    TYTYC   005100280028
BI00B32G9    TY22111TMW     202209167116-4031                TERMINAL                 CCN000007500000007500FN00000000020221101000007500NNM   20220901163341    4P0P  00000750000000619500000904732G9    TYTYC   006400630015
BI00B32G9    TY22112TMW     202209237116-4031                TERMINAL                 CCN000007500000007500FN00000000020221101000007500NNM   20220901163341    4P0P  00000750000000619500000904732G9    TYTYC   006400630015
BI00B32G9    TY22111TMW     202209167116-4032                TERMINAL                 CCN000006000000006000FN00000000020221101000006000NNM   20220901163341    4P0P  00000600000000532800000818032G9    TYTYC   006400630015
BI00B32G9    TY22112TMW     202209237116-4032                TERMINAL                 CCN000006000000006000FN00000000020221101000006000NNM   20220901163341    4P0P  00000600000000532800000818032G9    TYTYC   006400630015
BI00B32G9    TY22111TMW     202209167116-4037                TERMINAL                 CCN000006000000006000FN00000000020221101000006000NNM   20220901163341    4P0P  00000600000000600000000894232G9    TYTYC   006400630015
