AE00TO202209010201/09/202200000014800000000000000154900KGM  00000162135KGM  18000004530              AV 8 B                   AV 8 B                   0         0         0         0    0    0    00000000000148000000000211100031242800
AE00TO202209010201/09/202200000000700000000000000007326KGM  00000007669KGM  18000004534              AV 8 B/W                 AV 8 B/W                 0         0         0         0    0    0    00000000000007000000000211100001477700
AE00TO202209010201/09/202200000000100000000000000001047KGM  00000001096KGM  18000004535              AV 8 B/R                 AV 8 B/R                 0         0         0         0    0    0    00000000000001000000000211100000211100
AE00TO202209010201/09/202200000000300000000000000003140KGM  00000003287KGM  18000004540              AV 8 W                   AV 8 W                   0         0         0         0    0    0    00000000000003000000000211100000633300
AE00TO202209010201/09/202200000001500000000000000015700KGM  00000016434KGM  18000004550              AV 8 R                   AV 8 R                   0         0         0         0    0    0    00000000000015000000000211100003166500
AE00TO202209010201/09/202200000009000000000000000094196KGM  00000098596KGM  18000004590              AV 8 L                   AV 8 L                   0         0         0         0    0    0    00000000000090000000000211100018999000
AE00TO202209010201/09/202200000000400000000000000004044KGM  00000004240KGM  18007703900              AVSS 05F P/W             AVSS 05F P/W             0         0         0         0    0    0    00000000000060000000000015600000936000
AE00TO202209010201/09/202200000002200000000000000022242KGM  00000023318KGM  18007703930              AVSS 05F B               AVSS 05F B               0         0         0         0    0    0    00000000000330000000000015600005148000
AE00TO202209010201/09/202200000000100000000000000001011KGM  00000001060KGM  18007703941              AVSS 05F GY              AVSS 05F GY              0         0         0         0    0    0    00000000000015000000000015600000234000
AE00TO202209010201/09/202200000000300000000000000003033KGM  00000003180KGM  18007703950              AVSS 05F R               AVSS 05F R               0         0         0         0    0    0    00000000000045000000000015600000702000
AE00TO202209010201/09/202200000000700000000000000007077KGM  00000007419KGM  18007703952              AVSS 05F P               AVSS 05F P               0         0         0         0    0    0    00000000000105000000000015600001638000
AE00TO202209010201/09/202200000000100000000000000001011KGM  00000001060KGM  18007703960              AVSS 05F G               AVSS 05F G               0         0         0         0    0    0    00000000000015000000000015600000234000
AE00TO202209010201/09/202200000000900000000000000009099KGM  00000009539KGM  18007703990              AVSS 05F L               AVSS 05F L               0         0         0         0    0    0    00000000000135000000000015600002106000
AE00TO202209010201/09/202200000000100000000000000001011KGM  00000001060KGM  18007703991              AVSS 05F SB              AVSS 05F SB              0         0         0         0    0    0    00000000000015000000000015600000234000
AE00TO202209010201/09/202200000000300000000000000002829KGM  00000002976KGM  18007704060              AVSS 075F G              AVSS 075F G              0         0         0         0    0    0    00000000000030000000000022300000669000
AE00TO202209010201/09/202200000002600000000000000028891KGM  00000030162KGM  18007704140              AVSS 125F W              AVSS 125F W              0         0         0         0    0    0    00000000000208000000000034700007217600
AE00TO202209010201/09/202200000000200000000000000002222KGM  00000002320KGM  18007704143              AVSS 125F W/B            AVSS 125F W/B            0         0         0         0    0    0    00000000000016000000000034700000555200
AE00TO202209010201/09/202200000005400000000000000060005KGM  00000062645KGM  18007704160              AVSS 125F G              AVSS 125F G              0         0         0         0    0    0    00000000000432000000000034700014990400
AE00TO202209010201/09/202200000006200000000000000069750KGM  00000072781KGM  1801W003930              IVSSH 05F B              IVSSH 05F B              0         0         0         0    0    0    00000000001116000000000015400017186400
AE00TO202209010201/09/202200000002700000000000000030375KGM  00000031695KGM  1801W003941              IVSSH 05F GY             IVSSH 05F GY             0         0         0         0    0    0    00000000000486000000000015400007484400
AE00TO202209010201/09/202200000000200000000000000002250KGM  00000002348KGM  1801W00395U              IVSSH 05F BE             IVSSH 05F BE             0         0         0         0    0    0    00000000000036000000000015400000554400
AE00TO202209010201/09/202200000004500000000000000050625KGM  00000052825KGM  1801W003960              IVSSH 05F G              IVSSH 05F G              0         0         0         0    0    0    00000000000810000000000015400012474000
AE00TO202209010201/09/202200000000100000000000000001125KGM  00000001174KGM  1801W003961              IVSSH 05F LG             IVSSH 05F LG             0         0         0         0    0    0    00000000000018000000000015400000277200
AE00TO202209010201/09/202200000001400000000000000015750KGM  00000016434KGM  1801W003970              IVSSH 05F Y              IVSSH 05F Y              0         0         0         0    0    0    00000000000252000000000015400003880800
AE00TO202209010201/09/202200000000400000000000000004500KGM  00000004696KGM  1801W003980              IVSSH 05F BR             IVSSH 05F BR             0         0         0         0    0    0    00000000000072000000000015400001108800
AE00TO202209010201/09/202200000000300000000000000003375KGM  00000003522KGM  1801W003992              IVSSH 05F V              IVSSH 05F V              0         0         0         0    0    0    00000000000054000000000015400000831600
AE00TO202209010201/09/202200000009500000000000000107350KGM  00000111994KGM  1801W006930              IVSSH 035F B             IVSSH 035F B             0         0         0         0    0    0    00000000002375000000000011400027075000
AE00TO202209010201/09/202200000005600000000000000063280KGM  00000066018KGM  1801W006940              IVSSH 035F W             IVSSH 035F W             0         0         0         0    0    0    00000000001400000000000011400015960000
AE00TO202209010201/09/202200000000200000000000000002260KGM  00000002358KGM  1801W006941              IVSSH 035F GY            IVSSH 035F GY            0         0         0         0    0    0    00000000000050000000000011400000570000
AE00TO202209010201/09/202200000008500000000000000096050KGM  00000100206KGM  1801W006960              IVSSH 035F G             IVSSH 035F G             0         0         0         0    0    0    00000000002125000000000011400024225000
AE00TO202209010201/09/202200000001400000000000000015820KGM  00000016505KGM  1801W006980              IVSSH 035F BR            IVSSH 035F BR            0         0         0         0    0    0    00000000000350000000000011400003990000
AE00TO202209010201/09/202200000000200000000000000002060KGM  00000002158KGM  180D0203730              AVSSH 03F B              AVSSH 03F B              0         0         0         0    0    0    00000000000040000000000012200000488000
AE00TO202209010201/09/202200000000800000000000000008240KGM  00000008632KGM  180D0203740              AVSSH 03F W              AVSSH 03F W              0         0         0         0    0    0    00000000000160000000000012200001952000
AE00TO202209010201/09/202200000000600000000000000006180KGM  00000006473KGM  180D0203741              AVSSH 03F GY             AVSSH 03F GY             0         0         0         0    0    0    00000000000120000000000012200001464000
AE00TO202209010201/09/202200000000300000000000000003090KGM  00000003237KGM  180D0203750              AVSSH 03F R              AVSSH 03F R              0         0         0         0    0    0    00000000000060000000000012200000732000
AE00TO202209010201/09/202200000000100000000000000001030KGM  00000001079KGM  180D0203757              AVSSH 03F R/Y            AVSSH 03F R/Y            0         0         0         0    0    0    00000000000020000000000012200000244000
AE00TO202209010201/09/202200000000500000000000000005150KGM  00000005394KGM  180D0203760              AVSSH 03F G              AVSSH 03F G              0         0         0         0    0    0    00000000000100000000000012200001220000
AE00TO202209010201/09/202200000000700000000000000007210KGM  00000007552KGM  180D0203761              AVSSH 03F LG             AVSSH 03F LG             0         0         0         0    0    0    00000000000140000000000012200001708000
AE00TO202209010201/09/202200000000900000000000000009270KGM  00000009710KGM  180D0203790              AVSSH 03F L              AVSSH 03F L              0         0         0         0    0    0    00000000000180000000000012200002196000
AE00TO202209010201/09/202200000000200000000000000001622KGM  00000001720KGM  181AD2020ZZ              CIVUSAS-S 05X2 B(R,G)    CIVUSAS-S 05X2 B(R,G)    0         0         0         0    0    0    00000000000008000000000051400000411200
AE00TO202209010201/09/202200000009000000000000000063456KGM  00000067856KGM  181CQ7004ZZ              IVSSHCS-S 05FX2 B(R,G)   IVSSHCS-S 05FX2 B(R,G)   0         0         0         0    0    0    00000000000270000000000072600019602000
AE00TO202209010201/09/202200000005500000000000000038200KGM  00000040889KGM  181E48013ZZ              CAVSAS-S 03X3 GY         CAVSAS-S 03X3 GY         0         0         0         0    0    0    00000000000137500000000059600008195000
AE00TO202209010201/09/202200000000200000000000000001528KGM  00000001626KGM  181E50004ZZ              AVSSCS-S 05FX1 DGY       AVSSCS-S 05FX1 DGY       0         0         0         0    0    0    00000000000008000000000050400000403200
AE00TO202209010201/09/202200000000300000000000000002292KGM  00000002438KGM  181E50007ZZ              AVSSCS-S 05FX1 DGY/L     AVSSCS-S 05FX1 DGY/L     0         0         0         0    0    0    00000000000012000000000050400000604800
AE00TO202209010201/09/202200000001200000000000000011146KGM  00000011732KGM  181E50010ZZ              AVSSCS-S 05FX2 DGY/P     AVSSCS-S 05FX2 DGY/P     0         0         0         0    0    0    00000000000036000000000070600002541600
AE00TO202209010201/09/202200000006300000000000000058515KGM  00000061595KGM  181E50011ZZ              AVSSCS-S 05FX2 DGY/Y     AVSSCS-S 05FX2 DGY/Y     0         0         0         0    0    0    00000000000189000000000070600013343400
AE00TO202209010201/09/202200000000400000000000000003715KGM  00000003911KGM  181E50016ZZ              AVSSCS-S 05FX2 DGY/R     AVSSCS-S 05FX2 DGY/R     0         0         0         0    0    0    00000000000012000000000070600000847200
AE00TO202209010201/09/202200000004600000000000000034857KGM  00000037106KGM  181E50036ZZ              AVSSCS-S 03FX2 DGY       AVSSCS-S 03FX2 DGY       0         0         0         0    0    0    00000000000161000000000059400009563400
