AE00TI102209010601/09/202200000000800000000000000005990KGM  00000008619KGM  7114-4100-02             TERMINAL                 7114410002               0         0         0         0    0    0    00014400000001800000000034000048960000
AE00TI102209010601/09/202200000000800000000000000007212KGM  00000009841KGM  7114-4110-02             TERMINAL                 7114411002               0         0         0         0    0    0    00012000000001500000000049000058800000
AE00TI102209010601/09/202200000000700000000000000004514KGM  00000006826KGM  7116-4025                TERMINAL                 71164025                 0         0         0         0    0    0    00011200000001600000000034000038080000
AE00TI102209010601/09/202200000000700000000000000004787KGM  00000007088KGM  7116-4231-02             TERMINAL                 7116423102               0         0         0         0    0    0    00018200000002600000000022000040040000
AE00TI102209010601/09/202200000001400000000000000004628KGM  00000005404KGM  7158-3006-90             RUBBER STOPPER           7158300690               0         0         0         0    0    0    00028000000002000000000016000044800000
AE00TI102209010601/09/202200000001500000000000000005070KGM  00000005793KGM  7158-3009-60             RUBBER STOPPER           7158300960               0         0         0         0    0    0    00030000000002000000000012000036000000
AE00TI102209010601/09/202200000000100000000000000000124KGM  00000000172KGM  7158-3165-90             WIRE SEAL                7158316590               0         0         0         0    0    0    00004000000004000000000006000002400000
AE00TI102209010601/09/202200000001400000000000000001456KGM  00000002134KGM  7158-3166-60             WIRE SEAL                7158316660               0         0         0         0    0    0    00056000000004000000000004000022400000
AE00TI102209010601/09/202200000001000000000000000000480KGM  00000001090KGM  7158-3167-80             WIRE SEAL                7158316780               0         0         0         0    0    0    00020000000002000000000005000010000000
AE00TI102209010601/09/202200000000200000000000000000088KGM  00000000184KGM  7158-3168-80             SEALED                   7158316880               0         0         0         0    0    0    00004000000002000000000004000001600000
AE00TI102209010601/09/202200000001000000000000000001560KGM  00000002041KGM  7158-3169-40             SEALING PLUG             7158316940               0         0         0         0    0    0    00040000000004000000000006000024000000
AE00TI102209010601/09/202200000001000000000000000006536KGM  00000007017KGM  7172-5403-30             SEALED PACKING           7172540330               0         0         0         0    0    0    00004000000000400000000119000047600000
AE00TI102209010601/09/202200000000800000000000000005836KGM  00000006664KGM  7182-2412                HOUSING MALE             71822412                 0         0         0         0    0    0    00000400000000050000000638000025520000
AE00TI102209010601/09/202200000000500000000000000002104KGM  00000003530KGM  7195-1464-02             TERMINAL MALE            7195146402               0         0         0         0    0    0    00012750000002550000000014000017850000
AE00TI102209010601/09/202200000000500000000000000002850KGM  00000004782KGM  7196-0104-02             TERMINAL                 7196010402               0         0         0         0    0    0    00019000000003800000000026000049400000
AE00TI102209010601/09/202200000000100000000000000000230KGM  00000000339KGM  7282-5528-70             HOUSING MALE ASS'Y       7282552870               0         0         0         0    0    0    00000100000000100000000434000004340000
AE00TI102209010601/09/202200000000900000000000000003150KGM  00000004163KGM  7283-8721-30             HOUSING FEMALE ASS'Y     7283872130               0         0         0         0    0    0    00000900000000100000000415000037350000
AE00TI102209010601/09/202200000000100000000000000000794KGM  00000000907KGM  7283-8730-30             HOUSING FEMALE ASS'Y     7283873030               0         0         0         0    0    0    00000200000000200000000426000008520000
AE00TI102209010601/09/202200000000800000000000000006929KGM  00000008089KGM  7288-3329-30             HOUSING MALE             7288332930               0         0         0         0    0    0    00001200000000150000000354000042480000
AE00TI102209010601/09/202200000000400000000000000003446KGM  00000004026KGM  7288-3340-30             HOUSING MALE             7288334030               0         0         0         0    0    0    00000600000000150000000354000021240000
AE00TI102209010601/09/202200000000100000000000000001205KGM  00000001340KGM  7288-6547                CONNECTOR MALE ASS'Y     72886547                 0         0         0         0    0    0    00000075000000075000001125000008437500
AE00TI102209010601/09/202200000000300000000000000002059KGM  00000002704KGM  7289-3342                HOUSING FEMALE ASS'Y     72893342                 0         0         0         0    0    0    00000720000000240000000186000013392000
AE00TI102209010601/09/202200000001800000000000000012355KGM  00000016225KGM  7289-3342-30             HOUSING FEMALE ASS'Y     7289334230               0         0         0         0    0    0    00004320000000240000000191000082512000
AE00TI102209010601/09/202200000000100000000000000001108KGM  00000001521KGM  7289-9553-50             SEALED ASSY FEMALE       7289955350               0         0         0         0    0    0    00000294000000294000000252000007408800
AE00TI102209010601/09/202200000000100000000000000000650KGM  00000000775KGM  7298-1186-40             SQUIB SUB ASS'Y          7298118640               0         0         0         0    0    0    00001000000001000000000165000016500000
AE00TI102209010601/09/202200000000100000000000000001097KGM  00000001359KGM  7298-4094-10             HOUSING FEMALE ASS'Y     7298409410               0         0         0         0    0    0    00000338000000338000000241000008145800
AE00TI102209010601/09/202200000000200000000000000002324KGM  00000002569KGM  7386-2747                CONNECTOR ASS'Y          73862747                 0         0         0         0    0    0    00000400000000200000000413000016520000
AE00TI102209010601/09/202200000001800000000000000023760KGM  00000028260KGM  7470-3082                J/B COMPLETE ASS'Y       74703082                 0         0         0         0    0    0    00000043200000002400031298000135207360
AE00TI102209010601/09/202200000003000000000000000000000KGM  00000000000KGM  7470-5301                J/B COMPLETE ASS'Y       74705301                 0         0         0         0    0    0    00000030000000001000000000000000000000
AE00TI102209010601/09/202200000003600000000000000000000KGM  00000000000KGM  7470-5308E               J/B COMPLETE ASS'Y       74705308E                0         0         0         0    0    0    00000036000000001000000000000000000000
AE00TI102209010601/09/202200000003000000000000000000000KGM  00000000000KGM  7470-5782D               J/B COMPLETE ASS'Y       74705782D                0         0         0         0    0    0    00000045000000001500000000000000000000
