AE00TI102209010401/09/202200000000600000000000000004248KGM  00000006724KGM  7114-4022                TERMINAL                 71144022                 0         0         0         0    0    0    00009000000001500000000027000024300000
AE00TI102209010401/09/202200000002500000000000000013365KGM  00000021720KGM  7116-4021                TERMINAL                 71164021                 0         0         0         0    0    0    00033750000001350000000028000094500000
AE00TI102209010401/09/202200000000100000000000000000154KGM  00000000440KGM  7157-3950-80             SEAL RUBBER              7157395080               0         0         0         0    0    0    00004000000004000000000044000017600000
AE00TI102209010401/09/202200000000700000000000000001750KGM  00000002142KGM  7158-3003-90             RUBBER STOPPER           7158300390               0         0         0         0    0    0    00014000000002000000000012000016800000
AE00TI102209010401/09/202200000008000000000000000019184KGM  00000039184KGM  7271-1820-30             CASE SUB ASSY,ECU        7271182030               0         0         0         0    0    0    00000144000000001800009576000137894400
AE00TI102209010401/09/202200000001200000000000000009391KGM  00000011911KGM  7282-4578                HOUSING MALE ASS'Y       72824578                 0         0         0         0    0    0    00001440000000120000000255000036720000
AE00TI102209010401/09/202200000000100000000000000001063KGM  00000001283KGM  7282-4855                HOUSING MALE ASS'Y       72824855                 0         0         0         0    0    0    00000120000000120000000347000004164000
AE00TI102209010401/09/202200000000700000000000000004733KGM  00000005723KGM  7283-1289                CONNECTOR HOUSING        72831289                 0         0         0         0    0    0    00000420000000060000000795000033390000
AE00TI102209010401/09/202200000000100000000000000000676KGM  00000000821KGM  7283-1289-10             CONNECTOR HOUSING        7283128910               0         0         0         0    0    0    00000060000000060000000813000004878000
AE00TI102209010401/09/202200000000600000000000000004054KGM  00000004924KGM  7283-1289-30             CONNECTOR HOUSING        7283128930               0         0         0         0    0    0    00000360000000060000000813000029268000
AE00TI102209010401/09/202200000003200000000000000021754KGM  00000026394KGM  7283-1289-40             CONNECTOR HOUSING        7283128940               0         0         0         0    0    0    00001920000000060000000813000156096000
AE00TI102209010401/09/202200000000100000000000000000651KGM  00000000871KGM  7283-4576                HOUSING FEMALE ASS'Y     72834576                 0         0         0         0    0    0    00000480000000480000000128000006144000
AE00TI102209010401/09/202200000000600000000000000005026KGM  00000006346KGM  7283-4578                HOUSING FEMALE ASS'Y     72834578                 0         0         0         0    0    0    00001440000000240000000190000027360000
AE00TI102209010401/09/202200000000100000000000000000954KGM  00000001104KGM  7283-5830                CONNECTOR                72835830                 0         0         0         0    0    0    00000600000000600000000154000009240000
AE00TI102209010401/09/202200000000300000000000000002862KGM  00000003312KGM  7283-5830-30             CONNECTOR                7283583030               0         0         0         0    0    0    00001800000000600000000155000027900000
AE00TI102209010401/09/202200000000100000000000000000444KGM  00000000606KGM  7283-5845                CONNECTOR HOUSING        72835845                 0         0         0         0    0    0    00000600000000600000000133000007980000
AE00TI102209010401/09/202200000000100000000000000000914KGM  00000001143KGM  7283-6120                CONNECTOR HOUSING        72836120                 0         0         0         0    0    0    00000150000000150000000368000005520000
AE00TI102209010401/09/202200000000200000000000000001001KGM  00000001291KGM  7283-7062-30             CONNECTOR HOUSING        7283706230               0         0         0         0    0    0    00000120000000060000000666000007992000
AE00TI102209010401/09/202200000000400000000000000002002KGM  00000002582KGM  7283-7062-40             CONNECTOR HOUSING        7283706240               0         0         0         0    0    0    00000240000000060000000666000015984000
AE00TI102209010401/09/202200000000900000000000000004504KGM  00000005809KGM  7283-7062-90             CONNECTOR HOUSING        7283706290               0         0         0         0    0    0    00000540000000060000000669000036126000
AE00TI102209010401/09/202200000000300000000000000001748KGM  00000002249KGM  7283-7064-10             CONNECTOR HOUSING        7283706410               0         0         0         0    0    0    00000180000000060000000719000012942000
AE00TI102209010401/09/202200000000400000000000000003642KGM  00000004522KGM  7286-3885                CONNECTOR MALE ASS'Y     72863885                 0         0         0         0    0    0    00000480000000120000000295000014160000
AE00TI102209010401/09/202200000000700000000000000006374KGM  00000007914KGM  7286-3885-40             CONNECTOR MALE ASS'Y     7286388540               0         0         0         0    0    0    00000840000000120000000313000026292000
AE00TI102209010401/09/202200000000300000000000000002000KGM  00000002769KGM  7287-1915                CONNECTOR ASS'Y          72871915                 0         0         0         0    0    0    00000720000000240000000161000011592000
AE00TI102209010401/09/202200000000200000000000000002059KGM  00000002499KGM  7287-3885                HYBRID FEMALE ASS'Y      72873885                 0         0         0         0    0    0    00000480000000240000000207000009936000
AE00TI102209010401/09/202200000000100000000000000001030KGM  00000001250KGM  7287-3885-30             HYBRID FEMALE ASS'Y      7287388530               0         0         0         0    0    0    00000240000000240000000215000005160000
AE00TI102209010401/09/202200000000100000000000000001030KGM  00000001250KGM  7287-3885-40             HYBRID FEMALE ASS'Y      7287388540               0         0         0         0    0    0    00000240000000240000000216000005184000
AE00TI102209010401/09/202200000000100000000000000001166KGM  00000001386KGM  7287-8073                HOUSING FEMALE ASS'Y     72878073                 0         0         0         0    0    0    00000240000000240000000244000005856000
AE00TI102209010401/09/202200000000100000000000000000894KGM  00000001185KGM  7287-9234                JOINT CONNECTOR          72879234                 0         0         0         0    0    0    00000960000000960000000137000013152000
AE00TI102209010401/09/202200000001500000000000000005814KGM  00000011814KGM  7288-3206                HOUSING MALE ASS'Y       72883206                 0         0         0         0    0    0    00001530000000102000000351000053703000
AE00TI102209010401/09/202200000001400000000000000012125KGM  00000014155KGM  7288-3329-30             HOUSING MALE             7288332930               0         0         0         0    0    0    00002100000000150000000354000074340000
AE00TI102209010401/09/202200000000200000000000000001734KGM  00000002024KGM  7288-3337-30             HOUSING MALE             7288333730               0         0         0         0    0    0    00000300000000150000000354000010620000
AE00TI102209010401/09/202200000000400000000000000004821KGM  00000005361KGM  7288-6547                CONNECTOR MALE ASS'Y     72886547                 0         0         0         0    0    0    00000300000000075000001125000033750000
AE00TI102209010401/09/202200000004900000000000000033634KGM  00000044169KGM  7289-3342                HOUSING FEMALE ASS'Y     72893342                 0         0         0         0    0    0    00011760000000240000000186000218736000
AE00TI102209010401/09/202200000000800000000000000005491KGM  00000007211KGM  7289-3342-40             HOUSING FEMALE ASS'Y     7289334240               0         0         0         0    0    0    00001920000000240000000192000036864000
AE00TI102209010401/09/202200000000400000000000000002746KGM  00000003606KGM  7289-3342-90             HOUSING FEMALE ASS'Y     7289334290               0         0         0         0    0    0    00000960000000240000000196000018816000
AE00TI102209010401/09/202200000000100000000000000000913KGM  00000001055KGM  7289-4696-30             HOUSING FEMALE ASS'Y     7289469630               0         0         0         0    0    0    00000200000000200000000410000008200000
AE00TI102209010401/09/202200000002600000000000000029952KGM  00000035412KGM  7289-6547                HOUSING FEMALE ASS'Y     72896547                 0         0         0         0    0    0    00006240000000240000000229000142896000
AE00TI102209010401/09/202200000000300000000000000002518KGM  00000003358KGM  7289-6868-30             SEALED ASSY FEMALE       7289686830               0         0         0         0    0    0    00000756000000252000000332000025099200
AE00TI102209010401/09/202200000000100000000000000000533KGM  00000000729KGM  7298-2457-90             LIF FEMALE ASSEMBLY      7298245790               0         0         0         0    0    0    00000016800000016800001464000002459520
AE00TI102209010401/09/202200000000100000000000000001097KGM  00000001359KGM  7298-4094-10             HOUSING FEMALE ASS'Y     7298409410               0         0         0         0    0    0    00000338000000338000000241000008145800
