AE00TO202209010301/09/202200000033300000000000000348524KGM  00000364804KGM  18000004530              AV 8 B                   AV 8 B                   0         0         0         0    0    0    00000000000333000000000211100070296300
AE00TO202209010301/09/202200000000200000000000000002093KGM  00000002191KGM  18000004540              AV 8 W                   AV 8 W                   0         0         0         0    0    0    00000000000002000000000211100000422200
AE00TO202209010301/09/202200000013700000000000000143387KGM  00000150085KGM  18000004543              AV 8 W/B                 AV 8 W/B                 0         0         0         0    0    0    00000000000137000000000211100028920700
AE00TO202209010301/09/202200000001700000000000000017793KGM  00000018624KGM  18000004550              AV 8 R                   AV 8 R                   0         0         0         0    0    0    00000000000017000000000211100003588700
AE00TO202209010301/09/202200000004500000000000000044640KGM  00000046840KGM  18007703770              AVSS 03F Y               AVSS 03F Y               0         0         0         0    0    0    00000000000900000000000011700010530000
AE00TO202209010301/09/202200000000100000000000000001011KGM  00000001060KGM  18007703930              AVSS 05F B               AVSS 05F B               0         0         0         0    0    0    00000000000015000000000015600000234000
AE00TO202209010301/09/202200000000200000000000000001886KGM  00000001984KGM  18007704003              AVSS 075F B/O            AVSS 075F B/O            0         0         0         0    0    0    00000000000020000000000022300000446000
AE00TO202209010301/09/202200000001800000000000000016974KGM  00000017854KGM  18007704030              AVSS 075F B              AVSS 075F B              0         0         0         0    0    0    00000000000180000000000022300004014000
AE00TO202209010301/09/202200000000200000000000000001886KGM  00000001984KGM  18007704036              AVSS 075F B/G            AVSS 075F B/G            0         0         0         0    0    0    00000000000020000000000022300000446000
AE00TO202209010301/09/202200000000200000000000000001886KGM  00000001984KGM  18007704040              AVSS 075F W              AVSS 075F W              0         0         0         0    0    0    00000000000020000000000022300000446000
AE00TO202209010301/09/202200000000300000000000000002829KGM  00000002976KGM  18007704052              AVSS 075F P              AVSS 075F P              0         0         0         0    0    0    00000000000030000000000022300000669000
AE00TO202209010301/09/202200000001100000000000000010373KGM  00000010911KGM  18007704060              AVSS 075F G              AVSS 075F G              0         0         0         0    0    0    00000000000110000000000022300002453000
AE00TO202209010301/09/202200000000300000000000000002829KGM  00000002976KGM  18007704061              AVSS 075F LG             AVSS 075F LG             0         0         0         0    0    0    00000000000030000000000022300000669000
AE00TO202209010301/09/202200000000100000000000000000943KGM  00000000992KGM  18007704090              AVSS 075F L              AVSS 075F L              0         0         0         0    0    0    00000000000010000000000022300000223000
AE00TO202209010301/09/202200000012300000000000000136678KGM  00000142691KGM  18007704140              AVSS 125F W              AVSS 125F W              0         0         0         0    0    0    00000000000984000000000034700034144800
AE00TO202209010301/09/202200000001200000000000000013334KGM  00000013921KGM  18007704160              AVSS 125F G              AVSS 125F G              0         0         0         0    0    0    00000000000096000000000034700003331200
AE00TO202209010301/09/202200000001000000000000000011250KGM  00000011739KGM  1801W003930              IVSSH 05F B              IVSSH 05F B              0         0         0         0    0    0    00000000000180000000000015400002772000
AE00TO202209010301/09/202200000000400000000000000004500KGM  00000004696KGM  1801W003941              IVSSH 05F GY             IVSSH 05F GY             0         0         0         0    0    0    00000000000072000000000015400001108800
AE00TO202209010301/09/202200000008600000000000000096750KGM  00000100955KGM  1801W003960              IVSSH 05F G              IVSSH 05F G              0         0         0         0    0    0    00000000001548000000000015400023839200
AE00TO202209010301/09/202200000000400000000000000004500KGM  00000004696KGM  1801W003961              IVSSH 05F LG             IVSSH 05F LG             0         0         0         0    0    0    00000000000072000000000015400001108800
AE00TO202209010301/09/202200000006400000000000000072000KGM  00000075129KGM  1801W003970              IVSSH 05F Y              IVSSH 05F Y              0         0         0         0    0    0    00000000001152000000000015400017740800
AE00TO202209010301/09/202200000000300000000000000003375KGM  00000003522KGM  1801W003980              IVSSH 05F BR             IVSSH 05F BR             0         0         0         0    0    0    00000000000054000000000015400000831600
AE00TO202209010301/09/202200000000300000000000000003375KGM  00000003522KGM  1801W003991              IVSSH 05F SB             IVSSH 05F SB             0         0         0         0    0    0    00000000000054000000000015400000831600
AE00TO202209010301/09/202200000000400000000000000004500KGM  00000004696KGM  1801W003992              IVSSH 05F V              IVSSH 05F V              0         0         0         0    0    0    00000000000072000000000015400001108800
AE00TO202209010301/09/202200000004500000000000000050850KGM  00000053050KGM  1801W006960              IVSSH 035F G             IVSSH 035F G             0         0         0         0    0    0    00000000001125000000000011400012825000
AE00TO202209010301/09/202200000000100000000000000001030KGM  00000001079KGM  180D0203740              AVSSH 03F W              AVSSH 03F W              0         0         0         0    0    0    00000000000020000000000012200000244000
AE00TO202209010301/09/202200000002100000000000000016195KGM  00000017221KGM  181AD2002ZZ              CIVUSAS-S 035X2 B        CIVUSAS-S 035X2 B        0         0         0         0    0    0    00000000000094500000000043700004129650
AE00TO202209010301/09/202200000000300000000000000002689KGM  00000002836KGM  181B32103S1              AVSSCS 05FX3 DGY         AVSSCS 05FX3 DGY         0         0         0         0    0    0    00000000000007500000000096400000723000
AE00TO202209010301/09/202200000003000000000000000021152KGM  00000022618KGM  181CQ7004ZZ              IVSSHCS-S 05FX2 B(R,G)   IVSSHCS-S 05FX2 B(R,G)   0         0         0         0    0    0    00000000000090000000000072600006534000
AE00TO202209010301/09/202200000004500000000000000034099KGM  00000036299KGM  181E50036ZZ              AVSSCS-S 03FX2 DGY       AVSSCS-S 03FX2 DGY       0         0         0         0    0    0    00000000000157500000000059400009355500
AE00TO202209010301/09/202200000004500000000000000034175KGM  00000036373KGM  181F21009ZZ              AVSSHCS-S 05FX2 B        AVSSHCS-S 05FX2 B        0         0         0         0    0    0    00000000000135000000000073800009963000
