AE00TO202209010401/09/202200000032600000000000000341198KGM  00000357136KGM  18000004530              AV 8 B                   AV 8 B                   0         0         0         0    0    0    00000000000326000000000211100068818600
AE00TO202209010401/09/202200000004500000000000000047098KGM  00000049298KGM  18000004540              AV 8 W                   AV 8 W                   0         0         0         0    0    0    00000000000045000000000211100009499500
AE00TO202209010401/09/202200000000100000000000000001047KGM  00000001096KGM  18000004590              AV 8 L                   AV 8 L                   0         0         0         0    0    0    00000000000001000000000211100000211100
AE00TO202209010401/09/202200000003500000000000000034720KGM  00000036431KGM  18007703740              AVSS 03F W               AVSS 03F W               0         0         0         0    0    0    00000000000700000000000011700008190000
AE00TO202209010401/09/202200000005300000000000000052576KGM  00000055167KGM  18007703770              AVSS 03F Y               AVSS 03F Y               0         0         0         0    0    0    00000000001060000000000011700012402000
AE00TO202209010401/09/202200000004500000000000000044640KGM  00000046840KGM  18007703792              AVSS 03F V               AVSS 03F V               0         0         0         0    0    0    00000000000900000000000011700010530000
AE00TO202209010401/09/202200000002500000000000000025275KGM  00000026498KGM  18007703930              AVSS 05F B               AVSS 05F B               0         0         0         0    0    0    00000000000375000000000015600005850000
AE00TO202209010401/09/202200000001400000000000000014154KGM  00000014839KGM  18007703941              AVSS 05F GY              AVSS 05F GY              0         0         0         0    0    0    00000000000210000000000015600003276000
AE00TO202209010401/09/202200000000700000000000000007077KGM  00000007419KGM  18007703950              AVSS 05F R               AVSS 05F R               0         0         0         0    0    0    00000000000105000000000015600001638000
AE00TO202209010401/09/202200000000200000000000000002022KGM  00000002120KGM  18007703952              AVSS 05F P               AVSS 05F P               0         0         0         0    0    0    00000000000030000000000015600000468000
AE00TO202209010401/09/202200000000400000000000000004044KGM  00000004240KGM  18007703960              AVSS 05F G               AVSS 05F G               0         0         0         0    0    0    00000000000060000000000015600000936000
AE00TO202209010401/09/202200000000400000000000000004044KGM  00000004240KGM  18007703961              AVSS 05F LG              AVSS 05F LG              0         0         0         0    0    0    00000000000060000000000015600000936000
AE00TO202209010401/09/202200000000200000000000000002022KGM  00000002120KGM  18007703980              AVSS 05F BR              AVSS 05F BR              0         0         0         0    0    0    00000000000030000000000015600000468000
AE00TO202209010401/09/202200000000300000000000000003033KGM  00000003180KGM  18007703990              AVSS 05F L               AVSS 05F L               0         0         0         0    0    0    00000000000045000000000015600000702000
AE00TO202209010401/09/202200000000500000000000000005055KGM  00000005299KGM  18007703992              AVSS 05F V               AVSS 05F V               0         0         0         0    0    0    00000000000075000000000015600001170000
AE00TO202209010401/09/202200000000100000000000000000943KGM  00000000992KGM  18007704036              AVSS 075F B/G            AVSS 075F B/G            0         0         0         0    0    0    00000000000010000000000022300000223000
AE00TO202209010401/09/202200000002800000000000000031500KGM  00000032869KGM  1801W003960              IVSSH 05F G              IVSSH 05F G              0         0         0         0    0    0    00000000000504000000000015400007761600
AE00TO202209010401/09/202200000000400000000000000004500KGM  00000004696KGM  1801W003970              IVSSH 05F Y              IVSSH 05F Y              0         0         0         0    0    0    00000000000072000000000015400001108800
AE00TO202209010401/09/202200000001800000000000000020250KGM  00000021130KGM  1801W003990              IVSSH 05F L              IVSSH 05F L              0         0         0         0    0    0    00000000000324000000000015400004989600
AE00TO202209010401/09/202200000001300000000000000014690KGM  00000015326KGM  1801W006930              IVSSH 035F B             IVSSH 035F B             0         0         0         0    0    0    00000000000325000000000011400003705000
AE00TO202209010401/09/202200000004500000000000000050850KGM  00000053050KGM  1801W006940              IVSSH 035F W             IVSSH 035F W             0         0         0         0    0    0    00000000001125000000000011400012825000
AE00TO202209010401/09/202200000005500000000000000062150KGM  00000064839KGM  1801W006960              IVSSH 035F G             IVSSH 035F G             0         0         0         0    0    0    00000000001375000000000011400015675000
AE00TO202209010401/09/202200000002500000000000000028250KGM  00000029472KGM  1801W006980              IVSSH 035F BR            IVSSH 035F BR            0         0         0         0    0    0    00000000000625000000000011400007125000
AE00TO202209010401/09/202200000000200000000000000002060KGM  00000002158KGM  180D0203741              AVSSH 03F GY             AVSSH 03F GY             0         0         0         0    0    0    00000000000040000000000012200000488000
AE00TO202209010401/09/202200000000100000000000000000934KGM  00000000983KGM  180D0204030              AVSSH 075F B             AVSSH 075F B             0         0         0         0    0    0    00000000000010000000000023200000232000
AE00TO202209010401/09/202200000000100000000000000000934KGM  00000000983KGM  180D0204037              AVSSH 075F B/Y           AVSSH 075F B/Y           0         0         0         0    0    0    00000000000010000000000023200000232000
AE00TO202209010401/09/202200000002200000000000000020548KGM  00000021624KGM  180D0204043              AVSSH 075F W/B           AVSSH 075F W/B           0         0         0         0    0    0    00000000000220000000000023200005104000
AE00TO202209010401/09/202200000000100000000000000000934KGM  00000000983KGM  180D0204061              AVSSH 075F LG            AVSSH 075F LG            0         0         0         0    0    0    00000000000010000000000023200000232000
AE00TO202209010401/09/202200000001100000000000000010274KGM  00000010812KGM  180D0204070              AVSSH 075F Y             AVSSH 075F Y             0         0         0         0    0    0    00000000000110000000000023200002552000
AE00TO202209010401/09/202200000000600000000000000005604KGM  00000005897KGM  180D0204080              AVSSH 075F BR            AVSSH 075F BR            0         0         0         0    0    0    00000000000060000000000023200001392000
AE00TO202209010401/09/202200000001000000000000000009340KGM  00000009829KGM  180D0204091              AVSSH 075F SB            AVSSH 075F SB            0         0         0         0    0    0    00000000000100000000000023200002320000
AE00TO202209010401/09/202200000000600000000000000005604KGM  00000005897KGM  180D0204092              AVSSH 075F V             AVSSH 075F V             0         0         0         0    0    0    00000000000060000000000023200001392000
AE00TO202209010401/09/202200000000100000000000000000771KGM  00000000820KGM  181AD2021ZZ              CIVUSAS-S 035X2 B(L,GY)  CIVUSAS-S 035X2 B(L,GY)  0         0         0         0    0    0    00000000000004500000000043700000196650
AE00TO202209010401/09/202200000005100000000000000035958KGM  00000038451KGM  181CQ7003ZZ              IVSSHCS-S 05FX2 B(B,W)   IVSSHCS-S 05FX2 B(B,W)   0         0         0         0    0    0    00000000000153000000000072600011107800
AE00TO202209010401/09/202200000001400000000000000009724KGM  00000010408KGM  181E48013ZZ              CAVSAS-S 03X3 GY         CAVSAS-S 03X3 GY         0         0         0         0    0    0    00000000000035000000000059600002086000
AE00TO202209010401/09/202200000008400000000000000063651KGM  00000067758KGM  181E50036ZZ              AVSSCS-S 03FX2 DGY       AVSSCS-S 03FX2 DGY       0         0         0         0    0    0    00000000000294000000000059400017463600
AE00TO202209010401/09/202200000001100000000000000008354KGM  00000008891KGM  181F21009ZZ              AVSSHCS-S 05FX2 B        AVSSHCS-S 05FX2 B        0         0         0         0    0    0    00000000000033000000000073800002435400
AE00TO202209010401/09/202200000000400000000000000003414KGM  00000003609KGM  181F21028ZZ              AVSSHCS-S 125FX2 B/R     AVSSHCS-S 125FX2 B/R     0         0         0         0    0    0    00000000000008000000000127800001022400
AE00TO202209010401/09/202200000000500000000000000004267KGM  00000004512KGM  181F21029ZZ              AVSSHCS-S 125FX2 B/Y     AVSSHCS-S 125FX2 B/Y     0         0         0         0    0    0    00000000000010000000000127800001278000
