BI00B32H8    2208A MW       2022080518007704037              AVSS 0.75F B/Y           CCN000010000000010000FN00000000020220801000010000NNE   20220708112231    1W    00000100000000943000000000032H8    TYTYC   000000000000LC327002
BI00B32H8    2208A MW       2022080518007704060              AVSS 0.75F G             CCN000001000000001000FN00000000020220801000001000NNE   20220708112231    1W    00000100000000943000000000032H8    TYTYC   000000000000LC327003
BI00B32H8    2208A MW       2022080518007704063              AVSS 0.75F G/B           CCN000004000000004000FN00000000020220801000004000NNE   20220708112231    1W    00000100000000943000000000032H8    TYTYC   000000000000LC327004
BI00B32H8    @2208A MW      20220805181B32102S1              AVSSCS 0.5FX2 DGY        CCN000003000000003000FN00000000020220801000003000NNE   20220708112230    1W    00000030000002903000000000032H8    TYTYC   000000000000LC327001
BI00B32H8    2208AIMW       2022080518007704036              AVSS 0.75F B/G           CCN000003000000003000FN00000000020220801000003000NNE   20220708112231    1W    00000100000000943000000000032H8    TYTYC   000000000000LD327003
BI00B32H8    @2208AIMW      20220805181B32037Y5              AVSSCS 0.3FX1 DGY/W      CCN000001000000001000FN00000000020220801000001000NNE   20220708112230    1W    00000050000001780000000000032H8    TYTYC   000000000000LD327001
BI00B32H8    @2208AIMW      20220805181B32039Y6              AVSSCS 0.5FX1 DGY/G      CCN000000400000000400FN00000000020220801000000400NNE   20220708112230    1W    00000040000002289000000000032H8    TYTYC   000000000000LD327002
BI00B32J1    @396266        20220801181AD2001ZZ              CIVUSAS-S 0.35X1 B       CCN000021450000021450FN00000000020220801000021450NNE   20220708150916    1W    00000055000001540800000000032J1    UKYEL-BL000000000000KG327001
BI00B32J1    @396266        20220801181AD2002ZZ              CIVUSAS-S 0.35X2 B       CCN000010350000010350FN00000000020220801000010350NNE   20220708150916    1W    00000045000001713700000000032J1    UKYEL-BL000000000000KG327002
BI00B32J1    @396266        20220801181AD2003ZZ              CIVUSAS-S 0.35X3 B       CCN000005600000005600FN00000000020220801000005600NNE   20220708150916    1W    00000035000002172100000000032J1    UKYEL-BL000000000000KG327003
BI00B32J1    @396266        20220801181E48018ZZ              CAVSAS-S 0.5X2 GY/SB     CCN000001200000001200FN00000000020220801000001200NNE   20220708150916    1W    00000030000002561000000000032J1    UKYEL-BL000000000000KG327005
BI00B32J1    @396266        20220801181E48027ZZ              CAVSAS-S 0.5X2 GY/P      CCN000001200000001200FN00000000020220801000001200NNE   20220708150916    1W    00000030000002561000000000032J1    UKYEL-BL000000000000KG327004
BI00B32U5    DW2037         202208111801W006992              IVSSH 0.35F V            CCN000022500000022500FN00000000020221001000022500NNM   20220708110201U5  1W    00000250000000452000000000032U5    ASAMSD  000000000000AM427020
BI00B32U5    @DW2037        20220811181AD2013ZZ              CIVUSAS-S 1.25X2 B       CCN000001550000001760FN00000000020221001000001760NNM   20220708110157U5  1W    00000022000003840000000000032U5    ASAMSD  000000000000AM427018
BI00B32U5    @DW2037        20220811181F21027ZZ              AVSSHCS-S 1.25FX2 B      CCN000007800000007800FN00000000020221001000007800NNM   20220708110157U5  1W    00000020000004267300000000032U5    ASAMSD  000000000000AM427019
BI00B32U5    @DW2038        20220819181AD2013ZZ              CIVUSAS-S 1.25X2 B       CCN000006200000006380FN00000000020221101000006380NNE   20220708111059U5  1W    00000022000003840000000000032U5    ASAMSD  000000000000AM128022
BI00B32U5    @DW2038        20220819181E48011ZZ              CAVSAS-S 0.3X1 GY/W      CCN000003500000003500FN00000000020221101000003500NNE   20220708111059U5  1W    00000050000001529500000000032U5    ASAMSD  000000000000AM128023
BI00B32U5    @DW2038        20220819181F21027ZZ              AVSSHCS-S 1.25FX2 B      CCN000004800000004800FN00000000020221101000004800NNE   20220708111059U5  1W    00000020000004267300000000032U5    ASAMSD  000000000000AM128024
BI00B32W4    4500195870     202207191801R704041              CIVUS 0.75 GY            CCN000003000000000000FY00000000020220701000000000NNE10 20220708140251W41 1W    00000150000000765000000000032W41   HJYHK-J 000000000000OS127003
BI00B32W4    4500195870     202207191801R704092              CIVUS 0.75 V             CCN000003000000000000FY00000000020220701000000000NNE10 20220708140251W41 1W    00000150000000765000000000032W41   HJYHK-J 000000000000OS127007
BI00B32W4    4500195870     202207191801R704080              CIVUS 0.75 BR            CCN000003000000000000FY00000000020220701000000000NNE10 20220708140251W41 1W    00000150000000765000000000032W41   HJYHK-J 000000000000OS127001
BI00B32W4    4500195870     202207191801R704052              CIVUS 0.75 P             CCN000003000000000000FY00000000020220701000000000NNE10 20220708140251W41 1W    00000150000000765000000000032W41   HJYHK-J 000000000000OS127005
BI00B32W4    4500195870     202207191801R704040              CIVUS 0.75 W             CCN000003000000000000FY00000000020220701000000000NNE10 20220708140251W41 1W    00000150000000765000000000032W41   HJYHK-J 000000000000OS127008
BI00B32W4    4500195870     202207191801R704060              CIVUS 0.75 G             CCN000003000000000000FY00000000020220701000000000NNE10 20220708140251W41 1W    00000150000000765000000000032W41   HJYHK-J 000000000000OS127002
BI00B32W4    4500195870     202207191801R704090              CIVUS 0.75 L             CCN000003000000000000FY00000000020220701000000000NNE10 20220708140251W41 1W    00000150000000765000000000032W41   HJYHK-J 000000000000OS127004
BI00B32W4    4500195870     202207191801R704091              CIVUS 0.75 SB            CCN000003000000000000FY00000000020220701000000000NNE10 20220708140251W41 1W    00000150000000765000000000032W41   HJYHK-J 000000000000OS127006
BI00B32W9    4500196078     2022081618018403950              CAVS 0.5 R               CCN000001500000001500FN00000000020220701000001500NNE20 20220708134101W93 1W    00000150000000677000000000032W93   HKYHK   000000000000ZG227049
BI00B32W9    4500196078     2022081618018403970              CAVS 0.5 Y               CCN000007500000007500FN00000000020220701000007500NNE20 20220708134101W93 1W    00000150000000677000000000032W93   HKYHK   000000000000ZG227057
BI00B32W9    4500196095     2022090618009604330              AVS 3 B                  CCN000002000000002000FN00000000020220801000002000NNE20 20220708133920W93 1W    00000040000003831600000000032W93   HKYHK   000000000000ZM327025
BI00B32W9    4500196095     2022090618018403930              CAVS 0.5 B               CCN000025500000025500FN00000000020220801000025500NNE20 20220708133920W93 1W    00000150000000677000000000032W93   HKYHK   000000000000ZM327046
BI00B32W9    4500196095     202208021801R706990              CIVUS 0.35 L             CCN000003000000000000FY00000000020220801000000000NNE10 20220708135144W93 1W    00000300000000386000000000032W93   HKYHK   000000000000ZM327041
BI00B32W9    4500196095     202208021801R706970              CIVUS 0.35 Y             CCN000003000000000000FY00000000020220801000000000NNE10 20220708135144W93 1W    00000300000000386000000000032W93   HKYHK   000000000000ZM327042
BI00B32W9    @4500196095    20220802181B09116K3              CAVSAS 0.3X2 GY/P        CCN000000350000000000FY00000000020220801000000000NNE10 20220708135054W93 1W    00000035000002254000000000032W93   HKYHK   000000000000ZM327001
BI00B32W9    4500196101     202208161801R70695U              CIVUS 0.35 BE            CCN000003000000000000FY00000000020220801000000000NNE10 20220708134905W93 1W    00000300000000386000000000032W93   HKYHK   000000000000ZB128039
BI00B32W9    @4500196101    20220816181B09116K3              CAVSAS 0.3X2 GY/P        CCN000001050000000000FY00000000020220801000000000NNE10 20220708135001W93 1W    00000035000002254000000000032W93   HKYHK   000000000000ZB128001
BI00B32W9    @4500196111    20220823181B09116K3              CAVSAS 0.3X2 GY/P        CCN000000700000000000FY00000000020220801000000000NNE10 20220708134819W93 1W    00000035000002254000000000032W93   HKYHK   000000000000ZF228001
