BI00B32AF    #JTB2074       202207117287-1915                CONNECTOR ASS'Y          CCN000009600000009600FN00000000020220701000009600NNM00020220708142849    2N0N  00000240000001386000000923132AF    HBYHVTB 005500360039
BI00B32CA    #PTA32101      202207147189-3033                HOUSING FEMALE           CCN000001600000001600FY00000160020221001000000000NNE00020220708142549    2F0F  00000160000001211200001431232CA    YPYPY   005500360039
BI00B32CA    #PTA32101      202207147189-3034-30             HOUSING FEMALE           CCN000004800000004800FY00000480020221001000000000NNE00020220708142549    2F0F  00000160000000972800001192832CA    YPYPY   005500360039
BI00B32CA    #PTA32101      202207147189-3036                HOUSING FEMALE           CCN000001600000001600FY00000160020221001000000000NNE00020220708142549    2F0F  00000160000000921600001141632CA    YPYPY   005500360039
BI00B32CA    PTA33012       202209297287-9323                UNSEALED HOUSING SUB     CCN000007200000007200FN00000000020230101000007200NNE   20220708121350    1N0N  00000240000000537600000690032CA    YPYPY   005600390023
BI00B32CA    PTA33012       202209297289-3342                HOUSING FEMALE ASS'Y     CCN000026400000026400FN00000000020230101000026400NNE   20220708121350    1N0N  00000240000000686400000901432CA    YPYPY   005500360039
BI00B32CA    PTA33012       202209297289-3342-90             HOUSING FEMALE ASS'Y     CCN000012000000012000FN00000000020230101000012000NNE   20220708121350    1N0N  00000240000000686400000901432CA    YPYPY   005500360039
BI00B32CA    #PTA33012      202209297183-2414-30             CONNECTOR HOUSING        CCN000003750000004800FN00000000020230101000004800NNE   20220708121350    2F0F  00000480000000779500001061532CA    YPYPY   005500360039
BI00B32CJ    #JQN2074       202207117287-1915                CONNECTOR ASS'Y          CCN000007200000007200FN00000000020220701000007200NNM00020220708142830    2N0N  00000240000001386000000923132CJ    QNYHVQN 005500360039
BI00B32D2    DGTC2240B      202208047327-6990-30             MULTI FUSE               CCN000000960000001120FN00000000020220901000001120NNE   20220708132933    4NON  00000056000000724000000907032D2    TGYOT-G 005400370024
BI00B32EJ    T220707P01     202208047116-4025                TERMINAL                 CCN000016000000016000FN00000000020220801000016000NNE   20220708121350EJ  4P0P  00001600000000644800000975132EJ    EJYKBO  006400630017
BI00B32EJ    T220707P01     202208047116-4104-02             TERMINAL                 CCN000012000000012000FN00000000020220801000012000NNE   20220708121350EJ  4P0P  00001200000000580800000972432EJ    EJYKBO  006400630015
BI00B32EJ    T220707P01     202208047116-4102-02             TERMINAL                 CCN000024000000024000FN00000000020220801000024000NNE   20220708121350EJ  4P0P  00001200000000553200000841432EJ    EJYKBO  006400630015
BI00B32EJ    T220707P01     202208047283-1968-30             CONNECTOR                CCN000002700000002700FN00000000020220801000002700NNE   20220708121350EJ  1N0N  00000090000001140000001318332EJ    EJYKBO  005600390040
BI00B32EJ    T220707P01     202208047116-4124-02             TERMINAL                 CCN000012000000012000FN00000000020220801000012000NNE   20220708121350EJ  4P0P  00000300000000459900000753532EJ    EJYKBO  006400630015
BI00B32EJ    T220707P01     202208047196-1461-06             TERMINAL FEMALE          CCN000024000000024000FN00000000020220801000024000NNE   20220708121350EJ  4P0P  00002400000000386400000692932EJ    EJYKBO  006400630015
BI00B32EJ    T220707P01     202208047114-4110-02             TERMINAL                 CCN000015000000015000FN00000000020220801000015000NNE   20220708121350EJ  4P0P  00001500000000901500001230132EJ    EJYKBO  006400630017
BI00B32EJ    T220707P01     202208047114-4111-02             TERMINAL                 CCN000012000000012000FN00000000020220801000012000NNE   20220708121350EJ  4P0P  00001200000000758400001087032EJ    EJYKBO  006400630017
BI00B32EJ    T220707P01     202208047114-4112-02             TERMINAL                 CCN000018000000018000FN00000000020220801000018000NNE   20220708121350EJ  4P0P  00000900000000598500000927132EJ    EJYKBO  006400630017
BI00B32EJ    T220707P01     202208047114-4100-02             TERMINAL                 CCN000036000000036000FN00000000020220801000036000NNE   20220708121350EJ  4P0P  00001800000000748800001077432EJ    EJYKBO  006400630017
BI00B32EJ    T220707P01     202208047116-4100-02             TERMINAL                 CCN000015000000015000FN00000000020220801000015000NNE   20220708121350EJ  4P0P  00001500000000696000000990232EJ    EJYKBO  006400630015
BI00B32EJ    T220707P01     202208047116-4101-02             TERMINAL                 CCN000012000000012000FN00000000020220801000012000NNE   20220708121350EJ  4P0P  00001200000000582000000876232EJ    EJYKBO  006400630015
BI00B32EJ    T220707P01     202208047116-4122-02             TERMINAL                 CCN000045000000045000FN00000000020220801000045000NNE   20220708121350EJ  4P0P  00000450000000656600000950232EJ    EJYKBO  006400630015
BI00B32EJ    T220707P01     202208047116-4121-02             TERMINAL                 CCN000040500000040500FN00000000020220801000040500NNE   20220708121350EJ  4P0P  00000450000000618800000912432EJ    EJYKBO  006400630015
BI00B32EJ    T220707P01     202208047116-4112-02             TERMINAL                 CCN000048000000048000FN00000000020220801000048000NNE   20220708121350EJ  4P0P  00000600000000450000000738232EJ    EJYKBO  006400630015
BI00B32EJ    T220707P01     202208047116-4110-02             TERMINAL                 CCN000009000000009000FN00000000020220801000009000NNE   20220708121350EJ  4P0P  00000900000000594000000882232EJ    EJYKBO  006400630015
BI00B32EJ    T220707P01     202208047116-4111-02             TERMINAL                 CCN000007500000007500FN00000000020220801000007500NNE   20220708121350EJ  4P0P  00000750000000529500000817732EJ    EJYKBO  006400630015
BI00B32EJ    T220707P01     202208047126-8854-02             TERMINAL                 CCN000007500000007500FN00000000020220801000007500NNE   20220708121350EJ  4P0P  00000750000000604500000889732EJ    EJYKBO  006400630015
BI00B32EJ    T220707P01     202208047126-8855-02             TERMINAL                 CCN000006000000006000FN00000000020220801000006000NNE   20220708121350EJ  4P0P  00000600000000510600000795832EJ    EJYKBO  006400630015
BI00B32EJ    T220707P01     202208047116-4022                TERMINAL                 CCN000013500000013500FN00000000020220801000013500NNE   20220708121350EJ  4P0P  00001350000000618300000903532EJ    EJYKBO  006400630015
BI00B32EJ    T220707P01     202208047158-3166-60             WIRE SEAL                CCN000600000000600000FN00000000020220801000600000NNE   20220708121350EJ  1C0C  00004000000000104000000152432EJ    EJYKBO  002700430014
BI00B32EJ    T220707P01     202208047158-3167-80             WIRE SEAL                CCN000800000000800000FN00000000020220801000800000NNE   20220708121350EJ  1C0C  00002000000000048000000109032EJ    EJYKBO  002700430014
BI00B32EJ    T220707P01     202208047158-3169-40             SEALING PLUG             CCN000280000000280000FN00000000020220801000280000NNE   20220708121350EJ  1C0C  00004000000000156000000204132EJ    EJYKBO  004300260014
BI00B32EJ    T220707P01     202208047158-3167-61             WIRE SEAL                CCN000060000000060000FN00000000020220801000060000NNE   20220708121350EJ  1C0C  00002000000000048000000096432EJ    EJYKBO  004300270014
BI00B32EJ    #T220707P01    202208047158-3120-90             CONNECTOR WIRE SEAL      CCN000080000000080000FN00000000020220801000080000NNE   20220708121350EJ  2C0C  00002000000000136000000194032EJ    EJYKBO  002700430014
BI00B32EJ    #T220707P01    202208047157-3992-90             CONNECTOR SEALED         CCN000080000000080000FN00000000020220801000080000NNE   20220708121350EJ  2C0C  00004000000000300000000363332EJ    EJYKBO  002700430014
BI00B32EJ    #T220707P01    202208047123-6423-30             CONNECTOR                CCN000002000000002000FN00000000020220801000002000NNE   20220708121350EJ  2F0F  00000200000001002000001167632EJ    EJYKBO  005600390023
BI00B32EJ    @T220707P01    202208047123-4312-80             HOUSING                  CCN000000800000000800FN00000000020220801000000800NNE   20220708121350EJ  3F0F  00000080000000644200000794032EJ    EJYKBO  005500360039
BI00B32G2    @SA2209AJMW    202208317287-1238-30             HOUSING FEMALE ASS'Y     CCN000000780000000780FN00000000020220901000000780NNE   20220708134217    3N0N  00000078000000721100001122032G2    AISUAI  005500360039
BI00B32G8    PATA2081B      202207277470-5946                J/B COMPLETE ASS'Y       CCN000000240000000240FN00000000020220801000000240NNE   20220708121350    4J0J  00000001000000494000000661032G8    PSPASI  005400370024
BI00B32G8    PATA2081B      202207277273-3573-0W             CASSETTE BRACKET         CCN000001800000001800FN00000000020220801000001800NNE   20220708121350    4N0N  00000010000000087700000140232G8    PSPASI  004300270014
BI00B32G8    PATA2081B      202207277470-5945                J/B COMPLETE ASS'Y       CCN000000200000000200FN00000000020220801000000200NNE   20220708121350    4J0J  00000001000000494000000661032G8    PSPASI  005400370024
BI00B32G8    PATA2091       202208107017-1181-02             TERMINAL                 CCN000189000000189000FN00000000020220901000189000NNM   20220708121350    4P0P  00006300000001089900001266832G8    PSPASI  005100280028
BI00B32G8    PATA2091       202208107273-3570-0W             CASSETTE BRACKET         CCN000004800000004800FN00000000020220901000004800NNM   20220708121350    4N0N  00000010000000144100000196632G8    PSPASI  004300270014
BI00B32G8    PATA2091       202208107273-3573-0W             CASSETTE BRACKET         CCN000015000000015000FN00000000020220901000015000NNM   20220708121350    4N0N  00000010000000087700000140232G8    PSPASI  004300270014
BI00B32G8    PATA2091       202208107273-3571-0W             CASSETTE BRACKET         CCN000010200000010200FN00000000020220901000010200NNM   20220708121350    4N0N  00000010000000134600000187132G8    PSPASI  004300270014
BI00B32G8    PATA2091       202208107470-5302                J/B COMPLETE ASS'Y       CCN000000600000000600FN00000000020220901000000600NNM   20220708121350    4J0J  00000001000000494000000661032G8    PSPASI  005400370024
BI00B32G8    PATA2091       202208107470-5945                J/B COMPLETE ASS'Y       CCN000005010000005010FN00000000020220901000005010NNM   20220708121350    4J0J  00000001000000494000000661032G8    PSPASI  005400370024
BI00B32G8    PATA2091       202208107470-5938                J/B COMPLETE ASS'Y       CCN000000040000000040FN00000000020220901000000040NNM   20220708121350    4J0J  00000001000000494000000661032G8    PSPASI  005400370024
BI00B32G8    PATA2091       202208107470-5946                J/B COMPLETE ASS'Y       CCN000001650000001650FN00000000020220901000001650NNM   20220708121350    4J0J  00000001000000494000000661032G8    PSPASI  005400370024
BI00B32G8    PATA2091       202208107470-5939                J/B COMPLETE ASS'Y       CCN000000030000000030FN00000000020220901000000030NNM   20220708121350    4J0J  00000001000000494000000661032G8    PSPASI  005400370024
BI00B32G8    PATA2091       202208107470-6156                J/B COMPLETE ASS'Y       CCN000000160000000160FN00000000020220901000000160NNM   20220708121350    4J00  00000001000000494000000661032G8    PSPASI  005400370024
BI00B32H2    #TIJ2074       202207117287-1915                CONNECTOR ASS'Y          CCN000002400000002400FN00000000020220701000002400NNMQ0920220708142821    2N0N  00000240000001386000000923132H2    HVYHV   005500360039
BI00B32H7    FS2209CDMW     202208037297-3482                JOINT CONNECTOR          CCN000003200000003200FN00000000020220901000003200NNE   20220708154341    4N0N  00000080000000621000000730532H7    FYFSY   005400370024
BI00B32H7    FS2209CDMW     202208037327-6950-30             MULTI FUSE               CCN000000576000000576FN00000000020220901000000576NNE   20220708154341    4N00  00000028800000888700001054632H7    FYFSY   005400370024
BI00B32H7    FS2209CDMW     202208037327-6954-30             MULTI FUSE               CCN000000600000000600FN00000000020220901000000600NNE   20220708154341    4N00  00000060000000751600000954332H7    FYFSY   005400370024
BI00B32H7    FS2209BDMW     202208037327-6950-30             MULTI FUSE               CCN000000576000000576FN00000000020220901000000576NNE   20220708154358    4N00  00000028800000888700001054632H7    FYFSY   005400370024
BI00B32H7    FS2209DDMW     202208247158-3022-80             RUBBER STOPPER           CCN000005000000005000FN00000000020220901000005000NNE   20220708154421    1C0C  00000500000000467500000524032H7    FYFSY   002700430014
BI00B32H7    FS2209DDMW     202208247173-3291-40             LIF LEVER                CCN000002400000002400FN00000000020220901000002400NNE   20220708154421    1F0F  00000240000000867800001067832H7    FYFSY   005500360039
BI00B32H7    FS2209DDMW     202208247286-3885-40             CONNECTOR MALE ASS'Y     CCN000002000000002400FN00000000020220901000002400NNE   20220708154421    1N0N  00000120000000910600001130632H7    FYFSY   005500360039
BI00B32H7    FS2209DDMW     202208247289-6518-30             HOUSING FEMALE ASS'Y     CCN000001200000001200FN00000000020220901000001200NNE   20220708154421    1N0N  00000120000000829200001049232H7    FYFSY   005500360039
BI00B32H7    FS2209DDMW     202208247289-6597-70             HOUSING FEMALE ASS'Y     CCN000002160000002160FN00000000020220901000002160NNE   20220708154421    4N0N  00000216000001289500001539532H7    FYFSY   005500360039
BI00B32H7    FS2209DDMW     202208247327-6952-30             MULTI FUSE               CCN000000560000000560FN00000000020220901000000560NNE   20220708154421    4N0N  00000056000000848500001031532H7    FYFSY   005400370024
BI00B32H7    #FS2209DDMW    202208247172-5625-90             RUBBER STOPPER           CCN000060000000060000FN00000000020220901000060000NNE   20220708154416    2H0H  00002000000000082400000133832H7    FYFSY   004300270014
BI00B32H7    #FS2209DDMW    202208247172-5628-80             DUMMY PLUG               CCN000040000000040000FN00000000020220901000040000NNE   20220708154416    2H0H  00002000000000110600000162032H7    FYFSY   004300270014
BI00B32H7    #FS2209DDMW    202208247172-5632-10             DUMMY PLUG               CCN000060000000060000FN00000000020220901000060000NNE   20220708154416    2H0H  00002000000000080400000131832H7    FYFSY   004300270014
BI00B32H7    #FS2209DDMW    202208247189-2978-30             HOUSING FEMALE           CCN000009000000009000FN00000000020220901000009000NNE   20220708154416    2F0F  00000150000000966900001096932H7    FYFSY   005400370024
BI00B32H8    #TY2208AIMW    202207227187-3357-40             JOINT CONNECTOR          CCN000002400000002400FN00000000020220801000002400NNE   20220708121350    2F0F  00000120000000762000001029232H8    TYTYC   005600390040
BI00B32H8    #TY2208AIMW    202207227187-3360                JOINT CONNECTOR          CCN000001200000001200FN00000000020220801000001200NNE   20220708121350    2F0F  00000120000000759600001026832H8    TYTYC   005600390040
BI00B32J1    396263         202208017114-1475                TERMINAL                 CCN000040500000040500FN00000000020220801000040500NNM   20220708121350    4P0P  00001350000000480600000774232J1    UKYEL-BL006400630015
BI00B32J1    396263         202208017116-4020                TERMINAL                 CCN000108000000108000FN00000000020220801000108000NNM   20220708121350    4P0P  00001350000000513000000798232J1    UKYEL-BL006400630015
BI00B32J1    396263         202208017158-3006-90             RUBBER STOPPER           CCN000040000000040000FN00000000020220801000040000NNM   20220708121350    1C0C  00002000000000330600000386032J1    UKYEL-BL002700430014
BI00B32J1    396263         202208017158-3166-60             WIRE SEAL                CCN002160000002160000FN00000000020220801002160000NNM   20220708121350    1C0C  00004000000000104000000152432J1    UKYEL-BL002700430014
BI00B32J1    396263         202208017158-3167-61             WIRE SEAL                CCN000060000000060000FN00000000020220801000060000NNM   20220708121350    1C0C  00002000000000048000000096432J1    UKYEL-BL004300270014
BI00B32J1    396263         202208017158-3167-80             WIRE SEAL                CCN002640000002640000FN00000000020220801002640000NNM   20220708121350    1C0C  00002000000000048000000109032J1    UKYEL-BL002700430014
BI00B32J1    396263         202208017158-3168-80             SEALED                   CCN000620000000620000FN00000000020220801000620000NNM   20220708121350    1C0C  00002000000000044000000092132J1    UKYEL-BL004300260014
BI00B32J1    396263         202208017196-1461-02             TERMINAL FEMALE          CCN000312000000312000FN00000000020220801000312000NNM   20220708121350    4P0P  00002400000000386400000671632J1    UKYEL-BL006400630015
BI00B32J1    396263         202208017196-1461-06             TERMINAL FEMALE          CCN000024000000024000FN00000000020220801000024000NNM   20220708121350    4P0P  00002400000000386400000692932J1    UKYEL-BL006400630015
BI00B32J1    396263         202208017196-1462-02             TERMINAL FEMALE          CCN000021000000021000FN00000000020220801000021000NNM   20220708121350    4P0P  00002100000000352800000638032J1    UKYEL-BL006400630015
BI00B32J1    396263         202208017282-5574-10             CONNECTOR                CCN000011200000011200FN00000000020220801000011200NNM   20220708121350    4N0N  00000080000001235000001423032J1    UKYEL-BL005600390040
BI00B32J1    396263         202208017283-1968-30             CONNECTOR                CCN000005400000005400FN00000000020220801000005400NNM   20220708121350    1N0N  00000090000001140000001318332J1    UKYEL-BL005600390040
BI00B32J1    396263         202208017283-5545-10             CONNECTOR                CCN000001800000001800FN00000000020220801000001800NNM   20220708121350    4N0N  00000060000001279000001409232J1    UKYEL-BL005600390040
BI00B32J1    396263         202208017283-6448-40             CONNECTOR                CCN000004500000004500FN00000000020220801000004500NNM   20220708121350    4N0N  00000150000001087000001329032J1    UKYEL-BL005600390040
BI00B32J1    396263         202208017288-5000                HOUSING MALE ASS'Y       CCN000000336000000336FN00000000020220801000000336NNM   20220708121350    1N0N  00000033600000825200001035232J1    UKYEL-BL005400370024
BI00B32J1    396263         202208017289-5000                HOUSING FEMALE ASS'Y     CCN000000608000000608FN00000000020220801000000608NNM   20220708121350    1N0N  00000030400000549000000759032J1    UKYEL-BL005400370024
BI00B32J1    396263         202208017298-1866-40             HOUSING FEMALE ASS'Y     CCN000016800000016800FN00000000020220801000016800NNM   20220708121350    4N0N  00000240000001003000001217932J1    UKYEL-BL005500360039
BI00B32J1    396263         202208017298-1867-10             HOUSING FEMALE ASS'Y     CCN000002400000002400FN00000000020220801000002400NNM   20220708121350    4N0N  00000240000000998400001213332J1    UKYEL-BL005500360039
BI00B32J1    396263         202208017298-1868-80             HOUSING FEMALE ASS'Y     CCN000007200000007200FN00000000020220801000007200NNM   20220708121350    4N0N  00000240000001028600001243532J1    UKYEL-BL005500360039
BI00B32J1    396263         202208017298-1869-30             HOUSING FEMALE ASS'Y     CCN000062400000062400FN00000000020220801000062400NNM   20220708121350    4N0N  00000120000000737000000939832J1    UKYEL-BL005500360039
BI00B32J1    396263         202208017298-2278-30             HOUSING FEMALE ASS'Y     CCN000009600000009600FN00000000020220801000009600NNM   20220708121350    4N0N  00000240000001091700001295432J1    UKYEL-BL005500360039
BI00B32J1    396263         202208017298-2507-30             HOUSING FEMALE ASS'Y     CCN000003600000003600FN00000000020220801000003600NNM   20220708121350    4N0N  00000120000000713200000914532J1    UKYEL-BL005500360039
BI00B32J1    396263         202208017298-2508-30             HOUSING FEMALE ASS'Y     CCN000003600000003600FN00000000020220801000003600NNM   20220708121350    4N0N  00000120000000822000001005032J1    UKYEL-BL005500360039
BI00B32J1    396263         202208017298-2509-30             HOUSING FEMALE ASS'Y     CCN000007200000007200FN00000000020220801000007200NNM   20220708121350    4N0N  00000120000000857500001062532J1    UKYEL-BL005500360039
BI00B32J1    396263         202208017327-6654-3W             BATTERY FUSE             CCN000000864000000864FN00000000020220801000000864NNM   20220708121350    4N0N  00000009600001132300001312432J1    UKYEL-BL005500360039
BI00B32J1    #396263        202208017047-5344                RETAINER                 CCN000040000000040000FN00000000020220801000040000NNM   20220708121350    2F0F  00001000000000870000001016032J1    UKYEL-BL005600390023
BI00B32J1    #396263        202208017134-4547-30             COVER                    CCN000002500000002500FN00000000020220801000002500NNM   20220708121350    2F0F  00000250000000989000001156732J1    UKYEL-BL005600390040
BI00B32J1    #396263        202208017147-8717-30             CLIP                     CCN000005000000005000FN00000000020220801000005000NNM   20220708121350    2F0F  00000500000000660000000875032J1    UKYEL-BL005600390040
BI00B32J1    #396263        202208017158-3120-90             CONNECTOR WIRE SEAL      CCN000040000000040000FN00000000020220801000040000NNM   20220708121350    2C0C  00002000000000136000000194032J1    UKYEL-BL002700430014
BI00B32J1    #396263        202208017282-3243-40             CONNECTOR                CCN000010400000010400FN00000000020220801000010400NNM   20220708121350    2N0N  00000080000001006000001282332J1    UKYEL-BL005600390040
BI00B32J1    #396263        202208017282-4192-40             CONNECTOR                CCN000007920000007920FN00000000020220801000007920NNM   20220708121350    2N0N  00000024000000801000001083732J1    UKYEL-BL005600390040
BI00B32J1    #396263        202208017282-6446-40             CONNECTOR                CCN000003000000003000FN00000000020220801000003000NNM   20220708121350    2N0N  00000150000001185000001368032J1    UKYEL-BL005500360039
BI00B32J1    #396263        202208017282-6457-40             CONNECTOR                CCN000005600000005600FN00000000020220801000005600NNM   20220708121350    2N0N  00000080000001137000001421332J1    UKYEL-BL005600390040
BI00B32J1    #396263        202208017297-1907-30             HOUSING MALE ASS'Y       CCN000004500000004500FN00000000020220801000004500NNM   20220708121350    2N0N  00000150000000451800000568032J1    UKYEL-BL005400370024
BI00B32J1    396327         202208227116-4486-02             TERMINAL                 CCN000056000000056000FN00000000020220801000056000NNE   20220708121350    4P0P  00002800000000666400000995132J1    UKYEL-BL006400630017
BI00B32J1    396327         202208227158-3006-90             RUBBER STOPPER           CCN000100000000100000FN00000000020220801000100000NNE   20220708121350    1C0C  00002000000000330600000386032J1    UKYEL-BL002700430014
BI00B32J1    396327         202208227158-3070-80             RUBBER STOPPER           CCN000120000000120000FN00000000020220801000120000NNE   20220708121350    1C0C  00004000000000276000000333332J1    UKYEL-BL002700430014
BI00B32J1    396327         202208227158-3165-90             WIRE SEAL                CCN000160000000160000FN00000000020220801000160000NNE   20220708121350    1C0C  00004000000000124000000172432J1    UKYEL-BL004300270014
BI00B32J1    #396327        202208227158-3120-90             CONNECTOR WIRE SEAL      CCN000040000000040000FN00000000020220801000040000NNE   20220708121350    2C0C  00002000000000136000000194032J1    UKYEL-BL002700430014
BI00B32J1    #396327        202208227158-3376-50             CONNECTOR WIRE SEAL      CCN000040000000040000FN00000000020220801000040000NNE   20220708121350    2C0C  00002000000000184000000240732J1    UKYEL-BL002700430014
BI00B32J1    #396327        202208227183-7725-40             HOUSING                  CCN000024000000024000FN00000000020220801000024000NNE   20220708121350    2F0F  00000600000000840000001040032J1    UKYEL-BL005600390040
BI00B32J1    396329         202209127114-4031                TERMINAL                 CCN000010500000010500FN00000000020220901000010500NNE   20220708121350    4P0P  00001050000000966000001294632J1    UKYEL-BL006400630017
BI00B32J1    396328         202208297116-4020                TERMINAL                 CCN000013500000013500FN00000000020220801000013500NNE   20220708121350    4P0P  00001350000000513000000798232J1    UKYEL-BL006400630015
BI00B32K8    #K1220011306   202207227137-2719-50             SEALED CONNECTOR         CCN000030000000015000FN00000000020220801000015000NNMD0420220708150832    2C0C  00000100000000120700000185732K8    ELELCOM 002700430014
BI00B32K8    #K1220011307   202210287137-2719-50             SEALED CONNECTOR         CCN000005000000005000FN00000000020221001000005000NNMD0420220708150903    2C0C  00000100000000120700000185732K8    ELELCOM 002700430014
BI00B32K8    #K1220011339   202211257137-2717-50             SEALED CONNECTOR         CCN000016000000016000FN00000000020221101000016000NNMD0420220708150932    2C0C  00000400000000212800000284032K8    ELELCOM 002700430014
BI00B32K8    #K1220011306   202209237137-2719-50             SEALED CONNECTOR         CCN000015000000015000FN00000000020220801000015000NNMD0420220708150837    2C0C  00000100000000120700000185732K8    ELELCOM 002700430014
BI00B32M1    #TCV208B       202207217286-1917                CONNECTOR MALE ASS'Y     CCN000001200000001200FN00000000020220801000001200NNE   20220708121350    2N0N  00000120000000967000001167832M1    VNYEV   005500360039
BI00A32M3    SM22083HMW     202207117388-0317-60             CONNECTOR ASS'Y          CCN000003600000003600FN00000000020220801000003600NNMM0020220708121350    4N0N  00000120000001034400001129332M3    SASAMI  005400370024
BI00B32M3    SM2208AEMW     202207287196-0648-02             TERMINAL                 CCN000015000000015000FN00000000020220801000015000NNE   20220708154440    4P0P  00001500000000355500000689732M3    SASAMI  006400630015
BI00B32M3    SM2208AEMW     202207287289-7212-30             HOUSING FEMALE ASS'Y     CCN000001200000001200FN00000000020220801000001200NNE   20220708154440    4N0N  00000024000001388400001593432M3    SASAMI  005500360039
BI00B32M3    SM2208AEMW     202207287289-7213-30             HOUSING FEMALE ASS'Y     CCN000000240000000240FN00000000020220801000000240NNE   20220708154440    4N0N  00000024000001352800001667832M3    SASAMI  005500360039
BI00B32M3    #SM2208AEMW    202207287174-1315-30             SEALED COVER             CCN000000800000000800FN00000000020220801000000800NNE   20220708154438    2F0F  00000080000000782000000902032M3    SASAMI  005500360039
BI00B32M3    #SM2208AEMW    202207287183-7725-40             HOUSING                  CCN000006000000006000FN00000000020220801000006000NNE   20220708154438    2F0F  00000600000000840000001040032M3    SASAMI  005600390040
BI00B32M3    SM2208AHMW     202207287B72-5540-80             SEALED WIRE SEAL         CCN000020000000020000FN00000000020220801000020000NNE   20220708154451    1C0C  00002000000000186000000234432M3    SASAMI  004300270014
BI00B32M3    SM2208AHMW     202207287C89-6868-30             SEALED ASSY FEMALE       CCN000002520000002520FN00000000020220801000002520NNE   20220708154451    4N0N  00000252000000839200001119232M3    SASAMI  005500360039
BI00B32M3    SM2208AHMW     202207287158-3168-80             SEALED                   CCN000020000000020000FN00000000020220801000020000NNE   20220708154451    1C0C  00002000000000044000000092132M3    SASAMI  004300260014
BI00B32M3    SM2208AHMW     202207287298-4094-10             HOUSING FEMALE ASS'Y     CCN000006760000006760FN00000000020220801000006760NNE   20220708154451    4N0N  00000338000001097400001358732M3    SASAMI  005400370024
BI00B32M3    SM2208AHMW     202207287327-6533-3W             BATTERY FUSE             CCN000001440000001440FN00000000020220801000001440NNE   20220708154451    4N0N  00000007200001230100001422632M3    SASAMI  005500360039
BI00B32M3    SM2208AHMW     202207287388-0313-30             CONNECTOR ASS'Y          CCN000006000000006000FN00000000020220801000006000NNE   20220708154451    4N0N  00000120000000995000001125032M3    SASAMI  005400370024
BI00B32M3    SM2208AHMW     202207287388-0316-80             CONNECTOR ASS'Y          CCN000004800000004800FN00000000020220801000004800NNE   20220708154451    4N0N  00000120000001002500001132532M3    SASAMI  005400370024
BI00B32M3    SM2208AHMW     202207287388-0317-60             CONNECTOR ASS'Y          CCN000003600000003600FN00000000020220801000003600NNE   20220708154451    4N0N  00000120000001034400001129332M3    SASAMI  005400370024
BI00B32M3    #SM2208AHMW    202207287188-0149                HLC HOUSING MALE         CCN000004500000004500FN00000000020220801000004500NNE   20220708154450    2F0F  00000090000000809100000923832M3    SASAMI  005400370024
BI00B32M3    #SM2208AHMW    202207287287-8860                HOUSING FEMALE ASS'Y     CCN000012800000012800FN00000000020220801000012800NNE   20220708154450    2N0N  00000160000000693400000853432M3    SASAMI  005400370024
BI00B32M3    #SM2208AHMW    202207287287-8861                HOUSING FEMALE ASS'Y     CCN000009600000009600FN00000000020220801000009600NNE   20220708154450    2N0N  00000160000000769000000929032M3    SASAMI  005400370024
BI00B32M3    #SM2208ARMW    202207287137-3319-90             SEALED PACKING           CCN000005000000005000FN00000000020220801000005000NNE   20220708154512    2H0H  00000100000000498000000555132M3    SASAMI  004300270014
BI00B32M3    #SM2208ARMW    202207287172-5937-90             SEAL RUBBER              CCN000010000000010000FN00000000020220801000010000NNE   20220708154512    2H0H  00000100000000620000000666832M3    SASAMI  004300270014
BI00B32M3    #SM2208ARMW    202207287185-1495                HOUSING                  CCN000003696000003696FN00000000020220801000003696NNE   20220708154512    2F0F  00000008400000903800001005532M3    SASAMI  005500360039
BI00B32M3    #SM2208ARMW    202207287185-1496                HOUSING                  CCN000003500000003500FN00000000020220801000003500NNE   20220708154512    2F0F  00000014000000997300001237932M3    SASAMI  005500360039
BI00B32M3    #SM2208ARMW    202207287185-9192                FRONT HOLDER             CCN000003600000003600FN00000000020220801000003600NNE   20220708154512    2F0F  00000030000000527700000808532M3    SASAMI  005500360039
BI00B32M3    #SM2208ARMW    202207287185-9193                REAR HOLDER              CCN000005940000005940FN00000000020220801000005940NNE   20220708154512    2F0F  00000066000000500900000855032M3    SASAMI  005400370024
BI00B32M3    #SM2208ARMW    202207287185-9194                FRONT HOLDER             CCN000002000000002000FN00000000020220801000002000NNE   20220708154512    2F0F  00000100000000551500000674232M3    SASAMI  005400370024
BI00B32M3    #SM2208ARMW    202207287185-9195-40             REAR HOLDER              CCN000004000000004000FN00000000020220801000004000NNE   20220708154512    2F0F  00000100000000692200000815232M3    SASAMI  005400370024
BI00B32M3    SM2208BDMW     202207287114-4728-08             TERMINAL                 CCN000060000000060000FN00000000020220801000060000NNE   20220708154530    4P0P  00003000000000507000000801232M3    SASAMI  006400630015
BI00B32M3    SM2208BDMW     202207287114-4729-08             TERMINAL                 CCN000030000000030000FN00000000020220801000030000NNE   20220708154530    4P0P  00003000000000522000000816232M3    SASAMI  006400630015
BI00B32M3    SM2208BDMW     202207287116-3153-08             TERMINAL                 CCN000027000000027000FN00000000020220801000027000NNE   20220708154530    4P0P  00002700000000461700000746932M3    SASAMI  006400630015
BI00B32M3    SM2208BDMW     202207287116-3154-08             TERMINAL                 CCN000135000000135000FN00000000020220801000135000NNE   20220708154530    4P0P  00002700000000475200000760432M3    SASAMI  006400630015
BI00B32M3    SM2208BDMW     202207287137-3047-30             UNIT PACKING             CCN000005000000005000FN00000000020220801000005000NNE   20220708154530    1C0C  00000100000000170500000218932M3    SASAMI  002700430014
BI00B32M3    SM2208BDMW     202207287172-5403-30             SEALED PACKING           CCN000008000000008000FN00000000020220801000008000NNE   20220708154530    1C0C  00000400000000653600000701732M3    SASAMI  004300270014
BI00B32M3    SM2208BDMW     202207287282-4578                HOUSING MALE ASS'Y       CCN000002400000002400FN00000000020220801000002400NNE   20220708154530    4N0N  00000120000000782600000992632M3    SASAMI  005500360039
BI00B32M3    SM2208BDMW     202207287283-4576-90             HOUSING FEMALE ASS'Y     CCN000004800000004800FN00000000020220801000004800NNE   20220708154530    4N0N  00000480000000651300000871332M3    SASAMI  005500360039
BI00B32M3    SM2208BDMW     202207287283-4577                CONNECTOR HOUSING        CCN000009600000009600FN00000000020220801000009600NNE   20220708154530    4N0N  00000480000000916800001136832M3    SASAMI  005500360039
BI00B32M3    SM2208BMMW     202207287283-1288-10             CONNECTOR HOUSING        CCN000002400000002400FN00000000020220801000002400NNE   20220708154543    1N0N  00000120000001381000001637032M3    SASAMI  005600390040
BI00B32M3    @SM2208BMMW    202207287183-8049                CONNECTOR HOUSING        CCN000004000000004000FN00000000020220801000004000NNE   20220708154542    3F0F  00000400000000583600000740032M3    SASAMI  005400370024
BI00B32M3    SM2208C MW     202207287114-4020                TERMINAL                 CCN000021000000021000FN00000000020220801000021000NNE   20220708154557    4P0P  00002100000000875700001169332M3    SASAMI  006400630015
BI00B32M3    SM2208C MW     202207287114-4021                TERMINAL                 CCN000015000000015000FN00000000020220801000015000NNE   20220708154557    4P0P  00001500000000670500000964132M3    SASAMI  006400630015
BI00B32M3    SM2208C MW     202207287114-4729-02             TERMINAL                 CCN000030000000030000FN00000000020220801000030000NNE   20220708154557    4P0P  00003000000000516000000810232M3    SASAMI  006400630015
BI00B32M3    SM2208C MW     202207287114-5747-02             TERMINAL                 CCN000018000000018000FN00000000020220801000018000NNE   20220708154557    4P0P  00001800000000626400000920032M3    SASAMI  006400630015
BI00B32M3    SM2208C MW     202207287114-5748-02             TERMINAL                 CCN000012000000012000FN00000000020220801000012000NNE   20220708154557    4P0P  00001200000000444000000737632M3    SASAMI  006400630015
BI00B32M3    SM2208C MW     202207287114-6041                TERMINAL                 CCN000007200000007200FN00000000020220801000007200NNE   20220708154557    4P0P  00000360000000580700000824232M3    SASAMI  006400630015
BI00B32M3    SM2208C MW     202207287116-1685-02             TERMINAL                 CCN000312000000312000FN00000000020220801000312000NNE   20220708154557    4P0P  00002400000000897600001065232M3    SASAMI  005100280028
BI00B32M3    SM2208C MW     202207287116-1686-02             TERMINAL                 CCN000063000000063000FN00000000020220801000063000NNE   20220708154557    4P0P  00002100000000869400001021632M3    SASAMI  005100280028
BI00B32M3    SM2208C MW     202207287116-2640                TERMINAL                 CCN000018000000018000FN00000000020220801000018000NNE   20220708154557    4P0P  00001800000001018800001196632M3    SASAMI  005100280028
BI00B32M3    SM2208C MW     202207287116-2641                TERMINAL                 CCN000018000000018000FN00000000020220801000018000NNE   20220708154557    4P0P  00001800000001161000001344632M3    SASAMI  005100280028
BI00B32M3    SM2208C MW     202207287116-4028-08             TERMINAL FEMALE          CCN000016000000016000FN00000000020220801000016000NNE   20220708154557    4P0P  00001600000000652800000981532M3    SASAMI  006400630017
BI00B32M3    SM2208C MW     202207287116-4032                TERMINAL                 CCN000006000000006000FN00000000020220801000006000NNE   20220708154557    4P0P  00000600000000532800000818032M3    SASAMI  006400630015
BI00B32M3    SM2208C MW     202207287116-4037                TERMINAL                 CCN000018000000018000FN00000000020220801000018000NNE   20220708154557    4P0P  00000600000000600000000894232M3    SASAMI  006400630015
BI00B32M3    SM2208C MW     202207287116-4114-02             TERMINAL                 CCN000021000000021000FN00000000020220801000021000NNE   20220708154557    4P0P  00001050000000693000000981232M3    SASAMI  006400630015
BI00B32M3    SM2208C MW     202207287116-4231-02             TERMINAL                 CCN000182000000182000FN00000000020220801000182000NNE   20220708154557    4P0P  00002600000000683800001012532M3    SASAMI  006400630017
BI00B32M3    SM2208C MW     202207287116-4415-02             TERMINAL                 CCN000342000000342000FN00000000020220801000342000NNE   20220708154557    4P0P  00003800000000596600000925732M3    SASAMI  006400630017
BI00B32M3    SM2208C MW     202207287116-4416-02             TERMINAL                 CCN000032000000032000FN00000000020220801000032000NNE   20220708154557    4P0P  00003200000000518400000847132M3    SASAMI  006400630017
BI00B32M3    SM2208C MW     202207287116-5044-02             TERMINAL                 CCN000048000000048000FN00000000020220801000048000NNE   20220708154557    4P0P  00001600000000641600000986332M3    SASAMI  006400630017
BI00B32M3    SM2208C MW     202207287116-6041                TERMINAL                 CCN000009000000009000FN00000000020220801000009000NNE   20220708154557    4P0P  00000450000000716000001009632M3    SASAMI  006400630015
BI00B32M3    SM2208C MW     202207287116-6042                TERMINAL                 CCN000009000000009000FN00000000020220801000009000NNE   20220708154557    4P0P  00000300000000523800000856132M3    SASAMI  006400630015
BI00B32M3    SM2208C MW     202207287126-8853-02             TERMINAL                 CCN000097500000097500FN00000000020220801000097500NNE   20220708154557    4P0P  00000750000000562500000847732M3    SASAMI  006400630015
BI00B32M3    SM2208C MW     202207287126-8854-02             TERMINAL                 CCN000045000000045000FN00000000020220801000045000NNE   20220708154557    4P0P  00000750000000604500000889732M3    SASAMI  006400630015
BI00B32M3    SM2208C MW     202207287126-8855-02             TERMINAL                 CCN000060000000060000FN00000000020220801000060000NNE   20220708154557    4P0P  00000600000000510600000795832M3    SASAMI  006400630015
BI00B32M3    SM2208C MW     202207287158-3006-90             RUBBER STOPPER           CCN000040000000040000FN00000000020220801000040000NNE   20220708154557    1C0C  00002000000000330600000386032M3    SASAMI  002700430014
BI00B32M3    SM2208C MW     202207287158-3009-60             RUBBER STOPPER           CCN000020000000020000FN00000000020220801000020000NNE   20220708154557    1C0C  00002000000000338000000386232M3    SASAMI  002700430014
BI00B32M3    SM2208C MW     202207287158-3165-90             WIRE SEAL                CCN000080000000080000FN00000000020220801000080000NNE   20220708154557    1C0C  00004000000000124000000172432M3    SASAMI  004300270014
BI00B32M3    SM2208C MW     202207287282-4577                HOUSING MALE ASS'Y       CCN000012000000012000FN00000000020220801000012000NNE   20220708154557    4N0N  00000240000000964800001174832M3    SASAMI  005500360039
BI00B32M3    SM2208C MW     202207287283-7526-40             CONNECTOR HOUSING        CCN000005880000005880FN00000000020220801000005880NNE   20220708154557    4N0N  00000196000000989800001248632M3    SASAMI  005500360039
BI00B32M3    SM2208C MW     202207287286-3885                CONNECTOR MALE ASS'Y     CCN000004800000004800FN00000000020220801000004800NNE   20220708154557    1N0N  00000120000000910600001130632M3    SASAMI  005500360039
BI00B32M3    #SM2208C MW    202207287158-3015-10             RUBBER STOPPER           CCN000050000000050000FN00000000020220801000050000NNE   20220708154554    2C0C  00001000000000419500000474032M3    SASAMI  002700430014
BI00B32M3    #SM2208C MW    202207287158-3017                RUBBER STOPPER           CCN000010000000010000FN00000000020220801000010000NNE   20220708154554    2C0C  00001000000000375500000435032M3    SASAMI  002700430014
BI00B32M3    #SM2208C MW    202207287187-8856                HOUSING FEMALE           CCN000020000000020000FN00000000020220801000020000NNE   20220708154554    2F0F  00000200000000820000000931532M3    SASAMI  005400370024
BI00B32M3    #SM2208C MW    202207287189-0149                HLC HOUSING FEMALE       CCN000004000000004000FN00000000020220801000004000NNE   20220708154554    2F0F  00000200000000970000001078532M3    SASAMI  005400370024
BI00B32M3    @SM2208C MW    202207287283-1100                CONNECTOR ASS'Y          CCN000001600000001600FN00000000020220801000001600NNE   20220708154555    3N0N  00000160000000566500000799632M3    SASAMI  005500360039
BI00B32M4    #TL2083B       202207217198-4980-30             HOUSING FEMALE           CCN000006000000004800FN00000000020220801000004800NNEQ0020220708121350    2F0F  00000120000000840000000921032M4    SISAI   005400370024
BI00A32M4    #TL2083B       202207117198-4980-30             HOUSING FEMALE           CCN000001200000001200FN00000000020220801000001200NNEM0020220708121350    2F0F  00000120000000840000000921032M4    SISAI   005400370024
BI00A32P8    #TAPI-206V3    202207127282-3243-40             CONNECTOR                CCN000000800000000800FY00000080020220601000000000NNEM0020220708143341    2N0N  00000080000001006000001282332P8    YIYTM   005600390040
BI00B32R7    R-TAP220288    202208257298-1186-40             SQUIB SUB ASS'Y          CCN000020000000020000FN00000000020220801000020000NNED0220220708153138    4N0N  00001000000000650000000774532R7    IVYCIC  005400370024
BI00B32R7    R-TAP220288    202208047298-1186-70             SQUIB SUB ASS'Y          CCN000020000000020000FN00000000020220801000020000NNED0220220708153159    4N0N  00001000000000650000000774532R7    IVYCIC  005400370024
BI00B32R7    R-TAP220291    202207147116-4022                TERMINAL                 CCN000013500000013500FN00000000020220701000013500NNED0720220708121350    4P0P  00001350000000618300000903532R7    IVYCIC  006400630015
BI00B32R7    R-TAP220292    202207147116-1486-02             TERMINAL                 CCN000016500000016500FN00000000020220701000016500NNED0720220708121350    4P0P  00001650000000655100000940332R7    IVYCIC  006400630015
BI00B32R7    R-TAP220292    202207147116-1686-02             TERMINAL                 CCN000021000000021000FN00000000020220701000021000NNED0720220708121350    4P0P  00002100000000869400001021632R7    IVYCIC  005100280028
BI00B32R7    R-TAP220293    202207147116-1473                TERMINAL                 CCN000013500000013500FN00000000020220701000013500NNED0720220708121350    4P0P  00001350000000523800000809032R7    IVYCIC  006400630015
BI00B32R7    R-TAP220293    202207147116-1486-02             TERMINAL                 CCN000016500000016500FN00000000020220701000016500NNED0720220708121350    4P0P  00001650000000655100000940332R7    IVYCIC  006400630015
BI00B32R7    #R-TAP220294   202207217186-8845-60             HOUSING MALE             CCN000006000000006000FN00000000020220801000006000NNE   20220708121350    2F0F  00000300000000690000000801532R7    IVYCIC  005400370024
BI00B32U5    DI2033         202207227296-1025-02             TERMINAL ALUMINIUM       CCN000018000000000000FY00000000020220901000000000NNMQ0820220708130348U5  4P0P  00001800000000635400000920632U5    AMAMSD  006400630015
BI00B32W2    HN22091WMW     202208097C89-6868-30             SEALED ASSY FEMALE       CCN000025200000025200FN00000000020220901000025200NNMD0420220708154846    4N0N  00000252000000839200001119232W2    HNHNY   005500360039
BI00B32W2    HN22092WMW     202208167C89-6868-30             SEALED ASSY FEMALE       CCN000012600000012600FN00000000020220901000012600NNMD0420220708154908    4N0N  00000252000000839200001119232W2    HNHNY   005500360039
BI00B32W2    HN22093WMW     202208237C89-6868-30             SEALED ASSY FEMALE       CCN000002520000002520FN00000000020220901000002520NNMD0420220708154925    4N0N  00000252000000839200001119232W2    HNHNY   005500360039
BI00B32W2    HN22094WMW     202208307C89-6868-30             SEALED ASSY FEMALE       CCN000015120000015120FN00000000020220901000015120NNMD0420220708154940    4N0N  00000252000000839200001119232W2    HNHNY   005500360039
BI00B32W4    4500188262     202207187158-3167-80             WIRE SEAL                CCN001000000001000000FN00000000020220601001000000NNE00020220708121350W4561C0C  00002000000000048000000109032W456  HJYHK   002700430014
BI00B32W4    4500196434     202208047327-6581-3W             BATTERY FUSE             CCN000001080000001080FN00000000020220801000001080NNE   20220708121350W4D44N0N  00000007200001230000001422532W4D4  HJYHK-J 005500360039
BI00B32W4    4500196434     202208047388-0313-30             CONNECTOR ASS'Y          CCN000001200000001200FN00000000020220801000001200NNE   20220708121350W4D44N0N  00000120000000995000001125032W4D4  HJYHK-J 005400370024
BI00B32W4    4500196434     202208047470-5237                J/B ASS'Y                CCN000001824000001824FN00000000020220801000001824NNE   20220708121350W4D41J0J  00000002400001320000001570032W4D4  HJYHK-J 005500360039
BI00B32W4    4500196434     202208047327-6424-4W             BATTERY FUSE             CCN000002784000002784FN00000000020220801000002784NNE   20220708121350W4D44N0N  00000009600001109500001259632W4D4  HJYHK-J 005400370024
BI00B32W4    4500196434     202208047388-2978-30             HOUSING MALE ASS'Y       CCN000002880000002880FN00000000020220801000002880NNE   20220708121350W4D41N0N  00000048000000742000001122032W4D4  HJYHK-J 005500360039
BI00B32W4    4500196434     202208047288-6547                CONNECTOR MALE ASS'Y     CCN000003000000003000FN00000000020220801000003000NNE   20220708121350W4D44N0N  00000075000001205300001340332W4D4  HJYHK-J 005400370024
BI00B32W4    4500196434     202208047282-8120-40             CONNECTOR HOUSING        CCN000003000000003000FN00000000020220801000003000NNE   20220708121350W4D41N0N  00000300000001356000001520032W4D4  HJYHK-J 005500360039
BI00B32W4    4500196434     202208047287-9323                UNSEALED HOUSING SUB     CCN000007200000007200FN00000000020220801000007200NNE   20220708121350W4D41N0N  00000240000000537600000690032W4D4  HJYHK-J 005600390023
BI00B32W4    4500196434     202208047289-6868-30             SEALED ASSY FEMALE       CCN000020160000020160FN00000000020220801000020160NNE   20220708121350W4D44N0N  00000252000000839200001119232W4D4  HJYHK-J 005500360039
BI00B32W4    4500196434     202208047196-0805-02             TERMINAL FEMALE          CCN000022500000022500FN00000000020220801000022500NNE   20220708121350W4D44P0P  00002250000000558000000843232W4D4  HJYHK-J 006400630015
BI00B32W4    4500196434     202208047298-4094-10             HOUSING FEMALE ASS'Y     CCN000023660000023660FN00000000020220801000023660NNE   20220708121350W4D44N0N  00000338000001097400001358732W4D4  HJYHK-J 005400370024
BI00B32W4    4500196434     202208047172-5540-80             SEALED WIRE SEAL         CCN000060000000060000FN00000000020220801000060000NNE   20220708121350W4D41C0C  00002000000000186000000234432W4D4  HJYHK-J 004300270014
BI00B32W4    4500196434     202208047116-1685-02             TERMINAL                 CCN000240000000240000FN00000000020220801000240000NNE   20220708121350W4D44P0P  00002400000000897600001065232W4D4  HJYHK-J 005100280028
BI00B32W4    #4500196434    202208047189-2978-30             HOUSING FEMALE           CCN000004500000004500FN00000000020220801000004500NNE   20220708121350W4D42F0F  00000150000000966900001096932W4D4  HJYHK-J 005400370024
BI00B32W4    4500196452     202207217114-6041                TERMINAL                 CCN000014400000014400FN00000000020220701000014400NNE   20220708121350W4514P0P  00000360000000580700000824232W451  HJ32W9  006400630015
BI00B32W4    4500196452     202207217116-4022                TERMINAL                 CCN000270000000270000FN00000000020220701000270000NNE   20220708121350W4514P0P  00001350000000618300000903532W451  HJ32W9  006400630015
BI00B32W4    4500196452     202207217116-4026                TERMINAL                 CCN000096000000096000FN00000000020220701000096000NNE   20220708121350W4514P0P  00001600000000664000000994332W451  HJ32W9  006400630017
BI00B32W4    4500196452     202207217116-4231-02             TERMINAL                 CCN001274000001274000FN00000000020220701001274000NNE   20220708121350W4514P0P  00002600000000683800001012532W451  HJ32W9  006400630017
BI00B32W4    4500196452     202207217116-6041                TERMINAL                 CCN000099000000099000FN00000000020220701000099000NNE   20220708121350W4514P0P  00000450000000716000001009632W451  HJ32W9  006400630015
BI00B32W4    4500196452     202207217283-1020                CONNECTOR                CCN000006000000006000FN00000000020220701000006000NNE   20220708121350W4514N0N  00000600000000840000001049332W451  HJ32W9  005600390040
BI00B32W4    4500196452     202207217283-1927-30             CONNECTOR                CCN000002000000002000FN00000000020220701000002000NNE   20220708121350W4514N0N  00000200000001190000001368032W451  HJ32W9  005500360039
BI00B32W4    #4500196452    202207217157-3821                RUBBER STOPPER           CCN000040000000040000FN00000000020220701000040000NNE   20220708121350W4512C0C  00002000000000176000000238032W451  HJ32W9  002700430014
BI00B32W4    @4500196452    202207217183-8049                CONNECTOR HOUSING        CCN000020000000020000FN00000000020220701000020000NNE   20220708121350W4513F0F  00000400000000583600000740032W451  HJ32W9  005400370024
BI00B32W4    @4500196452    202207217283-3030                HOUSING FEMALE ASS'Y     CCN000016000000016000FN00000000020220701000016000NNE   20220708121350W4513N0N  00000160000001056300001275032W451  HJ32W9  005500360039
BI00A32W4    4500196483     202209057116-4026                TERMINAL                 CCN000016000000016000FN00000000020220901000016000NNE   20220708121350W4424P0P  00001600000000664000000994332W442  HJYHK   006400630017
BI00A32W4    4500196483     202209057116-4100-02             TERMINAL                 CCN000015000000015000FN00000000020220901000015000NNE   20220708121350W4424P0P  00001500000000696000000990232W442  HJYHK   006400630015
BI00A32W4    #4500196483    202209057183-7725-40             HOUSING                  CCN000006000000006000FN00000000020220901000006000NNE   20220708121350W4422F0F  00000600000000840000001040032W442  HJYHK   005600390040
BI00A32W4    4500196481     202207277116-4231-02             TERMINAL                 CCN000130000000130000FN00000000020220701000130000NNE   20220708121350W4334P0P  00002600000000683800001012532W433  HJYHK   006400630017
BI00A32W4    4500196481     202207277114-4100-02             TERMINAL                 CCN000018000000018000FN00000000020220701000018000NNE   20220708121350W4334P0P  00001800000000748800001077432W433  HJYHK   006400630017
BI00A32W4    #4500196481    202207277282-8395-40             CONNECTOR                CCN000010000000010000FN00000000020220701000010000NNE   20220708121350W4332N0N  00000100000001009000001188032W433  HJYHK   005500360039
BI00A32W4    4500196433     202209087114-4112-02             TERMINAL                 CCN000027000000027000FN00000000020220901000027000NNE   20220708121350W4144P0P  00000900000000598500000927132W414  HJYHK   006400630017
BI00A32W4    4500196433     202209087116-4112-02             TERMINAL                 CCN000006000000006000FN00000000020220901000006000NNE   20220708121350W4144P0P  00000600000000450000000738232W414  HJYHK   006400630015
BI00A32W4    4500196433     202209087116-4110-02             TERMINAL                 CCN000009000000009000FN00000000020220901000009000NNE   20220708121350W4144P0P  00000900000000594000000882232W414  HJYHK   006400630015
BI00B32W4    #4500196495    202208187282-4190-30             CONNECTOR                CCN000002160000002160FN00000000020220801000002160NNE   20220708121350W4P72N0N  00000024000000801000001071332W4P7  HJYHK   005600390040
BI00B32W4    #4500196495    202208187283-4190-30             CONNECTOR                CCN000001200000001200FN00000000020220801000001200NNE   20220708121350W4P72N0N  00000024000000846000001115532W4P7  HJYHK   005600390040
BI00B32W4    4500196497     202209017116-4100-02             TERMINAL                 CCN000030000000030000FN00000000020220901000030000NNE   20220708121350W4P74P0P  00001500000000696000000990232W4P7  HJYHK   006400630015
BI00B32W4    #4500196497    202209017283-4190-30             CONNECTOR                CCN000000960000000960FN00000000020220901000000960NNE   20220708121350W4P72N0N  00000024000000846000001115532W4P7  HJYHK   005600390040
BI00B32W4    4500196502     202209157116-4100-02             TERMINAL                 CCN000015000000015000FN00000000020220901000015000NNE   20220708121350W4P74P0P  00001500000000696000000990232W4P7  HJYHK   006400630015
BI00B32W4    4500196502     202209157116-4111-02             TERMINAL                 CCN000015000000015000FN00000000020220901000015000NNE   20220708121350W4P74P0P  00000750000000529500000817732W4P7  HJYHK   006400630015
BI00A32W4    4500196501     202208227283-5548-30             CONNECTOR                CCN000003000000003000FN00000000020220801000003000NNE   20220708121350W4G34N0N  00000150000001109000001302032W4G3  HJYHK-J 005600390040
BI00A32W4    4500196501     202208227116-4124-02             TERMINAL                 CCN000003000000003000FN00000000020220801000003000NNE   20220708121350W4G34P0P  00000300000000459900000753532W4G3  HJYHK-J 006400630015
BI00B32W4    4500196500     202209017298-1865-30             HOUSING FEMALE ASS'Y     CCN000002400000002400FN00000000020220901000002400NNE   20220708121350W4284N0N  00000240000001003200001204532W428  HJYHK   005500360039
BI00B32W4    4500196500     202209017116-2951-02             TERMINAL                 CCN000005400000005400FN00000000020220901000005400NNE   20220708121350W4284P0P  00000540000000817600001111832W428  HJYHK   006400630015
BI00A32W4    4500196482     202208297116-4112-02             TERMINAL                 CCN000006000000006000FN00000000020220801000006000NNE   20220708121350W4424P0P  00000600000000450000000738232W442  HJYHK   006400630015
BI00A32W4    4500196479     202210177283-1020                CONNECTOR                CCN000006000000006000FN00000000020221001000006000NNE   20220708121350W4P84N0N  00000600000000840000001049332W4P8  HJYHK-J 005600390040
BI00B32W9    #4500193919    202207197157-3950-80             SEAL RUBBER              CCN000040000000040000FN00000000020220801000040000NNED0020220708121350W9  2C0C  00004000000000154000000440332W9    HKYHK   002700430014
BI00B32W9    4500196299     202208307289-6868-30             SEALED ASSY FEMALE       CCN000509040000050400FN00000000020220801000050400NNED0420220708153336W9  4N0N  00000252000000839200001119232W9    HKYHK   005500360039
BI00B32W9    4500196299     202209067289-6868-30             SEALED ASSY FEMALE       CCN000050400000050400FN00000000020220801000050400NNED0420220708153355W9  4N0N  00000252000000839200001119232W9    HKYHK   005500360039
BI00B32W9    4500196299     202209137289-6868-30             SEALED ASSY FEMALE       CCN000050400000050400FN00000000020220801000050400NNED0420220708153412W9  4N0N  00000252000000839200001119232W9    HKYHK   005500360039
BI00B32W9    4500196299     202209207289-6868-30             SEALED ASSY FEMALE       CCN000050400000050400FN00000000020220801000050400NNED0420220708153427W9  4N0N  00000252000000839200001119232W9    HKYHK   005500360039
BI00B32W9    4500196299     202209277289-6868-30             SEALED ASSY FEMALE       CCN000050400000050400FN00000000020220801000050400NNED0420220708153453W9  4N0N  00000252000000839200001119232W9    HKYHK   005500360039
BI00B32W9    4500196299     202210047289-6868-30             SEALED ASSY FEMALE       CCN000050400000050400FN00000000020220801000050400NNED0420220708153510W9  4N0N  00000252000000839200001119232W9    HKYHK   005500360039
BI00B32W9    4500196299     202210117289-6868-30             SEALED ASSY FEMALE       CCN000050400000050400FN00000000020220801000050400NNED0420220708153526W9  4N0N  00000252000000839200001119232W9    HKYHK   005500360039
BI00B32W9    4500196299     202210187289-6868-30             SEALED ASSY FEMALE       CCN000050400000050400FN00000000020220801000050400NNED0420220708153543W9  4N0N  00000252000000839200001119232W9    HKYHK   005500360039
BI00B32W9    4500196299     202210257289-6868-30             SEALED ASSY FEMALE       CCN000050400000050400FN00000000020220801000050400NNED0420220708153613W9  4N0N  00000252000000839200001119232W9    HKYHK   005500360039
BI00B32W9    4500196299     202211017289-6868-30             SEALED ASSY FEMALE       CCN000055440000055440FN00000000020220801000055440NNED0420220708153620W9  4N0N  00000252000000839200001119232W9    HKYHK   005500360039
BI00B32Y2    TAU1232        202208047288-3206                HOUSING MALE ASS'Y       CCN000003060000003060FN00000000020221201000003060NNE   20220708121350    1N0N  00000102000000387600000787632Y2    YUYUY   005500360039
BI00B32Y2    TAU1232        202208047289-3342-30             HOUSING FEMALE ASS'Y     CCN000007200000007200FN00000000020221201000007200NNE   20220708121350    1N0N  00000240000000686400000901432Y2    YUYUY   005500360039
BI00B32Y2    #TAU1232       202208047158-3008-80             RUBBER STOPPER           CCN000040000000040000FN00000000020221201000040000NNE   20220708121350    2C0C  00002000000000288000000343032Y2    YUYUY   004300270014
BI00B32Y8    TAIM2207A      202208107114-4020                TERMINAL                 CCN000021000000021000FN00000000020221001000021000NNM   20220708121350Y8  4P0P  00002100000000875700001169332Y8    CLYCL   006400630015
BI00B32Y8    TAIM2207A      202208107116-1180                TERMINAL                 CCN000019500000019500FN00000000020221001000019500NNM   20220708121350Y8  1P0P  00001950000000618200000903432Y8    CLYCL   006400630015
BI00B32Y8    TAIM2207A      202208107116-1473                TERMINAL                 CCN000013500000013500FN00000000020221001000013500NNM   20220708121350Y8  4P0P  00001350000000523800000809032Y8    CLYCL   006400630015
BI00B32Y8    TAIM2207A      202208107116-2952                TERMINAL                 CCN000005400000005400FN00000000020221001000005400NNM   20220708121350Y8  4P0P  00000540000000773300001067532Y8    CLYCL   006400630015
BI00B32Y8    TAIM2207A      202208107123-7500                CONNECTOR                CCN000000800000000800FN00000000020221001000000800NNM   20220708121350Y8  1F0F  00000080000000710000000896732Y8    CLYCL   005500360039
BI00B32Y8    TAIM2207A      202208107235-8662                DOOR GROMMET             CCN000000800000000800FN00000000020221001000000800NNM   20220708121350Y8  4N0N  00000016000000844000001010032Y8    CLYCL   005500360039
BI00B32Y8    TAIM2207A      202208107286-3970                CONNECTOR HOUSING        CCN000000330000000330FN00000000020221001000000330NNM   20220708121350Y8  1N0N  00000011000000977300001164032Y8    CLYCL   005500360039
BI00B32Y8    TAIM2207A      202208107370-0310                J/B ASS'Y                CCN000000070000000070FN00000000020221001000000070NNM   20220708121350Y8  1J0J  00000001000000559000000809032Y8    CLYCL   005500360039
BI00B32Y8    TAIM2207A      202208107116-5044-02             TERMINAL                 CCN000016000000016000FN00000000020221001000016000NNM   20220708121350Y8  4P0P  00001600000000641600000986332Y8    CLYCL   006400630017
BI00B32Y8    TAIM2207A      202208107140-1977-30             UPPER COVER              CCN000000040000000040FN00000000020221001000000040NNM   20220708121350Y8  1F0F  00000001000000099500000249532Y8    CLYCL   005600390040
BI00B32Y8    TAIM2207A      202208107158-3006-90             RUBBER STOPPER           CCN000060000000060000FN00000000020221001000060000NNM   20220708121350Y8  1C0C  00002000000000330600000386032Y8    CLYCL   002700430014
BI00B32Y8    TAIM2207A      202208107283-1968-30             CONNECTOR                CCN000000900000000900FN00000000020221001000000900NNM   20220708121350Y8  1N0N  00000090000001140000001318332Y8    CLYCL   005600390040
BI00B32Y8    #TAIM2207A     202208107035-2393                GROMMET                  CCN000000300000000300FN00000000020221001000000300NNM   20220708121350Y8  2H0H  00000010000001374000001581732Y8    CLYCL   005600390040
BI00B32Y8    #TAIM2207A     202208107157-7812                SEAL RUBBER              CCN000010000000010000FN00000000020221001000010000NNM   20220708121350Y8  2C0C  00001000000000137000000202032Y8    CLYCL   002700430014
BI00B32Y8    #TAIM2207A     202208107183-1616                CONNECTOR HOUSING        CCN000002400000002400FN00000000020221001000002400NNM   20220708121350Y8  2F0F  00000240000000557500000823332Y8    CLYCL   005500360039
BI00B32Y8    #TAIM2207A     202208107186-3973                CONNECTOR HOUSING        CCN000002400000002400FN00000000020221001000002400NNM   20220708121350Y8  2F0F  00000240000001061800001232932Y8    CLYCL   005500360039
BI00B32Y8    #TAIM2207A     202208107187-3356                JOINT CONNECTOR          CCN000001200000001200FN00000000020221001000001200NNM   20220708121350Y8  2F0F  00000120000000759600001024432Y8    CLYCL   005600390040
BI00B32Y8    #TAIM2207A     202208107187-3970                CONNECTOR FLAME          CCN000000368000000368FN00000000020221001000000368NNM   20220708121350Y8  2F0F  00000036800001414000001737332Y8    CLYCL   005600390040
BI00B32Y8    #TAIM2207A     202208107140-1978-30             LOWER COVER              CCN000000072000000072FN00000000020221001000000072NNM   20220708121350Y8  2F0F  00000000800000207100000395132Y8    CLYCL   005500360039
BI00B32Y8    #TAIM2207A     202208107187-3359-60             JOINT CONNECTOR          CCN000001200000001200FN00000000020221001000001200NNM   20220708121350Y8  2F0F  00000120000000763200001030432Y8    CLYCL   005600390040
BI00B32Y8    #TAIM2207A     202208107187-3976-60             CONNECTOR HOUSING        CCN000002400000002400FN00000000020221001000002400NNM   20220708121350Y8  2F0F  00000240000000902200001073332Y8    CLYCL   005500360039
