BI00A1200    CE22-MN-0090   202208307173-4520                ELEMENT COVER            CCY000000300000000300FN00000000020220901000000300NNED0020220823154840    1F0F  0000006720000000000000000001200    YCYC    000000000000
BI00A1200    CE22-MN-0090   202208307173-4521-30             ELEMENT COVER            CCY000000300000000300FN00000000020220901000000300NNED0020220823154840    1F0F  0000019200000000000000000001200    YCYC    000000000000
BI00A1200    CE22-MN-0098   202209137298-1869-30             HOUSING FEMALE ASS'Y     CCN000001200000001200FN00000000020220901000001200NNE   20220823125028    4N0N  0000012000000073700000093981200    YCYC    005500360039
BI00A1200    #CE22-MN-0098  202209137297-1911-30             HOUSING MALE ASS'Y       CCN000001000000001000FN00000000020220901000001000NNE   20220823125028    2N0N  0000010000000048690000060011200    YCYC    005400370024
BI00B32AG    XG22111CMW     202209167116-1685-02             TERMINAL                 CCN000024000000024000FN00000000020221101000024000NNMD0020220823125028    4P0P  00002400000000897600001065232AG    XGXGY   005100280028
BI00B32AG    XG2211ANMW     202210077158-3165-90             WIRE SEAL                CCN000120000000120000FN00000000020221101000120000NNE   20220823125028    1C0C  00004000000000124000000172432AG    XGXGY   004300270014
BI00B32AG    XG2211ANMW     202210077158-3166-60             WIRE SEAL                CCN000080000000080000FN00000000020221101000080000NNE   20220823125028    1C0C  00004000000000104000000152432AG    XGXGY   002700430014
BI00B32AG    #XG2211BLMW    202210077182-9631-40             JOINT CONNECTOR          CCN000003000000003000FN00000000020221101000003000NNE   20220823125028    2F0F  00000300000001182000001307432AG    XGXGY   005400370024
BI00B32CG    S220636-S      202209077283-9457-3W             CONNECTOR                CCN000006120000006120FN00000000020220901000006120NNED0020220823125028    4N0N  00000012000000515000001067032CG    ASASIACO005600390023
BI00B32CG    S220816        202211237283-9458-30             CONNECTOR                CCN000000800000000800FN00000000020221101000000800NNE   20220823125028    4N0N  00000020000000792000000984332CG    ASASIACO005600390023
BI00B32H2    TIJ2094        202210077298-2278-30             HOUSING FEMALE ASS'Y     CCN000004800000004800FN00000000020220901000004800NNMD0020220823160357    4N0N  00000240000001091700001295432H2    HVYHV   005500360039
BI00B32H2    TIJ2094        202209097388-2978-30             HOUSING MALE ASS'Y       CCN000000480000000480FN00000000020220901000000480NNMD0020220823160659    1N0N  00000048000000742000001122032H2    HVYHV   005500360039
BI00B32H2    TIJ2105        202210217282-0517                HOUSING MALE ASS'Y       CCN000006120000006120FN00000000020221001000006120NNMD0020220823125028    4N0N  00000036000000612000000832032H2    HVYHV   005600390040
BI00B32H2    TIJ2102        202209237287-8073                HOUSING FEMALE ASS'Y     CCN000002400000002400FN00000000020221001000002400NNMD0020220823125028    1N0N  00000240000001166400001386432H2    HVYHV   005500360039
BI00B32H2    TIJ2102        202209237288-3206                HOUSING MALE ASS'Y       CCN000001020000001020FN00000000020221001000001020NNMD0020220823125028    1N0N  00000102000000387600000787632H2    HVYHV   005500360039
BI00B32H2    TIJ2104        202210077298-1869-30             HOUSING FEMALE ASS'Y     CCN000001200000001200FN00000000020221001000001200NNMD0020220823160002    4N0N  00000120000000737000000939832H2    HVYHV   005500360039
BI00B32H2    TIJ2105        202210217298-1869-30             HOUSING FEMALE ASS'Y     CCN000001200000001200FN00000000020221001000001200NNMD0020220823160019    4N0N  00000120000000737000000939832H2    HVYHV   005500360039
BI00B32H2    TIJ2104        202210217298-2278-30             HOUSING FEMALE ASS'Y     CCN000002400000002400FN00000000020221001000002400NNMD0020220823160454    4N0N  00000240000001091700001295432H2    HVYHV   005500360039
BI00B32H2    TIJ2104        202210217298-2509-30             HOUSING FEMALE ASS'Y     CCN000001200000001200FN00000000020221001000001200NNMD0020220823125028    4N0N  00000120000000857500001062532H2    HVYHV   005500360039
BI00B32H2    TIJ2105        202210067298-2509-30             HOUSING FEMALE ASS'Y     CCN000002400000002400FN00000000020221001000002400NNMD0020220823135105    4N0N  00000120000000857500001062532H2    HVYHV   005500360039
BI00B32H2    TIJ2101        202209167388-2978-30             HOUSING MALE ASS'Y       CCN000000960000000960FN00000000020221001000000960NNMD0020220823160729    1N0N  00000048000000742000001122032H2    HVYHV   005500360039
BI00B32H2    TIJ2102        202209307388-2978-30             HOUSING MALE ASS'Y       CCN000000480000000480FN00000000020221001000000480NNMD0020220823160759    1N0N  00000048000000742000001122032H2    HVYHV   005500360039
BI00B32H2    TIJ2103        202210077388-2978-30             HOUSING MALE ASS'Y       CCN000000960000000960FN00000000020221001000000960NNMD0020220823160839    1N0N  00000048000000742000001122032H2    HVYHV   005500360039
BI00B32H2    #TIJ2101       202209027183-2511                HOUSING                  CCN000001600000001600FN00000000020221001000001600NNMD0020220823131811    2F0F  00000160000000972200001242132H2    HVYHV   005500360039
BI00B32H2    #TIJ2102       202210177189-2978-30             HOUSING FEMALE           CCN000001500000001500FN00000000020221001000001500NNMD0020220823131512    2F0F  00000150000000966900001096932H2    HVYHV   005400370024
BI00B32H2    #TIJ2102       202209097282-1214                CONNECTOR                CCN000001000000001000FN00000000020221001000001000NNMD0020220823131831    2N0N  00000100000000900000001030032H2    HVYHV   005500360039
BI00B32H2    #TIJ2102       202209307287-1671                HOUSING FEMALE ASS'Y     CCN000002000000002000FN00000000020221001000002000NNMD0020220823152221    2N0N  00000200000000782600000974632H2    HVYHV   005400370024
BI00B32H2    #TIJ2104       202210217287-1671                HOUSING FEMALE ASS'Y     CCN000002000000002000FN00000000020221001000002000NNMD0020220823152303    2N0N  00000200000000782600000974632H2    HVYHV   005400370024
BI00B32H2    #TIJ2102       202209237287-1674                HYBRID FEMALE ASS'Y      CCN000002000000002000FN00000000020221001000002000NNMD0020220823152331    2N0N  00000200000000810800001002832H2    HVYHV   005400370024
BI00B32H2    #TIJ2103       202210077287-1674                HYBRID FEMALE ASS'Y      CCN000002000000002000FN00000000020221001000002000NNMD0020220823152350    2N0N  00000200000000810800001002832H2    HVYHV   005400370024
BI00B32H2    TIJ210H        202210077298-1869-30             HOUSING FEMALE ASS'Y     CCN000001200000001200FN00000000020221001000001200NNED0020220823160042    4N0N  00000120000000737000000939832H2    HVYHV   005500360039
BI00B32H2    TIJ210H        202210077298-2278-30             HOUSING FEMALE ASS'Y     CCN000002400000002400FN00000000020221001000002400NNED0020220823160416    4N0N  00000240000001091700001295432H2    HVYHV   005500360039
BI00B32H2    TIJ210J        202210217298-2278-30             HOUSING FEMALE ASS'Y     CCN000002400000002400FN00000000020221001000002400NNED0020220823160517    4N0N  00000240000001091700001295432H2    HVYHV   005500360039
BI00B32J1    397332         202209127158-3166-60             WIRE SEAL                CCN002160000002160000FN00000000020220901002160000NNMD0420220823125028    1C0C  00004000000000104000000152432J1    UKYEL-BL002700430014
BI00B32J1    397479         202209197158-3166-60             WIRE SEAL                CCN002160000002160000FN00000000020220901002160000NNMD0420220823125028    1C0C  00004000000000104000000152432J1    UKYEL-BL002700430014
BI00B32M3    #SM2209BDMW    202208257189-3031                HOUSING FEMALE           CCN000002400000002400FN00000000020220901000002400NNED0020220823132435    2F0F  00000240000000928800001365832M3    SASAMI  005500360039
BI00B32M3    #SM2209BDMW    202208257198-4979-30             HOUSING FEMALE           CCN000004000000004000FN00000000020220901000004000NNED0020220823132435    2F0F  00000400000000707200000876032M3    SASAMI  005400370024
BI00B32Q8    #EU2210CNMW    202209077182-9631-40             JOINT CONNECTOR          CCN000006000000006000FN00000000020221001000006000NNE   20220823134450    2F0F  00000300000001182000001307432Q8    EMEMI   005400370024
BI00B32Q8    EU2211A MW     202209287116-4415-02             TERMINAL                 CCN000266000000266000FN00000000020221101000266000NNE   20220823134507    4P0P  00003800000000596600000925732Q8    EMEMI   006400630017
BI00B32Q8    EU2211A MW     202209287116-4416-02             TERMINAL                 CCN000128000000128000FN00000000020221101000128000NNE   20220823134507    4P0P  00003200000000518400000847132Q8    EMEMI   006400630017
BI00B32Q8    EU2211A MW     202209287158-3167-80             WIRE SEAL                CCN000160000000160000FN00000000020221101000160000NNE   20220823134507    1C0C  00002000000000048000000109032Q8    EMEMI   002700430014
BI00B32Q8    EU2211ANMW     202209287196-1460-02             TERMINAL FEMALE          CCN000228000000228000FN00000000020221101000228000NNE   20220823134523    4P0P  00002850000000444600000729832Q8    EMEMI   006400630015
BI00B32Q8    EU2211ANMW     202209287327-6469-3W             BATTERY FUSE             CCN000001632000001632FN00000000020221101000001632NNE   20220823134523    4N0N  00000009600000832300001012332Q8    EMEMI   005400370024
BI00B32Q8    EU2211ATMW     202209287283-1289-30             CONNECTOR HOUSING        CCN000000600000000600FN00000000020221101000000600NNE   20220823134557    1N0N  00000060000000675600000820632Q8    EMEMI   005400370024
BI00B32Q8    EU2211B MW     202210057116-4416-02             TERMINAL                 CCN000224000000224000FN00000000020221101000224000NNE   20220823134617    4P0P  00003200000000518400000847132Q8    EMEMI   006400630017
BI00B32Q8    EU2211B MW     202210057158-3168-80             SEALED                   CCN000040000000040000FN00000000020221101000040000NNE   20220823134617    1C0C  00002000000000044000000092132Q8    EMEMI   004300260014
BI00B32Q8    EU2211BNMW     202210057196-1460-02             TERMINAL FEMALE          CCN000256500000256500FN00000000020221101000256500NNE   20220823134627    4P0P  00002850000000444600000729832Q8    EMEMI   006400630015
BI00B32Q8    EU2211BNMW     202210057327-6469-3W             BATTERY FUSE             CCN000001536000001536FN00000000020221101000001536NNE   20220823134627    4N0N  00000009600000832300001012332Q8    EMEMI   005400370024
BI00B32Q8    EU2211C MW     202210127017-1183-02             TERMINAL                 CCN000027000000027000FN00000000020221101000027000NNE   20220823134642    4P0P  00002700000001139400001307432Q8    EMEMI   005100280028
BI00B32Q8    EU2211C MW     202210127116-4416-02             TERMINAL                 CCN000032000000032000FN00000000020221101000032000NNE   20220823134642    4P0P  00003200000000518400000847132Q8    EMEMI   006400630017
BI00B32Q8    EU2211CNMW     202210127195-1465-02             TERMINAL MALE            CCN000021000000021000FN00000000020221101000021000NNE   20220823161726    4P0P  00002100000000359100000644332Q8    EMEMI   006400630015
BI00B32Q8    EU2211CNMW     202210127327-6469-3W             BATTERY FUSE             CCN000001824000001824FN00000000020221101000001824NNE   20220823161726    4N0N  00000009600000832300001012332Q8    EMEMI   005400370024
BI00B32R7    R-TAP220352    202209087B74-1849-70             COVER                    CCN000050000000050000FN00000000020220901000050000NNE   20220823133444    1F0F  00002500000000622500000761932R7    IVYCIC  005400370024
BI00B32R7    R-TAP220352    202209087C98-1145-4W             SQUIB SUB ASS'Y          CCN000030000000030000FN00000000020220901000030000NNE   20220823133444    4N0N  00001000000000787900000944932R7    IVYCIC  005400370024
BI00B32R7    R-TAP220352    202209087C98-1149-3W             SQUIB SUB ASS'Y          CCN000010000000010000FN00000000020220901000010000NNE   20220823133444    4N0N  00001000000000785000000922032R7    IVYCIC  005400370024
BI00B32R7    R-TAP220351    202209087B74-1849-70             COVER                    CCN000025000000025000FN00000000020220901000025000NNED0720220823133603    1F0F  00002500000000622500000761932R7    IVYCIC  005400370024
BI00B32R7    R-TAP220351    202209087C98-1149-3W             SQUIB SUB ASS'Y          CCN000010000000010000FN00000000020220901000010000NNED0720220823133603    4N0N  00001000000000785000000922032R7    IVYCIC  005400370024
BI00B32R7    R-TAP220358    202209087B74-1849-70             COVER                    CCN000025000000025000FN00000000020220901000025000NNE   20220823133651    1F0F  00002500000000622500000761932R7    IVYCIC  005400370024
BI00B32R7    R-TAP220358    202209087C98-1145-4W             SQUIB SUB ASS'Y          CCN000010000000010000FN00000000020220901000010000NNE   20220823133651    4N0N  00001000000000787900000944932R7    IVYCIC  005400370024
BI00B32R7    R-TAP220359    202209087C98-1145-4W             SQUIB SUB ASS'Y          CCN000020000000020000FN00000000020220901000020000NNE   20220823133722    4N0N  00001000000000787900000944932R7    IVYCIC  005400370024
BI00B32R7    R-TAP220350    202210277298-1186-40             SQUIB SUB ASS'Y          CCN000100000000100000FN00000000020221101000100000NNE   20220823134023    4N0N  00001000000000650000000774532R7    IVYCIC  005400370024
BI00B32R7    R-TAP220356    202209087116-4121-02             TERMINAL                 CCN000022500000022500FN00000000020220901000022500NNE   20220823134142    4P0P  00000450000000618800000912432R7    IVYCIC  006400630015
BI00B32R7    R-TAP220357    202210067116-4121-02             TERMINAL                 CCN000031500000031500FN00000000020221001000031500NNE   20220823134212    4P0P  00000450000000618800000912432R7    IVYCIC  006400630015
BI00B32R7    #R-TAP220360   202209087186-8845-60             HOUSING MALE             CCN000009000000009000FN00000000020220901000009000NNE   20220823134247    2F0F  00000300000000690000000801532R7    IVYCIC  005400370024
BI00A32U9    #TPA240        202209027282-6446-40             CONNECTOR                CCN000010500000010500FN00000000020221001000010500NNMM0020220823142541U9  2N0N  00000150000001185000001368032U9    YNYNA-E 005500360039
BI00A32U9    #TPA242        202209027282-6446-40             CONNECTOR                CCN000010500000010500FN00000000020221101000010500NNMM0020220823142556U9  2N0N  00000150000001185000001368032U9    YNYNA-E 005500360039
BI00A32W4    4500195569     202208227158-3169-40             SEALING PLUG             CCN000040000000040000FY00004000020220801000000000NNE00020220823131313W4141C0C  00004000000000156000000204132W414  HJYHK   004300260014
BI00B32W4    #4500199058    202210107282-7040-10             HOUSING MALE ASS'Y       CCN000003600000003600FN00000000020221001000003600NNE   20220823125028W4322N0N  00000120000000620400000731932W432  HJYHK   005400370024
BI00B32W4    4500199065     202211037289-9553-50             SEALED ASSY FEMALE       CCN000026460000026460FN00000000020221101000026460NNE   20220823125028W4594N0N  00000294000001108100001520632W459  HJYHK   005500360039
BI00B32W4    4500199066     202210067282-7420-40             CONNECTOR MALE ASS'Y     CCN000002000000002000FN00000000020221001000002000NNE   20220823125028W4594N0N  00000100000000491000000603532W459  HJYHK   005400370024
BI00B32W4    #4500199066    202210067157-3646                RUBBER STOPPER           CCN000020000000020000FN00000000020221001000020000NNE   20220823125028W4592H0H  00002000000000184000000255232W459  HJYHK   002700430014
BI00B32W4    4500199067     202209087282-7420-40             CONNECTOR MALE ASS'Y     CCN000008000000008000FN00000000020220901000008000NNED0720220823125028W4594N0N  00000100000000491000000603532W459  HJYHK   005400370024
BI00B32W4    4500199068     202212087289-9553-50             SEALED ASSY FEMALE       CCN000026460000026460FN00000000020221201000026460NNE   20220823125028W4594N0N  00000294000001108100001520632W459  HJYHK   005500360039
BI00B32W4    4500199069     202301057289-9553-50             SEALED ASSY FEMALE       CCN000026460000026460FN00000000020230101000026460NNE   20220823125028W4594N0N  00000294000001108100001520632W459  HJYHK   005500360039
BI00A32W4    #4500199092    202301067186-8845                HOUSING MALE             CCN000006000000006000FN00000000020230101000006000NNE   20220823125028W4H32F0F  00000300000000690000000801532W4H3  HJYHK-J 005400370024
BI00A32W4    #4500199093    202212027186-8845                HOUSING MALE             CCN000006000000006000FN00000000020221201000006000NNE   20220823125028W4H32F0F  00000300000000690000000801532W4H3  HJYHK-J 005400370024
BI00A32W4    #4500199094    202302067186-8845                HOUSING MALE             CCN000006000000006000FN00000000020230201000006000NNE   20220823125028W4H32F0F  00000300000000690000000801532W4H3  HJYHK-J 005400370024
BI00A32W4    4500199095     202212027158-3006-90             RUBBER STOPPER           CCN000060000000060000FN00000000020221201000060000NNE   20220823125028W4H31C0C  00002000000000330600000386032W4H3  HJYHK-J 002700430014
BI00A32W4    4500199096     202301067158-3006-90             RUBBER STOPPER           CCN000040000000040000FN00000000020230101000040000NNE   20220823125028W4H31C0C  00002000000000330600000386032W4H3  HJYHK-J 002700430014
BI00A32W4    4500199097     202212027283-1020                CONNECTOR                CCN000018000000018000FN00000000020221201000018000NNE   20220823125028W4H34N0N  00000600000000840000001049332W4H3  HJYHK-J 005600390040
BI00A32W4    4500199098     202212027283-5846                HOUSING                  CCN000004500000004500FN00000000020221201000004500NNE   20220823125028W4H31N0N  00000150000000885000001102032W4H3  HJYHK-J 005600390040
BI00A32W4    4500199099     202301037283-5846                HOUSING                  CCN000006000000006000FN00000000020230101000006000NNED0020220823125028W4H31N0N  00000150000000885000001102032W4H3  HJYHK-J 005600390040
BI00A32W4    4500199112     202301037283-1020                CONNECTOR                CCN000012000000012000FN00000000020230101000012000NNED0020220823125028W4H34N0N  00000600000000840000001049332W4H3  HJYHK-J 005600390040
BI00A32W4    4500199117     202210217116-4102-02             TERMINAL                 CCN000012000000012000FN00000000020221001000012000NNE   20220823125028W4194P0P  00001200000000553200000841432W419  HJYHK   006400630015
BI00A32W4    4500199117     202210217116-4101-02             TERMINAL                 CCN000012000000012000FN00000000020221001000012000NNE   20220823125028W4194P0P  00001200000000582000000876232W419  HJYHK   006400630015
BI00A32W4    4500199117     202210217114-4110-02             TERMINAL                 CCN000015000000015000FN00000000020221001000015000NNE   20220823125028W4194P0P  00001500000000901500001230132W419  HJYHK   006400630017
BI00A32W4    4500199117     202210217116-4103-02             TERMINAL                 CCN000012000000012000FN00000000020221001000012000NNE   20220823125028W4194P0P  00001200000000571200000859432W419  HJYHK   006400630015
BI00A32W4    4500199117     202210217283-6568-40             CONNECTOR                CCN000012000000012000FN00000000020221001000012000NNE   20220823125028W4194N0N  00000200000001090000001263032W419  HJYHK   005500360039
BI00A32W4    @4500199117    202210217183-8049                CONNECTOR HOUSING        CCN000008000000008000FN00000000020221001000008000NNE   20220823125028W4193F0F  00000400000000583600000740032W419  HJYHK   005400370024
BI00A32W4    4500199118     202212017116-1180                TERMINAL                 CCN000019500000019500FN00000000020221201000019500NNE   20220823125028W4H31P0P  00001950000000618200000903432W4H3  HJYHK-J 006400630015
BI00A32W4    4500199120     202301057116-4231-02             TERMINAL                 CCN000052000000052000FN00000000020230101000052000NNE   20220823125028W4H34P0P  00002600000000683800001012532W4H3  HJYHK-J 006400630017
BI00A32W4    4500199121     202212017116-4231-02             TERMINAL                 CCN000052000000052000FN00000000020221201000052000NNE   20220823125028W4H34P0P  00002600000000683800001012532W4H3  HJYHK-J 006400630017
BI00B32W4    4500199039     202210187116-1180                TERMINAL                 CCN000078000000078000FN00000000020221001000078000NNE   20220823125028W41 1P0P  00001950000000618200000903432W41   HJYHK   006400630015
BI00B32W4    4500199039     202210187017-1180-02             TERMINAL                 CCN000072000000072000FN00000000020221001000072000NNE   20220823125028W41 4P0P  00007200000001065600001229032W41   HJYHK   005100280028
BI00B32W4    #4500199039    202210187B58-3121-80             SEALED CONNECTOR         CCN000040000000040000FN00000000020221001000040000NNE   20220823125028W41 2C0C  00002000000000118000000195032W41   HJYHK   004300270014
BI00B32W4    4500199046     202210187158-3169-40             SEALING PLUG             CCN000040000000040000FN00000000020221001000040000NNE   20220823125028W41 1C0C  00004000000000156000000204132W41   HJYHK   004300260014
BI00B32W4    4500199046     202210187158-3166-60             WIRE SEAL                CCN000160000000160000FN00000000020221001000160000NNE   20220823125028W41 1C0C  00004000000000104000000152432W41   HJYHK   002700430014
BI00A32W4    4500199129     202210217116-4102-02             TERMINAL                 CCN000012000000012000FN00000000020221001000012000NNE   20220823125028W4L74P0P  00001200000000553200000841432W4L7  HJYHK-J 006400630015
BI00B32W4    4500199054     202210187158-3166-60             WIRE SEAL                CCN000080000000080000FN00000000020221001000080000NNE   20220823125028W41 1C0C  00004000000000104000000152432W41   HJYHK   002700430014
BI00B32W9    4500199074     202209067114-4100-02             TERMINAL                 CCN000972000000972000FN00000000020220801000972000NNED0720220823125028W9  4P0P  00001800000000748800001077432W9    HKYHK   006400630017
BI00B32W9    4500199074     202209067114-4101-02             TERMINAL                 CCN000060000000060000FN00000000020220801000060000NNED0720220823125028W9  4P0P  00001500000000675000001003632W9    HKYHK   006400630017
BI00B32W9    4500199074     202209067116-2951-02             TERMINAL                 CCN000081000000081000FN00000000020220801000081000NNED0720220823125028W9  4P0P  00000540000000817600001111832W9    HKYHK   006400630015
BI00B32W9    4500199074     202209067116-4121-02             TERMINAL                 CCN000090000000090000FN00000000020220801000090000NNED0720220823125028W9  4P0P  00000450000000618800000912432W9    HKYHK   006400630015
BI00B32W9    4500199074     202209067116-4122-02             TERMINAL                 CCN000117000000117000FN00000000020220801000117000NNED0720220823125028W9  4P0P  00000450000000656600000950232W9    HKYHK   006400630015
BI00B32W9    4500199074     202209207282-6568-40             CONNECTOR                CCN000050000000015000FN00000000020220801000015000NNED0420220823125028W9  4N0N  00000100000001206000001370732W9    HKYHK   005500360039
BI00B32W9    #4500199074    202209067158-3374-90             CONNECTOR WIRE SEAL      CCN000080000000080000FN00000000020220801000080000NNED0720220823125028W9  2H0H  00002000000000172000000229332W9    HKYHK   002700430014
BI00B32W9    #4500199074    202209067282-8395-40             CONNECTOR                CCN000010000000010000FN00000000020220801000010000NNED0720220823125028W9  2N0N  00000100000001009000001188032W9    HKYHK   005500360039
BI00B32W9    #4500199074    202209067283-8398-40             CONNECTOR                CCN000018480000018480FN00000000020220801000018480NNED0720220823125028W9  2N0N  00000154000001007000001171332W9    HKYHK   005600390023
BI00B32W9    4500199113     202209067196-0549-08             TERMINAL ALUMINIUM       CCN000038000000038000FN00000000020220901000038000NNE   20220823125028W9  4P0P  00003800000000600400000929132W9    HKYHK   006400630017
BI00B32W9    #4500199131    202209137283-8398-40             CONNECTOR                CCN000013860000013860FN00000000020220901000013860NNE   20220823125028W9  2N0N  00000154000001007000001171332W9    HKYHK   005600390023
BI00B32W9    4500199135     202209137282-5574-10             CONNECTOR                CCN000019200000019200FN00000000020220901000019200NNE   20220823125028W9  4N0N  00000080000001235000001423032W9    HKYHK   005600390040
BI00B32W9    #4500199137    202210187147-8931-30             CLIP                     CCN000004500000004500FN00000000020221001000004500NNE   20220823125028W9  2F0F  00000450000000387000000531732W9    HKYHK   005600390023
BI00B32W9    4500199074     202210117282-6568-40             CONNECTOR                CCN000015000000015000FN00000000020220801000015000NNED0420220823125028W9  4N0N  00000100000001206000001370732W9    HKYHK   005500360039
BI00B32W9    4500199074     202211017282-6568-40             CONNECTOR                CCN000020000000020000FN00000000020220801000020000NNED0420220823125028W9  4N0N  00000100000001206000001370732W9    HKYHK   005500360039
BI00B32Y4    ITA3212EM      202209017288-9556-30             SEALED ASSY MALE         CCN000005040000005040FN00000000020221201000005040NNED0020220823125028    4N0N  00000072000000537900000786332Y4    BIYAB-I 005500360039
