AE00TI102208230623/08/202200000020000000000000000047520KGM  00000097520KGM  7271-1818-30             CASE SUB ASSY,ECU        7271181830               0         0         0         0    0    0    00000360000000001800009388000337968000
AE00TI102208230623/08/202200000000500000000000000002220KGM  00000003032KGM  7283-5845                CONNECTOR HOUSING        72835845                 0         0         0         0    0    0    00003000000000600000000133000039900000
AE00TI102208230623/08/202200000000400000000000000002666KGM  00000003692KGM  7287-1915                CONNECTOR ASS'Y          72871915                 0         0         0         0    0    0    00000960000000240000000161000015456000
AE00TI102208230623/08/202200000001800000000000000012355KGM  00000016225KGM  7289-3342-30             HOUSING FEMALE ASS'Y     7289334230               0         0         0         0    0    0    00004320000000240000000191000082512000
AE00TI102208230623/08/202200000001600000000000000010982KGM  00000014422KGM  7289-3342-90             HOUSING FEMALE ASS'Y     7289334290               0         0         0         0    0    0    00003840000000240000000196000075264000
AE00TI102208230623/08/202200000000600000000000000007030KGM  00000008212KGM  7289-5011-30             HOUSING FEMALE ASS'Y     7289501130               0         0         0         0    0    0    00001440000000240000000333000047952000
AE00TI102208230623/08/202200000000200000000000000001067KGM  00000001458KGM  7298-2457-90             LIF FEMALE ASSEMBLY      7298245790               0         0         0         0    0    0    00000033600000016800001464000004919040
AE00TI102208230623/08/202200000000200000000000000001068KGM  00000001459KGM  7298-2459-60             LIF FEMALE ASSEMBLY      7298245960               0         0         0         0    0    0    00000033600000016800001474000004952640
AE00TI102208230623/08/202200000000200000000000000001963KGM  00000002580KGM  7298-5993-30             SEALED ASSY FEMALE       7298599330               0         0         0         0    0    0    00000436800000218400000266000011618880
AE00TI102208230623/08/202200000000100000000000000000933KGM  00000001133KGM  7327-6769-3W             BATTERY FUSE             732767693W               0         0         0         0    0    0    00000009600000009600008902000008545920
AE00TI102208230623/08/202200000001900000000000000021677KGM  00000025762KGM  7327-6840-3W             BATTERY FUSE             732768403W               0         0         0         0    0    0    00000136800000007200009909000135555120
AE00TI102208230623/08/202200000002400000000000000017808KGM  00000026928KGM  7388-2978-30             HOUSING MALE ASS'Y       7388297830               0         0         0         0    0    0    00001152000000048000001790000206208000
AE00TI102208230623/08/202200000000500000000000000006600KGM  00000007850KGM  7470-3082                J/B COMPLETE ASS'Y       74703082                 0         0         0         0    0    0    00000012000000002400031298000037557600
AE00TI102208230623/08/202200000001300000000000000017160KGM  00000020410KGM  7470-4481                J/B COMPLETE ASS'Y       74704481                 0         0         0         0    0    0    00000031200000002400000000000000000000
AE00TI102208230623/08/202200000002000000000000000000000KGM  00000000000KGM  7470-5300E               J/B COMPLETE ASS'Y       74705300E                0         0         0         0    0    0    00000020000000001000000000000000000000
AE00TI102208230623/08/202200000001000000000000000000000KGM  00000000000KGM  7470-5784E1              J/B COMPLETE ASS'Y       74705784E1               0         0         0         0    0    0    00000010000000001000000000000000000000
