AE00TI102208230123/08/202200000000100000000000000000894KGM  00000001185KGM  7287-9234                JOINT CONNECTOR          72879234                 0         0         0         0    0    0    00000960000000960000000137000013152000
AE00TI102208230123/08/202200000001800000000000000015590KGM  00000018200KGM  7288-3329-30             HOUSING MALE             7288332930               0         0         0         0    0    0    00002700000000150000000354000095580000
AE00TI102208230123/08/202200000000400000000000000003468KGM  00000004048KGM  7288-3335-30             HOUSING MALE             7288333530               0         0         0         0    0    0    00000600000000150000000354000021240000
AE00TI102208230123/08/202200000000700000000000000004805KGM  00000006310KGM  7289-3342                HOUSING FEMALE ASS'Y     72893342                 0         0         0         0    0    0    00001680000000240000000186000031248000
AE00TI102208230123/08/202200000001900000000000000013042KGM  00000017127KGM  7289-3342-30             HOUSING FEMALE ASS'Y     7289334230               0         0         0         0    0    0    00004560000000240000000191000087096000
AE00TI102208230123/08/202200000000500000000000000005859KGM  00000006843KGM  7289-5011-30             HOUSING FEMALE ASS'Y     7289501130               0         0         0         0    0    0    00001200000000240000000333000039960000
AE00TI102208230123/08/202200000000200000000000000001658KGM  00000002098KGM  7289-6518-30             HOUSING FEMALE ASS'Y     7289651830               0         0         0         0    0    0    00000240000000120000000598000014352000
AE00TI102208230123/08/202200000001300000000000000013042KGM  00000015659KGM  7298-1865-30             HOUSING FEMALE ASS'Y     7298186530               0         0         0         0    0    0    00003120000000240000000196000061152000
AE00TI102208230123/08/202200000000500000000000000004908KGM  00000006450KGM  7298-5993-30             SEALED ASSY FEMALE       7298599330               0         0         0         0    0    0    00001092000000218400000266000029047200
AE00TI102208230123/08/202200000000700000000000000006533KGM  00000007933KGM  7327-6769-3W             BATTERY FUSE             732767693W               0         0         0         0    0    0    00000067200000009600008902000059821440
AE00TI102208230123/08/202200000002300000000000000026241KGM  00000031186KGM  7327-6840-3W             BATTERY FUSE             732768403W               0         0         0         0    0    0    00000165600000007200009909000164093040
AE00TI102208230123/08/202200000002400000000000000017808KGM  00000026928KGM  7388-2978-30             HOUSING MALE ASS'Y       7388297830               0         0         0         0    0    0    00001152000000048000001790000206208000
AE00TI102208230123/08/202200000001800000000000000023760KGM  00000028260KGM  7470-3082                J/B COMPLETE ASS'Y       74703082                 0         0         0         0    0    0    00000043200000002400031298000135207360
AE00TI102208230123/08/202200000001800000000000000000000KGM  00000000000KGM  7470-5783E               J/B COMPLETE ASS'Y       74705783E                0         0         0         0    0    0    00000018000000001000000000000000000000
AE00TI102208230123/08/202200000003000000000000000000000KGM  00000000000KGM  7470-5784D               J/B COMPLETE ASS'Y       74705784D                0         0         0         0    0    0    00000045000000001500000000000000000000
AE00TI102208230123/08/202200000004500000000000000000000KGM  00000000000KGM  7470-5791D               J/B COMPLETE ASS'Y       74705791D                0         0         0         0    0    0    00000067500000001500000000000000000000
