AE00TI102208230223/08/202200000000900000000000000004644KGM  00000007292KGM  7114-4729-02             TERMINAL                 7114472902               0         0         0         0    0    0    00027000000003000000000015000040500000
AE00TI102208230223/08/202200000000400000000000000002473KGM  00000003614KGM  7116-1180                TERMINAL                 71161180                 0         0         0         0    0    0    00007800000001950000000022000017160000
AE00TI102208230223/08/202200000002400000000000000021485KGM  00000025406KGM  7116-2893-02             TERMINAL                 7116289302               0         0         0         0    0    0    00028800000001200000000054000155520000
AE00TI102208230223/08/202200000002000000000000000009180KGM  00000014884KGM  7116-3153-02             TERMINAL FEMALE          7116315302               0         0         0         0    0    0    00054000000002700000000015000081000000
AE00TI102208230223/08/202200000002000000000000000009396KGM  00000015100KGM  7116-3154-02             TERMINAL FEMALE          7116315402               0         0         0         0    0    0    00054000000002700000000015000081000000
AE00TI102208230223/08/202200000001400000000000000007182KGM  00000011175KGM  7116-4020                TERMINAL                 71164020                 0         0         0         0    0    0    00018900000001350000000028000052920000
AE00TI102208230223/08/202200000000700000000000000004514KGM  00000006826KGM  7116-4025                TERMINAL                 71164025                 0         0         0         0    0    0    00011200000001600000000034000038080000
AE00TI102208230223/08/202200000001600000000000000011136KGM  00000015843KGM  7116-4100-02             TERMINAL                 7116410002               0         0         0         0    0    0    00024000000001500000000037000088800000
AE00TI102208230223/08/202200000001600000000000000009546KGM  00000014811KGM  7116-4415-02             TERMINAL                 7116441502               0         0         0         0    0    0    00060800000003800000000016000097280000
AE00TI102208230223/08/202200000000400000000000000003312KGM  00000003944KGM  7124-1026-30             PROTECTOR                7124102630               0         0         0         0    0    0    00001200000000300000000126000015120000
AE00TI102208230223/08/202200000000500000000000000000926KGM  00000001168KGM  7137-3001-30             COVER PACKING            7137300130               0         0         0         0    0    0    00000250000000050000000340000008500000
AE00TI102208230223/08/202200000003000000000000000009918KGM  00000011580KGM  7158-3006-90             RUBBER STOPPER           7158300690               0         0         0         0    0    0    00060000000002000000000016000096000000
AE00TI102208230223/08/202200000001800000000000000006084KGM  00000006952KGM  7158-3009-60             RUBBER STOPPER           7158300960               0         0         0         0    0    0    00036000000002000000000012000043200000
AE00TI102208230223/08/202200000000600000000000000001656KGM  00000002000KGM  7158-3070-80             RUBBER STOPPER           7158307080               0         0         0         0    0    0    00024000000004000000000008000019200000
AE00TI102208230223/08/202200000001600000000000000001664KGM  00000002438KGM  7158-3166-60             WIRE SEAL                7158316660               0         0         0         0    0    0    00064000000004000000000004000025600000
AE00TI102208230223/08/202200000003000000000000000001440KGM  00000003270KGM  7158-3167-80             WIRE SEAL                7158316780               0         0         0         0    0    0    00060000000002000000000005000030000000
AE00TI102208230223/08/202200000001400000000000000000616KGM  00000001289KGM  7158-3168-80             SEALED                   7158316880               0         0         0         0    0    0    00028000000002000000000004000011200000
AE00TI102208230223/08/202200000000700000000000000001092KGM  00000001429KGM  7158-3169-40             SEALING PLUG             7158316940               0         0         0         0    0    0    00028000000004000000000006000016800000
AE00TI102208230223/08/202200000001000000000000000001860KGM  00000002344KGM  7172-5540-80             SEALED WIRE SEAL         7172554080               0         0         0         0    0    0    00020000000002000000000010000020000000
AE00TI102208230223/08/202200000000100000000000000001282KGM  00000001477KGM  7182-4941                DOUBLE SIDED             71824941                 0         0         0         0    0    0    00000100000000100000000816000008160000
AE00TI102208230223/08/202200000000200000000000000002118KGM  00000002491KGM  7183-2412                HOUSING                  71832412                 0         0         0         0    0    0    00000320000000160000000155000004960000
AE00TI102208230223/08/202200000000100000000000000000780KGM  00000001062KGM  7183-2414-30             CONNECTOR HOUSING        7183241430               0         0         0         0    0    0    00000480000000480000000054000002592000
AE00TI102208230223/08/202200000000100000000000000000917KGM  00000001477KGM  7183-2418                CONNECTOR HOUSING        71832418                 0         0         0         0    0    0    00000480000000480000000078000003744000
AE00TI102208230223/08/202200000000100000000000000000967KGM  00000001125KGM  7222-7564-30             CONNECTOR                7222756430               0         0         0         0    0    0    00000050000000050000001175000005875000
AE00TI102208230223/08/202200000002000000000000000024700KGM  00000028460KGM  7282-5574-10             CONNECTOR                7282557410               0         0         0         0    0    0    00001600000000080000000727000116320000
AE00TI102208230223/08/202200000000400000000000000003510KGM  00000004312KGM  7283-1156                CONNECTOR                72831156                 0         0         0         0    0    0    00000320000000080000000810000025920000
AE00TI102208230223/08/202200000000100000000000000001160KGM  00000001341KGM  7283-1485                CONNECTOR                72831485                 0         0         0         0    0    0    00000200000000200000000366000007320000
AE00TI102208230223/08/202200000000600000000000000006840KGM  00000007910KGM  7283-1968-30             CONNECTOR                7283196830               0         0         0         0    0    0    00000540000000090000000687000037098000
AE00TI102208230223/08/202200000000200000000000000002014KGM  00000002343KGM  7283-8398-40             CONNECTOR                7283839840               0         0         0         0    0    0    00000308000000154000000398000012258400
AE00TI102208230223/08/202200000000700000000000000007207KGM  00000008771KGM  7298-5955                CONNECTOR SUB ASSY       72985955                 0         0         0         0    0    0    00005040000000720000000163000082152000
AE00TI102208230223/08/202200000000400000000000000004792KGM  00000006464KGM  7341-5305-40             SOCKET PLUG              7341530540               0         0         0         0    0    0    00000800000000200000000437000034960000
