AE00TO202208230423/08/202200000004800000000000000050239KGM  00000052585KGM  18000004530              AV 8 B                   AV 8 B                   0         0         0         0    0    0    00000000000048000000000213300010238400
AE00TO202208230423/08/202200000002000000000000000020932KGM  00000021910KGM  18000004540              AV 8 W                   AV 8 W                   0         0         0         0    0    0    00000000000020000000000213300004266000
AE00TO202208230423/08/202200000003700000000000000038725KGM  00000040535KGM  18000004550              AV 8 R                   AV 8 R                   0         0         0         0    0    0    00000000000037000000000213300007892100
AE00TO202208230423/08/202200000000100000000000000001047KGM  00000001096KGM  18000004560              AV 8 G                   AV 8 G                   0         0         0         0    0    0    00000000000001000000000213300000213300
AE00TO202208230423/08/202200000000100000000000000001047KGM  00000001096KGM  18000004590              AV 8 L                   AV 8 L                   0         0         0         0    0    0    00000000000001000000000213300000213300
AE00TO202208230423/08/202200000000100000000000000000992KGM  00000001041KGM  18007703750              AVSS 03F R               AVSS 03F R               0         0         0         0    0    0    00000000000020000000000011800000236000
AE00TO202208230423/08/202200000000100000000000000000992KGM  00000001041KGM  18007703760              AVSS 03F G               AVSS 03F G               0         0         0         0    0    0    00000000000020000000000011800000236000
AE00TO202208230423/08/202200000000100000000000000001011KGM  00000001060KGM  18007703940              AVSS 05F W               AVSS 05F W               0         0         0         0    0    0    00000000000015000000000015800000237000
AE00TO202208230423/08/202200000000100000000000000001011KGM  00000001060KGM  18007703952              AVSS 05F P               AVSS 05F P               0         0         0         0    0    0    00000000000015000000000015800000237000
AE00TO202208230423/08/202200000000100000000000000001011KGM  00000001060KGM  18007703960              AVSS 05F G               AVSS 05F G               0         0         0         0    0    0    00000000000015000000000015800000237000
AE00TO202208230423/08/202200000000100000000000000001011KGM  00000001060KGM  18007703992              AVSS 05F V               AVSS 05F V               0         0         0         0    0    0    00000000000015000000000015800000237000
AE00TO202208230423/08/202200000001700000000000000018891KGM  00000019721KGM  18007704130              AVSS 125F B              AVSS 125F B              0         0         0         0    0    0    00000000000136000000000035000004760000
AE00TO202208230423/08/202200000000100000000000000001111KGM  00000001160KGM  18007704135              AVSS 125F B/R            AVSS 125F B/R            0         0         0         0    0    0    00000000000008000000000035000000280000
AE00TO202208230423/08/202200000003100000000000000034448KGM  00000035963KGM  18007704140              AVSS 125F W              AVSS 125F W              0         0         0         0    0    0    00000000000248000000000035000008680000
AE00TO202208230423/08/202200000000300000000000000003333KGM  00000003480KGM  18007704143              AVSS 125F W/B            AVSS 125F W/B            0         0         0         0    0    0    00000000000024000000000035000000840000
AE00TO202208230423/08/202200000002600000000000000028891KGM  00000030162KGM  18007704150              AVSS 125F R              AVSS 125F R              0         0         0         0    0    0    00000000000208000000000035000007280000
AE00TO202208230423/08/202200000000100000000000000001111KGM  00000001160KGM  18007704151              AVSS 125F O              AVSS 125F O              0         0         0         0    0    0    00000000000008000000000035000000280000
AE00TO202208230423/08/202200000003300000000000000036669KGM  00000038283KGM  18007704160              AVSS 125F G              AVSS 125F G              0         0         0         0    0    0    00000000000264000000000035000009240000
AE00TO202208230423/08/202200000000300000000000000003333KGM  00000003480KGM  18007704170              AVSS 125F Y              AVSS 125F Y              0         0         0         0    0    0    00000000000024000000000035000000840000
AE00TO202208230423/08/202200000000800000000000000008890KGM  00000009280KGM  18007704180              AVSS 125F BR             AVSS 125F BR             0         0         0         0    0    0    00000000000064000000000035000002240000
AE00TO202208230423/08/202200000001000000000000000011112KGM  00000011601KGM  18007704190              AVSS 125F L              AVSS 125F L              0         0         0         0    0    0    00000000000080000000000035000002800000
AE00TO202208230423/08/202200000000200000000000000002222KGM  00000002320KGM  18007704192              AVSS 125F V              AVSS 125F V              0         0         0         0    0    0    00000000000016000000000035000000560000
AE00TO202208230423/08/202200000000100000000000000001016KGM  00000001064KGM  18018403950              CAVS 05 R                CAVS 05 R                0         0         0         0    0    0    00000000000015000000000015200000228000
AE00TO202208230423/08/202200000004100000000000000041636KGM  00000043640KGM  18018403952              CAVS 05 P                CAVS 05 P                0         0         0         0    0    0    00000000000615000000000015200009348000
AE00TO202208230423/08/202200000000400000000000000004410KGM  00000004606KGM  18018404130              CAVS 125 B               CAVS 125 B               0         0         0         0    0    0    00000000000032000000000032700001046400
AE00TO202208230423/08/202200000000100000000000000001102KGM  00000001151KGM  18018404140              CAVS 125 W               CAVS 125 W               0         0         0         0    0    0    00000000000008000000000032700000261600
AE00TO202208230423/08/202200000000200000000000000002204KGM  00000002302KGM  18018404143              CAVS 125 W/B             CAVS 125 W/B             0         0         0         0    0    0    00000000000016000000000032700000523200
AE00TO202208230423/08/202200000000200000000000000002310KGM  00000002408KGM  1801R703941              CIVUS 05 GY              CIVUS 05 GY              0         0         0         0    0    0    00000000000044000000000013600000598400
AE00TO202208230423/08/202200000000200000000000000002310KGM  00000002408KGM  1801R70395U              CIVUS 05 BE              CIVUS 05 BE              0         0         0         0    0    0    00000000000044000000000013600000598400
AE00TO202208230423/08/202200000000100000000000000001155KGM  00000001204KGM  1801R703991              CIVUS 05 SB              CIVUS 05 SB              0         0         0         0    0    0    00000000000022000000000013600000299200
AE00TO202208230423/08/202200000000400000000000000004500KGM  00000004696KGM  1801W003950              IVSSH 05F R              IVSSH 05F R              0         0         0         0    0    0    00000000000072000000000015600001123200
AE00TO202208230423/08/202200000000400000000000000004500KGM  00000004696KGM  1801W003952              IVSSH 05F P              IVSSH 05F P              0         0         0         0    0    0    00000000000072000000000015600001123200
AE00TO202208230423/08/202200000000600000000000000006750KGM  00000007043KGM  1801W003960              IVSSH 05F G              IVSSH 05F G              0         0         0         0    0    0    00000000000108000000000015600001684800
AE00TO202208230423/08/202200000000200000000000000002250KGM  00000002348KGM  1801W003970              IVSSH 05F Y              IVSSH 05F Y              0         0         0         0    0    0    00000000000036000000000015600000561600
AE00TO202208230423/08/202200000003300000000000000037125KGM  00000038738KGM  1801W003990              IVSSH 05F L              IVSSH 05F L              0         0         0         0    0    0    00000000000594000000000015600009266400
AE00TO202208230423/08/202200000000100000000000000001130KGM  00000001179KGM  1801W006950              IVSSH 035F R             IVSSH 035F R             0         0         0         0    0    0    00000000000025000000000011500000287500
AE00TO202208230423/08/202200000000100000000000000001130KGM  00000001179KGM  1801W006990              IVSSH 035F L             IVSSH 035F L             0         0         0         0    0    0    00000000000025000000000011500000287500
AE00TO202208230423/08/202200000000500000000000000005832KGM  00000006076KGM  180D0204150              AVSSH 125F R             AVSSH 125F R             0         0         0         0    0    0    00000000000040000000000036000001440000
AE00TO202208230423/08/202200000006400000000000000049354KGM  00000052484KGM  181AD2002ZZ              CIVUSAS-S 035X2 B        CIVUSAS-S 035X2 B        0         0         0         0    0    0    00000000000288000000000044000012672000
AE00TO202208230423/08/202200000000700000000000000005321KGM  00000005664KGM  181AD2003ZZ              CIVUSAS-S 035X3 B        CIVUSAS-S 035X3 B        0         0         0         0    0    0    00000000000024500000000055700001364650
AE00TO202208230423/08/202200000000400000000000000002820KGM  00000003016KGM  181CQ7004ZZ              IVSSHCS-S 05FX2 B(R,G)   IVSSHCS-S 05FX2 B(R,G)   0         0         0         0    0    0    00000000000012000000000073000000876000
AE00TO202208230423/08/202200000003400000000000000025764KGM  00000027426KGM  181E50003ZZ              AVSSCS-S 03FX2 DGY/BR    AVSSCS-S 03FX2 DGY/BR    0         0         0         0    0    0    00000000000119000000000059700007104300
AE00TO202208230423/08/202200000003300000000000000025006KGM  00000026619KGM  181E50036ZZ              AVSSCS-S 03FX2 DGY       AVSSCS-S 03FX2 DGY       0         0         0         0    0    0    00000000000115500000000059700006895350
AE00TO202208230423/08/202200000002700000000000000020504KGM  00000021824KGM  181F21014ZZ              AVSSHCS-S 05FX2 B/L      AVSSHCS-S 05FX2 B/L      0         0         0         0    0    0    00000000000081000000000074200006010200
AE00TO202208230423/08/202200000001300000000000000009872KGM  00000010509KGM  181F21016ZZ              AVSSHCS-S 05FX2 B/BR     AVSSHCS-S 05FX2 B/BR     0         0         0         0    0    0    00000000000039000000000074200002893800
