AE00TI102208230423/08/202200000000600000000000000003252KGM  00000004328KGM  7147-3642-30             CLIP                     7147364230               0         0         0         0    0    0    00001800000000300000000074000013320000
AE00TI102208230423/08/202200000001100000000000000008096KGM  00000010472KGM  7154-5597-30             CASSETTE R/B             7154559730               0         0         0         0    0    0    00000880000000080000000255000022440000
AE00TI102208230423/08/202200000000200000000000000001654KGM  00000002204KGM  7154-5712-30             CASSETTE R/B             7154571230               0         0         0         0    0    0    00000160000000080000000288000004608000
AE00TI102208230423/08/202200000024400000000000000036185KGM  00000000000KGM  7154-8685-30S            COVER                    7154868530S              0         0         0         0    0    0    00000024400000000100000000000000000000
AE00TI102208230423/08/202200000000100000000000000000154KGM  00000000440KGM  7157-3950-80             SEAL RUBBER              7157395080               0         0         0         0    0    0    00004000000004000000000044000017600000
AE00TI102208230423/08/202200000000200000000000000000500KGM  00000000612KGM  7158-3003-90             RUBBER STOPPER           7158300390               0         0         0         0    0    0    00004000000002000000000012000004800000
AE00TI102208230423/08/202200000000100000000000000000762KGM  00000000980KGM  7171-6292                HOUSING                  71716292                 0         0         0         0    0    0    00000018000000018000001240000002232000
AE00TI102208230423/08/202200000000300000000000000002879KGM  00000003737KGM  7182-2410                CONNECTOR HOUSING        71822410                 0         0         0         0    0    0    00000360000000120000000187000006732000
AE00TI102208230423/08/202200000000200000000000000001459KGM  00000001666KGM  7182-2412                HOUSING MALE             71822412                 0         0         0         0    0    0    00000100000000050000000638000006380000
AE00TI102208230423/08/202200000000200000000000000001902KGM  00000002460KGM  7183-0522                HOUSING                  71830522                 0         0         0         0    0    0    00000480000000240000000113000005424000
AE00TI102208230423/08/202200000000500000000000000002788KGM  00000004117KGM  7183-1616                CONNECTOR HOUSING        71831616                 0         0         0         0    0    0    00001200000000240000000077000009240000
AE00TI102208230423/08/202200000000300000000000000001433KGM  00000002279KGM  7183-2413-30             CONNECTOR HOUSING        7183241330               0         0         0         0    0    0    00001440000000480000000076000010944000
AE00TI102208230423/08/202200000000500000000000000007476KGM  00000008855KGM  7183-2416                HOUSING                  71832416                 0         0         0         0    0    0    00001200000000240000000171000020520000
AE00TI102208230423/08/202200000000300000000000000002917KGM  00000003726KGM  7183-2511                HOUSING                  71832511                 0         0         0         0    0    0    00000480000000160000000160000007680000
AE00TI102208230423/08/202200000000100000000000000000821KGM  00000001104KGM  7183-6320                HOUSING                  71836320                 0         0         0         0    0    0    00000480000000480000000092000004416000
AE00TI102208230423/08/202200000000100000000000000000819KGM  00000001102KGM  7183-6320-30             HOUSING                  7183632030               0         0         0         0    0    0    00000480000000480000000114000005472000
AE00TI102208230423/08/202200000000200000000000000001519KGM  00000002049KGM  7187-3356                JOINT CONNECTOR          71873356                 0         0         0         0    0    0    00000240000000120000001038000024912000
AE00TI102208230423/08/202200000000100000000000000000762KGM  00000001029KGM  7187-3357-40             JOINT CONNECTOR          7187335740               0         0         0         0    0    0    00000120000000120000001059000012708000
AE00TI102208230423/08/202200000000100000000000000000763KGM  00000001030KGM  7187-3359-60             JOINT CONNECTOR          7187335960               0         0         0         0    0    0    00000120000000120000001079000012948000
AE00TI102208230423/08/202200000001400000000000000013537KGM  00000015357KGM  7189-2978-30             HOUSING FEMALE           7189297830               0         0         0         0    0    0    00002100000000150000000161000033810000
AE00TI102208230423/08/202200000000100000000000000001200KGM  00000001378KGM  7282-1014                CONNECTOR                72821014                 0         0         0         0    0    0    00000600000000600000000168000010080000
AE00TI102208230423/08/202200000000200000000000000000916KGM  00000001161KGM  7282-1024                HOUSING MALE             72821024                 0         0         0         0    0    0    00000200000000100000000534000010680000
AE00TI102208230423/08/202200000000800000000000000006261KGM  00000007941KGM  7282-4578                HOUSING MALE ASS'Y       72824578                 0         0         0         0    0    0    00000960000000120000000255000024480000
AE00TI102208230423/08/202200000000200000000000000002126KGM  00000002566KGM  7282-4855                HOUSING MALE ASS'Y       72824855                 0         0         0         0    0    0    00000240000000120000000347000008328000
AE00TI102208230423/08/202200000000100000000000000000620KGM  00000000732KGM  7282-7040-30             HOUSING MALE ASS'Y       7282704030               0         0         0         0    0    0    00000120000000120000000702000008424000
AE00TI102208230423/08/202200000000100000000000000000983KGM  00000001156KGM  7283-1064                CONNECTOR                72831064                 0         0         0         0    0    0    00000150000000150000000347000005205000
AE00TI102208230423/08/202200000000300000000000000001954KGM  00000002614KGM  7283-4576                HOUSING FEMALE ASS'Y     72834576                 0         0         0         0    0    0    00001440000000480000000128000018432000
AE00TI102208230423/08/202200000000400000000000000003350KGM  00000004230KGM  7283-4578                HOUSING FEMALE ASS'Y     72834578                 0         0         0         0    0    0    00000960000000240000000190000018240000
AE00TI102208230423/08/202200000000200000000000000001908KGM  00000002208KGM  7283-5830                CONNECTOR                72835830                 0         0         0         0    0    0    00001200000000600000000154000018480000
AE00TI102208230423/08/202200000001000000000000000008890KGM  00000011320KGM  7283-5843                CONNECTOR                72835843                 0         0         0         0    0    0    00001500000000150000000280000042000000
AE00TI102208230423/08/202200000000300000000000000002742KGM  00000003429KGM  7283-6120                CONNECTOR HOUSING        72836120                 0         0         0         0    0    0    00000450000000150000000368000016560000
AE00TI102208230423/08/202200000000200000000000000000700KGM  00000000925KGM  7283-8721-30             HOUSING FEMALE ASS'Y     7283872130               0         0         0         0    0    0    00000200000000100000000415000008300000
AE00TI102208230423/08/202200000000100000000000000000794KGM  00000000907KGM  7283-8730-30             HOUSING FEMALE ASS'Y     7283873030               0         0         0         0    0    0    00000200000000200000000426000008520000
AE00TI102208230423/08/202200000000400000000000000003868KGM  00000004671KGM  7286-1917                CONNECTOR MALE ASS'Y     72861917                 0         0         0         0    0    0    00000480000000120000000517000024816000
AE00TI102208230423/08/202200000000700000000000000006374KGM  00000007914KGM  7286-3885                CONNECTOR MALE ASS'Y     72863885                 0         0         0         0    0    0    00000840000000120000000295000024780000
AE00TI102208230423/08/202200000000600000000000000005464KGM  00000006784KGM  7286-3885-40             CONNECTOR MALE ASS'Y     7286388540               0         0         0         0    0    0    00000720000000120000000313000022536000
AE00TI102208230423/08/202200000000100000000000000001061KGM  00000001313KGM  7287-1917                CONNECTOR FEMALE         72871917                 0         0         0         0    0    0    00000240000000240000000253000006072000
AE00TI102208230423/08/202200000000100000000000000000614KGM  00000000834KGM  7287-2705                HOUSING FEMALE ASS'Y     72872705                 0         0         0         0    0    0    00000960000000960000000148000014208000
AE00TI102208230423/08/202200000000500000000000000005148KGM  00000006248KGM  7287-3885                HYBRID FEMALE ASS'Y      72873885                 0         0         0         0    0    0    00001200000000240000000207000024840000
AE00TI102208230423/08/202200000000400000000000000004666KGM  00000005546KGM  7287-8073                HOUSING FEMALE ASS'Y     72878073                 0         0         0         0    0    0    00000960000000240000000244000023424000
AE00TI102208230423/08/202200000001200000000000000010244KGM  00000012542KGM  7287-9155                HOUSING FEMALE ASS'Y     72879155                 0         0         0         0    0    0    00001152000000096000000357000041126400
AE00TI102208230423/08/202200000001200000000000000004651KGM  00000009451KGM  7288-3206                HOUSING MALE ASS'Y       72883206                 0         0         0         0    0    0    00001224000000102000000351000042962400
AE00TI102208230423/08/202200000002300000000000000015787KGM  00000020732KGM  7289-3342                HOUSING FEMALE ASS'Y     72893342                 0         0         0         0    0    0    00005520000000240000000186000102672000
AE00TI102208230423/08/202200000003500000000000000024024KGM  00000031549KGM  7289-3342-30             HOUSING FEMALE ASS'Y     7289334230               0         0         0         0    0    0    00008400000000240000000191000160440000
AE00TI102208230423/08/202200000001000000000000000006864KGM  00000009014KGM  7289-3342-40             HOUSING FEMALE ASS'Y     7289334240               0         0         0         0    0    0    00002400000000240000000192000046080000
AE00TI102208230423/08/202200000000900000000000000006178KGM  00000008113KGM  7289-3342-90             HOUSING FEMALE ASS'Y     7289334290               0         0         0         0    0    0    00002160000000240000000196000042336000
AE00TI102208230423/08/202200000000500000000000000004567KGM  00000005277KGM  7289-4696-30             HOUSING FEMALE ASS'Y     7289469630               0         0         0         0    0    0    00001000000000200000000410000041000000
AE00TI102208230423/08/202200000001600000000000000018432KGM  00000021792KGM  7289-6547                HOUSING FEMALE ASS'Y     72896547                 0         0         0         0    0    0    00003840000000240000000229000087936000
AE00TI102208230423/08/202200000000200000000000000002324KGM  00000002569KGM  7386-2747                CONNECTOR ASS'Y          73862747                 0         0         0         0    0    0    00000400000000200000000413000016520000
AE00TI102208230523/08/202200000004000000000000000009504KGM  00000019504KGM  7271-1818-30             CASE SUB ASSY,ECU        7271181830               0         0         0         0    0    0    00000072000000001800009388000067593600
