BI00A32D9    C225A          202209021801W006980              IVSSH 0.35F BR           CCN000005000000005000FN00000000020220901000005000NNE   20220823151125    1W    00000250000000452000000000032D9    UEHESTO 000000000000HM328002
BI00A32D9    C225A          20220902180D0203730              AVSSH 0.3F B             CCN000004000000004000FN00000000020220901000004000NNE   20220823151125    1W    00000200000000515000000000032D9    UEHESTO 000000000000HM328001
BI00B32H2    TAW2102        20220916180D0203943              AVSSH 0.5F W/B           CCN000003000000001500FN00000000020221001000001500NNM12 20220823133519    1W    00000150000000689000000000032H2    HVYHV   000000000000UH528052
BI00A32H8    @2209BKMW      20220824181B0910241              CAVSAS 0.5X2 GY          CCN000003600000003600FN00000000020220901000003600NNE   20220823131538    1W    00000030000002680000000000032H8    TYTYC   000000000000LR228001
BI00B32H8    @2209CKMW      20220916181B0910241              CAVSAS 0.5X2 GY          CCN000003300000003300FN00000000020220901000003300NNE   20220823130852    1W    00000030000002680000000000032H8    TYTYC   000000000000LS528001
BI00B32Q8    @EW2209CNMW    20220831181AD2008ZZ              CIVUSAS-S 0.5X2 B        CCN000000400000000400FN00000000020220901000000400NNE   20220823145340    1W    00000040000002028000000000032Q8    EMEMI   000000000000MA328001
BI00B32W4    @4500199064    20220920181E50002ZZ              AVSSCS-S 0.3FX2 DGY/G    CCN000008750000008750FN00000000020220801000008750NNE   20220823100127W4591W    00000035000002165000000000032W459  HJYHK-J 000000000000OT129001
BI00B32W4    4500199038     2022101818018403791              CAVS 0.3 SB              CCN000006000000006000FN00000000020221001000006000NNE   20220823100129W41 1W    00000200000000471000000000032W41   HJYHK-J 000000000000OA12A008
BI00B32W4    4500199038     2022101818018403740              CAVS 0.3 W               CCN000020000000020000FN00000000020221001000020000NNE   20220823100129W41 1W    00000200000000471000000000032W41   HJYHK-J 000000000000OA12A010
BI00B32W4    4500199038     2022101818018403730              CAVS 0.3 B               CCN000002000000002000FN00000000020221001000002000NNE   20220823100129W41 1W    00000200000000471000000000032W41   HJYHK-J 000000000000OA12A002
BI00B32W4    4500199038     2022101818018403752              CAVS 0.3 P               CCN000010000000010000FN00000000020221001000010000NNE   20220823100129W41 1W    00000200000000471000000000032W41   HJYHK-J 000000000000OA12A007
BI00B32W4    4500199038     2022101818018403760              CAVS 0.3 G               CCN000012000000012000FN00000000020221001000012000NNE   20220823100129W41 1W    00000200000000471000000000032W41   HJYHK-J 000000000000OA12A004
BI00B32W4    4500199038     2022101818018403770              CAVS 0.3 Y               CCN000008000000008000FN00000000020221001000008000NNE   20220823100129W41 1W    00000200000000471000000000032W41   HJYHK-J 000000000000OA12A011
BI00B32W4    4500199038     2022101818018403780              CAVS 0.3 BR              CCN000008000000008000FN00000000020221001000008000NNE   20220823100129W41 1W    00000200000000471000000000032W41   HJYHK-J 000000000000OA12A003
BI00B32W4    4500199038     2022101818018403790              CAVS 0.3 L               CCN000016000000016000FN00000000020221001000016000NNE   20220823100129W41 1W    00000200000000471000000000032W41   HJYHK-J 000000000000OA12A005
BI00B32W4    4500199038     2022101818018403792              CAVS 0.3 V               CCN000008000000008000FN00000000020221001000008000NNE   20220823100129W41 1W    00000200000000471000000000032W41   HJYHK-J 000000000000OA12A009
BI00B32W4    4500199038     2022101818018403761              CAVS 0.3 LG              CCN000002000000002000FN00000000020221001000002000NNE   20220823100129W41 1W    00000200000000471000000000032W41   HJYHK-J 000000000000OA12A006
BI00B32W4    4500199038     2022101818018403941              CAVS 0.5 GY              CCN000012000000012000FN00000000020221001000012000NNE   20220823100129W41 1W    00000150000000677000000000032W41   HJYHK-J 000000000000OA12A013
BI00B32W4    4500199038     2022101818018403950              CAVS 0.5 R               CCN000009000000009000FN00000000020221001000009000NNE   20220823100129W41 1W    00000150000000677000000000032W41   HJYHK-J 000000000000OA12A017
BI00B32W4    4500199038     2022101818018403951              CAVS 0.5 O               CCN000028500000028500FN00000000020221001000028500NNE   20220823100129W41 1W    00000150000000677000000000032W41   HJYHK-J 000000000000OA12A015
BI00B32W4    4500199038     2022101818018403952              CAVS 0.5 P               CCN000037500000037500FN00000000020221001000037500NNE   20220823100129W41 1W    00000150000000677000000000032W41   HJYHK-J 000000000000OA12A016
BI00B32W4    4500199038     2022101818018403970              CAVS 0.5 Y               CCN000018000000018000FN00000000020221001000018000NNE   20220823100129W41 1W    00000150000000677000000000032W41   HJYHK-J 000000000000OA12A018
BI00B32W4    4500199038     2022101818018403980              CAVS 0.5 BR              CCN000007500000007500FN00000000020221001000007500NNE   20220823100129W41 1W    00000150000000677000000000032W41   HJYHK-J 000000000000OA12A012
BI00B32W4    4500199038     2022101818018403990              CAVS 0.5 L               CCN000037500000037500FN00000000020221001000037500NNE   20220823100129W41 1W    00000150000000677000000000032W41   HJYHK-J 000000000000OA12A014
BI00B32W4    4500199038     2022101818018404030              CAVS 0.85 B              CCN000026000000026000FN00000000020221001000026000NNE   20220823100129W41 1W    00000100000000965000000000032W41   HJYHK-J 000000000000OA12A019
BI00B32W4    4500199038     2022101818018404040              CAVS 0.85 W              CCN000009000000009000FN00000000020221001000009000NNE   20220823100129W41 1W    00000100000000965000000000032W41   HJYHK-J 000000000000OA12A029
BI00B32W4    4500199038     2022101818018404041              CAVS 0.85 GY             CCN000018000000018000FN00000000020221001000018000NNE   20220823100129W41 1W    00000100000000965000000000032W41   HJYHK-J 000000000000OA12A022
BI00B32W4    4500199038     2022101818018404050              CAVS 0.85 R              CCN000027000000027000FN00000000020221001000027000NNE   20220823100129W41 1W    00000100000000965000000000032W41   HJYHK-J 000000000000OA12A026
BI00B32W4    4500199038     2022101818018404051              CAVS 0.85 O              CCN000008000000008000FN00000000020221001000008000NNE   20220823100129W41 1W    00000100000000965000000000032W41   HJYHK-J 000000000000OA12A024
BI00B32W4    4500199038     2022101818018404052              CAVS 0.85 P              CCN000006000000006000FN00000000020221001000006000NNE   20220823100129W41 1W    00000100000000965000000000032W41   HJYHK-J 000000000000OA12A025
BI00B32W4    4500199038     2022101818018404060              CAVS 0.85 G              CCN000009000000009000FN00000000020221001000009000NNE   20220823100129W41 1W    00000100000000965000000000032W41   HJYHK-J 000000000000OA12A021
BI00B32W4    4500199038     2022101818018404061              CAVS 0.85 LG             CCN000003000000003000FN00000000020221001000003000NNE   20220823100129W41 1W    00000100000000965000000000032W41   HJYHK-J 000000000000OA12A023
BI00B32W4    4500199038     2022101818018404070              CAVS 0.85 Y              CCN000016000000016000FN00000000020221001000016000NNE   20220823100129W41 1W    00000100000000965000000000032W41   HJYHK-J 000000000000OA12A030
BI00B32W4    4500199038     2022101818018404080              CAVS 0.85 BR             CCN000007000000007000FN00000000020221001000007000NNE   20220823100129W41 1W    00000100000000965000000000032W41   HJYHK-J 000000000000OA12A020
BI00B32W4    4500199038     2022101818018404091              CAVS 0.85 SB             CCN000008000000008000FN00000000020221001000008000NNE   20220823100129W41 1W    00000100000000965000000000032W41   HJYHK-J 000000000000OA12A027
BI00B32W4    4500199038     2022101818018404092              CAVS 0.85 V              CCN000002000000002000FN00000000020221001000002000NNE   20220823100129W41 1W    00000100000000965000000000032W41   HJYHK-J 000000000000OA12A028
BI00B32W4    4500199038     2022101818018404150              CAVS 1.25 R              CCN000001600000001600FN00000000020221001000001600NNE   20220823100129W41 1W    00000080000001378000000000032W41   HJYHK-J 000000000000OA12A031
BI00B32W4    @4500199038    20221018181B32116Z6              AVSSCS 0.3FX2 DGY/V      CCN000000700000000700FN00000000020221001000000700NNE   20220823100128W41 1W    00000035000002276000000000032W41   HJYHK-J 000000000000OA12A001
BI00B32W4    4500199051     2022101118018403795              CAVS 0.3 L/R             CCN000002000000002000FN00000000020221001000002000NNE   20220823100130W41 1W    00000200000000471000000000032W41   HJYHK-J 000000000000OY429001
BI00B32W4    4500199051     2022101118018404194              CAVS 1.25 L/W            CCN000000800000000800FN00000000020221001000000800NNE   20220823100130W41 1W    00000080000001378000000000032W41   HJYHK-J 000000000000OY429002
BI00B32W4    4500199053     2022101818018403791              CAVS 0.3 SB              CCN000014000000014000FN00000000020221001000014000NNE   20220823100130W41 1W    00000200000000471000000000032W41   HJYHK-J 000000000000OB12A024
BI00B32W4    4500199053     2022101818018403740              CAVS 0.3 W               CCN000008000000008000FN00000000020221001000008000NNE   20220823100130W41 1W    00000200000000471000000000032W41   HJYHK-J 000000000000OB12A026
BI00B32W4    4500199053     2022101818018403730              CAVS 0.3 B               CCN000022000000022000FN00000000020221001000022000NNE   20220823100130W41 1W    00000200000000471000000000032W41   HJYHK-J 000000000000OB12A011
BI00B32W4    4500199053     2022101818018403750              CAVS 0.3 R               CCN000014000000014000FN00000000020221001000014000NNE   20220823100130W41 1W    00000200000000471000000000032W41   HJYHK-J 000000000000OB12A021
BI00B32W4    4500199053     2022101818018403752              CAVS 0.3 P               CCN000006000000006000FN00000000020221001000006000NNE   20220823100130W41 1W    00000200000000471000000000032W41   HJYHK-J 000000000000OB12A020
BI00B32W4    4500199053     2022101818018403760              CAVS 0.3 G               CCN000016000000016000FN00000000020221001000016000NNE   20220823100130W41 1W    00000200000000471000000000032W41   HJYHK-J 000000000000OB12A013
BI00B32W4    4500199053     2022101818018403770              CAVS 0.3 Y               CCN000012000000012000FN00000000020221001000012000NNE   20220823100130W41 1W    00000200000000471000000000032W41   HJYHK-J 000000000000OB12A028
BI00B32W4    4500199053     2022101818018403780              CAVS 0.3 BR              CCN000004000000004000FN00000000020221001000004000NNE   20220823100130W41 1W    00000200000000471000000000032W41   HJYHK-J 000000000000OB12A012
BI00B32W4    4500199053     2022101818018403790              CAVS 0.3 L               CCN000010000000010000FN00000000020221001000010000NNE   20220823100130W41 1W    00000200000000471000000000032W41   HJYHK-J 000000000000OB12A015
BI00B32W4    4500199053     2022101818018403792              CAVS 0.3 V               CCN000018000000018000FN00000000020221001000018000NNE   20220823100130W41 1W    00000200000000471000000000032W41   HJYHK-J 000000000000OB12A025
BI00B32W4    4500199053     2022101818018403761              CAVS 0.3 LG              CCN000012000000012000FN00000000020221001000012000NNE   20220823100130W41 1W    00000200000000471000000000032W41   HJYHK-J 000000000000OB12A018
BI00B32W4    4500199053     2022101818018403741              CAVS 0.3 GY              CCN000012000000012000FN00000000020221001000012000NNE   20220823100130W41 1W    00000200000000471000000000032W41   HJYHK-J 000000000000OB12A014
BI00B32W4    4500199053     2022101818018403751              CAVS 0.3 O               CCN000006000000006000FN00000000020221001000006000NNE   20220823100130W41 1W    00000200000000471000000000032W41   HJYHK-J 000000000000OB12A019
BI00B32W4    4500199053     2022101818018403757              CAVS 0.3 R/Y             CCN000002000000002000FN00000000020221001000002000NNE   20220823100130W41 1W    00000200000000471000000000032W41   HJYHK-J 000000000000OB12A023
BI00B32W4    4500199053     2022101818018403753              CAVS 0.3 R/B             CCN000002000000002000FN00000000020221001000002000NNE   20220823100130W41 1W    00000200000000471000000000032W41   HJYHK-J 000000000000OB12A022
BI00B32W4    4500199053     2022101818018403793              CAVS 0.3 L/B             CCN000002000000002000FN00000000020221001000002000NNE   20220823100130W41 1W    00000200000000471000000000032W41   HJYHK-J 000000000000OB12A016
BI00B32W4    4500199053     2022101818018403795              CAVS 0.3 L/R             CCN000002000000002000FN00000000020221001000002000NNE   20220823100130W41 1W    00000200000000471000000000032W41   HJYHK-J 000000000000OB12A017
BI00B32W4    4500199053     2022101818018403749              CAVS 0.3 W/L             CCN000008000000008000FN00000000020221001000008000NNE   20220823100130W41 1W    00000200000000471000000000032W41   HJYHK-J 000000000000OB12A027
BI00B32W4    4500199053     2022101818018403934              CAVS 0.5 B/W             CCN000012000000012000FN00000000020221001000012000NNE   20220823100130W41 1W    00000150000000677000000000032W41   HJYHK-J 000000000000OB12A030
BI00B32W4    4500199053     2022101818018403930              CAVS 0.5 B               CCN000019500000019500FN00000000020221001000019500NNE   20220823100130W41 1W    00000150000000677000000000032W41   HJYHK-J 000000000000OB12A029
BI00B32W4    4500199053     2022101818018403941              CAVS 0.5 GY              CCN000009000000009000FN00000000020221001000009000NNE   20220823100130W41 1W    00000150000000677000000000032W41   HJYHK-J 000000000000OB12A032
BI00B32W4    4500199053     2022101818018403950              CAVS 0.5 R               CCN000003000000003000FN00000000020221001000003000NNE   20220823100130W41 1W    00000150000000677000000000032W41   HJYHK-J 000000000000OB12A035
BI00B32W4    4500199053     2022101818018403952              CAVS 0.5 P               CCN000001500000001500FN00000000020221001000001500NNE   20220823100130W41 1W    00000150000000677000000000032W41   HJYHK-J 000000000000OB12A034
BI00B32W4    4500199053     2022101818018403960              CAVS 0.5 G               CCN000001500000001500FN00000000020221001000001500NNE   20220823100130W41 1W    00000150000000677000000000032W41   HJYHK-J 000000000000OB12A031
BI00B32W4    4500199053     2022101818018403961              CAVS 0.5 LG              CCN000004500000004500FN00000000020221001000004500NNE   20220823100130W41 1W    00000150000000677000000000032W41   HJYHK-J 000000000000OB12A033
BI00B32W4    4500199053     2022101818018403970              CAVS 0.5 Y               CCN000001500000001500FN00000000020221001000001500NNE   20220823100130W41 1W    00000150000000677000000000032W41   HJYHK-J 000000000000OB12A038
BI00B32W4    4500199053     2022101818018403991              CAVS 0.5 SB              CCN000009000000009000FN00000000020221001000009000NNE   20220823100130W41 1W    00000150000000677000000000032W41   HJYHK-J 000000000000OB12A036
BI00B32W4    4500199053     2022101818018403992              CAVS 0.5 V               CCN000007500000007500FN00000000020221001000007500NNE   20220823100130W41 1W    00000150000000677000000000032W41   HJYHK-J 000000000000OB12A037
BI00B32W4    4500199053     2022101818018404130              CAVS 1.25 B              CCN000002400000002400FN00000000020221001000002400NNE   20220823100130W41 1W    00000080000001378000000000032W41   HJYHK-J 000000000000OB12A039
BI00B32W4    4500199053     2022101818018404194              CAVS 1.25 L/W            CCN000000800000000800FN00000000020221001000000800NNE   20220823100130W41 1W    00000080000001378000000000032W41   HJYHK-J 000000000000OB12A040
BI00B32W4    4500199053     202210181801R706950              CIVUS 0.35 R             CCN000003000000003000FN00000000020221001000003000NNE   20220823100130W41 1W    00000300000000386000000000032W41   HJYHK-J 000000000000OB12A009
BI00B32W4    4500199053     202210181801R706930              CIVUS 0.35 B             CCN000006000000006000FN00000000020221001000006000NNE   20220823100130W41 1W    00000300000000386000000000032W41   HJYHK-J 000000000000OB12A006
BI00B32W4    4500199053     202210181801R706970              CIVUS 0.35 Y             CCN000006000000006000FN00000000020221001000006000NNE   20220823100130W41 1W    00000300000000386000000000032W41   HJYHK-J 000000000000OB12A010
BI00B32W4    4500199053     202210181801R706990              CIVUS 0.35 L             CCN000003000000003000FN00000000020221001000003000NNE   20220823100130W41 1W    00000300000000386000000000032W41   HJYHK-J 000000000000OB12A008
BI00B32W4    4500199053     202210181801R706980              CIVUS 0.35 BR            CCN000003000000003000FN00000000020221001000003000NNE   20220823100130W41 1W    00000300000000386000000000032W41   HJYHK-J 000000000000OB12A007
BI00B32W4    4500199053     202210181801R703930              CIVUS 0.5 B              CCN000002200000002200FN00000000020221001000002200NNE   20220823100130W41 1W    00000220000000525000000000032W41   HJYHK-J 000000000000OB12A004
BI00B32W4    4500199053     202210181801R703970              CIVUS 0.5 Y              CCN000002200000002200FN00000000020221001000002200NNE   20220823100130W41 1W    00000220000000525000000000032W41   HJYHK-J 000000000000OB12A005
BI00B32W4    @4500199053    20221018181B0911611              CAVSAS 0.3X2 GY/L        CCN000002100000002100FN00000000020221001000002100NNE   20220823100128W41 1W    00000035000002254000000000032W41   HJYHK-J 000000000000OB12A002
BI00B32W4    @4500199053    20221018181B09116K3              CAVSAS 0.3X2 GY/P        CCN000003850000003850FN00000000020221001000003850NNE   20220823100128W41 1W    00000035000002254000000000032W41   HJYHK-J 000000000000OB12A003
BI00B32W4    @4500199053    20221018181B0911641              CAVSAS 0.3X2 GY          CCN000002100000002100FN00000000020221001000002100NNE   20220823100128W41 1W    00000035000002254000000000032W41   HJYHK-J 000000000000OB12A001
