BI00B32AF    TTB209A        2022081118007704150              AVSS 1.25F R             CCN000001600000001600FN00000000020220901000001600NNE   20220720090103    1W    00000080000001389000000000032AF    HBYHVTB 000000000000UW427001
BI00B32AF    TTB209A        2022081118007704140              AVSS 1.25F W             CCN000001600000001600FN00000000020220901000001600NNE   20220720090103    1W    00000080000001389000000000032AF    HBYHVTB 000000000000UW427002
BI00B32AF    TTB209B        2022082618007704150              AVSS 1.25F R             CCN000006400000006400FN00000000020220901000006400NNE   20220720090105    1W    00000080000001389000000000032AF    HBYHVTB 000000000000UU228001
BI00B32AF    TTB209B        2022082618007704140              AVSS 1.25F W             CCN000006400000006400FN00000000020220901000006400NNE   20220720090105    1W    00000080000001389000000000032AF    HBYHVTB 000000000000UU228002
BI00B32A7    @ZZ2209ALMW    20220817181E48040ZZ              CAVSAS-S 0.3X2 GY/V      CCN000004550000004550FN00000000020220901000004550NNE   20220720090146    1W    00000035000002008700000000032A7    ZZZZY   000000000000ZS128001
BI00B32CJ    TTQ2091        2022081118000004530              AV 8 B                   CCN000001000000000000FY00000000020220901000000000NNM10 20220720095524    1W    00000010000010466200000000032CJ    QNYHVQN 000000000000UQ427016
BI00B32CJ    TTQ2092        2022081918000004530              AV 8 B                   CCN000002600000000000FY00000000020220901000000000NNM10 20220720094823    1W    00000010000010466200000000032CJ    QNYHVQN 000000000000UQ128026
BI00B32CJ    TTQ2093        2022082618000004530              AV 8 B                   CCN000002800000000000FY00000000020220901000000000NNM10 20220720095111    1W    00000010000010466200000000032CJ    QNYHVQN 000000000000UQ228027
BI00B32CJ    TTQ2091        2022081118007704130              AVSS 1.25F B             CCN000000800000000000FY00000000020220901000000000NNM10 20220720095604    1W    00000080000001389000000000032CJ    QNYHVQN 000000000000UQ427018
BI00B32CJ    TTQ2093        20220826180D0204040              AVSSH 0.75F W            CCN000003000000000000FY00000000020220901000000000NNM10 20220720095124    1W    00000100000000934000000000032CJ    QNYHVQN 000000000000UQ228025
BI00B32CJ    TTQ209A        20220811180D0203730              AVSSH 0.3F B             CCN000004000000000000FY00000000020220901000000000NNE10 20220720095255    1W    00000200000000515000000000032CJ    QNYHVQN 000000000000UM427001
BI00B32P8    TAPAW-210A1    2022081718009604030              AVS 0.85 B               CCN000001000000001000FN00000000020221001000001000NNE   20220720090501    1W    00000100000001167700000000032P8    YIYTM   000000000000YA128072
BI00B32P8    TAPAW-210A1    20220817180096040F0              AVS 0.85 GY/B            CCN000002000000002000FN00000000020221001000002000NNE   20220720090501    1W    00000100000001167700000000032P8    YIYTM   000000000000YA128073
BI00B32P8    TAPAW-210A1    2022081718007703780              AVSS 0.3F BR             CCN000004000000004000FN00000000020221001000004000NNE   20220720090501    1W    00000200000000496000000000032P8    YIYTM   000000000000YA128040
BI00B32P8    TAPAW-210A1    2022081718007703763              AVSS 0.3F G/B            CCN000004000000004000FN00000000020221001000004000NNE   20220720090501    1W    00000200000000496000000000032P8    YIYTM   000000000000YA128041
BI00B32P8    TAPAW-210A1    2022081718007703741              AVSS 0.3F GY             CCN000002000000002000FN00000000020221001000002000NNE   20220720090501    1W    00000200000000496000000000032P8    YIYTM   000000000000YA128042
BI00B32P8    TAPAW-210A1    2022081718007703790              AVSS 0.3F L              CCN000002000000002000FN00000000020221001000002000NNE   20220720090501    1W    00000200000000496000000000032P8    YIYTM   000000000000YA128043
BI00B32P8    TAPAW-210A1    2022081718007703797              AVSS 0.3F L/Y            CCN000004000000004000FN00000000020221001000004000NNE   20220720090501    1W    00000200000000496000000000032P8    YIYTM   000000000000YA128044
BI00B32P8    TAPAW-210A1    2022081718007703761              AVSS 0.3F LG             CCN000002000000002000FN00000000020221001000002000NNE   20220720090501    1W    00000200000000496000000000032P8    YIYTM   000000000000YA128045
BI00B32P8    TAPAW-210A1    2022081718007703777              AVSS 0.3F O/L            CCN000004000000004000FN00000000020221001000004000NNE   20220720090501    1W    00000200000000496000000000032P8    YIYTM   000000000000YA128047
BI00B32P8    TAPAW-210A1    2022081718007703750              AVSS 0.3F R              CCN000008000000008000FN00000000020221001000008000NNE   20220720090501    1W    00000200000000496000000000032P8    YIYTM   000000000000YA128048
BI00B32P8    TAPAW-210A1    2022081718007703753              AVSS 0.3F R/B            CCN000004000000004000FN00000000020221001000004000NNE   20220720090501    1W    00000200000000496000000000032P8    YIYTM   000000000000YA128049
BI00B32P8    TAPAW-210A1    2022081718007703756              AVSS 0.3F R/G            CCN000004000000004000FN00000000020221001000004000NNE   20220720090501    1W    00000200000000496000000000032P8    YIYTM   000000000000YA128050
BI00B32P8    TAPAW-210A1    2022081718007703759              AVSS 0.3F R/L            CCN000002000000002000FN00000000020221001000002000NNE   20220720090501    1W    00000200000000496000000000032P8    YIYTM   000000000000YA128051
BI00B32P8    TAPAW-210A1    2022081718007703754              AVSS 0.3F R/W            CCN000004000000004000FN00000000020221001000004000NNE   20220720090501    1W    00000200000000496000000000032P8    YIYTM   000000000000YA128052
BI00B32P8    TAPAW-210A1    2022081718007703791              AVSS 0.3F SB             CCN000002000000002000FN00000000020221001000002000NNE   20220720090501    1W    00000200000000496000000000032P8    YIYTM   000000000000YA128053
BI00B32P8    TAPAW-210A1    2022081718007703743              AVSS 0.3F W/B            CCN000002000000002000FN00000000020221001000002000NNE   20220720090501    1W    00000200000000496000000000032P8    YIYTM   000000000000YA128055
BI00B32P8    TAPAW-210A1    2022081718007703746              AVSS 0.3F W/G            CCN000002000000002000FN00000000020221001000002000NNE   20220720090501    1W    00000200000000496000000000032P8    YIYTM   000000000000YA128056
BI00B32P8    TAPAW-210A1    2022081718007703903              AVSS 0.5F B/O            CCN000001500000001500FN00000000020221001000001500NNE   20220720090501    1W    00000150000000674000000000032P8    YIYTM   000000000000YA128057
BI00B32P8    TAPAW-210A1    2022081718007703963              AVSS 0.5F G/B            CCN000004500000004500FN00000000020221001000004500NNE   20220720090501    1W    00000150000000674000000000032P8    YIYTM   000000000000YA128058
BI00B32P8    TAPAW-210A1    2022081718007703961              AVSS 0.5F LG             CCN000003000000003000FN00000000020221001000003000NNE   20220720090501    1W    00000150000000674000000000032P8    YIYTM   000000000000YA128059
BI00B32P8    TAPAW-210A1    2022081718007703909              AVSS 0.5F LG/R           CCN000003000000003000FN00000000020221001000003000NNE   20220720090501    1W    00000150000000674000000000032P8    YIYTM   000000000000YA128060
BI00B32P8    TAPAW-210A1    20220817180077039M3              AVSS 0.5F O/B            CCN000003000000003000FN00000000020221001000003000NNE   20220720090501    1W    00000150000000674000000000032P8    YIYTM   000000000000YA128062
BI00B32P8    TAPAW-210A1    2022081718007703977              AVSS 0.5F O/L            CCN000006000000006000FN00000000020221001000006000NNE   20220720090501    1W    00000150000000674000000000032P8    YIYTM   000000000000YA128063
BI00B32P8    TAPAW-210A1    2022081718007703952              AVSS 0.5F P              CCN000006000000006000FN00000000020221001000006000NNE   20220720090501    1W    00000150000000674000000000032P8    YIYTM   000000000000YA128064
BI00B32P8    TAPAW-210A1    20220817180077039G6              AVSS 0.5F P/L            CCN000003000000003000FN00000000020221001000003000NNE   20220720090501    1W    00000150000000674000000000032P8    YIYTM   000000000000YA128065
BI00B32P8    TAPAW-210A1    2022081718007703956              AVSS 0.5F R/G            CCN000006000000006000FN00000000020221001000006000NNE   20220720090501    1W    00000150000000674000000000032P8    YIYTM   000000000000YA128066
BI00B32P8    TAPAW-210A1    2022081718007704052              AVSS 0.75F P             CCN000005000000005000FN00000000020221001000005000NNE   20220720090501    1W    00000100000000943000000000032P8    YIYTM   000000000000YA128069
BI00B32P8    TAPAW-210A1    2022081718007704195              AVSS 1.25F L/R           CCN000000800000000800FN00000000020221001000000800NNE   20220720090501    1W    00000080000001389000000000032P8    YIYTM   000000000000YA128070
BI00B32P8    TAPAW-210A1    2022081718007704145              AVSS 1.25F W/R           CCN000002400000002400FN00000000020221001000002400NNE   20220720090501    1W    00000080000001389000000000032P8    YIYTM   000000000000YA128071
BI00B32P8    TAPAW-210A1    20220817180D0203934              AVSSH 0.5F B/W           CCN000003000000003000FN00000000020221001000003000NNE   20220720090501    1W    00000150000000689000000000032P8    YIYTM   000000000000YA128030
BI00B32P8    TAPAW-210A1    20220817180D0203937              AVSSH 0.5F B/Y           CCN000013500000013500FN00000000020221001000013500NNE   20220720090501    1W    00000150000000689000000000032P8    YIYTM   000000000000YA128031
BI00B32P8    TAPAW-210A1    20220817180D0203940              AVSSH 0.5F W             CCN000004500000004500FN00000000020221001000004500NNE   20220720090501    1W    00000150000000689000000000032P8    YIYTM   000000000000YA128032
BI00B32P8    TAPAW-210A1    20220817180D0203973              AVSSH 0.5F Y/B           CCN000001500000001500FN00000000020221001000001500NNE   20220720090501    1W    00000150000000689000000000032P8    YIYTM   000000000000YA128033
BI00B32P8    TAPAW-210A1    20220817180D0204054              AVSSH 0.75F R/W          CCN000003000000003000FN00000000020221001000003000NNE   20220720090501    1W    00000100000000934000000000032P8    YIYTM   000000000000YA128034
BI00B32P8    TAPAW-210A1    20220817180D0204070              AVSSH 0.75F Y            CCN000002000000002000FN00000000020221001000002000NNE   20220720090501    1W    00000100000000934000000000032P8    YIYTM   000000000000YA128036
BI00B32P8    TAPAW-210A1    202208171801W004043              IVSSH 0.75F W/B          CCN000002600000002600FN00000000020221001000002600NNE   20220720090501    1W    00000130000000882000000000032P8    YIYTM   000000000000YA128074
BI00B32P8    TAPAW-210A1    2022081718000004590              AV 8 L                   CCN000011200000011200FN00000000020221001000011200NNE   20220720090501    1W    00000010000010466200000000032P8    YIYTM   000000000000YA128037
BI00B32P8    TAPAW-210A1    2022081718000004553              AV 8 R/B                 CCN000000600000000600FN00000000020221001000000600NNE   20220720090501    1W    00000010000010466200000000032P8    YIYTM   000000000000YA128038
BI00B32P8    TAPAW-210A1    2022081718000004554              AV 8 R/W                 CCN000000600000000600FN00000000020221001000000600NNE   20220720090501    1W    00000010000010466200000000032P8    YIYTM   000000000000YA128039
BI00B32P8    TAPAW-210A1    2022081718007703717              AVSS 0.3F LG/B           CCN000004000000004000FN00000000020221001000004000NNE   20220720090501    1W    00000200000000496000000000032P8    YIYTM   000000000000YA128046
BI00B32P8    TAPAW-210A1    20220817180077037G4              AVSS 0.3F V/R            CCN000004000000004000FN00000000020221001000004000NNE   20220720090501    1W    00000200000000496000000000032P8    YIYTM   000000000000YA128054
BI00B32P8    TAPAW-210A1    2022081718007703928              AVSS 0.5F LG/Y           CCN000003000000003000FN00000000020221001000003000NNE   20220720090501    1W    00000150000000674000000000032P8    YIYTM   000000000000YA128061
BI00B32P8    TAPAW-210A1    20220817180077040M3              AVSS 0.75F O/B           CCN000002000000002000FN00000000020221001000002000NNE   20220720090501    1W    00000100000000943000000000032P8    YIYTM   000000000000YA128067
BI00B32P8    TAPAW-210A1    2022081718007704077              AVSS 0.75F O/L           CCN000002000000002000FN00000000020221001000002000NNE   20220720090501    1W    00000100000000943000000000032P8    YIYTM   000000000000YA128068
BI00B32P8    TAPAW-210A1    20220817180D0204092              AVSSH 0.75F V            CCN000002000000002000FN00000000020221001000002000NNE   20220720090501    1W    00000100000000934000000000032P8    YIYTM   000000000000YA128035
BI00B32W4    4500196948     2022081618018403792              CAVS 0.3 V               CCN000006000000006000FN00000000020220801000006000NNE   20220720091948W41 1W    00000200000000471000000000032W41   HJYHK-J 000000000000OK128003
BI00B32W4    4500196948     2022081618018403761              CAVS 0.3 LG              CCN000002000000002000FN00000000020220801000002000NNE   20220720091948W41 1W    00000200000000471000000000032W41   HJYHK-J 000000000000OK128002
BI00B32W4    @4500196948    20220816181B32116Z6              AVSSCS 0.3FX2 DGY/V      CCN000001400000001400FN00000000020220801000001400NNE   20220720091947W41 1W    00000035000002276000000000032W41   HJYHK-J 000000000000OK128001
BI00B32W4    4500196950     2022083018018403791              CAVS 0.3 SB              CCN000006000000006000FN00000000020220801000006000NNE   20220720091949W41 1W    00000200000000471000000000032W41   HJYHK-J 000000000000OX328006
BI00B32W4    4500196950     2022083018018403740              CAVS 0.3 W               CCN000010000000010000FN00000000020220801000010000NNE   20220720091949W41 1W    00000200000000471000000000032W41   HJYHK-J 000000000000OX328007
BI00B32W4    4500196950     2022083018018403750              CAVS 0.3 R               CCN000002000000002000FN00000000020220801000002000NNE   20220720091949W41 1W    00000200000000471000000000032W41   HJYHK-J 000000000000OX328005
BI00B32W4    4500196950     2022083018018403752              CAVS 0.3 P               CCN000008000000008000FN00000000020220801000008000NNE   20220720091949W41 1W    00000200000000471000000000032W41   HJYHK-J 000000000000OX328004
BI00B32W4    4500196950     2022083018018403760              CAVS 0.3 G               CCN000006000000006000FN00000000020220801000006000NNE   20220720091949W41 1W    00000200000000471000000000032W41   HJYHK-J 000000000000OX328002
BI00B32W4    4500196950     2022083018018403770              CAVS 0.3 Y               CCN000004000000004000FN00000000020220801000004000NNE   20220720091949W41 1W    00000200000000471000000000032W41   HJYHK-J 000000000000OX328008
BI00B32W4    4500196950     2022083018018403780              CAVS 0.3 BR              CCN000004000000004000FN00000000020220801000004000NNE   20220720091949W41 1W    00000200000000471000000000032W41   HJYHK-J 000000000000OX328001
BI00B32W4    4500196950     2022083018018403790              CAVS 0.3 L               CCN000012000000012000FN00000000020220801000012000NNE   20220720091949W41 1W    00000200000000471000000000032W41   HJYHK-J 000000000000OX328003
BI00B32W4    4500196950     2022083018018403930              CAVS 0.5 B               CCN000006000000006000FN00000000020220801000006000NNE   20220720091949W41 1W    00000150000000677000000000032W41   HJYHK-J 000000000000OX328009
BI00B32W4    4500196950     2022083018018403941              CAVS 0.5 GY              CCN000006000000006000FN00000000020220801000006000NNE   20220720091949W41 1W    00000150000000677000000000032W41   HJYHK-J 000000000000OX328012
BI00B32W4    4500196950     2022083018018403950              CAVS 0.5 R               CCN000016500000016500FN00000000020220801000016500NNE   20220720091949W41 1W    00000150000000677000000000032W41   HJYHK-J 000000000000OX328017
BI00B32W4    4500196950     2022083018018403951              CAVS 0.5 O               CCN000019500000019500FN00000000020220801000019500NNE   20220720091949W41 1W    00000150000000677000000000032W41   HJYHK-J 000000000000OX328015
BI00B32W4    4500196950     2022083018018403952              CAVS 0.5 P               CCN000016500000016500FN00000000020220801000016500NNE   20220720091949W41 1W    00000150000000677000000000032W41   HJYHK-J 000000000000OX328016
BI00B32W4    4500196950     2022083018018403960              CAVS 0.5 G               CCN000001500000001500FN00000000020220801000001500NNE   20220720091949W41 1W    00000150000000677000000000032W41   HJYHK-J 000000000000OX328011
BI00B32W4    4500196950     2022083018018403961              CAVS 0.5 LG              CCN000001500000001500FN00000000020220801000001500NNE   20220720091949W41 1W    00000150000000677000000000032W41   HJYHK-J 000000000000OX328014
BI00B32W4    4500196950     2022083018018403970              CAVS 0.5 Y               CCN000004500000004500FN00000000020220801000004500NNE   20220720091949W41 1W    00000150000000677000000000032W41   HJYHK-J 000000000000OX328019
BI00B32W4    4500196950     2022083018018403980              CAVS 0.5 BR              CCN000004500000004500FN00000000020220801000004500NNE   20220720091949W41 1W    00000150000000677000000000032W41   HJYHK-J 000000000000OX328010
BI00B32W4    4500196950     2022083018018403990              CAVS 0.5 L               CCN000018000000018000FN00000000020220801000018000NNE   20220720091949W41 1W    00000150000000677000000000032W41   HJYHK-J 000000000000OX328013
BI00B32W4    4500196950     2022083018018403991              CAVS 0.5 SB              CCN000003000000003000FN00000000020220801000003000NNE   20220720091949W41 1W    00000150000000677000000000032W41   HJYHK-J 000000000000OX328018
BI00B32W4    4500196950     2022083018018404030              CAVS 0.85 B              CCN000017000000017000FN00000000020220801000017000NNE   20220720091949W41 1W    00000100000000965000000000032W41   HJYHK-J 000000000000OX328020
BI00B32W4    4500196950     2022083018018404040              CAVS 0.85 W              CCN000008000000008000FN00000000020220801000008000NNE   20220720091949W41 1W    00000100000000965000000000032W41   HJYHK-J 000000000000OX328029
BI00B32W4    4500196950     2022083018018404041              CAVS 0.85 GY             CCN000015000000015000FN00000000020220801000015000NNE   20220720091949W41 1W    00000100000000965000000000032W41   HJYHK-J 000000000000OX328023
BI00B32W4    4500196950     2022083018018404050              CAVS 0.85 R              CCN000021000000021000FN00000000020220801000021000NNE   20220720091949W41 1W    00000100000000965000000000032W41   HJYHK-J 000000000000OX328027
BI00B32W4    4500196950     2022083018018404051              CAVS 0.85 O              CCN000007000000007000FN00000000020220801000007000NNE   20220720091949W41 1W    00000100000000965000000000032W41   HJYHK-J 000000000000OX328025
BI00B32W4    4500196950     2022083018018404052              CAVS 0.85 P              CCN000005000000005000FN00000000020220801000005000NNE   20220720091949W41 1W    00000100000000965000000000032W41   HJYHK-J 000000000000OX328026
BI00B32W4    4500196950     2022083018018404060              CAVS 0.85 G              CCN000002000000002000FN00000000020220801000002000NNE   20220720091949W41 1W    00000100000000965000000000032W41   HJYHK-J 000000000000OX328022
BI00B32W4    4500196950     2022083018018404070              CAVS 0.85 Y              CCN000016000000016000FN00000000020220801000016000NNE   20220720091949W41 1W    00000100000000965000000000032W41   HJYHK-J 000000000000OX328030
BI00B32W4    4500196950     2022083018018404080              CAVS 0.85 BR             CCN000003000000003000FN00000000020220801000003000NNE   20220720091949W41 1W    00000100000000965000000000032W41   HJYHK-J 000000000000OX328021
BI00B32W4    4500196950     2022083018018404090              CAVS 0.85 L              CCN000001000000001000FN00000000020220801000001000NNE   20220720091949W41 1W    00000100000000965000000000032W41   HJYHK-J 000000000000OX328024
BI00B32W4    4500196950     2022083018018404091              CAVS 0.85 SB             CCN000006000000006000FN00000000020220801000006000NNE   20220720091949W41 1W    00000100000000965000000000032W41   HJYHK-J 000000000000OX328028
BI00B32W4    4500196950     2022083018018404170              CAVS 1.25 Y              CCN000000800000000800FN00000000020220801000000800NNE   20220720091949W41 1W    00000080000001378000000000032W41   HJYHK-J 000000000000OX328031
BI00B32W4    4500197068     202207261801R703950              CIVUS 0.5 R              CCN000002200000002200FN00000000020220701000002200NNE   20220720083724W41 1W    00000220000000525000000000032W41   HJYHK-J 000000000000OY227001
BI00B32W4    4500197081     2022080218018403951              CAVS 0.5 O               CCN000009000000009000FN00000000020220801000009000NNE   20220720091951W41 1W    00000150000000677000000000032W41   HJYHK-J 000000000000OH327001
BI00B32W4    4500197083     2022083018018403740              CAVS 0.3 W               CCN000004000000004000FN00000000020220801000004000NNE   20220720091952W41 1W    00000200000000471000000000032W41   HJYHK-J 000000000000OI328002
BI00B32W4    4500197083     2022083018018403770              CAVS 0.3 Y               CCN000004000000004000FN00000000020220801000004000NNE   20220720091952W41 1W    00000200000000471000000000032W41   HJYHK-J 000000000000OI328003
BI00B32W4    4500197083     2022083018018403780              CAVS 0.3 BR              CCN000008000000008000FN00000000020220801000008000NNE   20220720091952W41 1W    00000200000000471000000000032W41   HJYHK-J 000000000000OI328001
BI00B32W4    4500197083     2022083018018403951              CAVS 0.5 O               CCN000018000000018000FN00000000020220801000018000NNE   20220720091952W41 1W    00000150000000677000000000032W41   HJYHK-J 000000000000OI328006
BI00B32W4    4500197083     2022083018018403952              CAVS 0.5 P               CCN000004500000004500FN00000000020220801000004500NNE   20220720091952W41 1W    00000150000000677000000000032W41   HJYHK-J 000000000000OI328007
BI00B32W4    4500197083     2022083018018403980              CAVS 0.5 BR              CCN000003000000003000FN00000000020220801000003000NNE   20220720091952W41 1W    00000150000000677000000000032W41   HJYHK-J 000000000000OI328004
BI00B32W4    4500197083     2022083018018403990              CAVS 0.5 L               CCN000003000000003000FN00000000020220801000003000NNE   20220720091952W41 1W    00000150000000677000000000032W41   HJYHK-J 000000000000OI328005
BI00B32W4    4500197083     2022083018018404040              CAVS 0.85 W              CCN000008000000008000FN00000000020220801000008000NNE   20220720091952W41 1W    00000100000000965000000000032W41   HJYHK-J 000000000000OI328015
BI00B32W4    4500197083     2022083018018404041              CAVS 0.85 GY             CCN000014000000014000FN00000000020220801000014000NNE   20220720091952W41 1W    00000100000000965000000000032W41   HJYHK-J 000000000000OI328010
BI00B32W4    4500197083     2022083018018404050              CAVS 0.85 R              CCN000012000000012000FN00000000020220801000012000NNE   20220720091952W41 1W    00000100000000965000000000032W41   HJYHK-J 000000000000OI328014
BI00B32W4    4500197083     2022083018018404051              CAVS 0.85 O              CCN000002000000002000FN00000000020220801000002000NNE   20220720091952W41 1W    00000100000000965000000000032W41   HJYHK-J 000000000000OI328012
BI00B32W4    4500197083     2022083018018404052              CAVS 0.85 P              CCN000003000000003000FN00000000020220801000003000NNE   20220720091952W41 1W    00000100000000965000000000032W41   HJYHK-J 000000000000OI328013
BI00B32W4    4500197083     2022083018018404060              CAVS 0.85 G              CCN000002000000002000FN00000000020220801000002000NNE   20220720091952W41 1W    00000100000000965000000000032W41   HJYHK-J 000000000000OI328009
BI00B32W4    4500197083     2022083018018404061              CAVS 0.85 LG             CCN000005000000005000FN00000000020220801000005000NNE   20220720091952W41 1W    00000100000000965000000000032W41   HJYHK-J 000000000000OI328011
BI00B32W4    4500197083     2022083018018404070              CAVS 0.85 Y              CCN000007000000007000FN00000000020220801000007000NNE   20220720091952W41 1W    00000100000000965000000000032W41   HJYHK-J 000000000000OI328016
BI00B32W4    4500197083     2022083018018404080              CAVS 0.85 BR             CCN000007000000007000FN00000000020220801000007000NNE   20220720091952W41 1W    00000100000000965000000000032W41   HJYHK-J 000000000000OI328008
BI00B32W4    @4500197038    20220906181E50002ZZ              AVSSCS-S 0.3FX2 DGY/G    CCN000010500000010500FN00000000020220901000010500NNE   20220720091953W4591W    00000035000002165000000000032W459  HJYHK-J 000000000000OG428001
BI00B32W7    SC2208AJMW     2022072118000004530              AV 8 B                   CCN000006200000006200FN00000000020220801000006200NNE20 20220720085418    1W    00000010000010466200000000032W7    SYSYA-CH000000000000WH227002
BI00B32W7    @SC2208AJMW    20220721181B32116Y8              AVSSCS 0.3FX2 DGY/R      CCN000007000000007000FN00000000020220801000007000NNE20 20220720085410    1W    00000035000002276000000000032W7    SYSYA-CH000000000000WH227001
BI00B32W7    @SC22091JMW    20220803181B32116Y8              AVSSCS 0.3FX2 DGY/R      CCN000002450000000700FN00000000020220901000000700NNM00 20220720084653    1W    00000035000002276000000000032W7    SYSYA-CH000000000000WJ327004
BI00B32W7    SC2208BJMW     2022072718000004580              AV 8 BR                  CCN000001100000001100FN00000000020220801000001100NNE20 20220720101043    1W    00000010000010466200000000032W7    SYSYA-CH000000000000WK327001
BI00B32W7    SC2208BJMW     2022072718000004560              AV 8 G                   CCN000008600000008600FN00000000020220801000008600NNE20 20220720101043    1W    00000010000010466200000000032W7    SYSYA-CH000000000000WK327002
BI00B32W7    SC2208BJMW     2022072718000004590              AV 8 L                   CCN000008300000008300FN00000000020220801000008300NNE20 20220720101049    1W    00000010000010466200000000032W7    SYSYA-CH000000000000WK327003
BI00B32W7    SC2208BJMW     2022072718000004550              AV 8 R                   CCN000017000000017000FN00000000020220801000017000NNE20 20220720101043    1W    00000010000010466200000000032W7    SYSYA-CH000000000000WK327004
BI00B32W7    SC2208BJMW     2022072718000004540              AV 8 W                   CCN000007200000007200FN00000000020220801000007200NNE20 20220720101043    1W    00000010000010466200000000032W7    SYSYA-CH000000000000WK327005
BI00B32W7    SC2208BJMW     2022072718000004570              AV 8 Y                   CCN000005200000005200FN00000000020220801000005200NNE20 20220720101043    1W    00000010000010466200000000032W7    SYSYA-CH000000000000WK327006
BI00A32W7    @SC22091JMW    20220721181B32116Y8              AVSSCS 0.3FX2 DGY/R      CCN000001750000001750FN00000000020220901000001750NNM20 20220720130717    1W    00000035000002276000000000032W7    SYSYA-CH000000000000WJ327004
BI00B32W9    4500196101     2022081618009604457              AVS 5 R/Y                CCN000000200000000000FY00000000020220801000000000NNE12 20220720133559W93 1W    00000020000005981000000000032W93   HKYHK   000000000000ZB128038
BI00B32W9    4500196101     2022081618009604340              AVS 3 W                  CCN000000400000000000FY00000000020220801000000000NNE12 20220720133559W93 1W    00000040000003831600000000032W93   HKYHK   000000000000ZB128030
BI00B32W9    4500196101     2022081618009604370              AVS 3 Y                  CCN000000400000000000FY00000000020220801000000000NNE12 20220720133559W93 1W    00000040000003831600000000032W93   HKYHK   000000000000ZB128031
BI00B32W9    4500196101     2022081618009604394              AVS 3 L/W                CCN000000400000000000FY00000000020220801000000000NNE12 20220720133559W93 1W    00000040000003831600000000032W93   HKYHK   000000000000ZB128025
BI00B32W9    4500196101     2022081618009604393              AVS 3 L/B                CCN000000400000000000FY00000000020220801000000000NNE12 20220720133559W93 1W    00000040000003831600000000032W93   HKYHK   000000000000ZB128024
BI00B32W9    4500196101     2022081618018404056              CAVS 0.85 R/G            CCN000001000000000000FY00000000020220801000000000NNE12 20220720133559W93 1W    00000100000000965000000000032W93   HKYHK   000000000000ZB128097
BI00B32W9    4500196101     2022081618018403945              CAVS 0.5 W/R             CCN000001500000000000FY00000000020220801000000000NNE12 20220720133559W93 1W    00000150000000677000000000032W93   HKYHK   000000000000ZB128079
BI00B32W9    4500196111     2022082318009604457              AVS 5 R/Y                CCN000000400000000000FY00000000020220801000000000NNE10 20220720132954W93 1W    00000020000005981000000000032W93   HKYHK   000000000000ZF228036
BI00B32W9    4500196111     2022082318009604340              AVS 3 W                  CCN000000400000000000FY00000000020220801000000000NNE10 20220720133035W93 1W    00000040000003831600000000032W93   HKYHK   000000000000ZF228028
BI00B32W9    4500196111     2022082318009604370              AVS 3 Y                  CCN000000400000000000FY00000000020220801000000000NNE10 20220720132932W93 1W    00000040000003831600000000032W93   HKYHK   000000000000ZF228029
BI00B32W9    4500196111     2022082318009604394              AVS 3 L/W                CCN000000400000000000FY00000000020220801000000000NNE10 20220720132944W93 1W    00000040000003831600000000032W93   HKYHK   000000000000ZF228021
BI00B32W9    4500196111     2022082318009604393              AVS 3 L/B                CCN000000400000000000FY00000000020220801000000000NNE10 20220720133056W93 1W    00000040000003831600000000032W93   HKYHK   000000000000ZF228020
BI00B32W9    4500196111     2022082318009604397              AVS 3 L/Y                CCN000000400000000000FY00000000020220801000000000NNE10 20220720133046W93 1W    00000040000003831600000000032W93   HKYHK   000000000000ZF228022
BI00B32W9    4500196111     2022082318018404180              CAVS 1.25 BR             CCN000000800000000000FY00000000020220801000000000NNE10 20220720133004W93 1W    00000080000001378000000000032W93   HKYHK   000000000000ZF228105
BI00B32W9    4500196111     2022082318018403904              CAVS 0.5 O/W             CCN000001500000000000FY00000000020220801000000000NNE11 20220720133745W93 1W    00000150000000677000000000032W93   HKYHK   000000000000ZF228061
BI00B32W9    4500196111     20220823180184040M3              CAVS 0.85 O/B            CCN000001000000000000FY00000000020220801000000000NNE10 20220720133110W93 1W    00000100000000965000000000032W93   HKYHK   000000000000ZF228093
