BI00B1200    #CE22-MN-0078  202208047172-1095                FEMALE SPACER            CCN000005600000000000FY00000000020220801000000000NNEQ0920220720153934    2H0H  0000056000000044130000054961200    YCYC    005400370024
BI00B1200    CE22-MN-0078   202208047172-1095                FEMALE SPACER            CCN000005600000005600FN00000000020220801000005600NNEQ0920220720153919    1H0H  0000056000000044130000054961200    YCYC    005400370024
BI00B32AG    XG22093CMW     202207297172-5540-80             SEALED WIRE SEAL         CCN000020000000020000FN00000000020220901000020000NNMD0020220720122344    1C0C  00002000000000186000000234432AG    XGXGY   004300270014
BI00B32AG    XG22094CMW     202207297172-5540-80             SEALED WIRE SEAL         CCN000040000000040000FN00000000020220901000040000NNMD0020220720122344    1C0C  00002000000000186000000234432AG    XGXGY   004300270014
BI00B32AG    XG22092CMW     202207297196-0805-02             TERMINAL FEMALE          CCN000045000000045000FN00000000020220901000045000NNMD0020220720122344    4P0P  00002250000000558000000843232AG    XGXGY   006400630015
BI00B32AG    XG22093CMW     202208057196-0805-02             TERMINAL FEMALE          CCN000022500000022500FN00000000020220901000022500NNMD0020220720122344    4P0P  00002250000000558000000843232AG    XGXGY   006400630015
BI00B32AG    XG22094CMW     202208117196-0805-02             TERMINAL FEMALE          CCN000045000000045000FN00000000020220901000045000NNMD0020220720122344    4P0P  00002250000000558000000843232AG    XGXGY   006400630015
BI00B32CH    SJ2208A MW     202207277114-5753-02             TERMINAL                 CCN000027000000027000FN00000000020220801000027000NNED0020220720122344    4P0P  00002700000000847800001141432CH    SJSAMIJF006400630015
BI00B32CH    SJ2208ADMW     202207277286-4097                CONNECTOR MALE ASS'Y     CCN000001600000001600FN00000000020220801000001600NNE   20220720122344    1N0N  00000160000000768000000978032CH    SJSAMIJF005500360039
BI00B32CH    #SJ2208B MW    202207277116-4021                TERMINAL                 CCN000013500000013500FN00000000020220801000013500NNED0720220720122344    2F0P  00001350000000534600000868832CH    SJSAMIJF006400630015
BI00B32D2    DGTC2237       202207217327-6801-3W             BATTERY FUSE             CCN000011616000003456FN00000000020220901000003456NNMD0420220720164033    4N0N  00000009600000928400001143432D2    TGYOT-G 005500360039
BI00B32D2    DGTC2237       202207277327-6801-3W             BATTERY FUSE             CCN000003360000002400FN00000000020220901000002400NNMD0420220720164033    4N0N  00000009600000928400001143432D2    TGYOT-G 005500360039
BI00B32EJ    T220719P01     202209017116-4102-02             TERMINAL                 CCN000012000000012000FN00000000020220901000012000NNE   20220720122344EJ  4P0P  00001200000000553200000841432EJ    EJYKBO  006400630015
BI00B32EJ    T220719P02     202209017116-4120-02             TERMINAL                 CCN000006000000006000FN00000000020220901000006000NNE   20220720122344EJ  4P0P  00000600000000780000001073632EJ    EJYKBO  006400630015
BI00B32EJ    T220719P02     202209017116-4122-02             TERMINAL                 CCN000004500000004500FN00000000020220901000004500NNE   20220720122344EJ  4P0P  00000450000000656600000950232EJ    EJYKBO  006400630015
BI00B32J1    #396025        202207257283-8226-30             CONNECTOR                CCN000002000000000000FY00000000020220701000000000NNMQ0820220720105703    2N0N  00000200000000820000001008032J1    UKYEL-BL005400370024
BI00A32J1    395602         202207207298-2507-30             HOUSING FEMALE ASS'Y     PCN000012000000000000FY00000000020220701000000000NNMQ0020220720100047    4N0N  00000120000000713200000914532J1    UKYEL-BL005500360039
BI00A32J1    395602         202207207298-2509-30             HOUSING FEMALE ASS'Y     PCN000024000000000000FY00000000020220701000000000NNMQ0020220720100047    4N0N  00000120000000857500001062532J1    UKYEL-BL005500360039
BI00A32J1    395602         202207207298-2280-30             HOUSING FEMALE ASS'Y     PCN000038000000000000FY00000000020220701000000000NNMQ0020220720100106    4N0N  00000192000001068000001216032J1    UKYEL-BL005500360039
BI00A32J1    396577         202208087158-3165-90             WIRE SEAL                CCN000040000000040000FN00000000020220801000040000NNE   20220720122344    1C0C  00004000000000124000000172432J1    UKYEL-BL004300270014
BI00A32J1    396577         202208087298-2508-30             HOUSING FEMALE ASS'Y     CCN000001200000001200FN00000000020220801000001200NNE   20220720122344    4N0N  00000120000000822000001005032J1    UKYEL-BL005500360039
BI00A32J1    396577         202208087327-6890-3W             BATTERY FUSE             CCN000000288000000288FN00000000020220801000000288NNE   20220720122344    4N0N  00000007200001140800001355632J1    UKYEL-BL005500360039
BI00B32K8    #K1220011181   202209027137-2718-50             SEALED CONNECTOR         CCN000005000000005000FN00000000020221001000005000NNMD0020220720122344    2C0C  00000100000000118300000236632K8    ELELCOM 002700430014
BI00B32N3    NBT209 C       202208047470-5653                J/B COMPLETE ASS'Y       CCN000000420000000420FN00000000020220801000000420NNE   20220720151309    4J0J  00000001000000494000000661032N3    ABYIPL-B005400370024
BI00B32N3    NBT209 C       202208047470-6015                J/B COMPLETE ASS'Y       CCN000001310000001310FN00000000020220801000001310NNE   20220720151309    4J0J  00000001000000494000000661032N3    ABYIPL-B005400360024
BI00A32P8    TAPI-2083      202207217298-5955                CONNECTOR SUB ASSY       PNN000072000000000000FY00000000020220801000000000NNMD0020220720085505    4N0N  00000720000001029600001253032P8    YIYTM   005500360039
BI00B32Q8    EU2209MTMW     202208177287-8999-30             HOUSING FEMALE ASS'Y     CCN000004800000004800FN00000000020220901000004800NNE   20220720160909    1N0N  00000480000001228800001448832Q8    EMEMI   005500360039
BI00B32Q8    #EU2209MTMW    202208177183-0522-30             HOUSING                  CCN000002400000002400FN00000000020220901000002400NNE   20220720160907    2F0F  00000240000000959000001191032Q8    EMEMI   005500360039
BI00B32Q8    #EU2209MTMW    202208177187-6919                HOUSING FEMALE           CCN000002400000002400FN00000000020220901000002400NNE   20220720160907    2F0F  00000240000000584600000708632Q8    EMEMI   005400370024
BI00B32Q8    #EU2209MTMW    202208177198-4980-30             HOUSING FEMALE           CCN000001200000001200FN00000000020220901000001200NNE   20220720160907    2F0F  00000120000000840000000921032Q8    EMEMI   005400370024
BI00B32U5    DI2042A        202210217297-3482                JOINT CONNECTOR          CCN000000900000001600FN00000000020221201000001600NNE   20220720122344U5  4N0N  00000080000000621000000730532U5    AMAMSD  005400370024
BI00B32U5    DI2042A        202210217298-3484                HOUSING FEMALE ASS'Y     CCN000004200000005400FN00000000020221201000005400NNE   20220720122344U5  4N0N  00000270000000742500001028732U5    AMAMSD  005400370024
BI00A32U9    #TPA236        202207257158-3376-50             CONNECTOR WIRE SEAL      CCN000200000000200000FN00000000020220901000200000NNMM0020220720122344U9  2C0C  00002000000000184000000240732U9    YNYNA-E 002700430014
BI00B32W4    #4500193899    202207217283-4190-30             CONNECTOR                CCN000001200000001200FN00000000020220701000001200NNED0020220720122344W4162N0N  00000024000000846000001115532W416  HJYHK   005600390040
BI00B32W4    #4500194189    202207217283-4190-30             CONNECTOR                CCN000001920000001920FN00000000020220701000001920NNED0020220720122344W4162N0N  00000024000000846000001115532W416  HJYHK   005600390040
BI00B32W4    #4500194300    202207277283-4190-30             CONNECTOR                CCN000006000000006000FN00000000020220701000006000NNED0020220720122344W4662N0N  00000024000000846000001115532W466  HJYHK   005600390040
BI00A32W4    4500194589     202207257116-4100-02             TERMINAL                 CCN000060000000060000FN00000000020220801000060000NNED0020220720131129W4144P0P  00001500000000696000000990232W414  HJYHK   006400630015
BI00A32W4    4500194589     202207257114-4100-02             TERMINAL                 CCN000054000000054000FN00000000020220801000054000NNED0020220720131129W4144P0P  00001800000000748800001077432W414  HJYHK   006400630017
BI00A32W4    4500194589     202207257116-4110-02             TERMINAL                 CCN000018000000018000FN00000000020220801000018000NNED0020220720131129W4144P0P  00000900000000594000000882232W414  HJYHK   006400630015
BI00A32W4    4500194945     202208087114-4111-02             TERMINAL                 CCN000024000000024000FN00000000020220801000024000NNED0020220720122344W4144P0P  00001200000000758400001087032W414  HJYHK   006400630017
BI00A32W4    4500194945     202208037116-4110-02             TERMINAL                 CCN000009000000009000FN00000000020220801000009000NNED0020220720122344W4144P0P  00000900000000594000000882232W414  HJYHK   006400630015
BI00T32W4    #4500194893    202207217157-7812                SEAL RUBBER              CCN000200000000200000FN00000000020220701000200000NNE00020220720132409W4Q12C0C  00001000000000137000000202032W4Q1  SCYHK-J 002700430014
BI00A32W4    4500195172     202208057116-4100-02             TERMINAL                 CCN000015000000015000FN00000000020220801000015000NNED0020220720122344W4144P0P  00001500000000696000000990232W414  HJYHK   006400630015
BI00A32W4    4500195172     202208167116-4112-02             TERMINAL                 CCN000030000000030000FN00000000020220801000030000NNED0020220720122344W4144P0P  00000600000000450000000738232W414  HJYHK   006400630015
BI00A32W4    4500195172     202208087114-4100-02             TERMINAL                 CCN000018000000018000FN00000000020220801000018000NNED0020220720122344W4144P0P  00001800000000748800001077432W414  HJYHK   006400630017
BI00A32W4    4500195172     202208087116-4110-02             TERMINAL                 CCN000009000000009000FN00000000020220801000009000NNED0020220720122344W4144P0P  00000900000000594000000882232W414  HJYHK   006400630015
BI00A32W4    4500195569     202208087116-4100-02             TERMINAL                 CCN000090000000090000FN00000000020220801000090000NNED0020220720122344W4144P0P  00001500000000696000000990232W414  HJYHK   006400630015
BI00A32W4    #4500197031    202208087297-1911-30             HOUSING MALE ASS'Y       CCN000001000000001000FN00000000020220701000001000NNED0720220720122344W4282N0N  00000100000000486900000600132W428  HJYHK   005400370024
BI00A32W4    #4500197031    202208087297-1907-30             HOUSING MALE ASS'Y       CCN000001500000001500FN00000000020220701000001500NNED0720220720122344W4282N0N  00000150000000451800000568032W428  HJYHK   005400370024
BI00A32W4    4500197035     202209197116-4111-02             TERMINAL                 CCN000007500000007500FN00000000020220901000007500NNE   20220720122344W4194P0P  00000750000000529500000817732W419  HJYHK   006400630015
BI00A32W4    4500197035     202209197116-4102-02             TERMINAL                 CCN000012000000012000FN00000000020220901000012000NNE   20220720122344W4194P0P  00001200000000553200000841432W419  HJYHK   006400630015
BI00A32W4    4500197035     202209197114-4111-02             TERMINAL                 CCN000012000000012000FN00000000020220901000012000NNE   20220720122344W4194P0P  00001200000000758400001087032W419  HJYHK   006400630017
BI00A32W4    4500197035     202209197116-4101-02             TERMINAL                 CCN000012000000012000FN00000000020220901000012000NNE   20220720122344W4194P0P  00001200000000582000000876232W419  HJYHK   006400630015
BI00A32W4    4500197035     202209197114-4101-02             TERMINAL                 CCN000015000000015000FN00000000020220901000015000NNE   20220720122344W4194P0P  00001500000000675000001003632W419  HJYHK   006400630017
BI00A32W4    #4500197035    202209197158-3003-90             RUBBER STOPPER           CCN000020000000020000FN00000000020220901000020000NNE   20220720122344W4192C0C  00002000000000250000000306032W419  HJYHK   002700430014
BI00B32W4    @4500197039    202209227287-4098                CONNECTOR FEMALE         CCN000002400000002400FN00000000020220901000002400NNE   20220720122344W4L63N0N  00000240000000668600000908032W4L6  HJYHK-K 005500360039
BI00A32W4    4500197040     202209197158-3169-40             SEALING PLUG             CCN000040000000040000FN00000000020220901000040000NNE   20220720122344W4191C0C  00004000000000156000000204132W419  HJYHK   004300260014
BI00B32W4    4500197041     202208187282-4855                HOUSING MALE ASS'Y       CCN000003600000003600FN00000000020220801000003600NNE   20220720122344W4594N0N  00000120000001063200001283232W459  HJYHK   005500360039
BI00B32W4    4500197043     202209157116-1685-02             TERMINAL                 CCN000168000000168000FN00000000020220901000168000NNE   20220720122344W4594P0P  00002400000000897600001065232W459  HJYHK   005100280028
BI00B32W4    4500197043     202209157126-8853-02             TERMINAL                 CCN000255000000255000FN00000000020220901000255000NNE   20220720122344W4594P0P  00000750000000562500000847732W459  HJYHK   006400630015
BI00B32W4    4500197043     202209157126-8854-02             TERMINAL                 CCN000112500000112500FN00000000020220901000112500NNE   20220720122344W4594P0P  00000750000000604500000889732W459  HJYHK   006400630015
BI00B32W4    4500197043     202209157126-8855-02             TERMINAL                 CCN000150000000150000FN00000000020220901000150000NNE   20220720122344W4594P0P  00000600000000510600000795832W459  HJYHK   006400630015
BI00B32W4    4500197043     202209157116-1686-02             TERMINAL                 CCN000084000000084000FN00000000020220901000084000NNE   20220720122344W4594P0P  00002100000000869400001021632W459  HJYHK   005100280028
BI00B32W4    4500197043     202209157114-5096-02             TERMINAL                 CCN000030000000030000FN00000000020220901000030000NNE   20220720122344W4594P0P  00003000000000498000000792232W459  HJYHK   006400630015
BI00B32W4    4500197043     202209157116-2892-02             TERMINAL                 CCN000096000000096000FN00000000020220901000096000NNE   20220720122344W4594P0P  00001200000000818400000981832W459  HJYHK   005100280028
BI00B32W4    4500197043     202209157116-2893-02             TERMINAL                 CCN000108000000108000FN00000000020220901000108000NNE   20220720122344W4594P0P  00001200000000895200001058632W459  HJYHK   005100280028
BI00B32W4    4500197043     202209157282-4855                HOUSING MALE ASS'Y       CCN000009600000009600FN00000000020220901000009600NNE   20220720122344W4594N0N  00000120000001063200001283232W459  HJYHK   005500360039
BI00B32W4    4500197043     202209157283-7029-40             CONNECTOR                CCN000018000000018000FN00000000020220901000018000NNE   20220720122344W4591N0N  00000600000001026000001200032W459  HJYHK   005600390023
BI00B32W4    4500197043     202209157158-3006-90             RUBBER STOPPER           CCN000120000000120000FN00000000020220901000120000NNE   20220720122344W4591C0C  00002000000000330600000386032W459  HJYHK   002700430014
BI00B32W4    #4500197043    202209157282-1030                CONNECTOR MALE ASS'Y     CCN000009000000009000FN00000000020220901000009000NNE   20220720122344W4592N0N  00000100000000365000000487532W459  HJYHK   005400370024
BI00B32W4    #4500197043    202209157283-8226                CONNECTOR                CCN000006000000006000FN00000000020220901000006000NNE   20220720122344W4592N0N  00000200000000820000001008032W459  HJYHK   005400370024
BI00B32W4    #4500197043    202209157157-3646                RUBBER STOPPER           CCN000020000000020000FN00000000020220901000020000NNE   20220720122344W4592H0H  00002000000000184000000255232W459  HJYHK   002700430014
BI00B32W4    #4500197043    202209157157-3821                RUBBER STOPPER           CCN000040000000040000FN00000000020220901000040000NNE   20220720122344W4592C0C  00002000000000176000000238032W459  HJYHK   002700430014
BI00B32W4    4500197044     202211177289-9553-30             SEALED ASSY FEMALE       CCN000102900000102900FN00000000020221101000102900NNE   20220720122344W4594N0N  00000294000001109000001521532W459  HJYHK   005500360039
BI00B32W4    4500197045     202212157289-9553-30             SEALED ASSY FEMALE       CCN000091140000091140FN00000000020221201000091140NNE   20220720122344W4594N0N  00000294000001109000001521532W459  HJYHK   005500360039
BI00B32W4    4500197046     202301197289-9553-30             SEALED ASSY FEMALE       CCN000117600000117600FN00000000020230101000117600NNE   20220720122344W4594N0N  00000294000001109000001521532W459  HJYHK   005500360039
BI00B32W4    4500197056     202208187282-7420-40             CONNECTOR MALE ASS'Y     CCN000004000000004000FN00000000020220801000004000NNE   20220720122344W4594N0N  00000100000000491000000603532W459  HJYHK   005400370024
BI00A32W4    4500197059     202209197158-3167-80             WIRE SEAL                CCN000120000000120000FN00000000020220901000120000NNE   20220720122344W4G91C0C  00002000000000048000000109032W4G9  HJYHK-J 002700430014
BI00A32W4    4500197059     202209197158-3169-40             SEALING PLUG             CCN000040000000040000FN00000000020220901000040000NNE   20220720122344W4G91C0C  00004000000000156000000204132W4G9  HJYHK-J 004300260014
BI00A32W4    #4500197059    202209197158-3120-90             CONNECTOR WIRE SEAL      CCN000020000000020000FN00000000020220901000020000NNE   20220720122344W4G92C0C  00002000000000136000000194032W4G9  HJYHK-J 002700430014
BI00A32W4    4500197061     202209197283-1020                CONNECTOR                CCN000018000000018000FN00000000020220901000018000NNE   20220720122344W4M64N0N  00000600000000840000001049332W4M6  HJYHK-J 005600390040
BI00A32W4    4500197063     202209197158-3168-80             SEALED                   CCN000040000000040000FN00000000020220901000040000NNE   20220720122344W4P61C0C  00002000000000044000000092132W4P6  HJYHK-J 004300260014
BI00A32W4    4500197066     202209197116-4025                TERMINAL                 CCN000032000000032000FN00000000020220901000032000NNE   20220720122344W4M54P0P  00001600000000644800000975132W4M5  HJYHK-J 006400630017
BI00A32W4    4500197066     202209197283-7028-30             CONNECTOR                CCN000006000000006000FN00000000020220901000006000NNE   20220720122344W4M54N0N  00000300000001452000001681332W4M5  HJYHK-J 005600390040
BI00A32W4    4500197066     202209197158-3166-60             WIRE SEAL                CCN000040000000040000FN00000000020220901000040000NNE   20220720122344W4M51C0C  00004000000000104000000152432W4M5  HJYHK-J 002700430014
BI00A32W4    4500197066     202209197283-1030                CONNECTOR                CCN000006000000006000FN00000000020220901000006000NNE   20220720122344W4M54N0N  00000600000000988000001172032W4M5  HJYHK-J 005500360039
BI00A32W4    4500197067     202209267116-4112-02             TERMINAL                 CCN000042000000042000FN00000000020220901000042000NNE   20220720122344W4M54P0P  00000600000000450000000738232W4M5  HJYHK-J 006400630015
BI00A32W4    #4500197067    202209257186-8845                HOUSING MALE             CCN000012000000012000FN00000000020220901000012000NNE   20220720122344W4M52F0F  00000300000000690000000801532W4M5  HJYHK-J 005400370024
BI00B32W4    4500197071     202208187158-3167-80             WIRE SEAL                CCN000520000000520000FN00000000020220801000520000NNE   20220720122344W4B71C0C  00002000000000048000000109032W4B7  HJYHK-J 002700430014
BI00B32W4    4500197071     202208187158-3169-40             SEALING PLUG             CCN000280000000280000FN00000000020220801000280000NNE   20220720122344W4B71C0C  00004000000000156000000204132W4B7  HJYHK-J 004300260014
BI00B32W4    4500197073     202208307288-9556-30             SEALED ASSY MALE         CCN000025200000025200FN00000000020220901000025200NNE   20220720122344W4O74N0N  00000072000000537900000786332W4O7  H YHK-J 005500360039
BI00B32W4    4500197074     202208307288-9556-30             SEALED ASSY MALE         CCN000046800000046800FN00000000020220901000046800NNE   20220720122344W4O74N0N  00000072000000537900000786332W4O7  H YHK-J 005500360039
BI00B32W4    4500197084     202208307116-1180                TERMINAL                 CCN000019500000019500FN00000000020220801000019500NNE   20220720122344W41 1P0P  00001950000000618200000903432W41   HJYHK   006400630015
BI00B32W9    4500196096     202208027116-1471                TERMINAL                 CCN000015000000000000FY00000000020220801000000000NNEQ0820220720095619W93 4P0P  00001500000000579000000867232W93   HKYHK   006400630015
BI00B32W9    4500196198     202208167116-1471                TERMINAL                 CCN000045000000000000FY00000000020220801000000000NNEQ0820220720095634W93 4P0P  00001500000000579000000867232W93   HKYHK   006400630015
BI00B32W9    4500197030     202208097114-4100-02             TERMINAL                 CCN000576000000576000FN00000000020220701000576000NNED0720220720122344W9  4P0P  00001800000000748800001077432W9    HKYHK   006400630017
BI00B32W9    4500197030     202208097282-6568-40             CONNECTOR                CCN000019000000019000FN00000000020220701000019000NNED0720220720122344W9  4N0N  00000100000001206000001370732W9    HKYHK   005500360039
BI00B32W9    4500197076     202209067298-4094-10             HOUSING FEMALE ASS'Y     CCN000006760000006760FN00000000020220901000006760NNE   20220720122344W9  4N0N  00000338000001097400001358732W9    HKYHK   005400370024
BI00B32X5    #TAPPLT07C     202207297198-1371-60             HOUSING FEMALE           CCN000004000000004000FN00000000020220701000004000NNED0720220720122344X5  2F0F  00000200000000597800000721232X5    EPYNA-E 005400370024
