BI00B32A7    @ZZ2210ALMW    20221012181E48017ZZ              CAVSAS-S 0.5X1 GY/G      CCN000002800000002800FN00000000020221001000002800NNE   20220915151823    1W    00000040000001900600000000032A7    ZZZZY   000000000000ZT429001
BI00B32A7    @ZZ2210ALMW    20221012181E48019ZZ              CAVSAS-S 0.5X1 GY/W      CCN000001600000001600FN00000000020221001000001600NNE   20220915151823    1W    00000040000001900600000000032A7    ZZZZY   000000000000ZT429002
BI00B32DE    TT211A         2022100618007704130              AVSS 1.25F B             CCN000000800000000800FN00000000020221101000000800NNE   20220915085154    1W    00000080000001389000000000032DE    TVYEV-TV000000000000VV329001
BI00B32E1    WC3011         2022101918000004530              AV 8 B                   CCN000000400000000400FN00000000020221201000000400NNM   20220915152120    1W    00000010000010466200000000032E1    SPYSE   000000000000KC12A001
BI00B32E1    WC3013         2022110218000004530              AV 8 B                   CCN000000400000000400FN00000000020221201000000400NNM   20220915152120    1W    00000010000010466200000000032E1    SPYSE   000000000000KC32A001
BI00B32E1    WC3011         2022101918000004570              AV 8 Y                   CCN000000500000000500FN00000000020221201000000500NNM   20220915152120    1W    00000010000010466200000000032E1    SPYSE   000000000000KC12A002
BI00B32E1    WC3012         2022102618000004570              AV 8 Y                   CCN000000500000000500FN00000000020221201000000500NNM   20220915152120    1W    00000010000010466200000000032E1    SPYSE   000000000000KC22A001
BI00B32E2    @WY3011        20221019181F21015ZZ              AVSSHCS-S 0.5FX2 B/P     CCN000000300000000300FN00000000020221201000000300NNM   20220915152123    1W    00000030000002531400000000032E2    SPYSE   000000000000KZ12A001
BI00B32E2    @WY3012        20221026181F21015ZZ              AVSSHCS-S 0.5FX2 B/P     CCN000000300000000300FN00000000020221201000000300NNM   20220915152123    1W    00000030000002531400000000032E2    SPYSE   000000000000KZ22A001
BI00B32GE    @DHTW2249B     20221006181E48037ZZ              CAVSAS-S 0.3X4 GY        CCN000006000000006000FN00000000020221101000006000NNE   20220915151052    1W    00000025000003262000000000032GE    GEYKHT  000000000000RB329002
BI00B32GE    @DHTW2249B     20221006181E48041ZZ              CAVSAS-S 0.3X2 GY/R      CCN000007700000007700FN00000000020221101000007700NNE   20220915151052    1W    00000035000002008700000000032GE    GEYKHT  000000000000RB329001
BI00B32GE    @DHTW2249B     20221006181E50012ZZ              AVSSCS-S 0.5FX2 DGY/G    CCN000012300000012300FN00000000020221101000012300NNE   20220915151052    1W    00000030000003096000000000032GE    GEYKHT  000000000000RB329003
BI00B32GE    @DHTW2249B     20221006181F21015ZZ              AVSSHCS-S 0.5FX2 B/P     CCN000020100000020100FN00000000020221101000020100NNE   20220915151052    1W    00000030000002531400000000032GE    GEYKHT  000000000000RB329004
BI00B32GE    @DHTW2249B     20221006181F21031ZZ              AVSSHCS-S 1.25FX2 B/P    CCN000006600000006600FN00000000020221101000006600NNE   20220915151052    1W    00000020000004267300000000032GE    GEYKHT  000000000000RB329005
BI00B32H8    2210AIMW       2022100718007703963              AVSS 0.5F G/B            CCN000001500000001500FN00000000020221001000001500NNE   20220915165123    1W    00000150000000674000000000032H8    TYTYC   000000000000LB329001
BI00B32H8    2210AIMW       2022100718007704036              AVSS 0.75F B/G           CCN000003000000003000FN00000000020221001000003000NNE   20220915165123    1W    00000100000000943000000000032H8    TYTYC   000000000000LB329002
BI00B32H8    2210AIMW       2022100718007704135              AVSS 1.25F B/R           CCN000001600000001600FN00000000020221001000001600NNE   20220915165123    1W    00000080000001389000000000032H8    TYTYC   000000000000LB329003
BI00B32H8    2210AIMW       2022100718007704140              AVSS 1.25F W             CCN000001600000001600FN00000000020221001000001600NNE   20220915165123    1W    00000080000001389000000000032H8    TYTYC   000000000000LB329004
BI00B32H8    @2210AIMW      20221012181B32039Y5              AVSSCS 0.5FX1 DGY/W      CCN000001200000001200FN00000000020221001000001200NNE   20220915165121    1W    00000040000002289000000000032H8    TYTYC   000000000000LF429001
BI00B32H8    @2210AIMW      20221012181E50001ZZ              AVSSCS-S 0.5FX2 DGY      CCN000000900000000900FN00000000020221001000000900NNE   20220915165121    1W    00000030000003096000000000032H8    TYTYC   000000000000LF429002
BI00B32H8    2210B MW       2022100718007703930              AVSS 0.5F B              CCN000003000000003000FN00000000020221001000003000NNE   20220915165124    1W    00000150000000674000000000032H8    TYTYC   000000000000LC329001
BI00B32H8    2210B MW       2022100718007703935              AVSS 0.5F B/R            CCN000001500000001500FN00000000020221001000001500NNE   20220915165124    1W    00000150000000674000000000032H8    TYTYC   000000000000LC329002
BI00B32H8    2210B MW       2022100718007703937              AVSS 0.5F B/Y            CCN000004500000004500FN00000000020221001000004500NNE   20220915165124    1W    00000150000000674000000000032H8    TYTYC   000000000000LC329003
BI00B32H8    2210B MW       2022100718007703941              AVSS 0.5F GY             CCN000001500000001500FN00000000020221001000001500NNE   20220915165124    1W    00000150000000674000000000032H8    TYTYC   000000000000LC329004
BI00B32H8    2210B MW       2022100718007703943              AVSS 0.5F W/B            CCN000001500000001500FN00000000020221001000001500NNE   20220915165124    1W    00000150000000674000000000032H8    TYTYC   000000000000LC329005
BI00B32H8    2210B MW       2022100718007703946              AVSS 0.5F W/G            CCN000001500000001500FN00000000020221001000001500NNE   20220915165124    1W    00000150000000674000000000032H8    TYTYC   000000000000LC329006
BI00B32H8    2210B MW       2022100718007703949              AVSS 0.5F W/L            CCN000001500000001500FN00000000020221001000001500NNE   20220915165124    1W    00000150000000674000000000032H8    TYTYC   000000000000LC329007
BI00B32H8    2210B MW       2022100718007703970              AVSS 0.5F Y              CCN000003000000003000FN00000000020221001000003000NNE   20220915165124    1W    00000150000000674000000000032H8    TYTYC   000000000000LC329008
BI00B32H8    2210B MW       2022100718007703973              AVSS 0.5F Y/B            CCN000003000000003000FN00000000020221001000003000NNE   20220915165124    1W    00000150000000674000000000032H8    TYTYC   000000000000LC329009
BI00B32H8    2210B MW       2022100718007703975              AVSS 0.5F Y/R            CCN000003000000003000FN00000000020221001000003000NNE   20220915165124    1W    00000150000000674000000000032H8    TYTYC   000000000000LC329010
BI00B32H8    2210B MW       2022100718007704030              AVSS 0.75F B             CCN000003000000003000FN00000000020221001000003000NNE   20220915165124    1W    00000100000000943000000000032H8    TYTYC   000000000000LC329011
BI00B32H8    2210B MW       2022100718007704037              AVSS 0.75F B/Y           CCN000008000000008000FN00000000020221001000008000NNE   20220915165124    1W    00000100000000943000000000032H8    TYTYC   000000000000LC329012
BI00B32H8    @2210B MW      20221012181B32102S1              AVSSCS 0.5FX2 DGY        CCN000002100000002100FN00000000020221001000002100NNE   20220915165122    1W    00000030000002903000000000032H8    TYTYC   000000000000LE429001
BI00B32H8    2210BKMW       20221007180D0203950              AVSSH 0.5F R             CCN000003000000003000FN00000000020221001000003000NNE   20220915165125    1W    00000150000000689000000000032H8    TYTYC   000000000000LD329004
BI00B32H8    @2210BKMW      20221007181B32102Y8              AVSSCS 0.5FX2 DGY/R      CCN000000300000000300FN00000000020221001000000300NNE   20220915165123    1W    00000030000002903000000000032H8    TYTYC   000000000000LD329002
BI00B32H8    @2210BKMW      20221007181B32102Y9              AVSSCS 0.5FX2 DGY/P      CCN000001200000001200FN00000000020221001000001200NNE   20220915165123    1W    00000030000002903000000000032H8    TYTYC   000000000000LD329001
BI00B32U5    @DW2048        20221028181AD2016ZZ              CIVUSAS-S 0.22X2 B       CCN000006000000006000FN00000000020230101000006000NNE   20220915160459U5  1W    00000050000001360800000000032U5    ASAMSD  000000000000AM22A018
BI00B32U5    @DW2048        20221028181AD2017ZZ              CIVUSAS-S 0.22X3 B       CCN000006000000006020FN00000000020230101000006020NNE   20220915160459U5  1W    00000043000001678200000000032U5    ASAMSD  000000000000AM22A019
BI00B32U5    @DW2048        20221028181F21027ZZ              AVSSHCS-S 1.25FX2 B      CCN000006600000006600FN00000000020230101000006600NNE   20220915160459U5  1W    00000020000004267300000000032U5    ASAMSD  000000000000AM22A020
