AE00TI102209150115/09/202200000000200000000000000001678KGM  00000002238KGM  7C89-6868-30             SEALED ASSY FEMALE       7C89686830               0         0         0         0    0    0    00000504000000252000000335000016884000
AE00TI102209150115/09/202200000004000000000000000009504KGM  00000019504KGM  7271-1818-30             CASE SUB ASSY,ECU        7271181830               0         0         0         0    0    0    00000072000000001800009388000067593600
AE00TI102209150115/09/202200000000700000000000000006418KGM  00000007958KGM  7283-4577                CONNECTOR HOUSING        72834577                 0         0         0         0    0    0    00003360000000480000000172000057792000
AE00TI102209150115/09/202200000000200000000000000002467KGM  00000002891KGM  7287-7599                HOUSING FEMALE ASS'Y     72877599                 0         0         0         0    0    0    00000320000000160000000350000011200000
AE00TI102209150115/09/202200000001200000000000000010393KGM  00000012133KGM  7288-3329-30             HOUSING MALE             7288332930               0         0         0         0    0    0    00001800000000150000000354000063720000
AE00TI102209150115/09/202200000001200000000000000010404KGM  00000012144KGM  7288-3335-30             HOUSING MALE             7288333530               0         0         0         0    0    0    00001800000000150000000354000063720000
AE00TI102209150115/09/202200000000900000000000000006178KGM  00000008113KGM  7289-3342                HOUSING FEMALE ASS'Y     72893342                 0         0         0         0    0    0    00002160000000240000000186000040176000
AE00TI102209150115/09/202200000001700000000000000011669KGM  00000015324KGM  7289-3342-30             HOUSING FEMALE ASS'Y     7289334230               0         0         0         0    0    0    00004080000000240000000191000077928000
AE00TI102209150115/09/202200000000600000000000000007030KGM  00000008212KGM  7289-5011-30             HOUSING FEMALE ASS'Y     7289501130               0         0         0         0    0    0    00001440000000240000000333000047952000
AE00TI102209150115/09/202200000000500000000000000004196KGM  00000005596KGM  7289-6868-30             SEALED ASSY FEMALE       7289686830               0         0         0         0    0    0    00001260000000252000000332000041832000
AE00TI102209150115/09/202200000000100000000000000001108KGM  00000001521KGM  7289-9553-50             SEALED ASSY FEMALE       7289955350               0         0         0         0    0    0    00000294000000294000000252000007408800
AE00TI102209150115/09/202200000000100000000000000001241KGM  00000001406KGM  7298-1853-10             HOUSING FEMALE ASS'Y     7298185310               0         0         0         0    0    0    00000390000000390000000186000007254000
AE00TI102209150115/09/202200000000100000000000000001097KGM  00000001359KGM  7298-4094-10             HOUSING FEMALE ASS'Y     7298409410               0         0         0         0    0    0    00000338000000338000000241000008145800
AE00TI102209150115/09/202200000000400000000000000003926KGM  00000005160KGM  7298-5993-30             SEALED ASSY FEMALE       7298599330               0         0         0         0    0    0    00000873600000218400000266000023237760
AE00TI102209150115/09/202200000002100000000000000023300KGM  00000026452KGM  7327-6572-3W             BATTERY FUSE             732765723W               0         0         0         0    0    0    00000201600000009600008162000164545920
AE00TI102209150115/09/202200000001700000000000000015866KGM  00000019266KGM  7327-6769-3W             BATTERY FUSE             732767693W               0         0         0         0    0    0    00000163200000009600008902000145280640
AE00TI102209150115/09/202200000001400000000000000015973KGM  00000018983KGM  7327-6840-3W             BATTERY FUSE             732768403W               0         0         0         0    0    0    00000100800000007200009909000099882720
AE00TI102209150115/09/202200000002000000000000000014840KGM  00000022440KGM  7388-2978-30             HOUSING MALE ASS'Y       7388297830               0         0         0         0    0    0    00000960000000048000001790000171840000
AE00TI102209150115/09/202200000002200000000000000029040KGM  00000034540KGM  7470-4481                J/B COMPLETE ASS'Y       74704481                 0         0         0         0    0    0    00000052800000002400000000000000000000
AE00TI102209150115/09/202200000001400000000000000018480KGM  00000021980KGM  7470-5237                J/B ASS'Y                74705237                 0         0         0         0    0    0    00000033600000002400031359000105366240
AE00TI102209150115/09/202200000000700000000000000000000KGM  00000000000KGM  7470-5784D               J/B COMPLETE ASS'Y       74705784D                0         0         0         0    0    0    00000010500000001500000000000000000000
AE00TI102209150115/09/202200000003000000000000000000000KGM  00000000000KGM  7470-5858D               J/B COMPLETE ASS'Y       74705858D                0         0         0         0    0    0    00000030000000001000000000000000000000
