AE00TO202209150115/09/202200000031500000000000000329685KGM  00000345085KGM  18000004530              AV 8 B                   AV 8 B                   0         0         0         0    0    0    00000000000315000000000211100066496500
AE00TO202209150115/09/202200000000200000000000000002093KGM  00000002191KGM  18000004535              AV 8 B/R                 AV 8 B/R                 0         0         0         0    0    0    00000000000002000000000211100000422200
AE00TO202209150115/09/202200000000100000000000000001047KGM  00000001096KGM  18000004543              AV 8 W/B                 AV 8 W/B                 0         0         0         0    0    0    00000000000001000000000211100000211100
AE00TO202209150115/09/202200000004500000000000000047098KGM  00000049298KGM  18000004570              AV 8 Y                   AV 8 Y                   0         0         0         0    0    0    00000000000045000000000211100009499500
AE00TO202209150115/09/202200000000100000000000000001011KGM  00000001060KGM  18007703970              AVSS 05F Y               AVSS 05F Y               0         0         0         0    0    0    00000000000015000000000015600000234000
AE00TO202209150115/09/202200000000100000000000000000943KGM  00000000992KGM  18007704011              AVSS 075F GY/L           AVSS 075F GY/L           0         0         0         0    0    0    00000000000010000000000022300000223000
AE00TO202209150115/09/202200000008500000000000000082025KGM  00000086180KGM  18018404030              CAVS 085 B               CAVS 085 B               0         0         0         0    0    0    00000000000850000000000022700019295000
AE00TO202209150115/09/202200000000100000000000000000965KGM  00000001014KGM  18018404040              CAVS 085 W               CAVS 085 W               0         0         0         0    0    0    00000000000010000000000022700000227000
AE00TO202209150115/09/202200000000200000000000000001930KGM  00000002028KGM  18018404050              CAVS 085 R               CAVS 085 R               0         0         0         0    0    0    00000000000020000000000022700000454000
AE00TO202209150115/09/202200000006400000000000000061760KGM  00000064889KGM  18018404060              CAVS 085 G               CAVS 085 G               0         0         0         0    0    0    00000000000640000000000022700014528000
AE00TO202209150115/09/202200000009300000000000000089745KGM  00000094292KGM  18018404070              CAVS 085 Y               CAVS 085 Y               0         0         0         0    0    0    00000000000930000000000022700021111000
AE00TO202209150115/09/202200000000300000000000000002895KGM  00000003042KGM  18018404091              CAVS 085 SB              CAVS 085 SB              0         0         0         0    0    0    00000000000030000000000022700000681000
AE00TO202209150115/09/202200000000100000000000000001228KGM  00000001277KGM  1801R704130              CIVUS 125 B              CIVUS 125 B              0         0         0         0    0    0    00000000000010000000000031500000315000
AE00TO202209150115/09/202200000000100000000000000001125KGM  00000001174KGM  1801W003990              IVSSH 05F L              IVSSH 05F L              0         0         0         0    0    0    00000000000018000000000015400000277200
AE00TO202209150115/09/202200000000800000000000000009201KGM  00000009592KGM  1801W004230              IVSSH 2F B               IVSSH 2F B               0         0         0         0    0    0    00000000000044000000000055500002442000
AE00TO202209150115/09/202200000000400000000000000004600KGM  00000004796KGM  1801W004240              IVSSH 2F W               IVSSH 2F W               0         0         0         0    0    0    00000000000022000000000055500001221000
AE00TO202209150115/09/202200000001200000000000000013801KGM  00000014388KGM  1801W004243              IVSSH 2F W/B             IVSSH 2F W/B             0         0         0         0    0    0    00000000000066000000000055500003663000
AE00TO202209150115/09/202200000002500000000000000028753KGM  00000029975KGM  1801W004250              IVSSH 2F R               IVSSH 2F R               0         0         0         0    0    0    00000000000137500000000055500007631250
AE00TO202209150115/09/202200000000400000000000000004600KGM  00000004796KGM  1801W004260              IVSSH 2F G               IVSSH 2F G               0         0         0         0    0    0    00000000000022000000000055500001221000
AE00TO202209150115/09/202200000008200000000000000094309KGM  00000098318KGM  1801W004290              IVSSH 2F L               IVSSH 2F L               0         0         0         0    0    0    00000000000451000000000055500025030500
AE00TO202209150115/09/202200000000100000000000000001111KGM  00000001159KGM  1801W004330              IVSSH 3 B                IVSSH 3 B                0         0         0         0    0    0    00000000000003500000000087900000307650
AE00TO202209150115/09/202200000000100000000000000001111KGM  00000001159KGM  1801W004343              IVSSH 3 W/B              IVSSH 3 W/B              0         0         0         0    0    0    00000000000003500000000087900000307650
AE00TO202209150115/09/202200000000100000000000000001130KGM  00000001179KGM  1801W006930              IVSSH 035F B             IVSSH 035F B             0         0         0         0    0    0    00000000000025000000000011400000285000
AE00TO202209150115/09/202200000000100000000000000001130KGM  00000001179KGM  1801W006970              IVSSH 035F Y             IVSSH 035F Y             0         0         0         0    0    0    00000000000025000000000011400000285000
AE00TO202209150115/09/202200000000100000000000000001130KGM  00000001179KGM  1801W006990              IVSSH 035F L             IVSSH 035F L             0         0         0         0    0    0    00000000000025000000000011400000285000
AE00TO202209150115/09/202200000000100000000000000001030KGM  00000001079KGM  180D0203730              AVSSH 03F B              AVSSH 03F B              0         0         0         0    0    0    00000000000020000000000012200000244000
AE00TO202209150115/09/202200000000100000000000000001030KGM  00000001079KGM  180D0203752              AVSSH 03F P              AVSSH 03F P              0         0         0         0    0    0    00000000000020000000000012200000244000
AE00TO202209150115/09/202200000000100000000000000000934KGM  00000000983KGM  180D0204054              AVSSH 075F R/W           AVSSH 075F R/W           0         0         0         0    0    0    00000000000010000000000023200000232000
AE00TO202209150115/09/202200000000100000000000000000934KGM  00000000983KGM  180D0204080              AVSSH 075F BR            AVSSH 075F BR            0         0         0         0    0    0    00000000000010000000000023200000232000
AE00TO202209150115/09/202200000001400000000000000016329KGM  00000017014KGM  180D0204140              AVSSH 125F W             AVSSH 125F W             0         0         0         0    0    0    00000000000112000000000035700003998400
AE00TO202209150115/09/202200000004200000000000000048989KGM  00000051042KGM  180D0204143              AVSSH 125F W/B           AVSSH 125F W/B           0         0         0         0    0    0    00000000000336000000000035700011995200
AE00TO202209150115/09/202200000000600000000000000006998KGM  00000007292KGM  180D0204149              AVSSH 125F W/L           AVSSH 125F W/L           0         0         0         0    0    0    00000000000048000000000035700001713600
AE00TO202209150115/09/202200000001400000000000000016329KGM  00000017014KGM  180D0204170              AVSSH 125F Y             AVSSH 125F Y             0         0         0         0    0    0    00000000000112000000000035700003998400
AE00TO202209150115/09/202200000011500000000000000097455KGM  00000103078KGM  181AD2001ZZ              CIVUSAS-S 035X1 B        CIVUSAS-S 035X1 B        0         0         0         0    0    0    00000000000632500000000034200021631500
AE00TO202209150115/09/202200000000800000000000000006720KGM  00000007111KGM  181AD2004ZZ              CIVUSAS-S 035X4 B        CIVUSAS-S 035X4 B        0         0         0         0    0    0    00000000000024000000000066700001600800
AE00TO202209150115/09/202200000000100000000000000000916KGM  00000000964KGM  181B32039Z5              AVSSCS 05FX1 DGY/L       AVSSCS 05FX1 DGY/L       0         0         0         0    0    0    00000000000004000000000055900000223600
AE00TO202209150115/09/202200000000100000000000000000705KGM  00000000754KGM  181CQ7004ZZ              IVSSHCS-S 05FX2 B(R,G)   IVSSHCS-S 05FX2 B(R,G)   0         0         0         0    0    0    00000000000003000000000072600000217800
AE00TO202209150115/09/202200000000900000000000000007843KGM  00000008283KGM  181D69004ZZ              AVSSHCS 125FX2 B         AVSSHCS 125FX2 B         0         0         0         0    0    0    00000000000018000000000130000002340000
AE00TO202209150115/09/202200000000700000000000000005009KGM  00000005351KGM  181D6910235              AVSSHCS 05FX2 B/R        AVSSHCS 05FX2 B/R        0         0         0         0    0    0    00000000000021000000000079800001675800
AE00TO202209150115/09/202200000005600000000000000040069KGM  00000042807KGM  181D6910239              AVSSHCS 05FX2 B/L        AVSSHCS 05FX2 B/L        0         0         0         0    0    0    00000000000168000000000079800013406400
AE00TO202209150115/09/202200000000200000000000000001632KGM  00000001730KGM  181E50028ZZ              AVSSCS-S 05FX3 DGY       AVSSCS-S 05FX3 DGY       0         0         0         0    0    0    00000000000005000000000091500000457500
AE00TO202209150115/09/202200000000100000000000000000759KGM  00000000808KGM  181F21009ZZ              AVSSHCS-S 05FX2 B        AVSSHCS-S 05FX2 B        0         0         0         0    0    0    00000000000003000000000073800000221400
