AE00TI102209150215/09/202200000000300000000000000002518KGM  00000003358KGM  7C89-6868-30             SEALED ASSY FEMALE       7C89686830               0         0         0         0    0    0    00000756000000252000000335000025326000
AE00TI102209150215/09/202200000002700000000000000008926KGM  00000010422KGM  7158-3006-90             RUBBER STOPPER           7158300690               0         0         0         0    0    0    00054000000002000000000016000086400000
AE00TI102209150215/09/202200000001000000000000000003380KGM  00000003862KGM  7158-3009-60             RUBBER STOPPER           7158300960               0         0         0         0    0    0    00020000000002000000000012000024000000
AE00TI102209150215/09/202200000000800000000000000000992KGM  00000001379KGM  7158-3165-90             WIRE SEAL                7158316590               0         0         0         0    0    0    00032000000004000000000006000019200000
AE00TI102209150215/09/202200000001300000000000000001352KGM  00000001981KGM  7158-3166-60             WIRE SEAL                7158316660               0         0         0         0    0    0    00052000000004000000000004000020800000
AE00TI102209150215/09/202200000005100000000000000002448KGM  00000005559KGM  7158-3167-80             WIRE SEAL                7158316780               0         0         0         0    0    0    00102000000002000000000005000051000000
AE00TI102209150215/09/202200000001600000000000000000704KGM  00000001474KGM  7158-3168-80             SEALED                   7158316880               0         0         0         0    0    0    00032000000002000000000004000012800000
AE00TI102209150215/09/202200000000600000000000000000936KGM  00000001225KGM  7158-3169-40             SEALING PLUG             7158316940               0         0         0         0    0    0    00024000000004000000000006000014400000
AE00TI102209150215/09/202200000008000000000000000019008KGM  00000039008KGM  7271-1818-30             CASE SUB ASSY,ECU        7271181830               0         0         0         0    0    0    00000144000000001800009388000135187200
AE00TI102209150215/09/202200000000100000000000000000794KGM  00000001073KGM  7282-2090-30             CONNECTOR MALE ASS'Y     7282209030               0         0         0         0    0    0    00000240000000240000000225000005400000
AE00TI102209150215/09/202200000000100000000000000000917KGM  00000001137KGM  7283-4577                CONNECTOR HOUSING        72834577                 0         0         0         0    0    0    00000480000000480000000172000008256000
AE00TI102209150215/09/202200000000100000000000000001005KGM  00000001158KGM  7283-6038                CONNECTOR                72836038                 0         0         0         0    0    0    00000400000000400000000273000010920000
AE00TI102209150215/09/202200000000100000000000000000894KGM  00000001185KGM  7287-9234                JOINT CONNECTOR          72879234                 0         0         0         0    0    0    00000960000000960000000137000013152000
AE00TI102209150215/09/202200000000700000000000000006063KGM  00000007078KGM  7288-3329-30             HOUSING MALE             7288332930               0         0         0         0    0    0    00001050000000150000000354000037170000
AE00TI102209150215/09/202200000000300000000000000002601KGM  00000003036KGM  7288-3335-30             HOUSING MALE             7288333530               0         0         0         0    0    0    00000450000000150000000354000015930000
AE00TI102209150215/09/202200000000900000000000000006178KGM  00000008113KGM  7289-3342                HOUSING FEMALE ASS'Y     72893342                 0         0         0         0    0    0    00002160000000240000000186000040176000
AE00TI102209150215/09/202200000007000000000000000059829KGM  00000074529KGM  7289-5979-30             HOUSING FEMALE ASS'Y     7289597930               0         0         0         0    0    0    00001764000000025200001346000237434400
AE00TI102209150215/09/202200000000100000000000000000839KGM  00000001119KGM  7289-6868-30             SEALED ASSY FEMALE       7289686830               0         0         0         0    0    0    00000252000000252000000332000008366400
AE00TI102209150215/09/202200000000100000000000000001241KGM  00000001406KGM  7298-1853-10             HOUSING FEMALE ASS'Y     7298185310               0         0         0         0    0    0    00000390000000390000000186000007254000
AE00TI102209150215/09/202200000000300000000000000003292KGM  00000004076KGM  7298-4094-10             HOUSING FEMALE ASS'Y     7298409410               0         0         0         0    0    0    00001014000000338000000241000024437400
AE00TI102209150215/09/202200000001800000000000000023760KGM  00000028260KGM  7470-5237                J/B ASS'Y                74705237                 0         0         0         0    0    0    00000043200000002400031359000135470880
