AE00TI102209150415/09/202200000003200000000000000023962KGM  00000034477KGM  7114-4100-02             TERMINAL                 7114410002               0         0         0         0    0    0    00057600000001800000000034000195840000
AE00TI102209150415/09/202200000001600000000000000008256KGM  00000012963KGM  7114-4729-02             TERMINAL                 7114472902               0         0         0         0    0    0    00048000000003000000000015000072000000
AE00TI102209150415/09/202200000001000000000000000004875KGM  00000007727KGM  7116-1301                TERMINAL                 71161301                 0         0         0         0    0    0    00015000000001500000000025000037500000
AE00TI102209150415/09/202200000000800000000000000004190KGM  00000006472KGM  7116-1473                TERMINAL                 71161473                 0         0         0         0    0    0    00010800000001350000000032000034560000
AE00TI102209150415/09/202200000001800000000000000009958KGM  00000015145KGM  7116-4102-02             TERMINAL                 7116410202               0         0         0         0    0    0    00021600000001200000000037000079920000
AE00TI102209150415/09/202200000000200000000000000001035KGM  00000001611KGM  7116-4116-02             TERMINAL                 7116411602               0         0         0         0    0    0    00001380000000690000000062000008556000
AE00TI102209150415/09/202200000001200000000000000005490KGM  00000008912KGM  7116-5750-02             TERMINAL                 7116575002               0         0         0         0    0    0    00018000000001500000000025000045000000
AE00TI102209150415/09/202200000001600000000000000009000KGM  00000013563KGM  7126-8853-02             TERMINAL                 7126885302               0         0         0         0    0    0    00012000000000750000000057000068400000
AE00TI102209150415/09/202200000002000000000000000010212KGM  00000015916KGM  7126-8855-02             TERMINAL                 7126885502               0         0         0         0    0    0    00012000000000600000000061000073200000
AE00TI102209150415/09/202200000000100000000000000000154KGM  00000000440KGM  7157-3950-80             SEAL RUBBER              7157395080               0         0         0         0    0    0    00004000000004000000000044000017600000
AE00TI102209150415/09/202200000000200000000000000000210KGM  00000000365KGM  7157-7811-80             SEAL RUBBER              7157781180               0         0         0         0    0    0    00002000000001000000000055000011000000
AE00TI102209150415/09/202200000000200000000000000000500KGM  00000000612KGM  7158-3003-90             RUBBER STOPPER           7158300390               0         0         0         0    0    0    00004000000002000000000012000004800000
AE00TI102209150415/09/202200000000400000000000000001683KGM  00000002824KGM  7195-1464-02             TERMINAL MALE            7195146402               0         0         0         0    0    0    00010200000002550000000014000014280000
AE00TI102209150415/09/202200000002400000000000000009274KGM  00000016118KGM  7196-1461-02             TERMINAL FEMALE          7196146102               0         0         0         0    0    0    00057600000002400000000014000080640000
AE00TI102209150415/09/202200000000900000000000000005380KGM  00000006491KGM  7198-1371                HOUSING FEMALE           71981371                 0         0         0         0    0    0    00001800000000200000000107000019260000
AE00TI102209150415/09/202200000000900000000000000007715KGM  00000008957KGM  7198-1372-60             HOUSING FEMALE           7198137260               0         0         0         0    0    0    00001800000000200000000149000026820000
AE00TI102209150415/09/202200000000400000000000000003287KGM  00000003790KGM  7198-1373                HOUSING FEMALE           71981373                 0         0         0         0    0    0    00000800000000200000000115000009200000
AE00TI102209150415/09/202200000000100000000000000000783KGM  00000000993KGM  7282-4578                HOUSING MALE ASS'Y       72824578                 0         0         0         0    0    0    00000120000000120000000255000003060000
AE00TI102209150415/09/202200000000300000000000000003190KGM  00000003850KGM  7282-4855                HOUSING MALE ASS'Y       72824855                 0         0         0         0    0    0    00000360000000120000000347000012492000
AE00TI102209150415/09/202200000000100000000000000000651KGM  00000000871KGM  7283-4576-30             HOUSING FEMALE ASS'Y     7283457630               0         0         0         0    0    0    00000480000000480000000131000006288000
AE00TI102209150415/09/202200000000400000000000000003350KGM  00000004230KGM  7283-4578                HOUSING FEMALE ASS'Y     72834578                 0         0         0         0    0    0    00000960000000240000000190000018240000
AE00TI102209150415/09/202200000000300000000000000002862KGM  00000003312KGM  7283-5830-30             CONNECTOR                7283583030               0         0         0         0    0    0    00001800000000600000000155000027900000
AE00TI102209150415/09/202200000000500000000000000002220KGM  00000003032KGM  7283-5845                CONNECTOR HOUSING        72835845                 0         0         0         0    0    0    00003000000000600000000133000039900000
AE00TI102209150415/09/202200000000300000000000000001332KGM  00000001819KGM  7283-5845-30             CONNECTOR HOUSING        7283584530               0         0         0         0    0    0    00001800000000600000000133000023940000
AE00TI102209150415/09/202200000000200000000000000001821KGM  00000002261KGM  7286-3885                CONNECTOR MALE ASS'Y     72863885                 0         0         0         0    0    0    00000240000000120000000295000007080000
AE00TI102209150415/09/202200000000100000000000000000667KGM  00000000923KGM  7287-1915                CONNECTOR ASS'Y          72871915                 0         0         0         0    0    0    00000240000000240000000161000003864000
AE00TI102209150415/09/202200000000100000000000000001030KGM  00000001250KGM  7287-3885-30             HYBRID FEMALE ASS'Y      7287388530               0         0         0         0    0    0    00000240000000240000000215000005160000
AE00TI102209150415/09/202200000000100000000000000001166KGM  00000001386KGM  7287-8073                HOUSING FEMALE ASS'Y     72878073                 0         0         0         0    0    0    00000240000000240000000244000005856000
AE00TI102209150415/09/202200000000100000000000000000388KGM  00000000788KGM  7288-3206                HOUSING MALE ASS'Y       72883206                 0         0         0         0    0    0    00000102000000102000000351000003580200
AE00TI102209150415/09/202200000001000000000000000006864KGM  00000009014KGM  7289-3342                HOUSING FEMALE ASS'Y     72893342                 0         0         0         0    0    0    00002400000000240000000186000044640000
AE00TI102209150415/09/202200000002400000000000000016474KGM  00000021634KGM  7289-3342-30             HOUSING FEMALE ASS'Y     7289334230               0         0         0         0    0    0    00005760000000240000000191000110016000
AE00TI102209150415/09/202200000000700000000000000004805KGM  00000006310KGM  7289-3342-40             HOUSING FEMALE ASS'Y     7289334240               0         0         0         0    0    0    00001680000000240000000192000032256000
AE00TI102209150415/09/202200000001400000000000000009610KGM  00000012620KGM  7289-3342-90             HOUSING FEMALE ASS'Y     7289334290               0         0         0         0    0    0    00003360000000240000000196000065856000
AE00TI102209150415/09/202200000000100000000000000001152KGM  00000001362KGM  7289-6547                HOUSING FEMALE ASS'Y     72896547                 0         0         0         0    0    0    00000240000000240000000229000005496000
AE00TI102209150415/09/202200000000400000000000000002133KGM  00000002916KGM  7298-2457-90             LIF FEMALE ASSEMBLY      7298245790               0         0         0         0    0    0    00000067200000016800001464000009838080
AE00TI102209150415/09/202200000000200000000000000001068KGM  00000001459KGM  7298-2459-60             LIF FEMALE ASSEMBLY      7298245960               0         0         0         0    0    0    00000033600000016800001474000004952640
