AE00TI102209150515/09/202200000001000000000000000005580KGM  00000008432KGM  7B96-0805-02             TERMINAL FEMALE          7B96080502               0         0         0         0    0    0    00022500000002250000000022000049500000
AE00TI102209150515/09/202200000000100000000000000000839KGM  00000001119KGM  7C89-6868-30             SEALED ASSY FEMALE       7C89686830               0         0         0         0    0    0    00000252000000252000000335000008442000
AE00TI102209150515/09/202200000000400000000000000002832KGM  00000004482KGM  7114-4022                TERMINAL                 71144022                 0         0         0         0    0    0    00006000000001500000000027000016200000
AE00TI102209150515/09/202200000003200000000000000017107KGM  00000027802KGM  7116-4021                TERMINAL                 71164021                 0         0         0         0    0    0    00043200000001350000000028000120960000
AE00TI102209150515/09/202200000003300000000000000010910KGM  00000012738KGM  7158-3006-90             RUBBER STOPPER           7158300690               0         0         0         0    0    0    00066000000002000000000016000105600000
AE00TI102209150515/09/202200000002500000000000000008450KGM  00000009655KGM  7158-3009-60             RUBBER STOPPER           7158300960               0         0         0         0    0    0    00050000000002000000000012000060000000
AE00TI102209150515/09/202200000000800000000000000002208KGM  00000002666KGM  7158-3070-80             RUBBER STOPPER           7158307080               0         0         0         0    0    0    00032000000004000000000008000025600000
AE00TI102209150515/09/202200000001000000000000000001040KGM  00000001524KGM  7158-3166-60             WIRE SEAL                7158316660               0         0         0         0    0    0    00040000000004000000000004000016000000
AE00TI102209150515/09/202200000004200000000000000002016KGM  00000004578KGM  7158-3167-80             WIRE SEAL                7158316780               0         0         0         0    0    0    00084000000002000000000005000042000000
AE00TI102209150515/09/202200000000600000000000000000264KGM  00000000553KGM  7158-3168-80             SEALED                   7158316880               0         0         0         0    0    0    00012000000002000000000004000004800000
AE00TI102209150515/09/202200000000500000000000000000780KGM  00000001021KGM  7158-3169-40             SEALING PLUG             7158316940               0         0         0         0    0    0    00020000000004000000000006000012000000
AE00TI102209150515/09/202200000000800000000000000006942KGM  00000008542KGM  7173-3291-40             LIF LEVER                7173329140               0         0         0         0    0    0    00001920000000240000000142000027264000
AE00TI102209150515/09/202200000000400000000000000001824KGM  00000002965KGM  7195-1463-02             TERMINAL MALE            7195146302               0         0         0         0    0    0    00011400000002850000000014000015960000
AE00TI102209150515/09/202200000000600000000000000004931KGM  00000005684KGM  7198-1373                HOUSING FEMALE           71981373                 0         0         0         0    0    0    00001200000000200000000115000013800000
AE00TI102209150515/09/202200000001000000000000000007826KGM  00000009926KGM  7282-4578                HOUSING MALE ASS'Y       72824578                 0         0         0         0    0    0    00001200000000120000000255000030600000
AE00TI102209150515/09/202200000000100000000000000000602KGM  00000000866KGM  7283-1144                CONNECTOR                72831144                 0         0         0         0    0    0    00000240000000240000000260000006240000
AE00TI102209150515/09/202200000000100000000000000000651KGM  00000000871KGM  7283-4576                HOUSING FEMALE ASS'Y     72834576                 0         0         0         0    0    0    00000480000000480000000128000006144000
AE00TI102209150515/09/202200000000100000000000000001188KGM  00000001400KGM  7283-4855                CONNECTOR HOUSING        72834855                 0         0         0         0    0    0    00000240000000240000000272000006528000
AE00TI102209150515/09/202200000000100000000000000000614KGM  00000000834KGM  7287-2705                HOUSING FEMALE ASS'Y     72872705                 0         0         0         0    0    0    00000960000000960000000148000014208000
AE00TI102209150515/09/202200000000200000000000000002333KGM  00000002773KGM  7287-8073                HOUSING FEMALE ASS'Y     72878073                 0         0         0         0    0    0    00000480000000240000000244000011712000
AE00TI102209150515/09/202200000000100000000000000000894KGM  00000001185KGM  7287-9234                JOINT CONNECTOR          72879234                 0         0         0         0    0    0    00000960000000960000000137000013152000
AE00TI102209150515/09/202200000000900000000000000007795KGM  00000009100KGM  7288-3329-30             HOUSING MALE             7288332930               0         0         0         0    0    0    00001350000000150000000354000047790000
AE00TI102209150515/09/202200000000100000000000000000867KGM  00000001012KGM  7288-3335-30             HOUSING MALE             7288333530               0         0         0         0    0    0    00000150000000150000000354000005310000
AE00TI102209150515/09/202200000001200000000000000008237KGM  00000010817KGM  7289-3342                HOUSING FEMALE ASS'Y     72893342                 0         0         0         0    0    0    00002880000000240000000186000053568000
AE00TI102209150515/09/202200000002800000000000000019219KGM  00000025239KGM  7289-3342-30             HOUSING FEMALE ASS'Y     7289334230               0         0         0         0    0    0    00006720000000240000000191000128352000
AE00TI102209150515/09/202200000000200000000000000001373KGM  00000001803KGM  7289-3342-40             HOUSING FEMALE ASS'Y     7289334240               0         0         0         0    0    0    00000480000000240000000192000009216000
AE00TI102209150515/09/202200000000400000000000000002746KGM  00000003606KGM  7289-3342-90             HOUSING FEMALE ASS'Y     7289334290               0         0         0         0    0    0    00000960000000240000000196000018816000
AE00TI102209150515/09/202200000000700000000000000008202KGM  00000009580KGM  7289-5011-30             HOUSING FEMALE ASS'Y     7289501130               0         0         0         0    0    0    00001680000000240000000333000055944000
AE00TI102209150515/09/202200000001500000000000000012821KGM  00000015971KGM  7289-5979-30             HOUSING FEMALE ASS'Y     7289597930               0         0         0         0    0    0    00000378000000025200001346000050878800
AE00TI102209150515/09/202200000000300000000000000002488KGM  00000003148KGM  7289-6518-30             HOUSING FEMALE ASS'Y     7289651830               0         0         0         0    0    0    00000360000000120000000598000021528000
AE00TI102209150515/09/202200000000100000000000000001290KGM  00000001540KGM  7289-6597-70             HOUSING FEMALE ASS'Y     7289659770               0         0         0         0    0    0    00000216000000216000000616000013305600
AE00TI102209150515/09/202200000000300000000000000002518KGM  00000003358KGM  7289-6868-30             SEALED ASSY FEMALE       7289686830               0         0         0         0    0    0    00000756000000252000000332000025099200
AE00TI102209150515/09/202200000000100000000000000001003KGM  00000001205KGM  7298-1865-30             HOUSING FEMALE ASS'Y     7298186530               0         0         0         0    0    0    00000240000000240000000196000004704000
AE00TI102209150515/09/202200000000300000000000000002945KGM  00000003870KGM  7298-5993-30             SEALED ASSY FEMALE       7298599330               0         0         0         0    0    0    00000655200000218400000266000017428320
AE00TI102209150515/09/202200000000300000000000000003329KGM  00000003779KGM  7327-6572-3W             BATTERY FUSE             732765723W               0         0         0         0    0    0    00000028800000009600008162000023506560
AE00TI102209150515/09/202200000001300000000000000014832KGM  00000017627KGM  7327-6840-3W             BATTERY FUSE             732768403W               0         0         0         0    0    0    00000093600000007200009909000092748240
AE00TI102209150515/09/202200000002000000000000000014840KGM  00000022440KGM  7388-2978-30             HOUSING MALE ASS'Y       7388297830               0         0         0         0    0    0    00000960000000048000001790000171840000
AE00TI102209150515/09/202200000000200000000000000001980KGM  00000000000KGM  7470-1693G               J/B COMPLETE ASS'Y       74701693G                0         0         0         0    0    0    00000000200000000100000000000000000000
AE00TI102209150515/09/202200000000200000000000000002640KGM  00000003140KGM  7470-4481                J/B COMPLETE ASS'Y       74704481                 0         0         0         0    0    0    00000004800000002400000000000000000000
AE00TI102209150515/09/202200000003400000000000000044880KGM  00000053380KGM  7470-5237                J/B ASS'Y                74705237                 0         0         0         0    0    0    00000081600000002400031359000255889440
AE00TI102209150515/09/202200000000300000000000000000000KGM  00000000000KGM  7470-5307S               J/B COMPLETE ASS'Y       74705307S                0         0         0         0    0    0    00000000300000000100000000000000000000
AE00TI102209150515/09/202200000000500000000000000000000KGM  00000000000KGM  7470-5679S               J/B COMPLETE ASS'Y       74705679S                0         0         0         0    0    0    00000000500000000100000000000000000000
AE00TI102209150515/09/202200000001000000000000000000000KGM  00000000000KGM  7470-5782E               J/B COMPLETE ASS'Y       74705782E                0         0         0         0    0    0    00000010000000001000000000000000000000
AE00TI102209150515/09/202200000006000000000000000000000KGM  00000000000KGM  7470-5783E               J/B COMPLETE ASS'Y       74705783E                0         0         0         0    0    0    00000060000000001000000000000000000000
AE00TI102209150515/09/202200000000700000000000000000000KGM  00000000000KGM  7470-5783S               J/B COMPLETE ASS'Y       74705783S                0         0         0         0    0    0    00000000700000000100000000000000000000
AE00TI102209150515/09/202200000001500000000000000000000KGM  00000000000KGM  7470-5784D               J/B COMPLETE ASS'Y       74705784D                0         0         0         0    0    0    00000022500000001500000000000000000000
AE00TI102209150515/09/202200000003600000000000000000000KGM  00000000000KGM  7470-5784E               J/B COMPLETE ASS'Y       74705784E                0         0         0         0    0    0    00000036000000001000000000000000000000
AE00TI102209150515/09/202200000001500000000000000000000KGM  00000000000KGM  7470-5784S               J/B COMPLETE ASS'Y       74705784S                0         0         0         0    0    0    00000001500000000100000000000000000000
AE00TI102209150515/09/202200000003000000000000000000000KGM  00000000000KGM  7470-5791D               J/B COMPLETE ASS'Y       74705791D                0         0         0         0    0    0    00000045000000001500000000000000000000
AE00TI102209150515/09/202200000002000000000000000000000KGM  00000000000KGM  7470-5791E               J/B COMPLETE ASS'Y       74705791E                0         0         0         0    0    0    00000020000000001000000000000000000000
AE00TI102209150515/09/202200000000100000000000000000000KGM  00000000000KGM  7470-5791S               J/B COMPLETE ASS'Y       74705791S                0         0         0         0    0    0    00000000100000000100000000000000000000
AE00TI102209150515/09/202200000000100000000000000000000KGM  00000000000KGM  7470-5871S               J/B COMPLETE ASS'Y       74705871S                0         0         0         0    0    0    00000000100000000100000000000000000000
AE00TI102209150515/09/202200000000100000000000000000000KGM  00000000000KGM  7470-5936S               J/B COMPLETE ASS'Y       74705936S                0         0         0         0    0    0    00000000100000000100000000000000000000
