BI00B1200    Y12I1214H      202209297288-3337-30             HOUSING MALE             CCN000001500000001500FN00000000020221001000001500NNE   20220915121733    4N0N  0000015000000086700000101201200    YCYC    005400370024
BI00B1200    Y12I1214H      202209297288-3338-30             HOUSING MALE             CCN000001500000001500FN00000000020221001000001500NNE   20220915121733    4N0N  0000015000000086610000101201200    YCYC    005400370024
BI00B1200    #Y022L50070    202211247174-1314-30             SEALED COVER             CCN000001600000001600FN00000000020221201000001600NNE   20220915121733    2F0F  0000008000000076930000088931200    YCYC    005500360039
BI00B1200    #Y022L50071    202211247174-1315-30             SEALED COVER             CCN000001600000001600FN00000000020221201000001600NNE   20220915121733    2F0F  0000008000000078200000090201200    YCYC    005500360039
BI00B1200    Y022L50072     202211247289-6523-30             HOUSING FEMALE ASS'Y     CCN000001680000001680FN00000000020221201000001680NNE   20220915121733    4N0N  0000002400000129050000162051200    YCYC    005500360039
BI00B1200    Y022L50073     202211247289-9612-30             HOUSING FEMALE ASS'Y     CCN000001920000001920FN00000000020221201000001920NNE   20220915121733    4N0N  0000002400000134880000166881200    YCYC    005500360039
BI00B1200    #Y022L50045    202211107174-1315-30             SEALED COVER             CCN000001600000001600FN00000000020221201000001600NNM   20220915121733    2F0F  0000008000000078200000090201200    YCYC    005500360039
BI00B1200    HRC-09-01      202301057195-0547-08             TERMINAL MALE            CCN000025500000025500FN00000000020230101000025500NNE   20220915121733    4P0P  0000255000000041820000070641200    YCYC    006400630015
BI00A1200    #CE22-MN-0109  202209277173-6362                ELEMENT COVER            CCN000005000000005000FN00000000020220901000005000NNE   20220915142030    2F0F  0000050000000000000000000001200    YCYC    000000000000
BI00B32CG    S220916-G      202211097116-4025                TERMINAL                 CCN000032000000032000FN00000000020221101000032000NNE   20220915151452    4P0P  00001600000000644800000975132CG    ASASIACO006400630017
BI00B32CG    S220916-G      202211097114-4111-02             TERMINAL                 CCN000012000000012000FN00000000020221101000012000NNE   20220915151452    4P0P  00001200000000758400001087032CG    ASASIACO006400630017
BI00B32CG    S220916-G      202211097116-4121-02             TERMINAL                 CCN000004500000004500FN00000000020221101000004500NNE   20220915151452    4P0P  00000450000000618800000912432CG    ASASIACO006400630015
BI00A32CH    SJ22111 MW     202209167283-7062-40             CONNECTOR HOUSING        CCN000000600000000600FN00000000020221101000000600NNMM0020220915121733    1N0N  00000060000000500400000645432CH    SJSAMIJF005400370024
BI00B32DE    TCT211A        202210277114-5747-02             TERMINAL                 CCN000018000000018000FN00000000020221101000018000NNE   20220915121733    4P0P  00001800000000626400000920032DE    TVYEV-TV006400630015
BI00B32DE    TCT211A        202210277114-5748-02             TERMINAL                 CCN000012000000012000FN00000000020221101000012000NNE   20220915121733    4P0P  00001200000000444000000737632DE    TVYEV-TV006400630015
BI00B32DE    TCT211A        202210277282-4577                HOUSING MALE ASS'Y       CCN000002400000002400FN00000000020221101000002400NNE   20220915121733    4N0N  00000240000000964800001174832DE    TVYEV-TV005500360039
BI00B32DE    TCT211A        202210277283-1288-10             CONNECTOR HOUSING        CCN000001200000001200FN00000000020221101000001200NNE   20220915121733    1N0N  00000120000001381000001637032DE    TVYEV-TV005600390040
BI00B32DE    TCT211A        202210277283-4576                HOUSING FEMALE ASS'Y     CCN000004800000004800FN00000000020221101000004800NNE   20220915121733    4N0N  00000480000000651300000871332DE    TVYEV-TV005500360039
BI00B32DE    TCT211A        202210277283-4855-40             CONNECTOR HOUSING        CCN000002400000002400FN00000000020221101000002400NNE   20220915121733    4N0N  00000240000001188400001400032DE    TVYEV-TV005600360039
BI00B32DE    TCT211A        202210277289-3342-30             HOUSING FEMALE ASS'Y     CCN000007200000007200FN00000000020221101000007200NNE   20220915121733    1N0N  00000240000000686400000901432DE    TVYEV-TV005500360039
BI00B32DE    TCT211A        202210277382-1481-10             CONNECTOR                CCN000001600000001600FN00000000020221101000001600NNE   20220915121733    4N0N  00000080000001025000001183032DE    TVYEV-TV005600390040
BI00B32D1    DFTC2245J      202210207285-1755-0W             HOUSING FEMALE ASS'Y     CCN000001120000001120FN00000000020221201000001120NNED0120220915132625    4N0N  00000014000000641700000867232D1    TOYOT-K 005500360039
BI00B32D1    #DFTC2245J     202210207137-3420-30             UNIT PACKING             CCN000001000000001000FN00000000020221201000001000NNED0120220915132646    2F0F  00000100000000157300000202032D1    TOYOT-K 004300270014
BI00B32D1    #DFTC2245J     202210207185-1757                HOUSING FEMALE           CCN000001000000001000FN00000000020221201000001000NNED0120220915132646    2F0F  00000100000000575700000701832D1    TOYOT-K 005400370024
BI00B32D1    #DFTC2245J     202210207185-6056                REAR COVER               CCN000001440000001440FN00000000020221201000001440NNED0120220915132646    2F0F  00000048000000784400000954632D1    TOYOT-K 005400370024
BI00B32D1    #DFTC2245J     202210207185-9378-51             FRONT HOLDER             CCN000001000000001000FN00000000020221201000001000NNED0120220915132646    2F0F  00000100000000278500000393732D1    TOYOT-K 005400370024
BI00B32GE    DHTC2249B      202210067126-8854-02             TERMINAL                 CCN000030000000030000FN00000000020221101000030000NNE   20220915121733    4P0P  00000750000000604500000889732GE    GEYKHT  006400630015
BI00B32GE    DHTC2249B      202210067126-8855-02             TERMINAL                 CCN000024000000024000FN00000000020221101000024000NNE   20220915121733    4P0P  00000600000000510600000795832GE    GEYKHT  006400630015
BI00B32GE    DHTC2249B      202210067158-3167-80             WIRE SEAL                CCN000140000000140000FN00000000020221101000140000NNE   20220915121733    1C0C  00002000000000048000000109032GE    GEYKHT  002700430014
BI00B32GE    DHTC2249B      202210067289-6518-30             HOUSING FEMALE ASS'Y     CCN000002400000002400FN00000000020221101000002400NNE   20220915121733    1N0N  00000120000000829200001049232GE    GEYKHT  005500360039
BI00B32GE    DHTC2249B      202210067327-6801-3W             BATTERY FUSE             CCN000000672000000672FN00000000020221101000000672NNE   20220915121733    4N0N  00000009600000928400001143432GE    GEYKHT  005500360039
BI00B32GE    DHTC2249B      202210067327-6803                MULTI FUSE               CCN000000560000000560FN00000000020221101000000560NNE   20220915121733    4N0N  00000056000000854600001067032GE    GEYKHT  005400370024
BI00B32GE    DHTC2250       202210067017-1180-02             TERMINAL                 CCN000072000000072000FN00000000020221201000072000NNM   20220915121733    4P0P  00007200000001065600001229032GE    GEYKHT  005100280028
BI00B32GE    DHTC2250       202210067017-1181-02             TERMINAL                 CCN000063000000063000FN00000000020221201000063000NNM   20220915121733    4P0P  00006300000001089900001266832GE    GEYKHT  005100280028
BI00B32GE    DHTC2250       202210067114-4032                TERMINAL                 CCN000022500000022500FN00000000020221201000022500NNM   20220915121733    4P0P  00000750000000735000001063632GE    GEYKHT  006400630017
BI00B32GE    DHTC2250       202210067114-4624-02             TERMINAL                 CCN000024000000024000FN00000000020221201000024000NNM   20220915121733    4P0P  00002400000000895200001188832GE    GEYKHT  006400630015
BI00B32GE    DHTC2250       202210067114-5748-02             TERMINAL                 CCN000108000000108000FN00000000020221201000108000NNM   20220915121733    4P0P  00001200000000444000000737632GE    GEYKHT  006400630015
BI00B32GE    DHTC2250       202210067114-5753-02             TERMINAL                 CCN000270000000270000FN00000000020221201000270000NNM   20220915121733    4P0P  00002700000000847800001141432GE    GEYKHT  006400630015
BI00B32GE    DHTC2250       202210067116-1685-02             TERMINAL                 CCN000096000000096000FN00000000020221201000096000NNM   20220915121733    4P0P  00002400000000897600001065232GE    GEYKHT  005100280028
BI00B32GE    DHTC2250       202210067116-2891-02             TERMINAL                 CCN000135000000135000FN00000000020221201000135000NNM   20220915121733    4P0P  00001500000000982500001145932GE    GEYKHT  005100280028
BI00B32GE    DHTC2250       202210067116-4101-02             TERMINAL                 CCN000019600000024000FN00000000020221201000024000NNM   20220915121733    4P0P  00001200000000582000000876232GE    GEYKHT  006400630015
BI00B32GE    DHTC2250       202210067116-4110-02             TERMINAL                 CCN000036000000036000FN00000000020221201000036000NNM   20220915121733    4P0P  00000900000000594000000882232GE    GEYKHT  006400630015
BI00B32GE    DHTC2250       202210067116-4111-02             TERMINAL                 CCN000060000000060000FN00000000020221201000060000NNM   20220915121733    4P0P  00000750000000529500000817732GE    GEYKHT  006400630015
BI00B32GE    DHTC2250       202210067116-4112-02             TERMINAL                 CCN000050000000054000FN00000000020221201000054000NNM   20220915121733    4P0P  00000600000000450000000738232GE    GEYKHT  006400630015
BI00B32GE    DHTC2250       202210067116-4486-02             TERMINAL                 CCN000196000000196000FN00000000020221201000196000NNM   20220915121733    4P0P  00002800000000666400000995132GE    GEYKHT  006400630017
BI00B32GE    DHTC2250       202210067116-5045-02             TERMINAL                 CCN000160000000160000FN00000000020221201000160000NNM   20220915121733    4P0P  00001600000000678400001007132GE    GEYKHT  006400630017
BI00B32GE    DHTC2250       202210067126-8853-02             TERMINAL                 CCN000165000000165000FN00000000020221201000165000NNM   20220915121733    4P0P  00000750000000562500000847732GE    GEYKHT  006400630015
BI00B32GE    DHTC2250       202210067126-8854-02             TERMINAL                 CCN000172500000172500FN00000000020221201000172500NNM   20220915121733    4P0P  00000750000000604500000889732GE    GEYKHT  006400630015
BI00B32GE    DHTC2250       202210067126-8855-02             TERMINAL                 CCN000192000000192000FN00000000020221201000192000NNM   20220915121733    4P0P  00000600000000510600000795832GE    GEYKHT  006400630015
BI00B32GE    DHTC2250       202210067158-3070-80             RUBBER STOPPER           CCN000160000000160000FN00000000020221201000160000NNM   20220915121733    1C0C  00004000000000276000000333332GE    GEYKHT  002700430014
BI00B32GE    DHTC2250       202210067158-3167-80             WIRE SEAL                CCN000160000000160000FN00000000020221201000160000NNM   20220915121733    1C0C  00002000000000048000000109032GE    GEYKHT  002700430014
BI00B32GE    DHTC2250       202210067173-3291-40             LIF LEVER                CCN000012000000012000FN00000000020221201000012000NNM   20220915121733    1F0F  00000240000000867800001067832GE    GEYKHT  005500360039
BI00B32GE    DHTC2250       202210067195-1479-02             TERMINAL MALE            CCN000024000000024000FN00000000020221201000024000NNM   20220915121733    4P0P  00002400000000420000000714232GE    GEYKHT  006400630015
BI00B32GE    DHTC2250       202210067196-0396-02             TERMINAL                 CCN000030000000030000FN00000000020221201000030000NNM   20220915121733    4P0P  00001500000000949500001112932GE    GEYKHT  002800510028
BI00B32GE    DHTC2250       202210067196-0510-02             TERMINAL                 CCN000024000000024000FN00000000020221201000024000NNM   20220915121733    4P0P  00002400000000871200001034632GE    GEYKHT  002800510028
BI00B32GE    DHTC2250       202210067196-0511-02             TERMINAL                 CCN000024000000024000FN00000000020221201000024000NNM   20220915121733    4P0P  00002400000000916800001080232GE    GEYKHT  002800510028
BI00B32GE    DHTC2250       202210067196-1325-02             TERMINAL FEMALE          CCN000300000000300000FN00000000020221201000300000NNM   20220915121733    4P0P  00006000000000450000000778732GE    GEYKHT  006400630017
BI00B32GE    DHTC2250       202210067196-1326-02             TERMINAL FEMALE          CCN000600000000600000FN00000000020221201000600000NNM   20220915121733    4P0P  00006000000000456000000784732GE    GEYKHT  006400630017
BI00B32GE    DHTC2250       202210067196-1327-02             TERMINAL FEMALE          CCN000052000000052000FN00000000020221201000052000NNM   20220915121733    4P0P  00005200000000336000000739532GE    GEYKHT  006400630017
BI00B32GE    DHTC2250       202210067196-1482-02             TERMINAL FEMALE          CCN000024000000024000FN00000000020221201000024000NNM   20220915121733    4P0P  00002400000000424800000710032GE    GEYKHT  006400630015
BI00B32GE    DHTC2250       202210067282-4576                HOUSING MALE ASS'Y       CCN000009600000009600FN00000000020221201000009600NNM   20220915121733    4N0N  00000240000000808800001028832GE    GEYKHT  005500360039
BI00B32GE    DHTC2250       202210067283-1156                CONNECTOR                CCN000004000000004000FN00000000020221201000004000NNM   20220915121733    4N0N  00000080000000877600001078032GE    GEYKHT  005600390040
BI00B32GE    DHTC2250       202210067283-1968-30             CONNECTOR                CCN000004500000004500FN00000000020221201000004500NNM   20220915121733    1N0N  00000090000001140000001318332GE    GEYKHT  005600390040
BI00B32GE    DHTC2250       202210067283-5830                CONNECTOR                CCN000006000000006000FN00000000020221201000006000NNM   20220915121733    1N47  00000600000000954000001104032GE    GEYKHT  005500360039
BI00B32GE    DHTC2250       202210067288-6547                CONNECTOR MALE ASS'Y     CCN000001500000001500FN00000000020221201000001500NNM   20220915121733    4N0N  00000075000001205300001340332GE    GEYKHT  005400370024
BI00B32GE    DHTC2250       202210067289-3342                HOUSING FEMALE ASS'Y     CCN000060000000060000FN00000000020221201000060000NNM   20220915121733    1N0N  00000240000000686400000901432GE    GEYKHT  005500360039
BI00B32GE    DHTC2250       202210067289-3342-30             HOUSING FEMALE ASS'Y     CCN000091200000091200FN00000000020221201000091200NNM   20220915121733    1N0N  00000240000000686400000901432GE    GEYKHT  005500360039
BI00B32GE    DHTC2250       202210067289-3342-40             HOUSING FEMALE ASS'Y     CCN000012000000012000FN00000000020221201000012000NNM   20220915121733    1N0N  00000240000000686400000901432GE    GEYKHT  005500360039
BI00B32GE    DHTC2250       202210067289-3342-90             HOUSING FEMALE ASS'Y     CCN000031200000031200FN00000000020221201000031200NNM   20220915121733    1N0N  00000240000000686400000901432GE    GEYKHT  005500360039
BI00B32GE    DHTC2250       202210067289-6518-30             HOUSING FEMALE ASS'Y     CCN000009600000009600FN00000000020221201000009600NNM   20220915121733    1N0N  00000120000000829200001049232GE    GEYKHT  005500360039
BI00B32GE    DHTC2250       202210067289-6547                HOUSING FEMALE ASS'Y     CCN000002400000002400FN00000000020221201000002400NNM   20220915121733    1N0N  00000240000001152000001362032GE    GEYKHT  005500360039
BI00B32GE    DHTC2250       202210067295-0785-02             TERMINAL ALUMINIUM       CCN000025500000025500FN00000000020221201000025500NNM   20220915121733    4P0P  00002550000000510000000803632GE    GEYKHT  006400630015
BI00B32GE    DHTC2250       202210067296-0784-02             TERMINAL ALUMINIUM       CCN000120000000120000FN00000000020221201000120000NNM   20220915121733    4P0P  00002400000000480000000765232GE    GEYKHT  006400630015
BI00B32GE    DHTC2250       202210067296-1020-02             TERMINAL ALUMINIUM       CCN000022500000022500FN00000000020221201000022500NNM   20220915121733    4P0P  00002250000000699800000985032GE    GEYKHT  006400630015
BI00B32GE    DHTC2250       202210067296-1024-02             TERMINAL ALUMINIUM       CCN000018000000018000FN00000000020221201000018000NNM   20220915121733    4P0P  00001800000000698400000983632GE    GEYKHT  006400630015
BI00B32GE    DHTC2250       202210067297-3482                JOINT CONNECTOR          CCN000033300000033600FN00000000020221201000033600NNM   20220915121733    4N0N  00000080000000621000000730532GE    GEYKHT  005400370024
BI00B32GE    DHTC2250       202210067298-3484                HOUSING FEMALE ASS'Y     CCN000018900000018900FN00000000020221201000018900NNM   20220915121733    4N0N  00000270000000742500001028732GE    GEYKHT  005400370024
BI00B32GE    DHTC2250       202210067298-3484-30             HOUSING FEMALE ASS'Y     CCN000002100000002700FN00000000020221201000002700NNM   20220915121733    4N0N  00000270000000742500001028732GE    GEYKHT  005400370024
BI00B32GE    DHTC2250       202210067327-6731-3W             BATTERY FUSE             CCN000000256000000256FN00000000020221201000000256NNM   20220915121733    4N0N  00000006400000697600000843032GE    GEYKHT  005400370024
BI00B32GE    DHTC2250       202210067327-6801-3W             BATTERY FUSE             CCN000002976000002976FN00000000020221201000002976NNM   20220915121733    4N0N  00000009600000928400001143432GE    GEYKHT  005500360039
BI00B32GE    DHTC2250       202210067327-6803                MULTI FUSE               CCN000001120000001120FN00000000020221201000001120NNM   20220915121733    4N0N  00000056000000854600001067032GE    GEYKHT  005400370024
BI00B32GE    DHTC2250       202210067327-6806                MULTI FUSE               CCN000003360000003360FN00000000020221201000003360NNM   20220915121733    4N0N  00000056000000851500001063932GE    GEYKHT  005400370024
BI00B32GE    DHTC2250       202210067327-6809                MULTI FUSE               CCN000006160000006160FN00000000020221201000006160NNM   20220915121733    4N0N  00000056000000849300001061732GE    GEYKHT  005400370024
BI00B32GE    DHTC2250       202210067327-6930                MULTI FUSE               CCN000002240000002240FN00000000020221201000002240NNM   20220915121733    4N0N  00000056000000848900001031932GE    GEYKHT  005400370024
BI00B32GE    DHTC2250       202210067327-6983-30             MAIN FUSE                CCN000003000000003000FN00000000020221201000003000NNM   20220915121733    4N0N  00000060000000748800000951532GE    GEYKHT  005400370024
BI00B32GE    DHTC2250       202210067327-6985-30             MULTI FUSE               CCN000002592000002592FN00000000020221201000002592NNM   20220915121733    4N0N  00000028800000886100001052032GE    GEYKHT  005400370024
BI00B32GE    DHTC2250       202210067327-6990-30             MULTI FUSE               CCN000002800000002800FN00000000020221201000002800NNM   20220915121733    4NON  00000056000000724000000907032GE    GEYKHT  005400370024
BI00B32GE    DHTC2250       202210067327-6998-30             MULTI FUSE               CCN000002304000002304FN00000000020221201000002304NNM   20220915121733    4N0N  00000028800000886000001051932GE    GEYKHT  005400370024
BI00B32GE    DHTC2250       202210067388-2978-30             HOUSING MALE ASS'Y       CCN000027840000027840FN00000000020221201000027840NNM   20220915121733    1N0N  00000048000000742000001122032GE    GEYKHT  005500360039
BI00B32GE    #DHTC2250      202210067047-5344                RETAINER                 CCN000010000000010000FN00000000020221201000010000NNM   20220915121733    2F0F  00001000000000870000001016032GE    GEYKHT  005600390023
BI00B32GE    #DHTC2250      202210067158-3003-90             RUBBER STOPPER           CCN000300000000300000FN00000000020221201000300000NNM   20220915121733    2C0C  00002000000000250000000306032GE    GEYKHT  002700430014
BI00B32GE    #DHTC2250      202210067158-3004-40             RUBBER STOPPER           CCN000040000000040000FN00000000020221201000040000NNM   20220915121733    2C0C  00002000000000234000000306332GE    GEYKHT  002700430014
BI00B32GE    #DHTC2250      202210067158-3005-80             RUBBER STOPPER           CCN000060000000060000FN00000000020221201000060000NNM   20220915121733    2H0H  00002000000000210000000268732GE    GEYKHT  002700430014
BI00B32GE    #DHTC2250      202210067158-3008-80             RUBBER STOPPER           CCN000120000000120000FN00000000020221201000120000NNM   20220915121733    2C0C  00002000000000288000000343032GE    GEYKHT  004300270014
BI00B32GE    #DHTC2250      202210067158-3015-10             RUBBER STOPPER           CCN000010000000010000FN00000000020221201000010000NNM   20220915121733    2C0C  00001000000000419500000474032GE    GEYKHT  002700430014
BI00B32GE    #DHTC2250      202210067158-3017                RUBBER STOPPER           CCN000060000000060000FN00000000020221201000060000NNM   20220915121733    2C0C  00001000000000375500000435032GE    GEYKHT  002700430014
BI00B32GE    #DHTC2250      202210067172-5625-90             RUBBER STOPPER           CCN000020000000020000FN00000000020221201000020000NNM   20220915121733    2H0H  00002000000000082400000133832GE    GEYKHT  004300270014
BI00B32GE    #DHTC2250      202210067172-5627-60             RUBBER STOPPER           CCN000020000000020000FN00000000020221201000020000NNM   20220915121733    2H0H  00002000000000070400000121832GE    GEYKHT  004300270014
BI00B32GE    #DHTC2250      202210067172-5628-80             DUMMY PLUG               CCN000020000000020000FN00000000020221201000020000NNM   20220915121733    2H0H  00002000000000110600000162032GE    GEYKHT  004300270014
BI00B32GE    #DHTC2250      202210067172-5629-80             RUBBER STOPPER           CCN000220000000220000FN00000000020221201000220000NNM   20220915121733    2H0H  00002000000000060000000111132GE    GEYKHT  004300270014
BI00B32GE    #DHTC2250      202210067172-5630-40             RUBBER STOPPER           CCN000300000000300000FN00000000020221201000300000NNM   20220915121733    2H0H  00002000000000044000000095132GE    GEYKHT  004300270014
BI00B32GE    #DHTC2250      202210067172-5631-60             RUBBER STOPPER           CCN000040000000040000FN00000000020221201000040000NNM   20220915121733    2H0H  00002000000000042000000093132GE    GEYKHT  004300270014
BI00B32GE    #DHTC2250      202210067172-5632-10             DUMMY PLUG               CCN000180000000180000FN00000000020221201000180000NNM   20220915121733    2H0H  00002000000000080400000131832GE    GEYKHT  004300270014
BI00B32GE    #DHTC2250      202210067183-2415-90             CONNECTOR HOUSING        CCN000004800000004800FN00000000020221201000004800NNM   20220915121733    2F0F  00000480000000798200001091432GE    GEYKHT  005500360039
BI00B32GE    #DHTC2250      202210067183-2418-30             CONNECTOR HOUSING        CCN000004800000004800FN00000000020221201000004800NNM   20220915121733    2F0F  00000480000000917000001235332GE    GEYKHT  005500360039
BI00B32GE    #DHTC2250      202210067183-2511                HOUSING                  CCN000001600000001600FN00000000020221201000001600NNM   20220915121733    2F0F  00000160000000972200001242132GE    GEYKHT  005500360039
BI00B32GE    #DHTC2250      202210067189-2978-30             HOUSING FEMALE           CCN000030000000030000FN00000000020221201000030000NNM   20220915121733    2F0F  00000150000000966900001096932GE    GEYKHT  005400370024
BI00B32GE    #DHTC2250      202210067189-3033                HOUSING FEMALE           CCN000004800000004800FN00000000020221201000004800NNM   20220915121733    2F0F  00000160000001211200001431232GE    GEYKHT  005500360039
BI00B32GE    #DHTC2250      202210067189-3036                HOUSING FEMALE           CCN000001600000001600FN00000000020221201000001600NNM   20220915121733    2F0F  00000160000000921600001141632GE    GEYKHT  005500360039
BI00B32GE    #DHTC2250      202210067189-3037-40             HOUSING FEMALE           CCN000004800000004800FN00000000020221201000004800NNM   20220915121733    2F0F  00000480000000901600001061632GE    GEYKHT  005500360039
BI00B32GE    #DHTC2250      202210067198-5394                HOUSING FEMALE           CCN000004800000004800FN00000000020221201000004800NNM   20220915121733    2F0F  00000480000000489700000688832GE    GEYKHT  005500360039
BI00B32GE    #DHTC2250      202210067282-1641                CONNECTOR                CCN000004000000004000FN00000000020221201000004000NNM   20220915121733    2N0N  00000200000000813000000986032GE    GEYKHT  005500360039
BI00B32GE    #DHTC2250      202210067282-7424                CONNECTOR                CCN000004000000004000FN00000000020221201000004000NNM   20220915121733    2N0N  00000400000001064000001243032GE    GEYKHT  005500360039
BI00B32GE    #DHTC2250      202210067289-2912-40             HOUSING FEMALE ASS'Y     CCN000006000000006000FN00000000020221201000006000NNM   20220915121733    2N0N  00000200000000804000000931032GE    GEYKHT  005400370024
BI00B32GE    #DHTC2250      202210067289-3622-30             HOUSING FEMALE ASS'Y     CCN000000864000000864FN00000000020221201000000864NNM   20220915121733    2N0N  00000043200000839400001038432GE    GEYKHT  005400370024
BI00B32GE    #DHTC2250      202210067289-4200-30             HOUSING FEMALE ASS'Y     CCN000006000000006000FN00000000020221201000006000NNM   20220915121733    2N0N  00000200000000926000001021032GE    GEYKHT  005400370024
BI00B32H2    TIJ2094        202210217298-2278-30             HOUSING FEMALE ASS'Y     CCN000004800000004800FN00000000020220901000004800NNMD0020220915121733    4N0N  00000240000001091700001295432H2    HVYHV   005500360039
BI00B32H2    TIJ2104        202210217298-2278-30             HOUSING FEMALE ASS'Y     CCN000002400000000000FY00000000020221001000000000NNMQ0820220915114940    4N0N  00000240000001091700001295432H2    HVYHV   005500360039
BI00B32H2    TIJ2105        202210287298-2278-30             HOUSING FEMALE ASS'Y     CCN000009600000009600FN00000000020221001000009600NNMD0020220915121733    4N0N  00000240000001091700001295432H2    HVYHV   005500360039
BI00B32H2    TIJ210H        202210217298-2278-30             HOUSING FEMALE ASS'Y     CCN000002400000002400FN00000000020221001000002400NNED0020220915121733    4N0N  00000240000001091700001295432H2    HVYHV   005500360039
BI00B32H2    TIJ210J        202210217298-2278-30             HOUSING FEMALE ASS'Y     CCN000002400000000000FY00000000020221001000000000NNEQ0820220915114957    4N0N  00000240000001091700001295432H2    HVYHV   005500360039
BI00B32H2    TIJ2112        202210217298-2278-30             HOUSING FEMALE ASS'Y     CCN000004800000000000FY00000000020221101000000000NNMQ0820220915115014    4N0N  00000240000001091700001295432H2    HVYHV   005500360039
BI00B32H2    TIJ2113        202210287298-2278-30             HOUSING FEMALE ASS'Y     CCN000004800000000000FY00000000020221101000000000NNMQ0820220915115036    4N0N  00000240000001091700001295432H2    HVYHV   005500360039
BI00B32H2    TIJ211E        202210077158-3023                RUBBER STOPPER           CCN000005000000005000FN00000000020221101000005000NNED0020220915143553    1C0C  00000500000000443500000502032H2    HVYHV   002700430014
BI00B32H8    TY2210B MW     202210077283-5845                CONNECTOR HOUSING        CCN000006000000006000FN00000000020221001000006000NNED0220220915132035    1N0N  00000600000000444000000606332H8    TYTYC   005400370024
BI00A32J1    398291         202210317114-4030                TERMINAL                 CCN000010500000010500FN00000000020221001000010500NNE   20220915121733    4P0P  00001050000000926100001254732J1    UKYEL-BL006400630017
BI00B32J1    #398294        202211077282-6446-30             CONNECTOR                CCN000006000000006000FN00000000020221101000006000NNE   20220915121733    2N0N  00000150000001185000001335032J1    UKYEL-BL005500360039
BI00B32J1    398293         202210317114-4231-02             TERMINAL                 CCN000018000000018000FN00000000020221001000018000NNE   20220915121733    4P0P  00001800000000554400000848032J1    UKYEL-BL006400630015
BI00B32J1    398293         202210317158-3006-90             RUBBER STOPPER           CCN000040000000040000FN00000000020221001000040000NNE   20220915121733    1C0C  00002000000000330600000386032J1    UKYEL-BL002700430014
BI00B32J1    398293         202210317158-3070-80             RUBBER STOPPER           CCN000120000000120000FN00000000020221001000120000NNE   20220915121733    1C0C  00004000000000276000000333332J1    UKYEL-BL002700430014
BI00B32J1    398293         202210317158-3165-90             WIRE SEAL                CCN000120000000120000FN00000000020221001000120000NNE   20220915121733    1C0C  00004000000000124000000172432J1    UKYEL-BL004300270014
BI00B32J1    398293         202210317283-5846                HOUSING                  CCN000048000000048000FN00000000020221001000048000NNE   20220915121733    1N0N  00000150000000885000001102032J1    UKYEL-BL005600390040
BI00B32J1    #398293        202210317158-3121-80             WIRE SEAL                CCN000040000000040000FN00000000020221001000040000NNE   20220915121733    2C0C  00002000000000118000000187332J1    UKYEL-BL002700430014
BI00B32J1    #398293        202210317297-2286-30             HOUSING MALE ASS'Y       CCN000004000000004000FN00000000020221001000004000NNE   20220915121733    2N0N  00000200000000691000000776632J1    UKYEL-BL005400370024
BI00B32J1    398296         202211287114-6041                TERMINAL                 CCN000032400000032400FN00000000020221101000032400NNE   20220915121733    4P0P  00000360000000580700000824232J1    UKYEL-BL006400630015
BI00B32K8    #K1220011793   202212097137-2200                CONNECTOR PACKING        CCN000005000000005000FN00000000020230101000005000NNM   20220915121733    2C0C  00000500000000136000000211332K8    ELELCOM 004300270014
BI00B32K8    #K1220011793   202212097137-2717-50             SEALED CONNECTOR         CCN000012000000012000FN00000000020230101000012000NNM   20220915121733    2C0C  00000400000000212800000284032K8    ELELCOM 002700430014
BI00A32M3    #QA-22-C075    202209157187-8856                HOUSING FEMALE           PNN000010000000006000FY00000600020220801000000000NNED0020220915160702    2F0F  00000200000000820000000931532M3    SASAMI  005400370024
BI00B32N1    NST2123BCU     202209297114-1301                TERMINAL                 CCN000195000000195000FN00000000020221001000195000NNE   20220915121733    4P0P  00001950000000614300000907932N1    TAYIPL  006400630015
BI00B32N1    NST2123BCU     202209297114-1470                TERMINAL                 CCN000181500000181500FN00000000020221001000181500NNE   20220915121733    4P0P  00001650000000544500000838732N1    TAYIPL  006400630015
BI00B32N1    NST2123BCU     202209297114-4020                TERMINAL                 CCN000105000000105000FN00000000020221001000105000NNE   20220915121733    4P0P  00002100000000875700001169332N1    TAYIPL  006400630015
BI00B32N1    NST2123BCU     202209297114-4031                TERMINAL                 CCN000178500000178500FN00000000020221001000178500NNE   20220915121733    4P0P  00001050000000966000001294632N1    TAYIPL  006400630017
BI00B32N1    NST2123BCU     202209297114-4416-02             TERMINAL MALE            CCN000027000000027000FN00000000020221001000027000NNE   20220915121733    4P0P  00002700000000442800000731032N1    TAYIPL  006400630015
BI00B32N1    NST2123BCU     202209297114-4728-02             TERMINAL                 CCN000030000000030000FN00000000020221001000030000NNE   20220915121733    4P0P  00003000000000510000000804232N1    TAYIPL  006400630015
BI00B32N1    NST2123BCU     202209297116-1180                TERMINAL                 CCN000136500000136500FN00000000020221001000136500NNE   20220915121733    1P0P  00001950000000618200000903432N1    TAYIPL  006400630015
BI00B32N1    NST2123BCU     202209297116-1486-02             TERMINAL                 CCN000231000000231000FN00000000020221001000231000NNE   20220915121733    4P0P  00001650000000655100000940332N1    TAYIPL  006400630015
BI00B32N1    NST2123BCU     202209297116-1685-02             TERMINAL                 CCN000432000000432000FN00000000020221001000432000NNE   20220915121733    4P0P  00002400000000897600001065232N1    TAYIPL  005100280028
BI00B32N1    NST2123BCU     202209297116-4122-02             TERMINAL                 CCN000018000000018000FN00000000020221001000018000NNE   20220915121733    4P0P  00000450000000656600000950232N1    TAYIPL  006400630015
BI00B32N1    NST2123BCU     202209297116-4231-02             TERMINAL                 CCN000208000000208000FN00000000020221001000208000NNE   20220915121733    4P0P  00002600000000683800001012532N1    TAYIPL  006400630017
BI00B32N1    NST2123BCU     202209297116-4415-02             TERMINAL                 CCN000038000000038000FN00000000020221001000038000NNE   20220915121733    4P0P  00003800000000596600000925732N1    TAYIPL  006400630017
BI00B32N1    NST2123BCU     202209297158-3006-90             RUBBER STOPPER           CCN000180000000180000FN00000000020221001000180000NNE   20220915121733    1C0C  00002000000000330600000386032N1    TAYIPL  002700430014
BI00B32N1    NST2123BCU     202209297158-3070-80             RUBBER STOPPER           CCN000200000000200000FN00000000020221001000200000NNE   20220915121733    1C0C  00004000000000276000000333332N1    TAYIPL  002700430014
BI00B32N1    NST2123BCU     202209297158-3166-60             WIRE SEAL                CCN001520000001520000FN00000000020221001001520000NNE   20220915121733    1C0C  00004000000000104000000152432N1    TAYIPL  002700430014
BI00B32N1    NST2123BCU     202209297158-3167-80             WIRE SEAL                CCN001960000001960000FN00000000020221001001960000NNE   20220915121733    1C0C  00002000000000048000000109032N1    TAYIPL  002700430014
BI00B32N1    NST2123BCU     202209297172-5540-80             SEALED WIRE SEAL         CCN000140000000140000FN00000000020221001000140000NNE   20220915121733    1C0C  00002000000000186000000234432N1    TAYIPL  004300270014
BI00B32N1    NST2123BCU     202209297196-0648-02             TERMINAL                 CCN000015000000015000FN00000000020221001000015000NNE   20220915121733    4P0P  00001500000000355500000689732N1    TAYIPL  006400630015
BI00B32N1    NST2123BCU     202209297196-0805-02             TERMINAL FEMALE          CCN000045000000045000FN00000000020221001000045000NNE   20220915121733    4P0P  00002250000000558000000843232N1    TAYIPL  006400630015
BI00B32N1    NST2123BCU     202209297222-7564-40             CONNECTOR                CCN000009500000009500FN00000000020221001000009500NNE   20220915121733    1N0N  00000050000000967000001097032N1    TAYIPL  005500360039
BI00B32N1    NST2123BCU     202209297282-1248-50             HOUSING SUB ASSEMBLY     CCN000005400000005400FN00000000020221001000005400NNE   20220915121733    1N0N  00000060000001167000001372032N1    TAYIPL  005500360039
BI00B32N1    NST2123BCU     202209297283-1040                CONNECTOR                CCN000002000000002000FN00000000020221001000002000NNE   20220915121733    4N0N  00000200000000396000000670032N1    TAYIPL  005600390040
BI00B32N1    NST2123BCU     202209297283-1927-30             CONNECTOR                CCN000020000000020000FN00000000020221001000020000NNE   20220915121733    4N0N  00000200000001190000001368032N1    TAYIPL  005500360039
BI00B32N1    NST2123BCU     202209297283-7062-40             CONNECTOR HOUSING        CCN000001800000001800FN00000000020221001000001800NNE   20220915121733    1N0N  00000060000000500400000645432N1    TAYIPL  005400370024
BI00B32N1    #NST2123BCU    202209297116-4021                TERMINAL                 CCN000094500000094500FN00000000020221001000094500NNE   20220915121733    2F0P  00001350000000534600000868832N1    TAYIPL  006400630015
BI00B32N1    #NST2123BCU    202209297157-3646                RUBBER STOPPER           CCN000120000000120000FN00000000020221001000120000NNE   20220915121733    2H0H  00002000000000184000000255232N1    TAYIPL  002700430014
BI00B32N1    #NST2123BCU    202209297157-3790-90             WIRE SEAL                CCN000020000000020000FN00000000020221001000020000NNE   20220915121733    2C0C  00002000000000176000000232732N1    TAYIPL  002700430014
BI00B32N1    #NST2123BCU    202209297157-3950-80             SEAL RUBBER              CCN000120000000120000FN00000000020221001000120000NNE   20220915121733    2C0C  00004000000000154000000440332N1    TAYIPL  002700430014
BI00B32N1    #NST2123BCU    202209297157-3952-80             RUBBER STOPPER           CCN000020000000020000FN00000000020221001000020000NNE   20220915121733    2C0C  00001000000000117000000175032N1    TAYIPL  002700430014
BI00B32N1    #NST2123BCU    202209297157-7812                SEAL RUBBER              CCN000060000000060000FN00000000020221001000060000NNE   20220915121733    2C0C  00001000000000137000000202032N1    TAYIPL  002700430014
BI00B32N1    #NST2123BCU    202209297158-3004-40             RUBBER STOPPER           CCN000040000000040000FN00000000020221001000040000NNE   20220915121733    2C0C  00002000000000234000000306332N1    TAYIPL  002700430014
BI00B32N1    #NST2123BCU    202209297158-3120-90             CONNECTOR WIRE SEAL      CCN000160000000160000FN00000000020221001000160000NNE   20220915121733    2C0C  00002000000000136000000194032N1    TAYIPL  002700430014
BI00B32N1    #NST2123BCU    202209297158-3121-80             WIRE SEAL                CCN000080000000080000FN00000000020221001000080000NNE   20220915121733    2C0C  00002000000000118000000187332N1    TAYIPL  002700430014
BI00B32N1    #NST2123BCU    202209297183-2418                CONNECTOR HOUSING        CCN000004800000004800FN00000000020221001000004800NNE   20220915121733    2F0F  00000480000000917000001477032N1    TAYIPL  005500360039
BI00B32N1    #NST2123BCU    202209297283-5831                CONNECTOR                CCN000015000000015000FN00000000020221001000015000NNE   20220915121733    2N0N  00000300000000750000000880032N1    TAYIPL  005400370024
BI00B32N1    #NST2123BCU    202209297289-2912-30             HOUSING FEMALE ASS'Y     CCN000050000000050000FN00000000020221001000050000NNE   20220915121733    2N0N  00000200000000804000000929032N1    TAYIPL  005400370024
BI00B32N1    #NST2123BCU    202209297282-7424                CONNECTOR                CCN000012000000012000FN00000000020221001000012000NNE   20220915121733    2N0N  00000400000001064000001243032N1    TAYIPL  005500360039
BI00B32N1    #NST2123BCU    202209297283-8123                CONNECTOR HOUSING        CCN000004000000004000FN00000000020221001000004000NNE   20220915121733    2N0N  00000400000000380000000531732N1    TAYIPL  005600390023
BI00B32R7    R-TAP220410    202210067116-4025                TERMINAL                 CCN000016000000016000FN00000000020221001000016000NNE   20220915121733    4P0P  00001600000000644800000975132R7    IVYCIC  006400630017
BI00B32R7    R-TAP220410    202210067116-4026                TERMINAL                 CCN000016000000016000FN00000000020221001000016000NNE   20220915121733    4P0P  00001600000000664000000994332R7    IVYCIC  006400630017
BI00B32R7    R-TAP220411    202209297116-4121-02             TERMINAL                 CCN000058500000058500FN00000000020221001000058500NNE   20220915121733    4P0P  00000450000000618800000912432R7    IVYCIC  006400630015
BI00A32W4    4500196392     202210207116-4022                TERMINAL                 CCN000081000000000000FY00000000020220801000000000NNEQ0820220915155137W4494P0P  00001350000000618300000903532W449  HJYHK   006400630015
BI00A32W4    4500197150     202209267116-4111-02             TERMINAL                 CCN000007500000000000FY00000000020220901000000000NNEQ0820220915155159W4494P0P  00000750000000529500000817732W449  HJYHK   006400630015
BI00A32W4    4500197466     202209217116-4112-02             TERMINAL                 CCN000012000000012000FN00000000020221001000012000NNED0020220915163727W4M54P0P  00000600000000450000000738232W4M5  HJYHK-J 006400630015
BI00A32W4    4500197851     202209217116-4112-02             TERMINAL                 CCN000012000000012000FN00000000020221001000012000NNED0020220915161111W4M54P0P  00000600000000450000000738232W4M5  HJYHK-J 006400630015
BI00A32W4    4500198262     202209287116-4112-02             TERMINAL                 CCN000018000000018000FN00000000020221001000018000NNED0020220915161125W4M54P0P  00000600000000450000000738232W4M5  HJYHK-J 006400630015
BI00A32W4    4500199176     202209287116-4112-02             TERMINAL                 CCN000012000000012000FN00000000020221001000012000NNED0020220915161140W4M54P0P  00000600000000450000000738232W4M5  HJYHK-J 006400630015
BI00A32W4    4500199856     202210277116-4025                TERMINAL                 CCN000016000000000000FY00000000020221001000000000NNEQ0820220915155224W4494P0P  00001600000000644800000975132W449  HJYHK   006400630017
BI00B32W4    4500200532     202210067388-0313-30             CONNECTOR ASS'Y          CCN000001200000001200FN00000000020221001000001200NNE   20220915121733W4D44N0N  00000120000000995000001125032W4D4  HJYHK-J 005400370024
BI00B32W4    4500200532     202210067289-6868-30             SEALED ASSY FEMALE       CCN000005040000005040FN00000000020221001000005040NNE   20220915121733W4D44N0N  00000252000000839200001119232W4D4  HJYHK-J 005500360039
BI00B32W4    #4500200532    202210067174-1760-50             CAP                      CCN000009000000009000FN00000000020221001000009000NNE   20220915121733W4D42F0F  00000300000000813600000922632W4D4  HJYHK-J 005400370024
BI00B32W4    4500200526     202211107116-4111-02             TERMINAL                 CCN000007500000007500FN00000000020221101000007500NNE   20220915121733W4664P0P  00000750000000529500000817732W466  HJYHK   006400630015
BI00B32W4    4500200526     202211107116-4112-02             TERMINAL                 CCN000024000000024000FN00000000020221101000024000NNE   20220915121733W4664P0P  00000600000000450000000738232W466  HJYHK   006400630015
BI00B32W4    4500200526     202211107116-4102-02             TERMINAL                 CCN000048000000048000FN00000000020221101000048000NNE   20220915121733W4664P0P  00001200000000553200000841432W466  HJYHK   006400630015
BI00B32W4    4500200526     202211107114-4100-02             TERMINAL                 CCN000072000000072000FN00000000020221101000072000NNE   20220915121733W4664P0P  00001800000000748800001077432W466  HJYHK   006400630017
BI00B32W4    4500200526     202211107283-5548-30             CONNECTOR                CCN000001500000001500FN00000000020221101000001500NNE   20220915121733W4664N0N  00000150000001109000001302032W466  HJYHK   005600390040
BI00B32W4    4500200526     202211107116-4101-02             TERMINAL                 CCN000072000000072000FN00000000020221101000072000NNE   20220915121733W4664P0P  00001200000000582000000876232W466  HJYHK   006400630015
BI00B32W4    4500200526     202211107114-4101-02             TERMINAL                 CCN000045000000045000FN00000000020221101000045000NNE   20220915121733W4664P0P  00001500000000675000001003632W466  HJYHK   006400630017
BI00B32W4    4500200526     202211107116-4104-02             TERMINAL                 CCN000048000000048000FN00000000020221101000048000NNE   20220915121733W4664P0P  00001200000000580800000972432W466  HJYHK   006400630015
BI00B32W4    4500200526     202211107114-4110-02             TERMINAL                 CCN000015000000015000FN00000000020221101000015000NNE   20220915121733W4664P0P  00001500000000901500001230132W466  HJYHK   006400630017
BI00B32W4    4500200526     202211107116-4110-02             TERMINAL                 CCN000018000000018000FN00000000020221101000018000NNE   20220915121733W4664P0P  00000900000000594000000882232W466  HJYHK   006400630015
BI00B32W4    4500200526     202211107114-4112-02             TERMINAL                 CCN000081000000081000FN00000000020221101000081000NNE   20220915121733W4664P0P  00000900000000598500000927132W466  HJYHK   006400630017
BI00A32W4    4500200521     202211177116-4111-02             TERMINAL                 CCN000007500000007500FN00000000020221101000007500NNE   20220915121733W4144P0P  00000750000000529500000817732W414  HJYHK   006400630015
BI00B32W4    #4500200518    202211247147-3642-30             CLIP                     CCN000114000000114000FN00000000020221101000114000NNE   20220915121733W4172F0F  00000300000000542000000721332W417  HJYHK   005600390040
BI00B32W4    4500200476     202212217158-3166-60             WIRE SEAL                CCN000160000000160000FN00000000020221201000160000NNED0020220915121733W4561C0C  00004000000000104000000152432W456  HJYHK   002700430014
BI00B32W4    4500200476     202212217158-3167-80             WIRE SEAL                CCN000360000000360000FN00000000020221201000360000NNED0020220915121733W4561C0C  00002000000000048000000109032W456  HJYHK   002700430014
BI00B32W4    4500200517     202211107283-5843                CONNECTOR                CCN000003000000003000FN00000000020221101000003000NNE   20220915121733W4171N0N  00000150000000889000001132032W417  HJYHK   005600390040
BI00B32W4    #4500200517    202211107183-8927                HOUSING                  CCN000004000000004000FN00000000020221101000004000NNE   20220915121733W4172F0F  00000400000000714000000912732W417  HJYHK   005500360039
BI00B32W4    #4500200517    202211107282-3020                CONNECTOR                CCN000005000000005000FN00000000020221101000005000NNE   20220915121733W4172N0N  00000100000000984000001145432W417  HJYHK   005500360039
BI00A32W4    4500200512     202211147158-3167-80             WIRE SEAL                CCN000020000000020000FN00000000020221101000020000NNE   20220915121733W4O21C0C  00002000000000048000000109032W4O2  HJYHK-J 002700430014
BI00A32W4    4500200512     202211147116-4100-02             TERMINAL                 CCN000030000000030000FN00000000020221101000030000NNE   20220915121733W4O24P0P  00001500000000696000000990232W4O2  HJYHK-J 006400630015
BI00A32W4    4500200512     202211147116-4112-02             TERMINAL                 CCN000018000000018000FN00000000020221101000018000NNE   20220915121733W4O24P0P  00000600000000450000000738232W4O2  HJYHK-J 006400630015
BI00A32W4    4500200512     202211147116-4025                TERMINAL                 CCN000016000000016000FN00000000020221101000016000NNE   20220915121733W4O24P0P  00001600000000644800000975132W4O2  HJYHK-J 006400630017
BI00A32W4    4500200512     202211147116-4026                TERMINAL                 CCN000016000000016000FN00000000020221101000016000NNE   20220915121733W4O24P0P  00001600000000664000000994332W4O2  HJYHK-J 006400630017
BI00A32W4    4500200512     202211147158-3166-60             WIRE SEAL                CCN000040000000040000FN00000000020221101000040000NNE   20220915121733W4O21C0C  00004000000000104000000152432W4O2  HJYHK-J 002700430014
BI00A32W4    4500200512     202211147158-3169-40             SEALING PLUG             CCN000040000000040000FN00000000020221101000040000NNE   20220915121733W4O21C0C  00004000000000156000000204132W4O2  HJYHK-J 004300260014
BI00A32W4    4500200512     202211147116-4101-02             TERMINAL                 CCN000012000000012000FN00000000020221101000012000NNE   20220915121733W4O24P0P  00001200000000582000000876232W4O2  HJYHK-J 006400630015
BI00A32W4    4500200512     202211147116-4110-02             TERMINAL                 CCN000009000000009000FN00000000020221101000009000NNE   20220915121733W4O24P0P  00000900000000594000000882232W4O2  HJYHK-J 006400630015
BI00A32W4    4500200512     202211147116-2870                TERMINAL                 CCN000012000000012000FN00000000020221101000012000NNE   20220915121733W4O21P0P  00001200000000783600001020232W4O2  HJYHK-J 005100280028
BI00A32W4    4500200512     202211147282-5574-10             CONNECTOR                CCN000000800000000800FN00000000020221101000000800NNE   20220915121733W4O24N0N  00000080000001235000001423032W4O2  HJYHK-J 005600390040
BI00A32W4    @4500200512    202211147183-8049                CONNECTOR HOUSING        CCN000004000000004000FN00000000020221101000004000NNE   20220915121733W4O23F0F  00000400000000583600000740032W4O2  HJYHK-J 005400370024
BI00B32W4    4500200508     202210067116-4121-02             TERMINAL                 CCN000004500000004500FN00000000020220901000004500NNED0720220915121733W4P74P0P  00000450000000618800000912432W4P7  HJYHK   006400630015
BI00B32W4    #4500200495    202211177289-4104-40             HOUSING FEMALE ASS'Y     CCN000021000000021000FN00000000020221101000021000NNE   20220915121733W4652NON  00000050000000606900000821132W465  HJYHK   005400370024
BI00B32W4    4500200494     202211177116-4100-02             TERMINAL                 CCN000135000000135000FN00000000020221101000135000NNE   20220915121733W4654P0P  00001500000000696000000990232W465  HJYHK   006400630015
BI00B32W4    4500200494     202211177116-4111-02             TERMINAL                 CCN000105000000105000FN00000000020221101000105000NNE   20220915121733W4654P0P  00000750000000529500000817732W465  HJYHK   006400630015
BI00B32W4    4500200494     202211177116-4112-02             TERMINAL                 CCN000144000000144000FN00000000020221101000144000NNE   20220915121733W4654P0P  00000600000000450000000738232W465  HJYHK   006400630015
BI00B32W4    4500200494     202211177116-4102-02             TERMINAL                 CCN000204000000204000FN00000000020221101000204000NNE   20220915121733W4654P0P  00001200000000553200000841432W465  HJYHK   006400630015
BI00B32W4    4500200494     202211177114-4100-02             TERMINAL                 CCN000054000000054000FN00000000020221101000054000NNE   20220915121733W4654P0P  00001800000000748800001077432W465  HJYHK   006400630017
BI00B32W4    4500200494     202211177114-4111-02             TERMINAL                 CCN000048000000048000FN00000000020221101000048000NNE   20220915121733W4654P0P  00001200000000758400001087032W465  HJYHK   006400630017
BI00B32W4    4500200494     202211177158-3169-40             SEALING PLUG             CCN000040000000040000FN00000000020221101000040000NNE   20220915121733W4651C0C  00004000000000156000000204132W465  HJYHK   004300260014
BI00B32W4    4500200494     202211177114-4101-02             TERMINAL                 CCN000030000000030000FN00000000020221101000030000NNE   20220915121733W4654P0P  00001500000000675000001003632W465  HJYHK   006400630017
BI00B32W4    4500200494     202211177114-4110-02             TERMINAL                 CCN000030000000030000FN00000000020221101000030000NNE   20220915121733W4654P0P  00001500000000901500001230132W465  HJYHK   006400630017
BI00B32W4    4500200494     202211177116-4110-02             TERMINAL                 CCN000036000000036000FN00000000020221101000036000NNE   20220915121733W4654P0P  00000900000000594000000882232W465  HJYHK   006400630015
BI00B32W4    4500200494     202211177116-4103-02             TERMINAL                 CCN000096000000096000FN00000000020221101000096000NNE   20220915121733W4654P0P  00001200000000571200000859432W465  HJYHK   006400630015
BI00B32W4    4500200494     202211177283-1030                CONNECTOR                CCN000006000000006000FN00000000020221101000006000NNE   20220915121733W4654N0N  00000600000000988000001172032W465  HJYHK   005500360039
BI00B32W4    4500200490     202211087283-8630                CONNECTOR ASS'Y          CCN000006000000006000FN00000000020221101000006000NNE   20220915121733W41 4N0N  00000600000000540000000701332W41   HJYHK   005400370024
BI00B32W4    4500200488     202210107114-6041                TERMINAL                 CCN000018000000018000FN00000000020221001000018000NNE   20220915121733W4324P0P  00000360000000580700000824232W432  HJYHK   006400630015
BI00B32W4    4500200488     202210107116-6041                TERMINAL                 CCN000036000000036000FN00000000020221001000036000NNE   20220915121733W4324P0P  00000450000000716000001009632W432  HJYHK   006400630015
BI00B32W4    4500200488     202210107116-6042                TERMINAL                 CCN000006000000006000FN00000000020221001000006000NNE   20220915121733W4324P0P  00000300000000523800000856132W432  HJYHK   006400630015
BI00B32W4    @4500200488    202210107283-3030                HOUSING FEMALE ASS'Y     CCN000008000000008000FN00000000020221001000008000NNE   20220915121733W4323N0N  00000160000001056300001275032W432  HJYHK   005500360039
BI00B32W4    4500200484     202210277288-9556-30             SEALED ASSY MALE         CCN000025200000025200FN00000000020221001000025200NNE   20220915121733W4O74N0N  00000072000000537900000786332W4O7  H YHK-J 005500360039
BI00B32W4    4500200479     202211307158-3166-60             WIRE SEAL                CCN000160000000160000FN00000000020221101000160000NNED0020220915121733W4561C0C  00004000000000104000000152432W456  HJYHK   002700430014
BI00B32W4    4500200479     202211307158-3169-40             SEALING PLUG             CCN000160000000160000FN00000000020221101000160000NNED0020220915121733W4561C0C  00004000000000156000000204132W456  HJYHK   004300260014
BI00B32W4    4500200479     202211307289-9553-50             SEALED ASSY FEMALE       CCN000141120000141120FN00000000020221101000141120NNED0020220915121733W4564N0N  00000294000001108100001520632W456  HJYHK   005500360039
BI00B32W4    #4500200479    202211307174-1760-50             CAP                      CCN000099000000099000FN00000000020221101000099000NNED0020220915121733W4562F0F  00000300000000813600000922632W456  HJYHK   005400370024
BI00B32W4    4500200478     202212217116-1685-02             TERMINAL                 CCN000408000000408000FN00000000020221201000408000NNED0020220915121733W4564P0P  00002400000000897600001065232W456  HJYHK   005100280028
BI00B32W4    4500200478     202212217116-2893-02             TERMINAL                 CCN000360000000360000FN00000000020221201000360000NNED0020220915121733W4564P0P  00001200000000895200001058632W456  HJYHK   005100280028
BI00B32W4    4500200478     202212217126-8853-02             TERMINAL                 CCN000660000000660000FN00000000020221201000660000NNED0020220915121733W4564P0P  00000750000000562500000847732W456  HJYHK   006400630015
BI00B32W4    4500200478     202212217126-8854-02             TERMINAL                 CCN000180000000180000FN00000000020221201000180000NNED0020220915121733W4564P0P  00000750000000604500000889732W456  HJYHK   006400630015
BI00B32W4    4500200478     202212217126-8855-02             TERMINAL                 CCN000420000000420000FN00000000020221201000420000NNED0020220915121733W4564P0P  00000600000000510600000795832W456  HJYHK   006400630015
BI00B32W4    4500200478     202212217158-3166-60             WIRE SEAL                CCN000160000000160000FN00000000020221201000160000NNED0020220915121733W4561C0C  00004000000000104000000152432W456  HJYHK   002700430014
BI00B32W4    4500200478     202212217158-3167-80             WIRE SEAL                CCN000680000000680000FN00000000020221201000680000NNED0020220915121733W4561C0C  00002000000000048000000109032W456  HJYHK   002700430014
BI00B32W4    4500200478     202212217158-3169-40             SEALING PLUG             CCN000160000000160000FN00000000020221201000160000NNED0020220915121733W4561C0C  00004000000000156000000204132W456  HJYHK   004300260014
BI00B32W4    4500200478     202212217289-9553-50             SEALED ASSY FEMALE       CCN000079380000079380FN00000000020221201000079380NNED0020220915121733W4564N0N  00000294000001108100001520632W456  HJYHK   005500360039
BI00B32W4    #4500200478    202212217174-1760-50             CAP                      CCN000090000000090000FN00000000020221201000090000NNED0020220915121733W4562F0F  00000300000000813600000922632W456  HJYHK   005400370024
BI00B32W4    4500200477     202210057283-7029-30             CONNECTOR                CCN000024000000024000FN00000000020220901000024000NNED0720220915121733W4561N0N  00000600000001032000001206032W456  HJYHK   005600390023
BI00B32W4    4500200475     202211307158-3166-60             WIRE SEAL                CCN000160000000160000FN00000000020221101000160000NNED0020220915121733W4561C0C  00004000000000104000000152432W456  HJYHK   002700430014
BI00B32W4    4500200471     202303097283-5574-10             CONNECTOR                CCN000000800000000800FN00000000020230301000000800NNE   20220915121733W4464N0N  00000080000001235000001435232W446  HJYHK   005500360039
BI00B32W4    4500200462     202211177116-4100-02             TERMINAL                 CCN000075000000075000FN00000000020221101000075000NNE   20220915121733W4464P0P  00001500000000696000000990232W446  HJYHK   006400630015
BI00B32W4    4500200462     202211177116-4112-02             TERMINAL                 CCN000042000000042000FN00000000020221101000042000NNE   20220915121733W4464P0P  00000600000000450000000738232W446  HJYHK   006400630015
BI00B32W4    4500200462     202211177116-4102-02             TERMINAL                 CCN000072000000072000FN00000000020221101000072000NNE   20220915121733W4464P0P  00001200000000553200000841432W446  HJYHK   006400630015
BI00B32W4    4500200462     202211177114-4100-02             TERMINAL                 CCN000018000000018000FN00000000020221101000018000NNE   20220915121733W4464P0P  00001800000000748800001077432W446  HJYHK   006400630017
BI00B32W4    4500200462     202211177116-4101-02             TERMINAL                 CCN000048000000048000FN00000000020221101000048000NNE   20220915121733W4464P0P  00001200000000582000000876232W446  HJYHK   006400630015
BI00B32W4    4500200462     202211177116-4104-02             TERMINAL                 CCN000012000000012000FN00000000020221101000012000NNE   20220915121733W4464P0P  00001200000000580800000972432W446  HJYHK   006400630015
BI00B32W4    4500200462     202211177116-4110-02             TERMINAL                 CCN000009000000009000FN00000000020221101000009000NNE   20220915121733W4464P0P  00000900000000594000000882232W446  HJYHK   006400630015
BI00B32W4    4500200462     202211177116-4103-02             TERMINAL                 CCN000012000000012000FN00000000020221101000012000NNE   20220915121733W4464P0P  00001200000000571200000859432W446  HJYHK   006400630015
BI00B32W4    #4500200462    202211177158-3003-90             RUBBER STOPPER           CCN000020000000020000FN00000000020221101000020000NNE   20220915121733W4462C0C  00002000000000250000000306032W446  HJYHK   002700430014
BI00B32W4    4500200454     202211177116-4103-02             TERMINAL                 CCN000012000000012000FN00000000020221101000012000NNE   20220915121733W4A24P0P  00001200000000571200000859432W4A2  HJYHK-J 006400630015
BI00B32W4    4500200454     202211177116-4102-02             TERMINAL                 CCN000036000000036000FN00000000020221101000036000NNE   20220915121733W4A24P0P  00001200000000553200000841432W4A2  HJYHK-J 006400630015
BI00B32W4    4500200454     202211177116-4031                TERMINAL                 CCN000007500000007500FN00000000020221101000007500NNE   20220915121733W4A24P0P  00000750000000619500000904732W4A2  HJYHK-J 006400630015
BI00B32W4    4500200454     202211177116-4110-02             TERMINAL                 CCN000009000000009000FN00000000020221101000009000NNE   20220915121733W4A24P0P  00000900000000594000000882232W4A2  HJYHK-J 006400630015
BI00B32W4    4500200454     202211177158-3168-80             SEALED                   CCN000040000000040000FN00000000020221101000040000NNE   20220915121733W4A21C0C  00002000000000044000000092132W4A2  HJYHK-J 004300260014
BI00B32W4    4500200454     202211177116-4112-02             TERMINAL                 CCN000006000000006000FN00000000020221101000006000NNE   20220915121733W4A24P0P  00000600000000450000000738232W4A2  HJYHK-J 006400630015
BI00B32W4    #4500200454    202211177183-7725-40             HOUSING                  CCN000006000000006000FN00000000020221101000006000NNE   20220915121733W4A22F0F  00000600000000840000001040032W4A2  HJYHK-J 005600390040
BI00B32W4    #4500200452    202211107283-8226-30             CONNECTOR                CCN000006000000006000FN00000000020221101000006000NNE   20220915121733W4A22N0N  00000200000000820000001008032W4A2  HJYHK-J 005400370024
BI00A32W4    #4500200451    202210037297-2286-30             HOUSING MALE ASS'Y       CCN000002000000002000FN00000000020220901000002000NNED0720220915121733W4282N0N  00000200000000691000000776632W428  HJYHK   005400370024
BI00B32W4    #4500200450    202211037158-3121-80             WIRE SEAL                CCN000020000000020000FN00000000020221101000020000NNE   20220915121733W4A22C0C  00002000000000118000000187332W4A2  HJYHK-J 002700430014
BI00B32W4    #4500200450    202211037147-3642-30             CLIP                     CCN000015000000015000FN00000000020221101000015000NNE   20220915121733W4A22F0F  00000300000000542000000721332W4A2  HJYHK-J 005600390040
BI00B32W4    #4500200450    202211037283-4190-30             CONNECTOR                CCN000000720000000720FN00000000020221101000000720NNE   20220915121733W4A22N0N  00000024000000846000001115532W4A2  HJYHK-J 005600390040
BI00B32W9    4500200146     202210047116-4025                TERMINAL                 CCN000016000000000000FY00000000020221001000000000NNEQ0820220915155410W9  4P0P  00001600000000644800000975132W9    HKYHK   006400630017
BI00B32W9    #4500200493    202210047283-8398-40             CONNECTOR                CCN000020020000020020FN00000000020221001000020020NNE   20220915121733W9  2N0N  00000154000001007000001171332W9    HKYHK   005600390023
