AE00TI102209150315/09/202200000000100000000000000000828KGM  00000000986KGM  7124-1026-30             PROTECTOR                7124102630               0         0         0         0    0    0    00000300000000300000000126000003780000
AE00TI102209150315/09/202200000000500000000000000002710KGM  00000003607KGM  7147-3642-30             CLIP                     7147364230               0         0         0         0    0    0    00001500000000300000000074000011100000
AE00TI102209150315/09/202200000000200000000000000001654KGM  00000002204KGM  7154-5712-30             CASSETTE R/B             7154571230               0         0         0         0    0    0    00000160000000080000000288000004608000
AE00TI102209150315/09/202200000001300000000000000017408KGM  00000019358KGM  7171-6291                HOUSING MALE             71716291                 0         0         0         0    0    0    00000249600000019200001625000040560000
AE00TI102209150315/09/202200000001000000000000000007621KGM  00000009803KGM  7171-6292                HOUSING                  71716292                 0         0         0         0    0    0    00000180000000018000001240000022320000
AE00TI102209150315/09/202200000000500000000000000003648KGM  00000004165KGM  7182-2412                HOUSING MALE             71822412                 0         0         0         0    0    0    00000250000000050000000638000015950000
AE00TI102209150315/09/202200000000100000000000000001282KGM  00000001477KGM  7182-4941                DOUBLE SIDED             71824941                 0         0         0         0    0    0    00000100000000100000000816000008160000
AE00TI102209150315/09/202200000000100000000000000001368KGM  00000001585KGM  7183-0521                HOUSING                  71830521                 0         0         0         0    0    0    00000480000000480000000082000003936000
AE00TI102209150315/09/202200000000100000000000000000959KGM  00000001191KGM  7183-0522-30             HOUSING                  7183052230               0         0         0         0    0    0    00000240000000240000000121000002904000
AE00TI102209150315/09/202200000000100000000000000000757KGM  00000001042KGM  7183-1615                HOUSING                  71831615                 0         0         0         0    0    0    00000480000000480000000081000003888000
AE00TI102209150315/09/202200000000300000000000000003178KGM  00000003737KGM  7183-2412                HOUSING                  71832412                 0         0         0         0    0    0    00000480000000160000000155000007440000
AE00TI102209150315/09/202200000000100000000000000000478KGM  00000000760KGM  7183-2413                CONNECTOR HOUSING        71832413                 0         0         0         0    0    0    00000480000000480000000074000003552000
AE00TI102209150315/09/202200000000300000000000000001433KGM  00000002279KGM  7183-2413-30             CONNECTOR HOUSING        7183241330               0         0         0         0    0    0    00001440000000480000000076000010944000
AE00TI102209150315/09/202200000000100000000000000000779KGM  00000001061KGM  7183-2414                CONNECTOR HOUSING        71832414                 0         0         0         0    0    0    00000480000000480000000050000002400000
AE00TI102209150315/09/202200000000300000000000000002154KGM  00000002517KGM  7183-4000                HOUSING FEMALE           71834000                 0         0         0         0    0    0    00000600000000200000000259000015540000
AE00TI102209150315/09/202200000000100000000000000000821KGM  00000001104KGM  7183-6320                HOUSING                  71836320                 0         0         0         0    0    0    00000480000000480000000092000004416000
AE00TI102209150315/09/202200000001100000000000000008900KGM  00000010162KGM  7188-0149                HLC HOUSING MALE         71880149                 0         0         0         0    0    0    00000990000000090000000530000052470000
AE00TI102209150315/09/202200000000200000000000000001274KGM  00000001564KGM  7188-9508-40             HLC HOUSING MALE         7188950840               0         0         0         0    0    0    00000400000000200000000240000009600000
AE00TI102209150315/09/202200000000300000000000000001879KGM  00000002314KGM  7188-9509                HLC HOUSING MALE         71889509                 0         0         0         0    0    0    00000600000000200000000231000013860000
AE00TI102209150315/09/202200000000200000000000000001262KGM  00000001552KGM  7188-9510-30             HLC HOUSING MALE         7188951030               0         0         0         0    0    0    00000400000000200000000238000009520000
AE00TI102209150315/09/202200000000100000000000000000627KGM  00000000772KGM  7188-9511-80             HLC HOUSING MALE         7188951180               0         0         0         0    0    0    00000200000000200000000245000004900000
AE00TI102209150315/09/202200000000100000000000000000628KGM  00000000773KGM  7188-9512-10             HLC HOUSING MALE         7188951210               0         0         0         0    0    0    00000200000000200000000242000004840000
AE00TI102209150315/09/202200000000100000000000000000771KGM  00000000916KGM  7188-9513                HLC HOUSING MALE         71889513                 0         0         0         0    0    0    00000200000000200000000261000005220000
AE00TI102209150315/09/202200000000100000000000000000779KGM  00000000924KGM  7188-9514-90             HLC HOUSING MALE         7188951490               0         0         0         0    0    0    00000200000000200000000275000005500000
AE00TI102209150315/09/202200000000600000000000000004526KGM  00000005168KGM  7189-9521                HOUSING                  71899521                 0         0         0         0    0    0    00001200000000200000000276000033120000
AE00TI102209150315/09/202200000000500000000000000003766KGM  00000004301KGM  7189-9522-90             HOUSING                  7189952290               0         0         0         0    0    0    00001000000000200000000303000030300000
AE00TI102209150315/09/202200000000200000000000000001933KGM  00000002250KGM  7222-7564-30             CONNECTOR                7222756430               0         0         0         0    0    0    00000100000000050000001175000011750000
AE00TI102209150315/09/202200000000300000000000000002901KGM  00000003291KGM  7222-7564-40             CONNECTOR                7222756440               0         0         0         0    0    0    00000150000000050000001166000017490000
AE00TI102209150315/09/202200000000400000000000000001832KGM  00000002322KGM  7282-1024                HOUSING MALE             72821024                 0         0         0         0    0    0    00000400000000100000000534000021360000
AE00TI102209150315/09/202200000000200000000000000001588KGM  00000002146KGM  7282-2090-30             CONNECTOR MALE ASS'Y     7282209030               0         0         0         0    0    0    00000480000000240000000225000010800000
AE00TI102209150315/09/202200000000100000000000000000801KGM  00000001071KGM  7282-4190-30             CONNECTOR                7282419030               0         0         0         0    0    0    00000024000000024000001100000002640000
AE00TI102209150315/09/202200000000100000000000000001124KGM  00000001213KGM  7282-7028-30             CONNECTOR                7282702830               0         0         0         0    0    0    00000200000000200000000248000004960000
AE00TI102209150315/09/202200000000400000000000000003510KGM  00000004312KGM  7283-1156                CONNECTOR                72831156                 0         0         0         0    0    0    00000320000000080000000810000025920000
AE00TI102209150315/09/202200000000200000000000000001352KGM  00000001635KGM  7283-1289                CONNECTOR HOUSING        72831289                 0         0         0         0    0    0    00000120000000060000000795000009540000
AE00TI102209150315/09/202200000000500000000000000003381KGM  00000004106KGM  7283-1289-10             CONNECTOR HOUSING        7283128910               0         0         0         0    0    0    00000300000000060000000813000024390000
AE00TI102209150315/09/202200000000800000000000000005405KGM  00000006565KGM  7283-1289-30             CONNECTOR HOUSING        7283128930               0         0         0         0    0    0    00000480000000060000000813000039024000
AE00TI102209150315/09/202200000004200000000000000028552KGM  00000034642KGM  7283-1289-40             CONNECTOR HOUSING        7283128940               0         0         0         0    0    0    00002520000000060000000813000204876000
AE00TI102209150315/09/202200000000200000000000000002320KGM  00000002681KGM  7283-1485                CONNECTOR                72831485                 0         0         0         0    0    0    00000400000000200000000366000014640000
AE00TI102209150315/09/202200000000500000000000000005700KGM  00000006592KGM  7283-1968-30             CONNECTOR                7283196830               0         0         0         0    0    0    00000450000000090000000687000030915000
AE00TI102209150315/09/202200000000200000000000000001692KGM  00000002231KGM  7283-4190-30             CONNECTOR                7283419030               0         0         0         0    0    0    00000048000000024000001202000005769600
AE00TI102209150315/09/202200000000100000000000000000846KGM  00000000986KGM  7283-4192-40             CONNECTOR                7283419240               0         0         0         0    0    0    00000024000000024000001283000003079200
AE00TI102209150315/09/202200000000100000000000000000678KGM  00000000945KGM  7283-6036                CONNECTOR HOUSING        72836036                 0         0         0         0    0    0    00000160000000160000000260000004160000
AE00TI102209150315/09/202200000002400000000000000012010KGM  00000015490KGM  7283-7062-30             CONNECTOR HOUSING        7283706230               0         0         0         0    0    0    00001440000000060000000666000095904000
AE00TI102209150315/09/202200000001000000000000000005004KGM  00000006454KGM  7283-7062-40             CONNECTOR HOUSING        7283706240               0         0         0         0    0    0    00000600000000060000000666000039960000
AE00TI102209150315/09/202200000000800000000000000004003KGM  00000005163KGM  7283-7062-90             CONNECTOR HOUSING        7283706290               0         0         0         0    0    0    00000480000000060000000669000032112000
AE00TI102209150315/09/202200000000400000000000000002330KGM  00000002998KGM  7283-7064-10             CONNECTOR HOUSING        7283706410               0         0         0         0    0    0    00000240000000060000000719000017256000
AE00TI102209150315/09/202200000000200000000000000001170KGM  00000001504KGM  7283-7064-40             CONNECTOR HOUSING        7283706440               0         0         0         0    0    0    00000120000000060000000719000008628000
AE00TI102209150315/09/202200000000600000000000000004468KGM  00000005338KGM  7283-8720-30             HOUSING FEMALE           7283872030               0         0         0         0    0    0    00001440000000240000000616000088704000
AE00TI102209150315/09/202200000000400000000000000001400KGM  00000001850KGM  7283-8721-30             HOUSING FEMALE ASS'Y     7283872130               0         0         0         0    0    0    00000400000000100000000415000016600000
AE00TI102209150315/09/202200000000200000000000000001588KGM  00000001813KGM  7283-8730-30             HOUSING FEMALE ASS'Y     7283873030               0         0         0         0    0    0    00000400000000200000000426000017040000
AE00TI102209150315/09/202200000000300000000000000002901KGM  00000003503KGM  7286-1917                CONNECTOR MALE ASS'Y     72861917                 0         0         0         0    0    0    00000360000000120000000517000018612000
AE00TI102209150315/09/202200000000400000000000000003807KGM  00000004559KGM  7286-7860                HOUSING MALE ASS'Y       72867860                 0         0         0         0    0    0    00000320000000080000000383000012256000
AE00TI102209150315/09/202200000000300000000000000002561KGM  00000003136KGM  7287-9155                HOUSING FEMALE ASS'Y     72879155                 0         0         0         0    0    0    00000288000000096000000357000010281600
AE00TI102209150315/09/202200000004500000000000000038462KGM  00000047912KGM  7289-5979-30             HOUSING FEMALE ASS'Y     7289597930               0         0         0         0    0    0    00001134000000025200001346000152636400
AE00TI102209150315/09/202200000000300000000000000003594KGM  00000004848KGM  7341-5305-40             SOCKET PLUG              7341530540               0         0         0         0    0    0    00000600000000200000000437000026220000
AE00TI102209150315/09/202200000000100000000000000000942KGM  00000001087KGM  7382-7523                JOINT CONNECTOR          73827523                 0         0         0         0    0    0    00000120000000120000000571000006852000
AE00TI102209150315/09/202200000000100000000000000000943KGM  00000001057KGM  7382-7524-40             JOINT CONNECTOR          7382752440               0         0         0         0    0    0    00000120000000120000000585000007020000
AE00TI102209150315/09/202200000000200000000000000002324KGM  00000002569KGM  7386-2747                CONNECTOR ASS'Y          73862747                 0         0         0         0    0    0    00000400000000200000000413000016520000
