BI00B32AF    JTB209J        202209027283-5830                CONNECTOR                CCN000006000000006000FN00000000020220901000006000NNE   20220818121316    1N47  00000600000000954000001104032AF    HBYHVTB 005500360039
BI00B32AF    #JTB209J       202209027283-1150                HOUSING FEMALE ASS'Y     CCN000009000000009000FN00000000020220901000009000NNE   20220818121316    2N0N  00000100000000607000000719532AF    HBYHVTB 005400370024
BI00B32AF    JTB210H        202209237282-4855                HOUSING MALE ASS'Y       CCN000002400000002400FN00000000020221001000002400NNE   20220818121316    4N0N  00000120000001063200001283232AF    HBYHVTB 005500360039
BI00B32AF    JTB210H        202209237283-4576                HOUSING FEMALE ASS'Y     CCN000004800000004800FN00000000020221001000004800NNE   20220818121316    4N0N  00000480000000651300000871332AF    HBYHVTB 005500360039
BI00B32AF    JTB210H        202209237283-4854                CONNECTOR HOUSING        CCN000002400000002400FN00000000020221001000002400NNE   20220818121316    4N0N  00000240000000694100000914132AF    HBYHVTB 005500360039
BI00B32AF    JTB210H        202209237283-4855                CONNECTOR HOUSING        CCN000004800000004800FN00000000020221001000004800NNE   20220818121316    4N0N  00000240000001188400001400032AF    HBYHVTB 005500360039
BI00B32CC    CTA32117       202208227158-3167-80             WIRE SEAL                CCN000020000000020000FN00000000020221201000020000NNE00020220818161424    1C0C  00002000000000048000000109032CC    BIYABCBU002700430014
BI00B32CC    CTA32122       202209087283-4855                CONNECTOR HOUSING        CCN000016800000016800FN00000000020221201000016800NNE   20220818121316    4N0N  00000240000001188400001400032CC    BIYABCBU005500360039
BI00B32CC    CTA32122       202209087289-3342                HOUSING FEMALE ASS'Y     CCN000012000000012000FN00000000020221201000012000NNE   20220818121316    1N0N  00000240000000686400000901432CC    BIYABCBU005500360039
BI00B32CC    CTA32122       202209087289-3342-30             HOUSING FEMALE ASS'Y     CCN000002400000002400FN00000000020221201000002400NNE   20220818121316    1N0N  00000240000000686400000901432CC    BIYABCBU005500360039
BI00B32CC    #CTA32122      202209087283-8226-30             CONNECTOR                CCN000034000000034000FN00000000020221201000034000NNE   20220818121316    2N0N  00000200000000820000001008032CC    BIYABCBU005400370024
BI00B32CC    #CTA32122      202209087282-6457-40             CONNECTOR                CCN000000800000000800FN00000000020221201000000800NNE   20220818121316    2N0N  00000080000001137000001421332CC    BIYABCBU005600390040
BI00B32CG    S220636-S      202209217283-9457-3W             CONNECTOR                CCN000006120000006120FN00000000020220901000006120NNED0020220818172719    4N0N  00000012000000515000001067032CG    ASASIACO005600390023
BI00B32CG    S220636-S      202209217283-9458-30             CONNECTOR                CCN000007000000007000FN00000000020220901000007000NNED0020220818172719    4N0N  00000020000000792000000984332CG    ASASIACO005600390023
BI00A32CG    S220636-S      202208247116-4121-02             TERMINAL                 CCN000027000000027000FN00000000020220901000027000NNEM0020220818172302    4P0P  00000450000000618800000912432CG    ASASIACO006400630015
BI00A32CG    S220636-S      202208247116-4111-02             TERMINAL                 CCN000015000000015000FN00000000020220901000015000NNEM0020220818172302    4P0P  00000750000000529500000817732CG    ASASIACO006400630015
BI00B32CH    SJ22102 MW     202208257116-2640                TERMINAL                 CCN000018000000018000FN00000000020221001000018000NNMD0020220818140341    4P0P  00001800000001018800001196632CH    SJSAMIJF005100280028
BI00B32DE    TCT210B        202209087283-4576-30             HOUSING FEMALE ASS'Y     CCN000004800000004800FN00000000020221001000004800NNE   20220818121316    4N0N  00000480000000651300000871332DE    TVYEV-TV005500360039
BI00B32DE    TCT210B        202209087283-5092                CONNECTOR HOUSING        CCN000001600000001600FN00000000020221001000001600NNE   20220818121316    4N0N  00000160000000856000001126732DE    TVYEV-TV005500360039
BI00B32DE    TCT210B        202209087283-5846                HOUSING                  CCN000001500000001500FN00000000020221001000001500NNE   20220818121316    1N0N  00000150000000885000001102032DE    TVYEV-TV005600390040
BI00A32DJ    #GHT2210H      202208227189-3031-30             HOUSING FEMALE           CCN000002400000002400FN00000000020221001000002400NNE   20220818132917    2F0F  00000240000000928800001365832DJ    RBYIPLRB005500360039
BI00A32DJ    #GHT2210H      202208227116-4021                TERMINAL                 CCN000027000000027000FN00000000020221001000027000NNE   20220818132917    2F0P  00001350000000534600000868832DJ    RBYIPLRB006400630015
BI00B32D4    4513523776     202209077158-3166-60             WIRE SEAL                CCN000040000000040000FN00000000020220901000040000NNM   20220818121316    1C0C  00004000000000104000000152432D4    YRYRL   002700430014
BI00B32D4    #4513523776    202209077047-5344                RETAINER                 CCN000020000000020000FN00000000020220901000020000NNM   20220818121316    2F0F  00001000000000870000001016032D4    YRYRL   005600390023
BI00B32D9    4513523776     202209077158-3166-60             WIRE SEAL                CCN000040000000000000FY00000000020220901000000000NNMQ0820220818083325    1C0C  00004000000000104000000152432D9    UEHESTO 002700430014
BI00B32D9    #4513523776    202209077047-5344                RETAINER                 CCN000020000000000000FY00000000020220901000000000NNMQ0820220818083342    2F0F  00001000000000870000001016032D9    UEHESTO 005600390023
BI00B32EJ    T220817P01     202209157116-4025                TERMINAL                 CCN000016000000016000FN00000000020220901000016000NNE   20220818121316EJ  4P0P  00001600000000644800000975132EJ    EJYKBO  006400630017
BI00B32EJ    T220817P01     202209157116-4102-02             TERMINAL                 CCN000012000000012000FN00000000020220901000012000NNE   20220818121316EJ  4P0P  00001200000000553200000841432EJ    EJYKBO  006400630015
BI00B32EJ    T220817P01     202209157283-1968-30             CONNECTOR                CCN000000900000000900FN00000000020220901000000900NNE   20220818121316EJ  1N0N  00000090000001140000001318332EJ    EJYKBO  005600390040
BI00B32EJ    T220817P01     202209157116-4124-02             TERMINAL                 CCN000012000000012000FN00000000020220901000012000NNE   20220818121316EJ  4P0P  00000300000000459900000753532EJ    EJYKBO  006400630015
BI00B32EJ    T220817P01     202209157114-4112-02             TERMINAL                 CCN000009000000009000FN00000000020220901000009000NNE   20220818121316EJ  4P0P  00000900000000598500000927132EJ    EJYKBO  006400630017
BI00B32EJ    T220817P01     202209157116-4122-02             TERMINAL                 CCN000013500000013500FN00000000020220901000013500NNE   20220818121316EJ  4P0P  00000450000000656600000950232EJ    EJYKBO  006400630015
BI00B32EJ    T220817P01     202209157116-4121-02             TERMINAL                 CCN000013500000013500FN00000000020220901000013500NNE   20220818121316EJ  4P0P  00000450000000618800000912432EJ    EJYKBO  006400630015
BI00B32EJ    T220817P01     202209157116-4112-02             TERMINAL                 CCN000018000000018000FN00000000020220901000018000NNE   20220818121316EJ  4P0P  00000600000000450000000738232EJ    EJYKBO  006400630015
BI00B32EJ    T220817P01     202209157116-4110-02             TERMINAL                 CCN000009000000009000FN00000000020220901000009000NNE   20220818121316EJ  4P0P  00000900000000594000000882232EJ    EJYKBO  006400630015
BI00B32EJ    T220817P01     202209157116-4111-02             TERMINAL                 CCN000030000000030000FN00000000020220901000030000NNE   20220818121316EJ  4P0P  00000750000000529500000817732EJ    EJYKBO  006400630015
BI00B32EJ    T220817P01     202209157126-8854-02             TERMINAL                 CCN000007500000007500FN00000000020220901000007500NNE   20220818121316EJ  4P0P  00000750000000604500000889732EJ    EJYKBO  006400630015
BI00B32EJ    T220817P01     202209157116-4022                TERMINAL                 CCN000013500000013500FN00000000020220901000013500NNE   20220818121316EJ  4P0P  00001350000000618300000903532EJ    EJYKBO  006400630015
BI00B32EJ    T220817P01     202209157158-3166-60             WIRE SEAL                CCN000600000000600000FN00000000020220901000600000NNE   20220818121316EJ  1C0C  00004000000000104000000152432EJ    EJYKBO  002700430014
BI00B32EJ    T220817P01     202209157158-3167-80             WIRE SEAL                CCN000360000000360000FN00000000020220901000360000NNE   20220818121316EJ  1C0C  00002000000000048000000109032EJ    EJYKBO  002700430014
BI00B32EJ    T220817P01     202209157158-3168-80             SEALED                   CCN000020000000020000FN00000000020220901000020000NNE   20220818121316EJ  1C0C  00002000000000044000000092132EJ    EJYKBO  004300260014
BI00B32EJ    T220817P01     202209157158-3169-40             SEALING PLUG             CCN000320000000320000FN00000000020220901000320000NNE   20220818121316EJ  1C0C  00004000000000156000000204132EJ    EJYKBO  004300260014
BI00B32EJ    T220817P01     202209157158-3167-61             WIRE SEAL                CCN000040000000040000FN00000000020220901000040000NNE   20220818121316EJ  1C0C  00002000000000048000000096432EJ    EJYKBO  004300270014
BI00B32EJ    #T220817P01    202209157158-3120-90             CONNECTOR WIRE SEAL      CCN000060000000060000FN00000000020220901000060000NNE   20220818121316EJ  2C0C  00002000000000136000000194032EJ    EJYKBO  002700430014
BI00B32EJ    #T220817P01    202209157123-6423-30             CONNECTOR                CCN000004000000004000FN00000000020220901000004000NNE   20220818121316EJ  2F0F  00000200000001002000001167632EJ    EJYKBO  005600390023
BI00B32EJ    #T220817P01    202209157282-6458-40             CONNECTOR                CCN000002000000002000FN00000000020220901000002000NNE   20220818121316EJ  2N0N  00000100000001206000001350532EJ    EJYKBO  005500360039
BI00B32EJ    #T220817P01    202209157157-3952-80             RUBBER STOPPER           CCN000010000000010000FN00000000020220901000010000NNE   20220818121316EJ  2C0C  00001000000000117000000175032EJ    EJYKBO  002700430014
BI00B32GE    DHTC2246       202209227017-1180-02             TERMINAL                 CCN000072000000072000FN00000000020221101000072000NNM   20220818121316    4P0P  00007200000001065600001229032GE    GEYKHT  005100280028
BI00B32GE    DHTC2246       202209227114-4624-02             TERMINAL                 CCN000024000000024000FN00000000020221101000024000NNM   20220818121316    4P0P  00002400000000895200001188832GE    GEYKHT  006400630015
BI00B32GE    DHTC2246       202209227114-5748-02             TERMINAL                 CCN000096000000096000FN00000000020221101000096000NNM   20220818121316    4P0P  00001200000000444000000737632GE    GEYKHT  006400630015
BI00B32GE    DHTC2246       202209227114-5753-02             TERMINAL                 CCN000216000000216000FN00000000020221101000216000NNM   20220818121316    4P0P  00002700000000847800001141432GE    GEYKHT  006400630015
BI00B32GE    DHTC2246       202209227116-1685-02             TERMINAL                 CCN000048000000048000FN00000000020221101000048000NNM   20220818121316    4P0P  00002400000000897600001065232GE    GEYKHT  005100280028
BI00B32GE    DHTC2246       202209227116-2891-02             TERMINAL                 CCN000120000000120000FN00000000020221101000120000NNM   20220818121316    4P0P  00001500000000982500001145932GE    GEYKHT  005100280028
BI00B32GE    DHTC2246       202209227116-4100-02             TERMINAL                 CCN000022800000030000FN00000000020221101000030000NNM   20220818121316    4P0P  00001500000000696000000990232GE    GEYKHT  006400630015
BI00B32GE    DHTC2246       202209227116-4101-02             TERMINAL                 CCN000019600000024000FN00000000020221101000024000NNM   20220818121316    4P0P  00001200000000582000000876232GE    GEYKHT  006400630015
BI00B32GE    DHTC2246       202209227116-4110-02             TERMINAL                 CCN000045000000045000FN00000000020221101000045000NNM   20220818121316    4P0P  00000900000000594000000882232GE    GEYKHT  006400630015
BI00B32GE    DHTC2246       202209227116-4111-02             TERMINAL                 CCN000060000000060000FN00000000020221101000060000NNM   20220818121316    4P0P  00000750000000529500000817732GE    GEYKHT  006400630015
BI00B32GE    DHTC2246       202209227116-4112-02             TERMINAL                 CCN000075000000078000FN00000000020221101000078000NNM   20220818121316    4P0P  00000600000000450000000738232GE    GEYKHT  006400630015
BI00B32GE    DHTC2246       202209227116-4486-02             TERMINAL                 CCN000196000000196000FN00000000020221101000196000NNM   20220818121316    4P0P  00002800000000666400000995132GE    GEYKHT  006400630017
BI00B32GE    DHTC2246       202209227116-5045-02             TERMINAL                 CCN000112000000112000FN00000000020221101000112000NNM   20220818121316    4P0P  00001600000000678400001007132GE    GEYKHT  006400630017
BI00B32GE    DHTC2246       202209227126-8853-02             TERMINAL                 CCN000135000000135000FN00000000020221101000135000NNM   20220818121316    4P0P  00000750000000562500000847732GE    GEYKHT  006400630015
BI00B32GE    DHTC2246       202209227126-8854-02             TERMINAL                 CCN000135000000135000FN00000000020221101000135000NNM   20220818121316    4P0P  00000750000000604500000889732GE    GEYKHT  006400630015
BI00B32GE    DHTC2246       202209227126-8855-02             TERMINAL                 CCN000144000000144000FN00000000020221101000144000NNM   20220818121316    4P0P  00000600000000510600000795832GE    GEYKHT  006400630015
BI00B32GE    DHTC2246       202209227158-3070-80             RUBBER STOPPER           CCN000120000000120000FN00000000020221101000120000NNM   20220818121316    1C0C  00004000000000276000000333332GE    GEYKHT  002700430014
BI00B32GE    DHTC2246       202209227158-3166-60             WIRE SEAL                CCN000080000000080000FN00000000020221101000080000NNM   20220818121316    1C0C  00004000000000104000000152432GE    GEYKHT  002700430014
BI00B32GE    DHTC2246       202209227158-3167-80             WIRE SEAL                CCN000080000000080000FN00000000020221101000080000NNM   20220818121316    1C0C  00002000000000048000000109032GE    GEYKHT  002700430014
BI00B32GE    DHTC2246       202209227173-3291-40             LIF LEVER                CCN000004800000004800FN00000000020221101000004800NNM   20220818121316    1F0F  00000240000000867800001067832GE    GEYKHT  005500360039
BI00B32GE    DHTC2246       202209227196-0396-02             TERMINAL                 CCN000015000000015000FN00000000020221101000015000NNM   20220818121316    4P0P  00001500000000949500001112932GE    GEYKHT  002800510028
BI00B32GE    DHTC2246       202209227196-0510-02             TERMINAL                 CCN000024000000024000FN00000000020221101000024000NNM   20220818121316    4P0P  00002400000000871200001034632GE    GEYKHT  002800510028
BI00B32GE    DHTC2246       202209227196-1325-02             TERMINAL FEMALE          CCN000180000000180000FN00000000020221101000180000NNM   20220818121316    4P0P  00006000000000450000000778732GE    GEYKHT  006400630017
BI00B32GE    DHTC2246       202209227196-1326-02             TERMINAL FEMALE          CCN000360000000360000FN00000000020221101000360000NNM   20220818121316    4P0P  00006000000000456000000784732GE    GEYKHT  006400630017
BI00B32GE    DHTC2246       202209227196-1327-02             TERMINAL FEMALE          CCN000052000000052000FN00000000020221101000052000NNM   20220818121316    4P0P  00005200000000336000000739532GE    GEYKHT  006400630017
BI00B32GE    DHTC2246       202209227282-4576                HOUSING MALE ASS'Y       CCN000002400000002400FN00000000020221101000002400NNM   20220818121316    4N0N  00000240000000808800001028832GE    GEYKHT  005500360039
BI00B32GE    DHTC2246       202209227283-1156                CONNECTOR                CCN000006400000006400FN00000000020221101000006400NNM   20220818121316    4N0N  00000080000000877600001078032GE    GEYKHT  005600390040
BI00B32GE    DHTC2246       202209227283-5830                CONNECTOR                CCN000006000000006000FN00000000020221101000006000NNM   20220818121316    1N47  00000600000000954000001104032GE    GEYKHT  005500360039
BI00B32GE    DHTC2246       202209227288-6547                CONNECTOR MALE ASS'Y     CCN000009750000009750FN00000000020221101000009750NNM   20220818121316    4N0N  00000075000001205300001340332GE    GEYKHT  005400370024
BI00B32GE    DHTC2246       202209227289-3342                HOUSING FEMALE ASS'Y     CCN000040800000040800FN00000000020221101000040800NNM   20220818121316    1N0N  00000240000000686400000901432GE    GEYKHT  005500360039
BI00B32GE    DHTC2246       202209227289-3342-30             HOUSING FEMALE ASS'Y     CCN000088800000088800FN00000000020221101000088800NNM   20220818121316    1N0N  00000240000000686400000901432GE    GEYKHT  005500360039
BI00B32GE    DHTC2246       202209227289-3342-40             HOUSING FEMALE ASS'Y     CCN000007200000007200FN00000000020221101000007200NNM   20220818121316    1N0N  00000240000000686400000901432GE    GEYKHT  005500360039
BI00B32GE    DHTC2246       202209227289-3342-90             HOUSING FEMALE ASS'Y     CCN000016800000016800FN00000000020221101000016800NNM   20220818121316    1N0N  00000240000000686400000901432GE    GEYKHT  005500360039
BI00B32GE    DHTC2246       202209227289-6518-30             HOUSING FEMALE ASS'Y     CCN000002400000002400FN00000000020221101000002400NNM   20220818121316    1N0N  00000120000000829200001049232GE    GEYKHT  005500360039
BI00B32GE    DHTC2246       202209227289-6547                HOUSING FEMALE ASS'Y     CCN000007200000007200FN00000000020221101000007200NNM   20220818121316    1N0N  00000240000001152000001362032GE    GEYKHT  005500360039
BI00B32GE    DHTC2246       202209227296-0784-02             TERMINAL ALUMINIUM       CCN000072000000072000FN00000000020221101000072000NNM   20220818121316    4P0P  00002400000000480000000765232GE    GEYKHT  006400630015
BI00B32GE    DHTC2246       202209227296-1024-02             TERMINAL ALUMINIUM       CCN000018000000018000FN00000000020221101000018000NNM   20220818121316    4P0P  00001800000000698400000983632GE    GEYKHT  006400630015
BI00B32GE    DHTC2246       202209227297-3482                JOINT CONNECTOR          CCN000032400000032800FN00000000020221101000032800NNM   20220818121316    4N0N  00000080000000621000000730532GE    GEYKHT  005400370024
BI00B32GE    DHTC2246       202209227298-3484                HOUSING FEMALE ASS'Y     CCN000008400000010800FN00000000020221101000010800NNM   20220818121316    4N0N  00000270000000742500001028732GE    GEYKHT  005400370024
BI00B32GE    DHTC2246       202209227298-3484-30             HOUSING FEMALE ASS'Y     CCN000004200000005400FN00000000020221101000005400NNM   20220818121316    4N0N  00000270000000742500001028732GE    GEYKHT  005400370024
BI00B32GE    DHTC2246       202209227327-6731-3W             BATTERY FUSE             CCN000001728000001728FN00000000020221101000001728NNM   20220818121316    4N0N  00000006400000697600000843032GE    GEYKHT  005400370024
BI00B32GE    DHTC2246       202209227327-6801-3W             BATTERY FUSE             CCN000002016000002016FN00000000020221101000002016NNM   20220818121316    4N0N  00000009600000928400001143432GE    GEYKHT  005500360039
BI00B32GE    DHTC2246       202209227327-6806                MULTI FUSE               CCN000001680000001680FN00000000020221101000001680NNM   20220818121316    4N0N  00000056000000851500001063932GE    GEYKHT  005400370024
BI00B32GE    DHTC2246       202209227327-6809                MULTI FUSE               CCN000001680000001680FN00000000020221101000001680NNM   20220818121316    4N0N  00000056000000849300001061732GE    GEYKHT  005400370024
BI00B32GE    DHTC2246       202209227327-6930                MULTI FUSE               CCN000002240000002240FN00000000020221101000002240NNM   20220818121316    4N0N  00000056000000848900001031932GE    GEYKHT  005400370024
BI00B32GE    DHTC2246       202209227327-6990-30             MULTI FUSE               CCN000000560000000560FN00000000020221101000000560NNM   20220818121316    4NON  00000056000000724000000907032GE    GEYKHT  005400370024
BI00B32GE    DHTC2246       202209227388-2978-30             HOUSING MALE ASS'Y       CCN000021600000021600FN00000000020221101000021600NNM   20220818121316    1N0N  00000048000000742000001122032GE    GEYKHT  005500360039
BI00B32GE    #DHTC2246      202209227047-5344                RETAINER                 CCN000010000000010000FN00000000020221101000010000NNM   20220818121316    2F0F  00001000000000870000001016032GE    GEYKHT  005600390023
BI00B32GE    #DHTC2246      202209227158-3003-90             RUBBER STOPPER           CCN000260000000260000FN00000000020221101000260000NNM   20220818121316    2C0C  00002000000000250000000306032GE    GEYKHT  002700430014
BI00B32GE    #DHTC2246      202209227158-3004-40             RUBBER STOPPER           CCN000020000000020000FN00000000020221101000020000NNM   20220818121316    2C0C  00002000000000234000000306332GE    GEYKHT  002700430014
BI00B32GE    #DHTC2246      202209227158-3005-80             RUBBER STOPPER           CCN000080000000080000FN00000000020221101000080000NNM   20220818121316    2H0H  00002000000000210000000268732GE    GEYKHT  002700430014
BI00B32GE    #DHTC2246      202209227158-3008-80             RUBBER STOPPER           CCN000120000000120000FN00000000020221101000120000NNM   20220818121316    2C0C  00002000000000288000000343032GE    GEYKHT  004300270014
BI00B32GE    #DHTC2246      202209227158-3015-10             RUBBER STOPPER           CCN000010000000010000FN00000000020221101000010000NNM   20220818121316    2C0C  00001000000000419500000474032GE    GEYKHT  002700430014
BI00B32GE    #DHTC2246      202209227158-3017                RUBBER STOPPER           CCN000060000000060000FN00000000020221101000060000NNM   20220818121316    2C0C  00001000000000375500000435032GE    GEYKHT  002700430014
BI00B32GE    #DHTC2246      202209227172-5629-80             RUBBER STOPPER           CCN000140000000140000FN00000000020221101000140000NNM   20220818121316    2H0H  00002000000000060000000111132GE    GEYKHT  004300270014
BI00B32GE    #DHTC2246      202209227172-5630-40             RUBBER STOPPER           CCN000240000000240000FN00000000020221101000240000NNM   20220818121316    2H0H  00002000000000044000000095132GE    GEYKHT  004300270014
BI00B32GE    #DHTC2246      202209227172-5631-60             RUBBER STOPPER           CCN000100000000100000FN00000000020221101000100000NNM   20220818121316    2H0H  00002000000000042000000093132GE    GEYKHT  004300270014
BI00B32GE    #DHTC2246      202209227172-5632-10             DUMMY PLUG               CCN000140000000140000FN00000000020221101000140000NNM   20220818121316    2H0H  00002000000000080400000131832GE    GEYKHT  004300270014
BI00B32GE    #DHTC2246      202209227183-2418-30             CONNECTOR HOUSING        CCN000004800000004800FN00000000020221101000004800NNM   20220818121316    2F0F  00000480000000917000001235332GE    GEYKHT  005500360039
BI00B32GE    #DHTC2246      202209227183-2511                HOUSING                  CCN000001600000001600FN00000000020221101000001600NNM   20220818121316    2F0F  00000160000000972200001242132GE    GEYKHT  005500360039
BI00B32GE    #DHTC2246      202209227189-2978-30             HOUSING FEMALE           CCN000022500000022500FN00000000020221101000022500NNM   20220818121316    2F0F  00000150000000966900001096932GE    GEYKHT  005400370024
BI00B32GE    #DHTC2246      202209227189-3033                HOUSING FEMALE           CCN000011200000011200FN00000000020221101000011200NNM   20220818121316    2F0F  00000160000001211200001431232GE    GEYKHT  005500360039
BI00B32GE    #DHTC2246      202209227189-3036                HOUSING FEMALE           CCN000001600000001600FN00000000020221101000001600NNM   20220818121316    2F0F  00000160000000921600001141632GE    GEYKHT  005500360039
BI00B32GE    #DHTC2246      202209227198-5394                HOUSING FEMALE           CCN000004800000004800FN00000000020221101000004800NNM   20220818121316    2F0F  00000480000000489700000688832GE    GEYKHT  005500360039
BI00B32GE    #DHTC2246      202209227282-1641                CONNECTOR                CCN000008000000008000FN00000000020221101000008000NNM   20220818121316    2N0N  00000200000000813000000986032GE    GEYKHT  005500360039
BI00B32GE    #DHTC2246      202209227282-7424                CONNECTOR                CCN000004000000004000FN00000000020221101000004000NNM   20220818121316    2N0N  00000400000001064000001243032GE    GEYKHT  005500360039
BI00B32GE    #DHTC2246      202209227283-8226-30             CONNECTOR                CCN000004000000004000FN00000000020221101000004000NNM   20220818121316    2N0N  00000200000000820000001008032GE    GEYKHT  005400370024
BI00B32GE    #DHTC2246      202209227289-2912-40             HOUSING FEMALE ASS'Y     CCN000004000000004000FN00000000020221101000004000NNM   20220818121316    2N0N  00000200000000804000000931032GE    GEYKHT  005400370024
BI00B32GE    #DHTC2246      202209227289-3622-30             HOUSING FEMALE ASS'Y     CCN000003888000003888FN00000000020221101000003888NNM   20220818121316    2N0N  00000043200000839400001038432GE    GEYKHT  005400370024
BI00B32GE    #DHTC2246      202209227289-4200-30             HOUSING FEMALE ASS'Y     CCN000006000000006000FN00000000020221101000006000NNM   20220818121316    2N0N  00000200000000926000001021032GE    GEYKHT  005400370024
BI00B32H2    TIJ2105        202209167017-1180-02             TERMINAL                 CCN000144000000072000FN00000000020221001000072000NNMD0020220818173443    4P0P  00007200000001065600001229032H2    HVYHV   005100280028
BI00B32H2    TIJ2105        202209307116-2891-02             TERMINAL                 CCN000030000000015000FN00000000020221001000015000NNMD0020220818173359    4P0P  00001500000000982500001145932H2    HVYHV   005100280028
BI00B32H2    TIJ2105        202209307196-1020-02             TERMINAL ALUMINIUM       CCN000023700000023700FN00000000020221001000023700NNMD0020220818173516    4P0P  00002370000000722900001008132H2    HVYHV   006400630015
BI00B32H2    TIJ2105        202209307196-1024-02             TERMINAL ALUMINIUM       CCN000018900000018900FN00000000020221001000018900NNMD0020220818173544    4P0P  00001890000000718200001003432H2    HVYHV   006400630015
BI00B32H2    TIJK210A       202209097114-4020                TERMINAL                 CCN000189000000189000FN00000000020221001000189000NNE   20220818121316    4P0P  00002100000000875700001169332H2    HVYHV   006400630015
BI00B32H2    TIJK210A       202209097116-4020                TERMINAL                 CCN000040500000040500FN00000000020221001000040500NNE   20220818121316    4P0P  00001350000000513000000798232H2    HVYHV   006400630015
BI00B32H2    TIJ2105        202210077116-2891-02             TERMINAL                 CCN000015000000015000FN00000000020221001000015000NNMD0020220818173359    4P0P  00001500000000982500001145932H2    HVYHV   005100280028
BI00B32H2    TIJ2105        202210077017-1180-02             TERMINAL                 CCN000072000000072000FN00000000020221001000072000NNMD0020220818173443    4P0P  00007200000001065600001229032H2    HVYHV   005100280028
BI00A32N1    NST2121HCU     202208177288-3335-30             HOUSING MALE             CCN000004500000004500FY00000450020220801000000000NNE00020220818111603    4N0N  00000150000000867000001012032N1    TAYIPL  005400370024
BI00B32Q8    QA-22-S023     202208247158-3167-61             WIRE SEAL                PNY000012000000012000FN00000000020220801000012000NNEQ0020220818121316    1C0C  00002000000000048000000096432Q8    EMEMI   004300270014
BI00B32R4    HZYME2209007   202209017140-4523-02             TERMINAL                 CCN000020000000020000FN00000000020220901000020000NNE   20220818150722    4P0P  00001000000001024000001309432R4    HZHZYME 004900490015
BI00B32R4    HZYME2209007   202209017140-4522-02             TERMINAL                 CCN000088000000088000FN00000000020220901000088000NNE   20220818150722    4P0P  00002200000001760000002000432R4    HZHZYME 005000520015
BI00B32R4    HZYME2209007   202209017140-4524-02             TERMINAL                 CCN000080000000080000FN00000000020220901000080000NNE   20220818150722    4P0P  00002000000001556000001849832R4    HZHZYME 005000520015
BI00B32R4    HZYME2209007   202209017140-4521-02             TERMINAL                 CCN000110000000110000FN00000000020220901000110000NNE   20220818150722    4P0P  00002200000001735800001976232R4    HZHZYME 005000520015
BI00B32R4    HZYME2209007   202209017140-4528-02             TERMINAL                 CCN000020000000020000FN00000000020220901000020000NNE   20220818150722    4P0P  00002000000001268000001549632R4    HZHZYME 005000520015
BI00B32R4    HZYME2209007   202209017140-4526-02             TERMINAL                 CCN000192000000192000FN00000000020220901000192000NNE   20220818150722    4P0P  00002400000001488000001728432R4    HZHZYME 005000520015
BI00B32R4    HZYME2209007   202209017140-4520-02             TERMINAL                 CCN000060000000060000FN00000000020220901000060000NNE   20220818150722    4P0P  00002000000001134000001364632R4    HZHZYME 005000520015
BI00B32R4    HZYME2209007   202209017140-4527-02             TERMINAL                 CCN000060000000060000FN00000000020220901000060000NNE   20220818150722    4P0P  00002000000000870000001118832R4    HZHZYME 005000520015
BI00B32R4    HZYME2209007   202209017140-4525-02             TERMINAL                 CCN000120000000120000FN00000000020220901000120000NNE   20220818150722    4P0P  00002400000001084800001279632R4    HZHZYME 005000520015
BI00B32R7    R-TAP220343    202209157289-9553-50             SEALED ASSY FEMALE       CCN000041160000041160FN00000000020220901000041160NNED0420220818143612    4N0N  00000294000001108100001520632R7    IVYCIC  005500360039
BI00B32W4    #4500195214    202208257147-3642-30             CLIP                     CCN000078000000048000FN00000000020220801000048000NNED0420220818144202W4172F0F  00000300000000542000000721332W417  HJYHK   005600390040
BI00B32W4    4500195633     202208177158-3167-80             WIRE SEAL                CCN000600000000600000FY00060000020220801000000000NNE00020220818111350W4651C0C  00002000000000048000000109032W465  HJYHK   002700430014
BI00B32W4    4500195633     202208177158-3169-40             SEALING PLUG             CCN000200000000200000FY00020000020220801000000000NNE00020220818111350W4651C0C  00004000000000156000000204132W465  HJYHK   004300260014
BI00B32W4    4500195598     202208177158-3166-60             WIRE SEAL                CCN000080000000080000FY00008000020220801000000000NNE00020220818111407W4461C0C  00004000000000104000000152432W446  HJYHK   002700430014
BI00B32W4    4500196372     202208177116-4100-02             TERMINAL                 CCN000015000000015000FY00001500020220801000000000NNE00020220818111503W4N24P0P  00001500000000696000000990232W4N2  HJYHK-J 006400630015
BI00B32W4    4500196372     202208177116-4112-02             TERMINAL                 CCN000018000000018000FY00001800020220801000000000NNE00020220818111508W4N24P0P  00000600000000450000000738232W4N2  HJYHK-J 006400630015
BI00B32W4    4500196372     202208177116-4102-02             TERMINAL                 CCN000084000000084000FY00008400020220801000000000NNE00020220818111503W4N24P0P  00001200000000553200000841432W4N2  HJYHK-J 006400630015
BI00A32W4    4500196372     202208187114-4100-02             TERMINAL                 CCN000036000000036000FY00003600020220801000000000NNE00020220818150110W4N24P0P  00001800000000748800001077432W4N2  HJYHK-J 006400630017
BI00B32W4    4500196785     202208177158-3165-90             WIRE SEAL                CCN000040000000040000FY00004000020220801000000000NNE00020220818111527W4N21C0C  00004000000000124000000172432W4N2  HJYHK-J 004300270014
BI00A32W4    4500198788     202210177116-4100-02             TERMINAL                 CCN000015000000015000FN00000000020221001000015000NNE   20220818121316W4O24P0P  00001500000000696000000990232W4O2  HJYHK-J 006400630015
BI00A32W4    4500198788     202210177116-4112-02             TERMINAL                 CCN000006000000006000FN00000000020221001000006000NNE   20220818121316W4O24P0P  00000600000000450000000738232W4O2  HJYHK-J 006400630015
BI00A32W4    4500198788     202210177116-4231-02             TERMINAL                 CCN000026000000026000FN00000000020221001000026000NNE   20220818121316W4O24P0P  00002600000000683800001012532W4O2  HJYHK-J 006400630017
BI00A32W4    4500198788     202210177158-3166-60             WIRE SEAL                CCN000040000000040000FN00000000020221001000040000NNE   20220818121316W4O21C0C  00004000000000104000000152432W4O2  HJYHK-J 002700430014
BI00A32W4    4500198788     202210177116-4101-02             TERMINAL                 CCN000024000000024000FN00000000020221001000024000NNE   20220818121316W4O24P0P  00001200000000582000000876232W4O2  HJYHK-J 006400630015
BI00A32W4    4500198788     202210177116-2870                TERMINAL                 CCN000012000000012000FN00000000020221001000012000NNE   20220818121316W4O21P0P  00001200000000783600001020232W4O2  HJYHK-J 005100280028
BI00A32W4    4500198790     202211037158-3169-40             SEALING PLUG             CCN000040000000040000FN00000000020221101000040000NNE   20220818121316W4D31C0C  00004000000000156000000204132W4D3  HJYHK-J 004300260014
BI00A32W4    4500198797     202210177158-3167-80             WIRE SEAL                CCN000080000000080000FN00000000020221001000080000NNE   20220818121316W4G91C0C  00002000000000048000000109032W4G9  HJYHK-J 002700430014
BI00A32W4    4500198799     202210177158-3167-80             WIRE SEAL                CCN000040000000040000FN00000000020221001000040000NNE   20220818121316W4P61C0C  00002000000000048000000109032W4P6  HJYHK-J 002700430014
BI00A32W4    4500198799     202210177158-3169-40             SEALING PLUG             CCN000040000000040000FN00000000020221001000040000NNE   20220818121316W4P61C0C  00004000000000156000000204132W4P6  HJYHK-J 004300260014
BI00B32W4    4500198812     202210207116-4102-02             TERMINAL                 CCN000228000000228000FN00000000020221001000228000NNE   20220818121316W4664P0P  00001200000000553200000841432W466  HJYHK   006400630015
BI00B32W4    4500198812     202210207114-4100-02             TERMINAL                 CCN000072000000072000FN00000000020221001000072000NNE   20220818121316W4664P0P  00001800000000748800001077432W466  HJYHK   006400630017
BI00B32W4    4500198812     202210207114-4111-02             TERMINAL                 CCN000024000000024000FN00000000020221001000024000NNE   20220818121316W4664P0P  00001200000000758400001087032W466  HJYHK   006400630017
BI00B32W4    4500198812     202210207116-4101-02             TERMINAL                 CCN000096000000096000FN00000000020221001000096000NNE   20220818121316W4664P0P  00001200000000582000000876232W466  HJYHK   006400630015
BI00B32W4    4500198812     202210207114-4101-02             TERMINAL                 CCN000030000000030000FN00000000020221001000030000NNE   20220818121316W4664P0P  00001500000000675000001003632W466  HJYHK   006400630017
BI00B32W4    4500198812     202210207116-4104-02             TERMINAL                 CCN000048000000048000FN00000000020221001000048000NNE   20220818121316W4664P0P  00001200000000580800000972432W466  HJYHK   006400630015
BI00B32W4    4500198812     202210207114-4110-02             TERMINAL                 CCN000015000000015000FN00000000020221001000015000NNE   20220818121316W4664P0P  00001500000000901500001230132W466  HJYHK   006400630017
BI00B32W4    4500198812     202210207116-4110-02             TERMINAL                 CCN000036000000036000FN00000000020221001000036000NNE   20220818121316W4664P0P  00000900000000594000000882232W466  HJYHK   006400630015
BI00B32W4    4500198812     202210207114-4112-02             TERMINAL                 CCN000081000000081000FN00000000020221001000081000NNE   20220818121316W4664P0P  00000900000000598500000927132W466  HJYHK   006400630017
BI00B32W4    #4500198812    202210207282-4190-30             CONNECTOR                CCN000002400000002400FN00000000020221001000002400NNE   20220818121316W4662N0N  00000024000000801000001071332W466  HJYHK   005600390040
BI00B32W4    #4500198812    202210207283-4190-30             CONNECTOR                CCN000002400000002400FN00000000020221001000002400NNE   20220818121316W4662N0N  00000024000000846000001115532W466  HJYHK   005600390040
BI00B32W4    4500198816     202209157116-4111-02             TERMINAL                 CCN000022500000022500FN00000000020220901000022500NNE   20220818121316W4P74P0P  00000750000000529500000817732W4P7  HJYHK   006400630015
BI00B32W4    4500198816     202209157158-3167-80             WIRE SEAL                CCN000020000000020000FN00000000020220901000020000NNE   20220818121316W4P71C0C  00002000000000048000000109032W4P7  HJYHK   002700430014
BI00B32W4    4500198819     202209157116-4111-02             TERMINAL                 CCN000037500000037500FN00000000020220901000037500NNE   20220818121316W4P74P0P  00000750000000529500000817732W4P7  HJYHK   006400630015
BI00B32W4    4500198823     202210067116-4111-02             TERMINAL                 CCN000045000000045000FN00000000020221001000045000NNE   20220818121316W4P74P0P  00000750000000529500000817732W4P7  HJYHK   006400630015
BI00B32W4    4500198823     202210067158-3167-80             WIRE SEAL                CCN000020000000020000FN00000000020221001000020000NNE   20220818121316W4P71C0C  00002000000000048000000109032W4P7  HJYHK   002700430014
BI00B32W4    4500198839     202209017470-5237                J/B ASS'Y                CCN000000960000000960FN00000000020220901000000960NNE   20220818121316W4D41J0J  00000002400001320000001570032W4D4  HJYHK-J 005500360039
BI00B32W4    4500198839     202209017289-6868-30             SEALED ASSY FEMALE       CCN000007560000007560FN00000000020220901000007560NNE   20220818121316W4D44N0N  00000252000000839200001119232W4D4  HJYHK-J 005500360039
BI00B32W4    4500198839     202209017298-4094-10             HOUSING FEMALE ASS'Y     CCN000023660000023660FN00000000020220901000023660NNE   20220818121316W4D44N0N  00000338000001097400001358732W4D4  HJYHK-J 005400370024
BI00B32W4    4500198839     202209017327-6581-3W             BATTERY FUSE             CCN000000936000000936FN00000000020220901000000936NNE   20220818121316W4D44N0N  00000007200001230000001422532W4D4  HJYHK-J 005500360039
BI00B32W4    #4500198839    202209017157-3950-80             SEAL RUBBER              CCN000040000000040000FN00000000020220901000040000NNE   20220818121316W4D42C0C  00004000000000154000000440332W4D4  HJYHK-J 002700430014
BI00B32W4    4500198855     202209017116-4121-02             TERMINAL                 CCN000004500000004500FN00000000020220901000004500NNE   20220818121316W4P74P0P  00000450000000618800000912432W4P7  HJYHK   006400630015
BI00B32W4    4500198856     202209157116-4121-02             TERMINAL                 CCN000009000000009000FN00000000020220901000009000NNE   20220818121316W4P74P0P  00000450000000618800000912432W4P7  HJYHK   006400630015
BI00B32W4    4500198857     202209157116-4121-02             TERMINAL                 CCN000004500000004500FN00000000020220901000004500NNE   20220818121316W4P74P0P  00000450000000618800000912432W4P7  HJYHK   006400630015
BI00B32W4    4500198858     202210067116-4121-02             TERMINAL                 CCN000009000000009000FN00000000020221001000009000NNE   20220818121316W4P74P0P  00000450000000618800000912432W4P7  HJYHK   006400630015
BI00B32W4    4500198859     202210067116-4100-02             TERMINAL                 CCN000015000000015000FN00000000020221001000015000NNE   20220818121316W4P74P0P  00001500000000696000000990232W4P7  HJYHK   006400630015
BI00B32W4    4500198860     202210067116-4100-02             TERMINAL                 CCN000105000000105000FN00000000020221001000105000NNE   20220818121316W4P74P0P  00001500000000696000000990232W4P7  HJYHK   006400630015
BI00B32W4    4500198865     202210067116-4111-02             TERMINAL                 CCN000007500000007500FN00000000020221001000007500NNE   20220818121316W4N24P0P  00000750000000529500000817732W4N2  HJYHK-J 006400630015
BI00B32W4    4500198865     202210067114-4100-02             TERMINAL                 CCN000018000000018000FN00000000020221001000018000NNE   20220818121316W4N24P0P  00001800000000748800001077432W4N2  HJYHK-J 006400630017
BI00B32W4    4500198865     202210067158-3165-90             WIRE SEAL                CCN000040000000040000FN00000000020221001000040000NNE   20220818121316W4N21C0C  00004000000000124000000172432W4N2  HJYHK-J 004300270014
BI00B32W4    4500198865     202210067114-4101-02             TERMINAL                 CCN000015000000015000FN00000000020221001000015000NNE   20220818121316W4N24P0P  00001500000000675000001003632W4N2  HJYHK-J 006400630017
BI00B32W4    @4500198867    202210067287-1238-30             HOUSING FEMALE ASS'Y     CCN000001560000001560FN00000000020221001000001560NNE   20220818121316W4N23N0N  00000078000000721100001122032W4N2  HJYHK-J 005500360039
BI00B32W4    4500198868     202210207158-3169-40             SEALING PLUG             CCN000040000000040000FN00000000020221001000040000NNE   20220818121316W4N21C0C  00004000000000156000000204132W4N2  HJYHK-J 004300260014
BI00B32W4    @4500198868    202210207286-1238-30             CONNECTOR                CCN000001200000001200FN00000000020221001000001200NNE   20220818121316W4N23N0N  00000120000001224000001466032W4N2  HJYHK-J 005500360039
BI00B32W4    4500198872     202209227158-3169-40             SEALING PLUG             CCN000040000000040000FN00000000020220901000040000NNE   20220818121316W4651C0C  00004000000000156000000204132W465  HJYHK   004300260014
BI00B32W4    4500198875     202210207116-4100-02             TERMINAL                 CCN000015000000015000FN00000000020221001000015000NNE   20220818121316W4464P0P  00001500000000696000000990232W446  HJYHK   006400630015
BI00B32W4    4500198875     202210207116-4112-02             TERMINAL                 CCN000006000000006000FN00000000020221001000006000NNE   20220818121316W4464P0P  00000600000000450000000738232W446  HJYHK   006400630015
BI00B32W4    4500198875     202210207116-4102-02             TERMINAL                 CCN000048000000048000FN00000000020221001000048000NNE   20220818121316W4464P0P  00001200000000553200000841432W446  HJYHK   006400630015
BI00B32W4    4500198875     202210207114-4100-02             TERMINAL                 CCN000018000000018000FN00000000020221001000018000NNE   20220818121316W4464P0P  00001800000000748800001077432W446  HJYHK   006400630017
BI00B32W4    4500198875     202210207158-3167-80             WIRE SEAL                CCN000020000000020000FN00000000020221001000020000NNE   20220818121316W4461C0C  00002000000000048000000109032W446  HJYHK   002700430014
BI00B32W4    4500198875     202210207116-4101-02             TERMINAL                 CCN000024000000024000FN00000000020221001000024000NNE   20220818121316W4464P0P  00001200000000582000000876232W446  HJYHK   006400630015
BI00B32W4    4500198875     202210207158-3169-40             SEALING PLUG             CCN000040000000040000FN00000000020221001000040000NNE   20220818121316W4461C0C  00004000000000156000000204132W446  HJYHK   004300260014
BI00B32W4    4500198875     202210207116-1471                TERMINAL                 CCN000015000000015000FN00000000020221001000015000NNE   20220818121316W4464P0P  00001500000000579000000867232W446  HJYHK   006400630015
BI00B32W4    4500198875     202210207116-4104-02             TERMINAL                 CCN000012000000012000FN00000000020221001000012000NNE   20220818121316W4464P0P  00001200000000580800000972432W446  HJYHK   006400630015
BI00B32W4    4500198875     202210207114-4110-02             TERMINAL                 CCN000030000000030000FN00000000020221001000030000NNE   20220818121316W4464P0P  00001500000000901500001230132W446  HJYHK   006400630017
BI00B32W4    4500198875     202210207116-4103-02             TERMINAL                 CCN000024000000024000FN00000000020221001000024000NNE   20220818121316W4464P0P  00001200000000571200000859432W446  HJYHK   006400630015
BI00B32W4    #4500198875    202210207282-3243-40             CONNECTOR                CCN000000800000000800FN00000000020221001000000800NNE   20220818121316W4462N0N  00000080000001006000001282332W446  HJYHK   005600390040
BI00B32W4    #4500198875    202210207157-7897-60             SEAL RUBBER              CCN000010000000010000FN00000000020221001000010000NNE   20220818121316W4462C0C  00001000000000132000000214732W446  HJYHK   002700430014
BI00B32W4    #4500198875    202210207283-8123-40             CONNECTOR HOUSING        CCN000008000000008000FN00000000020221001000008000NNE   20220818121316W4462N0N  00000400000000380000000530032W446  HJYHK   005600390023
BI00B32W4    4500198879     202210067116-4100-02             TERMINAL                 CCN000015000000015000FN00000000020221001000015000NNE   20220818121316W4374P0P  00001500000000696000000990232W437  HJYHK   006400630015
BI00B32W4    4500198879     202210067116-4112-02             TERMINAL                 CCN000012000000012000FN00000000020221001000012000NNE   20220818121316W4374P0P  00000600000000450000000738232W437  HJYHK   006400630015
BI00B32W4    4500198879     202210067116-4102-02             TERMINAL                 CCN000048000000048000FN00000000020221001000048000NNE   20220818121316W4374P0P  00001200000000553200000841432W437  HJYHK   006400630015
BI00B32W4    4500198880     202210067116-4120-02             TERMINAL                 CCN000006000000006000FN00000000020221001000006000NNE   20220818121316W4374P0P  00000600000000780000001073632W437  HJYHK   006400630015
BI00B32W4    4500198893     202302097283-5574-10             CONNECTOR                CCN000000800000000800FN00000000020230201000000800NNE   20220818121316W4464N0N  00000080000001235000001435232W446  HJYHK   005500360039
BI00T32W4    4500198836     202210277287-1917                CONNECTOR FEMALE         CCN000057600000057600FN00000000020221001000057600NNE   20220818121316W4K84N0N  00000240000001060800001312532W4K8  HJYHK-J 005500360039
BI00T32W4    4500198836     202210277116-5041-02             TERMINAL                 CCN000495000000495000FN00000000020221001000495000NNE   20220818121316W4K84P0P  00001500000000583500000868732W4K8  HJYHK-J 006400630015
BI00T32W4    4500198836     202210277116-5750-02             TERMINAL                 CCN000345000000345000FN00000000020221001000345000NNE   20220818121316W4K84P0P  00001500000000457500000742732W4K8  HJYHK-J 006400630015
BI00T32W4    4500198836     202210277116-5045-02             TERMINAL                 CCN000128000000128000FN00000000020221001000128000NNE   20220818121316W4K84P0P  00001600000000678400001007132W4K8  HJYHK-J 006400630017
BI00T32W4    4500198836     202210277286-4097                CONNECTOR MALE ASS'Y     CCN000022400000022400FN00000000020221001000022400NNE   20220818121316W4K81N0N  00000160000000768000000978032W4K8  HJYHK-J 005500360039
BI00T32W4    4500198836     202210277B96-0805-02             TERMINAL FEMALE          CCN000022500000022500FN00000000020221001000022500NNE   20220818121316W4K84P0P  00002250000000558000000843232W4K8  HJYHK-J 006400630015
BI00T32W4    4500198836     202210277283-5846                HOUSING                  CCN000013500000013500FN00000000020221001000013500NNE   20220818121316W4K81N0N  00000150000000885000001102032W4K8  HJYHK-J 005600390040
BI00T32W4    4500198836     202210277116-5044-02             TERMINAL                 CCN000080000000080000FN00000000020221001000080000NNE   20220818121316W4K84P0P  00001600000000641600000986332W4K8  HJYHK-J 006400630017
BI00T32W4    4500198836     202210277114-5753-02             TERMINAL                 CCN000081000000081000FN00000000020221001000081000NNE   20220818121316W4K84P0P  00002700000000847800001141432W4K8  HJYHK-J 006400630015
BI00T32W4    4500198836     202210277286-1915                CONNECTOR SUB ASSY       CCN000008000000008000FN00000000020221001000008000NNE   20220818121316W4K84N0N  00000160000000965600001165632W4K8  HJYHK-J 005500360039
BI00T32W4    4500198836     202210277116-4231-02             TERMINAL                 CCN000078000000078000FN00000000020221001000078000NNE   20220818121316W4K84P0P  00002600000000683800001012532W4K8  HJYHK-J 006400630017
BI00T32W4    4500198836     202210277114-4728-02             TERMINAL                 CCN000090000000090000FN00000000020221001000090000NNE   20220818121316W4K84P0P  00003000000000510000000804232W4K8  HJYHK-J 006400630015
BI00T32W4    4500198836     202210277282-4855                HOUSING MALE ASS'Y       CCN000004800000004800FN00000000020221001000004800NNE   20220818121316W4K84N0N  00000120000001063200001283232W4K8  HJYHK-J 005500360039
BI00T32W4    4500198836     202210277017-1180-02             TERMINAL                 CCN000144000000144000FN00000000020221001000144000NNE   20220818121316W4K84P0P  00007200000001065600001229032W4K8  HJYHK-J 005100280028
BI00T32W4    4500198836     202210277114-4624-02             TERMINAL                 CCN000048000000048000FN00000000020221001000048000NNE   20220818121316W4K84P0P  00002400000000895200001188832W4K8  HJYHK-J 006400630015
BI00T32W4    4500198836     202210277116-5752-02             TERMINAL                 CCN000042000000042000FN00000000020221001000042000NNE   20220818121316W4K84P0P  00002100000000571200000856432W4K8  HJYHK-J 006400630015
BI00T32W4    4500198836     202210277158-3009-60             RUBBER STOPPER           CCN000080000000080000FN00000000020221001000080000NNE   20220818121316W4K81C0C  00002000000000338000000386232W4K8  HJYHK-J 002700430014
BI00T32W4    4500198836     202210277283-5845                CONNECTOR HOUSING        CCN000006000000006000FN00000000020221001000006000NNE   20220818121316W4K81N0N  00000600000000444000000606332W4K8  HJYHK-J 005400370024
BI00T32W4    4500198836     202210277183-2417-30             CONNECTOR HOUSING        CCN000007200000007200FN00000000020221001000007200NNE   20220818121316W4K84F0F  00000240000001137600001297932W4K8  HJYHK-J 005500360039
BI00T32W4    4500198836     202210277017-1181-02             TERMINAL                 CCN000063000000063000FN00000000020221001000063000NNE   20220818121316W4K84P0P  00006300000001089900001266832W4K8  HJYHK-J 005100280028
BI00T32W4    4500198836     202210277158-3006-90             RUBBER STOPPER           CCN000060000000060000FN00000000020221001000060000NNE   20220818121316W4K81C0C  00002000000000330600000386032W4K8  HJYHK-J 002700430014
BI00T32W4    4500198836     202210277114-5096-02             TERMINAL                 CCN000030000000030000FN00000000020221001000030000NNE   20220818121316W4K84P0P  00003000000000498000000792232W4K8  HJYHK-J 006400630015
BI00T32W4    4500198836     202210277172-5540-80             SEALED WIRE SEAL         CCN000020000000020000FN00000000020221001000020000NNE   20220818121316W4K81C0C  00002000000000186000000234432W4K8  HJYHK-J 004300270014
BI00T32W4    #4500198836    202210277183-2414                CONNECTOR HOUSING        CCN000038400000038400FN00000000020221001000038400NNE   20220818121316W4K82F0F  00000480000000779200001061032W4K8  HJYHK-J 005500360039
BI00T32W4    #4500198836    202210277182-2410                CONNECTOR HOUSING        CCN000013200000013200FN00000000020221001000013200NNE   20220818121316W4K82F0F  00000120000000959800001245632W4K8  HJYHK-J 005500360039
BI00T32W4    #4500198836    202210277158-3004-40             RUBBER STOPPER           CCN000060000000060000FN00000000020221001000060000NNE   20220818121316W4K82C0C  00002000000000234000000306332W4K8  HJYHK-J 002700430014
BI00T32W4    #4500198836    202210277147-3642-30             CLIP                     CCN000015000000015000FN00000000020221001000015000NNE   20220818121316W4K82F0F  00000300000000542000000721332W4K8  HJYHK-J 005600390040
BI00T32W4    #4500198836    202210277035-5731                GROMMET                  CCN000001500000001500FN00000000020221001000001500NNE   20220818121316W4K82H0H  00000050000000808000000918032W4K8  HJYHK-J 005600390040
BI00T32W4    #4500198836    202210277183-2413                CONNECTOR HOUSING        CCN000009600000009600FN00000000020221001000009600NNE   20220818121316W4K82F0F  00000480000000478100000760032W4K8  HJYHK-J 005500360039
BI00T32W4    #4500198836    202210277183-5068                CONNECTOR HOUSING        CCN000004000000004000FN00000000020221001000004000NNE   20220818121316W4K82F0F  00000200000001097600001267032W4K8  HJYHK-J 005600390040
BI00T32W4    #4500198836    202210277183-2418                CONNECTOR HOUSING        CCN000004800000004800FN00000000020221001000004800NNE   20220818121316W4K82F0F  00000480000000917000001477032W4K8  HJYHK-J 005500360039
BI00T32W4    #4500198836    202210277282-1030                CONNECTOR MALE ASS'Y     CCN000001000000001000FN00000000020221001000001000NNE   20220818121316W4K82N0N  00000100000000365000000487532W4K8  HJYHK-J 005400370024
BI00T32W4    #4500198836    202210277158-3007-10             RUBBER STOPPER           CCN000020000000020000FN00000000020221001000020000NNE   20220818121316W4K82H0H  00002000000000308000000362732W4K8  HJYHK-J 002700430014
BI00T32W4    #4500198836    202210277158-3003-90             RUBBER STOPPER           CCN000020000000020000FN00000000020221001000020000NNE   20220818121316W4K82C0C  00002000000000250000000306032W4K8  HJYHK-J 002700430014
BI00T32W4    @4500198836    202210277123-2825                HOUSING                  CCN000048000000048000FN00000000020221001000048000NNE   20220818121316W4K83F0F  00000600000000958800001136432W4K8  HJYHK-J 005500360039
BI00T32W4    @4500198836    202210277183-2510                HOUSING                  CCN000021000000021000FN00000000020221001000021000NNE   20220818121316W4K83F0F  00000300000001063500001159032W4K8  HJYHK-J 005400370024
BI00T32W4    @4500198836    202210277282-1060                HOUSING SUB ASSEMBLY     CCN000008000000008000FN00000000020221001000008000NNE   20220818121316W4K83N0N  00000160000000955500001169032W4K8  HJYHK-J 005500360039
BI00B32W4    #4500195214    202209087147-3642-30             CLIP                     CCN000012000000012000FN00000000020220801000012000NNED0420220818144220W4172F0F  00000300000000542000000721332W417  HJYHK   005600390040
BI00B32W4    #4500195214    202209157147-3642-30             CLIP                     CCN000018000000018000FN00000000020220801000018000NNED0420220818144229W4172F0F  00000300000000542000000721332W417  HJYHK   005600390040
BI00B32W9    4500198794     202209067289-6868-30             SEALED ASSY FEMALE       CCN000002520000002520FN00000000020220901000002520NNE   20220818121316W9  4N0N  00000252000000839200001119232W9    HKYHK   005500360039
BI00B32W9    4500198846     202210117114-4100-02             TERMINAL                 CCN000018000000018000FN00000000020221001000018000NNE   20220818121316W9  4P0P  00001800000000748800001077432W9    HKYHK   006400630017
BI00A32X5    #TAP77D09A     202208197198-4980-30             HOUSING FEMALE           CCN000001200000001200FN00000000020220801000001200NNEM0020220818121316X5  2F0F  00000120000000840000000921032X5    EPYNA-E 005400370024
BI00A32Y5    TTA32121       202209017289-3342                HOUSING FEMALE ASS'Y     CCN000007200000007200FN00000000020221201000007200NNMM0020220818121316    1N0N  00000240000000686400000901432Y5    BZYBL   005500360039
BI00A32Y5    TTA32122       202209017289-3342                HOUSING FEMALE ASS'Y     CCN000007200000007200FN00000000020221201000007200NNMM0020220818121316    1N0N  00000240000000686400000901432Y5    BZYBL   005500360039
BI00A32Y5    TTA32123       202209017289-3342                HOUSING FEMALE ASS'Y     CCN000007200000007200FN00000000020221201000007200NNMM0020220818121316    1N0N  00000240000000686400000901432Y5    BZYBL   005500360039
BI00A32Y5    TTA32124       202209017289-3342                HOUSING FEMALE ASS'Y     CCN000007200000007200FN00000000020221201000007200NNMM0020220818121316    1N0N  00000240000000686400000901432Y5    BZYBL   005500360039
BI00A32Y5    TTA32121       202209017289-3342-30             HOUSING FEMALE ASS'Y     CCN000004800000004800FN00000000020221201000004800NNMM0020220818121316    1N0N  00000240000000686400000901432Y5    BZYBL   005500360039
BI00A32Y5    TTA32122       202209017289-3342-30             HOUSING FEMALE ASS'Y     CCN000004800000004800FN00000000020221201000004800NNMM0020220818121316    1N0N  00000240000000686400000901432Y5    BZYBL   005500360039
BI00A32Y5    TTA32123       202209017289-3342-30             HOUSING FEMALE ASS'Y     CCN000004800000004800FN00000000020221201000004800NNMM0020220818121316    1N0N  00000240000000686400000901432Y5    BZYBL   005500360039
BI00A32Y5    TTA32124       202209017289-3342-30             HOUSING FEMALE ASS'Y     CCN000004800000004800FN00000000020221201000004800NNMM0020220818121316    1N0N  00000240000000686400000901432Y5    BZYBL   005500360039
BI00A32Y5    TTA32121       202209017289-3342-40             HOUSING FEMALE ASS'Y     CCN000004800000004800FN00000000020221201000004800NNMM0020220818121316    1N0N  00000240000000686400000901432Y5    BZYBL   005500360039
BI00A32Y5    TTA32122       202209017289-3342-40             HOUSING FEMALE ASS'Y     CCN000004800000004800FN00000000020221201000004800NNMM0020220818121316    1N0N  00000240000000686400000901432Y5    BZYBL   005500360039
BI00A32Y5    TTA32123       202209017289-3342-40             HOUSING FEMALE ASS'Y     CCN000004800000004800FN00000000020221201000004800NNMM0020220818121316    1N0N  00000240000000686400000901432Y5    BZYBL   005500360039
BI00A32Y5    TTA32124       202209017289-3342-40             HOUSING FEMALE ASS'Y     CCN000004800000004800FN00000000020221201000004800NNMM0020220818121316    1N0N  00000240000000686400000901432Y5    BZYBL   005500360039
BI00A32Y5    TTA32121       202209017289-3342-90             HOUSING FEMALE ASS'Y     CCN000002400000002400FN00000000020221201000002400NNMM0020220818121316    1N0N  00000240000000686400000901432Y5    BZYBL   005500360039
BI00A32Y5    TTA32122       202209017289-3342-90             HOUSING FEMALE ASS'Y     CCN000002400000002400FN00000000020221201000002400NNMM0020220818121316    1N0N  00000240000000686400000901432Y5    BZYBL   005500360039
BI00A32Y5    TTA32123       202209017289-3342-90             HOUSING FEMALE ASS'Y     CCN000002400000002400FN00000000020221201000002400NNMM0020220818121316    1N0N  00000240000000686400000901432Y5    BZYBL   005500360039
BI00A32Y5    TTA32124       202209017289-3342-90             HOUSING FEMALE ASS'Y     CCN000002400000002400FN00000000020221201000002400NNMM0020220818121316    1N0N  00000240000000686400000901432Y5    BZYBL   005500360039
BI00A32Y5    TTA33011       202209017289-3342                HOUSING FEMALE ASS'Y     CCN000009600000009600FN00000000020230101000009600NNMM0020220818121316    1N0N  00000240000000686400000901432Y5    BZYBL   005500360039
BI00A32Y5    TTA33012       202209017289-3342                HOUSING FEMALE ASS'Y     CCN000004800000004800FN00000000020230101000004800NNMM0020220818121316    1N0N  00000240000000686400000901432Y5    BZYBL   005500360039
BI00A32Y5    TTA33013       202209017289-3342                HOUSING FEMALE ASS'Y     CCN000004800000004800FN00000000020230101000004800NNMM0020220818121316    1N0N  00000240000000686400000901432Y5    BZYBL   005500360039
BI00A32Y5    TTA33014       202209017289-3342                HOUSING FEMALE ASS'Y     CCN000002400000002400FN00000000020230101000002400NNMM0020220818121316    1N0N  00000240000000686400000901432Y5    BZYBL   005500360039
BI00A32Y5    TTA33011       202209017289-3342-30             HOUSING FEMALE ASS'Y     CCN000004800000004800FN00000000020230101000004800NNMM0020220818121316    1N0N  00000240000000686400000901432Y5    BZYBL   005500360039
BI00A32Y5    TTA33014       202209017289-3342-30             HOUSING FEMALE ASS'Y     CCN000002400000002400FN00000000020230101000002400NNMM0020220818121316    1N0N  00000240000000686400000901432Y5    BZYBL   005500360039
BI00A32Y5    TTA33011       202209017289-3342-40             HOUSING FEMALE ASS'Y     CCN000004800000004800FN00000000020230101000004800NNMM0020220818121316    1N0N  00000240000000686400000901432Y5    BZYBL   005500360039
BI00B32Y5    TTA33012       202209017289-3342-40             HOUSING FEMALE ASS'Y     CCN000004800000004800FN00000000020230101000004800NNMM0020220818121316    1N0N  00000240000000686400000901432Y5    BZYBL   005500360039
BI00A32Y5    TTA33011       202209017289-3342-90             HOUSING FEMALE ASS'Y     CCN000002400000002400FN00000000020230101000002400NNMM0020220818121316    1N0N  00000240000000686400000901432Y5    BZYBL   005500360039
BI00A32Y5    TTA33014       202209017289-3342-90             HOUSING FEMALE ASS'Y     CCN000002400000002400FN00000000020230101000002400NNMM0020220818121316    1N0N  00000240000000686400000901432Y5    BZYBL   005500360039
BI00B32AF    JTB209J        202209027283-5830                CONNECTOR                CCN000006000000006000FN00000000020220901000006000NNE   20220818121316    1N47  00000600000000954000001104032AF    HBYHVTB 005500360039
BI00B32AF    #JTB209J       202209027283-1150                HOUSING FEMALE ASS'Y     CCN000009000000009000FN00000000020220901000009000NNE   20220818121316    2N0N  00000100000000607000000719532AF    HBYHVTB 005400370024
BI00B32AF    JTB210H        202209237282-4855                HOUSING MALE ASS'Y       CCN000002400000002400FN00000000020221001000002400NNE   20220818121316    4N0N  00000120000001063200001283232AF    HBYHVTB 005500360039
BI00B32AF    JTB210H        202209237283-4576                HOUSING FEMALE ASS'Y     CCN000004800000004800FN00000000020221001000004800NNE   20220818121316    4N0N  00000480000000651300000871332AF    HBYHVTB 005500360039
BI00B32AF    JTB210H        202209237283-4854                CONNECTOR HOUSING        CCN000002400000002400FN00000000020221001000002400NNE   20220818121316    4N0N  00000240000000694100000914132AF    HBYHVTB 005500360039
BI00B32AF    JTB210H        202209237283-4855                CONNECTOR HOUSING        CCN000004800000004800FN00000000020221001000004800NNE   20220818121316    4N0N  00000240000001188400001400032AF    HBYHVTB 005500360039
BI00B32CC    CTA32117       202208227158-3167-80             WIRE SEAL                CCN000020000000020000FN00000000020221201000020000NNE00020220818161424    1C0C  00002000000000048000000109032CC    BIYABCBU002700430014
BI00B32CC    CTA32122       202209087283-4855                CONNECTOR HOUSING        CCN000016800000016800FN00000000020221201000016800NNE   20220818121316    4N0N  00000240000001188400001400032CC    BIYABCBU005500360039
BI00B32CC    CTA32122       202209087289-3342                HOUSING FEMALE ASS'Y     CCN000012000000012000FN00000000020221201000012000NNE   20220818121316    1N0N  00000240000000686400000901432CC    BIYABCBU005500360039
BI00B32CC    CTA32122       202209087289-3342-30             HOUSING FEMALE ASS'Y     CCN000002400000002400FN00000000020221201000002400NNE   20220818121316    1N0N  00000240000000686400000901432CC    BIYABCBU005500360039
BI00B32CC    #CTA32122      202209087283-8226-30             CONNECTOR                CCN000034000000034000FN00000000020221201000034000NNE   20220818121316    2N0N  00000200000000820000001008032CC    BIYABCBU005400370024
BI00B32CC    #CTA32122      202209087282-6457-40             CONNECTOR                CCN000000800000000800FN00000000020221201000000800NNE   20220818121316    2N0N  00000080000001137000001421332CC    BIYABCBU005600390040
BI00B32CG    S220636-S      202209217283-9457-3W             CONNECTOR                CCN000006120000006120FN00000000020220901000006120NNED0020220818172719    4N0N  00000012000000515000001067032CG    ASASIACO005600390023
BI00B32CG    S220636-S      202209217283-9458-30             CONNECTOR                CCN000007000000007000FN00000000020220901000007000NNED0020220818172719    4N0N  00000020000000792000000984332CG    ASASIACO005600390023
BI00A32CG    S220636-S      202208247116-4121-02             TERMINAL                 CCN000027000000027000FN00000000020220901000027000NNEM0020220818172302    4P0P  00000450000000618800000912432CG    ASASIACO006400630015
BI00A32CG    S220636-S      202208247116-4111-02             TERMINAL                 CCN000015000000015000FN00000000020220901000015000NNEM0020220818172302    4P0P  00000750000000529500000817732CG    ASASIACO006400630015
BI00B32CH    SJ22102 MW     202208257116-2640                TERMINAL                 CCN000018000000018000FN00000000020221001000018000NNMD0020220818140341    4P0P  00001800000001018800001196632CH    SJSAMIJF005100280028
BI00B32DE    TCT210B        202209087283-4576-30             HOUSING FEMALE ASS'Y     CCN000004800000004800FN00000000020221001000004800NNE   20220818121316    4N0N  00000480000000651300000871332DE    TVYEV-TV005500360039
BI00B32DE    TCT210B        202209087283-5092                CONNECTOR HOUSING        CCN000001600000001600FN00000000020221001000001600NNE   20220818121316    4N0N  00000160000000856000001126732DE    TVYEV-TV005500360039
BI00B32DE    TCT210B        202209087283-5846                HOUSING                  CCN000001500000001500FN00000000020221001000001500NNE   20220818121316    1N0N  00000150000000885000001102032DE    TVYEV-TV005600390040
BI00A32DJ    #GHT2210H      202208227189-3031-30             HOUSING FEMALE           CCN000002400000002400FN00000000020221001000002400NNE   20220818132917    2F0F  00000240000000928800001365832DJ    RBYIPLRB005500360039
BI00A32DJ    #GHT2210H      202208227116-4021                TERMINAL                 CCN000027000000027000FN00000000020221001000027000NNE   20220818132917    2F0P  00001350000000534600000868832DJ    RBYIPLRB006400630015
BI00B32D4    4513523776     202209077158-3166-60             WIRE SEAL                CCN000040000000040000FN00000000020220901000040000NNM   20220818121316    1C0C  00004000000000104000000152432D4    YRYRL   002700430014
BI00B32D4    #4513523776    202209077047-5344                RETAINER                 CCN000020000000020000FN00000000020220901000020000NNM   20220818121316    2F0F  00001000000000870000001016032D4    YRYRL   005600390023
BI00B32D9    4513523776     202209077158-3166-60             WIRE SEAL                CCN000040000000000000FY00000000020220901000000000NNMQ0820220818083325    1C0C  00004000000000104000000152432D9    UEHESTO 002700430014
BI00B32D9    #4513523776    202209077047-5344                RETAINER                 CCN000020000000000000FY00000000020220901000000000NNMQ0820220818083342    2F0F  00001000000000870000001016032D9    UEHESTO 005600390023
BI00B32EJ    T220817P01     202209157116-4025                TERMINAL                 CCN000016000000016000FN00000000020220901000016000NNE   20220818121316EJ  4P0P  00001600000000644800000975132EJ    EJYKBO  006400630017
BI00B32EJ    T220817P01     202209157116-4102-02             TERMINAL                 CCN000012000000012000FN00000000020220901000012000NNE   20220818121316EJ  4P0P  00001200000000553200000841432EJ    EJYKBO  006400630015
BI00B32EJ    T220817P01     202209157283-1968-30             CONNECTOR                CCN000000900000000900FN00000000020220901000000900NNE   20220818121316EJ  1N0N  00000090000001140000001318332EJ    EJYKBO  005600390040
BI00B32EJ    T220817P01     202209157116-4124-02             TERMINAL                 CCN000012000000012000FN00000000020220901000012000NNE   20220818121316EJ  4P0P  00000300000000459900000753532EJ    EJYKBO  006400630015
BI00B32EJ    T220817P01     202209157114-4112-02             TERMINAL                 CCN000009000000009000FN00000000020220901000009000NNE   20220818121316EJ  4P0P  00000900000000598500000927132EJ    EJYKBO  006400630017
BI00B32EJ    T220817P01     202209157116-4122-02             TERMINAL                 CCN000013500000013500FN00000000020220901000013500NNE   20220818121316EJ  4P0P  00000450000000656600000950232EJ    EJYKBO  006400630015
BI00B32EJ    T220817P01     202209157116-4121-02             TERMINAL                 CCN000013500000013500FN00000000020220901000013500NNE   20220818121316EJ  4P0P  00000450000000618800000912432EJ    EJYKBO  006400630015
BI00B32EJ    T220817P01     202209157116-4112-02             TERMINAL                 CCN000018000000018000FN00000000020220901000018000NNE   20220818121316EJ  4P0P  00000600000000450000000738232EJ    EJYKBO  006400630015
BI00B32EJ    T220817P01     202209157116-4110-02             TERMINAL                 CCN000009000000009000FN00000000020220901000009000NNE   20220818121316EJ  4P0P  00000900000000594000000882232EJ    EJYKBO  006400630015
BI00B32EJ    T220817P01     202209157116-4111-02             TERMINAL                 CCN000030000000030000FN00000000020220901000030000NNE   20220818121316EJ  4P0P  00000750000000529500000817732EJ    EJYKBO  006400630015
BI00B32EJ    T220817P01     202209157126-8854-02             TERMINAL                 CCN000007500000007500FN00000000020220901000007500NNE   20220818121316EJ  4P0P  00000750000000604500000889732EJ    EJYKBO  006400630015
BI00B32EJ    T220817P01     202209157116-4022                TERMINAL                 CCN000013500000013500FN00000000020220901000013500NNE   20220818121316EJ  4P0P  00001350000000618300000903532EJ    EJYKBO  006400630015
BI00B32EJ    T220817P01     202209157158-3166-60             WIRE SEAL                CCN000600000000600000FN00000000020220901000600000NNE   20220818121316EJ  1C0C  00004000000000104000000152432EJ    EJYKBO  002700430014
BI00B32EJ    T220817P01     202209157158-3167-80             WIRE SEAL                CCN000360000000360000FN00000000020220901000360000NNE   20220818121316EJ  1C0C  00002000000000048000000109032EJ    EJYKBO  002700430014
BI00B32EJ    T220817P01     202209157158-3168-80             SEALED                   CCN000020000000020000FN00000000020220901000020000NNE   20220818121316EJ  1C0C  00002000000000044000000092132EJ    EJYKBO  004300260014
BI00B32EJ    T220817P01     202209157158-3169-40             SEALING PLUG             CCN000320000000320000FN00000000020220901000320000NNE   20220818121316EJ  1C0C  00004000000000156000000204132EJ    EJYKBO  004300260014
BI00B32EJ    T220817P01     202209157158-3167-61             WIRE SEAL                CCN000040000000040000FN00000000020220901000040000NNE   20220818121316EJ  1C0C  00002000000000048000000096432EJ    EJYKBO  004300270014
BI00B32EJ    #T220817P01    202209157158-3120-90             CONNECTOR WIRE SEAL      CCN000060000000060000FN00000000020220901000060000NNE   20220818121316EJ  2C0C  00002000000000136000000194032EJ    EJYKBO  002700430014
BI00B32EJ    #T220817P01    202209157123-6423-30             CONNECTOR                CCN000004000000004000FN00000000020220901000004000NNE   20220818121316EJ  2F0F  00000200000001002000001167632EJ    EJYKBO  005600390023
BI00B32EJ    #T220817P01    202209157282-6458-40             CONNECTOR                CCN000002000000002000FN00000000020220901000002000NNE   20220818121316EJ  2N0N  00000100000001206000001350532EJ    EJYKBO  005500360039
BI00B32EJ    #T220817P01    202209157157-3952-80             RUBBER STOPPER           CCN000010000000010000FN00000000020220901000010000NNE   20220818121316EJ  2C0C  00001000000000117000000175032EJ    EJYKBO  002700430014
BI00B32GE    DHTC2246       202209227017-1180-02             TERMINAL                 CCN000072000000072000FN00000000020221101000072000NNM   20220818121316    4P0P  00007200000001065600001229032GE    GEYKHT  005100280028
BI00B32GE    DHTC2246       202209227114-4624-02             TERMINAL                 CCN000024000000024000FN00000000020221101000024000NNM   20220818121316    4P0P  00002400000000895200001188832GE    GEYKHT  006400630015
BI00B32GE    DHTC2246       202209227114-5748-02             TERMINAL                 CCN000096000000096000FN00000000020221101000096000NNM   20220818121316    4P0P  00001200000000444000000737632GE    GEYKHT  006400630015
BI00B32GE    DHTC2246       202209227114-5753-02             TERMINAL                 CCN000216000000216000FN00000000020221101000216000NNM   20220818121316    4P0P  00002700000000847800001141432GE    GEYKHT  006400630015
BI00B32GE    DHTC2246       202209227116-1685-02             TERMINAL                 CCN000048000000048000FN00000000020221101000048000NNM   20220818121316    4P0P  00002400000000897600001065232GE    GEYKHT  005100280028
BI00B32GE    DHTC2246       202209227116-2891-02             TERMINAL                 CCN000120000000120000FN00000000020221101000120000NNM   20220818121316    4P0P  00001500000000982500001145932GE    GEYKHT  005100280028
BI00B32GE    DHTC2246       202209227116-4100-02             TERMINAL                 CCN000022800000030000FN00000000020221101000030000NNM   20220818121316    4P0P  00001500000000696000000990232GE    GEYKHT  006400630015
BI00B32GE    DHTC2246       202209227116-4101-02             TERMINAL                 CCN000019600000024000FN00000000020221101000024000NNM   20220818121316    4P0P  00001200000000582000000876232GE    GEYKHT  006400630015
BI00B32GE    DHTC2246       202209227116-4110-02             TERMINAL                 CCN000045000000045000FN00000000020221101000045000NNM   20220818121316    4P0P  00000900000000594000000882232GE    GEYKHT  006400630015
BI00B32GE    DHTC2246       202209227116-4111-02             TERMINAL                 CCN000060000000060000FN00000000020221101000060000NNM   20220818121316    4P0P  00000750000000529500000817732GE    GEYKHT  006400630015
BI00B32GE    DHTC2246       202209227116-4112-02             TERMINAL                 CCN000075000000078000FN00000000020221101000078000NNM   20220818121316    4P0P  00000600000000450000000738232GE    GEYKHT  006400630015
BI00B32GE    DHTC2246       202209227116-4486-02             TERMINAL                 CCN000196000000196000FN00000000020221101000196000NNM   20220818121316    4P0P  00002800000000666400000995132GE    GEYKHT  006400630017
BI00B32GE    DHTC2246       202209227116-5045-02             TERMINAL                 CCN000112000000112000FN00000000020221101000112000NNM   20220818121316    4P0P  00001600000000678400001007132GE    GEYKHT  006400630017
BI00B32GE    DHTC2246       202209227126-8853-02             TERMINAL                 CCN000135000000135000FN00000000020221101000135000NNM   20220818121316    4P0P  00000750000000562500000847732GE    GEYKHT  006400630015
BI00B32GE    DHTC2246       202209227126-8854-02             TERMINAL                 CCN000135000000135000FN00000000020221101000135000NNM   20220818121316    4P0P  00000750000000604500000889732GE    GEYKHT  006400630015
BI00B32GE    DHTC2246       202209227126-8855-02             TERMINAL                 CCN000144000000144000FN00000000020221101000144000NNM   20220818121316    4P0P  00000600000000510600000795832GE    GEYKHT  006400630015
BI00B32GE    DHTC2246       202209227158-3070-80             RUBBER STOPPER           CCN000120000000120000FN00000000020221101000120000NNM   20220818121316    1C0C  00004000000000276000000333332GE    GEYKHT  002700430014
BI00B32GE    DHTC2246       202209227158-3166-60             WIRE SEAL                CCN000080000000080000FN00000000020221101000080000NNM   20220818121316    1C0C  00004000000000104000000152432GE    GEYKHT  002700430014
BI00B32GE    DHTC2246       202209227158-3167-80             WIRE SEAL                CCN000080000000080000FN00000000020221101000080000NNM   20220818121316    1C0C  00002000000000048000000109032GE    GEYKHT  002700430014
BI00B32GE    DHTC2246       202209227173-3291-40             LIF LEVER                CCN000004800000004800FN00000000020221101000004800NNM   20220818121316    1F0F  00000240000000867800001067832GE    GEYKHT  005500360039
BI00B32GE    DHTC2246       202209227196-0396-02             TERMINAL                 CCN000015000000015000FN00000000020221101000015000NNM   20220818121316    4P0P  00001500000000949500001112932GE    GEYKHT  002800510028
BI00B32GE    DHTC2246       202209227196-0510-02             TERMINAL                 CCN000024000000024000FN00000000020221101000024000NNM   20220818121316    4P0P  00002400000000871200001034632GE    GEYKHT  002800510028
BI00B32GE    DHTC2246       202209227196-1325-02             TERMINAL FEMALE          CCN000180000000180000FN00000000020221101000180000NNM   20220818121316    4P0P  00006000000000450000000778732GE    GEYKHT  006400630017
BI00B32GE    DHTC2246       202209227196-1326-02             TERMINAL FEMALE          CCN000360000000360000FN00000000020221101000360000NNM   20220818121316    4P0P  00006000000000456000000784732GE    GEYKHT  006400630017
BI00B32GE    DHTC2246       202209227196-1327-02             TERMINAL FEMALE          CCN000052000000052000FN00000000020221101000052000NNM   20220818121316    4P0P  00005200000000336000000739532GE    GEYKHT  006400630017
BI00B32GE    DHTC2246       202209227282-4576                HOUSING MALE ASS'Y       CCN000002400000002400FN00000000020221101000002400NNM   20220818121316    4N0N  00000240000000808800001028832GE    GEYKHT  005500360039
BI00B32GE    DHTC2246       202209227283-1156                CONNECTOR                CCN000006400000006400FN00000000020221101000006400NNM   20220818121316    4N0N  00000080000000877600001078032GE    GEYKHT  005600390040
BI00B32GE    DHTC2246       202209227283-5830                CONNECTOR                CCN000006000000006000FN00000000020221101000006000NNM   20220818121316    1N47  00000600000000954000001104032GE    GEYKHT  005500360039
BI00B32GE    DHTC2246       202209227288-6547                CONNECTOR MALE ASS'Y     CCN000009750000009750FN00000000020221101000009750NNM   20220818121316    4N0N  00000075000001205300001340332GE    GEYKHT  005400370024
BI00B32GE    DHTC2246       202209227289-3342                HOUSING FEMALE ASS'Y     CCN000040800000040800FN00000000020221101000040800NNM   20220818121316    1N0N  00000240000000686400000901432GE    GEYKHT  005500360039
BI00B32GE    DHTC2246       202209227289-3342-30             HOUSING FEMALE ASS'Y     CCN000088800000088800FN00000000020221101000088800NNM   20220818121316    1N0N  00000240000000686400000901432GE    GEYKHT  005500360039
BI00B32GE    DHTC2246       202209227289-3342-40             HOUSING FEMALE ASS'Y     CCN000007200000007200FN00000000020221101000007200NNM   20220818121316    1N0N  00000240000000686400000901432GE    GEYKHT  005500360039
BI00B32GE    DHTC2246       202209227289-3342-90             HOUSING FEMALE ASS'Y     CCN000016800000016800FN00000000020221101000016800NNM   20220818121316    1N0N  00000240000000686400000901432GE    GEYKHT  005500360039
BI00B32GE    DHTC2246       202209227289-6518-30             HOUSING FEMALE ASS'Y     CCN000002400000002400FN00000000020221101000002400NNM   20220818121316    1N0N  00000120000000829200001049232GE    GEYKHT  005500360039
BI00B32GE    DHTC2246       202209227289-6547                HOUSING FEMALE ASS'Y     CCN000007200000007200FN00000000020221101000007200NNM   20220818121316    1N0N  00000240000001152000001362032GE    GEYKHT  005500360039
BI00B32GE    DHTC2246       202209227296-0784-02             TERMINAL ALUMINIUM       CCN000072000000072000FN00000000020221101000072000NNM   20220818121316    4P0P  00002400000000480000000765232GE    GEYKHT  006400630015
BI00B32GE    DHTC2246       202209227296-1024-02             TERMINAL ALUMINIUM       CCN000018000000018000FN00000000020221101000018000NNM   20220818121316    4P0P  00001800000000698400000983632GE    GEYKHT  006400630015
BI00B32GE    DHTC2246       202209227297-3482                JOINT CONNECTOR          CCN000032400000032800FN00000000020221101000032800NNM   20220818121316    4N0N  00000080000000621000000730532GE    GEYKHT  005400370024
BI00B32GE    DHTC2246       202209227298-3484                HOUSING FEMALE ASS'Y     CCN000008400000010800FN00000000020221101000010800NNM   20220818121316    4N0N  00000270000000742500001028732GE    GEYKHT  005400370024
BI00B32GE    DHTC2246       202209227298-3484-30             HOUSING FEMALE ASS'Y     CCN000004200000005400FN00000000020221101000005400NNM   20220818121316    4N0N  00000270000000742500001028732GE    GEYKHT  005400370024
BI00B32GE    DHTC2246       202209227327-6731-3W             BATTERY FUSE             CCN000001728000001728FN00000000020221101000001728NNM   20220818121316    4N0N  00000006400000697600000843032GE    GEYKHT  005400370024
BI00B32GE    DHTC2246       202209227327-6801-3W             BATTERY FUSE             CCN000002016000002016FN00000000020221101000002016NNM   20220818121316    4N0N  00000009600000928400001143432GE    GEYKHT  005500360039
BI00B32GE    DHTC2246       202209227327-6806                MULTI FUSE               CCN000001680000001680FN00000000020221101000001680NNM   20220818121316    4N0N  00000056000000851500001063932GE    GEYKHT  005400370024
BI00B32GE    DHTC2246       202209227327-6809                MULTI FUSE               CCN000001680000001680FN00000000020221101000001680NNM   20220818121316    4N0N  00000056000000849300001061732GE    GEYKHT  005400370024
BI00B32GE    DHTC2246       202209227327-6930                MULTI FUSE               CCN000002240000002240FN00000000020221101000002240NNM   20220818121316    4N0N  00000056000000848900001031932GE    GEYKHT  005400370024
BI00B32GE    DHTC2246       202209227327-6990-30             MULTI FUSE               CCN000000560000000560FN00000000020221101000000560NNM   20220818121316    4NON  00000056000000724000000907032GE    GEYKHT  005400370024
BI00B32GE    DHTC2246       202209227388-2978-30             HOUSING MALE ASS'Y       CCN000021600000021600FN00000000020221101000021600NNM   20220818121316    1N0N  00000048000000742000001122032GE    GEYKHT  005500360039
BI00B32GE    #DHTC2246      202209227047-5344                RETAINER                 CCN000010000000010000FN00000000020221101000010000NNM   20220818121316    2F0F  00001000000000870000001016032GE    GEYKHT  005600390023
BI00B32GE    #DHTC2246      202209227158-3003-90             RUBBER STOPPER           CCN000260000000260000FN00000000020221101000260000NNM   20220818121316    2C0C  00002000000000250000000306032GE    GEYKHT  002700430014
BI00B32GE    #DHTC2246      202209227158-3004-40             RUBBER STOPPER           CCN000020000000020000FN00000000020221101000020000NNM   20220818121316    2C0C  00002000000000234000000306332GE    GEYKHT  002700430014
BI00B32GE    #DHTC2246      202209227158-3005-80             RUBBER STOPPER           CCN000080000000080000FN00000000020221101000080000NNM   20220818121316    2H0H  00002000000000210000000268732GE    GEYKHT  002700430014
BI00B32GE    #DHTC2246      202209227158-3008-80             RUBBER STOPPER           CCN000120000000120000FN00000000020221101000120000NNM   20220818121316    2C0C  00002000000000288000000343032GE    GEYKHT  004300270014
BI00B32GE    #DHTC2246      202209227158-3015-10             RUBBER STOPPER           CCN000010000000010000FN00000000020221101000010000NNM   20220818121316    2C0C  00001000000000419500000474032GE    GEYKHT  002700430014
BI00B32GE    #DHTC2246      202209227158-3017                RUBBER STOPPER           CCN000060000000060000FN00000000020221101000060000NNM   20220818121316    2C0C  00001000000000375500000435032GE    GEYKHT  002700430014
BI00B32GE    #DHTC2246      202209227172-5629-80             RUBBER STOPPER           CCN000140000000140000FN00000000020221101000140000NNM   20220818121316    2H0H  00002000000000060000000111132GE    GEYKHT  004300270014
BI00B32GE    #DHTC2246      202209227172-5630-40             RUBBER STOPPER           CCN000240000000240000FN00000000020221101000240000NNM   20220818121316    2H0H  00002000000000044000000095132GE    GEYKHT  004300270014
BI00B32GE    #DHTC2246      202209227172-5631-60             RUBBER STOPPER           CCN000100000000100000FN00000000020221101000100000NNM   20220818121316    2H0H  00002000000000042000000093132GE    GEYKHT  004300270014
BI00B32GE    #DHTC2246      202209227172-5632-10             DUMMY PLUG               CCN000140000000140000FN00000000020221101000140000NNM   20220818121316    2H0H  00002000000000080400000131832GE    GEYKHT  004300270014
BI00B32GE    #DHTC2246      202209227183-2418-30             CONNECTOR HOUSING        CCN000004800000004800FN00000000020221101000004800NNM   20220818121316    2F0F  00000480000000917000001235332GE    GEYKHT  005500360039
BI00B32GE    #DHTC2246      202209227183-2511                HOUSING                  CCN000001600000001600FN00000000020221101000001600NNM   20220818121316    2F0F  00000160000000972200001242132GE    GEYKHT  005500360039
BI00B32GE    #DHTC2246      202209227189-2978-30             HOUSING FEMALE           CCN000022500000022500FN00000000020221101000022500NNM   20220818121316    2F0F  00000150000000966900001096932GE    GEYKHT  005400370024
BI00B32GE    #DHTC2246      202209227189-3033                HOUSING FEMALE           CCN000011200000011200FN00000000020221101000011200NNM   20220818121316    2F0F  00000160000001211200001431232GE    GEYKHT  005500360039
BI00B32GE    #DHTC2246      202209227189-3036                HOUSING FEMALE           CCN000001600000001600FN00000000020221101000001600NNM   20220818121316    2F0F  00000160000000921600001141632GE    GEYKHT  005500360039
BI00B32GE    #DHTC2246      202209227198-5394                HOUSING FEMALE           CCN000004800000004800FN00000000020221101000004800NNM   20220818121316    2F0F  00000480000000489700000688832GE    GEYKHT  005500360039
BI00B32GE    #DHTC2246      202209227282-1641                CONNECTOR                CCN000008000000008000FN00000000020221101000008000NNM   20220818121316    2N0N  00000200000000813000000986032GE    GEYKHT  005500360039
BI00B32GE    #DHTC2246      202209227282-7424                CONNECTOR                CCN000004000000004000FN00000000020221101000004000NNM   20220818121316    2N0N  00000400000001064000001243032GE    GEYKHT  005500360039
BI00B32GE    #DHTC2246      202209227283-8226-30             CONNECTOR                CCN000004000000004000FN00000000020221101000004000NNM   20220818121316    2N0N  00000200000000820000001008032GE    GEYKHT  005400370024
BI00B32GE    #DHTC2246      202209227289-2912-40             HOUSING FEMALE ASS'Y     CCN000004000000004000FN00000000020221101000004000NNM   20220818121316    2N0N  00000200000000804000000931032GE    GEYKHT  005400370024
BI00B32GE    #DHTC2246      202209227289-3622-30             HOUSING FEMALE ASS'Y     CCN000003888000003888FN00000000020221101000003888NNM   20220818121316    2N0N  00000043200000839400001038432GE    GEYKHT  005400370024
BI00B32GE    #DHTC2246      202209227289-4200-30             HOUSING FEMALE ASS'Y     CCN000006000000006000FN00000000020221101000006000NNM   20220818121316    2N0N  00000200000000926000001021032GE    GEYKHT  005400370024
BI00B32H2    TIJ2105        202209167017-1180-02             TERMINAL                 CCN000144000000072000FN00000000020221001000072000NNMD0020220818173443    4P0P  00007200000001065600001229032H2    HVYHV   005100280028
BI00B32H2    TIJ2105        202209307116-2891-02             TERMINAL                 CCN000030000000015000FN00000000020221001000015000NNMD0020220818173359    4P0P  00001500000000982500001145932H2    HVYHV   005100280028
BI00B32H2    TIJ2105        202209307196-1020-02             TERMINAL ALUMINIUM       CCN000023700000023700FN00000000020221001000023700NNMD0020220818173516    4P0P  00002370000000722900001008132H2    HVYHV   006400630015
BI00B32H2    TIJ2105        202209307196-1024-02             TERMINAL ALUMINIUM       CCN000018900000018900FN00000000020221001000018900NNMD0020220818173544    4P0P  00001890000000718200001003432H2    HVYHV   006400630015
BI00B32H2    TIJK210A       202209097114-4020                TERMINAL                 CCN000189000000189000FN00000000020221001000189000NNE   20220818121316    4P0P  00002100000000875700001169332H2    HVYHV   006400630015
BI00B32H2    TIJK210A       202209097116-4020                TERMINAL                 CCN000040500000040500FN00000000020221001000040500NNE   20220818121316    4P0P  00001350000000513000000798232H2    HVYHV   006400630015
BI00B32H2    TIJ2105        202210077116-2891-02             TERMINAL                 CCN000015000000015000FN00000000020221001000015000NNMD0020220818173359    4P0P  00001500000000982500001145932H2    HVYHV   005100280028
BI00B32H2    TIJ2105        202210077017-1180-02             TERMINAL                 CCN000072000000072000FN00000000020221001000072000NNMD0020220818173443    4P0P  00007200000001065600001229032H2    HVYHV   005100280028
BI00A32N1    NST2121HCU     202208177288-3335-30             HOUSING MALE             CCN000004500000004500FY00000450020220801000000000NNE00020220818111603    4N0N  00000150000000867000001012032N1    TAYIPL  005400370024
BI00B32Q8    QA-22-S023     202208247158-3167-61             WIRE SEAL                PNY000012000000012000FN00000000020220801000012000NNEQ0020220818121316    1C0C  00002000000000048000000096432Q8    EMEMI   004300270014
BI00B32R4    HZYME2209007   202209017140-4523-02             TERMINAL                 CCN000020000000020000FN00000000020220901000020000NNE   20220818150722    4P0P  00001000000001024000001309432R4    HZHZYME 004900490015
BI00B32R4    HZYME2209007   202209017140-4522-02             TERMINAL                 CCN000088000000088000FN00000000020220901000088000NNE   20220818150722    4P0P  00002200000001760000002000432R4    HZHZYME 005000520015
BI00B32R4    HZYME2209007   202209017140-4524-02             TERMINAL                 CCN000080000000080000FN00000000020220901000080000NNE   20220818150722    4P0P  00002000000001556000001849832R4    HZHZYME 005000520015
BI00B32R4    HZYME2209007   202209017140-4521-02             TERMINAL                 CCN000110000000110000FN00000000020220901000110000NNE   20220818150722    4P0P  00002200000001735800001976232R4    HZHZYME 005000520015
BI00B32R4    HZYME2209007   202209017140-4528-02             TERMINAL                 CCN000020000000020000FN00000000020220901000020000NNE   20220818150722    4P0P  00002000000001268000001549632R4    HZHZYME 005000520015
BI00B32R4    HZYME2209007   202209017140-4526-02             TERMINAL                 CCN000192000000192000FN00000000020220901000192000NNE   20220818150722    4P0P  00002400000001488000001728432R4    HZHZYME 005000520015
BI00B32R4    HZYME2209007   202209017140-4520-02             TERMINAL                 CCN000060000000060000FN00000000020220901000060000NNE   20220818150722    4P0P  00002000000001134000001364632R4    HZHZYME 005000520015
BI00B32R4    HZYME2209007   202209017140-4527-02             TERMINAL                 CCN000060000000060000FN00000000020220901000060000NNE   20220818150722    4P0P  00002000000000870000001118832R4    HZHZYME 005000520015
BI00B32R4    HZYME2209007   202209017140-4525-02             TERMINAL                 CCN000120000000120000FN00000000020220901000120000NNE   20220818150722    4P0P  00002400000001084800001279632R4    HZHZYME 005000520015
BI00B32R7    R-TAP220343    202209157289-9553-50             SEALED ASSY FEMALE       CCN000041160000041160FN00000000020220901000041160NNED0420220818143612    4N0N  00000294000001108100001520632R7    IVYCIC  005500360039
BI00B32W4    #4500195214    202208257147-3642-30             CLIP                     CCN000078000000048000FN00000000020220801000048000NNED0420220818144202W4172F0F  00000300000000542000000721332W417  HJYHK   005600390040
BI00B32W4    4500195633     202208177158-3167-80             WIRE SEAL                CCN000600000000600000FY00060000020220801000000000NNE00020220818111350W4651C0C  00002000000000048000000109032W465  HJYHK   002700430014
BI00B32W4    4500195633     202208177158-3169-40             SEALING PLUG             CCN000200000000200000FY00020000020220801000000000NNE00020220818111350W4651C0C  00004000000000156000000204132W465  HJYHK   004300260014
BI00B32W4    4500195598     202208177158-3166-60             WIRE SEAL                CCN000080000000080000FY00008000020220801000000000NNE00020220818111407W4461C0C  00004000000000104000000152432W446  HJYHK   002700430014
BI00B32W4    4500196372     202208177116-4100-02             TERMINAL                 CCN000015000000015000FY00001500020220801000000000NNE00020220818111503W4N24P0P  00001500000000696000000990232W4N2  HJYHK-J 006400630015
BI00B32W4    4500196372     202208177116-4112-02             TERMINAL                 CCN000018000000018000FY00001800020220801000000000NNE00020220818111508W4N24P0P  00000600000000450000000738232W4N2  HJYHK-J 006400630015
BI00B32W4    4500196372     202208177116-4102-02             TERMINAL                 CCN000084000000084000FY00008400020220801000000000NNE00020220818111503W4N24P0P  00001200000000553200000841432W4N2  HJYHK-J 006400630015
BI00A32W4    4500196372     202208187114-4100-02             TERMINAL                 CCN000036000000036000FY00003600020220801000000000NNE00020220818150110W4N24P0P  00001800000000748800001077432W4N2  HJYHK-J 006400630017
BI00B32W4    4500196785     202208177158-3165-90             WIRE SEAL                CCN000040000000040000FY00004000020220801000000000NNE00020220818111527W4N21C0C  00004000000000124000000172432W4N2  HJYHK-J 004300270014
BI00A32W4    4500198788     202210177116-4100-02             TERMINAL                 CCN000015000000015000FN00000000020221001000015000NNE   20220818121316W4O24P0P  00001500000000696000000990232W4O2  HJYHK-J 006400630015
BI00A32W4    4500198788     202210177116-4112-02             TERMINAL                 CCN000006000000006000FN00000000020221001000006000NNE   20220818121316W4O24P0P  00000600000000450000000738232W4O2  HJYHK-J 006400630015
BI00A32W4    4500198788     202210177116-4231-02             TERMINAL                 CCN000026000000026000FN00000000020221001000026000NNE   20220818121316W4O24P0P  00002600000000683800001012532W4O2  HJYHK-J 006400630017
BI00A32W4    4500198788     202210177158-3166-60             WIRE SEAL                CCN000040000000040000FN00000000020221001000040000NNE   20220818121316W4O21C0C  00004000000000104000000152432W4O2  HJYHK-J 002700430014
BI00A32W4    4500198788     202210177116-4101-02             TERMINAL                 CCN000024000000024000FN00000000020221001000024000NNE   20220818121316W4O24P0P  00001200000000582000000876232W4O2  HJYHK-J 006400630015
BI00A32W4    4500198788     202210177116-2870                TERMINAL                 CCN000012000000012000FN00000000020221001000012000NNE   20220818121316W4O21P0P  00001200000000783600001020232W4O2  HJYHK-J 005100280028
BI00A32W4    4500198790     202211037158-3169-40             SEALING PLUG             CCN000040000000040000FN00000000020221101000040000NNE   20220818121316W4D31C0C  00004000000000156000000204132W4D3  HJYHK-J 004300260014
BI00A32W4    4500198797     202210177158-3167-80             WIRE SEAL                CCN000080000000080000FN00000000020221001000080000NNE   20220818121316W4G91C0C  00002000000000048000000109032W4G9  HJYHK-J 002700430014
BI00A32W4    4500198799     202210177158-3167-80             WIRE SEAL                CCN000040000000040000FN00000000020221001000040000NNE   20220818121316W4P61C0C  00002000000000048000000109032W4P6  HJYHK-J 002700430014
BI00A32W4    4500198799     202210177158-3169-40             SEALING PLUG             CCN000040000000040000FN00000000020221001000040000NNE   20220818121316W4P61C0C  00004000000000156000000204132W4P6  HJYHK-J 004300260014
BI00B32W4    4500198812     202210207116-4102-02             TERMINAL                 CCN000228000000228000FN00000000020221001000228000NNE   20220818121316W4664P0P  00001200000000553200000841432W466  HJYHK   006400630015
BI00B32W4    4500198812     202210207114-4100-02             TERMINAL                 CCN000072000000072000FN00000000020221001000072000NNE   20220818121316W4664P0P  00001800000000748800001077432W466  HJYHK   006400630017
BI00B32W4    4500198812     202210207114-4111-02             TERMINAL                 CCN000024000000024000FN00000000020221001000024000NNE   20220818121316W4664P0P  00001200000000758400001087032W466  HJYHK   006400630017
BI00B32W4    4500198812     202210207116-4101-02             TERMINAL                 CCN000096000000096000FN00000000020221001000096000NNE   20220818121316W4664P0P  00001200000000582000000876232W466  HJYHK   006400630015
BI00B32W4    4500198812     202210207114-4101-02             TERMINAL                 CCN000030000000030000FN00000000020221001000030000NNE   20220818121316W4664P0P  00001500000000675000001003632W466  HJYHK   006400630017
BI00B32W4    4500198812     202210207116-4104-02             TERMINAL                 CCN000048000000048000FN00000000020221001000048000NNE   20220818121316W4664P0P  00001200000000580800000972432W466  HJYHK   006400630015
BI00B32W4    4500198812     202210207114-4110-02             TERMINAL                 CCN000015000000015000FN00000000020221001000015000NNE   20220818121316W4664P0P  00001500000000901500001230132W466  HJYHK   006400630017
BI00B32W4    4500198812     202210207116-4110-02             TERMINAL                 CCN000036000000036000FN00000000020221001000036000NNE   20220818121316W4664P0P  00000900000000594000000882232W466  HJYHK   006400630015
BI00B32W4    4500198812     202210207114-4112-02             TERMINAL                 CCN000081000000081000FN00000000020221001000081000NNE   20220818121316W4664P0P  00000900000000598500000927132W466  HJYHK   006400630017
BI00B32W4    #4500198812    202210207282-4190-30             CONNECTOR                CCN000002400000002400FN00000000020221001000002400NNE   20220818121316W4662N0N  00000024000000801000001071332W466  HJYHK   005600390040
BI00B32W4    #4500198812    202210207283-4190-30             CONNECTOR                CCN000002400000002400FN00000000020221001000002400NNE   20220818121316W4662N0N  00000024000000846000001115532W466  HJYHK   005600390040
BI00B32W4    4500198816     202209157116-4111-02             TERMINAL                 CCN000022500000022500FN00000000020220901000022500NNE   20220818121316W4P74P0P  00000750000000529500000817732W4P7  HJYHK   006400630015
BI00B32W4    4500198816     202209157158-3167-80             WIRE SEAL                CCN000020000000020000FN00000000020220901000020000NNE   20220818121316W4P71C0C  00002000000000048000000109032W4P7  HJYHK   002700430014
BI00B32W4    4500198819     202209157116-4111-02             TERMINAL                 CCN000037500000037500FN00000000020220901000037500NNE   20220818121316W4P74P0P  00000750000000529500000817732W4P7  HJYHK   006400630015
BI00B32W4    4500198823     202210067116-4111-02             TERMINAL                 CCN000045000000045000FN00000000020221001000045000NNE   20220818121316W4P74P0P  00000750000000529500000817732W4P7  HJYHK   006400630015
BI00B32W4    4500198823     202210067158-3167-80             WIRE SEAL                CCN000020000000020000FN00000000020221001000020000NNE   20220818121316W4P71C0C  00002000000000048000000109032W4P7  HJYHK   002700430014
BI00B32W4    4500198839     202209017470-5237                J/B ASS'Y                CCN000000960000000960FN00000000020220901000000960NNE   20220818121316W4D41J0J  00000002400001320000001570032W4D4  HJYHK-J 005500360039
BI00B32W4    4500198839     202209017289-6868-30             SEALED ASSY FEMALE       CCN000007560000007560FN00000000020220901000007560NNE   20220818121316W4D44N0N  00000252000000839200001119232W4D4  HJYHK-J 005500360039
