BI00B1200    8100T52907     202210277289-6868-30             SEALED ASSY FEMALE       CCN000002520000002520FN00000000020221101000002520NNMD0420220916163558    4N0N  0000025200000083920000111921200    YCYC    005500360039
BI00A1200    #CE22-MN-0109  202209277173-6362                ELEMENT COVER            CCN000005000000005220FN00000000020220901000005220NNED0020220916141745    2F0F  0000026100000000000000000001200    YCYC    000000000000
BI00B1200    H722K50062     202210277289-9553-30             SEALED ASSY FEMALE       CCN000020580000020580FN00000000020221101000020580NNE   20220916121049    4N0N  0000029400000110900000152151200    YCYC    005500360039
BI00B1200    H322L50016     202211247116-4111-02             TERMINAL                 CCN000007500000007500FN00000000020221201000007500NNE   20220916121049    4P0P  0000075000000052950000081771200    YCYC    006400630015
BI00A1200    #WHQ-0614      202209227173-4939-60             LIF LEVER                CCN000000500000000500FN00000000020220901000000500NNE   20220916140129    2F0F  0000005000000058500000062551200    YCYC    005400370024
BI00B32AF    JTB2114        202211047116-4025                TERMINAL                 CCN000016000000000000FY00000000020221101000000000NNMQ0820220916133623    4P0P  00001600000000644800000975132AF    HBYHVTB 006400630017
BI00B32AF    JTB2112        202210217116-4026                TERMINAL                 CCN000016000000000000FY00000000020221101000000000NNMQ0820220916134025    4P0P  00001600000000664000000994332AF    HBYHVTB 006400630017
BI00B32AF    JTB2111        202210177116-4112-02             TERMINAL                 CCN000012000000000000FY00000000020221101000000000NNMQ0820220916134121    4P0P  00000600000000450000000738232AF    HBYHVTB 006400630015
BI00B32AF    JTB2111        202210177196-1934-02             TERMINAL FEMALE          CCN000019500000000000FY00000000020221101000000000NNMQ0820220916133728    4P0P  00001950000000561600000846832AF    HBYHVTB 006400630015
BI00B32AG    XG2211DLMW     202210287298-2278-30             HOUSING FEMALE ASS'Y     CCN000002400000002400FN00000000020221101000002400NNE   20220916121049    4N0N  00000240000001091700001295432AG    XGXGY   005500360039
BI00B32B1    4502226810     202209197158-9150                SHIELD                   CCN000000192000000192FN00000000020221101000000192NNED0020220916165329B1  4F0F  00000019200000332000000652032B1    AXARNE-M005600390040
BI00A32B6    TAPP13C10D     202209207196-1460-02             TERMINAL FEMALE          CCN000024000000028500FN00000000020220901000028500NNED0020220916121049B6  4P0P  00002850000000444600000729832B6    AXARNE-M006400630015
BI00A32B6    TAPP13C10D     202209207196-1461-02             TERMINAL FEMALE          CCN000048000000048000FN00000000020220901000048000NNED0020220916121049B6  4P0P  00002400000000386400000671632B6    AXARNE-M006400630015
BI00B32CG    S220626-G      202209217116-4025                TERMINAL                 CCN000016000000016000FN00000000020220901000016000NNEM0020220916150636    4P0P  00001600000000644800000975132CG    ASASIACO006400630017
BI00A32CH    #QA-22-C078    202209207187-8856                HOUSING FEMALE           PNN000030000000062000FN00000000020220901000062000NNED0020220916121049    2F0F  00000200000000820000000931532CH    SJSAMIJF005400370024
BI00B32CH    SJ2210A MW     202209297283-4576                HOUSING FEMALE ASS'Y     CCN000004800000004800FN00000000020221001000004800NNE   20220916121049    4N0N  00000480000000651300000871332CH    SJSAMIJF005500360039
BI00B32CH    #SJ2210A MW    202209297158-3015-10             RUBBER STOPPER           CCN000020000000020000FN00000000020221001000020000NNE   20220916121049    2C0C  00001000000000419500000474032CH    SJSAMIJF002700430014
BI00B32CH    #SJ2210A MW    202209297183-2418                CONNECTOR HOUSING        CCN000004800000004800FN00000000020221001000004800NNE   20220916121049    2F0F  00000480000000917000001477032CH    SJSAMIJF005500360039
BI00B32CH    SJ2210AHMW     202209297327-6874-30             MULTI FUSE               CCN000001152000001152FN00000000020221001000001152NNE   20220916121049    4N0N  00000028800000991400001157332CH    SJSAMIJF005400370024
BI00B32CH    SJ2210AHMW     202209297327-6937-30             MULTI FUSE               CCN000000288000000288FN00000000020221001000000288NNE   20220916121049    4N0N  00000028800001013600001179532CH    SJSAMIJF005400370024
BI00B32CH    SJ2210AMMW     202209297116-4116-02             TERMINAL                 CCN000006900000006900FN00000000020221001000006900NNE   20220916121049    4P0P  00000690000000517500000805732CH    SJSAMIJF006400630015
BI00B32CH    SJ2210ASMW     202209297289-6868-30             SEALED ASSY FEMALE       CCN000005040000005040FN00000000020221001000005040NNE   20220916121049    4N0N  00000252000000839200001119232CH    SJSAMIJF005500360039
BI00B32CH    SJ2210B MW     202209297114-4020                TERMINAL                 CCN000021000000021000FN00000000020221001000021000NNE   20220916121049    4P0P  00002100000000875700001169332CH    SJSAMIJF006400630015
BI00B32CH    SJ2210DDMW     202209297116-5751-02             TERMINAL                 CCN000012000000012000FN00000000020221001000012000NNE   20220916121049    4P0P  00001200000000379200000664432CH    SJSAMIJF006400630015
BI00B32CH    #SJ2210DDMW    202209297183-0522                HOUSING                  CCN000002400000002400FN00000000020221001000002400NNE   20220916121049    2F0F  00000240000000951000001230032CH    SJSAMIJF005500360039
BI00B32CH    #SJ2210DDMW    202209297289-2913-30             HOUSING FEMALE ASS'Y     CCN000001500000001500FN00000000020221001000001500NNE   20220916121049    2N0N  00000150000000907500001034532CH    SJSAMIJF005400370024
BI00B32CH    #SJ2210DDMW    202209297289-2918-40             HOUSING FEMALE ASS'Y     CCN000005000000005000FN00000000020221001000005000NNE   20220916121049    2N0N  00000100000001020000001147032CH    SJSAMIJF005400370024
BI00B32CJ    #QA-22-C080    202209197287-1915-30             CONNECTOR ASS'Y          PNY000001820000001820FN00000000020220901000001820NNE00020220916151034    2N0N  00000240000000666500000923132CJ    QNYHVQN 005500360039
BI00B32EJ    T220915P01     202210207116-4101-02             TERMINAL                 CCN000024000000024000FN00000000020221001000024000NNE   20220916121049EJ  4P0P  00001200000000582000000876232EJ    EJYKBO  006400630015
BI00B32EJ    T220915P01     202210207222-7564-40             CONNECTOR                CCN000000500000000500FN00000000020221001000000500NNE   20220916121049EJ  1N0N  00000050000000967000001097032EJ    EJYKBO  005500360039
BI00B32EJ    #T220915P01    202210207123-6423-30             CONNECTOR                CCN000010000000010000FN00000000020221001000010000NNE   20220916121049EJ  2F0F  00000200000001002000001167632EJ    EJYKBO  005600390023
BI00B32EJ    #T220915P01    202210207157-3821                RUBBER STOPPER           CCN000020000000020000FN00000000020221001000020000NNE   20220916121049EJ  2C0C  00002000000000176000000238032EJ    EJYKBO  002700430014
BI00B32EJ    T220915P02     202210207114-4100-02             TERMINAL                 CCN000090000000090000FN00000000020221001000090000NNE   20220916121049EJ  4P0P  00001800000000748800001077432EJ    EJYKBO  006400630017
BI00B32EJ    T220915P02     202210207114-4231-02             TERMINAL                 CCN000036000000036000FN00000000020221001000036000NNE   20220916121049EJ  4P0P  00001800000000554400000848032EJ    EJYKBO  006400630015
BI00B32EJ    T220915P02     202210207116-4022                TERMINAL                 CCN000027000000027000FN00000000020221001000027000NNE   20220916121049EJ  4P0P  00001350000000618300000903532EJ    EJYKBO  006400630015
BI00B32EJ    T220915P02     202210207158-3070-80             RUBBER STOPPER           CCN000040000000040000FN00000000020221001000040000NNE   20220916121049EJ  1C0C  00004000000000276000000333332EJ    EJYKBO  002700430014
BI00B32EJ    T220915P02     202210207283-5843                CONNECTOR                CCN000030000000030000FN00000000020221001000030000NNE   20220916121049EJ  1N0N  00000150000000889000001132032EJ    EJYKBO  005600390040
BI00B32EJ    #T220915P02    202210207282-3042-90             CONNECTOR                CCN000009000000009000FN00000000020221001000009000NNE   20220916121049EJ  2N0N  00000090000001418000001584032EJ    EJYKBO  005500360039
BI00B32EJ    @T220915P02    202210207182-6153                CONNECTOR HOUSING        CCN000001500000001500FN00000000020221001000001500NNE   20220916121049EJ  3F0F  00000150000000887000001018032EJ    EJYKBO  005400370024
BI00B32EJ    T220915P03     202210207158-3070-80             RUBBER STOPPER           CCN000080000000080000FN00000000020221001000080000NNE   20220916121049EJ  1C0C  00004000000000276000000333332EJ    EJYKBO  002700430014
BI00B32EJ    T220915P03     202210207283-1968-30             CONNECTOR                CCN000000900000000900FN00000000020221001000000900NNE   20220916121049EJ  1N0N  00000090000001140000001318332EJ    EJYKBO  005600390040
BI00B32EJ    #T220915P03    202210207157-3992-90             CONNECTOR SEALED         CCN000040000000040000FN00000000020221001000040000NNE   20220916121049EJ  2C0C  00004000000000300000000363332EJ    EJYKBO  002700430014
BI00B32EJ    #T220915P03    202210207283-8398-40             CONNECTOR                CCN000053900000053900FN00000000020221001000053900NNE   20220916121049EJ  2N0N  00000154000001007000001171332EJ    EJYKBO  005600390023
BI00B32EJ    #T220915P03    202210207158-3120-90             CONNECTOR WIRE SEAL      CCN000100000000100000FN00000000020221001000100000NNE   20220916121049EJ  2C0C  00002000000000136000000194032EJ    EJYKBO  002700430014
BI00B32EJ    #T220915P03    202210207158-3374-90             CONNECTOR WIRE SEAL      CCN000040000000040000FN00000000020221001000040000NNE   20220916121049EJ  2H0H  00002000000000172000000229332EJ    EJYKBO  002700430014
BI00B32EJ    @T220915P03    202210207183-2510                HOUSING                  CCN000006000000006000FN00000000020221001000006000NNE   20220916121049EJ  3F0F  00000300000001063500001159032EJ    EJYKBO  005400370024
BI00B32EJ    T220915P05     202210207114-4111-02             TERMINAL                 CCN000024000000024000FN00000000020221001000024000NNE   20220916121049EJ  4P0P  00001200000000758400001087032EJ    EJYKBO  006400630017
BI00B32EJ    T220915P06     202210207116-4025                TERMINAL                 CCN000016000000016000FN00000000020221001000016000NNE   20220916121049EJ  4P0P  00001600000000644800000975132EJ    EJYKBO  006400630017
BI00B32EJ    T220915P06     202210207116-4103-02             TERMINAL                 CCN000012000000012000FN00000000020221001000012000NNE   20220916121049EJ  4P0P  00001200000000571200000859432EJ    EJYKBO  006400630015
BI00B32EJ    T220915P06     202210207116-2871                TERMINAL                 CCN000012000000012000FN00000000020221001000012000NNE   20220916121049EJ  1P0P  00001200000000842400001072632EJ    EJYKBO  005100280028
BI00B32EJ    T220915P06     202210207283-1968-30             CONNECTOR                CCN000000900000000900FN00000000020221001000000900NNE   20220916121049EJ  1N0N  00000090000001140000001318332EJ    EJYKBO  005600390040
BI00B32EJ    T220915P06     202210207116-4124-02             TERMINAL                 CCN000006000000006000FN00000000020221001000006000NNE   20220916121049EJ  4P0P  00000300000000459900000753532EJ    EJYKBO  006400630015
BI00B32EJ    T220915P06     202210207196-1461-06             TERMINAL FEMALE          CCN000024000000024000FN00000000020221001000024000NNE   20220916121049EJ  4P0P  00002400000000386400000692932EJ    EJYKBO  006400630015
BI00B32EJ    T220915P06     202210207114-4110-02             TERMINAL                 CCN000015000000015000FN00000000020221001000015000NNE   20220916121049EJ  4P0P  00001500000000901500001230132EJ    EJYKBO  006400630017
BI00B32EJ    T220915P06     202210207116-4100-02             TERMINAL                 CCN000015000000015000FN00000000020221001000015000NNE   20220916121049EJ  4P0P  00001500000000696000000990232EJ    EJYKBO  006400630015
BI00B32EJ    T220915P06     202210207116-4120-02             TERMINAL                 CCN000018000000018000FN00000000020221001000018000NNE   20220916121049EJ  4P0P  00000600000000780000001073632EJ    EJYKBO  006400630015
BI00B32EJ    T220915P06     202210207116-4122-02             TERMINAL                 CCN000031500000031500FN00000000020221001000031500NNE   20220916121049EJ  4P0P  00000450000000656600000950232EJ    EJYKBO  006400630015
BI00B32EJ    T220915P06     202210207116-4121-02             TERMINAL                 CCN000036000000036000FN00000000020221001000036000NNE   20220916121049EJ  4P0P  00000450000000618800000912432EJ    EJYKBO  006400630015
BI00B32EJ    T220915P06     202210207116-4112-02             TERMINAL                 CCN000018000000018000FN00000000020221001000018000NNE   20220916121049EJ  4P0P  00000600000000450000000738232EJ    EJYKBO  006400630015
BI00B32EJ    T220915P06     202210207116-4110-02             TERMINAL                 CCN000009000000009000FN00000000020221001000009000NNE   20220916121049EJ  4P0P  00000900000000594000000882232EJ    EJYKBO  006400630015
BI00B32EJ    T220915P06     202210207126-8854-02             TERMINAL                 CCN000015000000015000FN00000000020221001000015000NNE   20220916121049EJ  4P0P  00000750000000604500000889732EJ    EJYKBO  006400630015
BI00B32EJ    T220915P06     202210207126-8855-02             TERMINAL                 CCN000012000000012000FN00000000020221001000012000NNE   20220916121049EJ  4P0P  00000600000000510600000795832EJ    EJYKBO  006400630015
BI00B32EJ    T220915P06     202210207116-4022                TERMINAL                 CCN000013500000013500FN00000000020221001000013500NNE   20220916121049EJ  4P0P  00001350000000618300000903532EJ    EJYKBO  006400630015
BI00B32EJ    T220915P06     202210207158-3166-60             WIRE SEAL                CCN000680000000680000FN00000000020221001000680000NNE   20220916121049EJ  1C0C  00004000000000104000000152432EJ    EJYKBO  002700430014
BI00B32EJ    T220915P06     202210207158-3167-80             WIRE SEAL                CCN000380000000380000FN00000000020221001000380000NNE   20220916121049EJ  1C0C  00002000000000048000000109032EJ    EJYKBO  002700430014
BI00B32EJ    T220915P06     202210207158-3168-80             SEALED                   CCN000020000000020000FN00000000020221001000020000NNE   20220916121049EJ  1C0C  00002000000000044000000092132EJ    EJYKBO  004300260014
BI00B32EJ    #T220915P06    202210207158-3120-90             CONNECTOR WIRE SEAL      CCN000060000000060000FN00000000020221001000060000NNE   20220916121049EJ  2C0C  00002000000000136000000194032EJ    EJYKBO  002700430014
BI00B32EJ    #T220915P06    202210207123-6423-30             CONNECTOR                CCN000002000000002000FN00000000020221001000002000NNE   20220916121049EJ  2F0F  00000200000001002000001167632EJ    EJYKBO  005600390023
BI00B32EJ    #T220915P06    202210207282-6458-40             CONNECTOR                CCN000003000000003000FN00000000020221001000003000NNE   20220916121049EJ  2N0N  00000100000001206000001350532EJ    EJYKBO  005500360039
BI00B32EJ    @T220915P06    202210207123-4312-80             HOUSING                  CCN000001600000001600FN00000000020221001000001600NNE   20220916121049EJ  3F0F  00000080000000644200000794032EJ    EJYKBO  005500360039
BI00B32EJ    T220915P04     202212017114-4111-02             TERMINAL                 CCN000024000000024000FN00000000020221201000024000NNE   20220916121049EJ  4P0P  00001200000000758400001087032EJ    EJYKBO  006400630017
BI00B32G2    SA2210B MW     202210057017-1181-02             TERMINAL                 CCN000063000000063000FN00000000020221001000063000NNE   20220916121049    4P0P  00006300000001089900001266832G2    AISUAI  005100280028
BI00B32G2    SA2210B MW     202210057114-5748-02             TERMINAL                 CCN000012000000012000FN00000000020221001000012000NNE   20220916121049    4P0P  00001200000000444000000737632G2    AISUAI  006400630015
BI00B32G2    SA2210B MW     202210057116-5043-02             TERMINAL FEMALE          CCN000036000000036000FN00000000020221001000036000NNE   20220916121049    4P0P  00001200000000559200000844432G2    AISUAI  006400630015
BI00B32G2    SA2210B MW     202210057116-5046-02             TERMINAL                 CCN000012000000012000FN00000000020221001000012000NNE   20220916121049    4P0P  00001200000000544800000873532G2    AISUAI  006400630017
BI00B32G2    SA2210B MW     202210057283-1144                CONNECTOR                CCN000002400000002400FN00000000020221001000002400NNE   20220916121049    4N0N  00000240000000602200000866132G2    AISUAI  005500360039
BI00B32G2    SA2210B MW     202210057283-1289                CONNECTOR HOUSING        CCN000001200000001200FN00000000020221001000001200NNE   20220916121049    1N0N  00000060000000676200000817632G2    AISUAI  005400370024
BI00B32G2    SA2210B MW     202210057283-7526-30             CONNECTOR HOUSING        CCN000001960000001960FN00000000020221001000001960NNE   20220916121049    4N0N  00000196000000989800001248632G2    AISUAI  005500360039
BI00B32G2    SA2210B MW     202210057327-6424-4W             BATTERY FUSE             CCN000000096000000096FN00000000020221001000000096NNE   20220916121049    4N0N  00000009600001109500001259632G2    AISUAI  005400370024
BI00B32G2    #SA2210B MW    202210057158-3008-80             RUBBER STOPPER           CCN000020000000020000FN00000000020221001000020000NNE   20220916121049    2C0C  00002000000000288000000343032G2    AISUAI  004300270014
BI00B32G2    #SA2210B MW    202210057182-4941                DOUBLE SIDED             CCN000002000000002000FN00000000020221001000002000NNE   20220916121049    2F0F  00000100000001282000001477032G2    AISUAI  005600390040
BI00B32G2    #SA2210B MW    202210057183-2413-30             CONNECTOR HOUSING        CCN000004800000004800FN00000000020221001000004800NNE   20220916121049    2F0F  00000480000000477600000759532G2    AISUAI  005500360039
BI00B32G2    #SA2210B MW    202210057183-2416                HOUSING                  CCN000002400000002400FN00000000020221001000002400NNE   20220916121049    2F0F  00000240000001495200001771032G2    AISUAI  005500360039
BI00B32G2    #SA2210B MW    202210057183-2416-30             HOUSING                  CCN000002400000002400FN00000000020221001000002400NNE   20220916121049    2F0F  00000240000001495200001770032G2    AISUAI  005500360039
BI00B32G2    @SA2210B MW    202210057187-1769                HOUSING FEMALE           CCN000002000000002000FN00000000020221001000002000NNE   20220916121049    3F0F  00000200000001035800001182032G2    AISUAI  005500360039
BI00B32G2    SA2210BJMW     202210057114-5096-08             TERMINAL                 CCN000030000000030000FN00000000020221001000030000NNE   20220916121049    4P0P  00003000000000498000000792232G2    AISUAI  006400630015
BI00B32G2    SA2210BJMW     202210057116-3153-08             TERMINAL                 CCN000027000000027000FN00000000020221001000027000NNE   20220916121049    4P0P  00002700000000461700000746932G2    AISUAI  006400630015
BI00B32G2    SA2210BJMW     202210057116-5035-02             TERMINAL                 CCN000015000000015000FN00000000020221001000015000NNE   20220916121049    4P0P  00001500000000543000000828232G2    AISUAI  006400630015
BI00B32G2    SA2210BJMW     202210057196-0510-02             TERMINAL                 CCN000024000000024000FN00000000020221001000024000NNE   20220916121049    4P0P  00002400000000871200001034632G2    AISUAI  002800510028
BI00B32G2    SA2210BJMW     202210057196-0511-02             TERMINAL                 CCN000024000000024000FN00000000020221001000024000NNE   20220916121049    4P0P  00002400000000916800001080232G2    AISUAI  002800510028
BI00B32G2    SA2210BJMW     202210057196-1327-02             TERMINAL FEMALE          CCN000052000000052000FN00000000020221001000052000NNE   20220916121049    4P0P  00005200000000336000000739532G2    AISUAI  006400630017
BI00B32G2    SA2210BJMW     202210057282-9391                HOUSING MALE ASS'Y       CCN000001200000001200FN00000000020221001000001200NNE   20220916121049    4N0N  00000120000001017600001237632G2    AISUAI  005500360039
BI00B32G2    SA2210BJMW     202210057286-4097                CONNECTOR MALE ASS'Y     CCN000001600000001600FN00000000020221001000001600NNE   20220916121049    1N0N  00000160000000768000000978032G2    AISUAI  005500360039
BI00B32G2    SA2210BJMW     202210057287-2705                HOUSING FEMALE ASS'Y     CCN000009600000009600FN00000000020221001000009600NNE   20220916121049    1N0N  00000960000000614400000834432G2    AISUAI  005500360039
BI00B32G2    SA2210BJMW     202210057287-7775-40             HOUSING FEMALE ASS'Y     CCN000002000000002000FN00000000020221001000002000NNE   20220916121049    4N0N  00000100000000508000000620532G2    AISUAI  005400370024
BI00B32G2    SA2210BJMW     202210057287-8073                HOUSING FEMALE ASS'Y     CCN000002400000002400FN00000000020221001000002400NNE   20220916121049    1N0N  00000240000001166400001386432G2    AISUAI  005500360039
BI00B32G2    SA2210BJMW     202210057287-8999                HOUSING FEMALE ASS'Y     CCN000004800000004800FN00000000020221001000004800NNE   20220916121049    1N0N  00000480000001228800001448832G2    AISUAI  005500360039
BI00B32G2    SA2210BJMW     202210057287-9234                JOINT CONNECTOR          CCN000009600000009600FN00000000020221001000009600NNE   20220916121049    4N0N  00000960000000893800001184832G2    AISUAI  005500360039
BI00B32G2    SA2210BJMW     202210057287-9323                UNSEALED HOUSING SUB     CCN000002400000002400FN00000000020221001000002400NNE   20220916121049    1N0N  00000240000000537600000690032G2    AISUAI  005600390023
BI00B32G2    SA2210BJMW     202210057288-3206                HOUSING MALE ASS'Y       CCN000002040000002040FN00000000020221001000002040NNE   20220916121049    1N0N  00000102000000387600000787632G2    AISUAI  005500360039
BI00B32G2    SA2210BJMW     202210057386-6939                CONNECTOR MALE ASS'Y     CCN000000900000000900FN00000000020221001000000900NNE   20220916121049    4N0N  00000090000001359900001486432G2    AISUAI  005400370024
BI00B32G2    #SA2210BJMW    202210057154-5597-30             CASSETTE R/B             CCN000004000000004000FN00000000020221001000004000NNE   20220916121049    2F0F  00000080000000736000000952032G2    AISUAI  005500360039
BI00B32G2    #SA2210BJMW    202210057154-5712-30             CASSETTE R/B             CCN000000800000000800FN00000000020221001000000800NNE   20220916121049    2F0F  00000080000000827000001102032G2    AISUAI  005500360039
BI00B32G2    #SA2210BJMW    202210057189-3032                HOUSING FEMALE           CCN000001600000001600FN00000000020221001000001600NNE   20220916121049    2F0F  00000160000000788400001018432G2    AISUAI  005500360039
BI00B32G2    #SA2210BJMW    202210057189-3033                HOUSING FEMALE           CCN000001600000001600FN00000000020221001000001600NNE   20220916121049    2F0F  00000160000001211200001431232G2    AISUAI  005500360039
BI00B32G2    #SA2210BJMW    202210057189-3034-30             HOUSING FEMALE           CCN000003200000003200FN00000000020221001000003200NNE   20220916121049    2F0F  00000160000000972800001192832G2    AISUAI  005500360039
BI00B32G2    #SA2210BJMW    202210057287-9155                HOUSING FEMALE ASS'Y     CCN000000960000000960FN00000000020221001000000960NNE   20220916121049    2N0N  00000096000000853700001045232G2    AISUAI  005400370024
BI00B32G2    #SA2210BJMW    202210057289-2915-30             HOUSING FEMALE ASS'Y     CCN000001500000001500FN00000000020221001000001500NNE   20220916121049    2N0N  00000150000000964500001091532G2    AISUAI  005400370024
BI00B32G2    #SA2210BJMW    202210057289-2916-30             HOUSING FEMALE ASS'Y     CCN000002000000002000FN00000000020221001000002000NNE   20220916121049    2N0N  00000100000000857000001084032G2    AISUAI  005400370024
BI00B32G2    #SA2210BJMW    202210057289-2919-30             HOUSING FEMALE ASS'Y     CCN000001500000001500FN00000000020221001000001500NNE   20220916121049    2N0N  00000150000000907500001034532G2    AISUAI  005400370024
BI00B32G2    SA2211A MW     202210197116-5043-02             TERMINAL FEMALE          CCN000036000000036000FN00000000020221101000036000NNE   20220916121049    4P0P  00001200000000559200000844432G2    AISUAI  006400630015
BI00B32G2    SA2211A MW     202210197116-5046-02             TERMINAL                 CCN000012000000012000FN00000000020221101000012000NNE   20220916121049    4P0P  00001200000000544800000873532G2    AISUAI  006400630017
BI00B32G2    SA2211A MW     202210197283-1289                CONNECTOR HOUSING        CCN000001200000001200FN00000000020221101000001200NNE   20220916121049    1N0N  00000060000000676200000817632G2    AISUAI  005400370024
BI00B32G2    #SA2211A MW    202210197182-4941                DOUBLE SIDED             CCN000001000000001000FN00000000020221101000001000NNE   20220916121049    2F0F  00000100000001282000001477032G2    AISUAI  005600390040
BI00B32G2    #SA2211A MW    202210197183-2416                HOUSING                  CCN000002400000002400FN00000000020221101000002400NNE   20220916121049    2F0F  00000240000001495200001771032G2    AISUAI  005500360039
BI00B32G2    SA2211AJMW     202210197282-9391                HOUSING MALE ASS'Y       CCN000001200000001200FN00000000020221101000001200NNE   20220916121049    4N0N  00000120000001017600001237632G2    AISUAI  005500360039
BI00B32G2    SA2211AJMW     202210197286-4097                CONNECTOR MALE ASS'Y     CCN000001600000001600FN00000000020221101000001600NNE   20220916121049    1N0N  00000160000000768000000978032G2    AISUAI  005500360039
BI00B32G2    SA2211AJMW     202210197287-7775-40             HOUSING FEMALE ASS'Y     CCN000001000000001000FN00000000020221101000001000NNE   20220916121049    4N0N  00000100000000508000000620532G2    AISUAI  005400370024
BI00B32G2    SA2211AJMW     202210197288-3206                HOUSING MALE ASS'Y       CCN000002040000002040FN00000000020221101000002040NNE   20220916121049    1N0N  00000102000000387600000787632G2    AISUAI  005500360039
BI00B32G2    #SA2211AJMW    202210197154-5597-30             CASSETTE R/B             CCN000003200000003200FN00000000020221101000003200NNE   20220916121049    2F0F  00000080000000736000000952032G2    AISUAI  005500360039
BI00B32G2    #SA2211AJMW    202210197189-3032                HOUSING FEMALE           CCN000001600000001600FN00000000020221101000001600NNE   20220916121049    2F0F  00000160000000788400001018432G2    AISUAI  005500360039
BI00B32G2    #SA2211AJMW    202210197189-3033                HOUSING FEMALE           CCN000001600000001600FN00000000020221101000001600NNE   20220916121049    2F0F  00000160000001211200001431232G2    AISUAI  005500360039
BI00B32G2    #SA2211AJMW    202210197189-3034-30             HOUSING FEMALE           CCN000001600000001600FN00000000020221101000001600NNE   20220916121049    2F0F  00000160000000972800001192832G2    AISUAI  005500360039
BI00B32G2    #SA2211AJMW    202210197289-2915-30             HOUSING FEMALE ASS'Y     CCN000001500000001500FN00000000020221101000001500NNE   20220916121049    2N0N  00000150000000964500001091532G2    AISUAI  005400370024
BI00B32G2    #SA2211AJMW    202210197289-2916-30             HOUSING FEMALE ASS'Y     CCN000002000000002000FN00000000020221101000002000NNE   20220916121049    2N0N  00000100000000857000001084032G2    AISUAI  005400370024
BI00B32G2    #SA2211AJMW    202210197289-2919-30             HOUSING FEMALE ASS'Y     CCN000001500000001500FN00000000020221101000001500NNE   20220916121049    2N0N  00000150000000907500001034532G2    AISUAI  005400370024
BI00B32G7    JJ2211B MW     202210067116-3154-08             TERMINAL                 CCN000027000000027000FN00000000020221101000027000NNE   20220916150903    4P0P  00002700000000475200000760432G7    JIJAI   006400630015
BI00B32G7    #JJ2211BMMW    202210067287-1915-30             CONNECTOR ASS'Y          CCN000009600000009600FN00000000020221101000009600NNE   20220916150911    2N0N  00000240000000666500000923132G7    JIJAI   005500360039
BI00B32G8    PATA2101B      202210127470-5945                J/B COMPLETE ASS'Y       CCN000000950000000050FN00000000020220901000000050NNED0020220916121049    4J0J  00000001000000494000000661032G8    PSPASI  005400370024
BI00B32G8    PATA2101B      202209227470-5945                J/B COMPLETE ASS'Y       CCN000000900000000900FN00000000020220901000000900NNED0020220916121049    4J0J  00000001000000494000000661032G8    PSPASI  005400370024
BI00B32H2    #TIJ2091       202209197183-2416                HOUSING                  CCN000002400000002400FN00000000020220901000002400NNM00020220916151239    2F0F  00000240000001495200001771032H2    HVYHV   005500360039
BI00B32H2    #TIJ210N       202209237183-2511                HOUSING                  CCN000001600000000000FY00000000020221001000000000NNEQ0820220916083707    2F0F  00000160000000972200001242132H2    HVYHV   005500360039
BI00B32H2    #TIJ210R       202209307282-1214                CONNECTOR                CCN000001000000000000FY00000000020221001000000000NNEQ0820220916083731    2N0N  00000100000000900000001030032H2    HVYHV   005500360039
BI00B32H2    TIJ210W        202209307116-1471                TERMINAL                 CCN000015000000015000FN00000000020221001000015000NNE   20220916121049    4P0P  00001500000000579000000867232H2    HVYHV   006400630015
BI00B32H2    TIJ210W        202209307116-2891-02             TERMINAL                 CCN000015000000015000FN00000000020221001000015000NNE   20220916121049    4P0P  00001500000000982500001145932H2    HVYHV   005100280028
BI00B32H2    TIJ210W        202209307116-4029-08             TERMINAL FEMALE          CCN000016000000016000FN00000000020221001000016000NNE   20220916121049    4P0P  00001600000000670400000999132H2    HVYHV   006400630017
BI00B32H2    TIJ210W        202209307196-1325-02             TERMINAL FEMALE          CCN000180000000180000FN00000000020221001000180000NNE   20220916121049    4P0P  00006000000000450000000778732H2    HVYHV   006400630017
BI00B32H2    TIJ210W        202209307196-1326-02             TERMINAL FEMALE          CCN000120000000120000FN00000000020221001000120000NNE   20220916121049    4P0P  00006000000000456000000784732H2    HVYHV   006400630017
BI00B32H2    TIJ210W        202209307196-1935-02             TERMINAL FEMALE          CCN000036000000036000FN00000000020221001000036000NNE   20220916121049    4P0P  00001800000000534600000819832H2    HVYHV   006400630015
BI00B32H2    TIJ210W        202209307196-1936-02             TERMINAL FEMALE          CCN000040500000040500FN00000000020221001000040500NNE   20220916121049    4P0P  00001350000000441500000726732H2    HVYHV   006400630015
BI00B32H2    TIJ210W        202209307196-1937-02             TERMINAL FEMALE          CCN000027000000027000FN00000000020221001000027000NNE   20220916121049    4P0P  00001350000000446900000732132H2    HVYHV   006400630015
BI00B32H2    TIJ210X        202210077196-2023-02             TERMINAL FEMALE          CCN000024000000024000FN00000000020221001000024000NNE   20220916121049    4P0P  00002400000000897600001061032H2    HVYHV   005100280028
BI00B32H2    TIJ210X        202210077273-2982-0W             CASSETTE BRACKET         CCN000000600000000600FN00000000020221001000000600NNE   20220916121049    4N0N  00000060000000526000000726032H2    HVYHV   005500360039
BI00B32H2    TIJ210X        202210077288-3206                HOUSING MALE ASS'Y       CCN000001020000001020FN00000000020221001000001020NNE   20220916121049    1N0N  00000102000000387600000787632H2    HVYHV   005500360039
BI00B32H2    TIJ210X        202210077470-5304                J/B COMPLETE ASS'Y       CCN000000500000000500FN00000000020221001000000500NNE   20220916121049    4J0J  00000001000000494000000661032H2    HVYHV   005400370024
BI00B32H2    #TIJ210X       202210077287-7022                CONNECTOR FEMALE         CCN000002400000002400FN00000000020221001000002400NNE   20220916121049    2NON  00000120000000742800000853032H2    HVYHV   005400370024
BI00B32H2    TIJ211F        202210077114-4032                TERMINAL                 CCN000007500000007500FN00000000020221101000007500NNED0020220916121049    4P0P  00000750000000735000001063632H2    HVYHV   006400630017
BI00B32H2    TIJ211F        202210077126-8853-02             TERMINAL                 CCN000007500000007500FN00000000020221101000007500NNED0020220916121049    4P0P  00000750000000562500000847732H2    HVYHV   006400630015
BI00B32H2    TIJ211F        202210077126-8854-02             TERMINAL                 CCN000007500000007500FN00000000020221101000007500NNED0020220916121049    4P0P  00000750000000604500000889732H2    HVYHV   006400630015
BI00B32H2    TIJ211F        202210077126-8855-02             TERMINAL                 CCN000006000000006000FN00000000020221101000006000NNED0020220916121049    4P0P  00000600000000510600000795832H2    HVYHV   006400630015
BI00B32H2    TIJ211F        202210077196-1020-02             TERMINAL ALUMINIUM       CCN000023700000023700FN00000000020221101000023700NNED0020220916121049    4P0P  00002370000000722900001008132H2    HVYHV   006400630015
BI00B32H2    TIJ211F        202210077196-1024-02             TERMINAL ALUMINIUM       CCN000018900000018900FN00000000020221101000018900NNED0020220916121049    4P0P  00001890000000718200001003432H2    HVYHV   006400630015
BI00B32H2    TIJ211F        202210077196-1934-02             TERMINAL FEMALE          CCN000019500000019500FN00000000020221101000019500NNED0020220916121049    4P0P  00001950000000561600000846832H2    HVYHV   006400630015
BI00B32H2    TIJ211F        202210077287-7598-30             HOUSING FEMALE ASS'Y     CCN000001000000001000FN00000000020221101000001000NNED0020220916121049    4N0N  00000100000000508000000620532H2    HVYHV   005400370024
BI00B32H2    TIJ211G        202210217196-1327-02             TERMINAL FEMALE          CCN000052000000052000FN00000000020221101000052000NNE   20220916121049    4P0P  00005200000000336000000739532H2    HVYHV   006400630017
BI00B32H2    TIJ211G        202210217196-1481-02             TERMINAL FEMALE          CCN000048000000048000FN00000000020221101000048000NNE   20220916121049    4P0P  00002400000000422400000707632H2    HVYHV   006400630015
BI00B32H2    TIJ211G        202210217196-1941-02             TERMINAL FEMALE          CCN000011400000011400FN00000000020221101000011400NNE   20220916121049    4P0P  00001140000000506200000794432H2    HVYHV   006400630015
BI00B32H2    TIJ211G        202210217273-2982-0W             CASSETTE BRACKET         CCN000000600000000600FN00000000020221101000000600NNE   20220916121049    4N0N  00000060000000526000000726032H2    HVYHV   005500360039
BI00B32H2    TIJ211G        202210217288-6547                CONNECTOR MALE ASS'Y     CCN000002250000002250FN00000000020221101000002250NNE   20220916121049    4N0N  00000075000001205300001340332H2    HVYHV   005400370024
BI00B32H2    TIJ211G        202210217289-3342-40             HOUSING FEMALE ASS'Y     CCN000002400000002400FN00000000020221101000002400NNE   20220916121049    1N0N  00000240000000686400000901432H2    HVYHV   005500360039
BI00B32H2    TIJ211G        202210217470-5304                J/B COMPLETE ASS'Y       CCN000000200000000200FN00000000020221101000000200NNE   20220916121049    4J0J  00000001000000494000000661032H2    HVYHV   005400370024
BI00B32H2    TIJ211H        202210287114-5753-02             TERMINAL                 CCN000027000000027000FN00000000020221101000027000NNE   20220916121049    4P0P  00002700000000847800001141432H2    HVYHV   006400630015
BI00B32H2    TIJ211H        202210287196-1481-02             TERMINAL FEMALE          CCN000024000000024000FN00000000020221101000024000NNE   20220916121049    4P0P  00002400000000422400000707632H2    HVYHV   006400630015
BI00B32H2    TIJ211H        202210287196-1936-02             TERMINAL FEMALE          CCN000040500000040500FN00000000020221101000040500NNE   20220916121049    4P0P  00001350000000441500000726732H2    HVYHV   006400630015
BI00B32H2    TIJ211H        202210287283-1927-30             CONNECTOR                CCN000002000000002000FN00000000020221101000002000NNE   20220916121049    4N0N  00000200000001190000001368032H2    HVYHV   005500360039
BI00B32H2    TIJ211H        202210287283-5845-30             CONNECTOR HOUSING        CCN000006000000006000FN00000000020221101000006000NNE   20220916121049    1N0N  00000600000000444000000606332H2    HVYHV   005400370024
BI00B32H2    TIJ211H        202210287289-3342-40             HOUSING FEMALE ASS'Y     CCN000002400000002400FN00000000020221101000002400NNE   20220916121049    1N0N  00000240000000686400000901432H2    HVYHV   005500360039
BI00B32H2    #TIJ211H       202210287287-1915-90             CONNECTOR ASS'Y          CCN000002400000002400FN00000000020221101000002400NNE   20220916121049    2N0N  00000240000000666500000923132H2    HVYHV   005500360039
BI00B32H2    #TIJ211H       202210287287-7022                CONNECTOR FEMALE         CCN000002400000002400FN00000000020221101000002400NNE   20220916121049    2NON  00000120000000742800000853032H2    HVYHV   005400370024
BI00B32H2    TIJ211J        202211047288-6547                CONNECTOR MALE ASS'Y     CCN000002250000002250FN00000000020221101000002250NNE   20220916121049    4N0N  00000075000001205300001340332H2    HVYHV   005400370024
BI00B32H2    #TIJ211J       202211047158-3003-90             RUBBER STOPPER           CCN000020000000020000FN00000000020221101000020000NNE   20220916121049    2C0C  00002000000000250000000306032H2    HVYHV   002700430014
BI00B32J1    #398293        202210317297-2286-30             HOUSING MALE ASS'Y       CCN000004000000000000FY00000000020221001000000000NNEQ0820220916084207    2N0N  00000200000000691000000776632J1    UKYEL-BL005400370024
BI00B32J1    #398396        202210317158-3374-90             CONNECTOR WIRE SEAL      CCN000040000000040000FN00000000020221001000040000NNE   20220916121049    2H0H  00002000000000172000000229332J1    UKYEL-BL002700430014
BI00B32J1    #398396        202210317158-3376-50             CONNECTOR WIRE SEAL      CCN000080000000080000FN00000000020221001000080000NNE   20220916121049    2C0C  00002000000000184000000240732J1    UKYEL-BL002700430014
BI00B32J1    #398399        202211147158-3376-50             CONNECTOR WIRE SEAL      CCN000080000000080000FN00000000020221101000080000NNE   20220916121049    2C0C  00002000000000184000000240732J1    UKYEL-BL002700430014
BI00B32J1    398385         202210107114-6041                TERMINAL                 CCN000003600000003600FN00000000020221001000003600NNM   20220916121049    4P0P  00000360000000580700000824232J1    UKYEL-BL006400630015
BI00B32J1    398385         202210107116-6042                TERMINAL                 CCN000030000000030000FN00000000020221001000030000NNM   20220916121049    4P0P  00000300000000523800000856132J1    UKYEL-BL006400630015
BI00B32J1    398385         202210107158-3070-80             RUBBER STOPPER           CCN000360000000360000FN00000000020221001000360000NNM   20220916121049    1C0C  00004000000000276000000333332J1    UKYEL-BL002700430014
BI00B32J1    398385         202210107158-3165-90             WIRE SEAL                CCN000080000000080000FN00000000020221001000080000NNM   20220916121049    1C0C  00004000000000124000000172432J1    UKYEL-BL004300270014
BI00B32J1    398385         202210107158-3166-10             WIRE SEAL                CCN000040000000040000FN00000000020221001000040000NNM   20220916121049    1C0C  00004000000000096000000144432J1    UKYEL-BL004300270014
BI00B32J1    398385         202210107158-3166-60             WIRE SEAL                CCN002160000002160000FN00000000020221001002160000NNM   20220916121049    1C0C  00004000000000104000000152432J1    UKYEL-BL002700430014
BI00B32J1    398385         202210107158-3167-61             WIRE SEAL                CCN000160000000160000FN00000000020221001000160000NNM   20220916121049    1C0C  00002000000000048000000096432J1    UKYEL-BL004300270014
BI00B32J1    398385         202210107158-3167-80             WIRE SEAL                CCN002640000002640000FN00000000020221001002640000NNM   20220916121049    1C0C  00002000000000048000000109032J1    UKYEL-BL002700430014
BI00B32J1    398385         202210107196-1461-02             TERMINAL FEMALE          CCN001680000001680000FN00000000020221001001680000NNM   20220916121049    4P0P  00002400000000386400000671632J1    UKYEL-BL006400630015
BI00B32J1    398385         202210107196-1461-06             TERMINAL FEMALE          CCN000288000000288000FN00000000020221001000288000NNM   20220916121049    4P0P  00002400000000386400000692932J1    UKYEL-BL006400630015
BI00B32J1    398385         202210107196-1462-02             TERMINAL FEMALE          CCN000084000000084000FN00000000020221001000084000NNM   20220916121049    4P0P  00002100000000352800000638032J1    UKYEL-BL006400630015
BI00B32J1    398385         202210107282-5574-10             CONNECTOR                CCN000012000000012000FN00000000020221001000012000NNM   20220916121049    4N0N  00000080000001235000001423032J1    UKYEL-BL005600390040
BI00B32J1    398385         202210107283-6448-40             CONNECTOR                CCN000003000000003000FN00000000020221001000003000NNM   20220916121049    4N0N  00000150000001087000001329032J1    UKYEL-BL005600390040
BI00B32J1    398385         202210107327-6654-3W             BATTERY FUSE             CCN000000288000000288FN00000000020221001000000288NNM   20220916121049    4N0N  00000009600001132300001312432J1    UKYEL-BL005500360039
BI00B32J1    398385         202210107327-6840-3W             BATTERY FUSE             CCN000004896000004896FN00000000020221001000004896NNM   20220916121049    4N0N  00000007200001140900001355932J1    UKYEL-BL005500360039
BI00B32J1    #398385        202210107147-8717-30             CLIP                     CCN000010000000010000FN00000000020221001000010000NNM   20220916121049    2F0F  00000500000000660000000875032J1    UKYEL-BL005600390040
BI00B32J1    #398385        202210107157-3646                RUBBER STOPPER           CCN000020000000020000FN00000000020221001000020000NNM   20220916121049    2H0H  00002000000000184000000255232J1    UKYEL-BL002700430014
BI00B32J1    #398385        202210107158-3120-90             CONNECTOR WIRE SEAL      CCN000180000000180000FN00000000020221001000180000NNM   20220916121049    2C0C  00002000000000136000000194032J1    UKYEL-BL002700430014
BI00B32J1    #398385        202210107158-3376-50             CONNECTOR WIRE SEAL      CCN000040000000040000FN00000000020221001000040000NNM   20220916121049    2C0C  00002000000000184000000240732J1    UKYEL-BL002700430014
BI00B32J1    #398385        202210107282-5545-10             CONNECTOR                CCN000000800000000800FN00000000020221001000000800NNM   20220916121049    2N0N  00000080000001293600001465332J1    UKYEL-BL005500360039
BI00B32J1    #398385        202210107282-6446-30             CONNECTOR                CCN000001500000001500FN00000000020221001000001500NNM   20220916121049    2N0N  00000150000001185000001335032J1    UKYEL-BL005500360039
BI00B32J1    #398385        202210107282-6446-40             CONNECTOR                CCN000004500000004500FN00000000020221001000004500NNM   20220916121049    2N0N  00000150000001185000001368032J1    UKYEL-BL005500360039
BI00B32J1    #398385        202210107283-8226-30             CONNECTOR                CCN000004000000004000FN00000000020221001000004000NNM   20220916121049    2N0N  00000200000000820000001008032J1    UKYEL-BL005400370024
BI00B32J1    #398385        202210107297-1907-30             HOUSING MALE ASS'Y       CCN000013500000013500FN00000000020221001000013500NNM   20220916121049    2N0N  00000150000000451800000568032J1    UKYEL-BL005400370024
BI00B32M1    QA-22-C084     202209227289-3342-30             HOUSING FEMALE ASS'Y     PNY000002754000002754FN00000000020220901000002754NNE   20220916160050    1N0N  00000240000000686400000901432M1    VNYEV   005500360039
BI00B32M3    SM2210AEMW     202210067289-7212-30             HOUSING FEMALE ASS'Y     CCN000000480000000480FN00000000020221001000000480NNE   20220916162346    4N0N  00000024000001388400001593432M3    SASAMI  005500360039
BI00B32M3    SM2210AEMW     202210067289-7213-30             HOUSING FEMALE ASS'Y     CCN000000720000000720FN00000000020221001000000720NNE   20220916162346    4N0N  00000024000001352800001667832M3    SASAMI  005500360039
BI00B32M3    #SM2210AEMW    202210067174-1315-30             SEALED COVER             CCN000001600000001600FN00000000020221001000001600NNE   20220916162345    2F0F  00000080000000782000000902032M3    SASAMI  005500360039
BI00B32M3    #SM2210AEMW    202210067289-2915-30             HOUSING FEMALE ASS'Y     CCN000003000000003000FN00000000020221001000003000NNE   20220916162345    2N0N  00000150000000964500001091532M3    SASAMI  005400370024
BI00B32M3    SM2210AHMW     202210067B96-0805-02             TERMINAL FEMALE          CCN000022500000022500FN00000000020221001000022500NNE   20220916162358    4P0P  00002250000000558000000843232M3    SASAMI  006400630015
BI00B32M3    SM2210AHMW     202210067C89-6868-30             SEALED ASSY FEMALE       CCN000010080000010080FN00000000020221001000010080NNE   20220916162358    4N0N  00000252000000839200001119232M3    SASAMI  005500360039
BI00B32M3    SM2210AHMW     202210067158-3168-80             SEALED                   CCN000020000000020000FN00000000020221001000020000NNE   20220916162358    1C0C  00002000000000044000000092132M3    SASAMI  004300260014
BI00B32M3    SM2210AHMW     202210067298-1853-10             HOUSING FEMALE ASS'Y     CCN000007800000007800FN00000000020221001000007800NNE   20220916162358    4N00  00000390000001240500001405832M3    SASAMI  005400370024
BI00B32M3    SM2210AHMW     202210067298-4094-10             HOUSING FEMALE ASS'Y     CCN000006760000006760FN00000000020221001000006760NNE   20220916162358    4N0N  00000338000001097400001358732M3    SASAMI  005400370024
BI00B32M3    SM2210AHMW     202210067388-0313-30             CONNECTOR ASS'Y          CCN000007200000007200FN00000000020221001000007200NNE   20220916162358    4N0N  00000120000000995000001125032M3    SASAMI  005400370024
BI00B32M3    SM2210AHMW     202210067388-0316-80             CONNECTOR ASS'Y          CCN000003600000003600FN00000000020221001000003600NNE   20220916162358    4N0N  00000120000001002500001132532M3    SASAMI  005400370024
BI00B32M3    SM2210AHMW     202210067388-0317-60             CONNECTOR ASS'Y          CCN000004800000004800FN00000000020221001000004800NNE   20220916162358    4N0N  00000120000001034400001129332M3    SASAMI  005400370024
BI00B32M3    #SM2210AHMW    202210067188-0149                HLC HOUSING MALE         CCN000001800000001800FN00000000020221001000001800NNE   20220916162357    2F0F  00000090000000809100000923832M3    SASAMI  005400370024
BI00B32M3    #SM2210AHMW    202210067287-8860                HOUSING FEMALE ASS'Y     CCN000004800000004800FN00000000020221001000004800NNE   20220916162357    2N0N  00000160000000693400000853432M3    SASAMI  005400370024
BI00B32M3    #SM2210ARMW    202210067137-3319-90             SEALED PACKING           CCN000002000000002000FN00000000020221001000002000NNE   20220916162409    2H0H  00000100000000498000000555132M3    SASAMI  004300270014
BI00B32M3    #SM2210ARMW    202210067172-5937-90             SEAL RUBBER              CCN000001000000001000FN00000000020221001000001000NNE   20220916162409    2H0H  00000100000000620000000666832M3    SASAMI  004300270014
BI00B32M3    #SM2210ARMW    202210067185-9195-40             REAR HOLDER              CCN000001000000001000FN00000000020221001000001000NNE   20220916162409    2F0F  00000100000000692200000815232M3    SASAMI  005400370024
BI00B32M3    SM2210BMMW     202210067283-1288-10             CONNECTOR HOUSING        CCN000001200000001200FN00000000020221001000001200NNE   20220916162423    1N0N  00000120000001381000001637032M3    SASAMI  005600390040
BI00B32M3    SM2210C MW     202210067114-4032                TERMINAL                 CCN000007500000007500FN00000000020221001000007500NNE   20220916162434    4P0P  00000750000000735000001063632M3    SASAMI  006400630017
BI00B32M3    SM2210C MW     202210067116-1685-02             TERMINAL                 CCN000192000000192000FN00000000020221001000192000NNE   20220916162434    4P0P  00002400000000897600001065232M3    SASAMI  005100280028
BI00B32M3    SM2210C MW     202210067116-1686-02             TERMINAL                 CCN000063000000063000FN00000000020221001000063000NNE   20220916162434    4P0P  00002100000000869400001021632M3    SASAMI  005100280028
BI00B32M3    SM2210C MW     202210067116-4025                TERMINAL                 CCN000032000000032000FN00000000020221001000032000NNE   20220916162434    4P0P  00001600000000644800000975132M3    SASAMI  006400630017
BI00B32M3    SM2210C MW     202210067116-4037                TERMINAL                 CCN000048000000048000FN00000000020221001000048000NNE   20220916162434    4P0P  00000600000000600000000894232M3    SASAMI  006400630015
BI00B32M3    SM2210C MW     202210067116-4415-02             TERMINAL                 CCN000304000000304000FN00000000020221001000304000NNE   20220916162434    4P0P  00003800000000596600000925732M3    SASAMI  006400630017
BI00B32M3    SM2210C MW     202210067116-4416-02             TERMINAL                 CCN000032000000032000FN00000000020221001000032000NNE   20220916162434    4P0P  00003200000000518400000847132M3    SASAMI  006400630017
BI00B32M3    SM2210C MW     202210067116-5045-02             TERMINAL                 CCN000048000000048000FN00000000020221001000048000NNE   20220916162434    4P0P  00001600000000678400001007132M3    SASAMI  006400630017
BI00B32M3    SM2210C MW     202210067116-6042                TERMINAL                 CCN000012000000012000FN00000000020221001000012000NNE   20220916162434    4P0P  00000300000000523800000856132M3    SASAMI  006400630015
BI00B32M3    SM2210C MW     202210067126-8853-02             TERMINAL                 CCN000067500000067500FN00000000020221001000067500NNE   20220916162434    4P0P  00000750000000562500000847732M3    SASAMI  006400630015
BI00B32M3    SM2210C MW     202210067126-8854-02             TERMINAL                 CCN000075000000075000FN00000000020221001000075000NNE   20220916162434    4P0P  00000750000000604500000889732M3    SASAMI  006400630015
BI00B32M3    SM2210C MW     202210067126-8855-02             TERMINAL                 CCN000018000000018000FN00000000020221001000018000NNE   20220916162434    4P0P  00000600000000510600000795832M3    SASAMI  006400630015
BI00B32M3    SM2210C MW     202210067158-3006-90             RUBBER STOPPER           CCN000020000000020000FN00000000020221001000020000NNE   20220916162434    1C0C  00002000000000330600000386032M3    SASAMI  002700430014
BI00B32M3    SM2210C MW     202210067158-3070-80             RUBBER STOPPER           CCN000040000000040000FN00000000020221001000040000NNE   20220916162434    1C0C  00004000000000276000000333332M3    SASAMI  002700430014
BI00B32M3    SM2210C MW     202210067158-3165-90             WIRE SEAL                CCN000200000000200000FN00000000020221001000200000NNE   20220916162434    1C0C  00004000000000124000000172432M3    SASAMI  004300270014
BI00B32M3    SM2210C MW     202210067283-7526-40             CONNECTOR HOUSING        CCN000005880000005880FN00000000020221001000005880NNE   20220916162434    4N0N  00000196000000989800001248632M3    SASAMI  005500360039
BI00B32M3    SM2210C MW     202210067287-9234                JOINT CONNECTOR          CCN000009600000009600FN00000000020221001000009600NNE   20220916162434    4N0N  00000960000000893800001184832M3    SASAMI  005500360039
BI00B32M3    #SM2210C MW    202210067157-3821                RUBBER STOPPER           CCN000020000000020000FN00000000020221001000020000NNE   20220916162433    2C0C  00002000000000176000000238032M3    SASAMI  002700430014
BI00B32M3    #SM2210C MW    202210067158-3003-90             RUBBER STOPPER           CCN000020000000020000FN00000000020221001000020000NNE   20220916162433    2C0C  00002000000000250000000306032M3    SASAMI  002700430014
BI00B32M3    #SM2210C MW    202210067158-3007-10             RUBBER STOPPER           CCN000020000000020000FN00000000020221001000020000NNE   20220916162433    2H0H  00002000000000308000000362732M3    SASAMI  002700430014
BI00B32M3    #SM2210C MW    202210067158-3015-10             RUBBER STOPPER           CCN000040000000040000FN00000000020221001000040000NNE   20220916162433    2C0C  00001000000000419500000474032M3    SASAMI  002700430014
BI00B32M3    #SM2210C MW    202210067158-3017                RUBBER STOPPER           CCN000030000000030000FN00000000020221001000030000NNE   20220916162433    2C0C  00001000000000375500000435032M3    SASAMI  002700430014
BI00B32M3    #SM2210C MW    202210067186-8851                HOUSING MALE             CCN000001000000001000FN00000000020221001000001000NNE   20220916162433    2F0F  00000100000000782200000906232M3    SASAMI  005400370024
BI00B32M3    #SM2210C MW    202210067189-0149                HLC HOUSING FEMALE       CCN000002000000002000FN00000000020221001000002000NNE   20220916162433    2F0F  00000200000000970000001078532M3    SASAMI  005400370024
BI00B32M3    SM2210DDMW     202210067137-3047-30             UNIT PACKING             CCN000023000000023000FN00000000020221001000023000NNE   20220916162445    1C0C  00000100000000170500000218932M3    SASAMI  002700430014
BI00B32M3    SM2210DDMW     202210067172-5402-30             SEAL RUBBER              CCN000048000000048000FN00000000020221001000048000NNE   20220916162445    1C0C  00000800000000457600000506032M3    SASAMI  004300270014
BI00B32M3    SM2210DDMW     202210067172-5403-30             SEALED PACKING           CCN000036000000036000FN00000000020221001000036000NNE   20220916162445    1C0C  00000400000000653600000701732M3    SASAMI  004300270014
BI00B32M3    SM2210DDMW     202210067286-4097                CONNECTOR MALE ASS'Y     CCN000001600000001600FN00000000020221001000001600NNE   20220916162445    1N0N  00000160000000768000000978032M3    SASAMI  005500360039
BI00B32N1    NST2123BCU     202212017282-1248-50             HOUSING SUB ASSEMBLY     CCN000005400000005400FN00000000020221001000005400NNED0620220916164343    1N0N  00000060000001167000001372032N1    TAYIPL  005500360039
BI00B32N1    NST2123A       202209297283-6448-40             CONNECTOR                CCN000007500000007500FN00000000020221101000007500NNM   20220916132926    4N0N  00000150000001087000001329032N1    TAYIPL  005600390040
BI00B32N1    NST2123A       202209297283-5574-10             CONNECTOR                CCN000006400000006400FN00000000020221101000006400NNM   20220916132926    4N0N  00000080000001235000001435232N1    TAYIPL  005500360039
BI00B32N1    NST2123A       202209297283-1144-30             CONNECTOR                CCN000091200000091200FN00000000020221101000091200NNM   20220916132926    4N0N  00000240000000602200000866132N1    TAYIPL  005500360039
BI00B32N1    NST2123A       202209297282-5574-10             CONNECTOR                CCN000007200000007200FN00000000020221101000007200NNM   20220916132926    4N0N  00000080000001235000001423032N1    TAYIPL  005600390040
BI00B32N1    NST2123A       202209297126-8855-02             TERMINAL                 CCN000078000000078000FN00000000020221101000078000NNM   20220916132926    4P0P  00000600000000510600000795832N1    TAYIPL  006400630015
BI00B32N1    NST2123A       202209297126-8854-02             TERMINAL                 CCN000285000000285000FN00000000020221101000285000NNM   20220916132926    4P0P  00000750000000604500000889732N1    TAYIPL  006400630015
BI00B32N1    NST2123A       202209297126-8853-02             TERMINAL                 CCN000022500000022500FN00000000020221101000022500NNM   20220916132926    4P0P  00000750000000562500000847732N1    TAYIPL  006400630015
BI00B32N1    NST2123A       202209297116-6042                TERMINAL                 CCN000063000000063000FN00000000020221101000063000NNM   20220916132926    4P0P  00000300000000523800000856132N1    TAYIPL  006400630015
BI00B32N1    NST2123A       202209297116-4122-02             TERMINAL                 CCN000180000000180000FN00000000020221101000180000NNM   20220916132926    4P0P  00000450000000656600000950232N1    TAYIPL  006400630015
BI00B32N1    NST2123A       202209297116-4112-02             TERMINAL                 CCN000138000000138000FN00000000020221101000138000NNM   20220916132926    4P0P  00000600000000450000000738232N1    TAYIPL  006400630015
BI00B32N1    NST2123A       202209297116-4026                TERMINAL                 CCN000400000000400000FN00000000020221101000400000NNM   20220916132926    4P0P  00001600000000664000000994332N1    TAYIPL  006400630017
BI00B32N1    NST2123A       202209297116-4020                TERMINAL                 CCN000796500000796500FN00000000020221101000796500NNM   20220916132926    4P0P  00001350000000513000000798232N1    TAYIPL  006400630015
BI00B32N1    NST2123A       202209297116-3154-02             TERMINAL FEMALE          CCN000243000000243000FN00000000020221101000243000NNM   20220916132926    4P0P  00002700000000469800000755032N1    TAYIPL  006400630015
BI00B32N1    NST2123A       202209297116-2893-02             TERMINAL                 CCN000528000000528000FN00000000020221101000528000NNM   20220916132926    4P0P  00001200000000895200001058632N1    TAYIPL  005100280028
BI00B32N1    NST2123A       202209297116-2892-02             TERMINAL                 CCN000516000000516000FN00000000020221101000516000NNM   20220916132926    4P0P  00001200000000818400000981832N1    TAYIPL  005100280028
BI00B32N1    NST2123A       202209297116-2891-02             TERMINAL                 CCN000405000000405000FN00000000020221101000405000NNM   20220916132926    4P0P  00001500000000982500001145932N1    TAYIPL  005100280028
BI00B32N1    NST2123A       202209297116-1685-02             TERMINAL                 CCN000696000000696000FN00000000020221101000696000NNM   20220916132926    4P0P  00002400000000897600001065232N1    TAYIPL  005100280028
BI00B32N1    NST2123A       202209297116-1180                TERMINAL                 CCN001501500001501500FN00000000020221101001501500NNM   20220916132926    1P0P  00001950000000618200000903432N1    TAYIPL  006400630015
BI00B32N1    NST2123A       202209297114-4729-02             TERMINAL                 CCN000480000000480000FN00000000020221101000480000NNM   20220916132926    4P0P  00003000000000516000000810232N1    TAYIPL  006400630015
BI00B32N1    NST2123A       202209297114-4032                TERMINAL                 CCN000045000000045000FN00000000020221101000045000NNM   20220916132926    4P0P  00000750000000735000001063632N1    TAYIPL  006400630017
BI00B32N1    NST2123A       202209297114-4030                TERMINAL                 CCN000052500000052500FN00000000020221101000052500NNM   20220916132926    4P0P  00001050000000926100001254732N1    TAYIPL  006400630017
BI00B32N1    NST2123A       202209297114-4020                TERMINAL                 CCN000462000000462000FN00000000020221101000462000NNM   20220916132926    4P0P  00002100000000875700001169332N1    TAYIPL  006400630015
BI00B32N1    NST2123A       202209297017-1182-02             TERMINAL                 CCN000045000000045000FN00000000020221101000045000NNM   20220916132926    4P0P  00004500000001165500001318632N1    TAYIPL  005100280028
BI00B32N1    #NST2123A      202209297158-3120-90             CONNECTOR WIRE SEAL      CCN000200000000200000FN00000000020221101000200000NNM   20220916132918    2C0C  00002000000000136000000194032N1    TAYIPL  002700430014
BI00B32N1    #NST2123A      202209297157-3952-80             RUBBER STOPPER           CCN000070000000070000FN00000000020221101000070000NNM   20220916132918    2C0C  00001000000000117000000175032N1    TAYIPL  002700430014
BI00B32N1    #NST2123A      202209297157-3950-80             SEAL RUBBER              CCN000520000000520000FN00000000020221101000520000NNM   20220916132918    2C0C  00004000000000154000000440332N1    TAYIPL  002700430014
BI00B32N1    #NST2123A      202209297116-4021                TERMINAL                 CCN000162000000162000FN00000000020221101000162000NNM   20220916132918    2F0P  00001350000000534600000868832N1    TAYIPL  006400630015
BI00B32N1    NST2123C       202210067283-5845                CONNECTOR HOUSING        CCN000006000000006000FN00000000020221101000006000NNM   20220916132928    1N0N  00000600000000444000000606332N1    TAYIPL  005400370024
BI00B32N1    NST2123C       202210067283-1144                CONNECTOR                CCN000012000000012000FN00000000020221101000012000NNM   20220916132928    4N0N  00000240000000602200000866132N1    TAYIPL  005500360039
BI00B32N1    NST2123C       202210067282-1248-30             HOUSING SUB ASSEMBLY     CCN000010200000010200FN00000000020221101000010200NNM   20220916132928    1N0N  00000060000001167000001372032N1    TAYIPL  005500360039
BI00B32N1    NST2123C       202210067282-1248                HOUSING SUB ASSEMBLY     CCN000021600000021600FN00000000020221101000021600NNM   20220916132928    1N0N  00000060000001167000001372032N1    TAYIPL  005500360039
BI00B32N1    NST2123C       202210067196-0396-02             TERMINAL                 CCN000060000000060000FN00000000020221101000060000NNM   20220916132928    4P0P  00001500000000949500001112932N1    TAYIPL  002800510028
BI00B32N1    NST2123C       202210067183-7665-30             HOUSING                  CCN000009600000009600FN00000000020221101000009600NNM   20220916132928    1F0F  00000120000001103300001247832N1    TAYIPL  005500360039
BI00B32N1    NST2123C       202210067158-3006-90             RUBBER STOPPER           CCN000200000000200000FN00000000020221101000200000NNM   20220916132928    1C0C  00002000000000330600000386032N1    TAYIPL  002700430014
BI00B32N1    NST2123C       202210067157-6287-70             SPACER                   CCN000070000000070000FN00000000020221101000070000NNM   20220916132928    1F0F  00007000000000700000000963032N1    TAYIPL  005500360039
BI00B32N1    NST2123C       202210067126-8852-02             TERMINAL                 CCN000442500000442500FN00000000020221101000442500NNM   20220916132928    1P0P  00000750000000648000000933232N1    TAYIPL  006400630015
BI00B32N1    NST2123C       202210067126-8851-02             TERMINAL                 CCN001026000001026000FN00000000020221101001026000NNM   20220916132928    1P0P  00000900000000739800001025032N1    TAYIPL  006400630015
BI00B32N1    NST2123C       202210067126-8850-02             TERMINAL                 CCN000630000000630000FN00000000020221101000630000NNM   20220916132928    1P0P  00000900000000672300000957532N1    TAYIPL  006400630015
BI00B32N1    NST2123C       202210067116-5751-02             TERMINAL                 CCN000012000000012000FN00000000020221101000012000NNM   20220916132928    4P0P  00001200000000379200000664432N1    TAYIPL  006400630015
BI00B32N1    NST2123C       202210067116-5750-02             TERMINAL                 CCN000015000000015000FN00000000020221101000015000NNM   20220916132928    4P0P  00001500000000457500000742732N1    TAYIPL  006400630015
BI00B32N1    NST2123C       202210067116-4231-02             TERMINAL                 CCN000052000000052000FN00000000020221101000052000NNM   20220916132928    4P0P  00002600000000683800001012532N1    TAYIPL  006400630017
BI00B32N1    NST2123C       202210067116-4110-02             TERMINAL                 CCN000099000000099000FN00000000020221101000099000NNM   20220916132928    4P0P  00000900000000594000000882232N1    TAYIPL  006400630015
BI00B32N1    NST2123C       202210067116-4104-02             TERMINAL                 CCN000012000000012000FN00000000020221101000012000NNM   20220916132928    4P0P  00001200000000580800000972432N1    TAYIPL  006400630015
BI00B32N1    NST2123C       202210067116-4101-02             TERMINAL                 CCN000024000000024000FN00000000020221101000024000NNM   20220916132928    4P0P  00001200000000582000000876232N1    TAYIPL  006400630015
BI00B32N1    NST2123C       202210067116-4037                TERMINAL                 CCN000042000000042000FN00000000020221101000042000NNM   20220916132928    4P0P  00000600000000600000000894232N1    TAYIPL  006400630015
BI00B32N1    NST2123C       202210067116-4022                TERMINAL                 CCN000013500000013500FN00000000020221101000013500NNM   20220916132928    4P0P  00001350000000618300000903532N1    TAYIPL  006400630015
BI00B32N1    NST2123C       202210067116-1686-02             TERMINAL                 CCN000147000000147000FN00000000020221101000147000NNM   20220916132928    4P0P  00002100000000869400001021632N1    TAYIPL  005100280028
BI00B32N1    NST2123C       202210067116-1471                TERMINAL                 CCN000015000000015000FN00000000020221101000015000NNM   20220916132928    4P0P  00001500000000579000000867232N1    TAYIPL  006400630015
BI00B32N1    NST2123C       202210067116-1301                TERMINAL                 CCN000345000000345000FN00000000020221101000345000NNM   20220916132928    4P0P  00001500000000487500000772732N1    TAYIPL  006400630015
BI00B32N1    NST2123C       202210067114-6041                TERMINAL                 CCN000003600000003600FN00000000020221101000003600NNM   20220916132928    4P0P  00000360000000580700000824232N1    TAYIPL  006400630015
BI00B32N1    NST2123C       202210067114-4728-02             TERMINAL                 CCN000030000000030000FN00000000020221101000030000NNM   20220916132928    4P0P  00003000000000510000000804232N1    TAYIPL  006400630015
BI00B32N1    NST2123C       202210067114-4231-02             TERMINAL                 CCN000018000000018000FN00000000020221101000018000NNM   20220916132928    4P0P  00001800000000554400000848032N1    TAYIPL  006400630015
BI00B32N1    NST2123C       202210067114-4112-02             TERMINAL                 CCN000090000000090000FN00000000020221101000090000NNM   20220916132928    4P0P  00000900000000598500000927132N1    TAYIPL  006400630017
BI00B32N1    NST2123C       202210067114-4111-02             TERMINAL                 CCN000084000000084000FN00000000020221101000084000NNM   20220916132928    4P0P  00001200000000758400001087032N1    TAYIPL  006400630017
BI00B32N1    NST2123C       202210067114-4100-02             TERMINAL                 CCN000774000000774000FN00000000020221101000774000NNM   20220916132928    4P0P  00001800000000748800001077432N1    TAYIPL  006400630017
BI00B32N1    NST2123C       202210067114-4021                TERMINAL                 CCN000105000000105000FN00000000020221101000105000NNM   20220916132928    4P0P  00001500000000670500000964132N1    TAYIPL  006400630015
BI00B32N1    NST2123C       202210067017-1180-02             TERMINAL                 CCN000144000000144000FN00000000020221101000144000NNM   20220916132928    4P0P  00007200000001065600001229032N1    TAYIPL  005100280028
BI00B32N1    #NST2123C      202210067283-8226-30             CONNECTOR                CCN000094000000094000FN00000000020221101000094000NNM   20220916132923    2N0N  00000200000000820000001008032N1    TAYIPL  005400370024
BI00B32N1    #NST2123C      202210067283-5831                CONNECTOR                CCN000006000000006000FN00000000020221101000006000NNM   20220916132923    2N0N  00000300000000750000000880032N1    TAYIPL  005400370024
BI00B32N1    #NST2123C      202210067282-4190-30             CONNECTOR                CCN000015600000015600FN00000000020221101000015600NNM   20220916132923    2N0N  00000024000000801000001071332N1    TAYIPL  005600390040
BI00B32N1    #NST2123C      202210067282-3020                CONNECTOR                CCN000001000000001000FN00000000020221101000001000NNM   20220916132923    2N0N  00000100000000984000001145432N1    TAYIPL  005500360039
BI00B32N1    #NST2123C      202210067183-7725-40             HOUSING                  CCN000012000000012000FN00000000020221101000012000NNM   20220916132923    2F0F  00000600000000840000001040032N1    TAYIPL  005600390040
BI00B32N1    #NST2123C      202210067183-7588                CONNECTOR                CCN000003000000003000FN00000000020221101000003000NNM   20220916132923    2F0F  00000300000001194000001334032N1    TAYIPL  005500360039
BI00B32N1    #NST2123C      202210067183-2418-30             CONNECTOR HOUSING        CCN000009600000009600FN00000000020221101000009600NNM   20220916132923    2F0F  00000480000000917000001235332N1    TAYIPL  005500360039
BI00B32N1    #NST2123C      202210067158-3376-50             CONNECTOR WIRE SEAL      CCN000020000000020000FN00000000020221101000020000NNM   20220916132923    2C0C  00002000000000184000000240732N1    TAYIPL  002700430014
BI00B32N1    #NST2123C      202210067158-3007-10             RUBBER STOPPER           CCN000040000000040000FN00000000020221101000040000NNM   20220916132923    2H0H  00002000000000308000000362732N1    TAYIPL  002700430014
BI00B32N1    #NST2123C      202210067157-3821                RUBBER STOPPER           CCN000500000000500000FN00000000020221101000500000NNM   20220916132923    2C0C  00002000000000176000000238032N1    TAYIPL  002700430014
BI00B32N1    #NST2123C      202210067157-3790-90             WIRE SEAL                CCN000040000000040000FN00000000020221101000040000NNM   20220916132923    2C0C  00002000000000176000000232732N1    TAYIPL  002700430014
BI00B32N1    #NST2123C      202210067157-3646                RUBBER STOPPER           CCN000600000000600000FN00000000020221101000600000NNM   20220916132923    2H0H  00002000000000184000000255232N1    TAYIPL  002700430014
BI00B32N1    #NST2123C      202210067114-4022                TERMINAL                 CCN000030000000030000FN00000000020221101000030000NNM   20220916132923    2F0P  00001500000000708000001120632N1    TAYIPL  006400630015
BI00B32N1    @NST2123C      202210067283-5976                CONNECTOR ASS'Y          CCN000004800000004800FN00000000020221101000004800NNM   20220916132925    3N0N  00000480000000840000001083632N1    TAYIPL  005500360039
BI00B32N1    @NST2123C      202210067283-1100                CONNECTOR ASS'Y          CCN000001600000001600FN00000000020221101000001600NNM   20220916132925    3N0N  00000160000000566500000799632N1    TAYIPL  005500360039
BI00B32Q8    EU22104NMW     202209287298-2278-30             HOUSING FEMALE ASS'Y     CCN000141600000141600FN00000000020221001000141600NNMD0320220916121049    4N0N  00000240000001091700001295432Q8    EMEMI   005500360039
BI00B32U9    TPA239         202209197289-6868-30             SEALED ASSY FEMALE       CCN000027720000027720FN00000000020221001000027720NNM00020220916121049U9  4N0N  00000252000000839200001119232U9    YNYNA-E 005500360039
BI00B32U9    TPA239         202209197298-1186-70             SQUIB SUB ASS'Y          CCN000010000000010000FN00000000020221001000010000NNM00020220916121049U9  4N0N  00001000000000650000000774532U9    YNYNA-E 005400370024
BI00B32U9    TPA240         202209127289-6547                HOUSING FEMALE ASS'Y     CCN000002400000002400FY00000240020221001000000000NNM00020220916111615U9  1N0N  00000240000001152000001362032U9    YNYNA-E 005500360039
BI00B32U9    TPA240         202209127158-3168-80             SEALED                   CCN000200000000200000FY00020000020221001000000000NNM00020220916111556U9  1C0C  00002000000000044000000092132U9    YNYNA-E 004300260014
BI00B32U9    TPA240         202209127158-3169-40             SEALING PLUG             CCN000120000000120000FY00012000020221001000000000NNM00020220916111556U9  1C0C  00004000000000156000000204132U9    YNYNA-E 004300260014
BI00B32U9    TPA240         202209127172-5540-80             SEALED WIRE SEAL         CCN000040000000040000FY00004000020221001000000000NNM00020220916111556U9  1C0C  00002000000000186000000234432U9    YNYNA-E 004300270014
BI00B32U9    TPA240         202209127174-1849-70             COVER                    CCN000025000000025000FY00002500020221001000000000NNM00020220916111556U9  1F0F  00002500000000622500000761932U9    YNYNA-E 005400370024
BI00B32U9    TPA240         202209127B58-3070-80             RUBBER STOPPER           CCN000080000000080000FY00008000020221001000000000NNM00020220916111529U9  1C0C  00004000000000276000000333032U9    YNYNA-E 004300270014
BI00B32W4    4500192538     202209157289-9553-30             SEALED ASSY FEMALE       CCN000120540000120540FY00012054020220901000000000NNE00020220916110836W4594N0N  00000294000001109000001521532W459  HJYHK   005500360039
BI00B32W4    4500194170     202209157288-9556-30             SEALED ASSY MALE         CCN000017280000017280FY00001728020220901000000000NNE00020220916110852W4594N0N  00000072000000537900000786332W459  HJYHK   005500360039
BI00B32W4    4500196337     202209157289-9553-50             SEALED ASSY FEMALE       CCN000008820000008820FY00000882020220901000000000NNE00020220916110904W4B74N0N  00000294000001108100001520632W4B7  HJYHK-J 005500360039
BI00B32W4    4500197160     202209227158-3169-40             SEALING PLUG             CCN000040000000040000FN00000000020220901000040000NNE00020220916121049W4651C0C  00004000000000156000000204132W465  HJYHK   004300260014
BI00B32W4    4500197785     202209157158-3167-80             WIRE SEAL                CCN000080000000080000FY00008000020220901000000000NNE00020220916110940W4B71C0C  00002000000000048000000109032W4B7  HJYHK-J 002700430014
BI00B32W4    4500197785     202209157158-3169-40             SEALING PLUG             CCN000040000000040000FY00004000020220901000000000NNE00020220916110940W4B71C0C  00004000000000156000000204132W4B7  HJYHK-J 004300260014
BI00B32W4    4500200557     202211037116-4100-02             TERMINAL                 CCN000030000000030000FN00000000020221101000030000NNE   20220916121049W4N24P0P  00001500000000696000000990232W4N2  HJYHK-J 006400630015
BI00B32W4    4500200557     202211037116-4111-02             TERMINAL                 CCN000015000000015000FN00000000020221101000015000NNE   20220916121049W4N24P0P  00000750000000529500000817732W4N2  HJYHK-J 006400630015
BI00B32W4    4500200557     202211037116-4112-02             TERMINAL                 CCN000018000000018000FN00000000020221101000018000NNE   20220916121049W4N24P0P  00000600000000450000000738232W4N2  HJYHK-J 006400630015
BI00B32W4    4500200557     202211037114-4100-02             TERMINAL                 CCN000018000000018000FN00000000020221101000018000NNE   20220916121049W4N24P0P  00001800000000748800001077432W4N2  HJYHK-J 006400630017
BI00B32W4    4500200557     202211037114-4110-02             TERMINAL                 CCN000015000000015000FN00000000020221101000015000NNE   20220916121049W4N24P0P  00001500000000901500001230132W4N2  HJYHK-J 006400630017
BI00B32W4    4500200557     202211037116-4110-02             TERMINAL                 CCN000009000000009000FN00000000020221101000009000NNE   20220916121049W4N24P0P  00000900000000594000000882232W4N2  HJYHK-J 006400630015
BI00B32W4    @4500200560    202211177286-1238-30             CONNECTOR                CCN000001200000001200FN00000000020221101000001200NNE   20220916121049W4N23N0N  00000120000001224000001466032W4N2  HJYHK-J 005500360039
BI00B32W4    @4500200560    202211177287-1238-30             HOUSING FEMALE ASS'Y     CCN000003120000003120FN00000000020221101000003120NNE   20220916121049W4N23N0N  00000078000000721100001122032W4N2  HJYHK-J 005500360039
BI00B32W4    4500200565     202210207116-4022                TERMINAL                 CCN000445500000445500FN00000000020221001000445500NNE   20220916121049W4514P0P  00001350000000618300000903532W451  HJ32W9  006400630015
BI00B32W4    4500200565     202210207116-4026                TERMINAL                 CCN000096000000096000FN00000000020221001000096000NNE   20220916121049W4514P0P  00001600000000664000000994332W451  HJ32W9  006400630017
BI00B32W4    4500200565     202210207116-4231-02             TERMINAL                 CCN001014000001014000FN00000000020221001001014000NNE   20220916121049W4514P0P  00002600000000683800001012532W451  HJ32W9  006400630017
BI00B32W4    4500200565     202210207116-6041                TERMINAL                 CCN000045000000045000FN00000000020221001000045000NNE   20220916121049W4514P0P  00000450000000716000001009632W451  HJ32W9  006400630015
BI00B32W4    4500200565     202210207116-6042                TERMINAL                 CCN000006000000006000FN00000000020221001000006000NNE   20220916121049W4514P0P  00000300000000523800000856132W451  HJ32W9  006400630015
BI00B32W4    4500200565     202210207283-1020                CONNECTOR                CCN000120000000120000FN00000000020221001000120000NNE   20220916121049W4514N0N  00000600000000840000001049332W451  HJ32W9  005600390040
BI00B32W4    4500200565     202210207283-7028-30             CONNECTOR                CCN000030000000030000FN00000000020221001000030000NNE   20220916121049W4514N0N  00000300000001452000001681332W451  HJ32W9  005600390040
BI00B32W4    #4500200565    202210207158-3610-80             RUBBER STOPPER           CCN000009000000009000FN00000000020221001000009000NNE   20220916121049W4512H0H  00000300000000396900000438932W451  HJ32W9  004300270014
BI00B32W4    #4500200565    202210207114-4022                TERMINAL                 CCN000015000000015000FN00000000020221001000015000NNE   20220916121049W4512F0P  00001500000000708000001120632W451  HJ32W9  006400630015
BI00B32W4    #4500200565    202210207147-8931-30             CLIP                     CCN000004500000004500FN00000000020221001000004500NNE   20220916121049W4512F0F  00000450000000387000000531732W451  HJ32W9  005600390023
BI00B32W4    #4500200565    202210207186-8845                HOUSING MALE             CCN000009000000009000FN00000000020221001000009000NNE   20220916121049W4512F0F  00000300000000690000000801532W451  HJ32W9  005400370024
BI00B32W4    #4500200565    202210207283-8397-40             CONNECTOR                CCN000030800000030800FN00000000020221001000030800NNE   20220916121049W4512N0N  00000154000001007000001222732W451  HJ32W9  005600390023
BI00B32W4    @4500200565    202210207283-3030                HOUSING FEMALE ASS'Y     CCN000016000000016000FN00000000020221001000016000NNE   20220916121049W4513N0N  00000160000001056300001275032W451  HJ32W9  005500360039
BI00A32W4    4500200590     202210277114-4112-02             TERMINAL                 CCN000027000000027000FN00000000020221001000027000NNE   20220916121049W4524P0P  00000900000000598500000927132W452  HJYHK   006400630017
BI00A32W4    4500200590     202210277116-4111-02             TERMINAL                 CCN000015000000015000FN00000000020221001000015000NNE   20220916121049W4524P0P  00000750000000529500000817732W452  HJYHK   006400630015
BI00A32W4    #4500200593    202302027158-3015-10             RUBBER STOPPER           CCN000020000000020000FN00000000020230201000020000NNE   20220916121049W4J22C0C  00001000000000419500000474032W4J2  HJYHK-J 002700430014
BI00A32W4    4500200604     202211077116-4112-02             TERMINAL                 CCN000006000000006000FN00000000020221101000006000NNE   20220916121049W4424P0P  00000600000000450000000738232W442  HJYHK   006400630015
BI00A32W4    4500200605     202211147282-5574-10             CONNECTOR                CCN000000800000000800FN00000000020221101000000800NNE   20220916121049W4424N0N  00000080000001235000001423032W442  HJYHK   005600390040
BI00B32W4    4500200621     202210067158-3169-40             SEALING PLUG             CCN001000000001000000FN00000000020221001001000000NNE   20220916121049W4B71C0C  00004000000000156000000204132W4B7  HJYHK-J 004300260014
BI00B32W4    4500200621     202210067158-3168-80             SEALED                   CCN001000000001000000FN00000000020221001001000000NNE   20220916121049W4B71C0C  00002000000000044000000092132W4B7  HJYHK-J 004300260014
BI00B32W9    4500200566     202211087287-7975-4W             SQUIB SUB ASS'Y          CCN000020000000020000FN00000000020221101000020000NNE   20220916121049W9  4N0N  00001000000000837000001017032W9    HKYHK   005400370024
BI00B32W9    4500200566     202211087289-6868-30             SEALED ASSY FEMALE       CCN000002520000002520FN00000000020221101000002520NNE   20220916121049W9  4N0N  00000252000000839200001119232W9    HKYHK   005500360039
BI00B32W9    4500200566     202211087158-3022-80             RUBBER STOPPER           CCN000020000000020000FN00000000020221101000020000NNE   20220916121049W9  1C0C  00000500000000467500000524032W9    HKYHK   002700430014
BI00B32W9    #4500200583    202210117157-7812                SEAL RUBBER              CCN000030000000030000FN00000000020221001000030000NNE   20220916121049W9  2C0C  00001000000000137000000202032W9    HKYHK   002700430014
BI00B32W9    4500200595     202210047158-3169-40             SEALING PLUG             CCN000040000000040000FN00000000020221001000040000NNE   20220916121049W9  1C0C  00004000000000156000000204132W9    HKYHK   004300260014
BI00B32W9    4500200596     202210117158-3169-40             SEALING PLUG             CCN000040000000040000FN00000000020221001000040000NNE   20220916121049W9  1C0C  00004000000000156000000204132W9    HKYHK   004300260014
BI00B32W9    4500200597     202211017158-3169-40             SEALING PLUG             CCN000040000000040000FN00000000020221101000040000NNE   20220916121049W9  1C0C  00004000000000156000000204132W9    HKYHK   004300260014
BI00B32W9    4500200601     202211017114-4100-02             TERMINAL                 CCN000018000000018000FN00000000020221101000018000NNE   20220916121049W9  4P0P  00001800000000748800001077432W9    HKYHK   006400630017
BI00B32W9    4500200618     202210117283-1020                CONNECTOR                CCN000006000000006000FN00000000020221001000006000NNE   20220916121049W9  4N0N  00000600000000840000001049332W9    HKYHK   005600390040
BI00B32W9    4500200619     202210257116-4100-02             TERMINAL                 CCN000015000000015000FN00000000020221001000015000NNE   20220916121049W9  4P0P  00001500000000696000000990232W9    HKYHK   006400630015
