AE00TI102209160516/09/202200000002200000000000000004092KGM  00000005157KGM  7B72-5540-80             SEALED WIRE SEAL         7B72554080               0         0         0         0    0    0    00044000000002000000000010000044000000
AE00TI102209160516/09/202200000000100000000000000000623KGM  00000000762KGM  7B74-1849-70             COVER                    7B74184970               0         0         0         0    0    0    00002500000002500000000046000011500000
AE00TI102209160516/09/202200000001600000000000000010482KGM  00000015045KGM  7116-1486-02             TERMINAL                 7116148602               0         0         0         0    0    0    00026400000001650000000028000073920000
AE00TI102209160516/09/202200000001600000000000000009139KGM  00000013750KGM  7116-4103-02             TERMINAL                 7116410302               0         0         0         0    0    0    00019200000001200000000037000071040000
AE00TI102209160516/09/202200000001600000000000000011088KGM  00000015699KGM  7116-4114-02             TERMINAL                 7116411402               0         0         0         0    0    0    00016800000001050000000059000099120000
AE00TI102209160516/09/202200000000700000000000000004176KGM  00000006480KGM  7116-4415-02             TERMINAL                 7116441502               0         0         0         0    0    0    00026600000003800000000016000042560000
AE00TI102209160516/09/202200000003500000000000000018144KGM  00000029649KGM  7116-4416-02             TERMINAL                 7116441602               0         0         0         0    0    0    00112000000003200000000016000179200000
AE00TI102209160516/09/202200000000200000000000000001357KGM  00000002014KGM  7116-5045-02             TERMINAL                 7116504502               0         0         0         0    0    0    00003200000001600000000030000009600000
AE00TI102209160516/09/202200000000800000000000000001364KGM  00000001751KGM  7137-3047-30             UNIT PACKING             7137304730               0         0         0         0    0    0    00000800000000100000000189000015120000
AE00TI102209160516/09/202200000002800000000000000009257KGM  00000010808KGM  7158-3006-90             RUBBER STOPPER           7158300690               0         0         0         0    0    0    00056000000002000000000016000089600000
AE00TI102209160516/09/202200000001800000000000000006084KGM  00000006952KGM  7158-3009-60             RUBBER STOPPER           7158300960               0         0         0         0    0    0    00036000000002000000000012000043200000
AE00TI102209160516/09/202200000001800000000000000001872KGM  00000002743KGM  7158-3166-60             WIRE SEAL                7158316660               0         0         0         0    0    0    00072000000004000000000004000028800000
AE00TI102209160516/09/202200000002000000000000000000960KGM  00000002180KGM  7158-3167-80             WIRE SEAL                7158316780               0         0         0         0    0    0    00040000000002000000000005000020000000
AE00TI102209160516/09/202200000000700000000000000000308KGM  00000000645KGM  7158-3168-80             SEALED                   7158316880               0         0         0         0    0    0    00014000000002000000000004000005600000
AE00TI102209160516/09/202200000000700000000000000001092KGM  00000001429KGM  7158-3169-40             SEALING PLUG             7158316940               0         0         0         0    0    0    00028000000004000000000006000016800000
AE00TI102209160516/09/202200000000200000000000000001736KGM  00000002136KGM  7173-3291-40             LIF LEVER                7173329140               0         0         0         0    0    0    00000480000000240000000142000006816000
AE00TI102209160516/09/202200000000500000000000000003113KGM  00000003810KGM  7174-1849-70             COVER                    7174184970               0         0         0         0    0    0    00012500000002500000000046000057500000
AE00TI102209160516/09/202200000004000000000000000009504KGM  00000019504KGM  7271-1818-30             CASE SUB ASSY,ECU        7271181830               0         0         0         0    0    0    00000072000000001800009388000067593600
AE00TI102209160516/09/202200000000100000000000000000894KGM  00000001185KGM  7287-9234                JOINT CONNECTOR          72879234                 0         0         0         0    0    0    00000960000000960000000137000013152000
AE00TI102209160516/09/202200000000600000000000000005197KGM  00000006067KGM  7288-3329-30             HOUSING MALE             7288332930               0         0         0         0    0    0    00000900000000150000000354000031860000
AE00TI102209160516/09/202200000000100000000000000000867KGM  00000001012KGM  7288-3337-30             HOUSING MALE             7288333730               0         0         0         0    0    0    00000150000000150000000354000005310000
AE00TI102209160516/09/202200000000200000000000000001734KGM  00000002024KGM  7288-3339-30             HOUSING MALE             7288333930               0         0         0         0    0    0    00000300000000150000000354000010620000
AE00TI102209160516/09/202200000001000000000000000006864KGM  00000009014KGM  7289-3342                HOUSING FEMALE ASS'Y     72893342                 0         0         0         0    0    0    00002400000000240000000186000044640000
AE00TI102209160516/09/202200000000200000000000000002579KGM  00000003079KGM  7289-6597-70             HOUSING FEMALE ASS'Y     7289659770               0         0         0         0    0    0    00000432000000216000000616000026611200
AE00TI102209160516/09/202200000001800000000000000018058KGM  00000021681KGM  7298-1865-30             HOUSING FEMALE ASS'Y     7298186530               0         0         0         0    0    0    00004320000000240000000196000084672000
AE00TI102209160516/09/202200000000500000000000000005548KGM  00000006298KGM  7327-6572-3W             BATTERY FUSE             732765723W               0         0         0         0    0    0    00000048000000009600008162000039177600
AE00TI102209160516/09/202200000002500000000000000028523KGM  00000033898KGM  7327-6840-3W             BATTERY FUSE             732768403W               0         0         0         0    0    0    00000180000000007200009909000178362000
AE00TI102209160516/09/202200000001500000000000000011130KGM  00000016830KGM  7388-2978-30             HOUSING MALE ASS'Y       7388297830               0         0         0         0    0    0    00000720000000048000001790000128880000
AE00TI102209160616/09/202200000000800000000000000009288KGM  00000010757KGM  7116-2641                TERMINAL                 71162641                 0         0         0         0    0    0    00014400000001800000000030000043200000
AE00TI102209160616/09/202200000001600000000000000012538KGM  00000016323KGM  7116-2870                TERMINAL                 71162870                 0         0         0         0    0    0    00019200000001200000000042000080640000
AE00TI102209160616/09/202200000000800000000000000006739KGM  00000008581KGM  7116-2871                TERMINAL                 71162871                 0         0         0         0    0    0    00009600000001200000000043000041280000
AE00TI102209160616/09/202200000001600000000000000013094KGM  00000015709KGM  7116-2892-02             TERMINAL                 7116289202               0         0         0         0    0    0    00019200000001200000000053000101760000
AE00TI102209160616/09/202200000004000000000000000009504KGM  00000019504KGM  7271-1818-30             CASE SUB ASSY,ECU        7271181830               0         0         0         0    0    0    00000072000000001800009388000067593600
AE00TI102209160616/09/202200000001200000000000000015840KGM  00000018840KGM  7470-4481                J/B COMPLETE ASS'Y       74704481                 0         0         0         0    0    0    00000028800000002400000000000000000000
AE00TI102209160616/09/202200000001600000000000000000000KGM  00000000000KGM  7470-4816D               J/B COMPLETE ASS'Y       74704816D                0         0         0         0    0    0    00000024000000001500000000000000000000
AE00TI102209160616/09/202200000000600000000000000007920KGM  00000009420KGM  7470-5237                J/B ASS'Y                74705237                 0         0         0         0    0    0    00000014400000002400031359000045156960
AE00TI102209160616/09/202200000001000000000000000000000KGM  00000000000KGM  7470-5782D               J/B COMPLETE ASS'Y       74705782D                0         0         0         0    0    0    00000015000000001500000000000000000000
AE00TI102209160616/09/202200000002500000000000000000000KGM  00000000000KGM  7470-5783D               J/B COMPLETE ASS'Y       74705783D                0         0         0         0    0    0    00000037500000001500000000000000000000
AE00TI102209160616/09/202200000002900000000000000000000KGM  00000000000KGM  7470-5783E               J/B COMPLETE ASS'Y       74705783E                0         0         0         0    0    0    00000029000000001000000000000000000000
AE00TI102209160616/09/202200000000600000000000000000000KGM  00000000000KGM  7470-5784E               J/B COMPLETE ASS'Y       74705784E                0         0         0         0    0    0    00000006000000001000000000000000000000
AE00TI102209160616/09/202200000001700000000000000000000KGM  00000000000KGM  7470-5858D               J/B COMPLETE ASS'Y       74705858D                0         0         0         0    0    0    00000017000000001000000000000000000000
