BI00B32AF    @TTB2112       20221021181AD2009ZZ              CIVUSAS-S 0.5X3 B        CCN000000300000000000FY00000000020221101000000000NNM10 20220916115644    1W    00000030000002716800000000032AF    HBYHVTB 000000000000UZ12A019
BI00B32AG    @XG2211AQMW    20221028181E48027ZZ              CAVSAS-S 0.5X2 GY/P      CCN000000300000000300FN00000000020221101000000300NNE   20220916102613    1W    00000030000002561000000000032AG    XGXGY   000000000000XQ22A001
BI00B32AG    @XG2211AQMW    20221028181E48018ZZ              CAVSAS-S 0.5X2 GY/SB     CCN000000300000000300FN00000000020221101000000300NNE   20220916102613    1W    00000030000002561000000000032AG    XGXGY   000000000000XQ22A002
BI00B32CJ    TTQ2113        202210281801W006940              IVSSH 0.35F W            CCN000002500000000000FY00000000020221101000000000NNM10 20220916161701    1W    00000250000000452000000000032CJ    QNYHVQN 000000000000UQ22A030
BI00B32CJ    TTQ2114        202211041801W003940              IVSSH 0.5F W             CCN000001800000000000FY00000000020221101000000000NNM10 20220916161721    1W    00000180000000625000000000032CJ    QNYHVQN 000000000000UQ32A031
BI00B32DE    @TT210E        20220922181E50000ZZ              AVSSCS-S 0.5FX1 DGY/BR   CCN000002400000002400FN00000000020221001000002400NNE21 20220916104146    1W    00000040000001909700000000032DE    TVYEV-TV000000000000VS229001
BI00B32DE    @TT210E        20220922181E50005ZZ              AVSSCS-S 0.5FX1 DGY/W    CCN000001600000001600FN00000000020221001000001600NNE21 20220916104146    1W    00000040000001909700000000032DE    TVYEV-TV000000000000VS229003
BI00B32G2    SA2210B MW     202210051801W003960              IVSSH 0.5F G             CCN000023400000023400FN00000000020221001000023400NNE   20220916102208    1W    00000180000000625000000000032G2    AISUAI  000000000000IU329003
BI00B32G2    SA2210B MW     202210051801W003990              IVSSH 0.5F L             CCN000009000000009000FN00000000020221001000009000NNE   20220916102208    1W    00000180000000625000000000032G2    AISUAI  000000000000IU329004
BI00B32G2    SA2210B MW     202210051801W004041              IVSSH 0.75F GY           CCN000001300000001300FN00000000020221001000001300NNE   20220916102208    1W    00000130000000882000000000032G2    AISUAI  000000000000IU329005
BI00B32G2    SA2210B MW     202210051801W006961              IVSSH 0.35F LG           CCN000007500000007500FN00000000020221001000007500NNE   20220916102208    1W    00000250000000452000000000032G2    AISUAI  000000000000IU329006
BI00B32G2    SA2210CJMW     202210051801W003930              IVSSH 0.5F B             CCN000012600000012600FN00000000020221001000012600NNE   20220916102209    1W    00000180000000625000000000032G2    AISUAI  000000000000IV329002
BI00B32G2    SA2210CJMW     202210051801W003940              IVSSH 0.5F W             CCN000028800000028800FN00000000020221001000028800NNE   20220916102209    1W    00000180000000625000000000032G2    AISUAI  000000000000IV329008
BI00B32G2    SA2210CJMW     202210051801W003943              IVSSH 0.5F W/B           CCN000005400000005400FN00000000020221001000005400NNE   20220916102209    1W    00000180000000625000000000032G2    AISUAI  000000000000IV329009
BI00B32G2    SA2210CJMW     202210051801W003950              IVSSH 0.5F R             CCN000023400000023400FN00000000020221001000023400NNE   20220916102209    1W    00000180000000625000000000032G2    AISUAI  000000000000IV329005
BI00B32G2    SA2210CJMW     202210051801W003952              IVSSH 0.5F P             CCN000001800000001800FN00000000020221001000001800NNE   20220916102209    1W    00000180000000625000000000032G2    AISUAI  000000000000IV329004
BI00B32G2    SA2210CJMW     202210051801W003970              IVSSH 0.5F Y             CCN000009000000009000FN00000000020221001000009000NNE   20220916102209    1W    00000180000000625000000000032G2    AISUAI  000000000000IV329010
BI00B32G2    SA2210CJMW     202210051801W003980              IVSSH 0.5F BR            CCN000009000000009000FN00000000020221001000009000NNE   20220916102209    1W    00000180000000625000000000032G2    AISUAI  000000000000IV329003
BI00B32G2    SA2210CJMW     202210051801W003991              IVSSH 0.5F SB            CCN000001800000001800FN00000000020221001000001800NNE   20220916102209    1W    00000180000000625000000000032G2    AISUAI  000000000000IV329006
BI00B32G2    SA2210CJMW     202210051801W003992              IVSSH 0.5F V             CCN000005400000005400FN00000000020221001000005400NNE   20220916102209    1W    00000180000000625000000000032G2    AISUAI  000000000000IV329007
BI00B32G2    SA2210CJMW     202210051801W004060              IVSSH 0.75F G            CCN000003900000003900FN00000000020221001000003900NNE   20220916102209    1W    00000130000000882000000000032G2    AISUAI  000000000000IV329012
BI00B32G2    SA2210CJMW     202210051801W004061              IVSSH 0.75F LG           CCN000003900000003900FN00000000020221001000003900NNE   20220916102209    1W    00000130000000882000000000032G2    AISUAI  000000000000IV329013
BI00B32G2    SA2210CJMW     202210051801W004080              IVSSH 0.75F BR           CCN000002600000002600FN00000000020221001000002600NNE   20220916102209    1W    00000130000000882000000000032G2    AISUAI  000000000000IV329011
BI00B32G2    SA2210CJMW     202210051801W006940              IVSSH 0.35F W            CCN000007500000007500FN00000000020221001000007500NNE   20220916102209    1W    00000250000000452000000000032G2    AISUAI  000000000000IV329017
BI00B32G2    SA2210CJMW     202210051801W006950              IVSSH 0.35F R            CCN000005000000005000FN00000000020221001000005000NNE   20220916102209    1W    00000250000000452000000000032G2    AISUAI  000000000000IV329015
BI00B32G2    SA2210CJMW     202210051801W006952              IVSSH 0.35F P            CCN000007500000007500FN00000000020221001000007500NNE   20220916102209    1W    00000250000000452000000000032G2    AISUAI  000000000000IV329014
BI00B32G2    SA2210CJMW     202210051801W006991              IVSSH 0.35F SB           CCN000005000000005000FN00000000020221001000005000NNE   20220916102209    1W    00000250000000452000000000032G2    AISUAI  000000000000IV329016
BI00B32G2    SA2211A MW     202210121801W003960              IVSSH 0.5F G             CCN000018000000018000FN00000000020221101000018000NNE   20220916102210    1W    00000180000000625000000000032G2    AISUAI  000000000000IP429001
BI00B32G2    SA2211A MW     202210121801W006961              IVSSH 0.35F LG           CCN000005000000005000FN00000000020221101000005000NNE   20220916102210    1W    00000250000000452000000000032G2    AISUAI  000000000000IP429002
BI00B32G2    SA2211AJMW     202210121801W003930              IVSSH 0.5F B             CCN000009000000009000FN00000000020221101000009000NNE   20220916102211    1W    00000180000000625000000000032G2    AISUAI  000000000000IO429001
BI00B32G2    SA2211AJMW     202210121801W003940              IVSSH 0.5F W             CCN000027000000027000FN00000000020221101000027000NNE   20220916102211    1W    00000180000000625000000000032G2    AISUAI  000000000000IO429005
BI00B32G2    SA2211AJMW     202210121801W003943              IVSSH 0.5F W/B           CCN000003600000003600FN00000000020221101000003600NNE   20220916102211    1W    00000180000000625000000000032G2    AISUAI  000000000000IO429006
BI00B32G2    SA2211AJMW     202210121801W003950              IVSSH 0.5F R             CCN000023400000023400FN00000000020221101000023400NNE   20220916102211    1W    00000180000000625000000000032G2    AISUAI  000000000000IO429003
BI00B32G2    SA2211AJMW     202210121801W003970              IVSSH 0.5F Y             CCN000009000000009000FN00000000020221101000009000NNE   20220916102211    1W    00000180000000625000000000032G2    AISUAI  000000000000IO429007
BI00B32G2    SA2211AJMW     202210121801W003980              IVSSH 0.5F BR            CCN000005400000005400FN00000000020221101000005400NNE   20220916102211    1W    00000180000000625000000000032G2    AISUAI  000000000000IO429002
BI00B32G2    SA2211AJMW     202210121801W003992              IVSSH 0.5F V             CCN000003600000003600FN00000000020221101000003600NNE   20220916102211    1W    00000180000000625000000000032G2    AISUAI  000000000000IO429004
BI00B32G2    SA2211AJMW     202210121801W004080              IVSSH 0.75F BR           CCN000002600000002600FN00000000020221101000002600NNE   20220916102211    1W    00000130000000882000000000032G2    AISUAI  000000000000IO429008
BI00B32G2    SA2211AJMW     202210121801W006952              IVSSH 0.35F P            CCN000005000000005000FN00000000020221101000005000NNE   20220916102211    1W    00000250000000452000000000032G2    AISUAI  000000000000IO429009
BI00B32G2    SA2211AJMW     202210121801W006991              IVSSH 0.35F SB           CCN000002500000002500FN00000000020221101000002500NNE   20220916102211    1W    00000250000000452000000000032G2    AISUAI  000000000000IO429010
BI00B32G7    @JW2211A MW    20221006181E48032ZZ              CAVSAS-S 0.3X2 GY/P      CCN000002100000001750FN00000000020221101000001750NNE00 20220916103549    1W    00000035000002008700000000032G7    JIJAI   000000000000JO329001
BI00A32G7    @JW2211A MW    20220916181E48032ZZ              CAVSAS-S 0.3X2 GY/P      CCN000000350000000350FY00000035020221101000000000NNE20 20220916152949    1W    00000035000002008700000000032G7    JIJAI   000000000000JO329001
BI00B32J1    @398388        20221010181AD2009ZZ              CIVUSAS-S 0.5X3 B        CCN000003000000003000FN00000000020221001000003000NNE   20220916110838    1W    00000030000002716800000000032J1    UKYEL-BL000000000000KG429001
BI00B32M3    SM2210AEMW     202210061800770375U              AVSS 0.3F BE             CCN000004000000004000FN00000000020221001000004000NNE   20220916154615    1W    00000200000000496000000000032M3    SASAMI  000000000000QL329001
BI00B32M3    SM2210AEMW     2022100618007704192              AVSS 1.25F V             CCN000001600000001600FN00000000020221001000001600NNE   20220916154615    1W    00000080000001389000000000032M3    SASAMI  000000000000QL329002
BI00B32M3    SM2210AEMW     2022100618007704140              AVSS 1.25F W             CCN000000800000000800FN00000000020221001000000800NNE   20220916154615    1W    00000080000001389000000000032M3    SASAMI  000000000000QL329003
BI00B32M3    SM2210AHMW     2022100618007704030              AVSS 0.75F B             CCN000032000000032000FN00000000020221001000032000NNE   20220916154616    1W    00000100000000943000000000032M3    SASAMI  000000000000QJ329001
BI00B32M3    SM2210AHMW     2022100618007704130              AVSS 1.25F B             CCN000004800000004800FN00000000020221001000004800NNE   20220916154616    1W    00000080000001389000000000032M3    SASAMI  000000000000QJ329002
BI00B32M3    @SM2210AMMW    20221006181E50011ZZ              AVSSCS-S 0.5FX2 DGY/Y    CCN000001500000001500FN00000000020221001000001500NNE   20220916154614    1W    00000030000003096000000000032M3    SASAMI  000000000000QI429001
BI00B32M3    SM2210D MW     2022100618007703780              AVSS 0.3F BR             CCN000002000000002000FN00000000020221001000002000NNE   20220916154616    1W    00000200000000496000000000032M3    SASAMI  000000000000QP329001
BI00B32M3    SM2210D MW     2022100618007703930              AVSS 0.5F B              CCN000043500000043500FN00000000020221001000043500NNE   20220916154616    1W    00000150000000674000000000032M3    SASAMI  000000000000QP329002
BI00B32M3    SM2210D MW     2022100618007703960              AVSS 0.5F G              CCN000001500000001500FN00000000020221001000001500NNE   20220916154616    1W    00000150000000674000000000032M3    SASAMI  000000000000QP329003
BI00B32M3    SM2210D MW     2022100618007703952              AVSS 0.5F P              CCN000010500000010500FN00000000020221001000010500NNE   20220916154616    1W    00000150000000674000000000032M3    SASAMI  000000000000QP329004
BI00B32M3    SM2210D MW     2022100618007703950              AVSS 0.5F R              CCN000003000000003000FN00000000020221001000003000NNE   20220916154616    1W    00000150000000674000000000032M3    SASAMI  000000000000QP329005
BI00B32M3    SM2210D MW     2022100618007703991              AVSS 0.5F SB             CCN000003000000003000FN00000000020221001000003000NNE   20220916154616    1W    00000150000000674000000000032M3    SASAMI  000000000000QP329006
BI00B32M3    SM2210D MW     2022100618007703970              AVSS 0.5F Y              CCN000001500000001500FN00000000020221001000001500NNE   20220916154616    1W    00000150000000674000000000032M3    SASAMI  000000000000QP329007
BI00B32M3    SM2210D MW     2022100618007704180              AVSS 1.25F BR            CCN000003200000003200FN00000000020221001000003200NNE   20220916154616    1W    00000080000001389000000000032M3    SASAMI  000000000000QP329008
BI00B32M3    SM2210D MW     2022100618007704160              AVSS 1.25F G             CCN000001600000001600FN00000000020221001000001600NNE   20220916154616    1W    00000080000001389000000000032M3    SASAMI  000000000000QP329009
BI00B32M3    SM2210D MW     2022100618007704190              AVSS 1.25F L             CCN000001600000001600FN00000000020221001000001600NNE   20220916154616    1W    00000080000001389000000000032M3    SASAMI  000000000000QP329010
BI00B32M3    SM2210D MW     2022100618007704161              AVSS 1.25F LG            CCN000003200000003200FN00000000020221001000003200NNE   20220916154616    1W    00000080000001389000000000032M3    SASAMI  000000000000QP329011
BI00B32M3    SM2210D MW     2022100618007704150              AVSS 1.25F R             CCN000001600000001600FN00000000020221001000001600NNE   20220916154616    1W    00000080000001389000000000032M3    SASAMI  000000000000QP329012
BI00B32Q8    EW22121 MW     2022101918000004530              AV 8 B                   CCN000027000000027000FN00000000020221201000027000NNM   20220916100822    1W    00000010000010466200000000032Q8    EMEMI   000000000000MI12A020
BI00B32Q8    EW22122 MW     2022102618000004530              AV 8 B                   CCN000027700000027700FN00000000020221201000027700NNM   20220916100822    1W    00000010000010466200000000032Q8    EMEMI   000000000000MI22A026
BI00B32Q8    EW22123 MW     2022110218000004530              AV 8 B                   CCN000041200000041200FN00000000020221201000041200NNM   20220916100822    1W    00000010000010466200000000032Q8    EMEMI   000000000000MI32A027
BI00B32Q8    EW22124 MW     2022110918000004530              AV 8 B                   CCN000030700000030700FN00000000020221201000030700NNM   20220916100822    1W    00000010000010466200000000032Q8    EMEMI   000000000000MI42A030
BI00B32Q8    EW22122 MW     2022102618000004590              AV 8 L                   CCN000003100000003100FN00000000020221201000003100NNM   20220916100822    1W    00000010000010466200000000032Q8    EMEMI   000000000000MI22A027
BI00B32Q8    EW22123 MW     2022110218000004590              AV 8 L                   CCN000007900000007900FN00000000020221201000007900NNM   20220916100822    1W    00000010000010466200000000032Q8    EMEMI   000000000000MI32A028
BI00B32Q8    EW22124 MW     2022110918000004590              AV 8 L                   CCN000006100000006100FN00000000020221201000006100NNM   20220916100822    1W    00000010000010466200000000032Q8    EMEMI   000000000000MI42A031
BI00B32Q8    EW22121 MW     2022101918000004540              AV 8 W                   CCN000008700000008700FN00000000020221201000008700NNM   20220916100822    1W    00000010000010466200000000032Q8    EMEMI   000000000000MI12A021
BI00B32Q8    EW22122 MW     2022102618000004540              AV 8 W                   CCN000008400000008400FN00000000020221201000008400NNM   20220916100822    1W    00000010000010466200000000032Q8    EMEMI   000000000000MI22A028
BI00B32Q8    EW22123 MW     2022110218000004540              AV 8 W                   CCN000012500000012500FN00000000020221201000012500NNM   20220916100822    1W    00000010000010466200000000032Q8    EMEMI   000000000000MI32A029
BI00B32Q8    EW22124 MW     2022110918000004540              AV 8 W                   CCN000009200000009200FN00000000020221201000009200NNM   20220916100822    1W    00000010000010466200000000032Q8    EMEMI   000000000000MI42A032
BI00B32Q8    EW22123 MW     2022110218009604460              AVS 5 G                  CCN000000800000000800FN00000000020221201000000800NNM   20220916100822    1W    00000020000005981000000000032Q8    EMEMI   000000000000MI32A048
BI00B32Q8    EW22124 MW     2022110918009604460              AVS 5 G                  CCN000003800000003800FN00000000020221201000003800NNM   20220916100822    1W    00000020000005981000000000032Q8    EMEMI   000000000000MI42A053
BI00B32Q8    EW22124 MW     2022110918009604450              AVS 5 R                  CCN000007000000007000FN00000000020221201000007000NNM   20220916100822    1W    00000020000005981000000000032Q8    EMEMI   000000000000MI42A054
BI00B32Q8    EW22121 MW     2022101918009604440              AVS 5 W                  CCN000009000000009000FN00000000020221201000009000NNM   20220916100822    1W    00000020000005981000000000032Q8    EMEMI   000000000000MI12A032
BI00B32Q8    EW22122 MW     2022102618009604440              AVS 5 W                  CCN000015000000015000FN00000000020221201000015000NNM   20220916100822    1W    00000020000005981000000000032Q8    EMEMI   000000000000MI22A045
BI00B32Q8    EW22123 MW     2022110218009604440              AVS 5 W                  CCN000022000000022000FN00000000020221201000022000NNM   20220916100822    1W    00000020000005981000000000032Q8    EMEMI   000000000000MI32A049
BI00B32Q8    EW22124 MW     2022110918009604440              AVS 5 W                  CCN000016200000016200FN00000000020221201000016200NNM   20220916100822    1W    00000020000005981000000000032Q8    EMEMI   000000000000MI42A055
BI00B32Q8    EW22121 MW     2022101918007703730              AVSS 0.3F B              CCN000056000000056000FN00000000020221201000056000NNM   20220916100822    1W    00000200000000496000000000032Q8    EMEMI   000000000000MI12A022
BI00B32Q8    EW22122 MW     2022102618007703730              AVSS 0.3F B              CCN000086000000086000FN00000000020221201000086000NNM   20220916100822    1W    00000200000000496000000000032Q8    EMEMI   000000000000MI22A029
BI00B32Q8    EW22123 MW     2022110218007703730              AVSS 0.3F B              CCN000112000000112000FN00000000020221201000112000NNM   20220916100822    1W    00000200000000496000000000032Q8    EMEMI   000000000000MI32A030
BI00B32Q8    EW22124 MW     2022110918007703730              AVSS 0.3F B              CCN000078000000078000FN00000000020221201000078000NNM   20220916100822    1W    00000200000000496000000000032Q8    EMEMI   000000000000MI42A033
BI00B32Q8    EW22122 MW     2022102618007703780              AVSS 0.3F BR             CCN000024000000024000FN00000000020221201000024000NNM   20220916100822    1W    00000200000000496000000000032Q8    EMEMI   000000000000MI22A030
BI00B32Q8    EW22123 MW     2022110218007703780              AVSS 0.3F BR             CCN000068000000068000FN00000000020221201000068000NNM   20220916100822    1W    00000200000000496000000000032Q8    EMEMI   000000000000MI32A031
BI00B32Q8    EW22124 MW     2022110918007703780              AVSS 0.3F BR             CCN000046000000046000FN00000000020221201000046000NNM   20220916100822    1W    00000200000000496000000000032Q8    EMEMI   000000000000MI42A034
BI00B32Q8    EW22121 MW     2022101918007703760              AVSS 0.3F G              CCN000056000000056000FN00000000020221201000056000NNM   20220916100822    1W    00000200000000496000000000032Q8    EMEMI   000000000000MI12A023
BI00B32Q8    EW22122 MW     2022102618007703760              AVSS 0.3F G              CCN000064000000064000FN00000000020221201000064000NNM   20220916100822    1W    00000200000000496000000000032Q8    EMEMI   000000000000MI22A031
BI00B32Q8    EW22123 MW     2022110218007703760              AVSS 0.3F G              CCN000084000000084000FN00000000020221201000084000NNM   20220916100822    1W    00000200000000496000000000032Q8    EMEMI   000000000000MI32A032
BI00B32Q8    EW22124 MW     2022110918007703760              AVSS 0.3F G              CCN000056000000056000FN00000000020221201000056000NNM   20220916100822    1W    00000200000000496000000000032Q8    EMEMI   000000000000MI42A035
BI00B32Q8    EW22124 MW     2022110918007703741              AVSS 0.3F GY             CCN000004000000004000FN00000000020221201000004000NNM   20220916100822    1W    00000200000000496000000000032Q8    EMEMI   000000000000MI42A036
BI00B32Q8    EW22122 MW     2022102618007703790              AVSS 0.3F L              CCN000030000000030000FN00000000020221201000030000NNM   20220916100822    1W    00000200000000496000000000032Q8    EMEMI   000000000000MI22A032
BI00B32Q8    EW22123 MW     2022110218007703790              AVSS 0.3F L              CCN000104000000104000FN00000000020221201000104000NNM   20220916100822    1W    00000200000000496000000000032Q8    EMEMI   000000000000MI32A033
BI00B32Q8    EW22124 MW     2022110918007703790              AVSS 0.3F L              CCN000072000000072000FN00000000020221201000072000NNM   20220916100822    1W    00000200000000496000000000032Q8    EMEMI   000000000000MI42A037
BI00B32Q8    EW22121 MW     2022101918007703761              AVSS 0.3F LG             CCN000062000000062000FN00000000020221201000062000NNM   20220916100822    1W    00000200000000496000000000032Q8    EMEMI   000000000000MI12A024
BI00B32Q8    EW22122 MW     2022102618007703761              AVSS 0.3F LG             CCN000080000000080000FN00000000020221201000080000NNM   20220916100822    1W    00000200000000496000000000032Q8    EMEMI   000000000000MI22A033
BI00B32Q8    EW22123 MW     2022110218007703761              AVSS 0.3F LG             CCN000106000000106000FN00000000020221201000106000NNM   20220916100822    1W    00000200000000496000000000032Q8    EMEMI   000000000000MI32A034
BI00B32Q8    EW22124 MW     2022110918007703761              AVSS 0.3F LG             CCN000074000000074000FN00000000020221201000074000NNM   20220916100822    1W    00000200000000496000000000032Q8    EMEMI   000000000000MI42A038
BI00B32Q8    EW22121 MW     2022101918007703752              AVSS 0.3F P              CCN000048000000048000FN00000000020221201000048000NNM   20220916100822    1W    00000200000000496000000000032Q8    EMEMI   000000000000MI12A025
BI00B32Q8    EW22122 MW     2022102618007703752              AVSS 0.3F P              CCN000042000000042000FN00000000020221201000042000NNM   20220916100822    1W    00000200000000496000000000032Q8    EMEMI   000000000000MI22A034
BI00B32Q8    EW22123 MW     2022110218007703752              AVSS 0.3F P              CCN000060000000060000FN00000000020221201000060000NNM   20220916100822    1W    00000200000000496000000000032Q8    EMEMI   000000000000MI32A035
BI00B32Q8    EW22124 MW     2022110918007703752              AVSS 0.3F P              CCN000040000000040000FN00000000020221201000040000NNM   20220916100822    1W    00000200000000496000000000032Q8    EMEMI   000000000000MI42A039
BI00B32Q8    EW22121 MW     2022101918007703750              AVSS 0.3F R              CCN000052000000052000FN00000000020221201000052000NNM   20220916100822    1W    00000200000000496000000000032Q8    EMEMI   000000000000MI12A026
BI00B32Q8    EW22122 MW     2022102618007703750              AVSS 0.3F R              CCN000062000000062000FN00000000020221201000062000NNM   20220916100822    1W    00000200000000496000000000032Q8    EMEMI   000000000000MI22A035
BI00B32Q8    EW22123 MW     2022110218007703750              AVSS 0.3F R              CCN000082000000082000FN00000000020221201000082000NNM   20220916100822    1W    00000200000000496000000000032Q8    EMEMI   000000000000MI32A036
BI00B32Q8    EW22124 MW     2022110918007703750              AVSS 0.3F R              CCN000058000000058000FN00000000020221201000058000NNM   20220916100822    1W    00000200000000496000000000032Q8    EMEMI   000000000000MI42A040
BI00B32Q8    EW22121 MW     2022101918007703792              AVSS 0.3F V              CCN000098000000098000FN00000000020221201000098000NNM   20220916100822    1W    00000200000000496000000000032Q8    EMEMI   000000000000MI12A027
BI00B32Q8    EW22122 MW     2022102618007703792              AVSS 0.3F V              CCN000116000000116000FN00000000020221201000116000NNM   20220916100822    1W    00000200000000496000000000032Q8    EMEMI   000000000000MI22A036
BI00B32Q8    EW22123 MW     2022110218007703792              AVSS 0.3F V              CCN000152000000152000FN00000000020221201000152000NNM   20220916100822    1W    00000200000000496000000000032Q8    EMEMI   000000000000MI32A037
BI00B32Q8    EW22124 MW     2022110918007703792              AVSS 0.3F V              CCN000104000000104000FN00000000020221201000104000NNM   20220916100822    1W    00000200000000496000000000032Q8    EMEMI   000000000000MI42A041
BI00B32Q8    EW22121 MW     2022101918007703740              AVSS 0.3F W              CCN000004000000004000FN00000000020221201000004000NNM   20220916100822    1W    00000200000000496000000000032Q8    EMEMI   000000000000MI12A028
BI00B32Q8    EW22122 MW     2022102618007703740              AVSS 0.3F W              CCN000054000000054000FN00000000020221201000054000NNM   20220916100822    1W    00000200000000496000000000032Q8    EMEMI   000000000000MI22A037
BI00B32Q8    EW22123 MW     2022110218007703740              AVSS 0.3F W              CCN000074000000074000FN00000000020221201000074000NNM   20220916100822    1W    00000200000000496000000000032Q8    EMEMI   000000000000MI32A038
BI00B32Q8    EW22124 MW     2022110918007703740              AVSS 0.3F W              CCN000048000000048000FN00000000020221201000048000NNM   20220916100822    1W    00000200000000496000000000032Q8    EMEMI   000000000000MI42A042
BI00B32Q8    EW22121 MW     2022101918007703770              AVSS 0.3F Y              CCN000020000000020000FN00000000020221201000020000NNM   20220916100822    1W    00000200000000496000000000032Q8    EMEMI   000000000000MI12A029
BI00B32Q8    EW22122 MW     2022102618007703770              AVSS 0.3F Y              CCN000082000000082000FN00000000020221201000082000NNM   20220916100822    1W    00000200000000496000000000032Q8    EMEMI   000000000000MI22A038
BI00B32Q8    EW22123 MW     2022110218007703770              AVSS 0.3F Y              CCN000110000000110000FN00000000020221201000110000NNM   20220916100822    1W    00000200000000496000000000032Q8    EMEMI   000000000000MI32A039
BI00B32Q8    EW22124 MW     2022110918007703770              AVSS 0.3F Y              CCN000072000000072000FN00000000020221201000072000NNM   20220916100822    1W    00000200000000496000000000032Q8    EMEMI   000000000000MI42A043
BI00B32Q8    EW22124 MW     2022110918007703930              AVSS 0.5F B              CCN000012000000012000FN00000000020221201000012000NNM   20220916100822    1W    00000150000000674000000000032Q8    EMEMI   000000000000MI42A044
BI00B32Q8    EW22123 MW     2022110218007703941              AVSS 0.5F GY             CCN000016500000016500FN00000000020221201000016500NNM   20220916100822    1W    00000150000000674000000000032Q8    EMEMI   000000000000MI32A040
BI00B32Q8    EW22124 MW     2022110918007703941              AVSS 0.5F GY             CCN000025500000025500FN00000000020221201000025500NNM   20220916100822    1W    00000150000000674000000000032Q8    EMEMI   000000000000MI42A045
BI00B32Q8    EW22123 MW     2022110218007703990              AVSS 0.5F L              CCN000009000000009000FN00000000020221201000009000NNM   20220916100822    1W    00000150000000674000000000032Q8    EMEMI   000000000000MI32A041
BI00B32Q8    EW22124 MW     2022110918007703990              AVSS 0.5F L              CCN000013500000013500FN00000000020221201000013500NNM   20220916100822    1W    00000150000000674000000000032Q8    EMEMI   000000000000MI42A046
BI00B32Q8    EW22121 MW     2022101918007704180              AVSS 1.25F BR            CCN000005600000005600FN00000000020221201000005600NNM   20220916100822    1W    00000080000001389000000000032Q8    EMEMI   000000000000MI12A030
BI00B32Q8    EW22122 MW     2022102618007704180              AVSS 1.25F BR            CCN000026400000026400FN00000000020221201000026400NNM   20220916100822    1W    00000080000001389000000000032Q8    EMEMI   000000000000MI22A039
BI00B32Q8    EW22123 MW     2022110218007704180              AVSS 1.25F BR            CCN000034400000034400FN00000000020221201000034400NNM   20220916100822    1W    00000080000001389000000000032Q8    EMEMI   000000000000MI32A042
BI00B32Q8    EW22124 MW     2022110918007704180              AVSS 1.25F BR            CCN000024000000024000FN00000000020221201000024000NNM   20220916100822    1W    00000080000001389000000000032Q8    EMEMI   000000000000MI42A047
BI00B32Q8    EW22122 MW     2022102618007704160              AVSS 1.25F G             CCN000019200000019200FN00000000020221201000019200NNM   20220916100822    1W    00000080000001389000000000032Q8    EMEMI   000000000000MI22A040
BI00B32Q8    EW22123 MW     2022110218007704160              AVSS 1.25F G             CCN000034400000034400FN00000000020221201000034400NNM   20220916100822    1W    00000080000001389000000000032Q8    EMEMI   000000000000MI32A043
BI00B32Q8    EW22124 MW     2022110918007704160              AVSS 1.25F G             CCN000024000000024000FN00000000020221201000024000NNM   20220916100822    1W    00000080000001389000000000032Q8    EMEMI   000000000000MI42A048
BI00B32Q8    EW22122 MW     2022102618007704190              AVSS 1.25F L             CCN000017600000017600FN00000000020221201000017600NNM   20220916100822    1W    00000080000001389000000000032Q8    EMEMI   000000000000MI22A041
BI00B32Q8    EW22123 MW     2022110218007704190              AVSS 1.25F L             CCN000034400000034400FN00000000020221201000034400NNM   20220916100822    1W    00000080000001389000000000032Q8    EMEMI   000000000000MI32A044
BI00B32Q8    EW22124 MW     2022110918007704190              AVSS 1.25F L             CCN000024000000024000FN00000000020221201000024000NNM   20220916100822    1W    00000080000001389000000000032Q8    EMEMI   000000000000MI42A049
BI00B32Q8    EW22121 MW     2022101918007704152              AVSS 1.25F P             CCN000003200000003200FN00000000020221201000003200NNM   20220916100822    1W    00000080000001389000000000032Q8    EMEMI   000000000000MI12A031
BI00B32Q8    EW22122 MW     2022102618007704152              AVSS 1.25F P             CCN000026400000026400FN00000000020221201000026400NNM   20220916100822    1W    00000080000001389000000000032Q8    EMEMI   000000000000MI22A042
BI00B32Q8    EW22123 MW     2022110218007704152              AVSS 1.25F P             CCN000034400000034400FN00000000020221201000034400NNM   20220916100822    1W    00000080000001389000000000032Q8    EMEMI   000000000000MI32A045
BI00B32Q8    EW22124 MW     2022110918007704152              AVSS 1.25F P             CCN000024000000024000FN00000000020221201000024000NNM   20220916100822    1W    00000080000001389000000000032Q8    EMEMI   000000000000MI42A050
BI00B32Q8    EW22122 MW     2022102618007704150              AVSS 1.25F R             CCN000021600000021600FN00000000020221201000021600NNM   20220916100822    1W    00000080000001389000000000032Q8    EMEMI   000000000000MI22A043
BI00B32Q8    EW22123 MW     2022110218007704150              AVSS 1.25F R             CCN000035200000035200FN00000000020221201000035200NNM   20220916100822    1W    00000080000001389000000000032Q8    EMEMI   000000000000MI32A046
BI00B32Q8    EW22124 MW     2022110918007704150              AVSS 1.25F R             CCN000023200000023200FN00000000020221201000023200NNM   20220916100822    1W    00000080000001389000000000032Q8    EMEMI   000000000000MI42A051
BI00B32Q8    EW22122 MW     2022102618007704140              AVSS 1.25F W             CCN000049600000049600FN00000000020221201000049600NNM   20220916100822    1W    00000080000001389000000000032Q8    EMEMI   000000000000MI22A044
BI00B32Q8    EW22123 MW     2022110218007704140              AVSS 1.25F W             CCN000069600000069600FN00000000020221201000069600NNM   20220916100822    1W    00000080000001389000000000032Q8    EMEMI   000000000000MI32A047
BI00B32Q8    EW22124 MW     2022110918007704140              AVSS 1.25F W             CCN000047200000047200FN00000000020221201000047200NNM   20220916100822    1W    00000080000001389000000000032Q8    EMEMI   000000000000MI42A052
BI00B32Q8    EW22121 MW     20221019180D0203780              AVSSH 0.3F BR            CCN000004000000004000FN00000000020221201000004000NNM   20220916100822    1W    00000200000000515000000000032Q8    EMEMI   000000000000MI12A006
BI00B32Q8    EW22122 MW     20221026180D0203780              AVSSH 0.3F BR            CCN000006000000006000FN00000000020221201000006000NNM   20220916100822    1W    00000200000000515000000000032Q8    EMEMI   000000000000MI22A008
BI00B32Q8    EW22123 MW     20221102180D0203780              AVSSH 0.3F BR            CCN000010000000010000FN00000000020221201000010000NNM   20220916100822    1W    00000200000000515000000000032Q8    EMEMI   000000000000MI32A008
BI00B32Q8    EW22124 MW     20221109180D0203780              AVSSH 0.3F BR            CCN000006000000006000FN00000000020221201000006000NNM   20220916100822    1W    00000200000000515000000000032Q8    EMEMI   000000000000MI42A008
BI00B32Q8    EW22124 MW     20221109180D0203790              AVSSH 0.3F L             CCN000004000000004000FN00000000020221201000004000NNM   20220916100822    1W    00000200000000515000000000032Q8    EMEMI   000000000000MI42A009
BI00B32Q8    EW22121 MW     20221019180D0203752              AVSSH 0.3F P             CCN000002000000002000FN00000000020221201000002000NNM   20220916100822    1W    00000200000000515000000000032Q8    EMEMI   000000000000MI12A007
BI00B32Q8    EW22122 MW     20221026180D0203752              AVSSH 0.3F P             CCN000004000000004000FN00000000020221201000004000NNM   20220916100822    1W    00000200000000515000000000032Q8    EMEMI   000000000000MI22A009
BI00B32Q8    EW22123 MW     20221102180D0203752              AVSSH 0.3F P             CCN000002000000002000FN00000000020221201000002000NNM   20220916100822    1W    00000200000000515000000000032Q8    EMEMI   000000000000MI32A009
BI00B32Q8    EW22124 MW     20221109180D0203752              AVSSH 0.3F P             CCN000002000000002000FN00000000020221201000002000NNM   20220916100822    1W    00000200000000515000000000032Q8    EMEMI   000000000000MI42A010
BI00B32Q8    EW22121 MW     20221019180D0203740              AVSSH 0.3F W             CCN000052000000052000FN00000000020221201000052000NNM   20220916100822    1W    00000200000000515000000000032Q8    EMEMI   000000000000MI12A008
BI00B32Q8    EW22122 MW     20221026180D0203740              AVSSH 0.3F W             CCN000058000000058000FN00000000020221201000058000NNM   20220916100822    1W    00000200000000515000000000032Q8    EMEMI   000000000000MI22A010
BI00B32Q8    EW22123 MW     20221102180D0203740              AVSSH 0.3F W             CCN000078000000078000FN00000000020221201000078000NNM   20220916100822    1W    00000200000000515000000000032Q8    EMEMI   000000000000MI32A010
BI00B32Q8    EW22124 MW     20221109180D0203740              AVSSH 0.3F W             CCN000056000000056000FN00000000020221201000056000NNM   20220916100822    1W    00000200000000515000000000032Q8    EMEMI   000000000000MI42A011
BI00B32Q8    EW22121 MW     20221019180D0203743              AVSSH 0.3F W/B           CCN000004000000004000FN00000000020221201000004000NNM   20220916100822    1W    00000200000000515000000000032Q8    EMEMI   000000000000MI12A009
BI00B32Q8    EW22122 MW     20221026180D0203743              AVSSH 0.3F W/B           CCN000006000000006000FN00000000020221201000006000NNM   20220916100822    1W    00000200000000515000000000032Q8    EMEMI   000000000000MI22A011
BI00B32Q8    EW22123 MW     20221102180D0203743              AVSSH 0.3F W/B           CCN000010000000010000FN00000000020221201000010000NNM   20220916100822    1W    00000200000000515000000000032Q8    EMEMI   000000000000MI32A011
BI00B32Q8    EW22124 MW     20221109180D0203743              AVSSH 0.3F W/B           CCN000006000000006000FN00000000020221201000006000NNM   20220916100822    1W    00000200000000515000000000032Q8    EMEMI   000000000000MI42A012
BI00B32Q8    EW22121 MW     20221019180D0203930              AVSSH 0.5F B             CCN000028500000028500FN00000000020221201000028500NNM   20220916100822    1W    00000150000000689000000000032Q8    EMEMI   000000000000MI12A010
BI00B32Q8    EW22122 MW     20221026180D0203930              AVSSH 0.5F B             CCN000043500000043500FN00000000020221201000043500NNM   20220916100822    1W    00000150000000689000000000032Q8    EMEMI   000000000000MI22A012
BI00B32Q8    EW22123 MW     20221102180D0203930              AVSSH 0.5F B             CCN000054000000054000FN00000000020221201000054000NNM   20220916100822    1W    00000150000000689000000000032Q8    EMEMI   000000000000MI32A012
BI00B32Q8    EW22124 MW     20221109180D0203930              AVSSH 0.5F B             CCN000034500000034500FN00000000020221201000034500NNM   20220916100822    1W    00000150000000689000000000032Q8    EMEMI   000000000000MI42A013
BI00B32Q8    EW22121 MW     20221019180D0203937              AVSSH 0.5F B/Y           CCN000003000000003000FN00000000020221201000003000NNM   20220916100822    1W    00000150000000689000000000032Q8    EMEMI   000000000000MI12A011
BI00B32Q8    EW22122 MW     20221026180D0203937              AVSSH 0.5F B/Y           CCN000003000000003000FN00000000020221201000003000NNM   20220916100822    1W    00000150000000689000000000032Q8    EMEMI   000000000000MI22A013
BI00B32Q8    EW22123 MW     20221102180D0203937              AVSSH 0.5F B/Y           CCN000003000000003000FN00000000020221201000003000NNM   20220916100822    1W    00000150000000689000000000032Q8    EMEMI   000000000000MI32A013
BI00B32Q8    EW22124 MW     20221109180D0203937              AVSSH 0.5F B/Y           CCN000001500000001500FN00000000020221201000001500NNM   20220916100822    1W    00000150000000689000000000032Q8    EMEMI   000000000000MI42A014
BI00B32Q8    EW22121 MW     20221019180D0203980              AVSSH 0.5F BR            CCN000009000000009000FN00000000020221201000009000NNM   20220916100822    1W    00000150000000689000000000032Q8    EMEMI   000000000000MI12A012
BI00B32Q8    EW22122 MW     20221026180D0203980              AVSSH 0.5F BR            CCN000027000000027000FN00000000020221201000027000NNM   20220916100822    1W    00000150000000689000000000032Q8    EMEMI   000000000000MI22A014
BI00B32Q8    EW22123 MW     20221102180D0203980              AVSSH 0.5F BR            CCN000031500000031500FN00000000020221201000031500NNM   20220916100822    1W    00000150000000689000000000032Q8    EMEMI   000000000000MI32A014
BI00B32Q8    EW22124 MW     20221109180D0203980              AVSSH 0.5F BR            CCN000016500000016500FN00000000020221201000016500NNM   20220916100822    1W    00000150000000689000000000032Q8    EMEMI   000000000000MI42A015
BI00B32Q8    EW22121 MW     20221019180D0203960              AVSSH 0.5F G             CCN000006000000006000FN00000000020221201000006000NNM   20220916100822    1W    00000150000000689000000000032Q8    EMEMI   000000000000MI12A013
BI00B32Q8    EW22122 MW     20221026180D0203960              AVSSH 0.5F G             CCN000004500000004500FN00000000020221201000004500NNM   20220916100822    1W    00000150000000689000000000032Q8    EMEMI   000000000000MI22A015
BI00B32Q8    EW22123 MW     20221102180D0203960              AVSSH 0.5F G             CCN000007500000007500FN00000000020221201000007500NNM   20220916100822    1W    00000150000000689000000000032Q8    EMEMI   000000000000MI32A015
BI00B32Q8    EW22124 MW     20221109180D0203960              AVSSH 0.5F G             CCN000006000000006000FN00000000020221201000006000NNM   20220916100822    1W    00000150000000689000000000032Q8    EMEMI   000000000000MI42A016
BI00B32Q8    EW22121 MW     20221019180D0203990              AVSSH 0.5F L             CCN000001500000001500FN00000000020221201000001500NNM   20220916100822    1W    00000150000000689000000000032Q8    EMEMI   000000000000MI12A014
BI00B32Q8    EW22122 MW     20221026180D0203990              AVSSH 0.5F L             CCN000054000000054000FN00000000020221201000054000NNM   20220916100822    1W    00000150000000689000000000032Q8    EMEMI   000000000000MI22A016
BI00B32Q8    EW22123 MW     20221102180D0203990              AVSSH 0.5F L             CCN000075000000075000FN00000000020221201000075000NNM   20220916100822    1W    00000150000000689000000000032Q8    EMEMI   000000000000MI32A016
BI00B32Q8    EW22124 MW     20221109180D0203990              AVSSH 0.5F L             CCN000051000000051000FN00000000020221201000051000NNM   20220916100822    1W    00000150000000689000000000032Q8    EMEMI   000000000000MI42A017
BI00B32Q8    EW22122 MW     20221026180D0203961              AVSSH 0.5F LG            CCN000001500000001500FN00000000020221201000001500NNM   20220916100822    1W    00000150000000689000000000032Q8    EMEMI   000000000000MI22A017
BI00B32Q8    EW22123 MW     20221102180D0203961              AVSSH 0.5F LG            CCN000001500000001500FN00000000020221201000001500NNM   20220916100822    1W    00000150000000689000000000032Q8    EMEMI   000000000000MI32A017
BI00B32Q8    EW22124 MW     20221109180D0203961              AVSSH 0.5F LG            CCN000001500000001500FN00000000020221201000001500NNM   20220916100822    1W    00000150000000689000000000032Q8    EMEMI   000000000000MI42A018
BI00B32Q8    EW22122 MW     20221026180D0203991              AVSSH 0.5F SB            CCN000001500000001500FN00000000020221201000001500NNM   20220916100822    1W    00000150000000689000000000032Q8    EMEMI   000000000000MI22A018
BI00B32Q8    EW22123 MW     20221102180D0203992              AVSSH 0.5F V             CCN000004500000004500FN00000000020221201000004500NNM   20220916100822    1W    00000150000000689000000000032Q8    EMEMI   000000000000MI32A018
BI00B32Q8    EW22124 MW     20221109180D0203992              AVSSH 0.5F V             CCN000015000000015000FN00000000020221201000015000NNM   20220916100822    1W    00000150000000689000000000032Q8    EMEMI   000000000000MI42A019
BI00B32Q8    EW22124 MW     20221109180D0203940              AVSSH 0.5F W             CCN000018000000018000FN00000000020221201000018000NNM   20220916100822    1W    00000150000000689000000000032Q8    EMEMI   000000000000MI42A020
BI00B32Q8    EW22124 MW     20221109180D0203943              AVSSH 0.5F W/B           CCN000015000000015000FN00000000020221201000015000NNM   20220916100822    1W    00000150000000689000000000032Q8    EMEMI   000000000000MI42A021
BI00B32Q8    EW22121 MW     20221019180D0203970              AVSSH 0.5F Y             CCN000003000000003000FN00000000020221201000003000NNM   20220916100822    1W    00000150000000689000000000032Q8    EMEMI   000000000000MI12A015
BI00B32Q8    EW22122 MW     20221026180D0203970              AVSSH 0.5F Y             CCN000006000000006000FN00000000020221201000006000NNM   20220916100822    1W    00000150000000689000000000032Q8    EMEMI   000000000000MI22A019
BI00B32Q8    EW22123 MW     20221102180D0203970              AVSSH 0.5F Y             CCN000007500000007500FN00000000020221201000007500NNM   20220916100822    1W    00000150000000689000000000032Q8    EMEMI   000000000000MI32A019
BI00B32Q8    EW22124 MW     20221109180D0203970              AVSSH 0.5F Y             CCN000004500000004500FN00000000020221201000004500NNM   20220916100822    1W    00000150000000689000000000032Q8    EMEMI   000000000000MI42A022
BI00B32Q8    EW22122 MW     20221026180D0204030              AVSSH 0.75F B            CCN000003000000003000FN00000000020221201000003000NNM   20220916100822    1W    00000100000000934000000000032Q8    EMEMI   000000000000MI22A020
BI00B32Q8    EW22123 MW     20221102180D0204030              AVSSH 0.75F B            CCN000009000000009000FN00000000020221201000009000NNM   20220916100822    1W    00000100000000934000000000032Q8    EMEMI   000000000000MI32A020
BI00B32Q8    EW22124 MW     20221109180D0204030              AVSSH 0.75F B            CCN000006000000006000FN00000000020221201000006000NNM   20220916100822    1W    00000100000000934000000000032Q8    EMEMI   000000000000MI42A023
BI00B32Q8    EW22121 MW     20221019180D0204070              AVSSH 0.75F Y            CCN000001000000001000FN00000000020221201000001000NNM   20220916100822    1W    00000100000000934000000000032Q8    EMEMI   000000000000MI12A016
BI00B32Q8    EW22123 MW     20221102180D0204070              AVSSH 0.75F Y            CCN000001000000001000FN00000000020221201000001000NNM   20220916100822    1W    00000100000000934000000000032Q8    EMEMI   000000000000MI32A021
BI00B32Q8    EW22122 MW     20221026180D0204130              AVSSH 1.25F B            CCN000016800000016800FN00000000020221201000016800NNM   20220916100822    1W    00000080000001458000000000032Q8    EMEMI   000000000000MI22A021
BI00B32Q8    EW22123 MW     20221102180D0204130              AVSSH 1.25F B            CCN000071200000071200FN00000000020221201000071200NNM   20220916100822    1W    00000080000001458000000000032Q8    EMEMI   000000000000MI32A022
BI00B32Q8    EW22124 MW     20221109180D0204130              AVSSH 1.25F B            CCN000048000000048000FN00000000020221201000048000NNM   20220916100822    1W    00000080000001458000000000032Q8    EMEMI   000000000000MI42A024
BI00B32Q8    EW22122 MW     20221026180D0204180              AVSSH 1.25F BR           CCN000008000000008000FN00000000020221201000008000NNM   20220916100822    1W    00000080000001458000000000032Q8    EMEMI   000000000000MI22A022
BI00B32Q8    EW22123 MW     20221102180D0204180              AVSSH 1.25F BR           CCN000011200000011200FN00000000020221201000011200NNM   20220916100822    1W    00000080000001458000000000032Q8    EMEMI   000000000000MI32A023
BI00B32Q8    EW22124 MW     20221109180D0204180              AVSSH 1.25F BR           CCN000007200000007200FN00000000020221201000007200NNM   20220916100822    1W    00000080000001458000000000032Q8    EMEMI   000000000000MI42A025
BI00B32Q8    EW22121 MW     20221019180D0204160              AVSSH 1.25F G            CCN000063200000063200FN00000000020221201000063200NNM   20220916100822    1W    00000080000001458000000000032Q8    EMEMI   000000000000MI12A017
BI00B32Q8    EW22122 MW     20221026180D0204160              AVSSH 1.25F G            CCN000080800000080800FN00000000020221201000080800NNM   20220916100822    1W    00000080000001458000000000032Q8    EMEMI   000000000000MI22A023
BI00B32Q8    EW22123 MW     20221102180D0204160              AVSSH 1.25F G            CCN000104800000104800FN00000000020221201000104800NNM   20220916100822    1W    00000080000001458000000000032Q8    EMEMI   000000000000MI32A024
BI00B32Q8    EW22124 MW     20221109180D0204160              AVSSH 1.25F G            CCN000072000000072000FN00000000020221201000072000NNM   20220916100822    1W    00000080000001458000000000032Q8    EMEMI   000000000000MI42A026
BI00B32Q8    EW22121 MW     20221019180D0204190              AVSSH 1.25F L            CCN000012800000012800FN00000000020221201000012800NNM   20220916100822    1W    00000080000001458000000000032Q8    EMEMI   000000000000MI12A018
BI00B32Q8    EW22122 MW     20221026180D0204190              AVSSH 1.25F L            CCN000063200000063200FN00000000020221201000063200NNM   20220916100822    1W    00000080000001458000000000032Q8    EMEMI   000000000000MI22A024
BI00B32Q8    EW22123 MW     20221102180D0204190              AVSSH 1.25F L            CCN000082400000082400FN00000000020221201000082400NNM   20220916100822    1W    00000080000001458000000000032Q8    EMEMI   000000000000MI32A025
BI00B32Q8    EW22124 MW     20221109180D0204190              AVSSH 1.25F L            CCN000056000000056000FN00000000020221201000056000NNM   20220916100822    1W    00000080000001458000000000032Q8    EMEMI   000000000000MI42A027
BI00B32Q8    EW22121 MW     20221019180D0204150              AVSSH 1.25F R            CCN000039200000039200FN00000000020221201000039200NNM   20220916100822    1W    00000080000001458000000000032Q8    EMEMI   000000000000MI12A019
BI00B32Q8    EW22122 MW     20221026180D0204150              AVSSH 1.25F R            CCN000050400000050400FN00000000020221201000050400NNM   20220916100822    1W    00000080000001458000000000032Q8    EMEMI   000000000000MI22A025
BI00B32Q8    EW22123 MW     20221102180D0204150              AVSSH 1.25F R            CCN000068000000068000FN00000000020221201000068000NNM   20220916100822    1W    00000080000001458000000000032Q8    EMEMI   000000000000MI32A026
BI00B32Q8    EW22124 MW     20221109180D0204150              AVSSH 1.25F R            CCN000045600000045600FN00000000020221201000045600NNM   20220916100822    1W    00000080000001458000000000032Q8    EMEMI   000000000000MI42A028
BI00B32Q8    EW22124 MW     20221109180D0204140              AVSSH 1.25F W            CCN000019200000019200FN00000000020221201000019200NNM   20220916100822    1W    00000080000001458000000000032Q8    EMEMI   000000000000MI42A029
BI00B32Q8    EW22121 MW     202210191801R704130              CIVUS 1.25 B             CCN000051000000051000FN00000000020221201000051000NNM   20220916100822    1W    00000100000001228000000000032Q8    EMEMI   000000000000MI12A033
BI00B32Q8    EW22122 MW     202210261801R704130              CIVUS 1.25 B             CCN000078000000078000FN00000000020221201000078000NNM   20220916100822    1W    00000100000001228000000000032Q8    EMEMI   000000000000MI22A046
BI00B32Q8    EW22123 MW     202211021801R704130              CIVUS 1.25 B             CCN000119000000119000FN00000000020221201000119000NNM   20220916100822    1W    00000100000001228000000000032Q8    EMEMI   000000000000MI32A050
BI00B32Q8    EW22124 MW     202211091801R704130              CIVUS 1.25 B             CCN000089000000089000FN00000000020221201000089000NNM   20220916100822    1W    00000100000001228000000000032Q8    EMEMI   000000000000MI42A056
BI00B32Q8    EW22121 MW     202210191801R704180              CIVUS 1.25 BR            CCN000014000000014000FN00000000020221201000014000NNM   20220916100822    1W    00000100000001228000000000032Q8    EMEMI   000000000000MI12A034
BI00B32Q8    EW22122 MW     202210261801R704180              CIVUS 1.25 BR            CCN000030000000030000FN00000000020221201000030000NNM   20220916100822    1W    00000100000001228000000000032Q8    EMEMI   000000000000MI22A047
BI00B32Q8    EW22123 MW     202211021801R704180              CIVUS 1.25 BR            CCN000043000000043000FN00000000020221201000043000NNM   20220916100822    1W    00000100000001228000000000032Q8    EMEMI   000000000000MI32A051
BI00B32Q8    EW22124 MW     202211091801R704180              CIVUS 1.25 BR            CCN000030000000030000FN00000000020221201000030000NNM   20220916100822    1W    00000100000001228000000000032Q8    EMEMI   000000000000MI42A057
BI00B32Q8    EW22122 MW     202210261801R704160              CIVUS 1.25 G             CCN000007000000007000FN00000000020221201000007000NNM   20220916100822    1W    00000100000001228000000000032Q8    EMEMI   000000000000MI22A048
BI00B32Q8    EW22123 MW     202211021801R704160              CIVUS 1.25 G             CCN000020000000020000FN00000000020221201000020000NNM   20220916100822    1W    00000100000001228000000000032Q8    EMEMI   000000000000MI32A052
BI00B32Q8    EW22124 MW     202211091801R704160              CIVUS 1.25 G             CCN000016000000016000FN00000000020221201000016000NNM   20220916100822    1W    00000100000001228000000000032Q8    EMEMI   000000000000MI42A058
BI00B32Q8    EW22122 MW     202210261801R704141              CIVUS 1.25 GY            CCN000006000000006000FN00000000020221201000006000NNM   20220916100822    1W    00000100000001228000000000032Q8    EMEMI   000000000000MI22A049
BI00B32Q8    EW22123 MW     202211021801R704141              CIVUS 1.25 GY            CCN000010000000010000FN00000000020221201000010000NNM   20220916100822    1W    00000100000001228000000000032Q8    EMEMI   000000000000MI32A053
BI00B32Q8    EW22124 MW     202211091801R704141              CIVUS 1.25 GY            CCN000008000000008000FN00000000020221201000008000NNM   20220916100822    1W    00000100000001228000000000032Q8    EMEMI   000000000000MI42A059
BI00B32Q8    EW22122 MW     202210261801R704190              CIVUS 1.25 L             CCN000009000000009000FN00000000020221201000009000NNM   20220916100822    1W    00000100000001228000000000032Q8    EMEMI   000000000000MI22A050
BI00B32Q8    EW22123 MW     202211021801R704190              CIVUS 1.25 L             CCN000056000000056000FN00000000020221201000056000NNM   20220916100822    1W    00000100000001228000000000032Q8    EMEMI   000000000000MI32A054
BI00B32Q8    EW22124 MW     202211091801R704190              CIVUS 1.25 L             CCN000040000000040000FN00000000020221201000040000NNM   20220916100822    1W    00000100000001228000000000032Q8    EMEMI   000000000000MI42A060
BI00B32Q8    EW22123 MW     202211021801R704161              CIVUS 1.25 LG            CCN000006000000006000FN00000000020221201000006000NNM   20220916100822    1W    00000100000001228000000000032Q8    EMEMI   000000000000MI32A055
BI00B32Q8    EW22124 MW     202211091801R704161              CIVUS 1.25 LG            CCN000020000000020000FN00000000020221201000020000NNM   20220916100822    1W    00000100000001228000000000032Q8    EMEMI   000000000000MI42A061
BI00B32Q8    EW22121 MW     202210191801R704152              CIVUS 1.25 P             CCN000011000000011000FN00000000020221201000011000NNM   20220916100822    1W    00000100000001228000000000032Q8    EMEMI   000000000000MI12A035
BI00B32Q8    EW22122 MW     202210261801R704152              CIVUS 1.25 P             CCN000015000000015000FN00000000020221201000015000NNM   20220916100822    1W    00000100000001228000000000032Q8    EMEMI   000000000000MI22A051
BI00B32Q8    EW22123 MW     202211021801R704152              CIVUS 1.25 P             CCN000025000000025000FN00000000020221201000025000NNM   20220916100822    1W    00000100000001228000000000032Q8    EMEMI   000000000000MI32A056
BI00B32Q8    EW22124 MW     202211091801R704152              CIVUS 1.25 P             CCN000021000000021000FN00000000020221201000021000NNM   20220916100822    1W    00000100000001228000000000032Q8    EMEMI   000000000000MI42A062
BI00B32Q8    EW22122 MW     202210261801R704150              CIVUS 1.25 R             CCN000046000000046000FN00000000020221201000046000NNM   20220916100822    1W    00000100000001228000000000032Q8    EMEMI   000000000000MI22A052
BI00B32Q8    EW22123 MW     202211021801R704150              CIVUS 1.25 R             CCN000088000000088000FN00000000020221201000088000NNM   20220916100822    1W    00000100000001228000000000032Q8    EMEMI   000000000000MI32A057
BI00B32Q8    EW22124 MW     202211091801R704150              CIVUS 1.25 R             CCN000065000000065000FN00000000020221201000065000NNM   20220916100822    1W    00000100000001228000000000032Q8    EMEMI   000000000000MI42A063
BI00B32Q8    EW22121 MW     202210191801R704192              CIVUS 1.25 V             CCN000001000000001000FN00000000020221201000001000NNM   20220916100822    1W    00000100000001228000000000032Q8    EMEMI   000000000000MI12A036
BI00B32Q8    EW22122 MW     202210261801R704192              CIVUS 1.25 V             CCN000024000000024000FN00000000020221201000024000NNM   20220916100822    1W    00000100000001228000000000032Q8    EMEMI   000000000000MI22A053
BI00B32Q8    EW22123 MW     202211021801R704192              CIVUS 1.25 V             CCN000034000000034000FN00000000020221201000034000NNM   20220916100822    1W    00000100000001228000000000032Q8    EMEMI   000000000000MI32A058
BI00B32Q8    EW22124 MW     202211091801R704192              CIVUS 1.25 V             CCN000025000000025000FN00000000020221201000025000NNM   20220916100822    1W    00000100000001228000000000032Q8    EMEMI   000000000000MI42A064
BI00B32Q8    EW22122 MW     202210261801R704140              CIVUS 1.25 W             CCN000024000000024000FN00000000020221201000024000NNM   20220916100822    1W    00000100000001228000000000032Q8    EMEMI   000000000000MI22A054
BI00B32Q8    EW22123 MW     202211021801R704140              CIVUS 1.25 W             CCN000050000000050000FN00000000020221201000050000NNM   20220916100822    1W    00000100000001228000000000032Q8    EMEMI   000000000000MI32A059
BI00B32Q8    EW22124 MW     202211091801R704140              CIVUS 1.25 W             CCN000039000000039000FN00000000020221201000039000NNM   20220916100822    1W    00000100000001228000000000032Q8    EMEMI   000000000000MI42A065
BI00B32Q8    EW22121 MW     202210191801R704170              CIVUS 1.25 Y             CCN000022000000022000FN00000000020221201000022000NNM   20220916100822    1W    00000100000001228000000000032Q8    EMEMI   000000000000MI12A037
BI00B32Q8    EW22122 MW     202210261801R704170              CIVUS 1.25 Y             CCN000035000000035000FN00000000020221201000035000NNM   20220916100822    1W    00000100000001228000000000032Q8    EMEMI   000000000000MI22A055
BI00B32Q8    EW22123 MW     202211021801R704170              CIVUS 1.25 Y             CCN000057000000057000FN00000000020221201000057000NNM   20220916100822    1W    00000100000001228000000000032Q8    EMEMI   000000000000MI32A060
BI00B32Q8    EW22124 MW     202211091801R704170              CIVUS 1.25 Y             CCN000045000000045000FN00000000020221201000045000NNM   20220916100822    1W    00000100000001228000000000032Q8    EMEMI   000000000000MI42A066
BI00B32Q8    @EW22121 MW    20221019181D6910237              AVSSHCS 0.5FX2 B/Y       CCN000000600000000600FN00000000020221201000000600NNM   20220916100815    1W    00000030000002385000000000032Q8    EMEMI   000000000000MI12A001
BI00B32Q8    @EW22122 MW    20221026181D6910237              AVSSHCS 0.5FX2 B/Y       CCN000000900000000900FN00000000020221201000000900NNM   20220916100815    1W    00000030000002385000000000032Q8    EMEMI   000000000000MI22A001
BI00B32Q8    @EW22123 MW    20221102181D6910237              AVSSHCS 0.5FX2 B/Y       CCN000000900000000900FN00000000020221201000000900NNM   20220916100815    1W    00000030000002385000000000032Q8    EMEMI   000000000000MI32A001
BI00B32Q8    @EW22124 MW    20221109181D6910237              AVSSHCS 0.5FX2 B/Y       CCN000000900000000900FN00000000020221201000000900NNM   20220916100815    1W    00000030000002385000000000032Q8    EMEMI   000000000000MI42A001
BI00B32Q8    @EW22121 MW    20221019181F21009ZZ              AVSSHCS-S 0.5FX2 B       CCN000000600000000600FN00000000020221201000000600NNM   20220916100815    1W    00000030000002531400000000032Q8    EMEMI   000000000000MI12A005
BI00B32Q8    @EW22122 MW    20221026181F21009ZZ              AVSSHCS-S 0.5FX2 B       CCN000003000000003000FN00000000020221201000003000NNM   20220916100815    1W    00000030000002531400000000032Q8    EMEMI   000000000000MI22A007
BI00B32Q8    @EW22123 MW    20221102181F21009ZZ              AVSSHCS-S 0.5FX2 B       CCN000003300000003300FN00000000020221201000003300NNM   20220916100815    1W    00000030000002531400000000032Q8    EMEMI   000000000000MI32A007
BI00B32Q8    @EW22124 MW    20221109181F21009ZZ              AVSSHCS-S 0.5FX2 B       CCN000002100000002100FN00000000020221201000002100NNM   20220916100815    1W    00000030000002531400000000032Q8    EMEMI   000000000000MI42A007
BI00B32Q8    @EW22121 MW    20221019181E48013ZZ              CAVSAS-S 0.3X3 GY        CCN000002000000002000FN00000000020221201000002000NNM   20220916100815    1W    00000025000002778200000000032Q8    EMEMI   000000000000MI12A004
BI00B32Q8    @EW22122 MW    20221026181E48013ZZ              CAVSAS-S 0.3X3 GY        CCN000002000000002000FN00000000020221201000002000NNM   20220916100815    1W    00000025000002778200000000032Q8    EMEMI   000000000000MI22A006
BI00B32Q8    @EW22123 MW    20221102181E48013ZZ              CAVSAS-S 0.3X3 GY        CCN000003000000003000FN00000000020221201000003000NNM   20220916100815    1W    00000025000002778200000000032Q8    EMEMI   000000000000MI32A006
BI00B32Q8    @EW22124 MW    20221109181E48013ZZ              CAVSAS-S 0.3X3 GY        CCN000002250000002250FN00000000020221201000002250NNM   20220916100815    1W    00000025000002778200000000032Q8    EMEMI   000000000000MI42A006
BI00B32Q8    @EW22122 MW    20221026181E48018ZZ              CAVSAS-S 0.5X2 GY/SB     CCN000001200000001200FN00000000020221201000001200NNM   20220916100815    1W    00000030000002561000000000032Q8    EMEMI   000000000000MI22A004
BI00B32Q8    @EW22123 MW    20221102181E48018ZZ              CAVSAS-S 0.5X2 GY/SB     CCN000004500000004500FN00000000020221201000004500NNM   20220916100815    1W    00000030000002561000000000032Q8    EMEMI   000000000000MI32A004
BI00B32Q8    @EW22124 MW    20221109181E48018ZZ              CAVSAS-S 0.5X2 GY/SB     CCN000003600000003600FN00000000020221201000003600NNM   20220916100815    1W    00000030000002561000000000032Q8    EMEMI   000000000000MI42A004
BI00B32Q8    @EW22122 MW    20221026181E48022ZZ              CAVSAS-S 0.5X2 GY        CCN000002400000002400FN00000000020221201000002400NNM   20220916100815    1W    00000030000002561000000000032Q8    EMEMI   000000000000MI22A002
BI00B32Q8    @EW22123 MW    20221102181E48022ZZ              CAVSAS-S 0.5X2 GY        CCN000004200000004200FN00000000020221201000004200NNM   20220916100815    1W    00000030000002561000000000032Q8    EMEMI   000000000000MI32A002
BI00B32Q8    @EW22124 MW    20221109181E48022ZZ              CAVSAS-S 0.5X2 GY        CCN000003300000003300FN00000000020221201000003300NNM   20220916100815    1W    00000030000002561000000000032Q8    EMEMI   000000000000MI42A002
BI00B32Q8    @EW22122 MW    20221026181E48027ZZ              CAVSAS-S 0.5X2 GY/P      CCN000001200000001200FN00000000020221201000001200NNM   20220916100815    1W    00000030000002561000000000032Q8    EMEMI   000000000000MI22A003
BI00B32Q8    @EW22123 MW    20221102181E48027ZZ              CAVSAS-S 0.5X2 GY/P      CCN000004500000004500FN00000000020221201000004500NNM   20220916100815    1W    00000030000002561000000000032Q8    EMEMI   000000000000MI32A003
BI00B32Q8    @EW22124 MW    20221109181E48027ZZ              CAVSAS-S 0.5X2 GY/P      CCN000003600000003600FN00000000020221201000003600NNM   20220916100815    1W    00000030000002561000000000032Q8    EMEMI   000000000000MI42A003
BI00B32Q8    @EW22121 MW    20221019181E48041ZZ              CAVSAS-S 0.3X2 GY/R      CCN000002800000002800FN00000000020221201000002800NNM   20220916100815    1W    00000035000002008700000000032Q8    EMEMI   000000000000MI12A003
BI00B32Q8    @EW22122 MW    20221026181E48041ZZ              CAVSAS-S 0.3X2 GY/R      CCN000003500000003500FN00000000020221201000003500NNM   20220916100815    1W    00000035000002008700000000032Q8    EMEMI   000000000000MI22A005
BI00B32Q8    @EW22123 MW    20221102181E48041ZZ              CAVSAS-S 0.3X2 GY/R      CCN000004200000004200FN00000000020221201000004200NNM   20220916100815    1W    00000035000002008700000000032Q8    EMEMI   000000000000MI32A005
BI00B32Q8    @EW22124 MW    20221109181E48041ZZ              CAVSAS-S 0.3X2 GY/R      CCN000002450000002450FN00000000020221201000002450NNM   20220916100815    1W    00000035000002008700000000032Q8    EMEMI   000000000000MI42A005
BI00B32Q8    @EW22121 MW    20221019181E48055ZZ              CAVSAS-S 0.5X1 GY/R      CCN000000400000000400FN00000000020221201000000400NNM   20220916100815    1W    00000040000001900600000000032Q8    EMEMI   000000000000MI12A002
BI00B32Q8    @EW22122DMW    20221026181AD2017ZZ              CIVUSAS-S 0.22X3 B       CCN000000430000000430FN00000000020221201000000430NNM   20220916100817    1W    00000043000001678200000000032Q8    EMEMI   000000000000MD22A001
BI00B32Q8    @EW22123DMW    20221102181AD2017ZZ              CIVUSAS-S 0.22X3 B       CCN000003870000003870FN00000000020221201000003870NNM   20220916100817    1W    00000043000001678200000000032Q8    EMEMI   000000000000MD32A001
BI00B32Q8    @EW22124DMW    20221109181AD2017ZZ              CIVUSAS-S 0.22X3 B       CCN000003010000003010FN00000000020221201000003010NNM   20220916100817    1W    00000043000001678200000000032Q8    EMEMI   000000000000MD42A001
BI00B32Q8    EW22121NMW     2022101918007703791              AVSS 0.3F SB             CCN000048000000048000FN00000000020221201000048000NNM   20220916100824    1W    00000200000000496000000000032Q8    EMEMI   000000000000MN12A004
BI00B32Q8    EW22122NMW     2022102618007703791              AVSS 0.3F SB             CCN000066000000066000FN00000000020221201000066000NNM   20220916100824    1W    00000200000000496000000000032Q8    EMEMI   000000000000MN22A003
BI00B32Q8    EW22123NMW     2022110218007703791              AVSS 0.3F SB             CCN000084000000084000FN00000000020221201000084000NNM   20220916100824    1W    00000200000000496000000000032Q8    EMEMI   000000000000MN32A003
BI00B32Q8    EW22124NMW     2022110918007703791              AVSS 0.3F SB             CCN000058000000058000FN00000000020221201000058000NNM   20220916100824    1W    00000200000000496000000000032Q8    EMEMI   000000000000MN42A003
BI00B32Q8    EW22121NMW     20221019180D0204092              AVSSH 0.75F V            CCN000002000000002000FN00000000020221201000002000NNM   20220916100824    1W    00000100000000934000000000032Q8    EMEMI   000000000000MN12A003
BI00B32Q8    EW22122NMW     20221026180D0204092              AVSSH 0.75F V            CCN000001000000001000FN00000000020221201000001000NNM   20220916100824    1W    00000100000000934000000000032Q8    EMEMI   000000000000MN22A002
BI00B32Q8    EW22123NMW     20221102180D0204092              AVSSH 0.75F V            CCN000002000000002000FN00000000020221201000002000NNM   20220916100824    1W    00000100000000934000000000032Q8    EMEMI   000000000000MN32A002
BI00B32Q8    EW22124NMW     20221109180D0204092              AVSSH 0.75F V            CCN000001000000001000FN00000000020221201000001000NNM   20220916100824    1W    00000100000000934000000000032Q8    EMEMI   000000000000MN42A002
BI00B32Q8    @EW22121NMW    20221019181E48025ZZ              CAVSAS-S 0.5X2 GY/G      CCN000000300000000300FN00000000020221201000000300NNM   20220916100819    1W    00000030000002561000000000032Q8    EMEMI   000000000000MN12A002
BI00B32Q8    @EW22121NMW    20221019181AD2008ZZ              CIVUSAS-S 0.5X2 B        CCN000000800000000800FN00000000020221201000000800NNM   20220916100819    1W    00000040000002028000000000032Q8    EMEMI   000000000000MN12A001
BI00B32Q8    @EW22122NMW    20221026181AD2008ZZ              CIVUSAS-S 0.5X2 B        CCN000000800000000800FN00000000020221201000000800NNM   20220916100819    1W    00000040000002028000000000032Q8    EMEMI   000000000000MN22A001
BI00B32Q8    @EW22123NMW    20221102181AD2008ZZ              CIVUSAS-S 0.5X2 B        CCN000000400000000400FN00000000020221201000000400NNM   20220916100819    1W    00000040000002028000000000032Q8    EMEMI   000000000000MN32A001
BI00B32Q8    @EW22124NMW    20221109181AD2008ZZ              CIVUSAS-S 0.5X2 B        CCN000000400000000400FN00000000020221201000000400NNM   20220916100819    1W    00000040000002028000000000032Q8    EMEMI   000000000000MN42A001
BI00B32Q8    EW22121TMW     2022101918007704192              AVSS 1.25F V             CCN000026400000026400FN00000000020221201000026400NNM   20220916100825    1W    00000080000001389000000000032Q8    EMEMI   000000000000MT12A011
BI00B32Q8    EW22122TMW     2022102618007704192              AVSS 1.25F V             CCN000026400000026400FN00000000020221201000026400NNM   20220916100825    1W    00000080000001389000000000032Q8    EMEMI   000000000000MT22A017
BI00B32Q8    EW22123TMW     2022110218007704192              AVSS 1.25F V             CCN000034400000034400FN00000000020221201000034400NNM   20220916100825    1W    00000080000001389000000000032Q8    EMEMI   000000000000MT32A023
BI00B32Q8    EW22124TMW     2022110918007704192              AVSS 1.25F V             CCN000024000000024000FN00000000020221201000024000NNM   20220916100825    1W    00000080000001389000000000032Q8    EMEMI   000000000000MT42A026
BI00B32Q8    EW22121TMW     20221019180D0203760              AVSSH 0.3F G             CCN000056000000056000FN00000000020221201000056000NNM   20220916100825    1W    00000200000000515000000000032Q8    EMEMI   000000000000MT12A010
BI00B32Q8    EW22122TMW     20221026180D0203760              AVSSH 0.3F G             CCN000056000000056000FN00000000020221201000056000NNM   20220916100825    1W    00000200000000515000000000032Q8    EMEMI   000000000000MT22A012
BI00B32Q8    EW22123TMW     20221102180D0203760              AVSSH 0.3F G             CCN000074000000074000FN00000000020221201000074000NNM   20220916100825    1W    00000200000000515000000000032Q8    EMEMI   000000000000MT32A017
BI00B32Q8    EW22124TMW     20221109180D0203760              AVSSH 0.3F G             CCN000052000000052000FN00000000020221201000052000NNM   20220916100825    1W    00000200000000515000000000032Q8    EMEMI   000000000000MT42A020
BI00B32Q8    EW22122TMW     20221026180D0203741              AVSSH 0.3F GY            CCN000008000000008000FN00000000020221201000008000NNM   20220916100825    1W    00000200000000515000000000032Q8    EMEMI   000000000000MT22A013
BI00B32Q8    EW22123TMW     20221102180D0203741              AVSSH 0.3F GY            CCN000014000000014000FN00000000020221201000014000NNM   20220916100825    1W    00000200000000515000000000032Q8    EMEMI   000000000000MT32A018
BI00B32Q8    EW22124TMW     20221109180D0203741              AVSSH 0.3F GY            CCN000010000000010000FN00000000020221201000010000NNM   20220916100825    1W    00000200000000515000000000032Q8    EMEMI   000000000000MT42A021
BI00B32Q8    EW22122TMW     20221026180D0203750              AVSSH 0.3F R             CCN000002000000002000FN00000000020221201000002000NNM   20220916100825    1W    00000200000000515000000000032Q8    EMEMI   000000000000MT22A014
BI00B32Q8    EW22123TMW     20221102180D0203750              AVSSH 0.3F R             CCN000004000000004000FN00000000020221201000004000NNM   20220916100825    1W    00000200000000515000000000032Q8    EMEMI   000000000000MT32A019
BI00B32Q8    EW22124TMW     20221109180D0203750              AVSSH 0.3F R             CCN000004000000004000FN00000000020221201000004000NNM   20220916100825    1W    00000200000000515000000000032Q8    EMEMI   000000000000MT42A022
BI00B32Q8    EW22123TMW     20221102180D0204043              AVSSH 0.75F W/B          CCN000010000000010000FN00000000020221201000010000NNM   20220916100825    1W    00000100000000934000000000032Q8    EMEMI   000000000000MT32A020
BI00B32Q8    EW22124TMW     20221109180D0204043              AVSSH 0.75F W/B          CCN000015000000015000FN00000000020221201000015000NNM   20220916100825    1W    00000100000000934000000000032Q8    EMEMI   000000000000MT42A023
BI00B32Q8    EW22122TMW     20221026180D0204192              AVSSH 1.25F V            CCN000001600000001600FN00000000020221201000001600NNM   20220916100825    1W    00000080000001458000000000032Q8    EMEMI   000000000000MT22A015
BI00B32Q8    EW22123TMW     20221102180D0204192              AVSSH 1.25F V            CCN000005600000005600FN00000000020221201000005600NNM   20220916100825    1W    00000080000001458000000000032Q8    EMEMI   000000000000MT32A021
BI00B32Q8    EW22124TMW     20221109180D0204192              AVSSH 1.25F V            CCN000003200000003200FN00000000020221201000003200NNM   20220916100825    1W    00000080000001458000000000032Q8    EMEMI   000000000000MT42A024
BI00B32Q8    EW22122TMW     20221026180D0204143              AVSSH 1.25F W/B          CCN000016000000016000FN00000000020221201000016000NNM   20220916100825    1W    00000080000001458000000000032Q8    EMEMI   000000000000MT22A016
BI00B32Q8    EW22123TMW     20221102180D0204143              AVSSH 1.25F W/B          CCN000021600000021600FN00000000020221201000021600NNM   20220916100825    1W    00000080000001458000000000032Q8    EMEMI   000000000000MT32A022
BI00B32Q8    EW22124TMW     20221109180D0204143              AVSSH 1.25F W/B          CCN000014400000014400FN00000000020221201000014400NNM   20220916100825    1W    00000080000001458000000000032Q8    EMEMI   000000000000MT42A025
BI00B32Q8    EW22123TMW     202211021801R704143              CIVUS 1.25 W/B           CCN000016000000016000FN00000000020221201000016000NNM   20220916100825    1W    00000100000001228000000000032Q8    EMEMI   000000000000MT32A024
BI00B32Q8    EW22124TMW     202211091801R704143              CIVUS 1.25 W/B           CCN000029000000029000FN00000000020221201000029000NNM   20220916100825    1W    00000100000001228000000000032Q8    EMEMI   000000000000MT42A027
BI00B32Q8    EW22122TMW     202210261801W006930              IVSSH 0.35F B            CCN000240000000240000FN00000000020221201000240000NNM   20220916100825    1W    00000250000000452000000000032Q8    EMEMI   000000000000MT22A027
BI00B32Q8    EW22123TMW     202211021801W006930              IVSSH 0.35F B            CCN000662500000662500FN00000000020221201000662500NNM   20220916100825    1W    00000250000000452000000000032Q8    EMEMI   000000000000MT32A040
BI00B32Q8    EW22124TMW     202211091801W006930              IVSSH 0.35F B            CCN000460000000460000FN00000000020221201000460000NNM   20220916100825    1W    00000250000000452000000000032Q8    EMEMI   000000000000MT42A047
BI00B32Q8    EW22122TMW     202210261801W00695U              IVSSH 0.35F BE           CCN000015000000015000FN00000000020221201000015000NNM   20220916100825    1W    00000250000000452000000000032Q8    EMEMI   000000000000MT22A028
BI00B32Q8    EW22123TMW     202211021801W00695U              IVSSH 0.35F BE           CCN000070000000070000FN00000000020221201000070000NNM   20220916100825    1W    00000250000000452000000000032Q8    EMEMI   000000000000MT32A041
BI00B32Q8    EW22124TMW     202211091801W00695U              IVSSH 0.35F BE           CCN000047500000047500FN00000000020221201000047500NNM   20220916100825    1W    00000250000000452000000000032Q8    EMEMI   000000000000MT42A048
BI00B32Q8    EW22123TMW     202211021801W006960              IVSSH 0.35F G            CCN000322500000322500FN00000000020221201000322500NNM   20220916100825    1W    00000250000000452000000000032Q8    EMEMI   000000000000MT32A042
BI00B32Q8    EW22124TMW     202211091801W006960              IVSSH 0.35F G            CCN000370000000370000FN00000000020221201000370000NNM   20220916100825    1W    00000250000000452000000000032Q8    EMEMI   000000000000MT42A049
BI00B32Q8    EW22122TMW     202210261801W006941              IVSSH 0.35F GY           CCN000170000000170000FN00000000020221201000170000NNM   20220916100825    1W    00000250000000452000000000032Q8    EMEMI   000000000000MT22A029
BI00B32Q8    EW22123TMW     202211021801W006941              IVSSH 0.35F GY           CCN000232500000232500FN00000000020221201000232500NNM   20220916100825    1W    00000250000000452000000000032Q8    EMEMI   000000000000MT32A043
BI00B32Q8    EW22124TMW     202211091801W006941              IVSSH 0.35F GY           CCN000157500000157500FN00000000020221201000157500NNM   20220916100825    1W    00000250000000452000000000032Q8    EMEMI   000000000000MT42A050
BI00B32Q8    EW22122TMW     202210261801W006990              IVSSH 0.35F L            CCN000140000000140000FN00000000020221201000140000NNM   20220916100825    1W    00000250000000452000000000032Q8    EMEMI   000000000000MT22A030
BI00B32Q8    EW22123TMW     202211021801W006990              IVSSH 0.35F L            CCN000645000000645000FN00000000020221201000645000NNM   20220916100825    1W    00000250000000452000000000032Q8    EMEMI   000000000000MT32A044
BI00B32Q8    EW22124TMW     202211091801W006990              IVSSH 0.35F L            CCN000452500000452500FN00000000020221201000452500NNM   20220916100825    1W    00000250000000452000000000032Q8    EMEMI   000000000000MT42A051
BI00B32Q8    EW22121TMW     202210191801W006961              IVSSH 0.35F LG           CCN000090000000090000FN00000000020221201000090000NNM   20220916100825    1W    00000250000000452000000000032Q8    EMEMI   000000000000MT12A014
BI00B32Q8    EW22122TMW     202210261801W006961              IVSSH 0.35F LG           CCN000242500000242500FN00000000020221201000242500NNM   20220916100825    1W    00000250000000452000000000032Q8    EMEMI   000000000000MT22A031
BI00B32Q8    EW22123TMW     202211021801W006961              IVSSH 0.35F LG           CCN000317500000317500FN00000000020221201000317500NNM   20220916100825    1W    00000250000000452000000000032Q8    EMEMI   000000000000MT32A045
BI00B32Q8    EW22124TMW     202211091801W006961              IVSSH 0.35F LG           CCN000217500000217500FN00000000020221201000217500NNM   20220916100825    1W    00000250000000452000000000032Q8    EMEMI   000000000000MT42A052
BI00B32Q8    EW22121TMW     202210191801W006952              IVSSH 0.35F P            CCN000097500000097500FN00000000020221201000097500NNM   20220916100825    1W    00000250000000452000000000032Q8    EMEMI   000000000000MT12A015
BI00B32Q8    EW22122TMW     202210261801W006952              IVSSH 0.35F P            CCN000365000000365000FN00000000020221201000365000NNM   20220916100825    1W    00000250000000452000000000032Q8    EMEMI   000000000000MT22A032
BI00B32Q8    EW22123TMW     202211021801W006952              IVSSH 0.35F P            CCN000482500000482500FN00000000020221201000482500NNM   20220916100825    1W    00000250000000452000000000032Q8    EMEMI   000000000000MT32A046
BI00B32Q8    EW22124TMW     202211091801W006952              IVSSH 0.35F P            CCN000330000000330000FN00000000020221201000330000NNM   20220916100825    1W    00000250000000452000000000032Q8    EMEMI   000000000000MT42A053
BI00B32Q8    EW22123TMW     202211021801W006950              IVSSH 0.35F R            CCN000472500000472500FN00000000020221201000472500NNM   20220916100825    1W    00000250000000452000000000032Q8    EMEMI   000000000000MT32A047
BI00B32Q8    EW22124TMW     202211091801W006950              IVSSH 0.35F R            CCN000407500000407500FN00000000020221201000407500NNM   20220916100825    1W    00000250000000452000000000032Q8    EMEMI   000000000000MT42A054
BI00B32Q8    EW22122TMW     202210261801W006991              IVSSH 0.35F SB           CCN000017500000017500FN00000000020221201000017500NNM   20220916100825    1W    00000250000000452000000000032Q8    EMEMI   000000000000MT22A033
BI00B32Q8    EW22123TMW     202211021801W006991              IVSSH 0.35F SB           CCN000135000000135000FN00000000020221201000135000NNM   20220916100825    1W    00000250000000452000000000032Q8    EMEMI   000000000000MT32A048
BI00B32Q8    EW22124TMW     202211091801W006991              IVSSH 0.35F SB           CCN000095000000095000FN00000000020221201000095000NNM   20220916100825    1W    00000250000000452000000000032Q8    EMEMI   000000000000MT42A055
BI00B32Q8    EW22121TMW     202210191801W006992              IVSSH 0.35F V            CCN000075000000075000FN00000000020221201000075000NNM   20220916100825    1W    00000250000000452000000000032Q8    EMEMI   000000000000MT12A016
BI00B32Q8    EW22122TMW     202210261801W006992              IVSSH 0.35F V            CCN000290000000290000FN00000000020221201000290000NNM   20220916100825    1W    00000250000000452000000000032Q8    EMEMI   000000000000MT22A034
BI00B32Q8    EW22123TMW     202211021801W006992              IVSSH 0.35F V            CCN000385000000385000FN00000000020221201000385000NNM   20220916100825    1W    00000250000000452000000000032Q8    EMEMI   000000000000MT32A049
BI00B32Q8    EW22124TMW     202211091801W006992              IVSSH 0.35F V            CCN000265000000265000FN00000000020221201000265000NNM   20220916100825    1W    00000250000000452000000000032Q8    EMEMI   000000000000MT42A056
BI00B32Q8    EW22122TMW     202210261801W006940              IVSSH 0.35F W            CCN000085000000085000FN00000000020221201000085000NNM   20220916100825    1W    00000250000000452000000000032Q8    EMEMI   000000000000MT22A035
BI00B32Q8    EW22123TMW     202211021801W006940              IVSSH 0.35F W            CCN000575000000575000FN00000000020221201000575000NNM   20220916100825    1W    00000250000000452000000000032Q8    EMEMI   000000000000MT32A050
BI00B32Q8    EW22124TMW     202211091801W006940              IVSSH 0.35F W            CCN000397500000397500FN00000000020221201000397500NNM   20220916100825    1W    00000250000000452000000000032Q8    EMEMI   000000000000MT42A057
BI00B32Q8    EW22123TMW     202211021801W006943              IVSSH 0.35F W/B          CCN000047500000047500FN00000000020221201000047500NNM   20220916100825    1W    00000250000000452000000000032Q8    EMEMI   000000000000MT32A051
BI00B32Q8    EW22124TMW     202211091801W006943              IVSSH 0.35F W/B          CCN000050000000050000FN00000000020221201000050000NNM   20220916100825    1W    00000250000000452000000000032Q8    EMEMI   000000000000MT42A058
BI00B32Q8    EW22123TMW     202211021801W006970              IVSSH 0.35F Y            CCN000065000000065000FN00000000020221201000065000NNM   20220916100825    1W    00000250000000452000000000032Q8    EMEMI   000000000000MT32A052
BI00B32Q8    EW22124TMW     202211091801W006970              IVSSH 0.35F Y            CCN000082500000082500FN00000000020221201000082500NNM   20220916100825    1W    00000250000000452000000000032Q8    EMEMI   000000000000MT42A059
BI00B32Q8    EW22124TMW     202211091801W00395U              IVSSH 0.5F BE            CCN000001800000001800FN00000000020221201000001800NNM   20220916100825    1W    00000180000000625000000000032Q8    EMEMI   000000000000MT42A028
BI00B32Q8    EW22124TMW     202211091801W003980              IVSSH 0.5F BR            CCN000003600000003600FN00000000020221201000003600NNM   20220916100825    1W    00000180000000625000000000032Q8    EMEMI   000000000000MT42A029
BI00B32Q8    EW22122TMW     202210261801W003960              IVSSH 0.5F G             CCN000025200000025200FN00000000020221201000025200NNM   20220916100825    1W    00000180000000625000000000032Q8    EMEMI   000000000000MT22A018
BI00B32Q8    EW22123TMW     202211021801W003960              IVSSH 0.5F G             CCN000165600000165600FN00000000020221201000165600NNM   20220916100825    1W    00000180000000625000000000032Q8    EMEMI   000000000000MT32A025
BI00B32Q8    EW22124TMW     202211091801W003960              IVSSH 0.5F G             CCN000115200000115200FN00000000020221201000115200NNM   20220916100825    1W    00000180000000625000000000032Q8    EMEMI   000000000000MT42A030
BI00B32Q8    EW22123TMW     202211021801W003941              IVSSH 0.5F GY            CCN000025200000025200FN00000000020221201000025200NNM   20220916100825    1W    00000180000000625000000000032Q8    EMEMI   000000000000MT32A026
BI00B32Q8    EW22124TMW     202211091801W003941              IVSSH 0.5F GY            CCN000030600000030600FN00000000020221201000030600NNM   20220916100825    1W    00000180000000625000000000032Q8    EMEMI   000000000000MT42A031
BI00B32Q8    EW22123TMW     202211021801W003990              IVSSH 0.5F L             CCN000261000000261000FN00000000020221201000261000NNM   20220916100825    1W    00000180000000625000000000032Q8    EMEMI   000000000000MT32A027
BI00B32Q8    EW22124TMW     202211091801W003990              IVSSH 0.5F L             CCN000190800000190800FN00000000020221201000190800NNM   20220916100825    1W    00000180000000625000000000032Q8    EMEMI   000000000000MT42A032
BI00B32Q8    EW22121TMW     202210191801W003952              IVSSH 0.5F P             CCN000144000000144000FN00000000020221201000144000NNM   20220916100825    1W    00000180000000625000000000032Q8    EMEMI   000000000000MT12A012
BI00B32Q8    EW22122TMW     202210261801W003952              IVSSH 0.5F P             CCN000172800000172800FN00000000020221201000172800NNM   20220916100825    1W    00000180000000625000000000032Q8    EMEMI   000000000000MT22A019
BI00B32Q8    EW22123TMW     202211021801W003952              IVSSH 0.5F P             CCN000228600000228600FN00000000020221201000228600NNM   20220916100825    1W    00000180000000625000000000032Q8    EMEMI   000000000000MT32A028
BI00B32Q8    EW22124TMW     202211091801W003952              IVSSH 0.5F P             CCN000156600000156600FN00000000020221201000156600NNM   20220916100825    1W    00000180000000625000000000032Q8    EMEMI   000000000000MT42A033
BI00B32Q8    EW22123TMW     202211021801W003950              IVSSH 0.5F R             CCN000005400000005400FN00000000020221201000005400NNM   20220916100825    1W    00000180000000625000000000032Q8    EMEMI   000000000000MT32A029
BI00B32Q8    EW22124TMW     202211091801W003950              IVSSH 0.5F R             CCN000185400000185400FN00000000020221201000185400NNM   20220916100825    1W    00000180000000625000000000032Q8    EMEMI   000000000000MT42A034
BI00B32Q8    EW22123TMW     202211021801W003991              IVSSH 0.5F SB            CCN000005400000005400FN00000000020221201000005400NNM   20220916100825    1W    00000180000000625000000000032Q8    EMEMI   000000000000MT32A030
BI00B32Q8    EW22124TMW     202211091801W003991              IVSSH 0.5F SB            CCN000003600000003600FN00000000020221201000003600NNM   20220916100825    1W    00000180000000625000000000032Q8    EMEMI   000000000000MT42A035
BI00B32Q8    EW22122TMW     202210261801W003992              IVSSH 0.5F V             CCN000019800000019800FN00000000020221201000019800NNM   20220916100825    1W    00000180000000625000000000032Q8    EMEMI   000000000000MT22A020
BI00B32Q8    EW22123TMW     202211021801W003992              IVSSH 0.5F V             CCN000122400000122400FN00000000020221201000122400NNM   20220916100825    1W    00000180000000625000000000032Q8    EMEMI   000000000000MT32A031
BI00B32Q8    EW22124TMW     202211091801W003992              IVSSH 0.5F V             CCN000084600000084600FN00000000020221201000084600NNM   20220916100825    1W    00000180000000625000000000032Q8    EMEMI   000000000000MT42A036
BI00B32Q8    EW22124TMW     202211091801W003940              IVSSH 0.5F W             CCN000018000000018000FN00000000020221201000018000NNM   20220916100825    1W    00000180000000625000000000032Q8    EMEMI   000000000000MT42A037
BI00B32Q8    EW22122TMW     202210261801W003943              IVSSH 0.5F W/B           CCN000064800000064800FN00000000020221201000064800NNM   20220916100825    1W    00000180000000625000000000032Q8    EMEMI   000000000000MT22A021
BI00B32Q8    EW22123TMW     202211021801W003943              IVSSH 0.5F W/B           CCN000090000000090000FN00000000020221201000090000NNM   20220916100825    1W    00000180000000625000000000032Q8    EMEMI   000000000000MT32A032
BI00B32Q8    EW22124TMW     202211091801W003943              IVSSH 0.5F W/B           CCN000063000000063000FN00000000020221201000063000NNM   20220916100825    1W    00000180000000625000000000032Q8    EMEMI   000000000000MT42A038
BI00B32Q8    EW22123TMW     202211021801W003970              IVSSH 0.5F Y             CCN000104400000104400FN00000000020221201000104400NNM   20220916100825    1W    00000180000000625000000000032Q8    EMEMI   000000000000MT32A033
BI00B32Q8    EW22124TMW     202211091801W003970              IVSSH 0.5F Y             CCN000086400000086400FN00000000020221201000086400NNM   20220916100825    1W    00000180000000625000000000032Q8    EMEMI   000000000000MT42A039
BI00B32Q8    EW22122TMW     202210261801W004060              IVSSH 0.75F G            CCN000002600000002600FN00000000020221201000002600NNM   20220916100825    1W    00000130000000882000000000032Q8    EMEMI   000000000000MT22A022
BI00B32Q8    EW22123TMW     202211021801W004060              IVSSH 0.75F G            CCN000016900000016900FN00000000020221201000016900NNM   20220916100825    1W    00000130000000882000000000032Q8    EMEMI   000000000000MT32A034
BI00B32Q8    EW22124TMW     202211091801W004060              IVSSH 0.75F G            CCN000011700000011700FN00000000020221201000011700NNM   20220916100825    1W    00000130000000882000000000032Q8    EMEMI   000000000000MT42A040
BI00B32Q8    EW22123TMW     202211021801W004090              IVSSH 0.75F L            CCN000024700000024700FN00000000020221201000024700NNM   20220916100825    1W    00000130000000882000000000032Q8    EMEMI   000000000000MT32A035
BI00B32Q8    EW22124TMW     202211091801W004090              IVSSH 0.75F L            CCN000050700000050700FN00000000020221201000050700NNM   20220916100825    1W    00000130000000882000000000032Q8    EMEMI   000000000000MT42A041
BI00B32Q8    EW22122TMW     202210261801W004052              IVSSH 0.75F P            CCN000003900000003900FN00000000020221201000003900NNM   20220916100825    1W    00000130000000882000000000032Q8    EMEMI   000000000000MT22A023
BI00B32Q8    EW22123TMW     202211021801W004052              IVSSH 0.75F P            CCN000016900000016900FN00000000020221201000016900NNM   20220916100825    1W    00000130000000882000000000032Q8    EMEMI   000000000000MT32A036
BI00B32Q8    EW22124TMW     202211091801W004052              IVSSH 0.75F P            CCN000011700000011700FN00000000020221201000011700NNM   20220916100825    1W    00000130000000882000000000032Q8    EMEMI   000000000000MT42A042
BI00B32Q8    EW22121TMW     202210191801W004050              IVSSH 0.75F R            CCN000011700000011700FN00000000020221201000011700NNM   20220916100825    1W    00000130000000882000000000032Q8    EMEMI   000000000000MT12A013
BI00B32Q8    EW22122TMW     202210261801W004050              IVSSH 0.75F R            CCN000062400000062400FN00000000020221201000062400NNM   20220916100825    1W    00000130000000882000000000032Q8    EMEMI   000000000000MT22A024
BI00B32Q8    EW22123TMW     202211021801W004050              IVSSH 0.75F R            CCN000080600000080600FN00000000020221201000080600NNM   20220916100825    1W    00000130000000882000000000032Q8    EMEMI   000000000000MT32A037
BI00B32Q8    EW22124TMW     202211091801W004050              IVSSH 0.75F R            CCN000054600000054600FN00000000020221201000054600NNM   20220916100825    1W    00000130000000882000000000032Q8    EMEMI   000000000000MT42A043
BI00B32Q8    EW22124TMW     202211091801W004092              IVSSH 0.75F V            CCN000015600000015600FN00000000020221201000015600NNM   20220916100825    1W    00000130000000882000000000032Q8    EMEMI   000000000000MT42A044
BI00B32Q8    EW22122TMW     202210261801W004043              IVSSH 0.75F W/B          CCN000007800000007800FN00000000020221201000007800NNM   20220916100825    1W    00000130000000882000000000032Q8    EMEMI   000000000000MT22A025
BI00B32Q8    EW22123TMW     202211021801W004043              IVSSH 0.75F W/B          CCN000014300000014300FN00000000020221201000014300NNM   20220916100825    1W    00000130000000882000000000032Q8    EMEMI   000000000000MT32A038
BI00B32Q8    EW22124TMW     202211091801W004043              IVSSH 0.75F W/B          CCN000010400000010400FN00000000020221201000010400NNM   20220916100825    1W    00000130000000882000000000032Q8    EMEMI   000000000000MT42A045
BI00B32Q8    EW22122TMW     202210261801W004070              IVSSH 0.75F Y            CCN000003900000003900FN00000000020221201000003900NNM   20220916100825    1W    00000130000000882000000000032Q8    EMEMI   000000000000MT22A026
BI00B32Q8    EW22123TMW     202211021801W004070              IVSSH 0.75F Y            CCN000005200000005200FN00000000020221201000005200NNM   20220916100825    1W    00000130000000882000000000032Q8    EMEMI   000000000000MT32A039
BI00B32Q8    EW22124TMW     202211091801W004070              IVSSH 0.75F Y            CCN000002600000002600FN00000000020221201000002600NNM   20220916100825    1W    00000130000000882000000000032Q8    EMEMI   000000000000MT42A046
BI00B32Q8    @EW22121TMW    20221019181E50004ZZ              AVSSCS-S 0.5FX1 DGY      CCN000002800000002800FN00000000020221201000002800NNM   20220916100820    1W    00000040000001909700000000032Q8    EMEMI   000000000000MT12A003
BI00B32Q8    @EW22122TMW    20221026181E50004ZZ              AVSSCS-S 0.5FX1 DGY      CCN000006400000006400FN00000000020221201000006400NNM   20220916100820    1W    00000040000001909700000000032Q8    EMEMI   000000000000MT22A003
BI00B32Q8    @EW22123TMW    20221102181E50004ZZ              AVSSCS-S 0.5FX1 DGY      CCN000009200000009200FN00000000020221201000009200NNM   20220916100820    1W    00000040000001909700000000032Q8    EMEMI   000000000000MT32A003
BI00B32Q8    @EW22124TMW    20221109181E50004ZZ              AVSSCS-S 0.5FX1 DGY      CCN000007200000007200FN00000000020221201000007200NNM   20220916100820    1W    00000040000001909700000000032Q8    EMEMI   000000000000MT42A003
BI00B32Q8    @EW22121TMW    20221019181E50005ZZ              AVSSCS-S 0.5FX1 DGY/W    CCN000003200000003200FN00000000020221201000003200NNM   20220916100820    1W    00000040000001909700000000032Q8    EMEMI   000000000000MT12A004
BI00B32Q8    @EW22122TMW    20221026181E50005ZZ              AVSSCS-S 0.5FX1 DGY/W    CCN000006400000006400FN00000000020221201000006400NNM   20220916100820    1W    00000040000001909700000000032Q8    EMEMI   000000000000MT22A004
BI00B32Q8    @EW22123TMW    20221102181E50005ZZ              AVSSCS-S 0.5FX1 DGY/W    CCN000009600000009600FN00000000020221201000009600NNM   20220916100820    1W    00000040000001909700000000032Q8    EMEMI   000000000000MT32A004
BI00B32Q8    @EW22124TMW    20221109181E50005ZZ              AVSSCS-S 0.5FX1 DGY/W    CCN000007200000007200FN00000000020221201000007200NNM   20220916100820    1W    00000040000001909700000000032Q8    EMEMI   000000000000MT42A004
BI00B32Q8    @EW22121TMW    20221019181E50028ZZ              AVSSCS-S 0.5FX3 DGY      CCN000005500000005500FN00000000020221201000005500NNM   20220916100820    1W    00000025000003265000000000032Q8    EMEMI   000000000000MT12A005
BI00B32Q8    @EW22122TMW    20221026181E50028ZZ              AVSSCS-S 0.5FX3 DGY      CCN000004750000004750FN00000000020221201000004750NNM   20220916100820    1W    00000025000003265000000000032Q8    EMEMI   000000000000MT22A005
BI00B32Q8    @EW22123TMW    20221102181E50028ZZ              AVSSCS-S 0.5FX3 DGY      CCN000006250000006250FN00000000020221201000006250NNM   20220916100820    1W    00000025000003265000000000032Q8    EMEMI   000000000000MT32A005
BI00B32Q8    @EW22124TMW    20221109181E50028ZZ              AVSSCS-S 0.5FX3 DGY      CCN000004000000004000FN00000000020221201000004000NNM   20220916100820    1W    00000025000003265000000000032Q8    EMEMI   000000000000MT42A005
BI00B32Q8    @EW22121TMW    20221019181E50036ZZ              AVSSCS-S 0.3FX2 DGY      CCN000015050000015050FN00000000020221201000015050NNM   20220916100820    1W    00000035000002165000000000032Q8    EMEMI   000000000000MT12A006
BI00B32Q8    @EW22122TMW    20221026181E50036ZZ              AVSSCS-S 0.3FX2 DGY      CCN000047950000047950FN00000000020221201000047950NNM   20220916100820    1W    00000035000002165000000000032Q8    EMEMI   000000000000MT22A006
BI00B32Q8    @EW22123TMW    20221102181E50036ZZ              AVSSCS-S 0.3FX2 DGY      CCN000070000000070000FN00000000020221201000070000NNM   20220916100820    1W    00000035000002165000000000032Q8    EMEMI   000000000000MT32A006
BI00B32Q8    @EW22124TMW    20221109181E50036ZZ              AVSSCS-S 0.3FX2 DGY      CCN000052150000052150FN00000000020221201000052150NNM   20220916100820    1W    00000035000002165000000000032Q8    EMEMI   000000000000MT42A006
BI00B32Q8    @EW22121TMW    20221019181F21016ZZ              AVSSHCS-S 0.5FX2 B/BR    CCN000000300000000300FN00000000020221201000000300NNM   20220916100820    1W    00000030000002531400000000032Q8    EMEMI   000000000000MT12A007
BI00B32Q8    @EW22122TMW    20221026181F21016ZZ              AVSSHCS-S 0.5FX2 B/BR    CCN000002100000002100FN00000000020221201000002100NNM   20220916100820    1W    00000030000002531400000000032Q8    EMEMI   000000000000MT22A007
BI00B32Q8    @EW22123TMW    20221102181F21016ZZ              AVSSHCS-S 0.5FX2 B/BR    CCN000002400000002400FN00000000020221201000002400NNM   20220916100820    1W    00000030000002531400000000032Q8    EMEMI   000000000000MT32A007
BI00B32Q8    @EW22124TMW    20221109181F21016ZZ              AVSSHCS-S 0.5FX2 B/BR    CCN000001800000001800FN00000000020221201000001800NNM   20220916100820    1W    00000030000002531400000000032Q8    EMEMI   000000000000MT42A007
BI00B32Q8    @EW22121TMW    20221019181CQ7003ZZ              IVSSHCS-S 0.5FX2 B(B,W)  CCN000031500000031500FN00000000020221201000031500NNM   20220916100820    1W    00000030000002350200000000032Q8    EMEMI   000000000000MT12A001
BI00B32Q8    @EW22122TMW    20221026181CQ7003ZZ              IVSSHCS-S 0.5FX2 B(B,W)  CCN000043500000043500FN00000000020221201000043500NNM   20220916100820    1W    00000030000002350200000000032Q8    EMEMI   000000000000MT22A001
BI00B32Q8    @EW22123TMW    20221102181CQ7003ZZ              IVSSHCS-S 0.5FX2 B(B,W)  CCN000059100000059100FN00000000020221201000059100NNM   20220916100820    1W    00000030000002350200000000032Q8    EMEMI   000000000000MT32A001
BI00B32Q8    @EW22124TMW    20221109181CQ7003ZZ              IVSSHCS-S 0.5FX2 B(B,W)  CCN000041400000041400FN00000000020221201000041400NNM   20220916100820    1W    00000030000002350200000000032Q8    EMEMI   000000000000MT42A001
BI00B32Q8    @EW22121TMW    20221019181CQ7004ZZ              IVSSHCS-S 0.5FX2 B(R,G)  CCN000042000000042000FN00000000020221201000042000NNM   20220916100820    1W    00000030000002350200000000032Q8    EMEMI   000000000000MT12A002
BI00B32Q8    @EW22122TMW    20221026181CQ7004ZZ              IVSSHCS-S 0.5FX2 B(R,G)  CCN000037200000037200FN00000000020221201000037200NNM   20220916100820    1W    00000030000002350200000000032Q8    EMEMI   000000000000MT22A002
BI00B32Q8    @EW22123TMW    20221102181CQ7004ZZ              IVSSHCS-S 0.5FX2 B(R,G)  CCN000048900000048900FN00000000020221201000048900NNM   20220916100820    1W    00000030000002350200000000032Q8    EMEMI   000000000000MT32A002
BI00B32Q8    @EW22124TMW    20221109181CQ7004ZZ              IVSSHCS-S 0.5FX2 B(R,G)  CCN000033600000033600FN00000000020221201000033600NNM   20220916100820    1W    00000030000002350200000000032Q8    EMEMI   000000000000MT42A002
BI00B32W4    4500200443     2022101818007704260              AVSS 2F G                CCN000001500000001500FN00000000020221001000001500NNE   20220916150155W41 1W    00000050000002126400000000032W41   HJYHK-J 000000000000OS12A002
BI00B32W4    4500200443     2022101818007704270              AVSS 2F Y                CCN000001500000001500FN00000000020221001000001500NNE   20220916150155W41 1W    00000050000002126400000000032W41   HJYHK-J 000000000000OS12A003
BI00B32W4    4500200443     2022101818007704230              AVSS 2F B                CCN000001500000001500FN00000000020221001000001500NNE   20220916150155W41 1W    00000050000002126400000000032W41   HJYHK-J 000000000000OS12A001
BI00B32W4    4500200443     2022101818018404170              CAVS 1.25 Y              CCN000000800000000800FN00000000020221001000000800NNE   20220916150155W41 1W    00000080000001378000000000032W41   HJYHK-J 000000000000OS12A006
BI00B32W4    4500200443     2022101818018404150              CAVS 1.25 R              CCN000001600000001600FN00000000020221001000001600NNE   20220916150155W41 1W    00000080000001378000000000032W41   HJYHK-J 000000000000OS12A004
