AE00TI102209160116/09/202200000000100000000000000000839KGM  00000001119KGM  7C89-6868-30             SEALED ASSY FEMALE       7C89686830               0         0         0         0    0    0    00000252000000252000000335000008442000
AE00TI102209160116/09/202200000008000000000000000019008KGM  00000039008KGM  7271-1818-30             CASE SUB ASSY,ECU        7271181830               0         0         0         0    0    0    00000144000000001800009388000135187200
AE00TI102209160116/09/202200000000900000000000000007795KGM  00000009100KGM  7288-3329-30             HOUSING MALE             7288332930               0         0         0         0    0    0    00001350000000150000000354000047790000
AE00TI102209160116/09/202200000000300000000000000002601KGM  00000003036KGM  7288-3335-30             HOUSING MALE             7288333530               0         0         0         0    0    0    00000450000000150000000354000015930000
AE00TI102209160116/09/202200000000500000000000000004335KGM  00000005060KGM  7288-3337-30             HOUSING MALE             7288333730               0         0         0         0    0    0    00000750000000150000000354000026550000
AE00TI102209160116/09/202200000000300000000000000002601KGM  00000003036KGM  7288-3339-30             HOUSING MALE             7288333930               0         0         0         0    0    0    00000450000000150000000354000015930000
AE00TI102209160116/09/202200000000600000000000000004118KGM  00000005408KGM  7289-3342                HOUSING FEMALE ASS'Y     72893342                 0         0         0         0    0    0    00001440000000240000000186000026784000
AE00TI102209160116/09/202200000001800000000000000012355KGM  00000016225KGM  7289-3342-30             HOUSING FEMALE ASS'Y     7289334230               0         0         0         0    0    0    00004320000000240000000191000082512000
AE00TI102209160116/09/202200000000200000000000000002343KGM  00000002737KGM  7289-5011-30             HOUSING FEMALE ASS'Y     7289501130               0         0         0         0    0    0    00000480000000240000000333000015984000
AE00TI102209160116/09/202200000000100000000000000000829KGM  00000001049KGM  7289-6518-30             HOUSING FEMALE ASS'Y     7289651830               0         0         0         0    0    0    00000120000000120000000598000007176000
AE00TI102209160116/09/202200000000100000000000000000839KGM  00000001119KGM  7289-6868-30             SEALED ASSY FEMALE       7289686830               0         0         0         0    0    0    00000252000000252000000332000008366400
AE00TI102209160116/09/202200000000200000000000000002481KGM  00000002812KGM  7298-1853-10             HOUSING FEMALE ASS'Y     7298185310               0         0         0         0    0    0    00000780000000390000000186000014508000
AE00TI102209160116/09/202200000000100000000000000001097KGM  00000001359KGM  7298-4094-10             HOUSING FEMALE ASS'Y     7298409410               0         0         0         0    0    0    00000338000000338000000241000008145800
AE00TI102209160116/09/202200000000500000000000000004908KGM  00000006450KGM  7298-5993-30             SEALED ASSY FEMALE       7298599330               0         0         0         0    0    0    00001092000000218400000266000029047200
AE00TI102209160116/09/202200000001200000000000000013314KGM  00000015115KGM  7327-6572-3W             BATTERY FUSE             732765723W               0         0         0         0    0    0    00000115200000009600008162000094026240
AE00TI102209160116/09/202200000001800000000000000020536KGM  00000024406KGM  7327-6840-3W             BATTERY FUSE             732768403W               0         0         0         0    0    0    00000129600000007200009909000128420640
AE00TI102209160116/09/202200000001700000000000000012614KGM  00000019074KGM  7388-2978-30             HOUSING MALE ASS'Y       7388297830               0         0         0         0    0    0    00000816000000048000001790000146064000
AE00TI102209160116/09/202200000001800000000000000023760KGM  00000028260KGM  7470-4481                J/B COMPLETE ASS'Y       74704481                 0         0         0         0    0    0    00000043200000002400000000000000000000
AE00TI102209160116/09/202200000001000000000000000000000KGM  00000000000KGM  7470-5300E               J/B COMPLETE ASS'Y       74705300E                0         0         0         0    0    0    00000010000000001000000000000000000000
AE00TI102209160116/09/202200000001000000000000000000000KGM  00000000000KGM  7470-5307E               J/B COMPLETE ASS'Y       74705307E                0         0         0         0    0    0    00000010000000001000000000000000000000
AE00TI102209160116/09/202200000002000000000000000009880KGM  00000013220KGM  7470-5652                J/B COMPLETE ASS'Y       74705652                 0         0         0         0    0    0    00000020000000001000000000000000000000
AE00TI102209160116/09/202200000000600000000000000000000KGM  00000000000KGM  7470-5784E               J/B COMPLETE ASS'Y       74705784E                0         0         0         0    0    0    00000006000000001000000000000000000000
AE00TI102209160116/09/202200000001000000000000000000000KGM  00000000000KGM  7470-5823D               J/B COMPLETE ASS'Y       74705823D                0         0         0         0    0    0    00000015000000001500000000000000000000
AE00TI102209160116/09/202200000003000000000000000000000KGM  00000000000KGM  7470-5823E               J/B COMPLETE ASS'Y       74705823E                0         0         0         0    0    0    00000030000000001000000000000000000000
