AE00TI102209160216/09/202200000000100000000000000000171KGM  00000000219KGM  7137-3047-30             UNIT PACKING             7137304730               0         0         0         0    0    0    00000100000000100000000189000001890000
AE00TI102209160216/09/202200000000500000000000000002710KGM  00000003607KGM  7147-3642-30             CLIP                     7147364230               0         0         0         0    0    0    00001500000000300000000074000011100000
AE00TI102209160216/09/202200000000100000000000000000827KGM  00000001102KGM  7154-5712-30             CASSETTE R/B             7154571230               0         0         0         0    0    0    00000080000000080000000288000002304000
AE00TI102209160216/09/202200000000200000000000000000661KGM  00000000772KGM  7158-3006-90             RUBBER STOPPER           7158300690               0         0         0         0    0    0    00004000000002000000000016000006400000
AE00TI102209160216/09/202200000000100000000000000000104KGM  00000000152KGM  7158-3166-60             WIRE SEAL                7158316660               0         0         0         0    0    0    00004000000004000000000004000001600000
AE00TI102209160216/09/202200000000300000000000000000144KGM  00000000327KGM  7158-3167-80             WIRE SEAL                7158316780               0         0         0         0    0    0    00006000000002000000000005000003000000
AE00TI102209160216/09/202200000000100000000000000000156KGM  00000000204KGM  7158-3169-40             SEALING PLUG             7158316940               0         0         0         0    0    0    00004000000004000000000006000002400000
AE00TI102209160216/09/202200000000800000000000000006097KGM  00000007842KGM  7171-6292                HOUSING                  71716292                 0         0         0         0    0    0    00000144000000018000001240000017856000
AE00TI102209160216/09/202200000000500000000000000003910KGM  00000004510KGM  7174-1315-30             SEALED COVER             7174131530               0         0         0         0    0    0    00000400000000080000000459000018360000
AE00TI102209160216/09/202200000000100000000000000000730KGM  00000000833KGM  7182-2412                HOUSING MALE             71822412                 0         0         0         0    0    0    00000050000000050000000638000003190000
AE00TI102209160216/09/202200000000200000000000000002564KGM  00000002954KGM  7182-4941                DOUBLE SIDED             71824941                 0         0         0         0    0    0    00000200000000100000000816000016320000
AE00TI102209160216/09/202200000000200000000000000000956KGM  00000001520KGM  7183-2413                CONNECTOR HOUSING        71832413                 0         0         0         0    0    0    00000960000000480000000074000007104000
AE00TI102209160216/09/202200000000100000000000000000478KGM  00000000760KGM  7183-2413-30             CONNECTOR HOUSING        7183241330               0         0         0         0    0    0    00000480000000480000000076000003648000
AE00TI102209160216/09/202200000000400000000000000003117KGM  00000004244KGM  7183-2414                CONNECTOR HOUSING        71832414                 0         0         0         0    0    0    00001920000000480000000050000009600000
AE00TI102209160216/09/202200000000100000000000000001065KGM  00000001352KGM  7183-2419-30             HOUSING                  7183241930               0         0         0         0    0    0    00000480000000480000000093000004464000
AE00TI102209160216/09/202200000000100000000000000000821KGM  00000001104KGM  7183-6320                HOUSING                  71836320                 0         0         0         0    0    0    00000480000000480000000092000004416000
AE00TI102209160216/09/202200000000400000000000000004120KGM  00000004704KGM  7222-7484-40             CONNECTOR                7222748440               0         0         0         0    0    0    00000400000000100000000758000030320000
AE00TI102209160216/09/202200000000200000000000000001934KGM  00000002194KGM  7222-7564-40             CONNECTOR                7222756440               0         0         0         0    0    0    00000100000000050000001166000011660000
AE00TI102209160216/09/202200000000100000000000000000309KGM  00000000464KGM  7254-7022-3W             ENG BLOCK                725470223W               0         0         0         0    0    0    00000000800000000800005023000000401840
AE00TI102209160216/09/202200000000100000000000000000230KGM  00000000339KGM  7282-5528-70             HOUSING MALE ASS'Y       7282552870               0         0         0         0    0    0    00000100000000100000000434000004340000
AE00TI102209160216/09/202200000000400000000000000003510KGM  00000004312KGM  7283-1156                CONNECTOR                72831156                 0         0         0         0    0    0    00000320000000080000000810000025920000
AE00TI102209160216/09/202200000000100000000000000001160KGM  00000001341KGM  7283-1485                CONNECTOR                72831485                 0         0         0         0    0    0    00000200000000200000000366000007320000
AE00TI102209160216/09/202200000000300000000000000003420KGM  00000003955KGM  7283-1968-30             CONNECTOR                7283196830               0         0         0         0    0    0    00000270000000090000000687000018549000
AE00TI102209160216/09/202200000000300000000000000004356KGM  00000005044KGM  7283-7028-30             CONNECTOR                7283702830               0         0         0         0    0    0    00000900000000300000000520000046800000
AE00TI102209160216/09/202200000000300000000000000003021KGM  00000003514KGM  7283-8398-40             CONNECTOR                7283839840               0         0         0         0    0    0    00000462000000154000000398000018387600
AE00TI102209160216/09/202200000000400000000000000001400KGM  00000001850KGM  7283-8721-30             HOUSING FEMALE ASS'Y     7283872130               0         0         0         0    0    0    00000400000000100000000415000016600000
AE00TI102209160216/09/202200000000100000000000000000967KGM  00000001168KGM  7286-1917                CONNECTOR MALE ASS'Y     72861917                 0         0         0         0    0    0    00000120000000120000000517000006204000
AE00TI102209160216/09/202200000000100000000000000000952KGM  00000001140KGM  7286-7860                HOUSING MALE ASS'Y       72867860                 0         0         0         0    0    0    00000080000000080000000383000003064000
AE00TI102209160216/09/202200000001000000000000000008537KGM  00000010452KGM  7287-9155                HOUSING FEMALE ASS'Y     72879155                 0         0         0         0    0    0    00000960000000096000000357000034272000
AE00TI102209160216/09/202200000000200000000000000000000KGM  00000000000KGM  7289-3342-30M            HOUSING FEMALE ASS'Y     7289334230M              0         0         0         0    0    0    00000204000000102000000188000003835200
AE00TI102209160216/09/202200000003200000000000000027350KGM  00000034070KGM  7289-5979-30             HOUSING FEMALE ASS'Y     7289597930               0         0         0         0    0    0    00000806400000025200001346000108541440
AE00TI102209160216/09/202200000001700000000000000022440KGM  00000026690KGM  7470-4481                J/B COMPLETE ASS'Y       74704481                 0         0         0         0    0    0    00000040800000002400000000000000000000
AE00TI102209160216/09/202200000000300000000000000000000KGM  00000000000KGM  7470-5300S               J/B COMPLETE ASS'Y       74705300S                0         0         0         0    0    0    00000000300000000100000000000000000000
AE00TI102209160216/09/202200000003000000000000000000000KGM  00000000000KGM  7470-5307E               J/B COMPLETE ASS'Y       74705307E                0         0         0         0    0    0    00000030000000001000000000000000000000
AE00TI102209160216/09/202200000001800000000000000000000KGM  00000000000KGM  7470-5308E               J/B COMPLETE ASS'Y       74705308E                0         0         0         0    0    0    00000018000000001000000000000000000000
AE00TI102209160216/09/202200000002500000000000000000000KGM  00000000000KGM  7470-5784D               J/B COMPLETE ASS'Y       74705784D                0         0         0         0    0    0    00000037500000001500000000000000000000
AE00TI102209160216/09/202200000002200000000000000000000KGM  00000000000KGM  7470-5784E               J/B COMPLETE ASS'Y       74705784E                0         0         0         0    0    0    00000022000000001000000000000000000000
AE00TI102209160216/09/202200000000300000000000000000000KGM  00000000000KGM  7470-5858D               J/B COMPLETE ASS'Y       74705858D                0         0         0         0    0    0    00000003000000001000000000000000000000
AE00TI102209160216/09/202200000001000000000000000000000KGM  00000000000KGM  7470-5927D               J/B COMPLETE ASS'Y       74705927D                0         0         0         0    0    0    00000015000000001500000000000000000000
