AE00TI102209160316/09/202200000003000000000000000005115KGM  00000006567KGM  7137-3047-30             UNIT PACKING             7137304730               0         0         0         0    0    0    00003000000000100000000189000056700000
AE00TI102209160316/09/202200000003100000000000000010249KGM  00000011966KGM  7158-3006-90             RUBBER STOPPER           7158300690               0         0         0         0    0    0    00062000000002000000000016000099200000
AE00TI102209160316/09/202200000000300000000000000001014KGM  00000001159KGM  7158-3009-60             RUBBER STOPPER           7158300960               0         0         0         0    0    0    00006000000002000000000012000007200000
AE00TI102209160316/09/202200000000200000000000000000552KGM  00000000667KGM  7158-3070-80             RUBBER STOPPER           7158307080               0         0         0         0    0    0    00008000000004000000000008000006400000
AE00TI102209160316/09/202200000000200000000000000000248KGM  00000000345KGM  7158-3165-90             WIRE SEAL                7158316590               0         0         0         0    0    0    00008000000004000000000006000004800000
AE00TI102209160316/09/202200000001600000000000000001664KGM  00000002438KGM  7158-3166-60             WIRE SEAL                7158316660               0         0         0         0    0    0    00064000000004000000000004000025600000
AE00TI102209160316/09/202200000004800000000000000002304KGM  00000005232KGM  7158-3167-80             WIRE SEAL                7158316780               0         0         0         0    0    0    00096000000002000000000005000048000000
AE00TI102209160316/09/202200000002000000000000000000880KGM  00000001842KGM  7158-3168-80             SEALED                   7158316880               0         0         0         0    0    0    00040000000002000000000004000016000000
AE00TI102209160316/09/202200000000800000000000000001248KGM  00000001633KGM  7158-3169-40             SEALING PLUG             7158316940               0         0         0         0    0    0    00032000000004000000000006000019200000
AE00TI102209160316/09/202200000001400000000000000015446KGM  00000017469KGM  7183-7665-30             HOUSING                  7183766530               0         0         0         0    0    0    00001680000000120000000242000040656000
AE00TI102209160316/09/202200000000400000000000000003748KGM  00000004183KGM  7183-8256-40             HOUSING                  7183825640               0         0         0         0    0    0    00000480000000120000000250000012000000
AE00TI102209160316/09/202200000004000000000000000009504KGM  00000019504KGM  7271-1818-30             CASE SUB ASSY,ECU        7271181830               0         0         0         0    0    0    00000072000000001800009388000067593600
AE00TI102209160316/09/202200000000800000000000000000000KGM  00000000000KGM  7273-2981-0WD            CASSETTE BRACKET         727329810WD              0         0         0         0    0    0    00000080000000010000000000000000000000
AE00TI102209160316/09/202200000001900000000000000000000KGM  00000000000KGM  7273-2981-0WE            CASSETTE BRACKET         727329810WE              0         0         0         0    0    0    00000152000000008000000000000000000000
AE00TI102209160316/09/202200000004000000000000000000000KGM  00000000000KGM  7273-2982-0WD            CASSETTE BRACKET         727329820WD              0         0         0         0    0    0    00000400000000010000000000000000000000
AE00TI102209160316/09/202200000000800000000000000000000KGM  00000000000KGM  7273-2982-0WE            CASSETTE BRACKET         727329820WE              0         0         0         0    0    0    00000120000000015000000000000000000000
AE00TI102209160316/09/202200000002300000000000000000000KGM  00000000000KGM  7273-2983-0WD            CASSETTE BRACKET         727329830WD              0         0         0         0    0    0    00000230000000010000000000000000000000
AE00TI102209160316/09/202200000000100000000000000000000KGM  00000000000KGM  7273-2983-0WE            CASSETTE BRACKET         727329830WE              0         0         0         0    0    0    00000008000000008000000000000000000000
AE00TI102209160316/09/202200000000300000000000000002385KGM  00000003036KGM  7282-1065                CONNECTOR                72821065                 0         0         0         0    0    0    00000450000000150000000415000018675000
AE00TI102209160316/09/202200000000100000000000000001167KGM  00000001372KGM  7282-1248                HOUSING SUB ASSEMBLY     72821248                 0         0         0         0    0    0    00000060000000060000000490000002940000
AE00TI102209160316/09/202200000000200000000000000002712KGM  00000003040KGM  7282-8120-30             CONNECTOR HOUSING        7282812030               0         0         0         0    0    0    00000600000000300000000000000000000000
AE00TI102209160316/09/202200000000200000000000000002712KGM  00000003040KGM  7282-8120-40             CONNECTOR HOUSING        7282812040               0         0         0         0    0    0    00000600000000300000000215000012900000
AE00TI102209160316/09/202200000000100000000000000000730KGM  00000000903KGM  7283-1015-10             CONNECTOR                7283101510               0         0         0         0    0    0    00000200000000200000000624000012480000
AE00TI102209160316/09/202200000000100000000000000000669KGM  00000000933KGM  7283-1140                CONNECTOR HOUSING        72831140                 0         0         0         0    0    0    00000150000000150000000259000003885000
AE00TI102209160316/09/202200000000200000000000000002762KGM  00000003274KGM  7283-1288                CONNECTOR HOUSING        72831288                 0         0         0         0    0    0    00000240000000120000000781000018744000
AE00TI102209160316/09/202200000000700000000000000009674KGM  00000011485KGM  7283-1288-40             CONNECTOR HOUSING        7283128840               0         0         0         0    0    0    00000840000000120000000785000065940000
AE00TI102209160316/09/202200000000100000000000000001032KGM  00000001206KGM  7283-7029-30             CONNECTOR                7283702930               0         0         0         0    0    0    00000600000000600000000231000013860000
AE00TI102209160316/09/202200000000100000000000000001200KGM  00000001410KGM  7283-7449-30             HOUSING FEMALE ASS'Y     7283744930               0         0         0         0    0    0    00000240000000240000000386000009264000
AE00TI102209160316/09/202200000000100000000000000000990KGM  00000001249KGM  7283-7526-30             CONNECTOR HOUSING        7283752630               0         0         0         0    0    0    00000196000000196000000506000009917600
AE00TI102209160316/09/202200000000200000000000000001980KGM  00000002497KGM  7283-7526-40             CONNECTOR HOUSING        7283752640               0         0         0         0    0    0    00000392000000196000000504000019756800
AE00TI102209160316/09/202200000002200000000000000012298KGM  00000017798KGM  7370-0310                J/B ASS'Y                73700310                 0         0         0         0    0    0    00000022000000001000031643000069614600
AE00TI102209160316/09/202200000001700000000000000022440KGM  00000026690KGM  7470-4481                J/B COMPLETE ASS'Y       74704481                 0         0         0         0    0    0    00000040800000002400000000000000000000
AE00TI102209160316/09/202200000000700000000000000000000KGM  00000000000KGM  7470-4808S               J/B COMPLETE ASS'Y       74704808S                0         0         0         0    0    0    00000000700000000100000000000000000000
AE00TI102209160316/09/202200000001700000000000000000000KGM  00000000000KGM  7470-5308E               J/B COMPLETE ASS'Y       74705308E                0         0         0         0    0    0    00000017000000001000000000000000000000
AE00TI102209160316/09/202200000001500000000000000000000KGM  00000000000KGM  7470-5783D               J/B COMPLETE ASS'Y       74705783D                0         0         0         0    0    0    00000022500000001500000000000000000000
AE00TI102209160316/09/202200000001200000000000000000000KGM  00000000000KGM  7470-5791D               J/B COMPLETE ASS'Y       74705791D                0         0         0         0    0    0    00000018000000001500000000000000000000
AE00TI102209160316/09/202200000000100000000000000000000KGM  00000000000KGM  7470-5870S               J/B COMPLETE ASS'Y       74705870S                0         0         0         0    0    0    00000000100000000100000000000000000000
