AE00TO202209160216/09/202200000000100000000000000001047KGM  00000001096KGM  18000004530              AV 8 B                   AV 8 B                   0         0         0         0    0    0    00000000000001000000000211100000211100
AE00TO202209160216/09/202200000017300000000000000181066KGM  00000189523KGM  18000004540              AV 8 W                   AV 8 W                   0         0         0         0    0    0    00000000000173000000000211100036520300
AE00TO202209160216/09/202200000005100000000000000053378KGM  00000055871KGM  18000004543              AV 8 W/B                 AV 8 W/B                 0         0         0         0    0    0    00000000000051000000000211100010766100
AE00TO202209160216/09/202200000003100000000000000032445KGM  00000033961KGM  18000004550              AV 8 R                   AV 8 R                   0         0         0         0    0    0    00000000000031000000000211100006544100
AE00TO202209160216/09/202200000000100000000000000001047KGM  00000001095KGM  18000004553              AV 8 R/B                 AV 8 R/B                 0         0         0         0    0    0    00000000000001000000000211100000211100
AE00TO202209160216/09/202200000000100000000000000001047KGM  00000001096KGM  18000004560              AV 8 G                   AV 8 G                   0         0         0         0    0    0    00000000000001000000000211100000211100
AE00TO202209160216/09/202200000000200000000000000002093KGM  00000002191KGM  18000004590              AV 8 L                   AV 8 L                   0         0         0         0    0    0    00000000000002000000000211100000422200
AE00TO202209160216/09/202200000000100000000000000001011KGM  00000001060KGM  18007703910              AVSS 05F GY/R            AVSS 05F GY/R            0         0         0         0    0    0    00000000000015000000000015600000234000
AE00TO202209160216/09/202200000001900000000000000019209KGM  00000020138KGM  18007703930              AVSS 05F B               AVSS 05F B               0         0         0         0    0    0    00000000000285000000000015600004446000
AE00TO202209160216/09/202200000000400000000000000004044KGM  00000004240KGM  18007703935              AVSS 05F B/R             AVSS 05F B/R             0         0         0         0    0    0    00000000000060000000000015600000936000
AE00TO202209160216/09/202200000000200000000000000002022KGM  00000002120KGM  18007703936              AVSS 05F B/G             AVSS 05F B/G             0         0         0         0    0    0    00000000000030000000000015600000468000
AE00TO202209160216/09/202200000000100000000000000001011KGM  00000001060KGM  18007703937              AVSS 05F B/Y             AVSS 05F B/Y             0         0         0         0    0    0    00000000000015000000000015600000234000
AE00TO202209160216/09/202200000000700000000000000007077KGM  00000007420KGM  18007703941              AVSS 05F GY              AVSS 05F GY              0         0         0         0    0    0    00000000000105000000000015600001638000
AE00TO202209160216/09/202200000001700000000000000017187KGM  00000018018KGM  18007703951              AVSS 05F O               AVSS 05F O               0         0         0         0    0    0    00000000000255000000000015600003978000
AE00TO202209160216/09/202200000000400000000000000004044KGM  00000004240KGM  18007703980              AVSS 05F BR              AVSS 05F BR              0         0         0         0    0    0    00000000000060000000000015600000936000
AE00TO202209160216/09/202200000000300000000000000003033KGM  00000003180KGM  18007703984              AVSS 05F BR/W            AVSS 05F BR/W            0         0         0         0    0    0    00000000000045000000000015600000702000
AE00TO202209160216/09/202200000000100000000000000001011KGM  00000001060KGM  18007703990              AVSS 05F L               AVSS 05F L               0         0         0         0    0    0    00000000000015000000000015600000234000
AE00TO202209160216/09/202200000000200000000000000002022KGM  00000002120KGM  18007703991              AVSS 05F SB              AVSS 05F SB              0         0         0         0    0    0    00000000000030000000000015600000468000
AE00TO202209160216/09/202200000001800000000000000018198KGM  00000019079KGM  18007703992              AVSS 05F V               AVSS 05F V               0         0         0         0    0    0    00000000000270000000000015600004212000
AE00TO202209160216/09/202200000000300000000000000003033KGM  00000003180KGM  180077039A8              AVSS 05F B/P             AVSS 05F B/P             0         0         0         0    0    0    00000000000045000000000015600000702000
AE00TO202209160216/09/202200000000600000000000000006666KGM  00000006960KGM  18007704130              AVSS 125F B              AVSS 125F B              0         0         0         0    0    0    00000000000048000000000034700001665600
AE00TO202209160216/09/202200000000600000000000000006667KGM  00000006960KGM  18007704140              AVSS 125F W              AVSS 125F W              0         0         0         0    0    0    00000000000048000000000034700001665600
AE00TO202209160216/09/202200000000100000000000000001111KGM  00000001160KGM  18007704143              AVSS 125F W/B            AVSS 125F W/B            0         0         0         0    0    0    00000000000008000000000034700000277600
AE00TO202209160216/09/202200000001000000000000000011111KGM  00000011601KGM  18007704150              AVSS 125F R              AVSS 125F R              0         0         0         0    0    0    00000000000080000000000034700002776000
AE00TO202209160216/09/202200000000100000000000000001111KGM  00000001160KGM  18007704152              AVSS 125F P              AVSS 125F P              0         0         0         0    0    0    00000000000008000000000034700000277600
AE00TO202209160216/09/202200000002000000000000000022224KGM  00000023202KGM  18007704160              AVSS 125F G              AVSS 125F G              0         0         0         0    0    0    00000000000160000000000034700005552000
AE00TO202209160216/09/202200000000700000000000000007778KGM  00000008121KGM  18007704187              AVSS 125F BR/Y           AVSS 125F BR/Y           0         0         0         0    0    0    00000000000056000000000034700001943200
AE00TO202209160216/09/202200000002000000000000000022224KGM  00000023202KGM  18007704190              AVSS 125F L              AVSS 125F L              0         0         0         0    0    0    00000000000160000000000034700005552000
AE00TO202209160216/09/202200000000100000000000000001111KGM  00000001160KGM  18007704192              AVSS 125F V              AVSS 125F V              0         0         0         0    0    0    00000000000008000000000034700000277600
AE00TO202209160216/09/202200000001000000000000000011112KGM  00000011601KGM  18007704194              AVSS 125F L/W            AVSS 125F L/W            0         0         0         0    0    0    00000000000080000000000034700002776000
AE00TO202209160216/09/202200000001200000000000000013334KGM  00000013921KGM  18007704195              AVSS 125F L/R            AVSS 125F L/R            0         0         0         0    0    0    00000000000096000000000034700003331200
AE00TO202209160216/09/202200000000200000000000000002456KGM  00000002554KGM  1801R704180              CIVUS 125 BR             CIVUS 125 BR             0         0         0         0    0    0    00000000000020000000000031500000630000
AE00TO202209160216/09/202200000010300000000000000115875KGM  00000120911KGM  1801W003930              IVSSH 05F B              IVSSH 05F B              0         0         0         0    0    0    00000000001854000000000015400028551600
AE00TO202209160216/09/202200000004200000000000000047250KGM  00000049304KGM  1801W003941              IVSSH 05F GY             IVSSH 05F GY             0         0         0         0    0    0    00000000000756000000000015400011642400
AE00TO202209160216/09/202200000002700000000000000030375KGM  00000031695KGM  1801W003950              IVSSH 05F R              IVSSH 05F R              0         0         0         0    0    0    00000000000486000000000015400007484400
AE00TO202209160216/09/202200000001100000000000000012375KGM  00000012913KGM  1801W00395U              IVSSH 05F BE             IVSSH 05F BE             0         0         0         0    0    0    00000000000198000000000015400003049200
AE00TO202209160216/09/202200000000200000000000000002300KGM  00000002398KGM  1801W004243              IVSSH 2F W/B             IVSSH 2F W/B             0         0         0         0    0    0    00000000000011000000000055500000610500
AE00TO202209160216/09/202200000000200000000000000002067KGM  00000002165KGM  180D0203907              AVSSH 05F P/B            AVSSH 05F P/B            0         0         0         0    0    0    00000000000030000000000016300000489000
AE00TO202209160216/09/202200000003300000000000000034107KGM  00000035720KGM  180D0203930              AVSSH 05F B              AVSSH 05F B              0         0         0         0    0    0    00000000000495000000000016300008068500
AE00TO202209160216/09/202200000000100000000000000001034KGM  00000001082KGM  180D0203934              AVSSH 05F B/W            AVSSH 05F B/W            0         0         0         0    0    0    00000000000015000000000016300000244500
AE00TO202209160216/09/202200000000200000000000000002068KGM  00000002164KGM  180D0203937              AVSSH 05F B/Y            AVSSH 05F B/Y            0         0         0         0    0    0    00000000000030000000000016300000489000
AE00TO202209160216/09/202200000002000000000000000020671KGM  00000021649KGM  180D0203940              AVSSH 05F W              AVSSH 05F W              0         0         0         0    0    0    00000000000300000000000016300004890000
AE00TO202209160216/09/202200000000100000000000000001034KGM  00000001082KGM  180D0203941              AVSSH 05F GY             AVSSH 05F GY             0         0         0         0    0    0    00000000000015000000000016300000244500
AE00TO202209160216/09/202200000001900000000000000019638KGM  00000020565KGM  180D0203943              AVSSH 05F W/B            AVSSH 05F W/B            0         0         0         0    0    0    00000000000285000000000016300004645500
AE00TO202209160216/09/202200000000200000000000000002067KGM  00000002165KGM  180D0203945              AVSSH 05F W/R            AVSSH 05F W/R            0         0         0         0    0    0    00000000000030000000000016300000489000
AE00TO202209160216/09/202200000000400000000000000004134KGM  00000004330KGM  180D0203949              AVSSH 05F W/L            AVSSH 05F W/L            0         0         0         0    0    0    00000000000060000000000016300000978000
AE00TO202209160216/09/202200000002100000000000000021705KGM  00000022730KGM  180D0203950              AVSSH 05F R              AVSSH 05F R              0         0         0         0    0    0    00000000000315000000000016300005134500
AE00TO202209160216/09/202200000000800000000000000008269KGM  00000008659KGM  180D0203952              AVSSH 05F P              AVSSH 05F P              0         0         0         0    0    0    00000000000120000000000016300001956000
AE00TO202209160216/09/202200000000200000000000000002067KGM  00000002165KGM  180D0203953              AVSSH 05F R/B            AVSSH 05F R/B            0         0         0         0    0    0    00000000000030000000000016300000489000
AE00TO202209160216/09/202200000000400000000000000004134KGM  00000004330KGM  180D0203954              AVSSH 05F R/W            AVSSH 05F R/W            0         0         0         0    0    0    00000000000060000000000016300000978000
AE00TO202209160216/09/202200000000200000000000000002067KGM  00000002165KGM  180D0203959              AVSSH 05F R/L            AVSSH 05F R/L            0         0         0         0    0    0    00000000000030000000000016300000489000
AE00TO202209160216/09/202200000000400000000000000004134KGM  00000004330KGM  180D0203960              AVSSH 05F G              AVSSH 05F G              0         0         0         0    0    0    00000000000060000000000016300000978000
AE00TO202209160216/09/202200000000200000000000000002067KGM  00000002165KGM  180D0203961              AVSSH 05F LG             AVSSH 05F LG             0         0         0         0    0    0    00000000000030000000000016300000489000
AE00TO202209160216/09/202200000000300000000000000003101KGM  00000003247KGM  180D0203964              AVSSH 05F G/W            AVSSH 05F G/W            0         0         0         0    0    0    00000000000045000000000016300000733500
AE00TO202209160216/09/202200000001400000000000000014470KGM  00000015153KGM  180D0203970              AVSSH 05F Y              AVSSH 05F Y              0         0         0         0    0    0    00000000000210000000000016300003423000
AE00TO202209160216/09/202200000000200000000000000002067KGM  00000002165KGM  180D0203973              AVSSH 05F Y/B            AVSSH 05F Y/B            0         0         0         0    0    0    00000000000030000000000016300000489000
AE00TO202209160216/09/202200000000200000000000000002067KGM  00000002165KGM  180D0203975              AVSSH 05F Y/R            AVSSH 05F Y/R            0         0         0         0    0    0    00000000000030000000000016300000489000
AE00TO202209160216/09/202200000000300000000000000003101KGM  00000003247KGM  180D0203976              AVSSH 05F Y/G            AVSSH 05F Y/G            0         0         0         0    0    0    00000000000045000000000016300000733500
AE00TO202209160216/09/202200000000100000000000000001034KGM  00000001082KGM  180D0203980              AVSSH 05F BR             AVSSH 05F BR             0         0         0         0    0    0    00000000000015000000000016300000244500
AE00TO202209160216/09/202200000002500000000000000025838KGM  00000027060KGM  180D0203990              AVSSH 05F L              AVSSH 05F L              0         0         0         0    0    0    00000000000375000000000016300006112500
AE00TO202209160216/09/202200000001200000000000000012402KGM  00000012989KGM  180D0203992              AVSSH 05F V              AVSSH 05F V              0         0         0         0    0    0    00000000000180000000000016300002934000
AE00TO202209160216/09/202200000000400000000000000004134KGM  00000004330KGM  180D0203994              AVSSH 05F L/W            AVSSH 05F L/W            0         0         0         0    0    0    00000000000060000000000016300000978000
AE00TO202209160216/09/202200000000600000000000000005604KGM  00000005898KGM  180D0204043              AVSSH 075F W/B           AVSSH 075F W/B           0         0         0         0    0    0    00000000000060000000000023200001392000
AE00TO202209160216/09/202200000000100000000000000000934KGM  00000000983KGM  180D0204054              AVSSH 075F R/W           AVSSH 075F R/W           0         0         0         0    0    0    00000000000010000000000023200000232000
AE00TO202209160216/09/202200000000300000000000000002802KGM  00000002949KGM  180D0204061              AVSSH 075F LG            AVSSH 075F LG            0         0         0         0    0    0    00000000000030000000000023200000696000
AE00TO202209160216/09/202200000000500000000000000004670KGM  00000004914KGM  180D0204080              AVSSH 075F BR            AVSSH 075F BR            0         0         0         0    0    0    00000000000050000000000023200001160000
AE00TO202209160216/09/202200000000200000000000000002332KGM  00000002430KGM  180D0204140              AVSSH 125F W             AVSSH 125F W             0         0         0         0    0    0    00000000000016000000000035700000571200
AE00TO202209160216/09/202200000001300000000000000010025KGM  00000010661KGM  181AD2002ZZ              CIVUSAS-S 035X2 B        CIVUSAS-S 035X2 B        0         0         0         0    0    0    00000000000058500000000043700002556450
AE00TO202209160216/09/202200000012500000000000000095030KGM  00000101141KGM  181AD2003ZZ              CIVUSAS-S 035X3 B        CIVUSAS-S 035X3 B        0         0         0         0    0    0    00000000000437500000000055300024193750
AE00TO202209160216/09/202200000000400000000000000003214KGM  00000003410KGM  181AD2010ZZ              CIVUSAS-S 05X4 B         CIVUSAS-S 05X4 B         0         0         0         0    0    0    00000000000010000000000083700000837000
AE00TO202209160216/09/202200000000900000000000000006942KGM  00000007382KGM  181AD2021ZZ              CIVUSAS-S 035X2 B(L,GY)  CIVUSAS-S 035X2 B(L,GY)  0         0         0         0    0    0    00000000000040500000000043700001769850
AE00TO202209160216/09/202200000000100000000000000000711KGM  00000000760KGM  181B0911741              CAVSAS 03X3 GY           CAVSAS 03X3 GY           0         0         0         0    0    0    00000000000002500000000060100000150250
AE00TO202209160216/09/202200000000200000000000000001537KGM  00000001634KGM  181E48022ZZ              CAVSAS-S 05X2 GY         CAVSAS-S 05X2 GY         0         0         0         0    0    0    00000000000006000000000056500000339000
AE00TO202209160216/09/202200000000300000000000000002305KGM  00000002451KGM  181E48027ZZ              CAVSAS-S 05X2 GY/P       CAVSAS-S 05X2 GY/P       0         0         0         0    0    0    00000000000009000000000056500000508500
AE00TO202209160216/09/202200000002800000000000000021512KGM  00000022881KGM  181E48060ZZ              CAVSAS-S 05X2 GY/V       CAVSAS-S 05X2 GY/V       0         0         0         0    0    0    00000000000084000000000056500004746000
AE00TO202209160216/09/202200000000200000000000000001516KGM  00000001614KGM  181E50003ZZ              AVSSCS-S 03FX2 DGY/BR    AVSSCS-S 03FX2 DGY/BR    0         0         0         0    0    0    00000000000007000000000059400000415800
AE00TO202209160216/09/202200000000900000000000000008359KGM  00000008799KGM  181E50010ZZ              AVSSCS-S 05FX2 DGY/P     AVSSCS-S 05FX2 DGY/P     0         0         0         0    0    0    00000000000027000000000070600001906200
AE00TO202209160216/09/202200000000500000000000000004644KGM  00000004888KGM  181E50011ZZ              AVSSCS-S 05FX2 DGY/Y     AVSSCS-S 05FX2 DGY/Y     0         0         0         0    0    0    00000000000015000000000070600001059000
AE00TO202209160216/09/202200000000100000000000000000816KGM  00000000865KGM  181E50028ZZ              AVSSCS-S 05FX3 DGY       AVSSCS-S 05FX3 DGY       0         0         0         0    0    0    00000000000002500000000091500000228750
