AE00TI102209160416/09/202200000000100000000000000000105KGM  00000000183KGM  7157-7811-80             SEAL RUBBER              7157781180               0         0         0         0    0    0    00001000000001000000000055000005500000
AE00TI102209160416/09/202200000000600000000000000001500KGM  00000001836KGM  7158-3003-90             RUBBER STOPPER           7158300390               0         0         0         0    0    0    00012000000002000000000012000014400000
AE00TI102209160416/09/202200000000500000000000000004097KGM  00000004737KGM  7198-1373-60             HOUSING FEMALE           7198137360               0         0         0         0    0    0    00001000000000200000000134000013400000
AE00TI102209160416/09/202200000000400000000000000003859KGM  00000004699KGM  7282-4577                HOUSING MALE ASS'Y       72824577                 0         0         0         0    0    0    00000960000000240000000229000021984000
AE00TI102209160416/09/202200000000800000000000000006261KGM  00000007941KGM  7282-4578                HOUSING MALE ASS'Y       72824578                 0         0         0         0    0    0    00000960000000120000000255000024480000
AE00TI102209160416/09/202200000000300000000000000003190KGM  00000003850KGM  7282-4855                HOUSING MALE ASS'Y       72824855                 0         0         0         0    0    0    00000360000000120000000347000012492000
AE00TI102209160416/09/202200000001900000000000000019334KGM  00000023514KGM  7282-9391                HOUSING MALE ASS'Y       72829391                 0         0         0         0    0    0    00002280000000120000000325000074100000
AE00TI102209160416/09/202200000000100000000000000000651KGM  00000000871KGM  7283-4576                HOUSING FEMALE ASS'Y     72834576                 0         0         0         0    0    0    00000480000000480000000128000006144000
AE00TI102209160416/09/202200000000100000000000000000651KGM  00000000871KGM  7283-4576-30             HOUSING FEMALE ASS'Y     7283457630               0         0         0         0    0    0    00000480000000480000000131000006288000
AE00TI102209160416/09/202200000000500000000000000004188KGM  00000005288KGM  7283-4578                HOUSING FEMALE ASS'Y     72834578                 0         0         0         0    0    0    00001200000000240000000190000022800000
AE00TI102209160416/09/202200000000100000000000000000694KGM  00000000914KGM  7283-4854                CONNECTOR HOUSING        72834854                 0         0         0         0    0    0    00000240000000240000000208000004992000
AE00TI102209160416/09/202200000000300000000000000002862KGM  00000003312KGM  7283-5830                CONNECTOR                72835830                 0         0         0         0    0    0    00001800000000600000000154000027720000
AE00TI102209160416/09/202200000000300000000000000002862KGM  00000003312KGM  7283-5830-30             CONNECTOR                7283583030               0         0         0         0    0    0    00001800000000600000000155000027900000
AE00TI102209160416/09/202200000000200000000000000001778KGM  00000002264KGM  7283-5843                CONNECTOR                72835843                 0         0         0         0    0    0    00000300000000150000000280000008400000
AE00TI102209160416/09/202200000000500000000000000002220KGM  00000003032KGM  7283-5845                CONNECTOR HOUSING        72835845                 0         0         0         0    0    0    00003000000000600000000133000039900000
AE00TI102209160416/09/202200000001000000000000000008850KGM  00000011020KGM  7283-5846                HOUSING                  72835846                 0         0         0         0    0    0    00001500000000150000000241000036150000
AE00TI102209160416/09/202200000000800000000000000007285KGM  00000009045KGM  7286-3885                CONNECTOR MALE ASS'Y     72863885                 0         0         0         0    0    0    00000960000000120000000295000028320000
AE00TI102209160416/09/202200000002500000000000000024433KGM  00000029100KGM  7286-3970                CONNECTOR HOUSING        72863970                 0         0         0         0    0    0    00000275000000011000002089000057447500
AE00TI102209160416/09/202200000001400000000000000010752KGM  00000013692KGM  7286-4097                CONNECTOR MALE ASS'Y     72864097                 0         0         0         0    0    0    00002240000000160000000196000043904000
AE00TI102209160416/09/202200000000300000000000000003182KGM  00000003938KGM  7287-1917                CONNECTOR FEMALE         72871917                 0         0         0         0    0    0    00000720000000240000000253000018216000
AE00TI102209160416/09/202200000000100000000000000001030KGM  00000001250KGM  7287-3885-40             HYBRID FEMALE ASS'Y      7287388540               0         0         0         0    0    0    00000240000000240000000216000005184000
AE00TI102209160416/09/202200000000200000000000000002443KGM  00000002883KGM  7287-8072                HOUSING FEMALE ASS'Y     72878072                 0         0         0         0    0    0    00000480000000240000000247000011856000
AE00TI102209160416/09/202200000000100000000000000001166KGM  00000001386KGM  7287-8073                HOUSING FEMALE ASS'Y     72878073                 0         0         0         0    0    0    00000240000000240000000244000005856000
AE00TI102209160416/09/202200000000100000000000000001229KGM  00000001449KGM  7287-8999                HOUSING FEMALE ASS'Y     72878999                 0         0         0         0    0    0    00000480000000480000000163000007824000
AE00TI102209160416/09/202200000000100000000000000001229KGM  00000001449KGM  7287-8999-30             HOUSING FEMALE ASS'Y     7287899930               0         0         0         0    0    0    00000480000000480000000168000008064000
AE00TI102209160416/09/202200000000300000000000000003686KGM  00000004346KGM  7287-9000                HOUSING FEMALE ASS'Y     72879000                 0         0         0         0    0    0    00001440000000480000000162000023328000
AE00TI102209160416/09/202200000000500000000000000001938KGM  00000003938KGM  7288-3206                HOUSING MALE ASS'Y       72883206                 0         0         0         0    0    0    00000510000000102000000351000017901000
AE00TI102209160416/09/202200000001700000000000000011669KGM  00000015324KGM  7289-3342                HOUSING FEMALE ASS'Y     72893342                 0         0         0         0    0    0    00004080000000240000000186000075888000
AE00TI102209160416/09/202200000003500000000000000024024KGM  00000031549KGM  7289-3342-30             HOUSING FEMALE ASS'Y     7289334230               0         0         0         0    0    0    00008400000000240000000191000160440000
AE00TI102209160416/09/202200000001000000000000000006864KGM  00000009014KGM  7289-3342-40             HOUSING FEMALE ASS'Y     7289334240               0         0         0         0    0    0    00002400000000240000000192000046080000
AE00TI102209160416/09/202200000001800000000000000012355KGM  00000016225KGM  7289-3342-90             HOUSING FEMALE ASS'Y     7289334290               0         0         0         0    0    0    00004320000000240000000196000084672000
AE00TI102209160416/09/202200000000100000000000000000913KGM  00000001055KGM  7289-4696-30             HOUSING FEMALE ASS'Y     7289469630               0         0         0         0    0    0    00000200000000200000000410000008200000
AE00TI102209160416/09/202200000001000000000000000013512KGM  00000016662KGM  7289-6524-30             HOUSING FEMALE ASS'Y     7289652430               0         0         0         0    0    0    00000240000000024000004757000114168000
AE00TI102209160416/09/202200000000200000000000000002304KGM  00000002724KGM  7289-6547                HOUSING FEMALE ASS'Y     72896547                 0         0         0         0    0    0    00000480000000240000000229000010992000
AE00TI102209160416/09/202200000000100000000000000001279KGM  00000001594KGM  7289-7208-30             HOUSING FEMALE ASS'Y     7289720830               0         0         0         0    0    0    00000024000000024000004419000010605600
AE00TI102209160416/09/202200000000100000000000000001307KGM  00000001622KGM  7289-7211-30             HOUSING FEMALE ASS'Y     7289721130               0         0         0         0    0    0    00000024000000024000004728000011347200
AE00TI102209160416/09/202200000001000000000000000012699KGM  00000015437KGM  7289-9613-30             HOUSING FEMALE ASS'Y     7289961330               0         0         0         0    0    0    00000240000000024000004796000115104000
