BI00A32P8    TAPAW-206Z     2022072718007703952              AVSS 0.5F P              CCN000001500000001500FN00000000020220701000001500NNE20 20220725105740    1W    00000150000000674000000000032P8    YIYTM   000000000000YC227001
BI00A32P8    TAPAW-206Z     2022072718007704145              AVSS 1.25F W/R           CCN000000800000000800FN00000000020220701000000800NNE20 20220725105740    1W    00000080000001389000000000032P8    YIYTM   000000000000YC227002
BI00B32Q8    EW22104TMW     2022091418007704192              AVSS 1.25F V             CCN000050400000000000FY00000000020221001000000000NNM10 20220725105138    1W    00000080000001389000000000032Q8    EMEMI   000000000000MT528028
BI00B32Q8    EW22104TMW     20220914180D0203760              AVSSH 0.3F G             CCN000106000000000000FY00000000020221001000000000NNM10 20220725105155    1W    00000200000000515000000000032Q8    EMEMI   000000000000MT528022
BI00B32Q8    EW22102TMW     20220831180D0204143              AVSSH 1.25F W/B          CCN000003200000000000FY00000000020221001000000000NNM10 20220725105238    1W    00000080000001458000000000032Q8    EMEMI   000000000000MT328021
BI00B32Q8    EW22103TMW     20220907180D0204143              AVSSH 1.25F W/B          CCN000022400000000000FY00000000020221001000000000NNM10 20220725105328    1W    00000080000001458000000000032Q8    EMEMI   000000000000MT428025
BI00B32Q8    EW22104TMW     20220914180D0204143              AVSSH 1.25F W/B          CCN000035200000000000FY00000000020221001000000000NNM10 20220725105343    1W    00000080000001458000000000032Q8    EMEMI   000000000000MT528027
BI00B32Q8    EW22104TMW     202209141801W00395U              IVSSH 0.5F BE            CCN000023400000000000FY00000000020221001000000000NNM10 20220725105618    1W    00000180000000625000000000032Q8    EMEMI   000000000000MT528031
BI00B32Q8    EW22104TMW     202209141801W003952              IVSSH 0.5F P             CCN000324000000000000FY00000000020221001000000000NNM10 20220725105629    1W    00000180000000625000000000032Q8    EMEMI   000000000000MT528036
BI00B32Q8    EW22104TMW     202209141801W003950              IVSSH 0.5F R             CCN000322200000320400FN00000000020221001000320400NNM10 20220725105756    1W    00000180000000625000000000032Q8    EMEMI   000000000000MT528037
BI00B32Q8    EW22103TMW     202209071801W004080              IVSSH 0.75F BR           CCN000007800000000000FY00000000020221001000000000NNM10 20220725105829    1W    00000130000000882000000000032Q8    EMEMI   000000000000MT428041
BI00B32Q8    EW22104TMW     202209141801W004080              IVSSH 0.75F BR           CCN000009100000000000FY00000000020221001000000000NNM10 20220725105845    1W    00000130000000882000000000032Q8    EMEMI   000000000000MT528044
BI00B32Q8    EW22104TMW     202209141801W004090              IVSSH 0.75F L            CCN000088400000000000FY00000000020221001000000000NNM10 20220725105856    1W    00000130000000882000000000032Q8    EMEMI   000000000000MT528046
BI00B32Q8    EW22104TMW     202209141801W004040              IVSSH 0.75F W            CCN000074100000000000FY00000000020221001000000000NNM10 20220725105905    1W    00000130000000882000000000032Q8    EMEMI   000000000000MT528050
BI00B32Q8    @EW22104TMW    20220914181CQ7003ZZ              IVSSHCS-S 0.5FX2 B(B,W)  CCN000087300000000000FY00000000020221001000000000NNM10 20220725104718    1W    00000030000002350200000000032Q8    EMEMI   000000000000MT528001
BI00B32Q8    @EW22104TMW    20220914181CQ7004ZZ              IVSSHCS-S 0.5FX2 B(R,G)  CCN000069000000000000FY00000000020221001000000000NNM10 20220725104718    1W    00000030000002350200000000032Q8    EMEMI   000000000000MT528002
BI00B32Y6    @STAC32112     20220804181AD2017ZZ              CIVUSAS-S 0.22X3 B       CCN000008370000008600FN00000000020221101000008600NNE   20220725140749    1W    00000043000001678200000000032Y6    BSYBL-S 000000000000KI327001