BI00B1200    Y022I50062     202208187289-9613-30             HOUSING FEMALE ASS'Y     CCN000003840000003840FN00000000020220901000003840NNMD0320220725151300    4N0N  0000002400000126990000154371200    YCYC    005500360039
BI00B1200    Y022I50079     202209017289-9613-30             HOUSING FEMALE ASS'Y     CCN000000960000000960FN00000000020220901000000960NNMD0320220725151345    4N0N  0000002400000126990000154371200    YCYC    005500360039
BI00B1200    Y022I50080     202209017289-9613-30             HOUSING FEMALE ASS'Y     CCN000000480000000480FN00000000020220901000000480NNMD0320220725151403    4N0N  0000002400000126990000154371200    YCYC    005500360039
BI00B1200    Y022I50081     202209017289-9613-30             HOUSING FEMALE ASS'Y     CCN000003840000003840FN00000000020220901000003840NNMD0320220725151437    4N0N  0000002400000126990000154371200    YCYC    005500360039
BI00B1200    2399T52716     202208187289-9613-30             HOUSING FEMALE ASS'Y     CCN000001200000001200FN00000000020220901000001200NNMD0320220725132538    4N0N  0000002400000126990000154371200    YCYC    005500360039
BI00B1200    2399T52718     202208257289-9613-30             HOUSING FEMALE ASS'Y     CCN000001200000001200FN00000000020220901000001200NNMD0320220725132600    4N0N  0000002400000126990000154371200    YCYC    005500360039
BI00B1200    2399T52719     202209017289-9613-30             HOUSING FEMALE ASS'Y     CCN000000960000000960FN00000000020220901000000960NNMD0320220725132628    4N0N  0000002400000126990000154371200    YCYC    005500360039
BI00A1200    CE22-MN-0085   202207277196-0550-02             TERMINAL ALUMINIUM       CCN000032000000032000FN00000000020220701000032000NNED0020220725131939    4P0P  0000320000000051520000090161200    YCYC    006400630017
BI00A1200    CE22-MN-0085   202207277195-0547-02             TERMINAL ALUMINIUM       CCN000025500000025500FN00000000020220701000025500NNED0020220725131939    4P0P  0000255000000041820000076021200    YCYC    006400630015
BI00B1200    Y122G05N       202207277288-3332-30             HOUSING MALE             CCN000001500000001500FN00000000020220801000001500NNEM0020220725143528    4N0N  0000015000000086070000100571200    YCYC    005400370024
BI00B1200    Y122G05N       202207277288-3338-30             HOUSING MALE             CCN000001500000001500FN00000000020220801000001500NNEM0020220725143528    4N0N  0000015000000086610000101201200    YCYC    005400370024
BI00B1200    2399T52821     202209227116-4112-02             TERMINAL                 CCN000060000000060000FN00000000020221001000060000NNE   20220725121513    4P0P  0000060000000045000000073821200    YCYC    006400630015
BI00B1200    2399T52822     202209297116-4112-02             TERMINAL                 CCN000048000000048000FN00000000020221001000048000NNE   20220725121513    4P0P  0000060000000045000000073821200    YCYC    006400630015
BI00B1200    2399T52806     202209017116-4111-02             TERMINAL                 CCN000015000000015000FN00000000020221001000015000NNM   20220725121513    4P0P  0000075000000052950000081771200    YCYC    006400630015
BI00B1200    2399T52807     202209087116-4111-02             TERMINAL                 CCN000007500000007500FN00000000020221001000007500NNM   20220725121513    4P0P  0000075000000052950000081771200    YCYC    006400630015
BI00B1200    2399T52808     202209157116-4111-02             TERMINAL                 CCN000007500000007500FN00000000020221001000007500NNM   20220725121513    4P0P  0000075000000052950000081771200    YCYC    006400630015
BI00B1200    2399T52806     202209017158-3022-80             RUBBER STOPPER           CCN000105000000105000FN00000000020221001000105000NNM   20220725121513    1C0C  0000050000000046750000052401200    YCYC    002700430014
BI00B1200    2399T52807     202209087158-3022-80             RUBBER STOPPER           CCN000105000000105000FN00000000020221001000105000NNM   20220725121513    1C0C  0000050000000046750000052401200    YCYC    002700430014
BI00B1200    2399T52808     202209157158-3022-80             RUBBER STOPPER           CCN000105000000105000FN00000000020221001000105000NNM   20220725121513    1C0C  0000050000000046750000052401200    YCYC    002700430014
BI00B1200    2399T52806     202209017172-5540-80             SEALED WIRE SEAL         CCN000160000000160000FN00000000020221001000160000NNM   20220725121513    1C0C  0000200000000018600000023441200    YCYC    004300270014
BI00B1200    2399T52807     202209087172-5540-80             SEALED WIRE SEAL         CCN000160000000160000FN00000000020221001000160000NNM   20220725121513    1C0C  0000200000000018600000023441200    YCYC    004300270014
BI00B1200    2399T52808     202209157172-5540-80             SEALED WIRE SEAL         CCN000160000000160000FN00000000020221001000160000NNM   20220725121513    1C0C  0000200000000018600000023441200    YCYC    004300270014
BI00B1200    2399T52806     202209017173-3291-40             LIF LEVER                CCN000002400000002400FN00000000020221001000002400NNM   20220725121513    1F0F  0000024000000086780000106781200    YCYC    005500360039
BI00B1200    #2399T52806    202209017124-1026-30             PROTECTOR                CCN000006000000006000FN00000000020221001000006000NNM   20220725121513    2F0F  0000030000000082800000098601200    YCYC    005500360039
BI00B1200    #2399T52807    202209087124-1026-30             PROTECTOR                CCN000003000000003000FN00000000020221001000003000NNM   20220725121513    2F0F  0000030000000082800000098601200    YCYC    005500360039
BI00B1200    #2399T52808    202209157124-1026-30             PROTECTOR                CCN000003000000003000FN00000000020221001000003000NNM   20220725121513    2F0F  0000030000000082800000098601200    YCYC    005500360039
BI00B1200    #2399T52806    202209017174-1271-30             SEALED COVER             CCN000000640000000640FN00000000020221001000000640NNM   20220725121513    2F0F  0000003200000038370000050211200    YCYC    005500360039
BI00B1200    #2399T52807    202209087174-1271-30             SEALED COVER             CCN000000640000000640FN00000000020221001000000640NNM   20220725121513    2F0F  0000003200000038370000050211200    YCYC    005500360039
BI00B1200    #2399T52808    202209157174-1271-30             SEALED COVER             CCN000000320000000320FN00000000020221001000000320NNM   20220725121513    2F0F  0000003200000038370000050211200    YCYC    005500360039
BI00B1200    #2399T52806    202209017174-1315-30             SEALED COVER             CCN000009600000009600FN00000000020221001000009600NNM   20220725121513    2F0F  0000008000000078200000090201200    YCYC    005500360039
BI00B1200    #2399T52807    202209087174-1315-30             SEALED COVER             CCN000009600000009600FN00000000020221001000009600NNM   20220725121513    2F0F  0000008000000078200000090201200    YCYC    005500360039
BI00B1200    #2399T52808    202209157174-1315-30             SEALED COVER             CCN000009600000009600FN00000000020221001000009600NNM   20220725121513    2F0F  0000008000000078200000090201200    YCYC    005500360039
BI00B1200    #2399T52806    202209017174-1515                FRONT DOOR COVER         CCN000008400000008400FN00000000020221001000008400NNM   20220725121513    2F0F  0000006000000049020000061021200    YCYC    005500360039
BI00B1200    #2399T52807    202209087174-1515                FRONT DOOR COVER         CCN000008400000008400FN00000000020221001000008400NNM   20220725121513    2F0F  0000006000000049020000061021200    YCYC    005500360039
BI00B1200    #2399T52808    202209157174-1515                FRONT DOOR COVER         CCN000008400000008400FN00000000020221001000008400NNM   20220725121513    2F0F  0000006000000049020000061021200    YCYC    005500360039
BI00B1200    #2399T52806    202209017174-1760-50             CAP                      CCN000003000000003000FN00000000020221001000003000NNM   20220725121513    2F0F  0000030000000081360000092261200    YCYC    005400370024
BI00B1200    2399T52809     202209227116-4111-02             TERMINAL                 CCN000007500000007500FN00000000020221001000007500NNM   20220725121513    4P0P  0000075000000052950000081771200    YCYC    006400630015
BI00B1200    2399T52810     202209297116-4111-02             TERMINAL                 CCN000007500000007500FN00000000020221001000007500NNM   20220725121513    4P0P  0000075000000052950000081771200    YCYC    006400630015
BI00B1200    2399T52809     202209227158-3022-80             RUBBER STOPPER           CCN000105000000105000FN00000000020221001000105000NNM   20220725121513    1C0C  0000050000000046750000052401200    YCYC    002700430014
BI00B1200    2399T52810     202209297158-3022-80             RUBBER STOPPER           CCN000100000000100000FN00000000020221001000100000NNM   20220725121513    1C0C  0000050000000046750000052401200    YCYC    002700430014
BI00B1200    2399T52809     202209227172-5540-80             SEALED WIRE SEAL         CCN000140000000140000FN00000000020221001000140000NNM   20220725121513    1C0C  0000200000000018600000023441200    YCYC    004300270014
BI00B1200    2399T52810     202209297172-5540-80             SEALED WIRE SEAL         CCN000140000000140000FN00000000020221001000140000NNM   20220725121513    1C0C  0000200000000018600000023441200    YCYC    004300270014
BI00B1200    #2399T52809    202209227124-1026-30             PROTECTOR                CCN000003000000003000FN00000000020221001000003000NNM   20220725121513    2F0F  0000030000000082800000098601200    YCYC    005500360039
BI00B1200    #2399T52810    202209297124-1026-30             PROTECTOR                CCN000003000000003000FN00000000020221001000003000NNM   20220725121513    2F0F  0000030000000082800000098601200    YCYC    005500360039
BI00B1200    #2399T52809    202209227174-1271-30             SEALED COVER             CCN000000320000000320FN00000000020221001000000320NNM   20220725121513    2F0F  0000003200000038370000050211200    YCYC    005500360039
BI00B1200    #2399T52810    202209297174-1271-30             SEALED COVER             CCN000000320000000320FN00000000020221001000000320NNM   20220725121513    2F0F  0000003200000038370000050211200    YCYC    005500360039
BI00B1200    #2399T52809    202209227174-1315-30             SEALED COVER             CCN000009600000009600FN00000000020221001000009600NNM   20220725121513    2F0F  0000008000000078200000090201200    YCYC    005500360039
BI00B1200    #2399T52810    202209297174-1315-30             SEALED COVER             CCN000009600000009600FN00000000020221001000009600NNM   20220725121513    2F0F  0000008000000078200000090201200    YCYC    005500360039
BI00B1200    #2399T52809    202209227174-1515                FRONT DOOR COVER         CCN000008400000008400FN00000000020221001000008400NNM   20220725121513    2F0F  0000006000000049020000061021200    YCYC    005500360039
BI00B1200    #2399T52810    202209297174-1515                FRONT DOOR COVER         CCN000007800000007800FN00000000020221001000007800NNM   20220725121513    2F0F  0000006000000049020000061021200    YCYC    005500360039
BI00B1200    2399T52811     202209017195-0783-08             TERMINAL                 CCN000090000000090000FN00000000020221001000090000NNM   20220725121513    4P0P  0000300000000050700000080121200    YCYC    006400630015
BI00B1200    2399T52812     202209087195-0783-08             TERMINAL                 CCN000060000000060000FN00000000020221001000060000NNM   20220725121513    4P0P  0000300000000050700000080121200    YCYC    006400630015
BI00B1200    2399T52813     202209157195-0783-08             TERMINAL                 CCN000060000000060000FN00000000020221001000060000NNM   20220725121513    4P0P  0000300000000050700000080121200    YCYC    006400630015
BI00B1200    2399T52811     202209017196-0550-02             TERMINAL ALUMINIUM       CCN000128000000128000FN00000000020221001000128000NNM   20220725121513    4P0P  0000320000000051520000090161200    YCYC    006400630017
BI00B1200    2399T52812     202209087196-0550-02             TERMINAL ALUMINIUM       CCN000096000000096000FN00000000020221001000096000NNM   20220725121513    4P0P  0000320000000051520000090161200    YCYC    006400630017
BI00B1200    2399T52813     202209157196-0550-02             TERMINAL ALUMINIUM       CCN000096000000096000FN00000000020221001000096000NNM   20220725121513    4P0P  0000320000000051520000090161200    YCYC    006400630017
BI00B1200    2399T52811     202209017196-0551-02             TERMINAL ALUMINIUM       CCN000028000000028000FN00000000020221001000028000NNM   20220725121513    4P0P  0000280000000046480000085121200    YCYC    006400630017
BI00B1200    2399T52811     202209017196-0805-02             TERMINAL FEMALE          CCN000270000000270000FN00000000020221001000270000NNM   20220725121513    4P0P  0000225000000055800000084321200    YCYC    006400630015
BI00B1200    2399T52812     202209087196-0805-02             TERMINAL FEMALE          CCN000247500000247500FN00000000020221001000247500NNM   20220725121513    4P0P  0000225000000055800000084321200    YCYC    006400630015
BI00B1200    2399T52813     202209157196-0805-02             TERMINAL FEMALE          CCN000247500000247500FN00000000020221001000247500NNM   20220725121513    4P0P  0000225000000055800000084321200    YCYC    006400630015
BI00B1200    2399T52811     202209017287-9323                UNSEALED HOUSING SUB     CCN000002400000002400FN00000000020221001000002400NNM   20220725121513    1N0N  0000024000000053760000069001200    YCYC    005600390023
BI00B1200    2399T52812     202209087287-9323                UNSEALED HOUSING SUB     CCN000002400000002400FN00000000020221001000002400NNM   20220725121513    1N0N  0000024000000053760000069001200    YCYC    005600390023
BI00B1200    2399T52813     202209157287-9323                UNSEALED HOUSING SUB     CCN000002400000002400FN00000000020221001000002400NNM   20220725121513    1N0N  0000024000000053760000069001200    YCYC    005600390023
BI00B1200    2399T52811     202209017288-6598-70             HOUSING MALE ASS'Y       CCN000011520000011520FN00000000020221001000011520NNM   20220725121513    4N0N  0000014400000107420000142921200    YCYC    005500360039
BI00B1200    2399T52812     202209087288-6598-70             HOUSING MALE ASS'Y       CCN000011520000011520FN00000000020221001000011520NNM   20220725121513    4N0N  0000014400000107420000142921200    YCYC    005500360039
BI00B1200    2399T52813     202209157288-6598-70             HOUSING MALE ASS'Y       CCN000011520000011520FN00000000020221001000011520NNM   20220725121513    4N0N  0000014400000107420000142921200    YCYC    005500360039
BI00B1200    #2399T52811    202209017198-1373-60             HOUSING FEMALE           CCN000008000000008000FN00000000020221001000008000NNM   20220725121513    2F0F  0000020000000081940000094741200    YCYC    005400370024
BI00B1200    #2399T52812    202209087198-1373-60             HOUSING FEMALE           CCN000006000000006000FN00000000020221001000006000NNM   20220725121513    2F0F  0000020000000081940000094741200    YCYC    005400370024
BI00B1200    #2399T52813    202209157198-1373-60             HOUSING FEMALE           CCN000006000000006000FN00000000020221001000006000NNM   20220725121513    2F0F  0000020000000081940000094741200    YCYC    005400370024
BI00B1200    2399T52814     202209227195-0783-08             TERMINAL                 CCN000060000000060000FN00000000020221001000060000NNM   20220725121513    4P0P  0000300000000050700000080121200    YCYC    006400630015
BI00B1200    2399T52814     202209227196-0550-02             TERMINAL ALUMINIUM       CCN000096000000096000FN00000000020221001000096000NNM   20220725121513    4P0P  0000320000000051520000090161200    YCYC    006400630017
BI00B1200    2399T52814     202209227196-0805-02             TERMINAL FEMALE          CCN000247500000247500FN00000000020221001000247500NNM   20220725121513    4P0P  0000225000000055800000084321200    YCYC    006400630015
BI00B1200    2399T52814     202209227287-9323                UNSEALED HOUSING SUB     CCN000002400000002400FN00000000020221001000002400NNM   20220725121513    1N0N  0000024000000053760000069001200    YCYC    005600390023
BI00B1200    #2399T52814    202209227198-1373-60             HOUSING FEMALE           CCN000006000000006000FN00000000020221001000006000NNM   20220725121513    2F0F  0000020000000081940000094741200    YCYC    005400370024
BI00B1200    2399T52815     202209297195-0783-08             TERMINAL                 CCN000060000000060000FN00000000020221001000060000NNM   20220725121513    4P0P  0000300000000050700000080121200    YCYC    006400630015
BI00B1200    2399T52815     202209297196-0550-02             TERMINAL ALUMINIUM       CCN000096000000096000FN00000000020221001000096000NNM   20220725121513    4P0P  0000320000000051520000090161200    YCYC    006400630017
BI00B1200    2399T52815     202209297196-0805-02             TERMINAL FEMALE          CCN000247500000247500FN00000000020221001000247500NNM   20220725121513    4P0P  0000225000000055800000084321200    YCYC    006400630015
BI00B1200    #2399T52815    202209297198-1373-60             HOUSING FEMALE           CCN000006000000006000FN00000000020221001000006000NNM   20220725121513    2F0F  0000020000000081940000094741200    YCYC    005400370024
BI00B1200    2399T52816     202209017289-0269                HOUSING SUB ASSEMBLY     CCN000003200000003200FN00000000020221001000003200NNM   20220725121513    1N0N  0000016000000100210000123451200    YCYC    005500360039
BI00B1200    2399T52817     202209087289-0269                HOUSING SUB ASSEMBLY     CCN000003200000003200FN00000000020221001000003200NNM   20220725121513    1N0N  0000016000000100210000123451200    YCYC    005500360039
BI00B1200    2399T52818     202209157289-0269                HOUSING SUB ASSEMBLY     CCN000001600000001600FN00000000020221001000001600NNM   20220725121513    1N0N  0000016000000100210000123451200    YCYC    005500360039
BI00B1200    2399T52816     202209017289-4212-80             SEALED HOUSING ASS'Y     CCN000024000000024000FN00000000020221001000024000NNM   20220725121513    4N0N  0000020000000084860000097861200    YCYC    005400370024
BI00B1200    2399T52817     202209087289-4212-80             SEALED HOUSING ASS'Y     CCN000024000000024000FN00000000020221001000024000NNM   20220725121513    4N0N  0000020000000084860000097861200    YCYC    005400370024
BI00B1200    2399T52818     202209157289-4212-80             SEALED HOUSING ASS'Y     CCN000022000000022000FN00000000020221001000022000NNM   20220725121513    4N0N  0000020000000084860000097861200    YCYC    005400370024
BI00B1200    2399T52816     202209017289-6159-30             HOUSING FEMALE ASS'Y     CCN000000240000000240FN00000000020221001000000240NNM   20220725121513    4N0N  0000002400000109500000137501200    YCYC    005500360039
BI00B1200    2399T52817     202209087289-6159-30             HOUSING FEMALE ASS'Y     CCN000000240000000240FN00000000020221001000000240NNM   20220725121513    4N0N  0000002400000109500000137501200    YCYC    005500360039
BI00B1200    2399T52818     202209157289-6159-30             HOUSING FEMALE ASS'Y     CCN000000240000000240FN00000000020221001000000240NNM   20220725121513    4N0N  0000002400000109500000137501200    YCYC    005500360039
BI00B1200    2399T52816     202209017289-6160-30             HOUSING FEMALE ASS'Y     CCN000000960000000960FN00000000020221001000000960NNM   20220725121513    4N0N  0000001600000103740000132041200    YCYC    005500360039
BI00B1200    2399T52817     202209087289-6160-30             HOUSING FEMALE ASS'Y     CCN000000800000000800FN00000000020221001000000800NNM   20220725121513    4N0N  0000001600000103740000132041200    YCYC    005500360039
BI00B1200    2399T52818     202209157289-6160-30             HOUSING FEMALE ASS'Y     CCN000000800000000800FN00000000020221001000000800NNM   20220725121513    4N0N  0000001600000103740000132041200    YCYC    005500360039
BI00B1200    2399T52816     202209017289-6518-30             HOUSING FEMALE ASS'Y     CCN000007200000007200FN00000000020221001000007200NNM   20220725121513    1N0N  0000012000000082920000104921200    YCYC    005500360039
BI00B1200    2399T52817     202209087289-6518-30             HOUSING FEMALE ASS'Y     CCN000007200000007200FN00000000020221001000007200NNM   20220725121513    1N0N  0000012000000082920000104921200    YCYC    005500360039
BI00B1200    2399T52818     202209157289-6518-30             HOUSING FEMALE ASS'Y     CCN000007200000007200FN00000000020221001000007200NNM   20220725121513    1N0N  0000012000000082920000104921200    YCYC    005500360039
BI00B1200    2399T52816     202209017289-6523-30             HOUSING FEMALE ASS'Y     CCN000001680000001680FN00000000020221001000001680NNM   20220725121513    4N0N  0000002400000129050000162051200    YCYC    005500360039
BI00B1200    2399T52817     202209087289-6523-30             HOUSING FEMALE ASS'Y     CCN000001440000001440FN00000000020221001000001440NNM   20220725121513    4N0N  0000002400000129050000162051200    YCYC    005500360039
BI00B1200    2399T52818     202209157289-6523-30             HOUSING FEMALE ASS'Y     CCN000001440000001440FN00000000020221001000001440NNM   20220725121513    4N0N  0000002400000129050000162051200    YCYC    005500360039
BI00B1200    2399T52816     202209017289-6868-30             SEALED ASSY FEMALE       CCN000065520000065520FN00000000020221001000065520NNM   20220725121513    4N0N  0000025200000083920000111921200    YCYC    005500360039
BI00B1200    2399T52817     202209087289-6868-30             SEALED ASSY FEMALE       CCN000065520000065520FN00000000020221001000065520NNM   20220725121513    4N0N  0000025200000083920000111921200    YCYC    005500360039
BI00B1200    2399T52818     202209157289-6868-30             SEALED ASSY FEMALE       CCN000065520000065520FN00000000020221001000065520NNM   20220725121513    4N0N  0000025200000083920000111921200    YCYC    005500360039
BI00B1200    2399T52816     202209017289-9553-30             SEALED ASSY FEMALE       CCN000023520000023520FN00000000020221001000023520NNM   20220725121513    4N0N  0000029400000110900000152151200    YCYC    005500360039
BI00B1200    2399T52817     202209087289-9553-30             SEALED ASSY FEMALE       CCN000020580000020580FN00000000020221001000020580NNM   20220725121513    4N0N  0000029400000110900000152151200    YCYC    005500360039
BI00B1200    2399T52818     202209157289-9553-30             SEALED ASSY FEMALE       CCN000020580000020580FN00000000020221001000020580NNM   20220725121513    4N0N  0000029400000110900000152151200    YCYC    005500360039
BI00B1200    2399T52816     202209017289-9553-50             SEALED ASSY FEMALE       CCN000020580000020580FN00000000020221001000020580NNM   20220725121513    4N0N  0000029400000110810000152061200    YCYC    005500360039
BI00B1200    2399T52817     202209087289-9553-50             SEALED ASSY FEMALE       CCN000020580000020580FN00000000020221001000020580NNM   20220725121513    4N0N  0000029400000110810000152061200    YCYC    005500360039
BI00B1200    2399T52818     202209157289-9553-50             SEALED ASSY FEMALE       CCN000020580000020580FN00000000020221001000020580NNM   20220725121513    4N0N  0000029400000110810000152061200    YCYC    005500360039
BI00B1200    2399T52816     202209017289-9612-30             HOUSING FEMALE ASS'Y     CCN000000960000000960FN00000000020221001000000960NNM   20220725121513    4N0N  0000002400000134880000166881200    YCYC    005500360039
BI00B1200    2399T52817     202209087289-9612-30             HOUSING FEMALE ASS'Y     CCN000000960000000960FN00000000020221001000000960NNM   20220725121513    4N0N  0000002400000134880000166881200    YCYC    005500360039
BI00B1200    2399T52818     202209157289-9612-30             HOUSING FEMALE ASS'Y     CCN000000720000000720FN00000000020221001000000720NNM   20220725121513    4N0N  0000002400000134880000166881200    YCYC    005500360039
BI00B1200    2399T52816     202209017289-9613-30             HOUSING FEMALE ASS'Y     CCN000000480000000480FN00000000020221001000000480NNM   20220725121513    4N0N  0000002400000126990000154371200    YCYC    005500360039
BI00B1200    2399T52817     202209087289-9613-30             HOUSING FEMALE ASS'Y     CCN000000480000000480FN00000000020221001000000480NNM   20220725121513    4N0N  0000002400000126990000154371200    YCYC    005500360039
BI00B1200    2399T52818     202209157289-9613-30             HOUSING FEMALE ASS'Y     CCN000000480000000480FN00000000020221001000000480NNM   20220725121513    4N0N  0000002400000126990000154371200    YCYC    005500360039
BI00B1200    #2399T52816    202209017289-4200-30             HOUSING FEMALE ASS'Y     CCN000018000000018000FN00000000020221001000018000NNM   20220725121513    2N0N  0000020000000092600000102101200    YCYC    005400370024
BI00B1200    #2399T52817    202209087289-4200-30             HOUSING FEMALE ASS'Y     CCN000018000000018000FN00000000020221001000018000NNM   20220725121513    2N0N  0000020000000092600000102101200    YCYC    005400370024
BI00B1200    #2399T52818    202209157289-4200-30             HOUSING FEMALE ASS'Y     CCN000016000000016000FN00000000020221001000016000NNM   20220725121513    2N0N  0000020000000092600000102101200    YCYC    005400370024
BI00B1200    2399T52819     202209227288-6598-70             HOUSING MALE ASS'Y       CCN000011520000011520FN00000000020221001000011520NNM   20220725121513    4N0N  0000014400000107420000142921200    YCYC    005500360039
BI00B1200    2399T52820     202209297288-6598-70             HOUSING MALE ASS'Y       CCN000011520000011520FN00000000020221001000011520NNM   20220725121513    4N0N  0000014400000107420000142921200    YCYC    005500360039
BI00B1200    2399T52819     202209227289-0269                HOUSING SUB ASSEMBLY     CCN000001600000001600FN00000000020221001000001600NNM   20220725121513    1N0N  0000016000000100210000123451200    YCYC    005500360039
BI00B1200    2399T52820     202209297289-0269                HOUSING SUB ASSEMBLY     CCN000001600000001600FN00000000020221001000001600NNM   20220725121513    1N0N  0000016000000100210000123451200    YCYC    005500360039
BI00B1200    2399T52819     202209227289-4212-80             SEALED HOUSING ASS'Y     CCN000022000000022000FN00000000020221001000022000NNM   20220725121513    4N0N  0000020000000084860000097861200    YCYC    005400370024
BI00B1200    2399T52820     202209297289-4212-80             SEALED HOUSING ASS'Y     CCN000022000000022000FN00000000020221001000022000NNM   20220725121513    4N0N  0000020000000084860000097861200    YCYC    005400370024
BI00B1200    2399T52819     202209227289-6160-30             HOUSING FEMALE ASS'Y     CCN000000800000000800FN00000000020221001000000800NNM   20220725121513    4N0N  0000001600000103740000132041200    YCYC    005500360039
BI00B1200    2399T52820     202209297289-6160-30             HOUSING FEMALE ASS'Y     CCN000000800000000800FN00000000020221001000000800NNM   20220725121513    4N0N  0000001600000103740000132041200    YCYC    005500360039
BI00B1200    2399T52819     202209227289-6518-30             HOUSING FEMALE ASS'Y     CCN000006000000006000FN00000000020221001000006000NNM   20220725121513    1N0N  0000012000000082920000104921200    YCYC    005500360039
BI00B1200    2399T52820     202209297289-6518-30             HOUSING FEMALE ASS'Y     CCN000006000000006000FN00000000020221001000006000NNM   20220725121513    1N0N  0000012000000082920000104921200    YCYC    005500360039
BI00B1200    2399T52819     202209227289-6523-30             HOUSING FEMALE ASS'Y     CCN000001440000001440FN00000000020221001000001440NNM   20220725121513    4N0N  0000002400000129050000162051200    YCYC    005500360039
BI00B1200    2399T52820     202209297289-6523-30             HOUSING FEMALE ASS'Y     CCN000001440000001440FN00000000020221001000001440NNM   20220725121513    4N0N  0000002400000129050000162051200    YCYC    005500360039
BI00B1200    2399T52819     202209227289-6868-30             SEALED ASSY FEMALE       CCN000063000000063000FN00000000020221001000063000NNM   20220725121513    4N0N  0000025200000083920000111921200    YCYC    005500360039
BI00B1200    2399T52820     202209297289-6868-30             SEALED ASSY FEMALE       CCN000063000000063000FN00000000020221001000063000NNM   20220725121513    4N0N  0000025200000083920000111921200    YCYC    005500360039
BI00B1200    2399T52819     202209227289-9553-30             SEALED ASSY FEMALE       CCN000020580000020580FN00000000020221001000020580NNM   20220725121513    4N0N  0000029400000110900000152151200    YCYC    005500360039
BI00B1200    2399T52820     202209297289-9553-30             SEALED ASSY FEMALE       CCN000020580000020580FN00000000020221001000020580NNM   20220725121513    4N0N  0000029400000110900000152151200    YCYC    005500360039
BI00B1200    2399T52819     202209227289-9553-50             SEALED ASSY FEMALE       CCN000017640000017640FN00000000020221001000017640NNM   20220725121513    4N0N  0000029400000110810000152061200    YCYC    005500360039
BI00B1200    2399T52820     202209297289-9553-50             SEALED ASSY FEMALE       CCN000017640000017640FN00000000020221001000017640NNM   20220725121513    4N0N  0000029400000110810000152061200    YCYC    005500360039
BI00B1200    2399T52819     202209227289-9612-30             HOUSING FEMALE ASS'Y     CCN000000720000000720FN00000000020221001000000720NNM   20220725121513    4N0N  0000002400000134880000166881200    YCYC    005500360039
BI00B1200    2399T52820     202209297289-9612-30             HOUSING FEMALE ASS'Y     CCN000000720000000720FN00000000020221001000000720NNM   20220725121513    4N0N  0000002400000134880000166881200    YCYC    005500360039
BI00B1200    2399T52819     202209227289-9613-30             HOUSING FEMALE ASS'Y     CCN000000480000000480FN00000000020221001000000480NNM   20220725121513    4N0N  0000002400000126990000154371200    YCYC    005500360039
BI00B1200    2399T52820     202209297289-9613-30             HOUSING FEMALE ASS'Y     CCN000000480000000480FN00000000020221001000000480NNM   20220725121513    4N0N  0000002400000126990000154371200    YCYC    005500360039
BI00B1200    #2399T52819    202209227289-4200-30             HOUSING FEMALE ASS'Y     CCN000016000000016000FN00000000020221001000016000NNM   20220725121513    2N0N  0000020000000092600000102101200    YCYC    005400370024
BI00B1200    #2399T52820    202209297289-4200-30             HOUSING FEMALE ASS'Y     CCN000016000000016000FN00000000020221001000016000NNM   20220725121513    2N0N  0000020000000092600000102101200    YCYC    005400370024
BI00B1200    2399T52823     202210067116-4112-02             TERMINAL                 CCN000048000000048000FN00000000020221101000048000NNE   20220725121513    4P0P  0000060000000045000000073821200    YCYC    006400630015
BI00B32B1    A22041         202209167114-4032                TERMINAL                 CCN000007500000007500FN00000000020221101000007500NNM   20220725121513B1  4P0P  00000750000000735000001063632B1    AXARNE-M006400630017
BI00B32B1    #A22041        202209167158-3376-50             CONNECTOR WIRE SEAL      CCN000120000000120000FN00000000020221101000120000NNM   20220725121513B1  2C0C  00002000000000184000000240732B1    AXARNE-M002700430014
BI00B32B1    #A22041        202209167283-8226-30             CONNECTOR                CCN000010000000010000FN00000000020221101000010000NNM   20220725121513B1  2N0N  00000200000000820000001008032B1    AXARNE-M005400370024
BI00B32B6    A72033         202207217116-4037                TERMINAL                 CCN000012000000012000FY00001200020221001000000000NNM00020220725132030B6  4P0P  00000600000000600000000894232B6    AXARNE-M006400630015
BI00B32B6    A72033         202207217288-3339-30             HOUSING MALE             CCN000003000000003000FY00000300020221001000000000NNM00020220725132041B6  4N0N  00000150000000867000001012032B6    AXARNE-M005400370024
BI00B32B6    A72041         202209167116-4037                TERMINAL                 CCN000006000000006000FN00000000020221201000006000NNM   20220725130347B6  4P0P  00000600000000600000000894232B6    AXARNE-M006400630015
BI00B32B6    A72041         202209167116-4486-02             TERMINAL                 CCN000028000000028000FN00000000020221201000028000NNM   20220725130347B6  4P0P  00002800000000666400000995132B6    AXARNE-M006400630017
BI00B32B6    A72041         202209167116-5045-02             TERMINAL                 CCN000032000000032000FN00000000020221201000032000NNM   20220725130347B6  4P0P  00001600000000678400001007132B6    AXARNE-M006400630017
BI00B32B6    A72041         202209167158-3169-40             SEALING PLUG             CCN000160000000160000FN00000000020221201000160000NNM   20220725130347B6  1C0C  00004000000000156000000204132B6    AXARNE-M004300260014
BI00B32B6    A72041         202209167196-0104-02             TERMINAL                 CCN000038000000038000FN00000000020221201000038000NNM   20220725130347B6  4P0P  00003800000000570000000956432B6    AXARNE-M006400630017
BI00B32B6    A72041         202209167288-3339-30             HOUSING MALE             CCN000001500000001500FN00000000020221201000001500NNM   20220725130347B6  4N0N  00000150000000867000001012032B6    AXARNE-M005400370024
BI00B32B6    #A72041        202209167158-3003-90             RUBBER STOPPER           CCN000060000000060000FN00000000020221201000060000NNM   20220725130349B6  2C0C  00002000000000250000000306032B6    AXARNE-M002700430014
BI00B32B6    #A72041        202209167158-3004-40             RUBBER STOPPER           CCN000020000000020000FN00000000020221201000020000NNM   20220725130349B6  2C0C  00002000000000234000000306332B6    AXARNE-M002700430014
BI00B32B6    #A72041        202209167158-3015-10             RUBBER STOPPER           CCN000010000000010000FN00000000020221201000010000NNM   20220725130349B6  2C0C  00001000000000419500000474032B6    AXARNE-M002700430014
BI00B32B7    A82041         202209167158-3169-40             SEALING PLUG             CCN000080000000080000FN00000000020221201000080000NNM   20220725121513B7  1C0C  00004000000000156000000204132B7    AXARNE-M004300260014
BI00B32DE    TCT2091        202208047283-5846                HOUSING                  CCN000001500000001500FN00000000020220901000001500NNMD0020220725121513    1N0N  00000150000000885000001102032DE    TVYEV-TV005600390040
BI00B32DE    TCT2094        202208257283-5846                HOUSING                  CCN000001500000001500FN00000000020220901000001500NNMD0020220725121513    1N0N  00000150000000885000001102032DE    TVYEV-TV005600390040
BI00B32DE    TCT2093        202208187283-5846-40             HOUSING                  CCN000001500000001500FN00000000020220901000001500NNMD0020220725121513    1N0N  00000150000000885000001102032DE    TVYEV-TV005600390040
BI00B32DE    #TCTL209D      202208257158-3003-90             RUBBER STOPPER           CCN000020000000020000FN00000000020220901000020000NNE   20220725151103    2C0C  00002000000000250000000306032DE    TVYEV-TV002700430014
BI00B32DE    #TCTL209D      202208257158-3007-10             RUBBER STOPPER           CCN000020000000020000FN00000000020220901000020000NNE   20220725151103    2H0H  00002000000000308000000362732DE    TVYEV-TV002700430014
BI00B32DE    #TCTL209D      202208257158-3008-80             RUBBER STOPPER           CCN000020000000020000FN00000000020220901000020000NNE   20220725151103    2C0C  00002000000000288000000343032DE    TVYEV-TV004300270014
BI00B32DE    #TCTL209C      202208117158-3015-10             RUBBER STOPPER           CCN000020000000020000FN00000000020220901000020000NNE   20220725151103    2C0C  00001000000000419500000474032DE    TVYEV-TV002700430014
BI00B32DE    #TCTL209D      202208257158-3015-10             RUBBER STOPPER           CCN000020000000020000FN00000000020220901000020000NNE   20220725151103    2C0C  00001000000000419500000474032DE    TVYEV-TV002700430014
BI00B32DE    #TCTL209D      202208257158-3120-90             CONNECTOR WIRE SEAL      CCN000020000000020000FN00000000020220901000020000NNE   20220725151103    2C0C  00002000000000136000000194032DE    TVYEV-TV002700430014
BI00B32DE    #TCTL209D      202208257158-7584-30             BLOCK LIF                CCN000001600000001600FN00000000020220901000001600NNE   20220725151103    2F0F  00000080000000534500000688532DE    TVYEV-TV005500360039
BI00B32DE    #TCTL209D      202208257158-7586-30             BLOCK LIF                CCN000000800000000800FN00000000020220901000000800NNE   20220725151103    2F0F  00000080000000617400000844232DE    TVYEV-TV005500360039
BI00B32DE    #TCTL209C      202208117182-2410                CONNECTOR HOUSING        CCN000001200000001200FN00000000020220901000001200NNE   20220725151103    2F0F  00000120000000959800001245632DE    TVYEV-TV005500360039
BI00B32DE    #TCTL209D      202208257182-2410                CONNECTOR HOUSING        CCN000001200000001200FN00000000020220901000001200NNE   20220725151103    2F0F  00000120000000959800001245632DE    TVYEV-TV005500360039
BI00B32DE    #TCTL209D      202208257183-0520                HOUSING FEMALE           CCN000003000000003000FN00000000020220901000003000NNE   20220725151103    2F0F  00000300000000729000000874032DE    TVYEV-TV005400370024
BI00B32DE    #TCTL209D      202208257183-1616-30             CONNECTOR HOUSING        CCN000002400000002400FN00000000020220901000002400NNE   20220725151103    2F0F  00000240000000557500000837132DE    TVYEV-TV005500360039
BI00B32DE    #TCTL209D      202208257183-2412                HOUSING                  CCN000001600000001600FN00000000020220901000001600NNE   20220725151103    2F0F  00000160000001059200001245632DE    TVYEV-TV005500360039
BI00B32DE    #TCTL209D      202208257183-2416-90             HOUSING                  CCN000002400000002400FN00000000020220901000002400NNE   20220725151103    2F0F  00000240000001489700001765832DE    TVYEV-TV005500360039
BI00B32DE    #TCTL209D      202208257188-0149                HLC HOUSING MALE         CCN000003600000003600FN00000000020220901000003600NNE   20220725151103    2F0F  00000090000000809100000923832DE    TVYEV-TV005400370024
BI00B32DE    #TCTL209D      202208257189-0149                HLC HOUSING FEMALE       CCN000014000000014000FN00000000020220901000014000NNE   20220725151103    2F0F  00000200000000970000001078532DE    TVYEV-TV005400370024
BI00B32DE    #TCTL209C      202208117283-1065                CONNECTOR                CCN000002500000002500FN00000000020220901000002500NNE   20220725151103    2N0N  00000250000001152500001310432DE    TVYEV-TV005500360039
BI00B32DE    #TCTL209D      202208257283-1065                CONNECTOR                CCN000002500000002500FN00000000020220901000002500NNE   20220725151103    2N0N  00000250000001152500001310432DE    TVYEV-TV005500360039
BI00B32DE    #TCTL209D      202208257289-2914                HOUSING FEMALE ASS'Y     CCN000001500000001500FN00000000020220901000001500NNE   20220725151103    2N0N  00000150000000906000001033032DE    TVYEV-TV005400370024
BI00B32DE    #TCTL209D      202208257289-2915-30             HOUSING FEMALE ASS'Y     CCN000001500000001500FN00000000020220901000001500NNE   20220725151103    2N0N  00000150000000964500001091532DE    TVYEV-TV005400370024
BI00B32DE    #TCTL209D      202208257289-2916-30             HOUSING FEMALE ASS'Y     CCN000001000000001000FN00000000020220901000001000NNE   20220725151103    2N0N  00000100000000857000001084032DE    TVYEV-TV005400370024
BI00B32D1    DFTC2241C      202208187116-4100-02             TERMINAL                 CCN000030000000030000FN00000000020221001000030000NNE   20220725121513    4P0P  00001500000000696000000990232D1    TOYOT-K 006400630015
BI00B32D1    DFTC2241C      202208187116-4110-02             TERMINAL                 CCN000018000000018000FN00000000020221001000018000NNE   20220725121513    4P0P  00000900000000594000000882232D1    TOYOT-K 006400630015
BI00B32D1    DFTC2241C      202208187116-4112-02             TERMINAL                 CCN000060000000060000FN00000000020221001000060000NNE   20220725121513    4P0P  00000600000000450000000738232D1    TOYOT-K 006400630015
BI00B32D1    DFTC2241C      202208187126-8853-02             TERMINAL                 CCN000007500000007500FN00000000020221001000007500NNE   20220725121513    4P0P  00000750000000562500000847732D1    TOYOT-K 006400630015
BI00B32D1    DFTC2241C      202208187126-8854-02             TERMINAL                 CCN000022500000022500FN00000000020221001000022500NNE   20220725121513    4P0P  00000750000000604500000889732D1    TOYOT-K 006400630015
BI00B32D1    #DFTC2241C     202208187047-5344                RETAINER                 CCN000010000000010000FN00000000020221001000010000NNE   20220725121513    2F0F  00001000000000870000001016032D1    TOYOT-K 005600390023
BI00B32D1    #DFTC2241C     202208187158-3017                RUBBER STOPPER           CCN000010000000010000FN00000000020221001000010000NNE   20220725121513    2C0C  00001000000000375500000435032D1    TOYOT-K 002700430014
BI00B32D2    DGTC2241C      202208187116-5046-02             TERMINAL                 CCN000120000000120000FN00000000020221001000120000NNE   20220725121513    4P0P  00001200000000544800000873532D2    TGYOT-G 006400630017
BI00B32D2    DGTC2241C      202208187327-6801-3W             BATTERY FUSE             CCN000000384000000384FN00000000020221001000000384NNE   20220725121513    4N0N  00000009600000928400001143432D2    TGYOT-G 005500360039
BI00B32D2    DGTC2241C      202208187327-6806                MULTI FUSE               CCN000000560000000560FN00000000020221001000000560NNE   20220725121513    4N0N  00000056000000851500001063932D2    TGYOT-G 005400370024
BI00B32D2    DGTC2241C      202208187327-6930                MULTI FUSE               CCN000001120000001120FN00000000020221001000001120NNE   20220725121513    4N0N  00000056000000848900001031932D2    TGYOT-G 005400370024
BI00B32D2    #DGTC2241C     202208187158-3005-80             RUBBER STOPPER           CCN000020000000020000FN00000000020221001000020000NNE   20220725121513    2H0H  00002000000000210000000268732D2    TGYOT-G 002700430014
BI00B32D2    #DGTC2241C     202208187158-3374-90             CONNECTOR WIRE SEAL      CCN000040000000040000FN00000000020221001000040000NNE   20220725121513    2H0H  00002000000000172000000229332D2    TGYOT-G 002700430014
BI00B32D2    #DGTC2241C     202208187289-2912-40             HOUSING FEMALE ASS'Y     CCN000002000000002000FN00000000020221001000002000NNE   20220725121513    2N0N  00000200000000804000000931032D2    TGYOT-G 005400370024
BI00B32D2    #DGTC2241C     202208187289-3622-30             HOUSING FEMALE ASS'Y     CCN000000864000000864FN00000000020221001000000864NNE   20220725121513    2N0N  00000043200000839400001038432D2    TGYOT-G 005400370024
BI00B32D2    #DGTC2241C     202208187289-4200-30             HOUSING FEMALE ASS'Y     CCN000002000000002000FN00000000020221001000002000NNE   20220725121513    2N0N  00000200000000926000001021032D2    TGYOT-G 005400370024
BI00B32D2    DGTC2241D      202208187295-0785-02             TERMINAL ALUMINIUM       CCN000025500000025500FN00000000020221001000025500NNE   20220725132901    4P0P  00002550000000510000000803632D2    TGYOT-G 006400630015
BI00B32EJ    T220722P01     202209017116-4022                TERMINAL                 CCN000040500000040500FN00000000020220901000040500NNED0020220725121513EJ  4P0P  00001350000000618300000903532EJ    EJYKBO  006400630015
BI00B32EJ    T220722P01     202209017116-4101-02             TERMINAL                 CCN000036000000036000FN00000000020220901000036000NNED0020220725121513EJ  4P0P  00001200000000582000000876232EJ    EJYKBO  006400630015
BI00B32EJ    T220722P01     202209017116-4104-02             TERMINAL                 CCN000012000000012000FN00000000020220901000012000NNED0020220725121513EJ  4P0P  00001200000000580800000972432EJ    EJYKBO  006400630015
BI00B32EJ    T220722P01     202209017116-5751-02             TERMINAL                 CCN000024000000024000FN00000000020220901000024000NNED0020220725121513EJ  4P0P  00001200000000379200000664432EJ    EJYKBO  006400630015
BI00B32EJ    T220722P01     202209017158-3006-90             RUBBER STOPPER           CCN000080000000080000FN00000000020220901000080000NNED0020220725121513EJ  1C0C  00002000000000330600000386032EJ    EJYKBO  002700430014
BI00B32EJ    T220722P01     202209017283-7028-30             CONNECTOR                CCN000003000000003000FN00000000020220901000003000NNED0020220725121513EJ  4N0N  00000300000001452000001681332EJ    EJYKBO  005600390040
BI00B32EJ    T220722P01     202209017116-4122-02             TERMINAL                 CCN000022500000022500FN00000000020220901000022500NNED0020220725121513EJ  4P0P  00000450000000656600000950232EJ    EJYKBO  006400630015
BI00B32EJ    #T220722P01    202209017123-6423-30             CONNECTOR                CCN000020000000020000FN00000000020220901000020000NNED0020220725121513EJ  2F0F  00000200000001002000001167632EJ    EJYKBO  005600390023
BI00B32EJ    #T220722P01    202209017157-3821                RUBBER STOPPER           CCN000020000000020000FN00000000020220901000020000NNED0020220725121513EJ  2C0C  00002000000000176000000238032EJ    EJYKBO  002700430014
BI00B32EJ    T220722P02     202209017116-4120-02             TERMINAL                 CCN000030000000030000FN00000000020220901000030000NNE   20220725121513EJ  4P0P  00000600000000780000001073632EJ    EJYKBO  006400630015
BI00B32EJ    T220722P02     202209017116-4121-02             TERMINAL                 CCN000027000000027000FN00000000020220901000027000NNE   20220725121513EJ  4P0P  00000450000000618800000912432EJ    EJYKBO  006400630015
BI00B32EJ    T220722P03     202208187158-3070-80             RUBBER STOPPER           CCN000040000000040000FN00000000020220801000040000NNE   20220725121513EJ  1C0C  00004000000000276000000333332EJ    EJYKBO  002700430014
BI00B32EJ    T220722P03     202208187116-4101-02             TERMINAL                 CCN000012000000012000FN00000000020220801000012000NNE   20220725121513EJ  4P0P  00001200000000582000000876232EJ    EJYKBO  006400630015
BI00B32EJ    #T220722P03    202208187158-3120-90             CONNECTOR WIRE SEAL      CCN000060000000060000FN00000000020220801000060000NNE   20220725121513EJ  2C0C  00002000000000136000000194032EJ    EJYKBO  002700430014
BI00B32EJ    #T220722P03    202208187158-3374-90             CONNECTOR WIRE SEAL      CCN000020000000020000FN00000000020220801000020000NNE   20220725121513EJ  2H0H  00002000000000172000000229332EJ    EJYKBO  002700430014
BI00B32EJ    #T220722P04    202208187158-3120-90             CONNECTOR WIRE SEAL      CCN000020000000020000FN00000000020220801000020000NNE   20220725121513EJ  2C0C  00002000000000136000000194032EJ    EJYKBO  002700430014
BI00B32EJ    T220722P05     202209017158-3168-80             SEALED                   CCN000180000000180000FN00000000020220901000180000NNE   20220725121513EJ  1C0C  00002000000000044000000092132EJ    EJYKBO  004300260014
BI00B32EJ    T220722P05     202209017114-4101-02             TERMINAL                 CCN000075000000075000FN00000000020220901000075000NNE   20220725121513EJ  4P0P  00001500000000675000001003632EJ    EJYKBO  006400630017
BI00B32EJ    T220722P05     202209017114-4110-02             TERMINAL                 CCN000015000000015000FN00000000020220901000015000NNE   20220725121513EJ  4P0P  00001500000000901500001230132EJ    EJYKBO  006400630017
BI00B32EJ    T220722P05     202209017114-4111-02             TERMINAL                 CCN000120000000120000FN00000000020220901000120000NNE   20220725121513EJ  4P0P  00001200000000758400001087032EJ    EJYKBO  006400630017
BI00B32EJ    T220722P05     202209017283-5843                CONNECTOR                CCN000030000000030000FN00000000020220901000030000NNE   20220725121513EJ  1N0N  00000150000000889000001132032EJ    EJYKBO  005600390040
BI00B32EJ    T220722P05     202209017289-9553-30             SEALED ASSY FEMALE       CCN000002940000002940FN00000000020220901000002940NNE   20220725121513EJ  4N0N  00000294000001109000001521532EJ    EJYKBO  005500360039
BI00B32EJ    #T220722P05    202209017123-6423-30             CONNECTOR                CCN000004000000004000FN00000000020220901000004000NNE   20220725121513EJ  2F0F  00000200000001002000001167632EJ    EJYKBO  005600390023
BI00B32G7    JJ2209B MW     202208187114-5748-02             TERMINAL                 CCN000012000000012000FN00000000020220901000012000NNE   20220725121513    4P0P  00001200000000444000000737632G7    JIJAI   006400630015
BI00B32G7    JJ2209B MW     202208187116-4780-02             TERMINAL FEMALE          CCN000030000000030000FN00000000020220901000030000NNE   20220725121513    4P0P  00001500000000691500000985732G7    JIJAI   006400630015
BI00B32G7    #JJ2209B MW    202208187158-3015-10             RUBBER STOPPER           CCN000020000000020000FN00000000020220901000020000NNE   20220725121513    2C0C  00001000000000419500000474032G7    JIJAI   002700430014
BI00B32G7    JJ2209BLMW     202208187116-4114-02             TERMINAL                 CCN000021000000021000FN00000000020220901000021000NNE   20220725121513    4P0P  00001050000000693000000981232G7    JIJAI   006400630015
BI00B32G7    JJ2209BLMW     202208187116-4115-02             TERMINAL                 CCN000008400000008400FN00000000020220901000008400NNE   20220725121513    4P0P  00000840000000593000000881232G7    JIJAI   006400630015
BI00B32G7    JJ2209BLMW     202208187116-4116-02             TERMINAL                 CCN000006900000006900FN00000000020220901000006900NNE   20220725121513    4P0P  00000690000000517500000805732G7    JIJAI   006400630015
BI00B32G7    #JJ2209BLMW    202208187189-0149                HLC HOUSING FEMALE       CCN000004000000004000FN00000000020220901000004000NNE   20220725121513    2F0F  00000200000000970000001078532G7    JIJAI   005400370024
BI00B32G7    JJ2209BMMW     202208187196-1102-02             TERMINAL                 CCN000045000000045000FN00000000020220901000045000NNE   20220725121513    4P0P  00002250000000405000000690232G7    JIJAI   006400630015
BI00B32G7    JJ2209BMMW     202208187196-1482-02             TERMINAL FEMALE          CCN000024000000024000FN00000000020220901000024000NNE   20220725121513    4P0P  00002400000000424800000710032G7    JIJAI   006400630015
BI00B32G7    JJ2209BMMW     202208187288-3332-30             HOUSING MALE             CCN000001500000001500FN00000000020220901000001500NNE   20220725121513    4N0N  00000150000000860700001005732G7    JIJAI   005400370024
BI00B32G7    JJ2209BMMW     202208187288-3338-30             HOUSING MALE             CCN000001500000001500FN00000000020220901000001500NNE   20220725121513    4N0N  00000150000000866100001012032G7    JIJAI   005400370024
BI00B32G7    JJ2209BMMW     202208187297-3482                JOINT CONNECTOR          CCN000004000000004000FN00000000020220901000004000NNE   20220725121513    4N0N  00000080000000621000000730532G7    JIJAI   005400370024
BI00B32G7    JJ2209BMMW     202208187327-6731-3W             BATTERY FUSE             CCN000000192000000192FN00000000020220901000000192NNE   20220725121513    4N0N  00000006400000697600000843032G7    JIJAI   005400370024
BI00B32G7    #JJ2209BMMW    202208187172-5629-80             RUBBER STOPPER           CCN000060000000060000FN00000000020220901000060000NNE   20220725121513    2H0H  00002000000000060000000111132G7    JIJAI   004300270014
BI00B32G7    #JJ2209BMMW    202208187172-5632-10             DUMMY PLUG               CCN000080000000080000FN00000000020220901000080000NNE   20220725121513    2H0H  00002000000000080400000131832G7    JIJAI   004300270014
BI00B32G8    PATA2091B      202208107273-3573-0W             CASSETTE BRACKET         CCN000000600000000600FN00000000020220901000000600NNE   20220725121513    4N0N  00000010000000087700000140232G8    PSPASI  004300270014
BI00B32G8    PATA2091B      202208107470-5302                J/B COMPLETE ASS'Y       CCN000000600000000600FN00000000020220901000000600NNE   20220725121513    4J0J  00000001000000494000000661032G8    PSPASI  005400370024
BI00B32G8    PATA2091B      202208107470-5946                J/B COMPLETE ASS'Y       CCN000000240000000240FN00000000020220901000000240NNE   20220725121513    4J0J  00000001000000494000000661032G8    PSPASI  005400370024
BI00B32G8    PATA2091B      202208107470-6156                J/B COMPLETE ASS'Y       CCN000000010000000010FN00000000020220901000000010NNE   20220725121513    4J00  00000001000000494000000661032G8    PSPASI  005400370024
BI00B32J1    #395729        202208017183-7725-40             HOUSING                  CCN000006000000006000FN00000000020220801000006000NNED0020220725121513    2F0F  00000600000000840000001040032J1    UKYEL-BL005600390040
BI00B32J1    #395890        202208017183-7725-40             HOUSING                  CCN000006000000006000FN00000000020220801000006000NNED0020220725121513    2F0F  00000600000000840000001040032J1    UKYEL-BL005600390040
BI00B32J1    #396069        202208017183-7725-40             HOUSING                  CCN000012000000012000FN00000000020220801000012000NNED0020220725121513    2F0F  00000600000000840000001040032J1    UKYEL-BL005600390040
BI00B32J1    396406         202208017196-1461-02             TERMINAL FEMALE          CCN000360000000360000FN00000000020220801000360000NNMD0020220725143422    4P0P  00002400000000386400000671632J1    UKYEL-BL006400630015
BI00B32J1    396406         202208017288-5000                HOUSING MALE ASS'Y       CCN000000672000000672FN00000000020220801000000672NNMD0020220725135328    1N0N  00000033600000825200001035232J1    UKYEL-BL005400370024
BI00B32J1    396406         202208017298-1868-80             HOUSING FEMALE ASS'Y     CCN000002400000002400FN00000000020220801000002400NNMD0020220725135410    4N0N  00000240000001028600001243532J1    UKYEL-BL005500360039
BI00B32J1    396406         202208017298-1869-30             HOUSING FEMALE ASS'Y     CCN000034800000034800FN00000000020220801000034800NNMD0020220725135429    4N0N  00000120000000737000000939832J1    UKYEL-BL005500360039
BI00B32J1    396406         202208017298-2278-30             HOUSING FEMALE ASS'Y     CCN000026400000026400FN00000000020220801000026400NNMD0020220725135446    4N0N  00000240000001091700001295432J1    UKYEL-BL005500360039
BI00B32J1    396406         202208017298-2508-30             HOUSING FEMALE ASS'Y     CCN000002400000002400FN00000000020220801000002400NNMD0020220725135510    4N0N  00000120000000822000001005032J1    UKYEL-BL005500360039
BI00B32J1    #396406        202208017158-3120-90             CONNECTOR WIRE SEAL      CCN000200000000200000FN00000000020220801000200000NNMD0020220725121513    2C0C  00002000000000136000000194032J1    UKYEL-BL002700430014
BI00B32J1    #396406        202208017282-3243-40             CONNECTOR                CCN000011200000011200FN00000000020220801000011200NNMD0020220725155332    2N0N  00000080000001006000001282332J1    UKYEL-BL005600390040
BI00B32J1    #396406        202208017282-5545-10             CONNECTOR                CCN000012000000012000FN00000000020220801000012000NNMD0020220725155352    2N0N  00000080000001293600001465332J1    UKYEL-BL005500360039
BI00B32J1    #396406        202208017297-1907-30             HOUSING MALE ASS'Y       CCN000001500000001500FN00000000020220801000001500NNMD0020220725165715    2N0N  00000150000000451800000568032J1    UKYEL-BL005400370024
BI00B32J1    396623         202208017126-8850-02             TERMINAL                 CCN000027000000027000FN00000000020220801000027000NNMD0020220725143444    1P0P  00000900000000672300000957532J1    UKYEL-BL006400630015
BI00B32J1    396623         202208017158-3006-90             RUBBER STOPPER           CCN000100000000100000FN00000000020220801000100000NNMD0020220725121513    1C0C  00002000000000330600000386032J1    UKYEL-BL002700430014
BI00B32J1    396623         202208017158-3165-90             WIRE SEAL                CCN000920000000920000FN00000000020220801000920000NNMD0020220725121513    1C0C  00004000000000124000000172432J1    UKYEL-BL004300270014
BI00B32J1    396623         202208087196-1461-02             TERMINAL FEMALE          CCN000576000000576000FN00000000020220801000576000NNMD0020220725143504    4P0P  00002400000000386400000671632J1    UKYEL-BL006400630015
BI00B32J1    396623         202208017283-5830                CONNECTOR                CCN000018000000018000FN00000000020220801000018000NNMD0020220725143523    1N47  00000600000000954000001104032J1    UKYEL-BL005500360039
BI00B32J1    396623         202208087288-5000                HOUSING MALE ASS'Y       CCN000002352000002352FN00000000020220801000002352NNMD0020220725135603    1N0N  00000033600000825200001035232J1    UKYEL-BL005400370024
BI00B32J1    396623         202208017289-5000                HOUSING FEMALE ASS'Y     CCN000002128000002128FN00000000020220801000002128NNMD0020220725135618    1N0N  00000030400000549000000759032J1    UKYEL-BL005400370024
BI00B32J1    396623         202208017298-1868-80             HOUSING FEMALE ASS'Y     CCN000007200000007200FN00000000020220801000007200NNMD0020220725135637    4N0N  00000240000001028600001243532J1    UKYEL-BL005500360039
BI00B32J1    396623         202208087298-2508-30             HOUSING FEMALE ASS'Y     CCN000004800000004800FN00000000020220801000004800NNMD0020220725135656    4N0N  00000120000000822000001005032J1    UKYEL-BL005500360039
BI00B32J1    #396623        202208087047-5344                RETAINER                 CCN000100000000100000FN00000000020220801000100000NNMD0020220725155420    2F0F  00001000000000870000001016032J1    UKYEL-BL005600390023
BI00B32J1    #396623        202208087134-4547-30             COVER                    CCN000015000000015000FN00000000020220801000015000NNMD0020220725155438    2F0F  00000250000000989000001156732J1    UKYEL-BL005600390040
BI00B32J1    #396623        202208087147-8717-30             CLIP                     CCN000010000000010000FN00000000020220801000010000NNMD0020220725155459    2F0F  00000500000000660000000875032J1    UKYEL-BL005600390040
BI00B32J1    #396623        202208157158-3120-90             CONNECTOR WIRE SEAL      CCN000360000000000000FY00000000020220801000000000NNMQ0820220725101949    2C0C  00002000000000136000000194032J1    UKYEL-BL002700430014
BI00B32J1    #396623        202208087158-3375-80             CONNECTOR WIRE SEAL      CCN000020000000020000FN00000000020220801000020000NNMD0020220725121513    2C0C  00002000000000156000000214332J1    UKYEL-BL002700430014
BI00B32J1    #396623        202208087174-1164                COVER                    CCN000002400000002400FN00000000020220801000002400NNMD0020220725121513    2F0F  00000080000000592000000712032J1    UKYEL-BL005500360039
BI00B32J1    #396623        202208087183-7725-40             HOUSING                  CCN000006000000006000FN00000000020220801000006000NNMD0020220725121513    2F0F  00000600000000840000001040032J1    UKYEL-BL005600390040
BI00B32J1    #396623        202208087282-3243-40             CONNECTOR                CCN000015200000015200FN00000000020220801000015200NNMD0020220725155518    2N0N  00000080000001006000001282332J1    UKYEL-BL005600390040
BI00B32J1    #396623        202208157282-4192-40             CONNECTOR                CCN000037200000023520FN00000000020220801000023520NNMQ0020220725155629    2N0N  00000024000000801000001083732J1    UKYEL-BL005600390040
BI00B32J1    #396623        202208017282-5545-10             CONNECTOR                CCN000048000000048000FN00000000020220801000048000NNMD0020220725155659    2N0N  00000080000001293600001465332J1    UKYEL-BL005500360039
BI00B32J1    #396623        202208087282-6446-40             CONNECTOR                CCN000013500000013500FN00000000020220801000013500NNMD0020220725155714    2N0N  00000150000001185000001368032J1    UKYEL-BL005500360039
BI00B32J1    #396623        202208087282-8395-40             CONNECTOR                CCN000005000000005000FN00000000020220801000005000NNMD0020220725155734    2N0N  00000100000001009000001188032J1    UKYEL-BL005500360039
BI00B32J1    #396623        202208017283-4192-40             CONNECTOR                CCN000009840000009840FN00000000020220801000009840NNMD0020220725155747    2N0N  00000024000000846000000986032J1    UKYEL-BL005600390040
BI00B32J1    #396623        202208087283-8226-30             CONNECTOR                CCN000010000000010000FN00000000020220801000010000NNMD0020220725121513    2N0N  00000200000000820000001008032J1    UKYEL-BL005400370024
BI00B32J1    #396623        202208017297-1907-30             HOUSING MALE ASS'Y       CCN000010500000010500FN00000000020220801000010500NNMD0020220725165731    2N0N  00000150000000451800000568032J1    UKYEL-BL005400370024
BI00B32J1    396675         202209057158-3165-90             WIRE SEAL                CCN000040000000040000FN00000000020220901000040000NNE   20220725121513    1C0C  00004000000000124000000172432J1    UKYEL-BL004300270014
BI00B32J1    #396675        202209057282-6457-40             CONNECTOR                CCN000000800000000800FN00000000020220901000000800NNE   20220725121513    2N0N  00000080000001137000001421332J1    UKYEL-BL005600390040
BI00A32J1    396674         202208227298-2509-30             HOUSING FEMALE ASS'Y     CCN000001200000001200FN00000000020220801000001200NNE   20220725121513    4N0N  00000120000000857500001062532J1    UKYEL-BL005500360039
BI00B32J1    #396623        202208087158-3120-90             CONNECTOR WIRE SEAL      CCN000200000000360000FN00000000020220801000360000NNMD0020220725121513    2C0C  00002000000000136000000194032J1    UKYEL-BL002700430014
BI00B32J1    #396623        202208017282-4192-40             CONNECTOR                CCN000013680000013680FN00000000020220801000013680NNMD0020220725155634    2N0N  00000024000000801000001083732J1    UKYEL-BL005600390040
BI00B32K8    #K1220011424   202210077137-2200                CONNECTOR PACKING        CCN000005000000005000FN00000000020221101000005000NNM   20220725121513    2C0C  00000500000000136000000211332K8    ELELCOM 004300270014
BI00B32M1    #TCVL209A      202208117289-4200-30             HOUSING FEMALE ASS'Y     CCN000010000000010000FN00000000020220901000010000NNE   20220725121513    2N0N  00000200000000926000001021032M1    VNYEV   005400370024
BI00B32M3    SM2208CHMW     202208117C89-6868-30             SEALED ASSY FEMALE       CCN000002520000002520FN00000000020220801000002520NNE   20220725121513    4N0N  00000252000000839200001119232M3    SASAMI  005500360039
BI00B32M3    SM2208DDMW     202208117116-3154-08             TERMINAL                 CCN000027000000027000FN00000000020220801000027000NNE   20220725121513    4P0P  00002700000000475200000760432M3    SASAMI  006400630015
BI00B32M3    SM2208DDMW     202208117283-4577                CONNECTOR HOUSING        CCN000004800000004800FN00000000020220801000004800NNE   20220725121513    4N0N  00000480000000916800001136832M3    SASAMI  005500360039
BI00B32M3    #SM2208DDMW    202208117187-1616                HOUSING FEMALE           CCN000004000000004000FN00000000020220801000004000NNE   20220725121513    2F0F  00000400000001152000001262032M3    SASAMI  005500360039
BI00B32M3    SM2208E MW     202208117116-1685-02             TERMINAL                 CCN000048000000048000FN00000000020220801000048000NNE   20220725121513    4P0P  00002400000000897600001065232M3    SASAMI  005100280028
BI00B32M3    SM2208E MW     202208117116-1686-02             TERMINAL                 CCN000021000000021000FN00000000020220801000021000NNE   20220725121513    4P0P  00002100000000869400001021632M3    SASAMI  005100280028
BI00B32M3    SM2208E MW     202208117116-3154-02             TERMINAL FEMALE          CCN000054000000054000FN00000000020220801000054000NNE   20220725121513    4P0P  00002700000000469800000755032M3    SASAMI  006400630015
BI00B32M3    SM2208E MW     202208117116-4415-02             TERMINAL                 CCN000038000000038000FN00000000020220801000038000NNE   20220725121513    4P0P  00003800000000596600000925732M3    SASAMI  006400630017
BI00B32M3    SM2208E MW     202208117126-8854-02             TERMINAL                 CCN000022500000022500FN00000000020220801000022500NNE   20220725121513    4P0P  00000750000000604500000889732M3    SASAMI  006400630015
BI00B32M3    SM2208E MW     202208117158-3006-90             RUBBER STOPPER           CCN000020000000020000FN00000000020220801000020000NNE   20220725121513    1C0C  00002000000000330600000386032M3    SASAMI  002700430014
BI00B32M3    SM2208E MW     202208117158-3009-60             RUBBER STOPPER           CCN000020000000020000FN00000000020220801000020000NNE   20220725121513    1C0C  00002000000000338000000386232M3    SASAMI  002700430014
BI00B32M3    SM2208E MW     202208117158-3165-90             WIRE SEAL                CCN000040000000040000FN00000000020220801000040000NNE   20220725121513    1C0C  00004000000000124000000172432M3    SASAMI  004300270014
BI00B32M3    SM2208E MW     202208117283-1968-30             CONNECTOR                CCN000001800000001800FN00000000020220801000001800NNE   20220725121513    1N0N  00000090000001140000001318332M3    SASAMI  005600390040
BI00B32M3    SM2208E MW     202208117283-7526-40             CONNECTOR HOUSING        CCN000001960000001960FN00000000020220801000001960NNE   20220725121513    4N0N  00000196000000989800001248632M3    SASAMI  005500360039
BI00B32M3    SM2208E MW     202208117287-9234                JOINT CONNECTOR          CCN000009600000009600FN00000000020220801000009600NNE   20220725121513    4N0N  00000960000000893800001184832M3    SASAMI  005500360039
BI00B32M3    #SM2208E MW    202208117158-3015-10             RUBBER STOPPER           CCN000010000000010000FN00000000020220801000010000NNE   20220725121513    2C0C  00001000000000419500000474032M3    SASAMI  002700430014
BI00B32M3    #SM2208E MW    202208117158-3017                RUBBER STOPPER           CCN000010000000010000FN00000000020220801000010000NNE   20220725121513    2C0C  00001000000000375500000435032M3    SASAMI  002700430014
BI00A32M4    #TL2074B       202207267183-2419                HOUSING                  CCN000004800000004800FN00000000020220701000004800NNE   20220725141745    2F0F  00000480000001065600001352732M4    SISAI   005500360039
BI00B32N2    #2152104041    202207227187-3973                CONNECTOR HOUSING        CCN000002400000002400FY00000240020220801000000000NNM00020220725131700    2F0F  00000240000000901900001073132N2    YWYIPLTC005500360039
BI00B32R7    R-TAP220312    202208047116-4121-02             TERMINAL                 CCN000040500000040500FN00000000020220801000040500NNE   20220725121513    4P0P  00000450000000618800000912432R7    IVYCIC  006400630015
BI00B32R7    R-TAP220313    202208117116-4122-02             TERMINAL                 CCN000004500000004500FN00000000020220801000004500NNE   20220725121513    4P0P  00000450000000656600000950232R7    IVYCIC  006400630015
BI00B32R7    #R-TAP220313   202208117186-8845-60             HOUSING MALE             CCN000024000000024000FN00000000020220801000024000NNE   20220725121513    2F0F  00000300000000690000000801532R7    IVYCIC  005400370024
BI00B32U5    DI2041         202209167116-4037                TERMINAL                 CCN000012000000012000FN00000000020221101000012000NNM   20220725131250U5  4P0P  00000600000000600000000894232U5    AMAMSD  006400630015
BI00B32U5    DI2041         202209167114-4486-02             TERMINAL                 CCN000024000000024000FN00000000020221101000024000NNM   20220725131250U5  4P0P  00002400000000662400000956032U5    AMAMSD  006400630015
BI00B32U5    DI2041         202209167116-1686-02             TERMINAL                 CCN000021000000021000FN00000000020221101000021000NNM   20220725131250U5  4P0P  00002100000000869400001021632U5    AMAMSD  005100280028
BI00B32U5    DI2041         202209167116-5045-02             TERMINAL                 CCN000240000000240000FN00000000020221101000240000NNM   20220725131250U5  4P0P  00001600000000678400001007132U5    AMAMSD  006400630017
BI00B32U5    DI2041         202209167116-5046-02             TERMINAL                 CCN000060000000060000FN00000000020221101000060000NNM   20220725131250U5  4P0P  00001200000000544800000873532U5    AMAMSD  006400630017
BI00B32U5    DI2041         202209167283-9458-30             CONNECTOR                CCN000002000000002000FN00000000020221101000002000NNM   20220725131250U5  4N0N  00000020000000792000000984332U5    AMAMSD  005600390023
BI00B32U5    DI2041         202209167288-3331-30             HOUSING MALE             CCN000003000000003000FN00000000020221101000003000NNM   20220725131250U5  4N0N  00000150000000866000001010932U5    AMAMSD  005400370024
BI00B32U5    #DI2041        202209167158-3017                RUBBER STOPPER           CCN000010000000010000FN00000000020221101000010000NNM   20220725131253U5  2C0C  00001000000000375500000435032U5    AMAMSD  002700430014
BI00B32U5    #DI2041        202209167189-3032                HOUSING FEMALE           CCN000003200000003200FN00000000020221101000003200NNM   20220725131253U5  2F0F  00000160000000788400001018432U5    AMAMSD  005500360039
BI00B32U5    #DI2041        202209167158-3007-10             RUBBER STOPPER           CCN000060000000060000FN00000000020221101000060000NNM   20220725131253U5  2H0H  00002000000000308000000362732U5    AMAMSD  002700430014
BI00B32U5    #DI2041        202209167158-3376-50             CONNECTOR WIRE SEAL      CCN000080000000080000FN00000000020221101000080000NNM   20220725131253U5  2C0C  00002000000000184000000240732U5    AMAMSD  002700430014
BI00B32U5    #DI2041        202209167172-5625-90             RUBBER STOPPER           CCN000040000000040000FN00000000020221101000040000NNM   20220725131253U5  2H0H  00002000000000082400000133832U5    AMAMSD  004300270014
BI00B32U5    #DI2041        202209167172-5630-40             RUBBER STOPPER           CCN000020000000020000FN00000000020221101000020000NNM   20220725131253U5  2H0H  00002000000000044000000095132U5    AMAMSD  004300270014
BI00B32U5    #DI2041        202209167289-4200-30             HOUSING FEMALE ASS'Y     CCN000006000000006000FN00000000020221101000006000NNM   20220725131253U5  2N0N  00000200000000926000001021032U5    AMAMSD  005400370024
BI00B32U9    TP0410S        202209087282-7301-40             CONNECTOR                CCN000001500000001500FN00000000020221001000001500NNE   20220725121513U9  4N0N  00000150000001125000001497932U9    YNYNA-E 005500360039
BI00B32U9    TP0410S        202209087298-1187-30             SHUNT RING ASSEMBLY      CCN000010000000010000FN00000000020221001000010000NNE   20220725121513U9  4N0N  00001000000000647000000769532U9    YNYNA-E 005400370024
BI00B32U9    TP0410S        202209087298-1186-40             SQUIB SUB ASS'Y          CCN000010000000010000FN00000000020221001000010000NNE   20220725121513U9  4N0N  00001000000000650000000774532U9    YNYNA-E 005400370024
BI00B32U9    TP0410S        202209087195-0547-08             TERMINAL MALE            CCN000051000000051000FN00000000020221001000051000NNE   20220725121513U9  4P0P  00002550000000418200000706432U9    YNYNA-E 006400630015
BI00A32U9    TP0410S        202208017195-0546-08             TERMINAL MALE            CCN000025500000025500FN00000000020221001000025500NNEM0020220725134353U9  4P0P  00002550000000405500000693732U9    YNYNA-E 006400630015
BI00B32U9    #TP0410S       202209087157-3790-90             WIRE SEAL                CCN000020000000020000FN00000000020221001000020000NNE   20220725121513U9  2C0C  00002000000000176000000232732U9    YNYNA-E 002700430014
BI00B32U9    TPA238         202208257114-6041                TERMINAL                 CCN000007200000007200FN00000000020221001000007200NNM   20220725121513U9  4P0P  00000360000000580700000824232U9    YNYNA-E 006400630015
BI00B32U9    TPA238         202208257288-6547                CONNECTOR MALE ASS'Y     CCN000002250000002250FN00000000020221001000002250NNM   20220725121513U9  4N0N  00000075000001205300001340332U9    YNYNA-E 005400370024
BI00B32U9    TPA238         202208257289-6547                HOUSING FEMALE ASS'Y     CCN000002400000002400FN00000000020221001000002400NNM   20220725121513U9  1N0N  00000240000001152000001362032U9    YNYNA-E 005500360039
BI00B32U9    TPA238         202208257116-1257-02             TERMINAL                 CCN000048000000048000FN00000000020221001000048000NNM   20220725121513U9  4P0P  00002400000000518400000847132U9    YNYNA-E 006400630017
BI00B32U9    TPA238         202208257116-2951-02             TERMINAL                 CCN000037800000037800FN00000000020221001000037800NNM   20220725121513U9  4P0P  00000540000000817600001111832U9    YNYNA-E 006400630015
BI00B32U9    TPA238         202208257116-4231-02             TERMINAL                 CCN000260000000260000FN00000000020221001000260000NNM   20220725121513U9  4P0P  00002600000000683800001012532U9    YNYNA-E 006400630017
BI00B32U9    TPA238         202208257158-3006-90             RUBBER STOPPER           CCN000060000000060000FN00000000020221001000060000NNM   20220725121513U9  1C0C  00002000000000330600000386032U9    YNYNA-E 002700430014
BI00B32U9    TPA238         202208257158-3165-90             WIRE SEAL                CCN000120000000120000FN00000000020221001000120000NNM   20220725121513U9  1C0C  00004000000000124000000172432U9    YNYNA-E 004300270014
BI00B32U9    TPA238         202208257158-3166-60             WIRE SEAL                CCN000120000000120000FN00000000020221001000120000NNM   20220725121513U9  1C0C  00004000000000104000000152432U9    YNYNA-E 002700430014
BI00B32U9    TPA238         202208257158-3168-80             SEALED                   CCN000080000000080000FN00000000020221001000080000NNM   20220725121513U9  1C0C  00002000000000044000000092132U9    YNYNA-E 004300260014
BI00B32U9    TPA238         202208257158-3169-40             SEALING PLUG             CCN000120000000120000FN00000000020221001000120000NNM   20220725121513U9  1C0C  00004000000000156000000204132U9    YNYNA-E 004300260014
BI00B32U9    TPA238         202208257172-5540-80             SEALED WIRE SEAL         CCN000060000000060000FN00000000020221001000060000NNM   20220725121513U9  1C0C  00002000000000186000000234432U9    YNYNA-E 004300270014
BI00B32U9    TPA238         202208257195-0547-08             TERMINAL MALE            CCN000025500000025500FN00000000020221001000025500NNM   20220725121513U9  4P0P  00002550000000418200000706432U9    YNYNA-E 006400630015
BI00B32U9    TPA238         202208257196-0805-02             TERMINAL FEMALE          CCN000022500000022500FN00000000020221001000022500NNM   20220725121513U9  4P0P  00002250000000558000000843232U9    YNYNA-E 006400630015
BI00B32U9    TPA238         202208257222-4220-30             CONNECTOR                CCN000004500000004500FN00000000020221001000004500NNM   20220725121513U9  4N0N  00000075000001219000001384032U9    YNYNA-E 005600390040
BI00B32U9    TPA238         202208257282-5574-10             CONNECTOR                CCN000024800000024800FN00000000020221001000024800NNM   20220725121513U9  4N0N  00000080000001235000001423032U9    YNYNA-E 005600390040
BI00B32U9    TPA238         202208257282-7301-40             CONNECTOR                CCN000003000000003000FN00000000020221001000003000NNM   20220725121513U9  4N0N  00000150000001125000001497932U9    YNYNA-E 005500360039
BI00B32U9    TPA238         202208257283-8599-30             CONNECTOR                CCN000004620000004620FN00000000020221001000004620NNM   20220725121513U9  4N0N  00000154000000947100001157032U9    YNYNA-E 005600390023
BI00B32U9    TPA238         202208257289-4212-80             SEALED HOUSING ASS'Y     CCN000002000000002000FN00000000020221001000002000NNM   20220725121513U9  4N0N  00000200000000848600000978632U9    YNYNA-E 005400370024
BI00B32U9    TPA238         202208257289-6868-30             SEALED ASSY FEMALE       CCN000022680000022680FN00000000020221001000022680NNM   20220725121513U9  4N0N  00000252000000839200001119232U9    YNYNA-E 005500360039
BI00B32U9    TPA238         202208257289-7615-30             HOUSING FEMALE ASS'Y     CCN000003200000003200FN00000000020221001000003200NNM   20220725121513U9  4N0N  00000032000000738000000948032U9    YNYNA-E 005400370024
BI00B32U9    TPA238         202208257298-1186-40             SQUIB SUB ASS'Y          CCN000020000000020000FN00000000020221001000020000NNM   20220725121513U9  4N0N  00001000000000650000000774532U9    YNYNA-E 005400370024
BI00B32U9    TPA238         202208257298-1186-70             SQUIB SUB ASS'Y          CCN000010000000010000FN00000000020221001000010000NNM   20220725121513U9  4N0N  00001000000000650000000774532U9    YNYNA-E 005400370024
BI00B32U9    TPA238         202208257298-1187-30             SHUNT RING ASSEMBLY      CCN000010000000010000FN00000000020221001000010000NNM   20220725121513U9  4N0N  00001000000000647000000769532U9    YNYNA-E 005400370024
BI00B32U9    TPA238         202208257298-1149-3W             SQUIB SUB ASS'Y          CCN000010000000010000FN00000000020221001000010000NNM   20220725121513U9  4N0N  00001000000000785000000922032U9    YNYNA-E 005400370024
BI00B32U9    TPA238         202208257B58-3070-80             RUBBER STOPPER           CCN000080000000080000FN00000000020221001000080000NNM   20220725121513U9  1C0C  00004000000000276000000333032U9    YNYNA-E 004300270014
BI00B32U9    #TPA238        202208257135-6177                GROMMET                  CCN000003000000003000FN00000000020221001000003000NNM   20220725121513U9  2H0H  00000020000001139600001249632U9    YNYNA-E 005600390040
BI00B32U9    #TPA238        202208257147-9094                RETAINER                 CCN000009000000009000FN00000000020221001000009000NNM   20220725121513U9  2F0F  00000300000000717000000872932U9    YNYNA-E 005500360039
BI00B32U9    #TPA238        202208257047-1611-30             CLIP                     CCN000004000000004000FN00000000020221001000004000NNM   20220725121513U9  2F0F  00000200000001600000001739032U9    YNYNA-E 005600390040
BI00B32U9    #TPA238        202208257157-3790-90             WIRE SEAL                CCN000020000000020000FN00000000020221001000020000NNM   20220725121513U9  2C0C  00002000000000176000000232732U9    YNYNA-E 002700430014
BI00B32U9    #TPA238        202208257158-3376-50             CONNECTOR WIRE SEAL      CCN000340000000340000FN00000000020221001000340000NNM   20220725121513U9  2C0C  00002000000000184000000240732U9    YNYNA-E 002700430014
BI00B32U9    #TPA238        202208257282-6446-40             CONNECTOR                CCN000013500000013500FN00000000020221001000013500NNM   20220725121513U9  2N0N  00000150000001185000001368032U9    YNYNA-E 005500360039
BI00B32U9    #TPA238        202208257282-6457-40             CONNECTOR                CCN000003200000003200FN00000000020221001000003200NNM   20220725121513U9  2N0N  00000080000001137000001421332U9    YNYNA-E 005600390040
BI00B32U9    #TPA238        202208257282-8395-40             CONNECTOR                CCN000011000000011000FN00000000020221001000011000NNM   20220725121513U9  2N0N  00000100000001009000001188032U9    YNYNA-E 005500360039
BI00B32U9    #TPA238        202208257283-8397-40             CONNECTOR                CCN000009240000009240FN00000000020221001000009240NNM   20220725121513U9  2N0N  00000154000001007000001222732U9    YNYNA-E 005600390023
BI00A32W4    #4500197263    202211047157-3821                RUBBER STOPPER           CCN000020000000020000FN00000000020221101000020000NNE   20220725121513W43 2C0C  00002000000000176000000238032W43   HJYHK   002700430014
BI00B32W4    4500197267     202209207158-3169-40             SEALING PLUG             CCN000200000000200000FN00000000020220901000200000NNE   20220725121513W41 1C0C  00004000000000156000000204132W41   HJYHK   004300260014
BI00B32W4    4500197267     202209207158-3166-60             WIRE SEAL                CCN000560000000560000FN00000000020220901000560000NNE   20220725121513W41 1C0C  00004000000000104000000152432W41   HJYHK   002700430014
BI00B32W4    #4500197267    202209207172-5938-80             SEALED                   CCN000065000000065000FN00000000020220901000065000NNE   20220725121513W41 2H0H  00000500000000442500000490732W41   HJYHK   004300270014
BI00B32W4    4500197268     202209227116-4120-02             TERMINAL                 CCN000006000000006000FN00000000020220901000006000NNE   20220725121513W48 4P0P  00000600000000780000001073632W48   HJYHK   006400630015
BI00B32W4    4500197268     202209227116-1230                TERMINAL                 CCN000013500000013500FN00000000020220901000013500NNE   20220725121513W48 4P0P  00001350000000664200000952432W48   HJYHK   006400630015
BI00B32W4    4500197268     202209227158-3006-90             RUBBER STOPPER           CCN000020000000020000FN00000000020220901000020000NNE   20220725121513W48 1C0C  00002000000000330600000386032W48   HJYHK   002700430014
BI00B32W4    4500197268     202209227116-4025                TERMINAL                 CCN000032000000032000FN00000000020220901000032000NNE   20220725121513W48 4P0P  00001600000000644800000975132W48   HJYHK   006400630017
BI00B32W4    4500197268     202209227116-4121-02             TERMINAL                 CCN000027000000027000FN00000000020220901000027000NNE   20220725121513W48 4P0P  00000450000000618800000912432W48   HJYHK   006400630015
BI00B32W4    #4500197268    202209227123-6423-30             CONNECTOR                CCN000004000000004000FN00000000020220901000004000NNE   20220725121513W48 2F0F  00000200000001002000001167632W48   HJYHK   005600390023
BI00B32W4    #4500197268    202209227158-3121-80             WIRE SEAL                CCN000040000000040000FN00000000020220901000040000NNE   20220725121513W48 2C0C  00002000000000118000000187332W48   HJYHK   002700430014
BI00B32W4    @4500197268    202209227123-4312-80             HOUSING                  CCN000001600000001600FN00000000020220901000001600NNE   20220725121513W48 3F0F  00000080000000644200000794032W48   HJYHK   005500360039
BI00B32W4    4500197269     202209157116-4121-02             TERMINAL                 CCN000004500000004500FN00000000020220901000004500NNE   20220725121513W48 4P0P  00000450000000618800000912432W48   HJYHK   006400630015
BI00B32W4    4500197269     202209157222-6244-40             CONNECTOR                CCN000003200000003200FN00000000020220901000003200NNE   20220725121513W48 4N0N  00000080000001239200001422032W48   HJYHK   005600390040
BI00B32W4    4500197269     202209157289-7615-30             HOUSING FEMALE ASS'Y     CCN000003520000003520FN00000000020220901000003520NNE   20220725121513W48 4N0N  00000032000000738000000948032W48   HJYHK   005400370024
BI00B32W4    4500197269     202209157116-4122-02             TERMINAL                 CCN000004500000004500FN00000000020220901000004500NNE   20220725121513W48 4P0P  00000450000000656600000950232W48   HJYHK   006400630015
BI00B32W4    4500197269     202209157172-1372-10             FRONT HOLDER             CCN000003900000003900FN00000000020220901000003900NNE   20220725121513W48 4F0F  00000390000000655200000955232W48   HJYHK   005500360039
BI00B32W4    #4500197269    202209157123-6423-30             CONNECTOR                CCN000002000000002000FN00000000020220901000002000NNE   20220725121513W48 2F0F  00000200000001002000001167632W48   HJYHK   005600390023
BI00B32W4    #4500197269    202209157157-3952-80             RUBBER STOPPER           CCN000010000000010000FN00000000020220901000010000NNE   20220725121513W48 2C0C  00001000000000117000000175032W48   HJYHK   002700430014
BI00B32W4    4500197270     202209087289-7615-30             HOUSING FEMALE ASS'Y     CCN000003520000003520FN00000000020220901000003520NNE   20220725121513W48 4N0N  00000032000000738000000948032W48   HJYHK   005400370024
BI00B32W4    4500197270     202209087116-4122-02             TERMINAL                 CCN000004500000004500FN00000000020220901000004500NNE   20220725121513W48 4P0P  00000450000000656600000950232W48   HJYHK   006400630015
BI00B32W4    #4500197271    202208257158-3003-90             RUBBER STOPPER           CCN000060000000060000FN00000000020220801000060000NNE   20220725121513W48 2C0C  00002000000000250000000306032W48   HJYHK   002700430014
BI00B32W4    #4500197272    202208187158-3003-90             RUBBER STOPPER           CCN000040000000040000FN00000000020220801000040000NNE   20220725121513W48 2C0C  00002000000000250000000306032W48   HJYHK   002700430014
BI00B32W4    4500197278     202208187288-5000                HOUSING MALE ASS'Y       CCN000001344000001344FN00000000020220801000001344NNE   20220725121513W4D41N0N  00000033600000825200001035232W4D4  HJYHK-J 005400370024
BI00B32W4    4500197278     202208187289-0269                HOUSING SUB ASSEMBLY     CCN000001600000001600FN00000000020220801000001600NNE   20220725121513W4D41N0N  00000160000001002100001234532W4D4  HJYHK-J 005500360039
BI00B32W4    4500197278     202208187282-8120-40             CONNECTOR HOUSING        CCN000009000000009000FN00000000020220801000009000NNE   20220725121513W4D41N0N  00000300000001356000001520032W4D4  HJYHK-J 005500360039
BI00B32W4    4500197278     202208187196-0805-02             TERMINAL FEMALE          CCN000045000000045000FN00000000020220801000045000NNE   20220725121513W4D44P0P  00002250000000558000000843232W4D4  HJYHK-J 006400630015
BI00B32W4    4500197278     202208187116-1685-02             TERMINAL                 CCN000192000000192000FN00000000020220801000192000NNE   20220725121513W4D44P0P  00002400000000897600001065232W4D4  HJYHK-J 005100280028
BI00B32W4    #4500197278    202208187174-1164                COVER                    CCN000001600000001600FN00000000020220801000001600NNE   20220725121513W4D42F0F  00000080000000592000000712032W4D4  HJYHK-J 005500360039
BI00B32W4    #4500197278    202208187158-3120-90             CONNECTOR WIRE SEAL      CCN000040000000040000FN00000000020220801000040000NNE   20220725121513W4D42C0C  00002000000000136000000194032W4D4  HJYHK-J 002700430014
BI00B32W4    4500197325     202209207283-8630                CONNECTOR ASS'Y          CCN000018000000018000FN00000000020220901000018000NNE   20220725121513W41 4N0N  00000600000000540000000701332W41   HJYHK   005400370024
BI00B32W4    4500197325     202209207114-1670-02             TERMINAL                 CCN000024000000024000FN00000000020220901000024000NNE   20220725121513W41 1P0P  00002400000000357600000645832W41   HJYHK   006400630015
BI00B32W4    4500197325     202209207158-3166-60             WIRE SEAL                CCN000120000000120000FN00000000020220901000120000NNE   20220725121513W41 1C0C  00004000000000104000000152432W41   HJYHK   002700430014
BI00B32W4    4500197325     202209207116-4102-02             TERMINAL                 CCN000024000000024000FN00000000020220901000024000NNE   20220725121513W41 4P0P  00001200000000553200000841432W41   HJYHK   006400630015
BI00B32W4    4500197325     202209207283-5545-10             CONNECTOR                CCN000002400000002400FN00000000020220901000002400NNE   20220725121513W41 4N0N  00000060000001279000001409232W41   HJYHK   005600390040
BI00B32W4    4500197341     202209207116-1180                TERMINAL                 CCN000097500000097500FN00000000020220901000097500NNE   20220725121513W41 1P0P  00001950000000618200000903432W41   HJYHK   006400630015
BI00B32W4    4500197341     202209207017-1180-02             TERMINAL                 CCN000144000000144000FN00000000020220901000144000NNE   20220725121513W41 4P0P  00007200000001065600001229032W41   HJYHK   005100280028
BI00B32W4    4500197341     202209207017-1183-02             TERMINAL                 CCN000027000000027000FN00000000020220901000027000NNE   20220725121513W41 4P0P  00002700000001139400001307432W41   HJYHK   005100280028
BI00B32W4    4500197352     202209087298-2278-30             HOUSING FEMALE ASS'Y     CCN000014400000014400FN00000000020220901000014400NNE   20220725121513W4284N0N  00000240000001091700001295432W428  HJYHK   005500360039
BI00B32W4    4500197352     202209087298-1865-30             HOUSING FEMALE ASS'Y     CCN000012000000012000FN00000000020220901000012000NNE   20220725121513W4284N0N  00000240000001003200001204532W428  HJYHK   005500360039
BI00B32W4    4500197368     202209087289-4696-30             HOUSING FEMALE ASS'Y     CCN000012000000012000FN00000000020220901000012000NNE   20220725121513W4284N0N  00000200000000913400001055432W428  HJYHK   005400370024
BI00A32W4    4500197374     202211037283-5574-10             CONNECTOR                CCN000000800000000800FN00000000020221101000000800NNE   20220725121513W4804N0N  00000080000001235000001435232W480  HJYHK-J 005500360039
BI00A32W4    #4500197377    202210277282-3243-40             CONNECTOR                CCN000001600000001600FN00000000020221001000001600NNE   20220725121513W4802N0N  00000080000001006000001282332W480  HJYHK-J 005600390040
BI00A32W4    4500197395     202208117116-4120-02             TERMINAL                 CCN000006000000006000FN00000000020220801000006000NNE   20220725121513W4804P0P  00000600000000780000001073632W480  HJYHK-J 006400630015
BI00A32W4    4500197395     202208117116-4121-02             TERMINAL                 CCN000027000000027000FN00000000020220801000027000NNE   20220725121513W4804P0P  00000450000000618800000912432W480  HJYHK-J 006400630015
BI00A32W4    4500197395     202208117116-4122-02             TERMINAL                 CCN000031500000031500FN00000000020220801000031500NNE   20220725121513W4804P0P  00000450000000656600000950232W480  HJYHK-J 006400630015
BI00A32W4    #4500197395    202208117047-5344                RETAINER                 CCN000010000000010000FN00000000020220801000010000NNE   20220725121513W4802F0F  00001000000000870000001016032W480  HJYHK-J 005600390023
BI00A32W9    4500197262     202209157158-3167-80             WIRE SEAL                CCN000040000000040000FN00000000020220901000040000NNE   20220725121513W9151C0C  00002000000000048000000109032W915  HJYHK   002700430014
BI00B32W9    #4500197388    202208307283-8398-40             CONNECTOR                CCN000003080000003080FN00000000020220801000003080NNE   20220725121513W9  2N0N  00000154000001007000001171332W9    HKYHK   005600390023
BI00B32X5    TIB2032        202208087C89-6868-30             SEALED ASSY FEMALE       CCN000007560000007560FN00000000020220901000007560NNM00020220725131932X5  4N0N  00000252000000839200001119232X5    EPYNA-E 005500360039
BI00B32X5    #TAP77D09A     202208057198-4980-30             HOUSING FEMALE           CCN000001200000001200FN00000000020220801000001200NNED0720220725121513X5  2F0F  00000120000000840000000921032X5    EPYNA-E 005400370024
BI00B32X5    TIB2041        202209167288-6547                CONNECTOR MALE ASS'Y     CCN000009000000009000FN00000000020221101000009000NNM   20220725131134X5  4N0N  00000075000001205300001340332X5    EPYNA-E 005400370024
BI00B32X5    TIB2041        202209167289-6547                HOUSING FEMALE ASS'Y     CCN000009600000009600FN00000000020221101000009600NNM   20220725131134X5  1N0N  00000240000001152000001362032X5    EPYNA-E 005500360039
BI00B32X5    TIB2041        202209167114-4486-02             TERMINAL                 CCN000048000000048000FN00000000020221101000048000NNM   20220725131134X5  4P0P  00002400000000662400000956032X5    EPYNA-E 006400630015
BI00B32X5    TIB2041        202209167116-4486-02             TERMINAL                 CCN000028000000028000FN00000000020221101000028000NNM   20220725131134X5  4P0P  00002800000000666400000995132X5    EPYNA-E 006400630017
BI00B32X5    TIB2041        202209167158-3167-80             WIRE SEAL                CCN000020000000020000FN00000000020221101000020000NNM   20220725131134X5  1C0C  00002000000000048000000109032X5    EPYNA-E 002700430014
BI00B32X5    TIB2041        202209167196-0396-02             TERMINAL                 CCN000015000000015000FN00000000020221101000015000NNM   20220725131134X5  4P0P  00001500000000949500001112932X5    EPYNA-E 002800510028
BI00B32X5    TIB2041        202209167283-4855-40             CONNECTOR HOUSING        CCN000007200000007200FN00000000020221101000007200NNM   20220725131134X5  4N0N  00000240000001188400001400032X5    EPYNA-E 005600360039
BI00B32X5    TIB2041        202209167288-6598-70             HOUSING MALE ASS'Y       CCN000002880000002880FN00000000020221101000002880NNM   20220725131134X5  4N0N  00000144000001074200001429232X5    EPYNA-E 005500360039
BI00B32X5    TIB2041        202209167295-0785-02             TERMINAL ALUMINIUM       CCN000051000000051000FN00000000020221101000051000NNM   20220725131134X5  4P0P  00002550000000510000000803632X5    EPYNA-E 006400630015
BI00B32X5    TIB2041        202209167296-0784-02             TERMINAL ALUMINIUM       CCN000096000000096000FN00000000020221101000096000NNM   20220725131134X5  4P0P  00002400000000480000000765232X5    EPYNA-E 006400630015
BI00B32X5    TIB2041        202209167327-6872-30             MULTI FUSE               CCN000003168000003168FN00000000020221101000003168NNM   20220725131134X5  4N0N  00000028800000984500001150432X5    EPYNA-E 005400370024
BI00B32X5    TIB2041        202209167C89-6868-30             SEALED ASSY FEMALE       CCN000005040000005040FN00000000020221101000005040NNM   20220725131134X5  4N0N  00000252000000839200001119232X5    EPYNA-E 005500360039
BI00B32X5    #TIB2041       202209167287-7859                HYBRID FEMALE ASS'Y      CCN000014400000014400FN00000000020221101000014400NNM   20220725131130X5  2N0N  00000120000000461600000671632X5    EPYNA-E 005500360039
BI00B32X5    #TIB2041       202209167158-3015-10             RUBBER STOPPER           CCN000020000000020000FN00000000020221101000020000NNM   20220725131130X5  2C0C  00001000000000419500000474032X5    EPYNA-E 002700430014
BI00B32X5    #TIB2041       202209167158-3610-80             RUBBER STOPPER           CCN000003000000003000FN00000000020221101000003000NNM   20220725131130X5  2H0H  00000300000000396900000438932X5    EPYNA-E 004300270014
BI00B32X5    #TIB2041       202209167183-8251-40             HOUSING                  CCN000014400000014400FN00000000020221101000014400NNM   20220725131130X5  2F0F  00000240000000357600000640032X5    EPYNA-E 005500360039
BI00B32X5    #TIB2041       202209167183-8253-40             HOUSING                  CCN000004800000004800FN00000000020221101000004800NNM   20220725131130X5  2F0F  00000240000000528000000805032X5    EPYNA-E 005500360039
BI00B32X5    #TIB2041       202209167189-3034-30             HOUSING FEMALE           CCN000008000000008000FN00000000020221101000008000NNM   20220725131130X5  2F0F  00000160000000972800001192832X5    EPYNA-E 005500360039
BI00B32X5    #TIB2041       202209167198-1373-60             HOUSING FEMALE           CCN000002000000002000FN00000000020221101000002000NNM   20220725131130X5  2F0F  00000200000000819400000947432X5    EPYNA-E 005400370024
BI00B32X5    #TIB2041       202209167198-4979-30             HOUSING FEMALE           CCN000004000000004000FN00000000020221101000004000NNM   20220725131130X5  2F0F  00000400000000707200000876032X5    EPYNA-E 005400370024
BI00B32X5    #TIB2041       202209167298-2459-60             LIF FEMALE ASSEMBLY      CCN000008400000008400FN00000000020221101000008400NNM   20220725131130X5  2N0N  00000016800000534000000729632X5    EPYNA-E 005400370024
BI00B32X5    @TIB2041       202209167286-4098                CONNECTOR MALE ASS'Y     CCN000011200000011200FN00000000020221101000011200NNM   20220725131132X5  3N0N  00000160000000949100001163032X5    EPYNA-E 005500360039