BI00A1200    #7242T52905    202209237189-3031-30             HOUSING FEMALE           CCN000002400000002400FN00000000020221001000002400NNE   20220825122421    2F0F  0000024000000092880000136581200    YCYC    005500360039
BI00B1200    O022J50508     202210207298-1187-30             SHUNT RING ASSEMBLY      CCN000040000000040000FN00000000020221101000040000NNE   20220825122421    4N0N  0000100000000064700000076951200    YCYC    005400370024
BI00B1200    O022L50006     202211037116-4112-02             TERMINAL                 CCN000036000000036000FN00000000020221101000036000NNE   20220825122421    4P0P  0000060000000045000000073821200    YCYC    006400630015
BI00B1200    2399T52909     202210067116-4100-02             TERMINAL                 CCN000240000000240000FN00000000020221101000240000NNM   20220825122421    4P0P  0000150000000069600000099021200    YCYC    006400630015
BI00B1200    2399T52910     202210067116-4100-02             TERMINAL                 CCN000240000000240000FN00000000020221101000240000NNM   20220825122421    4P0P  0000150000000069600000099021200    YCYC    006400630015
BI00B1200    2399T52911     202210207116-4100-02             TERMINAL                 CCN000225000000225000FN00000000020221101000225000NNM   20220825122421    4P0P  0000150000000069600000099021200    YCYC    006400630015
BI00B1200    2399T52909     202210067116-4111-02             TERMINAL                 CCN000007500000007500FN00000000020221101000007500NNM   20220825122421    4P0P  0000075000000052950000081771200    YCYC    006400630015
BI00B1200    2399T52910     202210067116-4111-02             TERMINAL                 CCN000007500000007500FN00000000020221101000007500NNM   20220825122421    4P0P  0000075000000052950000081771200    YCYC    006400630015
BI00B1200    2399T52911     202210207116-4111-02             TERMINAL                 CCN000007500000007500FN00000000020221101000007500NNM   20220825122421    4P0P  0000075000000052950000081771200    YCYC    006400630015
BI00B1200    2399T52909     202210067158-3022-80             RUBBER STOPPER           CCN000070000000070000FN00000000020221101000070000NNM   20220825122421    1C0C  0000050000000046750000052401200    YCYC    002700430014
BI00B1200    2399T52910     202210067158-3022-80             RUBBER STOPPER           CCN000065000000065000FN00000000020221101000065000NNM   20220825122421    1C0C  0000050000000046750000052401200    YCYC    002700430014
BI00B1200    2399T52911     202210207158-3022-80             RUBBER STOPPER           CCN000065000000065000FN00000000020221101000065000NNM   20220825122421    1C0C  0000050000000046750000052401200    YCYC    002700430014
BI00B1200    2399T52909     202210067172-5540-80             SEALED WIRE SEAL         CCN000460000000460000FN00000000020221101000460000NNM   20220825122421    1C0C  0000200000000018600000023441200    YCYC    004300270014
BI00B1200    2399T52910     202210067172-5540-80             SEALED WIRE SEAL         CCN000460000000460000FN00000000020221101000460000NNM   20220825122421    1C0C  0000200000000018600000023441200    YCYC    004300270014
BI00B1200    2399T52911     202210207172-5540-80             SEALED WIRE SEAL         CCN000460000000460000FN00000000020221101000460000NNM   20220825122421    1C0C  0000200000000018600000023441200    YCYC    004300270014
BI00B1200    2399T52909     202210067173-3291-40             LIF LEVER                CCN000012000000012000FN00000000020221101000012000NNM   20220825122421    1F0F  0000024000000086780000106781200    YCYC    005500360039
BI00B1200    2399T52910     202210067173-3291-40             LIF LEVER                CCN000009600000009600FN00000000020221101000009600NNM   20220825122421    1F0F  0000024000000086780000106781200    YCYC    005500360039
BI00B1200    2399T52911     202210207173-3291-40             LIF LEVER                CCN000009600000009600FN00000000020221101000009600NNM   20220825122421    1F0F  0000024000000086780000106781200    YCYC    005500360039
BI00B1200    #2399T52909    202210067124-1026-30             PROTECTOR                CCN000003000000003000FN00000000020221101000003000NNM   20220825122421    2F0F  0000030000000082800000098601200    YCYC    005500360039
BI00B1200    #2399T52910    202210067124-1026-30             PROTECTOR                CCN000003000000003000FN00000000020221101000003000NNM   20220825122421    2F0F  0000030000000082800000098601200    YCYC    005500360039
BI00B1200    #2399T52911    202210207124-1026-30             PROTECTOR                CCN000003000000003000FN00000000020221101000003000NNM   20220825122421    2F0F  0000030000000082800000098601200    YCYC    005500360039
BI00B1200    #2399T52909    202210067154-5328-30             RELAY BLOCK              CCN000001000000001000FN00000000020221101000001000NNM   20220825122421    2F0F  0000010000000121200000136191200    YCYC    005600390040
BI00B1200    #2399T52909    202210067154-8273                RELAY BLOCK              CCN000001000000001000FN00000000020221101000001000NNM   20220825122421    2F0F  0000010000000052300000067251200    YCYC    005500360039
BI00B1200    #2399T52909    202210067173-3225-10             LIF LEVER                CCN000021600000021600FN00000000020221101000021600NNM   20220825122421    2F0F  0000008000000059200000071201200    YCYC    005500360039
BI00B1200    #2399T52910    202210067173-3225-10             LIF LEVER                CCN000021600000021600FN00000000020221101000021600NNM   20220825122421    2F0F  0000008000000059200000071201200    YCYC    005500360039
BI00B1200    #2399T52911    202210207173-3225-10             LIF LEVER                CCN000020800000020800FN00000000020221101000020800NNM   20220825122421    2F0F  0000008000000059200000071201200    YCYC    005500360039
BI00B1200    #2399T52909    202210067174-1270-30             SEALED COVER             CCN000001600000001600FN00000000020221101000001600NNM   20220825122421    2F0F  0000008000000056070000067911200    YCYC    005500360039
BI00B1200    #2399T52910    202210067174-1270-30             SEALED COVER             CCN000000800000000800FN00000000020221101000000800NNM   20220825122421    2F0F  0000008000000056070000067911200    YCYC    005500360039
BI00B1200    #2399T52911    202210207174-1270-30             SEALED COVER             CCN000000800000000800FN00000000020221101000000800NNM   20220825122421    2F0F  0000008000000056070000067911200    YCYC    005500360039
BI00B1200    #2399T52909    202210067174-1271-30             SEALED COVER             CCN000000640000000640FN00000000020221101000000640NNM   20220825122421    2F0F  0000003200000038370000050211200    YCYC    005500360039
BI00B1200    #2399T52910    202210067174-1271-30             SEALED COVER             CCN000000640000000640FN00000000020221101000000640NNM   20220825122421    2F0F  0000003200000038370000050211200    YCYC    005500360039
BI00B1200    #2399T52911    202210207174-1271-30             SEALED COVER             CCN000000640000000640FN00000000020221101000000640NNM   20220825122421    2F0F  0000003200000038370000050211200    YCYC    005500360039
BI00B1200    #2399T52909    202210067174-1314-30             SEALED COVER             CCN000013600000013600FN00000000020221101000013600NNM   20220825122421    2F0F  0000008000000076930000088931200    YCYC    005500360039
BI00B1200    #2399T52910    202210067174-1314-30             SEALED COVER             CCN000012800000012800FN00000000020221101000012800NNM   20220825122421    2F0F  0000008000000076930000088931200    YCYC    005500360039
BI00B1200    #2399T52911    202210207174-1314-30             SEALED COVER             CCN000012800000012800FN00000000020221101000012800NNM   20220825122421    2F0F  0000008000000076930000088931200    YCYC    005500360039
BI00B1200    #2399T52909    202210067174-1315-30             SEALED COVER             CCN000006400000006400FN00000000020221101000006400NNM   20220825122421    2F0F  0000008000000078200000090201200    YCYC    005500360039
BI00B1200    #2399T52910    202210067174-1315-30             SEALED COVER             CCN000006400000006400FN00000000020221101000006400NNM   20220825122421    2F0F  0000008000000078200000090201200    YCYC    005500360039
BI00B1200    #2399T52911    202210207174-1315-30             SEALED COVER             CCN000005600000005600FN00000000020221101000005600NNM   20220825122421    2F0F  0000008000000078200000090201200    YCYC    005500360039
BI00B1200    2399T52912     202210277116-4100-02             TERMINAL                 CCN000225000000225000FN00000000020221101000225000NNM   20220825122421    4P0P  0000150000000069600000099021200    YCYC    006400630015
BI00B1200    2399T52912     202210277116-4111-02             TERMINAL                 CCN000007500000007500FN00000000020221101000007500NNM   20220825122421    4P0P  0000075000000052950000081771200    YCYC    006400630015
BI00B1200    2399T52912     202210277158-3022-80             RUBBER STOPPER           CCN000065000000065000FN00000000020221101000065000NNM   20220825122421    1C0C  0000050000000046750000052401200    YCYC    002700430014
BI00B1200    2399T52912     202210277172-5540-80             SEALED WIRE SEAL         CCN000440000000440000FN00000000020221101000440000NNM   20220825122421    1C0C  0000200000000018600000023441200    YCYC    004300270014
BI00B1200    2399T52912     202210277173-3291-40             LIF LEVER                CCN000009600000009600FN00000000020221101000009600NNM   20220825122421    1F0F  0000024000000086780000106781200    YCYC    005500360039
BI00B1200    #2399T52912    202210277173-3225-10             LIF LEVER                CCN000020800000020800FN00000000020221101000020800NNM   20220825122421    2F0F  0000008000000059200000071201200    YCYC    005500360039
BI00B1200    #2399T52912    202210277174-1270-30             SEALED COVER             CCN000000800000000800FN00000000020221101000000800NNM   20220825122421    2F0F  0000008000000056070000067911200    YCYC    005500360039
BI00B1200    #2399T52912    202210277174-1271-30             SEALED COVER             CCN000000320000000320FN00000000020221101000000320NNM   20220825122421    2F0F  0000003200000038370000050211200    YCYC    005500360039
BI00B1200    #2399T52912    202210277174-1314-30             SEALED COVER             CCN000012800000012800FN00000000020221101000012800NNM   20220825122421    2F0F  0000008000000076930000088931200    YCYC    005500360039
BI00B1200    #2399T52912    202210277174-1315-30             SEALED COVER             CCN000005600000005600FN00000000020221101000005600NNM   20220825122421    2F0F  0000008000000078200000090201200    YCYC    005500360039
BI00B1200    2399T52913     202210067195-0546-02             TERMINAL ALUMINIUM       CCN000025500000025500FN00000000020221101000025500NNM   20220825122421    4P0P  0000255000000040920000074491200    YCYC    006400630015
BI00B1200    2399T52914     202210067195-0546-02             TERMINAL ALUMINIUM       CCN000025500000025500FN00000000020221101000025500NNM   20220825122421    4P0P  0000255000000040920000074491200    YCYC    006400630015
BI00B1200    2399T52915     202210207195-0546-02             TERMINAL ALUMINIUM       CCN000025500000025500FN00000000020221101000025500NNM   20220825122421    4P0P  0000255000000040920000074491200    YCYC    006400630015
BI00B1200    2399T52913     202210067195-0783-08             TERMINAL                 CCN000060000000060000FN00000000020221101000060000NNM   20220825122421    4P0P  0000300000000050700000080121200    YCYC    006400630015
BI00B1200    2399T52914     202210067195-0783-08             TERMINAL                 CCN000060000000060000FN00000000020221101000060000NNM   20220825122421    4P0P  0000300000000050700000080121200    YCYC    006400630015
BI00B1200    2399T52915     202210207195-0783-08             TERMINAL                 CCN000060000000060000FN00000000020221101000060000NNM   20220825122421    4P0P  0000300000000050700000080121200    YCYC    006400630015
BI00B1200    2399T52913     202210067196-0549-02             TERMINAL ALUMINIUM       CCN000076000000076000FN00000000020221101000076000NNM   20220825122421    4P0P  0000380000000059280000097921200    YCYC    006400630017
BI00B1200    2399T52914     202210067196-0549-02             TERMINAL ALUMINIUM       CCN000076000000076000FN00000000020221101000076000NNM   20220825122421    4P0P  0000380000000059280000097921200    YCYC    006400630017
BI00B1200    2399T52915     202210207196-0549-02             TERMINAL ALUMINIUM       CCN000076000000076000FN00000000020221101000076000NNM   20220825122421    4P0P  0000380000000059280000097921200    YCYC    006400630017
BI00B1200    2399T52913     202210067196-0550-02             TERMINAL ALUMINIUM       CCN000096000000096000FN00000000020221101000096000NNM   20220825122421    4P0P  0000320000000051520000090161200    YCYC    006400630017
BI00B1200    2399T52914     202210067196-0550-02             TERMINAL ALUMINIUM       CCN000096000000096000FN00000000020221101000096000NNM   20220825122421    4P0P  0000320000000051520000090161200    YCYC    006400630017
BI00B1200    2399T52915     202210207196-0550-02             TERMINAL ALUMINIUM       CCN000064000000064000FN00000000020221101000064000NNM   20220825122421    4P0P  0000320000000051520000090161200    YCYC    006400630017
BI00B1200    2399T52913     202210067196-0648-02             TERMINAL                 CCN000270000000270000FN00000000020221101000270000NNM   20220825122421    4P0P  0000150000000035550000068971200    YCYC    006400630015
BI00B1200    2399T52914     202210067196-0648-02             TERMINAL                 CCN000270000000270000FN00000000020221101000270000NNM   20220825122421    4P0P  0000150000000035550000068971200    YCYC    006400630015
BI00B1200    2399T52915     202210207196-0648-02             TERMINAL                 CCN000270000000270000FN00000000020221101000270000NNM   20220825122421    4P0P  0000150000000035550000068971200    YCYC    006400630015
BI00B1200    2399T52913     202210067196-0805-02             TERMINAL FEMALE          CCN000562500000562500FN00000000020221101000562500NNM   20220825122421    4P0P  0000225000000055800000084321200    YCYC    006400630015
BI00B1200    2399T52914     202210067196-0805-02             TERMINAL FEMALE          CCN000562500000562500FN00000000020221101000562500NNM   20220825122421    4P0P  0000225000000055800000084321200    YCYC    006400630015
BI00B1200    2399T52915     202210207196-0805-02             TERMINAL FEMALE          CCN000562500000562500FN00000000020221101000562500NNM   20220825122421    4P0P  0000225000000055800000084321200    YCYC    006400630015
BI00B1200    #2399T52913    202210067174-1515                FRONT DOOR COVER         CCN000009600000009600FN00000000020221101000009600NNM   20220825122421    2F0F  0000006000000049020000061021200    YCYC    005500360039
BI00B1200    #2399T52914    202210067174-1515                FRONT DOOR COVER         CCN000009600000009600FN00000000020221101000009600NNM   20220825122421    2F0F  0000006000000049020000061021200    YCYC    005500360039
BI00B1200    #2399T52915    202210207174-1515                FRONT DOOR COVER         CCN000009600000009600FN00000000020221101000009600NNM   20220825122421    2F0F  0000006000000049020000061021200    YCYC    005500360039
BI00B1200    #2399T52913    202210067174-1760-50             CAP                      CCN000042000000042000FN00000000020221101000042000NNM   20220825122421    2F0F  0000030000000081360000092261200    YCYC    005400370024
BI00B1200    #2399T52914    202210067174-1760-50             CAP                      CCN000042000000042000FN00000000020221101000042000NNM   20220825122421    2F0F  0000030000000081360000092261200    YCYC    005400370024
BI00B1200    #2399T52915    202210207174-1760-50             CAP                      CCN000042000000042000FN00000000020221101000042000NNM   20220825122421    2F0F  0000030000000081360000092261200    YCYC    005400370024
BI00B1200    #2399T52913    202210067189-3033                HOUSING FEMALE           CCN000016000000016000FN00000000020221101000016000NNM   20220825122421    2F0F  0000016000000121120000143121200    YCYC    005500360039
BI00B1200    #2399T52914    202210067189-3033                HOUSING FEMALE           CCN000016000000016000FN00000000020221101000016000NNM   20220825122421    2F0F  0000016000000121120000143121200    YCYC    005500360039
BI00B1200    #2399T52915    202210207189-3033                HOUSING FEMALE           CCN000014400000014400FN00000000020221101000014400NNM   20220825122421    2F0F  0000016000000121120000143121200    YCYC    005500360039
BI00B1200    #2399T52913    202210067189-3034-30             HOUSING FEMALE           CCN000017600000017600FN00000000020221101000017600NNM   20220825122421    2F0F  0000016000000097280000119281200    YCYC    005500360039
BI00B1200    #2399T52914    202210067189-3034-30             HOUSING FEMALE           CCN000017600000017600FN00000000020221101000017600NNM   20220825122421    2F0F  0000016000000097280000119281200    YCYC    005500360039
BI00B1200    #2399T52915    202210207189-3034-30             HOUSING FEMALE           CCN000017600000017600FN00000000020221101000017600NNM   20220825122421    2F0F  0000016000000097280000119281200    YCYC    005500360039
BI00B1200    #2399T52913    202210067189-3036                HOUSING FEMALE           CCN000004800000004800FN00000000020221101000004800NNM   20220825122421    2F0F  0000016000000092160000114161200    YCYC    005500360039
BI00B1200    #2399T52914    202210067189-3036                HOUSING FEMALE           CCN000004800000004800FN00000000020221101000004800NNM   20220825122421    2F0F  0000016000000092160000114161200    YCYC    005500360039
BI00B1200    #2399T52915    202210207189-3036                HOUSING FEMALE           CCN000003200000003200FN00000000020221101000003200NNM   20220825122421    2F0F  0000016000000092160000114161200    YCYC    005500360039
BI00B1200    #2399T52913    202210067189-3036-30             HOUSING FEMALE           CCN000001600000001600FN00000000020221101000001600NNM   20220825122421    2F0F  0000016000000092000000114001200    YCYC    005500360039
BI00B1200    #2399T52914    202210067189-3036-30             HOUSING FEMALE           CCN000001600000001600FN00000000020221101000001600NNM   20220825122421    2F0F  0000016000000092000000114001200    YCYC    005500360039
BI00B1200    #2399T52915    202210207189-3036-30             HOUSING FEMALE           CCN000001600000001600FN00000000020221101000001600NNM   20220825122421    2F0F  0000016000000092000000114001200    YCYC    005500360039
BI00B1200    #2399T52913    202210067198-1373-60             HOUSING FEMALE           CCN000020000000020000FN00000000020221101000020000NNM   20220825122421    2F0F  0000020000000081940000094741200    YCYC    005400370024
BI00B1200    #2399T52914    202210067198-1373-60             HOUSING FEMALE           CCN000020000000020000FN00000000020221101000020000NNM   20220825122421    2F0F  0000020000000081940000094741200    YCYC    005400370024
BI00B1200    #2399T52915    202210207198-1373-60             HOUSING FEMALE           CCN000020000000020000FN00000000020221101000020000NNM   20220825122421    2F0F  0000020000000081940000094741200    YCYC    005400370024
BI00B1200    2399T52916     202210277195-0546-02             TERMINAL ALUMINIUM       CCN000025500000025500FN00000000020221101000025500NNM   20220825122421    4P0P  0000255000000040920000074491200    YCYC    006400630015
BI00B1200    2399T52916     202210277195-0783-08             TERMINAL                 CCN000030000000030000FN00000000020221101000030000NNM   20220825122421    4P0P  0000300000000050700000080121200    YCYC    006400630015
BI00B1200    2399T52916     202210277196-0549-02             TERMINAL ALUMINIUM       CCN000038000000038000FN00000000020221101000038000NNM   20220825122421    4P0P  0000380000000059280000097921200    YCYC    006400630017
BI00B1200    2399T52916     202210277196-0550-02             TERMINAL ALUMINIUM       CCN000064000000064000FN00000000020221101000064000NNM   20220825122421    4P0P  0000320000000051520000090161200    YCYC    006400630017
BI00B1200    2399T52916     202210277196-0648-02             TERMINAL                 CCN000270000000270000FN00000000020221101000270000NNM   20220825122421    4P0P  0000150000000035550000068971200    YCYC    006400630015
BI00B1200    2399T52916     202210277196-0805-02             TERMINAL FEMALE          CCN000540000000540000FN00000000020221101000540000NNM   20220825122421    4P0P  0000225000000055800000084321200    YCYC    006400630015
BI00B1200    #2399T52916    202210277174-1515                FRONT DOOR COVER         CCN000009000000009000FN00000000020221101000009000NNM   20220825122421    2F0F  0000006000000049020000061021200    YCYC    005500360039
BI00B1200    #2399T52916    202210277174-1760-50             CAP                      CCN000039000000039000FN00000000020221101000039000NNM   20220825122421    2F0F  0000030000000081360000092261200    YCYC    005400370024
BI00B1200    #2399T52916    202210277189-3033                HOUSING FEMALE           CCN000014400000014400FN00000000020221101000014400NNM   20220825122421    2F0F  0000016000000121120000143121200    YCYC    005500360039
BI00B1200    #2399T52916    202210277189-3034-30             HOUSING FEMALE           CCN000017600000017600FN00000000020221101000017600NNM   20220825122421    2F0F  0000016000000097280000119281200    YCYC    005500360039
BI00B1200    #2399T52916    202210277189-3036                HOUSING FEMALE           CCN000003200000003200FN00000000020221101000003200NNM   20220825122421    2F0F  0000016000000092160000114161200    YCYC    005500360039
BI00B1200    #2399T52916    202210277189-3036-30             HOUSING FEMALE           CCN000001600000001600FN00000000020221101000001600NNM   20220825122421    2F0F  0000016000000092000000114001200    YCYC    005500360039
BI00B1200    #2399T52916    202210277198-1373-60             HOUSING FEMALE           CCN000020000000020000FN00000000020221101000020000NNM   20220825122421    2F0F  0000020000000081940000094741200    YCYC    005400370024
BI00B1200    2399T52917     202210067287-9323                UNSEALED HOUSING SUB     CCN000012000000012000FN00000000020221101000012000NNM   20220825122421    1N0N  0000024000000053760000069001200    YCYC    005600390023
BI00B1200    2399T52918     202210067287-9323                UNSEALED HOUSING SUB     CCN000012000000012000FN00000000020221101000012000NNM   20220825122421    1N0N  0000024000000053760000069001200    YCYC    005600390023
BI00B1200    2399T52919     202210207287-9323                UNSEALED HOUSING SUB     CCN000009600000009600FN00000000020221101000009600NNM   20220825122421    1N0N  0000024000000053760000069001200    YCYC    005600390023
BI00B1200    2399T52917     202210067287-9323-30             UNSEALED HOUSING SUB     CCN000002400000002400FN00000000020221101000002400NNM   20220825122421    1N0N  0000024000000053760000069001200    YCYC    005600390023
BI00B1200    2399T52917     202210067288-3334-30             HOUSING MALE             CCN000003000000003000FN00000000020221101000003000NNM   20220825122421    4N0N  0000015000000086700000101201200    YCYC    005400370024
BI00B1200    2399T52918     202210067288-3334-30             HOUSING MALE             CCN000003000000003000FN00000000020221101000003000NNM   20220825122421    4N0N  0000015000000086700000101201200    YCYC    005400370024
BI00B1200    2399T52919     202210207288-3334-30             HOUSING MALE             CCN000001500000001500FN00000000020221101000001500NNM   20220825122421    4N0N  0000015000000086700000101201200    YCYC    005400370024
BI00B1200    2399T52917     202210067288-3340-30             HOUSING MALE             CCN000001500000001500FN00000000020221101000001500NNM   20220825122421    4N0N  0000015000000086150000100641200    YCYC    005400370024
BI00B1200    2399T52918     202210067288-3340-30             HOUSING MALE             CCN000001500000001500FN00000000020221101000001500NNM   20220825122421    4N0N  0000015000000086150000100641200    YCYC    005400370024
BI00B1200    2399T52919     202210207288-3340-30             HOUSING MALE             CCN000001500000001500FN00000000020221101000001500NNM   20220825122421    4N0N  0000015000000086150000100641200    YCYC    005400370024
BI00B1200    2399T52917     202210067289-3342                HOUSING FEMALE ASS'Y     CCN000004800000004800FN00000000020221101000004800NNM   20220825122421    1N0N  0000024000000068640000090141200    YCYC    005500360039
BI00B1200    2399T52918     202210067289-3342                HOUSING FEMALE ASS'Y     CCN000004800000004800FN00000000020221101000004800NNM   20220825122421    1N0N  0000024000000068640000090141200    YCYC    005500360039
BI00B1200    2399T52919     202210207289-3342                HOUSING FEMALE ASS'Y     CCN000004800000004800FN00000000020221101000004800NNM   20220825122421    1N0N  0000024000000068640000090141200    YCYC    005500360039
BI00B1200    2399T52917     202210067289-3342-30             HOUSING FEMALE ASS'Y     CCN000004800000004800FN00000000020221101000004800NNM   20220825122421    1N0N  0000024000000068640000090141200    YCYC    005500360039
BI00B1200    2399T52918     202210067289-3342-30             HOUSING FEMALE ASS'Y     CCN000004800000004800FN00000000020221101000004800NNM   20220825122421    1N0N  0000024000000068640000090141200    YCYC    005500360039
BI00B1200    2399T52919     202210207289-3342-30             HOUSING FEMALE ASS'Y     CCN000002400000002400FN00000000020221101000002400NNM   20220825122421    1N0N  0000024000000068640000090141200    YCYC    005500360039
BI00B1200    2399T52917     202210067289-4212-80             SEALED HOUSING ASS'Y     CCN000018000000018000FN00000000020221101000018000NNM   20220825122421    4N0N  0000020000000084860000097861200    YCYC    005400370024
BI00B1200    2399T52918     202210067289-4212-80             SEALED HOUSING ASS'Y     CCN000018000000018000FN00000000020221101000018000NNM   20220825122421    4N0N  0000020000000084860000097861200    YCYC    005400370024
BI00B1200    2399T52919     202210207289-4212-80             SEALED HOUSING ASS'Y     CCN000016000000016000FN00000000020221101000016000NNM   20220825122421    4N0N  0000020000000084860000097861200    YCYC    005400370024
BI00B1200    2399T52917     202210067289-5979-30             HOUSING FEMALE ASS'Y     CCN000032760000032760FN00000000020221101000032760NNM   20220825122421    1N0N  0000002520000085470000106471200    YCYC    005400370024
BI00B1200    2399T52918     202210067289-5979-30             HOUSING FEMALE ASS'Y     CCN000032760000032760FN00000000020221101000032760NNM   20220825122421    1N0N  0000002520000085470000106471200    YCYC    005400370024
BI00B1200    2399T52919     202210207289-5979-30             HOUSING FEMALE ASS'Y     CCN000032760000032760FN00000000020221101000032760NNM   20220825122421    1N0N  0000002520000085470000106471200    YCYC    005400370024
BI00B1200    2399T52917     202210067289-6159-30             HOUSING FEMALE ASS'Y     CCN000001440000001440FN00000000020221101000001440NNM   20220825122421    4N0N  0000002400000109500000137501200    YCYC    005500360039
BI00B1200    2399T52918     202210067289-6159-30             HOUSING FEMALE ASS'Y     CCN000001200000001200FN00000000020221101000001200NNM   20220825122421    4N0N  0000002400000109500000137501200    YCYC    005500360039
BI00B1200    2399T52919     202210207289-6159-30             HOUSING FEMALE ASS'Y     CCN000001200000001200FN00000000020221101000001200NNM   20220825122421    4N0N  0000002400000109500000137501200    YCYC    005500360039
BI00B1200    2399T52917     202210067289-6518-30             HOUSING FEMALE ASS'Y     CCN000002400000002400FN00000000020221101000002400NNM   20220825122421    1N0N  0000012000000082920000104921200    YCYC    005500360039
BI00B1200    2399T52918     202210067289-6518-30             HOUSING FEMALE ASS'Y     CCN000001200000001200FN00000000020221101000001200NNM   20220825122421    1N0N  0000012000000082920000104921200    YCYC    005500360039
BI00B1200    2399T52919     202210207289-6518-30             HOUSING FEMALE ASS'Y     CCN000001200000001200FN00000000020221101000001200NNM   20220825122421    1N0N  0000012000000082920000104921200    YCYC    005500360039
BI00B1200    2399T52917     202210067289-6523-30             HOUSING FEMALE ASS'Y     CCN000005280000005280FN00000000020221101000005280NNM   20220825122421    4N0N  0000002400000129050000162051200    YCYC    005500360039
BI00B1200    2399T52918     202210067289-6523-30             HOUSING FEMALE ASS'Y     CCN000005280000005280FN00000000020221101000005280NNM   20220825122421    4N0N  0000002400000129050000162051200    YCYC    005500360039
BI00B1200    2399T52919     202210207289-6523-30             HOUSING FEMALE ASS'Y     CCN000005280000005280FN00000000020221101000005280NNM   20220825122421    4N0N  0000002400000129050000162051200    YCYC    005500360039
BI00B1200    2399T52917     202210067289-6524-30             HOUSING FEMALE ASS'Y     CCN000001920000001920FN00000000020221101000001920NNM   20220825122421    4N0N  0000002400000135120000166621200    YCYC    005500360039
BI00B1200    2399T52918     202210067289-6524-30             HOUSING FEMALE ASS'Y     CCN000001920000001920FN00000000020221101000001920NNM   20220825122421    4N0N  0000002400000135120000166621200    YCYC    005500360039
BI00B1200    2399T52919     202210207289-6524-30             HOUSING FEMALE ASS'Y     CCN000001920000001920FN00000000020221101000001920NNM   20220825122421    4N0N  0000002400000135120000166621200    YCYC    005500360039
BI00B1200    2399T52917     202210067289-6547                HOUSING FEMALE ASS'Y     CCN000218400000218400FN00000000020221101000218400NNM   20220825122421    1N0N  0000024000000115200000136201200    YCYC    005500360039
BI00B1200    2399T52918     202210067289-6547                HOUSING FEMALE ASS'Y     CCN000218400000218400FN00000000020221101000218400NNM   20220825122421    1N0N  0000024000000115200000136201200    YCYC    005500360039
BI00B1200    2399T52919     202210207289-6547                HOUSING FEMALE ASS'Y     CCN000216000000216000FN00000000020221101000216000NNM   20220825122421    1N0N  0000024000000115200000136201200    YCYC    005500360039
BI00B1200    2399T52917     202210067289-6597-70             HOUSING FEMALE ASS'Y     CCN000043200000043200FN00000000020221101000043200NNM   20220825122421    4N0N  0000021600000128950000153951200    YCYC    005500360039
BI00B1200    2399T52918     202210067289-6597-70             HOUSING FEMALE ASS'Y     CCN000043200000043200FN00000000020221101000043200NNM   20220825122421    4N0N  0000021600000128950000153951200    YCYC    005500360039
BI00B1200    2399T52919     202210207289-6597-70             HOUSING FEMALE ASS'Y     CCN000043200000043200FN00000000020221101000043200NNM   20220825122421    4N0N  0000021600000128950000153951200    YCYC    005500360039
BI00B1200    2399T52917     202210067289-6868-30             SEALED ASSY FEMALE       CCN000194040000194040FN00000000020221101000194040NNM   20220825122421    4N0N  0000025200000083920000111921200    YCYC    005500360039
BI00B1200    2399T52918     202210067289-6868-30             SEALED ASSY FEMALE       CCN000194040000194040FN00000000020221101000194040NNM   20220825122421    4N0N  0000025200000083920000111921200    YCYC    005500360039
BI00B1200    2399T52919     202210207289-6868-30             SEALED ASSY FEMALE       CCN000194040000194040FN00000000020221101000194040NNM   20220825122421    4N0N  0000025200000083920000111921200    YCYC    005500360039
BI00B1200    2399T52917     202210067289-7212-30             HOUSING FEMALE ASS'Y     CCN000004320000004320FN00000000020221101000004320NNM   20220825122421    4N0N  0000002400000138840000159341200    YCYC    005500360039
BI00B1200    2399T52918     202210067289-7212-30             HOUSING FEMALE ASS'Y     CCN000004320000004320FN00000000020221101000004320NNM   20220825122421    4N0N  0000002400000138840000159341200    YCYC    005500360039
BI00B1200    2399T52919     202210207289-7212-30             HOUSING FEMALE ASS'Y     CCN000004320000004320FN00000000020221101000004320NNM   20220825122421    4N0N  0000002400000138840000159341200    YCYC    005500360039
BI00B1200    2399T52917     202210067289-9553-50             SEALED ASSY FEMALE       CCN000038220000038220FN00000000020221101000038220NNM   20220825122421    4N0N  0000029400000110810000152061200    YCYC    005500360039
BI00B1200    2399T52918     202210067289-9553-50             SEALED ASSY FEMALE       CCN000038220000038220FN00000000020221101000038220NNM   20220825122421    4N0N  0000029400000110810000152061200    YCYC    005500360039
BI00B1200    2399T52919     202210207289-9553-50             SEALED ASSY FEMALE       CCN000038220000038220FN00000000020221101000038220NNM   20220825122421    4N0N  0000029400000110810000152061200    YCYC    005500360039
BI00B1200    2399T52917     202210067289-9612-30             HOUSING FEMALE ASS'Y     CCN000001680000001680FN00000000020221101000001680NNM   20220825122421    4N0N  0000002400000134880000166881200    YCYC    005500360039
BI00B1200    2399T52918     202210067289-9612-30             HOUSING FEMALE ASS'Y     CCN000001680000001680FN00000000020221101000001680NNM   20220825122421    4N0N  0000002400000134880000166881200    YCYC    005500360039
BI00B1200    2399T52919     202210207289-9612-30             HOUSING FEMALE ASS'Y     CCN000001440000001440FN00000000020221101000001440NNM   20220825122421    4N0N  0000002400000134880000166881200    YCYC    005500360039
BI00B1200    2399T52917     202210067289-9613-30             HOUSING FEMALE ASS'Y     CCN000003840000003840FN00000000020221101000003840NNM   20220825122421    4N0N  0000002400000126990000154371200    YCYC    005500360039
BI00B1200    2399T52918     202210067289-9613-30             HOUSING FEMALE ASS'Y     CCN000003840000003840FN00000000020221101000003840NNM   20220825122421    4N0N  0000002400000126990000154371200    YCYC    005500360039
BI00B1200    2399T52919     202210207289-9613-30             HOUSING FEMALE ASS'Y     CCN000003840000003840FN00000000020221101000003840NNM   20220825122421    4N0N  0000002400000126990000154371200    YCYC    005500360039
BI00B1200    #2399T52917    202210067282-6458-40             CONNECTOR                CCN000001000000001000FN00000000020221101000001000NNM   20220825122421    2N0N  0000010000000120600000135051200    YCYC    005500360039
BI00B1200    #2399T52917    202210067289-2912-40             HOUSING FEMALE ASS'Y     CCN000022000000022000FN00000000020221101000022000NNM   20220825122421    2N0N  0000020000000080400000093101200    YCYC    005400370024
BI00B1200    #2399T52918    202210067289-2912-40             HOUSING FEMALE ASS'Y     CCN000022000000022000FN00000000020221101000022000NNM   20220825122421    2N0N  0000020000000080400000093101200    YCYC    005400370024
BI00B1200    #2399T52919    202210207289-2912-40             HOUSING FEMALE ASS'Y     CCN000022000000022000FN00000000020221101000022000NNM   20220825122421    2N0N  0000020000000080400000093101200    YCYC    005400370024
BI00B1200    #2399T52917    202210067289-2913-30             HOUSING FEMALE ASS'Y     CCN000003000000003000FN00000000020221101000003000NNM   20220825122421    2N0N  0000015000000090750000103451200    YCYC    005400370024
BI00B1200    #2399T52918    202210067289-2913-30             HOUSING FEMALE ASS'Y     CCN000003000000003000FN00000000020221101000003000NNM   20220825122421    2N0N  0000015000000090750000103451200    YCYC    005400370024
BI00B1200    #2399T52919    202210207289-2913-30             HOUSING FEMALE ASS'Y     CCN000003000000003000FN00000000020221101000003000NNM   20220825122421    2N0N  0000015000000090750000103451200    YCYC    005400370024
BI00B1200    #2399T52917    202210067289-3622-30             HOUSING FEMALE ASS'Y     CCN000004320000004320FN00000000020221101000004320NNM   20220825122421    2N0N  0000004320000083940000103841200    YCYC    005400370024
BI00B1200    #2399T52918    202210067289-3622-30             HOUSING FEMALE ASS'Y     CCN000004320000004320FN00000000020221101000004320NNM   20220825122421    2N0N  0000004320000083940000103841200    YCYC    005400370024
BI00B1200    #2399T52919    202210207289-3622-30             HOUSING FEMALE ASS'Y     CCN000003888000003888FN00000000020221101000003888NNM   20220825122421    2N0N  0000004320000083940000103841200    YCYC    005400370024
BI00B1200    #2399T52917    202210067289-4200-30             HOUSING FEMALE ASS'Y     CCN000046000000046000FN00000000020221101000046000NNM   20220825122421    2N0N  0000020000000092600000102101200    YCYC    005400370024
BI00B1200    #2399T52918    202210067289-4200-30             HOUSING FEMALE ASS'Y     CCN000046000000046000FN00000000020221101000046000NNM   20220825122421    2N0N  0000020000000092600000102101200    YCYC    005400370024
BI00B1200    #2399T52919    202210207289-4200-30             HOUSING FEMALE ASS'Y     CCN000046000000046000FN00000000020221101000046000NNM   20220825122421    2N0N  0000020000000092600000102101200    YCYC    005400370024
BI00B1200    2399T52920     202210277287-9323                UNSEALED HOUSING SUB     CCN000009600000009600FN00000000020221101000009600NNM   20220825122421    1N0N  0000024000000053760000069001200    YCYC    005600390023
BI00B1200    2399T52920     202210277288-3334-30             HOUSING MALE             CCN000001500000001500FN00000000020221101000001500NNM   20220825122421    4N0N  0000015000000086700000101201200    YCYC    005400370024
BI00B1200    2399T52920     202210277289-3342                HOUSING FEMALE ASS'Y     CCN000002400000002400FN00000000020221101000002400NNM   20220825122421    1N0N  0000024000000068640000090141200    YCYC    005500360039
BI00B1200    2399T52920     202210277289-3342-30             HOUSING FEMALE ASS'Y     CCN000002400000002400FN00000000020221101000002400NNM   20220825122421    1N0N  0000024000000068640000090141200    YCYC    005500360039
BI00B1200    2399T52920     202210277289-4212-80             SEALED HOUSING ASS'Y     CCN000016000000016000FN00000000020221101000016000NNM   20220825122421    4N0N  0000020000000084860000097861200    YCYC    005400370024
BI00B1200    2399T52920     202210277289-5979-30             HOUSING FEMALE ASS'Y     CCN000032760000032760FN00000000020221101000032760NNM   20220825122421    1N0N  0000002520000085470000106471200    YCYC    005400370024
BI00B1200    2399T52920     202210277289-6159-30             HOUSING FEMALE ASS'Y     CCN000001200000001200FN00000000020221101000001200NNM   20220825122421    4N0N  0000002400000109500000137501200    YCYC    005500360039
BI00B1200    2399T52920     202210277289-6518-30             HOUSING FEMALE ASS'Y     CCN000001200000001200FN00000000020221101000001200NNM   20220825122421    1N0N  0000012000000082920000104921200    YCYC    005500360039
BI00B1200    2399T52920     202210277289-6523-30             HOUSING FEMALE ASS'Y     CCN000005280000005280FN00000000020221101000005280NNM   20220825122421    4N0N  0000002400000129050000162051200    YCYC    005500360039
BI00B1200    2399T52920     202210277289-6524-30             HOUSING FEMALE ASS'Y     CCN000001680000001680FN00000000020221101000001680NNM   20220825122421    4N0N  0000002400000135120000166621200    YCYC    005500360039
BI00B1200    2399T52920     202210277289-6547                HOUSING FEMALE ASS'Y     CCN000216000000216000FN00000000020221101000216000NNM   20220825122421    1N0N  0000024000000115200000136201200    YCYC    005500360039
BI00B1200    2399T52920     202210277289-6597-70             HOUSING FEMALE ASS'Y     CCN000041040000041040FN00000000020221101000041040NNM   20220825122421    4N0N  0000021600000128950000153951200    YCYC    005500360039
BI00B1200    2399T52920     202210277289-6868-30             SEALED ASSY FEMALE       CCN000194040000194040FN00000000020221101000194040NNM   20220825122421    4N0N  0000025200000083920000111921200    YCYC    005500360039
BI00B1200    2399T52920     202210277289-7212-30             HOUSING FEMALE ASS'Y     CCN000004080000004080FN00000000020221101000004080NNM   20220825122421    4N0N  0000002400000138840000159341200    YCYC    005500360039
BI00B1200    2399T52920     202210277289-9553-50             SEALED ASSY FEMALE       CCN000035280000035280FN00000000020221101000035280NNM   20220825122421    4N0N  0000029400000110810000152061200    YCYC    005500360039
BI00B1200    2399T52920     202210277289-9612-30             HOUSING FEMALE ASS'Y     CCN000001440000001440FN00000000020221101000001440NNM   20220825122421    4N0N  0000002400000134880000166881200    YCYC    005500360039
BI00B1200    #2399T52920    202210277289-2912-40             HOUSING FEMALE ASS'Y     CCN000022000000022000FN00000000020221101000022000NNM   20220825122421    2N0N  0000020000000080400000093101200    YCYC    005400370024
BI00B1200    #2399T52920    202210277289-2913-30             HOUSING FEMALE ASS'Y     CCN000003000000003000FN00000000020221101000003000NNM   20220825122421    2N0N  0000015000000090750000103451200    YCYC    005400370024
BI00B1200    #2399T52920    202210277289-3622-30             HOUSING FEMALE ASS'Y     CCN000003888000003888FN00000000020221101000003888NNM   20220825122421    2N0N  0000004320000083940000103841200    YCYC    005400370024
BI00B1200    #2399T52920    202210277289-4200-30             HOUSING FEMALE ASS'Y     CCN000046000000046000FN00000000020221101000046000NNM   20220825122421    2N0N  0000020000000092600000102101200    YCYC    005400370024
BI00B1200    2399T52921     202210067298-3822-70             HOUSING FEMALE ASS'Y     CCN000005040000005040FN00000000020221101000005040NNM   20220825122421    4N0N  0000025200000077620000107701200    YCYC    005500360039
BI00B1200    2399T52922     202210067298-3822-70             HOUSING FEMALE ASS'Y     CCN000002520000002520FN00000000020221101000002520NNM   20220825122421    4N0N  0000025200000077620000107701200    YCYC    005500360039
BI00B1200    2399T52923     202210207298-3822-70             HOUSING FEMALE ASS'Y     CCN000002520000002520FN00000000020221101000002520NNM   20220825122421    4N0N  0000025200000077620000107701200    YCYC    005500360039
BI00B1200    2399T52924     202210277298-3822-70             HOUSING FEMALE ASS'Y     CCN000002520000002520FN00000000020221101000002520NNM   20220825122421    4N0N  0000025200000077620000107701200    YCYC    005500360039
BI00B1200    2399T52921     202210067298-3990-30             HOUSING FEMALE ASS'Y     CCN000001200000001200FN00000000020221101000001200NNM   20220825122421    4NON  0000002400000120890000157391200    YCYC    005500360039
BI00B1200    2399T52922     202210067298-3990-30             HOUSING FEMALE ASS'Y     CCN000001200000001200FN00000000020221101000001200NNM   20220825122421    4NON  0000002400000120890000157391200    YCYC    005500360039
BI00B1200    2399T52923     202210207298-3990-30             HOUSING FEMALE ASS'Y     CCN000001200000001200FN00000000020221101000001200NNM   20220825122421    4NON  0000002400000120890000157391200    YCYC    005500360039
BI00B1200    2399T52924     202210277298-3990-30             HOUSING FEMALE ASS'Y     CCN000001200000001200FN00000000020221101000001200NNM   20220825122421    4NON  0000002400000120890000157391200    YCYC    005500360039
BI00B1200    2399T52924     202210277289-9613-30             HOUSING FEMALE ASS'Y     CCN000003840000003840FN00000000020221101000003840NNM   20220825122421    4N0N  0000002400000126990000154371200    YCYC    005500360039
BI00B32AF    #JTB2103       202210077287-1915                CONNECTOR ASS'Y          CCN000002400000002400FN00000000020221001000002400NNMD0020220825165337    2N0N  00000240000000666500000923132AF    HBYHVTB 005500360039
BI00B32AF    #JTB2104       202210217287-1915                CONNECTOR ASS'Y          CCN000002400000002400FN00000000020221001000002400NNMD0020220825165357    2N0N  00000240000000666500000923132AF    HBYHVTB 005500360039
BI00B32BG    YY22103GMW     202209087116-4110-02             TERMINAL                 CCN000036000000009000FN00000000020221001000009000NNMQ0020220825122421    4P0P  00000900000000594000000882232BG    YGYYA   006400630015
BI00B32BG    YY22103GMW     202209087116-4112-02             TERMINAL                 CCN000042000000006000FN00000000020221001000006000NNMQ0020220825122421    4P0P  00000600000000450000000738232BG    YGYYA   006400630015
BI00A32BG    YY22103GMW     202208267116-4120-02             TERMINAL                 CCN000012000000012000FN00000000020221001000012000NNMM0020220825122421    4P0P  00000600000000780000001073632BG    YGYYA   006400630015
BI00A32BG    YY22103GMW     202208267116-4110-02             TERMINAL                 CCN000027000000027000FN00000000020221001000027000NNMM0020220825122421    4P0P  00000900000000594000000882232BG    YGYYA   006400630015
BI00A32BG    YY22103GMW     202208267116-4112-02             TERMINAL                 CCN000036000000036000FN00000000020221001000036000NNMM0020220825122421    4P0P  00000600000000450000000738232BG    YGYYA   006400630015
BI00A32CG    S220636-S      202209057283-9457-3W             CONNECTOR                CCN000006120000006120FN00000000020220901000006120NNEM0020220825122421    4N0N  00000012000000515000001067032CG    ASASIACO005600390023
BI00A32CG    S220636-S      202208267283-9458-30             CONNECTOR                CCN000007000000007000FN00000000020220901000007000NNEM0020220825122421    4N0N  00000020000000792000000984332CG    ASASIACO005600390023
BI00A32CH    SJ2209B MW     202209087116-2640                TERMINAL                 CCN000018000000018000FN00000000020220901000018000NNEM0020220825144039    4P0P  00001800000001018800001196632CH    SJSAMIJF005100280028
BI00B32CH    SJ2209C MW     202209157283-7062-40             CONNECTOR HOUSING        CCN000000600000000600FN00000000020220901000000600NNE   20220825122421    1N0N  00000060000000500400000645432CH    SJSAMIJF005400370024
BI00B32DE    TCT210C        202209227116-4116-02             TERMINAL                 CCN000006900000006900FN00000000020221001000006900NNE   20220825122421    4P0P  00000690000000517500000805732DE    TVYEV-TV006400630015
BI00T32DE    @ICT209B       202209057183-3190                JOINT CONNECTOR          CCN000007200000007200FN00000000020220901000007200NNE   20220825135055    3F0F  00000360000000457600000667832DE    TVYEV-TV005500360039
BI00B32GE    DHTC2247       202209297017-1180-02             TERMINAL                 CCN000072000000072000FN00000000020221101000072000NNM   20220825122421    4P0P  00007200000001065600001229032GE    GEYKHT  005100280028
BI00B32GE    DHTC2247       202209297017-1181-02             TERMINAL                 CCN000063000000063000FN00000000020221101000063000NNM   20220825122421    4P0P  00006300000001089900001266832GE    GEYKHT  005100280028
BI00B32GE    DHTC2247       202209297114-4032                TERMINAL                 CCN000030000000030000FN00000000020221101000030000NNM   20220825122421    4P0P  00000750000000735000001063632GE    GEYKHT  006400630017
BI00B32GE    DHTC2247       202209297114-5748-02             TERMINAL                 CCN000156000000156000FN00000000020221101000156000NNM   20220825122421    4P0P  00001200000000444000000737632GE    GEYKHT  006400630015
BI00B32GE    DHTC2247       202209297114-5753-02             TERMINAL                 CCN000378000000378000FN00000000020221101000378000NNM   20220825122421    4P0P  00002700000000847800001141432GE    GEYKHT  006400630015
BI00B32GE    DHTC2247       202209297114-7842-02             TERMINAL MALE            CCN000012000000012000FN00000000020221101000012000NNM   20220825122421    4P0P  00001200000000460800000754432GE    GEYKHT  006400630015
BI00B32GE    DHTC2247       202209297116-1685-02             TERMINAL                 CCN000072000000072000FN00000000020221101000072000NNM   20220825122421    4P0P  00002400000000897600001065232GE    GEYKHT  005100280028
BI00B32GE    DHTC2247       202209297116-2891-02             TERMINAL                 CCN000135000000135000FN00000000020221101000135000NNM   20220825122421    4P0P  00001500000000982500001145932GE    GEYKHT  005100280028
BI00B32GE    DHTC2247       202209297116-4100-02             TERMINAL                 CCN000045000000045000FN00000000020221101000045000NNM   20220825122421    4P0P  00001500000000696000000990232GE    GEYKHT  006400630015
BI00B32GE    DHTC2247       202209297116-4101-02             TERMINAL                 CCN000012000000012000FN00000000020221101000012000NNM   20220825122421    4P0P  00001200000000582000000876232GE    GEYKHT  006400630015
BI00B32GE    DHTC2247       202209297116-4110-02             TERMINAL                 CCN000052500000054000FN00000000020221101000054000NNM   20220825122421    4P0P  00000900000000594000000882232GE    GEYKHT  006400630015
BI00B32GE    DHTC2247       202209297116-4112-02             TERMINAL                 CCN000060000000060000FN00000000020221101000060000NNM   20220825122421    4P0P  00000600000000450000000738232GE    GEYKHT  006400630015
BI00B32GE    DHTC2247       202209297116-4415-02             TERMINAL                 CCN000038000000038000FN00000000020221101000038000NNM   20220825122421    4P0P  00003800000000596600000925732GE    GEYKHT  006400630017
BI00B32GE    DHTC2247       202209297116-4486-02             TERMINAL                 CCN000252000000252000FN00000000020221101000252000NNM   20220825122421    4P0P  00002800000000666400000995132GE    GEYKHT  006400630017
BI00B32GE    DHTC2247       202209297116-5045-02             TERMINAL                 CCN000160000000160000FN00000000020221101000160000NNM   20220825122421    4P0P  00001600000000678400001007132GE    GEYKHT  006400630017
BI00B32GE    DHTC2247       202209297126-8853-02             TERMINAL                 CCN000210000000210000FN00000000020221101000210000NNM   20220825122421    4P0P  00000750000000562500000847732GE    GEYKHT  006400630015
BI00B32GE    DHTC2247       202209297126-8854-02             TERMINAL                 CCN000172500000172500FN00000000020221101000172500NNM   20220825122421    4P0P  00000750000000604500000889732GE    GEYKHT  006400630015
BI00B32GE    DHTC2247       202209297126-8855-02             TERMINAL                 CCN000222000000222000FN00000000020221101000222000NNM   20220825122421    4P0P  00000600000000510600000795832GE    GEYKHT  006400630015
BI00B32GE    DHTC2247       202209297158-3070-80             RUBBER STOPPER           CCN000080000000080000FN00000000020221101000080000NNM   20220825122421    1C0C  00004000000000276000000333332GE    GEYKHT  002700430014
BI00B32GE    DHTC2247       202209297158-3166-60             WIRE SEAL                CCN000120000000120000FN00000000020221101000120000NNM   20220825122421    1C0C  00004000000000104000000152432GE    GEYKHT  002700430014
BI00B32GE    DHTC2247       202209297158-3167-80             WIRE SEAL                CCN000060000000060000FN00000000020221101000060000NNM   20220825122421    1C0C  00002000000000048000000109032GE    GEYKHT  002700430014
BI00B32GE    DHTC2247       202209297173-3291-40             LIF LEVER                CCN000009600000009600FN00000000020221101000009600NNM   20220825122421    1F0F  00000240000000867800001067832GE    GEYKHT  005500360039
BI00B32GE    DHTC2247       202209297195-1479-02             TERMINAL MALE            CCN000024000000024000FN00000000020221101000024000NNM   20220825122421    4P0P  00002400000000420000000714232GE    GEYKHT  006400630015
BI00B32GE    DHTC2247       202209297196-0396-02             TERMINAL                 CCN000045000000045000FN00000000020221101000045000NNM   20220825122421    4P0P  00001500000000949500001112932GE    GEYKHT  002800510028
BI00B32GE    DHTC2247       202209297196-0510-02             TERMINAL                 CCN000048000000048000FN00000000020221101000048000NNM   20220825122421    4P0P  00002400000000871200001034632GE    GEYKHT  002800510028
BI00B32GE    DHTC2247       202209297196-0805-02             TERMINAL FEMALE          CCN000022500000022500FN00000000020221101000022500NNM   20220825122421    4P0P  00002250000000558000000843232GE    GEYKHT  006400630015
BI00B32GE    DHTC2247       202209297196-1325-02             TERMINAL FEMALE          CCN000360000000360000FN00000000020221101000360000NNM   20220825122421    4P0P  00006000000000450000000778732GE    GEYKHT  006400630017
BI00B32GE    DHTC2247       202209297196-1326-02             TERMINAL FEMALE          CCN000840000000840000FN00000000020221101000840000NNM   20220825122421    4P0P  00006000000000456000000784732GE    GEYKHT  006400630017
BI00B32GE    DHTC2247       202209297196-1327-02             TERMINAL FEMALE          CCN000052000000052000FN00000000020221101000052000NNM   20220825122421    4P0P  00005200000000336000000739532GE    GEYKHT  006400630017
BI00B32GE    DHTC2247       202209297196-1481-02             TERMINAL FEMALE          CCN000024000000024000FN00000000020221101000024000NNM   20220825122421    4P0P  00002400000000422400000707632GE    GEYKHT  006400630015
BI00B32GE    DHTC2247       202209297196-1482-02             TERMINAL FEMALE          CCN000024000000024000FN00000000020221101000024000NNM   20220825122421    4P0P  00002400000000424800000710032GE    GEYKHT  006400630015
BI00B32GE    DHTC2247       202209297282-4576                HOUSING MALE ASS'Y       CCN000012000000012000FN00000000020221101000012000NNM   20220825122421    4N0N  00000240000000808800001028832GE    GEYKHT  005500360039
BI00B32GE    DHTC2247       202209297283-1156                CONNECTOR                CCN000005600000005600FN00000000020221101000005600NNM   20220825122421    4N0N  00000080000000877600001078032GE    GEYKHT  005600390040
BI00B32GE    DHTC2247       202209297283-5830                CONNECTOR                CCN000006000000006000FN00000000020221101000006000NNM   20220825122421    1N47  00000600000000954000001104032GE    GEYKHT  005500360039
BI00B32GE    DHTC2247       202209297288-6547                CONNECTOR MALE ASS'Y     CCN000009750000009750FN00000000020221101000009750NNM   20220825122421    4N0N  00000075000001205300001340332GE    GEYKHT  005400370024
BI00B32GE    DHTC2247       202209297289-3342                HOUSING FEMALE ASS'Y     CCN000084000000084000FN00000000020221101000084000NNM   20220825122421    1N0N  00000240000000686400000901432GE    GEYKHT  005500360039
BI00B32GE    DHTC2247       202209297289-3342-30             HOUSING FEMALE ASS'Y     CCN000112800000112800FN00000000020221101000112800NNM   20220825122421    1N0N  00000240000000686400000901432GE    GEYKHT  005500360039
BI00B32GE    DHTC2247       202209297289-3342-40             HOUSING FEMALE ASS'Y     CCN000021600000021600FN00000000020221101000021600NNM   20220825122421    1N0N  00000240000000686400000901432GE    GEYKHT  005500360039
BI00B32GE    DHTC2247       202209297289-3342-90             HOUSING FEMALE ASS'Y     CCN000038400000038400FN00000000020221101000038400NNM   20220825122421    1N0N  00000240000000686400000901432GE    GEYKHT  005500360039
BI00B32GE    DHTC2247       202209297289-6518-30             HOUSING FEMALE ASS'Y     CCN000010800000010800FN00000000020221101000010800NNM   20220825122421    1N0N  00000120000000829200001049232GE    GEYKHT  005500360039
BI00B32GE    DHTC2247       202209297289-6547                HOUSING FEMALE ASS'Y     CCN000009600000009600FN00000000020221101000009600NNM   20220825122421    1N0N  00000240000001152000001362032GE    GEYKHT  005500360039
BI00B32GE    DHTC2247       202209297295-0785-02             TERMINAL ALUMINIUM       CCN000025500000025500FN00000000020221101000025500NNM   20220825122421    4P0P  00002550000000510000000803632GE    GEYKHT  006400630015
BI00B32GE    DHTC2247       202209297296-0784-02             TERMINAL ALUMINIUM       CCN000096000000096000FN00000000020221101000096000NNM   20220825122421    4P0P  00002400000000480000000765232GE    GEYKHT  006400630015
BI00B32GE    DHTC2247       202209297296-1020-02             TERMINAL ALUMINIUM       CCN000022500000022500FN00000000020221101000022500NNM   20220825122421    4P0P  00002250000000699800000985032GE    GEYKHT  006400630015
BI00B32GE    DHTC2247       202209297296-1024-02             TERMINAL ALUMINIUM       CCN000018000000018000FN00000000020221101000018000NNM   20220825122421    4P0P  00001800000000698400000983632GE    GEYKHT  006400630015
BI00B32GE    DHTC2247       202209297296-1025-02             TERMINAL ALUMINIUM       CCN000018000000018000FN00000000020221101000018000NNM   20220825122421    4P0P  00001800000000635400000920632GE    GEYKHT  006400630015
BI00B32GE    DHTC2247       202209297297-3482                JOINT CONNECTOR          CCN000036000000036000FN00000000020221101000036000NNM   20220825122421    4N0N  00000080000000621000000730532GE    GEYKHT  005400370024
BI00B32GE    DHTC2247       202209297298-3484                HOUSING FEMALE ASS'Y     CCN000021600000021600FN00000000020221101000021600NNM   20220825122421    4N0N  00000270000000742500001028732GE    GEYKHT  005400370024
BI00B32GE    DHTC2247       202209297298-3484-30             HOUSING FEMALE ASS'Y     CCN000012600000013500FN00000000020221101000013500NNM   20220825122421    4N0N  00000270000000742500001028732GE    GEYKHT  005400370024
BI00B32GE    DHTC2247       202209297327-6731-3W             BATTERY FUSE             CCN000002368000002368FN00000000020221101000002368NNM   20220825122421    4N0N  00000006400000697600000843032GE    GEYKHT  005400370024
BI00B32GE    DHTC2247       202209297327-6801-3W             BATTERY FUSE             CCN000003648000003648FN00000000020221101000003648NNM   20220825122421    4N0N  00000009600000928400001143432GE    GEYKHT  005500360039
BI00B32GE    DHTC2247       202209297327-6803                MULTI FUSE               CCN000001120000001120FN00000000020221101000001120NNM   20220825122421    4N0N  00000056000000854600001067032GE    GEYKHT  005400370024
BI00B32GE    DHTC2247       202209297327-6806                MULTI FUSE               CCN000003920000003920FN00000000020221101000003920NNM   20220825122421    4N0N  00000056000000851500001063932GE    GEYKHT  005400370024
BI00B32GE    DHTC2247       202209297327-6809                MULTI FUSE               CCN000004480000004480FN00000000020221101000004480NNM   20220825122421    4N0N  00000056000000849300001061732GE    GEYKHT  005400370024
BI00B32GE    DHTC2247       202209297327-6930                MULTI FUSE               CCN000002240000002240FN00000000020221101000002240NNM   20220825122421    4N0N  00000056000000848900001031932GE    GEYKHT  005400370024
BI00B32GE    DHTC2247       202209297327-6983-30             MAIN FUSE                CCN000000600000000600FN00000000020221101000000600NNM   20220825122421    4N0N  00000060000000748800000951532GE    GEYKHT  005400370024
BI00B32GE    DHTC2247       202209297327-6985-30             MULTI FUSE               CCN000000576000000576FN00000000020221101000000576NNM   20220825122421    4N0N  00000028800000886100001052032GE    GEYKHT  005400370024
BI00B32GE    DHTC2247       202209297327-6990-30             MULTI FUSE               CCN000000560000000560FN00000000020221101000000560NNM   20220825122421    4NON  00000056000000724000000907032GE    GEYKHT  005400370024
BI00B32GE    DHTC2247       202209297327-6998-30             MULTI FUSE               CCN000000576000000576FN00000000020221101000000576NNM   20220825122421    4N0N  00000028800000886000001051932GE    GEYKHT  005400370024
BI00B32GE    DHTC2247       202209297388-2978-30             HOUSING MALE ASS'Y       CCN000033600000033600FN00000000020221101000033600NNM   20220825122421    1N0N  00000048000000742000001122032GE    GEYKHT  005500360039
BI00B32GE    #DHTC2247      202209297047-5344                RETAINER                 CCN000010000000010000FN00000000020221101000010000NNM   20220825122421    2F0F  00001000000000870000001016032GE    GEYKHT  005600390023
BI00B32GE    #DHTC2247      202209297158-3003-90             RUBBER STOPPER           CCN000340000000340000FN00000000020221101000340000NNM   20220825122421    2C0C  00002000000000250000000306032GE    GEYKHT  002700430014
BI00B32GE    #DHTC2247      202209297158-3004-40             RUBBER STOPPER           CCN000020000000020000FN00000000020221101000020000NNM   20220825122421    2C0C  00002000000000234000000306332GE    GEYKHT  002700430014
BI00B32GE    #DHTC2247      202209297158-3005-80             RUBBER STOPPER           CCN000080000000080000FN00000000020221101000080000NNM   20220825122421    2H0H  00002000000000210000000268732GE    GEYKHT  002700430014
BI00B32GE    #DHTC2247      202209297158-3008-80             RUBBER STOPPER           CCN000140000000140000FN00000000020221101000140000NNM   20220825122421    2C0C  00002000000000288000000343032GE    GEYKHT  004300270014
BI00B32GE    #DHTC2247      202209297158-3015-10             RUBBER STOPPER           CCN000050000000050000FN00000000020221101000050000NNM   20220825122421    2C0C  00001000000000419500000474032GE    GEYKHT  002700430014
BI00B32GE    #DHTC2247      202209297158-3017                RUBBER STOPPER           CCN000050000000050000FN00000000020221101000050000NNM   20220825122421    2C0C  00001000000000375500000435032GE    GEYKHT  002700430014
BI00B32GE    #DHTC2247      202209297172-5629-80             RUBBER STOPPER           CCN000640000000640000FN00000000020221101000640000NNM   20220825122421    2H0H  00002000000000060000000111132GE    GEYKHT  004300270014
BI00B32GE    #DHTC2247      202209297172-5630-40             RUBBER STOPPER           CCN000280000000280000FN00000000020221101000280000NNM   20220825122421    2H0H  00002000000000044000000095132GE    GEYKHT  004300270014
BI00B32GE    #DHTC2247      202209297172-5631-60             RUBBER STOPPER           CCN000140000000140000FN00000000020221101000140000NNM   20220825122421    2H0H  00002000000000042000000093132GE    GEYKHT  004300270014
BI00B32GE    #DHTC2247      202209297172-5632-10             DUMMY PLUG               CCN000300000000300000FN00000000020221101000300000NNM   20220825122421    2H0H  00002000000000080400000131832GE    GEYKHT  004300270014
BI00B32GE    #DHTC2247      202209297183-2415-90             CONNECTOR HOUSING        CCN000004800000004800FN00000000020221101000004800NNM   20220825122421    2F0F  00000480000000798200001091432GE    GEYKHT  005500360039
BI00B32GE    #DHTC2247      202209297183-2418-30             CONNECTOR HOUSING        CCN000004800000004800FN00000000020221101000004800NNM   20220825122421    2F0F  00000480000000917000001235332GE    GEYKHT  005500360039
BI00B32GE    #DHTC2247      202209297183-2511                HOUSING                  CCN000001600000001600FN00000000020221101000001600NNM   20220825122421    2F0F  00000160000000972200001242132GE    GEYKHT  005500360039
BI00B32GE    #DHTC2247      202209297189-2978-30             HOUSING FEMALE           CCN000033000000033000FN00000000020221101000033000NNM   20220825122421    2F0F  00000150000000966900001096932GE    GEYKHT  005400370024
BI00B32GE    #DHTC2247      202209297189-3033                HOUSING FEMALE           CCN000016000000016000FN00000000020221101000016000NNM   20220825122421    2F0F  00000160000001211200001431232GE    GEYKHT  005500360039
BI00B32GE    #DHTC2247      202209297189-3036                HOUSING FEMALE           CCN000003200000003200FN00000000020221101000003200NNM   20220825122421    2F0F  00000160000000921600001141632GE    GEYKHT  005500360039
BI00B32GE    #DHTC2247      202209297189-3037-40             HOUSING FEMALE           CCN000004800000004800FN00000000020221101000004800NNM   20220825122421    2F0F  00000480000000901600001061632GE    GEYKHT  005500360039
BI00B32GE    #DHTC2247      202209297198-5394                HOUSING FEMALE           CCN000004800000004800FN00000000020221101000004800NNM   20220825122421    2F0F  00000480000000489700000688832GE    GEYKHT  005500360039
BI00B32GE    #DHTC2247      202209297282-1641                CONNECTOR                CCN000008000000008000FN00000000020221101000008000NNM   20220825122421    2N0N  00000200000000813000000986032GE    GEYKHT  005500360039
BI00B32GE    #DHTC2247      202209297282-7424                CONNECTOR                CCN000004000000004000FN00000000020221101000004000NNM   20220825122421    2N0N  00000400000001064000001243032GE    GEYKHT  005500360039
BI00B32GE    #DHTC2247      202209297283-8226-30             CONNECTOR                CCN000006000000006000FN00000000020221101000006000NNM   20220825122421    2N0N  00000200000000820000001008032GE    GEYKHT  005400370024
BI00B32GE    #DHTC2247      202209297289-2912-40             HOUSING FEMALE ASS'Y     CCN000006000000006000FN00000000020221101000006000NNM   20220825122421    2N0N  00000200000000804000000931032GE    GEYKHT  005400370024
BI00B32GE    #DHTC2247      202209297289-3622-30             HOUSING FEMALE ASS'Y     CCN000004752000004752FN00000000020221101000004752NNM   20220825122421    2N0N  00000043200000839400001038432GE    GEYKHT  005400370024
BI00B32GE    #DHTC2247      202209297289-4200-30             HOUSING FEMALE ASS'Y     CCN000004000000004000FN00000000020221101000004000NNM   20220825122421    2N0N  00000200000000926000001021032GE    GEYKHT  005400370024
BI00B32H8    TY2210A MW     202209097114-4032                TERMINAL                 CCN000015000000015000FN00000000020221001000015000NNE   20220825122421    4P0P  00000750000000735000001063632H8    TYTYC   006400630017
BI00B32H8    TY2210A MW     202209097114-4231-02             TERMINAL                 CCN000072000000072000FN00000000020221001000072000NNE   20220825122421    4P0P  00001800000000554400000848032H8    TYTYC   006400630015
BI00B32H8    TY2210A MW     202209097283-5830                CONNECTOR                CCN000006000000006000FN00000000020221001000006000NNE   20220825122421    1N47  00000600000000954000001104032H8    TYTYC   005500360039
BI00B32H8    #TY2210A MW    202209097183-0522                HOUSING                  CCN000002400000002400FN00000000020221001000002400NNE   20220825122421    2F0F  00000240000000951000001230032H8    TYTYC   005500360039
BI00B32H8    #TY2210A MW    202209097283-5833                CONNECTOR HOUSING        CCN000003640000003640FN00000000020221001000003640NNE   20220825122421    2N0N  00000364000001378000001686732H8    TYTYC   005500360039
BI00B32J1    #397082        202208297282-3243-40             CONNECTOR                CCN000080800000053600FN00000000020220801000053600NNMD0320220825152851    2N0N  00000080000001006000001282332J1    UKYEL-BL005600390040
BI00B32J1    #397082        202209057282-3243-40             CONNECTOR                CCN000027200000027200FN00000000020220801000027200NNMD0320220825152851    2N0N  00000080000001006000001282332J1    UKYEL-BL005600390040
BI00A32K8    #K1220011307   202211117137-2719-50             SEALED CONNECTOR         CCN000005000000005000FN00000000020221001000005000NNMD0420220825122421    2C0C  00000100000000120700000185732K8    ELELCOM 002700430014
BI00A32K8    #K1220011306   202210077137-2719-50             SEALED CONNECTOR         CCN000010000000010000FN00000000020220801000010000NNMD0420220825122421    2C0C  00000100000000120700000185732K8    ELELCOM 002700430014
BI00B32M4    TP2101         202209227327-6983-30             MAIN FUSE                CCN000004800000004800FN00000000020221001000004800NNMD0620220825143315    4N0N  00000060000000748800000951532M4    SISAI   005400370024
BI00B32M4    TP2102         202209297327-6983-30             MAIN FUSE                CCN000004800000004800FN00000000020221001000004800NNMD0620220825143336    4N0N  00000060000000748800000951532M4    SISAI   005400370024
BI00B32M4    TP2103         202210067327-6983-30             MAIN FUSE                CCN000004800000004800FN00000000020221001000004800NNMD0620220825143355    4N0N  00000060000000748800000951532M4    SISAI   005400370024
BI00B32M4    TP2104         202210067327-6983-30             MAIN FUSE                CCN000004800000004800FN00000000020221001000004800NNMD0620220825143502    4N0N  00000060000000748800000951532M4    SISAI   005400370024
BI00B32M4    TP2105         202210067327-6983-30             MAIN FUSE                CCN000003000000003000FN00000000020221001000003000NNMD0620220825143530    4N0N  00000060000000748800000951532M4    SISAI   005400370024
BI00A32P8    #TAPI-2101     202208267183-2415                CONNECTOR HOUSING        CCN000004800000004800FN00000000020221001000004800NNMM0020220825122421    2F0F  00000480000000798200001091432P8    YIYTM   005500360039
BI00B32Q8    EU22104 MW     202209217183-2417-40             CONNECTOR HOUSING        CCN000002400000000000FY00000000020221001000000000NNMQ0820220825160326    4F0F  00000240000001137800001298132Q8    EMEMI   005500360039
BI00B32Q8    EU22104TMW     202209217287-7599-40             HOUSING FEMALE ASS'Y     CCN000001600000000000FY00000000020221001000000000NNMQ0820220825160738    4N0N  00000160000001233600001445632Q8    EMEMI   005500360039
BI00B32Q8    EU22104TMW     202209217287-9234                JOINT CONNECTOR          CCN000009600000000000FY00000000020221001000000000NNMQ0820220825160755    4N0N  00000960000000893800001184832Q8    EMEMI   005500360039
BI00B32Q8    EU22102TMW     202209077288-3335-30             HOUSING MALE             CCN000004500000000000FY00000000020221001000000000NNMQ0820220825160519    4N0N  00000150000000867000001012032Q8    EMEMI   005400370024
BI00B32Q8    EU22103TMW     202209147288-3335-30             HOUSING MALE             CCN000004500000000000FY00000000020221001000000000NNMQ0820220825160627    4N0N  00000150000000867000001012032Q8    EMEMI   005400370024
BI00B32Q8    EU22104TMW     202209217288-3335-30             HOUSING MALE             CCN000006000000000000FY00000000020221001000000000NNMQ0820220825160813    4N0N  00000150000000867000001012032Q8    EMEMI   005400370024
BI00B32Q8    EU22102TMW     202209077288-3338-30             HOUSING MALE             CCN000001500000000000FY00000000020221001000000000NNMQ0820220825160536    4N0N  00000150000000866100001012032Q8    EMEMI   005400370024
BI00B32Q8    EU22103TMW     202209147288-3338-30             HOUSING MALE             CCN000001500000000000FY00000000020221001000000000NNMQ0820220825160700    4N0N  00000150000000866100001012032Q8    EMEMI   005400370024
BI00B32Q8    EU22104TMW     202209217288-3338-30             HOUSING MALE             CCN000004500000000000FY00000000020221001000000000NNMQ0820220825160829    4N0N  00000150000000866100001012032Q8    EMEMI   005400370024
BI00B32Q8    EU22102TMW     202209077288-3340-30             HOUSING MALE             CCN000007500000000000FY00000000020221001000000000NNMQ0820220825160557    4N0N  00000150000000861500001006432Q8    EMEMI   005400370024
BI00B32Q8    EU22103TMW     202209147288-3340-30             HOUSING MALE             CCN000007500000000000FY00000000020221001000000000NNMQ0820220825160718    4N0N  00000150000000861500001006432Q8    EMEMI   005400370024
BI00B32Q8    EU22104TMW     202209217288-3340-30             HOUSING MALE             CCN000010500000000000FY00000000020221001000000000NNMQ0820220825160845    4N0N  00000150000000861500001006432Q8    EMEMI   005400370024
BI00B32Q8    EU22102TMW     202209077327-6950-30             MULTI FUSE               CCN000001440000000000FY00000000020221001000000000NNMQ0820220825133749    4N00  00000028800000888700001054632Q8    EMEMI   005400370024
BI00B32Q8    EU22103TMW     202209147327-6950-30             MULTI FUSE               CCN000002592000000000FY00000000020221001000000000NNMQ0820220825133910    4N00  00000028800000888700001054632Q8    EMEMI   005400370024
BI00B32Q8    EU22104TMW     202209217327-6950-30             MULTI FUSE               CCN000003744000000000FY00000000020221001000000000NNMQ0820220825134018    4N00  00000028800000888700001054632Q8    EMEMI   005400370024
BI00B32Q8    EU22102TMW     202209077327-6952-30             MULTI FUSE               CCN000003360000000000FY00000000020221001000000000NNMQ0820220825133813    4N0N  00000056000000848500001031532Q8    EMEMI   005400370024
BI00B32Q8    EU22103TMW     202209147327-6952-30             MULTI FUSE               CCN000002240000000000FY00000000020221001000000000NNMQ0820220825133933    4N0N  00000056000000848500001031532Q8    EMEMI   005400370024
BI00B32Q8    EU22104TMW     202209217327-6952-30             MULTI FUSE               CCN000003920000000000FY00000000020221001000000000NNMQ0820220825134037    4N0N  00000056000000848500001031532Q8    EMEMI   005400370024
BI00B32Q8    EU22102TMW     202209077327-6954-30             MULTI FUSE               CCN000001800000000000FY00000000020221001000000000NNMQ0820220825133830    4N00  00000060000000751600000954332Q8    EMEMI   005400370024
BI00B32Q8    EU22103TMW     202209147327-6954-30             MULTI FUSE               CCN000003000000000000FY00000000020221001000000000NNMQ0820220825133951    4N00  00000060000000751600000954332Q8    EMEMI   005400370024
BI00B32Q8    EU22104TMW     202209217327-6954-30             MULTI FUSE               CCN000003600000000000FY00000000020221001000000000NNMQ0820220825134101    4N00  00000060000000751600000954332Q8    EMEMI   005400370024
BI00B32Q8    EU22113 MW     202209077114-4031                TERMINAL                 CCN000010500000010500FN00000000020221101000010500NNMD0020220825122421    4P0P  00001050000000966000001294632Q8    EMEMI   006400630017
BI00B32Q8    EU22113 MW     202210127283-5843                CONNECTOR                CCN000001500000000000FY00000000020221101000000000NNMQ0820220825133446    1N0N  00000150000000889000001132032Q8    EMEMI   005600390040
BI00B32Q8    EU22114DMW     202209287B74-1849-70             COVER                    CCN000025000000000000FY00000000020221101000000000NNMQ0820220825160411    1F0F  00002500000000622500000761932Q8    EMEMI   005400370024
BI00B32R4    HZYSW2210015   202210047116-1230                TERMINAL                 CCN000013500000013500FN00000000020221001000013500NNE   20220825135822    4P0P  00001350000000664200000952432R4    HZHZYME 006400630015
BI00B32R7    #R-TAP220365   202209087283-8730-30             HOUSING FEMALE ASS'Y     CCN000006000000006000FN00000000020220901000006000NNE   20220825122421    2N0N  00000200000000794000000906532R7    IVYCIC  005400370024
BI00B32U5    DI2039         202209237327-6983-30             MAIN FUSE                CCN000001200000001200FN00000000020221101000001200NNMD0020220825122421U5  4N0N  00000060000000748800000951532U5    AMAMSD  005400370024
BI00B32U5    DI2040         202209307327-6983-30             MAIN FUSE                CCN000001200000001200FN00000000020221101000001200NNMD0020220825122421U5  4N0N  00000060000000748800000951532U5    AMAMSD  005400370024
BI00A32U9    TP0014E        202209057114-4031                TERMINAL                 CCN000021000000021000FN00000000020220801000021000NNED0720220825122421U9  4P0P  00001050000000966000001294632U9    YNYNA-E 006400630017
BI00A32U9    #TP0014E       202209057047-1611-30             CLIP                     CCN000014000000014000FN00000000020220801000014000NNED0720220825122421U9  2F0F  00000200000001600000001739032U9    YNYNA-E 005600390040
BI00A32W4    4500196698     202208297116-4112-02             TERMINAL                 CCN000012000000012000FN00000000020220901000012000NNED0020220825152046W4M54P0P  00000600000000450000000738232W4M5  HJYHK-J 006400630015
BI00A32W4    4500197067     202208297116-4112-02             TERMINAL                 CCN000042000000042000FN00000000020220901000042000NNED0020220825152112W4M54P0P  00000600000000450000000738232W4M5  HJYHK-J 006400630015
BI00B32W4    4500199173     202210277114-4112-02             TERMINAL                 CCN000081000000081000FN00000000020221001000081000NNE   20220825133012W4664P0P  00000900000000598500000927132W466  HJYHK   006400630017
BI00B32W4    4500199173     202210277116-4110-02             TERMINAL                 CCN000018000000018000FN00000000020221001000018000NNE   20220825133012W4664P0P  00000900000000594000000882232W466  HJYHK   006400630015
BI00B32W4    #4500199173    202210277282-4190-30             CONNECTOR                CCN000003360000003360FN00000000020221001000003360NNE   20220825133014W4662N0N  00000024000000801000001071332W466  HJYHK   005600390040
BI00B32W4    #4500199173    202210277283-4190-30             CONNECTOR                CCN000002640000002640FN00000000020221001000002640NNE   20220825133014W4662N0N  00000024000000846000001115532W466  HJYHK   005600390040
BI00A32W4    4500199175     202210247283-7028-30             CONNECTOR                CCN000003000000003000FN00000000020221001000003000NNE   20220825133042W4M54N0N  00000300000001452000001681332W4M5  HJYHK-J 005600390040
BI00A32W4    4500199175     202210247158-3166-60             WIRE SEAL                CCN000080000000080000FN00000000020221001000080000NNE   20220825133042W4M51C0C  00004000000000104000000152432W4M5  HJYHK-J 002700430014
BI00A32W4    4500199175     202210247283-1030                CONNECTOR                CCN000006000000006000FN00000000020221001000006000NNE   20220825133042W4M54N0N  00000600000000988000001172032W4M5  HJYHK-J 005500360039
BI00A32W4    4500199176     202210317116-4112-02             TERMINAL                 CCN000012000000012000FN00000000020221001000012000NNE   20220825133104W4M54P0P  00000600000000450000000738232W4M5  HJYHK-J 006400630015
BI00A32W4    #4500199176    202210317186-8845                HOUSING MALE             CCN000015000000015000FN00000000020221001000015000NNE   20220825133106W4M52F0F  00000300000000690000000801532W4M5  HJYHK-J 005400370024
BI00B32W4    4500199193     202210207116-4121-02             TERMINAL                 CCN000004500000004500FN00000000020221001000004500NNE   20220825133126W4374P0P  00000450000000618800000912432W437  HJYHK   006400630015
BI00B32W4    4500199195     202210277283-5623-60             CONNECTOR                CCN000001600000001600FN00000000020221001000001600NNE   20220825133150W4461N0N  00000160000001546000001846332W446  HJYHK   005600390040
BI00B32W4    4500199195     202210277116-4100-02             TERMINAL                 CCN000060000000060000FN00000000020221001000060000NNE   20220825133150W4464P0P  00001500000000696000000990232W446  HJYHK   006400630015
BI00B32W4    4500199195     202210277116-4112-02             TERMINAL                 CCN000042000000042000FN00000000020221001000042000NNE   20220825133150W4464P0P  00000600000000450000000738232W446  HJYHK   006400630015
BI00B32W4    4500199195     202210277116-4102-02             TERMINAL                 CCN000096000000096000FN00000000020221001000096000NNE   20220825133150W4464P0P  00001200000000553200000841432W446  HJYHK   006400630015
BI00B32W4    4500199195     202210277114-4100-02             TERMINAL                 CCN000018000000018000FN00000000020221001000018000NNE   20220825133150W4464P0P  00001800000000748800001077432W446  HJYHK   006400630017
BI00B32W4    4500199195     202210277158-3168-80             SEALED                   CCN000020000000020000FN00000000020221001000020000NNE   20220825133150W4461C0C  00002000000000044000000092132W446  HJYHK   004300260014
BI00B32W4    4500199195     202210277283-6448-40             CONNECTOR                CCN000001500000001500FN00000000020221001000001500NNE   20220825133150W4464N0N  00000150000001087000001329032W446  HJYHK   005600390040
BI00B32W4    4500199195     202210277114-4111-02             TERMINAL                 CCN000012000000012000FN00000000020221001000012000NNE   20220825133150W4464P0P  00001200000000758400001087032W446  HJYHK   006400630017
BI00B32W4    4500199195     202210277158-3166-60             WIRE SEAL                CCN000040000000040000FN00000000020221001000040000NNE   20220825133150W4461C0C  00004000000000104000000152432W446  HJYHK   002700430014
BI00B32W4    4500199195     202210277158-3167-80             WIRE SEAL                CCN000040000000040000FN00000000020221001000040000NNE   20220825133150W4461C0C  00002000000000048000000109032W446  HJYHK   002700430014
BI00B32W4    4500199195     202210277283-5548-30             CONNECTOR                CCN000001500000001500FN00000000020221001000001500NNE   20220825133150W4464N0N  00000150000001109000001302032W446  HJYHK   005600390040
BI00B32W4    4500199195     202210277116-4101-02             TERMINAL                 CCN000024000000024000FN00000000020221001000024000NNE   20220825133150W4464P0P  00001200000000582000000876232W446  HJYHK   006400630015
BI00B32W4    4500199195     202210277114-4101-02             TERMINAL                 CCN000015000000015000FN00000000020221001000015000NNE   20220825133150W4464P0P  00001500000000675000001003632W446  HJYHK   006400630017
BI00B32W4    4500199195     202210277116-4104-02             TERMINAL                 CCN000012000000012000FN00000000020221001000012000NNE   20220825133150W4464P0P  00001200000000580800000972432W446  HJYHK   006400630015
BI00B32W4    4500199195     202210277114-4110-02             TERMINAL                 CCN000015000000015000FN00000000020221001000015000NNE   20220825133150W4464P0P  00001500000000901500001230132W446  HJYHK   006400630017
BI00B32W4    4500199195     202210277116-4110-02             TERMINAL                 CCN000009000000009000FN00000000020221001000009000NNE   20220825133150W4464P0P  00000900000000594000000882232W446  HJYHK   006400630015
BI00B32W4    #4500199195    202210277282-3243-40             CONNECTOR                CCN000002400000002400FN00000000020221001000002400NNE   20220825133151W4462N0N  00000080000001006000001282332W446  HJYHK   005600390040
BI00B32W4    4500199202     202211037114-1475                TERMINAL                 CCN000013500000013500FN00000000020221101000013500NNE   20220825133245W4464P0P  00001350000000480600000774232W446  HJYHK   006400630015
BI00B32W4    4500199213     202210277116-4100-02             TERMINAL                 CCN000015000000015000FN00000000020221001000015000NNE   20220825133303W4654P0P  00001500000000696000000990232W465  HJYHK   006400630015
BI00B32W4    4500199213     202210277116-4111-02             TERMINAL                 CCN000007500000007500FN00000000020221001000007500NNE   20220825133303W4654P0P  00000750000000529500000817732W465  HJYHK   006400630015
BI00B32W4    4500199213     202210277116-4112-02             TERMINAL                 CCN000006000000006000FN00000000020221001000006000NNE   20220825133303W4654P0P  00000600000000450000000738232W465  HJYHK   006400630015
BI00B32W4    4500199213     202210277116-4102-02             TERMINAL                 CCN000168000000168000FN00000000020221001000168000NNE   20220825133303W4654P0P  00001200000000553200000841432W465  HJYHK   006400630015
BI00B32W4    4500199213     202210277114-4111-02             TERMINAL                 CCN000012000000012000FN00000000020221001000012000NNE   20220825133303W4654P0P  00001200000000758400001087032W465  HJYHK   006400630017
BI00B32W4    4500199213     202210277116-4110-02             TERMINAL                 CCN000045000000045000FN00000000020221001000045000NNE   20220825133303W4654P0P  00000900000000594000000882232W465  HJYHK   006400630015
BI00B32W4    4500199213     202210277116-4103-02             TERMINAL                 CCN000108000000108000FN00000000020221001000108000NNE   20220825133303W4654P0P  00001200000000571200000859432W465  HJYHK   006400630015
BI00B32W4    4500199213     202210277196-1461-06             TERMINAL FEMALE          CCN000024000000024000FN00000000020221001000024000NNE   20220825133303W4654P0P  00002400000000386400000692932W465  HJYHK   006400630015
BI00B32W4    #4500199214    202211037289-4104-40             HOUSING FEMALE ASS'Y     CCN000006500000006500FN00000000020221101000006500NNE   20220825133325W4652NON  00000050000000606900000821132W465  HJYHK   005400370024
BI00B32W4    4500199227     202210067158-3167-80             WIRE SEAL                CCN000040000000040000FN00000000020221001000040000NNE   20220825133352W4A21C0C  00002000000000048000000109032W4A2  HJYHK-J 002700430014
BI00B32W4    4500199227     202210067116-4111-02             TERMINAL                 CCN000015000000015000FN00000000020221001000015000NNE   20220825133352W4A24P0P  00000750000000529500000817732W4A2  HJYHK-J 006400630015
BI00B32W4    4500199227     202210067283-7029-40             CONNECTOR                CCN000006000000006000FN00000000020221001000006000NNE   20220825133352W4A21N0N  00000600000001026000001200032W4A2  HJYHK-J 005600390023
BI00B32W4    #4500199227    202210067147-3642-30             CLIP                     CCN000018000000018000FN00000000020221001000018000NNE   20220825133349W4A22F0F  00000300000000542000000721332W4A2  HJYHK-J 005600390040
BI00B32W4    #4500199227    202210067283-4190-30             CONNECTOR                CCN000003840000003840FN00000000020221001000003840NNE   20220825133349W4A22N0N  00000024000000846000001115532W4A2  HJYHK-J 005600390040
BI00B32W4    #4500199234    202210207283-8226-30             CONNECTOR                CCN000006000000006000FN00000000020221001000006000NNE   20220825133410W4A22N0N  00000200000000820000001008032W4A2  HJYHK-J 005400370024
BI00B32W4    4500199237     202210277116-4103-02             TERMINAL                 CCN000012000000012000FN00000000020221001000012000NNE   20220825133435W4A24P0P  00001200000000571200000859432W4A2  HJYHK-J 006400630015
BI00B32W4    4500199237     202210277158-3169-40             SEALING PLUG             CCN000040000000040000FN00000000020221001000040000NNE   20220825133435W4A21C0C  00004000000000156000000204132W4A2  HJYHK-J 004300260014
BI00B32W4    4500199237     202210277116-4102-02             TERMINAL                 CCN000036000000036000FN00000000020221001000036000NNE   20220825133435W4A24P0P  00001200000000553200000841432W4A2  HJYHK-J 006400630015
BI00B32W4    4500199237     202210277116-4031                TERMINAL                 CCN000007500000007500FN00000000020221001000007500NNE   20220825133435W4A24P0P  00000750000000619500000904732W4A2  HJYHK-J 006400630015
BI00B32W4    4500199237     202210277116-4110-02             TERMINAL                 CCN000009000000009000FN00000000020221001000009000NNE   20220825133435W4A24P0P  00000900000000594000000882232W4A2  HJYHK-J 006400630015
BI00B32W4    4500199237     202210277158-3168-80             SEALED                   CCN000020000000020000FN00000000020221001000020000NNE   20220825133435W4A21C0C  00002000000000044000000092132W4A2  HJYHK-J 004300260014
BI00B32W4    4500199237     202210277116-4112-02             TERMINAL                 CCN000012000000012000FN00000000020221001000012000NNE   20220825133435W4A24P0P  00000600000000450000000738232W4A2  HJYHK-J 006400630015
BI00B32W4    4500199237     202210277158-3166-60             WIRE SEAL                CCN000040000000040000FN00000000020221001000040000NNE   20220825133435W4A21C0C  00004000000000104000000152432W4A2  HJYHK-J 002700430014
BI00B32W4    #4500199237    202210277158-3120-90             CONNECTOR WIRE SEAL      CCN000020000000020000FN00000000020221001000020000NNE   20220825133433W4A22C0C  00002000000000136000000194032W4A2  HJYHK-J 002700430014
BI00B32W4    4500199254     202209087116-4111-02             TERMINAL                 CCN000172500000172500FN00000000020220901000172500NNED0720220825133524W4374P0P  00000750000000529500000817732W437  HJYHK   006400630015
BI00B32W4    4500199254     202209087116-4101-02             TERMINAL                 CCN000024000000024000FN00000000020220901000024000NNED0720220825133524W4374P0P  00001200000000582000000876232W437  HJYHK   006400630015
BI00B32W6    #QA-22-S033    202208317172-5629-80             RUBBER STOPPER           PNN000260000000260000FN00000000020220801000260000NNE   20220825122421    2H0H  00002000000000060000000111132W6    SYSYA-WJ004300270014
BI00B32W9    #4500199196    202209137283-8398-40             CONNECTOR                CCN000135520000135520FN00000000020220901000135520NNE   20220825133209W9  2N0N  00000154000001007000001171332W9    HKYHK   005600390023
BI00B32W9    4500199256     202209137116-5041-02             TERMINAL                 CCN000030000000030000FN00000000020220901000030000NNE   20220825133556W9  4P0P  00001500000000583500000868732W9    HKYHK   006400630015
BI00B32W9    #4500199256    202209137182-2410                CONNECTOR HOUSING        CCN000003600000003600FN00000000020220901000003600NNE   20220825133554W9  2F0F  00000120000000959800001245632W9    HKYHK   005500360039
BI00B32Y2    TAU1244        202209227116-4032                TERMINAL                 CCN000006000000006000FN00000000020230101000006000NNE   20220825122421    4P0P  00000600000000532800000818032Y2    YUYUY   006400630015
