AE00TI102208250125/08/202200000000100000000000000001092KGM  00000001295KGM  7298-2278-30             HOUSING FEMALE ASS'Y     7298227830               0         0         0         0    0    0    00000240000000240000000227000005448000
AE00TI102208250125/08/202200000000300000000000000002945KGM  00000003870KGM  7298-5993-30             SEALED ASSY FEMALE       7298599330               0         0         0         0    0    0    00000655200000218400000266000017428320
AE00TI102208250125/08/202200000000700000000000000006533KGM  00000007933KGM  7327-6769-3W             BATTERY FUSE             732767693W               0         0         0         0    0    0    00000067200000009600008902000059821440
AE00TI102208250125/08/202200000001300000000000000009646KGM  00000014586KGM  7388-2978-30             HOUSING MALE ASS'Y       7388297830               0         0         0         0    0    0    00000624000000048000001790000111696000
AE00TI102208250125/08/202200000000300000000000000003960KGM  00000004710KGM  7470-4481                J/B COMPLETE ASS'Y       74704481                 0         0         0         0    0    0    00000007200000002400000000000000000000
AE00TI102208250125/08/202200000003300000000000000043560KGM  00000051810KGM  7470-5237                J/B ASS'Y                74705237                 0         0         0         0    0    0    00000079200000002400031359000248363280
AE00TI102208250125/08/202200000000600000000000000000000KGM  00000000000KGM  7470-5307E               J/B COMPLETE ASS'Y       74705307E                0         0         0         0    0    0    00000006000000001000000000000000000000
AE00TI102208250125/08/202200000004500000000000000000000KGM  00000000000KGM  7470-5308E               J/B COMPLETE ASS'Y       74705308E                0         0         0         0    0    0    00000045000000001000000000000000000000
AE00TI102208250125/08/202200000002100000000000000000000KGM  00000000000KGM  7470-5783E               J/B COMPLETE ASS'Y       74705783E                0         0         0         0    0    0    00000021000000001000000000000000000000
AE00TI102208250125/08/202200000002700000000000000000000KGM  00000000000KGM  7470-5784D               J/B COMPLETE ASS'Y       74705784D                0         0         0         0    0    0    00000040500000001500000000000000000000
AE00TI102208250125/08/202200000002000000000000000000000KGM  00000000000KGM  7470-5823D               J/B COMPLETE ASS'Y       74705823D                0         0         0         0    0    0    00000030000000001500000000000000000000
AE00TI102208250125/08/202200000000800000000000000000000KGM  00000000000KGM  7470-5858D               J/B COMPLETE ASS'Y       74705858D                0         0         0         0    0    0    00000008000000001000000000000000000000
AE00TI102208250125/08/202200000002000000000000000000000KGM  00000000000KGM  7470-5927D               J/B COMPLETE ASS'Y       74705927D                0         0         0         0    0    0    00000030000000001500000000000000000000
