AE00TI102208250225/08/202200000000100000000000000000828KGM  00000000986KGM  7124-1026-30             PROTECTOR                7124102630               0         0         0         0    0    0    00000300000000300000000126000003780000
AE00TI102208250225/08/202200000002000000000000000003704KGM  00000004672KGM  7137-3001-30             COVER PACKING            7137300130               0         0         0         0    0    0    00001000000000050000000340000034000000
AE00TI102208250225/08/202200000001000000000000000001705KGM  00000002189KGM  7137-3047-30             UNIT PACKING             7137304730               0         0         0         0    0    0    00001000000000100000000189000018900000
AE00TI102208250225/08/202200000009000000000000000008955KGM  00000022455KGM  7140-1977-30             UPPER COVER              7140197730               0         0         0         0    0    0    00000090000000001000002698000024282000
AE00TI102208250225/08/202200000000600000000000000003252KGM  00000004328KGM  7147-3642-30             CLIP                     7147364230               0         0         0         0    0    0    00001800000000300000000074000013320000
AE00TI102208250225/08/202200000004700000000000000015538KGM  00000018142KGM  7158-3006-90             RUBBER STOPPER           7158300690               0         0         0         0    0    0    00094000000002000000000016000150400000
AE00TI102208250225/08/202200000002300000000000000007774KGM  00000008883KGM  7158-3009-60             RUBBER STOPPER           7158300960               0         0         0         0    0    0    00046000000002000000000012000055200000
AE00TI102208250225/08/202200000003200000000000000003328KGM  00000004877KGM  7158-3166-60             WIRE SEAL                7158316660               0         0         0         0    0    0    00128000000004000000000004000051200000
AE00TI102208250225/08/202200000006900000000000000003312KGM  00000007521KGM  7158-3167-80             WIRE SEAL                7158316780               0         0         0         0    0    0    00138000000002000000000005000069000000
AE00TI102208250225/08/202200000003100000000000000001364KGM  00000002855KGM  7158-3168-80             SEALED                   7158316880               0         0         0         0    0    0    00062000000002000000000004000024800000
AE00TI102208250225/08/202200000001500000000000000002340KGM  00000003062KGM  7158-3169-40             SEALING PLUG             7158316940               0         0         0         0    0    0    00060000000004000000000006000036000000
AE00TI102208250225/08/202200000001000000000000000007621KGM  00000009803KGM  7171-6292                HOUSING                  71716292                 0         0         0         0    0    0    00000180000000018000001240000022320000
AE00TI102208250225/08/202200000000700000000000000003203KGM  00000003542KGM  7172-5402-30             SEAL RUBBER              7172540230               0         0         0         0    0    0    00005600000000800000000077000043120000
AE00TI102208250225/08/202200000001400000000000000002604KGM  00000003282KGM  7172-5540-80             SEALED WIRE SEAL         7172554080               0         0         0         0    0    0    00028000000002000000000010000028000000
AE00TI102208250225/08/202200000000100000000000000000814KGM  00000000923KGM  7174-1760-50             CAP                      7174176050               0         0         0         0    0    0    00000300000000300000000100000003000000
AE00TI102208250225/08/202200000000100000000000000001282KGM  00000001477KGM  7182-4941                DOUBLE SIDED             71824941                 0         0         0         0    0    0    00000100000000100000000816000008160000
AE00TI102208250225/08/202200000000300000000000000003178KGM  00000003737KGM  7183-2412                HOUSING                  71832412                 0         0         0         0    0    0    00000480000000160000000155000007440000
AE00TI102208250225/08/202200000000100000000000000000478KGM  00000000760KGM  7183-2413-30             CONNECTOR HOUSING        7183241330               0         0         0         0    0    0    00000480000000480000000076000003648000
AE00TI102208250225/08/202200000000200000000000000001558KGM  00000002122KGM  7183-2414                CONNECTOR HOUSING        71832414                 0         0         0         0    0    0    00000960000000480000000050000004800000
AE00TI102208250225/08/202200000000100000000000000000780KGM  00000001062KGM  7183-2414-30             CONNECTOR HOUSING        7183241430               0         0         0         0    0    0    00000480000000480000000054000002592000
AE00TI102208250225/08/202200000000100000000000000000798KGM  00000001091KGM  7183-2415                CONNECTOR HOUSING        71832415                 0         0         0         0    0    0    00000480000000480000000080000003840000
AE00TI102208250225/08/202200000000100000000000000000917KGM  00000001477KGM  7183-2418                CONNECTOR HOUSING        71832418                 0         0         0         0    0    0    00000480000000480000000078000003744000
AE00TI102208250225/08/202200000000100000000000000001065KGM  00000001352KGM  7183-2419-30             HOUSING                  7183241930               0         0         0         0    0    0    00000480000000480000000093000004464000
AE00TI102208250225/08/202200000000100000000000000000579KGM  00000000686KGM  7189-9516-40             HOUSING                  7189951640               0         0         0         0    0    0    00000200000000200000000238000004760000
AE00TI102208250225/08/202200000000200000000000000001153KGM  00000001367KGM  7189-9517                HOUSING                  71899517                 0         0         0         0    0    0    00000400000000200000000228000009120000
AE00TI102208250225/08/202200000000200000000000000001167KGM  00000001381KGM  7189-9518-30             HOUSING                  7189951830               0         0         0         0    0    0    00000400000000200000000236000009440000
AE00TI102208250225/08/202200000000300000000000000001738KGM  00000002059KGM  7189-9519-80             HOUSING                  7189951980               0         0         0         0    0    0    00000600000000200000000243000014580000
AE00TI102208250225/08/202200000000100000000000000001030KGM  00000001176KGM  7222-7484-40             CONNECTOR                7222748440               0         0         0         0    0    0    00000100000000100000000758000007580000
AE00TI102208250225/08/202200000000500000000000000004833KGM  00000005625KGM  7222-7564-30             CONNECTOR                7222756430               0         0         0         0    0    0    00000250000000050000001175000029375000
AE00TI102208250225/08/202200000000200000000000000001934KGM  00000002194KGM  7222-7564-40             CONNECTOR                7222756440               0         0         0         0    0    0    00000100000000050000001166000011660000
AE00TI102208250225/08/202200000000100000000000000001124KGM  00000001213KGM  7282-7028-30             CONNECTOR                7282702830               0         0         0         0    0    0    00000200000000200000000248000004960000
AE00TI102208250225/08/202200000000100000000000000000840KGM  00000001064KGM  7283-1020-30             CONNECTOR                7283102030               0         0         0         0    0    0    00000600000000600000000217000013020000
AE00TI102208250225/08/202200000000100000000000000000878KGM  00000001078KGM  7283-1156                CONNECTOR                72831156                 0         0         0         0    0    0    00000080000000080000000810000006480000
AE00TI102208250225/08/202200000000100000000000000001160KGM  00000001341KGM  7283-1485                CONNECTOR                72831485                 0         0         0         0    0    0    00000200000000200000000366000007320000
AE00TI102208250225/08/202200000000100000000000000000678KGM  00000000945KGM  7283-6036                CONNECTOR HOUSING        72836036                 0         0         0         0    0    0    00000160000000160000000260000004160000
AE00TI102208250225/08/202200000000200000000000000002904KGM  00000003363KGM  7283-7028-30             CONNECTOR                7283702830               0         0         0         0    0    0    00000600000000300000000520000031200000
AE00TI102208250225/08/202200000000500000000000000004269KGM  00000005226KGM  7287-9155                HOUSING FEMALE ASS'Y     72879155                 0         0         0         0    0    0    00000480000000096000000357000017136000
AE00TI102208250225/08/202200000000100000000000000000894KGM  00000001185KGM  7287-9234                JOINT CONNECTOR          72879234                 0         0         0         0    0    0    00000960000000960000000137000013152000
AE00TI102208250225/08/202200000000200000000000000001732KGM  00000002022KGM  7288-3331-30             HOUSING MALE             7288333130               0         0         0         0    0    0    00000300000000150000000354000010620000
AE00TI102208250225/08/202200000001600000000000000013771KGM  00000016091KGM  7288-3332-30             HOUSING MALE             7288333230               0         0         0         0    0    0    00002400000000150000000354000084960000
AE00TI102208250225/08/202200000000500000000000000004335KGM  00000005060KGM  7288-3336-30             HOUSING MALE             7288333630               0         0         0         0    0    0    00000750000000150000000354000026550000
AE00TI102208250225/08/202200000000800000000000000006892KGM  00000008051KGM  7288-3340-30             HOUSING MALE             7288334030               0         0         0         0    0    0    00001200000000150000000354000042480000
AE00TI102208250225/08/202200000001200000000000000008237KGM  00000010817KGM  7289-3342                HOUSING FEMALE ASS'Y     72893342                 0         0         0         0    0    0    00002880000000240000000186000053568000
AE00TI102208250225/08/202200000001300000000000000008923KGM  00000011718KGM  7289-3342-30             HOUSING FEMALE ASS'Y     7289334230               0         0         0         0    0    0    00003120000000240000000191000059592000
AE00TI102208250225/08/202200000000700000000000000008202KGM  00000009580KGM  7289-5011-30             HOUSING FEMALE ASS'Y     7289501130               0         0         0         0    0    0    00001680000000240000000333000055944000
AE00TI102208250225/08/202200000000400000000000000003317KGM  00000004197KGM  7289-6518-30             HOUSING FEMALE ASS'Y     7289651830               0         0         0         0    0    0    00000480000000120000000598000028704000
AE00TI102208250225/08/202200000000200000000000000002481KGM  00000002812KGM  7298-1853-10             HOUSING FEMALE ASS'Y     7298185310               0         0         0         0    0    0    00000780000000390000000186000014508000
AE00TI102208250225/08/202200000000200000000000000002195KGM  00000002717KGM  7298-4094-10             HOUSING FEMALE ASS'Y     7298409410               0         0         0         0    0    0    00000676000000338000000241000016291600
AE00TI102208250225/08/202200000000600000000000000005970KGM  00000006750KGM  7388-0313-30             CONNECTOR ASS'Y          7388031330               0         0         0         0    0    0    00000720000000120000000376000027072000
