AE00TO202208250325/08/202200000013500000000000000141294KGM  00000147894KGM  18000004530              AV 8 B                   AV 8 B                   0         0         0         0    0    0    00000000000135000000000213300028795500
AE00TO202208250325/08/202200000000100000000000000001011KGM  00000001060KGM  18007703941              AVSS 05F GY              AVSS 05F GY              0         0         0         0    0    0    00000000000015000000000015800000237000
AE00TO202208250325/08/202200000004500000000000000050004KGM  00000052204KGM  18007704140              AVSS 125F W              AVSS 125F W              0         0         0         0    0    0    00000000000360000000000035000012600000
AE00TO202208250325/08/202200000000100000000000000001111KGM  00000001160KGM  18007704190              AVSS 125F L              AVSS 125F L              0         0         0         0    0    0    00000000000008000000000035000000280000
AE00TO202208250325/08/202200000000100000000000000001063KGM  00000001112KGM  18007704230              AVSS 2F B                AVSS 2F B                0         0         0         0    0    0    00000000000005000000000051100000255500
AE00TO202208250325/08/202200000000300000000000000003190KGM  00000003336KGM  18007704237              AVSS 2F B/Y              AVSS 2F B/Y              0         0         0         0    0    0    00000000000015000000000051100000766500
AE00TO202208250325/08/202200000000500000000000000005316KGM  00000005560KGM  18007704254              AVSS 2F R/W              AVSS 2F R/W              0         0         0         0    0    0    00000000000025000000000051100001277500
AE00TO202208250325/08/202200000000200000000000000002126KGM  00000002224KGM  18007704260              AVSS 2F G                AVSS 2F G                0         0         0         0    0    0    00000000000010000000000051100000511000
AE00TO202208250325/08/202200000000500000000000000005315KGM  00000005560KGM  18007704270              AVSS 2F Y                AVSS 2F Y                0         0         0         0    0    0    00000000000025000000000051100001277500
AE00TO202208250325/08/202200000000900000000000000010766KGM  00000011206KGM  18009604460              AVS 5 G                  AVS 5 G                  0         0         0         0    0    0    00000000000018000000000139000002502000
AE00TO202208250325/08/202200000004500000000000000043425KGM  00000045625KGM  18018404060              CAVS 085 G               CAVS 085 G               0         0         0         0    0    0    00000000000450000000000022900010305000
AE00TO202208250325/08/202200000000500000000000000005512KGM  00000005756KGM  18018404143              CAVS 125 W/B             CAVS 125 W/B             0         0         0         0    0    0    00000000000040000000000032700001308000
AE00TO202208250325/08/202200000004000000000000000044096KGM  00000046052KGM  18018404146              CAVS 125 W/G             CAVS 125 W/G             0         0         0         0    0    0    00000000000320000000000032700010464000
AE00TO202208250325/08/202200000000600000000000000006930KGM  00000007223KGM  1801R703952              CIVUS 05 P               CIVUS 05 P               0         0         0         0    0    0    00000000000132000000000013600001795200
AE00TO202208250325/08/202200000001600000000000000018480KGM  00000019262KGM  1801R70395U              CIVUS 05 BE              CIVUS 05 BE              0         0         0         0    0    0    00000000000352000000000013600004787200
AE00TO202208250325/08/202200000004500000000000000051975KGM  00000054175KGM  1801R703961              CIVUS 05 LG              CIVUS 05 LG              0         0         0         0    0    0    00000000000990000000000013600013464000
AE00TO202208250325/08/202200000002300000000000000026565KGM  00000027689KGM  1801R703991              CIVUS 05 SB              CIVUS 05 SB              0         0         0         0    0    0    00000000000506000000000013600006881600
AE00TO202208250325/08/202200000000100000000000000001228KGM  00000001277KGM  1801R704180              CIVUS 125 BR             CIVUS 125 BR             0         0         0         0    0    0    00000000000010000000000031800000318000
AE00TO202208250325/08/202200000000200000000000000002456KGM  00000002554KGM  1801R704190              CIVUS 125 L              CIVUS 125 L              0         0         0         0    0    0    00000000000020000000000031800000636000
AE00TO202208250325/08/202200000000300000000000000003684KGM  00000003831KGM  1801R704192              CIVUS 125 V              CIVUS 125 V              0         0         0         0    0    0    00000000000030000000000031800000954000
AE00TO202208250325/08/202200000000100000000000000001158KGM  00000001207KGM  1801R706930              CIVUS 035 B              CIVUS 035 B              0         0         0         0    0    0    00000000000030000000000009700000291000
AE00TO202208250325/08/202200000000100000000000000001158KGM  00000001207KGM  1801R706940              CIVUS 035 W              CIVUS 035 W              0         0         0         0    0    0    00000000000030000000000009700000291000
AE00TO202208250325/08/202200000002600000000000000030108KGM  00000031379KGM  1801R706941              CIVUS 035 GY             CIVUS 035 GY             0         0         0         0    0    0    00000000000780000000000009700007566000
AE00TO202208250325/08/202200000001900000000000000022002KGM  00000022931KGM  1801R70695U              CIVUS 035 BE             CIVUS 035 BE             0         0         0         0    0    0    00000000000570000000000009700005529000
AE00TO202208250325/08/202200000002500000000000000028950KGM  00000030172KGM  1801R706961              CIVUS 035 LG             CIVUS 035 LG             0         0         0         0    0    0    00000000000750000000000009700007275000
AE00TO202208250325/08/202200000004800000000000000055584KGM  00000057931KGM  1801R706973              CIVUS 035 Y/B            CIVUS 035 Y/B            0         0         0         0    0    0    00000000001440000000000009700013968000
AE00TO202208250325/08/202200000000100000000000000001158KGM  00000001207KGM  1801R706980              CIVUS 035 BR             CIVUS 035 BR             0         0         0         0    0    0    00000000000030000000000009700000291000
AE00TO202208250325/08/202200000001900000000000000022002KGM  00000022931KGM  1801R706991              CIVUS 035 SB             CIVUS 035 SB             0         0         0         0    0    0    00000000000570000000000009700005529000
AE00TO202208250325/08/202200000001600000000000000018000KGM  00000018782KGM  1801W003930              IVSSH 05F B              IVSSH 05F B              0         0         0         0    0    0    00000000000288000000000015600004492800
AE00TO202208250325/08/202200000009000000000000000101250KGM  00000105650KGM  1801W003950              IVSSH 05F R              IVSSH 05F R              0         0         0         0    0    0    00000000001620000000000015600025272000
AE00TO202208250325/08/202200000002800000000000000031640KGM  00000033010KGM  1801W006930              IVSSH 035F B             IVSSH 035F B             0         0         0         0    0    0    00000000000700000000000011500008050000
AE00TO202208250325/08/202200000000600000000000000006780KGM  00000007073KGM  1801W006940              IVSSH 035F W             IVSSH 035F W             0         0         0         0    0    0    00000000000150000000000011500001725000
AE00TO202208250325/08/202200000000200000000000000002260KGM  00000002358KGM  1801W006943              IVSSH 035F W/B           IVSSH 035F W/B           0         0         0         0    0    0    00000000000050000000000011500000575000
AE00TO202208250325/08/202200000006700000000000000075710KGM  00000078986KGM  1801W006950              IVSSH 035F R             IVSSH 035F R             0         0         0         0    0    0    00000000001675000000000011500019262500
AE00TO202208250325/08/202200000001400000000000000015820KGM  00000016505KGM  1801W006960              IVSSH 035F G             IVSSH 035F G             0         0         0         0    0    0    00000000000350000000000011500004025000
AE00TO202208250325/08/202200000001200000000000000013560KGM  00000014147KGM  1801W006961              IVSSH 035F LG            IVSSH 035F LG            0         0         0         0    0    0    00000000000300000000000011500003450000
AE00TO202208250325/08/202200000000100000000000000001130KGM  00000001179KGM  1801W006980              IVSSH 035F BR            IVSSH 035F BR            0         0         0         0    0    0    00000000000025000000000011500000287500
AE00TO202208250325/08/202200000001500000000000000016950KGM  00000017683KGM  1801W006990              IVSSH 035F L             IVSSH 035F L             0         0         0         0    0    0    00000000000375000000000011500004312500
AE00TO202208250325/08/202200000004700000000000000054821KGM  00000057119KGM  180D0204130              AVSSH 125F B             AVSSH 125F B             0         0         0         0    0    0    00000000000376000000000036000013536000
AE00TO202208250325/08/202200000000200000000000000002333KGM  00000002431KGM  180D0204140              AVSSH 125F W             AVSSH 125F W             0         0         0         0    0    0    00000000000016000000000036000000576000
AE00TO202208250325/08/202200000001200000000000000013997KGM  00000014583KGM  180D0204143              AVSSH 125F W/B           AVSSH 125F W/B           0         0         0         0    0    0    00000000000096000000000036000003456000
AE00TO202208250325/08/202200000000400000000000000004666KGM  00000004861KGM  180D0204149              AVSSH 125F W/L           AVSSH 125F W/L           0         0         0         0    0    0    00000000000032000000000036000001152000
AE00TO202208250325/08/202200000000100000000000000001166KGM  00000001215KGM  180D0204153              AVSSH 125F R/B           AVSSH 125F R/B           0         0         0         0    0    0    00000000000008000000000036000000288000
AE00TO202208250325/08/202200000004300000000000000050155KGM  00000052257KGM  180D0204160              AVSSH 125F G             AVSSH 125F G             0         0         0         0    0    0    00000000000344000000000036000012384000
AE00TO202208250325/08/202200000000100000000000000001166KGM  00000001215KGM  180D0204170              AVSSH 125F Y             AVSSH 125F Y             0         0         0         0    0    0    00000000000008000000000036000000288000
AE00TO202208250325/08/202200000000900000000000000010498KGM  00000010938KGM  180D0204180              AVSSH 125F BR            AVSSH 125F BR            0         0         0         0    0    0    00000000000072000000000036000002592000
AE00TO202208250325/08/202200000000200000000000000002333KGM  00000002431KGM  180D0204190              AVSSH 125F L             AVSSH 125F L             0         0         0         0    0    0    00000000000016000000000036000000576000
AE00TO202208250325/08/202200000000100000000000000001166KGM  00000001215KGM  180D0204195              AVSSH 125F L/R           AVSSH 125F L/R           0         0         0         0    0    0    00000000000008000000000036000000288000
AE00TO202208250325/08/202200000001500000000000000011404KGM  00000012137KGM  181AD2003ZZ              CIVUSAS-S 035X3 B        CIVUSAS-S 035X3 B        0         0         0         0    0    0    00000000000052500000000055700002924250
AE00TO202208250325/08/202200000000200000000000000001831KGM  00000001929KGM  181B32039S1              AVSSCS 05FX1 DGY         AVSSCS 05FX1 DGY         0         0         0         0    0    0    00000000000008000000000056200000449600
AE00TO202208250325/08/202200000000700000000000000006409KGM  00000006751KGM  181B32039Y6              AVSSCS 05FX1 DGY/G       AVSSCS 05FX1 DGY/G       0         0         0         0    0    0    00000000000028000000000056200001573600
AE00TO202208250325/08/202200000000300000000000000002390KGM  00000002536KGM  181B32116Z5              AVSSCS 03FX2 DGY/L       AVSSCS 03FX2 DGY/L       0         0         0         0    0    0    00000000000010500000000061200000642600
AE00TO202208250325/08/202200000000200000000000000001410KGM  00000001508KGM  181CQ7003ZZ              IVSSHCS-S 05FX2 B(B,W)   IVSSHCS-S 05FX2 B(B,W)   0         0         0         0    0    0    00000000000006000000000073000000438000
AE00TO202208250325/08/202200000000100000000000000000716KGM  00000000764KGM  181D6910230              AVSSHCS 05FX2 B          AVSSHCS 05FX2 B          0         0         0         0    0    0    00000000000003000000000080200000240600
AE00TO202208250325/08/202200000000400000000000000002863KGM  00000003057KGM  181D6910235              AVSSHCS 05FX2 B/R        AVSSHCS 05FX2 B/R        0         0         0         0    0    0    00000000000012000000000080200000962400
AE00TO202208250325/08/202200000003200000000000000022896KGM  00000024461KGM  181D6910239              AVSSHCS 05FX2 B/L        AVSSHCS 05FX2 B/L        0         0         0         0    0    0    00000000000096000000000080200007699200
AE00TO202208250325/08/202200000001900000000000000014397KGM  00000015326KGM  181E50002ZZ              AVSSCS-S 03FX2 DGY/G     AVSSCS-S 03FX2 DGY/G     0         0         0         0    0    0    00000000000066500000000059700003970050
AE00TO202208250325/08/202200000001000000000000000007640KGM  00000008128KGM  181E50004ZZ              AVSSCS-S 05FX1 DGY       AVSSCS-S 05FX1 DGY       0         0         0         0    0    0    00000000000040000000000050700002028000
AE00TO202208250325/08/202200000001100000000000000008335KGM  00000008873KGM  181E50020ZZ              AVSSCS-S 03FX2 DGY/R     AVSSCS-S 03FX2 DGY/R     0         0         0         0    0    0    00000000000038500000000059700002298450
AE00TO202208250325/08/202200000001500000000000000011366KGM  00000012100KGM  181E50021ZZ              AVSSCS-S 03FX2 DGY/P     AVSSCS-S 03FX2 DGY/P     0         0         0         0    0    0    00000000000052500000000059700003134250
AE00TO202208250325/08/202200000001000000000000000007594KGM  00000008083KGM  181F21009ZZ              AVSSHCS-S 05FX2 B        AVSSHCS-S 05FX2 B        0         0         0         0    0    0    00000000000030000000000074200002226000
AE00TO202208250325/08/202200000003500000000000000029871KGM  00000031582KGM  181F21027ZZ              AVSSHCS-S 125FX2 B       AVSSHCS-S 125FX2 B       0         0         0         0    0    0    00000000000070000000000128600009002000
AE00TO202208250325/08/202200000000300000000000000002560KGM  00000002707KGM  181F21028ZZ              AVSSHCS-S 125FX2 B/R     AVSSHCS-S 125FX2 B/R     0         0         0         0    0    0    00000000000006000000000128600000771600
AE00TO202208250325/08/202200000000500000000000000004267KGM  00000004512KGM  181F21029ZZ              AVSSHCS-S 125FX2 B/Y     AVSSHCS-S 125FX2 B/Y     0         0         0         0    0    0    00000000000010000000000128600001286000
