AE00TI102208250625/08/202200000003500000000000000018711KGM  00000030408KGM  7116-4021                TERMINAL                 71164021                 0         0         0         0    0    0    00047250000001350000000028000132300000
AE00TI102208250625/08/202200000000900000000000000001667KGM  00000002102KGM  7137-3001-30             COVER PACKING            7137300130               0         0         0         0    0    0    00000450000000050000000340000015300000
AE00TI102208250625/08/202200000003000000000000000002985KGM  00000007485KGM  7140-1977-30             UPPER COVER              7140197730               0         0         0         0    0    0    00000030000000001000002698000008094000
AE00TI102208250625/08/202200000002400000000000000007934KGM  00000009264KGM  7158-3006-90             RUBBER STOPPER           7158300690               0         0         0         0    0    0    00048000000002000000000016000076800000
AE00TI102208250625/08/202200000002000000000000000006760KGM  00000007724KGM  7158-3009-60             RUBBER STOPPER           7158300960               0         0         0         0    0    0    00040000000002000000000012000048000000
AE00TI102208250625/08/202200000000600000000000000001656KGM  00000002000KGM  7158-3070-80             RUBBER STOPPER           7158307080               0         0         0         0    0    0    00024000000004000000000008000019200000
AE00TI102208250625/08/202200000000900000000000000000936KGM  00000001372KGM  7158-3166-60             WIRE SEAL                7158316660               0         0         0         0    0    0    00036000000004000000000004000014400000
AE00TI102208250625/08/202200000001200000000000000000576KGM  00000001308KGM  7158-3167-80             WIRE SEAL                7158316780               0         0         0         0    0    0    00024000000002000000000005000012000000
AE00TI102208250625/08/202200000000600000000000000000264KGM  00000000553KGM  7158-3168-80             SEALED                   7158316880               0         0         0         0    0    0    00012000000002000000000004000004800000
AE00TI102208250625/08/202200000000800000000000000001248KGM  00000001633KGM  7158-3169-40             SEALING PLUG             7158316940               0         0         0         0    0    0    00032000000004000000000006000019200000
AE00TI102208250625/08/202200000001400000000000000002604KGM  00000003282KGM  7172-5540-80             SEALED WIRE SEAL         7172554080               0         0         0         0    0    0    00028000000002000000000010000028000000
AE00TI102208250625/08/202200000000200000000000000001436KGM  00000001678KGM  7183-4000                HOUSING FEMALE           71834000                 0         0         0         0    0    0    00000400000000200000000259000010360000
AE00TI102208250625/08/202200000000900000000000000007282KGM  00000008314KGM  7188-0149                HLC HOUSING MALE         71880149                 0         0         0         0    0    0    00000810000000090000000530000042930000
AE00TI102208250625/08/202200000000300000000000000002499KGM  00000003374KGM  7189-5000                HYBRID HOUSING           71895000                 0         0         0         0    0    0    00000360000000120000000310000011160000
AE00TI102208250625/08/202200000000100000000000000000878KGM  00000001078KGM  7283-1156                CONNECTOR                72831156                 0         0         0         0    0    0    00000080000000080000000810000006480000
AE00TI102208250625/08/202200000000400000000000000002979KGM  00000003559KGM  7283-8720-30             HOUSING FEMALE           7283872030               0         0         0         0    0    0    00000960000000240000000616000059136000
AE00TI102208250625/08/202200000000300000000000000002601KGM  00000003036KGM  7288-3335-30             HOUSING MALE             7288333530               0         0         0         0    0    0    00000450000000150000000354000015930000
AE00TI102208250625/08/202200000001200000000000000010393KGM  00000012144KGM  7288-3338-30             HOUSING MALE             7288333830               0         0         0         0    0    0    00001800000000150000000354000063720000
AE00TI102208250625/08/202200000000100000000000000001074KGM  00000001429KGM  7288-6598-70             HOUSING MALE ASS'Y       7288659870               0         0         0         0    0    0    00000144000000144000000911000013118400
AE00TI102208250625/08/202200000000700000000000000004805KGM  00000006310KGM  7289-3342                HOUSING FEMALE ASS'Y     72893342                 0         0         0         0    0    0    00001680000000240000000186000031248000
AE00TI102208250625/08/202200000001200000000000000008237KGM  00000010817KGM  7289-3342-30             HOUSING FEMALE ASS'Y     7289334230               0         0         0         0    0    0    00002880000000240000000191000055008000
AE00TI102208250625/08/202200000000200000000000000002343KGM  00000002737KGM  7289-5011-30             HOUSING FEMALE ASS'Y     7289501130               0         0         0         0    0    0    00000480000000240000000333000015984000
AE00TI102208250625/08/202200000000100000000000000001097KGM  00000001359KGM  7298-4094-10             HOUSING FEMALE ASS'Y     7298409410               0         0         0         0    0    0    00000338000000338000000241000008145800
AE00TI102208250625/08/202200000000100000000000000000982KGM  00000001290KGM  7298-5993-30             SEALED ASSY FEMALE       7298599330               0         0         0         0    0    0    00000218400000218400000266000005809440
AE00TI102208250625/08/202200000000600000000000000005600KGM  00000006800KGM  7327-6769-3W             BATTERY FUSE             732767693W               0         0         0         0    0    0    00000057600000009600008902000051275520
AE00TI102208250625/08/202200000000200000000000000001884KGM  00000002174KGM  7382-7523                JOINT CONNECTOR          73827523                 0         0         0         0    0    0    00000240000000120000000571000013704000
AE00TI102208250625/08/202200000000300000000000000002985KGM  00000003375KGM  7388-0313-30             CONNECTOR ASS'Y          7388031330               0         0         0         0    0    0    00000360000000120000000376000013536000
AE00TI102208250625/08/202200000001000000000000000007420KGM  00000011220KGM  7388-2978-30             HOUSING MALE ASS'Y       7388297830               0         0         0         0    0    0    00000480000000048000001790000085920000
AE00TI102208250725/08/202200000002100000000000000018278KGM  00000026460KGM  7370-0309                J/B ASS'Y                73700309                 0         0         0         0    0    0    00000033600000001600028585000096045600
AE00TI102208250725/08/202200000001000000000000000000000KGM  00000000000KGM  7470-4815D               J/B COMPLETE ASS'Y       74704815D                0         0         0         0    0    0    00000015000000001500000000000000000000
AE00TI102208250725/08/202200000003000000000000000000000KGM  00000000000KGM  7470-4816D               J/B COMPLETE ASS'Y       74704816D                0         0         0         0    0    0    00000045000000001500000000000000000000
AE00TI102208250725/08/202200000000500000000000000000000KGM  00000000000KGM  7470-4818D               J/B COMPLETE ASS'Y       74704818D                0         0         0         0    0    0    00000007500000001500000000000000000000
AE00TI102208250725/08/202200000001800000000000000023760KGM  00000028260KGM  7470-5237                J/B ASS'Y                74705237                 0         0         0         0    0    0    00000043200000002400031359000135470880
AE00TI102208250725/08/202200000001500000000000000000000KGM  00000000000KGM  7470-5791D               J/B COMPLETE ASS'Y       74705791D                0         0         0         0    0    0    00000022500000001500000000000000000000
AE00TI102208250725/08/202200000003600000000000000000000KGM  00000000000KGM  7470-5791E               J/B COMPLETE ASS'Y       74705791E                0         0         0         0    0    0    00000036000000001000000000000000000000
