AE00TI102208250425/08/202200000001600000000000000011981KGM  00000017238KGM  7114-4100-02             TERMINAL                 7114410002               0         0         0         0    0    0    00028800000001800000000034000097920000
AE00TI102208250425/08/202200000000800000000000000008150KGM  00000009573KGM  7116-2640                TERMINAL                 71162640                 0         0         0         0    0    0    00014400000001800000000028000040320000
AE00TI102208250425/08/202200000001600000000000000008851KGM  00000013462KGM  7116-4102-02             TERMINAL                 7116410202               0         0         0         0    0    0    00019200000001200000000037000071040000
AE00TI102208250425/08/202200000000600000000000000002668KGM  00000004379KGM  7196-1460-02             TERMINAL FEMALE          7196146002               0         0         0         0    0    0    00017100000002850000000014000023940000
AE00TI102208250425/08/202200000001000000000000000003864KGM  00000006716KGM  7196-1461-02             TERMINAL FEMALE          7196146102               0         0         0         0    0    0    00024000000002400000000014000033600000
AE00TI102208250425/08/202200000001800000000000000023760KGM  00000028260KGM  7470-5237                J/B ASS'Y                74705237                 0         0         0         0    0    0    00000043200000002400031359000135470880
AE00TI102208250425/08/202200000003000000000000000000000KGM  00000000000KGM  7470-5782D               J/B COMPLETE ASS'Y       74705782D                0         0         0         0    0    0    00000045000000001500000000000000000000
AE00TI102208250425/08/202200000003300000000000000000000KGM  00000000000KGM  7470-5783D               J/B COMPLETE ASS'Y       74705783D                0         0         0         0    0    0    00000049500000001500000000000000000000
AE00TI102208250425/08/202200000003400000000000000000000KGM  00000000000KGM  7470-5783E               J/B COMPLETE ASS'Y       74705783E                0         0         0         0    0    0    00000034000000001000000000000000000000
AE00TI102208250425/08/202200000001800000000000000000000KGM  00000000000KGM  7470-5791E               J/B COMPLETE ASS'Y       74705791E                0         0         0         0    0    0    00000018000000001000000000000000000000
