AE00TI102208250525/08/202200000003000000000000000002985KGM  00000007485KGM  7140-1977-30             UPPER COVER              7140197730               0         0         0         0    0    0    00000030000000001000002698000008094000
AE00TI102208250525/08/202200000000100000000000000000154KGM  00000000440KGM  7157-3950-80             SEAL RUBBER              7157395080               0         0         0         0    0    0    00004000000004000000000044000017600000
AE00TI102208250525/08/202200000000400000000000000001000KGM  00000001224KGM  7158-3003-90             RUBBER STOPPER           7158300390               0         0         0         0    0    0    00008000000002000000000012000009600000
AE00TI102208250525/08/202200000000100000000000000000869KGM  00000001161KGM  7198-2458                HOUSING FEMALE           71982458                 0         0         0         0    0    0    00000176000000176000000237000004171200
AE00TI102208250525/08/202200000001200000000000000009391KGM  00000011911KGM  7282-4578                HOUSING MALE ASS'Y       72824578                 0         0         0         0    0    0    00001440000000120000000255000036720000
AE00TI102208250525/08/202200000000200000000000000002126KGM  00000002566KGM  7282-4855                HOUSING MALE ASS'Y       72824855                 0         0         0         0    0    0    00000240000000120000000347000008328000
AE00TI102208250525/08/202200000001100000000000000007438KGM  00000008994KGM  7283-1289                CONNECTOR HOUSING        72831289                 0         0         0         0    0    0    00000660000000060000000795000052470000
AE00TI102208250525/08/202200000000200000000000000001352KGM  00000001642KGM  7283-1289-10             CONNECTOR HOUSING        7283128910               0         0         0         0    0    0    00000120000000060000000813000009756000
AE00TI102208250525/08/202200000000800000000000000005405KGM  00000006565KGM  7283-1289-30             CONNECTOR HOUSING        7283128930               0         0         0         0    0    0    00000480000000060000000813000039024000
AE00TI102208250525/08/202200000003700000000000000025153KGM  00000030518KGM  7283-1289-40             CONNECTOR HOUSING        7283128940               0         0         0         0    0    0    00002220000000060000000813000180486000
AE00TI102208250525/08/202200000000200000000000000001303KGM  00000001743KGM  7283-4576                HOUSING FEMALE ASS'Y     72834576                 0         0         0         0    0    0    00000960000000480000000128000012288000
AE00TI102208250525/08/202200000000500000000000000004188KGM  00000005288KGM  7283-4578                HOUSING FEMALE ASS'Y     72834578                 0         0         0         0    0    0    00001200000000240000000190000022800000
AE00TI102208250525/08/202200000000100000000000000000954KGM  00000001104KGM  7283-5830                CONNECTOR                72835830                 0         0         0         0    0    0    00000600000000600000000154000009240000
AE00TI102208250525/08/202200000000100000000000000000889KGM  00000001132KGM  7283-5843                CONNECTOR                72835843                 0         0         0         0    0    0    00000150000000150000000280000004200000
AE00TI102208250525/08/202200000000300000000000000001332KGM  00000001819KGM  7283-5845                CONNECTOR HOUSING        72835845                 0         0         0         0    0    0    00001800000000600000000133000023940000
AE00TI102208250525/08/202200000000300000000000000001332KGM  00000001819KGM  7283-5845-30             CONNECTOR HOUSING        7283584530               0         0         0         0    0    0    00001800000000600000000133000023940000
AE00TI102208250525/08/202200000000200000000000000001828KGM  00000002286KGM  7283-6120                CONNECTOR HOUSING        72836120                 0         0         0         0    0    0    00000300000000150000000368000011040000
AE00TI102208250525/08/202200000000700000000000000003503KGM  00000004518KGM  7283-7062-30             CONNECTOR HOUSING        7283706230               0         0         0         0    0    0    00000420000000060000000666000027972000
AE00TI102208250525/08/202200000001000000000000000005004KGM  00000006454KGM  7283-7062-40             CONNECTOR HOUSING        7283706240               0         0         0         0    0    0    00000600000000060000000666000039960000
AE00TI102208250525/08/202200000001200000000000000006005KGM  00000007745KGM  7283-7062-90             CONNECTOR HOUSING        7283706290               0         0         0         0    0    0    00000720000000060000000669000048168000
AE00TI102208250525/08/202200000000300000000000000001748KGM  00000002249KGM  7283-7064-10             CONNECTOR HOUSING        7283706410               0         0         0         0    0    0    00000180000000060000000719000012942000
AE00TI102208250525/08/202200000000100000000000000000911KGM  00000001131KGM  7286-3885                CONNECTOR MALE ASS'Y     72863885                 0         0         0         0    0    0    00000120000000120000000295000003540000
AE00TI102208250525/08/202200000000200000000000000001333KGM  00000001846KGM  7287-1915                CONNECTOR ASS'Y          72871915                 0         0         0         0    0    0    00000480000000240000000161000007728000
AE00TI102208250525/08/202200000000100000000000000001061KGM  00000001313KGM  7287-1917                CONNECTOR FEMALE         72871917                 0         0         0         0    0    0    00000240000000240000000253000006072000
AE00TI102208250525/08/202200000000300000000000000003089KGM  00000003749KGM  7287-3885                HYBRID FEMALE ASS'Y      72873885                 0         0         0         0    0    0    00000720000000240000000207000014904000
AE00TI102208250525/08/202200000000500000000000000005148KGM  00000006248KGM  7287-3885-40             HYBRID FEMALE ASS'Y      7287388540               0         0         0         0    0    0    00001200000000240000000216000025920000
AE00TI102208250525/08/202200000000300000000000000003499KGM  00000004159KGM  7287-8073                HOUSING FEMALE ASS'Y     72878073                 0         0         0         0    0    0    00000720000000240000000244000017568000
AE00TI102208250525/08/202200000000600000000000000002326KGM  00000004726KGM  7288-3206                HOUSING MALE ASS'Y       72883206                 0         0         0         0    0    0    00000612000000102000000351000021481200
AE00TI102208250525/08/202200000002500000000000000017160KGM  00000022535KGM  7289-3342                HOUSING FEMALE ASS'Y     72893342                 0         0         0         0    0    0    00006000000000240000000186000111600000
AE00TI102208250525/08/202200000004800000000000000032947KGM  00000043267KGM  7289-3342-30             HOUSING FEMALE ASS'Y     7289334230               0         0         0         0    0    0    00011520000000240000000191000220032000
AE00TI102208250525/08/202200000001000000000000000006864KGM  00000009014KGM  7289-3342-40             HOUSING FEMALE ASS'Y     7289334240               0         0         0         0    0    0    00002400000000240000000192000046080000
AE00TI102208250525/08/202200000002300000000000000015787KGM  00000020732KGM  7289-3342-90             HOUSING FEMALE ASS'Y     7289334290               0         0         0         0    0    0    00005520000000240000000196000108192000
AE00TI102208250525/08/202200000000100000000000000000913KGM  00000001055KGM  7289-4696-30             HOUSING FEMALE ASS'Y     7289469630               0         0         0         0    0    0    00000200000000200000000410000008200000
AE00TI102208250525/08/202200000000500000000000000005859KGM  00000006843KGM  7289-5011-30             HOUSING FEMALE ASS'Y     7289501130               0         0         0         0    0    0    00001200000000240000000333000039960000
AE00TI102208250525/08/202200000001000000000000000011520KGM  00000013620KGM  7289-6547                HOUSING FEMALE ASS'Y     72896547                 0         0         0         0    0    0    00002400000000240000000229000054960000
AE00TI102208250525/08/202200000000100000000000000000534KGM  00000000730KGM  7298-2459-60             LIF FEMALE ASSEMBLY      7298245960               0         0         0         0    0    0    00000016800000016800001474000002476320
AE00TI102208250525/08/202200000000200000000000000001990KGM  00000002250KGM  7388-0313-30             CONNECTOR ASS'Y          7388031330               0         0         0         0    0    0    00000240000000120000000376000009024000
