AE00TI102209200220/09/202200000001900000000000000003240KGM  00000004159KGM  7137-3047-30             UNIT PACKING             7137304730               0         0         0         0    0    0    00001900000000100000000189000035910000
AE00TI102209200220/09/202200000003000000000000000002985KGM  00000007485KGM  7140-1977-30             UPPER COVER              7140197730               0         0         0         0    0    0    00000030000000001000002698000008094000
AE00TI102209200220/09/202200000000600000000000000003252KGM  00000004328KGM  7147-3642-30             CLIP                     7147364230               0         0         0         0    0    0    00001800000000300000000074000013320000
AE00TI102209200220/09/202200000001400000000000000010304KGM  00000013328KGM  7154-5597-30             CASSETTE R/B             7154559730               0         0         0         0    0    0    00001120000000080000000255000028560000
AE00TI102209200220/09/202200000000300000000000000002481KGM  00000003306KGM  7154-5712-30             CASSETTE R/B             7154571230               0         0         0         0    0    0    00000240000000080000000288000006912000
AE00TI102209200220/09/202200000002900000000000000009587KGM  00000011194KGM  7158-3006-90             RUBBER STOPPER           7158300690               0         0         0         0    0    0    00058000000002000000000016000092800000
AE00TI102209200220/09/202200000001500000000000000005070KGM  00000005793KGM  7158-3009-60             RUBBER STOPPER           7158300960               0         0         0         0    0    0    00030000000002000000000012000036000000
AE00TI102209200220/09/202200000000700000000000000001932KGM  00000002333KGM  7158-3070-80             RUBBER STOPPER           7158307080               0         0         0         0    0    0    00028000000004000000000008000022400000
AE00TI102209200220/09/202200000000800000000000000000832KGM  00000001219KGM  7158-3166-60             WIRE SEAL                7158316660               0         0         0         0    0    0    00032000000004000000000004000012800000
AE00TI102209200220/09/202200000004000000000000000001920KGM  00000004360KGM  7158-3167-80             WIRE SEAL                7158316780               0         0         0         0    0    0    00080000000002000000000005000040000000
AE00TI102209200220/09/202200000001800000000000000000792KGM  00000001658KGM  7158-3168-80             SEALED                   7158316880               0         0         0         0    0    0    00036000000002000000000004000014400000
AE00TI102209200220/09/202200000000600000000000000000936KGM  00000001225KGM  7158-3169-40             SEALING PLUG             7158316940               0         0         0         0    0    0    00024000000004000000000006000014400000
AE00TI102209200220/09/202200000001000000000000000007621KGM  00000009803KGM  7171-6292                HOUSING                  71716292                 0         0         0         0    0    0    00000180000000018000001240000022320000
AE00TI102209200220/09/202200000001100000000000000002046KGM  00000002578KGM  7172-5540-80             SEALED WIRE SEAL         7172554080               0         0         0         0    0    0    00022000000002000000000010000022000000
AE00TI102209200220/09/202200000000400000000000000003254KGM  00000003690KGM  7174-1760-50             CAP                      7174176050               0         0         0         0    0    0    00001200000000300000000100000012000000
AE00TI102209200220/09/202200000001000000000000000005534KGM  00000010243KGM  7174-2052-30             COVER                    7174205230               0         0         0         0    0    0    00001260000000126000000237000029862000
AE00TI102209200220/09/202200000000300000000000000002879KGM  00000003737KGM  7182-2410                CONNECTOR HOUSING        71822410                 0         0         0         0    0    0    00000360000000120000000187000006732000
AE00TI102209200220/09/202200000000200000000000000002564KGM  00000002954KGM  7182-4941                DOUBLE SIDED             71824941                 0         0         0         0    0    0    00000200000000100000000816000016320000
AE00TI102209200220/09/202200000001000000000000000005575KGM  00000008233KGM  7183-1616                CONNECTOR HOUSING        71831616                 0         0         0         0    0    0    00002400000000240000000077000018480000
AE00TI102209200220/09/202200000000200000000000000001115KGM  00000001674KGM  7183-1616-30             CONNECTOR HOUSING        7183161630               0         0         0         0    0    0    00000480000000240000000082000003936000
AE00TI102209200220/09/202200000000100000000000000001059KGM  00000001246KGM  7183-2412                HOUSING                  71832412                 0         0         0         0    0    0    00000160000000160000000155000002480000
AE00TI102209200220/09/202200000000100000000000000000478KGM  00000000760KGM  7183-2413                CONNECTOR HOUSING        71832413                 0         0         0         0    0    0    00000480000000480000000074000003552000
AE00TI102209200220/09/202200000000200000000000000000955KGM  00000001519KGM  7183-2413-30             CONNECTOR HOUSING        7183241330               0         0         0         0    0    0    00000960000000480000000076000007296000
AE00TI102209200220/09/202200000000800000000000000011962KGM  00000014168KGM  7183-2416                HOUSING                  71832416                 0         0         0         0    0    0    00001920000000240000000171000032832000
AE00TI102209200220/09/202200000000100000000000000001065KGM  00000001352KGM  7183-2419-30             HOUSING                  7183241930               0         0         0         0    0    0    00000480000000480000000093000004464000
AE00TI102209200220/09/202200000000800000000000000007778KGM  00000009937KGM  7183-2511                HOUSING                  71832511                 0         0         0         0    0    0    00001280000000160000000160000020480000
AE00TI102209200220/09/202200000000100000000000000000819KGM  00000001102KGM  7183-6320-30             HOUSING                  7183632030               0         0         0         0    0    0    00000480000000480000000114000005472000
AE00TI102209200220/09/202200000001700000000000000016437KGM  00000018647KGM  7189-2978-30             HOUSING FEMALE           7189297830               0         0         0         0    0    0    00002550000000150000000161000041055000
AE00TI102209200220/09/202200000000100000000000000000779KGM  00000000910KGM  7198-1866-40             HOUSING FEMALE           7198186640               0         0         0         0    0    0    00000240000000240000000139000003336000
AE00TI102209200220/09/202200000000100000000000000000803KGM  00000000935KGM  7198-1868-80             HOUSING FEMALE           7198186880               0         0         0         0    0    0    00000240000000240000000129000003096000
AE00TI102209200220/09/202200000000100000000000000000841KGM  00000000972KGM  7198-2279-40             HOUSING FEMALE           7198227940               0         0         0         0    0    0    00000240000000240000000147000003528000
AE00TI102209200220/09/202200000003000000000000000037050KGM  00000042690KGM  7282-5574-10             CONNECTOR                7282557410               0         0         0         0    0    0    00002400000000080000000727000174480000
AE00TI102209200220/09/202200000000300000000000000003372KGM  00000003638KGM  7282-7028-30             CONNECTOR                7282702830               0         0         0         0    0    0    00000600000000200000000248000014880000
AE00TI102209200220/09/202200000000600000000000000005266KGM  00000006468KGM  7283-1156                CONNECTOR                72831156                 0         0         0         0    0    0    00000480000000080000000810000038880000
AE00TI102209200220/09/202200000000200000000000000002280KGM  00000002637KGM  7283-1968-30             CONNECTOR                7283196830               0         0         0         0    0    0    00000180000000090000000687000012366000
AE00TI102209200220/09/202200000000100000000000000001188KGM  00000001400KGM  7283-4855                CONNECTOR HOUSING        72834855                 0         0         0         0    0    0    00000240000000240000000272000006528000
AE00TI102209200220/09/202200000000200000000000000001934KGM  00000002336KGM  7286-1917                CONNECTOR MALE ASS'Y     72861917                 0         0         0         0    0    0    00000240000000120000000517000012408000
AE00TI102209200220/09/202200000000100000000000000000952KGM  00000001140KGM  7286-7860                HOUSING MALE ASS'Y       72867860                 0         0         0         0    0    0    00000080000000080000000383000003064000
AE00TI102209200220/09/202200000000600000000000000005122KGM  00000006271KGM  7287-9155                HOUSING FEMALE ASS'Y     72879155                 0         0         0         0    0    0    00000576000000096000000357000020563200
AE00TI102209200220/09/202200000000400000000000000003464KGM  00000004044KGM  7288-3329-30             HOUSING MALE             7288332930               0         0         0         0    0    0    00000600000000150000000354000021240000
AE00TI102209200220/09/202200000000200000000000000001733KGM  00000002022KGM  7288-3330-30             HOUSING MALE             7288333030               0         0         0         0    0    0    00000300000000150000000354000010620000
AE00TI102209200220/09/202200000000600000000000000005202KGM  00000006072KGM  7288-3333-30             HOUSING MALE             7288333330               0         0         0         0    0    0    00000900000000150000000354000031860000
AE00TI102209200220/09/202200000000200000000000000001734KGM  00000002024KGM  7288-3337-30             HOUSING MALE             7288333730               0         0         0         0    0    0    00000300000000150000000354000010620000
AE00TI102209200220/09/202200000000500000000000000003432KGM  00000004507KGM  7289-3342-30             HOUSING FEMALE ASS'Y     7289334230               0         0         0         0    0    0    00001200000000240000000191000022920000
AE00TI102209200220/09/202200000000600000000000000000000KGM  00000000000KGM  7289-3342-30M            HOUSING FEMALE ASS'Y     7289334230M              0         0         0         0    0    0    00000612000000102000000188000011505600
AE00TI102209200220/09/202200000002500000000000000021368KGM  00000026618KGM  7289-5979-30             HOUSING FEMALE ASS'Y     7289597930               0         0         0         0    0    0    00000630000000025200001346000084798000
AE00TI102209200220/09/202200000000100000000000000001241KGM  00000001406KGM  7298-1853-10             HOUSING FEMALE ASS'Y     7298185310               0         0         0         0    0    0    00000390000000390000000186000007254000
