AE00TO202209200220/09/202200000004500000000000000047099KGM  00000049299KGM  18000004530              AV 8 B                   AV 8 B                   0         0         0         0    0    0    00000000000045000000000211100009499500
AE00TO202209200220/09/202200000000100000000000000001063KGM  00000001112KGM  18007704254              AVSS 2F R/W              AVSS 2F R/W              0         0         0         0    0    0    00000000000005000000000050600000253000
AE00TO202209200220/09/202200000000400000000000000004253KGM  00000004448KGM  18007704260              AVSS 2F G                AVSS 2F G                0         0         0         0    0    0    00000000000020000000000050600001012000
AE00TO202209200220/09/202200000000200000000000000003065KGM  00000003163KGM  18009604340              AVS 3 W                  AVS 3 W                  0         0         0         0    0    0    00000000000008000000000087500000700000
AE00TO202209200220/09/202200000000200000000000000003065KGM  00000003163KGM  18009604345              AVS 3 W/R                AVS 3 W/R                0         0         0         0    0    0    00000000000008000000000087500000700000
AE00TO202209200220/09/202200000001200000000000000018392KGM  00000018978KGM  18009604350              AVS 3 R                  AVS 3 R                  0         0         0         0    0    0    00000000000048000000000087500004200000
AE00TO202209200220/09/202200000000600000000000000009196KGM  00000009489KGM  18009604354              AVS 3 R/W                AVS 3 R/W                0         0         0         0    0    0    00000000000024000000000087500002100000
AE00TO202209200220/09/202200000000300000000000000004598KGM  00000004745KGM  18009604375              AVS 3 Y/R                AVS 3 Y/R                0         0         0         0    0    0    00000000000012000000000087500001050000
AE00TO202209200220/09/202200000000200000000000000003065KGM  00000003163KGM  18009604394              AVS 3 L/W                AVS 3 L/W                0         0         0         0    0    0    00000000000008000000000087500000700000
AE00TO202209200220/09/202200000000100000000000000001533KGM  00000001581KGM  18009604397              AVS 3 L/Y                AVS 3 L/Y                0         0         0         0    0    0    00000000000004000000000087500000350000
AE00TO202209200220/09/202200000001200000000000000012186KGM  00000012773KGM  18018403941              CAVS 05 GY               CAVS 05 GY               0         0         0         0    0    0    00000000000180000000000015000002700000
AE00TO202209200220/09/202200000002400000000000000024372KGM  00000025545KGM  18018403970              CAVS 05 Y                CAVS 05 Y                0         0         0         0    0    0    00000000000360000000000015000005400000
AE00TO202209200220/09/202200000001100000000000000011171KGM  00000011708KGM  18018403991              CAVS 05 SB               CAVS 05 SB               0         0         0         0    0    0    00000000000165000000000015000002475000
AE00TO202209200220/09/202200000000400000000000000004062KGM  00000004258KGM  18018403992              CAVS 05 V                CAVS 05 V                0         0         0         0    0    0    00000000000060000000000015000000900000
AE00TO202209200220/09/202200000003700000000000000041625KGM  00000043435KGM  1801W003930              IVSSH 05F B              IVSSH 05F B              0         0         0         0    0    0    00000000000666000000000015400010256400
AE00TO202209200220/09/202200000001300000000000000014625KGM  00000015261KGM  1801W003941              IVSSH 05F GY             IVSSH 05F GY             0         0         0         0    0    0    00000000000234000000000015400003603600
AE00TO202209200220/09/202200000001100000000000000012375KGM  00000012913KGM  1801W003952              IVSSH 05F P              IVSSH 05F P              0         0         0         0    0    0    00000000000198000000000015400003049200
AE00TO202209200220/09/202200000000900000000000000010125KGM  00000010565KGM  1801W003980              IVSSH 05F BR             IVSSH 05F BR             0         0         0         0    0    0    00000000000162000000000015400002494800
AE00TO202209200220/09/202200000002400000000000000027120KGM  00000028294KGM  1801W006930              IVSSH 035F B             IVSSH 035F B             0         0         0         0    0    0    00000000000600000000000011400006840000
AE00TO202209200220/09/202200000000800000000000000009040KGM  00000009432KGM  1801W006952              IVSSH 035F P             IVSSH 035F P             0         0         0         0    0    0    00000000000200000000000011400002280000
AE00TO202209200220/09/202200000002700000000000000030510KGM  00000031830KGM  1801W006961              IVSSH 035F LG            IVSSH 035F LG            0         0         0         0    0    0    00000000000675000000000011400007695000
AE00TO202209200220/09/202200000000500000000000000005650KGM  00000005895KGM  1801W006980              IVSSH 035F BR            IVSSH 035F BR            0         0         0         0    0    0    00000000000125000000000011400001425000
AE00TO202209200220/09/202200000000700000000000000007910KGM  00000008253KGM  1801W006991              IVSSH 035F SB            IVSSH 035F SB            0         0         0         0    0    0    00000000000175000000000011400001995000
AE00TO202209200220/09/202200000002200000000000000024860KGM  00000025936KGM  1801W006992              IVSSH 035F V             IVSSH 035F V             0         0         0         0    0    0    00000000000550000000000011400006270000
AE00TO202209200220/09/202200000000300000000000000003499KGM  00000003646KGM  180D0204140              AVSSH 125F W             AVSSH 125F W             0         0         0         0    0    0    00000000000024000000000035700000856800
AE00TO202209200220/09/202200000000300000000000000003499KGM  00000003646KGM  180D0204150              AVSSH 125F R             AVSSH 125F R             0         0         0         0    0    0    00000000000024000000000035700000856800
AE00TO202209200220/09/202200000000100000000000000001166KGM  00000001215KGM  180D0204153              AVSSH 125F R/B           AVSSH 125F R/B           0         0         0         0    0    0    00000000000008000000000035700000285600
AE00TO202209200220/09/202200000000100000000000000001166KGM  00000001215KGM  180D0204159              AVSSH 125F R/L           AVSSH 125F R/L           0         0         0         0    0    0    00000000000008000000000035700000285600
AE00TO202209200220/09/202200000000100000000000000001166KGM  00000001215KGM  180D0204170              AVSSH 125F Y             AVSSH 125F Y             0         0         0         0    0    0    00000000000008000000000035700000285600
AE00TO202209200220/09/202200000000900000000000000010498KGM  00000010938KGM  180D0204190              AVSSH 125F L             AVSSH 125F L             0         0         0         0    0    0    00000000000072000000000035700002570400
AE00TO202209200220/09/202200000004300000000000000033160KGM  00000035262KGM  181AD2002ZZ              CIVUSAS-S 035X2 B        CIVUSAS-S 035X2 B        0         0         0         0    0    0    00000000000193500000000043700008455950
AE00TO202209200220/09/202200000000700000000000000005321KGM  00000005663KGM  181AD2003ZZ              CIVUSAS-S 035X3 B        CIVUSAS-S 035X3 B        0         0         0         0    0    0    00000000000024500000000055300001354850
AE00TO202209200220/09/202200000000500000000000000004099KGM  00000004343KGM  181AD2007ZZ              CIVUSAS-S 05X1 B         CIVUSAS-S 05X1 B         0         0         0         0    0    0    00000000000025000000000038700000967500
AE00TO202209200220/09/202200000000300000000000000002445KGM  00000002592KGM  181AD2009ZZ              CIVUSAS-S 05X3 B         CIVUSAS-S 05X3 B         0         0         0         0    0    0    00000000000009000000000066800000601200
AE00TO202209200220/09/202200000000200000000000000001690KGM  00000001788KGM  181AD2013ZZ              CIVUSAS-S 125X2 B        CIVUSAS-S 125X2 B        0         0         0         0    0    0    00000000000004400000000097600000429440
AE00TO202209200220/09/202200000001000000000000000008111KGM  00000008601KGM  181AD2020ZZ              CIVUSAS-S 05X2 B(R,G)    CIVUSAS-S 05X2 B(R,G)    0         0         0         0    0    0    00000000000040000000000051400002056000
AE00TO202209200220/09/202200000000200000000000000001542KGM  00000001640KGM  181AD2021ZZ              CIVUSAS-S 035X2 B(L,GY)  CIVUSAS-S 035X2 B(L,GY)  0         0         0         0    0    0    00000000000009000000000043700000393300
AE00TO202209200220/09/202200000000600000000000000004628KGM  00000004921KGM  181AD2022ZZ              CIVUSAS-S 035X2 B(R,G)   CIVUSAS-S 035X2 B(R,G)   0         0         0         0    0    0    00000000000027000000000043700001179900
AE00TO202209200220/09/202200000001600000000000000012864KGM  00000013646KGM  181B0910241              CAVSAS 05X2 GY           CAVSAS 05X2 GY           0         0         0         0    0    0    00000000000048000000000061200002937600
AE00TO202209200220/09/202200000000600000000000000004734KGM  00000005027KGM  181B09116K2              CAVSAS 03X2 GY/V         CAVSAS 03X2 GY/V         0         0         0         0    0    0    00000000000021000000000047400000995400
AE00TO202209200220/09/202200000000100000000000000000890KGM  00000000939KGM  181B32013ZZ              AVSSCS 03FX1 DGY/O       AVSSCS 03FX1 DGY/O       0         0         0         0    0    0    00000000000005000000000046600000233000
AE00TO202209200220/09/202200000000500000000000000004580KGM  00000004820KGM  181B32039S1              AVSSCS 05FX1 DGY         AVSSCS 05FX1 DGY         0         0         0         0    0    0    00000000000020000000000055900001118000
AE00TO202209200220/09/202200000000100000000000000000871KGM  00000000920KGM  181B32102G0              AVSSCS 05FX2 DGY/BR      AVSSCS 05FX2 DGY/BR      0         0         0         0    0    0    00000000000003000000000075800000227400
AE00TO202209200220/09/202200000000300000000000000002613KGM  00000002759KGM  181B32102Y5              AVSSCS 05FX2 DGY/W       AVSSCS 05FX2 DGY/W       0         0         0         0    0    0    00000000000009000000000075800000682200
AE00TO202209200220/09/202200000000500000000000000004355KGM  00000004599KGM  181B32102Y9              AVSSCS 05FX2 DGY/P       AVSSCS 05FX2 DGY/P       0         0         0         0    0    0    00000000000015000000000075800001137000
AE00TO202209200220/09/202200000000200000000000000001742KGM  00000001840KGM  181B32102Z8              AVSSCS 05FX2 DGY/O       AVSSCS 05FX2 DGY/O       0         0         0         0    0    0    00000000000006000000000075800000454800
AE00TO202209200220/09/202200000000300000000000000002294KGM  00000002441KGM  181E48011ZZ              CAVSAS-S 03X1 GY/W       CAVSAS-S 03X1 GY/W       0         0         0         0    0    0    00000000000015000000000035300000529500
AE00TO202209200220/09/202200000000100000000000000000695KGM  00000000743KGM  181E48013ZZ              CAVSAS-S 03X3 GY         CAVSAS-S 03X3 GY         0         0         0         0    0    0    00000000000002500000000059600000149000
AE00TO202209200220/09/202200000002100000000000000015964KGM  00000016992KGM  181E48017ZZ              CAVSAS-S 05X1 GY/G       CAVSAS-S 05X1 GY/G       0         0         0         0    0    0    00000000000084000000000040600003410400
AE00TO202209200220/09/202200000000300000000000000002281KGM  00000002427KGM  181E48019ZZ              CAVSAS-S 05X1 GY/W       CAVSAS-S 05X1 GY/W       0         0         0         0    0    0    00000000000012000000000040600000487200
AE00TO202209200220/09/202200000000700000000000000005378KGM  00000005720KGM  181E48027ZZ              CAVSAS-S 05X2 GY/P       CAVSAS-S 05X2 GY/P       0         0         0         0    0    0    00000000000021000000000056500001186500
AE00TO202209200220/09/202200000001000000000000000007578KGM  00000008067KGM  181E50002ZZ              AVSSCS-S 03FX2 DGY/G     AVSSCS-S 03FX2 DGY/G     0         0         0         0    0    0    00000000000035000000000059400002079000
AE00TO202209200220/09/202200000000800000000000000006063KGM  00000006453KGM  181E50021ZZ              AVSSCS-S 03FX2 DGY/P     AVSSCS-S 03FX2 DGY/P     0         0         0         0    0    0    00000000000028000000000059400001663200
AE00TO202209200220/09/202200000001500000000000000011367KGM  00000012101KGM  181E50036ZZ              AVSSCS-S 03FX2 DGY       AVSSCS-S 03FX2 DGY       0         0         0         0    0    0    00000000000052500000000059400003118500
