AE00TI102209200420/09/202200000002400000000000000025574KGM  00000029496KGM  7017-1180-02             TERMINAL                 7017118002               0         0         0         0    0    0    00172800000007200000000008000138240000
AE00TI102209200420/09/202200000000600000000000000003096KGM  00000004861KGM  7114-4729-02             TERMINAL                 7114472902               0         0         0         0    0    0    00018000000003000000000015000027000000
AE00TI102209200420/09/202200000000600000000000000002819KGM  00000004530KGM  7116-3154-02             TERMINAL FEMALE          7116315402               0         0         0         0    0    0    00016200000002700000000015000024300000
AE00TI102209200420/09/202200000006800000000000000034884KGM  00000054278KGM  7116-4020                TERMINAL                 71164020                 0         0         0         0    0    0    00091800000001350000000028000257040000
AE00TI102209200420/09/202200000001400000000000000009027KGM  00000013651KGM  7116-4025                TERMINAL                 71164025                 0         0         0         0    0    0    00022400000001600000000034000076160000
AE00TI102209200420/09/202200000001400000000000000009573KGM  00000014175KGM  7116-4231-02             TERMINAL                 7116423102               0         0         0         0    0    0    00036400000002600000000022000080080000
AE00TI102209200420/09/202200000001600000000000000009000KGM  00000013563KGM  7126-8853-02             TERMINAL                 7126885302               0         0         0         0    0    0    00012000000000750000000057000068400000
AE00TI102209200420/09/202200000000200000000000000001459KGM  00000001666KGM  7182-2412                HOUSING MALE             71822412                 0         0         0         0    0    0    00000100000000050000000638000006380000
AE00TI102209200420/09/202200000000100000000000000000760KGM  00000001024KGM  7187-3356                JOINT CONNECTOR          71873356                 0         0         0         0    0    0    00000120000000120000001038000012456000
AE00TI102209200420/09/202200000001000000000000000007632KGM  00000010304KGM  7187-3359-60             JOINT CONNECTOR          7187335960               0         0         0         0    0    0    00001200000000120000001079000129480000
AE00TI102209200420/09/202200000001000000000000000004560KGM  00000007412KGM  7195-1463-02             TERMINAL MALE            7195146302               0         0         0         0    0    0    00028500000002850000000014000039900000
AE00TI102209200420/09/202200000002000000000000000008892KGM  00000014596KGM  7196-1460-02             TERMINAL FEMALE          7196146002               0         0         0         0    0    0    00057000000002850000000014000079800000
AE00TI102209200420/09/202200000000100000000000000000491KGM  00000000604KGM  7282-7420-40             CONNECTOR MALE ASS'Y     7282742040               0         0         0         0    0    0    00000100000000100000000642000006420000
AE00TI102209200420/09/202200000000200000000000000000700KGM  00000000925KGM  7283-8721-30             HOUSING FEMALE ASS'Y     7283872130               0         0         0         0    0    0    00000200000000100000000415000008300000
AE00TI102209200420/09/202200000000100000000000000000743KGM  00000000853KGM  7287-7022                CONNECTOR FEMALE         72877022                 0         0         0         0    0    0    00000120000000120000000982000011784000
AE00TI102209200420/09/202200000000800000000000000006929KGM  00000008089KGM  7288-3329-30             HOUSING MALE             7288332930               0         0         0         0    0    0    00001200000000150000000354000042480000
AE00TI102209200420/09/202200000000200000000000000001732KGM  00000002022KGM  7288-3331-30             HOUSING MALE             7288333130               0         0         0         0    0    0    00000300000000150000000354000010620000
AE00TI102209200420/09/202200000000200000000000000001721KGM  00000002011KGM  7288-3332-30             HOUSING MALE             7288333230               0         0         0         0    0    0    00000300000000150000000354000010620000
AE00TI102209200420/09/202200000000100000000000000000867KGM  00000001012KGM  7288-3337-30             HOUSING MALE             7288333730               0         0         0         0    0    0    00000150000000150000000354000005310000
AE00TI102209200420/09/202200000000400000000000000002746KGM  00000003606KGM  7289-3342-30             HOUSING FEMALE ASS'Y     7289334230               0         0         0         0    0    0    00000960000000240000000191000018336000
AE00TI102209200420/09/202200000000100000000000000001162KGM  00000001285KGM  7386-2747                CONNECTOR ASS'Y          73862747                 0         0         0         0    0    0    00000200000000200000000413000008260000
