AE00TI102209200320/09/202200000000200000000000000000000KGM  00000000000KGM  38200-T4V-F110-M1        BOX ASSY FUSE            38200T4VF110M1           0         0         0         0    0    0    00000001400000000600000000000000000000
AE00TI102209200320/09/202200000000200000000000000001245KGM  00000001524KGM  7B74-1849-70             COVER                    7B74184970               0         0         0         0    0    0    00005000000002500000000046000023000000
AE00TI102209200320/09/202200000003900000000000000009266KGM  00000019016KGM  7271-1818-30             CASE SUB ASSY,ECU        7271181830               0         0         0         0    0    0    00000070200000001800009388000065903760
AE00TI102209200320/09/202200000001600000000000000018254KGM  00000021694KGM  7327-6840-3W             BATTERY FUSE             732768403W               0         0         0         0    0    0    00000115200000007200009909000114151680
AE00TI102209200320/09/202200000000600000000000000004452KGM  00000006732KGM  7388-2978-30             HOUSING MALE ASS'Y       7388297830               0         0         0         0    0    0    00000288000000048000001790000051552000
AE00TI102209200320/09/202200000001800000000000000023760KGM  00000028260KGM  7470-4481                J/B COMPLETE ASS'Y       74704481                 0         0         0         0    0    0    00000043200000002400000000000000000000
AE00TI102209200320/09/202200000001500000000000000000000KGM  00000000000KGM  7470-5300E               J/B COMPLETE ASS'Y       74705300E                0         0         0         0    0    0    00000015000000001000000000000000000000
AE00TI102209200320/09/202200000001500000000000000000000KGM  00000000000KGM  7470-5307E               J/B COMPLETE ASS'Y       74705307E                0         0         0         0    0    0    00000015000000001000000000000000000000
AE00TI102209200320/09/202200000002000000000000000000000KGM  00000000000KGM  7470-5782D               J/B COMPLETE ASS'Y       74705782D                0         0         0         0    0    0    00000030000000001500000000000000000000
AE00TI102209200320/09/202200000002000000000000000000000KGM  00000000000KGM  7470-5791D               J/B COMPLETE ASS'Y       74705791D                0         0         0         0    0    0    00000030000000001500000000000000000000
AE00TI102209200320/09/202200000001100000000000000000000KGM  00000000000KGM  7470-5823D               J/B COMPLETE ASS'Y       74705823D                0         0         0         0    0    0    00000016500000001500000000000000000000
AE00TI102209200320/09/202200000001000000000000000000000KGM  00000000000KGM  7470-5823E               J/B COMPLETE ASS'Y       74705823E                0         0         0         0    0    0    00000010000000001000000000000000000000
AE00TI102209200320/09/202200000002000000000000000000000KGM  00000000000KGM  7470-5858D               J/B COMPLETE ASS'Y       74705858D                0         0         0         0    0    0    00000020000000001000000000000000000000
AE00TI102209200320/09/202200000001000000000000000000000KGM  00000000000KGM  7470-5936D               J/B COMPLETE ASS'Y       74705936D                0         0         0         0    0    0    00000015000000001500000000000000000000
