AE00TI102209200520/09/202200000000100000000000000000014KGM  00000000056KGM  7137-3187-90             CPA PACKING              7137318790               0         0         0         0    0    0    00001920000001920000000025000004800000
AE00TI102209200520/09/202200000000100000000000000000017KGM  00000000060KGM  7137-3200-90             CPA PACKING              7137320090               0         0         0         0    0    0    00001920000001920000000025000004800000
AE00TI102209200520/09/202200000005900000000000000005871KGM  00000014721KGM  7140-1977-30             UPPER COVER              7140197730               0         0         0         0    0    0    00000059000000001000002698000015918200
AE00TI102209200520/09/202200000000600000000000000001500KGM  00000001836KGM  7158-3003-90             RUBBER STOPPER           7158300390               0         0         0         0    0    0    00012000000002000000000012000014400000
AE00TI102209200520/09/202200000000200000000000000000236KGM  00000000375KGM  7158-3121-80             WIRE SEAL                7158312180               0         0         0         0    0    0    00004000000002000000000010000004000000
AE00TI102209200520/09/202200000000100000000000000001339KGM  00000001489KGM  7171-6291                HOUSING MALE             71716291                 0         0         0         0    0    0    00000019200000019200001625000003120000
AE00TI102209200520/09/202200000000500000000000000002989KGM  00000003606KGM  7198-1371                HOUSING FEMALE           71981371                 0         0         0         0    0    0    00001000000000200000000107000010700000
AE00TI102209200520/09/202200000000300000000000000002572KGM  00000002986KGM  7198-1372-60             HOUSING FEMALE           7198137260               0         0         0         0    0    0    00000600000000200000000149000008940000
AE00TI102209200520/09/202200000000600000000000000004931KGM  00000005684KGM  7198-1373                HOUSING FEMALE           71981373                 0         0         0         0    0    0    00001200000000200000000115000013800000
AE00TI102209200520/09/202200000001000000000000000000000KGM  00000000000KGM  7270-8994S               6P MODULE ASSEMBLY       72708994S                0         0         0         0    0    0    00000001000000000100000000000000000000
AE00TI102209200520/09/202200000000200000000000000001908KGM  00000002208KGM  7283-5830                CONNECTOR                72835830                 0         0         0         0    0    0    00001200000000600000000154000018480000
AE00TI102209200520/09/202200000000300000000000000002862KGM  00000003312KGM  7283-5830-30             CONNECTOR                7283583030               0         0         0         0    0    0    00001800000000600000000155000027900000
AE00TI102209200520/09/202200000000300000000000000002667KGM  00000003396KGM  7283-5843                CONNECTOR                72835843                 0         0         0         0    0    0    00000450000000150000000280000012600000
AE00TI102209200520/09/202200000000400000000000000001776KGM  00000002425KGM  7283-5845                CONNECTOR HOUSING        72835845                 0         0         0         0    0    0    00002400000000600000000133000031920000
AE00TI102209200520/09/202200000000100000000000000000444KGM  00000000606KGM  7283-5845-30             CONNECTOR HOUSING        7283584530               0         0         0         0    0    0    00000600000000600000000133000007980000
AE00TI102209200520/09/202200000000400000000000000003642KGM  00000004522KGM  7286-3885-40             CONNECTOR MALE ASS'Y     7286388540               0         0         0         0    0    0    00000480000000120000000313000015024000
AE00TI102209200520/09/202200000000500000000000000005148KGM  00000006248KGM  7287-3885-40             HYBRID FEMALE ASS'Y      7287388540               0         0         0         0    0    0    00001200000000240000000216000025920000
AE00TI102209200520/09/202200000000400000000000000001550KGM  00000003150KGM  7288-3206                HOUSING MALE ASS'Y       72883206                 0         0         0         0    0    0    00000408000000102000000351000014320800
AE00TI102209200520/09/202200000000100000000000000000686KGM  00000000901KGM  7289-3342-40             HOUSING FEMALE ASS'Y     7289334240               0         0         0         0    0    0    00000240000000240000000192000004608000
AE00TI102209200520/09/202200000000300000000000000002059KGM  00000002704KGM  7289-3342-90             HOUSING FEMALE ASS'Y     7289334290               0         0         0         0    0    0    00000720000000240000000196000014112000
AE00TI102209200520/09/202200000000200000000000000002304KGM  00000002724KGM  7289-6547                HOUSING FEMALE ASS'Y     72896547                 0         0         0         0    0    0    00000480000000240000000229000010992000
AE00TI102209200520/09/202200000003000000000000000016770KGM  00000024270KGM  7370-0310                J/B ASS'Y                73700310                 0         0         0         0    0    0    00000030000000001000031643000094929000
AE00TI102209200520/09/202200000001800000000000000023760KGM  00000028260KGM  7470-4481                J/B COMPLETE ASS'Y       74704481                 0         0         0         0    0    0    00000043200000002400000000000000000000
AE00TI102209200520/09/202200000002000000000000000000000KGM  00000000000KGM  7470-5783D               J/B COMPLETE ASS'Y       74705783D                0         0         0         0    0    0    00000030000000001500000000000000000000
AE00TI102209200520/09/202200000002000000000000000000000KGM  00000000000KGM  7470-5783E               J/B COMPLETE ASS'Y       74705783E                0         0         0         0    0    0    00000020000000001000000000000000000000
AE00TI102209200520/09/202200000001800000000000000000000KGM  00000000000KGM  7470-5784E               J/B COMPLETE ASS'Y       74705784E                0         0         0         0    0    0    00000018000000001000000000000000000000
AE00TI102209200520/09/202200000002000000000000000000000KGM  00000000000KGM  7470-5791D               J/B COMPLETE ASS'Y       74705791D                0         0         0         0    0    0    00000030000000001500000000000000000000
AE00TI102209200520/09/202200000001600000000000000007904KGM  00000010576KGM  7470-5933                J/B COMPLETE ASS'Y       74705933                 0         0         0         0    0    0    00000016000000001000000000000000000000
AE00TI102209200620/09/202200000000200000000000000000674KGM  00000001307KGM  7W40012-500              WIPPER CASE              7W40012500               0         0         0         0    0    0    00000019200000009600000210000000403200
AE00TI102209200620/09/202200000000800000000000000008150KGM  00000009573KGM  7116-2640                TERMINAL                 71162640                 0         0         0         0    0    0    00014400000001800000000028000040320000
AE00TI102209200620/09/202200000000800000000000000006269KGM  00000008162KGM  7116-2870                TERMINAL                 71162870                 0         0         0         0    0    0    00009600000001200000000042000040320000
AE00TI102209200620/09/202200000002000000000000000006612KGM  00000007720KGM  7158-3006-90             RUBBER STOPPER           7158300690               0         0         0         0    0    0    00040000000002000000000016000064000000
AE00TI102209200620/09/202200000001900000000000000006422KGM  00000007338KGM  7158-3009-60             RUBBER STOPPER           7158300960               0         0         0         0    0    0    00038000000002000000000012000045600000
AE00TI102209200620/09/202200000001600000000000000001664KGM  00000002438KGM  7158-3166-60             WIRE SEAL                7158316660               0         0         0         0    0    0    00064000000004000000000004000025600000
AE00TI102209200620/09/202200000004300000000000000002064KGM  00000004687KGM  7158-3167-80             WIRE SEAL                7158316780               0         0         0         0    0    0    00086000000002000000000005000043000000
AE00TI102209200620/09/202200000000600000000000000000936KGM  00000001225KGM  7158-3169-40             SEALING PLUG             7158316940               0         0         0         0    0    0    00024000000004000000000006000014400000
AE00TI102209200620/09/202200000000400000000000000000744KGM  00000000938KGM  7172-5540-80             SEALED WIRE SEAL         7172554080               0         0         0         0    0    0    00008000000002000000000010000008000000
AE00TI102209200620/09/202200000000400000000000000003130KGM  00000003970KGM  7282-4578                HOUSING MALE ASS'Y       72824578                 0         0         0         0    0    0    00000480000000120000000255000012240000
AE00TI102209200620/09/202200000000300000000000000003190KGM  00000003850KGM  7282-4855                HOUSING MALE ASS'Y       72824855                 0         0         0         0    0    0    00000360000000120000000347000012492000
AE00TI102209200620/09/202200000000100000000000000000651KGM  00000000871KGM  7283-4576                HOUSING FEMALE ASS'Y     72834576                 0         0         0         0    0    0    00000480000000480000000128000006144000
AE00TI102209200620/09/202200000000300000000000000002513KGM  00000003173KGM  7283-4578                HOUSING FEMALE ASS'Y     72834578                 0         0         0         0    0    0    00000720000000240000000190000013680000
AE00TI102209200620/09/202200000000100000000000000001378KGM  00000001687KGM  7283-5833                CONNECTOR HOUSING        72835833                 0         0         0         0    0    0    00000364000000364000000252000009172800
AE00TI102209200620/09/202200000000200000000000000000888KGM  00000001213KGM  7283-5845                CONNECTOR HOUSING        72835845                 0         0         0         0    0    0    00001200000000600000000133000015960000
AE00TI102209200620/09/202200000000100000000000000000914KGM  00000001143KGM  7283-6120                CONNECTOR HOUSING        72836120                 0         0         0         0    0    0    00000150000000150000000368000005520000
AE00TI102209200620/09/202200000000800000000000000007285KGM  00000009045KGM  7286-3885                CONNECTOR MALE ASS'Y     72863885                 0         0         0         0    0    0    00000960000000120000000295000028320000
AE00TI102209200620/09/202200000000200000000000000001821KGM  00000002261KGM  7286-3885-40             CONNECTOR MALE ASS'Y     7286388540               0         0         0         0    0    0    00000240000000120000000313000007512000
AE00TI102209200620/09/202200000000100000000000000000667KGM  00000000923KGM  7287-1915                CONNECTOR ASS'Y          72871915                 0         0         0         0    0    0    00000240000000240000000161000003864000
AE00TI102209200620/09/202200000000400000000000000004118KGM  00000004998KGM  7287-3885                HYBRID FEMALE ASS'Y      72873885                 0         0         0         0    0    0    00000960000000240000000207000019872000
AE00TI102209200620/09/202200000000500000000000000005832KGM  00000006932KGM  7287-8073                HOUSING FEMALE ASS'Y     72878073                 0         0         0         0    0    0    00001200000000240000000244000029280000
AE00TI102209200620/09/202200000001000000000000000003876KGM  00000007876KGM  7288-3206                HOUSING MALE ASS'Y       72883206                 0         0         0         0    0    0    00001020000000102000000351000035802000
AE00TI102209200620/09/202200000002500000000000000017160KGM  00000022535KGM  7289-3342                HOUSING FEMALE ASS'Y     72893342                 0         0         0         0    0    0    00006000000000240000000186000111600000
AE00TI102209200620/09/202200000001000000000000000006864KGM  00000009014KGM  7289-3342-30             HOUSING FEMALE ASS'Y     7289334230               0         0         0         0    0    0    00002400000000240000000191000045840000
AE00TI102209200620/09/202200000000900000000000000006178KGM  00000008113KGM  7289-3342-40             HOUSING FEMALE ASS'Y     7289334240               0         0         0         0    0    0    00002160000000240000000192000041472000
AE00TI102209200620/09/202200000002200000000000000015101KGM  00000019831KGM  7289-3342-90             HOUSING FEMALE ASS'Y     7289334290               0         0         0         0    0    0    00005280000000240000000196000103488000
AE00TI102209200620/09/202200000000100000000000000001152KGM  00000001362KGM  7289-6547                HOUSING FEMALE ASS'Y     72896547                 0         0         0         0    0    0    00000240000000240000000229000005496000
AE00TI102209200620/09/202200000000200000000000000002076KGM  00000002265KGM  7388-0314                CONNECTOR ASS'Y          73880314                 0         0         0         0    0    0    00000240000000120000000364000008736000
AE00TI102209200620/09/202200000001800000000000000023760KGM  00000028260KGM  7470-3082                J/B COMPLETE ASS'Y       74703082                 0         0         0         0    0    0    00000043200000002400031298000135207360
AE00TI102209200620/09/202200000001500000000000000000000KGM  00000000000KGM  7470-5784D               J/B COMPLETE ASS'Y       74705784D                0         0         0         0    0    0    00000022500000001500000000000000000000
AE00TI102209200620/09/202200000001800000000000000000000KGM  00000000000KGM  7470-5784E               J/B COMPLETE ASS'Y       74705784E                0         0         0         0    0    0    00000018000000001000000000000000000000
