BI00A1200    #CE22-MN-0109  202209297173-6362                ELEMENT COVER            CCN000005000000005430FN00000000020220901000005430NNED0020220920130042    2F0F  0000018100000000000000000001200    YCYC    000000000000
BI00B1200    Y12I1602D      202210067288-3334-30             HOUSING MALE             CCN000001500000001500FN00000000020221001000001500NNE   20220920130042    4N0N  0000015000000086700000101201200    YCYC    005400370024
BI00B32B1    A22049         202211187282-5553-30             CONNECTOR                CCN000002000000002000FN00000000020230101000002000NNM   20220920130042B1  4N0N  00000100000001010000001187332B1    AXARNE-M005500360039
BI00B32B1    #A22049        202211187158-3376-50             CONNECTOR WIRE SEAL      CCN000120000000120000FN00000000020230101000120000NNM   20220920130042B1  2C0C  00002000000000184000000240732B1    AXARNE-M002700430014
BI00B32B6    A72049         202211187158-3167-80             WIRE SEAL                CCN000180000000180000FN00000000020230101000180000NNM   20220920130042B6  1C0C  00002000000000048000000109032B6    AXARNE-M002700430014
BI00B32B6    A72049         202211187158-3168-80             SEALED                   CCN000040000000040000FN00000000020230101000040000NNM   20220920130042B6  1C0C  00002000000000044000000092132B6    AXARNE-M004300260014
BI00B32B6    #A72049        202211187158-3003-90             RUBBER STOPPER           CCN000060000000060000FN00000000020230101000060000NNM   20220920130042B6  2C0C  00002000000000250000000306032B6    AXARNE-M002700430014
BI00B32B7    A82049         202211187282-6448-40             CONNECTOR                CCN000015200000015200FN00000000020230201000015200NNM   20220920130042B7  4N0N  00000080000000887000001152732B7    AXARNE-M005600390040
BI00B32B7    #A82049        202211187158-3376-50             CONNECTOR WIRE SEAL      CCN000060000000060000FN00000000020230201000060000NNM   20220920130042B7  2C0C  00002000000000184000000240732B7    AXARNE-M002700430014
BI00B32B7    #A82049        202211187283-8397-40             CONNECTOR                CCN000009240000009240FN00000000020230201000009240NNM   20220920130042B7  2N0N  00000154000001007000001222732B7    AXARNE-M005600390023
BI00B32CH    SJ2210ADMW     202209227196-2026-02             TERMINAL FEMALE          CCN000018000000018000FN00000000020221001000018000NNED0020220920165301    4P0P  00001800000000774000000937432CH    SJSAMIJF005100280028
BI00A32CH    #QA-22-C078    202209207187-8856                HOUSING FEMALE           PNN000030000000032000FY00003200020220901000000000NNED0020220920150529    2F0F  00000200000000820000000931532CH    SJSAMIJF005400370024
BI00B32CH    SJ2210EDMW     202209297298-3484                HOUSING FEMALE ASS'Y     CCN000002700000002700FN00000000020221001000002700NNE   20220920130042    4N0N  00000270000000742500001028732CH    SJSAMIJF005400370024
BI00A32D1    DFTC2245J      202210207285-1755-0W             HOUSING FEMALE ASS'Y     CCN000001120000001120FN00000000020221201000001120NNED0120220920141332    4N0N  00000014000000641700000867232D1    TOYOT-K 005500360039
BI00A32D1    #DFTC2245J     202210207137-3420-30             UNIT PACKING             CCN000001000000001000FN00000000020221201000001000NNED0120220920141326    2F0F  00000100000000157300000202032D1    TOYOT-K 004300270014
BI00A32D1    #DFTC2245J     202210207185-1757                HOUSING FEMALE           CCN000001000000001000FN00000000020221201000001000NNED0120220920141326    2F0F  00000100000000575700000701832D1    TOYOT-K 005400370024
BI00A32D1    #DFTC2245J     202210207185-6056                REAR COVER               CCN000001440000001440FN00000000020221201000001440NNED0120220920141326    2F0F  00000048000000784400000954632D1    TOYOT-K 005400370024
BI00A32D1    #DFTC2245J     202210207185-9378-51             FRONT HOLDER             CCN000001000000001000FN00000000020221201000001000NNED0120220920141326    2F0F  00000100000000278500000393732D1    TOYOT-K 005400370024
BI00B32D9    QA-22-S037     202209227158-3006-90             RUBBER STOPPER           PNN000020000000020000FN00000000020220901000020000NNED0020220920130042    1C0C  00002000000000330600000386032D9    UEHESTO 002700430014
BI00B32EJ    #T220919P02    202210207158-3120-90             CONNECTOR WIRE SEAL      CCN000120000000120000FN00000000020221001000120000NNE   20220920154907EJ  2C0C  00002000000000136000000194032EJ    EJYKBO  002700430014
BI00B32EJ    #T220919P02    202210207158-3374-90             CONNECTOR WIRE SEAL      CCN000020000000020000FN00000000020221001000020000NNE   20220920154907EJ  2H0H  00002000000000172000000229332EJ    EJYKBO  002700430014
BI00B32EJ    #T220919P03    202210207158-3120-90             CONNECTOR WIRE SEAL      CCN000040000000040000FN00000000020221001000040000NNE   20220920154943EJ  2C0C  00002000000000136000000194032EJ    EJYKBO  002700430014
BI00B32EJ    #T220919P03    202210207283-8397-40             CONNECTOR                CCN000030800000030800FN00000000020221001000030800NNE   20220920154943EJ  2N0N  00000154000001007000001222732EJ    EJYKBO  005600390023
BI00B32EJ    #T220919P03    202210207123-7564-40             CONNECTOR                CCN000001000000001000FN00000000020221001000001000NNE   20220920154943EJ  2F0F  00000100000001301000001479032EJ    EJYKBO  005600390040
BI00B32EJ    T220919P01     202211037116-1231                TERMINAL                 CCN000096000000096000FN00000000020221101000096000NNE   20220920160248EJ  4P0P  00001200000000633600000921832EJ    EJYKBO  006400630015
BI00B32EJ    #T220919P01    202211037157-3646                RUBBER STOPPER           CCN000020000000020000FN00000000020221101000020000NNE   20220920155000EJ  2H0H  00002000000000184000000255232EJ    EJYKBO  002700430014
BI00B32H2    TIJ2111        202209307283-4854                CONNECTOR HOUSING        CCN000002400000002400FN00000000020221101000002400NNMD0020220920161424    4N0N  00000240000000694100000914132H2    HVYHV   005500360039
BI00B32H2    TIJ2112        202210177287-9323-40             UNSEALED HOUSING SUB     CCN000002400000002400FN00000000020221101000002400NNMD0020220920161453    1N0N  00000240000000537600000690032H2    HVYHV   005600390023
BI00B32H2    TIJ2112        202210177386-9155                CONNECTOR MALE ASS'Y     CCN000000600000000600FN00000000020221101000000600NNMD0020220920161519    4N0N  00000060000001244400001369932H2    HVYHV   005400370024
BI00B32H2    #TIJ2114       202210287183-2413-40             CONNECTOR HOUSING        CCN000004800000004800FN00000000020221101000004800NNMD0020220920161202    2F0F  00000480000000479000000761032H2    HVYHV   005500360039
BI00B32H2    #TIJ2114       202210177189-3038-30             HOUSING                  CCN000001600000001600FN00000000020221101000001600NNMD0020220920165250    2F0F  00000160000000921600001141632H2    HVYHV   005500360039
BI00B32H2    #TIJ2114       202210217287-1670                HOUSING FEMALE ASS'Y     CCN000002800000002800FN00000000020221101000002800NNMD0020220920165330    2N0N  00000280000000953100001145132H2    HVYHV   005400370024
BI00B32H2    TIJ211D        202210287283-4577                CONNECTOR HOUSING        CCN000004800000004800FN00000000020221101000004800NNED0020220920161332    4N0N  00000480000000916800001136832H2    HVYHV   005500360039
BI00A32J1    398041         202209267198-1867-10             HOUSING FEMALE           CCN000002400000002400FN00000000020220901000002400NNE00020220920141932    1F0F  00000240000000772100000904432J1    UKYEL-BL005500360039
BI00A32J1    398501         202210037298-1867-10             HOUSING FEMALE ASS'Y     CCN000002400000002400FN00000000020221001000002400NNE   20220920130042    4N0N  00000240000000998400001213332J1    UKYEL-BL005500360039
BI00A32J1    398501         202210037298-2280-30             HOUSING FEMALE ASS'Y     CCN000001920000001920FN00000000020221001000001920NNE   20220920130042    4N0N  00000192000001068000001216032J1    UKYEL-BL005500360039
BI00A32J1    398501         202210037298-2509-30             HOUSING FEMALE ASS'Y     CCN000001200000000000FY00000000020221001000000000NNEQ0820220920165755    4N0N  00000120000000857500001062532J1    UKYEL-BL005500360039
BI00B32J1    #398503        202210317282-6457-40             CONNECTOR                CCN000004800000004800FN00000000020221001000004800NNE   20220920130042    2N0N  00000080000001137000001421332J1    UKYEL-BL005600390040
BI00B32N1    NST2123ECU     202210207283-5845                CONNECTOR HOUSING        CCN000054000000006000FN00000000020221101000006000NNED0120220920130042    1N0N  00000600000000444000000606332N1    TAYIPL  005400370024
BI00B32N1    NST2123ECU     202210277283-5845                CONNECTOR HOUSING        CCN000012000000012000FN00000000020221101000012000NNED0120220920130042    1N0N  00000600000000444000000606332N1    TAYIPL  005400370024
BI00B32N1    NST2123ECU     202211037283-5845                CONNECTOR HOUSING        CCN000006000000006000FN00000000020221101000006000NNED0120220920130042    1N0N  00000600000000444000000606332N1    TAYIPL  005400370024
BI00B32N1    NST2123ECU     202211107283-5845                CONNECTOR HOUSING        CCN000012000000012000FN00000000020221101000012000NNED0120220920130042    1N0N  00000600000000444000000606332N1    TAYIPL  005400370024
BI00B32N1    NST2123ECU     202211177283-5845                CONNECTOR HOUSING        CCN000006000000006000FN00000000020221101000006000NNED0120220920130042    1N0N  00000600000000444000000606332N1    TAYIPL  005400370024
BI00B32N1    NST2123ECU     202211247283-5845                CONNECTOR HOUSING        CCN000011200000012000FN00000000020221101000012000NNED0120220920130042    1N0N  00000600000000444000000606332N1    TAYIPL  005400370024
BI00B32R7    R-TAP220414    202210067158-3169-40             SEALING PLUG             CCN000080000000080000FN00000000020221001000080000NNE   20220920130042    1C0C  00004000000000156000000204132R7    IVYCIC  004300260014
BI00A32U5    DI2043         202209227298-4094-10             HOUSING FEMALE ASS'Y     CCN000003380000003380FN00000000020221201000003380NNMM0020220920142820U5  4N0N  00000338000001097400001358732U5    AMAMSD  005400370024
BI00B32U5    DI2049         202211187116-4037                TERMINAL                 CCN000036000000036000FN00000000020230101000036000NNM   20220920130042U5  4P0P  00000600000000600000000894232U5    AMAMSD  006400630015
BI00B32U5    DI2049         202211187289-3342                HOUSING FEMALE ASS'Y     CCN000014400000014400FN00000000020230101000014400NNM   20220920130042U5  1N0N  00000240000000686400000901432U5    AMAMSD  005500360039
BI00B32U5    DI2049         202211187017-1180-02             TERMINAL                 CCN000216000000216000FN00000000020230101000216000NNM   20220920130042U5  4P0P  00007200000001065600001229032U5    AMAMSD  005100280028
BI00B32U5    DI2049         202211187114-4624-02             TERMINAL                 CCN000072000000072000FN00000000020230101000072000NNM   20220920130042U5  4P0P  00002400000000895200001188832U5    AMAMSD  006400630015
BI00B32U5    DI2049         202211187116-1685-02             TERMINAL                 CCN000264000000264000FN00000000020230101000264000NNM   20220920130042U5  4P0P  00002400000000897600001065232U5    AMAMSD  005100280028
BI00B32U5    DI2049         202211187116-1686-02             TERMINAL                 CCN000021000000021000FN00000000020230101000021000NNM   20220920130042U5  4P0P  00002100000000869400001021632U5    AMAMSD  005100280028
BI00B32U5    DI2049         202211187116-4486-02             TERMINAL                 CCN000196000000196000FN00000000020230101000196000NNM   20220920130042U5  4P0P  00002800000000666400000995132U5    AMAMSD  006400630017
BI00B32U5    DI2049         202211187116-5046-02             TERMINAL                 CCN000072000000072000FN00000000020230101000072000NNM   20220920130042U5  4P0P  00001200000000544800000873532U5    AMAMSD  006400630017
BI00B32U5    DI2049         202211187196-1104-02             TERMINAL                 CCN000292500000292500FN00000000020230101000292500NNM   20220920130042U5  4P0P  00002250000000441000000726232U5    AMAMSD  006400630015
BI00B32U5    DI2049         202211187283-9458-30             CONNECTOR                CCN000002400000002400FN00000000020230101000002400NNM   20220920130042U5  4N0N  00000020000000792000000984332U5    AMAMSD  005600390023
BI00B32U5    DI2049         202211187288-3330-30             HOUSING MALE             CCN000004500000004500FN00000000020230101000004500NNM   20220920130042U5  4N0N  00000150000000866300001011232U5    AMAMSD  005400370024
BI00B32U5    DI2049         202211187289-3342-30             HOUSING FEMALE ASS'Y     CCN000040800000040800FN00000000020230101000040800NNM   20220920130042U5  1N0N  00000240000000686400000901432U5    AMAMSD  005500360039
BI00B32U5    DI2049         202211187283-9457-3W             CONNECTOR                CCN000002520000002520FN00000000020230101000002520NNM   20220920130042U5  4N0N  00000012000000515000001067032U5    AMAMSD  005600390023
BI00B32U5    DI2049         202211187327-6731-3W             BATTERY FUSE             CCN000002048000002048FN00000000020230101000002048NNM   20220920130042U5  4N0N  00000006400000697600000843032U5    AMAMSD  005400370024
BI00B32U5    #DI2049        202211187189-3032                HOUSING FEMALE           CCN000006400000006400FN00000000020230101000006400NNM   20220920130042U5  2F0F  00000160000000788400001018432U5    AMAMSD  005500360039
BI00B32U5    #DI2049        202211187287-7859                HYBRID FEMALE ASS'Y      CCN000009600000009600FN00000000020230101000009600NNM   20220920130042U5  2N0N  00000120000000461600000671632U5    AMAMSD  005500360039
BI00B32U5    #DI2049        202211187158-3003-90             RUBBER STOPPER           CCN000160000000160000FN00000000020230101000160000NNM   20220920130042U5  2C0C  00002000000000250000000306032U5    AMAMSD  002700430014
BI00B32U5    #DI2049        202211187158-3004-40             RUBBER STOPPER           CCN000020000000020000FN00000000020230101000020000NNM   20220920130042U5  2C0C  00002000000000234000000306332U5    AMAMSD  002700430014
BI00B32U5    #DI2049        202211187158-3007-10             RUBBER STOPPER           CCN000120000000120000FN00000000020230101000120000NNM   20220920130042U5  2H0H  00002000000000308000000362732U5    AMAMSD  002700430014
BI00B32U5    #DI2049        202211187158-3008-80             RUBBER STOPPER           CCN000040000000040000FN00000000020230101000040000NNM   20220920130042U5  2C0C  00002000000000288000000343032U5    AMAMSD  004300270014
BI00B32U5    #DI2049        202211187158-3376-50             CONNECTOR WIRE SEAL      CCN000060000000060000FN00000000020230101000060000NNM   20220920130042U5  2C0C  00002000000000184000000240732U5    AMAMSD  002700430014
BI00B32U5    #DI2049        202211187172-5626-90             RUBBER STOPPER           CCN000340000000340000FN00000000020230101000340000NNM   20220920130042U5  2H0H  00002000000000076400000127832U5    AMAMSD  004300270014
BI00B32U5    #DI2049        202211187172-5627-60             RUBBER STOPPER           CCN000240000000240000FN00000000020230101000240000NNM   20220920130042U5  2H0H  00002000000000070400000121832U5    AMAMSD  004300270014
BI00B32U5    #DI2049        202211187172-5628-80             DUMMY PLUG               CCN000160000000160000FN00000000020230101000160000NNM   20220920130042U5  2H0H  00002000000000110600000162032U5    AMAMSD  004300270014
BI00B32U5    #DI2049        202211187172-5629-80             RUBBER STOPPER           CCN000160000000160000FN00000000020230101000160000NNM   20220920130042U5  2H0H  00002000000000060000000111132U5    AMAMSD  004300270014
BI00B32U5    #DI2049        202211187172-5631-60             RUBBER STOPPER           CCN000240000000240000FN00000000020230101000240000NNM   20220920130042U5  2H0H  00002000000000042000000093132U5    AMAMSD  004300270014
BI00B32U5    #DI2049        202211187172-5632-10             DUMMY PLUG               CCN000220000000220000FN00000000020230101000220000NNM   20220920130042U5  2H0H  00002000000000080400000131832U5    AMAMSD  004300270014
BI00B32U5    #DI2049        202211187182-8253-40             HOUSING                  CCN000002400000002400FN00000000020230101000002400NNM   20220920130042U5  2F0F  00000120000000573000000864032U5    AMAMSD  005600390040
BI00B32U5    #DI2049        202211187287-1915-40             CONNECTOR ASS'Y          CCN000004800000004800FN00000000020230101000004800NNM   20220920130042U5  2N0N  00000240000000666500000923132U5    AMAMSD  005500360039
BI00B32U5    #DI2049        202211187289-4200-30             HOUSING FEMALE ASS'Y     CCN000020000000020000FN00000000020230101000020000NNM   20220920130042U5  2N0N  00000200000000926000001021032U5    AMAMSD  005400370024
BI00A32U9    TP0415S        202209267298-1149-3W             SQUIB SUB ASS'Y          CCN000010000000010000FN00000000020221101000010000NNEM0020220920142725U9  4N0N  00001000000000785000000922032U9    YNYNA-E 005400370024
BI00B32U9    TP0415S        202209297222-4220-30             CONNECTOR                CCN000003000000000750FN00000000020221101000000750NNE00020220920141517U9  4N0N  00000075000001219000001384032U9    YNYNA-E 005600390040
BI00A32U9    TP0415S        202209267282-7301-40             CONNECTOR                CCN000001500000001500FN00000000020221101000001500NNEM0020220920142725U9  4N0N  00000150000001125000001497932U9    YNYNA-E 005500360039
BI00A32U9    TP0415S        202209267196-0805-02             TERMINAL FEMALE          CCN000045000000045000FN00000000020221101000045000NNEM0020220920142725U9  4P0P  00002250000000558000000843232U9    YNYNA-E 006400630015
BI00B32U9    TPA243         202209297116-2951-02             TERMINAL                 CCN000064800000043200FN00000000020221101000043200NNM00020220920141517U9  4P0P  00000540000000817600001111832U9    YNYNA-E 006400630015
BI00A32U9    TPA243         202209267282-7301-40             CONNECTOR                CCN000001500000001500FN00000000020221101000001500NNMM0020220920142725U9  4N0N  00000150000001125000001497932U9    YNYNA-E 005500360039
BI00B32U9    TPA244         202210067116-1257-02             TERMINAL                 CCN000048000000024000FN00000000020221201000024000NNMD0020220920130042U9  4P0P  00002400000000518400000847132U9    YNYNA-E 006400630017
BI00B32U9    #TPA244        202210067282-6457-40             CONNECTOR                CCN000003200000001600FN00000000020221201000001600NNMD0020220920130042U9  2N0N  00000080000001137000001421332U9    YNYNA-E 005600390040
BI00B32U9    #TPA245        202210067282-8395-40             CONNECTOR                CCN000018000000003000FN00000000020221201000003000NNMD0020220920130042U9  2N0N  00000100000001009000001188032U9    YNYNA-E 005500360039
BI00A32U9    #TPA244        202209267282-6457-40             CONNECTOR                CCN000001600000001600FN00000000020221201000001600NNMM0020220920142634U9  2N0N  00000080000001137000001421332U9    YNYNA-E 005600390040
BI00A32U9    TP0415S        202209267222-4220-30             CONNECTOR                CCN000002250000002250FN00000000020221101000002250NNEM0020220920142725U9  4N0N  00000075000001219000001384032U9    YNYNA-E 005600390040
BI00A32U9    #TPA245        202209267282-8395-40             CONNECTOR                CCN000015000000015000FN00000000020221201000015000NNMM0020220920142634U9  2N0N  00000100000001009000001188032U9    YNYNA-E 005500360039
BI00A32U9    TPA243         202209267116-2951-02             TERMINAL                 CCN000021600000021600FN00000000020221101000021600NNMM0020220920142725U9  4P0P  00000540000000817600001111832U9    YNYNA-E 006400630015
BI00A32U9    TPA244         202209267116-1257-02             TERMINAL                 CCN000024000000024000FN00000000020221201000024000NNMM0020220920142725U9  4P0P  00002400000000518400000847132U9    YNYNA-E 006400630017
BI00B32W4    4500197937     202209297114-4100-02             TERMINAL                 CCN000054000000054000FN00000000020221001000054000NNED0020220920142711W4464P0P  00001800000000748800001077432W446  HJYHK   006400630017
BI00B32W4    4500197937     202209297158-3168-80             SEALED                   CCN000020000000020000FN00000000020221001000020000NNED0020220920142711W4461C0C  00002000000000044000000092132W446  HJYHK   004300260014
BI00B32W4    4500198392     202209297114-4100-02             TERMINAL                 CCN000018000000018000FN00000000020221001000018000NNED0020220920142821W4464P0P  00001800000000748800001077432W446  HJYHK   006400630017
BI00B32W4    4500198392     202209297114-1470                TERMINAL                 CCN000016500000016500FN00000000020221001000016500NNED0020220920142821W4464P0P  00001650000000544500000838732W446  HJYHK   006400630015
BI00B32W4    4500200565     202211107283-7028-30             CONNECTOR                CCN000030000000030000FN00000000020221001000030000NNED0220220920130042W4514N0N  00000300000001452000001681332W451  HJ32W9  005600390040
BI00B32W4    4500200747     202210067116-4111-02             TERMINAL                 CCN000052500000052500FN00000000020221001000052500NNE   20220920160616W4P74P0P  00000750000000529500000817732W4P7  HJYHK   006400630015
BI00B32W4    4500200750     202210067116-4111-02             TERMINAL                 CCN000045000000045000FN00000000020221001000045000NNE   20220920160642W4P74P0P  00000750000000529500000817732W4P7  HJYHK   006400630015
BI00B32W4    4500200764     202210067116-4111-02             TERMINAL                 CCN000030000000030000FN00000000020221001000030000NNE   20220920160706W4P74P0P  00000750000000529500000817732W4P7  HJYHK   006400630015
BI00B32W4    #4500200767    202210207183-2414                CONNECTOR HOUSING        CCN000009600000009600FN00000000020221001000009600NNE   20220920160730W4372F0F  00000480000000779200001061032W437  HJYHK   005500360039
BI00B32W4    #4500200768    202210067283-8397-40             CONNECTOR                CCN000003080000003080FN00000000020221001000003080NNE   20220920160756W46 2N0N  00000154000001007000001222732W46   HJYHK   005600390023
BI00B32W4    4500200776     202211157114-1670-02             TERMINAL                 CCN000024000000024000FN00000000020221101000024000NNE   20220920160821W41 1P0P  00002400000000357600000645832W41   HJYHK   006400630015
BI00B32W9    #4500200737    202211157147-8931-30             CLIP                     CCN000004500000004500FN00000000020221101000004500NNE   20220920160559W9  2F0F  00000450000000387000000531732W9    HKYHK   005600390023
BI00B32X5    TIB2049        202211187114-4031                TERMINAL                 CCN000010500000010500FN00000000020230101000010500NNM   20220920130042X5  4P0P  00001050000000966000001294632X5    EPYNA-E 006400630017
BI00B32X5    TIB2049        202211187114-6041                TERMINAL                 CCN000003600000003600FN00000000020230101000003600NNM   20220920130042X5  4P0P  00000360000000580700000824232X5    EPYNA-E 006400630015
BI00B32X5    TIB2049        202211187116-4037                TERMINAL                 CCN000048000000048000FN00000000020230101000048000NNM   20220920130042X5  4P0P  00000600000000600000000894232X5    EPYNA-E 006400630015
BI00B32X5    TIB2049        202211187297-3482                JOINT CONNECTOR          CCN000008100000008800FN00000000020230101000008800NNM   20220920130042X5  4N0N  00000080000000621000000730532X5    EPYNA-E 005400370024
BI00B32X5    TIB2049        202211187017-1180-02             TERMINAL                 CCN000288000000288000FN00000000020230101000288000NNM   20220920130042X5  4P0P  00007200000001065600001229032X5    EPYNA-E 005100280028
BI00B32X5    TIB2049        202211187017-1182-02             TERMINAL                 CCN000045000000045000FN00000000020230101000045000NNM   20220920130042X5  4P0P  00004500000001165500001318632X5    EPYNA-E 005100280028
BI00B32X5    TIB2049        202211187114-4486-02             TERMINAL                 CCN000072000000072000FN00000000020230101000072000NNM   20220920130042X5  4P0P  00002400000000662400000956032X5    EPYNA-E 006400630015
BI00B32X5    TIB2049        202211187116-1685-02             TERMINAL                 CCN000024000000024000FN00000000020230101000024000NNM   20220920130042X5  4P0P  00002400000000897600001065232X5    EPYNA-E 005100280028
BI00B32X5    TIB2049        202211187116-2951-02             TERMINAL                 CCN000010800000010800FN00000000020230101000010800NNM   20220920130042X5  4P0P  00000540000000817600001111832X5    EPYNA-E 006400630015
BI00B32X5    TIB2049        202211187116-4486-02             TERMINAL                 CCN000140000000140000FN00000000020230101000140000NNM   20220920130042X5  4P0P  00002800000000666400000995132X5    EPYNA-E 006400630017
BI00B32X5    TIB2049        202211187116-5045-02             TERMINAL                 CCN000256000000256000FN00000000020230101000256000NNM   20220920130042X5  4P0P  00001600000000678400001007132X5    EPYNA-E 006400630017
BI00B32X5    TIB2049        202211187116-5046-02             TERMINAL                 CCN000072000000072000FN00000000020230101000072000NNM   20220920130042X5  4P0P  00001200000000544800000873532X5    EPYNA-E 006400630017
BI00B32X5    TIB2049        202211187137-3047-30             UNIT PACKING             CCN000009000000009000FN00000000020230101000009000NNM   20220920130042X5  1C0C  00000100000000170500000218932X5    EPYNA-E 002700430014
BI00B32X5    TIB2049        202211187172-5402-30             SEAL RUBBER              CCN000016000000016000FN00000000020230101000016000NNM   20220920130042X5  1C0C  00000800000000457600000506032X5    EPYNA-E 004300270014
BI00B32X5    TIB2049        202211187172-5403-30             SEALED PACKING           CCN000016000000016000FN00000000020230101000016000NNM   20220920130042X5  1C0C  00000400000000653600000701732X5    EPYNA-E 004300270014
BI00B32X5    TIB2049        202211187195-0783-08             TERMINAL                 CCN000030000000030000FN00000000020230101000030000NNM   20220920130042X5  4P0P  00003000000000507000000801232X5    EPYNA-E 006400630015
BI00B32X5    TIB2049        202211187196-0396-02             TERMINAL                 CCN000030000000030000FN00000000020230101000030000NNM   20220920130042X5  4P0P  00001500000000949500001112932X5    EPYNA-E 002800510028
BI00B32X5    TIB2049        202211187196-1102-02             TERMINAL                 CCN000022500000022500FN00000000020230101000022500NNM   20220920130042X5  4P0P  00002250000000405000000690232X5    EPYNA-E 006400630015
BI00B32X5    TIB2049        202211187196-1104-02             TERMINAL                 CCN000157500000157500FN00000000020230101000157500NNM   20220920130042X5  4P0P  00002250000000441000000726232X5    EPYNA-E 006400630015
BI00B32X5    TIB2049        202211187282-5574-10             CONNECTOR                CCN000012000000012000FN00000000020230101000012000NNM   20220920130042X5  4N0N  00000080000001235000001423032X5    EPYNA-E 005600390040
BI00B32X5    TIB2049        202211187288-6598-70             HOUSING MALE ASS'Y       CCN000002880000002880FN00000000020230101000002880NNM   20220920130042X5  4N0N  00000144000001074200001429232X5    EPYNA-E 005500360039
BI00B32X5    TIB2049        202211187289-3342-30             HOUSING FEMALE ASS'Y     CCN000076800000076800FN00000000020230101000076800NNM   20220920130042X5  1N0N  00000240000000686400000901432X5    EPYNA-E 005500360039
BI00B32X5    TIB2049        202211187289-3342-40             HOUSING FEMALE ASS'Y     CCN000004800000004800FN00000000020230101000004800NNM   20220920130042X5  1N0N  00000240000000686400000901432X5    EPYNA-E 005500360039
BI00B32X5    TIB2049        202211187289-3342-90             HOUSING FEMALE ASS'Y     CCN000009600000009600FN00000000020230101000009600NNM   20220920130042X5  1N0N  00000240000000686400000901432X5    EPYNA-E 005500360039
BI00B32X5    TIB2049        202211187289-5979-30             HOUSING FEMALE ASS'Y     CCN000002016000002016FN00000000020230101000002016NNM   20220920130042X5  1N0N  00000025200000854700001064732X5    EPYNA-E 005400370024
BI00B32X5    TIB2049        202211187289-6518-30             HOUSING FEMALE ASS'Y     CCN000002400000002400FN00000000020230101000002400NNM   20220920130042X5  1N0N  00000120000000829200001049232X5    EPYNA-E 005500360039
BI00B32X5    TIB2049        202211187295-0785-02             TERMINAL ALUMINIUM       CCN000025500000025500FN00000000020230101000025500NNM   20220920130042X5  4P0P  00002550000000510000000803632X5    EPYNA-E 006400630015
BI00B32X5    TIB2049        202211187296-0784-02             TERMINAL ALUMINIUM       CCN000096000000096000FN00000000020230101000096000NNM   20220920130042X5  4P0P  00002400000000480000000765232X5    EPYNA-E 006400630015
BI00B32X5    TIB2049        202211187388-2978-30             HOUSING MALE ASS'Y       CCN000014400000014400FN00000000020230101000014400NNM   20220920130042X5  1N0N  00000048000000742000001122032X5    EPYNA-E 005500360039
BI00B32X5    TIB2049        202211187327-6731-3W             BATTERY FUSE             CCN000003776000003776FN00000000020230101000003776NNM   20220920130042X5  4N0N  00000006400000697600000843032X5    EPYNA-E 005400370024
BI00B32X5    TIB2049        202211187B96-0805-02             TERMINAL FEMALE          CCN000022500000022500FN00000000020230101000022500NNM   20220920130042X5  4P0P  00002250000000558000000843232X5    EPYNA-E 006400630015
BI00B32X5    #TIB2049       202211187147-9094                RETAINER                 CCN000003000000003000FN00000000020230101000003000NNM   20220920130042X5  2F0F  00000300000000717000000872932X5    EPYNA-E 005500360039
BI00B32X5    #TIB2049       202211187158-3017                RUBBER STOPPER           CCN000030000000030000FN00000000020230101000030000NNM   20220920130042X5  2C0C  00001000000000375500000435032X5    EPYNA-E 002700430014
BI00B32X5    #TIB2049       202211187287-7859                HYBRID FEMALE ASS'Y      CCN000012000000012000FN00000000020230101000012000NNM   20220920130042X5  2N0N  00000120000000461600000671632X5    EPYNA-E 005500360039
BI00B32X5    #TIB2049       202211187154-3424-30             REAR HOLDER              CCN000009000000009000FN00000000020230101000009000NNM   20220920130042X5  2F0F  00000300000000975000001138632X5    EPYNA-E 005500360039
BI00B32X5    #TIB2049       202211187158-3003-90             RUBBER STOPPER           CCN000140000000140000FN00000000020230101000140000NNM   20220920130042X5  2C0C  00002000000000250000000306032X5    EPYNA-E 002700430014
BI00B32X5    #TIB2049       202211187158-3004-40             RUBBER STOPPER           CCN000140000000140000FN00000000020230101000140000NNM   20220920130042X5  2C0C  00002000000000234000000306332X5    EPYNA-E 002700430014
BI00B32X5    #TIB2049       202211187158-3005-80             RUBBER STOPPER           CCN000020000000020000FN00000000020230101000020000NNM   20220920130042X5  2H0H  00002000000000210000000268732X5    EPYNA-E 002700430014
BI00B32X5    #TIB2049       202211187158-3007-10             RUBBER STOPPER           CCN000200000000200000FN00000000020230101000200000NNM   20220920130042X5  2H0H  00002000000000308000000362732X5    EPYNA-E 002700430014
BI00B32X5    #TIB2049       202211187158-3008-80             RUBBER STOPPER           CCN000100000000100000FN00000000020230101000100000NNM   20220920130042X5  2C0C  00002000000000288000000343032X5    EPYNA-E 004300270014
BI00B32X5    #TIB2049       202211187158-3610-80             RUBBER STOPPER           CCN000003000000003000FN00000000020230101000003000NNM   20220920130042X5  2H0H  00000300000000396900000438932X5    EPYNA-E 004300270014
BI00B32X5    #TIB2049       202211187172-5625-90             RUBBER STOPPER           CCN000040000000040000FN00000000020230101000040000NNM   20220920130042X5  2H0H  00002000000000082400000133832X5    EPYNA-E 004300270014
BI00B32X5    #TIB2049       202211187172-5627-60             RUBBER STOPPER           CCN000020000000020000FN00000000020230101000020000NNM   20220920130042X5  2H0H  00002000000000070400000121832X5    EPYNA-E 004300270014
BI00B32X5    #TIB2049       202211187172-5628-80             DUMMY PLUG               CCN000020000000020000FN00000000020230101000020000NNM   20220920130042X5  2H0H  00002000000000110600000162032X5    EPYNA-E 004300270014
BI00B32X5    #TIB2049       202211187172-5631-60             RUBBER STOPPER           CCN000040000000040000FN00000000020230101000040000NNM   20220920130042X5  2H0H  00002000000000042000000093132X5    EPYNA-E 004300270014
BI00B32X5    #TIB2049       202211187183-8251-40             HOUSING                  CCN000004800000004800FN00000000020230101000004800NNM   20220920130042X5  2F0F  00000240000000357600000640032X5    EPYNA-E 005500360039
BI00B32X5    #TIB2049       202211187183-8253-40             HOUSING                  CCN000002400000002400FN00000000020230101000002400NNM   20220920130042X5  2F0F  00000240000000528000000805032X5    EPYNA-E 005500360039
BI00B32X5    #TIB2049       202211187189-2978-30             HOUSING FEMALE           CCN000013500000013500FN00000000020230101000013500NNM   20220920130042X5  2F0F  00000150000000966900001096932X5    EPYNA-E 005400370024
BI00B32X5    #TIB2049       202211187282-8395-40             CONNECTOR                CCN000005000000005000FN00000000020230101000005000NNM   20220920130042X5  2N0N  00000100000001009000001188032X5    EPYNA-E 005500360039
