AE00TI102209200120/09/202200000001200000000000000010414KGM  00000012814KGM  7173-3291-40             LIF LEVER                7173329140               0         0         0         0    0    0    00002880000000240000000142000040896000
AE00TI102209200120/09/202200000000200000000000000001834KGM  00000002274KGM  7283-4577                CONNECTOR HOUSING        72834577                 0         0         0         0    0    0    00000960000000480000000172000016512000
AE00TI102209200120/09/202200000000200000000000000002377KGM  00000002800KGM  7283-4855                CONNECTOR HOUSING        72834855                 0         0         0         0    0    0    00000480000000240000000272000013056000
AE00TI102209200120/09/202200000000100000000000000000894KGM  00000001185KGM  7287-9234                JOINT CONNECTOR          72879234                 0         0         0         0    0    0    00000960000000960000000137000013152000
AE00TI102209200120/09/202200000000800000000000000006929KGM  00000008089KGM  7288-3329-30             HOUSING MALE             7288332930               0         0         0         0    0    0    00001200000000150000000354000042480000
AE00TI102209200120/09/202200000000100000000000000000866KGM  00000001011KGM  7288-3330-30             HOUSING MALE             7288333030               0         0         0         0    0    0    00000150000000150000000354000005310000
AE00TI102209200120/09/202200000000200000000000000001734KGM  00000002024KGM  7288-3337-30             HOUSING MALE             7288333730               0         0         0         0    0    0    00000300000000150000000354000010620000
AE00TI102209200120/09/202200000000100000000000000000862KGM  00000001006KGM  7288-3340-30             HOUSING MALE             7288334030               0         0         0         0    0    0    00000150000000150000000354000005310000
AE00TI102209200120/09/202200000002700000000000000018533KGM  00000024338KGM  7289-3342-30             HOUSING FEMALE ASS'Y     7289334230               0         0         0         0    0    0    00006480000000240000000191000123768000
AE00TI102209200120/09/202200000000900000000000000004941KGM  00000006831KGM  7289-5000                HOUSING FEMALE ASS'Y     72895000                 0         0         0         0    0    0    00000273600000030400000650000017784000
AE00TI102209200120/09/202200000000300000000000000002488KGM  00000003148KGM  7289-6518-30             HOUSING FEMALE ASS'Y     7289651830               0         0         0         0    0    0    00000360000000120000000598000021528000
AE00TI102209200120/09/202200000002300000000000000023074KGM  00000027704KGM  7298-1865-30             HOUSING FEMALE ASS'Y     7298186530               0         0         0         0    0    0    00005520000000240000000196000108192000
AE00TI102209200120/09/202200000000200000000000000002195KGM  00000002717KGM  7298-4094-10             HOUSING FEMALE ASS'Y     7298409410               0         0         0         0    0    0    00000676000000338000000241000016291600
AE00TI102209200120/09/202200000000100000000000000000982KGM  00000001290KGM  7298-5993-30             SEALED ASSY FEMALE       7298599330               0         0         0         0    0    0    00000218400000218400000266000005809440
AE00TI102209200120/09/202200000000800000000000000009127KGM  00000010847KGM  7327-6840-3W             BATTERY FUSE             732768403W               0         0         0         0    0    0    00000057600000007200009909000057075840
AE00TI102209200120/09/202200000002200000000000000016324KGM  00000024684KGM  7388-2978-30             HOUSING MALE ASS'Y       7388297830               0         0         0         0    0    0    00001056000000048000001790000189024000
AE00TI102209200120/09/202200000001800000000000000023760KGM  00000028260KGM  7470-4481                J/B COMPLETE ASS'Y       74704481                 0         0         0         0    0    0    00000043200000002400000000000000000000
AE00TI102209200120/09/202200000001800000000000000000000KGM  00000000000KGM  7470-5300D               J/B COMPLETE ASS'Y       74705300D                0         0         0         0    0    0    00000018000000001000000000000000000000
AE00TI102209200120/09/202200000002000000000000000000000KGM  00000000000KGM  7470-5308E               J/B COMPLETE ASS'Y       74705308E                0         0         0         0    0    0    00000020000000001000000000000000000000
AE00TI102209200120/09/202200000000700000000000000000000KGM  00000000000KGM  7470-5783E               J/B COMPLETE ASS'Y       74705783E                0         0         0         0    0    0    00000007000000001000000000000000000000
AE00TI102209200120/09/202200000002000000000000000000000KGM  00000000000KGM  7470-5784D               J/B COMPLETE ASS'Y       74705784D                0         0         0         0    0    0    00000030000000001500000000000000000000
AE00TI102209200120/09/202200000000500000000000000000000KGM  00000000000KGM  7470-5791D               J/B COMPLETE ASS'Y       74705791D                0         0         0         0    0    0    00000007500000001500000000000000000000
AE00TI102209200120/09/202200000001200000000000000000000KGM  00000000000KGM  7470-5791E               J/B COMPLETE ASS'Y       74705791E                0         0         0         0    0    0    00000012000000001000000000000000000000
AE00TI102209200120/09/202200000001500000000000000000000KGM  00000000000KGM  7470-5823D               J/B COMPLETE ASS'Y       74705823D                0         0         0         0    0    0    00000022500000001500000000000000000000
