AE00TO202209200120/09/202200000029700000000000000310845KGM  00000325366KGM  18000004530              AV 8 B                   AV 8 B                   0         0         0         0    0    0    00000000000297000000000211100062696700
AE00TO202209200120/09/202200000003300000000000000034538KGM  00000036152KGM  18000004534              AV 8 B/W                 AV 8 B/W                 0         0         0         0    0    0    00000000000033000000000211100006966300
AE00TO202209200120/09/202200000001200000000000000012559KGM  00000013146KGM  18000004535              AV 8 B/R                 AV 8 B/R                 0         0         0         0    0    0    00000000000012000000000211100002533200
AE00TO202209200120/09/202200000000900000000000000009420KGM  00000009860KGM  18000004540              AV 8 W                   AV 8 W                   0         0         0         0    0    0    00000000000009000000000211100001899900
AE00TO202209200120/09/202200000000800000000000000012261KGM  00000012652KGM  18009604330              AVS 3 B                  AVS 3 B                  0         0         0         0    0    0    00000000000032000000000087500002800000
AE00TO202209200120/09/202200000000500000000000000007663KGM  00000007908KGM  18009604334              AVS 3 B/W                AVS 3 B/W                0         0         0         0    0    0    00000000000020000000000087500001750000
AE00TO202209200120/09/202200000000200000000000000003065KGM  00000003163KGM  18009604354              AVS 3 R/W                AVS 3 R/W                0         0         0         0    0    0    00000000000008000000000087500000700000
AE00TO202209200120/09/202200000000200000000000000003065KGM  00000003163KGM  18009604357              AVS 3 R/Y                AVS 3 R/Y                0         0         0         0    0    0    00000000000008000000000087500000700000
AE00TO202209200120/09/202200000000100000000000000001016KGM  00000001064KGM  18018403912              CAVS 05 O/G              CAVS 05 O/G              0         0         0         0    0    0    00000000000015000000000015000000225000
AE00TO202209200120/09/202200000000900000000000000009140KGM  00000009580KGM  18018403930              CAVS 05 B                CAVS 05 B                0         0         0         0    0    0    00000000000135000000000015000002025000
AE00TO202209200120/09/202200000000900000000000000009140KGM  00000009580KGM  18018403934              CAVS 05 B/W              CAVS 05 B/W              0         0         0         0    0    0    00000000000135000000000015000002025000
AE00TO202209200120/09/202200000000200000000000000002031KGM  00000002129KGM  18018403935              CAVS 05 B/R              CAVS 05 B/R              0         0         0         0    0    0    00000000000030000000000015000000450000
AE00TO202209200120/09/202200000000200000000000000002031KGM  00000002129KGM  18018403939              CAVS 05 B/L              CAVS 05 B/L              0         0         0         0    0    0    00000000000030000000000015000000450000
AE00TO202209200120/09/202200000000200000000000000002031KGM  00000002129KGM  18018403951              CAVS 05 O                CAVS 05 O                0         0         0         0    0    0    00000000000030000000000015000000450000
AE00TO202209200120/09/202200000000500000000000000005078KGM  00000005322KGM  18018403952              CAVS 05 P                CAVS 05 P                0         0         0         0    0    0    00000000000075000000000015000001125000
AE00TO202209200120/09/202200000001200000000000000012187KGM  00000012773KGM  18018403970              CAVS 05 Y                CAVS 05 Y                0         0         0         0    0    0    00000000000180000000000015000002700000
AE00TO202209200120/09/202200000000300000000000000003047KGM  00000003193KGM  18018403975              CAVS 05 Y/R              CAVS 05 Y/R              0         0         0         0    0    0    00000000000045000000000015000000675000
AE00TO202209200120/09/202200000000100000000000000001016KGM  00000001064KGM  18018403977              CAVS 05 O/L              CAVS 05 O/L              0         0         0         0    0    0    00000000000015000000000015000000225000
AE00TO202209200120/09/202200000000200000000000000002031KGM  00000002129KGM  18018403980              CAVS 05 BR               CAVS 05 BR               0         0         0         0    0    0    00000000000030000000000015000000450000
AE00TO202209200120/09/202200000000200000000000000002031KGM  00000002129KGM  18018403990              CAVS 05 L                CAVS 05 L                0         0         0         0    0    0    00000000000030000000000015000000450000
AE00TO202209200120/09/202200000004300000000000000043668KGM  00000045770KGM  18018403992              CAVS 05 V                CAVS 05 V                0         0         0         0    0    0    00000000000645000000000015000009675000
AE00TO202209200120/09/202200000001100000000000000012126KGM  00000012664KGM  18018404130              CAVS 125 B               CAVS 125 B               0         0         0         0    0    0    00000000000088000000000032400002851200
AE00TO202209200120/09/202200000000300000000000000003307KGM  00000003454KGM  18018404140              CAVS 125 W               CAVS 125 W               0         0         0         0    0    0    00000000000024000000000032400000777600
AE00TO202209200120/09/202200000000800000000000000008819KGM  00000009210KGM  18018404150              CAVS 125 R               CAVS 125 R               0         0         0         0    0    0    00000000000064000000000032400002073600
AE00TO202209200120/09/202200000000200000000000000002205KGM  00000002303KGM  18018404160              CAVS 125 G               CAVS 125 G               0         0         0         0    0    0    00000000000016000000000032400000518400
AE00TO202209200120/09/202200000000600000000000000006614KGM  00000006908KGM  18018404190              CAVS 125 L               CAVS 125 L               0         0         0         0    0    0    00000000000048000000000032400001555200
AE00TO202209200120/09/202200000000400000000000000004409KGM  00000004605KGM  18018404192              CAVS 125 V               CAVS 125 V               0         0         0         0    0    0    00000000000032000000000032400001036800
AE00TO202209200120/09/202200000001600000000000000018000KGM  00000018782KGM  1801W003930              IVSSH 05F B              IVSSH 05F B              0         0         0         0    0    0    00000000000288000000000015400004435200
AE00TO202209200120/09/202200000000100000000000000001125KGM  00000001174KGM  1801W003940              IVSSH 05F W              IVSSH 05F W              0         0         0         0    0    0    00000000000018000000000015400000277200
AE00TO202209200120/09/202200000001400000000000000015750KGM  00000016435KGM  1801W003952              IVSSH 05F P              IVSSH 05F P              0         0         0         0    0    0    00000000000252000000000015400003880800
AE00TO202209200120/09/202200000000800000000000000009000KGM  00000009391KGM  1801W003961              IVSSH 05F LG             IVSSH 05F LG             0         0         0         0    0    0    00000000000144000000000015400002217600
AE00TO202209200120/09/202200000000500000000000000005625KGM  00000005870KGM  1801W003991              IVSSH 05F SB             IVSSH 05F SB             0         0         0         0    0    0    00000000000090000000000015400001386000
AE00TO202209200120/09/202200000000600000000000000006750KGM  00000007044KGM  1801W003992              IVSSH 05F V              IVSSH 05F V              0         0         0         0    0    0    00000000000108000000000015400001663200
AE00TO202209200120/09/202200000000200000000000000002260KGM  00000002358KGM  1801W006930              IVSSH 035F B             IVSSH 035F B             0         0         0         0    0    0    00000000000050000000000011400000570000
AE00TO202209200120/09/202200000004100000000000000046330KGM  00000048334KGM  1801W006952              IVSSH 035F P             IVSSH 035F P             0         0         0         0    0    0    00000000001025000000000011400011685000
AE00TO202209200120/09/202200000002500000000000000028250KGM  00000029472KGM  1801W006961              IVSSH 035F LG            IVSSH 035F LG            0         0         0         0    0    0    00000000000625000000000011400007125000
AE00TO202209200120/09/202200000002300000000000000025990KGM  00000027115KGM  1801W006991              IVSSH 035F SB            IVSSH 035F SB            0         0         0         0    0    0    00000000000575000000000011400006555000
AE00TO202209200120/09/202200000003100000000000000035030KGM  00000036545KGM  1801W006992              IVSSH 035F V             IVSSH 035F V             0         0         0         0    0    0    00000000000775000000000011400008835000
AE00TO202209200120/09/202200000000100000000000000001030KGM  00000001079KGM  180D0203750              AVSSH 03F R              AVSSH 03F R              0         0         0         0    0    0    00000000000020000000000012200000244000
AE00TO202209200120/09/202200000000100000000000000001030KGM  00000001079KGM  180D0203790              AVSSH 03F L              AVSSH 03F L              0         0         0         0    0    0    00000000000020000000000012200000244000
AE00TO202209200120/09/202200000004800000000000000055987KGM  00000058334KGM  180D0204140              AVSSH 125F W             AVSSH 125F W             0         0         0         0    0    0    00000000000384000000000035700013708800
AE00TO202209200120/09/202200000001200000000000000013997KGM  00000014583KGM  180D0204143              AVSSH 125F W/B           AVSSH 125F W/B           0         0         0         0    0    0    00000000000096000000000035700003427200
AE00TO202209200120/09/202200000003000000000000000034992KGM  00000036459KGM  180D0204150              AVSSH 125F R             AVSSH 125F R             0         0         0         0    0    0    00000000000240000000000035700008568000
AE00TO202209200120/09/202200000000200000000000000001542KGM  00000001640KGM  181AD2002ZZ              CIVUSAS-S 035X2 B        CIVUSAS-S 035X2 B        0         0         0         0    0    0    00000000000009000000000043700000393300
AE00TO202209200120/09/202200000017100000000000000130000KGM  00000138360KGM  181AD2003ZZ              CIVUSAS-S 035X3 B        CIVUSAS-S 035X3 B        0         0         0         0    0    0    00000000000598500000000055300033097050
AE00TO202209200120/09/202200000000100000000000000000771KGM  00000000820KGM  181AD2021ZZ              CIVUSAS-S 035X2 B(L,GY)  CIVUSAS-S 035X2 B(L,GY)  0         0         0         0    0    0    00000000000004500000000043700000196650
AE00TO202209200120/09/202200000001500000000000000011403KGM  00000012137KGM  181E48017ZZ              CAVSAS-S 05X1 GY/G       CAVSAS-S 05X1 GY/G       0         0         0         0    0    0    00000000000060000000000040600002436000
AE00TO202209200120/09/202200000002300000000000000017486KGM  00000018610KGM  181E48019ZZ              CAVSAS-S 05X1 GY/W       CAVSAS-S 05X1 GY/W       0         0         0         0    0    0    00000000000092000000000040600003735200
AE00TO202209200120/09/202200000000200000000000000001537KGM  00000001634KGM  181E48022ZZ              CAVSAS-S 05X2 GY         CAVSAS-S 05X2 GY         0         0         0         0    0    0    00000000000006000000000056500000339000
AE00TO202209200120/09/202200000001300000000000000009868KGM  00000010503KGM  181E48035ZZ              CAVSAS-S 05X3 GY         CAVSAS-S 05X3 GY         0         0         0         0    0    0    00000000000026000000000076300001983800
AE00TO202209200120/09/202200000001900000000000000014397KGM  00000015326KGM  181E50003ZZ              AVSSCS-S 03FX2 DGY/BR    AVSSCS-S 03FX2 DGY/BR    0         0         0         0    0    0    00000000000066500000000059400003950100
AE00TO202209200120/09/202200000000100000000000000000764KGM  00000000813KGM  181E50007ZZ              AVSSCS-S 05FX1 DGY/L     AVSSCS-S 05FX1 DGY/L     0         0         0         0    0    0    00000000000004000000000050400000201600
AE00TO202209200120/09/202200000007400000000000000056074KGM  00000059691KGM  181E50036ZZ              AVSSCS-S 03FX2 DGY       AVSSCS-S 03FX2 DGY       0         0         0         0    0    0    00000000000259000000000059400015384600
