BI00B1200    2399T52919     202210067289-9553-50             SEALED ASSY FEMALE       CCN000038220000038220FN00000000020221101000038220NNMD0020220930121718    4N0N  0000029400000110810000152061200    YCYC    005500360039
BI00B1200    2399T52920     202210207289-9553-50             SEALED ASSY FEMALE       CCN000035280000035280FN00000000020221101000035280NNMD0020220930121718    4N0N  0000029400000110810000152061200    YCYC    005500360039
BI00B1200    2399T52921     202210067298-3822-70             HOUSING FEMALE ASS'Y     CCN000005040000000000FY00000000020221101000000000NNMQ0820220930111707    4N0N  0000025200000077620000107701200    YCYC    005500360039
BI00B1200    2399T52922     202210067298-3822-70             HOUSING FEMALE ASS'Y     CCN000002520000000000FY00000000020221101000000000NNMQ0820220930111719    4N0N  0000025200000077620000107701200    YCYC    005500360039
BI00B1200    2399T52923     202210207298-3822-70             HOUSING FEMALE ASS'Y     CCN000002520000000000FY00000000020221101000000000NNMQ0820220930111733    4N0N  0000025200000077620000107701200    YCYC    005500360039
BI00B1200    2399T52924     202210277298-3822-70             HOUSING FEMALE ASS'Y     CCN000002520000000000FY00000000020221101000000000NNMQ0820220930111744    4N0N  0000025200000077620000107701200    YCYC    005500360039
BI00B1200    2399T52A21     202211037298-3822-70             HOUSING FEMALE ASS'Y     CCN000007560000000000FY00000000020221201000000000NNMQ0820220930111807    4N0N  0000025200000077620000107701200    YCYC    005500360039
BI00B1200    2399T52A22     202211107298-3822-70             HOUSING FEMALE ASS'Y     CCN000007560000000000FY00000000020221201000000000NNMQ0820220930111820    4N0N  0000025200000077620000107701200    YCYC    005500360039
BI00B1200    2399T52A23     202211177298-3822-70             HOUSING FEMALE ASS'Y     CCN000007560000000000FY00000000020221201000000000NNMQ0820220930111833    4N0N  0000025200000077620000107701200    YCYC    005500360039
BI00B1200    2399T52A24     202212017289-9553-50             SEALED ASSY FEMALE       CCN000055860000055860FN00000000020221201000055860NNMD0220220930121718    4N0N  0000029400000110810000152061200    YCYC    005500360039
BI00B1200    2399T52A24     202211247298-3822-70             HOUSING FEMALE ASS'Y     CCN000005040000000000FY00000000020221201000000000NNMQ0820220930111846    4N0N  0000025200000077620000107701200    YCYC    005500360039
BI00A1200    H722K50084     202210257174-2052-30             COVER                    CCN000001260000001260FN00000000020221101000001260NNE   20220930121718    1F0F  0000012600000055340000102431200    YCYC    005500360039
BI00B1200    2399T52A25     202210277116-4112-02             TERMINAL                 CCN000042000000042000FN00000000020221101000042000NNE   20220930121718    4P0P  0000060000000045000000073821200    YCYC    006400630015
BI00B1200    2399T52A25     202210277289-9553-50             SEALED ASSY FEMALE       CCN000035280000035280FN00000000020221101000035280NNE   20220930121718    4N0N  0000029400000110810000152061200    YCYC    005500360039
BI00B1200    #2399T52A25    202210277124-1026-30             PROTECTOR                CCN000003000000003000FN00000000020221101000003000NNE   20220930121718    2F0F  0000030000000082800000098601200    YCYC    005500360039
BI00B1200    2399T52A26     202211037116-4112-02             TERMINAL                 CCN000030000000030000FN00000000020221101000030000NNE   20220930121718    4P0P  0000060000000045000000073821200    YCYC    006400630015
BI00B1200    2399T52A26     202211037289-9553-50             SEALED ASSY FEMALE       CCN000032340000032340FN00000000020221101000032340NNE   20220930121718    4N0N  0000029400000110810000152061200    YCYC    005500360039
BI00B1200    #2399T52A26    202211037124-1026-30             PROTECTOR                CCN000003000000003000FN00000000020221101000003000NNE   20220930121718    2F0F  0000030000000082800000098601200    YCYC    005500360039
BI00B1200    2399T52A27     202211107116-4112-02             TERMINAL                 CCN000030000000030000FN00000000020221201000030000NNE   20220930121718    4P0P  0000060000000045000000073821200    YCYC    006400630015
BI00B1200    2399T52A27     202211107289-9553-50             SEALED ASSY FEMALE       CCN000032340000032340FN00000000020221201000032340NNE   20220930121718    4N0N  0000029400000110810000152061200    YCYC    005500360039
BI00B1200    O023A50013     202212227116-4100-02             TERMINAL                 CCN000135000000135000FN00000000020230101000135000NNE   20220930121718    4P0P  0000150000000069600000099021200    YCYC    006400630015
BI00B1200    O023A50014     202212227116-4100-02             TERMINAL                 CCN000135000000135000FN00000000020230101000135000NNE   20220930121718    4P0P  0000150000000069600000099021200    YCYC    006400630015
BI00B1200    8670T52A01     202212017137-3047-30             UNIT PACKING             CCN000007000000007000FN00000000020230101000007000NNM   20220930121718    1C0C  0000010000000017050000021891200    YCYC    002700430014
BI00B1200    8670T52A03     202212297137-3047-30             UNIT PACKING             CCN000007000000007000FN00000000020230101000007000NNM   20220930121718    1C0C  0000010000000017050000021891200    YCYC    002700430014
BI00B1200    8670T52A01     202212017172-5402-30             SEAL RUBBER              CCN000008000000008000FN00000000020230101000008000NNM   20220930121718    1C0C  0000080000000045760000050601200    YCYC    004300270014
BI00B1200    8670T52A02     202212227172-5402-30             SEAL RUBBER              CCN000008000000008000FN00000000020230101000008000NNM   20220930121718    1C0C  0000080000000045760000050601200    YCYC    004300270014
BI00B1200    8670T52A03     202212297172-5402-30             SEAL RUBBER              CCN000016000000016000FN00000000020230101000016000NNM   20220930121718    1C0C  0000080000000045760000050601200    YCYC    004300270014
BI00B1200    8670T52A01     202212017172-5403-30             SEALED PACKING           CCN000012000000012000FN00000000020230101000012000NNM   20220930121718    1C0C  0000040000000065360000070171200    YCYC    004300270014
BI00B1200    8670T52A02     202212227172-5403-30             SEALED PACKING           CCN000008000000008000FN00000000020230101000008000NNM   20220930121718    1C0C  0000040000000065360000070171200    YCYC    004300270014
BI00B1200    8670T52A03     202212297172-5403-30             SEALED PACKING           CCN000008000000008000FN00000000020230101000008000NNM   20220930121718    1C0C  0000040000000065360000070171200    YCYC    004300270014
BI00B1200    8670T52A02     202212227196-1103-02             TERMINAL                 CCN000022500000022500FN00000000020230101000022500NNM   20220930121718    4P0P  0000225000000042980000071501200    YCYC    006400630015
BI00B1200    8670T52A03     202212297196-1103-02             TERMINAL                 CCN000022500000022500FN00000000020230101000022500NNM   20220930121718    4P0P  0000225000000042980000071501200    YCYC    006400630015
BI00B1200    8670T52A03     202212297196-1104-02             TERMINAL                 CCN000022500000022500FN00000000020230101000022500NNM   20220930121718    4P0P  0000225000000044100000072621200    YCYC    006400630015
BI00B1200    #8670T52A01    202212017289-2919-30             HOUSING FEMALE ASS'Y     CCN000001500000001500FN00000000020230101000001500NNM   20220930121718    2N0N  0000015000000090750000103451200    YCYC    005400370024
BI00B1200    #8670T52A02    202212227172-5629-80             RUBBER STOPPER           CCN000020000000020000FN00000000020230101000020000NNM   20220930121718    2H0H  0000200000000006000000011111200    YCYC    004300270014
BI00B1200    #8670T52A03    202212297172-5629-80             RUBBER STOPPER           CCN000020000000020000FN00000000020230101000020000NNM   20220930121718    2H0H  0000200000000006000000011111200    YCYC    004300270014
BI00B1200    CE22-MN-0115   202210067196-1934-02             TERMINAL FEMALE          CCN000019500000019500FN00000000020221001000019500NNE   20220930144250    4P0P  0000195000000056160000084681200    YCYC    006400630015
BI00B1200    CE22-MN-0115   202210067196-1935-02             TERMINAL FEMALE          CCN000018000000018000FN00000000020221001000018000NNE   20220930144250    4P0P  0000180000000053460000081981200    YCYC    006400630015
BI00B1200    CE22-MN-0115   202210067196-1936-02             TERMINAL FEMALE          CCN000013500000013500FN00000000020221001000013500NNE   20220930144250    4P0P  0000135000000044150000072671200    YCYC    006400630015
BI00B1200    CE22-MN-0115   202210067196-1937-02             TERMINAL FEMALE          CCN000013500000013500FN00000000020221001000013500NNE   20220930144250    4P0P  0000135000000044690000073211200    YCYC    006400630015
BI00B1200    CE22-MN-0115   202210067195-1934-02             TERMINAL MALE            CCN000024000000024000FN00000000020221001000024000NNE   20220930144250    4P0P  0000240000000080160000109521200    YCYC    006400630015
BI00B1200    CE22-MN-0115   202210067195-1935-02             TERMINAL MALE            CCN000019500000019500FN00000000020221001000019500NNE   20220930144250    4P0P  0000195000000067080000096441200    YCYC    006400630015
BI00B1200    CE22-MN-0115   202210067195-1936-02             TERMINAL MALE            CCN000015000000015000FN00000000020221001000015000NNE   20220930144250    4P0P  0000150000000058950000088311200    YCYC    006400630015
BI00B1200    CE22-MN-0115   202210067195-1937-02             TERMINAL MALE            CCN000015000000015000FN00000000020221001000015000NNE   20220930144250    4P0P  0000150000000059400000088761200    YCYC    006400630015
BI00B1200    CE22-MN-0115   202210067196-1941-02             TERMINAL FEMALE          CCN000011400000011400FN00000000020221001000011400NNE   20220930144250    4P0P  0000114000000050620000079441200    YCYC    006400630015
BI00B1200    CE22-MN-0115   202210067196-2024-02             TERMINAL FEMALE          CCN000024000000024000FN00000000020221001000024000NNE   20220930144250    4P0P  0000240000000091920000108261200    YCYC    005100280028
BI00B1200    CE22-MN-0115   202210067196-2027-02             TERMINAL FEMALE          CCN000018000000018000FN00000000020221001000018000NNE   20220930144250    4P0P  0000180000000078300000094641200    YCYC    005100280028
BI00B1200    CE22-MN-0115   202210067196-2032-02             TERMINAL FEMALE          CCN000015000000015000FN00000000020221001000015000NNE   20220930144250    4P0P  0000150000000107100000123441200    YCYC    005100280028
BI00B1200    CE22-MN-0115   202210067195-2046-02             TERMINAL MALE            CCN000008400000008400FN00000000020221001000008400NNE   20220930144250    4P0P  0000084000000081820000111181200    YCYC    006400630015
BI00B1200    CE22-MN-0115   202210067126-8889-02             FUSE TERMINAL            CCN000006000000006000FN00000000020221001000006000NNE   20220930144250    4P0P  0000060000000044820000073341200    YCYC    006400630015
BI00B1200    CE22-MN-0115   202210067126-8890-02             FUSE TERMINAL            CCN000006000000006000FN00000000020221001000006000NNE   20220930144250    4P0P  0000060000000046500000075021200    YCYC    006400630015
BI00B1200    CE22-MN-0115   202210067126-8891-02             FUSE TERMINAL            CCN000006000000006000FN00000000020221001000006000NNE   20220930144250    4P0P  0000060000000048180000076701200    YCYC    006400630015
BI00B1200    CE22-MN-0115   202210067126-8892-02             FUSE TERMINAL            CCN000006000000006000FN00000000020221001000006000NNE   20220930144250    4P0P  0000060000000049500000078021200    YCYC    006400630015
BI00B32AF    JTB2104        202210037114-1670-02             TERMINAL                 CCN000024000000024000FN00000000020221001000024000NNM00020220930152737    1P0P  00002400000000357600000645832AF    HBYHVTB 006400630015
BI00B32AF    JTB2104        202210037158-3009-60             RUBBER STOPPER           CCN000060000000060000FN00000000020221001000060000NNM00020220930152737    1C0C  00002000000000338000000386232AF    HBYHVTB 002700430014
BI00B32AF    JTB2104        202210037158-3070-80             RUBBER STOPPER           CCN000040000000040000FN00000000020221001000040000NNM00020220930152737    1C0C  00004000000000276000000333332AF    HBYHVTB 002700430014
BI00B32AF    JTB2104        202210037158-3165-90             WIRE SEAL                CCN000400000000400000FN00000000020221001000400000NNM00020220930152737    1C0C  00004000000000124000000172432AF    HBYHVTB 004300270014
BI00B32AF    JTB2104        202210037158-3166-60             WIRE SEAL                CCN000080000000080000FN00000000020221001000080000NNM00020220930152737    1C0C  00004000000000104000000152432AF    HBYHVTB 002700430014
BI00B32AF    JTB2104        202210037158-3169-40             SEALING PLUG             CCN000160000000160000FN00000000020221001000160000NNM00020220930152737    1C0C  00004000000000156000000204132AF    HBYHVTB 004300260014
BI00B32AF    JTB2104        202210037283-5845                CONNECTOR HOUSING        CCN000042000000042000FN00000000020221001000042000NNM00020220930152737    1N0N  00000600000000444000000606332AF    HBYHVTB 005400370024
BI00B32AF    JTB2104        202210037283-5846                HOUSING                  CCN000015000000015000FN00000000020221001000015000NNM00020220930152737    1N0N  00000150000000885000001102032AF    HBYHVTB 005600390040
BI00B32AF    JTB2104        202210037286-4097                CONNECTOR MALE ASS'Y     CCN000003200000003200FN00000000020221001000003200NNM00020220930152737    1N0N  00000160000000768000000978032AF    HBYHVTB 005500360039
BI00B32AF    JTB2104        202210037289-3342                HOUSING FEMALE ASS'Y     CCN000002400000002400FN00000000020221001000002400NNM00020220930152737    1N0N  00000240000000686400000901432AF    HBYHVTB 005500360039
BI00B32AF    JTB2104        202210037289-3342-30             HOUSING FEMALE ASS'Y     CCN000033600000033600FN00000000020221001000033600NNM00020220930152737    1N0N  00000240000000686400000901432AF    HBYHVTB 005500360039
BI00B32AF    #JTB2104       202209307189-3038-30             HOUSING                  CCN000001600000001600FY00000160020221001000000000NNM00020220930152616    2F0F  00000160000000921600001141632AF    HBYHVTB 005500360039
BI00B32AF    JTB210M        202209307388-0316-80             CONNECTOR ASS'Y          CCN000001200000001200FY00000120020221001000000000NNE00020220930151721    4N0N  00000120000001002500001132532AF    HBYHVTB 005400370024
BI00B32AF    JTK211A        202210287116-4020                TERMINAL                 CCN000054000000054000FN00000000020221101000054000NNE   20220930121718    4P0P  00001350000000513000000798232AF    HBYHVTB 006400630015
BI00B32CA    QA-22-C084     202210067289-3342-30             HOUSING FEMALE ASS'Y     PNN000014400000014400FN00000000020221001000014400NNE   20220930121718    1N0N  00000240000000686400000901432CA    YPYPY   005500360039
BI00B32CA    PTA33035       202211247114-5096-02             TERMINAL                 CCN000248000000270000FN00000000020230301000270000NNE   20220930121718    4P0P  00003000000000498000000792232CA    YPYPY   006400630015
BI00B32CA    PTA33035       202211247114-5096-08             TERMINAL                 CCN000072000000090000FN00000000020230301000090000NNE   20220930121718    4P0P  00003000000000498000000792232CA    YPYPY   006400630015
BI00B32CA    PTA33035       202211247116-3153-02             TERMINAL FEMALE          CCN002244000002268000FN00000000020230301002268000NNE   20220930121718    4P0P  00002700000000459000000744232CA    YPYPY   006400630015
BI00B32CA    PTA33035       202211247116-3154-02             TERMINAL FEMALE          CCN000660000000675000FN00000000020230301000675000NNE   20220930121718    4P0P  00002700000000469800000755032CA    YPYPY   006400630015
BI00B32CA    PTA33035       202211247116-4022                TERMINAL                 CCN000045000000054000FN00000000020230301000054000NNE   20220930121718    4P0P  00001350000000618300000903532CA    YPYPY   006400630015
BI00B32CA    PTA33035       202211247116-4486-02             TERMINAL                 CCN000214500000224000FN00000000020230301000224000NNE   20220930121718    4P0P  00002800000000666400000995132CA    YPYPY   006400630017
BI00B32CA    PTA33035       202211247158-3166-60             WIRE SEAL                CCN000040000000040000FN00000000020230301000040000NNE   20220930121718    1C0C  00004000000000104000000152432CA    YPYPY   002700430014
BI00B32CA    PTA33035       202211247158-3167-61             WIRE SEAL                CCN000040000000040000FN00000000020230301000040000NNE   20220930121718    1C0C  00002000000000048000000096432CA    YPYPY   004300270014
BI00B32CA    PTA33035       202211247158-3167-80             WIRE SEAL                CCN000320000000320000FN00000000020230301000320000NNE   20220930121718    1C0C  00002000000000048000000109032CA    YPYPY   002700430014
BI00B32CA    PTA33035       202211247158-3168-80             SEALED                   CCN000040000000040000FN00000000020230301000040000NNE   20220930121718    1C0C  00002000000000044000000092132CA    YPYPY   004300260014
BI00B32CA    PTA33035       202211247158-3169-40             SEALING PLUG             CCN000048000000080000FN00000000020230301000080000NNE   20220930121718    1C0C  00004000000000156000000204132CA    YPYPY   004300260014
BI00B32CA    PTA33035       202211247196-0510-02             TERMINAL                 CCN000192000000192000FN00000000020230301000192000NNE   20220930121718    4P0P  00002400000000871200001034632CA    YPYPY   002800510028
BI00B32CA    PTA33035       202211247196-0511-02             TERMINAL                 CCN000010000000024000FN00000000020230301000024000NNE   20220930121718    4P0P  00002400000000916800001080232CA    YPYPY   002800510028
BI00B32CA    PTA33035       202211247196-1461-06             TERMINAL FEMALE          CCN000024000000024000FN00000000020230301000024000NNE   20220930121718    4P0P  00002400000000386400000692932CA    YPYPY   006400630015
BI00B32CA    PTA33035       202211247287-9323                UNSEALED HOUSING SUB     CCN000012000000012000FN00000000020230301000012000NNE   20220930121718    1N0N  00000240000000537600000690032CA    YPYPY   005600390023
BI00B32CA    PTA33035       202211247289-3342                HOUSING FEMALE ASS'Y     CCN000064800000064800FN00000000020230301000064800NNE   20220930121718    1N0N  00000240000000686400000901432CA    YPYPY   005500360039
BI00B32CA    PTA33035       202211247289-3342-30             HOUSING FEMALE ASS'Y     CCN000088800000088800FN00000000020230301000088800NNE   20220930121718    1N0N  00000240000000686400000901432CA    YPYPY   005500360039
BI00B32CA    PTA33035       202211247289-3342-90             HOUSING FEMALE ASS'Y     CCN000031200000031200FN00000000020230301000031200NNE   20220930121718    1N0N  00000240000000686400000901432CA    YPYPY   005500360039
BI00B32CA    PTA33035       202211247386-2747                CONNECTOR ASS'Y          CCN000007000000008000FN00000000020230301000008000NNE   20220930121718    4N0N  00000200000001162000001284532CA    YPYPY   005400370024
BI00B32CA    #PTA33035      202211247154-5597-30             CASSETTE R/B             CCN000011200000011200FN00000000020230301000011200NNE   20220930121718    2F0F  00000080000000736000000952032CA    YPYPY   005500360039
BI00B32CA    #PTA33035      202211247183-2414-30             CONNECTOR HOUSING        CCN000007500000009600FN00000000020230301000009600NNE   20220930121718    2F0F  00000480000000779500001061532CA    YPYPY   005500360039
BI00B32CA    #PTA33035      202211247189-3032-30             HOUSING FEMALE           CCN000011200000011200FN00000000020230301000011200NNE   20220930121718    2F0F  00000160000000801600001021632CA    YPYPY   005500360039
BI00B32CA    #PTA33035      202211247189-3033                HOUSING FEMALE           CCN000001600000001600FN00000000020230301000001600NNE   20220930121718    2F0F  00000160000001211200001431232CA    YPYPY   005500360039
BI00B32CA    #PTA33035      202211247189-3034-30             HOUSING FEMALE           CCN000006400000006400FN00000000020230301000006400NNE   20220930121718    2F0F  00000160000000972800001192832CA    YPYPY   005500360039
BI00B32CA    #PTA33035      202211247189-3036                HOUSING FEMALE           CCN000001600000001600FN00000000020230301000001600NNE   20220930121718    2F0F  00000160000000921600001141632CA    YPYPY   005500360039
BI00B32CA    #PTA33035      202211247189-3037                HOUSING FEMALE           CCN000004800000004800FN00000000020230301000004800NNE   20220930121718    2F0F  00000480000000806400001066432CA    YPYPY   005500360039
BI00B32CH    SJ2210ASMW     202209297289-6868-30             SEALED ASSY FEMALE       CCN000005040000005040FY00000504020221001000000000NNED0420220930152355    4N0N  00000252000000839200001119232CH    SJSAMIJF005500360039
BI00B32DE    TCT2113        202210067116-4115-02             TERMINAL                 CCN000008400000008400FN00000000020221101000008400NNMD0020220930164243    4P0P  00000840000000593000000881232DE    TVYEV-TV006400630015
BI00B32DE    TCT2114        202210207116-5750-02             TERMINAL                 CCN000030000000030000FN00000000020221101000030000NNMD0020220930164337    4P0P  00001500000000457500000742732DE    TVYEV-TV006400630015
BI00B32DE    TCT2114        202210207196-1934-02             TERMINAL FEMALE          CCN000039000000039000FN00000000020221101000039000NNMD0020220930165026    4P0P  00001950000000561600000846832DE    TVYEV-TV006400630015
BI00B32DE    TCT2114        202210207196-1939-02             TERMINAL FEMALE          CCN000015000000015000FN00000000020221101000015000NNMD0020220930164310    4P0P  00001500000000574500000862732DE    TVYEV-TV006400630015
BI00B32DE    TCT2114        202210207282-4576                HOUSING MALE ASS'Y       CCN000002400000002400FN00000000020221101000002400NNMD0020220930165056    4N0N  00000240000000808800001028832DE    TVYEV-TV005500360039
BI00B32DE    TCT2114        202210207289-3342                HOUSING FEMALE ASS'Y     CCN000002400000002400FN00000000020221101000002400NNMD0020220930165135    1N0N  00000240000000686400000901432DE    TVYEV-TV005500360039
BI00B32DE    TCT2114        202210207289-6547                HOUSING FEMALE ASS'Y     CCN000002400000002400FN00000000020221101000002400NNMD0020220930165118    1N0N  00000240000001152000001362032DE    TVYEV-TV005500360039
BI00B32DE    TCT211D        202210207196-1943-02             TERMINAL FEMALE          CCN000012000000012000FN00000000020221101000012000NNED0020220930164220    4P0P  00001200000000492000000777232DE    TVYEV-TV006400630015
BI00B32EJ    T220929P01     202211037158-3070-80             RUBBER STOPPER           CCN000080000000080000FN00000000020221101000080000NNE   20220930121718EJ  1C0C  00004000000000276000000333332EJ    EJYKBO  002700430014
BI00B32EJ    T220929P02     202211037158-3070-80             RUBBER STOPPER           CCN000160000000160000FN00000000020221101000160000NNE   20220930121718EJ  1C0C  00004000000000276000000333332EJ    EJYKBO  002700430014
BI00B32EJ    T220929P02     202211037158-3006-90             RUBBER STOPPER           CCN000020000000020000FN00000000020221101000020000NNE   20220930121718EJ  1C0C  00002000000000330600000386032EJ    EJYKBO  002700430014
BI00B32EJ    T220929P02     202211037283-1968-30             CONNECTOR                CCN000001800000001800FN00000000020221101000001800NNE   20220930121718EJ  1N0N  00000090000001140000001318332EJ    EJYKBO  005600390040
BI00B32EJ    #T220929P02    202211037158-3120-90             CONNECTOR WIRE SEAL      CCN000220000000220000FN00000000020221101000220000NNE   20220930121718EJ  2C0C  00002000000000136000000194032EJ    EJYKBO  002700430014
BI00B32EJ    #T220929P02    202211037158-3374-90             CONNECTOR WIRE SEAL      CCN000040000000040000FN00000000020221101000040000NNE   20220930121718EJ  2H0H  00002000000000172000000229332EJ    EJYKBO  002700430014
BI00B32EJ    T220929P03     202211037283-1114-40             CONNECTOR                CCN000002000000002000FN00000000020221101000002000NNE   20220930121718EJ  4N0N  00000200000000624000000929332EJ    EJYKBO  005600390040
BI00B32EJ    T220929P04     202211037114-4100-02             TERMINAL                 CCN000090000000090000FN00000000020221101000090000NNE   20220930121718EJ  4P0P  00001800000000748800001077432EJ    EJYKBO  006400630017
BI00B32EJ    T220929P04     202211037283-5843                CONNECTOR                CCN000049500000049500FN00000000020221101000049500NNE   20220930121718EJ  1N0N  00000150000000889000001132032EJ    EJYKBO  005600390040
BI00B32EJ    T220929P05     202211037283-1968-30             CONNECTOR                CCN000000900000000900FN00000000020221101000000900NNE   20220930121718EJ  1N0N  00000090000001140000001318332EJ    EJYKBO  005600390040
BI00B32EJ    T220929P05     202211037116-4124-02             TERMINAL                 CCN000009000000009000FN00000000020221101000009000NNE   20220930121718EJ  4P0P  00000300000000459900000753532EJ    EJYKBO  006400630015
BI00B32EJ    T220929P05     202211037196-1461-06             TERMINAL FEMALE          CCN000048000000048000FN00000000020221101000048000NNE   20220930121718EJ  4P0P  00002400000000386400000692932EJ    EJYKBO  006400630015
BI00B32EJ    T220929P05     202211037114-4112-02             TERMINAL                 CCN000018000000018000FN00000000020221101000018000NNE   20220930121718EJ  4P0P  00000900000000598500000927132EJ    EJYKBO  006400630017
BI00B32EJ    T220929P05     202211037114-4100-02             TERMINAL                 CCN000018000000018000FN00000000020221101000018000NNE   20220930121718EJ  4P0P  00001800000000748800001077432EJ    EJYKBO  006400630017
BI00B32EJ    T220929P05     202211037116-4100-02             TERMINAL                 CCN000015000000015000FN00000000020221101000015000NNE   20220930121718EJ  4P0P  00001500000000696000000990232EJ    EJYKBO  006400630015
BI00B32EJ    T220929P05     202211037116-4122-02             TERMINAL                 CCN000031500000031500FN00000000020221101000031500NNE   20220930121718EJ  4P0P  00000450000000656600000950232EJ    EJYKBO  006400630015
BI00B32EJ    T220929P05     202211037116-4121-02             TERMINAL                 CCN000027000000027000FN00000000020221101000027000NNE   20220930121718EJ  4P0P  00000450000000618800000912432EJ    EJYKBO  006400630015
BI00B32EJ    T220929P05     202211037116-4112-02             TERMINAL                 CCN000018000000018000FN00000000020221101000018000NNE   20220930121718EJ  4P0P  00000600000000450000000738232EJ    EJYKBO  006400630015
BI00B32EJ    T220929P05     202211037116-4110-02             TERMINAL                 CCN000018000000018000FN00000000020221101000018000NNE   20220930121718EJ  4P0P  00000900000000594000000882232EJ    EJYKBO  006400630015
BI00B32EJ    T220929P05     202211037116-4111-02             TERMINAL                 CCN000015000000015000FN00000000020221101000015000NNE   20220930121718EJ  4P0P  00000750000000529500000817732EJ    EJYKBO  006400630015
BI00B32EJ    T220929P05     202211037126-8854-02             TERMINAL                 CCN000007500000007500FN00000000020221101000007500NNE   20220930121718EJ  4P0P  00000750000000604500000889732EJ    EJYKBO  006400630015
BI00B32EJ    T220929P05     202211037126-8855-02             TERMINAL                 CCN000006000000006000FN00000000020221101000006000NNE   20220930121718EJ  4P0P  00000600000000510600000795832EJ    EJYKBO  006400630015
BI00B32EJ    T220929P05     202211037158-3166-60             WIRE SEAL                CCN000840000000840000FN00000000020221101000840000NNE   20220930121718EJ  1C0C  00004000000000104000000152432EJ    EJYKBO  002700430014
BI00B32EJ    T220929P05     202211037158-3167-80             WIRE SEAL                CCN000600000000600000FN00000000020221101000600000NNE   20220930121718EJ  1C0C  00002000000000048000000109032EJ    EJYKBO  002700430014
BI00B32EJ    T220929P05     202211037158-3167-61             WIRE SEAL                CCN000040000000040000FN00000000020221101000040000NNE   20220930121718EJ  1C0C  00002000000000048000000096432EJ    EJYKBO  004300270014
BI00B32EJ    #T220929P05    202211037158-3120-90             CONNECTOR WIRE SEAL      CCN000080000000080000FN00000000020221101000080000NNE   20220930121718EJ  2C0C  00002000000000136000000194032EJ    EJYKBO  002700430014
BI00B32EJ    #T220929P05    202211037157-3992-90             CONNECTOR SEALED         CCN000040000000040000FN00000000020221101000040000NNE   20220930121718EJ  2C0C  00004000000000300000000363332EJ    EJYKBO  002700430014
BI00B32EJ    #T220929P05    202211037158-3374-90             CONNECTOR WIRE SEAL      CCN000020000000020000FN00000000020221101000020000NNE   20220930121718EJ  2H0H  00002000000000172000000229332EJ    EJYKBO  002700430014
BI00B32EJ    #T220929P05    202211037123-6423-30             CONNECTOR                CCN000004000000004000FN00000000020221101000004000NNE   20220930121718EJ  2F0F  00000200000001002000001167632EJ    EJYKBO  005600390023
BI00B32EJ    #T220929P05    202211037282-6458-40             CONNECTOR                CCN000001000000001000FN00000000020221101000001000NNE   20220930121718EJ  2N0N  00000100000001206000001350532EJ    EJYKBO  005500360039
BI00B32EJ    #T220929P05    202211037157-3952-80             RUBBER STOPPER           CCN000010000000010000FN00000000020221101000010000NNE   20220930121718EJ  2C0C  00001000000000117000000175032EJ    EJYKBO  002700430014
BI00B32J1    398746         202211147B58-3070-80             RUBBER STOPPER           CCN000080000000080000FN00000000020221101000080000NNE   20220930121718    1C0C  00004000000000276000000333032J1    UKYEL-BL004300270014
BI00B32J1    398746         202211147114-4032                TERMINAL                 CCN000015000000015000FN00000000020221101000015000NNE   20220930121718    4P0P  00000750000000735000001063632J1    UKYEL-BL006400630017
BI00B32J1    398746         202211147158-3006-90             RUBBER STOPPER           CCN000720000000720000FN00000000020221101000720000NNE   20220930121718    1C0C  00002000000000330600000386032J1    UKYEL-BL002700430014
BI00B32J1    398746         202211147158-3070-80             RUBBER STOPPER           CCN000160000000160000FN00000000020221101000160000NNE   20220930121718    1C0C  00004000000000276000000333332J1    UKYEL-BL002700430014
BI00B32J1    398746         202211147158-3165-90             WIRE SEAL                CCN000040000000040000FN00000000020221101000040000NNE   20220930121718    1C0C  00004000000000124000000172432J1    UKYEL-BL004300270014
BI00B32J1    398746         202211147283-5545-10             CONNECTOR                CCN000001200000001200FN00000000020221101000001200NNE   20220930121718    4N0N  00000060000001279000001409232J1    UKYEL-BL005600390040
BI00B32J1    398746         202211147283-5846                HOUSING                  CCN000003000000003000FN00000000020221101000003000NNE   20220930121718    1N0N  00000150000000885000001102032J1    UKYEL-BL005600390040
BI00B32J1    #398746        202211147158-3120-90             CONNECTOR WIRE SEAL      CCN000020000000020000FN00000000020221101000020000NNE   20220930121718    2C0C  00002000000000136000000194032J1    UKYEL-BL002700430014
BI00B32J1    #398746        202211147158-3121-80             WIRE SEAL                CCN000040000000040000FN00000000020221101000040000NNE   20220930121718    2C0C  00002000000000118000000187332J1    UKYEL-BL002700430014
BI00B32J1    #398746        202211147183-7725-40             HOUSING                  CCN000012000000012000FN00000000020221101000012000NNE   20220930121718    2F0F  00000600000000840000001040032J1    UKYEL-BL005600390040
BI00B32J1    #398746        202211147282-5545-10             CONNECTOR                CCN000001600000001600FN00000000020221101000001600NNE   20220930121718    2N0N  00000080000001293600001465332J1    UKYEL-BL005500360039
BI00B32J1    #398747        202211217158-3374-90             CONNECTOR WIRE SEAL      CCN000040000000040000FN00000000020221101000040000NNE   20220930121718    2H0H  00002000000000172000000229332J1    UKYEL-BL002700430014
BI00B32J1    #398747        202211217158-3376-50             CONNECTOR WIRE SEAL      CCN000040000000040000FN00000000020221101000040000NNE   20220930121718    2C0C  00002000000000184000000240732J1    UKYEL-BL002700430014
BI00B32J1    #398747        202211217282-6446-30             CONNECTOR                CCN000009000000009000FN00000000020221101000009000NNE   20220930121718    2N0N  00000150000001185000001335032J1    UKYEL-BL005500360039
BI00B32J1    398789         202210247114-1475                TERMINAL                 CCN000027000000027000FN00000000020221001000027000NNM   20220930121718    4P0P  00001350000000480600000774232J1    UKYEL-BL006400630015
BI00B32J1    398789         202210247114-6041                TERMINAL                 CCN000014400000014400FN00000000020221001000014400NNM   20220930121718    4P0P  00000360000000580700000824232J1    UKYEL-BL006400630015
BI00B32J1    398789         202210247116-4020                TERMINAL                 CCN000027000000027000FN00000000020221001000027000NNM   20220930121718    4P0P  00001350000000513000000798232J1    UKYEL-BL006400630015
BI00B32J1    398789         202210247116-6042                TERMINAL                 CCN000048000000048000FN00000000020221001000048000NNM   20220930121718    4P0P  00000300000000523800000856132J1    UKYEL-BL006400630015
BI00B32J1    398789         202210247158-3165-90             WIRE SEAL                CCN000200000000200000FN00000000020221001000200000NNM   20220930121718    1C0C  00004000000000124000000172432J1    UKYEL-BL004300270014
BI00B32J1    398789         202210247158-3166-10             WIRE SEAL                CCN000040000000040000FN00000000020221001000040000NNM   20220930121718    1C0C  00004000000000096000000144432J1    UKYEL-BL004300270014
BI00B32J1    398789         202210247158-3166-60             WIRE SEAL                CCN002160000002160000FN00000000020221001002160000NNM   20220930121718    1C0C  00004000000000104000000152432J1    UKYEL-BL002700430014
BI00B32J1    398789         202210247158-3167-80             WIRE SEAL                CCN002640000002640000FN00000000020221001002640000NNM   20220930121718    1C0C  00002000000000048000000109032J1    UKYEL-BL002700430014
BI00B32J1    398789         202210247158-3168-80             SEALED                   CCN001220000001220000FN00000000020221001001220000NNM   20220930121718    1C0C  00002000000000044000000092132J1    UKYEL-BL004300260014
BI00B32J1    398789         202210247196-0104-02             TERMINAL                 CCN000038000000038000FN00000000020221001000038000NNM   20220930121718    4P0P  00003800000000570000000956432J1    UKYEL-BL006400630017
BI00B32J1    398789         202210247196-1461-02             TERMINAL FEMALE          CCN001368000001368000FN00000000020221001001368000NNM   20220930121718    4P0P  00002400000000386400000671632J1    UKYEL-BL006400630015
BI00B32J1    398789         202210247196-1461-06             TERMINAL FEMALE          CCN000096000000096000FN00000000020221001000096000NNM   20220930121718    4P0P  00002400000000386400000692932J1    UKYEL-BL006400630015
BI00B32J1    398789         202210247196-1462-02             TERMINAL FEMALE          CCN000042000000042000FN00000000020221001000042000NNM   20220930121718    4P0P  00002100000000352800000638032J1    UKYEL-BL006400630015
BI00B32J1    398789         202210247282-5574-10             CONNECTOR                CCN000016000000016000FN00000000020221001000016000NNM   20220930121718    4N0N  00000080000001235000001423032J1    UKYEL-BL005600390040
BI00B32J1    398789         202210247282-6448-40             CONNECTOR                CCN000001600000001600FN00000000020221001000001600NNM   20220930121718    4N0N  00000080000000887000001152732J1    UKYEL-BL005600390040
BI00B32J1    398789         202210247283-1040                CONNECTOR                CCN000004000000004000FN00000000020221001000004000NNM   20220930121718    4N0N  00000200000000396000000670032J1    UKYEL-BL005600390040
BI00B32J1    398789         202210247283-5623-30             CONNECTOR                CCN000001600000001600FN00000000020221001000001600NNM   20220930121718    4N0N  00000160000001520000001804032J1    UKYEL-BL005600390040
BI00B32J1    398789         202210247283-5830                CONNECTOR                CCN000006000000006000FN00000000020221001000006000NNM   20220930121718    1N47  00000600000000954000001104032J1    UKYEL-BL005500360039
BI00B32J1    398789         202210247283-6448-40             CONNECTOR                CCN000007500000007500FN00000000020221001000007500NNM   20220930121718    4N0N  00000150000001087000001329032J1    UKYEL-BL005600390040
BI00B32J1    398789         202210247298-1868-80             HOUSING FEMALE ASS'Y     CCN000002400000002400FN00000000020221001000002400NNM   20220930121718    4N0N  00000240000001028600001243532J1    UKYEL-BL005500360039
BI00B32J1    398789         202210247327-6840-3W             BATTERY FUSE             CCN000005256000005256FN00000000020221001000005256NNM   20220930121718    4N0N  00000007200001140900001355932J1    UKYEL-BL005500360039
BI00B32J1    #398789        202210247158-3654-80             WIRE TUBE                CCN000080000000080000FN00000000020221001000080000NNM   20220930121718    2H0H  00004000000000104000000152232J1    UKYEL-BL004300270014
BI00B32J1    #398789        202210247282-6446-30             CONNECTOR                CCN000003000000003000FN00000000020221001000003000NNM   20220930121718    2N0N  00000150000001185000001335032J1    UKYEL-BL005500360039
BI00B32J1    #398789        202210247283-4192-40             CONNECTOR                CCN000007200000007200FN00000000020221001000007200NNM   20220930121718    2N0N  00000024000000846000000986032J1    UKYEL-BL005600390040
BI00B32J1    #398789        202210247283-8397-40             CONNECTOR                CCN000012320000012320FN00000000020221001000012320NNM   20220930121718    2N0N  00000154000001007000001222732J1    UKYEL-BL005600390023
BI00B32N3    QA-22-C084     202209307289-3342-30             HOUSING FEMALE ASS'Y     PNN000002400000002400FY00000240020220901000000000NNE00020220930151849    1N0N  00000240000000686400000901432N3    ABYIPL-B005500360039
BI00B32R4    HZYBW2212003   202211157158-3168-80             SEALED                   CCN000060000000060000FN00000000020221201000060000NNE   20220930121718    1C0C  00002000000000044000000092132R4    HZHZYME 004300260014
BI00B32R4    #HZYBW2212003  202211157158-3017                RUBBER STOPPER           CCN000090000000090000FN00000000020221201000090000NNE   20220930121718    2C0C  00001000000000375500000435032R4    HZHZYME 002700430014
BI00B32R7    R-TAP220433    202211037288-3336-30             HOUSING MALE             CCN000003000000003000FN00000000020221101000003000NNE   20220930121718    4N0N  00000150000000867000001012032R7    IVYCIC  005400370024
BI00B32U9    TPA240         202210067298-1186-40             SQUIB SUB ASS'Y          CCN000040000000040000FN00000000020221001000040000NNM00020220930145115U9  4N0N  00001000000000650000000774532U9    YNYNA-E 005400370024
BI00A32W4    #4500194120    202209307282-3243-40             CONNECTOR                CCN000001600000001600FY00000160020220901000000000NNE00020220930130642W4802N0N  00000080000001006000001282332W480  HJYHK-J 005600390040
BI00A32W4    4500196799     202210067289-9553-50             SEALED ASSY FEMALE       CCN000002940000002940FN00000000020221001000002940NNEM0020220930121718W4N64N0N  00000294000001108100001520632W4N6  HJYHK-J 005500360039
BI00B32W4    #4500198425    202210067147-3642-30             CLIP                     CCN000030000000030000FN00000000020220901000030000NNE00020220930145241W4A22F0F  00000300000000542000000721332W4A2  HJYHK-J 005600390040
BI00A32W4    #4500199274    202209307047-5344                RETAINER                 CCN000020000000020000FY00002000020220901000000000NNE00020220930130642W4802F0F  00001000000000870000001016032W480  HJYHK-J 005600390023
BI00B32W4    4500200171     202210117017-1181-02             TERMINAL                 CCN000063000000063000FN00000000020221101000063000NNE00020220930140505W41 4P0P  00006300000001089900001266832W41   HJYHK   005100280028
BI00B32W4    4500201221     202210277283-1064-30             CONNECTOR                CCN000019500000019500FN00000000020221001000019500NNED0720220930140149W4L61N0N  00000150000000983000001123032W4L6  HJYHK-K 005500360039
BI00B32W4    @4500201221    202210207283-8179                CONNECTOR HOUSING        CCN000024000000021600FN00000000020221001000021600NNED0120220930141622W4L63N0N  00000240000000549600000804032W4L6  HJYHK-K 005500360039
BI00B32W4    4500201226     202210277283-1064-30             CONNECTOR                CCN000019500000019500FN00000000020221001000019500NNED0720220930140209W4L61N0N  00000150000000983000001123032W4L6  HJYHK-K 005500360039
BI00B32W4    4500201226     202211177283-4854                CONNECTOR HOUSING        CCN000024000000024000FN00000000020221001000024000NNED0420220930140117W4L64N0N  00000240000000694100000914132W4L6  HJYHK-K 005500360039
BI00B32W4    @4500201226    202212227283-8179                CONNECTOR HOUSING        CCN000024000000024000FN00000000020221001000024000NNED0120220930141703W4L63N0N  00000240000000549600000804032W4L6  HJYHK-K 005500360039
BI00A32W4    4500201413     202211017283-5545-10             CONNECTOR                CCN000060000000060000FN00000000020221001000060000NNED0620220930144329W4O24N0N  00000060000001279000001409232W4O2  HJYHK-J 005600390040
BI00A32W4    4500201414     202210107283-8721-30             HOUSING FEMALE ASS'Y     CCN000002000000002000FN00000000020221001000002000NNE   20220930144155W4G34N0N  00000100000000350000000462532W4G3  HJYHK-J 005400370024
BI00A32W4    4500201415     202210177283-5548-30             CONNECTOR                CCN000003000000003000FN00000000020221001000003000NNE   20220930121718W4G34N0N  00000150000001109000001302032W4G3  HJYHK-J 005600390040
BI00A32W4    4500201416     202211077283-8721-30             HOUSING FEMALE ASS'Y     CCN000002000000002000FN00000000020221101000002000NNE   20220930121718W4G34N0N  00000100000000350000000462532W4G3  HJYHK-J 005400370024
BI00B32W4    4500201419     202210207116-4022                TERMINAL                 CCN000364500000364500FN00000000020221001000364500NNE   20220930121718W4514P0P  00001350000000618300000903532W451  HJ32W9  006400630015
BI00B32W4    4500201419     202210207116-4026                TERMINAL                 CCN000032000000032000FN00000000020221001000032000NNE   20220930121718W4514P0P  00001600000000664000000994332W451  HJ32W9  006400630017
BI00B32W4    4500201419     202210207116-4231-02             TERMINAL                 CCN002834000002834000FN00000000020221001002834000NNE   20220930121718W4514P0P  00002600000000683800001012532W451  HJ32W9  006400630017
BI00B32W4    4500201419     202210207116-6042                TERMINAL                 CCN000012000000012000FN00000000020221001000012000NNE   20220930121718W4514P0P  00000300000000523800000856132W451  HJ32W9  006400630015
BI00B32W4    4500201419     202210207283-1020                CONNECTOR                CCN000144000000144000FN00000000020221001000144000NNE   20220930121718W4514N0N  00000600000000840000001049332W451  HJ32W9  005600390040
BI00B32W4    4500201419     202210207283-1927-30             CONNECTOR                CCN000004000000004000FN00000000020221001000004000NNE   20220930121718W4514N0N  00000200000001190000001368032W451  HJ32W9  005500360039
BI00B32W4    4500201419     202210207283-7028-30             CONNECTOR                CCN000006000000006000FN00000000020221001000006000NNE   20220930121718W4514N0N  00000300000001452000001681332W451  HJ32W9  005600390040
BI00B32W4    #4500201419    202210207158-3610-80             RUBBER STOPPER           CCN000009000000009000FN00000000020221001000009000NNE   20220930121718W4512H0H  00000300000000396900000438932W451  HJ32W9  004300270014
BI00B32W4    #4500201419    202210207123-6423-30             CONNECTOR                CCN000002000000002000FN00000000020221001000002000NNE   20220930121718W4512F0F  00000200000001002000001167632W451  HJ32W9  005600390023
BI00B32W4    #4500201419    202210207157-3821                RUBBER STOPPER           CCN000020000000020000FN00000000020221001000020000NNE   20220930121718W4512C0C  00002000000000176000000238032W451  HJ32W9  002700430014
BI00B32W4    #4500201419    202210207186-8845                HOUSING MALE             CCN000015000000015000FN00000000020221001000015000NNE   20220930121718W4512F0F  00000300000000690000000801532W451  HJ32W9  005400370024
BI00B32W4    @4500201419    202210207282-1148-40             CONNECTOR ASS'Y          CCN000007200000007200FN00000000020221001000007200NNE   20220930121718W4513N0N  00000080000001171200001402032W451  HJ32W9  005500360039
BI00B32W4    @4500201419    202210207283-3030                HOUSING FEMALE ASS'Y     CCN000016000000016000FN00000000020221001000016000NNE   20220930121718W4513N0N  00000160000001056300001275032W451  HJ32W9  005500360039
BI00A32W4    4500201428     202211077283-5845                CONNECTOR HOUSING        CCN000012000000012000FN00000000020221101000012000NNE   20220930121718W4731N0N  00000600000000444000000606332W473  HJYHK-J 005400370024
BI00A32W4    #4500201436    202211217283-8226-30             CONNECTOR                CCN000006000000006000FN00000000020221101000006000NNE   20220930121718W4422N0N  00000200000000820000001008032W442  HJYHK   005400370024
BI00A32W4    4500201438     202212027116-4102-02             TERMINAL                 CCN000012000000012000FN00000000020221201000012000NNE   20220930121718W4424P0P  00001200000000553200000841432W442  HJYHK   006400630015
BI00A32W4    4500201438     202212027116-4026                TERMINAL                 CCN000016000000016000FN00000000020221201000016000NNE   20220930121718W4424P0P  00001600000000664000000994332W442  HJYHK   006400630017
BI00A32W4    4500201440     202212127283-7029-40             CONNECTOR                CCN000006000000006000FN00000000020221201000006000NNE   20220930121718W4421N0N  00000600000001026000001200032W442  HJYHK   005600390023
BI00A32W4    4500201445     202211287116-4112-02             TERMINAL                 CCN000006000000006000FN00000000020221101000006000NNE   20220930121718W4424P0P  00000600000000450000000738232W442  HJYHK   006400630015
BI00B32W4    #4500201446    202210207283-8397-40             CONNECTOR                CCN000024640000024640FN00000000020221001000024640NNE   20220930121718W4512N0N  00000154000001007000001222732W451  HJ32W9  005600390023
BI00B32W4    4500201458     202212087116-4122-02             TERMINAL                 CCN000009000000009000FN00000000020221201000009000NNE   20220930121718W46 4P0P  00000450000000656600000950232W46   HJYHK   006400630015
BI00B32W4    4500201458     202212087114-4101-02             TERMINAL                 CCN000030000000030000FN00000000020221201000030000NNE   20220930121718W46 4P0P  00001500000000675000001003632W46   HJYHK   006400630017
BI00B32W4    4500201458     202212087114-4112-02             TERMINAL                 CCN000054000000054000FN00000000020221201000054000NNE   20220930121718W46 4P0P  00000900000000598500000927132W46   HJYHK   006400630017
BI00B32W4    4500201458     202212087114-4100-02             TERMINAL                 CCN000108000000108000FN00000000020221201000108000NNE   20220930121718W46 4P0P  00001800000000748800001077432W46   HJYHK   006400630017
BI00B32W4    4500201458     202212087116-4111-02             TERMINAL                 CCN000037500000037500FN00000000020221201000037500NNE   20220930121718W46 4P0P  00000750000000529500000817732W46   HJYHK   006400630015
BI00B32W4    4500201458     202212087114-4111-02             TERMINAL                 CCN000024000000024000FN00000000020221201000024000NNE   20220930121718W46 4P0P  00001200000000758400001087032W46   HJYHK   006400630017
BI00B32W4    4500201466     202210277196-0805-02             TERMINAL FEMALE          CCN000045000000045000FN00000000020221001000045000NNE   20220930121718W4D44P0P  00002250000000558000000843232W4D4  HJYHK-J 006400630015
BI00B32W4    4500201466     202210277287-9323-40             UNSEALED HOUSING SUB     CCN000002400000002400FN00000000020221001000002400NNE   20220930121718W4D41N0N  00000240000000537600000690032W4D4  HJYHK-J 005600390023
BI00B32W4    4500201466     202210277298-1145-4W             SQUIB SUB ASS'Y          CCN000010000000010000FN00000000020221001000010000NNE   20220930121718W4D44N0N  00001000000000787900000944932W4D4  HJYHK-J 005400370024
BI00B32W4    4500201466     202210277174-1849-70             COVER                    CCN000025000000025000FN00000000020221001000025000NNE   20220930121718W4D41F0F  00002500000000622500000761932W4D4  HJYHK-J 005400370024
BI00B32W4    4500201466     202210277282-8120-40             CONNECTOR HOUSING        CCN000012000000012000FN00000000020221001000012000NNE   20220930121718W4D41N0N  00000300000001356000001520032W4D4  HJYHK-J 005500360039
BI00B32W4    4500201466     202210277289-6868-30             SEALED ASSY FEMALE       CCN000002520000002520FN00000000020221001000002520NNE   20220930121718W4D44N0N  00000252000000839200001119232W4D4  HJYHK-J 005500360039
BI00B32W4    #4500201466    202210277174-1760-50             CAP                      CCN000009000000009000FN00000000020221001000009000NNE   20220930121718W4D42F0F  00000300000000813600000922632W4D4  HJYHK-J 005400370024
BI00B32W4    4500201467     202211177289-6868-30             SEALED ASSY FEMALE       CCN000022680000022680FN00000000020221101000022680NNE   20220930121718W4D44N0N  00000252000000839200001119232W4D4  HJYHK-J 005500360039
BI00B32W4    4500201467     202211177172-5540-80             SEALED WIRE SEAL         CCN000040000000040000FN00000000020221101000040000NNE   20220930121718W4D41C0C  00002000000000186000000234432W4D4  HJYHK-J 004300270014
BI00B32W4    4500201469     202210277116-1686-02             TERMINAL                 CCN000210000000210000FN00000000020221001000210000NNE   20220930121718W4B74P0P  00002100000000869400001021632W4B7  HJYHK-J 005100280028
BI00B32W4    4500201469     202210277158-3167-80             WIRE SEAL                CCN000400000000400000FN00000000020221001000400000NNE   20220930121718W4B71C0C  00002000000000048000000109032W4B7  HJYHK-J 002700430014
BI00B32W4    4500201469     202210277158-3169-40             SEALING PLUG             CCN000120000000120000FN00000000020221001000120000NNE   20220930121718W4B71C0C  00004000000000156000000204132W4B7  HJYHK-J 004300260014
BI00B32W4    4500201469     202210277158-3166-60             WIRE SEAL                CCN000120000000120000FN00000000020221001000120000NNE   20220930121718W4B71C0C  00004000000000104000000152432W4B7  HJYHK-J 002700430014
BI00B32W4    #4500201469    202210277158-3007-10             RUBBER STOPPER           CCN000080000000080000FN00000000020221001000080000NNE   20220930121718W4B72H0H  00002000000000308000000362732W4B7  HJYHK-J 002700430014
BI00B32W4    4500201491     202212157289-9553-50             SEALED ASSY FEMALE       CCN000008820000008820FN00000000020221201000008820NNE   20220930121718W4B74N0N  00000294000001108100001520632W4B7  HJYHK-J 005500360039
BI00B32W4    4500201491     202212157158-3167-80             WIRE SEAL                CCN000120000000120000FN00000000020221201000120000NNE   20220930121718W4B71C0C  00002000000000048000000109032W4B7  HJYHK-J 002700430014
BI00B32W4    4500201491     202212157158-3169-40             SEALING PLUG             CCN000040000000040000FN00000000020221201000040000NNE   20220930121718W4B71C0C  00004000000000156000000204132W4B7  HJYHK-J 004300260014
BI00B32W4    #4500201491    202212157174-1760-50             CAP                      CCN000009000000009000FN00000000020221201000009000NNE   20220930121718W4B72F0F  00000300000000813600000922632W4B7  HJYHK-J 005400370024
BI00B32W4    @4500201221    202212227283-8179                CONNECTOR HOUSING        CCN000002400000002400FN00000000020221001000002400NNED0120220930141629W4L63N0N  00000240000000549600000804032W4L6  HJYHK-K 005500360039
BI00B32W9    4500201209     202210257282-6568-40             CONNECTOR                CCN000025000000025000FN00000000020221001000025000NNED0720220930140301W9  4N0N  00000100000001206000001370732W9    HKYHK   005500360039
BI00B32W9    4500201472     202211017116-4100-02             TERMINAL                 CCN000015000000015000FN00000000020221101000015000NNE   20220930121718W9  4P0P  00001500000000696000000990232W9    HKYHK   006400630015
BI00B32W9    #4500201472    202211017186-8845                HOUSING MALE             CCN000003000000003000FN00000000020221101000003000NNE   20220930121718W9  2F0F  00000300000000690000000801532W9    HKYHK   005400370024
BI00B32W9    4500201480     202211087126-8852-02             TERMINAL                 CCN000007500000007500FN00000000020221101000007500NNE   20220930121718W93 1P0P  00000750000000648000000933232W93   HKYHK   006400630015
BI00B32W9    4500201480     202211087158-3166-60             WIRE SEAL                CCN000040000000040000FN00000000020221101000040000NNE   20220930121718W93 1C0C  00004000000000104000000152432W93   HKYHK   002700430014
BI00B32W9    4500201483     202211157017-1180-02             TERMINAL                 CCN000072000000072000FN00000000020221101000072000NNE   20220930121718W93 4P0P  00007200000001065600001229032W93   HKYHK   005100280028
BI00B32Y1    TA2111A        202210037158-3166-60             WIRE SEAL                CCN000004000000000000FY00000000020221201000000000NNMQ0820220930084120    1C0C  00004000000000104000000152432Y1    YAYAS   002700430014
