AE00TO202209300130/09/202200000012700000000000000132921KGM  00000139129KGM  18000004550              AV 8 R                   AV 8 R                   0         0         0         0    0    0    00000000000127000000000211100026809700
AE00TO202209300130/09/202200000006200000000000000064890KGM  00000067922KGM  18000004570              AV 8 Y                   AV 8 Y                   0         0         0         0    0    0    00000000000062000000000211100013088200
AE00TO202209300130/09/202200000000100000000000000001011KGM  00000001060KGM  18007703910              AVSS 05F GY/R            AVSS 05F GY/R            0         0         0         0    0    0    00000000000015000000000015600000234000
AE00TO202209300130/09/202200000000200000000000000002022KGM  00000002120KGM  18007703936              AVSS 05F B/G             AVSS 05F B/G             0         0         0         0    0    0    00000000000030000000000015600000468000
AE00TO202209300130/09/202200000000100000000000000001011KGM  00000001060KGM  18007703939              AVSS 05F B/L             AVSS 05F B/L             0         0         0         0    0    0    00000000000015000000000015600000234000
AE00TO202209300130/09/202200000001000000000000000010110KGM  00000010599KGM  18007703940              AVSS 05F W               AVSS 05F W               0         0         0         0    0    0    00000000000150000000000015600002340000
AE00TO202209300130/09/202200000000200000000000000002022KGM  00000002120KGM  18007703941              AVSS 05F GY              AVSS 05F GY              0         0         0         0    0    0    00000000000030000000000015600000468000
AE00TO202209300130/09/202200000000200000000000000002022KGM  00000002120KGM  18007703943              AVSS 05F W/B             AVSS 05F W/B             0         0         0         0    0    0    00000000000030000000000015600000468000
AE00TO202209300130/09/202200000000200000000000000002022KGM  00000002120KGM  18007703945              AVSS 05F W/R             AVSS 05F W/R             0         0         0         0    0    0    00000000000030000000000015600000468000
AE00TO202209300130/09/202200000000200000000000000002022KGM  00000002120KGM  18007703946              AVSS 05F W/G             AVSS 05F W/G             0         0         0         0    0    0    00000000000030000000000015600000468000
AE00TO202209300130/09/202200000000200000000000000002022KGM  00000002120KGM  18007703949              AVSS 05F W/L             AVSS 05F W/L             0         0         0         0    0    0    00000000000030000000000015600000468000
AE00TO202209300130/09/202200000001100000000000000011121KGM  00000011659KGM  18007703950              AVSS 05F R               AVSS 05F R               0         0         0         0    0    0    00000000000165000000000015600002574000
AE00TO202209300130/09/202200000001500000000000000015165KGM  00000015898KGM  18007703951              AVSS 05F O               AVSS 05F O               0         0         0         0    0    0    00000000000225000000000015600003510000
AE00TO202209300130/09/202200000000100000000000000001011KGM  00000001060KGM  18007703952              AVSS 05F P               AVSS 05F P               0         0         0         0    0    0    00000000000015000000000015600000234000
AE00TO202209300130/09/202200000000200000000000000002022KGM  00000002120KGM  18007703953              AVSS 05F R/B             AVSS 05F R/B             0         0         0         0    0    0    00000000000030000000000015600000468000
AE00TO202209300130/09/202200000000200000000000000002022KGM  00000002120KGM  18007703954              AVSS 05F R/W             AVSS 05F R/W             0         0         0         0    0    0    00000000000030000000000015600000468000
AE00TO202209300130/09/202200000000300000000000000003033KGM  00000003180KGM  18007703957              AVSS 05F R/Y             AVSS 05F R/Y             0         0         0         0    0    0    00000000000045000000000015600000702000
AE00TO202209300130/09/202200000000100000000000000001011KGM  00000001060KGM  18007703961              AVSS 05F LG              AVSS 05F LG              0         0         0         0    0    0    00000000000015000000000015600000234000
AE00TO202209300130/09/202200000000300000000000000003033KGM  00000003180KGM  18007703964              AVSS 05F G/W             AVSS 05F G/W             0         0         0         0    0    0    00000000000045000000000015600000702000
AE00TO202209300130/09/202200000000100000000000000001011KGM  00000001060KGM  18007703967              AVSS 05F G/Y             AVSS 05F G/Y             0         0         0         0    0    0    00000000000015000000000015600000234000
AE00TO202209300130/09/202200000000700000000000000007077KGM  00000007419KGM  18007703970              AVSS 05F Y               AVSS 05F Y               0         0         0         0    0    0    00000000000105000000000015600001638000
AE00TO202209300130/09/202200000000100000000000000001011KGM  00000001060KGM  18007703976              AVSS 05F Y/G             AVSS 05F Y/G             0         0         0         0    0    0    00000000000015000000000015600000234000
AE00TO202209300130/09/202200000000100000000000000001011KGM  00000001060KGM  18007703979              AVSS 05F Y/L             AVSS 05F Y/L             0         0         0         0    0    0    00000000000015000000000015600000234000
AE00TO202209300130/09/202200000001300000000000000013143KGM  00000013779KGM  18007703990              AVSS 05F L               AVSS 05F L               0         0         0         0    0    0    00000000000195000000000015600003042000
AE00TO202209300130/09/202200000000100000000000000001011KGM  00000001060KGM  18007703992              AVSS 05F V               AVSS 05F V               0         0         0         0    0    0    00000000000015000000000015600000234000
AE00TO202209300130/09/202200000000200000000000000002022KGM  00000002120KGM  18007703995              AVSS 05F L/R             AVSS 05F L/R             0         0         0         0    0    0    00000000000030000000000015600000468000
AE00TO202209300130/09/202200000000200000000000000002022KGM  00000002120KGM  18007703997              AVSS 05F L/Y             AVSS 05F L/Y             0         0         0         0    0    0    00000000000030000000000015600000468000
AE00TO202209300130/09/202200000000300000000000000002550KGM  00000002697KGM  18009603937              AVS 05 B/Y               AVS 05 B/Y               0         0         0         0    0    0    00000000000030000000000016600000498000
AE00TO202209300130/09/202200000000100000000000000000965KGM  00000001014KGM  18018404080              CAVS 085 BR              CAVS 085 BR              0         0         0         0    0    0    00000000000010000000000022700000227000
AE00TO202209300130/09/202200000000100000000000000000965KGM  00000001014KGM  18018404091              CAVS 085 SB              CAVS 085 SB              0         0         0         0    0    0    00000000000010000000000022700000227000
AE00TO202209300130/09/202200000004500000000000000055260KGM  00000057460KGM  1801R704130              CIVUS 125 B              CIVUS 125 B              0         0         0         0    0    0    00000000000450000000000031500014175000
AE00TO202209300130/09/202200000000200000000000000002316KGM  00000002414KGM  1801R706930              CIVUS 035 B              CIVUS 035 B              0         0         0         0    0    0    00000000000060000000000009600000576000
AE00TO202209300130/09/202200000000200000000000000002316KGM  00000002414KGM  1801R706970              CIVUS 035 Y              CIVUS 035 Y              0         0         0         0    0    0    00000000000060000000000009600000576000
AE00TO202209300130/09/202200000000200000000000000002316KGM  00000002414KGM  1801R706980              CIVUS 035 BR             CIVUS 035 BR             0         0         0         0    0    0    00000000000060000000000009600000576000
AE00TO202209300130/09/202200000000300000000000000003474KGM  00000003621KGM  1801R706990              CIVUS 035 L              CIVUS 035 L              0         0         0         0    0    0    00000000000090000000000009600000864000
AE00TO202209300130/09/202200000001000000000000000011250KGM  00000011739KGM  1801W003930              IVSSH 05F B              IVSSH 05F B              0         0         0         0    0    0    00000000000180000000000015400002772000
AE00TO202209300130/09/202200000000100000000000000001125KGM  00000001174KGM  1801W003950              IVSSH 05F R              IVSSH 05F R              0         0         0         0    0    0    00000000000018000000000015400000277200
AE00TO202209300130/09/202200000012100000000000000136125KGM  00000142041KGM  1801W003952              IVSSH 05F P              IVSSH 05F P              0         0         0         0    0    0    00000000002178000000000015400033541200
AE00TO202209300130/09/202200000000100000000000000001125KGM  00000001174KGM  1801W003960              IVSSH 05F G              IVSSH 05F G              0         0         0         0    0    0    00000000000018000000000015400000277200
AE00TO202209300130/09/202200000005400000000000000060750KGM  00000063390KGM  1801W003970              IVSSH 05F Y              IVSSH 05F Y              0         0         0         0    0    0    00000000000972000000000015400014968800
AE00TO202209300130/09/202200000000200000000000000002250KGM  00000002348KGM  1801W003990              IVSSH 05F L              IVSSH 05F L              0         0         0         0    0    0    00000000000036000000000015400000554400
AE00TO202209300130/09/202200000000200000000000000002250KGM  00000002348KGM  1801W003991              IVSSH 05F SB             IVSSH 05F SB             0         0         0         0    0    0    00000000000036000000000015400000554400
AE00TO202209300130/09/202200000001600000000000000018000KGM  00000018783KGM  1801W003992              IVSSH 05F V              IVSSH 05F V              0         0         0         0    0    0    00000000000288000000000015400004435200
AE00TO202209300130/09/202200000002300000000000000026452KGM  00000027577KGM  1801W004230              IVSSH 2F B               IVSSH 2F B               0         0         0         0    0    0    00000000000126500000000055500007020750
AE00TO202209300130/09/202200000000900000000000000010351KGM  00000010791KGM  1801W004240              IVSSH 2F W               IVSSH 2F W               0         0         0         0    0    0    00000000000049500000000055500002747250
AE00TO202209300130/09/202200000000400000000000000004600KGM  00000004796KGM  1801W004243              IVSSH 2F W/B             IVSSH 2F W/B             0         0         0         0    0    0    00000000000022000000000055500001221000
AE00TO202209300130/09/202200000003900000000000000044854KGM  00000046761KGM  1801W004250              IVSSH 2F R               IVSSH 2F R               0         0         0         0    0    0    00000000000214500000000055500011904750
AE00TO202209300130/09/202200000001500000000000000017252KGM  00000017985KGM  1801W004260              IVSSH 2F G               IVSSH 2F G               0         0         0         0    0    0    00000000000082500000000055500004578750
AE00TO202209300130/09/202200000000100000000000000001130KGM  00000001179KGM  1801W006991              IVSSH 035F SB            IVSSH 035F SB            0         0         0         0    0    0    00000000000025000000000011400000285000
AE00TO202209300130/09/202200000002000000000000000020670KGM  00000021648KGM  180D0203940              AVSSH 05F W              AVSSH 05F W              0         0         0         0    0    0    00000000000300000000000016300004890000
AE00TO202209300130/09/202200000001800000000000000018604KGM  00000019483KGM  180D0203943              AVSSH 05F W/B            AVSSH 05F W/B            0         0         0         0    0    0    00000000000270000000000016300004401000
AE00TO202209300130/09/202200000000200000000000000002067KGM  00000002165KGM  180D0203945              AVSSH 05F W/R            AVSSH 05F W/R            0         0         0         0    0    0    00000000000030000000000016300000489000
AE00TO202209300130/09/202200000000200000000000000002067KGM  00000002165KGM  180D0203946              AVSSH 05F W/G            AVSSH 05F W/G            0         0         0         0    0    0    00000000000030000000000016300000489000
AE00TO202209300130/09/202200000000200000000000000002067KGM  00000002165KGM  180D0203949              AVSSH 05F W/L            AVSSH 05F W/L            0         0         0         0    0    0    00000000000030000000000016300000489000
AE00TO202209300130/09/202200000002000000000000000020670KGM  00000021648KGM  180D0203950              AVSSH 05F R              AVSSH 05F R              0         0         0         0    0    0    00000000000300000000000016300004890000
AE00TO202209300130/09/202200000001700000000000000017570KGM  00000018401KGM  180D0203952              AVSSH 05F P              AVSSH 05F P              0         0         0         0    0    0    00000000000255000000000016300004156500
AE00TO202209300130/09/202200000000200000000000000002067KGM  00000002165KGM  180D0203953              AVSSH 05F R/B            AVSSH 05F R/B            0         0         0         0    0    0    00000000000030000000000016300000489000
AE00TO202209300130/09/202200000000200000000000000002067KGM  00000002165KGM  180D0203954              AVSSH 05F R/W            AVSSH 05F R/W            0         0         0         0    0    0    00000000000030000000000016300000489000
AE00TO202209300130/09/202200000000100000000000000001034KGM  00000001082KGM  180D0203961              AVSSH 05F LG             AVSSH 05F LG             0         0         0         0    0    0    00000000000015000000000016300000244500
AE00TO202209300130/09/202200000001200000000000000012403KGM  00000012989KGM  180D0203970              AVSSH 05F Y              AVSSH 05F Y              0         0         0         0    0    0    00000000000180000000000016300002934000
AE00TO202209300130/09/202200000000700000000000000007235KGM  00000007577KGM  180D0203980              AVSSH 05F BR             AVSSH 05F BR             0         0         0         0    0    0    00000000000105000000000016300001711500
AE00TO202209300130/09/202200000000500000000000000005168KGM  00000005412KGM  180D0203990              AVSSH 05F L              AVSSH 05F L              0         0         0         0    0    0    00000000000075000000000016300001222500
AE00TO202209300130/09/202200000001500000000000000015503KGM  00000016236KGM  180D0203992              AVSSH 05F V              AVSSH 05F V              0         0         0         0    0    0    00000000000225000000000016300003667500
AE00TO202209300130/09/202200000000700000000000000007235KGM  00000007577KGM  180D0203994              AVSSH 05F L/W            AVSSH 05F L/W            0         0         0         0    0    0    00000000000105000000000016300001711500
AE00TO202209300130/09/202200000000400000000000000004134KGM  00000004330KGM  180D0203995              AVSSH 05F L/R            AVSSH 05F L/R            0         0         0         0    0    0    00000000000060000000000016300000978000
AE00TO202209300130/09/202200000000100000000000000001034KGM  00000001082KGM  180D0203997              AVSSH 05F L/Y            AVSSH 05F L/Y            0         0         0         0    0    0    00000000000015000000000016300000244500
AE00TO202209300130/09/202200000000100000000000000000760KGM  00000000809KGM  181AD2003ZZ              CIVUSAS-S 035X3 B        CIVUSAS-S 035X3 B        0         0         0         0    0    0    00000000000003500000000055300000193550
AE00TO202209300130/09/202200000012900000000000000108356KGM  00000114663KGM  181AD2004ZZ              CIVUSAS-S 035X4 B        CIVUSAS-S 035X4 B        0         0         0         0    0    0    00000000000387000000000066700025812900
AE00TO202209300130/09/202200000011200000000000000090854KGM  00000096330KGM  181AD2008ZZ              CIVUSAS-S 05X2 B         CIVUSAS-S 05X2 B         0         0         0         0    0    0    00000000000448000000000051400023027200
AE00TO202209300130/09/202200000000700000000000000006409KGM  00000006751KGM  181B32039S1              AVSSCS 05FX1 DGY         AVSSCS 05FX1 DGY         0         0         0         0    0    0    00000000000028000000000055900001565200
AE00TO202209300130/09/202200000000500000000000000004578KGM  00000004822KGM  181B32039Y5              AVSSCS 05FX1 DGY/W       AVSSCS 05FX1 DGY/W       0         0         0         0    0    0    00000000000020000000000055900001118000
AE00TO202209300130/09/202200000000400000000000000003662KGM  00000003858KGM  181B32039Y6              AVSSCS 05FX1 DGY/G       AVSSCS 05FX1 DGY/G       0         0         0         0    0    0    00000000000016000000000055900000894400
AE00TO202209300130/09/202200000000400000000000000003662KGM  00000003858KGM  181B32039Z5              AVSSCS 05FX1 DGY/L       AVSSCS 05FX1 DGY/L       0         0         0         0    0    0    00000000000016000000000055900000894400
AE00TO202209300130/09/202200000000400000000000000003056KGM  00000003251KGM  181E50000ZZ              AVSSCS-S 05FX1 DGY/BR    AVSSCS-S 05FX1 DGY/BR    0         0         0         0    0    0    00000000000016000000000050400000806400
AE00TO202209300130/09/202200000001500000000000000011458KGM  00000012192KGM  181E50005ZZ              AVSSCS-S 05FX1 DGY/W     AVSSCS-S 05FX1 DGY/W     0         0         0         0    0    0    00000000000060000000000050400003024000
AE00TO202209300130/09/202200000001700000000000000012987KGM  00000013817KGM  181E50006ZZ              AVSSCS-S 05FX1 DGY/Y     AVSSCS-S 05FX1 DGY/Y     0         0         0         0    0    0    00000000000068000000000050400003427200
AE00TO202209300130/09/202200000000600000000000000004584KGM  00000004876KGM  181E50007ZZ              AVSSCS-S 05FX1 DGY/L     AVSSCS-S 05FX1 DGY/L     0         0         0         0    0    0    00000000000024000000000050400001209600
AE00TO202209300130/09/202200000000300000000000000002273KGM  00000002420KGM  181E50036ZZ              AVSSCS-S 03FX2 DGY       AVSSCS-S 03FX2 DGY       0         0         0         0    0    0    00000000000010500000000059400000623700
