BI00B32AG    @XG23011LMW    20221202181E48031ZZ              CAVSAS-S 0.3X2 GY        CCN000005950000005950FN00000000020230101000005950NNM   20220930145622    1W    00000035000002008700000000032AG    XGXGY   000000000000XX32B001
BI00B32AG    @XG23012LMW    20221209181E48031ZZ              CAVSAS-S 0.3X2 GY        CCN000001750000001750FN00000000020230101000001750NNM   20220930145622    1W    00000035000002008700000000032AG    XGXGY   000000000000XX42B001
BI00B32AG    @XG23013LMW    20221216181E48031ZZ              CAVSAS-S 0.3X2 GY        CCN000003500000003500FN00000000020230101000003500NNM   20220930145622    1W    00000035000002008700000000032AG    XGXGY   000000000000XX52B001
BI00B32AG    @XG23014LMW    20221223181E48031ZZ              CAVSAS-S 0.3X2 GY        CCN000001400000001400FN00000000020230101000001400NNM   20220930145622    1W    00000035000002008700000000032AG    XGXGY   000000000000XX12C001
BI00B32AG    @XG23012QMW    20221209181E48027ZZ              CAVSAS-S 0.5X2 GY/P      CCN000000300000000300FN00000000020230101000000300NNM   20220930145623    1W    00000030000002561000000000032AG    XGXGY   000000000000XZ42B002
BI00B32AG    @XG23013QMW    20221216181E48027ZZ              CAVSAS-S 0.5X2 GY/P      CCN000000300000000300FN00000000020230101000000300NNM   20220930145623    1W    00000030000002561000000000032AG    XGXGY   000000000000XZ52B001
BI00B32AG    @XG23014QMW    20221223181E48027ZZ              CAVSAS-S 0.5X2 GY/P      CCN000000300000000300FN00000000020230101000000300NNM   20220930145623    1W    00000030000002561000000000032AG    XGXGY   000000000000XZ12C004
BI00B32AG    @XG23011QMW    20221202181E48018ZZ              CAVSAS-S 0.5X2 GY/SB     CCN000000600000000600FN00000000020230101000000600NNM   20220930145623    1W    00000030000002561000000000032AG    XGXGY   000000000000XZ32B003
BI00B32AG    @XG23013QMW    20221216181E48018ZZ              CAVSAS-S 0.5X2 GY/SB     CCN000000300000000300FN00000000020230101000000300NNM   20220930145623    1W    00000030000002561000000000032AG    XGXGY   000000000000XZ52B002
BI00B32AG    @XG23014QMW    20221223181E48018ZZ              CAVSAS-S 0.5X2 GY/SB     CCN000000300000000300FN00000000020230101000000300NNM   20220930145623    1W    00000030000002561000000000032AG    XGXGY   000000000000XZ12C005
BI00B32CH    @SJ2211AMMW    20221012181E50004ZZ              AVSSCS-S 0.5FX1 DGY      CCN000000400000000400FN00000000020221101000000400NNE   20220930145525    1W    00000040000001909700000000032CH    SJSAMIJF000000000000QV429003
BI00B32GE    DHTW2252       2022110318000004530              AV 8 B                   CCN000040500000040500FN00000000020221201000040500NNM   20220930153920    1W    00000010000010466200000000032GE    GEYKHT  000000000000RA32A064
BI00B32GE    DHTW2252       2022110318000004534              AV 8 B/W                 CCN000008500000008500FN00000000020221201000008500NNM   20220930153920    1W    00000010000010466200000000032GE    GEYKHT  000000000000RA32A066
BI00B32GE    DHTW2252       2022110318000004535              AV 8 B/R                 CCN000004800000004800FN00000000020221201000004800NNM   20220930153920    1W    00000010000010466200000000032GE    GEYKHT  000000000000RA32A065
BI00B32GE    DHTW2252       2022110318000004540              AV 8 W                   CCN000013200000013200FN00000000020221201000013200NNM   20220930153920    1W    00000010000010466200000000032GE    GEYKHT  000000000000RA32A068
BI00B32GE    DHTW2252       2022110318000004543              AV 8 W/B                 CCN000014000000014000FN00000000020221201000014000NNM   20220930153920    1W    00000010000010466200000000032GE    GEYKHT  000000000000RA32A069
BI00B32GE    DHTW2252       2022110318000004590              AV 8 L                   CCN000010000000010000FN00000000020221201000010000NNM   20220930153920    1W    00000010000010466200000000032GE    GEYKHT  000000000000RA32A067
BI00B32GE    @DHTW2252      20221103181AD2002ZZ              CIVUSAS-S 0.35X2 B       CCN000037800000037800FN00000000020221201000037800NNM   20220930153919    1W    00000045000001713700000000032GE    GEYKHT  000000000000RA32A030
BI00B32GE    @DHTW2252      20221103181AD2003ZZ              CIVUSAS-S 0.35X3 B       CCN000020500000020650FN00000000020221201000020650NNM   20220930153919    1W    00000035000002172100000000032GE    GEYKHT  000000000000RA32A032
BI00B32GE    @DHTW2252      20221103181AD2004ZZ              CIVUSAS-S 0.35X4 B       CCN000006000000006000FN00000000020221201000006000NNM   20220930153919    1W    00000030000002799900000000032GE    GEYKHT  000000000000RA32A033
BI00B32GE    @DHTW2252      20221103181AD2022ZZ              CIVUSAS-S 0.35X2 B(R,G)  CCN000000300000000450FN00000000020221201000000450NNM   20220930153919    1W    00000045000001714000000000032GE    GEYKHT  000000000000RA32A031
BI00B32GE    @DHTW2252      20221103181E48031ZZ              CAVSAS-S 0.3X2 GY        CCN000013650000013650FN00000000020221201000013650NNM   20220930153919    1W    00000035000002008700000000032GE    GEYKHT  000000000000RA32A034
BI00B32GE    @DHTW2252      20221103181E48037ZZ              CAVSAS-S 0.3X4 GY        CCN000003000000003000FN00000000020221201000003000NNM   20220930153919    1W    00000025000003262000000000032GE    GEYKHT  000000000000RA32A036
BI00B32GE    @DHTW2252      20221103181E48041ZZ              CAVSAS-S 0.3X2 GY/R      CCN000012950000012950FN00000000020221201000012950NNM   20220930153919    1W    00000035000002008700000000032GE    GEYKHT  000000000000RA32A035
BI00B32GE    @DHTW2252      20221103181E50002ZZ              AVSSCS-S 0.3FX2 DGY/G    CCN000008050000008050FN00000000020221201000008050NNM   20220930153919    1W    00000035000002165000000000032GE    GEYKHT  000000000000RA32A043
BI00B32GE    @DHTW2252      20221103181E50004ZZ              AVSSCS-S 0.5FX1 DGY      CCN000024000000024000FN00000000020221201000024000NNM   20220930153919    1W    00000040000001909700000000032GE    GEYKHT  000000000000RA32A037
BI00B32GE    @DHTW2252      20221103181E50005ZZ              AVSSCS-S 0.5FX1 DGY/W    CCN000014800000014800FN00000000020221201000014800NNM   20220930153919    1W    00000040000001909700000000032GE    GEYKHT  000000000000RA32A039
BI00B32GE    @DHTW2252      20221103181E50006ZZ              AVSSCS-S 0.5FX1 DGY/Y    CCN000000400000000400FN00000000020221201000000400NNM   20220930153919    1W    00000040000001909700000000032GE    GEYKHT  000000000000RA32A040
BI00B32GE    @DHTW2252      20221103181E50007ZZ              AVSSCS-S 0.5FX1 DGY/L    CCN000003600000003600FN00000000020221201000003600NNM   20220930153919    1W    00000040000001909700000000032GE    GEYKHT  000000000000RA32A038
BI00B32GE    @DHTW2252      20221103181E50012ZZ              AVSSCS-S 0.5FX2 DGY/G    CCN000007200000007200FN00000000020221201000007200NNM   20220930153919    1W    00000030000003096000000000032GE    GEYKHT  000000000000RA32A041
BI00B32GE    @DHTW2252      20221103181E50020ZZ              AVSSCS-S 0.3FX2 DGY/R    CCN000004900000004900FN00000000020221201000004900NNM   20220930153919    1W    00000035000002165000000000032GE    GEYKHT  000000000000RA32A045
BI00B32GE    @DHTW2252      20221103181E50021ZZ              AVSSCS-S 0.3FX2 DGY/P    CCN000011200000011200FN00000000020221201000011200NNM   20220930153919    1W    00000035000002165000000000032GE    GEYKHT  000000000000RA32A044
BI00B32GE    @DHTW2252      20221103181E50036ZZ              AVSSCS-S 0.3FX2 DGY      CCN000017850000017850FN00000000020221201000017850NNM   20220930153919    1W    00000035000002165000000000032GE    GEYKHT  000000000000RA32A042
BI00B32GE    @DHTW2252      20221103181F21015ZZ              AVSSHCS-S 0.5FX2 B/P     CCN000012900000012900FN00000000020221201000012900NNM   20220930153919    1W    00000030000002531400000000032GE    GEYKHT  000000000000RA32A047
BI00B32GE    @DHTW2252      20221103181F21016ZZ              AVSSHCS-S 0.5FX2 B/BR    CCN000008400000008400FN00000000020221201000008400NNM   20220930153919    1W    00000030000002531400000000032GE    GEYKHT  000000000000RA32A046
BI00B32GE    @DHTW2252      20221103181F21028ZZ              AVSSHCS-S 1.25FX2 B/R    CCN000000200000000200FN00000000020221201000000200NNM   20220930153919    1W    00000020000004267300000000032GE    GEYKHT  000000000000RA32A049
BI00B32GE    @DHTW2252      20221103181F21029ZZ              AVSSHCS-S 1.25FX2 B/Y    CCN000000200000000200FN00000000020221201000000200NNM   20220930153919    1W    00000020000004267300000000032GE    GEYKHT  000000000000RA32A050
BI00B32GE    @DHTW2252      20221103181F21031ZZ              AVSSHCS-S 1.25FX2 B/P    CCN000010400000010400FN00000000020221201000010400NNM   20220930153919    1W    00000020000004267300000000032GE    GEYKHT  000000000000RA32A048
BI00B32J1    @398791        20221024181AD2002ZZ              CIVUSAS-S 0.35X2 B       CCN000009900000009900FN00000000020221001000009900NNE   20220930143237    1W    00000045000001713700000000032J1    UKYEL-BL000000000000KG22A001
BI00B32J1    @398791        20221024181AD2003ZZ              CIVUSAS-S 0.35X3 B       CCN000027650000027650FN00000000020221001000027650NNE   20220930143237    1W    00000035000002172100000000032J1    UKYEL-BL000000000000KG22A002
BI00B32Q8    EW22122 MW     20221026180D0203752              AVSSH 0.3F P             CCN000004000000000000FY00000000020221201000000000NNM10 20220930083953    1W    00000200000000515000000000032Q8    EMEMI   000000000000MI22A009
BI00B32Q8    EW22123 MW     20221102180D0203752              AVSSH 0.3F P             CCN000002000000000000FY00000000020221201000000000NNM10 20220930083932    1W    00000200000000515000000000032Q8    EMEMI   000000000000MI32A009
BI00B32Q8    EW22124 MW     20221109180D0203752              AVSSH 0.3F P             CCN000002000000000000FY00000000020221201000000000NNM10 20220930083912    1W    00000200000000515000000000032Q8    EMEMI   000000000000MI42A010
BI00B32R4    HZYBW2212004   2022101818000004530              AV 8 B                   CCN000010000000010000FN00000000020221101000010000NNE   20220930144233    1W    00000010000010466200000000032R4    HYHZY   000000000000HZ12A002
BI00B32R4    HZYBW2212004   20221018180D0203937              AVSSH 0.5F B/Y           CCN000003000000003000FN00000000020221101000003000NNE   20220930144233    1W    00000150000000689000000000032R4    HYHZY   000000000000HZ12A001
BI00B32R4    HZYBW2212004   2022101818018403961              CAVS 0.5 LG              CCN000006000000006000FN00000000020221101000006000NNE   20220930144233    1W    00000150000000677000000000032R4    HYHZY   000000000000HZ12A004
BI00B32R4    HZYBW2212004   2022101818000004540              AV 8 W                   CCN000010000000010000FN00000000020221101000010000NNE   20220930144233    1W    00000010000010466200000000032R4    HYHZY   000000000000HZ12A003
BI00B32W4    4500201408     2022101818009604030              AVS 0.85 B               CCN000001000000001000FN00000000020221001000001000NNE   20220930143947W42 1W    00000100000001167700000000032W42   HJYHK-J 000000000000OW12A011
BI00B32W4    4500201408     2022101818009604150              AVS 1.25 R               CCN000000800000000800FN00000000020221001000000800NNE   20220930143947W42 1W    00000080000001643000000000032W42   HJYHK-J 000000000000OW12A012
BI00B32W4    4500201408     2022101818009604330              AVS 3 B                  CCN000001200000001200FN00000000020221001000001200NNE   20220930143947W42 1W    00000040000003831600000000032W42   HJYHK-J 000000000000OW12A013
BI00B32W4    4500201408     2022101818009604354              AVS 3 R/W                CCN000000800000000800FN00000000020221001000000800NNE   20220930143947W42 1W    00000040000003831600000000032W42   HJYHK-J 000000000000OW12A014
BI00B32W4    4500201408     2022101818007703930              AVSS 0.5F B              CCN000001500000001500FN00000000020221001000001500NNE   20220930143947W42 1W    00000150000000674000000000032W42   HJYHK-J 000000000000OW12A001
BI00B32W4    4500201408     2022101818007703960              AVSS 0.5F G              CCN000003000000003000FN00000000020221001000003000NNE   20220930143947W42 1W    00000150000000674000000000032W42   HJYHK-J 000000000000OW12A002
BI00B32W4    4500201408     2022101818007703965              AVSS 0.5F G/R            CCN000001500000001500FN00000000020221001000001500NNE   20220930143947W42 1W    00000150000000674000000000032W42   HJYHK-J 000000000000OW12A003
BI00B32W4    4500201408     2022101818007703990              AVSS 0.5F L              CCN000001500000001500FN00000000020221001000001500NNE   20220930143947W42 1W    00000150000000674000000000032W42   HJYHK-J 000000000000OW12A004
BI00B32W4    4500201408     2022101818007703970              AVSS 0.5F Y              CCN000001500000001500FN00000000020221001000001500NNE   20220930143947W42 1W    00000150000000674000000000032W42   HJYHK-J 000000000000OW12A005
BI00B32W4    4500201408     2022101818007704130              AVSS 1.25F B             CCN000004800000004800FN00000000020221001000004800NNE   20220930143947W42 1W    00000080000001389000000000032W42   HJYHK-J 000000000000OW12A006
BI00B32W4    4500201408     2022101818007704151              AVSS 1.25F O             CCN000005600000005600FN00000000020221001000005600NNE   20220930143947W42 1W    00000080000001389000000000032W42   HJYHK-J 000000000000OW12A007
BI00B32W4    4500201408     2022101818007704150              AVSS 1.25F R             CCN000001600000001600FN00000000020221001000001600NNE   20220930143947W42 1W    00000080000001389000000000032W42   HJYHK-J 000000000000OW12A008
BI00B32W4    4500201408     2022101818007704230              AVSS 2F B                CCN000004500000004500FN00000000020221001000004500NNE   20220930143947W42 1W    00000050000002126400000000032W42   HJYHK-J 000000000000OW12A009
BI00B32W4    4500201408     2022101818007704250              AVSS 2F R                CCN000002500000002500FN00000000020221001000002500NNE   20220930143947W42 1W    00000050000002126400000000032W42   HJYHK-J 000000000000OW12A010
BI00B32W4    4500201408     2022101818018403730              CAVS 0.3 B               CCN000008000000008000FN00000000020221001000008000NNE   20220930143947W42 1W    00000200000000471000000000032W42   HJYHK-J 000000000000OW12A015
BI00B32W4    4500201408     2022101818018403739              CAVS 0.3 B/L             CCN000006000000006000FN00000000020221001000006000NNE   20220930143947W42 1W    00000200000000471000000000032W42   HJYHK-J 000000000000OW12A016
BI00B32W4    4500201408     2022101818018403735              CAVS 0.3 B/R             CCN000002000000002000FN00000000020221001000002000NNE   20220930143947W42 1W    00000200000000471000000000032W42   HJYHK-J 000000000000OW12A017
BI00B32W4    4500201408     2022101818018403734              CAVS 0.3 B/W             CCN000004000000004000FN00000000020221001000004000NNE   20220930143947W42 1W    00000200000000471000000000032W42   HJYHK-J 000000000000OW12A018
BI00B32W4    4500201408     2022101818018403760              CAVS 0.3 G               CCN000002000000002000FN00000000020221001000002000NNE   20220930143947W42 1W    00000200000000471000000000032W42   HJYHK-J 000000000000OW12A019
BI00B32W4    4500201408     2022101818018403763              CAVS 0.3 G/B             CCN000002000000002000FN00000000020221001000002000NNE   20220930143947W42 1W    00000200000000471000000000032W42   HJYHK-J 000000000000OW12A020
BI00B32W4    4500201408     2022101818018403790              CAVS 0.3 L               CCN000002000000002000FN00000000020221001000002000NNE   20220930143947W42 1W    00000200000000471000000000032W42   HJYHK-J 000000000000OW12A021
BI00B32W4    4500201408     2022101818018403717              CAVS 0.3 LG/B            CCN000002000000002000FN00000000020221001000002000NNE   20220930143947W42 1W    00000200000000471000000000032W42   HJYHK-J 000000000000OW12A022
BI00B32W4    4500201408     2022101818018403751              CAVS 0.3 O               CCN000002000000002000FN00000000020221001000002000NNE   20220930143947W42 1W    00000200000000471000000000032W42   HJYHK-J 000000000000OW12A023
BI00B32W4    4500201408     2022101818018403752              CAVS 0.3 P               CCN000002000000002000FN00000000020221001000002000NNE   20220930143947W42 1W    00000200000000471000000000032W42   HJYHK-J 000000000000OW12A024
BI00B32W4    4500201408     2022101818018403707              CAVS 0.3 P/B             CCN000002000000002000FN00000000020221001000002000NNE   20220930143947W42 1W    00000200000000471000000000032W42   HJYHK-J 000000000000OW12A025
BI00B32W4    4500201408     2022101818018403756              CAVS 0.3 R/G             CCN000002000000002000FN00000000020221001000002000NNE   20220930143947W42 1W    00000200000000471000000000032W42   HJYHK-J 000000000000OW12A026
BI00B32W4    4500201408     2022101818018403754              CAVS 0.3 R/W             CCN000002000000002000FN00000000020221001000002000NNE   20220930143947W42 1W    00000200000000471000000000032W42   HJYHK-J 000000000000OW12A027
BI00B32W4    4500201408     2022101818018403757              CAVS 0.3 R/Y             CCN000006000000006000FN00000000020221001000006000NNE   20220930143947W42 1W    00000200000000471000000000032W42   HJYHK-J 000000000000OW12A028
BI00B32W4    4500201408     2022101818018403740              CAVS 0.3 W               CCN000002000000002000FN00000000020221001000002000NNE   20220930143947W42 1W    00000200000000471000000000032W42   HJYHK-J 000000000000OW12A029
BI00B32W4    4500201408     2022101818018403745              CAVS 0.3 W/R             CCN000002000000002000FN00000000020221001000002000NNE   20220930143947W42 1W    00000200000000471000000000032W42   HJYHK-J 000000000000OW12A030
BI00B32W4    4500201408     2022101818018403776              CAVS 0.3 Y/G             CCN000002000000002000FN00000000020221001000002000NNE   20220930143947W42 1W    00000200000000471000000000032W42   HJYHK-J 000000000000OW12A031
BI00B32W4    4500201408     2022101818018403775              CAVS 0.3 Y/R             CCN000002000000002000FN00000000020221001000002000NNE   20220930143947W42 1W    00000200000000471000000000032W42   HJYHK-J 000000000000OW12A032
BI00B32W4    4500201408     2022101818018403930              CAVS 0.5 B               CCN000019500000019500FN00000000020221001000019500NNE   20220930143947W42 1W    00000150000000677000000000032W42   HJYHK-J 000000000000OW12A033
BI00B32W4    4500201408     2022101818018403936              CAVS 0.5 B/G             CCN000003000000003000FN00000000020221001000003000NNE   20220930143947W42 1W    00000150000000677000000000032W42   HJYHK-J 000000000000OW12A034
BI00B32W4    4500201408     2022101818018403939              CAVS 0.5 B/L             CCN000009000000009000FN00000000020221001000009000NNE   20220930143947W42 1W    00000150000000677000000000032W42   HJYHK-J 000000000000OW12A035
BI00B32W4    4500201408     2022101818018403935              CAVS 0.5 B/R             CCN000004500000004500FN00000000020221001000004500NNE   20220930143947W42 1W    00000150000000677000000000032W42   HJYHK-J 000000000000OW12A036
BI00B32W4    4500201408     2022101818018403934              CAVS 0.5 B/W             CCN000001500000001500FN00000000020221001000001500NNE   20220930143947W42 1W    00000150000000677000000000032W42   HJYHK-J 000000000000OW12A037
BI00B32W4    4500201408     2022101818018403980              CAVS 0.5 BR              CCN000010500000010500FN00000000020221001000010500NNE   20220930143947W42 1W    00000150000000677000000000032W42   HJYHK-J 000000000000OW12A038
BI00B32W4    4500201408     2022101818018403984              CAVS 0.5 BR/W            CCN000007500000007500FN00000000020221001000007500NNE   20220930143947W42 1W    00000150000000677000000000032W42   HJYHK-J 000000000000OW12A039
BI00B32W4    4500201408     2022101818018403960              CAVS 0.5 G               CCN000006000000006000FN00000000020221001000006000NNE   20220930143947W42 1W    00000150000000677000000000032W42   HJYHK-J 000000000000OW12A040
BI00B32W4    4500201408     2022101818018403965              CAVS 0.5 G/R             CCN000001500000001500FN00000000020221001000001500NNE   20220930143947W42 1W    00000150000000677000000000032W42   HJYHK-J 000000000000OW12A041
BI00B32W4    4500201408     2022101818018403964              CAVS 0.5 G/W             CCN000001500000001500FN00000000020221001000001500NNE   20220930143947W42 1W    00000150000000677000000000032W42   HJYHK-J 000000000000OW12A042
BI00B32W4    4500201408     2022101818018403990              CAVS 0.5 L               CCN000010500000010500FN00000000020221001000010500NNE   20220930143947W42 1W    00000150000000677000000000032W42   HJYHK-J 000000000000OW12A043
BI00B32W4    4500201408     2022101818018403995              CAVS 0.5 L/R             CCN000003000000003000FN00000000020221001000003000NNE   20220930143947W42 1W    00000150000000677000000000032W42   HJYHK-J 000000000000OW12A044
BI00B32W4    4500201408     2022101818018403994              CAVS 0.5 L/W             CCN000001500000001500FN00000000020221001000001500NNE   20220930143947W42 1W    00000150000000677000000000032W42   HJYHK-J 000000000000OW12A045
BI00B32W4    4500201408     2022101818018403997              CAVS 0.5 L/Y             CCN000001500000001500FN00000000020221001000001500NNE   20220930143947W42 1W    00000150000000677000000000032W42   HJYHK-J 000000000000OW12A046
BI00B32W4    4500201408     2022101818018403961              CAVS 0.5 LG              CCN000001500000001500FN00000000020221001000001500NNE   20220930143947W42 1W    00000150000000677000000000032W42   HJYHK-J 000000000000OW12A047
BI00B32W4    4500201408     2022101818018403951              CAVS 0.5 O               CCN000004500000004500FN00000000020221001000004500NNE   20220930143947W42 1W    00000150000000677000000000032W42   HJYHK-J 000000000000OW12A048
BI00B32W4    4500201408     2022101818018403952              CAVS 0.5 P               CCN000003000000003000FN00000000020221001000003000NNE   20220930143947W42 1W    00000150000000677000000000032W42   HJYHK-J 000000000000OW12A049
BI00B32W4    4500201408     2022101818018403950              CAVS 0.5 R               CCN000007500000007500FN00000000020221001000007500NNE   20220930143947W42 1W    00000150000000677000000000032W42   HJYHK-J 000000000000OW12A050
BI00B32W4    4500201408     2022101818018403956              CAVS 0.5 R/G             CCN000010500000010500FN00000000020221001000010500NNE   20220930143947W42 1W    00000150000000677000000000032W42   HJYHK-J 000000000000OW12A051
BI00B32W4    4500201408     2022101818018403954              CAVS 0.5 R/W             CCN000006000000006000FN00000000020221001000006000NNE   20220930143947W42 1W    00000150000000677000000000032W42   HJYHK-J 000000000000OW12A052
BI00B32W4    4500201408     2022101818018403957              CAVS 0.5 R/Y             CCN000006000000006000FN00000000020221001000006000NNE   20220930143947W42 1W    00000150000000677000000000032W42   HJYHK-J 000000000000OW12A053
BI00B32W4    4500201408     2022101818018403992              CAVS 0.5 V               CCN000003000000003000FN00000000020221001000003000NNE   20220930143947W42 1W    00000150000000677000000000032W42   HJYHK-J 000000000000OW12A054
BI00B32W4    4500201408     2022101818018403940              CAVS 0.5 W               CCN000003000000003000FN00000000020221001000003000NNE   20220930143947W42 1W    00000150000000677000000000032W42   HJYHK-J 000000000000OW12A055
BI00B32W4    4500201408     2022101818018403943              CAVS 0.5 W/B             CCN000003000000003000FN00000000020221001000003000NNE   20220930143947W42 1W    00000150000000677000000000032W42   HJYHK-J 000000000000OW12A056
BI00B32W4    4500201408     2022101818018403949              CAVS 0.5 W/L             CCN000003000000003000FN00000000020221001000003000NNE   20220930143947W42 1W    00000150000000677000000000032W42   HJYHK-J 000000000000OW12A057
BI00B32W4    4500201408     2022101818018403945              CAVS 0.5 W/R             CCN000007500000007500FN00000000020221001000007500NNE   20220930143947W42 1W    00000150000000677000000000032W42   HJYHK-J 000000000000OW12A058
BI00B32W4    4500201408     2022101818018403970              CAVS 0.5 Y               CCN000006000000006000FN00000000020221001000006000NNE   20220930143947W42 1W    00000150000000677000000000032W42   HJYHK-J 000000000000OW12A059
BI00B32W4    4500201408     2022101818018403975              CAVS 0.5 Y/R             CCN000003000000003000FN00000000020221001000003000NNE   20220930143947W42 1W    00000150000000677000000000032W42   HJYHK-J 000000000000OW12A060
BI00B32W4    4500201408     2022101818018404030              CAVS 0.85 B              CCN000001000000001000FN00000000020221001000001000NNE   20220930143947W42 1W    00000100000000965000000000032W42   HJYHK-J 000000000000OW12A061
BI00B32W4    4500201408     2022101818018404070              CAVS 0.85 Y              CCN000001000000001000FN00000000020221001000001000NNE   20220930143947W42 1W    00000100000000965000000000032W42   HJYHK-J 000000000000OW12A062
BI00B32W4    4500201408     2022101818018404130              CAVS 1.25 B              CCN000011200000011200FN00000000020221001000011200NNE   20220930143947W42 1W    00000080000001378000000000032W42   HJYHK-J 000000000000OW12A063
BI00B32W4    4500201408     2022101818018404190              CAVS 1.25 L              CCN000002400000002400FN00000000020221001000002400NNE   20220930143947W42 1W    00000080000001378000000000032W42   HJYHK-J 000000000000OW12A064
BI00B32W4    4500201408     2022101818018404150              CAVS 1.25 R              CCN000004800000004800FN00000000020221001000004800NNE   20220930143947W42 1W    00000080000001378000000000032W42   HJYHK-J 000000000000OW12A065
BI00B32W4    4500201408     2022101818018404140              CAVS 1.25 W              CCN000000800000000800FN00000000020221001000000800NNE   20220930143947W42 1W    00000080000001378000000000032W42   HJYHK-J 000000000000OW12A066
BI00B32W4    @4500201360    20221115181D6910239              AVSSHCS 0.5FX2 B/L       CCN000018600000018600FN00000000020221101000018600NNE   20220930143948W4A21W    00000030000002385000000000032W4A2  HJYHK-J 000000000000OL12B001
BI00B32W4    @4500201367    20221206181B32116S1              AVSSCS 0.3FX2 DGY        CCN000002800000002800FN00000000020221201000002800NNE   20220930143951W4171W    00000035000002276000000000032W417  HJYHK-J 000000000000OU42B002
BI00B32W4    @4500201367    20221206181B32037Y5              AVSSCS 0.3FX1 DGY/W      CCN000005500000005500FN00000000020221201000005500NNE   20220930143951W4171W    00000050000001780000000000032W417  HJYHK-J 000000000000OU42B001
BI00B32W4    @4500201383    20221129181B09116K3              CAVSAS 0.3X2 GY/P        CCN000004900000004900FN00000000020221201000004900NNE   20220930143953W4N21W    00000035000002254000000000032W4N2  HJYHK-J 000000000000ON32B001
BI00B32W9    4500201475     2022110118018404000              CAVS 0.85 P/W            CCN000002000000002000FN00000000020221101000002000NNE   20220930143504W93 1W    00000100000000965000000000032W93   HKYHK   000000000000ZK32A001
BI00B32W9    4500201479     2022110818018403989              CAVS 0.5 BR/L            CCN000001500000001500FN00000000020221101000001500NNE   20220930143505W93 1W    00000150000000677000000000032W93   HKYHK   000000000000ZP42A011
BI00B32W9    4500201479     2022110818009604430              AVS 5 B                  CCN000000400000000400FN00000000020221101000000400NNE   20220930143505W93 1W    00000020000005981000000000032W93   HKYHK   000000000000ZP42A002
BI00B32W9    4500201479     2022110818009604450              AVS 5 R                  CCN000000200000000200FN00000000020221101000000200NNE   20220930143505W93 1W    00000020000005981000000000032W93   HKYHK   000000000000ZP42A003
BI00B32W9    4500201479     2022110818007704230              AVSS 2F B                CCN000000500000000500FN00000000020221101000000500NNE   20220930143505W93 1W    00000050000002126400000000032W93   HKYHK   000000000000ZP42A001
BI00B32W9    4500201479     2022110818018403980              CAVS 0.5 BR              CCN000001500000001500FN00000000020221101000001500NNE   20220930143505W93 1W    00000150000000677000000000032W93   HKYHK   000000000000ZP42A010
BI00B32W9    4500201479     2022110818018403934              CAVS 0.5 B/W             CCN000001500000001500FN00000000020221101000001500NNE   20220930143505W93 1W    00000150000000677000000000032W93   HKYHK   000000000000ZP42A008
BI00B32W9    4500201479     2022110818018403937              CAVS 0.5 B/Y             CCN000001500000001500FN00000000020221101000001500NNE   20220930143505W93 1W    00000150000000677000000000032W93   HKYHK   000000000000ZP42A009
BI00B32W9    4500201479     2022110818018403991              CAVS 0.5 SB              CCN000001500000001500FN00000000020221101000001500NNE   20220930143505W93 1W    00000150000000677000000000032W93   HKYHK   000000000000ZP42A018
BI00B32W9    4500201479     2022110818018403930              CAVS 0.5 B               CCN000003000000003000FN00000000020221101000003000NNE   20220930143505W93 1W    00000150000000677000000000032W93   HKYHK   000000000000ZP42A007
BI00B32W9    4500201479     2022110818018403997              CAVS 0.5 L/Y             CCN000001500000001500FN00000000020221101000001500NNE   20220930143505W93 1W    00000150000000677000000000032W93   HKYHK   000000000000ZP42A015
BI00B32W9    4500201479     2022110818018403956              CAVS 0.5 R/G             CCN000003000000003000FN00000000020221101000003000NNE   20220930143505W93 1W    00000150000000677000000000032W93   HKYHK   000000000000ZP42A016
BI00B32W9    4500201479     2022110818018403959              CAVS 0.5 R/L             CCN000001500000001500FN00000000020221101000001500NNE   20220930143505W93 1W    00000150000000677000000000032W93   HKYHK   000000000000ZP42A017
BI00B32W9    4500201479     2022110818018404170              CAVS 1.25 Y              CCN000000800000000800FN00000000020221101000000800NNE   20220930143505W93 1W    00000080000001378000000000032W93   HKYHK   000000000000ZP42A025
BI00B32W9    4500201479     2022110818018404030              CAVS 0.85 B              CCN000001000000001000FN00000000020221101000001000NNE   20220930143505W93 1W    00000100000000965000000000032W93   HKYHK   000000000000ZP42A020
BI00B32W9    4500201479     2022110818018403990              CAVS 0.5 L               CCN000001500000001500FN00000000020221101000001500NNE   20220930143505W93 1W    00000150000000677000000000032W93   HKYHK   000000000000ZP42A013
BI00B32W9    4500201479     2022110818018403761              CAVS 0.3 LG              CCN000002000000002000FN00000000020221101000002000NNE   20220930143505W93 1W    00000200000000471000000000032W93   HKYHK   000000000000ZP42A004
BI00B32W9    4500201479     2022110818018403753              CAVS 0.3 R/B             CCN000002000000002000FN00000000020221101000002000NNE   20220930143505W93 1W    00000200000000471000000000032W93   HKYHK   000000000000ZP42A005
BI00B32W9    4500201479     2022110818018403770              CAVS 0.3 Y               CCN000002000000002000FN00000000020221101000002000NNE   20220930143505W93 1W    00000200000000471000000000032W93   HKYHK   000000000000ZP42A006
BI00B32W9    4500201479     2022110818018403984              CAVS 0.5 BR/W            CCN000001500000001500FN00000000020221101000001500NNE   20220930143505W93 1W    00000150000000677000000000032W93   HKYHK   000000000000ZP42A012
BI00B32W9    4500201479     2022110818018403914              CAVS 0.5 L/O             CCN000001500000001500FN00000000020221101000001500NNE   20220930143505W93 1W    00000150000000677000000000032W93   HKYHK   000000000000ZP42A014
BI00B32W9    4500201479     2022110818018403973              CAVS 0.5 Y/B             CCN000001500000001500FN00000000020221101000001500NNE   20220930143505W93 1W    00000150000000677000000000032W93   HKYHK   000000000000ZP42A019
BI00B32W9    4500201479     2022110818018404050              CAVS 0.85 R              CCN000001000000001000FN00000000020221101000001000NNE   20220930143505W93 1W    00000100000000965000000000032W93   HKYHK   000000000000ZP42A022
BI00B32W9    4500201479     2022110818018404130              CAVS 1.25 B              CCN000000800000000800FN00000000020221101000000800NNE   20220930143505W93 1W    00000080000001378000000000032W93   HKYHK   000000000000ZP42A023
BI00B32W9    4500201479     2022110818018404156              CAVS 1.25 R/G            CCN000000800000000800FN00000000020221101000000800NNE   20220930143505W93 1W    00000080000001378000000000032W93   HKYHK   000000000000ZP42A024
BI00B32W9    4500201479     2022110818018404090              CAVS 0.85 L              CCN000001000000001000FN00000000020221101000001000NNE   20220930143505W93 1W    00000100000000965000000000032W93   HKYHK   000000000000ZP42A021
BI00B32W9    4500201482     2022111518018403730              CAVS 0.3 B               CCN000004000000004000FN00000000020221101000004000NNE   20220930143506W93 1W    00000200000000471000000000032W93   HKYHK   000000000000ZB12B001
BI00B32W9    4500201482     2022111518018403740              CAVS 0.3 W               CCN000002000000002000FN00000000020221101000002000NNE   20220930143506W93 1W    00000200000000471000000000032W93   HKYHK   000000000000ZB12B002
