AE00TI102209300230/09/202200000000400000000000000001771KGM  00000002924KGM  7114-4416-02             TERMINAL MALE            7114441602               0         0         0         0    0    0    00010800000002700000000016000017280000
AE00TI102209300230/09/202200000000800000000000000004080KGM  00000006434KGM  7114-4728-02             TERMINAL                 7114472802               0         0         0         0    0    0    00024000000003000000000014000033600000
AE00TI102209300230/09/202200000000800000000000000004128KGM  00000006482KGM  7114-4729-02             TERMINAL                 7114472902               0         0         0         0    0    0    00024000000003000000000015000036000000
AE00TI102209300230/09/202200000001100000000000000007522KGM  00000011138KGM  7116-4231-02             TERMINAL                 7116423102               0         0         0         0    0    0    00028600000002600000000022000062920000
AE00TI102209300230/09/202200000000100000000000000000648KGM  00000000933KGM  7126-8852-02             TERMINAL                 7126885202               0         0         0         0    0    0    00000750000000750000000062000004650000
AE00TI102209300230/09/202200000000200000000000000000341KGM  00000000438KGM  7137-3047-30             UNIT PACKING             7137304730               0         0         0         0    0    0    00000200000000100000000189000003780000
AE00TI102209300230/09/202200000003200000000000000010579KGM  00000012352KGM  7158-3006-90             RUBBER STOPPER           7158300690               0         0         0         0    0    0    00064000000002000000000016000102400000
AE00TI102209300230/09/202200000003000000000000000010140KGM  00000011586KGM  7158-3009-60             RUBBER STOPPER           7158300960               0         0         0         0    0    0    00060000000002000000000012000072000000
AE00TI102209300230/09/202200000000400000000000000001870KGM  00000002096KGM  7158-3022-80             RUBBER STOPPER           7158302280               0         0         0         0    0    0    00002000000000500000000070000014000000
AE00TI102209300230/09/202200000001400000000000000001456KGM  00000002134KGM  7158-3166-60             WIRE SEAL                7158316660               0         0         0         0    0    0    00056000000004000000000004000022400000
AE00TI102209300230/09/202200000004700000000000000002256KGM  00000005123KGM  7158-3167-80             WIRE SEAL                7158316780               0         0         0         0    0    0    00094000000002000000000005000047000000
AE00TI102209300230/09/202200000002200000000000000000968KGM  00000002026KGM  7158-3168-80             SEALED                   7158316880               0         0         0         0    0    0    00044000000002000000000004000017600000
AE00TI102209300230/09/202200000001100000000000000001716KGM  00000002245KGM  7158-3169-40             SEALING PLUG             7158316940               0         0         0         0    0    0    00044000000004000000000006000026400000
AE00TI102209300230/09/202200000000500000000000000002288KGM  00000002530KGM  7172-5402-30             SEAL RUBBER              7172540230               0         0         0         0    0    0    00004000000000800000000077000030800000
AE00TI102209300230/09/202200000000500000000000000000000KGM  00000000000KGM  7470-4816E               J/B COMPLETE ASS'Y       74704816E                0         0         0         0    0    0    00000005000000001000000000000000000000
AE00TI102209300230/09/202200000000800000000000000000000KGM  00000000000KGM  7470-5307E               J/B COMPLETE ASS'Y       74705307E                0         0         0         0    0    0    00000008000000001000000000000000000000
AE00TI102209300230/09/202200000002200000000000000000000KGM  00000000000KGM  7470-5308E               J/B COMPLETE ASS'Y       74705308E                0         0         0         0    0    0    00000022000000001000000000000000000000
AE00TI102209300230/09/202200000002200000000000000000000KGM  00000000000KGM  7470-5782E               J/B COMPLETE ASS'Y       74705782E                0         0         0         0    0    0    00000022000000001000000000000000000000
AE00TI102209300230/09/202200000001500000000000000000000KGM  00000000000KGM  7470-5791D               J/B COMPLETE ASS'Y       74705791D                0         0         0         0    0    0    00000022500000001500000000000000000000
AE00TI102209300230/09/202200000001700000000000000000000KGM  00000000000KGM  7470-5791E               J/B COMPLETE ASS'Y       74705791E                0         0         0         0    0    0    00000017000000001000000000000000000000
