AE00TI102209300130/09/202200000000200000000000000001245KGM  00000001524KGM  7174-1849-70             COVER                    7174184970               0         0         0         0    0    0    00005000000002500000000046000023000000
AE00TI102209300130/09/202200000008000000000000000019184KGM  00000039184KGM  7271-1820-30             CASE SUB ASSY,ECU        7271182030               0         0         0         0    0    0    00000144000000001800009576000137894400
AE00TI102209300130/09/202200000000100000000000000000894KGM  00000001185KGM  7287-9234                JOINT CONNECTOR          72879234                 0         0         0         0    0    0    00000960000000960000000137000013152000
AE00TI102209300130/09/202200000000100000000000000000867KGM  00000001012KGM  7288-3334-30             HOUSING MALE             7288333430               0         0         0         0    0    0    00000150000000150000000354000005310000
AE00TI102209300130/09/202200000000100000000000000000867KGM  00000001012KGM  7288-3337-30             HOUSING MALE             7288333730               0         0         0         0    0    0    00000150000000150000000354000005310000
AE00TI102209300130/09/202200000000200000000000000001734KGM  00000002024KGM  7288-3339-30             HOUSING MALE             7288333930               0         0         0         0    0    0    00000300000000150000000354000010620000
AE00TI102209300130/09/202200000000100000000000000001074KGM  00000001429KGM  7288-6598-70             HOUSING MALE ASS'Y       7288659870               0         0         0         0    0    0    00000144000000144000000911000013118400
AE00TI102209300130/09/202200000001500000000000000010296KGM  00000013521KGM  7289-3342-30             HOUSING FEMALE ASS'Y     7289334230               0         0         0         0    0    0    00003600000000240000000191000068760000
AE00TI102209300130/09/202200000000400000000000000004687KGM  00000005474KGM  7289-5011-30             HOUSING FEMALE ASS'Y     7289501130               0         0         0         0    0    0    00000960000000240000000333000031968000
AE00TI102209300130/09/202200000001800000000000000014926KGM  00000018886KGM  7289-6518-30             HOUSING FEMALE ASS'Y     7289651830               0         0         0         0    0    0    00002160000000120000000598000129168000
AE00TI102209300130/09/202200000000100000000000000001290KGM  00000001540KGM  7289-6597-70             HOUSING FEMALE ASS'Y     7289659770               0         0         0         0    0    0    00000216000000216000000616000013305600
AE00TI102209300130/09/202200000000500000000000000004196KGM  00000005596KGM  7289-6868-30             SEALED ASSY FEMALE       7289686830               0         0         0         0    0    0    00001260000000252000000332000041832000
AE00TI102209300130/09/202200000000200000000000000002218KGM  00000003043KGM  7289-9553-30             SEALED ASSY FEMALE       7289955330               0         0         0         0    0    0    00000588000000294000000245000014406000
AE00TI102209300130/09/202200000000100000000000000001108KGM  00000001521KGM  7289-9553-50             SEALED ASSY FEMALE       7289955350               0         0         0         0    0    0    00000294000000294000000252000007408800
AE00TI102209300130/09/202200000001000000000000000010032KGM  00000012045KGM  7298-1865-30             HOUSING FEMALE ASS'Y     7298186530               0         0         0         0    0    0    00002400000000240000000196000047040000
AE00TI102209300130/09/202200000001000000000000000011409KGM  00000013559KGM  7327-6840-3W             BATTERY FUSE             732768403W               0         0         0         0    0    0    00000072000000007200009909000071344800
AE00TI102209300130/09/202200000000300000000000000002985KGM  00000003375KGM  7388-0313-30             CONNECTOR ASS'Y          7388031330               0         0         0         0    0    0    00000360000000120000000376000013536000
AE00TI102209300130/09/202200000000600000000000000006228KGM  00000006794KGM  7388-0314                CONNECTOR ASS'Y          73880314                 0         0         0         0    0    0    00000720000000120000000364000026208000
AE00TI102209300130/09/202200000003500000000000000025970KGM  00000039270KGM  7388-2978-30             HOUSING MALE ASS'Y       7388297830               0         0         0         0    0    0    00001680000000048000001790000300720000
AE00TI102209300130/09/202200000000300000000000000003960KGM  00000004710KGM  7470-4481                J/B COMPLETE ASS'Y       74704481                 0         0         0         0    0    0    00000007200000002400000000000000000000
AE00TI102209300130/09/202200000001800000000000000023760KGM  00000028260KGM  7470-5237                J/B ASS'Y                74705237                 0         0         0         0    0    0    00000043200000002400031359000135470880
AE00TI102209300130/09/202200000003800000000000000000000KGM  00000000000KGM  7470-5791D               J/B COMPLETE ASS'Y       74705791D                0         0         0         0    0    0    00000057000000001500000000000000000000
AE00TI102209300130/09/202200000000500000000000000000000KGM  00000000000KGM  7470-5823D               J/B COMPLETE ASS'Y       74705823D                0         0         0         0    0    0    00000007500000001500000000000000000000
