AE00TI102209270427/09/202200000000300000000000000002627KGM  00000003508KGM  7114-4020                TERMINAL                 71144020                 0         0         0         0    0    0    00006300000002100000000023000014490000
AE00TI102209270427/09/202200000001800000000000000009180KGM  00000014476KGM  7114-4728-02             TERMINAL                 7114472802               0         0         0         0    0    0    00054000000003000000000014000075600000
AE00TI102209270427/09/202200000001500000000000000007740KGM  00000012153KGM  7114-4729-02             TERMINAL                 7114472902               0         0         0         0    0    0    00045000000003000000000015000067500000
AE00TI102209270427/09/202200000001500000000000000009273KGM  00000013551KGM  7116-1180                TERMINAL                 71161180                 0         0         0         0    0    0    00029250000001950000000022000064350000
AE00TI102209270427/09/202200000002000000000000000009180KGM  00000014884KGM  7116-3153-02             TERMINAL FEMALE          7116315302               0         0         0         0    0    0    00054000000002700000000015000081000000
AE00TI102209270427/09/202200000001000000000000000004698KGM  00000007550KGM  7116-3154-02             TERMINAL FEMALE          7116315402               0         0         0         0    0    0    00027000000002700000000015000040500000
AE00TI102209270427/09/202200000002000000000000000010260KGM  00000015964KGM  7116-4020                TERMINAL                 71164020                 0         0         0         0    0    0    00027000000001350000000028000075600000
AE00TI102209270427/09/202200000000700000000000000004648KGM  00000006960KGM  7116-4026                TERMINAL                 71164026                 0         0         0         0    0    0    00011200000001600000000033000036960000
AE00TI102209270427/09/202200000001400000000000000009573KGM  00000014175KGM  7116-4231-02             TERMINAL                 7116423102               0         0         0         0    0    0    00036400000002600000000022000080080000
AE00TI102209270427/09/202200000003000000000000000022194KGM  00000030750KGM  7126-8851-02             TERMINAL                 7126885102               0         0         0         0    0    0    00027000000000900000000060000162000000
AE00TI102209270427/09/202200000000100000000000000000154KGM  00000000440KGM  7157-3950-80             SEAL RUBBER              7157395080               0         0         0         0    0    0    00004000000004000000000044000017600000
AE00TI102209270427/09/202200000000200000000000000000500KGM  00000000612KGM  7158-3003-90             RUBBER STOPPER           7158300390               0         0         0         0    0    0    00004000000002000000000012000004800000
AE00TI102209270427/09/202200000000100000000000000000760KGM  00000001024KGM  7187-3356                JOINT CONNECTOR          71873356                 0         0         0         0    0    0    00000120000000120000001038000012456000
AE00TI102209270427/09/202200000000100000000000000000762KGM  00000001029KGM  7187-3357-40             JOINT CONNECTOR          7187335740               0         0         0         0    0    0    00000120000000120000001059000012708000
AE00TI102209270427/09/202200000000300000000000000002290KGM  00000003091KGM  7187-3359-60             JOINT CONNECTOR          7187335960               0         0         0         0    0    0    00000360000000120000001079000038844000
AE00TI102209270427/09/202200000002000000000000000007110KGM  00000013794KGM  7196-0648-02             TERMINAL                 7196064802               0         0         0         0    0    0    00030000000001500000000023000069000000
AE00TI102209270427/09/202200000000900000000000000005380KGM  00000006491KGM  7198-1371                HOUSING FEMALE           71981371                 0         0         0         0    0    0    00001800000000200000000107000019260000
AE00TI102209270427/09/202200000000900000000000000007715KGM  00000008957KGM  7198-1372-60             HOUSING FEMALE           7198137260               0         0         0         0    0    0    00001800000000200000000149000026820000
AE00TI102209270427/09/202200000001200000000000000009862KGM  00000011369KGM  7198-1373                HOUSING FEMALE           71981373                 0         0         0         0    0    0    00002400000000200000000115000027600000
AE00TI102209270427/09/202200000000100000000000000001068KGM  00000001178KGM  7282-5845-30             HOUSING MALE ASS'Y       7282584530               0         0         0         0    0    0    00000400000000400000000323000012920000
AE00TI102209270427/09/202200000000200000000000000000888KGM  00000001213KGM  7283-5845                CONNECTOR HOUSING        72835845                 0         0         0         0    0    0    00001200000000600000000133000015960000
AE00TI102209270427/09/202200000000100000000000000000444KGM  00000000606KGM  7283-5845-30             CONNECTOR HOUSING        7283584530               0         0         0         0    0    0    00000600000000600000000133000007980000
AE00TI102209270427/09/202200000000400000000000000003656KGM  00000004572KGM  7283-6120                CONNECTOR HOUSING        72836120                 0         0         0         0    0    0    00000600000000150000000368000022080000
AE00TI102209270427/09/202200000000900000000000000008195KGM  00000010175KGM  7286-3885                CONNECTOR MALE ASS'Y     72863885                 0         0         0         0    0    0    00001080000000120000000295000031860000
AE00TI102209270427/09/202200000000300000000000000002000KGM  00000002769KGM  7287-1915                CONNECTOR ASS'Y          72871915                 0         0         0         0    0    0    00000720000000240000000161000011592000
AE00TI102209270427/09/202200000000100000000000000000667KGM  00000000923KGM  7287-1915-30             CONNECTOR ASS'Y          7287191530               0         0         0         0    0    0    00000240000000240000000167000004008000
AE00TI102209270427/09/202200000000100000000000000000614KGM  00000000834KGM  7287-2705                HOUSING FEMALE ASS'Y     72872705                 0         0         0         0    0    0    00000960000000960000000148000014208000
AE00TI102209270427/09/202200000000200000000000000002059KGM  00000002499KGM  7287-3885                HYBRID FEMALE ASS'Y      72873885                 0         0         0         0    0    0    00000480000000240000000207000009936000
AE00TI102209270427/09/202200000000300000000000000002228KGM  00000002559KGM  7287-7022                CONNECTOR FEMALE         72877022                 0         0         0         0    0    0    00000360000000120000000982000035352000
AE00TI102209270427/09/202200000000500000000000000005832KGM  00000006932KGM  7287-8073                HOUSING FEMALE ASS'Y     72878073                 0         0         0         0    0    0    00001200000000240000000244000029280000
AE00TI102209270427/09/202200000000200000000000000001373KGM  00000001803KGM  7289-3342                HOUSING FEMALE ASS'Y     72893342                 0         0         0         0    0    0    00000480000000240000000186000008928000
AE00TI102209270427/09/202200000000600000000000000000000KGM  00000000000KGM  7289-3342-30M            HOUSING FEMALE ASS'Y     7289334230M              0         0         0         0    0    0    00000612000000102000000188000011505600
AE00TI102209270427/09/202200000000400000000000000002746KGM  00000003606KGM  7289-3342-40             HOUSING FEMALE ASS'Y     7289334240               0         0         0         0    0    0    00000960000000240000000192000018432000
AE00TI102209270427/09/202200000000900000000000000006178KGM  00000008113KGM  7289-3342-90             HOUSING FEMALE ASS'Y     7289334290               0         0         0         0    0    0    00002160000000240000000196000042336000
