AE00TI102209270327/09/202200000000800000000000000009288KGM  00000010757KGM  7116-2641                TERMINAL                 71162641                 0         0         0         0    0    0    00014400000001800000000030000043200000
AE00TI102209270327/09/202200000001500000000000000006885KGM  00000011163KGM  7116-3153-02             TERMINAL FEMALE          7116315302               0         0         0         0    0    0    00040500000002700000000015000060750000
AE00TI102209270327/09/202200000001000000000000000005130KGM  00000007982KGM  7116-4020                TERMINAL                 71164020                 0         0         0         0    0    0    00013500000001350000000028000037800000
AE00TI102209270327/09/202200000000600000000000000004439KGM  00000006150KGM  7126-8851-02             TERMINAL                 7126885102               0         0         0         0    0    0    00005400000000900000000060000032400000
AE00TI102209270327/09/202200000001100000000000000001876KGM  00000002408KGM  7137-3047-30             UNIT PACKING             7137304730               0         0         0         0    0    0    00001100000000100000000189000020790000
AE00TI102209270327/09/202200000000900000000000000006624KGM  00000008568KGM  7154-5597-30             CASSETTE R/B             7154559730               0         0         0         0    0    0    00000720000000080000000255000018360000
AE00TI102209270327/09/202200000002900000000000000009587KGM  00000011194KGM  7158-3006-90             RUBBER STOPPER           7158300690               0         0         0         0    0    0    00058000000002000000000016000092800000
AE00TI102209270327/09/202200000001000000000000000003380KGM  00000003862KGM  7158-3009-60             RUBBER STOPPER           7158300960               0         0         0         0    0    0    00020000000002000000000012000024000000
AE00TI102209270327/09/202200000000500000000000000001380KGM  00000001667KGM  7158-3070-80             RUBBER STOPPER           7158307080               0         0         0         0    0    0    00020000000004000000000008000016000000
AE00TI102209270327/09/202200000001500000000000000001560KGM  00000002286KGM  7158-3166-60             WIRE SEAL                7158316660               0         0         0         0    0    0    00060000000004000000000004000024000000
AE00TI102209270327/09/202200000002400000000000000001152KGM  00000002616KGM  7158-3167-80             WIRE SEAL                7158316780               0         0         0         0    0    0    00048000000002000000000005000024000000
AE00TI102209270327/09/202200000001100000000000000000484KGM  00000001013KGM  7158-3168-80             SEALED                   7158316880               0         0         0         0    0    0    00022000000002000000000004000008800000
AE00TI102209270327/09/202200000000700000000000000001092KGM  00000001429KGM  7158-3169-40             SEALING PLUG             7158316940               0         0         0         0    0    0    00028000000004000000000006000016800000
AE00TI102209270327/09/202200000000500000000000000000930KGM  00000001172KGM  7172-5540-80             SEALED WIRE SEAL         7172554080               0         0         0         0    0    0    00010000000002000000000010000010000000
AE00TI102209270327/09/202200000000200000000000000001920KGM  00000002491KGM  7182-2410                CONNECTOR HOUSING        71822410                 0         0         0         0    0    0    00000240000000120000000187000004488000
AE00TI102209270327/09/202200000000300000000000000002189KGM  00000002499KGM  7182-2412                HOUSING MALE             71822412                 0         0         0         0    0    0    00000150000000050000000638000009570000
AE00TI102209270327/09/202200000000900000000000000005018KGM  00000007410KGM  7183-1616                CONNECTOR HOUSING        71831616                 0         0         0         0    0    0    00002160000000240000000077000016632000
AE00TI102209270327/09/202200000000600000000000000008971KGM  00000010626KGM  7183-2416                HOUSING                  71832416                 0         0         0         0    0    0    00001440000000240000000171000024624000
AE00TI102209270327/09/202200000000100000000000000000972KGM  00000001242KGM  7183-2511                HOUSING                  71832511                 0         0         0         0    0    0    00000160000000160000000160000002560000
AE00TI102209270327/09/202200000000100000000000000000714KGM  00000000913KGM  7183-8927                HOUSING                  71838927                 0         0         0         0    0    0    00000400000000400000000131000005240000
AE00TI102209270327/09/202200000004000000000000000009592KGM  00000019592KGM  7271-1820-30             CASE SUB ASSY,ECU        7271182030               0         0         0         0    0    0    00000072000000001800009576000068947200
AE00TI102209270327/09/202200000000100000000000000001200KGM  00000001378KGM  7282-1014                CONNECTOR                72821014                 0         0         0         0    0    0    00000600000000600000000168000010080000
AE00TI102209270327/09/202200000000100000000000000000620KGM  00000000732KGM  7282-7040-30             HOUSING MALE ASS'Y       7282704030               0         0         0         0    0    0    00000120000000120000000702000008424000
AE00TI102209270327/09/202200000000100000000000000001140KGM  00000001318KGM  7283-1968-30             CONNECTOR                7283196830               0         0         0         0    0    0    00000090000000090000000687000006183000
AE00TI102209270327/09/202200000000300000000000000001050KGM  00000001388KGM  7283-8721-30             HOUSING FEMALE ASS'Y     7283872130               0         0         0         0    0    0    00000300000000100000000415000012450000
AE00TI102209270327/09/202200000000200000000000000000000KGM  00000000000KGM  7289-3342-30M            HOUSING FEMALE ASS'Y     7289334230M              0         0         0         0    0    0    00000204000000102000000188000003835200
AE00TI102209270327/09/202200000000100000000000000001162KGM  00000001285KGM  7386-2747                CONNECTOR ASS'Y          73862747                 0         0         0         0    0    0    00000200000000200000000413000008260000
AE00TI102209270327/09/202200000001800000000000000023760KGM  00000028260KGM  7470-3082                J/B COMPLETE ASS'Y       74703082                 0         0         0         0    0    0    00000043200000002400031298000135207360
AE00TI102209270327/09/202200000001000000000000000000000KGM  00000000000KGM  7470-5782D               J/B COMPLETE ASS'Y       74705782D                0         0         0         0    0    0    00000015000000001500000000000000000000
AE00TI102209270327/09/202200000004600000000000000000000KGM  00000000000KGM  7470-5783D               J/B COMPLETE ASS'Y       74705783D                0         0         0         0    0    0    00000069000000001500000000000000000000
