AE00TI102209270227/09/202200000000500000000000000002710KGM  00000003607KGM  7147-3642-30             CLIP                     7147364230               0         0         0         0    0    0    00001500000000300000000074000011100000
AE00TI102209270227/09/202200000000100000000000000000827KGM  00000001102KGM  7154-5712-30             CASSETTE R/B             7154571230               0         0         0         0    0    0    00000080000000080000000288000002304000
AE00TI102209270227/09/202200000000100000000000000001339KGM  00000001489KGM  7171-6291                HOUSING MALE             71716291                 0         0         0         0    0    0    00000019200000019200001625000003120000
AE00TI102209270227/09/202200000003000000000000000022863KGM  00000029409KGM  7171-6292                HOUSING                  71716292                 0         0         0         0    0    0    00000540000000018000001240000066960000
AE00TI102209270227/09/202200000000100000000000000001282KGM  00000001477KGM  7182-4941                DOUBLE SIDED             71824941                 0         0         0         0    0    0    00000100000000100000000816000008160000
AE00TI102209270227/09/202200000000100000000000000000951KGM  00000001230KGM  7183-0522                HOUSING                  71830522                 0         0         0         0    0    0    00000240000000240000000113000002712000
AE00TI102209270227/09/202200000000100000000000000001059KGM  00000001246KGM  7183-2412                HOUSING                  71832412                 0         0         0         0    0    0    00000160000000160000000155000002480000
AE00TI102209270227/09/202200000000100000000000000000478KGM  00000000760KGM  7183-2413-30             CONNECTOR HOUSING        7183241330               0         0         0         0    0    0    00000480000000480000000076000003648000
AE00TI102209270227/09/202200000000200000000000000001558KGM  00000002122KGM  7183-2414                CONNECTOR HOUSING        71832414                 0         0         0         0    0    0    00000960000000480000000050000004800000
AE00TI102209270227/09/202200000000200000000000000001559KGM  00000002123KGM  7183-2414-30             CONNECTOR HOUSING        7183241430               0         0         0         0    0    0    00000960000000480000000054000005184000
AE00TI102209270227/09/202200000000100000000000000001065KGM  00000001352KGM  7183-2419-30             HOUSING                  7183241930               0         0         0         0    0    0    00000480000000480000000093000004464000
AE00TI102209270227/09/202200000000100000000000000000967KGM  00000001125KGM  7222-7564-30             CONNECTOR                7222756430               0         0         0         0    0    0    00000050000000050000001175000005875000
AE00TI102209270227/09/202200000000100000000000000000967KGM  00000001097KGM  7222-7564-40             CONNECTOR                7222756440               0         0         0         0    0    0    00000050000000050000001166000005830000
AE00TI102209270227/09/202200000000200000000000000001755KGM  00000002156KGM  7283-1156                CONNECTOR                72831156                 0         0         0         0    0    0    00000160000000080000000810000012960000
AE00TI102209270227/09/202200000000100000000000000001260KGM  00000001406KGM  7283-8221-30             CONNECTOR                7283822130               0         0         0         0    0    0    00000200000000200000001469000029380000
AE00TI102209270227/09/202200000001500000000000000012806KGM  00000015678KGM  7287-9155                HOUSING FEMALE ASS'Y     72879155                 0         0         0         0    0    0    00001440000000096000000357000051408000
AE00TI102209270227/09/202200000002200000000000000015101KGM  00000019831KGM  7289-3342-30             HOUSING FEMALE ASS'Y     7289334230               0         0         0         0    0    0    00005280000000240000000191000100848000
AE00TI102209270227/09/202200000004000000000000000034188KGM  00000042588KGM  7289-5979-30             HOUSING FEMALE ASS'Y     7289597930               0         0         0         0    0    0    00001008000000025200001346000135676800
AE00TI102209270227/09/202200000000300000000000000003010KGM  00000003614KGM  7298-1865-30             HOUSING FEMALE ASS'Y     7298186530               0         0         0         0    0    0    00000720000000240000000196000014112000
AE00TI102209270227/09/202200000000200000000000000002076KGM  00000002265KGM  7388-0314                CONNECTOR ASS'Y          73880314                 0         0         0         0    0    0    00000240000000120000000364000008736000
AE00TI102209270227/09/202200000000900000000000000000000KGM  00000000000KGM  7470-5308E               J/B COMPLETE ASS'Y       74705308E                0         0         0         0    0    0    00000009000000001000000000000000000000
AE00TI102209270227/09/202200000001500000000000000000000KGM  00000000000KGM  7470-5782D               J/B COMPLETE ASS'Y       74705782D                0         0         0         0    0    0    00000022500000001500000000000000000000
AE00TI102209270227/09/202200000002000000000000000000000KGM  00000000000KGM  7470-5783D               J/B COMPLETE ASS'Y       74705783D                0         0         0         0    0    0    00000030000000001500000000000000000000
AE00TI102209270227/09/202200000004000000000000000000000KGM  00000000000KGM  7470-5784D               J/B COMPLETE ASS'Y       74705784D                0         0         0         0    0    0    00000060000000001500000000000000000000
AE00TI102209270227/09/202200000000900000000000000000000KGM  00000000000KGM  7470-5784E               J/B COMPLETE ASS'Y       74705784E                0         0         0         0    0    0    00000009000000001000000000000000000000
AE00TI102209270227/09/202200000001500000000000000000000KGM  00000000000KGM  7470-5791D               J/B COMPLETE ASS'Y       74705791D                0         0         0         0    0    0    00000022500000001500000000000000000000
