AE00TI102209270127/09/202200000004000000000000000009592KGM  00000019592KGM  7271-1820-30             CASE SUB ASSY,ECU        7271182030               0         0         0         0    0    0    00000072000000001800009576000068947200
AE00TI102209270127/09/202200000000200000000000000001788KGM  00000002370KGM  7287-9234                JOINT CONNECTOR          72879234                 0         0         0         0    0    0    00001920000000960000000137000026304000
AE00TI102209270127/09/202200000000100000000000000000867KGM  00000001012KGM  7288-3337-30             HOUSING MALE             7288333730               0         0         0         0    0    0    00000150000000150000000354000005310000
AE00TI102209270127/09/202200000001800000000000000015606KGM  00000018216KGM  7288-3339-30             HOUSING MALE             7288333930               0         0         0         0    0    0    00002700000000150000000354000095580000
AE00TI102209270127/09/202200000000500000000000000004126KGM  00000005176KGM  7288-5000                HOUSING MALE ASS'Y       72885000                 0         0         0         0    0    0    00000168000000033600000895000015036000
AE00TI102209270127/09/202200000002500000000000000017160KGM  00000022535KGM  7289-3342-30             HOUSING FEMALE ASS'Y     7289334230               0         0         0         0    0    0    00006000000000240000000191000114600000
AE00TI102209270127/09/202200000001300000000000000010780KGM  00000013640KGM  7289-6518-30             HOUSING FEMALE ASS'Y     7289651830               0         0         0         0    0    0    00001560000000120000000598000093288000
AE00TI102209270127/09/202200000000200000000000000002481KGM  00000002812KGM  7298-1853-10             HOUSING FEMALE ASS'Y     7298185310               0         0         0         0    0    0    00000780000000390000000186000014508000
AE00TI102209270127/09/202200000002300000000000000023074KGM  00000027704KGM  7298-1865-30             HOUSING FEMALE ASS'Y     7298186530               0         0         0         0    0    0    00005520000000240000000196000108192000
AE00TI102209270127/09/202200000000200000000000000002183KGM  00000002591KGM  7298-2278-30             HOUSING FEMALE ASS'Y     7298227830               0         0         0         0    0    0    00000480000000240000000227000010896000
AE00TI102209270127/09/202200000000200000000000000002195KGM  00000002717KGM  7298-4094-10             HOUSING FEMALE ASS'Y     7298409410               0         0         0         0    0    0    00000676000000338000000241000016291600
AE00TI102209270127/09/202200000000200000000000000001963KGM  00000002580KGM  7298-5993-30             SEALED ASSY FEMALE       7298599330               0         0         0         0    0    0    00000436800000218400000266000011618880
AE00TI102209270127/09/202200000000600000000000000006657KGM  00000007558KGM  7327-6572-3W             BATTERY FUSE             732765723W               0         0         0         0    0    0    00000057600000009600008162000047013120
AE00TI102209270127/09/202200000002100000000000000023959KGM  00000028474KGM  7327-6840-3W             BATTERY FUSE             732768403W               0         0         0         0    0    0    00000151200000007200009909000149824080
AE00TI102209270127/09/202200000000400000000000000004152KGM  00000004529KGM  7388-0314                CONNECTOR ASS'Y          73880314                 0         0         0         0    0    0    00000480000000120000000364000017472000
AE00TI102209270127/09/202200000006900000000000000051198KGM  00000077418KGM  7388-2978-30             HOUSING MALE ASS'Y       7388297830               0         0         0         0    0    0    00003312000000048000001790000592848000
AE00TI102209270127/09/202200000001700000000000000022440KGM  00000026690KGM  7470-5237                J/B ASS'Y                74705237                 0         0         0         0    0    0    00000040800000002400031359000127944720
AE00TI102209270127/09/202200000001500000000000000000000KGM  00000000000KGM  7470-5782D               J/B COMPLETE ASS'Y       74705782D                0         0         0         0    0    0    00000022500000001500000000000000000000
AE00TI102209270127/09/202200000000500000000000000000000KGM  00000000000KGM  7470-5783D               J/B COMPLETE ASS'Y       74705783D                0         0         0         0    0    0    00000007500000001500000000000000000000
AE00TI102209270127/09/202200000000900000000000000000000KGM  00000000000KGM  7470-5791D               J/B COMPLETE ASS'Y       74705791D                0         0         0         0    0    0    00000013500000001500000000000000000000
