AE00TI102209270527/09/202200000000200000000000000001675KGM  00000002115KGM  7283-4578                HOUSING FEMALE ASS'Y     72834578                 0         0         0         0    0    0    00000480000000240000000190000009120000
AE00TI102209270527/09/202200000000100000000000000000954KGM  00000001104KGM  7283-5830                CONNECTOR                72835830                 0         0         0         0    0    0    00000600000000600000000154000009240000
AE00TI102209270527/09/202200000000300000000000000002667KGM  00000003396KGM  7283-5843                CONNECTOR                72835843                 0         0         0         0    0    0    00000450000000150000000280000012600000
AE00TI102209270527/09/202200000000500000000000000004553KGM  00000005653KGM  7286-3885-40             CONNECTOR MALE ASS'Y     7286388540               0         0         0         0    0    0    00000600000000120000000313000018780000
AE00TI102209270527/09/202200000000100000000000000001061KGM  00000001313KGM  7287-1917                CONNECTOR FEMALE         72871917                 0         0         0         0    0    0    00000240000000240000000253000006072000
AE00TI102209270527/09/202200000000200000000000000001373KGM  00000001803KGM  7289-3342                HOUSING FEMALE ASS'Y     72893342                 0         0         0         0    0    0    00000480000000240000000186000008928000
AE00TI102209270527/09/202200000000600000000000000004118KGM  00000005408KGM  7289-3342-40             HOUSING FEMALE ASS'Y     7289334240               0         0         0         0    0    0    00001440000000240000000192000027648000
AE00TI102209270527/09/202200000000300000000000000002059KGM  00000002704KGM  7289-3342-90             HOUSING FEMALE ASS'Y     7289334290               0         0         0         0    0    0    00000720000000240000000196000014112000
AE00TI102209270527/09/202200000000200000000000000001827KGM  00000002111KGM  7289-4696-30             HOUSING FEMALE ASS'Y     7289469630               0         0         0         0    0    0    00000400000000200000000410000016400000
AE00TI102209270527/09/202200000000400000000000000004608KGM  00000005448KGM  7289-6547                HOUSING FEMALE ASS'Y     72896547                 0         0         0         0    0    0    00000960000000240000000229000021984000
AE00TI102209270527/09/202200000001100000000000000012205KGM  00000013856KGM  7327-6572-3W             BATTERY FUSE             732765723W               0         0         0         0    0    0    00000105600000009600008162000086190720
AE00TI102209270527/09/202200000001200000000000000013691KGM  00000016271KGM  7327-6840-3W             BATTERY FUSE             732768403W               0         0         0         0    0    0    00000086400000007200009909000085613760
AE00TI102209270527/09/202200000000800000000000000010560KGM  00000012560KGM  7470-3082                J/B COMPLETE ASS'Y       74703082                 0         0         0         0    0    0    00000019200000002400031298000060092160
AE00TI102209270527/09/202200000001000000000000000013200KGM  00000015700KGM  7470-4481                J/B COMPLETE ASS'Y       74704481                 0         0         0         0    0    0    00000024000000002400000000000000000000
AE00TI102209270527/09/202200000001000000000000000000000KGM  00000000000KGM  7470-5782D               J/B COMPLETE ASS'Y       74705782D                0         0         0         0    0    0    00000015000000001500000000000000000000
AE00TI102209270527/09/202200000001500000000000000000000KGM  00000000000KGM  7470-5782E               J/B COMPLETE ASS'Y       74705782E                0         0         0         0    0    0    00000015000000001000000000000000000000
