BI00B32G7    JW22044MMW     202209291801W006970              IVSSH 0.35F Y            CCN000015000000015000FN00000000020220401000015000NNM22 20220927121722    1W    00000250000000452000000000032G7    JIJAI   000000000000JM323020
BI00B32N1    NST2123B-1     2022100618007703795              AVSS 0.3F L/R            CCN000002000000002000FN00000000020221001000002000NNE   20220927142018    1W    00000200000000496000000000032N1    TAYIPL  000000000000XN329001
BI00B32U5    @DW2049        20221104181AD2016ZZ              CIVUSAS-S 0.22X2 B       CCN000010000000010000FN00000000020230101000010000NNM   20220927151421U5  1W    00000050000001360800000000032U5    ASAMSD  000000000000AM32A001
BI00B32U5    @DW2049        20221104181AD2017ZZ              CIVUSAS-S 0.22X3 B       CCN000002600000003010FN00000000020230101000003010NNM   20220927151421U5  1W    00000043000001678200000000032U5    ASAMSD  000000000000AM32A002
BI00B32U5    @DW2049        20221104181F21027ZZ              AVSSHCS-S 1.25FX2 B      CCN000008400000008400FN00000000020230101000008400NNM   20220927151421U5  1W    00000020000004267300000000032U5    ASAMSD  000000000000AM32A003
BI00B32W4    4500201051     2022112218007704230              AVSS 2F B                CCN000003000000003000FN00000000020221101000003000NNE   20220927145620W41 1W    00000050000002126400000000032W41   HJYHK-J 000000000000OF22B001
BI00B32W4    4500201051     2022112218007704250              AVSS 2F R                CCN000002500000002500FN00000000020221101000002500NNE   20220927145620W41 1W    00000050000002126400000000032W41   HJYHK-J 000000000000OF22B002
BI00B32W4    4500201051     2022112218018403930              CAVS 0.5 B               CCN000015000000015000FN00000000020221101000015000NNE   20220927145620W41 1W    00000150000000677000000000032W41   HJYHK-J 000000000000OF22B003
BI00B32W4    4500201051     2022112218018403940              CAVS 0.5 W               CCN000004500000004500FN00000000020221101000004500NNE   20220927145620W41 1W    00000150000000677000000000032W41   HJYHK-J 000000000000OF22B010
BI00B32W4    4500201051     2022112218018403950              CAVS 0.5 R               CCN000006000000006000FN00000000020221101000006000NNE   20220927145620W41 1W    00000150000000677000000000032W41   HJYHK-J 000000000000OF22B008
BI00B32W4    4500201051     2022112218018403952              CAVS 0.5 P               CCN000006000000006000FN00000000020221101000006000NNE   20220927145620W41 1W    00000150000000677000000000032W41   HJYHK-J 000000000000OF22B007
BI00B32W4    4500201051     2022112218018403960              CAVS 0.5 G               CCN000003000000003000FN00000000020221101000003000NNE   20220927145620W41 1W    00000150000000677000000000032W41   HJYHK-J 000000000000OF22B004
BI00B32W4    4500201051     2022112218018403961              CAVS 0.5 LG              CCN000003000000003000FN00000000020221101000003000NNE   20220927145620W41 1W    00000150000000677000000000032W41   HJYHK-J 000000000000OF22B006
BI00B32W4    4500201051     2022112218018403990              CAVS 0.5 L               CCN000007500000007500FN00000000020221101000007500NNE   20220927145620W41 1W    00000150000000677000000000032W41   HJYHK-J 000000000000OF22B005
BI00B32W4    4500201051     2022112218018403991              CAVS 0.5 SB              CCN000010500000010500FN00000000020221101000010500NNE   20220927145620W41 1W    00000150000000677000000000032W41   HJYHK-J 000000000000OF22B009
BI00B32W4    4500201051     2022112218018404030              CAVS 0.85 B              CCN000006000000006000FN00000000020221101000006000NNE   20220927145620W41 1W    00000100000000965000000000032W41   HJYHK-J 000000000000OF22B011
BI00B32W4    4500201051     2022112218018404140              CAVS 1.25 W              CCN000004000000004000FN00000000020221101000004000NNE   20220927145620W41 1W    00000080000001378000000000032W41   HJYHK-J 000000000000OF22B020
BI00B32W4    4500201051     2022112218018404170              CAVS 1.25 Y              CCN000004000000004000FN00000000020221101000004000NNE   20220927145620W41 1W    00000080000001378000000000032W41   HJYHK-J 000000000000OF22B021
BI00B32W4    4500201051     2022112218018404130              CAVS 1.25 B              CCN000003200000003200FN00000000020221101000003200NNE   20220927145620W41 1W    00000080000001378000000000032W41   HJYHK-J 000000000000OF22B012
BI00B32W4    4500201051     2022112218018404141              CAVS 1.25 GY             CCN000000800000000800FN00000000020221101000000800NNE   20220927145620W41 1W    00000080000001378000000000032W41   HJYHK-J 000000000000OF22B014
BI00B32W4    4500201051     2022112218018404151              CAVS 1.25 O              CCN000000800000000800FN00000000020221101000000800NNE   20220927145620W41 1W    00000080000001378000000000032W41   HJYHK-J 000000000000OF22B016
BI00B32W4    4500201051     2022112218018404152              CAVS 1.25 P              CCN000001600000001600FN00000000020221101000001600NNE   20220927145620W41 1W    00000080000001378000000000032W41   HJYHK-J 000000000000OF22B017
BI00B32W4    4500201051     2022112218018404160              CAVS 1.25 G              CCN000002400000002400FN00000000020221101000002400NNE   20220927145620W41 1W    00000080000001378000000000032W41   HJYHK-J 000000000000OF22B013
BI00B32W4    4500201051     2022112218018404150              CAVS 1.25 R              CCN000000800000000800FN00000000020221101000000800NNE   20220927145620W41 1W    00000080000001378000000000032W41   HJYHK-J 000000000000OF22B018
BI00B32W4    4500201051     2022112218018404190              CAVS 1.25 L              CCN000002400000002400FN00000000020221101000002400NNE   20220927145620W41 1W    00000080000001378000000000032W41   HJYHK-J 000000000000OF22B015
BI00B32W4    4500201051     2022112218018404192              CAVS 1.25 V              CCN000002400000002400FN00000000020221101000002400NNE   20220927145620W41 1W    00000080000001378000000000032W41   HJYHK-J 000000000000OF22B019
BI00T32W4    4500201019     202211291801R704052              CIVUS 0.75 P             CCN000003000000003000FN00000000020221201000003000NNE   20220927145624W4K81W    00000150000000765000000000032W4K8  HJYHK-J 000000000000OS32B001
BI00B32W4    4500201154     2022101118009604030              AVS 0.85 B               CCN000001000000001000FN00000000020221001000001000NNE   20220927121722W42 1W    00000100000001167700000000032W42   HJYHK-J 000000000000OR429006
BI00B32W4    4500201154     2022101118009604330              AVS 3 B                  CCN000002000000002000FN00000000020221001000002000NNE   20220927121722W42 1W    00000040000003831600000000032W42   HJYHK-J 000000000000OR429007
BI00B32W4    4500201154     2022101118009604357              AVS 3 R/Y                CCN000001200000001200FN00000000020221001000001200NNE   20220927121722W42 1W    00000040000003831600000000032W42   HJYHK-J 000000000000OR429008
BI00B32W4    4500201154     2022101118007703930              AVSS 0.5F B              CCN000001500000001500FN00000000020221001000001500NNE   20220927121722W42 1W    00000150000000674000000000032W42   HJYHK-J 000000000000OR429001
BI00B32W4    4500201154     2022101118007704130              AVSS 1.25F B             CCN000000800000000800FN00000000020221001000000800NNE   20220927121722W42 1W    00000080000001389000000000032W42   HJYHK-J 000000000000OR429002
BI00B32W4    4500201154     2022101118007704151              AVSS 1.25F O             CCN000000800000000800FN00000000020221001000000800NNE   20220927121722W42 1W    00000080000001389000000000032W42   HJYHK-J 000000000000OR429003
BI00B32W4    4500201154     2022101118007704230              AVSS 2F B                CCN000003500000003500FN00000000020221001000003500NNE   20220927121722W42 1W    00000050000002126400000000032W42   HJYHK-J 000000000000OR429004
BI00B32W4    4500201154     2022101118007704250              AVSS 2F R                CCN000000500000000500FN00000000020221001000000500NNE   20220927121722W42 1W    00000050000002126400000000032W42   HJYHK-J 000000000000OR429005
BI00B32W4    4500201154     2022101118018403730              CAVS 0.3 B               CCN000002000000002000FN00000000020221001000002000NNE   20220927121722W42 1W    00000200000000471000000000032W42   HJYHK-J 000000000000OR429009
BI00B32W4    4500201154     2022101118018403735              CAVS 0.3 B/R             CCN000002000000002000FN00000000020221001000002000NNE   20220927121722W42 1W    00000200000000471000000000032W42   HJYHK-J 000000000000OR429010
BI00B32W4    4500201154     2022101118018403734              CAVS 0.3 B/W             CCN000004000000004000FN00000000020221001000004000NNE   20220927121722W42 1W    00000200000000471000000000032W42   HJYHK-J 000000000000OR429011
BI00B32W4    4500201154     2022101118018403760              CAVS 0.3 G               CCN000002000000002000FN00000000020221001000002000NNE   20220927121722W42 1W    00000200000000471000000000032W42   HJYHK-J 000000000000OR429012
BI00B32W4    4500201154     2022101118018403767              CAVS 0.3 G/Y             CCN000002000000002000FN00000000020221001000002000NNE   20220927121722W42 1W    00000200000000471000000000032W42   HJYHK-J 000000000000OR429013
BI00B32W4    4500201154     2022101118018403790              CAVS 0.3 L               CCN000002000000002000FN00000000020221001000002000NNE   20220927121722W42 1W    00000200000000471000000000032W42   HJYHK-J 000000000000OR429014
BI00B32W4    4500201154     2022101118018403751              CAVS 0.3 O               CCN000002000000002000FN00000000020221001000002000NNE   20220927121722W42 1W    00000200000000471000000000032W42   HJYHK-J 000000000000OR429015
BI00B32W4    4500201154     2022101118018403754              CAVS 0.3 R/W             CCN000002000000002000FN00000000020221001000002000NNE   20220927121722W42 1W    00000200000000471000000000032W42   HJYHK-J 000000000000OR429016
BI00B32W4    4500201154     2022101118018403740              CAVS 0.3 W               CCN000002000000002000FN00000000020221001000002000NNE   20220927121722W42 1W    00000200000000471000000000032W42   HJYHK-J 000000000000OR429017
BI00B32W4    4500201154     2022101118018403930              CAVS 0.5 B               CCN000009000000009000FN00000000020221001000009000NNE   20220927121722W42 1W    00000150000000677000000000032W42   HJYHK-J 000000000000OR429018
BI00B32W4    4500201154     2022101118018403939              CAVS 0.5 B/L             CCN000001500000001500FN00000000020221001000001500NNE   20220927121722W42 1W    00000150000000677000000000032W42   HJYHK-J 000000000000OR429019
BI00B32W4    4500201154     2022101118018403934              CAVS 0.5 B/W             CCN000010500000010500FN00000000020221001000010500NNE   20220927121722W42 1W    00000150000000677000000000032W42   HJYHK-J 000000000000OR429020
BI00B32W4    4500201154     2022101118018403980              CAVS 0.5 BR              CCN000003000000003000FN00000000020221001000003000NNE   20220927121722W42 1W    00000150000000677000000000032W42   HJYHK-J 000000000000OR429021
BI00B32W4    4500201154     2022101118018403960              CAVS 0.5 G               CCN000009000000009000FN00000000020221001000009000NNE   20220927121722W42 1W    00000150000000677000000000032W42   HJYHK-J 000000000000OR429022
BI00B32W4    4500201154     2022101118018403964              CAVS 0.5 G/W             CCN000003000000003000FN00000000020221001000003000NNE   20220927121722W42 1W    00000150000000677000000000032W42   HJYHK-J 000000000000OR429023
BI00B32W4    4500201154     2022101118018403990              CAVS 0.5 L               CCN000006000000006000FN00000000020221001000006000NNE   20220927121722W42 1W    00000150000000677000000000032W42   HJYHK-J 000000000000OR429024
BI00B32W4    4500201154     2022101118018403995              CAVS 0.5 L/R             CCN000004500000004500FN00000000020221001000004500NNE   20220927121722W42 1W    00000150000000677000000000032W42   HJYHK-J 000000000000OR429025
BI00B32W4    4500201154     2022101118018403994              CAVS 0.5 L/W             CCN000001500000001500FN00000000020221001000001500NNE   20220927121722W42 1W    00000150000000677000000000032W42   HJYHK-J 000000000000OR429026
BI00B32W4    4500201154     2022101118018403961              CAVS 0.5 LG              CCN000001500000001500FN00000000020221001000001500NNE   20220927121722W42 1W    00000150000000677000000000032W42   HJYHK-J 000000000000OR429027
BI00B32W4    4500201154     2022101118018403951              CAVS 0.5 O               CCN000003000000003000FN00000000020221001000003000NNE   20220927121722W42 1W    00000150000000677000000000032W42   HJYHK-J 000000000000OR429028
BI00B32W4    4500201154     2022101118018403952              CAVS 0.5 P               CCN000004500000004500FN00000000020221001000004500NNE   20220927121722W42 1W    00000150000000677000000000032W42   HJYHK-J 000000000000OR429029
BI00B32W4    4500201154     2022101118018403950              CAVS 0.5 R               CCN000004500000004500FN00000000020221001000004500NNE   20220927121722W42 1W    00000150000000677000000000032W42   HJYHK-J 000000000000OR429030
BI00B32W4    4500201154     2022101118018403956              CAVS 0.5 R/G             CCN000004500000004500FN00000000020221001000004500NNE   20220927121722W42 1W    00000150000000677000000000032W42   HJYHK-J 000000000000OR429031
BI00B32W4    4500201154     2022101118018403954              CAVS 0.5 R/W             CCN000003000000003000FN00000000020221001000003000NNE   20220927121722W42 1W    00000150000000677000000000032W42   HJYHK-J 000000000000OR429032
BI00B32W4    4500201154     2022101118018403957              CAVS 0.5 R/Y             CCN000004500000004500FN00000000020221001000004500NNE   20220927121722W42 1W    00000150000000677000000000032W42   HJYHK-J 000000000000OR429033
BI00B32W4    4500201154     2022101118018403940              CAVS 0.5 W               CCN000006000000006000FN00000000020221001000006000NNE   20220927121722W42 1W    00000150000000677000000000032W42   HJYHK-J 000000000000OR429034
BI00B32W4    4500201154     2022101118018403943              CAVS 0.5 W/B             CCN000003000000003000FN00000000020221001000003000NNE   20220927121722W42 1W    00000150000000677000000000032W42   HJYHK-J 000000000000OR429035
BI00B32W4    4500201154     2022101118018403945              CAVS 0.5 W/R             CCN000001500000001500FN00000000020221001000001500NNE   20220927121722W42 1W    00000150000000677000000000032W42   HJYHK-J 000000000000OR429036
BI00B32W4    4500201154     2022101118018403970              CAVS 0.5 Y               CCN000009000000009000FN00000000020221001000009000NNE   20220927121722W42 1W    00000150000000677000000000032W42   HJYHK-J 000000000000OR429037
BI00B32W4    4500201154     2022101118018403975              CAVS 0.5 Y/R             CCN000003000000003000FN00000000020221001000003000NNE   20220927121722W42 1W    00000150000000677000000000032W42   HJYHK-J 000000000000OR429038
BI00B32W4    4500201154     2022101118018404030              CAVS 0.85 B              CCN000002000000002000FN00000000020221001000002000NNE   20220927121722W42 1W    00000100000000965000000000032W42   HJYHK-J 000000000000OR429039
BI00B32W4    4500201154     2022101118018404130              CAVS 1.25 B              CCN000008000000008000FN00000000020221001000008000NNE   20220927121722W42 1W    00000080000001378000000000032W42   HJYHK-J 000000000000OR429040
BI00B32W4    4500201154     2022101118018404190              CAVS 1.25 L              CCN000002400000002400FN00000000020221001000002400NNE   20220927121722W42 1W    00000080000001378000000000032W42   HJYHK-J 000000000000OR429041
BI00B32W4    4500201154     2022101118018404150              CAVS 1.25 R              CCN000004800000004800FN00000000020221001000004800NNE   20220927121722W42 1W    00000080000001378000000000032W42   HJYHK-J 000000000000OR429042
BI00B32W4    4500201154     2022101118018404140              CAVS 1.25 W              CCN000002400000002400FN00000000020221001000002400NNE   20220927121722W42 1W    00000080000001378000000000032W42   HJYHK-J 000000000000OR429043
BI00B32W4    4500201162     2022110818018404141              CAVS 1.25 GY             CCN000001600000001600FN00000000020221101000001600NNE   20220927145620W41 1W    00000080000001378000000000032W41   HJYHK-J 000000000000OP42A001
BI00B32W4    4500201165     2022111518018403941              CAVS 0.5 GY              CCN000001500000001500FN00000000020221101000001500NNE   20220927145621W41 1W    00000150000000677000000000032W41   HJYHK-J 000000000000OD12B001
BI00B32W4    4500201165     2022111518018404160              CAVS 1.25 G              CCN000000800000000800FN00000000020221101000000800NNE   20220927145621W41 1W    00000080000001378000000000032W41   HJYHK-J 000000000000OD12B002
BI00B32W4    4500201167     2022112218018403791              CAVS 0.3 SB              CCN000008000000008000FN00000000020221101000008000NNE   20220927145622W41 1W    00000200000000471000000000032W41   HJYHK-J 000000000000OI22B013
BI00B32W4    4500201167     2022112218018403750              CAVS 0.3 R               CCN000008000000008000FN00000000020221101000008000NNE   20220927145622W41 1W    00000200000000471000000000032W41   HJYHK-J 000000000000OI22B012
BI00B32W4    4500201167     2022112218018403752              CAVS 0.3 P               CCN000006000000006000FN00000000020221101000006000NNE   20220927145622W41 1W    00000200000000471000000000032W41   HJYHK-J 000000000000OI22B011
BI00B32W4    4500201167     2022112218018403760              CAVS 0.3 G               CCN000012000000012000FN00000000020221101000012000NNE   20220927145622W41 1W    00000200000000471000000000032W41   HJYHK-J 000000000000OI22B008
BI00B32W4    4500201167     2022112218018403761              CAVS 0.3 LG              CCN000012000000012000FN00000000020221101000012000NNE   20220927145622W41 1W    00000200000000471000000000032W41   HJYHK-J 000000000000OI22B010
BI00B32W4    4500201167     2022112218018403741              CAVS 0.3 GY              CCN000010000000010000FN00000000020221101000010000NNE   20220927145622W41 1W    00000200000000471000000000032W41   HJYHK-J 000000000000OI22B009
BI00B32W4    4500201167     2022112218018403934              CAVS 0.5 B/W             CCN000010500000010500FN00000000020221101000010500NNE   20220927145622W41 1W    00000150000000677000000000032W41   HJYHK-J 000000000000OI22B015
BI00B32W4    4500201167     2022112218018403930              CAVS 0.5 B               CCN000028500000028500FN00000000020221101000028500NNE   20220927145622W41 1W    00000150000000677000000000032W41   HJYHK-J 000000000000OI22B014
BI00B32W4    4500201167     2022112218018403940              CAVS 0.5 W               CCN000006000000006000FN00000000020221101000006000NNE   20220927145622W41 1W    00000150000000677000000000032W41   HJYHK-J 000000000000OI22B022
BI00B32W4    4500201167     2022112218018403941              CAVS 0.5 GY              CCN000009000000009000FN00000000020221101000009000NNE   20220927145622W41 1W    00000150000000677000000000032W41   HJYHK-J 000000000000OI22B016
BI00B32W4    4500201167     2022112218018403950              CAVS 0.5 R               CCN000013500000013500FN00000000020221101000013500NNE   20220927145622W41 1W    00000150000000677000000000032W41   HJYHK-J 000000000000OI22B019
BI00B32W4    4500201167     2022112218018403952              CAVS 0.5 P               CCN000001500000001500FN00000000020221101000001500NNE   20220927145622W41 1W    00000150000000677000000000032W41   HJYHK-J 000000000000OI22B018
BI00B32W4    4500201167     2022112218018403961              CAVS 0.5 LG              CCN000004500000004500FN00000000020221101000004500NNE   20220927145622W41 1W    00000150000000677000000000032W41   HJYHK-J 000000000000OI22B017
BI00B32W4    4500201167     2022112218018403991              CAVS 0.5 SB              CCN000010500000010500FN00000000020221101000010500NNE   20220927145622W41 1W    00000150000000677000000000032W41   HJYHK-J 000000000000OI22B020
BI00B32W4    4500201167     2022112218018403992              CAVS 0.5 V               CCN000009000000009000FN00000000020221101000009000NNE   20220927145622W41 1W    00000150000000677000000000032W41   HJYHK-J 000000000000OI22B021
BI00B32W4    4500201167     2022112218018404160              CAVS 1.25 G              CCN000001600000001600FN00000000020221101000001600NNE   20220927145622W41 1W    00000080000001378000000000032W41   HJYHK-J 000000000000OI22B023
BI00B32W4    4500201167     202211221801R706950              CIVUS 0.35 R             CCN000003000000003000FN00000000020221101000003000NNE   20220927145622W41 1W    00000300000000386000000000032W41   HJYHK-J 000000000000OI22B006
BI00B32W4    4500201167     202211221801R706980              CIVUS 0.35 BR            CCN000003000000003000FN00000000020221101000003000NNE   20220927145622W41 1W    00000300000000386000000000032W41   HJYHK-J 000000000000OI22B005
BI00B32W4    4500201167     202211221801840375U              CAVS 0.3 BE              CCN000002000000002000FN00000000020221101000002000NNE   20220927145622W41 1W    00000200000000471000000000032W41   HJYHK-J 000000000000OI22B007
BI00B32W4    4500201167     202211221801R703930              CIVUS 0.5 B              CCN000002200000002200FN00000000020221101000002200NNE   20220927145622W41 1W    00000220000000525000000000032W41   HJYHK-J 000000000000OI22B003
BI00B32W4    4500201167     202211221801R703970              CIVUS 0.5 Y              CCN000002200000002200FN00000000020221101000002200NNE   20220927145622W41 1W    00000220000000525000000000032W41   HJYHK-J 000000000000OI22B004
BI00B32W4    @4500201167    20221122181B09116K2              CAVSAS 0.3X2 GY/V        CCN000001400000001400FN00000000020221101000001400NNE   20220927145618W41 1W    00000035000002254000000000032W41   HJYHK-J 000000000000OI22B002
BI00B32W4    @4500201167    20221122181B0911641              CAVSAS 0.3X2 GY          CCN000002450000002450FN00000000020221101000002450NNE   20220927145618W41 1W    00000035000002254000000000032W41   HJYHK-J 000000000000OI22B001
BI00B32W4    4500201168     2022111518007704260              AVSS 2F G                CCN000001000000001000FN00000000020221101000001000NNE   20220927145623W41 1W    00000050000002126400000000032W41   HJYHK-J 000000000000OE12B001
BI00B32W4    4500201168     2022111518007704270              AVSS 2F Y                CCN000000500000000500FN00000000020221101000000500NNE   20220927145623W41 1W    00000050000002126400000000032W41   HJYHK-J 000000000000OE12B002
BI00B32W4    4500201168     2022111518018403941              CAVS 0.5 GY              CCN000003000000003000FN00000000020221101000003000NNE   20220927145623W41 1W    00000150000000677000000000032W41   HJYHK-J 000000000000OE12B003
BI00B32W4    4500201168     2022111518018404140              CAVS 1.25 W              CCN000000800000000800FN00000000020221101000000800NNE   20220927145623W41 1W    00000080000001378000000000032W41   HJYHK-J 000000000000OE12B008
BI00B32W4    4500201168     2022111518018404170              CAVS 1.25 Y              CCN000000800000000800FN00000000020221101000000800NNE   20220927145623W41 1W    00000080000001378000000000032W41   HJYHK-J 000000000000OE12B009
BI00B32W4    4500201168     2022111518018404141              CAVS 1.25 GY             CCN000000800000000800FN00000000020221101000000800NNE   20220927145623W41 1W    00000080000001378000000000032W41   HJYHK-J 000000000000OE12B005
BI00B32W4    4500201168     2022111518018404151              CAVS 1.25 O              CCN000000800000000800FN00000000020221101000000800NNE   20220927145623W41 1W    00000080000001378000000000032W41   HJYHK-J 000000000000OE12B006
BI00B32W4    4500201168     2022111518018404152              CAVS 1.25 P              CCN000001600000001600FN00000000020221101000001600NNE   20220927145623W41 1W    00000080000001378000000000032W41   HJYHK-J 000000000000OE12B007
BI00B32W4    4500201168     2022111518018404160              CAVS 1.25 G              CCN000000800000000800FN00000000020221101000000800NNE   20220927145623W41 1W    00000080000001378000000000032W41   HJYHK-J 000000000000OE12B004
BI00B32W4    @4500201189    20221101181E50036ZZ              AVSSCS-S 0.3FX2 DGY      CCN000000700000000700FN00000000020221101000000700NNE   20220927145619W4591W    00000035000002165000000000032W459  HJYHK-J 000000000000OC32A001
BI00B32W4    @4500201189    20221101181E50002ZZ              AVSSCS-S 0.3FX2 DGY/G    CCN000002100000002100FN00000000020221101000002100NNE   20220927145619W4591W    00000035000002165000000000032W459  HJYHK-J 000000000000OC32A002
BI00B32W9    4500199699     2022101818018403935              CAVS 0.5 B/R             CCN000001500000001500FN00000000020221001000001500NNE22 20220927145200W93 1W    00000150000000677000000000032W93   HKYHK   000000000000ZB22A051
BI00B32W9    4500199699     2022101818018403970              CAVS 0.5 Y               CCN000007500000007500FN00000000020221001000007500NNE22 20220927145209W93 1W    00000150000000677000000000032W93   HKYHK   000000000000ZB22A073
BI00B32W9    4500199699     202210181801R70695U              CIVUS 0.35 BE            CCN000003000000003000FN00000000020221001000003000NNE22 20220927145218W93 1W    00000300000000386000000000032W93   HKYHK   000000000000ZB22A039
BI00B32W9    4500199699     202210181801R706930              CIVUS 0.35 B             CCN000003000000003000FN00000000020221001000003000NNE22 20220927145226W93 1W    00000300000000386000000000032W93   HKYHK   000000000000ZB22A038
BI00B32W9    @4500199699    20221018181B09116K3              CAVSAS 0.3X2 GY/P        CCN000001750000001750FN00000000020221001000001750NNE20 20220927145040W93 1W    00000035000002254000000000032W93   HKYHK   000000000000ZB22A001
