AE00TO202209270427/09/202200000033100000000000000346431KGM  00000362614KGM  18000004530              AV 8 B                   AV 8 B                   0         0         0         0    0    0    00000000000331000000000211100069874100
AE00TO202209270427/09/202200000001800000000000000018839KGM  00000019719KGM  18000004534              AV 8 B/W                 AV 8 B/W                 0         0         0         0    0    0    00000000000018000000000211100003799800
AE00TO202209270427/09/202200000001700000000000000017793KGM  00000018624KGM  18000004535              AV 8 B/R                 AV 8 B/R                 0         0         0         0    0    0    00000000000017000000000211100003588700
AE00TO202209270427/09/202200000002900000000000000030352KGM  00000031770KGM  18000004550              AV 8 R                   AV 8 R                   0         0         0         0    0    0    00000000000029000000000211100006121900
AE00TO202209270427/09/202200000004700000000000000049191KGM  00000051489KGM  18000004560              AV 8 G                   AV 8 G                   0         0         0         0    0    0    00000000000047000000000211100009921700
AE00TO202209270427/09/202200000005100000000000000053377KGM  00000055870KGM  18000004590              AV 8 L                   AV 8 L                   0         0         0         0    0    0    00000000000051000000000211100010766100
AE00TO202209270427/09/202200000001000000000000000010110KGM  00000010599KGM  18007703940              AVSS 05F W               AVSS 05F W               0         0         0         0    0    0    00000000000150000000000015600002340000
AE00TO202209270427/09/202200000000200000000000000002022KGM  00000002120KGM  18007703941              AVSS 05F GY              AVSS 05F GY              0         0         0         0    0    0    00000000000030000000000015600000468000
AE00TO202209270427/09/202200000000300000000000000003033KGM  00000003180KGM  18007703943              AVSS 05F W/B             AVSS 05F W/B             0         0         0         0    0    0    00000000000045000000000015600000702000
AE00TO202209270427/09/202200000000200000000000000002022KGM  00000002120KGM  18007703945              AVSS 05F W/R             AVSS 05F W/R             0         0         0         0    0    0    00000000000030000000000015600000468000
AE00TO202209270427/09/202200000000100000000000000001011KGM  00000001060KGM  18007703949              AVSS 05F W/L             AVSS 05F W/L             0         0         0         0    0    0    00000000000015000000000015600000234000
AE00TO202209270427/09/202200000001600000000000000016176KGM  00000016958KGM  18007703951              AVSS 05F O               AVSS 05F O               0         0         0         0    0    0    00000000000240000000000015600003744000
AE00TO202209270427/09/202200000000200000000000000002022KGM  00000002120KGM  18007703952              AVSS 05F P               AVSS 05F P               0         0         0         0    0    0    00000000000030000000000015600000468000
AE00TO202209270427/09/202200000000200000000000000002022KGM  00000002120KGM  18007703957              AVSS 05F R/Y             AVSS 05F R/Y             0         0         0         0    0    0    00000000000030000000000015600000468000
AE00TO202209270427/09/202200000000800000000000000008088KGM  00000008479KGM  18007703970              AVSS 05F Y               AVSS 05F Y               0         0         0         0    0    0    00000000000120000000000015600001872000
AE00TO202209270427/09/202200000000100000000000000001011KGM  00000001060KGM  18007703977              AVSS 05F O/L             AVSS 05F O/L             0         0         0         0    0    0    00000000000015000000000015600000234000
AE00TO202209270427/09/202200000000100000000000000001011KGM  00000001060KGM  180077039H1              AVSS 05F GY/G            AVSS 05F GY/G            0         0         0         0    0    0    00000000000015000000000015600000234000
AE00TO202209270427/09/202200000000100000000000000001063KGM  00000001112KGM  18007704230              AVSS 2F B                AVSS 2F B                0         0         0         0    0    0    00000000000005000000000050600000253000
AE00TO202209270427/09/202200000000100000000000000000807KGM  00000000856KGM  18018103964              AVS 05F G/W              AVS 05F G/W              0         0         0         0    0    0    00000000000010000000000016200000162000
AE00TO202209270427/09/202200000000300000000000000003047KGM  00000003193KGM  18018403990              CAVS 05 L                CAVS 05 L                0         0         0         0    0    0    00000000000045000000000015000000675000
AE00TO202209270427/09/202200000000200000000000000001930KGM  00000002028KGM  18018404017              CAVS 085 LG/B            CAVS 085 LG/B            0         0         0         0    0    0    00000000000020000000000022700000454000
AE00TO202209270427/09/202200000011200000000000000108080KGM  00000113557KGM  18018404030              CAVS 085 B               CAVS 085 B               0         0         0         0    0    0    00000000001120000000000022700025424000
AE00TO202209270427/09/202200000000200000000000000001930KGM  00000002028KGM  18018404035              CAVS 085 B/R             CAVS 085 B/R             0         0         0         0    0    0    00000000000020000000000022700000454000
AE00TO202209270427/09/202200000000200000000000000001930KGM  00000002028KGM  18018404040              CAVS 085 W               CAVS 085 W               0         0         0         0    0    0    00000000000020000000000022700000454000
AE00TO202209270427/09/202200000000700000000000000006755KGM  00000007097KGM  18018404041              CAVS 085 GY              CAVS 085 GY              0         0         0         0    0    0    00000000000070000000000022700001589000
AE00TO202209270427/09/202200000000100000000000000000965KGM  00000001014KGM  18018404050              CAVS 085 R               CAVS 085 R               0         0         0         0    0    0    00000000000010000000000022700000227000
AE00TO202209270427/09/202200000002600000000000000025090KGM  00000026362KGM  18018404051              CAVS 085 O               CAVS 085 O               0         0         0         0    0    0    00000000000260000000000022700005902000
AE00TO202209270427/09/202200000000100000000000000000965KGM  00000001014KGM  18018404052              CAVS 085 P               CAVS 085 P               0         0         0         0    0    0    00000000000010000000000022700000227000
AE00TO202209270427/09/202200000010700000000000000103255KGM  00000108487KGM  18018404060              CAVS 085 G               CAVS 085 G               0         0         0         0    0    0    00000000001070000000000022700024289000
AE00TO202209270427/09/202200000000200000000000000001930KGM  00000002028KGM  18018404063              CAVS 085 G/B             CAVS 085 G/B             0         0         0         0    0    0    00000000000020000000000022700000454000
AE00TO202209270427/09/202200000000200000000000000001930KGM  00000002028KGM  18018404065              CAVS 085 G/R             CAVS 085 G/R             0         0         0         0    0    0    00000000000020000000000022700000454000
AE00TO202209270427/09/202200000001600000000000000015440KGM  00000016222KGM  18018404092              CAVS 085 V               CAVS 085 V               0         0         0         0    0    0    00000000000160000000000022700003632000
AE00TO202209270427/09/202200000001600000000000000018000KGM  00000018783KGM  1801W003930              IVSSH 05F B              IVSSH 05F B              0         0         0         0    0    0    00000000000288000000000015400004435200
AE00TO202209270427/09/202200000000100000000000000001125KGM  00000001174KGM  1801W003941              IVSSH 05F GY             IVSSH 05F GY             0         0         0         0    0    0    00000000000018000000000015400000277200
AE00TO202209270427/09/202200000000900000000000000010125KGM  00000010565KGM  1801W003950              IVSSH 05F R              IVSSH 05F R              0         0         0         0    0    0    00000000000162000000000015400002494800
AE00TO202209270427/09/202200000000400000000000000004500KGM  00000004696KGM  1801W003961              IVSSH 05F LG             IVSSH 05F LG             0         0         0         0    0    0    00000000000072000000000015400001108800
AE00TO202209270427/09/202200000006900000000000000077625KGM  00000080998KGM  1801W003990              IVSSH 05F L              IVSSH 05F L              0         0         0         0    0    0    00000000001242000000000015400019126800
AE00TO202209270427/09/202200000001900000000000000021375KGM  00000022304KGM  1801W003992              IVSSH 05F V              IVSSH 05F V              0         0         0         0    0    0    00000000000342000000000015400005266800
AE00TO202209270427/09/202200000000100000000000000001147KGM  00000001195KGM  1801W004060              IVSSH 075F G             IVSSH 075F G             0         0         0         0    0    0    00000000000013000000000021500000279500
AE00TO202209270427/09/202200000003100000000000000035030KGM  00000036546KGM  1801W006930              IVSSH 035F B             IVSSH 035F B             0         0         0         0    0    0    00000000000775000000000011400008835000
AE00TO202209270427/09/202200000002300000000000000025990KGM  00000027115KGM  1801W006941              IVSSH 035F GY            IVSSH 035F GY            0         0         0         0    0    0    00000000000575000000000011400006555000
AE00TO202209270427/09/202200000003600000000000000040680KGM  00000042439KGM  1801W006960              IVSSH 035F G             IVSSH 035F G             0         0         0         0    0    0    00000000000900000000000011400010260000
AE00TO202209270427/09/202200000001100000000000000012430KGM  00000012968KGM  1801W006980              IVSSH 035F BR            IVSSH 035F BR            0         0         0         0    0    0    00000000000275000000000011400003135000
AE00TO202209270427/09/202200000000200000000000000002260KGM  00000002358KGM  1801W006990              IVSSH 035F L             IVSSH 035F L             0         0         0         0    0    0    00000000000050000000000011400000570000
AE00TO202209270427/09/202200000001900000000000000022161KGM  00000023091KGM  180D0204130              AVSSH 125F B             AVSSH 125F B             0         0         0         0    0    0    00000000000152000000000035700005426400
AE00TO202209270427/09/202200000003200000000000000037325KGM  00000038889KGM  180D0204143              AVSSH 125F W/B           AVSSH 125F W/B           0         0         0         0    0    0    00000000000256000000000035700009139200
AE00TO202209270427/09/202200000000300000000000000003499KGM  00000003646KGM  180D0204149              AVSSH 125F W/L           AVSSH 125F W/L           0         0         0         0    0    0    00000000000024000000000035700000856800
AE00TO202209270427/09/202200000001200000000000000009254KGM  00000009841KGM  181AD2002ZZ              CIVUSAS-S 035X2 B        CIVUSAS-S 035X2 B        0         0         0         0    0    0    00000000000054000000000043700002359800
AE00TO202209270427/09/202200000000200000000000000001520KGM  00000001618KGM  181AD2003ZZ              CIVUSAS-S 035X3 B        CIVUSAS-S 035X3 B        0         0         0         0    0    0    00000000000007000000000055300000387100
AE00TO202209270427/09/202200000000200000000000000001680KGM  00000001778KGM  181AD2004ZZ              CIVUSAS-S 035X4 B        CIVUSAS-S 035X4 B        0         0         0         0    0    0    00000000000006000000000066700000400200
AE00TO202209270427/09/202200000001600000000000000012979KGM  00000013761KGM  181AD2020ZZ              CIVUSAS-S 05X2 B(R,G)    CIVUSAS-S 05X2 B(R,G)    0         0         0         0    0    0    00000000000064000000000051400003289600
AE00TO202209270427/09/202200000000200000000000000001608KGM  00000001706KGM  181B0910241              CAVSAS 05X2 GY           CAVSAS 05X2 GY           0         0         0         0    0    0    00000000000006000000000061200000367200
AE00TO202209270427/09/202200000000100000000000000000789KGM  00000000838KGM  181B0911641              CAVSAS 03X2 GY           CAVSAS 03X2 GY           0         0         0         0    0    0    00000000000003500000000047400000165900
AE00TO202209270427/09/202200000004100000000000000028907KGM  00000030912KGM  181CQ7004ZZ              IVSSHCS-S 05FX2 B(R,G)   IVSSHCS-S 05FX2 B(R,G)   0         0         0         0    0    0    00000000000123000000000072600008929800
AE00TO202209270427/09/202200000000100000000000000000716KGM  00000000764KGM  181D6910235              AVSSHCS 05FX2 B/R        AVSSHCS 05FX2 B/R        0         0         0         0    0    0    00000000000003000000000079800000239400
AE00TO202209270427/09/202200000000100000000000000000768KGM  00000000817KGM  181E48027ZZ              CAVSAS-S 05X2 GY/P       CAVSAS-S 05X2 GY/P       0         0         0         0    0    0    00000000000003000000000056500000169500
AE00TO202209270427/09/202200000000300000000000000002786KGM  00000002933KGM  181E50001ZZ              AVSSCS-S 05FX2 DGY       AVSSCS-S 05FX2 DGY       0         0         0         0    0    0    00000000000009000000000070600000635400
AE00TO202209270427/09/202200000006600000000000000061302KGM  00000064527KGM  181E50011ZZ              AVSSCS-S 05FX2 DGY/Y     AVSSCS-S 05FX2 DGY/Y     0         0         0         0    0    0    00000000000198000000000070600013978800
AE00TO202209270427/09/202200000003700000000000000034366KGM  00000036175KGM  181E50012ZZ              AVSSCS-S 05FX2 DGY/G     AVSSCS-S 05FX2 DGY/G     0         0         0         0    0    0    00000000000111000000000070600007836600
AE00TO202209270427/09/202200000000800000000000000007430KGM  00000007822KGM  181E50016ZZ              AVSSCS-S 05FX2 DGY/R     AVSSCS-S 05FX2 DGY/R     0         0         0         0    0    0    00000000000024000000000070600001694400
AE00TO202209270427/09/202200000000800000000000000006530KGM  00000006921KGM  181E50027ZZ              AVSSCS-S 05FX3 DGY/G     AVSSCS-S 05FX3 DGY/G     0         0         0         0    0    0    00000000000020000000000091500001830000
AE00TO202209270427/09/202200000000300000000000000002449KGM  00000002595KGM  181E50028ZZ              AVSSCS-S 05FX3 DGY       AVSSCS-S 05FX3 DGY       0         0         0         0    0    0    00000000000007500000000091500000686250
