AE00TI102209270627/09/202200000002200000000000000007273KGM  00000008492KGM  7158-3006-90             RUBBER STOPPER           7158300690               0         0         0         0    0    0    00044000000002000000000016000070400000
AE00TI102209270627/09/202200000001900000000000000006422KGM  00000007338KGM  7158-3009-60             RUBBER STOPPER           7158300960               0         0         0         0    0    0    00038000000002000000000012000045600000
AE00TI102209270627/09/202200000000600000000000000001656KGM  00000002000KGM  7158-3070-80             RUBBER STOPPER           7158307080               0         0         0         0    0    0    00024000000004000000000008000019200000
AE00TI102209270627/09/202200000000800000000000000000832KGM  00000001219KGM  7158-3166-60             WIRE SEAL                7158316660               0         0         0         0    0    0    00032000000004000000000004000012800000
AE00TI102209270627/09/202200000004000000000000000001920KGM  00000004360KGM  7158-3167-80             WIRE SEAL                7158316780               0         0         0         0    0    0    00080000000002000000000005000040000000
AE00TI102209270627/09/202200000001000000000000000000440KGM  00000000921KGM  7158-3168-80             SEALED                   7158316880               0         0         0         0    0    0    00020000000002000000000004000008000000
AE00TI102209270627/09/202200000000600000000000000000936KGM  00000001225KGM  7158-3169-40             SEALING PLUG             7158316940               0         0         0         0    0    0    00024000000004000000000006000014400000
AE00TI102209270627/09/202200000001100000000000000002046KGM  00000002578KGM  7172-5540-80             SEALED WIRE SEAL         7172554080               0         0         0         0    0    0    00022000000002000000000010000022000000
AE00TI102209270627/09/202200000000400000000000000003468KGM  00000004048KGM  7288-3339-30             HOUSING MALE             7288333930               0         0         0         0    0    0    00000600000000150000000354000021240000
AE00TI102209270627/09/202200000002000000000000000013728KGM  00000018028KGM  7289-3342-30             HOUSING FEMALE ASS'Y     7289334230               0         0         0         0    0    0    00004800000000240000000191000091680000
AE00TI102209270627/09/202200000000000000000000000000000KGM  00000000000KGM  7289-9553-30             SEALED ASSY FEMALE       7289955330               0         0         0         0    0    0    00000000700000294000000245000000017150
AE00TI102209270627/09/202200000000300000000000000003010KGM  00000003614KGM  7298-1865-30             HOUSING FEMALE ASS'Y     7298186530               0         0         0         0    0    0    00000720000000240000000196000014112000
AE00TI102209270627/09/202200000000200000000000000002183KGM  00000002591KGM  7298-2278-30             HOUSING FEMALE ASS'Y     7298227830               0         0         0         0    0    0    00000480000000240000000227000010896000
AE00TI102209270627/09/202200000000200000000000000002195KGM  00000002717KGM  7298-4094-10             HOUSING FEMALE ASS'Y     7298409410               0         0         0         0    0    0    00000676000000338000000241000016291600
AE00TI102209270627/09/202200000000700000000000000006965KGM  00000007875KGM  7388-0313-30             CONNECTOR ASS'Y          7388031330               0         0         0         0    0    0    00000840000000120000000376000031584000
AE00TI102209270627/09/202200000000100000000000000001038KGM  00000001132KGM  7388-0314                CONNECTOR ASS'Y          73880314                 0         0         0         0    0    0    00000120000000120000000364000004368000
AE00TI102209270627/09/202200000003800000000000000028196KGM  00000042636KGM  7388-2978-30             HOUSING MALE ASS'Y       7388297830               0         0         0         0    0    0    00001824000000048000001790000326496000
AE00TI102209270627/09/202200000001800000000000000023760KGM  00000028260KGM  7470-4481                J/B COMPLETE ASS'Y       74704481                 0         0         0         0    0    0    00000043200000002400000000000000000000
AE00TI102209270627/09/202200000001400000000000000000000KGM  00000000000KGM  7470-4816D               J/B COMPLETE ASS'Y       74704816D                0         0         0         0    0    0    00000021000000001500000000000000000000
AE00TI102209270627/09/202200000001800000000000000000000KGM  00000000000KGM  7470-5308E               J/B COMPLETE ASS'Y       74705308E                0         0         0         0    0    0    00000018000000001000000000000000000000
AE00TI102209270627/09/202200000001800000000000000000000KGM  00000000000KGM  7470-5784E               J/B COMPLETE ASS'Y       74705784E                0         0         0         0    0    0    00000018000000001000000000000000000000
