BI00B32CC    CTA32121       202209227289-6868-30             SEALED ASSY FEMALE       CCN000040320000020160FN00000000020220801000020160NNED0420220817131300    4N0N  00000252000000839200001119232CC    BIYABCBU005500360039
BI00B32CC    CTA32121       202210067289-6868-30             SEALED ASSY FEMALE       CCN000020160000020160FN00000000020220801000020160NNED0420220817131300    4N0N  00000252000000839200001119232CC    BIYABCBU005500360039
BI00B32CG    S220636-G      202208247116-4025                TERMINAL                 CCN000016000000016000FN00000000020220901000016000NNED0020220817131300    4P0P  00001600000000644800000975132CG    ASASIACO006400630017
BI00B32CG    S220636-S      202208247116-4121-02             TERMINAL                 CCN000027000000027000FN00000000020220901000027000NNED0020220817131300    4P0P  00000450000000618800000912432CG    ASASIACO006400630015
BI00B32CG    S220636-S      202208247116-4111-02             TERMINAL                 CCN000015000000015000FN00000000020220901000015000NNED0020220817131300    4P0P  00000750000000529500000817732CG    ASASIACO006400630015
BI00B32CG    S220636-S      202208247114-4111-02             TERMINAL                 CCN000012000000012000FN00000000020220901000012000NNED0020220817131300    4P0P  00001200000000758400001087032CG    ASASIACO006400630017
BI00B32CG    S220806        202211167283-9457-3W             CONNECTOR                CCN000000480000000480FN00000000020221101000000480NNE   20220817131300    4N0N  00000012000000515000001067032CG    ASASIACO005600390023
BI00B32CG    S220806        202211167283-9458-30             CONNECTOR                CCN000000400000000400FN00000000020221101000000400NNE   20220817131300    4N0N  00000020000000792000000984332CG    ASASIACO005600390023
BI00B32CG    S220806        202211167116-4121-02             TERMINAL                 CCN000009000000009000FN00000000020221101000009000NNE   20220817131300    4P0P  00000450000000618800000912432CG    ASASIACO006400630015
BI00A32DJ    GHT2210B 1     202208197116-4037                TERMINAL                 CCN000096000000096000FN00000000020221001000096000NNMM0020220817143817    4P0P  00000600000000600000000894232DJ    RBYIPLRB006400630015
BI00A32DJ    GHT2210B 2     202208197116-4037                TERMINAL                 CCN000036000000036000FN00000000020221001000036000NNMM0020220817143817    4P0P  00000600000000600000000894232DJ    RBYIPLRB006400630015
BI00B32DJ    GHT2210B 1     202209017116-5750-02             TERMINAL                 CCN000180000000030000FN00000000020221001000030000NNMQ0020220817131300    4P0P  00001500000000457500000742732DJ    RBYIPLRB006400630015
BI00A32DJ    GHT2210B 1     202208197158-3006-90             RUBBER STOPPER           CCN000060000000060000FN00000000020221001000060000NNMQ0020220817143817    1C0C  00002000000000330600000386032DJ    RBYIPLRB002700430014
BI00A32DJ    GHT2210B 2     202208197158-3006-90             RUBBER STOPPER           CCN000140000000140000FN00000000020221001000140000NNMM0020220817143817    1C0C  00002000000000330600000386032DJ    RBYIPLRB002700430014
BI00B32DJ    GHT2210B 1     202209017116-1685-02             TERMINAL                 CCN000648000000168000FN00000000020221001000168000NNMQ0020220817131300    4P0P  00002400000000897600001065232DJ    RBYIPLRB005100280028
BI00A32DJ    GHT2210B 1     202208197116-3153-02             TERMINAL FEMALE          CCN000783000000513000FN00000000020221001000513000NNMM0020220817143817    4P0P  00002700000000459000000744232DJ    RBYIPLRB006400630015
BI00A32DJ    #GHT2210B 1    202208197189-3031-30             HOUSING FEMALE           CCN000002400000002400FN00000000020221001000002400NNMM0020220817131300    2F0F  00000240000000928800001365832DJ    RBYIPLRB005500360039
BI00A32DJ    #GHT2210B 2    202208197189-3031-30             HOUSING FEMALE           CCN000002400000002400FN00000000020221001000002400NNMM0020220817131300    2F0F  00000240000000928800001365832DJ    RBYIPLRB005500360039
BI00A32DJ    #GHT2210B 1    202208197189-3037                HOUSING FEMALE           CCN000019200000019200FN00000000020221001000019200NNMM0020220817131300    2F0F  00000480000000806400001066432DJ    RBYIPLRB005500360039
BI00A32DJ    #GHT2210B 2    202208197189-3037                HOUSING FEMALE           CCN000004800000004800FN00000000020221001000004800NNMM0020220817131300    2F0F  00000480000000806400001066432DJ    RBYIPLRB005500360039
BI00A32DJ    #GHT2210B 1    202208197183-2414                CONNECTOR HOUSING        CCN000009600000009600FN00000000020221001000009600NNMM0020220817131300    2F0F  00000480000000779200001061032DJ    RBYIPLRB005500360039
BI00A32DJ    #GHT2210B 2    202208197183-2414                CONNECTOR HOUSING        CCN000004800000004800FN00000000020221001000004800NNMM0020220817131300    2F0F  00000480000000779200001061032DJ    RBYIPLRB005500360039
BI00A32DJ    #GHT2210C 1    202208197116-4021                TERMINAL                 CCN000027000000027000FN00000000020221001000027000NNMM0020220817131300    2F0P  00001350000000534600000868832DJ    RBYIPLRB006400630015
BI00A32DJ    #GHT2210C 2    202208197116-4021                TERMINAL                 CCN000027000000027000FN00000000020221001000027000NNMM0020220817131300    2F0P  00001350000000534600000868832DJ    RBYIPLRB006400630015
BI00A32DJ    GHT2210B 1     202208197116-1685-02             TERMINAL                 CCN000480000000480000FN00000000020221001000480000NNMM0020220817143817    4P0P  00002400000000897600001065232DJ    RBYIPLRB005100280028
BI00A32DJ    GHT2210B 1     202208197116-5750-02             TERMINAL                 CCN000150000000150000FN00000000020221001000150000NNMM0020220817143817    4P0P  00001500000000457500000742732DJ    RBYIPLRB006400630015
BI00A32DJ    GHT2210H       202208197116-4022                TERMINAL                 CCN000013500000013500FN00000000020221001000013500NNE   20220817134248    4P0P  00001350000000618300000903532DJ    RBYIPLRB006400630015
BI00B32D9    I2390A         202209087116-4100-02             TERMINAL                 CCN000030000000030000FN00000000020221001000030000NNE   20220817150336    4P0P  00001500000000696000000990232D9    UEHESTO 006400630015
BI00B32D9    I2400A         202209157116-4100-02             TERMINAL                 CCN000030000000030000FN00000000020221001000030000NNE   20220817150401    4P0P  00001500000000696000000990232D9    UEHESTO 006400630015
BI00B32D9    I2411A         202209227116-4100-02             TERMINAL                 CCN000030000000030000FN00000000020221001000030000NNE   20220817150424    4P0P  00001500000000696000000990232D9    UEHESTO 006400630015
BI00B32D9    I2421A         202209297116-4100-02             TERMINAL                 CCN000030000000030000FN00000000020221001000030000NNE   20220817150442    4P0P  00001500000000696000000990232D9    UEHESTO 006400630015
BI00B32G2    SA22094HMW     202208317298-1853-10             HOUSING FEMALE ASS'Y     CCN000001200000000000FY00000000020220901000000000NNMQ0820220817100456    4N00  00000390000001240500001405832G2    AISUAI  005400370024
BI00B32G2    SA22101HMW     202209077298-1853-10             HOUSING FEMALE ASS'Y     CCN000001700000000000FY00000000020221001000000000NNMQ0820220817100513    4N00  00000390000001240500001405832G2    AISUAI  005400370024
BI00B32G2    SA22102HMW     202209147298-1853-10             HOUSING FEMALE ASS'Y     CCN000001300000000000FY00000000020221001000000000NNMQ0820220817100527    4N00  00000390000001240500001405832G2    AISUAI  005400370024
BI00B32G2    SA22103HMW     202209217298-1853-10             HOUSING FEMALE ASS'Y     CCN000001100000000000FY00000000020221001000000000NNMQ0820220817100543    4N00  00000390000001240500001405832G2    AISUAI  005400370024
BI00B32G2    SA22104HMW     202209287298-1853-10             HOUSING FEMALE ASS'Y     CCN000000900000000000FY00000000020221001000000000NNMM0020220817100619    4N00  00000390000001240500001405832G2    AISUAI  005400370024
BI00B32H2    TIJ2094        202209027470-5654                J/B COMPLETE ASS'Y       CCN000000200000000000FY00000000020220901000000000NNMQ0820220817103841    4J0J  00000001000000494000000661032H2    HVYHV   005400370024
BI00B32H2    TIJ2104        202209307273-2982-0W             CASSETTE BRACKET         CCN000000600000000000FY00000000020221001000000000NNMQ0820220817102441    4N0N  00000060000000526000000726032H2    HVYHV   005500360039
BI00B32H2    TIJ2104        202209307470-5304                J/B COMPLETE ASS'Y       CCN000000650000000000FY00000000020221001000000000NNMQ0820220817103756    4J0J  00000001000000494000000661032H2    HVYHV   005400370024
BI00B32H2    TIJ2102        202209167470-5651                J/B COMPLETE ASS'Y       CCN000000050000000020FN00000000020221001000000020NNMQ0820220817131300    4J0J  00000001000000494000000661032H2    HVYHV   005400370024
BI00B32H2    TIJ2103        202209237470-5654                J/B COMPLETE ASS'Y       CCN000000030000000000FY00000000020221001000000000NNMQ0820220817103900    4J0J  00000001000000494000000661032H2    HVYHV   005400370024
BI00B32H2    TIJ2105        202210077470-5654                J/B COMPLETE ASS'Y       CCN000000020000000000FY00000000020221001000000000NNMQ0820220817103920    4J0J  00000001000000494000000661032H2    HVYHV   005400370024
BI00B32H2    #TIJ2103       202209237154-5597-30             CASSETTE R/B             CCN000003200000000000FY00000000020221001000000000NNMQ0820220817142520    2F0F  00000080000000736000000952032H2    HVYHV   005500360039
BI00B32H2    #TIJ2105       202210077154-5597-30             CASSETTE R/B             CCN000001600000000800FN00000000020221001000000800NNMQ0820220817142540    2F0F  00000080000000736000000952032H2    HVYHV   005500360039
BI00B32Q8    EU22102 MW     202208187114-4020                TERMINAL                 CCN000042000000042000FN00000000020221001000042000NNMD0020220817131749    4P0P  00002100000000875700001169332Q8    EMEMI   006400630015
BI00B32Q8    EU22104 MW     202208187114-4020                TERMINAL                 CCN000042000000042000FN00000000020221001000042000NNMD0020220817131749    4P0P  00002100000000875700001169332Q8    EMEMI   006400630015
BI00B32R7    R-TAP220345    202209017116-4025                TERMINAL                 CCN000224000000224000FN00000000020220901000224000NNE   20220817131300    4P0P  00001600000000644800000975132R7    IVYCIC  006400630017
BI00B32R7    R-TAP220345    202209017158-3006-90             RUBBER STOPPER           CCN000020000000020000FN00000000020220901000020000NNE   20220817131300    1C0C  00002000000000330600000386032R7    IVYCIC  002700430014
BI00B32R7    R-TAP220345    202209017158-3169-40             SEALING PLUG             CCN000520000000520000FN00000000020220901000520000NNE   20220817131300    1C0C  00004000000000156000000204132R7    IVYCIC  004300260014
BI00A32W4    4500196021     202208247116-4102-02             TERMINAL                 CCN000048000000048000FN00000000020220801000048000NNED0020220817131300W4O24P0P  00001200000000553200000841432W4O2  HJYHK-J 006400630015
BI00A32W4    4500196021     202208247116-4103-02             TERMINAL                 CCN000024000000024000FN00000000020220801000024000NNED0020220817131300W4O24P0P  00001200000000571200000859432W4O2  HJYHK-J 006400630015
BI00A32W4    4500196421     202208247116-4102-02             TERMINAL                 CCN000060000000060000FN00000000020220901000060000NNED0020220817131300W4O24P0P  00001200000000553200000841432W4O2  HJYHK-J 006400630015
BI00A32W4    4500196421     202208247116-4103-02             TERMINAL                 CCN000024000000024000FN00000000020220901000024000NNED0020220817131300W4O24P0P  00001200000000571200000859432W4O2  HJYHK-J 006400630015
BI00A32W4    4500196409     202209127116-4025                TERMINAL                 CCN000016000000000000FY00000000020220901000000000NNEQ0820220817101533W4494P0P  00001600000000644800000975132W449  HJYHK   006400630017
BI00A32W4    4500196723     202208247116-4102-02             TERMINAL                 CCN000036000000036000FN00000000020220901000036000NNED0020220817131300W4O24P0P  00001200000000553200000841432W4O2  HJYHK-J 006400630015
BI00A32W4    4500196723     202208247116-4103-02             TERMINAL                 CCN000024000000024000FN00000000020220901000024000NNED0020220817131300W4O24P0P  00001200000000571200000859432W4O2  HJYHK-J 006400630015
BI00A32W4    4500197123     202208247116-4102-02             TERMINAL                 CCN000744000000744000FN00000000020220901000744000NNED0020220817131300W4O24P0P  00001200000000553200000841432W4O2  HJYHK-J 006400630015
BI00A32W4    4500197123     202208247116-4103-02             TERMINAL                 CCN000252000000252000FN00000000020220901000252000NNED0020220817131300W4O24P0P  00001200000000571200000859432W4O2  HJYHK-J 006400630015
BI00A32W4    4500197177     202209087116-4110-02             TERMINAL                 CCN000009000000009000FN00000000020220901000009000NNEM0020220817152159W4N24P0P  00000900000000594000000882232W4N2  HJYHK-J 006400630015
BI00A32W4    4500197594     202209157116-4110-02             TERMINAL                 CCN000018000000018000FN00000000020220901000018000NNEM0020220817152213W4N24P0P  00000900000000594000000882232W4N2  HJYHK-J 006400630015
BI00B32W4    4500198710     202210277158-3167-80             WIRE SEAL                CCN000320000000320000FN00000000020221001000320000NNE   20220817131300W4N61C0C  00002000000000048000000109032W4N6  HJYHK-J 002700430014
BI00B32W4    4500198710     202210277289-9553-50             SEALED ASSY FEMALE       CCN000005880000005880FN00000000020221001000005880NNE   20220817131300W4N64N0N  00000294000001108100001520632W4N6  HJYHK-J 005500360039
BI00B32W4    4500198710     202210277289-9553-30             SEALED ASSY FEMALE       CCN000002940000002940FN00000000020221001000002940NNE   20220817131300W4N64N0N  00000294000001109000001521532W4N6  HJYHK-J 005500360039
BI00B32W4    4500198710     202210277126-8853-02             TERMINAL                 CCN000300000000300000FN00000000020221001000300000NNE   20220817131300W4N64P0P  00000750000000562500000847732W4N6  HJYHK-J 006400630015
BI00B32W4    4500198710     202210277116-2893-02             TERMINAL                 CCN000072000000072000FN00000000020221001000072000NNE   20220817131300W4N64P0P  00001200000000895200001058632W4N6  HJYHK-J 005100280028
BI00B32W4    #4500198710    202210277174-1760-50             CAP                      CCN000006000000006000FN00000000020221001000006000NNE   20220817131300W4N62F0F  00000300000000813600000922632W4N6  HJYHK-J 005400370024
BI00B32W4    4500198718     202210047116-1180                TERMINAL                 CCN000058500000058500FN00000000020221001000058500NNE   20220817131300W41 1P0P  00001950000000618200000903432W41   HJYHK   006400630015
BI00A32W4    4500198719     202211037116-4231-02             TERMINAL                 CCN000026000000026000FN00000000020221101000026000NNE   20220817131300W4264P0P  00002600000000683800001012532W426  HJYHK   006400630017
BI00B32W4    4500198722     202210117116-1180                TERMINAL                 CCN000058500000058500FN00000000020221001000058500NNE   20220817131300W41 1P0P  00001950000000618200000903432W41   HJYHK   006400630015
BI00B32W4    4500198722     202210117017-1180-02             TERMINAL                 CCN000072000000072000FN00000000020221001000072000NNE   20220817131300W41 4P0P  00007200000001065600001229032W41   HJYHK   005100280028
BI00B32W4    4500198730     202210047158-3169-40             SEALING PLUG             CCN000400000000400000FN00000000020221001000400000NNE   20220817131300W41 1C0C  00004000000000156000000204132W41   HJYHK   004300260014
BI00B32W4    4500198730     202210047158-3166-60             WIRE SEAL                CCN000840000000840000FN00000000020221001000840000NNE   20220817131300W41 1C0C  00004000000000104000000152432W41   HJYHK   002700430014
BI00B32W4    #4500198730    202210047172-5938-80             SEALED                   CCN000100000000100000FN00000000020221001000100000NNE   20220817131300W41 2H0H  00000500000000442500000490732W41   HJYHK   004300270014
BI00B32W4    4500198732     202210047158-3169-40             SEALING PLUG             CCN000080000000080000FN00000000020221001000080000NNE   20220817131300W41 1C0C  00004000000000156000000204132W41   HJYHK   004300260014
BI00B32W4    4500198732     202210047158-3166-60             WIRE SEAL                CCN000120000000120000FN00000000020221001000120000NNE   20220817131300W41 1C0C  00004000000000104000000152432W41   HJYHK   002700430014
BI00B32W4    #4500198732    202210047172-5938-80             SEALED                   CCN000015000000015000FN00000000020221001000015000NNE   20220817131300W41 2H0H  00000500000000442500000490732W41   HJYHK   004300270014
BI00B32W4    4500198741     202210047017-1180-02             TERMINAL                 CCN000072000000072000FN00000000020221001000072000NNE   20220817131300W41 4P0P  00007200000001065600001229032W41   HJYHK   005100280028
BI00B32W4    4500198741     202210047017-1181-02             TERMINAL                 CCN000063000000063000FN00000000020221001000063000NNE   20220817131300W41 4P0P  00006300000001089900001266832W41   HJYHK   005100280028
BI00B32W4    4500198741     202210047283-8630                CONNECTOR ASS'Y          CCN000006000000006000FN00000000020221001000006000NNE   20220817131300W41 4N0N  00000600000000540000000701332W41   HJYHK   005400370024
BI00B32W4    4500198741     202210047114-1670-02             TERMINAL                 CCN000024000000024000FN00000000020221001000024000NNE   20220817131300W41 1P0P  00002400000000357600000645832W41   HJYHK   006400630015
BI00B32W4    4500198745     202210117283-8630                CONNECTOR ASS'Y          CCN000018000000018000FN00000000020221001000018000NNE   20220817131300W41 4N0N  00000600000000540000000701332W41   HJYHK   005400370024
BI00B32W4    4500198747     202210207116-4100-02             TERMINAL                 CCN000090000000090000FN00000000020221001000090000NNE   20220817131300W4164P0P  00001500000000696000000990232W416  HJYHK   006400630015
BI00B32W4    4500198747     202210207116-4121-02             TERMINAL                 CCN000013500000013500FN00000000020221001000013500NNE   20220817131300W4164P0P  00000450000000618800000912432W416  HJYHK   006400630015
BI00B32W4    4500198747     202210207116-4111-02             TERMINAL                 CCN000007500000007500FN00000000020221001000007500NNE   20220817131300W4164P0P  00000750000000529500000817732W416  HJYHK   006400630015
BI00B32W4    4500198747     202210207116-4112-02             TERMINAL                 CCN000030000000030000FN00000000020221001000030000NNE   20220817131300W4164P0P  00000600000000450000000738232W416  HJYHK   006400630015
BI00B32W4    4500198747     202210207116-4102-02             TERMINAL                 CCN000024000000024000FN00000000020221001000024000NNE   20220817131300W4164P0P  00001200000000553200000841432W416  HJYHK   006400630015
BI00B32W4    4500198747     202210207116-4025                TERMINAL                 CCN000016000000016000FN00000000020221001000016000NNE   20220817131300W4164P0P  00001600000000644800000975132W416  HJYHK   006400630017
BI00B32W4    4500198747     202210207283-7028-30             CONNECTOR                CCN000012000000012000FN00000000020221001000012000NNE   20220817131300W4164N0N  00000300000001452000001681332W416  HJYHK   005600390040
BI00B32W4    4500198747     202210207114-4100-02             TERMINAL                 CCN000036000000036000FN00000000020221001000036000NNE   20220817131300W4164P0P  00001800000000748800001077432W416  HJYHK   006400630017
BI00B32W4    4500198747     202210207283-5548-30             CONNECTOR                CCN000001500000001500FN00000000020221001000001500NNE   20220817131300W4164N0N  00000150000001109000001302032W416  HJYHK   005600390040
BI00B32W4    4500198747     202210207158-3166-60             WIRE SEAL                CCN000080000000080000FN00000000020221001000080000NNE   20220817131300W4161C0C  00004000000000104000000152432W416  HJYHK   002700430014
BI00B32W4    4500198747     202210207126-8853-02             TERMINAL                 CCN000007500000007500FN00000000020221001000007500NNE   20220817131300W4164P0P  00000750000000562500000847732W416  HJYHK   006400630015
BI00B32W4    4500198747     202210207126-8854-02             TERMINAL                 CCN000007500000007500FN00000000020221001000007500NNE   20220817131300W4164P0P  00000750000000604500000889732W416  HJYHK   006400630015
BI00B32W4    4500198747     202210207158-3169-40             SEALING PLUG             CCN000080000000080000FN00000000020221001000080000NNE   20220817131300W4161C0C  00004000000000156000000204132W416  HJYHK   004300260014
BI00B32W4    4500198747     202210207116-4101-02             TERMINAL                 CCN000036000000036000FN00000000020221001000036000NNE   20220817131300W4164P0P  00001200000000582000000876232W416  HJYHK   006400630015
BI00B32W4    4500198747     202210207116-4120-02             TERMINAL                 CCN000006000000006000FN00000000020221001000006000NNE   20220817131300W4164P0P  00000600000000780000001073632W416  HJYHK   006400630015
BI00B32W4    4500198747     202210207114-4101-02             TERMINAL                 CCN000015000000015000FN00000000020221001000015000NNE   20220817131300W4164P0P  00001500000000675000001003632W416  HJYHK   006400630017
BI00B32W4    4500198747     202210207116-4104-02             TERMINAL                 CCN000012000000012000FN00000000020221001000012000NNE   20220817131300W4164P0P  00001200000000580800000972432W416  HJYHK   006400630015
BI00B32W4    4500198747     202210207114-4110-02             TERMINAL                 CCN000015000000015000FN00000000020221001000015000NNE   20220817131300W4164P0P  00001500000000901500001230132W416  HJYHK   006400630017
BI00B32W4    4500198747     202210207116-4110-02             TERMINAL                 CCN000018000000018000FN00000000020221001000018000NNE   20220817131300W4164P0P  00000900000000594000000882232W416  HJYHK   006400630015
BI00B32W4    4500198747     202210207116-4103-02             TERMINAL                 CCN000012000000012000FN00000000020221001000012000NNE   20220817131300W4164P0P  00001200000000571200000859432W416  HJYHK   006400630015
BI00B32W4    4500198747     202210207283-1020                CONNECTOR                CCN000036000000036000FN00000000020221001000036000NNE   20220817131300W4164N0N  00000600000000840000001049332W416  HJYHK   005600390040
BI00B32W4    4500198747     202210207283-1024                CONNECTOR SUB ASSY       CCN000012000000012000FN00000000020221001000012000NNE   20220817131300W4164N0N  00000200000000400000000522532W416  HJYHK   005400370024
BI00B32W4    4500198747     202210207282-1024                HOUSING MALE             CCN000010000000010000FN00000000020221001000010000NNE   20220817131300W4161N0N  00000100000000458000000580532W416  HJYHK   005400370024
BI00B32W4    4500198747     202210207283-1030                CONNECTOR                CCN000012000000012000FN00000000020221001000012000NNE   20220817131300W4164N0N  00000600000000988000001172032W416  HJYHK   005500360039
BI00B32W4    4500198747     202210207288-6547                CONNECTOR MALE ASS'Y     CCN000017250000017250FN00000000020221001000017250NNE   20220817131300W4164N0N  00000075000001205300001340332W416  HJYHK   005400370024
BI00B32W4    4500198747     202210207289-6547                HOUSING FEMALE ASS'Y     CCN000014400000014400FN00000000020221001000014400NNE   20220817131300W4161N0N  00000240000001152000001362032W416  HJYHK   005500360039
BI00B32W4    4500198747     202210207283-1156                CONNECTOR                CCN000011200000011200FN00000000020221001000011200NNE   20220817131300W4164N0N  00000080000000877600001078032W416  HJYHK   005600390040
BI00B32W4    4500198747     202210207114-4032                TERMINAL                 CCN000015000000015000FN00000000020221001000015000NNE   20220817131300W4164P0P  00000750000000735000001063632W416  HJYHK   006400630017
BI00B32W4    #4500198747    202210207282-4190-30             CONNECTOR                CCN000001920000001920FN00000000020221001000001920NNE   20220817131300W4162N0N  00000024000000801000001071332W416  HJYHK   005600390040
BI00B32W4    #4500198747    202210207283-4190-30             CONNECTOR                CCN000001680000001680FN00000000020221001000001680NNE   20220817131300W4162N0N  00000024000000846000001115532W416  HJYHK   005600390040
BI00B32W4    #4500198747    202210207187-1616                HOUSING FEMALE           CCN000008000000008000FN00000000020221001000008000NNE   20220817131300W4162F0F  00000400000001152000001262032W416  HJYHK   005500360039
BI00B32W4    @4500198747    202210207183-8049                CONNECTOR HOUSING        CCN000012000000012000FN00000000020221001000012000NNE   20220817131300W4163F0F  00000400000000583600000740032W416  HJYHK   005400370024
BI00B32W4    @4500198747    202210207287-6634                HOUSING FEMALE ASS'Y     CCN000004800000004800FN00000000020221001000004800NNE   20220817131300W4163N0N  00000240000001088400001337032W416  HJYHK   005500360039
BI00B32W4    4500198754     202210047017-1180-02             TERMINAL                 CCN000072000000072000FN00000000020221001000072000NNE   20220817131300W41 4P0P  00007200000001065600001229032W41   HJYHK   005100280028
BI00B32W4    #4500198772    202211037147-3642-30             CLIP                     CCN000090000000090000FN00000000020221101000090000NNE   20220817131300W4172F0F  00000300000000542000000721332W417  HJYHK   005600390040
BI00B32W4    4500198773     202210207116-4103-02             TERMINAL                 CCN000012000000012000FN00000000020221001000012000NNE   20220817131300W4174P0P  00001200000000571200000859432W417  HJYHK   006400630015
BI00B32W4    4500198773     202210207283-5843                CONNECTOR                CCN000003000000003000FN00000000020221001000003000NNE   20220817131300W4171N0N  00000150000000889000001132032W417  HJYHK   005600390040
BI00B32W4    4500198773     202210207114-6041                TERMINAL                 CCN000003600000003600FN00000000020221001000003600NNE   20220817131300W4174P0P  00000360000000580700000824232W417  HJYHK   006400630015
BI00B32W4    #4500198773    202210207183-8927                HOUSING                  CCN000004000000004000FN00000000020221001000004000NNE   20220817131300W4172F0F  00000400000000714000000912732W417  HJYHK   005500360039
BI00B32W4    #4500198773    202210207282-3020                CONNECTOR                CCN000004000000004000FN00000000020221001000004000NNE   20220817131300W4172N0N  00000100000000984000001145432W417  HJYHK   005500360039
BI00A32W4    4500198777     202210207116-4110-02             TERMINAL                 CCN000018000000018000FN00000000020221001000018000NNE   20220817131300W4144P0P  00000900000000594000000882232W414  HJYHK   006400630015
BI00B32Y2    TAU1243        202209017196-0510-02             TERMINAL                 CCN000024000000024000FN00000000020230101000024000NNE   20220817131300    4P0P  00002400000000871200001034632Y2    YUYUY   002800510028
BI00B32Y2    TAU1243        202209017288-3206                HOUSING MALE ASS'Y       CCN000004080000004080FN00000000020230101000004080NNE   20220817131300    1N0N  00000102000000387600000787632Y2    YUYUY   005500360039
BI00B32Y2    TAU1243        202209017288-3331-30             HOUSING MALE             CCN000018000000018000FN00000000020230101000018000NNE   20220817131300    4N0N  00000150000000866000001010932Y2    YUYUY   005400370024
BI00B32Y2    #TAU1243       202209017289-2918-40             HOUSING FEMALE ASS'Y     CCN000001000000001000FN00000000020230101000001000NNE   20220817131300    2N0N  00000100000001020000001147032Y2    YUYUY   005400370024
BI00B32CC    CTA32121       202209227289-6868-30             SEALED ASSY FEMALE       CCN000040320000020160FN00000000020220801000020160NNED0420220817131300    4N0N  00000252000000839200001119232CC    BIYABCBU005500360039
BI00B32CC    CTA32121       202210067289-6868-30             SEALED ASSY FEMALE       CCN000020160000020160FN00000000020220801000020160NNED0420220817131300    4N0N  00000252000000839200001119232CC    BIYABCBU005500360039
BI00B32CG    S220636-G      202208247116-4025                TERMINAL                 CCN000016000000016000FN00000000020220901000016000NNED0020220817131300    4P0P  00001600000000644800000975132CG    ASASIACO006400630017
BI00B32CG    S220636-S      202208247116-4121-02             TERMINAL                 CCN000027000000027000FN00000000020220901000027000NNED0020220817131300    4P0P  00000450000000618800000912432CG    ASASIACO006400630015
BI00B32CG    S220636-S      202208247116-4111-02             TERMINAL                 CCN000015000000015000FN00000000020220901000015000NNED0020220817131300    4P0P  00000750000000529500000817732CG    ASASIACO006400630015
BI00B32CG    S220636-S      202208247114-4111-02             TERMINAL                 CCN000012000000012000FN00000000020220901000012000NNED0020220817131300    4P0P  00001200000000758400001087032CG    ASASIACO006400630017
BI00B32CG    S220806        202211167283-9457-3W             CONNECTOR                CCN000000480000000480FN00000000020221101000000480NNE   20220817131300    4N0N  00000012000000515000001067032CG    ASASIACO005600390023
BI00B32CG    S220806        202211167283-9458-30             CONNECTOR                CCN000000400000000400FN00000000020221101000000400NNE   20220817131300    4N0N  00000020000000792000000984332CG    ASASIACO005600390023
BI00B32CG    S220806        202211167116-4121-02             TERMINAL                 CCN000009000000009000FN00000000020221101000009000NNE   20220817131300    4P0P  00000450000000618800000912432CG    ASASIACO006400630015
BI00A32DJ    GHT2210B 1     202208197116-4037                TERMINAL                 CCN000096000000096000FN00000000020221001000096000NNMM0020220817143817    4P0P  00000600000000600000000894232DJ    RBYIPLRB006400630015
BI00A32DJ    GHT2210B 2     202208197116-4037                TERMINAL                 CCN000036000000036000FN00000000020221001000036000NNMM0020220817143817    4P0P  00000600000000600000000894232DJ    RBYIPLRB006400630015
BI00B32DJ    GHT2210B 1     202209017116-5750-02             TERMINAL                 CCN000180000000030000FN00000000020221001000030000NNMQ0020220817131300    4P0P  00001500000000457500000742732DJ    RBYIPLRB006400630015
BI00A32DJ    GHT2210B 1     202208197158-3006-90             RUBBER STOPPER           CCN000060000000060000FN00000000020221001000060000NNMQ0020220817143817    1C0C  00002000000000330600000386032DJ    RBYIPLRB002700430014
BI00A32DJ    GHT2210B 2     202208197158-3006-90             RUBBER STOPPER           CCN000140000000140000FN00000000020221001000140000NNMM0020220817143817    1C0C  00002000000000330600000386032DJ    RBYIPLRB002700430014
BI00B32DJ    GHT2210B 1     202209017116-1685-02             TERMINAL                 CCN000648000000168000FN00000000020221001000168000NNMQ0020220817131300    4P0P  00002400000000897600001065232DJ    RBYIPLRB005100280028
BI00A32DJ    GHT2210B 1     202208197116-3153-02             TERMINAL FEMALE          CCN000783000000513000FN00000000020221001000513000NNMM0020220817143817    4P0P  00002700000000459000000744232DJ    RBYIPLRB006400630015
BI00A32DJ    #GHT2210B 1    202208197189-3031-30             HOUSING FEMALE           CCN000002400000002400FN00000000020221001000002400NNMM0020220817131300    2F0F  00000240000000928800001365832DJ    RBYIPLRB005500360039
BI00A32DJ    #GHT2210B 2    202208197189-3031-30             HOUSING FEMALE           CCN000002400000002400FN00000000020221001000002400NNMM0020220817131300    2F0F  00000240000000928800001365832DJ    RBYIPLRB005500360039
BI00A32DJ    #GHT2210B 1    202208197189-3037                HOUSING FEMALE           CCN000019200000019200FN00000000020221001000019200NNMM0020220817131300    2F0F  00000480000000806400001066432DJ    RBYIPLRB005500360039
BI00A32DJ    #GHT2210B 2    202208197189-3037                HOUSING FEMALE           CCN000004800000004800FN00000000020221001000004800NNMM0020220817131300    2F0F  00000480000000806400001066432DJ    RBYIPLRB005500360039
BI00A32DJ    #GHT2210B 1    202208197183-2414                CONNECTOR HOUSING        CCN000009600000009600FN00000000020221001000009600NNMM0020220817131300    2F0F  00000480000000779200001061032DJ    RBYIPLRB005500360039
BI00A32DJ    #GHT2210B 2    202208197183-2414                CONNECTOR HOUSING        CCN000004800000004800FN00000000020221001000004800NNMM0020220817131300    2F0F  00000480000000779200001061032DJ    RBYIPLRB005500360039
BI00A32DJ    #GHT2210C 1    202208197116-4021                TERMINAL                 CCN000027000000027000FN00000000020221001000027000NNMM0020220817131300    2F0P  00001350000000534600000868832DJ    RBYIPLRB006400630015
BI00A32DJ    #GHT2210C 2    202208197116-4021                TERMINAL                 CCN000027000000027000FN00000000020221001000027000NNMM0020220817131300    2F0P  00001350000000534600000868832DJ    RBYIPLRB006400630015
BI00A32DJ    GHT2210B 1     202208197116-1685-02             TERMINAL                 CCN000480000000480000FN00000000020221001000480000NNMM0020220817143817    4P0P  00002400000000897600001065232DJ    RBYIPLRB005100280028
BI00A32DJ    GHT2210B 1     202208197116-5750-02             TERMINAL                 CCN000150000000150000FN00000000020221001000150000NNMM0020220817143817    4P0P  00001500000000457500000742732DJ    RBYIPLRB006400630015
BI00A32DJ    GHT2210H       202208197116-4022                TERMINAL                 CCN000013500000013500FN00000000020221001000013500NNE   20220817134248    4P0P  00001350000000618300000903532DJ    RBYIPLRB006400630015
BI00B32D9    I2390A         202209087116-4100-02             TERMINAL                 CCN000030000000030000FN00000000020221001000030000NNE   20220817150336    4P0P  00001500000000696000000990232D9    UEHESTO 006400630015
BI00B32D9    I2400A         202209157116-4100-02             TERMINAL                 CCN000030000000030000FN00000000020221001000030000NNE   20220817150401    4P0P  00001500000000696000000990232D9    UEHESTO 006400630015
BI00B32D9    I2411A         202209227116-4100-02             TERMINAL                 CCN000030000000030000FN00000000020221001000030000NNE   20220817150424    4P0P  00001500000000696000000990232D9    UEHESTO 006400630015
BI00B32D9    I2421A         202209297116-4100-02             TERMINAL                 CCN000030000000030000FN00000000020221001000030000NNE   20220817150442    4P0P  00001500000000696000000990232D9    UEHESTO 006400630015
BI00B32G2    SA22094HMW     202208317298-1853-10             HOUSING FEMALE ASS'Y     CCN000001200000000000FY00000000020220901000000000NNMQ0820220817100456    4N00  00000390000001240500001405832G2    AISUAI  005400370024
BI00B32G2    SA22101HMW     202209077298-1853-10             HOUSING FEMALE ASS'Y     CCN000001700000000000FY00000000020221001000000000NNMQ0820220817100513    4N00  00000390000001240500001405832G2    AISUAI  005400370024
BI00B32G2    SA22102HMW     202209147298-1853-10             HOUSING FEMALE ASS'Y     CCN000001300000000000FY00000000020221001000000000NNMQ0820220817100527    4N00  00000390000001240500001405832G2    AISUAI  005400370024
BI00B32G2    SA22103HMW     202209217298-1853-10             HOUSING FEMALE ASS'Y     CCN000001100000000000FY00000000020221001000000000NNMQ0820220817100543    4N00  00000390000001240500001405832G2    AISUAI  005400370024
BI00B32G2    SA22104HMW     202209287298-1853-10             HOUSING FEMALE ASS'Y     CCN000000900000000000FY00000000020221001000000000NNMM0020220817100619    4N00  00000390000001240500001405832G2    AISUAI  005400370024
BI00B32H2    TIJ2094        202209027470-5654                J/B COMPLETE ASS'Y       CCN000000200000000000FY00000000020220901000000000NNMQ0820220817103841    4J0J  00000001000000494000000661032H2    HVYHV   005400370024
BI00B32H2    TIJ2104        202209307273-2982-0W             CASSETTE BRACKET         CCN000000600000000000FY00000000020221001000000000NNMQ0820220817102441    4N0N  00000060000000526000000726032H2    HVYHV   005500360039
BI00B32H2    TIJ2104        202209307470-5304                J/B COMPLETE ASS'Y       CCN000000650000000000FY00000000020221001000000000NNMQ0820220817103756    4J0J  00000001000000494000000661032H2    HVYHV   005400370024
BI00B32H2    TIJ2102        202209167470-5651                J/B COMPLETE ASS'Y       CCN000000050000000020FN00000000020221001000000020NNMQ0820220817131300    4J0J  00000001000000494000000661032H2    HVYHV   005400370024
BI00B32H2    TIJ2103        202209237470-5654                J/B COMPLETE ASS'Y       CCN000000030000000000FY00000000020221001000000000NNMQ0820220817103900    4J0J  00000001000000494000000661032H2    HVYHV   005400370024
BI00B32H2    TIJ2105        202210077470-5654                J/B COMPLETE ASS'Y       CCN000000020000000000FY00000000020221001000000000NNMQ0820220817103920    4J0J  00000001000000494000000661032H2    HVYHV   005400370024
BI00B32H2    #TIJ2103       202209237154-5597-30             CASSETTE R/B             CCN000003200000000000FY00000000020221001000000000NNMQ0820220817142520    2F0F  00000080000000736000000952032H2    HVYHV   005500360039
BI00B32H2    #TIJ2105       202210077154-5597-30             CASSETTE R/B             CCN000001600000000800FN00000000020221001000000800NNMQ0820220817142540    2F0F  00000080000000736000000952032H2    HVYHV   005500360039
BI00B32Q8    EU22102 MW     202208187114-4020                TERMINAL                 CCN000042000000042000FN00000000020221001000042000NNMD0020220817131749    4P0P  00002100000000875700001169332Q8    EMEMI   006400630015
BI00B32Q8    EU22104 MW     202208187114-4020                TERMINAL                 CCN000042000000042000FN00000000020221001000042000NNMD0020220817131749    4P0P  00002100000000875700001169332Q8    EMEMI   006400630015
BI00B32R7    R-TAP220345    202209017116-4025                TERMINAL                 CCN000224000000224000FN00000000020220901000224000NNE   20220817131300    4P0P  00001600000000644800000975132R7    IVYCIC  006400630017
BI00B32R7    R-TAP220345    202209017158-3006-90             RUBBER STOPPER           CCN000020000000020000FN00000000020220901000020000NNE   20220817131300    1C0C  00002000000000330600000386032R7    IVYCIC  002700430014
BI00B32R7    R-TAP220345    202209017158-3169-40             SEALING PLUG             CCN000520000000520000FN00000000020220901000520000NNE   20220817131300    1C0C  00004000000000156000000204132R7    IVYCIC  004300260014
BI00A32W4    4500196021     202208247116-4102-02             TERMINAL                 CCN000048000000048000FN00000000020220801000048000NNED0020220817131300W4O24P0P  00001200000000553200000841432W4O2  HJYHK-J 006400630015
BI00A32W4    4500196021     202208247116-4103-02             TERMINAL                 CCN000024000000024000FN00000000020220801000024000NNED0020220817131300W4O24P0P  00001200000000571200000859432W4O2  HJYHK-J 006400630015
BI00A32W4    4500196421     202208247116-4102-02             TERMINAL                 CCN000060000000060000FN00000000020220901000060000NNED0020220817131300W4O24P0P  00001200000000553200000841432W4O2  HJYHK-J 006400630015
BI00A32W4    4500196421     202208247116-4103-02             TERMINAL                 CCN000024000000024000FN00000000020220901000024000NNED0020220817131300W4O24P0P  00001200000000571200000859432W4O2  HJYHK-J 006400630015
BI00A32W4    4500196409     202209127116-4025                TERMINAL                 CCN000016000000000000FY00000000020220901000000000NNEQ0820220817101533W4494P0P  00001600000000644800000975132W449  HJYHK   006400630017
BI00A32W4    4500196723     202208247116-4102-02             TERMINAL                 CCN000036000000036000FN00000000020220901000036000NNED0020220817131300W4O24P0P  00001200000000553200000841432W4O2  HJYHK-J 006400630015
BI00A32W4    4500196723     202208247116-4103-02             TERMINAL                 CCN000024000000024000FN00000000020220901000024000NNED0020220817131300W4O24P0P  00001200000000571200000859432W4O2  HJYHK-J 006400630015
BI00A32W4    4500197123     202208247116-4102-02             TERMINAL                 CCN000744000000744000FN00000000020220901000744000NNED0020220817131300W4O24P0P  00001200000000553200000841432W4O2  HJYHK-J 006400630015
BI00A32W4    4500197123     202208247116-4103-02             TERMINAL                 CCN000252000000252000FN00000000020220901000252000NNED0020220817131300W4O24P0P  00001200000000571200000859432W4O2  HJYHK-J 006400630015
BI00A32W4    4500197177     202209087116-4110-02             TERMINAL                 CCN000009000000009000FN00000000020220901000009000NNEM0020220817152159W4N24P0P  00000900000000594000000882232W4N2  HJYHK-J 006400630015
BI00A32W4    4500197594     202209157116-4110-02             TERMINAL                 CCN000018000000018000FN00000000020220901000018000NNEM0020220817152213W4N24P0P  00000900000000594000000882232W4N2  HJYHK-J 006400630015
BI00B32W4    4500198710     202210277158-3167-80             WIRE SEAL                CCN000320000000320000FN00000000020221001000320000NNE   20220817131300W4N61C0C  00002000000000048000000109032W4N6  HJYHK-J 002700430014
BI00B32W4    4500198710     202210277289-9553-50             SEALED ASSY FEMALE       CCN000005880000005880FN00000000020221001000005880NNE   20220817131300W4N64N0N  00000294000001108100001520632W4N6  HJYHK-J 005500360039
BI00B32W4    4500198710     202210277289-9553-30             SEALED ASSY FEMALE       CCN000002940000002940FN00000000020221001000002940NNE   20220817131300W4N64N0N  00000294000001109000001521532W4N6  HJYHK-J 005500360039
BI00B32W4    4500198710     202210277126-8853-02             TERMINAL                 CCN000300000000300000FN00000000020221001000300000NNE   20220817131300W4N64P0P  00000750000000562500000847732W4N6  HJYHK-J 006400630015
BI00B32W4    4500198710     202210277116-2893-02             TERMINAL                 CCN000072000000072000FN00000000020221001000072000NNE   20220817131300W4N64P0P  00001200000000895200001058632W4N6  HJYHK-J 005100280028
BI00B32W4    #4500198710    202210277174-1760-50             CAP                      CCN000006000000006000FN00000000020221001000006000NNE   20220817131300W4N62F0F  00000300000000813600000922632W4N6  HJYHK-J 005400370024
BI00B32W4    4500198718     202210047116-1180                TERMINAL                 CCN000058500000058500FN00000000020221001000058500NNE   20220817131300W41 1P0P  00001950000000618200000903432W41   HJYHK   006400630015
BI00A32W4    4500198719     202211037116-4231-02             TERMINAL                 CCN000026000000026000FN00000000020221101000026000NNE   20220817131300W4264P0P  00002600000000683800001012532W426  HJYHK   006400630017
BI00B32W4    4500198722     202210117116-1180                TERMINAL                 CCN000058500000058500FN00000000020221001000058500NNE   20220817131300W41 1P0P  00001950000000618200000903432W41   HJYHK   006400630015
BI00B32W4    4500198722     202210117017-1180-02             TERMINAL                 CCN000072000000072000FN00000000020221001000072000NNE   20220817131300W41 4P0P  00007200000001065600001229032W41   HJYHK   005100280028
BI00B32W4    4500198730     202210047158-3169-40             SEALING PLUG             CCN000400000000400000FN00000000020221001000400000NNE   20220817131300W41 1C0C  00004000000000156000000204132W41   HJYHK   004300260014
BI00B32W4    4500198730     202210047158-3166-60             WIRE SEAL                CCN000840000000840000FN00000000020221001000840000NNE   20220817131300W41 1C0C  00004000000000104000000152432W41   HJYHK   002700430014
BI00B32W4    #4500198730    202210047172-5938-80             SEALED                   CCN000100000000100000FN00000000020221001000100000NNE   20220817131300W41 2H0H  00000500000000442500000490732W41   HJYHK   004300270014
BI00B32W4    4500198732     202210047158-3169-40             SEALING PLUG             CCN000080000000080000FN00000000020221001000080000NNE   20220817131300W41 1C0C  00004000000000156000000204132W41   HJYHK   004300260014
BI00B32W4    4500198732     202210047158-3166-60             WIRE SEAL                CCN000120000000120000FN00000000020221001000120000NNE   20220817131300W41 1C0C  00004000000000104000000152432W41   HJYHK   002700430014
BI00B32W4    #4500198732    202210047172-5938-80             SEALED                   CCN000015000000015000FN00000000020221001000015000NNE   20220817131300W41 2H0H  00000500000000442500000490732W41   HJYHK   004300270014
BI00B32W4    4500198741     202210047017-1180-02             TERMINAL                 CCN000072000000072000FN00000000020221001000072000NNE   20220817131300W41 4P0P  00007200000001065600001229032W41   HJYHK   005100280028
BI00B32W4    4500198741     202210047017-1181-02             TERMINAL                 CCN000063000000063000FN00000000020221001000063000NNE   20220817131300W41 4P0P  00006300000001089900001266832W41   HJYHK   005100280028
BI00B32W4    4500198741     202210047283-8630                CONNECTOR ASS'Y          CCN000006000000006000FN00000000020221001000006000NNE   20220817131300W41 4N0N  00000600000000540000000701332W41   HJYHK   005400370024
BI00B32W4    4500198741     202210047114-1670-02             TERMINAL                 CCN000024000000024000FN00000000020221001000024000NNE   20220817131300W41 1P0P  00002400000000357600000645832W41   HJYHK   006400630015
BI00B32W4    4500198745     202210117283-8630                CONNECTOR ASS'Y          CCN000018000000018000FN00000000020221001000018000NNE   20220817131300W41 4N0N  00000600000000540000000701332W41   HJYHK   005400370024
BI00B32W4    4500198747     202210207116-4100-02             TERMINAL                 CCN000090000000090000FN00000000020221001000090000NNE   20220817131300W4164P0P  00001500000000696000000990232W416  HJYHK   006400630015
BI00B32W4    4500198747     202210207116-4121-02             TERMINAL                 CCN000013500000013500FN00000000020221001000013500NNE   20220817131300W4164P0P  00000450000000618800000912432W416  HJYHK   006400630015
BI00B32W4    4500198747     202210207116-4111-02             TERMINAL                 CCN000007500000007500FN00000000020221001000007500NNE   20220817131300W4164P0P  00000750000000529500000817732W416  HJYHK   006400630015
BI00B32W4    4500198747     202210207116-4112-02             TERMINAL                 CCN000030000000030000FN00000000020221001000030000NNE   20220817131300W4164P0P  00000600000000450000000738232W416  HJYHK   006400630015
BI00B32W4    4500198747     202210207116-4102-02             TERMINAL                 CCN000024000000024000FN00000000020221001000024000NNE   20220817131300W4164P0P  00001200000000553200000841432W416  HJYHK   006400630015
BI00B32W4    4500198747     202210207116-4025                TERMINAL                 CCN000016000000016000FN00000000020221001000016000NNE   20220817131300W4164P0P  00001600000000644800000975132W416  HJYHK   006400630017
BI00B32W4    4500198747     202210207283-7028-30             CONNECTOR                CCN000012000000012000FN00000000020221001000012000NNE   20220817131300W4164N0N  00000300000001452000001681332W416  HJYHK   005600390040
BI00B32W4    4500198747     202210207114-4100-02             TERMINAL                 CCN000036000000036000FN00000000020221001000036000NNE   20220817131300W4164P0P  00001800000000748800001077432W416  HJYHK   006400630017
BI00B32W4    4500198747     202210207283-5548-30             CONNECTOR                CCN000001500000001500FN00000000020221001000001500NNE   20220817131300W4164N0N  00000150000001109000001302032W416  HJYHK   005600390040
BI00B32W4    4500198747     202210207158-3166-60             WIRE SEAL                CCN000080000000080000FN00000000020221001000080000NNE   20220817131300W4161C0C  00004000000000104000000152432W416  HJYHK   002700430014
BI00B32W4    4500198747     202210207126-8853-02             TERMINAL                 CCN000007500000007500FN00000000020221001000007500NNE   20220817131300W4164P0P  00000750000000562500000847732W416  HJYHK   006400630015
BI00B32W4    4500198747     202210207126-8854-02             TERMINAL                 CCN000007500000007500FN00000000020221001000007500NNE   20220817131300W4164P0P  00000750000000604500000889732W416  HJYHK   006400630015
BI00B32W4    4500198747     202210207158-3169-40             SEALING PLUG             CCN000080000000080000FN00000000020221001000080000NNE   20220817131300W4161C0C  00004000000000156000000204132W416  HJYHK   004300260014
BI00B32W4    4500198747     202210207116-4101-02             TERMINAL                 CCN000036000000036000FN00000000020221001000036000NNE   20220817131300W4164P0P  00001200000000582000000876232W416  HJYHK   006400630015
BI00B32W4    4500198747     202210207116-4120-02             TERMINAL                 CCN000006000000006000FN00000000020221001000006000NNE   20220817131300W4164P0P  00000600000000780000001073632W416  HJYHK   006400630015
BI00B32W4    4500198747     202210207114-4101-02             TERMINAL                 CCN000015000000015000FN00000000020221001000015000NNE   20220817131300W4164P0P  00001500000000675000001003632W416  HJYHK   006400630017
BI00B32W4    4500198747     202210207116-4104-02             TERMINAL                 CCN000012000000012000FN00000000020221001000012000NNE   20220817131300W4164P0P  00001200000000580800000972432W416  HJYHK   006400630015
BI00B32W4    4500198747     202210207114-4110-02             TERMINAL                 CCN000015000000015000FN00000000020221001000015000NNE   20220817131300W4164P0P  00001500000000901500001230132W416  HJYHK   006400630017
BI00B32W4    4500198747     202210207116-4110-02             TERMINAL                 CCN000018000000018000FN00000000020221001000018000NNE   20220817131300W4164P0P  00000900000000594000000882232W416  HJYHK   006400630015
BI00B32W4    4500198747     202210207116-4103-02             TERMINAL                 CCN000012000000012000FN00000000020221001000012000NNE   20220817131300W4164P0P  00001200000000571200000859432W416  HJYHK   006400630015
BI00B32W4    4500198747     202210207283-1020                CONNECTOR                CCN000036000000036000FN00000000020221001000036000NNE   20220817131300W4164N0N  00000600000000840000001049332W416  HJYHK   005600390040
BI00B32W4    4500198747     202210207283-1024                CONNECTOR SUB ASSY       CCN000012000000012000FN00000000020221001000012000NNE   20220817131300W4164N0N  00000200000000400000000522532W416  HJYHK   005400370024
BI00B32W4    4500198747     202210207282-1024                HOUSING MALE             CCN000010000000010000FN00000000020221001000010000NNE   20220817131300W4161N0N  00000100000000458000000580532W416  HJYHK   005400370024
BI00B32W4    4500198747     202210207283-1030                CONNECTOR                CCN000012000000012000FN00000000020221001000012000NNE   20220817131300W4164N0N  00000600000000988000001172032W416  HJYHK   005500360039
BI00B32W4    4500198747     202210207288-6547                CONNECTOR MALE ASS'Y     CCN000017250000017250FN00000000020221001000017250NNE   20220817131300W4164N0N  00000075000001205300001340332W416  HJYHK   005400370024
BI00B32W4    4500198747     202210207289-6547                HOUSING FEMALE ASS'Y     CCN000014400000014400FN00000000020221001000014400NNE   20220817131300W4161N0N  00000240000001152000001362032W416  HJYHK   005500360039
BI00B32W4    4500198747     202210207283-1156                CONNECTOR                CCN000011200000011200FN00000000020221001000011200NNE   20220817131300W4164N0N  00000080000000877600001078032W416  HJYHK   005600390040
BI00B32W4    4500198747     202210207114-4032                TERMINAL                 CCN000015000000015000FN00000000020221001000015000NNE   20220817131300W4164P0P  00000750000000735000001063632W416  HJYHK   006400630017
BI00B32W4    #4500198747    202210207282-4190-30             CONNECTOR                CCN000001920000001920FN00000000020221001000001920NNE   20220817131300W4162N0N  00000024000000801000001071332W416  HJYHK   005600390040
BI00B32W4    #4500198747    202210207283-4190-30             CONNECTOR                CCN000001680000001680FN00000000020221001000001680NNE   20220817131300W4162N0N  00000024000000846000001115532W416  HJYHK   005600390040
BI00B32W4    #4500198747    202210207187-1616                HOUSING FEMALE           CCN000008000000008000FN00000000020221001000008000NNE   20220817131300W4162F0F  00000400000001152000001262032W416  HJYHK   005500360039
BI00B32W4    @4500198747    202210207183-8049                CONNECTOR HOUSING        CCN000012000000012000FN00000000020221001000012000NNE   20220817131300W4163F0F  00000400000000583600000740032W416  HJYHK   005400370024
BI00B32W4    @4500198747    202210207287-6634                HOUSING FEMALE ASS'Y     CCN000004800000004800FN00000000020221001000004800NNE   20220817131300W4163N0N  00000240000001088400001337032W416  HJYHK   005500360039
BI00B32W4    4500198754     202210047017-1180-02             TERMINAL                 CCN000072000000072000FN00000000020221001000072000NNE   20220817131300W41 4P0P  00007200000001065600001229032W41   HJYHK   005100280028
BI00B32W4    #4500198772    202211037147-3642-30             CLIP                     CCN000090000000090000FN00000000020221101000090000NNE   20220817131300W4172F0F  00000300000000542000000721332W417  HJYHK   005600390040
BI00B32W4    4500198773     202210207116-4103-02             TERMINAL                 CCN000012000000012000FN00000000020221001000012000NNE   20220817131300W4174P0P  00001200000000571200000859432W417  HJYHK   006400630015
BI00B32W4    4500198773     202210207283-5843                CONNECTOR                CCN000003000000003000FN00000000020221001000003000NNE   20220817131300W4171N0N  00000150000000889000001132032W417  HJYHK   005600390040
BI00B32W4    4500198773     202210207114-6041                TERMINAL                 CCN000003600000003600FN00000000020221001000003600NNE   20220817131300W4174P0P  00000360000000580700000824232W417  HJYHK   006400630015
BI00B32W4    #4500198773    202210207183-8927                HOUSING                  CCN000004000000004000FN00000000020221001000004000NNE   20220817131300W4172F0F  00000400000000714000000912732W417  HJYHK   005500360039
BI00B32W4    #4500198773    202210207282-3020                CONNECTOR                CCN000004000000004000FN00000000020221001000004000NNE   20220817131300W4172N0N  00000100000000984000001145432W417  HJYHK   005500360039
BI00A32W4    4500198777     202210207116-4110-02             TERMINAL                 CCN000018000000018000FN00000000020221001000018000NNE   20220817131300W4144P0P  00000900000000594000000882232W414  HJYHK   006400630015
BI00B32Y2    TAU1243        202209017196-0510-02             TERMINAL                 CCN000024000000024000FN00000000020230101000024000NNE   20220817131300    4P0P  00002400000000871200001034632Y2    YUYUY   002800510028
BI00B32Y2    TAU1243        202209017288-3206                HOUSING MALE ASS'Y       CCN000004080000004080FN00000000020230101000004080NNE   20220817131300    1N0N  00000102000000387600000787632Y2    YUYUY   005500360039
BI00B32Y2    TAU1243        202209017288-3331-30             HOUSING MALE             CCN000018000000018000FN00000000020230101000018000NNE   20220817131300    4N0N  00000150000000866000001010932Y2    YUYUY   005400370024
BI00B32Y2    #TAU1243       202209017289-2918-40             HOUSING FEMALE ASS'Y     CCN000001000000001000FN00000000020230101000001000NNE   20220817131300    2N0N  00000100000001020000001147032Y2    YUYUY   005400370024
