BI00B32CH    SJ22101 MW     2022090118007703930              AVSS 0.5F B              CCN000007500000007500FN00000000020221001000007500NNM   20220809153145    1W    00000150000000674000000000032CH    SJSAMIJF000000000000QX328001
BI00B32CH    SJ22102 MW     2022090818007703930              AVSS 0.5F B              CCN000013500000013500FN00000000020221001000013500NNM   20220809153145    1W    00000150000000674000000000032CH    SJSAMIJF000000000000QX428002
BI00B32CH    SJ22103 MW     2022091518007703930              AVSS 0.5F B              CCN000015000000015000FN00000000020221001000015000NNM   20220809153145    1W    00000150000000674000000000032CH    SJSAMIJF000000000000QX528005
BI00B32CH    SJ22104 MW     2022092218007703930              AVSS 0.5F B              CCN000016500000016500FN00000000020221001000016500NNM   20220809153145    1W    00000150000000674000000000032CH    SJSAMIJF000000000000QX129006
BI00B32CH    SJ22104 MW     2022092218007703941              AVSS 0.5F GY             CCN000001500000001500FN00000000020221001000001500NNM   20220809153145    1W    00000150000000674000000000032CH    SJSAMIJF000000000000QX129007
BI00B32CH    @SJ22103 MW    20220915181E50011ZZ              AVSSCS-S 0.5FX2 DGY/Y    CCN000000600000000600FN00000000020221001000000600NNM   20220809153141    1W    00000030000003096000000000032CH    SJSAMIJF000000000000QX528001
BI00B32CH    @SJ22104 MW    20220922181E50011ZZ              AVSSCS-S 0.5FX2 DGY/Y    CCN000001800000001800FN00000000020221001000001800NNM   20220809153141    1W    00000030000003096000000000032CH    SJSAMIJF000000000000QX129001
BI00B32CH    @SJ22102 MW    20220908181F21009ZZ              AVSSHCS-S 0.5FX2 B       CCN000001800000001800FN00000000020221001000001800NNM   20220809153141    1W    00000030000002531400000000032CH    SJSAMIJF000000000000QX428001
BI00B32CH    @SJ22103 MW    20220915181F21009ZZ              AVSSHCS-S 0.5FX2 B       CCN000030300000030300FN00000000020221001000030300NNM   20220809153141    1W    00000030000002531400000000032CH    SJSAMIJF000000000000QX528002
BI00B32CH    @SJ22104 MW    20220922181F21009ZZ              AVSSHCS-S 0.5FX2 B       CCN000028500000028500FN00000000020221001000028500NNM   20220809153141    1W    00000030000002531400000000032CH    SJSAMIJF000000000000QX129002
BI00B32CH    @SJ22102DMW    20220908181B32037Z5              AVSSCS 0.3FX1 DGY/L      CCN000000500000000500FN00000000020221001000000500NNM   20220809153142    1W    00000050000001780000000000032CH    SJSAMIJF000000000000QY428001
BI00B32CH    @SJ22103DMW    20220915181B32037Z5              AVSSCS 0.3FX1 DGY/L      CCN000003500000003500FN00000000020221001000003500NNM   20220809153142    1W    00000050000001780000000000032CH    SJSAMIJF000000000000QY528001
BI00B32CH    @SJ22104DMW    20220922181B32037Z5              AVSSCS 0.3FX1 DGY/L      CCN000004000000004000FN00000000020221001000004000NNM   20220809153142    1W    00000050000001780000000000032CH    SJSAMIJF000000000000QY129001
BI00B32CH    SJ22101HMW     2022090118007704030              AVSS 0.75F B             CCN000001000000001000FN00000000020221001000001000NNM   20220809153147    1W    00000100000000943000000000032CH    SJSAMIJF000000000000QW328001
BI00B32CH    SJ22102HMW     2022090818007704030              AVSS 0.75F B             CCN000001000000001000FN00000000020221001000001000NNM   20220809153147    1W    00000100000000943000000000032CH    SJSAMIJF000000000000QW428001
BI00B32CH    SJ22103HMW     2022091518007704030              AVSS 0.75F B             CCN000001000000001000FN00000000020221001000001000NNM   20220809153147    1W    00000100000000943000000000032CH    SJSAMIJF000000000000QW528001
BI00B32CH    SJ22104HMW     2022092218007704030              AVSS 0.75F B             CCN000002000000002000FN00000000020221001000002000NNM   20220809153147    1W    00000100000000943000000000032CH    SJSAMIJF000000000000QW129001
BI00B32CH    SJ22101HMW     2022090118007704130              AVSS 1.25F B             CCN000003200000003200FN00000000020221001000003200NNM   20220809153147    1W    00000080000001389000000000032CH    SJSAMIJF000000000000QW328002
BI00B32CH    SJ22102HMW     2022090818007704130              AVSS 1.25F B             CCN000004800000004800FN00000000020221001000004800NNM   20220809153147    1W    00000080000001389000000000032CH    SJSAMIJF000000000000QW428002
BI00B32CH    SJ22103HMW     2022091518007704130              AVSS 1.25F B             CCN000004800000004800FN00000000020221001000004800NNM   20220809153147    1W    00000080000001389000000000032CH    SJSAMIJF000000000000QW528002
BI00B32CH    SJ22104HMW     2022092218007704130              AVSS 1.25F B             CCN000004800000004800FN00000000020221001000004800NNM   20220809153147    1W    00000080000001389000000000032CH    SJSAMIJF000000000000QW129002
BI00B32CH    @SJ22102MMW    20220908181E48022ZZ              CAVSAS-S 0.5X2 GY        CCN000000600000000600FN00000000020221001000000600NNM   20220809153143    1W    00000030000002561000000000032CH    SJSAMIJF000000000000QZ428001
BI00B32CH    @SJ22103MMW    20220915181E48022ZZ              CAVSAS-S 0.5X2 GY        CCN000000900000000900FN00000000020221001000000900NNM   20220809153143    1W    00000030000002561000000000032CH    SJSAMIJF000000000000QZ528001
BI00B32CH    @SJ22104MMW    20220922181E48022ZZ              CAVSAS-S 0.5X2 GY        CCN000000600000000600FN00000000020221001000000600NNM   20220809153143    1W    00000030000002561000000000032CH    SJSAMIJF000000000000QZ129001
BI00B32CH    @SJ22104MMW    20220922181E48062ZZ              CAVSAS-S 0.5X2 GY/BR     CCN000000300000000300FN00000000020221001000000300NNM   20220809153143    1W    00000030000002561000000000032CH    SJSAMIJF000000000000QZ129002
BI00B32CH    @SJ22103SMW    20220915181E48011ZZ              CAVSAS-S 0.3X1 GY/W      CCN000014000000014000FN00000000020221001000014000NNM   20220809153144    1W    00000050000001529500000000032CH    SJSAMIJF000000000000QS528001
BI00B32CH    @SJ22104SMW    20220922181E48011ZZ              CAVSAS-S 0.3X1 GY/W      CCN000013500000013500FN00000000020221001000013500NNM   20220809153144    1W    00000050000001529500000000032CH    SJSAMIJF000000000000QS129001
BI00B32DE    TT209F         2022081818007704190              AVSS 1.25F L             CCN000004800000004000FN00000000020220901000004000NNE00 20220809145027    1W    00000080000001389000000000032DE    TVYEV-TV000000000000VR128043
BI00B32DE    TT209F         2022081818007704152              AVSS 1.25F P             CCN000010400000008800FN00000000020220901000008800NNE00 20220809144938    1W    00000080000001389000000000032DE    TVYEV-TV000000000000VR128044
BI00B32DE    TT209F         2022081818007704192              AVSS 1.25F V             CCN000005600000004800FN00000000020220901000004800NNE00 20220809145005    1W    00000080000001389000000000032DE    TVYEV-TV000000000000VR128045
BI00B32DE    TT2101         20220908180D0203960              AVSSH 0.5F G             CCN000021000000010500FN00000000020221001000010500NNM00 20220809145114    1W    00000150000000689000000000032DE    TVYEV-TV000000000000VT428019
BI00A32DE    TT2101         20220811180D0204192              AVSSH 1.25F V            CCN000001600000001600FN00000000020221001000001600NNM20 20220809162747    1W    00000080000001458000000000032DE    TVYEV-TV000000000000VT428050
BI00A32DE    TT209B         2022081118007704190              AVSS 1.25F L             CCN000000800000000800FN00000000020220901000000800NNE21 20220809162747    1W    00000080000001389000000000032DE    TVYEV-TV000000000000VW128015
BI00A32DE    TT209F         2022081118007704152              AVSS 1.25F P             CCN000001600000001600FN00000000020220901000001600NNE20 20220809162747    1W    00000080000001389000000000032DE    TVYEV-TV000000000000VR128044
BI00A32DE    TT209F         2022081118007704192              AVSS 1.25F V             CCN000000800000000800FN00000000020220901000000800NNE20 20220809162747    1W    00000080000001389000000000032DE    TVYEV-TV000000000000VR128045
BI00A32DE    TT209F         2022081118007704190              AVSS 1.25F L             CCN000000800000000800FN00000000020220901000000800NNE20 20220809162747    1W    00000080000001389000000000032DE    TVYEV-TV000000000000VR128043
BI00A32DE    TT2101         20220811180D0203960              AVSSH 0.5F G             CCN000010500000010500FN00000000020221001000010500NNM20 20220809162747    1W    00000150000000689000000000032DE    TVYEV-TV000000000000VT428019
BI00A32DJ    GHT2210-1      20220811180D0204092              AVSSH 0.75F V            CCN000001000000001000FN00000000020221001000001000NNM20 20220809120336    1W    00000100000000934000000000032DJ    RBYIPLRB000000000000XH328007
BI00B32D9    C23910         202209011801W003930              IVSSH 0.5F B             CCN000005400000005400FN00000000020221001000005400NNM   20220809142627    1W    00000180000000625000000000032D9    UEHESTO 000000000000HT328008
BI00B32D9    C24010         202209081801W003930              IVSSH 0.5F B             CCN000005400000005400FN00000000020221001000005400NNM   20220809142627    1W    00000180000000625000000000032D9    UEHESTO 000000000000HT428007
BI00B32D9    C24110         202209151801W003930              IVSSH 0.5F B             CCN000005400000005400FN00000000020221001000005400NNM   20220809142627    1W    00000180000000625000000000032D9    UEHESTO 000000000000HT528009
BI00B32D9    C24211         202209221801W003930              IVSSH 0.5F B             CCN000005400000005400FN00000000020221001000005400NNM   20220809142627    1W    00000180000000625000000000032D9    UEHESTO 000000000000HT129011
BI00B32D9    C23910         202209011801W003940              IVSSH 0.5F W             CCN000039600000039600FN00000000020221001000039600NNM   20220809142627    1W    00000180000000625000000000032D9    UEHESTO 000000000000HT328015
BI00B32D9    C24010         202209081801W003940              IVSSH 0.5F W             CCN000039600000039600FN00000000020221001000039600NNM   20220809142627    1W    00000180000000625000000000032D9    UEHESTO 000000000000HT428014
BI00B32D9    C24110         202209151801W003940              IVSSH 0.5F W             CCN000039600000039600FN00000000020221001000039600NNM   20220809142627    1W    00000180000000625000000000032D9    UEHESTO 000000000000HT528017
BI00B32D9    C24211         202209221801W003940              IVSSH 0.5F W             CCN000039600000039600FN00000000020221001000039600NNM   20220809142627    1W    00000180000000625000000000032D9    UEHESTO 000000000000HT129018
BI00B32D9    C23910         202209011801W003941              IVSSH 0.5F GY            CCN000005400000005400FN00000000020221001000005400NNM   20220809142627    1W    00000180000000625000000000032D9    UEHESTO 000000000000HT328010
BI00B32D9    C24010         202209081801W003941              IVSSH 0.5F GY            CCN000007200000007200FN00000000020221001000007200NNM   20220809142627    1W    00000180000000625000000000032D9    UEHESTO 000000000000HT428009
BI00B32D9    C24110         202209151801W003941              IVSSH 0.5F GY            CCN000005400000005400FN00000000020221001000005400NNM   20220809142627    1W    00000180000000625000000000032D9    UEHESTO 000000000000HT528011
BI00B32D9    C24211         202209221801W003941              IVSSH 0.5F GY            CCN000007200000007200FN00000000020221001000007200NNM   20220809142627    1W    00000180000000625000000000032D9    UEHESTO 000000000000HT129014
BI00B32D9    C23910         202209011801W003943              IVSSH 0.5F W/B           CCN000007200000007200FN00000000020221001000007200NNM   20220809142627    1W    00000180000000625000000000032D9    UEHESTO 000000000000HT328016
BI00B32D9    C24010         202209081801W003943              IVSSH 0.5F W/B           CCN000007200000007200FN00000000020221001000007200NNM   20220809142627    1W    00000180000000625000000000032D9    UEHESTO 000000000000HT428015
BI00B32D9    C24110         202209151801W003943              IVSSH 0.5F W/B           CCN000007200000007200FN00000000020221001000007200NNM   20220809142627    1W    00000180000000625000000000032D9    UEHESTO 000000000000HT528018
BI00B32D9    C24211         202209221801W003943              IVSSH 0.5F W/B           CCN000007200000007200FN00000000020221001000007200NNM   20220809142627    1W    00000180000000625000000000032D9    UEHESTO 000000000000HT129019
BI00B32D9    C24110         202209151801W003950              IVSSH 0.5F R             CCN000001800000001800FN00000000020221001000001800NNM   20220809142627    1W    00000180000000625000000000032D9    UEHESTO 000000000000HT528015
BI00B32D9    C23910         202209011801W003952              IVSSH 0.5F P             CCN000005400000005400FN00000000020221001000005400NNM   20220809142627    1W    00000180000000625000000000032D9    UEHESTO 000000000000HT328013
BI00B32D9    C24010         202209081801W003952              IVSSH 0.5F P             CCN000005400000005400FN00000000020221001000005400NNM   20220809142627    1W    00000180000000625000000000032D9    UEHESTO 000000000000HT428012
BI00B32D9    C24110         202209151801W003952              IVSSH 0.5F P             CCN000005400000005400FN00000000020221001000005400NNM   20220809142627    1W    00000180000000625000000000032D9    UEHESTO 000000000000HT528014
BI00B32D9    C24211         202209221801W003952              IVSSH 0.5F P             CCN000005400000005400FN00000000020221001000005400NNM   20220809142627    1W    00000180000000625000000000032D9    UEHESTO 000000000000HT129017
BI00B32D9    C23910         202209011801W003960              IVSSH 0.5F G             CCN000005400000005400FN00000000020221001000005400NNM   20220809142627    1W    00000180000000625000000000032D9    UEHESTO 000000000000HT328009
BI00B32D9    C24010         202209081801W003960              IVSSH 0.5F G             CCN000005400000005400FN00000000020221001000005400NNM   20220809142627    1W    00000180000000625000000000032D9    UEHESTO 000000000000HT428008
BI00B32D9    C24110         202209151801W003960              IVSSH 0.5F G             CCN000005400000005400FN00000000020221001000005400NNM   20220809142627    1W    00000180000000625000000000032D9    UEHESTO 000000000000HT528010
BI00B32D9    C24211         202209221801W003960              IVSSH 0.5F G             CCN000005400000005400FN00000000020221001000005400NNM   20220809142627    1W    00000180000000625000000000032D9    UEHESTO 000000000000HT129013
BI00B32D9    C23910         202209011801W003961              IVSSH 0.5F LG            CCN000003600000003600FN00000000020221001000003600NNM   20220809142627    1W    00000180000000625000000000032D9    UEHESTO 000000000000HT328012
BI00B32D9    C24010         202209081801W003961              IVSSH 0.5F LG            CCN000003600000003600FN00000000020221001000003600NNM   20220809142627    1W    00000180000000625000000000032D9    UEHESTO 000000000000HT428011
BI00B32D9    C24110         202209151801W003961              IVSSH 0.5F LG            CCN000003600000003600FN00000000020221001000003600NNM   20220809142627    1W    00000180000000625000000000032D9    UEHESTO 000000000000HT528013
BI00B32D9    C24211         202209221801W003961              IVSSH 0.5F LG            CCN000003600000003600FN00000000020221001000003600NNM   20220809142627    1W    00000180000000625000000000032D9    UEHESTO 000000000000HT129016
BI00B32D9    C23910         202209011801W003970              IVSSH 0.5F Y             CCN000007200000007200FN00000000020221001000007200NNM   20220809142627    1W    00000180000000625000000000032D9    UEHESTO 000000000000HT328017
BI00B32D9    C24010         202209081801W003970              IVSSH 0.5F Y             CCN000007200000007200FN00000000020221001000007200NNM   20220809142627    1W    00000180000000625000000000032D9    UEHESTO 000000000000HT428016
BI00B32D9    C24110         202209151801W003970              IVSSH 0.5F Y             CCN000007200000007200FN00000000020221001000007200NNM   20220809142627    1W    00000180000000625000000000032D9    UEHESTO 000000000000HT528019
BI00B32D9    C24211         202209221801W003970              IVSSH 0.5F Y             CCN000007200000007200FN00000000020221001000007200NNM   20220809142627    1W    00000180000000625000000000032D9    UEHESTO 000000000000HT129020
BI00B32D9    C24211         202209221801W003980              IVSSH 0.5F BR            CCN000005000000005400FN00000000020221001000005400NNM   20220809142627    1W    00000180000000625000000000032D9    UEHESTO 000000000000HT129012
BI00B32D9    C23910         202209011801W003990              IVSSH 0.5F L             CCN000003600000003600FN00000000020221001000003600NNM   20220809142627    1W    00000180000000625000000000032D9    UEHESTO 000000000000HT328011
BI00B32D9    C24010         202209081801W003990              IVSSH 0.5F L             CCN000003600000003600FN00000000020221001000003600NNM   20220809142627    1W    00000180000000625000000000032D9    UEHESTO 000000000000HT428010
BI00B32D9    C24110         202209151801W003990              IVSSH 0.5F L             CCN000003600000003600FN00000000020221001000003600NNM   20220809142627    1W    00000180000000625000000000032D9    UEHESTO 000000000000HT528012
BI00B32D9    C24211         202209221801W003990              IVSSH 0.5F L             CCN000003600000003600FN00000000020221001000003600NNM   20220809142627    1W    00000180000000625000000000032D9    UEHESTO 000000000000HT129015
BI00B32D9    C23910         202209011801W003992              IVSSH 0.5F V             CCN000001800000001800FN00000000020221001000001800NNM   20220809142627    1W    00000180000000625000000000032D9    UEHESTO 000000000000HT328014
BI00B32D9    C24010         202209081801W003992              IVSSH 0.5F V             CCN000001800000001800FN00000000020221001000001800NNM   20220809142627    1W    00000180000000625000000000032D9    UEHESTO 000000000000HT428013
BI00B32D9    C24110         202209151801W003992              IVSSH 0.5F V             CCN000001800000001800FN00000000020221001000001800NNM   20220809142627    1W    00000180000000625000000000032D9    UEHESTO 000000000000HT528016
BI00B32D9    C24110         202209151801W004030              IVSSH 0.75F B            CCN000001300000001300FN00000000020221001000001300NNM   20220809142627    1W    00000130000000882000000000032D9    UEHESTO 000000000000HT528020
BI00B32D9    C24211         202209221801W004030              IVSSH 0.75F B            CCN000001300000001300FN00000000020221001000001300NNM   20220809142627    1W    00000130000000882000000000032D9    UEHESTO 000000000000HT129021
BI00B32D9    C23910         202209011801W004043              IVSSH 0.75F W/B          CCN000001300000001300FN00000000020221001000001300NNM   20220809142627    1W    00000130000000882000000000032D9    UEHESTO 000000000000HT328021
BI00B32D9    C24010         202209081801W004043              IVSSH 0.75F W/B          CCN000001300000001300FN00000000020221001000001300NNM   20220809142627    1W    00000130000000882000000000032D9    UEHESTO 000000000000HT428020
BI00B32D9    C24110         202209151801W004043              IVSSH 0.75F W/B          CCN000001300000001300FN00000000020221001000001300NNM   20220809142627    1W    00000130000000882000000000032D9    UEHESTO 000000000000HT528025
BI00B32D9    C24211         202209221801W004043              IVSSH 0.75F W/B          CCN000001300000001300FN00000000020221001000001300NNM   20220809142627    1W    00000130000000882000000000032D9    UEHESTO 000000000000HT129025
BI00B32D9    C23910         202209011801W004050              IVSSH 0.75F R            CCN000002600000002600FN00000000020221001000002600NNM   20220809142627    1W    00000130000000882000000000032D9    UEHESTO 000000000000HT328020
BI00B32D9    C24010         202209081801W004050              IVSSH 0.75F R            CCN000002600000002600FN00000000020221001000002600NNM   20220809142627    1W    00000130000000882000000000032D9    UEHESTO 000000000000HT428019
BI00B32D9    C24110         202209151801W004050              IVSSH 0.75F R            CCN000002600000002600FN00000000020221001000002600NNM   20220809142627    1W    00000130000000882000000000032D9    UEHESTO 000000000000HT528024
BI00B32D9    C24211         202209221801W004050              IVSSH 0.75F R            CCN000002600000002600FN00000000020221001000002600NNM   20220809142627    1W    00000130000000882000000000032D9    UEHESTO 000000000000HT129024
BI00B32D9    C24110         202209151801W004052              IVSSH 0.75F P            CCN000001300000001300FN00000000020221001000001300NNM   20220809142627    1W    00000130000000882000000000032D9    UEHESTO 000000000000HT528023
BI00B32D9    C24211         202209221801W004052              IVSSH 0.75F P            CCN000001300000001300FN00000000020221001000001300NNM   20220809142627    1W    00000130000000882000000000032D9    UEHESTO 000000000000HT129023
BI00B32D9    C23910         202209011801W004060              IVSSH 0.75F G            CCN000001300000001300FN00000000020221001000001300NNM   20220809142627    1W    00000130000000882000000000032D9    UEHESTO 000000000000HT328019
BI00B32D9    C24110         202209151801W004060              IVSSH 0.75F G            CCN000001300000001300FN00000000020221001000001300NNM   20220809142627    1W    00000130000000882000000000032D9    UEHESTO 000000000000HT528022
BI00B32D9    C23910         202209011801W004070              IVSSH 0.75F Y            CCN000001300000001300FN00000000020221001000001300NNM   20220809142627    1W    00000130000000882000000000032D9    UEHESTO 000000000000HT328022
BI00B32D9    C24010         202209081801W004070              IVSSH 0.75F Y            CCN000001300000001300FN00000000020221001000001300NNM   20220809142627    1W    00000130000000882000000000032D9    UEHESTO 000000000000HT428021
BI00B32D9    C24110         202209151801W004070              IVSSH 0.75F Y            CCN000001300000001300FN00000000020221001000001300NNM   20220809142627    1W    00000130000000882000000000032D9    UEHESTO 000000000000HT528026
BI00B32D9    C24211         202209221801W004070              IVSSH 0.75F Y            CCN000001300000001300FN00000000020221001000001300NNM   20220809142627    1W    00000130000000882000000000032D9    UEHESTO 000000000000HT129026
BI00B32D9    C23910         202209011801W004080              IVSSH 0.75F BR           CCN000001300000001300FN00000000020221001000001300NNM   20220809142627    1W    00000130000000882000000000032D9    UEHESTO 000000000000HT328018
BI00B32D9    C24010         202209081801W004080              IVSSH 0.75F BR           CCN000001300000001300FN00000000020221001000001300NNM   20220809142627    1W    00000130000000882000000000032D9    UEHESTO 000000000000HT428017
BI00B32D9    C24110         202209151801W004080              IVSSH 0.75F BR           CCN000001300000001300FN00000000020221001000001300NNM   20220809142627    1W    00000130000000882000000000032D9    UEHESTO 000000000000HT528021
BI00B32D9    C24211         202209221801W004080              IVSSH 0.75F BR           CCN000001300000001300FN00000000020221001000001300NNM   20220809142627    1W    00000130000000882000000000032D9    UEHESTO 000000000000HT129022
BI00B32D9    C24010         202209081801W004090              IVSSH 0.75F L            CCN000001300000001300FN00000000020221001000001300NNM   20220809142627    1W    00000130000000882000000000032D9    UEHESTO 000000000000HT428018
BI00B32D9    C23910         202209011801W006930              IVSSH 0.35F B            CCN000002500000002500FN00000000020221001000002500NNM   20220809142627    1W    00000250000000452000000000032D9    UEHESTO 000000000000HT328023
BI00B32D9    C24010         202209081801W006930              IVSSH 0.35F B            CCN000002500000002500FN00000000020221001000002500NNM   20220809142627    1W    00000250000000452000000000032D9    UEHESTO 000000000000HT428022
BI00B32D9    C24110         202209151801W006930              IVSSH 0.35F B            CCN000002500000002500FN00000000020221001000002500NNM   20220809142627    1W    00000250000000452000000000032D9    UEHESTO 000000000000HT528027
BI00B32D9    C24211         202209221801W006930              IVSSH 0.35F B            CCN000002500000002500FN00000000020221001000002500NNM   20220809142627    1W    00000250000000452000000000032D9    UEHESTO 000000000000HT129027
BI00B32D9    C23910         202209011801W006940              IVSSH 0.35F W            CCN000010000000010000FN00000000020221001000010000NNM   20220809142627    1W    00000250000000452000000000032D9    UEHESTO 000000000000HT328031
BI00B32D9    C24010         202209081801W006940              IVSSH 0.35F W            CCN000007500000007500FN00000000020221001000007500NNM   20220809142627    1W    00000250000000452000000000032D9    UEHESTO 000000000000HT428031
BI00B32D9    C24110         202209151801W006940              IVSSH 0.35F W            CCN000010000000010000FN00000000020221001000010000NNM   20220809142627    1W    00000250000000452000000000032D9    UEHESTO 000000000000HT528037
BI00B32D9    C24211         202209221801W006940              IVSSH 0.35F W            CCN000007500000007500FN00000000020221001000007500NNM   20220809142627    1W    00000250000000452000000000032D9    UEHESTO 000000000000HT129037
BI00B32D9    C23910         202209011801W006941              IVSSH 0.35F GY           CCN000002500000002500FN00000000020221001000002500NNM   20220809142627    1W    00000250000000452000000000032D9    UEHESTO 000000000000HT328026
BI00B32D9    C24010         202209081801W006941              IVSSH 0.35F GY           CCN000002500000002500FN00000000020221001000002500NNM   20220809142627    1W    00000250000000452000000000032D9    UEHESTO 000000000000HT428025
BI00B32D9    C24110         202209151801W006941              IVSSH 0.35F GY           CCN000002500000002500FN00000000020221001000002500NNM   20220809142627    1W    00000250000000452000000000032D9    UEHESTO 000000000000HT528030
BI00B32D9    C24211         202209221801W006941              IVSSH 0.35F GY           CCN000002500000002500FN00000000020221001000002500NNM   20220809142627    1W    00000250000000452000000000032D9    UEHESTO 000000000000HT129030
BI00B32D9    C23910         202209011801W006943              IVSSH 0.35F W/B          CCN000002500000002500FN00000000020221001000002500NNM   20220809142627    1W    00000250000000452000000000032D9    UEHESTO 000000000000HT328032
BI00B32D9    C24110         202209151801W006943              IVSSH 0.35F W/B          CCN000002500000002500FN00000000020221001000002500NNM   20220809142627    1W    00000250000000452000000000032D9    UEHESTO 000000000000HT528038
BI00B32D9    C23910         202209011801W006950              IVSSH 0.35F R            CCN000002500000002500FN00000000020221001000002500NNM   20220809142627    1W    00000250000000452000000000032D9    UEHESTO 000000000000HT328029
BI00B32D9    C24010         202209081801W006950              IVSSH 0.35F R            CCN000002500000002500FN00000000020221001000002500NNM   20220809142627    1W    00000250000000452000000000032D9    UEHESTO 000000000000HT428029
BI00B32D9    C24110         202209151801W006950              IVSSH 0.35F R            CCN000005000000005000FN00000000020221001000005000NNM   20220809142627    1W    00000250000000452000000000032D9    UEHESTO 000000000000HT528034
BI00B32D9    C24211         202209221801W006950              IVSSH 0.35F R            CCN000007500000007500FN00000000020221001000007500NNM   20220809142627    1W    00000250000000452000000000032D9    UEHESTO 000000000000HT129034
BI00B32D9    C23910         202209011801W006952              IVSSH 0.35F P            CCN000007500000007500FN00000000020221001000007500NNM   20220809142627    1W    00000250000000452000000000032D9    UEHESTO 000000000000HT328028
BI00B32D9    C24010         202209081801W006952              IVSSH 0.35F P            CCN000007500000007500FN00000000020221001000007500NNM   20220809142627    1W    00000250000000452000000000032D9    UEHESTO 000000000000HT428028
BI00B32D9    C24110         202209151801W006952              IVSSH 0.35F P            CCN000007500000007500FN00000000020221001000007500NNM   20220809142627    1W    00000250000000452000000000032D9    UEHESTO 000000000000HT528033
BI00B32D9    C24211         202209221801W006952              IVSSH 0.35F P            CCN000005000000005000FN00000000020221001000005000NNM   20220809142627    1W    00000250000000452000000000032D9    UEHESTO 000000000000HT129033
BI00B32D9    C23910         202209011801W006960              IVSSH 0.35F G            CCN000010500000012500FN00000000020221001000012500NNM   20220809142627    1W    00000250000000452000000000032D9    UEHESTO 000000000000HT328025
BI00B32D9    C24010         202209081801W006960              IVSSH 0.35F G            CCN000005000000005000FN00000000020221001000005000NNM   20220809142627    1W    00000250000000452000000000032D9    UEHESTO 000000000000HT428024
BI00B32D9    C24110         202209151801W006960              IVSSH 0.35F G            CCN000075000000075000FN00000000020221001000075000NNM   20220809142627    1W    00000250000000452000000000032D9    UEHESTO 000000000000HT528029
BI00B32D9    C24211         202209221801W006960              IVSSH 0.35F G            CCN000010000000010000FN00000000020221001000010000NNM   20220809142627    1W    00000250000000452000000000032D9    UEHESTO 000000000000HT129029
BI00B32D9    C24010         202209081801W006961              IVSSH 0.35F LG           CCN000002500000002500FN00000000020221001000002500NNM   20220809142627    1W    00000250000000452000000000032D9    UEHESTO 000000000000HT428027
BI00B32D9    C24110         202209151801W006961              IVSSH 0.35F LG           CCN000002500000002500FN00000000020221001000002500NNM   20220809142627    1W    00000250000000452000000000032D9    UEHESTO 000000000000HT528032
BI00B32D9    C24211         202209221801W006961              IVSSH 0.35F LG           CCN000002500000002500FN00000000020221001000002500NNM   20220809142627    1W    00000250000000452000000000032D9    UEHESTO 000000000000HT129032
BI00B32D9    C23910         202209011801W006970              IVSSH 0.35F Y            CCN000005000000005000FN00000000020221001000005000NNM   20220809142627    1W    00000250000000452000000000032D9    UEHESTO 000000000000HT328033
BI00B32D9    C24010         202209081801W006970              IVSSH 0.35F Y            CCN000005000000005000FN00000000020221001000005000NNM   20220809142627    1W    00000250000000452000000000032D9    UEHESTO 000000000000HT428032
BI00B32D9    C24110         202209151801W006970              IVSSH 0.35F Y            CCN000002500000002500FN00000000020221001000002500NNM   20220809142627    1W    00000250000000452000000000032D9    UEHESTO 000000000000HT528039
BI00B32D9    C24211         202209221801W006970              IVSSH 0.35F Y            CCN000005000000005000FN00000000020221001000005000NNM   20220809142627    1W    00000250000000452000000000032D9    UEHESTO 000000000000HT129038
BI00B32D9    C23910         202209011801W006980              IVSSH 0.35F BR           CCN000005000000005000FN00000000020221001000005000NNM   20220809142627    1W    00000250000000452000000000032D9    UEHESTO 000000000000HT328024
BI00B32D9    C24010         202209081801W006980              IVSSH 0.35F BR           CCN000002500000002500FN00000000020221001000002500NNM   20220809142627    1W    00000250000000452000000000032D9    UEHESTO 000000000000HT428023
BI00B32D9    C24110         202209151801W006980              IVSSH 0.35F BR           CCN000005000000005000FN00000000020221001000005000NNM   20220809142627    1W    00000250000000452000000000032D9    UEHESTO 000000000000HT528028
BI00B32D9    C24211         202209221801W006980              IVSSH 0.35F BR           CCN000002500000002500FN00000000020221001000002500NNM   20220809142627    1W    00000250000000452000000000032D9    UEHESTO 000000000000HT129028
BI00B32D9    C23910         202209011801W006990              IVSSH 0.35F L            CCN000002500000002500FN00000000020221001000002500NNM   20220809142627    1W    00000250000000452000000000032D9    UEHESTO 000000000000HT328027
BI00B32D9    C24010         202209081801W006990              IVSSH 0.35F L            CCN000002500000002500FN00000000020221001000002500NNM   20220809142627    1W    00000250000000452000000000032D9    UEHESTO 000000000000HT428026
BI00B32D9    C24110         202209151801W006990              IVSSH 0.35F L            CCN000007500000007500FN00000000020221001000007500NNM   20220809142627    1W    00000250000000452000000000032D9    UEHESTO 000000000000HT528031
BI00B32D9    C24211         202209221801W006990              IVSSH 0.35F L            CCN000002500000002500FN00000000020221001000002500NNM   20220809142627    1W    00000250000000452000000000032D9    UEHESTO 000000000000HT129031
BI00B32D9    C24110         202209151801W006991              IVSSH 0.35F SB           CCN000002500000002500FN00000000020221001000002500NNM   20220809142627    1W    00000250000000452000000000032D9    UEHESTO 000000000000HT528035
BI00B32D9    C24211         202209221801W006991              IVSSH 0.35F SB           CCN000002500000002500FN00000000020221001000002500NNM   20220809142627    1W    00000250000000452000000000032D9    UEHESTO 000000000000HT129035
BI00B32D9    C23910         202209011801W006992              IVSSH 0.35F V            CCN000005000000005000FN00000000020221001000005000NNM   20220809142627    1W    00000250000000452000000000032D9    UEHESTO 000000000000HT328030
BI00B32D9    C24010         202209081801W006992              IVSSH 0.35F V            CCN000005000000005000FN00000000020221001000005000NNM   20220809142627    1W    00000250000000452000000000032D9    UEHESTO 000000000000HT428030
BI00B32D9    C24110         202209151801W006992              IVSSH 0.35F V            CCN000005000000005000FN00000000020221001000005000NNM   20220809142627    1W    00000250000000452000000000032D9    UEHESTO 000000000000HT528036
BI00B32D9    C24211         202209221801W006992              IVSSH 0.35F V            CCN000002500000002500FN00000000020221001000002500NNM   20220809142627    1W    00000250000000452000000000032D9    UEHESTO 000000000000HT129036
BI00B32D9    C23910         20220901180D0203730              AVSSH 0.3F B             CCN000004000000004000FN00000000020221001000004000NNM   20220809142627    1W    00000200000000515000000000032D9    UEHESTO 000000000000HT328006
BI00B32D9    C23910         20220901180D0203752              AVSSH 0.3F P             CCN000002000000002000FN00000000020221001000002000NNM   20220809142627    1W    00000200000000515000000000032D9    UEHESTO 000000000000HT328007
BI00B32H2    TAW2094        2022081118007704150              AVSS 1.25F R             CCN000002400000002400FN00000000020220901000002400NNM20 20220809145740    1W    00000080000001389000000000032H2    HVYHV   000000000000UH328064
BI00B32H2    TAW2094        2022081118007704140              AVSS 1.25F W             CCN000002400000002400FN00000000020220901000002400NNM20 20220809145740    1W    00000080000001389000000000032H2    HVYHV   000000000000UH328065
BI00B32M8    PM2209B MW     2022083118007704160              AVSS 1.25F G             CCN000002400000002400FN00000000020220901000002400NNE   20220809120336    1W    00000080000001389000000000032M8    PMPEMI  000000000000II328008
BI00B32M8    PM2209B MW     2022083118007704190              AVSS 1.25F L             CCN000003200000003200FN00000000020220901000003200NNE   20220809120336    1W    00000080000001389000000000032M8    PMPEMI  000000000000II328009
BI00B32M8    PM2209B MW     202208311801W004043              IVSSH 0.75F W/B          CCN000001300000001300FN00000000020220901000001300NNE   20220809120336    1W    00000130000000882000000000032M8    PMPEMI  000000000000II328014
BI00B32M8    PM2209B MW     2022083118007704140              AVSS 1.25F W             CCN000007200000007200FN00000000020220901000007200NNE   20220809120336    1W    00000080000001389000000000032M8    PMPEMI  000000000000II328013
BI00B32M8    PM2209B MW     2022083118007704150              AVSS 1.25F R             CCN000002400000002400FN00000000020220901000002400NNE   20220809120336    1W    00000080000001389000000000032M8    PMPEMI  000000000000II328011
BI00B32M8    PM2209B MW     2022083118007704152              AVSS 1.25F P             CCN000003200000003200FN00000000020220901000003200NNE   20220809120336    1W    00000080000001389000000000032M8    PMPEMI  000000000000II328010
BI00B32M8    PM2209B MW     2022083118007704180              AVSS 1.25F BR            CCN000003200000003200FN00000000020220901000003200NNE   20220809120336    1W    00000080000001389000000000032M8    PMPEMI  000000000000II328007
BI00B32M8    PM2209B MW     2022083118007704192              AVSS 1.25F V             CCN000002400000002400FN00000000020220901000002400NNE   20220809120336    1W    00000080000001389000000000032M8    PMPEMI  000000000000II328012
BI00B32M8    @PM2209B MW    20220907181B0910241              CAVSAS 0.5X2 GY          CCN000010800000010800FN00000000020220901000010800NNE   20220809120336    1W    00000030000002680000000000032M8    PMPEMI  000000000000IK428001
BI00B32M8    PM2209BTMW     202208311801W003940              IVSSH 0.5F W             CCN000001800000001800FN00000000020220901000001800NNE   20220809120336    1W    00000180000000625000000000032M8    PMPEMI  000000000000IL328005
BI00B32M8    PM2209BTMW     202208311801W003943              IVSSH 0.5F W/B           CCN000001800000001800FN00000000020220901000001800NNE   20220809120336    1W    00000180000000625000000000032M8    PMPEMI  000000000000IL328006
BI00B32M8    PM2209BTMW     202208311801W003952              IVSSH 0.5F P             CCN000021600000021600FN00000000020220901000021600NNE   20220809120336    1W    00000180000000625000000000032M8    PMPEMI  000000000000IL328003
BI00B32M8    PM2209BTMW     202208311801W003960              IVSSH 0.5F G             CCN000010800000010800FN00000000020220901000010800NNE   20220809120336    1W    00000180000000625000000000032M8    PMPEMI  000000000000IL328001
BI00B32M8    PM2209BTMW     202208311801W003990              IVSSH 0.5F L             CCN000012600000012600FN00000000020220901000012600NNE   20220809120336    1W    00000180000000625000000000032M8    PMPEMI  000000000000IL328002
BI00B32M8    PM2209BTMW     202208311801W003992              IVSSH 0.5F V             CCN000003600000003600FN00000000020220901000003600NNE   20220809120336    1W    00000180000000625000000000032M8    PMPEMI  000000000000IL328004
BI00B32M8    PM2209BTMW     202208311801W004050              IVSSH 0.75F R            CCN000005200000005200FN00000000020220901000005200NNE   20220809120336    1W    00000130000000882000000000032M8    PMPEMI  000000000000IL328007
BI00B32M8    PM2209BTMW     202208311801W006930              IVSSH 0.35F B            CCN000015000000015000FN00000000020220901000015000NNE   20220809120336    1W    00000250000000452000000000032M8    PMPEMI  000000000000IL328008
BI00B32M8    PM2209BTMW     202208311801W006950              IVSSH 0.35F R            CCN000005000000005000FN00000000020220901000005000NNE   20220809120336    1W    00000250000000452000000000032M8    PMPEMI  000000000000IL328012
BI00B32M8    PM2209BTMW     202208311801W006960              IVSSH 0.35F G            CCN000005000000005000FN00000000020220901000005000NNE   20220809120336    1W    00000250000000452000000000032M8    PMPEMI  000000000000IL328009
BI00B32M8    PM2209BTMW     202208311801W006961              IVSSH 0.35F LG           CCN000007500000007500FN00000000020220901000007500NNE   20220809120336    1W    00000250000000452000000000032M8    PMPEMI  000000000000IL328011
BI00B32M8    PM2209BTMW     202208311801W006990              IVSSH 0.35F L            CCN000030000000030000FN00000000020220901000030000NNE   20220809120336    1W    00000250000000452000000000032M8    PMPEMI  000000000000IL328010
BI00B32M8    PM2209BTMW     202208311801W006992              IVSSH 0.35F V            CCN000007500000007500FN00000000020220901000007500NNE   20220809120336    1W    00000250000000452000000000032M8    PMPEMI  000000000000IL328013
BI00B32M8    @PM2209BTMW    20220907181CQ7003ZZ              IVSSHCS-S 0.5FX2 B(B,W)  CCN000004500000004500FN00000000020220901000004500NNE   20220809120336    1W    00000030000002350200000000032M8    PMPEMI  000000000000IN428001
BI00B32M8    @PM2209BTMW    20220907181CQ7004ZZ              IVSSHCS-S 0.5FX2 B(R,G)  CCN000004500000004500FN00000000020220901000004500NNE   20220809120336    1W    00000030000002350200000000032M8    PMPEMI  000000000000IN428002
BI00A32P8    POTA-2208      202208101801W006950              IVSSH 0.35F R            CCN000002500000002500FN00000000020220801000002500NNE   20220809120336    1W    00000250000000452000000000032P8    YIYTM   000000000000YN427006
BI00A32P8    POTA-2208      202208101801W003950              IVSSH 0.5F R             CCN000001800000001800FN00000000020220801000001800NNE   20220809120336    1W    00000180000000625000000000032P8    YIYTM   000000000000YN427001
BI00A32P8    POTA-2208      202208101801W004050              IVSSH 0.75F R            CCN000001300000001300FN00000000020220801000001300NNE   20220809120336    1W    00000130000000882000000000032P8    YIYTM   000000000000YN427002
BI00A32P8    POTA-2208      202208101801W004140              IVSSH 1.25F W            CCN000000800000000800FN00000000020220801000000800NNE   20220809120336    1W    00000080000001405000000000032P8    YIYTM   000000000000YN427003
BI00A32P8    POTA-2208      202208101801W004250              IVSSH 2F R               CCN000000550000000550FN00000000020220801000000550NNE   20220809120336    1W    00000055000002091100000000032P8    YIYTM   000000000000YN427004
BI00A32P8    POTA-2208      202208101801W004350              IVSSH 3 R                CCN000000350000000350FN00000000020220801000000350NNE   20220809120336    1W    00000035000003173100000000032P8    YIYTM   000000000000YN427005
