BI00B1200    #2399T52806    202209017174-1515                FRONT DOOR COVER         CCN000008400000007200FN00000000020221001000007200NNMQ0020220809120826    2F0F  0000006000000049020000061021200    YCYC    005500360039
BI00B1200    #2399T52806    202208257174-1515                FRONT DOOR COVER         CCN000001200000001200FN00000000020221001000001200NNMD0020220809120826    2F0F  0000006000000049020000061021200    YCYC    005500360039
BI00B1200    Y022K50056     202210277174-1849-70             COVER                    CCN000025000000025000FN00000000020221101000025000NNM   20220809120826    1F0F  0000250000000062250000076191200    YCYC    005400370024
BI00B1200    Y022K50057     202210277298-1145-4W             SQUIB SUB ASS'Y          CCN000020000000020000FN00000000020221101000020000NNM   20220809120826    4N0N  0000100000000078790000094491200    YCYC    005400370024
BI00B32B6    TAPSUB09C      202211257288-3329-30             HOUSING MALE             CCN000001500000000000FY00000000020220801000000000NNEQ0820220809105754B6  4N0N  00000150000000866100001011132B6    AXARNE-M005400370024
BI00A32CG    S220616        202208117283-9457-3W             CONNECTOR                CCN000002880000002880FN00000000020220801000002880NNEM0020220809170302    4N0N  00000012000000515000001067032CG    ASASIACO005600390023
BI00A32CG    S220616        202208117116-4111-02             TERMINAL                 CCN000015000000015000FN00000000020220801000015000NNEM0020220809151546    4P0P  00000750000000529500000817732CG    ASASIACO006400630015
BI00A32DE    TCT209G        202208117283-5846                HOUSING                  CCN000001500000001500FN00000000020220901000001500NNEM0020220809120826    1N0N  00000150000000885000001102032DE    TVYEV-TV005600390040
BI00B32DG    @RP2094C       202209157183-8049-30             CONNECTOR HOUSING        CCN000004000000004000FN00000000020220901000004000NNED0220220809120826    3F0F  00000400000000588800000714432DG    BFSAIBF 005400370024
BI00B32G8    PATA2101       202209147017-1181-02             TERMINAL                 CCN000252000000252000FN00000000020221001000252000NNM   20220809120826    4P0P  00006300000001089900001266832G8    PSPASI  005100280028
BI00B32G8    PATA2101       202209147273-3570-0W             CASSETTE BRACKET         CCN000004200000004200FN00000000020221001000004200NNM   20220809120826    4N0N  00000010000000144100000196632G8    PSPASI  004300270014
BI00B32G8    PATA2101       202209147273-3573-0W             CASSETTE BRACKET         CCN000010800000010800FN00000000020221001000010800NNM   20220809120826    4N0N  00000010000000087700000140232G8    PSPASI  004300270014
BI00B32G8    PATA2101       202209147273-3571-0W             CASSETTE BRACKET         CCN000004800000004800FN00000000020221001000004800NNM   20220809120826    4N0N  00000010000000134600000187132G8    PSPASI  004300270014
BI00B32G8    PATA2101       202209147470-5945                J/B COMPLETE ASS'Y       CCN000003720000003720FN00000000020221001000003720NNM   20220809120826    4J0J  00000001000000494000000661032G8    PSPASI  005400370024
BI00B32G8    PATA2101       202209147470-5938                J/B COMPLETE ASS'Y       CCN000000260000000260FN00000000020221001000000260NNM   20220809120826    4J0J  00000001000000494000000661032G8    PSPASI  005400370024
BI00B32G8    PATA2101       202209147470-5946                J/B COMPLETE ASS'Y       CCN000000680000000680FN00000000020221001000000680NNM   20220809120826    4J0J  00000001000000494000000661032G8    PSPASI  005400370024
BI00B32G8    PATA2101       202209147470-5939                J/B COMPLETE ASS'Y       CCN000000520000000520FN00000000020221001000000520NNM   20220809120826    4J0J  00000001000000494000000661032G8    PSPASI  005400370024
BI00B32G8    PATA2101       202209147470-6156                J/B COMPLETE ASS'Y       CCN000000050000000050FN00000000020221001000000050NNM   20220809120826    4J00  00000001000000494000000661032G8    PSPASI  005400370024
BI00B32M1    QA-22-C060     202208117287-3885-40             HYBRID FEMALE ASS'Y      PNN000002400000002400FN00000000020220901000002400NNE00020220809154851    1N0N  00000240000001029600001249632M1    VNYEV   005500360039
BI00B32M8    #PM2209AJMW    202208317187-3356                JOINT CONNECTOR          CCN000001200000001200FN00000000020220901000001200NNE   20220809120826    2F0F  00000120000000759600001024432M8    PMPEMI  005600390040
BI00B32M8    #PM2209AJMW    202208317187-3358-30             JOINT CONNECTOR          CCN000001200000001200FN00000000020220901000001200NNE   20220809120826    2F0F  00000120000000673200000940432M8    PMPEMI  005600390040
BI00B32M8    PM2209C MW     202208317114-4624-02             TERMINAL                 CCN000024000000024000FN00000000020220901000024000NNE   20220809120826    4P0P  00002400000000895200001188832M8    PMPEMI  006400630015
BI00B32M8    PM2209C MW     202208317114-4728-02             TERMINAL                 CCN000090000000090000FN00000000020220901000090000NNE   20220809120826    4P0P  00003000000000510000000804232M8    PMPEMI  006400630015
BI00B32M8    PM2209C MW     202208317114-5748-02             TERMINAL                 CCN000012000000012000FN00000000020220901000012000NNE   20220809120826    4P0P  00001200000000444000000737632M8    PMPEMI  006400630015
BI00B32M8    PM2209C MW     202208317114-5753-02             TERMINAL                 CCN000027000000027000FN00000000020220901000027000NNE   20220809120826    4P0P  00002700000000847800001141432M8    PMPEMI  006400630015
BI00B32M8    PM2209C MW     202208317116-4486-02             TERMINAL                 CCN000028000000028000FN00000000020220901000028000NNE   20220809120826    4P0P  00002800000000666400000995132M8    PMPEMI  006400630017
BI00B32M8    PM2209C MW     202208317116-5043-02             TERMINAL FEMALE          CCN000012000000012000FN00000000020220901000012000NNE   20220809120826    4P0P  00001200000000559200000844432M8    PMPEMI  006400630015
BI00B32M8    PM2209C MW     202208317116-5751-02             TERMINAL                 CCN000024000000024000FN00000000020220901000024000NNE   20220809120826    4P0P  00001200000000379200000664432M8    PMPEMI  006400630015
BI00B32M8    PM2209C MW     202208317158-3009-60             RUBBER STOPPER           CCN000040000000040000FN00000000020220901000040000NNE   20220809120826    1C0C  00002000000000338000000386232M8    PMPEMI  002700430014
BI00B32M8    PM2209C MW     202208317282-9391                HOUSING MALE ASS'Y       CCN000002400000002400FN00000000020220901000002400NNE   20220809120826    4N0N  00000120000001017600001237632M8    PMPEMI  005500360039
BI00B32M8    PM2209C MW     202208317283-1156                CONNECTOR                CCN000000800000000800FN00000000020220901000000800NNE   20220809120826    4N0N  00000080000000877600001078032M8    PMPEMI  005600390040
BI00B32M8    PM2209C MW     202208317286-3885-30             CONNECTOR MALE ASS'Y     CCN000001200000001200FN00000000020220901000001200NNE   20220809120826    1N0N  00000120000000910600001130632M8    PMPEMI  005500360039
BI00B32M8    #PM2209C MW    202208317157-7811-80             SEAL RUBBER              CCN000010000000010000FN00000000020220901000010000NNE   20220809120826    2C0C  00001000000000105000000182732M8    PMPEMI  002700430014
BI00B32M8    #PM2209C MW    202208317158-3005-80             RUBBER STOPPER           CCN000020000000020000FN00000000020220901000020000NNE   20220809120826    2H0H  00002000000000210000000268732M8    PMPEMI  002700430014
BI00B32M8    #PM2209C MW    202208317158-3007-10             RUBBER STOPPER           CCN000020000000020000FN00000000020220901000020000NNE   20220809120826    2H0H  00002000000000308000000362732M8    PMPEMI  002700430014
BI00B32M8    #PM2209C MW    202208317158-3008-80             RUBBER STOPPER           CCN000020000000020000FN00000000020220901000020000NNE   20220809120826    2C0C  00002000000000288000000343032M8    PMPEMI  004300270014
BI00B32M8    #PM2209C MW    202208317183-2415                CONNECTOR HOUSING        CCN000004800000004800FN00000000020220901000004800NNE   20220809120826    2F0F  00000480000000798200001091432M8    PMPEMI  005500360039
BI00B32M8    #PM2209C MW    202208317183-2415-40             CONNECTOR HOUSING        CCN000004800000004800FN00000000020220901000004800NNE   20220809120826    2F0F  00000480000000798200001091432M8    PMPEMI  005500360039
BI00B32M8    #PM2209C MW    202208317183-2416                HOUSING                  CCN000002400000002400FN00000000020220901000002400NNE   20220809120826    2F0F  00000240000001495200001771032M8    PMPEMI  005500360039
BI00B32M8    #PM2209C MW    202208317189-3032                HOUSING FEMALE           CCN000001600000001600FN00000000020220901000001600NNE   20220809120826    2F0F  00000160000000788400001018432M8    PMPEMI  005500360039
BI00B32M8    #PM2209C MW    202208317287-1915-40             CONNECTOR ASS'Y          CCN000002400000002400FN00000000020220901000002400NNE   20220809120826    2N0N  00000240000000666500000923132M8    PMPEMI  005500360039
BI00B32N1    #NST2122DCU    202209157157-7812                SEAL RUBBER              CCN000070000000070000FN00000000020220901000070000NNED0220220809120826    2C0C  00001000000000137000000202032N1    TAYIPL  002700430014
BI00B32R7    R-TAP220336    202208257116-4122-02             TERMINAL                 CCN000004500000004500FN00000000020220901000004500NNE   20220809120826    4P0P  00000450000000656600000950232R7    IVYCIC  006400630015
BI00B32U9    TPA240         202209297298-1186-40             SQUIB SUB ASS'Y          CCN000040000000040000FN00000000020221001000040000NNMD0420220809120826U9  4N0N  00001000000000650000000774532U9    YNYNA-E 005400370024
BI00B32U9    TPA240         202209297298-1186-70             SQUIB SUB ASS'Y          CCN000010000000010000FN00000000020221001000010000NNMD0420220809120826U9  4N0N  00001000000000650000000774532U9    YNYNA-E 005400370024
BI00B32W4    4500191047     202208107289-9553-30             SEALED ASSY FEMALE       CCN000005880000005880FN00000000020220501000005880NNED0020220809120826W4N64N0N  00000294000001109000001521532W4N6  HJYHK-J 005500360039
BI00A32W4    @4500196413    202209127183-8049                CONNECTOR HOUSING        CCN000004000000004000FN00000000020220901000004000NNED0020220809133624W4493F0F  00000400000000583600000740032W449  HJYHK   005400370024
BI00A32W4    @4500196391    202209167183-8049                CONNECTOR HOUSING        CCN000004000000004000FN00000000020220801000004000NNED0020220809133555W4493F0F  00000400000000583600000740032W449  HJYHK   005400370024
BI00A32W4    @4500197145    202209267183-8049                CONNECTOR HOUSING        CCN000008000000008000FN00000000020220901000008000NNED0020220809133652W4493F0F  00000400000000583600000740032W449  HJYHK   005400370024
BI00A32W4    @4500197152    202210107183-8049                CONNECTOR HOUSING        CCN000004000000004000FN00000000020220901000004000NNED0020220809133712W4493F0F  00000400000000583600000740032W449  HJYHK   005400370024
BI00A32W4    4500197537     202208257283-1030                CONNECTOR                CCN000006000000006000FN00000000020220901000006000NNEM0020220809120826W4654N0N  00000600000000988000001172032W465  HJYHK   005500360039
BI00B32W4    4500198228     202208257116-4026                TERMINAL                 CCN000016000000016000FN00000000020220801000016000NNED0720220809120826W46 4P0P  00001600000000664000000994332W46   HJYHK   006400630017
BI00B32W4    4500198229     202211107116-4111-02             TERMINAL                 CCN000007500000007500FN00000000020221101000007500NNE   20220809120826W46 4P0P  00000750000000529500000817732W46   HJYHK   006400630015
BI00A32W4    4500198241     202208257283-7028-30             CONNECTOR                CCN000003000000003000FN00000000020220801000003000NNED0720220809120826W4334N0N  00000300000001452000001681332W433  HJYHK   005600390040
BI00A32W4    4500198241     202208257158-3169-40             SEALING PLUG             CCN000040000000040000FN00000000020220801000040000NNED0720220809120826W4331C0C  00004000000000156000000204132W433  HJYHK   004300260014
BI00A32W4    #4500198241    202208257183-7725-40             HOUSING                  CCN000006000000006000FN00000000020220801000006000NNED0720220809120826W4332F0F  00000600000000840000001040032W433  HJYHK   005600390040
BI00A32W4    4500198244     202209157283-7028-30             CONNECTOR                CCN000003000000003000FN00000000020220901000003000NNE   20220809120826W4334N0N  00000300000001452000001681332W433  HJYHK   005600390040
BI00A32W4    4500198244     202209157283-5846                HOUSING                  CCN000001500000001500FN00000000020220901000001500NNE   20220809120826W4331N0N  00000150000000885000001102032W433  HJYHK   005600390040
BI00A32W4    #4500198244    202209157282-8395-40             CONNECTOR                CCN000006000000006000FN00000000020220901000006000NNE   20220809120826W4332N0N  00000100000001009000001188032W433  HJYHK   005500360039
BI00A32W4    4500198247     202209157116-4231-02             TERMINAL                 CCN000052000000052000FN00000000020220901000052000NNE   20220809120826W4334P0P  00002600000000683800001012532W433  HJYHK   006400630017
BI00A32W4    4500198247     202209157114-4100-02             TERMINAL                 CCN000018000000018000FN00000000020220901000018000NNE   20220809120826W4334P0P  00001800000000748800001077432W433  HJYHK   006400630017
BI00A32W4    4500198247     202209157283-5846                HOUSING                  CCN000001500000001500FN00000000020220901000001500NNE   20220809120826W4331N0N  00000150000000885000001102032W433  HJYHK   005600390040
BI00A32W4    4500198247     202209157116-4102-02             TERMINAL                 CCN000012000000012000FN00000000020220901000012000NNE   20220809120826W4334P0P  00001200000000553200000841432W433  HJYHK   006400630015
BI00A32W4    #4500198247    202209157282-8395-40             CONNECTOR                CCN000003000000003000FN00000000020220901000003000NNE   20220809120826W4332N0N  00000100000001009000001188032W433  HJYHK   005500360039
BI00A32W4    4500198249     202209267158-3167-80             WIRE SEAL                CCN000040000000040000FN00000000020220901000040000NNE   20220809120826W4L71C0C  00002000000000048000000109032W4L7  HJYHK-J 002700430014
BI00A32W4    4500198259     202208257283-1114-30             CONNECTOR                CCN000002000000002000FN00000000020220801000002000NNE   20220809120826W4174N0N  00000200000000624000000973332W417  HJYHK   005600390040
BI00A32W4    4500198261     202210107283-1030                CONNECTOR                CCN000006000000006000FN00000000020221001000006000NNE   20220809120826W4M54N0N  00000600000000988000001172032W4M5  HJYHK-J 005500360039
BI00A32W4    4500198262     202210177116-4112-02             TERMINAL                 CCN000018000000018000FN00000000020221001000018000NNE   20220809120826W4M54P0P  00000600000000450000000738232W4M5  HJYHK-J 006400630015
BI00A32W4    #4500198262    202210177186-8845                HOUSING MALE             CCN000003000000003000FN00000000020221001000003000NNE   20220809120826W4M52F0F  00000300000000690000000801532W4M5  HJYHK-J 005400370024
BI00A32W4    4500198265     202209197114-4100-02             TERMINAL                 CCN000018000000018000FN00000000020220901000018000NNE   20220809120826W4194P0P  00001800000000748800001077432W419  HJYHK   006400630017
BI00A32W4    4500198268     202210037116-4111-02             TERMINAL                 CCN000015000000015000FN00000000020221001000015000NNE   20220809120826W4194P0P  00000750000000529500000817732W419  HJYHK   006400630015
BI00A32W4    4500198277     202210107116-4100-02             TERMINAL                 CCN000015000000015000FN00000000020221001000015000NNE   20220809120826W4194P0P  00001500000000696000000990232W419  HJYHK   006400630015
BI00A32W4    4500198277     202210107116-4102-02             TERMINAL                 CCN000036000000036000FN00000000020221001000036000NNE   20220809120826W4194P0P  00001200000000553200000841432W419  HJYHK   006400630015
BI00A32W4    4500198277     202210107116-4101-02             TERMINAL                 CCN000012000000012000FN00000000020221001000012000NNE   20220809120826W4194P0P  00001200000000582000000876232W419  HJYHK   006400630015
BI00A32W4    4500198277     202210107114-4101-02             TERMINAL                 CCN000015000000015000FN00000000020221001000015000NNE   20220809120826W4194P0P  00001500000000675000001003632W419  HJYHK   006400630017
BI00A32W4    4500198277     202210107116-4103-02             TERMINAL                 CCN000036000000036000FN00000000020221001000036000NNE   20220809120826W4194P0P  00001200000000571200000859432W419  HJYHK   006400630015
BI00A32W4    4500198277     202210107283-6568-40             CONNECTOR                CCN000002000000002000FN00000000020221001000002000NNE   20220809120826W4194N0N  00000200000001090000001263032W419  HJYHK   005500360039
BI00B32W4    4500198299     202209297116-1685                TERMINAL                 CCN000024000000024000FN00000000020221001000024000NNE   20220809120826W4244P0P  00002400000000892800001067232W424  HJYHK   005100280028
BI00B32W4    4500198300     202210067116-1685                TERMINAL                 CCN000024000000024000FN00000000020221001000024000NNE   20220809120826W4244P0P  00002400000000892800001067232W424  HJYHK   005100280028
BI00B32W9    4500198271     202208307116-4100-02             TERMINAL                 CCN000060000000060000FN00000000020220801000060000NNE   20220809120826W9  4P0P  00001500000000696000000990232W9    HKYHK   006400630015
BI00B32W9    4500198274     202209067287-7975-4W             SQUIB SUB ASS'Y          CCN000020000000020000FN00000000020220901000020000NNE   20220809120826W9  4N0N  00001000000000837000001017032W9    HKYHK   005400370024
BI00B32W9    4500198282     202209277172-5540-80             SEALED WIRE SEAL         CCN001000000001000000FN00000000020220901001000000NNE   20220809120826W9  1C0C  00002000000000186000000234432W9    HKYHK   004300270014
BI00B32W9    4500198282     202209277196-0805-02             TERMINAL FEMALE          CCN001125000001125000FN00000000020220901001125000NNE   20220809120826W9  4P0P  00002250000000558000000843232W9    HKYHK   006400630015
BI00B32W9    4500198282     202209277289-6868-30             SEALED ASSY FEMALE       CCN000511560000511560FN00000000020220901000511560NNE   20220809120826W9  4N0N  00000252000000839200001119232W9    HKYHK   005500360039
BI00B32W9    4500198282     202209277298-1145-4W             SQUIB SUB ASS'Y          CCN000600000000600000FN00000000020220901000600000NNE   20220809120826W9  4N0N  00001000000000787900000944932W9    HKYHK   005400370024
BI00B32W9    4500198282     202209277174-1849-70             COVER                    CCN000600000000600000FN00000000020220901000600000NNE   20220809120826W9  1F0F  00002500000000622500000761932W9    HKYHK   005400370024
BI00B32W9    4500198282     202209277196-0104-02             TERMINAL                 CCN000038000000038000FN00000000020220901000038000NNE   20220809120826W9  4P0P  00003800000000570000000956432W9    HKYHK   006400630017
BI00B32W9    4500198282     202209277298-4094-10             HOUSING FEMALE ASS'Y     CCN000202800000202800FN00000000020220901000202800NNE   20220809120826W9  4N0N  00000338000001097400001358732W9    HKYHK   005400370024
BI00B32W9    #4500198282    202209277198-1373-60             HOUSING FEMALE           CCN000090000000090000FN00000000020220901000090000NNE   20220809120826W9  2F0F  00000200000000819400000947432W9    HKYHK   005400370024
BI00B32X5    PX5TAT208A     202211257196-1936-02             TERMINAL FEMALE          CCN000013500000013500FN00000000020220801000013500NNEM0020220809120826X5  4P0P  00001350000000441500000726732X5    EPYNA-E 006400630015
BI00B32X5    PX5TAT208A     202211257196-1941-02             TERMINAL FEMALE          CCN000011400000011400FN00000000020220801000011400NNEM0020220809120826X5  4P0P  00001140000000506200000794432X5    EPYNA-E 006400630015
